{
	"contracts/misc/assembly/UselessEncryption.sol": {
		"UselessEncryption": {
			"abi": [
				{
					"inputs": [
						{
							"internalType": "string",
							"name": "_input",
							"type": "string"
						},
						{
							"internalType": "bool",
							"name": "_decrypt",
							"type": "bool"
						}
					],
					"name": "encrypt",
					"outputs": [
						{
							"internalType": "string",
							"name": "",
							"type": "string"
						}
					],
					"stateMutability": "pure",
					"type": "function"
				}
			],
			"devdoc": {
				"kind": "dev",
				"methods": {},
				"version": 1
			},
			"evm": {
				"assembly": "    /* \"contracts/misc/assembly/UselessEncryption.sol\":63:230  contract UselessEncryption {... */\n  mstore(0x40, 0x80)\n  callvalue\n  dup1\n  iszero\n  tag_1\n  jumpi\n  0x00\n  dup1\n  revert\ntag_1:\n  pop\n  dataSize(sub_0)\n  dup1\n  dataOffset(sub_0)\n  0x00\n  codecopy\n  0x00\n  return\nstop\n\nsub_0: assembly {\n        /* \"contracts/misc/assembly/UselessEncryption.sol\":63:230  contract UselessEncryption {... */\n      mstore(0x40, 0x80)\n      callvalue\n      dup1\n      iszero\n      tag_1\n      jumpi\n      0x00\n      dup1\n      revert\n    tag_1:\n      pop\n      jumpi(tag_2, lt(calldatasize, 0x04))\n      shr(0xe0, calldataload(0x00))\n      dup1\n      0x6232d618\n      eq\n      tag_3\n      jumpi\n    tag_2:\n      0x00\n      dup1\n      revert\n        /* \"contracts/misc/assembly/UselessEncryption.sol\":96:228  function encrypt(string memory _input, bool _decrypt) external pure returns (string memory) {... */\n    tag_3:\n      tag_4\n      0x04\n      dup1\n      calldatasize\n      sub\n      dup2\n      add\n      swap1\n      tag_5\n      swap2\n      swap1\n      tag_6\n      jump\t// in\n    tag_5:\n      tag_7\n      jump\t// in\n    tag_4:\n      mload(0x40)\n      tag_8\n      swap2\n      swap1\n      tag_9\n      jump\t// in\n    tag_8:\n      mload(0x40)\n      dup1\n      swap2\n      sub\n      swap1\n      return\n    tag_7:\n        /* \"contracts/misc/assembly/UselessEncryption.sol\":173:186  string memory */\n      0x60\n        /* \"contracts/misc/assembly/UselessEncryption.sol\":96:228  function encrypt(string memory _input, bool _decrypt) external pure returns (string memory) {... */\n      swap3\n      swap2\n      pop\n      pop\n      jump\t// out\n        /* \"#utility.yul\":7:419   */\n    tag_12:\n        /* \"#utility.yul\":85:90   */\n      0x00\n        /* \"#utility.yul\":110:176   */\n      tag_14\n        /* \"#utility.yul\":126:175   */\n      tag_15\n        /* \"#utility.yul\":168:174   */\n      dup5\n        /* \"#utility.yul\":126:175   */\n      tag_16\n      jump\t// in\n    tag_15:\n        /* \"#utility.yul\":110:176   */\n      tag_17\n      jump\t// in\n    tag_14:\n        /* \"#utility.yul\":101:176   */\n      swap1\n      pop\n        /* \"#utility.yul\":199:205   */\n      dup3\n        /* \"#utility.yul\":192:197   */\n      dup2\n        /* \"#utility.yul\":185:206   */\n      mstore\n        /* \"#utility.yul\":237:241   */\n      0x20\n        /* \"#utility.yul\":230:235   */\n      dup2\n        /* \"#utility.yul\":226:242   */\n      add\n        /* \"#utility.yul\":275:278   */\n      dup5\n        /* \"#utility.yul\":266:272   */\n      dup5\n        /* \"#utility.yul\":261:264   */\n      dup5\n        /* \"#utility.yul\":257:273   */\n      add\n        /* \"#utility.yul\":254:279   */\n      gt\n        /* \"#utility.yul\":251:363   */\n      iszero\n      tag_18\n      jumpi\n        /* \"#utility.yul\":282:361   */\n      tag_19\n      tag_20\n      jump\t// in\n    tag_19:\n        /* \"#utility.yul\":251:363   */\n    tag_18:\n        /* \"#utility.yul\":372:413   */\n      tag_21\n        /* \"#utility.yul\":406:412   */\n      dup5\n        /* \"#utility.yul\":401:404   */\n      dup3\n        /* \"#utility.yul\":396:399   */\n      dup6\n        /* \"#utility.yul\":372:413   */\n      tag_22\n      jump\t// in\n    tag_21:\n        /* \"#utility.yul\":91:419   */\n      pop\n        /* \"#utility.yul\":7:419   */\n      swap4\n      swap3\n      pop\n      pop\n      pop\n      jump\t// out\n        /* \"#utility.yul\":425:558   */\n    tag_23:\n        /* \"#utility.yul\":468:473   */\n      0x00\n        /* \"#utility.yul\":506:512   */\n      dup2\n        /* \"#utility.yul\":493:513   */\n      calldataload\n        /* \"#utility.yul\":484:513   */\n      swap1\n      pop\n        /* \"#utility.yul\":522:552   */\n      tag_25\n        /* \"#utility.yul\":546:551   */\n      dup2\n        /* \"#utility.yul\":522:552   */\n      tag_26\n      jump\t// in\n    tag_25:\n        /* \"#utility.yul\":425:558   */\n      swap3\n      swap2\n      pop\n      pop\n      jump\t// out\n        /* \"#utility.yul\":578:918   */\n    tag_27:\n        /* \"#utility.yul\":634:639   */\n      0x00\n        /* \"#utility.yul\":683:686   */\n      dup3\n        /* \"#utility.yul\":676:680   */\n      0x1f\n        /* \"#utility.yul\":668:674   */\n      dup4\n        /* \"#utility.yul\":664:681   */\n      add\n        /* \"#utility.yul\":660:687   */\n      slt\n        /* \"#utility.yul\":650:772   */\n      tag_29\n      jumpi\n        /* \"#utility.yul\":691:770   */\n      tag_30\n      tag_31\n      jump\t// in\n    tag_30:\n        /* \"#utility.yul\":650:772   */\n    tag_29:\n        /* \"#utility.yul\":808:814   */\n      dup2\n        /* \"#utility.yul\":795:815   */\n      calldataload\n        /* \"#utility.yul\":833:912   */\n      tag_32\n        /* \"#utility.yul\":908:911   */\n      dup5\n        /* \"#utility.yul\":900:906   */\n      dup3\n        /* \"#utility.yul\":893:897   */\n      0x20\n        /* \"#utility.yul\":885:891   */\n      dup7\n        /* \"#utility.yul\":881:898   */\n      add\n        /* \"#utility.yul\":833:912   */\n      tag_12\n      jump\t// in\n    tag_32:\n        /* \"#utility.yul\":824:912   */\n      swap2\n      pop\n        /* \"#utility.yul\":640:918   */\n      pop\n        /* \"#utility.yul\":578:918   */\n      swap3\n      swap2\n      pop\n      pop\n      jump\t// out\n        /* \"#utility.yul\":924:1572   */\n    tag_6:\n        /* \"#utility.yul\":999:1005   */\n      0x00\n        /* \"#utility.yul\":1007:1013   */\n      dup1\n        /* \"#utility.yul\":1056:1058   */\n      0x40\n        /* \"#utility.yul\":1044:1053   */\n      dup4\n        /* \"#utility.yul\":1035:1042   */\n      dup6\n        /* \"#utility.yul\":1031:1054   */\n      sub\n        /* \"#utility.yul\":1027:1059   */\n      slt\n        /* \"#utility.yul\":1024:1143   */\n      iszero\n      tag_34\n      jumpi\n        /* \"#utility.yul\":1062:1141   */\n      tag_35\n      tag_36\n      jump\t// in\n    tag_35:\n        /* \"#utility.yul\":1024:1143   */\n    tag_34:\n        /* \"#utility.yul\":1210:1211   */\n      0x00\n        /* \"#utility.yul\":1199:1208   */\n      dup4\n        /* \"#utility.yul\":1195:1212   */\n      add\n        /* \"#utility.yul\":1182:1213   */\n      calldataload\n        /* \"#utility.yul\":1240:1258   */\n      0xffffffffffffffff\n        /* \"#utility.yul\":1232:1238   */\n      dup2\n        /* \"#utility.yul\":1229:1259   */\n      gt\n        /* \"#utility.yul\":1226:1343   */\n      iszero\n      tag_37\n      jumpi\n        /* \"#utility.yul\":1262:1341   */\n      tag_38\n      tag_39\n      jump\t// in\n    tag_38:\n        /* \"#utility.yul\":1226:1343   */\n    tag_37:\n        /* \"#utility.yul\":1367:1430   */\n      tag_40\n        /* \"#utility.yul\":1422:1429   */\n      dup6\n        /* \"#utility.yul\":1413:1419   */\n      dup3\n        /* \"#utility.yul\":1402:1411   */\n      dup7\n        /* \"#utility.yul\":1398:1420   */\n      add\n        /* \"#utility.yul\":1367:1430   */\n      tag_27\n      jump\t// in\n    tag_40:\n        /* \"#utility.yul\":1357:1430   */\n      swap3\n      pop\n        /* \"#utility.yul\":1153:1440   */\n      pop\n        /* \"#utility.yul\":1479:1481   */\n      0x20\n        /* \"#utility.yul\":1505:1555   */\n      tag_41\n        /* \"#utility.yul\":1547:1554   */\n      dup6\n        /* \"#utility.yul\":1538:1544   */\n      dup3\n        /* \"#utility.yul\":1527:1536   */\n      dup7\n        /* \"#utility.yul\":1523:1545   */\n      add\n        /* \"#utility.yul\":1505:1555   */\n      tag_23\n      jump\t// in\n    tag_41:\n        /* \"#utility.yul\":1495:1555   */\n      swap2\n      pop\n        /* \"#utility.yul\":1450:1565   */\n      pop\n        /* \"#utility.yul\":924:1572   */\n      swap3\n      pop\n      swap3\n      swap1\n      pop\n      jump\t// out\n        /* \"#utility.yul\":1578:1942   */\n    tag_42:\n        /* \"#utility.yul\":1666:1669   */\n      0x00\n        /* \"#utility.yul\":1694:1733   */\n      tag_44\n        /* \"#utility.yul\":1727:1732   */\n      dup3\n        /* \"#utility.yul\":1694:1733   */\n      tag_45\n      jump\t// in\n    tag_44:\n        /* \"#utility.yul\":1749:1820   */\n      tag_46\n        /* \"#utility.yul\":1813:1819   */\n      dup2\n        /* \"#utility.yul\":1808:1811   */\n      dup6\n        /* \"#utility.yul\":1749:1820   */\n      tag_47\n      jump\t// in\n    tag_46:\n        /* \"#utility.yul\":1742:1820   */\n      swap4\n      pop\n        /* \"#utility.yul\":1829:1881   */\n      tag_48\n        /* \"#utility.yul\":1874:1880   */\n      dup2\n        /* \"#utility.yul\":1869:1872   */\n      dup6\n        /* \"#utility.yul\":1862:1866   */\n      0x20\n        /* \"#utility.yul\":1855:1860   */\n      dup7\n        /* \"#utility.yul\":1851:1867   */\n      add\n        /* \"#utility.yul\":1829:1881   */\n      tag_49\n      jump\t// in\n    tag_48:\n        /* \"#utility.yul\":1906:1935   */\n      tag_50\n        /* \"#utility.yul\":1928:1934   */\n      dup2\n        /* \"#utility.yul\":1906:1935   */\n      tag_51\n      jump\t// in\n    tag_50:\n        /* \"#utility.yul\":1901:1904   */\n      dup5\n        /* \"#utility.yul\":1897:1936   */\n      add\n        /* \"#utility.yul\":1890:1936   */\n      swap2\n      pop\n        /* \"#utility.yul\":1670:1942   */\n      pop\n        /* \"#utility.yul\":1578:1942   */\n      swap3\n      swap2\n      pop\n      pop\n      jump\t// out\n        /* \"#utility.yul\":1948:2261   */\n    tag_9:\n        /* \"#utility.yul\":2061:2065   */\n      0x00\n        /* \"#utility.yul\":2099:2101   */\n      0x20\n        /* \"#utility.yul\":2088:2097   */\n      dup3\n        /* \"#utility.yul\":2084:2102   */\n      add\n        /* \"#utility.yul\":2076:2102   */\n      swap1\n      pop\n        /* \"#utility.yul\":2148:2157   */\n      dup2\n        /* \"#utility.yul\":2142:2146   */\n      dup2\n        /* \"#utility.yul\":2138:2158   */\n      sub\n        /* \"#utility.yul\":2134:2135   */\n      0x00\n        /* \"#utility.yul\":2123:2132   */\n      dup4\n        /* \"#utility.yul\":2119:2136   */\n      add\n        /* \"#utility.yul\":2112:2159   */\n      mstore\n        /* \"#utility.yul\":2176:2254   */\n      tag_53\n        /* \"#utility.yul\":2249:2253   */\n      dup2\n        /* \"#utility.yul\":2240:2246   */\n      dup5\n        /* \"#utility.yul\":2176:2254   */\n      tag_42\n      jump\t// in\n    tag_53:\n        /* \"#utility.yul\":2168:2254   */\n      swap1\n      pop\n        /* \"#utility.yul\":1948:2261   */\n      swap3\n      swap2\n      pop\n      pop\n      jump\t// out\n        /* \"#utility.yul\":2267:2396   */\n    tag_17:\n        /* \"#utility.yul\":2301:2307   */\n      0x00\n        /* \"#utility.yul\":2328:2348   */\n      tag_55\n      tag_56\n      jump\t// in\n    tag_55:\n        /* \"#utility.yul\":2318:2348   */\n      swap1\n      pop\n        /* \"#utility.yul\":2357:2390   */\n      tag_57\n        /* \"#utility.yul\":2385:2389   */\n      dup3\n        /* \"#utility.yul\":2377:2383   */\n      dup3\n        /* \"#utility.yul\":2357:2390   */\n      tag_58\n      jump\t// in\n    tag_57:\n        /* \"#utility.yul\":2267:2396   */\n      swap2\n      swap1\n      pop\n      jump\t// out\n        /* \"#utility.yul\":2402:2477   */\n    tag_56:\n        /* \"#utility.yul\":2435:2441   */\n      0x00\n        /* \"#utility.yul\":2468:2470   */\n      0x40\n        /* \"#utility.yul\":2462:2471   */\n      mload\n        /* \"#utility.yul\":2452:2471   */\n      swap1\n      pop\n        /* \"#utility.yul\":2402:2477   */\n      swap1\n      jump\t// out\n        /* \"#utility.yul\":2483:2791   */\n    tag_16:\n        /* \"#utility.yul\":2545:2549   */\n      0x00\n        /* \"#utility.yul\":2635:2653   */\n      0xffffffffffffffff\n        /* \"#utility.yul\":2627:2633   */\n      dup3\n        /* \"#utility.yul\":2624:2654   */\n      gt\n        /* \"#utility.yul\":2621:2677   */\n      iszero\n      tag_61\n      jumpi\n        /* \"#utility.yul\":2657:2675   */\n      tag_62\n      tag_63\n      jump\t// in\n    tag_62:\n        /* \"#utility.yul\":2621:2677   */\n    tag_61:\n        /* \"#utility.yul\":2695:2724   */\n      tag_64\n        /* \"#utility.yul\":2717:2723   */\n      dup3\n        /* \"#utility.yul\":2695:2724   */\n      tag_51\n      jump\t// in\n    tag_64:\n        /* \"#utility.yul\":2687:2724   */\n      swap1\n      pop\n        /* \"#utility.yul\":2779:2783   */\n      0x20\n        /* \"#utility.yul\":2773:2777   */\n      dup2\n        /* \"#utility.yul\":2769:2784   */\n      add\n        /* \"#utility.yul\":2761:2784   */\n      swap1\n      pop\n        /* \"#utility.yul\":2483:2791   */\n      swap2\n      swap1\n      pop\n      jump\t// out\n        /* \"#utility.yul\":2797:2896   */\n    tag_45:\n        /* \"#utility.yul\":2849:2855   */\n      0x00\n        /* \"#utility.yul\":2883:2888   */\n      dup2\n        /* \"#utility.yul\":2877:2889   */\n      mload\n        /* \"#utility.yul\":2867:2889   */\n      swap1\n      pop\n        /* \"#utility.yul\":2797:2896   */\n      swap2\n      swap1\n      pop\n      jump\t// out\n        /* \"#utility.yul\":2902:3071   */\n    tag_47:\n        /* \"#utility.yul\":2986:2997   */\n      0x00\n        /* \"#utility.yul\":3020:3026   */\n      dup3\n        /* \"#utility.yul\":3015:3018   */\n      dup3\n        /* \"#utility.yul\":3008:3027   */\n      mstore\n        /* \"#utility.yul\":3060:3064   */\n      0x20\n        /* \"#utility.yul\":3055:3058   */\n      dup3\n        /* \"#utility.yul\":3051:3065   */\n      add\n        /* \"#utility.yul\":3036:3065   */\n      swap1\n      pop\n        /* \"#utility.yul\":2902:3071   */\n      swap3\n      swap2\n      pop\n      pop\n      jump\t// out\n        /* \"#utility.yul\":3077:3167   */\n    tag_67:\n        /* \"#utility.yul\":3111:3118   */\n      0x00\n        /* \"#utility.yul\":3154:3159   */\n      dup2\n        /* \"#utility.yul\":3147:3160   */\n      iszero\n        /* \"#utility.yul\":3140:3161   */\n      iszero\n        /* \"#utility.yul\":3129:3161   */\n      swap1\n      pop\n        /* \"#utility.yul\":3077:3167   */\n      swap2\n      swap1\n      pop\n      jump\t// out\n        /* \"#utility.yul\":3173:3327   */\n    tag_22:\n        /* \"#utility.yul\":3257:3263   */\n      dup3\n        /* \"#utility.yul\":3252:3255   */\n      dup2\n        /* \"#utility.yul\":3247:3250   */\n      dup4\n        /* \"#utility.yul\":3234:3264   */\n      calldatacopy\n        /* \"#utility.yul\":3319:3320   */\n      0x00\n        /* \"#utility.yul\":3310:3316   */\n      dup4\n        /* \"#utility.yul\":3305:3308   */\n      dup4\n        /* \"#utility.yul\":3301:3317   */\n      add\n        /* \"#utility.yul\":3294:3321   */\n      mstore\n        /* \"#utility.yul\":3173:3327   */\n      pop\n      pop\n      pop\n      jump\t// out\n        /* \"#utility.yul\":3333:3640   */\n    tag_49:\n        /* \"#utility.yul\":3401:3402   */\n      0x00\n        /* \"#utility.yul\":3411:3524   */\n    tag_71:\n        /* \"#utility.yul\":3425:3431   */\n      dup4\n        /* \"#utility.yul\":3422:3423   */\n      dup2\n        /* \"#utility.yul\":3419:3432   */\n      lt\n        /* \"#utility.yul\":3411:3524   */\n      iszero\n      tag_73\n      jumpi\n        /* \"#utility.yul\":3510:3511   */\n      dup1\n        /* \"#utility.yul\":3505:3508   */\n      dup3\n        /* \"#utility.yul\":3501:3512   */\n      add\n        /* \"#utility.yul\":3495:3513   */\n      mload\n        /* \"#utility.yul\":3491:3492   */\n      dup2\n        /* \"#utility.yul\":3486:3489   */\n      dup5\n        /* \"#utility.yul\":3482:3493   */\n      add\n        /* \"#utility.yul\":3475:3514   */\n      mstore\n        /* \"#utility.yul\":3447:3449   */\n      0x20\n        /* \"#utility.yul\":3444:3445   */\n      dup2\n        /* \"#utility.yul\":3440:3450   */\n      add\n        /* \"#utility.yul\":3435:3450   */\n      swap1\n      pop\n        /* \"#utility.yul\":3411:3524   */\n      jump(tag_71)\n    tag_73:\n        /* \"#utility.yul\":3542:3548   */\n      dup4\n        /* \"#utility.yul\":3539:3540   */\n      dup2\n        /* \"#utility.yul\":3536:3549   */\n      gt\n        /* \"#utility.yul\":3533:3634   */\n      iszero\n      tag_74\n      jumpi\n        /* \"#utility.yul\":3622:3623   */\n      0x00\n        /* \"#utility.yul\":3613:3619   */\n      dup5\n        /* \"#utility.yul\":3608:3611   */\n      dup5\n        /* \"#utility.yul\":3604:3620   */\n      add\n        /* \"#utility.yul\":3597:3624   */\n      mstore\n        /* \"#utility.yul\":3533:3634   */\n    tag_74:\n        /* \"#utility.yul\":3382:3640   */\n      pop\n        /* \"#utility.yul\":3333:3640   */\n      pop\n      pop\n      pop\n      jump\t// out\n        /* \"#utility.yul\":3646:3927   */\n    tag_58:\n        /* \"#utility.yul\":3729:3756   */\n      tag_76\n        /* \"#utility.yul\":3751:3755   */\n      dup3\n        /* \"#utility.yul\":3729:3756   */\n      tag_51\n      jump\t// in\n    tag_76:\n        /* \"#utility.yul\":3721:3727   */\n      dup2\n        /* \"#utility.yul\":3717:3757   */\n      add\n        /* \"#utility.yul\":3859:3865   */\n      dup2\n        /* \"#utility.yul\":3847:3857   */\n      dup2\n        /* \"#utility.yul\":3844:3866   */\n      lt\n        /* \"#utility.yul\":3823:3841   */\n      0xffffffffffffffff\n        /* \"#utility.yul\":3811:3821   */\n      dup3\n        /* \"#utility.yul\":3808:3842   */\n      gt\n        /* \"#utility.yul\":3805:3867   */\n      or\n        /* \"#utility.yul\":3802:3890   */\n      iszero\n      tag_77\n      jumpi\n        /* \"#utility.yul\":3870:3888   */\n      tag_78\n      tag_63\n      jump\t// in\n    tag_78:\n        /* \"#utility.yul\":3802:3890   */\n    tag_77:\n        /* \"#utility.yul\":3910:3920   */\n      dup1\n        /* \"#utility.yul\":3906:3908   */\n      0x40\n        /* \"#utility.yul\":3899:3921   */\n      mstore\n        /* \"#utility.yul\":3689:3927   */\n      pop\n        /* \"#utility.yul\":3646:3927   */\n      pop\n      pop\n      jump\t// out\n        /* \"#utility.yul\":3933:4113   */\n    tag_63:\n        /* \"#utility.yul\":3981:4058   */\n      0x4e487b7100000000000000000000000000000000000000000000000000000000\n        /* \"#utility.yul\":3978:3979   */\n      0x00\n        /* \"#utility.yul\":3971:4059   */\n      mstore\n        /* \"#utility.yul\":4078:4082   */\n      0x41\n        /* \"#utility.yul\":4075:4076   */\n      0x04\n        /* \"#utility.yul\":4068:4083   */\n      mstore\n        /* \"#utility.yul\":4102:4106   */\n      0x24\n        /* \"#utility.yul\":4099:4100   */\n      0x00\n        /* \"#utility.yul\":4092:4107   */\n      revert\n        /* \"#utility.yul\":4119:4236   */\n    tag_31:\n        /* \"#utility.yul\":4228:4229   */\n      0x00\n        /* \"#utility.yul\":4225:4226   */\n      dup1\n        /* \"#utility.yul\":4218:4230   */\n      revert\n        /* \"#utility.yul\":4242:4359   */\n    tag_20:\n        /* \"#utility.yul\":4351:4352   */\n      0x00\n        /* \"#utility.yul\":4348:4349   */\n      dup1\n        /* \"#utility.yul\":4341:4353   */\n      revert\n        /* \"#utility.yul\":4365:4482   */\n    tag_39:\n        /* \"#utility.yul\":4474:4475   */\n      0x00\n        /* \"#utility.yul\":4471:4472   */\n      dup1\n        /* \"#utility.yul\":4464:4476   */\n      revert\n        /* \"#utility.yul\":4488:4605   */\n    tag_36:\n        /* \"#utility.yul\":4597:4598   */\n      0x00\n        /* \"#utility.yul\":4594:4595   */\n      dup1\n        /* \"#utility.yul\":4587:4599   */\n      revert\n        /* \"#utility.yul\":4611:4713   */\n    tag_51:\n        /* \"#utility.yul\":4652:4658   */\n      0x00\n        /* \"#utility.yul\":4703:4705   */\n      0x1f\n        /* \"#utility.yul\":4699:4706   */\n      not\n        /* \"#utility.yul\":4694:4696   */\n      0x1f\n        /* \"#utility.yul\":4687:4692   */\n      dup4\n        /* \"#utility.yul\":4683:4697   */\n      add\n        /* \"#utility.yul\":4679:4707   */\n      and\n        /* \"#utility.yul\":4669:4707   */\n      swap1\n      pop\n        /* \"#utility.yul\":4611:4713   */\n      swap2\n      swap1\n      pop\n      jump\t// out\n        /* \"#utility.yul\":4719:4835   */\n    tag_26:\n        /* \"#utility.yul\":4789:4810   */\n      tag_86\n        /* \"#utility.yul\":4804:4809   */\n      dup2\n        /* \"#utility.yul\":4789:4810   */\n      tag_67\n      jump\t// in\n    tag_86:\n        /* \"#utility.yul\":4782:4787   */\n      dup2\n        /* \"#utility.yul\":4779:4811   */\n      eq\n        /* \"#utility.yul\":4769:4829   */\n      tag_87\n      jumpi\n        /* \"#utility.yul\":4825:4826   */\n      0x00\n        /* \"#utility.yul\":4822:4823   */\n      dup1\n        /* \"#utility.yul\":4815:4827   */\n      revert\n        /* \"#utility.yul\":4769:4829   */\n    tag_87:\n        /* \"#utility.yul\":4719:4835   */\n      pop\n      jump\t// out\n\n    auxdata: 0xa26469706673582212206b359d1cc1c4facbff411786389fcb0f68e0a6d77e81416aac40e39f4fbd475264736f6c63430008070033\n}\n",
				"bytecode": {
					"linkReferences": {},
					"object": "608060405234801561001057600080fd5b50610336806100206000396000f3fe608060405234801561001057600080fd5b506004361061002b5760003560e01c80636232d61814610030575b600080fd5b61004a600480360381019061004591906100ed565b610060565b6040516100579190610182565b60405180910390f35b606092915050565b600061007b610076846101c9565b6101a4565b905082815260208101848484011115610097576100966102c9565b5b6100a2848285610222565b509392505050565b6000813590506100b9816102e9565b92915050565b600082601f8301126100d4576100d36102c4565b5b81356100e4848260208601610068565b91505092915050565b60008060408385031215610104576101036102d3565b5b600083013567ffffffffffffffff811115610122576101216102ce565b5b61012e858286016100bf565b925050602061013f858286016100aa565b9150509250929050565b6000610154826101fa565b61015e8185610205565b935061016e818560208601610231565b610177816102d8565b840191505092915050565b6000602082019050818103600083015261019c8184610149565b905092915050565b60006101ae6101bf565b90506101ba8282610264565b919050565b6000604051905090565b600067ffffffffffffffff8211156101e4576101e3610295565b5b6101ed826102d8565b9050602081019050919050565b600081519050919050565b600082825260208201905092915050565b60008115159050919050565b82818337600083830152505050565b60005b8381101561024f578082015181840152602081019050610234565b8381111561025e576000848401525b50505050565b61026d826102d8565b810181811067ffffffffffffffff8211171561028c5761028b610295565b5b80604052505050565b7f4e487b7100000000000000000000000000000000000000000000000000000000600052604160045260246000fd5b600080fd5b600080fd5b600080fd5b600080fd5b6000601f19601f8301169050919050565b6102f281610216565b81146102fd57600080fd5b5056fea26469706673582212206b359d1cc1c4facbff411786389fcb0f68e0a6d77e81416aac40e39f4fbd475264736f6c63430008070033",
					"opcodes": "PUSH1 0x80 PUSH1 0x40 MSTORE CALLVALUE DUP1 ISZERO PUSH2 0x10 JUMPI PUSH1 0x0 DUP1 REVERT JUMPDEST POP PUSH2 0x336 DUP1 PUSH2 0x20 PUSH1 0x0 CODECOPY PUSH1 0x0 RETURN INVALID PUSH1 0x80 PUSH1 0x40 MSTORE CALLVALUE DUP1 ISZERO PUSH2 0x10 JUMPI PUSH1 0x0 DUP1 REVERT JUMPDEST POP PUSH1 0x4 CALLDATASIZE LT PUSH2 0x2B JUMPI PUSH1 0x0 CALLDATALOAD PUSH1 0xE0 SHR DUP1 PUSH4 0x6232D618 EQ PUSH2 0x30 JUMPI JUMPDEST PUSH1 0x0 DUP1 REVERT JUMPDEST PUSH2 0x4A PUSH1 0x4 DUP1 CALLDATASIZE SUB DUP2 ADD SWAP1 PUSH2 0x45 SWAP2 SWAP1 PUSH2 0xED JUMP JUMPDEST PUSH2 0x60 JUMP JUMPDEST PUSH1 0x40 MLOAD PUSH2 0x57 SWAP2 SWAP1 PUSH2 0x182 JUMP JUMPDEST PUSH1 0x40 MLOAD DUP1 SWAP2 SUB SWAP1 RETURN JUMPDEST PUSH1 0x60 SWAP3 SWAP2 POP POP JUMP JUMPDEST PUSH1 0x0 PUSH2 0x7B PUSH2 0x76 DUP5 PUSH2 0x1C9 JUMP JUMPDEST PUSH2 0x1A4 JUMP JUMPDEST SWAP1 POP DUP3 DUP2 MSTORE PUSH1 0x20 DUP2 ADD DUP5 DUP5 DUP5 ADD GT ISZERO PUSH2 0x97 JUMPI PUSH2 0x96 PUSH2 0x2C9 JUMP JUMPDEST JUMPDEST PUSH2 0xA2 DUP5 DUP3 DUP6 PUSH2 0x222 JUMP JUMPDEST POP SWAP4 SWAP3 POP POP POP JUMP JUMPDEST PUSH1 0x0 DUP2 CALLDATALOAD SWAP1 POP PUSH2 0xB9 DUP2 PUSH2 0x2E9 JUMP JUMPDEST SWAP3 SWAP2 POP POP JUMP JUMPDEST PUSH1 0x0 DUP3 PUSH1 0x1F DUP4 ADD SLT PUSH2 0xD4 JUMPI PUSH2 0xD3 PUSH2 0x2C4 JUMP JUMPDEST JUMPDEST DUP2 CALLDATALOAD PUSH2 0xE4 DUP5 DUP3 PUSH1 0x20 DUP7 ADD PUSH2 0x68 JUMP JUMPDEST SWAP2 POP POP SWAP3 SWAP2 POP POP JUMP JUMPDEST PUSH1 0x0 DUP1 PUSH1 0x40 DUP4 DUP6 SUB SLT ISZERO PUSH2 0x104 JUMPI PUSH2 0x103 PUSH2 0x2D3 JUMP JUMPDEST JUMPDEST PUSH1 0x0 DUP4 ADD CALLDATALOAD PUSH8 0xFFFFFFFFFFFFFFFF DUP2 GT ISZERO PUSH2 0x122 JUMPI PUSH2 0x121 PUSH2 0x2CE JUMP JUMPDEST JUMPDEST PUSH2 0x12E DUP6 DUP3 DUP7 ADD PUSH2 0xBF JUMP JUMPDEST SWAP3 POP POP PUSH1 0x20 PUSH2 0x13F DUP6 DUP3 DUP7 ADD PUSH2 0xAA JUMP JUMPDEST SWAP2 POP POP SWAP3 POP SWAP3 SWAP1 POP JUMP JUMPDEST PUSH1 0x0 PUSH2 0x154 DUP3 PUSH2 0x1FA JUMP JUMPDEST PUSH2 0x15E DUP2 DUP6 PUSH2 0x205 JUMP JUMPDEST SWAP4 POP PUSH2 0x16E DUP2 DUP6 PUSH1 0x20 DUP7 ADD PUSH2 0x231 JUMP JUMPDEST PUSH2 0x177 DUP2 PUSH2 0x2D8 JUMP JUMPDEST DUP5 ADD SWAP2 POP POP SWAP3 SWAP2 POP POP JUMP JUMPDEST PUSH1 0x0 PUSH1 0x20 DUP3 ADD SWAP1 POP DUP2 DUP2 SUB PUSH1 0x0 DUP4 ADD MSTORE PUSH2 0x19C DUP2 DUP5 PUSH2 0x149 JUMP JUMPDEST SWAP1 POP SWAP3 SWAP2 POP POP JUMP JUMPDEST PUSH1 0x0 PUSH2 0x1AE PUSH2 0x1BF JUMP JUMPDEST SWAP1 POP PUSH2 0x1BA DUP3 DUP3 PUSH2 0x264 JUMP JUMPDEST SWAP2 SWAP1 POP JUMP JUMPDEST PUSH1 0x0 PUSH1 0x40 MLOAD SWAP1 POP SWAP1 JUMP JUMPDEST PUSH1 0x0 PUSH8 0xFFFFFFFFFFFFFFFF DUP3 GT ISZERO PUSH2 0x1E4 JUMPI PUSH2 0x1E3 PUSH2 0x295 JUMP JUMPDEST JUMPDEST PUSH2 0x1ED DUP3 PUSH2 0x2D8 JUMP JUMPDEST SWAP1 POP PUSH1 0x20 DUP2 ADD SWAP1 POP SWAP2 SWAP1 POP JUMP JUMPDEST PUSH1 0x0 DUP2 MLOAD SWAP1 POP SWAP2 SWAP1 POP JUMP JUMPDEST PUSH1 0x0 DUP3 DUP3 MSTORE PUSH1 0x20 DUP3 ADD SWAP1 POP SWAP3 SWAP2 POP POP JUMP JUMPDEST PUSH1 0x0 DUP2 ISZERO ISZERO SWAP1 POP SWAP2 SWAP1 POP JUMP JUMPDEST DUP3 DUP2 DUP4 CALLDATACOPY PUSH1 0x0 DUP4 DUP4 ADD MSTORE POP POP POP JUMP JUMPDEST PUSH1 0x0 JUMPDEST DUP4 DUP2 LT ISZERO PUSH2 0x24F JUMPI DUP1 DUP3 ADD MLOAD DUP2 DUP5 ADD MSTORE PUSH1 0x20 DUP2 ADD SWAP1 POP PUSH2 0x234 JUMP JUMPDEST DUP4 DUP2 GT ISZERO PUSH2 0x25E JUMPI PUSH1 0x0 DUP5 DUP5 ADD MSTORE JUMPDEST POP POP POP POP JUMP JUMPDEST PUSH2 0x26D DUP3 PUSH2 0x2D8 JUMP JUMPDEST DUP2 ADD DUP2 DUP2 LT PUSH8 0xFFFFFFFFFFFFFFFF DUP3 GT OR ISZERO PUSH2 0x28C JUMPI PUSH2 0x28B PUSH2 0x295 JUMP JUMPDEST JUMPDEST DUP1 PUSH1 0x40 MSTORE POP POP POP JUMP JUMPDEST PUSH32 0x4E487B7100000000000000000000000000000000000000000000000000000000 PUSH1 0x0 MSTORE PUSH1 0x41 PUSH1 0x4 MSTORE PUSH1 0x24 PUSH1 0x0 REVERT JUMPDEST PUSH1 0x0 DUP1 REVERT JUMPDEST PUSH1 0x0 DUP1 REVERT JUMPDEST PUSH1 0x0 DUP1 REVERT JUMPDEST PUSH1 0x0 DUP1 REVERT JUMPDEST PUSH1 0x0 PUSH1 0x1F NOT PUSH1 0x1F DUP4 ADD AND SWAP1 POP SWAP2 SWAP1 POP JUMP JUMPDEST PUSH2 0x2F2 DUP2 PUSH2 0x216 JUMP JUMPDEST DUP2 EQ PUSH2 0x2FD JUMPI PUSH1 0x0 DUP1 REVERT JUMPDEST POP JUMP INVALID LOG2 PUSH5 0x6970667358 0x22 SLT KECCAK256 PUSH12 0x359D1CC1C4FACBFF41178638 SWAP16 0xCB 0xF PUSH9 0xE0A6D77E81416AAC40 0xE3 SWAP16 0x4F 0xBD SELFBALANCE MSTORE PUSH5 0x736F6C6343 STOP ADDMOD SMOD STOP CALLER "
				},
				"gasEstimates": {
					"creation": {
						"codeDepositCost": "164400",
						"executionCost": "208",
						"totalCost": "164608"
					},
					"external": {
						"encrypt(string,bool)": "infinite"
					}
				},
				"methodIdentifiers": {
					"encrypt(string,bool)": "6232d618"
				}
			},
			"storageLayout": {
				"storage": [],
				"types": null
			},
			"userdoc": {
				"kind": "user",
				"methods": {},
				"version": 1
			}
		}
	}
}