{
	"contracts/misc/assembly/MostSignificantBit.sol": {
		"MostSignificantBitAssembly": {
			"abi": [
				{
					"inputs": [
						{
							"internalType": "uint256",
							"name": "x",
							"type": "uint256"
						}
					],
					"name": "mostSignificantBit",
					"outputs": [
						{
							"internalType": "uint256",
							"name": "msb",
							"type": "uint256"
						}
					],
					"stateMutability": "pure",
					"type": "function"
				}
			],
			"devdoc": {
				"kind": "dev",
				"methods": {},
				"version": 1
			},
			"evm": {
				"assembly": "    /* \"contracts/misc/assembly/MostSignificantBit.sol\":1113:2306  contract MostSignificantBitAssembly {... */\n  mstore(0x40, 0x80)\n  callvalue\n  dup1\n  iszero\n  tag_1\n  jumpi\n  0x00\n  dup1\n  revert\ntag_1:\n  pop\n  dataSize(sub_0)\n  dup1\n  dataOffset(sub_0)\n  0x00\n  codecopy\n  0x00\n  return\nstop\n\nsub_0: assembly {\n        /* \"contracts/misc/assembly/MostSignificantBit.sol\":1113:2306  contract MostSignificantBitAssembly {... */\n      mstore(0x40, 0x80)\n      callvalue\n      dup1\n      iszero\n      tag_1\n      jumpi\n      0x00\n      dup1\n      revert\n    tag_1:\n      pop\n      jumpi(tag_2, lt(calldatasize, 0x04))\n      shr(0xe0, calldataload(0x00))\n      dup1\n      0xe6bcbc65\n      eq\n      tag_3\n      jumpi\n    tag_2:\n      0x00\n      dup1\n      revert\n        /* \"contracts/misc/assembly/MostSignificantBit.sol\":1155:2304  function mostSignificantBit(uint x) external pure returns (uint msb) {... */\n    tag_3:\n      tag_4\n      0x04\n      dup1\n      calldatasize\n      sub\n      dup2\n      add\n      swap1\n      tag_5\n      swap2\n      swap1\n      tag_6\n      jump\t// in\n    tag_5:\n      tag_7\n      jump\t// in\n    tag_4:\n      mload(0x40)\n      tag_8\n      swap2\n      swap1\n      tag_9\n      jump\t// in\n    tag_8:\n      mload(0x40)\n      dup1\n      swap2\n      sub\n      swap1\n      return\n    tag_7:\n        /* \"contracts/misc/assembly/MostSignificantBit.sol\":1214:1222  uint msb */\n      0x00\n        /* \"contracts/misc/assembly/MostSignificantBit.sol\":1279:1313  0xFFFFFFFFFFFFFFFFFFFFFFFFFFFFFFFF */\n      0xffffffffffffffffffffffffffffffff\n        /* \"contracts/misc/assembly/MostSignificantBit.sol\":1276:1277  x */\n      dup3\n        /* \"contracts/misc/assembly/MostSignificantBit.sol\":1273:1314  gt(x, 0xFFFFFFFFFFFFFFFFFFFFFFFFFFFFFFFF) */\n      gt\n        /* \"contracts/misc/assembly/MostSignificantBit.sol\":1270:1271  7 */\n      0x07\n        /* \"contracts/misc/assembly/MostSignificantBit.sol\":1266:1315  shl(7, gt(x, 0xFFFFFFFFFFFFFFFFFFFFFFFFFFFFFFFF)) */\n      shl\n        /* \"contracts/misc/assembly/MostSignificantBit.sol\":1340:1341  x */\n      dup3\n        /* \"contracts/misc/assembly/MostSignificantBit.sol\":1337:1338  f */\n      dup2\n        /* \"contracts/misc/assembly/MostSignificantBit.sol\":1333:1342  shr(f, x) */\n      shr\n        /* \"contracts/misc/assembly/MostSignificantBit.sol\":1328:1342  x := shr(f, x) */\n      swap3\n      pop\n        /* \"contracts/misc/assembly/MostSignificantBit.sol\":1413:1414  f */\n      dup1\n        /* \"contracts/misc/assembly/MostSignificantBit.sol\":1408:1411  msb */\n      dup3\n        /* \"contracts/misc/assembly/MostSignificantBit.sol\":1405:1415  or(msb, f) */\n      or\n        /* \"contracts/misc/assembly/MostSignificantBit.sol\":1398:1415  msb := or(msb, f) */\n      swap2\n      pop\n        /* \"contracts/misc/assembly/MostSignificantBit.sol\":1243:1425  {... */\n      pop\n        /* \"contracts/misc/assembly/MostSignificantBit.sol\":1479:1497  0xFFFFFFFFFFFFFFFF */\n      0xffffffffffffffff\n        /* \"contracts/misc/assembly/MostSignificantBit.sol\":1476:1477  x */\n      dup3\n        /* \"contracts/misc/assembly/MostSignificantBit.sol\":1473:1498  gt(x, 0xFFFFFFFFFFFFFFFF) */\n      gt\n        /* \"contracts/misc/assembly/MostSignificantBit.sol\":1470:1471  6 */\n      0x06\n        /* \"contracts/misc/assembly/MostSignificantBit.sol\":1466:1499  shl(6, gt(x, 0xFFFFFFFFFFFFFFFF)) */\n      shl\n        /* \"contracts/misc/assembly/MostSignificantBit.sol\":1524:1525  x */\n      dup3\n        /* \"contracts/misc/assembly/MostSignificantBit.sol\":1521:1522  f */\n      dup2\n        /* \"contracts/misc/assembly/MostSignificantBit.sol\":1517:1526  shr(f, x) */\n      shr\n        /* \"contracts/misc/assembly/MostSignificantBit.sol\":1512:1526  x := shr(f, x) */\n      swap3\n      pop\n        /* \"contracts/misc/assembly/MostSignificantBit.sol\":1554:1555  f */\n      dup1\n        /* \"contracts/misc/assembly/MostSignificantBit.sol\":1549:1552  msb */\n      dup3\n        /* \"contracts/misc/assembly/MostSignificantBit.sol\":1546:1556  or(msb, f) */\n      or\n        /* \"contracts/misc/assembly/MostSignificantBit.sol\":1539:1556  msb := or(msb, f) */\n      swap2\n      pop\n        /* \"contracts/misc/assembly/MostSignificantBit.sol\":1443:1566  {... */\n      pop\n        /* \"contracts/misc/assembly/MostSignificantBit.sol\":1620:1630  0xFFFFFFFF */\n      0xffffffff\n        /* \"contracts/misc/assembly/MostSignificantBit.sol\":1617:1618  x */\n      dup3\n        /* \"contracts/misc/assembly/MostSignificantBit.sol\":1614:1631  gt(x, 0xFFFFFFFF) */\n      gt\n        /* \"contracts/misc/assembly/MostSignificantBit.sol\":1611:1612  5 */\n      0x05\n        /* \"contracts/misc/assembly/MostSignificantBit.sol\":1607:1632  shl(5, gt(x, 0xFFFFFFFF)) */\n      shl\n        /* \"contracts/misc/assembly/MostSignificantBit.sol\":1657:1658  x */\n      dup3\n        /* \"contracts/misc/assembly/MostSignificantBit.sol\":1654:1655  f */\n      dup2\n        /* \"contracts/misc/assembly/MostSignificantBit.sol\":1650:1659  shr(f, x) */\n      shr\n        /* \"contracts/misc/assembly/MostSignificantBit.sol\":1645:1659  x := shr(f, x) */\n      swap3\n      pop\n        /* \"contracts/misc/assembly/MostSignificantBit.sol\":1687:1688  f */\n      dup1\n        /* \"contracts/misc/assembly/MostSignificantBit.sol\":1682:1685  msb */\n      dup3\n        /* \"contracts/misc/assembly/MostSignificantBit.sol\":1679:1689  or(msb, f) */\n      or\n        /* \"contracts/misc/assembly/MostSignificantBit.sol\":1672:1689  msb := or(msb, f) */\n      swap2\n      pop\n        /* \"contracts/misc/assembly/MostSignificantBit.sol\":1584:1699  {... */\n      pop\n        /* \"contracts/misc/assembly/MostSignificantBit.sol\":1753:1759  0xFFFF */\n      0xffff\n        /* \"contracts/misc/assembly/MostSignificantBit.sol\":1750:1751  x */\n      dup3\n        /* \"contracts/misc/assembly/MostSignificantBit.sol\":1747:1760  gt(x, 0xFFFF) */\n      gt\n        /* \"contracts/misc/assembly/MostSignificantBit.sol\":1744:1745  4 */\n      0x04\n        /* \"contracts/misc/assembly/MostSignificantBit.sol\":1740:1761  shl(4, gt(x, 0xFFFF)) */\n      shl\n        /* \"contracts/misc/assembly/MostSignificantBit.sol\":1786:1787  x */\n      dup3\n        /* \"contracts/misc/assembly/MostSignificantBit.sol\":1783:1784  f */\n      dup2\n        /* \"contracts/misc/assembly/MostSignificantBit.sol\":1779:1788  shr(f, x) */\n      shr\n        /* \"contracts/misc/assembly/MostSignificantBit.sol\":1774:1788  x := shr(f, x) */\n      swap3\n      pop\n        /* \"contracts/misc/assembly/MostSignificantBit.sol\":1816:1817  f */\n      dup1\n        /* \"contracts/misc/assembly/MostSignificantBit.sol\":1811:1814  msb */\n      dup3\n        /* \"contracts/misc/assembly/MostSignificantBit.sol\":1808:1818  or(msb, f) */\n      or\n        /* \"contracts/misc/assembly/MostSignificantBit.sol\":1801:1818  msb := or(msb, f) */\n      swap2\n      pop\n        /* \"contracts/misc/assembly/MostSignificantBit.sol\":1717:1828  {... */\n      pop\n        /* \"contracts/misc/assembly/MostSignificantBit.sol\":1882:1886  0xFF */\n      0xff\n        /* \"contracts/misc/assembly/MostSignificantBit.sol\":1879:1880  x */\n      dup3\n        /* \"contracts/misc/assembly/MostSignificantBit.sol\":1876:1887  gt(x, 0xFF) */\n      gt\n        /* \"contracts/misc/assembly/MostSignificantBit.sol\":1873:1874  3 */\n      0x03\n        /* \"contracts/misc/assembly/MostSignificantBit.sol\":1869:1888  shl(3, gt(x, 0xFF)) */\n      shl\n        /* \"contracts/misc/assembly/MostSignificantBit.sol\":1913:1914  x */\n      dup3\n        /* \"contracts/misc/assembly/MostSignificantBit.sol\":1910:1911  f */\n      dup2\n        /* \"contracts/misc/assembly/MostSignificantBit.sol\":1906:1915  shr(f, x) */\n      shr\n        /* \"contracts/misc/assembly/MostSignificantBit.sol\":1901:1915  x := shr(f, x) */\n      swap3\n      pop\n        /* \"contracts/misc/assembly/MostSignificantBit.sol\":1943:1944  f */\n      dup1\n        /* \"contracts/misc/assembly/MostSignificantBit.sol\":1938:1941  msb */\n      dup3\n        /* \"contracts/misc/assembly/MostSignificantBit.sol\":1935:1945  or(msb, f) */\n      or\n        /* \"contracts/misc/assembly/MostSignificantBit.sol\":1928:1945  msb := or(msb, f) */\n      swap2\n      pop\n        /* \"contracts/misc/assembly/MostSignificantBit.sol\":1846:1955  {... */\n      pop\n        /* \"contracts/misc/assembly/MostSignificantBit.sol\":2009:2012  0xF */\n      0x0f\n        /* \"contracts/misc/assembly/MostSignificantBit.sol\":2006:2007  x */\n      dup3\n        /* \"contracts/misc/assembly/MostSignificantBit.sol\":2003:2013  gt(x, 0xF) */\n      gt\n        /* \"contracts/misc/assembly/MostSignificantBit.sol\":2000:2001  2 */\n      0x02\n        /* \"contracts/misc/assembly/MostSignificantBit.sol\":1996:2014  shl(2, gt(x, 0xF)) */\n      shl\n        /* \"contracts/misc/assembly/MostSignificantBit.sol\":2039:2040  x */\n      dup3\n        /* \"contracts/misc/assembly/MostSignificantBit.sol\":2036:2037  f */\n      dup2\n        /* \"contracts/misc/assembly/MostSignificantBit.sol\":2032:2041  shr(f, x) */\n      shr\n        /* \"contracts/misc/assembly/MostSignificantBit.sol\":2027:2041  x := shr(f, x) */\n      swap3\n      pop\n        /* \"contracts/misc/assembly/MostSignificantBit.sol\":2069:2070  f */\n      dup1\n        /* \"contracts/misc/assembly/MostSignificantBit.sol\":2064:2067  msb */\n      dup3\n        /* \"contracts/misc/assembly/MostSignificantBit.sol\":2061:2071  or(msb, f) */\n      or\n        /* \"contracts/misc/assembly/MostSignificantBit.sol\":2054:2071  msb := or(msb, f) */\n      swap2\n      pop\n        /* \"contracts/misc/assembly/MostSignificantBit.sol\":1973:2081  {... */\n      pop\n        /* \"contracts/misc/assembly/MostSignificantBit.sol\":2135:2138  0x3 */\n      0x03\n        /* \"contracts/misc/assembly/MostSignificantBit.sol\":2132:2133  x */\n      dup3\n        /* \"contracts/misc/assembly/MostSignificantBit.sol\":2129:2139  gt(x, 0x3) */\n      gt\n        /* \"contracts/misc/assembly/MostSignificantBit.sol\":2126:2127  1 */\n      0x01\n        /* \"contracts/misc/assembly/MostSignificantBit.sol\":2122:2140  shl(1, gt(x, 0x3)) */\n      shl\n        /* \"contracts/misc/assembly/MostSignificantBit.sol\":2165:2166  x */\n      dup3\n        /* \"contracts/misc/assembly/MostSignificantBit.sol\":2162:2163  f */\n      dup2\n        /* \"contracts/misc/assembly/MostSignificantBit.sol\":2158:2167  shr(f, x) */\n      shr\n        /* \"contracts/misc/assembly/MostSignificantBit.sol\":2153:2167  x := shr(f, x) */\n      swap3\n      pop\n        /* \"contracts/misc/assembly/MostSignificantBit.sol\":2195:2196  f */\n      dup1\n        /* \"contracts/misc/assembly/MostSignificantBit.sol\":2190:2193  msb */\n      dup3\n        /* \"contracts/misc/assembly/MostSignificantBit.sol\":2187:2197  or(msb, f) */\n      or\n        /* \"contracts/misc/assembly/MostSignificantBit.sol\":2180:2197  msb := or(msb, f) */\n      swap2\n      pop\n        /* \"contracts/misc/assembly/MostSignificantBit.sol\":2099:2207  {... */\n      pop\n        /* \"contracts/misc/assembly/MostSignificantBit.sol\":2254:2257  0x1 */\n      0x01\n        /* \"contracts/misc/assembly/MostSignificantBit.sol\":2251:2252  x */\n      dup3\n        /* \"contracts/misc/assembly/MostSignificantBit.sol\":2248:2258  gt(x, 0x1) */\n      gt\n        /* \"contracts/misc/assembly/MostSignificantBit.sol\":2286:2287  f */\n      dup1\n        /* \"contracts/misc/assembly/MostSignificantBit.sol\":2281:2284  msb */\n      dup3\n        /* \"contracts/misc/assembly/MostSignificantBit.sol\":2278:2288  or(msb, f) */\n      or\n        /* \"contracts/misc/assembly/MostSignificantBit.sol\":2271:2288  msb := or(msb, f) */\n      swap2\n      pop\n        /* \"contracts/misc/assembly/MostSignificantBit.sol\":2225:2298  {... */\n      pop\n        /* \"contracts/misc/assembly/MostSignificantBit.sol\":1155:2304  function mostSignificantBit(uint x) external pure returns (uint msb) {... */\n      swap2\n      swap1\n      pop\n      jump\t// out\n        /* \"#utility.yul\":88:205   */\n    tag_12:\n        /* \"#utility.yul\":197:198   */\n      0x00\n        /* \"#utility.yul\":194:195   */\n      dup1\n        /* \"#utility.yul\":187:199   */\n      revert\n        /* \"#utility.yul\":334:411   */\n    tag_14:\n        /* \"#utility.yul\":371:378   */\n      0x00\n        /* \"#utility.yul\":400:405   */\n      dup2\n        /* \"#utility.yul\":389:405   */\n      swap1\n      pop\n        /* \"#utility.yul\":334:411   */\n      swap2\n      swap1\n      pop\n      jump\t// out\n        /* \"#utility.yul\":417:539   */\n    tag_15:\n        /* \"#utility.yul\":490:514   */\n      tag_24\n        /* \"#utility.yul\":508:513   */\n      dup2\n        /* \"#utility.yul\":490:514   */\n      tag_14\n      jump\t// in\n    tag_24:\n        /* \"#utility.yul\":483:488   */\n      dup2\n        /* \"#utility.yul\":480:515   */\n      eq\n        /* \"#utility.yul\":470:533   */\n      tag_25\n      jumpi\n        /* \"#utility.yul\":529:530   */\n      0x00\n        /* \"#utility.yul\":526:527   */\n      dup1\n        /* \"#utility.yul\":519:531   */\n      revert\n        /* \"#utility.yul\":470:533   */\n    tag_25:\n        /* \"#utility.yul\":417:539   */\n      pop\n      jump\t// out\n        /* \"#utility.yul\":545:684   */\n    tag_16:\n        /* \"#utility.yul\":591:596   */\n      0x00\n        /* \"#utility.yul\":629:635   */\n      dup2\n        /* \"#utility.yul\":616:636   */\n      calldataload\n        /* \"#utility.yul\":607:636   */\n      swap1\n      pop\n        /* \"#utility.yul\":645:678   */\n      tag_27\n        /* \"#utility.yul\":672:677   */\n      dup2\n        /* \"#utility.yul\":645:678   */\n      tag_15\n      jump\t// in\n    tag_27:\n        /* \"#utility.yul\":545:684   */\n      swap3\n      swap2\n      pop\n      pop\n      jump\t// out\n        /* \"#utility.yul\":690:1019   */\n    tag_6:\n        /* \"#utility.yul\":749:755   */\n      0x00\n        /* \"#utility.yul\":798:800   */\n      0x20\n        /* \"#utility.yul\":786:795   */\n      dup3\n        /* \"#utility.yul\":777:784   */\n      dup5\n        /* \"#utility.yul\":773:796   */\n      sub\n        /* \"#utility.yul\":769:801   */\n      slt\n        /* \"#utility.yul\":766:885   */\n      iszero\n      tag_29\n      jumpi\n        /* \"#utility.yul\":804:883   */\n      tag_30\n      tag_12\n      jump\t// in\n    tag_30:\n        /* \"#utility.yul\":766:885   */\n    tag_29:\n        /* \"#utility.yul\":924:925   */\n      0x00\n        /* \"#utility.yul\":949:1002   */\n      tag_31\n        /* \"#utility.yul\":994:1001   */\n      dup5\n        /* \"#utility.yul\":985:991   */\n      dup3\n        /* \"#utility.yul\":974:983   */\n      dup6\n        /* \"#utility.yul\":970:992   */\n      add\n        /* \"#utility.yul\":949:1002   */\n      tag_16\n      jump\t// in\n    tag_31:\n        /* \"#utility.yul\":939:1002   */\n      swap2\n      pop\n        /* \"#utility.yul\":895:1012   */\n      pop\n        /* \"#utility.yul\":690:1019   */\n      swap3\n      swap2\n      pop\n      pop\n      jump\t// out\n        /* \"#utility.yul\":1025:1143   */\n    tag_17:\n        /* \"#utility.yul\":1112:1136   */\n      tag_33\n        /* \"#utility.yul\":1130:1135   */\n      dup2\n        /* \"#utility.yul\":1112:1136   */\n      tag_14\n      jump\t// in\n    tag_33:\n        /* \"#utility.yul\":1107:1110   */\n      dup3\n        /* \"#utility.yul\":1100:1137   */\n      mstore\n        /* \"#utility.yul\":1025:1143   */\n      pop\n      pop\n      jump\t// out\n        /* \"#utility.yul\":1149:1371   */\n    tag_9:\n        /* \"#utility.yul\":1242:1246   */\n      0x00\n        /* \"#utility.yul\":1280:1282   */\n      0x20\n        /* \"#utility.yul\":1269:1278   */\n      dup3\n        /* \"#utility.yul\":1265:1283   */\n      add\n        /* \"#utility.yul\":1257:1283   */\n      swap1\n      pop\n        /* \"#utility.yul\":1293:1364   */\n      tag_35\n        /* \"#utility.yul\":1361:1362   */\n      0x00\n        /* \"#utility.yul\":1350:1359   */\n      dup4\n        /* \"#utility.yul\":1346:1363   */\n      add\n        /* \"#utility.yul\":1337:1343   */\n      dup5\n        /* \"#utility.yul\":1293:1364   */\n      tag_17\n      jump\t// in\n    tag_35:\n        /* \"#utility.yul\":1149:1371   */\n      swap3\n      swap2\n      pop\n      pop\n      jump\t// out\n\n    auxdata: 0xa26469706673582212206f9cccb8c89874abcfa142460d70c145e218d691f27ab2d549e29a9f6758d8a864736f6c63430008140033\n}\n",
				"bytecode": {
					"linkReferences": {},
					"object": "608060405234801561000f575f80fd5b506101c58061001d5f395ff3fe608060405234801561000f575f80fd5b5060043610610029575f3560e01c8063e6bcbc651461002d575b5f80fd5b6100476004803603810190610042919061013c565b61005d565b6040516100549190610176565b60405180910390f35b5f6fffffffffffffffffffffffffffffffff821160071b82811c925080821791505067ffffffffffffffff821160061b82811c925080821791505063ffffffff821160051b82811c925080821791505061ffff821160041b82811c925080821791505060ff821160031b82811c9250808217915050600f821160021b82811c92508082179150506003821160011b82811c925080821791505060018211808217915050919050565b5f80fd5b5f819050919050565b61011b81610109565b8114610125575f80fd5b50565b5f8135905061013681610112565b92915050565b5f6020828403121561015157610150610105565b5b5f61015e84828501610128565b91505092915050565b61017081610109565b82525050565b5f6020820190506101895f830184610167565b9291505056fea26469706673582212206f9cccb8c89874abcfa142460d70c145e218d691f27ab2d549e29a9f6758d8a864736f6c63430008140033",
					"opcodes": "PUSH1 0x80 PUSH1 0x40 MSTORE CALLVALUE DUP1 ISZERO PUSH2 0xF JUMPI PUSH0 DUP1 REVERT JUMPDEST POP PUSH2 0x1C5 DUP1 PUSH2 0x1D PUSH0 CODECOPY PUSH0 RETURN INVALID PUSH1 0x80 PUSH1 0x40 MSTORE CALLVALUE DUP1 ISZERO PUSH2 0xF JUMPI PUSH0 DUP1 REVERT JUMPDEST POP PUSH1 0x4 CALLDATASIZE LT PUSH2 0x29 JUMPI PUSH0 CALLDATALOAD PUSH1 0xE0 SHR DUP1 PUSH4 0xE6BCBC65 EQ PUSH2 0x2D JUMPI JUMPDEST PUSH0 DUP1 REVERT JUMPDEST PUSH2 0x47 PUSH1 0x4 DUP1 CALLDATASIZE SUB DUP2 ADD SWAP1 PUSH2 0x42 SWAP2 SWAP1 PUSH2 0x13C JUMP JUMPDEST PUSH2 0x5D JUMP JUMPDEST PUSH1 0x40 MLOAD PUSH2 0x54 SWAP2 SWAP1 PUSH2 0x176 JUMP JUMPDEST PUSH1 0x40 MLOAD DUP1 SWAP2 SUB SWAP1 RETURN JUMPDEST PUSH0 PUSH16 0xFFFFFFFFFFFFFFFFFFFFFFFFFFFFFFFF DUP3 GT PUSH1 0x7 SHL DUP3 DUP2 SHR SWAP3 POP DUP1 DUP3 OR SWAP2 POP POP PUSH8 0xFFFFFFFFFFFFFFFF DUP3 GT PUSH1 0x6 SHL DUP3 DUP2 SHR SWAP3 POP DUP1 DUP3 OR SWAP2 POP POP PUSH4 0xFFFFFFFF DUP3 GT PUSH1 0x5 SHL DUP3 DUP2 SHR SWAP3 POP DUP1 DUP3 OR SWAP2 POP POP PUSH2 0xFFFF DUP3 GT PUSH1 0x4 SHL DUP3 DUP2 SHR SWAP3 POP DUP1 DUP3 OR SWAP2 POP POP PUSH1 0xFF DUP3 GT PUSH1 0x3 SHL DUP3 DUP2 SHR SWAP3 POP DUP1 DUP3 OR SWAP2 POP POP PUSH1 0xF DUP3 GT PUSH1 0x2 SHL DUP3 DUP2 SHR SWAP3 POP DUP1 DUP3 OR SWAP2 POP POP PUSH1 0x3 DUP3 GT PUSH1 0x1 SHL DUP3 DUP2 SHR SWAP3 POP DUP1 DUP3 OR SWAP2 POP POP PUSH1 0x1 DUP3 GT DUP1 DUP3 OR SWAP2 POP POP SWAP2 SWAP1 POP JUMP JUMPDEST PUSH0 DUP1 REVERT JUMPDEST PUSH0 DUP2 SWAP1 POP SWAP2 SWAP1 POP JUMP JUMPDEST PUSH2 0x11B DUP2 PUSH2 0x109 JUMP JUMPDEST DUP2 EQ PUSH2 0x125 JUMPI PUSH0 DUP1 REVERT JUMPDEST POP JUMP JUMPDEST PUSH0 DUP2 CALLDATALOAD SWAP1 POP PUSH2 0x136 DUP2 PUSH2 0x112 JUMP JUMPDEST SWAP3 SWAP2 POP POP JUMP JUMPDEST PUSH0 PUSH1 0x20 DUP3 DUP5 SUB SLT ISZERO PUSH2 0x151 JUMPI PUSH2 0x150 PUSH2 0x105 JUMP JUMPDEST JUMPDEST PUSH0 PUSH2 0x15E DUP5 DUP3 DUP6 ADD PUSH2 0x128 JUMP JUMPDEST SWAP2 POP POP SWAP3 SWAP2 POP POP JUMP JUMPDEST PUSH2 0x170 DUP2 PUSH2 0x109 JUMP JUMPDEST DUP3 MSTORE POP POP JUMP JUMPDEST PUSH0 PUSH1 0x20 DUP3 ADD SWAP1 POP PUSH2 0x189 PUSH0 DUP4 ADD DUP5 PUSH2 0x167 JUMP JUMPDEST SWAP3 SWAP2 POP POP JUMP INVALID LOG2 PUSH5 0x6970667358 0x22 SLT KECCAK256 PUSH16 0x9CCCB8C89874ABCFA142460D70C145E2 XOR 0xD6 SWAP2 CALLCODE PUSH27 0xB2D549E29A9F6758D8A864736F6C63430008140033000000000000 "
				},
				"gasEstimates": {
					"creation": {
						"codeDepositCost": "90600",
						"executionCost": "139",
						"totalCost": "90739"
					},
					"external": {
						"mostSignificantBit(uint256)": "infinite"
					}
				},
				"methodIdentifiers": {
					"mostSignificantBit(uint256)": "e6bcbc65"
				}
			},
			"storageLayout": {
				"storage": [],
				"types": null
			},
			"userdoc": {
				"kind": "user",
				"methods": {},
				"version": 1
			}
		}
	}
}