{
	"contracts/misc/assembly/UselessEncryption.sol": {
		"UselessEncryption": {
			"abi": [
				{
					"inputs": [
						{
							"internalType": "string",
							"name": "_input",
							"type": "string"
						},
						{
							"internalType": "bool",
							"name": "_decrypt",
							"type": "bool"
						}
					],
					"name": "encrypt",
					"outputs": [
						{
							"internalType": "string",
							"name": "",
							"type": "string"
						}
					],
					"stateMutability": "pure",
					"type": "function"
				}
			],
			"devdoc": {
				"kind": "dev",
				"methods": {},
				"version": 1
			},
			"evm": {
				"assembly": "    /* \"contracts/misc/assembly/UselessEncryption.sol\":63:1178  contract UselessEncryption {... */\n  mstore(0x40, 0x80)\n  callvalue\n  dup1\n  iszero\n  tag_1\n  jumpi\n  0x00\n  dup1\n  revert\ntag_1:\n  pop\n  dataSize(sub_0)\n  dup1\n  dataOffset(sub_0)\n  0x00\n  codecopy\n  0x00\n  return\nstop\n\nsub_0: assembly {\n        /* \"contracts/misc/assembly/UselessEncryption.sol\":63:1178  contract UselessEncryption {... */\n      mstore(0x40, 0x80)\n      callvalue\n      dup1\n      iszero\n      tag_1\n      jumpi\n      0x00\n      dup1\n      revert\n    tag_1:\n      pop\n      jumpi(tag_2, lt(calldatasize, 0x04))\n      shr(0xe0, calldataload(0x00))\n      dup1\n      0x6232d618\n      eq\n      tag_3\n      jumpi\n    tag_2:\n      0x00\n      dup1\n      revert\n        /* \"contracts/misc/assembly/UselessEncryption.sol\":96:1176  function encrypt(string memory _input, bool _decrypt) external pure returns (string memory) {... */\n    tag_3:\n      tag_4\n      0x04\n      dup1\n      calldatasize\n      sub\n      dup2\n      add\n      swap1\n      tag_5\n      swap2\n      swap1\n      tag_6\n      jump\t// in\n    tag_5:\n      tag_7\n      jump\t// in\n    tag_4:\n      mload(0x40)\n      tag_8\n      swap2\n      swap1\n      tag_9\n      jump\t// in\n    tag_8:\n      mload(0x40)\n      dup1\n      swap2\n      sub\n      swap1\n      return\n    tag_7:\n        /* \"contracts/misc/assembly/UselessEncryption.sol\":173:186  string memory */\n      0x60\n        /* \"contracts/misc/assembly/UselessEncryption.sol\":198:212  bytes32 output */\n      0x00\n        /* \"contracts/misc/assembly/UselessEncryption.sol\":245:385  function stringToBytes(a) -> b { // converts text string to byte array... */\n      jump(tag_11)\n    tag_12:\n        /* \"contracts/misc/assembly/UselessEncryption.sol\":274:275  b */\n      0x00\n        /* \"contracts/misc/assembly/UselessEncryption.sol\":350:352  32 */\n      0x20\n        /* \"contracts/misc/assembly/UselessEncryption.sol\":347:348  a */\n      dup3\n        /* \"contracts/misc/assembly/UselessEncryption.sol\":343:353  add(a, 32) */\n      add\n        /* \"contracts/misc/assembly/UselessEncryption.sol\":337:354  mload(add(a, 32)) */\n      mload\n        /* \"contracts/misc/assembly/UselessEncryption.sol\":332:354  b := mload(add(a, 32)) */\n      swap1\n      pop\n        /* \"contracts/misc/assembly/UselessEncryption.sol\":245:385  function stringToBytes(a) -> b { // converts text string to byte array... */\n      swap2\n      swap1\n      pop\n      jump\t// out\n        /* \"contracts/misc/assembly/UselessEncryption.sol\":398:905  function addToBytes(bs, decrypt) -> r {... */\n    tag_14:\n        /* \"contracts/misc/assembly/UselessEncryption.sol\":434:435  r */\n      0x00\n        /* \"contracts/misc/assembly/UselessEncryption.sol\":469:474  false */\n      dup1\n        /* \"contracts/misc/assembly/UselessEncryption.sol\":460:467  decrypt */\n      dup4\n        /* \"contracts/misc/assembly/UselessEncryption.sol\":457:475  eq(decrypt, false) */\n      eq\n        /* \"contracts/misc/assembly/UselessEncryption.sol\":454:672  if eq(decrypt, false) {... */\n      iszero\n      tag_16\n      jumpi\n        /* \"contracts/misc/assembly/UselessEncryption.sol\":586:652  0x0101010101010101010101010101010101010101010101010101010101010101 */\n      0x0101010101010101010101010101010101010101010101010101010101010101\n        /* \"contracts/misc/assembly/UselessEncryption.sol\":582:584  bs */\n      dup3\n        /* \"contracts/misc/assembly/UselessEncryption.sol\":578:653  add(bs, 0x0101010101010101010101010101010101010101010101010101010101010101) */\n      add\n        /* \"contracts/misc/assembly/UselessEncryption.sol\":573:576  0x0 */\n      0x00\n        /* \"contracts/misc/assembly/UselessEncryption.sol\":566:654  mstore(0x0, add(bs, 0x0101010101010101010101010101010101010101010101010101010101010101)) */\n      mstore\n        /* \"contracts/misc/assembly/UselessEncryption.sol\":454:672  if eq(decrypt, false) {... */\n    tag_16:\n        /* \"contracts/misc/assembly/UselessEncryption.sol\":704:708  true */\n      0x01\n        /* \"contracts/misc/assembly/UselessEncryption.sol\":695:702  decrypt */\n      dup4\n        /* \"contracts/misc/assembly/UselessEncryption.sol\":692:709  eq(decrypt, true) */\n      eq\n        /* \"contracts/misc/assembly/UselessEncryption.sol\":689:859  if eq(decrypt, true) {... */\n      iszero\n      tag_17\n      jumpi\n        /* \"contracts/misc/assembly/UselessEncryption.sol\":773:839  0x0101010101010101010101010101010101010101010101010101010101010101 */\n      0x0101010101010101010101010101010101010101010101010101010101010101\n        /* \"contracts/misc/assembly/UselessEncryption.sol\":769:771  bs */\n      dup3\n        /* \"contracts/misc/assembly/UselessEncryption.sol\":765:840  sub(bs, 0x0101010101010101010101010101010101010101010101010101010101010101) */\n      sub\n        /* \"contracts/misc/assembly/UselessEncryption.sol\":760:763  0x0 */\n      0x00\n        /* \"contracts/misc/assembly/UselessEncryption.sol\":753:841  mstore(0x0, sub(bs, 0x0101010101010101010101010101010101010101010101010101010101010101)) */\n      mstore\n        /* \"contracts/misc/assembly/UselessEncryption.sol\":689:859  if eq(decrypt, true) {... */\n    tag_17:\n        /* \"contracts/misc/assembly/UselessEncryption.sol\":887:890  0x0 */\n      0x00\n        /* \"contracts/misc/assembly/UselessEncryption.sol\":881:891  mload(0x0) */\n      mload\n        /* \"contracts/misc/assembly/UselessEncryption.sol\":876:891  r := mload(0x0) */\n      swap1\n      pop\n        /* \"contracts/misc/assembly/UselessEncryption.sol\":398:905  function addToBytes(bs, decrypt) -> r {... */\n      swap3\n      swap2\n      pop\n      pop\n      jump\t// out\n    tag_11:\n        /* \"contracts/misc/assembly/UselessEncryption.sol\":936:957  stringToBytes(_input) */\n      tag_18\n        /* \"contracts/misc/assembly/UselessEncryption.sol\":950:956  _input */\n      dup5\n        /* \"contracts/misc/assembly/UselessEncryption.sol\":936:957  stringToBytes(_input) */\n      tag_12\n      jump\t// in\n    tag_18:\n        /* \"contracts/misc/assembly/UselessEncryption.sol\":980:1012  addToBytes(byteString, _decrypt) */\n      tag_19\n        /* \"contracts/misc/assembly/UselessEncryption.sol\":1003:1011  _decrypt */\n      dup5\n        /* \"contracts/misc/assembly/UselessEncryption.sol\":991:1001  byteString */\n      dup3\n        /* \"contracts/misc/assembly/UselessEncryption.sol\":980:1012  addToBytes(byteString, _decrypt) */\n      tag_14\n      jump\t// in\n    tag_19:\n        /* \"contracts/misc/assembly/UselessEncryption.sol\":970:1012  output := addToBytes(byteString, _decrypt) */\n      swap2\n      pop\n        /* \"contracts/misc/assembly/UselessEncryption.sol\":231:1022  {... */\n      pop\n        /* \"contracts/misc/assembly/UselessEncryption.sol\":1031:1054  bytes memory bytesArray */\n      0x00\n        /* \"contracts/misc/assembly/UselessEncryption.sol\":1067:1069  32 */\n      0x20\n        /* \"contracts/misc/assembly/UselessEncryption.sol\":1057:1070  new bytes(32) */\n      0xffffffffffffffff\n      dup2\n      gt\n      iszero\n      tag_20\n      jumpi\n      tag_21\n      tag_22\n      jump\t// in\n    tag_21:\n    tag_20:\n      mload(0x40)\n      swap1\n      dup1\n      dup3\n      mstore\n      dup1\n      0x1f\n      add\n      not(0x1f)\n      and\n      0x20\n      add\n      dup3\n      add\n      0x40\n      mstore\n      dup1\n      iszero\n      tag_23\n      jumpi\n      dup2\n      0x20\n      add\n      0x01\n      dup3\n      mul\n      dup1\n      calldatasize\n      dup4\n      calldatacopy\n      dup1\n      dup3\n      add\n      swap2\n      pop\n      pop\n      swap1\n      pop\n    tag_23:\n      pop\n        /* \"contracts/misc/assembly/UselessEncryption.sol\":1031:1070  bytes memory bytesArray = new bytes(32) */\n      swap1\n      pop\n        /* \"contracts/misc/assembly/UselessEncryption.sol\":1085:1094  uint256 i */\n      0x00\n        /* \"contracts/misc/assembly/UselessEncryption.sol\":1080:1134  for (uint256 i; i < 32; i++) bytesArray[i] = output[i] */\n    tag_24:\n        /* \"contracts/misc/assembly/UselessEncryption.sol\":1100:1102  32 */\n      0x20\n        /* \"contracts/misc/assembly/UselessEncryption.sol\":1096:1097  i */\n      dup2\n        /* \"contracts/misc/assembly/UselessEncryption.sol\":1096:1102  i < 32 */\n      lt\n        /* \"contracts/misc/assembly/UselessEncryption.sol\":1080:1134  for (uint256 i; i < 32; i++) bytesArray[i] = output[i] */\n      iszero\n      tag_25\n      jumpi\n        /* \"contracts/misc/assembly/UselessEncryption.sol\":1125:1131  output */\n      dup3\n        /* \"contracts/misc/assembly/UselessEncryption.sol\":1132:1133  i */\n      dup2\n        /* \"contracts/misc/assembly/UselessEncryption.sol\":1125:1134  output[i] */\n      0x20\n      dup2\n      lt\n      tag_27\n      jumpi\n      tag_28\n      tag_29\n      jump\t// in\n    tag_28:\n    tag_27:\n      byte\n      0xf8\n      shl\n        /* \"contracts/misc/assembly/UselessEncryption.sol\":1109:1119  bytesArray */\n      dup3\n        /* \"contracts/misc/assembly/UselessEncryption.sol\":1120:1121  i */\n      dup3\n        /* \"contracts/misc/assembly/UselessEncryption.sol\":1109:1122  bytesArray[i] */\n      dup2\n      mload\n      dup2\n      lt\n      tag_30\n      jumpi\n      tag_31\n      tag_29\n      jump\t// in\n    tag_31:\n    tag_30:\n      0x20\n      add\n      add\n        /* \"contracts/misc/assembly/UselessEncryption.sol\":1109:1134  bytesArray[i] = output[i] */\n      swap1\n      not(0xffffffffffffffffffffffffffffffffffffffffffffffffffffffffffffff)\n      and\n      swap1\n      dup2\n      0x00\n      byte\n      swap1\n      mstore8\n      pop\n        /* \"contracts/misc/assembly/UselessEncryption.sol\":1104:1107  i++ */\n      dup1\n      dup1\n      tag_32\n      swap1\n      tag_33\n      jump\t// in\n    tag_32:\n      swap2\n      pop\n      pop\n        /* \"contracts/misc/assembly/UselessEncryption.sol\":1080:1134  for (uint256 i; i < 32; i++) bytesArray[i] = output[i] */\n      jump(tag_24)\n    tag_25:\n      pop\n        /* \"contracts/misc/assembly/UselessEncryption.sol\":1158:1168  bytesArray */\n      dup1\n        /* \"contracts/misc/assembly/UselessEncryption.sol\":1144:1169  return string(bytesArray) */\n      swap3\n      pop\n      pop\n      pop\n        /* \"contracts/misc/assembly/UselessEncryption.sol\":96:1176  function encrypt(string memory _input, bool _decrypt) external pure returns (string memory) {... */\n      swap3\n      swap2\n      pop\n      pop\n      jump\t// out\n        /* \"#utility.yul\":7:419   */\n    tag_35:\n        /* \"#utility.yul\":85:90   */\n      0x00\n        /* \"#utility.yul\":110:176   */\n      tag_37\n        /* \"#utility.yul\":126:175   */\n      tag_38\n        /* \"#utility.yul\":168:174   */\n      dup5\n        /* \"#utility.yul\":126:175   */\n      tag_39\n      jump\t// in\n    tag_38:\n        /* \"#utility.yul\":110:176   */\n      tag_40\n      jump\t// in\n    tag_37:\n        /* \"#utility.yul\":101:176   */\n      swap1\n      pop\n        /* \"#utility.yul\":199:205   */\n      dup3\n        /* \"#utility.yul\":192:197   */\n      dup2\n        /* \"#utility.yul\":185:206   */\n      mstore\n        /* \"#utility.yul\":237:241   */\n      0x20\n        /* \"#utility.yul\":230:235   */\n      dup2\n        /* \"#utility.yul\":226:242   */\n      add\n        /* \"#utility.yul\":275:278   */\n      dup5\n        /* \"#utility.yul\":266:272   */\n      dup5\n        /* \"#utility.yul\":261:264   */\n      dup5\n        /* \"#utility.yul\":257:273   */\n      add\n        /* \"#utility.yul\":254:279   */\n      gt\n        /* \"#utility.yul\":251:363   */\n      iszero\n      tag_41\n      jumpi\n        /* \"#utility.yul\":282:361   */\n      tag_42\n      tag_43\n      jump\t// in\n    tag_42:\n        /* \"#utility.yul\":251:363   */\n    tag_41:\n        /* \"#utility.yul\":372:413   */\n      tag_44\n        /* \"#utility.yul\":406:412   */\n      dup5\n        /* \"#utility.yul\":401:404   */\n      dup3\n        /* \"#utility.yul\":396:399   */\n      dup6\n        /* \"#utility.yul\":372:413   */\n      tag_45\n      jump\t// in\n    tag_44:\n        /* \"#utility.yul\":91:419   */\n      pop\n        /* \"#utility.yul\":7:419   */\n      swap4\n      swap3\n      pop\n      pop\n      pop\n      jump\t// out\n        /* \"#utility.yul\":425:558   */\n    tag_46:\n        /* \"#utility.yul\":468:473   */\n      0x00\n        /* \"#utility.yul\":506:512   */\n      dup2\n        /* \"#utility.yul\":493:513   */\n      calldataload\n        /* \"#utility.yul\":484:513   */\n      swap1\n      pop\n        /* \"#utility.yul\":522:552   */\n      tag_48\n        /* \"#utility.yul\":546:551   */\n      dup2\n        /* \"#utility.yul\":522:552   */\n      tag_49\n      jump\t// in\n    tag_48:\n        /* \"#utility.yul\":425:558   */\n      swap3\n      swap2\n      pop\n      pop\n      jump\t// out\n        /* \"#utility.yul\":578:918   */\n    tag_50:\n        /* \"#utility.yul\":634:639   */\n      0x00\n        /* \"#utility.yul\":683:686   */\n      dup3\n        /* \"#utility.yul\":676:680   */\n      0x1f\n        /* \"#utility.yul\":668:674   */\n      dup4\n        /* \"#utility.yul\":664:681   */\n      add\n        /* \"#utility.yul\":660:687   */\n      slt\n        /* \"#utility.yul\":650:772   */\n      tag_52\n      jumpi\n        /* \"#utility.yul\":691:770   */\n      tag_53\n      tag_54\n      jump\t// in\n    tag_53:\n        /* \"#utility.yul\":650:772   */\n    tag_52:\n        /* \"#utility.yul\":808:814   */\n      dup2\n        /* \"#utility.yul\":795:815   */\n      calldataload\n        /* \"#utility.yul\":833:912   */\n      tag_55\n        /* \"#utility.yul\":908:911   */\n      dup5\n        /* \"#utility.yul\":900:906   */\n      dup3\n        /* \"#utility.yul\":893:897   */\n      0x20\n        /* \"#utility.yul\":885:891   */\n      dup7\n        /* \"#utility.yul\":881:898   */\n      add\n        /* \"#utility.yul\":833:912   */\n      tag_35\n      jump\t// in\n    tag_55:\n        /* \"#utility.yul\":824:912   */\n      swap2\n      pop\n        /* \"#utility.yul\":640:918   */\n      pop\n        /* \"#utility.yul\":578:918   */\n      swap3\n      swap2\n      pop\n      pop\n      jump\t// out\n        /* \"#utility.yul\":924:1572   */\n    tag_6:\n        /* \"#utility.yul\":999:1005   */\n      0x00\n        /* \"#utility.yul\":1007:1013   */\n      dup1\n        /* \"#utility.yul\":1056:1058   */\n      0x40\n        /* \"#utility.yul\":1044:1053   */\n      dup4\n        /* \"#utility.yul\":1035:1042   */\n      dup6\n        /* \"#utility.yul\":1031:1054   */\n      sub\n        /* \"#utility.yul\":1027:1059   */\n      slt\n        /* \"#utility.yul\":1024:1143   */\n      iszero\n      tag_57\n      jumpi\n        /* \"#utility.yul\":1062:1141   */\n      tag_58\n      tag_59\n      jump\t// in\n    tag_58:\n        /* \"#utility.yul\":1024:1143   */\n    tag_57:\n        /* \"#utility.yul\":1210:1211   */\n      0x00\n        /* \"#utility.yul\":1199:1208   */\n      dup4\n        /* \"#utility.yul\":1195:1212   */\n      add\n        /* \"#utility.yul\":1182:1213   */\n      calldataload\n        /* \"#utility.yul\":1240:1258   */\n      0xffffffffffffffff\n        /* \"#utility.yul\":1232:1238   */\n      dup2\n        /* \"#utility.yul\":1229:1259   */\n      gt\n        /* \"#utility.yul\":1226:1343   */\n      iszero\n      tag_60\n      jumpi\n        /* \"#utility.yul\":1262:1341   */\n      tag_61\n      tag_62\n      jump\t// in\n    tag_61:\n        /* \"#utility.yul\":1226:1343   */\n    tag_60:\n        /* \"#utility.yul\":1367:1430   */\n      tag_63\n        /* \"#utility.yul\":1422:1429   */\n      dup6\n        /* \"#utility.yul\":1413:1419   */\n      dup3\n        /* \"#utility.yul\":1402:1411   */\n      dup7\n        /* \"#utility.yul\":1398:1420   */\n      add\n        /* \"#utility.yul\":1367:1430   */\n      tag_50\n      jump\t// in\n    tag_63:\n        /* \"#utility.yul\":1357:1430   */\n      swap3\n      pop\n        /* \"#utility.yul\":1153:1440   */\n      pop\n        /* \"#utility.yul\":1479:1481   */\n      0x20\n        /* \"#utility.yul\":1505:1555   */\n      tag_64\n        /* \"#utility.yul\":1547:1554   */\n      dup6\n        /* \"#utility.yul\":1538:1544   */\n      dup3\n        /* \"#utility.yul\":1527:1536   */\n      dup7\n        /* \"#utility.yul\":1523:1545   */\n      add\n        /* \"#utility.yul\":1505:1555   */\n      tag_46\n      jump\t// in\n    tag_64:\n        /* \"#utility.yul\":1495:1555   */\n      swap2\n      pop\n        /* \"#utility.yul\":1450:1565   */\n      pop\n        /* \"#utility.yul\":924:1572   */\n      swap3\n      pop\n      swap3\n      swap1\n      pop\n      jump\t// out\n        /* \"#utility.yul\":1578:1942   */\n    tag_65:\n        /* \"#utility.yul\":1666:1669   */\n      0x00\n        /* \"#utility.yul\":1694:1733   */\n      tag_67\n        /* \"#utility.yul\":1727:1732   */\n      dup3\n        /* \"#utility.yul\":1694:1733   */\n      tag_68\n      jump\t// in\n    tag_67:\n        /* \"#utility.yul\":1749:1820   */\n      tag_69\n        /* \"#utility.yul\":1813:1819   */\n      dup2\n        /* \"#utility.yul\":1808:1811   */\n      dup6\n        /* \"#utility.yul\":1749:1820   */\n      tag_70\n      jump\t// in\n    tag_69:\n        /* \"#utility.yul\":1742:1820   */\n      swap4\n      pop\n        /* \"#utility.yul\":1829:1881   */\n      tag_71\n        /* \"#utility.yul\":1874:1880   */\n      dup2\n        /* \"#utility.yul\":1869:1872   */\n      dup6\n        /* \"#utility.yul\":1862:1866   */\n      0x20\n        /* \"#utility.yul\":1855:1860   */\n      dup7\n        /* \"#utility.yul\":1851:1867   */\n      add\n        /* \"#utility.yul\":1829:1881   */\n      tag_72\n      jump\t// in\n    tag_71:\n        /* \"#utility.yul\":1906:1935   */\n      tag_73\n        /* \"#utility.yul\":1928:1934   */\n      dup2\n        /* \"#utility.yul\":1906:1935   */\n      tag_74\n      jump\t// in\n    tag_73:\n        /* \"#utility.yul\":1901:1904   */\n      dup5\n        /* \"#utility.yul\":1897:1936   */\n      add\n        /* \"#utility.yul\":1890:1936   */\n      swap2\n      pop\n        /* \"#utility.yul\":1670:1942   */\n      pop\n        /* \"#utility.yul\":1578:1942   */\n      swap3\n      swap2\n      pop\n      pop\n      jump\t// out\n        /* \"#utility.yul\":1948:2261   */\n    tag_9:\n        /* \"#utility.yul\":2061:2065   */\n      0x00\n        /* \"#utility.yul\":2099:2101   */\n      0x20\n        /* \"#utility.yul\":2088:2097   */\n      dup3\n        /* \"#utility.yul\":2084:2102   */\n      add\n        /* \"#utility.yul\":2076:2102   */\n      swap1\n      pop\n        /* \"#utility.yul\":2148:2157   */\n      dup2\n        /* \"#utility.yul\":2142:2146   */\n      dup2\n        /* \"#utility.yul\":2138:2158   */\n      sub\n        /* \"#utility.yul\":2134:2135   */\n      0x00\n        /* \"#utility.yul\":2123:2132   */\n      dup4\n        /* \"#utility.yul\":2119:2136   */\n      add\n        /* \"#utility.yul\":2112:2159   */\n      mstore\n        /* \"#utility.yul\":2176:2254   */\n      tag_76\n        /* \"#utility.yul\":2249:2253   */\n      dup2\n        /* \"#utility.yul\":2240:2246   */\n      dup5\n        /* \"#utility.yul\":2176:2254   */\n      tag_65\n      jump\t// in\n    tag_76:\n        /* \"#utility.yul\":2168:2254   */\n      swap1\n      pop\n        /* \"#utility.yul\":1948:2261   */\n      swap3\n      swap2\n      pop\n      pop\n      jump\t// out\n        /* \"#utility.yul\":2267:2396   */\n    tag_40:\n        /* \"#utility.yul\":2301:2307   */\n      0x00\n        /* \"#utility.yul\":2328:2348   */\n      tag_78\n      tag_79\n      jump\t// in\n    tag_78:\n        /* \"#utility.yul\":2318:2348   */\n      swap1\n      pop\n        /* \"#utility.yul\":2357:2390   */\n      tag_80\n        /* \"#utility.yul\":2385:2389   */\n      dup3\n        /* \"#utility.yul\":2377:2383   */\n      dup3\n        /* \"#utility.yul\":2357:2390   */\n      tag_81\n      jump\t// in\n    tag_80:\n        /* \"#utility.yul\":2267:2396   */\n      swap2\n      swap1\n      pop\n      jump\t// out\n        /* \"#utility.yul\":2402:2477   */\n    tag_79:\n        /* \"#utility.yul\":2435:2441   */\n      0x00\n        /* \"#utility.yul\":2468:2470   */\n      0x40\n        /* \"#utility.yul\":2462:2471   */\n      mload\n        /* \"#utility.yul\":2452:2471   */\n      swap1\n      pop\n        /* \"#utility.yul\":2402:2477   */\n      swap1\n      jump\t// out\n        /* \"#utility.yul\":2483:2791   */\n    tag_39:\n        /* \"#utility.yul\":2545:2549   */\n      0x00\n        /* \"#utility.yul\":2635:2653   */\n      0xffffffffffffffff\n        /* \"#utility.yul\":2627:2633   */\n      dup3\n        /* \"#utility.yul\":2624:2654   */\n      gt\n        /* \"#utility.yul\":2621:2677   */\n      iszero\n      tag_84\n      jumpi\n        /* \"#utility.yul\":2657:2675   */\n      tag_85\n      tag_22\n      jump\t// in\n    tag_85:\n        /* \"#utility.yul\":2621:2677   */\n    tag_84:\n        /* \"#utility.yul\":2695:2724   */\n      tag_86\n        /* \"#utility.yul\":2717:2723   */\n      dup3\n        /* \"#utility.yul\":2695:2724   */\n      tag_74\n      jump\t// in\n    tag_86:\n        /* \"#utility.yul\":2687:2724   */\n      swap1\n      pop\n        /* \"#utility.yul\":2779:2783   */\n      0x20\n        /* \"#utility.yul\":2773:2777   */\n      dup2\n        /* \"#utility.yul\":2769:2784   */\n      add\n        /* \"#utility.yul\":2761:2784   */\n      swap1\n      pop\n        /* \"#utility.yul\":2483:2791   */\n      swap2\n      swap1\n      pop\n      jump\t// out\n        /* \"#utility.yul\":2797:2896   */\n    tag_68:\n        /* \"#utility.yul\":2849:2855   */\n      0x00\n        /* \"#utility.yul\":2883:2888   */\n      dup2\n        /* \"#utility.yul\":2877:2889   */\n      mload\n        /* \"#utility.yul\":2867:2889   */\n      swap1\n      pop\n        /* \"#utility.yul\":2797:2896   */\n      swap2\n      swap1\n      pop\n      jump\t// out\n        /* \"#utility.yul\":2902:3071   */\n    tag_70:\n        /* \"#utility.yul\":2986:2997   */\n      0x00\n        /* \"#utility.yul\":3020:3026   */\n      dup3\n        /* \"#utility.yul\":3015:3018   */\n      dup3\n        /* \"#utility.yul\":3008:3027   */\n      mstore\n        /* \"#utility.yul\":3060:3064   */\n      0x20\n        /* \"#utility.yul\":3055:3058   */\n      dup3\n        /* \"#utility.yul\":3051:3065   */\n      add\n        /* \"#utility.yul\":3036:3065   */\n      swap1\n      pop\n        /* \"#utility.yul\":2902:3071   */\n      swap3\n      swap2\n      pop\n      pop\n      jump\t// out\n        /* \"#utility.yul\":3077:3167   */\n    tag_89:\n        /* \"#utility.yul\":3111:3118   */\n      0x00\n        /* \"#utility.yul\":3154:3159   */\n      dup2\n        /* \"#utility.yul\":3147:3160   */\n      iszero\n        /* \"#utility.yul\":3140:3161   */\n      iszero\n        /* \"#utility.yul\":3129:3161   */\n      swap1\n      pop\n        /* \"#utility.yul\":3077:3167   */\n      swap2\n      swap1\n      pop\n      jump\t// out\n        /* \"#utility.yul\":3173:3250   */\n    tag_91:\n        /* \"#utility.yul\":3210:3217   */\n      0x00\n        /* \"#utility.yul\":3239:3244   */\n      dup2\n        /* \"#utility.yul\":3228:3244   */\n      swap1\n      pop\n        /* \"#utility.yul\":3173:3250   */\n      swap2\n      swap1\n      pop\n      jump\t// out\n        /* \"#utility.yul\":3256:3410   */\n    tag_45:\n        /* \"#utility.yul\":3340:3346   */\n      dup3\n        /* \"#utility.yul\":3335:3338   */\n      dup2\n        /* \"#utility.yul\":3330:3333   */\n      dup4\n        /* \"#utility.yul\":3317:3347   */\n      calldatacopy\n        /* \"#utility.yul\":3402:3403   */\n      0x00\n        /* \"#utility.yul\":3393:3399   */\n      dup4\n        /* \"#utility.yul\":3388:3391   */\n      dup4\n        /* \"#utility.yul\":3384:3400   */\n      add\n        /* \"#utility.yul\":3377:3404   */\n      mstore\n        /* \"#utility.yul\":3256:3410   */\n      pop\n      pop\n      pop\n      jump\t// out\n        /* \"#utility.yul\":3416:3723   */\n    tag_72:\n        /* \"#utility.yul\":3484:3485   */\n      0x00\n        /* \"#utility.yul\":3494:3607   */\n    tag_95:\n        /* \"#utility.yul\":3508:3514   */\n      dup4\n        /* \"#utility.yul\":3505:3506   */\n      dup2\n        /* \"#utility.yul\":3502:3515   */\n      lt\n        /* \"#utility.yul\":3494:3607   */\n      iszero\n      tag_97\n      jumpi\n        /* \"#utility.yul\":3593:3594   */\n      dup1\n        /* \"#utility.yul\":3588:3591   */\n      dup3\n        /* \"#utility.yul\":3584:3595   */\n      add\n        /* \"#utility.yul\":3578:3596   */\n      mload\n        /* \"#utility.yul\":3574:3575   */\n      dup2\n        /* \"#utility.yul\":3569:3572   */\n      dup5\n        /* \"#utility.yul\":3565:3576   */\n      add\n        /* \"#utility.yul\":3558:3597   */\n      mstore\n        /* \"#utility.yul\":3530:3532   */\n      0x20\n        /* \"#utility.yul\":3527:3528   */\n      dup2\n        /* \"#utility.yul\":3523:3533   */\n      add\n        /* \"#utility.yul\":3518:3533   */\n      swap1\n      pop\n        /* \"#utility.yul\":3494:3607   */\n      jump(tag_95)\n    tag_97:\n        /* \"#utility.yul\":3625:3631   */\n      dup4\n        /* \"#utility.yul\":3622:3623   */\n      dup2\n        /* \"#utility.yul\":3619:3632   */\n      gt\n        /* \"#utility.yul\":3616:3717   */\n      iszero\n      tag_98\n      jumpi\n        /* \"#utility.yul\":3705:3706   */\n      0x00\n        /* \"#utility.yul\":3696:3702   */\n      dup5\n        /* \"#utility.yul\":3691:3694   */\n      dup5\n        /* \"#utility.yul\":3687:3703   */\n      add\n        /* \"#utility.yul\":3680:3707   */\n      mstore\n        /* \"#utility.yul\":3616:3717   */\n    tag_98:\n        /* \"#utility.yul\":3465:3723   */\n      pop\n        /* \"#utility.yul\":3416:3723   */\n      pop\n      pop\n      pop\n      jump\t// out\n        /* \"#utility.yul\":3729:4010   */\n    tag_81:\n        /* \"#utility.yul\":3812:3839   */\n      tag_100\n        /* \"#utility.yul\":3834:3838   */\n      dup3\n        /* \"#utility.yul\":3812:3839   */\n      tag_74\n      jump\t// in\n    tag_100:\n        /* \"#utility.yul\":3804:3810   */\n      dup2\n        /* \"#utility.yul\":3800:3840   */\n      add\n        /* \"#utility.yul\":3942:3948   */\n      dup2\n        /* \"#utility.yul\":3930:3940   */\n      dup2\n        /* \"#utility.yul\":3927:3949   */\n      lt\n        /* \"#utility.yul\":3906:3924   */\n      0xffffffffffffffff\n        /* \"#utility.yul\":3894:3904   */\n      dup3\n        /* \"#utility.yul\":3891:3925   */\n      gt\n        /* \"#utility.yul\":3888:3950   */\n      or\n        /* \"#utility.yul\":3885:3973   */\n      iszero\n      tag_101\n      jumpi\n        /* \"#utility.yul\":3953:3971   */\n      tag_102\n      tag_22\n      jump\t// in\n    tag_102:\n        /* \"#utility.yul\":3885:3973   */\n    tag_101:\n        /* \"#utility.yul\":3993:4003   */\n      dup1\n        /* \"#utility.yul\":3989:3991   */\n      0x40\n        /* \"#utility.yul\":3982:4004   */\n      mstore\n        /* \"#utility.yul\":3772:4010   */\n      pop\n        /* \"#utility.yul\":3729:4010   */\n      pop\n      pop\n      jump\t// out\n        /* \"#utility.yul\":4016:4249   */\n    tag_33:\n        /* \"#utility.yul\":4055:4058   */\n      0x00\n        /* \"#utility.yul\":4078:4102   */\n      tag_104\n        /* \"#utility.yul\":4096:4101   */\n      dup3\n        /* \"#utility.yul\":4078:4102   */\n      tag_91\n      jump\t// in\n    tag_104:\n        /* \"#utility.yul\":4069:4102   */\n      swap2\n      pop\n        /* \"#utility.yul\":4124:4190   */\n      0xffffffffffffffffffffffffffffffffffffffffffffffffffffffffffffffff\n        /* \"#utility.yul\":4117:4122   */\n      dup3\n        /* \"#utility.yul\":4114:4191   */\n      eq\n        /* \"#utility.yul\":4111:4214   */\n      iszero\n      tag_105\n      jumpi\n        /* \"#utility.yul\":4194:4212   */\n      tag_106\n      tag_107\n      jump\t// in\n    tag_106:\n        /* \"#utility.yul\":4111:4214   */\n    tag_105:\n        /* \"#utility.yul\":4241:4242   */\n      0x01\n        /* \"#utility.yul\":4234:4239   */\n      dup3\n        /* \"#utility.yul\":4230:4243   */\n      add\n        /* \"#utility.yul\":4223:4243   */\n      swap1\n      pop\n        /* \"#utility.yul\":4016:4249   */\n      swap2\n      swap1\n      pop\n      jump\t// out\n        /* \"#utility.yul\":4255:4435   */\n    tag_107:\n        /* \"#utility.yul\":4303:4380   */\n      0x4e487b7100000000000000000000000000000000000000000000000000000000\n        /* \"#utility.yul\":4300:4301   */\n      0x00\n        /* \"#utility.yul\":4293:4381   */\n      mstore\n        /* \"#utility.yul\":4400:4404   */\n      0x11\n        /* \"#utility.yul\":4397:4398   */\n      0x04\n        /* \"#utility.yul\":4390:4405   */\n      mstore\n        /* \"#utility.yul\":4424:4428   */\n      0x24\n        /* \"#utility.yul\":4421:4422   */\n      0x00\n        /* \"#utility.yul\":4414:4429   */\n      revert\n        /* \"#utility.yul\":4441:4621   */\n    tag_29:\n        /* \"#utility.yul\":4489:4566   */\n      0x4e487b7100000000000000000000000000000000000000000000000000000000\n        /* \"#utility.yul\":4486:4487   */\n      0x00\n        /* \"#utility.yul\":4479:4567   */\n      mstore\n        /* \"#utility.yul\":4586:4590   */\n      0x32\n        /* \"#utility.yul\":4583:4584   */\n      0x04\n        /* \"#utility.yul\":4576:4591   */\n      mstore\n        /* \"#utility.yul\":4610:4614   */\n      0x24\n        /* \"#utility.yul\":4607:4608   */\n      0x00\n        /* \"#utility.yul\":4600:4615   */\n      revert\n        /* \"#utility.yul\":4627:4807   */\n    tag_22:\n        /* \"#utility.yul\":4675:4752   */\n      0x4e487b7100000000000000000000000000000000000000000000000000000000\n        /* \"#utility.yul\":4672:4673   */\n      0x00\n        /* \"#utility.yul\":4665:4753   */\n      mstore\n        /* \"#utility.yul\":4772:4776   */\n      0x41\n        /* \"#utility.yul\":4769:4770   */\n      0x04\n        /* \"#utility.yul\":4762:4777   */\n      mstore\n        /* \"#utility.yul\":4796:4800   */\n      0x24\n        /* \"#utility.yul\":4793:4794   */\n      0x00\n        /* \"#utility.yul\":4786:4801   */\n      revert\n        /* \"#utility.yul\":4813:4930   */\n    tag_54:\n        /* \"#utility.yul\":4922:4923   */\n      0x00\n        /* \"#utility.yul\":4919:4920   */\n      dup1\n        /* \"#utility.yul\":4912:4924   */\n      revert\n        /* \"#utility.yul\":4936:5053   */\n    tag_43:\n        /* \"#utility.yul\":5045:5046   */\n      0x00\n        /* \"#utility.yul\":5042:5043   */\n      dup1\n        /* \"#utility.yul\":5035:5047   */\n      revert\n        /* \"#utility.yul\":5059:5176   */\n    tag_62:\n        /* \"#utility.yul\":5168:5169   */\n      0x00\n        /* \"#utility.yul\":5165:5166   */\n      dup1\n        /* \"#utility.yul\":5158:5170   */\n      revert\n        /* \"#utility.yul\":5182:5299   */\n    tag_59:\n        /* \"#utility.yul\":5291:5292   */\n      0x00\n        /* \"#utility.yul\":5288:5289   */\n      dup1\n        /* \"#utility.yul\":5281:5293   */\n      revert\n        /* \"#utility.yul\":5305:5407   */\n    tag_74:\n        /* \"#utility.yul\":5346:5352   */\n      0x00\n        /* \"#utility.yul\":5397:5399   */\n      0x1f\n        /* \"#utility.yul\":5393:5400   */\n      not\n        /* \"#utility.yul\":5388:5390   */\n      0x1f\n        /* \"#utility.yul\":5381:5386   */\n      dup4\n        /* \"#utility.yul\":5377:5391   */\n      add\n        /* \"#utility.yul\":5373:5401   */\n      and\n        /* \"#utility.yul\":5363:5401   */\n      swap1\n      pop\n        /* \"#utility.yul\":5305:5407   */\n      swap2\n      swap1\n      pop\n      jump\t// out\n        /* \"#utility.yul\":5413:5529   */\n    tag_49:\n        /* \"#utility.yul\":5483:5504   */\n      tag_117\n        /* \"#utility.yul\":5498:5503   */\n      dup2\n        /* \"#utility.yul\":5483:5504   */\n      tag_89\n      jump\t// in\n    tag_117:\n        /* \"#utility.yul\":5476:5481   */\n      dup2\n        /* \"#utility.yul\":5473:5505   */\n      eq\n        /* \"#utility.yul\":5463:5523   */\n      tag_118\n      jumpi\n        /* \"#utility.yul\":5519:5520   */\n      0x00\n        /* \"#utility.yul\":5516:5517   */\n      dup1\n        /* \"#utility.yul\":5509:5521   */\n      revert\n        /* \"#utility.yul\":5463:5523   */\n    tag_118:\n        /* \"#utility.yul\":5413:5529   */\n      pop\n      jump\t// out\n\n    auxdata: 0xa2646970667358221220ae0f9f078e514c55b28c4d1d52c158861c1adccc8ca6263936a9ed9411abbc8664736f6c63430008070033\n}\n",
				"bytecode": {
					"linkReferences": {},
					"object": "608060405234801561001057600080fd5b5061054e806100206000396000f3fe608060405234801561001057600080fd5b506004361061002b5760003560e01c80636232d61814610030575b600080fd5b61004a60048036038101906100459190610254565b610060565b60405161005791906102e9565b60405180910390f35b606060006100e3565b600060208201519050919050565b6000808314156100a8577f010101010101010101010101010101010101010101010101010101010101010182016000525b60018314156100d8577f010101010101010101010101010101010101010101010101010101010101010182036000525b600051905092915050565b6100ec84610069565b6100f68482610077565b9150506000602067ffffffffffffffff811115610116576101156104ad565b5b6040519080825280601f01601f1916602001820160405280156101485781602001600182028036833780820191505090505b50905060005b60208110156101c35782816020811061016a5761016961047e565b5b1a60f81b8282815181106101815761018061047e565b5b60200101907effffffffffffffffffffffffffffffffffffffffffffffffffffffffffffff1916908160001a90535080806101bb90610406565b91505061014e565b50809250505092915050565b60006101e26101dd84610330565b61030b565b9050828152602081018484840111156101fe576101fd6104e1565b5b610209848285610393565b509392505050565b60008135905061022081610501565b92915050565b600082601f83011261023b5761023a6104dc565b5b813561024b8482602086016101cf565b91505092915050565b6000806040838503121561026b5761026a6104eb565b5b600083013567ffffffffffffffff811115610289576102886104e6565b5b61029585828601610226565b92505060206102a685828601610211565b9150509250929050565b60006102bb82610361565b6102c5818561036c565b93506102d58185602086016103a2565b6102de816104f0565b840191505092915050565b6000602082019050818103600083015261030381846102b0565b905092915050565b6000610315610326565b905061032182826103d5565b919050565b6000604051905090565b600067ffffffffffffffff82111561034b5761034a6104ad565b5b610354826104f0565b9050602081019050919050565b600081519050919050565b600082825260208201905092915050565b60008115159050919050565b6000819050919050565b82818337600083830152505050565b60005b838110156103c05780820151818401526020810190506103a5565b838111156103cf576000848401525b50505050565b6103de826104f0565b810181811067ffffffffffffffff821117156103fd576103fc6104ad565b5b80604052505050565b600061041182610389565b91507fffffffffffffffffffffffffffffffffffffffffffffffffffffffffffffffff8214156104445761044361044f565b5b600182019050919050565b7f4e487b7100000000000000000000000000000000000000000000000000000000600052601160045260246000fd5b7f4e487b7100000000000000000000000000000000000000000000000000000000600052603260045260246000fd5b7f4e487b7100000000000000000000000000000000000000000000000000000000600052604160045260246000fd5b600080fd5b600080fd5b600080fd5b600080fd5b6000601f19601f8301169050919050565b61050a8161037d565b811461051557600080fd5b5056fea2646970667358221220ae0f9f078e514c55b28c4d1d52c158861c1adccc8ca6263936a9ed9411abbc8664736f6c63430008070033",
					"opcodes": "PUSH1 0x80 PUSH1 0x40 MSTORE CALLVALUE DUP1 ISZERO PUSH2 0x10 JUMPI PUSH1 0x0 DUP1 REVERT JUMPDEST POP PUSH2 0x54E DUP1 PUSH2 0x20 PUSH1 0x0 CODECOPY PUSH1 0x0 RETURN INVALID PUSH1 0x80 PUSH1 0x40 MSTORE CALLVALUE DUP1 ISZERO PUSH2 0x10 JUMPI PUSH1 0x0 DUP1 REVERT JUMPDEST POP PUSH1 0x4 CALLDATASIZE LT PUSH2 0x2B JUMPI PUSH1 0x0 CALLDATALOAD PUSH1 0xE0 SHR DUP1 PUSH4 0x6232D618 EQ PUSH2 0x30 JUMPI JUMPDEST PUSH1 0x0 DUP1 REVERT JUMPDEST PUSH2 0x4A PUSH1 0x4 DUP1 CALLDATASIZE SUB DUP2 ADD SWAP1 PUSH2 0x45 SWAP2 SWAP1 PUSH2 0x254 JUMP JUMPDEST PUSH2 0x60 JUMP JUMPDEST PUSH1 0x40 MLOAD PUSH2 0x57 SWAP2 SWAP1 PUSH2 0x2E9 JUMP JUMPDEST PUSH1 0x40 MLOAD DUP1 SWAP2 SUB SWAP1 RETURN JUMPDEST PUSH1 0x60 PUSH1 0x0 PUSH2 0xE3 JUMP JUMPDEST PUSH1 0x0 PUSH1 0x20 DUP3 ADD MLOAD SWAP1 POP SWAP2 SWAP1 POP JUMP JUMPDEST PUSH1 0x0 DUP1 DUP4 EQ ISZERO PUSH2 0xA8 JUMPI PUSH32 0x101010101010101010101010101010101010101010101010101010101010101 DUP3 ADD PUSH1 0x0 MSTORE JUMPDEST PUSH1 0x1 DUP4 EQ ISZERO PUSH2 0xD8 JUMPI PUSH32 0x101010101010101010101010101010101010101010101010101010101010101 DUP3 SUB PUSH1 0x0 MSTORE JUMPDEST PUSH1 0x0 MLOAD SWAP1 POP SWAP3 SWAP2 POP POP JUMP JUMPDEST PUSH2 0xEC DUP5 PUSH2 0x69 JUMP JUMPDEST PUSH2 0xF6 DUP5 DUP3 PUSH2 0x77 JUMP JUMPDEST SWAP2 POP POP PUSH1 0x0 PUSH1 0x20 PUSH8 0xFFFFFFFFFFFFFFFF DUP2 GT ISZERO PUSH2 0x116 JUMPI PUSH2 0x115 PUSH2 0x4AD JUMP JUMPDEST JUMPDEST PUSH1 0x40 MLOAD SWAP1 DUP1 DUP3 MSTORE DUP1 PUSH1 0x1F ADD PUSH1 0x1F NOT AND PUSH1 0x20 ADD DUP3 ADD PUSH1 0x40 MSTORE DUP1 ISZERO PUSH2 0x148 JUMPI DUP2 PUSH1 0x20 ADD PUSH1 0x1 DUP3 MUL DUP1 CALLDATASIZE DUP4 CALLDATACOPY DUP1 DUP3 ADD SWAP2 POP POP SWAP1 POP JUMPDEST POP SWAP1 POP PUSH1 0x0 JUMPDEST PUSH1 0x20 DUP2 LT ISZERO PUSH2 0x1C3 JUMPI DUP3 DUP2 PUSH1 0x20 DUP2 LT PUSH2 0x16A JUMPI PUSH2 0x169 PUSH2 0x47E JUMP JUMPDEST JUMPDEST BYTE PUSH1 0xF8 SHL DUP3 DUP3 DUP2 MLOAD DUP2 LT PUSH2 0x181 JUMPI PUSH2 0x180 PUSH2 0x47E JUMP JUMPDEST JUMPDEST PUSH1 0x20 ADD ADD SWAP1 PUSH31 0xFFFFFFFFFFFFFFFFFFFFFFFFFFFFFFFFFFFFFFFFFFFFFFFFFFFFFFFFFFFFFF NOT AND SWAP1 DUP2 PUSH1 0x0 BYTE SWAP1 MSTORE8 POP DUP1 DUP1 PUSH2 0x1BB SWAP1 PUSH2 0x406 JUMP JUMPDEST SWAP2 POP POP PUSH2 0x14E JUMP JUMPDEST POP DUP1 SWAP3 POP POP POP SWAP3 SWAP2 POP POP JUMP JUMPDEST PUSH1 0x0 PUSH2 0x1E2 PUSH2 0x1DD DUP5 PUSH2 0x330 JUMP JUMPDEST PUSH2 0x30B JUMP JUMPDEST SWAP1 POP DUP3 DUP2 MSTORE PUSH1 0x20 DUP2 ADD DUP5 DUP5 DUP5 ADD GT ISZERO PUSH2 0x1FE JUMPI PUSH2 0x1FD PUSH2 0x4E1 JUMP JUMPDEST JUMPDEST PUSH2 0x209 DUP5 DUP3 DUP6 PUSH2 0x393 JUMP JUMPDEST POP SWAP4 SWAP3 POP POP POP JUMP JUMPDEST PUSH1 0x0 DUP2 CALLDATALOAD SWAP1 POP PUSH2 0x220 DUP2 PUSH2 0x501 JUMP JUMPDEST SWAP3 SWAP2 POP POP JUMP JUMPDEST PUSH1 0x0 DUP3 PUSH1 0x1F DUP4 ADD SLT PUSH2 0x23B JUMPI PUSH2 0x23A PUSH2 0x4DC JUMP JUMPDEST JUMPDEST DUP2 CALLDATALOAD PUSH2 0x24B DUP5 DUP3 PUSH1 0x20 DUP7 ADD PUSH2 0x1CF JUMP JUMPDEST SWAP2 POP POP SWAP3 SWAP2 POP POP JUMP JUMPDEST PUSH1 0x0 DUP1 PUSH1 0x40 DUP4 DUP6 SUB SLT ISZERO PUSH2 0x26B JUMPI PUSH2 0x26A PUSH2 0x4EB JUMP JUMPDEST JUMPDEST PUSH1 0x0 DUP4 ADD CALLDATALOAD PUSH8 0xFFFFFFFFFFFFFFFF DUP2 GT ISZERO PUSH2 0x289 JUMPI PUSH2 0x288 PUSH2 0x4E6 JUMP JUMPDEST JUMPDEST PUSH2 0x295 DUP6 DUP3 DUP7 ADD PUSH2 0x226 JUMP JUMPDEST SWAP3 POP POP PUSH1 0x20 PUSH2 0x2A6 DUP6 DUP3 DUP7 ADD PUSH2 0x211 JUMP JUMPDEST SWAP2 POP POP SWAP3 POP SWAP3 SWAP1 POP JUMP JUMPDEST PUSH1 0x0 PUSH2 0x2BB DUP3 PUSH2 0x361 JUMP JUMPDEST PUSH2 0x2C5 DUP2 DUP6 PUSH2 0x36C JUMP JUMPDEST SWAP4 POP PUSH2 0x2D5 DUP2 DUP6 PUSH1 0x20 DUP7 ADD PUSH2 0x3A2 JUMP JUMPDEST PUSH2 0x2DE DUP2 PUSH2 0x4F0 JUMP JUMPDEST DUP5 ADD SWAP2 POP POP SWAP3 SWAP2 POP POP JUMP JUMPDEST PUSH1 0x0 PUSH1 0x20 DUP3 ADD SWAP1 POP DUP2 DUP2 SUB PUSH1 0x0 DUP4 ADD MSTORE PUSH2 0x303 DUP2 DUP5 PUSH2 0x2B0 JUMP JUMPDEST SWAP1 POP SWAP3 SWAP2 POP POP JUMP JUMPDEST PUSH1 0x0 PUSH2 0x315 PUSH2 0x326 JUMP JUMPDEST SWAP1 POP PUSH2 0x321 DUP3 DUP3 PUSH2 0x3D5 JUMP JUMPDEST SWAP2 SWAP1 POP JUMP JUMPDEST PUSH1 0x0 PUSH1 0x40 MLOAD SWAP1 POP SWAP1 JUMP JUMPDEST PUSH1 0x0 PUSH8 0xFFFFFFFFFFFFFFFF DUP3 GT ISZERO PUSH2 0x34B JUMPI PUSH2 0x34A PUSH2 0x4AD JUMP JUMPDEST JUMPDEST PUSH2 0x354 DUP3 PUSH2 0x4F0 JUMP JUMPDEST SWAP1 POP PUSH1 0x20 DUP2 ADD SWAP1 POP SWAP2 SWAP1 POP JUMP JUMPDEST PUSH1 0x0 DUP2 MLOAD SWAP1 POP SWAP2 SWAP1 POP JUMP JUMPDEST PUSH1 0x0 DUP3 DUP3 MSTORE PUSH1 0x20 DUP3 ADD SWAP1 POP SWAP3 SWAP2 POP POP JUMP JUMPDEST PUSH1 0x0 DUP2 ISZERO ISZERO SWAP1 POP SWAP2 SWAP1 POP JUMP JUMPDEST PUSH1 0x0 DUP2 SWAP1 POP SWAP2 SWAP1 POP JUMP JUMPDEST DUP3 DUP2 DUP4 CALLDATACOPY PUSH1 0x0 DUP4 DUP4 ADD MSTORE POP POP POP JUMP JUMPDEST PUSH1 0x0 JUMPDEST DUP4 DUP2 LT ISZERO PUSH2 0x3C0 JUMPI DUP1 DUP3 ADD MLOAD DUP2 DUP5 ADD MSTORE PUSH1 0x20 DUP2 ADD SWAP1 POP PUSH2 0x3A5 JUMP JUMPDEST DUP4 DUP2 GT ISZERO PUSH2 0x3CF JUMPI PUSH1 0x0 DUP5 DUP5 ADD MSTORE JUMPDEST POP POP POP POP JUMP JUMPDEST PUSH2 0x3DE DUP3 PUSH2 0x4F0 JUMP JUMPDEST DUP2 ADD DUP2 DUP2 LT PUSH8 0xFFFFFFFFFFFFFFFF DUP3 GT OR ISZERO PUSH2 0x3FD JUMPI PUSH2 0x3FC PUSH2 0x4AD JUMP JUMPDEST JUMPDEST DUP1 PUSH1 0x40 MSTORE POP POP POP JUMP JUMPDEST PUSH1 0x0 PUSH2 0x411 DUP3 PUSH2 0x389 JUMP JUMPDEST SWAP2 POP PUSH32 0xFFFFFFFFFFFFFFFFFFFFFFFFFFFFFFFFFFFFFFFFFFFFFFFFFFFFFFFFFFFFFFFF DUP3 EQ ISZERO PUSH2 0x444 JUMPI PUSH2 0x443 PUSH2 0x44F JUMP JUMPDEST JUMPDEST PUSH1 0x1 DUP3 ADD SWAP1 POP SWAP2 SWAP1 POP JUMP JUMPDEST PUSH32 0x4E487B7100000000000000000000000000000000000000000000000000000000 PUSH1 0x0 MSTORE PUSH1 0x11 PUSH1 0x4 MSTORE PUSH1 0x24 PUSH1 0x0 REVERT JUMPDEST PUSH32 0x4E487B7100000000000000000000000000000000000000000000000000000000 PUSH1 0x0 MSTORE PUSH1 0x32 PUSH1 0x4 MSTORE PUSH1 0x24 PUSH1 0x0 REVERT JUMPDEST PUSH32 0x4E487B7100000000000000000000000000000000000000000000000000000000 PUSH1 0x0 MSTORE PUSH1 0x41 PUSH1 0x4 MSTORE PUSH1 0x24 PUSH1 0x0 REVERT JUMPDEST PUSH1 0x0 DUP1 REVERT JUMPDEST PUSH1 0x0 DUP1 REVERT JUMPDEST PUSH1 0x0 DUP1 REVERT JUMPDEST PUSH1 0x0 DUP1 REVERT JUMPDEST PUSH1 0x0 PUSH1 0x1F NOT PUSH1 0x1F DUP4 ADD AND SWAP1 POP SWAP2 SWAP1 POP JUMP JUMPDEST PUSH2 0x50A DUP2 PUSH2 0x37D JUMP JUMPDEST DUP2 EQ PUSH2 0x515 JUMPI PUSH1 0x0 DUP1 REVERT JUMPDEST POP JUMP INVALID LOG2 PUSH5 0x6970667358 0x22 SLT KECCAK256 0xAE 0xF SWAP16 SMOD DUP15 MLOAD 0x4C SSTORE 0xB2 DUP13 0x4D SAR MSTORE 0xC1 PC DUP7 SHR BYTE 0xDC 0xCC DUP13 0xA6 0x26 CODECOPY CALLDATASIZE 0xA9 0xED SWAP5 GT 0xAB 0xBC DUP7 PUSH5 0x736F6C6343 STOP ADDMOD SMOD STOP CALLER "
				},
				"gasEstimates": {
					"creation": {
						"codeDepositCost": "271600",
						"executionCost": "312",
						"totalCost": "271912"
					},
					"external": {
						"encrypt(string,bool)": "infinite"
					}
				},
				"methodIdentifiers": {
					"encrypt(string,bool)": "6232d618"
				}
			},
			"storageLayout": {
				"storage": [],
				"types": null
			},
			"userdoc": {
				"kind": "user",
				"methods": {},
				"version": 1
			}
		}
	}
}