{
	"contracts/basics/QuickSort.sol": {
		"QuickSort": {
			"abi": [
				{
					"constant": false,
					"inputs": [
						{
							"name": "data",
							"type": "uint256[]"
						}
					],
					"name": "sort",
					"outputs": [
						{
							"name": "",
							"type": "uint256[]"
						}
					],
					"payable": false,
					"stateMutability": "nonpayable",
					"type": "function"
				}
			],
			"devdoc": {
				"methods": {}
			},
			"evm": {
				"assembly": "    /* \"contracts/basics/QuickSort.sol\":27:859  contract QuickSort {... */\n  mstore(0x40, 0x80)\n  callvalue\n    /* \"--CODEGEN--\":8:17   */\n  dup1\n    /* \"--CODEGEN--\":5:7   */\n  iszero\n  tag_1\n  jumpi\n    /* \"--CODEGEN--\":30:31   */\n  0x0\n    /* \"--CODEGEN--\":27:28   */\n  dup1\n    /* \"--CODEGEN--\":20:32   */\n  revert\n    /* \"--CODEGEN--\":5:7   */\ntag_1:\n    /* \"contracts/basics/QuickSort.sol\":27:859  contract QuickSort {... */\n  pop\n  dataSize(sub_0)\n  dup1\n  dataOffset(sub_0)\n  0x0\n  codecopy\n  0x0\n  return\nstop\n\nsub_0: assembly {\n        /* \"contracts/basics/QuickSort.sol\":27:859  contract QuickSort {... */\n      mstore(0x40, 0x80)\n      jumpi(tag_1, lt(calldatasize, 0x4))\n      calldataload(0x0)\n      0x100000000000000000000000000000000000000000000000000000000\n      swap1\n      div\n      0xffffffff\n      and\n      dup1\n      0x9ec8b026\n      eq\n      tag_2\n      jumpi\n    tag_1:\n      0x0\n      dup1\n      revert\n        /* \"contracts/basics/QuickSort.sol\":59:210  function sort(uint256[] memory data) public returns(uint256[] memory) {... */\n    tag_2:\n      callvalue\n        /* \"--CODEGEN--\":8:17   */\n      dup1\n        /* \"--CODEGEN--\":5:7   */\n      iszero\n      tag_3\n      jumpi\n        /* \"--CODEGEN--\":30:31   */\n      0x0\n        /* \"--CODEGEN--\":27:28   */\n      dup1\n        /* \"--CODEGEN--\":20:32   */\n      revert\n        /* \"--CODEGEN--\":5:7   */\n    tag_3:\n        /* \"contracts/basics/QuickSort.sol\":59:210  function sort(uint256[] memory data) public returns(uint256[] memory) {... */\n      pop\n      tag_4\n      0x4\n      dup1\n      calldatasize\n      sub\n      dup2\n      add\n      swap1\n      dup1\n      dup1\n      calldataload\n      swap1\n      0x20\n      add\n      swap1\n      dup3\n      add\n      dup1\n      calldataload\n      swap1\n      0x20\n      add\n      swap1\n      dup1\n      dup1\n      0x20\n      mul\n      0x20\n      add\n      mload(0x40)\n      swap1\n      dup2\n      add\n      0x40\n      mstore\n      dup1\n      swap4\n      swap3\n      swap2\n      swap1\n      dup2\n      dup2\n      mstore\n      0x20\n      add\n      dup4\n      dup4\n      0x20\n      mul\n      dup1\n      dup3\n      dup5\n      calldatacopy\n      dup3\n      add\n      swap2\n      pop\n      pop\n      pop\n      pop\n      pop\n      pop\n      swap2\n      swap3\n      swap2\n      swap3\n      swap1\n      pop\n      pop\n      pop\n      jump(tag_5)\n    tag_4:\n      mload(0x40)\n      dup1\n      dup1\n      0x20\n      add\n      dup3\n      dup2\n      sub\n      dup3\n      mstore\n      dup4\n      dup2\n      dup2\n      mload\n      dup2\n      mstore\n      0x20\n      add\n      swap2\n      pop\n      dup1\n      mload\n      swap1\n      0x20\n      add\n      swap1\n      0x20\n      mul\n      dup1\n      dup4\n      dup4\n        /* \"--CODEGEN--\":23:24   */\n      0x0\n        /* \"--CODEGEN--\":8:108   */\n    tag_6:\n        /* \"--CODEGEN--\":33:36   */\n      dup4\n        /* \"--CODEGEN--\":30:31   */\n      dup2\n        /* \"--CODEGEN--\":27:37   */\n      lt\n        /* \"--CODEGEN--\":8:108   */\n      iszero\n      tag_7\n      jumpi\n        /* \"--CODEGEN--\":99:100   */\n      dup1\n        /* \"--CODEGEN--\":94:97   */\n      dup3\n        /* \"--CODEGEN--\":90:101   */\n      add\n        /* \"--CODEGEN--\":84:102   */\n      mload\n        /* \"--CODEGEN--\":80:81   */\n      dup2\n        /* \"--CODEGEN--\":75:78   */\n      dup5\n        /* \"--CODEGEN--\":71:82   */\n      add\n        /* \"--CODEGEN--\":64:103   */\n      mstore\n        /* \"--CODEGEN--\":52:54   */\n      0x20\n        /* \"--CODEGEN--\":49:50   */\n      dup2\n        /* \"--CODEGEN--\":45:55   */\n      add\n        /* \"--CODEGEN--\":40:55   */\n      swap1\n      pop\n        /* \"--CODEGEN--\":8:108   */\n      jump(tag_6)\n    tag_7:\n        /* \"--CODEGEN--\":12:26   */\n      pop\n        /* \"contracts/basics/QuickSort.sol\":59:210  function sort(uint256[] memory data) public returns(uint256[] memory) {... */\n      pop\n      pop\n      pop\n      swap1\n      pop\n      add\n      swap3\n      pop\n      pop\n      pop\n      mload(0x40)\n      dup1\n      swap2\n      sub\n      swap1\n      return\n    tag_5:\n        /* \"contracts/basics/QuickSort.sol\":111:120  uint256[] */\n      0x60\n        /* \"contracts/basics/QuickSort.sol\":138:183  quickSort(data, int(0), int(data.length - 1)) */\n      tag_10\n        /* \"contracts/basics/QuickSort.sol\":148:152  data */\n      dup3\n        /* \"contracts/basics/QuickSort.sol\":158:159  0 */\n      0x0\n        /* \"contracts/basics/QuickSort.sol\":180:181  1 */\n      0x1\n        /* \"contracts/basics/QuickSort.sol\":166:170  data */\n      dup6\n        /* \"contracts/basics/QuickSort.sol\":166:177  data.length */\n      mload\n        /* \"contracts/basics/QuickSort.sol\":166:181  data.length - 1 */\n      sub\n        /* \"contracts/basics/QuickSort.sol\":138:147  quickSort */\n      tag_11\n        /* \"contracts/basics/QuickSort.sol\":138:183  quickSort(data, int(0), int(data.length - 1)) */\n      jump\t// in\n    tag_10:\n        /* \"contracts/basics/QuickSort.sol\":199:203  data */\n      dup2\n        /* \"contracts/basics/QuickSort.sol\":192:203  return data */\n      swap1\n      pop\n        /* \"contracts/basics/QuickSort.sol\":59:210  function sort(uint256[] memory data) public returns(uint256[] memory) {... */\n      swap2\n      swap1\n      pop\n      jump\t// out\n        /* \"contracts/basics/QuickSort.sol\":220:857  function quickSort(uint256[] memory arr, int left, int right) internal {... */\n    tag_11:\n        /* \"contracts/basics/QuickSort.sol\":301:306  int i */\n      0x0\n        /* \"contracts/basics/QuickSort.sol\":323:328  int j */\n      dup1\n        /* \"contracts/basics/QuickSort.sol\":371:384  uint256 pivot */\n      0x0\n        /* \"contracts/basics/QuickSort.sol\":309:313  left */\n      dup5\n        /* \"contracts/basics/QuickSort.sol\":301:313  int i = left */\n      swap3\n      pop\n        /* \"contracts/basics/QuickSort.sol\":331:336  right */\n      dup4\n        /* \"contracts/basics/QuickSort.sol\":323:336  int j = right */\n      swap2\n      pop\n        /* \"contracts/basics/QuickSort.sol\":352:353  j */\n      dup2\n        /* \"contracts/basics/QuickSort.sol\":349:350  i */\n      dup4\n        /* \"contracts/basics/QuickSort.sol\":349:353  i==j */\n      eq\n        /* \"contracts/basics/QuickSort.sol\":346:362  if(i==j) return; */\n      iszero\n      tag_13\n      jumpi\n        /* \"contracts/basics/QuickSort.sol\":355:362  return; */\n      jump(tag_12)\n        /* \"contracts/basics/QuickSort.sol\":346:362  if(i==j) return; */\n    tag_13:\n        /* \"contracts/basics/QuickSort.sol\":387:390  arr */\n      dup6\n        /* \"contracts/basics/QuickSort.sol\":423:424  2 */\n      0x2\n        /* \"contracts/basics/QuickSort.sol\":415:419  left */\n      dup7\n        /* \"contracts/basics/QuickSort.sol\":407:412  right */\n      dup7\n        /* \"contracts/basics/QuickSort.sol\":407:419  right - left */\n      sub\n        /* \"contracts/basics/QuickSort.sol\":406:424  (right - left) / 2 */\n      dup2\n      iszero\n      iszero\n      tag_14\n      jumpi\n      invalid\n    tag_14:\n      sdiv\n        /* \"contracts/basics/QuickSort.sol\":399:403  left */\n      dup7\n        /* \"contracts/basics/QuickSort.sol\":399:424  left + (right - left) / 2 */\n      add\n        /* \"contracts/basics/QuickSort.sol\":387:426  arr[uint256(left + (right - left) / 2)] */\n      dup2\n      mload\n      dup2\n      lt\n      iszero\n      iszero\n      tag_15\n      jumpi\n      invalid\n    tag_15:\n      swap1\n      0x20\n      add\n      swap1\n      0x20\n      mul\n      add\n      mload\n        /* \"contracts/basics/QuickSort.sol\":371:426  uint256 pivot = arr[uint256(left + (right - left) / 2)] */\n      swap1\n      pop\n        /* \"contracts/basics/QuickSort.sol\":436:731  while (i <= j) {... */\n    tag_16:\n        /* \"contracts/basics/QuickSort.sol\":448:449  j */\n      dup2\n        /* \"contracts/basics/QuickSort.sol\":443:444  i */\n      dup4\n        /* \"contracts/basics/QuickSort.sol\":443:449  i <= j */\n      sgt\n      iszero\n        /* \"contracts/basics/QuickSort.sol\":436:731  while (i <= j) {... */\n      iszero\n      tag_17\n      jumpi\n        /* \"contracts/basics/QuickSort.sol\":465:500  while (arr[uint256(i)] < pivot) i++ */\n    tag_18:\n        /* \"contracts/basics/QuickSort.sol\":490:495  pivot */\n      dup1\n        /* \"contracts/basics/QuickSort.sol\":472:475  arr */\n      dup7\n        /* \"contracts/basics/QuickSort.sol\":484:485  i */\n      dup5\n        /* \"contracts/basics/QuickSort.sol\":472:487  arr[uint256(i)] */\n      dup2\n      mload\n      dup2\n      lt\n      iszero\n      iszero\n      tag_20\n      jumpi\n      invalid\n    tag_20:\n      swap1\n      0x20\n      add\n      swap1\n      0x20\n      mul\n      add\n      mload\n        /* \"contracts/basics/QuickSort.sol\":472:495  arr[uint256(i)] < pivot */\n      lt\n        /* \"contracts/basics/QuickSort.sol\":465:500  while (arr[uint256(i)] < pivot) i++ */\n      iszero\n      tag_19\n      jumpi\n        /* \"contracts/basics/QuickSort.sol\":497:500  i++ */\n      dup3\n      dup1\n      0x1\n      add\n      swap4\n      pop\n      pop\n        /* \"contracts/basics/QuickSort.sol\":465:500  while (arr[uint256(i)] < pivot) i++ */\n      jump(tag_18)\n    tag_19:\n        /* \"contracts/basics/QuickSort.sol\":514:549  while (pivot < arr[uint256(j)]) j-- */\n    tag_21:\n        /* \"contracts/basics/QuickSort.sol\":529:532  arr */\n      dup6\n        /* \"contracts/basics/QuickSort.sol\":541:542  j */\n      dup3\n        /* \"contracts/basics/QuickSort.sol\":529:544  arr[uint256(j)] */\n      dup2\n      mload\n      dup2\n      lt\n      iszero\n      iszero\n      tag_23\n      jumpi\n      invalid\n    tag_23:\n      swap1\n      0x20\n      add\n      swap1\n      0x20\n      mul\n      add\n      mload\n        /* \"contracts/basics/QuickSort.sol\":521:526  pivot */\n      dup2\n        /* \"contracts/basics/QuickSort.sol\":521:544  pivot < arr[uint256(j)] */\n      lt\n        /* \"contracts/basics/QuickSort.sol\":514:549  while (pivot < arr[uint256(j)]) j-- */\n      iszero\n      tag_22\n      jumpi\n        /* \"contracts/basics/QuickSort.sol\":546:549  j-- */\n      dup2\n      dup1\n      0x1\n      swap1\n      sub\n      swap3\n      pop\n      pop\n        /* \"contracts/basics/QuickSort.sol\":514:549  while (pivot < arr[uint256(j)]) j-- */\n      jump(tag_21)\n    tag_22:\n        /* \"contracts/basics/QuickSort.sol\":572:573  j */\n      dup2\n        /* \"contracts/basics/QuickSort.sol\":567:568  i */\n      dup4\n        /* \"contracts/basics/QuickSort.sol\":567:573  i <= j */\n      sgt\n      iszero\n        /* \"contracts/basics/QuickSort.sol\":563:721  if (i <= j) {... */\n      iszero\n      tag_24\n      jumpi\n        /* \"contracts/basics/QuickSort.sol\":631:634  arr */\n      dup6\n        /* \"contracts/basics/QuickSort.sol\":643:644  j */\n      dup3\n        /* \"contracts/basics/QuickSort.sol\":631:646  arr[uint256(j)] */\n      dup2\n      mload\n      dup2\n      lt\n      iszero\n      iszero\n      tag_25\n      jumpi\n      invalid\n    tag_25:\n      swap1\n      0x20\n      add\n      swap1\n      0x20\n      mul\n      add\n      mload\n        /* \"contracts/basics/QuickSort.sol\":648:651  arr */\n      dup7\n        /* \"contracts/basics/QuickSort.sol\":660:661  i */\n      dup5\n        /* \"contracts/basics/QuickSort.sol\":648:663  arr[uint256(i)] */\n      dup2\n      mload\n      dup2\n      lt\n      iszero\n      iszero\n      tag_26\n      jumpi\n      invalid\n    tag_26:\n      swap1\n      0x20\n      add\n      swap1\n      0x20\n      mul\n      add\n      mload\n        /* \"contracts/basics/QuickSort.sol\":594:597  arr */\n      dup8\n        /* \"contracts/basics/QuickSort.sol\":606:607  i */\n      dup6\n        /* \"contracts/basics/QuickSort.sol\":594:609  arr[uint256(i)] */\n      dup2\n      mload\n      dup2\n      lt\n      iszero\n      iszero\n      tag_27\n      jumpi\n      invalid\n    tag_27:\n      swap1\n      0x20\n      add\n      swap1\n      0x20\n      mul\n      add\n        /* \"contracts/basics/QuickSort.sol\":611:614  arr */\n      dup9\n        /* \"contracts/basics/QuickSort.sol\":623:624  j */\n      dup6\n        /* \"contracts/basics/QuickSort.sol\":611:626  arr[uint256(j)] */\n      dup2\n      mload\n      dup2\n      lt\n      iszero\n      iszero\n      tag_28\n      jumpi\n      invalid\n    tag_28:\n      swap1\n      0x20\n      add\n      swap1\n      0x20\n      mul\n      add\n        /* \"contracts/basics/QuickSort.sol\":593:664  (arr[uint256(i)], arr[uint256(j)]) = (arr[uint256(j)], arr[uint256(i)]) */\n      dup3\n      dup2\n      mstore\n      pop\n      dup3\n      dup2\n      mstore\n      pop\n      pop\n      pop\n        /* \"contracts/basics/QuickSort.sol\":682:685  i++ */\n      dup3\n      dup1\n      0x1\n      add\n      swap4\n      pop\n      pop\n        /* \"contracts/basics/QuickSort.sol\":703:706  j-- */\n      dup2\n      dup1\n      0x1\n      swap1\n      sub\n      swap3\n      pop\n      pop\n        /* \"contracts/basics/QuickSort.sol\":563:721  if (i <= j) {... */\n    tag_24:\n        /* \"contracts/basics/QuickSort.sol\":436:731  while (i <= j) {... */\n      jump(tag_16)\n    tag_17:\n        /* \"contracts/basics/QuickSort.sol\":751:752  j */\n      dup2\n        /* \"contracts/basics/QuickSort.sol\":744:748  left */\n      dup6\n        /* \"contracts/basics/QuickSort.sol\":744:752  left < j */\n      slt\n        /* \"contracts/basics/QuickSort.sol\":740:789  if (left < j)... */\n      iszero\n      tag_29\n      jumpi\n        /* \"contracts/basics/QuickSort.sol\":766:789  quickSort(arr, left, j) */\n      tag_30\n        /* \"contracts/basics/QuickSort.sol\":776:779  arr */\n      dup7\n        /* \"contracts/basics/QuickSort.sol\":781:785  left */\n      dup7\n        /* \"contracts/basics/QuickSort.sol\":787:788  j */\n      dup5\n        /* \"contracts/basics/QuickSort.sol\":766:775  quickSort */\n      tag_11\n        /* \"contracts/basics/QuickSort.sol\":766:789  quickSort(arr, left, j) */\n      jump\t// in\n    tag_30:\n        /* \"contracts/basics/QuickSort.sol\":740:789  if (left < j)... */\n    tag_29:\n        /* \"contracts/basics/QuickSort.sol\":807:812  right */\n      dup4\n        /* \"contracts/basics/QuickSort.sol\":803:804  i */\n      dup4\n        /* \"contracts/basics/QuickSort.sol\":803:812  i < right */\n      slt\n        /* \"contracts/basics/QuickSort.sol\":799:850  if (i < right)... */\n      iszero\n      tag_31\n      jumpi\n        /* \"contracts/basics/QuickSort.sol\":826:850  quickSort(arr, i, right) */\n      tag_32\n        /* \"contracts/basics/QuickSort.sol\":836:839  arr */\n      dup7\n        /* \"contracts/basics/QuickSort.sol\":841:842  i */\n      dup5\n        /* \"contracts/basics/QuickSort.sol\":844:849  right */\n      dup7\n        /* \"contracts/basics/QuickSort.sol\":826:835  quickSort */\n      tag_11\n        /* \"contracts/basics/QuickSort.sol\":826:850  quickSort(arr, i, right) */\n      jump\t// in\n    tag_32:\n        /* \"contracts/basics/QuickSort.sol\":799:850  if (i < right)... */\n    tag_31:\n        /* \"contracts/basics/QuickSort.sol\":220:857  function quickSort(uint256[] memory arr, int left, int right) internal {... */\n    tag_12:\n      pop\n      pop\n      pop\n      pop\n      pop\n      pop\n      jump\t// out\n\n    auxdata: 0xa165627a7a72305820c1801a1b383571ea5087f4321b790ad26815055dfb64182a7fd72f2a248708410029\n}\n",
				"bytecode": {
					"linkReferences": {},
					"object": "608060405234801561001057600080fd5b506102a7806100206000396000f300608060405260043610610041576000357c0100000000000000000000000000000000000000000000000000000000900463ffffffff1680639ec8b02614610046575b600080fd5b34801561005257600080fd5b506100aa60048036038101908080359060200190820180359060200190808060200260200160405190810160405280939291908181526020018383602002808284378201915050505050509192919290505050610101565b6040518080602001828103825283818151815260200191508051906020019060200280838360005b838110156100ed5780820151818401526020810190506100d2565b505050509050019250505060405180910390f35b6060610113826000600185510361011b565b819050919050565b60008060008492508391508183141561013357610273565b85600286860381151561014257fe5b05860181518110151561015157fe5b9060200190602002015190505b818313151561024a575b80868481518110151561017757fe5b906020019060200201511015610194578280600101935050610168565b5b85828151811015156101a357fe5b906020019060200201518110156101c257818060019003925050610195565b81831315156102455785828151811015156101d957fe5b9060200190602002015186848151811015156101f157fe5b90602001906020020151878581518110151561020957fe5b906020019060200201888581518110151561022057fe5b9060200190602002018281525082815250505082806001019350508180600190039250505b61015e565b8185121561025e5761025d86868461011b565b5b838312156102725761027186848661011b565b5b5b5050505050505600a165627a7a72305820c1801a1b383571ea5087f4321b790ad26815055dfb64182a7fd72f2a248708410029",
					"opcodes": "PUSH1 0x80 PUSH1 0x40 MSTORE CALLVALUE DUP1 ISZERO PUSH2 0x10 JUMPI PUSH1 0x0 DUP1 REVERT JUMPDEST POP PUSH2 0x2A7 DUP1 PUSH2 0x20 PUSH1 0x0 CODECOPY PUSH1 0x0 RETURN STOP PUSH1 0x80 PUSH1 0x40 MSTORE PUSH1 0x4 CALLDATASIZE LT PUSH2 0x41 JUMPI PUSH1 0x0 CALLDATALOAD PUSH29 0x100000000000000000000000000000000000000000000000000000000 SWAP1 DIV PUSH4 0xFFFFFFFF AND DUP1 PUSH4 0x9EC8B026 EQ PUSH2 0x46 JUMPI JUMPDEST PUSH1 0x0 DUP1 REVERT JUMPDEST CALLVALUE DUP1 ISZERO PUSH2 0x52 JUMPI PUSH1 0x0 DUP1 REVERT JUMPDEST POP PUSH2 0xAA PUSH1 0x4 DUP1 CALLDATASIZE SUB DUP2 ADD SWAP1 DUP1 DUP1 CALLDATALOAD SWAP1 PUSH1 0x20 ADD SWAP1 DUP3 ADD DUP1 CALLDATALOAD SWAP1 PUSH1 0x20 ADD SWAP1 DUP1 DUP1 PUSH1 0x20 MUL PUSH1 0x20 ADD PUSH1 0x40 MLOAD SWAP1 DUP2 ADD PUSH1 0x40 MSTORE DUP1 SWAP4 SWAP3 SWAP2 SWAP1 DUP2 DUP2 MSTORE PUSH1 0x20 ADD DUP4 DUP4 PUSH1 0x20 MUL DUP1 DUP3 DUP5 CALLDATACOPY DUP3 ADD SWAP2 POP POP POP POP POP POP SWAP2 SWAP3 SWAP2 SWAP3 SWAP1 POP POP POP PUSH2 0x101 JUMP JUMPDEST PUSH1 0x40 MLOAD DUP1 DUP1 PUSH1 0x20 ADD DUP3 DUP2 SUB DUP3 MSTORE DUP4 DUP2 DUP2 MLOAD DUP2 MSTORE PUSH1 0x20 ADD SWAP2 POP DUP1 MLOAD SWAP1 PUSH1 0x20 ADD SWAP1 PUSH1 0x20 MUL DUP1 DUP4 DUP4 PUSH1 0x0 JUMPDEST DUP4 DUP2 LT ISZERO PUSH2 0xED JUMPI DUP1 DUP3 ADD MLOAD DUP2 DUP5 ADD MSTORE PUSH1 0x20 DUP2 ADD SWAP1 POP PUSH2 0xD2 JUMP JUMPDEST POP POP POP POP SWAP1 POP ADD SWAP3 POP POP POP PUSH1 0x40 MLOAD DUP1 SWAP2 SUB SWAP1 RETURN JUMPDEST PUSH1 0x60 PUSH2 0x113 DUP3 PUSH1 0x0 PUSH1 0x1 DUP6 MLOAD SUB PUSH2 0x11B JUMP JUMPDEST DUP2 SWAP1 POP SWAP2 SWAP1 POP JUMP JUMPDEST PUSH1 0x0 DUP1 PUSH1 0x0 DUP5 SWAP3 POP DUP4 SWAP2 POP DUP2 DUP4 EQ ISZERO PUSH2 0x133 JUMPI PUSH2 0x273 JUMP JUMPDEST DUP6 PUSH1 0x2 DUP7 DUP7 SUB DUP2 ISZERO ISZERO PUSH2 0x142 JUMPI INVALID JUMPDEST SDIV DUP7 ADD DUP2 MLOAD DUP2 LT ISZERO ISZERO PUSH2 0x151 JUMPI INVALID JUMPDEST SWAP1 PUSH1 0x20 ADD SWAP1 PUSH1 0x20 MUL ADD MLOAD SWAP1 POP JUMPDEST DUP2 DUP4 SGT ISZERO ISZERO PUSH2 0x24A JUMPI JUMPDEST DUP1 DUP7 DUP5 DUP2 MLOAD DUP2 LT ISZERO ISZERO PUSH2 0x177 JUMPI INVALID JUMPDEST SWAP1 PUSH1 0x20 ADD SWAP1 PUSH1 0x20 MUL ADD MLOAD LT ISZERO PUSH2 0x194 JUMPI DUP3 DUP1 PUSH1 0x1 ADD SWAP4 POP POP PUSH2 0x168 JUMP JUMPDEST JUMPDEST DUP6 DUP3 DUP2 MLOAD DUP2 LT ISZERO ISZERO PUSH2 0x1A3 JUMPI INVALID JUMPDEST SWAP1 PUSH1 0x20 ADD SWAP1 PUSH1 0x20 MUL ADD MLOAD DUP2 LT ISZERO PUSH2 0x1C2 JUMPI DUP2 DUP1 PUSH1 0x1 SWAP1 SUB SWAP3 POP POP PUSH2 0x195 JUMP JUMPDEST DUP2 DUP4 SGT ISZERO ISZERO PUSH2 0x245 JUMPI DUP6 DUP3 DUP2 MLOAD DUP2 LT ISZERO ISZERO PUSH2 0x1D9 JUMPI INVALID JUMPDEST SWAP1 PUSH1 0x20 ADD SWAP1 PUSH1 0x20 MUL ADD MLOAD DUP7 DUP5 DUP2 MLOAD DUP2 LT ISZERO ISZERO PUSH2 0x1F1 JUMPI INVALID JUMPDEST SWAP1 PUSH1 0x20 ADD SWAP1 PUSH1 0x20 MUL ADD MLOAD DUP8 DUP6 DUP2 MLOAD DUP2 LT ISZERO ISZERO PUSH2 0x209 JUMPI INVALID JUMPDEST SWAP1 PUSH1 0x20 ADD SWAP1 PUSH1 0x20 MUL ADD DUP9 DUP6 DUP2 MLOAD DUP2 LT ISZERO ISZERO PUSH2 0x220 JUMPI INVALID JUMPDEST SWAP1 PUSH1 0x20 ADD SWAP1 PUSH1 0x20 MUL ADD DUP3 DUP2 MSTORE POP DUP3 DUP2 MSTORE POP POP POP DUP3 DUP1 PUSH1 0x1 ADD SWAP4 POP POP DUP2 DUP1 PUSH1 0x1 SWAP1 SUB SWAP3 POP POP JUMPDEST PUSH2 0x15E JUMP JUMPDEST DUP2 DUP6 SLT ISZERO PUSH2 0x25E JUMPI PUSH2 0x25D DUP7 DUP7 DUP5 PUSH2 0x11B JUMP JUMPDEST JUMPDEST DUP4 DUP4 SLT ISZERO PUSH2 0x272 JUMPI PUSH2 0x271 DUP7 DUP5 DUP7 PUSH2 0x11B JUMP JUMPDEST JUMPDEST JUMPDEST POP POP POP POP POP POP JUMP STOP LOG1 PUSH6 0x627A7A723058 KECCAK256 0xc1 DUP1 BYTE SHL CODESIZE CALLDATALOAD PUSH18 0xEA5087F4321B790AD26815055DFB64182A7F 0xd7 0x2f 0x2a 0x24 DUP8 ADDMOD COINBASE STOP 0x29 "
				},
				"gasEstimates": {
					"creation": {
						"codeDepositCost": "135800",
						"executionCost": "183",
						"totalCost": "135983"
					},
					"external": {
						"sort(uint256[])": "infinite"
					},
					"internal": {
						"quickSort(uint256[] memory,int256,int256)": "infinite"
					}
				},
				"methodIdentifiers": {
					"sort(uint256[])": "9ec8b026"
				}
			},
			"userdoc": {
				"methods": {}
			}
		}
	}
}