{
	"contracts/basics/QuickSort.sol": {
		"QuickSort": {
			"abi": [
				{
					"constant": false,
					"inputs": [
						{
							"name": "data",
							"type": "uint256[]"
						}
					],
					"name": "sort",
					"outputs": [
						{
							"name": "",
							"type": "uint256[]"
						}
					],
					"payable": false,
					"stateMutability": "nonpayable",
					"type": "function"
				}
			],
			"devdoc": {
				"methods": {}
			},
			"evm": {
				"assembly": "    /* \"contracts/basics/QuickSort.sol\":27:809  contract QuickSort {... */\n  mstore(0x40, 0x80)\n  callvalue\n    /* \"--CODEGEN--\":8:17   */\n  dup1\n    /* \"--CODEGEN--\":5:7   */\n  iszero\n  tag_1\n  jumpi\n    /* \"--CODEGEN--\":30:31   */\n  0x0\n    /* \"--CODEGEN--\":27:28   */\n  dup1\n    /* \"--CODEGEN--\":20:32   */\n  revert\n    /* \"--CODEGEN--\":5:7   */\ntag_1:\n    /* \"contracts/basics/QuickSort.sol\":27:809  contract QuickSort {... */\n  pop\n  dataSize(sub_0)\n  dup1\n  dataOffset(sub_0)\n  0x0\n  codecopy\n  0x0\n  return\nstop\n\nsub_0: assembly {\n        /* \"contracts/basics/QuickSort.sol\":27:809  contract QuickSort {... */\n      mstore(0x40, 0x80)\n      jumpi(tag_1, lt(calldatasize, 0x4))\n      calldataload(0x0)\n      0x100000000000000000000000000000000000000000000000000000000\n      swap1\n      div\n      0xffffffff\n      and\n      dup1\n      0x9ec8b026\n      eq\n      tag_2\n      jumpi\n    tag_1:\n      0x0\n      dup1\n      revert\n        /* \"contracts/basics/QuickSort.sol\":57:188  function sort(uint[] data) public returns(uint[]) {... */\n    tag_2:\n      callvalue\n        /* \"--CODEGEN--\":8:17   */\n      dup1\n        /* \"--CODEGEN--\":5:7   */\n      iszero\n      tag_3\n      jumpi\n        /* \"--CODEGEN--\":30:31   */\n      0x0\n        /* \"--CODEGEN--\":27:28   */\n      dup1\n        /* \"--CODEGEN--\":20:32   */\n      revert\n        /* \"--CODEGEN--\":5:7   */\n    tag_3:\n        /* \"contracts/basics/QuickSort.sol\":57:188  function sort(uint[] data) public returns(uint[]) {... */\n      pop\n      tag_4\n      0x4\n      dup1\n      calldatasize\n      sub\n      dup2\n      add\n      swap1\n      dup1\n      dup1\n      calldataload\n      swap1\n      0x20\n      add\n      swap1\n      dup3\n      add\n      dup1\n      calldataload\n      swap1\n      0x20\n      add\n      swap1\n      dup1\n      dup1\n      0x20\n      mul\n      0x20\n      add\n      mload(0x40)\n      swap1\n      dup2\n      add\n      0x40\n      mstore\n      dup1\n      swap4\n      swap3\n      swap2\n      swap1\n      dup2\n      dup2\n      mstore\n      0x20\n      add\n      dup4\n      dup4\n      0x20\n      mul\n      dup1\n      dup3\n      dup5\n      calldatacopy\n      dup3\n      add\n      swap2\n      pop\n      pop\n      pop\n      pop\n      pop\n      pop\n      swap2\n      swap3\n      swap2\n      swap3\n      swap1\n      pop\n      pop\n      pop\n      jump(tag_5)\n    tag_4:\n      mload(0x40)\n      dup1\n      dup1\n      0x20\n      add\n      dup3\n      dup2\n      sub\n      dup3\n      mstore\n      dup4\n      dup2\n      dup2\n      mload\n      dup2\n      mstore\n      0x20\n      add\n      swap2\n      pop\n      dup1\n      mload\n      swap1\n      0x20\n      add\n      swap1\n      0x20\n      mul\n      dup1\n      dup4\n      dup4\n        /* \"--CODEGEN--\":23:24   */\n      0x0\n        /* \"--CODEGEN--\":8:108   */\n    tag_6:\n        /* \"--CODEGEN--\":33:36   */\n      dup4\n        /* \"--CODEGEN--\":30:31   */\n      dup2\n        /* \"--CODEGEN--\":27:37   */\n      lt\n        /* \"--CODEGEN--\":8:108   */\n      iszero\n      tag_7\n      jumpi\n        /* \"--CODEGEN--\":99:100   */\n      dup1\n        /* \"--CODEGEN--\":94:97   */\n      dup3\n        /* \"--CODEGEN--\":90:101   */\n      add\n        /* \"--CODEGEN--\":84:102   */\n      mload\n        /* \"--CODEGEN--\":80:81   */\n      dup2\n        /* \"--CODEGEN--\":75:78   */\n      dup5\n        /* \"--CODEGEN--\":71:82   */\n      add\n        /* \"--CODEGEN--\":64:103   */\n      mstore\n        /* \"--CODEGEN--\":52:54   */\n      0x20\n        /* \"--CODEGEN--\":49:50   */\n      dup2\n        /* \"--CODEGEN--\":45:55   */\n      add\n        /* \"--CODEGEN--\":40:55   */\n      swap1\n      pop\n        /* \"--CODEGEN--\":8:108   */\n      jump(tag_6)\n    tag_7:\n        /* \"--CODEGEN--\":12:26   */\n      pop\n        /* \"contracts/basics/QuickSort.sol\":57:188  function sort(uint[] data) public returns(uint[]) {... */\n      pop\n      pop\n      pop\n      swap1\n      pop\n      add\n      swap3\n      pop\n      pop\n      pop\n      mload(0x40)\n      dup1\n      swap2\n      sub\n      swap1\n      return\n    tag_5:\n        /* \"contracts/basics/QuickSort.sol\":99:105  uint[] */\n      0x60\n        /* \"contracts/basics/QuickSort.sol\":116:161  quickSort(data, int(0), int(data.length - 1)) */\n      tag_10\n        /* \"contracts/basics/QuickSort.sol\":126:130  data */\n      dup3\n        /* \"contracts/basics/QuickSort.sol\":136:137  0 */\n      0x0\n        /* \"contracts/basics/QuickSort.sol\":158:159  1 */\n      0x1\n        /* \"contracts/basics/QuickSort.sol\":144:148  data */\n      dup6\n        /* \"contracts/basics/QuickSort.sol\":144:155  data.length */\n      mload\n        /* \"contracts/basics/QuickSort.sol\":144:159  data.length - 1 */\n      sub\n        /* \"contracts/basics/QuickSort.sol\":116:125  quickSort */\n      tag_11\n        /* \"contracts/basics/QuickSort.sol\":116:161  quickSort(data, int(0), int(data.length - 1)) */\n      jump\t// in\n    tag_10:\n        /* \"contracts/basics/QuickSort.sol\":177:181  data */\n      dup2\n        /* \"contracts/basics/QuickSort.sol\":170:181  return data */\n      swap1\n      pop\n        /* \"contracts/basics/QuickSort.sol\":57:188  function sort(uint[] data) public returns(uint[]) {... */\n      swap2\n      swap1\n      pop\n      jump\t// out\n        /* \"contracts/basics/QuickSort.sol\":198:807  function quickSort(uint[] memory arr, int left, int right) internal{... */\n    tag_11:\n        /* \"contracts/basics/QuickSort.sol\":275:280  int i */\n      0x0\n        /* \"contracts/basics/QuickSort.sol\":297:302  int j */\n      dup1\n        /* \"contracts/basics/QuickSort.sol\":345:355  uint pivot */\n      0x0\n        /* \"contracts/basics/QuickSort.sol\":283:287  left */\n      dup5\n        /* \"contracts/basics/QuickSort.sol\":275:287  int i = left */\n      swap3\n      pop\n        /* \"contracts/basics/QuickSort.sol\":305:310  right */\n      dup4\n        /* \"contracts/basics/QuickSort.sol\":297:310  int j = right */\n      swap2\n      pop\n        /* \"contracts/basics/QuickSort.sol\":326:327  j */\n      dup2\n        /* \"contracts/basics/QuickSort.sol\":323:324  i */\n      dup4\n        /* \"contracts/basics/QuickSort.sol\":323:327  i==j */\n      eq\n        /* \"contracts/basics/QuickSort.sol\":320:336  if(i==j) return; */\n      iszero\n      tag_13\n      jumpi\n        /* \"contracts/basics/QuickSort.sol\":329:336  return; */\n      jump(tag_12)\n        /* \"contracts/basics/QuickSort.sol\":320:336  if(i==j) return; */\n    tag_13:\n        /* \"contracts/basics/QuickSort.sol\":358:361  arr */\n      dup6\n        /* \"contracts/basics/QuickSort.sol\":391:392  2 */\n      0x2\n        /* \"contracts/basics/QuickSort.sol\":383:387  left */\n      dup7\n        /* \"contracts/basics/QuickSort.sol\":375:380  right */\n      dup7\n        /* \"contracts/basics/QuickSort.sol\":375:387  right - left */\n      sub\n        /* \"contracts/basics/QuickSort.sol\":374:392  (right - left) / 2 */\n      dup2\n      iszero\n      iszero\n      tag_14\n      jumpi\n      invalid\n    tag_14:\n      sdiv\n        /* \"contracts/basics/QuickSort.sol\":367:371  left */\n      dup7\n        /* \"contracts/basics/QuickSort.sol\":367:392  left + (right - left) / 2 */\n      add\n        /* \"contracts/basics/QuickSort.sol\":358:394  arr[uint(left + (right - left) / 2)] */\n      dup2\n      mload\n      dup2\n      lt\n      iszero\n      iszero\n      tag_15\n      jumpi\n      invalid\n    tag_15:\n      swap1\n      0x20\n      add\n      swap1\n      0x20\n      mul\n      add\n      mload\n        /* \"contracts/basics/QuickSort.sol\":345:394  uint pivot = arr[uint(left + (right - left) / 2)] */\n      swap1\n      pop\n        /* \"contracts/basics/QuickSort.sol\":404:681  while (i <= j) {... */\n    tag_16:\n        /* \"contracts/basics/QuickSort.sol\":416:417  j */\n      dup2\n        /* \"contracts/basics/QuickSort.sol\":411:412  i */\n      dup4\n        /* \"contracts/basics/QuickSort.sol\":411:417  i <= j */\n      sgt\n      iszero\n        /* \"contracts/basics/QuickSort.sol\":404:681  while (i <= j) {... */\n      iszero\n      tag_17\n      jumpi\n        /* \"contracts/basics/QuickSort.sol\":433:465  while (arr[uint(i)] < pivot) i++ */\n    tag_18:\n        /* \"contracts/basics/QuickSort.sol\":455:460  pivot */\n      dup1\n        /* \"contracts/basics/QuickSort.sol\":440:443  arr */\n      dup7\n        /* \"contracts/basics/QuickSort.sol\":449:450  i */\n      dup5\n        /* \"contracts/basics/QuickSort.sol\":440:452  arr[uint(i)] */\n      dup2\n      mload\n      dup2\n      lt\n      iszero\n      iszero\n      tag_20\n      jumpi\n      invalid\n    tag_20:\n      swap1\n      0x20\n      add\n      swap1\n      0x20\n      mul\n      add\n      mload\n        /* \"contracts/basics/QuickSort.sol\":440:460  arr[uint(i)] < pivot */\n      lt\n        /* \"contracts/basics/QuickSort.sol\":433:465  while (arr[uint(i)] < pivot) i++ */\n      iszero\n      tag_19\n      jumpi\n        /* \"contracts/basics/QuickSort.sol\":462:465  i++ */\n      dup3\n      dup1\n      0x1\n      add\n      swap4\n      pop\n      pop\n        /* \"contracts/basics/QuickSort.sol\":433:465  while (arr[uint(i)] < pivot) i++ */\n      jump(tag_18)\n    tag_19:\n        /* \"contracts/basics/QuickSort.sol\":479:511  while (pivot < arr[uint(j)]) j-- */\n    tag_21:\n        /* \"contracts/basics/QuickSort.sol\":494:497  arr */\n      dup6\n        /* \"contracts/basics/QuickSort.sol\":503:504  j */\n      dup3\n        /* \"contracts/basics/QuickSort.sol\":494:506  arr[uint(j)] */\n      dup2\n      mload\n      dup2\n      lt\n      iszero\n      iszero\n      tag_23\n      jumpi\n      invalid\n    tag_23:\n      swap1\n      0x20\n      add\n      swap1\n      0x20\n      mul\n      add\n      mload\n        /* \"contracts/basics/QuickSort.sol\":486:491  pivot */\n      dup2\n        /* \"contracts/basics/QuickSort.sol\":486:506  pivot < arr[uint(j)] */\n      lt\n        /* \"contracts/basics/QuickSort.sol\":479:511  while (pivot < arr[uint(j)]) j-- */\n      iszero\n      tag_22\n      jumpi\n        /* \"contracts/basics/QuickSort.sol\":508:511  j-- */\n      dup2\n      dup1\n      0x1\n      swap1\n      sub\n      swap3\n      pop\n      pop\n        /* \"contracts/basics/QuickSort.sol\":479:511  while (pivot < arr[uint(j)]) j-- */\n      jump(tag_21)\n    tag_22:\n        /* \"contracts/basics/QuickSort.sol\":534:535  j */\n      dup2\n        /* \"contracts/basics/QuickSort.sol\":529:530  i */\n      dup4\n        /* \"contracts/basics/QuickSort.sol\":529:535  i <= j */\n      sgt\n      iszero\n        /* \"contracts/basics/QuickSort.sol\":525:671  if (i <= j) {... */\n      iszero\n      tag_24\n      jumpi\n        /* \"contracts/basics/QuickSort.sol\":587:590  arr */\n      dup6\n        /* \"contracts/basics/QuickSort.sol\":596:597  j */\n      dup3\n        /* \"contracts/basics/QuickSort.sol\":587:599  arr[uint(j)] */\n      dup2\n      mload\n      dup2\n      lt\n      iszero\n      iszero\n      tag_25\n      jumpi\n      invalid\n    tag_25:\n      swap1\n      0x20\n      add\n      swap1\n      0x20\n      mul\n      add\n      mload\n        /* \"contracts/basics/QuickSort.sol\":601:604  arr */\n      dup7\n        /* \"contracts/basics/QuickSort.sol\":610:611  i */\n      dup5\n        /* \"contracts/basics/QuickSort.sol\":601:613  arr[uint(i)] */\n      dup2\n      mload\n      dup2\n      lt\n      iszero\n      iszero\n      tag_26\n      jumpi\n      invalid\n    tag_26:\n      swap1\n      0x20\n      add\n      swap1\n      0x20\n      mul\n      add\n      mload\n        /* \"contracts/basics/QuickSort.sol\":556:559  arr */\n      dup8\n        /* \"contracts/basics/QuickSort.sol\":565:566  i */\n      dup6\n        /* \"contracts/basics/QuickSort.sol\":556:568  arr[uint(i)] */\n      dup2\n      mload\n      dup2\n      lt\n      iszero\n      iszero\n      tag_27\n      jumpi\n      invalid\n    tag_27:\n      swap1\n      0x20\n      add\n      swap1\n      0x20\n      mul\n      add\n        /* \"contracts/basics/QuickSort.sol\":570:573  arr */\n      dup9\n        /* \"contracts/basics/QuickSort.sol\":579:580  j */\n      dup6\n        /* \"contracts/basics/QuickSort.sol\":570:582  arr[uint(j)] */\n      dup2\n      mload\n      dup2\n      lt\n      iszero\n      iszero\n      tag_28\n      jumpi\n      invalid\n    tag_28:\n      swap1\n      0x20\n      add\n      swap1\n      0x20\n      mul\n      add\n        /* \"contracts/basics/QuickSort.sol\":555:614  (arr[uint(i)], arr[uint(j)]) = (arr[uint(j)], arr[uint(i)]) */\n      dup3\n      dup2\n      mstore\n      pop\n      dup3\n      dup2\n      mstore\n      pop\n      pop\n      pop\n        /* \"contracts/basics/QuickSort.sol\":632:635  i++ */\n      dup3\n      dup1\n      0x1\n      add\n      swap4\n      pop\n      pop\n        /* \"contracts/basics/QuickSort.sol\":653:656  j-- */\n      dup2\n      dup1\n      0x1\n      swap1\n      sub\n      swap3\n      pop\n      pop\n        /* \"contracts/basics/QuickSort.sol\":525:671  if (i <= j) {... */\n    tag_24:\n        /* \"contracts/basics/QuickSort.sol\":404:681  while (i <= j) {... */\n      jump(tag_16)\n    tag_17:\n        /* \"contracts/basics/QuickSort.sol\":701:702  j */\n      dup2\n        /* \"contracts/basics/QuickSort.sol\":694:698  left */\n      dup6\n        /* \"contracts/basics/QuickSort.sol\":694:702  left < j */\n      slt\n        /* \"contracts/basics/QuickSort.sol\":690:739  if (left < j)... */\n      iszero\n      tag_29\n      jumpi\n        /* \"contracts/basics/QuickSort.sol\":716:739  quickSort(arr, left, j) */\n      tag_30\n        /* \"contracts/basics/QuickSort.sol\":726:729  arr */\n      dup7\n        /* \"contracts/basics/QuickSort.sol\":731:735  left */\n      dup7\n        /* \"contracts/basics/QuickSort.sol\":737:738  j */\n      dup5\n        /* \"contracts/basics/QuickSort.sol\":716:725  quickSort */\n      tag_11\n        /* \"contracts/basics/QuickSort.sol\":716:739  quickSort(arr, left, j) */\n      jump\t// in\n    tag_30:\n        /* \"contracts/basics/QuickSort.sol\":690:739  if (left < j)... */\n    tag_29:\n        /* \"contracts/basics/QuickSort.sol\":757:762  right */\n      dup4\n        /* \"contracts/basics/QuickSort.sol\":753:754  i */\n      dup4\n        /* \"contracts/basics/QuickSort.sol\":753:762  i < right */\n      slt\n        /* \"contracts/basics/QuickSort.sol\":749:800  if (i < right)... */\n      iszero\n      tag_31\n      jumpi\n        /* \"contracts/basics/QuickSort.sol\":776:800  quickSort(arr, i, right) */\n      tag_32\n        /* \"contracts/basics/QuickSort.sol\":786:789  arr */\n      dup7\n        /* \"contracts/basics/QuickSort.sol\":791:792  i */\n      dup5\n        /* \"contracts/basics/QuickSort.sol\":794:799  right */\n      dup7\n        /* \"contracts/basics/QuickSort.sol\":776:785  quickSort */\n      tag_11\n        /* \"contracts/basics/QuickSort.sol\":776:800  quickSort(arr, i, right) */\n      jump\t// in\n    tag_32:\n        /* \"contracts/basics/QuickSort.sol\":749:800  if (i < right)... */\n    tag_31:\n        /* \"contracts/basics/QuickSort.sol\":198:807  function quickSort(uint[] memory arr, int left, int right) internal{... */\n    tag_12:\n      pop\n      pop\n      pop\n      pop\n      pop\n      pop\n      jump\t// out\n\n    auxdata: 0xa165627a7a72305820e44ae0f8f9ecb6d9d24bc1da0e423b28f85b49db7b722bf7e29f57bb3110bf4f0029\n}\n",
				"bytecode": {
					"linkReferences": {},
					"object": "608060405234801561001057600080fd5b506102a7806100206000396000f300608060405260043610610041576000357c0100000000000000000000000000000000000000000000000000000000900463ffffffff1680639ec8b02614610046575b600080fd5b34801561005257600080fd5b506100aa60048036038101908080359060200190820180359060200190808060200260200160405190810160405280939291908181526020018383602002808284378201915050505050509192919290505050610101565b6040518080602001828103825283818151815260200191508051906020019060200280838360005b838110156100ed5780820151818401526020810190506100d2565b505050509050019250505060405180910390f35b6060610113826000600185510361011b565b819050919050565b60008060008492508391508183141561013357610273565b85600286860381151561014257fe5b05860181518110151561015157fe5b9060200190602002015190505b818313151561024a575b80868481518110151561017757fe5b906020019060200201511015610194578280600101935050610168565b5b85828151811015156101a357fe5b906020019060200201518110156101c257818060019003925050610195565b81831315156102455785828151811015156101d957fe5b9060200190602002015186848151811015156101f157fe5b90602001906020020151878581518110151561020957fe5b906020019060200201888581518110151561022057fe5b9060200190602002018281525082815250505082806001019350508180600190039250505b61015e565b8185121561025e5761025d86868461011b565b5b838312156102725761027186848661011b565b5b5b5050505050505600a165627a7a72305820e44ae0f8f9ecb6d9d24bc1da0e423b28f85b49db7b722bf7e29f57bb3110bf4f0029",
					"opcodes": "PUSH1 0x80 PUSH1 0x40 MSTORE CALLVALUE DUP1 ISZERO PUSH2 0x10 JUMPI PUSH1 0x0 DUP1 REVERT JUMPDEST POP PUSH2 0x2A7 DUP1 PUSH2 0x20 PUSH1 0x0 CODECOPY PUSH1 0x0 RETURN STOP PUSH1 0x80 PUSH1 0x40 MSTORE PUSH1 0x4 CALLDATASIZE LT PUSH2 0x41 JUMPI PUSH1 0x0 CALLDATALOAD PUSH29 0x100000000000000000000000000000000000000000000000000000000 SWAP1 DIV PUSH4 0xFFFFFFFF AND DUP1 PUSH4 0x9EC8B026 EQ PUSH2 0x46 JUMPI JUMPDEST PUSH1 0x0 DUP1 REVERT JUMPDEST CALLVALUE DUP1 ISZERO PUSH2 0x52 JUMPI PUSH1 0x0 DUP1 REVERT JUMPDEST POP PUSH2 0xAA PUSH1 0x4 DUP1 CALLDATASIZE SUB DUP2 ADD SWAP1 DUP1 DUP1 CALLDATALOAD SWAP1 PUSH1 0x20 ADD SWAP1 DUP3 ADD DUP1 CALLDATALOAD SWAP1 PUSH1 0x20 ADD SWAP1 DUP1 DUP1 PUSH1 0x20 MUL PUSH1 0x20 ADD PUSH1 0x40 MLOAD SWAP1 DUP2 ADD PUSH1 0x40 MSTORE DUP1 SWAP4 SWAP3 SWAP2 SWAP1 DUP2 DUP2 MSTORE PUSH1 0x20 ADD DUP4 DUP4 PUSH1 0x20 MUL DUP1 DUP3 DUP5 CALLDATACOPY DUP3 ADD SWAP2 POP POP POP POP POP POP SWAP2 SWAP3 SWAP2 SWAP3 SWAP1 POP POP POP PUSH2 0x101 JUMP JUMPDEST PUSH1 0x40 MLOAD DUP1 DUP1 PUSH1 0x20 ADD DUP3 DUP2 SUB DUP3 MSTORE DUP4 DUP2 DUP2 MLOAD DUP2 MSTORE PUSH1 0x20 ADD SWAP2 POP DUP1 MLOAD SWAP1 PUSH1 0x20 ADD SWAP1 PUSH1 0x20 MUL DUP1 DUP4 DUP4 PUSH1 0x0 JUMPDEST DUP4 DUP2 LT ISZERO PUSH2 0xED JUMPI DUP1 DUP3 ADD MLOAD DUP2 DUP5 ADD MSTORE PUSH1 0x20 DUP2 ADD SWAP1 POP PUSH2 0xD2 JUMP JUMPDEST POP POP POP POP SWAP1 POP ADD SWAP3 POP POP POP PUSH1 0x40 MLOAD DUP1 SWAP2 SUB SWAP1 RETURN JUMPDEST PUSH1 0x60 PUSH2 0x113 DUP3 PUSH1 0x0 PUSH1 0x1 DUP6 MLOAD SUB PUSH2 0x11B JUMP JUMPDEST DUP2 SWAP1 POP SWAP2 SWAP1 POP JUMP JUMPDEST PUSH1 0x0 DUP1 PUSH1 0x0 DUP5 SWAP3 POP DUP4 SWAP2 POP DUP2 DUP4 EQ ISZERO PUSH2 0x133 JUMPI PUSH2 0x273 JUMP JUMPDEST DUP6 PUSH1 0x2 DUP7 DUP7 SUB DUP2 ISZERO ISZERO PUSH2 0x142 JUMPI INVALID JUMPDEST SDIV DUP7 ADD DUP2 MLOAD DUP2 LT ISZERO ISZERO PUSH2 0x151 JUMPI INVALID JUMPDEST SWAP1 PUSH1 0x20 ADD SWAP1 PUSH1 0x20 MUL ADD MLOAD SWAP1 POP JUMPDEST DUP2 DUP4 SGT ISZERO ISZERO PUSH2 0x24A JUMPI JUMPDEST DUP1 DUP7 DUP5 DUP2 MLOAD DUP2 LT ISZERO ISZERO PUSH2 0x177 JUMPI INVALID JUMPDEST SWAP1 PUSH1 0x20 ADD SWAP1 PUSH1 0x20 MUL ADD MLOAD LT ISZERO PUSH2 0x194 JUMPI DUP3 DUP1 PUSH1 0x1 ADD SWAP4 POP POP PUSH2 0x168 JUMP JUMPDEST JUMPDEST DUP6 DUP3 DUP2 MLOAD DUP2 LT ISZERO ISZERO PUSH2 0x1A3 JUMPI INVALID JUMPDEST SWAP1 PUSH1 0x20 ADD SWAP1 PUSH1 0x20 MUL ADD MLOAD DUP2 LT ISZERO PUSH2 0x1C2 JUMPI DUP2 DUP1 PUSH1 0x1 SWAP1 SUB SWAP3 POP POP PUSH2 0x195 JUMP JUMPDEST DUP2 DUP4 SGT ISZERO ISZERO PUSH2 0x245 JUMPI DUP6 DUP3 DUP2 MLOAD DUP2 LT ISZERO ISZERO PUSH2 0x1D9 JUMPI INVALID JUMPDEST SWAP1 PUSH1 0x20 ADD SWAP1 PUSH1 0x20 MUL ADD MLOAD DUP7 DUP5 DUP2 MLOAD DUP2 LT ISZERO ISZERO PUSH2 0x1F1 JUMPI INVALID JUMPDEST SWAP1 PUSH1 0x20 ADD SWAP1 PUSH1 0x20 MUL ADD MLOAD DUP8 DUP6 DUP2 MLOAD DUP2 LT ISZERO ISZERO PUSH2 0x209 JUMPI INVALID JUMPDEST SWAP1 PUSH1 0x20 ADD SWAP1 PUSH1 0x20 MUL ADD DUP9 DUP6 DUP2 MLOAD DUP2 LT ISZERO ISZERO PUSH2 0x220 JUMPI INVALID JUMPDEST SWAP1 PUSH1 0x20 ADD SWAP1 PUSH1 0x20 MUL ADD DUP3 DUP2 MSTORE POP DUP3 DUP2 MSTORE POP POP POP DUP3 DUP1 PUSH1 0x1 ADD SWAP4 POP POP DUP2 DUP1 PUSH1 0x1 SWAP1 SUB SWAP3 POP POP JUMPDEST PUSH2 0x15E JUMP JUMPDEST DUP2 DUP6 SLT ISZERO PUSH2 0x25E JUMPI PUSH2 0x25D DUP7 DUP7 DUP5 PUSH2 0x11B JUMP JUMPDEST JUMPDEST DUP4 DUP4 SLT ISZERO PUSH2 0x272 JUMPI PUSH2 0x271 DUP7 DUP5 DUP7 PUSH2 0x11B JUMP JUMPDEST JUMPDEST JUMPDEST POP POP POP POP POP POP JUMP STOP LOG1 PUSH6 0x627A7A723058 KECCAK256 0xe4 0x4a 0xe0 0xf8 0xf9 0xec 0xb6 0xd9 0xd2 0x4b 0xc1 0xda 0xe TIMESTAMP EXTCODESIZE 0x28 0xf8 JUMPDEST 0x49 0xdb PUSH28 0x722BF7E29F57BB3110BF4F0029000000000000000000000000000000 "
				},
				"gasEstimates": {
					"creation": {
						"codeDepositCost": "135800",
						"executionCost": "183",
						"totalCost": "135983"
					},
					"external": {
						"sort(uint256[])": "infinite"
					},
					"internal": {
						"quickSort(uint256[] memory,int256,int256)": "infinite"
					}
				},
				"methodIdentifiers": {
					"sort(uint256[])": "9ec8b026"
				}
			},
			"userdoc": {
				"methods": {}
			}
		}
	}
}