{
	"TestStrings.sol": {
		"TestStrings": {
			"abi": [
				{
					"inputs": [],
					"name": "uintStringConcat",
					"outputs": [
						{
							"internalType": "string",
							"name": "",
							"type": "string"
						}
					],
					"stateMutability": "view",
					"type": "function"
				}
			],
			"devdoc": {
				"kind": "dev",
				"methods": {},
				"version": 1
			},
			"evm": {
				"assembly": "    /* \"TestStrings.sol\":117:304  contract TestStrings{... */\n  mstore(0x40, 0x80)\n  callvalue\n  dup1\n  iszero\n  tag_1\n  jumpi\n  0x00\n  dup1\n  revert\ntag_1:\n  pop\n  dataSize(sub_0)\n  dup1\n  dataOffset(sub_0)\n  0x00\n  codecopy\n  0x00\n  return\nstop\n\nsub_0: assembly {\n        /* \"TestStrings.sol\":117:304  contract TestStrings{... */\n      mstore(0x40, 0x80)\n      callvalue\n      dup1\n      iszero\n      tag_1\n      jumpi\n      0x00\n      dup1\n      revert\n    tag_1:\n      pop\n      jumpi(tag_2, lt(calldatasize, 0x04))\n      shr(0xe0, calldataload(0x00))\n      dup1\n      0xc607be8a\n      eq\n      tag_3\n      jumpi\n    tag_2:\n      0x00\n      dup1\n      revert\n        /* \"TestStrings.sol\":144:302  function uintStringConcat() public view returns (string memory) {... */\n    tag_3:\n      tag_4\n      tag_5\n      jump\t// in\n    tag_4:\n      mload(0x40)\n      tag_6\n      swap2\n      swap1\n      tag_7\n      jump\t// in\n    tag_6:\n      mload(0x40)\n      dup1\n      swap2\n      sub\n      swap1\n      return\n    tag_5:\n        /* \"TestStrings.sol\":193:206  string memory */\n      0x60\n        /* \"TestStrings.sol\":265:293  Strings.toString(uint256(5)) */\n      tag_9\n        /* \"TestStrings.sol\":290:291  5 */\n      0x05\n        /* \"TestStrings.sol\":265:281  Strings.toString */\n      tag_10\n        /* \"TestStrings.sol\":265:293  Strings.toString(uint256(5)) */\n      jump\t// in\n    tag_9:\n        /* \"TestStrings.sol\":232:294  abi.encodePacked(\"some string \", Strings.toString(uint256(5))) */\n      add(0x20, mload(0x40))\n      tag_11\n      swap2\n      swap1\n      tag_12\n      jump\t// in\n    tag_11:\n      mload(0x40)\n      0x20\n      dup2\n      dup4\n      sub\n      sub\n      dup2\n      mstore\n      swap1\n      0x40\n      mstore\n        /* \"TestStrings.sol\":218:295  return string(abi.encodePacked(\"some string \", Strings.toString(uint256(5)))) */\n      swap1\n      pop\n        /* \"TestStrings.sol\":144:302  function uintStringConcat() public view returns (string memory) {... */\n      swap1\n      jump\t// out\n        /* \"@openzeppelin/contracts/utils/Strings.sol\":328:1031  function toString(uint256 value) internal pure returns (string memory) {... */\n    tag_10:\n        /* \"@openzeppelin/contracts/utils/Strings.sol\":384:397  string memory */\n      0x60\n        /* \"@openzeppelin/contracts/utils/Strings.sol\":610:611  0 */\n      0x00\n        /* \"@openzeppelin/contracts/utils/Strings.sol\":601:606  value */\n      dup3\n        /* \"@openzeppelin/contracts/utils/Strings.sol\":601:611  value == 0 */\n      sub\n        /* \"@openzeppelin/contracts/utils/Strings.sol\":597:648  if (value == 0) {... */\n      tag_14\n      jumpi\n        /* \"@openzeppelin/contracts/utils/Strings.sol\":627:637  return \"0\" */\n      mload(0x40)\n      dup1\n      0x40\n      add\n      0x40\n      mstore\n      dup1\n      0x01\n      dup2\n      mstore\n      0x20\n      add\n      0x3000000000000000000000000000000000000000000000000000000000000000\n      dup2\n      mstore\n      pop\n      swap1\n      pop\n      jump(tag_13)\n        /* \"@openzeppelin/contracts/utils/Strings.sol\":597:648  if (value == 0) {... */\n    tag_14:\n        /* \"@openzeppelin/contracts/utils/Strings.sol\":657:669  uint256 temp */\n      0x00\n        /* \"@openzeppelin/contracts/utils/Strings.sol\":672:677  value */\n      dup3\n        /* \"@openzeppelin/contracts/utils/Strings.sol\":657:677  uint256 temp = value */\n      swap1\n      pop\n        /* \"@openzeppelin/contracts/utils/Strings.sol\":687:701  uint256 digits */\n      0x00\n        /* \"@openzeppelin/contracts/utils/Strings.sol\":711:786  while (temp != 0) {... */\n    tag_15:\n        /* \"@openzeppelin/contracts/utils/Strings.sol\":726:727  0 */\n      0x00\n        /* \"@openzeppelin/contracts/utils/Strings.sol\":718:722  temp */\n      dup3\n        /* \"@openzeppelin/contracts/utils/Strings.sol\":718:727  temp != 0 */\n      eq\n        /* \"@openzeppelin/contracts/utils/Strings.sol\":711:786  while (temp != 0) {... */\n      tag_16\n      jumpi\n        /* \"@openzeppelin/contracts/utils/Strings.sol\":743:751  digits++ */\n      dup1\n      dup1\n      tag_17\n      swap1\n      tag_18\n      jump\t// in\n    tag_17:\n      swap2\n      pop\n      pop\n        /* \"@openzeppelin/contracts/utils/Strings.sol\":773:775  10 */\n      0x0a\n        /* \"@openzeppelin/contracts/utils/Strings.sol\":765:775  temp /= 10 */\n      dup3\n      tag_19\n      swap2\n      swap1\n      tag_20\n      jump\t// in\n    tag_19:\n      swap2\n      pop\n        /* \"@openzeppelin/contracts/utils/Strings.sol\":711:786  while (temp != 0) {... */\n      jump(tag_15)\n    tag_16:\n        /* \"@openzeppelin/contracts/utils/Strings.sol\":795:814  bytes memory buffer */\n      0x00\n        /* \"@openzeppelin/contracts/utils/Strings.sol\":827:833  digits */\n      dup2\n        /* \"@openzeppelin/contracts/utils/Strings.sol\":817:834  new bytes(digits) */\n      0xffffffffffffffff\n      dup2\n      gt\n      iszero\n      tag_21\n      jumpi\n      tag_22\n      tag_23\n      jump\t// in\n    tag_22:\n    tag_21:\n      mload(0x40)\n      swap1\n      dup1\n      dup3\n      mstore\n      dup1\n      0x1f\n      add\n      not(0x1f)\n      and\n      0x20\n      add\n      dup3\n      add\n      0x40\n      mstore\n      dup1\n      iszero\n      tag_24\n      jumpi\n      dup2\n      0x20\n      add\n      0x01\n      dup3\n      mul\n      dup1\n      calldatasize\n      dup4\n      calldatacopy\n      dup1\n      dup3\n      add\n      swap2\n      pop\n      pop\n      swap1\n      pop\n    tag_24:\n      pop\n        /* \"@openzeppelin/contracts/utils/Strings.sol\":795:834  bytes memory buffer = new bytes(digits) */\n      swap1\n      pop\n        /* \"@openzeppelin/contracts/utils/Strings.sol\":844:994  while (value != 0) {... */\n    tag_25:\n        /* \"@openzeppelin/contracts/utils/Strings.sol\":860:861  0 */\n      0x00\n        /* \"@openzeppelin/contracts/utils/Strings.sol\":851:856  value */\n      dup6\n        /* \"@openzeppelin/contracts/utils/Strings.sol\":851:861  value != 0 */\n      eq\n        /* \"@openzeppelin/contracts/utils/Strings.sol\":844:994  while (value != 0) {... */\n      tag_26\n      jumpi\n        /* \"@openzeppelin/contracts/utils/Strings.sol\":887:888  1 */\n      0x01\n        /* \"@openzeppelin/contracts/utils/Strings.sol\":877:888  digits -= 1 */\n      dup3\n      tag_27\n      swap2\n      swap1\n      tag_28\n      jump\t// in\n    tag_27:\n      swap2\n      pop\n        /* \"@openzeppelin/contracts/utils/Strings.sol\":953:955  10 */\n      0x0a\n        /* \"@openzeppelin/contracts/utils/Strings.sol\":945:950  value */\n      dup6\n        /* \"@openzeppelin/contracts/utils/Strings.sol\":945:955  value % 10 */\n      tag_29\n      swap2\n      swap1\n      tag_30\n      jump\t// in\n    tag_29:\n        /* \"@openzeppelin/contracts/utils/Strings.sol\":932:934  48 */\n      0x30\n        /* \"@openzeppelin/contracts/utils/Strings.sol\":932:956  48 + uint256(value % 10) */\n      tag_31\n      swap2\n      swap1\n      tag_32\n      jump\t// in\n    tag_31:\n        /* \"@openzeppelin/contracts/utils/Strings.sol\":919:958  bytes1(uint8(48 + uint256(value % 10))) */\n      0xf8\n      shl\n        /* \"@openzeppelin/contracts/utils/Strings.sol\":902:908  buffer */\n      dup2\n        /* \"@openzeppelin/contracts/utils/Strings.sol\":909:915  digits */\n      dup4\n        /* \"@openzeppelin/contracts/utils/Strings.sol\":902:916  buffer[digits] */\n      dup2\n      mload\n      dup2\n      lt\n      tag_33\n      jumpi\n      tag_34\n      tag_35\n      jump\t// in\n    tag_34:\n    tag_33:\n      0x20\n      add\n      add\n        /* \"@openzeppelin/contracts/utils/Strings.sol\":902:958  buffer[digits] = bytes1(uint8(48 + uint256(value % 10))) */\n      swap1\n      not(0xffffffffffffffffffffffffffffffffffffffffffffffffffffffffffffff)\n      and\n      swap1\n      dup2\n      0x00\n      byte\n      swap1\n      mstore8\n      pop\n        /* \"@openzeppelin/contracts/utils/Strings.sol\":981:983  10 */\n      0x0a\n        /* \"@openzeppelin/contracts/utils/Strings.sol\":972:983  value /= 10 */\n      dup6\n      tag_36\n      swap2\n      swap1\n      tag_20\n      jump\t// in\n    tag_36:\n      swap5\n      pop\n        /* \"@openzeppelin/contracts/utils/Strings.sol\":844:994  while (value != 0) {... */\n      jump(tag_25)\n    tag_26:\n        /* \"@openzeppelin/contracts/utils/Strings.sol\":1017:1023  buffer */\n      dup1\n        /* \"@openzeppelin/contracts/utils/Strings.sol\":1003:1024  return string(buffer) */\n      swap4\n      pop\n      pop\n      pop\n      pop\n        /* \"@openzeppelin/contracts/utils/Strings.sol\":328:1031  function toString(uint256 value) internal pure returns (string memory) {... */\n    tag_13:\n      swap2\n      swap1\n      pop\n      jump\t// out\n        /* \"#utility.yul\":7:106   */\n    tag_37:\n        /* \"#utility.yul\":59:65   */\n      0x00\n        /* \"#utility.yul\":93:98   */\n      dup2\n        /* \"#utility.yul\":87:99   */\n      mload\n        /* \"#utility.yul\":77:99   */\n      swap1\n      pop\n        /* \"#utility.yul\":7:106   */\n      swap2\n      swap1\n      pop\n      jump\t// out\n        /* \"#utility.yul\":112:281   */\n    tag_38:\n        /* \"#utility.yul\":196:207   */\n      0x00\n        /* \"#utility.yul\":230:236   */\n      dup3\n        /* \"#utility.yul\":225:228   */\n      dup3\n        /* \"#utility.yul\":218:237   */\n      mstore\n        /* \"#utility.yul\":270:274   */\n      0x20\n        /* \"#utility.yul\":265:268   */\n      dup3\n        /* \"#utility.yul\":261:275   */\n      add\n        /* \"#utility.yul\":246:275   */\n      swap1\n      pop\n        /* \"#utility.yul\":112:281   */\n      swap3\n      swap2\n      pop\n      pop\n      jump\t// out\n        /* \"#utility.yul\":287:533   */\n    tag_39:\n        /* \"#utility.yul\":368:369   */\n      0x00\n        /* \"#utility.yul\":378:491   */\n    tag_53:\n        /* \"#utility.yul\":392:398   */\n      dup4\n        /* \"#utility.yul\":389:390   */\n      dup2\n        /* \"#utility.yul\":386:399   */\n      lt\n        /* \"#utility.yul\":378:491   */\n      iszero\n      tag_55\n      jumpi\n        /* \"#utility.yul\":477:478   */\n      dup1\n        /* \"#utility.yul\":472:475   */\n      dup3\n        /* \"#utility.yul\":468:479   */\n      add\n        /* \"#utility.yul\":462:480   */\n      mload\n        /* \"#utility.yul\":458:459   */\n      dup2\n        /* \"#utility.yul\":453:456   */\n      dup5\n        /* \"#utility.yul\":449:460   */\n      add\n        /* \"#utility.yul\":442:481   */\n      mstore\n        /* \"#utility.yul\":414:416   */\n      0x20\n        /* \"#utility.yul\":411:412   */\n      dup2\n        /* \"#utility.yul\":407:417   */\n      add\n        /* \"#utility.yul\":402:417   */\n      swap1\n      pop\n        /* \"#utility.yul\":378:491   */\n      jump(tag_53)\n    tag_55:\n        /* \"#utility.yul\":525:526   */\n      0x00\n        /* \"#utility.yul\":516:522   */\n      dup5\n        /* \"#utility.yul\":511:514   */\n      dup5\n        /* \"#utility.yul\":507:523   */\n      add\n        /* \"#utility.yul\":500:527   */\n      mstore\n        /* \"#utility.yul\":349:533   */\n      pop\n        /* \"#utility.yul\":287:533   */\n      pop\n      pop\n      pop\n      jump\t// out\n        /* \"#utility.yul\":539:641   */\n    tag_40:\n        /* \"#utility.yul\":580:586   */\n      0x00\n        /* \"#utility.yul\":631:633   */\n      0x1f\n        /* \"#utility.yul\":627:634   */\n      not\n        /* \"#utility.yul\":622:624   */\n      0x1f\n        /* \"#utility.yul\":615:620   */\n      dup4\n        /* \"#utility.yul\":611:625   */\n      add\n        /* \"#utility.yul\":607:635   */\n      and\n        /* \"#utility.yul\":597:635   */\n      swap1\n      pop\n        /* \"#utility.yul\":539:641   */\n      swap2\n      swap1\n      pop\n      jump\t// out\n        /* \"#utility.yul\":647:1024   */\n    tag_41:\n        /* \"#utility.yul\":735:738   */\n      0x00\n        /* \"#utility.yul\":763:802   */\n      tag_58\n        /* \"#utility.yul\":796:801   */\n      dup3\n        /* \"#utility.yul\":763:802   */\n      tag_37\n      jump\t// in\n    tag_58:\n        /* \"#utility.yul\":818:889   */\n      tag_59\n        /* \"#utility.yul\":882:888   */\n      dup2\n        /* \"#utility.yul\":877:880   */\n      dup6\n        /* \"#utility.yul\":818:889   */\n      tag_38\n      jump\t// in\n    tag_59:\n        /* \"#utility.yul\":811:889   */\n      swap4\n      pop\n        /* \"#utility.yul\":898:963   */\n      tag_60\n        /* \"#utility.yul\":956:962   */\n      dup2\n        /* \"#utility.yul\":951:954   */\n      dup6\n        /* \"#utility.yul\":944:948   */\n      0x20\n        /* \"#utility.yul\":937:942   */\n      dup7\n        /* \"#utility.yul\":933:949   */\n      add\n        /* \"#utility.yul\":898:963   */\n      tag_39\n      jump\t// in\n    tag_60:\n        /* \"#utility.yul\":988:1017   */\n      tag_61\n        /* \"#utility.yul\":1010:1016   */\n      dup2\n        /* \"#utility.yul\":988:1017   */\n      tag_40\n      jump\t// in\n    tag_61:\n        /* \"#utility.yul\":983:986   */\n      dup5\n        /* \"#utility.yul\":979:1018   */\n      add\n        /* \"#utility.yul\":972:1018   */\n      swap2\n      pop\n        /* \"#utility.yul\":739:1024   */\n      pop\n        /* \"#utility.yul\":647:1024   */\n      swap3\n      swap2\n      pop\n      pop\n      jump\t// out\n        /* \"#utility.yul\":1030:1343   */\n    tag_7:\n        /* \"#utility.yul\":1143:1147   */\n      0x00\n        /* \"#utility.yul\":1181:1183   */\n      0x20\n        /* \"#utility.yul\":1170:1179   */\n      dup3\n        /* \"#utility.yul\":1166:1184   */\n      add\n        /* \"#utility.yul\":1158:1184   */\n      swap1\n      pop\n        /* \"#utility.yul\":1230:1239   */\n      dup2\n        /* \"#utility.yul\":1224:1228   */\n      dup2\n        /* \"#utility.yul\":1220:1240   */\n      sub\n        /* \"#utility.yul\":1216:1217   */\n      0x00\n        /* \"#utility.yul\":1205:1214   */\n      dup4\n        /* \"#utility.yul\":1201:1218   */\n      add\n        /* \"#utility.yul\":1194:1241   */\n      mstore\n        /* \"#utility.yul\":1258:1336   */\n      tag_63\n        /* \"#utility.yul\":1331:1335   */\n      dup2\n        /* \"#utility.yul\":1322:1328   */\n      dup5\n        /* \"#utility.yul\":1258:1336   */\n      tag_41\n      jump\t// in\n    tag_63:\n        /* \"#utility.yul\":1250:1336   */\n      swap1\n      pop\n        /* \"#utility.yul\":1030:1343   */\n      swap3\n      swap2\n      pop\n      pop\n      jump\t// out\n        /* \"#utility.yul\":1349:1497   */\n    tag_42:\n        /* \"#utility.yul\":1451:1462   */\n      0x00\n        /* \"#utility.yul\":1488:1491   */\n      dup2\n        /* \"#utility.yul\":1473:1491   */\n      swap1\n      pop\n        /* \"#utility.yul\":1349:1497   */\n      swap3\n      swap2\n      pop\n      pop\n      jump\t// out\n        /* \"#utility.yul\":1503:1665   */\n    tag_43:\n        /* \"#utility.yul\":1643:1657   */\n      0x736f6d6520737472696e67200000000000000000000000000000000000000000\n        /* \"#utility.yul\":1639:1640   */\n      0x00\n        /* \"#utility.yul\":1631:1637   */\n      dup3\n        /* \"#utility.yul\":1627:1641   */\n      add\n        /* \"#utility.yul\":1620:1658   */\n      mstore\n        /* \"#utility.yul\":1503:1665   */\n      pop\n      jump\t// out\n        /* \"#utility.yul\":1671:2073   */\n    tag_44:\n        /* \"#utility.yul\":1831:1834   */\n      0x00\n        /* \"#utility.yul\":1852:1937   */\n      tag_67\n        /* \"#utility.yul\":1934:1936   */\n      0x0c\n        /* \"#utility.yul\":1929:1932   */\n      dup4\n        /* \"#utility.yul\":1852:1937   */\n      tag_42\n      jump\t// in\n    tag_67:\n        /* \"#utility.yul\":1845:1937   */\n      swap2\n      pop\n        /* \"#utility.yul\":1946:2039   */\n      tag_68\n        /* \"#utility.yul\":2035:2038   */\n      dup3\n        /* \"#utility.yul\":1946:2039   */\n      tag_43\n      jump\t// in\n    tag_68:\n        /* \"#utility.yul\":2064:2066   */\n      0x0c\n        /* \"#utility.yul\":2059:2062   */\n      dup3\n        /* \"#utility.yul\":2055:2067   */\n      add\n        /* \"#utility.yul\":2048:2067   */\n      swap1\n      pop\n        /* \"#utility.yul\":1671:2073   */\n      swap2\n      swap1\n      pop\n      jump\t// out\n        /* \"#utility.yul\":2079:2469   */\n    tag_45:\n        /* \"#utility.yul\":2185:2188   */\n      0x00\n        /* \"#utility.yul\":2213:2252   */\n      tag_70\n        /* \"#utility.yul\":2246:2251   */\n      dup3\n        /* \"#utility.yul\":2213:2252   */\n      tag_37\n      jump\t// in\n    tag_70:\n        /* \"#utility.yul\":2268:2357   */\n      tag_71\n        /* \"#utility.yul\":2350:2356   */\n      dup2\n        /* \"#utility.yul\":2345:2348   */\n      dup6\n        /* \"#utility.yul\":2268:2357   */\n      tag_42\n      jump\t// in\n    tag_71:\n        /* \"#utility.yul\":2261:2357   */\n      swap4\n      pop\n        /* \"#utility.yul\":2366:2431   */\n      tag_72\n        /* \"#utility.yul\":2424:2430   */\n      dup2\n        /* \"#utility.yul\":2419:2422   */\n      dup6\n        /* \"#utility.yul\":2412:2416   */\n      0x20\n        /* \"#utility.yul\":2405:2410   */\n      dup7\n        /* \"#utility.yul\":2401:2417   */\n      add\n        /* \"#utility.yul\":2366:2431   */\n      tag_39\n      jump\t// in\n    tag_72:\n        /* \"#utility.yul\":2456:2462   */\n      dup1\n        /* \"#utility.yul\":2451:2454   */\n      dup5\n        /* \"#utility.yul\":2447:2463   */\n      add\n        /* \"#utility.yul\":2440:2463   */\n      swap2\n      pop\n        /* \"#utility.yul\":2189:2469   */\n      pop\n        /* \"#utility.yul\":2079:2469   */\n      swap3\n      swap2\n      pop\n      pop\n      jump\t// out\n        /* \"#utility.yul\":2475:3016   */\n    tag_12:\n        /* \"#utility.yul\":2708:2711   */\n      0x00\n        /* \"#utility.yul\":2730:2878   */\n      tag_74\n        /* \"#utility.yul\":2874:2877   */\n      dup3\n        /* \"#utility.yul\":2730:2878   */\n      tag_44\n      jump\t// in\n    tag_74:\n        /* \"#utility.yul\":2723:2878   */\n      swap2\n      pop\n        /* \"#utility.yul\":2895:2990   */\n      tag_75\n        /* \"#utility.yul\":2986:2989   */\n      dup3\n        /* \"#utility.yul\":2977:2983   */\n      dup5\n        /* \"#utility.yul\":2895:2990   */\n      tag_45\n      jump\t// in\n    tag_75:\n        /* \"#utility.yul\":2888:2990   */\n      swap2\n      pop\n        /* \"#utility.yul\":3007:3010   */\n      dup2\n        /* \"#utility.yul\":3000:3010   */\n      swap1\n      pop\n        /* \"#utility.yul\":2475:3016   */\n      swap3\n      swap2\n      pop\n      pop\n      jump\t// out\n        /* \"#utility.yul\":3022:3202   */\n    tag_46:\n        /* \"#utility.yul\":3070:3147   */\n      0x4e487b7100000000000000000000000000000000000000000000000000000000\n        /* \"#utility.yul\":3067:3068   */\n      0x00\n        /* \"#utility.yul\":3060:3148   */\n      mstore\n        /* \"#utility.yul\":3167:3171   */\n      0x11\n        /* \"#utility.yul\":3164:3165   */\n      0x04\n        /* \"#utility.yul\":3157:3172   */\n      mstore\n        /* \"#utility.yul\":3191:3195   */\n      0x24\n        /* \"#utility.yul\":3188:3189   */\n      0x00\n        /* \"#utility.yul\":3181:3196   */\n      revert\n        /* \"#utility.yul\":3208:3285   */\n    tag_47:\n        /* \"#utility.yul\":3245:3252   */\n      0x00\n        /* \"#utility.yul\":3274:3279   */\n      dup2\n        /* \"#utility.yul\":3263:3279   */\n      swap1\n      pop\n        /* \"#utility.yul\":3208:3285   */\n      swap2\n      swap1\n      pop\n      jump\t// out\n        /* \"#utility.yul\":3291:3524   */\n    tag_18:\n        /* \"#utility.yul\":3330:3333   */\n      0x00\n        /* \"#utility.yul\":3353:3377   */\n      tag_79\n        /* \"#utility.yul\":3371:3376   */\n      dup3\n        /* \"#utility.yul\":3353:3377   */\n      tag_47\n      jump\t// in\n    tag_79:\n        /* \"#utility.yul\":3344:3377   */\n      swap2\n      pop\n        /* \"#utility.yul\":3399:3465   */\n      0xffffffffffffffffffffffffffffffffffffffffffffffffffffffffffffffff\n        /* \"#utility.yul\":3392:3397   */\n      dup3\n        /* \"#utility.yul\":3389:3466   */\n      sub\n        /* \"#utility.yul\":3386:3489   */\n      tag_80\n      jumpi\n        /* \"#utility.yul\":3469:3487   */\n      tag_81\n      tag_46\n      jump\t// in\n    tag_81:\n        /* \"#utility.yul\":3386:3489   */\n    tag_80:\n        /* \"#utility.yul\":3516:3517   */\n      0x01\n        /* \"#utility.yul\":3509:3514   */\n      dup3\n        /* \"#utility.yul\":3505:3518   */\n      add\n        /* \"#utility.yul\":3498:3518   */\n      swap1\n      pop\n        /* \"#utility.yul\":3291:3524   */\n      swap2\n      swap1\n      pop\n      jump\t// out\n        /* \"#utility.yul\":3530:3710   */\n    tag_48:\n        /* \"#utility.yul\":3578:3655   */\n      0x4e487b7100000000000000000000000000000000000000000000000000000000\n        /* \"#utility.yul\":3575:3576   */\n      0x00\n        /* \"#utility.yul\":3568:3656   */\n      mstore\n        /* \"#utility.yul\":3675:3679   */\n      0x12\n        /* \"#utility.yul\":3672:3673   */\n      0x04\n        /* \"#utility.yul\":3665:3680   */\n      mstore\n        /* \"#utility.yul\":3699:3703   */\n      0x24\n        /* \"#utility.yul\":3696:3697   */\n      0x00\n        /* \"#utility.yul\":3689:3704   */\n      revert\n        /* \"#utility.yul\":3716:3901   */\n    tag_20:\n        /* \"#utility.yul\":3756:3757   */\n      0x00\n        /* \"#utility.yul\":3773:3793   */\n      tag_84\n        /* \"#utility.yul\":3791:3792   */\n      dup3\n        /* \"#utility.yul\":3773:3793   */\n      tag_47\n      jump\t// in\n    tag_84:\n        /* \"#utility.yul\":3768:3793   */\n      swap2\n      pop\n        /* \"#utility.yul\":3807:3827   */\n      tag_85\n        /* \"#utility.yul\":3825:3826   */\n      dup4\n        /* \"#utility.yul\":3807:3827   */\n      tag_47\n      jump\t// in\n    tag_85:\n        /* \"#utility.yul\":3802:3827   */\n      swap3\n      pop\n        /* \"#utility.yul\":3846:3847   */\n      dup3\n        /* \"#utility.yul\":3836:3871   */\n      tag_86\n      jumpi\n        /* \"#utility.yul\":3851:3869   */\n      tag_87\n      tag_48\n      jump\t// in\n    tag_87:\n        /* \"#utility.yul\":3836:3871   */\n    tag_86:\n        /* \"#utility.yul\":3893:3894   */\n      dup3\n        /* \"#utility.yul\":3890:3891   */\n      dup3\n        /* \"#utility.yul\":3886:3895   */\n      div\n        /* \"#utility.yul\":3881:3895   */\n      swap1\n      pop\n        /* \"#utility.yul\":3716:3901   */\n      swap3\n      swap2\n      pop\n      pop\n      jump\t// out\n        /* \"#utility.yul\":3907:4087   */\n    tag_23:\n        /* \"#utility.yul\":3955:4032   */\n      0x4e487b7100000000000000000000000000000000000000000000000000000000\n        /* \"#utility.yul\":3952:3953   */\n      0x00\n        /* \"#utility.yul\":3945:4033   */\n      mstore\n        /* \"#utility.yul\":4052:4056   */\n      0x41\n        /* \"#utility.yul\":4049:4050   */\n      0x04\n        /* \"#utility.yul\":4042:4057   */\n      mstore\n        /* \"#utility.yul\":4076:4080   */\n      0x24\n        /* \"#utility.yul\":4073:4074   */\n      0x00\n        /* \"#utility.yul\":4066:4081   */\n      revert\n        /* \"#utility.yul\":4093:4287   */\n    tag_28:\n        /* \"#utility.yul\":4133:4137   */\n      0x00\n        /* \"#utility.yul\":4153:4173   */\n      tag_90\n        /* \"#utility.yul\":4171:4172   */\n      dup3\n        /* \"#utility.yul\":4153:4173   */\n      tag_47\n      jump\t// in\n    tag_90:\n        /* \"#utility.yul\":4148:4173   */\n      swap2\n      pop\n        /* \"#utility.yul\":4187:4207   */\n      tag_91\n        /* \"#utility.yul\":4205:4206   */\n      dup4\n        /* \"#utility.yul\":4187:4207   */\n      tag_47\n      jump\t// in\n    tag_91:\n        /* \"#utility.yul\":4182:4207   */\n      swap3\n      pop\n        /* \"#utility.yul\":4231:4232   */\n      dup3\n        /* \"#utility.yul\":4228:4229   */\n      dup3\n        /* \"#utility.yul\":4224:4233   */\n      sub\n        /* \"#utility.yul\":4216:4233   */\n      swap1\n      pop\n        /* \"#utility.yul\":4255:4256   */\n      dup2\n        /* \"#utility.yul\":4249:4253   */\n      dup2\n        /* \"#utility.yul\":4246:4257   */\n      gt\n        /* \"#utility.yul\":4243:4280   */\n      iszero\n      tag_92\n      jumpi\n        /* \"#utility.yul\":4260:4278   */\n      tag_93\n      tag_46\n      jump\t// in\n    tag_93:\n        /* \"#utility.yul\":4243:4280   */\n    tag_92:\n        /* \"#utility.yul\":4093:4287   */\n      swap3\n      swap2\n      pop\n      pop\n      jump\t// out\n        /* \"#utility.yul\":4293:4469   */\n    tag_30:\n        /* \"#utility.yul\":4325:4326   */\n      0x00\n        /* \"#utility.yul\":4342:4362   */\n      tag_95\n        /* \"#utility.yul\":4360:4361   */\n      dup3\n        /* \"#utility.yul\":4342:4362   */\n      tag_47\n      jump\t// in\n    tag_95:\n        /* \"#utility.yul\":4337:4362   */\n      swap2\n      pop\n        /* \"#utility.yul\":4376:4396   */\n      tag_96\n        /* \"#utility.yul\":4394:4395   */\n      dup4\n        /* \"#utility.yul\":4376:4396   */\n      tag_47\n      jump\t// in\n    tag_96:\n        /* \"#utility.yul\":4371:4396   */\n      swap3\n      pop\n        /* \"#utility.yul\":4415:4416   */\n      dup3\n        /* \"#utility.yul\":4405:4440   */\n      tag_97\n      jumpi\n        /* \"#utility.yul\":4420:4438   */\n      tag_98\n      tag_48\n      jump\t// in\n    tag_98:\n        /* \"#utility.yul\":4405:4440   */\n    tag_97:\n        /* \"#utility.yul\":4461:4462   */\n      dup3\n        /* \"#utility.yul\":4458:4459   */\n      dup3\n        /* \"#utility.yul\":4454:4463   */\n      mod\n        /* \"#utility.yul\":4449:4463   */\n      swap1\n      pop\n        /* \"#utility.yul\":4293:4469   */\n      swap3\n      swap2\n      pop\n      pop\n      jump\t// out\n        /* \"#utility.yul\":4475:4666   */\n    tag_32:\n        /* \"#utility.yul\":4515:4518   */\n      0x00\n        /* \"#utility.yul\":4534:4554   */\n      tag_100\n        /* \"#utility.yul\":4552:4553   */\n      dup3\n        /* \"#utility.yul\":4534:4554   */\n      tag_47\n      jump\t// in\n    tag_100:\n        /* \"#utility.yul\":4529:4554   */\n      swap2\n      pop\n        /* \"#utility.yul\":4568:4588   */\n      tag_101\n        /* \"#utility.yul\":4586:4587   */\n      dup4\n        /* \"#utility.yul\":4568:4588   */\n      tag_47\n      jump\t// in\n    tag_101:\n        /* \"#utility.yul\":4563:4588   */\n      swap3\n      pop\n        /* \"#utility.yul\":4611:4612   */\n      dup3\n        /* \"#utility.yul\":4608:4609   */\n      dup3\n        /* \"#utility.yul\":4604:4613   */\n      add\n        /* \"#utility.yul\":4597:4613   */\n      swap1\n      pop\n        /* \"#utility.yul\":4632:4635   */\n      dup1\n        /* \"#utility.yul\":4629:4630   */\n      dup3\n        /* \"#utility.yul\":4626:4636   */\n      gt\n        /* \"#utility.yul\":4623:4659   */\n      iszero\n      tag_102\n      jumpi\n        /* \"#utility.yul\":4639:4657   */\n      tag_103\n      tag_46\n      jump\t// in\n    tag_103:\n        /* \"#utility.yul\":4623:4659   */\n    tag_102:\n        /* \"#utility.yul\":4475:4666   */\n      swap3\n      swap2\n      pop\n      pop\n      jump\t// out\n        /* \"#utility.yul\":4672:4852   */\n    tag_35:\n        /* \"#utility.yul\":4720:4797   */\n      0x4e487b7100000000000000000000000000000000000000000000000000000000\n        /* \"#utility.yul\":4717:4718   */\n      0x00\n        /* \"#utility.yul\":4710:4798   */\n      mstore\n        /* \"#utility.yul\":4817:4821   */\n      0x32\n        /* \"#utility.yul\":4814:4815   */\n      0x04\n        /* \"#utility.yul\":4807:4822   */\n      mstore\n        /* \"#utility.yul\":4841:4845   */\n      0x24\n        /* \"#utility.yul\":4838:4839   */\n      0x00\n        /* \"#utility.yul\":4831:4846   */\n      revert\n\n    auxdata: 0xa2646970667358221220e3a16e0b861ffa0491e7a33a4cd86a1b607eda0a80cedba9a7fdc93f814cbdc564736f6c63430008140033\n}\n",
				"bytecode": {
					"linkReferences": {},
					"object": "608060405234801561000f575f80fd5b506105238061001d5f395ff3fe608060405234801561000f575f80fd5b5060043610610029575f3560e01c8063c607be8a1461002d575b5f80fd5b61003561004b565b604051610042919061025e565b60405180910390f35b6060610057600561007b565b6040516020016100679190610302565b604051602081830303815290604052905090565b60605f82036100c1576040518060400160405280600181526020017f300000000000000000000000000000000000000000000000000000000000000081525090506101cf565b5f8290505f5b5f82146100f05780806100d990610359565b915050600a826100e991906103cd565b91506100c7565b5f8167ffffffffffffffff81111561010b5761010a6103fd565b5b6040519080825280601f01601f19166020018201604052801561013d5781602001600182028036833780820191505090505b5090505b5f85146101c857600182610155919061042a565b9150600a85610164919061045d565b6030610170919061048d565b60f81b818381518110610186576101856104c0565b5b60200101907effffffffffffffffffffffffffffffffffffffffffffffffffffffffffffff191690815f1a905350600a856101c191906103cd565b9450610141565b8093505050505b919050565b5f81519050919050565b5f82825260208201905092915050565b5f5b8381101561020b5780820151818401526020810190506101f0565b5f8484015250505050565b5f601f19601f8301169050919050565b5f610230826101d4565b61023a81856101de565b935061024a8185602086016101ee565b61025381610216565b840191505092915050565b5f6020820190508181035f8301526102768184610226565b905092915050565b5f81905092915050565b7f736f6d6520737472696e672000000000000000000000000000000000000000005f82015250565b5f6102bc600c8361027e565b91506102c782610288565b600c82019050919050565b5f6102dc826101d4565b6102e6818561027e565b93506102f68185602086016101ee565b80840191505092915050565b5f61030c826102b0565b915061031882846102d2565b915081905092915050565b7f4e487b71000000000000000000000000000000000000000000000000000000005f52601160045260245ffd5b5f819050919050565b5f61036382610350565b91507fffffffffffffffffffffffffffffffffffffffffffffffffffffffffffffffff820361039557610394610323565b5b600182019050919050565b7f4e487b71000000000000000000000000000000000000000000000000000000005f52601260045260245ffd5b5f6103d782610350565b91506103e283610350565b9250826103f2576103f16103a0565b5b828204905092915050565b7f4e487b71000000000000000000000000000000000000000000000000000000005f52604160045260245ffd5b5f61043482610350565b915061043f83610350565b925082820390508181111561045757610456610323565b5b92915050565b5f61046782610350565b915061047283610350565b925082610482576104816103a0565b5b828206905092915050565b5f61049782610350565b91506104a283610350565b92508282019050808211156104ba576104b9610323565b5b92915050565b7f4e487b71000000000000000000000000000000000000000000000000000000005f52603260045260245ffdfea2646970667358221220e3a16e0b861ffa0491e7a33a4cd86a1b607eda0a80cedba9a7fdc93f814cbdc564736f6c63430008140033",
					"opcodes": "PUSH1 0x80 PUSH1 0x40 MSTORE CALLVALUE DUP1 ISZERO PUSH2 0xF JUMPI PUSH0 DUP1 REVERT JUMPDEST POP PUSH2 0x523 DUP1 PUSH2 0x1D PUSH0 CODECOPY PUSH0 RETURN INVALID PUSH1 0x80 PUSH1 0x40 MSTORE CALLVALUE DUP1 ISZERO PUSH2 0xF JUMPI PUSH0 DUP1 REVERT JUMPDEST POP PUSH1 0x4 CALLDATASIZE LT PUSH2 0x29 JUMPI PUSH0 CALLDATALOAD PUSH1 0xE0 SHR DUP1 PUSH4 0xC607BE8A EQ PUSH2 0x2D JUMPI JUMPDEST PUSH0 DUP1 REVERT JUMPDEST PUSH2 0x35 PUSH2 0x4B JUMP JUMPDEST PUSH1 0x40 MLOAD PUSH2 0x42 SWAP2 SWAP1 PUSH2 0x25E JUMP JUMPDEST PUSH1 0x40 MLOAD DUP1 SWAP2 SUB SWAP1 RETURN JUMPDEST PUSH1 0x60 PUSH2 0x57 PUSH1 0x5 PUSH2 0x7B JUMP JUMPDEST PUSH1 0x40 MLOAD PUSH1 0x20 ADD PUSH2 0x67 SWAP2 SWAP1 PUSH2 0x302 JUMP JUMPDEST PUSH1 0x40 MLOAD PUSH1 0x20 DUP2 DUP4 SUB SUB DUP2 MSTORE SWAP1 PUSH1 0x40 MSTORE SWAP1 POP SWAP1 JUMP JUMPDEST PUSH1 0x60 PUSH0 DUP3 SUB PUSH2 0xC1 JUMPI PUSH1 0x40 MLOAD DUP1 PUSH1 0x40 ADD PUSH1 0x40 MSTORE DUP1 PUSH1 0x1 DUP2 MSTORE PUSH1 0x20 ADD PUSH32 0x3000000000000000000000000000000000000000000000000000000000000000 DUP2 MSTORE POP SWAP1 POP PUSH2 0x1CF JUMP JUMPDEST PUSH0 DUP3 SWAP1 POP PUSH0 JUMPDEST PUSH0 DUP3 EQ PUSH2 0xF0 JUMPI DUP1 DUP1 PUSH2 0xD9 SWAP1 PUSH2 0x359 JUMP JUMPDEST SWAP2 POP POP PUSH1 0xA DUP3 PUSH2 0xE9 SWAP2 SWAP1 PUSH2 0x3CD JUMP JUMPDEST SWAP2 POP PUSH2 0xC7 JUMP JUMPDEST PUSH0 DUP2 PUSH8 0xFFFFFFFFFFFFFFFF DUP2 GT ISZERO PUSH2 0x10B JUMPI PUSH2 0x10A PUSH2 0x3FD JUMP JUMPDEST JUMPDEST PUSH1 0x40 MLOAD SWAP1 DUP1 DUP3 MSTORE DUP1 PUSH1 0x1F ADD PUSH1 0x1F NOT AND PUSH1 0x20 ADD DUP3 ADD PUSH1 0x40 MSTORE DUP1 ISZERO PUSH2 0x13D JUMPI DUP2 PUSH1 0x20 ADD PUSH1 0x1 DUP3 MUL DUP1 CALLDATASIZE DUP4 CALLDATACOPY DUP1 DUP3 ADD SWAP2 POP POP SWAP1 POP JUMPDEST POP SWAP1 POP JUMPDEST PUSH0 DUP6 EQ PUSH2 0x1C8 JUMPI PUSH1 0x1 DUP3 PUSH2 0x155 SWAP2 SWAP1 PUSH2 0x42A JUMP JUMPDEST SWAP2 POP PUSH1 0xA DUP6 PUSH2 0x164 SWAP2 SWAP1 PUSH2 0x45D JUMP JUMPDEST PUSH1 0x30 PUSH2 0x170 SWAP2 SWAP1 PUSH2 0x48D JUMP JUMPDEST PUSH1 0xF8 SHL DUP2 DUP4 DUP2 MLOAD DUP2 LT PUSH2 0x186 JUMPI PUSH2 0x185 PUSH2 0x4C0 JUMP JUMPDEST JUMPDEST PUSH1 0x20 ADD ADD SWAP1 PUSH31 0xFFFFFFFFFFFFFFFFFFFFFFFFFFFFFFFFFFFFFFFFFFFFFFFFFFFFFFFFFFFFFF NOT AND SWAP1 DUP2 PUSH0 BYTE SWAP1 MSTORE8 POP PUSH1 0xA DUP6 PUSH2 0x1C1 SWAP2 SWAP1 PUSH2 0x3CD JUMP JUMPDEST SWAP5 POP PUSH2 0x141 JUMP JUMPDEST DUP1 SWAP4 POP POP POP POP JUMPDEST SWAP2 SWAP1 POP JUMP JUMPDEST PUSH0 DUP2 MLOAD SWAP1 POP SWAP2 SWAP1 POP JUMP JUMPDEST PUSH0 DUP3 DUP3 MSTORE PUSH1 0x20 DUP3 ADD SWAP1 POP SWAP3 SWAP2 POP POP JUMP JUMPDEST PUSH0 JUMPDEST DUP4 DUP2 LT ISZERO PUSH2 0x20B JUMPI DUP1 DUP3 ADD MLOAD DUP2 DUP5 ADD MSTORE PUSH1 0x20 DUP2 ADD SWAP1 POP PUSH2 0x1F0 JUMP JUMPDEST PUSH0 DUP5 DUP5 ADD MSTORE POP POP POP POP JUMP JUMPDEST PUSH0 PUSH1 0x1F NOT PUSH1 0x1F DUP4 ADD AND SWAP1 POP SWAP2 SWAP1 POP JUMP JUMPDEST PUSH0 PUSH2 0x230 DUP3 PUSH2 0x1D4 JUMP JUMPDEST PUSH2 0x23A DUP2 DUP6 PUSH2 0x1DE JUMP JUMPDEST SWAP4 POP PUSH2 0x24A DUP2 DUP6 PUSH1 0x20 DUP7 ADD PUSH2 0x1EE JUMP JUMPDEST PUSH2 0x253 DUP2 PUSH2 0x216 JUMP JUMPDEST DUP5 ADD SWAP2 POP POP SWAP3 SWAP2 POP POP JUMP JUMPDEST PUSH0 PUSH1 0x20 DUP3 ADD SWAP1 POP DUP2 DUP2 SUB PUSH0 DUP4 ADD MSTORE PUSH2 0x276 DUP2 DUP5 PUSH2 0x226 JUMP JUMPDEST SWAP1 POP SWAP3 SWAP2 POP POP JUMP JUMPDEST PUSH0 DUP2 SWAP1 POP SWAP3 SWAP2 POP POP JUMP JUMPDEST PUSH32 0x736F6D6520737472696E67200000000000000000000000000000000000000000 PUSH0 DUP3 ADD MSTORE POP JUMP JUMPDEST PUSH0 PUSH2 0x2BC PUSH1 0xC DUP4 PUSH2 0x27E JUMP JUMPDEST SWAP2 POP PUSH2 0x2C7 DUP3 PUSH2 0x288 JUMP JUMPDEST PUSH1 0xC DUP3 ADD SWAP1 POP SWAP2 SWAP1 POP JUMP JUMPDEST PUSH0 PUSH2 0x2DC DUP3 PUSH2 0x1D4 JUMP JUMPDEST PUSH2 0x2E6 DUP2 DUP6 PUSH2 0x27E JUMP JUMPDEST SWAP4 POP PUSH2 0x2F6 DUP2 DUP6 PUSH1 0x20 DUP7 ADD PUSH2 0x1EE JUMP JUMPDEST DUP1 DUP5 ADD SWAP2 POP POP SWAP3 SWAP2 POP POP JUMP JUMPDEST PUSH0 PUSH2 0x30C DUP3 PUSH2 0x2B0 JUMP JUMPDEST SWAP2 POP PUSH2 0x318 DUP3 DUP5 PUSH2 0x2D2 JUMP JUMPDEST SWAP2 POP DUP2 SWAP1 POP SWAP3 SWAP2 POP POP JUMP JUMPDEST PUSH32 0x4E487B7100000000000000000000000000000000000000000000000000000000 PUSH0 MSTORE PUSH1 0x11 PUSH1 0x4 MSTORE PUSH1 0x24 PUSH0 REVERT JUMPDEST PUSH0 DUP2 SWAP1 POP SWAP2 SWAP1 POP JUMP JUMPDEST PUSH0 PUSH2 0x363 DUP3 PUSH2 0x350 JUMP JUMPDEST SWAP2 POP PUSH32 0xFFFFFFFFFFFFFFFFFFFFFFFFFFFFFFFFFFFFFFFFFFFFFFFFFFFFFFFFFFFFFFFF DUP3 SUB PUSH2 0x395 JUMPI PUSH2 0x394 PUSH2 0x323 JUMP JUMPDEST JUMPDEST PUSH1 0x1 DUP3 ADD SWAP1 POP SWAP2 SWAP1 POP JUMP JUMPDEST PUSH32 0x4E487B7100000000000000000000000000000000000000000000000000000000 PUSH0 MSTORE PUSH1 0x12 PUSH1 0x4 MSTORE PUSH1 0x24 PUSH0 REVERT JUMPDEST PUSH0 PUSH2 0x3D7 DUP3 PUSH2 0x350 JUMP JUMPDEST SWAP2 POP PUSH2 0x3E2 DUP4 PUSH2 0x350 JUMP JUMPDEST SWAP3 POP DUP3 PUSH2 0x3F2 JUMPI PUSH2 0x3F1 PUSH2 0x3A0 JUMP JUMPDEST JUMPDEST DUP3 DUP3 DIV SWAP1 POP SWAP3 SWAP2 POP POP JUMP JUMPDEST PUSH32 0x4E487B7100000000000000000000000000000000000000000000000000000000 PUSH0 MSTORE PUSH1 0x41 PUSH1 0x4 MSTORE PUSH1 0x24 PUSH0 REVERT JUMPDEST PUSH0 PUSH2 0x434 DUP3 PUSH2 0x350 JUMP JUMPDEST SWAP2 POP PUSH2 0x43F DUP4 PUSH2 0x350 JUMP JUMPDEST SWAP3 POP DUP3 DUP3 SUB SWAP1 POP DUP2 DUP2 GT ISZERO PUSH2 0x457 JUMPI PUSH2 0x456 PUSH2 0x323 JUMP JUMPDEST JUMPDEST SWAP3 SWAP2 POP POP JUMP JUMPDEST PUSH0 PUSH2 0x467 DUP3 PUSH2 0x350 JUMP JUMPDEST SWAP2 POP PUSH2 0x472 DUP4 PUSH2 0x350 JUMP JUMPDEST SWAP3 POP DUP3 PUSH2 0x482 JUMPI PUSH2 0x481 PUSH2 0x3A0 JUMP JUMPDEST JUMPDEST DUP3 DUP3 MOD SWAP1 POP SWAP3 SWAP2 POP POP JUMP JUMPDEST PUSH0 PUSH2 0x497 DUP3 PUSH2 0x350 JUMP JUMPDEST SWAP2 POP PUSH2 0x4A2 DUP4 PUSH2 0x350 JUMP JUMPDEST SWAP3 POP DUP3 DUP3 ADD SWAP1 POP DUP1 DUP3 GT ISZERO PUSH2 0x4BA JUMPI PUSH2 0x4B9 PUSH2 0x323 JUMP JUMPDEST JUMPDEST SWAP3 SWAP2 POP POP JUMP JUMPDEST PUSH32 0x4E487B7100000000000000000000000000000000000000000000000000000000 PUSH0 MSTORE PUSH1 0x32 PUSH1 0x4 MSTORE PUSH1 0x24 PUSH0 REVERT INVALID LOG2 PUSH5 0x6970667358 0x22 SLT KECCAK256 0xE3 LOG1 PUSH15 0xB861FFA0491E7A33A4CD86A1B607E 0xDA EXP DUP1 0xCE 0xDB 0xA9 0xA7 REVERT 0xC9 EXTCODEHASH DUP2 0x4C 0xBD 0xC5 PUSH5 0x736F6C6343 STOP ADDMOD EQ STOP CALLER "
				},
				"gasEstimates": {
					"creation": {
						"codeDepositCost": "263000",
						"executionCost": "304",
						"totalCost": "263304"
					},
					"external": {
						"uintStringConcat()": "infinite"
					}
				},
				"methodIdentifiers": {
					"uintStringConcat()": "c607be8a"
				}
			},
			"storageLayout": {
				"storage": [],
				"types": null
			},
			"userdoc": {
				"kind": "user",
				"methods": {},
				"version": 1
			}
		}
	}
}