{
	"contracts/error-handling/SpeedBumps.sol": {
		"SpeedBumps": {
			"abi": [
				{
					"inputs": [],
					"name": "requestWithdrawl",
					"outputs": [],
					"stateMutability": "nonpayable",
					"type": "function"
				},
				{
					"inputs": [],
					"name": "withdraw",
					"outputs": [],
					"stateMutability": "nonpayable",
					"type": "function"
				}
			],
			"devdoc": {
				"kind": "dev",
				"methods": {},
				"version": 1
			},
			"evm": {
				"assembly": "    /* \"contracts/error-handling/SpeedBumps.sol\":57:1297  contract SpeedBumps {... */\n  mstore(0x40, 0x80)\n  callvalue\n  dup1\n  iszero\n  tag_1\n  jumpi\n  0x00\n  dup1\n  revert\ntag_1:\n  pop\n  dataSize(sub_0)\n  dup1\n  dataOffset(sub_0)\n  0x00\n  codecopy\n  0x00\n  return\nstop\n\nsub_0: assembly {\n        /* \"contracts/error-handling/SpeedBumps.sol\":57:1297  contract SpeedBumps {... */\n      mstore(0x40, 0x80)\n      callvalue\n      dup1\n      iszero\n      tag_1\n      jumpi\n      0x00\n      dup1\n      revert\n    tag_1:\n      pop\n      jumpi(tag_2, lt(calldatasize, 0x04))\n      shr(0xe0, calldataload(0x00))\n      dup1\n      0x3ccfd60b\n      eq\n      tag_3\n      jumpi\n      dup1\n      0x9904caad\n      eq\n      tag_4\n      jumpi\n    tag_2:\n      0x00\n      dup1\n      revert\n        /* \"contracts/error-handling/SpeedBumps.sol\":848:1295  function withdraw() public {... */\n    tag_3:\n      tag_5\n      tag_6\n      jump\t// in\n    tag_5:\n      stop\n        /* \"contracts/error-handling/SpeedBumps.sol\":347:842  function requestWithdrawl() public {... */\n    tag_4:\n      tag_7\n      tag_8\n      jump\t// in\n    tag_7:\n      stop\n        /* \"contracts/error-handling/SpeedBumps.sol\":848:1295  function withdraw() public {... */\n    tag_6:\n        /* \"contracts/error-handling/SpeedBumps.sol\":931:932  0 */\n      0x00\n        /* \"contracts/error-handling/SpeedBumps.sol\":889:909  requestedWithdrawals */\n      0x01\n        /* \"contracts/error-handling/SpeedBumps.sol\":889:921  requestedWithdrawals[msg.sender] */\n      0x00\n        /* \"contracts/error-handling/SpeedBumps.sol\":910:920  msg.sender */\n      caller\n        /* \"contracts/error-handling/SpeedBumps.sol\":889:921  requestedWithdrawals[msg.sender] */\n      0xffffffffffffffffffffffffffffffffffffffff\n      and\n      0xffffffffffffffffffffffffffffffffffffffff\n      and\n      dup2\n      mstore\n      0x20\n      add\n      swap1\n      dup2\n      mstore\n      0x20\n      add\n      0x00\n      keccak256\n        /* \"contracts/error-handling/SpeedBumps.sol\":889:928  requestedWithdrawals[msg.sender].amount */\n      0x00\n      add\n      sload\n        /* \"contracts/error-handling/SpeedBumps.sol\":889:932  requestedWithdrawals[msg.sender].amount > 0 */\n      gt\n        /* \"contracts/error-handling/SpeedBumps.sol\":889:1014  requestedWithdrawals[msg.sender].amount > 0 && block.timestamp > requestedWithdrawals[msg.sender].time + withdrawalWaitPeriod */\n      dup1\n      iszero\n      tag_10\n      jumpi\n      pop\n        /* \"contracts/error-handling/SpeedBumps.sol\":322:329  28 days */\n      0x24ea00\n        /* \"contracts/error-handling/SpeedBumps.sol\":954:974  requestedWithdrawals */\n      0x01\n        /* \"contracts/error-handling/SpeedBumps.sol\":954:986  requestedWithdrawals[msg.sender] */\n      0x00\n        /* \"contracts/error-handling/SpeedBumps.sol\":975:985  msg.sender */\n      caller\n        /* \"contracts/error-handling/SpeedBumps.sol\":954:986  requestedWithdrawals[msg.sender] */\n      0xffffffffffffffffffffffffffffffffffffffff\n      and\n      0xffffffffffffffffffffffffffffffffffffffff\n      and\n      dup2\n      mstore\n      0x20\n      add\n      swap1\n      dup2\n      mstore\n      0x20\n      add\n      0x00\n      keccak256\n        /* \"contracts/error-handling/SpeedBumps.sol\":954:991  requestedWithdrawals[msg.sender].time */\n      0x01\n      add\n      sload\n        /* \"contracts/error-handling/SpeedBumps.sol\":954:1014  requestedWithdrawals[msg.sender].time + withdrawalWaitPeriod */\n      tag_11\n      swap2\n      swap1\n      tag_12\n      jump\t// in\n    tag_11:\n        /* \"contracts/error-handling/SpeedBumps.sol\":936:951  block.timestamp */\n      timestamp\n        /* \"contracts/error-handling/SpeedBumps.sol\":936:1014  block.timestamp > requestedWithdrawals[msg.sender].time + withdrawalWaitPeriod */\n      gt\n        /* \"contracts/error-handling/SpeedBumps.sol\":889:1014  requestedWithdrawals[msg.sender].amount > 0 && block.timestamp > requestedWithdrawals[msg.sender].time + withdrawalWaitPeriod */\n    tag_10:\n        /* \"contracts/error-handling/SpeedBumps.sol\":885:1289  if (requestedWithdrawals[msg.sender].amount > 0 && block.timestamp > requestedWithdrawals[msg.sender].time + withdrawalWaitPeriod) {... */\n      iszero\n      tag_13\n      jumpi\n        /* \"contracts/error-handling/SpeedBumps.sol\":1030:1051  uint amountToWithdraw */\n      0x00\n        /* \"contracts/error-handling/SpeedBumps.sol\":1054:1074  requestedWithdrawals */\n      0x01\n        /* \"contracts/error-handling/SpeedBumps.sol\":1054:1086  requestedWithdrawals[msg.sender] */\n      0x00\n        /* \"contracts/error-handling/SpeedBumps.sol\":1075:1085  msg.sender */\n      caller\n        /* \"contracts/error-handling/SpeedBumps.sol\":1054:1086  requestedWithdrawals[msg.sender] */\n      0xffffffffffffffffffffffffffffffffffffffff\n      and\n      0xffffffffffffffffffffffffffffffffffffffff\n      and\n      dup2\n      mstore\n      0x20\n      add\n      swap1\n      dup2\n      mstore\n      0x20\n      add\n      0x00\n      keccak256\n        /* \"contracts/error-handling/SpeedBumps.sol\":1054:1093  requestedWithdrawals[msg.sender].amount */\n      0x00\n      add\n      sload\n        /* \"contracts/error-handling/SpeedBumps.sol\":1030:1093  uint amountToWithdraw = requestedWithdrawals[msg.sender].amount */\n      swap1\n      pop\n        /* \"contracts/error-handling/SpeedBumps.sol\":1149:1150  0 */\n      0x00\n        /* \"contracts/error-handling/SpeedBumps.sol\":1107:1127  requestedWithdrawals */\n      0x01\n        /* \"contracts/error-handling/SpeedBumps.sol\":1107:1139  requestedWithdrawals[msg.sender] */\n      0x00\n        /* \"contracts/error-handling/SpeedBumps.sol\":1128:1138  msg.sender */\n      caller\n        /* \"contracts/error-handling/SpeedBumps.sol\":1107:1139  requestedWithdrawals[msg.sender] */\n      0xffffffffffffffffffffffffffffffffffffffff\n      and\n      0xffffffffffffffffffffffffffffffffffffffff\n      and\n      dup2\n      mstore\n      0x20\n      add\n      swap1\n      dup2\n      mstore\n      0x20\n      add\n      0x00\n      keccak256\n        /* \"contracts/error-handling/SpeedBumps.sol\":1107:1146  requestedWithdrawals[msg.sender].amount */\n      0x00\n      add\n        /* \"contracts/error-handling/SpeedBumps.sol\":1107:1150  requestedWithdrawals[msg.sender].amount = 0 */\n      dup2\n      swap1\n      sstore\n      pop\n        /* \"contracts/error-handling/SpeedBumps.sol\":1166:1178  bool success */\n      0x00\n        /* \"contracts/error-handling/SpeedBumps.sol\":1184:1194  msg.sender */\n      caller\n        /* \"contracts/error-handling/SpeedBumps.sol\":1184:1199  msg.sender.call */\n      0xffffffffffffffffffffffffffffffffffffffff\n      and\n        /* \"contracts/error-handling/SpeedBumps.sol\":1207:1223  amountToWithdraw */\n      dup3\n        /* \"contracts/error-handling/SpeedBumps.sol\":1184:1228  msg.sender.call{value: amountToWithdraw}(\"\") */\n      mload(0x40)\n      tag_14\n      swap1\n      tag_15\n      jump\t// in\n    tag_14:\n      0x00\n      mload(0x40)\n      dup1\n      dup4\n      sub\n      dup2\n      dup6\n      dup8\n      gas\n      call\n      swap3\n      pop\n      pop\n      pop\n      returndatasize\n      dup1\n      0x00\n      dup2\n      eq\n      tag_18\n      jumpi\n      mload(0x40)\n      swap2\n      pop\n      and(add(returndatasize, 0x3f), not(0x1f))\n      dup3\n      add\n      0x40\n      mstore\n      returndatasize\n      dup3\n      mstore\n      returndatasize\n      0x00\n      0x20\n      dup5\n      add\n      returndatacopy\n      jump(tag_17)\n    tag_18:\n      0x60\n      swap2\n      pop\n    tag_17:\n      pop\n        /* \"contracts/error-handling/SpeedBumps.sol\":1165:1228  (bool success, ) = msg.sender.call{value: amountToWithdraw}(\"\") */\n      pop\n      swap1\n      pop\n        /* \"contracts/error-handling/SpeedBumps.sol\":1250:1257  success */\n      dup1\n        /* \"contracts/error-handling/SpeedBumps.sol\":1242:1278  require(success, \"Transfer failed.\") */\n      tag_19\n      jumpi\n      mload(0x40)\n      0x08c379a000000000000000000000000000000000000000000000000000000000\n      dup2\n      mstore\n      0x04\n      add\n      tag_20\n      swap1\n      tag_21\n      jump\t// in\n    tag_20:\n      mload(0x40)\n      dup1\n      swap2\n      sub\n      swap1\n      revert\n    tag_19:\n        /* \"contracts/error-handling/SpeedBumps.sol\":1016:1289  {... */\n      pop\n      pop\n        /* \"contracts/error-handling/SpeedBumps.sol\":885:1289  if (requestedWithdrawals[msg.sender].amount > 0 && block.timestamp > requestedWithdrawals[msg.sender].time + withdrawalWaitPeriod) {... */\n    tag_13:\n        /* \"contracts/error-handling/SpeedBumps.sol\":848:1295  function withdraw() public {... */\n      jump\t// out\n        /* \"contracts/error-handling/SpeedBumps.sol\":347:842  function requestWithdrawl() public {... */\n    tag_8:\n        /* \"contracts/error-handling/SpeedBumps.sol\":419:420  0 */\n      0x00\n        /* \"contracts/error-handling/SpeedBumps.sol\":396:404  balances */\n      dup1\n        /* \"contracts/error-handling/SpeedBumps.sol\":396:416  balances[msg.sender] */\n      0x00\n        /* \"contracts/error-handling/SpeedBumps.sol\":405:415  msg.sender */\n      caller\n        /* \"contracts/error-handling/SpeedBumps.sol\":396:416  balances[msg.sender] */\n      0xffffffffffffffffffffffffffffffffffffffff\n      and\n      0xffffffffffffffffffffffffffffffffffffffff\n      and\n      dup2\n      mstore\n      0x20\n      add\n      swap1\n      dup2\n      mstore\n      0x20\n      add\n      0x00\n      keccak256\n      sload\n        /* \"contracts/error-handling/SpeedBumps.sol\":396:420  balances[msg.sender] > 0 */\n      gt\n        /* \"contracts/error-handling/SpeedBumps.sol\":392:836  if (balances[msg.sender] > 0) {... */\n      iszero\n      tag_23\n      jumpi\n        /* \"contracts/error-handling/SpeedBumps.sol\":436:457  uint amountToWithdraw */\n      0x00\n        /* \"contracts/error-handling/SpeedBumps.sol\":460:468  balances */\n      dup1\n        /* \"contracts/error-handling/SpeedBumps.sol\":460:480  balances[msg.sender] */\n      0x00\n        /* \"contracts/error-handling/SpeedBumps.sol\":469:479  msg.sender */\n      caller\n        /* \"contracts/error-handling/SpeedBumps.sol\":460:480  balances[msg.sender] */\n      0xffffffffffffffffffffffffffffffffffffffff\n      and\n      0xffffffffffffffffffffffffffffffffffffffff\n      and\n      dup2\n      mstore\n      0x20\n      add\n      swap1\n      dup2\n      mstore\n      0x20\n      add\n      0x00\n      keccak256\n      sload\n        /* \"contracts/error-handling/SpeedBumps.sol\":436:480  uint amountToWithdraw = balances[msg.sender] */\n      swap1\n      pop\n        /* \"contracts/error-handling/SpeedBumps.sol\":517:518  0 */\n      0x00\n        /* \"contracts/error-handling/SpeedBumps.sol\":494:502  balances */\n      dup1\n        /* \"contracts/error-handling/SpeedBumps.sol\":494:514  balances[msg.sender] */\n      0x00\n        /* \"contracts/error-handling/SpeedBumps.sol\":503:513  msg.sender */\n      caller\n        /* \"contracts/error-handling/SpeedBumps.sol\":494:514  balances[msg.sender] */\n      0xffffffffffffffffffffffffffffffffffffffff\n      and\n      0xffffffffffffffffffffffffffffffffffffffff\n      and\n      dup2\n      mstore\n      0x20\n      add\n      swap1\n      dup2\n      mstore\n      0x20\n      add\n      0x00\n      keccak256\n        /* \"contracts/error-handling/SpeedBumps.sol\":494:518  balances[msg.sender] = 0 */\n      dup2\n      swap1\n      sstore\n      pop\n        /* \"contracts/error-handling/SpeedBumps.sol\":710:825  RequestedWithdrawl({... */\n      mload(0x40)\n      dup1\n      0x40\n      add\n      0x40\n      mstore\n      dup1\n        /* \"contracts/error-handling/SpeedBumps.sol\":755:771  amountToWithdraw */\n      dup3\n        /* \"contracts/error-handling/SpeedBumps.sol\":710:825  RequestedWithdrawl({... */\n      dup2\n      mstore\n      0x20\n      add\n        /* \"contracts/error-handling/SpeedBumps.sol\":795:810  block.timestamp */\n      timestamp\n        /* \"contracts/error-handling/SpeedBumps.sol\":710:825  RequestedWithdrawl({... */\n      dup2\n      mstore\n      pop\n        /* \"contracts/error-handling/SpeedBumps.sol\":675:695  requestedWithdrawals */\n      0x01\n        /* \"contracts/error-handling/SpeedBumps.sol\":675:707  requestedWithdrawals[msg.sender] */\n      0x00\n        /* \"contracts/error-handling/SpeedBumps.sol\":696:706  msg.sender */\n      caller\n        /* \"contracts/error-handling/SpeedBumps.sol\":675:707  requestedWithdrawals[msg.sender] */\n      0xffffffffffffffffffffffffffffffffffffffff\n      and\n      0xffffffffffffffffffffffffffffffffffffffff\n      and\n      dup2\n      mstore\n      0x20\n      add\n      swap1\n      dup2\n      mstore\n      0x20\n      add\n      0x00\n      keccak256\n        /* \"contracts/error-handling/SpeedBumps.sol\":675:825  requestedWithdrawals[msg.sender] = RequestedWithdrawl({... */\n      0x00\n      dup3\n      add\n      mload\n      dup2\n      0x00\n      add\n      sstore\n      0x20\n      dup3\n      add\n      mload\n      dup2\n      0x01\n      add\n      sstore\n      swap1\n      pop\n      pop\n        /* \"contracts/error-handling/SpeedBumps.sol\":422:836  {... */\n      pop\n        /* \"contracts/error-handling/SpeedBumps.sol\":392:836  if (balances[msg.sender] > 0) {... */\n    tag_23:\n        /* \"contracts/error-handling/SpeedBumps.sol\":347:842  function requestWithdrawl() public {... */\n      jump\t// out\n        /* \"#utility.yul\":7:405   */\n    tag_25:\n        /* \"#utility.yul\":166:169   */\n      0x00\n        /* \"#utility.yul\":187:270   */\n      tag_27\n        /* \"#utility.yul\":268:269   */\n      0x00\n        /* \"#utility.yul\":263:266   */\n      dup4\n        /* \"#utility.yul\":187:270   */\n      tag_28\n      jump\t// in\n    tag_27:\n        /* \"#utility.yul\":180:270   */\n      swap2\n      pop\n        /* \"#utility.yul\":279:372   */\n      tag_29\n        /* \"#utility.yul\":368:371   */\n      dup3\n        /* \"#utility.yul\":279:372   */\n      tag_30\n      jump\t// in\n    tag_29:\n        /* \"#utility.yul\":397:398   */\n      0x00\n        /* \"#utility.yul\":392:395   */\n      dup3\n        /* \"#utility.yul\":388:399   */\n      add\n        /* \"#utility.yul\":381:399   */\n      swap1\n      pop\n        /* \"#utility.yul\":7:405   */\n      swap2\n      swap1\n      pop\n      jump\t// out\n        /* \"#utility.yul\":411:777   */\n    tag_31:\n        /* \"#utility.yul\":553:556   */\n      0x00\n        /* \"#utility.yul\":574:641   */\n      tag_33\n        /* \"#utility.yul\":638:640   */\n      0x10\n        /* \"#utility.yul\":633:636   */\n      dup4\n        /* \"#utility.yul\":574:641   */\n      tag_34\n      jump\t// in\n    tag_33:\n        /* \"#utility.yul\":567:641   */\n      swap2\n      pop\n        /* \"#utility.yul\":650:743   */\n      tag_35\n        /* \"#utility.yul\":739:742   */\n      dup3\n        /* \"#utility.yul\":650:743   */\n      tag_36\n      jump\t// in\n    tag_35:\n        /* \"#utility.yul\":768:770   */\n      0x20\n        /* \"#utility.yul\":763:766   */\n      dup3\n        /* \"#utility.yul\":759:771   */\n      add\n        /* \"#utility.yul\":752:771   */\n      swap1\n      pop\n        /* \"#utility.yul\":411:777   */\n      swap2\n      swap1\n      pop\n      jump\t// out\n        /* \"#utility.yul\":783:1162   */\n    tag_15:\n        /* \"#utility.yul\":967:970   */\n      0x00\n        /* \"#utility.yul\":989:1136   */\n      tag_38\n        /* \"#utility.yul\":1132:1135   */\n      dup3\n        /* \"#utility.yul\":989:1136   */\n      tag_25\n      jump\t// in\n    tag_38:\n        /* \"#utility.yul\":982:1136   */\n      swap2\n      pop\n        /* \"#utility.yul\":1153:1156   */\n      dup2\n        /* \"#utility.yul\":1146:1156   */\n      swap1\n      pop\n        /* \"#utility.yul\":783:1162   */\n      swap2\n      swap1\n      pop\n      jump\t// out\n        /* \"#utility.yul\":1168:1587   */\n    tag_21:\n        /* \"#utility.yul\":1334:1338   */\n      0x00\n        /* \"#utility.yul\":1372:1374   */\n      0x20\n        /* \"#utility.yul\":1361:1370   */\n      dup3\n        /* \"#utility.yul\":1357:1375   */\n      add\n        /* \"#utility.yul\":1349:1375   */\n      swap1\n      pop\n        /* \"#utility.yul\":1421:1430   */\n      dup2\n        /* \"#utility.yul\":1415:1419   */\n      dup2\n        /* \"#utility.yul\":1411:1431   */\n      sub\n        /* \"#utility.yul\":1407:1408   */\n      0x00\n        /* \"#utility.yul\":1396:1405   */\n      dup4\n        /* \"#utility.yul\":1392:1409   */\n      add\n        /* \"#utility.yul\":1385:1432   */\n      mstore\n        /* \"#utility.yul\":1449:1580   */\n      tag_40\n        /* \"#utility.yul\":1575:1579   */\n      dup2\n        /* \"#utility.yul\":1449:1580   */\n      tag_31\n      jump\t// in\n    tag_40:\n        /* \"#utility.yul\":1441:1580   */\n      swap1\n      pop\n        /* \"#utility.yul\":1168:1587   */\n      swap2\n      swap1\n      pop\n      jump\t// out\n        /* \"#utility.yul\":1593:1740   */\n    tag_28:\n        /* \"#utility.yul\":1694:1705   */\n      0x00\n        /* \"#utility.yul\":1731:1734   */\n      dup2\n        /* \"#utility.yul\":1716:1734   */\n      swap1\n      pop\n        /* \"#utility.yul\":1593:1740   */\n      swap3\n      swap2\n      pop\n      pop\n      jump\t// out\n        /* \"#utility.yul\":1746:1915   */\n    tag_34:\n        /* \"#utility.yul\":1830:1841   */\n      0x00\n        /* \"#utility.yul\":1864:1870   */\n      dup3\n        /* \"#utility.yul\":1859:1862   */\n      dup3\n        /* \"#utility.yul\":1852:1871   */\n      mstore\n        /* \"#utility.yul\":1904:1908   */\n      0x20\n        /* \"#utility.yul\":1899:1902   */\n      dup3\n        /* \"#utility.yul\":1895:1909   */\n      add\n        /* \"#utility.yul\":1880:1909   */\n      swap1\n      pop\n        /* \"#utility.yul\":1746:1915   */\n      swap3\n      swap2\n      pop\n      pop\n      jump\t// out\n        /* \"#utility.yul\":1921:2226   */\n    tag_12:\n        /* \"#utility.yul\":1961:1964   */\n      0x00\n        /* \"#utility.yul\":1980:2000   */\n      tag_44\n        /* \"#utility.yul\":1998:1999   */\n      dup3\n        /* \"#utility.yul\":1980:2000   */\n      tag_45\n      jump\t// in\n    tag_44:\n        /* \"#utility.yul\":1975:2000   */\n      swap2\n      pop\n        /* \"#utility.yul\":2014:2034   */\n      tag_46\n        /* \"#utility.yul\":2032:2033   */\n      dup4\n        /* \"#utility.yul\":2014:2034   */\n      tag_45\n      jump\t// in\n    tag_46:\n        /* \"#utility.yul\":2009:2034   */\n      swap3\n      pop\n        /* \"#utility.yul\":2168:2169   */\n      dup3\n        /* \"#utility.yul\":2100:2166   */\n      0xffffffffffffffffffffffffffffffffffffffffffffffffffffffffffffffff\n        /* \"#utility.yul\":2096:2170   */\n      sub\n        /* \"#utility.yul\":2093:2094   */\n      dup3\n        /* \"#utility.yul\":2090:2171   */\n      gt\n        /* \"#utility.yul\":2087:2194   */\n      iszero\n      tag_47\n      jumpi\n        /* \"#utility.yul\":2174:2192   */\n      tag_48\n      tag_49\n      jump\t// in\n    tag_48:\n        /* \"#utility.yul\":2087:2194   */\n    tag_47:\n        /* \"#utility.yul\":2218:2219   */\n      dup3\n        /* \"#utility.yul\":2215:2216   */\n      dup3\n        /* \"#utility.yul\":2211:2220   */\n      add\n        /* \"#utility.yul\":2204:2220   */\n      swap1\n      pop\n        /* \"#utility.yul\":1921:2226   */\n      swap3\n      swap2\n      pop\n      pop\n      jump\t// out\n        /* \"#utility.yul\":2232:2309   */\n    tag_45:\n        /* \"#utility.yul\":2269:2276   */\n      0x00\n        /* \"#utility.yul\":2298:2303   */\n      dup2\n        /* \"#utility.yul\":2287:2303   */\n      swap1\n      pop\n        /* \"#utility.yul\":2232:2309   */\n      swap2\n      swap1\n      pop\n      jump\t// out\n        /* \"#utility.yul\":2315:2495   */\n    tag_49:\n        /* \"#utility.yul\":2363:2440   */\n      0x4e487b7100000000000000000000000000000000000000000000000000000000\n        /* \"#utility.yul\":2360:2361   */\n      0x00\n        /* \"#utility.yul\":2353:2441   */\n      mstore\n        /* \"#utility.yul\":2460:2464   */\n      0x11\n        /* \"#utility.yul\":2457:2458   */\n      0x04\n        /* \"#utility.yul\":2450:2465   */\n      mstore\n        /* \"#utility.yul\":2484:2488   */\n      0x24\n        /* \"#utility.yul\":2481:2482   */\n      0x00\n        /* \"#utility.yul\":2474:2489   */\n      revert\n        /* \"#utility.yul\":2501:2615   */\n    tag_30:\n      pop\n      jump\t// out\n        /* \"#utility.yul\":2621:2787   */\n    tag_36:\n        /* \"#utility.yul\":2761:2779   */\n      0x5472616e73666572206661696c65642e00000000000000000000000000000000\n        /* \"#utility.yul\":2757:2758   */\n      0x00\n        /* \"#utility.yul\":2749:2755   */\n      dup3\n        /* \"#utility.yul\":2745:2759   */\n      add\n        /* \"#utility.yul\":2738:2780   */\n      mstore\n        /* \"#utility.yul\":2621:2787   */\n      pop\n      jump\t// out\n\n    auxdata: 0xa264697066735822122078c7ed09d579aa75b1d7f4bfd124bb799954ece9198545b9d5717535dcef0dec64736f6c63430008070033\n}\n",
				"bytecode": {
					"linkReferences": {},
					"object": "608060405234801561001057600080fd5b506104fa806100206000396000f3fe608060405234801561001057600080fd5b50600436106100365760003560e01c80633ccfd60b1461003b5780639904caad14610045575b600080fd5b61004361004f565b005b61004d610235565b005b6000600160003373ffffffffffffffffffffffffffffffffffffffff1673ffffffffffffffffffffffffffffffffffffffff168152602001908152602001600020600001541180156100f057506224ea00600160003373ffffffffffffffffffffffffffffffffffffffff1673ffffffffffffffffffffffffffffffffffffffff168152602001908152602001600020600101546100ed9190610409565b42115b15610233576000600160003373ffffffffffffffffffffffffffffffffffffffff1673ffffffffffffffffffffffffffffffffffffffff1681526020019081526020016000206000015490506000600160003373ffffffffffffffffffffffffffffffffffffffff1673ffffffffffffffffffffffffffffffffffffffff1681526020019081526020016000206000018190555060003373ffffffffffffffffffffffffffffffffffffffff16826040516101aa906103b8565b60006040518083038185875af1925050503d80600081146101e7576040519150601f19603f3d011682016040523d82523d6000602084013e6101ec565b606091505b5050905080610230576040517f08c379a0000000000000000000000000000000000000000000000000000000008152600401610227906103cd565b60405180910390fd5b50505b565b60008060003373ffffffffffffffffffffffffffffffffffffffff1673ffffffffffffffffffffffffffffffffffffffff1681526020019081526020016000205411156103705760008060003373ffffffffffffffffffffffffffffffffffffffff1673ffffffffffffffffffffffffffffffffffffffff16815260200190815260200160002054905060008060003373ffffffffffffffffffffffffffffffffffffffff1673ffffffffffffffffffffffffffffffffffffffff16815260200190815260200160002081905550604051806040016040528082815260200142815250600160003373ffffffffffffffffffffffffffffffffffffffff1673ffffffffffffffffffffffffffffffffffffffff1681526020019081526020016000206000820151816000015560208201518160010155905050505b565b600061037f6000836103ed565b915061038a82610498565b600082019050919050565b60006103a26010836103f8565b91506103ad8261049b565b602082019050919050565b60006103c382610372565b9150819050919050565b600060208201905081810360008301526103e681610395565b9050919050565b600081905092915050565b600082825260208201905092915050565b60006104148261045f565b915061041f8361045f565b9250827fffffffffffffffffffffffffffffffffffffffffffffffffffffffffffffffff0382111561045457610453610469565b5b828201905092915050565b6000819050919050565b7f4e487b7100000000000000000000000000000000000000000000000000000000600052601160045260246000fd5b50565b7f5472616e73666572206661696c65642e0000000000000000000000000000000060008201525056fea264697066735822122078c7ed09d579aa75b1d7f4bfd124bb799954ece9198545b9d5717535dcef0dec64736f6c63430008070033",
					"opcodes": "PUSH1 0x80 PUSH1 0x40 MSTORE CALLVALUE DUP1 ISZERO PUSH2 0x10 JUMPI PUSH1 0x0 DUP1 REVERT JUMPDEST POP PUSH2 0x4FA DUP1 PUSH2 0x20 PUSH1 0x0 CODECOPY PUSH1 0x0 RETURN INVALID PUSH1 0x80 PUSH1 0x40 MSTORE CALLVALUE DUP1 ISZERO PUSH2 0x10 JUMPI PUSH1 0x0 DUP1 REVERT JUMPDEST POP PUSH1 0x4 CALLDATASIZE LT PUSH2 0x36 JUMPI PUSH1 0x0 CALLDATALOAD PUSH1 0xE0 SHR DUP1 PUSH4 0x3CCFD60B EQ PUSH2 0x3B JUMPI DUP1 PUSH4 0x9904CAAD EQ PUSH2 0x45 JUMPI JUMPDEST PUSH1 0x0 DUP1 REVERT JUMPDEST PUSH2 0x43 PUSH2 0x4F JUMP JUMPDEST STOP JUMPDEST PUSH2 0x4D PUSH2 0x235 JUMP JUMPDEST STOP JUMPDEST PUSH1 0x0 PUSH1 0x1 PUSH1 0x0 CALLER PUSH20 0xFFFFFFFFFFFFFFFFFFFFFFFFFFFFFFFFFFFFFFFF AND PUSH20 0xFFFFFFFFFFFFFFFFFFFFFFFFFFFFFFFFFFFFFFFF AND DUP2 MSTORE PUSH1 0x20 ADD SWAP1 DUP2 MSTORE PUSH1 0x20 ADD PUSH1 0x0 KECCAK256 PUSH1 0x0 ADD SLOAD GT DUP1 ISZERO PUSH2 0xF0 JUMPI POP PUSH3 0x24EA00 PUSH1 0x1 PUSH1 0x0 CALLER PUSH20 0xFFFFFFFFFFFFFFFFFFFFFFFFFFFFFFFFFFFFFFFF AND PUSH20 0xFFFFFFFFFFFFFFFFFFFFFFFFFFFFFFFFFFFFFFFF AND DUP2 MSTORE PUSH1 0x20 ADD SWAP1 DUP2 MSTORE PUSH1 0x20 ADD PUSH1 0x0 KECCAK256 PUSH1 0x1 ADD SLOAD PUSH2 0xED SWAP2 SWAP1 PUSH2 0x409 JUMP JUMPDEST TIMESTAMP GT JUMPDEST ISZERO PUSH2 0x233 JUMPI PUSH1 0x0 PUSH1 0x1 PUSH1 0x0 CALLER PUSH20 0xFFFFFFFFFFFFFFFFFFFFFFFFFFFFFFFFFFFFFFFF AND PUSH20 0xFFFFFFFFFFFFFFFFFFFFFFFFFFFFFFFFFFFFFFFF AND DUP2 MSTORE PUSH1 0x20 ADD SWAP1 DUP2 MSTORE PUSH1 0x20 ADD PUSH1 0x0 KECCAK256 PUSH1 0x0 ADD SLOAD SWAP1 POP PUSH1 0x0 PUSH1 0x1 PUSH1 0x0 CALLER PUSH20 0xFFFFFFFFFFFFFFFFFFFFFFFFFFFFFFFFFFFFFFFF AND PUSH20 0xFFFFFFFFFFFFFFFFFFFFFFFFFFFFFFFFFFFFFFFF AND DUP2 MSTORE PUSH1 0x20 ADD SWAP1 DUP2 MSTORE PUSH1 0x20 ADD PUSH1 0x0 KECCAK256 PUSH1 0x0 ADD DUP2 SWAP1 SSTORE POP PUSH1 0x0 CALLER PUSH20 0xFFFFFFFFFFFFFFFFFFFFFFFFFFFFFFFFFFFFFFFF AND DUP3 PUSH1 0x40 MLOAD PUSH2 0x1AA SWAP1 PUSH2 0x3B8 JUMP JUMPDEST PUSH1 0x0 PUSH1 0x40 MLOAD DUP1 DUP4 SUB DUP2 DUP6 DUP8 GAS CALL SWAP3 POP POP POP RETURNDATASIZE DUP1 PUSH1 0x0 DUP2 EQ PUSH2 0x1E7 JUMPI PUSH1 0x40 MLOAD SWAP2 POP PUSH1 0x1F NOT PUSH1 0x3F RETURNDATASIZE ADD AND DUP3 ADD PUSH1 0x40 MSTORE RETURNDATASIZE DUP3 MSTORE RETURNDATASIZE PUSH1 0x0 PUSH1 0x20 DUP5 ADD RETURNDATACOPY PUSH2 0x1EC JUMP JUMPDEST PUSH1 0x60 SWAP2 POP JUMPDEST POP POP SWAP1 POP DUP1 PUSH2 0x230 JUMPI PUSH1 0x40 MLOAD PUSH32 0x8C379A000000000000000000000000000000000000000000000000000000000 DUP2 MSTORE PUSH1 0x4 ADD PUSH2 0x227 SWAP1 PUSH2 0x3CD JUMP JUMPDEST PUSH1 0x40 MLOAD DUP1 SWAP2 SUB SWAP1 REVERT JUMPDEST POP POP JUMPDEST JUMP JUMPDEST PUSH1 0x0 DUP1 PUSH1 0x0 CALLER PUSH20 0xFFFFFFFFFFFFFFFFFFFFFFFFFFFFFFFFFFFFFFFF AND PUSH20 0xFFFFFFFFFFFFFFFFFFFFFFFFFFFFFFFFFFFFFFFF AND DUP2 MSTORE PUSH1 0x20 ADD SWAP1 DUP2 MSTORE PUSH1 0x20 ADD PUSH1 0x0 KECCAK256 SLOAD GT ISZERO PUSH2 0x370 JUMPI PUSH1 0x0 DUP1 PUSH1 0x0 CALLER PUSH20 0xFFFFFFFFFFFFFFFFFFFFFFFFFFFFFFFFFFFFFFFF AND PUSH20 0xFFFFFFFFFFFFFFFFFFFFFFFFFFFFFFFFFFFFFFFF AND DUP2 MSTORE PUSH1 0x20 ADD SWAP1 DUP2 MSTORE PUSH1 0x20 ADD PUSH1 0x0 KECCAK256 SLOAD SWAP1 POP PUSH1 0x0 DUP1 PUSH1 0x0 CALLER PUSH20 0xFFFFFFFFFFFFFFFFFFFFFFFFFFFFFFFFFFFFFFFF AND PUSH20 0xFFFFFFFFFFFFFFFFFFFFFFFFFFFFFFFFFFFFFFFF AND DUP2 MSTORE PUSH1 0x20 ADD SWAP1 DUP2 MSTORE PUSH1 0x20 ADD PUSH1 0x0 KECCAK256 DUP2 SWAP1 SSTORE POP PUSH1 0x40 MLOAD DUP1 PUSH1 0x40 ADD PUSH1 0x40 MSTORE DUP1 DUP3 DUP2 MSTORE PUSH1 0x20 ADD TIMESTAMP DUP2 MSTORE POP PUSH1 0x1 PUSH1 0x0 CALLER PUSH20 0xFFFFFFFFFFFFFFFFFFFFFFFFFFFFFFFFFFFFFFFF AND PUSH20 0xFFFFFFFFFFFFFFFFFFFFFFFFFFFFFFFFFFFFFFFF AND DUP2 MSTORE PUSH1 0x20 ADD SWAP1 DUP2 MSTORE PUSH1 0x20 ADD PUSH1 0x0 KECCAK256 PUSH1 0x0 DUP3 ADD MLOAD DUP2 PUSH1 0x0 ADD SSTORE PUSH1 0x20 DUP3 ADD MLOAD DUP2 PUSH1 0x1 ADD SSTORE SWAP1 POP POP POP JUMPDEST JUMP JUMPDEST PUSH1 0x0 PUSH2 0x37F PUSH1 0x0 DUP4 PUSH2 0x3ED JUMP JUMPDEST SWAP2 POP PUSH2 0x38A DUP3 PUSH2 0x498 JUMP JUMPDEST PUSH1 0x0 DUP3 ADD SWAP1 POP SWAP2 SWAP1 POP JUMP JUMPDEST PUSH1 0x0 PUSH2 0x3A2 PUSH1 0x10 DUP4 PUSH2 0x3F8 JUMP JUMPDEST SWAP2 POP PUSH2 0x3AD DUP3 PUSH2 0x49B JUMP JUMPDEST PUSH1 0x20 DUP3 ADD SWAP1 POP SWAP2 SWAP1 POP JUMP JUMPDEST PUSH1 0x0 PUSH2 0x3C3 DUP3 PUSH2 0x372 JUMP JUMPDEST SWAP2 POP DUP2 SWAP1 POP SWAP2 SWAP1 POP JUMP JUMPDEST PUSH1 0x0 PUSH1 0x20 DUP3 ADD SWAP1 POP DUP2 DUP2 SUB PUSH1 0x0 DUP4 ADD MSTORE PUSH2 0x3E6 DUP2 PUSH2 0x395 JUMP JUMPDEST SWAP1 POP SWAP2 SWAP1 POP JUMP JUMPDEST PUSH1 0x0 DUP2 SWAP1 POP SWAP3 SWAP2 POP POP JUMP JUMPDEST PUSH1 0x0 DUP3 DUP3 MSTORE PUSH1 0x20 DUP3 ADD SWAP1 POP SWAP3 SWAP2 POP POP JUMP JUMPDEST PUSH1 0x0 PUSH2 0x414 DUP3 PUSH2 0x45F JUMP JUMPDEST SWAP2 POP PUSH2 0x41F DUP4 PUSH2 0x45F JUMP JUMPDEST SWAP3 POP DUP3 PUSH32 0xFFFFFFFFFFFFFFFFFFFFFFFFFFFFFFFFFFFFFFFFFFFFFFFFFFFFFFFFFFFFFFFF SUB DUP3 GT ISZERO PUSH2 0x454 JUMPI PUSH2 0x453 PUSH2 0x469 JUMP JUMPDEST JUMPDEST DUP3 DUP3 ADD SWAP1 POP SWAP3 SWAP2 POP POP JUMP JUMPDEST PUSH1 0x0 DUP2 SWAP1 POP SWAP2 SWAP1 POP JUMP JUMPDEST PUSH32 0x4E487B7100000000000000000000000000000000000000000000000000000000 PUSH1 0x0 MSTORE PUSH1 0x11 PUSH1 0x4 MSTORE PUSH1 0x24 PUSH1 0x0 REVERT JUMPDEST POP JUMP JUMPDEST PUSH32 0x5472616E73666572206661696C65642E00000000000000000000000000000000 PUSH1 0x0 DUP3 ADD MSTORE POP JUMP INVALID LOG2 PUSH5 0x6970667358 0x22 SLT KECCAK256 PUSH25 0xC7ED09D579AA75B1D7F4BFD124BB799954ECE9198545B9D571 PUSH22 0x35DCEF0DEC64736F6C63430008070033000000000000 "
				},
				"gasEstimates": {
					"creation": {
						"codeDepositCost": "254800",
						"executionCost": "294",
						"totalCost": "255094"
					},
					"external": {
						"requestWithdrawl()": "54063",
						"withdraw()": "infinite"
					}
				},
				"methodIdentifiers": {
					"requestWithdrawl()": "9904caad",
					"withdraw()": "3ccfd60b"
				}
			},
			"storageLayout": {
				"storage": [
					{
						"astId": 10,
						"contract": "contracts/error-handling/SpeedBumps.sol:SpeedBumps",
						"label": "balances",
						"offset": 0,
						"slot": "0",
						"type": "t_mapping(t_address,t_uint256)"
					},
					{
						"astId": 15,
						"contract": "contracts/error-handling/SpeedBumps.sol:SpeedBumps",
						"label": "requestedWithdrawals",
						"offset": 0,
						"slot": "1",
						"type": "t_mapping(t_address,t_struct(RequestedWithdrawl)6_storage)"
					}
				],
				"types": {
					"t_address": {
						"encoding": "inplace",
						"label": "address",
						"numberOfBytes": "20"
					},
					"t_mapping(t_address,t_struct(RequestedWithdrawl)6_storage)": {
						"encoding": "mapping",
						"key": "t_address",
						"label": "mapping(address => struct SpeedBumps.RequestedWithdrawl)",
						"numberOfBytes": "32",
						"value": "t_struct(RequestedWithdrawl)6_storage"
					},
					"t_mapping(t_address,t_uint256)": {
						"encoding": "mapping",
						"key": "t_address",
						"label": "mapping(address => uint256)",
						"numberOfBytes": "32",
						"value": "t_uint256"
					},
					"t_struct(RequestedWithdrawl)6_storage": {
						"encoding": "inplace",
						"label": "struct SpeedBumps.RequestedWithdrawl",
						"members": [
							{
								"astId": 3,
								"contract": "contracts/error-handling/SpeedBumps.sol:SpeedBumps",
								"label": "amount",
								"offset": 0,
								"slot": "0",
								"type": "t_uint256"
							},
							{
								"astId": 5,
								"contract": "contracts/error-handling/SpeedBumps.sol:SpeedBumps",
								"label": "time",
								"offset": 0,
								"slot": "1",
								"type": "t_uint256"
							}
						],
						"numberOfBytes": "64"
					},
					"t_uint256": {
						"encoding": "inplace",
						"label": "uint256",
						"numberOfBytes": "32"
					}
				}
			},
			"userdoc": {
				"kind": "user",
				"methods": {},
				"version": 1
			}
		}
	}
}