{
	"contracts/governance/CrowdFund.sol": {
		"CrowdFund": {
			"abi": [
				{
					"inputs": [
						{
							"internalType": "address",
							"name": "_token",
							"type": "address"
						}
					],
					"stateMutability": "nonpayable",
					"type": "constructor"
				},
				{
					"anonymous": false,
					"inputs": [
						{
							"indexed": false,
							"internalType": "uint256",
							"name": "id",
							"type": "uint256"
						}
					],
					"name": "Cancel",
					"type": "event"
				},
				{
					"anonymous": false,
					"inputs": [
						{
							"indexed": false,
							"internalType": "uint256",
							"name": "id",
							"type": "uint256"
						}
					],
					"name": "Claim",
					"type": "event"
				},
				{
					"anonymous": false,
					"inputs": [
						{
							"indexed": false,
							"internalType": "uint256",
							"name": "id",
							"type": "uint256"
						},
						{
							"indexed": true,
							"internalType": "address",
							"name": "creator",
							"type": "address"
						},
						{
							"indexed": false,
							"internalType": "uint256",
							"name": "goal",
							"type": "uint256"
						},
						{
							"indexed": false,
							"internalType": "uint32",
							"name": "startAt",
							"type": "uint32"
						},
						{
							"indexed": false,
							"internalType": "uint32",
							"name": "endAt",
							"type": "uint32"
						}
					],
					"name": "Launch",
					"type": "event"
				},
				{
					"anonymous": false,
					"inputs": [
						{
							"indexed": true,
							"internalType": "uint256",
							"name": "id",
							"type": "uint256"
						},
						{
							"indexed": true,
							"internalType": "address",
							"name": "caller",
							"type": "address"
						},
						{
							"indexed": false,
							"internalType": "uint256",
							"name": "amount",
							"type": "uint256"
						}
					],
					"name": "Pledged",
					"type": "event"
				},
				{
					"anonymous": false,
					"inputs": [
						{
							"indexed": true,
							"internalType": "uint256",
							"name": "id",
							"type": "uint256"
						},
						{
							"indexed": true,
							"internalType": "address",
							"name": "caller",
							"type": "address"
						},
						{
							"indexed": false,
							"internalType": "uint256",
							"name": "amount",
							"type": "uint256"
						}
					],
					"name": "Refund",
					"type": "event"
				},
				{
					"anonymous": false,
					"inputs": [
						{
							"indexed": true,
							"internalType": "uint256",
							"name": "id",
							"type": "uint256"
						},
						{
							"indexed": true,
							"internalType": "address",
							"name": "caller",
							"type": "address"
						},
						{
							"indexed": false,
							"internalType": "uint256",
							"name": "amount",
							"type": "uint256"
						}
					],
					"name": "Unpledged",
					"type": "event"
				},
				{
					"inputs": [
						{
							"internalType": "uint256",
							"name": "",
							"type": "uint256"
						}
					],
					"name": "campaigns",
					"outputs": [
						{
							"internalType": "address",
							"name": "creator",
							"type": "address"
						},
						{
							"internalType": "uint256",
							"name": "goal",
							"type": "uint256"
						},
						{
							"internalType": "uint256",
							"name": "pledged",
							"type": "uint256"
						},
						{
							"internalType": "uint32",
							"name": "startAt",
							"type": "uint32"
						},
						{
							"internalType": "uint32",
							"name": "endAt",
							"type": "uint32"
						},
						{
							"internalType": "bool",
							"name": "claimed",
							"type": "bool"
						}
					],
					"stateMutability": "view",
					"type": "function"
				},
				{
					"inputs": [
						{
							"internalType": "uint256",
							"name": "_id",
							"type": "uint256"
						}
					],
					"name": "cancel",
					"outputs": [],
					"stateMutability": "nonpayable",
					"type": "function"
				},
				{
					"inputs": [
						{
							"internalType": "uint256",
							"name": "_id",
							"type": "uint256"
						}
					],
					"name": "claim",
					"outputs": [],
					"stateMutability": "nonpayable",
					"type": "function"
				},
				{
					"inputs": [],
					"name": "count",
					"outputs": [
						{
							"internalType": "uint256",
							"name": "",
							"type": "uint256"
						}
					],
					"stateMutability": "view",
					"type": "function"
				},
				{
					"inputs": [
						{
							"internalType": "uint256",
							"name": "_goal",
							"type": "uint256"
						},
						{
							"internalType": "uint32",
							"name": "_startAt",
							"type": "uint32"
						},
						{
							"internalType": "uint32",
							"name": "_endAt",
							"type": "uint32"
						}
					],
					"name": "launc",
					"outputs": [],
					"stateMutability": "nonpayable",
					"type": "function"
				},
				{
					"inputs": [
						{
							"internalType": "uint256",
							"name": "_id",
							"type": "uint256"
						},
						{
							"internalType": "uint256",
							"name": "_amount",
							"type": "uint256"
						}
					],
					"name": "pledge",
					"outputs": [],
					"stateMutability": "nonpayable",
					"type": "function"
				},
				{
					"inputs": [
						{
							"internalType": "uint256",
							"name": "",
							"type": "uint256"
						},
						{
							"internalType": "address",
							"name": "",
							"type": "address"
						}
					],
					"name": "pledgedAmount",
					"outputs": [
						{
							"internalType": "uint256",
							"name": "",
							"type": "uint256"
						}
					],
					"stateMutability": "view",
					"type": "function"
				},
				{
					"inputs": [
						{
							"internalType": "uint256",
							"name": "_id",
							"type": "uint256"
						}
					],
					"name": "refund",
					"outputs": [],
					"stateMutability": "nonpayable",
					"type": "function"
				},
				{
					"inputs": [],
					"name": "token",
					"outputs": [
						{
							"internalType": "contract IERC20",
							"name": "",
							"type": "address"
						}
					],
					"stateMutability": "view",
					"type": "function"
				},
				{
					"inputs": [
						{
							"internalType": "uint256",
							"name": "_id",
							"type": "uint256"
						},
						{
							"internalType": "uint256",
							"name": "_amount",
							"type": "uint256"
						}
					],
					"name": "unpledge",
					"outputs": [],
					"stateMutability": "nonpayable",
					"type": "function"
				}
			],
			"devdoc": {
				"kind": "dev",
				"methods": {},
				"version": 1
			},
			"evm": {
				"assembly": "    /* \"contracts/governance/CrowdFund.sol\":115:3464  contract CrowdFund {... */\n  mstore(0x40, 0xa0)\n    /* \"contracts/governance/CrowdFund.sol\":846:913  constructor(address _token) {... */\n  callvalue\n  dup1\n  iszero\n  tag_1\n  jumpi\n  0x00\n  dup1\n  revert\ntag_1:\n  pop\n  mload(0x40)\n  sub(codesize, bytecodeSize)\n  dup1\n  bytecodeSize\n  dup4\n  codecopy\n  dup2\n  dup2\n  add\n  0x40\n  mstore\n  dup2\n  add\n  swap1\n  tag_2\n  swap2\n  swap1\n  tag_3\n  jump\t// in\ntag_2:\n    /* \"contracts/governance/CrowdFund.sol\":899:905  _token */\n  dup1\n    /* \"contracts/governance/CrowdFund.sol\":884:906  token = IERC20(_token) */\n  0xffffffffffffffffffffffffffffffffffffffff\n  and\n  0x80\n  dup2\n  0xffffffffffffffffffffffffffffffffffffffff\n  and\n  0x60\n  shl\n  dup2\n  mstore\n  pop\n  pop\n    /* \"contracts/governance/CrowdFund.sol\":846:913  constructor(address _token) {... */\n  pop\n    /* \"contracts/governance/CrowdFund.sol\":115:3464  contract CrowdFund {... */\n  jump(tag_6)\n    /* \"#utility.yul\":7:150   */\ntag_8:\n    /* \"#utility.yul\":64:69   */\n  0x00\n    /* \"#utility.yul\":95:101   */\n  dup2\n    /* \"#utility.yul\":89:102   */\n  mload\n    /* \"#utility.yul\":80:102   */\n  swap1\n  pop\n    /* \"#utility.yul\":111:144   */\n  tag_10\n    /* \"#utility.yul\":138:143   */\n  dup2\n    /* \"#utility.yul\":111:144   */\n  tag_11\n  jump\t// in\ntag_10:\n    /* \"#utility.yul\":7:150   */\n  swap3\n  swap2\n  pop\n  pop\n  jump\t// out\n    /* \"#utility.yul\":156:507   */\ntag_3:\n    /* \"#utility.yul\":226:232   */\n  0x00\n    /* \"#utility.yul\":275:277   */\n  0x20\n    /* \"#utility.yul\":263:272   */\n  dup3\n    /* \"#utility.yul\":254:261   */\n  dup5\n    /* \"#utility.yul\":250:273   */\n  sub\n    /* \"#utility.yul\":246:278   */\n  slt\n    /* \"#utility.yul\":243:362   */\n  iszero\n  tag_13\n  jumpi\n    /* \"#utility.yul\":281:360   */\n  tag_14\n  tag_15\n  jump\t// in\ntag_14:\n    /* \"#utility.yul\":243:362   */\ntag_13:\n    /* \"#utility.yul\":401:402   */\n  0x00\n    /* \"#utility.yul\":426:490   */\n  tag_16\n    /* \"#utility.yul\":482:489   */\n  dup5\n    /* \"#utility.yul\":473:479   */\n  dup3\n    /* \"#utility.yul\":462:471   */\n  dup6\n    /* \"#utility.yul\":458:480   */\n  add\n    /* \"#utility.yul\":426:490   */\n  tag_8\n  jump\t// in\ntag_16:\n    /* \"#utility.yul\":416:490   */\n  swap2\n  pop\n    /* \"#utility.yul\":372:500   */\n  pop\n    /* \"#utility.yul\":156:507   */\n  swap3\n  swap2\n  pop\n  pop\n  jump\t// out\n    /* \"#utility.yul\":594:690   */\ntag_19:\n    /* \"#utility.yul\":631:638   */\n  0x00\n    /* \"#utility.yul\":660:684   */\n  tag_21\n    /* \"#utility.yul\":678:683   */\n  dup3\n    /* \"#utility.yul\":660:684   */\n  tag_22\n  jump\t// in\ntag_21:\n    /* \"#utility.yul\":649:684   */\n  swap1\n  pop\n    /* \"#utility.yul\":594:690   */\n  swap2\n  swap1\n  pop\n  jump\t// out\n    /* \"#utility.yul\":696:822   */\ntag_22:\n    /* \"#utility.yul\":733:740   */\n  0x00\n    /* \"#utility.yul\":773:815   */\n  0xffffffffffffffffffffffffffffffffffffffff\n    /* \"#utility.yul\":766:771   */\n  dup3\n    /* \"#utility.yul\":762:816   */\n  and\n    /* \"#utility.yul\":751:816   */\n  swap1\n  pop\n    /* \"#utility.yul\":696:822   */\n  swap2\n  swap1\n  pop\n  jump\t// out\n    /* \"#utility.yul\":951:1068   */\ntag_15:\n    /* \"#utility.yul\":1060:1061   */\n  0x00\n    /* \"#utility.yul\":1057:1058   */\n  dup1\n    /* \"#utility.yul\":1050:1062   */\n  revert\n    /* \"#utility.yul\":1074:1196   */\ntag_11:\n    /* \"#utility.yul\":1147:1171   */\n  tag_28\n    /* \"#utility.yul\":1165:1170   */\n  dup2\n    /* \"#utility.yul\":1147:1171   */\n  tag_19\n  jump\t// in\ntag_28:\n    /* \"#utility.yul\":1140:1145   */\n  dup2\n    /* \"#utility.yul\":1137:1172   */\n  eq\n    /* \"#utility.yul\":1127:1190   */\n  tag_29\n  jumpi\n    /* \"#utility.yul\":1186:1187   */\n  0x00\n    /* \"#utility.yul\":1183:1184   */\n  dup1\n    /* \"#utility.yul\":1176:1188   */\n  revert\n    /* \"#utility.yul\":1127:1190   */\ntag_29:\n    /* \"#utility.yul\":1074:1196   */\n  pop\n  jump\t// out\n    /* \"contracts/governance/CrowdFund.sol\":115:3464  contract CrowdFund {... */\ntag_6:\n  shr(0x60, mload(0x80))\n  codecopy(0x00, dataOffset(sub_0), dataSize(sub_0))\n  0x00\n  assignImmutable(\"0x26a975632f70533c9512e57b565b8ce8e2befee6b08dfbc27c4a897a20e2c1d6\")\n  return(0x00, dataSize(sub_0))\nstop\n\nsub_0: assembly {\n        /* \"contracts/governance/CrowdFund.sol\":115:3464  contract CrowdFund {... */\n      mstore(0x40, 0x80)\n      callvalue\n      dup1\n      iszero\n      tag_1\n      jumpi\n      0x00\n      dup1\n      revert\n    tag_1:\n      pop\n      jumpi(tag_2, lt(calldatasize, 0x04))\n      shr(0xe0, calldataload(0x00))\n      dup1\n      0x5aa6df1a\n      gt\n      tag_13\n      jumpi\n      dup1\n      0x5aa6df1a\n      eq\n      tag_8\n      jumpi\n      dup1\n      0x711853ab\n      eq\n      tag_9\n      jumpi\n      dup1\n      0xaa4fb63a\n      eq\n      tag_10\n      jumpi\n      dup1\n      0xfc0c546a\n      eq\n      tag_11\n      jumpi\n      dup1\n      0xfde327be\n      eq\n      tag_12\n      jumpi\n      jump(tag_2)\n    tag_13:\n      dup1\n      0x06661abd\n      eq\n      tag_3\n      jumpi\n      dup1\n      0x141961bc\n      eq\n      tag_4\n      jumpi\n      dup1\n      0x278ecde1\n      eq\n      tag_5\n      jumpi\n      dup1\n      0x379607f5\n      eq\n      tag_6\n      jumpi\n      dup1\n      0x40e58ee5\n      eq\n      tag_7\n      jumpi\n    tag_2:\n      0x00\n      dup1\n      revert\n        /* \"contracts/governance/CrowdFund.sol\":706:723  uint public count */\n    tag_3:\n      tag_14\n      tag_15\n      jump\t// in\n    tag_14:\n      mload(0x40)\n      tag_16\n      swap2\n      swap1\n      tag_17\n      jump\t// in\n    tag_16:\n      mload(0x40)\n      dup1\n      swap2\n      sub\n      swap1\n      return\n        /* \"contracts/governance/CrowdFund.sol\":729:771  mapping(uint => Campaign) public campaigns */\n    tag_4:\n      tag_18\n      0x04\n      dup1\n      calldatasize\n      sub\n      dup2\n      add\n      swap1\n      tag_19\n      swap2\n      swap1\n      tag_20\n      jump\t// in\n    tag_19:\n      tag_21\n      jump\t// in\n    tag_18:\n      mload(0x40)\n      tag_22\n      swap7\n      swap6\n      swap5\n      swap4\n      swap3\n      swap2\n      swap1\n      tag_23\n      jump\t// in\n    tag_22:\n      mload(0x40)\n      dup1\n      swap2\n      sub\n      swap1\n      return\n        /* \"contracts/governance/CrowdFund.sol\":3053:3462  function refund(uint _id) external {... */\n    tag_5:\n      tag_24\n      0x04\n      dup1\n      calldatasize\n      sub\n      dup2\n      add\n      swap1\n      tag_25\n      swap2\n      swap1\n      tag_20\n      jump\t// in\n    tag_25:\n      tag_26\n      jump\t// in\n    tag_24:\n      stop\n        /* \"contracts/governance/CrowdFund.sol\":2595:3047  function claim(uint _id) external {... */\n    tag_6:\n      tag_27\n      0x04\n      dup1\n      calldatasize\n      sub\n      dup2\n      add\n      swap1\n      tag_28\n      swap2\n      swap1\n      tag_20\n      jump\t// in\n    tag_28:\n      tag_29\n      jump\t// in\n    tag_27:\n      stop\n        /* \"contracts/governance/CrowdFund.sol\":1504:1782  function cancel(uint _id) external {... */\n    tag_7:\n      tag_30\n      0x04\n      dup1\n      calldatasize\n      sub\n      dup2\n      add\n      swap1\n      tag_31\n      swap2\n      swap1\n      tag_20\n      jump\t// in\n    tag_31:\n      tag_32\n      jump\t// in\n    tag_30:\n      stop\n        /* \"contracts/governance/CrowdFund.sol\":919:1498  function launc(uint _goal, uint32 _startAt, uint32 _endAt) external {... */\n    tag_8:\n      tag_33\n      0x04\n      dup1\n      calldatasize\n      sub\n      dup2\n      add\n      swap1\n      tag_34\n      swap2\n      swap1\n      tag_35\n      jump\t// in\n    tag_34:\n      tag_36\n      jump\t// in\n    tag_33:\n      stop\n        /* \"contracts/governance/CrowdFund.sol\":2233:2589  function unpledge(uint _id, uint _amount) external {... */\n    tag_9:\n      tag_37\n      0x04\n      dup1\n      calldatasize\n      sub\n      dup2\n      add\n      swap1\n      tag_38\n      swap2\n      swap1\n      tag_39\n      jump\t// in\n    tag_38:\n      tag_40\n      jump\t// in\n    tag_37:\n      stop\n        /* \"contracts/governance/CrowdFund.sol\":777:839  mapping(uint => mapping(address => uint)) public pledgedAmount */\n    tag_10:\n      tag_41\n      0x04\n      dup1\n      calldatasize\n      sub\n      dup2\n      add\n      swap1\n      tag_42\n      swap2\n      swap1\n      tag_43\n      jump\t// in\n    tag_42:\n      tag_44\n      jump\t// in\n    tag_41:\n      mload(0x40)\n      tag_45\n      swap2\n      swap1\n      tag_17\n      jump\t// in\n    tag_45:\n      mload(0x40)\n      dup1\n      swap2\n      sub\n      swap1\n      return\n        /* \"contracts/governance/CrowdFund.sol\":671:700  IERC20 public immutable token */\n    tag_11:\n      tag_46\n      tag_47\n      jump\t// in\n    tag_46:\n      mload(0x40)\n      tag_48\n      swap2\n      swap1\n      tag_49\n      jump\t// in\n    tag_48:\n      mload(0x40)\n      dup1\n      swap2\n      sub\n      swap1\n      return\n        /* \"contracts/governance/CrowdFund.sol\":1788:2227  function pledge(uint _id, uint _amount) external {... */\n    tag_12:\n      tag_50\n      0x04\n      dup1\n      calldatasize\n      sub\n      dup2\n      add\n      swap1\n      tag_51\n      swap2\n      swap1\n      tag_39\n      jump\t// in\n    tag_51:\n      tag_52\n      jump\t// in\n    tag_50:\n      stop\n        /* \"contracts/governance/CrowdFund.sol\":706:723  uint public count */\n    tag_15:\n      sload(0x00)\n      dup2\n      jump\t// out\n        /* \"contracts/governance/CrowdFund.sol\":729:771  mapping(uint => Campaign) public campaigns */\n    tag_21:\n      mstore(0x20, 0x01)\n      dup1\n      0x00\n      mstore\n      keccak256(0x00, 0x40)\n      0x00\n      swap2\n      pop\n      swap1\n      pop\n      dup1\n      0x00\n      add\n      0x00\n      swap1\n      sload\n      swap1\n      0x0100\n      exp\n      swap1\n      div\n      0xffffffffffffffffffffffffffffffffffffffff\n      and\n      swap1\n      dup1\n      0x01\n      add\n      sload\n      swap1\n      dup1\n      0x02\n      add\n      sload\n      swap1\n      dup1\n      0x03\n      add\n      0x00\n      swap1\n      sload\n      swap1\n      0x0100\n      exp\n      swap1\n      div\n      0xffffffff\n      and\n      swap1\n      dup1\n      0x03\n      add\n      0x04\n      swap1\n      sload\n      swap1\n      0x0100\n      exp\n      swap1\n      div\n      0xffffffff\n      and\n      swap1\n      dup1\n      0x03\n      add\n      0x08\n      swap1\n      sload\n      swap1\n      0x0100\n      exp\n      swap1\n      div\n      0xff\n      and\n      swap1\n      pop\n      dup7\n      jump\t// out\n        /* \"contracts/governance/CrowdFund.sol\":3053:3462  function refund(uint _id) external {... */\n    tag_26:\n        /* \"contracts/governance/CrowdFund.sol\":3098:3123  Campaign storage campaign */\n      0x00\n        /* \"contracts/governance/CrowdFund.sol\":3126:3135  campaigns */\n      0x01\n        /* \"contracts/governance/CrowdFund.sol\":3126:3140  campaigns[_id] */\n      0x00\n        /* \"contracts/governance/CrowdFund.sol\":3136:3139  _id */\n      dup4\n        /* \"contracts/governance/CrowdFund.sol\":3126:3140  campaigns[_id] */\n      dup2\n      mstore\n      0x20\n      add\n      swap1\n      dup2\n      mstore\n      0x20\n      add\n      0x00\n      keccak256\n        /* \"contracts/governance/CrowdFund.sol\":3098:3140  Campaign storage campaign = campaigns[_id] */\n      swap1\n      pop\n        /* \"contracts/governance/CrowdFund.sol\":3176:3184  campaign */\n      dup1\n        /* \"contracts/governance/CrowdFund.sol\":3176:3190  campaign.endAt */\n      0x03\n      add\n      0x04\n      swap1\n      sload\n      swap1\n      0x0100\n      exp\n      swap1\n      div\n      0xffffffff\n      and\n        /* \"contracts/governance/CrowdFund.sol\":3158:3190  block.timestamp > campaign.endAt */\n      0xffffffff\n      and\n        /* \"contracts/governance/CrowdFund.sol\":3158:3173  block.timestamp */\n      timestamp\n        /* \"contracts/governance/CrowdFund.sol\":3158:3190  block.timestamp > campaign.endAt */\n      gt\n        /* \"contracts/governance/CrowdFund.sol\":3150:3204  require(block.timestamp > campaign.endAt, \"not ended\") */\n      tag_54\n      jumpi\n      mload(0x40)\n      0x08c379a000000000000000000000000000000000000000000000000000000000\n      dup2\n      mstore\n      0x04\n      add\n      tag_55\n      swap1\n      tag_56\n      jump\t// in\n    tag_55:\n      mload(0x40)\n      dup1\n      swap2\n      sub\n      swap1\n      revert\n    tag_54:\n        /* \"contracts/governance/CrowdFund.sol\":3242:3250  campaign */\n      dup1\n        /* \"contracts/governance/CrowdFund.sol\":3242:3255  campaign.goal */\n      0x01\n      add\n      sload\n        /* \"contracts/governance/CrowdFund.sol\":3222:3230  campaign */\n      dup2\n        /* \"contracts/governance/CrowdFund.sol\":3222:3238  campaign.pledged */\n      0x02\n      add\n      sload\n        /* \"contracts/governance/CrowdFund.sol\":3222:3255  campaign.pledged >= campaign.goal */\n      lt\n      iszero\n        /* \"contracts/governance/CrowdFund.sol\":3214:3274  require(campaign.pledged >= campaign.goal, \"pledged < goal\") */\n      tag_57\n      jumpi\n      mload(0x40)\n      0x08c379a000000000000000000000000000000000000000000000000000000000\n      dup2\n      mstore\n      0x04\n      add\n      tag_58\n      swap1\n      tag_59\n      jump\t// in\n    tag_58:\n      mload(0x40)\n      dup1\n      swap2\n      sub\n      swap1\n      revert\n    tag_57:\n        /* \"contracts/governance/CrowdFund.sol\":3285:3293  uint bal */\n      0x00\n        /* \"contracts/governance/CrowdFund.sol\":3296:3309  pledgedAmount */\n      0x02\n        /* \"contracts/governance/CrowdFund.sol\":3296:3314  pledgedAmount[_id] */\n      0x00\n        /* \"contracts/governance/CrowdFund.sol\":3310:3313  _id */\n      dup5\n        /* \"contracts/governance/CrowdFund.sol\":3296:3314  pledgedAmount[_id] */\n      dup2\n      mstore\n      0x20\n      add\n      swap1\n      dup2\n      mstore\n      0x20\n      add\n      0x00\n      keccak256\n        /* \"contracts/governance/CrowdFund.sol\":3296:3326  pledgedAmount[_id][msg.sender] */\n      0x00\n        /* \"contracts/governance/CrowdFund.sol\":3315:3325  msg.sender */\n      caller\n        /* \"contracts/governance/CrowdFund.sol\":3296:3326  pledgedAmount[_id][msg.sender] */\n      0xffffffffffffffffffffffffffffffffffffffff\n      and\n      0xffffffffffffffffffffffffffffffffffffffff\n      and\n      dup2\n      mstore\n      0x20\n      add\n      swap1\n      dup2\n      mstore\n      0x20\n      add\n      0x00\n      keccak256\n      sload\n        /* \"contracts/governance/CrowdFund.sol\":3285:3326  uint bal = pledgedAmount[_id][msg.sender] */\n      swap1\n      pop\n        /* \"contracts/governance/CrowdFund.sol\":3369:3370  0 */\n      0x00\n        /* \"contracts/governance/CrowdFund.sol\":3336:3349  pledgedAmount */\n      0x02\n        /* \"contracts/governance/CrowdFund.sol\":3336:3354  pledgedAmount[_id] */\n      0x00\n        /* \"contracts/governance/CrowdFund.sol\":3350:3353  _id */\n      dup6\n        /* \"contracts/governance/CrowdFund.sol\":3336:3354  pledgedAmount[_id] */\n      dup2\n      mstore\n      0x20\n      add\n      swap1\n      dup2\n      mstore\n      0x20\n      add\n      0x00\n      keccak256\n        /* \"contracts/governance/CrowdFund.sol\":3336:3366  pledgedAmount[_id][msg.sender] */\n      0x00\n        /* \"contracts/governance/CrowdFund.sol\":3355:3365  msg.sender */\n      caller\n        /* \"contracts/governance/CrowdFund.sol\":3336:3366  pledgedAmount[_id][msg.sender] */\n      0xffffffffffffffffffffffffffffffffffffffff\n      and\n      0xffffffffffffffffffffffffffffffffffffffff\n      and\n      dup2\n      mstore\n      0x20\n      add\n      swap1\n      dup2\n      mstore\n      0x20\n      add\n      0x00\n      keccak256\n        /* \"contracts/governance/CrowdFund.sol\":3336:3370  pledgedAmount[_id][msg.sender] = 0 */\n      dup2\n      swap1\n      sstore\n      pop\n        /* \"contracts/governance/CrowdFund.sol\":3380:3385  token */\n      immutable(\"0x26a975632f70533c9512e57b565b8ce8e2befee6b08dfbc27c4a897a20e2c1d6\")\n        /* \"contracts/governance/CrowdFund.sol\":3380:3394  token.transfer */\n      0xffffffffffffffffffffffffffffffffffffffff\n      and\n      0xa9059cbb\n        /* \"contracts/governance/CrowdFund.sol\":3395:3405  msg.sender */\n      caller\n        /* \"contracts/governance/CrowdFund.sol\":3407:3410  bal */\n      dup4\n        /* \"contracts/governance/CrowdFund.sol\":3380:3411  token.transfer(msg.sender, bal) */\n      mload(0x40)\n      dup4\n      0xffffffff\n      and\n      0xe0\n      shl\n      dup2\n      mstore\n      0x04\n      add\n      tag_60\n      swap3\n      swap2\n      swap1\n      tag_61\n      jump\t// in\n    tag_60:\n      0x20\n      mload(0x40)\n      dup1\n      dup4\n      sub\n      dup2\n      0x00\n      dup8\n      dup1\n      extcodesize\n      iszero\n      dup1\n      iszero\n      tag_62\n      jumpi\n      0x00\n      dup1\n      revert\n    tag_62:\n      pop\n      gas\n      call\n      iszero\n      dup1\n      iszero\n      tag_64\n      jumpi\n      returndatasize\n      0x00\n      dup1\n      returndatacopy\n      revert(0x00, returndatasize)\n    tag_64:\n      pop\n      pop\n      pop\n      pop\n      mload(0x40)\n      returndatasize\n      not(0x1f)\n      0x1f\n      dup3\n      add\n      and\n      dup3\n      add\n      dup1\n      0x40\n      mstore\n      pop\n      dup2\n      add\n      swap1\n      tag_65\n      swap2\n      swap1\n      tag_66\n      jump\t// in\n    tag_65:\n      pop\n        /* \"contracts/governance/CrowdFund.sol\":3439:3449  msg.sender */\n      caller\n        /* \"contracts/governance/CrowdFund.sol\":3427:3455  Refund(_id, msg.sender, bal) */\n      0xffffffffffffffffffffffffffffffffffffffff\n      and\n        /* \"contracts/governance/CrowdFund.sol\":3434:3437  _id */\n      dup4\n        /* \"contracts/governance/CrowdFund.sol\":3427:3455  Refund(_id, msg.sender, bal) */\n      0x21e12a7cad0da5928167e1084ea4d5fdf8d9af66657a2543a9ac76a0ca081477\n        /* \"contracts/governance/CrowdFund.sol\":3451:3454  bal */\n      dup4\n        /* \"contracts/governance/CrowdFund.sol\":3427:3455  Refund(_id, msg.sender, bal) */\n      mload(0x40)\n      tag_67\n      swap2\n      swap1\n      tag_17\n      jump\t// in\n    tag_67:\n      mload(0x40)\n      dup1\n      swap2\n      sub\n      swap1\n      log3\n        /* \"contracts/governance/CrowdFund.sol\":3088:3462  {... */\n      pop\n      pop\n        /* \"contracts/governance/CrowdFund.sol\":3053:3462  function refund(uint _id) external {... */\n      pop\n      jump\t// out\n        /* \"contracts/governance/CrowdFund.sol\":2595:3047  function claim(uint _id) external {... */\n    tag_29:\n        /* \"contracts/governance/CrowdFund.sol\":2639:2664  Campaign storage campaign */\n      0x00\n        /* \"contracts/governance/CrowdFund.sol\":2667:2676  campaigns */\n      0x01\n        /* \"contracts/governance/CrowdFund.sol\":2667:2681  campaigns[_id] */\n      0x00\n        /* \"contracts/governance/CrowdFund.sol\":2677:2680  _id */\n      dup4\n        /* \"contracts/governance/CrowdFund.sol\":2667:2681  campaigns[_id] */\n      dup2\n      mstore\n      0x20\n      add\n      swap1\n      dup2\n      mstore\n      0x20\n      add\n      0x00\n      keccak256\n        /* \"contracts/governance/CrowdFund.sol\":2639:2681  Campaign storage campaign = campaigns[_id] */\n      swap1\n      pop\n        /* \"contracts/governance/CrowdFund.sol\":2713:2721  campaign */\n      dup1\n        /* \"contracts/governance/CrowdFund.sol\":2713:2729  campaign.creator */\n      0x00\n      add\n      0x00\n      swap1\n      sload\n      swap1\n      0x0100\n      exp\n      swap1\n      div\n      0xffffffffffffffffffffffffffffffffffffffff\n      and\n        /* \"contracts/governance/CrowdFund.sol\":2699:2729  msg.sender == campaign.creator */\n      0xffffffffffffffffffffffffffffffffffffffff\n      and\n        /* \"contracts/governance/CrowdFund.sol\":2699:2709  msg.sender */\n      caller\n        /* \"contracts/governance/CrowdFund.sol\":2699:2729  msg.sender == campaign.creator */\n      0xffffffffffffffffffffffffffffffffffffffff\n      and\n      eq\n        /* \"contracts/governance/CrowdFund.sol\":2691:2745  require(msg.sender == campaign.creator, \"not creator\") */\n      tag_69\n      jumpi\n      mload(0x40)\n      0x08c379a000000000000000000000000000000000000000000000000000000000\n      dup2\n      mstore\n      0x04\n      add\n      tag_70\n      swap1\n      tag_71\n      jump\t// in\n    tag_70:\n      mload(0x40)\n      dup1\n      swap2\n      sub\n      swap1\n      revert\n    tag_69:\n        /* \"contracts/governance/CrowdFund.sol\":2781:2789  campaign */\n      dup1\n        /* \"contracts/governance/CrowdFund.sol\":2781:2795  campaign.endAt */\n      0x03\n      add\n      0x04\n      swap1\n      sload\n      swap1\n      0x0100\n      exp\n      swap1\n      div\n      0xffffffff\n      and\n        /* \"contracts/governance/CrowdFund.sol\":2763:2795  block.timestamp > campaign.endAt */\n      0xffffffff\n      and\n        /* \"contracts/governance/CrowdFund.sol\":2763:2778  block.timestamp */\n      timestamp\n        /* \"contracts/governance/CrowdFund.sol\":2763:2795  block.timestamp > campaign.endAt */\n      gt\n        /* \"contracts/governance/CrowdFund.sol\":2755:2809  require(block.timestamp > campaign.endAt, \"not ended\") */\n      tag_72\n      jumpi\n      mload(0x40)\n      0x08c379a000000000000000000000000000000000000000000000000000000000\n      dup2\n      mstore\n      0x04\n      add\n      tag_73\n      swap1\n      tag_56\n      jump\t// in\n    tag_73:\n      mload(0x40)\n      dup1\n      swap2\n      sub\n      swap1\n      revert\n    tag_72:\n        /* \"contracts/governance/CrowdFund.sol\":2847:2855  campaign */\n      dup1\n        /* \"contracts/governance/CrowdFund.sol\":2847:2860  campaign.goal */\n      0x01\n      add\n      sload\n        /* \"contracts/governance/CrowdFund.sol\":2827:2835  campaign */\n      dup2\n        /* \"contracts/governance/CrowdFund.sol\":2827:2843  campaign.pledged */\n      0x02\n      add\n      sload\n        /* \"contracts/governance/CrowdFund.sol\":2827:2860  campaign.pledged >= campaign.goal */\n      lt\n      iszero\n        /* \"contracts/governance/CrowdFund.sol\":2819:2879  require(campaign.pledged >= campaign.goal, \"pledged < goal\") */\n      tag_74\n      jumpi\n      mload(0x40)\n      0x08c379a000000000000000000000000000000000000000000000000000000000\n      dup2\n      mstore\n      0x04\n      add\n      tag_75\n      swap1\n      tag_59\n      jump\t// in\n    tag_75:\n      mload(0x40)\n      dup1\n      swap2\n      sub\n      swap1\n      revert\n    tag_74:\n        /* \"contracts/governance/CrowdFund.sol\":2898:2906  campaign */\n      dup1\n        /* \"contracts/governance/CrowdFund.sol\":2898:2914  campaign.claimed */\n      0x03\n      add\n      0x08\n      swap1\n      sload\n      swap1\n      0x0100\n      exp\n      swap1\n      div\n      0xff\n      and\n        /* \"contracts/governance/CrowdFund.sol\":2897:2914  !campaign.claimed */\n      iszero\n        /* \"contracts/governance/CrowdFund.sol\":2889:2926  require(!campaign.claimed, \"claimed\") */\n      tag_76\n      jumpi\n      mload(0x40)\n      0x08c379a000000000000000000000000000000000000000000000000000000000\n      dup2\n      mstore\n      0x04\n      add\n      tag_77\n      swap1\n      tag_78\n      jump\t// in\n    tag_77:\n      mload(0x40)\n      dup1\n      swap2\n      sub\n      swap1\n      revert\n    tag_76:\n        /* \"contracts/governance/CrowdFund.sol\":2956:2960  true */\n      0x01\n        /* \"contracts/governance/CrowdFund.sol\":2937:2945  campaign */\n      dup2\n        /* \"contracts/governance/CrowdFund.sol\":2937:2953  campaign.claimed */\n      0x03\n      add\n      0x08\n        /* \"contracts/governance/CrowdFund.sol\":2937:2960  campaign.claimed = true */\n      0x0100\n      exp\n      dup2\n      sload\n      dup2\n      0xff\n      mul\n      not\n      and\n      swap1\n      dup4\n      iszero\n      iszero\n      mul\n      or\n      swap1\n      sstore\n      pop\n        /* \"contracts/governance/CrowdFund.sol\":2970:2975  token */\n      immutable(\"0x26a975632f70533c9512e57b565b8ce8e2befee6b08dfbc27c4a897a20e2c1d6\")\n        /* \"contracts/governance/CrowdFund.sol\":2970:2984  token.transfer */\n      0xffffffffffffffffffffffffffffffffffffffff\n      and\n      0xa9059cbb\n        /* \"contracts/governance/CrowdFund.sol\":2985:2995  msg.sender */\n      caller\n        /* \"contracts/governance/CrowdFund.sol\":2997:3005  campaign */\n      dup4\n        /* \"contracts/governance/CrowdFund.sol\":2997:3013  campaign.pledged */\n      0x02\n      add\n      sload\n        /* \"contracts/governance/CrowdFund.sol\":2970:3014  token.transfer(msg.sender, campaign.pledged) */\n      mload(0x40)\n      dup4\n      0xffffffff\n      and\n      0xe0\n      shl\n      dup2\n      mstore\n      0x04\n      add\n      tag_79\n      swap3\n      swap2\n      swap1\n      tag_61\n      jump\t// in\n    tag_79:\n      0x20\n      mload(0x40)\n      dup1\n      dup4\n      sub\n      dup2\n      0x00\n      dup8\n      dup1\n      extcodesize\n      iszero\n      dup1\n      iszero\n      tag_80\n      jumpi\n      0x00\n      dup1\n      revert\n    tag_80:\n      pop\n      gas\n      call\n      iszero\n      dup1\n      iszero\n      tag_82\n      jumpi\n      returndatasize\n      0x00\n      dup1\n      returndatacopy\n      revert(0x00, returndatasize)\n    tag_82:\n      pop\n      pop\n      pop\n      pop\n      mload(0x40)\n      returndatasize\n      not(0x1f)\n      0x1f\n      dup3\n      add\n      and\n      dup3\n      add\n      dup1\n      0x40\n      mstore\n      pop\n      dup2\n      add\n      swap1\n      tag_83\n      swap2\n      swap1\n      tag_66\n      jump\t// in\n    tag_83:\n      pop\n        /* \"contracts/governance/CrowdFund.sol\":3030:3040  Claim(_id) */\n      0x7bb2b3c10797baccb6f8c4791f1edd6ca2f0d028ee0eda64b01a9a57e3a653f7\n        /* \"contracts/governance/CrowdFund.sol\":3036:3039  _id */\n      dup3\n        /* \"contracts/governance/CrowdFund.sol\":3030:3040  Claim(_id) */\n      mload(0x40)\n      tag_84\n      swap2\n      swap1\n      tag_17\n      jump\t// in\n    tag_84:\n      mload(0x40)\n      dup1\n      swap2\n      sub\n      swap1\n      log1\n        /* \"contracts/governance/CrowdFund.sol\":2629:3047  {... */\n      pop\n        /* \"contracts/governance/CrowdFund.sol\":2595:3047  function claim(uint _id) external {... */\n      pop\n      jump\t// out\n        /* \"contracts/governance/CrowdFund.sol\":1504:1782  function cancel(uint _id) external {... */\n    tag_32:\n        /* \"contracts/governance/CrowdFund.sol\":1549:1573  Campaign memory campaign */\n      0x00\n        /* \"contracts/governance/CrowdFund.sol\":1576:1585  campaigns */\n      0x01\n        /* \"contracts/governance/CrowdFund.sol\":1576:1590  campaigns[_id] */\n      0x00\n        /* \"contracts/governance/CrowdFund.sol\":1586:1589  _id */\n      dup4\n        /* \"contracts/governance/CrowdFund.sol\":1576:1590  campaigns[_id] */\n      dup2\n      mstore\n      0x20\n      add\n      swap1\n      dup2\n      mstore\n      0x20\n      add\n      0x00\n      keccak256\n        /* \"contracts/governance/CrowdFund.sol\":1549:1590  Campaign memory campaign = campaigns[_id] */\n      mload(0x40)\n      dup1\n      0xc0\n      add\n      0x40\n      mstore\n      swap1\n      dup2\n      0x00\n      dup3\n      add\n      0x00\n      swap1\n      sload\n      swap1\n      0x0100\n      exp\n      swap1\n      div\n      0xffffffffffffffffffffffffffffffffffffffff\n      and\n      0xffffffffffffffffffffffffffffffffffffffff\n      and\n      0xffffffffffffffffffffffffffffffffffffffff\n      and\n      dup2\n      mstore\n      0x20\n      add\n      0x01\n      dup3\n      add\n      sload\n      dup2\n      mstore\n      0x20\n      add\n      0x02\n      dup3\n      add\n      sload\n      dup2\n      mstore\n      0x20\n      add\n      0x03\n      dup3\n      add\n      0x00\n      swap1\n      sload\n      swap1\n      0x0100\n      exp\n      swap1\n      div\n      0xffffffff\n      and\n      0xffffffff\n      and\n      0xffffffff\n      and\n      dup2\n      mstore\n      0x20\n      add\n      0x03\n      dup3\n      add\n      0x04\n      swap1\n      sload\n      swap1\n      0x0100\n      exp\n      swap1\n      div\n      0xffffffff\n      and\n      0xffffffff\n      and\n      0xffffffff\n      and\n      dup2\n      mstore\n      0x20\n      add\n      0x03\n      dup3\n      add\n      0x08\n      swap1\n      sload\n      swap1\n      0x0100\n      exp\n      swap1\n      div\n      0xff\n      and\n      iszero\n      iszero\n      iszero\n      iszero\n      dup2\n      mstore\n      pop\n      pop\n      swap1\n      pop\n        /* \"contracts/governance/CrowdFund.sol\":1622:1630  campaign */\n      dup1\n        /* \"contracts/governance/CrowdFund.sol\":1622:1638  campaign.creator */\n      0x00\n      add\n      mload\n        /* \"contracts/governance/CrowdFund.sol\":1608:1638  msg.sender == campaign.creator */\n      0xffffffffffffffffffffffffffffffffffffffff\n      and\n        /* \"contracts/governance/CrowdFund.sol\":1608:1618  msg.sender */\n      caller\n        /* \"contracts/governance/CrowdFund.sol\":1608:1638  msg.sender == campaign.creator */\n      0xffffffffffffffffffffffffffffffffffffffff\n      and\n      eq\n        /* \"contracts/governance/CrowdFund.sol\":1600:1654  require(msg.sender == campaign.creator, \"not creator\") */\n      tag_86\n      jumpi\n      mload(0x40)\n      0x08c379a000000000000000000000000000000000000000000000000000000000\n      dup2\n      mstore\n      0x04\n      add\n      tag_87\n      swap1\n      tag_71\n      jump\t// in\n    tag_87:\n      mload(0x40)\n      dup1\n      swap2\n      sub\n      swap1\n      revert\n    tag_86:\n        /* \"contracts/governance/CrowdFund.sol\":1690:1698  campaign */\n      dup1\n        /* \"contracts/governance/CrowdFund.sol\":1690:1706  campaign.startAt */\n      0x60\n      add\n      mload\n        /* \"contracts/governance/CrowdFund.sol\":1672:1706  block.timestamp < campaign.startAt */\n      0xffffffff\n      and\n        /* \"contracts/governance/CrowdFund.sol\":1672:1687  block.timestamp */\n      timestamp\n        /* \"contracts/governance/CrowdFund.sol\":1672:1706  block.timestamp < campaign.startAt */\n      lt\n        /* \"contracts/governance/CrowdFund.sol\":1664:1718  require(block.timestamp < campaign.startAt, \"started\") */\n      tag_88\n      jumpi\n      mload(0x40)\n      0x08c379a000000000000000000000000000000000000000000000000000000000\n      dup2\n      mstore\n      0x04\n      add\n      tag_89\n      swap1\n      tag_90\n      jump\t// in\n    tag_89:\n      mload(0x40)\n      dup1\n      swap2\n      sub\n      swap1\n      revert\n    tag_88:\n        /* \"contracts/governance/CrowdFund.sol\":1735:1744  campaigns */\n      0x01\n        /* \"contracts/governance/CrowdFund.sol\":1735:1749  campaigns[_id] */\n      0x00\n        /* \"contracts/governance/CrowdFund.sol\":1745:1748  _id */\n      dup4\n        /* \"contracts/governance/CrowdFund.sol\":1735:1749  campaigns[_id] */\n      dup2\n      mstore\n      0x20\n      add\n      swap1\n      dup2\n      mstore\n      0x20\n      add\n      0x00\n      keccak256\n      0x00\n        /* \"contracts/governance/CrowdFund.sol\":1728:1749  delete campaigns[_id] */\n      dup1\n      dup3\n      add\n      exp(0x0100, 0x00)\n      dup2\n      sload\n      swap1\n      0xffffffffffffffffffffffffffffffffffffffff\n      mul\n      not\n      and\n      swap1\n      sstore\n      0x01\n      dup3\n      add\n      0x00\n      swap1\n      sstore\n      0x02\n      dup3\n      add\n      0x00\n      swap1\n      sstore\n      0x03\n      dup3\n      add\n      exp(0x0100, 0x00)\n      dup2\n      sload\n      swap1\n      0xffffffff\n      mul\n      not\n      and\n      swap1\n      sstore\n      0x03\n      dup3\n      add\n      exp(0x0100, 0x04)\n      dup2\n      sload\n      swap1\n      0xffffffff\n      mul\n      not\n      and\n      swap1\n      sstore\n      0x03\n      dup3\n      add\n      exp(0x0100, 0x08)\n      dup2\n      sload\n      swap1\n      0xff\n      mul\n      not\n      and\n      swap1\n      sstore\n      pop\n      pop\n        /* \"contracts/governance/CrowdFund.sol\":1764:1775  Cancel(_id) */\n      0x8bf30e7ff26833413be5f69e1d373744864d600b664204b4a2f9844a8eedb9ed\n        /* \"contracts/governance/CrowdFund.sol\":1771:1774  _id */\n      dup3\n        /* \"contracts/governance/CrowdFund.sol\":1764:1775  Cancel(_id) */\n      mload(0x40)\n      tag_91\n      swap2\n      swap1\n      tag_17\n      jump\t// in\n    tag_91:\n      mload(0x40)\n      dup1\n      swap2\n      sub\n      swap1\n      log1\n        /* \"contracts/governance/CrowdFund.sol\":1539:1782  {... */\n      pop\n        /* \"contracts/governance/CrowdFund.sol\":1504:1782  function cancel(uint _id) external {... */\n      pop\n      jump\t// out\n        /* \"contracts/governance/CrowdFund.sol\":919:1498  function launc(uint _goal, uint32 _startAt, uint32 _endAt) external {... */\n    tag_36:\n        /* \"contracts/governance/CrowdFund.sol\":1017:1032  block.timestamp */\n      timestamp\n        /* \"contracts/governance/CrowdFund.sol\":1005:1013  _startAt */\n      dup3\n        /* \"contracts/governance/CrowdFund.sol\":1005:1032  _startAt >= block.timestamp */\n      0xffffffff\n      and\n      lt\n      iszero\n        /* \"contracts/governance/CrowdFund.sol\":997:1051  require(_startAt >= block.timestamp, \"start at < now\") */\n      tag_93\n      jumpi\n      mload(0x40)\n      0x08c379a000000000000000000000000000000000000000000000000000000000\n      dup2\n      mstore\n      0x04\n      add\n      tag_94\n      swap1\n      tag_95\n      jump\t// in\n    tag_94:\n      mload(0x40)\n      dup1\n      swap2\n      sub\n      swap1\n      revert\n    tag_93:\n        /* \"contracts/governance/CrowdFund.sol\":1079:1087  _startAt */\n      dup2\n        /* \"contracts/governance/CrowdFund.sol\":1069:1087  _endAt >= _startAt */\n      0xffffffff\n      and\n        /* \"contracts/governance/CrowdFund.sol\":1069:1075  _endAt */\n      dup2\n        /* \"contracts/governance/CrowdFund.sol\":1069:1087  _endAt >= _startAt */\n      0xffffffff\n      and\n      lt\n      iszero\n        /* \"contracts/governance/CrowdFund.sol\":1061:1109  require(_endAt >= _startAt, \"end at < start at\") */\n      tag_96\n      jumpi\n      mload(0x40)\n      0x08c379a000000000000000000000000000000000000000000000000000000000\n      dup2\n      mstore\n      0x04\n      add\n      tag_97\n      swap1\n      tag_98\n      jump\t// in\n    tag_97:\n      mload(0x40)\n      dup1\n      swap2\n      sub\n      swap1\n      revert\n    tag_96:\n        /* \"contracts/governance/CrowdFund.sol\":1155:1162  90 days */\n      0x76a700\n        /* \"contracts/governance/CrowdFund.sol\":1137:1152  block.timestamp */\n      timestamp\n        /* \"contracts/governance/CrowdFund.sol\":1137:1162  block.timestamp + 90 days */\n      tag_99\n      swap2\n      swap1\n      tag_100\n      jump\t// in\n    tag_99:\n        /* \"contracts/governance/CrowdFund.sol\":1127:1133  _endAt */\n      dup2\n        /* \"contracts/governance/CrowdFund.sol\":1127:1162  _endAt <= block.timestamp + 90 days */\n      0xffffffff\n      and\n      gt\n      iszero\n        /* \"contracts/governance/CrowdFund.sol\":1119:1188  require(_endAt <= block.timestamp + 90 days, \"end at > max duration\") */\n      tag_101\n      jumpi\n      mload(0x40)\n      0x08c379a000000000000000000000000000000000000000000000000000000000\n      dup2\n      mstore\n      0x04\n      add\n      tag_102\n      swap1\n      tag_103\n      jump\t// in\n    tag_102:\n      mload(0x40)\n      dup1\n      swap2\n      sub\n      swap1\n      revert\n    tag_101:\n        /* \"contracts/governance/CrowdFund.sol\":1207:1208  1 */\n      0x01\n        /* \"contracts/governance/CrowdFund.sol\":1198:1203  count */\n      0x00\n      dup1\n        /* \"contracts/governance/CrowdFund.sol\":1198:1208  count += 1 */\n      dup3\n      dup3\n      sload\n      tag_104\n      swap2\n      swap1\n      tag_100\n      jump\t// in\n    tag_104:\n      swap3\n      pop\n      pop\n      dup2\n      swap1\n      sstore\n      pop\n        /* \"contracts/governance/CrowdFund.sol\":1237:1425  Campaign({... */\n      mload(0x40)\n      dup1\n      0xc0\n      add\n      0x40\n      mstore\n      dup1\n        /* \"contracts/governance/CrowdFund.sol\":1269:1279  msg.sender */\n      caller\n        /* \"contracts/governance/CrowdFund.sol\":1237:1425  Campaign({... */\n      0xffffffffffffffffffffffffffffffffffffffff\n      and\n      dup2\n      mstore\n      0x20\n      add\n        /* \"contracts/governance/CrowdFund.sol\":1299:1304  _goal */\n      dup5\n        /* \"contracts/governance/CrowdFund.sol\":1237:1425  Campaign({... */\n      dup2\n      mstore\n      0x20\n      add\n        /* \"contracts/governance/CrowdFund.sol\":1327:1328  0 */\n      0x00\n        /* \"contracts/governance/CrowdFund.sol\":1237:1425  Campaign({... */\n      dup2\n      mstore\n      0x20\n      add\n        /* \"contracts/governance/CrowdFund.sol\":1351:1359  _startAt */\n      dup4\n        /* \"contracts/governance/CrowdFund.sol\":1237:1425  Campaign({... */\n      0xffffffff\n      and\n      dup2\n      mstore\n      0x20\n      add\n        /* \"contracts/governance/CrowdFund.sol\":1380:1386  _endAt */\n      dup3\n        /* \"contracts/governance/CrowdFund.sol\":1237:1425  Campaign({... */\n      0xffffffff\n      and\n      dup2\n      mstore\n      0x20\n      add\n        /* \"contracts/governance/CrowdFund.sol\":1409:1414  false */\n      0x00\n        /* \"contracts/governance/CrowdFund.sol\":1237:1425  Campaign({... */\n      iszero\n      iszero\n      dup2\n      mstore\n      pop\n        /* \"contracts/governance/CrowdFund.sol\":1218:1227  campaigns */\n      0x01\n        /* \"contracts/governance/CrowdFund.sol\":1218:1234  campaigns[count] */\n      0x00\n        /* \"contracts/governance/CrowdFund.sol\":1228:1233  count */\n      dup1\n      sload\n        /* \"contracts/governance/CrowdFund.sol\":1218:1234  campaigns[count] */\n      dup2\n      mstore\n      0x20\n      add\n      swap1\n      dup2\n      mstore\n      0x20\n      add\n      0x00\n      keccak256\n        /* \"contracts/governance/CrowdFund.sol\":1218:1425  campaigns[count] = Campaign({... */\n      0x00\n      dup3\n      add\n      mload\n      dup2\n      0x00\n      add\n      exp(0x0100, 0x00)\n      dup2\n      sload\n      dup2\n      0xffffffffffffffffffffffffffffffffffffffff\n      mul\n      not\n      and\n      swap1\n      dup4\n      0xffffffffffffffffffffffffffffffffffffffff\n      and\n      mul\n      or\n      swap1\n      sstore\n      pop\n      0x20\n      dup3\n      add\n      mload\n      dup2\n      0x01\n      add\n      sstore\n      0x40\n      dup3\n      add\n      mload\n      dup2\n      0x02\n      add\n      sstore\n      0x60\n      dup3\n      add\n      mload\n      dup2\n      0x03\n      add\n      exp(0x0100, 0x00)\n      dup2\n      sload\n      dup2\n      0xffffffff\n      mul\n      not\n      and\n      swap1\n      dup4\n      0xffffffff\n      and\n      mul\n      or\n      swap1\n      sstore\n      pop\n      0x80\n      dup3\n      add\n      mload\n      dup2\n      0x03\n      add\n      exp(0x0100, 0x04)\n      dup2\n      sload\n      dup2\n      0xffffffff\n      mul\n      not\n      and\n      swap1\n      dup4\n      0xffffffff\n      and\n      mul\n      or\n      swap1\n      sstore\n      pop\n      0xa0\n      dup3\n      add\n      mload\n      dup2\n      0x03\n      add\n      exp(0x0100, 0x08)\n      dup2\n      sload\n      dup2\n      0xff\n      mul\n      not\n      and\n      swap1\n      dup4\n      iszero\n      iszero\n      mul\n      or\n      swap1\n      sstore\n      pop\n      swap1\n      pop\n      pop\n        /* \"contracts/governance/CrowdFund.sol\":1455:1465  msg.sender */\n      caller\n        /* \"contracts/governance/CrowdFund.sol\":1440:1491  Launch (count, msg.sender, _goal, _startAt, _endAt) */\n      0xffffffffffffffffffffffffffffffffffffffff\n      and\n      0x0601cd0d650b473037e838a2696d41e654433d065b3f56b28d1d3302e44a304f\n        /* \"contracts/governance/CrowdFund.sol\":1448:1453  count */\n      sload(0x00)\n        /* \"contracts/governance/CrowdFund.sol\":1467:1472  _goal */\n      dup6\n        /* \"contracts/governance/CrowdFund.sol\":1474:1482  _startAt */\n      dup6\n        /* \"contracts/governance/CrowdFund.sol\":1484:1490  _endAt */\n      dup6\n        /* \"contracts/governance/CrowdFund.sol\":1440:1491  Launch (count, msg.sender, _goal, _startAt, _endAt) */\n      mload(0x40)\n      tag_105\n      swap5\n      swap4\n      swap3\n      swap2\n      swap1\n      tag_106\n      jump\t// in\n    tag_105:\n      mload(0x40)\n      dup1\n      swap2\n      sub\n      swap1\n      log2\n        /* \"contracts/governance/CrowdFund.sol\":919:1498  function launc(uint _goal, uint32 _startAt, uint32 _endAt) external {... */\n      pop\n      pop\n      pop\n      jump\t// out\n        /* \"contracts/governance/CrowdFund.sol\":2233:2589  function unpledge(uint _id, uint _amount) external {... */\n    tag_40:\n        /* \"contracts/governance/CrowdFund.sol\":2294:2319  Campaign storage campaign */\n      0x00\n        /* \"contracts/governance/CrowdFund.sol\":2322:2331  campaigns */\n      0x01\n        /* \"contracts/governance/CrowdFund.sol\":2322:2336  campaigns[_id] */\n      0x00\n        /* \"contracts/governance/CrowdFund.sol\":2332:2335  _id */\n      dup5\n        /* \"contracts/governance/CrowdFund.sol\":2322:2336  campaigns[_id] */\n      dup2\n      mstore\n      0x20\n      add\n      swap1\n      dup2\n      mstore\n      0x20\n      add\n      0x00\n      keccak256\n        /* \"contracts/governance/CrowdFund.sol\":2294:2336  Campaign storage campaign = campaigns[_id] */\n      swap1\n      pop\n        /* \"contracts/governance/CrowdFund.sol\":2373:2381  campaign */\n      dup1\n        /* \"contracts/governance/CrowdFund.sol\":2373:2387  campaign.endAt */\n      0x03\n      add\n      0x04\n      swap1\n      sload\n      swap1\n      0x0100\n      exp\n      swap1\n      div\n      0xffffffff\n      and\n        /* \"contracts/governance/CrowdFund.sol\":2354:2387  block.timestamp <= campaign.endAt */\n      0xffffffff\n      and\n        /* \"contracts/governance/CrowdFund.sol\":2354:2369  block.timestamp */\n      timestamp\n        /* \"contracts/governance/CrowdFund.sol\":2354:2387  block.timestamp <= campaign.endAt */\n      gt\n      iszero\n        /* \"contracts/governance/CrowdFund.sol\":2346:2397  require(block.timestamp <= campaign.endAt, \"ended\") */\n      tag_108\n      jumpi\n      mload(0x40)\n      0x08c379a000000000000000000000000000000000000000000000000000000000\n      dup2\n      mstore\n      0x04\n      add\n      tag_109\n      swap1\n      tag_110\n      jump\t// in\n    tag_109:\n      mload(0x40)\n      dup1\n      swap2\n      sub\n      swap1\n      revert\n    tag_108:\n        /* \"contracts/governance/CrowdFund.sol\":2428:2435  _amount */\n      dup2\n        /* \"contracts/governance/CrowdFund.sol\":2408:2416  campaign */\n      dup2\n        /* \"contracts/governance/CrowdFund.sol\":2408:2424  campaign.pledged */\n      0x02\n      add\n      0x00\n        /* \"contracts/governance/CrowdFund.sol\":2408:2435  campaign.pledged -= _amount */\n      dup3\n      dup3\n      sload\n      tag_111\n      swap2\n      swap1\n      tag_112\n      jump\t// in\n    tag_111:\n      swap3\n      pop\n      pop\n      dup2\n      swap1\n      sstore\n      pop\n        /* \"contracts/governance/CrowdFund.sol\":2479:2486  _amount */\n      dup2\n        /* \"contracts/governance/CrowdFund.sol\":2445:2458  pledgedAmount */\n      0x02\n        /* \"contracts/governance/CrowdFund.sol\":2445:2463  pledgedAmount[_id] */\n      0x00\n        /* \"contracts/governance/CrowdFund.sol\":2459:2462  _id */\n      dup6\n        /* \"contracts/governance/CrowdFund.sol\":2445:2463  pledgedAmount[_id] */\n      dup2\n      mstore\n      0x20\n      add\n      swap1\n      dup2\n      mstore\n      0x20\n      add\n      0x00\n      keccak256\n        /* \"contracts/governance/CrowdFund.sol\":2445:2475  pledgedAmount[_id][msg.sender] */\n      0x00\n        /* \"contracts/governance/CrowdFund.sol\":2464:2474  msg.sender */\n      caller\n        /* \"contracts/governance/CrowdFund.sol\":2445:2475  pledgedAmount[_id][msg.sender] */\n      0xffffffffffffffffffffffffffffffffffffffff\n      and\n      0xffffffffffffffffffffffffffffffffffffffff\n      and\n      dup2\n      mstore\n      0x20\n      add\n      swap1\n      dup2\n      mstore\n      0x20\n      add\n      0x00\n      keccak256\n      0x00\n        /* \"contracts/governance/CrowdFund.sol\":2445:2486  pledgedAmount[_id][msg.sender] -= _amount */\n      dup3\n      dup3\n      sload\n      tag_113\n      swap2\n      swap1\n      tag_112\n      jump\t// in\n    tag_113:\n      swap3\n      pop\n      pop\n      dup2\n      swap1\n      sstore\n      pop\n        /* \"contracts/governance/CrowdFund.sol\":2496:2501  token */\n      immutable(\"0x26a975632f70533c9512e57b565b8ce8e2befee6b08dfbc27c4a897a20e2c1d6\")\n        /* \"contracts/governance/CrowdFund.sol\":2496:2510  token.transfer */\n      0xffffffffffffffffffffffffffffffffffffffff\n      and\n      0xa9059cbb\n        /* \"contracts/governance/CrowdFund.sol\":2511:2521  msg.sender */\n      caller\n        /* \"contracts/governance/CrowdFund.sol\":2523:2530  _amount */\n      dup5\n        /* \"contracts/governance/CrowdFund.sol\":2496:2531  token.transfer(msg.sender, _amount) */\n      mload(0x40)\n      dup4\n      0xffffffff\n      and\n      0xe0\n      shl\n      dup2\n      mstore\n      0x04\n      add\n      tag_114\n      swap3\n      swap2\n      swap1\n      tag_61\n      jump\t// in\n    tag_114:\n      0x20\n      mload(0x40)\n      dup1\n      dup4\n      sub\n      dup2\n      0x00\n      dup8\n      dup1\n      extcodesize\n      iszero\n      dup1\n      iszero\n      tag_115\n      jumpi\n      0x00\n      dup1\n      revert\n    tag_115:\n      pop\n      gas\n      call\n      iszero\n      dup1\n      iszero\n      tag_117\n      jumpi\n      returndatasize\n      0x00\n      dup1\n      returndatacopy\n      revert(0x00, returndatasize)\n    tag_117:\n      pop\n      pop\n      pop\n      pop\n      mload(0x40)\n      returndatasize\n      not(0x1f)\n      0x1f\n      dup3\n      add\n      and\n      dup3\n      add\n      dup1\n      0x40\n      mstore\n      pop\n      dup2\n      add\n      swap1\n      tag_118\n      swap2\n      swap1\n      tag_66\n      jump\t// in\n    tag_118:\n      pop\n        /* \"contracts/governance/CrowdFund.sol\":2562:2572  msg.sender */\n      caller\n        /* \"contracts/governance/CrowdFund.sol\":2547:2582  Unpledged(_id, msg.sender, _amount) */\n      0xffffffffffffffffffffffffffffffffffffffff\n      and\n        /* \"contracts/governance/CrowdFund.sol\":2557:2560  _id */\n      dup4\n        /* \"contracts/governance/CrowdFund.sol\":2547:2582  Unpledged(_id, msg.sender, _amount) */\n      0xfcd29b1632c6748a9a4bb9b4cd5c6486c3c84a8550dce2368f83fef3969d9685\n        /* \"contracts/governance/CrowdFund.sol\":2574:2581  _amount */\n      dup5\n        /* \"contracts/governance/CrowdFund.sol\":2547:2582  Unpledged(_id, msg.sender, _amount) */\n      mload(0x40)\n      tag_119\n      swap2\n      swap1\n      tag_17\n      jump\t// in\n    tag_119:\n      mload(0x40)\n      dup1\n      swap2\n      sub\n      swap1\n      log3\n        /* \"contracts/governance/CrowdFund.sol\":2284:2589  {... */\n      pop\n        /* \"contracts/governance/CrowdFund.sol\":2233:2589  function unpledge(uint _id, uint _amount) external {... */\n      pop\n      pop\n      jump\t// out\n        /* \"contracts/governance/CrowdFund.sol\":777:839  mapping(uint => mapping(address => uint)) public pledgedAmount */\n    tag_44:\n      mstore(0x20, 0x02)\n      dup2\n      0x00\n      mstore\n      mstore(0x20, keccak256(0x00, 0x40))\n      dup1\n      0x00\n      mstore\n      keccak256(0x00, 0x40)\n      0x00\n      swap2\n      pop\n      swap2\n      pop\n      pop\n      sload\n      dup2\n      jump\t// out\n        /* \"contracts/governance/CrowdFund.sol\":671:700  IERC20 public immutable token */\n    tag_47:\n      immutable(\"0x26a975632f70533c9512e57b565b8ce8e2befee6b08dfbc27c4a897a20e2c1d6\")\n      dup2\n      jump\t// out\n        /* \"contracts/governance/CrowdFund.sol\":1788:2227  function pledge(uint _id, uint _amount) external {... */\n    tag_52:\n        /* \"contracts/governance/CrowdFund.sol\":1847:1872  Campaign storage campaign */\n      0x00\n        /* \"contracts/governance/CrowdFund.sol\":1875:1884  campaigns */\n      0x01\n        /* \"contracts/governance/CrowdFund.sol\":1875:1889  campaigns[_id] */\n      0x00\n        /* \"contracts/governance/CrowdFund.sol\":1885:1888  _id */\n      dup5\n        /* \"contracts/governance/CrowdFund.sol\":1875:1889  campaigns[_id] */\n      dup2\n      mstore\n      0x20\n      add\n      swap1\n      dup2\n      mstore\n      0x20\n      add\n      0x00\n      keccak256\n        /* \"contracts/governance/CrowdFund.sol\":1847:1889  Campaign storage campaign = campaigns[_id] */\n      swap1\n      pop\n        /* \"contracts/governance/CrowdFund.sol\":1926:1934  campaign */\n      dup1\n        /* \"contracts/governance/CrowdFund.sol\":1926:1942  campaign.startAt */\n      0x03\n      add\n      0x00\n      swap1\n      sload\n      swap1\n      0x0100\n      exp\n      swap1\n      div\n      0xffffffff\n      and\n        /* \"contracts/governance/CrowdFund.sol\":1907:1942  block.timestamp >= campaign.startAt */\n      0xffffffff\n      and\n        /* \"contracts/governance/CrowdFund.sol\":1907:1922  block.timestamp */\n      timestamp\n        /* \"contracts/governance/CrowdFund.sol\":1907:1942  block.timestamp >= campaign.startAt */\n      lt\n      iszero\n        /* \"contracts/governance/CrowdFund.sol\":1899:1958  require(block.timestamp >= campaign.startAt, \"not started\") */\n      tag_121\n      jumpi\n      mload(0x40)\n      0x08c379a000000000000000000000000000000000000000000000000000000000\n      dup2\n      mstore\n      0x04\n      add\n      tag_122\n      swap1\n      tag_123\n      jump\t// in\n    tag_122:\n      mload(0x40)\n      dup1\n      swap2\n      sub\n      swap1\n      revert\n    tag_121:\n        /* \"contracts/governance/CrowdFund.sol\":1995:2003  campaign */\n      dup1\n        /* \"contracts/governance/CrowdFund.sol\":1995:2009  campaign.endAt */\n      0x03\n      add\n      0x04\n      swap1\n      sload\n      swap1\n      0x0100\n      exp\n      swap1\n      div\n      0xffffffff\n      and\n        /* \"contracts/governance/CrowdFund.sol\":1976:2009  block.timestamp <= campaign.endAt */\n      0xffffffff\n      and\n        /* \"contracts/governance/CrowdFund.sol\":1976:1991  block.timestamp */\n      timestamp\n        /* \"contracts/governance/CrowdFund.sol\":1976:2009  block.timestamp <= campaign.endAt */\n      gt\n      iszero\n        /* \"contracts/governance/CrowdFund.sol\":1968:2019  require(block.timestamp <= campaign.endAt, \"ended\") */\n      tag_124\n      jumpi\n      mload(0x40)\n      0x08c379a000000000000000000000000000000000000000000000000000000000\n      dup2\n      mstore\n      0x04\n      add\n      tag_125\n      swap1\n      tag_110\n      jump\t// in\n    tag_125:\n      mload(0x40)\n      dup1\n      swap2\n      sub\n      swap1\n      revert\n    tag_124:\n        /* \"contracts/governance/CrowdFund.sol\":2050:2057  _amount */\n      dup2\n        /* \"contracts/governance/CrowdFund.sol\":2030:2038  campaign */\n      dup2\n        /* \"contracts/governance/CrowdFund.sol\":2030:2046  campaign.pledged */\n      0x02\n      add\n      0x00\n        /* \"contracts/governance/CrowdFund.sol\":2030:2057  campaign.pledged += _amount */\n      dup3\n      dup3\n      sload\n      tag_126\n      swap2\n      swap1\n      tag_100\n      jump\t// in\n    tag_126:\n      swap3\n      pop\n      pop\n      dup2\n      swap1\n      sstore\n      pop\n        /* \"contracts/governance/CrowdFund.sol\":2101:2108  _amount */\n      dup2\n        /* \"contracts/governance/CrowdFund.sol\":2067:2080  pledgedAmount */\n      0x02\n        /* \"contracts/governance/CrowdFund.sol\":2067:2085  pledgedAmount[_id] */\n      0x00\n        /* \"contracts/governance/CrowdFund.sol\":2081:2084  _id */\n      dup6\n        /* \"contracts/governance/CrowdFund.sol\":2067:2085  pledgedAmount[_id] */\n      dup2\n      mstore\n      0x20\n      add\n      swap1\n      dup2\n      mstore\n      0x20\n      add\n      0x00\n      keccak256\n        /* \"contracts/governance/CrowdFund.sol\":2067:2097  pledgedAmount[_id][msg.sender] */\n      0x00\n        /* \"contracts/governance/CrowdFund.sol\":2086:2096  msg.sender */\n      caller\n        /* \"contracts/governance/CrowdFund.sol\":2067:2097  pledgedAmount[_id][msg.sender] */\n      0xffffffffffffffffffffffffffffffffffffffff\n      and\n      0xffffffffffffffffffffffffffffffffffffffff\n      and\n      dup2\n      mstore\n      0x20\n      add\n      swap1\n      dup2\n      mstore\n      0x20\n      add\n      0x00\n      keccak256\n      0x00\n        /* \"contracts/governance/CrowdFund.sol\":2067:2108  pledgedAmount[_id][msg.sender] += _amount */\n      dup3\n      dup3\n      sload\n      tag_127\n      swap2\n      swap1\n      tag_100\n      jump\t// in\n    tag_127:\n      swap3\n      pop\n      pop\n      dup2\n      swap1\n      sstore\n      pop\n        /* \"contracts/governance/CrowdFund.sol\":2118:2123  token */\n      immutable(\"0x26a975632f70533c9512e57b565b8ce8e2befee6b08dfbc27c4a897a20e2c1d6\")\n        /* \"contracts/governance/CrowdFund.sol\":2118:2136  token.transferFrom */\n      0xffffffffffffffffffffffffffffffffffffffff\n      and\n      0x23b872dd\n        /* \"contracts/governance/CrowdFund.sol\":2137:2147  msg.sender */\n      caller\n        /* \"contracts/governance/CrowdFund.sol\":2157:2161  this */\n      address\n        /* \"contracts/governance/CrowdFund.sol\":2164:2171  _amount */\n      dup6\n        /* \"contracts/governance/CrowdFund.sol\":2118:2172  token.transferFrom(msg.sender, address(this), _amount) */\n      mload(0x40)\n      dup5\n      0xffffffff\n      and\n      0xe0\n      shl\n      dup2\n      mstore\n      0x04\n      add\n      tag_128\n      swap4\n      swap3\n      swap2\n      swap1\n      tag_129\n      jump\t// in\n    tag_128:\n      0x20\n      mload(0x40)\n      dup1\n      dup4\n      sub\n      dup2\n      0x00\n      dup8\n      dup1\n      extcodesize\n      iszero\n      dup1\n      iszero\n      tag_130\n      jumpi\n      0x00\n      dup1\n      revert\n    tag_130:\n      pop\n      gas\n      call\n      iszero\n      dup1\n      iszero\n      tag_132\n      jumpi\n      returndatasize\n      0x00\n      dup1\n      returndatacopy\n      revert(0x00, returndatasize)\n    tag_132:\n      pop\n      pop\n      pop\n      pop\n      mload(0x40)\n      returndatasize\n      not(0x1f)\n      0x1f\n      dup3\n      add\n      and\n      dup3\n      add\n      dup1\n      0x40\n      mstore\n      pop\n      dup2\n      add\n      swap1\n      tag_133\n      swap2\n      swap1\n      tag_66\n      jump\t// in\n    tag_133:\n      pop\n        /* \"contracts/governance/CrowdFund.sol\":2200:2210  msg.sender */\n      caller\n        /* \"contracts/governance/CrowdFund.sol\":2187:2220  Pledged(_id, msg.sender, _amount) */\n      0xffffffffffffffffffffffffffffffffffffffff\n      and\n        /* \"contracts/governance/CrowdFund.sol\":2195:2198  _id */\n      dup4\n        /* \"contracts/governance/CrowdFund.sol\":2187:2220  Pledged(_id, msg.sender, _amount) */\n      0x2757ac6a40883f4491cc56930ae964df9034e343e660d5179eb01e198336756b\n        /* \"contracts/governance/CrowdFund.sol\":2212:2219  _amount */\n      dup5\n        /* \"contracts/governance/CrowdFund.sol\":2187:2220  Pledged(_id, msg.sender, _amount) */\n      mload(0x40)\n      tag_134\n      swap2\n      swap1\n      tag_17\n      jump\t// in\n    tag_134:\n      mload(0x40)\n      dup1\n      swap2\n      sub\n      swap1\n      log3\n        /* \"contracts/governance/CrowdFund.sol\":1837:2227  {... */\n      pop\n        /* \"contracts/governance/CrowdFund.sol\":1788:2227  function pledge(uint _id, uint _amount) external {... */\n      pop\n      pop\n      jump\t// out\n        /* \"#utility.yul\":7:146   */\n    tag_136:\n        /* \"#utility.yul\":53:58   */\n      0x00\n        /* \"#utility.yul\":91:97   */\n      dup2\n        /* \"#utility.yul\":78:98   */\n      calldataload\n        /* \"#utility.yul\":69:98   */\n      swap1\n      pop\n        /* \"#utility.yul\":107:140   */\n      tag_138\n        /* \"#utility.yul\":134:139   */\n      dup2\n        /* \"#utility.yul\":107:140   */\n      tag_139\n      jump\t// in\n    tag_138:\n        /* \"#utility.yul\":7:146   */\n      swap3\n      swap2\n      pop\n      pop\n      jump\t// out\n        /* \"#utility.yul\":152:289   */\n    tag_140:\n        /* \"#utility.yul\":206:211   */\n      0x00\n        /* \"#utility.yul\":237:243   */\n      dup2\n        /* \"#utility.yul\":231:244   */\n      mload\n        /* \"#utility.yul\":222:244   */\n      swap1\n      pop\n        /* \"#utility.yul\":253:283   */\n      tag_142\n        /* \"#utility.yul\":277:282   */\n      dup2\n        /* \"#utility.yul\":253:283   */\n      tag_143\n      jump\t// in\n    tag_142:\n        /* \"#utility.yul\":152:289   */\n      swap3\n      swap2\n      pop\n      pop\n      jump\t// out\n        /* \"#utility.yul\":295:434   */\n    tag_144:\n        /* \"#utility.yul\":341:346   */\n      0x00\n        /* \"#utility.yul\":379:385   */\n      dup2\n        /* \"#utility.yul\":366:386   */\n      calldataload\n        /* \"#utility.yul\":357:386   */\n      swap1\n      pop\n        /* \"#utility.yul\":395:428   */\n      tag_146\n        /* \"#utility.yul\":422:427   */\n      dup2\n        /* \"#utility.yul\":395:428   */\n      tag_147\n      jump\t// in\n    tag_146:\n        /* \"#utility.yul\":295:434   */\n      swap3\n      swap2\n      pop\n      pop\n      jump\t// out\n        /* \"#utility.yul\":440:577   */\n    tag_148:\n        /* \"#utility.yul\":485:490   */\n      0x00\n        /* \"#utility.yul\":523:529   */\n      dup2\n        /* \"#utility.yul\":510:530   */\n      calldataload\n        /* \"#utility.yul\":501:530   */\n      swap1\n      pop\n        /* \"#utility.yul\":539:571   */\n      tag_150\n        /* \"#utility.yul\":565:570   */\n      dup2\n        /* \"#utility.yul\":539:571   */\n      tag_151\n      jump\t// in\n    tag_150:\n        /* \"#utility.yul\":440:577   */\n      swap3\n      swap2\n      pop\n      pop\n      jump\t// out\n        /* \"#utility.yul\":583:928   */\n    tag_66:\n        /* \"#utility.yul\":650:656   */\n      0x00\n        /* \"#utility.yul\":699:701   */\n      0x20\n        /* \"#utility.yul\":687:696   */\n      dup3\n        /* \"#utility.yul\":678:685   */\n      dup5\n        /* \"#utility.yul\":674:697   */\n      sub\n        /* \"#utility.yul\":670:702   */\n      slt\n        /* \"#utility.yul\":667:786   */\n      iszero\n      tag_153\n      jumpi\n        /* \"#utility.yul\":705:784   */\n      tag_154\n      tag_155\n      jump\t// in\n    tag_154:\n        /* \"#utility.yul\":667:786   */\n    tag_153:\n        /* \"#utility.yul\":825:826   */\n      0x00\n        /* \"#utility.yul\":850:911   */\n      tag_156\n        /* \"#utility.yul\":903:910   */\n      dup5\n        /* \"#utility.yul\":894:900   */\n      dup3\n        /* \"#utility.yul\":883:892   */\n      dup6\n        /* \"#utility.yul\":879:901   */\n      add\n        /* \"#utility.yul\":850:911   */\n      tag_140\n      jump\t// in\n    tag_156:\n        /* \"#utility.yul\":840:911   */\n      swap2\n      pop\n        /* \"#utility.yul\":796:921   */\n      pop\n        /* \"#utility.yul\":583:928   */\n      swap3\n      swap2\n      pop\n      pop\n      jump\t// out\n        /* \"#utility.yul\":934:1263   */\n    tag_20:\n        /* \"#utility.yul\":993:999   */\n      0x00\n        /* \"#utility.yul\":1042:1044   */\n      0x20\n        /* \"#utility.yul\":1030:1039   */\n      dup3\n        /* \"#utility.yul\":1021:1028   */\n      dup5\n        /* \"#utility.yul\":1017:1040   */\n      sub\n        /* \"#utility.yul\":1013:1045   */\n      slt\n        /* \"#utility.yul\":1010:1129   */\n      iszero\n      tag_158\n      jumpi\n        /* \"#utility.yul\":1048:1127   */\n      tag_159\n      tag_155\n      jump\t// in\n    tag_159:\n        /* \"#utility.yul\":1010:1129   */\n    tag_158:\n        /* \"#utility.yul\":1168:1169   */\n      0x00\n        /* \"#utility.yul\":1193:1246   */\n      tag_160\n        /* \"#utility.yul\":1238:1245   */\n      dup5\n        /* \"#utility.yul\":1229:1235   */\n      dup3\n        /* \"#utility.yul\":1218:1227   */\n      dup6\n        /* \"#utility.yul\":1214:1236   */\n      add\n        /* \"#utility.yul\":1193:1246   */\n      tag_144\n      jump\t// in\n    tag_160:\n        /* \"#utility.yul\":1183:1246   */\n      swap2\n      pop\n        /* \"#utility.yul\":1139:1256   */\n      pop\n        /* \"#utility.yul\":934:1263   */\n      swap3\n      swap2\n      pop\n      pop\n      jump\t// out\n        /* \"#utility.yul\":1269:1743   */\n    tag_43:\n        /* \"#utility.yul\":1337:1343   */\n      0x00\n        /* \"#utility.yul\":1345:1351   */\n      dup1\n        /* \"#utility.yul\":1394:1396   */\n      0x40\n        /* \"#utility.yul\":1382:1391   */\n      dup4\n        /* \"#utility.yul\":1373:1380   */\n      dup6\n        /* \"#utility.yul\":1369:1392   */\n      sub\n        /* \"#utility.yul\":1365:1397   */\n      slt\n        /* \"#utility.yul\":1362:1481   */\n      iszero\n      tag_162\n      jumpi\n        /* \"#utility.yul\":1400:1479   */\n      tag_163\n      tag_155\n      jump\t// in\n    tag_163:\n        /* \"#utility.yul\":1362:1481   */\n    tag_162:\n        /* \"#utility.yul\":1520:1521   */\n      0x00\n        /* \"#utility.yul\":1545:1598   */\n      tag_164\n        /* \"#utility.yul\":1590:1597   */\n      dup6\n        /* \"#utility.yul\":1581:1587   */\n      dup3\n        /* \"#utility.yul\":1570:1579   */\n      dup7\n        /* \"#utility.yul\":1566:1588   */\n      add\n        /* \"#utility.yul\":1545:1598   */\n      tag_144\n      jump\t// in\n    tag_164:\n        /* \"#utility.yul\":1535:1598   */\n      swap3\n      pop\n        /* \"#utility.yul\":1491:1608   */\n      pop\n        /* \"#utility.yul\":1647:1649   */\n      0x20\n        /* \"#utility.yul\":1673:1726   */\n      tag_165\n        /* \"#utility.yul\":1718:1725   */\n      dup6\n        /* \"#utility.yul\":1709:1715   */\n      dup3\n        /* \"#utility.yul\":1698:1707   */\n      dup7\n        /* \"#utility.yul\":1694:1716   */\n      add\n        /* \"#utility.yul\":1673:1726   */\n      tag_136\n      jump\t// in\n    tag_165:\n        /* \"#utility.yul\":1663:1726   */\n      swap2\n      pop\n        /* \"#utility.yul\":1618:1736   */\n      pop\n        /* \"#utility.yul\":1269:1743   */\n      swap3\n      pop\n      swap3\n      swap1\n      pop\n      jump\t// out\n        /* \"#utility.yul\":1749:2223   */\n    tag_39:\n        /* \"#utility.yul\":1817:1823   */\n      0x00\n        /* \"#utility.yul\":1825:1831   */\n      dup1\n        /* \"#utility.yul\":1874:1876   */\n      0x40\n        /* \"#utility.yul\":1862:1871   */\n      dup4\n        /* \"#utility.yul\":1853:1860   */\n      dup6\n        /* \"#utility.yul\":1849:1872   */\n      sub\n        /* \"#utility.yul\":1845:1877   */\n      slt\n        /* \"#utility.yul\":1842:1961   */\n      iszero\n      tag_167\n      jumpi\n        /* \"#utility.yul\":1880:1959   */\n      tag_168\n      tag_155\n      jump\t// in\n    tag_168:\n        /* \"#utility.yul\":1842:1961   */\n    tag_167:\n        /* \"#utility.yul\":2000:2001   */\n      0x00\n        /* \"#utility.yul\":2025:2078   */\n      tag_169\n        /* \"#utility.yul\":2070:2077   */\n      dup6\n        /* \"#utility.yul\":2061:2067   */\n      dup3\n        /* \"#utility.yul\":2050:2059   */\n      dup7\n        /* \"#utility.yul\":2046:2068   */\n      add\n        /* \"#utility.yul\":2025:2078   */\n      tag_144\n      jump\t// in\n    tag_169:\n        /* \"#utility.yul\":2015:2078   */\n      swap3\n      pop\n        /* \"#utility.yul\":1971:2088   */\n      pop\n        /* \"#utility.yul\":2127:2129   */\n      0x20\n        /* \"#utility.yul\":2153:2206   */\n      tag_170\n        /* \"#utility.yul\":2198:2205   */\n      dup6\n        /* \"#utility.yul\":2189:2195   */\n      dup3\n        /* \"#utility.yul\":2178:2187   */\n      dup7\n        /* \"#utility.yul\":2174:2196   */\n      add\n        /* \"#utility.yul\":2153:2206   */\n      tag_144\n      jump\t// in\n    tag_170:\n        /* \"#utility.yul\":2143:2206   */\n      swap2\n      pop\n        /* \"#utility.yul\":2098:2216   */\n      pop\n        /* \"#utility.yul\":1749:2223   */\n      swap3\n      pop\n      swap3\n      swap1\n      pop\n      jump\t// out\n        /* \"#utility.yul\":2229:2844   */\n    tag_35:\n        /* \"#utility.yul\":2304:2310   */\n      0x00\n        /* \"#utility.yul\":2312:2318   */\n      dup1\n        /* \"#utility.yul\":2320:2326   */\n      0x00\n        /* \"#utility.yul\":2369:2371   */\n      0x60\n        /* \"#utility.yul\":2357:2366   */\n      dup5\n        /* \"#utility.yul\":2348:2355   */\n      dup7\n        /* \"#utility.yul\":2344:2367   */\n      sub\n        /* \"#utility.yul\":2340:2372   */\n      slt\n        /* \"#utility.yul\":2337:2456   */\n      iszero\n      tag_172\n      jumpi\n        /* \"#utility.yul\":2375:2454   */\n      tag_173\n      tag_155\n      jump\t// in\n    tag_173:\n        /* \"#utility.yul\":2337:2456   */\n    tag_172:\n        /* \"#utility.yul\":2495:2496   */\n      0x00\n        /* \"#utility.yul\":2520:2573   */\n      tag_174\n        /* \"#utility.yul\":2565:2572   */\n      dup7\n        /* \"#utility.yul\":2556:2562   */\n      dup3\n        /* \"#utility.yul\":2545:2554   */\n      dup8\n        /* \"#utility.yul\":2541:2563   */\n      add\n        /* \"#utility.yul\":2520:2573   */\n      tag_144\n      jump\t// in\n    tag_174:\n        /* \"#utility.yul\":2510:2573   */\n      swap4\n      pop\n        /* \"#utility.yul\":2466:2583   */\n      pop\n        /* \"#utility.yul\":2622:2624   */\n      0x20\n        /* \"#utility.yul\":2648:2700   */\n      tag_175\n        /* \"#utility.yul\":2692:2699   */\n      dup7\n        /* \"#utility.yul\":2683:2689   */\n      dup3\n        /* \"#utility.yul\":2672:2681   */\n      dup8\n        /* \"#utility.yul\":2668:2690   */\n      add\n        /* \"#utility.yul\":2648:2700   */\n      tag_148\n      jump\t// in\n    tag_175:\n        /* \"#utility.yul\":2638:2700   */\n      swap3\n      pop\n        /* \"#utility.yul\":2593:2710   */\n      pop\n        /* \"#utility.yul\":2749:2751   */\n      0x40\n        /* \"#utility.yul\":2775:2827   */\n      tag_176\n        /* \"#utility.yul\":2819:2826   */\n      dup7\n        /* \"#utility.yul\":2810:2816   */\n      dup3\n        /* \"#utility.yul\":2799:2808   */\n      dup8\n        /* \"#utility.yul\":2795:2817   */\n      add\n        /* \"#utility.yul\":2775:2827   */\n      tag_148\n      jump\t// in\n    tag_176:\n        /* \"#utility.yul\":2765:2827   */\n      swap2\n      pop\n        /* \"#utility.yul\":2720:2837   */\n      pop\n        /* \"#utility.yul\":2229:2844   */\n      swap3\n      pop\n      swap3\n      pop\n      swap3\n      jump\t// out\n        /* \"#utility.yul\":2850:2968   */\n    tag_177:\n        /* \"#utility.yul\":2937:2961   */\n      tag_179\n        /* \"#utility.yul\":2955:2960   */\n      dup2\n        /* \"#utility.yul\":2937:2961   */\n      tag_180\n      jump\t// in\n    tag_179:\n        /* \"#utility.yul\":2932:2935   */\n      dup3\n        /* \"#utility.yul\":2925:2962   */\n      mstore\n        /* \"#utility.yul\":2850:2968   */\n      pop\n      pop\n      jump\t// out\n        /* \"#utility.yul\":2974:3083   */\n    tag_181:\n        /* \"#utility.yul\":3055:3076   */\n      tag_183\n        /* \"#utility.yul\":3070:3075   */\n      dup2\n        /* \"#utility.yul\":3055:3076   */\n      tag_184\n      jump\t// in\n    tag_183:\n        /* \"#utility.yul\":3050:3053   */\n      dup3\n        /* \"#utility.yul\":3043:3077   */\n      mstore\n        /* \"#utility.yul\":2974:3083   */\n      pop\n      pop\n      jump\t// out\n        /* \"#utility.yul\":3089:3246   */\n    tag_185:\n        /* \"#utility.yul\":3189:3239   */\n      tag_187\n        /* \"#utility.yul\":3233:3238   */\n      dup2\n        /* \"#utility.yul\":3189:3239   */\n      tag_188\n      jump\t// in\n    tag_187:\n        /* \"#utility.yul\":3184:3187   */\n      dup3\n        /* \"#utility.yul\":3177:3240   */\n      mstore\n        /* \"#utility.yul\":3089:3246   */\n      pop\n      pop\n      jump\t// out\n        /* \"#utility.yul\":3252:3618   */\n    tag_189:\n        /* \"#utility.yul\":3394:3397   */\n      0x00\n        /* \"#utility.yul\":3415:3482   */\n      tag_191\n        /* \"#utility.yul\":3479:3481   */\n      0x15\n        /* \"#utility.yul\":3474:3477   */\n      dup4\n        /* \"#utility.yul\":3415:3482   */\n      tag_192\n      jump\t// in\n    tag_191:\n        /* \"#utility.yul\":3408:3482   */\n      swap2\n      pop\n        /* \"#utility.yul\":3491:3584   */\n      tag_193\n        /* \"#utility.yul\":3580:3583   */\n      dup3\n        /* \"#utility.yul\":3491:3584   */\n      tag_194\n      jump\t// in\n    tag_193:\n        /* \"#utility.yul\":3609:3611   */\n      0x20\n        /* \"#utility.yul\":3604:3607   */\n      dup3\n        /* \"#utility.yul\":3600:3612   */\n      add\n        /* \"#utility.yul\":3593:3612   */\n      swap1\n      pop\n        /* \"#utility.yul\":3252:3618   */\n      swap2\n      swap1\n      pop\n      jump\t// out\n        /* \"#utility.yul\":3624:3989   */\n    tag_195:\n        /* \"#utility.yul\":3766:3769   */\n      0x00\n        /* \"#utility.yul\":3787:3853   */\n      tag_197\n        /* \"#utility.yul\":3851:3852   */\n      0x07\n        /* \"#utility.yul\":3846:3849   */\n      dup4\n        /* \"#utility.yul\":3787:3853   */\n      tag_192\n      jump\t// in\n    tag_197:\n        /* \"#utility.yul\":3780:3853   */\n      swap2\n      pop\n        /* \"#utility.yul\":3862:3955   */\n      tag_198\n        /* \"#utility.yul\":3951:3954   */\n      dup3\n        /* \"#utility.yul\":3862:3955   */\n      tag_199\n      jump\t// in\n    tag_198:\n        /* \"#utility.yul\":3980:3982   */\n      0x20\n        /* \"#utility.yul\":3975:3978   */\n      dup3\n        /* \"#utility.yul\":3971:3983   */\n      add\n        /* \"#utility.yul\":3964:3983   */\n      swap1\n      pop\n        /* \"#utility.yul\":3624:3989   */\n      swap2\n      swap1\n      pop\n      jump\t// out\n        /* \"#utility.yul\":3995:4361   */\n    tag_200:\n        /* \"#utility.yul\":4137:4140   */\n      0x00\n        /* \"#utility.yul\":4158:4225   */\n      tag_202\n        /* \"#utility.yul\":4222:4224   */\n      0x11\n        /* \"#utility.yul\":4217:4220   */\n      dup4\n        /* \"#utility.yul\":4158:4225   */\n      tag_192\n      jump\t// in\n    tag_202:\n        /* \"#utility.yul\":4151:4225   */\n      swap2\n      pop\n        /* \"#utility.yul\":4234:4327   */\n      tag_203\n        /* \"#utility.yul\":4323:4326   */\n      dup3\n        /* \"#utility.yul\":4234:4327   */\n      tag_204\n      jump\t// in\n    tag_203:\n        /* \"#utility.yul\":4352:4354   */\n      0x20\n        /* \"#utility.yul\":4347:4350   */\n      dup3\n        /* \"#utility.yul\":4343:4355   */\n      add\n        /* \"#utility.yul\":4336:4355   */\n      swap1\n      pop\n        /* \"#utility.yul\":3995:4361   */\n      swap2\n      swap1\n      pop\n      jump\t// out\n        /* \"#utility.yul\":4367:4733   */\n    tag_205:\n        /* \"#utility.yul\":4509:4512   */\n      0x00\n        /* \"#utility.yul\":4530:4597   */\n      tag_207\n        /* \"#utility.yul\":4594:4596   */\n      0x0b\n        /* \"#utility.yul\":4589:4592   */\n      dup4\n        /* \"#utility.yul\":4530:4597   */\n      tag_192\n      jump\t// in\n    tag_207:\n        /* \"#utility.yul\":4523:4597   */\n      swap2\n      pop\n        /* \"#utility.yul\":4606:4699   */\n      tag_208\n        /* \"#utility.yul\":4695:4698   */\n      dup3\n        /* \"#utility.yul\":4606:4699   */\n      tag_209\n      jump\t// in\n    tag_208:\n        /* \"#utility.yul\":4724:4726   */\n      0x20\n        /* \"#utility.yul\":4719:4722   */\n      dup3\n        /* \"#utility.yul\":4715:4727   */\n      add\n        /* \"#utility.yul\":4708:4727   */\n      swap1\n      pop\n        /* \"#utility.yul\":4367:4733   */\n      swap2\n      swap1\n      pop\n      jump\t// out\n        /* \"#utility.yul\":4739:5105   */\n    tag_210:\n        /* \"#utility.yul\":4881:4884   */\n      0x00\n        /* \"#utility.yul\":4902:4969   */\n      tag_212\n        /* \"#utility.yul\":4966:4968   */\n      0x0e\n        /* \"#utility.yul\":4961:4964   */\n      dup4\n        /* \"#utility.yul\":4902:4969   */\n      tag_192\n      jump\t// in\n    tag_212:\n        /* \"#utility.yul\":4895:4969   */\n      swap2\n      pop\n        /* \"#utility.yul\":4978:5071   */\n      tag_213\n        /* \"#utility.yul\":5067:5070   */\n      dup3\n        /* \"#utility.yul\":4978:5071   */\n      tag_214\n      jump\t// in\n    tag_213:\n        /* \"#utility.yul\":5096:5098   */\n      0x20\n        /* \"#utility.yul\":5091:5094   */\n      dup3\n        /* \"#utility.yul\":5087:5099   */\n      add\n        /* \"#utility.yul\":5080:5099   */\n      swap1\n      pop\n        /* \"#utility.yul\":4739:5105   */\n      swap2\n      swap1\n      pop\n      jump\t// out\n        /* \"#utility.yul\":5111:5476   */\n    tag_215:\n        /* \"#utility.yul\":5253:5256   */\n      0x00\n        /* \"#utility.yul\":5274:5340   */\n      tag_217\n        /* \"#utility.yul\":5338:5339   */\n      0x07\n        /* \"#utility.yul\":5333:5336   */\n      dup4\n        /* \"#utility.yul\":5274:5340   */\n      tag_192\n      jump\t// in\n    tag_217:\n        /* \"#utility.yul\":5267:5340   */\n      swap2\n      pop\n        /* \"#utility.yul\":5349:5442   */\n      tag_218\n        /* \"#utility.yul\":5438:5441   */\n      dup3\n        /* \"#utility.yul\":5349:5442   */\n      tag_219\n      jump\t// in\n    tag_218:\n        /* \"#utility.yul\":5467:5469   */\n      0x20\n        /* \"#utility.yul\":5462:5465   */\n      dup3\n        /* \"#utility.yul\":5458:5470   */\n      add\n        /* \"#utility.yul\":5451:5470   */\n      swap1\n      pop\n        /* \"#utility.yul\":5111:5476   */\n      swap2\n      swap1\n      pop\n      jump\t// out\n        /* \"#utility.yul\":5482:5848   */\n    tag_220:\n        /* \"#utility.yul\":5624:5627   */\n      0x00\n        /* \"#utility.yul\":5645:5712   */\n      tag_222\n        /* \"#utility.yul\":5709:5711   */\n      0x0e\n        /* \"#utility.yul\":5704:5707   */\n      dup4\n        /* \"#utility.yul\":5645:5712   */\n      tag_192\n      jump\t// in\n    tag_222:\n        /* \"#utility.yul\":5638:5712   */\n      swap2\n      pop\n        /* \"#utility.yul\":5721:5814   */\n      tag_223\n        /* \"#utility.yul\":5810:5813   */\n      dup3\n        /* \"#utility.yul\":5721:5814   */\n      tag_224\n      jump\t// in\n    tag_223:\n        /* \"#utility.yul\":5839:5841   */\n      0x20\n        /* \"#utility.yul\":5834:5837   */\n      dup3\n        /* \"#utility.yul\":5830:5842   */\n      add\n        /* \"#utility.yul\":5823:5842   */\n      swap1\n      pop\n        /* \"#utility.yul\":5482:5848   */\n      swap2\n      swap1\n      pop\n      jump\t// out\n        /* \"#utility.yul\":5854:6220   */\n    tag_225:\n        /* \"#utility.yul\":5996:5999   */\n      0x00\n        /* \"#utility.yul\":6017:6084   */\n      tag_227\n        /* \"#utility.yul\":6081:6083   */\n      0x0b\n        /* \"#utility.yul\":6076:6079   */\n      dup4\n        /* \"#utility.yul\":6017:6084   */\n      tag_192\n      jump\t// in\n    tag_227:\n        /* \"#utility.yul\":6010:6084   */\n      swap2\n      pop\n        /* \"#utility.yul\":6093:6186   */\n      tag_228\n        /* \"#utility.yul\":6182:6185   */\n      dup3\n        /* \"#utility.yul\":6093:6186   */\n      tag_229\n      jump\t// in\n    tag_228:\n        /* \"#utility.yul\":6211:6213   */\n      0x20\n        /* \"#utility.yul\":6206:6209   */\n      dup3\n        /* \"#utility.yul\":6202:6214   */\n      add\n        /* \"#utility.yul\":6195:6214   */\n      swap1\n      pop\n        /* \"#utility.yul\":5854:6220   */\n      swap2\n      swap1\n      pop\n      jump\t// out\n        /* \"#utility.yul\":6226:6591   */\n    tag_230:\n        /* \"#utility.yul\":6368:6371   */\n      0x00\n        /* \"#utility.yul\":6389:6455   */\n      tag_232\n        /* \"#utility.yul\":6453:6454   */\n      0x05\n        /* \"#utility.yul\":6448:6451   */\n      dup4\n        /* \"#utility.yul\":6389:6455   */\n      tag_192\n      jump\t// in\n    tag_232:\n        /* \"#utility.yul\":6382:6455   */\n      swap2\n      pop\n        /* \"#utility.yul\":6464:6557   */\n      tag_233\n        /* \"#utility.yul\":6553:6556   */\n      dup3\n        /* \"#utility.yul\":6464:6557   */\n      tag_234\n      jump\t// in\n    tag_233:\n        /* \"#utility.yul\":6582:6584   */\n      0x20\n        /* \"#utility.yul\":6577:6580   */\n      dup3\n        /* \"#utility.yul\":6573:6585   */\n      add\n        /* \"#utility.yul\":6566:6585   */\n      swap1\n      pop\n        /* \"#utility.yul\":6226:6591   */\n      swap2\n      swap1\n      pop\n      jump\t// out\n        /* \"#utility.yul\":6597:6962   */\n    tag_235:\n        /* \"#utility.yul\":6739:6742   */\n      0x00\n        /* \"#utility.yul\":6760:6826   */\n      tag_237\n        /* \"#utility.yul\":6824:6825   */\n      0x09\n        /* \"#utility.yul\":6819:6822   */\n      dup4\n        /* \"#utility.yul\":6760:6826   */\n      tag_192\n      jump\t// in\n    tag_237:\n        /* \"#utility.yul\":6753:6826   */\n      swap2\n      pop\n        /* \"#utility.yul\":6835:6928   */\n      tag_238\n        /* \"#utility.yul\":6924:6927   */\n      dup3\n        /* \"#utility.yul\":6835:6928   */\n      tag_239\n      jump\t// in\n    tag_238:\n        /* \"#utility.yul\":6953:6955   */\n      0x20\n        /* \"#utility.yul\":6948:6951   */\n      dup3\n        /* \"#utility.yul\":6944:6956   */\n      add\n        /* \"#utility.yul\":6937:6956   */\n      swap1\n      pop\n        /* \"#utility.yul\":6597:6962   */\n      swap2\n      swap1\n      pop\n      jump\t// out\n        /* \"#utility.yul\":6968:7086   */\n    tag_240:\n        /* \"#utility.yul\":7055:7079   */\n      tag_242\n        /* \"#utility.yul\":7073:7078   */\n      dup2\n        /* \"#utility.yul\":7055:7079   */\n      tag_243\n      jump\t// in\n    tag_242:\n        /* \"#utility.yul\":7050:7053   */\n      dup3\n        /* \"#utility.yul\":7043:7080   */\n      mstore\n        /* \"#utility.yul\":6968:7086   */\n      pop\n      pop\n      jump\t// out\n        /* \"#utility.yul\":7092:7207   */\n    tag_244:\n        /* \"#utility.yul\":7177:7200   */\n      tag_246\n        /* \"#utility.yul\":7194:7199   */\n      dup2\n        /* \"#utility.yul\":7177:7200   */\n      tag_247\n      jump\t// in\n    tag_246:\n        /* \"#utility.yul\":7172:7175   */\n      dup3\n        /* \"#utility.yul\":7165:7201   */\n      mstore\n        /* \"#utility.yul\":7092:7207   */\n      pop\n      pop\n      jump\t// out\n        /* \"#utility.yul\":7213:7655   */\n    tag_129:\n        /* \"#utility.yul\":7362:7366   */\n      0x00\n        /* \"#utility.yul\":7400:7402   */\n      0x60\n        /* \"#utility.yul\":7389:7398   */\n      dup3\n        /* \"#utility.yul\":7385:7403   */\n      add\n        /* \"#utility.yul\":7377:7403   */\n      swap1\n      pop\n        /* \"#utility.yul\":7413:7484   */\n      tag_249\n        /* \"#utility.yul\":7481:7482   */\n      0x00\n        /* \"#utility.yul\":7470:7479   */\n      dup4\n        /* \"#utility.yul\":7466:7483   */\n      add\n        /* \"#utility.yul\":7457:7463   */\n      dup7\n        /* \"#utility.yul\":7413:7484   */\n      tag_177\n      jump\t// in\n    tag_249:\n        /* \"#utility.yul\":7494:7566   */\n      tag_250\n        /* \"#utility.yul\":7562:7564   */\n      0x20\n        /* \"#utility.yul\":7551:7560   */\n      dup4\n        /* \"#utility.yul\":7547:7565   */\n      add\n        /* \"#utility.yul\":7538:7544   */\n      dup6\n        /* \"#utility.yul\":7494:7566   */\n      tag_177\n      jump\t// in\n    tag_250:\n        /* \"#utility.yul\":7576:7648   */\n      tag_251\n        /* \"#utility.yul\":7644:7646   */\n      0x40\n        /* \"#utility.yul\":7633:7642   */\n      dup4\n        /* \"#utility.yul\":7629:7647   */\n      add\n        /* \"#utility.yul\":7620:7626   */\n      dup5\n        /* \"#utility.yul\":7576:7648   */\n      tag_240\n      jump\t// in\n    tag_251:\n        /* \"#utility.yul\":7213:7655   */\n      swap5\n      swap4\n      pop\n      pop\n      pop\n      pop\n      jump\t// out\n        /* \"#utility.yul\":7661:7993   */\n    tag_61:\n        /* \"#utility.yul\":7782:7786   */\n      0x00\n        /* \"#utility.yul\":7820:7822   */\n      0x40\n        /* \"#utility.yul\":7809:7818   */\n      dup3\n        /* \"#utility.yul\":7805:7823   */\n      add\n        /* \"#utility.yul\":7797:7823   */\n      swap1\n      pop\n        /* \"#utility.yul\":7833:7904   */\n      tag_253\n        /* \"#utility.yul\":7901:7902   */\n      0x00\n        /* \"#utility.yul\":7890:7899   */\n      dup4\n        /* \"#utility.yul\":7886:7903   */\n      add\n        /* \"#utility.yul\":7877:7883   */\n      dup6\n        /* \"#utility.yul\":7833:7904   */\n      tag_177\n      jump\t// in\n    tag_253:\n        /* \"#utility.yul\":7914:7986   */\n      tag_254\n        /* \"#utility.yul\":7982:7984   */\n      0x20\n        /* \"#utility.yul\":7971:7980   */\n      dup4\n        /* \"#utility.yul\":7967:7985   */\n      add\n        /* \"#utility.yul\":7958:7964   */\n      dup5\n        /* \"#utility.yul\":7914:7986   */\n      tag_240\n      jump\t// in\n    tag_254:\n        /* \"#utility.yul\":7661:7993   */\n      swap4\n      swap3\n      pop\n      pop\n      pop\n      jump\t// out\n        /* \"#utility.yul\":7999:8754   */\n    tag_23:\n        /* \"#utility.yul\":8222:8226   */\n      0x00\n        /* \"#utility.yul\":8260:8263   */\n      0xc0\n        /* \"#utility.yul\":8249:8258   */\n      dup3\n        /* \"#utility.yul\":8245:8264   */\n      add\n        /* \"#utility.yul\":8237:8264   */\n      swap1\n      pop\n        /* \"#utility.yul\":8274:8345   */\n      tag_256\n        /* \"#utility.yul\":8342:8343   */\n      0x00\n        /* \"#utility.yul\":8331:8340   */\n      dup4\n        /* \"#utility.yul\":8327:8344   */\n      add\n        /* \"#utility.yul\":8318:8324   */\n      dup10\n        /* \"#utility.yul\":8274:8345   */\n      tag_177\n      jump\t// in\n    tag_256:\n        /* \"#utility.yul\":8355:8427   */\n      tag_257\n        /* \"#utility.yul\":8423:8425   */\n      0x20\n        /* \"#utility.yul\":8412:8421   */\n      dup4\n        /* \"#utility.yul\":8408:8426   */\n      add\n        /* \"#utility.yul\":8399:8405   */\n      dup9\n        /* \"#utility.yul\":8355:8427   */\n      tag_240\n      jump\t// in\n    tag_257:\n        /* \"#utility.yul\":8437:8509   */\n      tag_258\n        /* \"#utility.yul\":8505:8507   */\n      0x40\n        /* \"#utility.yul\":8494:8503   */\n      dup4\n        /* \"#utility.yul\":8490:8508   */\n      add\n        /* \"#utility.yul\":8481:8487   */\n      dup8\n        /* \"#utility.yul\":8437:8509   */\n      tag_240\n      jump\t// in\n    tag_258:\n        /* \"#utility.yul\":8519:8589   */\n      tag_259\n        /* \"#utility.yul\":8585:8587   */\n      0x60\n        /* \"#utility.yul\":8574:8583   */\n      dup4\n        /* \"#utility.yul\":8570:8588   */\n      add\n        /* \"#utility.yul\":8561:8567   */\n      dup7\n        /* \"#utility.yul\":8519:8589   */\n      tag_244\n      jump\t// in\n    tag_259:\n        /* \"#utility.yul\":8599:8670   */\n      tag_260\n        /* \"#utility.yul\":8665:8668   */\n      0x80\n        /* \"#utility.yul\":8654:8663   */\n      dup4\n        /* \"#utility.yul\":8650:8669   */\n      add\n        /* \"#utility.yul\":8641:8647   */\n      dup6\n        /* \"#utility.yul\":8599:8670   */\n      tag_244\n      jump\t// in\n    tag_260:\n        /* \"#utility.yul\":8680:8747   */\n      tag_261\n        /* \"#utility.yul\":8742:8745   */\n      0xa0\n        /* \"#utility.yul\":8731:8740   */\n      dup4\n        /* \"#utility.yul\":8727:8746   */\n      add\n        /* \"#utility.yul\":8718:8724   */\n      dup5\n        /* \"#utility.yul\":8680:8747   */\n      tag_181\n      jump\t// in\n    tag_261:\n        /* \"#utility.yul\":7999:8754   */\n      swap8\n      swap7\n      pop\n      pop\n      pop\n      pop\n      pop\n      pop\n      pop\n      jump\t// out\n        /* \"#utility.yul\":8760:9008   */\n    tag_49:\n        /* \"#utility.yul\":8866:8870   */\n      0x00\n        /* \"#utility.yul\":8904:8906   */\n      0x20\n        /* \"#utility.yul\":8893:8902   */\n      dup3\n        /* \"#utility.yul\":8889:8907   */\n      add\n        /* \"#utility.yul\":8881:8907   */\n      swap1\n      pop\n        /* \"#utility.yul\":8917:9001   */\n      tag_263\n        /* \"#utility.yul\":8998:8999   */\n      0x00\n        /* \"#utility.yul\":8987:8996   */\n      dup4\n        /* \"#utility.yul\":8983:9000   */\n      add\n        /* \"#utility.yul\":8974:8980   */\n      dup5\n        /* \"#utility.yul\":8917:9001   */\n      tag_185\n      jump\t// in\n    tag_263:\n        /* \"#utility.yul\":8760:9008   */\n      swap3\n      swap2\n      pop\n      pop\n      jump\t// out\n        /* \"#utility.yul\":9014:9433   */\n    tag_103:\n        /* \"#utility.yul\":9180:9184   */\n      0x00\n        /* \"#utility.yul\":9218:9220   */\n      0x20\n        /* \"#utility.yul\":9207:9216   */\n      dup3\n        /* \"#utility.yul\":9203:9221   */\n      add\n        /* \"#utility.yul\":9195:9221   */\n      swap1\n      pop\n        /* \"#utility.yul\":9267:9276   */\n      dup2\n        /* \"#utility.yul\":9261:9265   */\n      dup2\n        /* \"#utility.yul\":9257:9277   */\n      sub\n        /* \"#utility.yul\":9253:9254   */\n      0x00\n        /* \"#utility.yul\":9242:9251   */\n      dup4\n        /* \"#utility.yul\":9238:9255   */\n      add\n        /* \"#utility.yul\":9231:9278   */\n      mstore\n        /* \"#utility.yul\":9295:9426   */\n      tag_265\n        /* \"#utility.yul\":9421:9425   */\n      dup2\n        /* \"#utility.yul\":9295:9426   */\n      tag_189\n      jump\t// in\n    tag_265:\n        /* \"#utility.yul\":9287:9426   */\n      swap1\n      pop\n        /* \"#utility.yul\":9014:9433   */\n      swap2\n      swap1\n      pop\n      jump\t// out\n        /* \"#utility.yul\":9439:9858   */\n    tag_78:\n        /* \"#utility.yul\":9605:9609   */\n      0x00\n        /* \"#utility.yul\":9643:9645   */\n      0x20\n        /* \"#utility.yul\":9632:9641   */\n      dup3\n        /* \"#utility.yul\":9628:9646   */\n      add\n        /* \"#utility.yul\":9620:9646   */\n      swap1\n      pop\n        /* \"#utility.yul\":9692:9701   */\n      dup2\n        /* \"#utility.yul\":9686:9690   */\n      dup2\n        /* \"#utility.yul\":9682:9702   */\n      sub\n        /* \"#utility.yul\":9678:9679   */\n      0x00\n        /* \"#utility.yul\":9667:9676   */\n      dup4\n        /* \"#utility.yul\":9663:9680   */\n      add\n        /* \"#utility.yul\":9656:9703   */\n      mstore\n        /* \"#utility.yul\":9720:9851   */\n      tag_267\n        /* \"#utility.yul\":9846:9850   */\n      dup2\n        /* \"#utility.yul\":9720:9851   */\n      tag_195\n      jump\t// in\n    tag_267:\n        /* \"#utility.yul\":9712:9851   */\n      swap1\n      pop\n        /* \"#utility.yul\":9439:9858   */\n      swap2\n      swap1\n      pop\n      jump\t// out\n        /* \"#utility.yul\":9864:10283   */\n    tag_98:\n        /* \"#utility.yul\":10030:10034   */\n      0x00\n        /* \"#utility.yul\":10068:10070   */\n      0x20\n        /* \"#utility.yul\":10057:10066   */\n      dup3\n        /* \"#utility.yul\":10053:10071   */\n      add\n        /* \"#utility.yul\":10045:10071   */\n      swap1\n      pop\n        /* \"#utility.yul\":10117:10126   */\n      dup2\n        /* \"#utility.yul\":10111:10115   */\n      dup2\n        /* \"#utility.yul\":10107:10127   */\n      sub\n        /* \"#utility.yul\":10103:10104   */\n      0x00\n        /* \"#utility.yul\":10092:10101   */\n      dup4\n        /* \"#utility.yul\":10088:10105   */\n      add\n        /* \"#utility.yul\":10081:10128   */\n      mstore\n        /* \"#utility.yul\":10145:10276   */\n      tag_269\n        /* \"#utility.yul\":10271:10275   */\n      dup2\n        /* \"#utility.yul\":10145:10276   */\n      tag_200\n      jump\t// in\n    tag_269:\n        /* \"#utility.yul\":10137:10276   */\n      swap1\n      pop\n        /* \"#utility.yul\":9864:10283   */\n      swap2\n      swap1\n      pop\n      jump\t// out\n        /* \"#utility.yul\":10289:10708   */\n    tag_71:\n        /* \"#utility.yul\":10455:10459   */\n      0x00\n        /* \"#utility.yul\":10493:10495   */\n      0x20\n        /* \"#utility.yul\":10482:10491   */\n      dup3\n        /* \"#utility.yul\":10478:10496   */\n      add\n        /* \"#utility.yul\":10470:10496   */\n      swap1\n      pop\n        /* \"#utility.yul\":10542:10551   */\n      dup2\n        /* \"#utility.yul\":10536:10540   */\n      dup2\n        /* \"#utility.yul\":10532:10552   */\n      sub\n        /* \"#utility.yul\":10528:10529   */\n      0x00\n        /* \"#utility.yul\":10517:10526   */\n      dup4\n        /* \"#utility.yul\":10513:10530   */\n      add\n        /* \"#utility.yul\":10506:10553   */\n      mstore\n        /* \"#utility.yul\":10570:10701   */\n      tag_271\n        /* \"#utility.yul\":10696:10700   */\n      dup2\n        /* \"#utility.yul\":10570:10701   */\n      tag_205\n      jump\t// in\n    tag_271:\n        /* \"#utility.yul\":10562:10701   */\n      swap1\n      pop\n        /* \"#utility.yul\":10289:10708   */\n      swap2\n      swap1\n      pop\n      jump\t// out\n        /* \"#utility.yul\":10714:11133   */\n    tag_95:\n        /* \"#utility.yul\":10880:10884   */\n      0x00\n        /* \"#utility.yul\":10918:10920   */\n      0x20\n        /* \"#utility.yul\":10907:10916   */\n      dup3\n        /* \"#utility.yul\":10903:10921   */\n      add\n        /* \"#utility.yul\":10895:10921   */\n      swap1\n      pop\n        /* \"#utility.yul\":10967:10976   */\n      dup2\n        /* \"#utility.yul\":10961:10965   */\n      dup2\n        /* \"#utility.yul\":10957:10977   */\n      sub\n        /* \"#utility.yul\":10953:10954   */\n      0x00\n        /* \"#utility.yul\":10942:10951   */\n      dup4\n        /* \"#utility.yul\":10938:10955   */\n      add\n        /* \"#utility.yul\":10931:10978   */\n      mstore\n        /* \"#utility.yul\":10995:11126   */\n      tag_273\n        /* \"#utility.yul\":11121:11125   */\n      dup2\n        /* \"#utility.yul\":10995:11126   */\n      tag_210\n      jump\t// in\n    tag_273:\n        /* \"#utility.yul\":10987:11126   */\n      swap1\n      pop\n        /* \"#utility.yul\":10714:11133   */\n      swap2\n      swap1\n      pop\n      jump\t// out\n        /* \"#utility.yul\":11139:11558   */\n    tag_90:\n        /* \"#utility.yul\":11305:11309   */\n      0x00\n        /* \"#utility.yul\":11343:11345   */\n      0x20\n        /* \"#utility.yul\":11332:11341   */\n      dup3\n        /* \"#utility.yul\":11328:11346   */\n      add\n        /* \"#utility.yul\":11320:11346   */\n      swap1\n      pop\n        /* \"#utility.yul\":11392:11401   */\n      dup2\n        /* \"#utility.yul\":11386:11390   */\n      dup2\n        /* \"#utility.yul\":11382:11402   */\n      sub\n        /* \"#utility.yul\":11378:11379   */\n      0x00\n        /* \"#utility.yul\":11367:11376   */\n      dup4\n        /* \"#utility.yul\":11363:11380   */\n      add\n        /* \"#utility.yul\":11356:11403   */\n      mstore\n        /* \"#utility.yul\":11420:11551   */\n      tag_275\n        /* \"#utility.yul\":11546:11550   */\n      dup2\n        /* \"#utility.yul\":11420:11551   */\n      tag_215\n      jump\t// in\n    tag_275:\n        /* \"#utility.yul\":11412:11551   */\n      swap1\n      pop\n        /* \"#utility.yul\":11139:11558   */\n      swap2\n      swap1\n      pop\n      jump\t// out\n        /* \"#utility.yul\":11564:11983   */\n    tag_59:\n        /* \"#utility.yul\":11730:11734   */\n      0x00\n        /* \"#utility.yul\":11768:11770   */\n      0x20\n        /* \"#utility.yul\":11757:11766   */\n      dup3\n        /* \"#utility.yul\":11753:11771   */\n      add\n        /* \"#utility.yul\":11745:11771   */\n      swap1\n      pop\n        /* \"#utility.yul\":11817:11826   */\n      dup2\n        /* \"#utility.yul\":11811:11815   */\n      dup2\n        /* \"#utility.yul\":11807:11827   */\n      sub\n        /* \"#utility.yul\":11803:11804   */\n      0x00\n        /* \"#utility.yul\":11792:11801   */\n      dup4\n        /* \"#utility.yul\":11788:11805   */\n      add\n        /* \"#utility.yul\":11781:11828   */\n      mstore\n        /* \"#utility.yul\":11845:11976   */\n      tag_277\n        /* \"#utility.yul\":11971:11975   */\n      dup2\n        /* \"#utility.yul\":11845:11976   */\n      tag_220\n      jump\t// in\n    tag_277:\n        /* \"#utility.yul\":11837:11976   */\n      swap1\n      pop\n        /* \"#utility.yul\":11564:11983   */\n      swap2\n      swap1\n      pop\n      jump\t// out\n        /* \"#utility.yul\":11989:12408   */\n    tag_123:\n        /* \"#utility.yul\":12155:12159   */\n      0x00\n        /* \"#utility.yul\":12193:12195   */\n      0x20\n        /* \"#utility.yul\":12182:12191   */\n      dup3\n        /* \"#utility.yul\":12178:12196   */\n      add\n        /* \"#utility.yul\":12170:12196   */\n      swap1\n      pop\n        /* \"#utility.yul\":12242:12251   */\n      dup2\n        /* \"#utility.yul\":12236:12240   */\n      dup2\n        /* \"#utility.yul\":12232:12252   */\n      sub\n        /* \"#utility.yul\":12228:12229   */\n      0x00\n        /* \"#utility.yul\":12217:12226   */\n      dup4\n        /* \"#utility.yul\":12213:12230   */\n      add\n        /* \"#utility.yul\":12206:12253   */\n      mstore\n        /* \"#utility.yul\":12270:12401   */\n      tag_279\n        /* \"#utility.yul\":12396:12400   */\n      dup2\n        /* \"#utility.yul\":12270:12401   */\n      tag_225\n      jump\t// in\n    tag_279:\n        /* \"#utility.yul\":12262:12401   */\n      swap1\n      pop\n        /* \"#utility.yul\":11989:12408   */\n      swap2\n      swap1\n      pop\n      jump\t// out\n        /* \"#utility.yul\":12414:12833   */\n    tag_110:\n        /* \"#utility.yul\":12580:12584   */\n      0x00\n        /* \"#utility.yul\":12618:12620   */\n      0x20\n        /* \"#utility.yul\":12607:12616   */\n      dup3\n        /* \"#utility.yul\":12603:12621   */\n      add\n        /* \"#utility.yul\":12595:12621   */\n      swap1\n      pop\n        /* \"#utility.yul\":12667:12676   */\n      dup2\n        /* \"#utility.yul\":12661:12665   */\n      dup2\n        /* \"#utility.yul\":12657:12677   */\n      sub\n        /* \"#utility.yul\":12653:12654   */\n      0x00\n        /* \"#utility.yul\":12642:12651   */\n      dup4\n        /* \"#utility.yul\":12638:12655   */\n      add\n        /* \"#utility.yul\":12631:12678   */\n      mstore\n        /* \"#utility.yul\":12695:12826   */\n      tag_281\n        /* \"#utility.yul\":12821:12825   */\n      dup2\n        /* \"#utility.yul\":12695:12826   */\n      tag_230\n      jump\t// in\n    tag_281:\n        /* \"#utility.yul\":12687:12826   */\n      swap1\n      pop\n        /* \"#utility.yul\":12414:12833   */\n      swap2\n      swap1\n      pop\n      jump\t// out\n        /* \"#utility.yul\":12839:13258   */\n    tag_56:\n        /* \"#utility.yul\":13005:13009   */\n      0x00\n        /* \"#utility.yul\":13043:13045   */\n      0x20\n        /* \"#utility.yul\":13032:13041   */\n      dup3\n        /* \"#utility.yul\":13028:13046   */\n      add\n        /* \"#utility.yul\":13020:13046   */\n      swap1\n      pop\n        /* \"#utility.yul\":13092:13101   */\n      dup2\n        /* \"#utility.yul\":13086:13090   */\n      dup2\n        /* \"#utility.yul\":13082:13102   */\n      sub\n        /* \"#utility.yul\":13078:13079   */\n      0x00\n        /* \"#utility.yul\":13067:13076   */\n      dup4\n        /* \"#utility.yul\":13063:13080   */\n      add\n        /* \"#utility.yul\":13056:13103   */\n      mstore\n        /* \"#utility.yul\":13120:13251   */\n      tag_283\n        /* \"#utility.yul\":13246:13250   */\n      dup2\n        /* \"#utility.yul\":13120:13251   */\n      tag_235\n      jump\t// in\n    tag_283:\n        /* \"#utility.yul\":13112:13251   */\n      swap1\n      pop\n        /* \"#utility.yul\":12839:13258   */\n      swap2\n      swap1\n      pop\n      jump\t// out\n        /* \"#utility.yul\":13264:13486   */\n    tag_17:\n        /* \"#utility.yul\":13357:13361   */\n      0x00\n        /* \"#utility.yul\":13395:13397   */\n      0x20\n        /* \"#utility.yul\":13384:13393   */\n      dup3\n        /* \"#utility.yul\":13380:13398   */\n      add\n        /* \"#utility.yul\":13372:13398   */\n      swap1\n      pop\n        /* \"#utility.yul\":13408:13479   */\n      tag_285\n        /* \"#utility.yul\":13476:13477   */\n      0x00\n        /* \"#utility.yul\":13465:13474   */\n      dup4\n        /* \"#utility.yul\":13461:13478   */\n      add\n        /* \"#utility.yul\":13452:13458   */\n      dup5\n        /* \"#utility.yul\":13408:13479   */\n      tag_240\n      jump\t// in\n    tag_285:\n        /* \"#utility.yul\":13264:13486   */\n      swap3\n      swap2\n      pop\n      pop\n      jump\t// out\n        /* \"#utility.yul\":13492:14037   */\n    tag_106:\n        /* \"#utility.yul\":13665:13669   */\n      0x00\n        /* \"#utility.yul\":13703:13706   */\n      0x80\n        /* \"#utility.yul\":13692:13701   */\n      dup3\n        /* \"#utility.yul\":13688:13707   */\n      add\n        /* \"#utility.yul\":13680:13707   */\n      swap1\n      pop\n        /* \"#utility.yul\":13717:13788   */\n      tag_287\n        /* \"#utility.yul\":13785:13786   */\n      0x00\n        /* \"#utility.yul\":13774:13783   */\n      dup4\n        /* \"#utility.yul\":13770:13787   */\n      add\n        /* \"#utility.yul\":13761:13767   */\n      dup8\n        /* \"#utility.yul\":13717:13788   */\n      tag_240\n      jump\t// in\n    tag_287:\n        /* \"#utility.yul\":13798:13870   */\n      tag_288\n        /* \"#utility.yul\":13866:13868   */\n      0x20\n        /* \"#utility.yul\":13855:13864   */\n      dup4\n        /* \"#utility.yul\":13851:13869   */\n      add\n        /* \"#utility.yul\":13842:13848   */\n      dup7\n        /* \"#utility.yul\":13798:13870   */\n      tag_240\n      jump\t// in\n    tag_288:\n        /* \"#utility.yul\":13880:13950   */\n      tag_289\n        /* \"#utility.yul\":13946:13948   */\n      0x40\n        /* \"#utility.yul\":13935:13944   */\n      dup4\n        /* \"#utility.yul\":13931:13949   */\n      add\n        /* \"#utility.yul\":13922:13928   */\n      dup6\n        /* \"#utility.yul\":13880:13950   */\n      tag_244\n      jump\t// in\n    tag_289:\n        /* \"#utility.yul\":13960:14030   */\n      tag_290\n        /* \"#utility.yul\":14026:14028   */\n      0x60\n        /* \"#utility.yul\":14015:14024   */\n      dup4\n        /* \"#utility.yul\":14011:14029   */\n      add\n        /* \"#utility.yul\":14002:14008   */\n      dup5\n        /* \"#utility.yul\":13960:14030   */\n      tag_244\n      jump\t// in\n    tag_290:\n        /* \"#utility.yul\":13492:14037   */\n      swap6\n      swap5\n      pop\n      pop\n      pop\n      pop\n      pop\n      jump\t// out\n        /* \"#utility.yul\":14124:14293   */\n    tag_192:\n        /* \"#utility.yul\":14208:14219   */\n      0x00\n        /* \"#utility.yul\":14242:14248   */\n      dup3\n        /* \"#utility.yul\":14237:14240   */\n      dup3\n        /* \"#utility.yul\":14230:14249   */\n      mstore\n        /* \"#utility.yul\":14282:14286   */\n      0x20\n        /* \"#utility.yul\":14277:14280   */\n      dup3\n        /* \"#utility.yul\":14273:14287   */\n      add\n        /* \"#utility.yul\":14258:14287   */\n      swap1\n      pop\n        /* \"#utility.yul\":14124:14293   */\n      swap3\n      swap2\n      pop\n      pop\n      jump\t// out\n        /* \"#utility.yul\":14299:14604   */\n    tag_100:\n        /* \"#utility.yul\":14339:14342   */\n      0x00\n        /* \"#utility.yul\":14358:14378   */\n      tag_295\n        /* \"#utility.yul\":14376:14377   */\n      dup3\n        /* \"#utility.yul\":14358:14378   */\n      tag_243\n      jump\t// in\n    tag_295:\n        /* \"#utility.yul\":14353:14378   */\n      swap2\n      pop\n        /* \"#utility.yul\":14392:14412   */\n      tag_296\n        /* \"#utility.yul\":14410:14411   */\n      dup4\n        /* \"#utility.yul\":14392:14412   */\n      tag_243\n      jump\t// in\n    tag_296:\n        /* \"#utility.yul\":14387:14412   */\n      swap3\n      pop\n        /* \"#utility.yul\":14546:14547   */\n      dup3\n        /* \"#utility.yul\":14478:14544   */\n      0xffffffffffffffffffffffffffffffffffffffffffffffffffffffffffffffff\n        /* \"#utility.yul\":14474:14548   */\n      sub\n        /* \"#utility.yul\":14471:14472   */\n      dup3\n        /* \"#utility.yul\":14468:14549   */\n      gt\n        /* \"#utility.yul\":14465:14572   */\n      iszero\n      tag_297\n      jumpi\n        /* \"#utility.yul\":14552:14570   */\n      tag_298\n      tag_299\n      jump\t// in\n    tag_298:\n        /* \"#utility.yul\":14465:14572   */\n    tag_297:\n        /* \"#utility.yul\":14596:14597   */\n      dup3\n        /* \"#utility.yul\":14593:14594   */\n      dup3\n        /* \"#utility.yul\":14589:14598   */\n      add\n        /* \"#utility.yul\":14582:14598   */\n      swap1\n      pop\n        /* \"#utility.yul\":14299:14604   */\n      swap3\n      swap2\n      pop\n      pop\n      jump\t// out\n        /* \"#utility.yul\":14610:14801   */\n    tag_112:\n        /* \"#utility.yul\":14650:14654   */\n      0x00\n        /* \"#utility.yul\":14670:14690   */\n      tag_301\n        /* \"#utility.yul\":14688:14689   */\n      dup3\n        /* \"#utility.yul\":14670:14690   */\n      tag_243\n      jump\t// in\n    tag_301:\n        /* \"#utility.yul\":14665:14690   */\n      swap2\n      pop\n        /* \"#utility.yul\":14704:14724   */\n      tag_302\n        /* \"#utility.yul\":14722:14723   */\n      dup4\n        /* \"#utility.yul\":14704:14724   */\n      tag_243\n      jump\t// in\n    tag_302:\n        /* \"#utility.yul\":14699:14724   */\n      swap3\n      pop\n        /* \"#utility.yul\":14743:14744   */\n      dup3\n        /* \"#utility.yul\":14740:14741   */\n      dup3\n        /* \"#utility.yul\":14737:14745   */\n      lt\n        /* \"#utility.yul\":14734:14768   */\n      iszero\n      tag_303\n      jumpi\n        /* \"#utility.yul\":14748:14766   */\n      tag_304\n      tag_299\n      jump\t// in\n    tag_304:\n        /* \"#utility.yul\":14734:14768   */\n    tag_303:\n        /* \"#utility.yul\":14793:14794   */\n      dup3\n        /* \"#utility.yul\":14790:14791   */\n      dup3\n        /* \"#utility.yul\":14786:14795   */\n      sub\n        /* \"#utility.yul\":14778:14795   */\n      swap1\n      pop\n        /* \"#utility.yul\":14610:14801   */\n      swap3\n      swap2\n      pop\n      pop\n      jump\t// out\n        /* \"#utility.yul\":14807:14903   */\n    tag_180:\n        /* \"#utility.yul\":14844:14851   */\n      0x00\n        /* \"#utility.yul\":14873:14897   */\n      tag_306\n        /* \"#utility.yul\":14891:14896   */\n      dup3\n        /* \"#utility.yul\":14873:14897   */\n      tag_307\n      jump\t// in\n    tag_306:\n        /* \"#utility.yul\":14862:14897   */\n      swap1\n      pop\n        /* \"#utility.yul\":14807:14903   */\n      swap2\n      swap1\n      pop\n      jump\t// out\n        /* \"#utility.yul\":14909:14999   */\n    tag_184:\n        /* \"#utility.yul\":14943:14950   */\n      0x00\n        /* \"#utility.yul\":14986:14991   */\n      dup2\n        /* \"#utility.yul\":14979:14992   */\n      iszero\n        /* \"#utility.yul\":14972:14993   */\n      iszero\n        /* \"#utility.yul\":14961:14993   */\n      swap1\n      pop\n        /* \"#utility.yul\":14909:14999   */\n      swap2\n      swap1\n      pop\n      jump\t// out\n        /* \"#utility.yul\":15005:15131   */\n    tag_307:\n        /* \"#utility.yul\":15042:15049   */\n      0x00\n        /* \"#utility.yul\":15082:15124   */\n      0xffffffffffffffffffffffffffffffffffffffff\n        /* \"#utility.yul\":15075:15080   */\n      dup3\n        /* \"#utility.yul\":15071:15125   */\n      and\n        /* \"#utility.yul\":15060:15125   */\n      swap1\n      pop\n        /* \"#utility.yul\":15005:15131   */\n      swap2\n      swap1\n      pop\n      jump\t// out\n        /* \"#utility.yul\":15137:15214   */\n    tag_243:\n        /* \"#utility.yul\":15174:15181   */\n      0x00\n        /* \"#utility.yul\":15203:15208   */\n      dup2\n        /* \"#utility.yul\":15192:15208   */\n      swap1\n      pop\n        /* \"#utility.yul\":15137:15214   */\n      swap2\n      swap1\n      pop\n      jump\t// out\n        /* \"#utility.yul\":15220:15313   */\n    tag_247:\n        /* \"#utility.yul\":15256:15263   */\n      0x00\n        /* \"#utility.yul\":15296:15306   */\n      0xffffffff\n        /* \"#utility.yul\":15289:15294   */\n      dup3\n        /* \"#utility.yul\":15285:15307   */\n      and\n        /* \"#utility.yul\":15274:15307   */\n      swap1\n      pop\n        /* \"#utility.yul\":15220:15313   */\n      swap2\n      swap1\n      pop\n      jump\t// out\n        /* \"#utility.yul\":15319:15458   */\n    tag_188:\n        /* \"#utility.yul\":15382:15391   */\n      0x00\n        /* \"#utility.yul\":15415:15452   */\n      tag_313\n        /* \"#utility.yul\":15446:15451   */\n      dup3\n        /* \"#utility.yul\":15415:15452   */\n      tag_314\n      jump\t// in\n    tag_313:\n        /* \"#utility.yul\":15402:15452   */\n      swap1\n      pop\n        /* \"#utility.yul\":15319:15458   */\n      swap2\n      swap1\n      pop\n      jump\t// out\n        /* \"#utility.yul\":15464:15590   */\n    tag_314:\n        /* \"#utility.yul\":15514:15523   */\n      0x00\n        /* \"#utility.yul\":15547:15584   */\n      tag_316\n        /* \"#utility.yul\":15578:15583   */\n      dup3\n        /* \"#utility.yul\":15547:15584   */\n      tag_317\n      jump\t// in\n    tag_316:\n        /* \"#utility.yul\":15534:15584   */\n      swap1\n      pop\n        /* \"#utility.yul\":15464:15590   */\n      swap2\n      swap1\n      pop\n      jump\t// out\n        /* \"#utility.yul\":15596:15709   */\n    tag_317:\n        /* \"#utility.yul\":15646:15655   */\n      0x00\n        /* \"#utility.yul\":15679:15703   */\n      tag_319\n        /* \"#utility.yul\":15697:15702   */\n      dup3\n        /* \"#utility.yul\":15679:15703   */\n      tag_307\n      jump\t// in\n    tag_319:\n        /* \"#utility.yul\":15666:15703   */\n      swap1\n      pop\n        /* \"#utility.yul\":15596:15709   */\n      swap2\n      swap1\n      pop\n      jump\t// out\n        /* \"#utility.yul\":15715:15895   */\n    tag_299:\n        /* \"#utility.yul\":15763:15840   */\n      0x4e487b7100000000000000000000000000000000000000000000000000000000\n        /* \"#utility.yul\":15760:15761   */\n      0x00\n        /* \"#utility.yul\":15753:15841   */\n      mstore\n        /* \"#utility.yul\":15860:15864   */\n      0x11\n        /* \"#utility.yul\":15857:15858   */\n      0x04\n        /* \"#utility.yul\":15850:15865   */\n      mstore\n        /* \"#utility.yul\":15884:15888   */\n      0x24\n        /* \"#utility.yul\":15881:15882   */\n      0x00\n        /* \"#utility.yul\":15874:15889   */\n      revert\n        /* \"#utility.yul\":16024:16141   */\n    tag_155:\n        /* \"#utility.yul\":16133:16134   */\n      0x00\n        /* \"#utility.yul\":16130:16131   */\n      dup1\n        /* \"#utility.yul\":16123:16135   */\n      revert\n        /* \"#utility.yul\":16147:16318   */\n    tag_194:\n        /* \"#utility.yul\":16287:16310   */\n      0x656e64206174203e206d6178206475726174696f6e0000000000000000000000\n        /* \"#utility.yul\":16283:16284   */\n      0x00\n        /* \"#utility.yul\":16275:16281   */\n      dup3\n        /* \"#utility.yul\":16271:16285   */\n      add\n        /* \"#utility.yul\":16264:16311   */\n      mstore\n        /* \"#utility.yul\":16147:16318   */\n      pop\n      jump\t// out\n        /* \"#utility.yul\":16324:16481   */\n    tag_199:\n        /* \"#utility.yul\":16464:16473   */\n      0x636c61696d656400000000000000000000000000000000000000000000000000\n        /* \"#utility.yul\":16460:16461   */\n      0x00\n        /* \"#utility.yul\":16452:16458   */\n      dup3\n        /* \"#utility.yul\":16448:16462   */\n      add\n        /* \"#utility.yul\":16441:16474   */\n      mstore\n        /* \"#utility.yul\":16324:16481   */\n      pop\n      jump\t// out\n        /* \"#utility.yul\":16487:16654   */\n    tag_204:\n        /* \"#utility.yul\":16627:16646   */\n      0x656e64206174203c207374617274206174000000000000000000000000000000\n        /* \"#utility.yul\":16623:16624   */\n      0x00\n        /* \"#utility.yul\":16615:16621   */\n      dup3\n        /* \"#utility.yul\":16611:16625   */\n      add\n        /* \"#utility.yul\":16604:16647   */\n      mstore\n        /* \"#utility.yul\":16487:16654   */\n      pop\n      jump\t// out\n        /* \"#utility.yul\":16660:16821   */\n    tag_209:\n        /* \"#utility.yul\":16800:16813   */\n      0x6e6f742063726561746f72000000000000000000000000000000000000000000\n        /* \"#utility.yul\":16796:16797   */\n      0x00\n        /* \"#utility.yul\":16788:16794   */\n      dup3\n        /* \"#utility.yul\":16784:16798   */\n      add\n        /* \"#utility.yul\":16777:16814   */\n      mstore\n        /* \"#utility.yul\":16660:16821   */\n      pop\n      jump\t// out\n        /* \"#utility.yul\":16827:16991   */\n    tag_214:\n        /* \"#utility.yul\":16967:16983   */\n      0x7374617274206174203c206e6f77000000000000000000000000000000000000\n        /* \"#utility.yul\":16963:16964   */\n      0x00\n        /* \"#utility.yul\":16955:16961   */\n      dup3\n        /* \"#utility.yul\":16951:16965   */\n      add\n        /* \"#utility.yul\":16944:16984   */\n      mstore\n        /* \"#utility.yul\":16827:16991   */\n      pop\n      jump\t// out\n        /* \"#utility.yul\":16997:17154   */\n    tag_219:\n        /* \"#utility.yul\":17137:17146   */\n      0x7374617274656400000000000000000000000000000000000000000000000000\n        /* \"#utility.yul\":17133:17134   */\n      0x00\n        /* \"#utility.yul\":17125:17131   */\n      dup3\n        /* \"#utility.yul\":17121:17135   */\n      add\n        /* \"#utility.yul\":17114:17147   */\n      mstore\n        /* \"#utility.yul\":16997:17154   */\n      pop\n      jump\t// out\n        /* \"#utility.yul\":17160:17324   */\n    tag_224:\n        /* \"#utility.yul\":17300:17316   */\n      0x706c6564676564203c20676f616c000000000000000000000000000000000000\n        /* \"#utility.yul\":17296:17297   */\n      0x00\n        /* \"#utility.yul\":17288:17294   */\n      dup3\n        /* \"#utility.yul\":17284:17298   */\n      add\n        /* \"#utility.yul\":17277:17317   */\n      mstore\n        /* \"#utility.yul\":17160:17324   */\n      pop\n      jump\t// out\n        /* \"#utility.yul\":17330:17491   */\n    tag_229:\n        /* \"#utility.yul\":17470:17483   */\n      0x6e6f742073746172746564000000000000000000000000000000000000000000\n        /* \"#utility.yul\":17466:17467   */\n      0x00\n        /* \"#utility.yul\":17458:17464   */\n      dup3\n        /* \"#utility.yul\":17454:17468   */\n      add\n        /* \"#utility.yul\":17447:17484   */\n      mstore\n        /* \"#utility.yul\":17330:17491   */\n      pop\n      jump\t// out\n        /* \"#utility.yul\":17497:17652   */\n    tag_234:\n        /* \"#utility.yul\":17637:17644   */\n      0x656e646564000000000000000000000000000000000000000000000000000000\n        /* \"#utility.yul\":17633:17634   */\n      0x00\n        /* \"#utility.yul\":17625:17631   */\n      dup3\n        /* \"#utility.yul\":17621:17635   */\n      add\n        /* \"#utility.yul\":17614:17645   */\n      mstore\n        /* \"#utility.yul\":17497:17652   */\n      pop\n      jump\t// out\n        /* \"#utility.yul\":17658:17817   */\n    tag_239:\n        /* \"#utility.yul\":17798:17809   */\n      0x6e6f7420656e6465640000000000000000000000000000000000000000000000\n        /* \"#utility.yul\":17794:17795   */\n      0x00\n        /* \"#utility.yul\":17786:17792   */\n      dup3\n        /* \"#utility.yul\":17782:17796   */\n      add\n        /* \"#utility.yul\":17775:17810   */\n      mstore\n        /* \"#utility.yul\":17658:17817   */\n      pop\n      jump\t// out\n        /* \"#utility.yul\":17823:17945   */\n    tag_139:\n        /* \"#utility.yul\":17896:17920   */\n      tag_335\n        /* \"#utility.yul\":17914:17919   */\n      dup2\n        /* \"#utility.yul\":17896:17920   */\n      tag_180\n      jump\t// in\n    tag_335:\n        /* \"#utility.yul\":17889:17894   */\n      dup2\n        /* \"#utility.yul\":17886:17921   */\n      eq\n        /* \"#utility.yul\":17876:17939   */\n      tag_336\n      jumpi\n        /* \"#utility.yul\":17935:17936   */\n      0x00\n        /* \"#utility.yul\":17932:17933   */\n      dup1\n        /* \"#utility.yul\":17925:17937   */\n      revert\n        /* \"#utility.yul\":17876:17939   */\n    tag_336:\n        /* \"#utility.yul\":17823:17945   */\n      pop\n      jump\t// out\n        /* \"#utility.yul\":17951:18067   */\n    tag_143:\n        /* \"#utility.yul\":18021:18042   */\n      tag_338\n        /* \"#utility.yul\":18036:18041   */\n      dup2\n        /* \"#utility.yul\":18021:18042   */\n      tag_184\n      jump\t// in\n    tag_338:\n        /* \"#utility.yul\":18014:18019   */\n      dup2\n        /* \"#utility.yul\":18011:18043   */\n      eq\n        /* \"#utility.yul\":18001:18061   */\n      tag_339\n      jumpi\n        /* \"#utility.yul\":18057:18058   */\n      0x00\n        /* \"#utility.yul\":18054:18055   */\n      dup1\n        /* \"#utility.yul\":18047:18059   */\n      revert\n        /* \"#utility.yul\":18001:18061   */\n    tag_339:\n        /* \"#utility.yul\":17951:18067   */\n      pop\n      jump\t// out\n        /* \"#utility.yul\":18073:18195   */\n    tag_147:\n        /* \"#utility.yul\":18146:18170   */\n      tag_341\n        /* \"#utility.yul\":18164:18169   */\n      dup2\n        /* \"#utility.yul\":18146:18170   */\n      tag_243\n      jump\t// in\n    tag_341:\n        /* \"#utility.yul\":18139:18144   */\n      dup2\n        /* \"#utility.yul\":18136:18171   */\n      eq\n        /* \"#utility.yul\":18126:18189   */\n      tag_342\n      jumpi\n        /* \"#utility.yul\":18185:18186   */\n      0x00\n        /* \"#utility.yul\":18182:18183   */\n      dup1\n        /* \"#utility.yul\":18175:18187   */\n      revert\n        /* \"#utility.yul\":18126:18189   */\n    tag_342:\n        /* \"#utility.yul\":18073:18195   */\n      pop\n      jump\t// out\n        /* \"#utility.yul\":18201:18321   */\n    tag_151:\n        /* \"#utility.yul\":18273:18296   */\n      tag_344\n        /* \"#utility.yul\":18290:18295   */\n      dup2\n        /* \"#utility.yul\":18273:18296   */\n      tag_247\n      jump\t// in\n    tag_344:\n        /* \"#utility.yul\":18266:18271   */\n      dup2\n        /* \"#utility.yul\":18263:18297   */\n      eq\n        /* \"#utility.yul\":18253:18315   */\n      tag_345\n      jumpi\n        /* \"#utility.yul\":18311:18312   */\n      0x00\n        /* \"#utility.yul\":18308:18309   */\n      dup1\n        /* \"#utility.yul\":18301:18313   */\n      revert\n        /* \"#utility.yul\":18253:18315   */\n    tag_345:\n        /* \"#utility.yul\":18201:18321   */\n      pop\n      jump\t// out\n\n    auxdata: 0xa26469706673582212203750e6f7802df2c5aebe2c9ae37fe10f89c7350e6f8c58ed2904d62ff1211dcb64736f6c63430008070033\n}\n",
				"bytecode": {
					"linkReferences": {},
					"object": "60a06040523480156200001157600080fd5b5060405162001bb638038062001bb683398181016040528101906200003791906200008c565b8073ffffffffffffffffffffffffffffffffffffffff1660808173ffffffffffffffffffffffffffffffffffffffff1660601b815250505062000111565b6000815190506200008681620000f7565b92915050565b600060208284031215620000a557620000a4620000f2565b5b6000620000b58482850162000075565b91505092915050565b6000620000cb82620000d2565b9050919050565b600073ffffffffffffffffffffffffffffffffffffffff82169050919050565b600080fd5b6200010281620000be565b81146200010e57600080fd5b50565b60805160601c611a6a6200014c600039600081816103e6015281816106a701528181610d9b01528181610ec201526110390152611a6a6000f3fe608060405234801561001057600080fd5b506004361061009e5760003560e01c80635aa6df1a116100665780635aa6df1a1461014a578063711853ab14610166578063aa4fb63a14610182578063fc0c546a146101b2578063fde327be146101d05761009e565b806306661abd146100a3578063141961bc146100c1578063278ecde1146100f6578063379607f51461011257806340e58ee51461012e575b600080fd5b6100ab6101ec565b6040516100b89190611681565b60405180910390f35b6100db60048036038101906100d691906111bc565b6101f2565b6040516100ed969594939291906114c5565b60405180910390f35b610110600480360381019061010b91906111bc565b61027b565b005b61012c600480360381019061012791906111bc565b6104e6565b005b610148600480360381019061014391906111bc565b610792565b005b610164600480360381019061015f9190611269565b610a0d565b005b610180600480360381019061017b9190611229565b610ca3565b005b61019c600480360381019061019791906111e9565b610e9b565b6040516101a99190611681565b60405180910390f35b6101ba610ec0565b6040516101c79190611526565b60405180910390f35b6101ea60048036038101906101e59190611229565b610ee4565b005b60005481565b60016020528060005260406000206000915090508060000160009054906101000a900473ffffffffffffffffffffffffffffffffffffffff16908060010154908060020154908060030160009054906101000a900463ffffffff16908060030160049054906101000a900463ffffffff16908060030160089054906101000a900460ff16905086565b60006001600083815260200190815260200160002090508060030160049054906101000a900463ffffffff1663ffffffff1642116102ee576040517f08c379a00000000000000000000000000000000000000000000000000000000081526004016102e590611661565b60405180910390fd5b806001015481600201541015610339576040517f08c379a000000000000000000000000000000000000000000000000000000000815260040161033090611601565b60405180910390fd5b60006002600084815260200190815260200160002060003373ffffffffffffffffffffffffffffffffffffffff1673ffffffffffffffffffffffffffffffffffffffff16815260200190815260200160002054905060006002600085815260200190815260200160002060003373ffffffffffffffffffffffffffffffffffffffff1673ffffffffffffffffffffffffffffffffffffffff168152602001908152602001600020819055507f000000000000000000000000000000000000000000000000000000000000000073ffffffffffffffffffffffffffffffffffffffff1663a9059cbb33836040518363ffffffff1660e01b815260040161043f92919061149c565b602060405180830381600087803b15801561045957600080fd5b505af115801561046d573d6000803e3d6000fd5b505050506040513d601f19601f82011682018060405250810190610491919061118f565b503373ffffffffffffffffffffffffffffffffffffffff16837f21e12a7cad0da5928167e1084ea4d5fdf8d9af66657a2543a9ac76a0ca081477836040516104d99190611681565b60405180910390a3505050565b60006001600083815260200190815260200160002090508060000160009054906101000a900473ffffffffffffffffffffffffffffffffffffffff1673ffffffffffffffffffffffffffffffffffffffff163373ffffffffffffffffffffffffffffffffffffffff161461058f576040517f08c379a0000000000000000000000000000000000000000000000000000000008152600401610586906115a1565b60405180910390fd5b8060030160049054906101000a900463ffffffff1663ffffffff1642116105eb576040517f08c379a00000000000000000000000000000000000000000000000000000000081526004016105e290611661565b60405180910390fd5b806001015481600201541015610636576040517f08c379a000000000000000000000000000000000000000000000000000000000815260040161062d90611601565b60405180910390fd5b8060030160089054906101000a900460ff1615610688576040517f08c379a000000000000000000000000000000000000000000000000000000000815260040161067f90611561565b60405180910390fd5b60018160030160086101000a81548160ff0219169083151502179055507f000000000000000000000000000000000000000000000000000000000000000073ffffffffffffffffffffffffffffffffffffffff1663a9059cbb3383600201546040518363ffffffff1660e01b815260040161070492919061149c565b602060405180830381600087803b15801561071e57600080fd5b505af1158015610732573d6000803e3d6000fd5b505050506040513d601f19601f82011682018060405250810190610756919061118f565b507f7bb2b3c10797baccb6f8c4791f1edd6ca2f0d028ee0eda64b01a9a57e3a653f7826040516107869190611681565b60405180910390a15050565b6000600160008381526020019081526020016000206040518060c00160405290816000820160009054906101000a900473ffffffffffffffffffffffffffffffffffffffff1673ffffffffffffffffffffffffffffffffffffffff1673ffffffffffffffffffffffffffffffffffffffff16815260200160018201548152602001600282015481526020016003820160009054906101000a900463ffffffff1663ffffffff1663ffffffff1681526020016003820160049054906101000a900463ffffffff1663ffffffff1663ffffffff1681526020016003820160089054906101000a900460ff1615151515815250509050806000015173ffffffffffffffffffffffffffffffffffffffff163373ffffffffffffffffffffffffffffffffffffffff16146108f7576040517f08c379a00000000000000000000000000000000000000000000000000000000081526004016108ee906115a1565b60405180910390fd5b806060015163ffffffff164210610943576040517f08c379a000000000000000000000000000000000000000000000000000000000815260040161093a906115e1565b60405180910390fd5b60016000838152602001908152602001600020600080820160006101000a81549073ffffffffffffffffffffffffffffffffffffffff0219169055600182016000905560028201600090556003820160006101000a81549063ffffffff02191690556003820160046101000a81549063ffffffff02191690556003820160086101000a81549060ff021916905550507f8bf30e7ff26833413be5f69e1d373744864d600b664204b4a2f9844a8eedb9ed82604051610a019190611681565b60405180910390a15050565b428263ffffffff161015610a56576040517f08c379a0000000000000000000000000000000000000000000000000000000008152600401610a4d906115c1565b60405180910390fd5b8163ffffffff168163ffffffff161015610aa5576040517f08c379a0000000000000000000000000000000000000000000000000000000008152600401610a9c90611581565b60405180910390fd5b6276a70042610ab491906116f2565b8163ffffffff161115610afc576040517f08c379a0000000000000000000000000000000000000000000000000000000008152600401610af390611541565b60405180910390fd5b6001600080828254610b0e91906116f2565b925050819055506040518060c001604052803373ffffffffffffffffffffffffffffffffffffffff168152602001848152602001600081526020018363ffffffff1681526020018263ffffffff16815260200160001515815250600160008054815260200190815260200160002060008201518160000160006101000a81548173ffffffffffffffffffffffffffffffffffffffff021916908373ffffffffffffffffffffffffffffffffffffffff160217905550602082015181600101556040820151816002015560608201518160030160006101000a81548163ffffffff021916908363ffffffff16021790555060808201518160030160046101000a81548163ffffffff021916908363ffffffff16021790555060a08201518160030160086101000a81548160ff0219169083151502179055509050503373ffffffffffffffffffffffffffffffffffffffff167f0601cd0d650b473037e838a2696d41e654433d065b3f56b28d1d3302e44a304f600054858585604051610c96949392919061169c565b60405180910390a2505050565b60006001600084815260200190815260200160002090508060030160049054906101000a900463ffffffff1663ffffffff16421115610d17576040517f08c379a0000000000000000000000000000000000000000000000000000000008152600401610d0e90611641565b60405180910390fd5b81816002016000828254610d2b9190611748565b92505081905550816002600085815260200190815260200160002060003373ffffffffffffffffffffffffffffffffffffffff1673ffffffffffffffffffffffffffffffffffffffff1681526020019081526020016000206000828254610d929190611748565b925050819055507f000000000000000000000000000000000000000000000000000000000000000073ffffffffffffffffffffffffffffffffffffffff1663a9059cbb33846040518363ffffffff1660e01b8152600401610df492919061149c565b602060405180830381600087803b158015610e0e57600080fd5b505af1158015610e22573d6000803e3d6000fd5b505050506040513d601f19601f82011682018060405250810190610e46919061118f565b503373ffffffffffffffffffffffffffffffffffffffff16837ffcd29b1632c6748a9a4bb9b4cd5c6486c3c84a8550dce2368f83fef3969d968584604051610e8e9190611681565b60405180910390a3505050565b6002602052816000526040600020602052806000526040600020600091509150505481565b7f000000000000000000000000000000000000000000000000000000000000000081565b60006001600084815260200190815260200160002090508060030160009054906101000a900463ffffffff1663ffffffff16421015610f58576040517f08c379a0000000000000000000000000000000000000000000000000000000008152600401610f4f90611621565b60405180910390fd5b8060030160049054906101000a900463ffffffff1663ffffffff16421115610fb5576040517f08c379a0000000000000000000000000000000000000000000000000000000008152600401610fac90611641565b60405180910390fd5b81816002016000828254610fc991906116f2565b92505081905550816002600085815260200190815260200160002060003373ffffffffffffffffffffffffffffffffffffffff1673ffffffffffffffffffffffffffffffffffffffff168152602001908152602001600020600082825461103091906116f2565b925050819055507f000000000000000000000000000000000000000000000000000000000000000073ffffffffffffffffffffffffffffffffffffffff166323b872dd3330856040518463ffffffff1660e01b815260040161109493929190611465565b602060405180830381600087803b1580156110ae57600080fd5b505af11580156110c2573d6000803e3d6000fd5b505050506040513d601f19601f820116820180604052508101906110e6919061118f565b503373ffffffffffffffffffffffffffffffffffffffff16837f2757ac6a40883f4491cc56930ae964df9034e343e660d5179eb01e198336756b8460405161112e9190611681565b60405180910390a3505050565b60008135905061114a816119d8565b92915050565b60008151905061115f816119ef565b92915050565b60008135905061117481611a06565b92915050565b60008135905061118981611a1d565b92915050565b6000602082840312156111a5576111a4611839565b5b60006111b384828501611150565b91505092915050565b6000602082840312156111d2576111d1611839565b5b60006111e084828501611165565b91505092915050565b60008060408385031215611200576111ff611839565b5b600061120e85828601611165565b925050602061121f8582860161113b565b9150509250929050565b600080604083850312156112405761123f611839565b5b600061124e85828601611165565b925050602061125f85828601611165565b9150509250929050565b60008060006060848603121561128257611281611839565b5b600061129086828701611165565b93505060206112a18682870161117a565b92505060406112b28682870161117a565b9150509250925092565b6112c58161177c565b82525050565b6112d48161178e565b82525050565b6112e3816117d4565b82525050565b60006112f66015836116e1565b91506113018261183e565b602082019050919050565b60006113196007836116e1565b915061132482611867565b602082019050919050565b600061133c6011836116e1565b915061134782611890565b602082019050919050565b600061135f600b836116e1565b915061136a826118b9565b602082019050919050565b6000611382600e836116e1565b915061138d826118e2565b602082019050919050565b60006113a56007836116e1565b91506113b08261190b565b602082019050919050565b60006113c8600e836116e1565b91506113d382611934565b602082019050919050565b60006113eb600b836116e1565b91506113f68261195d565b602082019050919050565b600061140e6005836116e1565b915061141982611986565b602082019050919050565b60006114316009836116e1565b915061143c826119af565b602082019050919050565b611450816117ba565b82525050565b61145f816117c4565b82525050565b600060608201905061147a60008301866112bc565b61148760208301856112bc565b6114946040830184611447565b949350505050565b60006040820190506114b160008301856112bc565b6114be6020830184611447565b9392505050565b600060c0820190506114da60008301896112bc565b6114e76020830188611447565b6114f46040830187611447565b6115016060830186611456565b61150e6080830185611456565b61151b60a08301846112cb565b979650505050505050565b600060208201905061153b60008301846112da565b92915050565b6000602082019050818103600083015261155a816112e9565b9050919050565b6000602082019050818103600083015261157a8161130c565b9050919050565b6000602082019050818103600083015261159a8161132f565b9050919050565b600060208201905081810360008301526115ba81611352565b9050919050565b600060208201905081810360008301526115da81611375565b9050919050565b600060208201905081810360008301526115fa81611398565b9050919050565b6000602082019050818103600083015261161a816113bb565b9050919050565b6000602082019050818103600083015261163a816113de565b9050919050565b6000602082019050818103600083015261165a81611401565b9050919050565b6000602082019050818103600083015261167a81611424565b9050919050565b60006020820190506116966000830184611447565b92915050565b60006080820190506116b16000830187611447565b6116be6020830186611447565b6116cb6040830185611456565b6116d86060830184611456565b95945050505050565b600082825260208201905092915050565b60006116fd826117ba565b9150611708836117ba565b9250827fffffffffffffffffffffffffffffffffffffffffffffffffffffffffffffffff0382111561173d5761173c61180a565b5b828201905092915050565b6000611753826117ba565b915061175e836117ba565b9250828210156117715761177061180a565b5b828203905092915050565b60006117878261179a565b9050919050565b60008115159050919050565b600073ffffffffffffffffffffffffffffffffffffffff82169050919050565b6000819050919050565b600063ffffffff82169050919050565b60006117df826117e6565b9050919050565b60006117f1826117f8565b9050919050565b60006118038261179a565b9050919050565b7f4e487b7100000000000000000000000000000000000000000000000000000000600052601160045260246000fd5b600080fd5b7f656e64206174203e206d6178206475726174696f6e0000000000000000000000600082015250565b7f636c61696d656400000000000000000000000000000000000000000000000000600082015250565b7f656e64206174203c207374617274206174000000000000000000000000000000600082015250565b7f6e6f742063726561746f72000000000000000000000000000000000000000000600082015250565b7f7374617274206174203c206e6f77000000000000000000000000000000000000600082015250565b7f7374617274656400000000000000000000000000000000000000000000000000600082015250565b7f706c6564676564203c20676f616c000000000000000000000000000000000000600082015250565b7f6e6f742073746172746564000000000000000000000000000000000000000000600082015250565b7f656e646564000000000000000000000000000000000000000000000000000000600082015250565b7f6e6f7420656e6465640000000000000000000000000000000000000000000000600082015250565b6119e18161177c565b81146119ec57600080fd5b50565b6119f88161178e565b8114611a0357600080fd5b50565b611a0f816117ba565b8114611a1a57600080fd5b50565b611a26816117c4565b8114611a3157600080fd5b5056fea26469706673582212203750e6f7802df2c5aebe2c9ae37fe10f89c7350e6f8c58ed2904d62ff1211dcb64736f6c63430008070033",
					"opcodes": "PUSH1 0xA0 PUSH1 0x40 MSTORE CALLVALUE DUP1 ISZERO PUSH3 0x11 JUMPI PUSH1 0x0 DUP1 REVERT JUMPDEST POP PUSH1 0x40 MLOAD PUSH3 0x1BB6 CODESIZE SUB DUP1 PUSH3 0x1BB6 DUP4 CODECOPY DUP2 DUP2 ADD PUSH1 0x40 MSTORE DUP2 ADD SWAP1 PUSH3 0x37 SWAP2 SWAP1 PUSH3 0x8C JUMP JUMPDEST DUP1 PUSH20 0xFFFFFFFFFFFFFFFFFFFFFFFFFFFFFFFFFFFFFFFF AND PUSH1 0x80 DUP2 PUSH20 0xFFFFFFFFFFFFFFFFFFFFFFFFFFFFFFFFFFFFFFFF AND PUSH1 0x60 SHL DUP2 MSTORE POP POP POP PUSH3 0x111 JUMP JUMPDEST PUSH1 0x0 DUP2 MLOAD SWAP1 POP PUSH3 0x86 DUP2 PUSH3 0xF7 JUMP JUMPDEST SWAP3 SWAP2 POP POP JUMP JUMPDEST PUSH1 0x0 PUSH1 0x20 DUP3 DUP5 SUB SLT ISZERO PUSH3 0xA5 JUMPI PUSH3 0xA4 PUSH3 0xF2 JUMP JUMPDEST JUMPDEST PUSH1 0x0 PUSH3 0xB5 DUP5 DUP3 DUP6 ADD PUSH3 0x75 JUMP JUMPDEST SWAP2 POP POP SWAP3 SWAP2 POP POP JUMP JUMPDEST PUSH1 0x0 PUSH3 0xCB DUP3 PUSH3 0xD2 JUMP JUMPDEST SWAP1 POP SWAP2 SWAP1 POP JUMP JUMPDEST PUSH1 0x0 PUSH20 0xFFFFFFFFFFFFFFFFFFFFFFFFFFFFFFFFFFFFFFFF DUP3 AND SWAP1 POP SWAP2 SWAP1 POP JUMP JUMPDEST PUSH1 0x0 DUP1 REVERT JUMPDEST PUSH3 0x102 DUP2 PUSH3 0xBE JUMP JUMPDEST DUP2 EQ PUSH3 0x10E JUMPI PUSH1 0x0 DUP1 REVERT JUMPDEST POP JUMP JUMPDEST PUSH1 0x80 MLOAD PUSH1 0x60 SHR PUSH2 0x1A6A PUSH3 0x14C PUSH1 0x0 CODECOPY PUSH1 0x0 DUP2 DUP2 PUSH2 0x3E6 ADD MSTORE DUP2 DUP2 PUSH2 0x6A7 ADD MSTORE DUP2 DUP2 PUSH2 0xD9B ADD MSTORE DUP2 DUP2 PUSH2 0xEC2 ADD MSTORE PUSH2 0x1039 ADD MSTORE PUSH2 0x1A6A PUSH1 0x0 RETURN INVALID PUSH1 0x80 PUSH1 0x40 MSTORE CALLVALUE DUP1 ISZERO PUSH2 0x10 JUMPI PUSH1 0x0 DUP1 REVERT JUMPDEST POP PUSH1 0x4 CALLDATASIZE LT PUSH2 0x9E JUMPI PUSH1 0x0 CALLDATALOAD PUSH1 0xE0 SHR DUP1 PUSH4 0x5AA6DF1A GT PUSH2 0x66 JUMPI DUP1 PUSH4 0x5AA6DF1A EQ PUSH2 0x14A JUMPI DUP1 PUSH4 0x711853AB EQ PUSH2 0x166 JUMPI DUP1 PUSH4 0xAA4FB63A EQ PUSH2 0x182 JUMPI DUP1 PUSH4 0xFC0C546A EQ PUSH2 0x1B2 JUMPI DUP1 PUSH4 0xFDE327BE EQ PUSH2 0x1D0 JUMPI PUSH2 0x9E JUMP JUMPDEST DUP1 PUSH4 0x6661ABD EQ PUSH2 0xA3 JUMPI DUP1 PUSH4 0x141961BC EQ PUSH2 0xC1 JUMPI DUP1 PUSH4 0x278ECDE1 EQ PUSH2 0xF6 JUMPI DUP1 PUSH4 0x379607F5 EQ PUSH2 0x112 JUMPI DUP1 PUSH4 0x40E58EE5 EQ PUSH2 0x12E JUMPI JUMPDEST PUSH1 0x0 DUP1 REVERT JUMPDEST PUSH2 0xAB PUSH2 0x1EC JUMP JUMPDEST PUSH1 0x40 MLOAD PUSH2 0xB8 SWAP2 SWAP1 PUSH2 0x1681 JUMP JUMPDEST PUSH1 0x40 MLOAD DUP1 SWAP2 SUB SWAP1 RETURN JUMPDEST PUSH2 0xDB PUSH1 0x4 DUP1 CALLDATASIZE SUB DUP2 ADD SWAP1 PUSH2 0xD6 SWAP2 SWAP1 PUSH2 0x11BC JUMP JUMPDEST PUSH2 0x1F2 JUMP JUMPDEST PUSH1 0x40 MLOAD PUSH2 0xED SWAP7 SWAP6 SWAP5 SWAP4 SWAP3 SWAP2 SWAP1 PUSH2 0x14C5 JUMP JUMPDEST PUSH1 0x40 MLOAD DUP1 SWAP2 SUB SWAP1 RETURN JUMPDEST PUSH2 0x110 PUSH1 0x4 DUP1 CALLDATASIZE SUB DUP2 ADD SWAP1 PUSH2 0x10B SWAP2 SWAP1 PUSH2 0x11BC JUMP JUMPDEST PUSH2 0x27B JUMP JUMPDEST STOP JUMPDEST PUSH2 0x12C PUSH1 0x4 DUP1 CALLDATASIZE SUB DUP2 ADD SWAP1 PUSH2 0x127 SWAP2 SWAP1 PUSH2 0x11BC JUMP JUMPDEST PUSH2 0x4E6 JUMP JUMPDEST STOP JUMPDEST PUSH2 0x148 PUSH1 0x4 DUP1 CALLDATASIZE SUB DUP2 ADD SWAP1 PUSH2 0x143 SWAP2 SWAP1 PUSH2 0x11BC JUMP JUMPDEST PUSH2 0x792 JUMP JUMPDEST STOP JUMPDEST PUSH2 0x164 PUSH1 0x4 DUP1 CALLDATASIZE SUB DUP2 ADD SWAP1 PUSH2 0x15F SWAP2 SWAP1 PUSH2 0x1269 JUMP JUMPDEST PUSH2 0xA0D JUMP JUMPDEST STOP JUMPDEST PUSH2 0x180 PUSH1 0x4 DUP1 CALLDATASIZE SUB DUP2 ADD SWAP1 PUSH2 0x17B SWAP2 SWAP1 PUSH2 0x1229 JUMP JUMPDEST PUSH2 0xCA3 JUMP JUMPDEST STOP JUMPDEST PUSH2 0x19C PUSH1 0x4 DUP1 CALLDATASIZE SUB DUP2 ADD SWAP1 PUSH2 0x197 SWAP2 SWAP1 PUSH2 0x11E9 JUMP JUMPDEST PUSH2 0xE9B JUMP JUMPDEST PUSH1 0x40 MLOAD PUSH2 0x1A9 SWAP2 SWAP1 PUSH2 0x1681 JUMP JUMPDEST PUSH1 0x40 MLOAD DUP1 SWAP2 SUB SWAP1 RETURN JUMPDEST PUSH2 0x1BA PUSH2 0xEC0 JUMP JUMPDEST PUSH1 0x40 MLOAD PUSH2 0x1C7 SWAP2 SWAP1 PUSH2 0x1526 JUMP JUMPDEST PUSH1 0x40 MLOAD DUP1 SWAP2 SUB SWAP1 RETURN JUMPDEST PUSH2 0x1EA PUSH1 0x4 DUP1 CALLDATASIZE SUB DUP2 ADD SWAP1 PUSH2 0x1E5 SWAP2 SWAP1 PUSH2 0x1229 JUMP JUMPDEST PUSH2 0xEE4 JUMP JUMPDEST STOP JUMPDEST PUSH1 0x0 SLOAD DUP2 JUMP JUMPDEST PUSH1 0x1 PUSH1 0x20 MSTORE DUP1 PUSH1 0x0 MSTORE PUSH1 0x40 PUSH1 0x0 KECCAK256 PUSH1 0x0 SWAP2 POP SWAP1 POP DUP1 PUSH1 0x0 ADD PUSH1 0x0 SWAP1 SLOAD SWAP1 PUSH2 0x100 EXP SWAP1 DIV PUSH20 0xFFFFFFFFFFFFFFFFFFFFFFFFFFFFFFFFFFFFFFFF AND SWAP1 DUP1 PUSH1 0x1 ADD SLOAD SWAP1 DUP1 PUSH1 0x2 ADD SLOAD SWAP1 DUP1 PUSH1 0x3 ADD PUSH1 0x0 SWAP1 SLOAD SWAP1 PUSH2 0x100 EXP SWAP1 DIV PUSH4 0xFFFFFFFF AND SWAP1 DUP1 PUSH1 0x3 ADD PUSH1 0x4 SWAP1 SLOAD SWAP1 PUSH2 0x100 EXP SWAP1 DIV PUSH4 0xFFFFFFFF AND SWAP1 DUP1 PUSH1 0x3 ADD PUSH1 0x8 SWAP1 SLOAD SWAP1 PUSH2 0x100 EXP SWAP1 DIV PUSH1 0xFF AND SWAP1 POP DUP7 JUMP JUMPDEST PUSH1 0x0 PUSH1 0x1 PUSH1 0x0 DUP4 DUP2 MSTORE PUSH1 0x20 ADD SWAP1 DUP2 MSTORE PUSH1 0x20 ADD PUSH1 0x0 KECCAK256 SWAP1 POP DUP1 PUSH1 0x3 ADD PUSH1 0x4 SWAP1 SLOAD SWAP1 PUSH2 0x100 EXP SWAP1 DIV PUSH4 0xFFFFFFFF AND PUSH4 0xFFFFFFFF AND TIMESTAMP GT PUSH2 0x2EE JUMPI PUSH1 0x40 MLOAD PUSH32 0x8C379A000000000000000000000000000000000000000000000000000000000 DUP2 MSTORE PUSH1 0x4 ADD PUSH2 0x2E5 SWAP1 PUSH2 0x1661 JUMP JUMPDEST PUSH1 0x40 MLOAD DUP1 SWAP2 SUB SWAP1 REVERT JUMPDEST DUP1 PUSH1 0x1 ADD SLOAD DUP2 PUSH1 0x2 ADD SLOAD LT ISZERO PUSH2 0x339 JUMPI PUSH1 0x40 MLOAD PUSH32 0x8C379A000000000000000000000000000000000000000000000000000000000 DUP2 MSTORE PUSH1 0x4 ADD PUSH2 0x330 SWAP1 PUSH2 0x1601 JUMP JUMPDEST PUSH1 0x40 MLOAD DUP1 SWAP2 SUB SWAP1 REVERT JUMPDEST PUSH1 0x0 PUSH1 0x2 PUSH1 0x0 DUP5 DUP2 MSTORE PUSH1 0x20 ADD SWAP1 DUP2 MSTORE PUSH1 0x20 ADD PUSH1 0x0 KECCAK256 PUSH1 0x0 CALLER PUSH20 0xFFFFFFFFFFFFFFFFFFFFFFFFFFFFFFFFFFFFFFFF AND PUSH20 0xFFFFFFFFFFFFFFFFFFFFFFFFFFFFFFFFFFFFFFFF AND DUP2 MSTORE PUSH1 0x20 ADD SWAP1 DUP2 MSTORE PUSH1 0x20 ADD PUSH1 0x0 KECCAK256 SLOAD SWAP1 POP PUSH1 0x0 PUSH1 0x2 PUSH1 0x0 DUP6 DUP2 MSTORE PUSH1 0x20 ADD SWAP1 DUP2 MSTORE PUSH1 0x20 ADD PUSH1 0x0 KECCAK256 PUSH1 0x0 CALLER PUSH20 0xFFFFFFFFFFFFFFFFFFFFFFFFFFFFFFFFFFFFFFFF AND PUSH20 0xFFFFFFFFFFFFFFFFFFFFFFFFFFFFFFFFFFFFFFFF AND DUP2 MSTORE PUSH1 0x20 ADD SWAP1 DUP2 MSTORE PUSH1 0x20 ADD PUSH1 0x0 KECCAK256 DUP2 SWAP1 SSTORE POP PUSH32 0x0 PUSH20 0xFFFFFFFFFFFFFFFFFFFFFFFFFFFFFFFFFFFFFFFF AND PUSH4 0xA9059CBB CALLER DUP4 PUSH1 0x40 MLOAD DUP4 PUSH4 0xFFFFFFFF AND PUSH1 0xE0 SHL DUP2 MSTORE PUSH1 0x4 ADD PUSH2 0x43F SWAP3 SWAP2 SWAP1 PUSH2 0x149C JUMP JUMPDEST PUSH1 0x20 PUSH1 0x40 MLOAD DUP1 DUP4 SUB DUP2 PUSH1 0x0 DUP8 DUP1 EXTCODESIZE ISZERO DUP1 ISZERO PUSH2 0x459 JUMPI PUSH1 0x0 DUP1 REVERT JUMPDEST POP GAS CALL ISZERO DUP1 ISZERO PUSH2 0x46D JUMPI RETURNDATASIZE PUSH1 0x0 DUP1 RETURNDATACOPY RETURNDATASIZE PUSH1 0x0 REVERT JUMPDEST POP POP POP POP PUSH1 0x40 MLOAD RETURNDATASIZE PUSH1 0x1F NOT PUSH1 0x1F DUP3 ADD AND DUP3 ADD DUP1 PUSH1 0x40 MSTORE POP DUP2 ADD SWAP1 PUSH2 0x491 SWAP2 SWAP1 PUSH2 0x118F JUMP JUMPDEST POP CALLER PUSH20 0xFFFFFFFFFFFFFFFFFFFFFFFFFFFFFFFFFFFFFFFF AND DUP4 PUSH32 0x21E12A7CAD0DA5928167E1084EA4D5FDF8D9AF66657A2543A9AC76A0CA081477 DUP4 PUSH1 0x40 MLOAD PUSH2 0x4D9 SWAP2 SWAP1 PUSH2 0x1681 JUMP JUMPDEST PUSH1 0x40 MLOAD DUP1 SWAP2 SUB SWAP1 LOG3 POP POP POP JUMP JUMPDEST PUSH1 0x0 PUSH1 0x1 PUSH1 0x0 DUP4 DUP2 MSTORE PUSH1 0x20 ADD SWAP1 DUP2 MSTORE PUSH1 0x20 ADD PUSH1 0x0 KECCAK256 SWAP1 POP DUP1 PUSH1 0x0 ADD PUSH1 0x0 SWAP1 SLOAD SWAP1 PUSH2 0x100 EXP SWAP1 DIV PUSH20 0xFFFFFFFFFFFFFFFFFFFFFFFFFFFFFFFFFFFFFFFF AND PUSH20 0xFFFFFFFFFFFFFFFFFFFFFFFFFFFFFFFFFFFFFFFF AND CALLER PUSH20 0xFFFFFFFFFFFFFFFFFFFFFFFFFFFFFFFFFFFFFFFF AND EQ PUSH2 0x58F JUMPI PUSH1 0x40 MLOAD PUSH32 0x8C379A000000000000000000000000000000000000000000000000000000000 DUP2 MSTORE PUSH1 0x4 ADD PUSH2 0x586 SWAP1 PUSH2 0x15A1 JUMP JUMPDEST PUSH1 0x40 MLOAD DUP1 SWAP2 SUB SWAP1 REVERT JUMPDEST DUP1 PUSH1 0x3 ADD PUSH1 0x4 SWAP1 SLOAD SWAP1 PUSH2 0x100 EXP SWAP1 DIV PUSH4 0xFFFFFFFF AND PUSH4 0xFFFFFFFF AND TIMESTAMP GT PUSH2 0x5EB JUMPI PUSH1 0x40 MLOAD PUSH32 0x8C379A000000000000000000000000000000000000000000000000000000000 DUP2 MSTORE PUSH1 0x4 ADD PUSH2 0x5E2 SWAP1 PUSH2 0x1661 JUMP JUMPDEST PUSH1 0x40 MLOAD DUP1 SWAP2 SUB SWAP1 REVERT JUMPDEST DUP1 PUSH1 0x1 ADD SLOAD DUP2 PUSH1 0x2 ADD SLOAD LT ISZERO PUSH2 0x636 JUMPI PUSH1 0x40 MLOAD PUSH32 0x8C379A000000000000000000000000000000000000000000000000000000000 DUP2 MSTORE PUSH1 0x4 ADD PUSH2 0x62D SWAP1 PUSH2 0x1601 JUMP JUMPDEST PUSH1 0x40 MLOAD DUP1 SWAP2 SUB SWAP1 REVERT JUMPDEST DUP1 PUSH1 0x3 ADD PUSH1 0x8 SWAP1 SLOAD SWAP1 PUSH2 0x100 EXP SWAP1 DIV PUSH1 0xFF AND ISZERO PUSH2 0x688 JUMPI PUSH1 0x40 MLOAD PUSH32 0x8C379A000000000000000000000000000000000000000000000000000000000 DUP2 MSTORE PUSH1 0x4 ADD PUSH2 0x67F SWAP1 PUSH2 0x1561 JUMP JUMPDEST PUSH1 0x40 MLOAD DUP1 SWAP2 SUB SWAP1 REVERT JUMPDEST PUSH1 0x1 DUP2 PUSH1 0x3 ADD PUSH1 0x8 PUSH2 0x100 EXP DUP2 SLOAD DUP2 PUSH1 0xFF MUL NOT AND SWAP1 DUP4 ISZERO ISZERO MUL OR SWAP1 SSTORE POP PUSH32 0x0 PUSH20 0xFFFFFFFFFFFFFFFFFFFFFFFFFFFFFFFFFFFFFFFF AND PUSH4 0xA9059CBB CALLER DUP4 PUSH1 0x2 ADD SLOAD PUSH1 0x40 MLOAD DUP4 PUSH4 0xFFFFFFFF AND PUSH1 0xE0 SHL DUP2 MSTORE PUSH1 0x4 ADD PUSH2 0x704 SWAP3 SWAP2 SWAP1 PUSH2 0x149C JUMP JUMPDEST PUSH1 0x20 PUSH1 0x40 MLOAD DUP1 DUP4 SUB DUP2 PUSH1 0x0 DUP8 DUP1 EXTCODESIZE ISZERO DUP1 ISZERO PUSH2 0x71E JUMPI PUSH1 0x0 DUP1 REVERT JUMPDEST POP GAS CALL ISZERO DUP1 ISZERO PUSH2 0x732 JUMPI RETURNDATASIZE PUSH1 0x0 DUP1 RETURNDATACOPY RETURNDATASIZE PUSH1 0x0 REVERT JUMPDEST POP POP POP POP PUSH1 0x40 MLOAD RETURNDATASIZE PUSH1 0x1F NOT PUSH1 0x1F DUP3 ADD AND DUP3 ADD DUP1 PUSH1 0x40 MSTORE POP DUP2 ADD SWAP1 PUSH2 0x756 SWAP2 SWAP1 PUSH2 0x118F JUMP JUMPDEST POP PUSH32 0x7BB2B3C10797BACCB6F8C4791F1EDD6CA2F0D028EE0EDA64B01A9A57E3A653F7 DUP3 PUSH1 0x40 MLOAD PUSH2 0x786 SWAP2 SWAP1 PUSH2 0x1681 JUMP JUMPDEST PUSH1 0x40 MLOAD DUP1 SWAP2 SUB SWAP1 LOG1 POP POP JUMP JUMPDEST PUSH1 0x0 PUSH1 0x1 PUSH1 0x0 DUP4 DUP2 MSTORE PUSH1 0x20 ADD SWAP1 DUP2 MSTORE PUSH1 0x20 ADD PUSH1 0x0 KECCAK256 PUSH1 0x40 MLOAD DUP1 PUSH1 0xC0 ADD PUSH1 0x40 MSTORE SWAP1 DUP2 PUSH1 0x0 DUP3 ADD PUSH1 0x0 SWAP1 SLOAD SWAP1 PUSH2 0x100 EXP SWAP1 DIV PUSH20 0xFFFFFFFFFFFFFFFFFFFFFFFFFFFFFFFFFFFFFFFF AND PUSH20 0xFFFFFFFFFFFFFFFFFFFFFFFFFFFFFFFFFFFFFFFF AND PUSH20 0xFFFFFFFFFFFFFFFFFFFFFFFFFFFFFFFFFFFFFFFF AND DUP2 MSTORE PUSH1 0x20 ADD PUSH1 0x1 DUP3 ADD SLOAD DUP2 MSTORE PUSH1 0x20 ADD PUSH1 0x2 DUP3 ADD SLOAD DUP2 MSTORE PUSH1 0x20 ADD PUSH1 0x3 DUP3 ADD PUSH1 0x0 SWAP1 SLOAD SWAP1 PUSH2 0x100 EXP SWAP1 DIV PUSH4 0xFFFFFFFF AND PUSH4 0xFFFFFFFF AND PUSH4 0xFFFFFFFF AND DUP2 MSTORE PUSH1 0x20 ADD PUSH1 0x3 DUP3 ADD PUSH1 0x4 SWAP1 SLOAD SWAP1 PUSH2 0x100 EXP SWAP1 DIV PUSH4 0xFFFFFFFF AND PUSH4 0xFFFFFFFF AND PUSH4 0xFFFFFFFF AND DUP2 MSTORE PUSH1 0x20 ADD PUSH1 0x3 DUP3 ADD PUSH1 0x8 SWAP1 SLOAD SWAP1 PUSH2 0x100 EXP SWAP1 DIV PUSH1 0xFF AND ISZERO ISZERO ISZERO ISZERO DUP2 MSTORE POP POP SWAP1 POP DUP1 PUSH1 0x0 ADD MLOAD PUSH20 0xFFFFFFFFFFFFFFFFFFFFFFFFFFFFFFFFFFFFFFFF AND CALLER PUSH20 0xFFFFFFFFFFFFFFFFFFFFFFFFFFFFFFFFFFFFFFFF AND EQ PUSH2 0x8F7 JUMPI PUSH1 0x40 MLOAD PUSH32 0x8C379A000000000000000000000000000000000000000000000000000000000 DUP2 MSTORE PUSH1 0x4 ADD PUSH2 0x8EE SWAP1 PUSH2 0x15A1 JUMP JUMPDEST PUSH1 0x40 MLOAD DUP1 SWAP2 SUB SWAP1 REVERT JUMPDEST DUP1 PUSH1 0x60 ADD MLOAD PUSH4 0xFFFFFFFF AND TIMESTAMP LT PUSH2 0x943 JUMPI PUSH1 0x40 MLOAD PUSH32 0x8C379A000000000000000000000000000000000000000000000000000000000 DUP2 MSTORE PUSH1 0x4 ADD PUSH2 0x93A SWAP1 PUSH2 0x15E1 JUMP JUMPDEST PUSH1 0x40 MLOAD DUP1 SWAP2 SUB SWAP1 REVERT JUMPDEST PUSH1 0x1 PUSH1 0x0 DUP4 DUP2 MSTORE PUSH1 0x20 ADD SWAP1 DUP2 MSTORE PUSH1 0x20 ADD PUSH1 0x0 KECCAK256 PUSH1 0x0 DUP1 DUP3 ADD PUSH1 0x0 PUSH2 0x100 EXP DUP2 SLOAD SWAP1 PUSH20 0xFFFFFFFFFFFFFFFFFFFFFFFFFFFFFFFFFFFFFFFF MUL NOT AND SWAP1 SSTORE PUSH1 0x1 DUP3 ADD PUSH1 0x0 SWAP1 SSTORE PUSH1 0x2 DUP3 ADD PUSH1 0x0 SWAP1 SSTORE PUSH1 0x3 DUP3 ADD PUSH1 0x0 PUSH2 0x100 EXP DUP2 SLOAD SWAP1 PUSH4 0xFFFFFFFF MUL NOT AND SWAP1 SSTORE PUSH1 0x3 DUP3 ADD PUSH1 0x4 PUSH2 0x100 EXP DUP2 SLOAD SWAP1 PUSH4 0xFFFFFFFF MUL NOT AND SWAP1 SSTORE PUSH1 0x3 DUP3 ADD PUSH1 0x8 PUSH2 0x100 EXP DUP2 SLOAD SWAP1 PUSH1 0xFF MUL NOT AND SWAP1 SSTORE POP POP PUSH32 0x8BF30E7FF26833413BE5F69E1D373744864D600B664204B4A2F9844A8EEDB9ED DUP3 PUSH1 0x40 MLOAD PUSH2 0xA01 SWAP2 SWAP1 PUSH2 0x1681 JUMP JUMPDEST PUSH1 0x40 MLOAD DUP1 SWAP2 SUB SWAP1 LOG1 POP POP JUMP JUMPDEST TIMESTAMP DUP3 PUSH4 0xFFFFFFFF AND LT ISZERO PUSH2 0xA56 JUMPI PUSH1 0x40 MLOAD PUSH32 0x8C379A000000000000000000000000000000000000000000000000000000000 DUP2 MSTORE PUSH1 0x4 ADD PUSH2 0xA4D SWAP1 PUSH2 0x15C1 JUMP JUMPDEST PUSH1 0x40 MLOAD DUP1 SWAP2 SUB SWAP1 REVERT JUMPDEST DUP2 PUSH4 0xFFFFFFFF AND DUP2 PUSH4 0xFFFFFFFF AND LT ISZERO PUSH2 0xAA5 JUMPI PUSH1 0x40 MLOAD PUSH32 0x8C379A000000000000000000000000000000000000000000000000000000000 DUP2 MSTORE PUSH1 0x4 ADD PUSH2 0xA9C SWAP1 PUSH2 0x1581 JUMP JUMPDEST PUSH1 0x40 MLOAD DUP1 SWAP2 SUB SWAP1 REVERT JUMPDEST PUSH3 0x76A700 TIMESTAMP PUSH2 0xAB4 SWAP2 SWAP1 PUSH2 0x16F2 JUMP JUMPDEST DUP2 PUSH4 0xFFFFFFFF AND GT ISZERO PUSH2 0xAFC JUMPI PUSH1 0x40 MLOAD PUSH32 0x8C379A000000000000000000000000000000000000000000000000000000000 DUP2 MSTORE PUSH1 0x4 ADD PUSH2 0xAF3 SWAP1 PUSH2 0x1541 JUMP JUMPDEST PUSH1 0x40 MLOAD DUP1 SWAP2 SUB SWAP1 REVERT JUMPDEST PUSH1 0x1 PUSH1 0x0 DUP1 DUP3 DUP3 SLOAD PUSH2 0xB0E SWAP2 SWAP1 PUSH2 0x16F2 JUMP JUMPDEST SWAP3 POP POP DUP2 SWAP1 SSTORE POP PUSH1 0x40 MLOAD DUP1 PUSH1 0xC0 ADD PUSH1 0x40 MSTORE DUP1 CALLER PUSH20 0xFFFFFFFFFFFFFFFFFFFFFFFFFFFFFFFFFFFFFFFF AND DUP2 MSTORE PUSH1 0x20 ADD DUP5 DUP2 MSTORE PUSH1 0x20 ADD PUSH1 0x0 DUP2 MSTORE PUSH1 0x20 ADD DUP4 PUSH4 0xFFFFFFFF AND DUP2 MSTORE PUSH1 0x20 ADD DUP3 PUSH4 0xFFFFFFFF AND DUP2 MSTORE PUSH1 0x20 ADD PUSH1 0x0 ISZERO ISZERO DUP2 MSTORE POP PUSH1 0x1 PUSH1 0x0 DUP1 SLOAD DUP2 MSTORE PUSH1 0x20 ADD SWAP1 DUP2 MSTORE PUSH1 0x20 ADD PUSH1 0x0 KECCAK256 PUSH1 0x0 DUP3 ADD MLOAD DUP2 PUSH1 0x0 ADD PUSH1 0x0 PUSH2 0x100 EXP DUP2 SLOAD DUP2 PUSH20 0xFFFFFFFFFFFFFFFFFFFFFFFFFFFFFFFFFFFFFFFF MUL NOT AND SWAP1 DUP4 PUSH20 0xFFFFFFFFFFFFFFFFFFFFFFFFFFFFFFFFFFFFFFFF AND MUL OR SWAP1 SSTORE POP PUSH1 0x20 DUP3 ADD MLOAD DUP2 PUSH1 0x1 ADD SSTORE PUSH1 0x40 DUP3 ADD MLOAD DUP2 PUSH1 0x2 ADD SSTORE PUSH1 0x60 DUP3 ADD MLOAD DUP2 PUSH1 0x3 ADD PUSH1 0x0 PUSH2 0x100 EXP DUP2 SLOAD DUP2 PUSH4 0xFFFFFFFF MUL NOT AND SWAP1 DUP4 PUSH4 0xFFFFFFFF AND MUL OR SWAP1 SSTORE POP PUSH1 0x80 DUP3 ADD MLOAD DUP2 PUSH1 0x3 ADD PUSH1 0x4 PUSH2 0x100 EXP DUP2 SLOAD DUP2 PUSH4 0xFFFFFFFF MUL NOT AND SWAP1 DUP4 PUSH4 0xFFFFFFFF AND MUL OR SWAP1 SSTORE POP PUSH1 0xA0 DUP3 ADD MLOAD DUP2 PUSH1 0x3 ADD PUSH1 0x8 PUSH2 0x100 EXP DUP2 SLOAD DUP2 PUSH1 0xFF MUL NOT AND SWAP1 DUP4 ISZERO ISZERO MUL OR SWAP1 SSTORE POP SWAP1 POP POP CALLER PUSH20 0xFFFFFFFFFFFFFFFFFFFFFFFFFFFFFFFFFFFFFFFF AND PUSH32 0x601CD0D650B473037E838A2696D41E654433D065B3F56B28D1D3302E44A304F PUSH1 0x0 SLOAD DUP6 DUP6 DUP6 PUSH1 0x40 MLOAD PUSH2 0xC96 SWAP5 SWAP4 SWAP3 SWAP2 SWAP1 PUSH2 0x169C JUMP JUMPDEST PUSH1 0x40 MLOAD DUP1 SWAP2 SUB SWAP1 LOG2 POP POP POP JUMP JUMPDEST PUSH1 0x0 PUSH1 0x1 PUSH1 0x0 DUP5 DUP2 MSTORE PUSH1 0x20 ADD SWAP1 DUP2 MSTORE PUSH1 0x20 ADD PUSH1 0x0 KECCAK256 SWAP1 POP DUP1 PUSH1 0x3 ADD PUSH1 0x4 SWAP1 SLOAD SWAP1 PUSH2 0x100 EXP SWAP1 DIV PUSH4 0xFFFFFFFF AND PUSH4 0xFFFFFFFF AND TIMESTAMP GT ISZERO PUSH2 0xD17 JUMPI PUSH1 0x40 MLOAD PUSH32 0x8C379A000000000000000000000000000000000000000000000000000000000 DUP2 MSTORE PUSH1 0x4 ADD PUSH2 0xD0E SWAP1 PUSH2 0x1641 JUMP JUMPDEST PUSH1 0x40 MLOAD DUP1 SWAP2 SUB SWAP1 REVERT JUMPDEST DUP2 DUP2 PUSH1 0x2 ADD PUSH1 0x0 DUP3 DUP3 SLOAD PUSH2 0xD2B SWAP2 SWAP1 PUSH2 0x1748 JUMP JUMPDEST SWAP3 POP POP DUP2 SWAP1 SSTORE POP DUP2 PUSH1 0x2 PUSH1 0x0 DUP6 DUP2 MSTORE PUSH1 0x20 ADD SWAP1 DUP2 MSTORE PUSH1 0x20 ADD PUSH1 0x0 KECCAK256 PUSH1 0x0 CALLER PUSH20 0xFFFFFFFFFFFFFFFFFFFFFFFFFFFFFFFFFFFFFFFF AND PUSH20 0xFFFFFFFFFFFFFFFFFFFFFFFFFFFFFFFFFFFFFFFF AND DUP2 MSTORE PUSH1 0x20 ADD SWAP1 DUP2 MSTORE PUSH1 0x20 ADD PUSH1 0x0 KECCAK256 PUSH1 0x0 DUP3 DUP3 SLOAD PUSH2 0xD92 SWAP2 SWAP1 PUSH2 0x1748 JUMP JUMPDEST SWAP3 POP POP DUP2 SWAP1 SSTORE POP PUSH32 0x0 PUSH20 0xFFFFFFFFFFFFFFFFFFFFFFFFFFFFFFFFFFFFFFFF AND PUSH4 0xA9059CBB CALLER DUP5 PUSH1 0x40 MLOAD DUP4 PUSH4 0xFFFFFFFF AND PUSH1 0xE0 SHL DUP2 MSTORE PUSH1 0x4 ADD PUSH2 0xDF4 SWAP3 SWAP2 SWAP1 PUSH2 0x149C JUMP JUMPDEST PUSH1 0x20 PUSH1 0x40 MLOAD DUP1 DUP4 SUB DUP2 PUSH1 0x0 DUP8 DUP1 EXTCODESIZE ISZERO DUP1 ISZERO PUSH2 0xE0E JUMPI PUSH1 0x0 DUP1 REVERT JUMPDEST POP GAS CALL ISZERO DUP1 ISZERO PUSH2 0xE22 JUMPI RETURNDATASIZE PUSH1 0x0 DUP1 RETURNDATACOPY RETURNDATASIZE PUSH1 0x0 REVERT JUMPDEST POP POP POP POP PUSH1 0x40 MLOAD RETURNDATASIZE PUSH1 0x1F NOT PUSH1 0x1F DUP3 ADD AND DUP3 ADD DUP1 PUSH1 0x40 MSTORE POP DUP2 ADD SWAP1 PUSH2 0xE46 SWAP2 SWAP1 PUSH2 0x118F JUMP JUMPDEST POP CALLER PUSH20 0xFFFFFFFFFFFFFFFFFFFFFFFFFFFFFFFFFFFFFFFF AND DUP4 PUSH32 0xFCD29B1632C6748A9A4BB9B4CD5C6486C3C84A8550DCE2368F83FEF3969D9685 DUP5 PUSH1 0x40 MLOAD PUSH2 0xE8E SWAP2 SWAP1 PUSH2 0x1681 JUMP JUMPDEST PUSH1 0x40 MLOAD DUP1 SWAP2 SUB SWAP1 LOG3 POP POP POP JUMP JUMPDEST PUSH1 0x2 PUSH1 0x20 MSTORE DUP2 PUSH1 0x0 MSTORE PUSH1 0x40 PUSH1 0x0 KECCAK256 PUSH1 0x20 MSTORE DUP1 PUSH1 0x0 MSTORE PUSH1 0x40 PUSH1 0x0 KECCAK256 PUSH1 0x0 SWAP2 POP SWAP2 POP POP SLOAD DUP2 JUMP JUMPDEST PUSH32 0x0 DUP2 JUMP JUMPDEST PUSH1 0x0 PUSH1 0x1 PUSH1 0x0 DUP5 DUP2 MSTORE PUSH1 0x20 ADD SWAP1 DUP2 MSTORE PUSH1 0x20 ADD PUSH1 0x0 KECCAK256 SWAP1 POP DUP1 PUSH1 0x3 ADD PUSH1 0x0 SWAP1 SLOAD SWAP1 PUSH2 0x100 EXP SWAP1 DIV PUSH4 0xFFFFFFFF AND PUSH4 0xFFFFFFFF AND TIMESTAMP LT ISZERO PUSH2 0xF58 JUMPI PUSH1 0x40 MLOAD PUSH32 0x8C379A000000000000000000000000000000000000000000000000000000000 DUP2 MSTORE PUSH1 0x4 ADD PUSH2 0xF4F SWAP1 PUSH2 0x1621 JUMP JUMPDEST PUSH1 0x40 MLOAD DUP1 SWAP2 SUB SWAP1 REVERT JUMPDEST DUP1 PUSH1 0x3 ADD PUSH1 0x4 SWAP1 SLOAD SWAP1 PUSH2 0x100 EXP SWAP1 DIV PUSH4 0xFFFFFFFF AND PUSH4 0xFFFFFFFF AND TIMESTAMP GT ISZERO PUSH2 0xFB5 JUMPI PUSH1 0x40 MLOAD PUSH32 0x8C379A000000000000000000000000000000000000000000000000000000000 DUP2 MSTORE PUSH1 0x4 ADD PUSH2 0xFAC SWAP1 PUSH2 0x1641 JUMP JUMPDEST PUSH1 0x40 MLOAD DUP1 SWAP2 SUB SWAP1 REVERT JUMPDEST DUP2 DUP2 PUSH1 0x2 ADD PUSH1 0x0 DUP3 DUP3 SLOAD PUSH2 0xFC9 SWAP2 SWAP1 PUSH2 0x16F2 JUMP JUMPDEST SWAP3 POP POP DUP2 SWAP1 SSTORE POP DUP2 PUSH1 0x2 PUSH1 0x0 DUP6 DUP2 MSTORE PUSH1 0x20 ADD SWAP1 DUP2 MSTORE PUSH1 0x20 ADD PUSH1 0x0 KECCAK256 PUSH1 0x0 CALLER PUSH20 0xFFFFFFFFFFFFFFFFFFFFFFFFFFFFFFFFFFFFFFFF AND PUSH20 0xFFFFFFFFFFFFFFFFFFFFFFFFFFFFFFFFFFFFFFFF AND DUP2 MSTORE PUSH1 0x20 ADD SWAP1 DUP2 MSTORE PUSH1 0x20 ADD PUSH1 0x0 KECCAK256 PUSH1 0x0 DUP3 DUP3 SLOAD PUSH2 0x1030 SWAP2 SWAP1 PUSH2 0x16F2 JUMP JUMPDEST SWAP3 POP POP DUP2 SWAP1 SSTORE POP PUSH32 0x0 PUSH20 0xFFFFFFFFFFFFFFFFFFFFFFFFFFFFFFFFFFFFFFFF AND PUSH4 0x23B872DD CALLER ADDRESS DUP6 PUSH1 0x40 MLOAD DUP5 PUSH4 0xFFFFFFFF AND PUSH1 0xE0 SHL DUP2 MSTORE PUSH1 0x4 ADD PUSH2 0x1094 SWAP4 SWAP3 SWAP2 SWAP1 PUSH2 0x1465 JUMP JUMPDEST PUSH1 0x20 PUSH1 0x40 MLOAD DUP1 DUP4 SUB DUP2 PUSH1 0x0 DUP8 DUP1 EXTCODESIZE ISZERO DUP1 ISZERO PUSH2 0x10AE JUMPI PUSH1 0x0 DUP1 REVERT JUMPDEST POP GAS CALL ISZERO DUP1 ISZERO PUSH2 0x10C2 JUMPI RETURNDATASIZE PUSH1 0x0 DUP1 RETURNDATACOPY RETURNDATASIZE PUSH1 0x0 REVERT JUMPDEST POP POP POP POP PUSH1 0x40 MLOAD RETURNDATASIZE PUSH1 0x1F NOT PUSH1 0x1F DUP3 ADD AND DUP3 ADD DUP1 PUSH1 0x40 MSTORE POP DUP2 ADD SWAP1 PUSH2 0x10E6 SWAP2 SWAP1 PUSH2 0x118F JUMP JUMPDEST POP CALLER PUSH20 0xFFFFFFFFFFFFFFFFFFFFFFFFFFFFFFFFFFFFFFFF AND DUP4 PUSH32 0x2757AC6A40883F4491CC56930AE964DF9034E343E660D5179EB01E198336756B DUP5 PUSH1 0x40 MLOAD PUSH2 0x112E SWAP2 SWAP1 PUSH2 0x1681 JUMP JUMPDEST PUSH1 0x40 MLOAD DUP1 SWAP2 SUB SWAP1 LOG3 POP POP POP JUMP JUMPDEST PUSH1 0x0 DUP2 CALLDATALOAD SWAP1 POP PUSH2 0x114A DUP2 PUSH2 0x19D8 JUMP JUMPDEST SWAP3 SWAP2 POP POP JUMP JUMPDEST PUSH1 0x0 DUP2 MLOAD SWAP1 POP PUSH2 0x115F DUP2 PUSH2 0x19EF JUMP JUMPDEST SWAP3 SWAP2 POP POP JUMP JUMPDEST PUSH1 0x0 DUP2 CALLDATALOAD SWAP1 POP PUSH2 0x1174 DUP2 PUSH2 0x1A06 JUMP JUMPDEST SWAP3 SWAP2 POP POP JUMP JUMPDEST PUSH1 0x0 DUP2 CALLDATALOAD SWAP1 POP PUSH2 0x1189 DUP2 PUSH2 0x1A1D JUMP JUMPDEST SWAP3 SWAP2 POP POP JUMP JUMPDEST PUSH1 0x0 PUSH1 0x20 DUP3 DUP5 SUB SLT ISZERO PUSH2 0x11A5 JUMPI PUSH2 0x11A4 PUSH2 0x1839 JUMP JUMPDEST JUMPDEST PUSH1 0x0 PUSH2 0x11B3 DUP5 DUP3 DUP6 ADD PUSH2 0x1150 JUMP JUMPDEST SWAP2 POP POP SWAP3 SWAP2 POP POP JUMP JUMPDEST PUSH1 0x0 PUSH1 0x20 DUP3 DUP5 SUB SLT ISZERO PUSH2 0x11D2 JUMPI PUSH2 0x11D1 PUSH2 0x1839 JUMP JUMPDEST JUMPDEST PUSH1 0x0 PUSH2 0x11E0 DUP5 DUP3 DUP6 ADD PUSH2 0x1165 JUMP JUMPDEST SWAP2 POP POP SWAP3 SWAP2 POP POP JUMP JUMPDEST PUSH1 0x0 DUP1 PUSH1 0x40 DUP4 DUP6 SUB SLT ISZERO PUSH2 0x1200 JUMPI PUSH2 0x11FF PUSH2 0x1839 JUMP JUMPDEST JUMPDEST PUSH1 0x0 PUSH2 0x120E DUP6 DUP3 DUP7 ADD PUSH2 0x1165 JUMP JUMPDEST SWAP3 POP POP PUSH1 0x20 PUSH2 0x121F DUP6 DUP3 DUP7 ADD PUSH2 0x113B JUMP JUMPDEST SWAP2 POP POP SWAP3 POP SWAP3 SWAP1 POP JUMP JUMPDEST PUSH1 0x0 DUP1 PUSH1 0x40 DUP4 DUP6 SUB SLT ISZERO PUSH2 0x1240 JUMPI PUSH2 0x123F PUSH2 0x1839 JUMP JUMPDEST JUMPDEST PUSH1 0x0 PUSH2 0x124E DUP6 DUP3 DUP7 ADD PUSH2 0x1165 JUMP JUMPDEST SWAP3 POP POP PUSH1 0x20 PUSH2 0x125F DUP6 DUP3 DUP7 ADD PUSH2 0x1165 JUMP JUMPDEST SWAP2 POP POP SWAP3 POP SWAP3 SWAP1 POP JUMP JUMPDEST PUSH1 0x0 DUP1 PUSH1 0x0 PUSH1 0x60 DUP5 DUP7 SUB SLT ISZERO PUSH2 0x1282 JUMPI PUSH2 0x1281 PUSH2 0x1839 JUMP JUMPDEST JUMPDEST PUSH1 0x0 PUSH2 0x1290 DUP7 DUP3 DUP8 ADD PUSH2 0x1165 JUMP JUMPDEST SWAP4 POP POP PUSH1 0x20 PUSH2 0x12A1 DUP7 DUP3 DUP8 ADD PUSH2 0x117A JUMP JUMPDEST SWAP3 POP POP PUSH1 0x40 PUSH2 0x12B2 DUP7 DUP3 DUP8 ADD PUSH2 0x117A JUMP JUMPDEST SWAP2 POP POP SWAP3 POP SWAP3 POP SWAP3 JUMP JUMPDEST PUSH2 0x12C5 DUP2 PUSH2 0x177C JUMP JUMPDEST DUP3 MSTORE POP POP JUMP JUMPDEST PUSH2 0x12D4 DUP2 PUSH2 0x178E JUMP JUMPDEST DUP3 MSTORE POP POP JUMP JUMPDEST PUSH2 0x12E3 DUP2 PUSH2 0x17D4 JUMP JUMPDEST DUP3 MSTORE POP POP JUMP JUMPDEST PUSH1 0x0 PUSH2 0x12F6 PUSH1 0x15 DUP4 PUSH2 0x16E1 JUMP JUMPDEST SWAP2 POP PUSH2 0x1301 DUP3 PUSH2 0x183E JUMP JUMPDEST PUSH1 0x20 DUP3 ADD SWAP1 POP SWAP2 SWAP1 POP JUMP JUMPDEST PUSH1 0x0 PUSH2 0x1319 PUSH1 0x7 DUP4 PUSH2 0x16E1 JUMP JUMPDEST SWAP2 POP PUSH2 0x1324 DUP3 PUSH2 0x1867 JUMP JUMPDEST PUSH1 0x20 DUP3 ADD SWAP1 POP SWAP2 SWAP1 POP JUMP JUMPDEST PUSH1 0x0 PUSH2 0x133C PUSH1 0x11 DUP4 PUSH2 0x16E1 JUMP JUMPDEST SWAP2 POP PUSH2 0x1347 DUP3 PUSH2 0x1890 JUMP JUMPDEST PUSH1 0x20 DUP3 ADD SWAP1 POP SWAP2 SWAP1 POP JUMP JUMPDEST PUSH1 0x0 PUSH2 0x135F PUSH1 0xB DUP4 PUSH2 0x16E1 JUMP JUMPDEST SWAP2 POP PUSH2 0x136A DUP3 PUSH2 0x18B9 JUMP JUMPDEST PUSH1 0x20 DUP3 ADD SWAP1 POP SWAP2 SWAP1 POP JUMP JUMPDEST PUSH1 0x0 PUSH2 0x1382 PUSH1 0xE DUP4 PUSH2 0x16E1 JUMP JUMPDEST SWAP2 POP PUSH2 0x138D DUP3 PUSH2 0x18E2 JUMP JUMPDEST PUSH1 0x20 DUP3 ADD SWAP1 POP SWAP2 SWAP1 POP JUMP JUMPDEST PUSH1 0x0 PUSH2 0x13A5 PUSH1 0x7 DUP4 PUSH2 0x16E1 JUMP JUMPDEST SWAP2 POP PUSH2 0x13B0 DUP3 PUSH2 0x190B JUMP JUMPDEST PUSH1 0x20 DUP3 ADD SWAP1 POP SWAP2 SWAP1 POP JUMP JUMPDEST PUSH1 0x0 PUSH2 0x13C8 PUSH1 0xE DUP4 PUSH2 0x16E1 JUMP JUMPDEST SWAP2 POP PUSH2 0x13D3 DUP3 PUSH2 0x1934 JUMP JUMPDEST PUSH1 0x20 DUP3 ADD SWAP1 POP SWAP2 SWAP1 POP JUMP JUMPDEST PUSH1 0x0 PUSH2 0x13EB PUSH1 0xB DUP4 PUSH2 0x16E1 JUMP JUMPDEST SWAP2 POP PUSH2 0x13F6 DUP3 PUSH2 0x195D JUMP JUMPDEST PUSH1 0x20 DUP3 ADD SWAP1 POP SWAP2 SWAP1 POP JUMP JUMPDEST PUSH1 0x0 PUSH2 0x140E PUSH1 0x5 DUP4 PUSH2 0x16E1 JUMP JUMPDEST SWAP2 POP PUSH2 0x1419 DUP3 PUSH2 0x1986 JUMP JUMPDEST PUSH1 0x20 DUP3 ADD SWAP1 POP SWAP2 SWAP1 POP JUMP JUMPDEST PUSH1 0x0 PUSH2 0x1431 PUSH1 0x9 DUP4 PUSH2 0x16E1 JUMP JUMPDEST SWAP2 POP PUSH2 0x143C DUP3 PUSH2 0x19AF JUMP JUMPDEST PUSH1 0x20 DUP3 ADD SWAP1 POP SWAP2 SWAP1 POP JUMP JUMPDEST PUSH2 0x1450 DUP2 PUSH2 0x17BA JUMP JUMPDEST DUP3 MSTORE POP POP JUMP JUMPDEST PUSH2 0x145F DUP2 PUSH2 0x17C4 JUMP JUMPDEST DUP3 MSTORE POP POP JUMP JUMPDEST PUSH1 0x0 PUSH1 0x60 DUP3 ADD SWAP1 POP PUSH2 0x147A PUSH1 0x0 DUP4 ADD DUP7 PUSH2 0x12BC JUMP JUMPDEST PUSH2 0x1487 PUSH1 0x20 DUP4 ADD DUP6 PUSH2 0x12BC JUMP JUMPDEST PUSH2 0x1494 PUSH1 0x40 DUP4 ADD DUP5 PUSH2 0x1447 JUMP JUMPDEST SWAP5 SWAP4 POP POP POP POP JUMP JUMPDEST PUSH1 0x0 PUSH1 0x40 DUP3 ADD SWAP1 POP PUSH2 0x14B1 PUSH1 0x0 DUP4 ADD DUP6 PUSH2 0x12BC JUMP JUMPDEST PUSH2 0x14BE PUSH1 0x20 DUP4 ADD DUP5 PUSH2 0x1447 JUMP JUMPDEST SWAP4 SWAP3 POP POP POP JUMP JUMPDEST PUSH1 0x0 PUSH1 0xC0 DUP3 ADD SWAP1 POP PUSH2 0x14DA PUSH1 0x0 DUP4 ADD DUP10 PUSH2 0x12BC JUMP JUMPDEST PUSH2 0x14E7 PUSH1 0x20 DUP4 ADD DUP9 PUSH2 0x1447 JUMP JUMPDEST PUSH2 0x14F4 PUSH1 0x40 DUP4 ADD DUP8 PUSH2 0x1447 JUMP JUMPDEST PUSH2 0x1501 PUSH1 0x60 DUP4 ADD DUP7 PUSH2 0x1456 JUMP JUMPDEST PUSH2 0x150E PUSH1 0x80 DUP4 ADD DUP6 PUSH2 0x1456 JUMP JUMPDEST PUSH2 0x151B PUSH1 0xA0 DUP4 ADD DUP5 PUSH2 0x12CB JUMP JUMPDEST SWAP8 SWAP7 POP POP POP POP POP POP POP JUMP JUMPDEST PUSH1 0x0 PUSH1 0x20 DUP3 ADD SWAP1 POP PUSH2 0x153B PUSH1 0x0 DUP4 ADD DUP5 PUSH2 0x12DA JUMP JUMPDEST SWAP3 SWAP2 POP POP JUMP JUMPDEST PUSH1 0x0 PUSH1 0x20 DUP3 ADD SWAP1 POP DUP2 DUP2 SUB PUSH1 0x0 DUP4 ADD MSTORE PUSH2 0x155A DUP2 PUSH2 0x12E9 JUMP JUMPDEST SWAP1 POP SWAP2 SWAP1 POP JUMP JUMPDEST PUSH1 0x0 PUSH1 0x20 DUP3 ADD SWAP1 POP DUP2 DUP2 SUB PUSH1 0x0 DUP4 ADD MSTORE PUSH2 0x157A DUP2 PUSH2 0x130C JUMP JUMPDEST SWAP1 POP SWAP2 SWAP1 POP JUMP JUMPDEST PUSH1 0x0 PUSH1 0x20 DUP3 ADD SWAP1 POP DUP2 DUP2 SUB PUSH1 0x0 DUP4 ADD MSTORE PUSH2 0x159A DUP2 PUSH2 0x132F JUMP JUMPDEST SWAP1 POP SWAP2 SWAP1 POP JUMP JUMPDEST PUSH1 0x0 PUSH1 0x20 DUP3 ADD SWAP1 POP DUP2 DUP2 SUB PUSH1 0x0 DUP4 ADD MSTORE PUSH2 0x15BA DUP2 PUSH2 0x1352 JUMP JUMPDEST SWAP1 POP SWAP2 SWAP1 POP JUMP JUMPDEST PUSH1 0x0 PUSH1 0x20 DUP3 ADD SWAP1 POP DUP2 DUP2 SUB PUSH1 0x0 DUP4 ADD MSTORE PUSH2 0x15DA DUP2 PUSH2 0x1375 JUMP JUMPDEST SWAP1 POP SWAP2 SWAP1 POP JUMP JUMPDEST PUSH1 0x0 PUSH1 0x20 DUP3 ADD SWAP1 POP DUP2 DUP2 SUB PUSH1 0x0 DUP4 ADD MSTORE PUSH2 0x15FA DUP2 PUSH2 0x1398 JUMP JUMPDEST SWAP1 POP SWAP2 SWAP1 POP JUMP JUMPDEST PUSH1 0x0 PUSH1 0x20 DUP3 ADD SWAP1 POP DUP2 DUP2 SUB PUSH1 0x0 DUP4 ADD MSTORE PUSH2 0x161A DUP2 PUSH2 0x13BB JUMP JUMPDEST SWAP1 POP SWAP2 SWAP1 POP JUMP JUMPDEST PUSH1 0x0 PUSH1 0x20 DUP3 ADD SWAP1 POP DUP2 DUP2 SUB PUSH1 0x0 DUP4 ADD MSTORE PUSH2 0x163A DUP2 PUSH2 0x13DE JUMP JUMPDEST SWAP1 POP SWAP2 SWAP1 POP JUMP JUMPDEST PUSH1 0x0 PUSH1 0x20 DUP3 ADD SWAP1 POP DUP2 DUP2 SUB PUSH1 0x0 DUP4 ADD MSTORE PUSH2 0x165A DUP2 PUSH2 0x1401 JUMP JUMPDEST SWAP1 POP SWAP2 SWAP1 POP JUMP JUMPDEST PUSH1 0x0 PUSH1 0x20 DUP3 ADD SWAP1 POP DUP2 DUP2 SUB PUSH1 0x0 DUP4 ADD MSTORE PUSH2 0x167A DUP2 PUSH2 0x1424 JUMP JUMPDEST SWAP1 POP SWAP2 SWAP1 POP JUMP JUMPDEST PUSH1 0x0 PUSH1 0x20 DUP3 ADD SWAP1 POP PUSH2 0x1696 PUSH1 0x0 DUP4 ADD DUP5 PUSH2 0x1447 JUMP JUMPDEST SWAP3 SWAP2 POP POP JUMP JUMPDEST PUSH1 0x0 PUSH1 0x80 DUP3 ADD SWAP1 POP PUSH2 0x16B1 PUSH1 0x0 DUP4 ADD DUP8 PUSH2 0x1447 JUMP JUMPDEST PUSH2 0x16BE PUSH1 0x20 DUP4 ADD DUP7 PUSH2 0x1447 JUMP JUMPDEST PUSH2 0x16CB PUSH1 0x40 DUP4 ADD DUP6 PUSH2 0x1456 JUMP JUMPDEST PUSH2 0x16D8 PUSH1 0x60 DUP4 ADD DUP5 PUSH2 0x1456 JUMP JUMPDEST SWAP6 SWAP5 POP POP POP POP POP JUMP JUMPDEST PUSH1 0x0 DUP3 DUP3 MSTORE PUSH1 0x20 DUP3 ADD SWAP1 POP SWAP3 SWAP2 POP POP JUMP JUMPDEST PUSH1 0x0 PUSH2 0x16FD DUP3 PUSH2 0x17BA JUMP JUMPDEST SWAP2 POP PUSH2 0x1708 DUP4 PUSH2 0x17BA JUMP JUMPDEST SWAP3 POP DUP3 PUSH32 0xFFFFFFFFFFFFFFFFFFFFFFFFFFFFFFFFFFFFFFFFFFFFFFFFFFFFFFFFFFFFFFFF SUB DUP3 GT ISZERO PUSH2 0x173D JUMPI PUSH2 0x173C PUSH2 0x180A JUMP JUMPDEST JUMPDEST DUP3 DUP3 ADD SWAP1 POP SWAP3 SWAP2 POP POP JUMP JUMPDEST PUSH1 0x0 PUSH2 0x1753 DUP3 PUSH2 0x17BA JUMP JUMPDEST SWAP2 POP PUSH2 0x175E DUP4 PUSH2 0x17BA JUMP JUMPDEST SWAP3 POP DUP3 DUP3 LT ISZERO PUSH2 0x1771 JUMPI PUSH2 0x1770 PUSH2 0x180A JUMP JUMPDEST JUMPDEST DUP3 DUP3 SUB SWAP1 POP SWAP3 SWAP2 POP POP JUMP JUMPDEST PUSH1 0x0 PUSH2 0x1787 DUP3 PUSH2 0x179A JUMP JUMPDEST SWAP1 POP SWAP2 SWAP1 POP JUMP JUMPDEST PUSH1 0x0 DUP2 ISZERO ISZERO SWAP1 POP SWAP2 SWAP1 POP JUMP JUMPDEST PUSH1 0x0 PUSH20 0xFFFFFFFFFFFFFFFFFFFFFFFFFFFFFFFFFFFFFFFF DUP3 AND SWAP1 POP SWAP2 SWAP1 POP JUMP JUMPDEST PUSH1 0x0 DUP2 SWAP1 POP SWAP2 SWAP1 POP JUMP JUMPDEST PUSH1 0x0 PUSH4 0xFFFFFFFF DUP3 AND SWAP1 POP SWAP2 SWAP1 POP JUMP JUMPDEST PUSH1 0x0 PUSH2 0x17DF DUP3 PUSH2 0x17E6 JUMP JUMPDEST SWAP1 POP SWAP2 SWAP1 POP JUMP JUMPDEST PUSH1 0x0 PUSH2 0x17F1 DUP3 PUSH2 0x17F8 JUMP JUMPDEST SWAP1 POP SWAP2 SWAP1 POP JUMP JUMPDEST PUSH1 0x0 PUSH2 0x1803 DUP3 PUSH2 0x179A JUMP JUMPDEST SWAP1 POP SWAP2 SWAP1 POP JUMP JUMPDEST PUSH32 0x4E487B7100000000000000000000000000000000000000000000000000000000 PUSH1 0x0 MSTORE PUSH1 0x11 PUSH1 0x4 MSTORE PUSH1 0x24 PUSH1 0x0 REVERT JUMPDEST PUSH1 0x0 DUP1 REVERT JUMPDEST PUSH32 0x656E64206174203E206D6178206475726174696F6E0000000000000000000000 PUSH1 0x0 DUP3 ADD MSTORE POP JUMP JUMPDEST PUSH32 0x636C61696D656400000000000000000000000000000000000000000000000000 PUSH1 0x0 DUP3 ADD MSTORE POP JUMP JUMPDEST PUSH32 0x656E64206174203C207374617274206174000000000000000000000000000000 PUSH1 0x0 DUP3 ADD MSTORE POP JUMP JUMPDEST PUSH32 0x6E6F742063726561746F72000000000000000000000000000000000000000000 PUSH1 0x0 DUP3 ADD MSTORE POP JUMP JUMPDEST PUSH32 0x7374617274206174203C206E6F77000000000000000000000000000000000000 PUSH1 0x0 DUP3 ADD MSTORE POP JUMP JUMPDEST PUSH32 0x7374617274656400000000000000000000000000000000000000000000000000 PUSH1 0x0 DUP3 ADD MSTORE POP JUMP JUMPDEST PUSH32 0x706C6564676564203C20676F616C000000000000000000000000000000000000 PUSH1 0x0 DUP3 ADD MSTORE POP JUMP JUMPDEST PUSH32 0x6E6F742073746172746564000000000000000000000000000000000000000000 PUSH1 0x0 DUP3 ADD MSTORE POP JUMP JUMPDEST PUSH32 0x656E646564000000000000000000000000000000000000000000000000000000 PUSH1 0x0 DUP3 ADD MSTORE POP JUMP JUMPDEST PUSH32 0x6E6F7420656E6465640000000000000000000000000000000000000000000000 PUSH1 0x0 DUP3 ADD MSTORE POP JUMP JUMPDEST PUSH2 0x19E1 DUP2 PUSH2 0x177C JUMP JUMPDEST DUP2 EQ PUSH2 0x19EC JUMPI PUSH1 0x0 DUP1 REVERT JUMPDEST POP JUMP JUMPDEST PUSH2 0x19F8 DUP2 PUSH2 0x178E JUMP JUMPDEST DUP2 EQ PUSH2 0x1A03 JUMPI PUSH1 0x0 DUP1 REVERT JUMPDEST POP JUMP JUMPDEST PUSH2 0x1A0F DUP2 PUSH2 0x17BA JUMP JUMPDEST DUP2 EQ PUSH2 0x1A1A JUMPI PUSH1 0x0 DUP1 REVERT JUMPDEST POP JUMP JUMPDEST PUSH2 0x1A26 DUP2 PUSH2 0x17C4 JUMP JUMPDEST DUP2 EQ PUSH2 0x1A31 JUMPI PUSH1 0x0 DUP1 REVERT JUMPDEST POP JUMP INVALID LOG2 PUSH5 0x6970667358 0x22 SLT KECCAK256 CALLDATACOPY POP 0xE6 0xF7 DUP1 0x2D CALLCODE 0xC5 0xAE 0xBE 0x2C SWAP11 0xE3 PUSH32 0xE10F89C7350E6F8C58ED2904D62FF1211DCB64736F6C63430008070033000000 "
				},
				"gasEstimates": {
					"creation": {
						"codeDepositCost": "1352400",
						"executionCost": "infinite",
						"totalCost": "infinite"
					},
					"external": {
						"campaigns(uint256)": "infinite",
						"cancel(uint256)": "infinite",
						"claim(uint256)": "infinite",
						"count()": "2430",
						"launc(uint256,uint32,uint32)": "infinite",
						"pledge(uint256,uint256)": "infinite",
						"pledgedAmount(uint256,address)": "infinite",
						"refund(uint256)": "infinite",
						"token()": "infinite",
						"unpledge(uint256,uint256)": "infinite"
					}
				},
				"methodIdentifiers": {
					"campaigns(uint256)": "141961bc",
					"cancel(uint256)": "40e58ee5",
					"claim(uint256)": "379607f5",
					"count()": "06661abd",
					"launc(uint256,uint32,uint32)": "5aa6df1a",
					"pledge(uint256,uint256)": "fde327be",
					"pledgedAmount(uint256,address)": "aa4fb63a",
					"refund(uint256)": "278ecde1",
					"token()": "fc0c546a",
					"unpledge(uint256,uint256)": "711853ab"
				}
			},
			"storageLayout": {
				"storage": [
					{
						"astId": 142,
						"contract": "contracts/governance/CrowdFund.sol:CrowdFund",
						"label": "count",
						"offset": 0,
						"slot": "0",
						"type": "t_uint256"
					},
					{
						"astId": 147,
						"contract": "contracts/governance/CrowdFund.sol:CrowdFund",
						"label": "campaigns",
						"offset": 0,
						"slot": "1",
						"type": "t_mapping(t_uint256,t_struct(Campaign)137_storage)"
					},
					{
						"astId": 153,
						"contract": "contracts/governance/CrowdFund.sol:CrowdFund",
						"label": "pledgedAmount",
						"offset": 0,
						"slot": "2",
						"type": "t_mapping(t_uint256,t_mapping(t_address,t_uint256))"
					}
				],
				"types": {
					"t_address": {
						"encoding": "inplace",
						"label": "address",
						"numberOfBytes": "20"
					},
					"t_bool": {
						"encoding": "inplace",
						"label": "bool",
						"numberOfBytes": "1"
					},
					"t_mapping(t_address,t_uint256)": {
						"encoding": "mapping",
						"key": "t_address",
						"label": "mapping(address => uint256)",
						"numberOfBytes": "32",
						"value": "t_uint256"
					},
					"t_mapping(t_uint256,t_mapping(t_address,t_uint256))": {
						"encoding": "mapping",
						"key": "t_uint256",
						"label": "mapping(uint256 => mapping(address => uint256))",
						"numberOfBytes": "32",
						"value": "t_mapping(t_address,t_uint256)"
					},
					"t_mapping(t_uint256,t_struct(Campaign)137_storage)": {
						"encoding": "mapping",
						"key": "t_uint256",
						"label": "mapping(uint256 => struct CrowdFund.Campaign)",
						"numberOfBytes": "32",
						"value": "t_struct(Campaign)137_storage"
					},
					"t_struct(Campaign)137_storage": {
						"encoding": "inplace",
						"label": "struct CrowdFund.Campaign",
						"members": [
							{
								"astId": 126,
								"contract": "contracts/governance/CrowdFund.sol:CrowdFund",
								"label": "creator",
								"offset": 0,
								"slot": "0",
								"type": "t_address"
							},
							{
								"astId": 128,
								"contract": "contracts/governance/CrowdFund.sol:CrowdFund",
								"label": "goal",
								"offset": 0,
								"slot": "1",
								"type": "t_uint256"
							},
							{
								"astId": 130,
								"contract": "contracts/governance/CrowdFund.sol:CrowdFund",
								"label": "pledged",
								"offset": 0,
								"slot": "2",
								"type": "t_uint256"
							},
							{
								"astId": 132,
								"contract": "contracts/governance/CrowdFund.sol:CrowdFund",
								"label": "startAt",
								"offset": 0,
								"slot": "3",
								"type": "t_uint32"
							},
							{
								"astId": 134,
								"contract": "contracts/governance/CrowdFund.sol:CrowdFund",
								"label": "endAt",
								"offset": 4,
								"slot": "3",
								"type": "t_uint32"
							},
							{
								"astId": 136,
								"contract": "contracts/governance/CrowdFund.sol:CrowdFund",
								"label": "claimed",
								"offset": 8,
								"slot": "3",
								"type": "t_bool"
							}
						],
						"numberOfBytes": "128"
					},
					"t_uint256": {
						"encoding": "inplace",
						"label": "uint256",
						"numberOfBytes": "32"
					},
					"t_uint32": {
						"encoding": "inplace",
						"label": "uint32",
						"numberOfBytes": "4"
					}
				}
			},
			"userdoc": {
				"kind": "user",
				"methods": {},
				"version": 1
			}
		}
	}
}