{
	"bootcamp/week2/MultiSigWallet.sol": {
		"MultiSigWallet": {
			"abi": [
				{
					"inputs": [
						{
							"internalType": "uint256",
							"name": "_required",
							"type": "uint256"
						},
						{
							"internalType": "address[]",
							"name": "_owners",
							"type": "address[]"
						}
					],
					"stateMutability": "nonpayable",
					"type": "constructor"
				},
				{
					"inputs": [],
					"name": "AlreadyOwner",
					"type": "error"
				},
				{
					"inputs": [],
					"name": "NotOwner",
					"type": "error"
				},
				{
					"inputs": [],
					"name": "OwnerNotAlreadyApproved",
					"type": "error"
				},
				{
					"inputs": [],
					"name": "invalidRequired",
					"type": "error"
				},
				{
					"inputs": [],
					"name": "lessThanRequiredConfirmations",
					"type": "error"
				},
				{
					"inputs": [],
					"name": "txAlreadyApproved",
					"type": "error"
				},
				{
					"inputs": [],
					"name": "txAlreadyExecuted",
					"type": "error"
				},
				{
					"inputs": [],
					"name": "txDoesNotExist",
					"type": "error"
				},
				{
					"inputs": [],
					"name": "txFailed",
					"type": "error"
				},
				{
					"anonymous": false,
					"inputs": [
						{
							"indexed": false,
							"internalType": "address",
							"name": "approver",
							"type": "address"
						},
						{
							"indexed": false,
							"internalType": "uint256",
							"name": "txId",
							"type": "uint256"
						}
					],
					"name": "ApprovedTx",
					"type": "event"
				},
				{
					"anonymous": false,
					"inputs": [
						{
							"indexed": false,
							"internalType": "address",
							"name": "sender",
							"type": "address"
						},
						{
							"indexed": false,
							"internalType": "uint256",
							"name": "value",
							"type": "uint256"
						},
						{
							"indexed": false,
							"internalType": "uint256",
							"name": "balance",
							"type": "uint256"
						}
					],
					"name": "Deposit",
					"type": "event"
				},
				{
					"anonymous": false,
					"inputs": [
						{
							"indexed": false,
							"internalType": "address",
							"name": "revoker",
							"type": "address"
						},
						{
							"indexed": false,
							"internalType": "uint256",
							"name": "txId",
							"type": "uint256"
						}
					],
					"name": "RevokedApproval",
					"type": "event"
				},
				{
					"anonymous": false,
					"inputs": [
						{
							"indexed": false,
							"internalType": "address",
							"name": "to",
							"type": "address"
						},
						{
							"indexed": false,
							"internalType": "uint256",
							"name": "value",
							"type": "uint256"
						},
						{
							"indexed": false,
							"internalType": "bytes",
							"name": "data",
							"type": "bytes"
						}
					],
					"name": "SubmittedTx",
					"type": "event"
				},
				{
					"inputs": [
						{
							"internalType": "uint256",
							"name": "_txId",
							"type": "uint256"
						}
					],
					"name": "approveTx",
					"outputs": [],
					"stateMutability": "nonpayable",
					"type": "function"
				},
				{
					"inputs": [
						{
							"internalType": "uint256",
							"name": "",
							"type": "uint256"
						},
						{
							"internalType": "address",
							"name": "",
							"type": "address"
						}
					],
					"name": "approved",
					"outputs": [
						{
							"internalType": "bool",
							"name": "",
							"type": "bool"
						}
					],
					"stateMutability": "view",
					"type": "function"
				},
				{
					"inputs": [
						{
							"internalType": "uint256",
							"name": "_txId",
							"type": "uint256"
						}
					],
					"name": "executeTx",
					"outputs": [],
					"stateMutability": "nonpayable",
					"type": "function"
				},
				{
					"inputs": [
						{
							"internalType": "address",
							"name": "",
							"type": "address"
						}
					],
					"name": "isOwner",
					"outputs": [
						{
							"internalType": "bool",
							"name": "",
							"type": "bool"
						}
					],
					"stateMutability": "view",
					"type": "function"
				},
				{
					"inputs": [],
					"name": "required",
					"outputs": [
						{
							"internalType": "uint256",
							"name": "",
							"type": "uint256"
						}
					],
					"stateMutability": "view",
					"type": "function"
				},
				{
					"inputs": [
						{
							"internalType": "uint256",
							"name": "_txId",
							"type": "uint256"
						}
					],
					"name": "revokeTx",
					"outputs": [],
					"stateMutability": "nonpayable",
					"type": "function"
				},
				{
					"inputs": [
						{
							"internalType": "address",
							"name": "_to",
							"type": "address"
						},
						{
							"internalType": "uint256",
							"name": "_value",
							"type": "uint256"
						},
						{
							"internalType": "bytes",
							"name": "_data",
							"type": "bytes"
						}
					],
					"name": "submitTx",
					"outputs": [],
					"stateMutability": "nonpayable",
					"type": "function"
				},
				{
					"inputs": [
						{
							"internalType": "uint256",
							"name": "",
							"type": "uint256"
						}
					],
					"name": "transactions",
					"outputs": [
						{
							"internalType": "uint256",
							"name": "id",
							"type": "uint256"
						},
						{
							"internalType": "address",
							"name": "to",
							"type": "address"
						},
						{
							"internalType": "uint256",
							"name": "value",
							"type": "uint256"
						},
						{
							"internalType": "bytes",
							"name": "data",
							"type": "bytes"
						},
						{
							"internalType": "uint256",
							"name": "confirmations",
							"type": "uint256"
						},
						{
							"internalType": "bool",
							"name": "executed",
							"type": "bool"
						}
					],
					"stateMutability": "view",
					"type": "function"
				},
				{
					"inputs": [],
					"name": "txId",
					"outputs": [
						{
							"internalType": "uint256",
							"name": "",
							"type": "uint256"
						}
					],
					"stateMutability": "view",
					"type": "function"
				},
				{
					"stateMutability": "payable",
					"type": "receive"
				}
			],
			"devdoc": {
				"kind": "dev",
				"methods": {},
				"version": 1
			},
			"evm": {
				"assembly": "    /* \"bootcamp/week2/MultiSigWallet.sol\":291:3473  contract MultiSigWallet {... */\n  mstore(0x40, 0x80)\n    /* \"bootcamp/week2/MultiSigWallet.sol\":1534:1908  constructor (uint256 _required, address[] memory _owners) {... */\n  callvalue\n  dup1\n  iszero\n  tag_1\n  jumpi\n  0x00\n  dup1\n  revert\ntag_1:\n  pop\n  mload(0x40)\n  sub(codesize, bytecodeSize)\n  dup1\n  bytecodeSize\n  dup4\n  codecopy\n  dup2\n  dup2\n  add\n  0x40\n  mstore\n  dup2\n  add\n  swap1\n  tag_2\n  swap2\n  swap1\n  tag_3\n  jump\t// in\ntag_2:\n    /* \"bootcamp/week2/MultiSigWallet.sol\":1618:1625  _owners */\n  dup1\n    /* \"bootcamp/week2/MultiSigWallet.sol\":1618:1632  _owners.length */\n  mload\n    /* \"bootcamp/week2/MultiSigWallet.sol\":1606:1615  _required */\n  dup3\n    /* \"bootcamp/week2/MultiSigWallet.sol\":1606:1632  _required > _owners.length */\n  gt\n    /* \"bootcamp/week2/MultiSigWallet.sol\":1602:1683  if (_required > _owners.length) {... */\n  iszero\n  tag_6\n  jumpi\n    /* \"bootcamp/week2/MultiSigWallet.sol\":1655:1672  invalidRequired() */\n  mload(0x40)\n  0x2730657000000000000000000000000000000000000000000000000000000000\n  dup2\n  mstore\n  0x04\n  add\n  mload(0x40)\n  dup1\n  swap2\n  sub\n  swap1\n  revert\n    /* \"bootcamp/week2/MultiSigWallet.sol\":1602:1683  if (_required > _owners.length) {... */\ntag_6:\n    /* \"bootcamp/week2/MultiSigWallet.sol\":1696:1705  uint256 i */\n  0x00\n    /* \"bootcamp/week2/MultiSigWallet.sol\":1692:1902  for(uint256 i = 0; i < _owners.length; i++) {... */\ntag_7:\n    /* \"bootcamp/week2/MultiSigWallet.sol\":1715:1722  _owners */\n  dup2\n    /* \"bootcamp/week2/MultiSigWallet.sol\":1715:1729  _owners.length */\n  mload\n    /* \"bootcamp/week2/MultiSigWallet.sol\":1711:1712  i */\n  dup2\n    /* \"bootcamp/week2/MultiSigWallet.sol\":1711:1729  i < _owners.length */\n  lt\n    /* \"bootcamp/week2/MultiSigWallet.sol\":1692:1902  for(uint256 i = 0; i < _owners.length; i++) {... */\n  iszero\n  tag_8\n  jumpi\n    /* \"bootcamp/week2/MultiSigWallet.sol\":1750:1763  address owner */\n  0x00\n    /* \"bootcamp/week2/MultiSigWallet.sol\":1766:1773  _owners */\n  dup3\n    /* \"bootcamp/week2/MultiSigWallet.sol\":1774:1775  i */\n  dup3\n    /* \"bootcamp/week2/MultiSigWallet.sol\":1766:1776  _owners[i] */\n  dup2\n  mload\n  dup2\n  lt\n  tag_10\n  jumpi\n  tag_11\n  tag_12\n  jump\t// in\ntag_11:\ntag_10:\n  0x20\n  mul\n  0x20\n  add\n  add\n  mload\n    /* \"bootcamp/week2/MultiSigWallet.sol\":1750:1776  address owner = _owners[i] */\n  swap1\n  pop\n    /* \"bootcamp/week2/MultiSigWallet.sol\":1794:1801  isOwner */\n  0x00\n    /* \"bootcamp/week2/MultiSigWallet.sol\":1794:1808  isOwner[owner] */\n  dup1\n    /* \"bootcamp/week2/MultiSigWallet.sol\":1802:1807  owner */\n  dup3\n    /* \"bootcamp/week2/MultiSigWallet.sol\":1794:1808  isOwner[owner] */\n  0xffffffffffffffffffffffffffffffffffffffff\n  and\n  0xffffffffffffffffffffffffffffffffffffffff\n  and\n  dup2\n  mstore\n  0x20\n  add\n  swap1\n  dup2\n  mstore\n  0x20\n  add\n  0x00\n  keccak256\n  0x00\n  swap1\n  sload\n  swap1\n  0x0100\n  exp\n  swap1\n  div\n  0xff\n  and\n    /* \"bootcamp/week2/MultiSigWallet.sol\":1791:1864  if(isOwner[owner]) {... */\n  iszero\n  tag_13\n  jumpi\n    /* \"bootcamp/week2/MultiSigWallet.sol\":1835:1849  AlreadyOwner() */\n  mload(0x40)\n  0xc0159e0e00000000000000000000000000000000000000000000000000000000\n  dup2\n  mstore\n  0x04\n  add\n  mload(0x40)\n  dup1\n  swap2\n  sub\n  swap1\n  revert\n    /* \"bootcamp/week2/MultiSigWallet.sol\":1791:1864  if(isOwner[owner]) {... */\ntag_13:\n    /* \"bootcamp/week2/MultiSigWallet.sol\":1877:1884  isOwner */\n  0x00\n    /* \"bootcamp/week2/MultiSigWallet.sol\":1877:1891  isOwner[owner] */\n  dup1\n    /* \"bootcamp/week2/MultiSigWallet.sol\":1885:1890  owner */\n  dup3\n    /* \"bootcamp/week2/MultiSigWallet.sol\":1877:1891  isOwner[owner] */\n  0xffffffffffffffffffffffffffffffffffffffff\n  and\n  0xffffffffffffffffffffffffffffffffffffffff\n  and\n  dup2\n  mstore\n  0x20\n  add\n  swap1\n  dup2\n  mstore\n  0x20\n  add\n  0x00\n  keccak256\n  0x00\n  swap1\n  sload\n  swap1\n  0x0100\n  exp\n  swap1\n  pop\n  pop\n    /* \"bootcamp/week2/MultiSigWallet.sol\":1736:1902  {... */\n  pop\n    /* \"bootcamp/week2/MultiSigWallet.sol\":1731:1734  i++ */\n  dup1\n  dup1\n  tag_14\n  swap1\n  tag_15\n  jump\t// in\ntag_14:\n  swap2\n  pop\n  pop\n    /* \"bootcamp/week2/MultiSigWallet.sol\":1692:1902  for(uint256 i = 0; i < _owners.length; i++) {... */\n  jump(tag_7)\ntag_8:\n  pop\n    /* \"bootcamp/week2/MultiSigWallet.sol\":1534:1908  constructor (uint256 _required, address[] memory _owners) {... */\n  pop\n  pop\n    /* \"bootcamp/week2/MultiSigWallet.sol\":291:3473  contract MultiSigWallet {... */\n  jump(tag_16)\n    /* \"#utility.yul\":24:768   */\ntag_18:\n    /* \"#utility.yul\":131:136   */\n  0x00\n    /* \"#utility.yul\":156:237   */\n  tag_20\n    /* \"#utility.yul\":172:236   */\n  tag_21\n    /* \"#utility.yul\":229:235   */\n  dup5\n    /* \"#utility.yul\":172:236   */\n  tag_22\n  jump\t// in\ntag_21:\n    /* \"#utility.yul\":156:237   */\n  tag_23\n  jump\t// in\ntag_20:\n    /* \"#utility.yul\":147:237   */\n  swap1\n  pop\n    /* \"#utility.yul\":257:262   */\n  dup1\n    /* \"#utility.yul\":286:292   */\n  dup4\n    /* \"#utility.yul\":279:284   */\n  dup3\n    /* \"#utility.yul\":272:293   */\n  mstore\n    /* \"#utility.yul\":320:324   */\n  0x20\n    /* \"#utility.yul\":313:318   */\n  dup3\n    /* \"#utility.yul\":309:325   */\n  add\n    /* \"#utility.yul\":302:325   */\n  swap1\n  pop\n    /* \"#utility.yul\":346:352   */\n  dup3\n    /* \"#utility.yul\":396:399   */\n  dup6\n    /* \"#utility.yul\":388:392   */\n  0x20\n    /* \"#utility.yul\":380:386   */\n  dup7\n    /* \"#utility.yul\":376:393   */\n  mul\n    /* \"#utility.yul\":371:374   */\n  dup3\n    /* \"#utility.yul\":367:394   */\n  add\n    /* \"#utility.yul\":364:400   */\n  gt\n    /* \"#utility.yul\":361:504   */\n  iszero\n  tag_24\n  jumpi\n    /* \"#utility.yul\":415:494   */\n  tag_25\n  tag_26\n  jump\t// in\ntag_25:\n    /* \"#utility.yul\":361:504   */\ntag_24:\n    /* \"#utility.yul\":528:529   */\n  0x00\n    /* \"#utility.yul\":513:762   */\ntag_27:\n    /* \"#utility.yul\":538:544   */\n  dup6\n    /* \"#utility.yul\":535:536   */\n  dup2\n    /* \"#utility.yul\":532:545   */\n  lt\n    /* \"#utility.yul\":513:762   */\n  iszero\n  tag_29\n  jumpi\n    /* \"#utility.yul\":606:609   */\n  dup2\n    /* \"#utility.yul\":635:683   */\n  tag_30\n    /* \"#utility.yul\":679:682   */\n  dup9\n    /* \"#utility.yul\":667:677   */\n  dup3\n    /* \"#utility.yul\":635:683   */\n  tag_31\n  jump\t// in\ntag_30:\n    /* \"#utility.yul\":630:633   */\n  dup5\n    /* \"#utility.yul\":623:684   */\n  mstore\n    /* \"#utility.yul\":713:717   */\n  0x20\n    /* \"#utility.yul\":708:711   */\n  dup5\n    /* \"#utility.yul\":704:718   */\n  add\n    /* \"#utility.yul\":697:718   */\n  swap4\n  pop\n    /* \"#utility.yul\":747:751   */\n  0x20\n    /* \"#utility.yul\":742:745   */\n  dup4\n    /* \"#utility.yul\":738:752   */\n  add\n    /* \"#utility.yul\":731:752   */\n  swap3\n  pop\n    /* \"#utility.yul\":573:762   */\n  pop\n    /* \"#utility.yul\":560:561   */\n  0x01\n    /* \"#utility.yul\":557:558   */\n  dup2\n    /* \"#utility.yul\":553:562   */\n  add\n    /* \"#utility.yul\":548:562   */\n  swap1\n  pop\n    /* \"#utility.yul\":513:762   */\n  jump(tag_27)\ntag_29:\n    /* \"#utility.yul\":517:531   */\n  pop\n    /* \"#utility.yul\":137:768   */\n  pop\n  pop\n    /* \"#utility.yul\":24:768   */\n  swap4\n  swap3\n  pop\n  pop\n  pop\n  jump\t// out\n    /* \"#utility.yul\":774:917   */\ntag_31:\n    /* \"#utility.yul\":831:836   */\n  0x00\n    /* \"#utility.yul\":862:868   */\n  dup2\n    /* \"#utility.yul\":856:869   */\n  mload\n    /* \"#utility.yul\":847:869   */\n  swap1\n  pop\n    /* \"#utility.yul\":878:911   */\n  tag_33\n    /* \"#utility.yul\":905:910   */\n  dup2\n    /* \"#utility.yul\":878:911   */\n  tag_34\n  jump\t// in\ntag_33:\n    /* \"#utility.yul\":774:917   */\n  swap3\n  swap2\n  pop\n  pop\n  jump\t// out\n    /* \"#utility.yul\":940:1325   */\ntag_35:\n    /* \"#utility.yul\":1022:1027   */\n  0x00\n    /* \"#utility.yul\":1071:1074   */\n  dup3\n    /* \"#utility.yul\":1064:1068   */\n  0x1f\n    /* \"#utility.yul\":1056:1062   */\n  dup4\n    /* \"#utility.yul\":1052:1069   */\n  add\n    /* \"#utility.yul\":1048:1075   */\n  slt\n    /* \"#utility.yul\":1038:1160   */\n  tag_37\n  jumpi\n    /* \"#utility.yul\":1079:1158   */\n  tag_38\n  tag_39\n  jump\t// in\ntag_38:\n    /* \"#utility.yul\":1038:1160   */\ntag_37:\n    /* \"#utility.yul\":1189:1195   */\n  dup2\n    /* \"#utility.yul\":1183:1196   */\n  mload\n    /* \"#utility.yul\":1214:1319   */\n  tag_40\n    /* \"#utility.yul\":1315:1318   */\n  dup5\n    /* \"#utility.yul\":1307:1313   */\n  dup3\n    /* \"#utility.yul\":1300:1304   */\n  0x20\n    /* \"#utility.yul\":1292:1298   */\n  dup7\n    /* \"#utility.yul\":1288:1305   */\n  add\n    /* \"#utility.yul\":1214:1319   */\n  tag_18\n  jump\t// in\ntag_40:\n    /* \"#utility.yul\":1205:1319   */\n  swap2\n  pop\n    /* \"#utility.yul\":1028:1325   */\n  pop\n    /* \"#utility.yul\":940:1325   */\n  swap3\n  swap2\n  pop\n  pop\n  jump\t// out\n    /* \"#utility.yul\":1331:1474   */\ntag_41:\n    /* \"#utility.yul\":1388:1393   */\n  0x00\n    /* \"#utility.yul\":1419:1425   */\n  dup2\n    /* \"#utility.yul\":1413:1426   */\n  mload\n    /* \"#utility.yul\":1404:1426   */\n  swap1\n  pop\n    /* \"#utility.yul\":1435:1468   */\n  tag_43\n    /* \"#utility.yul\":1462:1467   */\n  dup2\n    /* \"#utility.yul\":1435:1468   */\n  tag_44\n  jump\t// in\ntag_43:\n    /* \"#utility.yul\":1331:1474   */\n  swap3\n  swap2\n  pop\n  pop\n  jump\t// out\n    /* \"#utility.yul\":1480:2190   */\ntag_3:\n    /* \"#utility.yul\":1584:1590   */\n  0x00\n    /* \"#utility.yul\":1592:1598   */\n  dup1\n    /* \"#utility.yul\":1641:1643   */\n  0x40\n    /* \"#utility.yul\":1629:1638   */\n  dup4\n    /* \"#utility.yul\":1620:1627   */\n  dup6\n    /* \"#utility.yul\":1616:1639   */\n  sub\n    /* \"#utility.yul\":1612:1644   */\n  slt\n    /* \"#utility.yul\":1609:1728   */\n  iszero\n  tag_46\n  jumpi\n    /* \"#utility.yul\":1647:1726   */\n  tag_47\n  tag_48\n  jump\t// in\ntag_47:\n    /* \"#utility.yul\":1609:1728   */\ntag_46:\n    /* \"#utility.yul\":1767:1768   */\n  0x00\n    /* \"#utility.yul\":1792:1856   */\n  tag_49\n    /* \"#utility.yul\":1848:1855   */\n  dup6\n    /* \"#utility.yul\":1839:1845   */\n  dup3\n    /* \"#utility.yul\":1828:1837   */\n  dup7\n    /* \"#utility.yul\":1824:1846   */\n  add\n    /* \"#utility.yul\":1792:1856   */\n  tag_41\n  jump\t// in\ntag_49:\n    /* \"#utility.yul\":1782:1856   */\n  swap3\n  pop\n    /* \"#utility.yul\":1738:1866   */\n  pop\n    /* \"#utility.yul\":1926:1928   */\n  0x20\n    /* \"#utility.yul\":1915:1924   */\n  dup4\n    /* \"#utility.yul\":1911:1929   */\n  add\n    /* \"#utility.yul\":1905:1930   */\n  mload\n    /* \"#utility.yul\":1957:1975   */\n  0xffffffffffffffff\n    /* \"#utility.yul\":1949:1955   */\n  dup2\n    /* \"#utility.yul\":1946:1976   */\n  gt\n    /* \"#utility.yul\":1943:2060   */\n  iszero\n  tag_50\n  jumpi\n    /* \"#utility.yul\":1979:2058   */\n  tag_51\n  tag_52\n  jump\t// in\ntag_51:\n    /* \"#utility.yul\":1943:2060   */\ntag_50:\n    /* \"#utility.yul\":2084:2173   */\n  tag_53\n    /* \"#utility.yul\":2165:2172   */\n  dup6\n    /* \"#utility.yul\":2156:2162   */\n  dup3\n    /* \"#utility.yul\":2145:2154   */\n  dup7\n    /* \"#utility.yul\":2141:2163   */\n  add\n    /* \"#utility.yul\":2084:2173   */\n  tag_35\n  jump\t// in\ntag_53:\n    /* \"#utility.yul\":2074:2173   */\n  swap2\n  pop\n    /* \"#utility.yul\":1876:2183   */\n  pop\n    /* \"#utility.yul\":1480:2190   */\n  swap3\n  pop\n  swap3\n  swap1\n  pop\n  jump\t// out\n    /* \"#utility.yul\":2196:2325   */\ntag_23:\n    /* \"#utility.yul\":2230:2236   */\n  0x00\n    /* \"#utility.yul\":2257:2277   */\n  tag_55\n  tag_56\n  jump\t// in\ntag_55:\n    /* \"#utility.yul\":2247:2277   */\n  swap1\n  pop\n    /* \"#utility.yul\":2286:2319   */\n  tag_57\n    /* \"#utility.yul\":2314:2318   */\n  dup3\n    /* \"#utility.yul\":2306:2312   */\n  dup3\n    /* \"#utility.yul\":2286:2319   */\n  tag_58\n  jump\t// in\ntag_57:\n    /* \"#utility.yul\":2196:2325   */\n  swap2\n  swap1\n  pop\n  jump\t// out\n    /* \"#utility.yul\":2331:2406   */\ntag_56:\n    /* \"#utility.yul\":2364:2370   */\n  0x00\n    /* \"#utility.yul\":2397:2399   */\n  0x40\n    /* \"#utility.yul\":2391:2400   */\n  mload\n    /* \"#utility.yul\":2381:2400   */\n  swap1\n  pop\n    /* \"#utility.yul\":2331:2406   */\n  swap1\n  jump\t// out\n    /* \"#utility.yul\":2412:2723   */\ntag_22:\n    /* \"#utility.yul\":2489:2493   */\n  0x00\n    /* \"#utility.yul\":2579:2597   */\n  0xffffffffffffffff\n    /* \"#utility.yul\":2571:2577   */\n  dup3\n    /* \"#utility.yul\":2568:2598   */\n  gt\n    /* \"#utility.yul\":2565:2621   */\n  iszero\n  tag_61\n  jumpi\n    /* \"#utility.yul\":2601:2619   */\n  tag_62\n  tag_63\n  jump\t// in\ntag_62:\n    /* \"#utility.yul\":2565:2621   */\ntag_61:\n    /* \"#utility.yul\":2651:2655   */\n  0x20\n    /* \"#utility.yul\":2643:2649   */\n  dup3\n    /* \"#utility.yul\":2639:2656   */\n  mul\n    /* \"#utility.yul\":2631:2656   */\n  swap1\n  pop\n    /* \"#utility.yul\":2711:2715   */\n  0x20\n    /* \"#utility.yul\":2705:2709   */\n  dup2\n    /* \"#utility.yul\":2701:2716   */\n  add\n    /* \"#utility.yul\":2693:2716   */\n  swap1\n  pop\n    /* \"#utility.yul\":2412:2723   */\n  swap2\n  swap1\n  pop\n  jump\t// out\n    /* \"#utility.yul\":2729:2825   */\ntag_64:\n    /* \"#utility.yul\":2766:2773   */\n  0x00\n    /* \"#utility.yul\":2795:2819   */\n  tag_66\n    /* \"#utility.yul\":2813:2818   */\n  dup3\n    /* \"#utility.yul\":2795:2819   */\n  tag_67\n  jump\t// in\ntag_66:\n    /* \"#utility.yul\":2784:2819   */\n  swap1\n  pop\n    /* \"#utility.yul\":2729:2825   */\n  swap2\n  swap1\n  pop\n  jump\t// out\n    /* \"#utility.yul\":2831:2957   */\ntag_67:\n    /* \"#utility.yul\":2868:2875   */\n  0x00\n    /* \"#utility.yul\":2908:2950   */\n  0xffffffffffffffffffffffffffffffffffffffff\n    /* \"#utility.yul\":2901:2906   */\n  dup3\n    /* \"#utility.yul\":2897:2951   */\n  and\n    /* \"#utility.yul\":2886:2951   */\n  swap1\n  pop\n    /* \"#utility.yul\":2831:2957   */\n  swap2\n  swap1\n  pop\n  jump\t// out\n    /* \"#utility.yul\":2963:3040   */\ntag_69:\n    /* \"#utility.yul\":3000:3007   */\n  0x00\n    /* \"#utility.yul\":3029:3034   */\n  dup2\n    /* \"#utility.yul\":3018:3034   */\n  swap1\n  pop\n    /* \"#utility.yul\":2963:3040   */\n  swap2\n  swap1\n  pop\n  jump\t// out\n    /* \"#utility.yul\":3046:3327   */\ntag_58:\n    /* \"#utility.yul\":3129:3156   */\n  tag_72\n    /* \"#utility.yul\":3151:3155   */\n  dup3\n    /* \"#utility.yul\":3129:3156   */\n  tag_73\n  jump\t// in\ntag_72:\n    /* \"#utility.yul\":3121:3127   */\n  dup2\n    /* \"#utility.yul\":3117:3157   */\n  add\n    /* \"#utility.yul\":3259:3265   */\n  dup2\n    /* \"#utility.yul\":3247:3257   */\n  dup2\n    /* \"#utility.yul\":3244:3266   */\n  lt\n    /* \"#utility.yul\":3223:3241   */\n  0xffffffffffffffff\n    /* \"#utility.yul\":3211:3221   */\n  dup3\n    /* \"#utility.yul\":3208:3242   */\n  gt\n    /* \"#utility.yul\":3205:3267   */\n  or\n    /* \"#utility.yul\":3202:3290   */\n  iszero\n  tag_74\n  jumpi\n    /* \"#utility.yul\":3270:3288   */\n  tag_75\n  tag_63\n  jump\t// in\ntag_75:\n    /* \"#utility.yul\":3202:3290   */\ntag_74:\n    /* \"#utility.yul\":3310:3320   */\n  dup1\n    /* \"#utility.yul\":3306:3308   */\n  0x40\n    /* \"#utility.yul\":3299:3321   */\n  mstore\n    /* \"#utility.yul\":3089:3327   */\n  pop\n    /* \"#utility.yul\":3046:3327   */\n  pop\n  pop\n  jump\t// out\n    /* \"#utility.yul\":3333:3566   */\ntag_15:\n    /* \"#utility.yul\":3372:3375   */\n  0x00\n    /* \"#utility.yul\":3395:3419   */\n  tag_77\n    /* \"#utility.yul\":3413:3418   */\n  dup3\n    /* \"#utility.yul\":3395:3419   */\n  tag_69\n  jump\t// in\ntag_77:\n    /* \"#utility.yul\":3386:3419   */\n  swap2\n  pop\n    /* \"#utility.yul\":3441:3507   */\n  0xffffffffffffffffffffffffffffffffffffffffffffffffffffffffffffffff\n    /* \"#utility.yul\":3434:3439   */\n  dup3\n    /* \"#utility.yul\":3431:3508   */\n  eq\n    /* \"#utility.yul\":3428:3531   */\n  iszero\n  tag_78\n  jumpi\n    /* \"#utility.yul\":3511:3529   */\n  tag_79\n  tag_80\n  jump\t// in\ntag_79:\n    /* \"#utility.yul\":3428:3531   */\ntag_78:\n    /* \"#utility.yul\":3558:3559   */\n  0x01\n    /* \"#utility.yul\":3551:3556   */\n  dup3\n    /* \"#utility.yul\":3547:3560   */\n  add\n    /* \"#utility.yul\":3540:3560   */\n  swap1\n  pop\n    /* \"#utility.yul\":3333:3566   */\n  swap2\n  swap1\n  pop\n  jump\t// out\n    /* \"#utility.yul\":3572:3752   */\ntag_80:\n    /* \"#utility.yul\":3620:3697   */\n  0x4e487b7100000000000000000000000000000000000000000000000000000000\n    /* \"#utility.yul\":3617:3618   */\n  0x00\n    /* \"#utility.yul\":3610:3698   */\n  mstore\n    /* \"#utility.yul\":3717:3721   */\n  0x11\n    /* \"#utility.yul\":3714:3715   */\n  0x04\n    /* \"#utility.yul\":3707:3722   */\n  mstore\n    /* \"#utility.yul\":3741:3745   */\n  0x24\n    /* \"#utility.yul\":3738:3739   */\n  0x00\n    /* \"#utility.yul\":3731:3746   */\n  revert\n    /* \"#utility.yul\":3758:3938   */\ntag_12:\n    /* \"#utility.yul\":3806:3883   */\n  0x4e487b7100000000000000000000000000000000000000000000000000000000\n    /* \"#utility.yul\":3803:3804   */\n  0x00\n    /* \"#utility.yul\":3796:3884   */\n  mstore\n    /* \"#utility.yul\":3903:3907   */\n  0x32\n    /* \"#utility.yul\":3900:3901   */\n  0x04\n    /* \"#utility.yul\":3893:3908   */\n  mstore\n    /* \"#utility.yul\":3927:3931   */\n  0x24\n    /* \"#utility.yul\":3924:3925   */\n  0x00\n    /* \"#utility.yul\":3917:3932   */\n  revert\n    /* \"#utility.yul\":3944:4124   */\ntag_63:\n    /* \"#utility.yul\":3992:4069   */\n  0x4e487b7100000000000000000000000000000000000000000000000000000000\n    /* \"#utility.yul\":3989:3990   */\n  0x00\n    /* \"#utility.yul\":3982:4070   */\n  mstore\n    /* \"#utility.yul\":4089:4093   */\n  0x41\n    /* \"#utility.yul\":4086:4087   */\n  0x04\n    /* \"#utility.yul\":4079:4094   */\n  mstore\n    /* \"#utility.yul\":4113:4117   */\n  0x24\n    /* \"#utility.yul\":4110:4111   */\n  0x00\n    /* \"#utility.yul\":4103:4118   */\n  revert\n    /* \"#utility.yul\":4130:4247   */\ntag_39:\n    /* \"#utility.yul\":4239:4240   */\n  0x00\n    /* \"#utility.yul\":4236:4237   */\n  dup1\n    /* \"#utility.yul\":4229:4241   */\n  revert\n    /* \"#utility.yul\":4253:4370   */\ntag_26:\n    /* \"#utility.yul\":4362:4363   */\n  0x00\n    /* \"#utility.yul\":4359:4360   */\n  dup1\n    /* \"#utility.yul\":4352:4364   */\n  revert\n    /* \"#utility.yul\":4376:4493   */\ntag_52:\n    /* \"#utility.yul\":4485:4486   */\n  0x00\n    /* \"#utility.yul\":4482:4483   */\n  dup1\n    /* \"#utility.yul\":4475:4487   */\n  revert\n    /* \"#utility.yul\":4499:4616   */\ntag_48:\n    /* \"#utility.yul\":4608:4609   */\n  0x00\n    /* \"#utility.yul\":4605:4606   */\n  dup1\n    /* \"#utility.yul\":4598:4610   */\n  revert\n    /* \"#utility.yul\":4622:4724   */\ntag_73:\n    /* \"#utility.yul\":4663:4669   */\n  0x00\n    /* \"#utility.yul\":4714:4716   */\n  0x1f\n    /* \"#utility.yul\":4710:4717   */\n  not\n    /* \"#utility.yul\":4705:4707   */\n  0x1f\n    /* \"#utility.yul\":4698:4703   */\n  dup4\n    /* \"#utility.yul\":4694:4708   */\n  add\n    /* \"#utility.yul\":4690:4718   */\n  and\n    /* \"#utility.yul\":4680:4718   */\n  swap1\n  pop\n    /* \"#utility.yul\":4622:4724   */\n  swap2\n  swap1\n  pop\n  jump\t// out\n    /* \"#utility.yul\":4730:4852   */\ntag_34:\n    /* \"#utility.yul\":4803:4827   */\n  tag_90\n    /* \"#utility.yul\":4821:4826   */\n  dup2\n    /* \"#utility.yul\":4803:4827   */\n  tag_64\n  jump\t// in\ntag_90:\n    /* \"#utility.yul\":4796:4801   */\n  dup2\n    /* \"#utility.yul\":4793:4828   */\n  eq\n    /* \"#utility.yul\":4783:4846   */\n  tag_91\n  jumpi\n    /* \"#utility.yul\":4842:4843   */\n  0x00\n    /* \"#utility.yul\":4839:4840   */\n  dup1\n    /* \"#utility.yul\":4832:4844   */\n  revert\n    /* \"#utility.yul\":4783:4846   */\ntag_91:\n    /* \"#utility.yul\":4730:4852   */\n  pop\n  jump\t// out\n    /* \"#utility.yul\":4858:4980   */\ntag_44:\n    /* \"#utility.yul\":4931:4955   */\n  tag_93\n    /* \"#utility.yul\":4949:4954   */\n  dup2\n    /* \"#utility.yul\":4931:4955   */\n  tag_69\n  jump\t// in\ntag_93:\n    /* \"#utility.yul\":4924:4929   */\n  dup2\n    /* \"#utility.yul\":4921:4956   */\n  eq\n    /* \"#utility.yul\":4911:4974   */\n  tag_94\n  jumpi\n    /* \"#utility.yul\":4970:4971   */\n  0x00\n    /* \"#utility.yul\":4967:4968   */\n  dup1\n    /* \"#utility.yul\":4960:4972   */\n  revert\n    /* \"#utility.yul\":4911:4974   */\ntag_94:\n    /* \"#utility.yul\":4858:4980   */\n  pop\n  jump\t// out\n    /* \"bootcamp/week2/MultiSigWallet.sol\":291:3473  contract MultiSigWallet {... */\ntag_16:\n  dataSize(sub_0)\n  dup1\n  dataOffset(sub_0)\n  0x00\n  codecopy\n  0x00\n  return\nstop\n\nsub_0: assembly {\n        /* \"bootcamp/week2/MultiSigWallet.sol\":291:3473  contract MultiSigWallet {... */\n      mstore(0x40, 0x80)\n      jumpi(tag_1, lt(calldatasize, 0x04))\n      shr(0xe0, calldataload(0x00))\n      dup1\n      0x8253951a\n      gt\n      tag_12\n      jumpi\n      dup1\n      0x8253951a\n      eq\n      tag_7\n      jumpi\n      dup1\n      0x9ace38c2\n      eq\n      tag_8\n      jumpi\n      dup1\n      0xbb84c5a9\n      eq\n      tag_9\n      jumpi\n      dup1\n      0xcd568d1f\n      eq\n      tag_10\n      jumpi\n      dup1\n      0xdc8452cd\n      eq\n      tag_11\n      jumpi\n      jump(tag_2)\n    tag_12:\n      dup1\n      0x1087393a\n      eq\n      tag_3\n      jumpi\n      dup1\n      0x2f54bf6e\n      eq\n      tag_4\n      jumpi\n      dup1\n      0x54b5fe80\n      eq\n      tag_5\n      jumpi\n      dup1\n      0x5986aaca\n      eq\n      tag_6\n      jumpi\n      jump(tag_2)\n    tag_1:\n      jumpi(tag_2, calldatasize)\n        /* \"bootcamp/week2/MultiSigWallet.sol\":1956:2009  Deposit(msg.sender, msg.value, address(this).balance) */\n      0x90890809c654f11d6e72a28fa60149770a0d11ec6c92319d6ceb2bb0a4ea1a15\n        /* \"bootcamp/week2/MultiSigWallet.sol\":1964:1974  msg.sender */\n      caller\n        /* \"bootcamp/week2/MultiSigWallet.sol\":1976:1985  msg.value */\n      callvalue\n        /* \"bootcamp/week2/MultiSigWallet.sol\":1987:2008  address(this).balance */\n      selfbalance\n        /* \"bootcamp/week2/MultiSigWallet.sol\":1956:2009  Deposit(msg.sender, msg.value, address(this).balance) */\n      mload(0x40)\n      tag_15\n      swap4\n      swap3\n      swap2\n      swap1\n      tag_16\n      jump\t// in\n    tag_15:\n      mload(0x40)\n      dup1\n      swap2\n      sub\n      swap1\n      log1\n        /* \"bootcamp/week2/MultiSigWallet.sol\":291:3473  contract MultiSigWallet {... */\n      stop\n    tag_2:\n      0x00\n      dup1\n      revert\n        /* \"bootcamp/week2/MultiSigWallet.sol\":2376:2623  function approveTx(uint256 _txId) external onlyOwner txExists(_txId) notExecuted(_txId) notApproved(_txId) {... */\n    tag_3:\n      callvalue\n      dup1\n      iszero\n      tag_17\n      jumpi\n      0x00\n      dup1\n      revert\n    tag_17:\n      pop\n      tag_18\n      0x04\n      dup1\n      calldatasize\n      sub\n      dup2\n      add\n      swap1\n      tag_19\n      swap2\n      swap1\n      tag_20\n      jump\t// in\n    tag_19:\n      tag_21\n      jump\t// in\n    tag_18:\n      stop\n        /* \"bootcamp/week2/MultiSigWallet.sol\":564:604  mapping (address => bool) public isOwner */\n    tag_4:\n      callvalue\n      dup1\n      iszero\n      tag_22\n      jumpi\n      0x00\n      dup1\n      revert\n    tag_22:\n      pop\n      tag_23\n      0x04\n      dup1\n      calldatasize\n      sub\n      dup2\n      add\n      swap1\n      tag_24\n      swap2\n      swap1\n      tag_25\n      jump\t// in\n    tag_24:\n      tag_26\n      jump\t// in\n    tag_23:\n      mload(0x40)\n      tag_27\n      swap2\n      swap1\n      tag_28\n      jump\t// in\n    tag_27:\n      mload(0x40)\n      dup1\n      swap2\n      sub\n      swap1\n      return\n        /* \"bootcamp/week2/MultiSigWallet.sol\":2629:3104  function executeTx(uint256 _txId) external onlyOwner txExists(_txId) notExecuted(_txId) {... */\n    tag_5:\n      callvalue\n      dup1\n      iszero\n      tag_29\n      jumpi\n      0x00\n      dup1\n      revert\n    tag_29:\n      pop\n      tag_30\n      0x04\n      dup1\n      calldatasize\n      sub\n      dup2\n      add\n      swap1\n      tag_31\n      swap2\n      swap1\n      tag_20\n      jump\t// in\n    tag_31:\n      tag_32\n      jump\t// in\n    tag_30:\n      stop\n        /* \"bootcamp/week2/MultiSigWallet.sol\":3110:3471  function revokeTx(uint256 _txId) external onlyOwner txExists(_txId) notExecuted(_txId) {... */\n    tag_6:\n      callvalue\n      dup1\n      iszero\n      tag_33\n      jumpi\n      0x00\n      dup1\n      revert\n    tag_33:\n      pop\n      tag_34\n      0x04\n      dup1\n      calldatasize\n      sub\n      dup2\n      add\n      swap1\n      tag_35\n      swap2\n      swap1\n      tag_20\n      jump\t// in\n    tag_35:\n      tag_36\n      jump\t// in\n    tag_34:\n      stop\n        /* \"bootcamp/week2/MultiSigWallet.sol\":837:897  mapping(uint256 => mapping(address => bool)) public approved */\n    tag_7:\n      callvalue\n      dup1\n      iszero\n      tag_37\n      jumpi\n      0x00\n      dup1\n      revert\n    tag_37:\n      pop\n      tag_38\n      0x04\n      dup1\n      calldatasize\n      sub\n      dup2\n      add\n      swap1\n      tag_39\n      swap2\n      swap1\n      tag_40\n      jump\t// in\n    tag_39:\n      tag_41\n      jump\t// in\n    tag_38:\n      mload(0x40)\n      tag_42\n      swap2\n      swap1\n      tag_28\n      jump\t// in\n    tag_42:\n      mload(0x40)\n      dup1\n      swap2\n      sub\n      swap1\n      return\n        /* \"bootcamp/week2/MultiSigWallet.sol\":780:831  mapping(uint256 => Transaction) public transactions */\n    tag_8:\n      callvalue\n      dup1\n      iszero\n      tag_43\n      jumpi\n      0x00\n      dup1\n      revert\n    tag_43:\n      pop\n      tag_44\n      0x04\n      dup1\n      calldatasize\n      sub\n      dup2\n      add\n      swap1\n      tag_45\n      swap2\n      swap1\n      tag_20\n      jump\t// in\n    tag_45:\n      tag_46\n      jump\t// in\n    tag_44:\n      mload(0x40)\n      tag_47\n      swap7\n      swap6\n      swap5\n      swap4\n      swap3\n      swap2\n      swap1\n      tag_48\n      jump\t// in\n    tag_47:\n      mload(0x40)\n      dup1\n      swap2\n      sub\n      swap1\n      return\n        /* \"bootcamp/week2/MultiSigWallet.sol\":2022:2370  function submitTx(address _to, uint256 _value, bytes memory _data) external onlyOwner {... */\n    tag_9:\n      callvalue\n      dup1\n      iszero\n      tag_49\n      jumpi\n      0x00\n      dup1\n      revert\n    tag_49:\n      pop\n      tag_50\n      0x04\n      dup1\n      calldatasize\n      sub\n      dup2\n      add\n      swap1\n      tag_51\n      swap2\n      swap1\n      tag_52\n      jump\t// in\n    tag_51:\n      tag_53\n      jump\t// in\n    tag_50:\n      stop\n        /* \"bootcamp/week2/MultiSigWallet.sol\":932:951  uint256 public txId */\n    tag_10:\n      callvalue\n      dup1\n      iszero\n      tag_54\n      jumpi\n      0x00\n      dup1\n      revert\n    tag_54:\n      pop\n      tag_55\n      tag_56\n      jump\t// in\n    tag_55:\n      mload(0x40)\n      tag_57\n      swap2\n      swap1\n      tag_58\n      jump\t// in\n    tag_57:\n      mload(0x40)\n      dup1\n      swap2\n      sub\n      swap1\n      return\n        /* \"bootcamp/week2/MultiSigWallet.sol\":903:926  uint256 public required */\n    tag_11:\n      callvalue\n      dup1\n      iszero\n      tag_59\n      jumpi\n      0x00\n      dup1\n      revert\n    tag_59:\n      pop\n      tag_60\n      tag_61\n      jump\t// in\n    tag_60:\n      mload(0x40)\n      tag_62\n      swap2\n      swap1\n      tag_58\n      jump\t// in\n    tag_62:\n      mload(0x40)\n      dup1\n      swap2\n      sub\n      swap1\n      return\n        /* \"bootcamp/week2/MultiSigWallet.sol\":2376:2623  function approveTx(uint256 _txId) external onlyOwner txExists(_txId) notExecuted(_txId) notApproved(_txId) {... */\n    tag_21:\n        /* \"bootcamp/week2/MultiSigWallet.sol\":994:1001  isOwner */\n      0x00\n        /* \"bootcamp/week2/MultiSigWallet.sol\":994:1013  isOwner[msg.sender] */\n      dup1\n        /* \"bootcamp/week2/MultiSigWallet.sol\":1002:1012  msg.sender */\n      caller\n        /* \"bootcamp/week2/MultiSigWallet.sol\":994:1013  isOwner[msg.sender] */\n      0xffffffffffffffffffffffffffffffffffffffff\n      and\n      0xffffffffffffffffffffffffffffffffffffffff\n      and\n      dup2\n      mstore\n      0x20\n      add\n      swap1\n      dup2\n      mstore\n      0x20\n      add\n      0x00\n      keccak256\n      0x00\n      swap1\n      sload\n      swap1\n      0x0100\n      exp\n      swap1\n      div\n      0xff\n      and\n        /* \"bootcamp/week2/MultiSigWallet.sol\":989:1057  if (!isOwner[msg.sender]) {... */\n      tag_64\n      jumpi\n        /* \"bootcamp/week2/MultiSigWallet.sol\":1036:1046  NotOwner() */\n      mload(0x40)\n      0x30cd747100000000000000000000000000000000000000000000000000000000\n      dup2\n      mstore\n      0x04\n      add\n      mload(0x40)\n      dup1\n      swap2\n      sub\n      swap1\n      revert\n        /* \"bootcamp/week2/MultiSigWallet.sol\":989:1057  if (!isOwner[msg.sender]) {... */\n    tag_64:\n        /* \"bootcamp/week2/MultiSigWallet.sol\":2438:2443  _txId */\n      dup1\n        /* \"bootcamp/week2/MultiSigWallet.sol\":1151:1155  txId */\n      sload(0x04)\n        /* \"bootcamp/week2/MultiSigWallet.sol\":1127:1139  transactions */\n      0x01\n        /* \"bootcamp/week2/MultiSigWallet.sol\":1127:1145  transactions[txId] */\n      0x00\n        /* \"bootcamp/week2/MultiSigWallet.sol\":1140:1144  txId */\n      sload(0x04)\n        /* \"bootcamp/week2/MultiSigWallet.sol\":1127:1145  transactions[txId] */\n      dup2\n      mstore\n      0x20\n      add\n      swap1\n      dup2\n      mstore\n      0x20\n      add\n      0x00\n      keccak256\n        /* \"bootcamp/week2/MultiSigWallet.sol\":1127:1148  transactions[txId].id */\n      0x00\n      add\n      sload\n        /* \"bootcamp/week2/MultiSigWallet.sol\":1127:1155  transactions[txId].id > txId */\n      gt\n        /* \"bootcamp/week2/MultiSigWallet.sol\":1123:1205  if (transactions[txId].id > txId) {... */\n      iszero\n      tag_66\n      jumpi\n        /* \"bootcamp/week2/MultiSigWallet.sol\":1178:1194  txDoesNotExist() */\n      mload(0x40)\n      0xc929b60400000000000000000000000000000000000000000000000000000000\n      dup2\n      mstore\n      0x04\n      add\n      mload(0x40)\n      dup1\n      swap2\n      sub\n      swap1\n      revert\n        /* \"bootcamp/week2/MultiSigWallet.sol\":1123:1205  if (transactions[txId].id > txId) {... */\n    tag_66:\n        /* \"bootcamp/week2/MultiSigWallet.sol\":2457:2462  _txId */\n      dup2\n        /* \"bootcamp/week2/MultiSigWallet.sol\":1278:1290  transactions */\n      0x01\n        /* \"bootcamp/week2/MultiSigWallet.sol\":1278:1297  transactions[_txId] */\n      0x00\n        /* \"bootcamp/week2/MultiSigWallet.sol\":1291:1296  _txId */\n      dup3\n        /* \"bootcamp/week2/MultiSigWallet.sol\":1278:1297  transactions[_txId] */\n      dup2\n      mstore\n      0x20\n      add\n      swap1\n      dup2\n      mstore\n      0x20\n      add\n      0x00\n      keccak256\n        /* \"bootcamp/week2/MultiSigWallet.sol\":1278:1306  transactions[_txId].executed */\n      0x05\n      add\n      0x00\n      swap1\n      sload\n      swap1\n      0x0100\n      exp\n      swap1\n      div\n      0xff\n      and\n        /* \"bootcamp/week2/MultiSigWallet.sol\":1274:1359  if (transactions[_txId].executed) {... */\n      iszero\n      tag_68\n      jumpi\n        /* \"bootcamp/week2/MultiSigWallet.sol\":1329:1348  txAlreadyExecuted() */\n      mload(0x40)\n      0x3ca00aa600000000000000000000000000000000000000000000000000000000\n      dup2\n      mstore\n      0x04\n      add\n      mload(0x40)\n      dup1\n      swap2\n      sub\n      swap1\n      revert\n        /* \"bootcamp/week2/MultiSigWallet.sol\":1274:1359  if (transactions[_txId].executed) {... */\n    tag_68:\n        /* \"bootcamp/week2/MultiSigWallet.sol\":2476:2481  _txId */\n      dup3\n        /* \"bootcamp/week2/MultiSigWallet.sol\":1431:1439  approved */\n      0x02\n        /* \"bootcamp/week2/MultiSigWallet.sol\":1431:1446  approved[_txId] */\n      0x00\n        /* \"bootcamp/week2/MultiSigWallet.sol\":1440:1445  _txId */\n      dup3\n        /* \"bootcamp/week2/MultiSigWallet.sol\":1431:1446  approved[_txId] */\n      dup2\n      mstore\n      0x20\n      add\n      swap1\n      dup2\n      mstore\n      0x20\n      add\n      0x00\n      keccak256\n        /* \"bootcamp/week2/MultiSigWallet.sol\":1431:1458  approved[_txId][msg.sender] */\n      0x00\n        /* \"bootcamp/week2/MultiSigWallet.sol\":1447:1457  msg.sender */\n      caller\n        /* \"bootcamp/week2/MultiSigWallet.sol\":1431:1458  approved[_txId][msg.sender] */\n      0xffffffffffffffffffffffffffffffffffffffff\n      and\n      0xffffffffffffffffffffffffffffffffffffffff\n      and\n      dup2\n      mstore\n      0x20\n      add\n      swap1\n      dup2\n      mstore\n      0x20\n      add\n      0x00\n      keccak256\n      0x00\n      swap1\n      sload\n      swap1\n      0x0100\n      exp\n      swap1\n      div\n      0xff\n      and\n        /* \"bootcamp/week2/MultiSigWallet.sol\":1428:1511  if(approved[_txId][msg.sender]) {... */\n      iszero\n      tag_70\n      jumpi\n        /* \"bootcamp/week2/MultiSigWallet.sol\":1481:1500  txAlreadyApproved() */\n      mload(0x40)\n      0xfcaeab4c00000000000000000000000000000000000000000000000000000000\n      dup2\n      mstore\n      0x04\n      add\n      mload(0x40)\n      dup1\n      swap2\n      sub\n      swap1\n      revert\n        /* \"bootcamp/week2/MultiSigWallet.sol\":1428:1511  if(approved[_txId][msg.sender]) {... */\n    tag_70:\n        /* \"bootcamp/week2/MultiSigWallet.sol\":2493:2505  transactions */\n      0x01\n        /* \"bootcamp/week2/MultiSigWallet.sol\":2493:2512  transactions[_txId] */\n      0x00\n        /* \"bootcamp/week2/MultiSigWallet.sol\":2506:2511  _txId */\n      dup6\n        /* \"bootcamp/week2/MultiSigWallet.sol\":2493:2512  transactions[_txId] */\n      dup2\n      mstore\n      0x20\n      add\n      swap1\n      dup2\n      mstore\n      0x20\n      add\n      0x00\n      keccak256\n        /* \"bootcamp/week2/MultiSigWallet.sol\":2493:2526  transactions[_txId].confirmations */\n      0x04\n      add\n      0x00\n        /* \"bootcamp/week2/MultiSigWallet.sol\":2493:2528  transactions[_txId].confirmations++ */\n      dup2\n      sload\n      dup1\n      swap3\n      swap2\n      swap1\n      tag_72\n      swap1\n      tag_73\n      jump\t// in\n    tag_72:\n      swap2\n      swap1\n      pop\n      sstore\n      pop\n        /* \"bootcamp/week2/MultiSigWallet.sol\":2568:2572  true */\n      0x01\n        /* \"bootcamp/week2/MultiSigWallet.sol\":2538:2546  approved */\n      0x02\n        /* \"bootcamp/week2/MultiSigWallet.sol\":2538:2553  approved[_txId] */\n      0x00\n        /* \"bootcamp/week2/MultiSigWallet.sol\":2547:2552  _txId */\n      dup7\n        /* \"bootcamp/week2/MultiSigWallet.sol\":2538:2553  approved[_txId] */\n      dup2\n      mstore\n      0x20\n      add\n      swap1\n      dup2\n      mstore\n      0x20\n      add\n      0x00\n      keccak256\n        /* \"bootcamp/week2/MultiSigWallet.sol\":2538:2565  approved[_txId][msg.sender] */\n      0x00\n        /* \"bootcamp/week2/MultiSigWallet.sol\":2554:2564  msg.sender */\n      caller\n        /* \"bootcamp/week2/MultiSigWallet.sol\":2538:2565  approved[_txId][msg.sender] */\n      0xffffffffffffffffffffffffffffffffffffffff\n      and\n      0xffffffffffffffffffffffffffffffffffffffff\n      and\n      dup2\n      mstore\n      0x20\n      add\n      swap1\n      dup2\n      mstore\n      0x20\n      add\n      0x00\n      keccak256\n      0x00\n        /* \"bootcamp/week2/MultiSigWallet.sol\":2538:2572  approved[_txId][msg.sender] = true */\n      0x0100\n      exp\n      dup2\n      sload\n      dup2\n      0xff\n      mul\n      not\n      and\n      swap1\n      dup4\n      iszero\n      iszero\n      mul\n      or\n      swap1\n      sstore\n      pop\n        /* \"bootcamp/week2/MultiSigWallet.sol\":2587:2616  ApprovedTx(msg.sender, _txId) */\n      0x0630c3fc0c5609ba2ac38919291f39d2bb42b0ad44bdf7502458532cf4e0eee9\n        /* \"bootcamp/week2/MultiSigWallet.sol\":2598:2608  msg.sender */\n      caller\n        /* \"bootcamp/week2/MultiSigWallet.sol\":2610:2615  _txId */\n      dup6\n        /* \"bootcamp/week2/MultiSigWallet.sol\":2587:2616  ApprovedTx(msg.sender, _txId) */\n      mload(0x40)\n      tag_74\n      swap3\n      swap2\n      swap1\n      tag_75\n      jump\t// in\n    tag_74:\n      mload(0x40)\n      dup1\n      swap2\n      sub\n      swap1\n      log1\n        /* \"bootcamp/week2/MultiSigWallet.sol\":1368:1369  _ */\n      pop\n        /* \"bootcamp/week2/MultiSigWallet.sol\":1214:1215  _ */\n      pop\n        /* \"bootcamp/week2/MultiSigWallet.sol\":1066:1067  _ */\n      pop\n        /* \"bootcamp/week2/MultiSigWallet.sol\":2376:2623  function approveTx(uint256 _txId) external onlyOwner txExists(_txId) notExecuted(_txId) notApproved(_txId) {... */\n      pop\n      jump\t// out\n        /* \"bootcamp/week2/MultiSigWallet.sol\":564:604  mapping (address => bool) public isOwner */\n    tag_26:\n      mstore(0x20, 0x00)\n      dup1\n      0x00\n      mstore\n      keccak256(0x00, 0x40)\n      0x00\n      swap2\n      pop\n      sload\n      swap1\n      0x0100\n      exp\n      swap1\n      div\n      0xff\n      and\n      dup2\n      jump\t// out\n        /* \"bootcamp/week2/MultiSigWallet.sol\":2629:3104  function executeTx(uint256 _txId) external onlyOwner txExists(_txId) notExecuted(_txId) {... */\n    tag_32:\n        /* \"bootcamp/week2/MultiSigWallet.sol\":994:1001  isOwner */\n      0x00\n        /* \"bootcamp/week2/MultiSigWallet.sol\":994:1013  isOwner[msg.sender] */\n      dup1\n        /* \"bootcamp/week2/MultiSigWallet.sol\":1002:1012  msg.sender */\n      caller\n        /* \"bootcamp/week2/MultiSigWallet.sol\":994:1013  isOwner[msg.sender] */\n      0xffffffffffffffffffffffffffffffffffffffff\n      and\n      0xffffffffffffffffffffffffffffffffffffffff\n      and\n      dup2\n      mstore\n      0x20\n      add\n      swap1\n      dup2\n      mstore\n      0x20\n      add\n      0x00\n      keccak256\n      0x00\n      swap1\n      sload\n      swap1\n      0x0100\n      exp\n      swap1\n      div\n      0xff\n      and\n        /* \"bootcamp/week2/MultiSigWallet.sol\":989:1057  if (!isOwner[msg.sender]) {... */\n      tag_77\n      jumpi\n        /* \"bootcamp/week2/MultiSigWallet.sol\":1036:1046  NotOwner() */\n      mload(0x40)\n      0x30cd747100000000000000000000000000000000000000000000000000000000\n      dup2\n      mstore\n      0x04\n      add\n      mload(0x40)\n      dup1\n      swap2\n      sub\n      swap1\n      revert\n        /* \"bootcamp/week2/MultiSigWallet.sol\":989:1057  if (!isOwner[msg.sender]) {... */\n    tag_77:\n        /* \"bootcamp/week2/MultiSigWallet.sol\":2691:2696  _txId */\n      dup1\n        /* \"bootcamp/week2/MultiSigWallet.sol\":1151:1155  txId */\n      sload(0x04)\n        /* \"bootcamp/week2/MultiSigWallet.sol\":1127:1139  transactions */\n      0x01\n        /* \"bootcamp/week2/MultiSigWallet.sol\":1127:1145  transactions[txId] */\n      0x00\n        /* \"bootcamp/week2/MultiSigWallet.sol\":1140:1144  txId */\n      sload(0x04)\n        /* \"bootcamp/week2/MultiSigWallet.sol\":1127:1145  transactions[txId] */\n      dup2\n      mstore\n      0x20\n      add\n      swap1\n      dup2\n      mstore\n      0x20\n      add\n      0x00\n      keccak256\n        /* \"bootcamp/week2/MultiSigWallet.sol\":1127:1148  transactions[txId].id */\n      0x00\n      add\n      sload\n        /* \"bootcamp/week2/MultiSigWallet.sol\":1127:1155  transactions[txId].id > txId */\n      gt\n        /* \"bootcamp/week2/MultiSigWallet.sol\":1123:1205  if (transactions[txId].id > txId) {... */\n      iszero\n      tag_79\n      jumpi\n        /* \"bootcamp/week2/MultiSigWallet.sol\":1178:1194  txDoesNotExist() */\n      mload(0x40)\n      0xc929b60400000000000000000000000000000000000000000000000000000000\n      dup2\n      mstore\n      0x04\n      add\n      mload(0x40)\n      dup1\n      swap2\n      sub\n      swap1\n      revert\n        /* \"bootcamp/week2/MultiSigWallet.sol\":1123:1205  if (transactions[txId].id > txId) {... */\n    tag_79:\n        /* \"bootcamp/week2/MultiSigWallet.sol\":2710:2715  _txId */\n      dup2\n        /* \"bootcamp/week2/MultiSigWallet.sol\":1278:1290  transactions */\n      0x01\n        /* \"bootcamp/week2/MultiSigWallet.sol\":1278:1297  transactions[_txId] */\n      0x00\n        /* \"bootcamp/week2/MultiSigWallet.sol\":1291:1296  _txId */\n      dup3\n        /* \"bootcamp/week2/MultiSigWallet.sol\":1278:1297  transactions[_txId] */\n      dup2\n      mstore\n      0x20\n      add\n      swap1\n      dup2\n      mstore\n      0x20\n      add\n      0x00\n      keccak256\n        /* \"bootcamp/week2/MultiSigWallet.sol\":1278:1306  transactions[_txId].executed */\n      0x05\n      add\n      0x00\n      swap1\n      sload\n      swap1\n      0x0100\n      exp\n      swap1\n      div\n      0xff\n      and\n        /* \"bootcamp/week2/MultiSigWallet.sol\":1274:1359  if (transactions[_txId].executed) {... */\n      iszero\n      tag_81\n      jumpi\n        /* \"bootcamp/week2/MultiSigWallet.sol\":1329:1348  txAlreadyExecuted() */\n      mload(0x40)\n      0x3ca00aa600000000000000000000000000000000000000000000000000000000\n      dup2\n      mstore\n      0x04\n      add\n      mload(0x40)\n      dup1\n      swap2\n      sub\n      swap1\n      revert\n        /* \"bootcamp/week2/MultiSigWallet.sol\":1274:1359  if (transactions[_txId].executed) {... */\n    tag_81:\n        /* \"bootcamp/week2/MultiSigWallet.sol\":2727:2758  Transaction storage transaction */\n      0x00\n        /* \"bootcamp/week2/MultiSigWallet.sol\":2761:2773  transactions */\n      0x01\n        /* \"bootcamp/week2/MultiSigWallet.sol\":2761:2780  transactions[_txId] */\n      0x00\n        /* \"bootcamp/week2/MultiSigWallet.sol\":2774:2779  _txId */\n      dup6\n        /* \"bootcamp/week2/MultiSigWallet.sol\":2761:2780  transactions[_txId] */\n      dup2\n      mstore\n      0x20\n      add\n      swap1\n      dup2\n      mstore\n      0x20\n      add\n      0x00\n      keccak256\n        /* \"bootcamp/week2/MultiSigWallet.sol\":2727:2780  Transaction storage transaction = transactions[_txId] */\n      swap1\n      pop\n        /* \"bootcamp/week2/MultiSigWallet.sol\":2822:2830  required */\n      sload(0x03)\n        /* \"bootcamp/week2/MultiSigWallet.sol\":2794:2805  transaction */\n      dup2\n        /* \"bootcamp/week2/MultiSigWallet.sol\":2794:2819  transaction.confirmations */\n      0x04\n      add\n      sload\n        /* \"bootcamp/week2/MultiSigWallet.sol\":2794:2830  transaction.confirmations < required */\n      lt\n        /* \"bootcamp/week2/MultiSigWallet.sol\":2790:2895  if (transaction.confirmations < required) {... */\n      iszero\n      tag_83\n      jumpi\n        /* \"bootcamp/week2/MultiSigWallet.sol\":2853:2884  lessThanRequiredConfirmations() */\n      mload(0x40)\n      0xf534d3e100000000000000000000000000000000000000000000000000000000\n      dup2\n      mstore\n      0x04\n      add\n      mload(0x40)\n      dup1\n      swap2\n      sub\n      swap1\n      revert\n        /* \"bootcamp/week2/MultiSigWallet.sol\":2790:2895  if (transaction.confirmations < required) {... */\n    tag_83:\n        /* \"bootcamp/week2/MultiSigWallet.sol\":2927:2931  true */\n      0x01\n        /* \"bootcamp/week2/MultiSigWallet.sol\":2904:2915  transaction */\n      dup2\n        /* \"bootcamp/week2/MultiSigWallet.sol\":2904:2924  transaction.executed */\n      0x05\n      add\n      0x00\n        /* \"bootcamp/week2/MultiSigWallet.sol\":2904:2931  transaction.executed = true */\n      0x0100\n      exp\n      dup2\n      sload\n      dup2\n      0xff\n      mul\n      not\n      and\n      swap1\n      dup4\n      iszero\n      iszero\n      mul\n      or\n      swap1\n      sstore\n      pop\n        /* \"bootcamp/week2/MultiSigWallet.sol\":2942:2954  bool success */\n      0x00\n        /* \"bootcamp/week2/MultiSigWallet.sol\":2968:2979  transaction */\n      dup2\n        /* \"bootcamp/week2/MultiSigWallet.sol\":2968:2982  transaction.to */\n      0x01\n      add\n      0x00\n      swap1\n      sload\n      swap1\n      0x0100\n      exp\n      swap1\n      div\n      0xffffffffffffffffffffffffffffffffffffffff\n      and\n        /* \"bootcamp/week2/MultiSigWallet.sol\":2960:2988  payable(transaction.to).call */\n      0xffffffffffffffffffffffffffffffffffffffff\n      and\n        /* \"bootcamp/week2/MultiSigWallet.sol\":2996:3007  transaction */\n      dup3\n        /* \"bootcamp/week2/MultiSigWallet.sol\":2996:3013  transaction.value */\n      0x02\n      add\n      sload\n        /* \"bootcamp/week2/MultiSigWallet.sol\":3015:3026  transaction */\n      dup4\n        /* \"bootcamp/week2/MultiSigWallet.sol\":3015:3031  transaction.data */\n      0x03\n      add\n        /* \"bootcamp/week2/MultiSigWallet.sol\":2960:3032  payable(transaction.to).call{value: transaction.value}(transaction.data) */\n      mload(0x40)\n      tag_84\n      swap2\n      swap1\n      tag_85\n      jump\t// in\n    tag_84:\n      0x00\n      mload(0x40)\n      dup1\n      dup4\n      sub\n      dup2\n      dup6\n      dup8\n      gas\n      call\n      swap3\n      pop\n      pop\n      pop\n      returndatasize\n      dup1\n      0x00\n      dup2\n      eq\n      tag_88\n      jumpi\n      mload(0x40)\n      swap2\n      pop\n      and(add(returndatasize, 0x3f), not(0x1f))\n      dup3\n      add\n      0x40\n      mstore\n      returndatasize\n      dup3\n      mstore\n      returndatasize\n      0x00\n      0x20\n      dup5\n      add\n      returndatacopy\n      jump(tag_87)\n    tag_88:\n      0x60\n      swap2\n      pop\n    tag_87:\n      pop\n        /* \"bootcamp/week2/MultiSigWallet.sol\":2941:3032  (bool success, ) = payable(transaction.to).call{value: transaction.value}(transaction.data) */\n      pop\n      swap1\n      pop\n        /* \"bootcamp/week2/MultiSigWallet.sol\":3047:3054  success */\n      dup1\n        /* \"bootcamp/week2/MultiSigWallet.sol\":3042:3098  if (!success) {... */\n      tag_89\n      jumpi\n        /* \"bootcamp/week2/MultiSigWallet.sol\":3077:3087  txFailed() */\n      mload(0x40)\n      0xab4a147c00000000000000000000000000000000000000000000000000000000\n      dup2\n      mstore\n      0x04\n      add\n      mload(0x40)\n      dup1\n      swap2\n      sub\n      swap1\n      revert\n        /* \"bootcamp/week2/MultiSigWallet.sol\":3042:3098  if (!success) {... */\n    tag_89:\n        /* \"bootcamp/week2/MultiSigWallet.sol\":2717:3104  {... */\n      pop\n      pop\n        /* \"bootcamp/week2/MultiSigWallet.sol\":1214:1215  _ */\n      pop\n        /* \"bootcamp/week2/MultiSigWallet.sol\":1066:1067  _ */\n      pop\n        /* \"bootcamp/week2/MultiSigWallet.sol\":2629:3104  function executeTx(uint256 _txId) external onlyOwner txExists(_txId) notExecuted(_txId) {... */\n      pop\n      jump\t// out\n        /* \"bootcamp/week2/MultiSigWallet.sol\":3110:3471  function revokeTx(uint256 _txId) external onlyOwner txExists(_txId) notExecuted(_txId) {... */\n    tag_36:\n        /* \"bootcamp/week2/MultiSigWallet.sol\":994:1001  isOwner */\n      0x00\n        /* \"bootcamp/week2/MultiSigWallet.sol\":994:1013  isOwner[msg.sender] */\n      dup1\n        /* \"bootcamp/week2/MultiSigWallet.sol\":1002:1012  msg.sender */\n      caller\n        /* \"bootcamp/week2/MultiSigWallet.sol\":994:1013  isOwner[msg.sender] */\n      0xffffffffffffffffffffffffffffffffffffffff\n      and\n      0xffffffffffffffffffffffffffffffffffffffff\n      and\n      dup2\n      mstore\n      0x20\n      add\n      swap1\n      dup2\n      mstore\n      0x20\n      add\n      0x00\n      keccak256\n      0x00\n      swap1\n      sload\n      swap1\n      0x0100\n      exp\n      swap1\n      div\n      0xff\n      and\n        /* \"bootcamp/week2/MultiSigWallet.sol\":989:1057  if (!isOwner[msg.sender]) {... */\n      tag_91\n      jumpi\n        /* \"bootcamp/week2/MultiSigWallet.sol\":1036:1046  NotOwner() */\n      mload(0x40)\n      0x30cd747100000000000000000000000000000000000000000000000000000000\n      dup2\n      mstore\n      0x04\n      add\n      mload(0x40)\n      dup1\n      swap2\n      sub\n      swap1\n      revert\n        /* \"bootcamp/week2/MultiSigWallet.sol\":989:1057  if (!isOwner[msg.sender]) {... */\n    tag_91:\n        /* \"bootcamp/week2/MultiSigWallet.sol\":3171:3176  _txId */\n      dup1\n        /* \"bootcamp/week2/MultiSigWallet.sol\":1151:1155  txId */\n      sload(0x04)\n        /* \"bootcamp/week2/MultiSigWallet.sol\":1127:1139  transactions */\n      0x01\n        /* \"bootcamp/week2/MultiSigWallet.sol\":1127:1145  transactions[txId] */\n      0x00\n        /* \"bootcamp/week2/MultiSigWallet.sol\":1140:1144  txId */\n      sload(0x04)\n        /* \"bootcamp/week2/MultiSigWallet.sol\":1127:1145  transactions[txId] */\n      dup2\n      mstore\n      0x20\n      add\n      swap1\n      dup2\n      mstore\n      0x20\n      add\n      0x00\n      keccak256\n        /* \"bootcamp/week2/MultiSigWallet.sol\":1127:1148  transactions[txId].id */\n      0x00\n      add\n      sload\n        /* \"bootcamp/week2/MultiSigWallet.sol\":1127:1155  transactions[txId].id > txId */\n      gt\n        /* \"bootcamp/week2/MultiSigWallet.sol\":1123:1205  if (transactions[txId].id > txId) {... */\n      iszero\n      tag_93\n      jumpi\n        /* \"bootcamp/week2/MultiSigWallet.sol\":1178:1194  txDoesNotExist() */\n      mload(0x40)\n      0xc929b60400000000000000000000000000000000000000000000000000000000\n      dup2\n      mstore\n      0x04\n      add\n      mload(0x40)\n      dup1\n      swap2\n      sub\n      swap1\n      revert\n        /* \"bootcamp/week2/MultiSigWallet.sol\":1123:1205  if (transactions[txId].id > txId) {... */\n    tag_93:\n        /* \"bootcamp/week2/MultiSigWallet.sol\":3190:3195  _txId */\n      dup2\n        /* \"bootcamp/week2/MultiSigWallet.sol\":1278:1290  transactions */\n      0x01\n        /* \"bootcamp/week2/MultiSigWallet.sol\":1278:1297  transactions[_txId] */\n      0x00\n        /* \"bootcamp/week2/MultiSigWallet.sol\":1291:1296  _txId */\n      dup3\n        /* \"bootcamp/week2/MultiSigWallet.sol\":1278:1297  transactions[_txId] */\n      dup2\n      mstore\n      0x20\n      add\n      swap1\n      dup2\n      mstore\n      0x20\n      add\n      0x00\n      keccak256\n        /* \"bootcamp/week2/MultiSigWallet.sol\":1278:1306  transactions[_txId].executed */\n      0x05\n      add\n      0x00\n      swap1\n      sload\n      swap1\n      0x0100\n      exp\n      swap1\n      div\n      0xff\n      and\n        /* \"bootcamp/week2/MultiSigWallet.sol\":1274:1359  if (transactions[_txId].executed) {... */\n      iszero\n      tag_95\n      jumpi\n        /* \"bootcamp/week2/MultiSigWallet.sol\":1329:1348  txAlreadyExecuted() */\n      mload(0x40)\n      0x3ca00aa600000000000000000000000000000000000000000000000000000000\n      dup2\n      mstore\n      0x04\n      add\n      mload(0x40)\n      dup1\n      swap2\n      sub\n      swap1\n      revert\n        /* \"bootcamp/week2/MultiSigWallet.sol\":1274:1359  if (transactions[_txId].executed) {... */\n    tag_95:\n        /* \"bootcamp/week2/MultiSigWallet.sol\":3210:3218  approved */\n      0x02\n        /* \"bootcamp/week2/MultiSigWallet.sol\":3210:3225  approved[_txId] */\n      0x00\n        /* \"bootcamp/week2/MultiSigWallet.sol\":3219:3224  _txId */\n      dup5\n        /* \"bootcamp/week2/MultiSigWallet.sol\":3210:3225  approved[_txId] */\n      dup2\n      mstore\n      0x20\n      add\n      swap1\n      dup2\n      mstore\n      0x20\n      add\n      0x00\n      keccak256\n        /* \"bootcamp/week2/MultiSigWallet.sol\":3210:3237  approved[_txId][msg.sender] */\n      0x00\n        /* \"bootcamp/week2/MultiSigWallet.sol\":3226:3236  msg.sender */\n      caller\n        /* \"bootcamp/week2/MultiSigWallet.sol\":3210:3237  approved[_txId][msg.sender] */\n      0xffffffffffffffffffffffffffffffffffffffff\n      and\n      0xffffffffffffffffffffffffffffffffffffffff\n      and\n      dup2\n      mstore\n      0x20\n      add\n      swap1\n      dup2\n      mstore\n      0x20\n      add\n      0x00\n      keccak256\n      0x00\n      swap1\n      sload\n      swap1\n      0x0100\n      exp\n      swap1\n      div\n      0xff\n      and\n        /* \"bootcamp/week2/MultiSigWallet.sol\":3207:3465  if(approved[_txId][msg.sender]) {... */\n      iszero\n      tag_97\n      jumpi\n        /* \"bootcamp/week2/MultiSigWallet.sol\":3283:3288  false */\n      0x00\n        /* \"bootcamp/week2/MultiSigWallet.sol\":3253:3261  approved */\n      0x02\n        /* \"bootcamp/week2/MultiSigWallet.sol\":3253:3268  approved[_txId] */\n      0x00\n        /* \"bootcamp/week2/MultiSigWallet.sol\":3262:3267  _txId */\n      dup6\n        /* \"bootcamp/week2/MultiSigWallet.sol\":3253:3268  approved[_txId] */\n      dup2\n      mstore\n      0x20\n      add\n      swap1\n      dup2\n      mstore\n      0x20\n      add\n      0x00\n      keccak256\n        /* \"bootcamp/week2/MultiSigWallet.sol\":3253:3280  approved[_txId][msg.sender] */\n      0x00\n        /* \"bootcamp/week2/MultiSigWallet.sol\":3269:3279  msg.sender */\n      caller\n        /* \"bootcamp/week2/MultiSigWallet.sol\":3253:3280  approved[_txId][msg.sender] */\n      0xffffffffffffffffffffffffffffffffffffffff\n      and\n      0xffffffffffffffffffffffffffffffffffffffff\n      and\n      dup2\n      mstore\n      0x20\n      add\n      swap1\n      dup2\n      mstore\n      0x20\n      add\n      0x00\n      keccak256\n      0x00\n        /* \"bootcamp/week2/MultiSigWallet.sol\":3253:3288  approved[_txId][msg.sender] = false */\n      0x0100\n      exp\n      dup2\n      sload\n      dup2\n      0xff\n      mul\n      not\n      and\n      swap1\n      dup4\n      iszero\n      iszero\n      mul\n      or\n      swap1\n      sstore\n      pop\n        /* \"bootcamp/week2/MultiSigWallet.sol\":3302:3314  transactions */\n      0x01\n        /* \"bootcamp/week2/MultiSigWallet.sol\":3302:3321  transactions[_txId] */\n      0x00\n        /* \"bootcamp/week2/MultiSigWallet.sol\":3315:3320  _txId */\n      dup5\n        /* \"bootcamp/week2/MultiSigWallet.sol\":3302:3321  transactions[_txId] */\n      dup2\n      mstore\n      0x20\n      add\n      swap1\n      dup2\n      mstore\n      0x20\n      add\n      0x00\n      keccak256\n        /* \"bootcamp/week2/MultiSigWallet.sol\":3302:3335  transactions[_txId].confirmations */\n      0x04\n      add\n      0x00\n        /* \"bootcamp/week2/MultiSigWallet.sol\":3302:3338  transactions[_txId].confirmations -- */\n      dup2\n      sload\n      dup1\n      swap3\n      swap2\n      swap1\n      tag_98\n      swap1\n      tag_99\n      jump\t// in\n    tag_98:\n      swap2\n      swap1\n      pop\n      sstore\n      pop\n        /* \"bootcamp/week2/MultiSigWallet.sol\":3357:3391  RevokedApproval(msg.sender, _txId) */\n      0x8ac0ec85d3817644471cdaff11fb456b57808050d06be464ecb80960c6970826\n        /* \"bootcamp/week2/MultiSigWallet.sol\":3373:3383  msg.sender */\n      caller\n        /* \"bootcamp/week2/MultiSigWallet.sol\":3385:3390  _txId */\n      dup5\n        /* \"bootcamp/week2/MultiSigWallet.sol\":3357:3391  RevokedApproval(msg.sender, _txId) */\n      mload(0x40)\n      tag_100\n      swap3\n      swap2\n      swap1\n      tag_75\n      jump\t// in\n    tag_100:\n      mload(0x40)\n      dup1\n      swap2\n      sub\n      swap1\n      log1\n        /* \"bootcamp/week2/MultiSigWallet.sol\":3207:3465  if(approved[_txId][msg.sender]) {... */\n      jump(tag_101)\n    tag_97:\n        /* \"bootcamp/week2/MultiSigWallet.sol\":3429:3454  OwnerNotAlreadyApproved() */\n      mload(0x40)\n      0x2e5f286200000000000000000000000000000000000000000000000000000000\n      dup2\n      mstore\n      0x04\n      add\n      mload(0x40)\n      dup1\n      swap2\n      sub\n      swap1\n      revert\n        /* \"bootcamp/week2/MultiSigWallet.sol\":3207:3465  if(approved[_txId][msg.sender]) {... */\n    tag_101:\n        /* \"bootcamp/week2/MultiSigWallet.sol\":1214:1215  _ */\n      pop\n        /* \"bootcamp/week2/MultiSigWallet.sol\":1066:1067  _ */\n      pop\n        /* \"bootcamp/week2/MultiSigWallet.sol\":3110:3471  function revokeTx(uint256 _txId) external onlyOwner txExists(_txId) notExecuted(_txId) {... */\n      pop\n      jump\t// out\n        /* \"bootcamp/week2/MultiSigWallet.sol\":837:897  mapping(uint256 => mapping(address => bool)) public approved */\n    tag_41:\n      mstore(0x20, 0x02)\n      dup2\n      0x00\n      mstore\n      mstore(0x20, keccak256(0x00, 0x40))\n      dup1\n      0x00\n      mstore\n      keccak256(0x00, 0x40)\n      0x00\n      swap2\n      pop\n      swap2\n      pop\n      swap1\n      sload\n      swap1\n      0x0100\n      exp\n      swap1\n      div\n      0xff\n      and\n      dup2\n      jump\t// out\n        /* \"bootcamp/week2/MultiSigWallet.sol\":780:831  mapping(uint256 => Transaction) public transactions */\n    tag_46:\n      mstore(0x20, 0x01)\n      dup1\n      0x00\n      mstore\n      keccak256(0x00, 0x40)\n      0x00\n      swap2\n      pop\n      swap1\n      pop\n      dup1\n      0x00\n      add\n      sload\n      swap1\n      dup1\n      0x01\n      add\n      0x00\n      swap1\n      sload\n      swap1\n      0x0100\n      exp\n      swap1\n      div\n      0xffffffffffffffffffffffffffffffffffffffff\n      and\n      swap1\n      dup1\n      0x02\n      add\n      sload\n      swap1\n      dup1\n      0x03\n      add\n      dup1\n      sload\n      tag_102\n      swap1\n      tag_103\n      jump\t// in\n    tag_102:\n      dup1\n      0x1f\n      add\n      0x20\n      dup1\n      swap2\n      div\n      mul\n      0x20\n      add\n      mload(0x40)\n      swap1\n      dup2\n      add\n      0x40\n      mstore\n      dup1\n      swap3\n      swap2\n      swap1\n      dup2\n      dup2\n      mstore\n      0x20\n      add\n      dup3\n      dup1\n      sload\n      tag_104\n      swap1\n      tag_103\n      jump\t// in\n    tag_104:\n      dup1\n      iszero\n      tag_105\n      jumpi\n      dup1\n      0x1f\n      lt\n      tag_106\n      jumpi\n      0x0100\n      dup1\n      dup4\n      sload\n      div\n      mul\n      dup4\n      mstore\n      swap2\n      0x20\n      add\n      swap2\n      jump(tag_105)\n    tag_106:\n      dup3\n      add\n      swap2\n      swap1\n      0x00\n      mstore\n      keccak256(0x00, 0x20)\n      swap1\n    tag_107:\n      dup2\n      sload\n      dup2\n      mstore\n      swap1\n      0x01\n      add\n      swap1\n      0x20\n      add\n      dup1\n      dup4\n      gt\n      tag_107\n      jumpi\n      dup3\n      swap1\n      sub\n      0x1f\n      and\n      dup3\n      add\n      swap2\n    tag_105:\n      pop\n      pop\n      pop\n      pop\n      pop\n      swap1\n      dup1\n      0x04\n      add\n      sload\n      swap1\n      dup1\n      0x05\n      add\n      0x00\n      swap1\n      sload\n      swap1\n      0x0100\n      exp\n      swap1\n      div\n      0xff\n      and\n      swap1\n      pop\n      dup7\n      jump\t// out\n        /* \"bootcamp/week2/MultiSigWallet.sol\":2022:2370  function submitTx(address _to, uint256 _value, bytes memory _data) external onlyOwner {... */\n    tag_53:\n        /* \"bootcamp/week2/MultiSigWallet.sol\":994:1001  isOwner */\n      0x00\n        /* \"bootcamp/week2/MultiSigWallet.sol\":994:1013  isOwner[msg.sender] */\n      dup1\n        /* \"bootcamp/week2/MultiSigWallet.sol\":1002:1012  msg.sender */\n      caller\n        /* \"bootcamp/week2/MultiSigWallet.sol\":994:1013  isOwner[msg.sender] */\n      0xffffffffffffffffffffffffffffffffffffffff\n      and\n      0xffffffffffffffffffffffffffffffffffffffff\n      and\n      dup2\n      mstore\n      0x20\n      add\n      swap1\n      dup2\n      mstore\n      0x20\n      add\n      0x00\n      keccak256\n      0x00\n      swap1\n      sload\n      swap1\n      0x0100\n      exp\n      swap1\n      div\n      0xff\n      and\n        /* \"bootcamp/week2/MultiSigWallet.sol\":989:1057  if (!isOwner[msg.sender]) {... */\n      tag_109\n      jumpi\n        /* \"bootcamp/week2/MultiSigWallet.sol\":1036:1046  NotOwner() */\n      mload(0x40)\n      0x30cd747100000000000000000000000000000000000000000000000000000000\n      dup2\n      mstore\n      0x04\n      add\n      mload(0x40)\n      dup1\n      swap2\n      sub\n      swap1\n      revert\n        /* \"bootcamp/week2/MultiSigWallet.sol\":989:1057  if (!isOwner[msg.sender]) {... */\n    tag_109:\n        /* \"bootcamp/week2/MultiSigWallet.sol\":2118:2149  Transaction storage transaction */\n      0x00\n        /* \"bootcamp/week2/MultiSigWallet.sol\":2152:2164  transactions */\n      0x01\n        /* \"bootcamp/week2/MultiSigWallet.sol\":2152:2170  transactions[txId] */\n      0x00\n        /* \"bootcamp/week2/MultiSigWallet.sol\":2165:2169  txId */\n      sload(0x04)\n        /* \"bootcamp/week2/MultiSigWallet.sol\":2152:2170  transactions[txId] */\n      dup2\n      mstore\n      0x20\n      add\n      swap1\n      dup2\n      mstore\n      0x20\n      add\n      0x00\n      keccak256\n        /* \"bootcamp/week2/MultiSigWallet.sol\":2118:2170  Transaction storage transaction = transactions[txId] */\n      swap1\n      pop\n        /* \"bootcamp/week2/MultiSigWallet.sol\":2197:2201  txId */\n      sload(0x04)\n        /* \"bootcamp/week2/MultiSigWallet.sol\":2180:2191  transaction */\n      dup2\n        /* \"bootcamp/week2/MultiSigWallet.sol\":2180:2194  transaction.id */\n      0x00\n      add\n        /* \"bootcamp/week2/MultiSigWallet.sol\":2180:2201  transaction.id = txId */\n      dup2\n      swap1\n      sstore\n      pop\n        /* \"bootcamp/week2/MultiSigWallet.sol\":2228:2231  _to */\n      dup4\n        /* \"bootcamp/week2/MultiSigWallet.sol\":2211:2222  transaction */\n      dup2\n        /* \"bootcamp/week2/MultiSigWallet.sol\":2211:2225  transaction.to */\n      0x01\n      add\n      0x00\n        /* \"bootcamp/week2/MultiSigWallet.sol\":2211:2231  transaction.to = _to */\n      0x0100\n      exp\n      dup2\n      sload\n      dup2\n      0xffffffffffffffffffffffffffffffffffffffff\n      mul\n      not\n      and\n      swap1\n      dup4\n      0xffffffffffffffffffffffffffffffffffffffff\n      and\n      mul\n      or\n      swap1\n      sstore\n      pop\n        /* \"bootcamp/week2/MultiSigWallet.sol\":2261:2267  _value */\n      dup3\n        /* \"bootcamp/week2/MultiSigWallet.sol\":2241:2252  transaction */\n      dup2\n        /* \"bootcamp/week2/MultiSigWallet.sol\":2241:2258  transaction.value */\n      0x02\n      add\n        /* \"bootcamp/week2/MultiSigWallet.sol\":2241:2267  transaction.value = _value */\n      dup2\n      swap1\n      sstore\n      pop\n        /* \"bootcamp/week2/MultiSigWallet.sol\":2296:2301  _data */\n      dup2\n        /* \"bootcamp/week2/MultiSigWallet.sol\":2277:2288  transaction */\n      dup2\n        /* \"bootcamp/week2/MultiSigWallet.sol\":2277:2293  transaction.data */\n      0x03\n      add\n        /* \"bootcamp/week2/MultiSigWallet.sol\":2277:2301  transaction.data = _data */\n      swap1\n      dup1\n      mload\n      swap1\n      0x20\n      add\n      swap1\n      tag_111\n      swap3\n      swap2\n      swap1\n      tag_112\n      jump\t// in\n    tag_111:\n      pop\n        /* \"bootcamp/week2/MultiSigWallet.sol\":2311:2315  txId */\n      0x04\n      0x00\n        /* \"bootcamp/week2/MultiSigWallet.sol\":2311:2317  txId++ */\n      dup2\n      sload\n      dup1\n      swap3\n      swap2\n      swap1\n      tag_113\n      swap1\n      tag_73\n      jump\t// in\n    tag_113:\n      swap2\n      swap1\n      pop\n      sstore\n      pop\n        /* \"bootcamp/week2/MultiSigWallet.sol\":2332:2363  SubmittedTx(_to, _value, _data) */\n      0x315d8bf6c6d36a1411ee3d8d607b26df37940936bd273e006857a296fbac2ce8\n        /* \"bootcamp/week2/MultiSigWallet.sol\":2344:2347  _to */\n      dup5\n        /* \"bootcamp/week2/MultiSigWallet.sol\":2349:2355  _value */\n      dup5\n        /* \"bootcamp/week2/MultiSigWallet.sol\":2357:2362  _data */\n      dup5\n        /* \"bootcamp/week2/MultiSigWallet.sol\":2332:2363  SubmittedTx(_to, _value, _data) */\n      mload(0x40)\n      tag_114\n      swap4\n      swap3\n      swap2\n      swap1\n      tag_115\n      jump\t// in\n    tag_114:\n      mload(0x40)\n      dup1\n      swap2\n      sub\n      swap1\n      log1\n        /* \"bootcamp/week2/MultiSigWallet.sol\":2108:2370  {... */\n      pop\n        /* \"bootcamp/week2/MultiSigWallet.sol\":2022:2370  function submitTx(address _to, uint256 _value, bytes memory _data) external onlyOwner {... */\n      pop\n      pop\n      pop\n      jump\t// out\n        /* \"bootcamp/week2/MultiSigWallet.sol\":932:951  uint256 public txId */\n    tag_56:\n      sload(0x04)\n      dup2\n      jump\t// out\n        /* \"bootcamp/week2/MultiSigWallet.sol\":903:926  uint256 public required */\n    tag_61:\n      sload(0x03)\n      dup2\n      jump\t// out\n    tag_112:\n      dup3\n      dup1\n      sload\n      tag_116\n      swap1\n      tag_103\n      jump\t// in\n    tag_116:\n      swap1\n      0x00\n      mstore\n      keccak256(0x00, 0x20)\n      swap1\n      0x1f\n      add\n      0x20\n      swap1\n      div\n      dup2\n      add\n      swap3\n      dup3\n      tag_118\n      jumpi\n      0x00\n      dup6\n      sstore\n      jump(tag_117)\n    tag_118:\n      dup3\n      0x1f\n      lt\n      tag_119\n      jumpi\n      dup1\n      mload\n      not(0xff)\n      and\n      dup4\n      dup1\n      add\n      or\n      dup6\n      sstore\n      jump(tag_117)\n    tag_119:\n      dup3\n      dup1\n      add\n      0x01\n      add\n      dup6\n      sstore\n      dup3\n      iszero\n      tag_117\n      jumpi\n      swap2\n      dup3\n      add\n    tag_120:\n      dup3\n      dup2\n      gt\n      iszero\n      tag_121\n      jumpi\n      dup3\n      mload\n      dup3\n      sstore\n      swap2\n      0x20\n      add\n      swap2\n      swap1\n      0x01\n      add\n      swap1\n      jump(tag_120)\n    tag_121:\n    tag_117:\n      pop\n      swap1\n      pop\n      tag_122\n      swap2\n      swap1\n      tag_123\n      jump\t// in\n    tag_122:\n      pop\n      swap1\n      jump\t// out\n    tag_123:\n    tag_124:\n      dup1\n      dup3\n      gt\n      iszero\n      tag_125\n      jumpi\n      0x00\n      dup2\n      0x00\n      swap1\n      sstore\n      pop\n      0x01\n      add\n      jump(tag_124)\n    tag_125:\n      pop\n      swap1\n      jump\t// out\n        /* \"#utility.yul\":7:417   */\n    tag_127:\n        /* \"#utility.yul\":84:89   */\n      0x00\n        /* \"#utility.yul\":109:174   */\n      tag_129\n        /* \"#utility.yul\":125:173   */\n      tag_130\n        /* \"#utility.yul\":166:172   */\n      dup5\n        /* \"#utility.yul\":125:173   */\n      tag_131\n      jump\t// in\n    tag_130:\n        /* \"#utility.yul\":109:174   */\n      tag_132\n      jump\t// in\n    tag_129:\n        /* \"#utility.yul\":100:174   */\n      swap1\n      pop\n        /* \"#utility.yul\":197:203   */\n      dup3\n        /* \"#utility.yul\":190:195   */\n      dup2\n        /* \"#utility.yul\":183:204   */\n      mstore\n        /* \"#utility.yul\":235:239   */\n      0x20\n        /* \"#utility.yul\":228:233   */\n      dup2\n        /* \"#utility.yul\":224:240   */\n      add\n        /* \"#utility.yul\":273:276   */\n      dup5\n        /* \"#utility.yul\":264:270   */\n      dup5\n        /* \"#utility.yul\":259:262   */\n      dup5\n        /* \"#utility.yul\":255:271   */\n      add\n        /* \"#utility.yul\":252:277   */\n      gt\n        /* \"#utility.yul\":249:361   */\n      iszero\n      tag_133\n      jumpi\n        /* \"#utility.yul\":280:359   */\n      tag_134\n      tag_135\n      jump\t// in\n    tag_134:\n        /* \"#utility.yul\":249:361   */\n    tag_133:\n        /* \"#utility.yul\":370:411   */\n      tag_136\n        /* \"#utility.yul\":404:410   */\n      dup5\n        /* \"#utility.yul\":399:402   */\n      dup3\n        /* \"#utility.yul\":394:397   */\n      dup6\n        /* \"#utility.yul\":370:411   */\n      tag_137\n      jump\t// in\n    tag_136:\n        /* \"#utility.yul\":90:417   */\n      pop\n        /* \"#utility.yul\":7:417   */\n      swap4\n      swap3\n      pop\n      pop\n      pop\n      jump\t// out\n        /* \"#utility.yul\":423:562   */\n    tag_138:\n        /* \"#utility.yul\":469:474   */\n      0x00\n        /* \"#utility.yul\":507:513   */\n      dup2\n        /* \"#utility.yul\":494:514   */\n      calldataload\n        /* \"#utility.yul\":485:514   */\n      swap1\n      pop\n        /* \"#utility.yul\":523:556   */\n      tag_140\n        /* \"#utility.yul\":550:555   */\n      dup2\n        /* \"#utility.yul\":523:556   */\n      tag_141\n      jump\t// in\n    tag_140:\n        /* \"#utility.yul\":423:562   */\n      swap3\n      swap2\n      pop\n      pop\n      jump\t// out\n        /* \"#utility.yul\":581:919   */\n    tag_142:\n        /* \"#utility.yul\":636:641   */\n      0x00\n        /* \"#utility.yul\":685:688   */\n      dup3\n        /* \"#utility.yul\":678:682   */\n      0x1f\n        /* \"#utility.yul\":670:676   */\n      dup4\n        /* \"#utility.yul\":666:683   */\n      add\n        /* \"#utility.yul\":662:689   */\n      slt\n        /* \"#utility.yul\":652:774   */\n      tag_144\n      jumpi\n        /* \"#utility.yul\":693:772   */\n      tag_145\n      tag_146\n      jump\t// in\n    tag_145:\n        /* \"#utility.yul\":652:774   */\n    tag_144:\n        /* \"#utility.yul\":810:816   */\n      dup2\n        /* \"#utility.yul\":797:817   */\n      calldataload\n        /* \"#utility.yul\":835:913   */\n      tag_147\n        /* \"#utility.yul\":909:912   */\n      dup5\n        /* \"#utility.yul\":901:907   */\n      dup3\n        /* \"#utility.yul\":894:898   */\n      0x20\n        /* \"#utility.yul\":886:892   */\n      dup7\n        /* \"#utility.yul\":882:899   */\n      add\n        /* \"#utility.yul\":835:913   */\n      tag_127\n      jump\t// in\n    tag_147:\n        /* \"#utility.yul\":826:913   */\n      swap2\n      pop\n        /* \"#utility.yul\":642:919   */\n      pop\n        /* \"#utility.yul\":581:919   */\n      swap3\n      swap2\n      pop\n      pop\n      jump\t// out\n        /* \"#utility.yul\":925:1064   */\n    tag_148:\n        /* \"#utility.yul\":971:976   */\n      0x00\n        /* \"#utility.yul\":1009:1015   */\n      dup2\n        /* \"#utility.yul\":996:1016   */\n      calldataload\n        /* \"#utility.yul\":987:1016   */\n      swap1\n      pop\n        /* \"#utility.yul\":1025:1058   */\n      tag_150\n        /* \"#utility.yul\":1052:1057   */\n      dup2\n        /* \"#utility.yul\":1025:1058   */\n      tag_151\n      jump\t// in\n    tag_150:\n        /* \"#utility.yul\":925:1064   */\n      swap3\n      swap2\n      pop\n      pop\n      jump\t// out\n        /* \"#utility.yul\":1070:1399   */\n    tag_25:\n        /* \"#utility.yul\":1129:1135   */\n      0x00\n        /* \"#utility.yul\":1178:1180   */\n      0x20\n        /* \"#utility.yul\":1166:1175   */\n      dup3\n        /* \"#utility.yul\":1157:1164   */\n      dup5\n        /* \"#utility.yul\":1153:1176   */\n      sub\n        /* \"#utility.yul\":1149:1181   */\n      slt\n        /* \"#utility.yul\":1146:1265   */\n      iszero\n      tag_153\n      jumpi\n        /* \"#utility.yul\":1184:1263   */\n      tag_154\n      tag_155\n      jump\t// in\n    tag_154:\n        /* \"#utility.yul\":1146:1265   */\n    tag_153:\n        /* \"#utility.yul\":1304:1305   */\n      0x00\n        /* \"#utility.yul\":1329:1382   */\n      tag_156\n        /* \"#utility.yul\":1374:1381   */\n      dup5\n        /* \"#utility.yul\":1365:1371   */\n      dup3\n        /* \"#utility.yul\":1354:1363   */\n      dup6\n        /* \"#utility.yul\":1350:1372   */\n      add\n        /* \"#utility.yul\":1329:1382   */\n      tag_138\n      jump\t// in\n    tag_156:\n        /* \"#utility.yul\":1319:1382   */\n      swap2\n      pop\n        /* \"#utility.yul\":1275:1392   */\n      pop\n        /* \"#utility.yul\":1070:1399   */\n      swap3\n      swap2\n      pop\n      pop\n      jump\t// out\n        /* \"#utility.yul\":1405:2202   */\n    tag_52:\n        /* \"#utility.yul\":1491:1497   */\n      0x00\n        /* \"#utility.yul\":1499:1505   */\n      dup1\n        /* \"#utility.yul\":1507:1513   */\n      0x00\n        /* \"#utility.yul\":1556:1558   */\n      0x60\n        /* \"#utility.yul\":1544:1553   */\n      dup5\n        /* \"#utility.yul\":1535:1542   */\n      dup7\n        /* \"#utility.yul\":1531:1554   */\n      sub\n        /* \"#utility.yul\":1527:1559   */\n      slt\n        /* \"#utility.yul\":1524:1643   */\n      iszero\n      tag_158\n      jumpi\n        /* \"#utility.yul\":1562:1641   */\n      tag_159\n      tag_155\n      jump\t// in\n    tag_159:\n        /* \"#utility.yul\":1524:1643   */\n    tag_158:\n        /* \"#utility.yul\":1682:1683   */\n      0x00\n        /* \"#utility.yul\":1707:1760   */\n      tag_160\n        /* \"#utility.yul\":1752:1759   */\n      dup7\n        /* \"#utility.yul\":1743:1749   */\n      dup3\n        /* \"#utility.yul\":1732:1741   */\n      dup8\n        /* \"#utility.yul\":1728:1750   */\n      add\n        /* \"#utility.yul\":1707:1760   */\n      tag_138\n      jump\t// in\n    tag_160:\n        /* \"#utility.yul\":1697:1760   */\n      swap4\n      pop\n        /* \"#utility.yul\":1653:1770   */\n      pop\n        /* \"#utility.yul\":1809:1811   */\n      0x20\n        /* \"#utility.yul\":1835:1888   */\n      tag_161\n        /* \"#utility.yul\":1880:1887   */\n      dup7\n        /* \"#utility.yul\":1871:1877   */\n      dup3\n        /* \"#utility.yul\":1860:1869   */\n      dup8\n        /* \"#utility.yul\":1856:1878   */\n      add\n        /* \"#utility.yul\":1835:1888   */\n      tag_148\n      jump\t// in\n    tag_161:\n        /* \"#utility.yul\":1825:1888   */\n      swap3\n      pop\n        /* \"#utility.yul\":1780:1898   */\n      pop\n        /* \"#utility.yul\":1965:1967   */\n      0x40\n        /* \"#utility.yul\":1954:1963   */\n      dup5\n        /* \"#utility.yul\":1950:1968   */\n      add\n        /* \"#utility.yul\":1937:1969   */\n      calldataload\n        /* \"#utility.yul\":1996:2014   */\n      0xffffffffffffffff\n        /* \"#utility.yul\":1988:1994   */\n      dup2\n        /* \"#utility.yul\":1985:2015   */\n      gt\n        /* \"#utility.yul\":1982:2099   */\n      iszero\n      tag_162\n      jumpi\n        /* \"#utility.yul\":2018:2097   */\n      tag_163\n      tag_164\n      jump\t// in\n    tag_163:\n        /* \"#utility.yul\":1982:2099   */\n    tag_162:\n        /* \"#utility.yul\":2123:2185   */\n      tag_165\n        /* \"#utility.yul\":2177:2184   */\n      dup7\n        /* \"#utility.yul\":2168:2174   */\n      dup3\n        /* \"#utility.yul\":2157:2166   */\n      dup8\n        /* \"#utility.yul\":2153:2175   */\n      add\n        /* \"#utility.yul\":2123:2185   */\n      tag_142\n      jump\t// in\n    tag_165:\n        /* \"#utility.yul\":2113:2185   */\n      swap2\n      pop\n        /* \"#utility.yul\":1908:2195   */\n      pop\n        /* \"#utility.yul\":1405:2202   */\n      swap3\n      pop\n      swap3\n      pop\n      swap3\n      jump\t// out\n        /* \"#utility.yul\":2208:2537   */\n    tag_20:\n        /* \"#utility.yul\":2267:2273   */\n      0x00\n        /* \"#utility.yul\":2316:2318   */\n      0x20\n        /* \"#utility.yul\":2304:2313   */\n      dup3\n        /* \"#utility.yul\":2295:2302   */\n      dup5\n        /* \"#utility.yul\":2291:2314   */\n      sub\n        /* \"#utility.yul\":2287:2319   */\n      slt\n        /* \"#utility.yul\":2284:2403   */\n      iszero\n      tag_167\n      jumpi\n        /* \"#utility.yul\":2322:2401   */\n      tag_168\n      tag_155\n      jump\t// in\n    tag_168:\n        /* \"#utility.yul\":2284:2403   */\n    tag_167:\n        /* \"#utility.yul\":2442:2443   */\n      0x00\n        /* \"#utility.yul\":2467:2520   */\n      tag_169\n        /* \"#utility.yul\":2512:2519   */\n      dup5\n        /* \"#utility.yul\":2503:2509   */\n      dup3\n        /* \"#utility.yul\":2492:2501   */\n      dup6\n        /* \"#utility.yul\":2488:2510   */\n      add\n        /* \"#utility.yul\":2467:2520   */\n      tag_148\n      jump\t// in\n    tag_169:\n        /* \"#utility.yul\":2457:2520   */\n      swap2\n      pop\n        /* \"#utility.yul\":2413:2530   */\n      pop\n        /* \"#utility.yul\":2208:2537   */\n      swap3\n      swap2\n      pop\n      pop\n      jump\t// out\n        /* \"#utility.yul\":2543:3017   */\n    tag_40:\n        /* \"#utility.yul\":2611:2617   */\n      0x00\n        /* \"#utility.yul\":2619:2625   */\n      dup1\n        /* \"#utility.yul\":2668:2670   */\n      0x40\n        /* \"#utility.yul\":2656:2665   */\n      dup4\n        /* \"#utility.yul\":2647:2654   */\n      dup6\n        /* \"#utility.yul\":2643:2666   */\n      sub\n        /* \"#utility.yul\":2639:2671   */\n      slt\n        /* \"#utility.yul\":2636:2755   */\n      iszero\n      tag_171\n      jumpi\n        /* \"#utility.yul\":2674:2753   */\n      tag_172\n      tag_155\n      jump\t// in\n    tag_172:\n        /* \"#utility.yul\":2636:2755   */\n    tag_171:\n        /* \"#utility.yul\":2794:2795   */\n      0x00\n        /* \"#utility.yul\":2819:2872   */\n      tag_173\n        /* \"#utility.yul\":2864:2871   */\n      dup6\n        /* \"#utility.yul\":2855:2861   */\n      dup3\n        /* \"#utility.yul\":2844:2853   */\n      dup7\n        /* \"#utility.yul\":2840:2862   */\n      add\n        /* \"#utility.yul\":2819:2872   */\n      tag_148\n      jump\t// in\n    tag_173:\n        /* \"#utility.yul\":2809:2872   */\n      swap3\n      pop\n        /* \"#utility.yul\":2765:2882   */\n      pop\n        /* \"#utility.yul\":2921:2923   */\n      0x20\n        /* \"#utility.yul\":2947:3000   */\n      tag_174\n        /* \"#utility.yul\":2992:2999   */\n      dup6\n        /* \"#utility.yul\":2983:2989   */\n      dup3\n        /* \"#utility.yul\":2972:2981   */\n      dup7\n        /* \"#utility.yul\":2968:2990   */\n      add\n        /* \"#utility.yul\":2947:3000   */\n      tag_138\n      jump\t// in\n    tag_174:\n        /* \"#utility.yul\":2937:3000   */\n      swap2\n      pop\n        /* \"#utility.yul\":2892:3010   */\n      pop\n        /* \"#utility.yul\":2543:3017   */\n      swap3\n      pop\n      swap3\n      swap1\n      pop\n      jump\t// out\n        /* \"#utility.yul\":3023:3141   */\n    tag_175:\n        /* \"#utility.yul\":3110:3134   */\n      tag_177\n        /* \"#utility.yul\":3128:3133   */\n      dup2\n        /* \"#utility.yul\":3110:3134   */\n      tag_178\n      jump\t// in\n    tag_177:\n        /* \"#utility.yul\":3105:3108   */\n      dup3\n        /* \"#utility.yul\":3098:3135   */\n      mstore\n        /* \"#utility.yul\":3023:3141   */\n      pop\n      pop\n      jump\t// out\n        /* \"#utility.yul\":3147:3256   */\n    tag_179:\n        /* \"#utility.yul\":3228:3249   */\n      tag_181\n        /* \"#utility.yul\":3243:3248   */\n      dup2\n        /* \"#utility.yul\":3228:3249   */\n      tag_182\n      jump\t// in\n    tag_181:\n        /* \"#utility.yul\":3223:3226   */\n      dup3\n        /* \"#utility.yul\":3216:3250   */\n      mstore\n        /* \"#utility.yul\":3147:3256   */\n      pop\n      pop\n      jump\t// out\n        /* \"#utility.yul\":3262:3622   */\n    tag_183:\n        /* \"#utility.yul\":3348:3351   */\n      0x00\n        /* \"#utility.yul\":3376:3414   */\n      tag_185\n        /* \"#utility.yul\":3408:3413   */\n      dup3\n        /* \"#utility.yul\":3376:3414   */\n      tag_186\n      jump\t// in\n    tag_185:\n        /* \"#utility.yul\":3430:3500   */\n      tag_187\n        /* \"#utility.yul\":3493:3499   */\n      dup2\n        /* \"#utility.yul\":3488:3491   */\n      dup6\n        /* \"#utility.yul\":3430:3500   */\n      tag_188\n      jump\t// in\n    tag_187:\n        /* \"#utility.yul\":3423:3500   */\n      swap4\n      pop\n        /* \"#utility.yul\":3509:3561   */\n      tag_189\n        /* \"#utility.yul\":3554:3560   */\n      dup2\n        /* \"#utility.yul\":3549:3552   */\n      dup6\n        /* \"#utility.yul\":3542:3546   */\n      0x20\n        /* \"#utility.yul\":3535:3540   */\n      dup7\n        /* \"#utility.yul\":3531:3547   */\n      add\n        /* \"#utility.yul\":3509:3561   */\n      tag_190\n      jump\t// in\n    tag_189:\n        /* \"#utility.yul\":3586:3615   */\n      tag_191\n        /* \"#utility.yul\":3608:3614   */\n      dup2\n        /* \"#utility.yul\":3586:3615   */\n      tag_192\n      jump\t// in\n    tag_191:\n        /* \"#utility.yul\":3581:3584   */\n      dup5\n        /* \"#utility.yul\":3577:3616   */\n      add\n        /* \"#utility.yul\":3570:3616   */\n      swap2\n      pop\n        /* \"#utility.yul\":3352:3622   */\n      pop\n        /* \"#utility.yul\":3262:3622   */\n      swap3\n      swap2\n      pop\n      pop\n      jump\t// out\n        /* \"#utility.yul\":3650:4491   */\n    tag_193:\n        /* \"#utility.yul\":3751:3754   */\n      0x00\n        /* \"#utility.yul\":3788:3793   */\n      dup2\n        /* \"#utility.yul\":3782:3794   */\n      sload\n        /* \"#utility.yul\":3817:3853   */\n      tag_195\n        /* \"#utility.yul\":3843:3852   */\n      dup2\n        /* \"#utility.yul\":3817:3853   */\n      tag_103\n      jump\t// in\n    tag_195:\n        /* \"#utility.yul\":3869:3957   */\n      tag_196\n        /* \"#utility.yul\":3950:3956   */\n      dup2\n        /* \"#utility.yul\":3945:3948   */\n      dup7\n        /* \"#utility.yul\":3869:3957   */\n      tag_197\n      jump\t// in\n    tag_196:\n        /* \"#utility.yul\":3862:3957   */\n      swap5\n      pop\n        /* \"#utility.yul\":3988:3989   */\n      0x01\n        /* \"#utility.yul\":3977:3986   */\n      dup3\n        /* \"#utility.yul\":3973:3990   */\n      and\n        /* \"#utility.yul\":4004:4005   */\n      0x00\n        /* \"#utility.yul\":3999:4136   */\n      dup2\n      eq\n      tag_199\n      jumpi\n        /* \"#utility.yul\":4150:4151   */\n      0x01\n        /* \"#utility.yul\":4145:4485   */\n      dup2\n      eq\n      tag_200\n      jumpi\n        /* \"#utility.yul\":3966:4485   */\n      jump(tag_198)\n        /* \"#utility.yul\":3999:4136   */\n    tag_199:\n        /* \"#utility.yul\":4083:4087   */\n      0xff\n        /* \"#utility.yul\":4079:4088   */\n      not\n        /* \"#utility.yul\":4068:4077   */\n      dup4\n        /* \"#utility.yul\":4064:4089   */\n      and\n        /* \"#utility.yul\":4059:4062   */\n      dup7\n        /* \"#utility.yul\":4052:4090   */\n      mstore\n        /* \"#utility.yul\":4119:4125   */\n      dup2\n        /* \"#utility.yul\":4114:4117   */\n      dup7\n        /* \"#utility.yul\":4110:4126   */\n      add\n        /* \"#utility.yul\":4103:4126   */\n      swap4\n      pop\n        /* \"#utility.yul\":3999:4136   */\n      jump(tag_198)\n        /* \"#utility.yul\":4145:4485   */\n    tag_200:\n        /* \"#utility.yul\":4212:4249   */\n      tag_201\n        /* \"#utility.yul\":4243:4248   */\n      dup6\n        /* \"#utility.yul\":4212:4249   */\n      tag_202\n      jump\t// in\n    tag_201:\n        /* \"#utility.yul\":4271:4272   */\n      0x00\n        /* \"#utility.yul\":4285:4439   */\n    tag_203:\n        /* \"#utility.yul\":4299:4305   */\n      dup4\n        /* \"#utility.yul\":4296:4297   */\n      dup2\n        /* \"#utility.yul\":4293:4306   */\n      lt\n        /* \"#utility.yul\":4285:4439   */\n      iszero\n      tag_205\n      jumpi\n        /* \"#utility.yul\":4373:4380   */\n      dup2\n        /* \"#utility.yul\":4367:4381   */\n      sload\n        /* \"#utility.yul\":4363:4364   */\n      dup2\n        /* \"#utility.yul\":4358:4361   */\n      dup10\n        /* \"#utility.yul\":4354:4365   */\n      add\n        /* \"#utility.yul\":4347:4382   */\n      mstore\n        /* \"#utility.yul\":4423:4424   */\n      0x01\n        /* \"#utility.yul\":4414:4421   */\n      dup3\n        /* \"#utility.yul\":4410:4425   */\n      add\n        /* \"#utility.yul\":4399:4425   */\n      swap2\n      pop\n        /* \"#utility.yul\":4321:4325   */\n      0x20\n        /* \"#utility.yul\":4318:4319   */\n      dup2\n        /* \"#utility.yul\":4314:4326   */\n      add\n        /* \"#utility.yul\":4309:4326   */\n      swap1\n      pop\n        /* \"#utility.yul\":4285:4439   */\n      jump(tag_203)\n    tag_205:\n        /* \"#utility.yul\":4468:4474   */\n      dup4\n        /* \"#utility.yul\":4463:4466   */\n      dup9\n        /* \"#utility.yul\":4459:4475   */\n      add\n        /* \"#utility.yul\":4452:4475   */\n      swap6\n      pop\n        /* \"#utility.yul\":4152:4485   */\n      pop\n      pop\n        /* \"#utility.yul\":3966:4485   */\n    tag_198:\n      pop\n        /* \"#utility.yul\":3755:4491   */\n      pop\n      pop\n        /* \"#utility.yul\":3650:4491   */\n      swap3\n      swap2\n      pop\n      pop\n      jump\t// out\n        /* \"#utility.yul\":4497:4615   */\n    tag_206:\n        /* \"#utility.yul\":4584:4608   */\n      tag_208\n        /* \"#utility.yul\":4602:4607   */\n      dup2\n        /* \"#utility.yul\":4584:4608   */\n      tag_209\n      jump\t// in\n    tag_208:\n        /* \"#utility.yul\":4579:4582   */\n      dup3\n        /* \"#utility.yul\":4572:4609   */\n      mstore\n        /* \"#utility.yul\":4497:4615   */\n      pop\n      pop\n      jump\t// out\n        /* \"#utility.yul\":4621:4886   */\n    tag_85:\n        /* \"#utility.yul\":4748:4751   */\n      0x00\n        /* \"#utility.yul\":4770:4860   */\n      tag_211\n        /* \"#utility.yul\":4856:4859   */\n      dup3\n        /* \"#utility.yul\":4847:4853   */\n      dup5\n        /* \"#utility.yul\":4770:4860   */\n      tag_193\n      jump\t// in\n    tag_211:\n        /* \"#utility.yul\":4763:4860   */\n      swap2\n      pop\n        /* \"#utility.yul\":4877:4880   */\n      dup2\n        /* \"#utility.yul\":4870:4880   */\n      swap1\n      pop\n        /* \"#utility.yul\":4621:4886   */\n      swap3\n      swap2\n      pop\n      pop\n      jump\t// out\n        /* \"#utility.yul\":4892:5224   */\n    tag_75:\n        /* \"#utility.yul\":5013:5017   */\n      0x00\n        /* \"#utility.yul\":5051:5053   */\n      0x40\n        /* \"#utility.yul\":5040:5049   */\n      dup3\n        /* \"#utility.yul\":5036:5054   */\n      add\n        /* \"#utility.yul\":5028:5054   */\n      swap1\n      pop\n        /* \"#utility.yul\":5064:5135   */\n      tag_213\n        /* \"#utility.yul\":5132:5133   */\n      0x00\n        /* \"#utility.yul\":5121:5130   */\n      dup4\n        /* \"#utility.yul\":5117:5134   */\n      add\n        /* \"#utility.yul\":5108:5114   */\n      dup6\n        /* \"#utility.yul\":5064:5135   */\n      tag_175\n      jump\t// in\n    tag_213:\n        /* \"#utility.yul\":5145:5217   */\n      tag_214\n        /* \"#utility.yul\":5213:5215   */\n      0x20\n        /* \"#utility.yul\":5202:5211   */\n      dup4\n        /* \"#utility.yul\":5198:5216   */\n      add\n        /* \"#utility.yul\":5189:5195   */\n      dup5\n        /* \"#utility.yul\":5145:5217   */\n      tag_206\n      jump\t// in\n    tag_214:\n        /* \"#utility.yul\":4892:5224   */\n      swap4\n      swap3\n      pop\n      pop\n      pop\n      jump\t// out\n        /* \"#utility.yul\":5230:5759   */\n    tag_115:\n        /* \"#utility.yul\":5397:5401   */\n      0x00\n        /* \"#utility.yul\":5435:5437   */\n      0x60\n        /* \"#utility.yul\":5424:5433   */\n      dup3\n        /* \"#utility.yul\":5420:5438   */\n      add\n        /* \"#utility.yul\":5412:5438   */\n      swap1\n      pop\n        /* \"#utility.yul\":5448:5519   */\n      tag_216\n        /* \"#utility.yul\":5516:5517   */\n      0x00\n        /* \"#utility.yul\":5505:5514   */\n      dup4\n        /* \"#utility.yul\":5501:5518   */\n      add\n        /* \"#utility.yul\":5492:5498   */\n      dup7\n        /* \"#utility.yul\":5448:5519   */\n      tag_175\n      jump\t// in\n    tag_216:\n        /* \"#utility.yul\":5529:5601   */\n      tag_217\n        /* \"#utility.yul\":5597:5599   */\n      0x20\n        /* \"#utility.yul\":5586:5595   */\n      dup4\n        /* \"#utility.yul\":5582:5600   */\n      add\n        /* \"#utility.yul\":5573:5579   */\n      dup6\n        /* \"#utility.yul\":5529:5601   */\n      tag_206\n      jump\t// in\n    tag_217:\n        /* \"#utility.yul\":5648:5657   */\n      dup2\n        /* \"#utility.yul\":5642:5646   */\n      dup2\n        /* \"#utility.yul\":5638:5658   */\n      sub\n        /* \"#utility.yul\":5633:5635   */\n      0x40\n        /* \"#utility.yul\":5622:5631   */\n      dup4\n        /* \"#utility.yul\":5618:5636   */\n      add\n        /* \"#utility.yul\":5611:5659   */\n      mstore\n        /* \"#utility.yul\":5676:5752   */\n      tag_218\n        /* \"#utility.yul\":5747:5751   */\n      dup2\n        /* \"#utility.yul\":5738:5744   */\n      dup5\n        /* \"#utility.yul\":5676:5752   */\n      tag_183\n      jump\t// in\n    tag_218:\n        /* \"#utility.yul\":5668:5752   */\n      swap1\n      pop\n        /* \"#utility.yul\":5230:5759   */\n      swap5\n      swap4\n      pop\n      pop\n      pop\n      pop\n      jump\t// out\n        /* \"#utility.yul\":5765:6207   */\n    tag_16:\n        /* \"#utility.yul\":5914:5918   */\n      0x00\n        /* \"#utility.yul\":5952:5954   */\n      0x60\n        /* \"#utility.yul\":5941:5950   */\n      dup3\n        /* \"#utility.yul\":5937:5955   */\n      add\n        /* \"#utility.yul\":5929:5955   */\n      swap1\n      pop\n        /* \"#utility.yul\":5965:6036   */\n      tag_220\n        /* \"#utility.yul\":6033:6034   */\n      0x00\n        /* \"#utility.yul\":6022:6031   */\n      dup4\n        /* \"#utility.yul\":6018:6035   */\n      add\n        /* \"#utility.yul\":6009:6015   */\n      dup7\n        /* \"#utility.yul\":5965:6036   */\n      tag_175\n      jump\t// in\n    tag_220:\n        /* \"#utility.yul\":6046:6118   */\n      tag_221\n        /* \"#utility.yul\":6114:6116   */\n      0x20\n        /* \"#utility.yul\":6103:6112   */\n      dup4\n        /* \"#utility.yul\":6099:6117   */\n      add\n        /* \"#utility.yul\":6090:6096   */\n      dup6\n        /* \"#utility.yul\":6046:6118   */\n      tag_206\n      jump\t// in\n    tag_221:\n        /* \"#utility.yul\":6128:6200   */\n      tag_222\n        /* \"#utility.yul\":6196:6198   */\n      0x40\n        /* \"#utility.yul\":6185:6194   */\n      dup4\n        /* \"#utility.yul\":6181:6199   */\n      add\n        /* \"#utility.yul\":6172:6178   */\n      dup5\n        /* \"#utility.yul\":6128:6200   */\n      tag_206\n      jump\t// in\n    tag_222:\n        /* \"#utility.yul\":5765:6207   */\n      swap5\n      swap4\n      pop\n      pop\n      pop\n      pop\n      jump\t// out\n        /* \"#utility.yul\":6213:6423   */\n    tag_28:\n        /* \"#utility.yul\":6300:6304   */\n      0x00\n        /* \"#utility.yul\":6338:6340   */\n      0x20\n        /* \"#utility.yul\":6327:6336   */\n      dup3\n        /* \"#utility.yul\":6323:6341   */\n      add\n        /* \"#utility.yul\":6315:6341   */\n      swap1\n      pop\n        /* \"#utility.yul\":6351:6416   */\n      tag_224\n        /* \"#utility.yul\":6413:6414   */\n      0x00\n        /* \"#utility.yul\":6402:6411   */\n      dup4\n        /* \"#utility.yul\":6398:6415   */\n      add\n        /* \"#utility.yul\":6389:6395   */\n      dup5\n        /* \"#utility.yul\":6351:6416   */\n      tag_179\n      jump\t// in\n    tag_224:\n        /* \"#utility.yul\":6213:6423   */\n      swap3\n      swap2\n      pop\n      pop\n      jump\t// out\n        /* \"#utility.yul\":6429:6651   */\n    tag_58:\n        /* \"#utility.yul\":6522:6526   */\n      0x00\n        /* \"#utility.yul\":6560:6562   */\n      0x20\n        /* \"#utility.yul\":6549:6558   */\n      dup3\n        /* \"#utility.yul\":6545:6563   */\n      add\n        /* \"#utility.yul\":6537:6563   */\n      swap1\n      pop\n        /* \"#utility.yul\":6573:6644   */\n      tag_226\n        /* \"#utility.yul\":6641:6642   */\n      0x00\n        /* \"#utility.yul\":6630:6639   */\n      dup4\n        /* \"#utility.yul\":6626:6643   */\n      add\n        /* \"#utility.yul\":6617:6623   */\n      dup5\n        /* \"#utility.yul\":6573:6644   */\n      tag_206\n      jump\t// in\n    tag_226:\n        /* \"#utility.yul\":6429:6651   */\n      swap3\n      swap2\n      pop\n      pop\n      jump\t// out\n        /* \"#utility.yul\":6657:7507   */\n    tag_48:\n        /* \"#utility.yul\":6902:6906   */\n      0x00\n        /* \"#utility.yul\":6940:6943   */\n      0xc0\n        /* \"#utility.yul\":6929:6938   */\n      dup3\n        /* \"#utility.yul\":6925:6944   */\n      add\n        /* \"#utility.yul\":6917:6944   */\n      swap1\n      pop\n        /* \"#utility.yul\":6954:7025   */\n      tag_228\n        /* \"#utility.yul\":7022:7023   */\n      0x00\n        /* \"#utility.yul\":7011:7020   */\n      dup4\n        /* \"#utility.yul\":7007:7024   */\n      add\n        /* \"#utility.yul\":6998:7004   */\n      dup10\n        /* \"#utility.yul\":6954:7025   */\n      tag_206\n      jump\t// in\n    tag_228:\n        /* \"#utility.yul\":7035:7107   */\n      tag_229\n        /* \"#utility.yul\":7103:7105   */\n      0x20\n        /* \"#utility.yul\":7092:7101   */\n      dup4\n        /* \"#utility.yul\":7088:7106   */\n      add\n        /* \"#utility.yul\":7079:7085   */\n      dup9\n        /* \"#utility.yul\":7035:7107   */\n      tag_175\n      jump\t// in\n    tag_229:\n        /* \"#utility.yul\":7117:7189   */\n      tag_230\n        /* \"#utility.yul\":7185:7187   */\n      0x40\n        /* \"#utility.yul\":7174:7183   */\n      dup4\n        /* \"#utility.yul\":7170:7188   */\n      add\n        /* \"#utility.yul\":7161:7167   */\n      dup8\n        /* \"#utility.yul\":7117:7189   */\n      tag_206\n      jump\t// in\n    tag_230:\n        /* \"#utility.yul\":7236:7245   */\n      dup2\n        /* \"#utility.yul\":7230:7234   */\n      dup2\n        /* \"#utility.yul\":7226:7246   */\n      sub\n        /* \"#utility.yul\":7221:7223   */\n      0x60\n        /* \"#utility.yul\":7210:7219   */\n      dup4\n        /* \"#utility.yul\":7206:7224   */\n      add\n        /* \"#utility.yul\":7199:7247   */\n      mstore\n        /* \"#utility.yul\":7264:7340   */\n      tag_231\n        /* \"#utility.yul\":7335:7339   */\n      dup2\n        /* \"#utility.yul\":7326:7332   */\n      dup7\n        /* \"#utility.yul\":7264:7340   */\n      tag_183\n      jump\t// in\n    tag_231:\n        /* \"#utility.yul\":7256:7340   */\n      swap1\n      pop\n        /* \"#utility.yul\":7350:7423   */\n      tag_232\n        /* \"#utility.yul\":7418:7421   */\n      0x80\n        /* \"#utility.yul\":7407:7416   */\n      dup4\n        /* \"#utility.yul\":7403:7422   */\n      add\n        /* \"#utility.yul\":7394:7400   */\n      dup6\n        /* \"#utility.yul\":7350:7423   */\n      tag_206\n      jump\t// in\n    tag_232:\n        /* \"#utility.yul\":7433:7500   */\n      tag_233\n        /* \"#utility.yul\":7495:7498   */\n      0xa0\n        /* \"#utility.yul\":7484:7493   */\n      dup4\n        /* \"#utility.yul\":7480:7499   */\n      add\n        /* \"#utility.yul\":7471:7477   */\n      dup5\n        /* \"#utility.yul\":7433:7500   */\n      tag_179\n      jump\t// in\n    tag_233:\n        /* \"#utility.yul\":6657:7507   */\n      swap8\n      swap7\n      pop\n      pop\n      pop\n      pop\n      pop\n      pop\n      pop\n      jump\t// out\n        /* \"#utility.yul\":7513:7642   */\n    tag_132:\n        /* \"#utility.yul\":7547:7553   */\n      0x00\n        /* \"#utility.yul\":7574:7594   */\n      tag_235\n      tag_236\n      jump\t// in\n    tag_235:\n        /* \"#utility.yul\":7564:7594   */\n      swap1\n      pop\n        /* \"#utility.yul\":7603:7636   */\n      tag_237\n        /* \"#utility.yul\":7631:7635   */\n      dup3\n        /* \"#utility.yul\":7623:7629   */\n      dup3\n        /* \"#utility.yul\":7603:7636   */\n      tag_238\n      jump\t// in\n    tag_237:\n        /* \"#utility.yul\":7513:7642   */\n      swap2\n      swap1\n      pop\n      jump\t// out\n        /* \"#utility.yul\":7648:7723   */\n    tag_236:\n        /* \"#utility.yul\":7681:7687   */\n      0x00\n        /* \"#utility.yul\":7714:7716   */\n      0x40\n        /* \"#utility.yul\":7708:7717   */\n      mload\n        /* \"#utility.yul\":7698:7717   */\n      swap1\n      pop\n        /* \"#utility.yul\":7648:7723   */\n      swap1\n      jump\t// out\n        /* \"#utility.yul\":7729:8036   */\n    tag_131:\n        /* \"#utility.yul\":7790:7794   */\n      0x00\n        /* \"#utility.yul\":7880:7898   */\n      0xffffffffffffffff\n        /* \"#utility.yul\":7872:7878   */\n      dup3\n        /* \"#utility.yul\":7869:7899   */\n      gt\n        /* \"#utility.yul\":7866:7922   */\n      iszero\n      tag_241\n      jumpi\n        /* \"#utility.yul\":7902:7920   */\n      tag_242\n      tag_243\n      jump\t// in\n    tag_242:\n        /* \"#utility.yul\":7866:7922   */\n    tag_241:\n        /* \"#utility.yul\":7940:7969   */\n      tag_244\n        /* \"#utility.yul\":7962:7968   */\n      dup3\n        /* \"#utility.yul\":7940:7969   */\n      tag_192\n      jump\t// in\n    tag_244:\n        /* \"#utility.yul\":7932:7969   */\n      swap1\n      pop\n        /* \"#utility.yul\":8024:8028   */\n      0x20\n        /* \"#utility.yul\":8018:8022   */\n      dup2\n        /* \"#utility.yul\":8014:8029   */\n      add\n        /* \"#utility.yul\":8006:8029   */\n      swap1\n      pop\n        /* \"#utility.yul\":7729:8036   */\n      swap2\n      swap1\n      pop\n      jump\t// out\n        /* \"#utility.yul\":8042:8182   */\n    tag_202:\n        /* \"#utility.yul\":8090:8094   */\n      0x00\n        /* \"#utility.yul\":8113:8116   */\n      dup2\n        /* \"#utility.yul\":8105:8116   */\n      swap1\n      pop\n        /* \"#utility.yul\":8136:8139   */\n      dup2\n        /* \"#utility.yul\":8133:8134   */\n      0x00\n        /* \"#utility.yul\":8126:8140   */\n      mstore\n        /* \"#utility.yul\":8170:8174   */\n      0x20\n        /* \"#utility.yul\":8167:8168   */\n      0x00\n        /* \"#utility.yul\":8157:8175   */\n      keccak256\n        /* \"#utility.yul\":8149:8175   */\n      swap1\n      pop\n        /* \"#utility.yul\":8042:8182   */\n      swap2\n      swap1\n      pop\n      jump\t// out\n        /* \"#utility.yul\":8188:8286   */\n    tag_186:\n        /* \"#utility.yul\":8239:8245   */\n      0x00\n        /* \"#utility.yul\":8273:8278   */\n      dup2\n        /* \"#utility.yul\":8267:8279   */\n      mload\n        /* \"#utility.yul\":8257:8279   */\n      swap1\n      pop\n        /* \"#utility.yul\":8188:8286   */\n      swap2\n      swap1\n      pop\n      jump\t// out\n        /* \"#utility.yul\":8292:8460   */\n    tag_188:\n        /* \"#utility.yul\":8375:8386   */\n      0x00\n        /* \"#utility.yul\":8409:8415   */\n      dup3\n        /* \"#utility.yul\":8404:8407   */\n      dup3\n        /* \"#utility.yul\":8397:8416   */\n      mstore\n        /* \"#utility.yul\":8449:8453   */\n      0x20\n        /* \"#utility.yul\":8444:8447   */\n      dup3\n        /* \"#utility.yul\":8440:8454   */\n      add\n        /* \"#utility.yul\":8425:8454   */\n      swap1\n      pop\n        /* \"#utility.yul\":8292:8460   */\n      swap3\n      swap2\n      pop\n      pop\n      jump\t// out\n        /* \"#utility.yul\":8466:8613   */\n    tag_197:\n        /* \"#utility.yul\":8567:8578   */\n      0x00\n        /* \"#utility.yul\":8604:8607   */\n      dup2\n        /* \"#utility.yul\":8589:8607   */\n      swap1\n      pop\n        /* \"#utility.yul\":8466:8613   */\n      swap3\n      swap2\n      pop\n      pop\n      jump\t// out\n        /* \"#utility.yul\":8619:8715   */\n    tag_178:\n        /* \"#utility.yul\":8656:8663   */\n      0x00\n        /* \"#utility.yul\":8685:8709   */\n      tag_250\n        /* \"#utility.yul\":8703:8708   */\n      dup3\n        /* \"#utility.yul\":8685:8709   */\n      tag_251\n      jump\t// in\n    tag_250:\n        /* \"#utility.yul\":8674:8709   */\n      swap1\n      pop\n        /* \"#utility.yul\":8619:8715   */\n      swap2\n      swap1\n      pop\n      jump\t// out\n        /* \"#utility.yul\":8721:8811   */\n    tag_182:\n        /* \"#utility.yul\":8755:8762   */\n      0x00\n        /* \"#utility.yul\":8798:8803   */\n      dup2\n        /* \"#utility.yul\":8791:8804   */\n      iszero\n        /* \"#utility.yul\":8784:8805   */\n      iszero\n        /* \"#utility.yul\":8773:8805   */\n      swap1\n      pop\n        /* \"#utility.yul\":8721:8811   */\n      swap2\n      swap1\n      pop\n      jump\t// out\n        /* \"#utility.yul\":8817:8943   */\n    tag_251:\n        /* \"#utility.yul\":8854:8861   */\n      0x00\n        /* \"#utility.yul\":8894:8936   */\n      0xffffffffffffffffffffffffffffffffffffffff\n        /* \"#utility.yul\":8887:8892   */\n      dup3\n        /* \"#utility.yul\":8883:8937   */\n      and\n        /* \"#utility.yul\":8872:8937   */\n      swap1\n      pop\n        /* \"#utility.yul\":8817:8943   */\n      swap2\n      swap1\n      pop\n      jump\t// out\n        /* \"#utility.yul\":8949:9026   */\n    tag_209:\n        /* \"#utility.yul\":8986:8993   */\n      0x00\n        /* \"#utility.yul\":9015:9020   */\n      dup2\n        /* \"#utility.yul\":9004:9020   */\n      swap1\n      pop\n        /* \"#utility.yul\":8949:9026   */\n      swap2\n      swap1\n      pop\n      jump\t// out\n        /* \"#utility.yul\":9032:9186   */\n    tag_137:\n        /* \"#utility.yul\":9116:9122   */\n      dup3\n        /* \"#utility.yul\":9111:9114   */\n      dup2\n        /* \"#utility.yul\":9106:9109   */\n      dup4\n        /* \"#utility.yul\":9093:9123   */\n      calldatacopy\n        /* \"#utility.yul\":9178:9179   */\n      0x00\n        /* \"#utility.yul\":9169:9175   */\n      dup4\n        /* \"#utility.yul\":9164:9167   */\n      dup4\n        /* \"#utility.yul\":9160:9176   */\n      add\n        /* \"#utility.yul\":9153:9180   */\n      mstore\n        /* \"#utility.yul\":9032:9186   */\n      pop\n      pop\n      pop\n      jump\t// out\n        /* \"#utility.yul\":9192:9499   */\n    tag_190:\n        /* \"#utility.yul\":9260:9261   */\n      0x00\n        /* \"#utility.yul\":9270:9383   */\n    tag_257:\n        /* \"#utility.yul\":9284:9290   */\n      dup4\n        /* \"#utility.yul\":9281:9282   */\n      dup2\n        /* \"#utility.yul\":9278:9291   */\n      lt\n        /* \"#utility.yul\":9270:9383   */\n      iszero\n      tag_259\n      jumpi\n        /* \"#utility.yul\":9369:9370   */\n      dup1\n        /* \"#utility.yul\":9364:9367   */\n      dup3\n        /* \"#utility.yul\":9360:9371   */\n      add\n        /* \"#utility.yul\":9354:9372   */\n      mload\n        /* \"#utility.yul\":9350:9351   */\n      dup2\n        /* \"#utility.yul\":9345:9348   */\n      dup5\n        /* \"#utility.yul\":9341:9352   */\n      add\n        /* \"#utility.yul\":9334:9373   */\n      mstore\n        /* \"#utility.yul\":9306:9308   */\n      0x20\n        /* \"#utility.yul\":9303:9304   */\n      dup2\n        /* \"#utility.yul\":9299:9309   */\n      add\n        /* \"#utility.yul\":9294:9309   */\n      swap1\n      pop\n        /* \"#utility.yul\":9270:9383   */\n      jump(tag_257)\n    tag_259:\n        /* \"#utility.yul\":9401:9407   */\n      dup4\n        /* \"#utility.yul\":9398:9399   */\n      dup2\n        /* \"#utility.yul\":9395:9408   */\n      gt\n        /* \"#utility.yul\":9392:9493   */\n      iszero\n      tag_260\n      jumpi\n        /* \"#utility.yul\":9481:9482   */\n      0x00\n        /* \"#utility.yul\":9472:9478   */\n      dup5\n        /* \"#utility.yul\":9467:9470   */\n      dup5\n        /* \"#utility.yul\":9463:9479   */\n      add\n        /* \"#utility.yul\":9456:9483   */\n      mstore\n        /* \"#utility.yul\":9392:9493   */\n    tag_260:\n        /* \"#utility.yul\":9241:9499   */\n      pop\n        /* \"#utility.yul\":9192:9499   */\n      pop\n      pop\n      pop\n      jump\t// out\n        /* \"#utility.yul\":9505:9676   */\n    tag_99:\n        /* \"#utility.yul\":9544:9547   */\n      0x00\n        /* \"#utility.yul\":9567:9591   */\n      tag_262\n        /* \"#utility.yul\":9585:9590   */\n      dup3\n        /* \"#utility.yul\":9567:9591   */\n      tag_209\n      jump\t// in\n    tag_262:\n        /* \"#utility.yul\":9558:9591   */\n      swap2\n      pop\n        /* \"#utility.yul\":9613:9617   */\n      0x00\n        /* \"#utility.yul\":9606:9611   */\n      dup3\n        /* \"#utility.yul\":9603:9618   */\n      eq\n        /* \"#utility.yul\":9600:9641   */\n      iszero\n      tag_263\n      jumpi\n        /* \"#utility.yul\":9621:9639   */\n      tag_264\n      tag_265\n      jump\t// in\n    tag_264:\n        /* \"#utility.yul\":9600:9641   */\n    tag_263:\n        /* \"#utility.yul\":9668:9669   */\n      0x01\n        /* \"#utility.yul\":9661:9666   */\n      dup3\n        /* \"#utility.yul\":9657:9670   */\n      sub\n        /* \"#utility.yul\":9650:9670   */\n      swap1\n      pop\n        /* \"#utility.yul\":9505:9676   */\n      swap2\n      swap1\n      pop\n      jump\t// out\n        /* \"#utility.yul\":9682:10002   */\n    tag_103:\n        /* \"#utility.yul\":9726:9732   */\n      0x00\n        /* \"#utility.yul\":9763:9764   */\n      0x02\n        /* \"#utility.yul\":9757:9761   */\n      dup3\n        /* \"#utility.yul\":9753:9765   */\n      div\n        /* \"#utility.yul\":9743:9765   */\n      swap1\n      pop\n        /* \"#utility.yul\":9810:9811   */\n      0x01\n        /* \"#utility.yul\":9804:9808   */\n      dup3\n        /* \"#utility.yul\":9800:9812   */\n      and\n        /* \"#utility.yul\":9831:9849   */\n      dup1\n        /* \"#utility.yul\":9821:9902   */\n      tag_267\n      jumpi\n        /* \"#utility.yul\":9887:9891   */\n      0x7f\n        /* \"#utility.yul\":9879:9885   */\n      dup3\n        /* \"#utility.yul\":9875:9892   */\n      and\n        /* \"#utility.yul\":9865:9892   */\n      swap2\n      pop\n        /* \"#utility.yul\":9821:9902   */\n    tag_267:\n        /* \"#utility.yul\":9949:9951   */\n      0x20\n        /* \"#utility.yul\":9941:9947   */\n      dup3\n        /* \"#utility.yul\":9938:9952   */\n      lt\n        /* \"#utility.yul\":9918:9936   */\n      dup2\n        /* \"#utility.yul\":9915:9953   */\n      eq\n        /* \"#utility.yul\":9912:9996   */\n      iszero\n      tag_268\n      jumpi\n        /* \"#utility.yul\":9968:9986   */\n      tag_269\n      tag_270\n      jump\t// in\n    tag_269:\n        /* \"#utility.yul\":9912:9996   */\n    tag_268:\n        /* \"#utility.yul\":9733:10002   */\n      pop\n        /* \"#utility.yul\":9682:10002   */\n      swap2\n      swap1\n      pop\n      jump\t// out\n        /* \"#utility.yul\":10008:10289   */\n    tag_238:\n        /* \"#utility.yul\":10091:10118   */\n      tag_272\n        /* \"#utility.yul\":10113:10117   */\n      dup3\n        /* \"#utility.yul\":10091:10118   */\n      tag_192\n      jump\t// in\n    tag_272:\n        /* \"#utility.yul\":10083:10089   */\n      dup2\n        /* \"#utility.yul\":10079:10119   */\n      add\n        /* \"#utility.yul\":10221:10227   */\n      dup2\n        /* \"#utility.yul\":10209:10219   */\n      dup2\n        /* \"#utility.yul\":10206:10228   */\n      lt\n        /* \"#utility.yul\":10185:10203   */\n      0xffffffffffffffff\n        /* \"#utility.yul\":10173:10183   */\n      dup3\n        /* \"#utility.yul\":10170:10204   */\n      gt\n        /* \"#utility.yul\":10167:10229   */\n      or\n        /* \"#utility.yul\":10164:10252   */\n      iszero\n      tag_273\n      jumpi\n        /* \"#utility.yul\":10232:10250   */\n      tag_274\n      tag_243\n      jump\t// in\n    tag_274:\n        /* \"#utility.yul\":10164:10252   */\n    tag_273:\n        /* \"#utility.yul\":10272:10282   */\n      dup1\n        /* \"#utility.yul\":10268:10270   */\n      0x40\n        /* \"#utility.yul\":10261:10283   */\n      mstore\n        /* \"#utility.yul\":10051:10289   */\n      pop\n        /* \"#utility.yul\":10008:10289   */\n      pop\n      pop\n      jump\t// out\n        /* \"#utility.yul\":10295:10528   */\n    tag_73:\n        /* \"#utility.yul\":10334:10337   */\n      0x00\n        /* \"#utility.yul\":10357:10381   */\n      tag_276\n        /* \"#utility.yul\":10375:10380   */\n      dup3\n        /* \"#utility.yul\":10357:10381   */\n      tag_209\n      jump\t// in\n    tag_276:\n        /* \"#utility.yul\":10348:10381   */\n      swap2\n      pop\n        /* \"#utility.yul\":10403:10469   */\n      0xffffffffffffffffffffffffffffffffffffffffffffffffffffffffffffffff\n        /* \"#utility.yul\":10396:10401   */\n      dup3\n        /* \"#utility.yul\":10393:10470   */\n      eq\n        /* \"#utility.yul\":10390:10493   */\n      iszero\n      tag_277\n      jumpi\n        /* \"#utility.yul\":10473:10491   */\n      tag_278\n      tag_265\n      jump\t// in\n    tag_278:\n        /* \"#utility.yul\":10390:10493   */\n    tag_277:\n        /* \"#utility.yul\":10520:10521   */\n      0x01\n        /* \"#utility.yul\":10513:10518   */\n      dup3\n        /* \"#utility.yul\":10509:10522   */\n      add\n        /* \"#utility.yul\":10502:10522   */\n      swap1\n      pop\n        /* \"#utility.yul\":10295:10528   */\n      swap2\n      swap1\n      pop\n      jump\t// out\n        /* \"#utility.yul\":10534:10714   */\n    tag_265:\n        /* \"#utility.yul\":10582:10659   */\n      0x4e487b7100000000000000000000000000000000000000000000000000000000\n        /* \"#utility.yul\":10579:10580   */\n      0x00\n        /* \"#utility.yul\":10572:10660   */\n      mstore\n        /* \"#utility.yul\":10679:10683   */\n      0x11\n        /* \"#utility.yul\":10676:10677   */\n      0x04\n        /* \"#utility.yul\":10669:10684   */\n      mstore\n        /* \"#utility.yul\":10703:10707   */\n      0x24\n        /* \"#utility.yul\":10700:10701   */\n      0x00\n        /* \"#utility.yul\":10693:10708   */\n      revert\n        /* \"#utility.yul\":10720:10900   */\n    tag_270:\n        /* \"#utility.yul\":10768:10845   */\n      0x4e487b7100000000000000000000000000000000000000000000000000000000\n        /* \"#utility.yul\":10765:10766   */\n      0x00\n        /* \"#utility.yul\":10758:10846   */\n      mstore\n        /* \"#utility.yul\":10865:10869   */\n      0x22\n        /* \"#utility.yul\":10862:10863   */\n      0x04\n        /* \"#utility.yul\":10855:10870   */\n      mstore\n        /* \"#utility.yul\":10889:10893   */\n      0x24\n        /* \"#utility.yul\":10886:10887   */\n      0x00\n        /* \"#utility.yul\":10879:10894   */\n      revert\n        /* \"#utility.yul\":10906:11086   */\n    tag_243:\n        /* \"#utility.yul\":10954:11031   */\n      0x4e487b7100000000000000000000000000000000000000000000000000000000\n        /* \"#utility.yul\":10951:10952   */\n      0x00\n        /* \"#utility.yul\":10944:11032   */\n      mstore\n        /* \"#utility.yul\":11051:11055   */\n      0x41\n        /* \"#utility.yul\":11048:11049   */\n      0x04\n        /* \"#utility.yul\":11041:11056   */\n      mstore\n        /* \"#utility.yul\":11075:11079   */\n      0x24\n        /* \"#utility.yul\":11072:11073   */\n      0x00\n        /* \"#utility.yul\":11065:11080   */\n      revert\n        /* \"#utility.yul\":11092:11209   */\n    tag_146:\n        /* \"#utility.yul\":11201:11202   */\n      0x00\n        /* \"#utility.yul\":11198:11199   */\n      dup1\n        /* \"#utility.yul\":11191:11203   */\n      revert\n        /* \"#utility.yul\":11215:11332   */\n    tag_135:\n        /* \"#utility.yul\":11324:11325   */\n      0x00\n        /* \"#utility.yul\":11321:11322   */\n      dup1\n        /* \"#utility.yul\":11314:11326   */\n      revert\n        /* \"#utility.yul\":11338:11455   */\n    tag_164:\n        /* \"#utility.yul\":11447:11448   */\n      0x00\n        /* \"#utility.yul\":11444:11445   */\n      dup1\n        /* \"#utility.yul\":11437:11449   */\n      revert\n        /* \"#utility.yul\":11461:11578   */\n    tag_155:\n        /* \"#utility.yul\":11570:11571   */\n      0x00\n        /* \"#utility.yul\":11567:11568   */\n      dup1\n        /* \"#utility.yul\":11560:11572   */\n      revert\n        /* \"#utility.yul\":11584:11686   */\n    tag_192:\n        /* \"#utility.yul\":11625:11631   */\n      0x00\n        /* \"#utility.yul\":11676:11678   */\n      0x1f\n        /* \"#utility.yul\":11672:11679   */\n      not\n        /* \"#utility.yul\":11667:11669   */\n      0x1f\n        /* \"#utility.yul\":11660:11665   */\n      dup4\n        /* \"#utility.yul\":11656:11670   */\n      add\n        /* \"#utility.yul\":11652:11680   */\n      and\n        /* \"#utility.yul\":11642:11680   */\n      swap1\n      pop\n        /* \"#utility.yul\":11584:11686   */\n      swap2\n      swap1\n      pop\n      jump\t// out\n        /* \"#utility.yul\":11692:11814   */\n    tag_141:\n        /* \"#utility.yul\":11765:11789   */\n      tag_288\n        /* \"#utility.yul\":11783:11788   */\n      dup2\n        /* \"#utility.yul\":11765:11789   */\n      tag_178\n      jump\t// in\n    tag_288:\n        /* \"#utility.yul\":11758:11763   */\n      dup2\n        /* \"#utility.yul\":11755:11790   */\n      eq\n        /* \"#utility.yul\":11745:11808   */\n      tag_289\n      jumpi\n        /* \"#utility.yul\":11804:11805   */\n      0x00\n        /* \"#utility.yul\":11801:11802   */\n      dup1\n        /* \"#utility.yul\":11794:11806   */\n      revert\n        /* \"#utility.yul\":11745:11808   */\n    tag_289:\n        /* \"#utility.yul\":11692:11814   */\n      pop\n      jump\t// out\n        /* \"#utility.yul\":11820:11942   */\n    tag_151:\n        /* \"#utility.yul\":11893:11917   */\n      tag_291\n        /* \"#utility.yul\":11911:11916   */\n      dup2\n        /* \"#utility.yul\":11893:11917   */\n      tag_209\n      jump\t// in\n    tag_291:\n        /* \"#utility.yul\":11886:11891   */\n      dup2\n        /* \"#utility.yul\":11883:11918   */\n      eq\n        /* \"#utility.yul\":11873:11936   */\n      tag_292\n      jumpi\n        /* \"#utility.yul\":11932:11933   */\n      0x00\n        /* \"#utility.yul\":11929:11930   */\n      dup1\n        /* \"#utility.yul\":11922:11934   */\n      revert\n        /* \"#utility.yul\":11873:11936   */\n    tag_292:\n        /* \"#utility.yul\":11820:11942   */\n      pop\n      jump\t// out\n\n    auxdata: 0xa264697066735822122041a442f8fad1cfa8ef4f60153e46d0bc54cabdb38092b20114284965bdc61cf464736f6c63430008070033\n}\n",
				"bytecode": {
					"linkReferences": {},
					"object": "60806040523480156200001157600080fd5b506040516200195a3803806200195a83398181016040528101906200003791906200026c565b805182111562000073576040517f2730657000000000000000000000000000000000000000000000000000000000815260040160405180910390fd5b60005b8151811015620001875760008282815181106200009857620000976200041b565b5b602002602001015190506000808273ffffffffffffffffffffffffffffffffffffffff1673ffffffffffffffffffffffffffffffffffffffff16815260200190815260200160002060009054906101000a900460ff161562000126576040517fc0159e0e00000000000000000000000000000000000000000000000000000000815260040160405180910390fd5b6000808273ffffffffffffffffffffffffffffffffffffffff1673ffffffffffffffffffffffffffffffffffffffff16815260200190815260200160002060009054906101000a9050505080806200017e906200039e565b91505062000076565b505050620004d2565b6000620001a7620001a184620002fb565b620002d2565b90508083825260208201905082856020860282011115620001cd57620001cc6200047e565b5b60005b85811015620002015781620001e688826200020b565b845260208401935060208301925050600181019050620001d0565b5050509392505050565b6000815190506200021c816200049e565b92915050565b600082601f8301126200023a576200023962000479565b5b81516200024c84826020860162000190565b91505092915050565b6000815190506200026681620004b8565b92915050565b6000806040838503121562000286576200028562000488565b5b6000620002968582860162000255565b925050602083015167ffffffffffffffff811115620002ba57620002b962000483565b5b620002c88582860162000222565b9150509250929050565b6000620002de620002f1565b9050620002ec828262000368565b919050565b6000604051905090565b600067ffffffffffffffff8211156200031957620003186200044a565b5b602082029050602081019050919050565b600062000337826200033e565b9050919050565b600073ffffffffffffffffffffffffffffffffffffffff82169050919050565b6000819050919050565b62000373826200048d565b810181811067ffffffffffffffff821117156200039557620003946200044a565b5b80604052505050565b6000620003ab826200035e565b91507fffffffffffffffffffffffffffffffffffffffffffffffffffffffffffffffff821415620003e157620003e0620003ec565b5b600182019050919050565b7f4e487b7100000000000000000000000000000000000000000000000000000000600052601160045260246000fd5b7f4e487b7100000000000000000000000000000000000000000000000000000000600052603260045260246000fd5b7f4e487b7100000000000000000000000000000000000000000000000000000000600052604160045260246000fd5b600080fd5b600080fd5b600080fd5b600080fd5b6000601f19601f8301169050919050565b620004a9816200032a565b8114620004b557600080fd5b50565b620004c3816200035e565b8114620004cf57600080fd5b50565b61147880620004e26000396000f3fe60806040526004361061008a5760003560e01c80638253951a116100595780638253951a146101895780639ace38c2146101c6578063bb84c5a914610208578063cd568d1f14610231578063dc8452cd1461025c576100cc565b80631087393a146100d15780632f54bf6e146100fa57806354b5fe80146101375780635986aaca14610160576100cc565b366100cc577f90890809c654f11d6e72a28fa60149770a0d11ec6c92319d6ceb2bb0a4ea1a153334476040516100c29392919061109b565b60405180910390a1005b600080fd5b3480156100dd57600080fd5b506100f860048036038101906100f39190610ecb565b610287565b005b34801561010657600080fd5b50610121600480360381019061011c9190610e2f565b610524565b60405161012e91906110d2565b60405180910390f35b34801561014357600080fd5b5061015e60048036038101906101599190610ecb565b610544565b005b34801561016c57600080fd5b5061018760048036038101906101829190610ecb565b6107c2565b005b34801561019557600080fd5b506101b060048036038101906101ab9190610ef8565b610a62565b6040516101bd91906110d2565b60405180910390f35b3480156101d257600080fd5b506101ed60048036038101906101e89190610ecb565b610a91565b6040516101ff96959493929190611108565b60405180910390f35b34801561021457600080fd5b5061022f600480360381019061022a9190610e5c565b610b82565b005b34801561023d57600080fd5b50610246610ce6565b60405161025391906110ed565b60405180910390f35b34801561026857600080fd5b50610271610cec565b60405161027e91906110ed565b60405180910390f35b6000803373ffffffffffffffffffffffffffffffffffffffff1673ffffffffffffffffffffffffffffffffffffffff16815260200190815260200160002060009054906101000a900460ff16610309576040517f30cd747100000000000000000000000000000000000000000000000000000000815260040160405180910390fd5b8060045460016000600454815260200190815260200160002060000154111561035e576040517fc929b60400000000000000000000000000000000000000000000000000000000815260040160405180910390fd5b816001600082815260200190815260200160002060050160009054906101000a900460ff16156103ba576040517f3ca00aa600000000000000000000000000000000000000000000000000000000815260040160405180910390fd5b826002600082815260200190815260200160002060003373ffffffffffffffffffffffffffffffffffffffff1673ffffffffffffffffffffffffffffffffffffffff16815260200190815260200160002060009054906101000a900460ff1615610450576040517ffcaeab4c00000000000000000000000000000000000000000000000000000000815260040160405180910390fd5b60016000858152602001908152602001600020600401600081548092919061047790611319565b919050555060016002600086815260200190815260200160002060003373ffffffffffffffffffffffffffffffffffffffff1673ffffffffffffffffffffffffffffffffffffffff16815260200190815260200160002060006101000a81548160ff0219169083151502179055507f0630c3fc0c5609ba2ac38919291f39d2bb42b0ad44bdf7502458532cf4e0eee93385604051610516929190611034565b60405180910390a150505050565b60006020528060005260406000206000915054906101000a900460ff1681565b6000803373ffffffffffffffffffffffffffffffffffffffff1673ffffffffffffffffffffffffffffffffffffffff16815260200190815260200160002060009054906101000a900460ff166105c6576040517f30cd747100000000000000000000000000000000000000000000000000000000815260040160405180910390fd5b8060045460016000600454815260200190815260200160002060000154111561061b576040517fc929b60400000000000000000000000000000000000000000000000000000000815260040160405180910390fd5b816001600082815260200190815260200160002060050160009054906101000a900460ff1615610677576040517f3ca00aa600000000000000000000000000000000000000000000000000000000815260040160405180910390fd5b6000600160008581526020019081526020016000209050600354816004015410156106ce576040517ff534d3e100000000000000000000000000000000000000000000000000000000815260040160405180910390fd5b60018160050160006101000a81548160ff02191690831515021790555060008160010160009054906101000a900473ffffffffffffffffffffffffffffffffffffffff1673ffffffffffffffffffffffffffffffffffffffff1682600201548360030160405161073e919061101d565b60006040518083038185875af1925050503d806000811461077b576040519150601f19603f3d011682016040523d82523d6000602084013e610780565b606091505b50509050806107bb576040517fab4a147c00000000000000000000000000000000000000000000000000000000815260040160405180910390fd5b5050505050565b6000803373ffffffffffffffffffffffffffffffffffffffff1673ffffffffffffffffffffffffffffffffffffffff16815260200190815260200160002060009054906101000a900460ff16610844576040517f30cd747100000000000000000000000000000000000000000000000000000000815260040160405180910390fd5b80600454600160006004548152602001908152602001600020600001541115610899576040517fc929b60400000000000000000000000000000000000000000000000000000000815260040160405180910390fd5b816001600082815260200190815260200160002060050160009054906101000a900460ff16156108f5576040517f3ca00aa600000000000000000000000000000000000000000000000000000000815260040160405180910390fd5b6002600084815260200190815260200160002060003373ffffffffffffffffffffffffffffffffffffffff1673ffffffffffffffffffffffffffffffffffffffff16815260200190815260200160002060009054906101000a900460ff1615610a2b5760006002600085815260200190815260200160002060003373ffffffffffffffffffffffffffffffffffffffff1673ffffffffffffffffffffffffffffffffffffffff16815260200190815260200160002060006101000a81548160ff0219169083151502179055506001600084815260200190815260200160002060040160008154809291906109e89061128c565b91905055507f8ac0ec85d3817644471cdaff11fb456b57808050d06be464ecb80960c69708263384604051610a1e929190611034565b60405180910390a1610a5d565b6040517f2e5f286200000000000000000000000000000000000000000000000000000000815260040160405180910390fd5b505050565b60026020528160005260406000206020528060005260406000206000915091509054906101000a900460ff1681565b60016020528060005260406000206000915090508060000154908060010160009054906101000a900473ffffffffffffffffffffffffffffffffffffffff1690806002015490806003018054610ae6906112b6565b80601f0160208091040260200160405190810160405280929190818152602001828054610b12906112b6565b8015610b5f5780601f10610b3457610100808354040283529160200191610b5f565b820191906000526020600020905b815481529060010190602001808311610b4257829003601f168201915b5050505050908060040154908060050160009054906101000a900460ff16905086565b6000803373ffffffffffffffffffffffffffffffffffffffff1673ffffffffffffffffffffffffffffffffffffffff16815260200190815260200160002060009054906101000a900460ff16610c04576040517f30cd747100000000000000000000000000000000000000000000000000000000815260040160405180910390fd5b600060016000600454815260200190815260200160002090506004548160000181905550838160010160006101000a81548173ffffffffffffffffffffffffffffffffffffffff021916908373ffffffffffffffffffffffffffffffffffffffff16021790555082816002018190555081816003019080519060200190610c8c929190610cf2565b5060046000815480929190610ca090611319565b91905055507f315d8bf6c6d36a1411ee3d8d607b26df37940936bd273e006857a296fbac2ce8848484604051610cd89392919061105d565b60405180910390a150505050565b60045481565b60035481565b828054610cfe906112b6565b90600052602060002090601f016020900481019282610d205760008555610d67565b82601f10610d3957805160ff1916838001178555610d67565b82800160010185558215610d67579182015b82811115610d66578251825591602001919060010190610d4b565b5b509050610d749190610d78565b5090565b5b80821115610d91576000816000905550600101610d79565b5090565b6000610da8610da384611195565b611170565b905082815260208101848484011115610dc457610dc36113f4565b5b610dcf84828561124a565b509392505050565b600081359050610de681611414565b92915050565b600082601f830112610e0157610e006113ef565b5b8135610e11848260208601610d95565b91505092915050565b600081359050610e298161142b565b92915050565b600060208284031215610e4557610e446113fe565b5b6000610e5384828501610dd7565b91505092915050565b600080600060608486031215610e7557610e746113fe565b5b6000610e8386828701610dd7565b9350506020610e9486828701610e1a565b925050604084013567ffffffffffffffff811115610eb557610eb46113f9565b5b610ec186828701610dec565b9150509250925092565b600060208284031215610ee157610ee06113fe565b5b6000610eef84828501610e1a565b91505092915050565b60008060408385031215610f0f57610f0e6113fe565b5b6000610f1d85828601610e1a565b9250506020610f2e85828601610dd7565b9150509250929050565b610f4181611202565b82525050565b610f5081611214565b82525050565b6000610f61826111db565b610f6b81856111e6565b9350610f7b818560208601611259565b610f8481611403565b840191505092915050565b60008154610f9c816112b6565b610fa681866111f7565b94506001821660008114610fc15760018114610fd257611005565b60ff19831686528186019350611005565b610fdb856111c6565b60005b83811015610ffd57815481890152600182019150602081019050610fde565b838801955050505b50505092915050565b61101781611240565b82525050565b60006110298284610f8f565b915081905092915050565b60006040820190506110496000830185610f38565b611056602083018461100e565b9392505050565b60006060820190506110726000830186610f38565b61107f602083018561100e565b81810360408301526110918184610f56565b9050949350505050565b60006060820190506110b06000830186610f38565b6110bd602083018561100e565b6110ca604083018461100e565b949350505050565b60006020820190506110e76000830184610f47565b92915050565b6000602082019050611102600083018461100e565b92915050565b600060c08201905061111d600083018961100e565b61112a6020830188610f38565b611137604083018761100e565b81810360608301526111498186610f56565b9050611158608083018561100e565b61116560a0830184610f47565b979650505050505050565b600061117a61118b565b905061118682826112e8565b919050565b6000604051905090565b600067ffffffffffffffff8211156111b0576111af6113c0565b5b6111b982611403565b9050602081019050919050565b60008190508160005260206000209050919050565b600081519050919050565b600082825260208201905092915050565b600081905092915050565b600061120d82611220565b9050919050565b60008115159050919050565b600073ffffffffffffffffffffffffffffffffffffffff82169050919050565b6000819050919050565b82818337600083830152505050565b60005b8381101561127757808201518184015260208101905061125c565b83811115611286576000848401525b50505050565b600061129782611240565b915060008214156112ab576112aa611362565b5b600182039050919050565b600060028204905060018216806112ce57607f821691505b602082108114156112e2576112e1611391565b5b50919050565b6112f182611403565b810181811067ffffffffffffffff821117156113105761130f6113c0565b5b80604052505050565b600061132482611240565b91507fffffffffffffffffffffffffffffffffffffffffffffffffffffffffffffffff82141561135757611356611362565b5b600182019050919050565b7f4e487b7100000000000000000000000000000000000000000000000000000000600052601160045260246000fd5b7f4e487b7100000000000000000000000000000000000000000000000000000000600052602260045260246000fd5b7f4e487b7100000000000000000000000000000000000000000000000000000000600052604160045260246000fd5b600080fd5b600080fd5b600080fd5b600080fd5b6000601f19601f8301169050919050565b61141d81611202565b811461142857600080fd5b50565b61143481611240565b811461143f57600080fd5b5056fea264697066735822122041a442f8fad1cfa8ef4f60153e46d0bc54cabdb38092b20114284965bdc61cf464736f6c63430008070033",
					"opcodes": "PUSH1 0x80 PUSH1 0x40 MSTORE CALLVALUE DUP1 ISZERO PUSH3 0x11 JUMPI PUSH1 0x0 DUP1 REVERT JUMPDEST POP PUSH1 0x40 MLOAD PUSH3 0x195A CODESIZE SUB DUP1 PUSH3 0x195A DUP4 CODECOPY DUP2 DUP2 ADD PUSH1 0x40 MSTORE DUP2 ADD SWAP1 PUSH3 0x37 SWAP2 SWAP1 PUSH3 0x26C JUMP JUMPDEST DUP1 MLOAD DUP3 GT ISZERO PUSH3 0x73 JUMPI PUSH1 0x40 MLOAD PUSH32 0x2730657000000000000000000000000000000000000000000000000000000000 DUP2 MSTORE PUSH1 0x4 ADD PUSH1 0x40 MLOAD DUP1 SWAP2 SUB SWAP1 REVERT JUMPDEST PUSH1 0x0 JUMPDEST DUP2 MLOAD DUP2 LT ISZERO PUSH3 0x187 JUMPI PUSH1 0x0 DUP3 DUP3 DUP2 MLOAD DUP2 LT PUSH3 0x98 JUMPI PUSH3 0x97 PUSH3 0x41B JUMP JUMPDEST JUMPDEST PUSH1 0x20 MUL PUSH1 0x20 ADD ADD MLOAD SWAP1 POP PUSH1 0x0 DUP1 DUP3 PUSH20 0xFFFFFFFFFFFFFFFFFFFFFFFFFFFFFFFFFFFFFFFF AND PUSH20 0xFFFFFFFFFFFFFFFFFFFFFFFFFFFFFFFFFFFFFFFF AND DUP2 MSTORE PUSH1 0x20 ADD SWAP1 DUP2 MSTORE PUSH1 0x20 ADD PUSH1 0x0 KECCAK256 PUSH1 0x0 SWAP1 SLOAD SWAP1 PUSH2 0x100 EXP SWAP1 DIV PUSH1 0xFF AND ISZERO PUSH3 0x126 JUMPI PUSH1 0x40 MLOAD PUSH32 0xC0159E0E00000000000000000000000000000000000000000000000000000000 DUP2 MSTORE PUSH1 0x4 ADD PUSH1 0x40 MLOAD DUP1 SWAP2 SUB SWAP1 REVERT JUMPDEST PUSH1 0x0 DUP1 DUP3 PUSH20 0xFFFFFFFFFFFFFFFFFFFFFFFFFFFFFFFFFFFFFFFF AND PUSH20 0xFFFFFFFFFFFFFFFFFFFFFFFFFFFFFFFFFFFFFFFF AND DUP2 MSTORE PUSH1 0x20 ADD SWAP1 DUP2 MSTORE PUSH1 0x20 ADD PUSH1 0x0 KECCAK256 PUSH1 0x0 SWAP1 SLOAD SWAP1 PUSH2 0x100 EXP SWAP1 POP POP POP DUP1 DUP1 PUSH3 0x17E SWAP1 PUSH3 0x39E JUMP JUMPDEST SWAP2 POP POP PUSH3 0x76 JUMP JUMPDEST POP POP POP PUSH3 0x4D2 JUMP JUMPDEST PUSH1 0x0 PUSH3 0x1A7 PUSH3 0x1A1 DUP5 PUSH3 0x2FB JUMP JUMPDEST PUSH3 0x2D2 JUMP JUMPDEST SWAP1 POP DUP1 DUP4 DUP3 MSTORE PUSH1 0x20 DUP3 ADD SWAP1 POP DUP3 DUP6 PUSH1 0x20 DUP7 MUL DUP3 ADD GT ISZERO PUSH3 0x1CD JUMPI PUSH3 0x1CC PUSH3 0x47E JUMP JUMPDEST JUMPDEST PUSH1 0x0 JUMPDEST DUP6 DUP2 LT ISZERO PUSH3 0x201 JUMPI DUP2 PUSH3 0x1E6 DUP9 DUP3 PUSH3 0x20B JUMP JUMPDEST DUP5 MSTORE PUSH1 0x20 DUP5 ADD SWAP4 POP PUSH1 0x20 DUP4 ADD SWAP3 POP POP PUSH1 0x1 DUP2 ADD SWAP1 POP PUSH3 0x1D0 JUMP JUMPDEST POP POP POP SWAP4 SWAP3 POP POP POP JUMP JUMPDEST PUSH1 0x0 DUP2 MLOAD SWAP1 POP PUSH3 0x21C DUP2 PUSH3 0x49E JUMP JUMPDEST SWAP3 SWAP2 POP POP JUMP JUMPDEST PUSH1 0x0 DUP3 PUSH1 0x1F DUP4 ADD SLT PUSH3 0x23A JUMPI PUSH3 0x239 PUSH3 0x479 JUMP JUMPDEST JUMPDEST DUP2 MLOAD PUSH3 0x24C DUP5 DUP3 PUSH1 0x20 DUP7 ADD PUSH3 0x190 JUMP JUMPDEST SWAP2 POP POP SWAP3 SWAP2 POP POP JUMP JUMPDEST PUSH1 0x0 DUP2 MLOAD SWAP1 POP PUSH3 0x266 DUP2 PUSH3 0x4B8 JUMP JUMPDEST SWAP3 SWAP2 POP POP JUMP JUMPDEST PUSH1 0x0 DUP1 PUSH1 0x40 DUP4 DUP6 SUB SLT ISZERO PUSH3 0x286 JUMPI PUSH3 0x285 PUSH3 0x488 JUMP JUMPDEST JUMPDEST PUSH1 0x0 PUSH3 0x296 DUP6 DUP3 DUP7 ADD PUSH3 0x255 JUMP JUMPDEST SWAP3 POP POP PUSH1 0x20 DUP4 ADD MLOAD PUSH8 0xFFFFFFFFFFFFFFFF DUP2 GT ISZERO PUSH3 0x2BA JUMPI PUSH3 0x2B9 PUSH3 0x483 JUMP JUMPDEST JUMPDEST PUSH3 0x2C8 DUP6 DUP3 DUP7 ADD PUSH3 0x222 JUMP JUMPDEST SWAP2 POP POP SWAP3 POP SWAP3 SWAP1 POP JUMP JUMPDEST PUSH1 0x0 PUSH3 0x2DE PUSH3 0x2F1 JUMP JUMPDEST SWAP1 POP PUSH3 0x2EC DUP3 DUP3 PUSH3 0x368 JUMP JUMPDEST SWAP2 SWAP1 POP JUMP JUMPDEST PUSH1 0x0 PUSH1 0x40 MLOAD SWAP1 POP SWAP1 JUMP JUMPDEST PUSH1 0x0 PUSH8 0xFFFFFFFFFFFFFFFF DUP3 GT ISZERO PUSH3 0x319 JUMPI PUSH3 0x318 PUSH3 0x44A JUMP JUMPDEST JUMPDEST PUSH1 0x20 DUP3 MUL SWAP1 POP PUSH1 0x20 DUP2 ADD SWAP1 POP SWAP2 SWAP1 POP JUMP JUMPDEST PUSH1 0x0 PUSH3 0x337 DUP3 PUSH3 0x33E JUMP JUMPDEST SWAP1 POP SWAP2 SWAP1 POP JUMP JUMPDEST PUSH1 0x0 PUSH20 0xFFFFFFFFFFFFFFFFFFFFFFFFFFFFFFFFFFFFFFFF DUP3 AND SWAP1 POP SWAP2 SWAP1 POP JUMP JUMPDEST PUSH1 0x0 DUP2 SWAP1 POP SWAP2 SWAP1 POP JUMP JUMPDEST PUSH3 0x373 DUP3 PUSH3 0x48D JUMP JUMPDEST DUP2 ADD DUP2 DUP2 LT PUSH8 0xFFFFFFFFFFFFFFFF DUP3 GT OR ISZERO PUSH3 0x395 JUMPI PUSH3 0x394 PUSH3 0x44A JUMP JUMPDEST JUMPDEST DUP1 PUSH1 0x40 MSTORE POP POP POP JUMP JUMPDEST PUSH1 0x0 PUSH3 0x3AB DUP3 PUSH3 0x35E JUMP JUMPDEST SWAP2 POP PUSH32 0xFFFFFFFFFFFFFFFFFFFFFFFFFFFFFFFFFFFFFFFFFFFFFFFFFFFFFFFFFFFFFFFF DUP3 EQ ISZERO PUSH3 0x3E1 JUMPI PUSH3 0x3E0 PUSH3 0x3EC JUMP JUMPDEST JUMPDEST PUSH1 0x1 DUP3 ADD SWAP1 POP SWAP2 SWAP1 POP JUMP JUMPDEST PUSH32 0x4E487B7100000000000000000000000000000000000000000000000000000000 PUSH1 0x0 MSTORE PUSH1 0x11 PUSH1 0x4 MSTORE PUSH1 0x24 PUSH1 0x0 REVERT JUMPDEST PUSH32 0x4E487B7100000000000000000000000000000000000000000000000000000000 PUSH1 0x0 MSTORE PUSH1 0x32 PUSH1 0x4 MSTORE PUSH1 0x24 PUSH1 0x0 REVERT JUMPDEST PUSH32 0x4E487B7100000000000000000000000000000000000000000000000000000000 PUSH1 0x0 MSTORE PUSH1 0x41 PUSH1 0x4 MSTORE PUSH1 0x24 PUSH1 0x0 REVERT JUMPDEST PUSH1 0x0 DUP1 REVERT JUMPDEST PUSH1 0x0 DUP1 REVERT JUMPDEST PUSH1 0x0 DUP1 REVERT JUMPDEST PUSH1 0x0 DUP1 REVERT JUMPDEST PUSH1 0x0 PUSH1 0x1F NOT PUSH1 0x1F DUP4 ADD AND SWAP1 POP SWAP2 SWAP1 POP JUMP JUMPDEST PUSH3 0x4A9 DUP2 PUSH3 0x32A JUMP JUMPDEST DUP2 EQ PUSH3 0x4B5 JUMPI PUSH1 0x0 DUP1 REVERT JUMPDEST POP JUMP JUMPDEST PUSH3 0x4C3 DUP2 PUSH3 0x35E JUMP JUMPDEST DUP2 EQ PUSH3 0x4CF JUMPI PUSH1 0x0 DUP1 REVERT JUMPDEST POP JUMP JUMPDEST PUSH2 0x1478 DUP1 PUSH3 0x4E2 PUSH1 0x0 CODECOPY PUSH1 0x0 RETURN INVALID PUSH1 0x80 PUSH1 0x40 MSTORE PUSH1 0x4 CALLDATASIZE LT PUSH2 0x8A JUMPI PUSH1 0x0 CALLDATALOAD PUSH1 0xE0 SHR DUP1 PUSH4 0x8253951A GT PUSH2 0x59 JUMPI DUP1 PUSH4 0x8253951A EQ PUSH2 0x189 JUMPI DUP1 PUSH4 0x9ACE38C2 EQ PUSH2 0x1C6 JUMPI DUP1 PUSH4 0xBB84C5A9 EQ PUSH2 0x208 JUMPI DUP1 PUSH4 0xCD568D1F EQ PUSH2 0x231 JUMPI DUP1 PUSH4 0xDC8452CD EQ PUSH2 0x25C JUMPI PUSH2 0xCC JUMP JUMPDEST DUP1 PUSH4 0x1087393A EQ PUSH2 0xD1 JUMPI DUP1 PUSH4 0x2F54BF6E EQ PUSH2 0xFA JUMPI DUP1 PUSH4 0x54B5FE80 EQ PUSH2 0x137 JUMPI DUP1 PUSH4 0x5986AACA EQ PUSH2 0x160 JUMPI PUSH2 0xCC JUMP JUMPDEST CALLDATASIZE PUSH2 0xCC JUMPI PUSH32 0x90890809C654F11D6E72A28FA60149770A0D11EC6C92319D6CEB2BB0A4EA1A15 CALLER CALLVALUE SELFBALANCE PUSH1 0x40 MLOAD PUSH2 0xC2 SWAP4 SWAP3 SWAP2 SWAP1 PUSH2 0x109B JUMP JUMPDEST PUSH1 0x40 MLOAD DUP1 SWAP2 SUB SWAP1 LOG1 STOP JUMPDEST PUSH1 0x0 DUP1 REVERT JUMPDEST CALLVALUE DUP1 ISZERO PUSH2 0xDD JUMPI PUSH1 0x0 DUP1 REVERT JUMPDEST POP PUSH2 0xF8 PUSH1 0x4 DUP1 CALLDATASIZE SUB DUP2 ADD SWAP1 PUSH2 0xF3 SWAP2 SWAP1 PUSH2 0xECB JUMP JUMPDEST PUSH2 0x287 JUMP JUMPDEST STOP JUMPDEST CALLVALUE DUP1 ISZERO PUSH2 0x106 JUMPI PUSH1 0x0 DUP1 REVERT JUMPDEST POP PUSH2 0x121 PUSH1 0x4 DUP1 CALLDATASIZE SUB DUP2 ADD SWAP1 PUSH2 0x11C SWAP2 SWAP1 PUSH2 0xE2F JUMP JUMPDEST PUSH2 0x524 JUMP JUMPDEST PUSH1 0x40 MLOAD PUSH2 0x12E SWAP2 SWAP1 PUSH2 0x10D2 JUMP JUMPDEST PUSH1 0x40 MLOAD DUP1 SWAP2 SUB SWAP1 RETURN JUMPDEST CALLVALUE DUP1 ISZERO PUSH2 0x143 JUMPI PUSH1 0x0 DUP1 REVERT JUMPDEST POP PUSH2 0x15E PUSH1 0x4 DUP1 CALLDATASIZE SUB DUP2 ADD SWAP1 PUSH2 0x159 SWAP2 SWAP1 PUSH2 0xECB JUMP JUMPDEST PUSH2 0x544 JUMP JUMPDEST STOP JUMPDEST CALLVALUE DUP1 ISZERO PUSH2 0x16C JUMPI PUSH1 0x0 DUP1 REVERT JUMPDEST POP PUSH2 0x187 PUSH1 0x4 DUP1 CALLDATASIZE SUB DUP2 ADD SWAP1 PUSH2 0x182 SWAP2 SWAP1 PUSH2 0xECB JUMP JUMPDEST PUSH2 0x7C2 JUMP JUMPDEST STOP JUMPDEST CALLVALUE DUP1 ISZERO PUSH2 0x195 JUMPI PUSH1 0x0 DUP1 REVERT JUMPDEST POP PUSH2 0x1B0 PUSH1 0x4 DUP1 CALLDATASIZE SUB DUP2 ADD SWAP1 PUSH2 0x1AB SWAP2 SWAP1 PUSH2 0xEF8 JUMP JUMPDEST PUSH2 0xA62 JUMP JUMPDEST PUSH1 0x40 MLOAD PUSH2 0x1BD SWAP2 SWAP1 PUSH2 0x10D2 JUMP JUMPDEST PUSH1 0x40 MLOAD DUP1 SWAP2 SUB SWAP1 RETURN JUMPDEST CALLVALUE DUP1 ISZERO PUSH2 0x1D2 JUMPI PUSH1 0x0 DUP1 REVERT JUMPDEST POP PUSH2 0x1ED PUSH1 0x4 DUP1 CALLDATASIZE SUB DUP2 ADD SWAP1 PUSH2 0x1E8 SWAP2 SWAP1 PUSH2 0xECB JUMP JUMPDEST PUSH2 0xA91 JUMP JUMPDEST PUSH1 0x40 MLOAD PUSH2 0x1FF SWAP7 SWAP6 SWAP5 SWAP4 SWAP3 SWAP2 SWAP1 PUSH2 0x1108 JUMP JUMPDEST PUSH1 0x40 MLOAD DUP1 SWAP2 SUB SWAP1 RETURN JUMPDEST CALLVALUE DUP1 ISZERO PUSH2 0x214 JUMPI PUSH1 0x0 DUP1 REVERT JUMPDEST POP PUSH2 0x22F PUSH1 0x4 DUP1 CALLDATASIZE SUB DUP2 ADD SWAP1 PUSH2 0x22A SWAP2 SWAP1 PUSH2 0xE5C JUMP JUMPDEST PUSH2 0xB82 JUMP JUMPDEST STOP JUMPDEST CALLVALUE DUP1 ISZERO PUSH2 0x23D JUMPI PUSH1 0x0 DUP1 REVERT JUMPDEST POP PUSH2 0x246 PUSH2 0xCE6 JUMP JUMPDEST PUSH1 0x40 MLOAD PUSH2 0x253 SWAP2 SWAP1 PUSH2 0x10ED JUMP JUMPDEST PUSH1 0x40 MLOAD DUP1 SWAP2 SUB SWAP1 RETURN JUMPDEST CALLVALUE DUP1 ISZERO PUSH2 0x268 JUMPI PUSH1 0x0 DUP1 REVERT JUMPDEST POP PUSH2 0x271 PUSH2 0xCEC JUMP JUMPDEST PUSH1 0x40 MLOAD PUSH2 0x27E SWAP2 SWAP1 PUSH2 0x10ED JUMP JUMPDEST PUSH1 0x40 MLOAD DUP1 SWAP2 SUB SWAP1 RETURN JUMPDEST PUSH1 0x0 DUP1 CALLER PUSH20 0xFFFFFFFFFFFFFFFFFFFFFFFFFFFFFFFFFFFFFFFF AND PUSH20 0xFFFFFFFFFFFFFFFFFFFFFFFFFFFFFFFFFFFFFFFF AND DUP2 MSTORE PUSH1 0x20 ADD SWAP1 DUP2 MSTORE PUSH1 0x20 ADD PUSH1 0x0 KECCAK256 PUSH1 0x0 SWAP1 SLOAD SWAP1 PUSH2 0x100 EXP SWAP1 DIV PUSH1 0xFF AND PUSH2 0x309 JUMPI PUSH1 0x40 MLOAD PUSH32 0x30CD747100000000000000000000000000000000000000000000000000000000 DUP2 MSTORE PUSH1 0x4 ADD PUSH1 0x40 MLOAD DUP1 SWAP2 SUB SWAP1 REVERT JUMPDEST DUP1 PUSH1 0x4 SLOAD PUSH1 0x1 PUSH1 0x0 PUSH1 0x4 SLOAD DUP2 MSTORE PUSH1 0x20 ADD SWAP1 DUP2 MSTORE PUSH1 0x20 ADD PUSH1 0x0 KECCAK256 PUSH1 0x0 ADD SLOAD GT ISZERO PUSH2 0x35E JUMPI PUSH1 0x40 MLOAD PUSH32 0xC929B60400000000000000000000000000000000000000000000000000000000 DUP2 MSTORE PUSH1 0x4 ADD PUSH1 0x40 MLOAD DUP1 SWAP2 SUB SWAP1 REVERT JUMPDEST DUP2 PUSH1 0x1 PUSH1 0x0 DUP3 DUP2 MSTORE PUSH1 0x20 ADD SWAP1 DUP2 MSTORE PUSH1 0x20 ADD PUSH1 0x0 KECCAK256 PUSH1 0x5 ADD PUSH1 0x0 SWAP1 SLOAD SWAP1 PUSH2 0x100 EXP SWAP1 DIV PUSH1 0xFF AND ISZERO PUSH2 0x3BA JUMPI PUSH1 0x40 MLOAD PUSH32 0x3CA00AA600000000000000000000000000000000000000000000000000000000 DUP2 MSTORE PUSH1 0x4 ADD PUSH1 0x40 MLOAD DUP1 SWAP2 SUB SWAP1 REVERT JUMPDEST DUP3 PUSH1 0x2 PUSH1 0x0 DUP3 DUP2 MSTORE PUSH1 0x20 ADD SWAP1 DUP2 MSTORE PUSH1 0x20 ADD PUSH1 0x0 KECCAK256 PUSH1 0x0 CALLER PUSH20 0xFFFFFFFFFFFFFFFFFFFFFFFFFFFFFFFFFFFFFFFF AND PUSH20 0xFFFFFFFFFFFFFFFFFFFFFFFFFFFFFFFFFFFFFFFF AND DUP2 MSTORE PUSH1 0x20 ADD SWAP1 DUP2 MSTORE PUSH1 0x20 ADD PUSH1 0x0 KECCAK256 PUSH1 0x0 SWAP1 SLOAD SWAP1 PUSH2 0x100 EXP SWAP1 DIV PUSH1 0xFF AND ISZERO PUSH2 0x450 JUMPI PUSH1 0x40 MLOAD PUSH32 0xFCAEAB4C00000000000000000000000000000000000000000000000000000000 DUP2 MSTORE PUSH1 0x4 ADD PUSH1 0x40 MLOAD DUP1 SWAP2 SUB SWAP1 REVERT JUMPDEST PUSH1 0x1 PUSH1 0x0 DUP6 DUP2 MSTORE PUSH1 0x20 ADD SWAP1 DUP2 MSTORE PUSH1 0x20 ADD PUSH1 0x0 KECCAK256 PUSH1 0x4 ADD PUSH1 0x0 DUP2 SLOAD DUP1 SWAP3 SWAP2 SWAP1 PUSH2 0x477 SWAP1 PUSH2 0x1319 JUMP JUMPDEST SWAP2 SWAP1 POP SSTORE POP PUSH1 0x1 PUSH1 0x2 PUSH1 0x0 DUP7 DUP2 MSTORE PUSH1 0x20 ADD SWAP1 DUP2 MSTORE PUSH1 0x20 ADD PUSH1 0x0 KECCAK256 PUSH1 0x0 CALLER PUSH20 0xFFFFFFFFFFFFFFFFFFFFFFFFFFFFFFFFFFFFFFFF AND PUSH20 0xFFFFFFFFFFFFFFFFFFFFFFFFFFFFFFFFFFFFFFFF AND DUP2 MSTORE PUSH1 0x20 ADD SWAP1 DUP2 MSTORE PUSH1 0x20 ADD PUSH1 0x0 KECCAK256 PUSH1 0x0 PUSH2 0x100 EXP DUP2 SLOAD DUP2 PUSH1 0xFF MUL NOT AND SWAP1 DUP4 ISZERO ISZERO MUL OR SWAP1 SSTORE POP PUSH32 0x630C3FC0C5609BA2AC38919291F39D2BB42B0AD44BDF7502458532CF4E0EEE9 CALLER DUP6 PUSH1 0x40 MLOAD PUSH2 0x516 SWAP3 SWAP2 SWAP1 PUSH2 0x1034 JUMP JUMPDEST PUSH1 0x40 MLOAD DUP1 SWAP2 SUB SWAP1 LOG1 POP POP POP POP JUMP JUMPDEST PUSH1 0x0 PUSH1 0x20 MSTORE DUP1 PUSH1 0x0 MSTORE PUSH1 0x40 PUSH1 0x0 KECCAK256 PUSH1 0x0 SWAP2 POP SLOAD SWAP1 PUSH2 0x100 EXP SWAP1 DIV PUSH1 0xFF AND DUP2 JUMP JUMPDEST PUSH1 0x0 DUP1 CALLER PUSH20 0xFFFFFFFFFFFFFFFFFFFFFFFFFFFFFFFFFFFFFFFF AND PUSH20 0xFFFFFFFFFFFFFFFFFFFFFFFFFFFFFFFFFFFFFFFF AND DUP2 MSTORE PUSH1 0x20 ADD SWAP1 DUP2 MSTORE PUSH1 0x20 ADD PUSH1 0x0 KECCAK256 PUSH1 0x0 SWAP1 SLOAD SWAP1 PUSH2 0x100 EXP SWAP1 DIV PUSH1 0xFF AND PUSH2 0x5C6 JUMPI PUSH1 0x40 MLOAD PUSH32 0x30CD747100000000000000000000000000000000000000000000000000000000 DUP2 MSTORE PUSH1 0x4 ADD PUSH1 0x40 MLOAD DUP1 SWAP2 SUB SWAP1 REVERT JUMPDEST DUP1 PUSH1 0x4 SLOAD PUSH1 0x1 PUSH1 0x0 PUSH1 0x4 SLOAD DUP2 MSTORE PUSH1 0x20 ADD SWAP1 DUP2 MSTORE PUSH1 0x20 ADD PUSH1 0x0 KECCAK256 PUSH1 0x0 ADD SLOAD GT ISZERO PUSH2 0x61B JUMPI PUSH1 0x40 MLOAD PUSH32 0xC929B60400000000000000000000000000000000000000000000000000000000 DUP2 MSTORE PUSH1 0x4 ADD PUSH1 0x40 MLOAD DUP1 SWAP2 SUB SWAP1 REVERT JUMPDEST DUP2 PUSH1 0x1 PUSH1 0x0 DUP3 DUP2 MSTORE PUSH1 0x20 ADD SWAP1 DUP2 MSTORE PUSH1 0x20 ADD PUSH1 0x0 KECCAK256 PUSH1 0x5 ADD PUSH1 0x0 SWAP1 SLOAD SWAP1 PUSH2 0x100 EXP SWAP1 DIV PUSH1 0xFF AND ISZERO PUSH2 0x677 JUMPI PUSH1 0x40 MLOAD PUSH32 0x3CA00AA600000000000000000000000000000000000000000000000000000000 DUP2 MSTORE PUSH1 0x4 ADD PUSH1 0x40 MLOAD DUP1 SWAP2 SUB SWAP1 REVERT JUMPDEST PUSH1 0x0 PUSH1 0x1 PUSH1 0x0 DUP6 DUP2 MSTORE PUSH1 0x20 ADD SWAP1 DUP2 MSTORE PUSH1 0x20 ADD PUSH1 0x0 KECCAK256 SWAP1 POP PUSH1 0x3 SLOAD DUP2 PUSH1 0x4 ADD SLOAD LT ISZERO PUSH2 0x6CE JUMPI PUSH1 0x40 MLOAD PUSH32 0xF534D3E100000000000000000000000000000000000000000000000000000000 DUP2 MSTORE PUSH1 0x4 ADD PUSH1 0x40 MLOAD DUP1 SWAP2 SUB SWAP1 REVERT JUMPDEST PUSH1 0x1 DUP2 PUSH1 0x5 ADD PUSH1 0x0 PUSH2 0x100 EXP DUP2 SLOAD DUP2 PUSH1 0xFF MUL NOT AND SWAP1 DUP4 ISZERO ISZERO MUL OR SWAP1 SSTORE POP PUSH1 0x0 DUP2 PUSH1 0x1 ADD PUSH1 0x0 SWAP1 SLOAD SWAP1 PUSH2 0x100 EXP SWAP1 DIV PUSH20 0xFFFFFFFFFFFFFFFFFFFFFFFFFFFFFFFFFFFFFFFF AND PUSH20 0xFFFFFFFFFFFFFFFFFFFFFFFFFFFFFFFFFFFFFFFF AND DUP3 PUSH1 0x2 ADD SLOAD DUP4 PUSH1 0x3 ADD PUSH1 0x40 MLOAD PUSH2 0x73E SWAP2 SWAP1 PUSH2 0x101D JUMP JUMPDEST PUSH1 0x0 PUSH1 0x40 MLOAD DUP1 DUP4 SUB DUP2 DUP6 DUP8 GAS CALL SWAP3 POP POP POP RETURNDATASIZE DUP1 PUSH1 0x0 DUP2 EQ PUSH2 0x77B JUMPI PUSH1 0x40 MLOAD SWAP2 POP PUSH1 0x1F NOT PUSH1 0x3F RETURNDATASIZE ADD AND DUP3 ADD PUSH1 0x40 MSTORE RETURNDATASIZE DUP3 MSTORE RETURNDATASIZE PUSH1 0x0 PUSH1 0x20 DUP5 ADD RETURNDATACOPY PUSH2 0x780 JUMP JUMPDEST PUSH1 0x60 SWAP2 POP JUMPDEST POP POP SWAP1 POP DUP1 PUSH2 0x7BB JUMPI PUSH1 0x40 MLOAD PUSH32 0xAB4A147C00000000000000000000000000000000000000000000000000000000 DUP2 MSTORE PUSH1 0x4 ADD PUSH1 0x40 MLOAD DUP1 SWAP2 SUB SWAP1 REVERT JUMPDEST POP POP POP POP POP JUMP JUMPDEST PUSH1 0x0 DUP1 CALLER PUSH20 0xFFFFFFFFFFFFFFFFFFFFFFFFFFFFFFFFFFFFFFFF AND PUSH20 0xFFFFFFFFFFFFFFFFFFFFFFFFFFFFFFFFFFFFFFFF AND DUP2 MSTORE PUSH1 0x20 ADD SWAP1 DUP2 MSTORE PUSH1 0x20 ADD PUSH1 0x0 KECCAK256 PUSH1 0x0 SWAP1 SLOAD SWAP1 PUSH2 0x100 EXP SWAP1 DIV PUSH1 0xFF AND PUSH2 0x844 JUMPI PUSH1 0x40 MLOAD PUSH32 0x30CD747100000000000000000000000000000000000000000000000000000000 DUP2 MSTORE PUSH1 0x4 ADD PUSH1 0x40 MLOAD DUP1 SWAP2 SUB SWAP1 REVERT JUMPDEST DUP1 PUSH1 0x4 SLOAD PUSH1 0x1 PUSH1 0x0 PUSH1 0x4 SLOAD DUP2 MSTORE PUSH1 0x20 ADD SWAP1 DUP2 MSTORE PUSH1 0x20 ADD PUSH1 0x0 KECCAK256 PUSH1 0x0 ADD SLOAD GT ISZERO PUSH2 0x899 JUMPI PUSH1 0x40 MLOAD PUSH32 0xC929B60400000000000000000000000000000000000000000000000000000000 DUP2 MSTORE PUSH1 0x4 ADD PUSH1 0x40 MLOAD DUP1 SWAP2 SUB SWAP1 REVERT JUMPDEST DUP2 PUSH1 0x1 PUSH1 0x0 DUP3 DUP2 MSTORE PUSH1 0x20 ADD SWAP1 DUP2 MSTORE PUSH1 0x20 ADD PUSH1 0x0 KECCAK256 PUSH1 0x5 ADD PUSH1 0x0 SWAP1 SLOAD SWAP1 PUSH2 0x100 EXP SWAP1 DIV PUSH1 0xFF AND ISZERO PUSH2 0x8F5 JUMPI PUSH1 0x40 MLOAD PUSH32 0x3CA00AA600000000000000000000000000000000000000000000000000000000 DUP2 MSTORE PUSH1 0x4 ADD PUSH1 0x40 MLOAD DUP1 SWAP2 SUB SWAP1 REVERT JUMPDEST PUSH1 0x2 PUSH1 0x0 DUP5 DUP2 MSTORE PUSH1 0x20 ADD SWAP1 DUP2 MSTORE PUSH1 0x20 ADD PUSH1 0x0 KECCAK256 PUSH1 0x0 CALLER PUSH20 0xFFFFFFFFFFFFFFFFFFFFFFFFFFFFFFFFFFFFFFFF AND PUSH20 0xFFFFFFFFFFFFFFFFFFFFFFFFFFFFFFFFFFFFFFFF AND DUP2 MSTORE PUSH1 0x20 ADD SWAP1 DUP2 MSTORE PUSH1 0x20 ADD PUSH1 0x0 KECCAK256 PUSH1 0x0 SWAP1 SLOAD SWAP1 PUSH2 0x100 EXP SWAP1 DIV PUSH1 0xFF AND ISZERO PUSH2 0xA2B JUMPI PUSH1 0x0 PUSH1 0x2 PUSH1 0x0 DUP6 DUP2 MSTORE PUSH1 0x20 ADD SWAP1 DUP2 MSTORE PUSH1 0x20 ADD PUSH1 0x0 KECCAK256 PUSH1 0x0 CALLER PUSH20 0xFFFFFFFFFFFFFFFFFFFFFFFFFFFFFFFFFFFFFFFF AND PUSH20 0xFFFFFFFFFFFFFFFFFFFFFFFFFFFFFFFFFFFFFFFF AND DUP2 MSTORE PUSH1 0x20 ADD SWAP1 DUP2 MSTORE PUSH1 0x20 ADD PUSH1 0x0 KECCAK256 PUSH1 0x0 PUSH2 0x100 EXP DUP2 SLOAD DUP2 PUSH1 0xFF MUL NOT AND SWAP1 DUP4 ISZERO ISZERO MUL OR SWAP1 SSTORE POP PUSH1 0x1 PUSH1 0x0 DUP5 DUP2 MSTORE PUSH1 0x20 ADD SWAP1 DUP2 MSTORE PUSH1 0x20 ADD PUSH1 0x0 KECCAK256 PUSH1 0x4 ADD PUSH1 0x0 DUP2 SLOAD DUP1 SWAP3 SWAP2 SWAP1 PUSH2 0x9E8 SWAP1 PUSH2 0x128C JUMP JUMPDEST SWAP2 SWAP1 POP SSTORE POP PUSH32 0x8AC0EC85D3817644471CDAFF11FB456B57808050D06BE464ECB80960C6970826 CALLER DUP5 PUSH1 0x40 MLOAD PUSH2 0xA1E SWAP3 SWAP2 SWAP1 PUSH2 0x1034 JUMP JUMPDEST PUSH1 0x40 MLOAD DUP1 SWAP2 SUB SWAP1 LOG1 PUSH2 0xA5D JUMP JUMPDEST PUSH1 0x40 MLOAD PUSH32 0x2E5F286200000000000000000000000000000000000000000000000000000000 DUP2 MSTORE PUSH1 0x4 ADD PUSH1 0x40 MLOAD DUP1 SWAP2 SUB SWAP1 REVERT JUMPDEST POP POP POP JUMP JUMPDEST PUSH1 0x2 PUSH1 0x20 MSTORE DUP2 PUSH1 0x0 MSTORE PUSH1 0x40 PUSH1 0x0 KECCAK256 PUSH1 0x20 MSTORE DUP1 PUSH1 0x0 MSTORE PUSH1 0x40 PUSH1 0x0 KECCAK256 PUSH1 0x0 SWAP2 POP SWAP2 POP SWAP1 SLOAD SWAP1 PUSH2 0x100 EXP SWAP1 DIV PUSH1 0xFF AND DUP2 JUMP JUMPDEST PUSH1 0x1 PUSH1 0x20 MSTORE DUP1 PUSH1 0x0 MSTORE PUSH1 0x40 PUSH1 0x0 KECCAK256 PUSH1 0x0 SWAP2 POP SWAP1 POP DUP1 PUSH1 0x0 ADD SLOAD SWAP1 DUP1 PUSH1 0x1 ADD PUSH1 0x0 SWAP1 SLOAD SWAP1 PUSH2 0x100 EXP SWAP1 DIV PUSH20 0xFFFFFFFFFFFFFFFFFFFFFFFFFFFFFFFFFFFFFFFF AND SWAP1 DUP1 PUSH1 0x2 ADD SLOAD SWAP1 DUP1 PUSH1 0x3 ADD DUP1 SLOAD PUSH2 0xAE6 SWAP1 PUSH2 0x12B6 JUMP JUMPDEST DUP1 PUSH1 0x1F ADD PUSH1 0x20 DUP1 SWAP2 DIV MUL PUSH1 0x20 ADD PUSH1 0x40 MLOAD SWAP1 DUP2 ADD PUSH1 0x40 MSTORE DUP1 SWAP3 SWAP2 SWAP1 DUP2 DUP2 MSTORE PUSH1 0x20 ADD DUP3 DUP1 SLOAD PUSH2 0xB12 SWAP1 PUSH2 0x12B6 JUMP JUMPDEST DUP1 ISZERO PUSH2 0xB5F JUMPI DUP1 PUSH1 0x1F LT PUSH2 0xB34 JUMPI PUSH2 0x100 DUP1 DUP4 SLOAD DIV MUL DUP4 MSTORE SWAP2 PUSH1 0x20 ADD SWAP2 PUSH2 0xB5F JUMP JUMPDEST DUP3 ADD SWAP2 SWAP1 PUSH1 0x0 MSTORE PUSH1 0x20 PUSH1 0x0 KECCAK256 SWAP1 JUMPDEST DUP2 SLOAD DUP2 MSTORE SWAP1 PUSH1 0x1 ADD SWAP1 PUSH1 0x20 ADD DUP1 DUP4 GT PUSH2 0xB42 JUMPI DUP3 SWAP1 SUB PUSH1 0x1F AND DUP3 ADD SWAP2 JUMPDEST POP POP POP POP POP SWAP1 DUP1 PUSH1 0x4 ADD SLOAD SWAP1 DUP1 PUSH1 0x5 ADD PUSH1 0x0 SWAP1 SLOAD SWAP1 PUSH2 0x100 EXP SWAP1 DIV PUSH1 0xFF AND SWAP1 POP DUP7 JUMP JUMPDEST PUSH1 0x0 DUP1 CALLER PUSH20 0xFFFFFFFFFFFFFFFFFFFFFFFFFFFFFFFFFFFFFFFF AND PUSH20 0xFFFFFFFFFFFFFFFFFFFFFFFFFFFFFFFFFFFFFFFF AND DUP2 MSTORE PUSH1 0x20 ADD SWAP1 DUP2 MSTORE PUSH1 0x20 ADD PUSH1 0x0 KECCAK256 PUSH1 0x0 SWAP1 SLOAD SWAP1 PUSH2 0x100 EXP SWAP1 DIV PUSH1 0xFF AND PUSH2 0xC04 JUMPI PUSH1 0x40 MLOAD PUSH32 0x30CD747100000000000000000000000000000000000000000000000000000000 DUP2 MSTORE PUSH1 0x4 ADD PUSH1 0x40 MLOAD DUP1 SWAP2 SUB SWAP1 REVERT JUMPDEST PUSH1 0x0 PUSH1 0x1 PUSH1 0x0 PUSH1 0x4 SLOAD DUP2 MSTORE PUSH1 0x20 ADD SWAP1 DUP2 MSTORE PUSH1 0x20 ADD PUSH1 0x0 KECCAK256 SWAP1 POP PUSH1 0x4 SLOAD DUP2 PUSH1 0x0 ADD DUP2 SWAP1 SSTORE POP DUP4 DUP2 PUSH1 0x1 ADD PUSH1 0x0 PUSH2 0x100 EXP DUP2 SLOAD DUP2 PUSH20 0xFFFFFFFFFFFFFFFFFFFFFFFFFFFFFFFFFFFFFFFF MUL NOT AND SWAP1 DUP4 PUSH20 0xFFFFFFFFFFFFFFFFFFFFFFFFFFFFFFFFFFFFFFFF AND MUL OR SWAP1 SSTORE POP DUP3 DUP2 PUSH1 0x2 ADD DUP2 SWAP1 SSTORE POP DUP2 DUP2 PUSH1 0x3 ADD SWAP1 DUP1 MLOAD SWAP1 PUSH1 0x20 ADD SWAP1 PUSH2 0xC8C SWAP3 SWAP2 SWAP1 PUSH2 0xCF2 JUMP JUMPDEST POP PUSH1 0x4 PUSH1 0x0 DUP2 SLOAD DUP1 SWAP3 SWAP2 SWAP1 PUSH2 0xCA0 SWAP1 PUSH2 0x1319 JUMP JUMPDEST SWAP2 SWAP1 POP SSTORE POP PUSH32 0x315D8BF6C6D36A1411EE3D8D607B26DF37940936BD273E006857A296FBAC2CE8 DUP5 DUP5 DUP5 PUSH1 0x40 MLOAD PUSH2 0xCD8 SWAP4 SWAP3 SWAP2 SWAP1 PUSH2 0x105D JUMP JUMPDEST PUSH1 0x40 MLOAD DUP1 SWAP2 SUB SWAP1 LOG1 POP POP POP POP JUMP JUMPDEST PUSH1 0x4 SLOAD DUP2 JUMP JUMPDEST PUSH1 0x3 SLOAD DUP2 JUMP JUMPDEST DUP3 DUP1 SLOAD PUSH2 0xCFE SWAP1 PUSH2 0x12B6 JUMP JUMPDEST SWAP1 PUSH1 0x0 MSTORE PUSH1 0x20 PUSH1 0x0 KECCAK256 SWAP1 PUSH1 0x1F ADD PUSH1 0x20 SWAP1 DIV DUP2 ADD SWAP3 DUP3 PUSH2 0xD20 JUMPI PUSH1 0x0 DUP6 SSTORE PUSH2 0xD67 JUMP JUMPDEST DUP3 PUSH1 0x1F LT PUSH2 0xD39 JUMPI DUP1 MLOAD PUSH1 0xFF NOT AND DUP4 DUP1 ADD OR DUP6 SSTORE PUSH2 0xD67 JUMP JUMPDEST DUP3 DUP1 ADD PUSH1 0x1 ADD DUP6 SSTORE DUP3 ISZERO PUSH2 0xD67 JUMPI SWAP2 DUP3 ADD JUMPDEST DUP3 DUP2 GT ISZERO PUSH2 0xD66 JUMPI DUP3 MLOAD DUP3 SSTORE SWAP2 PUSH1 0x20 ADD SWAP2 SWAP1 PUSH1 0x1 ADD SWAP1 PUSH2 0xD4B JUMP JUMPDEST JUMPDEST POP SWAP1 POP PUSH2 0xD74 SWAP2 SWAP1 PUSH2 0xD78 JUMP JUMPDEST POP SWAP1 JUMP JUMPDEST JUMPDEST DUP1 DUP3 GT ISZERO PUSH2 0xD91 JUMPI PUSH1 0x0 DUP2 PUSH1 0x0 SWAP1 SSTORE POP PUSH1 0x1 ADD PUSH2 0xD79 JUMP JUMPDEST POP SWAP1 JUMP JUMPDEST PUSH1 0x0 PUSH2 0xDA8 PUSH2 0xDA3 DUP5 PUSH2 0x1195 JUMP JUMPDEST PUSH2 0x1170 JUMP JUMPDEST SWAP1 POP DUP3 DUP2 MSTORE PUSH1 0x20 DUP2 ADD DUP5 DUP5 DUP5 ADD GT ISZERO PUSH2 0xDC4 JUMPI PUSH2 0xDC3 PUSH2 0x13F4 JUMP JUMPDEST JUMPDEST PUSH2 0xDCF DUP5 DUP3 DUP6 PUSH2 0x124A JUMP JUMPDEST POP SWAP4 SWAP3 POP POP POP JUMP JUMPDEST PUSH1 0x0 DUP2 CALLDATALOAD SWAP1 POP PUSH2 0xDE6 DUP2 PUSH2 0x1414 JUMP JUMPDEST SWAP3 SWAP2 POP POP JUMP JUMPDEST PUSH1 0x0 DUP3 PUSH1 0x1F DUP4 ADD SLT PUSH2 0xE01 JUMPI PUSH2 0xE00 PUSH2 0x13EF JUMP JUMPDEST JUMPDEST DUP2 CALLDATALOAD PUSH2 0xE11 DUP5 DUP3 PUSH1 0x20 DUP7 ADD PUSH2 0xD95 JUMP JUMPDEST SWAP2 POP POP SWAP3 SWAP2 POP POP JUMP JUMPDEST PUSH1 0x0 DUP2 CALLDATALOAD SWAP1 POP PUSH2 0xE29 DUP2 PUSH2 0x142B JUMP JUMPDEST SWAP3 SWAP2 POP POP JUMP JUMPDEST PUSH1 0x0 PUSH1 0x20 DUP3 DUP5 SUB SLT ISZERO PUSH2 0xE45 JUMPI PUSH2 0xE44 PUSH2 0x13FE JUMP JUMPDEST JUMPDEST PUSH1 0x0 PUSH2 0xE53 DUP5 DUP3 DUP6 ADD PUSH2 0xDD7 JUMP JUMPDEST SWAP2 POP POP SWAP3 SWAP2 POP POP JUMP JUMPDEST PUSH1 0x0 DUP1 PUSH1 0x0 PUSH1 0x60 DUP5 DUP7 SUB SLT ISZERO PUSH2 0xE75 JUMPI PUSH2 0xE74 PUSH2 0x13FE JUMP JUMPDEST JUMPDEST PUSH1 0x0 PUSH2 0xE83 DUP7 DUP3 DUP8 ADD PUSH2 0xDD7 JUMP JUMPDEST SWAP4 POP POP PUSH1 0x20 PUSH2 0xE94 DUP7 DUP3 DUP8 ADD PUSH2 0xE1A JUMP JUMPDEST SWAP3 POP POP PUSH1 0x40 DUP5 ADD CALLDATALOAD PUSH8 0xFFFFFFFFFFFFFFFF DUP2 GT ISZERO PUSH2 0xEB5 JUMPI PUSH2 0xEB4 PUSH2 0x13F9 JUMP JUMPDEST JUMPDEST PUSH2 0xEC1 DUP7 DUP3 DUP8 ADD PUSH2 0xDEC JUMP JUMPDEST SWAP2 POP POP SWAP3 POP SWAP3 POP SWAP3 JUMP JUMPDEST PUSH1 0x0 PUSH1 0x20 DUP3 DUP5 SUB SLT ISZERO PUSH2 0xEE1 JUMPI PUSH2 0xEE0 PUSH2 0x13FE JUMP JUMPDEST JUMPDEST PUSH1 0x0 PUSH2 0xEEF DUP5 DUP3 DUP6 ADD PUSH2 0xE1A JUMP JUMPDEST SWAP2 POP POP SWAP3 SWAP2 POP POP JUMP JUMPDEST PUSH1 0x0 DUP1 PUSH1 0x40 DUP4 DUP6 SUB SLT ISZERO PUSH2 0xF0F JUMPI PUSH2 0xF0E PUSH2 0x13FE JUMP JUMPDEST JUMPDEST PUSH1 0x0 PUSH2 0xF1D DUP6 DUP3 DUP7 ADD PUSH2 0xE1A JUMP JUMPDEST SWAP3 POP POP PUSH1 0x20 PUSH2 0xF2E DUP6 DUP3 DUP7 ADD PUSH2 0xDD7 JUMP JUMPDEST SWAP2 POP POP SWAP3 POP SWAP3 SWAP1 POP JUMP JUMPDEST PUSH2 0xF41 DUP2 PUSH2 0x1202 JUMP JUMPDEST DUP3 MSTORE POP POP JUMP JUMPDEST PUSH2 0xF50 DUP2 PUSH2 0x1214 JUMP JUMPDEST DUP3 MSTORE POP POP JUMP JUMPDEST PUSH1 0x0 PUSH2 0xF61 DUP3 PUSH2 0x11DB JUMP JUMPDEST PUSH2 0xF6B DUP2 DUP6 PUSH2 0x11E6 JUMP JUMPDEST SWAP4 POP PUSH2 0xF7B DUP2 DUP6 PUSH1 0x20 DUP7 ADD PUSH2 0x1259 JUMP JUMPDEST PUSH2 0xF84 DUP2 PUSH2 0x1403 JUMP JUMPDEST DUP5 ADD SWAP2 POP POP SWAP3 SWAP2 POP POP JUMP JUMPDEST PUSH1 0x0 DUP2 SLOAD PUSH2 0xF9C DUP2 PUSH2 0x12B6 JUMP JUMPDEST PUSH2 0xFA6 DUP2 DUP7 PUSH2 0x11F7 JUMP JUMPDEST SWAP5 POP PUSH1 0x1 DUP3 AND PUSH1 0x0 DUP2 EQ PUSH2 0xFC1 JUMPI PUSH1 0x1 DUP2 EQ PUSH2 0xFD2 JUMPI PUSH2 0x1005 JUMP JUMPDEST PUSH1 0xFF NOT DUP4 AND DUP7 MSTORE DUP2 DUP7 ADD SWAP4 POP PUSH2 0x1005 JUMP JUMPDEST PUSH2 0xFDB DUP6 PUSH2 0x11C6 JUMP JUMPDEST PUSH1 0x0 JUMPDEST DUP4 DUP2 LT ISZERO PUSH2 0xFFD JUMPI DUP2 SLOAD DUP2 DUP10 ADD MSTORE PUSH1 0x1 DUP3 ADD SWAP2 POP PUSH1 0x20 DUP2 ADD SWAP1 POP PUSH2 0xFDE JUMP JUMPDEST DUP4 DUP9 ADD SWAP6 POP POP POP JUMPDEST POP POP POP SWAP3 SWAP2 POP POP JUMP JUMPDEST PUSH2 0x1017 DUP2 PUSH2 0x1240 JUMP JUMPDEST DUP3 MSTORE POP POP JUMP JUMPDEST PUSH1 0x0 PUSH2 0x1029 DUP3 DUP5 PUSH2 0xF8F JUMP JUMPDEST SWAP2 POP DUP2 SWAP1 POP SWAP3 SWAP2 POP POP JUMP JUMPDEST PUSH1 0x0 PUSH1 0x40 DUP3 ADD SWAP1 POP PUSH2 0x1049 PUSH1 0x0 DUP4 ADD DUP6 PUSH2 0xF38 JUMP JUMPDEST PUSH2 0x1056 PUSH1 0x20 DUP4 ADD DUP5 PUSH2 0x100E JUMP JUMPDEST SWAP4 SWAP3 POP POP POP JUMP JUMPDEST PUSH1 0x0 PUSH1 0x60 DUP3 ADD SWAP1 POP PUSH2 0x1072 PUSH1 0x0 DUP4 ADD DUP7 PUSH2 0xF38 JUMP JUMPDEST PUSH2 0x107F PUSH1 0x20 DUP4 ADD DUP6 PUSH2 0x100E JUMP JUMPDEST DUP2 DUP2 SUB PUSH1 0x40 DUP4 ADD MSTORE PUSH2 0x1091 DUP2 DUP5 PUSH2 0xF56 JUMP JUMPDEST SWAP1 POP SWAP5 SWAP4 POP POP POP POP JUMP JUMPDEST PUSH1 0x0 PUSH1 0x60 DUP3 ADD SWAP1 POP PUSH2 0x10B0 PUSH1 0x0 DUP4 ADD DUP7 PUSH2 0xF38 JUMP JUMPDEST PUSH2 0x10BD PUSH1 0x20 DUP4 ADD DUP6 PUSH2 0x100E JUMP JUMPDEST PUSH2 0x10CA PUSH1 0x40 DUP4 ADD DUP5 PUSH2 0x100E JUMP JUMPDEST SWAP5 SWAP4 POP POP POP POP JUMP JUMPDEST PUSH1 0x0 PUSH1 0x20 DUP3 ADD SWAP1 POP PUSH2 0x10E7 PUSH1 0x0 DUP4 ADD DUP5 PUSH2 0xF47 JUMP JUMPDEST SWAP3 SWAP2 POP POP JUMP JUMPDEST PUSH1 0x0 PUSH1 0x20 DUP3 ADD SWAP1 POP PUSH2 0x1102 PUSH1 0x0 DUP4 ADD DUP5 PUSH2 0x100E JUMP JUMPDEST SWAP3 SWAP2 POP POP JUMP JUMPDEST PUSH1 0x0 PUSH1 0xC0 DUP3 ADD SWAP1 POP PUSH2 0x111D PUSH1 0x0 DUP4 ADD DUP10 PUSH2 0x100E JUMP JUMPDEST PUSH2 0x112A PUSH1 0x20 DUP4 ADD DUP9 PUSH2 0xF38 JUMP JUMPDEST PUSH2 0x1137 PUSH1 0x40 DUP4 ADD DUP8 PUSH2 0x100E JUMP JUMPDEST DUP2 DUP2 SUB PUSH1 0x60 DUP4 ADD MSTORE PUSH2 0x1149 DUP2 DUP7 PUSH2 0xF56 JUMP JUMPDEST SWAP1 POP PUSH2 0x1158 PUSH1 0x80 DUP4 ADD DUP6 PUSH2 0x100E JUMP JUMPDEST PUSH2 0x1165 PUSH1 0xA0 DUP4 ADD DUP5 PUSH2 0xF47 JUMP JUMPDEST SWAP8 SWAP7 POP POP POP POP POP POP POP JUMP JUMPDEST PUSH1 0x0 PUSH2 0x117A PUSH2 0x118B JUMP JUMPDEST SWAP1 POP PUSH2 0x1186 DUP3 DUP3 PUSH2 0x12E8 JUMP JUMPDEST SWAP2 SWAP1 POP JUMP JUMPDEST PUSH1 0x0 PUSH1 0x40 MLOAD SWAP1 POP SWAP1 JUMP JUMPDEST PUSH1 0x0 PUSH8 0xFFFFFFFFFFFFFFFF DUP3 GT ISZERO PUSH2 0x11B0 JUMPI PUSH2 0x11AF PUSH2 0x13C0 JUMP JUMPDEST JUMPDEST PUSH2 0x11B9 DUP3 PUSH2 0x1403 JUMP JUMPDEST SWAP1 POP PUSH1 0x20 DUP2 ADD SWAP1 POP SWAP2 SWAP1 POP JUMP JUMPDEST PUSH1 0x0 DUP2 SWAP1 POP DUP2 PUSH1 0x0 MSTORE PUSH1 0x20 PUSH1 0x0 KECCAK256 SWAP1 POP SWAP2 SWAP1 POP JUMP JUMPDEST PUSH1 0x0 DUP2 MLOAD SWAP1 POP SWAP2 SWAP1 POP JUMP JUMPDEST PUSH1 0x0 DUP3 DUP3 MSTORE PUSH1 0x20 DUP3 ADD SWAP1 POP SWAP3 SWAP2 POP POP JUMP JUMPDEST PUSH1 0x0 DUP2 SWAP1 POP SWAP3 SWAP2 POP POP JUMP JUMPDEST PUSH1 0x0 PUSH2 0x120D DUP3 PUSH2 0x1220 JUMP JUMPDEST SWAP1 POP SWAP2 SWAP1 POP JUMP JUMPDEST PUSH1 0x0 DUP2 ISZERO ISZERO SWAP1 POP SWAP2 SWAP1 POP JUMP JUMPDEST PUSH1 0x0 PUSH20 0xFFFFFFFFFFFFFFFFFFFFFFFFFFFFFFFFFFFFFFFF DUP3 AND SWAP1 POP SWAP2 SWAP1 POP JUMP JUMPDEST PUSH1 0x0 DUP2 SWAP1 POP SWAP2 SWAP1 POP JUMP JUMPDEST DUP3 DUP2 DUP4 CALLDATACOPY PUSH1 0x0 DUP4 DUP4 ADD MSTORE POP POP POP JUMP JUMPDEST PUSH1 0x0 JUMPDEST DUP4 DUP2 LT ISZERO PUSH2 0x1277 JUMPI DUP1 DUP3 ADD MLOAD DUP2 DUP5 ADD MSTORE PUSH1 0x20 DUP2 ADD SWAP1 POP PUSH2 0x125C JUMP JUMPDEST DUP4 DUP2 GT ISZERO PUSH2 0x1286 JUMPI PUSH1 0x0 DUP5 DUP5 ADD MSTORE JUMPDEST POP POP POP POP JUMP JUMPDEST PUSH1 0x0 PUSH2 0x1297 DUP3 PUSH2 0x1240 JUMP JUMPDEST SWAP2 POP PUSH1 0x0 DUP3 EQ ISZERO PUSH2 0x12AB JUMPI PUSH2 0x12AA PUSH2 0x1362 JUMP JUMPDEST JUMPDEST PUSH1 0x1 DUP3 SUB SWAP1 POP SWAP2 SWAP1 POP JUMP JUMPDEST PUSH1 0x0 PUSH1 0x2 DUP3 DIV SWAP1 POP PUSH1 0x1 DUP3 AND DUP1 PUSH2 0x12CE JUMPI PUSH1 0x7F DUP3 AND SWAP2 POP JUMPDEST PUSH1 0x20 DUP3 LT DUP2 EQ ISZERO PUSH2 0x12E2 JUMPI PUSH2 0x12E1 PUSH2 0x1391 JUMP JUMPDEST JUMPDEST POP SWAP2 SWAP1 POP JUMP JUMPDEST PUSH2 0x12F1 DUP3 PUSH2 0x1403 JUMP JUMPDEST DUP2 ADD DUP2 DUP2 LT PUSH8 0xFFFFFFFFFFFFFFFF DUP3 GT OR ISZERO PUSH2 0x1310 JUMPI PUSH2 0x130F PUSH2 0x13C0 JUMP JUMPDEST JUMPDEST DUP1 PUSH1 0x40 MSTORE POP POP POP JUMP JUMPDEST PUSH1 0x0 PUSH2 0x1324 DUP3 PUSH2 0x1240 JUMP JUMPDEST SWAP2 POP PUSH32 0xFFFFFFFFFFFFFFFFFFFFFFFFFFFFFFFFFFFFFFFFFFFFFFFFFFFFFFFFFFFFFFFF DUP3 EQ ISZERO PUSH2 0x1357 JUMPI PUSH2 0x1356 PUSH2 0x1362 JUMP JUMPDEST JUMPDEST PUSH1 0x1 DUP3 ADD SWAP1 POP SWAP2 SWAP1 POP JUMP JUMPDEST PUSH32 0x4E487B7100000000000000000000000000000000000000000000000000000000 PUSH1 0x0 MSTORE PUSH1 0x11 PUSH1 0x4 MSTORE PUSH1 0x24 PUSH1 0x0 REVERT JUMPDEST PUSH32 0x4E487B7100000000000000000000000000000000000000000000000000000000 PUSH1 0x0 MSTORE PUSH1 0x22 PUSH1 0x4 MSTORE PUSH1 0x24 PUSH1 0x0 REVERT JUMPDEST PUSH32 0x4E487B7100000000000000000000000000000000000000000000000000000000 PUSH1 0x0 MSTORE PUSH1 0x41 PUSH1 0x4 MSTORE PUSH1 0x24 PUSH1 0x0 REVERT JUMPDEST PUSH1 0x0 DUP1 REVERT JUMPDEST PUSH1 0x0 DUP1 REVERT JUMPDEST PUSH1 0x0 DUP1 REVERT JUMPDEST PUSH1 0x0 DUP1 REVERT JUMPDEST PUSH1 0x0 PUSH1 0x1F NOT PUSH1 0x1F DUP4 ADD AND SWAP1 POP SWAP2 SWAP1 POP JUMP JUMPDEST PUSH2 0x141D DUP2 PUSH2 0x1202 JUMP JUMPDEST DUP2 EQ PUSH2 0x1428 JUMPI PUSH1 0x0 DUP1 REVERT JUMPDEST POP JUMP JUMPDEST PUSH2 0x1434 DUP2 PUSH2 0x1240 JUMP JUMPDEST DUP2 EQ PUSH2 0x143F JUMPI PUSH1 0x0 DUP1 REVERT JUMPDEST POP JUMP INVALID LOG2 PUSH5 0x6970667358 0x22 SLT KECCAK256 COINBASE LOG4 TIMESTAMP 0xF8 STATICCALL 0xD1 0xCF 0xA8 0xEF 0x4F PUSH1 0x15 RETURNDATACOPY CHAINID 0xD0 0xBC SLOAD 0xCA 0xBD 0xB3 DUP1 SWAP3 0xB2 ADD EQ 0x28 0x49 PUSH6 0xBDC61CF46473 PUSH16 0x6C634300080700330000000000000000 "
				},
				"gasEstimates": {
					"creation": {
						"codeDepositCost": "1048000",
						"executionCost": "infinite",
						"totalCost": "infinite"
					},
					"external": {
						"approveTx(uint256)": "infinite",
						"approved(uint256,address)": "3087",
						"executeTx(uint256)": "infinite",
						"isOwner(address)": "2868",
						"required()": "2517",
						"revokeTx(uint256)": "infinite",
						"submitTx(address,uint256,bytes)": "infinite",
						"transactions(uint256)": "infinite",
						"txId()": "2495"
					}
				},
				"methodIdentifiers": {
					"approveTx(uint256)": "1087393a",
					"approved(uint256,address)": "8253951a",
					"executeTx(uint256)": "54b5fe80",
					"isOwner(address)": "2f54bf6e",
					"required()": "dc8452cd",
					"revokeTx(uint256)": "5986aaca",
					"submitTx(address,uint256,bytes)": "bb84c5a9",
					"transactions(uint256)": "9ace38c2",
					"txId()": "cd568d1f"
				}
			},
			"storageLayout": {
				"storage": [
					{
						"astId": 51,
						"contract": "bootcamp/week2/MultiSigWallet.sol:MultiSigWallet",
						"label": "isOwner",
						"offset": 0,
						"slot": "0",
						"type": "t_mapping(t_address,t_bool)"
					},
					{
						"astId": 69,
						"contract": "bootcamp/week2/MultiSigWallet.sol:MultiSigWallet",
						"label": "transactions",
						"offset": 0,
						"slot": "1",
						"type": "t_mapping(t_uint256,t_struct(Transaction)64_storage)"
					},
					{
						"astId": 75,
						"contract": "bootcamp/week2/MultiSigWallet.sol:MultiSigWallet",
						"label": "approved",
						"offset": 0,
						"slot": "2",
						"type": "t_mapping(t_uint256,t_mapping(t_address,t_bool))"
					},
					{
						"astId": 77,
						"contract": "bootcamp/week2/MultiSigWallet.sol:MultiSigWallet",
						"label": "required",
						"offset": 0,
						"slot": "3",
						"type": "t_uint256"
					},
					{
						"astId": 79,
						"contract": "bootcamp/week2/MultiSigWallet.sol:MultiSigWallet",
						"label": "txId",
						"offset": 0,
						"slot": "4",
						"type": "t_uint256"
					}
				],
				"types": {
					"t_address": {
						"encoding": "inplace",
						"label": "address",
						"numberOfBytes": "20"
					},
					"t_bool": {
						"encoding": "inplace",
						"label": "bool",
						"numberOfBytes": "1"
					},
					"t_bytes_storage": {
						"encoding": "bytes",
						"label": "bytes",
						"numberOfBytes": "32"
					},
					"t_mapping(t_address,t_bool)": {
						"encoding": "mapping",
						"key": "t_address",
						"label": "mapping(address => bool)",
						"numberOfBytes": "32",
						"value": "t_bool"
					},
					"t_mapping(t_uint256,t_mapping(t_address,t_bool))": {
						"encoding": "mapping",
						"key": "t_uint256",
						"label": "mapping(uint256 => mapping(address => bool))",
						"numberOfBytes": "32",
						"value": "t_mapping(t_address,t_bool)"
					},
					"t_mapping(t_uint256,t_struct(Transaction)64_storage)": {
						"encoding": "mapping",
						"key": "t_uint256",
						"label": "mapping(uint256 => struct MultiSigWallet.Transaction)",
						"numberOfBytes": "32",
						"value": "t_struct(Transaction)64_storage"
					},
					"t_struct(Transaction)64_storage": {
						"encoding": "inplace",
						"label": "struct MultiSigWallet.Transaction",
						"members": [
							{
								"astId": 53,
								"contract": "bootcamp/week2/MultiSigWallet.sol:MultiSigWallet",
								"label": "id",
								"offset": 0,
								"slot": "0",
								"type": "t_uint256"
							},
							{
								"astId": 55,
								"contract": "bootcamp/week2/MultiSigWallet.sol:MultiSigWallet",
								"label": "to",
								"offset": 0,
								"slot": "1",
								"type": "t_address"
							},
							{
								"astId": 57,
								"contract": "bootcamp/week2/MultiSigWallet.sol:MultiSigWallet",
								"label": "value",
								"offset": 0,
								"slot": "2",
								"type": "t_uint256"
							},
							{
								"astId": 59,
								"contract": "bootcamp/week2/MultiSigWallet.sol:MultiSigWallet",
								"label": "data",
								"offset": 0,
								"slot": "3",
								"type": "t_bytes_storage"
							},
							{
								"astId": 61,
								"contract": "bootcamp/week2/MultiSigWallet.sol:MultiSigWallet",
								"label": "confirmations",
								"offset": 0,
								"slot": "4",
								"type": "t_uint256"
							},
							{
								"astId": 63,
								"contract": "bootcamp/week2/MultiSigWallet.sol:MultiSigWallet",
								"label": "executed",
								"offset": 0,
								"slot": "5",
								"type": "t_bool"
							}
						],
						"numberOfBytes": "192"
					},
					"t_uint256": {
						"encoding": "inplace",
						"label": "uint256",
						"numberOfBytes": "32"
					}
				}
			},
			"userdoc": {
				"kind": "user",
				"methods": {},
				"version": 1
			}
		}
	}
}