{
	"bootcamp/week2/MultiSigWallet.sol": {
		"MultiSigWallet": {
			"abi": [
				{
					"inputs": [
						{
							"internalType": "address[]",
							"name": "_owners",
							"type": "address[]"
						},
						{
							"internalType": "uint256",
							"name": "_required",
							"type": "uint256"
						}
					],
					"stateMutability": "nonpayable",
					"type": "constructor"
				},
				{
					"inputs": [],
					"name": "AlreadyOwner",
					"type": "error"
				},
				{
					"inputs": [],
					"name": "InvalidNumRequired",
					"type": "error"
				},
				{
					"inputs": [],
					"name": "InvalidOwnerAddress",
					"type": "error"
				},
				{
					"inputs": [],
					"name": "LessConfirmationsThanRequired",
					"type": "error"
				},
				{
					"inputs": [],
					"name": "NotOwner",
					"type": "error"
				},
				{
					"inputs": [],
					"name": "TxAlreadyApproved",
					"type": "error"
				},
				{
					"inputs": [],
					"name": "TxAlreadyExecuted",
					"type": "error"
				},
				{
					"inputs": [],
					"name": "TxDoesNotExists",
					"type": "error"
				},
				{
					"inputs": [],
					"name": "TxExecutionFailed",
					"type": "error"
				},
				{
					"inputs": [],
					"name": "TxNotApproved",
					"type": "error"
				},
				{
					"anonymous": false,
					"inputs": [
						{
							"indexed": false,
							"internalType": "uint256",
							"name": "txId",
							"type": "uint256"
						},
						{
							"indexed": false,
							"internalType": "address",
							"name": "approver",
							"type": "address"
						}
					],
					"name": "ApprovedTx",
					"type": "event"
				},
				{
					"anonymous": false,
					"inputs": [
						{
							"indexed": false,
							"internalType": "address",
							"name": "sender",
							"type": "address"
						},
						{
							"indexed": false,
							"internalType": "uint256",
							"name": "value",
							"type": "uint256"
						},
						{
							"indexed": false,
							"internalType": "uint256",
							"name": "balance",
							"type": "uint256"
						}
					],
					"name": "Deposit",
					"type": "event"
				},
				{
					"anonymous": false,
					"inputs": [
						{
							"indexed": false,
							"internalType": "address",
							"name": "to",
							"type": "address"
						},
						{
							"indexed": false,
							"internalType": "uint256",
							"name": "value",
							"type": "uint256"
						},
						{
							"indexed": false,
							"internalType": "bytes",
							"name": "data",
							"type": "bytes"
						}
					],
					"name": "SubmittedTx",
					"type": "event"
				},
				{
					"anonymous": false,
					"inputs": [
						{
							"indexed": false,
							"internalType": "address",
							"name": "to",
							"type": "address"
						},
						{
							"indexed": false,
							"internalType": "uint256",
							"name": "value",
							"type": "uint256"
						},
						{
							"indexed": false,
							"internalType": "bytes",
							"name": "data",
							"type": "bytes"
						},
						{
							"indexed": false,
							"internalType": "address",
							"name": "executor",
							"type": "address"
						}
					],
					"name": "TxExecuted",
					"type": "event"
				},
				{
					"inputs": [
						{
							"internalType": "uint256",
							"name": "_txId",
							"type": "uint256"
						}
					],
					"name": "approveTx",
					"outputs": [],
					"stateMutability": "nonpayable",
					"type": "function"
				},
				{
					"inputs": [
						{
							"internalType": "uint256",
							"name": "",
							"type": "uint256"
						},
						{
							"internalType": "address",
							"name": "",
							"type": "address"
						}
					],
					"name": "approved",
					"outputs": [
						{
							"internalType": "bool",
							"name": "",
							"type": "bool"
						}
					],
					"stateMutability": "view",
					"type": "function"
				},
				{
					"inputs": [
						{
							"internalType": "uint256",
							"name": "_txId",
							"type": "uint256"
						}
					],
					"name": "executeTx",
					"outputs": [],
					"stateMutability": "nonpayable",
					"type": "function"
				},
				{
					"inputs": [
						{
							"internalType": "address",
							"name": "",
							"type": "address"
						}
					],
					"name": "isOwner",
					"outputs": [
						{
							"internalType": "bool",
							"name": "",
							"type": "bool"
						}
					],
					"stateMutability": "view",
					"type": "function"
				},
				{
					"inputs": [
						{
							"internalType": "uint256",
							"name": "_txId",
							"type": "uint256"
						}
					],
					"name": "revokeTx",
					"outputs": [],
					"stateMutability": "nonpayable",
					"type": "function"
				},
				{
					"inputs": [
						{
							"internalType": "address",
							"name": "_to",
							"type": "address"
						},
						{
							"internalType": "uint256",
							"name": "_value",
							"type": "uint256"
						},
						{
							"internalType": "bytes",
							"name": "_data",
							"type": "bytes"
						}
					],
					"name": "submitTx",
					"outputs": [],
					"stateMutability": "nonpayable",
					"type": "function"
				},
				{
					"inputs": [
						{
							"internalType": "uint256",
							"name": "",
							"type": "uint256"
						}
					],
					"name": "transactions",
					"outputs": [
						{
							"internalType": "uint256",
							"name": "id",
							"type": "uint256"
						},
						{
							"internalType": "address",
							"name": "to",
							"type": "address"
						},
						{
							"internalType": "uint256",
							"name": "value",
							"type": "uint256"
						},
						{
							"internalType": "bytes",
							"name": "data",
							"type": "bytes"
						},
						{
							"internalType": "uint256",
							"name": "confirmations",
							"type": "uint256"
						},
						{
							"internalType": "bool",
							"name": "executed",
							"type": "bool"
						}
					],
					"stateMutability": "view",
					"type": "function"
				},
				{
					"stateMutability": "payable",
					"type": "receive"
				}
			],
			"devdoc": {
				"kind": "dev",
				"methods": {},
				"version": 1
			},
			"evm": {
				"assembly": "    /* \"bootcamp/week2/MultiSigWallet.sol\":324:3643  contract MultiSigWallet {... */\n  mstore(0x40, 0x80)\n    /* \"bootcamp/week2/MultiSigWallet.sol\":1559:2042  constructor(address[] memory _owners, uint256 _required) {... */\n  callvalue\n  dup1\n  iszero\n  tag_1\n  jumpi\n  0x00\n  dup1\n  revert\ntag_1:\n  pop\n  mload(0x40)\n  sub(codesize, bytecodeSize)\n  dup1\n  bytecodeSize\n  dup4\n  codecopy\n  dup2\n  dup2\n  add\n  0x40\n  mstore\n  dup2\n  add\n  swap1\n  tag_2\n  swap2\n  swap1\n  tag_3\n  jump\t// in\ntag_2:\n    /* \"bootcamp/week2/MultiSigWallet.sol\":1642:1649  _owners */\n  dup2\n    /* \"bootcamp/week2/MultiSigWallet.sol\":1642:1656  _owners.length */\n  mload\n    /* \"bootcamp/week2/MultiSigWallet.sol\":1630:1639  _required */\n  dup2\n    /* \"bootcamp/week2/MultiSigWallet.sol\":1630:1656  _required > _owners.length */\n  gt\n    /* \"bootcamp/week2/MultiSigWallet.sol\":1626:1710  if (_required > _owners.length) {... */\n  iszero\n  tag_6\n  jumpi\n    /* \"bootcamp/week2/MultiSigWallet.sol\":1679:1699  InvalidNumRequired() */\n  mload(0x40)\n  0xaa6eac5100000000000000000000000000000000000000000000000000000000\n  dup2\n  mstore\n  0x04\n  add\n  mload(0x40)\n  dup1\n  swap2\n  sub\n  swap1\n  revert\n    /* \"bootcamp/week2/MultiSigWallet.sol\":1626:1710  if (_required > _owners.length) {... */\ntag_6:\n    /* \"bootcamp/week2/MultiSigWallet.sol\":1723:1732  uint256 i */\n  0x00\n    /* \"bootcamp/week2/MultiSigWallet.sol\":1719:2036  for(uint256 i = 0; i < _owners.length; i++) {... */\ntag_7:\n    /* \"bootcamp/week2/MultiSigWallet.sol\":1742:1749  _owners */\n  dup3\n    /* \"bootcamp/week2/MultiSigWallet.sol\":1742:1756  _owners.length */\n  mload\n    /* \"bootcamp/week2/MultiSigWallet.sol\":1738:1739  i */\n  dup2\n    /* \"bootcamp/week2/MultiSigWallet.sol\":1738:1756  i < _owners.length */\n  lt\n    /* \"bootcamp/week2/MultiSigWallet.sol\":1719:2036  for(uint256 i = 0; i < _owners.length; i++) {... */\n  iszero\n  tag_8\n  jumpi\n    /* \"bootcamp/week2/MultiSigWallet.sol\":1777:1790  address owner */\n  0x00\n    /* \"bootcamp/week2/MultiSigWallet.sol\":1793:1800  _owners */\n  dup4\n    /* \"bootcamp/week2/MultiSigWallet.sol\":1801:1802  i */\n  dup3\n    /* \"bootcamp/week2/MultiSigWallet.sol\":1793:1803  _owners[i] */\n  dup2\n  mload\n  dup2\n  lt\n  tag_10\n  jumpi\n  tag_11\n  tag_12\n  jump\t// in\ntag_11:\ntag_10:\n  0x20\n  mul\n  0x20\n  add\n  add\n  mload\n    /* \"bootcamp/week2/MultiSigWallet.sol\":1777:1803  address owner = _owners[i] */\n  swap1\n  pop\n    /* \"bootcamp/week2/MultiSigWallet.sol\":1839:1840  0 */\n  0x00\n    /* \"bootcamp/week2/MultiSigWallet.sol\":1822:1841  owner == address(0) */\n  0xffffffffffffffffffffffffffffffffffffffff\n  and\n    /* \"bootcamp/week2/MultiSigWallet.sol\":1822:1827  owner */\n  dup2\n    /* \"bootcamp/week2/MultiSigWallet.sol\":1822:1841  owner == address(0) */\n  0xffffffffffffffffffffffffffffffffffffffff\n  and\n  eq\n    /* \"bootcamp/week2/MultiSigWallet.sol\":1818:1904  if (owner == address(0)) {... */\n  iszero\n  tag_13\n  jumpi\n    /* \"bootcamp/week2/MultiSigWallet.sol\":1868:1889  InvalidOwnerAddress() */\n  mload(0x40)\n  0xd924e5f400000000000000000000000000000000000000000000000000000000\n  dup2\n  mstore\n  0x04\n  add\n  mload(0x40)\n  dup1\n  swap2\n  sub\n  swap1\n  revert\n    /* \"bootcamp/week2/MultiSigWallet.sol\":1818:1904  if (owner == address(0)) {... */\ntag_13:\n    /* \"bootcamp/week2/MultiSigWallet.sol\":1921:1928  isOwner */\n  0x00\n    /* \"bootcamp/week2/MultiSigWallet.sol\":1921:1935  isOwner[owner] */\n  dup1\n    /* \"bootcamp/week2/MultiSigWallet.sol\":1929:1934  owner */\n  dup3\n    /* \"bootcamp/week2/MultiSigWallet.sol\":1921:1935  isOwner[owner] */\n  0xffffffffffffffffffffffffffffffffffffffff\n  and\n  0xffffffffffffffffffffffffffffffffffffffff\n  and\n  dup2\n  mstore\n  0x20\n  add\n  swap1\n  dup2\n  mstore\n  0x20\n  add\n  0x00\n  keccak256\n  0x00\n  swap1\n  sload\n  swap1\n  0x0100\n  exp\n  swap1\n  div\n  0xff\n  and\n    /* \"bootcamp/week2/MultiSigWallet.sol\":1917:1991  if (isOwner[owner]) {... */\n  iszero\n  tag_14\n  jumpi\n    /* \"bootcamp/week2/MultiSigWallet.sol\":1962:1976  AlreadyOwner() */\n  mload(0x40)\n  0xc0159e0e00000000000000000000000000000000000000000000000000000000\n  dup2\n  mstore\n  0x04\n  add\n  mload(0x40)\n  dup1\n  swap2\n  sub\n  swap1\n  revert\n    /* \"bootcamp/week2/MultiSigWallet.sol\":1917:1991  if (isOwner[owner]) {... */\ntag_14:\n    /* \"bootcamp/week2/MultiSigWallet.sol\":2021:2025  true */\n  0x01\n    /* \"bootcamp/week2/MultiSigWallet.sol\":2004:2011  isOwner */\n  0x00\n    /* \"bootcamp/week2/MultiSigWallet.sol\":2004:2018  isOwner[owner] */\n  dup1\n    /* \"bootcamp/week2/MultiSigWallet.sol\":2012:2017  owner */\n  dup4\n    /* \"bootcamp/week2/MultiSigWallet.sol\":2004:2018  isOwner[owner] */\n  0xffffffffffffffffffffffffffffffffffffffff\n  and\n  0xffffffffffffffffffffffffffffffffffffffff\n  and\n  dup2\n  mstore\n  0x20\n  add\n  swap1\n  dup2\n  mstore\n  0x20\n  add\n  0x00\n  keccak256\n  0x00\n    /* \"bootcamp/week2/MultiSigWallet.sol\":2004:2025  isOwner[owner] = true */\n  0x0100\n  exp\n  dup2\n  sload\n  dup2\n  0xff\n  mul\n  not\n  and\n  swap1\n  dup4\n  iszero\n  iszero\n  mul\n  or\n  swap1\n  sstore\n  pop\n    /* \"bootcamp/week2/MultiSigWallet.sol\":1763:2036  {... */\n  pop\n    /* \"bootcamp/week2/MultiSigWallet.sol\":1758:1761  i++ */\n  dup1\n  dup1\n  tag_15\n  swap1\n  tag_16\n  jump\t// in\ntag_15:\n  swap2\n  pop\n  pop\n    /* \"bootcamp/week2/MultiSigWallet.sol\":1719:2036  for(uint256 i = 0; i < _owners.length; i++) {... */\n  jump(tag_7)\ntag_8:\n  pop\n    /* \"bootcamp/week2/MultiSigWallet.sol\":1559:2042  constructor(address[] memory _owners, uint256 _required) {... */\n  pop\n  pop\n    /* \"bootcamp/week2/MultiSigWallet.sol\":324:3643  contract MultiSigWallet {... */\n  jump(tag_17)\n    /* \"#utility.yul\":24:768   */\ntag_19:\n    /* \"#utility.yul\":131:136   */\n  0x00\n    /* \"#utility.yul\":156:237   */\n  tag_21\n    /* \"#utility.yul\":172:236   */\n  tag_22\n    /* \"#utility.yul\":229:235   */\n  dup5\n    /* \"#utility.yul\":172:236   */\n  tag_23\n  jump\t// in\ntag_22:\n    /* \"#utility.yul\":156:237   */\n  tag_24\n  jump\t// in\ntag_21:\n    /* \"#utility.yul\":147:237   */\n  swap1\n  pop\n    /* \"#utility.yul\":257:262   */\n  dup1\n    /* \"#utility.yul\":286:292   */\n  dup4\n    /* \"#utility.yul\":279:284   */\n  dup3\n    /* \"#utility.yul\":272:293   */\n  mstore\n    /* \"#utility.yul\":320:324   */\n  0x20\n    /* \"#utility.yul\":313:318   */\n  dup3\n    /* \"#utility.yul\":309:325   */\n  add\n    /* \"#utility.yul\":302:325   */\n  swap1\n  pop\n    /* \"#utility.yul\":346:352   */\n  dup3\n    /* \"#utility.yul\":396:399   */\n  dup6\n    /* \"#utility.yul\":388:392   */\n  0x20\n    /* \"#utility.yul\":380:386   */\n  dup7\n    /* \"#utility.yul\":376:393   */\n  mul\n    /* \"#utility.yul\":371:374   */\n  dup3\n    /* \"#utility.yul\":367:394   */\n  add\n    /* \"#utility.yul\":364:400   */\n  gt\n    /* \"#utility.yul\":361:504   */\n  iszero\n  tag_25\n  jumpi\n    /* \"#utility.yul\":415:494   */\n  tag_26\n  tag_27\n  jump\t// in\ntag_26:\n    /* \"#utility.yul\":361:504   */\ntag_25:\n    /* \"#utility.yul\":528:529   */\n  0x00\n    /* \"#utility.yul\":513:762   */\ntag_28:\n    /* \"#utility.yul\":538:544   */\n  dup6\n    /* \"#utility.yul\":535:536   */\n  dup2\n    /* \"#utility.yul\":532:545   */\n  lt\n    /* \"#utility.yul\":513:762   */\n  iszero\n  tag_30\n  jumpi\n    /* \"#utility.yul\":606:609   */\n  dup2\n    /* \"#utility.yul\":635:683   */\n  tag_31\n    /* \"#utility.yul\":679:682   */\n  dup9\n    /* \"#utility.yul\":667:677   */\n  dup3\n    /* \"#utility.yul\":635:683   */\n  tag_32\n  jump\t// in\ntag_31:\n    /* \"#utility.yul\":630:633   */\n  dup5\n    /* \"#utility.yul\":623:684   */\n  mstore\n    /* \"#utility.yul\":713:717   */\n  0x20\n    /* \"#utility.yul\":708:711   */\n  dup5\n    /* \"#utility.yul\":704:718   */\n  add\n    /* \"#utility.yul\":697:718   */\n  swap4\n  pop\n    /* \"#utility.yul\":747:751   */\n  0x20\n    /* \"#utility.yul\":742:745   */\n  dup4\n    /* \"#utility.yul\":738:752   */\n  add\n    /* \"#utility.yul\":731:752   */\n  swap3\n  pop\n    /* \"#utility.yul\":573:762   */\n  pop\n    /* \"#utility.yul\":560:561   */\n  0x01\n    /* \"#utility.yul\":557:558   */\n  dup2\n    /* \"#utility.yul\":553:562   */\n  add\n    /* \"#utility.yul\":548:562   */\n  swap1\n  pop\n    /* \"#utility.yul\":513:762   */\n  jump(tag_28)\ntag_30:\n    /* \"#utility.yul\":517:531   */\n  pop\n    /* \"#utility.yul\":137:768   */\n  pop\n  pop\n    /* \"#utility.yul\":24:768   */\n  swap4\n  swap3\n  pop\n  pop\n  pop\n  jump\t// out\n    /* \"#utility.yul\":774:917   */\ntag_32:\n    /* \"#utility.yul\":831:836   */\n  0x00\n    /* \"#utility.yul\":862:868   */\n  dup2\n    /* \"#utility.yul\":856:869   */\n  mload\n    /* \"#utility.yul\":847:869   */\n  swap1\n  pop\n    /* \"#utility.yul\":878:911   */\n  tag_34\n    /* \"#utility.yul\":905:910   */\n  dup2\n    /* \"#utility.yul\":878:911   */\n  tag_35\n  jump\t// in\ntag_34:\n    /* \"#utility.yul\":774:917   */\n  swap3\n  swap2\n  pop\n  pop\n  jump\t// out\n    /* \"#utility.yul\":940:1325   */\ntag_36:\n    /* \"#utility.yul\":1022:1027   */\n  0x00\n    /* \"#utility.yul\":1071:1074   */\n  dup3\n    /* \"#utility.yul\":1064:1068   */\n  0x1f\n    /* \"#utility.yul\":1056:1062   */\n  dup4\n    /* \"#utility.yul\":1052:1069   */\n  add\n    /* \"#utility.yul\":1048:1075   */\n  slt\n    /* \"#utility.yul\":1038:1160   */\n  tag_38\n  jumpi\n    /* \"#utility.yul\":1079:1158   */\n  tag_39\n  tag_40\n  jump\t// in\ntag_39:\n    /* \"#utility.yul\":1038:1160   */\ntag_38:\n    /* \"#utility.yul\":1189:1195   */\n  dup2\n    /* \"#utility.yul\":1183:1196   */\n  mload\n    /* \"#utility.yul\":1214:1319   */\n  tag_41\n    /* \"#utility.yul\":1315:1318   */\n  dup5\n    /* \"#utility.yul\":1307:1313   */\n  dup3\n    /* \"#utility.yul\":1300:1304   */\n  0x20\n    /* \"#utility.yul\":1292:1298   */\n  dup7\n    /* \"#utility.yul\":1288:1305   */\n  add\n    /* \"#utility.yul\":1214:1319   */\n  tag_19\n  jump\t// in\ntag_41:\n    /* \"#utility.yul\":1205:1319   */\n  swap2\n  pop\n    /* \"#utility.yul\":1028:1325   */\n  pop\n    /* \"#utility.yul\":940:1325   */\n  swap3\n  swap2\n  pop\n  pop\n  jump\t// out\n    /* \"#utility.yul\":1331:1474   */\ntag_42:\n    /* \"#utility.yul\":1388:1393   */\n  0x00\n    /* \"#utility.yul\":1419:1425   */\n  dup2\n    /* \"#utility.yul\":1413:1426   */\n  mload\n    /* \"#utility.yul\":1404:1426   */\n  swap1\n  pop\n    /* \"#utility.yul\":1435:1468   */\n  tag_44\n    /* \"#utility.yul\":1462:1467   */\n  dup2\n    /* \"#utility.yul\":1435:1468   */\n  tag_45\n  jump\t// in\ntag_44:\n    /* \"#utility.yul\":1331:1474   */\n  swap3\n  swap2\n  pop\n  pop\n  jump\t// out\n    /* \"#utility.yul\":1480:2190   */\ntag_3:\n    /* \"#utility.yul\":1584:1590   */\n  0x00\n    /* \"#utility.yul\":1592:1598   */\n  dup1\n    /* \"#utility.yul\":1641:1643   */\n  0x40\n    /* \"#utility.yul\":1629:1638   */\n  dup4\n    /* \"#utility.yul\":1620:1627   */\n  dup6\n    /* \"#utility.yul\":1616:1639   */\n  sub\n    /* \"#utility.yul\":1612:1644   */\n  slt\n    /* \"#utility.yul\":1609:1728   */\n  iszero\n  tag_47\n  jumpi\n    /* \"#utility.yul\":1647:1726   */\n  tag_48\n  tag_49\n  jump\t// in\ntag_48:\n    /* \"#utility.yul\":1609:1728   */\ntag_47:\n    /* \"#utility.yul\":1788:1789   */\n  0x00\n    /* \"#utility.yul\":1777:1786   */\n  dup4\n    /* \"#utility.yul\":1773:1790   */\n  add\n    /* \"#utility.yul\":1767:1791   */\n  mload\n    /* \"#utility.yul\":1818:1836   */\n  0xffffffffffffffff\n    /* \"#utility.yul\":1810:1816   */\n  dup2\n    /* \"#utility.yul\":1807:1837   */\n  gt\n    /* \"#utility.yul\":1804:1921   */\n  iszero\n  tag_50\n  jumpi\n    /* \"#utility.yul\":1840:1919   */\n  tag_51\n  tag_52\n  jump\t// in\ntag_51:\n    /* \"#utility.yul\":1804:1921   */\ntag_50:\n    /* \"#utility.yul\":1945:2034   */\n  tag_53\n    /* \"#utility.yul\":2026:2033   */\n  dup6\n    /* \"#utility.yul\":2017:2023   */\n  dup3\n    /* \"#utility.yul\":2006:2015   */\n  dup7\n    /* \"#utility.yul\":2002:2024   */\n  add\n    /* \"#utility.yul\":1945:2034   */\n  tag_36\n  jump\t// in\ntag_53:\n    /* \"#utility.yul\":1935:2034   */\n  swap3\n  pop\n    /* \"#utility.yul\":1738:2044   */\n  pop\n    /* \"#utility.yul\":2083:2085   */\n  0x20\n    /* \"#utility.yul\":2109:2173   */\n  tag_54\n    /* \"#utility.yul\":2165:2172   */\n  dup6\n    /* \"#utility.yul\":2156:2162   */\n  dup3\n    /* \"#utility.yul\":2145:2154   */\n  dup7\n    /* \"#utility.yul\":2141:2163   */\n  add\n    /* \"#utility.yul\":2109:2173   */\n  tag_42\n  jump\t// in\ntag_54:\n    /* \"#utility.yul\":2099:2173   */\n  swap2\n  pop\n    /* \"#utility.yul\":2054:2183   */\n  pop\n    /* \"#utility.yul\":1480:2190   */\n  swap3\n  pop\n  swap3\n  swap1\n  pop\n  jump\t// out\n    /* \"#utility.yul\":2196:2325   */\ntag_24:\n    /* \"#utility.yul\":2230:2236   */\n  0x00\n    /* \"#utility.yul\":2257:2277   */\n  tag_56\n  tag_57\n  jump\t// in\ntag_56:\n    /* \"#utility.yul\":2247:2277   */\n  swap1\n  pop\n    /* \"#utility.yul\":2286:2319   */\n  tag_58\n    /* \"#utility.yul\":2314:2318   */\n  dup3\n    /* \"#utility.yul\":2306:2312   */\n  dup3\n    /* \"#utility.yul\":2286:2319   */\n  tag_59\n  jump\t// in\ntag_58:\n    /* \"#utility.yul\":2196:2325   */\n  swap2\n  swap1\n  pop\n  jump\t// out\n    /* \"#utility.yul\":2331:2406   */\ntag_57:\n    /* \"#utility.yul\":2364:2370   */\n  0x00\n    /* \"#utility.yul\":2397:2399   */\n  0x40\n    /* \"#utility.yul\":2391:2400   */\n  mload\n    /* \"#utility.yul\":2381:2400   */\n  swap1\n  pop\n    /* \"#utility.yul\":2331:2406   */\n  swap1\n  jump\t// out\n    /* \"#utility.yul\":2412:2723   */\ntag_23:\n    /* \"#utility.yul\":2489:2493   */\n  0x00\n    /* \"#utility.yul\":2579:2597   */\n  0xffffffffffffffff\n    /* \"#utility.yul\":2571:2577   */\n  dup3\n    /* \"#utility.yul\":2568:2598   */\n  gt\n    /* \"#utility.yul\":2565:2621   */\n  iszero\n  tag_62\n  jumpi\n    /* \"#utility.yul\":2601:2619   */\n  tag_63\n  tag_64\n  jump\t// in\ntag_63:\n    /* \"#utility.yul\":2565:2621   */\ntag_62:\n    /* \"#utility.yul\":2651:2655   */\n  0x20\n    /* \"#utility.yul\":2643:2649   */\n  dup3\n    /* \"#utility.yul\":2639:2656   */\n  mul\n    /* \"#utility.yul\":2631:2656   */\n  swap1\n  pop\n    /* \"#utility.yul\":2711:2715   */\n  0x20\n    /* \"#utility.yul\":2705:2709   */\n  dup2\n    /* \"#utility.yul\":2701:2716   */\n  add\n    /* \"#utility.yul\":2693:2716   */\n  swap1\n  pop\n    /* \"#utility.yul\":2412:2723   */\n  swap2\n  swap1\n  pop\n  jump\t// out\n    /* \"#utility.yul\":2729:2825   */\ntag_65:\n    /* \"#utility.yul\":2766:2773   */\n  0x00\n    /* \"#utility.yul\":2795:2819   */\n  tag_67\n    /* \"#utility.yul\":2813:2818   */\n  dup3\n    /* \"#utility.yul\":2795:2819   */\n  tag_68\n  jump\t// in\ntag_67:\n    /* \"#utility.yul\":2784:2819   */\n  swap1\n  pop\n    /* \"#utility.yul\":2729:2825   */\n  swap2\n  swap1\n  pop\n  jump\t// out\n    /* \"#utility.yul\":2831:2957   */\ntag_68:\n    /* \"#utility.yul\":2868:2875   */\n  0x00\n    /* \"#utility.yul\":2908:2950   */\n  0xffffffffffffffffffffffffffffffffffffffff\n    /* \"#utility.yul\":2901:2906   */\n  dup3\n    /* \"#utility.yul\":2897:2951   */\n  and\n    /* \"#utility.yul\":2886:2951   */\n  swap1\n  pop\n    /* \"#utility.yul\":2831:2957   */\n  swap2\n  swap1\n  pop\n  jump\t// out\n    /* \"#utility.yul\":2963:3040   */\ntag_70:\n    /* \"#utility.yul\":3000:3007   */\n  0x00\n    /* \"#utility.yul\":3029:3034   */\n  dup2\n    /* \"#utility.yul\":3018:3034   */\n  swap1\n  pop\n    /* \"#utility.yul\":2963:3040   */\n  swap2\n  swap1\n  pop\n  jump\t// out\n    /* \"#utility.yul\":3046:3327   */\ntag_59:\n    /* \"#utility.yul\":3129:3156   */\n  tag_73\n    /* \"#utility.yul\":3151:3155   */\n  dup3\n    /* \"#utility.yul\":3129:3156   */\n  tag_74\n  jump\t// in\ntag_73:\n    /* \"#utility.yul\":3121:3127   */\n  dup2\n    /* \"#utility.yul\":3117:3157   */\n  add\n    /* \"#utility.yul\":3259:3265   */\n  dup2\n    /* \"#utility.yul\":3247:3257   */\n  dup2\n    /* \"#utility.yul\":3244:3266   */\n  lt\n    /* \"#utility.yul\":3223:3241   */\n  0xffffffffffffffff\n    /* \"#utility.yul\":3211:3221   */\n  dup3\n    /* \"#utility.yul\":3208:3242   */\n  gt\n    /* \"#utility.yul\":3205:3267   */\n  or\n    /* \"#utility.yul\":3202:3290   */\n  iszero\n  tag_75\n  jumpi\n    /* \"#utility.yul\":3270:3288   */\n  tag_76\n  tag_64\n  jump\t// in\ntag_76:\n    /* \"#utility.yul\":3202:3290   */\ntag_75:\n    /* \"#utility.yul\":3310:3320   */\n  dup1\n    /* \"#utility.yul\":3306:3308   */\n  0x40\n    /* \"#utility.yul\":3299:3321   */\n  mstore\n    /* \"#utility.yul\":3089:3327   */\n  pop\n    /* \"#utility.yul\":3046:3327   */\n  pop\n  pop\n  jump\t// out\n    /* \"#utility.yul\":3333:3566   */\ntag_16:\n    /* \"#utility.yul\":3372:3375   */\n  0x00\n    /* \"#utility.yul\":3395:3419   */\n  tag_78\n    /* \"#utility.yul\":3413:3418   */\n  dup3\n    /* \"#utility.yul\":3395:3419   */\n  tag_70\n  jump\t// in\ntag_78:\n    /* \"#utility.yul\":3386:3419   */\n  swap2\n  pop\n    /* \"#utility.yul\":3441:3507   */\n  0xffffffffffffffffffffffffffffffffffffffffffffffffffffffffffffffff\n    /* \"#utility.yul\":3434:3439   */\n  dup3\n    /* \"#utility.yul\":3431:3508   */\n  eq\n    /* \"#utility.yul\":3428:3531   */\n  iszero\n  tag_79\n  jumpi\n    /* \"#utility.yul\":3511:3529   */\n  tag_80\n  tag_81\n  jump\t// in\ntag_80:\n    /* \"#utility.yul\":3428:3531   */\ntag_79:\n    /* \"#utility.yul\":3558:3559   */\n  0x01\n    /* \"#utility.yul\":3551:3556   */\n  dup3\n    /* \"#utility.yul\":3547:3560   */\n  add\n    /* \"#utility.yul\":3540:3560   */\n  swap1\n  pop\n    /* \"#utility.yul\":3333:3566   */\n  swap2\n  swap1\n  pop\n  jump\t// out\n    /* \"#utility.yul\":3572:3752   */\ntag_81:\n    /* \"#utility.yul\":3620:3697   */\n  0x4e487b7100000000000000000000000000000000000000000000000000000000\n    /* \"#utility.yul\":3617:3618   */\n  0x00\n    /* \"#utility.yul\":3610:3698   */\n  mstore\n    /* \"#utility.yul\":3717:3721   */\n  0x11\n    /* \"#utility.yul\":3714:3715   */\n  0x04\n    /* \"#utility.yul\":3707:3722   */\n  mstore\n    /* \"#utility.yul\":3741:3745   */\n  0x24\n    /* \"#utility.yul\":3738:3739   */\n  0x00\n    /* \"#utility.yul\":3731:3746   */\n  revert\n    /* \"#utility.yul\":3758:3938   */\ntag_12:\n    /* \"#utility.yul\":3806:3883   */\n  0x4e487b7100000000000000000000000000000000000000000000000000000000\n    /* \"#utility.yul\":3803:3804   */\n  0x00\n    /* \"#utility.yul\":3796:3884   */\n  mstore\n    /* \"#utility.yul\":3903:3907   */\n  0x32\n    /* \"#utility.yul\":3900:3901   */\n  0x04\n    /* \"#utility.yul\":3893:3908   */\n  mstore\n    /* \"#utility.yul\":3927:3931   */\n  0x24\n    /* \"#utility.yul\":3924:3925   */\n  0x00\n    /* \"#utility.yul\":3917:3932   */\n  revert\n    /* \"#utility.yul\":3944:4124   */\ntag_64:\n    /* \"#utility.yul\":3992:4069   */\n  0x4e487b7100000000000000000000000000000000000000000000000000000000\n    /* \"#utility.yul\":3989:3990   */\n  0x00\n    /* \"#utility.yul\":3982:4070   */\n  mstore\n    /* \"#utility.yul\":4089:4093   */\n  0x41\n    /* \"#utility.yul\":4086:4087   */\n  0x04\n    /* \"#utility.yul\":4079:4094   */\n  mstore\n    /* \"#utility.yul\":4113:4117   */\n  0x24\n    /* \"#utility.yul\":4110:4111   */\n  0x00\n    /* \"#utility.yul\":4103:4118   */\n  revert\n    /* \"#utility.yul\":4130:4247   */\ntag_40:\n    /* \"#utility.yul\":4239:4240   */\n  0x00\n    /* \"#utility.yul\":4236:4237   */\n  dup1\n    /* \"#utility.yul\":4229:4241   */\n  revert\n    /* \"#utility.yul\":4253:4370   */\ntag_27:\n    /* \"#utility.yul\":4362:4363   */\n  0x00\n    /* \"#utility.yul\":4359:4360   */\n  dup1\n    /* \"#utility.yul\":4352:4364   */\n  revert\n    /* \"#utility.yul\":4376:4493   */\ntag_52:\n    /* \"#utility.yul\":4485:4486   */\n  0x00\n    /* \"#utility.yul\":4482:4483   */\n  dup1\n    /* \"#utility.yul\":4475:4487   */\n  revert\n    /* \"#utility.yul\":4499:4616   */\ntag_49:\n    /* \"#utility.yul\":4608:4609   */\n  0x00\n    /* \"#utility.yul\":4605:4606   */\n  dup1\n    /* \"#utility.yul\":4598:4610   */\n  revert\n    /* \"#utility.yul\":4622:4724   */\ntag_74:\n    /* \"#utility.yul\":4663:4669   */\n  0x00\n    /* \"#utility.yul\":4714:4716   */\n  0x1f\n    /* \"#utility.yul\":4710:4717   */\n  not\n    /* \"#utility.yul\":4705:4707   */\n  0x1f\n    /* \"#utility.yul\":4698:4703   */\n  dup4\n    /* \"#utility.yul\":4694:4708   */\n  add\n    /* \"#utility.yul\":4690:4718   */\n  and\n    /* \"#utility.yul\":4680:4718   */\n  swap1\n  pop\n    /* \"#utility.yul\":4622:4724   */\n  swap2\n  swap1\n  pop\n  jump\t// out\n    /* \"#utility.yul\":4730:4852   */\ntag_35:\n    /* \"#utility.yul\":4803:4827   */\n  tag_91\n    /* \"#utility.yul\":4821:4826   */\n  dup2\n    /* \"#utility.yul\":4803:4827   */\n  tag_65\n  jump\t// in\ntag_91:\n    /* \"#utility.yul\":4796:4801   */\n  dup2\n    /* \"#utility.yul\":4793:4828   */\n  eq\n    /* \"#utility.yul\":4783:4846   */\n  tag_92\n  jumpi\n    /* \"#utility.yul\":4842:4843   */\n  0x00\n    /* \"#utility.yul\":4839:4840   */\n  dup1\n    /* \"#utility.yul\":4832:4844   */\n  revert\n    /* \"#utility.yul\":4783:4846   */\ntag_92:\n    /* \"#utility.yul\":4730:4852   */\n  pop\n  jump\t// out\n    /* \"#utility.yul\":4858:4980   */\ntag_45:\n    /* \"#utility.yul\":4931:4955   */\n  tag_94\n    /* \"#utility.yul\":4949:4954   */\n  dup2\n    /* \"#utility.yul\":4931:4955   */\n  tag_70\n  jump\t// in\ntag_94:\n    /* \"#utility.yul\":4924:4929   */\n  dup2\n    /* \"#utility.yul\":4921:4956   */\n  eq\n    /* \"#utility.yul\":4911:4974   */\n  tag_95\n  jumpi\n    /* \"#utility.yul\":4970:4971   */\n  0x00\n    /* \"#utility.yul\":4967:4968   */\n  dup1\n    /* \"#utility.yul\":4960:4972   */\n  revert\n    /* \"#utility.yul\":4911:4974   */\ntag_95:\n    /* \"#utility.yul\":4858:4980   */\n  pop\n  jump\t// out\n    /* \"bootcamp/week2/MultiSigWallet.sol\":324:3643  contract MultiSigWallet {... */\ntag_17:\n  dataSize(sub_0)\n  dup1\n  dataOffset(sub_0)\n  0x00\n  codecopy\n  0x00\n  return\nstop\n\nsub_0: assembly {\n        /* \"bootcamp/week2/MultiSigWallet.sol\":324:3643  contract MultiSigWallet {... */\n      mstore(0x40, 0x80)\n      jumpi(tag_1, lt(calldatasize, 0x04))\n      shr(0xe0, calldataload(0x00))\n      dup1\n      0x5986aaca\n      gt\n      tag_10\n      jumpi\n      dup1\n      0x5986aaca\n      eq\n      tag_6\n      jumpi\n      dup1\n      0x8253951a\n      eq\n      tag_7\n      jumpi\n      dup1\n      0x9ace38c2\n      eq\n      tag_8\n      jumpi\n      dup1\n      0xbb84c5a9\n      eq\n      tag_9\n      jumpi\n      jump(tag_2)\n    tag_10:\n      dup1\n      0x1087393a\n      eq\n      tag_3\n      jumpi\n      dup1\n      0x2f54bf6e\n      eq\n      tag_4\n      jumpi\n      dup1\n      0x54b5fe80\n      eq\n      tag_5\n      jumpi\n      jump(tag_2)\n    tag_1:\n      jumpi(tag_2, calldatasize)\n        /* \"bootcamp/week2/MultiSigWallet.sol\":2090:2143  Deposit(msg.sender, msg.value, address(this).balance) */\n      0x90890809c654f11d6e72a28fa60149770a0d11ec6c92319d6ceb2bb0a4ea1a15\n        /* \"bootcamp/week2/MultiSigWallet.sol\":2098:2108  msg.sender */\n      caller\n        /* \"bootcamp/week2/MultiSigWallet.sol\":2110:2119  msg.value */\n      callvalue\n        /* \"bootcamp/week2/MultiSigWallet.sol\":2121:2142  address(this).balance */\n      selfbalance\n        /* \"bootcamp/week2/MultiSigWallet.sol\":2090:2143  Deposit(msg.sender, msg.value, address(this).balance) */\n      mload(0x40)\n      tag_13\n      swap4\n      swap3\n      swap2\n      swap1\n      tag_14\n      jump\t// in\n    tag_13:\n      mload(0x40)\n      dup1\n      swap2\n      sub\n      swap1\n      log1\n        /* \"bootcamp/week2/MultiSigWallet.sol\":324:3643  contract MultiSigWallet {... */\n      stop\n    tag_2:\n      0x00\n      dup1\n      revert\n        /* \"bootcamp/week2/MultiSigWallet.sol\":2510:2757  function approveTx(uint256 _txId) external onlyOwner txExists(_txId) notApproved(_txId) notExecuted(_txId) {... */\n    tag_3:\n      callvalue\n      dup1\n      iszero\n      tag_15\n      jumpi\n      0x00\n      dup1\n      revert\n    tag_15:\n      pop\n      tag_16\n      0x04\n      dup1\n      calldatasize\n      sub\n      dup2\n      add\n      swap1\n      tag_17\n      swap2\n      swap1\n      tag_18\n      jump\t// in\n    tag_17:\n      tag_19\n      jump\t// in\n    tag_16:\n      stop\n        /* \"bootcamp/week2/MultiSigWallet.sol\":617:656  mapping(address => bool) public isOwner */\n    tag_4:\n      callvalue\n      dup1\n      iszero\n      tag_20\n      jumpi\n      0x00\n      dup1\n      revert\n    tag_20:\n      pop\n      tag_21\n      0x04\n      dup1\n      calldatasize\n      sub\n      dup2\n      add\n      swap1\n      tag_22\n      swap2\n      swap1\n      tag_23\n      jump\t// in\n    tag_22:\n      tag_24\n      jump\t// in\n    tag_21:\n      mload(0x40)\n      tag_25\n      swap2\n      swap1\n      tag_26\n      jump\t// in\n    tag_25:\n      mload(0x40)\n      dup1\n      swap2\n      sub\n      swap1\n      return\n        /* \"bootcamp/week2/MultiSigWallet.sol\":2763:3337  function executeTx(uint256 _txId) external onlyOwner txExists(_txId) notExecuted(_txId) {... */\n    tag_5:\n      callvalue\n      dup1\n      iszero\n      tag_27\n      jumpi\n      0x00\n      dup1\n      revert\n    tag_27:\n      pop\n      tag_28\n      0x04\n      dup1\n      calldatasize\n      sub\n      dup2\n      add\n      swap1\n      tag_29\n      swap2\n      swap1\n      tag_18\n      jump\t// in\n    tag_29:\n      tag_30\n      jump\t// in\n    tag_28:\n      stop\n        /* \"bootcamp/week2/MultiSigWallet.sol\":3343:3641  function revokeTx(uint256 _txId) external onlyOwner txExists(_txId) notExecuted(_txId) {... */\n    tag_6:\n      callvalue\n      dup1\n      iszero\n      tag_31\n      jumpi\n      0x00\n      dup1\n      revert\n    tag_31:\n      pop\n      tag_32\n      0x04\n      dup1\n      calldatasize\n      sub\n      dup2\n      add\n      swap1\n      tag_33\n      swap2\n      swap1\n      tag_18\n      jump\t// in\n    tag_33:\n      tag_34\n      jump\t// in\n    tag_32:\n      stop\n        /* \"bootcamp/week2/MultiSigWallet.sol\":889:949  mapping(uint256 => mapping(address => bool)) public approved */\n    tag_7:\n      callvalue\n      dup1\n      iszero\n      tag_35\n      jumpi\n      0x00\n      dup1\n      revert\n    tag_35:\n      pop\n      tag_36\n      0x04\n      dup1\n      calldatasize\n      sub\n      dup2\n      add\n      swap1\n      tag_37\n      swap2\n      swap1\n      tag_38\n      jump\t// in\n    tag_37:\n      tag_39\n      jump\t// in\n    tag_36:\n      mload(0x40)\n      tag_40\n      swap2\n      swap1\n      tag_26\n      jump\t// in\n    tag_40:\n      mload(0x40)\n      dup1\n      swap2\n      sub\n      swap1\n      return\n        /* \"bootcamp/week2/MultiSigWallet.sol\":832:883  mapping(uint256 => Transaction) public transactions */\n    tag_8:\n      callvalue\n      dup1\n      iszero\n      tag_41\n      jumpi\n      0x00\n      dup1\n      revert\n    tag_41:\n      pop\n      tag_42\n      0x04\n      dup1\n      calldatasize\n      sub\n      dup2\n      add\n      swap1\n      tag_43\n      swap2\n      swap1\n      tag_18\n      jump\t// in\n    tag_43:\n      tag_44\n      jump\t// in\n    tag_42:\n      mload(0x40)\n      tag_45\n      swap7\n      swap6\n      swap5\n      swap4\n      swap3\n      swap2\n      swap1\n      tag_46\n      jump\t// in\n    tag_45:\n      mload(0x40)\n      dup1\n      swap2\n      sub\n      swap1\n      return\n        /* \"bootcamp/week2/MultiSigWallet.sol\":2156:2504  function submitTx(address _to, uint256 _value, bytes memory _data) external onlyOwner {... */\n    tag_9:\n      callvalue\n      dup1\n      iszero\n      tag_47\n      jumpi\n      0x00\n      dup1\n      revert\n    tag_47:\n      pop\n      tag_48\n      0x04\n      dup1\n      calldatasize\n      sub\n      dup2\n      add\n      swap1\n      tag_49\n      swap2\n      swap1\n      tag_50\n      jump\t// in\n    tag_49:\n      tag_51\n      jump\t// in\n    tag_48:\n      stop\n        /* \"bootcamp/week2/MultiSigWallet.sol\":2510:2757  function approveTx(uint256 _txId) external onlyOwner txExists(_txId) notApproved(_txId) notExecuted(_txId) {... */\n    tag_19:\n        /* \"bootcamp/week2/MultiSigWallet.sol\":1033:1040  isOwner */\n      0x00\n        /* \"bootcamp/week2/MultiSigWallet.sol\":1033:1052  isOwner[msg.sender] */\n      dup1\n        /* \"bootcamp/week2/MultiSigWallet.sol\":1041:1051  msg.sender */\n      caller\n        /* \"bootcamp/week2/MultiSigWallet.sol\":1033:1052  isOwner[msg.sender] */\n      0xffffffffffffffffffffffffffffffffffffffff\n      and\n      0xffffffffffffffffffffffffffffffffffffffff\n      and\n      dup2\n      mstore\n      0x20\n      add\n      swap1\n      dup2\n      mstore\n      0x20\n      add\n      0x00\n      keccak256\n      0x00\n      swap1\n      sload\n      swap1\n      0x0100\n      exp\n      swap1\n      div\n      0xff\n      and\n        /* \"bootcamp/week2/MultiSigWallet.sol\":1028:1096  if (!isOwner[msg.sender]) {... */\n      tag_53\n      jumpi\n        /* \"bootcamp/week2/MultiSigWallet.sol\":1075:1085  NotOwner() */\n      mload(0x40)\n      0x30cd747100000000000000000000000000000000000000000000000000000000\n      dup2\n      mstore\n      0x04\n      add\n      mload(0x40)\n      dup1\n      swap2\n      sub\n      swap1\n      revert\n        /* \"bootcamp/week2/MultiSigWallet.sol\":1028:1096  if (!isOwner[msg.sender]) {... */\n    tag_53:\n        /* \"bootcamp/week2/MultiSigWallet.sol\":2572:2577  _txId */\n      dup1\n        /* \"bootcamp/week2/MultiSigWallet.sol\":1174:1178  txId */\n      sload(0x04)\n        /* \"bootcamp/week2/MultiSigWallet.sol\":1166:1171  _txId */\n      dup2\n        /* \"bootcamp/week2/MultiSigWallet.sol\":1166:1178  _txId > txId */\n      gt\n        /* \"bootcamp/week2/MultiSigWallet.sol\":1162:1229  if (_txId > txId) {... */\n      iszero\n      tag_55\n      jumpi\n        /* \"bootcamp/week2/MultiSigWallet.sol\":1201:1218  TxDoesNotExists() */\n      mload(0x40)\n      0x3c35a0eb00000000000000000000000000000000000000000000000000000000\n      dup2\n      mstore\n      0x04\n      add\n      mload(0x40)\n      dup1\n      swap2\n      sub\n      swap1\n      revert\n        /* \"bootcamp/week2/MultiSigWallet.sol\":1162:1229  if (_txId > txId) {... */\n    tag_55:\n        /* \"bootcamp/week2/MultiSigWallet.sol\":2591:2596  _txId */\n      dup2\n        /* \"bootcamp/week2/MultiSigWallet.sol\":1456:1464  approved */\n      0x02\n        /* \"bootcamp/week2/MultiSigWallet.sol\":1456:1471  approved[_txId] */\n      0x00\n        /* \"bootcamp/week2/MultiSigWallet.sol\":1465:1470  _txId */\n      dup3\n        /* \"bootcamp/week2/MultiSigWallet.sol\":1456:1471  approved[_txId] */\n      dup2\n      mstore\n      0x20\n      add\n      swap1\n      dup2\n      mstore\n      0x20\n      add\n      0x00\n      keccak256\n        /* \"bootcamp/week2/MultiSigWallet.sol\":1456:1483  approved[_txId][msg.sender] */\n      0x00\n        /* \"bootcamp/week2/MultiSigWallet.sol\":1472:1482  msg.sender */\n      caller\n        /* \"bootcamp/week2/MultiSigWallet.sol\":1456:1483  approved[_txId][msg.sender] */\n      0xffffffffffffffffffffffffffffffffffffffff\n      and\n      0xffffffffffffffffffffffffffffffffffffffff\n      and\n      dup2\n      mstore\n      0x20\n      add\n      swap1\n      dup2\n      mstore\n      0x20\n      add\n      0x00\n      keccak256\n      0x00\n      swap1\n      sload\n      swap1\n      0x0100\n      exp\n      swap1\n      div\n      0xff\n      and\n        /* \"bootcamp/week2/MultiSigWallet.sol\":1452:1536  if (approved[_txId][msg.sender]) {... */\n      iszero\n      tag_57\n      jumpi\n        /* \"bootcamp/week2/MultiSigWallet.sol\":1506:1525  TxAlreadyApproved() */\n      mload(0x40)\n      0x5db7ec0d00000000000000000000000000000000000000000000000000000000\n      dup2\n      mstore\n      0x04\n      add\n      mload(0x40)\n      dup1\n      swap2\n      sub\n      swap1\n      revert\n        /* \"bootcamp/week2/MultiSigWallet.sol\":1452:1536  if (approved[_txId][msg.sender]) {... */\n    tag_57:\n        /* \"bootcamp/week2/MultiSigWallet.sol\":2610:2615  _txId */\n      dup3\n        /* \"bootcamp/week2/MultiSigWallet.sol\":1302:1314  transactions */\n      0x01\n        /* \"bootcamp/week2/MultiSigWallet.sol\":1302:1321  transactions[_txId] */\n      0x00\n        /* \"bootcamp/week2/MultiSigWallet.sol\":1315:1320  _txId */\n      dup3\n        /* \"bootcamp/week2/MultiSigWallet.sol\":1302:1321  transactions[_txId] */\n      dup2\n      mstore\n      0x20\n      add\n      swap1\n      dup2\n      mstore\n      0x20\n      add\n      0x00\n      keccak256\n        /* \"bootcamp/week2/MultiSigWallet.sol\":1302:1330  transactions[_txId].executed */\n      0x05\n      add\n      0x00\n      swap1\n      sload\n      swap1\n      0x0100\n      exp\n      swap1\n      div\n      0xff\n      and\n        /* \"bootcamp/week2/MultiSigWallet.sol\":1298:1383  if (transactions[_txId].executed) {... */\n      iszero\n      tag_59\n      jumpi\n        /* \"bootcamp/week2/MultiSigWallet.sol\":1353:1372  TxAlreadyExecuted() */\n      mload(0x40)\n      0x2ea945cf00000000000000000000000000000000000000000000000000000000\n      dup2\n      mstore\n      0x04\n      add\n      mload(0x40)\n      dup1\n      swap2\n      sub\n      swap1\n      revert\n        /* \"bootcamp/week2/MultiSigWallet.sol\":1298:1383  if (transactions[_txId].executed) {... */\n    tag_59:\n        /* \"bootcamp/week2/MultiSigWallet.sol\":2627:2639  transactions */\n      0x01\n        /* \"bootcamp/week2/MultiSigWallet.sol\":2627:2646  transactions[_txId] */\n      0x00\n        /* \"bootcamp/week2/MultiSigWallet.sol\":2640:2645  _txId */\n      dup6\n        /* \"bootcamp/week2/MultiSigWallet.sol\":2627:2646  transactions[_txId] */\n      dup2\n      mstore\n      0x20\n      add\n      swap1\n      dup2\n      mstore\n      0x20\n      add\n      0x00\n      keccak256\n        /* \"bootcamp/week2/MultiSigWallet.sol\":2627:2660  transactions[_txId].confirmations */\n      0x04\n      add\n      0x00\n        /* \"bootcamp/week2/MultiSigWallet.sol\":2627:2662  transactions[_txId].confirmations++ */\n      dup2\n      sload\n      dup1\n      swap3\n      swap2\n      swap1\n      tag_61\n      swap1\n      tag_62\n      jump\t// in\n    tag_61:\n      swap2\n      swap1\n      pop\n      sstore\n      pop\n        /* \"bootcamp/week2/MultiSigWallet.sol\":2702:2706  true */\n      0x01\n        /* \"bootcamp/week2/MultiSigWallet.sol\":2672:2680  approved */\n      0x02\n        /* \"bootcamp/week2/MultiSigWallet.sol\":2672:2687  approved[_txId] */\n      0x00\n        /* \"bootcamp/week2/MultiSigWallet.sol\":2681:2686  _txId */\n      dup7\n        /* \"bootcamp/week2/MultiSigWallet.sol\":2672:2687  approved[_txId] */\n      dup2\n      mstore\n      0x20\n      add\n      swap1\n      dup2\n      mstore\n      0x20\n      add\n      0x00\n      keccak256\n        /* \"bootcamp/week2/MultiSigWallet.sol\":2672:2699  approved[_txId][msg.sender] */\n      0x00\n        /* \"bootcamp/week2/MultiSigWallet.sol\":2688:2698  msg.sender */\n      caller\n        /* \"bootcamp/week2/MultiSigWallet.sol\":2672:2699  approved[_txId][msg.sender] */\n      0xffffffffffffffffffffffffffffffffffffffff\n      and\n      0xffffffffffffffffffffffffffffffffffffffff\n      and\n      dup2\n      mstore\n      0x20\n      add\n      swap1\n      dup2\n      mstore\n      0x20\n      add\n      0x00\n      keccak256\n      0x00\n        /* \"bootcamp/week2/MultiSigWallet.sol\":2672:2706  approved[_txId][msg.sender] = true */\n      0x0100\n      exp\n      dup2\n      sload\n      dup2\n      0xff\n      mul\n      not\n      and\n      swap1\n      dup4\n      iszero\n      iszero\n      mul\n      or\n      swap1\n      sstore\n      pop\n        /* \"bootcamp/week2/MultiSigWallet.sol\":2721:2750  ApprovedTx(_txId, msg.sender) */\n      0xd4329d04e785ebe84c72dcd09fb9c65f1fbbda53ee15ec20e93342c7f3e2a62d\n        /* \"bootcamp/week2/MultiSigWallet.sol\":2732:2737  _txId */\n      dup5\n        /* \"bootcamp/week2/MultiSigWallet.sol\":2739:2749  msg.sender */\n      caller\n        /* \"bootcamp/week2/MultiSigWallet.sol\":2721:2750  ApprovedTx(_txId, msg.sender) */\n      mload(0x40)\n      tag_63\n      swap3\n      swap2\n      swap1\n      tag_64\n      jump\t// in\n    tag_63:\n      mload(0x40)\n      dup1\n      swap2\n      sub\n      swap1\n      log1\n        /* \"bootcamp/week2/MultiSigWallet.sol\":1545:1546  _ */\n      pop\n        /* \"bootcamp/week2/MultiSigWallet.sol\":1238:1239  _ */\n      pop\n        /* \"bootcamp/week2/MultiSigWallet.sol\":1105:1106  _ */\n      pop\n        /* \"bootcamp/week2/MultiSigWallet.sol\":2510:2757  function approveTx(uint256 _txId) external onlyOwner txExists(_txId) notApproved(_txId) notExecuted(_txId) {... */\n      pop\n      jump\t// out\n        /* \"bootcamp/week2/MultiSigWallet.sol\":617:656  mapping(address => bool) public isOwner */\n    tag_24:\n      mstore(0x20, 0x00)\n      dup1\n      0x00\n      mstore\n      keccak256(0x00, 0x40)\n      0x00\n      swap2\n      pop\n      sload\n      swap1\n      0x0100\n      exp\n      swap1\n      div\n      0xff\n      and\n      dup2\n      jump\t// out\n        /* \"bootcamp/week2/MultiSigWallet.sol\":2763:3337  function executeTx(uint256 _txId) external onlyOwner txExists(_txId) notExecuted(_txId) {... */\n    tag_30:\n        /* \"bootcamp/week2/MultiSigWallet.sol\":1033:1040  isOwner */\n      0x00\n        /* \"bootcamp/week2/MultiSigWallet.sol\":1033:1052  isOwner[msg.sender] */\n      dup1\n        /* \"bootcamp/week2/MultiSigWallet.sol\":1041:1051  msg.sender */\n      caller\n        /* \"bootcamp/week2/MultiSigWallet.sol\":1033:1052  isOwner[msg.sender] */\n      0xffffffffffffffffffffffffffffffffffffffff\n      and\n      0xffffffffffffffffffffffffffffffffffffffff\n      and\n      dup2\n      mstore\n      0x20\n      add\n      swap1\n      dup2\n      mstore\n      0x20\n      add\n      0x00\n      keccak256\n      0x00\n      swap1\n      sload\n      swap1\n      0x0100\n      exp\n      swap1\n      div\n      0xff\n      and\n        /* \"bootcamp/week2/MultiSigWallet.sol\":1028:1096  if (!isOwner[msg.sender]) {... */\n      tag_66\n      jumpi\n        /* \"bootcamp/week2/MultiSigWallet.sol\":1075:1085  NotOwner() */\n      mload(0x40)\n      0x30cd747100000000000000000000000000000000000000000000000000000000\n      dup2\n      mstore\n      0x04\n      add\n      mload(0x40)\n      dup1\n      swap2\n      sub\n      swap1\n      revert\n        /* \"bootcamp/week2/MultiSigWallet.sol\":1028:1096  if (!isOwner[msg.sender]) {... */\n    tag_66:\n        /* \"bootcamp/week2/MultiSigWallet.sol\":2825:2830  _txId */\n      dup1\n        /* \"bootcamp/week2/MultiSigWallet.sol\":1174:1178  txId */\n      sload(0x04)\n        /* \"bootcamp/week2/MultiSigWallet.sol\":1166:1171  _txId */\n      dup2\n        /* \"bootcamp/week2/MultiSigWallet.sol\":1166:1178  _txId > txId */\n      gt\n        /* \"bootcamp/week2/MultiSigWallet.sol\":1162:1229  if (_txId > txId) {... */\n      iszero\n      tag_68\n      jumpi\n        /* \"bootcamp/week2/MultiSigWallet.sol\":1201:1218  TxDoesNotExists() */\n      mload(0x40)\n      0x3c35a0eb00000000000000000000000000000000000000000000000000000000\n      dup2\n      mstore\n      0x04\n      add\n      mload(0x40)\n      dup1\n      swap2\n      sub\n      swap1\n      revert\n        /* \"bootcamp/week2/MultiSigWallet.sol\":1162:1229  if (_txId > txId) {... */\n    tag_68:\n        /* \"bootcamp/week2/MultiSigWallet.sol\":2844:2849  _txId */\n      dup2\n        /* \"bootcamp/week2/MultiSigWallet.sol\":1302:1314  transactions */\n      0x01\n        /* \"bootcamp/week2/MultiSigWallet.sol\":1302:1321  transactions[_txId] */\n      0x00\n        /* \"bootcamp/week2/MultiSigWallet.sol\":1315:1320  _txId */\n      dup3\n        /* \"bootcamp/week2/MultiSigWallet.sol\":1302:1321  transactions[_txId] */\n      dup2\n      mstore\n      0x20\n      add\n      swap1\n      dup2\n      mstore\n      0x20\n      add\n      0x00\n      keccak256\n        /* \"bootcamp/week2/MultiSigWallet.sol\":1302:1330  transactions[_txId].executed */\n      0x05\n      add\n      0x00\n      swap1\n      sload\n      swap1\n      0x0100\n      exp\n      swap1\n      div\n      0xff\n      and\n        /* \"bootcamp/week2/MultiSigWallet.sol\":1298:1383  if (transactions[_txId].executed) {... */\n      iszero\n      tag_70\n      jumpi\n        /* \"bootcamp/week2/MultiSigWallet.sol\":1353:1372  TxAlreadyExecuted() */\n      mload(0x40)\n      0x2ea945cf00000000000000000000000000000000000000000000000000000000\n      dup2\n      mstore\n      0x04\n      add\n      mload(0x40)\n      dup1\n      swap2\n      sub\n      swap1\n      revert\n        /* \"bootcamp/week2/MultiSigWallet.sol\":1298:1383  if (transactions[_txId].executed) {... */\n    tag_70:\n        /* \"bootcamp/week2/MultiSigWallet.sol\":2861:2892  Transaction storage transaction */\n      0x00\n        /* \"bootcamp/week2/MultiSigWallet.sol\":2895:2907  transactions */\n      0x01\n        /* \"bootcamp/week2/MultiSigWallet.sol\":2895:2914  transactions[_txId] */\n      0x00\n        /* \"bootcamp/week2/MultiSigWallet.sol\":2908:2913  _txId */\n      dup6\n        /* \"bootcamp/week2/MultiSigWallet.sol\":2895:2914  transactions[_txId] */\n      dup2\n      mstore\n      0x20\n      add\n      swap1\n      dup2\n      mstore\n      0x20\n      add\n      0x00\n      keccak256\n        /* \"bootcamp/week2/MultiSigWallet.sol\":2861:2914  Transaction storage transaction = transactions[_txId] */\n      swap1\n      pop\n        /* \"bootcamp/week2/MultiSigWallet.sol\":2956:2964  required */\n      sload(0x03)\n        /* \"bootcamp/week2/MultiSigWallet.sol\":2928:2939  transaction */\n      dup2\n        /* \"bootcamp/week2/MultiSigWallet.sol\":2928:2953  transaction.confirmations */\n      0x04\n      add\n      sload\n        /* \"bootcamp/week2/MultiSigWallet.sol\":2928:2964  transaction.confirmations < required */\n      lt\n        /* \"bootcamp/week2/MultiSigWallet.sol\":2924:3029  if (transaction.confirmations < required) {... */\n      iszero\n      tag_72\n      jumpi\n        /* \"bootcamp/week2/MultiSigWallet.sol\":2987:3018  LessConfirmationsThanRequired() */\n      mload(0x40)\n      0x9dd63cb700000000000000000000000000000000000000000000000000000000\n      dup2\n      mstore\n      0x04\n      add\n      mload(0x40)\n      dup1\n      swap2\n      sub\n      swap1\n      revert\n        /* \"bootcamp/week2/MultiSigWallet.sol\":2924:3029  if (transaction.confirmations < required) {... */\n    tag_72:\n        /* \"bootcamp/week2/MultiSigWallet.sol\":3061:3065  true */\n      0x01\n        /* \"bootcamp/week2/MultiSigWallet.sol\":3038:3049  transaction */\n      dup2\n        /* \"bootcamp/week2/MultiSigWallet.sol\":3038:3058  transaction.executed */\n      0x05\n      add\n      0x00\n        /* \"bootcamp/week2/MultiSigWallet.sol\":3038:3065  transaction.executed = true */\n      0x0100\n      exp\n      dup2\n      sload\n      dup2\n      0xff\n      mul\n      not\n      and\n      swap1\n      dup4\n      iszero\n      iszero\n      mul\n      or\n      swap1\n      sstore\n      pop\n        /* \"bootcamp/week2/MultiSigWallet.sol\":3076:3088  bool success */\n      0x00\n        /* \"bootcamp/week2/MultiSigWallet.sol\":3102:3113  transaction */\n      dup2\n        /* \"bootcamp/week2/MultiSigWallet.sol\":3102:3116  transaction.to */\n      0x01\n      add\n      0x00\n      swap1\n      sload\n      swap1\n      0x0100\n      exp\n      swap1\n      div\n      0xffffffffffffffffffffffffffffffffffffffff\n      and\n        /* \"bootcamp/week2/MultiSigWallet.sol\":3094:3122  payable(transaction.to).call */\n      0xffffffffffffffffffffffffffffffffffffffff\n      and\n        /* \"bootcamp/week2/MultiSigWallet.sol\":3130:3141  transaction */\n      dup3\n        /* \"bootcamp/week2/MultiSigWallet.sol\":3130:3147  transaction.value */\n      0x02\n      add\n      sload\n        /* \"bootcamp/week2/MultiSigWallet.sol\":3149:3160  transaction */\n      dup4\n        /* \"bootcamp/week2/MultiSigWallet.sol\":3149:3165  transaction.data */\n      0x03\n      add\n        /* \"bootcamp/week2/MultiSigWallet.sol\":3094:3166  payable(transaction.to).call{value: transaction.value}(transaction.data) */\n      mload(0x40)\n      tag_73\n      swap2\n      swap1\n      tag_74\n      jump\t// in\n    tag_73:\n      0x00\n      mload(0x40)\n      dup1\n      dup4\n      sub\n      dup2\n      dup6\n      dup8\n      gas\n      call\n      swap3\n      pop\n      pop\n      pop\n      returndatasize\n      dup1\n      0x00\n      dup2\n      eq\n      tag_77\n      jumpi\n      mload(0x40)\n      swap2\n      pop\n      and(add(returndatasize, 0x3f), not(0x1f))\n      dup3\n      add\n      0x40\n      mstore\n      returndatasize\n      dup3\n      mstore\n      returndatasize\n      0x00\n      0x20\n      dup5\n      add\n      returndatacopy\n      jump(tag_76)\n    tag_77:\n      0x60\n      swap2\n      pop\n    tag_76:\n      pop\n        /* \"bootcamp/week2/MultiSigWallet.sol\":3075:3166  (bool success, ) = payable(transaction.to).call{value: transaction.value}(transaction.data) */\n      pop\n      swap1\n      pop\n        /* \"bootcamp/week2/MultiSigWallet.sol\":3181:3188  success */\n      dup1\n        /* \"bootcamp/week2/MultiSigWallet.sol\":3176:3241  if (!success) {... */\n      tag_78\n      jumpi\n        /* \"bootcamp/week2/MultiSigWallet.sol\":3211:3230  TxExecutionFailed() */\n      mload(0x40)\n      0xcb2f2a1c00000000000000000000000000000000000000000000000000000000\n      dup2\n      mstore\n      0x04\n      add\n      mload(0x40)\n      dup1\n      swap2\n      sub\n      swap1\n      revert\n        /* \"bootcamp/week2/MultiSigWallet.sol\":3176:3241  if (!success) {... */\n    tag_78:\n        /* \"bootcamp/week2/MultiSigWallet.sol\":3255:3330  TxExecuted(transaction.to, transaction.value, transaction.data, msg.sender) */\n      0xb91792dfbec9d14f14efe0fd0328fe544073cd1befa73f98441bce708e643179\n        /* \"bootcamp/week2/MultiSigWallet.sol\":3266:3277  transaction */\n      dup3\n        /* \"bootcamp/week2/MultiSigWallet.sol\":3266:3280  transaction.to */\n      0x01\n      add\n      0x00\n      swap1\n      sload\n      swap1\n      0x0100\n      exp\n      swap1\n      div\n      0xffffffffffffffffffffffffffffffffffffffff\n      and\n        /* \"bootcamp/week2/MultiSigWallet.sol\":3282:3293  transaction */\n      dup4\n        /* \"bootcamp/week2/MultiSigWallet.sol\":3282:3299  transaction.value */\n      0x02\n      add\n      sload\n        /* \"bootcamp/week2/MultiSigWallet.sol\":3301:3312  transaction */\n      dup5\n        /* \"bootcamp/week2/MultiSigWallet.sol\":3301:3317  transaction.data */\n      0x03\n      add\n        /* \"bootcamp/week2/MultiSigWallet.sol\":3319:3329  msg.sender */\n      caller\n        /* \"bootcamp/week2/MultiSigWallet.sol\":3255:3330  TxExecuted(transaction.to, transaction.value, transaction.data, msg.sender) */\n      mload(0x40)\n      tag_79\n      swap5\n      swap4\n      swap3\n      swap2\n      swap1\n      tag_80\n      jump\t// in\n    tag_79:\n      mload(0x40)\n      dup1\n      swap2\n      sub\n      swap1\n      log1\n        /* \"bootcamp/week2/MultiSigWallet.sol\":2851:3337  {... */\n      pop\n      pop\n        /* \"bootcamp/week2/MultiSigWallet.sol\":1238:1239  _ */\n      pop\n        /* \"bootcamp/week2/MultiSigWallet.sol\":1105:1106  _ */\n      pop\n        /* \"bootcamp/week2/MultiSigWallet.sol\":2763:3337  function executeTx(uint256 _txId) external onlyOwner txExists(_txId) notExecuted(_txId) {... */\n      pop\n      jump\t// out\n        /* \"bootcamp/week2/MultiSigWallet.sol\":3343:3641  function revokeTx(uint256 _txId) external onlyOwner txExists(_txId) notExecuted(_txId) {... */\n    tag_34:\n        /* \"bootcamp/week2/MultiSigWallet.sol\":1033:1040  isOwner */\n      0x00\n        /* \"bootcamp/week2/MultiSigWallet.sol\":1033:1052  isOwner[msg.sender] */\n      dup1\n        /* \"bootcamp/week2/MultiSigWallet.sol\":1041:1051  msg.sender */\n      caller\n        /* \"bootcamp/week2/MultiSigWallet.sol\":1033:1052  isOwner[msg.sender] */\n      0xffffffffffffffffffffffffffffffffffffffff\n      and\n      0xffffffffffffffffffffffffffffffffffffffff\n      and\n      dup2\n      mstore\n      0x20\n      add\n      swap1\n      dup2\n      mstore\n      0x20\n      add\n      0x00\n      keccak256\n      0x00\n      swap1\n      sload\n      swap1\n      0x0100\n      exp\n      swap1\n      div\n      0xff\n      and\n        /* \"bootcamp/week2/MultiSigWallet.sol\":1028:1096  if (!isOwner[msg.sender]) {... */\n      tag_82\n      jumpi\n        /* \"bootcamp/week2/MultiSigWallet.sol\":1075:1085  NotOwner() */\n      mload(0x40)\n      0x30cd747100000000000000000000000000000000000000000000000000000000\n      dup2\n      mstore\n      0x04\n      add\n      mload(0x40)\n      dup1\n      swap2\n      sub\n      swap1\n      revert\n        /* \"bootcamp/week2/MultiSigWallet.sol\":1028:1096  if (!isOwner[msg.sender]) {... */\n    tag_82:\n        /* \"bootcamp/week2/MultiSigWallet.sol\":3404:3409  _txId */\n      dup1\n        /* \"bootcamp/week2/MultiSigWallet.sol\":1174:1178  txId */\n      sload(0x04)\n        /* \"bootcamp/week2/MultiSigWallet.sol\":1166:1171  _txId */\n      dup2\n        /* \"bootcamp/week2/MultiSigWallet.sol\":1166:1178  _txId > txId */\n      gt\n        /* \"bootcamp/week2/MultiSigWallet.sol\":1162:1229  if (_txId > txId) {... */\n      iszero\n      tag_84\n      jumpi\n        /* \"bootcamp/week2/MultiSigWallet.sol\":1201:1218  TxDoesNotExists() */\n      mload(0x40)\n      0x3c35a0eb00000000000000000000000000000000000000000000000000000000\n      dup2\n      mstore\n      0x04\n      add\n      mload(0x40)\n      dup1\n      swap2\n      sub\n      swap1\n      revert\n        /* \"bootcamp/week2/MultiSigWallet.sol\":1162:1229  if (_txId > txId) {... */\n    tag_84:\n        /* \"bootcamp/week2/MultiSigWallet.sol\":3423:3428  _txId */\n      dup2\n        /* \"bootcamp/week2/MultiSigWallet.sol\":1302:1314  transactions */\n      0x01\n        /* \"bootcamp/week2/MultiSigWallet.sol\":1302:1321  transactions[_txId] */\n      0x00\n        /* \"bootcamp/week2/MultiSigWallet.sol\":1315:1320  _txId */\n      dup3\n        /* \"bootcamp/week2/MultiSigWallet.sol\":1302:1321  transactions[_txId] */\n      dup2\n      mstore\n      0x20\n      add\n      swap1\n      dup2\n      mstore\n      0x20\n      add\n      0x00\n      keccak256\n        /* \"bootcamp/week2/MultiSigWallet.sol\":1302:1330  transactions[_txId].executed */\n      0x05\n      add\n      0x00\n      swap1\n      sload\n      swap1\n      0x0100\n      exp\n      swap1\n      div\n      0xff\n      and\n        /* \"bootcamp/week2/MultiSigWallet.sol\":1298:1383  if (transactions[_txId].executed) {... */\n      iszero\n      tag_86\n      jumpi\n        /* \"bootcamp/week2/MultiSigWallet.sol\":1353:1372  TxAlreadyExecuted() */\n      mload(0x40)\n      0x2ea945cf00000000000000000000000000000000000000000000000000000000\n      dup2\n      mstore\n      0x04\n      add\n      mload(0x40)\n      dup1\n      swap2\n      sub\n      swap1\n      revert\n        /* \"bootcamp/week2/MultiSigWallet.sol\":1298:1383  if (transactions[_txId].executed) {... */\n    tag_86:\n        /* \"bootcamp/week2/MultiSigWallet.sol\":3444:3452  approved */\n      0x02\n        /* \"bootcamp/week2/MultiSigWallet.sol\":3444:3459  approved[_txId] */\n      0x00\n        /* \"bootcamp/week2/MultiSigWallet.sol\":3453:3458  _txId */\n      dup5\n        /* \"bootcamp/week2/MultiSigWallet.sol\":3444:3459  approved[_txId] */\n      dup2\n      mstore\n      0x20\n      add\n      swap1\n      dup2\n      mstore\n      0x20\n      add\n      0x00\n      keccak256\n        /* \"bootcamp/week2/MultiSigWallet.sol\":3444:3471  approved[_txId][msg.sender] */\n      0x00\n        /* \"bootcamp/week2/MultiSigWallet.sol\":3460:3470  msg.sender */\n      caller\n        /* \"bootcamp/week2/MultiSigWallet.sol\":3444:3471  approved[_txId][msg.sender] */\n      0xffffffffffffffffffffffffffffffffffffffff\n      and\n      0xffffffffffffffffffffffffffffffffffffffff\n      and\n      dup2\n      mstore\n      0x20\n      add\n      swap1\n      dup2\n      mstore\n      0x20\n      add\n      0x00\n      keccak256\n      0x00\n      swap1\n      sload\n      swap1\n      0x0100\n      exp\n      swap1\n      div\n      0xff\n      and\n        /* \"bootcamp/week2/MultiSigWallet.sol\":3440:3635  if (approved[_txId][msg.sender]) {... */\n      iszero\n      tag_88\n      jumpi\n        /* \"bootcamp/week2/MultiSigWallet.sol\":3487:3499  transactions */\n      0x01\n        /* \"bootcamp/week2/MultiSigWallet.sol\":3487:3506  transactions[_txId] */\n      0x00\n        /* \"bootcamp/week2/MultiSigWallet.sol\":3500:3505  _txId */\n      dup5\n        /* \"bootcamp/week2/MultiSigWallet.sol\":3487:3506  transactions[_txId] */\n      dup2\n      mstore\n      0x20\n      add\n      swap1\n      dup2\n      mstore\n      0x20\n      add\n      0x00\n      keccak256\n        /* \"bootcamp/week2/MultiSigWallet.sol\":3487:3520  transactions[_txId].confirmations */\n      0x04\n      add\n      0x00\n        /* \"bootcamp/week2/MultiSigWallet.sol\":3487:3522  transactions[_txId].confirmations-- */\n      dup2\n      sload\n      dup1\n      swap3\n      swap2\n      swap1\n      tag_89\n      swap1\n      tag_90\n      jump\t// in\n    tag_89:\n      swap2\n      swap1\n      pop\n      sstore\n      pop\n        /* \"bootcamp/week2/MultiSigWallet.sol\":3566:3571  false */\n      0x00\n        /* \"bootcamp/week2/MultiSigWallet.sol\":3536:3544  approved */\n      0x02\n        /* \"bootcamp/week2/MultiSigWallet.sol\":3536:3551  approved[_txId] */\n      0x00\n        /* \"bootcamp/week2/MultiSigWallet.sol\":3545:3550  _txId */\n      dup6\n        /* \"bootcamp/week2/MultiSigWallet.sol\":3536:3551  approved[_txId] */\n      dup2\n      mstore\n      0x20\n      add\n      swap1\n      dup2\n      mstore\n      0x20\n      add\n      0x00\n      keccak256\n        /* \"bootcamp/week2/MultiSigWallet.sol\":3536:3563  approved[_txId][msg.sender] */\n      0x00\n        /* \"bootcamp/week2/MultiSigWallet.sol\":3552:3562  msg.sender */\n      caller\n        /* \"bootcamp/week2/MultiSigWallet.sol\":3536:3563  approved[_txId][msg.sender] */\n      0xffffffffffffffffffffffffffffffffffffffff\n      and\n      0xffffffffffffffffffffffffffffffffffffffff\n      and\n      dup2\n      mstore\n      0x20\n      add\n      swap1\n      dup2\n      mstore\n      0x20\n      add\n      0x00\n      keccak256\n      0x00\n        /* \"bootcamp/week2/MultiSigWallet.sol\":3536:3571  approved[_txId][msg.sender] = false */\n      0x0100\n      exp\n      dup2\n      sload\n      dup2\n      0xff\n      mul\n      not\n      and\n      swap1\n      dup4\n      iszero\n      iszero\n      mul\n      or\n      swap1\n      sstore\n      pop\n        /* \"bootcamp/week2/MultiSigWallet.sol\":3440:3635  if (approved[_txId][msg.sender]) {... */\n      jump(tag_91)\n    tag_88:\n        /* \"bootcamp/week2/MultiSigWallet.sol\":3609:3624  TxNotApproved() */\n      mload(0x40)\n      0xfafe52bf00000000000000000000000000000000000000000000000000000000\n      dup2\n      mstore\n      0x04\n      add\n      mload(0x40)\n      dup1\n      swap2\n      sub\n      swap1\n      revert\n        /* \"bootcamp/week2/MultiSigWallet.sol\":3440:3635  if (approved[_txId][msg.sender]) {... */\n    tag_91:\n        /* \"bootcamp/week2/MultiSigWallet.sol\":1238:1239  _ */\n      pop\n        /* \"bootcamp/week2/MultiSigWallet.sol\":1105:1106  _ */\n      pop\n        /* \"bootcamp/week2/MultiSigWallet.sol\":3343:3641  function revokeTx(uint256 _txId) external onlyOwner txExists(_txId) notExecuted(_txId) {... */\n      pop\n      jump\t// out\n        /* \"bootcamp/week2/MultiSigWallet.sol\":889:949  mapping(uint256 => mapping(address => bool)) public approved */\n    tag_39:\n      mstore(0x20, 0x02)\n      dup2\n      0x00\n      mstore\n      mstore(0x20, keccak256(0x00, 0x40))\n      dup1\n      0x00\n      mstore\n      keccak256(0x00, 0x40)\n      0x00\n      swap2\n      pop\n      swap2\n      pop\n      swap1\n      sload\n      swap1\n      0x0100\n      exp\n      swap1\n      div\n      0xff\n      and\n      dup2\n      jump\t// out\n        /* \"bootcamp/week2/MultiSigWallet.sol\":832:883  mapping(uint256 => Transaction) public transactions */\n    tag_44:\n      mstore(0x20, 0x01)\n      dup1\n      0x00\n      mstore\n      keccak256(0x00, 0x40)\n      0x00\n      swap2\n      pop\n      swap1\n      pop\n      dup1\n      0x00\n      add\n      sload\n      swap1\n      dup1\n      0x01\n      add\n      0x00\n      swap1\n      sload\n      swap1\n      0x0100\n      exp\n      swap1\n      div\n      0xffffffffffffffffffffffffffffffffffffffff\n      and\n      swap1\n      dup1\n      0x02\n      add\n      sload\n      swap1\n      dup1\n      0x03\n      add\n      dup1\n      sload\n      tag_92\n      swap1\n      tag_93\n      jump\t// in\n    tag_92:\n      dup1\n      0x1f\n      add\n      0x20\n      dup1\n      swap2\n      div\n      mul\n      0x20\n      add\n      mload(0x40)\n      swap1\n      dup2\n      add\n      0x40\n      mstore\n      dup1\n      swap3\n      swap2\n      swap1\n      dup2\n      dup2\n      mstore\n      0x20\n      add\n      dup3\n      dup1\n      sload\n      tag_94\n      swap1\n      tag_93\n      jump\t// in\n    tag_94:\n      dup1\n      iszero\n      tag_95\n      jumpi\n      dup1\n      0x1f\n      lt\n      tag_96\n      jumpi\n      0x0100\n      dup1\n      dup4\n      sload\n      div\n      mul\n      dup4\n      mstore\n      swap2\n      0x20\n      add\n      swap2\n      jump(tag_95)\n    tag_96:\n      dup3\n      add\n      swap2\n      swap1\n      0x00\n      mstore\n      keccak256(0x00, 0x20)\n      swap1\n    tag_97:\n      dup2\n      sload\n      dup2\n      mstore\n      swap1\n      0x01\n      add\n      swap1\n      0x20\n      add\n      dup1\n      dup4\n      gt\n      tag_97\n      jumpi\n      dup3\n      swap1\n      sub\n      0x1f\n      and\n      dup3\n      add\n      swap2\n    tag_95:\n      pop\n      pop\n      pop\n      pop\n      pop\n      swap1\n      dup1\n      0x04\n      add\n      sload\n      swap1\n      dup1\n      0x05\n      add\n      0x00\n      swap1\n      sload\n      swap1\n      0x0100\n      exp\n      swap1\n      div\n      0xff\n      and\n      swap1\n      pop\n      dup7\n      jump\t// out\n        /* \"bootcamp/week2/MultiSigWallet.sol\":2156:2504  function submitTx(address _to, uint256 _value, bytes memory _data) external onlyOwner {... */\n    tag_51:\n        /* \"bootcamp/week2/MultiSigWallet.sol\":1033:1040  isOwner */\n      0x00\n        /* \"bootcamp/week2/MultiSigWallet.sol\":1033:1052  isOwner[msg.sender] */\n      dup1\n        /* \"bootcamp/week2/MultiSigWallet.sol\":1041:1051  msg.sender */\n      caller\n        /* \"bootcamp/week2/MultiSigWallet.sol\":1033:1052  isOwner[msg.sender] */\n      0xffffffffffffffffffffffffffffffffffffffff\n      and\n      0xffffffffffffffffffffffffffffffffffffffff\n      and\n      dup2\n      mstore\n      0x20\n      add\n      swap1\n      dup2\n      mstore\n      0x20\n      add\n      0x00\n      keccak256\n      0x00\n      swap1\n      sload\n      swap1\n      0x0100\n      exp\n      swap1\n      div\n      0xff\n      and\n        /* \"bootcamp/week2/MultiSigWallet.sol\":1028:1096  if (!isOwner[msg.sender]) {... */\n      tag_99\n      jumpi\n        /* \"bootcamp/week2/MultiSigWallet.sol\":1075:1085  NotOwner() */\n      mload(0x40)\n      0x30cd747100000000000000000000000000000000000000000000000000000000\n      dup2\n      mstore\n      0x04\n      add\n      mload(0x40)\n      dup1\n      swap2\n      sub\n      swap1\n      revert\n        /* \"bootcamp/week2/MultiSigWallet.sol\":1028:1096  if (!isOwner[msg.sender]) {... */\n    tag_99:\n        /* \"bootcamp/week2/MultiSigWallet.sol\":2252:2283  Transaction storage transaction */\n      0x00\n        /* \"bootcamp/week2/MultiSigWallet.sol\":2286:2298  transactions */\n      0x01\n        /* \"bootcamp/week2/MultiSigWallet.sol\":2286:2304  transactions[txId] */\n      0x00\n        /* \"bootcamp/week2/MultiSigWallet.sol\":2299:2303  txId */\n      sload(0x04)\n        /* \"bootcamp/week2/MultiSigWallet.sol\":2286:2304  transactions[txId] */\n      dup2\n      mstore\n      0x20\n      add\n      swap1\n      dup2\n      mstore\n      0x20\n      add\n      0x00\n      keccak256\n        /* \"bootcamp/week2/MultiSigWallet.sol\":2252:2304  Transaction storage transaction = transactions[txId] */\n      swap1\n      pop\n        /* \"bootcamp/week2/MultiSigWallet.sol\":2331:2335  txId */\n      sload(0x04)\n        /* \"bootcamp/week2/MultiSigWallet.sol\":2314:2325  transaction */\n      dup2\n        /* \"bootcamp/week2/MultiSigWallet.sol\":2314:2328  transaction.id */\n      0x00\n      add\n        /* \"bootcamp/week2/MultiSigWallet.sol\":2314:2335  transaction.id = txId */\n      dup2\n      swap1\n      sstore\n      pop\n        /* \"bootcamp/week2/MultiSigWallet.sol\":2362:2365  _to */\n      dup4\n        /* \"bootcamp/week2/MultiSigWallet.sol\":2345:2356  transaction */\n      dup2\n        /* \"bootcamp/week2/MultiSigWallet.sol\":2345:2359  transaction.to */\n      0x01\n      add\n      0x00\n        /* \"bootcamp/week2/MultiSigWallet.sol\":2345:2365  transaction.to = _to */\n      0x0100\n      exp\n      dup2\n      sload\n      dup2\n      0xffffffffffffffffffffffffffffffffffffffff\n      mul\n      not\n      and\n      swap1\n      dup4\n      0xffffffffffffffffffffffffffffffffffffffff\n      and\n      mul\n      or\n      swap1\n      sstore\n      pop\n        /* \"bootcamp/week2/MultiSigWallet.sol\":2395:2401  _value */\n      dup3\n        /* \"bootcamp/week2/MultiSigWallet.sol\":2375:2386  transaction */\n      dup2\n        /* \"bootcamp/week2/MultiSigWallet.sol\":2375:2392  transaction.value */\n      0x02\n      add\n        /* \"bootcamp/week2/MultiSigWallet.sol\":2375:2401  transaction.value = _value */\n      dup2\n      swap1\n      sstore\n      pop\n        /* \"bootcamp/week2/MultiSigWallet.sol\":2430:2435  _data */\n      dup2\n        /* \"bootcamp/week2/MultiSigWallet.sol\":2411:2422  transaction */\n      dup2\n        /* \"bootcamp/week2/MultiSigWallet.sol\":2411:2427  transaction.data */\n      0x03\n      add\n        /* \"bootcamp/week2/MultiSigWallet.sol\":2411:2435  transaction.data = _data */\n      swap1\n      dup1\n      mload\n      swap1\n      0x20\n      add\n      swap1\n      tag_101\n      swap3\n      swap2\n      swap1\n      tag_102\n      jump\t// in\n    tag_101:\n      pop\n        /* \"bootcamp/week2/MultiSigWallet.sol\":2445:2449  txId */\n      0x04\n      0x00\n        /* \"bootcamp/week2/MultiSigWallet.sol\":2445:2451  txId++ */\n      dup2\n      sload\n      dup1\n      swap3\n      swap2\n      swap1\n      tag_103\n      swap1\n      tag_62\n      jump\t// in\n    tag_103:\n      swap2\n      swap1\n      pop\n      sstore\n      pop\n        /* \"bootcamp/week2/MultiSigWallet.sol\":2466:2497  SubmittedTx(_to, _value, _data) */\n      0x315d8bf6c6d36a1411ee3d8d607b26df37940936bd273e006857a296fbac2ce8\n        /* \"bootcamp/week2/MultiSigWallet.sol\":2478:2481  _to */\n      dup5\n        /* \"bootcamp/week2/MultiSigWallet.sol\":2483:2489  _value */\n      dup5\n        /* \"bootcamp/week2/MultiSigWallet.sol\":2491:2496  _data */\n      dup5\n        /* \"bootcamp/week2/MultiSigWallet.sol\":2466:2497  SubmittedTx(_to, _value, _data) */\n      mload(0x40)\n      tag_104\n      swap4\n      swap3\n      swap2\n      swap1\n      tag_105\n      jump\t// in\n    tag_104:\n      mload(0x40)\n      dup1\n      swap2\n      sub\n      swap1\n      log1\n        /* \"bootcamp/week2/MultiSigWallet.sol\":2242:2504  {... */\n      pop\n        /* \"bootcamp/week2/MultiSigWallet.sol\":2156:2504  function submitTx(address _to, uint256 _value, bytes memory _data) external onlyOwner {... */\n      pop\n      pop\n      pop\n      jump\t// out\n    tag_102:\n      dup3\n      dup1\n      sload\n      tag_106\n      swap1\n      tag_93\n      jump\t// in\n    tag_106:\n      swap1\n      0x00\n      mstore\n      keccak256(0x00, 0x20)\n      swap1\n      0x1f\n      add\n      0x20\n      swap1\n      div\n      dup2\n      add\n      swap3\n      dup3\n      tag_108\n      jumpi\n      0x00\n      dup6\n      sstore\n      jump(tag_107)\n    tag_108:\n      dup3\n      0x1f\n      lt\n      tag_109\n      jumpi\n      dup1\n      mload\n      not(0xff)\n      and\n      dup4\n      dup1\n      add\n      or\n      dup6\n      sstore\n      jump(tag_107)\n    tag_109:\n      dup3\n      dup1\n      add\n      0x01\n      add\n      dup6\n      sstore\n      dup3\n      iszero\n      tag_107\n      jumpi\n      swap2\n      dup3\n      add\n    tag_110:\n      dup3\n      dup2\n      gt\n      iszero\n      tag_111\n      jumpi\n      dup3\n      mload\n      dup3\n      sstore\n      swap2\n      0x20\n      add\n      swap2\n      swap1\n      0x01\n      add\n      swap1\n      jump(tag_110)\n    tag_111:\n    tag_107:\n      pop\n      swap1\n      pop\n      tag_112\n      swap2\n      swap1\n      tag_113\n      jump\t// in\n    tag_112:\n      pop\n      swap1\n      jump\t// out\n    tag_113:\n    tag_114:\n      dup1\n      dup3\n      gt\n      iszero\n      tag_115\n      jumpi\n      0x00\n      dup2\n      0x00\n      swap1\n      sstore\n      pop\n      0x01\n      add\n      jump(tag_114)\n    tag_115:\n      pop\n      swap1\n      jump\t// out\n        /* \"#utility.yul\":7:417   */\n    tag_117:\n        /* \"#utility.yul\":84:89   */\n      0x00\n        /* \"#utility.yul\":109:174   */\n      tag_119\n        /* \"#utility.yul\":125:173   */\n      tag_120\n        /* \"#utility.yul\":166:172   */\n      dup5\n        /* \"#utility.yul\":125:173   */\n      tag_121\n      jump\t// in\n    tag_120:\n        /* \"#utility.yul\":109:174   */\n      tag_122\n      jump\t// in\n    tag_119:\n        /* \"#utility.yul\":100:174   */\n      swap1\n      pop\n        /* \"#utility.yul\":197:203   */\n      dup3\n        /* \"#utility.yul\":190:195   */\n      dup2\n        /* \"#utility.yul\":183:204   */\n      mstore\n        /* \"#utility.yul\":235:239   */\n      0x20\n        /* \"#utility.yul\":228:233   */\n      dup2\n        /* \"#utility.yul\":224:240   */\n      add\n        /* \"#utility.yul\":273:276   */\n      dup5\n        /* \"#utility.yul\":264:270   */\n      dup5\n        /* \"#utility.yul\":259:262   */\n      dup5\n        /* \"#utility.yul\":255:271   */\n      add\n        /* \"#utility.yul\":252:277   */\n      gt\n        /* \"#utility.yul\":249:361   */\n      iszero\n      tag_123\n      jumpi\n        /* \"#utility.yul\":280:359   */\n      tag_124\n      tag_125\n      jump\t// in\n    tag_124:\n        /* \"#utility.yul\":249:361   */\n    tag_123:\n        /* \"#utility.yul\":370:411   */\n      tag_126\n        /* \"#utility.yul\":404:410   */\n      dup5\n        /* \"#utility.yul\":399:402   */\n      dup3\n        /* \"#utility.yul\":394:397   */\n      dup6\n        /* \"#utility.yul\":370:411   */\n      tag_127\n      jump\t// in\n    tag_126:\n        /* \"#utility.yul\":90:417   */\n      pop\n        /* \"#utility.yul\":7:417   */\n      swap4\n      swap3\n      pop\n      pop\n      pop\n      jump\t// out\n        /* \"#utility.yul\":423:562   */\n    tag_128:\n        /* \"#utility.yul\":469:474   */\n      0x00\n        /* \"#utility.yul\":507:513   */\n      dup2\n        /* \"#utility.yul\":494:514   */\n      calldataload\n        /* \"#utility.yul\":485:514   */\n      swap1\n      pop\n        /* \"#utility.yul\":523:556   */\n      tag_130\n        /* \"#utility.yul\":550:555   */\n      dup2\n        /* \"#utility.yul\":523:556   */\n      tag_131\n      jump\t// in\n    tag_130:\n        /* \"#utility.yul\":423:562   */\n      swap3\n      swap2\n      pop\n      pop\n      jump\t// out\n        /* \"#utility.yul\":581:919   */\n    tag_132:\n        /* \"#utility.yul\":636:641   */\n      0x00\n        /* \"#utility.yul\":685:688   */\n      dup3\n        /* \"#utility.yul\":678:682   */\n      0x1f\n        /* \"#utility.yul\":670:676   */\n      dup4\n        /* \"#utility.yul\":666:683   */\n      add\n        /* \"#utility.yul\":662:689   */\n      slt\n        /* \"#utility.yul\":652:774   */\n      tag_134\n      jumpi\n        /* \"#utility.yul\":693:772   */\n      tag_135\n      tag_136\n      jump\t// in\n    tag_135:\n        /* \"#utility.yul\":652:774   */\n    tag_134:\n        /* \"#utility.yul\":810:816   */\n      dup2\n        /* \"#utility.yul\":797:817   */\n      calldataload\n        /* \"#utility.yul\":835:913   */\n      tag_137\n        /* \"#utility.yul\":909:912   */\n      dup5\n        /* \"#utility.yul\":901:907   */\n      dup3\n        /* \"#utility.yul\":894:898   */\n      0x20\n        /* \"#utility.yul\":886:892   */\n      dup7\n        /* \"#utility.yul\":882:899   */\n      add\n        /* \"#utility.yul\":835:913   */\n      tag_117\n      jump\t// in\n    tag_137:\n        /* \"#utility.yul\":826:913   */\n      swap2\n      pop\n        /* \"#utility.yul\":642:919   */\n      pop\n        /* \"#utility.yul\":581:919   */\n      swap3\n      swap2\n      pop\n      pop\n      jump\t// out\n        /* \"#utility.yul\":925:1064   */\n    tag_138:\n        /* \"#utility.yul\":971:976   */\n      0x00\n        /* \"#utility.yul\":1009:1015   */\n      dup2\n        /* \"#utility.yul\":996:1016   */\n      calldataload\n        /* \"#utility.yul\":987:1016   */\n      swap1\n      pop\n        /* \"#utility.yul\":1025:1058   */\n      tag_140\n        /* \"#utility.yul\":1052:1057   */\n      dup2\n        /* \"#utility.yul\":1025:1058   */\n      tag_141\n      jump\t// in\n    tag_140:\n        /* \"#utility.yul\":925:1064   */\n      swap3\n      swap2\n      pop\n      pop\n      jump\t// out\n        /* \"#utility.yul\":1070:1399   */\n    tag_23:\n        /* \"#utility.yul\":1129:1135   */\n      0x00\n        /* \"#utility.yul\":1178:1180   */\n      0x20\n        /* \"#utility.yul\":1166:1175   */\n      dup3\n        /* \"#utility.yul\":1157:1164   */\n      dup5\n        /* \"#utility.yul\":1153:1176   */\n      sub\n        /* \"#utility.yul\":1149:1181   */\n      slt\n        /* \"#utility.yul\":1146:1265   */\n      iszero\n      tag_143\n      jumpi\n        /* \"#utility.yul\":1184:1263   */\n      tag_144\n      tag_145\n      jump\t// in\n    tag_144:\n        /* \"#utility.yul\":1146:1265   */\n    tag_143:\n        /* \"#utility.yul\":1304:1305   */\n      0x00\n        /* \"#utility.yul\":1329:1382   */\n      tag_146\n        /* \"#utility.yul\":1374:1381   */\n      dup5\n        /* \"#utility.yul\":1365:1371   */\n      dup3\n        /* \"#utility.yul\":1354:1363   */\n      dup6\n        /* \"#utility.yul\":1350:1372   */\n      add\n        /* \"#utility.yul\":1329:1382   */\n      tag_128\n      jump\t// in\n    tag_146:\n        /* \"#utility.yul\":1319:1382   */\n      swap2\n      pop\n        /* \"#utility.yul\":1275:1392   */\n      pop\n        /* \"#utility.yul\":1070:1399   */\n      swap3\n      swap2\n      pop\n      pop\n      jump\t// out\n        /* \"#utility.yul\":1405:2202   */\n    tag_50:\n        /* \"#utility.yul\":1491:1497   */\n      0x00\n        /* \"#utility.yul\":1499:1505   */\n      dup1\n        /* \"#utility.yul\":1507:1513   */\n      0x00\n        /* \"#utility.yul\":1556:1558   */\n      0x60\n        /* \"#utility.yul\":1544:1553   */\n      dup5\n        /* \"#utility.yul\":1535:1542   */\n      dup7\n        /* \"#utility.yul\":1531:1554   */\n      sub\n        /* \"#utility.yul\":1527:1559   */\n      slt\n        /* \"#utility.yul\":1524:1643   */\n      iszero\n      tag_148\n      jumpi\n        /* \"#utility.yul\":1562:1641   */\n      tag_149\n      tag_145\n      jump\t// in\n    tag_149:\n        /* \"#utility.yul\":1524:1643   */\n    tag_148:\n        /* \"#utility.yul\":1682:1683   */\n      0x00\n        /* \"#utility.yul\":1707:1760   */\n      tag_150\n        /* \"#utility.yul\":1752:1759   */\n      dup7\n        /* \"#utility.yul\":1743:1749   */\n      dup3\n        /* \"#utility.yul\":1732:1741   */\n      dup8\n        /* \"#utility.yul\":1728:1750   */\n      add\n        /* \"#utility.yul\":1707:1760   */\n      tag_128\n      jump\t// in\n    tag_150:\n        /* \"#utility.yul\":1697:1760   */\n      swap4\n      pop\n        /* \"#utility.yul\":1653:1770   */\n      pop\n        /* \"#utility.yul\":1809:1811   */\n      0x20\n        /* \"#utility.yul\":1835:1888   */\n      tag_151\n        /* \"#utility.yul\":1880:1887   */\n      dup7\n        /* \"#utility.yul\":1871:1877   */\n      dup3\n        /* \"#utility.yul\":1860:1869   */\n      dup8\n        /* \"#utility.yul\":1856:1878   */\n      add\n        /* \"#utility.yul\":1835:1888   */\n      tag_138\n      jump\t// in\n    tag_151:\n        /* \"#utility.yul\":1825:1888   */\n      swap3\n      pop\n        /* \"#utility.yul\":1780:1898   */\n      pop\n        /* \"#utility.yul\":1965:1967   */\n      0x40\n        /* \"#utility.yul\":1954:1963   */\n      dup5\n        /* \"#utility.yul\":1950:1968   */\n      add\n        /* \"#utility.yul\":1937:1969   */\n      calldataload\n        /* \"#utility.yul\":1996:2014   */\n      0xffffffffffffffff\n        /* \"#utility.yul\":1988:1994   */\n      dup2\n        /* \"#utility.yul\":1985:2015   */\n      gt\n        /* \"#utility.yul\":1982:2099   */\n      iszero\n      tag_152\n      jumpi\n        /* \"#utility.yul\":2018:2097   */\n      tag_153\n      tag_154\n      jump\t// in\n    tag_153:\n        /* \"#utility.yul\":1982:2099   */\n    tag_152:\n        /* \"#utility.yul\":2123:2185   */\n      tag_155\n        /* \"#utility.yul\":2177:2184   */\n      dup7\n        /* \"#utility.yul\":2168:2174   */\n      dup3\n        /* \"#utility.yul\":2157:2166   */\n      dup8\n        /* \"#utility.yul\":2153:2175   */\n      add\n        /* \"#utility.yul\":2123:2185   */\n      tag_132\n      jump\t// in\n    tag_155:\n        /* \"#utility.yul\":2113:2185   */\n      swap2\n      pop\n        /* \"#utility.yul\":1908:2195   */\n      pop\n        /* \"#utility.yul\":1405:2202   */\n      swap3\n      pop\n      swap3\n      pop\n      swap3\n      jump\t// out\n        /* \"#utility.yul\":2208:2537   */\n    tag_18:\n        /* \"#utility.yul\":2267:2273   */\n      0x00\n        /* \"#utility.yul\":2316:2318   */\n      0x20\n        /* \"#utility.yul\":2304:2313   */\n      dup3\n        /* \"#utility.yul\":2295:2302   */\n      dup5\n        /* \"#utility.yul\":2291:2314   */\n      sub\n        /* \"#utility.yul\":2287:2319   */\n      slt\n        /* \"#utility.yul\":2284:2403   */\n      iszero\n      tag_157\n      jumpi\n        /* \"#utility.yul\":2322:2401   */\n      tag_158\n      tag_145\n      jump\t// in\n    tag_158:\n        /* \"#utility.yul\":2284:2403   */\n    tag_157:\n        /* \"#utility.yul\":2442:2443   */\n      0x00\n        /* \"#utility.yul\":2467:2520   */\n      tag_159\n        /* \"#utility.yul\":2512:2519   */\n      dup5\n        /* \"#utility.yul\":2503:2509   */\n      dup3\n        /* \"#utility.yul\":2492:2501   */\n      dup6\n        /* \"#utility.yul\":2488:2510   */\n      add\n        /* \"#utility.yul\":2467:2520   */\n      tag_138\n      jump\t// in\n    tag_159:\n        /* \"#utility.yul\":2457:2520   */\n      swap2\n      pop\n        /* \"#utility.yul\":2413:2530   */\n      pop\n        /* \"#utility.yul\":2208:2537   */\n      swap3\n      swap2\n      pop\n      pop\n      jump\t// out\n        /* \"#utility.yul\":2543:3017   */\n    tag_38:\n        /* \"#utility.yul\":2611:2617   */\n      0x00\n        /* \"#utility.yul\":2619:2625   */\n      dup1\n        /* \"#utility.yul\":2668:2670   */\n      0x40\n        /* \"#utility.yul\":2656:2665   */\n      dup4\n        /* \"#utility.yul\":2647:2654   */\n      dup6\n        /* \"#utility.yul\":2643:2666   */\n      sub\n        /* \"#utility.yul\":2639:2671   */\n      slt\n        /* \"#utility.yul\":2636:2755   */\n      iszero\n      tag_161\n      jumpi\n        /* \"#utility.yul\":2674:2753   */\n      tag_162\n      tag_145\n      jump\t// in\n    tag_162:\n        /* \"#utility.yul\":2636:2755   */\n    tag_161:\n        /* \"#utility.yul\":2794:2795   */\n      0x00\n        /* \"#utility.yul\":2819:2872   */\n      tag_163\n        /* \"#utility.yul\":2864:2871   */\n      dup6\n        /* \"#utility.yul\":2855:2861   */\n      dup3\n        /* \"#utility.yul\":2844:2853   */\n      dup7\n        /* \"#utility.yul\":2840:2862   */\n      add\n        /* \"#utility.yul\":2819:2872   */\n      tag_138\n      jump\t// in\n    tag_163:\n        /* \"#utility.yul\":2809:2872   */\n      swap3\n      pop\n        /* \"#utility.yul\":2765:2882   */\n      pop\n        /* \"#utility.yul\":2921:2923   */\n      0x20\n        /* \"#utility.yul\":2947:3000   */\n      tag_164\n        /* \"#utility.yul\":2992:2999   */\n      dup6\n        /* \"#utility.yul\":2983:2989   */\n      dup3\n        /* \"#utility.yul\":2972:2981   */\n      dup7\n        /* \"#utility.yul\":2968:2990   */\n      add\n        /* \"#utility.yul\":2947:3000   */\n      tag_128\n      jump\t// in\n    tag_164:\n        /* \"#utility.yul\":2937:3000   */\n      swap2\n      pop\n        /* \"#utility.yul\":2892:3010   */\n      pop\n        /* \"#utility.yul\":2543:3017   */\n      swap3\n      pop\n      swap3\n      swap1\n      pop\n      jump\t// out\n        /* \"#utility.yul\":3023:3141   */\n    tag_165:\n        /* \"#utility.yul\":3110:3134   */\n      tag_167\n        /* \"#utility.yul\":3128:3133   */\n      dup2\n        /* \"#utility.yul\":3110:3134   */\n      tag_168\n      jump\t// in\n    tag_167:\n        /* \"#utility.yul\":3105:3108   */\n      dup3\n        /* \"#utility.yul\":3098:3135   */\n      mstore\n        /* \"#utility.yul\":3023:3141   */\n      pop\n      pop\n      jump\t// out\n        /* \"#utility.yul\":3147:3256   */\n    tag_169:\n        /* \"#utility.yul\":3228:3249   */\n      tag_171\n        /* \"#utility.yul\":3243:3248   */\n      dup2\n        /* \"#utility.yul\":3228:3249   */\n      tag_172\n      jump\t// in\n    tag_171:\n        /* \"#utility.yul\":3223:3226   */\n      dup3\n        /* \"#utility.yul\":3216:3250   */\n      mstore\n        /* \"#utility.yul\":3147:3256   */\n      pop\n      pop\n      jump\t// out\n        /* \"#utility.yul\":3262:3622   */\n    tag_173:\n        /* \"#utility.yul\":3348:3351   */\n      0x00\n        /* \"#utility.yul\":3376:3414   */\n      tag_175\n        /* \"#utility.yul\":3408:3413   */\n      dup3\n        /* \"#utility.yul\":3376:3414   */\n      tag_176\n      jump\t// in\n    tag_175:\n        /* \"#utility.yul\":3430:3500   */\n      tag_177\n        /* \"#utility.yul\":3493:3499   */\n      dup2\n        /* \"#utility.yul\":3488:3491   */\n      dup6\n        /* \"#utility.yul\":3430:3500   */\n      tag_178\n      jump\t// in\n    tag_177:\n        /* \"#utility.yul\":3423:3500   */\n      swap4\n      pop\n        /* \"#utility.yul\":3509:3561   */\n      tag_179\n        /* \"#utility.yul\":3554:3560   */\n      dup2\n        /* \"#utility.yul\":3549:3552   */\n      dup6\n        /* \"#utility.yul\":3542:3546   */\n      0x20\n        /* \"#utility.yul\":3535:3540   */\n      dup7\n        /* \"#utility.yul\":3531:3547   */\n      add\n        /* \"#utility.yul\":3509:3561   */\n      tag_180\n      jump\t// in\n    tag_179:\n        /* \"#utility.yul\":3586:3615   */\n      tag_181\n        /* \"#utility.yul\":3608:3614   */\n      dup2\n        /* \"#utility.yul\":3586:3615   */\n      tag_182\n      jump\t// in\n    tag_181:\n        /* \"#utility.yul\":3581:3584   */\n      dup5\n        /* \"#utility.yul\":3577:3616   */\n      add\n        /* \"#utility.yul\":3570:3616   */\n      swap2\n      pop\n        /* \"#utility.yul\":3352:3622   */\n      pop\n        /* \"#utility.yul\":3262:3622   */\n      swap3\n      swap2\n      pop\n      pop\n      jump\t// out\n        /* \"#utility.yul\":3650:4448   */\n    tag_183:\n        /* \"#utility.yul\":3733:3736   */\n      0x00\n        /* \"#utility.yul\":3770:3775   */\n      dup2\n        /* \"#utility.yul\":3764:3776   */\n      sload\n        /* \"#utility.yul\":3799:3835   */\n      tag_185\n        /* \"#utility.yul\":3825:3834   */\n      dup2\n        /* \"#utility.yul\":3799:3835   */\n      tag_93\n      jump\t// in\n    tag_185:\n        /* \"#utility.yul\":3851:3921   */\n      tag_186\n        /* \"#utility.yul\":3914:3920   */\n      dup2\n        /* \"#utility.yul\":3909:3912   */\n      dup7\n        /* \"#utility.yul\":3851:3921   */\n      tag_178\n      jump\t// in\n    tag_186:\n        /* \"#utility.yul\":3844:3921   */\n      swap5\n      pop\n        /* \"#utility.yul\":3952:3953   */\n      0x01\n        /* \"#utility.yul\":3941:3950   */\n      dup3\n        /* \"#utility.yul\":3937:3954   */\n      and\n        /* \"#utility.yul\":3968:3969   */\n      0x00\n        /* \"#utility.yul\":3963:4098   */\n      dup2\n      eq\n      tag_188\n      jumpi\n        /* \"#utility.yul\":4112:4113   */\n      0x01\n        /* \"#utility.yul\":4107:4442   */\n      dup2\n      eq\n      tag_189\n      jumpi\n        /* \"#utility.yul\":3930:4442   */\n      jump(tag_187)\n        /* \"#utility.yul\":3963:4098   */\n    tag_188:\n        /* \"#utility.yul\":4047:4051   */\n      0xff\n        /* \"#utility.yul\":4043:4052   */\n      not\n        /* \"#utility.yul\":4032:4041   */\n      dup4\n        /* \"#utility.yul\":4028:4053   */\n      and\n        /* \"#utility.yul\":4023:4026   */\n      dup7\n        /* \"#utility.yul\":4016:4054   */\n      mstore\n        /* \"#utility.yul\":4083:4087   */\n      0x20\n        /* \"#utility.yul\":4078:4081   */\n      dup7\n        /* \"#utility.yul\":4074:4088   */\n      add\n        /* \"#utility.yul\":4067:4088   */\n      swap4\n      pop\n        /* \"#utility.yul\":3963:4098   */\n      jump(tag_187)\n        /* \"#utility.yul\":4107:4442   */\n    tag_189:\n        /* \"#utility.yul\":4174:4211   */\n      tag_190\n        /* \"#utility.yul\":4205:4210   */\n      dup6\n        /* \"#utility.yul\":4174:4211   */\n      tag_191\n      jump\t// in\n    tag_190:\n        /* \"#utility.yul\":4233:4234   */\n      0x00\n        /* \"#utility.yul\":4247:4401   */\n    tag_192:\n        /* \"#utility.yul\":4261:4267   */\n      dup4\n        /* \"#utility.yul\":4258:4259   */\n      dup2\n        /* \"#utility.yul\":4255:4268   */\n      lt\n        /* \"#utility.yul\":4247:4401   */\n      iszero\n      tag_194\n      jumpi\n        /* \"#utility.yul\":4335:4342   */\n      dup2\n        /* \"#utility.yul\":4329:4343   */\n      sload\n        /* \"#utility.yul\":4325:4326   */\n      dup2\n        /* \"#utility.yul\":4320:4323   */\n      dup10\n        /* \"#utility.yul\":4316:4327   */\n      add\n        /* \"#utility.yul\":4309:4344   */\n      mstore\n        /* \"#utility.yul\":4385:4386   */\n      0x01\n        /* \"#utility.yul\":4376:4383   */\n      dup3\n        /* \"#utility.yul\":4372:4387   */\n      add\n        /* \"#utility.yul\":4361:4387   */\n      swap2\n      pop\n        /* \"#utility.yul\":4283:4287   */\n      0x20\n        /* \"#utility.yul\":4280:4281   */\n      dup2\n        /* \"#utility.yul\":4276:4288   */\n      add\n        /* \"#utility.yul\":4271:4288   */\n      swap1\n      pop\n        /* \"#utility.yul\":4247:4401   */\n      jump(tag_192)\n    tag_194:\n        /* \"#utility.yul\":4430:4431   */\n      dup1\n        /* \"#utility.yul\":4425:4428   */\n      dup9\n        /* \"#utility.yul\":4421:4432   */\n      add\n        /* \"#utility.yul\":4414:4432   */\n      swap6\n      pop\n        /* \"#utility.yul\":4114:4442   */\n      pop\n      pop\n        /* \"#utility.yul\":3930:4442   */\n    tag_187:\n      pop\n        /* \"#utility.yul\":3737:4448   */\n      pop\n      pop\n        /* \"#utility.yul\":3650:4448   */\n      swap3\n      swap2\n      pop\n      pop\n      jump\t// out\n        /* \"#utility.yul\":4476:5317   */\n    tag_195:\n        /* \"#utility.yul\":4577:4580   */\n      0x00\n        /* \"#utility.yul\":4614:4619   */\n      dup2\n        /* \"#utility.yul\":4608:4620   */\n      sload\n        /* \"#utility.yul\":4643:4679   */\n      tag_197\n        /* \"#utility.yul\":4669:4678   */\n      dup2\n        /* \"#utility.yul\":4643:4679   */\n      tag_93\n      jump\t// in\n    tag_197:\n        /* \"#utility.yul\":4695:4783   */\n      tag_198\n        /* \"#utility.yul\":4776:4782   */\n      dup2\n        /* \"#utility.yul\":4771:4774   */\n      dup7\n        /* \"#utility.yul\":4695:4783   */\n      tag_199\n      jump\t// in\n    tag_198:\n        /* \"#utility.yul\":4688:4783   */\n      swap5\n      pop\n        /* \"#utility.yul\":4814:4815   */\n      0x01\n        /* \"#utility.yul\":4803:4812   */\n      dup3\n        /* \"#utility.yul\":4799:4816   */\n      and\n        /* \"#utility.yul\":4830:4831   */\n      0x00\n        /* \"#utility.yul\":4825:4962   */\n      dup2\n      eq\n      tag_201\n      jumpi\n        /* \"#utility.yul\":4976:4977   */\n      0x01\n        /* \"#utility.yul\":4971:5311   */\n      dup2\n      eq\n      tag_202\n      jumpi\n        /* \"#utility.yul\":4792:5311   */\n      jump(tag_200)\n        /* \"#utility.yul\":4825:4962   */\n    tag_201:\n        /* \"#utility.yul\":4909:4913   */\n      0xff\n        /* \"#utility.yul\":4905:4914   */\n      not\n        /* \"#utility.yul\":4894:4903   */\n      dup4\n        /* \"#utility.yul\":4890:4915   */\n      and\n        /* \"#utility.yul\":4885:4888   */\n      dup7\n        /* \"#utility.yul\":4878:4916   */\n      mstore\n        /* \"#utility.yul\":4945:4951   */\n      dup2\n        /* \"#utility.yul\":4940:4943   */\n      dup7\n        /* \"#utility.yul\":4936:4952   */\n      add\n        /* \"#utility.yul\":4929:4952   */\n      swap4\n      pop\n        /* \"#utility.yul\":4825:4962   */\n      jump(tag_200)\n        /* \"#utility.yul\":4971:5311   */\n    tag_202:\n        /* \"#utility.yul\":5038:5075   */\n      tag_203\n        /* \"#utility.yul\":5069:5074   */\n      dup6\n        /* \"#utility.yul\":5038:5075   */\n      tag_191\n      jump\t// in\n    tag_203:\n        /* \"#utility.yul\":5097:5098   */\n      0x00\n        /* \"#utility.yul\":5111:5265   */\n    tag_204:\n        /* \"#utility.yul\":5125:5131   */\n      dup4\n        /* \"#utility.yul\":5122:5123   */\n      dup2\n        /* \"#utility.yul\":5119:5132   */\n      lt\n        /* \"#utility.yul\":5111:5265   */\n      iszero\n      tag_206\n      jumpi\n        /* \"#utility.yul\":5199:5206   */\n      dup2\n        /* \"#utility.yul\":5193:5207   */\n      sload\n        /* \"#utility.yul\":5189:5190   */\n      dup2\n        /* \"#utility.yul\":5184:5187   */\n      dup10\n        /* \"#utility.yul\":5180:5191   */\n      add\n        /* \"#utility.yul\":5173:5208   */\n      mstore\n        /* \"#utility.yul\":5249:5250   */\n      0x01\n        /* \"#utility.yul\":5240:5247   */\n      dup3\n        /* \"#utility.yul\":5236:5251   */\n      add\n        /* \"#utility.yul\":5225:5251   */\n      swap2\n      pop\n        /* \"#utility.yul\":5147:5151   */\n      0x20\n        /* \"#utility.yul\":5144:5145   */\n      dup2\n        /* \"#utility.yul\":5140:5152   */\n      add\n        /* \"#utility.yul\":5135:5152   */\n      swap1\n      pop\n        /* \"#utility.yul\":5111:5265   */\n      jump(tag_204)\n    tag_206:\n        /* \"#utility.yul\":5294:5300   */\n      dup4\n        /* \"#utility.yul\":5289:5292   */\n      dup9\n        /* \"#utility.yul\":5285:5301   */\n      add\n        /* \"#utility.yul\":5278:5301   */\n      swap6\n      pop\n        /* \"#utility.yul\":4978:5311   */\n      pop\n      pop\n        /* \"#utility.yul\":4792:5311   */\n    tag_200:\n      pop\n        /* \"#utility.yul\":4581:5317   */\n      pop\n      pop\n        /* \"#utility.yul\":4476:5317   */\n      swap3\n      swap2\n      pop\n      pop\n      jump\t// out\n        /* \"#utility.yul\":5323:5441   */\n    tag_207:\n        /* \"#utility.yul\":5410:5434   */\n      tag_209\n        /* \"#utility.yul\":5428:5433   */\n      dup2\n        /* \"#utility.yul\":5410:5434   */\n      tag_210\n      jump\t// in\n    tag_209:\n        /* \"#utility.yul\":5405:5408   */\n      dup3\n        /* \"#utility.yul\":5398:5435   */\n      mstore\n        /* \"#utility.yul\":5323:5441   */\n      pop\n      pop\n      jump\t// out\n        /* \"#utility.yul\":5447:5712   */\n    tag_74:\n        /* \"#utility.yul\":5574:5577   */\n      0x00\n        /* \"#utility.yul\":5596:5686   */\n      tag_212\n        /* \"#utility.yul\":5682:5685   */\n      dup3\n        /* \"#utility.yul\":5673:5679   */\n      dup5\n        /* \"#utility.yul\":5596:5686   */\n      tag_195\n      jump\t// in\n    tag_212:\n        /* \"#utility.yul\":5589:5686   */\n      swap2\n      pop\n        /* \"#utility.yul\":5703:5706   */\n      dup2\n        /* \"#utility.yul\":5696:5706   */\n      swap1\n      pop\n        /* \"#utility.yul\":5447:5712   */\n      swap3\n      swap2\n      pop\n      pop\n      jump\t// out\n        /* \"#utility.yul\":5718:6247   */\n    tag_105:\n        /* \"#utility.yul\":5885:5889   */\n      0x00\n        /* \"#utility.yul\":5923:5925   */\n      0x60\n        /* \"#utility.yul\":5912:5921   */\n      dup3\n        /* \"#utility.yul\":5908:5926   */\n      add\n        /* \"#utility.yul\":5900:5926   */\n      swap1\n      pop\n        /* \"#utility.yul\":5936:6007   */\n      tag_214\n        /* \"#utility.yul\":6004:6005   */\n      0x00\n        /* \"#utility.yul\":5993:6002   */\n      dup4\n        /* \"#utility.yul\":5989:6006   */\n      add\n        /* \"#utility.yul\":5980:5986   */\n      dup7\n        /* \"#utility.yul\":5936:6007   */\n      tag_165\n      jump\t// in\n    tag_214:\n        /* \"#utility.yul\":6017:6089   */\n      tag_215\n        /* \"#utility.yul\":6085:6087   */\n      0x20\n        /* \"#utility.yul\":6074:6083   */\n      dup4\n        /* \"#utility.yul\":6070:6088   */\n      add\n        /* \"#utility.yul\":6061:6067   */\n      dup6\n        /* \"#utility.yul\":6017:6089   */\n      tag_207\n      jump\t// in\n    tag_215:\n        /* \"#utility.yul\":6136:6145   */\n      dup2\n        /* \"#utility.yul\":6130:6134   */\n      dup2\n        /* \"#utility.yul\":6126:6146   */\n      sub\n        /* \"#utility.yul\":6121:6123   */\n      0x40\n        /* \"#utility.yul\":6110:6119   */\n      dup4\n        /* \"#utility.yul\":6106:6124   */\n      add\n        /* \"#utility.yul\":6099:6147   */\n      mstore\n        /* \"#utility.yul\":6164:6240   */\n      tag_216\n        /* \"#utility.yul\":6235:6239   */\n      dup2\n        /* \"#utility.yul\":6226:6232   */\n      dup5\n        /* \"#utility.yul\":6164:6240   */\n      tag_173\n      jump\t// in\n    tag_216:\n        /* \"#utility.yul\":6156:6240   */\n      swap1\n      pop\n        /* \"#utility.yul\":5718:6247   */\n      swap5\n      swap4\n      pop\n      pop\n      pop\n      pop\n      jump\t// out\n        /* \"#utility.yul\":6253:6887   */\n    tag_80:\n        /* \"#utility.yul\":6445:6449   */\n      0x00\n        /* \"#utility.yul\":6483:6486   */\n      0x80\n        /* \"#utility.yul\":6472:6481   */\n      dup3\n        /* \"#utility.yul\":6468:6487   */\n      add\n        /* \"#utility.yul\":6460:6487   */\n      swap1\n      pop\n        /* \"#utility.yul\":6497:6568   */\n      tag_218\n        /* \"#utility.yul\":6565:6566   */\n      0x00\n        /* \"#utility.yul\":6554:6563   */\n      dup4\n        /* \"#utility.yul\":6550:6567   */\n      add\n        /* \"#utility.yul\":6541:6547   */\n      dup8\n        /* \"#utility.yul\":6497:6568   */\n      tag_165\n      jump\t// in\n    tag_218:\n        /* \"#utility.yul\":6578:6650   */\n      tag_219\n        /* \"#utility.yul\":6646:6648   */\n      0x20\n        /* \"#utility.yul\":6635:6644   */\n      dup4\n        /* \"#utility.yul\":6631:6649   */\n      add\n        /* \"#utility.yul\":6622:6628   */\n      dup7\n        /* \"#utility.yul\":6578:6650   */\n      tag_207\n      jump\t// in\n    tag_219:\n        /* \"#utility.yul\":6697:6706   */\n      dup2\n        /* \"#utility.yul\":6691:6695   */\n      dup2\n        /* \"#utility.yul\":6687:6707   */\n      sub\n        /* \"#utility.yul\":6682:6684   */\n      0x40\n        /* \"#utility.yul\":6671:6680   */\n      dup4\n        /* \"#utility.yul\":6667:6685   */\n      add\n        /* \"#utility.yul\":6660:6708   */\n      mstore\n        /* \"#utility.yul\":6725:6798   */\n      tag_220\n        /* \"#utility.yul\":6793:6797   */\n      dup2\n        /* \"#utility.yul\":6784:6790   */\n      dup6\n        /* \"#utility.yul\":6725:6798   */\n      tag_183\n      jump\t// in\n    tag_220:\n        /* \"#utility.yul\":6717:6798   */\n      swap1\n      pop\n        /* \"#utility.yul\":6808:6880   */\n      tag_221\n        /* \"#utility.yul\":6876:6878   */\n      0x60\n        /* \"#utility.yul\":6865:6874   */\n      dup4\n        /* \"#utility.yul\":6861:6879   */\n      add\n        /* \"#utility.yul\":6852:6858   */\n      dup5\n        /* \"#utility.yul\":6808:6880   */\n      tag_165\n      jump\t// in\n    tag_221:\n        /* \"#utility.yul\":6253:6887   */\n      swap6\n      swap5\n      pop\n      pop\n      pop\n      pop\n      pop\n      jump\t// out\n        /* \"#utility.yul\":6893:7335   */\n    tag_14:\n        /* \"#utility.yul\":7042:7046   */\n      0x00\n        /* \"#utility.yul\":7080:7082   */\n      0x60\n        /* \"#utility.yul\":7069:7078   */\n      dup3\n        /* \"#utility.yul\":7065:7083   */\n      add\n        /* \"#utility.yul\":7057:7083   */\n      swap1\n      pop\n        /* \"#utility.yul\":7093:7164   */\n      tag_223\n        /* \"#utility.yul\":7161:7162   */\n      0x00\n        /* \"#utility.yul\":7150:7159   */\n      dup4\n        /* \"#utility.yul\":7146:7163   */\n      add\n        /* \"#utility.yul\":7137:7143   */\n      dup7\n        /* \"#utility.yul\":7093:7164   */\n      tag_165\n      jump\t// in\n    tag_223:\n        /* \"#utility.yul\":7174:7246   */\n      tag_224\n        /* \"#utility.yul\":7242:7244   */\n      0x20\n        /* \"#utility.yul\":7231:7240   */\n      dup4\n        /* \"#utility.yul\":7227:7245   */\n      add\n        /* \"#utility.yul\":7218:7224   */\n      dup6\n        /* \"#utility.yul\":7174:7246   */\n      tag_207\n      jump\t// in\n    tag_224:\n        /* \"#utility.yul\":7256:7328   */\n      tag_225\n        /* \"#utility.yul\":7324:7326   */\n      0x40\n        /* \"#utility.yul\":7313:7322   */\n      dup4\n        /* \"#utility.yul\":7309:7327   */\n      add\n        /* \"#utility.yul\":7300:7306   */\n      dup5\n        /* \"#utility.yul\":7256:7328   */\n      tag_207\n      jump\t// in\n    tag_225:\n        /* \"#utility.yul\":6893:7335   */\n      swap5\n      swap4\n      pop\n      pop\n      pop\n      pop\n      jump\t// out\n        /* \"#utility.yul\":7341:7551   */\n    tag_26:\n        /* \"#utility.yul\":7428:7432   */\n      0x00\n        /* \"#utility.yul\":7466:7468   */\n      0x20\n        /* \"#utility.yul\":7455:7464   */\n      dup3\n        /* \"#utility.yul\":7451:7469   */\n      add\n        /* \"#utility.yul\":7443:7469   */\n      swap1\n      pop\n        /* \"#utility.yul\":7479:7544   */\n      tag_227\n        /* \"#utility.yul\":7541:7542   */\n      0x00\n        /* \"#utility.yul\":7530:7539   */\n      dup4\n        /* \"#utility.yul\":7526:7543   */\n      add\n        /* \"#utility.yul\":7517:7523   */\n      dup5\n        /* \"#utility.yul\":7479:7544   */\n      tag_169\n      jump\t// in\n    tag_227:\n        /* \"#utility.yul\":7341:7551   */\n      swap3\n      swap2\n      pop\n      pop\n      jump\t// out\n        /* \"#utility.yul\":7557:7889   */\n    tag_64:\n        /* \"#utility.yul\":7678:7682   */\n      0x00\n        /* \"#utility.yul\":7716:7718   */\n      0x40\n        /* \"#utility.yul\":7705:7714   */\n      dup3\n        /* \"#utility.yul\":7701:7719   */\n      add\n        /* \"#utility.yul\":7693:7719   */\n      swap1\n      pop\n        /* \"#utility.yul\":7729:7800   */\n      tag_229\n        /* \"#utility.yul\":7797:7798   */\n      0x00\n        /* \"#utility.yul\":7786:7795   */\n      dup4\n        /* \"#utility.yul\":7782:7799   */\n      add\n        /* \"#utility.yul\":7773:7779   */\n      dup6\n        /* \"#utility.yul\":7729:7800   */\n      tag_207\n      jump\t// in\n    tag_229:\n        /* \"#utility.yul\":7810:7882   */\n      tag_230\n        /* \"#utility.yul\":7878:7880   */\n      0x20\n        /* \"#utility.yul\":7867:7876   */\n      dup4\n        /* \"#utility.yul\":7863:7881   */\n      add\n        /* \"#utility.yul\":7854:7860   */\n      dup5\n        /* \"#utility.yul\":7810:7882   */\n      tag_165\n      jump\t// in\n    tag_230:\n        /* \"#utility.yul\":7557:7889   */\n      swap4\n      swap3\n      pop\n      pop\n      pop\n      jump\t// out\n        /* \"#utility.yul\":7895:8745   */\n    tag_46:\n        /* \"#utility.yul\":8140:8144   */\n      0x00\n        /* \"#utility.yul\":8178:8181   */\n      0xc0\n        /* \"#utility.yul\":8167:8176   */\n      dup3\n        /* \"#utility.yul\":8163:8182   */\n      add\n        /* \"#utility.yul\":8155:8182   */\n      swap1\n      pop\n        /* \"#utility.yul\":8192:8263   */\n      tag_232\n        /* \"#utility.yul\":8260:8261   */\n      0x00\n        /* \"#utility.yul\":8249:8258   */\n      dup4\n        /* \"#utility.yul\":8245:8262   */\n      add\n        /* \"#utility.yul\":8236:8242   */\n      dup10\n        /* \"#utility.yul\":8192:8263   */\n      tag_207\n      jump\t// in\n    tag_232:\n        /* \"#utility.yul\":8273:8345   */\n      tag_233\n        /* \"#utility.yul\":8341:8343   */\n      0x20\n        /* \"#utility.yul\":8330:8339   */\n      dup4\n        /* \"#utility.yul\":8326:8344   */\n      add\n        /* \"#utility.yul\":8317:8323   */\n      dup9\n        /* \"#utility.yul\":8273:8345   */\n      tag_165\n      jump\t// in\n    tag_233:\n        /* \"#utility.yul\":8355:8427   */\n      tag_234\n        /* \"#utility.yul\":8423:8425   */\n      0x40\n        /* \"#utility.yul\":8412:8421   */\n      dup4\n        /* \"#utility.yul\":8408:8426   */\n      add\n        /* \"#utility.yul\":8399:8405   */\n      dup8\n        /* \"#utility.yul\":8355:8427   */\n      tag_207\n      jump\t// in\n    tag_234:\n        /* \"#utility.yul\":8474:8483   */\n      dup2\n        /* \"#utility.yul\":8468:8472   */\n      dup2\n        /* \"#utility.yul\":8464:8484   */\n      sub\n        /* \"#utility.yul\":8459:8461   */\n      0x60\n        /* \"#utility.yul\":8448:8457   */\n      dup4\n        /* \"#utility.yul\":8444:8462   */\n      add\n        /* \"#utility.yul\":8437:8485   */\n      mstore\n        /* \"#utility.yul\":8502:8578   */\n      tag_235\n        /* \"#utility.yul\":8573:8577   */\n      dup2\n        /* \"#utility.yul\":8564:8570   */\n      dup7\n        /* \"#utility.yul\":8502:8578   */\n      tag_173\n      jump\t// in\n    tag_235:\n        /* \"#utility.yul\":8494:8578   */\n      swap1\n      pop\n        /* \"#utility.yul\":8588:8661   */\n      tag_236\n        /* \"#utility.yul\":8656:8659   */\n      0x80\n        /* \"#utility.yul\":8645:8654   */\n      dup4\n        /* \"#utility.yul\":8641:8660   */\n      add\n        /* \"#utility.yul\":8632:8638   */\n      dup6\n        /* \"#utility.yul\":8588:8661   */\n      tag_207\n      jump\t// in\n    tag_236:\n        /* \"#utility.yul\":8671:8738   */\n      tag_237\n        /* \"#utility.yul\":8733:8736   */\n      0xa0\n        /* \"#utility.yul\":8722:8731   */\n      dup4\n        /* \"#utility.yul\":8718:8737   */\n      add\n        /* \"#utility.yul\":8709:8715   */\n      dup5\n        /* \"#utility.yul\":8671:8738   */\n      tag_169\n      jump\t// in\n    tag_237:\n        /* \"#utility.yul\":7895:8745   */\n      swap8\n      swap7\n      pop\n      pop\n      pop\n      pop\n      pop\n      pop\n      pop\n      jump\t// out\n        /* \"#utility.yul\":8751:8880   */\n    tag_122:\n        /* \"#utility.yul\":8785:8791   */\n      0x00\n        /* \"#utility.yul\":8812:8832   */\n      tag_239\n      tag_240\n      jump\t// in\n    tag_239:\n        /* \"#utility.yul\":8802:8832   */\n      swap1\n      pop\n        /* \"#utility.yul\":8841:8874   */\n      tag_241\n        /* \"#utility.yul\":8869:8873   */\n      dup3\n        /* \"#utility.yul\":8861:8867   */\n      dup3\n        /* \"#utility.yul\":8841:8874   */\n      tag_242\n      jump\t// in\n    tag_241:\n        /* \"#utility.yul\":8751:8880   */\n      swap2\n      swap1\n      pop\n      jump\t// out\n        /* \"#utility.yul\":8886:8961   */\n    tag_240:\n        /* \"#utility.yul\":8919:8925   */\n      0x00\n        /* \"#utility.yul\":8952:8954   */\n      0x40\n        /* \"#utility.yul\":8946:8955   */\n      mload\n        /* \"#utility.yul\":8936:8955   */\n      swap1\n      pop\n        /* \"#utility.yul\":8886:8961   */\n      swap1\n      jump\t// out\n        /* \"#utility.yul\":8967:9274   */\n    tag_121:\n        /* \"#utility.yul\":9028:9032   */\n      0x00\n        /* \"#utility.yul\":9118:9136   */\n      0xffffffffffffffff\n        /* \"#utility.yul\":9110:9116   */\n      dup3\n        /* \"#utility.yul\":9107:9137   */\n      gt\n        /* \"#utility.yul\":9104:9160   */\n      iszero\n      tag_245\n      jumpi\n        /* \"#utility.yul\":9140:9158   */\n      tag_246\n      tag_247\n      jump\t// in\n    tag_246:\n        /* \"#utility.yul\":9104:9160   */\n    tag_245:\n        /* \"#utility.yul\":9178:9207   */\n      tag_248\n        /* \"#utility.yul\":9200:9206   */\n      dup3\n        /* \"#utility.yul\":9178:9207   */\n      tag_182\n      jump\t// in\n    tag_248:\n        /* \"#utility.yul\":9170:9207   */\n      swap1\n      pop\n        /* \"#utility.yul\":9262:9266   */\n      0x20\n        /* \"#utility.yul\":9256:9260   */\n      dup2\n        /* \"#utility.yul\":9252:9267   */\n      add\n        /* \"#utility.yul\":9244:9267   */\n      swap1\n      pop\n        /* \"#utility.yul\":8967:9274   */\n      swap2\n      swap1\n      pop\n      jump\t// out\n        /* \"#utility.yul\":9280:9420   */\n    tag_191:\n        /* \"#utility.yul\":9328:9332   */\n      0x00\n        /* \"#utility.yul\":9351:9354   */\n      dup2\n        /* \"#utility.yul\":9343:9354   */\n      swap1\n      pop\n        /* \"#utility.yul\":9374:9377   */\n      dup2\n        /* \"#utility.yul\":9371:9372   */\n      0x00\n        /* \"#utility.yul\":9364:9378   */\n      mstore\n        /* \"#utility.yul\":9408:9412   */\n      0x20\n        /* \"#utility.yul\":9405:9406   */\n      0x00\n        /* \"#utility.yul\":9395:9413   */\n      keccak256\n        /* \"#utility.yul\":9387:9413   */\n      swap1\n      pop\n        /* \"#utility.yul\":9280:9420   */\n      swap2\n      swap1\n      pop\n      jump\t// out\n        /* \"#utility.yul\":9426:9524   */\n    tag_176:\n        /* \"#utility.yul\":9477:9483   */\n      0x00\n        /* \"#utility.yul\":9511:9516   */\n      dup2\n        /* \"#utility.yul\":9505:9517   */\n      mload\n        /* \"#utility.yul\":9495:9517   */\n      swap1\n      pop\n        /* \"#utility.yul\":9426:9524   */\n      swap2\n      swap1\n      pop\n      jump\t// out\n        /* \"#utility.yul\":9530:9698   */\n    tag_178:\n        /* \"#utility.yul\":9613:9624   */\n      0x00\n        /* \"#utility.yul\":9647:9653   */\n      dup3\n        /* \"#utility.yul\":9642:9645   */\n      dup3\n        /* \"#utility.yul\":9635:9654   */\n      mstore\n        /* \"#utility.yul\":9687:9691   */\n      0x20\n        /* \"#utility.yul\":9682:9685   */\n      dup3\n        /* \"#utility.yul\":9678:9692   */\n      add\n        /* \"#utility.yul\":9663:9692   */\n      swap1\n      pop\n        /* \"#utility.yul\":9530:9698   */\n      swap3\n      swap2\n      pop\n      pop\n      jump\t// out\n        /* \"#utility.yul\":9704:9851   */\n    tag_199:\n        /* \"#utility.yul\":9805:9816   */\n      0x00\n        /* \"#utility.yul\":9842:9845   */\n      dup2\n        /* \"#utility.yul\":9827:9845   */\n      swap1\n      pop\n        /* \"#utility.yul\":9704:9851   */\n      swap3\n      swap2\n      pop\n      pop\n      jump\t// out\n        /* \"#utility.yul\":9857:9953   */\n    tag_168:\n        /* \"#utility.yul\":9894:9901   */\n      0x00\n        /* \"#utility.yul\":9923:9947   */\n      tag_254\n        /* \"#utility.yul\":9941:9946   */\n      dup3\n        /* \"#utility.yul\":9923:9947   */\n      tag_255\n      jump\t// in\n    tag_254:\n        /* \"#utility.yul\":9912:9947   */\n      swap1\n      pop\n        /* \"#utility.yul\":9857:9953   */\n      swap2\n      swap1\n      pop\n      jump\t// out\n        /* \"#utility.yul\":9959:10049   */\n    tag_172:\n        /* \"#utility.yul\":9993:10000   */\n      0x00\n        /* \"#utility.yul\":10036:10041   */\n      dup2\n        /* \"#utility.yul\":10029:10042   */\n      iszero\n        /* \"#utility.yul\":10022:10043   */\n      iszero\n        /* \"#utility.yul\":10011:10043   */\n      swap1\n      pop\n        /* \"#utility.yul\":9959:10049   */\n      swap2\n      swap1\n      pop\n      jump\t// out\n        /* \"#utility.yul\":10055:10181   */\n    tag_255:\n        /* \"#utility.yul\":10092:10099   */\n      0x00\n        /* \"#utility.yul\":10132:10174   */\n      0xffffffffffffffffffffffffffffffffffffffff\n        /* \"#utility.yul\":10125:10130   */\n      dup3\n        /* \"#utility.yul\":10121:10175   */\n      and\n        /* \"#utility.yul\":10110:10175   */\n      swap1\n      pop\n        /* \"#utility.yul\":10055:10181   */\n      swap2\n      swap1\n      pop\n      jump\t// out\n        /* \"#utility.yul\":10187:10264   */\n    tag_210:\n        /* \"#utility.yul\":10224:10231   */\n      0x00\n        /* \"#utility.yul\":10253:10258   */\n      dup2\n        /* \"#utility.yul\":10242:10258   */\n      swap1\n      pop\n        /* \"#utility.yul\":10187:10264   */\n      swap2\n      swap1\n      pop\n      jump\t// out\n        /* \"#utility.yul\":10270:10424   */\n    tag_127:\n        /* \"#utility.yul\":10354:10360   */\n      dup3\n        /* \"#utility.yul\":10349:10352   */\n      dup2\n        /* \"#utility.yul\":10344:10347   */\n      dup4\n        /* \"#utility.yul\":10331:10361   */\n      calldatacopy\n        /* \"#utility.yul\":10416:10417   */\n      0x00\n        /* \"#utility.yul\":10407:10413   */\n      dup4\n        /* \"#utility.yul\":10402:10405   */\n      dup4\n        /* \"#utility.yul\":10398:10414   */\n      add\n        /* \"#utility.yul\":10391:10418   */\n      mstore\n        /* \"#utility.yul\":10270:10424   */\n      pop\n      pop\n      pop\n      jump\t// out\n        /* \"#utility.yul\":10430:10737   */\n    tag_180:\n        /* \"#utility.yul\":10498:10499   */\n      0x00\n        /* \"#utility.yul\":10508:10621   */\n    tag_261:\n        /* \"#utility.yul\":10522:10528   */\n      dup4\n        /* \"#utility.yul\":10519:10520   */\n      dup2\n        /* \"#utility.yul\":10516:10529   */\n      lt\n        /* \"#utility.yul\":10508:10621   */\n      iszero\n      tag_263\n      jumpi\n        /* \"#utility.yul\":10607:10608   */\n      dup1\n        /* \"#utility.yul\":10602:10605   */\n      dup3\n        /* \"#utility.yul\":10598:10609   */\n      add\n        /* \"#utility.yul\":10592:10610   */\n      mload\n        /* \"#utility.yul\":10588:10589   */\n      dup2\n        /* \"#utility.yul\":10583:10586   */\n      dup5\n        /* \"#utility.yul\":10579:10590   */\n      add\n        /* \"#utility.yul\":10572:10611   */\n      mstore\n        /* \"#utility.yul\":10544:10546   */\n      0x20\n        /* \"#utility.yul\":10541:10542   */\n      dup2\n        /* \"#utility.yul\":10537:10547   */\n      add\n        /* \"#utility.yul\":10532:10547   */\n      swap1\n      pop\n        /* \"#utility.yul\":10508:10621   */\n      jump(tag_261)\n    tag_263:\n        /* \"#utility.yul\":10639:10645   */\n      dup4\n        /* \"#utility.yul\":10636:10637   */\n      dup2\n        /* \"#utility.yul\":10633:10646   */\n      gt\n        /* \"#utility.yul\":10630:10731   */\n      iszero\n      tag_264\n      jumpi\n        /* \"#utility.yul\":10719:10720   */\n      0x00\n        /* \"#utility.yul\":10710:10716   */\n      dup5\n        /* \"#utility.yul\":10705:10708   */\n      dup5\n        /* \"#utility.yul\":10701:10717   */\n      add\n        /* \"#utility.yul\":10694:10721   */\n      mstore\n        /* \"#utility.yul\":10630:10731   */\n    tag_264:\n        /* \"#utility.yul\":10479:10737   */\n      pop\n        /* \"#utility.yul\":10430:10737   */\n      pop\n      pop\n      pop\n      jump\t// out\n        /* \"#utility.yul\":10743:10914   */\n    tag_90:\n        /* \"#utility.yul\":10782:10785   */\n      0x00\n        /* \"#utility.yul\":10805:10829   */\n      tag_266\n        /* \"#utility.yul\":10823:10828   */\n      dup3\n        /* \"#utility.yul\":10805:10829   */\n      tag_210\n      jump\t// in\n    tag_266:\n        /* \"#utility.yul\":10796:10829   */\n      swap2\n      pop\n        /* \"#utility.yul\":10851:10855   */\n      0x00\n        /* \"#utility.yul\":10844:10849   */\n      dup3\n        /* \"#utility.yul\":10841:10856   */\n      eq\n        /* \"#utility.yul\":10838:10879   */\n      iszero\n      tag_267\n      jumpi\n        /* \"#utility.yul\":10859:10877   */\n      tag_268\n      tag_269\n      jump\t// in\n    tag_268:\n        /* \"#utility.yul\":10838:10879   */\n    tag_267:\n        /* \"#utility.yul\":10906:10907   */\n      0x01\n        /* \"#utility.yul\":10899:10904   */\n      dup3\n        /* \"#utility.yul\":10895:10908   */\n      sub\n        /* \"#utility.yul\":10888:10908   */\n      swap1\n      pop\n        /* \"#utility.yul\":10743:10914   */\n      swap2\n      swap1\n      pop\n      jump\t// out\n        /* \"#utility.yul\":10920:11240   */\n    tag_93:\n        /* \"#utility.yul\":10964:10970   */\n      0x00\n        /* \"#utility.yul\":11001:11002   */\n      0x02\n        /* \"#utility.yul\":10995:10999   */\n      dup3\n        /* \"#utility.yul\":10991:11003   */\n      div\n        /* \"#utility.yul\":10981:11003   */\n      swap1\n      pop\n        /* \"#utility.yul\":11048:11049   */\n      0x01\n        /* \"#utility.yul\":11042:11046   */\n      dup3\n        /* \"#utility.yul\":11038:11050   */\n      and\n        /* \"#utility.yul\":11069:11087   */\n      dup1\n        /* \"#utility.yul\":11059:11140   */\n      tag_271\n      jumpi\n        /* \"#utility.yul\":11125:11129   */\n      0x7f\n        /* \"#utility.yul\":11117:11123   */\n      dup3\n        /* \"#utility.yul\":11113:11130   */\n      and\n        /* \"#utility.yul\":11103:11130   */\n      swap2\n      pop\n        /* \"#utility.yul\":11059:11140   */\n    tag_271:\n        /* \"#utility.yul\":11187:11189   */\n      0x20\n        /* \"#utility.yul\":11179:11185   */\n      dup3\n        /* \"#utility.yul\":11176:11190   */\n      lt\n        /* \"#utility.yul\":11156:11174   */\n      dup2\n        /* \"#utility.yul\":11153:11191   */\n      eq\n        /* \"#utility.yul\":11150:11234   */\n      iszero\n      tag_272\n      jumpi\n        /* \"#utility.yul\":11206:11224   */\n      tag_273\n      tag_274\n      jump\t// in\n    tag_273:\n        /* \"#utility.yul\":11150:11234   */\n    tag_272:\n        /* \"#utility.yul\":10971:11240   */\n      pop\n        /* \"#utility.yul\":10920:11240   */\n      swap2\n      swap1\n      pop\n      jump\t// out\n        /* \"#utility.yul\":11246:11527   */\n    tag_242:\n        /* \"#utility.yul\":11329:11356   */\n      tag_276\n        /* \"#utility.yul\":11351:11355   */\n      dup3\n        /* \"#utility.yul\":11329:11356   */\n      tag_182\n      jump\t// in\n    tag_276:\n        /* \"#utility.yul\":11321:11327   */\n      dup2\n        /* \"#utility.yul\":11317:11357   */\n      add\n        /* \"#utility.yul\":11459:11465   */\n      dup2\n        /* \"#utility.yul\":11447:11457   */\n      dup2\n        /* \"#utility.yul\":11444:11466   */\n      lt\n        /* \"#utility.yul\":11423:11441   */\n      0xffffffffffffffff\n        /* \"#utility.yul\":11411:11421   */\n      dup3\n        /* \"#utility.yul\":11408:11442   */\n      gt\n        /* \"#utility.yul\":11405:11467   */\n      or\n        /* \"#utility.yul\":11402:11490   */\n      iszero\n      tag_277\n      jumpi\n        /* \"#utility.yul\":11470:11488   */\n      tag_278\n      tag_247\n      jump\t// in\n    tag_278:\n        /* \"#utility.yul\":11402:11490   */\n    tag_277:\n        /* \"#utility.yul\":11510:11520   */\n      dup1\n        /* \"#utility.yul\":11506:11508   */\n      0x40\n        /* \"#utility.yul\":11499:11521   */\n      mstore\n        /* \"#utility.yul\":11289:11527   */\n      pop\n        /* \"#utility.yul\":11246:11527   */\n      pop\n      pop\n      jump\t// out\n        /* \"#utility.yul\":11533:11766   */\n    tag_62:\n        /* \"#utility.yul\":11572:11575   */\n      0x00\n        /* \"#utility.yul\":11595:11619   */\n      tag_280\n        /* \"#utility.yul\":11613:11618   */\n      dup3\n        /* \"#utility.yul\":11595:11619   */\n      tag_210\n      jump\t// in\n    tag_280:\n        /* \"#utility.yul\":11586:11619   */\n      swap2\n      pop\n        /* \"#utility.yul\":11641:11707   */\n      0xffffffffffffffffffffffffffffffffffffffffffffffffffffffffffffffff\n        /* \"#utility.yul\":11634:11639   */\n      dup3\n        /* \"#utility.yul\":11631:11708   */\n      eq\n        /* \"#utility.yul\":11628:11731   */\n      iszero\n      tag_281\n      jumpi\n        /* \"#utility.yul\":11711:11729   */\n      tag_282\n      tag_269\n      jump\t// in\n    tag_282:\n        /* \"#utility.yul\":11628:11731   */\n    tag_281:\n        /* \"#utility.yul\":11758:11759   */\n      0x01\n        /* \"#utility.yul\":11751:11756   */\n      dup3\n        /* \"#utility.yul\":11747:11760   */\n      add\n        /* \"#utility.yul\":11740:11760   */\n      swap1\n      pop\n        /* \"#utility.yul\":11533:11766   */\n      swap2\n      swap1\n      pop\n      jump\t// out\n        /* \"#utility.yul\":11772:11952   */\n    tag_269:\n        /* \"#utility.yul\":11820:11897   */\n      0x4e487b7100000000000000000000000000000000000000000000000000000000\n        /* \"#utility.yul\":11817:11818   */\n      0x00\n        /* \"#utility.yul\":11810:11898   */\n      mstore\n        /* \"#utility.yul\":11917:11921   */\n      0x11\n        /* \"#utility.yul\":11914:11915   */\n      0x04\n        /* \"#utility.yul\":11907:11922   */\n      mstore\n        /* \"#utility.yul\":11941:11945   */\n      0x24\n        /* \"#utility.yul\":11938:11939   */\n      0x00\n        /* \"#utility.yul\":11931:11946   */\n      revert\n        /* \"#utility.yul\":11958:12138   */\n    tag_274:\n        /* \"#utility.yul\":12006:12083   */\n      0x4e487b7100000000000000000000000000000000000000000000000000000000\n        /* \"#utility.yul\":12003:12004   */\n      0x00\n        /* \"#utility.yul\":11996:12084   */\n      mstore\n        /* \"#utility.yul\":12103:12107   */\n      0x22\n        /* \"#utility.yul\":12100:12101   */\n      0x04\n        /* \"#utility.yul\":12093:12108   */\n      mstore\n        /* \"#utility.yul\":12127:12131   */\n      0x24\n        /* \"#utility.yul\":12124:12125   */\n      0x00\n        /* \"#utility.yul\":12117:12132   */\n      revert\n        /* \"#utility.yul\":12144:12324   */\n    tag_247:\n        /* \"#utility.yul\":12192:12269   */\n      0x4e487b7100000000000000000000000000000000000000000000000000000000\n        /* \"#utility.yul\":12189:12190   */\n      0x00\n        /* \"#utility.yul\":12182:12270   */\n      mstore\n        /* \"#utility.yul\":12289:12293   */\n      0x41\n        /* \"#utility.yul\":12286:12287   */\n      0x04\n        /* \"#utility.yul\":12279:12294   */\n      mstore\n        /* \"#utility.yul\":12313:12317   */\n      0x24\n        /* \"#utility.yul\":12310:12311   */\n      0x00\n        /* \"#utility.yul\":12303:12318   */\n      revert\n        /* \"#utility.yul\":12330:12447   */\n    tag_136:\n        /* \"#utility.yul\":12439:12440   */\n      0x00\n        /* \"#utility.yul\":12436:12437   */\n      dup1\n        /* \"#utility.yul\":12429:12441   */\n      revert\n        /* \"#utility.yul\":12453:12570   */\n    tag_125:\n        /* \"#utility.yul\":12562:12563   */\n      0x00\n        /* \"#utility.yul\":12559:12560   */\n      dup1\n        /* \"#utility.yul\":12552:12564   */\n      revert\n        /* \"#utility.yul\":12576:12693   */\n    tag_154:\n        /* \"#utility.yul\":12685:12686   */\n      0x00\n        /* \"#utility.yul\":12682:12683   */\n      dup1\n        /* \"#utility.yul\":12675:12687   */\n      revert\n        /* \"#utility.yul\":12699:12816   */\n    tag_145:\n        /* \"#utility.yul\":12808:12809   */\n      0x00\n        /* \"#utility.yul\":12805:12806   */\n      dup1\n        /* \"#utility.yul\":12798:12810   */\n      revert\n        /* \"#utility.yul\":12822:12924   */\n    tag_182:\n        /* \"#utility.yul\":12863:12869   */\n      0x00\n        /* \"#utility.yul\":12914:12916   */\n      0x1f\n        /* \"#utility.yul\":12910:12917   */\n      not\n        /* \"#utility.yul\":12905:12907   */\n      0x1f\n        /* \"#utility.yul\":12898:12903   */\n      dup4\n        /* \"#utility.yul\":12894:12908   */\n      add\n        /* \"#utility.yul\":12890:12918   */\n      and\n        /* \"#utility.yul\":12880:12918   */\n      swap1\n      pop\n        /* \"#utility.yul\":12822:12924   */\n      swap2\n      swap1\n      pop\n      jump\t// out\n        /* \"#utility.yul\":12930:13052   */\n    tag_131:\n        /* \"#utility.yul\":13003:13027   */\n      tag_292\n        /* \"#utility.yul\":13021:13026   */\n      dup2\n        /* \"#utility.yul\":13003:13027   */\n      tag_168\n      jump\t// in\n    tag_292:\n        /* \"#utility.yul\":12996:13001   */\n      dup2\n        /* \"#utility.yul\":12993:13028   */\n      eq\n        /* \"#utility.yul\":12983:13046   */\n      tag_293\n      jumpi\n        /* \"#utility.yul\":13042:13043   */\n      0x00\n        /* \"#utility.yul\":13039:13040   */\n      dup1\n        /* \"#utility.yul\":13032:13044   */\n      revert\n        /* \"#utility.yul\":12983:13046   */\n    tag_293:\n        /* \"#utility.yul\":12930:13052   */\n      pop\n      jump\t// out\n        /* \"#utility.yul\":13058:13180   */\n    tag_141:\n        /* \"#utility.yul\":13131:13155   */\n      tag_295\n        /* \"#utility.yul\":13149:13154   */\n      dup2\n        /* \"#utility.yul\":13131:13155   */\n      tag_210\n      jump\t// in\n    tag_295:\n        /* \"#utility.yul\":13124:13129   */\n      dup2\n        /* \"#utility.yul\":13121:13156   */\n      eq\n        /* \"#utility.yul\":13111:13174   */\n      tag_296\n      jumpi\n        /* \"#utility.yul\":13170:13171   */\n      0x00\n        /* \"#utility.yul\":13167:13168   */\n      dup1\n        /* \"#utility.yul\":13160:13172   */\n      revert\n        /* \"#utility.yul\":13111:13174   */\n    tag_296:\n        /* \"#utility.yul\":13058:13180   */\n      pop\n      jump\t// out\n\n    auxdata: 0xa26469706673582212206afad5ef70498bfeabdb523952c6a6db02018bab3e71780b3fc9826fbff1e66664736f6c63430008070033\n}\n",
				"bytecode": {
					"linkReferences": {},
					"object": "60806040523480156200001157600080fd5b50604051620019ef380380620019ef8339818101604052810190620000379190620002e1565b815181111562000073576040517faa6eac5100000000000000000000000000000000000000000000000000000000815260040160405180910390fd5b60005b8251811015620001fc57600083828151811062000098576200009762000490565b5b60200260200101519050600073ffffffffffffffffffffffffffffffffffffffff168173ffffffffffffffffffffffffffffffffffffffff1614156200010a576040517fd924e5f400000000000000000000000000000000000000000000000000000000815260040160405180910390fd5b6000808273ffffffffffffffffffffffffffffffffffffffff1673ffffffffffffffffffffffffffffffffffffffff16815260200190815260200160002060009054906101000a900460ff16156200018e576040517fc0159e0e00000000000000000000000000000000000000000000000000000000815260040160405180910390fd5b60016000808373ffffffffffffffffffffffffffffffffffffffff1673ffffffffffffffffffffffffffffffffffffffff16815260200190815260200160002060006101000a81548160ff021916908315150217905550508080620001f39062000413565b91505062000076565b50505062000547565b60006200021c620002168462000370565b62000347565b90508083825260208201905082856020860282011115620002425762000241620004f3565b5b60005b858110156200027657816200025b888262000280565b84526020840193506020830192505060018101905062000245565b5050509392505050565b600081519050620002918162000513565b92915050565b600082601f830112620002af57620002ae620004ee565b5b8151620002c184826020860162000205565b91505092915050565b600081519050620002db816200052d565b92915050565b60008060408385031215620002fb57620002fa620004fd565b5b600083015167ffffffffffffffff8111156200031c576200031b620004f8565b5b6200032a8582860162000297565b92505060206200033d85828601620002ca565b9150509250929050565b60006200035362000366565b9050620003618282620003dd565b919050565b6000604051905090565b600067ffffffffffffffff8211156200038e576200038d620004bf565b5b602082029050602081019050919050565b6000620003ac82620003b3565b9050919050565b600073ffffffffffffffffffffffffffffffffffffffff82169050919050565b6000819050919050565b620003e88262000502565b810181811067ffffffffffffffff821117156200040a5762000409620004bf565b5b80604052505050565b60006200042082620003d3565b91507fffffffffffffffffffffffffffffffffffffffffffffffffffffffffffffffff82141562000456576200045562000461565b5b600182019050919050565b7f4e487b7100000000000000000000000000000000000000000000000000000000600052601160045260246000fd5b7f4e487b7100000000000000000000000000000000000000000000000000000000600052603260045260246000fd5b7f4e487b7100000000000000000000000000000000000000000000000000000000600052604160045260246000fd5b600080fd5b600080fd5b600080fd5b600080fd5b6000601f19601f8301169050919050565b6200051e816200039f565b81146200052a57600080fd5b50565b6200053881620003d3565b81146200054457600080fd5b50565b61149880620005576000396000f3fe6080604052600436106100745760003560e01c80635986aaca1161004e5780635986aaca1461014a5780638253951a146101735780639ace38c2146101b0578063bb84c5a9146101f2576100b6565b80631087393a146100bb5780632f54bf6e146100e457806354b5fe8014610121576100b6565b366100b6577f90890809c654f11d6e72a28fa60149770a0d11ec6c92319d6ceb2bb0a4ea1a153334476040516100ac939291906110ad565b60405180910390a1005b600080fd5b3480156100c757600080fd5b506100e260048036038101906100dd9190610e3a565b61021b565b005b3480156100f057600080fd5b5061010b60048036038101906101069190610d9e565b6104a0565b60405161011891906110e4565b60405180910390f35b34801561012d57600080fd5b5061014860048036038101906101439190610e3a565b6104c0565b005b34801561015657600080fd5b50610171600480360381019061016c9190610e3a565b61078e565b005b34801561017f57600080fd5b5061019a60048036038101906101959190610e67565b6109dd565b6040516101a791906110e4565b60405180910390f35b3480156101bc57600080fd5b506101d760048036038101906101d29190610e3a565b610a0c565b6040516101e996959493929190611128565b60405180910390f35b3480156101fe57600080fd5b5061021960048036038101906102149190610dcb565b610afd565b005b6000803373ffffffffffffffffffffffffffffffffffffffff1673ffffffffffffffffffffffffffffffffffffffff16815260200190815260200160002060009054906101000a900460ff1661029d576040517f30cd747100000000000000000000000000000000000000000000000000000000815260040160405180910390fd5b806004548111156102da576040517f3c35a0eb00000000000000000000000000000000000000000000000000000000815260040160405180910390fd5b816002600082815260200190815260200160002060003373ffffffffffffffffffffffffffffffffffffffff1673ffffffffffffffffffffffffffffffffffffffff16815260200190815260200160002060009054906101000a900460ff1615610370576040517f5db7ec0d00000000000000000000000000000000000000000000000000000000815260040160405180910390fd5b826001600082815260200190815260200160002060050160009054906101000a900460ff16156103cc576040517f2ea945cf00000000000000000000000000000000000000000000000000000000815260040160405180910390fd5b6001600085815260200190815260200160002060040160008154809291906103f390611339565b919050555060016002600086815260200190815260200160002060003373ffffffffffffffffffffffffffffffffffffffff1673ffffffffffffffffffffffffffffffffffffffff16815260200190815260200160002060006101000a81548160ff0219169083151502179055507fd4329d04e785ebe84c72dcd09fb9c65f1fbbda53ee15ec20e93342c7f3e2a62d84336040516104929291906110ff565b60405180910390a150505050565b60006020528060005260406000206000915054906101000a900460ff1681565b6000803373ffffffffffffffffffffffffffffffffffffffff1673ffffffffffffffffffffffffffffffffffffffff16815260200190815260200160002060009054906101000a900460ff16610542576040517f30cd747100000000000000000000000000000000000000000000000000000000815260040160405180910390fd5b8060045481111561057f576040517f3c35a0eb00000000000000000000000000000000000000000000000000000000815260040160405180910390fd5b816001600082815260200190815260200160002060050160009054906101000a900460ff16156105db576040517f2ea945cf00000000000000000000000000000000000000000000000000000000815260040160405180910390fd5b600060016000858152602001908152602001600020905060035481600401541015610632576040517f9dd63cb700000000000000000000000000000000000000000000000000000000815260040160405180910390fd5b60018160050160006101000a81548160ff02191690831515021790555060008160010160009054906101000a900473ffffffffffffffffffffffffffffffffffffffff1673ffffffffffffffffffffffffffffffffffffffff168260020154836003016040516106a2919061100c565b60006040518083038185875af1925050503d80600081146106df576040519150601f19603f3d011682016040523d82523d6000602084013e6106e4565b606091505b505090508061071f576040517fcb2f2a1c00000000000000000000000000000000000000000000000000000000815260040160405180910390fd5b7fb91792dfbec9d14f14efe0fd0328fe544073cd1befa73f98441bce708e6431798260010160009054906101000a900473ffffffffffffffffffffffffffffffffffffffff168360020154846003013360405161077f9493929190611061565b60405180910390a15050505050565b6000803373ffffffffffffffffffffffffffffffffffffffff1673ffffffffffffffffffffffffffffffffffffffff16815260200190815260200160002060009054906101000a900460ff16610810576040517f30cd747100000000000000000000000000000000000000000000000000000000815260040160405180910390fd5b8060045481111561084d576040517f3c35a0eb00000000000000000000000000000000000000000000000000000000815260040160405180910390fd5b816001600082815260200190815260200160002060050160009054906101000a900460ff16156108a9576040517f2ea945cf00000000000000000000000000000000000000000000000000000000815260040160405180910390fd5b6002600084815260200190815260200160002060003373ffffffffffffffffffffffffffffffffffffffff1673ffffffffffffffffffffffffffffffffffffffff16815260200190815260200160002060009054906101000a900460ff16156109a657600160008481526020019081526020016000206004016000815480929190610933906112ac565b919050555060006002600085815260200190815260200160002060003373ffffffffffffffffffffffffffffffffffffffff1673ffffffffffffffffffffffffffffffffffffffff16815260200190815260200160002060006101000a81548160ff0219169083151502179055506109d8565b6040517ffafe52bf00000000000000000000000000000000000000000000000000000000815260040160405180910390fd5b505050565b60026020528160005260406000206020528060005260406000206000915091509054906101000a900460ff1681565b60016020528060005260406000206000915090508060000154908060010160009054906101000a900473ffffffffffffffffffffffffffffffffffffffff1690806002015490806003018054610a61906112d6565b80601f0160208091040260200160405190810160405280929190818152602001828054610a8d906112d6565b8015610ada5780601f10610aaf57610100808354040283529160200191610ada565b820191906000526020600020905b815481529060010190602001808311610abd57829003601f168201915b5050505050908060040154908060050160009054906101000a900460ff16905086565b6000803373ffffffffffffffffffffffffffffffffffffffff1673ffffffffffffffffffffffffffffffffffffffff16815260200190815260200160002060009054906101000a900460ff16610b7f576040517f30cd747100000000000000000000000000000000000000000000000000000000815260040160405180910390fd5b600060016000600454815260200190815260200160002090506004548160000181905550838160010160006101000a81548173ffffffffffffffffffffffffffffffffffffffff021916908373ffffffffffffffffffffffffffffffffffffffff16021790555082816002018190555081816003019080519060200190610c07929190610c61565b5060046000815480929190610c1b90611339565b91905055507f315d8bf6c6d36a1411ee3d8d607b26df37940936bd273e006857a296fbac2ce8848484604051610c5393929190611023565b60405180910390a150505050565b828054610c6d906112d6565b90600052602060002090601f016020900481019282610c8f5760008555610cd6565b82601f10610ca857805160ff1916838001178555610cd6565b82800160010185558215610cd6579182015b82811115610cd5578251825591602001919060010190610cba565b5b509050610ce39190610ce7565b5090565b5b80821115610d00576000816000905550600101610ce8565b5090565b6000610d17610d12846111b5565b611190565b905082815260208101848484011115610d3357610d32611414565b5b610d3e84828561126a565b509392505050565b600081359050610d5581611434565b92915050565b600082601f830112610d7057610d6f61140f565b5b8135610d80848260208601610d04565b91505092915050565b600081359050610d988161144b565b92915050565b600060208284031215610db457610db361141e565b5b6000610dc284828501610d46565b91505092915050565b600080600060608486031215610de457610de361141e565b5b6000610df286828701610d46565b9350506020610e0386828701610d89565b925050604084013567ffffffffffffffff811115610e2457610e23611419565b5b610e3086828701610d5b565b9150509250925092565b600060208284031215610e5057610e4f61141e565b5b6000610e5e84828501610d89565b91505092915050565b60008060408385031215610e7e57610e7d61141e565b5b6000610e8c85828601610d89565b9250506020610e9d85828601610d46565b9150509250929050565b610eb081611222565b82525050565b610ebf81611234565b82525050565b6000610ed0826111fb565b610eda8185611206565b9350610eea818560208601611279565b610ef381611423565b840191505092915050565b60008154610f0b816112d6565b610f158186611206565b94506001821660008114610f305760018114610f4257610f75565b60ff1983168652602086019350610f75565b610f4b856111e6565b60005b83811015610f6d57815481890152600182019150602081019050610f4e565b808801955050505b50505092915050565b60008154610f8b816112d6565b610f958186611217565b94506001821660008114610fb05760018114610fc157610ff4565b60ff19831686528186019350610ff4565b610fca856111e6565b60005b83811015610fec57815481890152600182019150602081019050610fcd565b838801955050505b50505092915050565b61100681611260565b82525050565b60006110188284610f7e565b915081905092915050565b60006060820190506110386000830186610ea7565b6110456020830185610ffd565b81810360408301526110578184610ec5565b9050949350505050565b60006080820190506110766000830187610ea7565b6110836020830186610ffd565b81810360408301526110958185610efe565b90506110a46060830184610ea7565b95945050505050565b60006060820190506110c26000830186610ea7565b6110cf6020830185610ffd565b6110dc6040830184610ffd565b949350505050565b60006020820190506110f96000830184610eb6565b92915050565b60006040820190506111146000830185610ffd565b6111216020830184610ea7565b9392505050565b600060c08201905061113d6000830189610ffd565b61114a6020830188610ea7565b6111576040830187610ffd565b81810360608301526111698186610ec5565b90506111786080830185610ffd565b61118560a0830184610eb6565b979650505050505050565b600061119a6111ab565b90506111a68282611308565b919050565b6000604051905090565b600067ffffffffffffffff8211156111d0576111cf6113e0565b5b6111d982611423565b9050602081019050919050565b60008190508160005260206000209050919050565b600081519050919050565b600082825260208201905092915050565b600081905092915050565b600061122d82611240565b9050919050565b60008115159050919050565b600073ffffffffffffffffffffffffffffffffffffffff82169050919050565b6000819050919050565b82818337600083830152505050565b60005b8381101561129757808201518184015260208101905061127c565b838111156112a6576000848401525b50505050565b60006112b782611260565b915060008214156112cb576112ca611382565b5b600182039050919050565b600060028204905060018216806112ee57607f821691505b60208210811415611302576113016113b1565b5b50919050565b61131182611423565b810181811067ffffffffffffffff821117156113305761132f6113e0565b5b80604052505050565b600061134482611260565b91507fffffffffffffffffffffffffffffffffffffffffffffffffffffffffffffffff82141561137757611376611382565b5b600182019050919050565b7f4e487b7100000000000000000000000000000000000000000000000000000000600052601160045260246000fd5b7f4e487b7100000000000000000000000000000000000000000000000000000000600052602260045260246000fd5b7f4e487b7100000000000000000000000000000000000000000000000000000000600052604160045260246000fd5b600080fd5b600080fd5b600080fd5b600080fd5b6000601f19601f8301169050919050565b61143d81611222565b811461144857600080fd5b50565b61145481611260565b811461145f57600080fd5b5056fea26469706673582212206afad5ef70498bfeabdb523952c6a6db02018bab3e71780b3fc9826fbff1e66664736f6c63430008070033",
					"opcodes": "PUSH1 0x80 PUSH1 0x40 MSTORE CALLVALUE DUP1 ISZERO PUSH3 0x11 JUMPI PUSH1 0x0 DUP1 REVERT JUMPDEST POP PUSH1 0x40 MLOAD PUSH3 0x19EF CODESIZE SUB DUP1 PUSH3 0x19EF DUP4 CODECOPY DUP2 DUP2 ADD PUSH1 0x40 MSTORE DUP2 ADD SWAP1 PUSH3 0x37 SWAP2 SWAP1 PUSH3 0x2E1 JUMP JUMPDEST DUP2 MLOAD DUP2 GT ISZERO PUSH3 0x73 JUMPI PUSH1 0x40 MLOAD PUSH32 0xAA6EAC5100000000000000000000000000000000000000000000000000000000 DUP2 MSTORE PUSH1 0x4 ADD PUSH1 0x40 MLOAD DUP1 SWAP2 SUB SWAP1 REVERT JUMPDEST PUSH1 0x0 JUMPDEST DUP3 MLOAD DUP2 LT ISZERO PUSH3 0x1FC JUMPI PUSH1 0x0 DUP4 DUP3 DUP2 MLOAD DUP2 LT PUSH3 0x98 JUMPI PUSH3 0x97 PUSH3 0x490 JUMP JUMPDEST JUMPDEST PUSH1 0x20 MUL PUSH1 0x20 ADD ADD MLOAD SWAP1 POP PUSH1 0x0 PUSH20 0xFFFFFFFFFFFFFFFFFFFFFFFFFFFFFFFFFFFFFFFF AND DUP2 PUSH20 0xFFFFFFFFFFFFFFFFFFFFFFFFFFFFFFFFFFFFFFFF AND EQ ISZERO PUSH3 0x10A JUMPI PUSH1 0x40 MLOAD PUSH32 0xD924E5F400000000000000000000000000000000000000000000000000000000 DUP2 MSTORE PUSH1 0x4 ADD PUSH1 0x40 MLOAD DUP1 SWAP2 SUB SWAP1 REVERT JUMPDEST PUSH1 0x0 DUP1 DUP3 PUSH20 0xFFFFFFFFFFFFFFFFFFFFFFFFFFFFFFFFFFFFFFFF AND PUSH20 0xFFFFFFFFFFFFFFFFFFFFFFFFFFFFFFFFFFFFFFFF AND DUP2 MSTORE PUSH1 0x20 ADD SWAP1 DUP2 MSTORE PUSH1 0x20 ADD PUSH1 0x0 KECCAK256 PUSH1 0x0 SWAP1 SLOAD SWAP1 PUSH2 0x100 EXP SWAP1 DIV PUSH1 0xFF AND ISZERO PUSH3 0x18E JUMPI PUSH1 0x40 MLOAD PUSH32 0xC0159E0E00000000000000000000000000000000000000000000000000000000 DUP2 MSTORE PUSH1 0x4 ADD PUSH1 0x40 MLOAD DUP1 SWAP2 SUB SWAP1 REVERT JUMPDEST PUSH1 0x1 PUSH1 0x0 DUP1 DUP4 PUSH20 0xFFFFFFFFFFFFFFFFFFFFFFFFFFFFFFFFFFFFFFFF AND PUSH20 0xFFFFFFFFFFFFFFFFFFFFFFFFFFFFFFFFFFFFFFFF AND DUP2 MSTORE PUSH1 0x20 ADD SWAP1 DUP2 MSTORE PUSH1 0x20 ADD PUSH1 0x0 KECCAK256 PUSH1 0x0 PUSH2 0x100 EXP DUP2 SLOAD DUP2 PUSH1 0xFF MUL NOT AND SWAP1 DUP4 ISZERO ISZERO MUL OR SWAP1 SSTORE POP POP DUP1 DUP1 PUSH3 0x1F3 SWAP1 PUSH3 0x413 JUMP JUMPDEST SWAP2 POP POP PUSH3 0x76 JUMP JUMPDEST POP POP POP PUSH3 0x547 JUMP JUMPDEST PUSH1 0x0 PUSH3 0x21C PUSH3 0x216 DUP5 PUSH3 0x370 JUMP JUMPDEST PUSH3 0x347 JUMP JUMPDEST SWAP1 POP DUP1 DUP4 DUP3 MSTORE PUSH1 0x20 DUP3 ADD SWAP1 POP DUP3 DUP6 PUSH1 0x20 DUP7 MUL DUP3 ADD GT ISZERO PUSH3 0x242 JUMPI PUSH3 0x241 PUSH3 0x4F3 JUMP JUMPDEST JUMPDEST PUSH1 0x0 JUMPDEST DUP6 DUP2 LT ISZERO PUSH3 0x276 JUMPI DUP2 PUSH3 0x25B DUP9 DUP3 PUSH3 0x280 JUMP JUMPDEST DUP5 MSTORE PUSH1 0x20 DUP5 ADD SWAP4 POP PUSH1 0x20 DUP4 ADD SWAP3 POP POP PUSH1 0x1 DUP2 ADD SWAP1 POP PUSH3 0x245 JUMP JUMPDEST POP POP POP SWAP4 SWAP3 POP POP POP JUMP JUMPDEST PUSH1 0x0 DUP2 MLOAD SWAP1 POP PUSH3 0x291 DUP2 PUSH3 0x513 JUMP JUMPDEST SWAP3 SWAP2 POP POP JUMP JUMPDEST PUSH1 0x0 DUP3 PUSH1 0x1F DUP4 ADD SLT PUSH3 0x2AF JUMPI PUSH3 0x2AE PUSH3 0x4EE JUMP JUMPDEST JUMPDEST DUP2 MLOAD PUSH3 0x2C1 DUP5 DUP3 PUSH1 0x20 DUP7 ADD PUSH3 0x205 JUMP JUMPDEST SWAP2 POP POP SWAP3 SWAP2 POP POP JUMP JUMPDEST PUSH1 0x0 DUP2 MLOAD SWAP1 POP PUSH3 0x2DB DUP2 PUSH3 0x52D JUMP JUMPDEST SWAP3 SWAP2 POP POP JUMP JUMPDEST PUSH1 0x0 DUP1 PUSH1 0x40 DUP4 DUP6 SUB SLT ISZERO PUSH3 0x2FB JUMPI PUSH3 0x2FA PUSH3 0x4FD JUMP JUMPDEST JUMPDEST PUSH1 0x0 DUP4 ADD MLOAD PUSH8 0xFFFFFFFFFFFFFFFF DUP2 GT ISZERO PUSH3 0x31C JUMPI PUSH3 0x31B PUSH3 0x4F8 JUMP JUMPDEST JUMPDEST PUSH3 0x32A DUP6 DUP3 DUP7 ADD PUSH3 0x297 JUMP JUMPDEST SWAP3 POP POP PUSH1 0x20 PUSH3 0x33D DUP6 DUP3 DUP7 ADD PUSH3 0x2CA JUMP JUMPDEST SWAP2 POP POP SWAP3 POP SWAP3 SWAP1 POP JUMP JUMPDEST PUSH1 0x0 PUSH3 0x353 PUSH3 0x366 JUMP JUMPDEST SWAP1 POP PUSH3 0x361 DUP3 DUP3 PUSH3 0x3DD JUMP JUMPDEST SWAP2 SWAP1 POP JUMP JUMPDEST PUSH1 0x0 PUSH1 0x40 MLOAD SWAP1 POP SWAP1 JUMP JUMPDEST PUSH1 0x0 PUSH8 0xFFFFFFFFFFFFFFFF DUP3 GT ISZERO PUSH3 0x38E JUMPI PUSH3 0x38D PUSH3 0x4BF JUMP JUMPDEST JUMPDEST PUSH1 0x20 DUP3 MUL SWAP1 POP PUSH1 0x20 DUP2 ADD SWAP1 POP SWAP2 SWAP1 POP JUMP JUMPDEST PUSH1 0x0 PUSH3 0x3AC DUP3 PUSH3 0x3B3 JUMP JUMPDEST SWAP1 POP SWAP2 SWAP1 POP JUMP JUMPDEST PUSH1 0x0 PUSH20 0xFFFFFFFFFFFFFFFFFFFFFFFFFFFFFFFFFFFFFFFF DUP3 AND SWAP1 POP SWAP2 SWAP1 POP JUMP JUMPDEST PUSH1 0x0 DUP2 SWAP1 POP SWAP2 SWAP1 POP JUMP JUMPDEST PUSH3 0x3E8 DUP3 PUSH3 0x502 JUMP JUMPDEST DUP2 ADD DUP2 DUP2 LT PUSH8 0xFFFFFFFFFFFFFFFF DUP3 GT OR ISZERO PUSH3 0x40A JUMPI PUSH3 0x409 PUSH3 0x4BF JUMP JUMPDEST JUMPDEST DUP1 PUSH1 0x40 MSTORE POP POP POP JUMP JUMPDEST PUSH1 0x0 PUSH3 0x420 DUP3 PUSH3 0x3D3 JUMP JUMPDEST SWAP2 POP PUSH32 0xFFFFFFFFFFFFFFFFFFFFFFFFFFFFFFFFFFFFFFFFFFFFFFFFFFFFFFFFFFFFFFFF DUP3 EQ ISZERO PUSH3 0x456 JUMPI PUSH3 0x455 PUSH3 0x461 JUMP JUMPDEST JUMPDEST PUSH1 0x1 DUP3 ADD SWAP1 POP SWAP2 SWAP1 POP JUMP JUMPDEST PUSH32 0x4E487B7100000000000000000000000000000000000000000000000000000000 PUSH1 0x0 MSTORE PUSH1 0x11 PUSH1 0x4 MSTORE PUSH1 0x24 PUSH1 0x0 REVERT JUMPDEST PUSH32 0x4E487B7100000000000000000000000000000000000000000000000000000000 PUSH1 0x0 MSTORE PUSH1 0x32 PUSH1 0x4 MSTORE PUSH1 0x24 PUSH1 0x0 REVERT JUMPDEST PUSH32 0x4E487B7100000000000000000000000000000000000000000000000000000000 PUSH1 0x0 MSTORE PUSH1 0x41 PUSH1 0x4 MSTORE PUSH1 0x24 PUSH1 0x0 REVERT JUMPDEST PUSH1 0x0 DUP1 REVERT JUMPDEST PUSH1 0x0 DUP1 REVERT JUMPDEST PUSH1 0x0 DUP1 REVERT JUMPDEST PUSH1 0x0 DUP1 REVERT JUMPDEST PUSH1 0x0 PUSH1 0x1F NOT PUSH1 0x1F DUP4 ADD AND SWAP1 POP SWAP2 SWAP1 POP JUMP JUMPDEST PUSH3 0x51E DUP2 PUSH3 0x39F JUMP JUMPDEST DUP2 EQ PUSH3 0x52A JUMPI PUSH1 0x0 DUP1 REVERT JUMPDEST POP JUMP JUMPDEST PUSH3 0x538 DUP2 PUSH3 0x3D3 JUMP JUMPDEST DUP2 EQ PUSH3 0x544 JUMPI PUSH1 0x0 DUP1 REVERT JUMPDEST POP JUMP JUMPDEST PUSH2 0x1498 DUP1 PUSH3 0x557 PUSH1 0x0 CODECOPY PUSH1 0x0 RETURN INVALID PUSH1 0x80 PUSH1 0x40 MSTORE PUSH1 0x4 CALLDATASIZE LT PUSH2 0x74 JUMPI PUSH1 0x0 CALLDATALOAD PUSH1 0xE0 SHR DUP1 PUSH4 0x5986AACA GT PUSH2 0x4E JUMPI DUP1 PUSH4 0x5986AACA EQ PUSH2 0x14A JUMPI DUP1 PUSH4 0x8253951A EQ PUSH2 0x173 JUMPI DUP1 PUSH4 0x9ACE38C2 EQ PUSH2 0x1B0 JUMPI DUP1 PUSH4 0xBB84C5A9 EQ PUSH2 0x1F2 JUMPI PUSH2 0xB6 JUMP JUMPDEST DUP1 PUSH4 0x1087393A EQ PUSH2 0xBB JUMPI DUP1 PUSH4 0x2F54BF6E EQ PUSH2 0xE4 JUMPI DUP1 PUSH4 0x54B5FE80 EQ PUSH2 0x121 JUMPI PUSH2 0xB6 JUMP JUMPDEST CALLDATASIZE PUSH2 0xB6 JUMPI PUSH32 0x90890809C654F11D6E72A28FA60149770A0D11EC6C92319D6CEB2BB0A4EA1A15 CALLER CALLVALUE SELFBALANCE PUSH1 0x40 MLOAD PUSH2 0xAC SWAP4 SWAP3 SWAP2 SWAP1 PUSH2 0x10AD JUMP JUMPDEST PUSH1 0x40 MLOAD DUP1 SWAP2 SUB SWAP1 LOG1 STOP JUMPDEST PUSH1 0x0 DUP1 REVERT JUMPDEST CALLVALUE DUP1 ISZERO PUSH2 0xC7 JUMPI PUSH1 0x0 DUP1 REVERT JUMPDEST POP PUSH2 0xE2 PUSH1 0x4 DUP1 CALLDATASIZE SUB DUP2 ADD SWAP1 PUSH2 0xDD SWAP2 SWAP1 PUSH2 0xE3A JUMP JUMPDEST PUSH2 0x21B JUMP JUMPDEST STOP JUMPDEST CALLVALUE DUP1 ISZERO PUSH2 0xF0 JUMPI PUSH1 0x0 DUP1 REVERT JUMPDEST POP PUSH2 0x10B PUSH1 0x4 DUP1 CALLDATASIZE SUB DUP2 ADD SWAP1 PUSH2 0x106 SWAP2 SWAP1 PUSH2 0xD9E JUMP JUMPDEST PUSH2 0x4A0 JUMP JUMPDEST PUSH1 0x40 MLOAD PUSH2 0x118 SWAP2 SWAP1 PUSH2 0x10E4 JUMP JUMPDEST PUSH1 0x40 MLOAD DUP1 SWAP2 SUB SWAP1 RETURN JUMPDEST CALLVALUE DUP1 ISZERO PUSH2 0x12D JUMPI PUSH1 0x0 DUP1 REVERT JUMPDEST POP PUSH2 0x148 PUSH1 0x4 DUP1 CALLDATASIZE SUB DUP2 ADD SWAP1 PUSH2 0x143 SWAP2 SWAP1 PUSH2 0xE3A JUMP JUMPDEST PUSH2 0x4C0 JUMP JUMPDEST STOP JUMPDEST CALLVALUE DUP1 ISZERO PUSH2 0x156 JUMPI PUSH1 0x0 DUP1 REVERT JUMPDEST POP PUSH2 0x171 PUSH1 0x4 DUP1 CALLDATASIZE SUB DUP2 ADD SWAP1 PUSH2 0x16C SWAP2 SWAP1 PUSH2 0xE3A JUMP JUMPDEST PUSH2 0x78E JUMP JUMPDEST STOP JUMPDEST CALLVALUE DUP1 ISZERO PUSH2 0x17F JUMPI PUSH1 0x0 DUP1 REVERT JUMPDEST POP PUSH2 0x19A PUSH1 0x4 DUP1 CALLDATASIZE SUB DUP2 ADD SWAP1 PUSH2 0x195 SWAP2 SWAP1 PUSH2 0xE67 JUMP JUMPDEST PUSH2 0x9DD JUMP JUMPDEST PUSH1 0x40 MLOAD PUSH2 0x1A7 SWAP2 SWAP1 PUSH2 0x10E4 JUMP JUMPDEST PUSH1 0x40 MLOAD DUP1 SWAP2 SUB SWAP1 RETURN JUMPDEST CALLVALUE DUP1 ISZERO PUSH2 0x1BC JUMPI PUSH1 0x0 DUP1 REVERT JUMPDEST POP PUSH2 0x1D7 PUSH1 0x4 DUP1 CALLDATASIZE SUB DUP2 ADD SWAP1 PUSH2 0x1D2 SWAP2 SWAP1 PUSH2 0xE3A JUMP JUMPDEST PUSH2 0xA0C JUMP JUMPDEST PUSH1 0x40 MLOAD PUSH2 0x1E9 SWAP7 SWAP6 SWAP5 SWAP4 SWAP3 SWAP2 SWAP1 PUSH2 0x1128 JUMP JUMPDEST PUSH1 0x40 MLOAD DUP1 SWAP2 SUB SWAP1 RETURN JUMPDEST CALLVALUE DUP1 ISZERO PUSH2 0x1FE JUMPI PUSH1 0x0 DUP1 REVERT JUMPDEST POP PUSH2 0x219 PUSH1 0x4 DUP1 CALLDATASIZE SUB DUP2 ADD SWAP1 PUSH2 0x214 SWAP2 SWAP1 PUSH2 0xDCB JUMP JUMPDEST PUSH2 0xAFD JUMP JUMPDEST STOP JUMPDEST PUSH1 0x0 DUP1 CALLER PUSH20 0xFFFFFFFFFFFFFFFFFFFFFFFFFFFFFFFFFFFFFFFF AND PUSH20 0xFFFFFFFFFFFFFFFFFFFFFFFFFFFFFFFFFFFFFFFF AND DUP2 MSTORE PUSH1 0x20 ADD SWAP1 DUP2 MSTORE PUSH1 0x20 ADD PUSH1 0x0 KECCAK256 PUSH1 0x0 SWAP1 SLOAD SWAP1 PUSH2 0x100 EXP SWAP1 DIV PUSH1 0xFF AND PUSH2 0x29D JUMPI PUSH1 0x40 MLOAD PUSH32 0x30CD747100000000000000000000000000000000000000000000000000000000 DUP2 MSTORE PUSH1 0x4 ADD PUSH1 0x40 MLOAD DUP1 SWAP2 SUB SWAP1 REVERT JUMPDEST DUP1 PUSH1 0x4 SLOAD DUP2 GT ISZERO PUSH2 0x2DA JUMPI PUSH1 0x40 MLOAD PUSH32 0x3C35A0EB00000000000000000000000000000000000000000000000000000000 DUP2 MSTORE PUSH1 0x4 ADD PUSH1 0x40 MLOAD DUP1 SWAP2 SUB SWAP1 REVERT JUMPDEST DUP2 PUSH1 0x2 PUSH1 0x0 DUP3 DUP2 MSTORE PUSH1 0x20 ADD SWAP1 DUP2 MSTORE PUSH1 0x20 ADD PUSH1 0x0 KECCAK256 PUSH1 0x0 CALLER PUSH20 0xFFFFFFFFFFFFFFFFFFFFFFFFFFFFFFFFFFFFFFFF AND PUSH20 0xFFFFFFFFFFFFFFFFFFFFFFFFFFFFFFFFFFFFFFFF AND DUP2 MSTORE PUSH1 0x20 ADD SWAP1 DUP2 MSTORE PUSH1 0x20 ADD PUSH1 0x0 KECCAK256 PUSH1 0x0 SWAP1 SLOAD SWAP1 PUSH2 0x100 EXP SWAP1 DIV PUSH1 0xFF AND ISZERO PUSH2 0x370 JUMPI PUSH1 0x40 MLOAD PUSH32 0x5DB7EC0D00000000000000000000000000000000000000000000000000000000 DUP2 MSTORE PUSH1 0x4 ADD PUSH1 0x40 MLOAD DUP1 SWAP2 SUB SWAP1 REVERT JUMPDEST DUP3 PUSH1 0x1 PUSH1 0x0 DUP3 DUP2 MSTORE PUSH1 0x20 ADD SWAP1 DUP2 MSTORE PUSH1 0x20 ADD PUSH1 0x0 KECCAK256 PUSH1 0x5 ADD PUSH1 0x0 SWAP1 SLOAD SWAP1 PUSH2 0x100 EXP SWAP1 DIV PUSH1 0xFF AND ISZERO PUSH2 0x3CC JUMPI PUSH1 0x40 MLOAD PUSH32 0x2EA945CF00000000000000000000000000000000000000000000000000000000 DUP2 MSTORE PUSH1 0x4 ADD PUSH1 0x40 MLOAD DUP1 SWAP2 SUB SWAP1 REVERT JUMPDEST PUSH1 0x1 PUSH1 0x0 DUP6 DUP2 MSTORE PUSH1 0x20 ADD SWAP1 DUP2 MSTORE PUSH1 0x20 ADD PUSH1 0x0 KECCAK256 PUSH1 0x4 ADD PUSH1 0x0 DUP2 SLOAD DUP1 SWAP3 SWAP2 SWAP1 PUSH2 0x3F3 SWAP1 PUSH2 0x1339 JUMP JUMPDEST SWAP2 SWAP1 POP SSTORE POP PUSH1 0x1 PUSH1 0x2 PUSH1 0x0 DUP7 DUP2 MSTORE PUSH1 0x20 ADD SWAP1 DUP2 MSTORE PUSH1 0x20 ADD PUSH1 0x0 KECCAK256 PUSH1 0x0 CALLER PUSH20 0xFFFFFFFFFFFFFFFFFFFFFFFFFFFFFFFFFFFFFFFF AND PUSH20 0xFFFFFFFFFFFFFFFFFFFFFFFFFFFFFFFFFFFFFFFF AND DUP2 MSTORE PUSH1 0x20 ADD SWAP1 DUP2 MSTORE PUSH1 0x20 ADD PUSH1 0x0 KECCAK256 PUSH1 0x0 PUSH2 0x100 EXP DUP2 SLOAD DUP2 PUSH1 0xFF MUL NOT AND SWAP1 DUP4 ISZERO ISZERO MUL OR SWAP1 SSTORE POP PUSH32 0xD4329D04E785EBE84C72DCD09FB9C65F1FBBDA53EE15EC20E93342C7F3E2A62D DUP5 CALLER PUSH1 0x40 MLOAD PUSH2 0x492 SWAP3 SWAP2 SWAP1 PUSH2 0x10FF JUMP JUMPDEST PUSH1 0x40 MLOAD DUP1 SWAP2 SUB SWAP1 LOG1 POP POP POP POP JUMP JUMPDEST PUSH1 0x0 PUSH1 0x20 MSTORE DUP1 PUSH1 0x0 MSTORE PUSH1 0x40 PUSH1 0x0 KECCAK256 PUSH1 0x0 SWAP2 POP SLOAD SWAP1 PUSH2 0x100 EXP SWAP1 DIV PUSH1 0xFF AND DUP2 JUMP JUMPDEST PUSH1 0x0 DUP1 CALLER PUSH20 0xFFFFFFFFFFFFFFFFFFFFFFFFFFFFFFFFFFFFFFFF AND PUSH20 0xFFFFFFFFFFFFFFFFFFFFFFFFFFFFFFFFFFFFFFFF AND DUP2 MSTORE PUSH1 0x20 ADD SWAP1 DUP2 MSTORE PUSH1 0x20 ADD PUSH1 0x0 KECCAK256 PUSH1 0x0 SWAP1 SLOAD SWAP1 PUSH2 0x100 EXP SWAP1 DIV PUSH1 0xFF AND PUSH2 0x542 JUMPI PUSH1 0x40 MLOAD PUSH32 0x30CD747100000000000000000000000000000000000000000000000000000000 DUP2 MSTORE PUSH1 0x4 ADD PUSH1 0x40 MLOAD DUP1 SWAP2 SUB SWAP1 REVERT JUMPDEST DUP1 PUSH1 0x4 SLOAD DUP2 GT ISZERO PUSH2 0x57F JUMPI PUSH1 0x40 MLOAD PUSH32 0x3C35A0EB00000000000000000000000000000000000000000000000000000000 DUP2 MSTORE PUSH1 0x4 ADD PUSH1 0x40 MLOAD DUP1 SWAP2 SUB SWAP1 REVERT JUMPDEST DUP2 PUSH1 0x1 PUSH1 0x0 DUP3 DUP2 MSTORE PUSH1 0x20 ADD SWAP1 DUP2 MSTORE PUSH1 0x20 ADD PUSH1 0x0 KECCAK256 PUSH1 0x5 ADD PUSH1 0x0 SWAP1 SLOAD SWAP1 PUSH2 0x100 EXP SWAP1 DIV PUSH1 0xFF AND ISZERO PUSH2 0x5DB JUMPI PUSH1 0x40 MLOAD PUSH32 0x2EA945CF00000000000000000000000000000000000000000000000000000000 DUP2 MSTORE PUSH1 0x4 ADD PUSH1 0x40 MLOAD DUP1 SWAP2 SUB SWAP1 REVERT JUMPDEST PUSH1 0x0 PUSH1 0x1 PUSH1 0x0 DUP6 DUP2 MSTORE PUSH1 0x20 ADD SWAP1 DUP2 MSTORE PUSH1 0x20 ADD PUSH1 0x0 KECCAK256 SWAP1 POP PUSH1 0x3 SLOAD DUP2 PUSH1 0x4 ADD SLOAD LT ISZERO PUSH2 0x632 JUMPI PUSH1 0x40 MLOAD PUSH32 0x9DD63CB700000000000000000000000000000000000000000000000000000000 DUP2 MSTORE PUSH1 0x4 ADD PUSH1 0x40 MLOAD DUP1 SWAP2 SUB SWAP1 REVERT JUMPDEST PUSH1 0x1 DUP2 PUSH1 0x5 ADD PUSH1 0x0 PUSH2 0x100 EXP DUP2 SLOAD DUP2 PUSH1 0xFF MUL NOT AND SWAP1 DUP4 ISZERO ISZERO MUL OR SWAP1 SSTORE POP PUSH1 0x0 DUP2 PUSH1 0x1 ADD PUSH1 0x0 SWAP1 SLOAD SWAP1 PUSH2 0x100 EXP SWAP1 DIV PUSH20 0xFFFFFFFFFFFFFFFFFFFFFFFFFFFFFFFFFFFFFFFF AND PUSH20 0xFFFFFFFFFFFFFFFFFFFFFFFFFFFFFFFFFFFFFFFF AND DUP3 PUSH1 0x2 ADD SLOAD DUP4 PUSH1 0x3 ADD PUSH1 0x40 MLOAD PUSH2 0x6A2 SWAP2 SWAP1 PUSH2 0x100C JUMP JUMPDEST PUSH1 0x0 PUSH1 0x40 MLOAD DUP1 DUP4 SUB DUP2 DUP6 DUP8 GAS CALL SWAP3 POP POP POP RETURNDATASIZE DUP1 PUSH1 0x0 DUP2 EQ PUSH2 0x6DF JUMPI PUSH1 0x40 MLOAD SWAP2 POP PUSH1 0x1F NOT PUSH1 0x3F RETURNDATASIZE ADD AND DUP3 ADD PUSH1 0x40 MSTORE RETURNDATASIZE DUP3 MSTORE RETURNDATASIZE PUSH1 0x0 PUSH1 0x20 DUP5 ADD RETURNDATACOPY PUSH2 0x6E4 JUMP JUMPDEST PUSH1 0x60 SWAP2 POP JUMPDEST POP POP SWAP1 POP DUP1 PUSH2 0x71F JUMPI PUSH1 0x40 MLOAD PUSH32 0xCB2F2A1C00000000000000000000000000000000000000000000000000000000 DUP2 MSTORE PUSH1 0x4 ADD PUSH1 0x40 MLOAD DUP1 SWAP2 SUB SWAP1 REVERT JUMPDEST PUSH32 0xB91792DFBEC9D14F14EFE0FD0328FE544073CD1BEFA73F98441BCE708E643179 DUP3 PUSH1 0x1 ADD PUSH1 0x0 SWAP1 SLOAD SWAP1 PUSH2 0x100 EXP SWAP1 DIV PUSH20 0xFFFFFFFFFFFFFFFFFFFFFFFFFFFFFFFFFFFFFFFF AND DUP4 PUSH1 0x2 ADD SLOAD DUP5 PUSH1 0x3 ADD CALLER PUSH1 0x40 MLOAD PUSH2 0x77F SWAP5 SWAP4 SWAP3 SWAP2 SWAP1 PUSH2 0x1061 JUMP JUMPDEST PUSH1 0x40 MLOAD DUP1 SWAP2 SUB SWAP1 LOG1 POP POP POP POP POP JUMP JUMPDEST PUSH1 0x0 DUP1 CALLER PUSH20 0xFFFFFFFFFFFFFFFFFFFFFFFFFFFFFFFFFFFFFFFF AND PUSH20 0xFFFFFFFFFFFFFFFFFFFFFFFFFFFFFFFFFFFFFFFF AND DUP2 MSTORE PUSH1 0x20 ADD SWAP1 DUP2 MSTORE PUSH1 0x20 ADD PUSH1 0x0 KECCAK256 PUSH1 0x0 SWAP1 SLOAD SWAP1 PUSH2 0x100 EXP SWAP1 DIV PUSH1 0xFF AND PUSH2 0x810 JUMPI PUSH1 0x40 MLOAD PUSH32 0x30CD747100000000000000000000000000000000000000000000000000000000 DUP2 MSTORE PUSH1 0x4 ADD PUSH1 0x40 MLOAD DUP1 SWAP2 SUB SWAP1 REVERT JUMPDEST DUP1 PUSH1 0x4 SLOAD DUP2 GT ISZERO PUSH2 0x84D JUMPI PUSH1 0x40 MLOAD PUSH32 0x3C35A0EB00000000000000000000000000000000000000000000000000000000 DUP2 MSTORE PUSH1 0x4 ADD PUSH1 0x40 MLOAD DUP1 SWAP2 SUB SWAP1 REVERT JUMPDEST DUP2 PUSH1 0x1 PUSH1 0x0 DUP3 DUP2 MSTORE PUSH1 0x20 ADD SWAP1 DUP2 MSTORE PUSH1 0x20 ADD PUSH1 0x0 KECCAK256 PUSH1 0x5 ADD PUSH1 0x0 SWAP1 SLOAD SWAP1 PUSH2 0x100 EXP SWAP1 DIV PUSH1 0xFF AND ISZERO PUSH2 0x8A9 JUMPI PUSH1 0x40 MLOAD PUSH32 0x2EA945CF00000000000000000000000000000000000000000000000000000000 DUP2 MSTORE PUSH1 0x4 ADD PUSH1 0x40 MLOAD DUP1 SWAP2 SUB SWAP1 REVERT JUMPDEST PUSH1 0x2 PUSH1 0x0 DUP5 DUP2 MSTORE PUSH1 0x20 ADD SWAP1 DUP2 MSTORE PUSH1 0x20 ADD PUSH1 0x0 KECCAK256 PUSH1 0x0 CALLER PUSH20 0xFFFFFFFFFFFFFFFFFFFFFFFFFFFFFFFFFFFFFFFF AND PUSH20 0xFFFFFFFFFFFFFFFFFFFFFFFFFFFFFFFFFFFFFFFF AND DUP2 MSTORE PUSH1 0x20 ADD SWAP1 DUP2 MSTORE PUSH1 0x20 ADD PUSH1 0x0 KECCAK256 PUSH1 0x0 SWAP1 SLOAD SWAP1 PUSH2 0x100 EXP SWAP1 DIV PUSH1 0xFF AND ISZERO PUSH2 0x9A6 JUMPI PUSH1 0x1 PUSH1 0x0 DUP5 DUP2 MSTORE PUSH1 0x20 ADD SWAP1 DUP2 MSTORE PUSH1 0x20 ADD PUSH1 0x0 KECCAK256 PUSH1 0x4 ADD PUSH1 0x0 DUP2 SLOAD DUP1 SWAP3 SWAP2 SWAP1 PUSH2 0x933 SWAP1 PUSH2 0x12AC JUMP JUMPDEST SWAP2 SWAP1 POP SSTORE POP PUSH1 0x0 PUSH1 0x2 PUSH1 0x0 DUP6 DUP2 MSTORE PUSH1 0x20 ADD SWAP1 DUP2 MSTORE PUSH1 0x20 ADD PUSH1 0x0 KECCAK256 PUSH1 0x0 CALLER PUSH20 0xFFFFFFFFFFFFFFFFFFFFFFFFFFFFFFFFFFFFFFFF AND PUSH20 0xFFFFFFFFFFFFFFFFFFFFFFFFFFFFFFFFFFFFFFFF AND DUP2 MSTORE PUSH1 0x20 ADD SWAP1 DUP2 MSTORE PUSH1 0x20 ADD PUSH1 0x0 KECCAK256 PUSH1 0x0 PUSH2 0x100 EXP DUP2 SLOAD DUP2 PUSH1 0xFF MUL NOT AND SWAP1 DUP4 ISZERO ISZERO MUL OR SWAP1 SSTORE POP PUSH2 0x9D8 JUMP JUMPDEST PUSH1 0x40 MLOAD PUSH32 0xFAFE52BF00000000000000000000000000000000000000000000000000000000 DUP2 MSTORE PUSH1 0x4 ADD PUSH1 0x40 MLOAD DUP1 SWAP2 SUB SWAP1 REVERT JUMPDEST POP POP POP JUMP JUMPDEST PUSH1 0x2 PUSH1 0x20 MSTORE DUP2 PUSH1 0x0 MSTORE PUSH1 0x40 PUSH1 0x0 KECCAK256 PUSH1 0x20 MSTORE DUP1 PUSH1 0x0 MSTORE PUSH1 0x40 PUSH1 0x0 KECCAK256 PUSH1 0x0 SWAP2 POP SWAP2 POP SWAP1 SLOAD SWAP1 PUSH2 0x100 EXP SWAP1 DIV PUSH1 0xFF AND DUP2 JUMP JUMPDEST PUSH1 0x1 PUSH1 0x20 MSTORE DUP1 PUSH1 0x0 MSTORE PUSH1 0x40 PUSH1 0x0 KECCAK256 PUSH1 0x0 SWAP2 POP SWAP1 POP DUP1 PUSH1 0x0 ADD SLOAD SWAP1 DUP1 PUSH1 0x1 ADD PUSH1 0x0 SWAP1 SLOAD SWAP1 PUSH2 0x100 EXP SWAP1 DIV PUSH20 0xFFFFFFFFFFFFFFFFFFFFFFFFFFFFFFFFFFFFFFFF AND SWAP1 DUP1 PUSH1 0x2 ADD SLOAD SWAP1 DUP1 PUSH1 0x3 ADD DUP1 SLOAD PUSH2 0xA61 SWAP1 PUSH2 0x12D6 JUMP JUMPDEST DUP1 PUSH1 0x1F ADD PUSH1 0x20 DUP1 SWAP2 DIV MUL PUSH1 0x20 ADD PUSH1 0x40 MLOAD SWAP1 DUP2 ADD PUSH1 0x40 MSTORE DUP1 SWAP3 SWAP2 SWAP1 DUP2 DUP2 MSTORE PUSH1 0x20 ADD DUP3 DUP1 SLOAD PUSH2 0xA8D SWAP1 PUSH2 0x12D6 JUMP JUMPDEST DUP1 ISZERO PUSH2 0xADA JUMPI DUP1 PUSH1 0x1F LT PUSH2 0xAAF JUMPI PUSH2 0x100 DUP1 DUP4 SLOAD DIV MUL DUP4 MSTORE SWAP2 PUSH1 0x20 ADD SWAP2 PUSH2 0xADA JUMP JUMPDEST DUP3 ADD SWAP2 SWAP1 PUSH1 0x0 MSTORE PUSH1 0x20 PUSH1 0x0 KECCAK256 SWAP1 JUMPDEST DUP2 SLOAD DUP2 MSTORE SWAP1 PUSH1 0x1 ADD SWAP1 PUSH1 0x20 ADD DUP1 DUP4 GT PUSH2 0xABD JUMPI DUP3 SWAP1 SUB PUSH1 0x1F AND DUP3 ADD SWAP2 JUMPDEST POP POP POP POP POP SWAP1 DUP1 PUSH1 0x4 ADD SLOAD SWAP1 DUP1 PUSH1 0x5 ADD PUSH1 0x0 SWAP1 SLOAD SWAP1 PUSH2 0x100 EXP SWAP1 DIV PUSH1 0xFF AND SWAP1 POP DUP7 JUMP JUMPDEST PUSH1 0x0 DUP1 CALLER PUSH20 0xFFFFFFFFFFFFFFFFFFFFFFFFFFFFFFFFFFFFFFFF AND PUSH20 0xFFFFFFFFFFFFFFFFFFFFFFFFFFFFFFFFFFFFFFFF AND DUP2 MSTORE PUSH1 0x20 ADD SWAP1 DUP2 MSTORE PUSH1 0x20 ADD PUSH1 0x0 KECCAK256 PUSH1 0x0 SWAP1 SLOAD SWAP1 PUSH2 0x100 EXP SWAP1 DIV PUSH1 0xFF AND PUSH2 0xB7F JUMPI PUSH1 0x40 MLOAD PUSH32 0x30CD747100000000000000000000000000000000000000000000000000000000 DUP2 MSTORE PUSH1 0x4 ADD PUSH1 0x40 MLOAD DUP1 SWAP2 SUB SWAP1 REVERT JUMPDEST PUSH1 0x0 PUSH1 0x1 PUSH1 0x0 PUSH1 0x4 SLOAD DUP2 MSTORE PUSH1 0x20 ADD SWAP1 DUP2 MSTORE PUSH1 0x20 ADD PUSH1 0x0 KECCAK256 SWAP1 POP PUSH1 0x4 SLOAD DUP2 PUSH1 0x0 ADD DUP2 SWAP1 SSTORE POP DUP4 DUP2 PUSH1 0x1 ADD PUSH1 0x0 PUSH2 0x100 EXP DUP2 SLOAD DUP2 PUSH20 0xFFFFFFFFFFFFFFFFFFFFFFFFFFFFFFFFFFFFFFFF MUL NOT AND SWAP1 DUP4 PUSH20 0xFFFFFFFFFFFFFFFFFFFFFFFFFFFFFFFFFFFFFFFF AND MUL OR SWAP1 SSTORE POP DUP3 DUP2 PUSH1 0x2 ADD DUP2 SWAP1 SSTORE POP DUP2 DUP2 PUSH1 0x3 ADD SWAP1 DUP1 MLOAD SWAP1 PUSH1 0x20 ADD SWAP1 PUSH2 0xC07 SWAP3 SWAP2 SWAP1 PUSH2 0xC61 JUMP JUMPDEST POP PUSH1 0x4 PUSH1 0x0 DUP2 SLOAD DUP1 SWAP3 SWAP2 SWAP1 PUSH2 0xC1B SWAP1 PUSH2 0x1339 JUMP JUMPDEST SWAP2 SWAP1 POP SSTORE POP PUSH32 0x315D8BF6C6D36A1411EE3D8D607B26DF37940936BD273E006857A296FBAC2CE8 DUP5 DUP5 DUP5 PUSH1 0x40 MLOAD PUSH2 0xC53 SWAP4 SWAP3 SWAP2 SWAP1 PUSH2 0x1023 JUMP JUMPDEST PUSH1 0x40 MLOAD DUP1 SWAP2 SUB SWAP1 LOG1 POP POP POP POP JUMP JUMPDEST DUP3 DUP1 SLOAD PUSH2 0xC6D SWAP1 PUSH2 0x12D6 JUMP JUMPDEST SWAP1 PUSH1 0x0 MSTORE PUSH1 0x20 PUSH1 0x0 KECCAK256 SWAP1 PUSH1 0x1F ADD PUSH1 0x20 SWAP1 DIV DUP2 ADD SWAP3 DUP3 PUSH2 0xC8F JUMPI PUSH1 0x0 DUP6 SSTORE PUSH2 0xCD6 JUMP JUMPDEST DUP3 PUSH1 0x1F LT PUSH2 0xCA8 JUMPI DUP1 MLOAD PUSH1 0xFF NOT AND DUP4 DUP1 ADD OR DUP6 SSTORE PUSH2 0xCD6 JUMP JUMPDEST DUP3 DUP1 ADD PUSH1 0x1 ADD DUP6 SSTORE DUP3 ISZERO PUSH2 0xCD6 JUMPI SWAP2 DUP3 ADD JUMPDEST DUP3 DUP2 GT ISZERO PUSH2 0xCD5 JUMPI DUP3 MLOAD DUP3 SSTORE SWAP2 PUSH1 0x20 ADD SWAP2 SWAP1 PUSH1 0x1 ADD SWAP1 PUSH2 0xCBA JUMP JUMPDEST JUMPDEST POP SWAP1 POP PUSH2 0xCE3 SWAP2 SWAP1 PUSH2 0xCE7 JUMP JUMPDEST POP SWAP1 JUMP JUMPDEST JUMPDEST DUP1 DUP3 GT ISZERO PUSH2 0xD00 JUMPI PUSH1 0x0 DUP2 PUSH1 0x0 SWAP1 SSTORE POP PUSH1 0x1 ADD PUSH2 0xCE8 JUMP JUMPDEST POP SWAP1 JUMP JUMPDEST PUSH1 0x0 PUSH2 0xD17 PUSH2 0xD12 DUP5 PUSH2 0x11B5 JUMP JUMPDEST PUSH2 0x1190 JUMP JUMPDEST SWAP1 POP DUP3 DUP2 MSTORE PUSH1 0x20 DUP2 ADD DUP5 DUP5 DUP5 ADD GT ISZERO PUSH2 0xD33 JUMPI PUSH2 0xD32 PUSH2 0x1414 JUMP JUMPDEST JUMPDEST PUSH2 0xD3E DUP5 DUP3 DUP6 PUSH2 0x126A JUMP JUMPDEST POP SWAP4 SWAP3 POP POP POP JUMP JUMPDEST PUSH1 0x0 DUP2 CALLDATALOAD SWAP1 POP PUSH2 0xD55 DUP2 PUSH2 0x1434 JUMP JUMPDEST SWAP3 SWAP2 POP POP JUMP JUMPDEST PUSH1 0x0 DUP3 PUSH1 0x1F DUP4 ADD SLT PUSH2 0xD70 JUMPI PUSH2 0xD6F PUSH2 0x140F JUMP JUMPDEST JUMPDEST DUP2 CALLDATALOAD PUSH2 0xD80 DUP5 DUP3 PUSH1 0x20 DUP7 ADD PUSH2 0xD04 JUMP JUMPDEST SWAP2 POP POP SWAP3 SWAP2 POP POP JUMP JUMPDEST PUSH1 0x0 DUP2 CALLDATALOAD SWAP1 POP PUSH2 0xD98 DUP2 PUSH2 0x144B JUMP JUMPDEST SWAP3 SWAP2 POP POP JUMP JUMPDEST PUSH1 0x0 PUSH1 0x20 DUP3 DUP5 SUB SLT ISZERO PUSH2 0xDB4 JUMPI PUSH2 0xDB3 PUSH2 0x141E JUMP JUMPDEST JUMPDEST PUSH1 0x0 PUSH2 0xDC2 DUP5 DUP3 DUP6 ADD PUSH2 0xD46 JUMP JUMPDEST SWAP2 POP POP SWAP3 SWAP2 POP POP JUMP JUMPDEST PUSH1 0x0 DUP1 PUSH1 0x0 PUSH1 0x60 DUP5 DUP7 SUB SLT ISZERO PUSH2 0xDE4 JUMPI PUSH2 0xDE3 PUSH2 0x141E JUMP JUMPDEST JUMPDEST PUSH1 0x0 PUSH2 0xDF2 DUP7 DUP3 DUP8 ADD PUSH2 0xD46 JUMP JUMPDEST SWAP4 POP POP PUSH1 0x20 PUSH2 0xE03 DUP7 DUP3 DUP8 ADD PUSH2 0xD89 JUMP JUMPDEST SWAP3 POP POP PUSH1 0x40 DUP5 ADD CALLDATALOAD PUSH8 0xFFFFFFFFFFFFFFFF DUP2 GT ISZERO PUSH2 0xE24 JUMPI PUSH2 0xE23 PUSH2 0x1419 JUMP JUMPDEST JUMPDEST PUSH2 0xE30 DUP7 DUP3 DUP8 ADD PUSH2 0xD5B JUMP JUMPDEST SWAP2 POP POP SWAP3 POP SWAP3 POP SWAP3 JUMP JUMPDEST PUSH1 0x0 PUSH1 0x20 DUP3 DUP5 SUB SLT ISZERO PUSH2 0xE50 JUMPI PUSH2 0xE4F PUSH2 0x141E JUMP JUMPDEST JUMPDEST PUSH1 0x0 PUSH2 0xE5E DUP5 DUP3 DUP6 ADD PUSH2 0xD89 JUMP JUMPDEST SWAP2 POP POP SWAP3 SWAP2 POP POP JUMP JUMPDEST PUSH1 0x0 DUP1 PUSH1 0x40 DUP4 DUP6 SUB SLT ISZERO PUSH2 0xE7E JUMPI PUSH2 0xE7D PUSH2 0x141E JUMP JUMPDEST JUMPDEST PUSH1 0x0 PUSH2 0xE8C DUP6 DUP3 DUP7 ADD PUSH2 0xD89 JUMP JUMPDEST SWAP3 POP POP PUSH1 0x20 PUSH2 0xE9D DUP6 DUP3 DUP7 ADD PUSH2 0xD46 JUMP JUMPDEST SWAP2 POP POP SWAP3 POP SWAP3 SWAP1 POP JUMP JUMPDEST PUSH2 0xEB0 DUP2 PUSH2 0x1222 JUMP JUMPDEST DUP3 MSTORE POP POP JUMP JUMPDEST PUSH2 0xEBF DUP2 PUSH2 0x1234 JUMP JUMPDEST DUP3 MSTORE POP POP JUMP JUMPDEST PUSH1 0x0 PUSH2 0xED0 DUP3 PUSH2 0x11FB JUMP JUMPDEST PUSH2 0xEDA DUP2 DUP6 PUSH2 0x1206 JUMP JUMPDEST SWAP4 POP PUSH2 0xEEA DUP2 DUP6 PUSH1 0x20 DUP7 ADD PUSH2 0x1279 JUMP JUMPDEST PUSH2 0xEF3 DUP2 PUSH2 0x1423 JUMP JUMPDEST DUP5 ADD SWAP2 POP POP SWAP3 SWAP2 POP POP JUMP JUMPDEST PUSH1 0x0 DUP2 SLOAD PUSH2 0xF0B DUP2 PUSH2 0x12D6 JUMP JUMPDEST PUSH2 0xF15 DUP2 DUP7 PUSH2 0x1206 JUMP JUMPDEST SWAP5 POP PUSH1 0x1 DUP3 AND PUSH1 0x0 DUP2 EQ PUSH2 0xF30 JUMPI PUSH1 0x1 DUP2 EQ PUSH2 0xF42 JUMPI PUSH2 0xF75 JUMP JUMPDEST PUSH1 0xFF NOT DUP4 AND DUP7 MSTORE PUSH1 0x20 DUP7 ADD SWAP4 POP PUSH2 0xF75 JUMP JUMPDEST PUSH2 0xF4B DUP6 PUSH2 0x11E6 JUMP JUMPDEST PUSH1 0x0 JUMPDEST DUP4 DUP2 LT ISZERO PUSH2 0xF6D JUMPI DUP2 SLOAD DUP2 DUP10 ADD MSTORE PUSH1 0x1 DUP3 ADD SWAP2 POP PUSH1 0x20 DUP2 ADD SWAP1 POP PUSH2 0xF4E JUMP JUMPDEST DUP1 DUP9 ADD SWAP6 POP POP POP JUMPDEST POP POP POP SWAP3 SWAP2 POP POP JUMP JUMPDEST PUSH1 0x0 DUP2 SLOAD PUSH2 0xF8B DUP2 PUSH2 0x12D6 JUMP JUMPDEST PUSH2 0xF95 DUP2 DUP7 PUSH2 0x1217 JUMP JUMPDEST SWAP5 POP PUSH1 0x1 DUP3 AND PUSH1 0x0 DUP2 EQ PUSH2 0xFB0 JUMPI PUSH1 0x1 DUP2 EQ PUSH2 0xFC1 JUMPI PUSH2 0xFF4 JUMP JUMPDEST PUSH1 0xFF NOT DUP4 AND DUP7 MSTORE DUP2 DUP7 ADD SWAP4 POP PUSH2 0xFF4 JUMP JUMPDEST PUSH2 0xFCA DUP6 PUSH2 0x11E6 JUMP JUMPDEST PUSH1 0x0 JUMPDEST DUP4 DUP2 LT ISZERO PUSH2 0xFEC JUMPI DUP2 SLOAD DUP2 DUP10 ADD MSTORE PUSH1 0x1 DUP3 ADD SWAP2 POP PUSH1 0x20 DUP2 ADD SWAP1 POP PUSH2 0xFCD JUMP JUMPDEST DUP4 DUP9 ADD SWAP6 POP POP POP JUMPDEST POP POP POP SWAP3 SWAP2 POP POP JUMP JUMPDEST PUSH2 0x1006 DUP2 PUSH2 0x1260 JUMP JUMPDEST DUP3 MSTORE POP POP JUMP JUMPDEST PUSH1 0x0 PUSH2 0x1018 DUP3 DUP5 PUSH2 0xF7E JUMP JUMPDEST SWAP2 POP DUP2 SWAP1 POP SWAP3 SWAP2 POP POP JUMP JUMPDEST PUSH1 0x0 PUSH1 0x60 DUP3 ADD SWAP1 POP PUSH2 0x1038 PUSH1 0x0 DUP4 ADD DUP7 PUSH2 0xEA7 JUMP JUMPDEST PUSH2 0x1045 PUSH1 0x20 DUP4 ADD DUP6 PUSH2 0xFFD JUMP JUMPDEST DUP2 DUP2 SUB PUSH1 0x40 DUP4 ADD MSTORE PUSH2 0x1057 DUP2 DUP5 PUSH2 0xEC5 JUMP JUMPDEST SWAP1 POP SWAP5 SWAP4 POP POP POP POP JUMP JUMPDEST PUSH1 0x0 PUSH1 0x80 DUP3 ADD SWAP1 POP PUSH2 0x1076 PUSH1 0x0 DUP4 ADD DUP8 PUSH2 0xEA7 JUMP JUMPDEST PUSH2 0x1083 PUSH1 0x20 DUP4 ADD DUP7 PUSH2 0xFFD JUMP JUMPDEST DUP2 DUP2 SUB PUSH1 0x40 DUP4 ADD MSTORE PUSH2 0x1095 DUP2 DUP6 PUSH2 0xEFE JUMP JUMPDEST SWAP1 POP PUSH2 0x10A4 PUSH1 0x60 DUP4 ADD DUP5 PUSH2 0xEA7 JUMP JUMPDEST SWAP6 SWAP5 POP POP POP POP POP JUMP JUMPDEST PUSH1 0x0 PUSH1 0x60 DUP3 ADD SWAP1 POP PUSH2 0x10C2 PUSH1 0x0 DUP4 ADD DUP7 PUSH2 0xEA7 JUMP JUMPDEST PUSH2 0x10CF PUSH1 0x20 DUP4 ADD DUP6 PUSH2 0xFFD JUMP JUMPDEST PUSH2 0x10DC PUSH1 0x40 DUP4 ADD DUP5 PUSH2 0xFFD JUMP JUMPDEST SWAP5 SWAP4 POP POP POP POP JUMP JUMPDEST PUSH1 0x0 PUSH1 0x20 DUP3 ADD SWAP1 POP PUSH2 0x10F9 PUSH1 0x0 DUP4 ADD DUP5 PUSH2 0xEB6 JUMP JUMPDEST SWAP3 SWAP2 POP POP JUMP JUMPDEST PUSH1 0x0 PUSH1 0x40 DUP3 ADD SWAP1 POP PUSH2 0x1114 PUSH1 0x0 DUP4 ADD DUP6 PUSH2 0xFFD JUMP JUMPDEST PUSH2 0x1121 PUSH1 0x20 DUP4 ADD DUP5 PUSH2 0xEA7 JUMP JUMPDEST SWAP4 SWAP3 POP POP POP JUMP JUMPDEST PUSH1 0x0 PUSH1 0xC0 DUP3 ADD SWAP1 POP PUSH2 0x113D PUSH1 0x0 DUP4 ADD DUP10 PUSH2 0xFFD JUMP JUMPDEST PUSH2 0x114A PUSH1 0x20 DUP4 ADD DUP9 PUSH2 0xEA7 JUMP JUMPDEST PUSH2 0x1157 PUSH1 0x40 DUP4 ADD DUP8 PUSH2 0xFFD JUMP JUMPDEST DUP2 DUP2 SUB PUSH1 0x60 DUP4 ADD MSTORE PUSH2 0x1169 DUP2 DUP7 PUSH2 0xEC5 JUMP JUMPDEST SWAP1 POP PUSH2 0x1178 PUSH1 0x80 DUP4 ADD DUP6 PUSH2 0xFFD JUMP JUMPDEST PUSH2 0x1185 PUSH1 0xA0 DUP4 ADD DUP5 PUSH2 0xEB6 JUMP JUMPDEST SWAP8 SWAP7 POP POP POP POP POP POP POP JUMP JUMPDEST PUSH1 0x0 PUSH2 0x119A PUSH2 0x11AB JUMP JUMPDEST SWAP1 POP PUSH2 0x11A6 DUP3 DUP3 PUSH2 0x1308 JUMP JUMPDEST SWAP2 SWAP1 POP JUMP JUMPDEST PUSH1 0x0 PUSH1 0x40 MLOAD SWAP1 POP SWAP1 JUMP JUMPDEST PUSH1 0x0 PUSH8 0xFFFFFFFFFFFFFFFF DUP3 GT ISZERO PUSH2 0x11D0 JUMPI PUSH2 0x11CF PUSH2 0x13E0 JUMP JUMPDEST JUMPDEST PUSH2 0x11D9 DUP3 PUSH2 0x1423 JUMP JUMPDEST SWAP1 POP PUSH1 0x20 DUP2 ADD SWAP1 POP SWAP2 SWAP1 POP JUMP JUMPDEST PUSH1 0x0 DUP2 SWAP1 POP DUP2 PUSH1 0x0 MSTORE PUSH1 0x20 PUSH1 0x0 KECCAK256 SWAP1 POP SWAP2 SWAP1 POP JUMP JUMPDEST PUSH1 0x0 DUP2 MLOAD SWAP1 POP SWAP2 SWAP1 POP JUMP JUMPDEST PUSH1 0x0 DUP3 DUP3 MSTORE PUSH1 0x20 DUP3 ADD SWAP1 POP SWAP3 SWAP2 POP POP JUMP JUMPDEST PUSH1 0x0 DUP2 SWAP1 POP SWAP3 SWAP2 POP POP JUMP JUMPDEST PUSH1 0x0 PUSH2 0x122D DUP3 PUSH2 0x1240 JUMP JUMPDEST SWAP1 POP SWAP2 SWAP1 POP JUMP JUMPDEST PUSH1 0x0 DUP2 ISZERO ISZERO SWAP1 POP SWAP2 SWAP1 POP JUMP JUMPDEST PUSH1 0x0 PUSH20 0xFFFFFFFFFFFFFFFFFFFFFFFFFFFFFFFFFFFFFFFF DUP3 AND SWAP1 POP SWAP2 SWAP1 POP JUMP JUMPDEST PUSH1 0x0 DUP2 SWAP1 POP SWAP2 SWAP1 POP JUMP JUMPDEST DUP3 DUP2 DUP4 CALLDATACOPY PUSH1 0x0 DUP4 DUP4 ADD MSTORE POP POP POP JUMP JUMPDEST PUSH1 0x0 JUMPDEST DUP4 DUP2 LT ISZERO PUSH2 0x1297 JUMPI DUP1 DUP3 ADD MLOAD DUP2 DUP5 ADD MSTORE PUSH1 0x20 DUP2 ADD SWAP1 POP PUSH2 0x127C JUMP JUMPDEST DUP4 DUP2 GT ISZERO PUSH2 0x12A6 JUMPI PUSH1 0x0 DUP5 DUP5 ADD MSTORE JUMPDEST POP POP POP POP JUMP JUMPDEST PUSH1 0x0 PUSH2 0x12B7 DUP3 PUSH2 0x1260 JUMP JUMPDEST SWAP2 POP PUSH1 0x0 DUP3 EQ ISZERO PUSH2 0x12CB JUMPI PUSH2 0x12CA PUSH2 0x1382 JUMP JUMPDEST JUMPDEST PUSH1 0x1 DUP3 SUB SWAP1 POP SWAP2 SWAP1 POP JUMP JUMPDEST PUSH1 0x0 PUSH1 0x2 DUP3 DIV SWAP1 POP PUSH1 0x1 DUP3 AND DUP1 PUSH2 0x12EE JUMPI PUSH1 0x7F DUP3 AND SWAP2 POP JUMPDEST PUSH1 0x20 DUP3 LT DUP2 EQ ISZERO PUSH2 0x1302 JUMPI PUSH2 0x1301 PUSH2 0x13B1 JUMP JUMPDEST JUMPDEST POP SWAP2 SWAP1 POP JUMP JUMPDEST PUSH2 0x1311 DUP3 PUSH2 0x1423 JUMP JUMPDEST DUP2 ADD DUP2 DUP2 LT PUSH8 0xFFFFFFFFFFFFFFFF DUP3 GT OR ISZERO PUSH2 0x1330 JUMPI PUSH2 0x132F PUSH2 0x13E0 JUMP JUMPDEST JUMPDEST DUP1 PUSH1 0x40 MSTORE POP POP POP JUMP JUMPDEST PUSH1 0x0 PUSH2 0x1344 DUP3 PUSH2 0x1260 JUMP JUMPDEST SWAP2 POP PUSH32 0xFFFFFFFFFFFFFFFFFFFFFFFFFFFFFFFFFFFFFFFFFFFFFFFFFFFFFFFFFFFFFFFF DUP3 EQ ISZERO PUSH2 0x1377 JUMPI PUSH2 0x1376 PUSH2 0x1382 JUMP JUMPDEST JUMPDEST PUSH1 0x1 DUP3 ADD SWAP1 POP SWAP2 SWAP1 POP JUMP JUMPDEST PUSH32 0x4E487B7100000000000000000000000000000000000000000000000000000000 PUSH1 0x0 MSTORE PUSH1 0x11 PUSH1 0x4 MSTORE PUSH1 0x24 PUSH1 0x0 REVERT JUMPDEST PUSH32 0x4E487B7100000000000000000000000000000000000000000000000000000000 PUSH1 0x0 MSTORE PUSH1 0x22 PUSH1 0x4 MSTORE PUSH1 0x24 PUSH1 0x0 REVERT JUMPDEST PUSH32 0x4E487B7100000000000000000000000000000000000000000000000000000000 PUSH1 0x0 MSTORE PUSH1 0x41 PUSH1 0x4 MSTORE PUSH1 0x24 PUSH1 0x0 REVERT JUMPDEST PUSH1 0x0 DUP1 REVERT JUMPDEST PUSH1 0x0 DUP1 REVERT JUMPDEST PUSH1 0x0 DUP1 REVERT JUMPDEST PUSH1 0x0 DUP1 REVERT JUMPDEST PUSH1 0x0 PUSH1 0x1F NOT PUSH1 0x1F DUP4 ADD AND SWAP1 POP SWAP2 SWAP1 POP JUMP JUMPDEST PUSH2 0x143D DUP2 PUSH2 0x1222 JUMP JUMPDEST DUP2 EQ PUSH2 0x1448 JUMPI PUSH1 0x0 DUP1 REVERT JUMPDEST POP JUMP JUMPDEST PUSH2 0x1454 DUP2 PUSH2 0x1260 JUMP JUMPDEST DUP2 EQ PUSH2 0x145F JUMPI PUSH1 0x0 DUP1 REVERT JUMPDEST POP JUMP INVALID LOG2 PUSH5 0x6970667358 0x22 SLT KECCAK256 PUSH11 0xFAD5EF70498BFEABDB5239 MSTORE 0xC6 0xA6 0xDB MUL ADD DUP12 0xAB RETURNDATACOPY PUSH18 0x780B3FC9826FBFF1E66664736F6C63430008 SMOD STOP CALLER "
				},
				"gasEstimates": {
					"creation": {
						"codeDepositCost": "1054400",
						"executionCost": "infinite",
						"totalCost": "infinite"
					},
					"external": {
						"approveTx(uint256)": "infinite",
						"approved(uint256,address)": "3109",
						"executeTx(uint256)": "infinite",
						"isOwner(address)": "2868",
						"revokeTx(uint256)": "infinite",
						"submitTx(address,uint256,bytes)": "infinite",
						"transactions(uint256)": "infinite"
					}
				},
				"methodIdentifiers": {
					"approveTx(uint256)": "1087393a",
					"approved(uint256,address)": "8253951a",
					"executeTx(uint256)": "54b5fe80",
					"isOwner(address)": "2f54bf6e",
					"revokeTx(uint256)": "5986aaca",
					"submitTx(address,uint256,bytes)": "bb84c5a9",
					"transactions(uint256)": "9ace38c2"
				}
			},
			"storageLayout": {
				"storage": [
					{
						"astId": 57,
						"contract": "bootcamp/week2/MultiSigWallet.sol:MultiSigWallet",
						"label": "isOwner",
						"offset": 0,
						"slot": "0",
						"type": "t_mapping(t_address,t_bool)"
					},
					{
						"astId": 75,
						"contract": "bootcamp/week2/MultiSigWallet.sol:MultiSigWallet",
						"label": "transactions",
						"offset": 0,
						"slot": "1",
						"type": "t_mapping(t_uint256,t_struct(Transaction)70_storage)"
					},
					{
						"astId": 81,
						"contract": "bootcamp/week2/MultiSigWallet.sol:MultiSigWallet",
						"label": "approved",
						"offset": 0,
						"slot": "2",
						"type": "t_mapping(t_uint256,t_mapping(t_address,t_bool))"
					},
					{
						"astId": 83,
						"contract": "bootcamp/week2/MultiSigWallet.sol:MultiSigWallet",
						"label": "required",
						"offset": 0,
						"slot": "3",
						"type": "t_uint256"
					},
					{
						"astId": 85,
						"contract": "bootcamp/week2/MultiSigWallet.sol:MultiSigWallet",
						"label": "txId",
						"offset": 0,
						"slot": "4",
						"type": "t_uint256"
					}
				],
				"types": {
					"t_address": {
						"encoding": "inplace",
						"label": "address",
						"numberOfBytes": "20"
					},
					"t_bool": {
						"encoding": "inplace",
						"label": "bool",
						"numberOfBytes": "1"
					},
					"t_bytes_storage": {
						"encoding": "bytes",
						"label": "bytes",
						"numberOfBytes": "32"
					},
					"t_mapping(t_address,t_bool)": {
						"encoding": "mapping",
						"key": "t_address",
						"label": "mapping(address => bool)",
						"numberOfBytes": "32",
						"value": "t_bool"
					},
					"t_mapping(t_uint256,t_mapping(t_address,t_bool))": {
						"encoding": "mapping",
						"key": "t_uint256",
						"label": "mapping(uint256 => mapping(address => bool))",
						"numberOfBytes": "32",
						"value": "t_mapping(t_address,t_bool)"
					},
					"t_mapping(t_uint256,t_struct(Transaction)70_storage)": {
						"encoding": "mapping",
						"key": "t_uint256",
						"label": "mapping(uint256 => struct MultiSigWallet.Transaction)",
						"numberOfBytes": "32",
						"value": "t_struct(Transaction)70_storage"
					},
					"t_struct(Transaction)70_storage": {
						"encoding": "inplace",
						"label": "struct MultiSigWallet.Transaction",
						"members": [
							{
								"astId": 59,
								"contract": "bootcamp/week2/MultiSigWallet.sol:MultiSigWallet",
								"label": "id",
								"offset": 0,
								"slot": "0",
								"type": "t_uint256"
							},
							{
								"astId": 61,
								"contract": "bootcamp/week2/MultiSigWallet.sol:MultiSigWallet",
								"label": "to",
								"offset": 0,
								"slot": "1",
								"type": "t_address"
							},
							{
								"astId": 63,
								"contract": "bootcamp/week2/MultiSigWallet.sol:MultiSigWallet",
								"label": "value",
								"offset": 0,
								"slot": "2",
								"type": "t_uint256"
							},
							{
								"astId": 65,
								"contract": "bootcamp/week2/MultiSigWallet.sol:MultiSigWallet",
								"label": "data",
								"offset": 0,
								"slot": "3",
								"type": "t_bytes_storage"
							},
							{
								"astId": 67,
								"contract": "bootcamp/week2/MultiSigWallet.sol:MultiSigWallet",
								"label": "confirmations",
								"offset": 0,
								"slot": "4",
								"type": "t_uint256"
							},
							{
								"astId": 69,
								"contract": "bootcamp/week2/MultiSigWallet.sol:MultiSigWallet",
								"label": "executed",
								"offset": 0,
								"slot": "5",
								"type": "t_bool"
							}
						],
						"numberOfBytes": "192"
					},
					"t_uint256": {
						"encoding": "inplace",
						"label": "uint256",
						"numberOfBytes": "32"
					}
				}
			},
			"userdoc": {
				"kind": "user",
				"methods": {},
				"version": 1
			}
		}
	}
}