{
	"bootcamp/week2/MultiSigWallet.sol": {
		"MultiSigWallet": {
			"abi": [
				{
					"inputs": [
						{
							"internalType": "uint256",
							"name": "_required",
							"type": "uint256"
						},
						{
							"internalType": "address[]",
							"name": "_owners",
							"type": "address[]"
						}
					],
					"stateMutability": "nonpayable",
					"type": "constructor"
				},
				{
					"inputs": [],
					"name": "AlreadyOwner",
					"type": "error"
				},
				{
					"inputs": [],
					"name": "NotOwner",
					"type": "error"
				},
				{
					"inputs": [],
					"name": "OwnerNotAlreadyApproved",
					"type": "error"
				},
				{
					"inputs": [],
					"name": "invalidRequired",
					"type": "error"
				},
				{
					"inputs": [],
					"name": "txAlreadyApproved",
					"type": "error"
				},
				{
					"inputs": [],
					"name": "txAlreadyExecuted",
					"type": "error"
				},
				{
					"inputs": [],
					"name": "txDoesNotExist",
					"type": "error"
				},
				{
					"anonymous": false,
					"inputs": [
						{
							"indexed": false,
							"internalType": "address",
							"name": "sender",
							"type": "address"
						},
						{
							"indexed": false,
							"internalType": "uint256",
							"name": "value",
							"type": "uint256"
						},
						{
							"indexed": false,
							"internalType": "uint256",
							"name": "balance",
							"type": "uint256"
						}
					],
					"name": "Deposit",
					"type": "event"
				},
				{
					"inputs": [
						{
							"internalType": "uint256",
							"name": "_txId",
							"type": "uint256"
						}
					],
					"name": "approveTx",
					"outputs": [],
					"stateMutability": "nonpayable",
					"type": "function"
				},
				{
					"inputs": [
						{
							"internalType": "uint256",
							"name": "",
							"type": "uint256"
						},
						{
							"internalType": "address",
							"name": "",
							"type": "address"
						}
					],
					"name": "approved",
					"outputs": [
						{
							"internalType": "bool",
							"name": "",
							"type": "bool"
						}
					],
					"stateMutability": "view",
					"type": "function"
				},
				{
					"inputs": [],
					"name": "executeTx",
					"outputs": [],
					"stateMutability": "nonpayable",
					"type": "function"
				},
				{
					"inputs": [
						{
							"internalType": "address",
							"name": "",
							"type": "address"
						}
					],
					"name": "isOwner",
					"outputs": [
						{
							"internalType": "bool",
							"name": "",
							"type": "bool"
						}
					],
					"stateMutability": "view",
					"type": "function"
				},
				{
					"inputs": [],
					"name": "required",
					"outputs": [
						{
							"internalType": "uint256",
							"name": "",
							"type": "uint256"
						}
					],
					"stateMutability": "view",
					"type": "function"
				},
				{
					"inputs": [
						{
							"internalType": "uint256",
							"name": "_txId",
							"type": "uint256"
						}
					],
					"name": "revokeTx",
					"outputs": [],
					"stateMutability": "nonpayable",
					"type": "function"
				},
				{
					"inputs": [
						{
							"internalType": "address",
							"name": "_to",
							"type": "address"
						},
						{
							"internalType": "uint256",
							"name": "_value",
							"type": "uint256"
						},
						{
							"internalType": "bytes",
							"name": "_data",
							"type": "bytes"
						}
					],
					"name": "submitTx",
					"outputs": [],
					"stateMutability": "nonpayable",
					"type": "function"
				},
				{
					"inputs": [
						{
							"internalType": "uint256",
							"name": "",
							"type": "uint256"
						}
					],
					"name": "transactions",
					"outputs": [
						{
							"internalType": "uint256",
							"name": "id",
							"type": "uint256"
						},
						{
							"internalType": "address",
							"name": "to",
							"type": "address"
						},
						{
							"internalType": "uint256",
							"name": "value",
							"type": "uint256"
						},
						{
							"internalType": "bytes",
							"name": "data",
							"type": "bytes"
						},
						{
							"internalType": "uint256",
							"name": "confirmations",
							"type": "uint256"
						},
						{
							"internalType": "bool",
							"name": "executed",
							"type": "bool"
						}
					],
					"stateMutability": "view",
					"type": "function"
				},
				{
					"inputs": [],
					"name": "txId",
					"outputs": [
						{
							"internalType": "uint256",
							"name": "",
							"type": "uint256"
						}
					],
					"stateMutability": "view",
					"type": "function"
				},
				{
					"stateMutability": "payable",
					"type": "receive"
				}
			],
			"devdoc": {
				"kind": "dev",
				"methods": {},
				"version": 1
			},
			"evm": {
				"assembly": "    /* \"bootcamp/week2/MultiSigWallet.sol\":234:2668  contract MultiSigWallet {... */\n  mstore(0x40, 0x80)\n    /* \"bootcamp/week2/MultiSigWallet.sol\":1304:1678  constructor (uint256 _required, address[] memory _owners) {... */\n  callvalue\n  dup1\n  iszero\n  tag_1\n  jumpi\n  0x00\n  dup1\n  revert\ntag_1:\n  pop\n  mload(0x40)\n  sub(codesize, bytecodeSize)\n  dup1\n  bytecodeSize\n  dup4\n  codecopy\n  dup2\n  dup2\n  add\n  0x40\n  mstore\n  dup2\n  add\n  swap1\n  tag_2\n  swap2\n  swap1\n  tag_3\n  jump\t// in\ntag_2:\n    /* \"bootcamp/week2/MultiSigWallet.sol\":1388:1395  _owners */\n  dup1\n    /* \"bootcamp/week2/MultiSigWallet.sol\":1388:1402  _owners.length */\n  mload\n    /* \"bootcamp/week2/MultiSigWallet.sol\":1376:1385  _required */\n  dup3\n    /* \"bootcamp/week2/MultiSigWallet.sol\":1376:1402  _required > _owners.length */\n  gt\n    /* \"bootcamp/week2/MultiSigWallet.sol\":1372:1453  if (_required > _owners.length) {... */\n  iszero\n  tag_6\n  jumpi\n    /* \"bootcamp/week2/MultiSigWallet.sol\":1425:1442  invalidRequired() */\n  mload(0x40)\n  0x2730657000000000000000000000000000000000000000000000000000000000\n  dup2\n  mstore\n  0x04\n  add\n  mload(0x40)\n  dup1\n  swap2\n  sub\n  swap1\n  revert\n    /* \"bootcamp/week2/MultiSigWallet.sol\":1372:1453  if (_required > _owners.length) {... */\ntag_6:\n    /* \"bootcamp/week2/MultiSigWallet.sol\":1466:1475  uint256 i */\n  0x00\n    /* \"bootcamp/week2/MultiSigWallet.sol\":1462:1672  for(uint256 i = 0; i < _owners.length; i++) {... */\ntag_7:\n    /* \"bootcamp/week2/MultiSigWallet.sol\":1485:1492  _owners */\n  dup2\n    /* \"bootcamp/week2/MultiSigWallet.sol\":1485:1499  _owners.length */\n  mload\n    /* \"bootcamp/week2/MultiSigWallet.sol\":1481:1482  i */\n  dup2\n    /* \"bootcamp/week2/MultiSigWallet.sol\":1481:1499  i < _owners.length */\n  lt\n    /* \"bootcamp/week2/MultiSigWallet.sol\":1462:1672  for(uint256 i = 0; i < _owners.length; i++) {... */\n  iszero\n  tag_8\n  jumpi\n    /* \"bootcamp/week2/MultiSigWallet.sol\":1520:1533  address owner */\n  0x00\n    /* \"bootcamp/week2/MultiSigWallet.sol\":1536:1543  _owners */\n  dup3\n    /* \"bootcamp/week2/MultiSigWallet.sol\":1544:1545  i */\n  dup3\n    /* \"bootcamp/week2/MultiSigWallet.sol\":1536:1546  _owners[i] */\n  dup2\n  mload\n  dup2\n  lt\n  tag_10\n  jumpi\n  tag_11\n  tag_12\n  jump\t// in\ntag_11:\ntag_10:\n  0x20\n  mul\n  0x20\n  add\n  add\n  mload\n    /* \"bootcamp/week2/MultiSigWallet.sol\":1520:1546  address owner = _owners[i] */\n  swap1\n  pop\n    /* \"bootcamp/week2/MultiSigWallet.sol\":1564:1571  isOwner */\n  0x00\n    /* \"bootcamp/week2/MultiSigWallet.sol\":1564:1578  isOwner[owner] */\n  dup1\n    /* \"bootcamp/week2/MultiSigWallet.sol\":1572:1577  owner */\n  dup3\n    /* \"bootcamp/week2/MultiSigWallet.sol\":1564:1578  isOwner[owner] */\n  0xffffffffffffffffffffffffffffffffffffffff\n  and\n  0xffffffffffffffffffffffffffffffffffffffff\n  and\n  dup2\n  mstore\n  0x20\n  add\n  swap1\n  dup2\n  mstore\n  0x20\n  add\n  0x00\n  keccak256\n  0x00\n  swap1\n  sload\n  swap1\n  0x0100\n  exp\n  swap1\n  div\n  0xff\n  and\n    /* \"bootcamp/week2/MultiSigWallet.sol\":1561:1634  if(isOwner[owner]) {... */\n  iszero\n  tag_13\n  jumpi\n    /* \"bootcamp/week2/MultiSigWallet.sol\":1605:1619  AlreadyOwner() */\n  mload(0x40)\n  0xc0159e0e00000000000000000000000000000000000000000000000000000000\n  dup2\n  mstore\n  0x04\n  add\n  mload(0x40)\n  dup1\n  swap2\n  sub\n  swap1\n  revert\n    /* \"bootcamp/week2/MultiSigWallet.sol\":1561:1634  if(isOwner[owner]) {... */\ntag_13:\n    /* \"bootcamp/week2/MultiSigWallet.sol\":1647:1654  isOwner */\n  0x00\n    /* \"bootcamp/week2/MultiSigWallet.sol\":1647:1661  isOwner[owner] */\n  dup1\n    /* \"bootcamp/week2/MultiSigWallet.sol\":1655:1660  owner */\n  dup3\n    /* \"bootcamp/week2/MultiSigWallet.sol\":1647:1661  isOwner[owner] */\n  0xffffffffffffffffffffffffffffffffffffffff\n  and\n  0xffffffffffffffffffffffffffffffffffffffff\n  and\n  dup2\n  mstore\n  0x20\n  add\n  swap1\n  dup2\n  mstore\n  0x20\n  add\n  0x00\n  keccak256\n  0x00\n  swap1\n  sload\n  swap1\n  0x0100\n  exp\n  swap1\n  pop\n  pop\n    /* \"bootcamp/week2/MultiSigWallet.sol\":1506:1672  {... */\n  pop\n    /* \"bootcamp/week2/MultiSigWallet.sol\":1501:1504  i++ */\n  dup1\n  dup1\n  tag_14\n  swap1\n  tag_15\n  jump\t// in\ntag_14:\n  swap2\n  pop\n  pop\n    /* \"bootcamp/week2/MultiSigWallet.sol\":1462:1672  for(uint256 i = 0; i < _owners.length; i++) {... */\n  jump(tag_7)\ntag_8:\n  pop\n    /* \"bootcamp/week2/MultiSigWallet.sol\":1304:1678  constructor (uint256 _required, address[] memory _owners) {... */\n  pop\n  pop\n    /* \"bootcamp/week2/MultiSigWallet.sol\":234:2668  contract MultiSigWallet {... */\n  jump(tag_16)\n    /* \"#utility.yul\":24:768   */\ntag_18:\n    /* \"#utility.yul\":131:136   */\n  0x00\n    /* \"#utility.yul\":156:237   */\n  tag_20\n    /* \"#utility.yul\":172:236   */\n  tag_21\n    /* \"#utility.yul\":229:235   */\n  dup5\n    /* \"#utility.yul\":172:236   */\n  tag_22\n  jump\t// in\ntag_21:\n    /* \"#utility.yul\":156:237   */\n  tag_23\n  jump\t// in\ntag_20:\n    /* \"#utility.yul\":147:237   */\n  swap1\n  pop\n    /* \"#utility.yul\":257:262   */\n  dup1\n    /* \"#utility.yul\":286:292   */\n  dup4\n    /* \"#utility.yul\":279:284   */\n  dup3\n    /* \"#utility.yul\":272:293   */\n  mstore\n    /* \"#utility.yul\":320:324   */\n  0x20\n    /* \"#utility.yul\":313:318   */\n  dup3\n    /* \"#utility.yul\":309:325   */\n  add\n    /* \"#utility.yul\":302:325   */\n  swap1\n  pop\n    /* \"#utility.yul\":346:352   */\n  dup3\n    /* \"#utility.yul\":396:399   */\n  dup6\n    /* \"#utility.yul\":388:392   */\n  0x20\n    /* \"#utility.yul\":380:386   */\n  dup7\n    /* \"#utility.yul\":376:393   */\n  mul\n    /* \"#utility.yul\":371:374   */\n  dup3\n    /* \"#utility.yul\":367:394   */\n  add\n    /* \"#utility.yul\":364:400   */\n  gt\n    /* \"#utility.yul\":361:504   */\n  iszero\n  tag_24\n  jumpi\n    /* \"#utility.yul\":415:494   */\n  tag_25\n  tag_26\n  jump\t// in\ntag_25:\n    /* \"#utility.yul\":361:504   */\ntag_24:\n    /* \"#utility.yul\":528:529   */\n  0x00\n    /* \"#utility.yul\":513:762   */\ntag_27:\n    /* \"#utility.yul\":538:544   */\n  dup6\n    /* \"#utility.yul\":535:536   */\n  dup2\n    /* \"#utility.yul\":532:545   */\n  lt\n    /* \"#utility.yul\":513:762   */\n  iszero\n  tag_29\n  jumpi\n    /* \"#utility.yul\":606:609   */\n  dup2\n    /* \"#utility.yul\":635:683   */\n  tag_30\n    /* \"#utility.yul\":679:682   */\n  dup9\n    /* \"#utility.yul\":667:677   */\n  dup3\n    /* \"#utility.yul\":635:683   */\n  tag_31\n  jump\t// in\ntag_30:\n    /* \"#utility.yul\":630:633   */\n  dup5\n    /* \"#utility.yul\":623:684   */\n  mstore\n    /* \"#utility.yul\":713:717   */\n  0x20\n    /* \"#utility.yul\":708:711   */\n  dup5\n    /* \"#utility.yul\":704:718   */\n  add\n    /* \"#utility.yul\":697:718   */\n  swap4\n  pop\n    /* \"#utility.yul\":747:751   */\n  0x20\n    /* \"#utility.yul\":742:745   */\n  dup4\n    /* \"#utility.yul\":738:752   */\n  add\n    /* \"#utility.yul\":731:752   */\n  swap3\n  pop\n    /* \"#utility.yul\":573:762   */\n  pop\n    /* \"#utility.yul\":560:561   */\n  0x01\n    /* \"#utility.yul\":557:558   */\n  dup2\n    /* \"#utility.yul\":553:562   */\n  add\n    /* \"#utility.yul\":548:562   */\n  swap1\n  pop\n    /* \"#utility.yul\":513:762   */\n  jump(tag_27)\ntag_29:\n    /* \"#utility.yul\":517:531   */\n  pop\n    /* \"#utility.yul\":137:768   */\n  pop\n  pop\n    /* \"#utility.yul\":24:768   */\n  swap4\n  swap3\n  pop\n  pop\n  pop\n  jump\t// out\n    /* \"#utility.yul\":774:917   */\ntag_31:\n    /* \"#utility.yul\":831:836   */\n  0x00\n    /* \"#utility.yul\":862:868   */\n  dup2\n    /* \"#utility.yul\":856:869   */\n  mload\n    /* \"#utility.yul\":847:869   */\n  swap1\n  pop\n    /* \"#utility.yul\":878:911   */\n  tag_33\n    /* \"#utility.yul\":905:910   */\n  dup2\n    /* \"#utility.yul\":878:911   */\n  tag_34\n  jump\t// in\ntag_33:\n    /* \"#utility.yul\":774:917   */\n  swap3\n  swap2\n  pop\n  pop\n  jump\t// out\n    /* \"#utility.yul\":940:1325   */\ntag_35:\n    /* \"#utility.yul\":1022:1027   */\n  0x00\n    /* \"#utility.yul\":1071:1074   */\n  dup3\n    /* \"#utility.yul\":1064:1068   */\n  0x1f\n    /* \"#utility.yul\":1056:1062   */\n  dup4\n    /* \"#utility.yul\":1052:1069   */\n  add\n    /* \"#utility.yul\":1048:1075   */\n  slt\n    /* \"#utility.yul\":1038:1160   */\n  tag_37\n  jumpi\n    /* \"#utility.yul\":1079:1158   */\n  tag_38\n  tag_39\n  jump\t// in\ntag_38:\n    /* \"#utility.yul\":1038:1160   */\ntag_37:\n    /* \"#utility.yul\":1189:1195   */\n  dup2\n    /* \"#utility.yul\":1183:1196   */\n  mload\n    /* \"#utility.yul\":1214:1319   */\n  tag_40\n    /* \"#utility.yul\":1315:1318   */\n  dup5\n    /* \"#utility.yul\":1307:1313   */\n  dup3\n    /* \"#utility.yul\":1300:1304   */\n  0x20\n    /* \"#utility.yul\":1292:1298   */\n  dup7\n    /* \"#utility.yul\":1288:1305   */\n  add\n    /* \"#utility.yul\":1214:1319   */\n  tag_18\n  jump\t// in\ntag_40:\n    /* \"#utility.yul\":1205:1319   */\n  swap2\n  pop\n    /* \"#utility.yul\":1028:1325   */\n  pop\n    /* \"#utility.yul\":940:1325   */\n  swap3\n  swap2\n  pop\n  pop\n  jump\t// out\n    /* \"#utility.yul\":1331:1474   */\ntag_41:\n    /* \"#utility.yul\":1388:1393   */\n  0x00\n    /* \"#utility.yul\":1419:1425   */\n  dup2\n    /* \"#utility.yul\":1413:1426   */\n  mload\n    /* \"#utility.yul\":1404:1426   */\n  swap1\n  pop\n    /* \"#utility.yul\":1435:1468   */\n  tag_43\n    /* \"#utility.yul\":1462:1467   */\n  dup2\n    /* \"#utility.yul\":1435:1468   */\n  tag_44\n  jump\t// in\ntag_43:\n    /* \"#utility.yul\":1331:1474   */\n  swap3\n  swap2\n  pop\n  pop\n  jump\t// out\n    /* \"#utility.yul\":1480:2190   */\ntag_3:\n    /* \"#utility.yul\":1584:1590   */\n  0x00\n    /* \"#utility.yul\":1592:1598   */\n  dup1\n    /* \"#utility.yul\":1641:1643   */\n  0x40\n    /* \"#utility.yul\":1629:1638   */\n  dup4\n    /* \"#utility.yul\":1620:1627   */\n  dup6\n    /* \"#utility.yul\":1616:1639   */\n  sub\n    /* \"#utility.yul\":1612:1644   */\n  slt\n    /* \"#utility.yul\":1609:1728   */\n  iszero\n  tag_46\n  jumpi\n    /* \"#utility.yul\":1647:1726   */\n  tag_47\n  tag_48\n  jump\t// in\ntag_47:\n    /* \"#utility.yul\":1609:1728   */\ntag_46:\n    /* \"#utility.yul\":1767:1768   */\n  0x00\n    /* \"#utility.yul\":1792:1856   */\n  tag_49\n    /* \"#utility.yul\":1848:1855   */\n  dup6\n    /* \"#utility.yul\":1839:1845   */\n  dup3\n    /* \"#utility.yul\":1828:1837   */\n  dup7\n    /* \"#utility.yul\":1824:1846   */\n  add\n    /* \"#utility.yul\":1792:1856   */\n  tag_41\n  jump\t// in\ntag_49:\n    /* \"#utility.yul\":1782:1856   */\n  swap3\n  pop\n    /* \"#utility.yul\":1738:1866   */\n  pop\n    /* \"#utility.yul\":1926:1928   */\n  0x20\n    /* \"#utility.yul\":1915:1924   */\n  dup4\n    /* \"#utility.yul\":1911:1929   */\n  add\n    /* \"#utility.yul\":1905:1930   */\n  mload\n    /* \"#utility.yul\":1957:1975   */\n  0xffffffffffffffff\n    /* \"#utility.yul\":1949:1955   */\n  dup2\n    /* \"#utility.yul\":1946:1976   */\n  gt\n    /* \"#utility.yul\":1943:2060   */\n  iszero\n  tag_50\n  jumpi\n    /* \"#utility.yul\":1979:2058   */\n  tag_51\n  tag_52\n  jump\t// in\ntag_51:\n    /* \"#utility.yul\":1943:2060   */\ntag_50:\n    /* \"#utility.yul\":2084:2173   */\n  tag_53\n    /* \"#utility.yul\":2165:2172   */\n  dup6\n    /* \"#utility.yul\":2156:2162   */\n  dup3\n    /* \"#utility.yul\":2145:2154   */\n  dup7\n    /* \"#utility.yul\":2141:2163   */\n  add\n    /* \"#utility.yul\":2084:2173   */\n  tag_35\n  jump\t// in\ntag_53:\n    /* \"#utility.yul\":2074:2173   */\n  swap2\n  pop\n    /* \"#utility.yul\":1876:2183   */\n  pop\n    /* \"#utility.yul\":1480:2190   */\n  swap3\n  pop\n  swap3\n  swap1\n  pop\n  jump\t// out\n    /* \"#utility.yul\":2196:2325   */\ntag_23:\n    /* \"#utility.yul\":2230:2236   */\n  0x00\n    /* \"#utility.yul\":2257:2277   */\n  tag_55\n  tag_56\n  jump\t// in\ntag_55:\n    /* \"#utility.yul\":2247:2277   */\n  swap1\n  pop\n    /* \"#utility.yul\":2286:2319   */\n  tag_57\n    /* \"#utility.yul\":2314:2318   */\n  dup3\n    /* \"#utility.yul\":2306:2312   */\n  dup3\n    /* \"#utility.yul\":2286:2319   */\n  tag_58\n  jump\t// in\ntag_57:\n    /* \"#utility.yul\":2196:2325   */\n  swap2\n  swap1\n  pop\n  jump\t// out\n    /* \"#utility.yul\":2331:2406   */\ntag_56:\n    /* \"#utility.yul\":2364:2370   */\n  0x00\n    /* \"#utility.yul\":2397:2399   */\n  0x40\n    /* \"#utility.yul\":2391:2400   */\n  mload\n    /* \"#utility.yul\":2381:2400   */\n  swap1\n  pop\n    /* \"#utility.yul\":2331:2406   */\n  swap1\n  jump\t// out\n    /* \"#utility.yul\":2412:2723   */\ntag_22:\n    /* \"#utility.yul\":2489:2493   */\n  0x00\n    /* \"#utility.yul\":2579:2597   */\n  0xffffffffffffffff\n    /* \"#utility.yul\":2571:2577   */\n  dup3\n    /* \"#utility.yul\":2568:2598   */\n  gt\n    /* \"#utility.yul\":2565:2621   */\n  iszero\n  tag_61\n  jumpi\n    /* \"#utility.yul\":2601:2619   */\n  tag_62\n  tag_63\n  jump\t// in\ntag_62:\n    /* \"#utility.yul\":2565:2621   */\ntag_61:\n    /* \"#utility.yul\":2651:2655   */\n  0x20\n    /* \"#utility.yul\":2643:2649   */\n  dup3\n    /* \"#utility.yul\":2639:2656   */\n  mul\n    /* \"#utility.yul\":2631:2656   */\n  swap1\n  pop\n    /* \"#utility.yul\":2711:2715   */\n  0x20\n    /* \"#utility.yul\":2705:2709   */\n  dup2\n    /* \"#utility.yul\":2701:2716   */\n  add\n    /* \"#utility.yul\":2693:2716   */\n  swap1\n  pop\n    /* \"#utility.yul\":2412:2723   */\n  swap2\n  swap1\n  pop\n  jump\t// out\n    /* \"#utility.yul\":2729:2825   */\ntag_64:\n    /* \"#utility.yul\":2766:2773   */\n  0x00\n    /* \"#utility.yul\":2795:2819   */\n  tag_66\n    /* \"#utility.yul\":2813:2818   */\n  dup3\n    /* \"#utility.yul\":2795:2819   */\n  tag_67\n  jump\t// in\ntag_66:\n    /* \"#utility.yul\":2784:2819   */\n  swap1\n  pop\n    /* \"#utility.yul\":2729:2825   */\n  swap2\n  swap1\n  pop\n  jump\t// out\n    /* \"#utility.yul\":2831:2957   */\ntag_67:\n    /* \"#utility.yul\":2868:2875   */\n  0x00\n    /* \"#utility.yul\":2908:2950   */\n  0xffffffffffffffffffffffffffffffffffffffff\n    /* \"#utility.yul\":2901:2906   */\n  dup3\n    /* \"#utility.yul\":2897:2951   */\n  and\n    /* \"#utility.yul\":2886:2951   */\n  swap1\n  pop\n    /* \"#utility.yul\":2831:2957   */\n  swap2\n  swap1\n  pop\n  jump\t// out\n    /* \"#utility.yul\":2963:3040   */\ntag_69:\n    /* \"#utility.yul\":3000:3007   */\n  0x00\n    /* \"#utility.yul\":3029:3034   */\n  dup2\n    /* \"#utility.yul\":3018:3034   */\n  swap1\n  pop\n    /* \"#utility.yul\":2963:3040   */\n  swap2\n  swap1\n  pop\n  jump\t// out\n    /* \"#utility.yul\":3046:3327   */\ntag_58:\n    /* \"#utility.yul\":3129:3156   */\n  tag_72\n    /* \"#utility.yul\":3151:3155   */\n  dup3\n    /* \"#utility.yul\":3129:3156   */\n  tag_73\n  jump\t// in\ntag_72:\n    /* \"#utility.yul\":3121:3127   */\n  dup2\n    /* \"#utility.yul\":3117:3157   */\n  add\n    /* \"#utility.yul\":3259:3265   */\n  dup2\n    /* \"#utility.yul\":3247:3257   */\n  dup2\n    /* \"#utility.yul\":3244:3266   */\n  lt\n    /* \"#utility.yul\":3223:3241   */\n  0xffffffffffffffff\n    /* \"#utility.yul\":3211:3221   */\n  dup3\n    /* \"#utility.yul\":3208:3242   */\n  gt\n    /* \"#utility.yul\":3205:3267   */\n  or\n    /* \"#utility.yul\":3202:3290   */\n  iszero\n  tag_74\n  jumpi\n    /* \"#utility.yul\":3270:3288   */\n  tag_75\n  tag_63\n  jump\t// in\ntag_75:\n    /* \"#utility.yul\":3202:3290   */\ntag_74:\n    /* \"#utility.yul\":3310:3320   */\n  dup1\n    /* \"#utility.yul\":3306:3308   */\n  0x40\n    /* \"#utility.yul\":3299:3321   */\n  mstore\n    /* \"#utility.yul\":3089:3327   */\n  pop\n    /* \"#utility.yul\":3046:3327   */\n  pop\n  pop\n  jump\t// out\n    /* \"#utility.yul\":3333:3566   */\ntag_15:\n    /* \"#utility.yul\":3372:3375   */\n  0x00\n    /* \"#utility.yul\":3395:3419   */\n  tag_77\n    /* \"#utility.yul\":3413:3418   */\n  dup3\n    /* \"#utility.yul\":3395:3419   */\n  tag_69\n  jump\t// in\ntag_77:\n    /* \"#utility.yul\":3386:3419   */\n  swap2\n  pop\n    /* \"#utility.yul\":3441:3507   */\n  0xffffffffffffffffffffffffffffffffffffffffffffffffffffffffffffffff\n    /* \"#utility.yul\":3434:3439   */\n  dup3\n    /* \"#utility.yul\":3431:3508   */\n  eq\n    /* \"#utility.yul\":3428:3531   */\n  iszero\n  tag_78\n  jumpi\n    /* \"#utility.yul\":3511:3529   */\n  tag_79\n  tag_80\n  jump\t// in\ntag_79:\n    /* \"#utility.yul\":3428:3531   */\ntag_78:\n    /* \"#utility.yul\":3558:3559   */\n  0x01\n    /* \"#utility.yul\":3551:3556   */\n  dup3\n    /* \"#utility.yul\":3547:3560   */\n  add\n    /* \"#utility.yul\":3540:3560   */\n  swap1\n  pop\n    /* \"#utility.yul\":3333:3566   */\n  swap2\n  swap1\n  pop\n  jump\t// out\n    /* \"#utility.yul\":3572:3752   */\ntag_80:\n    /* \"#utility.yul\":3620:3697   */\n  0x4e487b7100000000000000000000000000000000000000000000000000000000\n    /* \"#utility.yul\":3617:3618   */\n  0x00\n    /* \"#utility.yul\":3610:3698   */\n  mstore\n    /* \"#utility.yul\":3717:3721   */\n  0x11\n    /* \"#utility.yul\":3714:3715   */\n  0x04\n    /* \"#utility.yul\":3707:3722   */\n  mstore\n    /* \"#utility.yul\":3741:3745   */\n  0x24\n    /* \"#utility.yul\":3738:3739   */\n  0x00\n    /* \"#utility.yul\":3731:3746   */\n  revert\n    /* \"#utility.yul\":3758:3938   */\ntag_12:\n    /* \"#utility.yul\":3806:3883   */\n  0x4e487b7100000000000000000000000000000000000000000000000000000000\n    /* \"#utility.yul\":3803:3804   */\n  0x00\n    /* \"#utility.yul\":3796:3884   */\n  mstore\n    /* \"#utility.yul\":3903:3907   */\n  0x32\n    /* \"#utility.yul\":3900:3901   */\n  0x04\n    /* \"#utility.yul\":3893:3908   */\n  mstore\n    /* \"#utility.yul\":3927:3931   */\n  0x24\n    /* \"#utility.yul\":3924:3925   */\n  0x00\n    /* \"#utility.yul\":3917:3932   */\n  revert\n    /* \"#utility.yul\":3944:4124   */\ntag_63:\n    /* \"#utility.yul\":3992:4069   */\n  0x4e487b7100000000000000000000000000000000000000000000000000000000\n    /* \"#utility.yul\":3989:3990   */\n  0x00\n    /* \"#utility.yul\":3982:4070   */\n  mstore\n    /* \"#utility.yul\":4089:4093   */\n  0x41\n    /* \"#utility.yul\":4086:4087   */\n  0x04\n    /* \"#utility.yul\":4079:4094   */\n  mstore\n    /* \"#utility.yul\":4113:4117   */\n  0x24\n    /* \"#utility.yul\":4110:4111   */\n  0x00\n    /* \"#utility.yul\":4103:4118   */\n  revert\n    /* \"#utility.yul\":4130:4247   */\ntag_39:\n    /* \"#utility.yul\":4239:4240   */\n  0x00\n    /* \"#utility.yul\":4236:4237   */\n  dup1\n    /* \"#utility.yul\":4229:4241   */\n  revert\n    /* \"#utility.yul\":4253:4370   */\ntag_26:\n    /* \"#utility.yul\":4362:4363   */\n  0x00\n    /* \"#utility.yul\":4359:4360   */\n  dup1\n    /* \"#utility.yul\":4352:4364   */\n  revert\n    /* \"#utility.yul\":4376:4493   */\ntag_52:\n    /* \"#utility.yul\":4485:4486   */\n  0x00\n    /* \"#utility.yul\":4482:4483   */\n  dup1\n    /* \"#utility.yul\":4475:4487   */\n  revert\n    /* \"#utility.yul\":4499:4616   */\ntag_48:\n    /* \"#utility.yul\":4608:4609   */\n  0x00\n    /* \"#utility.yul\":4605:4606   */\n  dup1\n    /* \"#utility.yul\":4598:4610   */\n  revert\n    /* \"#utility.yul\":4622:4724   */\ntag_73:\n    /* \"#utility.yul\":4663:4669   */\n  0x00\n    /* \"#utility.yul\":4714:4716   */\n  0x1f\n    /* \"#utility.yul\":4710:4717   */\n  not\n    /* \"#utility.yul\":4705:4707   */\n  0x1f\n    /* \"#utility.yul\":4698:4703   */\n  dup4\n    /* \"#utility.yul\":4694:4708   */\n  add\n    /* \"#utility.yul\":4690:4718   */\n  and\n    /* \"#utility.yul\":4680:4718   */\n  swap1\n  pop\n    /* \"#utility.yul\":4622:4724   */\n  swap2\n  swap1\n  pop\n  jump\t// out\n    /* \"#utility.yul\":4730:4852   */\ntag_34:\n    /* \"#utility.yul\":4803:4827   */\n  tag_90\n    /* \"#utility.yul\":4821:4826   */\n  dup2\n    /* \"#utility.yul\":4803:4827   */\n  tag_64\n  jump\t// in\ntag_90:\n    /* \"#utility.yul\":4796:4801   */\n  dup2\n    /* \"#utility.yul\":4793:4828   */\n  eq\n    /* \"#utility.yul\":4783:4846   */\n  tag_91\n  jumpi\n    /* \"#utility.yul\":4842:4843   */\n  0x00\n    /* \"#utility.yul\":4839:4840   */\n  dup1\n    /* \"#utility.yul\":4832:4844   */\n  revert\n    /* \"#utility.yul\":4783:4846   */\ntag_91:\n    /* \"#utility.yul\":4730:4852   */\n  pop\n  jump\t// out\n    /* \"#utility.yul\":4858:4980   */\ntag_44:\n    /* \"#utility.yul\":4931:4955   */\n  tag_93\n    /* \"#utility.yul\":4949:4954   */\n  dup2\n    /* \"#utility.yul\":4931:4955   */\n  tag_69\n  jump\t// in\ntag_93:\n    /* \"#utility.yul\":4924:4929   */\n  dup2\n    /* \"#utility.yul\":4921:4956   */\n  eq\n    /* \"#utility.yul\":4911:4974   */\n  tag_94\n  jumpi\n    /* \"#utility.yul\":4970:4971   */\n  0x00\n    /* \"#utility.yul\":4967:4968   */\n  dup1\n    /* \"#utility.yul\":4960:4972   */\n  revert\n    /* \"#utility.yul\":4911:4974   */\ntag_94:\n    /* \"#utility.yul\":4858:4980   */\n  pop\n  jump\t// out\n    /* \"bootcamp/week2/MultiSigWallet.sol\":234:2668  contract MultiSigWallet {... */\ntag_16:\n  dataSize(sub_0)\n  dup1\n  dataOffset(sub_0)\n  0x00\n  codecopy\n  0x00\n  return\nstop\n\nsub_0: assembly {\n        /* \"bootcamp/week2/MultiSigWallet.sol\":234:2668  contract MultiSigWallet {... */\n      mstore(0x40, 0x80)\n      jumpi(tag_1, lt(calldatasize, 0x04))\n      shr(0xe0, calldataload(0x00))\n      dup1\n      0x9ace38c2\n      gt\n      tag_12\n      jumpi\n      dup1\n      0x9ace38c2\n      eq\n      tag_7\n      jumpi\n      dup1\n      0xbb84c5a9\n      eq\n      tag_8\n      jumpi\n      dup1\n      0xcd568d1f\n      eq\n      tag_9\n      jumpi\n      dup1\n      0xdc8452cd\n      eq\n      tag_10\n      jumpi\n      dup1\n      0xe23fc3ce\n      eq\n      tag_11\n      jumpi\n      jump(tag_2)\n    tag_12:\n      dup1\n      0x1087393a\n      eq\n      tag_3\n      jumpi\n      dup1\n      0x2f54bf6e\n      eq\n      tag_4\n      jumpi\n      dup1\n      0x5986aaca\n      eq\n      tag_5\n      jumpi\n      dup1\n      0x8253951a\n      eq\n      tag_6\n      jumpi\n      jump(tag_2)\n    tag_1:\n      jumpi(tag_2, calldatasize)\n        /* \"bootcamp/week2/MultiSigWallet.sol\":1726:1779  Deposit(msg.sender, msg.value, address(this).balance) */\n      0x90890809c654f11d6e72a28fa60149770a0d11ec6c92319d6ceb2bb0a4ea1a15\n        /* \"bootcamp/week2/MultiSigWallet.sol\":1734:1744  msg.sender */\n      caller\n        /* \"bootcamp/week2/MultiSigWallet.sol\":1746:1755  msg.value */\n      callvalue\n        /* \"bootcamp/week2/MultiSigWallet.sol\":1757:1778  address(this).balance */\n      selfbalance\n        /* \"bootcamp/week2/MultiSigWallet.sol\":1726:1779  Deposit(msg.sender, msg.value, address(this).balance) */\n      mload(0x40)\n      tag_15\n      swap4\n      swap3\n      swap2\n      swap1\n      tag_16\n      jump\t// in\n    tag_15:\n      mload(0x40)\n      dup1\n      swap2\n      sub\n      swap1\n      log1\n        /* \"bootcamp/week2/MultiSigWallet.sol\":234:2668  contract MultiSigWallet {... */\n      stop\n    tag_2:\n      0x00\n      dup1\n      revert\n        /* \"bootcamp/week2/MultiSigWallet.sol\":2100:2304  function approveTx(uint256 _txId) external onlyOwner txExists(_txId) notExecuted(_txId) notConfirmed(_txId) {... */\n    tag_3:\n      callvalue\n      dup1\n      iszero\n      tag_17\n      jumpi\n      0x00\n      dup1\n      revert\n    tag_17:\n      pop\n      tag_18\n      0x04\n      dup1\n      calldatasize\n      sub\n      dup2\n      add\n      swap1\n      tag_19\n      swap2\n      swap1\n      tag_20\n      jump\t// in\n    tag_19:\n      tag_21\n      jump\t// in\n    tag_18:\n      stop\n        /* \"bootcamp/week2/MultiSigWallet.sol\":333:373  mapping (address => bool) public isOwner */\n    tag_4:\n      callvalue\n      dup1\n      iszero\n      tag_22\n      jumpi\n      0x00\n      dup1\n      revert\n    tag_22:\n      pop\n      tag_23\n      0x04\n      dup1\n      calldatasize\n      sub\n      dup2\n      add\n      swap1\n      tag_24\n      swap2\n      swap1\n      tag_25\n      jump\t// in\n    tag_24:\n      tag_26\n      jump\t// in\n    tag_23:\n      mload(0x40)\n      tag_27\n      swap2\n      swap1\n      tag_28\n      jump\t// in\n    tag_27:\n      mload(0x40)\n      dup1\n      swap2\n      sub\n      swap1\n      return\n        /* \"bootcamp/week2/MultiSigWallet.sol\":2358:2666  function revokeTx(uint256 _txId) external onlyOwner txExists(_txId) notExecuted(_txId) {... */\n    tag_5:\n      callvalue\n      dup1\n      iszero\n      tag_29\n      jumpi\n      0x00\n      dup1\n      revert\n    tag_29:\n      pop\n      tag_30\n      0x04\n      dup1\n      calldatasize\n      sub\n      dup2\n      add\n      swap1\n      tag_31\n      swap2\n      swap1\n      tag_20\n      jump\t// in\n    tag_31:\n      tag_32\n      jump\t// in\n    tag_30:\n      stop\n        /* \"bootcamp/week2/MultiSigWallet.sol\":606:666  mapping(uint256 => mapping(address => bool)) public approved */\n    tag_6:\n      callvalue\n      dup1\n      iszero\n      tag_33\n      jumpi\n      0x00\n      dup1\n      revert\n    tag_33:\n      pop\n      tag_34\n      0x04\n      dup1\n      calldatasize\n      sub\n      dup2\n      add\n      swap1\n      tag_35\n      swap2\n      swap1\n      tag_36\n      jump\t// in\n    tag_35:\n      tag_37\n      jump\t// in\n    tag_34:\n      mload(0x40)\n      tag_38\n      swap2\n      swap1\n      tag_28\n      jump\t// in\n    tag_38:\n      mload(0x40)\n      dup1\n      swap2\n      sub\n      swap1\n      return\n        /* \"bootcamp/week2/MultiSigWallet.sol\":549:600  mapping(uint256 => Transaction) public transactions */\n    tag_7:\n      callvalue\n      dup1\n      iszero\n      tag_39\n      jumpi\n      0x00\n      dup1\n      revert\n    tag_39:\n      pop\n      tag_40\n      0x04\n      dup1\n      calldatasize\n      sub\n      dup2\n      add\n      swap1\n      tag_41\n      swap2\n      swap1\n      tag_20\n      jump\t// in\n    tag_41:\n      tag_42\n      jump\t// in\n    tag_40:\n      mload(0x40)\n      tag_43\n      swap7\n      swap6\n      swap5\n      swap4\n      swap3\n      swap2\n      swap1\n      tag_44\n      jump\t// in\n    tag_43:\n      mload(0x40)\n      dup1\n      swap2\n      sub\n      swap1\n      return\n        /* \"bootcamp/week2/MultiSigWallet.sol\":1792:2094  function submitTx(address _to, uint256 _value, bytes memory _data) external onlyOwner {... */\n    tag_8:\n      callvalue\n      dup1\n      iszero\n      tag_45\n      jumpi\n      0x00\n      dup1\n      revert\n    tag_45:\n      pop\n      tag_46\n      0x04\n      dup1\n      calldatasize\n      sub\n      dup2\n      add\n      swap1\n      tag_47\n      swap2\n      swap1\n      tag_48\n      jump\t// in\n    tag_47:\n      tag_49\n      jump\t// in\n    tag_46:\n      stop\n        /* \"bootcamp/week2/MultiSigWallet.sol\":701:720  uint256 public txId */\n    tag_9:\n      callvalue\n      dup1\n      iszero\n      tag_50\n      jumpi\n      0x00\n      dup1\n      revert\n    tag_50:\n      pop\n      tag_51\n      tag_52\n      jump\t// in\n    tag_51:\n      mload(0x40)\n      tag_53\n      swap2\n      swap1\n      tag_54\n      jump\t// in\n    tag_53:\n      mload(0x40)\n      dup1\n      swap2\n      sub\n      swap1\n      return\n        /* \"bootcamp/week2/MultiSigWallet.sol\":672:695  uint256 public required */\n    tag_10:\n      callvalue\n      dup1\n      iszero\n      tag_55\n      jumpi\n      0x00\n      dup1\n      revert\n    tag_55:\n      pop\n      tag_56\n      tag_57\n      jump\t// in\n    tag_56:\n      mload(0x40)\n      tag_58\n      swap2\n      swap1\n      tag_54\n      jump\t// in\n    tag_58:\n      mload(0x40)\n      dup1\n      swap2\n      sub\n      swap1\n      return\n        /* \"bootcamp/week2/MultiSigWallet.sol\":2310:2352  function executeTx() external onlyOwner {} */\n    tag_11:\n      callvalue\n      dup1\n      iszero\n      tag_59\n      jumpi\n      0x00\n      dup1\n      revert\n    tag_59:\n      pop\n      tag_60\n      tag_61\n      jump\t// in\n    tag_60:\n      stop\n        /* \"bootcamp/week2/MultiSigWallet.sol\":2100:2304  function approveTx(uint256 _txId) external onlyOwner txExists(_txId) notExecuted(_txId) notConfirmed(_txId) {... */\n    tag_21:\n        /* \"bootcamp/week2/MultiSigWallet.sol\":763:770  isOwner */\n      0x00\n        /* \"bootcamp/week2/MultiSigWallet.sol\":763:782  isOwner[msg.sender] */\n      dup1\n        /* \"bootcamp/week2/MultiSigWallet.sol\":771:781  msg.sender */\n      caller\n        /* \"bootcamp/week2/MultiSigWallet.sol\":763:782  isOwner[msg.sender] */\n      0xffffffffffffffffffffffffffffffffffffffff\n      and\n      0xffffffffffffffffffffffffffffffffffffffff\n      and\n      dup2\n      mstore\n      0x20\n      add\n      swap1\n      dup2\n      mstore\n      0x20\n      add\n      0x00\n      keccak256\n      0x00\n      swap1\n      sload\n      swap1\n      0x0100\n      exp\n      swap1\n      div\n      0xff\n      and\n        /* \"bootcamp/week2/MultiSigWallet.sol\":758:826  if (!isOwner[msg.sender]) {... */\n      tag_63\n      jumpi\n        /* \"bootcamp/week2/MultiSigWallet.sol\":805:815  NotOwner() */\n      mload(0x40)\n      0x30cd747100000000000000000000000000000000000000000000000000000000\n      dup2\n      mstore\n      0x04\n      add\n      mload(0x40)\n      dup1\n      swap2\n      sub\n      swap1\n      revert\n        /* \"bootcamp/week2/MultiSigWallet.sol\":758:826  if (!isOwner[msg.sender]) {... */\n    tag_63:\n        /* \"bootcamp/week2/MultiSigWallet.sol\":2162:2167  _txId */\n      dup1\n        /* \"bootcamp/week2/MultiSigWallet.sol\":920:924  txId */\n      sload(0x04)\n        /* \"bootcamp/week2/MultiSigWallet.sol\":896:908  transactions */\n      0x01\n        /* \"bootcamp/week2/MultiSigWallet.sol\":896:914  transactions[txId] */\n      0x00\n        /* \"bootcamp/week2/MultiSigWallet.sol\":909:913  txId */\n      sload(0x04)\n        /* \"bootcamp/week2/MultiSigWallet.sol\":896:914  transactions[txId] */\n      dup2\n      mstore\n      0x20\n      add\n      swap1\n      dup2\n      mstore\n      0x20\n      add\n      0x00\n      keccak256\n        /* \"bootcamp/week2/MultiSigWallet.sol\":896:917  transactions[txId].id */\n      0x00\n      add\n      sload\n        /* \"bootcamp/week2/MultiSigWallet.sol\":896:924  transactions[txId].id > txId */\n      gt\n        /* \"bootcamp/week2/MultiSigWallet.sol\":892:974  if (transactions[txId].id > txId) {... */\n      iszero\n      tag_65\n      jumpi\n        /* \"bootcamp/week2/MultiSigWallet.sol\":947:963  txDoesNotExist() */\n      mload(0x40)\n      0xc929b60400000000000000000000000000000000000000000000000000000000\n      dup2\n      mstore\n      0x04\n      add\n      mload(0x40)\n      dup1\n      swap2\n      sub\n      swap1\n      revert\n        /* \"bootcamp/week2/MultiSigWallet.sol\":892:974  if (transactions[txId].id > txId) {... */\n    tag_65:\n        /* \"bootcamp/week2/MultiSigWallet.sol\":2181:2186  _txId */\n      dup2\n        /* \"bootcamp/week2/MultiSigWallet.sol\":1047:1059  transactions */\n      0x01\n        /* \"bootcamp/week2/MultiSigWallet.sol\":1047:1066  transactions[_txId] */\n      0x00\n        /* \"bootcamp/week2/MultiSigWallet.sol\":1060:1065  _txId */\n      dup3\n        /* \"bootcamp/week2/MultiSigWallet.sol\":1047:1066  transactions[_txId] */\n      dup2\n      mstore\n      0x20\n      add\n      swap1\n      dup2\n      mstore\n      0x20\n      add\n      0x00\n      keccak256\n        /* \"bootcamp/week2/MultiSigWallet.sol\":1047:1075  transactions[_txId].executed */\n      0x05\n      add\n      0x00\n      swap1\n      sload\n      swap1\n      0x0100\n      exp\n      swap1\n      div\n      0xff\n      and\n        /* \"bootcamp/week2/MultiSigWallet.sol\":1043:1128  if (transactions[_txId].executed) {... */\n      iszero\n      tag_67\n      jumpi\n        /* \"bootcamp/week2/MultiSigWallet.sol\":1098:1117  txAlreadyExecuted() */\n      mload(0x40)\n      0x3ca00aa600000000000000000000000000000000000000000000000000000000\n      dup2\n      mstore\n      0x04\n      add\n      mload(0x40)\n      dup1\n      swap2\n      sub\n      swap1\n      revert\n        /* \"bootcamp/week2/MultiSigWallet.sol\":1043:1128  if (transactions[_txId].executed) {... */\n    tag_67:\n        /* \"bootcamp/week2/MultiSigWallet.sol\":2201:2206  _txId */\n      dup3\n        /* \"bootcamp/week2/MultiSigWallet.sol\":1201:1209  approved */\n      0x02\n        /* \"bootcamp/week2/MultiSigWallet.sol\":1201:1216  approved[_txId] */\n      0x00\n        /* \"bootcamp/week2/MultiSigWallet.sol\":1210:1215  _txId */\n      dup3\n        /* \"bootcamp/week2/MultiSigWallet.sol\":1201:1216  approved[_txId] */\n      dup2\n      mstore\n      0x20\n      add\n      swap1\n      dup2\n      mstore\n      0x20\n      add\n      0x00\n      keccak256\n        /* \"bootcamp/week2/MultiSigWallet.sol\":1201:1228  approved[_txId][msg.sender] */\n      0x00\n        /* \"bootcamp/week2/MultiSigWallet.sol\":1217:1227  msg.sender */\n      caller\n        /* \"bootcamp/week2/MultiSigWallet.sol\":1201:1228  approved[_txId][msg.sender] */\n      0xffffffffffffffffffffffffffffffffffffffff\n      and\n      0xffffffffffffffffffffffffffffffffffffffff\n      and\n      dup2\n      mstore\n      0x20\n      add\n      swap1\n      dup2\n      mstore\n      0x20\n      add\n      0x00\n      keccak256\n      0x00\n      swap1\n      sload\n      swap1\n      0x0100\n      exp\n      swap1\n      div\n      0xff\n      and\n        /* \"bootcamp/week2/MultiSigWallet.sol\":1198:1281  if(approved[_txId][msg.sender]) {... */\n      iszero\n      tag_69\n      jumpi\n        /* \"bootcamp/week2/MultiSigWallet.sol\":1251:1270  txAlreadyApproved() */\n      mload(0x40)\n      0xfcaeab4c00000000000000000000000000000000000000000000000000000000\n      dup2\n      mstore\n      0x04\n      add\n      mload(0x40)\n      dup1\n      swap2\n      sub\n      swap1\n      revert\n        /* \"bootcamp/week2/MultiSigWallet.sol\":1198:1281  if(approved[_txId][msg.sender]) {... */\n    tag_69:\n        /* \"bootcamp/week2/MultiSigWallet.sol\":2218:2230  transactions */\n      0x01\n        /* \"bootcamp/week2/MultiSigWallet.sol\":2218:2237  transactions[_txId] */\n      0x00\n        /* \"bootcamp/week2/MultiSigWallet.sol\":2231:2236  _txId */\n      dup6\n        /* \"bootcamp/week2/MultiSigWallet.sol\":2218:2237  transactions[_txId] */\n      dup2\n      mstore\n      0x20\n      add\n      swap1\n      dup2\n      mstore\n      0x20\n      add\n      0x00\n      keccak256\n        /* \"bootcamp/week2/MultiSigWallet.sol\":2218:2251  transactions[_txId].confirmations */\n      0x04\n      add\n      0x00\n        /* \"bootcamp/week2/MultiSigWallet.sol\":2218:2253  transactions[_txId].confirmations++ */\n      dup2\n      sload\n      dup1\n      swap3\n      swap2\n      swap1\n      tag_71\n      swap1\n      tag_72\n      jump\t// in\n    tag_71:\n      swap2\n      swap1\n      pop\n      sstore\n      pop\n        /* \"bootcamp/week2/MultiSigWallet.sol\":2293:2297  true */\n      0x01\n        /* \"bootcamp/week2/MultiSigWallet.sol\":2263:2271  approved */\n      0x02\n        /* \"bootcamp/week2/MultiSigWallet.sol\":2263:2278  approved[_txId] */\n      0x00\n        /* \"bootcamp/week2/MultiSigWallet.sol\":2272:2277  _txId */\n      dup7\n        /* \"bootcamp/week2/MultiSigWallet.sol\":2263:2278  approved[_txId] */\n      dup2\n      mstore\n      0x20\n      add\n      swap1\n      dup2\n      mstore\n      0x20\n      add\n      0x00\n      keccak256\n        /* \"bootcamp/week2/MultiSigWallet.sol\":2263:2290  approved[_txId][msg.sender] */\n      0x00\n        /* \"bootcamp/week2/MultiSigWallet.sol\":2279:2289  msg.sender */\n      caller\n        /* \"bootcamp/week2/MultiSigWallet.sol\":2263:2290  approved[_txId][msg.sender] */\n      0xffffffffffffffffffffffffffffffffffffffff\n      and\n      0xffffffffffffffffffffffffffffffffffffffff\n      and\n      dup2\n      mstore\n      0x20\n      add\n      swap1\n      dup2\n      mstore\n      0x20\n      add\n      0x00\n      keccak256\n      0x00\n        /* \"bootcamp/week2/MultiSigWallet.sol\":2263:2297  approved[_txId][msg.sender] = true */\n      0x0100\n      exp\n      dup2\n      sload\n      dup2\n      0xff\n      mul\n      not\n      and\n      swap1\n      dup4\n      iszero\n      iszero\n      mul\n      or\n      swap1\n      sstore\n      pop\n        /* \"bootcamp/week2/MultiSigWallet.sol\":1137:1138  _ */\n      pop\n        /* \"bootcamp/week2/MultiSigWallet.sol\":983:984  _ */\n      pop\n        /* \"bootcamp/week2/MultiSigWallet.sol\":835:836  _ */\n      pop\n        /* \"bootcamp/week2/MultiSigWallet.sol\":2100:2304  function approveTx(uint256 _txId) external onlyOwner txExists(_txId) notExecuted(_txId) notConfirmed(_txId) {... */\n      pop\n      jump\t// out\n        /* \"bootcamp/week2/MultiSigWallet.sol\":333:373  mapping (address => bool) public isOwner */\n    tag_26:\n      mstore(0x20, 0x00)\n      dup1\n      0x00\n      mstore\n      keccak256(0x00, 0x40)\n      0x00\n      swap2\n      pop\n      sload\n      swap1\n      0x0100\n      exp\n      swap1\n      div\n      0xff\n      and\n      dup2\n      jump\t// out\n        /* \"bootcamp/week2/MultiSigWallet.sol\":2358:2666  function revokeTx(uint256 _txId) external onlyOwner txExists(_txId) notExecuted(_txId) {... */\n    tag_32:\n        /* \"bootcamp/week2/MultiSigWallet.sol\":763:770  isOwner */\n      0x00\n        /* \"bootcamp/week2/MultiSigWallet.sol\":763:782  isOwner[msg.sender] */\n      dup1\n        /* \"bootcamp/week2/MultiSigWallet.sol\":771:781  msg.sender */\n      caller\n        /* \"bootcamp/week2/MultiSigWallet.sol\":763:782  isOwner[msg.sender] */\n      0xffffffffffffffffffffffffffffffffffffffff\n      and\n      0xffffffffffffffffffffffffffffffffffffffff\n      and\n      dup2\n      mstore\n      0x20\n      add\n      swap1\n      dup2\n      mstore\n      0x20\n      add\n      0x00\n      keccak256\n      0x00\n      swap1\n      sload\n      swap1\n      0x0100\n      exp\n      swap1\n      div\n      0xff\n      and\n        /* \"bootcamp/week2/MultiSigWallet.sol\":758:826  if (!isOwner[msg.sender]) {... */\n      tag_74\n      jumpi\n        /* \"bootcamp/week2/MultiSigWallet.sol\":805:815  NotOwner() */\n      mload(0x40)\n      0x30cd747100000000000000000000000000000000000000000000000000000000\n      dup2\n      mstore\n      0x04\n      add\n      mload(0x40)\n      dup1\n      swap2\n      sub\n      swap1\n      revert\n        /* \"bootcamp/week2/MultiSigWallet.sol\":758:826  if (!isOwner[msg.sender]) {... */\n    tag_74:\n        /* \"bootcamp/week2/MultiSigWallet.sol\":2419:2424  _txId */\n      dup1\n        /* \"bootcamp/week2/MultiSigWallet.sol\":920:924  txId */\n      sload(0x04)\n        /* \"bootcamp/week2/MultiSigWallet.sol\":896:908  transactions */\n      0x01\n        /* \"bootcamp/week2/MultiSigWallet.sol\":896:914  transactions[txId] */\n      0x00\n        /* \"bootcamp/week2/MultiSigWallet.sol\":909:913  txId */\n      sload(0x04)\n        /* \"bootcamp/week2/MultiSigWallet.sol\":896:914  transactions[txId] */\n      dup2\n      mstore\n      0x20\n      add\n      swap1\n      dup2\n      mstore\n      0x20\n      add\n      0x00\n      keccak256\n        /* \"bootcamp/week2/MultiSigWallet.sol\":896:917  transactions[txId].id */\n      0x00\n      add\n      sload\n        /* \"bootcamp/week2/MultiSigWallet.sol\":896:924  transactions[txId].id > txId */\n      gt\n        /* \"bootcamp/week2/MultiSigWallet.sol\":892:974  if (transactions[txId].id > txId) {... */\n      iszero\n      tag_76\n      jumpi\n        /* \"bootcamp/week2/MultiSigWallet.sol\":947:963  txDoesNotExist() */\n      mload(0x40)\n      0xc929b60400000000000000000000000000000000000000000000000000000000\n      dup2\n      mstore\n      0x04\n      add\n      mload(0x40)\n      dup1\n      swap2\n      sub\n      swap1\n      revert\n        /* \"bootcamp/week2/MultiSigWallet.sol\":892:974  if (transactions[txId].id > txId) {... */\n    tag_76:\n        /* \"bootcamp/week2/MultiSigWallet.sol\":2438:2443  _txId */\n      dup2\n        /* \"bootcamp/week2/MultiSigWallet.sol\":1047:1059  transactions */\n      0x01\n        /* \"bootcamp/week2/MultiSigWallet.sol\":1047:1066  transactions[_txId] */\n      0x00\n        /* \"bootcamp/week2/MultiSigWallet.sol\":1060:1065  _txId */\n      dup3\n        /* \"bootcamp/week2/MultiSigWallet.sol\":1047:1066  transactions[_txId] */\n      dup2\n      mstore\n      0x20\n      add\n      swap1\n      dup2\n      mstore\n      0x20\n      add\n      0x00\n      keccak256\n        /* \"bootcamp/week2/MultiSigWallet.sol\":1047:1075  transactions[_txId].executed */\n      0x05\n      add\n      0x00\n      swap1\n      sload\n      swap1\n      0x0100\n      exp\n      swap1\n      div\n      0xff\n      and\n        /* \"bootcamp/week2/MultiSigWallet.sol\":1043:1128  if (transactions[_txId].executed) {... */\n      iszero\n      tag_78\n      jumpi\n        /* \"bootcamp/week2/MultiSigWallet.sol\":1098:1117  txAlreadyExecuted() */\n      mload(0x40)\n      0x3ca00aa600000000000000000000000000000000000000000000000000000000\n      dup2\n      mstore\n      0x04\n      add\n      mload(0x40)\n      dup1\n      swap2\n      sub\n      swap1\n      revert\n        /* \"bootcamp/week2/MultiSigWallet.sol\":1043:1128  if (transactions[_txId].executed) {... */\n    tag_78:\n        /* \"bootcamp/week2/MultiSigWallet.sol\":2458:2466  approved */\n      0x02\n        /* \"bootcamp/week2/MultiSigWallet.sol\":2458:2473  approved[_txId] */\n      0x00\n        /* \"bootcamp/week2/MultiSigWallet.sol\":2467:2472  _txId */\n      dup5\n        /* \"bootcamp/week2/MultiSigWallet.sol\":2458:2473  approved[_txId] */\n      dup2\n      mstore\n      0x20\n      add\n      swap1\n      dup2\n      mstore\n      0x20\n      add\n      0x00\n      keccak256\n        /* \"bootcamp/week2/MultiSigWallet.sol\":2458:2485  approved[_txId][msg.sender] */\n      0x00\n        /* \"bootcamp/week2/MultiSigWallet.sol\":2474:2484  msg.sender */\n      caller\n        /* \"bootcamp/week2/MultiSigWallet.sol\":2458:2485  approved[_txId][msg.sender] */\n      0xffffffffffffffffffffffffffffffffffffffff\n      and\n      0xffffffffffffffffffffffffffffffffffffffff\n      and\n      dup2\n      mstore\n      0x20\n      add\n      swap1\n      dup2\n      mstore\n      0x20\n      add\n      0x00\n      keccak256\n      0x00\n      swap1\n      sload\n      swap1\n      0x0100\n      exp\n      swap1\n      div\n      0xff\n      and\n        /* \"bootcamp/week2/MultiSigWallet.sol\":2455:2660  if(approved[_txId][msg.sender]) {... */\n      iszero\n      tag_80\n      jumpi\n        /* \"bootcamp/week2/MultiSigWallet.sol\":2531:2536  false */\n      0x00\n        /* \"bootcamp/week2/MultiSigWallet.sol\":2501:2509  approved */\n      0x02\n        /* \"bootcamp/week2/MultiSigWallet.sol\":2501:2516  approved[_txId] */\n      0x00\n        /* \"bootcamp/week2/MultiSigWallet.sol\":2510:2515  _txId */\n      dup6\n        /* \"bootcamp/week2/MultiSigWallet.sol\":2501:2516  approved[_txId] */\n      dup2\n      mstore\n      0x20\n      add\n      swap1\n      dup2\n      mstore\n      0x20\n      add\n      0x00\n      keccak256\n        /* \"bootcamp/week2/MultiSigWallet.sol\":2501:2528  approved[_txId][msg.sender] */\n      0x00\n        /* \"bootcamp/week2/MultiSigWallet.sol\":2517:2527  msg.sender */\n      caller\n        /* \"bootcamp/week2/MultiSigWallet.sol\":2501:2528  approved[_txId][msg.sender] */\n      0xffffffffffffffffffffffffffffffffffffffff\n      and\n      0xffffffffffffffffffffffffffffffffffffffff\n      and\n      dup2\n      mstore\n      0x20\n      add\n      swap1\n      dup2\n      mstore\n      0x20\n      add\n      0x00\n      keccak256\n      0x00\n        /* \"bootcamp/week2/MultiSigWallet.sol\":2501:2536  approved[_txId][msg.sender] = false */\n      0x0100\n      exp\n      dup2\n      sload\n      dup2\n      0xff\n      mul\n      not\n      and\n      swap1\n      dup4\n      iszero\n      iszero\n      mul\n      or\n      swap1\n      sstore\n      pop\n        /* \"bootcamp/week2/MultiSigWallet.sol\":2550:2562  transactions */\n      0x01\n        /* \"bootcamp/week2/MultiSigWallet.sol\":2550:2569  transactions[_txId] */\n      0x00\n        /* \"bootcamp/week2/MultiSigWallet.sol\":2563:2568  _txId */\n      dup5\n        /* \"bootcamp/week2/MultiSigWallet.sol\":2550:2569  transactions[_txId] */\n      dup2\n      mstore\n      0x20\n      add\n      swap1\n      dup2\n      mstore\n      0x20\n      add\n      0x00\n      keccak256\n        /* \"bootcamp/week2/MultiSigWallet.sol\":2550:2583  transactions[_txId].confirmations */\n      0x04\n      add\n      0x00\n        /* \"bootcamp/week2/MultiSigWallet.sol\":2550:2586  transactions[_txId].confirmations -- */\n      dup2\n      sload\n      dup1\n      swap3\n      swap2\n      swap1\n      tag_81\n      swap1\n      tag_82\n      jump\t// in\n    tag_81:\n      swap2\n      swap1\n      pop\n      sstore\n      pop\n        /* \"bootcamp/week2/MultiSigWallet.sol\":2455:2660  if(approved[_txId][msg.sender]) {... */\n      jump(tag_83)\n    tag_80:\n        /* \"bootcamp/week2/MultiSigWallet.sol\":2624:2649  OwnerNotAlreadyApproved() */\n      mload(0x40)\n      0x2e5f286200000000000000000000000000000000000000000000000000000000\n      dup2\n      mstore\n      0x04\n      add\n      mload(0x40)\n      dup1\n      swap2\n      sub\n      swap1\n      revert\n        /* \"bootcamp/week2/MultiSigWallet.sol\":2455:2660  if(approved[_txId][msg.sender]) {... */\n    tag_83:\n        /* \"bootcamp/week2/MultiSigWallet.sol\":983:984  _ */\n      pop\n        /* \"bootcamp/week2/MultiSigWallet.sol\":835:836  _ */\n      pop\n        /* \"bootcamp/week2/MultiSigWallet.sol\":2358:2666  function revokeTx(uint256 _txId) external onlyOwner txExists(_txId) notExecuted(_txId) {... */\n      pop\n      jump\t// out\n        /* \"bootcamp/week2/MultiSigWallet.sol\":606:666  mapping(uint256 => mapping(address => bool)) public approved */\n    tag_37:\n      mstore(0x20, 0x02)\n      dup2\n      0x00\n      mstore\n      mstore(0x20, keccak256(0x00, 0x40))\n      dup1\n      0x00\n      mstore\n      keccak256(0x00, 0x40)\n      0x00\n      swap2\n      pop\n      swap2\n      pop\n      swap1\n      sload\n      swap1\n      0x0100\n      exp\n      swap1\n      div\n      0xff\n      and\n      dup2\n      jump\t// out\n        /* \"bootcamp/week2/MultiSigWallet.sol\":549:600  mapping(uint256 => Transaction) public transactions */\n    tag_42:\n      mstore(0x20, 0x01)\n      dup1\n      0x00\n      mstore\n      keccak256(0x00, 0x40)\n      0x00\n      swap2\n      pop\n      swap1\n      pop\n      dup1\n      0x00\n      add\n      sload\n      swap1\n      dup1\n      0x01\n      add\n      0x00\n      swap1\n      sload\n      swap1\n      0x0100\n      exp\n      swap1\n      div\n      0xffffffffffffffffffffffffffffffffffffffff\n      and\n      swap1\n      dup1\n      0x02\n      add\n      sload\n      swap1\n      dup1\n      0x03\n      add\n      dup1\n      sload\n      tag_84\n      swap1\n      tag_85\n      jump\t// in\n    tag_84:\n      dup1\n      0x1f\n      add\n      0x20\n      dup1\n      swap2\n      div\n      mul\n      0x20\n      add\n      mload(0x40)\n      swap1\n      dup2\n      add\n      0x40\n      mstore\n      dup1\n      swap3\n      swap2\n      swap1\n      dup2\n      dup2\n      mstore\n      0x20\n      add\n      dup3\n      dup1\n      sload\n      tag_86\n      swap1\n      tag_85\n      jump\t// in\n    tag_86:\n      dup1\n      iszero\n      tag_87\n      jumpi\n      dup1\n      0x1f\n      lt\n      tag_88\n      jumpi\n      0x0100\n      dup1\n      dup4\n      sload\n      div\n      mul\n      dup4\n      mstore\n      swap2\n      0x20\n      add\n      swap2\n      jump(tag_87)\n    tag_88:\n      dup3\n      add\n      swap2\n      swap1\n      0x00\n      mstore\n      keccak256(0x00, 0x20)\n      swap1\n    tag_89:\n      dup2\n      sload\n      dup2\n      mstore\n      swap1\n      0x01\n      add\n      swap1\n      0x20\n      add\n      dup1\n      dup4\n      gt\n      tag_89\n      jumpi\n      dup3\n      swap1\n      sub\n      0x1f\n      and\n      dup3\n      add\n      swap2\n    tag_87:\n      pop\n      pop\n      pop\n      pop\n      pop\n      swap1\n      dup1\n      0x04\n      add\n      sload\n      swap1\n      dup1\n      0x05\n      add\n      0x00\n      swap1\n      sload\n      swap1\n      0x0100\n      exp\n      swap1\n      div\n      0xff\n      and\n      swap1\n      pop\n      dup7\n      jump\t// out\n        /* \"bootcamp/week2/MultiSigWallet.sol\":1792:2094  function submitTx(address _to, uint256 _value, bytes memory _data) external onlyOwner {... */\n    tag_49:\n        /* \"bootcamp/week2/MultiSigWallet.sol\":763:770  isOwner */\n      0x00\n        /* \"bootcamp/week2/MultiSigWallet.sol\":763:782  isOwner[msg.sender] */\n      dup1\n        /* \"bootcamp/week2/MultiSigWallet.sol\":771:781  msg.sender */\n      caller\n        /* \"bootcamp/week2/MultiSigWallet.sol\":763:782  isOwner[msg.sender] */\n      0xffffffffffffffffffffffffffffffffffffffff\n      and\n      0xffffffffffffffffffffffffffffffffffffffff\n      and\n      dup2\n      mstore\n      0x20\n      add\n      swap1\n      dup2\n      mstore\n      0x20\n      add\n      0x00\n      keccak256\n      0x00\n      swap1\n      sload\n      swap1\n      0x0100\n      exp\n      swap1\n      div\n      0xff\n      and\n        /* \"bootcamp/week2/MultiSigWallet.sol\":758:826  if (!isOwner[msg.sender]) {... */\n      tag_91\n      jumpi\n        /* \"bootcamp/week2/MultiSigWallet.sol\":805:815  NotOwner() */\n      mload(0x40)\n      0x30cd747100000000000000000000000000000000000000000000000000000000\n      dup2\n      mstore\n      0x04\n      add\n      mload(0x40)\n      dup1\n      swap2\n      sub\n      swap1\n      revert\n        /* \"bootcamp/week2/MultiSigWallet.sol\":758:826  if (!isOwner[msg.sender]) {... */\n    tag_91:\n        /* \"bootcamp/week2/MultiSigWallet.sol\":1888:1919  Transaction storage transaction */\n      0x00\n        /* \"bootcamp/week2/MultiSigWallet.sol\":1922:1934  transactions */\n      0x01\n        /* \"bootcamp/week2/MultiSigWallet.sol\":1922:1940  transactions[txId] */\n      0x00\n        /* \"bootcamp/week2/MultiSigWallet.sol\":1935:1939  txId */\n      sload(0x04)\n        /* \"bootcamp/week2/MultiSigWallet.sol\":1922:1940  transactions[txId] */\n      dup2\n      mstore\n      0x20\n      add\n      swap1\n      dup2\n      mstore\n      0x20\n      add\n      0x00\n      keccak256\n        /* \"bootcamp/week2/MultiSigWallet.sol\":1888:1940  Transaction storage transaction = transactions[txId] */\n      swap1\n      pop\n        /* \"bootcamp/week2/MultiSigWallet.sol\":1967:1971  txId */\n      sload(0x04)\n        /* \"bootcamp/week2/MultiSigWallet.sol\":1950:1961  transaction */\n      dup2\n        /* \"bootcamp/week2/MultiSigWallet.sol\":1950:1964  transaction.id */\n      0x00\n      add\n        /* \"bootcamp/week2/MultiSigWallet.sol\":1950:1971  transaction.id = txId */\n      dup2\n      swap1\n      sstore\n      pop\n        /* \"bootcamp/week2/MultiSigWallet.sol\":1998:2001  _to */\n      dup4\n        /* \"bootcamp/week2/MultiSigWallet.sol\":1981:1992  transaction */\n      dup2\n        /* \"bootcamp/week2/MultiSigWallet.sol\":1981:1995  transaction.to */\n      0x01\n      add\n      0x00\n        /* \"bootcamp/week2/MultiSigWallet.sol\":1981:2001  transaction.to = _to */\n      0x0100\n      exp\n      dup2\n      sload\n      dup2\n      0xffffffffffffffffffffffffffffffffffffffff\n      mul\n      not\n      and\n      swap1\n      dup4\n      0xffffffffffffffffffffffffffffffffffffffff\n      and\n      mul\n      or\n      swap1\n      sstore\n      pop\n        /* \"bootcamp/week2/MultiSigWallet.sol\":2031:2037  _value */\n      dup3\n        /* \"bootcamp/week2/MultiSigWallet.sol\":2011:2022  transaction */\n      dup2\n        /* \"bootcamp/week2/MultiSigWallet.sol\":2011:2028  transaction.value */\n      0x02\n      add\n        /* \"bootcamp/week2/MultiSigWallet.sol\":2011:2037  transaction.value = _value */\n      dup2\n      swap1\n      sstore\n      pop\n        /* \"bootcamp/week2/MultiSigWallet.sol\":2066:2071  _data */\n      dup2\n        /* \"bootcamp/week2/MultiSigWallet.sol\":2047:2058  transaction */\n      dup2\n        /* \"bootcamp/week2/MultiSigWallet.sol\":2047:2063  transaction.data */\n      0x03\n      add\n        /* \"bootcamp/week2/MultiSigWallet.sol\":2047:2071  transaction.data = _data */\n      swap1\n      dup1\n      mload\n      swap1\n      0x20\n      add\n      swap1\n      tag_93\n      swap3\n      swap2\n      swap1\n      tag_94\n      jump\t// in\n    tag_93:\n      pop\n        /* \"bootcamp/week2/MultiSigWallet.sol\":2081:2085  txId */\n      0x04\n      0x00\n        /* \"bootcamp/week2/MultiSigWallet.sol\":2081:2087  txId++ */\n      dup2\n      sload\n      dup1\n      swap3\n      swap2\n      swap1\n      tag_95\n      swap1\n      tag_72\n      jump\t// in\n    tag_95:\n      swap2\n      swap1\n      pop\n      sstore\n      pop\n        /* \"bootcamp/week2/MultiSigWallet.sol\":1878:2094  {... */\n      pop\n        /* \"bootcamp/week2/MultiSigWallet.sol\":1792:2094  function submitTx(address _to, uint256 _value, bytes memory _data) external onlyOwner {... */\n      pop\n      pop\n      pop\n      jump\t// out\n        /* \"bootcamp/week2/MultiSigWallet.sol\":701:720  uint256 public txId */\n    tag_52:\n      sload(0x04)\n      dup2\n      jump\t// out\n        /* \"bootcamp/week2/MultiSigWallet.sol\":672:695  uint256 public required */\n    tag_57:\n      sload(0x03)\n      dup2\n      jump\t// out\n        /* \"bootcamp/week2/MultiSigWallet.sol\":2310:2352  function executeTx() external onlyOwner {} */\n    tag_61:\n        /* \"bootcamp/week2/MultiSigWallet.sol\":763:770  isOwner */\n      0x00\n        /* \"bootcamp/week2/MultiSigWallet.sol\":763:782  isOwner[msg.sender] */\n      dup1\n        /* \"bootcamp/week2/MultiSigWallet.sol\":771:781  msg.sender */\n      caller\n        /* \"bootcamp/week2/MultiSigWallet.sol\":763:782  isOwner[msg.sender] */\n      0xffffffffffffffffffffffffffffffffffffffff\n      and\n      0xffffffffffffffffffffffffffffffffffffffff\n      and\n      dup2\n      mstore\n      0x20\n      add\n      swap1\n      dup2\n      mstore\n      0x20\n      add\n      0x00\n      keccak256\n      0x00\n      swap1\n      sload\n      swap1\n      0x0100\n      exp\n      swap1\n      div\n      0xff\n      and\n        /* \"bootcamp/week2/MultiSigWallet.sol\":758:826  if (!isOwner[msg.sender]) {... */\n      tag_97\n      jumpi\n        /* \"bootcamp/week2/MultiSigWallet.sol\":805:815  NotOwner() */\n      mload(0x40)\n      0x30cd747100000000000000000000000000000000000000000000000000000000\n      dup2\n      mstore\n      0x04\n      add\n      mload(0x40)\n      dup1\n      swap2\n      sub\n      swap1\n      revert\n        /* \"bootcamp/week2/MultiSigWallet.sol\":758:826  if (!isOwner[msg.sender]) {... */\n    tag_97:\n        /* \"bootcamp/week2/MultiSigWallet.sol\":2310:2352  function executeTx() external onlyOwner {} */\n      jump\t// out\n    tag_94:\n      dup3\n      dup1\n      sload\n      tag_99\n      swap1\n      tag_85\n      jump\t// in\n    tag_99:\n      swap1\n      0x00\n      mstore\n      keccak256(0x00, 0x20)\n      swap1\n      0x1f\n      add\n      0x20\n      swap1\n      div\n      dup2\n      add\n      swap3\n      dup3\n      tag_101\n      jumpi\n      0x00\n      dup6\n      sstore\n      jump(tag_100)\n    tag_101:\n      dup3\n      0x1f\n      lt\n      tag_102\n      jumpi\n      dup1\n      mload\n      not(0xff)\n      and\n      dup4\n      dup1\n      add\n      or\n      dup6\n      sstore\n      jump(tag_100)\n    tag_102:\n      dup3\n      dup1\n      add\n      0x01\n      add\n      dup6\n      sstore\n      dup3\n      iszero\n      tag_100\n      jumpi\n      swap2\n      dup3\n      add\n    tag_103:\n      dup3\n      dup2\n      gt\n      iszero\n      tag_104\n      jumpi\n      dup3\n      mload\n      dup3\n      sstore\n      swap2\n      0x20\n      add\n      swap2\n      swap1\n      0x01\n      add\n      swap1\n      jump(tag_103)\n    tag_104:\n    tag_100:\n      pop\n      swap1\n      pop\n      tag_105\n      swap2\n      swap1\n      tag_106\n      jump\t// in\n    tag_105:\n      pop\n      swap1\n      jump\t// out\n    tag_106:\n    tag_107:\n      dup1\n      dup3\n      gt\n      iszero\n      tag_108\n      jumpi\n      0x00\n      dup2\n      0x00\n      swap1\n      sstore\n      pop\n      0x01\n      add\n      jump(tag_107)\n    tag_108:\n      pop\n      swap1\n      jump\t// out\n        /* \"#utility.yul\":7:417   */\n    tag_110:\n        /* \"#utility.yul\":84:89   */\n      0x00\n        /* \"#utility.yul\":109:174   */\n      tag_112\n        /* \"#utility.yul\":125:173   */\n      tag_113\n        /* \"#utility.yul\":166:172   */\n      dup5\n        /* \"#utility.yul\":125:173   */\n      tag_114\n      jump\t// in\n    tag_113:\n        /* \"#utility.yul\":109:174   */\n      tag_115\n      jump\t// in\n    tag_112:\n        /* \"#utility.yul\":100:174   */\n      swap1\n      pop\n        /* \"#utility.yul\":197:203   */\n      dup3\n        /* \"#utility.yul\":190:195   */\n      dup2\n        /* \"#utility.yul\":183:204   */\n      mstore\n        /* \"#utility.yul\":235:239   */\n      0x20\n        /* \"#utility.yul\":228:233   */\n      dup2\n        /* \"#utility.yul\":224:240   */\n      add\n        /* \"#utility.yul\":273:276   */\n      dup5\n        /* \"#utility.yul\":264:270   */\n      dup5\n        /* \"#utility.yul\":259:262   */\n      dup5\n        /* \"#utility.yul\":255:271   */\n      add\n        /* \"#utility.yul\":252:277   */\n      gt\n        /* \"#utility.yul\":249:361   */\n      iszero\n      tag_116\n      jumpi\n        /* \"#utility.yul\":280:359   */\n      tag_117\n      tag_118\n      jump\t// in\n    tag_117:\n        /* \"#utility.yul\":249:361   */\n    tag_116:\n        /* \"#utility.yul\":370:411   */\n      tag_119\n        /* \"#utility.yul\":404:410   */\n      dup5\n        /* \"#utility.yul\":399:402   */\n      dup3\n        /* \"#utility.yul\":394:397   */\n      dup6\n        /* \"#utility.yul\":370:411   */\n      tag_120\n      jump\t// in\n    tag_119:\n        /* \"#utility.yul\":90:417   */\n      pop\n        /* \"#utility.yul\":7:417   */\n      swap4\n      swap3\n      pop\n      pop\n      pop\n      jump\t// out\n        /* \"#utility.yul\":423:562   */\n    tag_121:\n        /* \"#utility.yul\":469:474   */\n      0x00\n        /* \"#utility.yul\":507:513   */\n      dup2\n        /* \"#utility.yul\":494:514   */\n      calldataload\n        /* \"#utility.yul\":485:514   */\n      swap1\n      pop\n        /* \"#utility.yul\":523:556   */\n      tag_123\n        /* \"#utility.yul\":550:555   */\n      dup2\n        /* \"#utility.yul\":523:556   */\n      tag_124\n      jump\t// in\n    tag_123:\n        /* \"#utility.yul\":423:562   */\n      swap3\n      swap2\n      pop\n      pop\n      jump\t// out\n        /* \"#utility.yul\":581:919   */\n    tag_125:\n        /* \"#utility.yul\":636:641   */\n      0x00\n        /* \"#utility.yul\":685:688   */\n      dup3\n        /* \"#utility.yul\":678:682   */\n      0x1f\n        /* \"#utility.yul\":670:676   */\n      dup4\n        /* \"#utility.yul\":666:683   */\n      add\n        /* \"#utility.yul\":662:689   */\n      slt\n        /* \"#utility.yul\":652:774   */\n      tag_127\n      jumpi\n        /* \"#utility.yul\":693:772   */\n      tag_128\n      tag_129\n      jump\t// in\n    tag_128:\n        /* \"#utility.yul\":652:774   */\n    tag_127:\n        /* \"#utility.yul\":810:816   */\n      dup2\n        /* \"#utility.yul\":797:817   */\n      calldataload\n        /* \"#utility.yul\":835:913   */\n      tag_130\n        /* \"#utility.yul\":909:912   */\n      dup5\n        /* \"#utility.yul\":901:907   */\n      dup3\n        /* \"#utility.yul\":894:898   */\n      0x20\n        /* \"#utility.yul\":886:892   */\n      dup7\n        /* \"#utility.yul\":882:899   */\n      add\n        /* \"#utility.yul\":835:913   */\n      tag_110\n      jump\t// in\n    tag_130:\n        /* \"#utility.yul\":826:913   */\n      swap2\n      pop\n        /* \"#utility.yul\":642:919   */\n      pop\n        /* \"#utility.yul\":581:919   */\n      swap3\n      swap2\n      pop\n      pop\n      jump\t// out\n        /* \"#utility.yul\":925:1064   */\n    tag_131:\n        /* \"#utility.yul\":971:976   */\n      0x00\n        /* \"#utility.yul\":1009:1015   */\n      dup2\n        /* \"#utility.yul\":996:1016   */\n      calldataload\n        /* \"#utility.yul\":987:1016   */\n      swap1\n      pop\n        /* \"#utility.yul\":1025:1058   */\n      tag_133\n        /* \"#utility.yul\":1052:1057   */\n      dup2\n        /* \"#utility.yul\":1025:1058   */\n      tag_134\n      jump\t// in\n    tag_133:\n        /* \"#utility.yul\":925:1064   */\n      swap3\n      swap2\n      pop\n      pop\n      jump\t// out\n        /* \"#utility.yul\":1070:1399   */\n    tag_25:\n        /* \"#utility.yul\":1129:1135   */\n      0x00\n        /* \"#utility.yul\":1178:1180   */\n      0x20\n        /* \"#utility.yul\":1166:1175   */\n      dup3\n        /* \"#utility.yul\":1157:1164   */\n      dup5\n        /* \"#utility.yul\":1153:1176   */\n      sub\n        /* \"#utility.yul\":1149:1181   */\n      slt\n        /* \"#utility.yul\":1146:1265   */\n      iszero\n      tag_136\n      jumpi\n        /* \"#utility.yul\":1184:1263   */\n      tag_137\n      tag_138\n      jump\t// in\n    tag_137:\n        /* \"#utility.yul\":1146:1265   */\n    tag_136:\n        /* \"#utility.yul\":1304:1305   */\n      0x00\n        /* \"#utility.yul\":1329:1382   */\n      tag_139\n        /* \"#utility.yul\":1374:1381   */\n      dup5\n        /* \"#utility.yul\":1365:1371   */\n      dup3\n        /* \"#utility.yul\":1354:1363   */\n      dup6\n        /* \"#utility.yul\":1350:1372   */\n      add\n        /* \"#utility.yul\":1329:1382   */\n      tag_121\n      jump\t// in\n    tag_139:\n        /* \"#utility.yul\":1319:1382   */\n      swap2\n      pop\n        /* \"#utility.yul\":1275:1392   */\n      pop\n        /* \"#utility.yul\":1070:1399   */\n      swap3\n      swap2\n      pop\n      pop\n      jump\t// out\n        /* \"#utility.yul\":1405:2202   */\n    tag_48:\n        /* \"#utility.yul\":1491:1497   */\n      0x00\n        /* \"#utility.yul\":1499:1505   */\n      dup1\n        /* \"#utility.yul\":1507:1513   */\n      0x00\n        /* \"#utility.yul\":1556:1558   */\n      0x60\n        /* \"#utility.yul\":1544:1553   */\n      dup5\n        /* \"#utility.yul\":1535:1542   */\n      dup7\n        /* \"#utility.yul\":1531:1554   */\n      sub\n        /* \"#utility.yul\":1527:1559   */\n      slt\n        /* \"#utility.yul\":1524:1643   */\n      iszero\n      tag_141\n      jumpi\n        /* \"#utility.yul\":1562:1641   */\n      tag_142\n      tag_138\n      jump\t// in\n    tag_142:\n        /* \"#utility.yul\":1524:1643   */\n    tag_141:\n        /* \"#utility.yul\":1682:1683   */\n      0x00\n        /* \"#utility.yul\":1707:1760   */\n      tag_143\n        /* \"#utility.yul\":1752:1759   */\n      dup7\n        /* \"#utility.yul\":1743:1749   */\n      dup3\n        /* \"#utility.yul\":1732:1741   */\n      dup8\n        /* \"#utility.yul\":1728:1750   */\n      add\n        /* \"#utility.yul\":1707:1760   */\n      tag_121\n      jump\t// in\n    tag_143:\n        /* \"#utility.yul\":1697:1760   */\n      swap4\n      pop\n        /* \"#utility.yul\":1653:1770   */\n      pop\n        /* \"#utility.yul\":1809:1811   */\n      0x20\n        /* \"#utility.yul\":1835:1888   */\n      tag_144\n        /* \"#utility.yul\":1880:1887   */\n      dup7\n        /* \"#utility.yul\":1871:1877   */\n      dup3\n        /* \"#utility.yul\":1860:1869   */\n      dup8\n        /* \"#utility.yul\":1856:1878   */\n      add\n        /* \"#utility.yul\":1835:1888   */\n      tag_131\n      jump\t// in\n    tag_144:\n        /* \"#utility.yul\":1825:1888   */\n      swap3\n      pop\n        /* \"#utility.yul\":1780:1898   */\n      pop\n        /* \"#utility.yul\":1965:1967   */\n      0x40\n        /* \"#utility.yul\":1954:1963   */\n      dup5\n        /* \"#utility.yul\":1950:1968   */\n      add\n        /* \"#utility.yul\":1937:1969   */\n      calldataload\n        /* \"#utility.yul\":1996:2014   */\n      0xffffffffffffffff\n        /* \"#utility.yul\":1988:1994   */\n      dup2\n        /* \"#utility.yul\":1985:2015   */\n      gt\n        /* \"#utility.yul\":1982:2099   */\n      iszero\n      tag_145\n      jumpi\n        /* \"#utility.yul\":2018:2097   */\n      tag_146\n      tag_147\n      jump\t// in\n    tag_146:\n        /* \"#utility.yul\":1982:2099   */\n    tag_145:\n        /* \"#utility.yul\":2123:2185   */\n      tag_148\n        /* \"#utility.yul\":2177:2184   */\n      dup7\n        /* \"#utility.yul\":2168:2174   */\n      dup3\n        /* \"#utility.yul\":2157:2166   */\n      dup8\n        /* \"#utility.yul\":2153:2175   */\n      add\n        /* \"#utility.yul\":2123:2185   */\n      tag_125\n      jump\t// in\n    tag_148:\n        /* \"#utility.yul\":2113:2185   */\n      swap2\n      pop\n        /* \"#utility.yul\":1908:2195   */\n      pop\n        /* \"#utility.yul\":1405:2202   */\n      swap3\n      pop\n      swap3\n      pop\n      swap3\n      jump\t// out\n        /* \"#utility.yul\":2208:2537   */\n    tag_20:\n        /* \"#utility.yul\":2267:2273   */\n      0x00\n        /* \"#utility.yul\":2316:2318   */\n      0x20\n        /* \"#utility.yul\":2304:2313   */\n      dup3\n        /* \"#utility.yul\":2295:2302   */\n      dup5\n        /* \"#utility.yul\":2291:2314   */\n      sub\n        /* \"#utility.yul\":2287:2319   */\n      slt\n        /* \"#utility.yul\":2284:2403   */\n      iszero\n      tag_150\n      jumpi\n        /* \"#utility.yul\":2322:2401   */\n      tag_151\n      tag_138\n      jump\t// in\n    tag_151:\n        /* \"#utility.yul\":2284:2403   */\n    tag_150:\n        /* \"#utility.yul\":2442:2443   */\n      0x00\n        /* \"#utility.yul\":2467:2520   */\n      tag_152\n        /* \"#utility.yul\":2512:2519   */\n      dup5\n        /* \"#utility.yul\":2503:2509   */\n      dup3\n        /* \"#utility.yul\":2492:2501   */\n      dup6\n        /* \"#utility.yul\":2488:2510   */\n      add\n        /* \"#utility.yul\":2467:2520   */\n      tag_131\n      jump\t// in\n    tag_152:\n        /* \"#utility.yul\":2457:2520   */\n      swap2\n      pop\n        /* \"#utility.yul\":2413:2530   */\n      pop\n        /* \"#utility.yul\":2208:2537   */\n      swap3\n      swap2\n      pop\n      pop\n      jump\t// out\n        /* \"#utility.yul\":2543:3017   */\n    tag_36:\n        /* \"#utility.yul\":2611:2617   */\n      0x00\n        /* \"#utility.yul\":2619:2625   */\n      dup1\n        /* \"#utility.yul\":2668:2670   */\n      0x40\n        /* \"#utility.yul\":2656:2665   */\n      dup4\n        /* \"#utility.yul\":2647:2654   */\n      dup6\n        /* \"#utility.yul\":2643:2666   */\n      sub\n        /* \"#utility.yul\":2639:2671   */\n      slt\n        /* \"#utility.yul\":2636:2755   */\n      iszero\n      tag_154\n      jumpi\n        /* \"#utility.yul\":2674:2753   */\n      tag_155\n      tag_138\n      jump\t// in\n    tag_155:\n        /* \"#utility.yul\":2636:2755   */\n    tag_154:\n        /* \"#utility.yul\":2794:2795   */\n      0x00\n        /* \"#utility.yul\":2819:2872   */\n      tag_156\n        /* \"#utility.yul\":2864:2871   */\n      dup6\n        /* \"#utility.yul\":2855:2861   */\n      dup3\n        /* \"#utility.yul\":2844:2853   */\n      dup7\n        /* \"#utility.yul\":2840:2862   */\n      add\n        /* \"#utility.yul\":2819:2872   */\n      tag_131\n      jump\t// in\n    tag_156:\n        /* \"#utility.yul\":2809:2872   */\n      swap3\n      pop\n        /* \"#utility.yul\":2765:2882   */\n      pop\n        /* \"#utility.yul\":2921:2923   */\n      0x20\n        /* \"#utility.yul\":2947:3000   */\n      tag_157\n        /* \"#utility.yul\":2992:2999   */\n      dup6\n        /* \"#utility.yul\":2983:2989   */\n      dup3\n        /* \"#utility.yul\":2972:2981   */\n      dup7\n        /* \"#utility.yul\":2968:2990   */\n      add\n        /* \"#utility.yul\":2947:3000   */\n      tag_121\n      jump\t// in\n    tag_157:\n        /* \"#utility.yul\":2937:3000   */\n      swap2\n      pop\n        /* \"#utility.yul\":2892:3010   */\n      pop\n        /* \"#utility.yul\":2543:3017   */\n      swap3\n      pop\n      swap3\n      swap1\n      pop\n      jump\t// out\n        /* \"#utility.yul\":3023:3141   */\n    tag_158:\n        /* \"#utility.yul\":3110:3134   */\n      tag_160\n        /* \"#utility.yul\":3128:3133   */\n      dup2\n        /* \"#utility.yul\":3110:3134   */\n      tag_161\n      jump\t// in\n    tag_160:\n        /* \"#utility.yul\":3105:3108   */\n      dup3\n        /* \"#utility.yul\":3098:3135   */\n      mstore\n        /* \"#utility.yul\":3023:3141   */\n      pop\n      pop\n      jump\t// out\n        /* \"#utility.yul\":3147:3256   */\n    tag_162:\n        /* \"#utility.yul\":3228:3249   */\n      tag_164\n        /* \"#utility.yul\":3243:3248   */\n      dup2\n        /* \"#utility.yul\":3228:3249   */\n      tag_165\n      jump\t// in\n    tag_164:\n        /* \"#utility.yul\":3223:3226   */\n      dup3\n        /* \"#utility.yul\":3216:3250   */\n      mstore\n        /* \"#utility.yul\":3147:3256   */\n      pop\n      pop\n      jump\t// out\n        /* \"#utility.yul\":3262:3622   */\n    tag_166:\n        /* \"#utility.yul\":3348:3351   */\n      0x00\n        /* \"#utility.yul\":3376:3414   */\n      tag_168\n        /* \"#utility.yul\":3408:3413   */\n      dup3\n        /* \"#utility.yul\":3376:3414   */\n      tag_169\n      jump\t// in\n    tag_168:\n        /* \"#utility.yul\":3430:3500   */\n      tag_170\n        /* \"#utility.yul\":3493:3499   */\n      dup2\n        /* \"#utility.yul\":3488:3491   */\n      dup6\n        /* \"#utility.yul\":3430:3500   */\n      tag_171\n      jump\t// in\n    tag_170:\n        /* \"#utility.yul\":3423:3500   */\n      swap4\n      pop\n        /* \"#utility.yul\":3509:3561   */\n      tag_172\n        /* \"#utility.yul\":3554:3560   */\n      dup2\n        /* \"#utility.yul\":3549:3552   */\n      dup6\n        /* \"#utility.yul\":3542:3546   */\n      0x20\n        /* \"#utility.yul\":3535:3540   */\n      dup7\n        /* \"#utility.yul\":3531:3547   */\n      add\n        /* \"#utility.yul\":3509:3561   */\n      tag_173\n      jump\t// in\n    tag_172:\n        /* \"#utility.yul\":3586:3615   */\n      tag_174\n        /* \"#utility.yul\":3608:3614   */\n      dup2\n        /* \"#utility.yul\":3586:3615   */\n      tag_175\n      jump\t// in\n    tag_174:\n        /* \"#utility.yul\":3581:3584   */\n      dup5\n        /* \"#utility.yul\":3577:3616   */\n      add\n        /* \"#utility.yul\":3570:3616   */\n      swap2\n      pop\n        /* \"#utility.yul\":3352:3622   */\n      pop\n        /* \"#utility.yul\":3262:3622   */\n      swap3\n      swap2\n      pop\n      pop\n      jump\t// out\n        /* \"#utility.yul\":3628:3746   */\n    tag_176:\n        /* \"#utility.yul\":3715:3739   */\n      tag_178\n        /* \"#utility.yul\":3733:3738   */\n      dup2\n        /* \"#utility.yul\":3715:3739   */\n      tag_179\n      jump\t// in\n    tag_178:\n        /* \"#utility.yul\":3710:3713   */\n      dup3\n        /* \"#utility.yul\":3703:3740   */\n      mstore\n        /* \"#utility.yul\":3628:3746   */\n      pop\n      pop\n      jump\t// out\n        /* \"#utility.yul\":3752:4194   */\n    tag_16:\n        /* \"#utility.yul\":3901:3905   */\n      0x00\n        /* \"#utility.yul\":3939:3941   */\n      0x60\n        /* \"#utility.yul\":3928:3937   */\n      dup3\n        /* \"#utility.yul\":3924:3942   */\n      add\n        /* \"#utility.yul\":3916:3942   */\n      swap1\n      pop\n        /* \"#utility.yul\":3952:4023   */\n      tag_181\n        /* \"#utility.yul\":4020:4021   */\n      0x00\n        /* \"#utility.yul\":4009:4018   */\n      dup4\n        /* \"#utility.yul\":4005:4022   */\n      add\n        /* \"#utility.yul\":3996:4002   */\n      dup7\n        /* \"#utility.yul\":3952:4023   */\n      tag_158\n      jump\t// in\n    tag_181:\n        /* \"#utility.yul\":4033:4105   */\n      tag_182\n        /* \"#utility.yul\":4101:4103   */\n      0x20\n        /* \"#utility.yul\":4090:4099   */\n      dup4\n        /* \"#utility.yul\":4086:4104   */\n      add\n        /* \"#utility.yul\":4077:4083   */\n      dup6\n        /* \"#utility.yul\":4033:4105   */\n      tag_176\n      jump\t// in\n    tag_182:\n        /* \"#utility.yul\":4115:4187   */\n      tag_183\n        /* \"#utility.yul\":4183:4185   */\n      0x40\n        /* \"#utility.yul\":4172:4181   */\n      dup4\n        /* \"#utility.yul\":4168:4186   */\n      add\n        /* \"#utility.yul\":4159:4165   */\n      dup5\n        /* \"#utility.yul\":4115:4187   */\n      tag_176\n      jump\t// in\n    tag_183:\n        /* \"#utility.yul\":3752:4194   */\n      swap5\n      swap4\n      pop\n      pop\n      pop\n      pop\n      jump\t// out\n        /* \"#utility.yul\":4200:4410   */\n    tag_28:\n        /* \"#utility.yul\":4287:4291   */\n      0x00\n        /* \"#utility.yul\":4325:4327   */\n      0x20\n        /* \"#utility.yul\":4314:4323   */\n      dup3\n        /* \"#utility.yul\":4310:4328   */\n      add\n        /* \"#utility.yul\":4302:4328   */\n      swap1\n      pop\n        /* \"#utility.yul\":4338:4403   */\n      tag_185\n        /* \"#utility.yul\":4400:4401   */\n      0x00\n        /* \"#utility.yul\":4389:4398   */\n      dup4\n        /* \"#utility.yul\":4385:4402   */\n      add\n        /* \"#utility.yul\":4376:4382   */\n      dup5\n        /* \"#utility.yul\":4338:4403   */\n      tag_162\n      jump\t// in\n    tag_185:\n        /* \"#utility.yul\":4200:4410   */\n      swap3\n      swap2\n      pop\n      pop\n      jump\t// out\n        /* \"#utility.yul\":4416:4638   */\n    tag_54:\n        /* \"#utility.yul\":4509:4513   */\n      0x00\n        /* \"#utility.yul\":4547:4549   */\n      0x20\n        /* \"#utility.yul\":4536:4545   */\n      dup3\n        /* \"#utility.yul\":4532:4550   */\n      add\n        /* \"#utility.yul\":4524:4550   */\n      swap1\n      pop\n        /* \"#utility.yul\":4560:4631   */\n      tag_187\n        /* \"#utility.yul\":4628:4629   */\n      0x00\n        /* \"#utility.yul\":4617:4626   */\n      dup4\n        /* \"#utility.yul\":4613:4630   */\n      add\n        /* \"#utility.yul\":4604:4610   */\n      dup5\n        /* \"#utility.yul\":4560:4631   */\n      tag_176\n      jump\t// in\n    tag_187:\n        /* \"#utility.yul\":4416:4638   */\n      swap3\n      swap2\n      pop\n      pop\n      jump\t// out\n        /* \"#utility.yul\":4644:5494   */\n    tag_44:\n        /* \"#utility.yul\":4889:4893   */\n      0x00\n        /* \"#utility.yul\":4927:4930   */\n      0xc0\n        /* \"#utility.yul\":4916:4925   */\n      dup3\n        /* \"#utility.yul\":4912:4931   */\n      add\n        /* \"#utility.yul\":4904:4931   */\n      swap1\n      pop\n        /* \"#utility.yul\":4941:5012   */\n      tag_189\n        /* \"#utility.yul\":5009:5010   */\n      0x00\n        /* \"#utility.yul\":4998:5007   */\n      dup4\n        /* \"#utility.yul\":4994:5011   */\n      add\n        /* \"#utility.yul\":4985:4991   */\n      dup10\n        /* \"#utility.yul\":4941:5012   */\n      tag_176\n      jump\t// in\n    tag_189:\n        /* \"#utility.yul\":5022:5094   */\n      tag_190\n        /* \"#utility.yul\":5090:5092   */\n      0x20\n        /* \"#utility.yul\":5079:5088   */\n      dup4\n        /* \"#utility.yul\":5075:5093   */\n      add\n        /* \"#utility.yul\":5066:5072   */\n      dup9\n        /* \"#utility.yul\":5022:5094   */\n      tag_158\n      jump\t// in\n    tag_190:\n        /* \"#utility.yul\":5104:5176   */\n      tag_191\n        /* \"#utility.yul\":5172:5174   */\n      0x40\n        /* \"#utility.yul\":5161:5170   */\n      dup4\n        /* \"#utility.yul\":5157:5175   */\n      add\n        /* \"#utility.yul\":5148:5154   */\n      dup8\n        /* \"#utility.yul\":5104:5176   */\n      tag_176\n      jump\t// in\n    tag_191:\n        /* \"#utility.yul\":5223:5232   */\n      dup2\n        /* \"#utility.yul\":5217:5221   */\n      dup2\n        /* \"#utility.yul\":5213:5233   */\n      sub\n        /* \"#utility.yul\":5208:5210   */\n      0x60\n        /* \"#utility.yul\":5197:5206   */\n      dup4\n        /* \"#utility.yul\":5193:5211   */\n      add\n        /* \"#utility.yul\":5186:5234   */\n      mstore\n        /* \"#utility.yul\":5251:5327   */\n      tag_192\n        /* \"#utility.yul\":5322:5326   */\n      dup2\n        /* \"#utility.yul\":5313:5319   */\n      dup7\n        /* \"#utility.yul\":5251:5327   */\n      tag_166\n      jump\t// in\n    tag_192:\n        /* \"#utility.yul\":5243:5327   */\n      swap1\n      pop\n        /* \"#utility.yul\":5337:5410   */\n      tag_193\n        /* \"#utility.yul\":5405:5408   */\n      0x80\n        /* \"#utility.yul\":5394:5403   */\n      dup4\n        /* \"#utility.yul\":5390:5409   */\n      add\n        /* \"#utility.yul\":5381:5387   */\n      dup6\n        /* \"#utility.yul\":5337:5410   */\n      tag_176\n      jump\t// in\n    tag_193:\n        /* \"#utility.yul\":5420:5487   */\n      tag_194\n        /* \"#utility.yul\":5482:5485   */\n      0xa0\n        /* \"#utility.yul\":5471:5480   */\n      dup4\n        /* \"#utility.yul\":5467:5486   */\n      add\n        /* \"#utility.yul\":5458:5464   */\n      dup5\n        /* \"#utility.yul\":5420:5487   */\n      tag_162\n      jump\t// in\n    tag_194:\n        /* \"#utility.yul\":4644:5494   */\n      swap8\n      swap7\n      pop\n      pop\n      pop\n      pop\n      pop\n      pop\n      pop\n      jump\t// out\n        /* \"#utility.yul\":5500:5629   */\n    tag_115:\n        /* \"#utility.yul\":5534:5540   */\n      0x00\n        /* \"#utility.yul\":5561:5581   */\n      tag_196\n      tag_197\n      jump\t// in\n    tag_196:\n        /* \"#utility.yul\":5551:5581   */\n      swap1\n      pop\n        /* \"#utility.yul\":5590:5623   */\n      tag_198\n        /* \"#utility.yul\":5618:5622   */\n      dup3\n        /* \"#utility.yul\":5610:5616   */\n      dup3\n        /* \"#utility.yul\":5590:5623   */\n      tag_199\n      jump\t// in\n    tag_198:\n        /* \"#utility.yul\":5500:5629   */\n      swap2\n      swap1\n      pop\n      jump\t// out\n        /* \"#utility.yul\":5635:5710   */\n    tag_197:\n        /* \"#utility.yul\":5668:5674   */\n      0x00\n        /* \"#utility.yul\":5701:5703   */\n      0x40\n        /* \"#utility.yul\":5695:5704   */\n      mload\n        /* \"#utility.yul\":5685:5704   */\n      swap1\n      pop\n        /* \"#utility.yul\":5635:5710   */\n      swap1\n      jump\t// out\n        /* \"#utility.yul\":5716:6023   */\n    tag_114:\n        /* \"#utility.yul\":5777:5781   */\n      0x00\n        /* \"#utility.yul\":5867:5885   */\n      0xffffffffffffffff\n        /* \"#utility.yul\":5859:5865   */\n      dup3\n        /* \"#utility.yul\":5856:5886   */\n      gt\n        /* \"#utility.yul\":5853:5909   */\n      iszero\n      tag_202\n      jumpi\n        /* \"#utility.yul\":5889:5907   */\n      tag_203\n      tag_204\n      jump\t// in\n    tag_203:\n        /* \"#utility.yul\":5853:5909   */\n    tag_202:\n        /* \"#utility.yul\":5927:5956   */\n      tag_205\n        /* \"#utility.yul\":5949:5955   */\n      dup3\n        /* \"#utility.yul\":5927:5956   */\n      tag_175\n      jump\t// in\n    tag_205:\n        /* \"#utility.yul\":5919:5956   */\n      swap1\n      pop\n        /* \"#utility.yul\":6011:6015   */\n      0x20\n        /* \"#utility.yul\":6005:6009   */\n      dup2\n        /* \"#utility.yul\":6001:6016   */\n      add\n        /* \"#utility.yul\":5993:6016   */\n      swap1\n      pop\n        /* \"#utility.yul\":5716:6023   */\n      swap2\n      swap1\n      pop\n      jump\t// out\n        /* \"#utility.yul\":6029:6127   */\n    tag_169:\n        /* \"#utility.yul\":6080:6086   */\n      0x00\n        /* \"#utility.yul\":6114:6119   */\n      dup2\n        /* \"#utility.yul\":6108:6120   */\n      mload\n        /* \"#utility.yul\":6098:6120   */\n      swap1\n      pop\n        /* \"#utility.yul\":6029:6127   */\n      swap2\n      swap1\n      pop\n      jump\t// out\n        /* \"#utility.yul\":6133:6301   */\n    tag_171:\n        /* \"#utility.yul\":6216:6227   */\n      0x00\n        /* \"#utility.yul\":6250:6256   */\n      dup3\n        /* \"#utility.yul\":6245:6248   */\n      dup3\n        /* \"#utility.yul\":6238:6257   */\n      mstore\n        /* \"#utility.yul\":6290:6294   */\n      0x20\n        /* \"#utility.yul\":6285:6288   */\n      dup3\n        /* \"#utility.yul\":6281:6295   */\n      add\n        /* \"#utility.yul\":6266:6295   */\n      swap1\n      pop\n        /* \"#utility.yul\":6133:6301   */\n      swap3\n      swap2\n      pop\n      pop\n      jump\t// out\n        /* \"#utility.yul\":6307:6403   */\n    tag_161:\n        /* \"#utility.yul\":6344:6351   */\n      0x00\n        /* \"#utility.yul\":6373:6397   */\n      tag_209\n        /* \"#utility.yul\":6391:6396   */\n      dup3\n        /* \"#utility.yul\":6373:6397   */\n      tag_210\n      jump\t// in\n    tag_209:\n        /* \"#utility.yul\":6362:6397   */\n      swap1\n      pop\n        /* \"#utility.yul\":6307:6403   */\n      swap2\n      swap1\n      pop\n      jump\t// out\n        /* \"#utility.yul\":6409:6499   */\n    tag_165:\n        /* \"#utility.yul\":6443:6450   */\n      0x00\n        /* \"#utility.yul\":6486:6491   */\n      dup2\n        /* \"#utility.yul\":6479:6492   */\n      iszero\n        /* \"#utility.yul\":6472:6493   */\n      iszero\n        /* \"#utility.yul\":6461:6493   */\n      swap1\n      pop\n        /* \"#utility.yul\":6409:6499   */\n      swap2\n      swap1\n      pop\n      jump\t// out\n        /* \"#utility.yul\":6505:6631   */\n    tag_210:\n        /* \"#utility.yul\":6542:6549   */\n      0x00\n        /* \"#utility.yul\":6582:6624   */\n      0xffffffffffffffffffffffffffffffffffffffff\n        /* \"#utility.yul\":6575:6580   */\n      dup3\n        /* \"#utility.yul\":6571:6625   */\n      and\n        /* \"#utility.yul\":6560:6625   */\n      swap1\n      pop\n        /* \"#utility.yul\":6505:6631   */\n      swap2\n      swap1\n      pop\n      jump\t// out\n        /* \"#utility.yul\":6637:6714   */\n    tag_179:\n        /* \"#utility.yul\":6674:6681   */\n      0x00\n        /* \"#utility.yul\":6703:6708   */\n      dup2\n        /* \"#utility.yul\":6692:6708   */\n      swap1\n      pop\n        /* \"#utility.yul\":6637:6714   */\n      swap2\n      swap1\n      pop\n      jump\t// out\n        /* \"#utility.yul\":6720:6874   */\n    tag_120:\n        /* \"#utility.yul\":6804:6810   */\n      dup3\n        /* \"#utility.yul\":6799:6802   */\n      dup2\n        /* \"#utility.yul\":6794:6797   */\n      dup4\n        /* \"#utility.yul\":6781:6811   */\n      calldatacopy\n        /* \"#utility.yul\":6866:6867   */\n      0x00\n        /* \"#utility.yul\":6857:6863   */\n      dup4\n        /* \"#utility.yul\":6852:6855   */\n      dup4\n        /* \"#utility.yul\":6848:6864   */\n      add\n        /* \"#utility.yul\":6841:6868   */\n      mstore\n        /* \"#utility.yul\":6720:6874   */\n      pop\n      pop\n      pop\n      jump\t// out\n        /* \"#utility.yul\":6880:7187   */\n    tag_173:\n        /* \"#utility.yul\":6948:6949   */\n      0x00\n        /* \"#utility.yul\":6958:7071   */\n    tag_216:\n        /* \"#utility.yul\":6972:6978   */\n      dup4\n        /* \"#utility.yul\":6969:6970   */\n      dup2\n        /* \"#utility.yul\":6966:6979   */\n      lt\n        /* \"#utility.yul\":6958:7071   */\n      iszero\n      tag_218\n      jumpi\n        /* \"#utility.yul\":7057:7058   */\n      dup1\n        /* \"#utility.yul\":7052:7055   */\n      dup3\n        /* \"#utility.yul\":7048:7059   */\n      add\n        /* \"#utility.yul\":7042:7060   */\n      mload\n        /* \"#utility.yul\":7038:7039   */\n      dup2\n        /* \"#utility.yul\":7033:7036   */\n      dup5\n        /* \"#utility.yul\":7029:7040   */\n      add\n        /* \"#utility.yul\":7022:7061   */\n      mstore\n        /* \"#utility.yul\":6994:6996   */\n      0x20\n        /* \"#utility.yul\":6991:6992   */\n      dup2\n        /* \"#utility.yul\":6987:6997   */\n      add\n        /* \"#utility.yul\":6982:6997   */\n      swap1\n      pop\n        /* \"#utility.yul\":6958:7071   */\n      jump(tag_216)\n    tag_218:\n        /* \"#utility.yul\":7089:7095   */\n      dup4\n        /* \"#utility.yul\":7086:7087   */\n      dup2\n        /* \"#utility.yul\":7083:7096   */\n      gt\n        /* \"#utility.yul\":7080:7181   */\n      iszero\n      tag_219\n      jumpi\n        /* \"#utility.yul\":7169:7170   */\n      0x00\n        /* \"#utility.yul\":7160:7166   */\n      dup5\n        /* \"#utility.yul\":7155:7158   */\n      dup5\n        /* \"#utility.yul\":7151:7167   */\n      add\n        /* \"#utility.yul\":7144:7171   */\n      mstore\n        /* \"#utility.yul\":7080:7181   */\n    tag_219:\n        /* \"#utility.yul\":6929:7187   */\n      pop\n        /* \"#utility.yul\":6880:7187   */\n      pop\n      pop\n      pop\n      jump\t// out\n        /* \"#utility.yul\":7193:7364   */\n    tag_82:\n        /* \"#utility.yul\":7232:7235   */\n      0x00\n        /* \"#utility.yul\":7255:7279   */\n      tag_221\n        /* \"#utility.yul\":7273:7278   */\n      dup3\n        /* \"#utility.yul\":7255:7279   */\n      tag_179\n      jump\t// in\n    tag_221:\n        /* \"#utility.yul\":7246:7279   */\n      swap2\n      pop\n        /* \"#utility.yul\":7301:7305   */\n      0x00\n        /* \"#utility.yul\":7294:7299   */\n      dup3\n        /* \"#utility.yul\":7291:7306   */\n      eq\n        /* \"#utility.yul\":7288:7329   */\n      iszero\n      tag_222\n      jumpi\n        /* \"#utility.yul\":7309:7327   */\n      tag_223\n      tag_224\n      jump\t// in\n    tag_223:\n        /* \"#utility.yul\":7288:7329   */\n    tag_222:\n        /* \"#utility.yul\":7356:7357   */\n      0x01\n        /* \"#utility.yul\":7349:7354   */\n      dup3\n        /* \"#utility.yul\":7345:7358   */\n      sub\n        /* \"#utility.yul\":7338:7358   */\n      swap1\n      pop\n        /* \"#utility.yul\":7193:7364   */\n      swap2\n      swap1\n      pop\n      jump\t// out\n        /* \"#utility.yul\":7370:7690   */\n    tag_85:\n        /* \"#utility.yul\":7414:7420   */\n      0x00\n        /* \"#utility.yul\":7451:7452   */\n      0x02\n        /* \"#utility.yul\":7445:7449   */\n      dup3\n        /* \"#utility.yul\":7441:7453   */\n      div\n        /* \"#utility.yul\":7431:7453   */\n      swap1\n      pop\n        /* \"#utility.yul\":7498:7499   */\n      0x01\n        /* \"#utility.yul\":7492:7496   */\n      dup3\n        /* \"#utility.yul\":7488:7500   */\n      and\n        /* \"#utility.yul\":7519:7537   */\n      dup1\n        /* \"#utility.yul\":7509:7590   */\n      tag_226\n      jumpi\n        /* \"#utility.yul\":7575:7579   */\n      0x7f\n        /* \"#utility.yul\":7567:7573   */\n      dup3\n        /* \"#utility.yul\":7563:7580   */\n      and\n        /* \"#utility.yul\":7553:7580   */\n      swap2\n      pop\n        /* \"#utility.yul\":7509:7590   */\n    tag_226:\n        /* \"#utility.yul\":7637:7639   */\n      0x20\n        /* \"#utility.yul\":7629:7635   */\n      dup3\n        /* \"#utility.yul\":7626:7640   */\n      lt\n        /* \"#utility.yul\":7606:7624   */\n      dup2\n        /* \"#utility.yul\":7603:7641   */\n      eq\n        /* \"#utility.yul\":7600:7684   */\n      iszero\n      tag_227\n      jumpi\n        /* \"#utility.yul\":7656:7674   */\n      tag_228\n      tag_229\n      jump\t// in\n    tag_228:\n        /* \"#utility.yul\":7600:7684   */\n    tag_227:\n        /* \"#utility.yul\":7421:7690   */\n      pop\n        /* \"#utility.yul\":7370:7690   */\n      swap2\n      swap1\n      pop\n      jump\t// out\n        /* \"#utility.yul\":7696:7977   */\n    tag_199:\n        /* \"#utility.yul\":7779:7806   */\n      tag_231\n        /* \"#utility.yul\":7801:7805   */\n      dup3\n        /* \"#utility.yul\":7779:7806   */\n      tag_175\n      jump\t// in\n    tag_231:\n        /* \"#utility.yul\":7771:7777   */\n      dup2\n        /* \"#utility.yul\":7767:7807   */\n      add\n        /* \"#utility.yul\":7909:7915   */\n      dup2\n        /* \"#utility.yul\":7897:7907   */\n      dup2\n        /* \"#utility.yul\":7894:7916   */\n      lt\n        /* \"#utility.yul\":7873:7891   */\n      0xffffffffffffffff\n        /* \"#utility.yul\":7861:7871   */\n      dup3\n        /* \"#utility.yul\":7858:7892   */\n      gt\n        /* \"#utility.yul\":7855:7917   */\n      or\n        /* \"#utility.yul\":7852:7940   */\n      iszero\n      tag_232\n      jumpi\n        /* \"#utility.yul\":7920:7938   */\n      tag_233\n      tag_204\n      jump\t// in\n    tag_233:\n        /* \"#utility.yul\":7852:7940   */\n    tag_232:\n        /* \"#utility.yul\":7960:7970   */\n      dup1\n        /* \"#utility.yul\":7956:7958   */\n      0x40\n        /* \"#utility.yul\":7949:7971   */\n      mstore\n        /* \"#utility.yul\":7739:7977   */\n      pop\n        /* \"#utility.yul\":7696:7977   */\n      pop\n      pop\n      jump\t// out\n        /* \"#utility.yul\":7983:8216   */\n    tag_72:\n        /* \"#utility.yul\":8022:8025   */\n      0x00\n        /* \"#utility.yul\":8045:8069   */\n      tag_235\n        /* \"#utility.yul\":8063:8068   */\n      dup3\n        /* \"#utility.yul\":8045:8069   */\n      tag_179\n      jump\t// in\n    tag_235:\n        /* \"#utility.yul\":8036:8069   */\n      swap2\n      pop\n        /* \"#utility.yul\":8091:8157   */\n      0xffffffffffffffffffffffffffffffffffffffffffffffffffffffffffffffff\n        /* \"#utility.yul\":8084:8089   */\n      dup3\n        /* \"#utility.yul\":8081:8158   */\n      eq\n        /* \"#utility.yul\":8078:8181   */\n      iszero\n      tag_236\n      jumpi\n        /* \"#utility.yul\":8161:8179   */\n      tag_237\n      tag_224\n      jump\t// in\n    tag_237:\n        /* \"#utility.yul\":8078:8181   */\n    tag_236:\n        /* \"#utility.yul\":8208:8209   */\n      0x01\n        /* \"#utility.yul\":8201:8206   */\n      dup3\n        /* \"#utility.yul\":8197:8210   */\n      add\n        /* \"#utility.yul\":8190:8210   */\n      swap1\n      pop\n        /* \"#utility.yul\":7983:8216   */\n      swap2\n      swap1\n      pop\n      jump\t// out\n        /* \"#utility.yul\":8222:8402   */\n    tag_224:\n        /* \"#utility.yul\":8270:8347   */\n      0x4e487b7100000000000000000000000000000000000000000000000000000000\n        /* \"#utility.yul\":8267:8268   */\n      0x00\n        /* \"#utility.yul\":8260:8348   */\n      mstore\n        /* \"#utility.yul\":8367:8371   */\n      0x11\n        /* \"#utility.yul\":8364:8365   */\n      0x04\n        /* \"#utility.yul\":8357:8372   */\n      mstore\n        /* \"#utility.yul\":8391:8395   */\n      0x24\n        /* \"#utility.yul\":8388:8389   */\n      0x00\n        /* \"#utility.yul\":8381:8396   */\n      revert\n        /* \"#utility.yul\":8408:8588   */\n    tag_229:\n        /* \"#utility.yul\":8456:8533   */\n      0x4e487b7100000000000000000000000000000000000000000000000000000000\n        /* \"#utility.yul\":8453:8454   */\n      0x00\n        /* \"#utility.yul\":8446:8534   */\n      mstore\n        /* \"#utility.yul\":8553:8557   */\n      0x22\n        /* \"#utility.yul\":8550:8551   */\n      0x04\n        /* \"#utility.yul\":8543:8558   */\n      mstore\n        /* \"#utility.yul\":8577:8581   */\n      0x24\n        /* \"#utility.yul\":8574:8575   */\n      0x00\n        /* \"#utility.yul\":8567:8582   */\n      revert\n        /* \"#utility.yul\":8594:8774   */\n    tag_204:\n        /* \"#utility.yul\":8642:8719   */\n      0x4e487b7100000000000000000000000000000000000000000000000000000000\n        /* \"#utility.yul\":8639:8640   */\n      0x00\n        /* \"#utility.yul\":8632:8720   */\n      mstore\n        /* \"#utility.yul\":8739:8743   */\n      0x41\n        /* \"#utility.yul\":8736:8737   */\n      0x04\n        /* \"#utility.yul\":8729:8744   */\n      mstore\n        /* \"#utility.yul\":8763:8767   */\n      0x24\n        /* \"#utility.yul\":8760:8761   */\n      0x00\n        /* \"#utility.yul\":8753:8768   */\n      revert\n        /* \"#utility.yul\":8780:8897   */\n    tag_129:\n        /* \"#utility.yul\":8889:8890   */\n      0x00\n        /* \"#utility.yul\":8886:8887   */\n      dup1\n        /* \"#utility.yul\":8879:8891   */\n      revert\n        /* \"#utility.yul\":8903:9020   */\n    tag_118:\n        /* \"#utility.yul\":9012:9013   */\n      0x00\n        /* \"#utility.yul\":9009:9010   */\n      dup1\n        /* \"#utility.yul\":9002:9014   */\n      revert\n        /* \"#utility.yul\":9026:9143   */\n    tag_147:\n        /* \"#utility.yul\":9135:9136   */\n      0x00\n        /* \"#utility.yul\":9132:9133   */\n      dup1\n        /* \"#utility.yul\":9125:9137   */\n      revert\n        /* \"#utility.yul\":9149:9266   */\n    tag_138:\n        /* \"#utility.yul\":9258:9259   */\n      0x00\n        /* \"#utility.yul\":9255:9256   */\n      dup1\n        /* \"#utility.yul\":9248:9260   */\n      revert\n        /* \"#utility.yul\":9272:9374   */\n    tag_175:\n        /* \"#utility.yul\":9313:9319   */\n      0x00\n        /* \"#utility.yul\":9364:9366   */\n      0x1f\n        /* \"#utility.yul\":9360:9367   */\n      not\n        /* \"#utility.yul\":9355:9357   */\n      0x1f\n        /* \"#utility.yul\":9348:9353   */\n      dup4\n        /* \"#utility.yul\":9344:9358   */\n      add\n        /* \"#utility.yul\":9340:9368   */\n      and\n        /* \"#utility.yul\":9330:9368   */\n      swap1\n      pop\n        /* \"#utility.yul\":9272:9374   */\n      swap2\n      swap1\n      pop\n      jump\t// out\n        /* \"#utility.yul\":9380:9502   */\n    tag_124:\n        /* \"#utility.yul\":9453:9477   */\n      tag_247\n        /* \"#utility.yul\":9471:9476   */\n      dup2\n        /* \"#utility.yul\":9453:9477   */\n      tag_161\n      jump\t// in\n    tag_247:\n        /* \"#utility.yul\":9446:9451   */\n      dup2\n        /* \"#utility.yul\":9443:9478   */\n      eq\n        /* \"#utility.yul\":9433:9496   */\n      tag_248\n      jumpi\n        /* \"#utility.yul\":9492:9493   */\n      0x00\n        /* \"#utility.yul\":9489:9490   */\n      dup1\n        /* \"#utility.yul\":9482:9494   */\n      revert\n        /* \"#utility.yul\":9433:9496   */\n    tag_248:\n        /* \"#utility.yul\":9380:9502   */\n      pop\n      jump\t// out\n        /* \"#utility.yul\":9508:9630   */\n    tag_134:\n        /* \"#utility.yul\":9581:9605   */\n      tag_250\n        /* \"#utility.yul\":9599:9604   */\n      dup2\n        /* \"#utility.yul\":9581:9605   */\n      tag_179\n      jump\t// in\n    tag_250:\n        /* \"#utility.yul\":9574:9579   */\n      dup2\n        /* \"#utility.yul\":9571:9606   */\n      eq\n        /* \"#utility.yul\":9561:9624   */\n      tag_251\n      jumpi\n        /* \"#utility.yul\":9620:9621   */\n      0x00\n        /* \"#utility.yul\":9617:9618   */\n      dup1\n        /* \"#utility.yul\":9610:9622   */\n      revert\n        /* \"#utility.yul\":9561:9624   */\n    tag_251:\n        /* \"#utility.yul\":9508:9630   */\n      pop\n      jump\t// out\n\n    auxdata: 0xa264697066735822122056d74e7045bfb4280860ecda87a5991e8ae9d89bd2ab457ff5cdeb0caff2ca5f64736f6c63430008070033\n}\n",
				"bytecode": {
					"linkReferences": {},
					"object": "60806040523480156200001157600080fd5b50604051620015843803806200158483398181016040528101906200003791906200026c565b805182111562000073576040517f2730657000000000000000000000000000000000000000000000000000000000815260040160405180910390fd5b60005b8151811015620001875760008282815181106200009857620000976200041b565b5b602002602001015190506000808273ffffffffffffffffffffffffffffffffffffffff1673ffffffffffffffffffffffffffffffffffffffff16815260200190815260200160002060009054906101000a900460ff161562000126576040517fc0159e0e00000000000000000000000000000000000000000000000000000000815260040160405180910390fd5b6000808273ffffffffffffffffffffffffffffffffffffffff1673ffffffffffffffffffffffffffffffffffffffff16815260200190815260200160002060009054906101000a9050505080806200017e906200039e565b91505062000076565b505050620004d2565b6000620001a7620001a184620002fb565b620002d2565b90508083825260208201905082856020860282011115620001cd57620001cc6200047e565b5b60005b85811015620002015781620001e688826200020b565b845260208401935060208301925050600181019050620001d0565b5050509392505050565b6000815190506200021c816200049e565b92915050565b600082601f8301126200023a576200023962000479565b5b81516200024c84826020860162000190565b91505092915050565b6000815190506200026681620004b8565b92915050565b6000806040838503121562000286576200028562000488565b5b6000620002968582860162000255565b925050602083015167ffffffffffffffff811115620002ba57620002b962000483565b5b620002c88582860162000222565b9150509250929050565b6000620002de620002f1565b9050620002ec828262000368565b919050565b6000604051905090565b600067ffffffffffffffff8211156200031957620003186200044a565b5b602082029050602081019050919050565b600062000337826200033e565b9050919050565b600073ffffffffffffffffffffffffffffffffffffffff82169050919050565b6000819050919050565b62000373826200048d565b810181811067ffffffffffffffff821117156200039557620003946200044a565b5b80604052505050565b6000620003ab826200035e565b91507fffffffffffffffffffffffffffffffffffffffffffffffffffffffffffffffff821415620003e157620003e0620003ec565b5b600182019050919050565b7f4e487b7100000000000000000000000000000000000000000000000000000000600052601160045260246000fd5b7f4e487b7100000000000000000000000000000000000000000000000000000000600052603260045260246000fd5b7f4e487b7100000000000000000000000000000000000000000000000000000000600052604160045260246000fd5b600080fd5b600080fd5b600080fd5b600080fd5b6000601f19601f8301169050919050565b620004a9816200032a565b8114620004b557600080fd5b50565b620004c3816200035e565b8114620004cf57600080fd5b50565b6110a280620004e26000396000f3fe60806040526004361061008a5760003560e01c80639ace38c2116100595780639ace38c21461019d578063bb84c5a9146101df578063cd568d1f14610208578063dc8452cd14610233578063e23fc3ce1461025e576100cc565b80631087393a146100d15780632f54bf6e146100fa5780635986aaca146101375780638253951a14610160576100cc565b366100cc577f90890809c654f11d6e72a28fa60149770a0d11ec6c92319d6ceb2bb0a4ea1a153334476040516100c293929190610ce5565b60405180910390a1005b600080fd5b3480156100dd57600080fd5b506100f860048036038101906100f39190610c12565b610275565b005b34801561010657600080fd5b50610121600480360381019061011c9190610b76565b6104d9565b60405161012e9190610d1c565b60405180910390f35b34801561014357600080fd5b5061015e60048036038101906101599190610c12565b6104f9565b005b34801561016c57600080fd5b5061018760048036038101906101829190610c3f565b610760565b6040516101949190610d1c565b60405180910390f35b3480156101a957600080fd5b506101c460048036038101906101bf9190610c12565b61078f565b6040516101d696959493929190610d52565b60405180910390f35b3480156101eb57600080fd5b5061020660048036038101906102019190610ba3565b610880565b005b34801561021457600080fd5b5061021d6109a9565b60405161022a9190610d37565b60405180910390f35b34801561023f57600080fd5b506102486109af565b6040516102559190610d37565b60405180910390f35b34801561026a57600080fd5b506102736109b5565b005b6000803373ffffffffffffffffffffffffffffffffffffffff1673ffffffffffffffffffffffffffffffffffffffff16815260200190815260200160002060009054906101000a900460ff166102f7576040517f30cd747100000000000000000000000000000000000000000000000000000000815260040160405180910390fd5b8060045460016000600454815260200190815260200160002060000154111561034c576040517fc929b60400000000000000000000000000000000000000000000000000000000815260040160405180910390fd5b816001600082815260200190815260200160002060050160009054906101000a900460ff16156103a8576040517f3ca00aa600000000000000000000000000000000000000000000000000000000815260040160405180910390fd5b826002600082815260200190815260200160002060003373ffffffffffffffffffffffffffffffffffffffff1673ffffffffffffffffffffffffffffffffffffffff16815260200190815260200160002060009054906101000a900460ff161561043e576040517ffcaeab4c00000000000000000000000000000000000000000000000000000000815260040160405180910390fd5b60016000858152602001908152602001600020600401600081548092919061046590610f43565b919050555060016002600086815260200190815260200160002060003373ffffffffffffffffffffffffffffffffffffffff1673ffffffffffffffffffffffffffffffffffffffff16815260200190815260200160002060006101000a81548160ff02191690831515021790555050505050565b60006020528060005260406000206000915054906101000a900460ff1681565b6000803373ffffffffffffffffffffffffffffffffffffffff1673ffffffffffffffffffffffffffffffffffffffff16815260200190815260200160002060009054906101000a900460ff1661057b576040517f30cd747100000000000000000000000000000000000000000000000000000000815260040160405180910390fd5b806004546001600060045481526020019081526020016000206000015411156105d0576040517fc929b60400000000000000000000000000000000000000000000000000000000815260040160405180910390fd5b816001600082815260200190815260200160002060050160009054906101000a900460ff161561062c576040517f3ca00aa600000000000000000000000000000000000000000000000000000000815260040160405180910390fd5b6002600084815260200190815260200160002060003373ffffffffffffffffffffffffffffffffffffffff1673ffffffffffffffffffffffffffffffffffffffff16815260200190815260200160002060009054906101000a900460ff16156107295760006002600085815260200190815260200160002060003373ffffffffffffffffffffffffffffffffffffffff1673ffffffffffffffffffffffffffffffffffffffff16815260200190815260200160002060006101000a81548160ff02191690831515021790555060016000848152602001908152602001600020600401600081548092919061071f90610eb6565b919050555061075b565b6040517f2e5f286200000000000000000000000000000000000000000000000000000000815260040160405180910390fd5b505050565b60026020528160005260406000206020528060005260406000206000915091509054906101000a900460ff1681565b60016020528060005260406000206000915090508060000154908060010160009054906101000a900473ffffffffffffffffffffffffffffffffffffffff16908060020154908060030180546107e490610ee0565b80601f016020809104026020016040519081016040528092919081815260200182805461081090610ee0565b801561085d5780601f106108325761010080835404028352916020019161085d565b820191906000526020600020905b81548152906001019060200180831161084057829003601f168201915b5050505050908060040154908060050160009054906101000a900460ff16905086565b6000803373ffffffffffffffffffffffffffffffffffffffff1673ffffffffffffffffffffffffffffffffffffffff16815260200190815260200160002060009054906101000a900460ff16610902576040517f30cd747100000000000000000000000000000000000000000000000000000000815260040160405180910390fd5b600060016000600454815260200190815260200160002090506004548160000181905550838160010160006101000a81548173ffffffffffffffffffffffffffffffffffffffff021916908373ffffffffffffffffffffffffffffffffffffffff1602179055508281600201819055508181600301908051906020019061098a929190610a39565b506004600081548092919061099e90610f43565b919050555050505050565b60045481565b60035481565b6000803373ffffffffffffffffffffffffffffffffffffffff1673ffffffffffffffffffffffffffffffffffffffff16815260200190815260200160002060009054906101000a900460ff16610a37576040517f30cd747100000000000000000000000000000000000000000000000000000000815260040160405180910390fd5b565b828054610a4590610ee0565b90600052602060002090601f016020900481019282610a675760008555610aae565b82601f10610a8057805160ff1916838001178555610aae565b82800160010185558215610aae579182015b82811115610aad578251825591602001919060010190610a92565b5b509050610abb9190610abf565b5090565b5b80821115610ad8576000816000905550600101610ac0565b5090565b6000610aef610aea84610ddf565b610dba565b905082815260208101848484011115610b0b57610b0a61101e565b5b610b16848285610e74565b509392505050565b600081359050610b2d8161103e565b92915050565b600082601f830112610b4857610b47611019565b5b8135610b58848260208601610adc565b91505092915050565b600081359050610b7081611055565b92915050565b600060208284031215610b8c57610b8b611028565b5b6000610b9a84828501610b1e565b91505092915050565b600080600060608486031215610bbc57610bbb611028565b5b6000610bca86828701610b1e565b9350506020610bdb86828701610b61565b925050604084013567ffffffffffffffff811115610bfc57610bfb611023565b5b610c0886828701610b33565b9150509250925092565b600060208284031215610c2857610c27611028565b5b6000610c3684828501610b61565b91505092915050565b60008060408385031215610c5657610c55611028565b5b6000610c6485828601610b61565b9250506020610c7585828601610b1e565b9150509250929050565b610c8881610e2c565b82525050565b610c9781610e3e565b82525050565b6000610ca882610e10565b610cb28185610e1b565b9350610cc2818560208601610e83565b610ccb8161102d565b840191505092915050565b610cdf81610e6a565b82525050565b6000606082019050610cfa6000830186610c7f565b610d076020830185610cd6565b610d146040830184610cd6565b949350505050565b6000602082019050610d316000830184610c8e565b92915050565b6000602082019050610d4c6000830184610cd6565b92915050565b600060c082019050610d676000830189610cd6565b610d746020830188610c7f565b610d816040830187610cd6565b8181036060830152610d938186610c9d565b9050610da26080830185610cd6565b610daf60a0830184610c8e565b979650505050505050565b6000610dc4610dd5565b9050610dd08282610f12565b919050565b6000604051905090565b600067ffffffffffffffff821115610dfa57610df9610fea565b5b610e038261102d565b9050602081019050919050565b600081519050919050565b600082825260208201905092915050565b6000610e3782610e4a565b9050919050565b60008115159050919050565b600073ffffffffffffffffffffffffffffffffffffffff82169050919050565b6000819050919050565b82818337600083830152505050565b60005b83811015610ea1578082015181840152602081019050610e86565b83811115610eb0576000848401525b50505050565b6000610ec182610e6a565b91506000821415610ed557610ed4610f8c565b5b600182039050919050565b60006002820490506001821680610ef857607f821691505b60208210811415610f0c57610f0b610fbb565b5b50919050565b610f1b8261102d565b810181811067ffffffffffffffff82111715610f3a57610f39610fea565b5b80604052505050565b6000610f4e82610e6a565b91507fffffffffffffffffffffffffffffffffffffffffffffffffffffffffffffffff821415610f8157610f80610f8c565b5b600182019050919050565b7f4e487b7100000000000000000000000000000000000000000000000000000000600052601160045260246000fd5b7f4e487b7100000000000000000000000000000000000000000000000000000000600052602260045260246000fd5b7f4e487b7100000000000000000000000000000000000000000000000000000000600052604160045260246000fd5b600080fd5b600080fd5b600080fd5b600080fd5b6000601f19601f8301169050919050565b61104781610e2c565b811461105257600080fd5b50565b61105e81610e6a565b811461106957600080fd5b5056fea264697066735822122056d74e7045bfb4280860ecda87a5991e8ae9d89bd2ab457ff5cdeb0caff2ca5f64736f6c63430008070033",
					"opcodes": "PUSH1 0x80 PUSH1 0x40 MSTORE CALLVALUE DUP1 ISZERO PUSH3 0x11 JUMPI PUSH1 0x0 DUP1 REVERT JUMPDEST POP PUSH1 0x40 MLOAD PUSH3 0x1584 CODESIZE SUB DUP1 PUSH3 0x1584 DUP4 CODECOPY DUP2 DUP2 ADD PUSH1 0x40 MSTORE DUP2 ADD SWAP1 PUSH3 0x37 SWAP2 SWAP1 PUSH3 0x26C JUMP JUMPDEST DUP1 MLOAD DUP3 GT ISZERO PUSH3 0x73 JUMPI PUSH1 0x40 MLOAD PUSH32 0x2730657000000000000000000000000000000000000000000000000000000000 DUP2 MSTORE PUSH1 0x4 ADD PUSH1 0x40 MLOAD DUP1 SWAP2 SUB SWAP1 REVERT JUMPDEST PUSH1 0x0 JUMPDEST DUP2 MLOAD DUP2 LT ISZERO PUSH3 0x187 JUMPI PUSH1 0x0 DUP3 DUP3 DUP2 MLOAD DUP2 LT PUSH3 0x98 JUMPI PUSH3 0x97 PUSH3 0x41B JUMP JUMPDEST JUMPDEST PUSH1 0x20 MUL PUSH1 0x20 ADD ADD MLOAD SWAP1 POP PUSH1 0x0 DUP1 DUP3 PUSH20 0xFFFFFFFFFFFFFFFFFFFFFFFFFFFFFFFFFFFFFFFF AND PUSH20 0xFFFFFFFFFFFFFFFFFFFFFFFFFFFFFFFFFFFFFFFF AND DUP2 MSTORE PUSH1 0x20 ADD SWAP1 DUP2 MSTORE PUSH1 0x20 ADD PUSH1 0x0 KECCAK256 PUSH1 0x0 SWAP1 SLOAD SWAP1 PUSH2 0x100 EXP SWAP1 DIV PUSH1 0xFF AND ISZERO PUSH3 0x126 JUMPI PUSH1 0x40 MLOAD PUSH32 0xC0159E0E00000000000000000000000000000000000000000000000000000000 DUP2 MSTORE PUSH1 0x4 ADD PUSH1 0x40 MLOAD DUP1 SWAP2 SUB SWAP1 REVERT JUMPDEST PUSH1 0x0 DUP1 DUP3 PUSH20 0xFFFFFFFFFFFFFFFFFFFFFFFFFFFFFFFFFFFFFFFF AND PUSH20 0xFFFFFFFFFFFFFFFFFFFFFFFFFFFFFFFFFFFFFFFF AND DUP2 MSTORE PUSH1 0x20 ADD SWAP1 DUP2 MSTORE PUSH1 0x20 ADD PUSH1 0x0 KECCAK256 PUSH1 0x0 SWAP1 SLOAD SWAP1 PUSH2 0x100 EXP SWAP1 POP POP POP DUP1 DUP1 PUSH3 0x17E SWAP1 PUSH3 0x39E JUMP JUMPDEST SWAP2 POP POP PUSH3 0x76 JUMP JUMPDEST POP POP POP PUSH3 0x4D2 JUMP JUMPDEST PUSH1 0x0 PUSH3 0x1A7 PUSH3 0x1A1 DUP5 PUSH3 0x2FB JUMP JUMPDEST PUSH3 0x2D2 JUMP JUMPDEST SWAP1 POP DUP1 DUP4 DUP3 MSTORE PUSH1 0x20 DUP3 ADD SWAP1 POP DUP3 DUP6 PUSH1 0x20 DUP7 MUL DUP3 ADD GT ISZERO PUSH3 0x1CD JUMPI PUSH3 0x1CC PUSH3 0x47E JUMP JUMPDEST JUMPDEST PUSH1 0x0 JUMPDEST DUP6 DUP2 LT ISZERO PUSH3 0x201 JUMPI DUP2 PUSH3 0x1E6 DUP9 DUP3 PUSH3 0x20B JUMP JUMPDEST DUP5 MSTORE PUSH1 0x20 DUP5 ADD SWAP4 POP PUSH1 0x20 DUP4 ADD SWAP3 POP POP PUSH1 0x1 DUP2 ADD SWAP1 POP PUSH3 0x1D0 JUMP JUMPDEST POP POP POP SWAP4 SWAP3 POP POP POP JUMP JUMPDEST PUSH1 0x0 DUP2 MLOAD SWAP1 POP PUSH3 0x21C DUP2 PUSH3 0x49E JUMP JUMPDEST SWAP3 SWAP2 POP POP JUMP JUMPDEST PUSH1 0x0 DUP3 PUSH1 0x1F DUP4 ADD SLT PUSH3 0x23A JUMPI PUSH3 0x239 PUSH3 0x479 JUMP JUMPDEST JUMPDEST DUP2 MLOAD PUSH3 0x24C DUP5 DUP3 PUSH1 0x20 DUP7 ADD PUSH3 0x190 JUMP JUMPDEST SWAP2 POP POP SWAP3 SWAP2 POP POP JUMP JUMPDEST PUSH1 0x0 DUP2 MLOAD SWAP1 POP PUSH3 0x266 DUP2 PUSH3 0x4B8 JUMP JUMPDEST SWAP3 SWAP2 POP POP JUMP JUMPDEST PUSH1 0x0 DUP1 PUSH1 0x40 DUP4 DUP6 SUB SLT ISZERO PUSH3 0x286 JUMPI PUSH3 0x285 PUSH3 0x488 JUMP JUMPDEST JUMPDEST PUSH1 0x0 PUSH3 0x296 DUP6 DUP3 DUP7 ADD PUSH3 0x255 JUMP JUMPDEST SWAP3 POP POP PUSH1 0x20 DUP4 ADD MLOAD PUSH8 0xFFFFFFFFFFFFFFFF DUP2 GT ISZERO PUSH3 0x2BA JUMPI PUSH3 0x2B9 PUSH3 0x483 JUMP JUMPDEST JUMPDEST PUSH3 0x2C8 DUP6 DUP3 DUP7 ADD PUSH3 0x222 JUMP JUMPDEST SWAP2 POP POP SWAP3 POP SWAP3 SWAP1 POP JUMP JUMPDEST PUSH1 0x0 PUSH3 0x2DE PUSH3 0x2F1 JUMP JUMPDEST SWAP1 POP PUSH3 0x2EC DUP3 DUP3 PUSH3 0x368 JUMP JUMPDEST SWAP2 SWAP1 POP JUMP JUMPDEST PUSH1 0x0 PUSH1 0x40 MLOAD SWAP1 POP SWAP1 JUMP JUMPDEST PUSH1 0x0 PUSH8 0xFFFFFFFFFFFFFFFF DUP3 GT ISZERO PUSH3 0x319 JUMPI PUSH3 0x318 PUSH3 0x44A JUMP JUMPDEST JUMPDEST PUSH1 0x20 DUP3 MUL SWAP1 POP PUSH1 0x20 DUP2 ADD SWAP1 POP SWAP2 SWAP1 POP JUMP JUMPDEST PUSH1 0x0 PUSH3 0x337 DUP3 PUSH3 0x33E JUMP JUMPDEST SWAP1 POP SWAP2 SWAP1 POP JUMP JUMPDEST PUSH1 0x0 PUSH20 0xFFFFFFFFFFFFFFFFFFFFFFFFFFFFFFFFFFFFFFFF DUP3 AND SWAP1 POP SWAP2 SWAP1 POP JUMP JUMPDEST PUSH1 0x0 DUP2 SWAP1 POP SWAP2 SWAP1 POP JUMP JUMPDEST PUSH3 0x373 DUP3 PUSH3 0x48D JUMP JUMPDEST DUP2 ADD DUP2 DUP2 LT PUSH8 0xFFFFFFFFFFFFFFFF DUP3 GT OR ISZERO PUSH3 0x395 JUMPI PUSH3 0x394 PUSH3 0x44A JUMP JUMPDEST JUMPDEST DUP1 PUSH1 0x40 MSTORE POP POP POP JUMP JUMPDEST PUSH1 0x0 PUSH3 0x3AB DUP3 PUSH3 0x35E JUMP JUMPDEST SWAP2 POP PUSH32 0xFFFFFFFFFFFFFFFFFFFFFFFFFFFFFFFFFFFFFFFFFFFFFFFFFFFFFFFFFFFFFFFF DUP3 EQ ISZERO PUSH3 0x3E1 JUMPI PUSH3 0x3E0 PUSH3 0x3EC JUMP JUMPDEST JUMPDEST PUSH1 0x1 DUP3 ADD SWAP1 POP SWAP2 SWAP1 POP JUMP JUMPDEST PUSH32 0x4E487B7100000000000000000000000000000000000000000000000000000000 PUSH1 0x0 MSTORE PUSH1 0x11 PUSH1 0x4 MSTORE PUSH1 0x24 PUSH1 0x0 REVERT JUMPDEST PUSH32 0x4E487B7100000000000000000000000000000000000000000000000000000000 PUSH1 0x0 MSTORE PUSH1 0x32 PUSH1 0x4 MSTORE PUSH1 0x24 PUSH1 0x0 REVERT JUMPDEST PUSH32 0x4E487B7100000000000000000000000000000000000000000000000000000000 PUSH1 0x0 MSTORE PUSH1 0x41 PUSH1 0x4 MSTORE PUSH1 0x24 PUSH1 0x0 REVERT JUMPDEST PUSH1 0x0 DUP1 REVERT JUMPDEST PUSH1 0x0 DUP1 REVERT JUMPDEST PUSH1 0x0 DUP1 REVERT JUMPDEST PUSH1 0x0 DUP1 REVERT JUMPDEST PUSH1 0x0 PUSH1 0x1F NOT PUSH1 0x1F DUP4 ADD AND SWAP1 POP SWAP2 SWAP1 POP JUMP JUMPDEST PUSH3 0x4A9 DUP2 PUSH3 0x32A JUMP JUMPDEST DUP2 EQ PUSH3 0x4B5 JUMPI PUSH1 0x0 DUP1 REVERT JUMPDEST POP JUMP JUMPDEST PUSH3 0x4C3 DUP2 PUSH3 0x35E JUMP JUMPDEST DUP2 EQ PUSH3 0x4CF JUMPI PUSH1 0x0 DUP1 REVERT JUMPDEST POP JUMP JUMPDEST PUSH2 0x10A2 DUP1 PUSH3 0x4E2 PUSH1 0x0 CODECOPY PUSH1 0x0 RETURN INVALID PUSH1 0x80 PUSH1 0x40 MSTORE PUSH1 0x4 CALLDATASIZE LT PUSH2 0x8A JUMPI PUSH1 0x0 CALLDATALOAD PUSH1 0xE0 SHR DUP1 PUSH4 0x9ACE38C2 GT PUSH2 0x59 JUMPI DUP1 PUSH4 0x9ACE38C2 EQ PUSH2 0x19D JUMPI DUP1 PUSH4 0xBB84C5A9 EQ PUSH2 0x1DF JUMPI DUP1 PUSH4 0xCD568D1F EQ PUSH2 0x208 JUMPI DUP1 PUSH4 0xDC8452CD EQ PUSH2 0x233 JUMPI DUP1 PUSH4 0xE23FC3CE EQ PUSH2 0x25E JUMPI PUSH2 0xCC JUMP JUMPDEST DUP1 PUSH4 0x1087393A EQ PUSH2 0xD1 JUMPI DUP1 PUSH4 0x2F54BF6E EQ PUSH2 0xFA JUMPI DUP1 PUSH4 0x5986AACA EQ PUSH2 0x137 JUMPI DUP1 PUSH4 0x8253951A EQ PUSH2 0x160 JUMPI PUSH2 0xCC JUMP JUMPDEST CALLDATASIZE PUSH2 0xCC JUMPI PUSH32 0x90890809C654F11D6E72A28FA60149770A0D11EC6C92319D6CEB2BB0A4EA1A15 CALLER CALLVALUE SELFBALANCE PUSH1 0x40 MLOAD PUSH2 0xC2 SWAP4 SWAP3 SWAP2 SWAP1 PUSH2 0xCE5 JUMP JUMPDEST PUSH1 0x40 MLOAD DUP1 SWAP2 SUB SWAP1 LOG1 STOP JUMPDEST PUSH1 0x0 DUP1 REVERT JUMPDEST CALLVALUE DUP1 ISZERO PUSH2 0xDD JUMPI PUSH1 0x0 DUP1 REVERT JUMPDEST POP PUSH2 0xF8 PUSH1 0x4 DUP1 CALLDATASIZE SUB DUP2 ADD SWAP1 PUSH2 0xF3 SWAP2 SWAP1 PUSH2 0xC12 JUMP JUMPDEST PUSH2 0x275 JUMP JUMPDEST STOP JUMPDEST CALLVALUE DUP1 ISZERO PUSH2 0x106 JUMPI PUSH1 0x0 DUP1 REVERT JUMPDEST POP PUSH2 0x121 PUSH1 0x4 DUP1 CALLDATASIZE SUB DUP2 ADD SWAP1 PUSH2 0x11C SWAP2 SWAP1 PUSH2 0xB76 JUMP JUMPDEST PUSH2 0x4D9 JUMP JUMPDEST PUSH1 0x40 MLOAD PUSH2 0x12E SWAP2 SWAP1 PUSH2 0xD1C JUMP JUMPDEST PUSH1 0x40 MLOAD DUP1 SWAP2 SUB SWAP1 RETURN JUMPDEST CALLVALUE DUP1 ISZERO PUSH2 0x143 JUMPI PUSH1 0x0 DUP1 REVERT JUMPDEST POP PUSH2 0x15E PUSH1 0x4 DUP1 CALLDATASIZE SUB DUP2 ADD SWAP1 PUSH2 0x159 SWAP2 SWAP1 PUSH2 0xC12 JUMP JUMPDEST PUSH2 0x4F9 JUMP JUMPDEST STOP JUMPDEST CALLVALUE DUP1 ISZERO PUSH2 0x16C JUMPI PUSH1 0x0 DUP1 REVERT JUMPDEST POP PUSH2 0x187 PUSH1 0x4 DUP1 CALLDATASIZE SUB DUP2 ADD SWAP1 PUSH2 0x182 SWAP2 SWAP1 PUSH2 0xC3F JUMP JUMPDEST PUSH2 0x760 JUMP JUMPDEST PUSH1 0x40 MLOAD PUSH2 0x194 SWAP2 SWAP1 PUSH2 0xD1C JUMP JUMPDEST PUSH1 0x40 MLOAD DUP1 SWAP2 SUB SWAP1 RETURN JUMPDEST CALLVALUE DUP1 ISZERO PUSH2 0x1A9 JUMPI PUSH1 0x0 DUP1 REVERT JUMPDEST POP PUSH2 0x1C4 PUSH1 0x4 DUP1 CALLDATASIZE SUB DUP2 ADD SWAP1 PUSH2 0x1BF SWAP2 SWAP1 PUSH2 0xC12 JUMP JUMPDEST PUSH2 0x78F JUMP JUMPDEST PUSH1 0x40 MLOAD PUSH2 0x1D6 SWAP7 SWAP6 SWAP5 SWAP4 SWAP3 SWAP2 SWAP1 PUSH2 0xD52 JUMP JUMPDEST PUSH1 0x40 MLOAD DUP1 SWAP2 SUB SWAP1 RETURN JUMPDEST CALLVALUE DUP1 ISZERO PUSH2 0x1EB JUMPI PUSH1 0x0 DUP1 REVERT JUMPDEST POP PUSH2 0x206 PUSH1 0x4 DUP1 CALLDATASIZE SUB DUP2 ADD SWAP1 PUSH2 0x201 SWAP2 SWAP1 PUSH2 0xBA3 JUMP JUMPDEST PUSH2 0x880 JUMP JUMPDEST STOP JUMPDEST CALLVALUE DUP1 ISZERO PUSH2 0x214 JUMPI PUSH1 0x0 DUP1 REVERT JUMPDEST POP PUSH2 0x21D PUSH2 0x9A9 JUMP JUMPDEST PUSH1 0x40 MLOAD PUSH2 0x22A SWAP2 SWAP1 PUSH2 0xD37 JUMP JUMPDEST PUSH1 0x40 MLOAD DUP1 SWAP2 SUB SWAP1 RETURN JUMPDEST CALLVALUE DUP1 ISZERO PUSH2 0x23F JUMPI PUSH1 0x0 DUP1 REVERT JUMPDEST POP PUSH2 0x248 PUSH2 0x9AF JUMP JUMPDEST PUSH1 0x40 MLOAD PUSH2 0x255 SWAP2 SWAP1 PUSH2 0xD37 JUMP JUMPDEST PUSH1 0x40 MLOAD DUP1 SWAP2 SUB SWAP1 RETURN JUMPDEST CALLVALUE DUP1 ISZERO PUSH2 0x26A JUMPI PUSH1 0x0 DUP1 REVERT JUMPDEST POP PUSH2 0x273 PUSH2 0x9B5 JUMP JUMPDEST STOP JUMPDEST PUSH1 0x0 DUP1 CALLER PUSH20 0xFFFFFFFFFFFFFFFFFFFFFFFFFFFFFFFFFFFFFFFF AND PUSH20 0xFFFFFFFFFFFFFFFFFFFFFFFFFFFFFFFFFFFFFFFF AND DUP2 MSTORE PUSH1 0x20 ADD SWAP1 DUP2 MSTORE PUSH1 0x20 ADD PUSH1 0x0 KECCAK256 PUSH1 0x0 SWAP1 SLOAD SWAP1 PUSH2 0x100 EXP SWAP1 DIV PUSH1 0xFF AND PUSH2 0x2F7 JUMPI PUSH1 0x40 MLOAD PUSH32 0x30CD747100000000000000000000000000000000000000000000000000000000 DUP2 MSTORE PUSH1 0x4 ADD PUSH1 0x40 MLOAD DUP1 SWAP2 SUB SWAP1 REVERT JUMPDEST DUP1 PUSH1 0x4 SLOAD PUSH1 0x1 PUSH1 0x0 PUSH1 0x4 SLOAD DUP2 MSTORE PUSH1 0x20 ADD SWAP1 DUP2 MSTORE PUSH1 0x20 ADD PUSH1 0x0 KECCAK256 PUSH1 0x0 ADD SLOAD GT ISZERO PUSH2 0x34C JUMPI PUSH1 0x40 MLOAD PUSH32 0xC929B60400000000000000000000000000000000000000000000000000000000 DUP2 MSTORE PUSH1 0x4 ADD PUSH1 0x40 MLOAD DUP1 SWAP2 SUB SWAP1 REVERT JUMPDEST DUP2 PUSH1 0x1 PUSH1 0x0 DUP3 DUP2 MSTORE PUSH1 0x20 ADD SWAP1 DUP2 MSTORE PUSH1 0x20 ADD PUSH1 0x0 KECCAK256 PUSH1 0x5 ADD PUSH1 0x0 SWAP1 SLOAD SWAP1 PUSH2 0x100 EXP SWAP1 DIV PUSH1 0xFF AND ISZERO PUSH2 0x3A8 JUMPI PUSH1 0x40 MLOAD PUSH32 0x3CA00AA600000000000000000000000000000000000000000000000000000000 DUP2 MSTORE PUSH1 0x4 ADD PUSH1 0x40 MLOAD DUP1 SWAP2 SUB SWAP1 REVERT JUMPDEST DUP3 PUSH1 0x2 PUSH1 0x0 DUP3 DUP2 MSTORE PUSH1 0x20 ADD SWAP1 DUP2 MSTORE PUSH1 0x20 ADD PUSH1 0x0 KECCAK256 PUSH1 0x0 CALLER PUSH20 0xFFFFFFFFFFFFFFFFFFFFFFFFFFFFFFFFFFFFFFFF AND PUSH20 0xFFFFFFFFFFFFFFFFFFFFFFFFFFFFFFFFFFFFFFFF AND DUP2 MSTORE PUSH1 0x20 ADD SWAP1 DUP2 MSTORE PUSH1 0x20 ADD PUSH1 0x0 KECCAK256 PUSH1 0x0 SWAP1 SLOAD SWAP1 PUSH2 0x100 EXP SWAP1 DIV PUSH1 0xFF AND ISZERO PUSH2 0x43E JUMPI PUSH1 0x40 MLOAD PUSH32 0xFCAEAB4C00000000000000000000000000000000000000000000000000000000 DUP2 MSTORE PUSH1 0x4 ADD PUSH1 0x40 MLOAD DUP1 SWAP2 SUB SWAP1 REVERT JUMPDEST PUSH1 0x1 PUSH1 0x0 DUP6 DUP2 MSTORE PUSH1 0x20 ADD SWAP1 DUP2 MSTORE PUSH1 0x20 ADD PUSH1 0x0 KECCAK256 PUSH1 0x4 ADD PUSH1 0x0 DUP2 SLOAD DUP1 SWAP3 SWAP2 SWAP1 PUSH2 0x465 SWAP1 PUSH2 0xF43 JUMP JUMPDEST SWAP2 SWAP1 POP SSTORE POP PUSH1 0x1 PUSH1 0x2 PUSH1 0x0 DUP7 DUP2 MSTORE PUSH1 0x20 ADD SWAP1 DUP2 MSTORE PUSH1 0x20 ADD PUSH1 0x0 KECCAK256 PUSH1 0x0 CALLER PUSH20 0xFFFFFFFFFFFFFFFFFFFFFFFFFFFFFFFFFFFFFFFF AND PUSH20 0xFFFFFFFFFFFFFFFFFFFFFFFFFFFFFFFFFFFFFFFF AND DUP2 MSTORE PUSH1 0x20 ADD SWAP1 DUP2 MSTORE PUSH1 0x20 ADD PUSH1 0x0 KECCAK256 PUSH1 0x0 PUSH2 0x100 EXP DUP2 SLOAD DUP2 PUSH1 0xFF MUL NOT AND SWAP1 DUP4 ISZERO ISZERO MUL OR SWAP1 SSTORE POP POP POP POP POP JUMP JUMPDEST PUSH1 0x0 PUSH1 0x20 MSTORE DUP1 PUSH1 0x0 MSTORE PUSH1 0x40 PUSH1 0x0 KECCAK256 PUSH1 0x0 SWAP2 POP SLOAD SWAP1 PUSH2 0x100 EXP SWAP1 DIV PUSH1 0xFF AND DUP2 JUMP JUMPDEST PUSH1 0x0 DUP1 CALLER PUSH20 0xFFFFFFFFFFFFFFFFFFFFFFFFFFFFFFFFFFFFFFFF AND PUSH20 0xFFFFFFFFFFFFFFFFFFFFFFFFFFFFFFFFFFFFFFFF AND DUP2 MSTORE PUSH1 0x20 ADD SWAP1 DUP2 MSTORE PUSH1 0x20 ADD PUSH1 0x0 KECCAK256 PUSH1 0x0 SWAP1 SLOAD SWAP1 PUSH2 0x100 EXP SWAP1 DIV PUSH1 0xFF AND PUSH2 0x57B JUMPI PUSH1 0x40 MLOAD PUSH32 0x30CD747100000000000000000000000000000000000000000000000000000000 DUP2 MSTORE PUSH1 0x4 ADD PUSH1 0x40 MLOAD DUP1 SWAP2 SUB SWAP1 REVERT JUMPDEST DUP1 PUSH1 0x4 SLOAD PUSH1 0x1 PUSH1 0x0 PUSH1 0x4 SLOAD DUP2 MSTORE PUSH1 0x20 ADD SWAP1 DUP2 MSTORE PUSH1 0x20 ADD PUSH1 0x0 KECCAK256 PUSH1 0x0 ADD SLOAD GT ISZERO PUSH2 0x5D0 JUMPI PUSH1 0x40 MLOAD PUSH32 0xC929B60400000000000000000000000000000000000000000000000000000000 DUP2 MSTORE PUSH1 0x4 ADD PUSH1 0x40 MLOAD DUP1 SWAP2 SUB SWAP1 REVERT JUMPDEST DUP2 PUSH1 0x1 PUSH1 0x0 DUP3 DUP2 MSTORE PUSH1 0x20 ADD SWAP1 DUP2 MSTORE PUSH1 0x20 ADD PUSH1 0x0 KECCAK256 PUSH1 0x5 ADD PUSH1 0x0 SWAP1 SLOAD SWAP1 PUSH2 0x100 EXP SWAP1 DIV PUSH1 0xFF AND ISZERO PUSH2 0x62C JUMPI PUSH1 0x40 MLOAD PUSH32 0x3CA00AA600000000000000000000000000000000000000000000000000000000 DUP2 MSTORE PUSH1 0x4 ADD PUSH1 0x40 MLOAD DUP1 SWAP2 SUB SWAP1 REVERT JUMPDEST PUSH1 0x2 PUSH1 0x0 DUP5 DUP2 MSTORE PUSH1 0x20 ADD SWAP1 DUP2 MSTORE PUSH1 0x20 ADD PUSH1 0x0 KECCAK256 PUSH1 0x0 CALLER PUSH20 0xFFFFFFFFFFFFFFFFFFFFFFFFFFFFFFFFFFFFFFFF AND PUSH20 0xFFFFFFFFFFFFFFFFFFFFFFFFFFFFFFFFFFFFFFFF AND DUP2 MSTORE PUSH1 0x20 ADD SWAP1 DUP2 MSTORE PUSH1 0x20 ADD PUSH1 0x0 KECCAK256 PUSH1 0x0 SWAP1 SLOAD SWAP1 PUSH2 0x100 EXP SWAP1 DIV PUSH1 0xFF AND ISZERO PUSH2 0x729 JUMPI PUSH1 0x0 PUSH1 0x2 PUSH1 0x0 DUP6 DUP2 MSTORE PUSH1 0x20 ADD SWAP1 DUP2 MSTORE PUSH1 0x20 ADD PUSH1 0x0 KECCAK256 PUSH1 0x0 CALLER PUSH20 0xFFFFFFFFFFFFFFFFFFFFFFFFFFFFFFFFFFFFFFFF AND PUSH20 0xFFFFFFFFFFFFFFFFFFFFFFFFFFFFFFFFFFFFFFFF AND DUP2 MSTORE PUSH1 0x20 ADD SWAP1 DUP2 MSTORE PUSH1 0x20 ADD PUSH1 0x0 KECCAK256 PUSH1 0x0 PUSH2 0x100 EXP DUP2 SLOAD DUP2 PUSH1 0xFF MUL NOT AND SWAP1 DUP4 ISZERO ISZERO MUL OR SWAP1 SSTORE POP PUSH1 0x1 PUSH1 0x0 DUP5 DUP2 MSTORE PUSH1 0x20 ADD SWAP1 DUP2 MSTORE PUSH1 0x20 ADD PUSH1 0x0 KECCAK256 PUSH1 0x4 ADD PUSH1 0x0 DUP2 SLOAD DUP1 SWAP3 SWAP2 SWAP1 PUSH2 0x71F SWAP1 PUSH2 0xEB6 JUMP JUMPDEST SWAP2 SWAP1 POP SSTORE POP PUSH2 0x75B JUMP JUMPDEST PUSH1 0x40 MLOAD PUSH32 0x2E5F286200000000000000000000000000000000000000000000000000000000 DUP2 MSTORE PUSH1 0x4 ADD PUSH1 0x40 MLOAD DUP1 SWAP2 SUB SWAP1 REVERT JUMPDEST POP POP POP JUMP JUMPDEST PUSH1 0x2 PUSH1 0x20 MSTORE DUP2 PUSH1 0x0 MSTORE PUSH1 0x40 PUSH1 0x0 KECCAK256 PUSH1 0x20 MSTORE DUP1 PUSH1 0x0 MSTORE PUSH1 0x40 PUSH1 0x0 KECCAK256 PUSH1 0x0 SWAP2 POP SWAP2 POP SWAP1 SLOAD SWAP1 PUSH2 0x100 EXP SWAP1 DIV PUSH1 0xFF AND DUP2 JUMP JUMPDEST PUSH1 0x1 PUSH1 0x20 MSTORE DUP1 PUSH1 0x0 MSTORE PUSH1 0x40 PUSH1 0x0 KECCAK256 PUSH1 0x0 SWAP2 POP SWAP1 POP DUP1 PUSH1 0x0 ADD SLOAD SWAP1 DUP1 PUSH1 0x1 ADD PUSH1 0x0 SWAP1 SLOAD SWAP1 PUSH2 0x100 EXP SWAP1 DIV PUSH20 0xFFFFFFFFFFFFFFFFFFFFFFFFFFFFFFFFFFFFFFFF AND SWAP1 DUP1 PUSH1 0x2 ADD SLOAD SWAP1 DUP1 PUSH1 0x3 ADD DUP1 SLOAD PUSH2 0x7E4 SWAP1 PUSH2 0xEE0 JUMP JUMPDEST DUP1 PUSH1 0x1F ADD PUSH1 0x20 DUP1 SWAP2 DIV MUL PUSH1 0x20 ADD PUSH1 0x40 MLOAD SWAP1 DUP2 ADD PUSH1 0x40 MSTORE DUP1 SWAP3 SWAP2 SWAP1 DUP2 DUP2 MSTORE PUSH1 0x20 ADD DUP3 DUP1 SLOAD PUSH2 0x810 SWAP1 PUSH2 0xEE0 JUMP JUMPDEST DUP1 ISZERO PUSH2 0x85D JUMPI DUP1 PUSH1 0x1F LT PUSH2 0x832 JUMPI PUSH2 0x100 DUP1 DUP4 SLOAD DIV MUL DUP4 MSTORE SWAP2 PUSH1 0x20 ADD SWAP2 PUSH2 0x85D JUMP JUMPDEST DUP3 ADD SWAP2 SWAP1 PUSH1 0x0 MSTORE PUSH1 0x20 PUSH1 0x0 KECCAK256 SWAP1 JUMPDEST DUP2 SLOAD DUP2 MSTORE SWAP1 PUSH1 0x1 ADD SWAP1 PUSH1 0x20 ADD DUP1 DUP4 GT PUSH2 0x840 JUMPI DUP3 SWAP1 SUB PUSH1 0x1F AND DUP3 ADD SWAP2 JUMPDEST POP POP POP POP POP SWAP1 DUP1 PUSH1 0x4 ADD SLOAD SWAP1 DUP1 PUSH1 0x5 ADD PUSH1 0x0 SWAP1 SLOAD SWAP1 PUSH2 0x100 EXP SWAP1 DIV PUSH1 0xFF AND SWAP1 POP DUP7 JUMP JUMPDEST PUSH1 0x0 DUP1 CALLER PUSH20 0xFFFFFFFFFFFFFFFFFFFFFFFFFFFFFFFFFFFFFFFF AND PUSH20 0xFFFFFFFFFFFFFFFFFFFFFFFFFFFFFFFFFFFFFFFF AND DUP2 MSTORE PUSH1 0x20 ADD SWAP1 DUP2 MSTORE PUSH1 0x20 ADD PUSH1 0x0 KECCAK256 PUSH1 0x0 SWAP1 SLOAD SWAP1 PUSH2 0x100 EXP SWAP1 DIV PUSH1 0xFF AND PUSH2 0x902 JUMPI PUSH1 0x40 MLOAD PUSH32 0x30CD747100000000000000000000000000000000000000000000000000000000 DUP2 MSTORE PUSH1 0x4 ADD PUSH1 0x40 MLOAD DUP1 SWAP2 SUB SWAP1 REVERT JUMPDEST PUSH1 0x0 PUSH1 0x1 PUSH1 0x0 PUSH1 0x4 SLOAD DUP2 MSTORE PUSH1 0x20 ADD SWAP1 DUP2 MSTORE PUSH1 0x20 ADD PUSH1 0x0 KECCAK256 SWAP1 POP PUSH1 0x4 SLOAD DUP2 PUSH1 0x0 ADD DUP2 SWAP1 SSTORE POP DUP4 DUP2 PUSH1 0x1 ADD PUSH1 0x0 PUSH2 0x100 EXP DUP2 SLOAD DUP2 PUSH20 0xFFFFFFFFFFFFFFFFFFFFFFFFFFFFFFFFFFFFFFFF MUL NOT AND SWAP1 DUP4 PUSH20 0xFFFFFFFFFFFFFFFFFFFFFFFFFFFFFFFFFFFFFFFF AND MUL OR SWAP1 SSTORE POP DUP3 DUP2 PUSH1 0x2 ADD DUP2 SWAP1 SSTORE POP DUP2 DUP2 PUSH1 0x3 ADD SWAP1 DUP1 MLOAD SWAP1 PUSH1 0x20 ADD SWAP1 PUSH2 0x98A SWAP3 SWAP2 SWAP1 PUSH2 0xA39 JUMP JUMPDEST POP PUSH1 0x4 PUSH1 0x0 DUP2 SLOAD DUP1 SWAP3 SWAP2 SWAP1 PUSH2 0x99E SWAP1 PUSH2 0xF43 JUMP JUMPDEST SWAP2 SWAP1 POP SSTORE POP POP POP POP POP JUMP JUMPDEST PUSH1 0x4 SLOAD DUP2 JUMP JUMPDEST PUSH1 0x3 SLOAD DUP2 JUMP JUMPDEST PUSH1 0x0 DUP1 CALLER PUSH20 0xFFFFFFFFFFFFFFFFFFFFFFFFFFFFFFFFFFFFFFFF AND PUSH20 0xFFFFFFFFFFFFFFFFFFFFFFFFFFFFFFFFFFFFFFFF AND DUP2 MSTORE PUSH1 0x20 ADD SWAP1 DUP2 MSTORE PUSH1 0x20 ADD PUSH1 0x0 KECCAK256 PUSH1 0x0 SWAP1 SLOAD SWAP1 PUSH2 0x100 EXP SWAP1 DIV PUSH1 0xFF AND PUSH2 0xA37 JUMPI PUSH1 0x40 MLOAD PUSH32 0x30CD747100000000000000000000000000000000000000000000000000000000 DUP2 MSTORE PUSH1 0x4 ADD PUSH1 0x40 MLOAD DUP1 SWAP2 SUB SWAP1 REVERT JUMPDEST JUMP JUMPDEST DUP3 DUP1 SLOAD PUSH2 0xA45 SWAP1 PUSH2 0xEE0 JUMP JUMPDEST SWAP1 PUSH1 0x0 MSTORE PUSH1 0x20 PUSH1 0x0 KECCAK256 SWAP1 PUSH1 0x1F ADD PUSH1 0x20 SWAP1 DIV DUP2 ADD SWAP3 DUP3 PUSH2 0xA67 JUMPI PUSH1 0x0 DUP6 SSTORE PUSH2 0xAAE JUMP JUMPDEST DUP3 PUSH1 0x1F LT PUSH2 0xA80 JUMPI DUP1 MLOAD PUSH1 0xFF NOT AND DUP4 DUP1 ADD OR DUP6 SSTORE PUSH2 0xAAE JUMP JUMPDEST DUP3 DUP1 ADD PUSH1 0x1 ADD DUP6 SSTORE DUP3 ISZERO PUSH2 0xAAE JUMPI SWAP2 DUP3 ADD JUMPDEST DUP3 DUP2 GT ISZERO PUSH2 0xAAD JUMPI DUP3 MLOAD DUP3 SSTORE SWAP2 PUSH1 0x20 ADD SWAP2 SWAP1 PUSH1 0x1 ADD SWAP1 PUSH2 0xA92 JUMP JUMPDEST JUMPDEST POP SWAP1 POP PUSH2 0xABB SWAP2 SWAP1 PUSH2 0xABF JUMP JUMPDEST POP SWAP1 JUMP JUMPDEST JUMPDEST DUP1 DUP3 GT ISZERO PUSH2 0xAD8 JUMPI PUSH1 0x0 DUP2 PUSH1 0x0 SWAP1 SSTORE POP PUSH1 0x1 ADD PUSH2 0xAC0 JUMP JUMPDEST POP SWAP1 JUMP JUMPDEST PUSH1 0x0 PUSH2 0xAEF PUSH2 0xAEA DUP5 PUSH2 0xDDF JUMP JUMPDEST PUSH2 0xDBA JUMP JUMPDEST SWAP1 POP DUP3 DUP2 MSTORE PUSH1 0x20 DUP2 ADD DUP5 DUP5 DUP5 ADD GT ISZERO PUSH2 0xB0B JUMPI PUSH2 0xB0A PUSH2 0x101E JUMP JUMPDEST JUMPDEST PUSH2 0xB16 DUP5 DUP3 DUP6 PUSH2 0xE74 JUMP JUMPDEST POP SWAP4 SWAP3 POP POP POP JUMP JUMPDEST PUSH1 0x0 DUP2 CALLDATALOAD SWAP1 POP PUSH2 0xB2D DUP2 PUSH2 0x103E JUMP JUMPDEST SWAP3 SWAP2 POP POP JUMP JUMPDEST PUSH1 0x0 DUP3 PUSH1 0x1F DUP4 ADD SLT PUSH2 0xB48 JUMPI PUSH2 0xB47 PUSH2 0x1019 JUMP JUMPDEST JUMPDEST DUP2 CALLDATALOAD PUSH2 0xB58 DUP5 DUP3 PUSH1 0x20 DUP7 ADD PUSH2 0xADC JUMP JUMPDEST SWAP2 POP POP SWAP3 SWAP2 POP POP JUMP JUMPDEST PUSH1 0x0 DUP2 CALLDATALOAD SWAP1 POP PUSH2 0xB70 DUP2 PUSH2 0x1055 JUMP JUMPDEST SWAP3 SWAP2 POP POP JUMP JUMPDEST PUSH1 0x0 PUSH1 0x20 DUP3 DUP5 SUB SLT ISZERO PUSH2 0xB8C JUMPI PUSH2 0xB8B PUSH2 0x1028 JUMP JUMPDEST JUMPDEST PUSH1 0x0 PUSH2 0xB9A DUP5 DUP3 DUP6 ADD PUSH2 0xB1E JUMP JUMPDEST SWAP2 POP POP SWAP3 SWAP2 POP POP JUMP JUMPDEST PUSH1 0x0 DUP1 PUSH1 0x0 PUSH1 0x60 DUP5 DUP7 SUB SLT ISZERO PUSH2 0xBBC JUMPI PUSH2 0xBBB PUSH2 0x1028 JUMP JUMPDEST JUMPDEST PUSH1 0x0 PUSH2 0xBCA DUP7 DUP3 DUP8 ADD PUSH2 0xB1E JUMP JUMPDEST SWAP4 POP POP PUSH1 0x20 PUSH2 0xBDB DUP7 DUP3 DUP8 ADD PUSH2 0xB61 JUMP JUMPDEST SWAP3 POP POP PUSH1 0x40 DUP5 ADD CALLDATALOAD PUSH8 0xFFFFFFFFFFFFFFFF DUP2 GT ISZERO PUSH2 0xBFC JUMPI PUSH2 0xBFB PUSH2 0x1023 JUMP JUMPDEST JUMPDEST PUSH2 0xC08 DUP7 DUP3 DUP8 ADD PUSH2 0xB33 JUMP JUMPDEST SWAP2 POP POP SWAP3 POP SWAP3 POP SWAP3 JUMP JUMPDEST PUSH1 0x0 PUSH1 0x20 DUP3 DUP5 SUB SLT ISZERO PUSH2 0xC28 JUMPI PUSH2 0xC27 PUSH2 0x1028 JUMP JUMPDEST JUMPDEST PUSH1 0x0 PUSH2 0xC36 DUP5 DUP3 DUP6 ADD PUSH2 0xB61 JUMP JUMPDEST SWAP2 POP POP SWAP3 SWAP2 POP POP JUMP JUMPDEST PUSH1 0x0 DUP1 PUSH1 0x40 DUP4 DUP6 SUB SLT ISZERO PUSH2 0xC56 JUMPI PUSH2 0xC55 PUSH2 0x1028 JUMP JUMPDEST JUMPDEST PUSH1 0x0 PUSH2 0xC64 DUP6 DUP3 DUP7 ADD PUSH2 0xB61 JUMP JUMPDEST SWAP3 POP POP PUSH1 0x20 PUSH2 0xC75 DUP6 DUP3 DUP7 ADD PUSH2 0xB1E JUMP JUMPDEST SWAP2 POP POP SWAP3 POP SWAP3 SWAP1 POP JUMP JUMPDEST PUSH2 0xC88 DUP2 PUSH2 0xE2C JUMP JUMPDEST DUP3 MSTORE POP POP JUMP JUMPDEST PUSH2 0xC97 DUP2 PUSH2 0xE3E JUMP JUMPDEST DUP3 MSTORE POP POP JUMP JUMPDEST PUSH1 0x0 PUSH2 0xCA8 DUP3 PUSH2 0xE10 JUMP JUMPDEST PUSH2 0xCB2 DUP2 DUP6 PUSH2 0xE1B JUMP JUMPDEST SWAP4 POP PUSH2 0xCC2 DUP2 DUP6 PUSH1 0x20 DUP7 ADD PUSH2 0xE83 JUMP JUMPDEST PUSH2 0xCCB DUP2 PUSH2 0x102D JUMP JUMPDEST DUP5 ADD SWAP2 POP POP SWAP3 SWAP2 POP POP JUMP JUMPDEST PUSH2 0xCDF DUP2 PUSH2 0xE6A JUMP JUMPDEST DUP3 MSTORE POP POP JUMP JUMPDEST PUSH1 0x0 PUSH1 0x60 DUP3 ADD SWAP1 POP PUSH2 0xCFA PUSH1 0x0 DUP4 ADD DUP7 PUSH2 0xC7F JUMP JUMPDEST PUSH2 0xD07 PUSH1 0x20 DUP4 ADD DUP6 PUSH2 0xCD6 JUMP JUMPDEST PUSH2 0xD14 PUSH1 0x40 DUP4 ADD DUP5 PUSH2 0xCD6 JUMP JUMPDEST SWAP5 SWAP4 POP POP POP POP JUMP JUMPDEST PUSH1 0x0 PUSH1 0x20 DUP3 ADD SWAP1 POP PUSH2 0xD31 PUSH1 0x0 DUP4 ADD DUP5 PUSH2 0xC8E JUMP JUMPDEST SWAP3 SWAP2 POP POP JUMP JUMPDEST PUSH1 0x0 PUSH1 0x20 DUP3 ADD SWAP1 POP PUSH2 0xD4C PUSH1 0x0 DUP4 ADD DUP5 PUSH2 0xCD6 JUMP JUMPDEST SWAP3 SWAP2 POP POP JUMP JUMPDEST PUSH1 0x0 PUSH1 0xC0 DUP3 ADD SWAP1 POP PUSH2 0xD67 PUSH1 0x0 DUP4 ADD DUP10 PUSH2 0xCD6 JUMP JUMPDEST PUSH2 0xD74 PUSH1 0x20 DUP4 ADD DUP9 PUSH2 0xC7F JUMP JUMPDEST PUSH2 0xD81 PUSH1 0x40 DUP4 ADD DUP8 PUSH2 0xCD6 JUMP JUMPDEST DUP2 DUP2 SUB PUSH1 0x60 DUP4 ADD MSTORE PUSH2 0xD93 DUP2 DUP7 PUSH2 0xC9D JUMP JUMPDEST SWAP1 POP PUSH2 0xDA2 PUSH1 0x80 DUP4 ADD DUP6 PUSH2 0xCD6 JUMP JUMPDEST PUSH2 0xDAF PUSH1 0xA0 DUP4 ADD DUP5 PUSH2 0xC8E JUMP JUMPDEST SWAP8 SWAP7 POP POP POP POP POP POP POP JUMP JUMPDEST PUSH1 0x0 PUSH2 0xDC4 PUSH2 0xDD5 JUMP JUMPDEST SWAP1 POP PUSH2 0xDD0 DUP3 DUP3 PUSH2 0xF12 JUMP JUMPDEST SWAP2 SWAP1 POP JUMP JUMPDEST PUSH1 0x0 PUSH1 0x40 MLOAD SWAP1 POP SWAP1 JUMP JUMPDEST PUSH1 0x0 PUSH8 0xFFFFFFFFFFFFFFFF DUP3 GT ISZERO PUSH2 0xDFA JUMPI PUSH2 0xDF9 PUSH2 0xFEA JUMP JUMPDEST JUMPDEST PUSH2 0xE03 DUP3 PUSH2 0x102D JUMP JUMPDEST SWAP1 POP PUSH1 0x20 DUP2 ADD SWAP1 POP SWAP2 SWAP1 POP JUMP JUMPDEST PUSH1 0x0 DUP2 MLOAD SWAP1 POP SWAP2 SWAP1 POP JUMP JUMPDEST PUSH1 0x0 DUP3 DUP3 MSTORE PUSH1 0x20 DUP3 ADD SWAP1 POP SWAP3 SWAP2 POP POP JUMP JUMPDEST PUSH1 0x0 PUSH2 0xE37 DUP3 PUSH2 0xE4A JUMP JUMPDEST SWAP1 POP SWAP2 SWAP1 POP JUMP JUMPDEST PUSH1 0x0 DUP2 ISZERO ISZERO SWAP1 POP SWAP2 SWAP1 POP JUMP JUMPDEST PUSH1 0x0 PUSH20 0xFFFFFFFFFFFFFFFFFFFFFFFFFFFFFFFFFFFFFFFF DUP3 AND SWAP1 POP SWAP2 SWAP1 POP JUMP JUMPDEST PUSH1 0x0 DUP2 SWAP1 POP SWAP2 SWAP1 POP JUMP JUMPDEST DUP3 DUP2 DUP4 CALLDATACOPY PUSH1 0x0 DUP4 DUP4 ADD MSTORE POP POP POP JUMP JUMPDEST PUSH1 0x0 JUMPDEST DUP4 DUP2 LT ISZERO PUSH2 0xEA1 JUMPI DUP1 DUP3 ADD MLOAD DUP2 DUP5 ADD MSTORE PUSH1 0x20 DUP2 ADD SWAP1 POP PUSH2 0xE86 JUMP JUMPDEST DUP4 DUP2 GT ISZERO PUSH2 0xEB0 JUMPI PUSH1 0x0 DUP5 DUP5 ADD MSTORE JUMPDEST POP POP POP POP JUMP JUMPDEST PUSH1 0x0 PUSH2 0xEC1 DUP3 PUSH2 0xE6A JUMP JUMPDEST SWAP2 POP PUSH1 0x0 DUP3 EQ ISZERO PUSH2 0xED5 JUMPI PUSH2 0xED4 PUSH2 0xF8C JUMP JUMPDEST JUMPDEST PUSH1 0x1 DUP3 SUB SWAP1 POP SWAP2 SWAP1 POP JUMP JUMPDEST PUSH1 0x0 PUSH1 0x2 DUP3 DIV SWAP1 POP PUSH1 0x1 DUP3 AND DUP1 PUSH2 0xEF8 JUMPI PUSH1 0x7F DUP3 AND SWAP2 POP JUMPDEST PUSH1 0x20 DUP3 LT DUP2 EQ ISZERO PUSH2 0xF0C JUMPI PUSH2 0xF0B PUSH2 0xFBB JUMP JUMPDEST JUMPDEST POP SWAP2 SWAP1 POP JUMP JUMPDEST PUSH2 0xF1B DUP3 PUSH2 0x102D JUMP JUMPDEST DUP2 ADD DUP2 DUP2 LT PUSH8 0xFFFFFFFFFFFFFFFF DUP3 GT OR ISZERO PUSH2 0xF3A JUMPI PUSH2 0xF39 PUSH2 0xFEA JUMP JUMPDEST JUMPDEST DUP1 PUSH1 0x40 MSTORE POP POP POP JUMP JUMPDEST PUSH1 0x0 PUSH2 0xF4E DUP3 PUSH2 0xE6A JUMP JUMPDEST SWAP2 POP PUSH32 0xFFFFFFFFFFFFFFFFFFFFFFFFFFFFFFFFFFFFFFFFFFFFFFFFFFFFFFFFFFFFFFFF DUP3 EQ ISZERO PUSH2 0xF81 JUMPI PUSH2 0xF80 PUSH2 0xF8C JUMP JUMPDEST JUMPDEST PUSH1 0x1 DUP3 ADD SWAP1 POP SWAP2 SWAP1 POP JUMP JUMPDEST PUSH32 0x4E487B7100000000000000000000000000000000000000000000000000000000 PUSH1 0x0 MSTORE PUSH1 0x11 PUSH1 0x4 MSTORE PUSH1 0x24 PUSH1 0x0 REVERT JUMPDEST PUSH32 0x4E487B7100000000000000000000000000000000000000000000000000000000 PUSH1 0x0 MSTORE PUSH1 0x22 PUSH1 0x4 MSTORE PUSH1 0x24 PUSH1 0x0 REVERT JUMPDEST PUSH32 0x4E487B7100000000000000000000000000000000000000000000000000000000 PUSH1 0x0 MSTORE PUSH1 0x41 PUSH1 0x4 MSTORE PUSH1 0x24 PUSH1 0x0 REVERT JUMPDEST PUSH1 0x0 DUP1 REVERT JUMPDEST PUSH1 0x0 DUP1 REVERT JUMPDEST PUSH1 0x0 DUP1 REVERT JUMPDEST PUSH1 0x0 DUP1 REVERT JUMPDEST PUSH1 0x0 PUSH1 0x1F NOT PUSH1 0x1F DUP4 ADD AND SWAP1 POP SWAP2 SWAP1 POP JUMP JUMPDEST PUSH2 0x1047 DUP2 PUSH2 0xE2C JUMP JUMPDEST DUP2 EQ PUSH2 0x1052 JUMPI PUSH1 0x0 DUP1 REVERT JUMPDEST POP JUMP JUMPDEST PUSH2 0x105E DUP2 PUSH2 0xE6A JUMP JUMPDEST DUP2 EQ PUSH2 0x1069 JUMPI PUSH1 0x0 DUP1 REVERT JUMPDEST POP JUMP INVALID LOG2 PUSH5 0x6970667358 0x22 SLT KECCAK256 JUMP 0xD7 0x4E PUSH17 0x45BFB4280860ECDA87A5991E8AE9D89BD2 0xAB GASLIMIT PUSH32 0xF5CDEB0CAFF2CA5F64736F6C6343000807003300000000000000000000000000 "
				},
				"gasEstimates": {
					"creation": {
						"codeDepositCost": "851600",
						"executionCost": "infinite",
						"totalCost": "infinite"
					},
					"external": {
						"approveTx(uint256)": "infinite",
						"approved(uint256,address)": "3154",
						"executeTx()": "2509",
						"isOwner(address)": "2868",
						"required()": "2495",
						"revokeTx(uint256)": "infinite",
						"submitTx(address,uint256,bytes)": "infinite",
						"transactions(uint256)": "infinite",
						"txId()": "2473"
					}
				},
				"methodIdentifiers": {
					"approveTx(uint256)": "1087393a",
					"approved(uint256,address)": "8253951a",
					"executeTx()": "e23fc3ce",
					"isOwner(address)": "2f54bf6e",
					"required()": "dc8452cd",
					"revokeTx(uint256)": "5986aaca",
					"submitTx(address,uint256,bytes)": "bb84c5a9",
					"transactions(uint256)": "9ace38c2",
					"txId()": "cd568d1f"
				}
			},
			"storageLayout": {
				"storage": [
					{
						"astId": 27,
						"contract": "bootcamp/week2/MultiSigWallet.sol:MultiSigWallet",
						"label": "isOwner",
						"offset": 0,
						"slot": "0",
						"type": "t_mapping(t_address,t_bool)"
					},
					{
						"astId": 45,
						"contract": "bootcamp/week2/MultiSigWallet.sol:MultiSigWallet",
						"label": "transactions",
						"offset": 0,
						"slot": "1",
						"type": "t_mapping(t_uint256,t_struct(Transaction)40_storage)"
					},
					{
						"astId": 51,
						"contract": "bootcamp/week2/MultiSigWallet.sol:MultiSigWallet",
						"label": "approved",
						"offset": 0,
						"slot": "2",
						"type": "t_mapping(t_uint256,t_mapping(t_address,t_bool))"
					},
					{
						"astId": 53,
						"contract": "bootcamp/week2/MultiSigWallet.sol:MultiSigWallet",
						"label": "required",
						"offset": 0,
						"slot": "3",
						"type": "t_uint256"
					},
					{
						"astId": 55,
						"contract": "bootcamp/week2/MultiSigWallet.sol:MultiSigWallet",
						"label": "txId",
						"offset": 0,
						"slot": "4",
						"type": "t_uint256"
					}
				],
				"types": {
					"t_address": {
						"encoding": "inplace",
						"label": "address",
						"numberOfBytes": "20"
					},
					"t_bool": {
						"encoding": "inplace",
						"label": "bool",
						"numberOfBytes": "1"
					},
					"t_bytes_storage": {
						"encoding": "bytes",
						"label": "bytes",
						"numberOfBytes": "32"
					},
					"t_mapping(t_address,t_bool)": {
						"encoding": "mapping",
						"key": "t_address",
						"label": "mapping(address => bool)",
						"numberOfBytes": "32",
						"value": "t_bool"
					},
					"t_mapping(t_uint256,t_mapping(t_address,t_bool))": {
						"encoding": "mapping",
						"key": "t_uint256",
						"label": "mapping(uint256 => mapping(address => bool))",
						"numberOfBytes": "32",
						"value": "t_mapping(t_address,t_bool)"
					},
					"t_mapping(t_uint256,t_struct(Transaction)40_storage)": {
						"encoding": "mapping",
						"key": "t_uint256",
						"label": "mapping(uint256 => struct MultiSigWallet.Transaction)",
						"numberOfBytes": "32",
						"value": "t_struct(Transaction)40_storage"
					},
					"t_struct(Transaction)40_storage": {
						"encoding": "inplace",
						"label": "struct MultiSigWallet.Transaction",
						"members": [
							{
								"astId": 29,
								"contract": "bootcamp/week2/MultiSigWallet.sol:MultiSigWallet",
								"label": "id",
								"offset": 0,
								"slot": "0",
								"type": "t_uint256"
							},
							{
								"astId": 31,
								"contract": "bootcamp/week2/MultiSigWallet.sol:MultiSigWallet",
								"label": "to",
								"offset": 0,
								"slot": "1",
								"type": "t_address"
							},
							{
								"astId": 33,
								"contract": "bootcamp/week2/MultiSigWallet.sol:MultiSigWallet",
								"label": "value",
								"offset": 0,
								"slot": "2",
								"type": "t_uint256"
							},
							{
								"astId": 35,
								"contract": "bootcamp/week2/MultiSigWallet.sol:MultiSigWallet",
								"label": "data",
								"offset": 0,
								"slot": "3",
								"type": "t_bytes_storage"
							},
							{
								"astId": 37,
								"contract": "bootcamp/week2/MultiSigWallet.sol:MultiSigWallet",
								"label": "confirmations",
								"offset": 0,
								"slot": "4",
								"type": "t_uint256"
							},
							{
								"astId": 39,
								"contract": "bootcamp/week2/MultiSigWallet.sol:MultiSigWallet",
								"label": "executed",
								"offset": 0,
								"slot": "5",
								"type": "t_bool"
							}
						],
						"numberOfBytes": "192"
					},
					"t_uint256": {
						"encoding": "inplace",
						"label": "uint256",
						"numberOfBytes": "32"
					}
				}
			},
			"userdoc": {
				"kind": "user",
				"methods": {},
				"version": 1
			}
		}
	}
}