{
	"bootcamp/week2/CRUDmappings.sol": {
		"mappings": {
			"abi": [
				{
					"inputs": [
						{
							"internalType": "uint256",
							"name": "_val",
							"type": "uint256"
						},
						{
							"internalType": "string",
							"name": "_string",
							"type": "string"
						}
					],
					"name": "create",
					"outputs": [],
					"stateMutability": "nonpayable",
					"type": "function"
				},
				{
					"inputs": [
						{
							"internalType": "uint256",
							"name": "_val",
							"type": "uint256"
						}
					],
					"name": "destroy",
					"outputs": [],
					"stateMutability": "nonpayable",
					"type": "function"
				},
				{
					"inputs": [],
					"name": "readAll",
					"outputs": [
						{
							"internalType": "string[]",
							"name": "mappingValues",
							"type": "string[]"
						}
					],
					"stateMutability": "view",
					"type": "function"
				},
				{
					"inputs": [
						{
							"internalType": "uint256",
							"name": "_val",
							"type": "uint256"
						}
					],
					"name": "readOne",
					"outputs": [
						{
							"internalType": "string",
							"name": "mappingValue",
							"type": "string"
						}
					],
					"stateMutability": "view",
					"type": "function"
				},
				{
					"inputs": [
						{
							"internalType": "uint256",
							"name": "_val",
							"type": "uint256"
						},
						{
							"internalType": "string",
							"name": "_string",
							"type": "string"
						}
					],
					"name": "update",
					"outputs": [],
					"stateMutability": "nonpayable",
					"type": "function"
				}
			],
			"devdoc": {
				"kind": "dev",
				"methods": {},
				"version": 1
			},
			"evm": {
				"assembly": "    /* \"bootcamp/week2/CRUDmappings.sol\":59:923  contract mappings {... */\n  mstore(0x40, 0x80)\n  callvalue\n  dup1\n  iszero\n  tag_1\n  jumpi\n  0x00\n  dup1\n  revert\ntag_1:\n  pop\n  dataSize(sub_0)\n  dup1\n  dataOffset(sub_0)\n  0x00\n  codecopy\n  0x00\n  return\nstop\n\nsub_0: assembly {\n        /* \"bootcamp/week2/CRUDmappings.sol\":59:923  contract mappings {... */\n      mstore(0x40, 0x80)\n      callvalue\n      dup1\n      iszero\n      tag_1\n      jumpi\n      0x00\n      dup1\n      revert\n    tag_1:\n      pop\n      jumpi(tag_2, lt(calldatasize, 0x04))\n      shr(0xe0, calldataload(0x00))\n      dup1\n      0x0118fa49\n      eq\n      tag_3\n      jumpi\n      dup1\n      0x41f654f7\n      eq\n      tag_4\n      jumpi\n      dup1\n      0x59306ca5\n      eq\n      tag_5\n      jumpi\n      dup1\n      0x9d118770\n      eq\n      tag_6\n      jumpi\n      dup1\n      0xf745630f\n      eq\n      tag_7\n      jumpi\n    tag_2:\n      0x00\n      dup1\n      revert\n        /* \"bootcamp/week2/CRUDmappings.sol\":147:278  function create(uint256 _val, string calldata _string) external {... */\n    tag_3:\n      tag_8\n      0x04\n      dup1\n      calldatasize\n      sub\n      dup2\n      add\n      swap1\n      tag_9\n      swap2\n      swap1\n      tag_10\n      jump\t// in\n    tag_9:\n      tag_11\n      jump\t// in\n    tag_8:\n      stop\n        /* \"bootcamp/week2/CRUDmappings.sol\":652:921  function readAll() external view returns (string[] memory mappingValues) {... */\n    tag_4:\n      tag_12\n      tag_13\n      jump\t// in\n    tag_12:\n      mload(0x40)\n      tag_14\n      swap2\n      swap1\n      tag_15\n      jump\t// in\n    tag_14:\n      mload(0x40)\n      dup1\n      swap2\n      sub\n      swap1\n      return\n        /* \"bootcamp/week2/CRUDmappings.sol\":525:646  function readOne(uint256 _val) external view returns (string memory mappingValue) {... */\n    tag_5:\n      tag_16\n      0x04\n      dup1\n      calldatasize\n      sub\n      dup2\n      add\n      swap1\n      tag_17\n      swap2\n      swap1\n      tag_18\n      jump\t// in\n    tag_17:\n      tag_19\n      jump\t// in\n    tag_16:\n      mload(0x40)\n      tag_20\n      swap2\n      swap1\n      tag_21\n      jump\t// in\n    tag_20:\n      mload(0x40)\n      dup1\n      swap2\n      sub\n      swap1\n      return\n        /* \"bootcamp/week2/CRUDmappings.sol\":396:519  function destroy(uint256 _val) external {... */\n    tag_6:\n      tag_22\n      0x04\n      dup1\n      calldatasize\n      sub\n      dup2\n      add\n      swap1\n      tag_23\n      swap2\n      swap1\n      tag_18\n      jump\t// in\n    tag_23:\n      tag_24\n      jump\t// in\n    tag_22:\n      stop\n        /* \"bootcamp/week2/CRUDmappings.sol\":284:390  function update(uint256 _val, string calldata _string) external {... */\n    tag_7:\n      tag_25\n      0x04\n      dup1\n      calldatasize\n      sub\n      dup2\n      add\n      swap1\n      tag_26\n      swap2\n      swap1\n      tag_10\n      jump\t// in\n    tag_26:\n      tag_27\n      jump\t// in\n    tag_25:\n      stop\n        /* \"bootcamp/week2/CRUDmappings.sol\":147:278  function create(uint256 _val, string calldata _string) external {... */\n    tag_11:\n        /* \"bootcamp/week2/CRUDmappings.sol\":239:246  _string */\n      dup2\n      dup2\n        /* \"bootcamp/week2/CRUDmappings.sol\":221:230  myMapping */\n      0x00\n        /* \"bootcamp/week2/CRUDmappings.sol\":221:236  myMapping[_val] */\n      dup1\n        /* \"bootcamp/week2/CRUDmappings.sol\":231:235  _val */\n      dup7\n        /* \"bootcamp/week2/CRUDmappings.sol\":221:236  myMapping[_val] */\n      dup2\n      mstore\n      0x20\n      add\n      swap1\n      dup2\n      mstore\n      0x20\n      add\n      0x00\n      keccak256\n        /* \"bootcamp/week2/CRUDmappings.sol\":221:246  myMapping[_val] = _string */\n      swap2\n      swap1\n      tag_29\n      swap3\n      swap2\n      swap1\n      tag_30\n      jump\t// in\n    tag_29:\n      pop\n        /* \"bootcamp/week2/CRUDmappings.sol\":256:260  keys */\n      0x01\n        /* \"bootcamp/week2/CRUDmappings.sol\":266:270  _val */\n      dup4\n        /* \"bootcamp/week2/CRUDmappings.sol\":256:271  keys.push(_val) */\n      swap1\n      dup1\n      0x01\n      dup2\n      sload\n      add\n      dup1\n      dup3\n      sstore\n      dup1\n      swap2\n      pop\n      pop\n      0x01\n      swap1\n      sub\n      swap1\n      0x00\n      mstore\n      keccak256(0x00, 0x20)\n      add\n      0x00\n      swap1\n      swap2\n      swap1\n      swap2\n      swap1\n      swap2\n      pop\n      sstore\n        /* \"bootcamp/week2/CRUDmappings.sol\":147:278  function create(uint256 _val, string calldata _string) external {... */\n      pop\n      pop\n      pop\n      jump\t// out\n        /* \"bootcamp/week2/CRUDmappings.sol\":652:921  function readAll() external view returns (string[] memory mappingValues) {... */\n    tag_13:\n        /* \"bootcamp/week2/CRUDmappings.sol\":694:723  string[] memory mappingValues */\n      0x60\n        /* \"bootcamp/week2/CRUDmappings.sol\":735:749  uint256 length */\n      0x00\n        /* \"bootcamp/week2/CRUDmappings.sol\":752:756  keys */\n      0x01\n        /* \"bootcamp/week2/CRUDmappings.sol\":752:763  keys.length */\n      dup1\n      sload\n      swap1\n      pop\n        /* \"bootcamp/week2/CRUDmappings.sol\":735:763  uint256 length = keys.length */\n      swap1\n      pop\n        /* \"bootcamp/week2/CRUDmappings.sol\":802:808  length */\n      dup1\n        /* \"bootcamp/week2/CRUDmappings.sol\":789:809  new string[](length) */\n      0xffffffffffffffff\n      dup2\n      gt\n      iszero\n      tag_33\n      jumpi\n      tag_34\n      tag_35\n      jump\t// in\n    tag_34:\n    tag_33:\n      mload(0x40)\n      swap1\n      dup1\n      dup3\n      mstore\n      dup1\n      0x20\n      mul\n      0x20\n      add\n      dup3\n      add\n      0x40\n      mstore\n      dup1\n      iszero\n      tag_36\n      jumpi\n      dup2\n      0x20\n      add\n    tag_37:\n      0x60\n      dup2\n      mstore\n      0x20\n      add\n      swap1\n      0x01\n      swap1\n      sub\n      swap1\n      dup2\n      tag_37\n      jumpi\n      swap1\n      pop\n    tag_36:\n      pop\n        /* \"bootcamp/week2/CRUDmappings.sol\":773:809  mappingValues = new string[](length) */\n      swap2\n      pop\n        /* \"bootcamp/week2/CRUDmappings.sol\":824:830  uint i */\n      0x00\n        /* \"bootcamp/week2/CRUDmappings.sol\":819:915  for (uint i = 0; i < length; i++) {... */\n    tag_38:\n        /* \"bootcamp/week2/CRUDmappings.sol\":840:846  length */\n      dup2\n        /* \"bootcamp/week2/CRUDmappings.sol\":836:837  i */\n      dup2\n        /* \"bootcamp/week2/CRUDmappings.sol\":836:846  i < length */\n      lt\n        /* \"bootcamp/week2/CRUDmappings.sol\":819:915  for (uint i = 0; i < length; i++) {... */\n      iszero\n      tag_39\n      jumpi\n        /* \"bootcamp/week2/CRUDmappings.sol\":886:895  myMapping */\n      0x00\n        /* \"bootcamp/week2/CRUDmappings.sol\":886:904  myMapping[keys[i]] */\n      dup1\n        /* \"bootcamp/week2/CRUDmappings.sol\":896:900  keys */\n      0x01\n        /* \"bootcamp/week2/CRUDmappings.sol\":901:902  i */\n      dup4\n        /* \"bootcamp/week2/CRUDmappings.sol\":896:903  keys[i] */\n      dup2\n      sload\n      dup2\n      lt\n      tag_41\n      jumpi\n      tag_42\n      tag_43\n      jump\t// in\n    tag_42:\n    tag_41:\n      swap1\n      0x00\n      mstore\n      keccak256(0x00, 0x20)\n      add\n      sload\n        /* \"bootcamp/week2/CRUDmappings.sol\":886:904  myMapping[keys[i]] */\n      dup2\n      mstore\n      0x20\n      add\n      swap1\n      dup2\n      mstore\n      0x20\n      add\n      0x00\n      keccak256\n        /* \"bootcamp/week2/CRUDmappings.sol\":867:904  mappingValues[i] = myMapping[keys[i]] */\n      dup1\n      sload\n      tag_45\n      swap1\n      tag_46\n      jump\t// in\n    tag_45:\n      dup1\n      0x1f\n      add\n      0x20\n      dup1\n      swap2\n      div\n      mul\n      0x20\n      add\n      mload(0x40)\n      swap1\n      dup2\n      add\n      0x40\n      mstore\n      dup1\n      swap3\n      swap2\n      swap1\n      dup2\n      dup2\n      mstore\n      0x20\n      add\n      dup3\n      dup1\n      sload\n      tag_47\n      swap1\n      tag_46\n      jump\t// in\n    tag_47:\n      dup1\n      iszero\n      tag_48\n      jumpi\n      dup1\n      0x1f\n      lt\n      tag_49\n      jumpi\n      0x0100\n      dup1\n      dup4\n      sload\n      div\n      mul\n      dup4\n      mstore\n      swap2\n      0x20\n      add\n      swap2\n      jump(tag_48)\n    tag_49:\n      dup3\n      add\n      swap2\n      swap1\n      0x00\n      mstore\n      keccak256(0x00, 0x20)\n      swap1\n    tag_50:\n      dup2\n      sload\n      dup2\n      mstore\n      swap1\n      0x01\n      add\n      swap1\n      0x20\n      add\n      dup1\n      dup4\n      gt\n      tag_50\n      jumpi\n      dup3\n      swap1\n      sub\n      0x1f\n      and\n      dup3\n      add\n      swap2\n    tag_48:\n      pop\n      pop\n      pop\n      pop\n      pop\n        /* \"bootcamp/week2/CRUDmappings.sol\":867:880  mappingValues */\n      dup4\n        /* \"bootcamp/week2/CRUDmappings.sol\":881:882  i */\n      dup3\n        /* \"bootcamp/week2/CRUDmappings.sol\":867:883  mappingValues[i] */\n      dup2\n      mload\n      dup2\n      lt\n      tag_51\n      jumpi\n      tag_52\n      tag_43\n      jump\t// in\n    tag_52:\n    tag_51:\n      0x20\n      mul\n      0x20\n      add\n      add\n        /* \"bootcamp/week2/CRUDmappings.sol\":867:904  mappingValues[i] = myMapping[keys[i]] */\n      dup2\n      swap1\n      mstore\n      pop\n        /* \"bootcamp/week2/CRUDmappings.sol\":848:851  i++ */\n      dup1\n      dup1\n      tag_53\n      swap1\n      tag_54\n      jump\t// in\n    tag_53:\n      swap2\n      pop\n      pop\n        /* \"bootcamp/week2/CRUDmappings.sol\":819:915  for (uint i = 0; i < length; i++) {... */\n      jump(tag_38)\n    tag_39:\n      pop\n        /* \"bootcamp/week2/CRUDmappings.sol\":725:921  {... */\n      pop\n        /* \"bootcamp/week2/CRUDmappings.sol\":652:921  function readAll() external view returns (string[] memory mappingValues) {... */\n      swap1\n      jump\t// out\n        /* \"bootcamp/week2/CRUDmappings.sol\":525:646  function readOne(uint256 _val) external view returns (string memory mappingValue) {... */\n    tag_19:\n        /* \"bootcamp/week2/CRUDmappings.sol\":579:605  string memory mappingValue */\n      0x60\n        /* \"bootcamp/week2/CRUDmappings.sol\":624:633  myMapping */\n      0x00\n        /* \"bootcamp/week2/CRUDmappings.sol\":624:639  myMapping[_val] */\n      dup1\n        /* \"bootcamp/week2/CRUDmappings.sol\":634:638  _val */\n      dup4\n        /* \"bootcamp/week2/CRUDmappings.sol\":624:639  myMapping[_val] */\n      dup2\n      mstore\n      0x20\n      add\n      swap1\n      dup2\n      mstore\n      0x20\n      add\n      0x00\n      keccak256\n        /* \"bootcamp/week2/CRUDmappings.sol\":617:639  return myMapping[_val] */\n      dup1\n      sload\n      tag_56\n      swap1\n      tag_46\n      jump\t// in\n    tag_56:\n      dup1\n      0x1f\n      add\n      0x20\n      dup1\n      swap2\n      div\n      mul\n      0x20\n      add\n      mload(0x40)\n      swap1\n      dup2\n      add\n      0x40\n      mstore\n      dup1\n      swap3\n      swap2\n      swap1\n      dup2\n      dup2\n      mstore\n      0x20\n      add\n      dup3\n      dup1\n      sload\n      tag_57\n      swap1\n      tag_46\n      jump\t// in\n    tag_57:\n      dup1\n      iszero\n      tag_58\n      jumpi\n      dup1\n      0x1f\n      lt\n      tag_59\n      jumpi\n      0x0100\n      dup1\n      dup4\n      sload\n      div\n      mul\n      dup4\n      mstore\n      swap2\n      0x20\n      add\n      swap2\n      jump(tag_58)\n    tag_59:\n      dup3\n      add\n      swap2\n      swap1\n      0x00\n      mstore\n      keccak256(0x00, 0x20)\n      swap1\n    tag_60:\n      dup2\n      sload\n      dup2\n      mstore\n      swap1\n      0x01\n      add\n      swap1\n      0x20\n      add\n      dup1\n      dup4\n      gt\n      tag_60\n      jumpi\n      dup3\n      swap1\n      sub\n      0x1f\n      and\n      dup3\n      add\n      swap2\n    tag_58:\n      pop\n      pop\n      pop\n      pop\n      pop\n      swap1\n      pop\n        /* \"bootcamp/week2/CRUDmappings.sol\":525:646  function readOne(uint256 _val) external view returns (string memory mappingValue) {... */\n      swap2\n      swap1\n      pop\n      jump\t// out\n        /* \"bootcamp/week2/CRUDmappings.sol\":396:519  function destroy(uint256 _val) external {... */\n    tag_24:\n        /* \"bootcamp/week2/CRUDmappings.sol\":453:462  myMapping */\n      0x00\n        /* \"bootcamp/week2/CRUDmappings.sol\":453:468  myMapping[_val] */\n      dup1\n        /* \"bootcamp/week2/CRUDmappings.sol\":463:467  _val */\n      dup3\n        /* \"bootcamp/week2/CRUDmappings.sol\":453:468  myMapping[_val] */\n      dup2\n      mstore\n      0x20\n      add\n      swap1\n      dup2\n      mstore\n      0x20\n      add\n      0x00\n      keccak256\n      0x00\n        /* \"bootcamp/week2/CRUDmappings.sol\":446:468  delete myMapping[_val] */\n      tag_62\n      swap2\n      swap1\n      tag_63\n      jump\t// in\n    tag_62:\n        /* \"bootcamp/week2/CRUDmappings.sol\":491:495  keys */\n      0x01\n        /* \"bootcamp/week2/CRUDmappings.sol\":510:511  1 */\n      dup1\n        /* \"bootcamp/week2/CRUDmappings.sol\":496:500  keys */\n      dup1\n        /* \"bootcamp/week2/CRUDmappings.sol\":496:507  keys.length */\n      dup1\n      sload\n      swap1\n      pop\n        /* \"bootcamp/week2/CRUDmappings.sol\":496:511  keys.length - 1 */\n      tag_64\n      swap2\n      swap1\n      tag_65\n      jump\t// in\n    tag_64:\n        /* \"bootcamp/week2/CRUDmappings.sol\":491:512  keys[keys.length - 1] */\n      dup2\n      sload\n      dup2\n      lt\n      tag_66\n      jumpi\n      tag_67\n      tag_43\n      jump\t// in\n    tag_67:\n    tag_66:\n      swap1\n      0x00\n      mstore\n      keccak256(0x00, 0x20)\n      add\n      sload\n        /* \"bootcamp/week2/CRUDmappings.sol\":478:482  keys */\n      0x01\n        /* \"bootcamp/week2/CRUDmappings.sol\":483:487  _val */\n      dup3\n        /* \"bootcamp/week2/CRUDmappings.sol\":478:488  keys[_val] */\n      dup2\n      sload\n      dup2\n      lt\n      tag_69\n      jumpi\n      tag_70\n      tag_43\n      jump\t// in\n    tag_70:\n    tag_69:\n      swap1\n      0x00\n      mstore\n      keccak256(0x00, 0x20)\n      add\n        /* \"bootcamp/week2/CRUDmappings.sol\":478:512  keys[_val] = keys[keys.length - 1] */\n      dup2\n      swap1\n      sstore\n      pop\n        /* \"bootcamp/week2/CRUDmappings.sol\":396:519  function destroy(uint256 _val) external {... */\n      pop\n      jump\t// out\n        /* \"bootcamp/week2/CRUDmappings.sol\":284:390  function update(uint256 _val, string calldata _string) external {... */\n    tag_27:\n        /* \"bootcamp/week2/CRUDmappings.sol\":376:383  _string */\n      dup2\n      dup2\n        /* \"bootcamp/week2/CRUDmappings.sol\":358:367  myMapping */\n      0x00\n        /* \"bootcamp/week2/CRUDmappings.sol\":358:373  myMapping[_val] */\n      dup1\n        /* \"bootcamp/week2/CRUDmappings.sol\":368:372  _val */\n      dup7\n        /* \"bootcamp/week2/CRUDmappings.sol\":358:373  myMapping[_val] */\n      dup2\n      mstore\n      0x20\n      add\n      swap1\n      dup2\n      mstore\n      0x20\n      add\n      0x00\n      keccak256\n        /* \"bootcamp/week2/CRUDmappings.sol\":358:383  myMapping[_val] = _string */\n      swap2\n      swap1\n      tag_73\n      swap3\n      swap2\n      swap1\n      tag_30\n      jump\t// in\n    tag_73:\n      pop\n        /* \"bootcamp/week2/CRUDmappings.sol\":284:390  function update(uint256 _val, string calldata _string) external {... */\n      pop\n      pop\n      pop\n      jump\t// out\n    tag_30:\n      dup3\n      dup1\n      sload\n      tag_74\n      swap1\n      tag_46\n      jump\t// in\n    tag_74:\n      swap1\n      0x00\n      mstore\n      keccak256(0x00, 0x20)\n      swap1\n      0x1f\n      add\n      0x20\n      swap1\n      div\n      dup2\n      add\n      swap3\n      dup3\n      tag_76\n      jumpi\n      0x00\n      dup6\n      sstore\n      jump(tag_75)\n    tag_76:\n      dup3\n      0x1f\n      lt\n      tag_77\n      jumpi\n      dup1\n      calldataload\n      not(0xff)\n      and\n      dup4\n      dup1\n      add\n      or\n      dup6\n      sstore\n      jump(tag_75)\n    tag_77:\n      dup3\n      dup1\n      add\n      0x01\n      add\n      dup6\n      sstore\n      dup3\n      iszero\n      tag_75\n      jumpi\n      swap2\n      dup3\n      add\n    tag_78:\n      dup3\n      dup2\n      gt\n      iszero\n      tag_79\n      jumpi\n      dup3\n      calldataload\n      dup3\n      sstore\n      swap2\n      0x20\n      add\n      swap2\n      swap1\n      0x01\n      add\n      swap1\n      jump(tag_78)\n    tag_79:\n    tag_75:\n      pop\n      swap1\n      pop\n      tag_80\n      swap2\n      swap1\n      tag_81\n      jump\t// in\n    tag_80:\n      pop\n      swap1\n      jump\t// out\n    tag_63:\n      pop\n      dup1\n      sload\n      tag_82\n      swap1\n      tag_46\n      jump\t// in\n    tag_82:\n      0x00\n      dup3\n      sstore\n      dup1\n      0x1f\n      lt\n      tag_84\n      jumpi\n      pop\n      jump(tag_83)\n    tag_84:\n      0x1f\n      add\n      0x20\n      swap1\n      div\n      swap1\n      0x00\n      mstore\n      keccak256(0x00, 0x20)\n      swap1\n      dup2\n      add\n      swap1\n      tag_85\n      swap2\n      swap1\n      tag_81\n      jump\t// in\n    tag_85:\n    tag_83:\n      pop\n      jump\t// out\n    tag_81:\n    tag_86:\n      dup1\n      dup3\n      gt\n      iszero\n      tag_87\n      jumpi\n      0x00\n      dup2\n      0x00\n      swap1\n      sstore\n      pop\n      0x01\n      add\n      jump(tag_86)\n    tag_87:\n      pop\n      swap1\n      jump\t// out\n        /* \"#utility.yul\":88:205   */\n    tag_89:\n        /* \"#utility.yul\":197:198   */\n      0x00\n        /* \"#utility.yul\":194:195   */\n      dup1\n        /* \"#utility.yul\":187:199   */\n      revert\n        /* \"#utility.yul\":211:328   */\n    tag_90:\n        /* \"#utility.yul\":320:321   */\n      0x00\n        /* \"#utility.yul\":317:318   */\n      dup1\n        /* \"#utility.yul\":310:322   */\n      revert\n        /* \"#utility.yul\":334:411   */\n    tag_91:\n        /* \"#utility.yul\":371:378   */\n      0x00\n        /* \"#utility.yul\":400:405   */\n      dup2\n        /* \"#utility.yul\":389:405   */\n      swap1\n      pop\n        /* \"#utility.yul\":334:411   */\n      swap2\n      swap1\n      pop\n      jump\t// out\n        /* \"#utility.yul\":417:539   */\n    tag_92:\n        /* \"#utility.yul\":490:514   */\n      tag_119\n        /* \"#utility.yul\":508:513   */\n      dup2\n        /* \"#utility.yul\":490:514   */\n      tag_91\n      jump\t// in\n    tag_119:\n        /* \"#utility.yul\":483:488   */\n      dup2\n        /* \"#utility.yul\":480:515   */\n      eq\n        /* \"#utility.yul\":470:533   */\n      tag_120\n      jumpi\n        /* \"#utility.yul\":529:530   */\n      0x00\n        /* \"#utility.yul\":526:527   */\n      dup1\n        /* \"#utility.yul\":519:531   */\n      revert\n        /* \"#utility.yul\":470:533   */\n    tag_120:\n        /* \"#utility.yul\":417:539   */\n      pop\n      jump\t// out\n        /* \"#utility.yul\":545:684   */\n    tag_93:\n        /* \"#utility.yul\":591:596   */\n      0x00\n        /* \"#utility.yul\":629:635   */\n      dup2\n        /* \"#utility.yul\":616:636   */\n      calldataload\n        /* \"#utility.yul\":607:636   */\n      swap1\n      pop\n        /* \"#utility.yul\":645:678   */\n      tag_122\n        /* \"#utility.yul\":672:677   */\n      dup2\n        /* \"#utility.yul\":645:678   */\n      tag_92\n      jump\t// in\n    tag_122:\n        /* \"#utility.yul\":545:684   */\n      swap3\n      swap2\n      pop\n      pop\n      jump\t// out\n        /* \"#utility.yul\":690:807   */\n    tag_94:\n        /* \"#utility.yul\":799:800   */\n      0x00\n        /* \"#utility.yul\":796:797   */\n      dup1\n        /* \"#utility.yul\":789:801   */\n      revert\n        /* \"#utility.yul\":813:930   */\n    tag_95:\n        /* \"#utility.yul\":922:923   */\n      0x00\n        /* \"#utility.yul\":919:920   */\n      dup1\n        /* \"#utility.yul\":912:924   */\n      revert\n        /* \"#utility.yul\":936:1053   */\n    tag_96:\n        /* \"#utility.yul\":1045:1046   */\n      0x00\n        /* \"#utility.yul\":1042:1043   */\n      dup1\n        /* \"#utility.yul\":1035:1047   */\n      revert\n        /* \"#utility.yul\":1073:1626   */\n    tag_97:\n        /* \"#utility.yul\":1131:1139   */\n      0x00\n        /* \"#utility.yul\":1141:1147   */\n      dup1\n        /* \"#utility.yul\":1191:1194   */\n      dup4\n        /* \"#utility.yul\":1184:1188   */\n      0x1f\n        /* \"#utility.yul\":1176:1182   */\n      dup5\n        /* \"#utility.yul\":1172:1189   */\n      add\n        /* \"#utility.yul\":1168:1195   */\n      slt\n        /* \"#utility.yul\":1158:1280   */\n      tag_127\n      jumpi\n        /* \"#utility.yul\":1199:1278   */\n      tag_128\n      tag_94\n      jump\t// in\n    tag_128:\n        /* \"#utility.yul\":1158:1280   */\n    tag_127:\n        /* \"#utility.yul\":1312:1318   */\n      dup3\n        /* \"#utility.yul\":1299:1319   */\n      calldataload\n        /* \"#utility.yul\":1289:1319   */\n      swap1\n      pop\n        /* \"#utility.yul\":1342:1360   */\n      0xffffffffffffffff\n        /* \"#utility.yul\":1334:1340   */\n      dup2\n        /* \"#utility.yul\":1331:1361   */\n      gt\n        /* \"#utility.yul\":1328:1445   */\n      iszero\n      tag_129\n      jumpi\n        /* \"#utility.yul\":1364:1443   */\n      tag_130\n      tag_95\n      jump\t// in\n    tag_130:\n        /* \"#utility.yul\":1328:1445   */\n    tag_129:\n        /* \"#utility.yul\":1478:1482   */\n      0x20\n        /* \"#utility.yul\":1470:1476   */\n      dup4\n        /* \"#utility.yul\":1466:1483   */\n      add\n        /* \"#utility.yul\":1454:1483   */\n      swap2\n      pop\n        /* \"#utility.yul\":1532:1535   */\n      dup4\n        /* \"#utility.yul\":1524:1528   */\n      0x01\n        /* \"#utility.yul\":1516:1522   */\n      dup3\n        /* \"#utility.yul\":1512:1529   */\n      mul\n        /* \"#utility.yul\":1502:1510   */\n      dup4\n        /* \"#utility.yul\":1498:1530   */\n      add\n        /* \"#utility.yul\":1495:1536   */\n      gt\n        /* \"#utility.yul\":1492:1620   */\n      iszero\n      tag_131\n      jumpi\n        /* \"#utility.yul\":1539:1618   */\n      tag_132\n      tag_96\n      jump\t// in\n    tag_132:\n        /* \"#utility.yul\":1492:1620   */\n    tag_131:\n        /* \"#utility.yul\":1073:1626   */\n      swap3\n      pop\n      swap3\n      swap1\n      pop\n      jump\t// out\n        /* \"#utility.yul\":1632:2306   */\n    tag_10:\n        /* \"#utility.yul\":1712:1718   */\n      0x00\n        /* \"#utility.yul\":1720:1726   */\n      dup1\n        /* \"#utility.yul\":1728:1734   */\n      0x00\n        /* \"#utility.yul\":1777:1779   */\n      0x40\n        /* \"#utility.yul\":1765:1774   */\n      dup5\n        /* \"#utility.yul\":1756:1763   */\n      dup7\n        /* \"#utility.yul\":1752:1775   */\n      sub\n        /* \"#utility.yul\":1748:1780   */\n      slt\n        /* \"#utility.yul\":1745:1864   */\n      iszero\n      tag_134\n      jumpi\n        /* \"#utility.yul\":1783:1862   */\n      tag_135\n      tag_89\n      jump\t// in\n    tag_135:\n        /* \"#utility.yul\":1745:1864   */\n    tag_134:\n        /* \"#utility.yul\":1903:1904   */\n      0x00\n        /* \"#utility.yul\":1928:1981   */\n      tag_136\n        /* \"#utility.yul\":1973:1980   */\n      dup7\n        /* \"#utility.yul\":1964:1970   */\n      dup3\n        /* \"#utility.yul\":1953:1962   */\n      dup8\n        /* \"#utility.yul\":1949:1971   */\n      add\n        /* \"#utility.yul\":1928:1981   */\n      tag_93\n      jump\t// in\n    tag_136:\n        /* \"#utility.yul\":1918:1981   */\n      swap4\n      pop\n        /* \"#utility.yul\":1874:1991   */\n      pop\n        /* \"#utility.yul\":2058:2060   */\n      0x20\n        /* \"#utility.yul\":2047:2056   */\n      dup5\n        /* \"#utility.yul\":2043:2061   */\n      add\n        /* \"#utility.yul\":2030:2062   */\n      calldataload\n        /* \"#utility.yul\":2089:2107   */\n      0xffffffffffffffff\n        /* \"#utility.yul\":2081:2087   */\n      dup2\n        /* \"#utility.yul\":2078:2108   */\n      gt\n        /* \"#utility.yul\":2075:2192   */\n      iszero\n      tag_137\n      jumpi\n        /* \"#utility.yul\":2111:2190   */\n      tag_138\n      tag_90\n      jump\t// in\n    tag_138:\n        /* \"#utility.yul\":2075:2192   */\n    tag_137:\n        /* \"#utility.yul\":2224:2289   */\n      tag_139\n        /* \"#utility.yul\":2281:2288   */\n      dup7\n        /* \"#utility.yul\":2272:2278   */\n      dup3\n        /* \"#utility.yul\":2261:2270   */\n      dup8\n        /* \"#utility.yul\":2257:2279   */\n      add\n        /* \"#utility.yul\":2224:2289   */\n      tag_97\n      jump\t// in\n    tag_139:\n        /* \"#utility.yul\":2206:2289   */\n      swap3\n      pop\n      swap3\n      pop\n        /* \"#utility.yul\":2001:2299   */\n      pop\n        /* \"#utility.yul\":1632:2306   */\n      swap3\n      pop\n      swap3\n      pop\n      swap3\n      jump\t// out\n        /* \"#utility.yul\":2312:2436   */\n    tag_98:\n        /* \"#utility.yul\":2389:2395   */\n      0x00\n        /* \"#utility.yul\":2423:2428   */\n      dup2\n        /* \"#utility.yul\":2417:2429   */\n      mload\n        /* \"#utility.yul\":2407:2429   */\n      swap1\n      pop\n        /* \"#utility.yul\":2312:2436   */\n      swap2\n      swap1\n      pop\n      jump\t// out\n        /* \"#utility.yul\":2442:2636   */\n    tag_99:\n        /* \"#utility.yul\":2551:2562   */\n      0x00\n        /* \"#utility.yul\":2585:2591   */\n      dup3\n        /* \"#utility.yul\":2580:2583   */\n      dup3\n        /* \"#utility.yul\":2573:2592   */\n      mstore\n        /* \"#utility.yul\":2625:2629   */\n      0x20\n        /* \"#utility.yul\":2620:2623   */\n      dup3\n        /* \"#utility.yul\":2616:2630   */\n      add\n        /* \"#utility.yul\":2601:2630   */\n      swap1\n      pop\n        /* \"#utility.yul\":2442:2636   */\n      swap3\n      swap2\n      pop\n      pop\n      jump\t// out\n        /* \"#utility.yul\":2642:2784   */\n    tag_100:\n        /* \"#utility.yul\":2719:2723   */\n      0x00\n        /* \"#utility.yul\":2742:2745   */\n      dup2\n        /* \"#utility.yul\":2734:2745   */\n      swap1\n      pop\n        /* \"#utility.yul\":2772:2776   */\n      0x20\n        /* \"#utility.yul\":2767:2770   */\n      dup3\n        /* \"#utility.yul\":2763:2777   */\n      add\n        /* \"#utility.yul\":2755:2777   */\n      swap1\n      pop\n        /* \"#utility.yul\":2642:2784   */\n      swap2\n      swap1\n      pop\n      jump\t// out\n        /* \"#utility.yul\":2790:2889   */\n    tag_101:\n        /* \"#utility.yul\":2842:2848   */\n      0x00\n        /* \"#utility.yul\":2876:2881   */\n      dup2\n        /* \"#utility.yul\":2870:2882   */\n      mload\n        /* \"#utility.yul\":2860:2882   */\n      swap1\n      pop\n        /* \"#utility.yul\":2790:2889   */\n      swap2\n      swap1\n      pop\n      jump\t// out\n        /* \"#utility.yul\":2895:3054   */\n    tag_102:\n        /* \"#utility.yul\":2969:2980   */\n      0x00\n        /* \"#utility.yul\":3003:3009   */\n      dup3\n        /* \"#utility.yul\":2998:3001   */\n      dup3\n        /* \"#utility.yul\":2991:3010   */\n      mstore\n        /* \"#utility.yul\":3043:3047   */\n      0x20\n        /* \"#utility.yul\":3038:3041   */\n      dup3\n        /* \"#utility.yul\":3034:3048   */\n      add\n        /* \"#utility.yul\":3019:3048   */\n      swap1\n      pop\n        /* \"#utility.yul\":2895:3054   */\n      swap3\n      swap2\n      pop\n      pop\n      jump\t// out\n        /* \"#utility.yul\":3060:3367   */\n    tag_103:\n        /* \"#utility.yul\":3128:3129   */\n      0x00\n        /* \"#utility.yul\":3138:3251   */\n    tag_146:\n        /* \"#utility.yul\":3152:3158   */\n      dup4\n        /* \"#utility.yul\":3149:3150   */\n      dup2\n        /* \"#utility.yul\":3146:3159   */\n      lt\n        /* \"#utility.yul\":3138:3251   */\n      iszero\n      tag_148\n      jumpi\n        /* \"#utility.yul\":3237:3238   */\n      dup1\n        /* \"#utility.yul\":3232:3235   */\n      dup3\n        /* \"#utility.yul\":3228:3239   */\n      add\n        /* \"#utility.yul\":3222:3240   */\n      mload\n        /* \"#utility.yul\":3218:3219   */\n      dup2\n        /* \"#utility.yul\":3213:3216   */\n      dup5\n        /* \"#utility.yul\":3209:3220   */\n      add\n        /* \"#utility.yul\":3202:3241   */\n      mstore\n        /* \"#utility.yul\":3174:3176   */\n      0x20\n        /* \"#utility.yul\":3171:3172   */\n      dup2\n        /* \"#utility.yul\":3167:3177   */\n      add\n        /* \"#utility.yul\":3162:3177   */\n      swap1\n      pop\n        /* \"#utility.yul\":3138:3251   */\n      jump(tag_146)\n    tag_148:\n        /* \"#utility.yul\":3269:3275   */\n      dup4\n        /* \"#utility.yul\":3266:3267   */\n      dup2\n        /* \"#utility.yul\":3263:3276   */\n      gt\n        /* \"#utility.yul\":3260:3361   */\n      iszero\n      tag_149\n      jumpi\n        /* \"#utility.yul\":3349:3350   */\n      0x00\n        /* \"#utility.yul\":3340:3346   */\n      dup5\n        /* \"#utility.yul\":3335:3338   */\n      dup5\n        /* \"#utility.yul\":3331:3347   */\n      add\n        /* \"#utility.yul\":3324:3351   */\n      mstore\n        /* \"#utility.yul\":3260:3361   */\n    tag_149:\n        /* \"#utility.yul\":3109:3367   */\n      pop\n        /* \"#utility.yul\":3060:3367   */\n      pop\n      pop\n      pop\n      jump\t// out\n        /* \"#utility.yul\":3373:3475   */\n    tag_104:\n        /* \"#utility.yul\":3414:3420   */\n      0x00\n        /* \"#utility.yul\":3465:3467   */\n      0x1f\n        /* \"#utility.yul\":3461:3468   */\n      not\n        /* \"#utility.yul\":3456:3458   */\n      0x1f\n        /* \"#utility.yul\":3449:3454   */\n      dup4\n        /* \"#utility.yul\":3445:3459   */\n      add\n        /* \"#utility.yul\":3441:3469   */\n      and\n        /* \"#utility.yul\":3431:3469   */\n      swap1\n      pop\n        /* \"#utility.yul\":3373:3475   */\n      swap2\n      swap1\n      pop\n      jump\t// out\n        /* \"#utility.yul\":3481:3825   */\n    tag_105:\n        /* \"#utility.yul\":3559:3562   */\n      0x00\n        /* \"#utility.yul\":3587:3626   */\n      tag_152\n        /* \"#utility.yul\":3620:3625   */\n      dup3\n        /* \"#utility.yul\":3587:3626   */\n      tag_101\n      jump\t// in\n    tag_152:\n        /* \"#utility.yul\":3642:3703   */\n      tag_153\n        /* \"#utility.yul\":3696:3702   */\n      dup2\n        /* \"#utility.yul\":3691:3694   */\n      dup6\n        /* \"#utility.yul\":3642:3703   */\n      tag_102\n      jump\t// in\n    tag_153:\n        /* \"#utility.yul\":3635:3703   */\n      swap4\n      pop\n        /* \"#utility.yul\":3712:3764   */\n      tag_154\n        /* \"#utility.yul\":3757:3763   */\n      dup2\n        /* \"#utility.yul\":3752:3755   */\n      dup6\n        /* \"#utility.yul\":3745:3749   */\n      0x20\n        /* \"#utility.yul\":3738:3743   */\n      dup7\n        /* \"#utility.yul\":3734:3750   */\n      add\n        /* \"#utility.yul\":3712:3764   */\n      tag_103\n      jump\t// in\n    tag_154:\n        /* \"#utility.yul\":3789:3818   */\n      tag_155\n        /* \"#utility.yul\":3811:3817   */\n      dup2\n        /* \"#utility.yul\":3789:3818   */\n      tag_104\n      jump\t// in\n    tag_155:\n        /* \"#utility.yul\":3784:3787   */\n      dup5\n        /* \"#utility.yul\":3780:3819   */\n      add\n        /* \"#utility.yul\":3773:3819   */\n      swap2\n      pop\n        /* \"#utility.yul\":3563:3825   */\n      pop\n        /* \"#utility.yul\":3481:3825   */\n      swap3\n      swap2\n      pop\n      pop\n      jump\t// out\n        /* \"#utility.yul\":3831:4027   */\n    tag_106:\n        /* \"#utility.yul\":3920:3930   */\n      0x00\n        /* \"#utility.yul\":3955:4021   */\n      tag_157\n        /* \"#utility.yul\":4017:4020   */\n      dup4\n        /* \"#utility.yul\":4009:4015   */\n      dup4\n        /* \"#utility.yul\":3955:4021   */\n      tag_105\n      jump\t// in\n    tag_157:\n        /* \"#utility.yul\":3941:4021   */\n      swap1\n      pop\n        /* \"#utility.yul\":3831:4027   */\n      swap3\n      swap2\n      pop\n      pop\n      jump\t// out\n        /* \"#utility.yul\":4033:4156   */\n    tag_107:\n        /* \"#utility.yul\":4113:4117   */\n      0x00\n        /* \"#utility.yul\":4145:4149   */\n      0x20\n        /* \"#utility.yul\":4140:4143   */\n      dup3\n        /* \"#utility.yul\":4136:4150   */\n      add\n        /* \"#utility.yul\":4128:4150   */\n      swap1\n      pop\n        /* \"#utility.yul\":4033:4156   */\n      swap2\n      swap1\n      pop\n      jump\t// out\n        /* \"#utility.yul\":4190:5181   */\n    tag_108:\n        /* \"#utility.yul\":4329:4332   */\n      0x00\n        /* \"#utility.yul\":4358:4422   */\n      tag_160\n        /* \"#utility.yul\":4416:4421   */\n      dup3\n        /* \"#utility.yul\":4358:4422   */\n      tag_98\n      jump\t// in\n    tag_160:\n        /* \"#utility.yul\":4438:4534   */\n      tag_161\n        /* \"#utility.yul\":4527:4533   */\n      dup2\n        /* \"#utility.yul\":4522:4525   */\n      dup6\n        /* \"#utility.yul\":4438:4534   */\n      tag_99\n      jump\t// in\n    tag_161:\n        /* \"#utility.yul\":4431:4534   */\n      swap4\n      pop\n        /* \"#utility.yul\":4560:4563   */\n      dup4\n        /* \"#utility.yul\":4605:4609   */\n      0x20\n        /* \"#utility.yul\":4597:4603   */\n      dup3\n        /* \"#utility.yul\":4593:4610   */\n      mul\n        /* \"#utility.yul\":4588:4591   */\n      dup6\n        /* \"#utility.yul\":4584:4611   */\n      add\n        /* \"#utility.yul\":4635:4701   */\n      tag_162\n        /* \"#utility.yul\":4695:4700   */\n      dup6\n        /* \"#utility.yul\":4635:4701   */\n      tag_100\n      jump\t// in\n    tag_162:\n        /* \"#utility.yul\":4724:4731   */\n      dup1\n        /* \"#utility.yul\":4755:4756   */\n      0x00\n        /* \"#utility.yul\":4740:5136   */\n    tag_163:\n        /* \"#utility.yul\":4765:4771   */\n      dup6\n        /* \"#utility.yul\":4762:4763   */\n      dup2\n        /* \"#utility.yul\":4759:4772   */\n      lt\n        /* \"#utility.yul\":4740:5136   */\n      iszero\n      tag_165\n      jumpi\n        /* \"#utility.yul\":4836:4845   */\n      dup5\n        /* \"#utility.yul\":4830:4834   */\n      dup5\n        /* \"#utility.yul\":4826:4846   */\n      sub\n        /* \"#utility.yul\":4821:4824   */\n      dup10\n        /* \"#utility.yul\":4814:4847   */\n      mstore\n        /* \"#utility.yul\":4887:4893   */\n      dup2\n        /* \"#utility.yul\":4881:4894   */\n      mload\n        /* \"#utility.yul\":4915:4999   */\n      tag_166\n        /* \"#utility.yul\":4994:4998   */\n      dup6\n        /* \"#utility.yul\":4979:4992   */\n      dup3\n        /* \"#utility.yul\":4915:4999   */\n      tag_106\n      jump\t// in\n    tag_166:\n        /* \"#utility.yul\":4907:4999   */\n      swap5\n      pop\n        /* \"#utility.yul\":5022:5092   */\n      tag_167\n        /* \"#utility.yul\":5085:5091   */\n      dup4\n        /* \"#utility.yul\":5022:5092   */\n      tag_107\n      jump\t// in\n    tag_167:\n        /* \"#utility.yul\":5012:5092   */\n      swap3\n      pop\n        /* \"#utility.yul\":5121:5125   */\n      0x20\n        /* \"#utility.yul\":5116:5119   */\n      dup11\n        /* \"#utility.yul\":5112:5126   */\n      add\n        /* \"#utility.yul\":5105:5126   */\n      swap10\n      pop\n        /* \"#utility.yul\":4800:5136   */\n      pop\n        /* \"#utility.yul\":4787:4788   */\n      0x01\n        /* \"#utility.yul\":4784:4785   */\n      dup2\n        /* \"#utility.yul\":4780:4789   */\n      add\n        /* \"#utility.yul\":4775:4789   */\n      swap1\n      pop\n        /* \"#utility.yul\":4740:5136   */\n      jump(tag_163)\n    tag_165:\n        /* \"#utility.yul\":4744:4758   */\n      pop\n        /* \"#utility.yul\":5152:5156   */\n      dup3\n        /* \"#utility.yul\":5145:5156   */\n      swap8\n      pop\n        /* \"#utility.yul\":5172:5175   */\n      dup8\n        /* \"#utility.yul\":5165:5175   */\n      swap6\n      pop\n        /* \"#utility.yul\":4334:5181   */\n      pop\n      pop\n      pop\n      pop\n      pop\n        /* \"#utility.yul\":4190:5181   */\n      swap3\n      swap2\n      pop\n      pop\n      jump\t// out\n        /* \"#utility.yul\":5187:5600   */\n    tag_15:\n        /* \"#utility.yul\":5350:5354   */\n      0x00\n        /* \"#utility.yul\":5388:5390   */\n      0x20\n        /* \"#utility.yul\":5377:5386   */\n      dup3\n        /* \"#utility.yul\":5373:5391   */\n      add\n        /* \"#utility.yul\":5365:5391   */\n      swap1\n      pop\n        /* \"#utility.yul\":5437:5446   */\n      dup2\n        /* \"#utility.yul\":5431:5435   */\n      dup2\n        /* \"#utility.yul\":5427:5447   */\n      sub\n        /* \"#utility.yul\":5423:5424   */\n      0x00\n        /* \"#utility.yul\":5412:5421   */\n      dup4\n        /* \"#utility.yul\":5408:5425   */\n      add\n        /* \"#utility.yul\":5401:5448   */\n      mstore\n        /* \"#utility.yul\":5465:5593   */\n      tag_169\n        /* \"#utility.yul\":5588:5592   */\n      dup2\n        /* \"#utility.yul\":5579:5585   */\n      dup5\n        /* \"#utility.yul\":5465:5593   */\n      tag_108\n      jump\t// in\n    tag_169:\n        /* \"#utility.yul\":5457:5593   */\n      swap1\n      pop\n        /* \"#utility.yul\":5187:5600   */\n      swap3\n      swap2\n      pop\n      pop\n      jump\t// out\n        /* \"#utility.yul\":5606:5935   */\n    tag_18:\n        /* \"#utility.yul\":5665:5671   */\n      0x00\n        /* \"#utility.yul\":5714:5716   */\n      0x20\n        /* \"#utility.yul\":5702:5711   */\n      dup3\n        /* \"#utility.yul\":5693:5700   */\n      dup5\n        /* \"#utility.yul\":5689:5712   */\n      sub\n        /* \"#utility.yul\":5685:5717   */\n      slt\n        /* \"#utility.yul\":5682:5801   */\n      iszero\n      tag_171\n      jumpi\n        /* \"#utility.yul\":5720:5799   */\n      tag_172\n      tag_89\n      jump\t// in\n    tag_172:\n        /* \"#utility.yul\":5682:5801   */\n    tag_171:\n        /* \"#utility.yul\":5840:5841   */\n      0x00\n        /* \"#utility.yul\":5865:5918   */\n      tag_173\n        /* \"#utility.yul\":5910:5917   */\n      dup5\n        /* \"#utility.yul\":5901:5907   */\n      dup3\n        /* \"#utility.yul\":5890:5899   */\n      dup6\n        /* \"#utility.yul\":5886:5908   */\n      add\n        /* \"#utility.yul\":5865:5918   */\n      tag_93\n      jump\t// in\n    tag_173:\n        /* \"#utility.yul\":5855:5918   */\n      swap2\n      pop\n        /* \"#utility.yul\":5811:5928   */\n      pop\n        /* \"#utility.yul\":5606:5935   */\n      swap3\n      swap2\n      pop\n      pop\n      jump\t// out\n        /* \"#utility.yul\":5941:6110   */\n    tag_109:\n        /* \"#utility.yul\":6025:6036   */\n      0x00\n        /* \"#utility.yul\":6059:6065   */\n      dup3\n        /* \"#utility.yul\":6054:6057   */\n      dup3\n        /* \"#utility.yul\":6047:6066   */\n      mstore\n        /* \"#utility.yul\":6099:6103   */\n      0x20\n        /* \"#utility.yul\":6094:6097   */\n      dup3\n        /* \"#utility.yul\":6090:6104   */\n      add\n        /* \"#utility.yul\":6075:6104   */\n      swap1\n      pop\n        /* \"#utility.yul\":5941:6110   */\n      swap3\n      swap2\n      pop\n      pop\n      jump\t// out\n        /* \"#utility.yul\":6116:6480   */\n    tag_110:\n        /* \"#utility.yul\":6204:6207   */\n      0x00\n        /* \"#utility.yul\":6232:6271   */\n      tag_176\n        /* \"#utility.yul\":6265:6270   */\n      dup3\n        /* \"#utility.yul\":6232:6271   */\n      tag_101\n      jump\t// in\n    tag_176:\n        /* \"#utility.yul\":6287:6358   */\n      tag_177\n        /* \"#utility.yul\":6351:6357   */\n      dup2\n        /* \"#utility.yul\":6346:6349   */\n      dup6\n        /* \"#utility.yul\":6287:6358   */\n      tag_109\n      jump\t// in\n    tag_177:\n        /* \"#utility.yul\":6280:6358   */\n      swap4\n      pop\n        /* \"#utility.yul\":6367:6419   */\n      tag_178\n        /* \"#utility.yul\":6412:6418   */\n      dup2\n        /* \"#utility.yul\":6407:6410   */\n      dup6\n        /* \"#utility.yul\":6400:6404   */\n      0x20\n        /* \"#utility.yul\":6393:6398   */\n      dup7\n        /* \"#utility.yul\":6389:6405   */\n      add\n        /* \"#utility.yul\":6367:6419   */\n      tag_103\n      jump\t// in\n    tag_178:\n        /* \"#utility.yul\":6444:6473   */\n      tag_179\n        /* \"#utility.yul\":6466:6472   */\n      dup2\n        /* \"#utility.yul\":6444:6473   */\n      tag_104\n      jump\t// in\n    tag_179:\n        /* \"#utility.yul\":6439:6442   */\n      dup5\n        /* \"#utility.yul\":6435:6474   */\n      add\n        /* \"#utility.yul\":6428:6474   */\n      swap2\n      pop\n        /* \"#utility.yul\":6208:6480   */\n      pop\n        /* \"#utility.yul\":6116:6480   */\n      swap3\n      swap2\n      pop\n      pop\n      jump\t// out\n        /* \"#utility.yul\":6486:6799   */\n    tag_21:\n        /* \"#utility.yul\":6599:6603   */\n      0x00\n        /* \"#utility.yul\":6637:6639   */\n      0x20\n        /* \"#utility.yul\":6626:6635   */\n      dup3\n        /* \"#utility.yul\":6622:6640   */\n      add\n        /* \"#utility.yul\":6614:6640   */\n      swap1\n      pop\n        /* \"#utility.yul\":6686:6695   */\n      dup2\n        /* \"#utility.yul\":6680:6684   */\n      dup2\n        /* \"#utility.yul\":6676:6696   */\n      sub\n        /* \"#utility.yul\":6672:6673   */\n      0x00\n        /* \"#utility.yul\":6661:6670   */\n      dup4\n        /* \"#utility.yul\":6657:6674   */\n      add\n        /* \"#utility.yul\":6650:6697   */\n      mstore\n        /* \"#utility.yul\":6714:6792   */\n      tag_181\n        /* \"#utility.yul\":6787:6791   */\n      dup2\n        /* \"#utility.yul\":6778:6784   */\n      dup5\n        /* \"#utility.yul\":6714:6792   */\n      tag_110\n      jump\t// in\n    tag_181:\n        /* \"#utility.yul\":6706:6792   */\n      swap1\n      pop\n        /* \"#utility.yul\":6486:6799   */\n      swap3\n      swap2\n      pop\n      pop\n      jump\t// out\n        /* \"#utility.yul\":6805:6985   */\n    tag_35:\n        /* \"#utility.yul\":6853:6930   */\n      0x4e487b7100000000000000000000000000000000000000000000000000000000\n        /* \"#utility.yul\":6850:6851   */\n      0x00\n        /* \"#utility.yul\":6843:6931   */\n      mstore\n        /* \"#utility.yul\":6950:6954   */\n      0x41\n        /* \"#utility.yul\":6947:6948   */\n      0x04\n        /* \"#utility.yul\":6940:6955   */\n      mstore\n        /* \"#utility.yul\":6974:6978   */\n      0x24\n        /* \"#utility.yul\":6971:6972   */\n      0x00\n        /* \"#utility.yul\":6964:6979   */\n      revert\n        /* \"#utility.yul\":6991:7171   */\n    tag_43:\n        /* \"#utility.yul\":7039:7116   */\n      0x4e487b7100000000000000000000000000000000000000000000000000000000\n        /* \"#utility.yul\":7036:7037   */\n      0x00\n        /* \"#utility.yul\":7029:7117   */\n      mstore\n        /* \"#utility.yul\":7136:7140   */\n      0x32\n        /* \"#utility.yul\":7133:7134   */\n      0x04\n        /* \"#utility.yul\":7126:7141   */\n      mstore\n        /* \"#utility.yul\":7160:7164   */\n      0x24\n        /* \"#utility.yul\":7157:7158   */\n      0x00\n        /* \"#utility.yul\":7150:7165   */\n      revert\n        /* \"#utility.yul\":7177:7357   */\n    tag_111:\n        /* \"#utility.yul\":7225:7302   */\n      0x4e487b7100000000000000000000000000000000000000000000000000000000\n        /* \"#utility.yul\":7222:7223   */\n      0x00\n        /* \"#utility.yul\":7215:7303   */\n      mstore\n        /* \"#utility.yul\":7322:7326   */\n      0x22\n        /* \"#utility.yul\":7319:7320   */\n      0x04\n        /* \"#utility.yul\":7312:7327   */\n      mstore\n        /* \"#utility.yul\":7346:7350   */\n      0x24\n        /* \"#utility.yul\":7343:7344   */\n      0x00\n        /* \"#utility.yul\":7336:7351   */\n      revert\n        /* \"#utility.yul\":7363:7683   */\n    tag_46:\n        /* \"#utility.yul\":7407:7413   */\n      0x00\n        /* \"#utility.yul\":7444:7445   */\n      0x02\n        /* \"#utility.yul\":7438:7442   */\n      dup3\n        /* \"#utility.yul\":7434:7446   */\n      div\n        /* \"#utility.yul\":7424:7446   */\n      swap1\n      pop\n        /* \"#utility.yul\":7491:7492   */\n      0x01\n        /* \"#utility.yul\":7485:7489   */\n      dup3\n        /* \"#utility.yul\":7481:7493   */\n      and\n        /* \"#utility.yul\":7512:7530   */\n      dup1\n        /* \"#utility.yul\":7502:7583   */\n      tag_186\n      jumpi\n        /* \"#utility.yul\":7568:7572   */\n      0x7f\n        /* \"#utility.yul\":7560:7566   */\n      dup3\n        /* \"#utility.yul\":7556:7573   */\n      and\n        /* \"#utility.yul\":7546:7573   */\n      swap2\n      pop\n        /* \"#utility.yul\":7502:7583   */\n    tag_186:\n        /* \"#utility.yul\":7630:7632   */\n      0x20\n        /* \"#utility.yul\":7622:7628   */\n      dup3\n        /* \"#utility.yul\":7619:7633   */\n      lt\n        /* \"#utility.yul\":7599:7617   */\n      dup2\n        /* \"#utility.yul\":7596:7634   */\n      sub\n        /* \"#utility.yul\":7593:7677   */\n      tag_187\n      jumpi\n        /* \"#utility.yul\":7649:7667   */\n      tag_188\n      tag_111\n      jump\t// in\n    tag_188:\n        /* \"#utility.yul\":7593:7677   */\n    tag_187:\n        /* \"#utility.yul\":7414:7683   */\n      pop\n        /* \"#utility.yul\":7363:7683   */\n      swap2\n      swap1\n      pop\n      jump\t// out\n        /* \"#utility.yul\":7689:7869   */\n    tag_112:\n        /* \"#utility.yul\":7737:7814   */\n      0x4e487b7100000000000000000000000000000000000000000000000000000000\n        /* \"#utility.yul\":7734:7735   */\n      0x00\n        /* \"#utility.yul\":7727:7815   */\n      mstore\n        /* \"#utility.yul\":7834:7838   */\n      0x11\n        /* \"#utility.yul\":7831:7832   */\n      0x04\n        /* \"#utility.yul\":7824:7839   */\n      mstore\n        /* \"#utility.yul\":7858:7862   */\n      0x24\n        /* \"#utility.yul\":7855:7856   */\n      0x00\n        /* \"#utility.yul\":7848:7863   */\n      revert\n        /* \"#utility.yul\":7875:8108   */\n    tag_54:\n        /* \"#utility.yul\":7914:7917   */\n      0x00\n        /* \"#utility.yul\":7937:7961   */\n      tag_191\n        /* \"#utility.yul\":7955:7960   */\n      dup3\n        /* \"#utility.yul\":7937:7961   */\n      tag_91\n      jump\t// in\n    tag_191:\n        /* \"#utility.yul\":7928:7961   */\n      swap2\n      pop\n        /* \"#utility.yul\":7983:8049   */\n      0xffffffffffffffffffffffffffffffffffffffffffffffffffffffffffffffff\n        /* \"#utility.yul\":7976:7981   */\n      dup3\n        /* \"#utility.yul\":7973:8050   */\n      sub\n        /* \"#utility.yul\":7970:8073   */\n      tag_192\n      jumpi\n        /* \"#utility.yul\":8053:8071   */\n      tag_193\n      tag_112\n      jump\t// in\n    tag_193:\n        /* \"#utility.yul\":7970:8073   */\n    tag_192:\n        /* \"#utility.yul\":8100:8101   */\n      0x01\n        /* \"#utility.yul\":8093:8098   */\n      dup3\n        /* \"#utility.yul\":8089:8102   */\n      add\n        /* \"#utility.yul\":8082:8102   */\n      swap1\n      pop\n        /* \"#utility.yul\":7875:8108   */\n      swap2\n      swap1\n      pop\n      jump\t// out\n        /* \"#utility.yul\":8114:8305   */\n    tag_65:\n        /* \"#utility.yul\":8154:8158   */\n      0x00\n        /* \"#utility.yul\":8174:8194   */\n      tag_195\n        /* \"#utility.yul\":8192:8193   */\n      dup3\n        /* \"#utility.yul\":8174:8194   */\n      tag_91\n      jump\t// in\n    tag_195:\n        /* \"#utility.yul\":8169:8194   */\n      swap2\n      pop\n        /* \"#utility.yul\":8208:8228   */\n      tag_196\n        /* \"#utility.yul\":8226:8227   */\n      dup4\n        /* \"#utility.yul\":8208:8228   */\n      tag_91\n      jump\t// in\n    tag_196:\n        /* \"#utility.yul\":8203:8228   */\n      swap3\n      pop\n        /* \"#utility.yul\":8247:8248   */\n      dup3\n        /* \"#utility.yul\":8244:8245   */\n      dup3\n        /* \"#utility.yul\":8241:8249   */\n      lt\n        /* \"#utility.yul\":8238:8272   */\n      iszero\n      tag_197\n      jumpi\n        /* \"#utility.yul\":8252:8270   */\n      tag_198\n      tag_112\n      jump\t// in\n    tag_198:\n        /* \"#utility.yul\":8238:8272   */\n    tag_197:\n        /* \"#utility.yul\":8297:8298   */\n      dup3\n        /* \"#utility.yul\":8294:8295   */\n      dup3\n        /* \"#utility.yul\":8290:8299   */\n      sub\n        /* \"#utility.yul\":8282:8299   */\n      swap1\n      pop\n        /* \"#utility.yul\":8114:8305   */\n      swap3\n      swap2\n      pop\n      pop\n      jump\t// out\n\n    auxdata: 0xa264697066735822122081421fa296fbfbd5a7709dca4d889594c28c564e261386cfed3512eb58c1084c64736f6c634300080e0033\n}\n",
				"bytecode": {
					"linkReferences": {},
					"object": "608060405234801561001057600080fd5b5061097d806100206000396000f3fe608060405234801561001057600080fd5b50600436106100575760003560e01c80630118fa491461005c57806341f654f71461007857806359306ca5146100965780639d118770146100c6578063f745630f146100e2575b600080fd5b61007660048036038101906100719190610568565b6100fe565b005b61008061014e565b60405161008d9190610723565b60405180910390f35b6100b060048036038101906100ab9190610745565b6102a4565b6040516100bd91906107bc565b60405180910390f35b6100e060048036038101906100db9190610745565b610348565b005b6100fc60048036038101906100f79190610568565b6103b9565b005b8181600080868152602001908152602001600020919061011f9291906103e0565b506001839080600181540180825580915050600190039060005260206000200160009091909190915055505050565b6060600060018054905090508067ffffffffffffffff811115610174576101736107de565b5b6040519080825280602002602001820160405280156101a757816020015b60608152602001906001900390816101925790505b50915060005b8181101561029f57600080600183815481106101cc576101cb61080d565b5b9060005260206000200154815260200190815260200160002080546101f09061086b565b80601f016020809104026020016040519081016040528092919081815260200182805461021c9061086b565b80156102695780601f1061023e57610100808354040283529160200191610269565b820191906000526020600020905b81548152906001019060200180831161024c57829003601f168201915b50505050508382815181106102815761028061080d565b5b60200260200101819052508080610297906108cb565b9150506101ad565b505090565b606060008083815260200190815260200160002080546102c39061086b565b80601f01602080910402602001604051908101604052809291908181526020018280546102ef9061086b565b801561033c5780601f106103115761010080835404028352916020019161033c565b820191906000526020600020905b81548152906001019060200180831161031f57829003601f168201915b50505050509050919050565b60008082815260200190815260200160002060006103669190610466565b60018080805490506103789190610913565b815481106103895761038861080d565b5b9060005260206000200154600182815481106103a8576103a761080d565b5b906000526020600020018190555050565b818160008086815260200190815260200160002091906103da9291906103e0565b50505050565b8280546103ec9061086b565b90600052602060002090601f01602090048101928261040e5760008555610455565b82601f1061042757803560ff1916838001178555610455565b82800160010185558215610455579182015b82811115610454578235825591602001919060010190610439565b5b50905061046291906104a6565b5090565b5080546104729061086b565b6000825580601f1061048457506104a3565b601f0160209004906000526020600020908101906104a291906104a6565b5b50565b5b808211156104bf5760008160009055506001016104a7565b5090565b600080fd5b600080fd5b6000819050919050565b6104e0816104cd565b81146104eb57600080fd5b50565b6000813590506104fd816104d7565b92915050565b600080fd5b600080fd5b600080fd5b60008083601f84011261052857610527610503565b5b8235905067ffffffffffffffff81111561054557610544610508565b5b6020830191508360018202830111156105615761056061050d565b5b9250929050565b600080600060408486031215610581576105806104c3565b5b600061058f868287016104ee565b935050602084013567ffffffffffffffff8111156105b0576105af6104c8565b5b6105bc86828701610512565b92509250509250925092565b600081519050919050565b600082825260208201905092915050565b6000819050602082019050919050565b600081519050919050565b600082825260208201905092915050565b60005b8381101561062e578082015181840152602081019050610613565b8381111561063d576000848401525b50505050565b6000601f19601f8301169050919050565b600061065f826105f4565b61066981856105ff565b9350610679818560208601610610565b61068281610643565b840191505092915050565b60006106998383610654565b905092915050565b6000602082019050919050565b60006106b9826105c8565b6106c381856105d3565b9350836020820285016106d5856105e4565b8060005b8581101561071157848403895281516106f2858261068d565b94506106fd836106a1565b925060208a019950506001810190506106d9565b50829750879550505050505092915050565b6000602082019050818103600083015261073d81846106ae565b905092915050565b60006020828403121561075b5761075a6104c3565b5b6000610769848285016104ee565b91505092915050565b600082825260208201905092915050565b600061078e826105f4565b6107988185610772565b93506107a8818560208601610610565b6107b181610643565b840191505092915050565b600060208201905081810360008301526107d68184610783565b905092915050565b7f4e487b7100000000000000000000000000000000000000000000000000000000600052604160045260246000fd5b7f4e487b7100000000000000000000000000000000000000000000000000000000600052603260045260246000fd5b7f4e487b7100000000000000000000000000000000000000000000000000000000600052602260045260246000fd5b6000600282049050600182168061088357607f821691505b6020821081036108965761089561083c565b5b50919050565b7f4e487b7100000000000000000000000000000000000000000000000000000000600052601160045260246000fd5b60006108d6826104cd565b91507fffffffffffffffffffffffffffffffffffffffffffffffffffffffffffffffff82036109085761090761089c565b5b600182019050919050565b600061091e826104cd565b9150610929836104cd565b92508282101561093c5761093b61089c565b5b82820390509291505056fea264697066735822122081421fa296fbfbd5a7709dca4d889594c28c564e261386cfed3512eb58c1084c64736f6c634300080e0033",
					"opcodes": "PUSH1 0x80 PUSH1 0x40 MSTORE CALLVALUE DUP1 ISZERO PUSH2 0x10 JUMPI PUSH1 0x0 DUP1 REVERT JUMPDEST POP PUSH2 0x97D DUP1 PUSH2 0x20 PUSH1 0x0 CODECOPY PUSH1 0x0 RETURN INVALID PUSH1 0x80 PUSH1 0x40 MSTORE CALLVALUE DUP1 ISZERO PUSH2 0x10 JUMPI PUSH1 0x0 DUP1 REVERT JUMPDEST POP PUSH1 0x4 CALLDATASIZE LT PUSH2 0x57 JUMPI PUSH1 0x0 CALLDATALOAD PUSH1 0xE0 SHR DUP1 PUSH4 0x118FA49 EQ PUSH2 0x5C JUMPI DUP1 PUSH4 0x41F654F7 EQ PUSH2 0x78 JUMPI DUP1 PUSH4 0x59306CA5 EQ PUSH2 0x96 JUMPI DUP1 PUSH4 0x9D118770 EQ PUSH2 0xC6 JUMPI DUP1 PUSH4 0xF745630F EQ PUSH2 0xE2 JUMPI JUMPDEST PUSH1 0x0 DUP1 REVERT JUMPDEST PUSH2 0x76 PUSH1 0x4 DUP1 CALLDATASIZE SUB DUP2 ADD SWAP1 PUSH2 0x71 SWAP2 SWAP1 PUSH2 0x568 JUMP JUMPDEST PUSH2 0xFE JUMP JUMPDEST STOP JUMPDEST PUSH2 0x80 PUSH2 0x14E JUMP JUMPDEST PUSH1 0x40 MLOAD PUSH2 0x8D SWAP2 SWAP1 PUSH2 0x723 JUMP JUMPDEST PUSH1 0x40 MLOAD DUP1 SWAP2 SUB SWAP1 RETURN JUMPDEST PUSH2 0xB0 PUSH1 0x4 DUP1 CALLDATASIZE SUB DUP2 ADD SWAP1 PUSH2 0xAB SWAP2 SWAP1 PUSH2 0x745 JUMP JUMPDEST PUSH2 0x2A4 JUMP JUMPDEST PUSH1 0x40 MLOAD PUSH2 0xBD SWAP2 SWAP1 PUSH2 0x7BC JUMP JUMPDEST PUSH1 0x40 MLOAD DUP1 SWAP2 SUB SWAP1 RETURN JUMPDEST PUSH2 0xE0 PUSH1 0x4 DUP1 CALLDATASIZE SUB DUP2 ADD SWAP1 PUSH2 0xDB SWAP2 SWAP1 PUSH2 0x745 JUMP JUMPDEST PUSH2 0x348 JUMP JUMPDEST STOP JUMPDEST PUSH2 0xFC PUSH1 0x4 DUP1 CALLDATASIZE SUB DUP2 ADD SWAP1 PUSH2 0xF7 SWAP2 SWAP1 PUSH2 0x568 JUMP JUMPDEST PUSH2 0x3B9 JUMP JUMPDEST STOP JUMPDEST DUP2 DUP2 PUSH1 0x0 DUP1 DUP7 DUP2 MSTORE PUSH1 0x20 ADD SWAP1 DUP2 MSTORE PUSH1 0x20 ADD PUSH1 0x0 KECCAK256 SWAP2 SWAP1 PUSH2 0x11F SWAP3 SWAP2 SWAP1 PUSH2 0x3E0 JUMP JUMPDEST POP PUSH1 0x1 DUP4 SWAP1 DUP1 PUSH1 0x1 DUP2 SLOAD ADD DUP1 DUP3 SSTORE DUP1 SWAP2 POP POP PUSH1 0x1 SWAP1 SUB SWAP1 PUSH1 0x0 MSTORE PUSH1 0x20 PUSH1 0x0 KECCAK256 ADD PUSH1 0x0 SWAP1 SWAP2 SWAP1 SWAP2 SWAP1 SWAP2 POP SSTORE POP POP POP JUMP JUMPDEST PUSH1 0x60 PUSH1 0x0 PUSH1 0x1 DUP1 SLOAD SWAP1 POP SWAP1 POP DUP1 PUSH8 0xFFFFFFFFFFFFFFFF DUP2 GT ISZERO PUSH2 0x174 JUMPI PUSH2 0x173 PUSH2 0x7DE JUMP JUMPDEST JUMPDEST PUSH1 0x40 MLOAD SWAP1 DUP1 DUP3 MSTORE DUP1 PUSH1 0x20 MUL PUSH1 0x20 ADD DUP3 ADD PUSH1 0x40 MSTORE DUP1 ISZERO PUSH2 0x1A7 JUMPI DUP2 PUSH1 0x20 ADD JUMPDEST PUSH1 0x60 DUP2 MSTORE PUSH1 0x20 ADD SWAP1 PUSH1 0x1 SWAP1 SUB SWAP1 DUP2 PUSH2 0x192 JUMPI SWAP1 POP JUMPDEST POP SWAP2 POP PUSH1 0x0 JUMPDEST DUP2 DUP2 LT ISZERO PUSH2 0x29F JUMPI PUSH1 0x0 DUP1 PUSH1 0x1 DUP4 DUP2 SLOAD DUP2 LT PUSH2 0x1CC JUMPI PUSH2 0x1CB PUSH2 0x80D JUMP JUMPDEST JUMPDEST SWAP1 PUSH1 0x0 MSTORE PUSH1 0x20 PUSH1 0x0 KECCAK256 ADD SLOAD DUP2 MSTORE PUSH1 0x20 ADD SWAP1 DUP2 MSTORE PUSH1 0x20 ADD PUSH1 0x0 KECCAK256 DUP1 SLOAD PUSH2 0x1F0 SWAP1 PUSH2 0x86B JUMP JUMPDEST DUP1 PUSH1 0x1F ADD PUSH1 0x20 DUP1 SWAP2 DIV MUL PUSH1 0x20 ADD PUSH1 0x40 MLOAD SWAP1 DUP2 ADD PUSH1 0x40 MSTORE DUP1 SWAP3 SWAP2 SWAP1 DUP2 DUP2 MSTORE PUSH1 0x20 ADD DUP3 DUP1 SLOAD PUSH2 0x21C SWAP1 PUSH2 0x86B JUMP JUMPDEST DUP1 ISZERO PUSH2 0x269 JUMPI DUP1 PUSH1 0x1F LT PUSH2 0x23E JUMPI PUSH2 0x100 DUP1 DUP4 SLOAD DIV MUL DUP4 MSTORE SWAP2 PUSH1 0x20 ADD SWAP2 PUSH2 0x269 JUMP JUMPDEST DUP3 ADD SWAP2 SWAP1 PUSH1 0x0 MSTORE PUSH1 0x20 PUSH1 0x0 KECCAK256 SWAP1 JUMPDEST DUP2 SLOAD DUP2 MSTORE SWAP1 PUSH1 0x1 ADD SWAP1 PUSH1 0x20 ADD DUP1 DUP4 GT PUSH2 0x24C JUMPI DUP3 SWAP1 SUB PUSH1 0x1F AND DUP3 ADD SWAP2 JUMPDEST POP POP POP POP POP DUP4 DUP3 DUP2 MLOAD DUP2 LT PUSH2 0x281 JUMPI PUSH2 0x280 PUSH2 0x80D JUMP JUMPDEST JUMPDEST PUSH1 0x20 MUL PUSH1 0x20 ADD ADD DUP2 SWAP1 MSTORE POP DUP1 DUP1 PUSH2 0x297 SWAP1 PUSH2 0x8CB JUMP JUMPDEST SWAP2 POP POP PUSH2 0x1AD JUMP JUMPDEST POP POP SWAP1 JUMP JUMPDEST PUSH1 0x60 PUSH1 0x0 DUP1 DUP4 DUP2 MSTORE PUSH1 0x20 ADD SWAP1 DUP2 MSTORE PUSH1 0x20 ADD PUSH1 0x0 KECCAK256 DUP1 SLOAD PUSH2 0x2C3 SWAP1 PUSH2 0x86B JUMP JUMPDEST DUP1 PUSH1 0x1F ADD PUSH1 0x20 DUP1 SWAP2 DIV MUL PUSH1 0x20 ADD PUSH1 0x40 MLOAD SWAP1 DUP2 ADD PUSH1 0x40 MSTORE DUP1 SWAP3 SWAP2 SWAP1 DUP2 DUP2 MSTORE PUSH1 0x20 ADD DUP3 DUP1 SLOAD PUSH2 0x2EF SWAP1 PUSH2 0x86B JUMP JUMPDEST DUP1 ISZERO PUSH2 0x33C JUMPI DUP1 PUSH1 0x1F LT PUSH2 0x311 JUMPI PUSH2 0x100 DUP1 DUP4 SLOAD DIV MUL DUP4 MSTORE SWAP2 PUSH1 0x20 ADD SWAP2 PUSH2 0x33C JUMP JUMPDEST DUP3 ADD SWAP2 SWAP1 PUSH1 0x0 MSTORE PUSH1 0x20 PUSH1 0x0 KECCAK256 SWAP1 JUMPDEST DUP2 SLOAD DUP2 MSTORE SWAP1 PUSH1 0x1 ADD SWAP1 PUSH1 0x20 ADD DUP1 DUP4 GT PUSH2 0x31F JUMPI DUP3 SWAP1 SUB PUSH1 0x1F AND DUP3 ADD SWAP2 JUMPDEST POP POP POP POP POP SWAP1 POP SWAP2 SWAP1 POP JUMP JUMPDEST PUSH1 0x0 DUP1 DUP3 DUP2 MSTORE PUSH1 0x20 ADD SWAP1 DUP2 MSTORE PUSH1 0x20 ADD PUSH1 0x0 KECCAK256 PUSH1 0x0 PUSH2 0x366 SWAP2 SWAP1 PUSH2 0x466 JUMP JUMPDEST PUSH1 0x1 DUP1 DUP1 DUP1 SLOAD SWAP1 POP PUSH2 0x378 SWAP2 SWAP1 PUSH2 0x913 JUMP JUMPDEST DUP2 SLOAD DUP2 LT PUSH2 0x389 JUMPI PUSH2 0x388 PUSH2 0x80D JUMP JUMPDEST JUMPDEST SWAP1 PUSH1 0x0 MSTORE PUSH1 0x20 PUSH1 0x0 KECCAK256 ADD SLOAD PUSH1 0x1 DUP3 DUP2 SLOAD DUP2 LT PUSH2 0x3A8 JUMPI PUSH2 0x3A7 PUSH2 0x80D JUMP JUMPDEST JUMPDEST SWAP1 PUSH1 0x0 MSTORE PUSH1 0x20 PUSH1 0x0 KECCAK256 ADD DUP2 SWAP1 SSTORE POP POP JUMP JUMPDEST DUP2 DUP2 PUSH1 0x0 DUP1 DUP7 DUP2 MSTORE PUSH1 0x20 ADD SWAP1 DUP2 MSTORE PUSH1 0x20 ADD PUSH1 0x0 KECCAK256 SWAP2 SWAP1 PUSH2 0x3DA SWAP3 SWAP2 SWAP1 PUSH2 0x3E0 JUMP JUMPDEST POP POP POP POP JUMP JUMPDEST DUP3 DUP1 SLOAD PUSH2 0x3EC SWAP1 PUSH2 0x86B JUMP JUMPDEST SWAP1 PUSH1 0x0 MSTORE PUSH1 0x20 PUSH1 0x0 KECCAK256 SWAP1 PUSH1 0x1F ADD PUSH1 0x20 SWAP1 DIV DUP2 ADD SWAP3 DUP3 PUSH2 0x40E JUMPI PUSH1 0x0 DUP6 SSTORE PUSH2 0x455 JUMP JUMPDEST DUP3 PUSH1 0x1F LT PUSH2 0x427 JUMPI DUP1 CALLDATALOAD PUSH1 0xFF NOT AND DUP4 DUP1 ADD OR DUP6 SSTORE PUSH2 0x455 JUMP JUMPDEST DUP3 DUP1 ADD PUSH1 0x1 ADD DUP6 SSTORE DUP3 ISZERO PUSH2 0x455 JUMPI SWAP2 DUP3 ADD JUMPDEST DUP3 DUP2 GT ISZERO PUSH2 0x454 JUMPI DUP3 CALLDATALOAD DUP3 SSTORE SWAP2 PUSH1 0x20 ADD SWAP2 SWAP1 PUSH1 0x1 ADD SWAP1 PUSH2 0x439 JUMP JUMPDEST JUMPDEST POP SWAP1 POP PUSH2 0x462 SWAP2 SWAP1 PUSH2 0x4A6 JUMP JUMPDEST POP SWAP1 JUMP JUMPDEST POP DUP1 SLOAD PUSH2 0x472 SWAP1 PUSH2 0x86B JUMP JUMPDEST PUSH1 0x0 DUP3 SSTORE DUP1 PUSH1 0x1F LT PUSH2 0x484 JUMPI POP PUSH2 0x4A3 JUMP JUMPDEST PUSH1 0x1F ADD PUSH1 0x20 SWAP1 DIV SWAP1 PUSH1 0x0 MSTORE PUSH1 0x20 PUSH1 0x0 KECCAK256 SWAP1 DUP2 ADD SWAP1 PUSH2 0x4A2 SWAP2 SWAP1 PUSH2 0x4A6 JUMP JUMPDEST JUMPDEST POP JUMP JUMPDEST JUMPDEST DUP1 DUP3 GT ISZERO PUSH2 0x4BF JUMPI PUSH1 0x0 DUP2 PUSH1 0x0 SWAP1 SSTORE POP PUSH1 0x1 ADD PUSH2 0x4A7 JUMP JUMPDEST POP SWAP1 JUMP JUMPDEST PUSH1 0x0 DUP1 REVERT JUMPDEST PUSH1 0x0 DUP1 REVERT JUMPDEST PUSH1 0x0 DUP2 SWAP1 POP SWAP2 SWAP1 POP JUMP JUMPDEST PUSH2 0x4E0 DUP2 PUSH2 0x4CD JUMP JUMPDEST DUP2 EQ PUSH2 0x4EB JUMPI PUSH1 0x0 DUP1 REVERT JUMPDEST POP JUMP JUMPDEST PUSH1 0x0 DUP2 CALLDATALOAD SWAP1 POP PUSH2 0x4FD DUP2 PUSH2 0x4D7 JUMP JUMPDEST SWAP3 SWAP2 POP POP JUMP JUMPDEST PUSH1 0x0 DUP1 REVERT JUMPDEST PUSH1 0x0 DUP1 REVERT JUMPDEST PUSH1 0x0 DUP1 REVERT JUMPDEST PUSH1 0x0 DUP1 DUP4 PUSH1 0x1F DUP5 ADD SLT PUSH2 0x528 JUMPI PUSH2 0x527 PUSH2 0x503 JUMP JUMPDEST JUMPDEST DUP3 CALLDATALOAD SWAP1 POP PUSH8 0xFFFFFFFFFFFFFFFF DUP2 GT ISZERO PUSH2 0x545 JUMPI PUSH2 0x544 PUSH2 0x508 JUMP JUMPDEST JUMPDEST PUSH1 0x20 DUP4 ADD SWAP2 POP DUP4 PUSH1 0x1 DUP3 MUL DUP4 ADD GT ISZERO PUSH2 0x561 JUMPI PUSH2 0x560 PUSH2 0x50D JUMP JUMPDEST JUMPDEST SWAP3 POP SWAP3 SWAP1 POP JUMP JUMPDEST PUSH1 0x0 DUP1 PUSH1 0x0 PUSH1 0x40 DUP5 DUP7 SUB SLT ISZERO PUSH2 0x581 JUMPI PUSH2 0x580 PUSH2 0x4C3 JUMP JUMPDEST JUMPDEST PUSH1 0x0 PUSH2 0x58F DUP7 DUP3 DUP8 ADD PUSH2 0x4EE JUMP JUMPDEST SWAP4 POP POP PUSH1 0x20 DUP5 ADD CALLDATALOAD PUSH8 0xFFFFFFFFFFFFFFFF DUP2 GT ISZERO PUSH2 0x5B0 JUMPI PUSH2 0x5AF PUSH2 0x4C8 JUMP JUMPDEST JUMPDEST PUSH2 0x5BC DUP7 DUP3 DUP8 ADD PUSH2 0x512 JUMP JUMPDEST SWAP3 POP SWAP3 POP POP SWAP3 POP SWAP3 POP SWAP3 JUMP JUMPDEST PUSH1 0x0 DUP2 MLOAD SWAP1 POP SWAP2 SWAP1 POP JUMP JUMPDEST PUSH1 0x0 DUP3 DUP3 MSTORE PUSH1 0x20 DUP3 ADD SWAP1 POP SWAP3 SWAP2 POP POP JUMP JUMPDEST PUSH1 0x0 DUP2 SWAP1 POP PUSH1 0x20 DUP3 ADD SWAP1 POP SWAP2 SWAP1 POP JUMP JUMPDEST PUSH1 0x0 DUP2 MLOAD SWAP1 POP SWAP2 SWAP1 POP JUMP JUMPDEST PUSH1 0x0 DUP3 DUP3 MSTORE PUSH1 0x20 DUP3 ADD SWAP1 POP SWAP3 SWAP2 POP POP JUMP JUMPDEST PUSH1 0x0 JUMPDEST DUP4 DUP2 LT ISZERO PUSH2 0x62E JUMPI DUP1 DUP3 ADD MLOAD DUP2 DUP5 ADD MSTORE PUSH1 0x20 DUP2 ADD SWAP1 POP PUSH2 0x613 JUMP JUMPDEST DUP4 DUP2 GT ISZERO PUSH2 0x63D JUMPI PUSH1 0x0 DUP5 DUP5 ADD MSTORE JUMPDEST POP POP POP POP JUMP JUMPDEST PUSH1 0x0 PUSH1 0x1F NOT PUSH1 0x1F DUP4 ADD AND SWAP1 POP SWAP2 SWAP1 POP JUMP JUMPDEST PUSH1 0x0 PUSH2 0x65F DUP3 PUSH2 0x5F4 JUMP JUMPDEST PUSH2 0x669 DUP2 DUP6 PUSH2 0x5FF JUMP JUMPDEST SWAP4 POP PUSH2 0x679 DUP2 DUP6 PUSH1 0x20 DUP7 ADD PUSH2 0x610 JUMP JUMPDEST PUSH2 0x682 DUP2 PUSH2 0x643 JUMP JUMPDEST DUP5 ADD SWAP2 POP POP SWAP3 SWAP2 POP POP JUMP JUMPDEST PUSH1 0x0 PUSH2 0x699 DUP4 DUP4 PUSH2 0x654 JUMP JUMPDEST SWAP1 POP SWAP3 SWAP2 POP POP JUMP JUMPDEST PUSH1 0x0 PUSH1 0x20 DUP3 ADD SWAP1 POP SWAP2 SWAP1 POP JUMP JUMPDEST PUSH1 0x0 PUSH2 0x6B9 DUP3 PUSH2 0x5C8 JUMP JUMPDEST PUSH2 0x6C3 DUP2 DUP6 PUSH2 0x5D3 JUMP JUMPDEST SWAP4 POP DUP4 PUSH1 0x20 DUP3 MUL DUP6 ADD PUSH2 0x6D5 DUP6 PUSH2 0x5E4 JUMP JUMPDEST DUP1 PUSH1 0x0 JUMPDEST DUP6 DUP2 LT ISZERO PUSH2 0x711 JUMPI DUP5 DUP5 SUB DUP10 MSTORE DUP2 MLOAD PUSH2 0x6F2 DUP6 DUP3 PUSH2 0x68D JUMP JUMPDEST SWAP5 POP PUSH2 0x6FD DUP4 PUSH2 0x6A1 JUMP JUMPDEST SWAP3 POP PUSH1 0x20 DUP11 ADD SWAP10 POP POP PUSH1 0x1 DUP2 ADD SWAP1 POP PUSH2 0x6D9 JUMP JUMPDEST POP DUP3 SWAP8 POP DUP8 SWAP6 POP POP POP POP POP POP SWAP3 SWAP2 POP POP JUMP JUMPDEST PUSH1 0x0 PUSH1 0x20 DUP3 ADD SWAP1 POP DUP2 DUP2 SUB PUSH1 0x0 DUP4 ADD MSTORE PUSH2 0x73D DUP2 DUP5 PUSH2 0x6AE JUMP JUMPDEST SWAP1 POP SWAP3 SWAP2 POP POP JUMP JUMPDEST PUSH1 0x0 PUSH1 0x20 DUP3 DUP5 SUB SLT ISZERO PUSH2 0x75B JUMPI PUSH2 0x75A PUSH2 0x4C3 JUMP JUMPDEST JUMPDEST PUSH1 0x0 PUSH2 0x769 DUP5 DUP3 DUP6 ADD PUSH2 0x4EE JUMP JUMPDEST SWAP2 POP POP SWAP3 SWAP2 POP POP JUMP JUMPDEST PUSH1 0x0 DUP3 DUP3 MSTORE PUSH1 0x20 DUP3 ADD SWAP1 POP SWAP3 SWAP2 POP POP JUMP JUMPDEST PUSH1 0x0 PUSH2 0x78E DUP3 PUSH2 0x5F4 JUMP JUMPDEST PUSH2 0x798 DUP2 DUP6 PUSH2 0x772 JUMP JUMPDEST SWAP4 POP PUSH2 0x7A8 DUP2 DUP6 PUSH1 0x20 DUP7 ADD PUSH2 0x610 JUMP JUMPDEST PUSH2 0x7B1 DUP2 PUSH2 0x643 JUMP JUMPDEST DUP5 ADD SWAP2 POP POP SWAP3 SWAP2 POP POP JUMP JUMPDEST PUSH1 0x0 PUSH1 0x20 DUP3 ADD SWAP1 POP DUP2 DUP2 SUB PUSH1 0x0 DUP4 ADD MSTORE PUSH2 0x7D6 DUP2 DUP5 PUSH2 0x783 JUMP JUMPDEST SWAP1 POP SWAP3 SWAP2 POP POP JUMP JUMPDEST PUSH32 0x4E487B7100000000000000000000000000000000000000000000000000000000 PUSH1 0x0 MSTORE PUSH1 0x41 PUSH1 0x4 MSTORE PUSH1 0x24 PUSH1 0x0 REVERT JUMPDEST PUSH32 0x4E487B7100000000000000000000000000000000000000000000000000000000 PUSH1 0x0 MSTORE PUSH1 0x32 PUSH1 0x4 MSTORE PUSH1 0x24 PUSH1 0x0 REVERT JUMPDEST PUSH32 0x4E487B7100000000000000000000000000000000000000000000000000000000 PUSH1 0x0 MSTORE PUSH1 0x22 PUSH1 0x4 MSTORE PUSH1 0x24 PUSH1 0x0 REVERT JUMPDEST PUSH1 0x0 PUSH1 0x2 DUP3 DIV SWAP1 POP PUSH1 0x1 DUP3 AND DUP1 PUSH2 0x883 JUMPI PUSH1 0x7F DUP3 AND SWAP2 POP JUMPDEST PUSH1 0x20 DUP3 LT DUP2 SUB PUSH2 0x896 JUMPI PUSH2 0x895 PUSH2 0x83C JUMP JUMPDEST JUMPDEST POP SWAP2 SWAP1 POP JUMP JUMPDEST PUSH32 0x4E487B7100000000000000000000000000000000000000000000000000000000 PUSH1 0x0 MSTORE PUSH1 0x11 PUSH1 0x4 MSTORE PUSH1 0x24 PUSH1 0x0 REVERT JUMPDEST PUSH1 0x0 PUSH2 0x8D6 DUP3 PUSH2 0x4CD JUMP JUMPDEST SWAP2 POP PUSH32 0xFFFFFFFFFFFFFFFFFFFFFFFFFFFFFFFFFFFFFFFFFFFFFFFFFFFFFFFFFFFFFFFF DUP3 SUB PUSH2 0x908 JUMPI PUSH2 0x907 PUSH2 0x89C JUMP JUMPDEST JUMPDEST PUSH1 0x1 DUP3 ADD SWAP1 POP SWAP2 SWAP1 POP JUMP JUMPDEST PUSH1 0x0 PUSH2 0x91E DUP3 PUSH2 0x4CD JUMP JUMPDEST SWAP2 POP PUSH2 0x929 DUP4 PUSH2 0x4CD JUMP JUMPDEST SWAP3 POP DUP3 DUP3 LT ISZERO PUSH2 0x93C JUMPI PUSH2 0x93B PUSH2 0x89C JUMP JUMPDEST JUMPDEST DUP3 DUP3 SUB SWAP1 POP SWAP3 SWAP2 POP POP JUMP INVALID LOG2 PUSH5 0x6970667358 0x22 SLT KECCAK256 DUP2 TIMESTAMP 0x1F LOG2 SWAP7 0xFB 0xFB 0xD5 0xA7 PUSH17 0x9DCA4D889594C28C564E261386CFED3512 0xEB PC 0xC1 ADDMOD 0x4C PUSH5 0x736F6C6343 STOP ADDMOD 0xE STOP CALLER "
				},
				"gasEstimates": {
					"creation": {
						"codeDepositCost": "485800",
						"executionCost": "518",
						"totalCost": "486318"
					},
					"external": {
						"create(uint256,string)": "infinite",
						"destroy(uint256)": "infinite",
						"readAll()": "infinite",
						"readOne(uint256)": "infinite",
						"update(uint256,string)": "infinite"
					}
				},
				"methodIdentifiers": {
					"create(uint256,string)": "0118fa49",
					"destroy(uint256)": "9d118770",
					"readAll()": "41f654f7",
					"readOne(uint256)": "59306ca5",
					"update(uint256,string)": "f745630f"
				}
			},
			"storageLayout": {
				"storage": [
					{
						"astId": 5,
						"contract": "bootcamp/week2/CRUDmappings.sol:mappings",
						"label": "myMapping",
						"offset": 0,
						"slot": "0",
						"type": "t_mapping(t_uint256,t_string_storage)"
					},
					{
						"astId": 8,
						"contract": "bootcamp/week2/CRUDmappings.sol:mappings",
						"label": "keys",
						"offset": 0,
						"slot": "1",
						"type": "t_array(t_uint256)dyn_storage"
					}
				],
				"types": {
					"t_array(t_uint256)dyn_storage": {
						"base": "t_uint256",
						"encoding": "dynamic_array",
						"label": "uint256[]",
						"numberOfBytes": "32"
					},
					"t_mapping(t_uint256,t_string_storage)": {
						"encoding": "mapping",
						"key": "t_uint256",
						"label": "mapping(uint256 => string)",
						"numberOfBytes": "32",
						"value": "t_string_storage"
					},
					"t_string_storage": {
						"encoding": "bytes",
						"label": "string",
						"numberOfBytes": "32"
					},
					"t_uint256": {
						"encoding": "inplace",
						"label": "uint256",
						"numberOfBytes": "32"
					}
				}
			},
			"userdoc": {
				"kind": "user",
				"methods": {},
				"version": 1
			}
		}
	}
}