{
	"bootcamp/week2/MultiSigWallet.sol": {
		"MultiSigWallet": {
			"abi": [
				{
					"inputs": [
						{
							"internalType": "uint256",
							"name": "_required",
							"type": "uint256"
						},
						{
							"internalType": "address[]",
							"name": "_owners",
							"type": "address[]"
						}
					],
					"stateMutability": "nonpayable",
					"type": "constructor"
				},
				{
					"inputs": [],
					"name": "AlreadyOwner",
					"type": "error"
				},
				{
					"inputs": [],
					"name": "NotOwner",
					"type": "error"
				},
				{
					"inputs": [],
					"name": "OwnerNotAlreadyApproved",
					"type": "error"
				},
				{
					"inputs": [],
					"name": "invalidRequired",
					"type": "error"
				},
				{
					"inputs": [],
					"name": "lessThanRequiredConfirmations",
					"type": "error"
				},
				{
					"inputs": [],
					"name": "txAlreadyApproved",
					"type": "error"
				},
				{
					"inputs": [],
					"name": "txAlreadyExecuted",
					"type": "error"
				},
				{
					"inputs": [],
					"name": "txDoesNotExist",
					"type": "error"
				},
				{
					"inputs": [],
					"name": "txFailed",
					"type": "error"
				},
				{
					"anonymous": false,
					"inputs": [
						{
							"indexed": false,
							"internalType": "address",
							"name": "approver",
							"type": "address"
						},
						{
							"indexed": false,
							"internalType": "uint256",
							"name": "txId",
							"type": "uint256"
						}
					],
					"name": "ApprovedTx",
					"type": "event"
				},
				{
					"anonymous": false,
					"inputs": [
						{
							"indexed": false,
							"internalType": "address",
							"name": "sender",
							"type": "address"
						},
						{
							"indexed": false,
							"internalType": "uint256",
							"name": "value",
							"type": "uint256"
						},
						{
							"indexed": false,
							"internalType": "uint256",
							"name": "balance",
							"type": "uint256"
						}
					],
					"name": "Deposit",
					"type": "event"
				},
				{
					"anonymous": false,
					"inputs": [
						{
							"indexed": false,
							"internalType": "address",
							"name": "to",
							"type": "address"
						},
						{
							"indexed": false,
							"internalType": "uint256",
							"name": "value",
							"type": "uint256"
						},
						{
							"indexed": false,
							"internalType": "uint256",
							"name": "txId",
							"type": "uint256"
						},
						{
							"indexed": false,
							"internalType": "address",
							"name": "executor",
							"type": "address"
						}
					],
					"name": "ExecuteTx",
					"type": "event"
				},
				{
					"anonymous": false,
					"inputs": [
						{
							"indexed": false,
							"internalType": "address",
							"name": "revoker",
							"type": "address"
						},
						{
							"indexed": false,
							"internalType": "uint256",
							"name": "txId",
							"type": "uint256"
						}
					],
					"name": "RevokedApproval",
					"type": "event"
				},
				{
					"anonymous": false,
					"inputs": [
						{
							"indexed": false,
							"internalType": "address",
							"name": "to",
							"type": "address"
						},
						{
							"indexed": false,
							"internalType": "uint256",
							"name": "value",
							"type": "uint256"
						},
						{
							"indexed": false,
							"internalType": "bytes",
							"name": "data",
							"type": "bytes"
						}
					],
					"name": "SubmittedTx",
					"type": "event"
				},
				{
					"inputs": [
						{
							"internalType": "uint256",
							"name": "_txId",
							"type": "uint256"
						}
					],
					"name": "approveTx",
					"outputs": [],
					"stateMutability": "nonpayable",
					"type": "function"
				},
				{
					"inputs": [
						{
							"internalType": "uint256",
							"name": "",
							"type": "uint256"
						},
						{
							"internalType": "address",
							"name": "",
							"type": "address"
						}
					],
					"name": "approved",
					"outputs": [
						{
							"internalType": "bool",
							"name": "",
							"type": "bool"
						}
					],
					"stateMutability": "view",
					"type": "function"
				},
				{
					"inputs": [
						{
							"internalType": "uint256",
							"name": "_txId",
							"type": "uint256"
						}
					],
					"name": "executeTx",
					"outputs": [],
					"stateMutability": "nonpayable",
					"type": "function"
				},
				{
					"inputs": [
						{
							"internalType": "address",
							"name": "",
							"type": "address"
						}
					],
					"name": "isOwner",
					"outputs": [
						{
							"internalType": "bool",
							"name": "",
							"type": "bool"
						}
					],
					"stateMutability": "view",
					"type": "function"
				},
				{
					"inputs": [],
					"name": "required",
					"outputs": [
						{
							"internalType": "uint256",
							"name": "",
							"type": "uint256"
						}
					],
					"stateMutability": "view",
					"type": "function"
				},
				{
					"inputs": [
						{
							"internalType": "uint256",
							"name": "_txId",
							"type": "uint256"
						}
					],
					"name": "revokeTx",
					"outputs": [],
					"stateMutability": "nonpayable",
					"type": "function"
				},
				{
					"inputs": [
						{
							"internalType": "address",
							"name": "_to",
							"type": "address"
						},
						{
							"internalType": "uint256",
							"name": "_value",
							"type": "uint256"
						},
						{
							"internalType": "bytes",
							"name": "_data",
							"type": "bytes"
						}
					],
					"name": "submitTx",
					"outputs": [],
					"stateMutability": "nonpayable",
					"type": "function"
				},
				{
					"inputs": [
						{
							"internalType": "uint256",
							"name": "",
							"type": "uint256"
						}
					],
					"name": "transactions",
					"outputs": [
						{
							"internalType": "uint256",
							"name": "id",
							"type": "uint256"
						},
						{
							"internalType": "address",
							"name": "to",
							"type": "address"
						},
						{
							"internalType": "uint256",
							"name": "value",
							"type": "uint256"
						},
						{
							"internalType": "bytes",
							"name": "data",
							"type": "bytes"
						},
						{
							"internalType": "uint256",
							"name": "confirmations",
							"type": "uint256"
						},
						{
							"internalType": "bool",
							"name": "executed",
							"type": "bool"
						}
					],
					"stateMutability": "view",
					"type": "function"
				},
				{
					"inputs": [],
					"name": "txId",
					"outputs": [
						{
							"internalType": "uint256",
							"name": "",
							"type": "uint256"
						}
					],
					"stateMutability": "view",
					"type": "function"
				},
				{
					"stateMutability": "payable",
					"type": "receive"
				}
			],
			"devdoc": {
				"kind": "dev",
				"methods": {},
				"version": 1
			},
			"evm": {
				"assembly": "    /* \"bootcamp/week2/MultiSigWallet.sol\":291:3631  contract MultiSigWallet {... */\n  mstore(0x40, 0x80)\n    /* \"bootcamp/week2/MultiSigWallet.sol\":1614:1988  constructor (uint256 _required, address[] memory _owners) {... */\n  callvalue\n  dup1\n  iszero\n  tag_1\n  jumpi\n  0x00\n  dup1\n  revert\ntag_1:\n  pop\n  mload(0x40)\n  sub(codesize, bytecodeSize)\n  dup1\n  bytecodeSize\n  dup4\n  codecopy\n  dup2\n  dup2\n  add\n  0x40\n  mstore\n  dup2\n  add\n  swap1\n  tag_2\n  swap2\n  swap1\n  tag_3\n  jump\t// in\ntag_2:\n    /* \"bootcamp/week2/MultiSigWallet.sol\":1698:1705  _owners */\n  dup1\n    /* \"bootcamp/week2/MultiSigWallet.sol\":1698:1712  _owners.length */\n  mload\n    /* \"bootcamp/week2/MultiSigWallet.sol\":1686:1695  _required */\n  dup3\n    /* \"bootcamp/week2/MultiSigWallet.sol\":1686:1712  _required > _owners.length */\n  gt\n    /* \"bootcamp/week2/MultiSigWallet.sol\":1682:1763  if (_required > _owners.length) {... */\n  iszero\n  tag_6\n  jumpi\n    /* \"bootcamp/week2/MultiSigWallet.sol\":1735:1752  invalidRequired() */\n  mload(0x40)\n  0x2730657000000000000000000000000000000000000000000000000000000000\n  dup2\n  mstore\n  0x04\n  add\n  mload(0x40)\n  dup1\n  swap2\n  sub\n  swap1\n  revert\n    /* \"bootcamp/week2/MultiSigWallet.sol\":1682:1763  if (_required > _owners.length) {... */\ntag_6:\n    /* \"bootcamp/week2/MultiSigWallet.sol\":1776:1785  uint256 i */\n  0x00\n    /* \"bootcamp/week2/MultiSigWallet.sol\":1772:1982  for(uint256 i = 0; i < _owners.length; i++) {... */\ntag_7:\n    /* \"bootcamp/week2/MultiSigWallet.sol\":1795:1802  _owners */\n  dup2\n    /* \"bootcamp/week2/MultiSigWallet.sol\":1795:1809  _owners.length */\n  mload\n    /* \"bootcamp/week2/MultiSigWallet.sol\":1791:1792  i */\n  dup2\n    /* \"bootcamp/week2/MultiSigWallet.sol\":1791:1809  i < _owners.length */\n  lt\n    /* \"bootcamp/week2/MultiSigWallet.sol\":1772:1982  for(uint256 i = 0; i < _owners.length; i++) {... */\n  iszero\n  tag_8\n  jumpi\n    /* \"bootcamp/week2/MultiSigWallet.sol\":1830:1843  address owner */\n  0x00\n    /* \"bootcamp/week2/MultiSigWallet.sol\":1846:1853  _owners */\n  dup3\n    /* \"bootcamp/week2/MultiSigWallet.sol\":1854:1855  i */\n  dup3\n    /* \"bootcamp/week2/MultiSigWallet.sol\":1846:1856  _owners[i] */\n  dup2\n  mload\n  dup2\n  lt\n  tag_10\n  jumpi\n  tag_11\n  tag_12\n  jump\t// in\ntag_11:\ntag_10:\n  0x20\n  mul\n  0x20\n  add\n  add\n  mload\n    /* \"bootcamp/week2/MultiSigWallet.sol\":1830:1856  address owner = _owners[i] */\n  swap1\n  pop\n    /* \"bootcamp/week2/MultiSigWallet.sol\":1874:1881  isOwner */\n  0x00\n    /* \"bootcamp/week2/MultiSigWallet.sol\":1874:1888  isOwner[owner] */\n  dup1\n    /* \"bootcamp/week2/MultiSigWallet.sol\":1882:1887  owner */\n  dup3\n    /* \"bootcamp/week2/MultiSigWallet.sol\":1874:1888  isOwner[owner] */\n  0xffffffffffffffffffffffffffffffffffffffff\n  and\n  0xffffffffffffffffffffffffffffffffffffffff\n  and\n  dup2\n  mstore\n  0x20\n  add\n  swap1\n  dup2\n  mstore\n  0x20\n  add\n  0x00\n  keccak256\n  0x00\n  swap1\n  sload\n  swap1\n  0x0100\n  exp\n  swap1\n  div\n  0xff\n  and\n    /* \"bootcamp/week2/MultiSigWallet.sol\":1871:1944  if(isOwner[owner]) {... */\n  iszero\n  tag_13\n  jumpi\n    /* \"bootcamp/week2/MultiSigWallet.sol\":1915:1929  AlreadyOwner() */\n  mload(0x40)\n  0xc0159e0e00000000000000000000000000000000000000000000000000000000\n  dup2\n  mstore\n  0x04\n  add\n  mload(0x40)\n  dup1\n  swap2\n  sub\n  swap1\n  revert\n    /* \"bootcamp/week2/MultiSigWallet.sol\":1871:1944  if(isOwner[owner]) {... */\ntag_13:\n    /* \"bootcamp/week2/MultiSigWallet.sol\":1957:1964  isOwner */\n  0x00\n    /* \"bootcamp/week2/MultiSigWallet.sol\":1957:1971  isOwner[owner] */\n  dup1\n    /* \"bootcamp/week2/MultiSigWallet.sol\":1965:1970  owner */\n  dup3\n    /* \"bootcamp/week2/MultiSigWallet.sol\":1957:1971  isOwner[owner] */\n  0xffffffffffffffffffffffffffffffffffffffff\n  and\n  0xffffffffffffffffffffffffffffffffffffffff\n  and\n  dup2\n  mstore\n  0x20\n  add\n  swap1\n  dup2\n  mstore\n  0x20\n  add\n  0x00\n  keccak256\n  0x00\n  swap1\n  sload\n  swap1\n  0x0100\n  exp\n  swap1\n  pop\n  pop\n    /* \"bootcamp/week2/MultiSigWallet.sol\":1816:1982  {... */\n  pop\n    /* \"bootcamp/week2/MultiSigWallet.sol\":1811:1814  i++ */\n  dup1\n  dup1\n  tag_14\n  swap1\n  tag_15\n  jump\t// in\ntag_14:\n  swap2\n  pop\n  pop\n    /* \"bootcamp/week2/MultiSigWallet.sol\":1772:1982  for(uint256 i = 0; i < _owners.length; i++) {... */\n  jump(tag_7)\ntag_8:\n  pop\n    /* \"bootcamp/week2/MultiSigWallet.sol\":1614:1988  constructor (uint256 _required, address[] memory _owners) {... */\n  pop\n  pop\n    /* \"bootcamp/week2/MultiSigWallet.sol\":291:3631  contract MultiSigWallet {... */\n  jump(tag_16)\n    /* \"#utility.yul\":24:768   */\ntag_18:\n    /* \"#utility.yul\":131:136   */\n  0x00\n    /* \"#utility.yul\":156:237   */\n  tag_20\n    /* \"#utility.yul\":172:236   */\n  tag_21\n    /* \"#utility.yul\":229:235   */\n  dup5\n    /* \"#utility.yul\":172:236   */\n  tag_22\n  jump\t// in\ntag_21:\n    /* \"#utility.yul\":156:237   */\n  tag_23\n  jump\t// in\ntag_20:\n    /* \"#utility.yul\":147:237   */\n  swap1\n  pop\n    /* \"#utility.yul\":257:262   */\n  dup1\n    /* \"#utility.yul\":286:292   */\n  dup4\n    /* \"#utility.yul\":279:284   */\n  dup3\n    /* \"#utility.yul\":272:293   */\n  mstore\n    /* \"#utility.yul\":320:324   */\n  0x20\n    /* \"#utility.yul\":313:318   */\n  dup3\n    /* \"#utility.yul\":309:325   */\n  add\n    /* \"#utility.yul\":302:325   */\n  swap1\n  pop\n    /* \"#utility.yul\":346:352   */\n  dup3\n    /* \"#utility.yul\":396:399   */\n  dup6\n    /* \"#utility.yul\":388:392   */\n  0x20\n    /* \"#utility.yul\":380:386   */\n  dup7\n    /* \"#utility.yul\":376:393   */\n  mul\n    /* \"#utility.yul\":371:374   */\n  dup3\n    /* \"#utility.yul\":367:394   */\n  add\n    /* \"#utility.yul\":364:400   */\n  gt\n    /* \"#utility.yul\":361:504   */\n  iszero\n  tag_24\n  jumpi\n    /* \"#utility.yul\":415:494   */\n  tag_25\n  tag_26\n  jump\t// in\ntag_25:\n    /* \"#utility.yul\":361:504   */\ntag_24:\n    /* \"#utility.yul\":528:529   */\n  0x00\n    /* \"#utility.yul\":513:762   */\ntag_27:\n    /* \"#utility.yul\":538:544   */\n  dup6\n    /* \"#utility.yul\":535:536   */\n  dup2\n    /* \"#utility.yul\":532:545   */\n  lt\n    /* \"#utility.yul\":513:762   */\n  iszero\n  tag_29\n  jumpi\n    /* \"#utility.yul\":606:609   */\n  dup2\n    /* \"#utility.yul\":635:683   */\n  tag_30\n    /* \"#utility.yul\":679:682   */\n  dup9\n    /* \"#utility.yul\":667:677   */\n  dup3\n    /* \"#utility.yul\":635:683   */\n  tag_31\n  jump\t// in\ntag_30:\n    /* \"#utility.yul\":630:633   */\n  dup5\n    /* \"#utility.yul\":623:684   */\n  mstore\n    /* \"#utility.yul\":713:717   */\n  0x20\n    /* \"#utility.yul\":708:711   */\n  dup5\n    /* \"#utility.yul\":704:718   */\n  add\n    /* \"#utility.yul\":697:718   */\n  swap4\n  pop\n    /* \"#utility.yul\":747:751   */\n  0x20\n    /* \"#utility.yul\":742:745   */\n  dup4\n    /* \"#utility.yul\":738:752   */\n  add\n    /* \"#utility.yul\":731:752   */\n  swap3\n  pop\n    /* \"#utility.yul\":573:762   */\n  pop\n    /* \"#utility.yul\":560:561   */\n  0x01\n    /* \"#utility.yul\":557:558   */\n  dup2\n    /* \"#utility.yul\":553:562   */\n  add\n    /* \"#utility.yul\":548:562   */\n  swap1\n  pop\n    /* \"#utility.yul\":513:762   */\n  jump(tag_27)\ntag_29:\n    /* \"#utility.yul\":517:531   */\n  pop\n    /* \"#utility.yul\":137:768   */\n  pop\n  pop\n    /* \"#utility.yul\":24:768   */\n  swap4\n  swap3\n  pop\n  pop\n  pop\n  jump\t// out\n    /* \"#utility.yul\":774:917   */\ntag_31:\n    /* \"#utility.yul\":831:836   */\n  0x00\n    /* \"#utility.yul\":862:868   */\n  dup2\n    /* \"#utility.yul\":856:869   */\n  mload\n    /* \"#utility.yul\":847:869   */\n  swap1\n  pop\n    /* \"#utility.yul\":878:911   */\n  tag_33\n    /* \"#utility.yul\":905:910   */\n  dup2\n    /* \"#utility.yul\":878:911   */\n  tag_34\n  jump\t// in\ntag_33:\n    /* \"#utility.yul\":774:917   */\n  swap3\n  swap2\n  pop\n  pop\n  jump\t// out\n    /* \"#utility.yul\":940:1325   */\ntag_35:\n    /* \"#utility.yul\":1022:1027   */\n  0x00\n    /* \"#utility.yul\":1071:1074   */\n  dup3\n    /* \"#utility.yul\":1064:1068   */\n  0x1f\n    /* \"#utility.yul\":1056:1062   */\n  dup4\n    /* \"#utility.yul\":1052:1069   */\n  add\n    /* \"#utility.yul\":1048:1075   */\n  slt\n    /* \"#utility.yul\":1038:1160   */\n  tag_37\n  jumpi\n    /* \"#utility.yul\":1079:1158   */\n  tag_38\n  tag_39\n  jump\t// in\ntag_38:\n    /* \"#utility.yul\":1038:1160   */\ntag_37:\n    /* \"#utility.yul\":1189:1195   */\n  dup2\n    /* \"#utility.yul\":1183:1196   */\n  mload\n    /* \"#utility.yul\":1214:1319   */\n  tag_40\n    /* \"#utility.yul\":1315:1318   */\n  dup5\n    /* \"#utility.yul\":1307:1313   */\n  dup3\n    /* \"#utility.yul\":1300:1304   */\n  0x20\n    /* \"#utility.yul\":1292:1298   */\n  dup7\n    /* \"#utility.yul\":1288:1305   */\n  add\n    /* \"#utility.yul\":1214:1319   */\n  tag_18\n  jump\t// in\ntag_40:\n    /* \"#utility.yul\":1205:1319   */\n  swap2\n  pop\n    /* \"#utility.yul\":1028:1325   */\n  pop\n    /* \"#utility.yul\":940:1325   */\n  swap3\n  swap2\n  pop\n  pop\n  jump\t// out\n    /* \"#utility.yul\":1331:1474   */\ntag_41:\n    /* \"#utility.yul\":1388:1393   */\n  0x00\n    /* \"#utility.yul\":1419:1425   */\n  dup2\n    /* \"#utility.yul\":1413:1426   */\n  mload\n    /* \"#utility.yul\":1404:1426   */\n  swap1\n  pop\n    /* \"#utility.yul\":1435:1468   */\n  tag_43\n    /* \"#utility.yul\":1462:1467   */\n  dup2\n    /* \"#utility.yul\":1435:1468   */\n  tag_44\n  jump\t// in\ntag_43:\n    /* \"#utility.yul\":1331:1474   */\n  swap3\n  swap2\n  pop\n  pop\n  jump\t// out\n    /* \"#utility.yul\":1480:2190   */\ntag_3:\n    /* \"#utility.yul\":1584:1590   */\n  0x00\n    /* \"#utility.yul\":1592:1598   */\n  dup1\n    /* \"#utility.yul\":1641:1643   */\n  0x40\n    /* \"#utility.yul\":1629:1638   */\n  dup4\n    /* \"#utility.yul\":1620:1627   */\n  dup6\n    /* \"#utility.yul\":1616:1639   */\n  sub\n    /* \"#utility.yul\":1612:1644   */\n  slt\n    /* \"#utility.yul\":1609:1728   */\n  iszero\n  tag_46\n  jumpi\n    /* \"#utility.yul\":1647:1726   */\n  tag_47\n  tag_48\n  jump\t// in\ntag_47:\n    /* \"#utility.yul\":1609:1728   */\ntag_46:\n    /* \"#utility.yul\":1767:1768   */\n  0x00\n    /* \"#utility.yul\":1792:1856   */\n  tag_49\n    /* \"#utility.yul\":1848:1855   */\n  dup6\n    /* \"#utility.yul\":1839:1845   */\n  dup3\n    /* \"#utility.yul\":1828:1837   */\n  dup7\n    /* \"#utility.yul\":1824:1846   */\n  add\n    /* \"#utility.yul\":1792:1856   */\n  tag_41\n  jump\t// in\ntag_49:\n    /* \"#utility.yul\":1782:1856   */\n  swap3\n  pop\n    /* \"#utility.yul\":1738:1866   */\n  pop\n    /* \"#utility.yul\":1926:1928   */\n  0x20\n    /* \"#utility.yul\":1915:1924   */\n  dup4\n    /* \"#utility.yul\":1911:1929   */\n  add\n    /* \"#utility.yul\":1905:1930   */\n  mload\n    /* \"#utility.yul\":1957:1975   */\n  0xffffffffffffffff\n    /* \"#utility.yul\":1949:1955   */\n  dup2\n    /* \"#utility.yul\":1946:1976   */\n  gt\n    /* \"#utility.yul\":1943:2060   */\n  iszero\n  tag_50\n  jumpi\n    /* \"#utility.yul\":1979:2058   */\n  tag_51\n  tag_52\n  jump\t// in\ntag_51:\n    /* \"#utility.yul\":1943:2060   */\ntag_50:\n    /* \"#utility.yul\":2084:2173   */\n  tag_53\n    /* \"#utility.yul\":2165:2172   */\n  dup6\n    /* \"#utility.yul\":2156:2162   */\n  dup3\n    /* \"#utility.yul\":2145:2154   */\n  dup7\n    /* \"#utility.yul\":2141:2163   */\n  add\n    /* \"#utility.yul\":2084:2173   */\n  tag_35\n  jump\t// in\ntag_53:\n    /* \"#utility.yul\":2074:2173   */\n  swap2\n  pop\n    /* \"#utility.yul\":1876:2183   */\n  pop\n    /* \"#utility.yul\":1480:2190   */\n  swap3\n  pop\n  swap3\n  swap1\n  pop\n  jump\t// out\n    /* \"#utility.yul\":2196:2325   */\ntag_23:\n    /* \"#utility.yul\":2230:2236   */\n  0x00\n    /* \"#utility.yul\":2257:2277   */\n  tag_55\n  tag_56\n  jump\t// in\ntag_55:\n    /* \"#utility.yul\":2247:2277   */\n  swap1\n  pop\n    /* \"#utility.yul\":2286:2319   */\n  tag_57\n    /* \"#utility.yul\":2314:2318   */\n  dup3\n    /* \"#utility.yul\":2306:2312   */\n  dup3\n    /* \"#utility.yul\":2286:2319   */\n  tag_58\n  jump\t// in\ntag_57:\n    /* \"#utility.yul\":2196:2325   */\n  swap2\n  swap1\n  pop\n  jump\t// out\n    /* \"#utility.yul\":2331:2406   */\ntag_56:\n    /* \"#utility.yul\":2364:2370   */\n  0x00\n    /* \"#utility.yul\":2397:2399   */\n  0x40\n    /* \"#utility.yul\":2391:2400   */\n  mload\n    /* \"#utility.yul\":2381:2400   */\n  swap1\n  pop\n    /* \"#utility.yul\":2331:2406   */\n  swap1\n  jump\t// out\n    /* \"#utility.yul\":2412:2723   */\ntag_22:\n    /* \"#utility.yul\":2489:2493   */\n  0x00\n    /* \"#utility.yul\":2579:2597   */\n  0xffffffffffffffff\n    /* \"#utility.yul\":2571:2577   */\n  dup3\n    /* \"#utility.yul\":2568:2598   */\n  gt\n    /* \"#utility.yul\":2565:2621   */\n  iszero\n  tag_61\n  jumpi\n    /* \"#utility.yul\":2601:2619   */\n  tag_62\n  tag_63\n  jump\t// in\ntag_62:\n    /* \"#utility.yul\":2565:2621   */\ntag_61:\n    /* \"#utility.yul\":2651:2655   */\n  0x20\n    /* \"#utility.yul\":2643:2649   */\n  dup3\n    /* \"#utility.yul\":2639:2656   */\n  mul\n    /* \"#utility.yul\":2631:2656   */\n  swap1\n  pop\n    /* \"#utility.yul\":2711:2715   */\n  0x20\n    /* \"#utility.yul\":2705:2709   */\n  dup2\n    /* \"#utility.yul\":2701:2716   */\n  add\n    /* \"#utility.yul\":2693:2716   */\n  swap1\n  pop\n    /* \"#utility.yul\":2412:2723   */\n  swap2\n  swap1\n  pop\n  jump\t// out\n    /* \"#utility.yul\":2729:2825   */\ntag_64:\n    /* \"#utility.yul\":2766:2773   */\n  0x00\n    /* \"#utility.yul\":2795:2819   */\n  tag_66\n    /* \"#utility.yul\":2813:2818   */\n  dup3\n    /* \"#utility.yul\":2795:2819   */\n  tag_67\n  jump\t// in\ntag_66:\n    /* \"#utility.yul\":2784:2819   */\n  swap1\n  pop\n    /* \"#utility.yul\":2729:2825   */\n  swap2\n  swap1\n  pop\n  jump\t// out\n    /* \"#utility.yul\":2831:2957   */\ntag_67:\n    /* \"#utility.yul\":2868:2875   */\n  0x00\n    /* \"#utility.yul\":2908:2950   */\n  0xffffffffffffffffffffffffffffffffffffffff\n    /* \"#utility.yul\":2901:2906   */\n  dup3\n    /* \"#utility.yul\":2897:2951   */\n  and\n    /* \"#utility.yul\":2886:2951   */\n  swap1\n  pop\n    /* \"#utility.yul\":2831:2957   */\n  swap2\n  swap1\n  pop\n  jump\t// out\n    /* \"#utility.yul\":2963:3040   */\ntag_69:\n    /* \"#utility.yul\":3000:3007   */\n  0x00\n    /* \"#utility.yul\":3029:3034   */\n  dup2\n    /* \"#utility.yul\":3018:3034   */\n  swap1\n  pop\n    /* \"#utility.yul\":2963:3040   */\n  swap2\n  swap1\n  pop\n  jump\t// out\n    /* \"#utility.yul\":3046:3327   */\ntag_58:\n    /* \"#utility.yul\":3129:3156   */\n  tag_72\n    /* \"#utility.yul\":3151:3155   */\n  dup3\n    /* \"#utility.yul\":3129:3156   */\n  tag_73\n  jump\t// in\ntag_72:\n    /* \"#utility.yul\":3121:3127   */\n  dup2\n    /* \"#utility.yul\":3117:3157   */\n  add\n    /* \"#utility.yul\":3259:3265   */\n  dup2\n    /* \"#utility.yul\":3247:3257   */\n  dup2\n    /* \"#utility.yul\":3244:3266   */\n  lt\n    /* \"#utility.yul\":3223:3241   */\n  0xffffffffffffffff\n    /* \"#utility.yul\":3211:3221   */\n  dup3\n    /* \"#utility.yul\":3208:3242   */\n  gt\n    /* \"#utility.yul\":3205:3267   */\n  or\n    /* \"#utility.yul\":3202:3290   */\n  iszero\n  tag_74\n  jumpi\n    /* \"#utility.yul\":3270:3288   */\n  tag_75\n  tag_63\n  jump\t// in\ntag_75:\n    /* \"#utility.yul\":3202:3290   */\ntag_74:\n    /* \"#utility.yul\":3310:3320   */\n  dup1\n    /* \"#utility.yul\":3306:3308   */\n  0x40\n    /* \"#utility.yul\":3299:3321   */\n  mstore\n    /* \"#utility.yul\":3089:3327   */\n  pop\n    /* \"#utility.yul\":3046:3327   */\n  pop\n  pop\n  jump\t// out\n    /* \"#utility.yul\":3333:3566   */\ntag_15:\n    /* \"#utility.yul\":3372:3375   */\n  0x00\n    /* \"#utility.yul\":3395:3419   */\n  tag_77\n    /* \"#utility.yul\":3413:3418   */\n  dup3\n    /* \"#utility.yul\":3395:3419   */\n  tag_69\n  jump\t// in\ntag_77:\n    /* \"#utility.yul\":3386:3419   */\n  swap2\n  pop\n    /* \"#utility.yul\":3441:3507   */\n  0xffffffffffffffffffffffffffffffffffffffffffffffffffffffffffffffff\n    /* \"#utility.yul\":3434:3439   */\n  dup3\n    /* \"#utility.yul\":3431:3508   */\n  eq\n    /* \"#utility.yul\":3428:3531   */\n  iszero\n  tag_78\n  jumpi\n    /* \"#utility.yul\":3511:3529   */\n  tag_79\n  tag_80\n  jump\t// in\ntag_79:\n    /* \"#utility.yul\":3428:3531   */\ntag_78:\n    /* \"#utility.yul\":3558:3559   */\n  0x01\n    /* \"#utility.yul\":3551:3556   */\n  dup3\n    /* \"#utility.yul\":3547:3560   */\n  add\n    /* \"#utility.yul\":3540:3560   */\n  swap1\n  pop\n    /* \"#utility.yul\":3333:3566   */\n  swap2\n  swap1\n  pop\n  jump\t// out\n    /* \"#utility.yul\":3572:3752   */\ntag_80:\n    /* \"#utility.yul\":3620:3697   */\n  0x4e487b7100000000000000000000000000000000000000000000000000000000\n    /* \"#utility.yul\":3617:3618   */\n  0x00\n    /* \"#utility.yul\":3610:3698   */\n  mstore\n    /* \"#utility.yul\":3717:3721   */\n  0x11\n    /* \"#utility.yul\":3714:3715   */\n  0x04\n    /* \"#utility.yul\":3707:3722   */\n  mstore\n    /* \"#utility.yul\":3741:3745   */\n  0x24\n    /* \"#utility.yul\":3738:3739   */\n  0x00\n    /* \"#utility.yul\":3731:3746   */\n  revert\n    /* \"#utility.yul\":3758:3938   */\ntag_12:\n    /* \"#utility.yul\":3806:3883   */\n  0x4e487b7100000000000000000000000000000000000000000000000000000000\n    /* \"#utility.yul\":3803:3804   */\n  0x00\n    /* \"#utility.yul\":3796:3884   */\n  mstore\n    /* \"#utility.yul\":3903:3907   */\n  0x32\n    /* \"#utility.yul\":3900:3901   */\n  0x04\n    /* \"#utility.yul\":3893:3908   */\n  mstore\n    /* \"#utility.yul\":3927:3931   */\n  0x24\n    /* \"#utility.yul\":3924:3925   */\n  0x00\n    /* \"#utility.yul\":3917:3932   */\n  revert\n    /* \"#utility.yul\":3944:4124   */\ntag_63:\n    /* \"#utility.yul\":3992:4069   */\n  0x4e487b7100000000000000000000000000000000000000000000000000000000\n    /* \"#utility.yul\":3989:3990   */\n  0x00\n    /* \"#utility.yul\":3982:4070   */\n  mstore\n    /* \"#utility.yul\":4089:4093   */\n  0x41\n    /* \"#utility.yul\":4086:4087   */\n  0x04\n    /* \"#utility.yul\":4079:4094   */\n  mstore\n    /* \"#utility.yul\":4113:4117   */\n  0x24\n    /* \"#utility.yul\":4110:4111   */\n  0x00\n    /* \"#utility.yul\":4103:4118   */\n  revert\n    /* \"#utility.yul\":4130:4247   */\ntag_39:\n    /* \"#utility.yul\":4239:4240   */\n  0x00\n    /* \"#utility.yul\":4236:4237   */\n  dup1\n    /* \"#utility.yul\":4229:4241   */\n  revert\n    /* \"#utility.yul\":4253:4370   */\ntag_26:\n    /* \"#utility.yul\":4362:4363   */\n  0x00\n    /* \"#utility.yul\":4359:4360   */\n  dup1\n    /* \"#utility.yul\":4352:4364   */\n  revert\n    /* \"#utility.yul\":4376:4493   */\ntag_52:\n    /* \"#utility.yul\":4485:4486   */\n  0x00\n    /* \"#utility.yul\":4482:4483   */\n  dup1\n    /* \"#utility.yul\":4475:4487   */\n  revert\n    /* \"#utility.yul\":4499:4616   */\ntag_48:\n    /* \"#utility.yul\":4608:4609   */\n  0x00\n    /* \"#utility.yul\":4605:4606   */\n  dup1\n    /* \"#utility.yul\":4598:4610   */\n  revert\n    /* \"#utility.yul\":4622:4724   */\ntag_73:\n    /* \"#utility.yul\":4663:4669   */\n  0x00\n    /* \"#utility.yul\":4714:4716   */\n  0x1f\n    /* \"#utility.yul\":4710:4717   */\n  not\n    /* \"#utility.yul\":4705:4707   */\n  0x1f\n    /* \"#utility.yul\":4698:4703   */\n  dup4\n    /* \"#utility.yul\":4694:4708   */\n  add\n    /* \"#utility.yul\":4690:4718   */\n  and\n    /* \"#utility.yul\":4680:4718   */\n  swap1\n  pop\n    /* \"#utility.yul\":4622:4724   */\n  swap2\n  swap1\n  pop\n  jump\t// out\n    /* \"#utility.yul\":4730:4852   */\ntag_34:\n    /* \"#utility.yul\":4803:4827   */\n  tag_90\n    /* \"#utility.yul\":4821:4826   */\n  dup2\n    /* \"#utility.yul\":4803:4827   */\n  tag_64\n  jump\t// in\ntag_90:\n    /* \"#utility.yul\":4796:4801   */\n  dup2\n    /* \"#utility.yul\":4793:4828   */\n  eq\n    /* \"#utility.yul\":4783:4846   */\n  tag_91\n  jumpi\n    /* \"#utility.yul\":4842:4843   */\n  0x00\n    /* \"#utility.yul\":4839:4840   */\n  dup1\n    /* \"#utility.yul\":4832:4844   */\n  revert\n    /* \"#utility.yul\":4783:4846   */\ntag_91:\n    /* \"#utility.yul\":4730:4852   */\n  pop\n  jump\t// out\n    /* \"#utility.yul\":4858:4980   */\ntag_44:\n    /* \"#utility.yul\":4931:4955   */\n  tag_93\n    /* \"#utility.yul\":4949:4954   */\n  dup2\n    /* \"#utility.yul\":4931:4955   */\n  tag_69\n  jump\t// in\ntag_93:\n    /* \"#utility.yul\":4924:4929   */\n  dup2\n    /* \"#utility.yul\":4921:4956   */\n  eq\n    /* \"#utility.yul\":4911:4974   */\n  tag_94\n  jumpi\n    /* \"#utility.yul\":4970:4971   */\n  0x00\n    /* \"#utility.yul\":4967:4968   */\n  dup1\n    /* \"#utility.yul\":4960:4972   */\n  revert\n    /* \"#utility.yul\":4911:4974   */\ntag_94:\n    /* \"#utility.yul\":4858:4980   */\n  pop\n  jump\t// out\n    /* \"bootcamp/week2/MultiSigWallet.sol\":291:3631  contract MultiSigWallet {... */\ntag_16:\n  dataSize(sub_0)\n  dup1\n  dataOffset(sub_0)\n  0x00\n  codecopy\n  0x00\n  return\nstop\n\nsub_0: assembly {\n        /* \"bootcamp/week2/MultiSigWallet.sol\":291:3631  contract MultiSigWallet {... */\n      mstore(0x40, 0x80)\n      jumpi(tag_1, lt(calldatasize, 0x04))\n      shr(0xe0, calldataload(0x00))\n      dup1\n      0x8253951a\n      gt\n      tag_12\n      jumpi\n      dup1\n      0x8253951a\n      eq\n      tag_7\n      jumpi\n      dup1\n      0x9ace38c2\n      eq\n      tag_8\n      jumpi\n      dup1\n      0xbb84c5a9\n      eq\n      tag_9\n      jumpi\n      dup1\n      0xcd568d1f\n      eq\n      tag_10\n      jumpi\n      dup1\n      0xdc8452cd\n      eq\n      tag_11\n      jumpi\n      jump(tag_2)\n    tag_12:\n      dup1\n      0x1087393a\n      eq\n      tag_3\n      jumpi\n      dup1\n      0x2f54bf6e\n      eq\n      tag_4\n      jumpi\n      dup1\n      0x54b5fe80\n      eq\n      tag_5\n      jumpi\n      dup1\n      0x5986aaca\n      eq\n      tag_6\n      jumpi\n      jump(tag_2)\n    tag_1:\n      jumpi(tag_2, calldatasize)\n        /* \"bootcamp/week2/MultiSigWallet.sol\":2036:2089  Deposit(msg.sender, msg.value, address(this).balance) */\n      0x90890809c654f11d6e72a28fa60149770a0d11ec6c92319d6ceb2bb0a4ea1a15\n        /* \"bootcamp/week2/MultiSigWallet.sol\":2044:2054  msg.sender */\n      caller\n        /* \"bootcamp/week2/MultiSigWallet.sol\":2056:2065  msg.value */\n      callvalue\n        /* \"bootcamp/week2/MultiSigWallet.sol\":2067:2088  address(this).balance */\n      selfbalance\n        /* \"bootcamp/week2/MultiSigWallet.sol\":2036:2089  Deposit(msg.sender, msg.value, address(this).balance) */\n      mload(0x40)\n      tag_15\n      swap4\n      swap3\n      swap2\n      swap1\n      tag_16\n      jump\t// in\n    tag_15:\n      mload(0x40)\n      dup1\n      swap2\n      sub\n      swap1\n      log1\n        /* \"bootcamp/week2/MultiSigWallet.sol\":291:3631  contract MultiSigWallet {... */\n      stop\n    tag_2:\n      0x00\n      dup1\n      revert\n        /* \"bootcamp/week2/MultiSigWallet.sol\":2456:2703  function approveTx(uint256 _txId) external onlyOwner txExists(_txId) notExecuted(_txId) notApproved(_txId) {... */\n    tag_3:\n      callvalue\n      dup1\n      iszero\n      tag_17\n      jumpi\n      0x00\n      dup1\n      revert\n    tag_17:\n      pop\n      tag_18\n      0x04\n      dup1\n      calldatasize\n      sub\n      dup2\n      add\n      swap1\n      tag_19\n      swap2\n      swap1\n      tag_20\n      jump\t// in\n    tag_19:\n      tag_21\n      jump\t// in\n    tag_18:\n      stop\n        /* \"bootcamp/week2/MultiSigWallet.sol\":644:684  mapping (address => bool) public isOwner */\n    tag_4:\n      callvalue\n      dup1\n      iszero\n      tag_22\n      jumpi\n      0x00\n      dup1\n      revert\n    tag_22:\n      pop\n      tag_23\n      0x04\n      dup1\n      calldatasize\n      sub\n      dup2\n      add\n      swap1\n      tag_24\n      swap2\n      swap1\n      tag_25\n      jump\t// in\n    tag_24:\n      tag_26\n      jump\t// in\n    tag_23:\n      mload(0x40)\n      tag_27\n      swap2\n      swap1\n      tag_28\n      jump\t// in\n    tag_27:\n      mload(0x40)\n      dup1\n      swap2\n      sub\n      swap1\n      return\n        /* \"bootcamp/week2/MultiSigWallet.sol\":2709:3262  function executeTx(uint256 _txId) external onlyOwner txExists(_txId) notExecuted(_txId) {... */\n    tag_5:\n      callvalue\n      dup1\n      iszero\n      tag_29\n      jumpi\n      0x00\n      dup1\n      revert\n    tag_29:\n      pop\n      tag_30\n      0x04\n      dup1\n      calldatasize\n      sub\n      dup2\n      add\n      swap1\n      tag_31\n      swap2\n      swap1\n      tag_20\n      jump\t// in\n    tag_31:\n      tag_32\n      jump\t// in\n    tag_30:\n      stop\n        /* \"bootcamp/week2/MultiSigWallet.sol\":3268:3629  function revokeTx(uint256 _txId) external onlyOwner txExists(_txId) notExecuted(_txId) {... */\n    tag_6:\n      callvalue\n      dup1\n      iszero\n      tag_33\n      jumpi\n      0x00\n      dup1\n      revert\n    tag_33:\n      pop\n      tag_34\n      0x04\n      dup1\n      calldatasize\n      sub\n      dup2\n      add\n      swap1\n      tag_35\n      swap2\n      swap1\n      tag_20\n      jump\t// in\n    tag_35:\n      tag_36\n      jump\t// in\n    tag_34:\n      stop\n        /* \"bootcamp/week2/MultiSigWallet.sol\":917:977  mapping(uint256 => mapping(address => bool)) public approved */\n    tag_7:\n      callvalue\n      dup1\n      iszero\n      tag_37\n      jumpi\n      0x00\n      dup1\n      revert\n    tag_37:\n      pop\n      tag_38\n      0x04\n      dup1\n      calldatasize\n      sub\n      dup2\n      add\n      swap1\n      tag_39\n      swap2\n      swap1\n      tag_40\n      jump\t// in\n    tag_39:\n      tag_41\n      jump\t// in\n    tag_38:\n      mload(0x40)\n      tag_42\n      swap2\n      swap1\n      tag_28\n      jump\t// in\n    tag_42:\n      mload(0x40)\n      dup1\n      swap2\n      sub\n      swap1\n      return\n        /* \"bootcamp/week2/MultiSigWallet.sol\":860:911  mapping(uint256 => Transaction) public transactions */\n    tag_8:\n      callvalue\n      dup1\n      iszero\n      tag_43\n      jumpi\n      0x00\n      dup1\n      revert\n    tag_43:\n      pop\n      tag_44\n      0x04\n      dup1\n      calldatasize\n      sub\n      dup2\n      add\n      swap1\n      tag_45\n      swap2\n      swap1\n      tag_20\n      jump\t// in\n    tag_45:\n      tag_46\n      jump\t// in\n    tag_44:\n      mload(0x40)\n      tag_47\n      swap7\n      swap6\n      swap5\n      swap4\n      swap3\n      swap2\n      swap1\n      tag_48\n      jump\t// in\n    tag_47:\n      mload(0x40)\n      dup1\n      swap2\n      sub\n      swap1\n      return\n        /* \"bootcamp/week2/MultiSigWallet.sol\":2102:2450  function submitTx(address _to, uint256 _value, bytes memory _data) external onlyOwner {... */\n    tag_9:\n      callvalue\n      dup1\n      iszero\n      tag_49\n      jumpi\n      0x00\n      dup1\n      revert\n    tag_49:\n      pop\n      tag_50\n      0x04\n      dup1\n      calldatasize\n      sub\n      dup2\n      add\n      swap1\n      tag_51\n      swap2\n      swap1\n      tag_52\n      jump\t// in\n    tag_51:\n      tag_53\n      jump\t// in\n    tag_50:\n      stop\n        /* \"bootcamp/week2/MultiSigWallet.sol\":1012:1031  uint256 public txId */\n    tag_10:\n      callvalue\n      dup1\n      iszero\n      tag_54\n      jumpi\n      0x00\n      dup1\n      revert\n    tag_54:\n      pop\n      tag_55\n      tag_56\n      jump\t// in\n    tag_55:\n      mload(0x40)\n      tag_57\n      swap2\n      swap1\n      tag_58\n      jump\t// in\n    tag_57:\n      mload(0x40)\n      dup1\n      swap2\n      sub\n      swap1\n      return\n        /* \"bootcamp/week2/MultiSigWallet.sol\":983:1006  uint256 public required */\n    tag_11:\n      callvalue\n      dup1\n      iszero\n      tag_59\n      jumpi\n      0x00\n      dup1\n      revert\n    tag_59:\n      pop\n      tag_60\n      tag_61\n      jump\t// in\n    tag_60:\n      mload(0x40)\n      tag_62\n      swap2\n      swap1\n      tag_58\n      jump\t// in\n    tag_62:\n      mload(0x40)\n      dup1\n      swap2\n      sub\n      swap1\n      return\n        /* \"bootcamp/week2/MultiSigWallet.sol\":2456:2703  function approveTx(uint256 _txId) external onlyOwner txExists(_txId) notExecuted(_txId) notApproved(_txId) {... */\n    tag_21:\n        /* \"bootcamp/week2/MultiSigWallet.sol\":1074:1081  isOwner */\n      0x00\n        /* \"bootcamp/week2/MultiSigWallet.sol\":1074:1093  isOwner[msg.sender] */\n      dup1\n        /* \"bootcamp/week2/MultiSigWallet.sol\":1082:1092  msg.sender */\n      caller\n        /* \"bootcamp/week2/MultiSigWallet.sol\":1074:1093  isOwner[msg.sender] */\n      0xffffffffffffffffffffffffffffffffffffffff\n      and\n      0xffffffffffffffffffffffffffffffffffffffff\n      and\n      dup2\n      mstore\n      0x20\n      add\n      swap1\n      dup2\n      mstore\n      0x20\n      add\n      0x00\n      keccak256\n      0x00\n      swap1\n      sload\n      swap1\n      0x0100\n      exp\n      swap1\n      div\n      0xff\n      and\n        /* \"bootcamp/week2/MultiSigWallet.sol\":1069:1137  if (!isOwner[msg.sender]) {... */\n      tag_64\n      jumpi\n        /* \"bootcamp/week2/MultiSigWallet.sol\":1116:1126  NotOwner() */\n      mload(0x40)\n      0x30cd747100000000000000000000000000000000000000000000000000000000\n      dup2\n      mstore\n      0x04\n      add\n      mload(0x40)\n      dup1\n      swap2\n      sub\n      swap1\n      revert\n        /* \"bootcamp/week2/MultiSigWallet.sol\":1069:1137  if (!isOwner[msg.sender]) {... */\n    tag_64:\n        /* \"bootcamp/week2/MultiSigWallet.sol\":2518:2523  _txId */\n      dup1\n        /* \"bootcamp/week2/MultiSigWallet.sol\":1231:1235  txId */\n      sload(0x04)\n        /* \"bootcamp/week2/MultiSigWallet.sol\":1207:1219  transactions */\n      0x01\n        /* \"bootcamp/week2/MultiSigWallet.sol\":1207:1225  transactions[txId] */\n      0x00\n        /* \"bootcamp/week2/MultiSigWallet.sol\":1220:1224  txId */\n      sload(0x04)\n        /* \"bootcamp/week2/MultiSigWallet.sol\":1207:1225  transactions[txId] */\n      dup2\n      mstore\n      0x20\n      add\n      swap1\n      dup2\n      mstore\n      0x20\n      add\n      0x00\n      keccak256\n        /* \"bootcamp/week2/MultiSigWallet.sol\":1207:1228  transactions[txId].id */\n      0x00\n      add\n      sload\n        /* \"bootcamp/week2/MultiSigWallet.sol\":1207:1235  transactions[txId].id > txId */\n      gt\n        /* \"bootcamp/week2/MultiSigWallet.sol\":1203:1285  if (transactions[txId].id > txId) {... */\n      iszero\n      tag_66\n      jumpi\n        /* \"bootcamp/week2/MultiSigWallet.sol\":1258:1274  txDoesNotExist() */\n      mload(0x40)\n      0xc929b60400000000000000000000000000000000000000000000000000000000\n      dup2\n      mstore\n      0x04\n      add\n      mload(0x40)\n      dup1\n      swap2\n      sub\n      swap1\n      revert\n        /* \"bootcamp/week2/MultiSigWallet.sol\":1203:1285  if (transactions[txId].id > txId) {... */\n    tag_66:\n        /* \"bootcamp/week2/MultiSigWallet.sol\":2537:2542  _txId */\n      dup2\n        /* \"bootcamp/week2/MultiSigWallet.sol\":1358:1370  transactions */\n      0x01\n        /* \"bootcamp/week2/MultiSigWallet.sol\":1358:1377  transactions[_txId] */\n      0x00\n        /* \"bootcamp/week2/MultiSigWallet.sol\":1371:1376  _txId */\n      dup3\n        /* \"bootcamp/week2/MultiSigWallet.sol\":1358:1377  transactions[_txId] */\n      dup2\n      mstore\n      0x20\n      add\n      swap1\n      dup2\n      mstore\n      0x20\n      add\n      0x00\n      keccak256\n        /* \"bootcamp/week2/MultiSigWallet.sol\":1358:1386  transactions[_txId].executed */\n      0x05\n      add\n      0x00\n      swap1\n      sload\n      swap1\n      0x0100\n      exp\n      swap1\n      div\n      0xff\n      and\n        /* \"bootcamp/week2/MultiSigWallet.sol\":1354:1439  if (transactions[_txId].executed) {... */\n      iszero\n      tag_68\n      jumpi\n        /* \"bootcamp/week2/MultiSigWallet.sol\":1409:1428  txAlreadyExecuted() */\n      mload(0x40)\n      0x3ca00aa600000000000000000000000000000000000000000000000000000000\n      dup2\n      mstore\n      0x04\n      add\n      mload(0x40)\n      dup1\n      swap2\n      sub\n      swap1\n      revert\n        /* \"bootcamp/week2/MultiSigWallet.sol\":1354:1439  if (transactions[_txId].executed) {... */\n    tag_68:\n        /* \"bootcamp/week2/MultiSigWallet.sol\":2556:2561  _txId */\n      dup3\n        /* \"bootcamp/week2/MultiSigWallet.sol\":1511:1519  approved */\n      0x02\n        /* \"bootcamp/week2/MultiSigWallet.sol\":1511:1526  approved[_txId] */\n      0x00\n        /* \"bootcamp/week2/MultiSigWallet.sol\":1520:1525  _txId */\n      dup3\n        /* \"bootcamp/week2/MultiSigWallet.sol\":1511:1526  approved[_txId] */\n      dup2\n      mstore\n      0x20\n      add\n      swap1\n      dup2\n      mstore\n      0x20\n      add\n      0x00\n      keccak256\n        /* \"bootcamp/week2/MultiSigWallet.sol\":1511:1538  approved[_txId][msg.sender] */\n      0x00\n        /* \"bootcamp/week2/MultiSigWallet.sol\":1527:1537  msg.sender */\n      caller\n        /* \"bootcamp/week2/MultiSigWallet.sol\":1511:1538  approved[_txId][msg.sender] */\n      0xffffffffffffffffffffffffffffffffffffffff\n      and\n      0xffffffffffffffffffffffffffffffffffffffff\n      and\n      dup2\n      mstore\n      0x20\n      add\n      swap1\n      dup2\n      mstore\n      0x20\n      add\n      0x00\n      keccak256\n      0x00\n      swap1\n      sload\n      swap1\n      0x0100\n      exp\n      swap1\n      div\n      0xff\n      and\n        /* \"bootcamp/week2/MultiSigWallet.sol\":1508:1591  if(approved[_txId][msg.sender]) {... */\n      iszero\n      tag_70\n      jumpi\n        /* \"bootcamp/week2/MultiSigWallet.sol\":1561:1580  txAlreadyApproved() */\n      mload(0x40)\n      0xfcaeab4c00000000000000000000000000000000000000000000000000000000\n      dup2\n      mstore\n      0x04\n      add\n      mload(0x40)\n      dup1\n      swap2\n      sub\n      swap1\n      revert\n        /* \"bootcamp/week2/MultiSigWallet.sol\":1508:1591  if(approved[_txId][msg.sender]) {... */\n    tag_70:\n        /* \"bootcamp/week2/MultiSigWallet.sol\":2573:2585  transactions */\n      0x01\n        /* \"bootcamp/week2/MultiSigWallet.sol\":2573:2592  transactions[_txId] */\n      0x00\n        /* \"bootcamp/week2/MultiSigWallet.sol\":2586:2591  _txId */\n      dup6\n        /* \"bootcamp/week2/MultiSigWallet.sol\":2573:2592  transactions[_txId] */\n      dup2\n      mstore\n      0x20\n      add\n      swap1\n      dup2\n      mstore\n      0x20\n      add\n      0x00\n      keccak256\n        /* \"bootcamp/week2/MultiSigWallet.sol\":2573:2606  transactions[_txId].confirmations */\n      0x04\n      add\n      0x00\n        /* \"bootcamp/week2/MultiSigWallet.sol\":2573:2608  transactions[_txId].confirmations++ */\n      dup2\n      sload\n      dup1\n      swap3\n      swap2\n      swap1\n      tag_72\n      swap1\n      tag_73\n      jump\t// in\n    tag_72:\n      swap2\n      swap1\n      pop\n      sstore\n      pop\n        /* \"bootcamp/week2/MultiSigWallet.sol\":2648:2652  true */\n      0x01\n        /* \"bootcamp/week2/MultiSigWallet.sol\":2618:2626  approved */\n      0x02\n        /* \"bootcamp/week2/MultiSigWallet.sol\":2618:2633  approved[_txId] */\n      0x00\n        /* \"bootcamp/week2/MultiSigWallet.sol\":2627:2632  _txId */\n      dup7\n        /* \"bootcamp/week2/MultiSigWallet.sol\":2618:2633  approved[_txId] */\n      dup2\n      mstore\n      0x20\n      add\n      swap1\n      dup2\n      mstore\n      0x20\n      add\n      0x00\n      keccak256\n        /* \"bootcamp/week2/MultiSigWallet.sol\":2618:2645  approved[_txId][msg.sender] */\n      0x00\n        /* \"bootcamp/week2/MultiSigWallet.sol\":2634:2644  msg.sender */\n      caller\n        /* \"bootcamp/week2/MultiSigWallet.sol\":2618:2645  approved[_txId][msg.sender] */\n      0xffffffffffffffffffffffffffffffffffffffff\n      and\n      0xffffffffffffffffffffffffffffffffffffffff\n      and\n      dup2\n      mstore\n      0x20\n      add\n      swap1\n      dup2\n      mstore\n      0x20\n      add\n      0x00\n      keccak256\n      0x00\n        /* \"bootcamp/week2/MultiSigWallet.sol\":2618:2652  approved[_txId][msg.sender] = true */\n      0x0100\n      exp\n      dup2\n      sload\n      dup2\n      0xff\n      mul\n      not\n      and\n      swap1\n      dup4\n      iszero\n      iszero\n      mul\n      or\n      swap1\n      sstore\n      pop\n        /* \"bootcamp/week2/MultiSigWallet.sol\":2667:2696  ApprovedTx(msg.sender, _txId) */\n      0x0630c3fc0c5609ba2ac38919291f39d2bb42b0ad44bdf7502458532cf4e0eee9\n        /* \"bootcamp/week2/MultiSigWallet.sol\":2678:2688  msg.sender */\n      caller\n        /* \"bootcamp/week2/MultiSigWallet.sol\":2690:2695  _txId */\n      dup6\n        /* \"bootcamp/week2/MultiSigWallet.sol\":2667:2696  ApprovedTx(msg.sender, _txId) */\n      mload(0x40)\n      tag_74\n      swap3\n      swap2\n      swap1\n      tag_75\n      jump\t// in\n    tag_74:\n      mload(0x40)\n      dup1\n      swap2\n      sub\n      swap1\n      log1\n        /* \"bootcamp/week2/MultiSigWallet.sol\":1448:1449  _ */\n      pop\n        /* \"bootcamp/week2/MultiSigWallet.sol\":1294:1295  _ */\n      pop\n        /* \"bootcamp/week2/MultiSigWallet.sol\":1146:1147  _ */\n      pop\n        /* \"bootcamp/week2/MultiSigWallet.sol\":2456:2703  function approveTx(uint256 _txId) external onlyOwner txExists(_txId) notExecuted(_txId) notApproved(_txId) {... */\n      pop\n      jump\t// out\n        /* \"bootcamp/week2/MultiSigWallet.sol\":644:684  mapping (address => bool) public isOwner */\n    tag_26:\n      mstore(0x20, 0x00)\n      dup1\n      0x00\n      mstore\n      keccak256(0x00, 0x40)\n      0x00\n      swap2\n      pop\n      sload\n      swap1\n      0x0100\n      exp\n      swap1\n      div\n      0xff\n      and\n      dup2\n      jump\t// out\n        /* \"bootcamp/week2/MultiSigWallet.sol\":2709:3262  function executeTx(uint256 _txId) external onlyOwner txExists(_txId) notExecuted(_txId) {... */\n    tag_32:\n        /* \"bootcamp/week2/MultiSigWallet.sol\":1074:1081  isOwner */\n      0x00\n        /* \"bootcamp/week2/MultiSigWallet.sol\":1074:1093  isOwner[msg.sender] */\n      dup1\n        /* \"bootcamp/week2/MultiSigWallet.sol\":1082:1092  msg.sender */\n      caller\n        /* \"bootcamp/week2/MultiSigWallet.sol\":1074:1093  isOwner[msg.sender] */\n      0xffffffffffffffffffffffffffffffffffffffff\n      and\n      0xffffffffffffffffffffffffffffffffffffffff\n      and\n      dup2\n      mstore\n      0x20\n      add\n      swap1\n      dup2\n      mstore\n      0x20\n      add\n      0x00\n      keccak256\n      0x00\n      swap1\n      sload\n      swap1\n      0x0100\n      exp\n      swap1\n      div\n      0xff\n      and\n        /* \"bootcamp/week2/MultiSigWallet.sol\":1069:1137  if (!isOwner[msg.sender]) {... */\n      tag_77\n      jumpi\n        /* \"bootcamp/week2/MultiSigWallet.sol\":1116:1126  NotOwner() */\n      mload(0x40)\n      0x30cd747100000000000000000000000000000000000000000000000000000000\n      dup2\n      mstore\n      0x04\n      add\n      mload(0x40)\n      dup1\n      swap2\n      sub\n      swap1\n      revert\n        /* \"bootcamp/week2/MultiSigWallet.sol\":1069:1137  if (!isOwner[msg.sender]) {... */\n    tag_77:\n        /* \"bootcamp/week2/MultiSigWallet.sol\":2771:2776  _txId */\n      dup1\n        /* \"bootcamp/week2/MultiSigWallet.sol\":1231:1235  txId */\n      sload(0x04)\n        /* \"bootcamp/week2/MultiSigWallet.sol\":1207:1219  transactions */\n      0x01\n        /* \"bootcamp/week2/MultiSigWallet.sol\":1207:1225  transactions[txId] */\n      0x00\n        /* \"bootcamp/week2/MultiSigWallet.sol\":1220:1224  txId */\n      sload(0x04)\n        /* \"bootcamp/week2/MultiSigWallet.sol\":1207:1225  transactions[txId] */\n      dup2\n      mstore\n      0x20\n      add\n      swap1\n      dup2\n      mstore\n      0x20\n      add\n      0x00\n      keccak256\n        /* \"bootcamp/week2/MultiSigWallet.sol\":1207:1228  transactions[txId].id */\n      0x00\n      add\n      sload\n        /* \"bootcamp/week2/MultiSigWallet.sol\":1207:1235  transactions[txId].id > txId */\n      gt\n        /* \"bootcamp/week2/MultiSigWallet.sol\":1203:1285  if (transactions[txId].id > txId) {... */\n      iszero\n      tag_79\n      jumpi\n        /* \"bootcamp/week2/MultiSigWallet.sol\":1258:1274  txDoesNotExist() */\n      mload(0x40)\n      0xc929b60400000000000000000000000000000000000000000000000000000000\n      dup2\n      mstore\n      0x04\n      add\n      mload(0x40)\n      dup1\n      swap2\n      sub\n      swap1\n      revert\n        /* \"bootcamp/week2/MultiSigWallet.sol\":1203:1285  if (transactions[txId].id > txId) {... */\n    tag_79:\n        /* \"bootcamp/week2/MultiSigWallet.sol\":2790:2795  _txId */\n      dup2\n        /* \"bootcamp/week2/MultiSigWallet.sol\":1358:1370  transactions */\n      0x01\n        /* \"bootcamp/week2/MultiSigWallet.sol\":1358:1377  transactions[_txId] */\n      0x00\n        /* \"bootcamp/week2/MultiSigWallet.sol\":1371:1376  _txId */\n      dup3\n        /* \"bootcamp/week2/MultiSigWallet.sol\":1358:1377  transactions[_txId] */\n      dup2\n      mstore\n      0x20\n      add\n      swap1\n      dup2\n      mstore\n      0x20\n      add\n      0x00\n      keccak256\n        /* \"bootcamp/week2/MultiSigWallet.sol\":1358:1386  transactions[_txId].executed */\n      0x05\n      add\n      0x00\n      swap1\n      sload\n      swap1\n      0x0100\n      exp\n      swap1\n      div\n      0xff\n      and\n        /* \"bootcamp/week2/MultiSigWallet.sol\":1354:1439  if (transactions[_txId].executed) {... */\n      iszero\n      tag_81\n      jumpi\n        /* \"bootcamp/week2/MultiSigWallet.sol\":1409:1428  txAlreadyExecuted() */\n      mload(0x40)\n      0x3ca00aa600000000000000000000000000000000000000000000000000000000\n      dup2\n      mstore\n      0x04\n      add\n      mload(0x40)\n      dup1\n      swap2\n      sub\n      swap1\n      revert\n        /* \"bootcamp/week2/MultiSigWallet.sol\":1354:1439  if (transactions[_txId].executed) {... */\n    tag_81:\n        /* \"bootcamp/week2/MultiSigWallet.sol\":2807:2838  Transaction storage transaction */\n      0x00\n        /* \"bootcamp/week2/MultiSigWallet.sol\":2841:2853  transactions */\n      0x01\n        /* \"bootcamp/week2/MultiSigWallet.sol\":2841:2860  transactions[_txId] */\n      0x00\n        /* \"bootcamp/week2/MultiSigWallet.sol\":2854:2859  _txId */\n      dup6\n        /* \"bootcamp/week2/MultiSigWallet.sol\":2841:2860  transactions[_txId] */\n      dup2\n      mstore\n      0x20\n      add\n      swap1\n      dup2\n      mstore\n      0x20\n      add\n      0x00\n      keccak256\n        /* \"bootcamp/week2/MultiSigWallet.sol\":2807:2860  Transaction storage transaction = transactions[_txId] */\n      swap1\n      pop\n        /* \"bootcamp/week2/MultiSigWallet.sol\":2902:2910  required */\n      sload(0x03)\n        /* \"bootcamp/week2/MultiSigWallet.sol\":2874:2885  transaction */\n      dup2\n        /* \"bootcamp/week2/MultiSigWallet.sol\":2874:2899  transaction.confirmations */\n      0x04\n      add\n      sload\n        /* \"bootcamp/week2/MultiSigWallet.sol\":2874:2910  transaction.confirmations < required */\n      lt\n        /* \"bootcamp/week2/MultiSigWallet.sol\":2870:2975  if (transaction.confirmations < required) {... */\n      iszero\n      tag_83\n      jumpi\n        /* \"bootcamp/week2/MultiSigWallet.sol\":2933:2964  lessThanRequiredConfirmations() */\n      mload(0x40)\n      0xf534d3e100000000000000000000000000000000000000000000000000000000\n      dup2\n      mstore\n      0x04\n      add\n      mload(0x40)\n      dup1\n      swap2\n      sub\n      swap1\n      revert\n        /* \"bootcamp/week2/MultiSigWallet.sol\":2870:2975  if (transaction.confirmations < required) {... */\n    tag_83:\n        /* \"bootcamp/week2/MultiSigWallet.sol\":3007:3011  true */\n      0x01\n        /* \"bootcamp/week2/MultiSigWallet.sol\":2984:2995  transaction */\n      dup2\n        /* \"bootcamp/week2/MultiSigWallet.sol\":2984:3004  transaction.executed */\n      0x05\n      add\n      0x00\n        /* \"bootcamp/week2/MultiSigWallet.sol\":2984:3011  transaction.executed = true */\n      0x0100\n      exp\n      dup2\n      sload\n      dup2\n      0xff\n      mul\n      not\n      and\n      swap1\n      dup4\n      iszero\n      iszero\n      mul\n      or\n      swap1\n      sstore\n      pop\n        /* \"bootcamp/week2/MultiSigWallet.sol\":3022:3034  bool success */\n      0x00\n        /* \"bootcamp/week2/MultiSigWallet.sol\":3048:3059  transaction */\n      dup2\n        /* \"bootcamp/week2/MultiSigWallet.sol\":3048:3062  transaction.to */\n      0x01\n      add\n      0x00\n      swap1\n      sload\n      swap1\n      0x0100\n      exp\n      swap1\n      div\n      0xffffffffffffffffffffffffffffffffffffffff\n      and\n        /* \"bootcamp/week2/MultiSigWallet.sol\":3040:3068  payable(transaction.to).call */\n      0xffffffffffffffffffffffffffffffffffffffff\n      and\n        /* \"bootcamp/week2/MultiSigWallet.sol\":3076:3087  transaction */\n      dup3\n        /* \"bootcamp/week2/MultiSigWallet.sol\":3076:3093  transaction.value */\n      0x02\n      add\n      sload\n        /* \"bootcamp/week2/MultiSigWallet.sol\":3095:3106  transaction */\n      dup4\n        /* \"bootcamp/week2/MultiSigWallet.sol\":3095:3111  transaction.data */\n      0x03\n      add\n        /* \"bootcamp/week2/MultiSigWallet.sol\":3040:3112  payable(transaction.to).call{value: transaction.value}(transaction.data) */\n      mload(0x40)\n      tag_84\n      swap2\n      swap1\n      tag_85\n      jump\t// in\n    tag_84:\n      0x00\n      mload(0x40)\n      dup1\n      dup4\n      sub\n      dup2\n      dup6\n      dup8\n      gas\n      call\n      swap3\n      pop\n      pop\n      pop\n      returndatasize\n      dup1\n      0x00\n      dup2\n      eq\n      tag_88\n      jumpi\n      mload(0x40)\n      swap2\n      pop\n      and(add(returndatasize, 0x3f), not(0x1f))\n      dup3\n      add\n      0x40\n      mstore\n      returndatasize\n      dup3\n      mstore\n      returndatasize\n      0x00\n      0x20\n      dup5\n      add\n      returndatacopy\n      jump(tag_87)\n    tag_88:\n      0x60\n      swap2\n      pop\n    tag_87:\n      pop\n        /* \"bootcamp/week2/MultiSigWallet.sol\":3021:3112  (bool success, ) = payable(transaction.to).call{value: transaction.value}(transaction.data) */\n      pop\n      swap1\n      pop\n        /* \"bootcamp/week2/MultiSigWallet.sol\":3127:3134  success */\n      dup1\n        /* \"bootcamp/week2/MultiSigWallet.sol\":3122:3178  if (!success) {... */\n      tag_89\n      jumpi\n        /* \"bootcamp/week2/MultiSigWallet.sol\":3157:3167  txFailed() */\n      mload(0x40)\n      0xab4a147c00000000000000000000000000000000000000000000000000000000\n      dup2\n      mstore\n      0x04\n      add\n      mload(0x40)\n      dup1\n      swap2\n      sub\n      swap1\n      revert\n        /* \"bootcamp/week2/MultiSigWallet.sol\":3122:3178  if (!success) {... */\n    tag_89:\n        /* \"bootcamp/week2/MultiSigWallet.sol\":3192:3255  ExecuteTx(transaction.to, transaction.value, _txId, msg.sender) */\n      0x7f3ef5aaabea03a471be8b702d80ccaade1c77f30aa74271f776057f2faeada6\n        /* \"bootcamp/week2/MultiSigWallet.sol\":3202:3213  transaction */\n      dup3\n        /* \"bootcamp/week2/MultiSigWallet.sol\":3202:3216  transaction.to */\n      0x01\n      add\n      0x00\n      swap1\n      sload\n      swap1\n      0x0100\n      exp\n      swap1\n      div\n      0xffffffffffffffffffffffffffffffffffffffff\n      and\n        /* \"bootcamp/week2/MultiSigWallet.sol\":3218:3229  transaction */\n      dup4\n        /* \"bootcamp/week2/MultiSigWallet.sol\":3218:3235  transaction.value */\n      0x02\n      add\n      sload\n        /* \"bootcamp/week2/MultiSigWallet.sol\":3237:3242  _txId */\n      dup8\n        /* \"bootcamp/week2/MultiSigWallet.sol\":3244:3254  msg.sender */\n      caller\n        /* \"bootcamp/week2/MultiSigWallet.sol\":3192:3255  ExecuteTx(transaction.to, transaction.value, _txId, msg.sender) */\n      mload(0x40)\n      tag_90\n      swap5\n      swap4\n      swap3\n      swap2\n      swap1\n      tag_91\n      jump\t// in\n    tag_90:\n      mload(0x40)\n      dup1\n      swap2\n      sub\n      swap1\n      log1\n        /* \"bootcamp/week2/MultiSigWallet.sol\":2797:3262  {... */\n      pop\n      pop\n        /* \"bootcamp/week2/MultiSigWallet.sol\":1294:1295  _ */\n      pop\n        /* \"bootcamp/week2/MultiSigWallet.sol\":1146:1147  _ */\n      pop\n        /* \"bootcamp/week2/MultiSigWallet.sol\":2709:3262  function executeTx(uint256 _txId) external onlyOwner txExists(_txId) notExecuted(_txId) {... */\n      pop\n      jump\t// out\n        /* \"bootcamp/week2/MultiSigWallet.sol\":3268:3629  function revokeTx(uint256 _txId) external onlyOwner txExists(_txId) notExecuted(_txId) {... */\n    tag_36:\n        /* \"bootcamp/week2/MultiSigWallet.sol\":1074:1081  isOwner */\n      0x00\n        /* \"bootcamp/week2/MultiSigWallet.sol\":1074:1093  isOwner[msg.sender] */\n      dup1\n        /* \"bootcamp/week2/MultiSigWallet.sol\":1082:1092  msg.sender */\n      caller\n        /* \"bootcamp/week2/MultiSigWallet.sol\":1074:1093  isOwner[msg.sender] */\n      0xffffffffffffffffffffffffffffffffffffffff\n      and\n      0xffffffffffffffffffffffffffffffffffffffff\n      and\n      dup2\n      mstore\n      0x20\n      add\n      swap1\n      dup2\n      mstore\n      0x20\n      add\n      0x00\n      keccak256\n      0x00\n      swap1\n      sload\n      swap1\n      0x0100\n      exp\n      swap1\n      div\n      0xff\n      and\n        /* \"bootcamp/week2/MultiSigWallet.sol\":1069:1137  if (!isOwner[msg.sender]) {... */\n      tag_93\n      jumpi\n        /* \"bootcamp/week2/MultiSigWallet.sol\":1116:1126  NotOwner() */\n      mload(0x40)\n      0x30cd747100000000000000000000000000000000000000000000000000000000\n      dup2\n      mstore\n      0x04\n      add\n      mload(0x40)\n      dup1\n      swap2\n      sub\n      swap1\n      revert\n        /* \"bootcamp/week2/MultiSigWallet.sol\":1069:1137  if (!isOwner[msg.sender]) {... */\n    tag_93:\n        /* \"bootcamp/week2/MultiSigWallet.sol\":3329:3334  _txId */\n      dup1\n        /* \"bootcamp/week2/MultiSigWallet.sol\":1231:1235  txId */\n      sload(0x04)\n        /* \"bootcamp/week2/MultiSigWallet.sol\":1207:1219  transactions */\n      0x01\n        /* \"bootcamp/week2/MultiSigWallet.sol\":1207:1225  transactions[txId] */\n      0x00\n        /* \"bootcamp/week2/MultiSigWallet.sol\":1220:1224  txId */\n      sload(0x04)\n        /* \"bootcamp/week2/MultiSigWallet.sol\":1207:1225  transactions[txId] */\n      dup2\n      mstore\n      0x20\n      add\n      swap1\n      dup2\n      mstore\n      0x20\n      add\n      0x00\n      keccak256\n        /* \"bootcamp/week2/MultiSigWallet.sol\":1207:1228  transactions[txId].id */\n      0x00\n      add\n      sload\n        /* \"bootcamp/week2/MultiSigWallet.sol\":1207:1235  transactions[txId].id > txId */\n      gt\n        /* \"bootcamp/week2/MultiSigWallet.sol\":1203:1285  if (transactions[txId].id > txId) {... */\n      iszero\n      tag_95\n      jumpi\n        /* \"bootcamp/week2/MultiSigWallet.sol\":1258:1274  txDoesNotExist() */\n      mload(0x40)\n      0xc929b60400000000000000000000000000000000000000000000000000000000\n      dup2\n      mstore\n      0x04\n      add\n      mload(0x40)\n      dup1\n      swap2\n      sub\n      swap1\n      revert\n        /* \"bootcamp/week2/MultiSigWallet.sol\":1203:1285  if (transactions[txId].id > txId) {... */\n    tag_95:\n        /* \"bootcamp/week2/MultiSigWallet.sol\":3348:3353  _txId */\n      dup2\n        /* \"bootcamp/week2/MultiSigWallet.sol\":1358:1370  transactions */\n      0x01\n        /* \"bootcamp/week2/MultiSigWallet.sol\":1358:1377  transactions[_txId] */\n      0x00\n        /* \"bootcamp/week2/MultiSigWallet.sol\":1371:1376  _txId */\n      dup3\n        /* \"bootcamp/week2/MultiSigWallet.sol\":1358:1377  transactions[_txId] */\n      dup2\n      mstore\n      0x20\n      add\n      swap1\n      dup2\n      mstore\n      0x20\n      add\n      0x00\n      keccak256\n        /* \"bootcamp/week2/MultiSigWallet.sol\":1358:1386  transactions[_txId].executed */\n      0x05\n      add\n      0x00\n      swap1\n      sload\n      swap1\n      0x0100\n      exp\n      swap1\n      div\n      0xff\n      and\n        /* \"bootcamp/week2/MultiSigWallet.sol\":1354:1439  if (transactions[_txId].executed) {... */\n      iszero\n      tag_97\n      jumpi\n        /* \"bootcamp/week2/MultiSigWallet.sol\":1409:1428  txAlreadyExecuted() */\n      mload(0x40)\n      0x3ca00aa600000000000000000000000000000000000000000000000000000000\n      dup2\n      mstore\n      0x04\n      add\n      mload(0x40)\n      dup1\n      swap2\n      sub\n      swap1\n      revert\n        /* \"bootcamp/week2/MultiSigWallet.sol\":1354:1439  if (transactions[_txId].executed) {... */\n    tag_97:\n        /* \"bootcamp/week2/MultiSigWallet.sol\":3368:3376  approved */\n      0x02\n        /* \"bootcamp/week2/MultiSigWallet.sol\":3368:3383  approved[_txId] */\n      0x00\n        /* \"bootcamp/week2/MultiSigWallet.sol\":3377:3382  _txId */\n      dup5\n        /* \"bootcamp/week2/MultiSigWallet.sol\":3368:3383  approved[_txId] */\n      dup2\n      mstore\n      0x20\n      add\n      swap1\n      dup2\n      mstore\n      0x20\n      add\n      0x00\n      keccak256\n        /* \"bootcamp/week2/MultiSigWallet.sol\":3368:3395  approved[_txId][msg.sender] */\n      0x00\n        /* \"bootcamp/week2/MultiSigWallet.sol\":3384:3394  msg.sender */\n      caller\n        /* \"bootcamp/week2/MultiSigWallet.sol\":3368:3395  approved[_txId][msg.sender] */\n      0xffffffffffffffffffffffffffffffffffffffff\n      and\n      0xffffffffffffffffffffffffffffffffffffffff\n      and\n      dup2\n      mstore\n      0x20\n      add\n      swap1\n      dup2\n      mstore\n      0x20\n      add\n      0x00\n      keccak256\n      0x00\n      swap1\n      sload\n      swap1\n      0x0100\n      exp\n      swap1\n      div\n      0xff\n      and\n        /* \"bootcamp/week2/MultiSigWallet.sol\":3365:3623  if(approved[_txId][msg.sender]) {... */\n      iszero\n      tag_99\n      jumpi\n        /* \"bootcamp/week2/MultiSigWallet.sol\":3441:3446  false */\n      0x00\n        /* \"bootcamp/week2/MultiSigWallet.sol\":3411:3419  approved */\n      0x02\n        /* \"bootcamp/week2/MultiSigWallet.sol\":3411:3426  approved[_txId] */\n      0x00\n        /* \"bootcamp/week2/MultiSigWallet.sol\":3420:3425  _txId */\n      dup6\n        /* \"bootcamp/week2/MultiSigWallet.sol\":3411:3426  approved[_txId] */\n      dup2\n      mstore\n      0x20\n      add\n      swap1\n      dup2\n      mstore\n      0x20\n      add\n      0x00\n      keccak256\n        /* \"bootcamp/week2/MultiSigWallet.sol\":3411:3438  approved[_txId][msg.sender] */\n      0x00\n        /* \"bootcamp/week2/MultiSigWallet.sol\":3427:3437  msg.sender */\n      caller\n        /* \"bootcamp/week2/MultiSigWallet.sol\":3411:3438  approved[_txId][msg.sender] */\n      0xffffffffffffffffffffffffffffffffffffffff\n      and\n      0xffffffffffffffffffffffffffffffffffffffff\n      and\n      dup2\n      mstore\n      0x20\n      add\n      swap1\n      dup2\n      mstore\n      0x20\n      add\n      0x00\n      keccak256\n      0x00\n        /* \"bootcamp/week2/MultiSigWallet.sol\":3411:3446  approved[_txId][msg.sender] = false */\n      0x0100\n      exp\n      dup2\n      sload\n      dup2\n      0xff\n      mul\n      not\n      and\n      swap1\n      dup4\n      iszero\n      iszero\n      mul\n      or\n      swap1\n      sstore\n      pop\n        /* \"bootcamp/week2/MultiSigWallet.sol\":3460:3472  transactions */\n      0x01\n        /* \"bootcamp/week2/MultiSigWallet.sol\":3460:3479  transactions[_txId] */\n      0x00\n        /* \"bootcamp/week2/MultiSigWallet.sol\":3473:3478  _txId */\n      dup5\n        /* \"bootcamp/week2/MultiSigWallet.sol\":3460:3479  transactions[_txId] */\n      dup2\n      mstore\n      0x20\n      add\n      swap1\n      dup2\n      mstore\n      0x20\n      add\n      0x00\n      keccak256\n        /* \"bootcamp/week2/MultiSigWallet.sol\":3460:3493  transactions[_txId].confirmations */\n      0x04\n      add\n      0x00\n        /* \"bootcamp/week2/MultiSigWallet.sol\":3460:3496  transactions[_txId].confirmations -- */\n      dup2\n      sload\n      dup1\n      swap3\n      swap2\n      swap1\n      tag_100\n      swap1\n      tag_101\n      jump\t// in\n    tag_100:\n      swap2\n      swap1\n      pop\n      sstore\n      pop\n        /* \"bootcamp/week2/MultiSigWallet.sol\":3515:3549  RevokedApproval(msg.sender, _txId) */\n      0x8ac0ec85d3817644471cdaff11fb456b57808050d06be464ecb80960c6970826\n        /* \"bootcamp/week2/MultiSigWallet.sol\":3531:3541  msg.sender */\n      caller\n        /* \"bootcamp/week2/MultiSigWallet.sol\":3543:3548  _txId */\n      dup5\n        /* \"bootcamp/week2/MultiSigWallet.sol\":3515:3549  RevokedApproval(msg.sender, _txId) */\n      mload(0x40)\n      tag_102\n      swap3\n      swap2\n      swap1\n      tag_75\n      jump\t// in\n    tag_102:\n      mload(0x40)\n      dup1\n      swap2\n      sub\n      swap1\n      log1\n        /* \"bootcamp/week2/MultiSigWallet.sol\":3365:3623  if(approved[_txId][msg.sender]) {... */\n      jump(tag_103)\n    tag_99:\n        /* \"bootcamp/week2/MultiSigWallet.sol\":3587:3612  OwnerNotAlreadyApproved() */\n      mload(0x40)\n      0x2e5f286200000000000000000000000000000000000000000000000000000000\n      dup2\n      mstore\n      0x04\n      add\n      mload(0x40)\n      dup1\n      swap2\n      sub\n      swap1\n      revert\n        /* \"bootcamp/week2/MultiSigWallet.sol\":3365:3623  if(approved[_txId][msg.sender]) {... */\n    tag_103:\n        /* \"bootcamp/week2/MultiSigWallet.sol\":1294:1295  _ */\n      pop\n        /* \"bootcamp/week2/MultiSigWallet.sol\":1146:1147  _ */\n      pop\n        /* \"bootcamp/week2/MultiSigWallet.sol\":3268:3629  function revokeTx(uint256 _txId) external onlyOwner txExists(_txId) notExecuted(_txId) {... */\n      pop\n      jump\t// out\n        /* \"bootcamp/week2/MultiSigWallet.sol\":917:977  mapping(uint256 => mapping(address => bool)) public approved */\n    tag_41:\n      mstore(0x20, 0x02)\n      dup2\n      0x00\n      mstore\n      mstore(0x20, keccak256(0x00, 0x40))\n      dup1\n      0x00\n      mstore\n      keccak256(0x00, 0x40)\n      0x00\n      swap2\n      pop\n      swap2\n      pop\n      swap1\n      sload\n      swap1\n      0x0100\n      exp\n      swap1\n      div\n      0xff\n      and\n      dup2\n      jump\t// out\n        /* \"bootcamp/week2/MultiSigWallet.sol\":860:911  mapping(uint256 => Transaction) public transactions */\n    tag_46:\n      mstore(0x20, 0x01)\n      dup1\n      0x00\n      mstore\n      keccak256(0x00, 0x40)\n      0x00\n      swap2\n      pop\n      swap1\n      pop\n      dup1\n      0x00\n      add\n      sload\n      swap1\n      dup1\n      0x01\n      add\n      0x00\n      swap1\n      sload\n      swap1\n      0x0100\n      exp\n      swap1\n      div\n      0xffffffffffffffffffffffffffffffffffffffff\n      and\n      swap1\n      dup1\n      0x02\n      add\n      sload\n      swap1\n      dup1\n      0x03\n      add\n      dup1\n      sload\n      tag_104\n      swap1\n      tag_105\n      jump\t// in\n    tag_104:\n      dup1\n      0x1f\n      add\n      0x20\n      dup1\n      swap2\n      div\n      mul\n      0x20\n      add\n      mload(0x40)\n      swap1\n      dup2\n      add\n      0x40\n      mstore\n      dup1\n      swap3\n      swap2\n      swap1\n      dup2\n      dup2\n      mstore\n      0x20\n      add\n      dup3\n      dup1\n      sload\n      tag_106\n      swap1\n      tag_105\n      jump\t// in\n    tag_106:\n      dup1\n      iszero\n      tag_107\n      jumpi\n      dup1\n      0x1f\n      lt\n      tag_108\n      jumpi\n      0x0100\n      dup1\n      dup4\n      sload\n      div\n      mul\n      dup4\n      mstore\n      swap2\n      0x20\n      add\n      swap2\n      jump(tag_107)\n    tag_108:\n      dup3\n      add\n      swap2\n      swap1\n      0x00\n      mstore\n      keccak256(0x00, 0x20)\n      swap1\n    tag_109:\n      dup2\n      sload\n      dup2\n      mstore\n      swap1\n      0x01\n      add\n      swap1\n      0x20\n      add\n      dup1\n      dup4\n      gt\n      tag_109\n      jumpi\n      dup3\n      swap1\n      sub\n      0x1f\n      and\n      dup3\n      add\n      swap2\n    tag_107:\n      pop\n      pop\n      pop\n      pop\n      pop\n      swap1\n      dup1\n      0x04\n      add\n      sload\n      swap1\n      dup1\n      0x05\n      add\n      0x00\n      swap1\n      sload\n      swap1\n      0x0100\n      exp\n      swap1\n      div\n      0xff\n      and\n      swap1\n      pop\n      dup7\n      jump\t// out\n        /* \"bootcamp/week2/MultiSigWallet.sol\":2102:2450  function submitTx(address _to, uint256 _value, bytes memory _data) external onlyOwner {... */\n    tag_53:\n        /* \"bootcamp/week2/MultiSigWallet.sol\":1074:1081  isOwner */\n      0x00\n        /* \"bootcamp/week2/MultiSigWallet.sol\":1074:1093  isOwner[msg.sender] */\n      dup1\n        /* \"bootcamp/week2/MultiSigWallet.sol\":1082:1092  msg.sender */\n      caller\n        /* \"bootcamp/week2/MultiSigWallet.sol\":1074:1093  isOwner[msg.sender] */\n      0xffffffffffffffffffffffffffffffffffffffff\n      and\n      0xffffffffffffffffffffffffffffffffffffffff\n      and\n      dup2\n      mstore\n      0x20\n      add\n      swap1\n      dup2\n      mstore\n      0x20\n      add\n      0x00\n      keccak256\n      0x00\n      swap1\n      sload\n      swap1\n      0x0100\n      exp\n      swap1\n      div\n      0xff\n      and\n        /* \"bootcamp/week2/MultiSigWallet.sol\":1069:1137  if (!isOwner[msg.sender]) {... */\n      tag_111\n      jumpi\n        /* \"bootcamp/week2/MultiSigWallet.sol\":1116:1126  NotOwner() */\n      mload(0x40)\n      0x30cd747100000000000000000000000000000000000000000000000000000000\n      dup2\n      mstore\n      0x04\n      add\n      mload(0x40)\n      dup1\n      swap2\n      sub\n      swap1\n      revert\n        /* \"bootcamp/week2/MultiSigWallet.sol\":1069:1137  if (!isOwner[msg.sender]) {... */\n    tag_111:\n        /* \"bootcamp/week2/MultiSigWallet.sol\":2198:2229  Transaction storage transaction */\n      0x00\n        /* \"bootcamp/week2/MultiSigWallet.sol\":2232:2244  transactions */\n      0x01\n        /* \"bootcamp/week2/MultiSigWallet.sol\":2232:2250  transactions[txId] */\n      0x00\n        /* \"bootcamp/week2/MultiSigWallet.sol\":2245:2249  txId */\n      sload(0x04)\n        /* \"bootcamp/week2/MultiSigWallet.sol\":2232:2250  transactions[txId] */\n      dup2\n      mstore\n      0x20\n      add\n      swap1\n      dup2\n      mstore\n      0x20\n      add\n      0x00\n      keccak256\n        /* \"bootcamp/week2/MultiSigWallet.sol\":2198:2250  Transaction storage transaction = transactions[txId] */\n      swap1\n      pop\n        /* \"bootcamp/week2/MultiSigWallet.sol\":2277:2281  txId */\n      sload(0x04)\n        /* \"bootcamp/week2/MultiSigWallet.sol\":2260:2271  transaction */\n      dup2\n        /* \"bootcamp/week2/MultiSigWallet.sol\":2260:2274  transaction.id */\n      0x00\n      add\n        /* \"bootcamp/week2/MultiSigWallet.sol\":2260:2281  transaction.id = txId */\n      dup2\n      swap1\n      sstore\n      pop\n        /* \"bootcamp/week2/MultiSigWallet.sol\":2308:2311  _to */\n      dup4\n        /* \"bootcamp/week2/MultiSigWallet.sol\":2291:2302  transaction */\n      dup2\n        /* \"bootcamp/week2/MultiSigWallet.sol\":2291:2305  transaction.to */\n      0x01\n      add\n      0x00\n        /* \"bootcamp/week2/MultiSigWallet.sol\":2291:2311  transaction.to = _to */\n      0x0100\n      exp\n      dup2\n      sload\n      dup2\n      0xffffffffffffffffffffffffffffffffffffffff\n      mul\n      not\n      and\n      swap1\n      dup4\n      0xffffffffffffffffffffffffffffffffffffffff\n      and\n      mul\n      or\n      swap1\n      sstore\n      pop\n        /* \"bootcamp/week2/MultiSigWallet.sol\":2341:2347  _value */\n      dup3\n        /* \"bootcamp/week2/MultiSigWallet.sol\":2321:2332  transaction */\n      dup2\n        /* \"bootcamp/week2/MultiSigWallet.sol\":2321:2338  transaction.value */\n      0x02\n      add\n        /* \"bootcamp/week2/MultiSigWallet.sol\":2321:2347  transaction.value = _value */\n      dup2\n      swap1\n      sstore\n      pop\n        /* \"bootcamp/week2/MultiSigWallet.sol\":2376:2381  _data */\n      dup2\n        /* \"bootcamp/week2/MultiSigWallet.sol\":2357:2368  transaction */\n      dup2\n        /* \"bootcamp/week2/MultiSigWallet.sol\":2357:2373  transaction.data */\n      0x03\n      add\n        /* \"bootcamp/week2/MultiSigWallet.sol\":2357:2381  transaction.data = _data */\n      swap1\n      dup1\n      mload\n      swap1\n      0x20\n      add\n      swap1\n      tag_113\n      swap3\n      swap2\n      swap1\n      tag_114\n      jump\t// in\n    tag_113:\n      pop\n        /* \"bootcamp/week2/MultiSigWallet.sol\":2391:2395  txId */\n      0x04\n      0x00\n        /* \"bootcamp/week2/MultiSigWallet.sol\":2391:2397  txId++ */\n      dup2\n      sload\n      dup1\n      swap3\n      swap2\n      swap1\n      tag_115\n      swap1\n      tag_73\n      jump\t// in\n    tag_115:\n      swap2\n      swap1\n      pop\n      sstore\n      pop\n        /* \"bootcamp/week2/MultiSigWallet.sol\":2412:2443  SubmittedTx(_to, _value, _data) */\n      0x315d8bf6c6d36a1411ee3d8d607b26df37940936bd273e006857a296fbac2ce8\n        /* \"bootcamp/week2/MultiSigWallet.sol\":2424:2427  _to */\n      dup5\n        /* \"bootcamp/week2/MultiSigWallet.sol\":2429:2435  _value */\n      dup5\n        /* \"bootcamp/week2/MultiSigWallet.sol\":2437:2442  _data */\n      dup5\n        /* \"bootcamp/week2/MultiSigWallet.sol\":2412:2443  SubmittedTx(_to, _value, _data) */\n      mload(0x40)\n      tag_116\n      swap4\n      swap3\n      swap2\n      swap1\n      tag_117\n      jump\t// in\n    tag_116:\n      mload(0x40)\n      dup1\n      swap2\n      sub\n      swap1\n      log1\n        /* \"bootcamp/week2/MultiSigWallet.sol\":2188:2450  {... */\n      pop\n        /* \"bootcamp/week2/MultiSigWallet.sol\":2102:2450  function submitTx(address _to, uint256 _value, bytes memory _data) external onlyOwner {... */\n      pop\n      pop\n      pop\n      jump\t// out\n        /* \"bootcamp/week2/MultiSigWallet.sol\":1012:1031  uint256 public txId */\n    tag_56:\n      sload(0x04)\n      dup2\n      jump\t// out\n        /* \"bootcamp/week2/MultiSigWallet.sol\":983:1006  uint256 public required */\n    tag_61:\n      sload(0x03)\n      dup2\n      jump\t// out\n    tag_114:\n      dup3\n      dup1\n      sload\n      tag_118\n      swap1\n      tag_105\n      jump\t// in\n    tag_118:\n      swap1\n      0x00\n      mstore\n      keccak256(0x00, 0x20)\n      swap1\n      0x1f\n      add\n      0x20\n      swap1\n      div\n      dup2\n      add\n      swap3\n      dup3\n      tag_120\n      jumpi\n      0x00\n      dup6\n      sstore\n      jump(tag_119)\n    tag_120:\n      dup3\n      0x1f\n      lt\n      tag_121\n      jumpi\n      dup1\n      mload\n      not(0xff)\n      and\n      dup4\n      dup1\n      add\n      or\n      dup6\n      sstore\n      jump(tag_119)\n    tag_121:\n      dup3\n      dup1\n      add\n      0x01\n      add\n      dup6\n      sstore\n      dup3\n      iszero\n      tag_119\n      jumpi\n      swap2\n      dup3\n      add\n    tag_122:\n      dup3\n      dup2\n      gt\n      iszero\n      tag_123\n      jumpi\n      dup3\n      mload\n      dup3\n      sstore\n      swap2\n      0x20\n      add\n      swap2\n      swap1\n      0x01\n      add\n      swap1\n      jump(tag_122)\n    tag_123:\n    tag_119:\n      pop\n      swap1\n      pop\n      tag_124\n      swap2\n      swap1\n      tag_125\n      jump\t// in\n    tag_124:\n      pop\n      swap1\n      jump\t// out\n    tag_125:\n    tag_126:\n      dup1\n      dup3\n      gt\n      iszero\n      tag_127\n      jumpi\n      0x00\n      dup2\n      0x00\n      swap1\n      sstore\n      pop\n      0x01\n      add\n      jump(tag_126)\n    tag_127:\n      pop\n      swap1\n      jump\t// out\n        /* \"#utility.yul\":7:417   */\n    tag_129:\n        /* \"#utility.yul\":84:89   */\n      0x00\n        /* \"#utility.yul\":109:174   */\n      tag_131\n        /* \"#utility.yul\":125:173   */\n      tag_132\n        /* \"#utility.yul\":166:172   */\n      dup5\n        /* \"#utility.yul\":125:173   */\n      tag_133\n      jump\t// in\n    tag_132:\n        /* \"#utility.yul\":109:174   */\n      tag_134\n      jump\t// in\n    tag_131:\n        /* \"#utility.yul\":100:174   */\n      swap1\n      pop\n        /* \"#utility.yul\":197:203   */\n      dup3\n        /* \"#utility.yul\":190:195   */\n      dup2\n        /* \"#utility.yul\":183:204   */\n      mstore\n        /* \"#utility.yul\":235:239   */\n      0x20\n        /* \"#utility.yul\":228:233   */\n      dup2\n        /* \"#utility.yul\":224:240   */\n      add\n        /* \"#utility.yul\":273:276   */\n      dup5\n        /* \"#utility.yul\":264:270   */\n      dup5\n        /* \"#utility.yul\":259:262   */\n      dup5\n        /* \"#utility.yul\":255:271   */\n      add\n        /* \"#utility.yul\":252:277   */\n      gt\n        /* \"#utility.yul\":249:361   */\n      iszero\n      tag_135\n      jumpi\n        /* \"#utility.yul\":280:359   */\n      tag_136\n      tag_137\n      jump\t// in\n    tag_136:\n        /* \"#utility.yul\":249:361   */\n    tag_135:\n        /* \"#utility.yul\":370:411   */\n      tag_138\n        /* \"#utility.yul\":404:410   */\n      dup5\n        /* \"#utility.yul\":399:402   */\n      dup3\n        /* \"#utility.yul\":394:397   */\n      dup6\n        /* \"#utility.yul\":370:411   */\n      tag_139\n      jump\t// in\n    tag_138:\n        /* \"#utility.yul\":90:417   */\n      pop\n        /* \"#utility.yul\":7:417   */\n      swap4\n      swap3\n      pop\n      pop\n      pop\n      jump\t// out\n        /* \"#utility.yul\":423:562   */\n    tag_140:\n        /* \"#utility.yul\":469:474   */\n      0x00\n        /* \"#utility.yul\":507:513   */\n      dup2\n        /* \"#utility.yul\":494:514   */\n      calldataload\n        /* \"#utility.yul\":485:514   */\n      swap1\n      pop\n        /* \"#utility.yul\":523:556   */\n      tag_142\n        /* \"#utility.yul\":550:555   */\n      dup2\n        /* \"#utility.yul\":523:556   */\n      tag_143\n      jump\t// in\n    tag_142:\n        /* \"#utility.yul\":423:562   */\n      swap3\n      swap2\n      pop\n      pop\n      jump\t// out\n        /* \"#utility.yul\":581:919   */\n    tag_144:\n        /* \"#utility.yul\":636:641   */\n      0x00\n        /* \"#utility.yul\":685:688   */\n      dup3\n        /* \"#utility.yul\":678:682   */\n      0x1f\n        /* \"#utility.yul\":670:676   */\n      dup4\n        /* \"#utility.yul\":666:683   */\n      add\n        /* \"#utility.yul\":662:689   */\n      slt\n        /* \"#utility.yul\":652:774   */\n      tag_146\n      jumpi\n        /* \"#utility.yul\":693:772   */\n      tag_147\n      tag_148\n      jump\t// in\n    tag_147:\n        /* \"#utility.yul\":652:774   */\n    tag_146:\n        /* \"#utility.yul\":810:816   */\n      dup2\n        /* \"#utility.yul\":797:817   */\n      calldataload\n        /* \"#utility.yul\":835:913   */\n      tag_149\n        /* \"#utility.yul\":909:912   */\n      dup5\n        /* \"#utility.yul\":901:907   */\n      dup3\n        /* \"#utility.yul\":894:898   */\n      0x20\n        /* \"#utility.yul\":886:892   */\n      dup7\n        /* \"#utility.yul\":882:899   */\n      add\n        /* \"#utility.yul\":835:913   */\n      tag_129\n      jump\t// in\n    tag_149:\n        /* \"#utility.yul\":826:913   */\n      swap2\n      pop\n        /* \"#utility.yul\":642:919   */\n      pop\n        /* \"#utility.yul\":581:919   */\n      swap3\n      swap2\n      pop\n      pop\n      jump\t// out\n        /* \"#utility.yul\":925:1064   */\n    tag_150:\n        /* \"#utility.yul\":971:976   */\n      0x00\n        /* \"#utility.yul\":1009:1015   */\n      dup2\n        /* \"#utility.yul\":996:1016   */\n      calldataload\n        /* \"#utility.yul\":987:1016   */\n      swap1\n      pop\n        /* \"#utility.yul\":1025:1058   */\n      tag_152\n        /* \"#utility.yul\":1052:1057   */\n      dup2\n        /* \"#utility.yul\":1025:1058   */\n      tag_153\n      jump\t// in\n    tag_152:\n        /* \"#utility.yul\":925:1064   */\n      swap3\n      swap2\n      pop\n      pop\n      jump\t// out\n        /* \"#utility.yul\":1070:1399   */\n    tag_25:\n        /* \"#utility.yul\":1129:1135   */\n      0x00\n        /* \"#utility.yul\":1178:1180   */\n      0x20\n        /* \"#utility.yul\":1166:1175   */\n      dup3\n        /* \"#utility.yul\":1157:1164   */\n      dup5\n        /* \"#utility.yul\":1153:1176   */\n      sub\n        /* \"#utility.yul\":1149:1181   */\n      slt\n        /* \"#utility.yul\":1146:1265   */\n      iszero\n      tag_155\n      jumpi\n        /* \"#utility.yul\":1184:1263   */\n      tag_156\n      tag_157\n      jump\t// in\n    tag_156:\n        /* \"#utility.yul\":1146:1265   */\n    tag_155:\n        /* \"#utility.yul\":1304:1305   */\n      0x00\n        /* \"#utility.yul\":1329:1382   */\n      tag_158\n        /* \"#utility.yul\":1374:1381   */\n      dup5\n        /* \"#utility.yul\":1365:1371   */\n      dup3\n        /* \"#utility.yul\":1354:1363   */\n      dup6\n        /* \"#utility.yul\":1350:1372   */\n      add\n        /* \"#utility.yul\":1329:1382   */\n      tag_140\n      jump\t// in\n    tag_158:\n        /* \"#utility.yul\":1319:1382   */\n      swap2\n      pop\n        /* \"#utility.yul\":1275:1392   */\n      pop\n        /* \"#utility.yul\":1070:1399   */\n      swap3\n      swap2\n      pop\n      pop\n      jump\t// out\n        /* \"#utility.yul\":1405:2202   */\n    tag_52:\n        /* \"#utility.yul\":1491:1497   */\n      0x00\n        /* \"#utility.yul\":1499:1505   */\n      dup1\n        /* \"#utility.yul\":1507:1513   */\n      0x00\n        /* \"#utility.yul\":1556:1558   */\n      0x60\n        /* \"#utility.yul\":1544:1553   */\n      dup5\n        /* \"#utility.yul\":1535:1542   */\n      dup7\n        /* \"#utility.yul\":1531:1554   */\n      sub\n        /* \"#utility.yul\":1527:1559   */\n      slt\n        /* \"#utility.yul\":1524:1643   */\n      iszero\n      tag_160\n      jumpi\n        /* \"#utility.yul\":1562:1641   */\n      tag_161\n      tag_157\n      jump\t// in\n    tag_161:\n        /* \"#utility.yul\":1524:1643   */\n    tag_160:\n        /* \"#utility.yul\":1682:1683   */\n      0x00\n        /* \"#utility.yul\":1707:1760   */\n      tag_162\n        /* \"#utility.yul\":1752:1759   */\n      dup7\n        /* \"#utility.yul\":1743:1749   */\n      dup3\n        /* \"#utility.yul\":1732:1741   */\n      dup8\n        /* \"#utility.yul\":1728:1750   */\n      add\n        /* \"#utility.yul\":1707:1760   */\n      tag_140\n      jump\t// in\n    tag_162:\n        /* \"#utility.yul\":1697:1760   */\n      swap4\n      pop\n        /* \"#utility.yul\":1653:1770   */\n      pop\n        /* \"#utility.yul\":1809:1811   */\n      0x20\n        /* \"#utility.yul\":1835:1888   */\n      tag_163\n        /* \"#utility.yul\":1880:1887   */\n      dup7\n        /* \"#utility.yul\":1871:1877   */\n      dup3\n        /* \"#utility.yul\":1860:1869   */\n      dup8\n        /* \"#utility.yul\":1856:1878   */\n      add\n        /* \"#utility.yul\":1835:1888   */\n      tag_150\n      jump\t// in\n    tag_163:\n        /* \"#utility.yul\":1825:1888   */\n      swap3\n      pop\n        /* \"#utility.yul\":1780:1898   */\n      pop\n        /* \"#utility.yul\":1965:1967   */\n      0x40\n        /* \"#utility.yul\":1954:1963   */\n      dup5\n        /* \"#utility.yul\":1950:1968   */\n      add\n        /* \"#utility.yul\":1937:1969   */\n      calldataload\n        /* \"#utility.yul\":1996:2014   */\n      0xffffffffffffffff\n        /* \"#utility.yul\":1988:1994   */\n      dup2\n        /* \"#utility.yul\":1985:2015   */\n      gt\n        /* \"#utility.yul\":1982:2099   */\n      iszero\n      tag_164\n      jumpi\n        /* \"#utility.yul\":2018:2097   */\n      tag_165\n      tag_166\n      jump\t// in\n    tag_165:\n        /* \"#utility.yul\":1982:2099   */\n    tag_164:\n        /* \"#utility.yul\":2123:2185   */\n      tag_167\n        /* \"#utility.yul\":2177:2184   */\n      dup7\n        /* \"#utility.yul\":2168:2174   */\n      dup3\n        /* \"#utility.yul\":2157:2166   */\n      dup8\n        /* \"#utility.yul\":2153:2175   */\n      add\n        /* \"#utility.yul\":2123:2185   */\n      tag_144\n      jump\t// in\n    tag_167:\n        /* \"#utility.yul\":2113:2185   */\n      swap2\n      pop\n        /* \"#utility.yul\":1908:2195   */\n      pop\n        /* \"#utility.yul\":1405:2202   */\n      swap3\n      pop\n      swap3\n      pop\n      swap3\n      jump\t// out\n        /* \"#utility.yul\":2208:2537   */\n    tag_20:\n        /* \"#utility.yul\":2267:2273   */\n      0x00\n        /* \"#utility.yul\":2316:2318   */\n      0x20\n        /* \"#utility.yul\":2304:2313   */\n      dup3\n        /* \"#utility.yul\":2295:2302   */\n      dup5\n        /* \"#utility.yul\":2291:2314   */\n      sub\n        /* \"#utility.yul\":2287:2319   */\n      slt\n        /* \"#utility.yul\":2284:2403   */\n      iszero\n      tag_169\n      jumpi\n        /* \"#utility.yul\":2322:2401   */\n      tag_170\n      tag_157\n      jump\t// in\n    tag_170:\n        /* \"#utility.yul\":2284:2403   */\n    tag_169:\n        /* \"#utility.yul\":2442:2443   */\n      0x00\n        /* \"#utility.yul\":2467:2520   */\n      tag_171\n        /* \"#utility.yul\":2512:2519   */\n      dup5\n        /* \"#utility.yul\":2503:2509   */\n      dup3\n        /* \"#utility.yul\":2492:2501   */\n      dup6\n        /* \"#utility.yul\":2488:2510   */\n      add\n        /* \"#utility.yul\":2467:2520   */\n      tag_150\n      jump\t// in\n    tag_171:\n        /* \"#utility.yul\":2457:2520   */\n      swap2\n      pop\n        /* \"#utility.yul\":2413:2530   */\n      pop\n        /* \"#utility.yul\":2208:2537   */\n      swap3\n      swap2\n      pop\n      pop\n      jump\t// out\n        /* \"#utility.yul\":2543:3017   */\n    tag_40:\n        /* \"#utility.yul\":2611:2617   */\n      0x00\n        /* \"#utility.yul\":2619:2625   */\n      dup1\n        /* \"#utility.yul\":2668:2670   */\n      0x40\n        /* \"#utility.yul\":2656:2665   */\n      dup4\n        /* \"#utility.yul\":2647:2654   */\n      dup6\n        /* \"#utility.yul\":2643:2666   */\n      sub\n        /* \"#utility.yul\":2639:2671   */\n      slt\n        /* \"#utility.yul\":2636:2755   */\n      iszero\n      tag_173\n      jumpi\n        /* \"#utility.yul\":2674:2753   */\n      tag_174\n      tag_157\n      jump\t// in\n    tag_174:\n        /* \"#utility.yul\":2636:2755   */\n    tag_173:\n        /* \"#utility.yul\":2794:2795   */\n      0x00\n        /* \"#utility.yul\":2819:2872   */\n      tag_175\n        /* \"#utility.yul\":2864:2871   */\n      dup6\n        /* \"#utility.yul\":2855:2861   */\n      dup3\n        /* \"#utility.yul\":2844:2853   */\n      dup7\n        /* \"#utility.yul\":2840:2862   */\n      add\n        /* \"#utility.yul\":2819:2872   */\n      tag_150\n      jump\t// in\n    tag_175:\n        /* \"#utility.yul\":2809:2872   */\n      swap3\n      pop\n        /* \"#utility.yul\":2765:2882   */\n      pop\n        /* \"#utility.yul\":2921:2923   */\n      0x20\n        /* \"#utility.yul\":2947:3000   */\n      tag_176\n        /* \"#utility.yul\":2992:2999   */\n      dup6\n        /* \"#utility.yul\":2983:2989   */\n      dup3\n        /* \"#utility.yul\":2972:2981   */\n      dup7\n        /* \"#utility.yul\":2968:2990   */\n      add\n        /* \"#utility.yul\":2947:3000   */\n      tag_140\n      jump\t// in\n    tag_176:\n        /* \"#utility.yul\":2937:3000   */\n      swap2\n      pop\n        /* \"#utility.yul\":2892:3010   */\n      pop\n        /* \"#utility.yul\":2543:3017   */\n      swap3\n      pop\n      swap3\n      swap1\n      pop\n      jump\t// out\n        /* \"#utility.yul\":3023:3141   */\n    tag_177:\n        /* \"#utility.yul\":3110:3134   */\n      tag_179\n        /* \"#utility.yul\":3128:3133   */\n      dup2\n        /* \"#utility.yul\":3110:3134   */\n      tag_180\n      jump\t// in\n    tag_179:\n        /* \"#utility.yul\":3105:3108   */\n      dup3\n        /* \"#utility.yul\":3098:3135   */\n      mstore\n        /* \"#utility.yul\":3023:3141   */\n      pop\n      pop\n      jump\t// out\n        /* \"#utility.yul\":3147:3256   */\n    tag_181:\n        /* \"#utility.yul\":3228:3249   */\n      tag_183\n        /* \"#utility.yul\":3243:3248   */\n      dup2\n        /* \"#utility.yul\":3228:3249   */\n      tag_184\n      jump\t// in\n    tag_183:\n        /* \"#utility.yul\":3223:3226   */\n      dup3\n        /* \"#utility.yul\":3216:3250   */\n      mstore\n        /* \"#utility.yul\":3147:3256   */\n      pop\n      pop\n      jump\t// out\n        /* \"#utility.yul\":3262:3622   */\n    tag_185:\n        /* \"#utility.yul\":3348:3351   */\n      0x00\n        /* \"#utility.yul\":3376:3414   */\n      tag_187\n        /* \"#utility.yul\":3408:3413   */\n      dup3\n        /* \"#utility.yul\":3376:3414   */\n      tag_188\n      jump\t// in\n    tag_187:\n        /* \"#utility.yul\":3430:3500   */\n      tag_189\n        /* \"#utility.yul\":3493:3499   */\n      dup2\n        /* \"#utility.yul\":3488:3491   */\n      dup6\n        /* \"#utility.yul\":3430:3500   */\n      tag_190\n      jump\t// in\n    tag_189:\n        /* \"#utility.yul\":3423:3500   */\n      swap4\n      pop\n        /* \"#utility.yul\":3509:3561   */\n      tag_191\n        /* \"#utility.yul\":3554:3560   */\n      dup2\n        /* \"#utility.yul\":3549:3552   */\n      dup6\n        /* \"#utility.yul\":3542:3546   */\n      0x20\n        /* \"#utility.yul\":3535:3540   */\n      dup7\n        /* \"#utility.yul\":3531:3547   */\n      add\n        /* \"#utility.yul\":3509:3561   */\n      tag_192\n      jump\t// in\n    tag_191:\n        /* \"#utility.yul\":3586:3615   */\n      tag_193\n        /* \"#utility.yul\":3608:3614   */\n      dup2\n        /* \"#utility.yul\":3586:3615   */\n      tag_194\n      jump\t// in\n    tag_193:\n        /* \"#utility.yul\":3581:3584   */\n      dup5\n        /* \"#utility.yul\":3577:3616   */\n      add\n        /* \"#utility.yul\":3570:3616   */\n      swap2\n      pop\n        /* \"#utility.yul\":3352:3622   */\n      pop\n        /* \"#utility.yul\":3262:3622   */\n      swap3\n      swap2\n      pop\n      pop\n      jump\t// out\n        /* \"#utility.yul\":3650:4491   */\n    tag_195:\n        /* \"#utility.yul\":3751:3754   */\n      0x00\n        /* \"#utility.yul\":3788:3793   */\n      dup2\n        /* \"#utility.yul\":3782:3794   */\n      sload\n        /* \"#utility.yul\":3817:3853   */\n      tag_197\n        /* \"#utility.yul\":3843:3852   */\n      dup2\n        /* \"#utility.yul\":3817:3853   */\n      tag_105\n      jump\t// in\n    tag_197:\n        /* \"#utility.yul\":3869:3957   */\n      tag_198\n        /* \"#utility.yul\":3950:3956   */\n      dup2\n        /* \"#utility.yul\":3945:3948   */\n      dup7\n        /* \"#utility.yul\":3869:3957   */\n      tag_199\n      jump\t// in\n    tag_198:\n        /* \"#utility.yul\":3862:3957   */\n      swap5\n      pop\n        /* \"#utility.yul\":3988:3989   */\n      0x01\n        /* \"#utility.yul\":3977:3986   */\n      dup3\n        /* \"#utility.yul\":3973:3990   */\n      and\n        /* \"#utility.yul\":4004:4005   */\n      0x00\n        /* \"#utility.yul\":3999:4136   */\n      dup2\n      eq\n      tag_201\n      jumpi\n        /* \"#utility.yul\":4150:4151   */\n      0x01\n        /* \"#utility.yul\":4145:4485   */\n      dup2\n      eq\n      tag_202\n      jumpi\n        /* \"#utility.yul\":3966:4485   */\n      jump(tag_200)\n        /* \"#utility.yul\":3999:4136   */\n    tag_201:\n        /* \"#utility.yul\":4083:4087   */\n      0xff\n        /* \"#utility.yul\":4079:4088   */\n      not\n        /* \"#utility.yul\":4068:4077   */\n      dup4\n        /* \"#utility.yul\":4064:4089   */\n      and\n        /* \"#utility.yul\":4059:4062   */\n      dup7\n        /* \"#utility.yul\":4052:4090   */\n      mstore\n        /* \"#utility.yul\":4119:4125   */\n      dup2\n        /* \"#utility.yul\":4114:4117   */\n      dup7\n        /* \"#utility.yul\":4110:4126   */\n      add\n        /* \"#utility.yul\":4103:4126   */\n      swap4\n      pop\n        /* \"#utility.yul\":3999:4136   */\n      jump(tag_200)\n        /* \"#utility.yul\":4145:4485   */\n    tag_202:\n        /* \"#utility.yul\":4212:4249   */\n      tag_203\n        /* \"#utility.yul\":4243:4248   */\n      dup6\n        /* \"#utility.yul\":4212:4249   */\n      tag_204\n      jump\t// in\n    tag_203:\n        /* \"#utility.yul\":4271:4272   */\n      0x00\n        /* \"#utility.yul\":4285:4439   */\n    tag_205:\n        /* \"#utility.yul\":4299:4305   */\n      dup4\n        /* \"#utility.yul\":4296:4297   */\n      dup2\n        /* \"#utility.yul\":4293:4306   */\n      lt\n        /* \"#utility.yul\":4285:4439   */\n      iszero\n      tag_207\n      jumpi\n        /* \"#utility.yul\":4373:4380   */\n      dup2\n        /* \"#utility.yul\":4367:4381   */\n      sload\n        /* \"#utility.yul\":4363:4364   */\n      dup2\n        /* \"#utility.yul\":4358:4361   */\n      dup10\n        /* \"#utility.yul\":4354:4365   */\n      add\n        /* \"#utility.yul\":4347:4382   */\n      mstore\n        /* \"#utility.yul\":4423:4424   */\n      0x01\n        /* \"#utility.yul\":4414:4421   */\n      dup3\n        /* \"#utility.yul\":4410:4425   */\n      add\n        /* \"#utility.yul\":4399:4425   */\n      swap2\n      pop\n        /* \"#utility.yul\":4321:4325   */\n      0x20\n        /* \"#utility.yul\":4318:4319   */\n      dup2\n        /* \"#utility.yul\":4314:4326   */\n      add\n        /* \"#utility.yul\":4309:4326   */\n      swap1\n      pop\n        /* \"#utility.yul\":4285:4439   */\n      jump(tag_205)\n    tag_207:\n        /* \"#utility.yul\":4468:4474   */\n      dup4\n        /* \"#utility.yul\":4463:4466   */\n      dup9\n        /* \"#utility.yul\":4459:4475   */\n      add\n        /* \"#utility.yul\":4452:4475   */\n      swap6\n      pop\n        /* \"#utility.yul\":4152:4485   */\n      pop\n      pop\n        /* \"#utility.yul\":3966:4485   */\n    tag_200:\n      pop\n        /* \"#utility.yul\":3755:4491   */\n      pop\n      pop\n        /* \"#utility.yul\":3650:4491   */\n      swap3\n      swap2\n      pop\n      pop\n      jump\t// out\n        /* \"#utility.yul\":4497:4615   */\n    tag_208:\n        /* \"#utility.yul\":4584:4608   */\n      tag_210\n        /* \"#utility.yul\":4602:4607   */\n      dup2\n        /* \"#utility.yul\":4584:4608   */\n      tag_211\n      jump\t// in\n    tag_210:\n        /* \"#utility.yul\":4579:4582   */\n      dup3\n        /* \"#utility.yul\":4572:4609   */\n      mstore\n        /* \"#utility.yul\":4497:4615   */\n      pop\n      pop\n      jump\t// out\n        /* \"#utility.yul\":4621:4886   */\n    tag_85:\n        /* \"#utility.yul\":4748:4751   */\n      0x00\n        /* \"#utility.yul\":4770:4860   */\n      tag_213\n        /* \"#utility.yul\":4856:4859   */\n      dup3\n        /* \"#utility.yul\":4847:4853   */\n      dup5\n        /* \"#utility.yul\":4770:4860   */\n      tag_195\n      jump\t// in\n    tag_213:\n        /* \"#utility.yul\":4763:4860   */\n      swap2\n      pop\n        /* \"#utility.yul\":4877:4880   */\n      dup2\n        /* \"#utility.yul\":4870:4880   */\n      swap1\n      pop\n        /* \"#utility.yul\":4621:4886   */\n      swap3\n      swap2\n      pop\n      pop\n      jump\t// out\n        /* \"#utility.yul\":4892:5224   */\n    tag_75:\n        /* \"#utility.yul\":5013:5017   */\n      0x00\n        /* \"#utility.yul\":5051:5053   */\n      0x40\n        /* \"#utility.yul\":5040:5049   */\n      dup3\n        /* \"#utility.yul\":5036:5054   */\n      add\n        /* \"#utility.yul\":5028:5054   */\n      swap1\n      pop\n        /* \"#utility.yul\":5064:5135   */\n      tag_215\n        /* \"#utility.yul\":5132:5133   */\n      0x00\n        /* \"#utility.yul\":5121:5130   */\n      dup4\n        /* \"#utility.yul\":5117:5134   */\n      add\n        /* \"#utility.yul\":5108:5114   */\n      dup6\n        /* \"#utility.yul\":5064:5135   */\n      tag_177\n      jump\t// in\n    tag_215:\n        /* \"#utility.yul\":5145:5217   */\n      tag_216\n        /* \"#utility.yul\":5213:5215   */\n      0x20\n        /* \"#utility.yul\":5202:5211   */\n      dup4\n        /* \"#utility.yul\":5198:5216   */\n      add\n        /* \"#utility.yul\":5189:5195   */\n      dup5\n        /* \"#utility.yul\":5145:5217   */\n      tag_208\n      jump\t// in\n    tag_216:\n        /* \"#utility.yul\":4892:5224   */\n      swap4\n      swap3\n      pop\n      pop\n      pop\n      jump\t// out\n        /* \"#utility.yul\":5230:5759   */\n    tag_117:\n        /* \"#utility.yul\":5397:5401   */\n      0x00\n        /* \"#utility.yul\":5435:5437   */\n      0x60\n        /* \"#utility.yul\":5424:5433   */\n      dup3\n        /* \"#utility.yul\":5420:5438   */\n      add\n        /* \"#utility.yul\":5412:5438   */\n      swap1\n      pop\n        /* \"#utility.yul\":5448:5519   */\n      tag_218\n        /* \"#utility.yul\":5516:5517   */\n      0x00\n        /* \"#utility.yul\":5505:5514   */\n      dup4\n        /* \"#utility.yul\":5501:5518   */\n      add\n        /* \"#utility.yul\":5492:5498   */\n      dup7\n        /* \"#utility.yul\":5448:5519   */\n      tag_177\n      jump\t// in\n    tag_218:\n        /* \"#utility.yul\":5529:5601   */\n      tag_219\n        /* \"#utility.yul\":5597:5599   */\n      0x20\n        /* \"#utility.yul\":5586:5595   */\n      dup4\n        /* \"#utility.yul\":5582:5600   */\n      add\n        /* \"#utility.yul\":5573:5579   */\n      dup6\n        /* \"#utility.yul\":5529:5601   */\n      tag_208\n      jump\t// in\n    tag_219:\n        /* \"#utility.yul\":5648:5657   */\n      dup2\n        /* \"#utility.yul\":5642:5646   */\n      dup2\n        /* \"#utility.yul\":5638:5658   */\n      sub\n        /* \"#utility.yul\":5633:5635   */\n      0x40\n        /* \"#utility.yul\":5622:5631   */\n      dup4\n        /* \"#utility.yul\":5618:5636   */\n      add\n        /* \"#utility.yul\":5611:5659   */\n      mstore\n        /* \"#utility.yul\":5676:5752   */\n      tag_220\n        /* \"#utility.yul\":5747:5751   */\n      dup2\n        /* \"#utility.yul\":5738:5744   */\n      dup5\n        /* \"#utility.yul\":5676:5752   */\n      tag_185\n      jump\t// in\n    tag_220:\n        /* \"#utility.yul\":5668:5752   */\n      swap1\n      pop\n        /* \"#utility.yul\":5230:5759   */\n      swap5\n      swap4\n      pop\n      pop\n      pop\n      pop\n      jump\t// out\n        /* \"#utility.yul\":5765:6207   */\n    tag_16:\n        /* \"#utility.yul\":5914:5918   */\n      0x00\n        /* \"#utility.yul\":5952:5954   */\n      0x60\n        /* \"#utility.yul\":5941:5950   */\n      dup3\n        /* \"#utility.yul\":5937:5955   */\n      add\n        /* \"#utility.yul\":5929:5955   */\n      swap1\n      pop\n        /* \"#utility.yul\":5965:6036   */\n      tag_222\n        /* \"#utility.yul\":6033:6034   */\n      0x00\n        /* \"#utility.yul\":6022:6031   */\n      dup4\n        /* \"#utility.yul\":6018:6035   */\n      add\n        /* \"#utility.yul\":6009:6015   */\n      dup7\n        /* \"#utility.yul\":5965:6036   */\n      tag_177\n      jump\t// in\n    tag_222:\n        /* \"#utility.yul\":6046:6118   */\n      tag_223\n        /* \"#utility.yul\":6114:6116   */\n      0x20\n        /* \"#utility.yul\":6103:6112   */\n      dup4\n        /* \"#utility.yul\":6099:6117   */\n      add\n        /* \"#utility.yul\":6090:6096   */\n      dup6\n        /* \"#utility.yul\":6046:6118   */\n      tag_208\n      jump\t// in\n    tag_223:\n        /* \"#utility.yul\":6128:6200   */\n      tag_224\n        /* \"#utility.yul\":6196:6198   */\n      0x40\n        /* \"#utility.yul\":6185:6194   */\n      dup4\n        /* \"#utility.yul\":6181:6199   */\n      add\n        /* \"#utility.yul\":6172:6178   */\n      dup5\n        /* \"#utility.yul\":6128:6200   */\n      tag_208\n      jump\t// in\n    tag_224:\n        /* \"#utility.yul\":5765:6207   */\n      swap5\n      swap4\n      pop\n      pop\n      pop\n      pop\n      jump\t// out\n        /* \"#utility.yul\":6213:6766   */\n    tag_91:\n        /* \"#utility.yul\":6390:6394   */\n      0x00\n        /* \"#utility.yul\":6428:6431   */\n      0x80\n        /* \"#utility.yul\":6417:6426   */\n      dup3\n        /* \"#utility.yul\":6413:6432   */\n      add\n        /* \"#utility.yul\":6405:6432   */\n      swap1\n      pop\n        /* \"#utility.yul\":6442:6513   */\n      tag_226\n        /* \"#utility.yul\":6510:6511   */\n      0x00\n        /* \"#utility.yul\":6499:6508   */\n      dup4\n        /* \"#utility.yul\":6495:6512   */\n      add\n        /* \"#utility.yul\":6486:6492   */\n      dup8\n        /* \"#utility.yul\":6442:6513   */\n      tag_177\n      jump\t// in\n    tag_226:\n        /* \"#utility.yul\":6523:6595   */\n      tag_227\n        /* \"#utility.yul\":6591:6593   */\n      0x20\n        /* \"#utility.yul\":6580:6589   */\n      dup4\n        /* \"#utility.yul\":6576:6594   */\n      add\n        /* \"#utility.yul\":6567:6573   */\n      dup7\n        /* \"#utility.yul\":6523:6595   */\n      tag_208\n      jump\t// in\n    tag_227:\n        /* \"#utility.yul\":6605:6677   */\n      tag_228\n        /* \"#utility.yul\":6673:6675   */\n      0x40\n        /* \"#utility.yul\":6662:6671   */\n      dup4\n        /* \"#utility.yul\":6658:6676   */\n      add\n        /* \"#utility.yul\":6649:6655   */\n      dup6\n        /* \"#utility.yul\":6605:6677   */\n      tag_208\n      jump\t// in\n    tag_228:\n        /* \"#utility.yul\":6687:6759   */\n      tag_229\n        /* \"#utility.yul\":6755:6757   */\n      0x60\n        /* \"#utility.yul\":6744:6753   */\n      dup4\n        /* \"#utility.yul\":6740:6758   */\n      add\n        /* \"#utility.yul\":6731:6737   */\n      dup5\n        /* \"#utility.yul\":6687:6759   */\n      tag_177\n      jump\t// in\n    tag_229:\n        /* \"#utility.yul\":6213:6766   */\n      swap6\n      swap5\n      pop\n      pop\n      pop\n      pop\n      pop\n      jump\t// out\n        /* \"#utility.yul\":6772:6982   */\n    tag_28:\n        /* \"#utility.yul\":6859:6863   */\n      0x00\n        /* \"#utility.yul\":6897:6899   */\n      0x20\n        /* \"#utility.yul\":6886:6895   */\n      dup3\n        /* \"#utility.yul\":6882:6900   */\n      add\n        /* \"#utility.yul\":6874:6900   */\n      swap1\n      pop\n        /* \"#utility.yul\":6910:6975   */\n      tag_231\n        /* \"#utility.yul\":6972:6973   */\n      0x00\n        /* \"#utility.yul\":6961:6970   */\n      dup4\n        /* \"#utility.yul\":6957:6974   */\n      add\n        /* \"#utility.yul\":6948:6954   */\n      dup5\n        /* \"#utility.yul\":6910:6975   */\n      tag_181\n      jump\t// in\n    tag_231:\n        /* \"#utility.yul\":6772:6982   */\n      swap3\n      swap2\n      pop\n      pop\n      jump\t// out\n        /* \"#utility.yul\":6988:7210   */\n    tag_58:\n        /* \"#utility.yul\":7081:7085   */\n      0x00\n        /* \"#utility.yul\":7119:7121   */\n      0x20\n        /* \"#utility.yul\":7108:7117   */\n      dup3\n        /* \"#utility.yul\":7104:7122   */\n      add\n        /* \"#utility.yul\":7096:7122   */\n      swap1\n      pop\n        /* \"#utility.yul\":7132:7203   */\n      tag_233\n        /* \"#utility.yul\":7200:7201   */\n      0x00\n        /* \"#utility.yul\":7189:7198   */\n      dup4\n        /* \"#utility.yul\":7185:7202   */\n      add\n        /* \"#utility.yul\":7176:7182   */\n      dup5\n        /* \"#utility.yul\":7132:7203   */\n      tag_208\n      jump\t// in\n    tag_233:\n        /* \"#utility.yul\":6988:7210   */\n      swap3\n      swap2\n      pop\n      pop\n      jump\t// out\n        /* \"#utility.yul\":7216:8066   */\n    tag_48:\n        /* \"#utility.yul\":7461:7465   */\n      0x00\n        /* \"#utility.yul\":7499:7502   */\n      0xc0\n        /* \"#utility.yul\":7488:7497   */\n      dup3\n        /* \"#utility.yul\":7484:7503   */\n      add\n        /* \"#utility.yul\":7476:7503   */\n      swap1\n      pop\n        /* \"#utility.yul\":7513:7584   */\n      tag_235\n        /* \"#utility.yul\":7581:7582   */\n      0x00\n        /* \"#utility.yul\":7570:7579   */\n      dup4\n        /* \"#utility.yul\":7566:7583   */\n      add\n        /* \"#utility.yul\":7557:7563   */\n      dup10\n        /* \"#utility.yul\":7513:7584   */\n      tag_208\n      jump\t// in\n    tag_235:\n        /* \"#utility.yul\":7594:7666   */\n      tag_236\n        /* \"#utility.yul\":7662:7664   */\n      0x20\n        /* \"#utility.yul\":7651:7660   */\n      dup4\n        /* \"#utility.yul\":7647:7665   */\n      add\n        /* \"#utility.yul\":7638:7644   */\n      dup9\n        /* \"#utility.yul\":7594:7666   */\n      tag_177\n      jump\t// in\n    tag_236:\n        /* \"#utility.yul\":7676:7748   */\n      tag_237\n        /* \"#utility.yul\":7744:7746   */\n      0x40\n        /* \"#utility.yul\":7733:7742   */\n      dup4\n        /* \"#utility.yul\":7729:7747   */\n      add\n        /* \"#utility.yul\":7720:7726   */\n      dup8\n        /* \"#utility.yul\":7676:7748   */\n      tag_208\n      jump\t// in\n    tag_237:\n        /* \"#utility.yul\":7795:7804   */\n      dup2\n        /* \"#utility.yul\":7789:7793   */\n      dup2\n        /* \"#utility.yul\":7785:7805   */\n      sub\n        /* \"#utility.yul\":7780:7782   */\n      0x60\n        /* \"#utility.yul\":7769:7778   */\n      dup4\n        /* \"#utility.yul\":7765:7783   */\n      add\n        /* \"#utility.yul\":7758:7806   */\n      mstore\n        /* \"#utility.yul\":7823:7899   */\n      tag_238\n        /* \"#utility.yul\":7894:7898   */\n      dup2\n        /* \"#utility.yul\":7885:7891   */\n      dup7\n        /* \"#utility.yul\":7823:7899   */\n      tag_185\n      jump\t// in\n    tag_238:\n        /* \"#utility.yul\":7815:7899   */\n      swap1\n      pop\n        /* \"#utility.yul\":7909:7982   */\n      tag_239\n        /* \"#utility.yul\":7977:7980   */\n      0x80\n        /* \"#utility.yul\":7966:7975   */\n      dup4\n        /* \"#utility.yul\":7962:7981   */\n      add\n        /* \"#utility.yul\":7953:7959   */\n      dup6\n        /* \"#utility.yul\":7909:7982   */\n      tag_208\n      jump\t// in\n    tag_239:\n        /* \"#utility.yul\":7992:8059   */\n      tag_240\n        /* \"#utility.yul\":8054:8057   */\n      0xa0\n        /* \"#utility.yul\":8043:8052   */\n      dup4\n        /* \"#utility.yul\":8039:8058   */\n      add\n        /* \"#utility.yul\":8030:8036   */\n      dup5\n        /* \"#utility.yul\":7992:8059   */\n      tag_181\n      jump\t// in\n    tag_240:\n        /* \"#utility.yul\":7216:8066   */\n      swap8\n      swap7\n      pop\n      pop\n      pop\n      pop\n      pop\n      pop\n      pop\n      jump\t// out\n        /* \"#utility.yul\":8072:8201   */\n    tag_134:\n        /* \"#utility.yul\":8106:8112   */\n      0x00\n        /* \"#utility.yul\":8133:8153   */\n      tag_242\n      tag_243\n      jump\t// in\n    tag_242:\n        /* \"#utility.yul\":8123:8153   */\n      swap1\n      pop\n        /* \"#utility.yul\":8162:8195   */\n      tag_244\n        /* \"#utility.yul\":8190:8194   */\n      dup3\n        /* \"#utility.yul\":8182:8188   */\n      dup3\n        /* \"#utility.yul\":8162:8195   */\n      tag_245\n      jump\t// in\n    tag_244:\n        /* \"#utility.yul\":8072:8201   */\n      swap2\n      swap1\n      pop\n      jump\t// out\n        /* \"#utility.yul\":8207:8282   */\n    tag_243:\n        /* \"#utility.yul\":8240:8246   */\n      0x00\n        /* \"#utility.yul\":8273:8275   */\n      0x40\n        /* \"#utility.yul\":8267:8276   */\n      mload\n        /* \"#utility.yul\":8257:8276   */\n      swap1\n      pop\n        /* \"#utility.yul\":8207:8282   */\n      swap1\n      jump\t// out\n        /* \"#utility.yul\":8288:8595   */\n    tag_133:\n        /* \"#utility.yul\":8349:8353   */\n      0x00\n        /* \"#utility.yul\":8439:8457   */\n      0xffffffffffffffff\n        /* \"#utility.yul\":8431:8437   */\n      dup3\n        /* \"#utility.yul\":8428:8458   */\n      gt\n        /* \"#utility.yul\":8425:8481   */\n      iszero\n      tag_248\n      jumpi\n        /* \"#utility.yul\":8461:8479   */\n      tag_249\n      tag_250\n      jump\t// in\n    tag_249:\n        /* \"#utility.yul\":8425:8481   */\n    tag_248:\n        /* \"#utility.yul\":8499:8528   */\n      tag_251\n        /* \"#utility.yul\":8521:8527   */\n      dup3\n        /* \"#utility.yul\":8499:8528   */\n      tag_194\n      jump\t// in\n    tag_251:\n        /* \"#utility.yul\":8491:8528   */\n      swap1\n      pop\n        /* \"#utility.yul\":8583:8587   */\n      0x20\n        /* \"#utility.yul\":8577:8581   */\n      dup2\n        /* \"#utility.yul\":8573:8588   */\n      add\n        /* \"#utility.yul\":8565:8588   */\n      swap1\n      pop\n        /* \"#utility.yul\":8288:8595   */\n      swap2\n      swap1\n      pop\n      jump\t// out\n        /* \"#utility.yul\":8601:8741   */\n    tag_204:\n        /* \"#utility.yul\":8649:8653   */\n      0x00\n        /* \"#utility.yul\":8672:8675   */\n      dup2\n        /* \"#utility.yul\":8664:8675   */\n      swap1\n      pop\n        /* \"#utility.yul\":8695:8698   */\n      dup2\n        /* \"#utility.yul\":8692:8693   */\n      0x00\n        /* \"#utility.yul\":8685:8699   */\n      mstore\n        /* \"#utility.yul\":8729:8733   */\n      0x20\n        /* \"#utility.yul\":8726:8727   */\n      0x00\n        /* \"#utility.yul\":8716:8734   */\n      keccak256\n        /* \"#utility.yul\":8708:8734   */\n      swap1\n      pop\n        /* \"#utility.yul\":8601:8741   */\n      swap2\n      swap1\n      pop\n      jump\t// out\n        /* \"#utility.yul\":8747:8845   */\n    tag_188:\n        /* \"#utility.yul\":8798:8804   */\n      0x00\n        /* \"#utility.yul\":8832:8837   */\n      dup2\n        /* \"#utility.yul\":8826:8838   */\n      mload\n        /* \"#utility.yul\":8816:8838   */\n      swap1\n      pop\n        /* \"#utility.yul\":8747:8845   */\n      swap2\n      swap1\n      pop\n      jump\t// out\n        /* \"#utility.yul\":8851:9019   */\n    tag_190:\n        /* \"#utility.yul\":8934:8945   */\n      0x00\n        /* \"#utility.yul\":8968:8974   */\n      dup3\n        /* \"#utility.yul\":8963:8966   */\n      dup3\n        /* \"#utility.yul\":8956:8975   */\n      mstore\n        /* \"#utility.yul\":9008:9012   */\n      0x20\n        /* \"#utility.yul\":9003:9006   */\n      dup3\n        /* \"#utility.yul\":8999:9013   */\n      add\n        /* \"#utility.yul\":8984:9013   */\n      swap1\n      pop\n        /* \"#utility.yul\":8851:9019   */\n      swap3\n      swap2\n      pop\n      pop\n      jump\t// out\n        /* \"#utility.yul\":9025:9172   */\n    tag_199:\n        /* \"#utility.yul\":9126:9137   */\n      0x00\n        /* \"#utility.yul\":9163:9166   */\n      dup2\n        /* \"#utility.yul\":9148:9166   */\n      swap1\n      pop\n        /* \"#utility.yul\":9025:9172   */\n      swap3\n      swap2\n      pop\n      pop\n      jump\t// out\n        /* \"#utility.yul\":9178:9274   */\n    tag_180:\n        /* \"#utility.yul\":9215:9222   */\n      0x00\n        /* \"#utility.yul\":9244:9268   */\n      tag_257\n        /* \"#utility.yul\":9262:9267   */\n      dup3\n        /* \"#utility.yul\":9244:9268   */\n      tag_258\n      jump\t// in\n    tag_257:\n        /* \"#utility.yul\":9233:9268   */\n      swap1\n      pop\n        /* \"#utility.yul\":9178:9274   */\n      swap2\n      swap1\n      pop\n      jump\t// out\n        /* \"#utility.yul\":9280:9370   */\n    tag_184:\n        /* \"#utility.yul\":9314:9321   */\n      0x00\n        /* \"#utility.yul\":9357:9362   */\n      dup2\n        /* \"#utility.yul\":9350:9363   */\n      iszero\n        /* \"#utility.yul\":9343:9364   */\n      iszero\n        /* \"#utility.yul\":9332:9364   */\n      swap1\n      pop\n        /* \"#utility.yul\":9280:9370   */\n      swap2\n      swap1\n      pop\n      jump\t// out\n        /* \"#utility.yul\":9376:9502   */\n    tag_258:\n        /* \"#utility.yul\":9413:9420   */\n      0x00\n        /* \"#utility.yul\":9453:9495   */\n      0xffffffffffffffffffffffffffffffffffffffff\n        /* \"#utility.yul\":9446:9451   */\n      dup3\n        /* \"#utility.yul\":9442:9496   */\n      and\n        /* \"#utility.yul\":9431:9496   */\n      swap1\n      pop\n        /* \"#utility.yul\":9376:9502   */\n      swap2\n      swap1\n      pop\n      jump\t// out\n        /* \"#utility.yul\":9508:9585   */\n    tag_211:\n        /* \"#utility.yul\":9545:9552   */\n      0x00\n        /* \"#utility.yul\":9574:9579   */\n      dup2\n        /* \"#utility.yul\":9563:9579   */\n      swap1\n      pop\n        /* \"#utility.yul\":9508:9585   */\n      swap2\n      swap1\n      pop\n      jump\t// out\n        /* \"#utility.yul\":9591:9745   */\n    tag_139:\n        /* \"#utility.yul\":9675:9681   */\n      dup3\n        /* \"#utility.yul\":9670:9673   */\n      dup2\n        /* \"#utility.yul\":9665:9668   */\n      dup4\n        /* \"#utility.yul\":9652:9682   */\n      calldatacopy\n        /* \"#utility.yul\":9737:9738   */\n      0x00\n        /* \"#utility.yul\":9728:9734   */\n      dup4\n        /* \"#utility.yul\":9723:9726   */\n      dup4\n        /* \"#utility.yul\":9719:9735   */\n      add\n        /* \"#utility.yul\":9712:9739   */\n      mstore\n        /* \"#utility.yul\":9591:9745   */\n      pop\n      pop\n      pop\n      jump\t// out\n        /* \"#utility.yul\":9751:10058   */\n    tag_192:\n        /* \"#utility.yul\":9819:9820   */\n      0x00\n        /* \"#utility.yul\":9829:9942   */\n    tag_264:\n        /* \"#utility.yul\":9843:9849   */\n      dup4\n        /* \"#utility.yul\":9840:9841   */\n      dup2\n        /* \"#utility.yul\":9837:9850   */\n      lt\n        /* \"#utility.yul\":9829:9942   */\n      iszero\n      tag_266\n      jumpi\n        /* \"#utility.yul\":9928:9929   */\n      dup1\n        /* \"#utility.yul\":9923:9926   */\n      dup3\n        /* \"#utility.yul\":9919:9930   */\n      add\n        /* \"#utility.yul\":9913:9931   */\n      mload\n        /* \"#utility.yul\":9909:9910   */\n      dup2\n        /* \"#utility.yul\":9904:9907   */\n      dup5\n        /* \"#utility.yul\":9900:9911   */\n      add\n        /* \"#utility.yul\":9893:9932   */\n      mstore\n        /* \"#utility.yul\":9865:9867   */\n      0x20\n        /* \"#utility.yul\":9862:9863   */\n      dup2\n        /* \"#utility.yul\":9858:9868   */\n      add\n        /* \"#utility.yul\":9853:9868   */\n      swap1\n      pop\n        /* \"#utility.yul\":9829:9942   */\n      jump(tag_264)\n    tag_266:\n        /* \"#utility.yul\":9960:9966   */\n      dup4\n        /* \"#utility.yul\":9957:9958   */\n      dup2\n        /* \"#utility.yul\":9954:9967   */\n      gt\n        /* \"#utility.yul\":9951:10052   */\n      iszero\n      tag_267\n      jumpi\n        /* \"#utility.yul\":10040:10041   */\n      0x00\n        /* \"#utility.yul\":10031:10037   */\n      dup5\n        /* \"#utility.yul\":10026:10029   */\n      dup5\n        /* \"#utility.yul\":10022:10038   */\n      add\n        /* \"#utility.yul\":10015:10042   */\n      mstore\n        /* \"#utility.yul\":9951:10052   */\n    tag_267:\n        /* \"#utility.yul\":9800:10058   */\n      pop\n        /* \"#utility.yul\":9751:10058   */\n      pop\n      pop\n      pop\n      jump\t// out\n        /* \"#utility.yul\":10064:10235   */\n    tag_101:\n        /* \"#utility.yul\":10103:10106   */\n      0x00\n        /* \"#utility.yul\":10126:10150   */\n      tag_269\n        /* \"#utility.yul\":10144:10149   */\n      dup3\n        /* \"#utility.yul\":10126:10150   */\n      tag_211\n      jump\t// in\n    tag_269:\n        /* \"#utility.yul\":10117:10150   */\n      swap2\n      pop\n        /* \"#utility.yul\":10172:10176   */\n      0x00\n        /* \"#utility.yul\":10165:10170   */\n      dup3\n        /* \"#utility.yul\":10162:10177   */\n      eq\n        /* \"#utility.yul\":10159:10200   */\n      iszero\n      tag_270\n      jumpi\n        /* \"#utility.yul\":10180:10198   */\n      tag_271\n      tag_272\n      jump\t// in\n    tag_271:\n        /* \"#utility.yul\":10159:10200   */\n    tag_270:\n        /* \"#utility.yul\":10227:10228   */\n      0x01\n        /* \"#utility.yul\":10220:10225   */\n      dup3\n        /* \"#utility.yul\":10216:10229   */\n      sub\n        /* \"#utility.yul\":10209:10229   */\n      swap1\n      pop\n        /* \"#utility.yul\":10064:10235   */\n      swap2\n      swap1\n      pop\n      jump\t// out\n        /* \"#utility.yul\":10241:10561   */\n    tag_105:\n        /* \"#utility.yul\":10285:10291   */\n      0x00\n        /* \"#utility.yul\":10322:10323   */\n      0x02\n        /* \"#utility.yul\":10316:10320   */\n      dup3\n        /* \"#utility.yul\":10312:10324   */\n      div\n        /* \"#utility.yul\":10302:10324   */\n      swap1\n      pop\n        /* \"#utility.yul\":10369:10370   */\n      0x01\n        /* \"#utility.yul\":10363:10367   */\n      dup3\n        /* \"#utility.yul\":10359:10371   */\n      and\n        /* \"#utility.yul\":10390:10408   */\n      dup1\n        /* \"#utility.yul\":10380:10461   */\n      tag_274\n      jumpi\n        /* \"#utility.yul\":10446:10450   */\n      0x7f\n        /* \"#utility.yul\":10438:10444   */\n      dup3\n        /* \"#utility.yul\":10434:10451   */\n      and\n        /* \"#utility.yul\":10424:10451   */\n      swap2\n      pop\n        /* \"#utility.yul\":10380:10461   */\n    tag_274:\n        /* \"#utility.yul\":10508:10510   */\n      0x20\n        /* \"#utility.yul\":10500:10506   */\n      dup3\n        /* \"#utility.yul\":10497:10511   */\n      lt\n        /* \"#utility.yul\":10477:10495   */\n      dup2\n        /* \"#utility.yul\":10474:10512   */\n      eq\n        /* \"#utility.yul\":10471:10555   */\n      iszero\n      tag_275\n      jumpi\n        /* \"#utility.yul\":10527:10545   */\n      tag_276\n      tag_277\n      jump\t// in\n    tag_276:\n        /* \"#utility.yul\":10471:10555   */\n    tag_275:\n        /* \"#utility.yul\":10292:10561   */\n      pop\n        /* \"#utility.yul\":10241:10561   */\n      swap2\n      swap1\n      pop\n      jump\t// out\n        /* \"#utility.yul\":10567:10848   */\n    tag_245:\n        /* \"#utility.yul\":10650:10677   */\n      tag_279\n        /* \"#utility.yul\":10672:10676   */\n      dup3\n        /* \"#utility.yul\":10650:10677   */\n      tag_194\n      jump\t// in\n    tag_279:\n        /* \"#utility.yul\":10642:10648   */\n      dup2\n        /* \"#utility.yul\":10638:10678   */\n      add\n        /* \"#utility.yul\":10780:10786   */\n      dup2\n        /* \"#utility.yul\":10768:10778   */\n      dup2\n        /* \"#utility.yul\":10765:10787   */\n      lt\n        /* \"#utility.yul\":10744:10762   */\n      0xffffffffffffffff\n        /* \"#utility.yul\":10732:10742   */\n      dup3\n        /* \"#utility.yul\":10729:10763   */\n      gt\n        /* \"#utility.yul\":10726:10788   */\n      or\n        /* \"#utility.yul\":10723:10811   */\n      iszero\n      tag_280\n      jumpi\n        /* \"#utility.yul\":10791:10809   */\n      tag_281\n      tag_250\n      jump\t// in\n    tag_281:\n        /* \"#utility.yul\":10723:10811   */\n    tag_280:\n        /* \"#utility.yul\":10831:10841   */\n      dup1\n        /* \"#utility.yul\":10827:10829   */\n      0x40\n        /* \"#utility.yul\":10820:10842   */\n      mstore\n        /* \"#utility.yul\":10610:10848   */\n      pop\n        /* \"#utility.yul\":10567:10848   */\n      pop\n      pop\n      jump\t// out\n        /* \"#utility.yul\":10854:11087   */\n    tag_73:\n        /* \"#utility.yul\":10893:10896   */\n      0x00\n        /* \"#utility.yul\":10916:10940   */\n      tag_283\n        /* \"#utility.yul\":10934:10939   */\n      dup3\n        /* \"#utility.yul\":10916:10940   */\n      tag_211\n      jump\t// in\n    tag_283:\n        /* \"#utility.yul\":10907:10940   */\n      swap2\n      pop\n        /* \"#utility.yul\":10962:11028   */\n      0xffffffffffffffffffffffffffffffffffffffffffffffffffffffffffffffff\n        /* \"#utility.yul\":10955:10960   */\n      dup3\n        /* \"#utility.yul\":10952:11029   */\n      eq\n        /* \"#utility.yul\":10949:11052   */\n      iszero\n      tag_284\n      jumpi\n        /* \"#utility.yul\":11032:11050   */\n      tag_285\n      tag_272\n      jump\t// in\n    tag_285:\n        /* \"#utility.yul\":10949:11052   */\n    tag_284:\n        /* \"#utility.yul\":11079:11080   */\n      0x01\n        /* \"#utility.yul\":11072:11077   */\n      dup3\n        /* \"#utility.yul\":11068:11081   */\n      add\n        /* \"#utility.yul\":11061:11081   */\n      swap1\n      pop\n        /* \"#utility.yul\":10854:11087   */\n      swap2\n      swap1\n      pop\n      jump\t// out\n        /* \"#utility.yul\":11093:11273   */\n    tag_272:\n        /* \"#utility.yul\":11141:11218   */\n      0x4e487b7100000000000000000000000000000000000000000000000000000000\n        /* \"#utility.yul\":11138:11139   */\n      0x00\n        /* \"#utility.yul\":11131:11219   */\n      mstore\n        /* \"#utility.yul\":11238:11242   */\n      0x11\n        /* \"#utility.yul\":11235:11236   */\n      0x04\n        /* \"#utility.yul\":11228:11243   */\n      mstore\n        /* \"#utility.yul\":11262:11266   */\n      0x24\n        /* \"#utility.yul\":11259:11260   */\n      0x00\n        /* \"#utility.yul\":11252:11267   */\n      revert\n        /* \"#utility.yul\":11279:11459   */\n    tag_277:\n        /* \"#utility.yul\":11327:11404   */\n      0x4e487b7100000000000000000000000000000000000000000000000000000000\n        /* \"#utility.yul\":11324:11325   */\n      0x00\n        /* \"#utility.yul\":11317:11405   */\n      mstore\n        /* \"#utility.yul\":11424:11428   */\n      0x22\n        /* \"#utility.yul\":11421:11422   */\n      0x04\n        /* \"#utility.yul\":11414:11429   */\n      mstore\n        /* \"#utility.yul\":11448:11452   */\n      0x24\n        /* \"#utility.yul\":11445:11446   */\n      0x00\n        /* \"#utility.yul\":11438:11453   */\n      revert\n        /* \"#utility.yul\":11465:11645   */\n    tag_250:\n        /* \"#utility.yul\":11513:11590   */\n      0x4e487b7100000000000000000000000000000000000000000000000000000000\n        /* \"#utility.yul\":11510:11511   */\n      0x00\n        /* \"#utility.yul\":11503:11591   */\n      mstore\n        /* \"#utility.yul\":11610:11614   */\n      0x41\n        /* \"#utility.yul\":11607:11608   */\n      0x04\n        /* \"#utility.yul\":11600:11615   */\n      mstore\n        /* \"#utility.yul\":11634:11638   */\n      0x24\n        /* \"#utility.yul\":11631:11632   */\n      0x00\n        /* \"#utility.yul\":11624:11639   */\n      revert\n        /* \"#utility.yul\":11651:11768   */\n    tag_148:\n        /* \"#utility.yul\":11760:11761   */\n      0x00\n        /* \"#utility.yul\":11757:11758   */\n      dup1\n        /* \"#utility.yul\":11750:11762   */\n      revert\n        /* \"#utility.yul\":11774:11891   */\n    tag_137:\n        /* \"#utility.yul\":11883:11884   */\n      0x00\n        /* \"#utility.yul\":11880:11881   */\n      dup1\n        /* \"#utility.yul\":11873:11885   */\n      revert\n        /* \"#utility.yul\":11897:12014   */\n    tag_166:\n        /* \"#utility.yul\":12006:12007   */\n      0x00\n        /* \"#utility.yul\":12003:12004   */\n      dup1\n        /* \"#utility.yul\":11996:12008   */\n      revert\n        /* \"#utility.yul\":12020:12137   */\n    tag_157:\n        /* \"#utility.yul\":12129:12130   */\n      0x00\n        /* \"#utility.yul\":12126:12127   */\n      dup1\n        /* \"#utility.yul\":12119:12131   */\n      revert\n        /* \"#utility.yul\":12143:12245   */\n    tag_194:\n        /* \"#utility.yul\":12184:12190   */\n      0x00\n        /* \"#utility.yul\":12235:12237   */\n      0x1f\n        /* \"#utility.yul\":12231:12238   */\n      not\n        /* \"#utility.yul\":12226:12228   */\n      0x1f\n        /* \"#utility.yul\":12219:12224   */\n      dup4\n        /* \"#utility.yul\":12215:12229   */\n      add\n        /* \"#utility.yul\":12211:12239   */\n      and\n        /* \"#utility.yul\":12201:12239   */\n      swap1\n      pop\n        /* \"#utility.yul\":12143:12245   */\n      swap2\n      swap1\n      pop\n      jump\t// out\n        /* \"#utility.yul\":12251:12373   */\n    tag_143:\n        /* \"#utility.yul\":12324:12348   */\n      tag_295\n        /* \"#utility.yul\":12342:12347   */\n      dup2\n        /* \"#utility.yul\":12324:12348   */\n      tag_180\n      jump\t// in\n    tag_295:\n        /* \"#utility.yul\":12317:12322   */\n      dup2\n        /* \"#utility.yul\":12314:12349   */\n      eq\n        /* \"#utility.yul\":12304:12367   */\n      tag_296\n      jumpi\n        /* \"#utility.yul\":12363:12364   */\n      0x00\n        /* \"#utility.yul\":12360:12361   */\n      dup1\n        /* \"#utility.yul\":12353:12365   */\n      revert\n        /* \"#utility.yul\":12304:12367   */\n    tag_296:\n        /* \"#utility.yul\":12251:12373   */\n      pop\n      jump\t// out\n        /* \"#utility.yul\":12379:12501   */\n    tag_153:\n        /* \"#utility.yul\":12452:12476   */\n      tag_298\n        /* \"#utility.yul\":12470:12475   */\n      dup2\n        /* \"#utility.yul\":12452:12476   */\n      tag_211\n      jump\t// in\n    tag_298:\n        /* \"#utility.yul\":12445:12450   */\n      dup2\n        /* \"#utility.yul\":12442:12477   */\n      eq\n        /* \"#utility.yul\":12432:12495   */\n      tag_299\n      jumpi\n        /* \"#utility.yul\":12491:12492   */\n      0x00\n        /* \"#utility.yul\":12488:12489   */\n      dup1\n        /* \"#utility.yul\":12481:12493   */\n      revert\n        /* \"#utility.yul\":12432:12495   */\n    tag_299:\n        /* \"#utility.yul\":12379:12501   */\n      pop\n      jump\t// out\n\n    auxdata: 0xa26469706673582212202746c78bb78a70820a0c4e4c878d2866c0a1fc91594fe972feec195ee97c497d64736f6c63430008070033\n}\n",
				"bytecode": {
					"linkReferences": {},
					"object": "60806040523480156200001157600080fd5b5060405162001a0438038062001a0483398181016040528101906200003791906200026c565b805182111562000073576040517f2730657000000000000000000000000000000000000000000000000000000000815260040160405180910390fd5b60005b8151811015620001875760008282815181106200009857620000976200041b565b5b602002602001015190506000808273ffffffffffffffffffffffffffffffffffffffff1673ffffffffffffffffffffffffffffffffffffffff16815260200190815260200160002060009054906101000a900460ff161562000126576040517fc0159e0e00000000000000000000000000000000000000000000000000000000815260040160405180910390fd5b6000808273ffffffffffffffffffffffffffffffffffffffff1673ffffffffffffffffffffffffffffffffffffffff16815260200190815260200160002060009054906101000a9050505080806200017e906200039e565b91505062000076565b505050620004d2565b6000620001a7620001a184620002fb565b620002d2565b90508083825260208201905082856020860282011115620001cd57620001cc6200047e565b5b60005b85811015620002015781620001e688826200020b565b845260208401935060208301925050600181019050620001d0565b5050509392505050565b6000815190506200021c816200049e565b92915050565b600082601f8301126200023a576200023962000479565b5b81516200024c84826020860162000190565b91505092915050565b6000815190506200026681620004b8565b92915050565b6000806040838503121562000286576200028562000488565b5b6000620002968582860162000255565b925050602083015167ffffffffffffffff811115620002ba57620002b962000483565b5b620002c88582860162000222565b9150509250929050565b6000620002de620002f1565b9050620002ec828262000368565b919050565b6000604051905090565b600067ffffffffffffffff8211156200031957620003186200044a565b5b602082029050602081019050919050565b600062000337826200033e565b9050919050565b600073ffffffffffffffffffffffffffffffffffffffff82169050919050565b6000819050919050565b62000373826200048d565b810181811067ffffffffffffffff821117156200039557620003946200044a565b5b80604052505050565b6000620003ab826200035e565b91507fffffffffffffffffffffffffffffffffffffffffffffffffffffffffffffffff821415620003e157620003e0620003ec565b5b600182019050919050565b7f4e487b7100000000000000000000000000000000000000000000000000000000600052601160045260246000fd5b7f4e487b7100000000000000000000000000000000000000000000000000000000600052603260045260246000fd5b7f4e487b7100000000000000000000000000000000000000000000000000000000600052604160045260246000fd5b600080fd5b600080fd5b600080fd5b600080fd5b6000601f19601f8301169050919050565b620004a9816200032a565b8114620004b557600080fd5b50565b620004c3816200035e565b8114620004cf57600080fd5b50565b61152280620004e26000396000f3fe60806040526004361061008a5760003560e01c80638253951a116100595780638253951a146101895780639ace38c2146101c6578063bb84c5a914610208578063cd568d1f14610231578063dc8452cd1461025c576100cc565b80631087393a146100d15780632f54bf6e146100fa57806354b5fe80146101375780635986aaca14610160576100cc565b366100cc577f90890809c654f11d6e72a28fa60149770a0d11ec6c92319d6ceb2bb0a4ea1a153334476040516100c293929190611100565b60405180910390a1005b600080fd5b3480156100dd57600080fd5b506100f860048036038101906100f39190610f30565b610287565b005b34801561010657600080fd5b50610121600480360381019061011c9190610e94565b610524565b60405161012e919061117c565b60405180910390f35b34801561014357600080fd5b5061015e60048036038101906101599190610f30565b610544565b005b34801561016c57600080fd5b5061018760048036038101906101829190610f30565b610827565b005b34801561019557600080fd5b506101b060048036038101906101ab9190610f5d565b610ac7565b6040516101bd919061117c565b60405180910390f35b3480156101d257600080fd5b506101ed60048036038101906101e89190610f30565b610af6565b6040516101ff969594939291906111b2565b60405180910390f35b34801561021457600080fd5b5061022f600480360381019061022a9190610ec1565b610be7565b005b34801561023d57600080fd5b50610246610d4b565b6040516102539190611197565b60405180910390f35b34801561026857600080fd5b50610271610d51565b60405161027e9190611197565b60405180910390f35b6000803373ffffffffffffffffffffffffffffffffffffffff1673ffffffffffffffffffffffffffffffffffffffff16815260200190815260200160002060009054906101000a900460ff16610309576040517f30cd747100000000000000000000000000000000000000000000000000000000815260040160405180910390fd5b8060045460016000600454815260200190815260200160002060000154111561035e576040517fc929b60400000000000000000000000000000000000000000000000000000000815260040160405180910390fd5b816001600082815260200190815260200160002060050160009054906101000a900460ff16156103ba576040517f3ca00aa600000000000000000000000000000000000000000000000000000000815260040160405180910390fd5b826002600082815260200190815260200160002060003373ffffffffffffffffffffffffffffffffffffffff1673ffffffffffffffffffffffffffffffffffffffff16815260200190815260200160002060009054906101000a900460ff1615610450576040517ffcaeab4c00000000000000000000000000000000000000000000000000000000815260040160405180910390fd5b600160008581526020019081526020016000206004016000815480929190610477906113c3565b919050555060016002600086815260200190815260200160002060003373ffffffffffffffffffffffffffffffffffffffff1673ffffffffffffffffffffffffffffffffffffffff16815260200190815260200160002060006101000a81548160ff0219169083151502179055507f0630c3fc0c5609ba2ac38919291f39d2bb42b0ad44bdf7502458532cf4e0eee93385604051610516929190611099565b60405180910390a150505050565b60006020528060005260406000206000915054906101000a900460ff1681565b6000803373ffffffffffffffffffffffffffffffffffffffff1673ffffffffffffffffffffffffffffffffffffffff16815260200190815260200160002060009054906101000a900460ff166105c6576040517f30cd747100000000000000000000000000000000000000000000000000000000815260040160405180910390fd5b8060045460016000600454815260200190815260200160002060000154111561061b576040517fc929b60400000000000000000000000000000000000000000000000000000000815260040160405180910390fd5b816001600082815260200190815260200160002060050160009054906101000a900460ff1615610677576040517f3ca00aa600000000000000000000000000000000000000000000000000000000815260040160405180910390fd5b6000600160008581526020019081526020016000209050600354816004015410156106ce576040517ff534d3e100000000000000000000000000000000000000000000000000000000815260040160405180910390fd5b60018160050160006101000a81548160ff02191690831515021790555060008160010160009054906101000a900473ffffffffffffffffffffffffffffffffffffffff1673ffffffffffffffffffffffffffffffffffffffff1682600201548360030160405161073e9190611082565b60006040518083038185875af1925050503d806000811461077b576040519150601f19603f3d011682016040523d82523d6000602084013e610780565b606091505b50509050806107bb576040517fab4a147c00000000000000000000000000000000000000000000000000000000815260040160405180910390fd5b7f7f3ef5aaabea03a471be8b702d80ccaade1c77f30aa74271f776057f2faeada68260010160009054906101000a900473ffffffffffffffffffffffffffffffffffffffff16836002015487336040516108189493929190611137565b60405180910390a15050505050565b6000803373ffffffffffffffffffffffffffffffffffffffff1673ffffffffffffffffffffffffffffffffffffffff16815260200190815260200160002060009054906101000a900460ff166108a9576040517f30cd747100000000000000000000000000000000000000000000000000000000815260040160405180910390fd5b806004546001600060045481526020019081526020016000206000015411156108fe576040517fc929b60400000000000000000000000000000000000000000000000000000000815260040160405180910390fd5b816001600082815260200190815260200160002060050160009054906101000a900460ff161561095a576040517f3ca00aa600000000000000000000000000000000000000000000000000000000815260040160405180910390fd5b6002600084815260200190815260200160002060003373ffffffffffffffffffffffffffffffffffffffff1673ffffffffffffffffffffffffffffffffffffffff16815260200190815260200160002060009054906101000a900460ff1615610a905760006002600085815260200190815260200160002060003373ffffffffffffffffffffffffffffffffffffffff1673ffffffffffffffffffffffffffffffffffffffff16815260200190815260200160002060006101000a81548160ff021916908315150217905550600160008481526020019081526020016000206004016000815480929190610a4d90611336565b91905055507f8ac0ec85d3817644471cdaff11fb456b57808050d06be464ecb80960c69708263384604051610a83929190611099565b60405180910390a1610ac2565b6040517f2e5f286200000000000000000000000000000000000000000000000000000000815260040160405180910390fd5b505050565b60026020528160005260406000206020528060005260406000206000915091509054906101000a900460ff1681565b60016020528060005260406000206000915090508060000154908060010160009054906101000a900473ffffffffffffffffffffffffffffffffffffffff1690806002015490806003018054610b4b90611360565b80601f0160208091040260200160405190810160405280929190818152602001828054610b7790611360565b8015610bc45780601f10610b9957610100808354040283529160200191610bc4565b820191906000526020600020905b815481529060010190602001808311610ba757829003601f168201915b5050505050908060040154908060050160009054906101000a900460ff16905086565b6000803373ffffffffffffffffffffffffffffffffffffffff1673ffffffffffffffffffffffffffffffffffffffff16815260200190815260200160002060009054906101000a900460ff16610c69576040517f30cd747100000000000000000000000000000000000000000000000000000000815260040160405180910390fd5b600060016000600454815260200190815260200160002090506004548160000181905550838160010160006101000a81548173ffffffffffffffffffffffffffffffffffffffff021916908373ffffffffffffffffffffffffffffffffffffffff16021790555082816002018190555081816003019080519060200190610cf1929190610d57565b5060046000815480929190610d05906113c3565b91905055507f315d8bf6c6d36a1411ee3d8d607b26df37940936bd273e006857a296fbac2ce8848484604051610d3d939291906110c2565b60405180910390a150505050565b60045481565b60035481565b828054610d6390611360565b90600052602060002090601f016020900481019282610d855760008555610dcc565b82601f10610d9e57805160ff1916838001178555610dcc565b82800160010185558215610dcc579182015b82811115610dcb578251825591602001919060010190610db0565b5b509050610dd99190610ddd565b5090565b5b80821115610df6576000816000905550600101610dde565b5090565b6000610e0d610e088461123f565b61121a565b905082815260208101848484011115610e2957610e2861149e565b5b610e348482856112f4565b509392505050565b600081359050610e4b816114be565b92915050565b600082601f830112610e6657610e65611499565b5b8135610e76848260208601610dfa565b91505092915050565b600081359050610e8e816114d5565b92915050565b600060208284031215610eaa57610ea96114a8565b5b6000610eb884828501610e3c565b91505092915050565b600080600060608486031215610eda57610ed96114a8565b5b6000610ee886828701610e3c565b9350506020610ef986828701610e7f565b925050604084013567ffffffffffffffff811115610f1a57610f196114a3565b5b610f2686828701610e51565b9150509250925092565b600060208284031215610f4657610f456114a8565b5b6000610f5484828501610e7f565b91505092915050565b60008060408385031215610f7457610f736114a8565b5b6000610f8285828601610e7f565b9250506020610f9385828601610e3c565b9150509250929050565b610fa6816112ac565b82525050565b610fb5816112be565b82525050565b6000610fc682611285565b610fd08185611290565b9350610fe0818560208601611303565b610fe9816114ad565b840191505092915050565b6000815461100181611360565b61100b81866112a1565b9450600182166000811461102657600181146110375761106a565b60ff1983168652818601935061106a565b61104085611270565b60005b8381101561106257815481890152600182019150602081019050611043565b838801955050505b50505092915050565b61107c816112ea565b82525050565b600061108e8284610ff4565b915081905092915050565b60006040820190506110ae6000830185610f9d565b6110bb6020830184611073565b9392505050565b60006060820190506110d76000830186610f9d565b6110e46020830185611073565b81810360408301526110f68184610fbb565b9050949350505050565b60006060820190506111156000830186610f9d565b6111226020830185611073565b61112f6040830184611073565b949350505050565b600060808201905061114c6000830187610f9d565b6111596020830186611073565b6111666040830185611073565b6111736060830184610f9d565b95945050505050565b60006020820190506111916000830184610fac565b92915050565b60006020820190506111ac6000830184611073565b92915050565b600060c0820190506111c76000830189611073565b6111d46020830188610f9d565b6111e16040830187611073565b81810360608301526111f38186610fbb565b90506112026080830185611073565b61120f60a0830184610fac565b979650505050505050565b6000611224611235565b90506112308282611392565b919050565b6000604051905090565b600067ffffffffffffffff82111561125a5761125961146a565b5b611263826114ad565b9050602081019050919050565b60008190508160005260206000209050919050565b600081519050919050565b600082825260208201905092915050565b600081905092915050565b60006112b7826112ca565b9050919050565b60008115159050919050565b600073ffffffffffffffffffffffffffffffffffffffff82169050919050565b6000819050919050565b82818337600083830152505050565b60005b83811015611321578082015181840152602081019050611306565b83811115611330576000848401525b50505050565b6000611341826112ea565b915060008214156113555761135461140c565b5b600182039050919050565b6000600282049050600182168061137857607f821691505b6020821081141561138c5761138b61143b565b5b50919050565b61139b826114ad565b810181811067ffffffffffffffff821117156113ba576113b961146a565b5b80604052505050565b60006113ce826112ea565b91507fffffffffffffffffffffffffffffffffffffffffffffffffffffffffffffffff8214156114015761140061140c565b5b600182019050919050565b7f4e487b7100000000000000000000000000000000000000000000000000000000600052601160045260246000fd5b7f4e487b7100000000000000000000000000000000000000000000000000000000600052602260045260246000fd5b7f4e487b7100000000000000000000000000000000000000000000000000000000600052604160045260246000fd5b600080fd5b600080fd5b600080fd5b600080fd5b6000601f19601f8301169050919050565b6114c7816112ac565b81146114d257600080fd5b50565b6114de816112ea565b81146114e957600080fd5b5056fea26469706673582212202746c78bb78a70820a0c4e4c878d2866c0a1fc91594fe972feec195ee97c497d64736f6c63430008070033",
					"opcodes": "PUSH1 0x80 PUSH1 0x40 MSTORE CALLVALUE DUP1 ISZERO PUSH3 0x11 JUMPI PUSH1 0x0 DUP1 REVERT JUMPDEST POP PUSH1 0x40 MLOAD PUSH3 0x1A04 CODESIZE SUB DUP1 PUSH3 0x1A04 DUP4 CODECOPY DUP2 DUP2 ADD PUSH1 0x40 MSTORE DUP2 ADD SWAP1 PUSH3 0x37 SWAP2 SWAP1 PUSH3 0x26C JUMP JUMPDEST DUP1 MLOAD DUP3 GT ISZERO PUSH3 0x73 JUMPI PUSH1 0x40 MLOAD PUSH32 0x2730657000000000000000000000000000000000000000000000000000000000 DUP2 MSTORE PUSH1 0x4 ADD PUSH1 0x40 MLOAD DUP1 SWAP2 SUB SWAP1 REVERT JUMPDEST PUSH1 0x0 JUMPDEST DUP2 MLOAD DUP2 LT ISZERO PUSH3 0x187 JUMPI PUSH1 0x0 DUP3 DUP3 DUP2 MLOAD DUP2 LT PUSH3 0x98 JUMPI PUSH3 0x97 PUSH3 0x41B JUMP JUMPDEST JUMPDEST PUSH1 0x20 MUL PUSH1 0x20 ADD ADD MLOAD SWAP1 POP PUSH1 0x0 DUP1 DUP3 PUSH20 0xFFFFFFFFFFFFFFFFFFFFFFFFFFFFFFFFFFFFFFFF AND PUSH20 0xFFFFFFFFFFFFFFFFFFFFFFFFFFFFFFFFFFFFFFFF AND DUP2 MSTORE PUSH1 0x20 ADD SWAP1 DUP2 MSTORE PUSH1 0x20 ADD PUSH1 0x0 KECCAK256 PUSH1 0x0 SWAP1 SLOAD SWAP1 PUSH2 0x100 EXP SWAP1 DIV PUSH1 0xFF AND ISZERO PUSH3 0x126 JUMPI PUSH1 0x40 MLOAD PUSH32 0xC0159E0E00000000000000000000000000000000000000000000000000000000 DUP2 MSTORE PUSH1 0x4 ADD PUSH1 0x40 MLOAD DUP1 SWAP2 SUB SWAP1 REVERT JUMPDEST PUSH1 0x0 DUP1 DUP3 PUSH20 0xFFFFFFFFFFFFFFFFFFFFFFFFFFFFFFFFFFFFFFFF AND PUSH20 0xFFFFFFFFFFFFFFFFFFFFFFFFFFFFFFFFFFFFFFFF AND DUP2 MSTORE PUSH1 0x20 ADD SWAP1 DUP2 MSTORE PUSH1 0x20 ADD PUSH1 0x0 KECCAK256 PUSH1 0x0 SWAP1 SLOAD SWAP1 PUSH2 0x100 EXP SWAP1 POP POP POP DUP1 DUP1 PUSH3 0x17E SWAP1 PUSH3 0x39E JUMP JUMPDEST SWAP2 POP POP PUSH3 0x76 JUMP JUMPDEST POP POP POP PUSH3 0x4D2 JUMP JUMPDEST PUSH1 0x0 PUSH3 0x1A7 PUSH3 0x1A1 DUP5 PUSH3 0x2FB JUMP JUMPDEST PUSH3 0x2D2 JUMP JUMPDEST SWAP1 POP DUP1 DUP4 DUP3 MSTORE PUSH1 0x20 DUP3 ADD SWAP1 POP DUP3 DUP6 PUSH1 0x20 DUP7 MUL DUP3 ADD GT ISZERO PUSH3 0x1CD JUMPI PUSH3 0x1CC PUSH3 0x47E JUMP JUMPDEST JUMPDEST PUSH1 0x0 JUMPDEST DUP6 DUP2 LT ISZERO PUSH3 0x201 JUMPI DUP2 PUSH3 0x1E6 DUP9 DUP3 PUSH3 0x20B JUMP JUMPDEST DUP5 MSTORE PUSH1 0x20 DUP5 ADD SWAP4 POP PUSH1 0x20 DUP4 ADD SWAP3 POP POP PUSH1 0x1 DUP2 ADD SWAP1 POP PUSH3 0x1D0 JUMP JUMPDEST POP POP POP SWAP4 SWAP3 POP POP POP JUMP JUMPDEST PUSH1 0x0 DUP2 MLOAD SWAP1 POP PUSH3 0x21C DUP2 PUSH3 0x49E JUMP JUMPDEST SWAP3 SWAP2 POP POP JUMP JUMPDEST PUSH1 0x0 DUP3 PUSH1 0x1F DUP4 ADD SLT PUSH3 0x23A JUMPI PUSH3 0x239 PUSH3 0x479 JUMP JUMPDEST JUMPDEST DUP2 MLOAD PUSH3 0x24C DUP5 DUP3 PUSH1 0x20 DUP7 ADD PUSH3 0x190 JUMP JUMPDEST SWAP2 POP POP SWAP3 SWAP2 POP POP JUMP JUMPDEST PUSH1 0x0 DUP2 MLOAD SWAP1 POP PUSH3 0x266 DUP2 PUSH3 0x4B8 JUMP JUMPDEST SWAP3 SWAP2 POP POP JUMP JUMPDEST PUSH1 0x0 DUP1 PUSH1 0x40 DUP4 DUP6 SUB SLT ISZERO PUSH3 0x286 JUMPI PUSH3 0x285 PUSH3 0x488 JUMP JUMPDEST JUMPDEST PUSH1 0x0 PUSH3 0x296 DUP6 DUP3 DUP7 ADD PUSH3 0x255 JUMP JUMPDEST SWAP3 POP POP PUSH1 0x20 DUP4 ADD MLOAD PUSH8 0xFFFFFFFFFFFFFFFF DUP2 GT ISZERO PUSH3 0x2BA JUMPI PUSH3 0x2B9 PUSH3 0x483 JUMP JUMPDEST JUMPDEST PUSH3 0x2C8 DUP6 DUP3 DUP7 ADD PUSH3 0x222 JUMP JUMPDEST SWAP2 POP POP SWAP3 POP SWAP3 SWAP1 POP JUMP JUMPDEST PUSH1 0x0 PUSH3 0x2DE PUSH3 0x2F1 JUMP JUMPDEST SWAP1 POP PUSH3 0x2EC DUP3 DUP3 PUSH3 0x368 JUMP JUMPDEST SWAP2 SWAP1 POP JUMP JUMPDEST PUSH1 0x0 PUSH1 0x40 MLOAD SWAP1 POP SWAP1 JUMP JUMPDEST PUSH1 0x0 PUSH8 0xFFFFFFFFFFFFFFFF DUP3 GT ISZERO PUSH3 0x319 JUMPI PUSH3 0x318 PUSH3 0x44A JUMP JUMPDEST JUMPDEST PUSH1 0x20 DUP3 MUL SWAP1 POP PUSH1 0x20 DUP2 ADD SWAP1 POP SWAP2 SWAP1 POP JUMP JUMPDEST PUSH1 0x0 PUSH3 0x337 DUP3 PUSH3 0x33E JUMP JUMPDEST SWAP1 POP SWAP2 SWAP1 POP JUMP JUMPDEST PUSH1 0x0 PUSH20 0xFFFFFFFFFFFFFFFFFFFFFFFFFFFFFFFFFFFFFFFF DUP3 AND SWAP1 POP SWAP2 SWAP1 POP JUMP JUMPDEST PUSH1 0x0 DUP2 SWAP1 POP SWAP2 SWAP1 POP JUMP JUMPDEST PUSH3 0x373 DUP3 PUSH3 0x48D JUMP JUMPDEST DUP2 ADD DUP2 DUP2 LT PUSH8 0xFFFFFFFFFFFFFFFF DUP3 GT OR ISZERO PUSH3 0x395 JUMPI PUSH3 0x394 PUSH3 0x44A JUMP JUMPDEST JUMPDEST DUP1 PUSH1 0x40 MSTORE POP POP POP JUMP JUMPDEST PUSH1 0x0 PUSH3 0x3AB DUP3 PUSH3 0x35E JUMP JUMPDEST SWAP2 POP PUSH32 0xFFFFFFFFFFFFFFFFFFFFFFFFFFFFFFFFFFFFFFFFFFFFFFFFFFFFFFFFFFFFFFFF DUP3 EQ ISZERO PUSH3 0x3E1 JUMPI PUSH3 0x3E0 PUSH3 0x3EC JUMP JUMPDEST JUMPDEST PUSH1 0x1 DUP3 ADD SWAP1 POP SWAP2 SWAP1 POP JUMP JUMPDEST PUSH32 0x4E487B7100000000000000000000000000000000000000000000000000000000 PUSH1 0x0 MSTORE PUSH1 0x11 PUSH1 0x4 MSTORE PUSH1 0x24 PUSH1 0x0 REVERT JUMPDEST PUSH32 0x4E487B7100000000000000000000000000000000000000000000000000000000 PUSH1 0x0 MSTORE PUSH1 0x32 PUSH1 0x4 MSTORE PUSH1 0x24 PUSH1 0x0 REVERT JUMPDEST PUSH32 0x4E487B7100000000000000000000000000000000000000000000000000000000 PUSH1 0x0 MSTORE PUSH1 0x41 PUSH1 0x4 MSTORE PUSH1 0x24 PUSH1 0x0 REVERT JUMPDEST PUSH1 0x0 DUP1 REVERT JUMPDEST PUSH1 0x0 DUP1 REVERT JUMPDEST PUSH1 0x0 DUP1 REVERT JUMPDEST PUSH1 0x0 DUP1 REVERT JUMPDEST PUSH1 0x0 PUSH1 0x1F NOT PUSH1 0x1F DUP4 ADD AND SWAP1 POP SWAP2 SWAP1 POP JUMP JUMPDEST PUSH3 0x4A9 DUP2 PUSH3 0x32A JUMP JUMPDEST DUP2 EQ PUSH3 0x4B5 JUMPI PUSH1 0x0 DUP1 REVERT JUMPDEST POP JUMP JUMPDEST PUSH3 0x4C3 DUP2 PUSH3 0x35E JUMP JUMPDEST DUP2 EQ PUSH3 0x4CF JUMPI PUSH1 0x0 DUP1 REVERT JUMPDEST POP JUMP JUMPDEST PUSH2 0x1522 DUP1 PUSH3 0x4E2 PUSH1 0x0 CODECOPY PUSH1 0x0 RETURN INVALID PUSH1 0x80 PUSH1 0x40 MSTORE PUSH1 0x4 CALLDATASIZE LT PUSH2 0x8A JUMPI PUSH1 0x0 CALLDATALOAD PUSH1 0xE0 SHR DUP1 PUSH4 0x8253951A GT PUSH2 0x59 JUMPI DUP1 PUSH4 0x8253951A EQ PUSH2 0x189 JUMPI DUP1 PUSH4 0x9ACE38C2 EQ PUSH2 0x1C6 JUMPI DUP1 PUSH4 0xBB84C5A9 EQ PUSH2 0x208 JUMPI DUP1 PUSH4 0xCD568D1F EQ PUSH2 0x231 JUMPI DUP1 PUSH4 0xDC8452CD EQ PUSH2 0x25C JUMPI PUSH2 0xCC JUMP JUMPDEST DUP1 PUSH4 0x1087393A EQ PUSH2 0xD1 JUMPI DUP1 PUSH4 0x2F54BF6E EQ PUSH2 0xFA JUMPI DUP1 PUSH4 0x54B5FE80 EQ PUSH2 0x137 JUMPI DUP1 PUSH4 0x5986AACA EQ PUSH2 0x160 JUMPI PUSH2 0xCC JUMP JUMPDEST CALLDATASIZE PUSH2 0xCC JUMPI PUSH32 0x90890809C654F11D6E72A28FA60149770A0D11EC6C92319D6CEB2BB0A4EA1A15 CALLER CALLVALUE SELFBALANCE PUSH1 0x40 MLOAD PUSH2 0xC2 SWAP4 SWAP3 SWAP2 SWAP1 PUSH2 0x1100 JUMP JUMPDEST PUSH1 0x40 MLOAD DUP1 SWAP2 SUB SWAP1 LOG1 STOP JUMPDEST PUSH1 0x0 DUP1 REVERT JUMPDEST CALLVALUE DUP1 ISZERO PUSH2 0xDD JUMPI PUSH1 0x0 DUP1 REVERT JUMPDEST POP PUSH2 0xF8 PUSH1 0x4 DUP1 CALLDATASIZE SUB DUP2 ADD SWAP1 PUSH2 0xF3 SWAP2 SWAP1 PUSH2 0xF30 JUMP JUMPDEST PUSH2 0x287 JUMP JUMPDEST STOP JUMPDEST CALLVALUE DUP1 ISZERO PUSH2 0x106 JUMPI PUSH1 0x0 DUP1 REVERT JUMPDEST POP PUSH2 0x121 PUSH1 0x4 DUP1 CALLDATASIZE SUB DUP2 ADD SWAP1 PUSH2 0x11C SWAP2 SWAP1 PUSH2 0xE94 JUMP JUMPDEST PUSH2 0x524 JUMP JUMPDEST PUSH1 0x40 MLOAD PUSH2 0x12E SWAP2 SWAP1 PUSH2 0x117C JUMP JUMPDEST PUSH1 0x40 MLOAD DUP1 SWAP2 SUB SWAP1 RETURN JUMPDEST CALLVALUE DUP1 ISZERO PUSH2 0x143 JUMPI PUSH1 0x0 DUP1 REVERT JUMPDEST POP PUSH2 0x15E PUSH1 0x4 DUP1 CALLDATASIZE SUB DUP2 ADD SWAP1 PUSH2 0x159 SWAP2 SWAP1 PUSH2 0xF30 JUMP JUMPDEST PUSH2 0x544 JUMP JUMPDEST STOP JUMPDEST CALLVALUE DUP1 ISZERO PUSH2 0x16C JUMPI PUSH1 0x0 DUP1 REVERT JUMPDEST POP PUSH2 0x187 PUSH1 0x4 DUP1 CALLDATASIZE SUB DUP2 ADD SWAP1 PUSH2 0x182 SWAP2 SWAP1 PUSH2 0xF30 JUMP JUMPDEST PUSH2 0x827 JUMP JUMPDEST STOP JUMPDEST CALLVALUE DUP1 ISZERO PUSH2 0x195 JUMPI PUSH1 0x0 DUP1 REVERT JUMPDEST POP PUSH2 0x1B0 PUSH1 0x4 DUP1 CALLDATASIZE SUB DUP2 ADD SWAP1 PUSH2 0x1AB SWAP2 SWAP1 PUSH2 0xF5D JUMP JUMPDEST PUSH2 0xAC7 JUMP JUMPDEST PUSH1 0x40 MLOAD PUSH2 0x1BD SWAP2 SWAP1 PUSH2 0x117C JUMP JUMPDEST PUSH1 0x40 MLOAD DUP1 SWAP2 SUB SWAP1 RETURN JUMPDEST CALLVALUE DUP1 ISZERO PUSH2 0x1D2 JUMPI PUSH1 0x0 DUP1 REVERT JUMPDEST POP PUSH2 0x1ED PUSH1 0x4 DUP1 CALLDATASIZE SUB DUP2 ADD SWAP1 PUSH2 0x1E8 SWAP2 SWAP1 PUSH2 0xF30 JUMP JUMPDEST PUSH2 0xAF6 JUMP JUMPDEST PUSH1 0x40 MLOAD PUSH2 0x1FF SWAP7 SWAP6 SWAP5 SWAP4 SWAP3 SWAP2 SWAP1 PUSH2 0x11B2 JUMP JUMPDEST PUSH1 0x40 MLOAD DUP1 SWAP2 SUB SWAP1 RETURN JUMPDEST CALLVALUE DUP1 ISZERO PUSH2 0x214 JUMPI PUSH1 0x0 DUP1 REVERT JUMPDEST POP PUSH2 0x22F PUSH1 0x4 DUP1 CALLDATASIZE SUB DUP2 ADD SWAP1 PUSH2 0x22A SWAP2 SWAP1 PUSH2 0xEC1 JUMP JUMPDEST PUSH2 0xBE7 JUMP JUMPDEST STOP JUMPDEST CALLVALUE DUP1 ISZERO PUSH2 0x23D JUMPI PUSH1 0x0 DUP1 REVERT JUMPDEST POP PUSH2 0x246 PUSH2 0xD4B JUMP JUMPDEST PUSH1 0x40 MLOAD PUSH2 0x253 SWAP2 SWAP1 PUSH2 0x1197 JUMP JUMPDEST PUSH1 0x40 MLOAD DUP1 SWAP2 SUB SWAP1 RETURN JUMPDEST CALLVALUE DUP1 ISZERO PUSH2 0x268 JUMPI PUSH1 0x0 DUP1 REVERT JUMPDEST POP PUSH2 0x271 PUSH2 0xD51 JUMP JUMPDEST PUSH1 0x40 MLOAD PUSH2 0x27E SWAP2 SWAP1 PUSH2 0x1197 JUMP JUMPDEST PUSH1 0x40 MLOAD DUP1 SWAP2 SUB SWAP1 RETURN JUMPDEST PUSH1 0x0 DUP1 CALLER PUSH20 0xFFFFFFFFFFFFFFFFFFFFFFFFFFFFFFFFFFFFFFFF AND PUSH20 0xFFFFFFFFFFFFFFFFFFFFFFFFFFFFFFFFFFFFFFFF AND DUP2 MSTORE PUSH1 0x20 ADD SWAP1 DUP2 MSTORE PUSH1 0x20 ADD PUSH1 0x0 KECCAK256 PUSH1 0x0 SWAP1 SLOAD SWAP1 PUSH2 0x100 EXP SWAP1 DIV PUSH1 0xFF AND PUSH2 0x309 JUMPI PUSH1 0x40 MLOAD PUSH32 0x30CD747100000000000000000000000000000000000000000000000000000000 DUP2 MSTORE PUSH1 0x4 ADD PUSH1 0x40 MLOAD DUP1 SWAP2 SUB SWAP1 REVERT JUMPDEST DUP1 PUSH1 0x4 SLOAD PUSH1 0x1 PUSH1 0x0 PUSH1 0x4 SLOAD DUP2 MSTORE PUSH1 0x20 ADD SWAP1 DUP2 MSTORE PUSH1 0x20 ADD PUSH1 0x0 KECCAK256 PUSH1 0x0 ADD SLOAD GT ISZERO PUSH2 0x35E JUMPI PUSH1 0x40 MLOAD PUSH32 0xC929B60400000000000000000000000000000000000000000000000000000000 DUP2 MSTORE PUSH1 0x4 ADD PUSH1 0x40 MLOAD DUP1 SWAP2 SUB SWAP1 REVERT JUMPDEST DUP2 PUSH1 0x1 PUSH1 0x0 DUP3 DUP2 MSTORE PUSH1 0x20 ADD SWAP1 DUP2 MSTORE PUSH1 0x20 ADD PUSH1 0x0 KECCAK256 PUSH1 0x5 ADD PUSH1 0x0 SWAP1 SLOAD SWAP1 PUSH2 0x100 EXP SWAP1 DIV PUSH1 0xFF AND ISZERO PUSH2 0x3BA JUMPI PUSH1 0x40 MLOAD PUSH32 0x3CA00AA600000000000000000000000000000000000000000000000000000000 DUP2 MSTORE PUSH1 0x4 ADD PUSH1 0x40 MLOAD DUP1 SWAP2 SUB SWAP1 REVERT JUMPDEST DUP3 PUSH1 0x2 PUSH1 0x0 DUP3 DUP2 MSTORE PUSH1 0x20 ADD SWAP1 DUP2 MSTORE PUSH1 0x20 ADD PUSH1 0x0 KECCAK256 PUSH1 0x0 CALLER PUSH20 0xFFFFFFFFFFFFFFFFFFFFFFFFFFFFFFFFFFFFFFFF AND PUSH20 0xFFFFFFFFFFFFFFFFFFFFFFFFFFFFFFFFFFFFFFFF AND DUP2 MSTORE PUSH1 0x20 ADD SWAP1 DUP2 MSTORE PUSH1 0x20 ADD PUSH1 0x0 KECCAK256 PUSH1 0x0 SWAP1 SLOAD SWAP1 PUSH2 0x100 EXP SWAP1 DIV PUSH1 0xFF AND ISZERO PUSH2 0x450 JUMPI PUSH1 0x40 MLOAD PUSH32 0xFCAEAB4C00000000000000000000000000000000000000000000000000000000 DUP2 MSTORE PUSH1 0x4 ADD PUSH1 0x40 MLOAD DUP1 SWAP2 SUB SWAP1 REVERT JUMPDEST PUSH1 0x1 PUSH1 0x0 DUP6 DUP2 MSTORE PUSH1 0x20 ADD SWAP1 DUP2 MSTORE PUSH1 0x20 ADD PUSH1 0x0 KECCAK256 PUSH1 0x4 ADD PUSH1 0x0 DUP2 SLOAD DUP1 SWAP3 SWAP2 SWAP1 PUSH2 0x477 SWAP1 PUSH2 0x13C3 JUMP JUMPDEST SWAP2 SWAP1 POP SSTORE POP PUSH1 0x1 PUSH1 0x2 PUSH1 0x0 DUP7 DUP2 MSTORE PUSH1 0x20 ADD SWAP1 DUP2 MSTORE PUSH1 0x20 ADD PUSH1 0x0 KECCAK256 PUSH1 0x0 CALLER PUSH20 0xFFFFFFFFFFFFFFFFFFFFFFFFFFFFFFFFFFFFFFFF AND PUSH20 0xFFFFFFFFFFFFFFFFFFFFFFFFFFFFFFFFFFFFFFFF AND DUP2 MSTORE PUSH1 0x20 ADD SWAP1 DUP2 MSTORE PUSH1 0x20 ADD PUSH1 0x0 KECCAK256 PUSH1 0x0 PUSH2 0x100 EXP DUP2 SLOAD DUP2 PUSH1 0xFF MUL NOT AND SWAP1 DUP4 ISZERO ISZERO MUL OR SWAP1 SSTORE POP PUSH32 0x630C3FC0C5609BA2AC38919291F39D2BB42B0AD44BDF7502458532CF4E0EEE9 CALLER DUP6 PUSH1 0x40 MLOAD PUSH2 0x516 SWAP3 SWAP2 SWAP1 PUSH2 0x1099 JUMP JUMPDEST PUSH1 0x40 MLOAD DUP1 SWAP2 SUB SWAP1 LOG1 POP POP POP POP JUMP JUMPDEST PUSH1 0x0 PUSH1 0x20 MSTORE DUP1 PUSH1 0x0 MSTORE PUSH1 0x40 PUSH1 0x0 KECCAK256 PUSH1 0x0 SWAP2 POP SLOAD SWAP1 PUSH2 0x100 EXP SWAP1 DIV PUSH1 0xFF AND DUP2 JUMP JUMPDEST PUSH1 0x0 DUP1 CALLER PUSH20 0xFFFFFFFFFFFFFFFFFFFFFFFFFFFFFFFFFFFFFFFF AND PUSH20 0xFFFFFFFFFFFFFFFFFFFFFFFFFFFFFFFFFFFFFFFF AND DUP2 MSTORE PUSH1 0x20 ADD SWAP1 DUP2 MSTORE PUSH1 0x20 ADD PUSH1 0x0 KECCAK256 PUSH1 0x0 SWAP1 SLOAD SWAP1 PUSH2 0x100 EXP SWAP1 DIV PUSH1 0xFF AND PUSH2 0x5C6 JUMPI PUSH1 0x40 MLOAD PUSH32 0x30CD747100000000000000000000000000000000000000000000000000000000 DUP2 MSTORE PUSH1 0x4 ADD PUSH1 0x40 MLOAD DUP1 SWAP2 SUB SWAP1 REVERT JUMPDEST DUP1 PUSH1 0x4 SLOAD PUSH1 0x1 PUSH1 0x0 PUSH1 0x4 SLOAD DUP2 MSTORE PUSH1 0x20 ADD SWAP1 DUP2 MSTORE PUSH1 0x20 ADD PUSH1 0x0 KECCAK256 PUSH1 0x0 ADD SLOAD GT ISZERO PUSH2 0x61B JUMPI PUSH1 0x40 MLOAD PUSH32 0xC929B60400000000000000000000000000000000000000000000000000000000 DUP2 MSTORE PUSH1 0x4 ADD PUSH1 0x40 MLOAD DUP1 SWAP2 SUB SWAP1 REVERT JUMPDEST DUP2 PUSH1 0x1 PUSH1 0x0 DUP3 DUP2 MSTORE PUSH1 0x20 ADD SWAP1 DUP2 MSTORE PUSH1 0x20 ADD PUSH1 0x0 KECCAK256 PUSH1 0x5 ADD PUSH1 0x0 SWAP1 SLOAD SWAP1 PUSH2 0x100 EXP SWAP1 DIV PUSH1 0xFF AND ISZERO PUSH2 0x677 JUMPI PUSH1 0x40 MLOAD PUSH32 0x3CA00AA600000000000000000000000000000000000000000000000000000000 DUP2 MSTORE PUSH1 0x4 ADD PUSH1 0x40 MLOAD DUP1 SWAP2 SUB SWAP1 REVERT JUMPDEST PUSH1 0x0 PUSH1 0x1 PUSH1 0x0 DUP6 DUP2 MSTORE PUSH1 0x20 ADD SWAP1 DUP2 MSTORE PUSH1 0x20 ADD PUSH1 0x0 KECCAK256 SWAP1 POP PUSH1 0x3 SLOAD DUP2 PUSH1 0x4 ADD SLOAD LT ISZERO PUSH2 0x6CE JUMPI PUSH1 0x40 MLOAD PUSH32 0xF534D3E100000000000000000000000000000000000000000000000000000000 DUP2 MSTORE PUSH1 0x4 ADD PUSH1 0x40 MLOAD DUP1 SWAP2 SUB SWAP1 REVERT JUMPDEST PUSH1 0x1 DUP2 PUSH1 0x5 ADD PUSH1 0x0 PUSH2 0x100 EXP DUP2 SLOAD DUP2 PUSH1 0xFF MUL NOT AND SWAP1 DUP4 ISZERO ISZERO MUL OR SWAP1 SSTORE POP PUSH1 0x0 DUP2 PUSH1 0x1 ADD PUSH1 0x0 SWAP1 SLOAD SWAP1 PUSH2 0x100 EXP SWAP1 DIV PUSH20 0xFFFFFFFFFFFFFFFFFFFFFFFFFFFFFFFFFFFFFFFF AND PUSH20 0xFFFFFFFFFFFFFFFFFFFFFFFFFFFFFFFFFFFFFFFF AND DUP3 PUSH1 0x2 ADD SLOAD DUP4 PUSH1 0x3 ADD PUSH1 0x40 MLOAD PUSH2 0x73E SWAP2 SWAP1 PUSH2 0x1082 JUMP JUMPDEST PUSH1 0x0 PUSH1 0x40 MLOAD DUP1 DUP4 SUB DUP2 DUP6 DUP8 GAS CALL SWAP3 POP POP POP RETURNDATASIZE DUP1 PUSH1 0x0 DUP2 EQ PUSH2 0x77B JUMPI PUSH1 0x40 MLOAD SWAP2 POP PUSH1 0x1F NOT PUSH1 0x3F RETURNDATASIZE ADD AND DUP3 ADD PUSH1 0x40 MSTORE RETURNDATASIZE DUP3 MSTORE RETURNDATASIZE PUSH1 0x0 PUSH1 0x20 DUP5 ADD RETURNDATACOPY PUSH2 0x780 JUMP JUMPDEST PUSH1 0x60 SWAP2 POP JUMPDEST POP POP SWAP1 POP DUP1 PUSH2 0x7BB JUMPI PUSH1 0x40 MLOAD PUSH32 0xAB4A147C00000000000000000000000000000000000000000000000000000000 DUP2 MSTORE PUSH1 0x4 ADD PUSH1 0x40 MLOAD DUP1 SWAP2 SUB SWAP1 REVERT JUMPDEST PUSH32 0x7F3EF5AAABEA03A471BE8B702D80CCAADE1C77F30AA74271F776057F2FAEADA6 DUP3 PUSH1 0x1 ADD PUSH1 0x0 SWAP1 SLOAD SWAP1 PUSH2 0x100 EXP SWAP1 DIV PUSH20 0xFFFFFFFFFFFFFFFFFFFFFFFFFFFFFFFFFFFFFFFF AND DUP4 PUSH1 0x2 ADD SLOAD DUP8 CALLER PUSH1 0x40 MLOAD PUSH2 0x818 SWAP5 SWAP4 SWAP3 SWAP2 SWAP1 PUSH2 0x1137 JUMP JUMPDEST PUSH1 0x40 MLOAD DUP1 SWAP2 SUB SWAP1 LOG1 POP POP POP POP POP JUMP JUMPDEST PUSH1 0x0 DUP1 CALLER PUSH20 0xFFFFFFFFFFFFFFFFFFFFFFFFFFFFFFFFFFFFFFFF AND PUSH20 0xFFFFFFFFFFFFFFFFFFFFFFFFFFFFFFFFFFFFFFFF AND DUP2 MSTORE PUSH1 0x20 ADD SWAP1 DUP2 MSTORE PUSH1 0x20 ADD PUSH1 0x0 KECCAK256 PUSH1 0x0 SWAP1 SLOAD SWAP1 PUSH2 0x100 EXP SWAP1 DIV PUSH1 0xFF AND PUSH2 0x8A9 JUMPI PUSH1 0x40 MLOAD PUSH32 0x30CD747100000000000000000000000000000000000000000000000000000000 DUP2 MSTORE PUSH1 0x4 ADD PUSH1 0x40 MLOAD DUP1 SWAP2 SUB SWAP1 REVERT JUMPDEST DUP1 PUSH1 0x4 SLOAD PUSH1 0x1 PUSH1 0x0 PUSH1 0x4 SLOAD DUP2 MSTORE PUSH1 0x20 ADD SWAP1 DUP2 MSTORE PUSH1 0x20 ADD PUSH1 0x0 KECCAK256 PUSH1 0x0 ADD SLOAD GT ISZERO PUSH2 0x8FE JUMPI PUSH1 0x40 MLOAD PUSH32 0xC929B60400000000000000000000000000000000000000000000000000000000 DUP2 MSTORE PUSH1 0x4 ADD PUSH1 0x40 MLOAD DUP1 SWAP2 SUB SWAP1 REVERT JUMPDEST DUP2 PUSH1 0x1 PUSH1 0x0 DUP3 DUP2 MSTORE PUSH1 0x20 ADD SWAP1 DUP2 MSTORE PUSH1 0x20 ADD PUSH1 0x0 KECCAK256 PUSH1 0x5 ADD PUSH1 0x0 SWAP1 SLOAD SWAP1 PUSH2 0x100 EXP SWAP1 DIV PUSH1 0xFF AND ISZERO PUSH2 0x95A JUMPI PUSH1 0x40 MLOAD PUSH32 0x3CA00AA600000000000000000000000000000000000000000000000000000000 DUP2 MSTORE PUSH1 0x4 ADD PUSH1 0x40 MLOAD DUP1 SWAP2 SUB SWAP1 REVERT JUMPDEST PUSH1 0x2 PUSH1 0x0 DUP5 DUP2 MSTORE PUSH1 0x20 ADD SWAP1 DUP2 MSTORE PUSH1 0x20 ADD PUSH1 0x0 KECCAK256 PUSH1 0x0 CALLER PUSH20 0xFFFFFFFFFFFFFFFFFFFFFFFFFFFFFFFFFFFFFFFF AND PUSH20 0xFFFFFFFFFFFFFFFFFFFFFFFFFFFFFFFFFFFFFFFF AND DUP2 MSTORE PUSH1 0x20 ADD SWAP1 DUP2 MSTORE PUSH1 0x20 ADD PUSH1 0x0 KECCAK256 PUSH1 0x0 SWAP1 SLOAD SWAP1 PUSH2 0x100 EXP SWAP1 DIV PUSH1 0xFF AND ISZERO PUSH2 0xA90 JUMPI PUSH1 0x0 PUSH1 0x2 PUSH1 0x0 DUP6 DUP2 MSTORE PUSH1 0x20 ADD SWAP1 DUP2 MSTORE PUSH1 0x20 ADD PUSH1 0x0 KECCAK256 PUSH1 0x0 CALLER PUSH20 0xFFFFFFFFFFFFFFFFFFFFFFFFFFFFFFFFFFFFFFFF AND PUSH20 0xFFFFFFFFFFFFFFFFFFFFFFFFFFFFFFFFFFFFFFFF AND DUP2 MSTORE PUSH1 0x20 ADD SWAP1 DUP2 MSTORE PUSH1 0x20 ADD PUSH1 0x0 KECCAK256 PUSH1 0x0 PUSH2 0x100 EXP DUP2 SLOAD DUP2 PUSH1 0xFF MUL NOT AND SWAP1 DUP4 ISZERO ISZERO MUL OR SWAP1 SSTORE POP PUSH1 0x1 PUSH1 0x0 DUP5 DUP2 MSTORE PUSH1 0x20 ADD SWAP1 DUP2 MSTORE PUSH1 0x20 ADD PUSH1 0x0 KECCAK256 PUSH1 0x4 ADD PUSH1 0x0 DUP2 SLOAD DUP1 SWAP3 SWAP2 SWAP1 PUSH2 0xA4D SWAP1 PUSH2 0x1336 JUMP JUMPDEST SWAP2 SWAP1 POP SSTORE POP PUSH32 0x8AC0EC85D3817644471CDAFF11FB456B57808050D06BE464ECB80960C6970826 CALLER DUP5 PUSH1 0x40 MLOAD PUSH2 0xA83 SWAP3 SWAP2 SWAP1 PUSH2 0x1099 JUMP JUMPDEST PUSH1 0x40 MLOAD DUP1 SWAP2 SUB SWAP1 LOG1 PUSH2 0xAC2 JUMP JUMPDEST PUSH1 0x40 MLOAD PUSH32 0x2E5F286200000000000000000000000000000000000000000000000000000000 DUP2 MSTORE PUSH1 0x4 ADD PUSH1 0x40 MLOAD DUP1 SWAP2 SUB SWAP1 REVERT JUMPDEST POP POP POP JUMP JUMPDEST PUSH1 0x2 PUSH1 0x20 MSTORE DUP2 PUSH1 0x0 MSTORE PUSH1 0x40 PUSH1 0x0 KECCAK256 PUSH1 0x20 MSTORE DUP1 PUSH1 0x0 MSTORE PUSH1 0x40 PUSH1 0x0 KECCAK256 PUSH1 0x0 SWAP2 POP SWAP2 POP SWAP1 SLOAD SWAP1 PUSH2 0x100 EXP SWAP1 DIV PUSH1 0xFF AND DUP2 JUMP JUMPDEST PUSH1 0x1 PUSH1 0x20 MSTORE DUP1 PUSH1 0x0 MSTORE PUSH1 0x40 PUSH1 0x0 KECCAK256 PUSH1 0x0 SWAP2 POP SWAP1 POP DUP1 PUSH1 0x0 ADD SLOAD SWAP1 DUP1 PUSH1 0x1 ADD PUSH1 0x0 SWAP1 SLOAD SWAP1 PUSH2 0x100 EXP SWAP1 DIV PUSH20 0xFFFFFFFFFFFFFFFFFFFFFFFFFFFFFFFFFFFFFFFF AND SWAP1 DUP1 PUSH1 0x2 ADD SLOAD SWAP1 DUP1 PUSH1 0x3 ADD DUP1 SLOAD PUSH2 0xB4B SWAP1 PUSH2 0x1360 JUMP JUMPDEST DUP1 PUSH1 0x1F ADD PUSH1 0x20 DUP1 SWAP2 DIV MUL PUSH1 0x20 ADD PUSH1 0x40 MLOAD SWAP1 DUP2 ADD PUSH1 0x40 MSTORE DUP1 SWAP3 SWAP2 SWAP1 DUP2 DUP2 MSTORE PUSH1 0x20 ADD DUP3 DUP1 SLOAD PUSH2 0xB77 SWAP1 PUSH2 0x1360 JUMP JUMPDEST DUP1 ISZERO PUSH2 0xBC4 JUMPI DUP1 PUSH1 0x1F LT PUSH2 0xB99 JUMPI PUSH2 0x100 DUP1 DUP4 SLOAD DIV MUL DUP4 MSTORE SWAP2 PUSH1 0x20 ADD SWAP2 PUSH2 0xBC4 JUMP JUMPDEST DUP3 ADD SWAP2 SWAP1 PUSH1 0x0 MSTORE PUSH1 0x20 PUSH1 0x0 KECCAK256 SWAP1 JUMPDEST DUP2 SLOAD DUP2 MSTORE SWAP1 PUSH1 0x1 ADD SWAP1 PUSH1 0x20 ADD DUP1 DUP4 GT PUSH2 0xBA7 JUMPI DUP3 SWAP1 SUB PUSH1 0x1F AND DUP3 ADD SWAP2 JUMPDEST POP POP POP POP POP SWAP1 DUP1 PUSH1 0x4 ADD SLOAD SWAP1 DUP1 PUSH1 0x5 ADD PUSH1 0x0 SWAP1 SLOAD SWAP1 PUSH2 0x100 EXP SWAP1 DIV PUSH1 0xFF AND SWAP1 POP DUP7 JUMP JUMPDEST PUSH1 0x0 DUP1 CALLER PUSH20 0xFFFFFFFFFFFFFFFFFFFFFFFFFFFFFFFFFFFFFFFF AND PUSH20 0xFFFFFFFFFFFFFFFFFFFFFFFFFFFFFFFFFFFFFFFF AND DUP2 MSTORE PUSH1 0x20 ADD SWAP1 DUP2 MSTORE PUSH1 0x20 ADD PUSH1 0x0 KECCAK256 PUSH1 0x0 SWAP1 SLOAD SWAP1 PUSH2 0x100 EXP SWAP1 DIV PUSH1 0xFF AND PUSH2 0xC69 JUMPI PUSH1 0x40 MLOAD PUSH32 0x30CD747100000000000000000000000000000000000000000000000000000000 DUP2 MSTORE PUSH1 0x4 ADD PUSH1 0x40 MLOAD DUP1 SWAP2 SUB SWAP1 REVERT JUMPDEST PUSH1 0x0 PUSH1 0x1 PUSH1 0x0 PUSH1 0x4 SLOAD DUP2 MSTORE PUSH1 0x20 ADD SWAP1 DUP2 MSTORE PUSH1 0x20 ADD PUSH1 0x0 KECCAK256 SWAP1 POP PUSH1 0x4 SLOAD DUP2 PUSH1 0x0 ADD DUP2 SWAP1 SSTORE POP DUP4 DUP2 PUSH1 0x1 ADD PUSH1 0x0 PUSH2 0x100 EXP DUP2 SLOAD DUP2 PUSH20 0xFFFFFFFFFFFFFFFFFFFFFFFFFFFFFFFFFFFFFFFF MUL NOT AND SWAP1 DUP4 PUSH20 0xFFFFFFFFFFFFFFFFFFFFFFFFFFFFFFFFFFFFFFFF AND MUL OR SWAP1 SSTORE POP DUP3 DUP2 PUSH1 0x2 ADD DUP2 SWAP1 SSTORE POP DUP2 DUP2 PUSH1 0x3 ADD SWAP1 DUP1 MLOAD SWAP1 PUSH1 0x20 ADD SWAP1 PUSH2 0xCF1 SWAP3 SWAP2 SWAP1 PUSH2 0xD57 JUMP JUMPDEST POP PUSH1 0x4 PUSH1 0x0 DUP2 SLOAD DUP1 SWAP3 SWAP2 SWAP1 PUSH2 0xD05 SWAP1 PUSH2 0x13C3 JUMP JUMPDEST SWAP2 SWAP1 POP SSTORE POP PUSH32 0x315D8BF6C6D36A1411EE3D8D607B26DF37940936BD273E006857A296FBAC2CE8 DUP5 DUP5 DUP5 PUSH1 0x40 MLOAD PUSH2 0xD3D SWAP4 SWAP3 SWAP2 SWAP1 PUSH2 0x10C2 JUMP JUMPDEST PUSH1 0x40 MLOAD DUP1 SWAP2 SUB SWAP1 LOG1 POP POP POP POP JUMP JUMPDEST PUSH1 0x4 SLOAD DUP2 JUMP JUMPDEST PUSH1 0x3 SLOAD DUP2 JUMP JUMPDEST DUP3 DUP1 SLOAD PUSH2 0xD63 SWAP1 PUSH2 0x1360 JUMP JUMPDEST SWAP1 PUSH1 0x0 MSTORE PUSH1 0x20 PUSH1 0x0 KECCAK256 SWAP1 PUSH1 0x1F ADD PUSH1 0x20 SWAP1 DIV DUP2 ADD SWAP3 DUP3 PUSH2 0xD85 JUMPI PUSH1 0x0 DUP6 SSTORE PUSH2 0xDCC JUMP JUMPDEST DUP3 PUSH1 0x1F LT PUSH2 0xD9E JUMPI DUP1 MLOAD PUSH1 0xFF NOT AND DUP4 DUP1 ADD OR DUP6 SSTORE PUSH2 0xDCC JUMP JUMPDEST DUP3 DUP1 ADD PUSH1 0x1 ADD DUP6 SSTORE DUP3 ISZERO PUSH2 0xDCC JUMPI SWAP2 DUP3 ADD JUMPDEST DUP3 DUP2 GT ISZERO PUSH2 0xDCB JUMPI DUP3 MLOAD DUP3 SSTORE SWAP2 PUSH1 0x20 ADD SWAP2 SWAP1 PUSH1 0x1 ADD SWAP1 PUSH2 0xDB0 JUMP JUMPDEST JUMPDEST POP SWAP1 POP PUSH2 0xDD9 SWAP2 SWAP1 PUSH2 0xDDD JUMP JUMPDEST POP SWAP1 JUMP JUMPDEST JUMPDEST DUP1 DUP3 GT ISZERO PUSH2 0xDF6 JUMPI PUSH1 0x0 DUP2 PUSH1 0x0 SWAP1 SSTORE POP PUSH1 0x1 ADD PUSH2 0xDDE JUMP JUMPDEST POP SWAP1 JUMP JUMPDEST PUSH1 0x0 PUSH2 0xE0D PUSH2 0xE08 DUP5 PUSH2 0x123F JUMP JUMPDEST PUSH2 0x121A JUMP JUMPDEST SWAP1 POP DUP3 DUP2 MSTORE PUSH1 0x20 DUP2 ADD DUP5 DUP5 DUP5 ADD GT ISZERO PUSH2 0xE29 JUMPI PUSH2 0xE28 PUSH2 0x149E JUMP JUMPDEST JUMPDEST PUSH2 0xE34 DUP5 DUP3 DUP6 PUSH2 0x12F4 JUMP JUMPDEST POP SWAP4 SWAP3 POP POP POP JUMP JUMPDEST PUSH1 0x0 DUP2 CALLDATALOAD SWAP1 POP PUSH2 0xE4B DUP2 PUSH2 0x14BE JUMP JUMPDEST SWAP3 SWAP2 POP POP JUMP JUMPDEST PUSH1 0x0 DUP3 PUSH1 0x1F DUP4 ADD SLT PUSH2 0xE66 JUMPI PUSH2 0xE65 PUSH2 0x1499 JUMP JUMPDEST JUMPDEST DUP2 CALLDATALOAD PUSH2 0xE76 DUP5 DUP3 PUSH1 0x20 DUP7 ADD PUSH2 0xDFA JUMP JUMPDEST SWAP2 POP POP SWAP3 SWAP2 POP POP JUMP JUMPDEST PUSH1 0x0 DUP2 CALLDATALOAD SWAP1 POP PUSH2 0xE8E DUP2 PUSH2 0x14D5 JUMP JUMPDEST SWAP3 SWAP2 POP POP JUMP JUMPDEST PUSH1 0x0 PUSH1 0x20 DUP3 DUP5 SUB SLT ISZERO PUSH2 0xEAA JUMPI PUSH2 0xEA9 PUSH2 0x14A8 JUMP JUMPDEST JUMPDEST PUSH1 0x0 PUSH2 0xEB8 DUP5 DUP3 DUP6 ADD PUSH2 0xE3C JUMP JUMPDEST SWAP2 POP POP SWAP3 SWAP2 POP POP JUMP JUMPDEST PUSH1 0x0 DUP1 PUSH1 0x0 PUSH1 0x60 DUP5 DUP7 SUB SLT ISZERO PUSH2 0xEDA JUMPI PUSH2 0xED9 PUSH2 0x14A8 JUMP JUMPDEST JUMPDEST PUSH1 0x0 PUSH2 0xEE8 DUP7 DUP3 DUP8 ADD PUSH2 0xE3C JUMP JUMPDEST SWAP4 POP POP PUSH1 0x20 PUSH2 0xEF9 DUP7 DUP3 DUP8 ADD PUSH2 0xE7F JUMP JUMPDEST SWAP3 POP POP PUSH1 0x40 DUP5 ADD CALLDATALOAD PUSH8 0xFFFFFFFFFFFFFFFF DUP2 GT ISZERO PUSH2 0xF1A JUMPI PUSH2 0xF19 PUSH2 0x14A3 JUMP JUMPDEST JUMPDEST PUSH2 0xF26 DUP7 DUP3 DUP8 ADD PUSH2 0xE51 JUMP JUMPDEST SWAP2 POP POP SWAP3 POP SWAP3 POP SWAP3 JUMP JUMPDEST PUSH1 0x0 PUSH1 0x20 DUP3 DUP5 SUB SLT ISZERO PUSH2 0xF46 JUMPI PUSH2 0xF45 PUSH2 0x14A8 JUMP JUMPDEST JUMPDEST PUSH1 0x0 PUSH2 0xF54 DUP5 DUP3 DUP6 ADD PUSH2 0xE7F JUMP JUMPDEST SWAP2 POP POP SWAP3 SWAP2 POP POP JUMP JUMPDEST PUSH1 0x0 DUP1 PUSH1 0x40 DUP4 DUP6 SUB SLT ISZERO PUSH2 0xF74 JUMPI PUSH2 0xF73 PUSH2 0x14A8 JUMP JUMPDEST JUMPDEST PUSH1 0x0 PUSH2 0xF82 DUP6 DUP3 DUP7 ADD PUSH2 0xE7F JUMP JUMPDEST SWAP3 POP POP PUSH1 0x20 PUSH2 0xF93 DUP6 DUP3 DUP7 ADD PUSH2 0xE3C JUMP JUMPDEST SWAP2 POP POP SWAP3 POP SWAP3 SWAP1 POP JUMP JUMPDEST PUSH2 0xFA6 DUP2 PUSH2 0x12AC JUMP JUMPDEST DUP3 MSTORE POP POP JUMP JUMPDEST PUSH2 0xFB5 DUP2 PUSH2 0x12BE JUMP JUMPDEST DUP3 MSTORE POP POP JUMP JUMPDEST PUSH1 0x0 PUSH2 0xFC6 DUP3 PUSH2 0x1285 JUMP JUMPDEST PUSH2 0xFD0 DUP2 DUP6 PUSH2 0x1290 JUMP JUMPDEST SWAP4 POP PUSH2 0xFE0 DUP2 DUP6 PUSH1 0x20 DUP7 ADD PUSH2 0x1303 JUMP JUMPDEST PUSH2 0xFE9 DUP2 PUSH2 0x14AD JUMP JUMPDEST DUP5 ADD SWAP2 POP POP SWAP3 SWAP2 POP POP JUMP JUMPDEST PUSH1 0x0 DUP2 SLOAD PUSH2 0x1001 DUP2 PUSH2 0x1360 JUMP JUMPDEST PUSH2 0x100B DUP2 DUP7 PUSH2 0x12A1 JUMP JUMPDEST SWAP5 POP PUSH1 0x1 DUP3 AND PUSH1 0x0 DUP2 EQ PUSH2 0x1026 JUMPI PUSH1 0x1 DUP2 EQ PUSH2 0x1037 JUMPI PUSH2 0x106A JUMP JUMPDEST PUSH1 0xFF NOT DUP4 AND DUP7 MSTORE DUP2 DUP7 ADD SWAP4 POP PUSH2 0x106A JUMP JUMPDEST PUSH2 0x1040 DUP6 PUSH2 0x1270 JUMP JUMPDEST PUSH1 0x0 JUMPDEST DUP4 DUP2 LT ISZERO PUSH2 0x1062 JUMPI DUP2 SLOAD DUP2 DUP10 ADD MSTORE PUSH1 0x1 DUP3 ADD SWAP2 POP PUSH1 0x20 DUP2 ADD SWAP1 POP PUSH2 0x1043 JUMP JUMPDEST DUP4 DUP9 ADD SWAP6 POP POP POP JUMPDEST POP POP POP SWAP3 SWAP2 POP POP JUMP JUMPDEST PUSH2 0x107C DUP2 PUSH2 0x12EA JUMP JUMPDEST DUP3 MSTORE POP POP JUMP JUMPDEST PUSH1 0x0 PUSH2 0x108E DUP3 DUP5 PUSH2 0xFF4 JUMP JUMPDEST SWAP2 POP DUP2 SWAP1 POP SWAP3 SWAP2 POP POP JUMP JUMPDEST PUSH1 0x0 PUSH1 0x40 DUP3 ADD SWAP1 POP PUSH2 0x10AE PUSH1 0x0 DUP4 ADD DUP6 PUSH2 0xF9D JUMP JUMPDEST PUSH2 0x10BB PUSH1 0x20 DUP4 ADD DUP5 PUSH2 0x1073 JUMP JUMPDEST SWAP4 SWAP3 POP POP POP JUMP JUMPDEST PUSH1 0x0 PUSH1 0x60 DUP3 ADD SWAP1 POP PUSH2 0x10D7 PUSH1 0x0 DUP4 ADD DUP7 PUSH2 0xF9D JUMP JUMPDEST PUSH2 0x10E4 PUSH1 0x20 DUP4 ADD DUP6 PUSH2 0x1073 JUMP JUMPDEST DUP2 DUP2 SUB PUSH1 0x40 DUP4 ADD MSTORE PUSH2 0x10F6 DUP2 DUP5 PUSH2 0xFBB JUMP JUMPDEST SWAP1 POP SWAP5 SWAP4 POP POP POP POP JUMP JUMPDEST PUSH1 0x0 PUSH1 0x60 DUP3 ADD SWAP1 POP PUSH2 0x1115 PUSH1 0x0 DUP4 ADD DUP7 PUSH2 0xF9D JUMP JUMPDEST PUSH2 0x1122 PUSH1 0x20 DUP4 ADD DUP6 PUSH2 0x1073 JUMP JUMPDEST PUSH2 0x112F PUSH1 0x40 DUP4 ADD DUP5 PUSH2 0x1073 JUMP JUMPDEST SWAP5 SWAP4 POP POP POP POP JUMP JUMPDEST PUSH1 0x0 PUSH1 0x80 DUP3 ADD SWAP1 POP PUSH2 0x114C PUSH1 0x0 DUP4 ADD DUP8 PUSH2 0xF9D JUMP JUMPDEST PUSH2 0x1159 PUSH1 0x20 DUP4 ADD DUP7 PUSH2 0x1073 JUMP JUMPDEST PUSH2 0x1166 PUSH1 0x40 DUP4 ADD DUP6 PUSH2 0x1073 JUMP JUMPDEST PUSH2 0x1173 PUSH1 0x60 DUP4 ADD DUP5 PUSH2 0xF9D JUMP JUMPDEST SWAP6 SWAP5 POP POP POP POP POP JUMP JUMPDEST PUSH1 0x0 PUSH1 0x20 DUP3 ADD SWAP1 POP PUSH2 0x1191 PUSH1 0x0 DUP4 ADD DUP5 PUSH2 0xFAC JUMP JUMPDEST SWAP3 SWAP2 POP POP JUMP JUMPDEST PUSH1 0x0 PUSH1 0x20 DUP3 ADD SWAP1 POP PUSH2 0x11AC PUSH1 0x0 DUP4 ADD DUP5 PUSH2 0x1073 JUMP JUMPDEST SWAP3 SWAP2 POP POP JUMP JUMPDEST PUSH1 0x0 PUSH1 0xC0 DUP3 ADD SWAP1 POP PUSH2 0x11C7 PUSH1 0x0 DUP4 ADD DUP10 PUSH2 0x1073 JUMP JUMPDEST PUSH2 0x11D4 PUSH1 0x20 DUP4 ADD DUP9 PUSH2 0xF9D JUMP JUMPDEST PUSH2 0x11E1 PUSH1 0x40 DUP4 ADD DUP8 PUSH2 0x1073 JUMP JUMPDEST DUP2 DUP2 SUB PUSH1 0x60 DUP4 ADD MSTORE PUSH2 0x11F3 DUP2 DUP7 PUSH2 0xFBB JUMP JUMPDEST SWAP1 POP PUSH2 0x1202 PUSH1 0x80 DUP4 ADD DUP6 PUSH2 0x1073 JUMP JUMPDEST PUSH2 0x120F PUSH1 0xA0 DUP4 ADD DUP5 PUSH2 0xFAC JUMP JUMPDEST SWAP8 SWAP7 POP POP POP POP POP POP POP JUMP JUMPDEST PUSH1 0x0 PUSH2 0x1224 PUSH2 0x1235 JUMP JUMPDEST SWAP1 POP PUSH2 0x1230 DUP3 DUP3 PUSH2 0x1392 JUMP JUMPDEST SWAP2 SWAP1 POP JUMP JUMPDEST PUSH1 0x0 PUSH1 0x40 MLOAD SWAP1 POP SWAP1 JUMP JUMPDEST PUSH1 0x0 PUSH8 0xFFFFFFFFFFFFFFFF DUP3 GT ISZERO PUSH2 0x125A JUMPI PUSH2 0x1259 PUSH2 0x146A JUMP JUMPDEST JUMPDEST PUSH2 0x1263 DUP3 PUSH2 0x14AD JUMP JUMPDEST SWAP1 POP PUSH1 0x20 DUP2 ADD SWAP1 POP SWAP2 SWAP1 POP JUMP JUMPDEST PUSH1 0x0 DUP2 SWAP1 POP DUP2 PUSH1 0x0 MSTORE PUSH1 0x20 PUSH1 0x0 KECCAK256 SWAP1 POP SWAP2 SWAP1 POP JUMP JUMPDEST PUSH1 0x0 DUP2 MLOAD SWAP1 POP SWAP2 SWAP1 POP JUMP JUMPDEST PUSH1 0x0 DUP3 DUP3 MSTORE PUSH1 0x20 DUP3 ADD SWAP1 POP SWAP3 SWAP2 POP POP JUMP JUMPDEST PUSH1 0x0 DUP2 SWAP1 POP SWAP3 SWAP2 POP POP JUMP JUMPDEST PUSH1 0x0 PUSH2 0x12B7 DUP3 PUSH2 0x12CA JUMP JUMPDEST SWAP1 POP SWAP2 SWAP1 POP JUMP JUMPDEST PUSH1 0x0 DUP2 ISZERO ISZERO SWAP1 POP SWAP2 SWAP1 POP JUMP JUMPDEST PUSH1 0x0 PUSH20 0xFFFFFFFFFFFFFFFFFFFFFFFFFFFFFFFFFFFFFFFF DUP3 AND SWAP1 POP SWAP2 SWAP1 POP JUMP JUMPDEST PUSH1 0x0 DUP2 SWAP1 POP SWAP2 SWAP1 POP JUMP JUMPDEST DUP3 DUP2 DUP4 CALLDATACOPY PUSH1 0x0 DUP4 DUP4 ADD MSTORE POP POP POP JUMP JUMPDEST PUSH1 0x0 JUMPDEST DUP4 DUP2 LT ISZERO PUSH2 0x1321 JUMPI DUP1 DUP3 ADD MLOAD DUP2 DUP5 ADD MSTORE PUSH1 0x20 DUP2 ADD SWAP1 POP PUSH2 0x1306 JUMP JUMPDEST DUP4 DUP2 GT ISZERO PUSH2 0x1330 JUMPI PUSH1 0x0 DUP5 DUP5 ADD MSTORE JUMPDEST POP POP POP POP JUMP JUMPDEST PUSH1 0x0 PUSH2 0x1341 DUP3 PUSH2 0x12EA JUMP JUMPDEST SWAP2 POP PUSH1 0x0 DUP3 EQ ISZERO PUSH2 0x1355 JUMPI PUSH2 0x1354 PUSH2 0x140C JUMP JUMPDEST JUMPDEST PUSH1 0x1 DUP3 SUB SWAP1 POP SWAP2 SWAP1 POP JUMP JUMPDEST PUSH1 0x0 PUSH1 0x2 DUP3 DIV SWAP1 POP PUSH1 0x1 DUP3 AND DUP1 PUSH2 0x1378 JUMPI PUSH1 0x7F DUP3 AND SWAP2 POP JUMPDEST PUSH1 0x20 DUP3 LT DUP2 EQ ISZERO PUSH2 0x138C JUMPI PUSH2 0x138B PUSH2 0x143B JUMP JUMPDEST JUMPDEST POP SWAP2 SWAP1 POP JUMP JUMPDEST PUSH2 0x139B DUP3 PUSH2 0x14AD JUMP JUMPDEST DUP2 ADD DUP2 DUP2 LT PUSH8 0xFFFFFFFFFFFFFFFF DUP3 GT OR ISZERO PUSH2 0x13BA JUMPI PUSH2 0x13B9 PUSH2 0x146A JUMP JUMPDEST JUMPDEST DUP1 PUSH1 0x40 MSTORE POP POP POP JUMP JUMPDEST PUSH1 0x0 PUSH2 0x13CE DUP3 PUSH2 0x12EA JUMP JUMPDEST SWAP2 POP PUSH32 0xFFFFFFFFFFFFFFFFFFFFFFFFFFFFFFFFFFFFFFFFFFFFFFFFFFFFFFFFFFFFFFFF DUP3 EQ ISZERO PUSH2 0x1401 JUMPI PUSH2 0x1400 PUSH2 0x140C JUMP JUMPDEST JUMPDEST PUSH1 0x1 DUP3 ADD SWAP1 POP SWAP2 SWAP1 POP JUMP JUMPDEST PUSH32 0x4E487B7100000000000000000000000000000000000000000000000000000000 PUSH1 0x0 MSTORE PUSH1 0x11 PUSH1 0x4 MSTORE PUSH1 0x24 PUSH1 0x0 REVERT JUMPDEST PUSH32 0x4E487B7100000000000000000000000000000000000000000000000000000000 PUSH1 0x0 MSTORE PUSH1 0x22 PUSH1 0x4 MSTORE PUSH1 0x24 PUSH1 0x0 REVERT JUMPDEST PUSH32 0x4E487B7100000000000000000000000000000000000000000000000000000000 PUSH1 0x0 MSTORE PUSH1 0x41 PUSH1 0x4 MSTORE PUSH1 0x24 PUSH1 0x0 REVERT JUMPDEST PUSH1 0x0 DUP1 REVERT JUMPDEST PUSH1 0x0 DUP1 REVERT JUMPDEST PUSH1 0x0 DUP1 REVERT JUMPDEST PUSH1 0x0 DUP1 REVERT JUMPDEST PUSH1 0x0 PUSH1 0x1F NOT PUSH1 0x1F DUP4 ADD AND SWAP1 POP SWAP2 SWAP1 POP JUMP JUMPDEST PUSH2 0x14C7 DUP2 PUSH2 0x12AC JUMP JUMPDEST DUP2 EQ PUSH2 0x14D2 JUMPI PUSH1 0x0 DUP1 REVERT JUMPDEST POP JUMP JUMPDEST PUSH2 0x14DE DUP2 PUSH2 0x12EA JUMP JUMPDEST DUP2 EQ PUSH2 0x14E9 JUMPI PUSH1 0x0 DUP1 REVERT JUMPDEST POP JUMP INVALID LOG2 PUSH5 0x6970667358 0x22 SLT KECCAK256 0x27 CHAINID 0xC7 DUP12 0xB7 DUP11 PUSH17 0x820A0C4E4C878D2866C0A1FC91594FE972 INVALID 0xEC NOT 0x5E 0xE9 PUSH29 0x497D64736F6C6343000807003300000000000000000000000000000000 "
				},
				"gasEstimates": {
					"creation": {
						"codeDepositCost": "1082000",
						"executionCost": "infinite",
						"totalCost": "infinite"
					},
					"external": {
						"approveTx(uint256)": "infinite",
						"approved(uint256,address)": "3087",
						"executeTx(uint256)": "infinite",
						"isOwner(address)": "2868",
						"required()": "2517",
						"revokeTx(uint256)": "infinite",
						"submitTx(address,uint256,bytes)": "infinite",
						"transactions(uint256)": "infinite",
						"txId()": "2495"
					}
				},
				"methodIdentifiers": {
					"approveTx(uint256)": "1087393a",
					"approved(uint256,address)": "8253951a",
					"executeTx(uint256)": "54b5fe80",
					"isOwner(address)": "2f54bf6e",
					"required()": "dc8452cd",
					"revokeTx(uint256)": "5986aaca",
					"submitTx(address,uint256,bytes)": "bb84c5a9",
					"transactions(uint256)": "9ace38c2",
					"txId()": "cd568d1f"
				}
			},
			"storageLayout": {
				"storage": [
					{
						"astId": 61,
						"contract": "bootcamp/week2/MultiSigWallet.sol:MultiSigWallet",
						"label": "isOwner",
						"offset": 0,
						"slot": "0",
						"type": "t_mapping(t_address,t_bool)"
					},
					{
						"astId": 79,
						"contract": "bootcamp/week2/MultiSigWallet.sol:MultiSigWallet",
						"label": "transactions",
						"offset": 0,
						"slot": "1",
						"type": "t_mapping(t_uint256,t_struct(Transaction)74_storage)"
					},
					{
						"astId": 85,
						"contract": "bootcamp/week2/MultiSigWallet.sol:MultiSigWallet",
						"label": "approved",
						"offset": 0,
						"slot": "2",
						"type": "t_mapping(t_uint256,t_mapping(t_address,t_bool))"
					},
					{
						"astId": 87,
						"contract": "bootcamp/week2/MultiSigWallet.sol:MultiSigWallet",
						"label": "required",
						"offset": 0,
						"slot": "3",
						"type": "t_uint256"
					},
					{
						"astId": 89,
						"contract": "bootcamp/week2/MultiSigWallet.sol:MultiSigWallet",
						"label": "txId",
						"offset": 0,
						"slot": "4",
						"type": "t_uint256"
					}
				],
				"types": {
					"t_address": {
						"encoding": "inplace",
						"label": "address",
						"numberOfBytes": "20"
					},
					"t_bool": {
						"encoding": "inplace",
						"label": "bool",
						"numberOfBytes": "1"
					},
					"t_bytes_storage": {
						"encoding": "bytes",
						"label": "bytes",
						"numberOfBytes": "32"
					},
					"t_mapping(t_address,t_bool)": {
						"encoding": "mapping",
						"key": "t_address",
						"label": "mapping(address => bool)",
						"numberOfBytes": "32",
						"value": "t_bool"
					},
					"t_mapping(t_uint256,t_mapping(t_address,t_bool))": {
						"encoding": "mapping",
						"key": "t_uint256",
						"label": "mapping(uint256 => mapping(address => bool))",
						"numberOfBytes": "32",
						"value": "t_mapping(t_address,t_bool)"
					},
					"t_mapping(t_uint256,t_struct(Transaction)74_storage)": {
						"encoding": "mapping",
						"key": "t_uint256",
						"label": "mapping(uint256 => struct MultiSigWallet.Transaction)",
						"numberOfBytes": "32",
						"value": "t_struct(Transaction)74_storage"
					},
					"t_struct(Transaction)74_storage": {
						"encoding": "inplace",
						"label": "struct MultiSigWallet.Transaction",
						"members": [
							{
								"astId": 63,
								"contract": "bootcamp/week2/MultiSigWallet.sol:MultiSigWallet",
								"label": "id",
								"offset": 0,
								"slot": "0",
								"type": "t_uint256"
							},
							{
								"astId": 65,
								"contract": "bootcamp/week2/MultiSigWallet.sol:MultiSigWallet",
								"label": "to",
								"offset": 0,
								"slot": "1",
								"type": "t_address"
							},
							{
								"astId": 67,
								"contract": "bootcamp/week2/MultiSigWallet.sol:MultiSigWallet",
								"label": "value",
								"offset": 0,
								"slot": "2",
								"type": "t_uint256"
							},
							{
								"astId": 69,
								"contract": "bootcamp/week2/MultiSigWallet.sol:MultiSigWallet",
								"label": "data",
								"offset": 0,
								"slot": "3",
								"type": "t_bytes_storage"
							},
							{
								"astId": 71,
								"contract": "bootcamp/week2/MultiSigWallet.sol:MultiSigWallet",
								"label": "confirmations",
								"offset": 0,
								"slot": "4",
								"type": "t_uint256"
							},
							{
								"astId": 73,
								"contract": "bootcamp/week2/MultiSigWallet.sol:MultiSigWallet",
								"label": "executed",
								"offset": 0,
								"slot": "5",
								"type": "t_bool"
							}
						],
						"numberOfBytes": "192"
					},
					"t_uint256": {
						"encoding": "inplace",
						"label": "uint256",
						"numberOfBytes": "32"
					}
				}
			},
			"userdoc": {
				"kind": "user",
				"methods": {},
				"version": 1
			}
		}
	}
}