{
	"bootcamp/week2/MultiSigWallet.sol": {
		"MultiSigWallet": {
			"abi": [
				{
					"inputs": [
						{
							"internalType": "address[]",
							"name": "_owners",
							"type": "address[]"
						},
						{
							"internalType": "uint256",
							"name": "_required",
							"type": "uint256"
						}
					],
					"stateMutability": "nonpayable",
					"type": "constructor"
				},
				{
					"inputs": [],
					"name": "AlreadyOwner",
					"type": "error"
				},
				{
					"inputs": [],
					"name": "InvalidNumRequired",
					"type": "error"
				},
				{
					"inputs": [],
					"name": "InvalidOwnerAddress",
					"type": "error"
				},
				{
					"inputs": [],
					"name": "approveTx",
					"outputs": [],
					"stateMutability": "nonpayable",
					"type": "function"
				},
				{
					"inputs": [
						{
							"internalType": "uint256",
							"name": "",
							"type": "uint256"
						},
						{
							"internalType": "address",
							"name": "",
							"type": "address"
						}
					],
					"name": "approved",
					"outputs": [
						{
							"internalType": "bool",
							"name": "",
							"type": "bool"
						}
					],
					"stateMutability": "view",
					"type": "function"
				},
				{
					"inputs": [],
					"name": "executeTx",
					"outputs": [],
					"stateMutability": "nonpayable",
					"type": "function"
				},
				{
					"inputs": [
						{
							"internalType": "address",
							"name": "",
							"type": "address"
						}
					],
					"name": "isOwner",
					"outputs": [
						{
							"internalType": "bool",
							"name": "",
							"type": "bool"
						}
					],
					"stateMutability": "view",
					"type": "function"
				},
				{
					"inputs": [],
					"name": "revokeTx",
					"outputs": [],
					"stateMutability": "nonpayable",
					"type": "function"
				},
				{
					"inputs": [],
					"name": "submitTx",
					"outputs": [],
					"stateMutability": "nonpayable",
					"type": "function"
				},
				{
					"stateMutability": "payable",
					"type": "receive"
				}
			],
			"devdoc": {
				"kind": "dev",
				"methods": {},
				"version": 1
			},
			"evm": {
				"assembly": "    /* \"bootcamp/week2/MultiSigWallet.sol\":138:1162  contract MultiSigWallet {... */\n  mstore(0x40, 0x80)\n    /* \"bootcamp/week2/MultiSigWallet.sol\":492:975  constructor(address[] memory _owners, uint256 _required) {... */\n  callvalue\n  dup1\n  iszero\n  tag_1\n  jumpi\n  0x00\n  dup1\n  revert\ntag_1:\n  pop\n  mload(0x40)\n  sub(codesize, bytecodeSize)\n  dup1\n  bytecodeSize\n  dup4\n  codecopy\n  dup2\n  dup2\n  add\n  0x40\n  mstore\n  dup2\n  add\n  swap1\n  tag_2\n  swap2\n  swap1\n  tag_3\n  jump\t// in\ntag_2:\n    /* \"bootcamp/week2/MultiSigWallet.sol\":575:582  _owners */\n  dup2\n    /* \"bootcamp/week2/MultiSigWallet.sol\":575:589  _owners.length */\n  mload\n    /* \"bootcamp/week2/MultiSigWallet.sol\":563:572  _required */\n  dup2\n    /* \"bootcamp/week2/MultiSigWallet.sol\":563:589  _required > _owners.length */\n  gt\n    /* \"bootcamp/week2/MultiSigWallet.sol\":559:643  if (_required > _owners.length) {... */\n  iszero\n  tag_6\n  jumpi\n    /* \"bootcamp/week2/MultiSigWallet.sol\":612:632  InvalidNumRequired() */\n  mload(0x40)\n  0xaa6eac5100000000000000000000000000000000000000000000000000000000\n  dup2\n  mstore\n  0x04\n  add\n  mload(0x40)\n  dup1\n  swap2\n  sub\n  swap1\n  revert\n    /* \"bootcamp/week2/MultiSigWallet.sol\":559:643  if (_required > _owners.length) {... */\ntag_6:\n    /* \"bootcamp/week2/MultiSigWallet.sol\":656:665  uint256 i */\n  0x00\n    /* \"bootcamp/week2/MultiSigWallet.sol\":652:969  for(uint256 i = 0; i < _owners.length; i++) {... */\ntag_7:\n    /* \"bootcamp/week2/MultiSigWallet.sol\":675:682  _owners */\n  dup3\n    /* \"bootcamp/week2/MultiSigWallet.sol\":675:689  _owners.length */\n  mload\n    /* \"bootcamp/week2/MultiSigWallet.sol\":671:672  i */\n  dup2\n    /* \"bootcamp/week2/MultiSigWallet.sol\":671:689  i < _owners.length */\n  lt\n    /* \"bootcamp/week2/MultiSigWallet.sol\":652:969  for(uint256 i = 0; i < _owners.length; i++) {... */\n  iszero\n  tag_8\n  jumpi\n    /* \"bootcamp/week2/MultiSigWallet.sol\":710:723  address owner */\n  0x00\n    /* \"bootcamp/week2/MultiSigWallet.sol\":726:733  _owners */\n  dup4\n    /* \"bootcamp/week2/MultiSigWallet.sol\":734:735  i */\n  dup3\n    /* \"bootcamp/week2/MultiSigWallet.sol\":726:736  _owners[i] */\n  dup2\n  mload\n  dup2\n  lt\n  tag_10\n  jumpi\n  tag_11\n  tag_12\n  jump\t// in\ntag_11:\ntag_10:\n  0x20\n  mul\n  0x20\n  add\n  add\n  mload\n    /* \"bootcamp/week2/MultiSigWallet.sol\":710:736  address owner = _owners[i] */\n  swap1\n  pop\n    /* \"bootcamp/week2/MultiSigWallet.sol\":772:773  0 */\n  0x00\n    /* \"bootcamp/week2/MultiSigWallet.sol\":755:774  owner == address(0) */\n  0xffffffffffffffffffffffffffffffffffffffff\n  and\n    /* \"bootcamp/week2/MultiSigWallet.sol\":755:760  owner */\n  dup2\n    /* \"bootcamp/week2/MultiSigWallet.sol\":755:774  owner == address(0) */\n  0xffffffffffffffffffffffffffffffffffffffff\n  and\n  eq\n    /* \"bootcamp/week2/MultiSigWallet.sol\":751:837  if (owner == address(0)) {... */\n  iszero\n  tag_13\n  jumpi\n    /* \"bootcamp/week2/MultiSigWallet.sol\":801:822  InvalidOwnerAddress() */\n  mload(0x40)\n  0xd924e5f400000000000000000000000000000000000000000000000000000000\n  dup2\n  mstore\n  0x04\n  add\n  mload(0x40)\n  dup1\n  swap2\n  sub\n  swap1\n  revert\n    /* \"bootcamp/week2/MultiSigWallet.sol\":751:837  if (owner == address(0)) {... */\ntag_13:\n    /* \"bootcamp/week2/MultiSigWallet.sol\":854:861  isOwner */\n  0x00\n    /* \"bootcamp/week2/MultiSigWallet.sol\":854:868  isOwner[owner] */\n  dup1\n    /* \"bootcamp/week2/MultiSigWallet.sol\":862:867  owner */\n  dup3\n    /* \"bootcamp/week2/MultiSigWallet.sol\":854:868  isOwner[owner] */\n  0xffffffffffffffffffffffffffffffffffffffff\n  and\n  0xffffffffffffffffffffffffffffffffffffffff\n  and\n  dup2\n  mstore\n  0x20\n  add\n  swap1\n  dup2\n  mstore\n  0x20\n  add\n  0x00\n  keccak256\n  0x00\n  swap1\n  sload\n  swap1\n  0x0100\n  exp\n  swap1\n  div\n  0xff\n  and\n    /* \"bootcamp/week2/MultiSigWallet.sol\":850:924  if (isOwner[owner]) {... */\n  iszero\n  tag_14\n  jumpi\n    /* \"bootcamp/week2/MultiSigWallet.sol\":895:909  AlreadyOwner() */\n  mload(0x40)\n  0xc0159e0e00000000000000000000000000000000000000000000000000000000\n  dup2\n  mstore\n  0x04\n  add\n  mload(0x40)\n  dup1\n  swap2\n  sub\n  swap1\n  revert\n    /* \"bootcamp/week2/MultiSigWallet.sol\":850:924  if (isOwner[owner]) {... */\ntag_14:\n    /* \"bootcamp/week2/MultiSigWallet.sol\":954:958  true */\n  0x01\n    /* \"bootcamp/week2/MultiSigWallet.sol\":937:944  isOwner */\n  0x00\n    /* \"bootcamp/week2/MultiSigWallet.sol\":937:951  isOwner[owner] */\n  dup1\n    /* \"bootcamp/week2/MultiSigWallet.sol\":945:950  owner */\n  dup4\n    /* \"bootcamp/week2/MultiSigWallet.sol\":937:951  isOwner[owner] */\n  0xffffffffffffffffffffffffffffffffffffffff\n  and\n  0xffffffffffffffffffffffffffffffffffffffff\n  and\n  dup2\n  mstore\n  0x20\n  add\n  swap1\n  dup2\n  mstore\n  0x20\n  add\n  0x00\n  keccak256\n  0x00\n    /* \"bootcamp/week2/MultiSigWallet.sol\":937:958  isOwner[owner] = true */\n  0x0100\n  exp\n  dup2\n  sload\n  dup2\n  0xff\n  mul\n  not\n  and\n  swap1\n  dup4\n  iszero\n  iszero\n  mul\n  or\n  swap1\n  sstore\n  pop\n    /* \"bootcamp/week2/MultiSigWallet.sol\":696:969  {... */\n  pop\n    /* \"bootcamp/week2/MultiSigWallet.sol\":691:694  i++ */\n  dup1\n  dup1\n  tag_15\n  swap1\n  tag_16\n  jump\t// in\ntag_15:\n  swap2\n  pop\n  pop\n    /* \"bootcamp/week2/MultiSigWallet.sol\":652:969  for(uint256 i = 0; i < _owners.length; i++) {... */\n  jump(tag_7)\ntag_8:\n  pop\n    /* \"bootcamp/week2/MultiSigWallet.sol\":492:975  constructor(address[] memory _owners, uint256 _required) {... */\n  pop\n  pop\n    /* \"bootcamp/week2/MultiSigWallet.sol\":138:1162  contract MultiSigWallet {... */\n  jump(tag_17)\n    /* \"#utility.yul\":24:768   */\ntag_19:\n    /* \"#utility.yul\":131:136   */\n  0x00\n    /* \"#utility.yul\":156:237   */\n  tag_21\n    /* \"#utility.yul\":172:236   */\n  tag_22\n    /* \"#utility.yul\":229:235   */\n  dup5\n    /* \"#utility.yul\":172:236   */\n  tag_23\n  jump\t// in\ntag_22:\n    /* \"#utility.yul\":156:237   */\n  tag_24\n  jump\t// in\ntag_21:\n    /* \"#utility.yul\":147:237   */\n  swap1\n  pop\n    /* \"#utility.yul\":257:262   */\n  dup1\n    /* \"#utility.yul\":286:292   */\n  dup4\n    /* \"#utility.yul\":279:284   */\n  dup3\n    /* \"#utility.yul\":272:293   */\n  mstore\n    /* \"#utility.yul\":320:324   */\n  0x20\n    /* \"#utility.yul\":313:318   */\n  dup3\n    /* \"#utility.yul\":309:325   */\n  add\n    /* \"#utility.yul\":302:325   */\n  swap1\n  pop\n    /* \"#utility.yul\":346:352   */\n  dup3\n    /* \"#utility.yul\":396:399   */\n  dup6\n    /* \"#utility.yul\":388:392   */\n  0x20\n    /* \"#utility.yul\":380:386   */\n  dup7\n    /* \"#utility.yul\":376:393   */\n  mul\n    /* \"#utility.yul\":371:374   */\n  dup3\n    /* \"#utility.yul\":367:394   */\n  add\n    /* \"#utility.yul\":364:400   */\n  gt\n    /* \"#utility.yul\":361:504   */\n  iszero\n  tag_25\n  jumpi\n    /* \"#utility.yul\":415:494   */\n  tag_26\n  tag_27\n  jump\t// in\ntag_26:\n    /* \"#utility.yul\":361:504   */\ntag_25:\n    /* \"#utility.yul\":528:529   */\n  0x00\n    /* \"#utility.yul\":513:762   */\ntag_28:\n    /* \"#utility.yul\":538:544   */\n  dup6\n    /* \"#utility.yul\":535:536   */\n  dup2\n    /* \"#utility.yul\":532:545   */\n  lt\n    /* \"#utility.yul\":513:762   */\n  iszero\n  tag_30\n  jumpi\n    /* \"#utility.yul\":606:609   */\n  dup2\n    /* \"#utility.yul\":635:683   */\n  tag_31\n    /* \"#utility.yul\":679:682   */\n  dup9\n    /* \"#utility.yul\":667:677   */\n  dup3\n    /* \"#utility.yul\":635:683   */\n  tag_32\n  jump\t// in\ntag_31:\n    /* \"#utility.yul\":630:633   */\n  dup5\n    /* \"#utility.yul\":623:684   */\n  mstore\n    /* \"#utility.yul\":713:717   */\n  0x20\n    /* \"#utility.yul\":708:711   */\n  dup5\n    /* \"#utility.yul\":704:718   */\n  add\n    /* \"#utility.yul\":697:718   */\n  swap4\n  pop\n    /* \"#utility.yul\":747:751   */\n  0x20\n    /* \"#utility.yul\":742:745   */\n  dup4\n    /* \"#utility.yul\":738:752   */\n  add\n    /* \"#utility.yul\":731:752   */\n  swap3\n  pop\n    /* \"#utility.yul\":573:762   */\n  pop\n    /* \"#utility.yul\":560:561   */\n  0x01\n    /* \"#utility.yul\":557:558   */\n  dup2\n    /* \"#utility.yul\":553:562   */\n  add\n    /* \"#utility.yul\":548:562   */\n  swap1\n  pop\n    /* \"#utility.yul\":513:762   */\n  jump(tag_28)\ntag_30:\n    /* \"#utility.yul\":517:531   */\n  pop\n    /* \"#utility.yul\":137:768   */\n  pop\n  pop\n    /* \"#utility.yul\":24:768   */\n  swap4\n  swap3\n  pop\n  pop\n  pop\n  jump\t// out\n    /* \"#utility.yul\":774:917   */\ntag_32:\n    /* \"#utility.yul\":831:836   */\n  0x00\n    /* \"#utility.yul\":862:868   */\n  dup2\n    /* \"#utility.yul\":856:869   */\n  mload\n    /* \"#utility.yul\":847:869   */\n  swap1\n  pop\n    /* \"#utility.yul\":878:911   */\n  tag_34\n    /* \"#utility.yul\":905:910   */\n  dup2\n    /* \"#utility.yul\":878:911   */\n  tag_35\n  jump\t// in\ntag_34:\n    /* \"#utility.yul\":774:917   */\n  swap3\n  swap2\n  pop\n  pop\n  jump\t// out\n    /* \"#utility.yul\":940:1325   */\ntag_36:\n    /* \"#utility.yul\":1022:1027   */\n  0x00\n    /* \"#utility.yul\":1071:1074   */\n  dup3\n    /* \"#utility.yul\":1064:1068   */\n  0x1f\n    /* \"#utility.yul\":1056:1062   */\n  dup4\n    /* \"#utility.yul\":1052:1069   */\n  add\n    /* \"#utility.yul\":1048:1075   */\n  slt\n    /* \"#utility.yul\":1038:1160   */\n  tag_38\n  jumpi\n    /* \"#utility.yul\":1079:1158   */\n  tag_39\n  tag_40\n  jump\t// in\ntag_39:\n    /* \"#utility.yul\":1038:1160   */\ntag_38:\n    /* \"#utility.yul\":1189:1195   */\n  dup2\n    /* \"#utility.yul\":1183:1196   */\n  mload\n    /* \"#utility.yul\":1214:1319   */\n  tag_41\n    /* \"#utility.yul\":1315:1318   */\n  dup5\n    /* \"#utility.yul\":1307:1313   */\n  dup3\n    /* \"#utility.yul\":1300:1304   */\n  0x20\n    /* \"#utility.yul\":1292:1298   */\n  dup7\n    /* \"#utility.yul\":1288:1305   */\n  add\n    /* \"#utility.yul\":1214:1319   */\n  tag_19\n  jump\t// in\ntag_41:\n    /* \"#utility.yul\":1205:1319   */\n  swap2\n  pop\n    /* \"#utility.yul\":1028:1325   */\n  pop\n    /* \"#utility.yul\":940:1325   */\n  swap3\n  swap2\n  pop\n  pop\n  jump\t// out\n    /* \"#utility.yul\":1331:1474   */\ntag_42:\n    /* \"#utility.yul\":1388:1393   */\n  0x00\n    /* \"#utility.yul\":1419:1425   */\n  dup2\n    /* \"#utility.yul\":1413:1426   */\n  mload\n    /* \"#utility.yul\":1404:1426   */\n  swap1\n  pop\n    /* \"#utility.yul\":1435:1468   */\n  tag_44\n    /* \"#utility.yul\":1462:1467   */\n  dup2\n    /* \"#utility.yul\":1435:1468   */\n  tag_45\n  jump\t// in\ntag_44:\n    /* \"#utility.yul\":1331:1474   */\n  swap3\n  swap2\n  pop\n  pop\n  jump\t// out\n    /* \"#utility.yul\":1480:2190   */\ntag_3:\n    /* \"#utility.yul\":1584:1590   */\n  0x00\n    /* \"#utility.yul\":1592:1598   */\n  dup1\n    /* \"#utility.yul\":1641:1643   */\n  0x40\n    /* \"#utility.yul\":1629:1638   */\n  dup4\n    /* \"#utility.yul\":1620:1627   */\n  dup6\n    /* \"#utility.yul\":1616:1639   */\n  sub\n    /* \"#utility.yul\":1612:1644   */\n  slt\n    /* \"#utility.yul\":1609:1728   */\n  iszero\n  tag_47\n  jumpi\n    /* \"#utility.yul\":1647:1726   */\n  tag_48\n  tag_49\n  jump\t// in\ntag_48:\n    /* \"#utility.yul\":1609:1728   */\ntag_47:\n    /* \"#utility.yul\":1788:1789   */\n  0x00\n    /* \"#utility.yul\":1777:1786   */\n  dup4\n    /* \"#utility.yul\":1773:1790   */\n  add\n    /* \"#utility.yul\":1767:1791   */\n  mload\n    /* \"#utility.yul\":1818:1836   */\n  0xffffffffffffffff\n    /* \"#utility.yul\":1810:1816   */\n  dup2\n    /* \"#utility.yul\":1807:1837   */\n  gt\n    /* \"#utility.yul\":1804:1921   */\n  iszero\n  tag_50\n  jumpi\n    /* \"#utility.yul\":1840:1919   */\n  tag_51\n  tag_52\n  jump\t// in\ntag_51:\n    /* \"#utility.yul\":1804:1921   */\ntag_50:\n    /* \"#utility.yul\":1945:2034   */\n  tag_53\n    /* \"#utility.yul\":2026:2033   */\n  dup6\n    /* \"#utility.yul\":2017:2023   */\n  dup3\n    /* \"#utility.yul\":2006:2015   */\n  dup7\n    /* \"#utility.yul\":2002:2024   */\n  add\n    /* \"#utility.yul\":1945:2034   */\n  tag_36\n  jump\t// in\ntag_53:\n    /* \"#utility.yul\":1935:2034   */\n  swap3\n  pop\n    /* \"#utility.yul\":1738:2044   */\n  pop\n    /* \"#utility.yul\":2083:2085   */\n  0x20\n    /* \"#utility.yul\":2109:2173   */\n  tag_54\n    /* \"#utility.yul\":2165:2172   */\n  dup6\n    /* \"#utility.yul\":2156:2162   */\n  dup3\n    /* \"#utility.yul\":2145:2154   */\n  dup7\n    /* \"#utility.yul\":2141:2163   */\n  add\n    /* \"#utility.yul\":2109:2173   */\n  tag_42\n  jump\t// in\ntag_54:\n    /* \"#utility.yul\":2099:2173   */\n  swap2\n  pop\n    /* \"#utility.yul\":2054:2183   */\n  pop\n    /* \"#utility.yul\":1480:2190   */\n  swap3\n  pop\n  swap3\n  swap1\n  pop\n  jump\t// out\n    /* \"#utility.yul\":2196:2325   */\ntag_24:\n    /* \"#utility.yul\":2230:2236   */\n  0x00\n    /* \"#utility.yul\":2257:2277   */\n  tag_56\n  tag_57\n  jump\t// in\ntag_56:\n    /* \"#utility.yul\":2247:2277   */\n  swap1\n  pop\n    /* \"#utility.yul\":2286:2319   */\n  tag_58\n    /* \"#utility.yul\":2314:2318   */\n  dup3\n    /* \"#utility.yul\":2306:2312   */\n  dup3\n    /* \"#utility.yul\":2286:2319   */\n  tag_59\n  jump\t// in\ntag_58:\n    /* \"#utility.yul\":2196:2325   */\n  swap2\n  swap1\n  pop\n  jump\t// out\n    /* \"#utility.yul\":2331:2406   */\ntag_57:\n    /* \"#utility.yul\":2364:2370   */\n  0x00\n    /* \"#utility.yul\":2397:2399   */\n  0x40\n    /* \"#utility.yul\":2391:2400   */\n  mload\n    /* \"#utility.yul\":2381:2400   */\n  swap1\n  pop\n    /* \"#utility.yul\":2331:2406   */\n  swap1\n  jump\t// out\n    /* \"#utility.yul\":2412:2723   */\ntag_23:\n    /* \"#utility.yul\":2489:2493   */\n  0x00\n    /* \"#utility.yul\":2579:2597   */\n  0xffffffffffffffff\n    /* \"#utility.yul\":2571:2577   */\n  dup3\n    /* \"#utility.yul\":2568:2598   */\n  gt\n    /* \"#utility.yul\":2565:2621   */\n  iszero\n  tag_62\n  jumpi\n    /* \"#utility.yul\":2601:2619   */\n  tag_63\n  tag_64\n  jump\t// in\ntag_63:\n    /* \"#utility.yul\":2565:2621   */\ntag_62:\n    /* \"#utility.yul\":2651:2655   */\n  0x20\n    /* \"#utility.yul\":2643:2649   */\n  dup3\n    /* \"#utility.yul\":2639:2656   */\n  mul\n    /* \"#utility.yul\":2631:2656   */\n  swap1\n  pop\n    /* \"#utility.yul\":2711:2715   */\n  0x20\n    /* \"#utility.yul\":2705:2709   */\n  dup2\n    /* \"#utility.yul\":2701:2716   */\n  add\n    /* \"#utility.yul\":2693:2716   */\n  swap1\n  pop\n    /* \"#utility.yul\":2412:2723   */\n  swap2\n  swap1\n  pop\n  jump\t// out\n    /* \"#utility.yul\":2729:2825   */\ntag_65:\n    /* \"#utility.yul\":2766:2773   */\n  0x00\n    /* \"#utility.yul\":2795:2819   */\n  tag_67\n    /* \"#utility.yul\":2813:2818   */\n  dup3\n    /* \"#utility.yul\":2795:2819   */\n  tag_68\n  jump\t// in\ntag_67:\n    /* \"#utility.yul\":2784:2819   */\n  swap1\n  pop\n    /* \"#utility.yul\":2729:2825   */\n  swap2\n  swap1\n  pop\n  jump\t// out\n    /* \"#utility.yul\":2831:2957   */\ntag_68:\n    /* \"#utility.yul\":2868:2875   */\n  0x00\n    /* \"#utility.yul\":2908:2950   */\n  0xffffffffffffffffffffffffffffffffffffffff\n    /* \"#utility.yul\":2901:2906   */\n  dup3\n    /* \"#utility.yul\":2897:2951   */\n  and\n    /* \"#utility.yul\":2886:2951   */\n  swap1\n  pop\n    /* \"#utility.yul\":2831:2957   */\n  swap2\n  swap1\n  pop\n  jump\t// out\n    /* \"#utility.yul\":2963:3040   */\ntag_70:\n    /* \"#utility.yul\":3000:3007   */\n  0x00\n    /* \"#utility.yul\":3029:3034   */\n  dup2\n    /* \"#utility.yul\":3018:3034   */\n  swap1\n  pop\n    /* \"#utility.yul\":2963:3040   */\n  swap2\n  swap1\n  pop\n  jump\t// out\n    /* \"#utility.yul\":3046:3327   */\ntag_59:\n    /* \"#utility.yul\":3129:3156   */\n  tag_73\n    /* \"#utility.yul\":3151:3155   */\n  dup3\n    /* \"#utility.yul\":3129:3156   */\n  tag_74\n  jump\t// in\ntag_73:\n    /* \"#utility.yul\":3121:3127   */\n  dup2\n    /* \"#utility.yul\":3117:3157   */\n  add\n    /* \"#utility.yul\":3259:3265   */\n  dup2\n    /* \"#utility.yul\":3247:3257   */\n  dup2\n    /* \"#utility.yul\":3244:3266   */\n  lt\n    /* \"#utility.yul\":3223:3241   */\n  0xffffffffffffffff\n    /* \"#utility.yul\":3211:3221   */\n  dup3\n    /* \"#utility.yul\":3208:3242   */\n  gt\n    /* \"#utility.yul\":3205:3267   */\n  or\n    /* \"#utility.yul\":3202:3290   */\n  iszero\n  tag_75\n  jumpi\n    /* \"#utility.yul\":3270:3288   */\n  tag_76\n  tag_64\n  jump\t// in\ntag_76:\n    /* \"#utility.yul\":3202:3290   */\ntag_75:\n    /* \"#utility.yul\":3310:3320   */\n  dup1\n    /* \"#utility.yul\":3306:3308   */\n  0x40\n    /* \"#utility.yul\":3299:3321   */\n  mstore\n    /* \"#utility.yul\":3089:3327   */\n  pop\n    /* \"#utility.yul\":3046:3327   */\n  pop\n  pop\n  jump\t// out\n    /* \"#utility.yul\":3333:3566   */\ntag_16:\n    /* \"#utility.yul\":3372:3375   */\n  0x00\n    /* \"#utility.yul\":3395:3419   */\n  tag_78\n    /* \"#utility.yul\":3413:3418   */\n  dup3\n    /* \"#utility.yul\":3395:3419   */\n  tag_70\n  jump\t// in\ntag_78:\n    /* \"#utility.yul\":3386:3419   */\n  swap2\n  pop\n    /* \"#utility.yul\":3441:3507   */\n  0xffffffffffffffffffffffffffffffffffffffffffffffffffffffffffffffff\n    /* \"#utility.yul\":3434:3439   */\n  dup3\n    /* \"#utility.yul\":3431:3508   */\n  eq\n    /* \"#utility.yul\":3428:3531   */\n  iszero\n  tag_79\n  jumpi\n    /* \"#utility.yul\":3511:3529   */\n  tag_80\n  tag_81\n  jump\t// in\ntag_80:\n    /* \"#utility.yul\":3428:3531   */\ntag_79:\n    /* \"#utility.yul\":3558:3559   */\n  0x01\n    /* \"#utility.yul\":3551:3556   */\n  dup3\n    /* \"#utility.yul\":3547:3560   */\n  add\n    /* \"#utility.yul\":3540:3560   */\n  swap1\n  pop\n    /* \"#utility.yul\":3333:3566   */\n  swap2\n  swap1\n  pop\n  jump\t// out\n    /* \"#utility.yul\":3572:3752   */\ntag_81:\n    /* \"#utility.yul\":3620:3697   */\n  0x4e487b7100000000000000000000000000000000000000000000000000000000\n    /* \"#utility.yul\":3617:3618   */\n  0x00\n    /* \"#utility.yul\":3610:3698   */\n  mstore\n    /* \"#utility.yul\":3717:3721   */\n  0x11\n    /* \"#utility.yul\":3714:3715   */\n  0x04\n    /* \"#utility.yul\":3707:3722   */\n  mstore\n    /* \"#utility.yul\":3741:3745   */\n  0x24\n    /* \"#utility.yul\":3738:3739   */\n  0x00\n    /* \"#utility.yul\":3731:3746   */\n  revert\n    /* \"#utility.yul\":3758:3938   */\ntag_12:\n    /* \"#utility.yul\":3806:3883   */\n  0x4e487b7100000000000000000000000000000000000000000000000000000000\n    /* \"#utility.yul\":3803:3804   */\n  0x00\n    /* \"#utility.yul\":3796:3884   */\n  mstore\n    /* \"#utility.yul\":3903:3907   */\n  0x32\n    /* \"#utility.yul\":3900:3901   */\n  0x04\n    /* \"#utility.yul\":3893:3908   */\n  mstore\n    /* \"#utility.yul\":3927:3931   */\n  0x24\n    /* \"#utility.yul\":3924:3925   */\n  0x00\n    /* \"#utility.yul\":3917:3932   */\n  revert\n    /* \"#utility.yul\":3944:4124   */\ntag_64:\n    /* \"#utility.yul\":3992:4069   */\n  0x4e487b7100000000000000000000000000000000000000000000000000000000\n    /* \"#utility.yul\":3989:3990   */\n  0x00\n    /* \"#utility.yul\":3982:4070   */\n  mstore\n    /* \"#utility.yul\":4089:4093   */\n  0x41\n    /* \"#utility.yul\":4086:4087   */\n  0x04\n    /* \"#utility.yul\":4079:4094   */\n  mstore\n    /* \"#utility.yul\":4113:4117   */\n  0x24\n    /* \"#utility.yul\":4110:4111   */\n  0x00\n    /* \"#utility.yul\":4103:4118   */\n  revert\n    /* \"#utility.yul\":4130:4247   */\ntag_40:\n    /* \"#utility.yul\":4239:4240   */\n  0x00\n    /* \"#utility.yul\":4236:4237   */\n  dup1\n    /* \"#utility.yul\":4229:4241   */\n  revert\n    /* \"#utility.yul\":4253:4370   */\ntag_27:\n    /* \"#utility.yul\":4362:4363   */\n  0x00\n    /* \"#utility.yul\":4359:4360   */\n  dup1\n    /* \"#utility.yul\":4352:4364   */\n  revert\n    /* \"#utility.yul\":4376:4493   */\ntag_52:\n    /* \"#utility.yul\":4485:4486   */\n  0x00\n    /* \"#utility.yul\":4482:4483   */\n  dup1\n    /* \"#utility.yul\":4475:4487   */\n  revert\n    /* \"#utility.yul\":4499:4616   */\ntag_49:\n    /* \"#utility.yul\":4608:4609   */\n  0x00\n    /* \"#utility.yul\":4605:4606   */\n  dup1\n    /* \"#utility.yul\":4598:4610   */\n  revert\n    /* \"#utility.yul\":4622:4724   */\ntag_74:\n    /* \"#utility.yul\":4663:4669   */\n  0x00\n    /* \"#utility.yul\":4714:4716   */\n  0x1f\n    /* \"#utility.yul\":4710:4717   */\n  not\n    /* \"#utility.yul\":4705:4707   */\n  0x1f\n    /* \"#utility.yul\":4698:4703   */\n  dup4\n    /* \"#utility.yul\":4694:4708   */\n  add\n    /* \"#utility.yul\":4690:4718   */\n  and\n    /* \"#utility.yul\":4680:4718   */\n  swap1\n  pop\n    /* \"#utility.yul\":4622:4724   */\n  swap2\n  swap1\n  pop\n  jump\t// out\n    /* \"#utility.yul\":4730:4852   */\ntag_35:\n    /* \"#utility.yul\":4803:4827   */\n  tag_91\n    /* \"#utility.yul\":4821:4826   */\n  dup2\n    /* \"#utility.yul\":4803:4827   */\n  tag_65\n  jump\t// in\ntag_91:\n    /* \"#utility.yul\":4796:4801   */\n  dup2\n    /* \"#utility.yul\":4793:4828   */\n  eq\n    /* \"#utility.yul\":4783:4846   */\n  tag_92\n  jumpi\n    /* \"#utility.yul\":4842:4843   */\n  0x00\n    /* \"#utility.yul\":4839:4840   */\n  dup1\n    /* \"#utility.yul\":4832:4844   */\n  revert\n    /* \"#utility.yul\":4783:4846   */\ntag_92:\n    /* \"#utility.yul\":4730:4852   */\n  pop\n  jump\t// out\n    /* \"#utility.yul\":4858:4980   */\ntag_45:\n    /* \"#utility.yul\":4931:4955   */\n  tag_94\n    /* \"#utility.yul\":4949:4954   */\n  dup2\n    /* \"#utility.yul\":4931:4955   */\n  tag_70\n  jump\t// in\ntag_94:\n    /* \"#utility.yul\":4924:4929   */\n  dup2\n    /* \"#utility.yul\":4921:4956   */\n  eq\n    /* \"#utility.yul\":4911:4974   */\n  tag_95\n  jumpi\n    /* \"#utility.yul\":4970:4971   */\n  0x00\n    /* \"#utility.yul\":4967:4968   */\n  dup1\n    /* \"#utility.yul\":4960:4972   */\n  revert\n    /* \"#utility.yul\":4911:4974   */\ntag_95:\n    /* \"#utility.yul\":4858:4980   */\n  pop\n  jump\t// out\n    /* \"bootcamp/week2/MultiSigWallet.sol\":138:1162  contract MultiSigWallet {... */\ntag_17:\n  dataSize(sub_0)\n  dup1\n  dataOffset(sub_0)\n  0x00\n  codecopy\n  0x00\n  return\nstop\n\nsub_0: assembly {\n        /* \"bootcamp/week2/MultiSigWallet.sol\":138:1162  contract MultiSigWallet {... */\n      mstore(0x40, 0x80)\n      jumpi(tag_1, lt(calldatasize, 0x04))\n      shr(0xe0, calldataload(0x00))\n      dup1\n      0x2f54bf6e\n      eq\n      tag_3\n      jumpi\n      dup1\n      0x67830f77\n      eq\n      tag_4\n      jumpi\n      dup1\n      0x8253951a\n      eq\n      tag_5\n      jumpi\n      dup1\n      0xa2ed727f\n      eq\n      tag_6\n      jumpi\n      dup1\n      0xcdb52d0f\n      eq\n      tag_7\n      jumpi\n      dup1\n      0xe23fc3ce\n      eq\n      tag_8\n      jumpi\n      jump(tag_2)\n    tag_1:\n      jumpi(tag_2, calldatasize)\n      stop\n    tag_2:\n      0x00\n      dup1\n      revert\n        /* \"bootcamp/week2/MultiSigWallet.sol\":169:208  mapping(address => bool) public isOwner */\n    tag_3:\n      callvalue\n      dup1\n      iszero\n      tag_11\n      jumpi\n      0x00\n      dup1\n      revert\n    tag_11:\n      pop\n      tag_12\n      0x04\n      dup1\n      calldatasize\n      sub\n      dup2\n      add\n      swap1\n      tag_13\n      swap2\n      swap1\n      tag_14\n      jump\t// in\n    tag_13:\n      tag_15\n      jump\t// in\n    tag_12:\n      mload(0x40)\n      tag_16\n      swap2\n      swap1\n      tag_17\n      jump\t// in\n    tag_16:\n      mload(0x40)\n      dup1\n      swap2\n      sub\n      swap1\n      return\n        /* \"bootcamp/week2/MultiSigWallet.sol\":1129:1160  function revokeTx() external {} */\n    tag_4:\n      callvalue\n      dup1\n      iszero\n      tag_18\n      jumpi\n      0x00\n      dup1\n      revert\n    tag_18:\n      pop\n      tag_19\n      tag_20\n      jump\t// in\n    tag_19:\n      stop\n        /* \"bootcamp/week2/MultiSigWallet.sol\":384:444  mapping(uint256 => mapping(address => bool)) public approved */\n    tag_5:\n      callvalue\n      dup1\n      iszero\n      tag_21\n      jumpi\n      0x00\n      dup1\n      revert\n    tag_21:\n      pop\n      tag_22\n      0x04\n      dup1\n      calldatasize\n      sub\n      dup2\n      add\n      swap1\n      tag_23\n      swap2\n      swap1\n      tag_24\n      jump\t// in\n    tag_23:\n      tag_25\n      jump\t// in\n    tag_22:\n      mload(0x40)\n      tag_26\n      swap2\n      swap1\n      tag_17\n      jump\t// in\n    tag_26:\n      mload(0x40)\n      dup1\n      swap2\n      sub\n      swap1\n      return\n        /* \"bootcamp/week2/MultiSigWallet.sol\":1016:1047  function submitTx() external {} */\n    tag_6:\n      callvalue\n      dup1\n      iszero\n      tag_27\n      jumpi\n      0x00\n      dup1\n      revert\n    tag_27:\n      pop\n      tag_28\n      tag_29\n      jump\t// in\n    tag_28:\n      stop\n        /* \"bootcamp/week2/MultiSigWallet.sol\":1053:1085  function approveTx() external {} */\n    tag_7:\n      callvalue\n      dup1\n      iszero\n      tag_30\n      jumpi\n      0x00\n      dup1\n      revert\n    tag_30:\n      pop\n      tag_31\n      tag_32\n      jump\t// in\n    tag_31:\n      stop\n        /* \"bootcamp/week2/MultiSigWallet.sol\":1091:1123  function executeTx() external {} */\n    tag_8:\n      callvalue\n      dup1\n      iszero\n      tag_33\n      jumpi\n      0x00\n      dup1\n      revert\n    tag_33:\n      pop\n      tag_34\n      tag_35\n      jump\t// in\n    tag_34:\n      stop\n        /* \"bootcamp/week2/MultiSigWallet.sol\":169:208  mapping(address => bool) public isOwner */\n    tag_15:\n      mstore(0x20, 0x00)\n      dup1\n      0x00\n      mstore\n      keccak256(0x00, 0x40)\n      0x00\n      swap2\n      pop\n      sload\n      swap1\n      0x0100\n      exp\n      swap1\n      div\n      0xff\n      and\n      dup2\n      jump\t// out\n        /* \"bootcamp/week2/MultiSigWallet.sol\":1129:1160  function revokeTx() external {} */\n    tag_20:\n      jump\t// out\n        /* \"bootcamp/week2/MultiSigWallet.sol\":384:444  mapping(uint256 => mapping(address => bool)) public approved */\n    tag_25:\n      mstore(0x20, 0x01)\n      dup2\n      0x00\n      mstore\n      mstore(0x20, keccak256(0x00, 0x40))\n      dup1\n      0x00\n      mstore\n      keccak256(0x00, 0x40)\n      0x00\n      swap2\n      pop\n      swap2\n      pop\n      swap1\n      sload\n      swap1\n      0x0100\n      exp\n      swap1\n      div\n      0xff\n      and\n      dup2\n      jump\t// out\n        /* \"bootcamp/week2/MultiSigWallet.sol\":1016:1047  function submitTx() external {} */\n    tag_29:\n      jump\t// out\n        /* \"bootcamp/week2/MultiSigWallet.sol\":1053:1085  function approveTx() external {} */\n    tag_32:\n      jump\t// out\n        /* \"bootcamp/week2/MultiSigWallet.sol\":1091:1123  function executeTx() external {} */\n    tag_35:\n      jump\t// out\n        /* \"#utility.yul\":7:146   */\n    tag_41:\n        /* \"#utility.yul\":53:58   */\n      0x00\n        /* \"#utility.yul\":91:97   */\n      dup2\n        /* \"#utility.yul\":78:98   */\n      calldataload\n        /* \"#utility.yul\":69:98   */\n      swap1\n      pop\n        /* \"#utility.yul\":107:140   */\n      tag_43\n        /* \"#utility.yul\":134:139   */\n      dup2\n        /* \"#utility.yul\":107:140   */\n      tag_44\n      jump\t// in\n    tag_43:\n        /* \"#utility.yul\":7:146   */\n      swap3\n      swap2\n      pop\n      pop\n      jump\t// out\n        /* \"#utility.yul\":152:291   */\n    tag_45:\n        /* \"#utility.yul\":198:203   */\n      0x00\n        /* \"#utility.yul\":236:242   */\n      dup2\n        /* \"#utility.yul\":223:243   */\n      calldataload\n        /* \"#utility.yul\":214:243   */\n      swap1\n      pop\n        /* \"#utility.yul\":252:285   */\n      tag_47\n        /* \"#utility.yul\":279:284   */\n      dup2\n        /* \"#utility.yul\":252:285   */\n      tag_48\n      jump\t// in\n    tag_47:\n        /* \"#utility.yul\":152:291   */\n      swap3\n      swap2\n      pop\n      pop\n      jump\t// out\n        /* \"#utility.yul\":297:626   */\n    tag_14:\n        /* \"#utility.yul\":356:362   */\n      0x00\n        /* \"#utility.yul\":405:407   */\n      0x20\n        /* \"#utility.yul\":393:402   */\n      dup3\n        /* \"#utility.yul\":384:391   */\n      dup5\n        /* \"#utility.yul\":380:403   */\n      sub\n        /* \"#utility.yul\":376:408   */\n      slt\n        /* \"#utility.yul\":373:492   */\n      iszero\n      tag_50\n      jumpi\n        /* \"#utility.yul\":411:490   */\n      tag_51\n      tag_52\n      jump\t// in\n    tag_51:\n        /* \"#utility.yul\":373:492   */\n    tag_50:\n        /* \"#utility.yul\":531:532   */\n      0x00\n        /* \"#utility.yul\":556:609   */\n      tag_53\n        /* \"#utility.yul\":601:608   */\n      dup5\n        /* \"#utility.yul\":592:598   */\n      dup3\n        /* \"#utility.yul\":581:590   */\n      dup6\n        /* \"#utility.yul\":577:599   */\n      add\n        /* \"#utility.yul\":556:609   */\n      tag_41\n      jump\t// in\n    tag_53:\n        /* \"#utility.yul\":546:609   */\n      swap2\n      pop\n        /* \"#utility.yul\":502:619   */\n      pop\n        /* \"#utility.yul\":297:626   */\n      swap3\n      swap2\n      pop\n      pop\n      jump\t// out\n        /* \"#utility.yul\":632:1106   */\n    tag_24:\n        /* \"#utility.yul\":700:706   */\n      0x00\n        /* \"#utility.yul\":708:714   */\n      dup1\n        /* \"#utility.yul\":757:759   */\n      0x40\n        /* \"#utility.yul\":745:754   */\n      dup4\n        /* \"#utility.yul\":736:743   */\n      dup6\n        /* \"#utility.yul\":732:755   */\n      sub\n        /* \"#utility.yul\":728:760   */\n      slt\n        /* \"#utility.yul\":725:844   */\n      iszero\n      tag_55\n      jumpi\n        /* \"#utility.yul\":763:842   */\n      tag_56\n      tag_52\n      jump\t// in\n    tag_56:\n        /* \"#utility.yul\":725:844   */\n    tag_55:\n        /* \"#utility.yul\":883:884   */\n      0x00\n        /* \"#utility.yul\":908:961   */\n      tag_57\n        /* \"#utility.yul\":953:960   */\n      dup6\n        /* \"#utility.yul\":944:950   */\n      dup3\n        /* \"#utility.yul\":933:942   */\n      dup7\n        /* \"#utility.yul\":929:951   */\n      add\n        /* \"#utility.yul\":908:961   */\n      tag_45\n      jump\t// in\n    tag_57:\n        /* \"#utility.yul\":898:961   */\n      swap3\n      pop\n        /* \"#utility.yul\":854:971   */\n      pop\n        /* \"#utility.yul\":1010:1012   */\n      0x20\n        /* \"#utility.yul\":1036:1089   */\n      tag_58\n        /* \"#utility.yul\":1081:1088   */\n      dup6\n        /* \"#utility.yul\":1072:1078   */\n      dup3\n        /* \"#utility.yul\":1061:1070   */\n      dup7\n        /* \"#utility.yul\":1057:1079   */\n      add\n        /* \"#utility.yul\":1036:1089   */\n      tag_41\n      jump\t// in\n    tag_58:\n        /* \"#utility.yul\":1026:1089   */\n      swap2\n      pop\n        /* \"#utility.yul\":981:1099   */\n      pop\n        /* \"#utility.yul\":632:1106   */\n      swap3\n      pop\n      swap3\n      swap1\n      pop\n      jump\t// out\n        /* \"#utility.yul\":1112:1221   */\n    tag_59:\n        /* \"#utility.yul\":1193:1214   */\n      tag_61\n        /* \"#utility.yul\":1208:1213   */\n      dup2\n        /* \"#utility.yul\":1193:1214   */\n      tag_62\n      jump\t// in\n    tag_61:\n        /* \"#utility.yul\":1188:1191   */\n      dup3\n        /* \"#utility.yul\":1181:1215   */\n      mstore\n        /* \"#utility.yul\":1112:1221   */\n      pop\n      pop\n      jump\t// out\n        /* \"#utility.yul\":1227:1437   */\n    tag_17:\n        /* \"#utility.yul\":1314:1318   */\n      0x00\n        /* \"#utility.yul\":1352:1354   */\n      0x20\n        /* \"#utility.yul\":1341:1350   */\n      dup3\n        /* \"#utility.yul\":1337:1355   */\n      add\n        /* \"#utility.yul\":1329:1355   */\n      swap1\n      pop\n        /* \"#utility.yul\":1365:1430   */\n      tag_64\n        /* \"#utility.yul\":1427:1428   */\n      0x00\n        /* \"#utility.yul\":1416:1425   */\n      dup4\n        /* \"#utility.yul\":1412:1429   */\n      add\n        /* \"#utility.yul\":1403:1409   */\n      dup5\n        /* \"#utility.yul\":1365:1430   */\n      tag_59\n      jump\t// in\n    tag_64:\n        /* \"#utility.yul\":1227:1437   */\n      swap3\n      swap2\n      pop\n      pop\n      jump\t// out\n        /* \"#utility.yul\":1524:1620   */\n    tag_67:\n        /* \"#utility.yul\":1561:1568   */\n      0x00\n        /* \"#utility.yul\":1590:1614   */\n      tag_69\n        /* \"#utility.yul\":1608:1613   */\n      dup3\n        /* \"#utility.yul\":1590:1614   */\n      tag_70\n      jump\t// in\n    tag_69:\n        /* \"#utility.yul\":1579:1614   */\n      swap1\n      pop\n        /* \"#utility.yul\":1524:1620   */\n      swap2\n      swap1\n      pop\n      jump\t// out\n        /* \"#utility.yul\":1626:1716   */\n    tag_62:\n        /* \"#utility.yul\":1660:1667   */\n      0x00\n        /* \"#utility.yul\":1703:1708   */\n      dup2\n        /* \"#utility.yul\":1696:1709   */\n      iszero\n        /* \"#utility.yul\":1689:1710   */\n      iszero\n        /* \"#utility.yul\":1678:1710   */\n      swap1\n      pop\n        /* \"#utility.yul\":1626:1716   */\n      swap2\n      swap1\n      pop\n      jump\t// out\n        /* \"#utility.yul\":1722:1848   */\n    tag_70:\n        /* \"#utility.yul\":1759:1766   */\n      0x00\n        /* \"#utility.yul\":1799:1841   */\n      0xffffffffffffffffffffffffffffffffffffffff\n        /* \"#utility.yul\":1792:1797   */\n      dup3\n        /* \"#utility.yul\":1788:1842   */\n      and\n        /* \"#utility.yul\":1777:1842   */\n      swap1\n      pop\n        /* \"#utility.yul\":1722:1848   */\n      swap2\n      swap1\n      pop\n      jump\t// out\n        /* \"#utility.yul\":1854:1931   */\n    tag_73:\n        /* \"#utility.yul\":1891:1898   */\n      0x00\n        /* \"#utility.yul\":1920:1925   */\n      dup2\n        /* \"#utility.yul\":1909:1925   */\n      swap1\n      pop\n        /* \"#utility.yul\":1854:1931   */\n      swap2\n      swap1\n      pop\n      jump\t// out\n        /* \"#utility.yul\":2060:2177   */\n    tag_52:\n        /* \"#utility.yul\":2169:2170   */\n      0x00\n        /* \"#utility.yul\":2166:2167   */\n      dup1\n        /* \"#utility.yul\":2159:2171   */\n      revert\n        /* \"#utility.yul\":2183:2305   */\n    tag_44:\n        /* \"#utility.yul\":2256:2280   */\n      tag_79\n        /* \"#utility.yul\":2274:2279   */\n      dup2\n        /* \"#utility.yul\":2256:2280   */\n      tag_67\n      jump\t// in\n    tag_79:\n        /* \"#utility.yul\":2249:2254   */\n      dup2\n        /* \"#utility.yul\":2246:2281   */\n      eq\n        /* \"#utility.yul\":2236:2299   */\n      tag_80\n      jumpi\n        /* \"#utility.yul\":2295:2296   */\n      0x00\n        /* \"#utility.yul\":2292:2293   */\n      dup1\n        /* \"#utility.yul\":2285:2297   */\n      revert\n        /* \"#utility.yul\":2236:2299   */\n    tag_80:\n        /* \"#utility.yul\":2183:2305   */\n      pop\n      jump\t// out\n        /* \"#utility.yul\":2311:2433   */\n    tag_48:\n        /* \"#utility.yul\":2384:2408   */\n      tag_82\n        /* \"#utility.yul\":2402:2407   */\n      dup2\n        /* \"#utility.yul\":2384:2408   */\n      tag_73\n      jump\t// in\n    tag_82:\n        /* \"#utility.yul\":2377:2382   */\n      dup2\n        /* \"#utility.yul\":2374:2409   */\n      eq\n        /* \"#utility.yul\":2364:2427   */\n      tag_83\n      jumpi\n        /* \"#utility.yul\":2423:2424   */\n      0x00\n        /* \"#utility.yul\":2420:2421   */\n      dup1\n        /* \"#utility.yul\":2413:2425   */\n      revert\n        /* \"#utility.yul\":2364:2427   */\n    tag_83:\n        /* \"#utility.yul\":2311:2433   */\n      pop\n      jump\t// out\n\n    auxdata: 0xa2646970667358221220961b466181e1aa7fcc0def6873b80772f5c9db0602ea9df06795917c7390d47a64736f6c63430008070033\n}\n",
				"bytecode": {
					"linkReferences": {},
					"object": "608060405234801561001057600080fd5b50604051610813380380610813833981810160405281019061003291906102bd565b815181111561006d576040517faa6eac5100000000000000000000000000000000000000000000000000000000815260040160405180910390fd5b60005b82518110156101ed57600083828151811061008e5761008d61044f565b5b60200260200101519050600073ffffffffffffffffffffffffffffffffffffffff168173ffffffffffffffffffffffffffffffffffffffff1614156100ff576040517fd924e5f400000000000000000000000000000000000000000000000000000000815260040160405180910390fd5b6000808273ffffffffffffffffffffffffffffffffffffffff1673ffffffffffffffffffffffffffffffffffffffff16815260200190815260200160002060009054906101000a900460ff1615610182576040517fc0159e0e00000000000000000000000000000000000000000000000000000000815260040160405180910390fd5b60016000808373ffffffffffffffffffffffffffffffffffffffff1673ffffffffffffffffffffffffffffffffffffffff16815260200190815260200160002060006101000a81548160ff0219169083151502179055505080806101e5906103d7565b915050610070565b505050610500565b60006102086102038461033e565b610319565b9050808382526020820190508285602086028201111561022b5761022a6104b2565b5b60005b8581101561025b57816102418882610265565b84526020840193506020830192505060018101905061022e565b5050509392505050565b600081519050610274816104d2565b92915050565b600082601f83011261028f5761028e6104ad565b5b815161029f8482602086016101f5565b91505092915050565b6000815190506102b7816104e9565b92915050565b600080604083850312156102d4576102d36104bc565b5b600083015167ffffffffffffffff8111156102f2576102f16104b7565b5b6102fe8582860161027a565b925050602061030f858286016102a8565b9150509250929050565b6000610323610334565b905061032f82826103a6565b919050565b6000604051905090565b600067ffffffffffffffff8211156103595761035861047e565b5b602082029050602081019050919050565b60006103758261037c565b9050919050565b600073ffffffffffffffffffffffffffffffffffffffff82169050919050565b6000819050919050565b6103af826104c1565b810181811067ffffffffffffffff821117156103ce576103cd61047e565b5b80604052505050565b60006103e28261039c565b91507fffffffffffffffffffffffffffffffffffffffffffffffffffffffffffffffff82141561041557610414610420565b5b600182019050919050565b7f4e487b7100000000000000000000000000000000000000000000000000000000600052601160045260246000fd5b7f4e487b7100000000000000000000000000000000000000000000000000000000600052603260045260246000fd5b7f4e487b7100000000000000000000000000000000000000000000000000000000600052604160045260246000fd5b600080fd5b600080fd5b600080fd5b600080fd5b6000601f19601f8301169050919050565b6104db8161036a565b81146104e657600080fd5b50565b6104f28161039c565b81146104fd57600080fd5b50565b6103048061050f6000396000f3fe6080604052600436106100595760003560e01c80632f54bf6e1461006557806367830f77146100a25780638253951a146100b9578063a2ed727f146100f6578063cdb52d0f1461010d578063e23fc3ce1461012457610060565b3661006057005b600080fd5b34801561007157600080fd5b5061008c600480360381019061008791906101bc565b61013b565b6040516100999190610238565b60405180910390f35b3480156100ae57600080fd5b506100b761015b565b005b3480156100c557600080fd5b506100e060048036038101906100db91906101e9565b61015d565b6040516100ed9190610238565b60405180910390f35b34801561010257600080fd5b5061010b61018c565b005b34801561011957600080fd5b5061012261018e565b005b34801561013057600080fd5b50610139610190565b005b60006020528060005260406000206000915054906101000a900460ff1681565b565b60016020528160005260406000206020528060005260406000206000915091509054906101000a900460ff1681565b565b565b565b6000813590506101a1816102a0565b92915050565b6000813590506101b6816102b7565b92915050565b6000602082840312156101d2576101d161029b565b5b60006101e084828501610192565b91505092915050565b60008060408385031215610200576101ff61029b565b5b600061020e858286016101a7565b925050602061021f85828601610192565b9150509250929050565b61023281610265565b82525050565b600060208201905061024d6000830184610229565b92915050565b600061025e82610271565b9050919050565b60008115159050919050565b600073ffffffffffffffffffffffffffffffffffffffff82169050919050565b6000819050919050565b600080fd5b6102a981610253565b81146102b457600080fd5b50565b6102c081610291565b81146102cb57600080fd5b5056fea2646970667358221220961b466181e1aa7fcc0def6873b80772f5c9db0602ea9df06795917c7390d47a64736f6c63430008070033",
					"opcodes": "PUSH1 0x80 PUSH1 0x40 MSTORE CALLVALUE DUP1 ISZERO PUSH2 0x10 JUMPI PUSH1 0x0 DUP1 REVERT JUMPDEST POP PUSH1 0x40 MLOAD PUSH2 0x813 CODESIZE SUB DUP1 PUSH2 0x813 DUP4 CODECOPY DUP2 DUP2 ADD PUSH1 0x40 MSTORE DUP2 ADD SWAP1 PUSH2 0x32 SWAP2 SWAP1 PUSH2 0x2BD JUMP JUMPDEST DUP2 MLOAD DUP2 GT ISZERO PUSH2 0x6D JUMPI PUSH1 0x40 MLOAD PUSH32 0xAA6EAC5100000000000000000000000000000000000000000000000000000000 DUP2 MSTORE PUSH1 0x4 ADD PUSH1 0x40 MLOAD DUP1 SWAP2 SUB SWAP1 REVERT JUMPDEST PUSH1 0x0 JUMPDEST DUP3 MLOAD DUP2 LT ISZERO PUSH2 0x1ED JUMPI PUSH1 0x0 DUP4 DUP3 DUP2 MLOAD DUP2 LT PUSH2 0x8E JUMPI PUSH2 0x8D PUSH2 0x44F JUMP JUMPDEST JUMPDEST PUSH1 0x20 MUL PUSH1 0x20 ADD ADD MLOAD SWAP1 POP PUSH1 0x0 PUSH20 0xFFFFFFFFFFFFFFFFFFFFFFFFFFFFFFFFFFFFFFFF AND DUP2 PUSH20 0xFFFFFFFFFFFFFFFFFFFFFFFFFFFFFFFFFFFFFFFF AND EQ ISZERO PUSH2 0xFF JUMPI PUSH1 0x40 MLOAD PUSH32 0xD924E5F400000000000000000000000000000000000000000000000000000000 DUP2 MSTORE PUSH1 0x4 ADD PUSH1 0x40 MLOAD DUP1 SWAP2 SUB SWAP1 REVERT JUMPDEST PUSH1 0x0 DUP1 DUP3 PUSH20 0xFFFFFFFFFFFFFFFFFFFFFFFFFFFFFFFFFFFFFFFF AND PUSH20 0xFFFFFFFFFFFFFFFFFFFFFFFFFFFFFFFFFFFFFFFF AND DUP2 MSTORE PUSH1 0x20 ADD SWAP1 DUP2 MSTORE PUSH1 0x20 ADD PUSH1 0x0 KECCAK256 PUSH1 0x0 SWAP1 SLOAD SWAP1 PUSH2 0x100 EXP SWAP1 DIV PUSH1 0xFF AND ISZERO PUSH2 0x182 JUMPI PUSH1 0x40 MLOAD PUSH32 0xC0159E0E00000000000000000000000000000000000000000000000000000000 DUP2 MSTORE PUSH1 0x4 ADD PUSH1 0x40 MLOAD DUP1 SWAP2 SUB SWAP1 REVERT JUMPDEST PUSH1 0x1 PUSH1 0x0 DUP1 DUP4 PUSH20 0xFFFFFFFFFFFFFFFFFFFFFFFFFFFFFFFFFFFFFFFF AND PUSH20 0xFFFFFFFFFFFFFFFFFFFFFFFFFFFFFFFFFFFFFFFF AND DUP2 MSTORE PUSH1 0x20 ADD SWAP1 DUP2 MSTORE PUSH1 0x20 ADD PUSH1 0x0 KECCAK256 PUSH1 0x0 PUSH2 0x100 EXP DUP2 SLOAD DUP2 PUSH1 0xFF MUL NOT AND SWAP1 DUP4 ISZERO ISZERO MUL OR SWAP1 SSTORE POP POP DUP1 DUP1 PUSH2 0x1E5 SWAP1 PUSH2 0x3D7 JUMP JUMPDEST SWAP2 POP POP PUSH2 0x70 JUMP JUMPDEST POP POP POP PUSH2 0x500 JUMP JUMPDEST PUSH1 0x0 PUSH2 0x208 PUSH2 0x203 DUP5 PUSH2 0x33E JUMP JUMPDEST PUSH2 0x319 JUMP JUMPDEST SWAP1 POP DUP1 DUP4 DUP3 MSTORE PUSH1 0x20 DUP3 ADD SWAP1 POP DUP3 DUP6 PUSH1 0x20 DUP7 MUL DUP3 ADD GT ISZERO PUSH2 0x22B JUMPI PUSH2 0x22A PUSH2 0x4B2 JUMP JUMPDEST JUMPDEST PUSH1 0x0 JUMPDEST DUP6 DUP2 LT ISZERO PUSH2 0x25B JUMPI DUP2 PUSH2 0x241 DUP9 DUP3 PUSH2 0x265 JUMP JUMPDEST DUP5 MSTORE PUSH1 0x20 DUP5 ADD SWAP4 POP PUSH1 0x20 DUP4 ADD SWAP3 POP POP PUSH1 0x1 DUP2 ADD SWAP1 POP PUSH2 0x22E JUMP JUMPDEST POP POP POP SWAP4 SWAP3 POP POP POP JUMP JUMPDEST PUSH1 0x0 DUP2 MLOAD SWAP1 POP PUSH2 0x274 DUP2 PUSH2 0x4D2 JUMP JUMPDEST SWAP3 SWAP2 POP POP JUMP JUMPDEST PUSH1 0x0 DUP3 PUSH1 0x1F DUP4 ADD SLT PUSH2 0x28F JUMPI PUSH2 0x28E PUSH2 0x4AD JUMP JUMPDEST JUMPDEST DUP2 MLOAD PUSH2 0x29F DUP5 DUP3 PUSH1 0x20 DUP7 ADD PUSH2 0x1F5 JUMP JUMPDEST SWAP2 POP POP SWAP3 SWAP2 POP POP JUMP JUMPDEST PUSH1 0x0 DUP2 MLOAD SWAP1 POP PUSH2 0x2B7 DUP2 PUSH2 0x4E9 JUMP JUMPDEST SWAP3 SWAP2 POP POP JUMP JUMPDEST PUSH1 0x0 DUP1 PUSH1 0x40 DUP4 DUP6 SUB SLT ISZERO PUSH2 0x2D4 JUMPI PUSH2 0x2D3 PUSH2 0x4BC JUMP JUMPDEST JUMPDEST PUSH1 0x0 DUP4 ADD MLOAD PUSH8 0xFFFFFFFFFFFFFFFF DUP2 GT ISZERO PUSH2 0x2F2 JUMPI PUSH2 0x2F1 PUSH2 0x4B7 JUMP JUMPDEST JUMPDEST PUSH2 0x2FE DUP6 DUP3 DUP7 ADD PUSH2 0x27A JUMP JUMPDEST SWAP3 POP POP PUSH1 0x20 PUSH2 0x30F DUP6 DUP3 DUP7 ADD PUSH2 0x2A8 JUMP JUMPDEST SWAP2 POP POP SWAP3 POP SWAP3 SWAP1 POP JUMP JUMPDEST PUSH1 0x0 PUSH2 0x323 PUSH2 0x334 JUMP JUMPDEST SWAP1 POP PUSH2 0x32F DUP3 DUP3 PUSH2 0x3A6 JUMP JUMPDEST SWAP2 SWAP1 POP JUMP JUMPDEST PUSH1 0x0 PUSH1 0x40 MLOAD SWAP1 POP SWAP1 JUMP JUMPDEST PUSH1 0x0 PUSH8 0xFFFFFFFFFFFFFFFF DUP3 GT ISZERO PUSH2 0x359 JUMPI PUSH2 0x358 PUSH2 0x47E JUMP JUMPDEST JUMPDEST PUSH1 0x20 DUP3 MUL SWAP1 POP PUSH1 0x20 DUP2 ADD SWAP1 POP SWAP2 SWAP1 POP JUMP JUMPDEST PUSH1 0x0 PUSH2 0x375 DUP3 PUSH2 0x37C JUMP JUMPDEST SWAP1 POP SWAP2 SWAP1 POP JUMP JUMPDEST PUSH1 0x0 PUSH20 0xFFFFFFFFFFFFFFFFFFFFFFFFFFFFFFFFFFFFFFFF DUP3 AND SWAP1 POP SWAP2 SWAP1 POP JUMP JUMPDEST PUSH1 0x0 DUP2 SWAP1 POP SWAP2 SWAP1 POP JUMP JUMPDEST PUSH2 0x3AF DUP3 PUSH2 0x4C1 JUMP JUMPDEST DUP2 ADD DUP2 DUP2 LT PUSH8 0xFFFFFFFFFFFFFFFF DUP3 GT OR ISZERO PUSH2 0x3CE JUMPI PUSH2 0x3CD PUSH2 0x47E JUMP JUMPDEST JUMPDEST DUP1 PUSH1 0x40 MSTORE POP POP POP JUMP JUMPDEST PUSH1 0x0 PUSH2 0x3E2 DUP3 PUSH2 0x39C JUMP JUMPDEST SWAP2 POP PUSH32 0xFFFFFFFFFFFFFFFFFFFFFFFFFFFFFFFFFFFFFFFFFFFFFFFFFFFFFFFFFFFFFFFF DUP3 EQ ISZERO PUSH2 0x415 JUMPI PUSH2 0x414 PUSH2 0x420 JUMP JUMPDEST JUMPDEST PUSH1 0x1 DUP3 ADD SWAP1 POP SWAP2 SWAP1 POP JUMP JUMPDEST PUSH32 0x4E487B7100000000000000000000000000000000000000000000000000000000 PUSH1 0x0 MSTORE PUSH1 0x11 PUSH1 0x4 MSTORE PUSH1 0x24 PUSH1 0x0 REVERT JUMPDEST PUSH32 0x4E487B7100000000000000000000000000000000000000000000000000000000 PUSH1 0x0 MSTORE PUSH1 0x32 PUSH1 0x4 MSTORE PUSH1 0x24 PUSH1 0x0 REVERT JUMPDEST PUSH32 0x4E487B7100000000000000000000000000000000000000000000000000000000 PUSH1 0x0 MSTORE PUSH1 0x41 PUSH1 0x4 MSTORE PUSH1 0x24 PUSH1 0x0 REVERT JUMPDEST PUSH1 0x0 DUP1 REVERT JUMPDEST PUSH1 0x0 DUP1 REVERT JUMPDEST PUSH1 0x0 DUP1 REVERT JUMPDEST PUSH1 0x0 DUP1 REVERT JUMPDEST PUSH1 0x0 PUSH1 0x1F NOT PUSH1 0x1F DUP4 ADD AND SWAP1 POP SWAP2 SWAP1 POP JUMP JUMPDEST PUSH2 0x4DB DUP2 PUSH2 0x36A JUMP JUMPDEST DUP2 EQ PUSH2 0x4E6 JUMPI PUSH1 0x0 DUP1 REVERT JUMPDEST POP JUMP JUMPDEST PUSH2 0x4F2 DUP2 PUSH2 0x39C JUMP JUMPDEST DUP2 EQ PUSH2 0x4FD JUMPI PUSH1 0x0 DUP1 REVERT JUMPDEST POP JUMP JUMPDEST PUSH2 0x304 DUP1 PUSH2 0x50F PUSH1 0x0 CODECOPY PUSH1 0x0 RETURN INVALID PUSH1 0x80 PUSH1 0x40 MSTORE PUSH1 0x4 CALLDATASIZE LT PUSH2 0x59 JUMPI PUSH1 0x0 CALLDATALOAD PUSH1 0xE0 SHR DUP1 PUSH4 0x2F54BF6E EQ PUSH2 0x65 JUMPI DUP1 PUSH4 0x67830F77 EQ PUSH2 0xA2 JUMPI DUP1 PUSH4 0x8253951A EQ PUSH2 0xB9 JUMPI DUP1 PUSH4 0xA2ED727F EQ PUSH2 0xF6 JUMPI DUP1 PUSH4 0xCDB52D0F EQ PUSH2 0x10D JUMPI DUP1 PUSH4 0xE23FC3CE EQ PUSH2 0x124 JUMPI PUSH2 0x60 JUMP JUMPDEST CALLDATASIZE PUSH2 0x60 JUMPI STOP JUMPDEST PUSH1 0x0 DUP1 REVERT JUMPDEST CALLVALUE DUP1 ISZERO PUSH2 0x71 JUMPI PUSH1 0x0 DUP1 REVERT JUMPDEST POP PUSH2 0x8C PUSH1 0x4 DUP1 CALLDATASIZE SUB DUP2 ADD SWAP1 PUSH2 0x87 SWAP2 SWAP1 PUSH2 0x1BC JUMP JUMPDEST PUSH2 0x13B JUMP JUMPDEST PUSH1 0x40 MLOAD PUSH2 0x99 SWAP2 SWAP1 PUSH2 0x238 JUMP JUMPDEST PUSH1 0x40 MLOAD DUP1 SWAP2 SUB SWAP1 RETURN JUMPDEST CALLVALUE DUP1 ISZERO PUSH2 0xAE JUMPI PUSH1 0x0 DUP1 REVERT JUMPDEST POP PUSH2 0xB7 PUSH2 0x15B JUMP JUMPDEST STOP JUMPDEST CALLVALUE DUP1 ISZERO PUSH2 0xC5 JUMPI PUSH1 0x0 DUP1 REVERT JUMPDEST POP PUSH2 0xE0 PUSH1 0x4 DUP1 CALLDATASIZE SUB DUP2 ADD SWAP1 PUSH2 0xDB SWAP2 SWAP1 PUSH2 0x1E9 JUMP JUMPDEST PUSH2 0x15D JUMP JUMPDEST PUSH1 0x40 MLOAD PUSH2 0xED SWAP2 SWAP1 PUSH2 0x238 JUMP JUMPDEST PUSH1 0x40 MLOAD DUP1 SWAP2 SUB SWAP1 RETURN JUMPDEST CALLVALUE DUP1 ISZERO PUSH2 0x102 JUMPI PUSH1 0x0 DUP1 REVERT JUMPDEST POP PUSH2 0x10B PUSH2 0x18C JUMP JUMPDEST STOP JUMPDEST CALLVALUE DUP1 ISZERO PUSH2 0x119 JUMPI PUSH1 0x0 DUP1 REVERT JUMPDEST POP PUSH2 0x122 PUSH2 0x18E JUMP JUMPDEST STOP JUMPDEST CALLVALUE DUP1 ISZERO PUSH2 0x130 JUMPI PUSH1 0x0 DUP1 REVERT JUMPDEST POP PUSH2 0x139 PUSH2 0x190 JUMP JUMPDEST STOP JUMPDEST PUSH1 0x0 PUSH1 0x20 MSTORE DUP1 PUSH1 0x0 MSTORE PUSH1 0x40 PUSH1 0x0 KECCAK256 PUSH1 0x0 SWAP2 POP SLOAD SWAP1 PUSH2 0x100 EXP SWAP1 DIV PUSH1 0xFF AND DUP2 JUMP JUMPDEST JUMP JUMPDEST PUSH1 0x1 PUSH1 0x20 MSTORE DUP2 PUSH1 0x0 MSTORE PUSH1 0x40 PUSH1 0x0 KECCAK256 PUSH1 0x20 MSTORE DUP1 PUSH1 0x0 MSTORE PUSH1 0x40 PUSH1 0x0 KECCAK256 PUSH1 0x0 SWAP2 POP SWAP2 POP SWAP1 SLOAD SWAP1 PUSH2 0x100 EXP SWAP1 DIV PUSH1 0xFF AND DUP2 JUMP JUMPDEST JUMP JUMPDEST JUMP JUMPDEST JUMP JUMPDEST PUSH1 0x0 DUP2 CALLDATALOAD SWAP1 POP PUSH2 0x1A1 DUP2 PUSH2 0x2A0 JUMP JUMPDEST SWAP3 SWAP2 POP POP JUMP JUMPDEST PUSH1 0x0 DUP2 CALLDATALOAD SWAP1 POP PUSH2 0x1B6 DUP2 PUSH2 0x2B7 JUMP JUMPDEST SWAP3 SWAP2 POP POP JUMP JUMPDEST PUSH1 0x0 PUSH1 0x20 DUP3 DUP5 SUB SLT ISZERO PUSH2 0x1D2 JUMPI PUSH2 0x1D1 PUSH2 0x29B JUMP JUMPDEST JUMPDEST PUSH1 0x0 PUSH2 0x1E0 DUP5 DUP3 DUP6 ADD PUSH2 0x192 JUMP JUMPDEST SWAP2 POP POP SWAP3 SWAP2 POP POP JUMP JUMPDEST PUSH1 0x0 DUP1 PUSH1 0x40 DUP4 DUP6 SUB SLT ISZERO PUSH2 0x200 JUMPI PUSH2 0x1FF PUSH2 0x29B JUMP JUMPDEST JUMPDEST PUSH1 0x0 PUSH2 0x20E DUP6 DUP3 DUP7 ADD PUSH2 0x1A7 JUMP JUMPDEST SWAP3 POP POP PUSH1 0x20 PUSH2 0x21F DUP6 DUP3 DUP7 ADD PUSH2 0x192 JUMP JUMPDEST SWAP2 POP POP SWAP3 POP SWAP3 SWAP1 POP JUMP JUMPDEST PUSH2 0x232 DUP2 PUSH2 0x265 JUMP JUMPDEST DUP3 MSTORE POP POP JUMP JUMPDEST PUSH1 0x0 PUSH1 0x20 DUP3 ADD SWAP1 POP PUSH2 0x24D PUSH1 0x0 DUP4 ADD DUP5 PUSH2 0x229 JUMP JUMPDEST SWAP3 SWAP2 POP POP JUMP JUMPDEST PUSH1 0x0 PUSH2 0x25E DUP3 PUSH2 0x271 JUMP JUMPDEST SWAP1 POP SWAP2 SWAP1 POP JUMP JUMPDEST PUSH1 0x0 DUP2 ISZERO ISZERO SWAP1 POP SWAP2 SWAP1 POP JUMP JUMPDEST PUSH1 0x0 PUSH20 0xFFFFFFFFFFFFFFFFFFFFFFFFFFFFFFFFFFFFFFFF DUP3 AND SWAP1 POP SWAP2 SWAP1 POP JUMP JUMPDEST PUSH1 0x0 DUP2 SWAP1 POP SWAP2 SWAP1 POP JUMP JUMPDEST PUSH1 0x0 DUP1 REVERT JUMPDEST PUSH2 0x2A9 DUP2 PUSH2 0x253 JUMP JUMPDEST DUP2 EQ PUSH2 0x2B4 JUMPI PUSH1 0x0 DUP1 REVERT JUMPDEST POP JUMP JUMPDEST PUSH2 0x2C0 DUP2 PUSH2 0x291 JUMP JUMPDEST DUP2 EQ PUSH2 0x2CB JUMPI PUSH1 0x0 DUP1 REVERT JUMPDEST POP JUMP INVALID LOG2 PUSH5 0x6970667358 0x22 SLT KECCAK256 SWAP7 SHL CHAINID PUSH2 0x81E1 0xAA PUSH32 0xCC0DEF6873B80772F5C9DB0602EA9DF06795917C7390D47A64736F6C63430008 SMOD STOP CALLER "
				},
				"gasEstimates": {
					"creation": {
						"codeDepositCost": "154400",
						"executionCost": "infinite",
						"totalCost": "infinite"
					},
					"external": {
						"approveTx()": "210",
						"approved(uint256,address)": "3109",
						"executeTx()": "232",
						"isOwner(address)": "2823",
						"revokeTx()": "144",
						"submitTx()": "188"
					}
				},
				"methodIdentifiers": {
					"approveTx()": "cdb52d0f",
					"approved(uint256,address)": "8253951a",
					"executeTx()": "e23fc3ce",
					"isOwner(address)": "2f54bf6e",
					"revokeTx()": "67830f77",
					"submitTx()": "a2ed727f"
				}
			},
			"storageLayout": {
				"storage": [
					{
						"astId": 11,
						"contract": "bootcamp/week2/MultiSigWallet.sol:MultiSigWallet",
						"label": "isOwner",
						"offset": 0,
						"slot": "0",
						"type": "t_mapping(t_address,t_bool)"
					},
					{
						"astId": 30,
						"contract": "bootcamp/week2/MultiSigWallet.sol:MultiSigWallet",
						"label": "approved",
						"offset": 0,
						"slot": "1",
						"type": "t_mapping(t_uint256,t_mapping(t_address,t_bool))"
					},
					{
						"astId": 32,
						"contract": "bootcamp/week2/MultiSigWallet.sol:MultiSigWallet",
						"label": "required",
						"offset": 0,
						"slot": "2",
						"type": "t_uint256"
					},
					{
						"astId": 34,
						"contract": "bootcamp/week2/MultiSigWallet.sol:MultiSigWallet",
						"label": "txId",
						"offset": 0,
						"slot": "3",
						"type": "t_uint256"
					}
				],
				"types": {
					"t_address": {
						"encoding": "inplace",
						"label": "address",
						"numberOfBytes": "20"
					},
					"t_bool": {
						"encoding": "inplace",
						"label": "bool",
						"numberOfBytes": "1"
					},
					"t_mapping(t_address,t_bool)": {
						"encoding": "mapping",
						"key": "t_address",
						"label": "mapping(address => bool)",
						"numberOfBytes": "32",
						"value": "t_bool"
					},
					"t_mapping(t_uint256,t_mapping(t_address,t_bool))": {
						"encoding": "mapping",
						"key": "t_uint256",
						"label": "mapping(uint256 => mapping(address => bool))",
						"numberOfBytes": "32",
						"value": "t_mapping(t_address,t_bool)"
					},
					"t_uint256": {
						"encoding": "inplace",
						"label": "uint256",
						"numberOfBytes": "32"
					}
				}
			},
			"userdoc": {
				"kind": "user",
				"methods": {},
				"version": 1
			}
		}
	}
}