{
	"bootcamp/week2/AccessControl.sol": {
		"AccessControl": {
			"abi": [
				{
					"inputs": [
						{
							"internalType": "address",
							"name": "_owner",
							"type": "address"
						}
					],
					"stateMutability": "nonpayable",
					"type": "constructor"
				},
				{
					"inputs": [],
					"name": "NotOwner",
					"type": "error"
				},
				{
					"inputs": [
						{
							"internalType": "string",
							"name": "_firstWord",
							"type": "string"
						},
						{
							"internalType": "string",
							"name": "_secondWord",
							"type": "string"
						}
					],
					"name": "foo",
					"outputs": [
						{
							"internalType": "string",
							"name": "words",
							"type": "string"
						}
					],
					"stateMutability": "view",
					"type": "function"
				}
			],
			"devdoc": {
				"kind": "dev",
				"methods": {},
				"version": 1
			},
			"evm": {
				"assembly": "    /* \"bootcamp/week2/AccessControl.sol\":77:527  contract AccessControl {... */\n  mstore(0x40, 0xa0)\n    /* \"bootcamp/week2/AccessControl.sol\":137:196  constructor(address _owner) {... */\n  callvalue\n  dup1\n  iszero\n  tag_1\n  jumpi\n  0x00\n  dup1\n  revert\ntag_1:\n  pop\n  mload(0x40)\n  sub(codesize, bytecodeSize)\n  dup1\n  bytecodeSize\n  dup4\n  codecopy\n  dup2\n  dup2\n  add\n  0x40\n  mstore\n  dup2\n  add\n  swap1\n  tag_2\n  swap2\n  swap1\n  tag_3\n  jump\t// in\ntag_2:\n    /* \"bootcamp/week2/AccessControl.sol\":183:189  _owner */\n  dup1\n    /* \"bootcamp/week2/AccessControl.sol\":175:189  owner = _owner */\n  0xffffffffffffffffffffffffffffffffffffffff\n  and\n  0x80\n  dup2\n  0xffffffffffffffffffffffffffffffffffffffff\n  and\n  dup2\n  mstore\n  pop\n  pop\n    /* \"bootcamp/week2/AccessControl.sol\":137:196  constructor(address _owner) {... */\n  pop\n    /* \"bootcamp/week2/AccessControl.sol\":77:527  contract AccessControl {... */\n  jump(tag_6)\n    /* \"#utility.yul\":88:205   */\ntag_8:\n    /* \"#utility.yul\":197:198   */\n  0x00\n    /* \"#utility.yul\":194:195   */\n  dup1\n    /* \"#utility.yul\":187:199   */\n  revert\n    /* \"#utility.yul\":334:460   */\ntag_10:\n    /* \"#utility.yul\":371:378   */\n  0x00\n    /* \"#utility.yul\":411:453   */\n  0xffffffffffffffffffffffffffffffffffffffff\n    /* \"#utility.yul\":404:409   */\n  dup3\n    /* \"#utility.yul\":400:454   */\n  and\n    /* \"#utility.yul\":389:454   */\n  swap1\n  pop\n    /* \"#utility.yul\":334:460   */\n  swap2\n  swap1\n  pop\n  jump\t// out\n    /* \"#utility.yul\":466:562   */\ntag_11:\n    /* \"#utility.yul\":503:510   */\n  0x00\n    /* \"#utility.yul\":532:556   */\n  tag_20\n    /* \"#utility.yul\":550:555   */\n  dup3\n    /* \"#utility.yul\":532:556   */\n  tag_10\n  jump\t// in\ntag_20:\n    /* \"#utility.yul\":521:556   */\n  swap1\n  pop\n    /* \"#utility.yul\":466:562   */\n  swap2\n  swap1\n  pop\n  jump\t// out\n    /* \"#utility.yul\":568:690   */\ntag_12:\n    /* \"#utility.yul\":641:665   */\n  tag_22\n    /* \"#utility.yul\":659:664   */\n  dup2\n    /* \"#utility.yul\":641:665   */\n  tag_11\n  jump\t// in\ntag_22:\n    /* \"#utility.yul\":634:639   */\n  dup2\n    /* \"#utility.yul\":631:666   */\n  eq\n    /* \"#utility.yul\":621:684   */\n  tag_23\n  jumpi\n    /* \"#utility.yul\":680:681   */\n  0x00\n    /* \"#utility.yul\":677:678   */\n  dup1\n    /* \"#utility.yul\":670:682   */\n  revert\n    /* \"#utility.yul\":621:684   */\ntag_23:\n    /* \"#utility.yul\":568:690   */\n  pop\n  jump\t// out\n    /* \"#utility.yul\":696:839   */\ntag_13:\n    /* \"#utility.yul\":753:758   */\n  0x00\n    /* \"#utility.yul\":784:790   */\n  dup2\n    /* \"#utility.yul\":778:791   */\n  mload\n    /* \"#utility.yul\":769:791   */\n  swap1\n  pop\n    /* \"#utility.yul\":800:833   */\n  tag_25\n    /* \"#utility.yul\":827:832   */\n  dup2\n    /* \"#utility.yul\":800:833   */\n  tag_12\n  jump\t// in\ntag_25:\n    /* \"#utility.yul\":696:839   */\n  swap3\n  swap2\n  pop\n  pop\n  jump\t// out\n    /* \"#utility.yul\":845:1196   */\ntag_3:\n    /* \"#utility.yul\":915:921   */\n  0x00\n    /* \"#utility.yul\":964:966   */\n  0x20\n    /* \"#utility.yul\":952:961   */\n  dup3\n    /* \"#utility.yul\":943:950   */\n  dup5\n    /* \"#utility.yul\":939:962   */\n  sub\n    /* \"#utility.yul\":935:967   */\n  slt\n    /* \"#utility.yul\":932:1051   */\n  iszero\n  tag_27\n  jumpi\n    /* \"#utility.yul\":970:1049   */\n  tag_28\n  tag_8\n  jump\t// in\ntag_28:\n    /* \"#utility.yul\":932:1051   */\ntag_27:\n    /* \"#utility.yul\":1090:1091   */\n  0x00\n    /* \"#utility.yul\":1115:1179   */\n  tag_29\n    /* \"#utility.yul\":1171:1178   */\n  dup5\n    /* \"#utility.yul\":1162:1168   */\n  dup3\n    /* \"#utility.yul\":1151:1160   */\n  dup6\n    /* \"#utility.yul\":1147:1169   */\n  add\n    /* \"#utility.yul\":1115:1179   */\n  tag_13\n  jump\t// in\ntag_29:\n    /* \"#utility.yul\":1105:1179   */\n  swap2\n  pop\n    /* \"#utility.yul\":1061:1189   */\n  pop\n    /* \"#utility.yul\":845:1196   */\n  swap3\n  swap2\n  pop\n  pop\n  jump\t// out\n    /* \"bootcamp/week2/AccessControl.sol\":77:527  contract AccessControl {... */\ntag_6:\n  mload(0x80)\n  codecopy(0x00, dataOffset(sub_0), dataSize(sub_0))\n  0x00\n  assignImmutable(\"0xceebf77a833b30520287ddd9478ff51abbdffa30aa90a8d655dba0e8a79ce0c1\")\n  return(0x00, dataSize(sub_0))\nstop\n\nsub_0: assembly {\n        /* \"bootcamp/week2/AccessControl.sol\":77:527  contract AccessControl {... */\n      mstore(0x40, 0x80)\n      callvalue\n      dup1\n      iszero\n      tag_1\n      jumpi\n      0x00\n      dup1\n      revert\n    tag_1:\n      pop\n      jumpi(tag_2, lt(calldatasize, 0x04))\n      shr(0xe0, calldataload(0x00))\n      dup1\n      0x124a83fa\n      eq\n      tag_3\n      jumpi\n    tag_2:\n      0x00\n      dup1\n      revert\n        /* \"bootcamp/week2/AccessControl.sol\":322:525  function foo(string calldata _firstWord, string calldata _secondWord) external view OnlyOwner returns (string memory words) {... */\n    tag_3:\n      tag_4\n      0x04\n      dup1\n      calldatasize\n      sub\n      dup2\n      add\n      swap1\n      tag_5\n      swap2\n      swap1\n      tag_6\n      jump\t// in\n    tag_5:\n      tag_7\n      jump\t// in\n    tag_4:\n      mload(0x40)\n      tag_8\n      swap2\n      swap1\n      tag_9\n      jump\t// in\n    tag_8:\n      mload(0x40)\n      dup1\n      swap2\n      sub\n      swap1\n      return\n    tag_7:\n        /* \"bootcamp/week2/AccessControl.sol\":425:444  string memory words */\n      0x60\n        /* \"bootcamp/week2/AccessControl.sol\":250:255  owner */\n      immutable(\"0xceebf77a833b30520287ddd9478ff51abbdffa30aa90a8d655dba0e8a79ce0c1\")\n        /* \"bootcamp/week2/AccessControl.sol\":236:255  msg.sender != owner */\n      0xffffffffffffffffffffffffffffffffffffffff\n      and\n        /* \"bootcamp/week2/AccessControl.sol\":236:246  msg.sender */\n      caller\n        /* \"bootcamp/week2/AccessControl.sol\":236:255  msg.sender != owner */\n      0xffffffffffffffffffffffffffffffffffffffff\n      and\n      eq\n        /* \"bootcamp/week2/AccessControl.sol\":233:299  if(msg.sender != owner) {... */\n      tag_11\n      jumpi\n        /* \"bootcamp/week2/AccessControl.sol\":278:288  NotOwner() */\n      mload(0x40)\n      0x30cd747100000000000000000000000000000000000000000000000000000000\n      dup2\n      mstore\n      0x04\n      add\n      mload(0x40)\n      dup1\n      swap2\n      sub\n      swap1\n      revert\n        /* \"bootcamp/week2/AccessControl.sol\":233:299  if(msg.sender != owner) {... */\n    tag_11:\n        /* \"bootcamp/week2/AccessControl.sol\":488:498  _firstWord */\n      dup5\n      dup5\n        /* \"bootcamp/week2/AccessControl.sol\":505:516  _secondWord */\n      dup5\n      dup5\n        /* \"bootcamp/week2/AccessControl.sol\":471:517  abi.encodePacked(_firstWord, \" \", _secondWord) */\n      add(0x20, mload(0x40))\n      tag_13\n      swap5\n      swap4\n      swap3\n      swap2\n      swap1\n      tag_14\n      jump\t// in\n    tag_13:\n      mload(0x40)\n      0x20\n      dup2\n      dup4\n      sub\n      sub\n      dup2\n      mstore\n      swap1\n      0x40\n      mstore\n        /* \"bootcamp/week2/AccessControl.sol\":456:518  words = string(abi.encodePacked(_firstWord, \" \", _secondWord)) */\n      swap1\n      pop\n        /* \"bootcamp/week2/AccessControl.sol\":322:525  function foo(string calldata _firstWord, string calldata _secondWord) external view OnlyOwner returns (string memory words) {... */\n      swap5\n      swap4\n      pop\n      pop\n      pop\n      pop\n      jump\t// out\n        /* \"#utility.yul\":88:205   */\n    tag_16:\n        /* \"#utility.yul\":197:198   */\n      0x00\n        /* \"#utility.yul\":194:195   */\n      dup1\n        /* \"#utility.yul\":187:199   */\n      revert\n        /* \"#utility.yul\":211:328   */\n    tag_17:\n        /* \"#utility.yul\":320:321   */\n      0x00\n        /* \"#utility.yul\":317:318   */\n      dup1\n        /* \"#utility.yul\":310:322   */\n      revert\n        /* \"#utility.yul\":334:451   */\n    tag_18:\n        /* \"#utility.yul\":443:444   */\n      0x00\n        /* \"#utility.yul\":440:441   */\n      dup1\n        /* \"#utility.yul\":433:445   */\n      revert\n        /* \"#utility.yul\":457:574   */\n    tag_19:\n        /* \"#utility.yul\":566:567   */\n      0x00\n        /* \"#utility.yul\":563:564   */\n      dup1\n        /* \"#utility.yul\":556:568   */\n      revert\n        /* \"#utility.yul\":580:697   */\n    tag_20:\n        /* \"#utility.yul\":689:690   */\n      0x00\n        /* \"#utility.yul\":686:687   */\n      dup1\n        /* \"#utility.yul\":679:691   */\n      revert\n        /* \"#utility.yul\":717:1270   */\n    tag_21:\n        /* \"#utility.yul\":775:783   */\n      0x00\n        /* \"#utility.yul\":785:791   */\n      dup1\n        /* \"#utility.yul\":835:838   */\n      dup4\n        /* \"#utility.yul\":828:832   */\n      0x1f\n        /* \"#utility.yul\":820:826   */\n      dup5\n        /* \"#utility.yul\":816:833   */\n      add\n        /* \"#utility.yul\":812:839   */\n      slt\n        /* \"#utility.yul\":802:924   */\n      tag_40\n      jumpi\n        /* \"#utility.yul\":843:922   */\n      tag_41\n      tag_18\n      jump\t// in\n    tag_41:\n        /* \"#utility.yul\":802:924   */\n    tag_40:\n        /* \"#utility.yul\":956:962   */\n      dup3\n        /* \"#utility.yul\":943:963   */\n      calldataload\n        /* \"#utility.yul\":933:963   */\n      swap1\n      pop\n        /* \"#utility.yul\":986:1004   */\n      0xffffffffffffffff\n        /* \"#utility.yul\":978:984   */\n      dup2\n        /* \"#utility.yul\":975:1005   */\n      gt\n        /* \"#utility.yul\":972:1089   */\n      iszero\n      tag_42\n      jumpi\n        /* \"#utility.yul\":1008:1087   */\n      tag_43\n      tag_19\n      jump\t// in\n    tag_43:\n        /* \"#utility.yul\":972:1089   */\n    tag_42:\n        /* \"#utility.yul\":1122:1126   */\n      0x20\n        /* \"#utility.yul\":1114:1120   */\n      dup4\n        /* \"#utility.yul\":1110:1127   */\n      add\n        /* \"#utility.yul\":1098:1127   */\n      swap2\n      pop\n        /* \"#utility.yul\":1176:1179   */\n      dup4\n        /* \"#utility.yul\":1168:1172   */\n      0x01\n        /* \"#utility.yul\":1160:1166   */\n      dup3\n        /* \"#utility.yul\":1156:1173   */\n      mul\n        /* \"#utility.yul\":1146:1154   */\n      dup4\n        /* \"#utility.yul\":1142:1174   */\n      add\n        /* \"#utility.yul\":1139:1180   */\n      gt\n        /* \"#utility.yul\":1136:1264   */\n      iszero\n      tag_44\n      jumpi\n        /* \"#utility.yul\":1183:1262   */\n      tag_45\n      tag_20\n      jump\t// in\n    tag_45:\n        /* \"#utility.yul\":1136:1264   */\n    tag_44:\n        /* \"#utility.yul\":717:1270   */\n      swap3\n      pop\n      swap3\n      swap1\n      pop\n      jump\t// out\n        /* \"#utility.yul\":1276:2150   */\n    tag_6:\n        /* \"#utility.yul\":1368:1374   */\n      0x00\n        /* \"#utility.yul\":1376:1382   */\n      dup1\n        /* \"#utility.yul\":1384:1390   */\n      0x00\n        /* \"#utility.yul\":1392:1398   */\n      dup1\n        /* \"#utility.yul\":1441:1443   */\n      0x40\n        /* \"#utility.yul\":1429:1438   */\n      dup6\n        /* \"#utility.yul\":1420:1427   */\n      dup8\n        /* \"#utility.yul\":1416:1439   */\n      sub\n        /* \"#utility.yul\":1412:1444   */\n      slt\n        /* \"#utility.yul\":1409:1528   */\n      iszero\n      tag_47\n      jumpi\n        /* \"#utility.yul\":1447:1526   */\n      tag_48\n      tag_16\n      jump\t// in\n    tag_48:\n        /* \"#utility.yul\":1409:1528   */\n    tag_47:\n        /* \"#utility.yul\":1595:1596   */\n      0x00\n        /* \"#utility.yul\":1584:1593   */\n      dup6\n        /* \"#utility.yul\":1580:1597   */\n      add\n        /* \"#utility.yul\":1567:1598   */\n      calldataload\n        /* \"#utility.yul\":1625:1643   */\n      0xffffffffffffffff\n        /* \"#utility.yul\":1617:1623   */\n      dup2\n        /* \"#utility.yul\":1614:1644   */\n      gt\n        /* \"#utility.yul\":1611:1728   */\n      iszero\n      tag_49\n      jumpi\n        /* \"#utility.yul\":1647:1726   */\n      tag_50\n      tag_17\n      jump\t// in\n    tag_50:\n        /* \"#utility.yul\":1611:1728   */\n    tag_49:\n        /* \"#utility.yul\":1760:1825   */\n      tag_51\n        /* \"#utility.yul\":1817:1824   */\n      dup8\n        /* \"#utility.yul\":1808:1814   */\n      dup3\n        /* \"#utility.yul\":1797:1806   */\n      dup9\n        /* \"#utility.yul\":1793:1815   */\n      add\n        /* \"#utility.yul\":1760:1825   */\n      tag_21\n      jump\t// in\n    tag_51:\n        /* \"#utility.yul\":1742:1825   */\n      swap5\n      pop\n      swap5\n      pop\n        /* \"#utility.yul\":1538:1835   */\n      pop\n        /* \"#utility.yul\":1902:1904   */\n      0x20\n        /* \"#utility.yul\":1891:1900   */\n      dup6\n        /* \"#utility.yul\":1887:1905   */\n      add\n        /* \"#utility.yul\":1874:1906   */\n      calldataload\n        /* \"#utility.yul\":1933:1951   */\n      0xffffffffffffffff\n        /* \"#utility.yul\":1925:1931   */\n      dup2\n        /* \"#utility.yul\":1922:1952   */\n      gt\n        /* \"#utility.yul\":1919:2036   */\n      iszero\n      tag_52\n      jumpi\n        /* \"#utility.yul\":1955:2034   */\n      tag_53\n      tag_17\n      jump\t// in\n    tag_53:\n        /* \"#utility.yul\":1919:2036   */\n    tag_52:\n        /* \"#utility.yul\":2068:2133   */\n      tag_54\n        /* \"#utility.yul\":2125:2132   */\n      dup8\n        /* \"#utility.yul\":2116:2122   */\n      dup3\n        /* \"#utility.yul\":2105:2114   */\n      dup9\n        /* \"#utility.yul\":2101:2123   */\n      add\n        /* \"#utility.yul\":2068:2133   */\n      tag_21\n      jump\t// in\n    tag_54:\n        /* \"#utility.yul\":2050:2133   */\n      swap3\n      pop\n      swap3\n      pop\n        /* \"#utility.yul\":1845:2143   */\n      pop\n        /* \"#utility.yul\":1276:2150   */\n      swap3\n      swap6\n      swap2\n      swap5\n      pop\n      swap3\n      pop\n      jump\t// out\n        /* \"#utility.yul\":2156:2255   */\n    tag_22:\n        /* \"#utility.yul\":2208:2214   */\n      0x00\n        /* \"#utility.yul\":2242:2247   */\n      dup2\n        /* \"#utility.yul\":2236:2248   */\n      mload\n        /* \"#utility.yul\":2226:2248   */\n      swap1\n      pop\n        /* \"#utility.yul\":2156:2255   */\n      swap2\n      swap1\n      pop\n      jump\t// out\n        /* \"#utility.yul\":2261:2430   */\n    tag_23:\n        /* \"#utility.yul\":2345:2356   */\n      0x00\n        /* \"#utility.yul\":2379:2385   */\n      dup3\n        /* \"#utility.yul\":2374:2377   */\n      dup3\n        /* \"#utility.yul\":2367:2386   */\n      mstore\n        /* \"#utility.yul\":2419:2423   */\n      0x20\n        /* \"#utility.yul\":2414:2417   */\n      dup3\n        /* \"#utility.yul\":2410:2424   */\n      add\n        /* \"#utility.yul\":2395:2424   */\n      swap1\n      pop\n        /* \"#utility.yul\":2261:2430   */\n      swap3\n      swap2\n      pop\n      pop\n      jump\t// out\n        /* \"#utility.yul\":2436:2743   */\n    tag_24:\n        /* \"#utility.yul\":2504:2505   */\n      0x00\n        /* \"#utility.yul\":2514:2627   */\n    tag_58:\n        /* \"#utility.yul\":2528:2534   */\n      dup4\n        /* \"#utility.yul\":2525:2526   */\n      dup2\n        /* \"#utility.yul\":2522:2535   */\n      lt\n        /* \"#utility.yul\":2514:2627   */\n      iszero\n      tag_60\n      jumpi\n        /* \"#utility.yul\":2613:2614   */\n      dup1\n        /* \"#utility.yul\":2608:2611   */\n      dup3\n        /* \"#utility.yul\":2604:2615   */\n      add\n        /* \"#utility.yul\":2598:2616   */\n      mload\n        /* \"#utility.yul\":2594:2595   */\n      dup2\n        /* \"#utility.yul\":2589:2592   */\n      dup5\n        /* \"#utility.yul\":2585:2596   */\n      add\n        /* \"#utility.yul\":2578:2617   */\n      mstore\n        /* \"#utility.yul\":2550:2552   */\n      0x20\n        /* \"#utility.yul\":2547:2548   */\n      dup2\n        /* \"#utility.yul\":2543:2553   */\n      add\n        /* \"#utility.yul\":2538:2553   */\n      swap1\n      pop\n        /* \"#utility.yul\":2514:2627   */\n      jump(tag_58)\n    tag_60:\n        /* \"#utility.yul\":2645:2651   */\n      dup4\n        /* \"#utility.yul\":2642:2643   */\n      dup2\n        /* \"#utility.yul\":2639:2652   */\n      gt\n        /* \"#utility.yul\":2636:2737   */\n      iszero\n      tag_61\n      jumpi\n        /* \"#utility.yul\":2725:2726   */\n      0x00\n        /* \"#utility.yul\":2716:2722   */\n      dup5\n        /* \"#utility.yul\":2711:2714   */\n      dup5\n        /* \"#utility.yul\":2707:2723   */\n      add\n        /* \"#utility.yul\":2700:2727   */\n      mstore\n        /* \"#utility.yul\":2636:2737   */\n    tag_61:\n        /* \"#utility.yul\":2485:2743   */\n      pop\n        /* \"#utility.yul\":2436:2743   */\n      pop\n      pop\n      pop\n      jump\t// out\n        /* \"#utility.yul\":2749:2851   */\n    tag_25:\n        /* \"#utility.yul\":2790:2796   */\n      0x00\n        /* \"#utility.yul\":2841:2843   */\n      0x1f\n        /* \"#utility.yul\":2837:2844   */\n      not\n        /* \"#utility.yul\":2832:2834   */\n      0x1f\n        /* \"#utility.yul\":2825:2830   */\n      dup4\n        /* \"#utility.yul\":2821:2835   */\n      add\n        /* \"#utility.yul\":2817:2845   */\n      and\n        /* \"#utility.yul\":2807:2845   */\n      swap1\n      pop\n        /* \"#utility.yul\":2749:2851   */\n      swap2\n      swap1\n      pop\n      jump\t// out\n        /* \"#utility.yul\":2857:3221   */\n    tag_26:\n        /* \"#utility.yul\":2945:2948   */\n      0x00\n        /* \"#utility.yul\":2973:3012   */\n      tag_64\n        /* \"#utility.yul\":3006:3011   */\n      dup3\n        /* \"#utility.yul\":2973:3012   */\n      tag_22\n      jump\t// in\n    tag_64:\n        /* \"#utility.yul\":3028:3099   */\n      tag_65\n        /* \"#utility.yul\":3092:3098   */\n      dup2\n        /* \"#utility.yul\":3087:3090   */\n      dup6\n        /* \"#utility.yul\":3028:3099   */\n      tag_23\n      jump\t// in\n    tag_65:\n        /* \"#utility.yul\":3021:3099   */\n      swap4\n      pop\n        /* \"#utility.yul\":3108:3160   */\n      tag_66\n        /* \"#utility.yul\":3153:3159   */\n      dup2\n        /* \"#utility.yul\":3148:3151   */\n      dup6\n        /* \"#utility.yul\":3141:3145   */\n      0x20\n        /* \"#utility.yul\":3134:3139   */\n      dup7\n        /* \"#utility.yul\":3130:3146   */\n      add\n        /* \"#utility.yul\":3108:3160   */\n      tag_24\n      jump\t// in\n    tag_66:\n        /* \"#utility.yul\":3185:3214   */\n      tag_67\n        /* \"#utility.yul\":3207:3213   */\n      dup2\n        /* \"#utility.yul\":3185:3214   */\n      tag_25\n      jump\t// in\n    tag_67:\n        /* \"#utility.yul\":3180:3183   */\n      dup5\n        /* \"#utility.yul\":3176:3215   */\n      add\n        /* \"#utility.yul\":3169:3215   */\n      swap2\n      pop\n        /* \"#utility.yul\":2949:3221   */\n      pop\n        /* \"#utility.yul\":2857:3221   */\n      swap3\n      swap2\n      pop\n      pop\n      jump\t// out\n        /* \"#utility.yul\":3227:3540   */\n    tag_9:\n        /* \"#utility.yul\":3340:3344   */\n      0x00\n        /* \"#utility.yul\":3378:3380   */\n      0x20\n        /* \"#utility.yul\":3367:3376   */\n      dup3\n        /* \"#utility.yul\":3363:3381   */\n      add\n        /* \"#utility.yul\":3355:3381   */\n      swap1\n      pop\n        /* \"#utility.yul\":3427:3436   */\n      dup2\n        /* \"#utility.yul\":3421:3425   */\n      dup2\n        /* \"#utility.yul\":3417:3437   */\n      sub\n        /* \"#utility.yul\":3413:3414   */\n      0x00\n        /* \"#utility.yul\":3402:3411   */\n      dup4\n        /* \"#utility.yul\":3398:3415   */\n      add\n        /* \"#utility.yul\":3391:3438   */\n      mstore\n        /* \"#utility.yul\":3455:3533   */\n      tag_69\n        /* \"#utility.yul\":3528:3532   */\n      dup2\n        /* \"#utility.yul\":3519:3525   */\n      dup5\n        /* \"#utility.yul\":3455:3533   */\n      tag_26\n      jump\t// in\n    tag_69:\n        /* \"#utility.yul\":3447:3533   */\n      swap1\n      pop\n        /* \"#utility.yul\":3227:3540   */\n      swap3\n      swap2\n      pop\n      pop\n      jump\t// out\n        /* \"#utility.yul\":3546:3694   */\n    tag_27:\n        /* \"#utility.yul\":3648:3659   */\n      0x00\n        /* \"#utility.yul\":3685:3688   */\n      dup2\n        /* \"#utility.yul\":3670:3688   */\n      swap1\n      pop\n        /* \"#utility.yul\":3546:3694   */\n      swap3\n      swap2\n      pop\n      pop\n      jump\t// out\n        /* \"#utility.yul\":3700:3854   */\n    tag_28:\n        /* \"#utility.yul\":3784:3790   */\n      dup3\n        /* \"#utility.yul\":3779:3782   */\n      dup2\n        /* \"#utility.yul\":3774:3777   */\n      dup4\n        /* \"#utility.yul\":3761:3791   */\n      calldatacopy\n        /* \"#utility.yul\":3846:3847   */\n      0x00\n        /* \"#utility.yul\":3837:3843   */\n      dup4\n        /* \"#utility.yul\":3832:3835   */\n      dup4\n        /* \"#utility.yul\":3828:3844   */\n      add\n        /* \"#utility.yul\":3821:3848   */\n      mstore\n        /* \"#utility.yul\":3700:3854   */\n      pop\n      pop\n      pop\n      jump\t// out\n        /* \"#utility.yul\":3884:4201   */\n    tag_29:\n        /* \"#utility.yul\":4000:4003   */\n      0x00\n        /* \"#utility.yul\":4021:4110   */\n      tag_73\n        /* \"#utility.yul\":4103:4109   */\n      dup4\n        /* \"#utility.yul\":4098:4101   */\n      dup6\n        /* \"#utility.yul\":4021:4110   */\n      tag_27\n      jump\t// in\n    tag_73:\n        /* \"#utility.yul\":4014:4110   */\n      swap4\n      pop\n        /* \"#utility.yul\":4120:4163   */\n      tag_74\n        /* \"#utility.yul\":4156:4162   */\n      dup4\n        /* \"#utility.yul\":4151:4154   */\n      dup6\n        /* \"#utility.yul\":4144:4149   */\n      dup5\n        /* \"#utility.yul\":4120:4163   */\n      tag_28\n      jump\t// in\n    tag_74:\n        /* \"#utility.yul\":4188:4194   */\n      dup3\n        /* \"#utility.yul\":4183:4186   */\n      dup5\n        /* \"#utility.yul\":4179:4195   */\n      add\n        /* \"#utility.yul\":4172:4195   */\n      swap1\n      pop\n        /* \"#utility.yul\":3884:4201   */\n      swap4\n      swap3\n      pop\n      pop\n      pop\n      jump\t// out\n        /* \"#utility.yul\":4207:4358   */\n    tag_30:\n        /* \"#utility.yul\":4347:4350   */\n      0x2000000000000000000000000000000000000000000000000000000000000000\n        /* \"#utility.yul\":4343:4344   */\n      0x00\n        /* \"#utility.yul\":4335:4341   */\n      dup3\n        /* \"#utility.yul\":4331:4345   */\n      add\n        /* \"#utility.yul\":4324:4351   */\n      mstore\n        /* \"#utility.yul\":4207:4358   */\n      pop\n      jump\t// out\n        /* \"#utility.yul\":4364:4764   */\n    tag_31:\n        /* \"#utility.yul\":4524:4527   */\n      0x00\n        /* \"#utility.yul\":4545:4629   */\n      tag_77\n        /* \"#utility.yul\":4627:4628   */\n      0x01\n        /* \"#utility.yul\":4622:4625   */\n      dup4\n        /* \"#utility.yul\":4545:4629   */\n      tag_27\n      jump\t// in\n    tag_77:\n        /* \"#utility.yul\":4538:4629   */\n      swap2\n      pop\n        /* \"#utility.yul\":4638:4731   */\n      tag_78\n        /* \"#utility.yul\":4727:4730   */\n      dup3\n        /* \"#utility.yul\":4638:4731   */\n      tag_30\n      jump\t// in\n    tag_78:\n        /* \"#utility.yul\":4756:4757   */\n      0x01\n        /* \"#utility.yul\":4751:4754   */\n      dup3\n        /* \"#utility.yul\":4747:4758   */\n      add\n        /* \"#utility.yul\":4740:4758   */\n      swap1\n      pop\n        /* \"#utility.yul\":4364:4764   */\n      swap2\n      swap1\n      pop\n      jump\t// out\n        /* \"#utility.yul\":4770:5511   */\n    tag_14:\n        /* \"#utility.yul\":5071:5074   */\n      0x00\n        /* \"#utility.yul\":5093:5198   */\n      tag_80\n        /* \"#utility.yul\":5194:5197   */\n      dup3\n        /* \"#utility.yul\":5185:5191   */\n      dup7\n        /* \"#utility.yul\":5177:5183   */\n      dup9\n        /* \"#utility.yul\":5093:5198   */\n      tag_29\n      jump\t// in\n    tag_80:\n        /* \"#utility.yul\":5086:5198   */\n      swap2\n      pop\n        /* \"#utility.yul\":5215:5363   */\n      tag_81\n        /* \"#utility.yul\":5359:5362   */\n      dup3\n        /* \"#utility.yul\":5215:5363   */\n      tag_31\n      jump\t// in\n    tag_81:\n        /* \"#utility.yul\":5208:5363   */\n      swap2\n      pop\n        /* \"#utility.yul\":5380:5485   */\n      tag_82\n        /* \"#utility.yul\":5481:5484   */\n      dup3\n        /* \"#utility.yul\":5472:5478   */\n      dup5\n        /* \"#utility.yul\":5464:5470   */\n      dup7\n        /* \"#utility.yul\":5380:5485   */\n      tag_29\n      jump\t// in\n    tag_82:\n        /* \"#utility.yul\":5373:5485   */\n      swap2\n      pop\n        /* \"#utility.yul\":5502:5505   */\n      dup2\n        /* \"#utility.yul\":5495:5505   */\n      swap1\n      pop\n        /* \"#utility.yul\":4770:5511   */\n      swap6\n      swap5\n      pop\n      pop\n      pop\n      pop\n      pop\n      jump\t// out\n\n    auxdata: 0xa264697066735822122041cbc83525e0a82883689da658921978a3b2ce82b2cbb041bae12cb18ffdd56064736f6c634300080e0033\n}\n",
				"bytecode": {
					"linkReferences": {},
					"object": "60a060405234801561001057600080fd5b506040516104cc3803806104cc833981810160405281019061003291906100cf565b8073ffffffffffffffffffffffffffffffffffffffff1660808173ffffffffffffffffffffffffffffffffffffffff1681525050506100fc565b600080fd5b600073ffffffffffffffffffffffffffffffffffffffff82169050919050565b600061009c82610071565b9050919050565b6100ac81610091565b81146100b757600080fd5b50565b6000815190506100c9816100a3565b92915050565b6000602082840312156100e5576100e461006c565b5b60006100f3848285016100ba565b91505092915050565b6080516103b66101166000396000606401526103b66000f3fe608060405234801561001057600080fd5b506004361061002b5760003560e01c8063124a83fa14610030575b600080fd5b61004a60048036038101906100459190610186565b610060565b60405161005791906102a0565b60405180910390f35b60607f000000000000000000000000000000000000000000000000000000000000000073ffffffffffffffffffffffffffffffffffffffff163373ffffffffffffffffffffffffffffffffffffffff16146100e7576040517f30cd747100000000000000000000000000000000000000000000000000000000815260040160405180910390fd5b848484846040516020016100fe949392919061034d565b6040516020818303038152906040529050949350505050565b600080fd5b600080fd5b600080fd5b600080fd5b600080fd5b60008083601f84011261014657610145610121565b5b8235905067ffffffffffffffff81111561016357610162610126565b5b60208301915083600182028301111561017f5761017e61012b565b5b9250929050565b600080600080604085870312156101a05761019f610117565b5b600085013567ffffffffffffffff8111156101be576101bd61011c565b5b6101ca87828801610130565b9450945050602085013567ffffffffffffffff8111156101ed576101ec61011c565b5b6101f987828801610130565b925092505092959194509250565b600081519050919050565b600082825260208201905092915050565b60005b83811015610241578082015181840152602081019050610226565b83811115610250576000848401525b50505050565b6000601f19601f8301169050919050565b600061027282610207565b61027c8185610212565b935061028c818560208601610223565b61029581610256565b840191505092915050565b600060208201905081810360008301526102ba8184610267565b905092915050565b600081905092915050565b82818337600083830152505050565b60006102e883856102c2565b93506102f58385846102cd565b82840190509392505050565b7f2000000000000000000000000000000000000000000000000000000000000000600082015250565b60006103376001836102c2565b915061034282610301565b600182019050919050565b600061035a8286886102dc565b91506103658261032a565b91506103728284866102dc565b91508190509594505050505056fea264697066735822122041cbc83525e0a82883689da658921978a3b2ce82b2cbb041bae12cb18ffdd56064736f6c634300080e0033",
					"opcodes": "PUSH1 0xA0 PUSH1 0x40 MSTORE CALLVALUE DUP1 ISZERO PUSH2 0x10 JUMPI PUSH1 0x0 DUP1 REVERT JUMPDEST POP PUSH1 0x40 MLOAD PUSH2 0x4CC CODESIZE SUB DUP1 PUSH2 0x4CC DUP4 CODECOPY DUP2 DUP2 ADD PUSH1 0x40 MSTORE DUP2 ADD SWAP1 PUSH2 0x32 SWAP2 SWAP1 PUSH2 0xCF JUMP JUMPDEST DUP1 PUSH20 0xFFFFFFFFFFFFFFFFFFFFFFFFFFFFFFFFFFFFFFFF AND PUSH1 0x80 DUP2 PUSH20 0xFFFFFFFFFFFFFFFFFFFFFFFFFFFFFFFFFFFFFFFF AND DUP2 MSTORE POP POP POP PUSH2 0xFC JUMP JUMPDEST PUSH1 0x0 DUP1 REVERT JUMPDEST PUSH1 0x0 PUSH20 0xFFFFFFFFFFFFFFFFFFFFFFFFFFFFFFFFFFFFFFFF DUP3 AND SWAP1 POP SWAP2 SWAP1 POP JUMP JUMPDEST PUSH1 0x0 PUSH2 0x9C DUP3 PUSH2 0x71 JUMP JUMPDEST SWAP1 POP SWAP2 SWAP1 POP JUMP JUMPDEST PUSH2 0xAC DUP2 PUSH2 0x91 JUMP JUMPDEST DUP2 EQ PUSH2 0xB7 JUMPI PUSH1 0x0 DUP1 REVERT JUMPDEST POP JUMP JUMPDEST PUSH1 0x0 DUP2 MLOAD SWAP1 POP PUSH2 0xC9 DUP2 PUSH2 0xA3 JUMP JUMPDEST SWAP3 SWAP2 POP POP JUMP JUMPDEST PUSH1 0x0 PUSH1 0x20 DUP3 DUP5 SUB SLT ISZERO PUSH2 0xE5 JUMPI PUSH2 0xE4 PUSH2 0x6C JUMP JUMPDEST JUMPDEST PUSH1 0x0 PUSH2 0xF3 DUP5 DUP3 DUP6 ADD PUSH2 0xBA JUMP JUMPDEST SWAP2 POP POP SWAP3 SWAP2 POP POP JUMP JUMPDEST PUSH1 0x80 MLOAD PUSH2 0x3B6 PUSH2 0x116 PUSH1 0x0 CODECOPY PUSH1 0x0 PUSH1 0x64 ADD MSTORE PUSH2 0x3B6 PUSH1 0x0 RETURN INVALID PUSH1 0x80 PUSH1 0x40 MSTORE CALLVALUE DUP1 ISZERO PUSH2 0x10 JUMPI PUSH1 0x0 DUP1 REVERT JUMPDEST POP PUSH1 0x4 CALLDATASIZE LT PUSH2 0x2B JUMPI PUSH1 0x0 CALLDATALOAD PUSH1 0xE0 SHR DUP1 PUSH4 0x124A83FA EQ PUSH2 0x30 JUMPI JUMPDEST PUSH1 0x0 DUP1 REVERT JUMPDEST PUSH2 0x4A PUSH1 0x4 DUP1 CALLDATASIZE SUB DUP2 ADD SWAP1 PUSH2 0x45 SWAP2 SWAP1 PUSH2 0x186 JUMP JUMPDEST PUSH2 0x60 JUMP JUMPDEST PUSH1 0x40 MLOAD PUSH2 0x57 SWAP2 SWAP1 PUSH2 0x2A0 JUMP JUMPDEST PUSH1 0x40 MLOAD DUP1 SWAP2 SUB SWAP1 RETURN JUMPDEST PUSH1 0x60 PUSH32 0x0 PUSH20 0xFFFFFFFFFFFFFFFFFFFFFFFFFFFFFFFFFFFFFFFF AND CALLER PUSH20 0xFFFFFFFFFFFFFFFFFFFFFFFFFFFFFFFFFFFFFFFF AND EQ PUSH2 0xE7 JUMPI PUSH1 0x40 MLOAD PUSH32 0x30CD747100000000000000000000000000000000000000000000000000000000 DUP2 MSTORE PUSH1 0x4 ADD PUSH1 0x40 MLOAD DUP1 SWAP2 SUB SWAP1 REVERT JUMPDEST DUP5 DUP5 DUP5 DUP5 PUSH1 0x40 MLOAD PUSH1 0x20 ADD PUSH2 0xFE SWAP5 SWAP4 SWAP3 SWAP2 SWAP1 PUSH2 0x34D JUMP JUMPDEST PUSH1 0x40 MLOAD PUSH1 0x20 DUP2 DUP4 SUB SUB DUP2 MSTORE SWAP1 PUSH1 0x40 MSTORE SWAP1 POP SWAP5 SWAP4 POP POP POP POP JUMP JUMPDEST PUSH1 0x0 DUP1 REVERT JUMPDEST PUSH1 0x0 DUP1 REVERT JUMPDEST PUSH1 0x0 DUP1 REVERT JUMPDEST PUSH1 0x0 DUP1 REVERT JUMPDEST PUSH1 0x0 DUP1 REVERT JUMPDEST PUSH1 0x0 DUP1 DUP4 PUSH1 0x1F DUP5 ADD SLT PUSH2 0x146 JUMPI PUSH2 0x145 PUSH2 0x121 JUMP JUMPDEST JUMPDEST DUP3 CALLDATALOAD SWAP1 POP PUSH8 0xFFFFFFFFFFFFFFFF DUP2 GT ISZERO PUSH2 0x163 JUMPI PUSH2 0x162 PUSH2 0x126 JUMP JUMPDEST JUMPDEST PUSH1 0x20 DUP4 ADD SWAP2 POP DUP4 PUSH1 0x1 DUP3 MUL DUP4 ADD GT ISZERO PUSH2 0x17F JUMPI PUSH2 0x17E PUSH2 0x12B JUMP JUMPDEST JUMPDEST SWAP3 POP SWAP3 SWAP1 POP JUMP JUMPDEST PUSH1 0x0 DUP1 PUSH1 0x0 DUP1 PUSH1 0x40 DUP6 DUP8 SUB SLT ISZERO PUSH2 0x1A0 JUMPI PUSH2 0x19F PUSH2 0x117 JUMP JUMPDEST JUMPDEST PUSH1 0x0 DUP6 ADD CALLDATALOAD PUSH8 0xFFFFFFFFFFFFFFFF DUP2 GT ISZERO PUSH2 0x1BE JUMPI PUSH2 0x1BD PUSH2 0x11C JUMP JUMPDEST JUMPDEST PUSH2 0x1CA DUP8 DUP3 DUP9 ADD PUSH2 0x130 JUMP JUMPDEST SWAP5 POP SWAP5 POP POP PUSH1 0x20 DUP6 ADD CALLDATALOAD PUSH8 0xFFFFFFFFFFFFFFFF DUP2 GT ISZERO PUSH2 0x1ED JUMPI PUSH2 0x1EC PUSH2 0x11C JUMP JUMPDEST JUMPDEST PUSH2 0x1F9 DUP8 DUP3 DUP9 ADD PUSH2 0x130 JUMP JUMPDEST SWAP3 POP SWAP3 POP POP SWAP3 SWAP6 SWAP2 SWAP5 POP SWAP3 POP JUMP JUMPDEST PUSH1 0x0 DUP2 MLOAD SWAP1 POP SWAP2 SWAP1 POP JUMP JUMPDEST PUSH1 0x0 DUP3 DUP3 MSTORE PUSH1 0x20 DUP3 ADD SWAP1 POP SWAP3 SWAP2 POP POP JUMP JUMPDEST PUSH1 0x0 JUMPDEST DUP4 DUP2 LT ISZERO PUSH2 0x241 JUMPI DUP1 DUP3 ADD MLOAD DUP2 DUP5 ADD MSTORE PUSH1 0x20 DUP2 ADD SWAP1 POP PUSH2 0x226 JUMP JUMPDEST DUP4 DUP2 GT ISZERO PUSH2 0x250 JUMPI PUSH1 0x0 DUP5 DUP5 ADD MSTORE JUMPDEST POP POP POP POP JUMP JUMPDEST PUSH1 0x0 PUSH1 0x1F NOT PUSH1 0x1F DUP4 ADD AND SWAP1 POP SWAP2 SWAP1 POP JUMP JUMPDEST PUSH1 0x0 PUSH2 0x272 DUP3 PUSH2 0x207 JUMP JUMPDEST PUSH2 0x27C DUP2 DUP6 PUSH2 0x212 JUMP JUMPDEST SWAP4 POP PUSH2 0x28C DUP2 DUP6 PUSH1 0x20 DUP7 ADD PUSH2 0x223 JUMP JUMPDEST PUSH2 0x295 DUP2 PUSH2 0x256 JUMP JUMPDEST DUP5 ADD SWAP2 POP POP SWAP3 SWAP2 POP POP JUMP JUMPDEST PUSH1 0x0 PUSH1 0x20 DUP3 ADD SWAP1 POP DUP2 DUP2 SUB PUSH1 0x0 DUP4 ADD MSTORE PUSH2 0x2BA DUP2 DUP5 PUSH2 0x267 JUMP JUMPDEST SWAP1 POP SWAP3 SWAP2 POP POP JUMP JUMPDEST PUSH1 0x0 DUP2 SWAP1 POP SWAP3 SWAP2 POP POP JUMP JUMPDEST DUP3 DUP2 DUP4 CALLDATACOPY PUSH1 0x0 DUP4 DUP4 ADD MSTORE POP POP POP JUMP JUMPDEST PUSH1 0x0 PUSH2 0x2E8 DUP4 DUP6 PUSH2 0x2C2 JUMP JUMPDEST SWAP4 POP PUSH2 0x2F5 DUP4 DUP6 DUP5 PUSH2 0x2CD JUMP JUMPDEST DUP3 DUP5 ADD SWAP1 POP SWAP4 SWAP3 POP POP POP JUMP JUMPDEST PUSH32 0x2000000000000000000000000000000000000000000000000000000000000000 PUSH1 0x0 DUP3 ADD MSTORE POP JUMP JUMPDEST PUSH1 0x0 PUSH2 0x337 PUSH1 0x1 DUP4 PUSH2 0x2C2 JUMP JUMPDEST SWAP2 POP PUSH2 0x342 DUP3 PUSH2 0x301 JUMP JUMPDEST PUSH1 0x1 DUP3 ADD SWAP1 POP SWAP2 SWAP1 POP JUMP JUMPDEST PUSH1 0x0 PUSH2 0x35A DUP3 DUP7 DUP9 PUSH2 0x2DC JUMP JUMPDEST SWAP2 POP PUSH2 0x365 DUP3 PUSH2 0x32A JUMP JUMPDEST SWAP2 POP PUSH2 0x372 DUP3 DUP5 DUP7 PUSH2 0x2DC JUMP JUMPDEST SWAP2 POP DUP2 SWAP1 POP SWAP6 SWAP5 POP POP POP POP POP JUMP INVALID LOG2 PUSH5 0x6970667358 0x22 SLT KECCAK256 COINBASE 0xCB 0xC8 CALLDATALOAD 0x25 0xE0 0xA8 0x28 DUP4 PUSH9 0x9DA658921978A3B2CE DUP3 0xB2 0xCB 0xB0 COINBASE 0xBA 0xE1 0x2C 0xB1 DUP16 REVERT 0xD5 PUSH1 0x64 PUSH20 0x6F6C634300080E00330000000000000000000000 "
				},
				"gasEstimates": {
					"creation": {
						"codeDepositCost": "190000",
						"executionCost": "infinite",
						"totalCost": "infinite"
					},
					"external": {
						"foo(string,string)": "infinite"
					}
				},
				"methodIdentifiers": {
					"foo(string,string)": "124a83fa"
				}
			},
			"storageLayout": {
				"storage": [],
				"types": null
			},
			"userdoc": {
				"kind": "user",
				"methods": {},
				"version": 1
			}
		}
	}
}