{
	"contracts/misc/test.sol": {
		"test": {
			"abi": [
				{
					"inputs": [
						{
							"internalType": "string",
							"name": "one",
							"type": "string"
						},
						{
							"internalType": "string",
							"name": "two",
							"type": "string"
						}
					],
					"name": "concat",
					"outputs": [
						{
							"internalType": "string",
							"name": "concatedString",
							"type": "string"
						}
					],
					"stateMutability": "nonpayable",
					"type": "function"
				}
			],
			"devdoc": {
				"kind": "dev",
				"methods": {},
				"version": 1
			},
			"evm": {
				"assembly": "    /* \"contracts/misc/test.sol\":91:283  contract test {... */\n  mstore(0x40, 0x80)\n  callvalue\n  dup1\n  iszero\n  tag_1\n  jumpi\n  0x00\n  dup1\n  revert\ntag_1:\n  pop\n  dataSize(sub_0)\n  dup1\n  dataOffset(sub_0)\n  0x00\n  codecopy\n  0x00\n  return\nstop\n\nsub_0: assembly {\n        /* \"contracts/misc/test.sol\":91:283  contract test {... */\n      mstore(0x40, 0x80)\n      callvalue\n      dup1\n      iszero\n      tag_1\n      jumpi\n      0x00\n      dup1\n      revert\n    tag_1:\n      pop\n      jumpi(tag_2, lt(calldatasize, 0x04))\n      shr(0xe0, calldataload(0x00))\n      dup1\n      0x89c19ddb\n      eq\n      tag_3\n      jumpi\n    tag_2:\n      0x00\n      dup1\n      revert\n        /* \"contracts/misc/test.sol\":116:280  function concat(string memory one, string memory two) external returns (string memory concatedString) {... */\n    tag_3:\n      tag_4\n      0x04\n      dup1\n      calldatasize\n      sub\n      dup2\n      add\n      swap1\n      tag_5\n      swap2\n      swap1\n      tag_6\n      jump\t// in\n    tag_5:\n      tag_7\n      jump\t// in\n    tag_4:\n      mload(0x40)\n      tag_8\n      swap2\n      swap1\n      tag_9\n      jump\t// in\n    tag_8:\n      mload(0x40)\n      dup1\n      swap2\n      sub\n      swap1\n      return\n    tag_7:\n        /* \"contracts/misc/test.sol\":188:216  string memory concatedString */\n      0x60\n        /* \"contracts/misc/test.sol\":259:262  one */\n      dup3\n        /* \"contracts/misc/test.sol\":269:272  two */\n      dup3\n        /* \"contracts/misc/test.sol\":245:273  string.concat(one, \" \", two) */\n      add(0x20, mload(0x40))\n      tag_11\n      swap3\n      swap2\n      swap1\n      tag_12\n      jump\t// in\n    tag_11:\n      mload(0x40)\n      0x20\n      dup2\n      dup4\n      sub\n      sub\n      dup2\n      mstore\n      swap1\n      0x40\n      mstore\n        /* \"contracts/misc/test.sol\":228:273  concatedString = string.concat(one, \" \", two) */\n      swap1\n      pop\n        /* \"contracts/misc/test.sol\":116:280  function concat(string memory one, string memory two) external returns (string memory concatedString) {... */\n      swap3\n      swap2\n      pop\n      pop\n      jump\t// out\n        /* \"#utility.yul\":7:82   */\n    tag_13:\n        /* \"#utility.yul\":40:46   */\n      0x00\n        /* \"#utility.yul\":73:75   */\n      0x40\n        /* \"#utility.yul\":67:76   */\n      mload\n        /* \"#utility.yul\":57:76   */\n      swap1\n      pop\n        /* \"#utility.yul\":7:82   */\n      swap1\n      jump\t// out\n        /* \"#utility.yul\":88:205   */\n    tag_14:\n        /* \"#utility.yul\":197:198   */\n      0x00\n        /* \"#utility.yul\":194:195   */\n      dup1\n        /* \"#utility.yul\":187:199   */\n      revert\n        /* \"#utility.yul\":211:328   */\n    tag_15:\n        /* \"#utility.yul\":320:321   */\n      0x00\n        /* \"#utility.yul\":317:318   */\n      dup1\n        /* \"#utility.yul\":310:322   */\n      revert\n        /* \"#utility.yul\":334:451   */\n    tag_16:\n        /* \"#utility.yul\":443:444   */\n      0x00\n        /* \"#utility.yul\":440:441   */\n      dup1\n        /* \"#utility.yul\":433:445   */\n      revert\n        /* \"#utility.yul\":457:574   */\n    tag_17:\n        /* \"#utility.yul\":566:567   */\n      0x00\n        /* \"#utility.yul\":563:564   */\n      dup1\n        /* \"#utility.yul\":556:568   */\n      revert\n        /* \"#utility.yul\":580:682   */\n    tag_18:\n        /* \"#utility.yul\":621:627   */\n      0x00\n        /* \"#utility.yul\":672:674   */\n      0x1f\n        /* \"#utility.yul\":668:675   */\n      not\n        /* \"#utility.yul\":663:665   */\n      0x1f\n        /* \"#utility.yul\":656:661   */\n      dup4\n        /* \"#utility.yul\":652:666   */\n      add\n        /* \"#utility.yul\":648:676   */\n      and\n        /* \"#utility.yul\":638:676   */\n      swap1\n      pop\n        /* \"#utility.yul\":580:682   */\n      swap2\n      swap1\n      pop\n      jump\t// out\n        /* \"#utility.yul\":688:868   */\n    tag_19:\n        /* \"#utility.yul\":736:813   */\n      0x4e487b7100000000000000000000000000000000000000000000000000000000\n        /* \"#utility.yul\":733:734   */\n      0x00\n        /* \"#utility.yul\":726:814   */\n      mstore\n        /* \"#utility.yul\":833:837   */\n      0x41\n        /* \"#utility.yul\":830:831   */\n      0x04\n        /* \"#utility.yul\":823:838   */\n      mstore\n        /* \"#utility.yul\":857:861   */\n      0x24\n        /* \"#utility.yul\":854:855   */\n      0x00\n        /* \"#utility.yul\":847:862   */\n      revert\n        /* \"#utility.yul\":874:1155   */\n    tag_20:\n        /* \"#utility.yul\":957:984   */\n      tag_42\n        /* \"#utility.yul\":979:983   */\n      dup3\n        /* \"#utility.yul\":957:984   */\n      tag_18\n      jump\t// in\n    tag_42:\n        /* \"#utility.yul\":949:955   */\n      dup2\n        /* \"#utility.yul\":945:985   */\n      add\n        /* \"#utility.yul\":1087:1093   */\n      dup2\n        /* \"#utility.yul\":1075:1085   */\n      dup2\n        /* \"#utility.yul\":1072:1094   */\n      lt\n        /* \"#utility.yul\":1051:1069   */\n      0xffffffffffffffff\n        /* \"#utility.yul\":1039:1049   */\n      dup3\n        /* \"#utility.yul\":1036:1070   */\n      gt\n        /* \"#utility.yul\":1033:1095   */\n      or\n        /* \"#utility.yul\":1030:1118   */\n      iszero\n      tag_43\n      jumpi\n        /* \"#utility.yul\":1098:1116   */\n      tag_44\n      tag_19\n      jump\t// in\n    tag_44:\n        /* \"#utility.yul\":1030:1118   */\n    tag_43:\n        /* \"#utility.yul\":1138:1148   */\n      dup1\n        /* \"#utility.yul\":1134:1136   */\n      0x40\n        /* \"#utility.yul\":1127:1149   */\n      mstore\n        /* \"#utility.yul\":917:1155   */\n      pop\n        /* \"#utility.yul\":874:1155   */\n      pop\n      pop\n      jump\t// out\n        /* \"#utility.yul\":1161:1290   */\n    tag_21:\n        /* \"#utility.yul\":1195:1201   */\n      0x00\n        /* \"#utility.yul\":1222:1242   */\n      tag_46\n      tag_13\n      jump\t// in\n    tag_46:\n        /* \"#utility.yul\":1212:1242   */\n      swap1\n      pop\n        /* \"#utility.yul\":1251:1284   */\n      tag_47\n        /* \"#utility.yul\":1279:1283   */\n      dup3\n        /* \"#utility.yul\":1271:1277   */\n      dup3\n        /* \"#utility.yul\":1251:1284   */\n      tag_20\n      jump\t// in\n    tag_47:\n        /* \"#utility.yul\":1161:1290   */\n      swap2\n      swap1\n      pop\n      jump\t// out\n        /* \"#utility.yul\":1296:1604   */\n    tag_22:\n        /* \"#utility.yul\":1358:1362   */\n      0x00\n        /* \"#utility.yul\":1448:1466   */\n      0xffffffffffffffff\n        /* \"#utility.yul\":1440:1446   */\n      dup3\n        /* \"#utility.yul\":1437:1467   */\n      gt\n        /* \"#utility.yul\":1434:1490   */\n      iszero\n      tag_49\n      jumpi\n        /* \"#utility.yul\":1470:1488   */\n      tag_50\n      tag_19\n      jump\t// in\n    tag_50:\n        /* \"#utility.yul\":1434:1490   */\n    tag_49:\n        /* \"#utility.yul\":1508:1537   */\n      tag_51\n        /* \"#utility.yul\":1530:1536   */\n      dup3\n        /* \"#utility.yul\":1508:1537   */\n      tag_18\n      jump\t// in\n    tag_51:\n        /* \"#utility.yul\":1500:1537   */\n      swap1\n      pop\n        /* \"#utility.yul\":1592:1596   */\n      0x20\n        /* \"#utility.yul\":1586:1590   */\n      dup2\n        /* \"#utility.yul\":1582:1597   */\n      add\n        /* \"#utility.yul\":1574:1597   */\n      swap1\n      pop\n        /* \"#utility.yul\":1296:1604   */\n      swap2\n      swap1\n      pop\n      jump\t// out\n        /* \"#utility.yul\":1610:1764   */\n    tag_23:\n        /* \"#utility.yul\":1694:1700   */\n      dup3\n        /* \"#utility.yul\":1689:1692   */\n      dup2\n        /* \"#utility.yul\":1684:1687   */\n      dup4\n        /* \"#utility.yul\":1671:1701   */\n      calldatacopy\n        /* \"#utility.yul\":1756:1757   */\n      0x00\n        /* \"#utility.yul\":1747:1753   */\n      dup4\n        /* \"#utility.yul\":1742:1745   */\n      dup4\n        /* \"#utility.yul\":1738:1754   */\n      add\n        /* \"#utility.yul\":1731:1758   */\n      mstore\n        /* \"#utility.yul\":1610:1764   */\n      pop\n      pop\n      pop\n      jump\t// out\n        /* \"#utility.yul\":1770:2182   */\n    tag_24:\n        /* \"#utility.yul\":1848:1853   */\n      0x00\n        /* \"#utility.yul\":1873:1939   */\n      tag_54\n        /* \"#utility.yul\":1889:1938   */\n      tag_55\n        /* \"#utility.yul\":1931:1937   */\n      dup5\n        /* \"#utility.yul\":1889:1938   */\n      tag_22\n      jump\t// in\n    tag_55:\n        /* \"#utility.yul\":1873:1939   */\n      tag_21\n      jump\t// in\n    tag_54:\n        /* \"#utility.yul\":1864:1939   */\n      swap1\n      pop\n        /* \"#utility.yul\":1962:1968   */\n      dup3\n        /* \"#utility.yul\":1955:1960   */\n      dup2\n        /* \"#utility.yul\":1948:1969   */\n      mstore\n        /* \"#utility.yul\":2000:2004   */\n      0x20\n        /* \"#utility.yul\":1993:1998   */\n      dup2\n        /* \"#utility.yul\":1989:2005   */\n      add\n        /* \"#utility.yul\":2038:2041   */\n      dup5\n        /* \"#utility.yul\":2029:2035   */\n      dup5\n        /* \"#utility.yul\":2024:2027   */\n      dup5\n        /* \"#utility.yul\":2020:2036   */\n      add\n        /* \"#utility.yul\":2017:2042   */\n      gt\n        /* \"#utility.yul\":2014:2126   */\n      iszero\n      tag_56\n      jumpi\n        /* \"#utility.yul\":2045:2124   */\n      tag_57\n      tag_17\n      jump\t// in\n    tag_57:\n        /* \"#utility.yul\":2014:2126   */\n    tag_56:\n        /* \"#utility.yul\":2135:2176   */\n      tag_58\n        /* \"#utility.yul\":2169:2175   */\n      dup5\n        /* \"#utility.yul\":2164:2167   */\n      dup3\n        /* \"#utility.yul\":2159:2162   */\n      dup6\n        /* \"#utility.yul\":2135:2176   */\n      tag_23\n      jump\t// in\n    tag_58:\n        /* \"#utility.yul\":1854:2182   */\n      pop\n        /* \"#utility.yul\":1770:2182   */\n      swap4\n      swap3\n      pop\n      pop\n      pop\n      jump\t// out\n        /* \"#utility.yul\":2202:2542   */\n    tag_25:\n        /* \"#utility.yul\":2258:2263   */\n      0x00\n        /* \"#utility.yul\":2307:2310   */\n      dup3\n        /* \"#utility.yul\":2300:2304   */\n      0x1f\n        /* \"#utility.yul\":2292:2298   */\n      dup4\n        /* \"#utility.yul\":2288:2305   */\n      add\n        /* \"#utility.yul\":2284:2311   */\n      slt\n        /* \"#utility.yul\":2274:2396   */\n      tag_60\n      jumpi\n        /* \"#utility.yul\":2315:2394   */\n      tag_61\n      tag_16\n      jump\t// in\n    tag_61:\n        /* \"#utility.yul\":2274:2396   */\n    tag_60:\n        /* \"#utility.yul\":2432:2438   */\n      dup2\n        /* \"#utility.yul\":2419:2439   */\n      calldataload\n        /* \"#utility.yul\":2457:2536   */\n      tag_62\n        /* \"#utility.yul\":2532:2535   */\n      dup5\n        /* \"#utility.yul\":2524:2530   */\n      dup3\n        /* \"#utility.yul\":2517:2521   */\n      0x20\n        /* \"#utility.yul\":2509:2515   */\n      dup7\n        /* \"#utility.yul\":2505:2522   */\n      add\n        /* \"#utility.yul\":2457:2536   */\n      tag_24\n      jump\t// in\n    tag_62:\n        /* \"#utility.yul\":2448:2536   */\n      swap2\n      pop\n        /* \"#utility.yul\":2264:2542   */\n      pop\n        /* \"#utility.yul\":2202:2542   */\n      swap3\n      swap2\n      pop\n      pop\n      jump\t// out\n        /* \"#utility.yul\":2548:3382   */\n    tag_6:\n        /* \"#utility.yul\":2636:2642   */\n      0x00\n        /* \"#utility.yul\":2644:2650   */\n      dup1\n        /* \"#utility.yul\":2693:2695   */\n      0x40\n        /* \"#utility.yul\":2681:2690   */\n      dup4\n        /* \"#utility.yul\":2672:2679   */\n      dup6\n        /* \"#utility.yul\":2668:2691   */\n      sub\n        /* \"#utility.yul\":2664:2696   */\n      slt\n        /* \"#utility.yul\":2661:2780   */\n      iszero\n      tag_64\n      jumpi\n        /* \"#utility.yul\":2699:2778   */\n      tag_65\n      tag_14\n      jump\t// in\n    tag_65:\n        /* \"#utility.yul\":2661:2780   */\n    tag_64:\n        /* \"#utility.yul\":2847:2848   */\n      0x00\n        /* \"#utility.yul\":2836:2845   */\n      dup4\n        /* \"#utility.yul\":2832:2849   */\n      add\n        /* \"#utility.yul\":2819:2850   */\n      calldataload\n        /* \"#utility.yul\":2877:2895   */\n      0xffffffffffffffff\n        /* \"#utility.yul\":2869:2875   */\n      dup2\n        /* \"#utility.yul\":2866:2896   */\n      gt\n        /* \"#utility.yul\":2863:2980   */\n      iszero\n      tag_66\n      jumpi\n        /* \"#utility.yul\":2899:2978   */\n      tag_67\n      tag_15\n      jump\t// in\n    tag_67:\n        /* \"#utility.yul\":2863:2980   */\n    tag_66:\n        /* \"#utility.yul\":3004:3067   */\n      tag_68\n        /* \"#utility.yul\":3059:3066   */\n      dup6\n        /* \"#utility.yul\":3050:3056   */\n      dup3\n        /* \"#utility.yul\":3039:3048   */\n      dup7\n        /* \"#utility.yul\":3035:3057   */\n      add\n        /* \"#utility.yul\":3004:3067   */\n      tag_25\n      jump\t// in\n    tag_68:\n        /* \"#utility.yul\":2994:3067   */\n      swap3\n      pop\n        /* \"#utility.yul\":2790:3077   */\n      pop\n        /* \"#utility.yul\":3144:3146   */\n      0x20\n        /* \"#utility.yul\":3133:3142   */\n      dup4\n        /* \"#utility.yul\":3129:3147   */\n      add\n        /* \"#utility.yul\":3116:3148   */\n      calldataload\n        /* \"#utility.yul\":3175:3193   */\n      0xffffffffffffffff\n        /* \"#utility.yul\":3167:3173   */\n      dup2\n        /* \"#utility.yul\":3164:3194   */\n      gt\n        /* \"#utility.yul\":3161:3278   */\n      iszero\n      tag_69\n      jumpi\n        /* \"#utility.yul\":3197:3276   */\n      tag_70\n      tag_15\n      jump\t// in\n    tag_70:\n        /* \"#utility.yul\":3161:3278   */\n    tag_69:\n        /* \"#utility.yul\":3302:3365   */\n      tag_71\n        /* \"#utility.yul\":3357:3364   */\n      dup6\n        /* \"#utility.yul\":3348:3354   */\n      dup3\n        /* \"#utility.yul\":3337:3346   */\n      dup7\n        /* \"#utility.yul\":3333:3355   */\n      add\n        /* \"#utility.yul\":3302:3365   */\n      tag_25\n      jump\t// in\n    tag_71:\n        /* \"#utility.yul\":3292:3365   */\n      swap2\n      pop\n        /* \"#utility.yul\":3087:3375   */\n      pop\n        /* \"#utility.yul\":2548:3382   */\n      swap3\n      pop\n      swap3\n      swap1\n      pop\n      jump\t// out\n        /* \"#utility.yul\":3388:3487   */\n    tag_26:\n        /* \"#utility.yul\":3440:3446   */\n      0x00\n        /* \"#utility.yul\":3474:3479   */\n      dup2\n        /* \"#utility.yul\":3468:3480   */\n      mload\n        /* \"#utility.yul\":3458:3480   */\n      swap1\n      pop\n        /* \"#utility.yul\":3388:3487   */\n      swap2\n      swap1\n      pop\n      jump\t// out\n        /* \"#utility.yul\":3493:3662   */\n    tag_27:\n        /* \"#utility.yul\":3577:3588   */\n      0x00\n        /* \"#utility.yul\":3611:3617   */\n      dup3\n        /* \"#utility.yul\":3606:3609   */\n      dup3\n        /* \"#utility.yul\":3599:3618   */\n      mstore\n        /* \"#utility.yul\":3651:3655   */\n      0x20\n        /* \"#utility.yul\":3646:3649   */\n      dup3\n        /* \"#utility.yul\":3642:3656   */\n      add\n        /* \"#utility.yul\":3627:3656   */\n      swap1\n      pop\n        /* \"#utility.yul\":3493:3662   */\n      swap3\n      swap2\n      pop\n      pop\n      jump\t// out\n        /* \"#utility.yul\":3668:3975   */\n    tag_28:\n        /* \"#utility.yul\":3736:3737   */\n      0x00\n        /* \"#utility.yul\":3746:3859   */\n    tag_75:\n        /* \"#utility.yul\":3760:3766   */\n      dup4\n        /* \"#utility.yul\":3757:3758   */\n      dup2\n        /* \"#utility.yul\":3754:3767   */\n      lt\n        /* \"#utility.yul\":3746:3859   */\n      iszero\n      tag_77\n      jumpi\n        /* \"#utility.yul\":3845:3846   */\n      dup1\n        /* \"#utility.yul\":3840:3843   */\n      dup3\n        /* \"#utility.yul\":3836:3847   */\n      add\n        /* \"#utility.yul\":3830:3848   */\n      mload\n        /* \"#utility.yul\":3826:3827   */\n      dup2\n        /* \"#utility.yul\":3821:3824   */\n      dup5\n        /* \"#utility.yul\":3817:3828   */\n      add\n        /* \"#utility.yul\":3810:3849   */\n      mstore\n        /* \"#utility.yul\":3782:3784   */\n      0x20\n        /* \"#utility.yul\":3779:3780   */\n      dup2\n        /* \"#utility.yul\":3775:3785   */\n      add\n        /* \"#utility.yul\":3770:3785   */\n      swap1\n      pop\n        /* \"#utility.yul\":3746:3859   */\n      jump(tag_75)\n    tag_77:\n        /* \"#utility.yul\":3877:3883   */\n      dup4\n        /* \"#utility.yul\":3874:3875   */\n      dup2\n        /* \"#utility.yul\":3871:3884   */\n      gt\n        /* \"#utility.yul\":3868:3969   */\n      iszero\n      tag_78\n      jumpi\n        /* \"#utility.yul\":3957:3958   */\n      0x00\n        /* \"#utility.yul\":3948:3954   */\n      dup5\n        /* \"#utility.yul\":3943:3946   */\n      dup5\n        /* \"#utility.yul\":3939:3955   */\n      add\n        /* \"#utility.yul\":3932:3959   */\n      mstore\n        /* \"#utility.yul\":3868:3969   */\n    tag_78:\n        /* \"#utility.yul\":3717:3975   */\n      pop\n        /* \"#utility.yul\":3668:3975   */\n      pop\n      pop\n      pop\n      jump\t// out\n        /* \"#utility.yul\":3981:4345   */\n    tag_29:\n        /* \"#utility.yul\":4069:4072   */\n      0x00\n        /* \"#utility.yul\":4097:4136   */\n      tag_80\n        /* \"#utility.yul\":4130:4135   */\n      dup3\n        /* \"#utility.yul\":4097:4136   */\n      tag_26\n      jump\t// in\n    tag_80:\n        /* \"#utility.yul\":4152:4223   */\n      tag_81\n        /* \"#utility.yul\":4216:4222   */\n      dup2\n        /* \"#utility.yul\":4211:4214   */\n      dup6\n        /* \"#utility.yul\":4152:4223   */\n      tag_27\n      jump\t// in\n    tag_81:\n        /* \"#utility.yul\":4145:4223   */\n      swap4\n      pop\n        /* \"#utility.yul\":4232:4284   */\n      tag_82\n        /* \"#utility.yul\":4277:4283   */\n      dup2\n        /* \"#utility.yul\":4272:4275   */\n      dup6\n        /* \"#utility.yul\":4265:4269   */\n      0x20\n        /* \"#utility.yul\":4258:4263   */\n      dup7\n        /* \"#utility.yul\":4254:4270   */\n      add\n        /* \"#utility.yul\":4232:4284   */\n      tag_28\n      jump\t// in\n    tag_82:\n        /* \"#utility.yul\":4309:4338   */\n      tag_83\n        /* \"#utility.yul\":4331:4337   */\n      dup2\n        /* \"#utility.yul\":4309:4338   */\n      tag_18\n      jump\t// in\n    tag_83:\n        /* \"#utility.yul\":4304:4307   */\n      dup5\n        /* \"#utility.yul\":4300:4339   */\n      add\n        /* \"#utility.yul\":4293:4339   */\n      swap2\n      pop\n        /* \"#utility.yul\":4073:4345   */\n      pop\n        /* \"#utility.yul\":3981:4345   */\n      swap3\n      swap2\n      pop\n      pop\n      jump\t// out\n        /* \"#utility.yul\":4351:4664   */\n    tag_9:\n        /* \"#utility.yul\":4464:4468   */\n      0x00\n        /* \"#utility.yul\":4502:4504   */\n      0x20\n        /* \"#utility.yul\":4491:4500   */\n      dup3\n        /* \"#utility.yul\":4487:4505   */\n      add\n        /* \"#utility.yul\":4479:4505   */\n      swap1\n      pop\n        /* \"#utility.yul\":4551:4560   */\n      dup2\n        /* \"#utility.yul\":4545:4549   */\n      dup2\n        /* \"#utility.yul\":4541:4561   */\n      sub\n        /* \"#utility.yul\":4537:4538   */\n      0x00\n        /* \"#utility.yul\":4526:4535   */\n      dup4\n        /* \"#utility.yul\":4522:4539   */\n      add\n        /* \"#utility.yul\":4515:4562   */\n      mstore\n        /* \"#utility.yul\":4579:4657   */\n      tag_85\n        /* \"#utility.yul\":4652:4656   */\n      dup2\n        /* \"#utility.yul\":4643:4649   */\n      dup5\n        /* \"#utility.yul\":4579:4657   */\n      tag_29\n      jump\t// in\n    tag_85:\n        /* \"#utility.yul\":4571:4657   */\n      swap1\n      pop\n        /* \"#utility.yul\":4351:4664   */\n      swap3\n      swap2\n      pop\n      pop\n      jump\t// out\n        /* \"#utility.yul\":4670:4818   */\n    tag_30:\n        /* \"#utility.yul\":4772:4783   */\n      0x00\n        /* \"#utility.yul\":4809:4812   */\n      dup2\n        /* \"#utility.yul\":4794:4812   */\n      swap1\n      pop\n        /* \"#utility.yul\":4670:4818   */\n      swap3\n      swap2\n      pop\n      pop\n      jump\t// out\n        /* \"#utility.yul\":4824:5201   */\n    tag_31:\n        /* \"#utility.yul\":4930:4933   */\n      0x00\n        /* \"#utility.yul\":4958:4997   */\n      tag_88\n        /* \"#utility.yul\":4991:4996   */\n      dup3\n        /* \"#utility.yul\":4958:4997   */\n      tag_26\n      jump\t// in\n    tag_88:\n        /* \"#utility.yul\":5013:5102   */\n      tag_89\n        /* \"#utility.yul\":5095:5101   */\n      dup2\n        /* \"#utility.yul\":5090:5093   */\n      dup6\n        /* \"#utility.yul\":5013:5102   */\n      tag_30\n      jump\t// in\n    tag_89:\n        /* \"#utility.yul\":5006:5102   */\n      swap4\n      pop\n        /* \"#utility.yul\":5111:5163   */\n      tag_90\n        /* \"#utility.yul\":5156:5162   */\n      dup2\n        /* \"#utility.yul\":5151:5154   */\n      dup6\n        /* \"#utility.yul\":5144:5148   */\n      0x20\n        /* \"#utility.yul\":5137:5142   */\n      dup7\n        /* \"#utility.yul\":5133:5149   */\n      add\n        /* \"#utility.yul\":5111:5163   */\n      tag_28\n      jump\t// in\n    tag_90:\n        /* \"#utility.yul\":5188:5194   */\n      dup1\n        /* \"#utility.yul\":5183:5186   */\n      dup5\n        /* \"#utility.yul\":5179:5195   */\n      add\n        /* \"#utility.yul\":5172:5195   */\n      swap2\n      pop\n        /* \"#utility.yul\":4934:5201   */\n      pop\n        /* \"#utility.yul\":4824:5201   */\n      swap3\n      swap2\n      pop\n      pop\n      jump\t// out\n        /* \"#utility.yul\":5207:5385   */\n    tag_32:\n        /* \"#utility.yul\":5375:5378   */\n      0x2000000000000000000000000000000000000000000000000000000000000000\n        /* \"#utility.yul\":5370:5373   */\n      dup2\n        /* \"#utility.yul\":5363:5379   */\n      mstore\n        /* \"#utility.yul\":5207:5385   */\n      pop\n      jump\t// out\n        /* \"#utility.yul\":5391:6090   */\n    tag_12:\n        /* \"#utility.yul\":5661:5664   */\n      0x00\n        /* \"#utility.yul\":5683:5778   */\n      tag_93\n        /* \"#utility.yul\":5774:5777   */\n      dup3\n        /* \"#utility.yul\":5765:5771   */\n      dup6\n        /* \"#utility.yul\":5683:5778   */\n      tag_31\n      jump\t// in\n    tag_93:\n        /* \"#utility.yul\":5676:5778   */\n      swap2\n      pop\n        /* \"#utility.yul\":5788:5925   */\n      tag_94\n        /* \"#utility.yul\":5921:5924   */\n      dup3\n        /* \"#utility.yul\":5788:5925   */\n      tag_32\n      jump\t// in\n    tag_94:\n        /* \"#utility.yul\":5950:5951   */\n      0x01\n        /* \"#utility.yul\":5945:5948   */\n      dup3\n        /* \"#utility.yul\":5941:5952   */\n      add\n        /* \"#utility.yul\":5934:5952   */\n      swap2\n      pop\n        /* \"#utility.yul\":5969:6064   */\n      tag_95\n        /* \"#utility.yul\":6060:6063   */\n      dup3\n        /* \"#utility.yul\":6051:6057   */\n      dup5\n        /* \"#utility.yul\":5969:6064   */\n      tag_31\n      jump\t// in\n    tag_95:\n        /* \"#utility.yul\":5962:6064   */\n      swap2\n      pop\n        /* \"#utility.yul\":6081:6084   */\n      dup2\n        /* \"#utility.yul\":6074:6084   */\n      swap1\n      pop\n        /* \"#utility.yul\":5391:6090   */\n      swap4\n      swap3\n      pop\n      pop\n      pop\n      jump\t// out\n\n    auxdata: 0xa2646970667358221220aa65d33831c1220cd76203e41995b81de44abb0e5e2a8653d5ab06b88f408b5b64736f6c634300080e0033\n}\n",
				"bytecode": {
					"linkReferences": {},
					"object": "608060405234801561001057600080fd5b506103d3806100206000396000f3fe608060405234801561001057600080fd5b506004361061002b5760003560e01c806389c19ddb14610030575b600080fd5b61004a600480360381019061004591906101e6565b610060565b60405161005791906102e6565b60405180910390f35b6060828260405160200161007592919061036a565b604051602081830303815290604052905092915050565b6000604051905090565b600080fd5b600080fd5b600080fd5b600080fd5b6000601f19601f8301169050919050565b7f4e487b7100000000000000000000000000000000000000000000000000000000600052604160045260246000fd5b6100f3826100aa565b810181811067ffffffffffffffff82111715610112576101116100bb565b5b80604052505050565b600061012561008c565b905061013182826100ea565b919050565b600067ffffffffffffffff821115610151576101506100bb565b5b61015a826100aa565b9050602081019050919050565b82818337600083830152505050565b600061018961018484610136565b61011b565b9050828152602081018484840111156101a5576101a46100a5565b5b6101b0848285610167565b509392505050565b600082601f8301126101cd576101cc6100a0565b5b81356101dd848260208601610176565b91505092915050565b600080604083850312156101fd576101fc610096565b5b600083013567ffffffffffffffff81111561021b5761021a61009b565b5b610227858286016101b8565b925050602083013567ffffffffffffffff8111156102485761024761009b565b5b610254858286016101b8565b9150509250929050565b600081519050919050565b600082825260208201905092915050565b60005b8381101561029857808201518184015260208101905061027d565b838111156102a7576000848401525b50505050565b60006102b88261025e565b6102c28185610269565b93506102d281856020860161027a565b6102db816100aa565b840191505092915050565b6000602082019050818103600083015261030081846102ad565b905092915050565b600081905092915050565b600061031e8261025e565b6103288185610308565b935061033881856020860161027a565b80840191505092915050565b7f2000000000000000000000000000000000000000000000000000000000000000815250565b60006103768285610313565b915061038182610344565b6001820191506103918284610313565b9150819050939250505056fea2646970667358221220aa65d33831c1220cd76203e41995b81de44abb0e5e2a8653d5ab06b88f408b5b64736f6c634300080e0033",
					"opcodes": "PUSH1 0x80 PUSH1 0x40 MSTORE CALLVALUE DUP1 ISZERO PUSH2 0x10 JUMPI PUSH1 0x0 DUP1 REVERT JUMPDEST POP PUSH2 0x3D3 DUP1 PUSH2 0x20 PUSH1 0x0 CODECOPY PUSH1 0x0 RETURN INVALID PUSH1 0x80 PUSH1 0x40 MSTORE CALLVALUE DUP1 ISZERO PUSH2 0x10 JUMPI PUSH1 0x0 DUP1 REVERT JUMPDEST POP PUSH1 0x4 CALLDATASIZE LT PUSH2 0x2B JUMPI PUSH1 0x0 CALLDATALOAD PUSH1 0xE0 SHR DUP1 PUSH4 0x89C19DDB EQ PUSH2 0x30 JUMPI JUMPDEST PUSH1 0x0 DUP1 REVERT JUMPDEST PUSH2 0x4A PUSH1 0x4 DUP1 CALLDATASIZE SUB DUP2 ADD SWAP1 PUSH2 0x45 SWAP2 SWAP1 PUSH2 0x1E6 JUMP JUMPDEST PUSH2 0x60 JUMP JUMPDEST PUSH1 0x40 MLOAD PUSH2 0x57 SWAP2 SWAP1 PUSH2 0x2E6 JUMP JUMPDEST PUSH1 0x40 MLOAD DUP1 SWAP2 SUB SWAP1 RETURN JUMPDEST PUSH1 0x60 DUP3 DUP3 PUSH1 0x40 MLOAD PUSH1 0x20 ADD PUSH2 0x75 SWAP3 SWAP2 SWAP1 PUSH2 0x36A JUMP JUMPDEST PUSH1 0x40 MLOAD PUSH1 0x20 DUP2 DUP4 SUB SUB DUP2 MSTORE SWAP1 PUSH1 0x40 MSTORE SWAP1 POP SWAP3 SWAP2 POP POP JUMP JUMPDEST PUSH1 0x0 PUSH1 0x40 MLOAD SWAP1 POP SWAP1 JUMP JUMPDEST PUSH1 0x0 DUP1 REVERT JUMPDEST PUSH1 0x0 DUP1 REVERT JUMPDEST PUSH1 0x0 DUP1 REVERT JUMPDEST PUSH1 0x0 DUP1 REVERT JUMPDEST PUSH1 0x0 PUSH1 0x1F NOT PUSH1 0x1F DUP4 ADD AND SWAP1 POP SWAP2 SWAP1 POP JUMP JUMPDEST PUSH32 0x4E487B7100000000000000000000000000000000000000000000000000000000 PUSH1 0x0 MSTORE PUSH1 0x41 PUSH1 0x4 MSTORE PUSH1 0x24 PUSH1 0x0 REVERT JUMPDEST PUSH2 0xF3 DUP3 PUSH2 0xAA JUMP JUMPDEST DUP2 ADD DUP2 DUP2 LT PUSH8 0xFFFFFFFFFFFFFFFF DUP3 GT OR ISZERO PUSH2 0x112 JUMPI PUSH2 0x111 PUSH2 0xBB JUMP JUMPDEST JUMPDEST DUP1 PUSH1 0x40 MSTORE POP POP POP JUMP JUMPDEST PUSH1 0x0 PUSH2 0x125 PUSH2 0x8C JUMP JUMPDEST SWAP1 POP PUSH2 0x131 DUP3 DUP3 PUSH2 0xEA JUMP JUMPDEST SWAP2 SWAP1 POP JUMP JUMPDEST PUSH1 0x0 PUSH8 0xFFFFFFFFFFFFFFFF DUP3 GT ISZERO PUSH2 0x151 JUMPI PUSH2 0x150 PUSH2 0xBB JUMP JUMPDEST JUMPDEST PUSH2 0x15A DUP3 PUSH2 0xAA JUMP JUMPDEST SWAP1 POP PUSH1 0x20 DUP2 ADD SWAP1 POP SWAP2 SWAP1 POP JUMP JUMPDEST DUP3 DUP2 DUP4 CALLDATACOPY PUSH1 0x0 DUP4 DUP4 ADD MSTORE POP POP POP JUMP JUMPDEST PUSH1 0x0 PUSH2 0x189 PUSH2 0x184 DUP5 PUSH2 0x136 JUMP JUMPDEST PUSH2 0x11B JUMP JUMPDEST SWAP1 POP DUP3 DUP2 MSTORE PUSH1 0x20 DUP2 ADD DUP5 DUP5 DUP5 ADD GT ISZERO PUSH2 0x1A5 JUMPI PUSH2 0x1A4 PUSH2 0xA5 JUMP JUMPDEST JUMPDEST PUSH2 0x1B0 DUP5 DUP3 DUP6 PUSH2 0x167 JUMP JUMPDEST POP SWAP4 SWAP3 POP POP POP JUMP JUMPDEST PUSH1 0x0 DUP3 PUSH1 0x1F DUP4 ADD SLT PUSH2 0x1CD JUMPI PUSH2 0x1CC PUSH2 0xA0 JUMP JUMPDEST JUMPDEST DUP2 CALLDATALOAD PUSH2 0x1DD DUP5 DUP3 PUSH1 0x20 DUP7 ADD PUSH2 0x176 JUMP JUMPDEST SWAP2 POP POP SWAP3 SWAP2 POP POP JUMP JUMPDEST PUSH1 0x0 DUP1 PUSH1 0x40 DUP4 DUP6 SUB SLT ISZERO PUSH2 0x1FD JUMPI PUSH2 0x1FC PUSH2 0x96 JUMP JUMPDEST JUMPDEST PUSH1 0x0 DUP4 ADD CALLDATALOAD PUSH8 0xFFFFFFFFFFFFFFFF DUP2 GT ISZERO PUSH2 0x21B JUMPI PUSH2 0x21A PUSH2 0x9B JUMP JUMPDEST JUMPDEST PUSH2 0x227 DUP6 DUP3 DUP7 ADD PUSH2 0x1B8 JUMP JUMPDEST SWAP3 POP POP PUSH1 0x20 DUP4 ADD CALLDATALOAD PUSH8 0xFFFFFFFFFFFFFFFF DUP2 GT ISZERO PUSH2 0x248 JUMPI PUSH2 0x247 PUSH2 0x9B JUMP JUMPDEST JUMPDEST PUSH2 0x254 DUP6 DUP3 DUP7 ADD PUSH2 0x1B8 JUMP JUMPDEST SWAP2 POP POP SWAP3 POP SWAP3 SWAP1 POP JUMP JUMPDEST PUSH1 0x0 DUP2 MLOAD SWAP1 POP SWAP2 SWAP1 POP JUMP JUMPDEST PUSH1 0x0 DUP3 DUP3 MSTORE PUSH1 0x20 DUP3 ADD SWAP1 POP SWAP3 SWAP2 POP POP JUMP JUMPDEST PUSH1 0x0 JUMPDEST DUP4 DUP2 LT ISZERO PUSH2 0x298 JUMPI DUP1 DUP3 ADD MLOAD DUP2 DUP5 ADD MSTORE PUSH1 0x20 DUP2 ADD SWAP1 POP PUSH2 0x27D JUMP JUMPDEST DUP4 DUP2 GT ISZERO PUSH2 0x2A7 JUMPI PUSH1 0x0 DUP5 DUP5 ADD MSTORE JUMPDEST POP POP POP POP JUMP JUMPDEST PUSH1 0x0 PUSH2 0x2B8 DUP3 PUSH2 0x25E JUMP JUMPDEST PUSH2 0x2C2 DUP2 DUP6 PUSH2 0x269 JUMP JUMPDEST SWAP4 POP PUSH2 0x2D2 DUP2 DUP6 PUSH1 0x20 DUP7 ADD PUSH2 0x27A JUMP JUMPDEST PUSH2 0x2DB DUP2 PUSH2 0xAA JUMP JUMPDEST DUP5 ADD SWAP2 POP POP SWAP3 SWAP2 POP POP JUMP JUMPDEST PUSH1 0x0 PUSH1 0x20 DUP3 ADD SWAP1 POP DUP2 DUP2 SUB PUSH1 0x0 DUP4 ADD MSTORE PUSH2 0x300 DUP2 DUP5 PUSH2 0x2AD JUMP JUMPDEST SWAP1 POP SWAP3 SWAP2 POP POP JUMP JUMPDEST PUSH1 0x0 DUP2 SWAP1 POP SWAP3 SWAP2 POP POP JUMP JUMPDEST PUSH1 0x0 PUSH2 0x31E DUP3 PUSH2 0x25E JUMP JUMPDEST PUSH2 0x328 DUP2 DUP6 PUSH2 0x308 JUMP JUMPDEST SWAP4 POP PUSH2 0x338 DUP2 DUP6 PUSH1 0x20 DUP7 ADD PUSH2 0x27A JUMP JUMPDEST DUP1 DUP5 ADD SWAP2 POP POP SWAP3 SWAP2 POP POP JUMP JUMPDEST PUSH32 0x2000000000000000000000000000000000000000000000000000000000000000 DUP2 MSTORE POP JUMP JUMPDEST PUSH1 0x0 PUSH2 0x376 DUP3 DUP6 PUSH2 0x313 JUMP JUMPDEST SWAP2 POP PUSH2 0x381 DUP3 PUSH2 0x344 JUMP JUMPDEST PUSH1 0x1 DUP3 ADD SWAP2 POP PUSH2 0x391 DUP3 DUP5 PUSH2 0x313 JUMP JUMPDEST SWAP2 POP DUP2 SWAP1 POP SWAP4 SWAP3 POP POP POP JUMP INVALID LOG2 PUSH5 0x6970667358 0x22 SLT KECCAK256 0xAA PUSH6 0xD33831C1220C 0xD7 PUSH3 0x3E419 SWAP6 0xB8 SAR 0xE4 0x4A 0xBB 0xE 0x5E 0x2A DUP7 MSTORE8 0xD5 0xAB MOD 0xB8 DUP16 BLOCKHASH DUP12 JUMPDEST PUSH5 0x736F6C6343 STOP ADDMOD 0xE STOP CALLER "
				},
				"gasEstimates": {
					"creation": {
						"codeDepositCost": "195800",
						"executionCost": "238",
						"totalCost": "196038"
					},
					"external": {
						"concat(string,string)": "infinite"
					}
				},
				"methodIdentifiers": {
					"concat(string,string)": "89c19ddb"
				}
			},
			"storageLayout": {
				"storage": [],
				"types": null
			},
			"userdoc": {
				"kind": "user",
				"methods": {},
				"version": 1
			}
		}
	}
}