{
	"contracts/DeFi/MultiSigV3.sol": {
		"MultiSigWallet": {
			"abi": [
				{
					"inputs": [
						{
							"internalType": "address[2]",
							"name": "_owners",
							"type": "address[2]"
						}
					],
					"stateMutability": "payable",
					"type": "constructor"
				},
				{
					"inputs": [
						{
							"internalType": "bytes32",
							"name": "",
							"type": "bytes32"
						}
					],
					"name": "executed",
					"outputs": [
						{
							"internalType": "bool",
							"name": "",
							"type": "bool"
						}
					],
					"stateMutability": "view",
					"type": "function"
				},
				{
					"inputs": [
						{
							"internalType": "uint256",
							"name": "",
							"type": "uint256"
						}
					],
					"name": "owners",
					"outputs": [
						{
							"internalType": "address",
							"name": "",
							"type": "address"
						}
					],
					"stateMutability": "view",
					"type": "function"
				}
			],
			"devdoc": {
				"kind": "dev",
				"methods": {},
				"version": 1
			},
			"evm": {
				"assembly": "    /* \"contracts/DeFi/MultiSigV3.sol\":207:426  contract MultiSigWallet {... */\n  mstore(0x40, 0x80)\n    /* \"contracts/DeFi/MultiSigV3.sol\":344:424  constructor(address[2] memory _owners) payable {... */\n  mload(0x40)\n  sub(codesize, bytecodeSize)\n  dup1\n  bytecodeSize\n  dup4\n  codecopy\n  dup2\n  dup2\n  add\n  0x40\n  mstore\n  dup2\n  add\n  swap1\n  tag_1\n  swap2\n  swap1\n  tag_2\n  jump\t// in\ntag_1:\n    /* \"contracts/DeFi/MultiSigV3.sol\":410:417  _owners */\n  dup1\n    /* \"contracts/DeFi/MultiSigV3.sol\":401:407  owners */\n  0x00\n    /* \"contracts/DeFi/MultiSigV3.sol\":401:417  owners = _owners */\n  swap1\n  0x02\n  tag_5\n  swap3\n  swap2\n  swap1\n  tag_6\n  jump\t// in\ntag_5:\n  pop\n    /* \"contracts/DeFi/MultiSigV3.sol\":344:424  constructor(address[2] memory _owners) payable {... */\n  pop\n    /* \"contracts/DeFi/MultiSigV3.sol\":207:426  contract MultiSigWallet {... */\n  jump(tag_7)\ntag_6:\n  dup3\n  0x02\n  dup2\n  add\n  swap3\n  dup3\n  iszero\n  tag_8\n  jumpi\n  swap2\n  0x20\n  mul\n  dup3\n  add\ntag_9:\n  dup3\n  dup2\n  gt\n  iszero\n  tag_10\n  jumpi\n  dup3\n  mload\n  dup3\n  exp(0x0100, 0x00)\n  dup2\n  sload\n  dup2\n  0xffffffffffffffffffffffffffffffffffffffff\n  mul\n  not\n  and\n  swap1\n  dup4\n  0xffffffffffffffffffffffffffffffffffffffff\n  and\n  mul\n  or\n  swap1\n  sstore\n  pop\n  swap2\n  0x20\n  add\n  swap2\n  swap1\n  0x01\n  add\n  swap1\n  jump(tag_9)\ntag_10:\ntag_8:\n  pop\n  swap1\n  pop\n  tag_11\n  swap2\n  swap1\n  tag_12\n  jump\t// in\ntag_11:\n  pop\n  swap1\n  jump\t// out\ntag_12:\ntag_13:\n  dup1\n  dup3\n  gt\n  iszero\n  tag_14\n  jumpi\n  0x00\n  dup2\n  0x00\n  swap1\n  sstore\n  pop\n  0x01\n  add\n  jump(tag_13)\ntag_14:\n  pop\n  swap1\n  jump\t// out\n    /* \"#utility.yul\":7:82   */\ntag_15:\n    /* \"#utility.yul\":40:46   */\n  0x00\n    /* \"#utility.yul\":73:75   */\n  0x40\n    /* \"#utility.yul\":67:76   */\n  mload\n    /* \"#utility.yul\":57:76   */\n  swap1\n  pop\n    /* \"#utility.yul\":7:82   */\n  swap1\n  jump\t// out\n    /* \"#utility.yul\":88:205   */\ntag_16:\n    /* \"#utility.yul\":197:198   */\n  0x00\n    /* \"#utility.yul\":194:195   */\n  dup1\n    /* \"#utility.yul\":187:199   */\n  revert\n    /* \"#utility.yul\":334:451   */\ntag_18:\n    /* \"#utility.yul\":443:444   */\n  0x00\n    /* \"#utility.yul\":440:441   */\n  dup1\n    /* \"#utility.yul\":433:445   */\n  revert\n    /* \"#utility.yul\":457:559   */\ntag_19:\n    /* \"#utility.yul\":498:504   */\n  0x00\n    /* \"#utility.yul\":549:551   */\n  0x1f\n    /* \"#utility.yul\":545:552   */\n  not\n    /* \"#utility.yul\":540:542   */\n  0x1f\n    /* \"#utility.yul\":533:538   */\n  dup4\n    /* \"#utility.yul\":529:543   */\n  add\n    /* \"#utility.yul\":525:553   */\n  and\n    /* \"#utility.yul\":515:553   */\n  swap1\n  pop\n    /* \"#utility.yul\":457:559   */\n  swap2\n  swap1\n  pop\n  jump\t// out\n    /* \"#utility.yul\":565:745   */\ntag_20:\n    /* \"#utility.yul\":613:690   */\n  0x4e487b7100000000000000000000000000000000000000000000000000000000\n    /* \"#utility.yul\":610:611   */\n  0x00\n    /* \"#utility.yul\":603:691   */\n  mstore\n    /* \"#utility.yul\":710:714   */\n  0x41\n    /* \"#utility.yul\":707:708   */\n  0x04\n    /* \"#utility.yul\":700:715   */\n  mstore\n    /* \"#utility.yul\":734:738   */\n  0x24\n    /* \"#utility.yul\":731:732   */\n  0x00\n    /* \"#utility.yul\":724:739   */\n  revert\n    /* \"#utility.yul\":751:1032   */\ntag_21:\n    /* \"#utility.yul\":834:861   */\n  tag_39\n    /* \"#utility.yul\":856:860   */\n  dup3\n    /* \"#utility.yul\":834:861   */\n  tag_19\n  jump\t// in\ntag_39:\n    /* \"#utility.yul\":826:832   */\n  dup2\n    /* \"#utility.yul\":822:862   */\n  add\n    /* \"#utility.yul\":964:970   */\n  dup2\n    /* \"#utility.yul\":952:962   */\n  dup2\n    /* \"#utility.yul\":949:971   */\n  lt\n    /* \"#utility.yul\":928:946   */\n  0xffffffffffffffff\n    /* \"#utility.yul\":916:926   */\n  dup3\n    /* \"#utility.yul\":913:947   */\n  gt\n    /* \"#utility.yul\":910:972   */\n  or\n    /* \"#utility.yul\":907:995   */\n  iszero\n  tag_40\n  jumpi\n    /* \"#utility.yul\":975:993   */\n  tag_41\n  tag_20\n  jump\t// in\ntag_41:\n    /* \"#utility.yul\":907:995   */\ntag_40:\n    /* \"#utility.yul\":1015:1025   */\n  dup1\n    /* \"#utility.yul\":1011:1013   */\n  0x40\n    /* \"#utility.yul\":1004:1026   */\n  mstore\n    /* \"#utility.yul\":794:1032   */\n  pop\n    /* \"#utility.yul\":751:1032   */\n  pop\n  pop\n  jump\t// out\n    /* \"#utility.yul\":1038:1167   */\ntag_22:\n    /* \"#utility.yul\":1072:1078   */\n  0x00\n    /* \"#utility.yul\":1099:1119   */\n  tag_43\n  tag_15\n  jump\t// in\ntag_43:\n    /* \"#utility.yul\":1089:1119   */\n  swap1\n  pop\n    /* \"#utility.yul\":1128:1161   */\n  tag_44\n    /* \"#utility.yul\":1156:1160   */\n  dup3\n    /* \"#utility.yul\":1148:1154   */\n  dup3\n    /* \"#utility.yul\":1128:1161   */\n  tag_21\n  jump\t// in\ntag_44:\n    /* \"#utility.yul\":1038:1167   */\n  swap2\n  swap1\n  pop\n  jump\t// out\n    /* \"#utility.yul\":1173:1422   */\ntag_23:\n    /* \"#utility.yul\":1248:1252   */\n  0x00\n    /* \"#utility.yul\":1338:1356   */\n  0xffffffffffffffff\n    /* \"#utility.yul\":1330:1336   */\n  dup3\n    /* \"#utility.yul\":1327:1357   */\n  gt\n    /* \"#utility.yul\":1324:1380   */\n  iszero\n  tag_46\n  jumpi\n    /* \"#utility.yul\":1360:1378   */\n  tag_47\n  tag_20\n  jump\t// in\ntag_47:\n    /* \"#utility.yul\":1324:1380   */\ntag_46:\n    /* \"#utility.yul\":1410:1414   */\n  0x20\n    /* \"#utility.yul\":1402:1408   */\n  dup3\n    /* \"#utility.yul\":1398:1415   */\n  mul\n    /* \"#utility.yul\":1390:1415   */\n  swap1\n  pop\n    /* \"#utility.yul\":1173:1422   */\n  swap2\n  swap1\n  pop\n  jump\t// out\n    /* \"#utility.yul\":1428:1545   */\ntag_24:\n    /* \"#utility.yul\":1537:1538   */\n  0x00\n    /* \"#utility.yul\":1534:1535   */\n  dup1\n    /* \"#utility.yul\":1527:1539   */\n  revert\n    /* \"#utility.yul\":1551:1677   */\ntag_25:\n    /* \"#utility.yul\":1588:1595   */\n  0x00\n    /* \"#utility.yul\":1628:1670   */\n  0xffffffffffffffffffffffffffffffffffffffff\n    /* \"#utility.yul\":1621:1626   */\n  dup3\n    /* \"#utility.yul\":1617:1671   */\n  and\n    /* \"#utility.yul\":1606:1671   */\n  swap1\n  pop\n    /* \"#utility.yul\":1551:1677   */\n  swap2\n  swap1\n  pop\n  jump\t// out\n    /* \"#utility.yul\":1683:1779   */\ntag_26:\n    /* \"#utility.yul\":1720:1727   */\n  0x00\n    /* \"#utility.yul\":1749:1773   */\n  tag_51\n    /* \"#utility.yul\":1767:1772   */\n  dup3\n    /* \"#utility.yul\":1749:1773   */\n  tag_25\n  jump\t// in\ntag_51:\n    /* \"#utility.yul\":1738:1773   */\n  swap1\n  pop\n    /* \"#utility.yul\":1683:1779   */\n  swap2\n  swap1\n  pop\n  jump\t// out\n    /* \"#utility.yul\":1785:1907   */\ntag_27:\n    /* \"#utility.yul\":1858:1882   */\n  tag_53\n    /* \"#utility.yul\":1876:1881   */\n  dup2\n    /* \"#utility.yul\":1858:1882   */\n  tag_26\n  jump\t// in\ntag_53:\n    /* \"#utility.yul\":1851:1856   */\n  dup2\n    /* \"#utility.yul\":1848:1883   */\n  eq\n    /* \"#utility.yul\":1838:1901   */\n  tag_54\n  jumpi\n    /* \"#utility.yul\":1897:1898   */\n  0x00\n    /* \"#utility.yul\":1894:1895   */\n  dup1\n    /* \"#utility.yul\":1887:1899   */\n  revert\n    /* \"#utility.yul\":1838:1901   */\ntag_54:\n    /* \"#utility.yul\":1785:1907   */\n  pop\n  jump\t// out\n    /* \"#utility.yul\":1913:2056   */\ntag_28:\n    /* \"#utility.yul\":1970:1975   */\n  0x00\n    /* \"#utility.yul\":2001:2007   */\n  dup2\n    /* \"#utility.yul\":1995:2008   */\n  mload\n    /* \"#utility.yul\":1986:2008   */\n  swap1\n  pop\n    /* \"#utility.yul\":2017:2050   */\n  tag_56\n    /* \"#utility.yul\":2044:2049   */\n  dup2\n    /* \"#utility.yul\":2017:2050   */\n  tag_27\n  jump\t// in\ntag_56:\n    /* \"#utility.yul\":1913:2056   */\n  swap3\n  swap2\n  pop\n  pop\n  jump\t// out\n    /* \"#utility.yul\":2080:2745   */\ntag_29:\n    /* \"#utility.yul\":2185:2190   */\n  0x00\n    /* \"#utility.yul\":2210:2289   */\n  tag_58\n    /* \"#utility.yul\":2226:2288   */\n  tag_59\n    /* \"#utility.yul\":2281:2287   */\n  dup5\n    /* \"#utility.yul\":2226:2288   */\n  tag_23\n  jump\t// in\ntag_59:\n    /* \"#utility.yul\":2210:2289   */\n  tag_22\n  jump\t// in\ntag_58:\n    /* \"#utility.yul\":2201:2289   */\n  swap1\n  pop\n    /* \"#utility.yul\":2309:2314   */\n  dup1\n    /* \"#utility.yul\":2362:2366   */\n  0x20\n    /* \"#utility.yul\":2354:2360   */\n  dup5\n    /* \"#utility.yul\":2350:2367   */\n  mul\n    /* \"#utility.yul\":2342:2348   */\n  dup4\n    /* \"#utility.yul\":2338:2368   */\n  add\n    /* \"#utility.yul\":2391:2394   */\n  dup6\n    /* \"#utility.yul\":2383:2389   */\n  dup2\n    /* \"#utility.yul\":2380:2395   */\n  gt\n    /* \"#utility.yul\":2377:2499   */\n  iszero\n  tag_60\n  jumpi\n    /* \"#utility.yul\":2410:2489   */\n  tag_61\n  tag_24\n  jump\t// in\ntag_61:\n    /* \"#utility.yul\":2377:2499   */\ntag_60:\n    /* \"#utility.yul\":2525:2531   */\n  dup4\n    /* \"#utility.yul\":2508:2739   */\ntag_62:\n    /* \"#utility.yul\":2542:2548   */\n  dup2\n    /* \"#utility.yul\":2537:2540   */\n  dup2\n    /* \"#utility.yul\":2534:2549   */\n  lt\n    /* \"#utility.yul\":2508:2739   */\n  iszero\n  tag_64\n  jumpi\n    /* \"#utility.yul\":2617:2620   */\n  dup1\n    /* \"#utility.yul\":2646:2694   */\n  tag_65\n    /* \"#utility.yul\":2690:2693   */\n  dup9\n    /* \"#utility.yul\":2678:2688   */\n  dup3\n    /* \"#utility.yul\":2646:2694   */\n  tag_28\n  jump\t// in\ntag_65:\n    /* \"#utility.yul\":2641:2644   */\n  dup5\n    /* \"#utility.yul\":2634:2695   */\n  mstore\n    /* \"#utility.yul\":2724:2728   */\n  0x20\n    /* \"#utility.yul\":2719:2722   */\n  dup5\n    /* \"#utility.yul\":2715:2729   */\n  add\n    /* \"#utility.yul\":2708:2729   */\n  swap4\n  pop\n    /* \"#utility.yul\":2584:2739   */\n  pop\n    /* \"#utility.yul\":2568:2572   */\n  0x20\n    /* \"#utility.yul\":2563:2566   */\n  dup2\n    /* \"#utility.yul\":2559:2573   */\n  add\n    /* \"#utility.yul\":2552:2573   */\n  swap1\n  pop\n    /* \"#utility.yul\":2508:2739   */\n  jump(tag_62)\ntag_64:\n    /* \"#utility.yul\":2512:2533   */\n  pop\n    /* \"#utility.yul\":2191:2745   */\n  pop\n  pop\n    /* \"#utility.yul\":2080:2745   */\n  swap4\n  swap3\n  pop\n  pop\n  pop\n  jump\t// out\n    /* \"#utility.yul\":2769:3130   */\ntag_30:\n    /* \"#utility.yul\":2849:2854   */\n  0x00\n    /* \"#utility.yul\":2898:2901   */\n  dup3\n    /* \"#utility.yul\":2891:2895   */\n  0x1f\n    /* \"#utility.yul\":2883:2889   */\n  dup4\n    /* \"#utility.yul\":2879:2896   */\n  add\n    /* \"#utility.yul\":2875:2902   */\n  slt\n    /* \"#utility.yul\":2865:2987   */\n  tag_67\n  jumpi\n    /* \"#utility.yul\":2906:2985   */\n  tag_68\n  tag_18\n  jump\t// in\ntag_68:\n    /* \"#utility.yul\":2865:2987   */\ntag_67:\n    /* \"#utility.yul\":3010:3014   */\n  0x02\n    /* \"#utility.yul\":3032:3124   */\n  tag_69\n    /* \"#utility.yul\":3120:3123   */\n  dup5\n    /* \"#utility.yul\":3112:3118   */\n  dup3\n    /* \"#utility.yul\":3104:3110   */\n  dup6\n    /* \"#utility.yul\":3032:3124   */\n  tag_29\n  jump\t// in\ntag_69:\n    /* \"#utility.yul\":3023:3124   */\n  swap2\n  pop\n    /* \"#utility.yul\":2855:3130   */\n  pop\n    /* \"#utility.yul\":2769:3130   */\n  swap3\n  swap2\n  pop\n  pop\n  jump\t// out\n    /* \"#utility.yul\":3136:3533   */\ntag_2:\n    /* \"#utility.yul\":3229:3235   */\n  0x00\n    /* \"#utility.yul\":3278:3280   */\n  0x40\n    /* \"#utility.yul\":3266:3275   */\n  dup3\n    /* \"#utility.yul\":3257:3264   */\n  dup5\n    /* \"#utility.yul\":3253:3276   */\n  sub\n    /* \"#utility.yul\":3249:3281   */\n  slt\n    /* \"#utility.yul\":3246:3365   */\n  iszero\n  tag_71\n  jumpi\n    /* \"#utility.yul\":3284:3363   */\n  tag_72\n  tag_16\n  jump\t// in\ntag_72:\n    /* \"#utility.yul\":3246:3365   */\ntag_71:\n    /* \"#utility.yul\":3404:3405   */\n  0x00\n    /* \"#utility.yul\":3429:3516   */\n  tag_73\n    /* \"#utility.yul\":3508:3515   */\n  dup5\n    /* \"#utility.yul\":3499:3505   */\n  dup3\n    /* \"#utility.yul\":3488:3497   */\n  dup6\n    /* \"#utility.yul\":3484:3506   */\n  add\n    /* \"#utility.yul\":3429:3516   */\n  tag_30\n  jump\t// in\ntag_73:\n    /* \"#utility.yul\":3419:3516   */\n  swap2\n  pop\n    /* \"#utility.yul\":3375:3526   */\n  pop\n    /* \"#utility.yul\":3136:3533   */\n  swap3\n  swap2\n  pop\n  pop\n  jump\t// out\n    /* \"contracts/DeFi/MultiSigV3.sol\":207:426  contract MultiSigWallet {... */\ntag_7:\n  dataSize(sub_0)\n  dup1\n  dataOffset(sub_0)\n  0x00\n  codecopy\n  0x00\n  return\nstop\n\nsub_0: assembly {\n        /* \"contracts/DeFi/MultiSigV3.sol\":207:426  contract MultiSigWallet {... */\n      mstore(0x40, 0x80)\n      callvalue\n      dup1\n      iszero\n      tag_1\n      jumpi\n      0x00\n      dup1\n      revert\n    tag_1:\n      pop\n      jumpi(tag_2, lt(calldatasize, 0x04))\n      shr(0xe0, calldataload(0x00))\n      dup1\n      0x025e7c27\n      eq\n      tag_3\n      jumpi\n      dup1\n      0xa9fcfb33\n      eq\n      tag_4\n      jumpi\n    tag_2:\n      0x00\n      dup1\n      revert\n        /* \"contracts/DeFi/MultiSigV3.sol\":267:291  address[2] public owners */\n    tag_3:\n      tag_5\n      0x04\n      dup1\n      calldatasize\n      sub\n      dup2\n      add\n      swap1\n      tag_6\n      swap2\n      swap1\n      tag_7\n      jump\t// in\n    tag_6:\n      tag_8\n      jump\t// in\n    tag_5:\n      mload(0x40)\n      tag_9\n      swap2\n      swap1\n      tag_10\n      jump\t// in\n    tag_9:\n      mload(0x40)\n      dup1\n      swap2\n      sub\n      swap1\n      return\n        /* \"contracts/DeFi/MultiSigV3.sol\":297:337  mapping(bytes32 => bool) public executed */\n    tag_4:\n      tag_11\n      0x04\n      dup1\n      calldatasize\n      sub\n      dup2\n      add\n      swap1\n      tag_12\n      swap2\n      swap1\n      tag_13\n      jump\t// in\n    tag_12:\n      tag_14\n      jump\t// in\n    tag_11:\n      mload(0x40)\n      tag_15\n      swap2\n      swap1\n      tag_16\n      jump\t// in\n    tag_15:\n      mload(0x40)\n      dup1\n      swap2\n      sub\n      swap1\n      return\n        /* \"contracts/DeFi/MultiSigV3.sol\":267:291  address[2] public owners */\n    tag_8:\n      0x00\n      dup2\n      0x02\n      dup2\n      lt\n      tag_17\n      jumpi\n      0x00\n      dup1\n      revert\n    tag_17:\n      add\n      0x00\n      swap2\n      pop\n      sload\n      swap1\n      0x0100\n      exp\n      swap1\n      div\n      0xffffffffffffffffffffffffffffffffffffffff\n      and\n      dup2\n      jump\t// out\n        /* \"contracts/DeFi/MultiSigV3.sol\":297:337  mapping(bytes32 => bool) public executed */\n    tag_14:\n      mstore(0x20, 0x02)\n      dup1\n      0x00\n      mstore\n      keccak256(0x00, 0x40)\n      0x00\n      swap2\n      pop\n      sload\n      swap1\n      0x0100\n      exp\n      swap1\n      div\n      0xff\n      and\n      dup2\n      jump\t// out\n        /* \"#utility.yul\":88:205   */\n    tag_20:\n        /* \"#utility.yul\":197:198   */\n      0x00\n        /* \"#utility.yul\":194:195   */\n      dup1\n        /* \"#utility.yul\":187:199   */\n      revert\n        /* \"#utility.yul\":334:411   */\n    tag_22:\n        /* \"#utility.yul\":371:378   */\n      0x00\n        /* \"#utility.yul\":400:405   */\n      dup2\n        /* \"#utility.yul\":389:405   */\n      swap1\n      pop\n        /* \"#utility.yul\":334:411   */\n      swap2\n      swap1\n      pop\n      jump\t// out\n        /* \"#utility.yul\":417:539   */\n    tag_23:\n        /* \"#utility.yul\":490:514   */\n      tag_39\n        /* \"#utility.yul\":508:513   */\n      dup2\n        /* \"#utility.yul\":490:514   */\n      tag_22\n      jump\t// in\n    tag_39:\n        /* \"#utility.yul\":483:488   */\n      dup2\n        /* \"#utility.yul\":480:515   */\n      eq\n        /* \"#utility.yul\":470:533   */\n      tag_40\n      jumpi\n        /* \"#utility.yul\":529:530   */\n      0x00\n        /* \"#utility.yul\":526:527   */\n      dup1\n        /* \"#utility.yul\":519:531   */\n      revert\n        /* \"#utility.yul\":470:533   */\n    tag_40:\n        /* \"#utility.yul\":417:539   */\n      pop\n      jump\t// out\n        /* \"#utility.yul\":545:684   */\n    tag_24:\n        /* \"#utility.yul\":591:596   */\n      0x00\n        /* \"#utility.yul\":629:635   */\n      dup2\n        /* \"#utility.yul\":616:636   */\n      calldataload\n        /* \"#utility.yul\":607:636   */\n      swap1\n      pop\n        /* \"#utility.yul\":645:678   */\n      tag_42\n        /* \"#utility.yul\":672:677   */\n      dup2\n        /* \"#utility.yul\":645:678   */\n      tag_23\n      jump\t// in\n    tag_42:\n        /* \"#utility.yul\":545:684   */\n      swap3\n      swap2\n      pop\n      pop\n      jump\t// out\n        /* \"#utility.yul\":690:1019   */\n    tag_7:\n        /* \"#utility.yul\":749:755   */\n      0x00\n        /* \"#utility.yul\":798:800   */\n      0x20\n        /* \"#utility.yul\":786:795   */\n      dup3\n        /* \"#utility.yul\":777:784   */\n      dup5\n        /* \"#utility.yul\":773:796   */\n      sub\n        /* \"#utility.yul\":769:801   */\n      slt\n        /* \"#utility.yul\":766:885   */\n      iszero\n      tag_44\n      jumpi\n        /* \"#utility.yul\":804:883   */\n      tag_45\n      tag_20\n      jump\t// in\n    tag_45:\n        /* \"#utility.yul\":766:885   */\n    tag_44:\n        /* \"#utility.yul\":924:925   */\n      0x00\n        /* \"#utility.yul\":949:1002   */\n      tag_46\n        /* \"#utility.yul\":994:1001   */\n      dup5\n        /* \"#utility.yul\":985:991   */\n      dup3\n        /* \"#utility.yul\":974:983   */\n      dup6\n        /* \"#utility.yul\":970:992   */\n      add\n        /* \"#utility.yul\":949:1002   */\n      tag_24\n      jump\t// in\n    tag_46:\n        /* \"#utility.yul\":939:1002   */\n      swap2\n      pop\n        /* \"#utility.yul\":895:1012   */\n      pop\n        /* \"#utility.yul\":690:1019   */\n      swap3\n      swap2\n      pop\n      pop\n      jump\t// out\n        /* \"#utility.yul\":1025:1151   */\n    tag_25:\n        /* \"#utility.yul\":1062:1069   */\n      0x00\n        /* \"#utility.yul\":1102:1144   */\n      0xffffffffffffffffffffffffffffffffffffffff\n        /* \"#utility.yul\":1095:1100   */\n      dup3\n        /* \"#utility.yul\":1091:1145   */\n      and\n        /* \"#utility.yul\":1080:1145   */\n      swap1\n      pop\n        /* \"#utility.yul\":1025:1151   */\n      swap2\n      swap1\n      pop\n      jump\t// out\n        /* \"#utility.yul\":1157:1253   */\n    tag_26:\n        /* \"#utility.yul\":1194:1201   */\n      0x00\n        /* \"#utility.yul\":1223:1247   */\n      tag_49\n        /* \"#utility.yul\":1241:1246   */\n      dup3\n        /* \"#utility.yul\":1223:1247   */\n      tag_25\n      jump\t// in\n    tag_49:\n        /* \"#utility.yul\":1212:1247   */\n      swap1\n      pop\n        /* \"#utility.yul\":1157:1253   */\n      swap2\n      swap1\n      pop\n      jump\t// out\n        /* \"#utility.yul\":1259:1377   */\n    tag_27:\n        /* \"#utility.yul\":1346:1370   */\n      tag_51\n        /* \"#utility.yul\":1364:1369   */\n      dup2\n        /* \"#utility.yul\":1346:1370   */\n      tag_26\n      jump\t// in\n    tag_51:\n        /* \"#utility.yul\":1341:1344   */\n      dup3\n        /* \"#utility.yul\":1334:1371   */\n      mstore\n        /* \"#utility.yul\":1259:1377   */\n      pop\n      pop\n      jump\t// out\n        /* \"#utility.yul\":1383:1605   */\n    tag_10:\n        /* \"#utility.yul\":1476:1480   */\n      0x00\n        /* \"#utility.yul\":1514:1516   */\n      0x20\n        /* \"#utility.yul\":1503:1512   */\n      dup3\n        /* \"#utility.yul\":1499:1517   */\n      add\n        /* \"#utility.yul\":1491:1517   */\n      swap1\n      pop\n        /* \"#utility.yul\":1527:1598   */\n      tag_53\n        /* \"#utility.yul\":1595:1596   */\n      0x00\n        /* \"#utility.yul\":1584:1593   */\n      dup4\n        /* \"#utility.yul\":1580:1597   */\n      add\n        /* \"#utility.yul\":1571:1577   */\n      dup5\n        /* \"#utility.yul\":1527:1598   */\n      tag_27\n      jump\t// in\n    tag_53:\n        /* \"#utility.yul\":1383:1605   */\n      swap3\n      swap2\n      pop\n      pop\n      jump\t// out\n        /* \"#utility.yul\":1611:1688   */\n    tag_28:\n        /* \"#utility.yul\":1648:1655   */\n      0x00\n        /* \"#utility.yul\":1677:1682   */\n      dup2\n        /* \"#utility.yul\":1666:1682   */\n      swap1\n      pop\n        /* \"#utility.yul\":1611:1688   */\n      swap2\n      swap1\n      pop\n      jump\t// out\n        /* \"#utility.yul\":1694:1816   */\n    tag_29:\n        /* \"#utility.yul\":1767:1791   */\n      tag_56\n        /* \"#utility.yul\":1785:1790   */\n      dup2\n        /* \"#utility.yul\":1767:1791   */\n      tag_28\n      jump\t// in\n    tag_56:\n        /* \"#utility.yul\":1760:1765   */\n      dup2\n        /* \"#utility.yul\":1757:1792   */\n      eq\n        /* \"#utility.yul\":1747:1810   */\n      tag_57\n      jumpi\n        /* \"#utility.yul\":1806:1807   */\n      0x00\n        /* \"#utility.yul\":1803:1804   */\n      dup1\n        /* \"#utility.yul\":1796:1808   */\n      revert\n        /* \"#utility.yul\":1747:1810   */\n    tag_57:\n        /* \"#utility.yul\":1694:1816   */\n      pop\n      jump\t// out\n        /* \"#utility.yul\":1822:1961   */\n    tag_30:\n        /* \"#utility.yul\":1868:1873   */\n      0x00\n        /* \"#utility.yul\":1906:1912   */\n      dup2\n        /* \"#utility.yul\":1893:1913   */\n      calldataload\n        /* \"#utility.yul\":1884:1913   */\n      swap1\n      pop\n        /* \"#utility.yul\":1922:1955   */\n      tag_59\n        /* \"#utility.yul\":1949:1954   */\n      dup2\n        /* \"#utility.yul\":1922:1955   */\n      tag_29\n      jump\t// in\n    tag_59:\n        /* \"#utility.yul\":1822:1961   */\n      swap3\n      swap2\n      pop\n      pop\n      jump\t// out\n        /* \"#utility.yul\":1967:2296   */\n    tag_13:\n        /* \"#utility.yul\":2026:2032   */\n      0x00\n        /* \"#utility.yul\":2075:2077   */\n      0x20\n        /* \"#utility.yul\":2063:2072   */\n      dup3\n        /* \"#utility.yul\":2054:2061   */\n      dup5\n        /* \"#utility.yul\":2050:2073   */\n      sub\n        /* \"#utility.yul\":2046:2078   */\n      slt\n        /* \"#utility.yul\":2043:2162   */\n      iszero\n      tag_61\n      jumpi\n        /* \"#utility.yul\":2081:2160   */\n      tag_62\n      tag_20\n      jump\t// in\n    tag_62:\n        /* \"#utility.yul\":2043:2162   */\n    tag_61:\n        /* \"#utility.yul\":2201:2202   */\n      0x00\n        /* \"#utility.yul\":2226:2279   */\n      tag_63\n        /* \"#utility.yul\":2271:2278   */\n      dup5\n        /* \"#utility.yul\":2262:2268   */\n      dup3\n        /* \"#utility.yul\":2251:2260   */\n      dup6\n        /* \"#utility.yul\":2247:2269   */\n      add\n        /* \"#utility.yul\":2226:2279   */\n      tag_30\n      jump\t// in\n    tag_63:\n        /* \"#utility.yul\":2216:2279   */\n      swap2\n      pop\n        /* \"#utility.yul\":2172:2289   */\n      pop\n        /* \"#utility.yul\":1967:2296   */\n      swap3\n      swap2\n      pop\n      pop\n      jump\t// out\n        /* \"#utility.yul\":2302:2392   */\n    tag_31:\n        /* \"#utility.yul\":2336:2343   */\n      0x00\n        /* \"#utility.yul\":2379:2384   */\n      dup2\n        /* \"#utility.yul\":2372:2385   */\n      iszero\n        /* \"#utility.yul\":2365:2386   */\n      iszero\n        /* \"#utility.yul\":2354:2386   */\n      swap1\n      pop\n        /* \"#utility.yul\":2302:2392   */\n      swap2\n      swap1\n      pop\n      jump\t// out\n        /* \"#utility.yul\":2398:2507   */\n    tag_32:\n        /* \"#utility.yul\":2479:2500   */\n      tag_66\n        /* \"#utility.yul\":2494:2499   */\n      dup2\n        /* \"#utility.yul\":2479:2500   */\n      tag_31\n      jump\t// in\n    tag_66:\n        /* \"#utility.yul\":2474:2477   */\n      dup3\n        /* \"#utility.yul\":2467:2501   */\n      mstore\n        /* \"#utility.yul\":2398:2507   */\n      pop\n      pop\n      jump\t// out\n        /* \"#utility.yul\":2513:2723   */\n    tag_16:\n        /* \"#utility.yul\":2600:2604   */\n      0x00\n        /* \"#utility.yul\":2638:2640   */\n      0x20\n        /* \"#utility.yul\":2627:2636   */\n      dup3\n        /* \"#utility.yul\":2623:2641   */\n      add\n        /* \"#utility.yul\":2615:2641   */\n      swap1\n      pop\n        /* \"#utility.yul\":2651:2716   */\n      tag_68\n        /* \"#utility.yul\":2713:2714   */\n      0x00\n        /* \"#utility.yul\":2702:2711   */\n      dup4\n        /* \"#utility.yul\":2698:2715   */\n      add\n        /* \"#utility.yul\":2689:2695   */\n      dup5\n        /* \"#utility.yul\":2651:2716   */\n      tag_32\n      jump\t// in\n    tag_68:\n        /* \"#utility.yul\":2513:2723   */\n      swap3\n      swap2\n      pop\n      pop\n      jump\t// out\n\n    auxdata: 0xa2646970667358221220bbe40b69574c27afbb21b39ea15161e321e0296a713e6f4c4d8fbfde50e6d75064736f6c634300080f0033\n}\n",
				"bytecode": {
					"linkReferences": {},
					"object": "608060405260405161054b38038061054b8339818101604052810190610025919061028b565b80600090600261003692919061003d565b50506102b8565b82600281019282156100a9579160200282015b828111156100a85782518260006101000a81548173ffffffffffffffffffffffffffffffffffffffff021916908373ffffffffffffffffffffffffffffffffffffffff16021790555091602001919060010190610050565b5b5090506100b691906100ba565b5090565b5b808211156100d35760008160009055506001016100bb565b5090565b6000604051905090565b600080fd5b600080fd5b6000601f19601f8301169050919050565b7f4e487b7100000000000000000000000000000000000000000000000000000000600052604160045260246000fd5b610134826100eb565b810181811067ffffffffffffffff82111715610153576101526100fc565b5b80604052505050565b60006101666100d7565b9050610172828261012b565b919050565b600067ffffffffffffffff821115610192576101916100fc565b5b602082029050919050565b600080fd5b600073ffffffffffffffffffffffffffffffffffffffff82169050919050565b60006101cd826101a2565b9050919050565b6101dd816101c2565b81146101e857600080fd5b50565b6000815190506101fa816101d4565b92915050565b600061021361020e84610177565b61015c565b9050806020840283018581111561022d5761022c61019d565b5b835b81811015610256578061024288826101eb565b84526020840193505060208101905061022f565b5050509392505050565b600082601f830112610275576102746100e6565b5b6002610282848285610200565b91505092915050565b6000604082840312156102a1576102a06100e1565b5b60006102af84828501610260565b91505092915050565b610284806102c76000396000f3fe608060405234801561001057600080fd5b50600436106100365760003560e01c8063025e7c271461003b578063a9fcfb331461006b575b600080fd5b6100556004803603810190610050919061012c565b61009b565b604051610062919061019a565b60405180910390f35b610085600480360381019061008091906101eb565b6100d1565b6040516100929190610233565b60405180910390f35b600081600281106100ab57600080fd5b016000915054906101000a900473ffffffffffffffffffffffffffffffffffffffff1681565b60026020528060005260406000206000915054906101000a900460ff1681565b600080fd5b6000819050919050565b610109816100f6565b811461011457600080fd5b50565b60008135905061012681610100565b92915050565b600060208284031215610142576101416100f1565b5b600061015084828501610117565b91505092915050565b600073ffffffffffffffffffffffffffffffffffffffff82169050919050565b600061018482610159565b9050919050565b61019481610179565b82525050565b60006020820190506101af600083018461018b565b92915050565b6000819050919050565b6101c8816101b5565b81146101d357600080fd5b50565b6000813590506101e5816101bf565b92915050565b600060208284031215610201576102006100f1565b5b600061020f848285016101d6565b91505092915050565b60008115159050919050565b61022d81610218565b82525050565b60006020820190506102486000830184610224565b9291505056fea2646970667358221220bbe40b69574c27afbb21b39ea15161e321e0296a713e6f4c4d8fbfde50e6d75064736f6c634300080f0033",
					"opcodes": "PUSH1 0x80 PUSH1 0x40 MSTORE PUSH1 0x40 MLOAD PUSH2 0x54B CODESIZE SUB DUP1 PUSH2 0x54B DUP4 CODECOPY DUP2 DUP2 ADD PUSH1 0x40 MSTORE DUP2 ADD SWAP1 PUSH2 0x25 SWAP2 SWAP1 PUSH2 0x28B JUMP JUMPDEST DUP1 PUSH1 0x0 SWAP1 PUSH1 0x2 PUSH2 0x36 SWAP3 SWAP2 SWAP1 PUSH2 0x3D JUMP JUMPDEST POP POP PUSH2 0x2B8 JUMP JUMPDEST DUP3 PUSH1 0x2 DUP2 ADD SWAP3 DUP3 ISZERO PUSH2 0xA9 JUMPI SWAP2 PUSH1 0x20 MUL DUP3 ADD JUMPDEST DUP3 DUP2 GT ISZERO PUSH2 0xA8 JUMPI DUP3 MLOAD DUP3 PUSH1 0x0 PUSH2 0x100 EXP DUP2 SLOAD DUP2 PUSH20 0xFFFFFFFFFFFFFFFFFFFFFFFFFFFFFFFFFFFFFFFF MUL NOT AND SWAP1 DUP4 PUSH20 0xFFFFFFFFFFFFFFFFFFFFFFFFFFFFFFFFFFFFFFFF AND MUL OR SWAP1 SSTORE POP SWAP2 PUSH1 0x20 ADD SWAP2 SWAP1 PUSH1 0x1 ADD SWAP1 PUSH2 0x50 JUMP JUMPDEST JUMPDEST POP SWAP1 POP PUSH2 0xB6 SWAP2 SWAP1 PUSH2 0xBA JUMP JUMPDEST POP SWAP1 JUMP JUMPDEST JUMPDEST DUP1 DUP3 GT ISZERO PUSH2 0xD3 JUMPI PUSH1 0x0 DUP2 PUSH1 0x0 SWAP1 SSTORE POP PUSH1 0x1 ADD PUSH2 0xBB JUMP JUMPDEST POP SWAP1 JUMP JUMPDEST PUSH1 0x0 PUSH1 0x40 MLOAD SWAP1 POP SWAP1 JUMP JUMPDEST PUSH1 0x0 DUP1 REVERT JUMPDEST PUSH1 0x0 DUP1 REVERT JUMPDEST PUSH1 0x0 PUSH1 0x1F NOT PUSH1 0x1F DUP4 ADD AND SWAP1 POP SWAP2 SWAP1 POP JUMP JUMPDEST PUSH32 0x4E487B7100000000000000000000000000000000000000000000000000000000 PUSH1 0x0 MSTORE PUSH1 0x41 PUSH1 0x4 MSTORE PUSH1 0x24 PUSH1 0x0 REVERT JUMPDEST PUSH2 0x134 DUP3 PUSH2 0xEB JUMP JUMPDEST DUP2 ADD DUP2 DUP2 LT PUSH8 0xFFFFFFFFFFFFFFFF DUP3 GT OR ISZERO PUSH2 0x153 JUMPI PUSH2 0x152 PUSH2 0xFC JUMP JUMPDEST JUMPDEST DUP1 PUSH1 0x40 MSTORE POP POP POP JUMP JUMPDEST PUSH1 0x0 PUSH2 0x166 PUSH2 0xD7 JUMP JUMPDEST SWAP1 POP PUSH2 0x172 DUP3 DUP3 PUSH2 0x12B JUMP JUMPDEST SWAP2 SWAP1 POP JUMP JUMPDEST PUSH1 0x0 PUSH8 0xFFFFFFFFFFFFFFFF DUP3 GT ISZERO PUSH2 0x192 JUMPI PUSH2 0x191 PUSH2 0xFC JUMP JUMPDEST JUMPDEST PUSH1 0x20 DUP3 MUL SWAP1 POP SWAP2 SWAP1 POP JUMP JUMPDEST PUSH1 0x0 DUP1 REVERT JUMPDEST PUSH1 0x0 PUSH20 0xFFFFFFFFFFFFFFFFFFFFFFFFFFFFFFFFFFFFFFFF DUP3 AND SWAP1 POP SWAP2 SWAP1 POP JUMP JUMPDEST PUSH1 0x0 PUSH2 0x1CD DUP3 PUSH2 0x1A2 JUMP JUMPDEST SWAP1 POP SWAP2 SWAP1 POP JUMP JUMPDEST PUSH2 0x1DD DUP2 PUSH2 0x1C2 JUMP JUMPDEST DUP2 EQ PUSH2 0x1E8 JUMPI PUSH1 0x0 DUP1 REVERT JUMPDEST POP JUMP JUMPDEST PUSH1 0x0 DUP2 MLOAD SWAP1 POP PUSH2 0x1FA DUP2 PUSH2 0x1D4 JUMP JUMPDEST SWAP3 SWAP2 POP POP JUMP JUMPDEST PUSH1 0x0 PUSH2 0x213 PUSH2 0x20E DUP5 PUSH2 0x177 JUMP JUMPDEST PUSH2 0x15C JUMP JUMPDEST SWAP1 POP DUP1 PUSH1 0x20 DUP5 MUL DUP4 ADD DUP6 DUP2 GT ISZERO PUSH2 0x22D JUMPI PUSH2 0x22C PUSH2 0x19D JUMP JUMPDEST JUMPDEST DUP4 JUMPDEST DUP2 DUP2 LT ISZERO PUSH2 0x256 JUMPI DUP1 PUSH2 0x242 DUP9 DUP3 PUSH2 0x1EB JUMP JUMPDEST DUP5 MSTORE PUSH1 0x20 DUP5 ADD SWAP4 POP POP PUSH1 0x20 DUP2 ADD SWAP1 POP PUSH2 0x22F JUMP JUMPDEST POP POP POP SWAP4 SWAP3 POP POP POP JUMP JUMPDEST PUSH1 0x0 DUP3 PUSH1 0x1F DUP4 ADD SLT PUSH2 0x275 JUMPI PUSH2 0x274 PUSH2 0xE6 JUMP JUMPDEST JUMPDEST PUSH1 0x2 PUSH2 0x282 DUP5 DUP3 DUP6 PUSH2 0x200 JUMP JUMPDEST SWAP2 POP POP SWAP3 SWAP2 POP POP JUMP JUMPDEST PUSH1 0x0 PUSH1 0x40 DUP3 DUP5 SUB SLT ISZERO PUSH2 0x2A1 JUMPI PUSH2 0x2A0 PUSH2 0xE1 JUMP JUMPDEST JUMPDEST PUSH1 0x0 PUSH2 0x2AF DUP5 DUP3 DUP6 ADD PUSH2 0x260 JUMP JUMPDEST SWAP2 POP POP SWAP3 SWAP2 POP POP JUMP JUMPDEST PUSH2 0x284 DUP1 PUSH2 0x2C7 PUSH1 0x0 CODECOPY PUSH1 0x0 RETURN INVALID PUSH1 0x80 PUSH1 0x40 MSTORE CALLVALUE DUP1 ISZERO PUSH2 0x10 JUMPI PUSH1 0x0 DUP1 REVERT JUMPDEST POP PUSH1 0x4 CALLDATASIZE LT PUSH2 0x36 JUMPI PUSH1 0x0 CALLDATALOAD PUSH1 0xE0 SHR DUP1 PUSH4 0x25E7C27 EQ PUSH2 0x3B JUMPI DUP1 PUSH4 0xA9FCFB33 EQ PUSH2 0x6B JUMPI JUMPDEST PUSH1 0x0 DUP1 REVERT JUMPDEST PUSH2 0x55 PUSH1 0x4 DUP1 CALLDATASIZE SUB DUP2 ADD SWAP1 PUSH2 0x50 SWAP2 SWAP1 PUSH2 0x12C JUMP JUMPDEST PUSH2 0x9B JUMP JUMPDEST PUSH1 0x40 MLOAD PUSH2 0x62 SWAP2 SWAP1 PUSH2 0x19A JUMP JUMPDEST PUSH1 0x40 MLOAD DUP1 SWAP2 SUB SWAP1 RETURN JUMPDEST PUSH2 0x85 PUSH1 0x4 DUP1 CALLDATASIZE SUB DUP2 ADD SWAP1 PUSH2 0x80 SWAP2 SWAP1 PUSH2 0x1EB JUMP JUMPDEST PUSH2 0xD1 JUMP JUMPDEST PUSH1 0x40 MLOAD PUSH2 0x92 SWAP2 SWAP1 PUSH2 0x233 JUMP JUMPDEST PUSH1 0x40 MLOAD DUP1 SWAP2 SUB SWAP1 RETURN JUMPDEST PUSH1 0x0 DUP2 PUSH1 0x2 DUP2 LT PUSH2 0xAB JUMPI PUSH1 0x0 DUP1 REVERT JUMPDEST ADD PUSH1 0x0 SWAP2 POP SLOAD SWAP1 PUSH2 0x100 EXP SWAP1 DIV PUSH20 0xFFFFFFFFFFFFFFFFFFFFFFFFFFFFFFFFFFFFFFFF AND DUP2 JUMP JUMPDEST PUSH1 0x2 PUSH1 0x20 MSTORE DUP1 PUSH1 0x0 MSTORE PUSH1 0x40 PUSH1 0x0 KECCAK256 PUSH1 0x0 SWAP2 POP SLOAD SWAP1 PUSH2 0x100 EXP SWAP1 DIV PUSH1 0xFF AND DUP2 JUMP JUMPDEST PUSH1 0x0 DUP1 REVERT JUMPDEST PUSH1 0x0 DUP2 SWAP1 POP SWAP2 SWAP1 POP JUMP JUMPDEST PUSH2 0x109 DUP2 PUSH2 0xF6 JUMP JUMPDEST DUP2 EQ PUSH2 0x114 JUMPI PUSH1 0x0 DUP1 REVERT JUMPDEST POP JUMP JUMPDEST PUSH1 0x0 DUP2 CALLDATALOAD SWAP1 POP PUSH2 0x126 DUP2 PUSH2 0x100 JUMP JUMPDEST SWAP3 SWAP2 POP POP JUMP JUMPDEST PUSH1 0x0 PUSH1 0x20 DUP3 DUP5 SUB SLT ISZERO PUSH2 0x142 JUMPI PUSH2 0x141 PUSH2 0xF1 JUMP JUMPDEST JUMPDEST PUSH1 0x0 PUSH2 0x150 DUP5 DUP3 DUP6 ADD PUSH2 0x117 JUMP JUMPDEST SWAP2 POP POP SWAP3 SWAP2 POP POP JUMP JUMPDEST PUSH1 0x0 PUSH20 0xFFFFFFFFFFFFFFFFFFFFFFFFFFFFFFFFFFFFFFFF DUP3 AND SWAP1 POP SWAP2 SWAP1 POP JUMP JUMPDEST PUSH1 0x0 PUSH2 0x184 DUP3 PUSH2 0x159 JUMP JUMPDEST SWAP1 POP SWAP2 SWAP1 POP JUMP JUMPDEST PUSH2 0x194 DUP2 PUSH2 0x179 JUMP JUMPDEST DUP3 MSTORE POP POP JUMP JUMPDEST PUSH1 0x0 PUSH1 0x20 DUP3 ADD SWAP1 POP PUSH2 0x1AF PUSH1 0x0 DUP4 ADD DUP5 PUSH2 0x18B JUMP JUMPDEST SWAP3 SWAP2 POP POP JUMP JUMPDEST PUSH1 0x0 DUP2 SWAP1 POP SWAP2 SWAP1 POP JUMP JUMPDEST PUSH2 0x1C8 DUP2 PUSH2 0x1B5 JUMP JUMPDEST DUP2 EQ PUSH2 0x1D3 JUMPI PUSH1 0x0 DUP1 REVERT JUMPDEST POP JUMP JUMPDEST PUSH1 0x0 DUP2 CALLDATALOAD SWAP1 POP PUSH2 0x1E5 DUP2 PUSH2 0x1BF JUMP JUMPDEST SWAP3 SWAP2 POP POP JUMP JUMPDEST PUSH1 0x0 PUSH1 0x20 DUP3 DUP5 SUB SLT ISZERO PUSH2 0x201 JUMPI PUSH2 0x200 PUSH2 0xF1 JUMP JUMPDEST JUMPDEST PUSH1 0x0 PUSH2 0x20F DUP5 DUP3 DUP6 ADD PUSH2 0x1D6 JUMP JUMPDEST SWAP2 POP POP SWAP3 SWAP2 POP POP JUMP JUMPDEST PUSH1 0x0 DUP2 ISZERO ISZERO SWAP1 POP SWAP2 SWAP1 POP JUMP JUMPDEST PUSH2 0x22D DUP2 PUSH2 0x218 JUMP JUMPDEST DUP3 MSTORE POP POP JUMP JUMPDEST PUSH1 0x0 PUSH1 0x20 DUP3 ADD SWAP1 POP PUSH2 0x248 PUSH1 0x0 DUP4 ADD DUP5 PUSH2 0x224 JUMP JUMPDEST SWAP3 SWAP2 POP POP JUMP INVALID LOG2 PUSH5 0x6970667358 0x22 SLT KECCAK256 0xBB 0xE4 SIGNEXTEND PUSH10 0x574C27AFBB21B39EA151 PUSH2 0xE321 0xE0 0x29 PUSH11 0x713E6F4C4D8FBFDE50E6D7 POP PUSH5 0x736F6C6343 STOP ADDMOD 0xF STOP CALLER "
				},
				"gasEstimates": {
					"creation": {
						"codeDepositCost": "128800",
						"executionCost": "infinite",
						"totalCost": "infinite"
					},
					"external": {
						"executed(bytes32)": "2796",
						"owners(uint256)": "2783"
					}
				},
				"methodIdentifiers": {
					"executed(bytes32)": "a9fcfb33",
					"owners(uint256)": "025e7c27"
				}
			},
			"storageLayout": {
				"storage": [
					{
						"astId": 10,
						"contract": "contracts/DeFi/MultiSigV3.sol:MultiSigWallet",
						"label": "owners",
						"offset": 0,
						"slot": "0",
						"type": "t_array(t_address)2_storage"
					},
					{
						"astId": 14,
						"contract": "contracts/DeFi/MultiSigV3.sol:MultiSigWallet",
						"label": "executed",
						"offset": 0,
						"slot": "2",
						"type": "t_mapping(t_bytes32,t_bool)"
					}
				],
				"types": {
					"t_address": {
						"encoding": "inplace",
						"label": "address",
						"numberOfBytes": "20"
					},
					"t_array(t_address)2_storage": {
						"base": "t_address",
						"encoding": "inplace",
						"label": "address[2]",
						"numberOfBytes": "64"
					},
					"t_bool": {
						"encoding": "inplace",
						"label": "bool",
						"numberOfBytes": "1"
					},
					"t_bytes32": {
						"encoding": "inplace",
						"label": "bytes32",
						"numberOfBytes": "32"
					},
					"t_mapping(t_bytes32,t_bool)": {
						"encoding": "mapping",
						"key": "t_bytes32",
						"label": "mapping(bytes32 => bool)",
						"numberOfBytes": "32",
						"value": "t_bool"
					}
				}
			},
			"userdoc": {
				"kind": "user",
				"methods": {},
				"version": 1
			}
		}
	}
}