{
	"contracts/DeFi/CPAMM2.sol": {
		"CPAMM": {
			"abi": [
				{
					"inputs": [
						{
							"internalType": "address",
							"name": "token_addr",
							"type": "address"
						}
					],
					"stateMutability": "nonpayable",
					"type": "constructor"
				},
				{
					"anonymous": false,
					"inputs": [
						{
							"indexed": true,
							"internalType": "address",
							"name": "swapper",
							"type": "address"
						},
						{
							"indexed": true,
							"internalType": "uint256",
							"name": "ethInput",
							"type": "uint256"
						},
						{
							"indexed": true,
							"internalType": "uint256",
							"name": "tokenOutput",
							"type": "uint256"
						}
					],
					"name": "EthToTokenSwap",
					"type": "event"
				},
				{
					"anonymous": false,
					"inputs": [
						{
							"indexed": false,
							"internalType": "address",
							"name": "liquidityProvider",
							"type": "address"
						},
						{
							"indexed": true,
							"internalType": "uint256",
							"name": "tokensInput",
							"type": "uint256"
						},
						{
							"indexed": true,
							"internalType": "uint256",
							"name": "ethInput",
							"type": "uint256"
						},
						{
							"indexed": true,
							"internalType": "uint256",
							"name": "liquidityMinted",
							"type": "uint256"
						}
					],
					"name": "LiquidityProvided",
					"type": "event"
				},
				{
					"anonymous": false,
					"inputs": [
						{
							"indexed": false,
							"internalType": "address",
							"name": "liquidityRemover",
							"type": "address"
						},
						{
							"indexed": true,
							"internalType": "uint256",
							"name": "tokensOutput",
							"type": "uint256"
						},
						{
							"indexed": true,
							"internalType": "uint256",
							"name": "ethOutput",
							"type": "uint256"
						},
						{
							"indexed": true,
							"internalType": "uint256",
							"name": "liquidityWithdrawn",
							"type": "uint256"
						}
					],
					"name": "LiquidityRemoved",
					"type": "event"
				},
				{
					"anonymous": false,
					"inputs": [
						{
							"indexed": true,
							"internalType": "address",
							"name": "swapper",
							"type": "address"
						},
						{
							"indexed": true,
							"internalType": "uint256",
							"name": "tokensInput",
							"type": "uint256"
						},
						{
							"indexed": true,
							"internalType": "uint256",
							"name": "ethOutput",
							"type": "uint256"
						}
					],
					"name": "TokenToEthSwap",
					"type": "event"
				},
				{
					"inputs": [],
					"name": "deposit",
					"outputs": [
						{
							"internalType": "uint256",
							"name": "tokensDeposited",
							"type": "uint256"
						}
					],
					"stateMutability": "payable",
					"type": "function"
				},
				{
					"inputs": [],
					"name": "ethToToken",
					"outputs": [
						{
							"internalType": "uint256",
							"name": "tokenOutput",
							"type": "uint256"
						}
					],
					"stateMutability": "payable",
					"type": "function"
				},
				{
					"inputs": [
						{
							"internalType": "address",
							"name": "lp",
							"type": "address"
						}
					],
					"name": "getLiquidity",
					"outputs": [
						{
							"internalType": "uint256",
							"name": "",
							"type": "uint256"
						}
					],
					"stateMutability": "view",
					"type": "function"
				},
				{
					"inputs": [
						{
							"internalType": "uint256",
							"name": "tokens",
							"type": "uint256"
						}
					],
					"name": "init",
					"outputs": [
						{
							"internalType": "uint256",
							"name": "",
							"type": "uint256"
						}
					],
					"stateMutability": "payable",
					"type": "function"
				},
				{
					"inputs": [
						{
							"internalType": "address",
							"name": "",
							"type": "address"
						}
					],
					"name": "liquidity",
					"outputs": [
						{
							"internalType": "uint256",
							"name": "",
							"type": "uint256"
						}
					],
					"stateMutability": "view",
					"type": "function"
				},
				{
					"inputs": [
						{
							"internalType": "uint256",
							"name": "xInput",
							"type": "uint256"
						},
						{
							"internalType": "uint256",
							"name": "xReserves",
							"type": "uint256"
						},
						{
							"internalType": "uint256",
							"name": "yReserves",
							"type": "uint256"
						}
					],
					"name": "price",
					"outputs": [
						{
							"internalType": "uint256",
							"name": "yOutput",
							"type": "uint256"
						}
					],
					"stateMutability": "pure",
					"type": "function"
				},
				{
					"inputs": [
						{
							"internalType": "uint256",
							"name": "tokenInput",
							"type": "uint256"
						}
					],
					"name": "tokenToEth",
					"outputs": [
						{
							"internalType": "uint256",
							"name": "ethOutput",
							"type": "uint256"
						}
					],
					"stateMutability": "nonpayable",
					"type": "function"
				},
				{
					"inputs": [],
					"name": "totalLiquidity",
					"outputs": [
						{
							"internalType": "uint256",
							"name": "",
							"type": "uint256"
						}
					],
					"stateMutability": "view",
					"type": "function"
				},
				{
					"inputs": [
						{
							"internalType": "uint256",
							"name": "amount",
							"type": "uint256"
						}
					],
					"name": "withdraw",
					"outputs": [
						{
							"internalType": "uint256",
							"name": "eth_amount",
							"type": "uint256"
						},
						{
							"internalType": "uint256",
							"name": "token_amount",
							"type": "uint256"
						}
					],
					"stateMutability": "nonpayable",
					"type": "function"
				}
			],
			"devdoc": {
				"kind": "dev",
				"methods": {},
				"version": 1
			},
			"evm": {
				"assembly": "    /* \"contracts/DeFi/CPAMM2.sol\":182:6146  contract CPAMM {... */\n  mstore(0x40, 0x80)\n    /* \"contracts/DeFi/CPAMM2.sol\":1495:1734  constructor(address token_addr) {... */\n  callvalue\n  dup1\n  iszero\n  tag_1\n  jumpi\n  0x00\n  dup1\n  revert\ntag_1:\n  pop\n  mload(0x40)\n  sub(codesize, bytecodeSize)\n  dup1\n  bytecodeSize\n  dup4\n  codecopy\n  dup2\n  dup2\n  add\n  0x40\n  mstore\n  dup2\n  add\n  swap1\n  tag_2\n  swap2\n  swap1\n  tag_3\n  jump\t// in\ntag_2:\n    /* \"contracts/DeFi/CPAMM2.sol\":1567:1568  0 */\n  0x00\n    /* \"contracts/DeFi/CPAMM2.sol\":1545:1569  token_addr != address(0) */\n  0xffffffffffffffffffffffffffffffffffffffff\n  and\n    /* \"contracts/DeFi/CPAMM2.sol\":1545:1555  token_addr */\n  dup2\n    /* \"contracts/DeFi/CPAMM2.sol\":1545:1569  token_addr != address(0) */\n  0xffffffffffffffffffffffffffffffffffffffff\n  and\n  eq\n  iszero\n    /* \"contracts/DeFi/CPAMM2.sol\":1537:1586  require(token_addr != address(0), \"zero address\") */\n  tag_6\n  jumpi\n  mload(0x40)\n  0x08c379a000000000000000000000000000000000000000000000000000000000\n  dup2\n  mstore\n  0x04\n  add\n  tag_7\n  swap1\n  tag_8\n  jump\t// in\ntag_7:\n  mload(0x40)\n  dup1\n  swap2\n  sub\n  swap1\n  revert\ntag_6:\n    /* \"contracts/DeFi/CPAMM2.sol\":1611:1621  token_addr */\n  dup1\n    /* \"contracts/DeFi/CPAMM2.sol\":1596:1601  token */\n  0x00\n  dup1\n    /* \"contracts/DeFi/CPAMM2.sol\":1596:1622  token = IERC20(token_addr) */\n  0x0100\n  exp\n  dup2\n  sload\n  dup2\n  0xffffffffffffffffffffffffffffffffffffffff\n  mul\n  not\n  and\n  swap1\n  dup4\n  0xffffffffffffffffffffffffffffffffffffffff\n  and\n  mul\n  or\n  swap1\n  sstore\n  pop\n    /* \"contracts/DeFi/CPAMM2.sol\":1495:1734  constructor(address token_addr) {... */\n  pop\n    /* \"contracts/DeFi/CPAMM2.sol\":182:6146  contract CPAMM {... */\n  jump(tag_9)\n    /* \"#utility.yul\":7:150   */\ntag_11:\n    /* \"#utility.yul\":64:69   */\n  0x00\n    /* \"#utility.yul\":95:101   */\n  dup2\n    /* \"#utility.yul\":89:102   */\n  mload\n    /* \"#utility.yul\":80:102   */\n  swap1\n  pop\n    /* \"#utility.yul\":111:144   */\n  tag_13\n    /* \"#utility.yul\":138:143   */\n  dup2\n    /* \"#utility.yul\":111:144   */\n  tag_14\n  jump\t// in\ntag_13:\n    /* \"#utility.yul\":7:150   */\n  swap3\n  swap2\n  pop\n  pop\n  jump\t// out\n    /* \"#utility.yul\":156:507   */\ntag_3:\n    /* \"#utility.yul\":226:232   */\n  0x00\n    /* \"#utility.yul\":275:277   */\n  0x20\n    /* \"#utility.yul\":263:272   */\n  dup3\n    /* \"#utility.yul\":254:261   */\n  dup5\n    /* \"#utility.yul\":250:273   */\n  sub\n    /* \"#utility.yul\":246:278   */\n  slt\n    /* \"#utility.yul\":243:362   */\n  iszero\n  tag_16\n  jumpi\n    /* \"#utility.yul\":281:360   */\n  tag_17\n  tag_18\n  jump\t// in\ntag_17:\n    /* \"#utility.yul\":243:362   */\ntag_16:\n    /* \"#utility.yul\":401:402   */\n  0x00\n    /* \"#utility.yul\":426:490   */\n  tag_19\n    /* \"#utility.yul\":482:489   */\n  dup5\n    /* \"#utility.yul\":473:479   */\n  dup3\n    /* \"#utility.yul\":462:471   */\n  dup6\n    /* \"#utility.yul\":458:480   */\n  add\n    /* \"#utility.yul\":426:490   */\n  tag_11\n  jump\t// in\ntag_19:\n    /* \"#utility.yul\":416:490   */\n  swap2\n  pop\n    /* \"#utility.yul\":372:500   */\n  pop\n    /* \"#utility.yul\":156:507   */\n  swap3\n  swap2\n  pop\n  pop\n  jump\t// out\n    /* \"#utility.yul\":513:879   */\ntag_20:\n    /* \"#utility.yul\":655:658   */\n  0x00\n    /* \"#utility.yul\":676:743   */\n  tag_22\n    /* \"#utility.yul\":740:742   */\n  0x0c\n    /* \"#utility.yul\":735:738   */\n  dup4\n    /* \"#utility.yul\":676:743   */\n  tag_23\n  jump\t// in\ntag_22:\n    /* \"#utility.yul\":669:743   */\n  swap2\n  pop\n    /* \"#utility.yul\":752:845   */\n  tag_24\n    /* \"#utility.yul\":841:844   */\n  dup3\n    /* \"#utility.yul\":752:845   */\n  tag_25\n  jump\t// in\ntag_24:\n    /* \"#utility.yul\":870:872   */\n  0x20\n    /* \"#utility.yul\":865:868   */\n  dup3\n    /* \"#utility.yul\":861:873   */\n  add\n    /* \"#utility.yul\":854:873   */\n  swap1\n  pop\n    /* \"#utility.yul\":513:879   */\n  swap2\n  swap1\n  pop\n  jump\t// out\n    /* \"#utility.yul\":885:1304   */\ntag_8:\n    /* \"#utility.yul\":1051:1055   */\n  0x00\n    /* \"#utility.yul\":1089:1091   */\n  0x20\n    /* \"#utility.yul\":1078:1087   */\n  dup3\n    /* \"#utility.yul\":1074:1092   */\n  add\n    /* \"#utility.yul\":1066:1092   */\n  swap1\n  pop\n    /* \"#utility.yul\":1138:1147   */\n  dup2\n    /* \"#utility.yul\":1132:1136   */\n  dup2\n    /* \"#utility.yul\":1128:1148   */\n  sub\n    /* \"#utility.yul\":1124:1125   */\n  0x00\n    /* \"#utility.yul\":1113:1122   */\n  dup4\n    /* \"#utility.yul\":1109:1126   */\n  add\n    /* \"#utility.yul\":1102:1149   */\n  mstore\n    /* \"#utility.yul\":1166:1297   */\n  tag_27\n    /* \"#utility.yul\":1292:1296   */\n  dup2\n    /* \"#utility.yul\":1166:1297   */\n  tag_20\n  jump\t// in\ntag_27:\n    /* \"#utility.yul\":1158:1297   */\n  swap1\n  pop\n    /* \"#utility.yul\":885:1304   */\n  swap2\n  swap1\n  pop\n  jump\t// out\n    /* \"#utility.yul\":1391:1560   */\ntag_23:\n    /* \"#utility.yul\":1475:1486   */\n  0x00\n    /* \"#utility.yul\":1509:1515   */\n  dup3\n    /* \"#utility.yul\":1504:1507   */\n  dup3\n    /* \"#utility.yul\":1497:1516   */\n  mstore\n    /* \"#utility.yul\":1549:1553   */\n  0x20\n    /* \"#utility.yul\":1544:1547   */\n  dup3\n    /* \"#utility.yul\":1540:1554   */\n  add\n    /* \"#utility.yul\":1525:1554   */\n  swap1\n  pop\n    /* \"#utility.yul\":1391:1560   */\n  swap3\n  swap2\n  pop\n  pop\n  jump\t// out\n    /* \"#utility.yul\":1566:1662   */\ntag_31:\n    /* \"#utility.yul\":1603:1610   */\n  0x00\n    /* \"#utility.yul\":1632:1656   */\n  tag_33\n    /* \"#utility.yul\":1650:1655   */\n  dup3\n    /* \"#utility.yul\":1632:1656   */\n  tag_34\n  jump\t// in\ntag_33:\n    /* \"#utility.yul\":1621:1656   */\n  swap1\n  pop\n    /* \"#utility.yul\":1566:1662   */\n  swap2\n  swap1\n  pop\n  jump\t// out\n    /* \"#utility.yul\":1668:1794   */\ntag_34:\n    /* \"#utility.yul\":1705:1712   */\n  0x00\n    /* \"#utility.yul\":1745:1787   */\n  0xffffffffffffffffffffffffffffffffffffffff\n    /* \"#utility.yul\":1738:1743   */\n  dup3\n    /* \"#utility.yul\":1734:1788   */\n  and\n    /* \"#utility.yul\":1723:1788   */\n  swap1\n  pop\n    /* \"#utility.yul\":1668:1794   */\n  swap2\n  swap1\n  pop\n  jump\t// out\n    /* \"#utility.yul\":1923:2040   */\ntag_18:\n    /* \"#utility.yul\":2032:2033   */\n  0x00\n    /* \"#utility.yul\":2029:2030   */\n  dup1\n    /* \"#utility.yul\":2022:2034   */\n  revert\n    /* \"#utility.yul\":2046:2208   */\ntag_25:\n    /* \"#utility.yul\":2186:2200   */\n  0x7a65726f20616464726573730000000000000000000000000000000000000000\n    /* \"#utility.yul\":2182:2183   */\n  0x00\n    /* \"#utility.yul\":2174:2180   */\n  dup3\n    /* \"#utility.yul\":2170:2184   */\n  add\n    /* \"#utility.yul\":2163:2201   */\n  mstore\n    /* \"#utility.yul\":2046:2208   */\n  pop\n  jump\t// out\n    /* \"#utility.yul\":2214:2336   */\ntag_14:\n    /* \"#utility.yul\":2287:2311   */\n  tag_41\n    /* \"#utility.yul\":2305:2310   */\n  dup2\n    /* \"#utility.yul\":2287:2311   */\n  tag_31\n  jump\t// in\ntag_41:\n    /* \"#utility.yul\":2280:2285   */\n  dup2\n    /* \"#utility.yul\":2277:2312   */\n  eq\n    /* \"#utility.yul\":2267:2330   */\n  tag_42\n  jumpi\n    /* \"#utility.yul\":2326:2327   */\n  0x00\n    /* \"#utility.yul\":2323:2324   */\n  dup1\n    /* \"#utility.yul\":2316:2328   */\n  revert\n    /* \"#utility.yul\":2267:2330   */\ntag_42:\n    /* \"#utility.yul\":2214:2336   */\n  pop\n  jump\t// out\n    /* \"contracts/DeFi/CPAMM2.sol\":182:6146  contract CPAMM {... */\ntag_9:\n  dataSize(sub_0)\n  dup1\n  dataOffset(sub_0)\n  0x00\n  codecopy\n  0x00\n  return\nstop\n\nsub_0: assembly {\n        /* \"contracts/DeFi/CPAMM2.sol\":182:6146  contract CPAMM {... */\n      mstore(0x40, 0x80)\n      jumpi(tag_1, lt(calldatasize, 0x04))\n      shr(0xe0, calldataload(0x00))\n      dup1\n      0x789770f4\n      gt\n      tag_11\n      jumpi\n      dup1\n      0x789770f4\n      eq\n      tag_6\n      jumpi\n      dup1\n      0xa747b93b\n      eq\n      tag_7\n      jumpi\n      dup1\n      0xb7b0422d\n      eq\n      tag_8\n      jumpi\n      dup1\n      0xb8c876b1\n      eq\n      tag_9\n      jumpi\n      dup1\n      0xd0e30db0\n      eq\n      tag_10\n      jumpi\n      jump(tag_1)\n    tag_11:\n      dup1\n      0x15770f92\n      eq\n      tag_2\n      jumpi\n      dup1\n      0x2071a9f4\n      eq\n      tag_3\n      jumpi\n      dup1\n      0x2e1a7d4d\n      eq\n      tag_4\n      jumpi\n      dup1\n      0x70b2a30f\n      eq\n      tag_5\n      jumpi\n    tag_1:\n      0x00\n      dup1\n      revert\n        /* \"contracts/DeFi/CPAMM2.sol\":341:370  uint256 public totalLiquidity */\n    tag_2:\n      callvalue\n      dup1\n      iszero\n      tag_12\n      jumpi\n      0x00\n      dup1\n      revert\n    tag_12:\n      pop\n      tag_13\n      tag_14\n      jump\t// in\n    tag_13:\n      mload(0x40)\n      tag_15\n      swap2\n      swap1\n      tag_16\n      jump\t// in\n    tag_15:\n      mload(0x40)\n      dup1\n      swap2\n      sub\n      swap1\n      return\n        /* \"contracts/DeFi/CPAMM2.sol\":2355:2705  function price(... */\n    tag_3:\n      callvalue\n      dup1\n      iszero\n      tag_17\n      jumpi\n      0x00\n      dup1\n      revert\n    tag_17:\n      pop\n      tag_18\n      0x04\n      dup1\n      calldatasize\n      sub\n      dup2\n      add\n      swap1\n      tag_19\n      swap2\n      swap1\n      tag_20\n      jump\t// in\n    tag_19:\n      tag_21\n      jump\t// in\n    tag_18:\n      mload(0x40)\n      tag_22\n      swap2\n      swap1\n      tag_16\n      jump\t// in\n    tag_22:\n      mload(0x40)\n      dup1\n      swap2\n      sub\n      swap1\n      return\n        /* \"contracts/DeFi/CPAMM2.sol\":5328:6144  function withdraw(uint256 amount)... */\n    tag_4:\n      callvalue\n      dup1\n      iszero\n      tag_23\n      jumpi\n      0x00\n      dup1\n      revert\n    tag_23:\n      pop\n      tag_24\n      0x04\n      dup1\n      calldatasize\n      sub\n      dup2\n      add\n      swap1\n      tag_25\n      swap2\n      swap1\n      tag_26\n      jump\t// in\n    tag_25:\n      tag_27\n      jump\t// in\n    tag_24:\n      mload(0x40)\n      tag_28\n      swap3\n      swap2\n      swap1\n      tag_29\n      jump\t// in\n    tag_28:\n      mload(0x40)\n      dup1\n      swap2\n      sub\n      swap1\n      return\n        /* \"contracts/DeFi/CPAMM2.sol\":3613:4445  function tokenToEth(uint256 tokenInput) public returns (uint256 ethOutput) {... */\n    tag_5:\n      callvalue\n      dup1\n      iszero\n      tag_30\n      jumpi\n      0x00\n      dup1\n      revert\n    tag_30:\n      pop\n      tag_31\n      0x04\n      dup1\n      calldatasize\n      sub\n      dup2\n      add\n      swap1\n      tag_32\n      swap2\n      swap1\n      tag_26\n      jump\t// in\n    tag_32:\n      tag_33\n      jump\t// in\n    tag_31:\n      mload(0x40)\n      tag_34\n      swap2\n      swap1\n      tag_16\n      jump\t// in\n    tag_34:\n      mload(0x40)\n      dup1\n      swap2\n      sub\n      swap1\n      return\n        /* \"contracts/DeFi/CPAMM2.sol\":2951:3535  function ethToToken() public payable returns (uint256 tokenOutput) {... */\n    tag_6:\n      tag_35\n      tag_36\n      jump\t// in\n    tag_35:\n      mload(0x40)\n      tag_37\n      swap2\n      swap1\n      tag_16\n      jump\t// in\n    tag_37:\n      mload(0x40)\n      dup1\n      swap2\n      sub\n      swap1\n      return\n        /* \"contracts/DeFi/CPAMM2.sol\":2772:2873  function getLiquidity(address lp) public view returns (uint256) {... */\n    tag_7:\n      callvalue\n      dup1\n      iszero\n      tag_38\n      jumpi\n      0x00\n      dup1\n      revert\n    tag_38:\n      pop\n      tag_39\n      0x04\n      dup1\n      calldatasize\n      sub\n      dup2\n      add\n      swap1\n      tag_40\n      swap2\n      swap1\n      tag_41\n      jump\t// in\n    tag_40:\n      tag_42\n      jump\t// in\n    tag_39:\n      mload(0x40)\n      tag_43\n      swap2\n      swap1\n      tag_16\n      jump\t// in\n    tag_43:\n      mload(0x40)\n      dup1\n      swap2\n      sub\n      swap1\n      return\n        /* \"contracts/DeFi/CPAMM2.sol\":1792:2268  function init(uint256 tokens) public payable returns (uint256) {... */\n    tag_8:\n      tag_44\n      0x04\n      dup1\n      calldatasize\n      sub\n      dup2\n      add\n      swap1\n      tag_45\n      swap2\n      swap1\n      tag_26\n      jump\t// in\n    tag_45:\n      tag_46\n      jump\t// in\n    tag_44:\n      mload(0x40)\n      tag_47\n      swap2\n      swap1\n      tag_16\n      jump\t// in\n    tag_47:\n      mload(0x40)\n      dup1\n      swap2\n      sub\n      swap1\n      return\n        /* \"contracts/DeFi/CPAMM2.sol\":376:420  mapping(address => uint256) public liquidity */\n    tag_9:\n      callvalue\n      dup1\n      iszero\n      tag_48\n      jumpi\n      0x00\n      dup1\n      revert\n    tag_48:\n      pop\n      tag_49\n      0x04\n      dup1\n      calldatasize\n      sub\n      dup2\n      add\n      swap1\n      tag_50\n      swap2\n      swap1\n      tag_41\n      jump\t// in\n    tag_50:\n      tag_51\n      jump\t// in\n    tag_49:\n      mload(0x40)\n      tag_52\n      swap2\n      swap1\n      tag_16\n      jump\t// in\n    tag_52:\n      mload(0x40)\n      dup1\n      swap2\n      sub\n      swap1\n      return\n        /* \"contracts/DeFi/CPAMM2.sol\":4533:5235  function deposit() public payable returns (uint256 tokensDeposited) {... */\n    tag_10:\n      tag_53\n      tag_54\n      jump\t// in\n    tag_53:\n      mload(0x40)\n      tag_55\n      swap2\n      swap1\n      tag_16\n      jump\t// in\n    tag_55:\n      mload(0x40)\n      dup1\n      swap2\n      sub\n      swap1\n      return\n        /* \"contracts/DeFi/CPAMM2.sol\":341:370  uint256 public totalLiquidity */\n    tag_14:\n      sload(0x01)\n      dup2\n      jump\t// out\n        /* \"contracts/DeFi/CPAMM2.sol\":2355:2705  function price(... */\n    tag_21:\n        /* \"contracts/DeFi/CPAMM2.sol\":2475:2490  uint256 yOutput */\n      0x00\n        /* \"contracts/DeFi/CPAMM2.sol\":2556:2560  1000 */\n      0x03e8\n        /* \"contracts/DeFi/CPAMM2.sol\":2549:2552  997 */\n      0x03e5\n        /* \"contracts/DeFi/CPAMM2.sol\":2540:2546  xInput */\n      dup6\n        /* \"contracts/DeFi/CPAMM2.sol\":2540:2552  xInput * 997 */\n      tag_57\n      swap2\n      swap1\n      tag_58\n      jump\t// in\n    tag_57:\n        /* \"contracts/DeFi/CPAMM2.sol\":2539:2560  (xInput * 997) / 1000 */\n      tag_59\n      swap2\n      swap1\n      tag_60\n      jump\t// in\n    tag_59:\n        /* \"contracts/DeFi/CPAMM2.sol\":2530:2560  xInput = (xInput * 997) / 1000 */\n      swap4\n      pop\n        /* \"contracts/DeFi/CPAMM2.sol\":2570:2587  uint256 numerator */\n      0x00\n        /* \"contracts/DeFi/CPAMM2.sol\":2599:2608  yReserves */\n      dup3\n        /* \"contracts/DeFi/CPAMM2.sol\":2590:2596  xInput */\n      dup6\n        /* \"contracts/DeFi/CPAMM2.sol\":2590:2608  xInput * yReserves */\n      tag_61\n      swap2\n      swap1\n      tag_58\n      jump\t// in\n    tag_61:\n        /* \"contracts/DeFi/CPAMM2.sol\":2570:2608  uint256 numerator = xInput * yReserves */\n      swap1\n      pop\n        /* \"contracts/DeFi/CPAMM2.sol\":2618:2637  uint256 denominator */\n      0x00\n        /* \"contracts/DeFi/CPAMM2.sol\":2652:2658  xInput */\n      dup6\n        /* \"contracts/DeFi/CPAMM2.sol\":2640:2649  xReserves */\n      dup6\n        /* \"contracts/DeFi/CPAMM2.sol\":2640:2658  xReserves + xInput */\n      tag_62\n      swap2\n      swap1\n      tag_63\n      jump\t// in\n    tag_62:\n        /* \"contracts/DeFi/CPAMM2.sol\":2618:2658  uint256 denominator = xReserves + xInput */\n      swap1\n      pop\n        /* \"contracts/DeFi/CPAMM2.sol\":2687:2698  denominator */\n      dup1\n        /* \"contracts/DeFi/CPAMM2.sol\":2675:2684  numerator */\n      dup3\n        /* \"contracts/DeFi/CPAMM2.sol\":2675:2698  numerator / denominator */\n      tag_64\n      swap2\n      swap1\n      tag_60\n      jump\t// in\n    tag_64:\n        /* \"contracts/DeFi/CPAMM2.sol\":2668:2698  return numerator / denominator */\n      swap3\n      pop\n      pop\n      pop\n        /* \"contracts/DeFi/CPAMM2.sol\":2355:2705  function price(... */\n      swap4\n      swap3\n      pop\n      pop\n      pop\n      jump\t// out\n        /* \"contracts/DeFi/CPAMM2.sol\":5328:6144  function withdraw(uint256 amount)... */\n    tag_27:\n        /* \"contracts/DeFi/CPAMM2.sol\":5394:5412  uint256 eth_amount */\n      0x00\n        /* \"contracts/DeFi/CPAMM2.sol\":5414:5434  uint256 token_amount */\n      dup1\n        /* \"contracts/DeFi/CPAMM2.sol\":5483:5489  amount */\n      dup3\n        /* \"contracts/DeFi/CPAMM2.sol\":5458:5467  liquidity */\n      0x02\n        /* \"contracts/DeFi/CPAMM2.sol\":5458:5479  liquidity[msg.sender] */\n      0x00\n        /* \"contracts/DeFi/CPAMM2.sol\":5468:5478  msg.sender */\n      caller\n        /* \"contracts/DeFi/CPAMM2.sol\":5458:5479  liquidity[msg.sender] */\n      0xffffffffffffffffffffffffffffffffffffffff\n      and\n      0xffffffffffffffffffffffffffffffffffffffff\n      and\n      dup2\n      mstore\n      0x20\n      add\n      swap1\n      dup2\n      mstore\n      0x20\n      add\n      0x00\n      keccak256\n      sload\n        /* \"contracts/DeFi/CPAMM2.sol\":5458:5489  liquidity[msg.sender] >= amount */\n      lt\n      iszero\n        /* \"contracts/DeFi/CPAMM2.sol\":5450:5511  require(liquidity[msg.sender] >= amount, \"not enough shares\") */\n      tag_66\n      jumpi\n      mload(0x40)\n      0x08c379a000000000000000000000000000000000000000000000000000000000\n      dup2\n      mstore\n      0x04\n      add\n      tag_67\n      swap1\n      tag_68\n      jump\t// in\n    tag_67:\n      mload(0x40)\n      dup1\n      swap2\n      sub\n      swap1\n      revert\n    tag_66:\n        /* \"contracts/DeFi/CPAMM2.sol\":5614:5635  address(this).balance */\n      selfbalance\n        /* \"contracts/DeFi/CPAMM2.sol\":5596:5610  totalLiquidity */\n      sload(0x01)\n        /* \"contracts/DeFi/CPAMM2.sol\":5587:5593  amount */\n      dup5\n        /* \"contracts/DeFi/CPAMM2.sol\":5587:5610  amount / totalLiquidity */\n      tag_69\n      swap2\n      swap1\n      tag_60\n      jump\t// in\n    tag_69:\n        /* \"contracts/DeFi/CPAMM2.sol\":5586:5635  (amount / totalLiquidity) * address(this).balance */\n      tag_70\n      swap2\n      swap1\n      tag_58\n      jump\t// in\n    tag_70:\n        /* \"contracts/DeFi/CPAMM2.sol\":5573:5635  eth_amount = (amount / totalLiquidity) * address(this).balance */\n      swap2\n      pop\n        /* \"contracts/DeFi/CPAMM2.sol\":5712:5717  token */\n      0x00\n      dup1\n      sload\n      swap1\n      0x0100\n      exp\n      swap1\n      div\n      0xffffffffffffffffffffffffffffffffffffffff\n      and\n        /* \"contracts/DeFi/CPAMM2.sol\":5712:5727  token.balanceOf */\n      0xffffffffffffffffffffffffffffffffffffffff\n      and\n      0x70a08231\n        /* \"contracts/DeFi/CPAMM2.sol\":5736:5740  this */\n      address\n        /* \"contracts/DeFi/CPAMM2.sol\":5712:5742  token.balanceOf(address(this)) */\n      mload(0x40)\n      dup3\n      0xffffffff\n      and\n      0xe0\n      shl\n      dup2\n      mstore\n      0x04\n      add\n      tag_71\n      swap2\n      swap1\n      tag_72\n      jump\t// in\n    tag_71:\n      0x20\n      mload(0x40)\n      dup1\n      dup4\n      sub\n      dup2\n      dup7\n      dup1\n      extcodesize\n      iszero\n      dup1\n      iszero\n      tag_73\n      jumpi\n      0x00\n      dup1\n      revert\n    tag_73:\n      pop\n      gas\n      staticcall\n      iszero\n      dup1\n      iszero\n      tag_75\n      jumpi\n      returndatasize\n      0x00\n      dup1\n      returndatacopy\n      revert(0x00, returndatasize)\n    tag_75:\n      pop\n      pop\n      pop\n      pop\n      mload(0x40)\n      returndatasize\n      not(0x1f)\n      0x1f\n      dup3\n      add\n      and\n      dup3\n      add\n      dup1\n      0x40\n      mstore\n      pop\n      dup2\n      add\n      swap1\n      tag_76\n      swap2\n      swap1\n      tag_77\n      jump\t// in\n    tag_76:\n        /* \"contracts/DeFi/CPAMM2.sol\":5682:5696  totalLiquidity */\n      sload(0x01)\n        /* \"contracts/DeFi/CPAMM2.sol\":5673:5679  amount */\n      dup5\n        /* \"contracts/DeFi/CPAMM2.sol\":5673:5696  amount / totalLiquidity */\n      tag_78\n      swap2\n      swap1\n      tag_60\n      jump\t// in\n    tag_78:\n        /* \"contracts/DeFi/CPAMM2.sol\":5672:5742  (amount / totalLiquidity) *... */\n      tag_79\n      swap2\n      swap1\n      tag_58\n      jump\t// in\n    tag_79:\n        /* \"contracts/DeFi/CPAMM2.sol\":5645:5742  token_amount =... */\n      swap1\n      pop\n        /* \"contracts/DeFi/CPAMM2.sol\":5777:5783  amount */\n      dup3\n        /* \"contracts/DeFi/CPAMM2.sol\":5752:5761  liquidity */\n      0x02\n        /* \"contracts/DeFi/CPAMM2.sol\":5752:5773  liquidity[msg.sender] */\n      0x00\n        /* \"contracts/DeFi/CPAMM2.sol\":5762:5772  msg.sender */\n      caller\n        /* \"contracts/DeFi/CPAMM2.sol\":5752:5773  liquidity[msg.sender] */\n      0xffffffffffffffffffffffffffffffffffffffff\n      and\n      0xffffffffffffffffffffffffffffffffffffffff\n      and\n      dup2\n      mstore\n      0x20\n      add\n      swap1\n      dup2\n      mstore\n      0x20\n      add\n      0x00\n      keccak256\n      0x00\n        /* \"contracts/DeFi/CPAMM2.sol\":5752:5783  liquidity[msg.sender] -= amount */\n      dup3\n      dup3\n      sload\n      tag_80\n      swap2\n      swap1\n      tag_81\n      jump\t// in\n    tag_80:\n      swap3\n      pop\n      pop\n      dup2\n      swap1\n      sstore\n      pop\n        /* \"contracts/DeFi/CPAMM2.sol\":5811:5817  amount */\n      dup3\n        /* \"contracts/DeFi/CPAMM2.sol\":5793:5807  totalLiquidity */\n      0x01\n      0x00\n        /* \"contracts/DeFi/CPAMM2.sol\":5793:5817  totalLiquidity -= amount */\n      dup3\n      dup3\n      sload\n      tag_82\n      swap2\n      swap1\n      tag_81\n      jump\t// in\n    tag_82:\n      swap3\n      pop\n      pop\n      dup2\n      swap1\n      sstore\n      pop\n        /* \"contracts/DeFi/CPAMM2.sol\":5848:5853  token */\n      0x00\n      dup1\n      sload\n      swap1\n      0x0100\n      exp\n      swap1\n      div\n      0xffffffffffffffffffffffffffffffffffffffff\n      and\n        /* \"contracts/DeFi/CPAMM2.sol\":5848:5862  token.transfer */\n      0xffffffffffffffffffffffffffffffffffffffff\n      and\n      0xa9059cbb\n        /* \"contracts/DeFi/CPAMM2.sol\":5863:5873  msg.sender */\n      caller\n        /* \"contracts/DeFi/CPAMM2.sol\":5875:5887  token_amount */\n      dup4\n        /* \"contracts/DeFi/CPAMM2.sol\":5848:5888  token.transfer(msg.sender, token_amount) */\n      mload(0x40)\n      dup4\n      0xffffffff\n      and\n      0xe0\n      shl\n      dup2\n      mstore\n      0x04\n      add\n      tag_83\n      swap3\n      swap2\n      swap1\n      tag_84\n      jump\t// in\n    tag_83:\n      0x20\n      mload(0x40)\n      dup1\n      dup4\n      sub\n      dup2\n      0x00\n      dup8\n      dup1\n      extcodesize\n      iszero\n      dup1\n      iszero\n      tag_85\n      jumpi\n      0x00\n      dup1\n      revert\n    tag_85:\n      pop\n      gas\n      call\n      iszero\n      dup1\n      iszero\n      tag_87\n      jumpi\n      returndatasize\n      0x00\n      dup1\n      returndatacopy\n      revert(0x00, returndatasize)\n    tag_87:\n      pop\n      pop\n      pop\n      pop\n      mload(0x40)\n      returndatasize\n      not(0x1f)\n      0x1f\n      dup3\n      add\n      and\n      dup3\n      add\n      dup1\n      0x40\n      mstore\n      pop\n      dup2\n      add\n      swap1\n      tag_88\n      swap2\n      swap1\n      tag_89\n      jump\t// in\n    tag_88:\n        /* \"contracts/DeFi/CPAMM2.sol\":5827:5935  require(... */\n      tag_90\n      jumpi\n      mload(0x40)\n      0x08c379a000000000000000000000000000000000000000000000000000000000\n      dup2\n      mstore\n      0x04\n      add\n      tag_91\n      swap1\n      tag_92\n      jump\t// in\n    tag_91:\n      mload(0x40)\n      dup1\n      swap2\n      sub\n      swap1\n      revert\n    tag_90:\n        /* \"contracts/DeFi/CPAMM2.sol\":5946:5958  bool success */\n      0x00\n        /* \"contracts/DeFi/CPAMM2.sol\":5972:5982  msg.sender */\n      caller\n        /* \"contracts/DeFi/CPAMM2.sol\":5964:5988  payable(msg.sender).call */\n      0xffffffffffffffffffffffffffffffffffffffff\n      and\n        /* \"contracts/DeFi/CPAMM2.sol\":5996:6006  eth_amount */\n      dup4\n        /* \"contracts/DeFi/CPAMM2.sol\":5964:6011  payable(msg.sender).call{value: eth_amount}(\"\") */\n      mload(0x40)\n      tag_93\n      swap1\n      tag_94\n      jump\t// in\n    tag_93:\n      0x00\n      mload(0x40)\n      dup1\n      dup4\n      sub\n      dup2\n      dup6\n      dup8\n      gas\n      call\n      swap3\n      pop\n      pop\n      pop\n      returndatasize\n      dup1\n      0x00\n      dup2\n      eq\n      tag_97\n      jumpi\n      mload(0x40)\n      swap2\n      pop\n      and(add(returndatasize, 0x3f), not(0x1f))\n      dup3\n      add\n      0x40\n      mstore\n      returndatasize\n      dup3\n      mstore\n      returndatasize\n      0x00\n      0x20\n      dup5\n      add\n      returndatacopy\n      jump(tag_96)\n    tag_97:\n      0x60\n      swap2\n      pop\n    tag_96:\n      pop\n        /* \"contracts/DeFi/CPAMM2.sol\":5945:6011  (bool success, ) = payable(msg.sender).call{value: eth_amount}(\"\") */\n      pop\n      swap1\n      pop\n        /* \"contracts/DeFi/CPAMM2.sol\":6029:6036  success */\n      dup1\n        /* \"contracts/DeFi/CPAMM2.sol\":6021:6060  require(success, \"ETH transfer failed\") */\n      tag_98\n      jumpi\n      mload(0x40)\n      0x08c379a000000000000000000000000000000000000000000000000000000000\n      dup2\n      mstore\n      0x04\n      add\n      tag_99\n      swap1\n      tag_100\n      jump\t// in\n    tag_99:\n      mload(0x40)\n      dup1\n      swap2\n      sub\n      swap1\n      revert\n    tag_98:\n        /* \"contracts/DeFi/CPAMM2.sol\":6124:6136  token_amount */\n      dup2\n        /* \"contracts/DeFi/CPAMM2.sol\":6112:6122  eth_amount */\n      dup4\n        /* \"contracts/DeFi/CPAMM2.sol\":6104:6110  amount */\n      dup6\n        /* \"contracts/DeFi/CPAMM2.sol\":6075:6137  LiquidityRemoved(msg.sender, amount, eth_amount, token_amount) */\n      0x1dc8bb69df2b8e91fbdcbfcf93d951b3f0000f085a95fe3f7946d6161439245d\n        /* \"contracts/DeFi/CPAMM2.sol\":6092:6102  msg.sender */\n      caller\n        /* \"contracts/DeFi/CPAMM2.sol\":6075:6137  LiquidityRemoved(msg.sender, amount, eth_amount, token_amount) */\n      mload(0x40)\n      tag_101\n      swap2\n      swap1\n      tag_72\n      jump\t// in\n    tag_101:\n      mload(0x40)\n      dup1\n      swap2\n      sub\n      swap1\n      log4\n        /* \"contracts/DeFi/CPAMM2.sol\":5440:6144  {... */\n      pop\n        /* \"contracts/DeFi/CPAMM2.sol\":5328:6144  function withdraw(uint256 amount)... */\n      swap2\n      pop\n      swap2\n      jump\t// out\n        /* \"contracts/DeFi/CPAMM2.sol\":3613:4445  function tokenToEth(uint256 tokenInput) public returns (uint256 ethOutput) {... */\n    tag_33:\n        /* \"contracts/DeFi/CPAMM2.sol\":3669:3686  uint256 ethOutput */\n      0x00\n        /* \"contracts/DeFi/CPAMM2.sol\":3719:3720  0 */\n      dup1\n        /* \"contracts/DeFi/CPAMM2.sol\":3706:3716  tokenInput */\n      dup3\n        /* \"contracts/DeFi/CPAMM2.sol\":3706:3720  tokenInput > 0 */\n      gt\n        /* \"contracts/DeFi/CPAMM2.sol\":3698:3741  require(tokenInput > 0, \"must send tokens\") */\n      tag_103\n      jumpi\n      mload(0x40)\n      0x08c379a000000000000000000000000000000000000000000000000000000000\n      dup2\n      mstore\n      0x04\n      add\n      tag_104\n      swap1\n      tag_105\n      jump\t// in\n    tag_104:\n      mload(0x40)\n      dup1\n      swap2\n      sub\n      swap1\n      revert\n    tag_103:\n        /* \"contracts/DeFi/CPAMM2.sol\":3786:3791  token */\n      0x00\n      dup1\n      sload\n      swap1\n      0x0100\n      exp\n      swap1\n      div\n      0xffffffffffffffffffffffffffffffffffffffff\n      and\n        /* \"contracts/DeFi/CPAMM2.sol\":3786:3801  token.balanceOf */\n      0xffffffffffffffffffffffffffffffffffffffff\n      and\n      0x70a08231\n        /* \"contracts/DeFi/CPAMM2.sol\":3802:3812  msg.sender */\n      caller\n        /* \"contracts/DeFi/CPAMM2.sol\":3786:3813  token.balanceOf(msg.sender) */\n      mload(0x40)\n      dup3\n      0xffffffff\n      and\n      0xe0\n      shl\n      dup2\n      mstore\n      0x04\n      add\n      tag_106\n      swap2\n      swap1\n      tag_72\n      jump\t// in\n    tag_106:\n      0x20\n      mload(0x40)\n      dup1\n      dup4\n      sub\n      dup2\n      dup7\n      dup1\n      extcodesize\n      iszero\n      dup1\n      iszero\n      tag_107\n      jumpi\n      0x00\n      dup1\n      revert\n    tag_107:\n      pop\n      gas\n      staticcall\n      iszero\n      dup1\n      iszero\n      tag_109\n      jumpi\n      returndatasize\n      0x00\n      dup1\n      returndatacopy\n      revert(0x00, returndatasize)\n    tag_109:\n      pop\n      pop\n      pop\n      pop\n      mload(0x40)\n      returndatasize\n      not(0x1f)\n      0x1f\n      dup3\n      add\n      and\n      dup3\n      add\n      dup1\n      0x40\n      mstore\n      pop\n      dup2\n      add\n      swap1\n      tag_110\n      swap2\n      swap1\n      tag_77\n      jump\t// in\n    tag_110:\n        /* \"contracts/DeFi/CPAMM2.sol\":3772:3782  tokenInput */\n      dup3\n        /* \"contracts/DeFi/CPAMM2.sol\":3772:3813  tokenInput <= token.balanceOf(msg.sender) */\n      gt\n      iszero\n        /* \"contracts/DeFi/CPAMM2.sol\":3751:3859  require(... */\n      tag_111\n      jumpi\n      mload(0x40)\n      0x08c379a000000000000000000000000000000000000000000000000000000000\n      dup2\n      mstore\n      0x04\n      add\n      tag_112\n      swap1\n      tag_113\n      jump\t// in\n    tag_112:\n      mload(0x40)\n      dup1\n      swap2\n      sub\n      swap1\n      revert\n    tag_111:\n        /* \"contracts/DeFi/CPAMM2.sol\":3881:3999  price(... */\n      tag_114\n        /* \"contracts/DeFi/CPAMM2.sol\":3900:3910  tokenInput */\n      dup3\n        /* \"contracts/DeFi/CPAMM2.sol\":3924:3929  token */\n      0x00\n      dup1\n      sload\n      swap1\n      0x0100\n      exp\n      swap1\n      div\n      0xffffffffffffffffffffffffffffffffffffffff\n      and\n        /* \"contracts/DeFi/CPAMM2.sol\":3924:3939  token.balanceOf */\n      0xffffffffffffffffffffffffffffffffffffffff\n      and\n      0x70a08231\n        /* \"contracts/DeFi/CPAMM2.sol\":3948:3952  this */\n      address\n        /* \"contracts/DeFi/CPAMM2.sol\":3924:3954  token.balanceOf(address(this)) */\n      mload(0x40)\n      dup3\n      0xffffffff\n      and\n      0xe0\n      shl\n      dup2\n      mstore\n      0x04\n      add\n      tag_115\n      swap2\n      swap1\n      tag_72\n      jump\t// in\n    tag_115:\n      0x20\n      mload(0x40)\n      dup1\n      dup4\n      sub\n      dup2\n      dup7\n      dup1\n      extcodesize\n      iszero\n      dup1\n      iszero\n      tag_116\n      jumpi\n      0x00\n      dup1\n      revert\n    tag_116:\n      pop\n      gas\n      staticcall\n      iszero\n      dup1\n      iszero\n      tag_118\n      jumpi\n      returndatasize\n      0x00\n      dup1\n      returndatacopy\n      revert(0x00, returndatasize)\n    tag_118:\n      pop\n      pop\n      pop\n      pop\n      mload(0x40)\n      returndatasize\n      not(0x1f)\n      0x1f\n      dup3\n      add\n      and\n      dup3\n      add\n      dup1\n      0x40\n      mstore\n      pop\n      dup2\n      add\n      swap1\n      tag_119\n      swap2\n      swap1\n      tag_77\n      jump\t// in\n    tag_119:\n        /* \"contracts/DeFi/CPAMM2.sol\":3968:3989  address(this).balance */\n      selfbalance\n        /* \"contracts/DeFi/CPAMM2.sol\":3881:3886  price */\n      tag_21\n        /* \"contracts/DeFi/CPAMM2.sol\":3881:3999  price(... */\n      jump\t// in\n    tag_114:\n        /* \"contracts/DeFi/CPAMM2.sol\":3869:3999  ethOutput = price(... */\n      swap1\n      pop\n        /* \"contracts/DeFi/CPAMM2.sol\":4029:4050  address(this).balance */\n      selfbalance\n        /* \"contracts/DeFi/CPAMM2.sol\":4017:4026  ethOutput */\n      dup2\n        /* \"contracts/DeFi/CPAMM2.sol\":4017:4050  ethOutput < address(this).balance */\n      lt\n        /* \"contracts/DeFi/CPAMM2.sol\":4009:4069  require(ethOutput < address(this).balance, \"not enough ETH\") */\n      tag_120\n      jumpi\n      mload(0x40)\n      0x08c379a000000000000000000000000000000000000000000000000000000000\n      dup2\n      mstore\n      0x04\n      add\n      tag_121\n      swap1\n      tag_122\n      jump\t// in\n    tag_121:\n      mload(0x40)\n      dup1\n      swap2\n      sub\n      swap1\n      revert\n    tag_120:\n        /* \"contracts/DeFi/CPAMM2.sol\":4100:4105  token */\n      0x00\n      dup1\n      sload\n      swap1\n      0x0100\n      exp\n      swap1\n      div\n      0xffffffffffffffffffffffffffffffffffffffff\n      and\n        /* \"contracts/DeFi/CPAMM2.sol\":4100:4118  token.transferFrom */\n      0xffffffffffffffffffffffffffffffffffffffff\n      and\n      0x23b872dd\n        /* \"contracts/DeFi/CPAMM2.sol\":4119:4129  msg.sender */\n      caller\n        /* \"contracts/DeFi/CPAMM2.sol\":4139:4143  this */\n      address\n        /* \"contracts/DeFi/CPAMM2.sol\":4146:4156  tokenInput */\n      dup6\n        /* \"contracts/DeFi/CPAMM2.sol\":4100:4157  token.transferFrom(msg.sender, address(this), tokenInput) */\n      mload(0x40)\n      dup5\n      0xffffffff\n      and\n      0xe0\n      shl\n      dup2\n      mstore\n      0x04\n      add\n      tag_123\n      swap4\n      swap3\n      swap2\n      swap1\n      tag_124\n      jump\t// in\n    tag_123:\n      0x20\n      mload(0x40)\n      dup1\n      dup4\n      sub\n      dup2\n      0x00\n      dup8\n      dup1\n      extcodesize\n      iszero\n      dup1\n      iszero\n      tag_125\n      jumpi\n      0x00\n      dup1\n      revert\n    tag_125:\n      pop\n      gas\n      call\n      iszero\n      dup1\n      iszero\n      tag_127\n      jumpi\n      returndatasize\n      0x00\n      dup1\n      returndatacopy\n      revert(0x00, returndatasize)\n    tag_127:\n      pop\n      pop\n      pop\n      pop\n      mload(0x40)\n      returndatasize\n      not(0x1f)\n      0x1f\n      dup3\n      add\n      and\n      dup3\n      add\n      dup1\n      0x40\n      mstore\n      pop\n      dup2\n      add\n      swap1\n      tag_128\n      swap2\n      swap1\n      tag_89\n      jump\t// in\n    tag_128:\n        /* \"contracts/DeFi/CPAMM2.sol\":4079:4204  require(... */\n      tag_129\n      jumpi\n      mload(0x40)\n      0x08c379a000000000000000000000000000000000000000000000000000000000\n      dup2\n      mstore\n      0x04\n      add\n      tag_130\n      swap1\n      tag_92\n      jump\t// in\n    tag_130:\n      mload(0x40)\n      dup1\n      swap2\n      sub\n      swap1\n      revert\n    tag_129:\n        /* \"contracts/DeFi/CPAMM2.sol\":4215:4227  bool success */\n      0x00\n        /* \"contracts/DeFi/CPAMM2.sol\":4241:4251  msg.sender */\n      caller\n        /* \"contracts/DeFi/CPAMM2.sol\":4233:4257  payable(msg.sender).call */\n      0xffffffffffffffffffffffffffffffffffffffff\n      and\n        /* \"contracts/DeFi/CPAMM2.sol\":4265:4274  ethOutput */\n      dup3\n        /* \"contracts/DeFi/CPAMM2.sol\":4233:4279  payable(msg.sender).call{value: ethOutput}(\"\") */\n      mload(0x40)\n      tag_131\n      swap1\n      tag_94\n      jump\t// in\n    tag_131:\n      0x00\n      mload(0x40)\n      dup1\n      dup4\n      sub\n      dup2\n      dup6\n      dup8\n      gas\n      call\n      swap3\n      pop\n      pop\n      pop\n      returndatasize\n      dup1\n      0x00\n      dup2\n      eq\n      tag_134\n      jumpi\n      mload(0x40)\n      swap2\n      pop\n      and(add(returndatasize, 0x3f), not(0x1f))\n      dup3\n      add\n      0x40\n      mstore\n      returndatasize\n      dup3\n      mstore\n      returndatasize\n      0x00\n      0x20\n      dup5\n      add\n      returndatacopy\n      jump(tag_133)\n    tag_134:\n      0x60\n      swap2\n      pop\n    tag_133:\n      pop\n        /* \"contracts/DeFi/CPAMM2.sol\":4214:4279  (bool success, ) = payable(msg.sender).call{value: ethOutput}(\"\") */\n      pop\n      swap1\n      pop\n        /* \"contracts/DeFi/CPAMM2.sol\":4297:4304  success */\n      dup1\n        /* \"contracts/DeFi/CPAMM2.sol\":4289:4328  require(success, \"ETH transfer failed\") */\n      tag_135\n      jumpi\n      mload(0x40)\n      0x08c379a000000000000000000000000000000000000000000000000000000000\n      dup2\n      mstore\n      0x04\n      add\n      tag_136\n      swap1\n      tag_100\n      jump\t// in\n    tag_136:\n      mload(0x40)\n      dup1\n      swap2\n      sub\n      swap1\n      revert\n    tag_135:\n        /* \"contracts/DeFi/CPAMM2.sol\":4418:4428  tokenInput */\n      dup3\n        /* \"contracts/DeFi/CPAMM2.sol\":4395:4404  ethOutput */\n      dup3\n        /* \"contracts/DeFi/CPAMM2.sol\":4371:4381  msg.sender */\n      caller\n        /* \"contracts/DeFi/CPAMM2.sol\":4343:4438  TokenToEthSwap(... */\n      0xffffffffffffffffffffffffffffffffffffffff\n      and\n      0x472303b1e7ca7d00fb77f255c0a8c577f9ca4264c0306aaed3ff18e831523a6d\n      mload(0x40)\n      mload(0x40)\n      dup1\n      swap2\n      sub\n      swap1\n      log4\n        /* \"contracts/DeFi/CPAMM2.sol\":3688:4445  {... */\n      pop\n        /* \"contracts/DeFi/CPAMM2.sol\":3613:4445  function tokenToEth(uint256 tokenInput) public returns (uint256 ethOutput) {... */\n      swap2\n      swap1\n      pop\n      jump\t// out\n        /* \"contracts/DeFi/CPAMM2.sol\":2951:3535  function ethToToken() public payable returns (uint256 tokenOutput) {... */\n    tag_36:\n        /* \"contracts/DeFi/CPAMM2.sol\":2997:3016  uint256 tokenOutput */\n      0x00\n        /* \"contracts/DeFi/CPAMM2.sol\":3048:3049  0 */\n      dup1\n        /* \"contracts/DeFi/CPAMM2.sol\":3036:3045  msg.value */\n      callvalue\n        /* \"contracts/DeFi/CPAMM2.sol\":3036:3049  msg.value > 0 */\n      gt\n        /* \"contracts/DeFi/CPAMM2.sol\":3028:3067  require(msg.value > 0, \"must send ETH\") */\n      tag_138\n      jumpi\n      mload(0x40)\n      0x08c379a000000000000000000000000000000000000000000000000000000000\n      dup2\n      mstore\n      0x04\n      add\n      tag_139\n      swap1\n      tag_140\n      jump\t// in\n    tag_139:\n      mload(0x40)\n      dup1\n      swap2\n      sub\n      swap1\n      revert\n    tag_138:\n        /* \"contracts/DeFi/CPAMM2.sol\":3091:3222  price(... */\n      tag_141\n        /* \"contracts/DeFi/CPAMM2.sol\":3110:3119  msg.value */\n      callvalue\n        /* \"contracts/DeFi/CPAMM2.sol\":3158:3167  msg.value */\n      callvalue\n        /* \"contracts/DeFi/CPAMM2.sol\":3134:3155  address(this).balance */\n      selfbalance\n        /* \"contracts/DeFi/CPAMM2.sol\":3134:3167  address(this).balance - msg.value */\n      tag_142\n      swap2\n      swap1\n      tag_81\n      jump\t// in\n    tag_142:\n        /* \"contracts/DeFi/CPAMM2.sol\":3182:3187  token */\n      0x00\n      dup1\n      sload\n      swap1\n      0x0100\n      exp\n      swap1\n      div\n      0xffffffffffffffffffffffffffffffffffffffff\n      and\n        /* \"contracts/DeFi/CPAMM2.sol\":3182:3197  token.balanceOf */\n      0xffffffffffffffffffffffffffffffffffffffff\n      and\n      0x70a08231\n        /* \"contracts/DeFi/CPAMM2.sol\":3206:3210  this */\n      address\n        /* \"contracts/DeFi/CPAMM2.sol\":3182:3212  token.balanceOf(address(this)) */\n      mload(0x40)\n      dup3\n      0xffffffff\n      and\n      0xe0\n      shl\n      dup2\n      mstore\n      0x04\n      add\n      tag_143\n      swap2\n      swap1\n      tag_72\n      jump\t// in\n    tag_143:\n      0x20\n      mload(0x40)\n      dup1\n      dup4\n      sub\n      dup2\n      dup7\n      dup1\n      extcodesize\n      iszero\n      dup1\n      iszero\n      tag_144\n      jumpi\n      0x00\n      dup1\n      revert\n    tag_144:\n      pop\n      gas\n      staticcall\n      iszero\n      dup1\n      iszero\n      tag_146\n      jumpi\n      returndatasize\n      0x00\n      dup1\n      returndatacopy\n      revert(0x00, returndatasize)\n    tag_146:\n      pop\n      pop\n      pop\n      pop\n      mload(0x40)\n      returndatasize\n      not(0x1f)\n      0x1f\n      dup3\n      add\n      and\n      dup3\n      add\n      dup1\n      0x40\n      mstore\n      pop\n      dup2\n      add\n      swap1\n      tag_147\n      swap2\n      swap1\n      tag_77\n      jump\t// in\n    tag_147:\n        /* \"contracts/DeFi/CPAMM2.sol\":3091:3096  price */\n      tag_21\n        /* \"contracts/DeFi/CPAMM2.sol\":3091:3222  price(... */\n      jump\t// in\n    tag_141:\n        /* \"contracts/DeFi/CPAMM2.sol\":3077:3222  tokenOutput = price(... */\n      swap1\n      pop\n        /* \"contracts/DeFi/CPAMM2.sol\":3267:3272  token */\n      0x00\n      dup1\n      sload\n      swap1\n      0x0100\n      exp\n      swap1\n      div\n      0xffffffffffffffffffffffffffffffffffffffff\n      and\n        /* \"contracts/DeFi/CPAMM2.sol\":3267:3282  token.balanceOf */\n      0xffffffffffffffffffffffffffffffffffffffff\n      and\n      0x70a08231\n        /* \"contracts/DeFi/CPAMM2.sol\":3291:3295  this */\n      address\n        /* \"contracts/DeFi/CPAMM2.sol\":3267:3297  token.balanceOf(address(this)) */\n      mload(0x40)\n      dup3\n      0xffffffff\n      and\n      0xe0\n      shl\n      dup2\n      mstore\n      0x04\n      add\n      tag_148\n      swap2\n      swap1\n      tag_72\n      jump\t// in\n    tag_148:\n      0x20\n      mload(0x40)\n      dup1\n      dup4\n      sub\n      dup2\n      dup7\n      dup1\n      extcodesize\n      iszero\n      dup1\n      iszero\n      tag_149\n      jumpi\n      0x00\n      dup1\n      revert\n    tag_149:\n      pop\n      gas\n      staticcall\n      iszero\n      dup1\n      iszero\n      tag_151\n      jumpi\n      returndatasize\n      0x00\n      dup1\n      returndatacopy\n      revert(0x00, returndatasize)\n    tag_151:\n      pop\n      pop\n      pop\n      pop\n      mload(0x40)\n      returndatasize\n      not(0x1f)\n      0x1f\n      dup3\n      add\n      and\n      dup3\n      add\n      dup1\n      0x40\n      mstore\n      pop\n      dup2\n      add\n      swap1\n      tag_152\n      swap2\n      swap1\n      tag_77\n      jump\t// in\n    tag_152:\n        /* \"contracts/DeFi/CPAMM2.sol\":3253:3264  tokenOutput */\n      dup2\n        /* \"contracts/DeFi/CPAMM2.sol\":3253:3297  tokenOutput < token.balanceOf(address(this)) */\n      lt\n        /* \"contracts/DeFi/CPAMM2.sol\":3232:3340  require(... */\n      tag_153\n      jumpi\n      mload(0x40)\n      0x08c379a000000000000000000000000000000000000000000000000000000000\n      dup2\n      mstore\n      0x04\n      add\n      tag_154\n      swap1\n      tag_155\n      jump\t// in\n    tag_154:\n      mload(0x40)\n      dup1\n      swap2\n      sub\n      swap1\n      revert\n    tag_153:\n        /* \"contracts/DeFi/CPAMM2.sol\":3358:3363  token */\n      0x00\n      dup1\n      sload\n      swap1\n      0x0100\n      exp\n      swap1\n      div\n      0xffffffffffffffffffffffffffffffffffffffff\n      and\n        /* \"contracts/DeFi/CPAMM2.sol\":3358:3372  token.transfer */\n      0xffffffffffffffffffffffffffffffffffffffff\n      and\n      0xa9059cbb\n        /* \"contracts/DeFi/CPAMM2.sol\":3373:3383  msg.sender */\n      caller\n        /* \"contracts/DeFi/CPAMM2.sol\":3385:3396  tokenOutput */\n      dup4\n        /* \"contracts/DeFi/CPAMM2.sol\":3358:3397  token.transfer(msg.sender, tokenOutput) */\n      mload(0x40)\n      dup4\n      0xffffffff\n      and\n      0xe0\n      shl\n      dup2\n      mstore\n      0x04\n      add\n      tag_156\n      swap3\n      swap2\n      swap1\n      tag_84\n      jump\t// in\n    tag_156:\n      0x20\n      mload(0x40)\n      dup1\n      dup4\n      sub\n      dup2\n      0x00\n      dup8\n      dup1\n      extcodesize\n      iszero\n      dup1\n      iszero\n      tag_157\n      jumpi\n      0x00\n      dup1\n      revert\n    tag_157:\n      pop\n      gas\n      call\n      iszero\n      dup1\n      iszero\n      tag_159\n      jumpi\n      returndatasize\n      0x00\n      dup1\n      returndatacopy\n      revert(0x00, returndatasize)\n    tag_159:\n      pop\n      pop\n      pop\n      pop\n      mload(0x40)\n      returndatasize\n      not(0x1f)\n      0x1f\n      dup3\n      add\n      and\n      dup3\n      add\n      dup1\n      0x40\n      mstore\n      pop\n      dup2\n      add\n      swap1\n      tag_160\n      swap2\n      swap1\n      tag_89\n      jump\t// in\n    tag_160:\n        /* \"contracts/DeFi/CPAMM2.sol\":3350:3417  require(token.transfer(msg.sender, tokenOutput), \"transfer failed\") */\n      tag_161\n      jumpi\n      mload(0x40)\n      0x08c379a000000000000000000000000000000000000000000000000000000000\n      dup2\n      mstore\n      0x04\n      add\n      tag_162\n      swap1\n      tag_163\n      jump\t// in\n    tag_162:\n      mload(0x40)\n      dup1\n      swap2\n      sub\n      swap1\n      revert\n    tag_161:\n        /* \"contracts/DeFi/CPAMM2.sol\":3507:3518  tokenOutput */\n      dup1\n        /* \"contracts/DeFi/CPAMM2.sol\":3484:3493  msg.value */\n      callvalue\n        /* \"contracts/DeFi/CPAMM2.sol\":3460:3470  msg.sender */\n      caller\n        /* \"contracts/DeFi/CPAMM2.sol\":3432:3528  EthToTokenSwap(... */\n      0xffffffffffffffffffffffffffffffffffffffff\n      and\n      0x6d4870e9281c01ea54a4420c8684ac713b77f0c590b40c4b1fbf4c6ba892ccea\n      mload(0x40)\n      mload(0x40)\n      dup1\n      swap2\n      sub\n      swap1\n      log4\n        /* \"contracts/DeFi/CPAMM2.sol\":2951:3535  function ethToToken() public payable returns (uint256 tokenOutput) {... */\n      swap1\n      jump\t// out\n        /* \"contracts/DeFi/CPAMM2.sol\":2772:2873  function getLiquidity(address lp) public view returns (uint256) {... */\n    tag_42:\n        /* \"contracts/DeFi/CPAMM2.sol\":2827:2834  uint256 */\n      0x00\n        /* \"contracts/DeFi/CPAMM2.sol\":2853:2862  liquidity */\n      0x02\n        /* \"contracts/DeFi/CPAMM2.sol\":2853:2866  liquidity[lp] */\n      0x00\n        /* \"contracts/DeFi/CPAMM2.sol\":2863:2865  lp */\n      dup4\n        /* \"contracts/DeFi/CPAMM2.sol\":2853:2866  liquidity[lp] */\n      0xffffffffffffffffffffffffffffffffffffffff\n      and\n      0xffffffffffffffffffffffffffffffffffffffff\n      and\n      dup2\n      mstore\n      0x20\n      add\n      swap1\n      dup2\n      mstore\n      0x20\n      add\n      0x00\n      keccak256\n      sload\n        /* \"contracts/DeFi/CPAMM2.sol\":2846:2866  return liquidity[lp] */\n      swap1\n      pop\n        /* \"contracts/DeFi/CPAMM2.sol\":2772:2873  function getLiquidity(address lp) public view returns (uint256) {... */\n      swap2\n      swap1\n      pop\n      jump\t// out\n        /* \"contracts/DeFi/CPAMM2.sol\":1792:2268  function init(uint256 tokens) public payable returns (uint256) {... */\n    tag_46:\n        /* \"contracts/DeFi/CPAMM2.sol\":1846:1853  uint256 */\n      0x00\n        /* \"contracts/DeFi/CPAMM2.sol\":1885:1886  0 */\n      dup1\n        /* \"contracts/DeFi/CPAMM2.sol\":1873:1882  msg.value */\n      callvalue\n        /* \"contracts/DeFi/CPAMM2.sol\":1873:1886  msg.value > 0 */\n      gt\n        /* \"contracts/DeFi/CPAMM2.sol\":1865:1907  require(msg.value > 0, \"need to send ETH\") */\n      tag_166\n      jumpi\n      mload(0x40)\n      0x08c379a000000000000000000000000000000000000000000000000000000000\n      dup2\n      mstore\n      0x04\n      add\n      tag_167\n      swap1\n      tag_168\n      jump\t// in\n    tag_167:\n      mload(0x40)\n      dup1\n      swap2\n      sub\n      swap1\n      revert\n    tag_166:\n        /* \"contracts/DeFi/CPAMM2.sol\":1938:1944  tokens */\n      dup2\n        /* \"contracts/DeFi/CPAMM2.sol\":1925:1934  msg.value */\n      callvalue\n        /* \"contracts/DeFi/CPAMM2.sol\":1925:1944  msg.value == tokens */\n      eq\n        /* \"contracts/DeFi/CPAMM2.sol\":1917:1973  require(msg.value == tokens, \"incorrect exchange value\") */\n      tag_169\n      jumpi\n      mload(0x40)\n      0x08c379a000000000000000000000000000000000000000000000000000000000\n      dup2\n      mstore\n      0x04\n      add\n      tag_170\n      swap1\n      tag_171\n      jump\t// in\n    tag_170:\n      mload(0x40)\n      dup1\n      swap2\n      sub\n      swap1\n      revert\n    tag_169:\n        /* \"contracts/DeFi/CPAMM2.sol\":2009:2010  0 */\n      0x00\n        /* \"contracts/DeFi/CPAMM2.sol\":1991:2005  totalLiquidity */\n      sload(0x01)\n        /* \"contracts/DeFi/CPAMM2.sol\":1991:2010  totalLiquidity == 0 */\n      eq\n        /* \"contracts/DeFi/CPAMM2.sol\":1983:2038  require(totalLiquidity == 0, \"DEX already initialized\") */\n      tag_172\n      jumpi\n      mload(0x40)\n      0x08c379a000000000000000000000000000000000000000000000000000000000\n      dup2\n      mstore\n      0x04\n      add\n      tag_173\n      swap1\n      tag_174\n      jump\t// in\n    tag_173:\n      mload(0x40)\n      dup1\n      swap2\n      sub\n      swap1\n      revert\n    tag_172:\n        /* \"contracts/DeFi/CPAMM2.sol\":2069:2074  token */\n      0x00\n      dup1\n      sload\n      swap1\n      0x0100\n      exp\n      swap1\n      div\n      0xffffffffffffffffffffffffffffffffffffffff\n      and\n        /* \"contracts/DeFi/CPAMM2.sol\":2069:2087  token.transferFrom */\n      0xffffffffffffffffffffffffffffffffffffffff\n      and\n      0x23b872dd\n        /* \"contracts/DeFi/CPAMM2.sol\":2088:2098  msg.sender */\n      caller\n        /* \"contracts/DeFi/CPAMM2.sol\":2108:2112  this */\n      address\n        /* \"contracts/DeFi/CPAMM2.sol\":2115:2121  tokens */\n      dup6\n        /* \"contracts/DeFi/CPAMM2.sol\":2069:2122  token.transferFrom(msg.sender, address(this), tokens) */\n      mload(0x40)\n      dup5\n      0xffffffff\n      and\n      0xe0\n      shl\n      dup2\n      mstore\n      0x04\n      add\n      tag_175\n      swap4\n      swap3\n      swap2\n      swap1\n      tag_124\n      jump\t// in\n    tag_175:\n      0x20\n      mload(0x40)\n      dup1\n      dup4\n      sub\n      dup2\n      0x00\n      dup8\n      dup1\n      extcodesize\n      iszero\n      dup1\n      iszero\n      tag_176\n      jumpi\n      0x00\n      dup1\n      revert\n    tag_176:\n      pop\n      gas\n      call\n      iszero\n      dup1\n      iszero\n      tag_178\n      jumpi\n      returndatasize\n      0x00\n      dup1\n      returndatacopy\n      revert(0x00, returndatasize)\n    tag_178:\n      pop\n      pop\n      pop\n      pop\n      mload(0x40)\n      returndatasize\n      not(0x1f)\n      0x1f\n      dup3\n      add\n      and\n      dup3\n      add\n      dup1\n      0x40\n      mstore\n      pop\n      dup2\n      add\n      swap1\n      tag_179\n      swap2\n      swap1\n      tag_89\n      jump\t// in\n    tag_179:\n        /* \"contracts/DeFi/CPAMM2.sol\":2048:2163  require(... */\n      tag_180\n      jumpi\n      mload(0x40)\n      0x08c379a000000000000000000000000000000000000000000000000000000000\n      dup2\n      mstore\n      0x04\n      add\n      tag_181\n      swap1\n      tag_163\n      jump\t// in\n    tag_181:\n      mload(0x40)\n      dup1\n      swap2\n      sub\n      swap1\n      revert\n    tag_180:\n        /* \"contracts/DeFi/CPAMM2.sol\":2197:2206  msg.value */\n      callvalue\n        /* \"contracts/DeFi/CPAMM2.sol\":2173:2182  liquidity */\n      0x02\n        /* \"contracts/DeFi/CPAMM2.sol\":2173:2194  liquidity[msg.sender] */\n      0x00\n        /* \"contracts/DeFi/CPAMM2.sol\":2183:2193  msg.sender */\n      caller\n        /* \"contracts/DeFi/CPAMM2.sol\":2173:2194  liquidity[msg.sender] */\n      0xffffffffffffffffffffffffffffffffffffffff\n      and\n      0xffffffffffffffffffffffffffffffffffffffff\n      and\n      dup2\n      mstore\n      0x20\n      add\n      swap1\n      dup2\n      mstore\n      0x20\n      add\n      0x00\n      keccak256\n        /* \"contracts/DeFi/CPAMM2.sol\":2173:2206  liquidity[msg.sender] = msg.value */\n      dup2\n      swap1\n      sstore\n      pop\n        /* \"contracts/DeFi/CPAMM2.sol\":2240:2261  address(this).balance */\n      selfbalance\n        /* \"contracts/DeFi/CPAMM2.sol\":2223:2237  totalLiquidity */\n      0x01\n        /* \"contracts/DeFi/CPAMM2.sol\":2223:2261  totalLiquidity = address(this).balance */\n      dup2\n      swap1\n      sstore\n        /* \"contracts/DeFi/CPAMM2.sol\":2216:2261  return totalLiquidity = address(this).balance */\n      swap1\n      pop\n        /* \"contracts/DeFi/CPAMM2.sol\":1792:2268  function init(uint256 tokens) public payable returns (uint256) {... */\n      swap2\n      swap1\n      pop\n      jump\t// out\n        /* \"contracts/DeFi/CPAMM2.sol\":376:420  mapping(address => uint256) public liquidity */\n    tag_51:\n      mstore(0x20, 0x02)\n      dup1\n      0x00\n      mstore\n      keccak256(0x00, 0x40)\n      0x00\n      swap2\n      pop\n      swap1\n      pop\n      sload\n      dup2\n      jump\t// out\n        /* \"contracts/DeFi/CPAMM2.sol\":4533:5235  function deposit() public payable returns (uint256 tokensDeposited) {... */\n    tag_54:\n        /* \"contracts/DeFi/CPAMM2.sol\":4576:4599  uint256 tokensDeposited */\n      0x00\n        /* \"contracts/DeFi/CPAMM2.sol\":4631:4632  0 */\n      dup1\n        /* \"contracts/DeFi/CPAMM2.sol\":4619:4628  msg.value */\n      callvalue\n        /* \"contracts/DeFi/CPAMM2.sol\":4619:4632  msg.value > 0 */\n      gt\n        /* \"contracts/DeFi/CPAMM2.sol\":4611:4659  require(msg.value > 0, \"need to send liquidity\") */\n      tag_183\n      jumpi\n      mload(0x40)\n      0x08c379a000000000000000000000000000000000000000000000000000000000\n      dup2\n      mstore\n      0x04\n      add\n      tag_184\n      swap1\n      tag_185\n      jump\t// in\n    tag_184:\n      mload(0x40)\n      dup1\n      swap2\n      sub\n      swap1\n      revert\n    tag_183:\n        /* \"contracts/DeFi/CPAMM2.sol\":4669:4679  uint256 dy */\n      0x00\n        /* \"contracts/DeFi/CPAMM2.sol\":4682:4691  msg.value */\n      callvalue\n        /* \"contracts/DeFi/CPAMM2.sol\":4669:4691  uint256 dy = msg.value */\n      swap1\n      pop\n        /* \"contracts/DeFi/CPAMM2.sol\":4701:4710  uint256 x */\n      0x00\n        /* \"contracts/DeFi/CPAMM2.sol\":4713:4718  token */\n      dup1\n      0x00\n      swap1\n      sload\n      swap1\n      0x0100\n      exp\n      swap1\n      div\n      0xffffffffffffffffffffffffffffffffffffffff\n      and\n        /* \"contracts/DeFi/CPAMM2.sol\":4713:4728  token.balanceOf */\n      0xffffffffffffffffffffffffffffffffffffffff\n      and\n      0x70a08231\n        /* \"contracts/DeFi/CPAMM2.sol\":4737:4741  this */\n      address\n        /* \"contracts/DeFi/CPAMM2.sol\":4713:4743  token.balanceOf(address(this)) */\n      mload(0x40)\n      dup3\n      0xffffffff\n      and\n      0xe0\n      shl\n      dup2\n      mstore\n      0x04\n      add\n      tag_186\n      swap2\n      swap1\n      tag_72\n      jump\t// in\n    tag_186:\n      0x20\n      mload(0x40)\n      dup1\n      dup4\n      sub\n      dup2\n      dup7\n      dup1\n      extcodesize\n      iszero\n      dup1\n      iszero\n      tag_187\n      jumpi\n      0x00\n      dup1\n      revert\n    tag_187:\n      pop\n      gas\n      staticcall\n      iszero\n      dup1\n      iszero\n      tag_189\n      jumpi\n      returndatasize\n      0x00\n      dup1\n      returndatacopy\n      revert(0x00, returndatasize)\n    tag_189:\n      pop\n      pop\n      pop\n      pop\n      mload(0x40)\n      returndatasize\n      not(0x1f)\n      0x1f\n      dup3\n      add\n      and\n      dup3\n      add\n      dup1\n      0x40\n      mstore\n      pop\n      dup2\n      add\n      swap1\n      tag_190\n      swap2\n      swap1\n      tag_77\n      jump\t// in\n    tag_190:\n        /* \"contracts/DeFi/CPAMM2.sol\":4701:4743  uint256 x = token.balanceOf(address(this)) */\n      swap1\n      pop\n        /* \"contracts/DeFi/CPAMM2.sol\":4771:4780  uint256 y */\n      0x00\n        /* \"contracts/DeFi/CPAMM2.sol\":4807:4816  msg.value */\n      callvalue\n        /* \"contracts/DeFi/CPAMM2.sol\":4783:4804  address(this).balance */\n      selfbalance\n        /* \"contracts/DeFi/CPAMM2.sol\":4783:4816  address(this).balance - msg.value */\n      tag_191\n      swap2\n      swap1\n      tag_81\n      jump\t// in\n    tag_191:\n        /* \"contracts/DeFi/CPAMM2.sol\":4771:4816  uint256 y = address(this).balance - msg.value */\n      swap1\n      pop\n        /* \"contracts/DeFi/CPAMM2.sol\":4877:4879  dy */\n      dup3\n        /* \"contracts/DeFi/CPAMM2.sol\":4873:4874  y */\n      dup2\n        /* \"contracts/DeFi/CPAMM2.sol\":4873:4879  y + dy */\n      tag_192\n      swap2\n      swap1\n      tag_63\n      jump\t// in\n    tag_192:\n        /* \"contracts/DeFi/CPAMM2.sol\":4867:4868  x */\n      dup3\n        /* \"contracts/DeFi/CPAMM2.sol\":4862:4864  dy */\n      dup5\n        /* \"contracts/DeFi/CPAMM2.sol\":4862:4868  dy * x */\n      tag_193\n      swap2\n      swap1\n      tag_58\n      jump\t// in\n    tag_193:\n        /* \"contracts/DeFi/CPAMM2.sol\":4861:4880  (dy * x) / (y + dy) */\n      tag_194\n      swap2\n      swap1\n      tag_60\n      jump\t// in\n    tag_194:\n        /* \"contracts/DeFi/CPAMM2.sol\":4842:4881  tokensDeposited = ((dy * x) / (y + dy)) */\n      swap4\n      pop\n        /* \"contracts/DeFi/CPAMM2.sol\":4891:4905  uint256 shares */\n      0x00\n        /* \"contracts/DeFi/CPAMM2.sol\":4932:4933  y */\n      dup2\n        /* \"contracts/DeFi/CPAMM2.sol\":4914:4928  totalLiquidity */\n      sload(0x01)\n        /* \"contracts/DeFi/CPAMM2.sol\":4909:4911  dy */\n      dup6\n        /* \"contracts/DeFi/CPAMM2.sol\":4909:4928  dy * totalLiquidity */\n      tag_195\n      swap2\n      swap1\n      tag_58\n      jump\t// in\n    tag_195:\n        /* \"contracts/DeFi/CPAMM2.sol\":4908:4933  (dy * totalLiquidity) / y */\n      tag_196\n      swap2\n      swap1\n      tag_60\n      jump\t// in\n    tag_196:\n        /* \"contracts/DeFi/CPAMM2.sol\":4891:4933  uint256 shares = (dy * totalLiquidity) / y */\n      swap1\n      pop\n        /* \"contracts/DeFi/CPAMM2.sol\":4968:4974  shares */\n      dup1\n        /* \"contracts/DeFi/CPAMM2.sol\":4943:4952  liquidity */\n      0x02\n        /* \"contracts/DeFi/CPAMM2.sol\":4943:4964  liquidity[msg.sender] */\n      0x00\n        /* \"contracts/DeFi/CPAMM2.sol\":4953:4963  msg.sender */\n      caller\n        /* \"contracts/DeFi/CPAMM2.sol\":4943:4964  liquidity[msg.sender] */\n      0xffffffffffffffffffffffffffffffffffffffff\n      and\n      0xffffffffffffffffffffffffffffffffffffffff\n      and\n      dup2\n      mstore\n      0x20\n      add\n      swap1\n      dup2\n      mstore\n      0x20\n      add\n      0x00\n      keccak256\n      0x00\n        /* \"contracts/DeFi/CPAMM2.sol\":4943:4974  liquidity[msg.sender] += shares */\n      dup3\n      dup3\n      sload\n      tag_197\n      swap2\n      swap1\n      tag_63\n      jump\t// in\n    tag_197:\n      swap3\n      pop\n      pop\n      dup2\n      swap1\n      sstore\n      pop\n        /* \"contracts/DeFi/CPAMM2.sol\":5002:5008  shares */\n      dup1\n        /* \"contracts/DeFi/CPAMM2.sol\":4984:4998  totalLiquidity */\n      0x01\n      0x00\n        /* \"contracts/DeFi/CPAMM2.sol\":4984:5008  totalLiquidity += shares */\n      dup3\n      dup3\n      sload\n      tag_198\n      swap2\n      swap1\n      tag_63\n      jump\t// in\n    tag_198:\n      swap3\n      pop\n      pop\n      dup2\n      swap1\n      sstore\n      pop\n        /* \"contracts/DeFi/CPAMM2.sol\":5039:5044  token */\n      0x00\n      dup1\n      sload\n      swap1\n      0x0100\n      exp\n      swap1\n      div\n      0xffffffffffffffffffffffffffffffffffffffff\n      and\n        /* \"contracts/DeFi/CPAMM2.sol\":5039:5057  token.transferFrom */\n      0xffffffffffffffffffffffffffffffffffffffff\n      and\n      0x23b872dd\n        /* \"contracts/DeFi/CPAMM2.sol\":5058:5068  msg.sender */\n      caller\n        /* \"contracts/DeFi/CPAMM2.sol\":5078:5082  this */\n      address\n        /* \"contracts/DeFi/CPAMM2.sol\":5085:5100  tokensDeposited */\n      dup9\n        /* \"contracts/DeFi/CPAMM2.sol\":5039:5101  token.transferFrom(msg.sender, address(this), tokensDeposited) */\n      mload(0x40)\n      dup5\n      0xffffffff\n      and\n      0xe0\n      shl\n      dup2\n      mstore\n      0x04\n      add\n      tag_199\n      swap4\n      swap3\n      swap2\n      swap1\n      tag_124\n      jump\t// in\n    tag_199:\n      0x20\n      mload(0x40)\n      dup1\n      dup4\n      sub\n      dup2\n      0x00\n      dup8\n      dup1\n      extcodesize\n      iszero\n      dup1\n      iszero\n      tag_200\n      jumpi\n      0x00\n      dup1\n      revert\n    tag_200:\n      pop\n      gas\n      call\n      iszero\n      dup1\n      iszero\n      tag_202\n      jumpi\n      returndatasize\n      0x00\n      dup1\n      returndatacopy\n      revert(0x00, returndatasize)\n    tag_202:\n      pop\n      pop\n      pop\n      pop\n      mload(0x40)\n      returndatasize\n      not(0x1f)\n      0x1f\n      dup3\n      add\n      and\n      dup3\n      add\n      dup1\n      0x40\n      mstore\n      pop\n      dup2\n      add\n      swap1\n      tag_203\n      swap2\n      swap1\n      tag_89\n      jump\t// in\n    tag_203:\n        /* \"contracts/DeFi/CPAMM2.sol\":5018:5148  require(... */\n      tag_204\n      jumpi\n      mload(0x40)\n      0x08c379a000000000000000000000000000000000000000000000000000000000\n      dup2\n      mstore\n      0x04\n      add\n      tag_205\n      swap1\n      tag_92\n      jump\t// in\n    tag_205:\n      mload(0x40)\n      dup1\n      swap2\n      sub\n      swap1\n      revert\n    tag_204:\n        /* \"contracts/DeFi/CPAMM2.sol\":5212:5227  tokensDeposited */\n      dup5\n        /* \"contracts/DeFi/CPAMM2.sol\":5201:5210  msg.value */\n      callvalue\n        /* \"contracts/DeFi/CPAMM2.sol\":5193:5199  shares */\n      dup3\n        /* \"contracts/DeFi/CPAMM2.sol\":5163:5228  LiquidityProvided(msg.sender, shares, msg.value, tokensDeposited) */\n      0x3bca7014f4c0ccc8016338c79f4c00e82068dbadaf4f01ca5449040fdd39f500\n        /* \"contracts/DeFi/CPAMM2.sol\":5181:5191  msg.sender */\n      caller\n        /* \"contracts/DeFi/CPAMM2.sol\":5163:5228  LiquidityProvided(msg.sender, shares, msg.value, tokensDeposited) */\n      mload(0x40)\n      tag_206\n      swap2\n      swap1\n      tag_72\n      jump\t// in\n    tag_206:\n      mload(0x40)\n      dup1\n      swap2\n      sub\n      swap1\n      log4\n        /* \"contracts/DeFi/CPAMM2.sol\":4601:5235  {... */\n      pop\n      pop\n      pop\n      pop\n        /* \"contracts/DeFi/CPAMM2.sol\":4533:5235  function deposit() public payable returns (uint256 tokensDeposited) {... */\n      swap1\n      jump\t// out\n        /* \"#utility.yul\":7:146   */\n    tag_208:\n        /* \"#utility.yul\":53:58   */\n      0x00\n        /* \"#utility.yul\":91:97   */\n      dup2\n        /* \"#utility.yul\":78:98   */\n      calldataload\n        /* \"#utility.yul\":69:98   */\n      swap1\n      pop\n        /* \"#utility.yul\":107:140   */\n      tag_210\n        /* \"#utility.yul\":134:139   */\n      dup2\n        /* \"#utility.yul\":107:140   */\n      tag_211\n      jump\t// in\n    tag_210:\n        /* \"#utility.yul\":7:146   */\n      swap3\n      swap2\n      pop\n      pop\n      jump\t// out\n        /* \"#utility.yul\":152:289   */\n    tag_212:\n        /* \"#utility.yul\":206:211   */\n      0x00\n        /* \"#utility.yul\":237:243   */\n      dup2\n        /* \"#utility.yul\":231:244   */\n      mload\n        /* \"#utility.yul\":222:244   */\n      swap1\n      pop\n        /* \"#utility.yul\":253:283   */\n      tag_214\n        /* \"#utility.yul\":277:282   */\n      dup2\n        /* \"#utility.yul\":253:283   */\n      tag_215\n      jump\t// in\n    tag_214:\n        /* \"#utility.yul\":152:289   */\n      swap3\n      swap2\n      pop\n      pop\n      jump\t// out\n        /* \"#utility.yul\":295:434   */\n    tag_216:\n        /* \"#utility.yul\":341:346   */\n      0x00\n        /* \"#utility.yul\":379:385   */\n      dup2\n        /* \"#utility.yul\":366:386   */\n      calldataload\n        /* \"#utility.yul\":357:386   */\n      swap1\n      pop\n        /* \"#utility.yul\":395:428   */\n      tag_218\n        /* \"#utility.yul\":422:427   */\n      dup2\n        /* \"#utility.yul\":395:428   */\n      tag_219\n      jump\t// in\n    tag_218:\n        /* \"#utility.yul\":295:434   */\n      swap3\n      swap2\n      pop\n      pop\n      jump\t// out\n        /* \"#utility.yul\":440:583   */\n    tag_220:\n        /* \"#utility.yul\":497:502   */\n      0x00\n        /* \"#utility.yul\":528:534   */\n      dup2\n        /* \"#utility.yul\":522:535   */\n      mload\n        /* \"#utility.yul\":513:535   */\n      swap1\n      pop\n        /* \"#utility.yul\":544:577   */\n      tag_222\n        /* \"#utility.yul\":571:576   */\n      dup2\n        /* \"#utility.yul\":544:577   */\n      tag_219\n      jump\t// in\n    tag_222:\n        /* \"#utility.yul\":440:583   */\n      swap3\n      swap2\n      pop\n      pop\n      jump\t// out\n        /* \"#utility.yul\":589:918   */\n    tag_41:\n        /* \"#utility.yul\":648:654   */\n      0x00\n        /* \"#utility.yul\":697:699   */\n      0x20\n        /* \"#utility.yul\":685:694   */\n      dup3\n        /* \"#utility.yul\":676:683   */\n      dup5\n        /* \"#utility.yul\":672:695   */\n      sub\n        /* \"#utility.yul\":668:700   */\n      slt\n        /* \"#utility.yul\":665:784   */\n      iszero\n      tag_224\n      jumpi\n        /* \"#utility.yul\":703:782   */\n      tag_225\n      tag_226\n      jump\t// in\n    tag_225:\n        /* \"#utility.yul\":665:784   */\n    tag_224:\n        /* \"#utility.yul\":823:824   */\n      0x00\n        /* \"#utility.yul\":848:901   */\n      tag_227\n        /* \"#utility.yul\":893:900   */\n      dup5\n        /* \"#utility.yul\":884:890   */\n      dup3\n        /* \"#utility.yul\":873:882   */\n      dup6\n        /* \"#utility.yul\":869:891   */\n      add\n        /* \"#utility.yul\":848:901   */\n      tag_208\n      jump\t// in\n    tag_227:\n        /* \"#utility.yul\":838:901   */\n      swap2\n      pop\n        /* \"#utility.yul\":794:911   */\n      pop\n        /* \"#utility.yul\":589:918   */\n      swap3\n      swap2\n      pop\n      pop\n      jump\t// out\n        /* \"#utility.yul\":924:1269   */\n    tag_89:\n        /* \"#utility.yul\":991:997   */\n      0x00\n        /* \"#utility.yul\":1040:1042   */\n      0x20\n        /* \"#utility.yul\":1028:1037   */\n      dup3\n        /* \"#utility.yul\":1019:1026   */\n      dup5\n        /* \"#utility.yul\":1015:1038   */\n      sub\n        /* \"#utility.yul\":1011:1043   */\n      slt\n        /* \"#utility.yul\":1008:1127   */\n      iszero\n      tag_229\n      jumpi\n        /* \"#utility.yul\":1046:1125   */\n      tag_230\n      tag_226\n      jump\t// in\n    tag_230:\n        /* \"#utility.yul\":1008:1127   */\n    tag_229:\n        /* \"#utility.yul\":1166:1167   */\n      0x00\n        /* \"#utility.yul\":1191:1252   */\n      tag_231\n        /* \"#utility.yul\":1244:1251   */\n      dup5\n        /* \"#utility.yul\":1235:1241   */\n      dup3\n        /* \"#utility.yul\":1224:1233   */\n      dup6\n        /* \"#utility.yul\":1220:1242   */\n      add\n        /* \"#utility.yul\":1191:1252   */\n      tag_212\n      jump\t// in\n    tag_231:\n        /* \"#utility.yul\":1181:1252   */\n      swap2\n      pop\n        /* \"#utility.yul\":1137:1262   */\n      pop\n        /* \"#utility.yul\":924:1269   */\n      swap3\n      swap2\n      pop\n      pop\n      jump\t// out\n        /* \"#utility.yul\":1275:1604   */\n    tag_26:\n        /* \"#utility.yul\":1334:1340   */\n      0x00\n        /* \"#utility.yul\":1383:1385   */\n      0x20\n        /* \"#utility.yul\":1371:1380   */\n      dup3\n        /* \"#utility.yul\":1362:1369   */\n      dup5\n        /* \"#utility.yul\":1358:1381   */\n      sub\n        /* \"#utility.yul\":1354:1386   */\n      slt\n        /* \"#utility.yul\":1351:1470   */\n      iszero\n      tag_233\n      jumpi\n        /* \"#utility.yul\":1389:1468   */\n      tag_234\n      tag_226\n      jump\t// in\n    tag_234:\n        /* \"#utility.yul\":1351:1470   */\n    tag_233:\n        /* \"#utility.yul\":1509:1510   */\n      0x00\n        /* \"#utility.yul\":1534:1587   */\n      tag_235\n        /* \"#utility.yul\":1579:1586   */\n      dup5\n        /* \"#utility.yul\":1570:1576   */\n      dup3\n        /* \"#utility.yul\":1559:1568   */\n      dup6\n        /* \"#utility.yul\":1555:1577   */\n      add\n        /* \"#utility.yul\":1534:1587   */\n      tag_216\n      jump\t// in\n    tag_235:\n        /* \"#utility.yul\":1524:1587   */\n      swap2\n      pop\n        /* \"#utility.yul\":1480:1597   */\n      pop\n        /* \"#utility.yul\":1275:1604   */\n      swap3\n      swap2\n      pop\n      pop\n      jump\t// out\n        /* \"#utility.yul\":1610:1961   */\n    tag_77:\n        /* \"#utility.yul\":1680:1686   */\n      0x00\n        /* \"#utility.yul\":1729:1731   */\n      0x20\n        /* \"#utility.yul\":1717:1726   */\n      dup3\n        /* \"#utility.yul\":1708:1715   */\n      dup5\n        /* \"#utility.yul\":1704:1727   */\n      sub\n        /* \"#utility.yul\":1700:1732   */\n      slt\n        /* \"#utility.yul\":1697:1816   */\n      iszero\n      tag_237\n      jumpi\n        /* \"#utility.yul\":1735:1814   */\n      tag_238\n      tag_226\n      jump\t// in\n    tag_238:\n        /* \"#utility.yul\":1697:1816   */\n    tag_237:\n        /* \"#utility.yul\":1855:1856   */\n      0x00\n        /* \"#utility.yul\":1880:1944   */\n      tag_239\n        /* \"#utility.yul\":1936:1943   */\n      dup5\n        /* \"#utility.yul\":1927:1933   */\n      dup3\n        /* \"#utility.yul\":1916:1925   */\n      dup6\n        /* \"#utility.yul\":1912:1934   */\n      add\n        /* \"#utility.yul\":1880:1944   */\n      tag_220\n      jump\t// in\n    tag_239:\n        /* \"#utility.yul\":1870:1944   */\n      swap2\n      pop\n        /* \"#utility.yul\":1826:1954   */\n      pop\n        /* \"#utility.yul\":1610:1961   */\n      swap3\n      swap2\n      pop\n      pop\n      jump\t// out\n        /* \"#utility.yul\":1967:2586   */\n    tag_20:\n        /* \"#utility.yul\":2044:2050   */\n      0x00\n        /* \"#utility.yul\":2052:2058   */\n      dup1\n        /* \"#utility.yul\":2060:2066   */\n      0x00\n        /* \"#utility.yul\":2109:2111   */\n      0x60\n        /* \"#utility.yul\":2097:2106   */\n      dup5\n        /* \"#utility.yul\":2088:2095   */\n      dup7\n        /* \"#utility.yul\":2084:2107   */\n      sub\n        /* \"#utility.yul\":2080:2112   */\n      slt\n        /* \"#utility.yul\":2077:2196   */\n      iszero\n      tag_241\n      jumpi\n        /* \"#utility.yul\":2115:2194   */\n      tag_242\n      tag_226\n      jump\t// in\n    tag_242:\n        /* \"#utility.yul\":2077:2196   */\n    tag_241:\n        /* \"#utility.yul\":2235:2236   */\n      0x00\n        /* \"#utility.yul\":2260:2313   */\n      tag_243\n        /* \"#utility.yul\":2305:2312   */\n      dup7\n        /* \"#utility.yul\":2296:2302   */\n      dup3\n        /* \"#utility.yul\":2285:2294   */\n      dup8\n        /* \"#utility.yul\":2281:2303   */\n      add\n        /* \"#utility.yul\":2260:2313   */\n      tag_216\n      jump\t// in\n    tag_243:\n        /* \"#utility.yul\":2250:2313   */\n      swap4\n      pop\n        /* \"#utility.yul\":2206:2323   */\n      pop\n        /* \"#utility.yul\":2362:2364   */\n      0x20\n        /* \"#utility.yul\":2388:2441   */\n      tag_244\n        /* \"#utility.yul\":2433:2440   */\n      dup7\n        /* \"#utility.yul\":2424:2430   */\n      dup3\n        /* \"#utility.yul\":2413:2422   */\n      dup8\n        /* \"#utility.yul\":2409:2431   */\n      add\n        /* \"#utility.yul\":2388:2441   */\n      tag_216\n      jump\t// in\n    tag_244:\n        /* \"#utility.yul\":2378:2441   */\n      swap3\n      pop\n        /* \"#utility.yul\":2333:2451   */\n      pop\n        /* \"#utility.yul\":2490:2492   */\n      0x40\n        /* \"#utility.yul\":2516:2569   */\n      tag_245\n        /* \"#utility.yul\":2561:2568   */\n      dup7\n        /* \"#utility.yul\":2552:2558   */\n      dup3\n        /* \"#utility.yul\":2541:2550   */\n      dup8\n        /* \"#utility.yul\":2537:2559   */\n      add\n        /* \"#utility.yul\":2516:2569   */\n      tag_216\n      jump\t// in\n    tag_245:\n        /* \"#utility.yul\":2506:2569   */\n      swap2\n      pop\n        /* \"#utility.yul\":2461:2579   */\n      pop\n        /* \"#utility.yul\":1967:2586   */\n      swap3\n      pop\n      swap3\n      pop\n      swap3\n      jump\t// out\n        /* \"#utility.yul\":2592:2710   */\n    tag_246:\n        /* \"#utility.yul\":2679:2703   */\n      tag_248\n        /* \"#utility.yul\":2697:2702   */\n      dup2\n        /* \"#utility.yul\":2679:2703   */\n      tag_249\n      jump\t// in\n    tag_248:\n        /* \"#utility.yul\":2674:2677   */\n      dup3\n        /* \"#utility.yul\":2667:2704   */\n      mstore\n        /* \"#utility.yul\":2592:2710   */\n      pop\n      pop\n      jump\t// out\n        /* \"#utility.yul\":2716:3082   */\n    tag_250:\n        /* \"#utility.yul\":2858:2861   */\n      0x00\n        /* \"#utility.yul\":2879:2946   */\n      tag_252\n        /* \"#utility.yul\":2943:2945   */\n      0x11\n        /* \"#utility.yul\":2938:2941   */\n      dup4\n        /* \"#utility.yul\":2879:2946   */\n      tag_253\n      jump\t// in\n    tag_252:\n        /* \"#utility.yul\":2872:2946   */\n      swap2\n      pop\n        /* \"#utility.yul\":2955:3048   */\n      tag_254\n        /* \"#utility.yul\":3044:3047   */\n      dup3\n        /* \"#utility.yul\":2955:3048   */\n      tag_255\n      jump\t// in\n    tag_254:\n        /* \"#utility.yul\":3073:3075   */\n      0x20\n        /* \"#utility.yul\":3068:3071   */\n      dup3\n        /* \"#utility.yul\":3064:3076   */\n      add\n        /* \"#utility.yul\":3057:3076   */\n      swap1\n      pop\n        /* \"#utility.yul\":2716:3082   */\n      swap2\n      swap1\n      pop\n      jump\t// out\n        /* \"#utility.yul\":3088:3454   */\n    tag_256:\n        /* \"#utility.yul\":3230:3233   */\n      0x00\n        /* \"#utility.yul\":3251:3318   */\n      tag_258\n        /* \"#utility.yul\":3315:3317   */\n      0x16\n        /* \"#utility.yul\":3310:3313   */\n      dup4\n        /* \"#utility.yul\":3251:3318   */\n      tag_253\n      jump\t// in\n    tag_258:\n        /* \"#utility.yul\":3244:3318   */\n      swap2\n      pop\n        /* \"#utility.yul\":3327:3420   */\n      tag_259\n        /* \"#utility.yul\":3416:3419   */\n      dup3\n        /* \"#utility.yul\":3327:3420   */\n      tag_260\n      jump\t// in\n    tag_259:\n        /* \"#utility.yul\":3445:3447   */\n      0x20\n        /* \"#utility.yul\":3440:3443   */\n      dup3\n        /* \"#utility.yul\":3436:3448   */\n      add\n        /* \"#utility.yul\":3429:3448   */\n      swap1\n      pop\n        /* \"#utility.yul\":3088:3454   */\n      swap2\n      swap1\n      pop\n      jump\t// out\n        /* \"#utility.yul\":3460:3826   */\n    tag_261:\n        /* \"#utility.yul\":3602:3605   */\n      0x00\n        /* \"#utility.yul\":3623:3690   */\n      tag_263\n        /* \"#utility.yul\":3687:3689   */\n      0x14\n        /* \"#utility.yul\":3682:3685   */\n      dup4\n        /* \"#utility.yul\":3623:3690   */\n      tag_253\n      jump\t// in\n    tag_263:\n        /* \"#utility.yul\":3616:3690   */\n      swap2\n      pop\n        /* \"#utility.yul\":3699:3792   */\n      tag_264\n        /* \"#utility.yul\":3788:3791   */\n      dup3\n        /* \"#utility.yul\":3699:3792   */\n      tag_265\n      jump\t// in\n    tag_264:\n        /* \"#utility.yul\":3817:3819   */\n      0x20\n        /* \"#utility.yul\":3812:3815   */\n      dup3\n        /* \"#utility.yul\":3808:3820   */\n      add\n        /* \"#utility.yul\":3801:3820   */\n      swap1\n      pop\n        /* \"#utility.yul\":3460:3826   */\n      swap2\n      swap1\n      pop\n      jump\t// out\n        /* \"#utility.yul\":3832:4198   */\n    tag_266:\n        /* \"#utility.yul\":3974:3977   */\n      0x00\n        /* \"#utility.yul\":3995:4062   */\n      tag_268\n        /* \"#utility.yul\":4059:4061   */\n      0x17\n        /* \"#utility.yul\":4054:4057   */\n      dup4\n        /* \"#utility.yul\":3995:4062   */\n      tag_253\n      jump\t// in\n    tag_268:\n        /* \"#utility.yul\":3988:4062   */\n      swap2\n      pop\n        /* \"#utility.yul\":4071:4164   */\n      tag_269\n        /* \"#utility.yul\":4160:4163   */\n      dup3\n        /* \"#utility.yul\":4071:4164   */\n      tag_270\n      jump\t// in\n    tag_269:\n        /* \"#utility.yul\":4189:4191   */\n      0x20\n        /* \"#utility.yul\":4184:4187   */\n      dup3\n        /* \"#utility.yul\":4180:4192   */\n      add\n        /* \"#utility.yul\":4173:4192   */\n      swap1\n      pop\n        /* \"#utility.yul\":3832:4198   */\n      swap2\n      swap1\n      pop\n      jump\t// out\n        /* \"#utility.yul\":4204:4570   */\n    tag_271:\n        /* \"#utility.yul\":4346:4349   */\n      0x00\n        /* \"#utility.yul\":4367:4434   */\n      tag_273\n        /* \"#utility.yul\":4431:4433   */\n      0x0d\n        /* \"#utility.yul\":4426:4429   */\n      dup4\n        /* \"#utility.yul\":4367:4434   */\n      tag_253\n      jump\t// in\n    tag_273:\n        /* \"#utility.yul\":4360:4434   */\n      swap2\n      pop\n        /* \"#utility.yul\":4443:4536   */\n      tag_274\n        /* \"#utility.yul\":4532:4535   */\n      dup3\n        /* \"#utility.yul\":4443:4536   */\n      tag_275\n      jump\t// in\n    tag_274:\n        /* \"#utility.yul\":4561:4563   */\n      0x20\n        /* \"#utility.yul\":4556:4559   */\n      dup3\n        /* \"#utility.yul\":4552:4564   */\n      add\n        /* \"#utility.yul\":4545:4564   */\n      swap1\n      pop\n        /* \"#utility.yul\":4204:4570   */\n      swap2\n      swap1\n      pop\n      jump\t// out\n        /* \"#utility.yul\":4576:4942   */\n    tag_276:\n        /* \"#utility.yul\":4718:4721   */\n      0x00\n        /* \"#utility.yul\":4739:4806   */\n      tag_278\n        /* \"#utility.yul\":4803:4805   */\n      0x0e\n        /* \"#utility.yul\":4798:4801   */\n      dup4\n        /* \"#utility.yul\":4739:4806   */\n      tag_253\n      jump\t// in\n    tag_278:\n        /* \"#utility.yul\":4732:4806   */\n      swap2\n      pop\n        /* \"#utility.yul\":4815:4908   */\n      tag_279\n        /* \"#utility.yul\":4904:4907   */\n      dup3\n        /* \"#utility.yul\":4815:4908   */\n      tag_280\n      jump\t// in\n    tag_279:\n        /* \"#utility.yul\":4933:4935   */\n      0x20\n        /* \"#utility.yul\":4928:4931   */\n      dup3\n        /* \"#utility.yul\":4924:4936   */\n      add\n        /* \"#utility.yul\":4917:4936   */\n      swap1\n      pop\n        /* \"#utility.yul\":4576:4942   */\n      swap2\n      swap1\n      pop\n      jump\t// out\n        /* \"#utility.yul\":4948:5314   */\n    tag_281:\n        /* \"#utility.yul\":5090:5093   */\n      0x00\n        /* \"#utility.yul\":5111:5178   */\n      tag_283\n        /* \"#utility.yul\":5175:5177   */\n      0x15\n        /* \"#utility.yul\":5170:5173   */\n      dup4\n        /* \"#utility.yul\":5111:5178   */\n      tag_253\n      jump\t// in\n    tag_283:\n        /* \"#utility.yul\":5104:5178   */\n      swap2\n      pop\n        /* \"#utility.yul\":5187:5280   */\n      tag_284\n        /* \"#utility.yul\":5276:5279   */\n      dup3\n        /* \"#utility.yul\":5187:5280   */\n      tag_285\n      jump\t// in\n    tag_284:\n        /* \"#utility.yul\":5305:5307   */\n      0x20\n        /* \"#utility.yul\":5300:5303   */\n      dup3\n        /* \"#utility.yul\":5296:5308   */\n      add\n        /* \"#utility.yul\":5289:5308   */\n      swap1\n      pop\n        /* \"#utility.yul\":4948:5314   */\n      swap2\n      swap1\n      pop\n      jump\t// out\n        /* \"#utility.yul\":5320:5686   */\n    tag_286:\n        /* \"#utility.yul\":5462:5465   */\n      0x00\n        /* \"#utility.yul\":5483:5550   */\n      tag_288\n        /* \"#utility.yul\":5547:5549   */\n      0x11\n        /* \"#utility.yul\":5542:5545   */\n      dup4\n        /* \"#utility.yul\":5483:5550   */\n      tag_253\n      jump\t// in\n    tag_288:\n        /* \"#utility.yul\":5476:5550   */\n      swap2\n      pop\n        /* \"#utility.yul\":5559:5652   */\n      tag_289\n        /* \"#utility.yul\":5648:5651   */\n      dup3\n        /* \"#utility.yul\":5559:5652   */\n      tag_290\n      jump\t// in\n    tag_289:\n        /* \"#utility.yul\":5677:5679   */\n      0x20\n        /* \"#utility.yul\":5672:5675   */\n      dup3\n        /* \"#utility.yul\":5668:5680   */\n      add\n        /* \"#utility.yul\":5661:5680   */\n      swap1\n      pop\n        /* \"#utility.yul\":5320:5686   */\n      swap2\n      swap1\n      pop\n      jump\t// out\n        /* \"#utility.yul\":5692:6058   */\n    tag_291:\n        /* \"#utility.yul\":5834:5837   */\n      0x00\n        /* \"#utility.yul\":5855:5922   */\n      tag_293\n        /* \"#utility.yul\":5919:5921   */\n      0x18\n        /* \"#utility.yul\":5914:5917   */\n      dup4\n        /* \"#utility.yul\":5855:5922   */\n      tag_253\n      jump\t// in\n    tag_293:\n        /* \"#utility.yul\":5848:5922   */\n      swap2\n      pop\n        /* \"#utility.yul\":5931:6024   */\n      tag_294\n        /* \"#utility.yul\":6020:6023   */\n      dup3\n        /* \"#utility.yul\":5931:6024   */\n      tag_295\n      jump\t// in\n    tag_294:\n        /* \"#utility.yul\":6049:6051   */\n      0x20\n        /* \"#utility.yul\":6044:6047   */\n      dup3\n        /* \"#utility.yul\":6040:6052   */\n      add\n        /* \"#utility.yul\":6033:6052   */\n      swap1\n      pop\n        /* \"#utility.yul\":5692:6058   */\n      swap2\n      swap1\n      pop\n      jump\t// out\n        /* \"#utility.yul\":6064:6430   */\n    tag_296:\n        /* \"#utility.yul\":6206:6209   */\n      0x00\n        /* \"#utility.yul\":6227:6294   */\n      tag_298\n        /* \"#utility.yul\":6291:6293   */\n      0x10\n        /* \"#utility.yul\":6286:6289   */\n      dup4\n        /* \"#utility.yul\":6227:6294   */\n      tag_253\n      jump\t// in\n    tag_298:\n        /* \"#utility.yul\":6220:6294   */\n      swap2\n      pop\n        /* \"#utility.yul\":6303:6396   */\n      tag_299\n        /* \"#utility.yul\":6392:6395   */\n      dup3\n        /* \"#utility.yul\":6303:6396   */\n      tag_300\n      jump\t// in\n    tag_299:\n        /* \"#utility.yul\":6421:6423   */\n      0x20\n        /* \"#utility.yul\":6416:6419   */\n      dup3\n        /* \"#utility.yul\":6412:6424   */\n      add\n        /* \"#utility.yul\":6405:6424   */\n      swap1\n      pop\n        /* \"#utility.yul\":6064:6430   */\n      swap2\n      swap1\n      pop\n      jump\t// out\n        /* \"#utility.yul\":6436:6834   */\n    tag_301:\n        /* \"#utility.yul\":6595:6598   */\n      0x00\n        /* \"#utility.yul\":6616:6699   */\n      tag_303\n        /* \"#utility.yul\":6697:6698   */\n      0x00\n        /* \"#utility.yul\":6692:6695   */\n      dup4\n        /* \"#utility.yul\":6616:6699   */\n      tag_304\n      jump\t// in\n    tag_303:\n        /* \"#utility.yul\":6609:6699   */\n      swap2\n      pop\n        /* \"#utility.yul\":6708:6801   */\n      tag_305\n        /* \"#utility.yul\":6797:6800   */\n      dup3\n        /* \"#utility.yul\":6708:6801   */\n      tag_306\n      jump\t// in\n    tag_305:\n        /* \"#utility.yul\":6826:6827   */\n      0x00\n        /* \"#utility.yul\":6821:6824   */\n      dup3\n        /* \"#utility.yul\":6817:6828   */\n      add\n        /* \"#utility.yul\":6810:6828   */\n      swap1\n      pop\n        /* \"#utility.yul\":6436:6834   */\n      swap2\n      swap1\n      pop\n      jump\t// out\n        /* \"#utility.yul\":6840:7206   */\n    tag_307:\n        /* \"#utility.yul\":6982:6985   */\n      0x00\n        /* \"#utility.yul\":7003:7070   */\n      tag_309\n        /* \"#utility.yul\":7067:7069   */\n      0x13\n        /* \"#utility.yul\":7062:7065   */\n      dup4\n        /* \"#utility.yul\":7003:7070   */\n      tag_253\n      jump\t// in\n    tag_309:\n        /* \"#utility.yul\":6996:7070   */\n      swap2\n      pop\n        /* \"#utility.yul\":7079:7172   */\n      tag_310\n        /* \"#utility.yul\":7168:7171   */\n      dup3\n        /* \"#utility.yul\":7079:7172   */\n      tag_311\n      jump\t// in\n    tag_310:\n        /* \"#utility.yul\":7197:7199   */\n      0x20\n        /* \"#utility.yul\":7192:7195   */\n      dup3\n        /* \"#utility.yul\":7188:7200   */\n      add\n        /* \"#utility.yul\":7181:7200   */\n      swap1\n      pop\n        /* \"#utility.yul\":6840:7206   */\n      swap2\n      swap1\n      pop\n      jump\t// out\n        /* \"#utility.yul\":7212:7578   */\n    tag_312:\n        /* \"#utility.yul\":7354:7357   */\n      0x00\n        /* \"#utility.yul\":7375:7442   */\n      tag_314\n        /* \"#utility.yul\":7439:7441   */\n      0x0f\n        /* \"#utility.yul\":7434:7437   */\n      dup4\n        /* \"#utility.yul\":7375:7442   */\n      tag_253\n      jump\t// in\n    tag_314:\n        /* \"#utility.yul\":7368:7442   */\n      swap2\n      pop\n        /* \"#utility.yul\":7451:7544   */\n      tag_315\n        /* \"#utility.yul\":7540:7543   */\n      dup3\n        /* \"#utility.yul\":7451:7544   */\n      tag_316\n      jump\t// in\n    tag_315:\n        /* \"#utility.yul\":7569:7571   */\n      0x20\n        /* \"#utility.yul\":7564:7567   */\n      dup3\n        /* \"#utility.yul\":7560:7572   */\n      add\n        /* \"#utility.yul\":7553:7572   */\n      swap1\n      pop\n        /* \"#utility.yul\":7212:7578   */\n      swap2\n      swap1\n      pop\n      jump\t// out\n        /* \"#utility.yul\":7584:7950   */\n    tag_317:\n        /* \"#utility.yul\":7726:7729   */\n      0x00\n        /* \"#utility.yul\":7747:7814   */\n      tag_319\n        /* \"#utility.yul\":7811:7813   */\n      0x10\n        /* \"#utility.yul\":7806:7809   */\n      dup4\n        /* \"#utility.yul\":7747:7814   */\n      tag_253\n      jump\t// in\n    tag_319:\n        /* \"#utility.yul\":7740:7814   */\n      swap2\n      pop\n        /* \"#utility.yul\":7823:7916   */\n      tag_320\n        /* \"#utility.yul\":7912:7915   */\n      dup3\n        /* \"#utility.yul\":7823:7916   */\n      tag_321\n      jump\t// in\n    tag_320:\n        /* \"#utility.yul\":7941:7943   */\n      0x20\n        /* \"#utility.yul\":7936:7939   */\n      dup3\n        /* \"#utility.yul\":7932:7944   */\n      add\n        /* \"#utility.yul\":7925:7944   */\n      swap1\n      pop\n        /* \"#utility.yul\":7584:7950   */\n      swap2\n      swap1\n      pop\n      jump\t// out\n        /* \"#utility.yul\":7956:8074   */\n    tag_322:\n        /* \"#utility.yul\":8043:8067   */\n      tag_324\n        /* \"#utility.yul\":8061:8066   */\n      dup2\n        /* \"#utility.yul\":8043:8067   */\n      tag_325\n      jump\t// in\n    tag_324:\n        /* \"#utility.yul\":8038:8041   */\n      dup3\n        /* \"#utility.yul\":8031:8068   */\n      mstore\n        /* \"#utility.yul\":7956:8074   */\n      pop\n      pop\n      jump\t// out\n        /* \"#utility.yul\":8080:8459   */\n    tag_94:\n        /* \"#utility.yul\":8264:8267   */\n      0x00\n        /* \"#utility.yul\":8286:8433   */\n      tag_327\n        /* \"#utility.yul\":8429:8432   */\n      dup3\n        /* \"#utility.yul\":8286:8433   */\n      tag_301\n      jump\t// in\n    tag_327:\n        /* \"#utility.yul\":8279:8433   */\n      swap2\n      pop\n        /* \"#utility.yul\":8450:8453   */\n      dup2\n        /* \"#utility.yul\":8443:8453   */\n      swap1\n      pop\n        /* \"#utility.yul\":8080:8459   */\n      swap2\n      swap1\n      pop\n      jump\t// out\n        /* \"#utility.yul\":8465:8687   */\n    tag_72:\n        /* \"#utility.yul\":8558:8562   */\n      0x00\n        /* \"#utility.yul\":8596:8598   */\n      0x20\n        /* \"#utility.yul\":8585:8594   */\n      dup3\n        /* \"#utility.yul\":8581:8599   */\n      add\n        /* \"#utility.yul\":8573:8599   */\n      swap1\n      pop\n        /* \"#utility.yul\":8609:8680   */\n      tag_329\n        /* \"#utility.yul\":8677:8678   */\n      0x00\n        /* \"#utility.yul\":8666:8675   */\n      dup4\n        /* \"#utility.yul\":8662:8679   */\n      add\n        /* \"#utility.yul\":8653:8659   */\n      dup5\n        /* \"#utility.yul\":8609:8680   */\n      tag_246\n      jump\t// in\n    tag_329:\n        /* \"#utility.yul\":8465:8687   */\n      swap3\n      swap2\n      pop\n      pop\n      jump\t// out\n        /* \"#utility.yul\":8693:9135   */\n    tag_124:\n        /* \"#utility.yul\":8842:8846   */\n      0x00\n        /* \"#utility.yul\":8880:8882   */\n      0x60\n        /* \"#utility.yul\":8869:8878   */\n      dup3\n        /* \"#utility.yul\":8865:8883   */\n      add\n        /* \"#utility.yul\":8857:8883   */\n      swap1\n      pop\n        /* \"#utility.yul\":8893:8964   */\n      tag_331\n        /* \"#utility.yul\":8961:8962   */\n      0x00\n        /* \"#utility.yul\":8950:8959   */\n      dup4\n        /* \"#utility.yul\":8946:8963   */\n      add\n        /* \"#utility.yul\":8937:8943   */\n      dup7\n        /* \"#utility.yul\":8893:8964   */\n      tag_246\n      jump\t// in\n    tag_331:\n        /* \"#utility.yul\":8974:9046   */\n      tag_332\n        /* \"#utility.yul\":9042:9044   */\n      0x20\n        /* \"#utility.yul\":9031:9040   */\n      dup4\n        /* \"#utility.yul\":9027:9045   */\n      add\n        /* \"#utility.yul\":9018:9024   */\n      dup6\n        /* \"#utility.yul\":8974:9046   */\n      tag_246\n      jump\t// in\n    tag_332:\n        /* \"#utility.yul\":9056:9128   */\n      tag_333\n        /* \"#utility.yul\":9124:9126   */\n      0x40\n        /* \"#utility.yul\":9113:9122   */\n      dup4\n        /* \"#utility.yul\":9109:9127   */\n      add\n        /* \"#utility.yul\":9100:9106   */\n      dup5\n        /* \"#utility.yul\":9056:9128   */\n      tag_322\n      jump\t// in\n    tag_333:\n        /* \"#utility.yul\":8693:9135   */\n      swap5\n      swap4\n      pop\n      pop\n      pop\n      pop\n      jump\t// out\n        /* \"#utility.yul\":9141:9473   */\n    tag_84:\n        /* \"#utility.yul\":9262:9266   */\n      0x00\n        /* \"#utility.yul\":9300:9302   */\n      0x40\n        /* \"#utility.yul\":9289:9298   */\n      dup3\n        /* \"#utility.yul\":9285:9303   */\n      add\n        /* \"#utility.yul\":9277:9303   */\n      swap1\n      pop\n        /* \"#utility.yul\":9313:9384   */\n      tag_335\n        /* \"#utility.yul\":9381:9382   */\n      0x00\n        /* \"#utility.yul\":9370:9379   */\n      dup4\n        /* \"#utility.yul\":9366:9383   */\n      add\n        /* \"#utility.yul\":9357:9363   */\n      dup6\n        /* \"#utility.yul\":9313:9384   */\n      tag_246\n      jump\t// in\n    tag_335:\n        /* \"#utility.yul\":9394:9466   */\n      tag_336\n        /* \"#utility.yul\":9462:9464   */\n      0x20\n        /* \"#utility.yul\":9451:9460   */\n      dup4\n        /* \"#utility.yul\":9447:9465   */\n      add\n        /* \"#utility.yul\":9438:9444   */\n      dup5\n        /* \"#utility.yul\":9394:9466   */\n      tag_322\n      jump\t// in\n    tag_336:\n        /* \"#utility.yul\":9141:9473   */\n      swap4\n      swap3\n      pop\n      pop\n      pop\n      jump\t// out\n        /* \"#utility.yul\":9479:9898   */\n    tag_68:\n        /* \"#utility.yul\":9645:9649   */\n      0x00\n        /* \"#utility.yul\":9683:9685   */\n      0x20\n        /* \"#utility.yul\":9672:9681   */\n      dup3\n        /* \"#utility.yul\":9668:9686   */\n      add\n        /* \"#utility.yul\":9660:9686   */\n      swap1\n      pop\n        /* \"#utility.yul\":9732:9741   */\n      dup2\n        /* \"#utility.yul\":9726:9730   */\n      dup2\n        /* \"#utility.yul\":9722:9742   */\n      sub\n        /* \"#utility.yul\":9718:9719   */\n      0x00\n        /* \"#utility.yul\":9707:9716   */\n      dup4\n        /* \"#utility.yul\":9703:9720   */\n      add\n        /* \"#utility.yul\":9696:9743   */\n      mstore\n        /* \"#utility.yul\":9760:9891   */\n      tag_338\n        /* \"#utility.yul\":9886:9890   */\n      dup2\n        /* \"#utility.yul\":9760:9891   */\n      tag_250\n      jump\t// in\n    tag_338:\n        /* \"#utility.yul\":9752:9891   */\n      swap1\n      pop\n        /* \"#utility.yul\":9479:9898   */\n      swap2\n      swap1\n      pop\n      jump\t// out\n        /* \"#utility.yul\":9904:10323   */\n    tag_185:\n        /* \"#utility.yul\":10070:10074   */\n      0x00\n        /* \"#utility.yul\":10108:10110   */\n      0x20\n        /* \"#utility.yul\":10097:10106   */\n      dup3\n        /* \"#utility.yul\":10093:10111   */\n      add\n        /* \"#utility.yul\":10085:10111   */\n      swap1\n      pop\n        /* \"#utility.yul\":10157:10166   */\n      dup2\n        /* \"#utility.yul\":10151:10155   */\n      dup2\n        /* \"#utility.yul\":10147:10167   */\n      sub\n        /* \"#utility.yul\":10143:10144   */\n      0x00\n        /* \"#utility.yul\":10132:10141   */\n      dup4\n        /* \"#utility.yul\":10128:10145   */\n      add\n        /* \"#utility.yul\":10121:10168   */\n      mstore\n        /* \"#utility.yul\":10185:10316   */\n      tag_340\n        /* \"#utility.yul\":10311:10315   */\n      dup2\n        /* \"#utility.yul\":10185:10316   */\n      tag_256\n      jump\t// in\n    tag_340:\n        /* \"#utility.yul\":10177:10316   */\n      swap1\n      pop\n        /* \"#utility.yul\":9904:10323   */\n      swap2\n      swap1\n      pop\n      jump\t// out\n        /* \"#utility.yul\":10329:10748   */\n    tag_113:\n        /* \"#utility.yul\":10495:10499   */\n      0x00\n        /* \"#utility.yul\":10533:10535   */\n      0x20\n        /* \"#utility.yul\":10522:10531   */\n      dup3\n        /* \"#utility.yul\":10518:10536   */\n      add\n        /* \"#utility.yul\":10510:10536   */\n      swap1\n      pop\n        /* \"#utility.yul\":10582:10591   */\n      dup2\n        /* \"#utility.yul\":10576:10580   */\n      dup2\n        /* \"#utility.yul\":10572:10592   */\n      sub\n        /* \"#utility.yul\":10568:10569   */\n      0x00\n        /* \"#utility.yul\":10557:10566   */\n      dup4\n        /* \"#utility.yul\":10553:10570   */\n      add\n        /* \"#utility.yul\":10546:10593   */\n      mstore\n        /* \"#utility.yul\":10610:10741   */\n      tag_342\n        /* \"#utility.yul\":10736:10740   */\n      dup2\n        /* \"#utility.yul\":10610:10741   */\n      tag_261\n      jump\t// in\n    tag_342:\n        /* \"#utility.yul\":10602:10741   */\n      swap1\n      pop\n        /* \"#utility.yul\":10329:10748   */\n      swap2\n      swap1\n      pop\n      jump\t// out\n        /* \"#utility.yul\":10754:11173   */\n    tag_174:\n        /* \"#utility.yul\":10920:10924   */\n      0x00\n        /* \"#utility.yul\":10958:10960   */\n      0x20\n        /* \"#utility.yul\":10947:10956   */\n      dup3\n        /* \"#utility.yul\":10943:10961   */\n      add\n        /* \"#utility.yul\":10935:10961   */\n      swap1\n      pop\n        /* \"#utility.yul\":11007:11016   */\n      dup2\n        /* \"#utility.yul\":11001:11005   */\n      dup2\n        /* \"#utility.yul\":10997:11017   */\n      sub\n        /* \"#utility.yul\":10993:10994   */\n      0x00\n        /* \"#utility.yul\":10982:10991   */\n      dup4\n        /* \"#utility.yul\":10978:10995   */\n      add\n        /* \"#utility.yul\":10971:11018   */\n      mstore\n        /* \"#utility.yul\":11035:11166   */\n      tag_344\n        /* \"#utility.yul\":11161:11165   */\n      dup2\n        /* \"#utility.yul\":11035:11166   */\n      tag_266\n      jump\t// in\n    tag_344:\n        /* \"#utility.yul\":11027:11166   */\n      swap1\n      pop\n        /* \"#utility.yul\":10754:11173   */\n      swap2\n      swap1\n      pop\n      jump\t// out\n        /* \"#utility.yul\":11179:11598   */\n    tag_140:\n        /* \"#utility.yul\":11345:11349   */\n      0x00\n        /* \"#utility.yul\":11383:11385   */\n      0x20\n        /* \"#utility.yul\":11372:11381   */\n      dup3\n        /* \"#utility.yul\":11368:11386   */\n      add\n        /* \"#utility.yul\":11360:11386   */\n      swap1\n      pop\n        /* \"#utility.yul\":11432:11441   */\n      dup2\n        /* \"#utility.yul\":11426:11430   */\n      dup2\n        /* \"#utility.yul\":11422:11442   */\n      sub\n        /* \"#utility.yul\":11418:11419   */\n      0x00\n        /* \"#utility.yul\":11407:11416   */\n      dup4\n        /* \"#utility.yul\":11403:11420   */\n      add\n        /* \"#utility.yul\":11396:11443   */\n      mstore\n        /* \"#utility.yul\":11460:11591   */\n      tag_346\n        /* \"#utility.yul\":11586:11590   */\n      dup2\n        /* \"#utility.yul\":11460:11591   */\n      tag_271\n      jump\t// in\n    tag_346:\n        /* \"#utility.yul\":11452:11591   */\n      swap1\n      pop\n        /* \"#utility.yul\":11179:11598   */\n      swap2\n      swap1\n      pop\n      jump\t// out\n        /* \"#utility.yul\":11604:12023   */\n    tag_122:\n        /* \"#utility.yul\":11770:11774   */\n      0x00\n        /* \"#utility.yul\":11808:11810   */\n      0x20\n        /* \"#utility.yul\":11797:11806   */\n      dup3\n        /* \"#utility.yul\":11793:11811   */\n      add\n        /* \"#utility.yul\":11785:11811   */\n      swap1\n      pop\n        /* \"#utility.yul\":11857:11866   */\n      dup2\n        /* \"#utility.yul\":11851:11855   */\n      dup2\n        /* \"#utility.yul\":11847:11867   */\n      sub\n        /* \"#utility.yul\":11843:11844   */\n      0x00\n        /* \"#utility.yul\":11832:11841   */\n      dup4\n        /* \"#utility.yul\":11828:11845   */\n      add\n        /* \"#utility.yul\":11821:11868   */\n      mstore\n        /* \"#utility.yul\":11885:12016   */\n      tag_348\n        /* \"#utility.yul\":12011:12015   */\n      dup2\n        /* \"#utility.yul\":11885:12016   */\n      tag_276\n      jump\t// in\n    tag_348:\n        /* \"#utility.yul\":11877:12016   */\n      swap1\n      pop\n        /* \"#utility.yul\":11604:12023   */\n      swap2\n      swap1\n      pop\n      jump\t// out\n        /* \"#utility.yul\":12029:12448   */\n    tag_92:\n        /* \"#utility.yul\":12195:12199   */\n      0x00\n        /* \"#utility.yul\":12233:12235   */\n      0x20\n        /* \"#utility.yul\":12222:12231   */\n      dup3\n        /* \"#utility.yul\":12218:12236   */\n      add\n        /* \"#utility.yul\":12210:12236   */\n      swap1\n      pop\n        /* \"#utility.yul\":12282:12291   */\n      dup2\n        /* \"#utility.yul\":12276:12280   */\n      dup2\n        /* \"#utility.yul\":12272:12292   */\n      sub\n        /* \"#utility.yul\":12268:12269   */\n      0x00\n        /* \"#utility.yul\":12257:12266   */\n      dup4\n        /* \"#utility.yul\":12253:12270   */\n      add\n        /* \"#utility.yul\":12246:12293   */\n      mstore\n        /* \"#utility.yul\":12310:12441   */\n      tag_350\n        /* \"#utility.yul\":12436:12440   */\n      dup2\n        /* \"#utility.yul\":12310:12441   */\n      tag_281\n      jump\t// in\n    tag_350:\n        /* \"#utility.yul\":12302:12441   */\n      swap1\n      pop\n        /* \"#utility.yul\":12029:12448   */\n      swap2\n      swap1\n      pop\n      jump\t// out\n        /* \"#utility.yul\":12454:12873   */\n    tag_155:\n        /* \"#utility.yul\":12620:12624   */\n      0x00\n        /* \"#utility.yul\":12658:12660   */\n      0x20\n        /* \"#utility.yul\":12647:12656   */\n      dup3\n        /* \"#utility.yul\":12643:12661   */\n      add\n        /* \"#utility.yul\":12635:12661   */\n      swap1\n      pop\n        /* \"#utility.yul\":12707:12716   */\n      dup2\n        /* \"#utility.yul\":12701:12705   */\n      dup2\n        /* \"#utility.yul\":12697:12717   */\n      sub\n        /* \"#utility.yul\":12693:12694   */\n      0x00\n        /* \"#utility.yul\":12682:12691   */\n      dup4\n        /* \"#utility.yul\":12678:12695   */\n      add\n        /* \"#utility.yul\":12671:12718   */\n      mstore\n        /* \"#utility.yul\":12735:12866   */\n      tag_352\n        /* \"#utility.yul\":12861:12865   */\n      dup2\n        /* \"#utility.yul\":12735:12866   */\n      tag_286\n      jump\t// in\n    tag_352:\n        /* \"#utility.yul\":12727:12866   */\n      swap1\n      pop\n        /* \"#utility.yul\":12454:12873   */\n      swap2\n      swap1\n      pop\n      jump\t// out\n        /* \"#utility.yul\":12879:13298   */\n    tag_171:\n        /* \"#utility.yul\":13045:13049   */\n      0x00\n        /* \"#utility.yul\":13083:13085   */\n      0x20\n        /* \"#utility.yul\":13072:13081   */\n      dup3\n        /* \"#utility.yul\":13068:13086   */\n      add\n        /* \"#utility.yul\":13060:13086   */\n      swap1\n      pop\n        /* \"#utility.yul\":13132:13141   */\n      dup2\n        /* \"#utility.yul\":13126:13130   */\n      dup2\n        /* \"#utility.yul\":13122:13142   */\n      sub\n        /* \"#utility.yul\":13118:13119   */\n      0x00\n        /* \"#utility.yul\":13107:13116   */\n      dup4\n        /* \"#utility.yul\":13103:13120   */\n      add\n        /* \"#utility.yul\":13096:13143   */\n      mstore\n        /* \"#utility.yul\":13160:13291   */\n      tag_354\n        /* \"#utility.yul\":13286:13290   */\n      dup2\n        /* \"#utility.yul\":13160:13291   */\n      tag_291\n      jump\t// in\n    tag_354:\n        /* \"#utility.yul\":13152:13291   */\n      swap1\n      pop\n        /* \"#utility.yul\":12879:13298   */\n      swap2\n      swap1\n      pop\n      jump\t// out\n        /* \"#utility.yul\":13304:13723   */\n    tag_168:\n        /* \"#utility.yul\":13470:13474   */\n      0x00\n        /* \"#utility.yul\":13508:13510   */\n      0x20\n        /* \"#utility.yul\":13497:13506   */\n      dup3\n        /* \"#utility.yul\":13493:13511   */\n      add\n        /* \"#utility.yul\":13485:13511   */\n      swap1\n      pop\n        /* \"#utility.yul\":13557:13566   */\n      dup2\n        /* \"#utility.yul\":13551:13555   */\n      dup2\n        /* \"#utility.yul\":13547:13567   */\n      sub\n        /* \"#utility.yul\":13543:13544   */\n      0x00\n        /* \"#utility.yul\":13532:13541   */\n      dup4\n        /* \"#utility.yul\":13528:13545   */\n      add\n        /* \"#utility.yul\":13521:13568   */\n      mstore\n        /* \"#utility.yul\":13585:13716   */\n      tag_356\n        /* \"#utility.yul\":13711:13715   */\n      dup2\n        /* \"#utility.yul\":13585:13716   */\n      tag_296\n      jump\t// in\n    tag_356:\n        /* \"#utility.yul\":13577:13716   */\n      swap1\n      pop\n        /* \"#utility.yul\":13304:13723   */\n      swap2\n      swap1\n      pop\n      jump\t// out\n        /* \"#utility.yul\":13729:14148   */\n    tag_100:\n        /* \"#utility.yul\":13895:13899   */\n      0x00\n        /* \"#utility.yul\":13933:13935   */\n      0x20\n        /* \"#utility.yul\":13922:13931   */\n      dup3\n        /* \"#utility.yul\":13918:13936   */\n      add\n        /* \"#utility.yul\":13910:13936   */\n      swap1\n      pop\n        /* \"#utility.yul\":13982:13991   */\n      dup2\n        /* \"#utility.yul\":13976:13980   */\n      dup2\n        /* \"#utility.yul\":13972:13992   */\n      sub\n        /* \"#utility.yul\":13968:13969   */\n      0x00\n        /* \"#utility.yul\":13957:13966   */\n      dup4\n        /* \"#utility.yul\":13953:13970   */\n      add\n        /* \"#utility.yul\":13946:13993   */\n      mstore\n        /* \"#utility.yul\":14010:14141   */\n      tag_358\n        /* \"#utility.yul\":14136:14140   */\n      dup2\n        /* \"#utility.yul\":14010:14141   */\n      tag_307\n      jump\t// in\n    tag_358:\n        /* \"#utility.yul\":14002:14141   */\n      swap1\n      pop\n        /* \"#utility.yul\":13729:14148   */\n      swap2\n      swap1\n      pop\n      jump\t// out\n        /* \"#utility.yul\":14154:14573   */\n    tag_163:\n        /* \"#utility.yul\":14320:14324   */\n      0x00\n        /* \"#utility.yul\":14358:14360   */\n      0x20\n        /* \"#utility.yul\":14347:14356   */\n      dup3\n        /* \"#utility.yul\":14343:14361   */\n      add\n        /* \"#utility.yul\":14335:14361   */\n      swap1\n      pop\n        /* \"#utility.yul\":14407:14416   */\n      dup2\n        /* \"#utility.yul\":14401:14405   */\n      dup2\n        /* \"#utility.yul\":14397:14417   */\n      sub\n        /* \"#utility.yul\":14393:14394   */\n      0x00\n        /* \"#utility.yul\":14382:14391   */\n      dup4\n        /* \"#utility.yul\":14378:14395   */\n      add\n        /* \"#utility.yul\":14371:14418   */\n      mstore\n        /* \"#utility.yul\":14435:14566   */\n      tag_360\n        /* \"#utility.yul\":14561:14565   */\n      dup2\n        /* \"#utility.yul\":14435:14566   */\n      tag_312\n      jump\t// in\n    tag_360:\n        /* \"#utility.yul\":14427:14566   */\n      swap1\n      pop\n        /* \"#utility.yul\":14154:14573   */\n      swap2\n      swap1\n      pop\n      jump\t// out\n        /* \"#utility.yul\":14579:14998   */\n    tag_105:\n        /* \"#utility.yul\":14745:14749   */\n      0x00\n        /* \"#utility.yul\":14783:14785   */\n      0x20\n        /* \"#utility.yul\":14772:14781   */\n      dup3\n        /* \"#utility.yul\":14768:14786   */\n      add\n        /* \"#utility.yul\":14760:14786   */\n      swap1\n      pop\n        /* \"#utility.yul\":14832:14841   */\n      dup2\n        /* \"#utility.yul\":14826:14830   */\n      dup2\n        /* \"#utility.yul\":14822:14842   */\n      sub\n        /* \"#utility.yul\":14818:14819   */\n      0x00\n        /* \"#utility.yul\":14807:14816   */\n      dup4\n        /* \"#utility.yul\":14803:14820   */\n      add\n        /* \"#utility.yul\":14796:14843   */\n      mstore\n        /* \"#utility.yul\":14860:14991   */\n      tag_362\n        /* \"#utility.yul\":14986:14990   */\n      dup2\n        /* \"#utility.yul\":14860:14991   */\n      tag_317\n      jump\t// in\n    tag_362:\n        /* \"#utility.yul\":14852:14991   */\n      swap1\n      pop\n        /* \"#utility.yul\":14579:14998   */\n      swap2\n      swap1\n      pop\n      jump\t// out\n        /* \"#utility.yul\":15004:15226   */\n    tag_16:\n        /* \"#utility.yul\":15097:15101   */\n      0x00\n        /* \"#utility.yul\":15135:15137   */\n      0x20\n        /* \"#utility.yul\":15124:15133   */\n      dup3\n        /* \"#utility.yul\":15120:15138   */\n      add\n        /* \"#utility.yul\":15112:15138   */\n      swap1\n      pop\n        /* \"#utility.yul\":15148:15219   */\n      tag_364\n        /* \"#utility.yul\":15216:15217   */\n      0x00\n        /* \"#utility.yul\":15205:15214   */\n      dup4\n        /* \"#utility.yul\":15201:15218   */\n      add\n        /* \"#utility.yul\":15192:15198   */\n      dup5\n        /* \"#utility.yul\":15148:15219   */\n      tag_322\n      jump\t// in\n    tag_364:\n        /* \"#utility.yul\":15004:15226   */\n      swap3\n      swap2\n      pop\n      pop\n      jump\t// out\n        /* \"#utility.yul\":15232:15564   */\n    tag_29:\n        /* \"#utility.yul\":15353:15357   */\n      0x00\n        /* \"#utility.yul\":15391:15393   */\n      0x40\n        /* \"#utility.yul\":15380:15389   */\n      dup3\n        /* \"#utility.yul\":15376:15394   */\n      add\n        /* \"#utility.yul\":15368:15394   */\n      swap1\n      pop\n        /* \"#utility.yul\":15404:15475   */\n      tag_366\n        /* \"#utility.yul\":15472:15473   */\n      0x00\n        /* \"#utility.yul\":15461:15470   */\n      dup4\n        /* \"#utility.yul\":15457:15474   */\n      add\n        /* \"#utility.yul\":15448:15454   */\n      dup6\n        /* \"#utility.yul\":15404:15475   */\n      tag_322\n      jump\t// in\n    tag_366:\n        /* \"#utility.yul\":15485:15557   */\n      tag_367\n        /* \"#utility.yul\":15553:15555   */\n      0x20\n        /* \"#utility.yul\":15542:15551   */\n      dup4\n        /* \"#utility.yul\":15538:15556   */\n      add\n        /* \"#utility.yul\":15529:15535   */\n      dup5\n        /* \"#utility.yul\":15485:15557   */\n      tag_322\n      jump\t// in\n    tag_367:\n        /* \"#utility.yul\":15232:15564   */\n      swap4\n      swap3\n      pop\n      pop\n      pop\n      jump\t// out\n        /* \"#utility.yul\":15651:15798   */\n    tag_304:\n        /* \"#utility.yul\":15752:15763   */\n      0x00\n        /* \"#utility.yul\":15789:15792   */\n      dup2\n        /* \"#utility.yul\":15774:15792   */\n      swap1\n      pop\n        /* \"#utility.yul\":15651:15798   */\n      swap3\n      swap2\n      pop\n      pop\n      jump\t// out\n        /* \"#utility.yul\":15804:15973   */\n    tag_253:\n        /* \"#utility.yul\":15888:15899   */\n      0x00\n        /* \"#utility.yul\":15922:15928   */\n      dup3\n        /* \"#utility.yul\":15917:15920   */\n      dup3\n        /* \"#utility.yul\":15910:15929   */\n      mstore\n        /* \"#utility.yul\":15962:15966   */\n      0x20\n        /* \"#utility.yul\":15957:15960   */\n      dup3\n        /* \"#utility.yul\":15953:15967   */\n      add\n        /* \"#utility.yul\":15938:15967   */\n      swap1\n      pop\n        /* \"#utility.yul\":15804:15973   */\n      swap3\n      swap2\n      pop\n      pop\n      jump\t// out\n        /* \"#utility.yul\":15979:16284   */\n    tag_63:\n        /* \"#utility.yul\":16019:16022   */\n      0x00\n        /* \"#utility.yul\":16038:16058   */\n      tag_373\n        /* \"#utility.yul\":16056:16057   */\n      dup3\n        /* \"#utility.yul\":16038:16058   */\n      tag_325\n      jump\t// in\n    tag_373:\n        /* \"#utility.yul\":16033:16058   */\n      swap2\n      pop\n        /* \"#utility.yul\":16072:16092   */\n      tag_374\n        /* \"#utility.yul\":16090:16091   */\n      dup4\n        /* \"#utility.yul\":16072:16092   */\n      tag_325\n      jump\t// in\n    tag_374:\n        /* \"#utility.yul\":16067:16092   */\n      swap3\n      pop\n        /* \"#utility.yul\":16226:16227   */\n      dup3\n        /* \"#utility.yul\":16158:16224   */\n      0xffffffffffffffffffffffffffffffffffffffffffffffffffffffffffffffff\n        /* \"#utility.yul\":16154:16228   */\n      sub\n        /* \"#utility.yul\":16151:16152   */\n      dup3\n        /* \"#utility.yul\":16148:16229   */\n      gt\n        /* \"#utility.yul\":16145:16252   */\n      iszero\n      tag_375\n      jumpi\n        /* \"#utility.yul\":16232:16250   */\n      tag_376\n      tag_377\n      jump\t// in\n    tag_376:\n        /* \"#utility.yul\":16145:16252   */\n    tag_375:\n        /* \"#utility.yul\":16276:16277   */\n      dup3\n        /* \"#utility.yul\":16273:16274   */\n      dup3\n        /* \"#utility.yul\":16269:16278   */\n      add\n        /* \"#utility.yul\":16262:16278   */\n      swap1\n      pop\n        /* \"#utility.yul\":15979:16284   */\n      swap3\n      swap2\n      pop\n      pop\n      jump\t// out\n        /* \"#utility.yul\":16290:16475   */\n    tag_60:\n        /* \"#utility.yul\":16330:16331   */\n      0x00\n        /* \"#utility.yul\":16347:16367   */\n      tag_379\n        /* \"#utility.yul\":16365:16366   */\n      dup3\n        /* \"#utility.yul\":16347:16367   */\n      tag_325\n      jump\t// in\n    tag_379:\n        /* \"#utility.yul\":16342:16367   */\n      swap2\n      pop\n        /* \"#utility.yul\":16381:16401   */\n      tag_380\n        /* \"#utility.yul\":16399:16400   */\n      dup4\n        /* \"#utility.yul\":16381:16401   */\n      tag_325\n      jump\t// in\n    tag_380:\n        /* \"#utility.yul\":16376:16401   */\n      swap3\n      pop\n        /* \"#utility.yul\":16420:16421   */\n      dup3\n        /* \"#utility.yul\":16410:16445   */\n      tag_381\n      jumpi\n        /* \"#utility.yul\":16425:16443   */\n      tag_382\n      tag_383\n      jump\t// in\n    tag_382:\n        /* \"#utility.yul\":16410:16445   */\n    tag_381:\n        /* \"#utility.yul\":16467:16468   */\n      dup3\n        /* \"#utility.yul\":16464:16465   */\n      dup3\n        /* \"#utility.yul\":16460:16469   */\n      div\n        /* \"#utility.yul\":16455:16469   */\n      swap1\n      pop\n        /* \"#utility.yul\":16290:16475   */\n      swap3\n      swap2\n      pop\n      pop\n      jump\t// out\n        /* \"#utility.yul\":16481:16829   */\n    tag_58:\n        /* \"#utility.yul\":16521:16528   */\n      0x00\n        /* \"#utility.yul\":16544:16564   */\n      tag_385\n        /* \"#utility.yul\":16562:16563   */\n      dup3\n        /* \"#utility.yul\":16544:16564   */\n      tag_325\n      jump\t// in\n    tag_385:\n        /* \"#utility.yul\":16539:16564   */\n      swap2\n      pop\n        /* \"#utility.yul\":16578:16598   */\n      tag_386\n        /* \"#utility.yul\":16596:16597   */\n      dup4\n        /* \"#utility.yul\":16578:16598   */\n      tag_325\n      jump\t// in\n    tag_386:\n        /* \"#utility.yul\":16573:16598   */\n      swap3\n      pop\n        /* \"#utility.yul\":16766:16767   */\n      dup2\n        /* \"#utility.yul\":16698:16764   */\n      0xffffffffffffffffffffffffffffffffffffffffffffffffffffffffffffffff\n        /* \"#utility.yul\":16694:16768   */\n      div\n        /* \"#utility.yul\":16691:16692   */\n      dup4\n        /* \"#utility.yul\":16688:16769   */\n      gt\n        /* \"#utility.yul\":16683:16684   */\n      dup3\n        /* \"#utility.yul\":16676:16685   */\n      iszero\n        /* \"#utility.yul\":16669:16686   */\n      iszero\n        /* \"#utility.yul\":16665:16770   */\n      and\n        /* \"#utility.yul\":16662:16793   */\n      iszero\n      tag_387\n      jumpi\n        /* \"#utility.yul\":16773:16791   */\n      tag_388\n      tag_377\n      jump\t// in\n    tag_388:\n        /* \"#utility.yul\":16662:16793   */\n    tag_387:\n        /* \"#utility.yul\":16821:16822   */\n      dup3\n        /* \"#utility.yul\":16818:16819   */\n      dup3\n        /* \"#utility.yul\":16814:16823   */\n      mul\n        /* \"#utility.yul\":16803:16823   */\n      swap1\n      pop\n        /* \"#utility.yul\":16481:16829   */\n      swap3\n      swap2\n      pop\n      pop\n      jump\t// out\n        /* \"#utility.yul\":16835:17026   */\n    tag_81:\n        /* \"#utility.yul\":16875:16879   */\n      0x00\n        /* \"#utility.yul\":16895:16915   */\n      tag_390\n        /* \"#utility.yul\":16913:16914   */\n      dup3\n        /* \"#utility.yul\":16895:16915   */\n      tag_325\n      jump\t// in\n    tag_390:\n        /* \"#utility.yul\":16890:16915   */\n      swap2\n      pop\n        /* \"#utility.yul\":16929:16949   */\n      tag_391\n        /* \"#utility.yul\":16947:16948   */\n      dup4\n        /* \"#utility.yul\":16929:16949   */\n      tag_325\n      jump\t// in\n    tag_391:\n        /* \"#utility.yul\":16924:16949   */\n      swap3\n      pop\n        /* \"#utility.yul\":16968:16969   */\n      dup3\n        /* \"#utility.yul\":16965:16966   */\n      dup3\n        /* \"#utility.yul\":16962:16970   */\n      lt\n        /* \"#utility.yul\":16959:16993   */\n      iszero\n      tag_392\n      jumpi\n        /* \"#utility.yul\":16973:16991   */\n      tag_393\n      tag_377\n      jump\t// in\n    tag_393:\n        /* \"#utility.yul\":16959:16993   */\n    tag_392:\n        /* \"#utility.yul\":17018:17019   */\n      dup3\n        /* \"#utility.yul\":17015:17016   */\n      dup3\n        /* \"#utility.yul\":17011:17020   */\n      sub\n        /* \"#utility.yul\":17003:17020   */\n      swap1\n      pop\n        /* \"#utility.yul\":16835:17026   */\n      swap3\n      swap2\n      pop\n      pop\n      jump\t// out\n        /* \"#utility.yul\":17032:17128   */\n    tag_249:\n        /* \"#utility.yul\":17069:17076   */\n      0x00\n        /* \"#utility.yul\":17098:17122   */\n      tag_395\n        /* \"#utility.yul\":17116:17121   */\n      dup3\n        /* \"#utility.yul\":17098:17122   */\n      tag_396\n      jump\t// in\n    tag_395:\n        /* \"#utility.yul\":17087:17122   */\n      swap1\n      pop\n        /* \"#utility.yul\":17032:17128   */\n      swap2\n      swap1\n      pop\n      jump\t// out\n        /* \"#utility.yul\":17134:17224   */\n    tag_397:\n        /* \"#utility.yul\":17168:17175   */\n      0x00\n        /* \"#utility.yul\":17211:17216   */\n      dup2\n        /* \"#utility.yul\":17204:17217   */\n      iszero\n        /* \"#utility.yul\":17197:17218   */\n      iszero\n        /* \"#utility.yul\":17186:17218   */\n      swap1\n      pop\n        /* \"#utility.yul\":17134:17224   */\n      swap2\n      swap1\n      pop\n      jump\t// out\n        /* \"#utility.yul\":17230:17356   */\n    tag_396:\n        /* \"#utility.yul\":17267:17274   */\n      0x00\n        /* \"#utility.yul\":17307:17349   */\n      0xffffffffffffffffffffffffffffffffffffffff\n        /* \"#utility.yul\":17300:17305   */\n      dup3\n        /* \"#utility.yul\":17296:17350   */\n      and\n        /* \"#utility.yul\":17285:17350   */\n      swap1\n      pop\n        /* \"#utility.yul\":17230:17356   */\n      swap2\n      swap1\n      pop\n      jump\t// out\n        /* \"#utility.yul\":17362:17439   */\n    tag_325:\n        /* \"#utility.yul\":17399:17406   */\n      0x00\n        /* \"#utility.yul\":17428:17433   */\n      dup2\n        /* \"#utility.yul\":17417:17433   */\n      swap1\n      pop\n        /* \"#utility.yul\":17362:17439   */\n      swap2\n      swap1\n      pop\n      jump\t// out\n        /* \"#utility.yul\":17445:17625   */\n    tag_377:\n        /* \"#utility.yul\":17493:17570   */\n      0x4e487b7100000000000000000000000000000000000000000000000000000000\n        /* \"#utility.yul\":17490:17491   */\n      0x00\n        /* \"#utility.yul\":17483:17571   */\n      mstore\n        /* \"#utility.yul\":17590:17594   */\n      0x11\n        /* \"#utility.yul\":17587:17588   */\n      0x04\n        /* \"#utility.yul\":17580:17595   */\n      mstore\n        /* \"#utility.yul\":17614:17618   */\n      0x24\n        /* \"#utility.yul\":17611:17612   */\n      0x00\n        /* \"#utility.yul\":17604:17619   */\n      revert\n        /* \"#utility.yul\":17631:17811   */\n    tag_383:\n        /* \"#utility.yul\":17679:17756   */\n      0x4e487b7100000000000000000000000000000000000000000000000000000000\n        /* \"#utility.yul\":17676:17677   */\n      0x00\n        /* \"#utility.yul\":17669:17757   */\n      mstore\n        /* \"#utility.yul\":17776:17780   */\n      0x12\n        /* \"#utility.yul\":17773:17774   */\n      0x04\n        /* \"#utility.yul\":17766:17781   */\n      mstore\n        /* \"#utility.yul\":17800:17804   */\n      0x24\n        /* \"#utility.yul\":17797:17798   */\n      0x00\n        /* \"#utility.yul\":17790:17805   */\n      revert\n        /* \"#utility.yul\":17940:18057   */\n    tag_226:\n        /* \"#utility.yul\":18049:18050   */\n      0x00\n        /* \"#utility.yul\":18046:18047   */\n      dup1\n        /* \"#utility.yul\":18039:18051   */\n      revert\n        /* \"#utility.yul\":18063:18230   */\n    tag_255:\n        /* \"#utility.yul\":18203:18222   */\n      0x6e6f7420656e6f75676820736861726573000000000000000000000000000000\n        /* \"#utility.yul\":18199:18200   */\n      0x00\n        /* \"#utility.yul\":18191:18197   */\n      dup3\n        /* \"#utility.yul\":18187:18201   */\n      add\n        /* \"#utility.yul\":18180:18223   */\n      mstore\n        /* \"#utility.yul\":18063:18230   */\n      pop\n      jump\t// out\n        /* \"#utility.yul\":18236:18408   */\n    tag_260:\n        /* \"#utility.yul\":18376:18400   */\n      0x6e65656420746f2073656e64206c697175696469747900000000000000000000\n        /* \"#utility.yul\":18372:18373   */\n      0x00\n        /* \"#utility.yul\":18364:18370   */\n      dup3\n        /* \"#utility.yul\":18360:18374   */\n      add\n        /* \"#utility.yul\":18353:18401   */\n      mstore\n        /* \"#utility.yul\":18236:18408   */\n      pop\n      jump\t// out\n        /* \"#utility.yul\":18414:18584   */\n    tag_265:\n        /* \"#utility.yul\":18554:18576   */\n      0x696e76616c696420746f6b656e20616d6f756e74000000000000000000000000\n        /* \"#utility.yul\":18550:18551   */\n      0x00\n        /* \"#utility.yul\":18542:18548   */\n      dup3\n        /* \"#utility.yul\":18538:18552   */\n      add\n        /* \"#utility.yul\":18531:18577   */\n      mstore\n        /* \"#utility.yul\":18414:18584   */\n      pop\n      jump\t// out\n        /* \"#utility.yul\":18590:18763   */\n    tag_270:\n        /* \"#utility.yul\":18730:18755   */\n      0x44455820616c726561647920696e697469616c697a6564000000000000000000\n        /* \"#utility.yul\":18726:18727   */\n      0x00\n        /* \"#utility.yul\":18718:18724   */\n      dup3\n        /* \"#utility.yul\":18714:18728   */\n      add\n        /* \"#utility.yul\":18707:18756   */\n      mstore\n        /* \"#utility.yul\":18590:18763   */\n      pop\n      jump\t// out\n        /* \"#utility.yul\":18769:18932   */\n    tag_275:\n        /* \"#utility.yul\":18909:18924   */\n      0x6d7573742073656e642045544800000000000000000000000000000000000000\n        /* \"#utility.yul\":18905:18906   */\n      0x00\n        /* \"#utility.yul\":18897:18903   */\n      dup3\n        /* \"#utility.yul\":18893:18907   */\n      add\n        /* \"#utility.yul\":18886:18925   */\n      mstore\n        /* \"#utility.yul\":18769:18932   */\n      pop\n      jump\t// out\n        /* \"#utility.yul\":18938:19102   */\n    tag_280:\n        /* \"#utility.yul\":19078:19094   */\n      0x6e6f7420656e6f75676820455448000000000000000000000000000000000000\n        /* \"#utility.yul\":19074:19075   */\n      0x00\n        /* \"#utility.yul\":19066:19072   */\n      dup3\n        /* \"#utility.yul\":19062:19076   */\n      add\n        /* \"#utility.yul\":19055:19095   */\n      mstore\n        /* \"#utility.yul\":18938:19102   */\n      pop\n      jump\t// out\n        /* \"#utility.yul\":19108:19279   */\n    tag_285:\n        /* \"#utility.yul\":19248:19271   */\n      0x746f6b656e207472616e73666572206661696c65640000000000000000000000\n        /* \"#utility.yul\":19244:19245   */\n      0x00\n        /* \"#utility.yul\":19236:19242   */\n      dup3\n        /* \"#utility.yul\":19232:19246   */\n      add\n        /* \"#utility.yul\":19225:19272   */\n      mstore\n        /* \"#utility.yul\":19108:19279   */\n      pop\n      jump\t// out\n        /* \"#utility.yul\":19285:19452   */\n    tag_290:\n        /* \"#utility.yul\":19425:19444   */\n      0x6e6f7420656e6f75676820746f6b656e73000000000000000000000000000000\n        /* \"#utility.yul\":19421:19422   */\n      0x00\n        /* \"#utility.yul\":19413:19419   */\n      dup3\n        /* \"#utility.yul\":19409:19423   */\n      add\n        /* \"#utility.yul\":19402:19445   */\n      mstore\n        /* \"#utility.yul\":19285:19452   */\n      pop\n      jump\t// out\n        /* \"#utility.yul\":19458:19632   */\n    tag_295:\n        /* \"#utility.yul\":19598:19624   */\n      0x696e636f72726563742065786368616e67652076616c75650000000000000000\n        /* \"#utility.yul\":19594:19595   */\n      0x00\n        /* \"#utility.yul\":19586:19592   */\n      dup3\n        /* \"#utility.yul\":19582:19596   */\n      add\n        /* \"#utility.yul\":19575:19625   */\n      mstore\n        /* \"#utility.yul\":19458:19632   */\n      pop\n      jump\t// out\n        /* \"#utility.yul\":19638:19804   */\n    tag_300:\n        /* \"#utility.yul\":19778:19796   */\n      0x6e65656420746f2073656e642045544800000000000000000000000000000000\n        /* \"#utility.yul\":19774:19775   */\n      0x00\n        /* \"#utility.yul\":19766:19772   */\n      dup3\n        /* \"#utility.yul\":19762:19776   */\n      add\n        /* \"#utility.yul\":19755:19797   */\n      mstore\n        /* \"#utility.yul\":19638:19804   */\n      pop\n      jump\t// out\n        /* \"#utility.yul\":19810:19924   */\n    tag_306:\n      pop\n      jump\t// out\n        /* \"#utility.yul\":19930:20099   */\n    tag_311:\n        /* \"#utility.yul\":20070:20091   */\n      0x455448207472616e73666572206661696c656400000000000000000000000000\n        /* \"#utility.yul\":20066:20067   */\n      0x00\n        /* \"#utility.yul\":20058:20064   */\n      dup3\n        /* \"#utility.yul\":20054:20068   */\n      add\n        /* \"#utility.yul\":20047:20092   */\n      mstore\n        /* \"#utility.yul\":19930:20099   */\n      pop\n      jump\t// out\n        /* \"#utility.yul\":20105:20270   */\n    tag_316:\n        /* \"#utility.yul\":20245:20262   */\n      0x7472616e73666572206661696c65640000000000000000000000000000000000\n        /* \"#utility.yul\":20241:20242   */\n      0x00\n        /* \"#utility.yul\":20233:20239   */\n      dup3\n        /* \"#utility.yul\":20229:20243   */\n      add\n        /* \"#utility.yul\":20222:20263   */\n      mstore\n        /* \"#utility.yul\":20105:20270   */\n      pop\n      jump\t// out\n        /* \"#utility.yul\":20276:20442   */\n    tag_321:\n        /* \"#utility.yul\":20416:20434   */\n      0x6d7573742073656e6420746f6b656e7300000000000000000000000000000000\n        /* \"#utility.yul\":20412:20413   */\n      0x00\n        /* \"#utility.yul\":20404:20410   */\n      dup3\n        /* \"#utility.yul\":20400:20414   */\n      add\n        /* \"#utility.yul\":20393:20435   */\n      mstore\n        /* \"#utility.yul\":20276:20442   */\n      pop\n      jump\t// out\n        /* \"#utility.yul\":20448:20570   */\n    tag_211:\n        /* \"#utility.yul\":20521:20545   */\n      tag_421\n        /* \"#utility.yul\":20539:20544   */\n      dup2\n        /* \"#utility.yul\":20521:20545   */\n      tag_249\n      jump\t// in\n    tag_421:\n        /* \"#utility.yul\":20514:20519   */\n      dup2\n        /* \"#utility.yul\":20511:20546   */\n      eq\n        /* \"#utility.yul\":20501:20564   */\n      tag_422\n      jumpi\n        /* \"#utility.yul\":20560:20561   */\n      0x00\n        /* \"#utility.yul\":20557:20558   */\n      dup1\n        /* \"#utility.yul\":20550:20562   */\n      revert\n        /* \"#utility.yul\":20501:20564   */\n    tag_422:\n        /* \"#utility.yul\":20448:20570   */\n      pop\n      jump\t// out\n        /* \"#utility.yul\":20576:20692   */\n    tag_215:\n        /* \"#utility.yul\":20646:20667   */\n      tag_424\n        /* \"#utility.yul\":20661:20666   */\n      dup2\n        /* \"#utility.yul\":20646:20667   */\n      tag_397\n      jump\t// in\n    tag_424:\n        /* \"#utility.yul\":20639:20644   */\n      dup2\n        /* \"#utility.yul\":20636:20668   */\n      eq\n        /* \"#utility.yul\":20626:20686   */\n      tag_425\n      jumpi\n        /* \"#utility.yul\":20682:20683   */\n      0x00\n        /* \"#utility.yul\":20679:20680   */\n      dup1\n        /* \"#utility.yul\":20672:20684   */\n      revert\n        /* \"#utility.yul\":20626:20686   */\n    tag_425:\n        /* \"#utility.yul\":20576:20692   */\n      pop\n      jump\t// out\n        /* \"#utility.yul\":20698:20820   */\n    tag_219:\n        /* \"#utility.yul\":20771:20795   */\n      tag_427\n        /* \"#utility.yul\":20789:20794   */\n      dup2\n        /* \"#utility.yul\":20771:20795   */\n      tag_325\n      jump\t// in\n    tag_427:\n        /* \"#utility.yul\":20764:20769   */\n      dup2\n        /* \"#utility.yul\":20761:20796   */\n      eq\n        /* \"#utility.yul\":20751:20814   */\n      tag_428\n      jumpi\n        /* \"#utility.yul\":20810:20811   */\n      0x00\n        /* \"#utility.yul\":20807:20808   */\n      dup1\n        /* \"#utility.yul\":20800:20812   */\n      revert\n        /* \"#utility.yul\":20751:20814   */\n    tag_428:\n        /* \"#utility.yul\":20698:20820   */\n      pop\n      jump\t// out\n\n    auxdata: 0xa2646970667358221220f5182706d6948fc1ef542b6f10c4ae75566045cdc913f48507239582aa932ca364736f6c63430008070033\n}\n",
				"bytecode": {
					"linkReferences": {},
					"object": "60806040523480156200001157600080fd5b5060405162001f3e38038062001f3e833981810160405281019062000037919062000108565b600073ffffffffffffffffffffffffffffffffffffffff168173ffffffffffffffffffffffffffffffffffffffff161415620000aa576040517f08c379a0000000000000000000000000000000000000000000000000000000008152600401620000a19062000161565b60405180910390fd5b806000806101000a81548173ffffffffffffffffffffffffffffffffffffffff021916908373ffffffffffffffffffffffffffffffffffffffff1602179055505062000210565b6000815190506200010281620001f6565b92915050565b600060208284031215620001215762000120620001c8565b5b60006200013184828501620000f1565b91505092915050565b600062000149600c8362000183565b91506200015682620001cd565b602082019050919050565b600060208201905081810360008301526200017c816200013a565b9050919050565b600082825260208201905092915050565b6000620001a182620001a8565b9050919050565b600073ffffffffffffffffffffffffffffffffffffffff82169050919050565b600080fd5b7f7a65726f20616464726573730000000000000000000000000000000000000000600082015250565b620002018162000194565b81146200020d57600080fd5b50565b611d1e80620002206000396000f3fe6080604052600436106100865760003560e01c8063789770f411610059578063789770f41461016e578063a747b93b1461018c578063b7b0422d146101c9578063b8c876b1146101f9578063d0e30db01461023657610086565b806315770f921461008b5780632071a9f4146100b65780632e1a7d4d146100f357806370b2a30f14610131575b600080fd5b34801561009757600080fd5b506100a0610254565b6040516100ad919061186b565b60405180910390f35b3480156100c257600080fd5b506100dd60048036038101906100d891906113e0565b61025a565b6040516100ea919061186b565b60405180910390f35b3480156100ff57600080fd5b5061011a60048036038101906101159190611386565b6102b0565b604051610128929190611886565b60405180910390f35b34801561013d57600080fd5b5061015860048036038101906101539190611386565b61065a565b604051610165919061186b565b60405180910390f35b610176610a65565b604051610183919061186b565b60405180910390f35b34801561019857600080fd5b506101b360048036038101906101ae919061132c565b610d87565b6040516101c0919061186b565b60405180910390f35b6101e360048036038101906101de9190611386565b610dd0565b6040516101f0919061186b565b60405180910390f35b34801561020557600080fd5b50610220600480360381019061021b919061132c565b610fda565b60405161022d919061186b565b60405180910390f35b61023e610ff2565b60405161024b919061186b565b60405180910390f35b60015481565b60006103e86103e58561026d9190611952565b6102779190611921565b9350600082856102879190611952565b90506000858561029791906118cb565b905080826102a59190611921565b925050509392505050565b60008082600260003373ffffffffffffffffffffffffffffffffffffffff1673ffffffffffffffffffffffffffffffffffffffff168152602001908152602001600020541015610335576040517f08c379a000000000000000000000000000000000000000000000000000000000815260040161032c906116cb565b60405180910390fd5b47600154846103449190611921565b61034e9190611952565b915060008054906101000a900473ffffffffffffffffffffffffffffffffffffffff1673ffffffffffffffffffffffffffffffffffffffff166370a08231306040518263ffffffff1660e01b81526004016103a99190611650565b60206040518083038186803b1580156103c157600080fd5b505afa1580156103d5573d6000803e3d6000fd5b505050506040513d601f19601f820116820180604052508101906103f991906113b3565b600154846104079190611921565b6104119190611952565b905082600260003373ffffffffffffffffffffffffffffffffffffffff1673ffffffffffffffffffffffffffffffffffffffff168152602001908152602001600020600082825461046291906119ac565b92505081905550826001600082825461047b91906119ac565b9250508190555060008054906101000a900473ffffffffffffffffffffffffffffffffffffffff1673ffffffffffffffffffffffffffffffffffffffff1663a9059cbb33836040518363ffffffff1660e01b81526004016104dd9291906116a2565b602060405180830381600087803b1580156104f757600080fd5b505af115801561050b573d6000803e3d6000fd5b505050506040513d601f19601f8201168201806040525081019061052f9190611359565b61056e576040517f08c379a00000000000000000000000000000000000000000000000000000000081526004016105659061178b565b60405180910390fd5b60003373ffffffffffffffffffffffffffffffffffffffff16836040516105949061163b565b60006040518083038185875af1925050503d80600081146105d1576040519150601f19603f3d011682016040523d82523d6000602084013e6105d6565b606091505b505090508061061a576040517f08c379a00000000000000000000000000000000000000000000000000000000081526004016106119061180b565b60405180910390fd5b8183857f1dc8bb69df2b8e91fbdcbfcf93d951b3f0000f085a95fe3f7946d6161439245d3360405161064c9190611650565b60405180910390a450915091565b600080821161069e576040517f08c379a00000000000000000000000000000000000000000000000000000000081526004016106959061184b565b60405180910390fd5b60008054906101000a900473ffffffffffffffffffffffffffffffffffffffff1673ffffffffffffffffffffffffffffffffffffffff166370a08231336040518263ffffffff1660e01b81526004016106f79190611650565b60206040518083038186803b15801561070f57600080fd5b505afa158015610723573d6000803e3d6000fd5b505050506040513d601f19601f8201168201806040525081019061074791906113b3565b821115610789576040517f08c379a00000000000000000000000000000000000000000000000000000000081526004016107809061170b565b60405180910390fd5b61083c8260008054906101000a900473ffffffffffffffffffffffffffffffffffffffff1673ffffffffffffffffffffffffffffffffffffffff166370a08231306040518263ffffffff1660e01b81526004016107e69190611650565b60206040518083038186803b1580156107fe57600080fd5b505afa158015610812573d6000803e3d6000fd5b505050506040513d601f19601f8201168201806040525081019061083691906113b3565b4761025a565b9050478110610880576040517f08c379a00000000000000000000000000000000000000000000000000000000081526004016108779061176b565b60405180910390fd5b60008054906101000a900473ffffffffffffffffffffffffffffffffffffffff1673ffffffffffffffffffffffffffffffffffffffff166323b872dd3330856040518463ffffffff1660e01b81526004016108dd9392919061166b565b602060405180830381600087803b1580156108f757600080fd5b505af115801561090b573d6000803e3d6000fd5b505050506040513d601f19601f8201168201806040525081019061092f9190611359565b61096e576040517f08c379a00000000000000000000000000000000000000000000000000000000081526004016109659061178b565b60405180910390fd5b60003373ffffffffffffffffffffffffffffffffffffffff16826040516109949061163b565b60006040518083038185875af1925050503d80600081146109d1576040519150601f19603f3d011682016040523d82523d6000602084013e6109d6565b606091505b5050905080610a1a576040517f08c379a0000000000000000000000000000000000000000000000000000000008152600401610a119061180b565b60405180910390fd5b82823373ffffffffffffffffffffffffffffffffffffffff167f472303b1e7ca7d00fb77f255c0a8c577f9ca4264c0306aaed3ff18e831523a6d60405160405180910390a450919050565b6000803411610aa9576040517f08c379a0000000000000000000000000000000000000000000000000000000008152600401610aa09061174b565b60405180910390fd5b610b67343447610ab991906119ac565b60008054906101000a900473ffffffffffffffffffffffffffffffffffffffff1673ffffffffffffffffffffffffffffffffffffffff166370a08231306040518263ffffffff1660e01b8152600401610b129190611650565b60206040518083038186803b158015610b2a57600080fd5b505afa158015610b3e573d6000803e3d6000fd5b505050506040513d601f19601f82011682018060405250810190610b6291906113b3565b61025a565b905060008054906101000a900473ffffffffffffffffffffffffffffffffffffffff1673ffffffffffffffffffffffffffffffffffffffff166370a08231306040518263ffffffff1660e01b8152600401610bc29190611650565b60206040518083038186803b158015610bda57600080fd5b505afa158015610bee573d6000803e3d6000fd5b505050506040513d601f19601f82011682018060405250810190610c1291906113b3565b8110610c53576040517f08c379a0000000000000000000000000000000000000000000000000000000008152600401610c4a906117ab565b60405180910390fd5b60008054906101000a900473ffffffffffffffffffffffffffffffffffffffff1673ffffffffffffffffffffffffffffffffffffffff1663a9059cbb33836040518363ffffffff1660e01b8152600401610cae9291906116a2565b602060405180830381600087803b158015610cc857600080fd5b505af1158015610cdc573d6000803e3d6000fd5b505050506040513d601f19601f82011682018060405250810190610d009190611359565b610d3f576040517f08c379a0000000000000000000000000000000000000000000000000000000008152600401610d369061182b565b60405180910390fd5b80343373ffffffffffffffffffffffffffffffffffffffff167f6d4870e9281c01ea54a4420c8684ac713b77f0c590b40c4b1fbf4c6ba892ccea60405160405180910390a490565b6000600260008373ffffffffffffffffffffffffffffffffffffffff1673ffffffffffffffffffffffffffffffffffffffff168152602001908152602001600020549050919050565b6000803411610e14576040517f08c379a0000000000000000000000000000000000000000000000000000000008152600401610e0b906117eb565b60405180910390fd5b813414610e56576040517f08c379a0000000000000000000000000000000000000000000000000000000008152600401610e4d906117cb565b60405180910390fd5b600060015414610e9b576040517f08c379a0000000000000000000000000000000000000000000000000000000008152600401610e929061172b565b60405180910390fd5b60008054906101000a900473ffffffffffffffffffffffffffffffffffffffff1673ffffffffffffffffffffffffffffffffffffffff166323b872dd3330856040518463ffffffff1660e01b8152600401610ef89392919061166b565b602060405180830381600087803b158015610f1257600080fd5b505af1158015610f26573d6000803e3d6000fd5b505050506040513d601f19601f82011682018060405250810190610f4a9190611359565b610f89576040517f08c379a0000000000000000000000000000000000000000000000000000000008152600401610f809061182b565b60405180910390fd5b34600260003373ffffffffffffffffffffffffffffffffffffffff1673ffffffffffffffffffffffffffffffffffffffff168152602001908152602001600020819055504760018190559050919050565b60026020528060005260406000206000915090505481565b6000803411611036576040517f08c379a000000000000000000000000000000000000000000000000000000000815260040161102d906116eb565b60405180910390fd5b600034905060008060009054906101000a900473ffffffffffffffffffffffffffffffffffffffff1673ffffffffffffffffffffffffffffffffffffffff166370a08231306040518263ffffffff1660e01b81526004016110979190611650565b60206040518083038186803b1580156110af57600080fd5b505afa1580156110c3573d6000803e3d6000fd5b505050506040513d601f19601f820116820180604052508101906110e791906113b3565b9050600034476110f791906119ac565b9050828161110591906118cb565b82846111119190611952565b61111b9190611921565b93506000816001548561112e9190611952565b6111389190611921565b905080600260003373ffffffffffffffffffffffffffffffffffffffff1673ffffffffffffffffffffffffffffffffffffffff168152602001908152602001600020600082825461118991906118cb565b9250508190555080600160008282546111a291906118cb565b9250508190555060008054906101000a900473ffffffffffffffffffffffffffffffffffffffff1673ffffffffffffffffffffffffffffffffffffffff166323b872dd3330886040518463ffffffff1660e01b81526004016112069392919061166b565b602060405180830381600087803b15801561122057600080fd5b505af1158015611234573d6000803e3d6000fd5b505050506040513d601f19601f820116820180604052508101906112589190611359565b611297576040517f08c379a000000000000000000000000000000000000000000000000000000000815260040161128e9061178b565b60405180910390fd5b8434827f3bca7014f4c0ccc8016338c79f4c00e82068dbadaf4f01ca5449040fdd39f500336040516112c99190611650565b60405180910390a45050505090565b6000813590506112e781611ca3565b92915050565b6000815190506112fc81611cba565b92915050565b60008135905061131181611cd1565b92915050565b60008151905061132681611cd1565b92915050565b60006020828403121561134257611341611a86565b5b6000611350848285016112d8565b91505092915050565b60006020828403121561136f5761136e611a86565b5b600061137d848285016112ed565b91505092915050565b60006020828403121561139c5761139b611a86565b5b60006113aa84828501611302565b91505092915050565b6000602082840312156113c9576113c8611a86565b5b60006113d784828501611317565b91505092915050565b6000806000606084860312156113f9576113f8611a86565b5b600061140786828701611302565b935050602061141886828701611302565b925050604061142986828701611302565b9150509250925092565b61143c816119e0565b82525050565b600061144f6011836118ba565b915061145a82611a8b565b602082019050919050565b60006114726016836118ba565b915061147d82611ab4565b602082019050919050565b60006114956014836118ba565b91506114a082611add565b602082019050919050565b60006114b86017836118ba565b91506114c382611b06565b602082019050919050565b60006114db600d836118ba565b91506114e682611b2f565b602082019050919050565b60006114fe600e836118ba565b915061150982611b58565b602082019050919050565b60006115216015836118ba565b915061152c82611b81565b602082019050919050565b60006115446011836118ba565b915061154f82611baa565b602082019050919050565b60006115676018836118ba565b915061157282611bd3565b602082019050919050565b600061158a6010836118ba565b915061159582611bfc565b602082019050919050565b60006115ad6000836118af565b91506115b882611c25565b600082019050919050565b60006115d06013836118ba565b91506115db82611c28565b602082019050919050565b60006115f3600f836118ba565b91506115fe82611c51565b602082019050919050565b60006116166010836118ba565b915061162182611c7a565b602082019050919050565b61163581611a1e565b82525050565b6000611646826115a0565b9150819050919050565b60006020820190506116656000830184611433565b92915050565b60006060820190506116806000830186611433565b61168d6020830185611433565b61169a604083018461162c565b949350505050565b60006040820190506116b76000830185611433565b6116c4602083018461162c565b9392505050565b600060208201905081810360008301526116e481611442565b9050919050565b6000602082019050818103600083015261170481611465565b9050919050565b6000602082019050818103600083015261172481611488565b9050919050565b60006020820190508181036000830152611744816114ab565b9050919050565b60006020820190508181036000830152611764816114ce565b9050919050565b60006020820190508181036000830152611784816114f1565b9050919050565b600060208201905081810360008301526117a481611514565b9050919050565b600060208201905081810360008301526117c481611537565b9050919050565b600060208201905081810360008301526117e48161155a565b9050919050565b600060208201905081810360008301526118048161157d565b9050919050565b60006020820190508181036000830152611824816115c3565b9050919050565b60006020820190508181036000830152611844816115e6565b9050919050565b6000602082019050818103600083015261186481611609565b9050919050565b6000602082019050611880600083018461162c565b92915050565b600060408201905061189b600083018561162c565b6118a8602083018461162c565b9392505050565b600081905092915050565b600082825260208201905092915050565b60006118d682611a1e565b91506118e183611a1e565b9250827fffffffffffffffffffffffffffffffffffffffffffffffffffffffffffffffff0382111561191657611915611a28565b5b828201905092915050565b600061192c82611a1e565b915061193783611a1e565b92508261194757611946611a57565b5b828204905092915050565b600061195d82611a1e565b915061196883611a1e565b9250817fffffffffffffffffffffffffffffffffffffffffffffffffffffffffffffffff04831182151516156119a1576119a0611a28565b5b828202905092915050565b60006119b782611a1e565b91506119c283611a1e565b9250828210156119d5576119d4611a28565b5b828203905092915050565b60006119eb826119fe565b9050919050565b60008115159050919050565b600073ffffffffffffffffffffffffffffffffffffffff82169050919050565b6000819050919050565b7f4e487b7100000000000000000000000000000000000000000000000000000000600052601160045260246000fd5b7f4e487b7100000000000000000000000000000000000000000000000000000000600052601260045260246000fd5b600080fd5b7f6e6f7420656e6f75676820736861726573000000000000000000000000000000600082015250565b7f6e65656420746f2073656e64206c697175696469747900000000000000000000600082015250565b7f696e76616c696420746f6b656e20616d6f756e74000000000000000000000000600082015250565b7f44455820616c726561647920696e697469616c697a6564000000000000000000600082015250565b7f6d7573742073656e642045544800000000000000000000000000000000000000600082015250565b7f6e6f7420656e6f75676820455448000000000000000000000000000000000000600082015250565b7f746f6b656e207472616e73666572206661696c65640000000000000000000000600082015250565b7f6e6f7420656e6f75676820746f6b656e73000000000000000000000000000000600082015250565b7f696e636f72726563742065786368616e67652076616c75650000000000000000600082015250565b7f6e65656420746f2073656e642045544800000000000000000000000000000000600082015250565b50565b7f455448207472616e73666572206661696c656400000000000000000000000000600082015250565b7f7472616e73666572206661696c65640000000000000000000000000000000000600082015250565b7f6d7573742073656e6420746f6b656e7300000000000000000000000000000000600082015250565b611cac816119e0565b8114611cb757600080fd5b50565b611cc3816119f2565b8114611cce57600080fd5b50565b611cda81611a1e565b8114611ce557600080fd5b5056fea2646970667358221220f5182706d6948fc1ef542b6f10c4ae75566045cdc913f48507239582aa932ca364736f6c63430008070033",
					"opcodes": "PUSH1 0x80 PUSH1 0x40 MSTORE CALLVALUE DUP1 ISZERO PUSH3 0x11 JUMPI PUSH1 0x0 DUP1 REVERT JUMPDEST POP PUSH1 0x40 MLOAD PUSH3 0x1F3E CODESIZE SUB DUP1 PUSH3 0x1F3E DUP4 CODECOPY DUP2 DUP2 ADD PUSH1 0x40 MSTORE DUP2 ADD SWAP1 PUSH3 0x37 SWAP2 SWAP1 PUSH3 0x108 JUMP JUMPDEST PUSH1 0x0 PUSH20 0xFFFFFFFFFFFFFFFFFFFFFFFFFFFFFFFFFFFFFFFF AND DUP2 PUSH20 0xFFFFFFFFFFFFFFFFFFFFFFFFFFFFFFFFFFFFFFFF AND EQ ISZERO PUSH3 0xAA JUMPI PUSH1 0x40 MLOAD PUSH32 0x8C379A000000000000000000000000000000000000000000000000000000000 DUP2 MSTORE PUSH1 0x4 ADD PUSH3 0xA1 SWAP1 PUSH3 0x161 JUMP JUMPDEST PUSH1 0x40 MLOAD DUP1 SWAP2 SUB SWAP1 REVERT JUMPDEST DUP1 PUSH1 0x0 DUP1 PUSH2 0x100 EXP DUP2 SLOAD DUP2 PUSH20 0xFFFFFFFFFFFFFFFFFFFFFFFFFFFFFFFFFFFFFFFF MUL NOT AND SWAP1 DUP4 PUSH20 0xFFFFFFFFFFFFFFFFFFFFFFFFFFFFFFFFFFFFFFFF AND MUL OR SWAP1 SSTORE POP POP PUSH3 0x210 JUMP JUMPDEST PUSH1 0x0 DUP2 MLOAD SWAP1 POP PUSH3 0x102 DUP2 PUSH3 0x1F6 JUMP JUMPDEST SWAP3 SWAP2 POP POP JUMP JUMPDEST PUSH1 0x0 PUSH1 0x20 DUP3 DUP5 SUB SLT ISZERO PUSH3 0x121 JUMPI PUSH3 0x120 PUSH3 0x1C8 JUMP JUMPDEST JUMPDEST PUSH1 0x0 PUSH3 0x131 DUP5 DUP3 DUP6 ADD PUSH3 0xF1 JUMP JUMPDEST SWAP2 POP POP SWAP3 SWAP2 POP POP JUMP JUMPDEST PUSH1 0x0 PUSH3 0x149 PUSH1 0xC DUP4 PUSH3 0x183 JUMP JUMPDEST SWAP2 POP PUSH3 0x156 DUP3 PUSH3 0x1CD JUMP JUMPDEST PUSH1 0x20 DUP3 ADD SWAP1 POP SWAP2 SWAP1 POP JUMP JUMPDEST PUSH1 0x0 PUSH1 0x20 DUP3 ADD SWAP1 POP DUP2 DUP2 SUB PUSH1 0x0 DUP4 ADD MSTORE PUSH3 0x17C DUP2 PUSH3 0x13A JUMP JUMPDEST SWAP1 POP SWAP2 SWAP1 POP JUMP JUMPDEST PUSH1 0x0 DUP3 DUP3 MSTORE PUSH1 0x20 DUP3 ADD SWAP1 POP SWAP3 SWAP2 POP POP JUMP JUMPDEST PUSH1 0x0 PUSH3 0x1A1 DUP3 PUSH3 0x1A8 JUMP JUMPDEST SWAP1 POP SWAP2 SWAP1 POP JUMP JUMPDEST PUSH1 0x0 PUSH20 0xFFFFFFFFFFFFFFFFFFFFFFFFFFFFFFFFFFFFFFFF DUP3 AND SWAP1 POP SWAP2 SWAP1 POP JUMP JUMPDEST PUSH1 0x0 DUP1 REVERT JUMPDEST PUSH32 0x7A65726F20616464726573730000000000000000000000000000000000000000 PUSH1 0x0 DUP3 ADD MSTORE POP JUMP JUMPDEST PUSH3 0x201 DUP2 PUSH3 0x194 JUMP JUMPDEST DUP2 EQ PUSH3 0x20D JUMPI PUSH1 0x0 DUP1 REVERT JUMPDEST POP JUMP JUMPDEST PUSH2 0x1D1E DUP1 PUSH3 0x220 PUSH1 0x0 CODECOPY PUSH1 0x0 RETURN INVALID PUSH1 0x80 PUSH1 0x40 MSTORE PUSH1 0x4 CALLDATASIZE LT PUSH2 0x86 JUMPI PUSH1 0x0 CALLDATALOAD PUSH1 0xE0 SHR DUP1 PUSH4 0x789770F4 GT PUSH2 0x59 JUMPI DUP1 PUSH4 0x789770F4 EQ PUSH2 0x16E JUMPI DUP1 PUSH4 0xA747B93B EQ PUSH2 0x18C JUMPI DUP1 PUSH4 0xB7B0422D EQ PUSH2 0x1C9 JUMPI DUP1 PUSH4 0xB8C876B1 EQ PUSH2 0x1F9 JUMPI DUP1 PUSH4 0xD0E30DB0 EQ PUSH2 0x236 JUMPI PUSH2 0x86 JUMP JUMPDEST DUP1 PUSH4 0x15770F92 EQ PUSH2 0x8B JUMPI DUP1 PUSH4 0x2071A9F4 EQ PUSH2 0xB6 JUMPI DUP1 PUSH4 0x2E1A7D4D EQ PUSH2 0xF3 JUMPI DUP1 PUSH4 0x70B2A30F EQ PUSH2 0x131 JUMPI JUMPDEST PUSH1 0x0 DUP1 REVERT JUMPDEST CALLVALUE DUP1 ISZERO PUSH2 0x97 JUMPI PUSH1 0x0 DUP1 REVERT JUMPDEST POP PUSH2 0xA0 PUSH2 0x254 JUMP JUMPDEST PUSH1 0x40 MLOAD PUSH2 0xAD SWAP2 SWAP1 PUSH2 0x186B JUMP JUMPDEST PUSH1 0x40 MLOAD DUP1 SWAP2 SUB SWAP1 RETURN JUMPDEST CALLVALUE DUP1 ISZERO PUSH2 0xC2 JUMPI PUSH1 0x0 DUP1 REVERT JUMPDEST POP PUSH2 0xDD PUSH1 0x4 DUP1 CALLDATASIZE SUB DUP2 ADD SWAP1 PUSH2 0xD8 SWAP2 SWAP1 PUSH2 0x13E0 JUMP JUMPDEST PUSH2 0x25A JUMP JUMPDEST PUSH1 0x40 MLOAD PUSH2 0xEA SWAP2 SWAP1 PUSH2 0x186B JUMP JUMPDEST PUSH1 0x40 MLOAD DUP1 SWAP2 SUB SWAP1 RETURN JUMPDEST CALLVALUE DUP1 ISZERO PUSH2 0xFF JUMPI PUSH1 0x0 DUP1 REVERT JUMPDEST POP PUSH2 0x11A PUSH1 0x4 DUP1 CALLDATASIZE SUB DUP2 ADD SWAP1 PUSH2 0x115 SWAP2 SWAP1 PUSH2 0x1386 JUMP JUMPDEST PUSH2 0x2B0 JUMP JUMPDEST PUSH1 0x40 MLOAD PUSH2 0x128 SWAP3 SWAP2 SWAP1 PUSH2 0x1886 JUMP JUMPDEST PUSH1 0x40 MLOAD DUP1 SWAP2 SUB SWAP1 RETURN JUMPDEST CALLVALUE DUP1 ISZERO PUSH2 0x13D JUMPI PUSH1 0x0 DUP1 REVERT JUMPDEST POP PUSH2 0x158 PUSH1 0x4 DUP1 CALLDATASIZE SUB DUP2 ADD SWAP1 PUSH2 0x153 SWAP2 SWAP1 PUSH2 0x1386 JUMP JUMPDEST PUSH2 0x65A JUMP JUMPDEST PUSH1 0x40 MLOAD PUSH2 0x165 SWAP2 SWAP1 PUSH2 0x186B JUMP JUMPDEST PUSH1 0x40 MLOAD DUP1 SWAP2 SUB SWAP1 RETURN JUMPDEST PUSH2 0x176 PUSH2 0xA65 JUMP JUMPDEST PUSH1 0x40 MLOAD PUSH2 0x183 SWAP2 SWAP1 PUSH2 0x186B JUMP JUMPDEST PUSH1 0x40 MLOAD DUP1 SWAP2 SUB SWAP1 RETURN JUMPDEST CALLVALUE DUP1 ISZERO PUSH2 0x198 JUMPI PUSH1 0x0 DUP1 REVERT JUMPDEST POP PUSH2 0x1B3 PUSH1 0x4 DUP1 CALLDATASIZE SUB DUP2 ADD SWAP1 PUSH2 0x1AE SWAP2 SWAP1 PUSH2 0x132C JUMP JUMPDEST PUSH2 0xD87 JUMP JUMPDEST PUSH1 0x40 MLOAD PUSH2 0x1C0 SWAP2 SWAP1 PUSH2 0x186B JUMP JUMPDEST PUSH1 0x40 MLOAD DUP1 SWAP2 SUB SWAP1 RETURN JUMPDEST PUSH2 0x1E3 PUSH1 0x4 DUP1 CALLDATASIZE SUB DUP2 ADD SWAP1 PUSH2 0x1DE SWAP2 SWAP1 PUSH2 0x1386 JUMP JUMPDEST PUSH2 0xDD0 JUMP JUMPDEST PUSH1 0x40 MLOAD PUSH2 0x1F0 SWAP2 SWAP1 PUSH2 0x186B JUMP JUMPDEST PUSH1 0x40 MLOAD DUP1 SWAP2 SUB SWAP1 RETURN JUMPDEST CALLVALUE DUP1 ISZERO PUSH2 0x205 JUMPI PUSH1 0x0 DUP1 REVERT JUMPDEST POP PUSH2 0x220 PUSH1 0x4 DUP1 CALLDATASIZE SUB DUP2 ADD SWAP1 PUSH2 0x21B SWAP2 SWAP1 PUSH2 0x132C JUMP JUMPDEST PUSH2 0xFDA JUMP JUMPDEST PUSH1 0x40 MLOAD PUSH2 0x22D SWAP2 SWAP1 PUSH2 0x186B JUMP JUMPDEST PUSH1 0x40 MLOAD DUP1 SWAP2 SUB SWAP1 RETURN JUMPDEST PUSH2 0x23E PUSH2 0xFF2 JUMP JUMPDEST PUSH1 0x40 MLOAD PUSH2 0x24B SWAP2 SWAP1 PUSH2 0x186B JUMP JUMPDEST PUSH1 0x40 MLOAD DUP1 SWAP2 SUB SWAP1 RETURN JUMPDEST PUSH1 0x1 SLOAD DUP2 JUMP JUMPDEST PUSH1 0x0 PUSH2 0x3E8 PUSH2 0x3E5 DUP6 PUSH2 0x26D SWAP2 SWAP1 PUSH2 0x1952 JUMP JUMPDEST PUSH2 0x277 SWAP2 SWAP1 PUSH2 0x1921 JUMP JUMPDEST SWAP4 POP PUSH1 0x0 DUP3 DUP6 PUSH2 0x287 SWAP2 SWAP1 PUSH2 0x1952 JUMP JUMPDEST SWAP1 POP PUSH1 0x0 DUP6 DUP6 PUSH2 0x297 SWAP2 SWAP1 PUSH2 0x18CB JUMP JUMPDEST SWAP1 POP DUP1 DUP3 PUSH2 0x2A5 SWAP2 SWAP1 PUSH2 0x1921 JUMP JUMPDEST SWAP3 POP POP POP SWAP4 SWAP3 POP POP POP JUMP JUMPDEST PUSH1 0x0 DUP1 DUP3 PUSH1 0x2 PUSH1 0x0 CALLER PUSH20 0xFFFFFFFFFFFFFFFFFFFFFFFFFFFFFFFFFFFFFFFF AND PUSH20 0xFFFFFFFFFFFFFFFFFFFFFFFFFFFFFFFFFFFFFFFF AND DUP2 MSTORE PUSH1 0x20 ADD SWAP1 DUP2 MSTORE PUSH1 0x20 ADD PUSH1 0x0 KECCAK256 SLOAD LT ISZERO PUSH2 0x335 JUMPI PUSH1 0x40 MLOAD PUSH32 0x8C379A000000000000000000000000000000000000000000000000000000000 DUP2 MSTORE PUSH1 0x4 ADD PUSH2 0x32C SWAP1 PUSH2 0x16CB JUMP JUMPDEST PUSH1 0x40 MLOAD DUP1 SWAP2 SUB SWAP1 REVERT JUMPDEST SELFBALANCE PUSH1 0x1 SLOAD DUP5 PUSH2 0x344 SWAP2 SWAP1 PUSH2 0x1921 JUMP JUMPDEST PUSH2 0x34E SWAP2 SWAP1 PUSH2 0x1952 JUMP JUMPDEST SWAP2 POP PUSH1 0x0 DUP1 SLOAD SWAP1 PUSH2 0x100 EXP SWAP1 DIV PUSH20 0xFFFFFFFFFFFFFFFFFFFFFFFFFFFFFFFFFFFFFFFF AND PUSH20 0xFFFFFFFFFFFFFFFFFFFFFFFFFFFFFFFFFFFFFFFF AND PUSH4 0x70A08231 ADDRESS PUSH1 0x40 MLOAD DUP3 PUSH4 0xFFFFFFFF AND PUSH1 0xE0 SHL DUP2 MSTORE PUSH1 0x4 ADD PUSH2 0x3A9 SWAP2 SWAP1 PUSH2 0x1650 JUMP JUMPDEST PUSH1 0x20 PUSH1 0x40 MLOAD DUP1 DUP4 SUB DUP2 DUP7 DUP1 EXTCODESIZE ISZERO DUP1 ISZERO PUSH2 0x3C1 JUMPI PUSH1 0x0 DUP1 REVERT JUMPDEST POP GAS STATICCALL ISZERO DUP1 ISZERO PUSH2 0x3D5 JUMPI RETURNDATASIZE PUSH1 0x0 DUP1 RETURNDATACOPY RETURNDATASIZE PUSH1 0x0 REVERT JUMPDEST POP POP POP POP PUSH1 0x40 MLOAD RETURNDATASIZE PUSH1 0x1F NOT PUSH1 0x1F DUP3 ADD AND DUP3 ADD DUP1 PUSH1 0x40 MSTORE POP DUP2 ADD SWAP1 PUSH2 0x3F9 SWAP2 SWAP1 PUSH2 0x13B3 JUMP JUMPDEST PUSH1 0x1 SLOAD DUP5 PUSH2 0x407 SWAP2 SWAP1 PUSH2 0x1921 JUMP JUMPDEST PUSH2 0x411 SWAP2 SWAP1 PUSH2 0x1952 JUMP JUMPDEST SWAP1 POP DUP3 PUSH1 0x2 PUSH1 0x0 CALLER PUSH20 0xFFFFFFFFFFFFFFFFFFFFFFFFFFFFFFFFFFFFFFFF AND PUSH20 0xFFFFFFFFFFFFFFFFFFFFFFFFFFFFFFFFFFFFFFFF AND DUP2 MSTORE PUSH1 0x20 ADD SWAP1 DUP2 MSTORE PUSH1 0x20 ADD PUSH1 0x0 KECCAK256 PUSH1 0x0 DUP3 DUP3 SLOAD PUSH2 0x462 SWAP2 SWAP1 PUSH2 0x19AC JUMP JUMPDEST SWAP3 POP POP DUP2 SWAP1 SSTORE POP DUP3 PUSH1 0x1 PUSH1 0x0 DUP3 DUP3 SLOAD PUSH2 0x47B SWAP2 SWAP1 PUSH2 0x19AC JUMP JUMPDEST SWAP3 POP POP DUP2 SWAP1 SSTORE POP PUSH1 0x0 DUP1 SLOAD SWAP1 PUSH2 0x100 EXP SWAP1 DIV PUSH20 0xFFFFFFFFFFFFFFFFFFFFFFFFFFFFFFFFFFFFFFFF AND PUSH20 0xFFFFFFFFFFFFFFFFFFFFFFFFFFFFFFFFFFFFFFFF AND PUSH4 0xA9059CBB CALLER DUP4 PUSH1 0x40 MLOAD DUP4 PUSH4 0xFFFFFFFF AND PUSH1 0xE0 SHL DUP2 MSTORE PUSH1 0x4 ADD PUSH2 0x4DD SWAP3 SWAP2 SWAP1 PUSH2 0x16A2 JUMP JUMPDEST PUSH1 0x20 PUSH1 0x40 MLOAD DUP1 DUP4 SUB DUP2 PUSH1 0x0 DUP8 DUP1 EXTCODESIZE ISZERO DUP1 ISZERO PUSH2 0x4F7 JUMPI PUSH1 0x0 DUP1 REVERT JUMPDEST POP GAS CALL ISZERO DUP1 ISZERO PUSH2 0x50B JUMPI RETURNDATASIZE PUSH1 0x0 DUP1 RETURNDATACOPY RETURNDATASIZE PUSH1 0x0 REVERT JUMPDEST POP POP POP POP PUSH1 0x40 MLOAD RETURNDATASIZE PUSH1 0x1F NOT PUSH1 0x1F DUP3 ADD AND DUP3 ADD DUP1 PUSH1 0x40 MSTORE POP DUP2 ADD SWAP1 PUSH2 0x52F SWAP2 SWAP1 PUSH2 0x1359 JUMP JUMPDEST PUSH2 0x56E JUMPI PUSH1 0x40 MLOAD PUSH32 0x8C379A000000000000000000000000000000000000000000000000000000000 DUP2 MSTORE PUSH1 0x4 ADD PUSH2 0x565 SWAP1 PUSH2 0x178B JUMP JUMPDEST PUSH1 0x40 MLOAD DUP1 SWAP2 SUB SWAP1 REVERT JUMPDEST PUSH1 0x0 CALLER PUSH20 0xFFFFFFFFFFFFFFFFFFFFFFFFFFFFFFFFFFFFFFFF AND DUP4 PUSH1 0x40 MLOAD PUSH2 0x594 SWAP1 PUSH2 0x163B JUMP JUMPDEST PUSH1 0x0 PUSH1 0x40 MLOAD DUP1 DUP4 SUB DUP2 DUP6 DUP8 GAS CALL SWAP3 POP POP POP RETURNDATASIZE DUP1 PUSH1 0x0 DUP2 EQ PUSH2 0x5D1 JUMPI PUSH1 0x40 MLOAD SWAP2 POP PUSH1 0x1F NOT PUSH1 0x3F RETURNDATASIZE ADD AND DUP3 ADD PUSH1 0x40 MSTORE RETURNDATASIZE DUP3 MSTORE RETURNDATASIZE PUSH1 0x0 PUSH1 0x20 DUP5 ADD RETURNDATACOPY PUSH2 0x5D6 JUMP JUMPDEST PUSH1 0x60 SWAP2 POP JUMPDEST POP POP SWAP1 POP DUP1 PUSH2 0x61A JUMPI PUSH1 0x40 MLOAD PUSH32 0x8C379A000000000000000000000000000000000000000000000000000000000 DUP2 MSTORE PUSH1 0x4 ADD PUSH2 0x611 SWAP1 PUSH2 0x180B JUMP JUMPDEST PUSH1 0x40 MLOAD DUP1 SWAP2 SUB SWAP1 REVERT JUMPDEST DUP2 DUP4 DUP6 PUSH32 0x1DC8BB69DF2B8E91FBDCBFCF93D951B3F0000F085A95FE3F7946D6161439245D CALLER PUSH1 0x40 MLOAD PUSH2 0x64C SWAP2 SWAP1 PUSH2 0x1650 JUMP JUMPDEST PUSH1 0x40 MLOAD DUP1 SWAP2 SUB SWAP1 LOG4 POP SWAP2 POP SWAP2 JUMP JUMPDEST PUSH1 0x0 DUP1 DUP3 GT PUSH2 0x69E JUMPI PUSH1 0x40 MLOAD PUSH32 0x8C379A000000000000000000000000000000000000000000000000000000000 DUP2 MSTORE PUSH1 0x4 ADD PUSH2 0x695 SWAP1 PUSH2 0x184B JUMP JUMPDEST PUSH1 0x40 MLOAD DUP1 SWAP2 SUB SWAP1 REVERT JUMPDEST PUSH1 0x0 DUP1 SLOAD SWAP1 PUSH2 0x100 EXP SWAP1 DIV PUSH20 0xFFFFFFFFFFFFFFFFFFFFFFFFFFFFFFFFFFFFFFFF AND PUSH20 0xFFFFFFFFFFFFFFFFFFFFFFFFFFFFFFFFFFFFFFFF AND PUSH4 0x70A08231 CALLER PUSH1 0x40 MLOAD DUP3 PUSH4 0xFFFFFFFF AND PUSH1 0xE0 SHL DUP2 MSTORE PUSH1 0x4 ADD PUSH2 0x6F7 SWAP2 SWAP1 PUSH2 0x1650 JUMP JUMPDEST PUSH1 0x20 PUSH1 0x40 MLOAD DUP1 DUP4 SUB DUP2 DUP7 DUP1 EXTCODESIZE ISZERO DUP1 ISZERO PUSH2 0x70F JUMPI PUSH1 0x0 DUP1 REVERT JUMPDEST POP GAS STATICCALL ISZERO DUP1 ISZERO PUSH2 0x723 JUMPI RETURNDATASIZE PUSH1 0x0 DUP1 RETURNDATACOPY RETURNDATASIZE PUSH1 0x0 REVERT JUMPDEST POP POP POP POP PUSH1 0x40 MLOAD RETURNDATASIZE PUSH1 0x1F NOT PUSH1 0x1F DUP3 ADD AND DUP3 ADD DUP1 PUSH1 0x40 MSTORE POP DUP2 ADD SWAP1 PUSH2 0x747 SWAP2 SWAP1 PUSH2 0x13B3 JUMP JUMPDEST DUP3 GT ISZERO PUSH2 0x789 JUMPI PUSH1 0x40 MLOAD PUSH32 0x8C379A000000000000000000000000000000000000000000000000000000000 DUP2 MSTORE PUSH1 0x4 ADD PUSH2 0x780 SWAP1 PUSH2 0x170B JUMP JUMPDEST PUSH1 0x40 MLOAD DUP1 SWAP2 SUB SWAP1 REVERT JUMPDEST PUSH2 0x83C DUP3 PUSH1 0x0 DUP1 SLOAD SWAP1 PUSH2 0x100 EXP SWAP1 DIV PUSH20 0xFFFFFFFFFFFFFFFFFFFFFFFFFFFFFFFFFFFFFFFF AND PUSH20 0xFFFFFFFFFFFFFFFFFFFFFFFFFFFFFFFFFFFFFFFF AND PUSH4 0x70A08231 ADDRESS PUSH1 0x40 MLOAD DUP3 PUSH4 0xFFFFFFFF AND PUSH1 0xE0 SHL DUP2 MSTORE PUSH1 0x4 ADD PUSH2 0x7E6 SWAP2 SWAP1 PUSH2 0x1650 JUMP JUMPDEST PUSH1 0x20 PUSH1 0x40 MLOAD DUP1 DUP4 SUB DUP2 DUP7 DUP1 EXTCODESIZE ISZERO DUP1 ISZERO PUSH2 0x7FE JUMPI PUSH1 0x0 DUP1 REVERT JUMPDEST POP GAS STATICCALL ISZERO DUP1 ISZERO PUSH2 0x812 JUMPI RETURNDATASIZE PUSH1 0x0 DUP1 RETURNDATACOPY RETURNDATASIZE PUSH1 0x0 REVERT JUMPDEST POP POP POP POP PUSH1 0x40 MLOAD RETURNDATASIZE PUSH1 0x1F NOT PUSH1 0x1F DUP3 ADD AND DUP3 ADD DUP1 PUSH1 0x40 MSTORE POP DUP2 ADD SWAP1 PUSH2 0x836 SWAP2 SWAP1 PUSH2 0x13B3 JUMP JUMPDEST SELFBALANCE PUSH2 0x25A JUMP JUMPDEST SWAP1 POP SELFBALANCE DUP2 LT PUSH2 0x880 JUMPI PUSH1 0x40 MLOAD PUSH32 0x8C379A000000000000000000000000000000000000000000000000000000000 DUP2 MSTORE PUSH1 0x4 ADD PUSH2 0x877 SWAP1 PUSH2 0x176B JUMP JUMPDEST PUSH1 0x40 MLOAD DUP1 SWAP2 SUB SWAP1 REVERT JUMPDEST PUSH1 0x0 DUP1 SLOAD SWAP1 PUSH2 0x100 EXP SWAP1 DIV PUSH20 0xFFFFFFFFFFFFFFFFFFFFFFFFFFFFFFFFFFFFFFFF AND PUSH20 0xFFFFFFFFFFFFFFFFFFFFFFFFFFFFFFFFFFFFFFFF AND PUSH4 0x23B872DD CALLER ADDRESS DUP6 PUSH1 0x40 MLOAD DUP5 PUSH4 0xFFFFFFFF AND PUSH1 0xE0 SHL DUP2 MSTORE PUSH1 0x4 ADD PUSH2 0x8DD SWAP4 SWAP3 SWAP2 SWAP1 PUSH2 0x166B JUMP JUMPDEST PUSH1 0x20 PUSH1 0x40 MLOAD DUP1 DUP4 SUB DUP2 PUSH1 0x0 DUP8 DUP1 EXTCODESIZE ISZERO DUP1 ISZERO PUSH2 0x8F7 JUMPI PUSH1 0x0 DUP1 REVERT JUMPDEST POP GAS CALL ISZERO DUP1 ISZERO PUSH2 0x90B JUMPI RETURNDATASIZE PUSH1 0x0 DUP1 RETURNDATACOPY RETURNDATASIZE PUSH1 0x0 REVERT JUMPDEST POP POP POP POP PUSH1 0x40 MLOAD RETURNDATASIZE PUSH1 0x1F NOT PUSH1 0x1F DUP3 ADD AND DUP3 ADD DUP1 PUSH1 0x40 MSTORE POP DUP2 ADD SWAP1 PUSH2 0x92F SWAP2 SWAP1 PUSH2 0x1359 JUMP JUMPDEST PUSH2 0x96E JUMPI PUSH1 0x40 MLOAD PUSH32 0x8C379A000000000000000000000000000000000000000000000000000000000 DUP2 MSTORE PUSH1 0x4 ADD PUSH2 0x965 SWAP1 PUSH2 0x178B JUMP JUMPDEST PUSH1 0x40 MLOAD DUP1 SWAP2 SUB SWAP1 REVERT JUMPDEST PUSH1 0x0 CALLER PUSH20 0xFFFFFFFFFFFFFFFFFFFFFFFFFFFFFFFFFFFFFFFF AND DUP3 PUSH1 0x40 MLOAD PUSH2 0x994 SWAP1 PUSH2 0x163B JUMP JUMPDEST PUSH1 0x0 PUSH1 0x40 MLOAD DUP1 DUP4 SUB DUP2 DUP6 DUP8 GAS CALL SWAP3 POP POP POP RETURNDATASIZE DUP1 PUSH1 0x0 DUP2 EQ PUSH2 0x9D1 JUMPI PUSH1 0x40 MLOAD SWAP2 POP PUSH1 0x1F NOT PUSH1 0x3F RETURNDATASIZE ADD AND DUP3 ADD PUSH1 0x40 MSTORE RETURNDATASIZE DUP3 MSTORE RETURNDATASIZE PUSH1 0x0 PUSH1 0x20 DUP5 ADD RETURNDATACOPY PUSH2 0x9D6 JUMP JUMPDEST PUSH1 0x60 SWAP2 POP JUMPDEST POP POP SWAP1 POP DUP1 PUSH2 0xA1A JUMPI PUSH1 0x40 MLOAD PUSH32 0x8C379A000000000000000000000000000000000000000000000000000000000 DUP2 MSTORE PUSH1 0x4 ADD PUSH2 0xA11 SWAP1 PUSH2 0x180B JUMP JUMPDEST PUSH1 0x40 MLOAD DUP1 SWAP2 SUB SWAP1 REVERT JUMPDEST DUP3 DUP3 CALLER PUSH20 0xFFFFFFFFFFFFFFFFFFFFFFFFFFFFFFFFFFFFFFFF AND PUSH32 0x472303B1E7CA7D00FB77F255C0A8C577F9CA4264C0306AAED3FF18E831523A6D PUSH1 0x40 MLOAD PUSH1 0x40 MLOAD DUP1 SWAP2 SUB SWAP1 LOG4 POP SWAP2 SWAP1 POP JUMP JUMPDEST PUSH1 0x0 DUP1 CALLVALUE GT PUSH2 0xAA9 JUMPI PUSH1 0x40 MLOAD PUSH32 0x8C379A000000000000000000000000000000000000000000000000000000000 DUP2 MSTORE PUSH1 0x4 ADD PUSH2 0xAA0 SWAP1 PUSH2 0x174B JUMP JUMPDEST PUSH1 0x40 MLOAD DUP1 SWAP2 SUB SWAP1 REVERT JUMPDEST PUSH2 0xB67 CALLVALUE CALLVALUE SELFBALANCE PUSH2 0xAB9 SWAP2 SWAP1 PUSH2 0x19AC JUMP JUMPDEST PUSH1 0x0 DUP1 SLOAD SWAP1 PUSH2 0x100 EXP SWAP1 DIV PUSH20 0xFFFFFFFFFFFFFFFFFFFFFFFFFFFFFFFFFFFFFFFF AND PUSH20 0xFFFFFFFFFFFFFFFFFFFFFFFFFFFFFFFFFFFFFFFF AND PUSH4 0x70A08231 ADDRESS PUSH1 0x40 MLOAD DUP3 PUSH4 0xFFFFFFFF AND PUSH1 0xE0 SHL DUP2 MSTORE PUSH1 0x4 ADD PUSH2 0xB12 SWAP2 SWAP1 PUSH2 0x1650 JUMP JUMPDEST PUSH1 0x20 PUSH1 0x40 MLOAD DUP1 DUP4 SUB DUP2 DUP7 DUP1 EXTCODESIZE ISZERO DUP1 ISZERO PUSH2 0xB2A JUMPI PUSH1 0x0 DUP1 REVERT JUMPDEST POP GAS STATICCALL ISZERO DUP1 ISZERO PUSH2 0xB3E JUMPI RETURNDATASIZE PUSH1 0x0 DUP1 RETURNDATACOPY RETURNDATASIZE PUSH1 0x0 REVERT JUMPDEST POP POP POP POP PUSH1 0x40 MLOAD RETURNDATASIZE PUSH1 0x1F NOT PUSH1 0x1F DUP3 ADD AND DUP3 ADD DUP1 PUSH1 0x40 MSTORE POP DUP2 ADD SWAP1 PUSH2 0xB62 SWAP2 SWAP1 PUSH2 0x13B3 JUMP JUMPDEST PUSH2 0x25A JUMP JUMPDEST SWAP1 POP PUSH1 0x0 DUP1 SLOAD SWAP1 PUSH2 0x100 EXP SWAP1 DIV PUSH20 0xFFFFFFFFFFFFFFFFFFFFFFFFFFFFFFFFFFFFFFFF AND PUSH20 0xFFFFFFFFFFFFFFFFFFFFFFFFFFFFFFFFFFFFFFFF AND PUSH4 0x70A08231 ADDRESS PUSH1 0x40 MLOAD DUP3 PUSH4 0xFFFFFFFF AND PUSH1 0xE0 SHL DUP2 MSTORE PUSH1 0x4 ADD PUSH2 0xBC2 SWAP2 SWAP1 PUSH2 0x1650 JUMP JUMPDEST PUSH1 0x20 PUSH1 0x40 MLOAD DUP1 DUP4 SUB DUP2 DUP7 DUP1 EXTCODESIZE ISZERO DUP1 ISZERO PUSH2 0xBDA JUMPI PUSH1 0x0 DUP1 REVERT JUMPDEST POP GAS STATICCALL ISZERO DUP1 ISZERO PUSH2 0xBEE JUMPI RETURNDATASIZE PUSH1 0x0 DUP1 RETURNDATACOPY RETURNDATASIZE PUSH1 0x0 REVERT JUMPDEST POP POP POP POP PUSH1 0x40 MLOAD RETURNDATASIZE PUSH1 0x1F NOT PUSH1 0x1F DUP3 ADD AND DUP3 ADD DUP1 PUSH1 0x40 MSTORE POP DUP2 ADD SWAP1 PUSH2 0xC12 SWAP2 SWAP1 PUSH2 0x13B3 JUMP JUMPDEST DUP2 LT PUSH2 0xC53 JUMPI PUSH1 0x40 MLOAD PUSH32 0x8C379A000000000000000000000000000000000000000000000000000000000 DUP2 MSTORE PUSH1 0x4 ADD PUSH2 0xC4A SWAP1 PUSH2 0x17AB JUMP JUMPDEST PUSH1 0x40 MLOAD DUP1 SWAP2 SUB SWAP1 REVERT JUMPDEST PUSH1 0x0 DUP1 SLOAD SWAP1 PUSH2 0x100 EXP SWAP1 DIV PUSH20 0xFFFFFFFFFFFFFFFFFFFFFFFFFFFFFFFFFFFFFFFF AND PUSH20 0xFFFFFFFFFFFFFFFFFFFFFFFFFFFFFFFFFFFFFFFF AND PUSH4 0xA9059CBB CALLER DUP4 PUSH1 0x40 MLOAD DUP4 PUSH4 0xFFFFFFFF AND PUSH1 0xE0 SHL DUP2 MSTORE PUSH1 0x4 ADD PUSH2 0xCAE SWAP3 SWAP2 SWAP1 PUSH2 0x16A2 JUMP JUMPDEST PUSH1 0x20 PUSH1 0x40 MLOAD DUP1 DUP4 SUB DUP2 PUSH1 0x0 DUP8 DUP1 EXTCODESIZE ISZERO DUP1 ISZERO PUSH2 0xCC8 JUMPI PUSH1 0x0 DUP1 REVERT JUMPDEST POP GAS CALL ISZERO DUP1 ISZERO PUSH2 0xCDC JUMPI RETURNDATASIZE PUSH1 0x0 DUP1 RETURNDATACOPY RETURNDATASIZE PUSH1 0x0 REVERT JUMPDEST POP POP POP POP PUSH1 0x40 MLOAD RETURNDATASIZE PUSH1 0x1F NOT PUSH1 0x1F DUP3 ADD AND DUP3 ADD DUP1 PUSH1 0x40 MSTORE POP DUP2 ADD SWAP1 PUSH2 0xD00 SWAP2 SWAP1 PUSH2 0x1359 JUMP JUMPDEST PUSH2 0xD3F JUMPI PUSH1 0x40 MLOAD PUSH32 0x8C379A000000000000000000000000000000000000000000000000000000000 DUP2 MSTORE PUSH1 0x4 ADD PUSH2 0xD36 SWAP1 PUSH2 0x182B JUMP JUMPDEST PUSH1 0x40 MLOAD DUP1 SWAP2 SUB SWAP1 REVERT JUMPDEST DUP1 CALLVALUE CALLER PUSH20 0xFFFFFFFFFFFFFFFFFFFFFFFFFFFFFFFFFFFFFFFF AND PUSH32 0x6D4870E9281C01EA54A4420C8684AC713B77F0C590B40C4B1FBF4C6BA892CCEA PUSH1 0x40 MLOAD PUSH1 0x40 MLOAD DUP1 SWAP2 SUB SWAP1 LOG4 SWAP1 JUMP JUMPDEST PUSH1 0x0 PUSH1 0x2 PUSH1 0x0 DUP4 PUSH20 0xFFFFFFFFFFFFFFFFFFFFFFFFFFFFFFFFFFFFFFFF AND PUSH20 0xFFFFFFFFFFFFFFFFFFFFFFFFFFFFFFFFFFFFFFFF AND DUP2 MSTORE PUSH1 0x20 ADD SWAP1 DUP2 MSTORE PUSH1 0x20 ADD PUSH1 0x0 KECCAK256 SLOAD SWAP1 POP SWAP2 SWAP1 POP JUMP JUMPDEST PUSH1 0x0 DUP1 CALLVALUE GT PUSH2 0xE14 JUMPI PUSH1 0x40 MLOAD PUSH32 0x8C379A000000000000000000000000000000000000000000000000000000000 DUP2 MSTORE PUSH1 0x4 ADD PUSH2 0xE0B SWAP1 PUSH2 0x17EB JUMP JUMPDEST PUSH1 0x40 MLOAD DUP1 SWAP2 SUB SWAP1 REVERT JUMPDEST DUP2 CALLVALUE EQ PUSH2 0xE56 JUMPI PUSH1 0x40 MLOAD PUSH32 0x8C379A000000000000000000000000000000000000000000000000000000000 DUP2 MSTORE PUSH1 0x4 ADD PUSH2 0xE4D SWAP1 PUSH2 0x17CB JUMP JUMPDEST PUSH1 0x40 MLOAD DUP1 SWAP2 SUB SWAP1 REVERT JUMPDEST PUSH1 0x0 PUSH1 0x1 SLOAD EQ PUSH2 0xE9B JUMPI PUSH1 0x40 MLOAD PUSH32 0x8C379A000000000000000000000000000000000000000000000000000000000 DUP2 MSTORE PUSH1 0x4 ADD PUSH2 0xE92 SWAP1 PUSH2 0x172B JUMP JUMPDEST PUSH1 0x40 MLOAD DUP1 SWAP2 SUB SWAP1 REVERT JUMPDEST PUSH1 0x0 DUP1 SLOAD SWAP1 PUSH2 0x100 EXP SWAP1 DIV PUSH20 0xFFFFFFFFFFFFFFFFFFFFFFFFFFFFFFFFFFFFFFFF AND PUSH20 0xFFFFFFFFFFFFFFFFFFFFFFFFFFFFFFFFFFFFFFFF AND PUSH4 0x23B872DD CALLER ADDRESS DUP6 PUSH1 0x40 MLOAD DUP5 PUSH4 0xFFFFFFFF AND PUSH1 0xE0 SHL DUP2 MSTORE PUSH1 0x4 ADD PUSH2 0xEF8 SWAP4 SWAP3 SWAP2 SWAP1 PUSH2 0x166B JUMP JUMPDEST PUSH1 0x20 PUSH1 0x40 MLOAD DUP1 DUP4 SUB DUP2 PUSH1 0x0 DUP8 DUP1 EXTCODESIZE ISZERO DUP1 ISZERO PUSH2 0xF12 JUMPI PUSH1 0x0 DUP1 REVERT JUMPDEST POP GAS CALL ISZERO DUP1 ISZERO PUSH2 0xF26 JUMPI RETURNDATASIZE PUSH1 0x0 DUP1 RETURNDATACOPY RETURNDATASIZE PUSH1 0x0 REVERT JUMPDEST POP POP POP POP PUSH1 0x40 MLOAD RETURNDATASIZE PUSH1 0x1F NOT PUSH1 0x1F DUP3 ADD AND DUP3 ADD DUP1 PUSH1 0x40 MSTORE POP DUP2 ADD SWAP1 PUSH2 0xF4A SWAP2 SWAP1 PUSH2 0x1359 JUMP JUMPDEST PUSH2 0xF89 JUMPI PUSH1 0x40 MLOAD PUSH32 0x8C379A000000000000000000000000000000000000000000000000000000000 DUP2 MSTORE PUSH1 0x4 ADD PUSH2 0xF80 SWAP1 PUSH2 0x182B JUMP JUMPDEST PUSH1 0x40 MLOAD DUP1 SWAP2 SUB SWAP1 REVERT JUMPDEST CALLVALUE PUSH1 0x2 PUSH1 0x0 CALLER PUSH20 0xFFFFFFFFFFFFFFFFFFFFFFFFFFFFFFFFFFFFFFFF AND PUSH20 0xFFFFFFFFFFFFFFFFFFFFFFFFFFFFFFFFFFFFFFFF AND DUP2 MSTORE PUSH1 0x20 ADD SWAP1 DUP2 MSTORE PUSH1 0x20 ADD PUSH1 0x0 KECCAK256 DUP2 SWAP1 SSTORE POP SELFBALANCE PUSH1 0x1 DUP2 SWAP1 SSTORE SWAP1 POP SWAP2 SWAP1 POP JUMP JUMPDEST PUSH1 0x2 PUSH1 0x20 MSTORE DUP1 PUSH1 0x0 MSTORE PUSH1 0x40 PUSH1 0x0 KECCAK256 PUSH1 0x0 SWAP2 POP SWAP1 POP SLOAD DUP2 JUMP JUMPDEST PUSH1 0x0 DUP1 CALLVALUE GT PUSH2 0x1036 JUMPI PUSH1 0x40 MLOAD PUSH32 0x8C379A000000000000000000000000000000000000000000000000000000000 DUP2 MSTORE PUSH1 0x4 ADD PUSH2 0x102D SWAP1 PUSH2 0x16EB JUMP JUMPDEST PUSH1 0x40 MLOAD DUP1 SWAP2 SUB SWAP1 REVERT JUMPDEST PUSH1 0x0 CALLVALUE SWAP1 POP PUSH1 0x0 DUP1 PUSH1 0x0 SWAP1 SLOAD SWAP1 PUSH2 0x100 EXP SWAP1 DIV PUSH20 0xFFFFFFFFFFFFFFFFFFFFFFFFFFFFFFFFFFFFFFFF AND PUSH20 0xFFFFFFFFFFFFFFFFFFFFFFFFFFFFFFFFFFFFFFFF AND PUSH4 0x70A08231 ADDRESS PUSH1 0x40 MLOAD DUP3 PUSH4 0xFFFFFFFF AND PUSH1 0xE0 SHL DUP2 MSTORE PUSH1 0x4 ADD PUSH2 0x1097 SWAP2 SWAP1 PUSH2 0x1650 JUMP JUMPDEST PUSH1 0x20 PUSH1 0x40 MLOAD DUP1 DUP4 SUB DUP2 DUP7 DUP1 EXTCODESIZE ISZERO DUP1 ISZERO PUSH2 0x10AF JUMPI PUSH1 0x0 DUP1 REVERT JUMPDEST POP GAS STATICCALL ISZERO DUP1 ISZERO PUSH2 0x10C3 JUMPI RETURNDATASIZE PUSH1 0x0 DUP1 RETURNDATACOPY RETURNDATASIZE PUSH1 0x0 REVERT JUMPDEST POP POP POP POP PUSH1 0x40 MLOAD RETURNDATASIZE PUSH1 0x1F NOT PUSH1 0x1F DUP3 ADD AND DUP3 ADD DUP1 PUSH1 0x40 MSTORE POP DUP2 ADD SWAP1 PUSH2 0x10E7 SWAP2 SWAP1 PUSH2 0x13B3 JUMP JUMPDEST SWAP1 POP PUSH1 0x0 CALLVALUE SELFBALANCE PUSH2 0x10F7 SWAP2 SWAP1 PUSH2 0x19AC JUMP JUMPDEST SWAP1 POP DUP3 DUP2 PUSH2 0x1105 SWAP2 SWAP1 PUSH2 0x18CB JUMP JUMPDEST DUP3 DUP5 PUSH2 0x1111 SWAP2 SWAP1 PUSH2 0x1952 JUMP JUMPDEST PUSH2 0x111B SWAP2 SWAP1 PUSH2 0x1921 JUMP JUMPDEST SWAP4 POP PUSH1 0x0 DUP2 PUSH1 0x1 SLOAD DUP6 PUSH2 0x112E SWAP2 SWAP1 PUSH2 0x1952 JUMP JUMPDEST PUSH2 0x1138 SWAP2 SWAP1 PUSH2 0x1921 JUMP JUMPDEST SWAP1 POP DUP1 PUSH1 0x2 PUSH1 0x0 CALLER PUSH20 0xFFFFFFFFFFFFFFFFFFFFFFFFFFFFFFFFFFFFFFFF AND PUSH20 0xFFFFFFFFFFFFFFFFFFFFFFFFFFFFFFFFFFFFFFFF AND DUP2 MSTORE PUSH1 0x20 ADD SWAP1 DUP2 MSTORE PUSH1 0x20 ADD PUSH1 0x0 KECCAK256 PUSH1 0x0 DUP3 DUP3 SLOAD PUSH2 0x1189 SWAP2 SWAP1 PUSH2 0x18CB JUMP JUMPDEST SWAP3 POP POP DUP2 SWAP1 SSTORE POP DUP1 PUSH1 0x1 PUSH1 0x0 DUP3 DUP3 SLOAD PUSH2 0x11A2 SWAP2 SWAP1 PUSH2 0x18CB JUMP JUMPDEST SWAP3 POP POP DUP2 SWAP1 SSTORE POP PUSH1 0x0 DUP1 SLOAD SWAP1 PUSH2 0x100 EXP SWAP1 DIV PUSH20 0xFFFFFFFFFFFFFFFFFFFFFFFFFFFFFFFFFFFFFFFF AND PUSH20 0xFFFFFFFFFFFFFFFFFFFFFFFFFFFFFFFFFFFFFFFF AND PUSH4 0x23B872DD CALLER ADDRESS DUP9 PUSH1 0x40 MLOAD DUP5 PUSH4 0xFFFFFFFF AND PUSH1 0xE0 SHL DUP2 MSTORE PUSH1 0x4 ADD PUSH2 0x1206 SWAP4 SWAP3 SWAP2 SWAP1 PUSH2 0x166B JUMP JUMPDEST PUSH1 0x20 PUSH1 0x40 MLOAD DUP1 DUP4 SUB DUP2 PUSH1 0x0 DUP8 DUP1 EXTCODESIZE ISZERO DUP1 ISZERO PUSH2 0x1220 JUMPI PUSH1 0x0 DUP1 REVERT JUMPDEST POP GAS CALL ISZERO DUP1 ISZERO PUSH2 0x1234 JUMPI RETURNDATASIZE PUSH1 0x0 DUP1 RETURNDATACOPY RETURNDATASIZE PUSH1 0x0 REVERT JUMPDEST POP POP POP POP PUSH1 0x40 MLOAD RETURNDATASIZE PUSH1 0x1F NOT PUSH1 0x1F DUP3 ADD AND DUP3 ADD DUP1 PUSH1 0x40 MSTORE POP DUP2 ADD SWAP1 PUSH2 0x1258 SWAP2 SWAP1 PUSH2 0x1359 JUMP JUMPDEST PUSH2 0x1297 JUMPI PUSH1 0x40 MLOAD PUSH32 0x8C379A000000000000000000000000000000000000000000000000000000000 DUP2 MSTORE PUSH1 0x4 ADD PUSH2 0x128E SWAP1 PUSH2 0x178B JUMP JUMPDEST PUSH1 0x40 MLOAD DUP1 SWAP2 SUB SWAP1 REVERT JUMPDEST DUP5 CALLVALUE DUP3 PUSH32 0x3BCA7014F4C0CCC8016338C79F4C00E82068DBADAF4F01CA5449040FDD39F500 CALLER PUSH1 0x40 MLOAD PUSH2 0x12C9 SWAP2 SWAP1 PUSH2 0x1650 JUMP JUMPDEST PUSH1 0x40 MLOAD DUP1 SWAP2 SUB SWAP1 LOG4 POP POP POP POP SWAP1 JUMP JUMPDEST PUSH1 0x0 DUP2 CALLDATALOAD SWAP1 POP PUSH2 0x12E7 DUP2 PUSH2 0x1CA3 JUMP JUMPDEST SWAP3 SWAP2 POP POP JUMP JUMPDEST PUSH1 0x0 DUP2 MLOAD SWAP1 POP PUSH2 0x12FC DUP2 PUSH2 0x1CBA JUMP JUMPDEST SWAP3 SWAP2 POP POP JUMP JUMPDEST PUSH1 0x0 DUP2 CALLDATALOAD SWAP1 POP PUSH2 0x1311 DUP2 PUSH2 0x1CD1 JUMP JUMPDEST SWAP3 SWAP2 POP POP JUMP JUMPDEST PUSH1 0x0 DUP2 MLOAD SWAP1 POP PUSH2 0x1326 DUP2 PUSH2 0x1CD1 JUMP JUMPDEST SWAP3 SWAP2 POP POP JUMP JUMPDEST PUSH1 0x0 PUSH1 0x20 DUP3 DUP5 SUB SLT ISZERO PUSH2 0x1342 JUMPI PUSH2 0x1341 PUSH2 0x1A86 JUMP JUMPDEST JUMPDEST PUSH1 0x0 PUSH2 0x1350 DUP5 DUP3 DUP6 ADD PUSH2 0x12D8 JUMP JUMPDEST SWAP2 POP POP SWAP3 SWAP2 POP POP JUMP JUMPDEST PUSH1 0x0 PUSH1 0x20 DUP3 DUP5 SUB SLT ISZERO PUSH2 0x136F JUMPI PUSH2 0x136E PUSH2 0x1A86 JUMP JUMPDEST JUMPDEST PUSH1 0x0 PUSH2 0x137D DUP5 DUP3 DUP6 ADD PUSH2 0x12ED JUMP JUMPDEST SWAP2 POP POP SWAP3 SWAP2 POP POP JUMP JUMPDEST PUSH1 0x0 PUSH1 0x20 DUP3 DUP5 SUB SLT ISZERO PUSH2 0x139C JUMPI PUSH2 0x139B PUSH2 0x1A86 JUMP JUMPDEST JUMPDEST PUSH1 0x0 PUSH2 0x13AA DUP5 DUP3 DUP6 ADD PUSH2 0x1302 JUMP JUMPDEST SWAP2 POP POP SWAP3 SWAP2 POP POP JUMP JUMPDEST PUSH1 0x0 PUSH1 0x20 DUP3 DUP5 SUB SLT ISZERO PUSH2 0x13C9 JUMPI PUSH2 0x13C8 PUSH2 0x1A86 JUMP JUMPDEST JUMPDEST PUSH1 0x0 PUSH2 0x13D7 DUP5 DUP3 DUP6 ADD PUSH2 0x1317 JUMP JUMPDEST SWAP2 POP POP SWAP3 SWAP2 POP POP JUMP JUMPDEST PUSH1 0x0 DUP1 PUSH1 0x0 PUSH1 0x60 DUP5 DUP7 SUB SLT ISZERO PUSH2 0x13F9 JUMPI PUSH2 0x13F8 PUSH2 0x1A86 JUMP JUMPDEST JUMPDEST PUSH1 0x0 PUSH2 0x1407 DUP7 DUP3 DUP8 ADD PUSH2 0x1302 JUMP JUMPDEST SWAP4 POP POP PUSH1 0x20 PUSH2 0x1418 DUP7 DUP3 DUP8 ADD PUSH2 0x1302 JUMP JUMPDEST SWAP3 POP POP PUSH1 0x40 PUSH2 0x1429 DUP7 DUP3 DUP8 ADD PUSH2 0x1302 JUMP JUMPDEST SWAP2 POP POP SWAP3 POP SWAP3 POP SWAP3 JUMP JUMPDEST PUSH2 0x143C DUP2 PUSH2 0x19E0 JUMP JUMPDEST DUP3 MSTORE POP POP JUMP JUMPDEST PUSH1 0x0 PUSH2 0x144F PUSH1 0x11 DUP4 PUSH2 0x18BA JUMP JUMPDEST SWAP2 POP PUSH2 0x145A DUP3 PUSH2 0x1A8B JUMP JUMPDEST PUSH1 0x20 DUP3 ADD SWAP1 POP SWAP2 SWAP1 POP JUMP JUMPDEST PUSH1 0x0 PUSH2 0x1472 PUSH1 0x16 DUP4 PUSH2 0x18BA JUMP JUMPDEST SWAP2 POP PUSH2 0x147D DUP3 PUSH2 0x1AB4 JUMP JUMPDEST PUSH1 0x20 DUP3 ADD SWAP1 POP SWAP2 SWAP1 POP JUMP JUMPDEST PUSH1 0x0 PUSH2 0x1495 PUSH1 0x14 DUP4 PUSH2 0x18BA JUMP JUMPDEST SWAP2 POP PUSH2 0x14A0 DUP3 PUSH2 0x1ADD JUMP JUMPDEST PUSH1 0x20 DUP3 ADD SWAP1 POP SWAP2 SWAP1 POP JUMP JUMPDEST PUSH1 0x0 PUSH2 0x14B8 PUSH1 0x17 DUP4 PUSH2 0x18BA JUMP JUMPDEST SWAP2 POP PUSH2 0x14C3 DUP3 PUSH2 0x1B06 JUMP JUMPDEST PUSH1 0x20 DUP3 ADD SWAP1 POP SWAP2 SWAP1 POP JUMP JUMPDEST PUSH1 0x0 PUSH2 0x14DB PUSH1 0xD DUP4 PUSH2 0x18BA JUMP JUMPDEST SWAP2 POP PUSH2 0x14E6 DUP3 PUSH2 0x1B2F JUMP JUMPDEST PUSH1 0x20 DUP3 ADD SWAP1 POP SWAP2 SWAP1 POP JUMP JUMPDEST PUSH1 0x0 PUSH2 0x14FE PUSH1 0xE DUP4 PUSH2 0x18BA JUMP JUMPDEST SWAP2 POP PUSH2 0x1509 DUP3 PUSH2 0x1B58 JUMP JUMPDEST PUSH1 0x20 DUP3 ADD SWAP1 POP SWAP2 SWAP1 POP JUMP JUMPDEST PUSH1 0x0 PUSH2 0x1521 PUSH1 0x15 DUP4 PUSH2 0x18BA JUMP JUMPDEST SWAP2 POP PUSH2 0x152C DUP3 PUSH2 0x1B81 JUMP JUMPDEST PUSH1 0x20 DUP3 ADD SWAP1 POP SWAP2 SWAP1 POP JUMP JUMPDEST PUSH1 0x0 PUSH2 0x1544 PUSH1 0x11 DUP4 PUSH2 0x18BA JUMP JUMPDEST SWAP2 POP PUSH2 0x154F DUP3 PUSH2 0x1BAA JUMP JUMPDEST PUSH1 0x20 DUP3 ADD SWAP1 POP SWAP2 SWAP1 POP JUMP JUMPDEST PUSH1 0x0 PUSH2 0x1567 PUSH1 0x18 DUP4 PUSH2 0x18BA JUMP JUMPDEST SWAP2 POP PUSH2 0x1572 DUP3 PUSH2 0x1BD3 JUMP JUMPDEST PUSH1 0x20 DUP3 ADD SWAP1 POP SWAP2 SWAP1 POP JUMP JUMPDEST PUSH1 0x0 PUSH2 0x158A PUSH1 0x10 DUP4 PUSH2 0x18BA JUMP JUMPDEST SWAP2 POP PUSH2 0x1595 DUP3 PUSH2 0x1BFC JUMP JUMPDEST PUSH1 0x20 DUP3 ADD SWAP1 POP SWAP2 SWAP1 POP JUMP JUMPDEST PUSH1 0x0 PUSH2 0x15AD PUSH1 0x0 DUP4 PUSH2 0x18AF JUMP JUMPDEST SWAP2 POP PUSH2 0x15B8 DUP3 PUSH2 0x1C25 JUMP JUMPDEST PUSH1 0x0 DUP3 ADD SWAP1 POP SWAP2 SWAP1 POP JUMP JUMPDEST PUSH1 0x0 PUSH2 0x15D0 PUSH1 0x13 DUP4 PUSH2 0x18BA JUMP JUMPDEST SWAP2 POP PUSH2 0x15DB DUP3 PUSH2 0x1C28 JUMP JUMPDEST PUSH1 0x20 DUP3 ADD SWAP1 POP SWAP2 SWAP1 POP JUMP JUMPDEST PUSH1 0x0 PUSH2 0x15F3 PUSH1 0xF DUP4 PUSH2 0x18BA JUMP JUMPDEST SWAP2 POP PUSH2 0x15FE DUP3 PUSH2 0x1C51 JUMP JUMPDEST PUSH1 0x20 DUP3 ADD SWAP1 POP SWAP2 SWAP1 POP JUMP JUMPDEST PUSH1 0x0 PUSH2 0x1616 PUSH1 0x10 DUP4 PUSH2 0x18BA JUMP JUMPDEST SWAP2 POP PUSH2 0x1621 DUP3 PUSH2 0x1C7A JUMP JUMPDEST PUSH1 0x20 DUP3 ADD SWAP1 POP SWAP2 SWAP1 POP JUMP JUMPDEST PUSH2 0x1635 DUP2 PUSH2 0x1A1E JUMP JUMPDEST DUP3 MSTORE POP POP JUMP JUMPDEST PUSH1 0x0 PUSH2 0x1646 DUP3 PUSH2 0x15A0 JUMP JUMPDEST SWAP2 POP DUP2 SWAP1 POP SWAP2 SWAP1 POP JUMP JUMPDEST PUSH1 0x0 PUSH1 0x20 DUP3 ADD SWAP1 POP PUSH2 0x1665 PUSH1 0x0 DUP4 ADD DUP5 PUSH2 0x1433 JUMP JUMPDEST SWAP3 SWAP2 POP POP JUMP JUMPDEST PUSH1 0x0 PUSH1 0x60 DUP3 ADD SWAP1 POP PUSH2 0x1680 PUSH1 0x0 DUP4 ADD DUP7 PUSH2 0x1433 JUMP JUMPDEST PUSH2 0x168D PUSH1 0x20 DUP4 ADD DUP6 PUSH2 0x1433 JUMP JUMPDEST PUSH2 0x169A PUSH1 0x40 DUP4 ADD DUP5 PUSH2 0x162C JUMP JUMPDEST SWAP5 SWAP4 POP POP POP POP JUMP JUMPDEST PUSH1 0x0 PUSH1 0x40 DUP3 ADD SWAP1 POP PUSH2 0x16B7 PUSH1 0x0 DUP4 ADD DUP6 PUSH2 0x1433 JUMP JUMPDEST PUSH2 0x16C4 PUSH1 0x20 DUP4 ADD DUP5 PUSH2 0x162C JUMP JUMPDEST SWAP4 SWAP3 POP POP POP JUMP JUMPDEST PUSH1 0x0 PUSH1 0x20 DUP3 ADD SWAP1 POP DUP2 DUP2 SUB PUSH1 0x0 DUP4 ADD MSTORE PUSH2 0x16E4 DUP2 PUSH2 0x1442 JUMP JUMPDEST SWAP1 POP SWAP2 SWAP1 POP JUMP JUMPDEST PUSH1 0x0 PUSH1 0x20 DUP3 ADD SWAP1 POP DUP2 DUP2 SUB PUSH1 0x0 DUP4 ADD MSTORE PUSH2 0x1704 DUP2 PUSH2 0x1465 JUMP JUMPDEST SWAP1 POP SWAP2 SWAP1 POP JUMP JUMPDEST PUSH1 0x0 PUSH1 0x20 DUP3 ADD SWAP1 POP DUP2 DUP2 SUB PUSH1 0x0 DUP4 ADD MSTORE PUSH2 0x1724 DUP2 PUSH2 0x1488 JUMP JUMPDEST SWAP1 POP SWAP2 SWAP1 POP JUMP JUMPDEST PUSH1 0x0 PUSH1 0x20 DUP3 ADD SWAP1 POP DUP2 DUP2 SUB PUSH1 0x0 DUP4 ADD MSTORE PUSH2 0x1744 DUP2 PUSH2 0x14AB JUMP JUMPDEST SWAP1 POP SWAP2 SWAP1 POP JUMP JUMPDEST PUSH1 0x0 PUSH1 0x20 DUP3 ADD SWAP1 POP DUP2 DUP2 SUB PUSH1 0x0 DUP4 ADD MSTORE PUSH2 0x1764 DUP2 PUSH2 0x14CE JUMP JUMPDEST SWAP1 POP SWAP2 SWAP1 POP JUMP JUMPDEST PUSH1 0x0 PUSH1 0x20 DUP3 ADD SWAP1 POP DUP2 DUP2 SUB PUSH1 0x0 DUP4 ADD MSTORE PUSH2 0x1784 DUP2 PUSH2 0x14F1 JUMP JUMPDEST SWAP1 POP SWAP2 SWAP1 POP JUMP JUMPDEST PUSH1 0x0 PUSH1 0x20 DUP3 ADD SWAP1 POP DUP2 DUP2 SUB PUSH1 0x0 DUP4 ADD MSTORE PUSH2 0x17A4 DUP2 PUSH2 0x1514 JUMP JUMPDEST SWAP1 POP SWAP2 SWAP1 POP JUMP JUMPDEST PUSH1 0x0 PUSH1 0x20 DUP3 ADD SWAP1 POP DUP2 DUP2 SUB PUSH1 0x0 DUP4 ADD MSTORE PUSH2 0x17C4 DUP2 PUSH2 0x1537 JUMP JUMPDEST SWAP1 POP SWAP2 SWAP1 POP JUMP JUMPDEST PUSH1 0x0 PUSH1 0x20 DUP3 ADD SWAP1 POP DUP2 DUP2 SUB PUSH1 0x0 DUP4 ADD MSTORE PUSH2 0x17E4 DUP2 PUSH2 0x155A JUMP JUMPDEST SWAP1 POP SWAP2 SWAP1 POP JUMP JUMPDEST PUSH1 0x0 PUSH1 0x20 DUP3 ADD SWAP1 POP DUP2 DUP2 SUB PUSH1 0x0 DUP4 ADD MSTORE PUSH2 0x1804 DUP2 PUSH2 0x157D JUMP JUMPDEST SWAP1 POP SWAP2 SWAP1 POP JUMP JUMPDEST PUSH1 0x0 PUSH1 0x20 DUP3 ADD SWAP1 POP DUP2 DUP2 SUB PUSH1 0x0 DUP4 ADD MSTORE PUSH2 0x1824 DUP2 PUSH2 0x15C3 JUMP JUMPDEST SWAP1 POP SWAP2 SWAP1 POP JUMP JUMPDEST PUSH1 0x0 PUSH1 0x20 DUP3 ADD SWAP1 POP DUP2 DUP2 SUB PUSH1 0x0 DUP4 ADD MSTORE PUSH2 0x1844 DUP2 PUSH2 0x15E6 JUMP JUMPDEST SWAP1 POP SWAP2 SWAP1 POP JUMP JUMPDEST PUSH1 0x0 PUSH1 0x20 DUP3 ADD SWAP1 POP DUP2 DUP2 SUB PUSH1 0x0 DUP4 ADD MSTORE PUSH2 0x1864 DUP2 PUSH2 0x1609 JUMP JUMPDEST SWAP1 POP SWAP2 SWAP1 POP JUMP JUMPDEST PUSH1 0x0 PUSH1 0x20 DUP3 ADD SWAP1 POP PUSH2 0x1880 PUSH1 0x0 DUP4 ADD DUP5 PUSH2 0x162C JUMP JUMPDEST SWAP3 SWAP2 POP POP JUMP JUMPDEST PUSH1 0x0 PUSH1 0x40 DUP3 ADD SWAP1 POP PUSH2 0x189B PUSH1 0x0 DUP4 ADD DUP6 PUSH2 0x162C JUMP JUMPDEST PUSH2 0x18A8 PUSH1 0x20 DUP4 ADD DUP5 PUSH2 0x162C JUMP JUMPDEST SWAP4 SWAP3 POP POP POP JUMP JUMPDEST PUSH1 0x0 DUP2 SWAP1 POP SWAP3 SWAP2 POP POP JUMP JUMPDEST PUSH1 0x0 DUP3 DUP3 MSTORE PUSH1 0x20 DUP3 ADD SWAP1 POP SWAP3 SWAP2 POP POP JUMP JUMPDEST PUSH1 0x0 PUSH2 0x18D6 DUP3 PUSH2 0x1A1E JUMP JUMPDEST SWAP2 POP PUSH2 0x18E1 DUP4 PUSH2 0x1A1E JUMP JUMPDEST SWAP3 POP DUP3 PUSH32 0xFFFFFFFFFFFFFFFFFFFFFFFFFFFFFFFFFFFFFFFFFFFFFFFFFFFFFFFFFFFFFFFF SUB DUP3 GT ISZERO PUSH2 0x1916 JUMPI PUSH2 0x1915 PUSH2 0x1A28 JUMP JUMPDEST JUMPDEST DUP3 DUP3 ADD SWAP1 POP SWAP3 SWAP2 POP POP JUMP JUMPDEST PUSH1 0x0 PUSH2 0x192C DUP3 PUSH2 0x1A1E JUMP JUMPDEST SWAP2 POP PUSH2 0x1937 DUP4 PUSH2 0x1A1E JUMP JUMPDEST SWAP3 POP DUP3 PUSH2 0x1947 JUMPI PUSH2 0x1946 PUSH2 0x1A57 JUMP JUMPDEST JUMPDEST DUP3 DUP3 DIV SWAP1 POP SWAP3 SWAP2 POP POP JUMP JUMPDEST PUSH1 0x0 PUSH2 0x195D DUP3 PUSH2 0x1A1E JUMP JUMPDEST SWAP2 POP PUSH2 0x1968 DUP4 PUSH2 0x1A1E JUMP JUMPDEST SWAP3 POP DUP2 PUSH32 0xFFFFFFFFFFFFFFFFFFFFFFFFFFFFFFFFFFFFFFFFFFFFFFFFFFFFFFFFFFFFFFFF DIV DUP4 GT DUP3 ISZERO ISZERO AND ISZERO PUSH2 0x19A1 JUMPI PUSH2 0x19A0 PUSH2 0x1A28 JUMP JUMPDEST JUMPDEST DUP3 DUP3 MUL SWAP1 POP SWAP3 SWAP2 POP POP JUMP JUMPDEST PUSH1 0x0 PUSH2 0x19B7 DUP3 PUSH2 0x1A1E JUMP JUMPDEST SWAP2 POP PUSH2 0x19C2 DUP4 PUSH2 0x1A1E JUMP JUMPDEST SWAP3 POP DUP3 DUP3 LT ISZERO PUSH2 0x19D5 JUMPI PUSH2 0x19D4 PUSH2 0x1A28 JUMP JUMPDEST JUMPDEST DUP3 DUP3 SUB SWAP1 POP SWAP3 SWAP2 POP POP JUMP JUMPDEST PUSH1 0x0 PUSH2 0x19EB DUP3 PUSH2 0x19FE JUMP JUMPDEST SWAP1 POP SWAP2 SWAP1 POP JUMP JUMPDEST PUSH1 0x0 DUP2 ISZERO ISZERO SWAP1 POP SWAP2 SWAP1 POP JUMP JUMPDEST PUSH1 0x0 PUSH20 0xFFFFFFFFFFFFFFFFFFFFFFFFFFFFFFFFFFFFFFFF DUP3 AND SWAP1 POP SWAP2 SWAP1 POP JUMP JUMPDEST PUSH1 0x0 DUP2 SWAP1 POP SWAP2 SWAP1 POP JUMP JUMPDEST PUSH32 0x4E487B7100000000000000000000000000000000000000000000000000000000 PUSH1 0x0 MSTORE PUSH1 0x11 PUSH1 0x4 MSTORE PUSH1 0x24 PUSH1 0x0 REVERT JUMPDEST PUSH32 0x4E487B7100000000000000000000000000000000000000000000000000000000 PUSH1 0x0 MSTORE PUSH1 0x12 PUSH1 0x4 MSTORE PUSH1 0x24 PUSH1 0x0 REVERT JUMPDEST PUSH1 0x0 DUP1 REVERT JUMPDEST PUSH32 0x6E6F7420656E6F75676820736861726573000000000000000000000000000000 PUSH1 0x0 DUP3 ADD MSTORE POP JUMP JUMPDEST PUSH32 0x6E65656420746F2073656E64206C697175696469747900000000000000000000 PUSH1 0x0 DUP3 ADD MSTORE POP JUMP JUMPDEST PUSH32 0x696E76616C696420746F6B656E20616D6F756E74000000000000000000000000 PUSH1 0x0 DUP3 ADD MSTORE POP JUMP JUMPDEST PUSH32 0x44455820616C726561647920696E697469616C697A6564000000000000000000 PUSH1 0x0 DUP3 ADD MSTORE POP JUMP JUMPDEST PUSH32 0x6D7573742073656E642045544800000000000000000000000000000000000000 PUSH1 0x0 DUP3 ADD MSTORE POP JUMP JUMPDEST PUSH32 0x6E6F7420656E6F75676820455448000000000000000000000000000000000000 PUSH1 0x0 DUP3 ADD MSTORE POP JUMP JUMPDEST PUSH32 0x746F6B656E207472616E73666572206661696C65640000000000000000000000 PUSH1 0x0 DUP3 ADD MSTORE POP JUMP JUMPDEST PUSH32 0x6E6F7420656E6F75676820746F6B656E73000000000000000000000000000000 PUSH1 0x0 DUP3 ADD MSTORE POP JUMP JUMPDEST PUSH32 0x696E636F72726563742065786368616E67652076616C75650000000000000000 PUSH1 0x0 DUP3 ADD MSTORE POP JUMP JUMPDEST PUSH32 0x6E65656420746F2073656E642045544800000000000000000000000000000000 PUSH1 0x0 DUP3 ADD MSTORE POP JUMP JUMPDEST POP JUMP JUMPDEST PUSH32 0x455448207472616E73666572206661696C656400000000000000000000000000 PUSH1 0x0 DUP3 ADD MSTORE POP JUMP JUMPDEST PUSH32 0x7472616E73666572206661696C65640000000000000000000000000000000000 PUSH1 0x0 DUP3 ADD MSTORE POP JUMP JUMPDEST PUSH32 0x6D7573742073656E6420746F6B656E7300000000000000000000000000000000 PUSH1 0x0 DUP3 ADD MSTORE POP JUMP JUMPDEST PUSH2 0x1CAC DUP2 PUSH2 0x19E0 JUMP JUMPDEST DUP2 EQ PUSH2 0x1CB7 JUMPI PUSH1 0x0 DUP1 REVERT JUMPDEST POP JUMP JUMPDEST PUSH2 0x1CC3 DUP2 PUSH2 0x19F2 JUMP JUMPDEST DUP2 EQ PUSH2 0x1CCE JUMPI PUSH1 0x0 DUP1 REVERT JUMPDEST POP JUMP JUMPDEST PUSH2 0x1CDA DUP2 PUSH2 0x1A1E JUMP JUMPDEST DUP2 EQ PUSH2 0x1CE5 JUMPI PUSH1 0x0 DUP1 REVERT JUMPDEST POP JUMP INVALID LOG2 PUSH5 0x6970667358 0x22 SLT KECCAK256 CREATE2 XOR 0x27 MOD 0xD6 SWAP5 DUP16 0xC1 0xEF SLOAD 0x2B PUSH16 0x10C4AE75566045CDC913F48507239582 0xAA SWAP4 0x2C LOG3 PUSH5 0x736F6C6343 STOP ADDMOD SMOD STOP CALLER "
				},
				"gasEstimates": {
					"creation": {
						"codeDepositCost": "1490800",
						"executionCost": "infinite",
						"totalCost": "infinite"
					},
					"external": {
						"deposit()": "infinite",
						"ethToToken()": "infinite",
						"getLiquidity(address)": "2863",
						"init(uint256)": "infinite",
						"liquidity(address)": "2880",
						"price(uint256,uint256,uint256)": "infinite",
						"tokenToEth(uint256)": "infinite",
						"totalLiquidity()": "2430",
						"withdraw(uint256)": "infinite"
					}
				},
				"methodIdentifiers": {
					"deposit()": "d0e30db0",
					"ethToToken()": "789770f4",
					"getLiquidity(address)": "a747b93b",
					"init(uint256)": "b7b0422d",
					"liquidity(address)": "b8c876b1",
					"price(uint256,uint256,uint256)": "2071a9f4",
					"tokenToEth(uint256)": "70b2a30f",
					"totalLiquidity()": "15770f92",
					"withdraw(uint256)": "2e1a7d4d"
				}
			},
			"storageLayout": {
				"storage": [
					{
						"astId": 399,
						"contract": "contracts/DeFi/CPAMM2.sol:CPAMM",
						"label": "token",
						"offset": 0,
						"slot": "0",
						"type": "t_contract(IERC20)77"
					},
					{
						"astId": 401,
						"contract": "contracts/DeFi/CPAMM2.sol:CPAMM",
						"label": "totalLiquidity",
						"offset": 0,
						"slot": "1",
						"type": "t_uint256"
					},
					{
						"astId": 405,
						"contract": "contracts/DeFi/CPAMM2.sol:CPAMM",
						"label": "liquidity",
						"offset": 0,
						"slot": "2",
						"type": "t_mapping(t_address,t_uint256)"
					}
				],
				"types": {
					"t_address": {
						"encoding": "inplace",
						"label": "address",
						"numberOfBytes": "20"
					},
					"t_contract(IERC20)77": {
						"encoding": "inplace",
						"label": "contract IERC20",
						"numberOfBytes": "20"
					},
					"t_mapping(t_address,t_uint256)": {
						"encoding": "mapping",
						"key": "t_address",
						"label": "mapping(address => uint256)",
						"numberOfBytes": "32",
						"value": "t_uint256"
					},
					"t_uint256": {
						"encoding": "inplace",
						"label": "uint256",
						"numberOfBytes": "32"
					}
				}
			},
			"userdoc": {
				"events": {
					"EthToTokenSwap(address,uint256,uint256)": {
						"notice": "Emitted when ethToToken() swap transacted"
					},
					"LiquidityProvided(address,uint256,uint256,uint256)": {
						"notice": "Emitted when liquidity provided to DEX and mints LPTs."
					},
					"LiquidityRemoved(address,uint256,uint256,uint256)": {
						"notice": "Emitted when liquidity removed from DEX and decreases LPT count within DEX."
					},
					"TokenToEthSwap(address,uint256,uint256)": {
						"notice": "Emitted when tokenToEth() swap transacted"
					}
				},
				"kind": "user",
				"methods": {
					"deposit()": {
						"notice": "allows deposits of token and ETH to liquidity pool"
					},
					"ethToToken()": {
						"notice": "sends Ether to DEX in exchange for token"
					},
					"getLiquidity(address)": {
						"notice": "returns liquidity for a user."
					},
					"price(uint256,uint256,uint256)": {
						"notice": "returns yOutput, or yDelta for xInput (or xDelta)"
					},
					"tokenToEth(uint256)": {
						"notice": "sends token to DEX in exchange for Ether"
					},
					"withdraw(uint256)": {
						"notice": "allows withdrawal of tokens and ETH from liquidity pool"
					}
				},
				"version": 1
			}
		}
	}
}