{
	"contracts/DeFi/MultiSigV3.sol": {
		"MultiSigWallet": {
			"abi": [
				{
					"inputs": [
						{
							"internalType": "address[2]",
							"name": "_owners",
							"type": "address[2]"
						}
					],
					"stateMutability": "payable",
					"type": "constructor"
				},
				{
					"inputs": [],
					"name": "deposit",
					"outputs": [],
					"stateMutability": "payable",
					"type": "function"
				},
				{
					"inputs": [
						{
							"internalType": "address",
							"name": "_to",
							"type": "address"
						},
						{
							"internalType": "uint256",
							"name": "_amount",
							"type": "uint256"
						},
						{
							"internalType": "uint256",
							"name": "_nonce",
							"type": "uint256"
						}
					],
					"name": "getTxHash",
					"outputs": [
						{
							"internalType": "bytes32",
							"name": "",
							"type": "bytes32"
						}
					],
					"stateMutability": "pure",
					"type": "function"
				},
				{
					"inputs": [
						{
							"internalType": "uint256",
							"name": "",
							"type": "uint256"
						}
					],
					"name": "owners",
					"outputs": [
						{
							"internalType": "address",
							"name": "",
							"type": "address"
						}
					],
					"stateMutability": "view",
					"type": "function"
				},
				{
					"inputs": [
						{
							"internalType": "address",
							"name": "_to",
							"type": "address"
						},
						{
							"internalType": "uint256",
							"name": "_amount",
							"type": "uint256"
						},
						{
							"internalType": "uint256",
							"name": "_nonce",
							"type": "uint256"
						},
						{
							"internalType": "bytes[2]",
							"name": "_sigs",
							"type": "bytes[2]"
						}
					],
					"name": "transfer",
					"outputs": [],
					"stateMutability": "nonpayable",
					"type": "function"
				},
				{
					"stateMutability": "payable",
					"type": "receive"
				}
			],
			"devdoc": {
				"kind": "dev",
				"methods": {},
				"version": 1
			},
			"evm": {
				"assembly": "    /* \"contracts/DeFi/MultiSigV3.sol\":207:1379  contract MultiSigWallet {... */\n  mstore(0x40, 0x80)\n    /* \"contracts/DeFi/MultiSigV3.sol\":299:379  constructor(address[2] memory _owners) payable {... */\n  mload(0x40)\n  sub(codesize, bytecodeSize)\n  dup1\n  bytecodeSize\n  dup4\n  codecopy\n  dup2\n  dup2\n  add\n  0x40\n  mstore\n  dup2\n  add\n  swap1\n  tag_1\n  swap2\n  swap1\n  tag_2\n  jump\t// in\ntag_1:\n    /* \"contracts/DeFi/MultiSigV3.sol\":365:372  _owners */\n  dup1\n    /* \"contracts/DeFi/MultiSigV3.sol\":356:362  owners */\n  0x00\n    /* \"contracts/DeFi/MultiSigV3.sol\":356:372  owners = _owners */\n  swap1\n  0x02\n  tag_5\n  swap3\n  swap2\n  swap1\n  tag_6\n  jump\t// in\ntag_5:\n  pop\n    /* \"contracts/DeFi/MultiSigV3.sol\":299:379  constructor(address[2] memory _owners) payable {... */\n  pop\n    /* \"contracts/DeFi/MultiSigV3.sol\":207:1379  contract MultiSigWallet {... */\n  jump(tag_7)\ntag_6:\n  dup3\n  0x02\n  dup2\n  add\n  swap3\n  dup3\n  iszero\n  tag_8\n  jumpi\n  swap2\n  0x20\n  mul\n  dup3\n  add\ntag_9:\n  dup3\n  dup2\n  gt\n  iszero\n  tag_10\n  jumpi\n  dup3\n  mload\n  dup3\n  exp(0x0100, 0x00)\n  dup2\n  sload\n  dup2\n  0xffffffffffffffffffffffffffffffffffffffff\n  mul\n  not\n  and\n  swap1\n  dup4\n  0xffffffffffffffffffffffffffffffffffffffff\n  and\n  mul\n  or\n  swap1\n  sstore\n  pop\n  swap2\n  0x20\n  add\n  swap2\n  swap1\n  0x01\n  add\n  swap1\n  jump(tag_9)\ntag_10:\ntag_8:\n  pop\n  swap1\n  pop\n  tag_11\n  swap2\n  swap1\n  tag_12\n  jump\t// in\ntag_11:\n  pop\n  swap1\n  jump\t// out\ntag_12:\ntag_13:\n  dup1\n  dup3\n  gt\n  iszero\n  tag_14\n  jumpi\n  0x00\n  dup2\n  0x00\n  swap1\n  sstore\n  pop\n  0x01\n  add\n  jump(tag_13)\ntag_14:\n  pop\n  swap1\n  jump\t// out\n    /* \"#utility.yul\":7:82   */\ntag_15:\n    /* \"#utility.yul\":40:46   */\n  0x00\n    /* \"#utility.yul\":73:75   */\n  0x40\n    /* \"#utility.yul\":67:76   */\n  mload\n    /* \"#utility.yul\":57:76   */\n  swap1\n  pop\n    /* \"#utility.yul\":7:82   */\n  swap1\n  jump\t// out\n    /* \"#utility.yul\":88:205   */\ntag_16:\n    /* \"#utility.yul\":197:198   */\n  0x00\n    /* \"#utility.yul\":194:195   */\n  dup1\n    /* \"#utility.yul\":187:199   */\n  revert\n    /* \"#utility.yul\":334:451   */\ntag_18:\n    /* \"#utility.yul\":443:444   */\n  0x00\n    /* \"#utility.yul\":440:441   */\n  dup1\n    /* \"#utility.yul\":433:445   */\n  revert\n    /* \"#utility.yul\":457:559   */\ntag_19:\n    /* \"#utility.yul\":498:504   */\n  0x00\n    /* \"#utility.yul\":549:551   */\n  0x1f\n    /* \"#utility.yul\":545:552   */\n  not\n    /* \"#utility.yul\":540:542   */\n  0x1f\n    /* \"#utility.yul\":533:538   */\n  dup4\n    /* \"#utility.yul\":529:543   */\n  add\n    /* \"#utility.yul\":525:553   */\n  and\n    /* \"#utility.yul\":515:553   */\n  swap1\n  pop\n    /* \"#utility.yul\":457:559   */\n  swap2\n  swap1\n  pop\n  jump\t// out\n    /* \"#utility.yul\":565:745   */\ntag_20:\n    /* \"#utility.yul\":613:690   */\n  0x4e487b7100000000000000000000000000000000000000000000000000000000\n    /* \"#utility.yul\":610:611   */\n  0x00\n    /* \"#utility.yul\":603:691   */\n  mstore\n    /* \"#utility.yul\":710:714   */\n  0x41\n    /* \"#utility.yul\":707:708   */\n  0x04\n    /* \"#utility.yul\":700:715   */\n  mstore\n    /* \"#utility.yul\":734:738   */\n  0x24\n    /* \"#utility.yul\":731:732   */\n  0x00\n    /* \"#utility.yul\":724:739   */\n  revert\n    /* \"#utility.yul\":751:1032   */\ntag_21:\n    /* \"#utility.yul\":834:861   */\n  tag_39\n    /* \"#utility.yul\":856:860   */\n  dup3\n    /* \"#utility.yul\":834:861   */\n  tag_19\n  jump\t// in\ntag_39:\n    /* \"#utility.yul\":826:832   */\n  dup2\n    /* \"#utility.yul\":822:862   */\n  add\n    /* \"#utility.yul\":964:970   */\n  dup2\n    /* \"#utility.yul\":952:962   */\n  dup2\n    /* \"#utility.yul\":949:971   */\n  lt\n    /* \"#utility.yul\":928:946   */\n  0xffffffffffffffff\n    /* \"#utility.yul\":916:926   */\n  dup3\n    /* \"#utility.yul\":913:947   */\n  gt\n    /* \"#utility.yul\":910:972   */\n  or\n    /* \"#utility.yul\":907:995   */\n  iszero\n  tag_40\n  jumpi\n    /* \"#utility.yul\":975:993   */\n  tag_41\n  tag_20\n  jump\t// in\ntag_41:\n    /* \"#utility.yul\":907:995   */\ntag_40:\n    /* \"#utility.yul\":1015:1025   */\n  dup1\n    /* \"#utility.yul\":1011:1013   */\n  0x40\n    /* \"#utility.yul\":1004:1026   */\n  mstore\n    /* \"#utility.yul\":794:1032   */\n  pop\n    /* \"#utility.yul\":751:1032   */\n  pop\n  pop\n  jump\t// out\n    /* \"#utility.yul\":1038:1167   */\ntag_22:\n    /* \"#utility.yul\":1072:1078   */\n  0x00\n    /* \"#utility.yul\":1099:1119   */\n  tag_43\n  tag_15\n  jump\t// in\ntag_43:\n    /* \"#utility.yul\":1089:1119   */\n  swap1\n  pop\n    /* \"#utility.yul\":1128:1161   */\n  tag_44\n    /* \"#utility.yul\":1156:1160   */\n  dup3\n    /* \"#utility.yul\":1148:1154   */\n  dup3\n    /* \"#utility.yul\":1128:1161   */\n  tag_21\n  jump\t// in\ntag_44:\n    /* \"#utility.yul\":1038:1167   */\n  swap2\n  swap1\n  pop\n  jump\t// out\n    /* \"#utility.yul\":1173:1422   */\ntag_23:\n    /* \"#utility.yul\":1248:1252   */\n  0x00\n    /* \"#utility.yul\":1338:1356   */\n  0xffffffffffffffff\n    /* \"#utility.yul\":1330:1336   */\n  dup3\n    /* \"#utility.yul\":1327:1357   */\n  gt\n    /* \"#utility.yul\":1324:1380   */\n  iszero\n  tag_46\n  jumpi\n    /* \"#utility.yul\":1360:1378   */\n  tag_47\n  tag_20\n  jump\t// in\ntag_47:\n    /* \"#utility.yul\":1324:1380   */\ntag_46:\n    /* \"#utility.yul\":1410:1414   */\n  0x20\n    /* \"#utility.yul\":1402:1408   */\n  dup3\n    /* \"#utility.yul\":1398:1415   */\n  mul\n    /* \"#utility.yul\":1390:1415   */\n  swap1\n  pop\n    /* \"#utility.yul\":1173:1422   */\n  swap2\n  swap1\n  pop\n  jump\t// out\n    /* \"#utility.yul\":1428:1545   */\ntag_24:\n    /* \"#utility.yul\":1537:1538   */\n  0x00\n    /* \"#utility.yul\":1534:1535   */\n  dup1\n    /* \"#utility.yul\":1527:1539   */\n  revert\n    /* \"#utility.yul\":1551:1677   */\ntag_25:\n    /* \"#utility.yul\":1588:1595   */\n  0x00\n    /* \"#utility.yul\":1628:1670   */\n  0xffffffffffffffffffffffffffffffffffffffff\n    /* \"#utility.yul\":1621:1626   */\n  dup3\n    /* \"#utility.yul\":1617:1671   */\n  and\n    /* \"#utility.yul\":1606:1671   */\n  swap1\n  pop\n    /* \"#utility.yul\":1551:1677   */\n  swap2\n  swap1\n  pop\n  jump\t// out\n    /* \"#utility.yul\":1683:1779   */\ntag_26:\n    /* \"#utility.yul\":1720:1727   */\n  0x00\n    /* \"#utility.yul\":1749:1773   */\n  tag_51\n    /* \"#utility.yul\":1767:1772   */\n  dup3\n    /* \"#utility.yul\":1749:1773   */\n  tag_25\n  jump\t// in\ntag_51:\n    /* \"#utility.yul\":1738:1773   */\n  swap1\n  pop\n    /* \"#utility.yul\":1683:1779   */\n  swap2\n  swap1\n  pop\n  jump\t// out\n    /* \"#utility.yul\":1785:1907   */\ntag_27:\n    /* \"#utility.yul\":1858:1882   */\n  tag_53\n    /* \"#utility.yul\":1876:1881   */\n  dup2\n    /* \"#utility.yul\":1858:1882   */\n  tag_26\n  jump\t// in\ntag_53:\n    /* \"#utility.yul\":1851:1856   */\n  dup2\n    /* \"#utility.yul\":1848:1883   */\n  eq\n    /* \"#utility.yul\":1838:1901   */\n  tag_54\n  jumpi\n    /* \"#utility.yul\":1897:1898   */\n  0x00\n    /* \"#utility.yul\":1894:1895   */\n  dup1\n    /* \"#utility.yul\":1887:1899   */\n  revert\n    /* \"#utility.yul\":1838:1901   */\ntag_54:\n    /* \"#utility.yul\":1785:1907   */\n  pop\n  jump\t// out\n    /* \"#utility.yul\":1913:2056   */\ntag_28:\n    /* \"#utility.yul\":1970:1975   */\n  0x00\n    /* \"#utility.yul\":2001:2007   */\n  dup2\n    /* \"#utility.yul\":1995:2008   */\n  mload\n    /* \"#utility.yul\":1986:2008   */\n  swap1\n  pop\n    /* \"#utility.yul\":2017:2050   */\n  tag_56\n    /* \"#utility.yul\":2044:2049   */\n  dup2\n    /* \"#utility.yul\":2017:2050   */\n  tag_27\n  jump\t// in\ntag_56:\n    /* \"#utility.yul\":1913:2056   */\n  swap3\n  swap2\n  pop\n  pop\n  jump\t// out\n    /* \"#utility.yul\":2080:2745   */\ntag_29:\n    /* \"#utility.yul\":2185:2190   */\n  0x00\n    /* \"#utility.yul\":2210:2289   */\n  tag_58\n    /* \"#utility.yul\":2226:2288   */\n  tag_59\n    /* \"#utility.yul\":2281:2287   */\n  dup5\n    /* \"#utility.yul\":2226:2288   */\n  tag_23\n  jump\t// in\ntag_59:\n    /* \"#utility.yul\":2210:2289   */\n  tag_22\n  jump\t// in\ntag_58:\n    /* \"#utility.yul\":2201:2289   */\n  swap1\n  pop\n    /* \"#utility.yul\":2309:2314   */\n  dup1\n    /* \"#utility.yul\":2362:2366   */\n  0x20\n    /* \"#utility.yul\":2354:2360   */\n  dup5\n    /* \"#utility.yul\":2350:2367   */\n  mul\n    /* \"#utility.yul\":2342:2348   */\n  dup4\n    /* \"#utility.yul\":2338:2368   */\n  add\n    /* \"#utility.yul\":2391:2394   */\n  dup6\n    /* \"#utility.yul\":2383:2389   */\n  dup2\n    /* \"#utility.yul\":2380:2395   */\n  gt\n    /* \"#utility.yul\":2377:2499   */\n  iszero\n  tag_60\n  jumpi\n    /* \"#utility.yul\":2410:2489   */\n  tag_61\n  tag_24\n  jump\t// in\ntag_61:\n    /* \"#utility.yul\":2377:2499   */\ntag_60:\n    /* \"#utility.yul\":2525:2531   */\n  dup4\n    /* \"#utility.yul\":2508:2739   */\ntag_62:\n    /* \"#utility.yul\":2542:2548   */\n  dup2\n    /* \"#utility.yul\":2537:2540   */\n  dup2\n    /* \"#utility.yul\":2534:2549   */\n  lt\n    /* \"#utility.yul\":2508:2739   */\n  iszero\n  tag_64\n  jumpi\n    /* \"#utility.yul\":2617:2620   */\n  dup1\n    /* \"#utility.yul\":2646:2694   */\n  tag_65\n    /* \"#utility.yul\":2690:2693   */\n  dup9\n    /* \"#utility.yul\":2678:2688   */\n  dup3\n    /* \"#utility.yul\":2646:2694   */\n  tag_28\n  jump\t// in\ntag_65:\n    /* \"#utility.yul\":2641:2644   */\n  dup5\n    /* \"#utility.yul\":2634:2695   */\n  mstore\n    /* \"#utility.yul\":2724:2728   */\n  0x20\n    /* \"#utility.yul\":2719:2722   */\n  dup5\n    /* \"#utility.yul\":2715:2729   */\n  add\n    /* \"#utility.yul\":2708:2729   */\n  swap4\n  pop\n    /* \"#utility.yul\":2584:2739   */\n  pop\n    /* \"#utility.yul\":2568:2572   */\n  0x20\n    /* \"#utility.yul\":2563:2566   */\n  dup2\n    /* \"#utility.yul\":2559:2573   */\n  add\n    /* \"#utility.yul\":2552:2573   */\n  swap1\n  pop\n    /* \"#utility.yul\":2508:2739   */\n  jump(tag_62)\ntag_64:\n    /* \"#utility.yul\":2512:2533   */\n  pop\n    /* \"#utility.yul\":2191:2745   */\n  pop\n  pop\n    /* \"#utility.yul\":2080:2745   */\n  swap4\n  swap3\n  pop\n  pop\n  pop\n  jump\t// out\n    /* \"#utility.yul\":2769:3130   */\ntag_30:\n    /* \"#utility.yul\":2849:2854   */\n  0x00\n    /* \"#utility.yul\":2898:2901   */\n  dup3\n    /* \"#utility.yul\":2891:2895   */\n  0x1f\n    /* \"#utility.yul\":2883:2889   */\n  dup4\n    /* \"#utility.yul\":2879:2896   */\n  add\n    /* \"#utility.yul\":2875:2902   */\n  slt\n    /* \"#utility.yul\":2865:2987   */\n  tag_67\n  jumpi\n    /* \"#utility.yul\":2906:2985   */\n  tag_68\n  tag_18\n  jump\t// in\ntag_68:\n    /* \"#utility.yul\":2865:2987   */\ntag_67:\n    /* \"#utility.yul\":3010:3014   */\n  0x02\n    /* \"#utility.yul\":3032:3124   */\n  tag_69\n    /* \"#utility.yul\":3120:3123   */\n  dup5\n    /* \"#utility.yul\":3112:3118   */\n  dup3\n    /* \"#utility.yul\":3104:3110   */\n  dup6\n    /* \"#utility.yul\":3032:3124   */\n  tag_29\n  jump\t// in\ntag_69:\n    /* \"#utility.yul\":3023:3124   */\n  swap2\n  pop\n    /* \"#utility.yul\":2855:3130   */\n  pop\n    /* \"#utility.yul\":2769:3130   */\n  swap3\n  swap2\n  pop\n  pop\n  jump\t// out\n    /* \"#utility.yul\":3136:3533   */\ntag_2:\n    /* \"#utility.yul\":3229:3235   */\n  0x00\n    /* \"#utility.yul\":3278:3280   */\n  0x40\n    /* \"#utility.yul\":3266:3275   */\n  dup3\n    /* \"#utility.yul\":3257:3264   */\n  dup5\n    /* \"#utility.yul\":3253:3276   */\n  sub\n    /* \"#utility.yul\":3249:3281   */\n  slt\n    /* \"#utility.yul\":3246:3365   */\n  iszero\n  tag_71\n  jumpi\n    /* \"#utility.yul\":3284:3363   */\n  tag_72\n  tag_16\n  jump\t// in\ntag_72:\n    /* \"#utility.yul\":3246:3365   */\ntag_71:\n    /* \"#utility.yul\":3404:3405   */\n  0x00\n    /* \"#utility.yul\":3429:3516   */\n  tag_73\n    /* \"#utility.yul\":3508:3515   */\n  dup5\n    /* \"#utility.yul\":3499:3505   */\n  dup3\n    /* \"#utility.yul\":3488:3497   */\n  dup6\n    /* \"#utility.yul\":3484:3506   */\n  add\n    /* \"#utility.yul\":3429:3516   */\n  tag_30\n  jump\t// in\ntag_73:\n    /* \"#utility.yul\":3419:3516   */\n  swap2\n  pop\n    /* \"#utility.yul\":3375:3526   */\n  pop\n    /* \"#utility.yul\":3136:3533   */\n  swap3\n  swap2\n  pop\n  pop\n  jump\t// out\n    /* \"contracts/DeFi/MultiSigV3.sol\":207:1379  contract MultiSigWallet {... */\ntag_7:\n  dataSize(sub_0)\n  dup1\n  dataOffset(sub_0)\n  0x00\n  codecopy\n  0x00\n  return\nstop\n\nsub_0: assembly {\n        /* \"contracts/DeFi/MultiSigV3.sol\":207:1379  contract MultiSigWallet {... */\n      mstore(0x40, 0x80)\n      jumpi(tag_1, lt(calldatasize, 0x04))\n      shr(0xe0, calldataload(0x00))\n      dup1\n      0x025e7c27\n      eq\n      tag_3\n      jumpi\n      dup1\n      0x207fa783\n      eq\n      tag_4\n      jumpi\n      dup1\n      0x78f16129\n      eq\n      tag_5\n      jumpi\n      dup1\n      0xd0e30db0\n      eq\n      tag_6\n      jumpi\n      jump(tag_2)\n    tag_1:\n      jumpi(tag_2, calldatasize)\n      stop\n    tag_2:\n      0x00\n      dup1\n      revert\n        /* \"contracts/DeFi/MultiSigV3.sol\":267:291  address[2] public owners */\n    tag_3:\n      callvalue\n      dup1\n      iszero\n      tag_9\n      jumpi\n      0x00\n      dup1\n      revert\n    tag_9:\n      pop\n      tag_10\n      0x04\n      dup1\n      calldatasize\n      sub\n      dup2\n      add\n      swap1\n      tag_11\n      swap2\n      swap1\n      tag_12\n      jump\t// in\n    tag_11:\n      tag_13\n      jump\t// in\n    tag_10:\n      mload(0x40)\n      tag_14\n      swap2\n      swap1\n      tag_15\n      jump\t// in\n    tag_14:\n      mload(0x40)\n      dup1\n      swap2\n      sub\n      swap1\n      return\n        /* \"contracts/DeFi/MultiSigV3.sol\":786:948  function getTxHash(address _to, uint _amount, uint _nonce) public pure returns (bytes32) {... */\n    tag_4:\n      callvalue\n      dup1\n      iszero\n      tag_16\n      jumpi\n      0x00\n      dup1\n      revert\n    tag_16:\n      pop\n      tag_17\n      0x04\n      dup1\n      calldatasize\n      sub\n      dup2\n      add\n      swap1\n      tag_18\n      swap2\n      swap1\n      tag_19\n      jump\t// in\n    tag_18:\n      tag_20\n      jump\t// in\n    tag_17:\n      mload(0x40)\n      tag_21\n      swap2\n      swap1\n      tag_22\n      jump\t// in\n    tag_21:\n      mload(0x40)\n      dup1\n      swap2\n      sub\n      swap1\n      return\n        /* \"contracts/DeFi/MultiSigV3.sol\":464:780  function transfer(address _to, uint _amount, uint _nonce, bytes[2] memory _sigs) external {... */\n    tag_5:\n      callvalue\n      dup1\n      iszero\n      tag_23\n      jumpi\n      0x00\n      dup1\n      revert\n    tag_23:\n      pop\n      tag_24\n      0x04\n      dup1\n      calldatasize\n      sub\n      dup2\n      add\n      swap1\n      tag_25\n      swap2\n      swap1\n      tag_26\n      jump\t// in\n    tag_25:\n      tag_27\n      jump\t// in\n    tag_24:\n      stop\n        /* \"contracts/DeFi/MultiSigV3.sol\":420:458  function deposit() external payable {} */\n    tag_6:\n      tag_28\n      tag_29\n      jump\t// in\n    tag_28:\n      stop\n        /* \"contracts/DeFi/MultiSigV3.sol\":267:291  address[2] public owners */\n    tag_13:\n      0x00\n      dup2\n      0x02\n      dup2\n      lt\n      tag_30\n      jumpi\n      0x00\n      dup1\n      revert\n    tag_30:\n      add\n      0x00\n      swap2\n      pop\n      sload\n      swap1\n      0x0100\n      exp\n      swap1\n      div\n      0xffffffffffffffffffffffffffffffffffffffff\n      and\n      dup2\n      jump\t// out\n        /* \"contracts/DeFi/MultiSigV3.sol\":786:948  function getTxHash(address _to, uint _amount, uint _nonce) public pure returns (bytes32) {... */\n    tag_20:\n        /* \"contracts/DeFi/MultiSigV3.sol\":866:873  bytes32 */\n      0x00\n        /* \"contracts/DeFi/MultiSigV3.sol\":919:922  _to */\n      dup4\n        /* \"contracts/DeFi/MultiSigV3.sol\":924:931  _amount */\n      dup4\n        /* \"contracts/DeFi/MultiSigV3.sol\":933:939  _nonce */\n      dup4\n        /* \"contracts/DeFi/MultiSigV3.sol\":902:940  abi.encodePacked(_to, _amount, _nonce) */\n      add(0x20, mload(0x40))\n      tag_33\n      swap4\n      swap3\n      swap2\n      swap1\n      tag_34\n      jump\t// in\n    tag_33:\n      mload(0x40)\n      0x20\n      dup2\n      dup4\n      sub\n      sub\n      dup2\n      mstore\n      swap1\n      0x40\n      mstore\n        /* \"contracts/DeFi/MultiSigV3.sol\":892:941  keccak256(abi.encodePacked(_to, _amount, _nonce)) */\n      dup1\n      mload\n      swap1\n      0x20\n      add\n      keccak256\n        /* \"contracts/DeFi/MultiSigV3.sol\":885:941  return keccak256(abi.encodePacked(_to, _amount, _nonce)) */\n      swap1\n      pop\n        /* \"contracts/DeFi/MultiSigV3.sol\":786:948  function getTxHash(address _to, uint _amount, uint _nonce) public pure returns (bytes32) {... */\n      swap4\n      swap3\n      pop\n      pop\n      pop\n      jump\t// out\n        /* \"contracts/DeFi/MultiSigV3.sol\":464:780  function transfer(address _to, uint _amount, uint _nonce, bytes[2] memory _sigs) external {... */\n    tag_27:\n        /* \"contracts/DeFi/MultiSigV3.sol\":564:578  bytes32 txHash */\n      0x00\n        /* \"contracts/DeFi/MultiSigV3.sol\":581:612  getTxHash(_to, _amount, _nonce) */\n      tag_36\n        /* \"contracts/DeFi/MultiSigV3.sol\":591:594  _to */\n      dup6\n        /* \"contracts/DeFi/MultiSigV3.sol\":596:603  _amount */\n      dup6\n        /* \"contracts/DeFi/MultiSigV3.sol\":605:611  _nonce */\n      dup6\n        /* \"contracts/DeFi/MultiSigV3.sol\":581:590  getTxHash */\n      tag_20\n        /* \"contracts/DeFi/MultiSigV3.sol\":581:612  getTxHash(_to, _amount, _nonce) */\n      jump\t// in\n    tag_36:\n        /* \"contracts/DeFi/MultiSigV3.sol\":564:612  bytes32 txHash = getTxHash(_to, _amount, _nonce) */\n      swap1\n      pop\n        /* \"contracts/DeFi/MultiSigV3.sol\":630:655  _checkSigs(_sigs, txHash) */\n      tag_37\n        /* \"contracts/DeFi/MultiSigV3.sol\":641:646  _sigs */\n      dup3\n        /* \"contracts/DeFi/MultiSigV3.sol\":648:654  txHash */\n      dup3\n        /* \"contracts/DeFi/MultiSigV3.sol\":630:640  _checkSigs */\n      tag_38\n        /* \"contracts/DeFi/MultiSigV3.sol\":630:655  _checkSigs(_sigs, txHash) */\n      jump\t// in\n    tag_37:\n        /* \"contracts/DeFi/MultiSigV3.sol\":622:671  require(_checkSigs(_sigs, txHash), \"invalid sig\") */\n      tag_39\n      jumpi\n      mload(0x40)\n      0x08c379a000000000000000000000000000000000000000000000000000000000\n      dup2\n      mstore\n      0x04\n      add\n      tag_40\n      swap1\n      tag_41\n      jump\t// in\n    tag_40:\n      mload(0x40)\n      dup1\n      swap2\n      sub\n      swap1\n      revert\n    tag_39:\n        /* \"contracts/DeFi/MultiSigV3.sol\":683:692  bool sent */\n      0x00\n        /* \"contracts/DeFi/MultiSigV3.sol\":698:701  _to */\n      dup6\n        /* \"contracts/DeFi/MultiSigV3.sol\":698:706  _to.call */\n      0xffffffffffffffffffffffffffffffffffffffff\n      and\n        /* \"contracts/DeFi/MultiSigV3.sol\":714:721  _amount */\n      dup6\n        /* \"contracts/DeFi/MultiSigV3.sol\":698:726  _to.call{value: _amount}(\"\") */\n      mload(0x40)\n      tag_42\n      swap1\n      tag_43\n      jump\t// in\n    tag_42:\n      0x00\n      mload(0x40)\n      dup1\n      dup4\n      sub\n      dup2\n      dup6\n      dup8\n      gas\n      call\n      swap3\n      pop\n      pop\n      pop\n      returndatasize\n      dup1\n      0x00\n      dup2\n      eq\n      tag_46\n      jumpi\n      mload(0x40)\n      swap2\n      pop\n      and(add(returndatasize, 0x3f), not(0x1f))\n      dup3\n      add\n      0x40\n      mstore\n      returndatasize\n      dup3\n      mstore\n      returndatasize\n      0x00\n      0x20\n      dup5\n      add\n      returndatacopy\n      jump(tag_45)\n    tag_46:\n      0x60\n      swap2\n      pop\n    tag_45:\n      pop\n        /* \"contracts/DeFi/MultiSigV3.sol\":682:726  (bool sent, ) = _to.call{value: _amount}(\"\") */\n      pop\n      swap1\n      pop\n        /* \"contracts/DeFi/MultiSigV3.sol\":744:748  sent */\n      dup1\n        /* \"contracts/DeFi/MultiSigV3.sol\":736:773  require(sent, \"Failed to send Ether\") */\n      tag_47\n      jumpi\n      mload(0x40)\n      0x08c379a000000000000000000000000000000000000000000000000000000000\n      dup2\n      mstore\n      0x04\n      add\n      tag_48\n      swap1\n      tag_49\n      jump\t// in\n    tag_48:\n      mload(0x40)\n      dup1\n      swap2\n      sub\n      swap1\n      revert\n    tag_47:\n        /* \"contracts/DeFi/MultiSigV3.sol\":554:780  {... */\n      pop\n      pop\n        /* \"contracts/DeFi/MultiSigV3.sol\":464:780  function transfer(address _to, uint _amount, uint _nonce, bytes[2] memory _sigs) external {... */\n      pop\n      pop\n      pop\n      pop\n      jump\t// out\n        /* \"contracts/DeFi/MultiSigV3.sol\":420:458  function deposit() external payable {} */\n    tag_29:\n      jump\t// out\n        /* \"contracts/DeFi/MultiSigV3.sol\":954:1376  function _checkSigs(bytes[2] memory _sigs, bytes32 _txHash) private view returns (bool) {... */\n    tag_38:\n        /* \"contracts/DeFi/MultiSigV3.sol\":1036:1040  bool */\n      0x00\n        /* \"contracts/DeFi/MultiSigV3.sol\":1052:1073  bytes32 ethSignedHash */\n      dup1\n        /* \"contracts/DeFi/MultiSigV3.sol\":1076:1108  _txHash.toEthSignedMessageHash() */\n      tag_52\n        /* \"contracts/DeFi/MultiSigV3.sol\":1076:1083  _txHash */\n      dup4\n        /* \"contracts/DeFi/MultiSigV3.sol\":1076:1106  _txHash.toEthSignedMessageHash */\n      tag_53\n        /* \"contracts/DeFi/MultiSigV3.sol\":1076:1108  _txHash.toEthSignedMessageHash() */\n      jump\t// in\n    tag_52:\n        /* \"contracts/DeFi/MultiSigV3.sol\":1052:1108  bytes32 ethSignedHash = _txHash.toEthSignedMessageHash() */\n      swap1\n      pop\n        /* \"contracts/DeFi/MultiSigV3.sol\":1124:1130  uint i */\n      0x00\n        /* \"contracts/DeFi/MultiSigV3.sol\":1119:1349  for (uint i = 0; i < _sigs.length; i++) {... */\n    tag_54:\n        /* \"contracts/DeFi/MultiSigV3.sol\":1140:1152  _sigs.length */\n      0x02\n        /* \"contracts/DeFi/MultiSigV3.sol\":1136:1137  i */\n      dup2\n        /* \"contracts/DeFi/MultiSigV3.sol\":1136:1152  i < _sigs.length */\n      lt\n        /* \"contracts/DeFi/MultiSigV3.sol\":1119:1349  for (uint i = 0; i < _sigs.length; i++) {... */\n      iszero\n      tag_55\n      jumpi\n        /* \"contracts/DeFi/MultiSigV3.sol\":1173:1187  address signer */\n      0x00\n        /* \"contracts/DeFi/MultiSigV3.sol\":1190:1221  ethSignedHash.recover(_sigs[i]) */\n      tag_57\n        /* \"contracts/DeFi/MultiSigV3.sol\":1212:1217  _sigs */\n      dup7\n        /* \"contracts/DeFi/MultiSigV3.sol\":1218:1219  i */\n      dup4\n        /* \"contracts/DeFi/MultiSigV3.sol\":1212:1220  _sigs[i] */\n      0x02\n      dup2\n      lt\n      tag_58\n      jumpi\n      tag_59\n      tag_60\n      jump\t// in\n    tag_59:\n    tag_58:\n      0x20\n      mul\n      add\n      mload\n        /* \"contracts/DeFi/MultiSigV3.sol\":1190:1203  ethSignedHash */\n      dup5\n        /* \"contracts/DeFi/MultiSigV3.sol\":1190:1211  ethSignedHash.recover */\n      tag_61\n      swap1\n        /* \"contracts/DeFi/MultiSigV3.sol\":1190:1221  ethSignedHash.recover(_sigs[i]) */\n      swap2\n      swap1\n      0xffffffff\n      and\n      jump\t// in\n    tag_57:\n        /* \"contracts/DeFi/MultiSigV3.sol\":1173:1221  address signer = ethSignedHash.recover(_sigs[i]) */\n      swap1\n      pop\n        /* \"contracts/DeFi/MultiSigV3.sol\":1235:1245  bool valid */\n      0x00\n        /* \"contracts/DeFi/MultiSigV3.sol\":1258:1264  owners */\n      dup1\n        /* \"contracts/DeFi/MultiSigV3.sol\":1265:1266  i */\n      dup4\n        /* \"contracts/DeFi/MultiSigV3.sol\":1258:1267  owners[i] */\n      0x02\n      dup2\n      lt\n      tag_62\n      jumpi\n      tag_63\n      tag_60\n      jump\t// in\n    tag_63:\n    tag_62:\n      add\n      0x00\n      swap1\n      sload\n      swap1\n      0x0100\n      exp\n      swap1\n      div\n      0xffffffffffffffffffffffffffffffffffffffff\n      and\n        /* \"contracts/DeFi/MultiSigV3.sol\":1248:1267  signer == owners[i] */\n      0xffffffffffffffffffffffffffffffffffffffff\n      and\n        /* \"contracts/DeFi/MultiSigV3.sol\":1248:1254  signer */\n      dup3\n        /* \"contracts/DeFi/MultiSigV3.sol\":1248:1267  signer == owners[i] */\n      0xffffffffffffffffffffffffffffffffffffffff\n      and\n      eq\n        /* \"contracts/DeFi/MultiSigV3.sol\":1235:1267  bool valid = signer == owners[i] */\n      swap1\n      pop\n        /* \"contracts/DeFi/MultiSigV3.sol\":1287:1292  valid */\n      dup1\n        /* \"contracts/DeFi/MultiSigV3.sol\":1282:1339  if (!valid) {... */\n      tag_65\n      jumpi\n        /* \"contracts/DeFi/MultiSigV3.sol\":1319:1324  false */\n      0x00\n        /* \"contracts/DeFi/MultiSigV3.sol\":1312:1324  return false */\n      swap5\n      pop\n      pop\n      pop\n      pop\n      pop\n      jump(tag_51)\n        /* \"contracts/DeFi/MultiSigV3.sol\":1282:1339  if (!valid) {... */\n    tag_65:\n        /* \"contracts/DeFi/MultiSigV3.sol\":1159:1349  {... */\n      pop\n      pop\n        /* \"contracts/DeFi/MultiSigV3.sol\":1154:1157  i++ */\n      dup1\n      dup1\n      tag_66\n      swap1\n      tag_67\n      jump\t// in\n    tag_66:\n      swap2\n      pop\n      pop\n        /* \"contracts/DeFi/MultiSigV3.sol\":1119:1349  for (uint i = 0; i < _sigs.length; i++) {... */\n      jump(tag_54)\n    tag_55:\n      pop\n        /* \"contracts/DeFi/MultiSigV3.sol\":1365:1369  true */\n      0x01\n        /* \"contracts/DeFi/MultiSigV3.sol\":1358:1369  return true */\n      swap2\n      pop\n      pop\n        /* \"contracts/DeFi/MultiSigV3.sol\":954:1376  function _checkSigs(bytes[2] memory _sigs, bytes32 _txHash) private view returns (bool) {... */\n    tag_51:\n      swap3\n      swap2\n      pop\n      pop\n      jump\t// out\n        /* \"github.com/OpenZeppelin/openzeppelin-contracts/blob/release-v4.5/contracts/utils/cryptography/ECDSA.sol\":8012:8277  function toEthSignedMessageHash(bytes32 hash) internal pure returns (bytes32) {... */\n    tag_53:\n        /* \"github.com/OpenZeppelin/openzeppelin-contracts/blob/release-v4.5/contracts/utils/cryptography/ECDSA.sol\":8081:8088  bytes32 */\n      0x00\n        /* \"github.com/OpenZeppelin/openzeppelin-contracts/blob/release-v4.5/contracts/utils/cryptography/ECDSA.sol\":8264:8268  hash */\n      dup2\n        /* \"github.com/OpenZeppelin/openzeppelin-contracts/blob/release-v4.5/contracts/utils/cryptography/ECDSA.sol\":8211:8269  abi.encodePacked(\"\\x19Ethereum Signed Message:\\n32\", hash) */\n      add(0x20, mload(0x40))\n      tag_69\n      swap2\n      swap1\n      tag_70\n      jump\t// in\n    tag_69:\n      mload(0x40)\n      0x20\n      dup2\n      dup4\n      sub\n      sub\n      dup2\n      mstore\n      swap1\n      0x40\n      mstore\n        /* \"github.com/OpenZeppelin/openzeppelin-contracts/blob/release-v4.5/contracts/utils/cryptography/ECDSA.sol\":8201:8270  keccak256(abi.encodePacked(\"\\x19Ethereum Signed Message:\\n32\", hash)) */\n      dup1\n      mload\n      swap1\n      0x20\n      add\n      keccak256\n        /* \"github.com/OpenZeppelin/openzeppelin-contracts/blob/release-v4.5/contracts/utils/cryptography/ECDSA.sol\":8194:8270  return keccak256(abi.encodePacked(\"\\x19Ethereum Signed Message:\\n32\", hash)) */\n      swap1\n      pop\n        /* \"github.com/OpenZeppelin/openzeppelin-contracts/blob/release-v4.5/contracts/utils/cryptography/ECDSA.sol\":8012:8277  function toEthSignedMessageHash(bytes32 hash) internal pure returns (bytes32) {... */\n      swap2\n      swap1\n      pop\n      jump\t// out\n        /* \"github.com/OpenZeppelin/openzeppelin-contracts/blob/release-v4.5/contracts/utils/cryptography/ECDSA.sol\":4308:4535  function recover(bytes32 hash, bytes memory signature) internal pure returns (address) {... */\n    tag_61:\n        /* \"github.com/OpenZeppelin/openzeppelin-contracts/blob/release-v4.5/contracts/utils/cryptography/ECDSA.sol\":4386:4393  address */\n      0x00\n        /* \"github.com/OpenZeppelin/openzeppelin-contracts/blob/release-v4.5/contracts/utils/cryptography/ECDSA.sol\":4406:4423  address recovered */\n      dup1\n        /* \"github.com/OpenZeppelin/openzeppelin-contracts/blob/release-v4.5/contracts/utils/cryptography/ECDSA.sol\":4425:4443  RecoverError error */\n      0x00\n        /* \"github.com/OpenZeppelin/openzeppelin-contracts/blob/release-v4.5/contracts/utils/cryptography/ECDSA.sol\":4447:4474  tryRecover(hash, signature) */\n      tag_72\n        /* \"github.com/OpenZeppelin/openzeppelin-contracts/blob/release-v4.5/contracts/utils/cryptography/ECDSA.sol\":4458:4462  hash */\n      dup6\n        /* \"github.com/OpenZeppelin/openzeppelin-contracts/blob/release-v4.5/contracts/utils/cryptography/ECDSA.sol\":4464:4473  signature */\n      dup6\n        /* \"github.com/OpenZeppelin/openzeppelin-contracts/blob/release-v4.5/contracts/utils/cryptography/ECDSA.sol\":4447:4457  tryRecover */\n      tag_73\n        /* \"github.com/OpenZeppelin/openzeppelin-contracts/blob/release-v4.5/contracts/utils/cryptography/ECDSA.sol\":4447:4474  tryRecover(hash, signature) */\n      jump\t// in\n    tag_72:\n        /* \"github.com/OpenZeppelin/openzeppelin-contracts/blob/release-v4.5/contracts/utils/cryptography/ECDSA.sol\":4405:4474  (address recovered, RecoverError error) = tryRecover(hash, signature) */\n      swap2\n      pop\n      swap2\n      pop\n        /* \"github.com/OpenZeppelin/openzeppelin-contracts/blob/release-v4.5/contracts/utils/cryptography/ECDSA.sol\":4484:4502  _throwError(error) */\n      tag_74\n        /* \"github.com/OpenZeppelin/openzeppelin-contracts/blob/release-v4.5/contracts/utils/cryptography/ECDSA.sol\":4496:4501  error */\n      dup2\n        /* \"github.com/OpenZeppelin/openzeppelin-contracts/blob/release-v4.5/contracts/utils/cryptography/ECDSA.sol\":4484:4495  _throwError */\n      tag_75\n        /* \"github.com/OpenZeppelin/openzeppelin-contracts/blob/release-v4.5/contracts/utils/cryptography/ECDSA.sol\":4484:4502  _throwError(error) */\n      jump\t// in\n    tag_74:\n        /* \"github.com/OpenZeppelin/openzeppelin-contracts/blob/release-v4.5/contracts/utils/cryptography/ECDSA.sol\":4519:4528  recovered */\n      dup2\n        /* \"github.com/OpenZeppelin/openzeppelin-contracts/blob/release-v4.5/contracts/utils/cryptography/ECDSA.sol\":4512:4528  return recovered */\n      swap3\n      pop\n      pop\n      pop\n        /* \"github.com/OpenZeppelin/openzeppelin-contracts/blob/release-v4.5/contracts/utils/cryptography/ECDSA.sol\":4308:4535  function recover(bytes32 hash, bytes memory signature) internal pure returns (address) {... */\n      swap3\n      swap2\n      pop\n      pop\n      jump\t// out\n        /* \"github.com/OpenZeppelin/openzeppelin-contracts/blob/release-v4.5/contracts/utils/cryptography/ECDSA.sol\":2243:3522  function tryRecover(bytes32 hash, bytes memory signature) internal pure returns (address, RecoverError) {... */\n    tag_73:\n        /* \"github.com/OpenZeppelin/openzeppelin-contracts/blob/release-v4.5/contracts/utils/cryptography/ECDSA.sol\":2324:2331  address */\n      0x00\n        /* \"github.com/OpenZeppelin/openzeppelin-contracts/blob/release-v4.5/contracts/utils/cryptography/ECDSA.sol\":2333:2345  RecoverError */\n      dup1\n        /* \"github.com/OpenZeppelin/openzeppelin-contracts/blob/release-v4.5/contracts/utils/cryptography/ECDSA.sol\":2574:2576  65 */\n      0x41\n        /* \"github.com/OpenZeppelin/openzeppelin-contracts/blob/release-v4.5/contracts/utils/cryptography/ECDSA.sol\":2554:2563  signature */\n      dup4\n        /* \"github.com/OpenZeppelin/openzeppelin-contracts/blob/release-v4.5/contracts/utils/cryptography/ECDSA.sol\":2554:2570  signature.length */\n      mload\n        /* \"github.com/OpenZeppelin/openzeppelin-contracts/blob/release-v4.5/contracts/utils/cryptography/ECDSA.sol\":2554:2576  signature.length == 65 */\n      sub\n        /* \"github.com/OpenZeppelin/openzeppelin-contracts/blob/release-v4.5/contracts/utils/cryptography/ECDSA.sol\":2550:3516  if (signature.length == 65) {... */\n      tag_77\n      jumpi\n        /* \"github.com/OpenZeppelin/openzeppelin-contracts/blob/release-v4.5/contracts/utils/cryptography/ECDSA.sol\":2592:2601  bytes32 r */\n      0x00\n        /* \"github.com/OpenZeppelin/openzeppelin-contracts/blob/release-v4.5/contracts/utils/cryptography/ECDSA.sol\":2615:2624  bytes32 s */\n      dup1\n        /* \"github.com/OpenZeppelin/openzeppelin-contracts/blob/release-v4.5/contracts/utils/cryptography/ECDSA.sol\":2638:2645  uint8 v */\n      0x00\n        /* \"github.com/OpenZeppelin/openzeppelin-contracts/blob/release-v4.5/contracts/utils/cryptography/ECDSA.sol\":2843:2847  0x20 */\n      0x20\n        /* \"github.com/OpenZeppelin/openzeppelin-contracts/blob/release-v4.5/contracts/utils/cryptography/ECDSA.sol\":2832:2841  signature */\n      dup7\n        /* \"github.com/OpenZeppelin/openzeppelin-contracts/blob/release-v4.5/contracts/utils/cryptography/ECDSA.sol\":2828:2848  add(signature, 0x20) */\n      add\n        /* \"github.com/OpenZeppelin/openzeppelin-contracts/blob/release-v4.5/contracts/utils/cryptography/ECDSA.sol\":2822:2849  mload(add(signature, 0x20)) */\n      mload\n        /* \"github.com/OpenZeppelin/openzeppelin-contracts/blob/release-v4.5/contracts/utils/cryptography/ECDSA.sol\":2817:2849  r := mload(add(signature, 0x20)) */\n      swap3\n      pop\n        /* \"github.com/OpenZeppelin/openzeppelin-contracts/blob/release-v4.5/contracts/utils/cryptography/ECDSA.sol\":2892:2896  0x40 */\n      0x40\n        /* \"github.com/OpenZeppelin/openzeppelin-contracts/blob/release-v4.5/contracts/utils/cryptography/ECDSA.sol\":2881:2890  signature */\n      dup7\n        /* \"github.com/OpenZeppelin/openzeppelin-contracts/blob/release-v4.5/contracts/utils/cryptography/ECDSA.sol\":2877:2897  add(signature, 0x40) */\n      add\n        /* \"github.com/OpenZeppelin/openzeppelin-contracts/blob/release-v4.5/contracts/utils/cryptography/ECDSA.sol\":2871:2898  mload(add(signature, 0x40)) */\n      mload\n        /* \"github.com/OpenZeppelin/openzeppelin-contracts/blob/release-v4.5/contracts/utils/cryptography/ECDSA.sol\":2866:2898  s := mload(add(signature, 0x40)) */\n      swap2\n      pop\n        /* \"github.com/OpenZeppelin/openzeppelin-contracts/blob/release-v4.5/contracts/utils/cryptography/ECDSA.sol\":2949:2953  0x60 */\n      0x60\n        /* \"github.com/OpenZeppelin/openzeppelin-contracts/blob/release-v4.5/contracts/utils/cryptography/ECDSA.sol\":2938:2947  signature */\n      dup7\n        /* \"github.com/OpenZeppelin/openzeppelin-contracts/blob/release-v4.5/contracts/utils/cryptography/ECDSA.sol\":2934:2954  add(signature, 0x60) */\n      add\n        /* \"github.com/OpenZeppelin/openzeppelin-contracts/blob/release-v4.5/contracts/utils/cryptography/ECDSA.sol\":2928:2955  mload(add(signature, 0x60)) */\n      mload\n        /* \"github.com/OpenZeppelin/openzeppelin-contracts/blob/release-v4.5/contracts/utils/cryptography/ECDSA.sol\":2925:2926  0 */\n      0x00\n        /* \"github.com/OpenZeppelin/openzeppelin-contracts/blob/release-v4.5/contracts/utils/cryptography/ECDSA.sol\":2920:2956  byte(0, mload(add(signature, 0x60))) */\n      byte\n        /* \"github.com/OpenZeppelin/openzeppelin-contracts/blob/release-v4.5/contracts/utils/cryptography/ECDSA.sol\":2915:2956  v := byte(0, mload(add(signature, 0x60))) */\n      swap1\n      pop\n        /* \"github.com/OpenZeppelin/openzeppelin-contracts/blob/release-v4.5/contracts/utils/cryptography/ECDSA.sol\":2990:3015  tryRecover(hash, v, r, s) */\n      tag_78\n        /* \"github.com/OpenZeppelin/openzeppelin-contracts/blob/release-v4.5/contracts/utils/cryptography/ECDSA.sol\":3001:3005  hash */\n      dup8\n        /* \"github.com/OpenZeppelin/openzeppelin-contracts/blob/release-v4.5/contracts/utils/cryptography/ECDSA.sol\":3007:3008  v */\n      dup3\n        /* \"github.com/OpenZeppelin/openzeppelin-contracts/blob/release-v4.5/contracts/utils/cryptography/ECDSA.sol\":3010:3011  r */\n      dup6\n        /* \"github.com/OpenZeppelin/openzeppelin-contracts/blob/release-v4.5/contracts/utils/cryptography/ECDSA.sol\":3013:3014  s */\n      dup6\n        /* \"github.com/OpenZeppelin/openzeppelin-contracts/blob/release-v4.5/contracts/utils/cryptography/ECDSA.sol\":2990:3000  tryRecover */\n      tag_79\n        /* \"github.com/OpenZeppelin/openzeppelin-contracts/blob/release-v4.5/contracts/utils/cryptography/ECDSA.sol\":2990:3015  tryRecover(hash, v, r, s) */\n      jump\t// in\n    tag_78:\n        /* \"github.com/OpenZeppelin/openzeppelin-contracts/blob/release-v4.5/contracts/utils/cryptography/ECDSA.sol\":2983:3015  return tryRecover(hash, v, r, s) */\n      swap5\n      pop\n      swap5\n      pop\n      pop\n      pop\n      pop\n      jump(tag_76)\n        /* \"github.com/OpenZeppelin/openzeppelin-contracts/blob/release-v4.5/contracts/utils/cryptography/ECDSA.sol\":2550:3516  if (signature.length == 65) {... */\n    tag_77:\n        /* \"github.com/OpenZeppelin/openzeppelin-contracts/blob/release-v4.5/contracts/utils/cryptography/ECDSA.sol\":3056:3058  64 */\n      0x40\n        /* \"github.com/OpenZeppelin/openzeppelin-contracts/blob/release-v4.5/contracts/utils/cryptography/ECDSA.sol\":3036:3045  signature */\n      dup4\n        /* \"github.com/OpenZeppelin/openzeppelin-contracts/blob/release-v4.5/contracts/utils/cryptography/ECDSA.sol\":3036:3052  signature.length */\n      mload\n        /* \"github.com/OpenZeppelin/openzeppelin-contracts/blob/release-v4.5/contracts/utils/cryptography/ECDSA.sol\":3036:3058  signature.length == 64 */\n      sub\n        /* \"github.com/OpenZeppelin/openzeppelin-contracts/blob/release-v4.5/contracts/utils/cryptography/ECDSA.sol\":3032:3516  if (signature.length == 64) {... */\n      tag_81\n      jumpi\n        /* \"github.com/OpenZeppelin/openzeppelin-contracts/blob/release-v4.5/contracts/utils/cryptography/ECDSA.sol\":3074:3083  bytes32 r */\n      0x00\n        /* \"github.com/OpenZeppelin/openzeppelin-contracts/blob/release-v4.5/contracts/utils/cryptography/ECDSA.sol\":3097:3107  bytes32 vs */\n      dup1\n        /* \"github.com/OpenZeppelin/openzeppelin-contracts/blob/release-v4.5/contracts/utils/cryptography/ECDSA.sol\":3305:3309  0x20 */\n      0x20\n        /* \"github.com/OpenZeppelin/openzeppelin-contracts/blob/release-v4.5/contracts/utils/cryptography/ECDSA.sol\":3294:3303  signature */\n      dup6\n        /* \"github.com/OpenZeppelin/openzeppelin-contracts/blob/release-v4.5/contracts/utils/cryptography/ECDSA.sol\":3290:3310  add(signature, 0x20) */\n      add\n        /* \"github.com/OpenZeppelin/openzeppelin-contracts/blob/release-v4.5/contracts/utils/cryptography/ECDSA.sol\":3284:3311  mload(add(signature, 0x20)) */\n      mload\n        /* \"github.com/OpenZeppelin/openzeppelin-contracts/blob/release-v4.5/contracts/utils/cryptography/ECDSA.sol\":3279:3311  r := mload(add(signature, 0x20)) */\n      swap2\n      pop\n        /* \"github.com/OpenZeppelin/openzeppelin-contracts/blob/release-v4.5/contracts/utils/cryptography/ECDSA.sol\":3355:3359  0x40 */\n      0x40\n        /* \"github.com/OpenZeppelin/openzeppelin-contracts/blob/release-v4.5/contracts/utils/cryptography/ECDSA.sol\":3344:3353  signature */\n      dup6\n        /* \"github.com/OpenZeppelin/openzeppelin-contracts/blob/release-v4.5/contracts/utils/cryptography/ECDSA.sol\":3340:3360  add(signature, 0x40) */\n      add\n        /* \"github.com/OpenZeppelin/openzeppelin-contracts/blob/release-v4.5/contracts/utils/cryptography/ECDSA.sol\":3334:3361  mload(add(signature, 0x40)) */\n      mload\n        /* \"github.com/OpenZeppelin/openzeppelin-contracts/blob/release-v4.5/contracts/utils/cryptography/ECDSA.sol\":3328:3361  vs := mload(add(signature, 0x40)) */\n      swap1\n      pop\n        /* \"github.com/OpenZeppelin/openzeppelin-contracts/blob/release-v4.5/contracts/utils/cryptography/ECDSA.sol\":3395:3418  tryRecover(hash, r, vs) */\n      tag_82\n        /* \"github.com/OpenZeppelin/openzeppelin-contracts/blob/release-v4.5/contracts/utils/cryptography/ECDSA.sol\":3406:3410  hash */\n      dup7\n        /* \"github.com/OpenZeppelin/openzeppelin-contracts/blob/release-v4.5/contracts/utils/cryptography/ECDSA.sol\":3412:3413  r */\n      dup4\n        /* \"github.com/OpenZeppelin/openzeppelin-contracts/blob/release-v4.5/contracts/utils/cryptography/ECDSA.sol\":3415:3417  vs */\n      dup4\n        /* \"github.com/OpenZeppelin/openzeppelin-contracts/blob/release-v4.5/contracts/utils/cryptography/ECDSA.sol\":3395:3405  tryRecover */\n      tag_83\n        /* \"github.com/OpenZeppelin/openzeppelin-contracts/blob/release-v4.5/contracts/utils/cryptography/ECDSA.sol\":3395:3418  tryRecover(hash, r, vs) */\n      jump\t// in\n    tag_82:\n        /* \"github.com/OpenZeppelin/openzeppelin-contracts/blob/release-v4.5/contracts/utils/cryptography/ECDSA.sol\":3388:3418  return tryRecover(hash, r, vs) */\n      swap4\n      pop\n      swap4\n      pop\n      pop\n      pop\n      jump(tag_76)\n        /* \"github.com/OpenZeppelin/openzeppelin-contracts/blob/release-v4.5/contracts/utils/cryptography/ECDSA.sol\":3032:3516  if (signature.length == 64) {... */\n    tag_81:\n        /* \"github.com/OpenZeppelin/openzeppelin-contracts/blob/release-v4.5/contracts/utils/cryptography/ECDSA.sol\":3465:3466  0 */\n      0x00\n        /* \"github.com/OpenZeppelin/openzeppelin-contracts/blob/release-v4.5/contracts/utils/cryptography/ECDSA.sol\":3469:3504  RecoverError.InvalidSignatureLength */\n      0x02\n        /* \"github.com/OpenZeppelin/openzeppelin-contracts/blob/release-v4.5/contracts/utils/cryptography/ECDSA.sol\":3449:3505  return (address(0), RecoverError.InvalidSignatureLength) */\n      swap2\n      pop\n      swap2\n      pop\n        /* \"github.com/OpenZeppelin/openzeppelin-contracts/blob/release-v4.5/contracts/utils/cryptography/ECDSA.sol\":2243:3522  function tryRecover(bytes32 hash, bytes memory signature) internal pure returns (address, RecoverError) {... */\n    tag_76:\n      swap3\n      pop\n      swap3\n      swap1\n      pop\n      jump\t// out\n        /* \"github.com/OpenZeppelin/openzeppelin-contracts/blob/release-v4.5/contracts/utils/cryptography/ECDSA.sol\":548:1179  function _throwError(RecoverError error) private pure {... */\n    tag_75:\n        /* \"github.com/OpenZeppelin/openzeppelin-contracts/blob/release-v4.5/contracts/utils/cryptography/ECDSA.sol\":625:645  RecoverError.NoError */\n      0x00\n        /* \"github.com/OpenZeppelin/openzeppelin-contracts/blob/release-v4.5/contracts/utils/cryptography/ECDSA.sol\":616:645  error == RecoverError.NoError */\n      0x04\n      dup2\n      gt\n      iszero\n      tag_86\n      jumpi\n      tag_87\n      tag_88\n      jump\t// in\n    tag_87:\n    tag_86:\n        /* \"github.com/OpenZeppelin/openzeppelin-contracts/blob/release-v4.5/contracts/utils/cryptography/ECDSA.sol\":616:621  error */\n      dup2\n        /* \"github.com/OpenZeppelin/openzeppelin-contracts/blob/release-v4.5/contracts/utils/cryptography/ECDSA.sol\":616:645  error == RecoverError.NoError */\n      0x04\n      dup2\n      gt\n      iszero\n      tag_89\n      jumpi\n      tag_90\n      tag_88\n      jump\t// in\n    tag_90:\n    tag_89:\n      sub\n        /* \"github.com/OpenZeppelin/openzeppelin-contracts/blob/release-v4.5/contracts/utils/cryptography/ECDSA.sol\":612:1173  if (error == RecoverError.NoError) {... */\n      iszero\n        /* \"github.com/OpenZeppelin/openzeppelin-contracts/blob/release-v4.5/contracts/utils/cryptography/ECDSA.sol\":661:668  return; */\n      tag_85\n        /* \"github.com/OpenZeppelin/openzeppelin-contracts/blob/release-v4.5/contracts/utils/cryptography/ECDSA.sol\":612:1173  if (error == RecoverError.NoError) {... */\n      jumpi\n        /* \"github.com/OpenZeppelin/openzeppelin-contracts/blob/release-v4.5/contracts/utils/cryptography/ECDSA.sol\":721:750  RecoverError.InvalidSignature */\n      0x01\n        /* \"github.com/OpenZeppelin/openzeppelin-contracts/blob/release-v4.5/contracts/utils/cryptography/ECDSA.sol\":712:750  error == RecoverError.InvalidSignature */\n      0x04\n      dup2\n      gt\n      iszero\n      tag_93\n      jumpi\n      tag_94\n      tag_88\n      jump\t// in\n    tag_94:\n    tag_93:\n        /* \"github.com/OpenZeppelin/openzeppelin-contracts/blob/release-v4.5/contracts/utils/cryptography/ECDSA.sol\":712:717  error */\n      dup2\n        /* \"github.com/OpenZeppelin/openzeppelin-contracts/blob/release-v4.5/contracts/utils/cryptography/ECDSA.sol\":712:750  error == RecoverError.InvalidSignature */\n      0x04\n      dup2\n      gt\n      iszero\n      tag_95\n      jumpi\n      tag_96\n      tag_88\n      jump\t// in\n    tag_96:\n    tag_95:\n      sub\n        /* \"github.com/OpenZeppelin/openzeppelin-contracts/blob/release-v4.5/contracts/utils/cryptography/ECDSA.sol\":708:1173  if (error == RecoverError.InvalidSignature) {... */\n      tag_97\n      jumpi\n        /* \"github.com/OpenZeppelin/openzeppelin-contracts/blob/release-v4.5/contracts/utils/cryptography/ECDSA.sol\":766:800  revert(\"ECDSA: invalid signature\") */\n      mload(0x40)\n      0x08c379a000000000000000000000000000000000000000000000000000000000\n      dup2\n      mstore\n      0x04\n      add\n      tag_98\n      swap1\n      tag_99\n      jump\t// in\n    tag_98:\n      mload(0x40)\n      dup1\n      swap2\n      sub\n      swap1\n      revert\n        /* \"github.com/OpenZeppelin/openzeppelin-contracts/blob/release-v4.5/contracts/utils/cryptography/ECDSA.sol\":708:1173  if (error == RecoverError.InvalidSignature) {... */\n    tag_97:\n        /* \"github.com/OpenZeppelin/openzeppelin-contracts/blob/release-v4.5/contracts/utils/cryptography/ECDSA.sol\":830:865  RecoverError.InvalidSignatureLength */\n      0x02\n        /* \"github.com/OpenZeppelin/openzeppelin-contracts/blob/release-v4.5/contracts/utils/cryptography/ECDSA.sol\":821:865  error == RecoverError.InvalidSignatureLength */\n      0x04\n      dup2\n      gt\n      iszero\n      tag_101\n      jumpi\n      tag_102\n      tag_88\n      jump\t// in\n    tag_102:\n    tag_101:\n        /* \"github.com/OpenZeppelin/openzeppelin-contracts/blob/release-v4.5/contracts/utils/cryptography/ECDSA.sol\":821:826  error */\n      dup2\n        /* \"github.com/OpenZeppelin/openzeppelin-contracts/blob/release-v4.5/contracts/utils/cryptography/ECDSA.sol\":821:865  error == RecoverError.InvalidSignatureLength */\n      0x04\n      dup2\n      gt\n      iszero\n      tag_103\n      jumpi\n      tag_104\n      tag_88\n      jump\t// in\n    tag_104:\n    tag_103:\n      sub\n        /* \"github.com/OpenZeppelin/openzeppelin-contracts/blob/release-v4.5/contracts/utils/cryptography/ECDSA.sol\":817:1173  if (error == RecoverError.InvalidSignatureLength) {... */\n      tag_105\n      jumpi\n        /* \"github.com/OpenZeppelin/openzeppelin-contracts/blob/release-v4.5/contracts/utils/cryptography/ECDSA.sol\":881:922  revert(\"ECDSA: invalid signature length\") */\n      mload(0x40)\n      0x08c379a000000000000000000000000000000000000000000000000000000000\n      dup2\n      mstore\n      0x04\n      add\n      tag_106\n      swap1\n      tag_107\n      jump\t// in\n    tag_106:\n      mload(0x40)\n      dup1\n      swap2\n      sub\n      swap1\n      revert\n        /* \"github.com/OpenZeppelin/openzeppelin-contracts/blob/release-v4.5/contracts/utils/cryptography/ECDSA.sol\":817:1173  if (error == RecoverError.InvalidSignatureLength) {... */\n    tag_105:\n        /* \"github.com/OpenZeppelin/openzeppelin-contracts/blob/release-v4.5/contracts/utils/cryptography/ECDSA.sol\":952:982  RecoverError.InvalidSignatureS */\n      0x03\n        /* \"github.com/OpenZeppelin/openzeppelin-contracts/blob/release-v4.5/contracts/utils/cryptography/ECDSA.sol\":943:982  error == RecoverError.InvalidSignatureS */\n      0x04\n      dup2\n      gt\n      iszero\n      tag_109\n      jumpi\n      tag_110\n      tag_88\n      jump\t// in\n    tag_110:\n    tag_109:\n        /* \"github.com/OpenZeppelin/openzeppelin-contracts/blob/release-v4.5/contracts/utils/cryptography/ECDSA.sol\":943:948  error */\n      dup2\n        /* \"github.com/OpenZeppelin/openzeppelin-contracts/blob/release-v4.5/contracts/utils/cryptography/ECDSA.sol\":943:982  error == RecoverError.InvalidSignatureS */\n      0x04\n      dup2\n      gt\n      iszero\n      tag_111\n      jumpi\n      tag_112\n      tag_88\n      jump\t// in\n    tag_112:\n    tag_111:\n      sub\n        /* \"github.com/OpenZeppelin/openzeppelin-contracts/blob/release-v4.5/contracts/utils/cryptography/ECDSA.sol\":939:1173  if (error == RecoverError.InvalidSignatureS) {... */\n      tag_113\n      jumpi\n        /* \"github.com/OpenZeppelin/openzeppelin-contracts/blob/release-v4.5/contracts/utils/cryptography/ECDSA.sol\":998:1042  revert(\"ECDSA: invalid signature 's' value\") */\n      mload(0x40)\n      0x08c379a000000000000000000000000000000000000000000000000000000000\n      dup2\n      mstore\n      0x04\n      add\n      tag_114\n      swap1\n      tag_115\n      jump\t// in\n    tag_114:\n      mload(0x40)\n      dup1\n      swap2\n      sub\n      swap1\n      revert\n        /* \"github.com/OpenZeppelin/openzeppelin-contracts/blob/release-v4.5/contracts/utils/cryptography/ECDSA.sol\":939:1173  if (error == RecoverError.InvalidSignatureS) {... */\n    tag_113:\n        /* \"github.com/OpenZeppelin/openzeppelin-contracts/blob/release-v4.5/contracts/utils/cryptography/ECDSA.sol\":1072:1102  RecoverError.InvalidSignatureV */\n      0x04\n        /* \"github.com/OpenZeppelin/openzeppelin-contracts/blob/release-v4.5/contracts/utils/cryptography/ECDSA.sol\":1063:1102  error == RecoverError.InvalidSignatureV */\n      dup1\n      dup2\n      gt\n      iszero\n      tag_117\n      jumpi\n      tag_118\n      tag_88\n      jump\t// in\n    tag_118:\n    tag_117:\n        /* \"github.com/OpenZeppelin/openzeppelin-contracts/blob/release-v4.5/contracts/utils/cryptography/ECDSA.sol\":1063:1068  error */\n      dup2\n        /* \"github.com/OpenZeppelin/openzeppelin-contracts/blob/release-v4.5/contracts/utils/cryptography/ECDSA.sol\":1063:1102  error == RecoverError.InvalidSignatureV */\n      0x04\n      dup2\n      gt\n      iszero\n      tag_119\n      jumpi\n      tag_120\n      tag_88\n      jump\t// in\n    tag_120:\n    tag_119:\n      sub\n        /* \"github.com/OpenZeppelin/openzeppelin-contracts/blob/release-v4.5/contracts/utils/cryptography/ECDSA.sol\":1059:1173  if (error == RecoverError.InvalidSignatureV) {... */\n      tag_121\n      jumpi\n        /* \"github.com/OpenZeppelin/openzeppelin-contracts/blob/release-v4.5/contracts/utils/cryptography/ECDSA.sol\":1118:1162  revert(\"ECDSA: invalid signature 'v' value\") */\n      mload(0x40)\n      0x08c379a000000000000000000000000000000000000000000000000000000000\n      dup2\n      mstore\n      0x04\n      add\n      tag_122\n      swap1\n      tag_123\n      jump\t// in\n    tag_122:\n      mload(0x40)\n      dup1\n      swap2\n      sub\n      swap1\n      revert\n        /* \"github.com/OpenZeppelin/openzeppelin-contracts/blob/release-v4.5/contracts/utils/cryptography/ECDSA.sol\":1059:1173  if (error == RecoverError.InvalidSignatureV) {... */\n    tag_121:\n        /* \"github.com/OpenZeppelin/openzeppelin-contracts/blob/release-v4.5/contracts/utils/cryptography/ECDSA.sol\":548:1179  function _throwError(RecoverError error) private pure {... */\n    tag_85:\n      pop\n      jump\t// out\n        /* \"github.com/OpenZeppelin/openzeppelin-contracts/blob/release-v4.5/contracts/utils/cryptography/ECDSA.sol\":5716:7319  function tryRecover(... */\n    tag_79:\n        /* \"github.com/OpenZeppelin/openzeppelin-contracts/blob/release-v4.5/contracts/utils/cryptography/ECDSA.sol\":5842:5849  address */\n      0x00\n        /* \"github.com/OpenZeppelin/openzeppelin-contracts/blob/release-v4.5/contracts/utils/cryptography/ECDSA.sol\":5851:5863  RecoverError */\n      dup1\n        /* \"github.com/OpenZeppelin/openzeppelin-contracts/blob/release-v4.5/contracts/utils/cryptography/ECDSA.sol\":6766:6832  0x7FFFFFFFFFFFFFFFFFFFFFFFFFFFFFFF5D576E7357A4501DDFE92F46681B20A0 */\n      0x7fffffffffffffffffffffffffffffff5d576e7357a4501ddfe92f46681b20a0\n        /* \"github.com/OpenZeppelin/openzeppelin-contracts/blob/release-v4.5/contracts/utils/cryptography/ECDSA.sol\":6761:6762  s */\n      dup4\n        /* \"github.com/OpenZeppelin/openzeppelin-contracts/blob/release-v4.5/contracts/utils/cryptography/ECDSA.sol\":6753:6763  uint256(s) */\n      0x00\n      shr\n        /* \"github.com/OpenZeppelin/openzeppelin-contracts/blob/release-v4.5/contracts/utils/cryptography/ECDSA.sol\":6753:6832  uint256(s) > 0x7FFFFFFFFFFFFFFFFFFFFFFFFFFFFFFF5D576E7357A4501DDFE92F46681B20A0 */\n      gt\n        /* \"github.com/OpenZeppelin/openzeppelin-contracts/blob/release-v4.5/contracts/utils/cryptography/ECDSA.sol\":6749:6910  if (uint256(s) > 0x7FFFFFFFFFFFFFFFFFFFFFFFFFFFFFFF5D576E7357A4501DDFE92F46681B20A0) {... */\n      iszero\n      tag_125\n      jumpi\n        /* \"github.com/OpenZeppelin/openzeppelin-contracts/blob/release-v4.5/contracts/utils/cryptography/ECDSA.sol\":6864:6865  0 */\n      0x00\n        /* \"github.com/OpenZeppelin/openzeppelin-contracts/blob/release-v4.5/contracts/utils/cryptography/ECDSA.sol\":6868:6898  RecoverError.InvalidSignatureS */\n      0x03\n        /* \"github.com/OpenZeppelin/openzeppelin-contracts/blob/release-v4.5/contracts/utils/cryptography/ECDSA.sol\":6848:6899  return (address(0), RecoverError.InvalidSignatureS) */\n      swap2\n      pop\n      swap2\n      pop\n      jump(tag_124)\n        /* \"github.com/OpenZeppelin/openzeppelin-contracts/blob/release-v4.5/contracts/utils/cryptography/ECDSA.sol\":6749:6910  if (uint256(s) > 0x7FFFFFFFFFFFFFFFFFFFFFFFFFFFFFFF5D576E7357A4501DDFE92F46681B20A0) {... */\n    tag_125:\n        /* \"github.com/OpenZeppelin/openzeppelin-contracts/blob/release-v4.5/contracts/utils/cryptography/ECDSA.sol\":6928:6930  27 */\n      0x1b\n        /* \"github.com/OpenZeppelin/openzeppelin-contracts/blob/release-v4.5/contracts/utils/cryptography/ECDSA.sol\":6923:6924  v */\n      dup6\n        /* \"github.com/OpenZeppelin/openzeppelin-contracts/blob/release-v4.5/contracts/utils/cryptography/ECDSA.sol\":6923:6930  v != 27 */\n      0xff\n      and\n      eq\n      iszero\n        /* \"github.com/OpenZeppelin/openzeppelin-contracts/blob/release-v4.5/contracts/utils/cryptography/ECDSA.sol\":6923:6941  v != 27 && v != 28 */\n      dup1\n      iszero\n      tag_126\n      jumpi\n      pop\n        /* \"github.com/OpenZeppelin/openzeppelin-contracts/blob/release-v4.5/contracts/utils/cryptography/ECDSA.sol\":6939:6941  28 */\n      0x1c\n        /* \"github.com/OpenZeppelin/openzeppelin-contracts/blob/release-v4.5/contracts/utils/cryptography/ECDSA.sol\":6934:6935  v */\n      dup6\n        /* \"github.com/OpenZeppelin/openzeppelin-contracts/blob/release-v4.5/contracts/utils/cryptography/ECDSA.sol\":6934:6941  v != 28 */\n      0xff\n      and\n      eq\n      iszero\n        /* \"github.com/OpenZeppelin/openzeppelin-contracts/blob/release-v4.5/contracts/utils/cryptography/ECDSA.sol\":6923:6941  v != 27 && v != 28 */\n    tag_126:\n        /* \"github.com/OpenZeppelin/openzeppelin-contracts/blob/release-v4.5/contracts/utils/cryptography/ECDSA.sol\":6919:7019  if (v != 27 && v != 28) {... */\n      iszero\n      tag_127\n      jumpi\n        /* \"github.com/OpenZeppelin/openzeppelin-contracts/blob/release-v4.5/contracts/utils/cryptography/ECDSA.sol\":6973:6974  0 */\n      0x00\n        /* \"github.com/OpenZeppelin/openzeppelin-contracts/blob/release-v4.5/contracts/utils/cryptography/ECDSA.sol\":6977:7007  RecoverError.InvalidSignatureV */\n      0x04\n        /* \"github.com/OpenZeppelin/openzeppelin-contracts/blob/release-v4.5/contracts/utils/cryptography/ECDSA.sol\":6957:7008  return (address(0), RecoverError.InvalidSignatureV) */\n      swap2\n      pop\n      swap2\n      pop\n      jump(tag_124)\n        /* \"github.com/OpenZeppelin/openzeppelin-contracts/blob/release-v4.5/contracts/utils/cryptography/ECDSA.sol\":6919:7019  if (v != 27 && v != 28) {... */\n    tag_127:\n        /* \"github.com/OpenZeppelin/openzeppelin-contracts/blob/release-v4.5/contracts/utils/cryptography/ECDSA.sol\":7113:7127  address signer */\n      0x00\n        /* \"github.com/OpenZeppelin/openzeppelin-contracts/blob/release-v4.5/contracts/utils/cryptography/ECDSA.sol\":7130:7154  ecrecover(hash, v, r, s) */\n      0x01\n        /* \"github.com/OpenZeppelin/openzeppelin-contracts/blob/release-v4.5/contracts/utils/cryptography/ECDSA.sol\":7140:7144  hash */\n      dup8\n        /* \"github.com/OpenZeppelin/openzeppelin-contracts/blob/release-v4.5/contracts/utils/cryptography/ECDSA.sol\":7146:7147  v */\n      dup8\n        /* \"github.com/OpenZeppelin/openzeppelin-contracts/blob/release-v4.5/contracts/utils/cryptography/ECDSA.sol\":7149:7150  r */\n      dup8\n        /* \"github.com/OpenZeppelin/openzeppelin-contracts/blob/release-v4.5/contracts/utils/cryptography/ECDSA.sol\":7152:7153  s */\n      dup8\n        /* \"github.com/OpenZeppelin/openzeppelin-contracts/blob/release-v4.5/contracts/utils/cryptography/ECDSA.sol\":7130:7154  ecrecover(hash, v, r, s) */\n      mload(0x40)\n      0x00\n      dup2\n      mstore\n      0x20\n      add\n      0x40\n      mstore\n      mload(0x40)\n      tag_128\n      swap5\n      swap4\n      swap3\n      swap2\n      swap1\n      tag_129\n      jump\t// in\n    tag_128:\n      0x20\n      mload(0x40)\n      0x20\n      dup2\n      sub\n      swap1\n      dup1\n      dup5\n      sub\n      swap1\n      dup6\n      gas\n      staticcall\n      iszero\n      dup1\n      iszero\n      tag_131\n      jumpi\n      returndatasize\n      0x00\n      dup1\n      returndatacopy\n      revert(0x00, returndatasize)\n    tag_131:\n      pop\n      pop\n      pop\n      mload(sub(mload(0x40), 0x20))\n        /* \"github.com/OpenZeppelin/openzeppelin-contracts/blob/release-v4.5/contracts/utils/cryptography/ECDSA.sol\":7113:7154  address signer = ecrecover(hash, v, r, s) */\n      swap1\n      pop\n        /* \"github.com/OpenZeppelin/openzeppelin-contracts/blob/release-v4.5/contracts/utils/cryptography/ECDSA.sol\":7186:7187  0 */\n      0x00\n        /* \"github.com/OpenZeppelin/openzeppelin-contracts/blob/release-v4.5/contracts/utils/cryptography/ECDSA.sol\":7168:7188  signer == address(0) */\n      0xffffffffffffffffffffffffffffffffffffffff\n      and\n        /* \"github.com/OpenZeppelin/openzeppelin-contracts/blob/release-v4.5/contracts/utils/cryptography/ECDSA.sol\":7168:7174  signer */\n      dup2\n        /* \"github.com/OpenZeppelin/openzeppelin-contracts/blob/release-v4.5/contracts/utils/cryptography/ECDSA.sol\":7168:7188  signer == address(0) */\n      0xffffffffffffffffffffffffffffffffffffffff\n      and\n      sub\n        /* \"github.com/OpenZeppelin/openzeppelin-contracts/blob/release-v4.5/contracts/utils/cryptography/ECDSA.sol\":7164:7265  if (signer == address(0)) {... */\n      tag_132\n      jumpi\n        /* \"github.com/OpenZeppelin/openzeppelin-contracts/blob/release-v4.5/contracts/utils/cryptography/ECDSA.sol\":7220:7221  0 */\n      0x00\n        /* \"github.com/OpenZeppelin/openzeppelin-contracts/blob/release-v4.5/contracts/utils/cryptography/ECDSA.sol\":7224:7253  RecoverError.InvalidSignature */\n      0x01\n        /* \"github.com/OpenZeppelin/openzeppelin-contracts/blob/release-v4.5/contracts/utils/cryptography/ECDSA.sol\":7204:7254  return (address(0), RecoverError.InvalidSignature) */\n      swap3\n      pop\n      swap3\n      pop\n      pop\n      jump(tag_124)\n        /* \"github.com/OpenZeppelin/openzeppelin-contracts/blob/release-v4.5/contracts/utils/cryptography/ECDSA.sol\":7164:7265  if (signer == address(0)) {... */\n    tag_132:\n        /* \"github.com/OpenZeppelin/openzeppelin-contracts/blob/release-v4.5/contracts/utils/cryptography/ECDSA.sol\":7283:7289  signer */\n      dup1\n        /* \"github.com/OpenZeppelin/openzeppelin-contracts/blob/release-v4.5/contracts/utils/cryptography/ECDSA.sol\":7291:7311  RecoverError.NoError */\n      0x00\n        /* \"github.com/OpenZeppelin/openzeppelin-contracts/blob/release-v4.5/contracts/utils/cryptography/ECDSA.sol\":7275:7312  return (signer, RecoverError.NoError) */\n      swap3\n      pop\n      swap3\n      pop\n      pop\n        /* \"github.com/OpenZeppelin/openzeppelin-contracts/blob/release-v4.5/contracts/utils/cryptography/ECDSA.sol\":5716:7319  function tryRecover(... */\n    tag_124:\n      swap5\n      pop\n      swap5\n      swap3\n      pop\n      pop\n      pop\n      jump\t// out\n        /* \"github.com/OpenZeppelin/openzeppelin-contracts/blob/release-v4.5/contracts/utils/cryptography/ECDSA.sol\":4789:5125  function tryRecover(... */\n    tag_83:\n        /* \"github.com/OpenZeppelin/openzeppelin-contracts/blob/release-v4.5/contracts/utils/cryptography/ECDSA.sol\":4899:4906  address */\n      0x00\n        /* \"github.com/OpenZeppelin/openzeppelin-contracts/blob/release-v4.5/contracts/utils/cryptography/ECDSA.sol\":4908:4920  RecoverError */\n      dup1\n        /* \"github.com/OpenZeppelin/openzeppelin-contracts/blob/release-v4.5/contracts/utils/cryptography/ECDSA.sol\":4932:4941  bytes32 s */\n      0x00\n        /* \"github.com/OpenZeppelin/openzeppelin-contracts/blob/release-v4.5/contracts/utils/cryptography/ECDSA.sol\":4957:5023  0x7fffffffffffffffffffffffffffffffffffffffffffffffffffffffffffffff */\n      0x7fffffffffffffffffffffffffffffffffffffffffffffffffffffffffffffff\n        /* \"github.com/OpenZeppelin/openzeppelin-contracts/blob/release-v4.5/contracts/utils/cryptography/ECDSA.sol\":4949:5024  bytes32(0x7fffffffffffffffffffffffffffffffffffffffffffffffffffffffffffffff) */\n      0x00\n      shl\n        /* \"github.com/OpenZeppelin/openzeppelin-contracts/blob/release-v4.5/contracts/utils/cryptography/ECDSA.sol\":4944:4946  vs */\n      dup5\n        /* \"github.com/OpenZeppelin/openzeppelin-contracts/blob/release-v4.5/contracts/utils/cryptography/ECDSA.sol\":4944:5024  vs & bytes32(0x7fffffffffffffffffffffffffffffffffffffffffffffffffffffffffffffff) */\n      and\n        /* \"github.com/OpenZeppelin/openzeppelin-contracts/blob/release-v4.5/contracts/utils/cryptography/ECDSA.sol\":4932:5024  bytes32 s = vs & bytes32(0x7fffffffffffffffffffffffffffffffffffffffffffffffffffffffffffffff) */\n      swap1\n      pop\n        /* \"github.com/OpenZeppelin/openzeppelin-contracts/blob/release-v4.5/contracts/utils/cryptography/ECDSA.sol\":5034:5041  uint8 v */\n      0x00\n        /* \"github.com/OpenZeppelin/openzeppelin-contracts/blob/release-v4.5/contracts/utils/cryptography/ECDSA.sol\":5073:5075  27 */\n      0x1b\n        /* \"github.com/OpenZeppelin/openzeppelin-contracts/blob/release-v4.5/contracts/utils/cryptography/ECDSA.sol\":5066:5069  255 */\n      0xff\n        /* \"github.com/OpenZeppelin/openzeppelin-contracts/blob/release-v4.5/contracts/utils/cryptography/ECDSA.sol\":5059:5061  vs */\n      dup7\n        /* \"github.com/OpenZeppelin/openzeppelin-contracts/blob/release-v4.5/contracts/utils/cryptography/ECDSA.sol\":5051:5062  uint256(vs) */\n      0x00\n      shr\n        /* \"github.com/OpenZeppelin/openzeppelin-contracts/blob/release-v4.5/contracts/utils/cryptography/ECDSA.sol\":5051:5069  uint256(vs) >> 255 */\n      swap1\n      shr\n        /* \"github.com/OpenZeppelin/openzeppelin-contracts/blob/release-v4.5/contracts/utils/cryptography/ECDSA.sol\":5050:5075  (uint256(vs) >> 255) + 27 */\n      tag_134\n      swap2\n      swap1\n      tag_135\n      jump\t// in\n    tag_134:\n        /* \"github.com/OpenZeppelin/openzeppelin-contracts/blob/release-v4.5/contracts/utils/cryptography/ECDSA.sol\":5034:5076  uint8 v = uint8((uint256(vs) >> 255) + 27) */\n      swap1\n      pop\n        /* \"github.com/OpenZeppelin/openzeppelin-contracts/blob/release-v4.5/contracts/utils/cryptography/ECDSA.sol\":5093:5118  tryRecover(hash, v, r, s) */\n      tag_136\n        /* \"github.com/OpenZeppelin/openzeppelin-contracts/blob/release-v4.5/contracts/utils/cryptography/ECDSA.sol\":5104:5108  hash */\n      dup8\n        /* \"github.com/OpenZeppelin/openzeppelin-contracts/blob/release-v4.5/contracts/utils/cryptography/ECDSA.sol\":5110:5111  v */\n      dup3\n        /* \"github.com/OpenZeppelin/openzeppelin-contracts/blob/release-v4.5/contracts/utils/cryptography/ECDSA.sol\":5113:5114  r */\n      dup9\n        /* \"github.com/OpenZeppelin/openzeppelin-contracts/blob/release-v4.5/contracts/utils/cryptography/ECDSA.sol\":5116:5117  s */\n      dup6\n        /* \"github.com/OpenZeppelin/openzeppelin-contracts/blob/release-v4.5/contracts/utils/cryptography/ECDSA.sol\":5093:5103  tryRecover */\n      tag_79\n        /* \"github.com/OpenZeppelin/openzeppelin-contracts/blob/release-v4.5/contracts/utils/cryptography/ECDSA.sol\":5093:5118  tryRecover(hash, v, r, s) */\n      jump\t// in\n    tag_136:\n        /* \"github.com/OpenZeppelin/openzeppelin-contracts/blob/release-v4.5/contracts/utils/cryptography/ECDSA.sol\":5086:5118  return tryRecover(hash, v, r, s) */\n      swap4\n      pop\n      swap4\n      pop\n      pop\n      pop\n        /* \"github.com/OpenZeppelin/openzeppelin-contracts/blob/release-v4.5/contracts/utils/cryptography/ECDSA.sol\":4789:5125  function tryRecover(... */\n      swap4\n      pop\n      swap4\n      swap2\n      pop\n      pop\n      jump\t// out\n        /* \"#utility.yul\":7:82   */\n    tag_137:\n        /* \"#utility.yul\":40:46   */\n      0x00\n        /* \"#utility.yul\":73:75   */\n      0x40\n        /* \"#utility.yul\":67:76   */\n      mload\n        /* \"#utility.yul\":57:76   */\n      swap1\n      pop\n        /* \"#utility.yul\":7:82   */\n      swap1\n      jump\t// out\n        /* \"#utility.yul\":88:205   */\n    tag_138:\n        /* \"#utility.yul\":197:198   */\n      0x00\n        /* \"#utility.yul\":194:195   */\n      dup1\n        /* \"#utility.yul\":187:199   */\n      revert\n        /* \"#utility.yul\":211:328   */\n    tag_139:\n        /* \"#utility.yul\":320:321   */\n      0x00\n        /* \"#utility.yul\":317:318   */\n      dup1\n        /* \"#utility.yul\":310:322   */\n      revert\n        /* \"#utility.yul\":334:411   */\n    tag_140:\n        /* \"#utility.yul\":371:378   */\n      0x00\n        /* \"#utility.yul\":400:405   */\n      dup2\n        /* \"#utility.yul\":389:405   */\n      swap1\n      pop\n        /* \"#utility.yul\":334:411   */\n      swap2\n      swap1\n      pop\n      jump\t// out\n        /* \"#utility.yul\":417:539   */\n    tag_141:\n        /* \"#utility.yul\":490:514   */\n      tag_200\n        /* \"#utility.yul\":508:513   */\n      dup2\n        /* \"#utility.yul\":490:514   */\n      tag_140\n      jump\t// in\n    tag_200:\n        /* \"#utility.yul\":483:488   */\n      dup2\n        /* \"#utility.yul\":480:515   */\n      eq\n        /* \"#utility.yul\":470:533   */\n      tag_201\n      jumpi\n        /* \"#utility.yul\":529:530   */\n      0x00\n        /* \"#utility.yul\":526:527   */\n      dup1\n        /* \"#utility.yul\":519:531   */\n      revert\n        /* \"#utility.yul\":470:533   */\n    tag_201:\n        /* \"#utility.yul\":417:539   */\n      pop\n      jump\t// out\n        /* \"#utility.yul\":545:684   */\n    tag_142:\n        /* \"#utility.yul\":591:596   */\n      0x00\n        /* \"#utility.yul\":629:635   */\n      dup2\n        /* \"#utility.yul\":616:636   */\n      calldataload\n        /* \"#utility.yul\":607:636   */\n      swap1\n      pop\n        /* \"#utility.yul\":645:678   */\n      tag_203\n        /* \"#utility.yul\":672:677   */\n      dup2\n        /* \"#utility.yul\":645:678   */\n      tag_141\n      jump\t// in\n    tag_203:\n        /* \"#utility.yul\":545:684   */\n      swap3\n      swap2\n      pop\n      pop\n      jump\t// out\n        /* \"#utility.yul\":690:1019   */\n    tag_12:\n        /* \"#utility.yul\":749:755   */\n      0x00\n        /* \"#utility.yul\":798:800   */\n      0x20\n        /* \"#utility.yul\":786:795   */\n      dup3\n        /* \"#utility.yul\":777:784   */\n      dup5\n        /* \"#utility.yul\":773:796   */\n      sub\n        /* \"#utility.yul\":769:801   */\n      slt\n        /* \"#utility.yul\":766:885   */\n      iszero\n      tag_205\n      jumpi\n        /* \"#utility.yul\":804:883   */\n      tag_206\n      tag_138\n      jump\t// in\n    tag_206:\n        /* \"#utility.yul\":766:885   */\n    tag_205:\n        /* \"#utility.yul\":924:925   */\n      0x00\n        /* \"#utility.yul\":949:1002   */\n      tag_207\n        /* \"#utility.yul\":994:1001   */\n      dup5\n        /* \"#utility.yul\":985:991   */\n      dup3\n        /* \"#utility.yul\":974:983   */\n      dup6\n        /* \"#utility.yul\":970:992   */\n      add\n        /* \"#utility.yul\":949:1002   */\n      tag_142\n      jump\t// in\n    tag_207:\n        /* \"#utility.yul\":939:1002   */\n      swap2\n      pop\n        /* \"#utility.yul\":895:1012   */\n      pop\n        /* \"#utility.yul\":690:1019   */\n      swap3\n      swap2\n      pop\n      pop\n      jump\t// out\n        /* \"#utility.yul\":1025:1151   */\n    tag_143:\n        /* \"#utility.yul\":1062:1069   */\n      0x00\n        /* \"#utility.yul\":1102:1144   */\n      0xffffffffffffffffffffffffffffffffffffffff\n        /* \"#utility.yul\":1095:1100   */\n      dup3\n        /* \"#utility.yul\":1091:1145   */\n      and\n        /* \"#utility.yul\":1080:1145   */\n      swap1\n      pop\n        /* \"#utility.yul\":1025:1151   */\n      swap2\n      swap1\n      pop\n      jump\t// out\n        /* \"#utility.yul\":1157:1253   */\n    tag_144:\n        /* \"#utility.yul\":1194:1201   */\n      0x00\n        /* \"#utility.yul\":1223:1247   */\n      tag_210\n        /* \"#utility.yul\":1241:1246   */\n      dup3\n        /* \"#utility.yul\":1223:1247   */\n      tag_143\n      jump\t// in\n    tag_210:\n        /* \"#utility.yul\":1212:1247   */\n      swap1\n      pop\n        /* \"#utility.yul\":1157:1253   */\n      swap2\n      swap1\n      pop\n      jump\t// out\n        /* \"#utility.yul\":1259:1377   */\n    tag_145:\n        /* \"#utility.yul\":1346:1370   */\n      tag_212\n        /* \"#utility.yul\":1364:1369   */\n      dup2\n        /* \"#utility.yul\":1346:1370   */\n      tag_144\n      jump\t// in\n    tag_212:\n        /* \"#utility.yul\":1341:1344   */\n      dup3\n        /* \"#utility.yul\":1334:1371   */\n      mstore\n        /* \"#utility.yul\":1259:1377   */\n      pop\n      pop\n      jump\t// out\n        /* \"#utility.yul\":1383:1605   */\n    tag_15:\n        /* \"#utility.yul\":1476:1480   */\n      0x00\n        /* \"#utility.yul\":1514:1516   */\n      0x20\n        /* \"#utility.yul\":1503:1512   */\n      dup3\n        /* \"#utility.yul\":1499:1517   */\n      add\n        /* \"#utility.yul\":1491:1517   */\n      swap1\n      pop\n        /* \"#utility.yul\":1527:1598   */\n      tag_214\n        /* \"#utility.yul\":1595:1596   */\n      0x00\n        /* \"#utility.yul\":1584:1593   */\n      dup4\n        /* \"#utility.yul\":1580:1597   */\n      add\n        /* \"#utility.yul\":1571:1577   */\n      dup5\n        /* \"#utility.yul\":1527:1598   */\n      tag_145\n      jump\t// in\n    tag_214:\n        /* \"#utility.yul\":1383:1605   */\n      swap3\n      swap2\n      pop\n      pop\n      jump\t// out\n        /* \"#utility.yul\":1611:1733   */\n    tag_146:\n        /* \"#utility.yul\":1684:1708   */\n      tag_216\n        /* \"#utility.yul\":1702:1707   */\n      dup2\n        /* \"#utility.yul\":1684:1708   */\n      tag_144\n      jump\t// in\n    tag_216:\n        /* \"#utility.yul\":1677:1682   */\n      dup2\n        /* \"#utility.yul\":1674:1709   */\n      eq\n        /* \"#utility.yul\":1664:1727   */\n      tag_217\n      jumpi\n        /* \"#utility.yul\":1723:1724   */\n      0x00\n        /* \"#utility.yul\":1720:1721   */\n      dup1\n        /* \"#utility.yul\":1713:1725   */\n      revert\n        /* \"#utility.yul\":1664:1727   */\n    tag_217:\n        /* \"#utility.yul\":1611:1733   */\n      pop\n      jump\t// out\n        /* \"#utility.yul\":1739:1878   */\n    tag_147:\n        /* \"#utility.yul\":1785:1790   */\n      0x00\n        /* \"#utility.yul\":1823:1829   */\n      dup2\n        /* \"#utility.yul\":1810:1830   */\n      calldataload\n        /* \"#utility.yul\":1801:1830   */\n      swap1\n      pop\n        /* \"#utility.yul\":1839:1872   */\n      tag_219\n        /* \"#utility.yul\":1866:1871   */\n      dup2\n        /* \"#utility.yul\":1839:1872   */\n      tag_146\n      jump\t// in\n    tag_219:\n        /* \"#utility.yul\":1739:1878   */\n      swap3\n      swap2\n      pop\n      pop\n      jump\t// out\n        /* \"#utility.yul\":1884:2503   */\n    tag_19:\n        /* \"#utility.yul\":1961:1967   */\n      0x00\n        /* \"#utility.yul\":1969:1975   */\n      dup1\n        /* \"#utility.yul\":1977:1983   */\n      0x00\n        /* \"#utility.yul\":2026:2028   */\n      0x60\n        /* \"#utility.yul\":2014:2023   */\n      dup5\n        /* \"#utility.yul\":2005:2012   */\n      dup7\n        /* \"#utility.yul\":2001:2024   */\n      sub\n        /* \"#utility.yul\":1997:2029   */\n      slt\n        /* \"#utility.yul\":1994:2113   */\n      iszero\n      tag_221\n      jumpi\n        /* \"#utility.yul\":2032:2111   */\n      tag_222\n      tag_138\n      jump\t// in\n    tag_222:\n        /* \"#utility.yul\":1994:2113   */\n    tag_221:\n        /* \"#utility.yul\":2152:2153   */\n      0x00\n        /* \"#utility.yul\":2177:2230   */\n      tag_223\n        /* \"#utility.yul\":2222:2229   */\n      dup7\n        /* \"#utility.yul\":2213:2219   */\n      dup3\n        /* \"#utility.yul\":2202:2211   */\n      dup8\n        /* \"#utility.yul\":2198:2220   */\n      add\n        /* \"#utility.yul\":2177:2230   */\n      tag_147\n      jump\t// in\n    tag_223:\n        /* \"#utility.yul\":2167:2230   */\n      swap4\n      pop\n        /* \"#utility.yul\":2123:2240   */\n      pop\n        /* \"#utility.yul\":2279:2281   */\n      0x20\n        /* \"#utility.yul\":2305:2358   */\n      tag_224\n        /* \"#utility.yul\":2350:2357   */\n      dup7\n        /* \"#utility.yul\":2341:2347   */\n      dup3\n        /* \"#utility.yul\":2330:2339   */\n      dup8\n        /* \"#utility.yul\":2326:2348   */\n      add\n        /* \"#utility.yul\":2305:2358   */\n      tag_142\n      jump\t// in\n    tag_224:\n        /* \"#utility.yul\":2295:2358   */\n      swap3\n      pop\n        /* \"#utility.yul\":2250:2368   */\n      pop\n        /* \"#utility.yul\":2407:2409   */\n      0x40\n        /* \"#utility.yul\":2433:2486   */\n      tag_225\n        /* \"#utility.yul\":2478:2485   */\n      dup7\n        /* \"#utility.yul\":2469:2475   */\n      dup3\n        /* \"#utility.yul\":2458:2467   */\n      dup8\n        /* \"#utility.yul\":2454:2476   */\n      add\n        /* \"#utility.yul\":2433:2486   */\n      tag_142\n      jump\t// in\n    tag_225:\n        /* \"#utility.yul\":2423:2486   */\n      swap2\n      pop\n        /* \"#utility.yul\":2378:2496   */\n      pop\n        /* \"#utility.yul\":1884:2503   */\n      swap3\n      pop\n      swap3\n      pop\n      swap3\n      jump\t// out\n        /* \"#utility.yul\":2509:2586   */\n    tag_148:\n        /* \"#utility.yul\":2546:2553   */\n      0x00\n        /* \"#utility.yul\":2575:2580   */\n      dup2\n        /* \"#utility.yul\":2564:2580   */\n      swap1\n      pop\n        /* \"#utility.yul\":2509:2586   */\n      swap2\n      swap1\n      pop\n      jump\t// out\n        /* \"#utility.yul\":2592:2710   */\n    tag_149:\n        /* \"#utility.yul\":2679:2703   */\n      tag_228\n        /* \"#utility.yul\":2697:2702   */\n      dup2\n        /* \"#utility.yul\":2679:2703   */\n      tag_148\n      jump\t// in\n    tag_228:\n        /* \"#utility.yul\":2674:2677   */\n      dup3\n        /* \"#utility.yul\":2667:2704   */\n      mstore\n        /* \"#utility.yul\":2592:2710   */\n      pop\n      pop\n      jump\t// out\n        /* \"#utility.yul\":2716:2938   */\n    tag_22:\n        /* \"#utility.yul\":2809:2813   */\n      0x00\n        /* \"#utility.yul\":2847:2849   */\n      0x20\n        /* \"#utility.yul\":2836:2845   */\n      dup3\n        /* \"#utility.yul\":2832:2850   */\n      add\n        /* \"#utility.yul\":2824:2850   */\n      swap1\n      pop\n        /* \"#utility.yul\":2860:2931   */\n      tag_230\n        /* \"#utility.yul\":2928:2929   */\n      0x00\n        /* \"#utility.yul\":2917:2926   */\n      dup4\n        /* \"#utility.yul\":2913:2930   */\n      add\n        /* \"#utility.yul\":2904:2910   */\n      dup5\n        /* \"#utility.yul\":2860:2931   */\n      tag_149\n      jump\t// in\n    tag_230:\n        /* \"#utility.yul\":2716:2938   */\n      swap3\n      swap2\n      pop\n      pop\n      jump\t// out\n        /* \"#utility.yul\":2944:3061   */\n    tag_150:\n        /* \"#utility.yul\":3053:3054   */\n      0x00\n        /* \"#utility.yul\":3050:3051   */\n      dup1\n        /* \"#utility.yul\":3043:3055   */\n      revert\n        /* \"#utility.yul\":3067:3169   */\n    tag_151:\n        /* \"#utility.yul\":3108:3114   */\n      0x00\n        /* \"#utility.yul\":3159:3161   */\n      0x1f\n        /* \"#utility.yul\":3155:3162   */\n      not\n        /* \"#utility.yul\":3150:3152   */\n      0x1f\n        /* \"#utility.yul\":3143:3148   */\n      dup4\n        /* \"#utility.yul\":3139:3153   */\n      add\n        /* \"#utility.yul\":3135:3163   */\n      and\n        /* \"#utility.yul\":3125:3163   */\n      swap1\n      pop\n        /* \"#utility.yul\":3067:3169   */\n      swap2\n      swap1\n      pop\n      jump\t// out\n        /* \"#utility.yul\":3175:3355   */\n    tag_152:\n        /* \"#utility.yul\":3223:3300   */\n      0x4e487b7100000000000000000000000000000000000000000000000000000000\n        /* \"#utility.yul\":3220:3221   */\n      0x00\n        /* \"#utility.yul\":3213:3301   */\n      mstore\n        /* \"#utility.yul\":3320:3324   */\n      0x41\n        /* \"#utility.yul\":3317:3318   */\n      0x04\n        /* \"#utility.yul\":3310:3325   */\n      mstore\n        /* \"#utility.yul\":3344:3348   */\n      0x24\n        /* \"#utility.yul\":3341:3342   */\n      0x00\n        /* \"#utility.yul\":3334:3349   */\n      revert\n        /* \"#utility.yul\":3361:3642   */\n    tag_153:\n        /* \"#utility.yul\":3444:3471   */\n      tag_235\n        /* \"#utility.yul\":3466:3470   */\n      dup3\n        /* \"#utility.yul\":3444:3471   */\n      tag_151\n      jump\t// in\n    tag_235:\n        /* \"#utility.yul\":3436:3442   */\n      dup2\n        /* \"#utility.yul\":3432:3472   */\n      add\n        /* \"#utility.yul\":3574:3580   */\n      dup2\n        /* \"#utility.yul\":3562:3572   */\n      dup2\n        /* \"#utility.yul\":3559:3581   */\n      lt\n        /* \"#utility.yul\":3538:3556   */\n      0xffffffffffffffff\n        /* \"#utility.yul\":3526:3536   */\n      dup3\n        /* \"#utility.yul\":3523:3557   */\n      gt\n        /* \"#utility.yul\":3520:3582   */\n      or\n        /* \"#utility.yul\":3517:3605   */\n      iszero\n      tag_236\n      jumpi\n        /* \"#utility.yul\":3585:3603   */\n      tag_237\n      tag_152\n      jump\t// in\n    tag_237:\n        /* \"#utility.yul\":3517:3605   */\n    tag_236:\n        /* \"#utility.yul\":3625:3635   */\n      dup1\n        /* \"#utility.yul\":3621:3623   */\n      0x40\n        /* \"#utility.yul\":3614:3636   */\n      mstore\n        /* \"#utility.yul\":3404:3642   */\n      pop\n        /* \"#utility.yul\":3361:3642   */\n      pop\n      pop\n      jump\t// out\n        /* \"#utility.yul\":3648:3777   */\n    tag_154:\n        /* \"#utility.yul\":3682:3688   */\n      0x00\n        /* \"#utility.yul\":3709:3729   */\n      tag_239\n      tag_137\n      jump\t// in\n    tag_239:\n        /* \"#utility.yul\":3699:3729   */\n      swap1\n      pop\n        /* \"#utility.yul\":3738:3771   */\n      tag_240\n        /* \"#utility.yul\":3766:3770   */\n      dup3\n        /* \"#utility.yul\":3758:3764   */\n      dup3\n        /* \"#utility.yul\":3738:3771   */\n      tag_153\n      jump\t// in\n    tag_240:\n        /* \"#utility.yul\":3648:3777   */\n      swap2\n      swap1\n      pop\n      jump\t// out\n        /* \"#utility.yul\":3783:4041   */\n    tag_155:\n        /* \"#utility.yul\":3867:3871   */\n      0x00\n        /* \"#utility.yul\":3957:3975   */\n      0xffffffffffffffff\n        /* \"#utility.yul\":3949:3955   */\n      dup3\n        /* \"#utility.yul\":3946:3976   */\n      gt\n        /* \"#utility.yul\":3943:3999   */\n      iszero\n      tag_242\n      jumpi\n        /* \"#utility.yul\":3979:3997   */\n      tag_243\n      tag_152\n      jump\t// in\n    tag_243:\n        /* \"#utility.yul\":3943:3999   */\n    tag_242:\n        /* \"#utility.yul\":4029:4033   */\n      0x20\n        /* \"#utility.yul\":4021:4027   */\n      dup3\n        /* \"#utility.yul\":4017:4034   */\n      mul\n        /* \"#utility.yul\":4009:4034   */\n      swap1\n      pop\n        /* \"#utility.yul\":3783:4041   */\n      swap2\n      swap1\n      pop\n      jump\t// out\n        /* \"#utility.yul\":4047:4164   */\n    tag_156:\n        /* \"#utility.yul\":4156:4157   */\n      0x00\n        /* \"#utility.yul\":4153:4154   */\n      dup1\n        /* \"#utility.yul\":4146:4158   */\n      revert\n        /* \"#utility.yul\":4170:4287   */\n    tag_157:\n        /* \"#utility.yul\":4279:4280   */\n      0x00\n        /* \"#utility.yul\":4276:4277   */\n      dup1\n        /* \"#utility.yul\":4269:4281   */\n      revert\n        /* \"#utility.yul\":4293:4600   */\n    tag_158:\n        /* \"#utility.yul\":4354:4358   */\n      0x00\n        /* \"#utility.yul\":4444:4462   */\n      0xffffffffffffffff\n        /* \"#utility.yul\":4436:4442   */\n      dup3\n        /* \"#utility.yul\":4433:4463   */\n      gt\n        /* \"#utility.yul\":4430:4486   */\n      iszero\n      tag_247\n      jumpi\n        /* \"#utility.yul\":4466:4484   */\n      tag_248\n      tag_152\n      jump\t// in\n    tag_248:\n        /* \"#utility.yul\":4430:4486   */\n    tag_247:\n        /* \"#utility.yul\":4504:4533   */\n      tag_249\n        /* \"#utility.yul\":4526:4532   */\n      dup3\n        /* \"#utility.yul\":4504:4533   */\n      tag_151\n      jump\t// in\n    tag_249:\n        /* \"#utility.yul\":4496:4533   */\n      swap1\n      pop\n        /* \"#utility.yul\":4588:4592   */\n      0x20\n        /* \"#utility.yul\":4582:4586   */\n      dup2\n        /* \"#utility.yul\":4578:4593   */\n      add\n        /* \"#utility.yul\":4570:4593   */\n      swap1\n      pop\n        /* \"#utility.yul\":4293:4600   */\n      swap2\n      swap1\n      pop\n      jump\t// out\n        /* \"#utility.yul\":4606:4760   */\n    tag_159:\n        /* \"#utility.yul\":4690:4696   */\n      dup3\n        /* \"#utility.yul\":4685:4688   */\n      dup2\n        /* \"#utility.yul\":4680:4683   */\n      dup4\n        /* \"#utility.yul\":4667:4697   */\n      calldatacopy\n        /* \"#utility.yul\":4752:4753   */\n      0x00\n        /* \"#utility.yul\":4743:4749   */\n      dup4\n        /* \"#utility.yul\":4738:4741   */\n      dup4\n        /* \"#utility.yul\":4734:4750   */\n      add\n        /* \"#utility.yul\":4727:4754   */\n      mstore\n        /* \"#utility.yul\":4606:4760   */\n      pop\n      pop\n      pop\n      jump\t// out\n        /* \"#utility.yul\":4766:5176   */\n    tag_160:\n        /* \"#utility.yul\":4843:4848   */\n      0x00\n        /* \"#utility.yul\":4868:4933   */\n      tag_252\n        /* \"#utility.yul\":4884:4932   */\n      tag_253\n        /* \"#utility.yul\":4925:4931   */\n      dup5\n        /* \"#utility.yul\":4884:4932   */\n      tag_158\n      jump\t// in\n    tag_253:\n        /* \"#utility.yul\":4868:4933   */\n      tag_154\n      jump\t// in\n    tag_252:\n        /* \"#utility.yul\":4859:4933   */\n      swap1\n      pop\n        /* \"#utility.yul\":4956:4962   */\n      dup3\n        /* \"#utility.yul\":4949:4954   */\n      dup2\n        /* \"#utility.yul\":4942:4963   */\n      mstore\n        /* \"#utility.yul\":4994:4998   */\n      0x20\n        /* \"#utility.yul\":4987:4992   */\n      dup2\n        /* \"#utility.yul\":4983:4999   */\n      add\n        /* \"#utility.yul\":5032:5035   */\n      dup5\n        /* \"#utility.yul\":5023:5029   */\n      dup5\n        /* \"#utility.yul\":5018:5021   */\n      dup5\n        /* \"#utility.yul\":5014:5030   */\n      add\n        /* \"#utility.yul\":5011:5036   */\n      gt\n        /* \"#utility.yul\":5008:5120   */\n      iszero\n      tag_254\n      jumpi\n        /* \"#utility.yul\":5039:5118   */\n      tag_255\n      tag_157\n      jump\t// in\n    tag_255:\n        /* \"#utility.yul\":5008:5120   */\n    tag_254:\n        /* \"#utility.yul\":5129:5170   */\n      tag_256\n        /* \"#utility.yul\":5163:5169   */\n      dup5\n        /* \"#utility.yul\":5158:5161   */\n      dup3\n        /* \"#utility.yul\":5153:5156   */\n      dup6\n        /* \"#utility.yul\":5129:5170   */\n      tag_159\n      jump\t// in\n    tag_256:\n        /* \"#utility.yul\":4849:5176   */\n      pop\n        /* \"#utility.yul\":4766:5176   */\n      swap4\n      swap3\n      pop\n      pop\n      pop\n      jump\t// out\n        /* \"#utility.yul\":5195:5533   */\n    tag_161:\n        /* \"#utility.yul\":5250:5255   */\n      0x00\n        /* \"#utility.yul\":5299:5302   */\n      dup3\n        /* \"#utility.yul\":5292:5296   */\n      0x1f\n        /* \"#utility.yul\":5284:5290   */\n      dup4\n        /* \"#utility.yul\":5280:5297   */\n      add\n        /* \"#utility.yul\":5276:5303   */\n      slt\n        /* \"#utility.yul\":5266:5388   */\n      tag_258\n      jumpi\n        /* \"#utility.yul\":5307:5386   */\n      tag_259\n      tag_150\n      jump\t// in\n    tag_259:\n        /* \"#utility.yul\":5266:5388   */\n    tag_258:\n        /* \"#utility.yul\":5424:5430   */\n      dup2\n        /* \"#utility.yul\":5411:5431   */\n      calldataload\n        /* \"#utility.yul\":5449:5527   */\n      tag_260\n        /* \"#utility.yul\":5523:5526   */\n      dup5\n        /* \"#utility.yul\":5515:5521   */\n      dup3\n        /* \"#utility.yul\":5508:5512   */\n      0x20\n        /* \"#utility.yul\":5500:5506   */\n      dup7\n        /* \"#utility.yul\":5496:5513   */\n      add\n        /* \"#utility.yul\":5449:5527   */\n      tag_160\n      jump\t// in\n    tag_260:\n        /* \"#utility.yul\":5440:5527   */\n      swap2\n      pop\n        /* \"#utility.yul\":5256:5533   */\n      pop\n        /* \"#utility.yul\":5195:5533   */\n      swap3\n      swap2\n      pop\n      pop\n      jump\t// out\n        /* \"#utility.yul\":5555:6430   */\n    tag_162:\n        /* \"#utility.yul\":5658:5663   */\n      0x00\n        /* \"#utility.yul\":5683:5771   */\n      tag_262\n        /* \"#utility.yul\":5699:5770   */\n      tag_263\n        /* \"#utility.yul\":5763:5769   */\n      dup5\n        /* \"#utility.yul\":5699:5770   */\n      tag_155\n      jump\t// in\n    tag_263:\n        /* \"#utility.yul\":5683:5771   */\n      tag_154\n      jump\t// in\n    tag_262:\n        /* \"#utility.yul\":5674:5771   */\n      swap1\n      pop\n        /* \"#utility.yul\":5791:5796   */\n      dup1\n        /* \"#utility.yul\":5844:5848   */\n      0x20\n        /* \"#utility.yul\":5836:5842   */\n      dup5\n        /* \"#utility.yul\":5832:5849   */\n      mul\n        /* \"#utility.yul\":5824:5830   */\n      dup4\n        /* \"#utility.yul\":5820:5850   */\n      add\n        /* \"#utility.yul\":5873:5876   */\n      dup6\n        /* \"#utility.yul\":5865:5871   */\n      dup2\n        /* \"#utility.yul\":5862:5877   */\n      gt\n        /* \"#utility.yul\":5859:5981   */\n      iszero\n      tag_264\n      jumpi\n        /* \"#utility.yul\":5892:5971   */\n      tag_265\n      tag_156\n      jump\t// in\n    tag_265:\n        /* \"#utility.yul\":5859:5981   */\n    tag_264:\n        /* \"#utility.yul\":6007:6013   */\n      dup4\n        /* \"#utility.yul\":5990:6424   */\n    tag_266:\n        /* \"#utility.yul\":6024:6030   */\n      dup2\n        /* \"#utility.yul\":6019:6022   */\n      dup2\n        /* \"#utility.yul\":6016:6031   */\n      lt\n        /* \"#utility.yul\":5990:6424   */\n      iszero\n      tag_268\n      jumpi\n        /* \"#utility.yul\":6113:6116   */\n      dup1\n        /* \"#utility.yul\":6100:6117   */\n      calldataload\n        /* \"#utility.yul\":6149:6167   */\n      0xffffffffffffffff\n        /* \"#utility.yul\":6136:6147   */\n      dup2\n        /* \"#utility.yul\":6133:6168   */\n      gt\n        /* \"#utility.yul\":6130:6252   */\n      iszero\n      tag_269\n      jumpi\n        /* \"#utility.yul\":6171:6250   */\n      tag_270\n      tag_150\n      jump\t// in\n    tag_270:\n        /* \"#utility.yul\":6130:6252   */\n    tag_269:\n        /* \"#utility.yul\":6295:6306   */\n      dup1\n        /* \"#utility.yul\":6287:6293   */\n      dup7\n        /* \"#utility.yul\":6283:6307   */\n      add\n        /* \"#utility.yul\":6333:6379   */\n      tag_271\n        /* \"#utility.yul\":6375:6378   */\n      dup10\n        /* \"#utility.yul\":6363:6373   */\n      dup3\n        /* \"#utility.yul\":6333:6379   */\n      tag_161\n      jump\t// in\n    tag_271:\n        /* \"#utility.yul\":6328:6331   */\n      dup6\n        /* \"#utility.yul\":6321:6380   */\n      mstore\n        /* \"#utility.yul\":6409:6413   */\n      0x20\n        /* \"#utility.yul\":6404:6407   */\n      dup6\n        /* \"#utility.yul\":6400:6414   */\n      add\n        /* \"#utility.yul\":6393:6414   */\n      swap5\n      pop\n        /* \"#utility.yul\":6066:6424   */\n      pop\n      pop\n        /* \"#utility.yul\":6050:6054   */\n      0x20\n        /* \"#utility.yul\":6045:6048   */\n      dup2\n        /* \"#utility.yul\":6041:6055   */\n      add\n        /* \"#utility.yul\":6034:6055   */\n      swap1\n      pop\n        /* \"#utility.yul\":5990:6424   */\n      jump(tag_266)\n    tag_268:\n        /* \"#utility.yul\":5994:6015   */\n      pop\n        /* \"#utility.yul\":5664:6430   */\n      pop\n      pop\n        /* \"#utility.yul\":5555:6430   */\n      swap4\n      swap3\n      pop\n      pop\n      pop\n      jump\t// out\n        /* \"#utility.yul\":6452:6809   */\n    tag_163:\n        /* \"#utility.yul\":6530:6535   */\n      0x00\n        /* \"#utility.yul\":6579:6582   */\n      dup3\n        /* \"#utility.yul\":6572:6576   */\n      0x1f\n        /* \"#utility.yul\":6564:6570   */\n      dup4\n        /* \"#utility.yul\":6560:6577   */\n      add\n        /* \"#utility.yul\":6556:6583   */\n      slt\n        /* \"#utility.yul\":6546:6668   */\n      tag_273\n      jumpi\n        /* \"#utility.yul\":6587:6666   */\n      tag_274\n      tag_150\n      jump\t// in\n    tag_274:\n        /* \"#utility.yul\":6546:6668   */\n    tag_273:\n        /* \"#utility.yul\":6691:6695   */\n      0x02\n        /* \"#utility.yul\":6713:6803   */\n      tag_275\n        /* \"#utility.yul\":6799:6802   */\n      dup5\n        /* \"#utility.yul\":6791:6797   */\n      dup3\n        /* \"#utility.yul\":6783:6789   */\n      dup6\n        /* \"#utility.yul\":6713:6803   */\n      tag_162\n      jump\t// in\n    tag_275:\n        /* \"#utility.yul\":6704:6803   */\n      swap2\n      pop\n        /* \"#utility.yul\":6536:6809   */\n      pop\n        /* \"#utility.yul\":6452:6809   */\n      swap3\n      swap2\n      pop\n      pop\n      jump\t// out\n        /* \"#utility.yul\":6815:7804   */\n    tag_26:\n        /* \"#utility.yul\":6933:6939   */\n      0x00\n        /* \"#utility.yul\":6941:6947   */\n      dup1\n        /* \"#utility.yul\":6949:6955   */\n      0x00\n        /* \"#utility.yul\":6957:6963   */\n      dup1\n        /* \"#utility.yul\":7006:7009   */\n      0x80\n        /* \"#utility.yul\":6994:7003   */\n      dup6\n        /* \"#utility.yul\":6985:6992   */\n      dup8\n        /* \"#utility.yul\":6981:7004   */\n      sub\n        /* \"#utility.yul\":6977:7010   */\n      slt\n        /* \"#utility.yul\":6974:7094   */\n      iszero\n      tag_277\n      jumpi\n        /* \"#utility.yul\":7013:7092   */\n      tag_278\n      tag_138\n      jump\t// in\n    tag_278:\n        /* \"#utility.yul\":6974:7094   */\n    tag_277:\n        /* \"#utility.yul\":7133:7134   */\n      0x00\n        /* \"#utility.yul\":7158:7211   */\n      tag_279\n        /* \"#utility.yul\":7203:7210   */\n      dup8\n        /* \"#utility.yul\":7194:7200   */\n      dup3\n        /* \"#utility.yul\":7183:7192   */\n      dup9\n        /* \"#utility.yul\":7179:7201   */\n      add\n        /* \"#utility.yul\":7158:7211   */\n      tag_147\n      jump\t// in\n    tag_279:\n        /* \"#utility.yul\":7148:7211   */\n      swap5\n      pop\n        /* \"#utility.yul\":7104:7221   */\n      pop\n        /* \"#utility.yul\":7260:7262   */\n      0x20\n        /* \"#utility.yul\":7286:7339   */\n      tag_280\n        /* \"#utility.yul\":7331:7338   */\n      dup8\n        /* \"#utility.yul\":7322:7328   */\n      dup3\n        /* \"#utility.yul\":7311:7320   */\n      dup9\n        /* \"#utility.yul\":7307:7329   */\n      add\n        /* \"#utility.yul\":7286:7339   */\n      tag_142\n      jump\t// in\n    tag_280:\n        /* \"#utility.yul\":7276:7339   */\n      swap4\n      pop\n        /* \"#utility.yul\":7231:7349   */\n      pop\n        /* \"#utility.yul\":7388:7390   */\n      0x40\n        /* \"#utility.yul\":7414:7467   */\n      tag_281\n        /* \"#utility.yul\":7459:7466   */\n      dup8\n        /* \"#utility.yul\":7450:7456   */\n      dup3\n        /* \"#utility.yul\":7439:7448   */\n      dup9\n        /* \"#utility.yul\":7435:7457   */\n      add\n        /* \"#utility.yul\":7414:7467   */\n      tag_142\n      jump\t// in\n    tag_281:\n        /* \"#utility.yul\":7404:7467   */\n      swap3\n      pop\n        /* \"#utility.yul\":7359:7477   */\n      pop\n        /* \"#utility.yul\":7544:7546   */\n      0x60\n        /* \"#utility.yul\":7533:7542   */\n      dup6\n        /* \"#utility.yul\":7529:7547   */\n      add\n        /* \"#utility.yul\":7516:7548   */\n      calldataload\n        /* \"#utility.yul\":7575:7593   */\n      0xffffffffffffffff\n        /* \"#utility.yul\":7567:7573   */\n      dup2\n        /* \"#utility.yul\":7564:7594   */\n      gt\n        /* \"#utility.yul\":7561:7678   */\n      iszero\n      tag_282\n      jumpi\n        /* \"#utility.yul\":7597:7676   */\n      tag_283\n      tag_139\n      jump\t// in\n    tag_283:\n        /* \"#utility.yul\":7561:7678   */\n    tag_282:\n        /* \"#utility.yul\":7702:7787   */\n      tag_284\n        /* \"#utility.yul\":7779:7786   */\n      dup8\n        /* \"#utility.yul\":7770:7776   */\n      dup3\n        /* \"#utility.yul\":7759:7768   */\n      dup9\n        /* \"#utility.yul\":7755:7777   */\n      add\n        /* \"#utility.yul\":7702:7787   */\n      tag_163\n      jump\t// in\n    tag_284:\n        /* \"#utility.yul\":7692:7787   */\n      swap2\n      pop\n        /* \"#utility.yul\":7487:7797   */\n      pop\n        /* \"#utility.yul\":6815:7804   */\n      swap3\n      swap6\n      swap2\n      swap5\n      pop\n      swap3\n      pop\n      jump\t// out\n        /* \"#utility.yul\":7810:7904   */\n    tag_164:\n        /* \"#utility.yul\":7843:7851   */\n      0x00\n        /* \"#utility.yul\":7891:7896   */\n      dup2\n        /* \"#utility.yul\":7887:7889   */\n      0x60\n        /* \"#utility.yul\":7883:7897   */\n      shl\n        /* \"#utility.yul\":7862:7897   */\n      swap1\n      pop\n        /* \"#utility.yul\":7810:7904   */\n      swap2\n      swap1\n      pop\n      jump\t// out\n        /* \"#utility.yul\":7910:8004   */\n    tag_165:\n        /* \"#utility.yul\":7949:7956   */\n      0x00\n        /* \"#utility.yul\":7978:7998   */\n      tag_287\n        /* \"#utility.yul\":7992:7997   */\n      dup3\n        /* \"#utility.yul\":7978:7998   */\n      tag_164\n      jump\t// in\n    tag_287:\n        /* \"#utility.yul\":7967:7998   */\n      swap1\n      pop\n        /* \"#utility.yul\":7910:8004   */\n      swap2\n      swap1\n      pop\n      jump\t// out\n        /* \"#utility.yul\":8010:8110   */\n    tag_166:\n        /* \"#utility.yul\":8049:8056   */\n      0x00\n        /* \"#utility.yul\":8078:8104   */\n      tag_289\n        /* \"#utility.yul\":8098:8103   */\n      dup3\n        /* \"#utility.yul\":8078:8104   */\n      tag_165\n      jump\t// in\n    tag_289:\n        /* \"#utility.yul\":8067:8104   */\n      swap1\n      pop\n        /* \"#utility.yul\":8010:8110   */\n      swap2\n      swap1\n      pop\n      jump\t// out\n        /* \"#utility.yul\":8116:8273   */\n    tag_167:\n        /* \"#utility.yul\":8221:8266   */\n      tag_291\n        /* \"#utility.yul\":8241:8265   */\n      tag_292\n        /* \"#utility.yul\":8259:8264   */\n      dup3\n        /* \"#utility.yul\":8241:8265   */\n      tag_144\n      jump\t// in\n    tag_292:\n        /* \"#utility.yul\":8221:8266   */\n      tag_166\n      jump\t// in\n    tag_291:\n        /* \"#utility.yul\":8216:8219   */\n      dup3\n        /* \"#utility.yul\":8209:8267   */\n      mstore\n        /* \"#utility.yul\":8116:8273   */\n      pop\n      pop\n      jump\t// out\n        /* \"#utility.yul\":8279:8358   */\n    tag_168:\n        /* \"#utility.yul\":8318:8325   */\n      0x00\n        /* \"#utility.yul\":8347:8352   */\n      dup2\n        /* \"#utility.yul\":8336:8352   */\n      swap1\n      pop\n        /* \"#utility.yul\":8279:8358   */\n      swap2\n      swap1\n      pop\n      jump\t// out\n        /* \"#utility.yul\":8364:8521   */\n    tag_169:\n        /* \"#utility.yul\":8469:8514   */\n      tag_295\n        /* \"#utility.yul\":8489:8513   */\n      tag_296\n        /* \"#utility.yul\":8507:8512   */\n      dup3\n        /* \"#utility.yul\":8489:8513   */\n      tag_140\n      jump\t// in\n    tag_296:\n        /* \"#utility.yul\":8469:8514   */\n      tag_168\n      jump\t// in\n    tag_295:\n        /* \"#utility.yul\":8464:8467   */\n      dup3\n        /* \"#utility.yul\":8457:8515   */\n      mstore\n        /* \"#utility.yul\":8364:8521   */\n      pop\n      pop\n      jump\t// out\n        /* \"#utility.yul\":8527:9065   */\n    tag_34:\n        /* \"#utility.yul\":8695:8698   */\n      0x00\n        /* \"#utility.yul\":8710:8785   */\n      tag_298\n        /* \"#utility.yul\":8781:8784   */\n      dup3\n        /* \"#utility.yul\":8772:8778   */\n      dup7\n        /* \"#utility.yul\":8710:8785   */\n      tag_167\n      jump\t// in\n    tag_298:\n        /* \"#utility.yul\":8810:8812   */\n      0x14\n        /* \"#utility.yul\":8805:8808   */\n      dup3\n        /* \"#utility.yul\":8801:8813   */\n      add\n        /* \"#utility.yul\":8794:8813   */\n      swap2\n      pop\n        /* \"#utility.yul\":8823:8898   */\n      tag_299\n        /* \"#utility.yul\":8894:8897   */\n      dup3\n        /* \"#utility.yul\":8885:8891   */\n      dup6\n        /* \"#utility.yul\":8823:8898   */\n      tag_169\n      jump\t// in\n    tag_299:\n        /* \"#utility.yul\":8923:8925   */\n      0x20\n        /* \"#utility.yul\":8918:8921   */\n      dup3\n        /* \"#utility.yul\":8914:8926   */\n      add\n        /* \"#utility.yul\":8907:8926   */\n      swap2\n      pop\n        /* \"#utility.yul\":8936:9011   */\n      tag_300\n        /* \"#utility.yul\":9007:9010   */\n      dup3\n        /* \"#utility.yul\":8998:9004   */\n      dup5\n        /* \"#utility.yul\":8936:9011   */\n      tag_169\n      jump\t// in\n    tag_300:\n        /* \"#utility.yul\":9036:9038   */\n      0x20\n        /* \"#utility.yul\":9031:9034   */\n      dup3\n        /* \"#utility.yul\":9027:9039   */\n      add\n        /* \"#utility.yul\":9020:9039   */\n      swap2\n      pop\n        /* \"#utility.yul\":9056:9059   */\n      dup2\n        /* \"#utility.yul\":9049:9059   */\n      swap1\n      pop\n        /* \"#utility.yul\":8527:9065   */\n      swap5\n      swap4\n      pop\n      pop\n      pop\n      pop\n      jump\t// out\n        /* \"#utility.yul\":9071:9240   */\n    tag_170:\n        /* \"#utility.yul\":9155:9166   */\n      0x00\n        /* \"#utility.yul\":9189:9195   */\n      dup3\n        /* \"#utility.yul\":9184:9187   */\n      dup3\n        /* \"#utility.yul\":9177:9196   */\n      mstore\n        /* \"#utility.yul\":9229:9233   */\n      0x20\n        /* \"#utility.yul\":9224:9227   */\n      dup3\n        /* \"#utility.yul\":9220:9234   */\n      add\n        /* \"#utility.yul\":9205:9234   */\n      swap1\n      pop\n        /* \"#utility.yul\":9071:9240   */\n      swap3\n      swap2\n      pop\n      pop\n      jump\t// out\n        /* \"#utility.yul\":9246:9407   */\n    tag_171:\n        /* \"#utility.yul\":9386:9399   */\n      0x696e76616c696420736967000000000000000000000000000000000000000000\n        /* \"#utility.yul\":9382:9383   */\n      0x00\n        /* \"#utility.yul\":9374:9380   */\n      dup3\n        /* \"#utility.yul\":9370:9384   */\n      add\n        /* \"#utility.yul\":9363:9400   */\n      mstore\n        /* \"#utility.yul\":9246:9407   */\n      pop\n      jump\t// out\n        /* \"#utility.yul\":9413:9779   */\n    tag_172:\n        /* \"#utility.yul\":9555:9558   */\n      0x00\n        /* \"#utility.yul\":9576:9643   */\n      tag_304\n        /* \"#utility.yul\":9640:9642   */\n      0x0b\n        /* \"#utility.yul\":9635:9638   */\n      dup4\n        /* \"#utility.yul\":9576:9643   */\n      tag_170\n      jump\t// in\n    tag_304:\n        /* \"#utility.yul\":9569:9643   */\n      swap2\n      pop\n        /* \"#utility.yul\":9652:9745   */\n      tag_305\n        /* \"#utility.yul\":9741:9744   */\n      dup3\n        /* \"#utility.yul\":9652:9745   */\n      tag_171\n      jump\t// in\n    tag_305:\n        /* \"#utility.yul\":9770:9772   */\n      0x20\n        /* \"#utility.yul\":9765:9768   */\n      dup3\n        /* \"#utility.yul\":9761:9773   */\n      add\n        /* \"#utility.yul\":9754:9773   */\n      swap1\n      pop\n        /* \"#utility.yul\":9413:9779   */\n      swap2\n      swap1\n      pop\n      jump\t// out\n        /* \"#utility.yul\":9785:10204   */\n    tag_41:\n        /* \"#utility.yul\":9951:9955   */\n      0x00\n        /* \"#utility.yul\":9989:9991   */\n      0x20\n        /* \"#utility.yul\":9978:9987   */\n      dup3\n        /* \"#utility.yul\":9974:9992   */\n      add\n        /* \"#utility.yul\":9966:9992   */\n      swap1\n      pop\n        /* \"#utility.yul\":10038:10047   */\n      dup2\n        /* \"#utility.yul\":10032:10036   */\n      dup2\n        /* \"#utility.yul\":10028:10048   */\n      sub\n        /* \"#utility.yul\":10024:10025   */\n      0x00\n        /* \"#utility.yul\":10013:10022   */\n      dup4\n        /* \"#utility.yul\":10009:10026   */\n      add\n        /* \"#utility.yul\":10002:10049   */\n      mstore\n        /* \"#utility.yul\":10066:10197   */\n      tag_307\n        /* \"#utility.yul\":10192:10196   */\n      dup2\n        /* \"#utility.yul\":10066:10197   */\n      tag_172\n      jump\t// in\n    tag_307:\n        /* \"#utility.yul\":10058:10197   */\n      swap1\n      pop\n        /* \"#utility.yul\":9785:10204   */\n      swap2\n      swap1\n      pop\n      jump\t// out\n        /* \"#utility.yul\":10210:10357   */\n    tag_173:\n        /* \"#utility.yul\":10311:10322   */\n      0x00\n        /* \"#utility.yul\":10348:10351   */\n      dup2\n        /* \"#utility.yul\":10333:10351   */\n      swap1\n      pop\n        /* \"#utility.yul\":10210:10357   */\n      swap3\n      swap2\n      pop\n      pop\n      jump\t// out\n        /* \"#utility.yul\":10363:10477   */\n    tag_174:\n      pop\n      jump\t// out\n        /* \"#utility.yul\":10483:10881   */\n    tag_175:\n        /* \"#utility.yul\":10642:10645   */\n      0x00\n        /* \"#utility.yul\":10663:10746   */\n      tag_311\n        /* \"#utility.yul\":10744:10745   */\n      0x00\n        /* \"#utility.yul\":10739:10742   */\n      dup4\n        /* \"#utility.yul\":10663:10746   */\n      tag_173\n      jump\t// in\n    tag_311:\n        /* \"#utility.yul\":10656:10746   */\n      swap2\n      pop\n        /* \"#utility.yul\":10755:10848   */\n      tag_312\n        /* \"#utility.yul\":10844:10847   */\n      dup3\n        /* \"#utility.yul\":10755:10848   */\n      tag_174\n      jump\t// in\n    tag_312:\n        /* \"#utility.yul\":10873:10874   */\n      0x00\n        /* \"#utility.yul\":10868:10871   */\n      dup3\n        /* \"#utility.yul\":10864:10875   */\n      add\n        /* \"#utility.yul\":10857:10875   */\n      swap1\n      pop\n        /* \"#utility.yul\":10483:10881   */\n      swap2\n      swap1\n      pop\n      jump\t// out\n        /* \"#utility.yul\":10887:11266   */\n    tag_43:\n        /* \"#utility.yul\":11071:11074   */\n      0x00\n        /* \"#utility.yul\":11093:11240   */\n      tag_314\n        /* \"#utility.yul\":11236:11239   */\n      dup3\n        /* \"#utility.yul\":11093:11240   */\n      tag_175\n      jump\t// in\n    tag_314:\n        /* \"#utility.yul\":11086:11240   */\n      swap2\n      pop\n        /* \"#utility.yul\":11257:11260   */\n      dup2\n        /* \"#utility.yul\":11250:11260   */\n      swap1\n      pop\n        /* \"#utility.yul\":10887:11266   */\n      swap2\n      swap1\n      pop\n      jump\t// out\n        /* \"#utility.yul\":11272:11442   */\n    tag_176:\n        /* \"#utility.yul\":11412:11434   */\n      0x4661696c656420746f2073656e64204574686572000000000000000000000000\n        /* \"#utility.yul\":11408:11409   */\n      0x00\n        /* \"#utility.yul\":11400:11406   */\n      dup3\n        /* \"#utility.yul\":11396:11410   */\n      add\n        /* \"#utility.yul\":11389:11435   */\n      mstore\n        /* \"#utility.yul\":11272:11442   */\n      pop\n      jump\t// out\n        /* \"#utility.yul\":11448:11814   */\n    tag_177:\n        /* \"#utility.yul\":11590:11593   */\n      0x00\n        /* \"#utility.yul\":11611:11678   */\n      tag_317\n        /* \"#utility.yul\":11675:11677   */\n      0x14\n        /* \"#utility.yul\":11670:11673   */\n      dup4\n        /* \"#utility.yul\":11611:11678   */\n      tag_170\n      jump\t// in\n    tag_317:\n        /* \"#utility.yul\":11604:11678   */\n      swap2\n      pop\n        /* \"#utility.yul\":11687:11780   */\n      tag_318\n        /* \"#utility.yul\":11776:11779   */\n      dup3\n        /* \"#utility.yul\":11687:11780   */\n      tag_176\n      jump\t// in\n    tag_318:\n        /* \"#utility.yul\":11805:11807   */\n      0x20\n        /* \"#utility.yul\":11800:11803   */\n      dup3\n        /* \"#utility.yul\":11796:11808   */\n      add\n        /* \"#utility.yul\":11789:11808   */\n      swap1\n      pop\n        /* \"#utility.yul\":11448:11814   */\n      swap2\n      swap1\n      pop\n      jump\t// out\n        /* \"#utility.yul\":11820:12239   */\n    tag_49:\n        /* \"#utility.yul\":11986:11990   */\n      0x00\n        /* \"#utility.yul\":12024:12026   */\n      0x20\n        /* \"#utility.yul\":12013:12022   */\n      dup3\n        /* \"#utility.yul\":12009:12027   */\n      add\n        /* \"#utility.yul\":12001:12027   */\n      swap1\n      pop\n        /* \"#utility.yul\":12073:12082   */\n      dup2\n        /* \"#utility.yul\":12067:12071   */\n      dup2\n        /* \"#utility.yul\":12063:12083   */\n      sub\n        /* \"#utility.yul\":12059:12060   */\n      0x00\n        /* \"#utility.yul\":12048:12057   */\n      dup4\n        /* \"#utility.yul\":12044:12061   */\n      add\n        /* \"#utility.yul\":12037:12084   */\n      mstore\n        /* \"#utility.yul\":12101:12232   */\n      tag_320\n        /* \"#utility.yul\":12227:12231   */\n      dup2\n        /* \"#utility.yul\":12101:12232   */\n      tag_177\n      jump\t// in\n    tag_320:\n        /* \"#utility.yul\":12093:12232   */\n      swap1\n      pop\n        /* \"#utility.yul\":11820:12239   */\n      swap2\n      swap1\n      pop\n      jump\t// out\n        /* \"#utility.yul\":12245:12425   */\n    tag_60:\n        /* \"#utility.yul\":12293:12370   */\n      0x4e487b7100000000000000000000000000000000000000000000000000000000\n        /* \"#utility.yul\":12290:12291   */\n      0x00\n        /* \"#utility.yul\":12283:12371   */\n      mstore\n        /* \"#utility.yul\":12390:12394   */\n      0x32\n        /* \"#utility.yul\":12387:12388   */\n      0x04\n        /* \"#utility.yul\":12380:12395   */\n      mstore\n        /* \"#utility.yul\":12414:12418   */\n      0x24\n        /* \"#utility.yul\":12411:12412   */\n      0x00\n        /* \"#utility.yul\":12404:12419   */\n      revert\n        /* \"#utility.yul\":12431:12611   */\n    tag_178:\n        /* \"#utility.yul\":12479:12556   */\n      0x4e487b7100000000000000000000000000000000000000000000000000000000\n        /* \"#utility.yul\":12476:12477   */\n      0x00\n        /* \"#utility.yul\":12469:12557   */\n      mstore\n        /* \"#utility.yul\":12576:12580   */\n      0x11\n        /* \"#utility.yul\":12573:12574   */\n      0x04\n        /* \"#utility.yul\":12566:12581   */\n      mstore\n        /* \"#utility.yul\":12600:12604   */\n      0x24\n        /* \"#utility.yul\":12597:12598   */\n      0x00\n        /* \"#utility.yul\":12590:12605   */\n      revert\n        /* \"#utility.yul\":12617:12850   */\n    tag_67:\n        /* \"#utility.yul\":12656:12659   */\n      0x00\n        /* \"#utility.yul\":12679:12703   */\n      tag_324\n        /* \"#utility.yul\":12697:12702   */\n      dup3\n        /* \"#utility.yul\":12679:12703   */\n      tag_140\n      jump\t// in\n    tag_324:\n        /* \"#utility.yul\":12670:12703   */\n      swap2\n      pop\n        /* \"#utility.yul\":12725:12791   */\n      0xffffffffffffffffffffffffffffffffffffffffffffffffffffffffffffffff\n        /* \"#utility.yul\":12718:12723   */\n      dup3\n        /* \"#utility.yul\":12715:12792   */\n      sub\n        /* \"#utility.yul\":12712:12815   */\n      tag_325\n      jumpi\n        /* \"#utility.yul\":12795:12813   */\n      tag_326\n      tag_178\n      jump\t// in\n    tag_326:\n        /* \"#utility.yul\":12712:12815   */\n    tag_325:\n        /* \"#utility.yul\":12842:12843   */\n      0x01\n        /* \"#utility.yul\":12835:12840   */\n      dup3\n        /* \"#utility.yul\":12831:12844   */\n      add\n        /* \"#utility.yul\":12824:12844   */\n      swap1\n      pop\n        /* \"#utility.yul\":12617:12850   */\n      swap2\n      swap1\n      pop\n      jump\t// out\n        /* \"#utility.yul\":12856:13004   */\n    tag_179:\n        /* \"#utility.yul\":12958:12969   */\n      0x00\n        /* \"#utility.yul\":12995:12998   */\n      dup2\n        /* \"#utility.yul\":12980:12998   */\n      swap1\n      pop\n        /* \"#utility.yul\":12856:13004   */\n      swap3\n      swap2\n      pop\n      pop\n      jump\t// out\n        /* \"#utility.yul\":13010:13224   */\n    tag_180:\n        /* \"#utility.yul\":13150:13216   */\n      0x19457468657265756d205369676e6564204d6573736167653a0a333200000000\n        /* \"#utility.yul\":13146:13147   */\n      0x00\n        /* \"#utility.yul\":13138:13144   */\n      dup3\n        /* \"#utility.yul\":13134:13148   */\n      add\n        /* \"#utility.yul\":13127:13217   */\n      mstore\n        /* \"#utility.yul\":13010:13224   */\n      pop\n      jump\t// out\n        /* \"#utility.yul\":13230:13632   */\n    tag_181:\n        /* \"#utility.yul\":13390:13393   */\n      0x00\n        /* \"#utility.yul\":13411:13496   */\n      tag_330\n        /* \"#utility.yul\":13493:13495   */\n      0x1c\n        /* \"#utility.yul\":13488:13491   */\n      dup4\n        /* \"#utility.yul\":13411:13496   */\n      tag_179\n      jump\t// in\n    tag_330:\n        /* \"#utility.yul\":13404:13496   */\n      swap2\n      pop\n        /* \"#utility.yul\":13505:13598   */\n      tag_331\n        /* \"#utility.yul\":13594:13597   */\n      dup3\n        /* \"#utility.yul\":13505:13598   */\n      tag_180\n      jump\t// in\n    tag_331:\n        /* \"#utility.yul\":13623:13625   */\n      0x1c\n        /* \"#utility.yul\":13618:13621   */\n      dup3\n        /* \"#utility.yul\":13614:13626   */\n      add\n        /* \"#utility.yul\":13607:13626   */\n      swap1\n      pop\n        /* \"#utility.yul\":13230:13632   */\n      swap2\n      swap1\n      pop\n      jump\t// out\n        /* \"#utility.yul\":13638:13717   */\n    tag_182:\n        /* \"#utility.yul\":13677:13684   */\n      0x00\n        /* \"#utility.yul\":13706:13711   */\n      dup2\n        /* \"#utility.yul\":13695:13711   */\n      swap1\n      pop\n        /* \"#utility.yul\":13638:13717   */\n      swap2\n      swap1\n      pop\n      jump\t// out\n        /* \"#utility.yul\":13723:13880   */\n    tag_183:\n        /* \"#utility.yul\":13828:13873   */\n      tag_334\n        /* \"#utility.yul\":13848:13872   */\n      tag_335\n        /* \"#utility.yul\":13866:13871   */\n      dup3\n        /* \"#utility.yul\":13848:13872   */\n      tag_148\n      jump\t// in\n    tag_335:\n        /* \"#utility.yul\":13828:13873   */\n      tag_182\n      jump\t// in\n    tag_334:\n        /* \"#utility.yul\":13823:13826   */\n      dup3\n        /* \"#utility.yul\":13816:13874   */\n      mstore\n        /* \"#utility.yul\":13723:13880   */\n      pop\n      pop\n      jump\t// out\n        /* \"#utility.yul\":13886:14408   */\n    tag_70:\n        /* \"#utility.yul\":14099:14102   */\n      0x00\n        /* \"#utility.yul\":14121:14269   */\n      tag_337\n        /* \"#utility.yul\":14265:14268   */\n      dup3\n        /* \"#utility.yul\":14121:14269   */\n      tag_181\n      jump\t// in\n    tag_337:\n        /* \"#utility.yul\":14114:14269   */\n      swap2\n      pop\n        /* \"#utility.yul\":14279:14354   */\n      tag_338\n        /* \"#utility.yul\":14350:14353   */\n      dup3\n        /* \"#utility.yul\":14341:14347   */\n      dup5\n        /* \"#utility.yul\":14279:14354   */\n      tag_183\n      jump\t// in\n    tag_338:\n        /* \"#utility.yul\":14379:14381   */\n      0x20\n        /* \"#utility.yul\":14374:14377   */\n      dup3\n        /* \"#utility.yul\":14370:14382   */\n      add\n        /* \"#utility.yul\":14363:14382   */\n      swap2\n      pop\n        /* \"#utility.yul\":14399:14402   */\n      dup2\n        /* \"#utility.yul\":14392:14402   */\n      swap1\n      pop\n        /* \"#utility.yul\":13886:14408   */\n      swap3\n      swap2\n      pop\n      pop\n      jump\t// out\n        /* \"#utility.yul\":14414:14594   */\n    tag_88:\n        /* \"#utility.yul\":14462:14539   */\n      0x4e487b7100000000000000000000000000000000000000000000000000000000\n        /* \"#utility.yul\":14459:14460   */\n      0x00\n        /* \"#utility.yul\":14452:14540   */\n      mstore\n        /* \"#utility.yul\":14559:14563   */\n      0x21\n        /* \"#utility.yul\":14556:14557   */\n      0x04\n        /* \"#utility.yul\":14549:14564   */\n      mstore\n        /* \"#utility.yul\":14583:14587   */\n      0x24\n        /* \"#utility.yul\":14580:14581   */\n      0x00\n        /* \"#utility.yul\":14573:14588   */\n      revert\n        /* \"#utility.yul\":14600:14774   */\n    tag_184:\n        /* \"#utility.yul\":14740:14766   */\n      0x45434453413a20696e76616c6964207369676e61747572650000000000000000\n        /* \"#utility.yul\":14736:14737   */\n      0x00\n        /* \"#utility.yul\":14728:14734   */\n      dup3\n        /* \"#utility.yul\":14724:14738   */\n      add\n        /* \"#utility.yul\":14717:14767   */\n      mstore\n        /* \"#utility.yul\":14600:14774   */\n      pop\n      jump\t// out\n        /* \"#utility.yul\":14780:15146   */\n    tag_185:\n        /* \"#utility.yul\":14922:14925   */\n      0x00\n        /* \"#utility.yul\":14943:15010   */\n      tag_342\n        /* \"#utility.yul\":15007:15009   */\n      0x18\n        /* \"#utility.yul\":15002:15005   */\n      dup4\n        /* \"#utility.yul\":14943:15010   */\n      tag_170\n      jump\t// in\n    tag_342:\n        /* \"#utility.yul\":14936:15010   */\n      swap2\n      pop\n        /* \"#utility.yul\":15019:15112   */\n      tag_343\n        /* \"#utility.yul\":15108:15111   */\n      dup3\n        /* \"#utility.yul\":15019:15112   */\n      tag_184\n      jump\t// in\n    tag_343:\n        /* \"#utility.yul\":15137:15139   */\n      0x20\n        /* \"#utility.yul\":15132:15135   */\n      dup3\n        /* \"#utility.yul\":15128:15140   */\n      add\n        /* \"#utility.yul\":15121:15140   */\n      swap1\n      pop\n        /* \"#utility.yul\":14780:15146   */\n      swap2\n      swap1\n      pop\n      jump\t// out\n        /* \"#utility.yul\":15152:15571   */\n    tag_99:\n        /* \"#utility.yul\":15318:15322   */\n      0x00\n        /* \"#utility.yul\":15356:15358   */\n      0x20\n        /* \"#utility.yul\":15345:15354   */\n      dup3\n        /* \"#utility.yul\":15341:15359   */\n      add\n        /* \"#utility.yul\":15333:15359   */\n      swap1\n      pop\n        /* \"#utility.yul\":15405:15414   */\n      dup2\n        /* \"#utility.yul\":15399:15403   */\n      dup2\n        /* \"#utility.yul\":15395:15415   */\n      sub\n        /* \"#utility.yul\":15391:15392   */\n      0x00\n        /* \"#utility.yul\":15380:15389   */\n      dup4\n        /* \"#utility.yul\":15376:15393   */\n      add\n        /* \"#utility.yul\":15369:15416   */\n      mstore\n        /* \"#utility.yul\":15433:15564   */\n      tag_345\n        /* \"#utility.yul\":15559:15563   */\n      dup2\n        /* \"#utility.yul\":15433:15564   */\n      tag_185\n      jump\t// in\n    tag_345:\n        /* \"#utility.yul\":15425:15564   */\n      swap1\n      pop\n        /* \"#utility.yul\":15152:15571   */\n      swap2\n      swap1\n      pop\n      jump\t// out\n        /* \"#utility.yul\":15577:15758   */\n    tag_186:\n        /* \"#utility.yul\":15717:15750   */\n      0x45434453413a20696e76616c6964207369676e6174757265206c656e67746800\n        /* \"#utility.yul\":15713:15714   */\n      0x00\n        /* \"#utility.yul\":15705:15711   */\n      dup3\n        /* \"#utility.yul\":15701:15715   */\n      add\n        /* \"#utility.yul\":15694:15751   */\n      mstore\n        /* \"#utility.yul\":15577:15758   */\n      pop\n      jump\t// out\n        /* \"#utility.yul\":15764:16130   */\n    tag_187:\n        /* \"#utility.yul\":15906:15909   */\n      0x00\n        /* \"#utility.yul\":15927:15994   */\n      tag_348\n        /* \"#utility.yul\":15991:15993   */\n      0x1f\n        /* \"#utility.yul\":15986:15989   */\n      dup4\n        /* \"#utility.yul\":15927:15994   */\n      tag_170\n      jump\t// in\n    tag_348:\n        /* \"#utility.yul\":15920:15994   */\n      swap2\n      pop\n        /* \"#utility.yul\":16003:16096   */\n      tag_349\n        /* \"#utility.yul\":16092:16095   */\n      dup3\n        /* \"#utility.yul\":16003:16096   */\n      tag_186\n      jump\t// in\n    tag_349:\n        /* \"#utility.yul\":16121:16123   */\n      0x20\n        /* \"#utility.yul\":16116:16119   */\n      dup3\n        /* \"#utility.yul\":16112:16124   */\n      add\n        /* \"#utility.yul\":16105:16124   */\n      swap1\n      pop\n        /* \"#utility.yul\":15764:16130   */\n      swap2\n      swap1\n      pop\n      jump\t// out\n        /* \"#utility.yul\":16136:16555   */\n    tag_107:\n        /* \"#utility.yul\":16302:16306   */\n      0x00\n        /* \"#utility.yul\":16340:16342   */\n      0x20\n        /* \"#utility.yul\":16329:16338   */\n      dup3\n        /* \"#utility.yul\":16325:16343   */\n      add\n        /* \"#utility.yul\":16317:16343   */\n      swap1\n      pop\n        /* \"#utility.yul\":16389:16398   */\n      dup2\n        /* \"#utility.yul\":16383:16387   */\n      dup2\n        /* \"#utility.yul\":16379:16399   */\n      sub\n        /* \"#utility.yul\":16375:16376   */\n      0x00\n        /* \"#utility.yul\":16364:16373   */\n      dup4\n        /* \"#utility.yul\":16360:16377   */\n      add\n        /* \"#utility.yul\":16353:16400   */\n      mstore\n        /* \"#utility.yul\":16417:16548   */\n      tag_351\n        /* \"#utility.yul\":16543:16547   */\n      dup2\n        /* \"#utility.yul\":16417:16548   */\n      tag_187\n      jump\t// in\n    tag_351:\n        /* \"#utility.yul\":16409:16548   */\n      swap1\n      pop\n        /* \"#utility.yul\":16136:16555   */\n      swap2\n      swap1\n      pop\n      jump\t// out\n        /* \"#utility.yul\":16561:16782   */\n    tag_188:\n        /* \"#utility.yul\":16701:16735   */\n      0x45434453413a20696e76616c6964207369676e6174757265202773272076616c\n        /* \"#utility.yul\":16697:16698   */\n      0x00\n        /* \"#utility.yul\":16689:16695   */\n      dup3\n        /* \"#utility.yul\":16685:16699   */\n      add\n        /* \"#utility.yul\":16678:16736   */\n      mstore\n        /* \"#utility.yul\":16770:16774   */\n      0x7565000000000000000000000000000000000000000000000000000000000000\n        /* \"#utility.yul\":16765:16767   */\n      0x20\n        /* \"#utility.yul\":16757:16763   */\n      dup3\n        /* \"#utility.yul\":16753:16768   */\n      add\n        /* \"#utility.yul\":16746:16775   */\n      mstore\n        /* \"#utility.yul\":16561:16782   */\n      pop\n      jump\t// out\n        /* \"#utility.yul\":16788:17154   */\n    tag_189:\n        /* \"#utility.yul\":16930:16933   */\n      0x00\n        /* \"#utility.yul\":16951:17018   */\n      tag_354\n        /* \"#utility.yul\":17015:17017   */\n      0x22\n        /* \"#utility.yul\":17010:17013   */\n      dup4\n        /* \"#utility.yul\":16951:17018   */\n      tag_170\n      jump\t// in\n    tag_354:\n        /* \"#utility.yul\":16944:17018   */\n      swap2\n      pop\n        /* \"#utility.yul\":17027:17120   */\n      tag_355\n        /* \"#utility.yul\":17116:17119   */\n      dup3\n        /* \"#utility.yul\":17027:17120   */\n      tag_188\n      jump\t// in\n    tag_355:\n        /* \"#utility.yul\":17145:17147   */\n      0x40\n        /* \"#utility.yul\":17140:17143   */\n      dup3\n        /* \"#utility.yul\":17136:17148   */\n      add\n        /* \"#utility.yul\":17129:17148   */\n      swap1\n      pop\n        /* \"#utility.yul\":16788:17154   */\n      swap2\n      swap1\n      pop\n      jump\t// out\n        /* \"#utility.yul\":17160:17579   */\n    tag_115:\n        /* \"#utility.yul\":17326:17330   */\n      0x00\n        /* \"#utility.yul\":17364:17366   */\n      0x20\n        /* \"#utility.yul\":17353:17362   */\n      dup3\n        /* \"#utility.yul\":17349:17367   */\n      add\n        /* \"#utility.yul\":17341:17367   */\n      swap1\n      pop\n        /* \"#utility.yul\":17413:17422   */\n      dup2\n        /* \"#utility.yul\":17407:17411   */\n      dup2\n        /* \"#utility.yul\":17403:17423   */\n      sub\n        /* \"#utility.yul\":17399:17400   */\n      0x00\n        /* \"#utility.yul\":17388:17397   */\n      dup4\n        /* \"#utility.yul\":17384:17401   */\n      add\n        /* \"#utility.yul\":17377:17424   */\n      mstore\n        /* \"#utility.yul\":17441:17572   */\n      tag_357\n        /* \"#utility.yul\":17567:17571   */\n      dup2\n        /* \"#utility.yul\":17441:17572   */\n      tag_189\n      jump\t// in\n    tag_357:\n        /* \"#utility.yul\":17433:17572   */\n      swap1\n      pop\n        /* \"#utility.yul\":17160:17579   */\n      swap2\n      swap1\n      pop\n      jump\t// out\n        /* \"#utility.yul\":17585:17806   */\n    tag_190:\n        /* \"#utility.yul\":17725:17759   */\n      0x45434453413a20696e76616c6964207369676e6174757265202776272076616c\n        /* \"#utility.yul\":17721:17722   */\n      0x00\n        /* \"#utility.yul\":17713:17719   */\n      dup3\n        /* \"#utility.yul\":17709:17723   */\n      add\n        /* \"#utility.yul\":17702:17760   */\n      mstore\n        /* \"#utility.yul\":17794:17798   */\n      0x7565000000000000000000000000000000000000000000000000000000000000\n        /* \"#utility.yul\":17789:17791   */\n      0x20\n        /* \"#utility.yul\":17781:17787   */\n      dup3\n        /* \"#utility.yul\":17777:17792   */\n      add\n        /* \"#utility.yul\":17770:17799   */\n      mstore\n        /* \"#utility.yul\":17585:17806   */\n      pop\n      jump\t// out\n        /* \"#utility.yul\":17812:18178   */\n    tag_191:\n        /* \"#utility.yul\":17954:17957   */\n      0x00\n        /* \"#utility.yul\":17975:18042   */\n      tag_360\n        /* \"#utility.yul\":18039:18041   */\n      0x22\n        /* \"#utility.yul\":18034:18037   */\n      dup4\n        /* \"#utility.yul\":17975:18042   */\n      tag_170\n      jump\t// in\n    tag_360:\n        /* \"#utility.yul\":17968:18042   */\n      swap2\n      pop\n        /* \"#utility.yul\":18051:18144   */\n      tag_361\n        /* \"#utility.yul\":18140:18143   */\n      dup3\n        /* \"#utility.yul\":18051:18144   */\n      tag_190\n      jump\t// in\n    tag_361:\n        /* \"#utility.yul\":18169:18171   */\n      0x40\n        /* \"#utility.yul\":18164:18167   */\n      dup3\n        /* \"#utility.yul\":18160:18172   */\n      add\n        /* \"#utility.yul\":18153:18172   */\n      swap1\n      pop\n        /* \"#utility.yul\":17812:18178   */\n      swap2\n      swap1\n      pop\n      jump\t// out\n        /* \"#utility.yul\":18184:18603   */\n    tag_123:\n        /* \"#utility.yul\":18350:18354   */\n      0x00\n        /* \"#utility.yul\":18388:18390   */\n      0x20\n        /* \"#utility.yul\":18377:18386   */\n      dup3\n        /* \"#utility.yul\":18373:18391   */\n      add\n        /* \"#utility.yul\":18365:18391   */\n      swap1\n      pop\n        /* \"#utility.yul\":18437:18446   */\n      dup2\n        /* \"#utility.yul\":18431:18435   */\n      dup2\n        /* \"#utility.yul\":18427:18447   */\n      sub\n        /* \"#utility.yul\":18423:18424   */\n      0x00\n        /* \"#utility.yul\":18412:18421   */\n      dup4\n        /* \"#utility.yul\":18408:18425   */\n      add\n        /* \"#utility.yul\":18401:18448   */\n      mstore\n        /* \"#utility.yul\":18465:18596   */\n      tag_363\n        /* \"#utility.yul\":18591:18595   */\n      dup2\n        /* \"#utility.yul\":18465:18596   */\n      tag_191\n      jump\t// in\n    tag_363:\n        /* \"#utility.yul\":18457:18596   */\n      swap1\n      pop\n        /* \"#utility.yul\":18184:18603   */\n      swap2\n      swap1\n      pop\n      jump\t// out\n        /* \"#utility.yul\":18609:18695   */\n    tag_192:\n        /* \"#utility.yul\":18644:18651   */\n      0x00\n        /* \"#utility.yul\":18684:18688   */\n      0xff\n        /* \"#utility.yul\":18677:18682   */\n      dup3\n        /* \"#utility.yul\":18673:18689   */\n      and\n        /* \"#utility.yul\":18662:18689   */\n      swap1\n      pop\n        /* \"#utility.yul\":18609:18695   */\n      swap2\n      swap1\n      pop\n      jump\t// out\n        /* \"#utility.yul\":18701:18813   */\n    tag_193:\n        /* \"#utility.yul\":18784:18806   */\n      tag_366\n        /* \"#utility.yul\":18800:18805   */\n      dup2\n        /* \"#utility.yul\":18784:18806   */\n      tag_192\n      jump\t// in\n    tag_366:\n        /* \"#utility.yul\":18779:18782   */\n      dup3\n        /* \"#utility.yul\":18772:18807   */\n      mstore\n        /* \"#utility.yul\":18701:18813   */\n      pop\n      pop\n      jump\t// out\n        /* \"#utility.yul\":18819:19364   */\n    tag_129:\n        /* \"#utility.yul\":18992:18996   */\n      0x00\n        /* \"#utility.yul\":19030:19033   */\n      0x80\n        /* \"#utility.yul\":19019:19028   */\n      dup3\n        /* \"#utility.yul\":19015:19034   */\n      add\n        /* \"#utility.yul\":19007:19034   */\n      swap1\n      pop\n        /* \"#utility.yul\":19044:19115   */\n      tag_368\n        /* \"#utility.yul\":19112:19113   */\n      0x00\n        /* \"#utility.yul\":19101:19110   */\n      dup4\n        /* \"#utility.yul\":19097:19114   */\n      add\n        /* \"#utility.yul\":19088:19094   */\n      dup8\n        /* \"#utility.yul\":19044:19115   */\n      tag_149\n      jump\t// in\n    tag_368:\n        /* \"#utility.yul\":19125:19193   */\n      tag_369\n        /* \"#utility.yul\":19189:19191   */\n      0x20\n        /* \"#utility.yul\":19178:19187   */\n      dup4\n        /* \"#utility.yul\":19174:19192   */\n      add\n        /* \"#utility.yul\":19165:19171   */\n      dup7\n        /* \"#utility.yul\":19125:19193   */\n      tag_193\n      jump\t// in\n    tag_369:\n        /* \"#utility.yul\":19203:19275   */\n      tag_370\n        /* \"#utility.yul\":19271:19273   */\n      0x40\n        /* \"#utility.yul\":19260:19269   */\n      dup4\n        /* \"#utility.yul\":19256:19274   */\n      add\n        /* \"#utility.yul\":19247:19253   */\n      dup6\n        /* \"#utility.yul\":19203:19275   */\n      tag_149\n      jump\t// in\n    tag_370:\n        /* \"#utility.yul\":19285:19357   */\n      tag_371\n        /* \"#utility.yul\":19353:19355   */\n      0x60\n        /* \"#utility.yul\":19342:19351   */\n      dup4\n        /* \"#utility.yul\":19338:19356   */\n      add\n        /* \"#utility.yul\":19329:19335   */\n      dup5\n        /* \"#utility.yul\":19285:19357   */\n      tag_149\n      jump\t// in\n    tag_371:\n        /* \"#utility.yul\":18819:19364   */\n      swap6\n      swap5\n      pop\n      pop\n      pop\n      pop\n      pop\n      jump\t// out\n        /* \"#utility.yul\":19370:19675   */\n    tag_135:\n        /* \"#utility.yul\":19410:19413   */\n      0x00\n        /* \"#utility.yul\":19429:19449   */\n      tag_373\n        /* \"#utility.yul\":19447:19448   */\n      dup3\n        /* \"#utility.yul\":19429:19449   */\n      tag_140\n      jump\t// in\n    tag_373:\n        /* \"#utility.yul\":19424:19449   */\n      swap2\n      pop\n        /* \"#utility.yul\":19463:19483   */\n      tag_374\n        /* \"#utility.yul\":19481:19482   */\n      dup4\n        /* \"#utility.yul\":19463:19483   */\n      tag_140\n      jump\t// in\n    tag_374:\n        /* \"#utility.yul\":19458:19483   */\n      swap3\n      pop\n        /* \"#utility.yul\":19617:19618   */\n      dup3\n        /* \"#utility.yul\":19549:19615   */\n      0xffffffffffffffffffffffffffffffffffffffffffffffffffffffffffffffff\n        /* \"#utility.yul\":19545:19619   */\n      sub\n        /* \"#utility.yul\":19542:19543   */\n      dup3\n        /* \"#utility.yul\":19539:19620   */\n      gt\n        /* \"#utility.yul\":19536:19643   */\n      iszero\n      tag_375\n      jumpi\n        /* \"#utility.yul\":19623:19641   */\n      tag_376\n      tag_178\n      jump\t// in\n    tag_376:\n        /* \"#utility.yul\":19536:19643   */\n    tag_375:\n        /* \"#utility.yul\":19667:19668   */\n      dup3\n        /* \"#utility.yul\":19664:19665   */\n      dup3\n        /* \"#utility.yul\":19660:19669   */\n      add\n        /* \"#utility.yul\":19653:19669   */\n      swap1\n      pop\n        /* \"#utility.yul\":19370:19675   */\n      swap3\n      swap2\n      pop\n      pop\n      jump\t// out\n\n    auxdata: 0xa2646970667358221220dfc980134fb681e1d4b979ae64f4e82f46fca5f9a578e5b7fc2a66dbf551102b64736f6c634300080f0033\n}\n",
				"bytecode": {
					"linkReferences": {},
					"object": "6080604052604051620014ba380380620014ba8339818101604052810190620000299190620002bc565b8060009060026200003c92919062000044565b5050620002ee565b8260028101928215620000b3579160200282015b82811115620000b25782518260006101000a81548173ffffffffffffffffffffffffffffffffffffffff021916908373ffffffffffffffffffffffffffffffffffffffff1602179055509160200191906001019062000058565b5b509050620000c29190620000c6565b5090565b5b80821115620000e1576000816000905550600101620000c7565b5090565b6000604051905090565b600080fd5b600080fd5b6000601f19601f8301169050919050565b7f4e487b7100000000000000000000000000000000000000000000000000000000600052604160045260246000fd5b6200014482620000f9565b810181811067ffffffffffffffff821117156200016657620001656200010a565b5b80604052505050565b60006200017b620000e5565b905062000189828262000139565b919050565b600067ffffffffffffffff821115620001ac57620001ab6200010a565b5b602082029050919050565b600080fd5b600073ffffffffffffffffffffffffffffffffffffffff82169050919050565b6000620001e982620001bc565b9050919050565b620001fb81620001dc565b81146200020757600080fd5b50565b6000815190506200021b81620001f0565b92915050565b60006200023862000232846200018e565b6200016f565b90508060208402830185811115620002555762000254620001b7565b5b835b818110156200028257806200026d88826200020a565b84526020840193505060208101905062000257565b5050509392505050565b600082601f830112620002a457620002a3620000f4565b5b6002620002b384828562000221565b91505092915050565b600060408284031215620002d557620002d4620000ef565b5b6000620002e5848285016200028c565b91505092915050565b6111bc80620002fe6000396000f3fe6080604052600436106100435760003560e01c8063025e7c271461004f578063207fa7831461008c57806378f16129146100c9578063d0e30db0146100f25761004a565b3661004a57005b600080fd5b34801561005b57600080fd5b50610076600480360381019061007191906107b2565b6100fc565b6040516100839190610820565b60405180910390f35b34801561009857600080fd5b506100b360048036038101906100ae9190610867565b610132565b6040516100c091906108d3565b60405180910390f35b3480156100d557600080fd5b506100f060048036038101906100eb9190610b08565b610168565b005b6100fa610274565b005b6000816002811061010c57600080fd5b016000915054906101000a900473ffffffffffffffffffffffffffffffffffffffff1681565b600083838360405160200161014993929190610bf4565b6040516020818303038152906040528051906020012090509392505050565b6000610175858585610132565b90506101818282610276565b6101c0576040517f08c379a00000000000000000000000000000000000000000000000000000000081526004016101b790610c8e565b60405180910390fd5b60008573ffffffffffffffffffffffffffffffffffffffff16856040516101e690610cdf565b60006040518083038185875af1925050503d8060008114610223576040519150601f19603f3d011682016040523d82523d6000602084013e610228565b606091505b505090508061026c576040517f08c379a000000000000000000000000000000000000000000000000000000000815260040161026390610d40565b60405180910390fd5b505050505050565b565b60008061028283610359565b905060005b600281101561034c5760006102bc8683600281106102a8576102a7610d60565b5b60200201518461038990919063ffffffff16565b905060008083600281106102d3576102d2610d60565b5b0160009054906101000a900473ffffffffffffffffffffffffffffffffffffffff1673ffffffffffffffffffffffffffffffffffffffff168273ffffffffffffffffffffffffffffffffffffffff1614905080610337576000945050505050610353565b5050808061034490610dbe565b915050610287565b5060019150505b92915050565b60008160405160200161036c9190610e7e565b604051602081830303815290604052805190602001209050919050565b600080600061039885856103b0565b915091506103a581610431565b819250505092915050565b60008060418351036103f15760008060006020860151925060408601519150606086015160001a90506103e5878285856105fd565b9450945050505061042a565b6040835103610421576000806020850151915060408501519050610416868383610709565b93509350505061042a565b60006002915091505b9250929050565b6000600481111561044557610444610ea4565b5b81600481111561045857610457610ea4565b5b03156105fa576001600481111561047257610471610ea4565b5b81600481111561048557610484610ea4565b5b036104c5576040517f08c379a00000000000000000000000000000000000000000000000000000000081526004016104bc90610f1f565b60405180910390fd5b600260048111156104d9576104d8610ea4565b5b8160048111156104ec576104eb610ea4565b5b0361052c576040517f08c379a000000000000000000000000000000000000000000000000000000000815260040161052390610f8b565b60405180910390fd5b600360048111156105405761053f610ea4565b5b81600481111561055357610552610ea4565b5b03610593576040517f08c379a000000000000000000000000000000000000000000000000000000000815260040161058a9061101d565b60405180910390fd5b6004808111156105a6576105a5610ea4565b5b8160048111156105b9576105b8610ea4565b5b036105f9576040517f08c379a00000000000000000000000000000000000000000000000000000000081526004016105f0906110af565b60405180910390fd5b5b50565b6000807f7fffffffffffffffffffffffffffffff5d576e7357a4501ddfe92f46681b20a08360001c1115610638576000600391509150610700565b601b8560ff16141580156106505750601c8560ff1614155b15610662576000600491509150610700565b60006001878787876040516000815260200160405260405161068794939291906110eb565b6020604051602081039080840390855afa1580156106a9573d6000803e3d6000fd5b505050602060405103519050600073ffffffffffffffffffffffffffffffffffffffff168173ffffffffffffffffffffffffffffffffffffffff16036106f757600060019250925050610700565b80600092509250505b94509492505050565b60008060007f7fffffffffffffffffffffffffffffffffffffffffffffffffffffffffffffff60001b841690506000601b60ff8660001c901c61074c9190611130565b905061075a878288856105fd565b935093505050935093915050565b6000604051905090565b600080fd5b600080fd5b6000819050919050565b61078f8161077c565b811461079a57600080fd5b50565b6000813590506107ac81610786565b92915050565b6000602082840312156107c8576107c7610772565b5b60006107d68482850161079d565b91505092915050565b600073ffffffffffffffffffffffffffffffffffffffff82169050919050565b600061080a826107df565b9050919050565b61081a816107ff565b82525050565b60006020820190506108356000830184610811565b92915050565b610844816107ff565b811461084f57600080fd5b50565b6000813590506108618161083b565b92915050565b6000806000606084860312156108805761087f610772565b5b600061088e86828701610852565b935050602061089f8682870161079d565b92505060406108b08682870161079d565b9150509250925092565b6000819050919050565b6108cd816108ba565b82525050565b60006020820190506108e860008301846108c4565b92915050565b600080fd5b6000601f19601f8301169050919050565b7f4e487b7100000000000000000000000000000000000000000000000000000000600052604160045260246000fd5b61093c826108f3565b810181811067ffffffffffffffff8211171561095b5761095a610904565b5b80604052505050565b600061096e610768565b905061097a8282610933565b919050565b600067ffffffffffffffff82111561099a57610999610904565b5b602082029050919050565b600080fd5b600080fd5b600067ffffffffffffffff8211156109ca576109c9610904565b5b6109d3826108f3565b9050602081019050919050565b82818337600083830152505050565b6000610a026109fd846109af565b610964565b905082815260208101848484011115610a1e57610a1d6109aa565b5b610a298482856109e0565b509392505050565b600082601f830112610a4657610a456108ee565b5b8135610a568482602086016109ef565b91505092915050565b6000610a72610a6d8461097f565b610964565b90508060208402830185811115610a8c57610a8b6109a5565b5b835b81811015610ad357803567ffffffffffffffff811115610ab157610ab06108ee565b5b808601610abe8982610a31565b85526020850194505050602081019050610a8e565b5050509392505050565b600082601f830112610af257610af16108ee565b5b6002610aff848285610a5f565b91505092915050565b60008060008060808587031215610b2257610b21610772565b5b6000610b3087828801610852565b9450506020610b418782880161079d565b9350506040610b528782880161079d565b925050606085013567ffffffffffffffff811115610b7357610b72610777565b5b610b7f87828801610add565b91505092959194509250565b60008160601b9050919050565b6000610ba382610b8b565b9050919050565b6000610bb582610b98565b9050919050565b610bcd610bc8826107ff565b610baa565b82525050565b6000819050919050565b610bee610be98261077c565b610bd3565b82525050565b6000610c008286610bbc565b601482019150610c108285610bdd565b602082019150610c208284610bdd565b602082019150819050949350505050565b600082825260208201905092915050565b7f696e76616c696420736967000000000000000000000000000000000000000000600082015250565b6000610c78600b83610c31565b9150610c8382610c42565b602082019050919050565b60006020820190508181036000830152610ca781610c6b565b9050919050565b600081905092915050565b50565b6000610cc9600083610cae565b9150610cd482610cb9565b600082019050919050565b6000610cea82610cbc565b9150819050919050565b7f4661696c656420746f2073656e64204574686572000000000000000000000000600082015250565b6000610d2a601483610c31565b9150610d3582610cf4565b602082019050919050565b60006020820190508181036000830152610d5981610d1d565b9050919050565b7f4e487b7100000000000000000000000000000000000000000000000000000000600052603260045260246000fd5b7f4e487b7100000000000000000000000000000000000000000000000000000000600052601160045260246000fd5b6000610dc98261077c565b91507fffffffffffffffffffffffffffffffffffffffffffffffffffffffffffffffff8203610dfb57610dfa610d8f565b5b600182019050919050565b600081905092915050565b7f19457468657265756d205369676e6564204d6573736167653a0a333200000000600082015250565b6000610e47601c83610e06565b9150610e5282610e11565b601c82019050919050565b6000819050919050565b610e78610e73826108ba565b610e5d565b82525050565b6000610e8982610e3a565b9150610e958284610e67565b60208201915081905092915050565b7f4e487b7100000000000000000000000000000000000000000000000000000000600052602160045260246000fd5b7f45434453413a20696e76616c6964207369676e61747572650000000000000000600082015250565b6000610f09601883610c31565b9150610f1482610ed3565b602082019050919050565b60006020820190508181036000830152610f3881610efc565b9050919050565b7f45434453413a20696e76616c6964207369676e6174757265206c656e67746800600082015250565b6000610f75601f83610c31565b9150610f8082610f3f565b602082019050919050565b60006020820190508181036000830152610fa481610f68565b9050919050565b7f45434453413a20696e76616c6964207369676e6174757265202773272076616c60008201527f7565000000000000000000000000000000000000000000000000000000000000602082015250565b6000611007602283610c31565b915061101282610fab565b604082019050919050565b6000602082019050818103600083015261103681610ffa565b9050919050565b7f45434453413a20696e76616c6964207369676e6174757265202776272076616c60008201527f7565000000000000000000000000000000000000000000000000000000000000602082015250565b6000611099602283610c31565b91506110a48261103d565b604082019050919050565b600060208201905081810360008301526110c88161108c565b9050919050565b600060ff82169050919050565b6110e5816110cf565b82525050565b600060808201905061110060008301876108c4565b61110d60208301866110dc565b61111a60408301856108c4565b61112760608301846108c4565b95945050505050565b600061113b8261077c565b91506111468361077c565b9250827fffffffffffffffffffffffffffffffffffffffffffffffffffffffffffffffff0382111561117b5761117a610d8f565b5b82820190509291505056fea2646970667358221220dfc980134fb681e1d4b979ae64f4e82f46fca5f9a578e5b7fc2a66dbf551102b64736f6c634300080f0033",
					"opcodes": "PUSH1 0x80 PUSH1 0x40 MSTORE PUSH1 0x40 MLOAD PUSH3 0x14BA CODESIZE SUB DUP1 PUSH3 0x14BA DUP4 CODECOPY DUP2 DUP2 ADD PUSH1 0x40 MSTORE DUP2 ADD SWAP1 PUSH3 0x29 SWAP2 SWAP1 PUSH3 0x2BC JUMP JUMPDEST DUP1 PUSH1 0x0 SWAP1 PUSH1 0x2 PUSH3 0x3C SWAP3 SWAP2 SWAP1 PUSH3 0x44 JUMP JUMPDEST POP POP PUSH3 0x2EE JUMP JUMPDEST DUP3 PUSH1 0x2 DUP2 ADD SWAP3 DUP3 ISZERO PUSH3 0xB3 JUMPI SWAP2 PUSH1 0x20 MUL DUP3 ADD JUMPDEST DUP3 DUP2 GT ISZERO PUSH3 0xB2 JUMPI DUP3 MLOAD DUP3 PUSH1 0x0 PUSH2 0x100 EXP DUP2 SLOAD DUP2 PUSH20 0xFFFFFFFFFFFFFFFFFFFFFFFFFFFFFFFFFFFFFFFF MUL NOT AND SWAP1 DUP4 PUSH20 0xFFFFFFFFFFFFFFFFFFFFFFFFFFFFFFFFFFFFFFFF AND MUL OR SWAP1 SSTORE POP SWAP2 PUSH1 0x20 ADD SWAP2 SWAP1 PUSH1 0x1 ADD SWAP1 PUSH3 0x58 JUMP JUMPDEST JUMPDEST POP SWAP1 POP PUSH3 0xC2 SWAP2 SWAP1 PUSH3 0xC6 JUMP JUMPDEST POP SWAP1 JUMP JUMPDEST JUMPDEST DUP1 DUP3 GT ISZERO PUSH3 0xE1 JUMPI PUSH1 0x0 DUP2 PUSH1 0x0 SWAP1 SSTORE POP PUSH1 0x1 ADD PUSH3 0xC7 JUMP JUMPDEST POP SWAP1 JUMP JUMPDEST PUSH1 0x0 PUSH1 0x40 MLOAD SWAP1 POP SWAP1 JUMP JUMPDEST PUSH1 0x0 DUP1 REVERT JUMPDEST PUSH1 0x0 DUP1 REVERT JUMPDEST PUSH1 0x0 PUSH1 0x1F NOT PUSH1 0x1F DUP4 ADD AND SWAP1 POP SWAP2 SWAP1 POP JUMP JUMPDEST PUSH32 0x4E487B7100000000000000000000000000000000000000000000000000000000 PUSH1 0x0 MSTORE PUSH1 0x41 PUSH1 0x4 MSTORE PUSH1 0x24 PUSH1 0x0 REVERT JUMPDEST PUSH3 0x144 DUP3 PUSH3 0xF9 JUMP JUMPDEST DUP2 ADD DUP2 DUP2 LT PUSH8 0xFFFFFFFFFFFFFFFF DUP3 GT OR ISZERO PUSH3 0x166 JUMPI PUSH3 0x165 PUSH3 0x10A JUMP JUMPDEST JUMPDEST DUP1 PUSH1 0x40 MSTORE POP POP POP JUMP JUMPDEST PUSH1 0x0 PUSH3 0x17B PUSH3 0xE5 JUMP JUMPDEST SWAP1 POP PUSH3 0x189 DUP3 DUP3 PUSH3 0x139 JUMP JUMPDEST SWAP2 SWAP1 POP JUMP JUMPDEST PUSH1 0x0 PUSH8 0xFFFFFFFFFFFFFFFF DUP3 GT ISZERO PUSH3 0x1AC JUMPI PUSH3 0x1AB PUSH3 0x10A JUMP JUMPDEST JUMPDEST PUSH1 0x20 DUP3 MUL SWAP1 POP SWAP2 SWAP1 POP JUMP JUMPDEST PUSH1 0x0 DUP1 REVERT JUMPDEST PUSH1 0x0 PUSH20 0xFFFFFFFFFFFFFFFFFFFFFFFFFFFFFFFFFFFFFFFF DUP3 AND SWAP1 POP SWAP2 SWAP1 POP JUMP JUMPDEST PUSH1 0x0 PUSH3 0x1E9 DUP3 PUSH3 0x1BC JUMP JUMPDEST SWAP1 POP SWAP2 SWAP1 POP JUMP JUMPDEST PUSH3 0x1FB DUP2 PUSH3 0x1DC JUMP JUMPDEST DUP2 EQ PUSH3 0x207 JUMPI PUSH1 0x0 DUP1 REVERT JUMPDEST POP JUMP JUMPDEST PUSH1 0x0 DUP2 MLOAD SWAP1 POP PUSH3 0x21B DUP2 PUSH3 0x1F0 JUMP JUMPDEST SWAP3 SWAP2 POP POP JUMP JUMPDEST PUSH1 0x0 PUSH3 0x238 PUSH3 0x232 DUP5 PUSH3 0x18E JUMP JUMPDEST PUSH3 0x16F JUMP JUMPDEST SWAP1 POP DUP1 PUSH1 0x20 DUP5 MUL DUP4 ADD DUP6 DUP2 GT ISZERO PUSH3 0x255 JUMPI PUSH3 0x254 PUSH3 0x1B7 JUMP JUMPDEST JUMPDEST DUP4 JUMPDEST DUP2 DUP2 LT ISZERO PUSH3 0x282 JUMPI DUP1 PUSH3 0x26D DUP9 DUP3 PUSH3 0x20A JUMP JUMPDEST DUP5 MSTORE PUSH1 0x20 DUP5 ADD SWAP4 POP POP PUSH1 0x20 DUP2 ADD SWAP1 POP PUSH3 0x257 JUMP JUMPDEST POP POP POP SWAP4 SWAP3 POP POP POP JUMP JUMPDEST PUSH1 0x0 DUP3 PUSH1 0x1F DUP4 ADD SLT PUSH3 0x2A4 JUMPI PUSH3 0x2A3 PUSH3 0xF4 JUMP JUMPDEST JUMPDEST PUSH1 0x2 PUSH3 0x2B3 DUP5 DUP3 DUP6 PUSH3 0x221 JUMP JUMPDEST SWAP2 POP POP SWAP3 SWAP2 POP POP JUMP JUMPDEST PUSH1 0x0 PUSH1 0x40 DUP3 DUP5 SUB SLT ISZERO PUSH3 0x2D5 JUMPI PUSH3 0x2D4 PUSH3 0xEF JUMP JUMPDEST JUMPDEST PUSH1 0x0 PUSH3 0x2E5 DUP5 DUP3 DUP6 ADD PUSH3 0x28C JUMP JUMPDEST SWAP2 POP POP SWAP3 SWAP2 POP POP JUMP JUMPDEST PUSH2 0x11BC DUP1 PUSH3 0x2FE PUSH1 0x0 CODECOPY PUSH1 0x0 RETURN INVALID PUSH1 0x80 PUSH1 0x40 MSTORE PUSH1 0x4 CALLDATASIZE LT PUSH2 0x43 JUMPI PUSH1 0x0 CALLDATALOAD PUSH1 0xE0 SHR DUP1 PUSH4 0x25E7C27 EQ PUSH2 0x4F JUMPI DUP1 PUSH4 0x207FA783 EQ PUSH2 0x8C JUMPI DUP1 PUSH4 0x78F16129 EQ PUSH2 0xC9 JUMPI DUP1 PUSH4 0xD0E30DB0 EQ PUSH2 0xF2 JUMPI PUSH2 0x4A JUMP JUMPDEST CALLDATASIZE PUSH2 0x4A JUMPI STOP JUMPDEST PUSH1 0x0 DUP1 REVERT JUMPDEST CALLVALUE DUP1 ISZERO PUSH2 0x5B JUMPI PUSH1 0x0 DUP1 REVERT JUMPDEST POP PUSH2 0x76 PUSH1 0x4 DUP1 CALLDATASIZE SUB DUP2 ADD SWAP1 PUSH2 0x71 SWAP2 SWAP1 PUSH2 0x7B2 JUMP JUMPDEST PUSH2 0xFC JUMP JUMPDEST PUSH1 0x40 MLOAD PUSH2 0x83 SWAP2 SWAP1 PUSH2 0x820 JUMP JUMPDEST PUSH1 0x40 MLOAD DUP1 SWAP2 SUB SWAP1 RETURN JUMPDEST CALLVALUE DUP1 ISZERO PUSH2 0x98 JUMPI PUSH1 0x0 DUP1 REVERT JUMPDEST POP PUSH2 0xB3 PUSH1 0x4 DUP1 CALLDATASIZE SUB DUP2 ADD SWAP1 PUSH2 0xAE SWAP2 SWAP1 PUSH2 0x867 JUMP JUMPDEST PUSH2 0x132 JUMP JUMPDEST PUSH1 0x40 MLOAD PUSH2 0xC0 SWAP2 SWAP1 PUSH2 0x8D3 JUMP JUMPDEST PUSH1 0x40 MLOAD DUP1 SWAP2 SUB SWAP1 RETURN JUMPDEST CALLVALUE DUP1 ISZERO PUSH2 0xD5 JUMPI PUSH1 0x0 DUP1 REVERT JUMPDEST POP PUSH2 0xF0 PUSH1 0x4 DUP1 CALLDATASIZE SUB DUP2 ADD SWAP1 PUSH2 0xEB SWAP2 SWAP1 PUSH2 0xB08 JUMP JUMPDEST PUSH2 0x168 JUMP JUMPDEST STOP JUMPDEST PUSH2 0xFA PUSH2 0x274 JUMP JUMPDEST STOP JUMPDEST PUSH1 0x0 DUP2 PUSH1 0x2 DUP2 LT PUSH2 0x10C JUMPI PUSH1 0x0 DUP1 REVERT JUMPDEST ADD PUSH1 0x0 SWAP2 POP SLOAD SWAP1 PUSH2 0x100 EXP SWAP1 DIV PUSH20 0xFFFFFFFFFFFFFFFFFFFFFFFFFFFFFFFFFFFFFFFF AND DUP2 JUMP JUMPDEST PUSH1 0x0 DUP4 DUP4 DUP4 PUSH1 0x40 MLOAD PUSH1 0x20 ADD PUSH2 0x149 SWAP4 SWAP3 SWAP2 SWAP1 PUSH2 0xBF4 JUMP JUMPDEST PUSH1 0x40 MLOAD PUSH1 0x20 DUP2 DUP4 SUB SUB DUP2 MSTORE SWAP1 PUSH1 0x40 MSTORE DUP1 MLOAD SWAP1 PUSH1 0x20 ADD KECCAK256 SWAP1 POP SWAP4 SWAP3 POP POP POP JUMP JUMPDEST PUSH1 0x0 PUSH2 0x175 DUP6 DUP6 DUP6 PUSH2 0x132 JUMP JUMPDEST SWAP1 POP PUSH2 0x181 DUP3 DUP3 PUSH2 0x276 JUMP JUMPDEST PUSH2 0x1C0 JUMPI PUSH1 0x40 MLOAD PUSH32 0x8C379A000000000000000000000000000000000000000000000000000000000 DUP2 MSTORE PUSH1 0x4 ADD PUSH2 0x1B7 SWAP1 PUSH2 0xC8E JUMP JUMPDEST PUSH1 0x40 MLOAD DUP1 SWAP2 SUB SWAP1 REVERT JUMPDEST PUSH1 0x0 DUP6 PUSH20 0xFFFFFFFFFFFFFFFFFFFFFFFFFFFFFFFFFFFFFFFF AND DUP6 PUSH1 0x40 MLOAD PUSH2 0x1E6 SWAP1 PUSH2 0xCDF JUMP JUMPDEST PUSH1 0x0 PUSH1 0x40 MLOAD DUP1 DUP4 SUB DUP2 DUP6 DUP8 GAS CALL SWAP3 POP POP POP RETURNDATASIZE DUP1 PUSH1 0x0 DUP2 EQ PUSH2 0x223 JUMPI PUSH1 0x40 MLOAD SWAP2 POP PUSH1 0x1F NOT PUSH1 0x3F RETURNDATASIZE ADD AND DUP3 ADD PUSH1 0x40 MSTORE RETURNDATASIZE DUP3 MSTORE RETURNDATASIZE PUSH1 0x0 PUSH1 0x20 DUP5 ADD RETURNDATACOPY PUSH2 0x228 JUMP JUMPDEST PUSH1 0x60 SWAP2 POP JUMPDEST POP POP SWAP1 POP DUP1 PUSH2 0x26C JUMPI PUSH1 0x40 MLOAD PUSH32 0x8C379A000000000000000000000000000000000000000000000000000000000 DUP2 MSTORE PUSH1 0x4 ADD PUSH2 0x263 SWAP1 PUSH2 0xD40 JUMP JUMPDEST PUSH1 0x40 MLOAD DUP1 SWAP2 SUB SWAP1 REVERT JUMPDEST POP POP POP POP POP POP JUMP JUMPDEST JUMP JUMPDEST PUSH1 0x0 DUP1 PUSH2 0x282 DUP4 PUSH2 0x359 JUMP JUMPDEST SWAP1 POP PUSH1 0x0 JUMPDEST PUSH1 0x2 DUP2 LT ISZERO PUSH2 0x34C JUMPI PUSH1 0x0 PUSH2 0x2BC DUP7 DUP4 PUSH1 0x2 DUP2 LT PUSH2 0x2A8 JUMPI PUSH2 0x2A7 PUSH2 0xD60 JUMP JUMPDEST JUMPDEST PUSH1 0x20 MUL ADD MLOAD DUP5 PUSH2 0x389 SWAP1 SWAP2 SWAP1 PUSH4 0xFFFFFFFF AND JUMP JUMPDEST SWAP1 POP PUSH1 0x0 DUP1 DUP4 PUSH1 0x2 DUP2 LT PUSH2 0x2D3 JUMPI PUSH2 0x2D2 PUSH2 0xD60 JUMP JUMPDEST JUMPDEST ADD PUSH1 0x0 SWAP1 SLOAD SWAP1 PUSH2 0x100 EXP SWAP1 DIV PUSH20 0xFFFFFFFFFFFFFFFFFFFFFFFFFFFFFFFFFFFFFFFF AND PUSH20 0xFFFFFFFFFFFFFFFFFFFFFFFFFFFFFFFFFFFFFFFF AND DUP3 PUSH20 0xFFFFFFFFFFFFFFFFFFFFFFFFFFFFFFFFFFFFFFFF AND EQ SWAP1 POP DUP1 PUSH2 0x337 JUMPI PUSH1 0x0 SWAP5 POP POP POP POP POP PUSH2 0x353 JUMP JUMPDEST POP POP DUP1 DUP1 PUSH2 0x344 SWAP1 PUSH2 0xDBE JUMP JUMPDEST SWAP2 POP POP PUSH2 0x287 JUMP JUMPDEST POP PUSH1 0x1 SWAP2 POP POP JUMPDEST SWAP3 SWAP2 POP POP JUMP JUMPDEST PUSH1 0x0 DUP2 PUSH1 0x40 MLOAD PUSH1 0x20 ADD PUSH2 0x36C SWAP2 SWAP1 PUSH2 0xE7E JUMP JUMPDEST PUSH1 0x40 MLOAD PUSH1 0x20 DUP2 DUP4 SUB SUB DUP2 MSTORE SWAP1 PUSH1 0x40 MSTORE DUP1 MLOAD SWAP1 PUSH1 0x20 ADD KECCAK256 SWAP1 POP SWAP2 SWAP1 POP JUMP JUMPDEST PUSH1 0x0 DUP1 PUSH1 0x0 PUSH2 0x398 DUP6 DUP6 PUSH2 0x3B0 JUMP JUMPDEST SWAP2 POP SWAP2 POP PUSH2 0x3A5 DUP2 PUSH2 0x431 JUMP JUMPDEST DUP2 SWAP3 POP POP POP SWAP3 SWAP2 POP POP JUMP JUMPDEST PUSH1 0x0 DUP1 PUSH1 0x41 DUP4 MLOAD SUB PUSH2 0x3F1 JUMPI PUSH1 0x0 DUP1 PUSH1 0x0 PUSH1 0x20 DUP7 ADD MLOAD SWAP3 POP PUSH1 0x40 DUP7 ADD MLOAD SWAP2 POP PUSH1 0x60 DUP7 ADD MLOAD PUSH1 0x0 BYTE SWAP1 POP PUSH2 0x3E5 DUP8 DUP3 DUP6 DUP6 PUSH2 0x5FD JUMP JUMPDEST SWAP5 POP SWAP5 POP POP POP POP PUSH2 0x42A JUMP JUMPDEST PUSH1 0x40 DUP4 MLOAD SUB PUSH2 0x421 JUMPI PUSH1 0x0 DUP1 PUSH1 0x20 DUP6 ADD MLOAD SWAP2 POP PUSH1 0x40 DUP6 ADD MLOAD SWAP1 POP PUSH2 0x416 DUP7 DUP4 DUP4 PUSH2 0x709 JUMP JUMPDEST SWAP4 POP SWAP4 POP POP POP PUSH2 0x42A JUMP JUMPDEST PUSH1 0x0 PUSH1 0x2 SWAP2 POP SWAP2 POP JUMPDEST SWAP3 POP SWAP3 SWAP1 POP JUMP JUMPDEST PUSH1 0x0 PUSH1 0x4 DUP2 GT ISZERO PUSH2 0x445 JUMPI PUSH2 0x444 PUSH2 0xEA4 JUMP JUMPDEST JUMPDEST DUP2 PUSH1 0x4 DUP2 GT ISZERO PUSH2 0x458 JUMPI PUSH2 0x457 PUSH2 0xEA4 JUMP JUMPDEST JUMPDEST SUB ISZERO PUSH2 0x5FA JUMPI PUSH1 0x1 PUSH1 0x4 DUP2 GT ISZERO PUSH2 0x472 JUMPI PUSH2 0x471 PUSH2 0xEA4 JUMP JUMPDEST JUMPDEST DUP2 PUSH1 0x4 DUP2 GT ISZERO PUSH2 0x485 JUMPI PUSH2 0x484 PUSH2 0xEA4 JUMP JUMPDEST JUMPDEST SUB PUSH2 0x4C5 JUMPI PUSH1 0x40 MLOAD PUSH32 0x8C379A000000000000000000000000000000000000000000000000000000000 DUP2 MSTORE PUSH1 0x4 ADD PUSH2 0x4BC SWAP1 PUSH2 0xF1F JUMP JUMPDEST PUSH1 0x40 MLOAD DUP1 SWAP2 SUB SWAP1 REVERT JUMPDEST PUSH1 0x2 PUSH1 0x4 DUP2 GT ISZERO PUSH2 0x4D9 JUMPI PUSH2 0x4D8 PUSH2 0xEA4 JUMP JUMPDEST JUMPDEST DUP2 PUSH1 0x4 DUP2 GT ISZERO PUSH2 0x4EC JUMPI PUSH2 0x4EB PUSH2 0xEA4 JUMP JUMPDEST JUMPDEST SUB PUSH2 0x52C JUMPI PUSH1 0x40 MLOAD PUSH32 0x8C379A000000000000000000000000000000000000000000000000000000000 DUP2 MSTORE PUSH1 0x4 ADD PUSH2 0x523 SWAP1 PUSH2 0xF8B JUMP JUMPDEST PUSH1 0x40 MLOAD DUP1 SWAP2 SUB SWAP1 REVERT JUMPDEST PUSH1 0x3 PUSH1 0x4 DUP2 GT ISZERO PUSH2 0x540 JUMPI PUSH2 0x53F PUSH2 0xEA4 JUMP JUMPDEST JUMPDEST DUP2 PUSH1 0x4 DUP2 GT ISZERO PUSH2 0x553 JUMPI PUSH2 0x552 PUSH2 0xEA4 JUMP JUMPDEST JUMPDEST SUB PUSH2 0x593 JUMPI PUSH1 0x40 MLOAD PUSH32 0x8C379A000000000000000000000000000000000000000000000000000000000 DUP2 MSTORE PUSH1 0x4 ADD PUSH2 0x58A SWAP1 PUSH2 0x101D JUMP JUMPDEST PUSH1 0x40 MLOAD DUP1 SWAP2 SUB SWAP1 REVERT JUMPDEST PUSH1 0x4 DUP1 DUP2 GT ISZERO PUSH2 0x5A6 JUMPI PUSH2 0x5A5 PUSH2 0xEA4 JUMP JUMPDEST JUMPDEST DUP2 PUSH1 0x4 DUP2 GT ISZERO PUSH2 0x5B9 JUMPI PUSH2 0x5B8 PUSH2 0xEA4 JUMP JUMPDEST JUMPDEST SUB PUSH2 0x5F9 JUMPI PUSH1 0x40 MLOAD PUSH32 0x8C379A000000000000000000000000000000000000000000000000000000000 DUP2 MSTORE PUSH1 0x4 ADD PUSH2 0x5F0 SWAP1 PUSH2 0x10AF JUMP JUMPDEST PUSH1 0x40 MLOAD DUP1 SWAP2 SUB SWAP1 REVERT JUMPDEST JUMPDEST POP JUMP JUMPDEST PUSH1 0x0 DUP1 PUSH32 0x7FFFFFFFFFFFFFFFFFFFFFFFFFFFFFFF5D576E7357A4501DDFE92F46681B20A0 DUP4 PUSH1 0x0 SHR GT ISZERO PUSH2 0x638 JUMPI PUSH1 0x0 PUSH1 0x3 SWAP2 POP SWAP2 POP PUSH2 0x700 JUMP JUMPDEST PUSH1 0x1B DUP6 PUSH1 0xFF AND EQ ISZERO DUP1 ISZERO PUSH2 0x650 JUMPI POP PUSH1 0x1C DUP6 PUSH1 0xFF AND EQ ISZERO JUMPDEST ISZERO PUSH2 0x662 JUMPI PUSH1 0x0 PUSH1 0x4 SWAP2 POP SWAP2 POP PUSH2 0x700 JUMP JUMPDEST PUSH1 0x0 PUSH1 0x1 DUP8 DUP8 DUP8 DUP8 PUSH1 0x40 MLOAD PUSH1 0x0 DUP2 MSTORE PUSH1 0x20 ADD PUSH1 0x40 MSTORE PUSH1 0x40 MLOAD PUSH2 0x687 SWAP5 SWAP4 SWAP3 SWAP2 SWAP1 PUSH2 0x10EB JUMP JUMPDEST PUSH1 0x20 PUSH1 0x40 MLOAD PUSH1 0x20 DUP2 SUB SWAP1 DUP1 DUP5 SUB SWAP1 DUP6 GAS STATICCALL ISZERO DUP1 ISZERO PUSH2 0x6A9 JUMPI RETURNDATASIZE PUSH1 0x0 DUP1 RETURNDATACOPY RETURNDATASIZE PUSH1 0x0 REVERT JUMPDEST POP POP POP PUSH1 0x20 PUSH1 0x40 MLOAD SUB MLOAD SWAP1 POP PUSH1 0x0 PUSH20 0xFFFFFFFFFFFFFFFFFFFFFFFFFFFFFFFFFFFFFFFF AND DUP2 PUSH20 0xFFFFFFFFFFFFFFFFFFFFFFFFFFFFFFFFFFFFFFFF AND SUB PUSH2 0x6F7 JUMPI PUSH1 0x0 PUSH1 0x1 SWAP3 POP SWAP3 POP POP PUSH2 0x700 JUMP JUMPDEST DUP1 PUSH1 0x0 SWAP3 POP SWAP3 POP POP JUMPDEST SWAP5 POP SWAP5 SWAP3 POP POP POP JUMP JUMPDEST PUSH1 0x0 DUP1 PUSH1 0x0 PUSH32 0x7FFFFFFFFFFFFFFFFFFFFFFFFFFFFFFFFFFFFFFFFFFFFFFFFFFFFFFFFFFFFFFF PUSH1 0x0 SHL DUP5 AND SWAP1 POP PUSH1 0x0 PUSH1 0x1B PUSH1 0xFF DUP7 PUSH1 0x0 SHR SWAP1 SHR PUSH2 0x74C SWAP2 SWAP1 PUSH2 0x1130 JUMP JUMPDEST SWAP1 POP PUSH2 0x75A DUP8 DUP3 DUP9 DUP6 PUSH2 0x5FD JUMP JUMPDEST SWAP4 POP SWAP4 POP POP POP SWAP4 POP SWAP4 SWAP2 POP POP JUMP JUMPDEST PUSH1 0x0 PUSH1 0x40 MLOAD SWAP1 POP SWAP1 JUMP JUMPDEST PUSH1 0x0 DUP1 REVERT JUMPDEST PUSH1 0x0 DUP1 REVERT JUMPDEST PUSH1 0x0 DUP2 SWAP1 POP SWAP2 SWAP1 POP JUMP JUMPDEST PUSH2 0x78F DUP2 PUSH2 0x77C JUMP JUMPDEST DUP2 EQ PUSH2 0x79A JUMPI PUSH1 0x0 DUP1 REVERT JUMPDEST POP JUMP JUMPDEST PUSH1 0x0 DUP2 CALLDATALOAD SWAP1 POP PUSH2 0x7AC DUP2 PUSH2 0x786 JUMP JUMPDEST SWAP3 SWAP2 POP POP JUMP JUMPDEST PUSH1 0x0 PUSH1 0x20 DUP3 DUP5 SUB SLT ISZERO PUSH2 0x7C8 JUMPI PUSH2 0x7C7 PUSH2 0x772 JUMP JUMPDEST JUMPDEST PUSH1 0x0 PUSH2 0x7D6 DUP5 DUP3 DUP6 ADD PUSH2 0x79D JUMP JUMPDEST SWAP2 POP POP SWAP3 SWAP2 POP POP JUMP JUMPDEST PUSH1 0x0 PUSH20 0xFFFFFFFFFFFFFFFFFFFFFFFFFFFFFFFFFFFFFFFF DUP3 AND SWAP1 POP SWAP2 SWAP1 POP JUMP JUMPDEST PUSH1 0x0 PUSH2 0x80A DUP3 PUSH2 0x7DF JUMP JUMPDEST SWAP1 POP SWAP2 SWAP1 POP JUMP JUMPDEST PUSH2 0x81A DUP2 PUSH2 0x7FF JUMP JUMPDEST DUP3 MSTORE POP POP JUMP JUMPDEST PUSH1 0x0 PUSH1 0x20 DUP3 ADD SWAP1 POP PUSH2 0x835 PUSH1 0x0 DUP4 ADD DUP5 PUSH2 0x811 JUMP JUMPDEST SWAP3 SWAP2 POP POP JUMP JUMPDEST PUSH2 0x844 DUP2 PUSH2 0x7FF JUMP JUMPDEST DUP2 EQ PUSH2 0x84F JUMPI PUSH1 0x0 DUP1 REVERT JUMPDEST POP JUMP JUMPDEST PUSH1 0x0 DUP2 CALLDATALOAD SWAP1 POP PUSH2 0x861 DUP2 PUSH2 0x83B JUMP JUMPDEST SWAP3 SWAP2 POP POP JUMP JUMPDEST PUSH1 0x0 DUP1 PUSH1 0x0 PUSH1 0x60 DUP5 DUP7 SUB SLT ISZERO PUSH2 0x880 JUMPI PUSH2 0x87F PUSH2 0x772 JUMP JUMPDEST JUMPDEST PUSH1 0x0 PUSH2 0x88E DUP7 DUP3 DUP8 ADD PUSH2 0x852 JUMP JUMPDEST SWAP4 POP POP PUSH1 0x20 PUSH2 0x89F DUP7 DUP3 DUP8 ADD PUSH2 0x79D JUMP JUMPDEST SWAP3 POP POP PUSH1 0x40 PUSH2 0x8B0 DUP7 DUP3 DUP8 ADD PUSH2 0x79D JUMP JUMPDEST SWAP2 POP POP SWAP3 POP SWAP3 POP SWAP3 JUMP JUMPDEST PUSH1 0x0 DUP2 SWAP1 POP SWAP2 SWAP1 POP JUMP JUMPDEST PUSH2 0x8CD DUP2 PUSH2 0x8BA JUMP JUMPDEST DUP3 MSTORE POP POP JUMP JUMPDEST PUSH1 0x0 PUSH1 0x20 DUP3 ADD SWAP1 POP PUSH2 0x8E8 PUSH1 0x0 DUP4 ADD DUP5 PUSH2 0x8C4 JUMP JUMPDEST SWAP3 SWAP2 POP POP JUMP JUMPDEST PUSH1 0x0 DUP1 REVERT JUMPDEST PUSH1 0x0 PUSH1 0x1F NOT PUSH1 0x1F DUP4 ADD AND SWAP1 POP SWAP2 SWAP1 POP JUMP JUMPDEST PUSH32 0x4E487B7100000000000000000000000000000000000000000000000000000000 PUSH1 0x0 MSTORE PUSH1 0x41 PUSH1 0x4 MSTORE PUSH1 0x24 PUSH1 0x0 REVERT JUMPDEST PUSH2 0x93C DUP3 PUSH2 0x8F3 JUMP JUMPDEST DUP2 ADD DUP2 DUP2 LT PUSH8 0xFFFFFFFFFFFFFFFF DUP3 GT OR ISZERO PUSH2 0x95B JUMPI PUSH2 0x95A PUSH2 0x904 JUMP JUMPDEST JUMPDEST DUP1 PUSH1 0x40 MSTORE POP POP POP JUMP JUMPDEST PUSH1 0x0 PUSH2 0x96E PUSH2 0x768 JUMP JUMPDEST SWAP1 POP PUSH2 0x97A DUP3 DUP3 PUSH2 0x933 JUMP JUMPDEST SWAP2 SWAP1 POP JUMP JUMPDEST PUSH1 0x0 PUSH8 0xFFFFFFFFFFFFFFFF DUP3 GT ISZERO PUSH2 0x99A JUMPI PUSH2 0x999 PUSH2 0x904 JUMP JUMPDEST JUMPDEST PUSH1 0x20 DUP3 MUL SWAP1 POP SWAP2 SWAP1 POP JUMP JUMPDEST PUSH1 0x0 DUP1 REVERT JUMPDEST PUSH1 0x0 DUP1 REVERT JUMPDEST PUSH1 0x0 PUSH8 0xFFFFFFFFFFFFFFFF DUP3 GT ISZERO PUSH2 0x9CA JUMPI PUSH2 0x9C9 PUSH2 0x904 JUMP JUMPDEST JUMPDEST PUSH2 0x9D3 DUP3 PUSH2 0x8F3 JUMP JUMPDEST SWAP1 POP PUSH1 0x20 DUP2 ADD SWAP1 POP SWAP2 SWAP1 POP JUMP JUMPDEST DUP3 DUP2 DUP4 CALLDATACOPY PUSH1 0x0 DUP4 DUP4 ADD MSTORE POP POP POP JUMP JUMPDEST PUSH1 0x0 PUSH2 0xA02 PUSH2 0x9FD DUP5 PUSH2 0x9AF JUMP JUMPDEST PUSH2 0x964 JUMP JUMPDEST SWAP1 POP DUP3 DUP2 MSTORE PUSH1 0x20 DUP2 ADD DUP5 DUP5 DUP5 ADD GT ISZERO PUSH2 0xA1E JUMPI PUSH2 0xA1D PUSH2 0x9AA JUMP JUMPDEST JUMPDEST PUSH2 0xA29 DUP5 DUP3 DUP6 PUSH2 0x9E0 JUMP JUMPDEST POP SWAP4 SWAP3 POP POP POP JUMP JUMPDEST PUSH1 0x0 DUP3 PUSH1 0x1F DUP4 ADD SLT PUSH2 0xA46 JUMPI PUSH2 0xA45 PUSH2 0x8EE JUMP JUMPDEST JUMPDEST DUP2 CALLDATALOAD PUSH2 0xA56 DUP5 DUP3 PUSH1 0x20 DUP7 ADD PUSH2 0x9EF JUMP JUMPDEST SWAP2 POP POP SWAP3 SWAP2 POP POP JUMP JUMPDEST PUSH1 0x0 PUSH2 0xA72 PUSH2 0xA6D DUP5 PUSH2 0x97F JUMP JUMPDEST PUSH2 0x964 JUMP JUMPDEST SWAP1 POP DUP1 PUSH1 0x20 DUP5 MUL DUP4 ADD DUP6 DUP2 GT ISZERO PUSH2 0xA8C JUMPI PUSH2 0xA8B PUSH2 0x9A5 JUMP JUMPDEST JUMPDEST DUP4 JUMPDEST DUP2 DUP2 LT ISZERO PUSH2 0xAD3 JUMPI DUP1 CALLDATALOAD PUSH8 0xFFFFFFFFFFFFFFFF DUP2 GT ISZERO PUSH2 0xAB1 JUMPI PUSH2 0xAB0 PUSH2 0x8EE JUMP JUMPDEST JUMPDEST DUP1 DUP7 ADD PUSH2 0xABE DUP10 DUP3 PUSH2 0xA31 JUMP JUMPDEST DUP6 MSTORE PUSH1 0x20 DUP6 ADD SWAP5 POP POP POP PUSH1 0x20 DUP2 ADD SWAP1 POP PUSH2 0xA8E JUMP JUMPDEST POP POP POP SWAP4 SWAP3 POP POP POP JUMP JUMPDEST PUSH1 0x0 DUP3 PUSH1 0x1F DUP4 ADD SLT PUSH2 0xAF2 JUMPI PUSH2 0xAF1 PUSH2 0x8EE JUMP JUMPDEST JUMPDEST PUSH1 0x2 PUSH2 0xAFF DUP5 DUP3 DUP6 PUSH2 0xA5F JUMP JUMPDEST SWAP2 POP POP SWAP3 SWAP2 POP POP JUMP JUMPDEST PUSH1 0x0 DUP1 PUSH1 0x0 DUP1 PUSH1 0x80 DUP6 DUP8 SUB SLT ISZERO PUSH2 0xB22 JUMPI PUSH2 0xB21 PUSH2 0x772 JUMP JUMPDEST JUMPDEST PUSH1 0x0 PUSH2 0xB30 DUP8 DUP3 DUP9 ADD PUSH2 0x852 JUMP JUMPDEST SWAP5 POP POP PUSH1 0x20 PUSH2 0xB41 DUP8 DUP3 DUP9 ADD PUSH2 0x79D JUMP JUMPDEST SWAP4 POP POP PUSH1 0x40 PUSH2 0xB52 DUP8 DUP3 DUP9 ADD PUSH2 0x79D JUMP JUMPDEST SWAP3 POP POP PUSH1 0x60 DUP6 ADD CALLDATALOAD PUSH8 0xFFFFFFFFFFFFFFFF DUP2 GT ISZERO PUSH2 0xB73 JUMPI PUSH2 0xB72 PUSH2 0x777 JUMP JUMPDEST JUMPDEST PUSH2 0xB7F DUP8 DUP3 DUP9 ADD PUSH2 0xADD JUMP JUMPDEST SWAP2 POP POP SWAP3 SWAP6 SWAP2 SWAP5 POP SWAP3 POP JUMP JUMPDEST PUSH1 0x0 DUP2 PUSH1 0x60 SHL SWAP1 POP SWAP2 SWAP1 POP JUMP JUMPDEST PUSH1 0x0 PUSH2 0xBA3 DUP3 PUSH2 0xB8B JUMP JUMPDEST SWAP1 POP SWAP2 SWAP1 POP JUMP JUMPDEST PUSH1 0x0 PUSH2 0xBB5 DUP3 PUSH2 0xB98 JUMP JUMPDEST SWAP1 POP SWAP2 SWAP1 POP JUMP JUMPDEST PUSH2 0xBCD PUSH2 0xBC8 DUP3 PUSH2 0x7FF JUMP JUMPDEST PUSH2 0xBAA JUMP JUMPDEST DUP3 MSTORE POP POP JUMP JUMPDEST PUSH1 0x0 DUP2 SWAP1 POP SWAP2 SWAP1 POP JUMP JUMPDEST PUSH2 0xBEE PUSH2 0xBE9 DUP3 PUSH2 0x77C JUMP JUMPDEST PUSH2 0xBD3 JUMP JUMPDEST DUP3 MSTORE POP POP JUMP JUMPDEST PUSH1 0x0 PUSH2 0xC00 DUP3 DUP7 PUSH2 0xBBC JUMP JUMPDEST PUSH1 0x14 DUP3 ADD SWAP2 POP PUSH2 0xC10 DUP3 DUP6 PUSH2 0xBDD JUMP JUMPDEST PUSH1 0x20 DUP3 ADD SWAP2 POP PUSH2 0xC20 DUP3 DUP5 PUSH2 0xBDD JUMP JUMPDEST PUSH1 0x20 DUP3 ADD SWAP2 POP DUP2 SWAP1 POP SWAP5 SWAP4 POP POP POP POP JUMP JUMPDEST PUSH1 0x0 DUP3 DUP3 MSTORE PUSH1 0x20 DUP3 ADD SWAP1 POP SWAP3 SWAP2 POP POP JUMP JUMPDEST PUSH32 0x696E76616C696420736967000000000000000000000000000000000000000000 PUSH1 0x0 DUP3 ADD MSTORE POP JUMP JUMPDEST PUSH1 0x0 PUSH2 0xC78 PUSH1 0xB DUP4 PUSH2 0xC31 JUMP JUMPDEST SWAP2 POP PUSH2 0xC83 DUP3 PUSH2 0xC42 JUMP JUMPDEST PUSH1 0x20 DUP3 ADD SWAP1 POP SWAP2 SWAP1 POP JUMP JUMPDEST PUSH1 0x0 PUSH1 0x20 DUP3 ADD SWAP1 POP DUP2 DUP2 SUB PUSH1 0x0 DUP4 ADD MSTORE PUSH2 0xCA7 DUP2 PUSH2 0xC6B JUMP JUMPDEST SWAP1 POP SWAP2 SWAP1 POP JUMP JUMPDEST PUSH1 0x0 DUP2 SWAP1 POP SWAP3 SWAP2 POP POP JUMP JUMPDEST POP JUMP JUMPDEST PUSH1 0x0 PUSH2 0xCC9 PUSH1 0x0 DUP4 PUSH2 0xCAE JUMP JUMPDEST SWAP2 POP PUSH2 0xCD4 DUP3 PUSH2 0xCB9 JUMP JUMPDEST PUSH1 0x0 DUP3 ADD SWAP1 POP SWAP2 SWAP1 POP JUMP JUMPDEST PUSH1 0x0 PUSH2 0xCEA DUP3 PUSH2 0xCBC JUMP JUMPDEST SWAP2 POP DUP2 SWAP1 POP SWAP2 SWAP1 POP JUMP JUMPDEST PUSH32 0x4661696C656420746F2073656E64204574686572000000000000000000000000 PUSH1 0x0 DUP3 ADD MSTORE POP JUMP JUMPDEST PUSH1 0x0 PUSH2 0xD2A PUSH1 0x14 DUP4 PUSH2 0xC31 JUMP JUMPDEST SWAP2 POP PUSH2 0xD35 DUP3 PUSH2 0xCF4 JUMP JUMPDEST PUSH1 0x20 DUP3 ADD SWAP1 POP SWAP2 SWAP1 POP JUMP JUMPDEST PUSH1 0x0 PUSH1 0x20 DUP3 ADD SWAP1 POP DUP2 DUP2 SUB PUSH1 0x0 DUP4 ADD MSTORE PUSH2 0xD59 DUP2 PUSH2 0xD1D JUMP JUMPDEST SWAP1 POP SWAP2 SWAP1 POP JUMP JUMPDEST PUSH32 0x4E487B7100000000000000000000000000000000000000000000000000000000 PUSH1 0x0 MSTORE PUSH1 0x32 PUSH1 0x4 MSTORE PUSH1 0x24 PUSH1 0x0 REVERT JUMPDEST PUSH32 0x4E487B7100000000000000000000000000000000000000000000000000000000 PUSH1 0x0 MSTORE PUSH1 0x11 PUSH1 0x4 MSTORE PUSH1 0x24 PUSH1 0x0 REVERT JUMPDEST PUSH1 0x0 PUSH2 0xDC9 DUP3 PUSH2 0x77C JUMP JUMPDEST SWAP2 POP PUSH32 0xFFFFFFFFFFFFFFFFFFFFFFFFFFFFFFFFFFFFFFFFFFFFFFFFFFFFFFFFFFFFFFFF DUP3 SUB PUSH2 0xDFB JUMPI PUSH2 0xDFA PUSH2 0xD8F JUMP JUMPDEST JUMPDEST PUSH1 0x1 DUP3 ADD SWAP1 POP SWAP2 SWAP1 POP JUMP JUMPDEST PUSH1 0x0 DUP2 SWAP1 POP SWAP3 SWAP2 POP POP JUMP JUMPDEST PUSH32 0x19457468657265756D205369676E6564204D6573736167653A0A333200000000 PUSH1 0x0 DUP3 ADD MSTORE POP JUMP JUMPDEST PUSH1 0x0 PUSH2 0xE47 PUSH1 0x1C DUP4 PUSH2 0xE06 JUMP JUMPDEST SWAP2 POP PUSH2 0xE52 DUP3 PUSH2 0xE11 JUMP JUMPDEST PUSH1 0x1C DUP3 ADD SWAP1 POP SWAP2 SWAP1 POP JUMP JUMPDEST PUSH1 0x0 DUP2 SWAP1 POP SWAP2 SWAP1 POP JUMP JUMPDEST PUSH2 0xE78 PUSH2 0xE73 DUP3 PUSH2 0x8BA JUMP JUMPDEST PUSH2 0xE5D JUMP JUMPDEST DUP3 MSTORE POP POP JUMP JUMPDEST PUSH1 0x0 PUSH2 0xE89 DUP3 PUSH2 0xE3A JUMP JUMPDEST SWAP2 POP PUSH2 0xE95 DUP3 DUP5 PUSH2 0xE67 JUMP JUMPDEST PUSH1 0x20 DUP3 ADD SWAP2 POP DUP2 SWAP1 POP SWAP3 SWAP2 POP POP JUMP JUMPDEST PUSH32 0x4E487B7100000000000000000000000000000000000000000000000000000000 PUSH1 0x0 MSTORE PUSH1 0x21 PUSH1 0x4 MSTORE PUSH1 0x24 PUSH1 0x0 REVERT JUMPDEST PUSH32 0x45434453413A20696E76616C6964207369676E61747572650000000000000000 PUSH1 0x0 DUP3 ADD MSTORE POP JUMP JUMPDEST PUSH1 0x0 PUSH2 0xF09 PUSH1 0x18 DUP4 PUSH2 0xC31 JUMP JUMPDEST SWAP2 POP PUSH2 0xF14 DUP3 PUSH2 0xED3 JUMP JUMPDEST PUSH1 0x20 DUP3 ADD SWAP1 POP SWAP2 SWAP1 POP JUMP JUMPDEST PUSH1 0x0 PUSH1 0x20 DUP3 ADD SWAP1 POP DUP2 DUP2 SUB PUSH1 0x0 DUP4 ADD MSTORE PUSH2 0xF38 DUP2 PUSH2 0xEFC JUMP JUMPDEST SWAP1 POP SWAP2 SWAP1 POP JUMP JUMPDEST PUSH32 0x45434453413A20696E76616C6964207369676E6174757265206C656E67746800 PUSH1 0x0 DUP3 ADD MSTORE POP JUMP JUMPDEST PUSH1 0x0 PUSH2 0xF75 PUSH1 0x1F DUP4 PUSH2 0xC31 JUMP JUMPDEST SWAP2 POP PUSH2 0xF80 DUP3 PUSH2 0xF3F JUMP JUMPDEST PUSH1 0x20 DUP3 ADD SWAP1 POP SWAP2 SWAP1 POP JUMP JUMPDEST PUSH1 0x0 PUSH1 0x20 DUP3 ADD SWAP1 POP DUP2 DUP2 SUB PUSH1 0x0 DUP4 ADD MSTORE PUSH2 0xFA4 DUP2 PUSH2 0xF68 JUMP JUMPDEST SWAP1 POP SWAP2 SWAP1 POP JUMP JUMPDEST PUSH32 0x45434453413A20696E76616C6964207369676E6174757265202773272076616C PUSH1 0x0 DUP3 ADD MSTORE PUSH32 0x7565000000000000000000000000000000000000000000000000000000000000 PUSH1 0x20 DUP3 ADD MSTORE POP JUMP JUMPDEST PUSH1 0x0 PUSH2 0x1007 PUSH1 0x22 DUP4 PUSH2 0xC31 JUMP JUMPDEST SWAP2 POP PUSH2 0x1012 DUP3 PUSH2 0xFAB JUMP JUMPDEST PUSH1 0x40 DUP3 ADD SWAP1 POP SWAP2 SWAP1 POP JUMP JUMPDEST PUSH1 0x0 PUSH1 0x20 DUP3 ADD SWAP1 POP DUP2 DUP2 SUB PUSH1 0x0 DUP4 ADD MSTORE PUSH2 0x1036 DUP2 PUSH2 0xFFA JUMP JUMPDEST SWAP1 POP SWAP2 SWAP1 POP JUMP JUMPDEST PUSH32 0x45434453413A20696E76616C6964207369676E6174757265202776272076616C PUSH1 0x0 DUP3 ADD MSTORE PUSH32 0x7565000000000000000000000000000000000000000000000000000000000000 PUSH1 0x20 DUP3 ADD MSTORE POP JUMP JUMPDEST PUSH1 0x0 PUSH2 0x1099 PUSH1 0x22 DUP4 PUSH2 0xC31 JUMP JUMPDEST SWAP2 POP PUSH2 0x10A4 DUP3 PUSH2 0x103D JUMP JUMPDEST PUSH1 0x40 DUP3 ADD SWAP1 POP SWAP2 SWAP1 POP JUMP JUMPDEST PUSH1 0x0 PUSH1 0x20 DUP3 ADD SWAP1 POP DUP2 DUP2 SUB PUSH1 0x0 DUP4 ADD MSTORE PUSH2 0x10C8 DUP2 PUSH2 0x108C JUMP JUMPDEST SWAP1 POP SWAP2 SWAP1 POP JUMP JUMPDEST PUSH1 0x0 PUSH1 0xFF DUP3 AND SWAP1 POP SWAP2 SWAP1 POP JUMP JUMPDEST PUSH2 0x10E5 DUP2 PUSH2 0x10CF JUMP JUMPDEST DUP3 MSTORE POP POP JUMP JUMPDEST PUSH1 0x0 PUSH1 0x80 DUP3 ADD SWAP1 POP PUSH2 0x1100 PUSH1 0x0 DUP4 ADD DUP8 PUSH2 0x8C4 JUMP JUMPDEST PUSH2 0x110D PUSH1 0x20 DUP4 ADD DUP7 PUSH2 0x10DC JUMP JUMPDEST PUSH2 0x111A PUSH1 0x40 DUP4 ADD DUP6 PUSH2 0x8C4 JUMP JUMPDEST PUSH2 0x1127 PUSH1 0x60 DUP4 ADD DUP5 PUSH2 0x8C4 JUMP JUMPDEST SWAP6 SWAP5 POP POP POP POP POP JUMP JUMPDEST PUSH1 0x0 PUSH2 0x113B DUP3 PUSH2 0x77C JUMP JUMPDEST SWAP2 POP PUSH2 0x1146 DUP4 PUSH2 0x77C JUMP JUMPDEST SWAP3 POP DUP3 PUSH32 0xFFFFFFFFFFFFFFFFFFFFFFFFFFFFFFFFFFFFFFFFFFFFFFFFFFFFFFFFFFFFFFFF SUB DUP3 GT ISZERO PUSH2 0x117B JUMPI PUSH2 0x117A PUSH2 0xD8F JUMP JUMPDEST JUMPDEST DUP3 DUP3 ADD SWAP1 POP SWAP3 SWAP2 POP POP JUMP INVALID LOG2 PUSH5 0x6970667358 0x22 SLT KECCAK256 0xDF 0xC9 DUP1 SGT 0x4F 0xB6 DUP2 0xE1 0xD4 0xB9 PUSH26 0xAE64F4E82F46FCA5F9A578E5B7FC2A66DBF551102B64736F6C63 NUMBER STOP ADDMOD 0xF STOP CALLER "
				},
				"gasEstimates": {
					"creation": {
						"codeDepositCost": "908000",
						"executionCost": "infinite",
						"totalCost": "infinite"
					},
					"external": {
						"deposit()": "164",
						"getTxHash(address,uint256,uint256)": "infinite",
						"owners(uint256)": "2783",
						"transfer(address,uint256,uint256,bytes[2])": "infinite"
					},
					"internal": {
						"_checkSigs(bytes memory[2] memory,bytes32)": "infinite"
					}
				},
				"methodIdentifiers": {
					"deposit()": "d0e30db0",
					"getTxHash(address,uint256,uint256)": "207fa783",
					"owners(uint256)": "025e7c27",
					"transfer(address,uint256,uint256,bytes[2])": "78f16129"
				}
			},
			"storageLayout": {
				"storage": [
					{
						"astId": 10,
						"contract": "contracts/DeFi/MultiSigV3.sol:MultiSigWallet",
						"label": "owners",
						"offset": 0,
						"slot": "0",
						"type": "t_array(t_address)2_storage"
					}
				],
				"types": {
					"t_address": {
						"encoding": "inplace",
						"label": "address",
						"numberOfBytes": "20"
					},
					"t_array(t_address)2_storage": {
						"base": "t_address",
						"encoding": "inplace",
						"label": "address[2]",
						"numberOfBytes": "64"
					}
				}
			},
			"userdoc": {
				"kind": "user",
				"methods": {},
				"version": 1
			}
		}
	}
}