{
	"contracts/DeFi/MultiSigV2.sol": {
		"MultiSigWallet": {
			"abi": [
				{
					"inputs": [
						{
							"internalType": "address[]",
							"name": "_owners",
							"type": "address[]"
						},
						{
							"internalType": "uint256",
							"name": "_required",
							"type": "uint256"
						}
					],
					"stateMutability": "nonpayable",
					"type": "constructor"
				},
				{
					"inputs": [],
					"name": "AlreadyOwner",
					"type": "error"
				},
				{
					"inputs": [],
					"name": "InvalidNumRequired",
					"type": "error"
				},
				{
					"inputs": [],
					"name": "InvalidOwnerAddress",
					"type": "error"
				},
				{
					"inputs": [],
					"name": "LessConfirmationsThanRequired",
					"type": "error"
				},
				{
					"inputs": [],
					"name": "NotOwner",
					"type": "error"
				},
				{
					"inputs": [],
					"name": "TxAlreadyApproved",
					"type": "error"
				},
				{
					"inputs": [],
					"name": "TxAlreadyExecuted",
					"type": "error"
				},
				{
					"inputs": [],
					"name": "TxDoesNotExist",
					"type": "error"
				},
				{
					"inputs": [],
					"name": "TxExecutionFailed",
					"type": "error"
				},
				{
					"inputs": [],
					"name": "TxNotApproved",
					"type": "error"
				},
				{
					"anonymous": false,
					"inputs": [
						{
							"indexed": false,
							"internalType": "uint256",
							"name": "txId",
							"type": "uint256"
						},
						{
							"indexed": false,
							"internalType": "address",
							"name": "approver",
							"type": "address"
						}
					],
					"name": "ApprovedTx",
					"type": "event"
				},
				{
					"anonymous": false,
					"inputs": [
						{
							"indexed": false,
							"internalType": "address",
							"name": "sender",
							"type": "address"
						},
						{
							"indexed": false,
							"internalType": "uint256",
							"name": "value",
							"type": "uint256"
						},
						{
							"indexed": false,
							"internalType": "uint256",
							"name": "balance",
							"type": "uint256"
						}
					],
					"name": "Deposit",
					"type": "event"
				},
				{
					"anonymous": false,
					"inputs": [
						{
							"indexed": false,
							"internalType": "address",
							"name": "to",
							"type": "address"
						},
						{
							"indexed": false,
							"internalType": "uint256",
							"name": "value",
							"type": "uint256"
						},
						{
							"indexed": false,
							"internalType": "bytes",
							"name": "data",
							"type": "bytes"
						}
					],
					"name": "SubmittedTx",
					"type": "event"
				},
				{
					"anonymous": false,
					"inputs": [
						{
							"indexed": false,
							"internalType": "address",
							"name": "to",
							"type": "address"
						},
						{
							"indexed": false,
							"internalType": "uint256",
							"name": "value",
							"type": "uint256"
						},
						{
							"indexed": false,
							"internalType": "bytes",
							"name": "data",
							"type": "bytes"
						},
						{
							"indexed": false,
							"internalType": "address",
							"name": "executor",
							"type": "address"
						}
					],
					"name": "TxExecuted",
					"type": "event"
				},
				{
					"inputs": [
						{
							"internalType": "uint256",
							"name": "_txId",
							"type": "uint256"
						}
					],
					"name": "approveTx",
					"outputs": [],
					"stateMutability": "nonpayable",
					"type": "function"
				},
				{
					"inputs": [
						{
							"internalType": "uint256",
							"name": "_txId",
							"type": "uint256"
						},
						{
							"internalType": "address",
							"name": "_approver",
							"type": "address"
						}
					],
					"name": "checkApproved",
					"outputs": [
						{
							"internalType": "bool",
							"name": "",
							"type": "bool"
						}
					],
					"stateMutability": "view",
					"type": "function"
				},
				{
					"inputs": [
						{
							"internalType": "address",
							"name": "_owner",
							"type": "address"
						}
					],
					"name": "checkOwner",
					"outputs": [
						{
							"internalType": "bool",
							"name": "",
							"type": "bool"
						}
					],
					"stateMutability": "view",
					"type": "function"
				},
				{
					"inputs": [
						{
							"internalType": "uint256",
							"name": "_txId",
							"type": "uint256"
						}
					],
					"name": "executeTx",
					"outputs": [],
					"stateMutability": "nonpayable",
					"type": "function"
				},
				{
					"inputs": [
						{
							"internalType": "uint256",
							"name": "_txId",
							"type": "uint256"
						}
					],
					"name": "getTransaction",
					"outputs": [
						{
							"components": [
								{
									"internalType": "uint256",
									"name": "id",
									"type": "uint256"
								},
								{
									"internalType": "address",
									"name": "to",
									"type": "address"
								},
								{
									"internalType": "uint256",
									"name": "value",
									"type": "uint256"
								},
								{
									"internalType": "bytes",
									"name": "data",
									"type": "bytes"
								},
								{
									"internalType": "uint256",
									"name": "confirmations",
									"type": "uint256"
								},
								{
									"internalType": "bool",
									"name": "executed",
									"type": "bool"
								}
							],
							"internalType": "struct MultiSigWallet.Transaction",
							"name": "",
							"type": "tuple"
						}
					],
					"stateMutability": "view",
					"type": "function"
				},
				{
					"inputs": [],
					"name": "required",
					"outputs": [
						{
							"internalType": "uint256",
							"name": "",
							"type": "uint256"
						}
					],
					"stateMutability": "view",
					"type": "function"
				},
				{
					"inputs": [
						{
							"internalType": "uint256",
							"name": "_txId",
							"type": "uint256"
						}
					],
					"name": "revokeTx",
					"outputs": [],
					"stateMutability": "nonpayable",
					"type": "function"
				},
				{
					"inputs": [
						{
							"internalType": "address",
							"name": "_to",
							"type": "address"
						},
						{
							"internalType": "uint256",
							"name": "_value",
							"type": "uint256"
						},
						{
							"internalType": "bytes",
							"name": "_data",
							"type": "bytes"
						}
					],
					"name": "submitTx",
					"outputs": [],
					"stateMutability": "nonpayable",
					"type": "function"
				},
				{
					"inputs": [],
					"name": "txId",
					"outputs": [
						{
							"internalType": "uint256",
							"name": "",
							"type": "uint256"
						}
					],
					"stateMutability": "view",
					"type": "function"
				},
				{
					"stateMutability": "payable",
					"type": "receive"
				}
			],
			"devdoc": {
				"kind": "dev",
				"methods": {},
				"version": 1
			},
			"evm": {
				"assembly": "    /* \"contracts/DeFi/MultiSigV2.sol\":58:4358  contract MultiSigWallet {... */\n  mstore(0x40, 0x80)\n    /* \"contracts/DeFi/MultiSigV2.sol\":1618:2132  constructor(address[] memory _owners, uint256 _required) {... */\n  callvalue\n  dup1\n  iszero\n  tag_1\n  jumpi\n  0x00\n  dup1\n  revert\ntag_1:\n  pop\n  mload(0x40)\n  sub(codesize, bytecodeSize)\n  dup1\n  bytecodeSize\n  dup4\n  codecopy\n  dup2\n  dup2\n  add\n  0x40\n  mstore\n  dup2\n  add\n  swap1\n  tag_2\n  swap2\n  swap1\n  tag_3\n  jump\t// in\ntag_2:\n    /* \"contracts/DeFi/MultiSigV2.sol\":1701:1708  _owners */\n  dup2\n    /* \"contracts/DeFi/MultiSigV2.sol\":1701:1715  _owners.length */\n  mload\n    /* \"contracts/DeFi/MultiSigV2.sol\":1689:1698  _required */\n  dup2\n    /* \"contracts/DeFi/MultiSigV2.sol\":1689:1715  _required > _owners.length */\n  gt\n    /* \"contracts/DeFi/MultiSigV2.sol\":1685:1769  if (_required > _owners.length) {... */\n  iszero\n  tag_6\n  jumpi\n    /* \"contracts/DeFi/MultiSigV2.sol\":1738:1758  InvalidNumRequired() */\n  mload(0x40)\n  0xaa6eac5100000000000000000000000000000000000000000000000000000000\n  dup2\n  mstore\n  0x04\n  add\n  mload(0x40)\n  dup1\n  swap2\n  sub\n  swap1\n  revert\n    /* \"contracts/DeFi/MultiSigV2.sol\":1685:1769  if (_required > _owners.length) {... */\ntag_6:\n    /* \"contracts/DeFi/MultiSigV2.sol\":1783:1792  uint256 i */\n  0x00\n    /* \"contracts/DeFi/MultiSigV2.sol\":1778:2096  for (uint256 i = 0; i < _owners.length; i++) {... */\ntag_7:\n    /* \"contracts/DeFi/MultiSigV2.sol\":1802:1809  _owners */\n  dup3\n    /* \"contracts/DeFi/MultiSigV2.sol\":1802:1816  _owners.length */\n  mload\n    /* \"contracts/DeFi/MultiSigV2.sol\":1798:1799  i */\n  dup2\n    /* \"contracts/DeFi/MultiSigV2.sol\":1798:1816  i < _owners.length */\n  lt\n    /* \"contracts/DeFi/MultiSigV2.sol\":1778:2096  for (uint256 i = 0; i < _owners.length; i++) {... */\n  iszero\n  tag_8\n  jumpi\n    /* \"contracts/DeFi/MultiSigV2.sol\":1837:1850  address owner */\n  0x00\n    /* \"contracts/DeFi/MultiSigV2.sol\":1853:1860  _owners */\n  dup4\n    /* \"contracts/DeFi/MultiSigV2.sol\":1861:1862  i */\n  dup3\n    /* \"contracts/DeFi/MultiSigV2.sol\":1853:1863  _owners[i] */\n  dup2\n  mload\n  dup2\n  lt\n  tag_10\n  jumpi\n  tag_11\n  tag_12\n  jump\t// in\ntag_11:\ntag_10:\n  0x20\n  mul\n  0x20\n  add\n  add\n  mload\n    /* \"contracts/DeFi/MultiSigV2.sol\":1837:1863  address owner = _owners[i] */\n  swap1\n  pop\n    /* \"contracts/DeFi/MultiSigV2.sol\":1899:1900  0 */\n  0x00\n    /* \"contracts/DeFi/MultiSigV2.sol\":1882:1901  owner == address(0) */\n  0xffffffffffffffffffffffffffffffffffffffff\n  and\n    /* \"contracts/DeFi/MultiSigV2.sol\":1882:1887  owner */\n  dup2\n    /* \"contracts/DeFi/MultiSigV2.sol\":1882:1901  owner == address(0) */\n  0xffffffffffffffffffffffffffffffffffffffff\n  and\n  eq\n    /* \"contracts/DeFi/MultiSigV2.sol\":1878:1964  if (owner == address(0)) {... */\n  iszero\n  tag_13\n  jumpi\n    /* \"contracts/DeFi/MultiSigV2.sol\":1928:1949  InvalidOwnerAddress() */\n  mload(0x40)\n  0xd924e5f400000000000000000000000000000000000000000000000000000000\n  dup2\n  mstore\n  0x04\n  add\n  mload(0x40)\n  dup1\n  swap2\n  sub\n  swap1\n  revert\n    /* \"contracts/DeFi/MultiSigV2.sol\":1878:1964  if (owner == address(0)) {... */\ntag_13:\n    /* \"contracts/DeFi/MultiSigV2.sol\":1981:1988  isOwner */\n  0x00\n    /* \"contracts/DeFi/MultiSigV2.sol\":1981:1995  isOwner[owner] */\n  dup1\n    /* \"contracts/DeFi/MultiSigV2.sol\":1989:1994  owner */\n  dup3\n    /* \"contracts/DeFi/MultiSigV2.sol\":1981:1995  isOwner[owner] */\n  0xffffffffffffffffffffffffffffffffffffffff\n  and\n  0xffffffffffffffffffffffffffffffffffffffff\n  and\n  dup2\n  mstore\n  0x20\n  add\n  swap1\n  dup2\n  mstore\n  0x20\n  add\n  0x00\n  keccak256\n  0x00\n  swap1\n  sload\n  swap1\n  0x0100\n  exp\n  swap1\n  div\n  0xff\n  and\n    /* \"contracts/DeFi/MultiSigV2.sol\":1977:2051  if (isOwner[owner]) {... */\n  iszero\n  tag_14\n  jumpi\n    /* \"contracts/DeFi/MultiSigV2.sol\":2022:2036  AlreadyOwner() */\n  mload(0x40)\n  0xc0159e0e00000000000000000000000000000000000000000000000000000000\n  dup2\n  mstore\n  0x04\n  add\n  mload(0x40)\n  dup1\n  swap2\n  sub\n  swap1\n  revert\n    /* \"contracts/DeFi/MultiSigV2.sol\":1977:2051  if (isOwner[owner]) {... */\ntag_14:\n    /* \"contracts/DeFi/MultiSigV2.sol\":2081:2085  true */\n  0x01\n    /* \"contracts/DeFi/MultiSigV2.sol\":2064:2071  isOwner */\n  0x00\n    /* \"contracts/DeFi/MultiSigV2.sol\":2064:2078  isOwner[owner] */\n  dup1\n    /* \"contracts/DeFi/MultiSigV2.sol\":2072:2077  owner */\n  dup4\n    /* \"contracts/DeFi/MultiSigV2.sol\":2064:2078  isOwner[owner] */\n  0xffffffffffffffffffffffffffffffffffffffff\n  and\n  0xffffffffffffffffffffffffffffffffffffffff\n  and\n  dup2\n  mstore\n  0x20\n  add\n  swap1\n  dup2\n  mstore\n  0x20\n  add\n  0x00\n  keccak256\n  0x00\n    /* \"contracts/DeFi/MultiSigV2.sol\":2064:2085  isOwner[owner] = true */\n  0x0100\n  exp\n  dup2\n  sload\n  dup2\n  0xff\n  mul\n  not\n  and\n  swap1\n  dup4\n  iszero\n  iszero\n  mul\n  or\n  swap1\n  sstore\n  pop\n    /* \"contracts/DeFi/MultiSigV2.sol\":1823:2096  {... */\n  pop\n    /* \"contracts/DeFi/MultiSigV2.sol\":1818:1821  i++ */\n  dup1\n  dup1\n  tag_15\n  swap1\n  tag_16\n  jump\t// in\ntag_15:\n  swap2\n  pop\n  pop\n    /* \"contracts/DeFi/MultiSigV2.sol\":1778:2096  for (uint256 i = 0; i < _owners.length; i++) {... */\n  jump(tag_7)\ntag_8:\n  pop\n    /* \"contracts/DeFi/MultiSigV2.sol\":2116:2125  _required */\n  dup1\n    /* \"contracts/DeFi/MultiSigV2.sol\":2105:2113  required */\n  0x03\n    /* \"contracts/DeFi/MultiSigV2.sol\":2105:2125  required = _required */\n  dup2\n  swap1\n  sstore\n  pop\n    /* \"contracts/DeFi/MultiSigV2.sol\":1618:2132  constructor(address[] memory _owners, uint256 _required) {... */\n  pop\n  pop\n    /* \"contracts/DeFi/MultiSigV2.sol\":58:4358  contract MultiSigWallet {... */\n  jump(tag_17)\n    /* \"#utility.yul\":24:768   */\ntag_19:\n    /* \"#utility.yul\":131:136   */\n  0x00\n    /* \"#utility.yul\":156:237   */\n  tag_21\n    /* \"#utility.yul\":172:236   */\n  tag_22\n    /* \"#utility.yul\":229:235   */\n  dup5\n    /* \"#utility.yul\":172:236   */\n  tag_23\n  jump\t// in\ntag_22:\n    /* \"#utility.yul\":156:237   */\n  tag_24\n  jump\t// in\ntag_21:\n    /* \"#utility.yul\":147:237   */\n  swap1\n  pop\n    /* \"#utility.yul\":257:262   */\n  dup1\n    /* \"#utility.yul\":286:292   */\n  dup4\n    /* \"#utility.yul\":279:284   */\n  dup3\n    /* \"#utility.yul\":272:293   */\n  mstore\n    /* \"#utility.yul\":320:324   */\n  0x20\n    /* \"#utility.yul\":313:318   */\n  dup3\n    /* \"#utility.yul\":309:325   */\n  add\n    /* \"#utility.yul\":302:325   */\n  swap1\n  pop\n    /* \"#utility.yul\":346:352   */\n  dup3\n    /* \"#utility.yul\":396:399   */\n  dup6\n    /* \"#utility.yul\":388:392   */\n  0x20\n    /* \"#utility.yul\":380:386   */\n  dup7\n    /* \"#utility.yul\":376:393   */\n  mul\n    /* \"#utility.yul\":371:374   */\n  dup3\n    /* \"#utility.yul\":367:394   */\n  add\n    /* \"#utility.yul\":364:400   */\n  gt\n    /* \"#utility.yul\":361:504   */\n  iszero\n  tag_25\n  jumpi\n    /* \"#utility.yul\":415:494   */\n  tag_26\n  tag_27\n  jump\t// in\ntag_26:\n    /* \"#utility.yul\":361:504   */\ntag_25:\n    /* \"#utility.yul\":528:529   */\n  0x00\n    /* \"#utility.yul\":513:762   */\ntag_28:\n    /* \"#utility.yul\":538:544   */\n  dup6\n    /* \"#utility.yul\":535:536   */\n  dup2\n    /* \"#utility.yul\":532:545   */\n  lt\n    /* \"#utility.yul\":513:762   */\n  iszero\n  tag_30\n  jumpi\n    /* \"#utility.yul\":606:609   */\n  dup2\n    /* \"#utility.yul\":635:683   */\n  tag_31\n    /* \"#utility.yul\":679:682   */\n  dup9\n    /* \"#utility.yul\":667:677   */\n  dup3\n    /* \"#utility.yul\":635:683   */\n  tag_32\n  jump\t// in\ntag_31:\n    /* \"#utility.yul\":630:633   */\n  dup5\n    /* \"#utility.yul\":623:684   */\n  mstore\n    /* \"#utility.yul\":713:717   */\n  0x20\n    /* \"#utility.yul\":708:711   */\n  dup5\n    /* \"#utility.yul\":704:718   */\n  add\n    /* \"#utility.yul\":697:718   */\n  swap4\n  pop\n    /* \"#utility.yul\":747:751   */\n  0x20\n    /* \"#utility.yul\":742:745   */\n  dup4\n    /* \"#utility.yul\":738:752   */\n  add\n    /* \"#utility.yul\":731:752   */\n  swap3\n  pop\n    /* \"#utility.yul\":573:762   */\n  pop\n    /* \"#utility.yul\":560:561   */\n  0x01\n    /* \"#utility.yul\":557:558   */\n  dup2\n    /* \"#utility.yul\":553:562   */\n  add\n    /* \"#utility.yul\":548:562   */\n  swap1\n  pop\n    /* \"#utility.yul\":513:762   */\n  jump(tag_28)\ntag_30:\n    /* \"#utility.yul\":517:531   */\n  pop\n    /* \"#utility.yul\":137:768   */\n  pop\n  pop\n    /* \"#utility.yul\":24:768   */\n  swap4\n  swap3\n  pop\n  pop\n  pop\n  jump\t// out\n    /* \"#utility.yul\":774:917   */\ntag_32:\n    /* \"#utility.yul\":831:836   */\n  0x00\n    /* \"#utility.yul\":862:868   */\n  dup2\n    /* \"#utility.yul\":856:869   */\n  mload\n    /* \"#utility.yul\":847:869   */\n  swap1\n  pop\n    /* \"#utility.yul\":878:911   */\n  tag_34\n    /* \"#utility.yul\":905:910   */\n  dup2\n    /* \"#utility.yul\":878:911   */\n  tag_35\n  jump\t// in\ntag_34:\n    /* \"#utility.yul\":774:917   */\n  swap3\n  swap2\n  pop\n  pop\n  jump\t// out\n    /* \"#utility.yul\":940:1325   */\ntag_36:\n    /* \"#utility.yul\":1022:1027   */\n  0x00\n    /* \"#utility.yul\":1071:1074   */\n  dup3\n    /* \"#utility.yul\":1064:1068   */\n  0x1f\n    /* \"#utility.yul\":1056:1062   */\n  dup4\n    /* \"#utility.yul\":1052:1069   */\n  add\n    /* \"#utility.yul\":1048:1075   */\n  slt\n    /* \"#utility.yul\":1038:1160   */\n  tag_38\n  jumpi\n    /* \"#utility.yul\":1079:1158   */\n  tag_39\n  tag_40\n  jump\t// in\ntag_39:\n    /* \"#utility.yul\":1038:1160   */\ntag_38:\n    /* \"#utility.yul\":1189:1195   */\n  dup2\n    /* \"#utility.yul\":1183:1196   */\n  mload\n    /* \"#utility.yul\":1214:1319   */\n  tag_41\n    /* \"#utility.yul\":1315:1318   */\n  dup5\n    /* \"#utility.yul\":1307:1313   */\n  dup3\n    /* \"#utility.yul\":1300:1304   */\n  0x20\n    /* \"#utility.yul\":1292:1298   */\n  dup7\n    /* \"#utility.yul\":1288:1305   */\n  add\n    /* \"#utility.yul\":1214:1319   */\n  tag_19\n  jump\t// in\ntag_41:\n    /* \"#utility.yul\":1205:1319   */\n  swap2\n  pop\n    /* \"#utility.yul\":1028:1325   */\n  pop\n    /* \"#utility.yul\":940:1325   */\n  swap3\n  swap2\n  pop\n  pop\n  jump\t// out\n    /* \"#utility.yul\":1331:1474   */\ntag_42:\n    /* \"#utility.yul\":1388:1393   */\n  0x00\n    /* \"#utility.yul\":1419:1425   */\n  dup2\n    /* \"#utility.yul\":1413:1426   */\n  mload\n    /* \"#utility.yul\":1404:1426   */\n  swap1\n  pop\n    /* \"#utility.yul\":1435:1468   */\n  tag_44\n    /* \"#utility.yul\":1462:1467   */\n  dup2\n    /* \"#utility.yul\":1435:1468   */\n  tag_45\n  jump\t// in\ntag_44:\n    /* \"#utility.yul\":1331:1474   */\n  swap3\n  swap2\n  pop\n  pop\n  jump\t// out\n    /* \"#utility.yul\":1480:2190   */\ntag_3:\n    /* \"#utility.yul\":1584:1590   */\n  0x00\n    /* \"#utility.yul\":1592:1598   */\n  dup1\n    /* \"#utility.yul\":1641:1643   */\n  0x40\n    /* \"#utility.yul\":1629:1638   */\n  dup4\n    /* \"#utility.yul\":1620:1627   */\n  dup6\n    /* \"#utility.yul\":1616:1639   */\n  sub\n    /* \"#utility.yul\":1612:1644   */\n  slt\n    /* \"#utility.yul\":1609:1728   */\n  iszero\n  tag_47\n  jumpi\n    /* \"#utility.yul\":1647:1726   */\n  tag_48\n  tag_49\n  jump\t// in\ntag_48:\n    /* \"#utility.yul\":1609:1728   */\ntag_47:\n    /* \"#utility.yul\":1788:1789   */\n  0x00\n    /* \"#utility.yul\":1777:1786   */\n  dup4\n    /* \"#utility.yul\":1773:1790   */\n  add\n    /* \"#utility.yul\":1767:1791   */\n  mload\n    /* \"#utility.yul\":1818:1836   */\n  0xffffffffffffffff\n    /* \"#utility.yul\":1810:1816   */\n  dup2\n    /* \"#utility.yul\":1807:1837   */\n  gt\n    /* \"#utility.yul\":1804:1921   */\n  iszero\n  tag_50\n  jumpi\n    /* \"#utility.yul\":1840:1919   */\n  tag_51\n  tag_52\n  jump\t// in\ntag_51:\n    /* \"#utility.yul\":1804:1921   */\ntag_50:\n    /* \"#utility.yul\":1945:2034   */\n  tag_53\n    /* \"#utility.yul\":2026:2033   */\n  dup6\n    /* \"#utility.yul\":2017:2023   */\n  dup3\n    /* \"#utility.yul\":2006:2015   */\n  dup7\n    /* \"#utility.yul\":2002:2024   */\n  add\n    /* \"#utility.yul\":1945:2034   */\n  tag_36\n  jump\t// in\ntag_53:\n    /* \"#utility.yul\":1935:2034   */\n  swap3\n  pop\n    /* \"#utility.yul\":1738:2044   */\n  pop\n    /* \"#utility.yul\":2083:2085   */\n  0x20\n    /* \"#utility.yul\":2109:2173   */\n  tag_54\n    /* \"#utility.yul\":2165:2172   */\n  dup6\n    /* \"#utility.yul\":2156:2162   */\n  dup3\n    /* \"#utility.yul\":2145:2154   */\n  dup7\n    /* \"#utility.yul\":2141:2163   */\n  add\n    /* \"#utility.yul\":2109:2173   */\n  tag_42\n  jump\t// in\ntag_54:\n    /* \"#utility.yul\":2099:2173   */\n  swap2\n  pop\n    /* \"#utility.yul\":2054:2183   */\n  pop\n    /* \"#utility.yul\":1480:2190   */\n  swap3\n  pop\n  swap3\n  swap1\n  pop\n  jump\t// out\n    /* \"#utility.yul\":2196:2325   */\ntag_24:\n    /* \"#utility.yul\":2230:2236   */\n  0x00\n    /* \"#utility.yul\":2257:2277   */\n  tag_56\n  tag_57\n  jump\t// in\ntag_56:\n    /* \"#utility.yul\":2247:2277   */\n  swap1\n  pop\n    /* \"#utility.yul\":2286:2319   */\n  tag_58\n    /* \"#utility.yul\":2314:2318   */\n  dup3\n    /* \"#utility.yul\":2306:2312   */\n  dup3\n    /* \"#utility.yul\":2286:2319   */\n  tag_59\n  jump\t// in\ntag_58:\n    /* \"#utility.yul\":2196:2325   */\n  swap2\n  swap1\n  pop\n  jump\t// out\n    /* \"#utility.yul\":2331:2406   */\ntag_57:\n    /* \"#utility.yul\":2364:2370   */\n  0x00\n    /* \"#utility.yul\":2397:2399   */\n  0x40\n    /* \"#utility.yul\":2391:2400   */\n  mload\n    /* \"#utility.yul\":2381:2400   */\n  swap1\n  pop\n    /* \"#utility.yul\":2331:2406   */\n  swap1\n  jump\t// out\n    /* \"#utility.yul\":2412:2723   */\ntag_23:\n    /* \"#utility.yul\":2489:2493   */\n  0x00\n    /* \"#utility.yul\":2579:2597   */\n  0xffffffffffffffff\n    /* \"#utility.yul\":2571:2577   */\n  dup3\n    /* \"#utility.yul\":2568:2598   */\n  gt\n    /* \"#utility.yul\":2565:2621   */\n  iszero\n  tag_62\n  jumpi\n    /* \"#utility.yul\":2601:2619   */\n  tag_63\n  tag_64\n  jump\t// in\ntag_63:\n    /* \"#utility.yul\":2565:2621   */\ntag_62:\n    /* \"#utility.yul\":2651:2655   */\n  0x20\n    /* \"#utility.yul\":2643:2649   */\n  dup3\n    /* \"#utility.yul\":2639:2656   */\n  mul\n    /* \"#utility.yul\":2631:2656   */\n  swap1\n  pop\n    /* \"#utility.yul\":2711:2715   */\n  0x20\n    /* \"#utility.yul\":2705:2709   */\n  dup2\n    /* \"#utility.yul\":2701:2716   */\n  add\n    /* \"#utility.yul\":2693:2716   */\n  swap1\n  pop\n    /* \"#utility.yul\":2412:2723   */\n  swap2\n  swap1\n  pop\n  jump\t// out\n    /* \"#utility.yul\":2729:2825   */\ntag_65:\n    /* \"#utility.yul\":2766:2773   */\n  0x00\n    /* \"#utility.yul\":2795:2819   */\n  tag_67\n    /* \"#utility.yul\":2813:2818   */\n  dup3\n    /* \"#utility.yul\":2795:2819   */\n  tag_68\n  jump\t// in\ntag_67:\n    /* \"#utility.yul\":2784:2819   */\n  swap1\n  pop\n    /* \"#utility.yul\":2729:2825   */\n  swap2\n  swap1\n  pop\n  jump\t// out\n    /* \"#utility.yul\":2831:2957   */\ntag_68:\n    /* \"#utility.yul\":2868:2875   */\n  0x00\n    /* \"#utility.yul\":2908:2950   */\n  0xffffffffffffffffffffffffffffffffffffffff\n    /* \"#utility.yul\":2901:2906   */\n  dup3\n    /* \"#utility.yul\":2897:2951   */\n  and\n    /* \"#utility.yul\":2886:2951   */\n  swap1\n  pop\n    /* \"#utility.yul\":2831:2957   */\n  swap2\n  swap1\n  pop\n  jump\t// out\n    /* \"#utility.yul\":2963:3040   */\ntag_70:\n    /* \"#utility.yul\":3000:3007   */\n  0x00\n    /* \"#utility.yul\":3029:3034   */\n  dup2\n    /* \"#utility.yul\":3018:3034   */\n  swap1\n  pop\n    /* \"#utility.yul\":2963:3040   */\n  swap2\n  swap1\n  pop\n  jump\t// out\n    /* \"#utility.yul\":3046:3327   */\ntag_59:\n    /* \"#utility.yul\":3129:3156   */\n  tag_73\n    /* \"#utility.yul\":3151:3155   */\n  dup3\n    /* \"#utility.yul\":3129:3156   */\n  tag_74\n  jump\t// in\ntag_73:\n    /* \"#utility.yul\":3121:3127   */\n  dup2\n    /* \"#utility.yul\":3117:3157   */\n  add\n    /* \"#utility.yul\":3259:3265   */\n  dup2\n    /* \"#utility.yul\":3247:3257   */\n  dup2\n    /* \"#utility.yul\":3244:3266   */\n  lt\n    /* \"#utility.yul\":3223:3241   */\n  0xffffffffffffffff\n    /* \"#utility.yul\":3211:3221   */\n  dup3\n    /* \"#utility.yul\":3208:3242   */\n  gt\n    /* \"#utility.yul\":3205:3267   */\n  or\n    /* \"#utility.yul\":3202:3290   */\n  iszero\n  tag_75\n  jumpi\n    /* \"#utility.yul\":3270:3288   */\n  tag_76\n  tag_64\n  jump\t// in\ntag_76:\n    /* \"#utility.yul\":3202:3290   */\ntag_75:\n    /* \"#utility.yul\":3310:3320   */\n  dup1\n    /* \"#utility.yul\":3306:3308   */\n  0x40\n    /* \"#utility.yul\":3299:3321   */\n  mstore\n    /* \"#utility.yul\":3089:3327   */\n  pop\n    /* \"#utility.yul\":3046:3327   */\n  pop\n  pop\n  jump\t// out\n    /* \"#utility.yul\":3333:3566   */\ntag_16:\n    /* \"#utility.yul\":3372:3375   */\n  0x00\n    /* \"#utility.yul\":3395:3419   */\n  tag_78\n    /* \"#utility.yul\":3413:3418   */\n  dup3\n    /* \"#utility.yul\":3395:3419   */\n  tag_70\n  jump\t// in\ntag_78:\n    /* \"#utility.yul\":3386:3419   */\n  swap2\n  pop\n    /* \"#utility.yul\":3441:3507   */\n  0xffffffffffffffffffffffffffffffffffffffffffffffffffffffffffffffff\n    /* \"#utility.yul\":3434:3439   */\n  dup3\n    /* \"#utility.yul\":3431:3508   */\n  eq\n    /* \"#utility.yul\":3428:3531   */\n  iszero\n  tag_79\n  jumpi\n    /* \"#utility.yul\":3511:3529   */\n  tag_80\n  tag_81\n  jump\t// in\ntag_80:\n    /* \"#utility.yul\":3428:3531   */\ntag_79:\n    /* \"#utility.yul\":3558:3559   */\n  0x01\n    /* \"#utility.yul\":3551:3556   */\n  dup3\n    /* \"#utility.yul\":3547:3560   */\n  add\n    /* \"#utility.yul\":3540:3560   */\n  swap1\n  pop\n    /* \"#utility.yul\":3333:3566   */\n  swap2\n  swap1\n  pop\n  jump\t// out\n    /* \"#utility.yul\":3572:3752   */\ntag_81:\n    /* \"#utility.yul\":3620:3697   */\n  0x4e487b7100000000000000000000000000000000000000000000000000000000\n    /* \"#utility.yul\":3617:3618   */\n  0x00\n    /* \"#utility.yul\":3610:3698   */\n  mstore\n    /* \"#utility.yul\":3717:3721   */\n  0x11\n    /* \"#utility.yul\":3714:3715   */\n  0x04\n    /* \"#utility.yul\":3707:3722   */\n  mstore\n    /* \"#utility.yul\":3741:3745   */\n  0x24\n    /* \"#utility.yul\":3738:3739   */\n  0x00\n    /* \"#utility.yul\":3731:3746   */\n  revert\n    /* \"#utility.yul\":3758:3938   */\ntag_12:\n    /* \"#utility.yul\":3806:3883   */\n  0x4e487b7100000000000000000000000000000000000000000000000000000000\n    /* \"#utility.yul\":3803:3804   */\n  0x00\n    /* \"#utility.yul\":3796:3884   */\n  mstore\n    /* \"#utility.yul\":3903:3907   */\n  0x32\n    /* \"#utility.yul\":3900:3901   */\n  0x04\n    /* \"#utility.yul\":3893:3908   */\n  mstore\n    /* \"#utility.yul\":3927:3931   */\n  0x24\n    /* \"#utility.yul\":3924:3925   */\n  0x00\n    /* \"#utility.yul\":3917:3932   */\n  revert\n    /* \"#utility.yul\":3944:4124   */\ntag_64:\n    /* \"#utility.yul\":3992:4069   */\n  0x4e487b7100000000000000000000000000000000000000000000000000000000\n    /* \"#utility.yul\":3989:3990   */\n  0x00\n    /* \"#utility.yul\":3982:4070   */\n  mstore\n    /* \"#utility.yul\":4089:4093   */\n  0x41\n    /* \"#utility.yul\":4086:4087   */\n  0x04\n    /* \"#utility.yul\":4079:4094   */\n  mstore\n    /* \"#utility.yul\":4113:4117   */\n  0x24\n    /* \"#utility.yul\":4110:4111   */\n  0x00\n    /* \"#utility.yul\":4103:4118   */\n  revert\n    /* \"#utility.yul\":4130:4247   */\ntag_40:\n    /* \"#utility.yul\":4239:4240   */\n  0x00\n    /* \"#utility.yul\":4236:4237   */\n  dup1\n    /* \"#utility.yul\":4229:4241   */\n  revert\n    /* \"#utility.yul\":4253:4370   */\ntag_27:\n    /* \"#utility.yul\":4362:4363   */\n  0x00\n    /* \"#utility.yul\":4359:4360   */\n  dup1\n    /* \"#utility.yul\":4352:4364   */\n  revert\n    /* \"#utility.yul\":4376:4493   */\ntag_52:\n    /* \"#utility.yul\":4485:4486   */\n  0x00\n    /* \"#utility.yul\":4482:4483   */\n  dup1\n    /* \"#utility.yul\":4475:4487   */\n  revert\n    /* \"#utility.yul\":4499:4616   */\ntag_49:\n    /* \"#utility.yul\":4608:4609   */\n  0x00\n    /* \"#utility.yul\":4605:4606   */\n  dup1\n    /* \"#utility.yul\":4598:4610   */\n  revert\n    /* \"#utility.yul\":4622:4724   */\ntag_74:\n    /* \"#utility.yul\":4663:4669   */\n  0x00\n    /* \"#utility.yul\":4714:4716   */\n  0x1f\n    /* \"#utility.yul\":4710:4717   */\n  not\n    /* \"#utility.yul\":4705:4707   */\n  0x1f\n    /* \"#utility.yul\":4698:4703   */\n  dup4\n    /* \"#utility.yul\":4694:4708   */\n  add\n    /* \"#utility.yul\":4690:4718   */\n  and\n    /* \"#utility.yul\":4680:4718   */\n  swap1\n  pop\n    /* \"#utility.yul\":4622:4724   */\n  swap2\n  swap1\n  pop\n  jump\t// out\n    /* \"#utility.yul\":4730:4852   */\ntag_35:\n    /* \"#utility.yul\":4803:4827   */\n  tag_91\n    /* \"#utility.yul\":4821:4826   */\n  dup2\n    /* \"#utility.yul\":4803:4827   */\n  tag_65\n  jump\t// in\ntag_91:\n    /* \"#utility.yul\":4796:4801   */\n  dup2\n    /* \"#utility.yul\":4793:4828   */\n  eq\n    /* \"#utility.yul\":4783:4846   */\n  tag_92\n  jumpi\n    /* \"#utility.yul\":4842:4843   */\n  0x00\n    /* \"#utility.yul\":4839:4840   */\n  dup1\n    /* \"#utility.yul\":4832:4844   */\n  revert\n    /* \"#utility.yul\":4783:4846   */\ntag_92:\n    /* \"#utility.yul\":4730:4852   */\n  pop\n  jump\t// out\n    /* \"#utility.yul\":4858:4980   */\ntag_45:\n    /* \"#utility.yul\":4931:4955   */\n  tag_94\n    /* \"#utility.yul\":4949:4954   */\n  dup2\n    /* \"#utility.yul\":4931:4955   */\n  tag_70\n  jump\t// in\ntag_94:\n    /* \"#utility.yul\":4924:4929   */\n  dup2\n    /* \"#utility.yul\":4921:4956   */\n  eq\n    /* \"#utility.yul\":4911:4974   */\n  tag_95\n  jumpi\n    /* \"#utility.yul\":4970:4971   */\n  0x00\n    /* \"#utility.yul\":4967:4968   */\n  dup1\n    /* \"#utility.yul\":4960:4972   */\n  revert\n    /* \"#utility.yul\":4911:4974   */\ntag_95:\n    /* \"#utility.yul\":4858:4980   */\n  pop\n  jump\t// out\n    /* \"contracts/DeFi/MultiSigV2.sol\":58:4358  contract MultiSigWallet {... */\ntag_17:\n  dataSize(sub_0)\n  dup1\n  dataOffset(sub_0)\n  0x00\n  codecopy\n  0x00\n  return\nstop\n\nsub_0: assembly {\n        /* \"contracts/DeFi/MultiSigV2.sol\":58:4358  contract MultiSigWallet {... */\n      mstore(0x40, 0x80)\n      jumpi(tag_1, lt(calldatasize, 0x04))\n      shr(0xe0, calldataload(0x00))\n      dup1\n      0x8f9487eb\n      gt\n      tag_12\n      jumpi\n      dup1\n      0x8f9487eb\n      eq\n      tag_7\n      jumpi\n      dup1\n      0xbb84c5a9\n      eq\n      tag_8\n      jumpi\n      dup1\n      0xcd568d1f\n      eq\n      tag_9\n      jumpi\n      dup1\n      0xdc8452cd\n      eq\n      tag_10\n      jumpi\n      dup1\n      0xe0e3671c\n      eq\n      tag_11\n      jumpi\n      jump(tag_2)\n    tag_12:\n      dup1\n      0x1087393a\n      eq\n      tag_3\n      jumpi\n      dup1\n      0x33ea3dc8\n      eq\n      tag_4\n      jumpi\n      dup1\n      0x54b5fe80\n      eq\n      tag_5\n      jumpi\n      dup1\n      0x5986aaca\n      eq\n      tag_6\n      jumpi\n      jump(tag_2)\n    tag_1:\n      jumpi(tag_2, calldatasize)\n        /* \"contracts/DeFi/MultiSigV2.sol\":2180:2233  Deposit(msg.sender, msg.value, address(this).balance) */\n      0x90890809c654f11d6e72a28fa60149770a0d11ec6c92319d6ceb2bb0a4ea1a15\n        /* \"contracts/DeFi/MultiSigV2.sol\":2188:2198  msg.sender */\n      caller\n        /* \"contracts/DeFi/MultiSigV2.sol\":2200:2209  msg.value */\n      callvalue\n        /* \"contracts/DeFi/MultiSigV2.sol\":2211:2232  address(this).balance */\n      selfbalance\n        /* \"contracts/DeFi/MultiSigV2.sol\":2180:2233  Deposit(msg.sender, msg.value, address(this).balance) */\n      mload(0x40)\n      tag_15\n      swap4\n      swap3\n      swap2\n      swap1\n      tag_16\n      jump\t// in\n    tag_15:\n      mload(0x40)\n      dup1\n      swap2\n      sub\n      swap1\n      log1\n        /* \"contracts/DeFi/MultiSigV2.sol\":58:4358  contract MultiSigWallet {... */\n      stop\n    tag_2:\n      0x00\n      dup1\n      revert\n        /* \"contracts/DeFi/MultiSigV2.sol\":2630:2921  function approveTx(uint256 _txId)... */\n    tag_3:\n      callvalue\n      dup1\n      iszero\n      tag_17\n      jumpi\n      0x00\n      dup1\n      revert\n    tag_17:\n      pop\n      tag_18\n      0x04\n      dup1\n      calldatasize\n      sub\n      dup2\n      add\n      swap1\n      tag_19\n      swap2\n      swap1\n      tag_20\n      jump\t// in\n    tag_19:\n      tag_21\n      jump\t// in\n    tag_18:\n      stop\n        /* \"contracts/DeFi/MultiSigV2.sol\":3963:4104  function getTransaction(uint256 _txId) external view txExists(_txId) returns (Transaction memory) {... */\n    tag_4:\n      callvalue\n      dup1\n      iszero\n      tag_22\n      jumpi\n      0x00\n      dup1\n      revert\n    tag_22:\n      pop\n      tag_23\n      0x04\n      dup1\n      calldatasize\n      sub\n      dup2\n      add\n      swap1\n      tag_24\n      swap2\n      swap1\n      tag_20\n      jump\t// in\n    tag_24:\n      tag_25\n      jump\t// in\n    tag_23:\n      mload(0x40)\n      tag_26\n      swap2\n      swap1\n      tag_27\n      jump\t// in\n    tag_26:\n      mload(0x40)\n      dup1\n      swap2\n      sub\n      swap1\n      return\n        /* \"contracts/DeFi/MultiSigV2.sol\":2927:3617  function executeTx(uint256 _txId)... */\n    tag_5:\n      callvalue\n      dup1\n      iszero\n      tag_28\n      jumpi\n      0x00\n      dup1\n      revert\n    tag_28:\n      pop\n      tag_29\n      0x04\n      dup1\n      calldatasize\n      sub\n      dup2\n      add\n      swap1\n      tag_30\n      swap2\n      swap1\n      tag_20\n      jump\t// in\n    tag_30:\n      tag_31\n      jump\t// in\n    tag_29:\n      stop\n        /* \"contracts/DeFi/MultiSigV2.sol\":3623:3957  function revokeTx(uint256 _txId)... */\n    tag_6:\n      callvalue\n      dup1\n      iszero\n      tag_32\n      jumpi\n      0x00\n      dup1\n      revert\n    tag_32:\n      pop\n      tag_33\n      0x04\n      dup1\n      calldatasize\n      sub\n      dup2\n      add\n      swap1\n      tag_34\n      swap2\n      swap1\n      tag_20\n      jump\t// in\n    tag_34:\n      tag_35\n      jump\t// in\n    tag_33:\n      stop\n        /* \"contracts/DeFi/MultiSigV2.sol\":4220:4356  function checkApproved(uint256 _txId, address _approver) external view returns (bool) {... */\n    tag_7:\n      callvalue\n      dup1\n      iszero\n      tag_36\n      jumpi\n      0x00\n      dup1\n      revert\n    tag_36:\n      pop\n      tag_37\n      0x04\n      dup1\n      calldatasize\n      sub\n      dup2\n      add\n      swap1\n      tag_38\n      swap2\n      swap1\n      tag_39\n      jump\t// in\n    tag_38:\n      tag_40\n      jump\t// in\n    tag_37:\n      mload(0x40)\n      tag_41\n      swap2\n      swap1\n      tag_42\n      jump\t// in\n    tag_41:\n      mload(0x40)\n      dup1\n      swap2\n      sub\n      swap1\n      return\n        /* \"contracts/DeFi/MultiSigV2.sol\":2246:2624  function submitTx(... */\n    tag_8:\n      callvalue\n      dup1\n      iszero\n      tag_43\n      jumpi\n      0x00\n      dup1\n      revert\n    tag_43:\n      pop\n      tag_44\n      0x04\n      dup1\n      calldatasize\n      sub\n      dup2\n      add\n      swap1\n      tag_45\n      swap2\n      swap1\n      tag_46\n      jump\t// in\n    tag_45:\n      tag_47\n      jump\t// in\n    tag_44:\n      stop\n        /* \"contracts/DeFi/MultiSigV2.sol\":722:741  uint256 public txId */\n    tag_9:\n      callvalue\n      dup1\n      iszero\n      tag_48\n      jumpi\n      0x00\n      dup1\n      revert\n    tag_48:\n      pop\n      tag_49\n      tag_50\n      jump\t// in\n    tag_49:\n      mload(0x40)\n      tag_51\n      swap2\n      swap1\n      tag_52\n      jump\t// in\n    tag_51:\n      mload(0x40)\n      dup1\n      swap2\n      sub\n      swap1\n      return\n        /* \"contracts/DeFi/MultiSigV2.sol\":693:716  uint256 public required */\n    tag_10:\n      callvalue\n      dup1\n      iszero\n      tag_53\n      jumpi\n      0x00\n      dup1\n      revert\n    tag_53:\n      pop\n      tag_54\n      tag_55\n      jump\t// in\n    tag_54:\n      mload(0x40)\n      tag_56\n      swap2\n      swap1\n      tag_52\n      jump\t// in\n    tag_56:\n      mload(0x40)\n      dup1\n      swap2\n      sub\n      swap1\n      return\n        /* \"contracts/DeFi/MultiSigV2.sol\":4110:4214  function checkOwner(address _owner) external view returns (bool) {... */\n    tag_11:\n      callvalue\n      dup1\n      iszero\n      tag_57\n      jumpi\n      0x00\n      dup1\n      revert\n    tag_57:\n      pop\n      tag_58\n      0x04\n      dup1\n      calldatasize\n      sub\n      dup2\n      add\n      swap1\n      tag_59\n      swap2\n      swap1\n      tag_60\n      jump\t// in\n    tag_59:\n      tag_61\n      jump\t// in\n    tag_58:\n      mload(0x40)\n      tag_62\n      swap2\n      swap1\n      tag_42\n      jump\t// in\n    tag_62:\n      mload(0x40)\n      dup1\n      swap2\n      sub\n      swap1\n      return\n        /* \"contracts/DeFi/MultiSigV2.sol\":2630:2921  function approveTx(uint256 _txId)... */\n    tag_21:\n        /* \"contracts/DeFi/MultiSigV2.sol\":784:791  isOwner */\n      0x00\n        /* \"contracts/DeFi/MultiSigV2.sol\":784:803  isOwner[msg.sender] */\n      dup1\n        /* \"contracts/DeFi/MultiSigV2.sol\":792:802  msg.sender */\n      caller\n        /* \"contracts/DeFi/MultiSigV2.sol\":784:803  isOwner[msg.sender] */\n      0xffffffffffffffffffffffffffffffffffffffff\n      and\n      0xffffffffffffffffffffffffffffffffffffffff\n      and\n      dup2\n      mstore\n      0x20\n      add\n      swap1\n      dup2\n      mstore\n      0x20\n      add\n      0x00\n      keccak256\n      0x00\n      swap1\n      sload\n      swap1\n      0x0100\n      exp\n      swap1\n      div\n      0xff\n      and\n        /* \"contracts/DeFi/MultiSigV2.sol\":779:847  if (!isOwner[msg.sender]) {... */\n      tag_64\n      jumpi\n        /* \"contracts/DeFi/MultiSigV2.sol\":826:836  NotOwner() */\n      mload(0x40)\n      0x30cd747100000000000000000000000000000000000000000000000000000000\n      dup2\n      mstore\n      0x04\n      add\n      mload(0x40)\n      dup1\n      swap2\n      sub\n      swap1\n      revert\n        /* \"contracts/DeFi/MultiSigV2.sol\":779:847  if (!isOwner[msg.sender]) {... */\n    tag_64:\n        /* \"contracts/DeFi/MultiSigV2.sol\":2716:2721  _txId */\n      dup1\n        /* \"contracts/DeFi/MultiSigV2.sol\":932:933  1 */\n      0x01\n        /* \"contracts/DeFi/MultiSigV2.sol\":925:929  txId */\n      sload(0x04)\n        /* \"contracts/DeFi/MultiSigV2.sol\":925:933  txId - 1 */\n      tag_66\n      swap2\n      swap1\n      tag_67\n      jump\t// in\n    tag_66:\n        /* \"contracts/DeFi/MultiSigV2.sol\":917:922  _txId */\n      dup2\n        /* \"contracts/DeFi/MultiSigV2.sol\":917:933  _txId > txId - 1 */\n      gt\n        /* \"contracts/DeFi/MultiSigV2.sol\":913:983  if (_txId > txId - 1) {... */\n      iszero\n      tag_68\n      jumpi\n        /* \"contracts/DeFi/MultiSigV2.sol\":956:972  TxDoesNotExist() */\n      mload(0x40)\n      0x9e1b596f00000000000000000000000000000000000000000000000000000000\n      dup2\n      mstore\n      0x04\n      add\n      mload(0x40)\n      dup1\n      swap2\n      sub\n      swap1\n      revert\n        /* \"contracts/DeFi/MultiSigV2.sol\":913:983  if (_txId > txId - 1) {... */\n    tag_68:\n        /* \"contracts/DeFi/MultiSigV2.sol\":2743:2748  _txId */\n      dup2\n        /* \"contracts/DeFi/MultiSigV2.sol\":1210:1218  approved */\n      0x02\n        /* \"contracts/DeFi/MultiSigV2.sol\":1210:1225  approved[_txId] */\n      0x00\n        /* \"contracts/DeFi/MultiSigV2.sol\":1219:1224  _txId */\n      dup3\n        /* \"contracts/DeFi/MultiSigV2.sol\":1210:1225  approved[_txId] */\n      dup2\n      mstore\n      0x20\n      add\n      swap1\n      dup2\n      mstore\n      0x20\n      add\n      0x00\n      keccak256\n        /* \"contracts/DeFi/MultiSigV2.sol\":1210:1237  approved[_txId][msg.sender] */\n      0x00\n        /* \"contracts/DeFi/MultiSigV2.sol\":1226:1236  msg.sender */\n      caller\n        /* \"contracts/DeFi/MultiSigV2.sol\":1210:1237  approved[_txId][msg.sender] */\n      0xffffffffffffffffffffffffffffffffffffffff\n      and\n      0xffffffffffffffffffffffffffffffffffffffff\n      and\n      dup2\n      mstore\n      0x20\n      add\n      swap1\n      dup2\n      mstore\n      0x20\n      add\n      0x00\n      keccak256\n      0x00\n      swap1\n      sload\n      swap1\n      0x0100\n      exp\n      swap1\n      div\n      0xff\n      and\n        /* \"contracts/DeFi/MultiSigV2.sol\":1206:1290  if (approved[_txId][msg.sender]) {... */\n      iszero\n      tag_70\n      jumpi\n        /* \"contracts/DeFi/MultiSigV2.sol\":1260:1279  TxAlreadyApproved() */\n      mload(0x40)\n      0x5db7ec0d00000000000000000000000000000000000000000000000000000000\n      dup2\n      mstore\n      0x04\n      add\n      mload(0x40)\n      dup1\n      swap2\n      sub\n      swap1\n      revert\n        /* \"contracts/DeFi/MultiSigV2.sol\":1206:1290  if (approved[_txId][msg.sender]) {... */\n    tag_70:\n        /* \"contracts/DeFi/MultiSigV2.sol\":2770:2775  _txId */\n      dup3\n        /* \"contracts/DeFi/MultiSigV2.sol\":1056:1068  transactions */\n      0x01\n        /* \"contracts/DeFi/MultiSigV2.sol\":1056:1075  transactions[_txId] */\n      0x00\n        /* \"contracts/DeFi/MultiSigV2.sol\":1069:1074  _txId */\n      dup3\n        /* \"contracts/DeFi/MultiSigV2.sol\":1056:1075  transactions[_txId] */\n      dup2\n      mstore\n      0x20\n      add\n      swap1\n      dup2\n      mstore\n      0x20\n      add\n      0x00\n      keccak256\n        /* \"contracts/DeFi/MultiSigV2.sol\":1056:1084  transactions[_txId].executed */\n      0x05\n      add\n      0x00\n      swap1\n      sload\n      swap1\n      0x0100\n      exp\n      swap1\n      div\n      0xff\n      and\n        /* \"contracts/DeFi/MultiSigV2.sol\":1052:1137  if (transactions[_txId].executed) {... */\n      iszero\n      tag_72\n      jumpi\n        /* \"contracts/DeFi/MultiSigV2.sol\":1107:1126  TxAlreadyExecuted() */\n      mload(0x40)\n      0x2ea945cf00000000000000000000000000000000000000000000000000000000\n      dup2\n      mstore\n      0x04\n      add\n      mload(0x40)\n      dup1\n      swap2\n      sub\n      swap1\n      revert\n        /* \"contracts/DeFi/MultiSigV2.sol\":1052:1137  if (transactions[_txId].executed) {... */\n    tag_72:\n        /* \"contracts/DeFi/MultiSigV2.sol\":2791:2803  transactions */\n      0x01\n        /* \"contracts/DeFi/MultiSigV2.sol\":2791:2810  transactions[_txId] */\n      0x00\n        /* \"contracts/DeFi/MultiSigV2.sol\":2804:2809  _txId */\n      dup6\n        /* \"contracts/DeFi/MultiSigV2.sol\":2791:2810  transactions[_txId] */\n      dup2\n      mstore\n      0x20\n      add\n      swap1\n      dup2\n      mstore\n      0x20\n      add\n      0x00\n      keccak256\n        /* \"contracts/DeFi/MultiSigV2.sol\":2791:2824  transactions[_txId].confirmations */\n      0x04\n      add\n      0x00\n        /* \"contracts/DeFi/MultiSigV2.sol\":2791:2826  transactions[_txId].confirmations++ */\n      dup2\n      sload\n      dup1\n      swap3\n      swap2\n      swap1\n      tag_74\n      swap1\n      tag_75\n      jump\t// in\n    tag_74:\n      swap2\n      swap1\n      pop\n      sstore\n      pop\n        /* \"contracts/DeFi/MultiSigV2.sol\":2866:2870  true */\n      0x01\n        /* \"contracts/DeFi/MultiSigV2.sol\":2836:2844  approved */\n      0x02\n        /* \"contracts/DeFi/MultiSigV2.sol\":2836:2851  approved[_txId] */\n      0x00\n        /* \"contracts/DeFi/MultiSigV2.sol\":2845:2850  _txId */\n      dup7\n        /* \"contracts/DeFi/MultiSigV2.sol\":2836:2851  approved[_txId] */\n      dup2\n      mstore\n      0x20\n      add\n      swap1\n      dup2\n      mstore\n      0x20\n      add\n      0x00\n      keccak256\n        /* \"contracts/DeFi/MultiSigV2.sol\":2836:2863  approved[_txId][msg.sender] */\n      0x00\n        /* \"contracts/DeFi/MultiSigV2.sol\":2852:2862  msg.sender */\n      caller\n        /* \"contracts/DeFi/MultiSigV2.sol\":2836:2863  approved[_txId][msg.sender] */\n      0xffffffffffffffffffffffffffffffffffffffff\n      and\n      0xffffffffffffffffffffffffffffffffffffffff\n      and\n      dup2\n      mstore\n      0x20\n      add\n      swap1\n      dup2\n      mstore\n      0x20\n      add\n      0x00\n      keccak256\n      0x00\n        /* \"contracts/DeFi/MultiSigV2.sol\":2836:2870  approved[_txId][msg.sender] = true */\n      0x0100\n      exp\n      dup2\n      sload\n      dup2\n      0xff\n      mul\n      not\n      and\n      swap1\n      dup4\n      iszero\n      iszero\n      mul\n      or\n      swap1\n      sstore\n      pop\n        /* \"contracts/DeFi/MultiSigV2.sol\":2885:2914  ApprovedTx(_txId, msg.sender) */\n      0xd4329d04e785ebe84c72dcd09fb9c65f1fbbda53ee15ec20e93342c7f3e2a62d\n        /* \"contracts/DeFi/MultiSigV2.sol\":2896:2901  _txId */\n      dup5\n        /* \"contracts/DeFi/MultiSigV2.sol\":2903:2913  msg.sender */\n      caller\n        /* \"contracts/DeFi/MultiSigV2.sol\":2885:2914  ApprovedTx(_txId, msg.sender) */\n      mload(0x40)\n      tag_76\n      swap3\n      swap2\n      swap1\n      tag_77\n      jump\t// in\n    tag_76:\n      mload(0x40)\n      dup1\n      swap2\n      sub\n      swap1\n      log1\n        /* \"contracts/DeFi/MultiSigV2.sol\":1299:1300  _ */\n      pop\n        /* \"contracts/DeFi/MultiSigV2.sol\":992:993  _ */\n      pop\n        /* \"contracts/DeFi/MultiSigV2.sol\":856:857  _ */\n      pop\n        /* \"contracts/DeFi/MultiSigV2.sol\":2630:2921  function approveTx(uint256 _txId)... */\n      pop\n      jump\t// out\n        /* \"contracts/DeFi/MultiSigV2.sol\":3963:4104  function getTransaction(uint256 _txId) external view txExists(_txId) returns (Transaction memory) {... */\n    tag_25:\n        /* \"contracts/DeFi/MultiSigV2.sol\":4041:4059  Transaction memory */\n      tag_78\n      tag_79\n      jump\t// in\n    tag_78:\n        /* \"contracts/DeFi/MultiSigV2.sol\":4025:4030  _txId */\n      dup2\n        /* \"contracts/DeFi/MultiSigV2.sol\":932:933  1 */\n      0x01\n        /* \"contracts/DeFi/MultiSigV2.sol\":925:929  txId */\n      sload(0x04)\n        /* \"contracts/DeFi/MultiSigV2.sol\":925:933  txId - 1 */\n      tag_81\n      swap2\n      swap1\n      tag_67\n      jump\t// in\n    tag_81:\n        /* \"contracts/DeFi/MultiSigV2.sol\":917:922  _txId */\n      dup2\n        /* \"contracts/DeFi/MultiSigV2.sol\":917:933  _txId > txId - 1 */\n      gt\n        /* \"contracts/DeFi/MultiSigV2.sol\":913:983  if (_txId > txId - 1) {... */\n      iszero\n      tag_82\n      jumpi\n        /* \"contracts/DeFi/MultiSigV2.sol\":956:972  TxDoesNotExist() */\n      mload(0x40)\n      0x9e1b596f00000000000000000000000000000000000000000000000000000000\n      dup2\n      mstore\n      0x04\n      add\n      mload(0x40)\n      dup1\n      swap2\n      sub\n      swap1\n      revert\n        /* \"contracts/DeFi/MultiSigV2.sol\":913:983  if (_txId > txId - 1) {... */\n    tag_82:\n        /* \"contracts/DeFi/MultiSigV2.sol\":4078:4090  transactions */\n      0x01\n        /* \"contracts/DeFi/MultiSigV2.sol\":4078:4097  transactions[_txId] */\n      0x00\n        /* \"contracts/DeFi/MultiSigV2.sol\":4091:4096  _txId */\n      dup5\n        /* \"contracts/DeFi/MultiSigV2.sol\":4078:4097  transactions[_txId] */\n      dup2\n      mstore\n      0x20\n      add\n      swap1\n      dup2\n      mstore\n      0x20\n      add\n      0x00\n      keccak256\n        /* \"contracts/DeFi/MultiSigV2.sol\":4071:4097  return transactions[_txId] */\n      mload(0x40)\n      dup1\n      0xc0\n      add\n      0x40\n      mstore\n      swap1\n      dup2\n      0x00\n      dup3\n      add\n      sload\n      dup2\n      mstore\n      0x20\n      add\n      0x01\n      dup3\n      add\n      0x00\n      swap1\n      sload\n      swap1\n      0x0100\n      exp\n      swap1\n      div\n      0xffffffffffffffffffffffffffffffffffffffff\n      and\n      0xffffffffffffffffffffffffffffffffffffffff\n      and\n      0xffffffffffffffffffffffffffffffffffffffff\n      and\n      dup2\n      mstore\n      0x20\n      add\n      0x02\n      dup3\n      add\n      sload\n      dup2\n      mstore\n      0x20\n      add\n      0x03\n      dup3\n      add\n      dup1\n      sload\n      tag_84\n      swap1\n      tag_85\n      jump\t// in\n    tag_84:\n      dup1\n      0x1f\n      add\n      0x20\n      dup1\n      swap2\n      div\n      mul\n      0x20\n      add\n      mload(0x40)\n      swap1\n      dup2\n      add\n      0x40\n      mstore\n      dup1\n      swap3\n      swap2\n      swap1\n      dup2\n      dup2\n      mstore\n      0x20\n      add\n      dup3\n      dup1\n      sload\n      tag_86\n      swap1\n      tag_85\n      jump\t// in\n    tag_86:\n      dup1\n      iszero\n      tag_87\n      jumpi\n      dup1\n      0x1f\n      lt\n      tag_88\n      jumpi\n      0x0100\n      dup1\n      dup4\n      sload\n      div\n      mul\n      dup4\n      mstore\n      swap2\n      0x20\n      add\n      swap2\n      jump(tag_87)\n    tag_88:\n      dup3\n      add\n      swap2\n      swap1\n      0x00\n      mstore\n      keccak256(0x00, 0x20)\n      swap1\n    tag_89:\n      dup2\n      sload\n      dup2\n      mstore\n      swap1\n      0x01\n      add\n      swap1\n      0x20\n      add\n      dup1\n      dup4\n      gt\n      tag_89\n      jumpi\n      dup3\n      swap1\n      sub\n      0x1f\n      and\n      dup3\n      add\n      swap2\n    tag_87:\n      pop\n      pop\n      pop\n      pop\n      pop\n      dup2\n      mstore\n      0x20\n      add\n      0x04\n      dup3\n      add\n      sload\n      dup2\n      mstore\n      0x20\n      add\n      0x05\n      dup3\n      add\n      0x00\n      swap1\n      sload\n      swap1\n      0x0100\n      exp\n      swap1\n      div\n      0xff\n      and\n      iszero\n      iszero\n      iszero\n      iszero\n      dup2\n      mstore\n      pop\n      pop\n      swap2\n      pop\n        /* \"contracts/DeFi/MultiSigV2.sol\":3963:4104  function getTransaction(uint256 _txId) external view txExists(_txId) returns (Transaction memory) {... */\n      pop\n      swap2\n      swap1\n      pop\n      jump\t// out\n        /* \"contracts/DeFi/MultiSigV2.sol\":2927:3617  function executeTx(uint256 _txId)... */\n    tag_31:\n        /* \"contracts/DeFi/MultiSigV2.sol\":784:791  isOwner */\n      0x00\n        /* \"contracts/DeFi/MultiSigV2.sol\":784:803  isOwner[msg.sender] */\n      dup1\n        /* \"contracts/DeFi/MultiSigV2.sol\":792:802  msg.sender */\n      caller\n        /* \"contracts/DeFi/MultiSigV2.sol\":784:803  isOwner[msg.sender] */\n      0xffffffffffffffffffffffffffffffffffffffff\n      and\n      0xffffffffffffffffffffffffffffffffffffffff\n      and\n      dup2\n      mstore\n      0x20\n      add\n      swap1\n      dup2\n      mstore\n      0x20\n      add\n      0x00\n      keccak256\n      0x00\n      swap1\n      sload\n      swap1\n      0x0100\n      exp\n      swap1\n      div\n      0xff\n      and\n        /* \"contracts/DeFi/MultiSigV2.sol\":779:847  if (!isOwner[msg.sender]) {... */\n      tag_91\n      jumpi\n        /* \"contracts/DeFi/MultiSigV2.sol\":826:836  NotOwner() */\n      mload(0x40)\n      0x30cd747100000000000000000000000000000000000000000000000000000000\n      dup2\n      mstore\n      0x04\n      add\n      mload(0x40)\n      dup1\n      swap2\n      sub\n      swap1\n      revert\n        /* \"contracts/DeFi/MultiSigV2.sol\":779:847  if (!isOwner[msg.sender]) {... */\n    tag_91:\n        /* \"contracts/DeFi/MultiSigV2.sol\":3013:3018  _txId */\n      dup1\n        /* \"contracts/DeFi/MultiSigV2.sol\":932:933  1 */\n      0x01\n        /* \"contracts/DeFi/MultiSigV2.sol\":925:929  txId */\n      sload(0x04)\n        /* \"contracts/DeFi/MultiSigV2.sol\":925:933  txId - 1 */\n      tag_93\n      swap2\n      swap1\n      tag_67\n      jump\t// in\n    tag_93:\n        /* \"contracts/DeFi/MultiSigV2.sol\":917:922  _txId */\n      dup2\n        /* \"contracts/DeFi/MultiSigV2.sol\":917:933  _txId > txId - 1 */\n      gt\n        /* \"contracts/DeFi/MultiSigV2.sol\":913:983  if (_txId > txId - 1) {... */\n      iszero\n      tag_94\n      jumpi\n        /* \"contracts/DeFi/MultiSigV2.sol\":956:972  TxDoesNotExist() */\n      mload(0x40)\n      0x9e1b596f00000000000000000000000000000000000000000000000000000000\n      dup2\n      mstore\n      0x04\n      add\n      mload(0x40)\n      dup1\n      swap2\n      sub\n      swap1\n      revert\n        /* \"contracts/DeFi/MultiSigV2.sol\":913:983  if (_txId > txId - 1) {... */\n    tag_94:\n        /* \"contracts/DeFi/MultiSigV2.sol\":3040:3045  _txId */\n      dup2\n        /* \"contracts/DeFi/MultiSigV2.sol\":1056:1068  transactions */\n      0x01\n        /* \"contracts/DeFi/MultiSigV2.sol\":1056:1075  transactions[_txId] */\n      0x00\n        /* \"contracts/DeFi/MultiSigV2.sol\":1069:1074  _txId */\n      dup3\n        /* \"contracts/DeFi/MultiSigV2.sol\":1056:1075  transactions[_txId] */\n      dup2\n      mstore\n      0x20\n      add\n      swap1\n      dup2\n      mstore\n      0x20\n      add\n      0x00\n      keccak256\n        /* \"contracts/DeFi/MultiSigV2.sol\":1056:1084  transactions[_txId].executed */\n      0x05\n      add\n      0x00\n      swap1\n      sload\n      swap1\n      0x0100\n      exp\n      swap1\n      div\n      0xff\n      and\n        /* \"contracts/DeFi/MultiSigV2.sol\":1052:1137  if (transactions[_txId].executed) {... */\n      iszero\n      tag_96\n      jumpi\n        /* \"contracts/DeFi/MultiSigV2.sol\":1107:1126  TxAlreadyExecuted() */\n      mload(0x40)\n      0x2ea945cf00000000000000000000000000000000000000000000000000000000\n      dup2\n      mstore\n      0x04\n      add\n      mload(0x40)\n      dup1\n      swap2\n      sub\n      swap1\n      revert\n        /* \"contracts/DeFi/MultiSigV2.sol\":1052:1137  if (transactions[_txId].executed) {... */\n    tag_96:\n        /* \"contracts/DeFi/MultiSigV2.sol\":3061:3092  Transaction storage transaction */\n      0x00\n        /* \"contracts/DeFi/MultiSigV2.sol\":3095:3107  transactions */\n      0x01\n        /* \"contracts/DeFi/MultiSigV2.sol\":3095:3114  transactions[_txId] */\n      0x00\n        /* \"contracts/DeFi/MultiSigV2.sol\":3108:3113  _txId */\n      dup6\n        /* \"contracts/DeFi/MultiSigV2.sol\":3095:3114  transactions[_txId] */\n      dup2\n      mstore\n      0x20\n      add\n      swap1\n      dup2\n      mstore\n      0x20\n      add\n      0x00\n      keccak256\n        /* \"contracts/DeFi/MultiSigV2.sol\":3061:3114  Transaction storage transaction = transactions[_txId] */\n      swap1\n      pop\n        /* \"contracts/DeFi/MultiSigV2.sol\":3156:3164  required */\n      sload(0x03)\n        /* \"contracts/DeFi/MultiSigV2.sol\":3128:3139  transaction */\n      dup2\n        /* \"contracts/DeFi/MultiSigV2.sol\":3128:3153  transaction.confirmations */\n      0x04\n      add\n      sload\n        /* \"contracts/DeFi/MultiSigV2.sol\":3128:3164  transaction.confirmations < required */\n      lt\n        /* \"contracts/DeFi/MultiSigV2.sol\":3124:3229  if (transaction.confirmations < required) {... */\n      iszero\n      tag_98\n      jumpi\n        /* \"contracts/DeFi/MultiSigV2.sol\":3187:3218  LessConfirmationsThanRequired() */\n      mload(0x40)\n      0x9dd63cb700000000000000000000000000000000000000000000000000000000\n      dup2\n      mstore\n      0x04\n      add\n      mload(0x40)\n      dup1\n      swap2\n      sub\n      swap1\n      revert\n        /* \"contracts/DeFi/MultiSigV2.sol\":3124:3229  if (transaction.confirmations < required) {... */\n    tag_98:\n        /* \"contracts/DeFi/MultiSigV2.sol\":3261:3265  true */\n      0x01\n        /* \"contracts/DeFi/MultiSigV2.sol\":3238:3249  transaction */\n      dup2\n        /* \"contracts/DeFi/MultiSigV2.sol\":3238:3258  transaction.executed */\n      0x05\n      add\n      0x00\n        /* \"contracts/DeFi/MultiSigV2.sol\":3238:3265  transaction.executed = true */\n      0x0100\n      exp\n      dup2\n      sload\n      dup2\n      0xff\n      mul\n      not\n      and\n      swap1\n      dup4\n      iszero\n      iszero\n      mul\n      or\n      swap1\n      sstore\n      pop\n        /* \"contracts/DeFi/MultiSigV2.sol\":3276:3288  bool success */\n      0x00\n        /* \"contracts/DeFi/MultiSigV2.sol\":3302:3313  transaction */\n      dup2\n        /* \"contracts/DeFi/MultiSigV2.sol\":3302:3316  transaction.to */\n      0x01\n      add\n      0x00\n      swap1\n      sload\n      swap1\n      0x0100\n      exp\n      swap1\n      div\n      0xffffffffffffffffffffffffffffffffffffffff\n      and\n        /* \"contracts/DeFi/MultiSigV2.sol\":3294:3322  payable(transaction.to).call */\n      0xffffffffffffffffffffffffffffffffffffffff\n      and\n        /* \"contracts/DeFi/MultiSigV2.sol\":3343:3354  transaction */\n      dup3\n        /* \"contracts/DeFi/MultiSigV2.sol\":3343:3360  transaction.value */\n      0x02\n      add\n      sload\n        /* \"contracts/DeFi/MultiSigV2.sol\":3371:3382  transaction */\n      dup4\n        /* \"contracts/DeFi/MultiSigV2.sol\":3371:3387  transaction.data */\n      0x03\n      add\n        /* \"contracts/DeFi/MultiSigV2.sol\":3294:3388  payable(transaction.to).call{... */\n      mload(0x40)\n      tag_99\n      swap2\n      swap1\n      tag_100\n      jump\t// in\n    tag_99:\n      0x00\n      mload(0x40)\n      dup1\n      dup4\n      sub\n      dup2\n      dup6\n      dup8\n      gas\n      call\n      swap3\n      pop\n      pop\n      pop\n      returndatasize\n      dup1\n      0x00\n      dup2\n      eq\n      tag_103\n      jumpi\n      mload(0x40)\n      swap2\n      pop\n      and(add(returndatasize, 0x3f), not(0x1f))\n      dup3\n      add\n      0x40\n      mstore\n      returndatasize\n      dup3\n      mstore\n      returndatasize\n      0x00\n      0x20\n      dup5\n      add\n      returndatacopy\n      jump(tag_102)\n    tag_103:\n      0x60\n      swap2\n      pop\n    tag_102:\n      pop\n        /* \"contracts/DeFi/MultiSigV2.sol\":3275:3388  (bool success, ) = payable(transaction.to).call{... */\n      pop\n      swap1\n      pop\n        /* \"contracts/DeFi/MultiSigV2.sol\":3403:3410  success */\n      dup1\n        /* \"contracts/DeFi/MultiSigV2.sol\":3398:3463  if (!success) {... */\n      tag_104\n      jumpi\n        /* \"contracts/DeFi/MultiSigV2.sol\":3433:3452  TxExecutionFailed() */\n      mload(0x40)\n      0xcb2f2a1c00000000000000000000000000000000000000000000000000000000\n      dup2\n      mstore\n      0x04\n      add\n      mload(0x40)\n      dup1\n      swap2\n      sub\n      swap1\n      revert\n        /* \"contracts/DeFi/MultiSigV2.sol\":3398:3463  if (!success) {... */\n    tag_104:\n        /* \"contracts/DeFi/MultiSigV2.sol\":3477:3610  TxExecuted(... */\n      0xb91792dfbec9d14f14efe0fd0328fe544073cd1befa73f98441bce708e643179\n        /* \"contracts/DeFi/MultiSigV2.sol\":3501:3512  transaction */\n      dup3\n        /* \"contracts/DeFi/MultiSigV2.sol\":3501:3515  transaction.to */\n      0x01\n      add\n      0x00\n      swap1\n      sload\n      swap1\n      0x0100\n      exp\n      swap1\n      div\n      0xffffffffffffffffffffffffffffffffffffffff\n      and\n        /* \"contracts/DeFi/MultiSigV2.sol\":3529:3540  transaction */\n      dup4\n        /* \"contracts/DeFi/MultiSigV2.sol\":3529:3546  transaction.value */\n      0x02\n      add\n      sload\n        /* \"contracts/DeFi/MultiSigV2.sol\":3560:3571  transaction */\n      dup5\n        /* \"contracts/DeFi/MultiSigV2.sol\":3560:3576  transaction.data */\n      0x03\n      add\n        /* \"contracts/DeFi/MultiSigV2.sol\":3590:3600  msg.sender */\n      caller\n        /* \"contracts/DeFi/MultiSigV2.sol\":3477:3610  TxExecuted(... */\n      mload(0x40)\n      tag_105\n      swap5\n      swap4\n      swap3\n      swap2\n      swap1\n      tag_106\n      jump\t// in\n    tag_105:\n      mload(0x40)\n      dup1\n      swap2\n      sub\n      swap1\n      log1\n        /* \"contracts/DeFi/MultiSigV2.sol\":3051:3617  {... */\n      pop\n      pop\n        /* \"contracts/DeFi/MultiSigV2.sol\":992:993  _ */\n      pop\n        /* \"contracts/DeFi/MultiSigV2.sol\":856:857  _ */\n      pop\n        /* \"contracts/DeFi/MultiSigV2.sol\":2927:3617  function executeTx(uint256 _txId)... */\n      pop\n      jump\t// out\n        /* \"contracts/DeFi/MultiSigV2.sol\":3623:3957  function revokeTx(uint256 _txId)... */\n    tag_35:\n        /* \"contracts/DeFi/MultiSigV2.sol\":784:791  isOwner */\n      0x00\n        /* \"contracts/DeFi/MultiSigV2.sol\":784:803  isOwner[msg.sender] */\n      dup1\n        /* \"contracts/DeFi/MultiSigV2.sol\":792:802  msg.sender */\n      caller\n        /* \"contracts/DeFi/MultiSigV2.sol\":784:803  isOwner[msg.sender] */\n      0xffffffffffffffffffffffffffffffffffffffff\n      and\n      0xffffffffffffffffffffffffffffffffffffffff\n      and\n      dup2\n      mstore\n      0x20\n      add\n      swap1\n      dup2\n      mstore\n      0x20\n      add\n      0x00\n      keccak256\n      0x00\n      swap1\n      sload\n      swap1\n      0x0100\n      exp\n      swap1\n      div\n      0xff\n      and\n        /* \"contracts/DeFi/MultiSigV2.sol\":779:847  if (!isOwner[msg.sender]) {... */\n      tag_108\n      jumpi\n        /* \"contracts/DeFi/MultiSigV2.sol\":826:836  NotOwner() */\n      mload(0x40)\n      0x30cd747100000000000000000000000000000000000000000000000000000000\n      dup2\n      mstore\n      0x04\n      add\n      mload(0x40)\n      dup1\n      swap2\n      sub\n      swap1\n      revert\n        /* \"contracts/DeFi/MultiSigV2.sol\":779:847  if (!isOwner[msg.sender]) {... */\n    tag_108:\n        /* \"contracts/DeFi/MultiSigV2.sol\":3708:3713  _txId */\n      dup1\n        /* \"contracts/DeFi/MultiSigV2.sol\":932:933  1 */\n      0x01\n        /* \"contracts/DeFi/MultiSigV2.sol\":925:929  txId */\n      sload(0x04)\n        /* \"contracts/DeFi/MultiSigV2.sol\":925:933  txId - 1 */\n      tag_110\n      swap2\n      swap1\n      tag_67\n      jump\t// in\n    tag_110:\n        /* \"contracts/DeFi/MultiSigV2.sol\":917:922  _txId */\n      dup2\n        /* \"contracts/DeFi/MultiSigV2.sol\":917:933  _txId > txId - 1 */\n      gt\n        /* \"contracts/DeFi/MultiSigV2.sol\":913:983  if (_txId > txId - 1) {... */\n      iszero\n      tag_111\n      jumpi\n        /* \"contracts/DeFi/MultiSigV2.sol\":956:972  TxDoesNotExist() */\n      mload(0x40)\n      0x9e1b596f00000000000000000000000000000000000000000000000000000000\n      dup2\n      mstore\n      0x04\n      add\n      mload(0x40)\n      dup1\n      swap2\n      sub\n      swap1\n      revert\n        /* \"contracts/DeFi/MultiSigV2.sol\":913:983  if (_txId > txId - 1) {... */\n    tag_111:\n        /* \"contracts/DeFi/MultiSigV2.sol\":3735:3740  _txId */\n      dup2\n        /* \"contracts/DeFi/MultiSigV2.sol\":1056:1068  transactions */\n      0x01\n        /* \"contracts/DeFi/MultiSigV2.sol\":1056:1075  transactions[_txId] */\n      0x00\n        /* \"contracts/DeFi/MultiSigV2.sol\":1069:1074  _txId */\n      dup3\n        /* \"contracts/DeFi/MultiSigV2.sol\":1056:1075  transactions[_txId] */\n      dup2\n      mstore\n      0x20\n      add\n      swap1\n      dup2\n      mstore\n      0x20\n      add\n      0x00\n      keccak256\n        /* \"contracts/DeFi/MultiSigV2.sol\":1056:1084  transactions[_txId].executed */\n      0x05\n      add\n      0x00\n      swap1\n      sload\n      swap1\n      0x0100\n      exp\n      swap1\n      div\n      0xff\n      and\n        /* \"contracts/DeFi/MultiSigV2.sol\":1052:1137  if (transactions[_txId].executed) {... */\n      iszero\n      tag_113\n      jumpi\n        /* \"contracts/DeFi/MultiSigV2.sol\":1107:1126  TxAlreadyExecuted() */\n      mload(0x40)\n      0x2ea945cf00000000000000000000000000000000000000000000000000000000\n      dup2\n      mstore\n      0x04\n      add\n      mload(0x40)\n      dup1\n      swap2\n      sub\n      swap1\n      revert\n        /* \"contracts/DeFi/MultiSigV2.sol\":1052:1137  if (transactions[_txId].executed) {... */\n    tag_113:\n        /* \"contracts/DeFi/MultiSigV2.sol\":3760:3768  approved */\n      0x02\n        /* \"contracts/DeFi/MultiSigV2.sol\":3760:3775  approved[_txId] */\n      0x00\n        /* \"contracts/DeFi/MultiSigV2.sol\":3769:3774  _txId */\n      dup5\n        /* \"contracts/DeFi/MultiSigV2.sol\":3760:3775  approved[_txId] */\n      dup2\n      mstore\n      0x20\n      add\n      swap1\n      dup2\n      mstore\n      0x20\n      add\n      0x00\n      keccak256\n        /* \"contracts/DeFi/MultiSigV2.sol\":3760:3787  approved[_txId][msg.sender] */\n      0x00\n        /* \"contracts/DeFi/MultiSigV2.sol\":3776:3786  msg.sender */\n      caller\n        /* \"contracts/DeFi/MultiSigV2.sol\":3760:3787  approved[_txId][msg.sender] */\n      0xffffffffffffffffffffffffffffffffffffffff\n      and\n      0xffffffffffffffffffffffffffffffffffffffff\n      and\n      dup2\n      mstore\n      0x20\n      add\n      swap1\n      dup2\n      mstore\n      0x20\n      add\n      0x00\n      keccak256\n      0x00\n      swap1\n      sload\n      swap1\n      0x0100\n      exp\n      swap1\n      div\n      0xff\n      and\n        /* \"contracts/DeFi/MultiSigV2.sol\":3756:3951  if (approved[_txId][msg.sender]) {... */\n      iszero\n      tag_115\n      jumpi\n        /* \"contracts/DeFi/MultiSigV2.sol\":3803:3815  transactions */\n      0x01\n        /* \"contracts/DeFi/MultiSigV2.sol\":3803:3822  transactions[_txId] */\n      0x00\n        /* \"contracts/DeFi/MultiSigV2.sol\":3816:3821  _txId */\n      dup5\n        /* \"contracts/DeFi/MultiSigV2.sol\":3803:3822  transactions[_txId] */\n      dup2\n      mstore\n      0x20\n      add\n      swap1\n      dup2\n      mstore\n      0x20\n      add\n      0x00\n      keccak256\n        /* \"contracts/DeFi/MultiSigV2.sol\":3803:3836  transactions[_txId].confirmations */\n      0x04\n      add\n      0x00\n        /* \"contracts/DeFi/MultiSigV2.sol\":3803:3838  transactions[_txId].confirmations-- */\n      dup2\n      sload\n      dup1\n      swap3\n      swap2\n      swap1\n      tag_116\n      swap1\n      tag_117\n      jump\t// in\n    tag_116:\n      swap2\n      swap1\n      pop\n      sstore\n      pop\n        /* \"contracts/DeFi/MultiSigV2.sol\":3882:3887  false */\n      0x00\n        /* \"contracts/DeFi/MultiSigV2.sol\":3852:3860  approved */\n      0x02\n        /* \"contracts/DeFi/MultiSigV2.sol\":3852:3867  approved[_txId] */\n      0x00\n        /* \"contracts/DeFi/MultiSigV2.sol\":3861:3866  _txId */\n      dup6\n        /* \"contracts/DeFi/MultiSigV2.sol\":3852:3867  approved[_txId] */\n      dup2\n      mstore\n      0x20\n      add\n      swap1\n      dup2\n      mstore\n      0x20\n      add\n      0x00\n      keccak256\n        /* \"contracts/DeFi/MultiSigV2.sol\":3852:3879  approved[_txId][msg.sender] */\n      0x00\n        /* \"contracts/DeFi/MultiSigV2.sol\":3868:3878  msg.sender */\n      caller\n        /* \"contracts/DeFi/MultiSigV2.sol\":3852:3879  approved[_txId][msg.sender] */\n      0xffffffffffffffffffffffffffffffffffffffff\n      and\n      0xffffffffffffffffffffffffffffffffffffffff\n      and\n      dup2\n      mstore\n      0x20\n      add\n      swap1\n      dup2\n      mstore\n      0x20\n      add\n      0x00\n      keccak256\n      0x00\n        /* \"contracts/DeFi/MultiSigV2.sol\":3852:3887  approved[_txId][msg.sender] = false */\n      0x0100\n      exp\n      dup2\n      sload\n      dup2\n      0xff\n      mul\n      not\n      and\n      swap1\n      dup4\n      iszero\n      iszero\n      mul\n      or\n      swap1\n      sstore\n      pop\n        /* \"contracts/DeFi/MultiSigV2.sol\":3756:3951  if (approved[_txId][msg.sender]) {... */\n      jump(tag_118)\n    tag_115:\n        /* \"contracts/DeFi/MultiSigV2.sol\":3925:3940  TxNotApproved() */\n      mload(0x40)\n      0xfafe52bf00000000000000000000000000000000000000000000000000000000\n      dup2\n      mstore\n      0x04\n      add\n      mload(0x40)\n      dup1\n      swap2\n      sub\n      swap1\n      revert\n        /* \"contracts/DeFi/MultiSigV2.sol\":3756:3951  if (approved[_txId][msg.sender]) {... */\n    tag_118:\n        /* \"contracts/DeFi/MultiSigV2.sol\":992:993  _ */\n      pop\n        /* \"contracts/DeFi/MultiSigV2.sol\":856:857  _ */\n      pop\n        /* \"contracts/DeFi/MultiSigV2.sol\":3623:3957  function revokeTx(uint256 _txId)... */\n      pop\n      jump\t// out\n        /* \"contracts/DeFi/MultiSigV2.sol\":4220:4356  function checkApproved(uint256 _txId, address _approver) external view returns (bool) {... */\n    tag_40:\n        /* \"contracts/DeFi/MultiSigV2.sol\":4300:4304  bool */\n      0x00\n        /* \"contracts/DeFi/MultiSigV2.sol\":4323:4331  approved */\n      0x02\n        /* \"contracts/DeFi/MultiSigV2.sol\":4323:4338  approved[_txId] */\n      0x00\n        /* \"contracts/DeFi/MultiSigV2.sol\":4332:4337  _txId */\n      dup5\n        /* \"contracts/DeFi/MultiSigV2.sol\":4323:4338  approved[_txId] */\n      dup2\n      mstore\n      0x20\n      add\n      swap1\n      dup2\n      mstore\n      0x20\n      add\n      0x00\n      keccak256\n        /* \"contracts/DeFi/MultiSigV2.sol\":4323:4349  approved[_txId][_approver] */\n      0x00\n        /* \"contracts/DeFi/MultiSigV2.sol\":4339:4348  _approver */\n      dup4\n        /* \"contracts/DeFi/MultiSigV2.sol\":4323:4349  approved[_txId][_approver] */\n      0xffffffffffffffffffffffffffffffffffffffff\n      and\n      0xffffffffffffffffffffffffffffffffffffffff\n      and\n      dup2\n      mstore\n      0x20\n      add\n      swap1\n      dup2\n      mstore\n      0x20\n      add\n      0x00\n      keccak256\n      0x00\n      swap1\n      sload\n      swap1\n      0x0100\n      exp\n      swap1\n      div\n      0xff\n      and\n        /* \"contracts/DeFi/MultiSigV2.sol\":4316:4349  return approved[_txId][_approver] */\n      swap1\n      pop\n        /* \"contracts/DeFi/MultiSigV2.sol\":4220:4356  function checkApproved(uint256 _txId, address _approver) external view returns (bool) {... */\n      swap3\n      swap2\n      pop\n      pop\n      jump\t// out\n        /* \"contracts/DeFi/MultiSigV2.sol\":2246:2624  function submitTx(... */\n    tag_47:\n        /* \"contracts/DeFi/MultiSigV2.sol\":784:791  isOwner */\n      0x00\n        /* \"contracts/DeFi/MultiSigV2.sol\":784:803  isOwner[msg.sender] */\n      dup1\n        /* \"contracts/DeFi/MultiSigV2.sol\":792:802  msg.sender */\n      caller\n        /* \"contracts/DeFi/MultiSigV2.sol\":784:803  isOwner[msg.sender] */\n      0xffffffffffffffffffffffffffffffffffffffff\n      and\n      0xffffffffffffffffffffffffffffffffffffffff\n      and\n      dup2\n      mstore\n      0x20\n      add\n      swap1\n      dup2\n      mstore\n      0x20\n      add\n      0x00\n      keccak256\n      0x00\n      swap1\n      sload\n      swap1\n      0x0100\n      exp\n      swap1\n      div\n      0xff\n      and\n        /* \"contracts/DeFi/MultiSigV2.sol\":779:847  if (!isOwner[msg.sender]) {... */\n      tag_121\n      jumpi\n        /* \"contracts/DeFi/MultiSigV2.sol\":826:836  NotOwner() */\n      mload(0x40)\n      0x30cd747100000000000000000000000000000000000000000000000000000000\n      dup2\n      mstore\n      0x04\n      add\n      mload(0x40)\n      dup1\n      swap2\n      sub\n      swap1\n      revert\n        /* \"contracts/DeFi/MultiSigV2.sol\":779:847  if (!isOwner[msg.sender]) {... */\n    tag_121:\n        /* \"contracts/DeFi/MultiSigV2.sol\":2372:2403  Transaction storage transaction */\n      0x00\n        /* \"contracts/DeFi/MultiSigV2.sol\":2406:2418  transactions */\n      0x01\n        /* \"contracts/DeFi/MultiSigV2.sol\":2406:2424  transactions[txId] */\n      0x00\n        /* \"contracts/DeFi/MultiSigV2.sol\":2419:2423  txId */\n      sload(0x04)\n        /* \"contracts/DeFi/MultiSigV2.sol\":2406:2424  transactions[txId] */\n      dup2\n      mstore\n      0x20\n      add\n      swap1\n      dup2\n      mstore\n      0x20\n      add\n      0x00\n      keccak256\n        /* \"contracts/DeFi/MultiSigV2.sol\":2372:2424  Transaction storage transaction = transactions[txId] */\n      swap1\n      pop\n        /* \"contracts/DeFi/MultiSigV2.sol\":2451:2455  txId */\n      sload(0x04)\n        /* \"contracts/DeFi/MultiSigV2.sol\":2434:2445  transaction */\n      dup2\n        /* \"contracts/DeFi/MultiSigV2.sol\":2434:2448  transaction.id */\n      0x00\n      add\n        /* \"contracts/DeFi/MultiSigV2.sol\":2434:2455  transaction.id = txId */\n      dup2\n      swap1\n      sstore\n      pop\n        /* \"contracts/DeFi/MultiSigV2.sol\":2482:2485  _to */\n      dup4\n        /* \"contracts/DeFi/MultiSigV2.sol\":2465:2476  transaction */\n      dup2\n        /* \"contracts/DeFi/MultiSigV2.sol\":2465:2479  transaction.to */\n      0x01\n      add\n      0x00\n        /* \"contracts/DeFi/MultiSigV2.sol\":2465:2485  transaction.to = _to */\n      0x0100\n      exp\n      dup2\n      sload\n      dup2\n      0xffffffffffffffffffffffffffffffffffffffff\n      mul\n      not\n      and\n      swap1\n      dup4\n      0xffffffffffffffffffffffffffffffffffffffff\n      and\n      mul\n      or\n      swap1\n      sstore\n      pop\n        /* \"contracts/DeFi/MultiSigV2.sol\":2515:2521  _value */\n      dup3\n        /* \"contracts/DeFi/MultiSigV2.sol\":2495:2506  transaction */\n      dup2\n        /* \"contracts/DeFi/MultiSigV2.sol\":2495:2512  transaction.value */\n      0x02\n      add\n        /* \"contracts/DeFi/MultiSigV2.sol\":2495:2521  transaction.value = _value */\n      dup2\n      swap1\n      sstore\n      pop\n        /* \"contracts/DeFi/MultiSigV2.sol\":2550:2555  _data */\n      dup2\n        /* \"contracts/DeFi/MultiSigV2.sol\":2531:2542  transaction */\n      dup2\n        /* \"contracts/DeFi/MultiSigV2.sol\":2531:2547  transaction.data */\n      0x03\n      add\n        /* \"contracts/DeFi/MultiSigV2.sol\":2531:2555  transaction.data = _data */\n      swap1\n      dup1\n      mload\n      swap1\n      0x20\n      add\n      swap1\n      tag_123\n      swap3\n      swap2\n      swap1\n      tag_124\n      jump\t// in\n    tag_123:\n      pop\n        /* \"contracts/DeFi/MultiSigV2.sol\":2565:2569  txId */\n      0x04\n      0x00\n        /* \"contracts/DeFi/MultiSigV2.sol\":2565:2571  txId++ */\n      dup2\n      sload\n      dup1\n      swap3\n      swap2\n      swap1\n      tag_125\n      swap1\n      tag_75\n      jump\t// in\n    tag_125:\n      swap2\n      swap1\n      pop\n      sstore\n      pop\n        /* \"contracts/DeFi/MultiSigV2.sol\":2586:2617  SubmittedTx(_to, _value, _data) */\n      0x315d8bf6c6d36a1411ee3d8d607b26df37940936bd273e006857a296fbac2ce8\n        /* \"contracts/DeFi/MultiSigV2.sol\":2598:2601  _to */\n      dup5\n        /* \"contracts/DeFi/MultiSigV2.sol\":2603:2609  _value */\n      dup5\n        /* \"contracts/DeFi/MultiSigV2.sol\":2611:2616  _data */\n      dup5\n        /* \"contracts/DeFi/MultiSigV2.sol\":2586:2617  SubmittedTx(_to, _value, _data) */\n      mload(0x40)\n      tag_126\n      swap4\n      swap3\n      swap2\n      swap1\n      tag_127\n      jump\t// in\n    tag_126:\n      mload(0x40)\n      dup1\n      swap2\n      sub\n      swap1\n      log1\n        /* \"contracts/DeFi/MultiSigV2.sol\":2362:2624  {... */\n      pop\n        /* \"contracts/DeFi/MultiSigV2.sol\":2246:2624  function submitTx(... */\n      pop\n      pop\n      pop\n      jump\t// out\n        /* \"contracts/DeFi/MultiSigV2.sol\":722:741  uint256 public txId */\n    tag_50:\n      sload(0x04)\n      dup2\n      jump\t// out\n        /* \"contracts/DeFi/MultiSigV2.sol\":693:716  uint256 public required */\n    tag_55:\n      sload(0x03)\n      dup2\n      jump\t// out\n        /* \"contracts/DeFi/MultiSigV2.sol\":4110:4214  function checkOwner(address _owner) external view returns (bool) {... */\n    tag_61:\n        /* \"contracts/DeFi/MultiSigV2.sol\":4169:4173  bool */\n      0x00\n        /* \"contracts/DeFi/MultiSigV2.sol\":4192:4199  isOwner */\n      dup1\n        /* \"contracts/DeFi/MultiSigV2.sol\":4192:4207  isOwner[_owner] */\n      0x00\n        /* \"contracts/DeFi/MultiSigV2.sol\":4200:4206  _owner */\n      dup4\n        /* \"contracts/DeFi/MultiSigV2.sol\":4192:4207  isOwner[_owner] */\n      0xffffffffffffffffffffffffffffffffffffffff\n      and\n      0xffffffffffffffffffffffffffffffffffffffff\n      and\n      dup2\n      mstore\n      0x20\n      add\n      swap1\n      dup2\n      mstore\n      0x20\n      add\n      0x00\n      keccak256\n      0x00\n      swap1\n      sload\n      swap1\n      0x0100\n      exp\n      swap1\n      div\n      0xff\n      and\n        /* \"contracts/DeFi/MultiSigV2.sol\":4185:4207  return isOwner[_owner] */\n      swap1\n      pop\n        /* \"contracts/DeFi/MultiSigV2.sol\":4110:4214  function checkOwner(address _owner) external view returns (bool) {... */\n      swap2\n      swap1\n      pop\n      jump\t// out\n    tag_79:\n      mload(0x40)\n      dup1\n      0xc0\n      add\n      0x40\n      mstore\n      dup1\n      0x00\n      dup2\n      mstore\n      0x20\n      add\n      and(0xffffffffffffffffffffffffffffffffffffffff, 0x00)\n      dup2\n      mstore\n      0x20\n      add\n      0x00\n      dup2\n      mstore\n      0x20\n      add\n      0x60\n      dup2\n      mstore\n      0x20\n      add\n      0x00\n      dup2\n      mstore\n      0x20\n      add\n      iszero(iszero(0x00))\n      dup2\n      mstore\n      pop\n      swap1\n      jump\t// out\n    tag_124:\n      dup3\n      dup1\n      sload\n      tag_129\n      swap1\n      tag_85\n      jump\t// in\n    tag_129:\n      swap1\n      0x00\n      mstore\n      keccak256(0x00, 0x20)\n      swap1\n      0x1f\n      add\n      0x20\n      swap1\n      div\n      dup2\n      add\n      swap3\n      dup3\n      tag_131\n      jumpi\n      0x00\n      dup6\n      sstore\n      jump(tag_130)\n    tag_131:\n      dup3\n      0x1f\n      lt\n      tag_132\n      jumpi\n      dup1\n      mload\n      not(0xff)\n      and\n      dup4\n      dup1\n      add\n      or\n      dup6\n      sstore\n      jump(tag_130)\n    tag_132:\n      dup3\n      dup1\n      add\n      0x01\n      add\n      dup6\n      sstore\n      dup3\n      iszero\n      tag_130\n      jumpi\n      swap2\n      dup3\n      add\n    tag_133:\n      dup3\n      dup2\n      gt\n      iszero\n      tag_134\n      jumpi\n      dup3\n      mload\n      dup3\n      sstore\n      swap2\n      0x20\n      add\n      swap2\n      swap1\n      0x01\n      add\n      swap1\n      jump(tag_133)\n    tag_134:\n    tag_130:\n      pop\n      swap1\n      pop\n      tag_135\n      swap2\n      swap1\n      tag_136\n      jump\t// in\n    tag_135:\n      pop\n      swap1\n      jump\t// out\n    tag_136:\n    tag_137:\n      dup1\n      dup3\n      gt\n      iszero\n      tag_138\n      jumpi\n      0x00\n      dup2\n      0x00\n      swap1\n      sstore\n      pop\n      0x01\n      add\n      jump(tag_137)\n    tag_138:\n      pop\n      swap1\n      jump\t// out\n        /* \"#utility.yul\":7:417   */\n    tag_140:\n        /* \"#utility.yul\":84:89   */\n      0x00\n        /* \"#utility.yul\":109:174   */\n      tag_142\n        /* \"#utility.yul\":125:173   */\n      tag_143\n        /* \"#utility.yul\":166:172   */\n      dup5\n        /* \"#utility.yul\":125:173   */\n      tag_144\n      jump\t// in\n    tag_143:\n        /* \"#utility.yul\":109:174   */\n      tag_145\n      jump\t// in\n    tag_142:\n        /* \"#utility.yul\":100:174   */\n      swap1\n      pop\n        /* \"#utility.yul\":197:203   */\n      dup3\n        /* \"#utility.yul\":190:195   */\n      dup2\n        /* \"#utility.yul\":183:204   */\n      mstore\n        /* \"#utility.yul\":235:239   */\n      0x20\n        /* \"#utility.yul\":228:233   */\n      dup2\n        /* \"#utility.yul\":224:240   */\n      add\n        /* \"#utility.yul\":273:276   */\n      dup5\n        /* \"#utility.yul\":264:270   */\n      dup5\n        /* \"#utility.yul\":259:262   */\n      dup5\n        /* \"#utility.yul\":255:271   */\n      add\n        /* \"#utility.yul\":252:277   */\n      gt\n        /* \"#utility.yul\":249:361   */\n      iszero\n      tag_146\n      jumpi\n        /* \"#utility.yul\":280:359   */\n      tag_147\n      tag_148\n      jump\t// in\n    tag_147:\n        /* \"#utility.yul\":249:361   */\n    tag_146:\n        /* \"#utility.yul\":370:411   */\n      tag_149\n        /* \"#utility.yul\":404:410   */\n      dup5\n        /* \"#utility.yul\":399:402   */\n      dup3\n        /* \"#utility.yul\":394:397   */\n      dup6\n        /* \"#utility.yul\":370:411   */\n      tag_150\n      jump\t// in\n    tag_149:\n        /* \"#utility.yul\":90:417   */\n      pop\n        /* \"#utility.yul\":7:417   */\n      swap4\n      swap3\n      pop\n      pop\n      pop\n      jump\t// out\n        /* \"#utility.yul\":423:562   */\n    tag_151:\n        /* \"#utility.yul\":469:474   */\n      0x00\n        /* \"#utility.yul\":507:513   */\n      dup2\n        /* \"#utility.yul\":494:514   */\n      calldataload\n        /* \"#utility.yul\":485:514   */\n      swap1\n      pop\n        /* \"#utility.yul\":523:556   */\n      tag_153\n        /* \"#utility.yul\":550:555   */\n      dup2\n        /* \"#utility.yul\":523:556   */\n      tag_154\n      jump\t// in\n    tag_153:\n        /* \"#utility.yul\":423:562   */\n      swap3\n      swap2\n      pop\n      pop\n      jump\t// out\n        /* \"#utility.yul\":581:919   */\n    tag_155:\n        /* \"#utility.yul\":636:641   */\n      0x00\n        /* \"#utility.yul\":685:688   */\n      dup3\n        /* \"#utility.yul\":678:682   */\n      0x1f\n        /* \"#utility.yul\":670:676   */\n      dup4\n        /* \"#utility.yul\":666:683   */\n      add\n        /* \"#utility.yul\":662:689   */\n      slt\n        /* \"#utility.yul\":652:774   */\n      tag_157\n      jumpi\n        /* \"#utility.yul\":693:772   */\n      tag_158\n      tag_159\n      jump\t// in\n    tag_158:\n        /* \"#utility.yul\":652:774   */\n    tag_157:\n        /* \"#utility.yul\":810:816   */\n      dup2\n        /* \"#utility.yul\":797:817   */\n      calldataload\n        /* \"#utility.yul\":835:913   */\n      tag_160\n        /* \"#utility.yul\":909:912   */\n      dup5\n        /* \"#utility.yul\":901:907   */\n      dup3\n        /* \"#utility.yul\":894:898   */\n      0x20\n        /* \"#utility.yul\":886:892   */\n      dup7\n        /* \"#utility.yul\":882:899   */\n      add\n        /* \"#utility.yul\":835:913   */\n      tag_140\n      jump\t// in\n    tag_160:\n        /* \"#utility.yul\":826:913   */\n      swap2\n      pop\n        /* \"#utility.yul\":642:919   */\n      pop\n        /* \"#utility.yul\":581:919   */\n      swap3\n      swap2\n      pop\n      pop\n      jump\t// out\n        /* \"#utility.yul\":925:1064   */\n    tag_161:\n        /* \"#utility.yul\":971:976   */\n      0x00\n        /* \"#utility.yul\":1009:1015   */\n      dup2\n        /* \"#utility.yul\":996:1016   */\n      calldataload\n        /* \"#utility.yul\":987:1016   */\n      swap1\n      pop\n        /* \"#utility.yul\":1025:1058   */\n      tag_163\n        /* \"#utility.yul\":1052:1057   */\n      dup2\n        /* \"#utility.yul\":1025:1058   */\n      tag_164\n      jump\t// in\n    tag_163:\n        /* \"#utility.yul\":925:1064   */\n      swap3\n      swap2\n      pop\n      pop\n      jump\t// out\n        /* \"#utility.yul\":1070:1399   */\n    tag_60:\n        /* \"#utility.yul\":1129:1135   */\n      0x00\n        /* \"#utility.yul\":1178:1180   */\n      0x20\n        /* \"#utility.yul\":1166:1175   */\n      dup3\n        /* \"#utility.yul\":1157:1164   */\n      dup5\n        /* \"#utility.yul\":1153:1176   */\n      sub\n        /* \"#utility.yul\":1149:1181   */\n      slt\n        /* \"#utility.yul\":1146:1265   */\n      iszero\n      tag_166\n      jumpi\n        /* \"#utility.yul\":1184:1263   */\n      tag_167\n      tag_168\n      jump\t// in\n    tag_167:\n        /* \"#utility.yul\":1146:1265   */\n    tag_166:\n        /* \"#utility.yul\":1304:1305   */\n      0x00\n        /* \"#utility.yul\":1329:1382   */\n      tag_169\n        /* \"#utility.yul\":1374:1381   */\n      dup5\n        /* \"#utility.yul\":1365:1371   */\n      dup3\n        /* \"#utility.yul\":1354:1363   */\n      dup6\n        /* \"#utility.yul\":1350:1372   */\n      add\n        /* \"#utility.yul\":1329:1382   */\n      tag_151\n      jump\t// in\n    tag_169:\n        /* \"#utility.yul\":1319:1382   */\n      swap2\n      pop\n        /* \"#utility.yul\":1275:1392   */\n      pop\n        /* \"#utility.yul\":1070:1399   */\n      swap3\n      swap2\n      pop\n      pop\n      jump\t// out\n        /* \"#utility.yul\":1405:2202   */\n    tag_46:\n        /* \"#utility.yul\":1491:1497   */\n      0x00\n        /* \"#utility.yul\":1499:1505   */\n      dup1\n        /* \"#utility.yul\":1507:1513   */\n      0x00\n        /* \"#utility.yul\":1556:1558   */\n      0x60\n        /* \"#utility.yul\":1544:1553   */\n      dup5\n        /* \"#utility.yul\":1535:1542   */\n      dup7\n        /* \"#utility.yul\":1531:1554   */\n      sub\n        /* \"#utility.yul\":1527:1559   */\n      slt\n        /* \"#utility.yul\":1524:1643   */\n      iszero\n      tag_171\n      jumpi\n        /* \"#utility.yul\":1562:1641   */\n      tag_172\n      tag_168\n      jump\t// in\n    tag_172:\n        /* \"#utility.yul\":1524:1643   */\n    tag_171:\n        /* \"#utility.yul\":1682:1683   */\n      0x00\n        /* \"#utility.yul\":1707:1760   */\n      tag_173\n        /* \"#utility.yul\":1752:1759   */\n      dup7\n        /* \"#utility.yul\":1743:1749   */\n      dup3\n        /* \"#utility.yul\":1732:1741   */\n      dup8\n        /* \"#utility.yul\":1728:1750   */\n      add\n        /* \"#utility.yul\":1707:1760   */\n      tag_151\n      jump\t// in\n    tag_173:\n        /* \"#utility.yul\":1697:1760   */\n      swap4\n      pop\n        /* \"#utility.yul\":1653:1770   */\n      pop\n        /* \"#utility.yul\":1809:1811   */\n      0x20\n        /* \"#utility.yul\":1835:1888   */\n      tag_174\n        /* \"#utility.yul\":1880:1887   */\n      dup7\n        /* \"#utility.yul\":1871:1877   */\n      dup3\n        /* \"#utility.yul\":1860:1869   */\n      dup8\n        /* \"#utility.yul\":1856:1878   */\n      add\n        /* \"#utility.yul\":1835:1888   */\n      tag_161\n      jump\t// in\n    tag_174:\n        /* \"#utility.yul\":1825:1888   */\n      swap3\n      pop\n        /* \"#utility.yul\":1780:1898   */\n      pop\n        /* \"#utility.yul\":1965:1967   */\n      0x40\n        /* \"#utility.yul\":1954:1963   */\n      dup5\n        /* \"#utility.yul\":1950:1968   */\n      add\n        /* \"#utility.yul\":1937:1969   */\n      calldataload\n        /* \"#utility.yul\":1996:2014   */\n      0xffffffffffffffff\n        /* \"#utility.yul\":1988:1994   */\n      dup2\n        /* \"#utility.yul\":1985:2015   */\n      gt\n        /* \"#utility.yul\":1982:2099   */\n      iszero\n      tag_175\n      jumpi\n        /* \"#utility.yul\":2018:2097   */\n      tag_176\n      tag_177\n      jump\t// in\n    tag_176:\n        /* \"#utility.yul\":1982:2099   */\n    tag_175:\n        /* \"#utility.yul\":2123:2185   */\n      tag_178\n        /* \"#utility.yul\":2177:2184   */\n      dup7\n        /* \"#utility.yul\":2168:2174   */\n      dup3\n        /* \"#utility.yul\":2157:2166   */\n      dup8\n        /* \"#utility.yul\":2153:2175   */\n      add\n        /* \"#utility.yul\":2123:2185   */\n      tag_155\n      jump\t// in\n    tag_178:\n        /* \"#utility.yul\":2113:2185   */\n      swap2\n      pop\n        /* \"#utility.yul\":1908:2195   */\n      pop\n        /* \"#utility.yul\":1405:2202   */\n      swap3\n      pop\n      swap3\n      pop\n      swap3\n      jump\t// out\n        /* \"#utility.yul\":2208:2537   */\n    tag_20:\n        /* \"#utility.yul\":2267:2273   */\n      0x00\n        /* \"#utility.yul\":2316:2318   */\n      0x20\n        /* \"#utility.yul\":2304:2313   */\n      dup3\n        /* \"#utility.yul\":2295:2302   */\n      dup5\n        /* \"#utility.yul\":2291:2314   */\n      sub\n        /* \"#utility.yul\":2287:2319   */\n      slt\n        /* \"#utility.yul\":2284:2403   */\n      iszero\n      tag_180\n      jumpi\n        /* \"#utility.yul\":2322:2401   */\n      tag_181\n      tag_168\n      jump\t// in\n    tag_181:\n        /* \"#utility.yul\":2284:2403   */\n    tag_180:\n        /* \"#utility.yul\":2442:2443   */\n      0x00\n        /* \"#utility.yul\":2467:2520   */\n      tag_182\n        /* \"#utility.yul\":2512:2519   */\n      dup5\n        /* \"#utility.yul\":2503:2509   */\n      dup3\n        /* \"#utility.yul\":2492:2501   */\n      dup6\n        /* \"#utility.yul\":2488:2510   */\n      add\n        /* \"#utility.yul\":2467:2520   */\n      tag_161\n      jump\t// in\n    tag_182:\n        /* \"#utility.yul\":2457:2520   */\n      swap2\n      pop\n        /* \"#utility.yul\":2413:2530   */\n      pop\n        /* \"#utility.yul\":2208:2537   */\n      swap3\n      swap2\n      pop\n      pop\n      jump\t// out\n        /* \"#utility.yul\":2543:3017   */\n    tag_39:\n        /* \"#utility.yul\":2611:2617   */\n      0x00\n        /* \"#utility.yul\":2619:2625   */\n      dup1\n        /* \"#utility.yul\":2668:2670   */\n      0x40\n        /* \"#utility.yul\":2656:2665   */\n      dup4\n        /* \"#utility.yul\":2647:2654   */\n      dup6\n        /* \"#utility.yul\":2643:2666   */\n      sub\n        /* \"#utility.yul\":2639:2671   */\n      slt\n        /* \"#utility.yul\":2636:2755   */\n      iszero\n      tag_184\n      jumpi\n        /* \"#utility.yul\":2674:2753   */\n      tag_185\n      tag_168\n      jump\t// in\n    tag_185:\n        /* \"#utility.yul\":2636:2755   */\n    tag_184:\n        /* \"#utility.yul\":2794:2795   */\n      0x00\n        /* \"#utility.yul\":2819:2872   */\n      tag_186\n        /* \"#utility.yul\":2864:2871   */\n      dup6\n        /* \"#utility.yul\":2855:2861   */\n      dup3\n        /* \"#utility.yul\":2844:2853   */\n      dup7\n        /* \"#utility.yul\":2840:2862   */\n      add\n        /* \"#utility.yul\":2819:2872   */\n      tag_161\n      jump\t// in\n    tag_186:\n        /* \"#utility.yul\":2809:2872   */\n      swap3\n      pop\n        /* \"#utility.yul\":2765:2882   */\n      pop\n        /* \"#utility.yul\":2921:2923   */\n      0x20\n        /* \"#utility.yul\":2947:3000   */\n      tag_187\n        /* \"#utility.yul\":2992:2999   */\n      dup6\n        /* \"#utility.yul\":2983:2989   */\n      dup3\n        /* \"#utility.yul\":2972:2981   */\n      dup7\n        /* \"#utility.yul\":2968:2990   */\n      add\n        /* \"#utility.yul\":2947:3000   */\n      tag_151\n      jump\t// in\n    tag_187:\n        /* \"#utility.yul\":2937:3000   */\n      swap2\n      pop\n        /* \"#utility.yul\":2892:3010   */\n      pop\n        /* \"#utility.yul\":2543:3017   */\n      swap3\n      pop\n      swap3\n      swap1\n      pop\n      jump\t// out\n        /* \"#utility.yul\":3023:3131   */\n    tag_188:\n        /* \"#utility.yul\":3100:3124   */\n      tag_190\n        /* \"#utility.yul\":3118:3123   */\n      dup2\n        /* \"#utility.yul\":3100:3124   */\n      tag_191\n      jump\t// in\n    tag_190:\n        /* \"#utility.yul\":3095:3098   */\n      dup3\n        /* \"#utility.yul\":3088:3125   */\n      mstore\n        /* \"#utility.yul\":3023:3131   */\n      pop\n      pop\n      jump\t// out\n        /* \"#utility.yul\":3137:3255   */\n    tag_192:\n        /* \"#utility.yul\":3224:3248   */\n      tag_194\n        /* \"#utility.yul\":3242:3247   */\n      dup2\n        /* \"#utility.yul\":3224:3248   */\n      tag_191\n      jump\t// in\n    tag_194:\n        /* \"#utility.yul\":3219:3222   */\n      dup3\n        /* \"#utility.yul\":3212:3249   */\n      mstore\n        /* \"#utility.yul\":3137:3255   */\n      pop\n      pop\n      jump\t// out\n        /* \"#utility.yul\":3261:3360   */\n    tag_195:\n        /* \"#utility.yul\":3332:3353   */\n      tag_197\n        /* \"#utility.yul\":3347:3352   */\n      dup2\n        /* \"#utility.yul\":3332:3353   */\n      tag_198\n      jump\t// in\n    tag_197:\n        /* \"#utility.yul\":3327:3330   */\n      dup3\n        /* \"#utility.yul\":3320:3354   */\n      mstore\n        /* \"#utility.yul\":3261:3360   */\n      pop\n      pop\n      jump\t// out\n        /* \"#utility.yul\":3366:3475   */\n    tag_199:\n        /* \"#utility.yul\":3447:3468   */\n      tag_201\n        /* \"#utility.yul\":3462:3467   */\n      dup2\n        /* \"#utility.yul\":3447:3468   */\n      tag_198\n      jump\t// in\n    tag_201:\n        /* \"#utility.yul\":3442:3445   */\n      dup3\n        /* \"#utility.yul\":3435:3469   */\n      mstore\n        /* \"#utility.yul\":3366:3475   */\n      pop\n      pop\n      jump\t// out\n        /* \"#utility.yul\":3481:3821   */\n    tag_202:\n        /* \"#utility.yul\":3557:3560   */\n      0x00\n        /* \"#utility.yul\":3585:3623   */\n      tag_204\n        /* \"#utility.yul\":3617:3622   */\n      dup3\n        /* \"#utility.yul\":3585:3623   */\n      tag_205\n      jump\t// in\n    tag_204:\n        /* \"#utility.yul\":3639:3699   */\n      tag_206\n        /* \"#utility.yul\":3692:3698   */\n      dup2\n        /* \"#utility.yul\":3687:3690   */\n      dup6\n        /* \"#utility.yul\":3639:3699   */\n      tag_207\n      jump\t// in\n    tag_206:\n        /* \"#utility.yul\":3632:3699   */\n      swap4\n      pop\n        /* \"#utility.yul\":3708:3760   */\n      tag_208\n        /* \"#utility.yul\":3753:3759   */\n      dup2\n        /* \"#utility.yul\":3748:3751   */\n      dup6\n        /* \"#utility.yul\":3741:3745   */\n      0x20\n        /* \"#utility.yul\":3734:3739   */\n      dup7\n        /* \"#utility.yul\":3730:3746   */\n      add\n        /* \"#utility.yul\":3708:3760   */\n      tag_209\n      jump\t// in\n    tag_208:\n        /* \"#utility.yul\":3785:3814   */\n      tag_210\n        /* \"#utility.yul\":3807:3813   */\n      dup2\n        /* \"#utility.yul\":3785:3814   */\n      tag_211\n      jump\t// in\n    tag_210:\n        /* \"#utility.yul\":3780:3783   */\n      dup5\n        /* \"#utility.yul\":3776:3815   */\n      add\n        /* \"#utility.yul\":3769:3815   */\n      swap2\n      pop\n        /* \"#utility.yul\":3561:3821   */\n      pop\n        /* \"#utility.yul\":3481:3821   */\n      swap3\n      swap2\n      pop\n      pop\n      jump\t// out\n        /* \"#utility.yul\":3827:4187   */\n    tag_212:\n        /* \"#utility.yul\":3913:3916   */\n      0x00\n        /* \"#utility.yul\":3941:3979   */\n      tag_214\n        /* \"#utility.yul\":3973:3978   */\n      dup3\n        /* \"#utility.yul\":3941:3979   */\n      tag_205\n      jump\t// in\n    tag_214:\n        /* \"#utility.yul\":3995:4065   */\n      tag_215\n        /* \"#utility.yul\":4058:4064   */\n      dup2\n        /* \"#utility.yul\":4053:4056   */\n      dup6\n        /* \"#utility.yul\":3995:4065   */\n      tag_216\n      jump\t// in\n    tag_215:\n        /* \"#utility.yul\":3988:4065   */\n      swap4\n      pop\n        /* \"#utility.yul\":4074:4126   */\n      tag_217\n        /* \"#utility.yul\":4119:4125   */\n      dup2\n        /* \"#utility.yul\":4114:4117   */\n      dup6\n        /* \"#utility.yul\":4107:4111   */\n      0x20\n        /* \"#utility.yul\":4100:4105   */\n      dup7\n        /* \"#utility.yul\":4096:4112   */\n      add\n        /* \"#utility.yul\":4074:4126   */\n      tag_209\n      jump\t// in\n    tag_217:\n        /* \"#utility.yul\":4151:4180   */\n      tag_218\n        /* \"#utility.yul\":4173:4179   */\n      dup2\n        /* \"#utility.yul\":4151:4180   */\n      tag_211\n      jump\t// in\n    tag_218:\n        /* \"#utility.yul\":4146:4149   */\n      dup5\n        /* \"#utility.yul\":4142:4181   */\n      add\n        /* \"#utility.yul\":4135:4181   */\n      swap2\n      pop\n        /* \"#utility.yul\":3917:4187   */\n      pop\n        /* \"#utility.yul\":3827:4187   */\n      swap3\n      swap2\n      pop\n      pop\n      jump\t// out\n        /* \"#utility.yul\":4215:5013   */\n    tag_219:\n        /* \"#utility.yul\":4298:4301   */\n      0x00\n        /* \"#utility.yul\":4335:4340   */\n      dup2\n        /* \"#utility.yul\":4329:4341   */\n      sload\n        /* \"#utility.yul\":4364:4400   */\n      tag_221\n        /* \"#utility.yul\":4390:4399   */\n      dup2\n        /* \"#utility.yul\":4364:4400   */\n      tag_85\n      jump\t// in\n    tag_221:\n        /* \"#utility.yul\":4416:4486   */\n      tag_222\n        /* \"#utility.yul\":4479:4485   */\n      dup2\n        /* \"#utility.yul\":4474:4477   */\n      dup7\n        /* \"#utility.yul\":4416:4486   */\n      tag_216\n      jump\t// in\n    tag_222:\n        /* \"#utility.yul\":4409:4486   */\n      swap5\n      pop\n        /* \"#utility.yul\":4517:4518   */\n      0x01\n        /* \"#utility.yul\":4506:4515   */\n      dup3\n        /* \"#utility.yul\":4502:4519   */\n      and\n        /* \"#utility.yul\":4533:4534   */\n      0x00\n        /* \"#utility.yul\":4528:4663   */\n      dup2\n      eq\n      tag_224\n      jumpi\n        /* \"#utility.yul\":4677:4678   */\n      0x01\n        /* \"#utility.yul\":4672:5007   */\n      dup2\n      eq\n      tag_225\n      jumpi\n        /* \"#utility.yul\":4495:5007   */\n      jump(tag_223)\n        /* \"#utility.yul\":4528:4663   */\n    tag_224:\n        /* \"#utility.yul\":4612:4616   */\n      0xff\n        /* \"#utility.yul\":4608:4617   */\n      not\n        /* \"#utility.yul\":4597:4606   */\n      dup4\n        /* \"#utility.yul\":4593:4618   */\n      and\n        /* \"#utility.yul\":4588:4591   */\n      dup7\n        /* \"#utility.yul\":4581:4619   */\n      mstore\n        /* \"#utility.yul\":4648:4652   */\n      0x20\n        /* \"#utility.yul\":4643:4646   */\n      dup7\n        /* \"#utility.yul\":4639:4653   */\n      add\n        /* \"#utility.yul\":4632:4653   */\n      swap4\n      pop\n        /* \"#utility.yul\":4528:4663   */\n      jump(tag_223)\n        /* \"#utility.yul\":4672:5007   */\n    tag_225:\n        /* \"#utility.yul\":4739:4776   */\n      tag_226\n        /* \"#utility.yul\":4770:4775   */\n      dup6\n        /* \"#utility.yul\":4739:4776   */\n      tag_227\n      jump\t// in\n    tag_226:\n        /* \"#utility.yul\":4798:4799   */\n      0x00\n        /* \"#utility.yul\":4812:4966   */\n    tag_228:\n        /* \"#utility.yul\":4826:4832   */\n      dup4\n        /* \"#utility.yul\":4823:4824   */\n      dup2\n        /* \"#utility.yul\":4820:4833   */\n      lt\n        /* \"#utility.yul\":4812:4966   */\n      iszero\n      tag_230\n      jumpi\n        /* \"#utility.yul\":4900:4907   */\n      dup2\n        /* \"#utility.yul\":4894:4908   */\n      sload\n        /* \"#utility.yul\":4890:4891   */\n      dup2\n        /* \"#utility.yul\":4885:4888   */\n      dup10\n        /* \"#utility.yul\":4881:4892   */\n      add\n        /* \"#utility.yul\":4874:4909   */\n      mstore\n        /* \"#utility.yul\":4950:4951   */\n      0x01\n        /* \"#utility.yul\":4941:4948   */\n      dup3\n        /* \"#utility.yul\":4937:4952   */\n      add\n        /* \"#utility.yul\":4926:4952   */\n      swap2\n      pop\n        /* \"#utility.yul\":4848:4852   */\n      0x20\n        /* \"#utility.yul\":4845:4846   */\n      dup2\n        /* \"#utility.yul\":4841:4853   */\n      add\n        /* \"#utility.yul\":4836:4853   */\n      swap1\n      pop\n        /* \"#utility.yul\":4812:4966   */\n      jump(tag_228)\n    tag_230:\n        /* \"#utility.yul\":4995:4996   */\n      dup1\n        /* \"#utility.yul\":4990:4993   */\n      dup9\n        /* \"#utility.yul\":4986:4997   */\n      add\n        /* \"#utility.yul\":4979:4997   */\n      swap6\n      pop\n        /* \"#utility.yul\":4679:5007   */\n      pop\n      pop\n        /* \"#utility.yul\":4495:5007   */\n    tag_223:\n      pop\n        /* \"#utility.yul\":4302:5013   */\n      pop\n      pop\n        /* \"#utility.yul\":4215:5013   */\n      swap3\n      swap2\n      pop\n      pop\n      jump\t// out\n        /* \"#utility.yul\":5041:5882   */\n    tag_231:\n        /* \"#utility.yul\":5142:5145   */\n      0x00\n        /* \"#utility.yul\":5179:5184   */\n      dup2\n        /* \"#utility.yul\":5173:5185   */\n      sload\n        /* \"#utility.yul\":5208:5244   */\n      tag_233\n        /* \"#utility.yul\":5234:5243   */\n      dup2\n        /* \"#utility.yul\":5208:5244   */\n      tag_85\n      jump\t// in\n    tag_233:\n        /* \"#utility.yul\":5260:5348   */\n      tag_234\n        /* \"#utility.yul\":5341:5347   */\n      dup2\n        /* \"#utility.yul\":5336:5339   */\n      dup7\n        /* \"#utility.yul\":5260:5348   */\n      tag_235\n      jump\t// in\n    tag_234:\n        /* \"#utility.yul\":5253:5348   */\n      swap5\n      pop\n        /* \"#utility.yul\":5379:5380   */\n      0x01\n        /* \"#utility.yul\":5368:5377   */\n      dup3\n        /* \"#utility.yul\":5364:5381   */\n      and\n        /* \"#utility.yul\":5395:5396   */\n      0x00\n        /* \"#utility.yul\":5390:5527   */\n      dup2\n      eq\n      tag_237\n      jumpi\n        /* \"#utility.yul\":5541:5542   */\n      0x01\n        /* \"#utility.yul\":5536:5876   */\n      dup2\n      eq\n      tag_238\n      jumpi\n        /* \"#utility.yul\":5357:5876   */\n      jump(tag_236)\n        /* \"#utility.yul\":5390:5527   */\n    tag_237:\n        /* \"#utility.yul\":5474:5478   */\n      0xff\n        /* \"#utility.yul\":5470:5479   */\n      not\n        /* \"#utility.yul\":5459:5468   */\n      dup4\n        /* \"#utility.yul\":5455:5480   */\n      and\n        /* \"#utility.yul\":5450:5453   */\n      dup7\n        /* \"#utility.yul\":5443:5481   */\n      mstore\n        /* \"#utility.yul\":5510:5516   */\n      dup2\n        /* \"#utility.yul\":5505:5508   */\n      dup7\n        /* \"#utility.yul\":5501:5517   */\n      add\n        /* \"#utility.yul\":5494:5517   */\n      swap4\n      pop\n        /* \"#utility.yul\":5390:5527   */\n      jump(tag_236)\n        /* \"#utility.yul\":5536:5876   */\n    tag_238:\n        /* \"#utility.yul\":5603:5640   */\n      tag_239\n        /* \"#utility.yul\":5634:5639   */\n      dup6\n        /* \"#utility.yul\":5603:5640   */\n      tag_227\n      jump\t// in\n    tag_239:\n        /* \"#utility.yul\":5662:5663   */\n      0x00\n        /* \"#utility.yul\":5676:5830   */\n    tag_240:\n        /* \"#utility.yul\":5690:5696   */\n      dup4\n        /* \"#utility.yul\":5687:5688   */\n      dup2\n        /* \"#utility.yul\":5684:5697   */\n      lt\n        /* \"#utility.yul\":5676:5830   */\n      iszero\n      tag_242\n      jumpi\n        /* \"#utility.yul\":5764:5771   */\n      dup2\n        /* \"#utility.yul\":5758:5772   */\n      sload\n        /* \"#utility.yul\":5754:5755   */\n      dup2\n        /* \"#utility.yul\":5749:5752   */\n      dup10\n        /* \"#utility.yul\":5745:5756   */\n      add\n        /* \"#utility.yul\":5738:5773   */\n      mstore\n        /* \"#utility.yul\":5814:5815   */\n      0x01\n        /* \"#utility.yul\":5805:5812   */\n      dup3\n        /* \"#utility.yul\":5801:5816   */\n      add\n        /* \"#utility.yul\":5790:5816   */\n      swap2\n      pop\n        /* \"#utility.yul\":5712:5716   */\n      0x20\n        /* \"#utility.yul\":5709:5710   */\n      dup2\n        /* \"#utility.yul\":5705:5717   */\n      add\n        /* \"#utility.yul\":5700:5717   */\n      swap1\n      pop\n        /* \"#utility.yul\":5676:5830   */\n      jump(tag_240)\n    tag_242:\n        /* \"#utility.yul\":5859:5865   */\n      dup4\n        /* \"#utility.yul\":5854:5857   */\n      dup9\n        /* \"#utility.yul\":5850:5866   */\n      add\n        /* \"#utility.yul\":5843:5866   */\n      swap6\n      pop\n        /* \"#utility.yul\":5543:5876   */\n      pop\n      pop\n        /* \"#utility.yul\":5357:5876   */\n    tag_236:\n      pop\n        /* \"#utility.yul\":5146:5882   */\n      pop\n      pop\n        /* \"#utility.yul\":5041:5882   */\n      swap3\n      swap2\n      pop\n      pop\n      jump\t// out\n        /* \"#utility.yul\":5966:7274   */\n    tag_243:\n        /* \"#utility.yul\":6089:6092   */\n      0x00\n        /* \"#utility.yul\":6125:6129   */\n      0xc0\n        /* \"#utility.yul\":6120:6123   */\n      dup4\n        /* \"#utility.yul\":6116:6130   */\n      add\n        /* \"#utility.yul\":6210:6214   */\n      0x00\n        /* \"#utility.yul\":6203:6208   */\n      dup4\n        /* \"#utility.yul\":6199:6215   */\n      add\n        /* \"#utility.yul\":6193:6216   */\n      mload\n        /* \"#utility.yul\":6229:6292   */\n      tag_245\n        /* \"#utility.yul\":6286:6290   */\n      0x00\n        /* \"#utility.yul\":6281:6284   */\n      dup7\n        /* \"#utility.yul\":6277:6291   */\n      add\n        /* \"#utility.yul\":6263:6275   */\n      dup3\n        /* \"#utility.yul\":6229:6292   */\n      tag_246\n      jump\t// in\n    tag_245:\n        /* \"#utility.yul\":6140:6302   */\n      pop\n        /* \"#utility.yul\":6382:6386   */\n      0x20\n        /* \"#utility.yul\":6375:6380   */\n      dup4\n        /* \"#utility.yul\":6371:6387   */\n      add\n        /* \"#utility.yul\":6365:6388   */\n      mload\n        /* \"#utility.yul\":6401:6464   */\n      tag_247\n        /* \"#utility.yul\":6458:6462   */\n      0x20\n        /* \"#utility.yul\":6453:6456   */\n      dup7\n        /* \"#utility.yul\":6449:6463   */\n      add\n        /* \"#utility.yul\":6435:6447   */\n      dup3\n        /* \"#utility.yul\":6401:6464   */\n      tag_188\n      jump\t// in\n    tag_247:\n        /* \"#utility.yul\":6312:6474   */\n      pop\n        /* \"#utility.yul\":6557:6561   */\n      0x40\n        /* \"#utility.yul\":6550:6555   */\n      dup4\n        /* \"#utility.yul\":6546:6562   */\n      add\n        /* \"#utility.yul\":6540:6563   */\n      mload\n        /* \"#utility.yul\":6576:6639   */\n      tag_248\n        /* \"#utility.yul\":6633:6637   */\n      0x40\n        /* \"#utility.yul\":6628:6631   */\n      dup7\n        /* \"#utility.yul\":6624:6638   */\n      add\n        /* \"#utility.yul\":6610:6622   */\n      dup3\n        /* \"#utility.yul\":6576:6639   */\n      tag_246\n      jump\t// in\n    tag_248:\n        /* \"#utility.yul\":6484:6649   */\n      pop\n        /* \"#utility.yul\":6731:6735   */\n      0x60\n        /* \"#utility.yul\":6724:6729   */\n      dup4\n        /* \"#utility.yul\":6720:6736   */\n      add\n        /* \"#utility.yul\":6714:6737   */\n      mload\n        /* \"#utility.yul\":6784:6787   */\n      dup5\n        /* \"#utility.yul\":6778:6782   */\n      dup3\n        /* \"#utility.yul\":6774:6788   */\n      sub\n        /* \"#utility.yul\":6767:6771   */\n      0x60\n        /* \"#utility.yul\":6762:6765   */\n      dup7\n        /* \"#utility.yul\":6758:6772   */\n      add\n        /* \"#utility.yul\":6751:6789   */\n      mstore\n        /* \"#utility.yul\":6810:6881   */\n      tag_249\n        /* \"#utility.yul\":6876:6880   */\n      dup3\n        /* \"#utility.yul\":6862:6874   */\n      dup3\n        /* \"#utility.yul\":6810:6881   */\n      tag_202\n      jump\t// in\n    tag_249:\n        /* \"#utility.yul\":6802:6881   */\n      swap2\n      pop\n        /* \"#utility.yul\":6659:6892   */\n      pop\n        /* \"#utility.yul\":6983:6987   */\n      0x80\n        /* \"#utility.yul\":6976:6981   */\n      dup4\n        /* \"#utility.yul\":6972:6988   */\n      add\n        /* \"#utility.yul\":6966:6989   */\n      mload\n        /* \"#utility.yul\":7002:7065   */\n      tag_250\n        /* \"#utility.yul\":7059:7063   */\n      0x80\n        /* \"#utility.yul\":7054:7057   */\n      dup7\n        /* \"#utility.yul\":7050:7064   */\n      add\n        /* \"#utility.yul\":7036:7048   */\n      dup3\n        /* \"#utility.yul\":7002:7065   */\n      tag_246\n      jump\t// in\n    tag_250:\n        /* \"#utility.yul\":6902:7075   */\n      pop\n        /* \"#utility.yul\":7161:7165   */\n      0xa0\n        /* \"#utility.yul\":7154:7159   */\n      dup4\n        /* \"#utility.yul\":7150:7166   */\n      add\n        /* \"#utility.yul\":7144:7167   */\n      mload\n        /* \"#utility.yul\":7180:7237   */\n      tag_251\n        /* \"#utility.yul\":7231:7235   */\n      0xa0\n        /* \"#utility.yul\":7226:7229   */\n      dup7\n        /* \"#utility.yul\":7222:7236   */\n      add\n        /* \"#utility.yul\":7208:7220   */\n      dup3\n        /* \"#utility.yul\":7180:7237   */\n      tag_195\n      jump\t// in\n    tag_251:\n        /* \"#utility.yul\":7085:7247   */\n      pop\n        /* \"#utility.yul\":7264:7268   */\n      dup1\n        /* \"#utility.yul\":7257:7268   */\n      swap2\n      pop\n        /* \"#utility.yul\":6094:7274   */\n      pop\n        /* \"#utility.yul\":5966:7274   */\n      swap3\n      swap2\n      pop\n      pop\n      jump\t// out\n        /* \"#utility.yul\":7280:7388   */\n    tag_246:\n        /* \"#utility.yul\":7357:7381   */\n      tag_253\n        /* \"#utility.yul\":7375:7380   */\n      dup2\n        /* \"#utility.yul\":7357:7381   */\n      tag_254\n      jump\t// in\n    tag_253:\n        /* \"#utility.yul\":7352:7355   */\n      dup3\n        /* \"#utility.yul\":7345:7382   */\n      mstore\n        /* \"#utility.yul\":7280:7388   */\n      pop\n      pop\n      jump\t// out\n        /* \"#utility.yul\":7394:7512   */\n    tag_255:\n        /* \"#utility.yul\":7481:7505   */\n      tag_257\n        /* \"#utility.yul\":7499:7504   */\n      dup2\n        /* \"#utility.yul\":7481:7505   */\n      tag_254\n      jump\t// in\n    tag_257:\n        /* \"#utility.yul\":7476:7479   */\n      dup3\n        /* \"#utility.yul\":7469:7506   */\n      mstore\n        /* \"#utility.yul\":7394:7512   */\n      pop\n      pop\n      jump\t// out\n        /* \"#utility.yul\":7518:7783   */\n    tag_100:\n        /* \"#utility.yul\":7645:7648   */\n      0x00\n        /* \"#utility.yul\":7667:7757   */\n      tag_259\n        /* \"#utility.yul\":7753:7756   */\n      dup3\n        /* \"#utility.yul\":7744:7750   */\n      dup5\n        /* \"#utility.yul\":7667:7757   */\n      tag_231\n      jump\t// in\n    tag_259:\n        /* \"#utility.yul\":7660:7757   */\n      swap2\n      pop\n        /* \"#utility.yul\":7774:7777   */\n      dup2\n        /* \"#utility.yul\":7767:7777   */\n      swap1\n      pop\n        /* \"#utility.yul\":7518:7783   */\n      swap3\n      swap2\n      pop\n      pop\n      jump\t// out\n        /* \"#utility.yul\":7789:8318   */\n    tag_127:\n        /* \"#utility.yul\":7956:7960   */\n      0x00\n        /* \"#utility.yul\":7994:7996   */\n      0x60\n        /* \"#utility.yul\":7983:7992   */\n      dup3\n        /* \"#utility.yul\":7979:7997   */\n      add\n        /* \"#utility.yul\":7971:7997   */\n      swap1\n      pop\n        /* \"#utility.yul\":8007:8078   */\n      tag_261\n        /* \"#utility.yul\":8075:8076   */\n      0x00\n        /* \"#utility.yul\":8064:8073   */\n      dup4\n        /* \"#utility.yul\":8060:8077   */\n      add\n        /* \"#utility.yul\":8051:8057   */\n      dup7\n        /* \"#utility.yul\":8007:8078   */\n      tag_192\n      jump\t// in\n    tag_261:\n        /* \"#utility.yul\":8088:8160   */\n      tag_262\n        /* \"#utility.yul\":8156:8158   */\n      0x20\n        /* \"#utility.yul\":8145:8154   */\n      dup4\n        /* \"#utility.yul\":8141:8159   */\n      add\n        /* \"#utility.yul\":8132:8138   */\n      dup6\n        /* \"#utility.yul\":8088:8160   */\n      tag_255\n      jump\t// in\n    tag_262:\n        /* \"#utility.yul\":8207:8216   */\n      dup2\n        /* \"#utility.yul\":8201:8205   */\n      dup2\n        /* \"#utility.yul\":8197:8217   */\n      sub\n        /* \"#utility.yul\":8192:8194   */\n      0x40\n        /* \"#utility.yul\":8181:8190   */\n      dup4\n        /* \"#utility.yul\":8177:8195   */\n      add\n        /* \"#utility.yul\":8170:8218   */\n      mstore\n        /* \"#utility.yul\":8235:8311   */\n      tag_263\n        /* \"#utility.yul\":8306:8310   */\n      dup2\n        /* \"#utility.yul\":8297:8303   */\n      dup5\n        /* \"#utility.yul\":8235:8311   */\n      tag_212\n      jump\t// in\n    tag_263:\n        /* \"#utility.yul\":8227:8311   */\n      swap1\n      pop\n        /* \"#utility.yul\":7789:8318   */\n      swap5\n      swap4\n      pop\n      pop\n      pop\n      pop\n      jump\t// out\n        /* \"#utility.yul\":8324:8958   */\n    tag_106:\n        /* \"#utility.yul\":8516:8520   */\n      0x00\n        /* \"#utility.yul\":8554:8557   */\n      0x80\n        /* \"#utility.yul\":8543:8552   */\n      dup3\n        /* \"#utility.yul\":8539:8558   */\n      add\n        /* \"#utility.yul\":8531:8558   */\n      swap1\n      pop\n        /* \"#utility.yul\":8568:8639   */\n      tag_265\n        /* \"#utility.yul\":8636:8637   */\n      0x00\n        /* \"#utility.yul\":8625:8634   */\n      dup4\n        /* \"#utility.yul\":8621:8638   */\n      add\n        /* \"#utility.yul\":8612:8618   */\n      dup8\n        /* \"#utility.yul\":8568:8639   */\n      tag_192\n      jump\t// in\n    tag_265:\n        /* \"#utility.yul\":8649:8721   */\n      tag_266\n        /* \"#utility.yul\":8717:8719   */\n      0x20\n        /* \"#utility.yul\":8706:8715   */\n      dup4\n        /* \"#utility.yul\":8702:8720   */\n      add\n        /* \"#utility.yul\":8693:8699   */\n      dup7\n        /* \"#utility.yul\":8649:8721   */\n      tag_255\n      jump\t// in\n    tag_266:\n        /* \"#utility.yul\":8768:8777   */\n      dup2\n        /* \"#utility.yul\":8762:8766   */\n      dup2\n        /* \"#utility.yul\":8758:8778   */\n      sub\n        /* \"#utility.yul\":8753:8755   */\n      0x40\n        /* \"#utility.yul\":8742:8751   */\n      dup4\n        /* \"#utility.yul\":8738:8756   */\n      add\n        /* \"#utility.yul\":8731:8779   */\n      mstore\n        /* \"#utility.yul\":8796:8869   */\n      tag_267\n        /* \"#utility.yul\":8864:8868   */\n      dup2\n        /* \"#utility.yul\":8855:8861   */\n      dup6\n        /* \"#utility.yul\":8796:8869   */\n      tag_219\n      jump\t// in\n    tag_267:\n        /* \"#utility.yul\":8788:8869   */\n      swap1\n      pop\n        /* \"#utility.yul\":8879:8951   */\n      tag_268\n        /* \"#utility.yul\":8947:8949   */\n      0x60\n        /* \"#utility.yul\":8936:8945   */\n      dup4\n        /* \"#utility.yul\":8932:8950   */\n      add\n        /* \"#utility.yul\":8923:8929   */\n      dup5\n        /* \"#utility.yul\":8879:8951   */\n      tag_192\n      jump\t// in\n    tag_268:\n        /* \"#utility.yul\":8324:8958   */\n      swap6\n      swap5\n      pop\n      pop\n      pop\n      pop\n      pop\n      jump\t// out\n        /* \"#utility.yul\":8964:9406   */\n    tag_16:\n        /* \"#utility.yul\":9113:9117   */\n      0x00\n        /* \"#utility.yul\":9151:9153   */\n      0x60\n        /* \"#utility.yul\":9140:9149   */\n      dup3\n        /* \"#utility.yul\":9136:9154   */\n      add\n        /* \"#utility.yul\":9128:9154   */\n      swap1\n      pop\n        /* \"#utility.yul\":9164:9235   */\n      tag_270\n        /* \"#utility.yul\":9232:9233   */\n      0x00\n        /* \"#utility.yul\":9221:9230   */\n      dup4\n        /* \"#utility.yul\":9217:9234   */\n      add\n        /* \"#utility.yul\":9208:9214   */\n      dup7\n        /* \"#utility.yul\":9164:9235   */\n      tag_192\n      jump\t// in\n    tag_270:\n        /* \"#utility.yul\":9245:9317   */\n      tag_271\n        /* \"#utility.yul\":9313:9315   */\n      0x20\n        /* \"#utility.yul\":9302:9311   */\n      dup4\n        /* \"#utility.yul\":9298:9316   */\n      add\n        /* \"#utility.yul\":9289:9295   */\n      dup6\n        /* \"#utility.yul\":9245:9317   */\n      tag_255\n      jump\t// in\n    tag_271:\n        /* \"#utility.yul\":9327:9399   */\n      tag_272\n        /* \"#utility.yul\":9395:9397   */\n      0x40\n        /* \"#utility.yul\":9384:9393   */\n      dup4\n        /* \"#utility.yul\":9380:9398   */\n      add\n        /* \"#utility.yul\":9371:9377   */\n      dup5\n        /* \"#utility.yul\":9327:9399   */\n      tag_255\n      jump\t// in\n    tag_272:\n        /* \"#utility.yul\":8964:9406   */\n      swap5\n      swap4\n      pop\n      pop\n      pop\n      pop\n      jump\t// out\n        /* \"#utility.yul\":9412:9622   */\n    tag_42:\n        /* \"#utility.yul\":9499:9503   */\n      0x00\n        /* \"#utility.yul\":9537:9539   */\n      0x20\n        /* \"#utility.yul\":9526:9535   */\n      dup3\n        /* \"#utility.yul\":9522:9540   */\n      add\n        /* \"#utility.yul\":9514:9540   */\n      swap1\n      pop\n        /* \"#utility.yul\":9550:9615   */\n      tag_274\n        /* \"#utility.yul\":9612:9613   */\n      0x00\n        /* \"#utility.yul\":9601:9610   */\n      dup4\n        /* \"#utility.yul\":9597:9614   */\n      add\n        /* \"#utility.yul\":9588:9594   */\n      dup5\n        /* \"#utility.yul\":9550:9615   */\n      tag_199\n      jump\t// in\n    tag_274:\n        /* \"#utility.yul\":9412:9622   */\n      swap3\n      swap2\n      pop\n      pop\n      jump\t// out\n        /* \"#utility.yul\":9628:10009   */\n    tag_27:\n        /* \"#utility.yul\":9775:9779   */\n      0x00\n        /* \"#utility.yul\":9813:9815   */\n      0x20\n        /* \"#utility.yul\":9802:9811   */\n      dup3\n        /* \"#utility.yul\":9798:9816   */\n      add\n        /* \"#utility.yul\":9790:9816   */\n      swap1\n      pop\n        /* \"#utility.yul\":9862:9871   */\n      dup2\n        /* \"#utility.yul\":9856:9860   */\n      dup2\n        /* \"#utility.yul\":9852:9872   */\n      sub\n        /* \"#utility.yul\":9848:9849   */\n      0x00\n        /* \"#utility.yul\":9837:9846   */\n      dup4\n        /* \"#utility.yul\":9833:9850   */\n      add\n        /* \"#utility.yul\":9826:9873   */\n      mstore\n        /* \"#utility.yul\":9890:10002   */\n      tag_276\n        /* \"#utility.yul\":9997:10001   */\n      dup2\n        /* \"#utility.yul\":9988:9994   */\n      dup5\n        /* \"#utility.yul\":9890:10002   */\n      tag_243\n      jump\t// in\n    tag_276:\n        /* \"#utility.yul\":9882:10002   */\n      swap1\n      pop\n        /* \"#utility.yul\":9628:10009   */\n      swap3\n      swap2\n      pop\n      pop\n      jump\t// out\n        /* \"#utility.yul\":10015:10237   */\n    tag_52:\n        /* \"#utility.yul\":10108:10112   */\n      0x00\n        /* \"#utility.yul\":10146:10148   */\n      0x20\n        /* \"#utility.yul\":10135:10144   */\n      dup3\n        /* \"#utility.yul\":10131:10149   */\n      add\n        /* \"#utility.yul\":10123:10149   */\n      swap1\n      pop\n        /* \"#utility.yul\":10159:10230   */\n      tag_278\n        /* \"#utility.yul\":10227:10228   */\n      0x00\n        /* \"#utility.yul\":10216:10225   */\n      dup4\n        /* \"#utility.yul\":10212:10229   */\n      add\n        /* \"#utility.yul\":10203:10209   */\n      dup5\n        /* \"#utility.yul\":10159:10230   */\n      tag_255\n      jump\t// in\n    tag_278:\n        /* \"#utility.yul\":10015:10237   */\n      swap3\n      swap2\n      pop\n      pop\n      jump\t// out\n        /* \"#utility.yul\":10243:10575   */\n    tag_77:\n        /* \"#utility.yul\":10364:10368   */\n      0x00\n        /* \"#utility.yul\":10402:10404   */\n      0x40\n        /* \"#utility.yul\":10391:10400   */\n      dup3\n        /* \"#utility.yul\":10387:10405   */\n      add\n        /* \"#utility.yul\":10379:10405   */\n      swap1\n      pop\n        /* \"#utility.yul\":10415:10486   */\n      tag_280\n        /* \"#utility.yul\":10483:10484   */\n      0x00\n        /* \"#utility.yul\":10472:10481   */\n      dup4\n        /* \"#utility.yul\":10468:10485   */\n      add\n        /* \"#utility.yul\":10459:10465   */\n      dup6\n        /* \"#utility.yul\":10415:10486   */\n      tag_255\n      jump\t// in\n    tag_280:\n        /* \"#utility.yul\":10496:10568   */\n      tag_281\n        /* \"#utility.yul\":10564:10566   */\n      0x20\n        /* \"#utility.yul\":10553:10562   */\n      dup4\n        /* \"#utility.yul\":10549:10567   */\n      add\n        /* \"#utility.yul\":10540:10546   */\n      dup5\n        /* \"#utility.yul\":10496:10568   */\n      tag_192\n      jump\t// in\n    tag_281:\n        /* \"#utility.yul\":10243:10575   */\n      swap4\n      swap3\n      pop\n      pop\n      pop\n      jump\t// out\n        /* \"#utility.yul\":10581:10710   */\n    tag_145:\n        /* \"#utility.yul\":10615:10621   */\n      0x00\n        /* \"#utility.yul\":10642:10662   */\n      tag_283\n      tag_284\n      jump\t// in\n    tag_283:\n        /* \"#utility.yul\":10632:10662   */\n      swap1\n      pop\n        /* \"#utility.yul\":10671:10704   */\n      tag_285\n        /* \"#utility.yul\":10699:10703   */\n      dup3\n        /* \"#utility.yul\":10691:10697   */\n      dup3\n        /* \"#utility.yul\":10671:10704   */\n      tag_286\n      jump\t// in\n    tag_285:\n        /* \"#utility.yul\":10581:10710   */\n      swap2\n      swap1\n      pop\n      jump\t// out\n        /* \"#utility.yul\":10716:10791   */\n    tag_284:\n        /* \"#utility.yul\":10749:10755   */\n      0x00\n        /* \"#utility.yul\":10782:10784   */\n      0x40\n        /* \"#utility.yul\":10776:10785   */\n      mload\n        /* \"#utility.yul\":10766:10785   */\n      swap1\n      pop\n        /* \"#utility.yul\":10716:10791   */\n      swap1\n      jump\t// out\n        /* \"#utility.yul\":10797:11104   */\n    tag_144:\n        /* \"#utility.yul\":10858:10862   */\n      0x00\n        /* \"#utility.yul\":10948:10966   */\n      0xffffffffffffffff\n        /* \"#utility.yul\":10940:10946   */\n      dup3\n        /* \"#utility.yul\":10937:10967   */\n      gt\n        /* \"#utility.yul\":10934:10990   */\n      iszero\n      tag_289\n      jumpi\n        /* \"#utility.yul\":10970:10988   */\n      tag_290\n      tag_291\n      jump\t// in\n    tag_290:\n        /* \"#utility.yul\":10934:10990   */\n    tag_289:\n        /* \"#utility.yul\":11008:11037   */\n      tag_292\n        /* \"#utility.yul\":11030:11036   */\n      dup3\n        /* \"#utility.yul\":11008:11037   */\n      tag_211\n      jump\t// in\n    tag_292:\n        /* \"#utility.yul\":11000:11037   */\n      swap1\n      pop\n        /* \"#utility.yul\":11092:11096   */\n      0x20\n        /* \"#utility.yul\":11086:11090   */\n      dup2\n        /* \"#utility.yul\":11082:11097   */\n      add\n        /* \"#utility.yul\":11074:11097   */\n      swap1\n      pop\n        /* \"#utility.yul\":10797:11104   */\n      swap2\n      swap1\n      pop\n      jump\t// out\n        /* \"#utility.yul\":11110:11250   */\n    tag_227:\n        /* \"#utility.yul\":11158:11162   */\n      0x00\n        /* \"#utility.yul\":11181:11184   */\n      dup2\n        /* \"#utility.yul\":11173:11184   */\n      swap1\n      pop\n        /* \"#utility.yul\":11204:11207   */\n      dup2\n        /* \"#utility.yul\":11201:11202   */\n      0x00\n        /* \"#utility.yul\":11194:11208   */\n      mstore\n        /* \"#utility.yul\":11238:11242   */\n      0x20\n        /* \"#utility.yul\":11235:11236   */\n      0x00\n        /* \"#utility.yul\":11225:11243   */\n      keccak256\n        /* \"#utility.yul\":11217:11243   */\n      swap1\n      pop\n        /* \"#utility.yul\":11110:11250   */\n      swap2\n      swap1\n      pop\n      jump\t// out\n        /* \"#utility.yul\":11256:11354   */\n    tag_205:\n        /* \"#utility.yul\":11307:11313   */\n      0x00\n        /* \"#utility.yul\":11341:11346   */\n      dup2\n        /* \"#utility.yul\":11335:11347   */\n      mload\n        /* \"#utility.yul\":11325:11347   */\n      swap1\n      pop\n        /* \"#utility.yul\":11256:11354   */\n      swap2\n      swap1\n      pop\n      jump\t// out\n        /* \"#utility.yul\":11360:11518   */\n    tag_207:\n        /* \"#utility.yul\":11433:11444   */\n      0x00\n        /* \"#utility.yul\":11467:11473   */\n      dup3\n        /* \"#utility.yul\":11462:11465   */\n      dup3\n        /* \"#utility.yul\":11455:11474   */\n      mstore\n        /* \"#utility.yul\":11507:11511   */\n      0x20\n        /* \"#utility.yul\":11502:11505   */\n      dup3\n        /* \"#utility.yul\":11498:11512   */\n      add\n        /* \"#utility.yul\":11483:11512   */\n      swap1\n      pop\n        /* \"#utility.yul\":11360:11518   */\n      swap3\n      swap2\n      pop\n      pop\n      jump\t// out\n        /* \"#utility.yul\":11524:11692   */\n    tag_216:\n        /* \"#utility.yul\":11607:11618   */\n      0x00\n        /* \"#utility.yul\":11641:11647   */\n      dup3\n        /* \"#utility.yul\":11636:11639   */\n      dup3\n        /* \"#utility.yul\":11629:11648   */\n      mstore\n        /* \"#utility.yul\":11681:11685   */\n      0x20\n        /* \"#utility.yul\":11676:11679   */\n      dup3\n        /* \"#utility.yul\":11672:11686   */\n      add\n        /* \"#utility.yul\":11657:11686   */\n      swap1\n      pop\n        /* \"#utility.yul\":11524:11692   */\n      swap3\n      swap2\n      pop\n      pop\n      jump\t// out\n        /* \"#utility.yul\":11698:11845   */\n    tag_235:\n        /* \"#utility.yul\":11799:11810   */\n      0x00\n        /* \"#utility.yul\":11836:11839   */\n      dup2\n        /* \"#utility.yul\":11821:11839   */\n      swap1\n      pop\n        /* \"#utility.yul\":11698:11845   */\n      swap3\n      swap2\n      pop\n      pop\n      jump\t// out\n        /* \"#utility.yul\":11851:12042   */\n    tag_67:\n        /* \"#utility.yul\":11891:11895   */\n      0x00\n        /* \"#utility.yul\":11911:11931   */\n      tag_299\n        /* \"#utility.yul\":11929:11930   */\n      dup3\n        /* \"#utility.yul\":11911:11931   */\n      tag_254\n      jump\t// in\n    tag_299:\n        /* \"#utility.yul\":11906:11931   */\n      swap2\n      pop\n        /* \"#utility.yul\":11945:11965   */\n      tag_300\n        /* \"#utility.yul\":11963:11964   */\n      dup4\n        /* \"#utility.yul\":11945:11965   */\n      tag_254\n      jump\t// in\n    tag_300:\n        /* \"#utility.yul\":11940:11965   */\n      swap3\n      pop\n        /* \"#utility.yul\":11984:11985   */\n      dup3\n        /* \"#utility.yul\":11981:11982   */\n      dup3\n        /* \"#utility.yul\":11978:11986   */\n      lt\n        /* \"#utility.yul\":11975:12009   */\n      iszero\n      tag_301\n      jumpi\n        /* \"#utility.yul\":11989:12007   */\n      tag_302\n      tag_303\n      jump\t// in\n    tag_302:\n        /* \"#utility.yul\":11975:12009   */\n    tag_301:\n        /* \"#utility.yul\":12034:12035   */\n      dup3\n        /* \"#utility.yul\":12031:12032   */\n      dup3\n        /* \"#utility.yul\":12027:12036   */\n      sub\n        /* \"#utility.yul\":12019:12036   */\n      swap1\n      pop\n        /* \"#utility.yul\":11851:12042   */\n      swap3\n      swap2\n      pop\n      pop\n      jump\t// out\n        /* \"#utility.yul\":12048:12144   */\n    tag_191:\n        /* \"#utility.yul\":12085:12092   */\n      0x00\n        /* \"#utility.yul\":12114:12138   */\n      tag_305\n        /* \"#utility.yul\":12132:12137   */\n      dup3\n        /* \"#utility.yul\":12114:12138   */\n      tag_306\n      jump\t// in\n    tag_305:\n        /* \"#utility.yul\":12103:12138   */\n      swap1\n      pop\n        /* \"#utility.yul\":12048:12144   */\n      swap2\n      swap1\n      pop\n      jump\t// out\n        /* \"#utility.yul\":12150:12240   */\n    tag_198:\n        /* \"#utility.yul\":12184:12191   */\n      0x00\n        /* \"#utility.yul\":12227:12232   */\n      dup2\n        /* \"#utility.yul\":12220:12233   */\n      iszero\n        /* \"#utility.yul\":12213:12234   */\n      iszero\n        /* \"#utility.yul\":12202:12234   */\n      swap1\n      pop\n        /* \"#utility.yul\":12150:12240   */\n      swap2\n      swap1\n      pop\n      jump\t// out\n        /* \"#utility.yul\":12246:12372   */\n    tag_306:\n        /* \"#utility.yul\":12283:12290   */\n      0x00\n        /* \"#utility.yul\":12323:12365   */\n      0xffffffffffffffffffffffffffffffffffffffff\n        /* \"#utility.yul\":12316:12321   */\n      dup3\n        /* \"#utility.yul\":12312:12366   */\n      and\n        /* \"#utility.yul\":12301:12366   */\n      swap1\n      pop\n        /* \"#utility.yul\":12246:12372   */\n      swap2\n      swap1\n      pop\n      jump\t// out\n        /* \"#utility.yul\":12378:12455   */\n    tag_254:\n        /* \"#utility.yul\":12415:12422   */\n      0x00\n        /* \"#utility.yul\":12444:12449   */\n      dup2\n        /* \"#utility.yul\":12433:12449   */\n      swap1\n      pop\n        /* \"#utility.yul\":12378:12455   */\n      swap2\n      swap1\n      pop\n      jump\t// out\n        /* \"#utility.yul\":12461:12615   */\n    tag_150:\n        /* \"#utility.yul\":12545:12551   */\n      dup3\n        /* \"#utility.yul\":12540:12543   */\n      dup2\n        /* \"#utility.yul\":12535:12538   */\n      dup4\n        /* \"#utility.yul\":12522:12552   */\n      calldatacopy\n        /* \"#utility.yul\":12607:12608   */\n      0x00\n        /* \"#utility.yul\":12598:12604   */\n      dup4\n        /* \"#utility.yul\":12593:12596   */\n      dup4\n        /* \"#utility.yul\":12589:12605   */\n      add\n        /* \"#utility.yul\":12582:12609   */\n      mstore\n        /* \"#utility.yul\":12461:12615   */\n      pop\n      pop\n      pop\n      jump\t// out\n        /* \"#utility.yul\":12621:12928   */\n    tag_209:\n        /* \"#utility.yul\":12689:12690   */\n      0x00\n        /* \"#utility.yul\":12699:12812   */\n    tag_312:\n        /* \"#utility.yul\":12713:12719   */\n      dup4\n        /* \"#utility.yul\":12710:12711   */\n      dup2\n        /* \"#utility.yul\":12707:12720   */\n      lt\n        /* \"#utility.yul\":12699:12812   */\n      iszero\n      tag_314\n      jumpi\n        /* \"#utility.yul\":12798:12799   */\n      dup1\n        /* \"#utility.yul\":12793:12796   */\n      dup3\n        /* \"#utility.yul\":12789:12800   */\n      add\n        /* \"#utility.yul\":12783:12801   */\n      mload\n        /* \"#utility.yul\":12779:12780   */\n      dup2\n        /* \"#utility.yul\":12774:12777   */\n      dup5\n        /* \"#utility.yul\":12770:12781   */\n      add\n        /* \"#utility.yul\":12763:12802   */\n      mstore\n        /* \"#utility.yul\":12735:12737   */\n      0x20\n        /* \"#utility.yul\":12732:12733   */\n      dup2\n        /* \"#utility.yul\":12728:12738   */\n      add\n        /* \"#utility.yul\":12723:12738   */\n      swap1\n      pop\n        /* \"#utility.yul\":12699:12812   */\n      jump(tag_312)\n    tag_314:\n        /* \"#utility.yul\":12830:12836   */\n      dup4\n        /* \"#utility.yul\":12827:12828   */\n      dup2\n        /* \"#utility.yul\":12824:12837   */\n      gt\n        /* \"#utility.yul\":12821:12922   */\n      iszero\n      tag_315\n      jumpi\n        /* \"#utility.yul\":12910:12911   */\n      0x00\n        /* \"#utility.yul\":12901:12907   */\n      dup5\n        /* \"#utility.yul\":12896:12899   */\n      dup5\n        /* \"#utility.yul\":12892:12908   */\n      add\n        /* \"#utility.yul\":12885:12912   */\n      mstore\n        /* \"#utility.yul\":12821:12922   */\n    tag_315:\n        /* \"#utility.yul\":12670:12928   */\n      pop\n        /* \"#utility.yul\":12621:12928   */\n      pop\n      pop\n      pop\n      jump\t// out\n        /* \"#utility.yul\":12934:13105   */\n    tag_117:\n        /* \"#utility.yul\":12973:12976   */\n      0x00\n        /* \"#utility.yul\":12996:13020   */\n      tag_317\n        /* \"#utility.yul\":13014:13019   */\n      dup3\n        /* \"#utility.yul\":12996:13020   */\n      tag_254\n      jump\t// in\n    tag_317:\n        /* \"#utility.yul\":12987:13020   */\n      swap2\n      pop\n        /* \"#utility.yul\":13042:13046   */\n      0x00\n        /* \"#utility.yul\":13035:13040   */\n      dup3\n        /* \"#utility.yul\":13032:13047   */\n      eq\n        /* \"#utility.yul\":13029:13070   */\n      iszero\n      tag_318\n      jumpi\n        /* \"#utility.yul\":13050:13068   */\n      tag_319\n      tag_303\n      jump\t// in\n    tag_319:\n        /* \"#utility.yul\":13029:13070   */\n    tag_318:\n        /* \"#utility.yul\":13097:13098   */\n      0x01\n        /* \"#utility.yul\":13090:13095   */\n      dup3\n        /* \"#utility.yul\":13086:13099   */\n      sub\n        /* \"#utility.yul\":13079:13099   */\n      swap1\n      pop\n        /* \"#utility.yul\":12934:13105   */\n      swap2\n      swap1\n      pop\n      jump\t// out\n        /* \"#utility.yul\":13111:13431   */\n    tag_85:\n        /* \"#utility.yul\":13155:13161   */\n      0x00\n        /* \"#utility.yul\":13192:13193   */\n      0x02\n        /* \"#utility.yul\":13186:13190   */\n      dup3\n        /* \"#utility.yul\":13182:13194   */\n      div\n        /* \"#utility.yul\":13172:13194   */\n      swap1\n      pop\n        /* \"#utility.yul\":13239:13240   */\n      0x01\n        /* \"#utility.yul\":13233:13237   */\n      dup3\n        /* \"#utility.yul\":13229:13241   */\n      and\n        /* \"#utility.yul\":13260:13278   */\n      dup1\n        /* \"#utility.yul\":13250:13331   */\n      tag_321\n      jumpi\n        /* \"#utility.yul\":13316:13320   */\n      0x7f\n        /* \"#utility.yul\":13308:13314   */\n      dup3\n        /* \"#utility.yul\":13304:13321   */\n      and\n        /* \"#utility.yul\":13294:13321   */\n      swap2\n      pop\n        /* \"#utility.yul\":13250:13331   */\n    tag_321:\n        /* \"#utility.yul\":13378:13380   */\n      0x20\n        /* \"#utility.yul\":13370:13376   */\n      dup3\n        /* \"#utility.yul\":13367:13381   */\n      lt\n        /* \"#utility.yul\":13347:13365   */\n      dup2\n        /* \"#utility.yul\":13344:13382   */\n      eq\n        /* \"#utility.yul\":13341:13425   */\n      iszero\n      tag_322\n      jumpi\n        /* \"#utility.yul\":13397:13415   */\n      tag_323\n      tag_324\n      jump\t// in\n    tag_323:\n        /* \"#utility.yul\":13341:13425   */\n    tag_322:\n        /* \"#utility.yul\":13162:13431   */\n      pop\n        /* \"#utility.yul\":13111:13431   */\n      swap2\n      swap1\n      pop\n      jump\t// out\n        /* \"#utility.yul\":13437:13718   */\n    tag_286:\n        /* \"#utility.yul\":13520:13547   */\n      tag_326\n        /* \"#utility.yul\":13542:13546   */\n      dup3\n        /* \"#utility.yul\":13520:13547   */\n      tag_211\n      jump\t// in\n    tag_326:\n        /* \"#utility.yul\":13512:13518   */\n      dup2\n        /* \"#utility.yul\":13508:13548   */\n      add\n        /* \"#utility.yul\":13650:13656   */\n      dup2\n        /* \"#utility.yul\":13638:13648   */\n      dup2\n        /* \"#utility.yul\":13635:13657   */\n      lt\n        /* \"#utility.yul\":13614:13632   */\n      0xffffffffffffffff\n        /* \"#utility.yul\":13602:13612   */\n      dup3\n        /* \"#utility.yul\":13599:13633   */\n      gt\n        /* \"#utility.yul\":13596:13658   */\n      or\n        /* \"#utility.yul\":13593:13681   */\n      iszero\n      tag_327\n      jumpi\n        /* \"#utility.yul\":13661:13679   */\n      tag_328\n      tag_291\n      jump\t// in\n    tag_328:\n        /* \"#utility.yul\":13593:13681   */\n    tag_327:\n        /* \"#utility.yul\":13701:13711   */\n      dup1\n        /* \"#utility.yul\":13697:13699   */\n      0x40\n        /* \"#utility.yul\":13690:13712   */\n      mstore\n        /* \"#utility.yul\":13480:13718   */\n      pop\n        /* \"#utility.yul\":13437:13718   */\n      pop\n      pop\n      jump\t// out\n        /* \"#utility.yul\":13724:13957   */\n    tag_75:\n        /* \"#utility.yul\":13763:13766   */\n      0x00\n        /* \"#utility.yul\":13786:13810   */\n      tag_330\n        /* \"#utility.yul\":13804:13809   */\n      dup3\n        /* \"#utility.yul\":13786:13810   */\n      tag_254\n      jump\t// in\n    tag_330:\n        /* \"#utility.yul\":13777:13810   */\n      swap2\n      pop\n        /* \"#utility.yul\":13832:13898   */\n      0xffffffffffffffffffffffffffffffffffffffffffffffffffffffffffffffff\n        /* \"#utility.yul\":13825:13830   */\n      dup3\n        /* \"#utility.yul\":13822:13899   */\n      eq\n        /* \"#utility.yul\":13819:13922   */\n      iszero\n      tag_331\n      jumpi\n        /* \"#utility.yul\":13902:13920   */\n      tag_332\n      tag_303\n      jump\t// in\n    tag_332:\n        /* \"#utility.yul\":13819:13922   */\n    tag_331:\n        /* \"#utility.yul\":13949:13950   */\n      0x01\n        /* \"#utility.yul\":13942:13947   */\n      dup3\n        /* \"#utility.yul\":13938:13951   */\n      add\n        /* \"#utility.yul\":13931:13951   */\n      swap1\n      pop\n        /* \"#utility.yul\":13724:13957   */\n      swap2\n      swap1\n      pop\n      jump\t// out\n        /* \"#utility.yul\":13963:14143   */\n    tag_303:\n        /* \"#utility.yul\":14011:14088   */\n      0x4e487b7100000000000000000000000000000000000000000000000000000000\n        /* \"#utility.yul\":14008:14009   */\n      0x00\n        /* \"#utility.yul\":14001:14089   */\n      mstore\n        /* \"#utility.yul\":14108:14112   */\n      0x11\n        /* \"#utility.yul\":14105:14106   */\n      0x04\n        /* \"#utility.yul\":14098:14113   */\n      mstore\n        /* \"#utility.yul\":14132:14136   */\n      0x24\n        /* \"#utility.yul\":14129:14130   */\n      0x00\n        /* \"#utility.yul\":14122:14137   */\n      revert\n        /* \"#utility.yul\":14149:14329   */\n    tag_324:\n        /* \"#utility.yul\":14197:14274   */\n      0x4e487b7100000000000000000000000000000000000000000000000000000000\n        /* \"#utility.yul\":14194:14195   */\n      0x00\n        /* \"#utility.yul\":14187:14275   */\n      mstore\n        /* \"#utility.yul\":14294:14298   */\n      0x22\n        /* \"#utility.yul\":14291:14292   */\n      0x04\n        /* \"#utility.yul\":14284:14299   */\n      mstore\n        /* \"#utility.yul\":14318:14322   */\n      0x24\n        /* \"#utility.yul\":14315:14316   */\n      0x00\n        /* \"#utility.yul\":14308:14323   */\n      revert\n        /* \"#utility.yul\":14335:14515   */\n    tag_291:\n        /* \"#utility.yul\":14383:14460   */\n      0x4e487b7100000000000000000000000000000000000000000000000000000000\n        /* \"#utility.yul\":14380:14381   */\n      0x00\n        /* \"#utility.yul\":14373:14461   */\n      mstore\n        /* \"#utility.yul\":14480:14484   */\n      0x41\n        /* \"#utility.yul\":14477:14478   */\n      0x04\n        /* \"#utility.yul\":14470:14485   */\n      mstore\n        /* \"#utility.yul\":14504:14508   */\n      0x24\n        /* \"#utility.yul\":14501:14502   */\n      0x00\n        /* \"#utility.yul\":14494:14509   */\n      revert\n        /* \"#utility.yul\":14521:14638   */\n    tag_159:\n        /* \"#utility.yul\":14630:14631   */\n      0x00\n        /* \"#utility.yul\":14627:14628   */\n      dup1\n        /* \"#utility.yul\":14620:14632   */\n      revert\n        /* \"#utility.yul\":14644:14761   */\n    tag_148:\n        /* \"#utility.yul\":14753:14754   */\n      0x00\n        /* \"#utility.yul\":14750:14751   */\n      dup1\n        /* \"#utility.yul\":14743:14755   */\n      revert\n        /* \"#utility.yul\":14767:14884   */\n    tag_177:\n        /* \"#utility.yul\":14876:14877   */\n      0x00\n        /* \"#utility.yul\":14873:14874   */\n      dup1\n        /* \"#utility.yul\":14866:14878   */\n      revert\n        /* \"#utility.yul\":14890:15007   */\n    tag_168:\n        /* \"#utility.yul\":14999:15000   */\n      0x00\n        /* \"#utility.yul\":14996:14997   */\n      dup1\n        /* \"#utility.yul\":14989:15001   */\n      revert\n        /* \"#utility.yul\":15013:15115   */\n    tag_211:\n        /* \"#utility.yul\":15054:15060   */\n      0x00\n        /* \"#utility.yul\":15105:15107   */\n      0x1f\n        /* \"#utility.yul\":15101:15108   */\n      not\n        /* \"#utility.yul\":15096:15098   */\n      0x1f\n        /* \"#utility.yul\":15089:15094   */\n      dup4\n        /* \"#utility.yul\":15085:15099   */\n      add\n        /* \"#utility.yul\":15081:15109   */\n      and\n        /* \"#utility.yul\":15071:15109   */\n      swap1\n      pop\n        /* \"#utility.yul\":15013:15115   */\n      swap2\n      swap1\n      pop\n      jump\t// out\n        /* \"#utility.yul\":15121:15243   */\n    tag_154:\n        /* \"#utility.yul\":15194:15218   */\n      tag_342\n        /* \"#utility.yul\":15212:15217   */\n      dup2\n        /* \"#utility.yul\":15194:15218   */\n      tag_191\n      jump\t// in\n    tag_342:\n        /* \"#utility.yul\":15187:15192   */\n      dup2\n        /* \"#utility.yul\":15184:15219   */\n      eq\n        /* \"#utility.yul\":15174:15237   */\n      tag_343\n      jumpi\n        /* \"#utility.yul\":15233:15234   */\n      0x00\n        /* \"#utility.yul\":15230:15231   */\n      dup1\n        /* \"#utility.yul\":15223:15235   */\n      revert\n        /* \"#utility.yul\":15174:15237   */\n    tag_343:\n        /* \"#utility.yul\":15121:15243   */\n      pop\n      jump\t// out\n        /* \"#utility.yul\":15249:15371   */\n    tag_164:\n        /* \"#utility.yul\":15322:15346   */\n      tag_345\n        /* \"#utility.yul\":15340:15345   */\n      dup2\n        /* \"#utility.yul\":15322:15346   */\n      tag_254\n      jump\t// in\n    tag_345:\n        /* \"#utility.yul\":15315:15320   */\n      dup2\n        /* \"#utility.yul\":15312:15347   */\n      eq\n        /* \"#utility.yul\":15302:15365   */\n      tag_346\n      jumpi\n        /* \"#utility.yul\":15361:15362   */\n      0x00\n        /* \"#utility.yul\":15358:15359   */\n      dup1\n        /* \"#utility.yul\":15351:15363   */\n      revert\n        /* \"#utility.yul\":15302:15365   */\n    tag_346:\n        /* \"#utility.yul\":15249:15371   */\n      pop\n      jump\t// out\n\n    auxdata: 0xa2646970667358221220f41e2172200ac3393b29ad27933c1520c72a745bad8e8b5b26ba54e10eb74a3164736f6c63430008070033\n}\n",
				"bytecode": {
					"linkReferences": {},
					"object": "60806040523480156200001157600080fd5b5060405162001cf938038062001cf98339818101604052810190620000379190620002e8565b815181111562000073576040517faa6eac5100000000000000000000000000000000000000000000000000000000815260040160405180910390fd5b60005b8251811015620001fc57600083828151811062000098576200009762000497565b5b60200260200101519050600073ffffffffffffffffffffffffffffffffffffffff168173ffffffffffffffffffffffffffffffffffffffff1614156200010a576040517fd924e5f400000000000000000000000000000000000000000000000000000000815260040160405180910390fd5b6000808273ffffffffffffffffffffffffffffffffffffffff1673ffffffffffffffffffffffffffffffffffffffff16815260200190815260200160002060009054906101000a900460ff16156200018e576040517fc0159e0e00000000000000000000000000000000000000000000000000000000815260040160405180910390fd5b60016000808373ffffffffffffffffffffffffffffffffffffffff1673ffffffffffffffffffffffffffffffffffffffff16815260200190815260200160002060006101000a81548160ff021916908315150217905550508080620001f3906200041a565b91505062000076565b508060038190555050506200054e565b6000620002236200021d8462000377565b6200034e565b90508083825260208201905082856020860282011115620002495762000248620004fa565b5b60005b858110156200027d578162000262888262000287565b8452602084019350602083019250506001810190506200024c565b5050509392505050565b60008151905062000298816200051a565b92915050565b600082601f830112620002b657620002b5620004f5565b5b8151620002c88482602086016200020c565b91505092915050565b600081519050620002e28162000534565b92915050565b6000806040838503121562000302576200030162000504565b5b600083015167ffffffffffffffff811115620003235762000322620004ff565b5b62000331858286016200029e565b92505060206200034485828601620002d1565b9150509250929050565b60006200035a6200036d565b9050620003688282620003e4565b919050565b6000604051905090565b600067ffffffffffffffff821115620003955762000394620004c6565b5b602082029050602081019050919050565b6000620003b382620003ba565b9050919050565b600073ffffffffffffffffffffffffffffffffffffffff82169050919050565b6000819050919050565b620003ef8262000509565b810181811067ffffffffffffffff82111715620004115762000410620004c6565b5b80604052505050565b60006200042782620003da565b91507fffffffffffffffffffffffffffffffffffffffffffffffffffffffffffffffff8214156200045d576200045c62000468565b5b600182019050919050565b7f4e487b7100000000000000000000000000000000000000000000000000000000600052601160045260246000fd5b7f4e487b7100000000000000000000000000000000000000000000000000000000600052603260045260246000fd5b7f4e487b7100000000000000000000000000000000000000000000000000000000600052604160045260246000fd5b600080fd5b600080fd5b600080fd5b600080fd5b6000601f19601f8301169050919050565b6200052581620003a6565b81146200053157600080fd5b50565b6200053f81620003da565b81146200054b57600080fd5b50565b61179b806200055e6000396000f3fe60806040526004361061008a5760003560e01c80638f9487eb116100595780638f9487eb14610189578063bb84c5a9146101c6578063cd568d1f146101ef578063dc8452cd1461021a578063e0e3671c14610245576100cc565b80631087393a146100d157806333ea3dc8146100fa57806354b5fe80146101375780635986aaca14610160576100cc565b366100cc577f90890809c654f11d6e72a28fa60149770a0d11ec6c92319d6ceb2bb0a4ea1a153334476040516100c293929190611396565b60405180910390a1005b600080fd5b3480156100dd57600080fd5b506100f860048036038101906100f39190611034565b610282565b005b34801561010657600080fd5b50610121600480360381019061011c9190611034565b610513565b60405161012e91906113e8565b60405180910390f35b34801561014357600080fd5b5061015e60048036038101906101599190611034565b6106ab565b005b34801561016c57600080fd5b5061018760048036038101906101829190611034565b610985565b005b34801561019557600080fd5b506101b060048036038101906101ab9190611061565b610be0565b6040516101bd91906113cd565b60405180910390f35b3480156101d257600080fd5b506101ed60048036038101906101e89190610fc5565b610c48565b005b3480156101fb57600080fd5b50610204610dac565b604051610211919061140a565b60405180910390f35b34801561022657600080fd5b5061022f610db2565b60405161023c919061140a565b60405180910390f35b34801561025157600080fd5b5061026c60048036038101906102679190610f98565b610db8565b60405161027991906113cd565b60405180910390f35b6000803373ffffffffffffffffffffffffffffffffffffffff1673ffffffffffffffffffffffffffffffffffffffff16815260200190815260200160002060009054906101000a900460ff16610304576040517f30cd747100000000000000000000000000000000000000000000000000000000815260040160405180910390fd5b80600160045461031491906114f1565b81111561034d576040517f9e1b596f00000000000000000000000000000000000000000000000000000000815260040160405180910390fd5b816002600082815260200190815260200160002060003373ffffffffffffffffffffffffffffffffffffffff1673ffffffffffffffffffffffffffffffffffffffff16815260200190815260200160002060009054906101000a900460ff16156103e3576040517f5db7ec0d00000000000000000000000000000000000000000000000000000000815260040160405180910390fd5b826001600082815260200190815260200160002060050160009054906101000a900460ff161561043f576040517f2ea945cf00000000000000000000000000000000000000000000000000000000815260040160405180910390fd5b6001600085815260200190815260200160002060040160008154809291906104669061163c565b919050555060016002600086815260200190815260200160002060003373ffffffffffffffffffffffffffffffffffffffff1673ffffffffffffffffffffffffffffffffffffffff16815260200190815260200160002060006101000a81548160ff0219169083151502179055507fd4329d04e785ebe84c72dcd09fb9c65f1fbbda53ee15ec20e93342c7f3e2a62d8433604051610505929190611425565b60405180910390a150505050565b61051b610e0d565b81600160045461052b91906114f1565b811115610564576040517f9e1b596f00000000000000000000000000000000000000000000000000000000815260040160405180910390fd5b600160008481526020019081526020016000206040518060c0016040529081600082015481526020016001820160009054906101000a900473ffffffffffffffffffffffffffffffffffffffff1673ffffffffffffffffffffffffffffffffffffffff1673ffffffffffffffffffffffffffffffffffffffff168152602001600282015481526020016003820180546105fc906115d9565b80601f0160208091040260200160405190810160405280929190818152602001828054610628906115d9565b80156106755780601f1061064a57610100808354040283529160200191610675565b820191906000526020600020905b81548152906001019060200180831161065857829003601f168201915b50505050508152602001600482015481526020016005820160009054906101000a900460ff161515151581525050915050919050565b6000803373ffffffffffffffffffffffffffffffffffffffff1673ffffffffffffffffffffffffffffffffffffffff16815260200190815260200160002060009054906101000a900460ff1661072d576040517f30cd747100000000000000000000000000000000000000000000000000000000815260040160405180910390fd5b80600160045461073d91906114f1565b811115610776576040517f9e1b596f00000000000000000000000000000000000000000000000000000000815260040160405180910390fd5b816001600082815260200190815260200160002060050160009054906101000a900460ff16156107d2576040517f2ea945cf00000000000000000000000000000000000000000000000000000000815260040160405180910390fd5b600060016000858152602001908152602001600020905060035481600401541015610829576040517f9dd63cb700000000000000000000000000000000000000000000000000000000815260040160405180910390fd5b60018160050160006101000a81548160ff02191690831515021790555060008160010160009054906101000a900473ffffffffffffffffffffffffffffffffffffffff1673ffffffffffffffffffffffffffffffffffffffff1682600201548360030160405161089991906112f5565b60006040518083038185875af1925050503d80600081146108d6576040519150601f19603f3d011682016040523d82523d6000602084013e6108db565b606091505b5050905080610916576040517fcb2f2a1c00000000000000000000000000000000000000000000000000000000815260040160405180910390fd5b7fb91792dfbec9d14f14efe0fd0328fe544073cd1befa73f98441bce708e6431798260010160009054906101000a900473ffffffffffffffffffffffffffffffffffffffff1683600201548460030133604051610976949392919061134a565b60405180910390a15050505050565b6000803373ffffffffffffffffffffffffffffffffffffffff1673ffffffffffffffffffffffffffffffffffffffff16815260200190815260200160002060009054906101000a900460ff16610a07576040517f30cd747100000000000000000000000000000000000000000000000000000000815260040160405180910390fd5b806001600454610a1791906114f1565b811115610a50576040517f9e1b596f00000000000000000000000000000000000000000000000000000000815260040160405180910390fd5b816001600082815260200190815260200160002060050160009054906101000a900460ff1615610aac576040517f2ea945cf00000000000000000000000000000000000000000000000000000000815260040160405180910390fd5b6002600084815260200190815260200160002060003373ffffffffffffffffffffffffffffffffffffffff1673ffffffffffffffffffffffffffffffffffffffff16815260200190815260200160002060009054906101000a900460ff1615610ba957600160008481526020019081526020016000206004016000815480929190610b36906115af565b919050555060006002600085815260200190815260200160002060003373ffffffffffffffffffffffffffffffffffffffff1673ffffffffffffffffffffffffffffffffffffffff16815260200190815260200160002060006101000a81548160ff021916908315150217905550610bdb565b6040517ffafe52bf00000000000000000000000000000000000000000000000000000000815260040160405180910390fd5b505050565b60006002600084815260200190815260200160002060008373ffffffffffffffffffffffffffffffffffffffff1673ffffffffffffffffffffffffffffffffffffffff16815260200190815260200160002060009054906101000a900460ff16905092915050565b6000803373ffffffffffffffffffffffffffffffffffffffff1673ffffffffffffffffffffffffffffffffffffffff16815260200190815260200160002060009054906101000a900460ff16610cca576040517f30cd747100000000000000000000000000000000000000000000000000000000815260040160405180910390fd5b600060016000600454815260200190815260200160002090506004548160000181905550838160010160006101000a81548173ffffffffffffffffffffffffffffffffffffffff021916908373ffffffffffffffffffffffffffffffffffffffff16021790555082816002018190555081816003019080519060200190610d52929190610e5b565b5060046000815480929190610d669061163c565b91905055507f315d8bf6c6d36a1411ee3d8d607b26df37940936bd273e006857a296fbac2ce8848484604051610d9e9392919061130c565b60405180910390a150505050565b60045481565b60035481565b60008060008373ffffffffffffffffffffffffffffffffffffffff1673ffffffffffffffffffffffffffffffffffffffff16815260200190815260200160002060009054906101000a900460ff169050919050565b6040518060c0016040528060008152602001600073ffffffffffffffffffffffffffffffffffffffff1681526020016000815260200160608152602001600081526020016000151581525090565b828054610e67906115d9565b90600052602060002090601f016020900481019282610e895760008555610ed0565b82601f10610ea257805160ff1916838001178555610ed0565b82800160010185558215610ed0579182015b82811115610ecf578251825591602001919060010190610eb4565b5b509050610edd9190610ee1565b5090565b5b80821115610efa576000816000905550600101610ee2565b5090565b6000610f11610f0c84611473565b61144e565b905082815260208101848484011115610f2d57610f2c611717565b5b610f3884828561156d565b509392505050565b600081359050610f4f81611737565b92915050565b600082601f830112610f6a57610f69611712565b5b8135610f7a848260208601610efe565b91505092915050565b600081359050610f928161174e565b92915050565b600060208284031215610fae57610fad611721565b5b6000610fbc84828501610f40565b91505092915050565b600080600060608486031215610fde57610fdd611721565b5b6000610fec86828701610f40565b9350506020610ffd86828701610f83565b925050604084013567ffffffffffffffff81111561101e5761101d61171c565b5b61102a86828701610f55565b9150509250925092565b60006020828403121561104a57611049611721565b5b600061105884828501610f83565b91505092915050565b6000806040838503121561107857611077611721565b5b600061108685828601610f83565b925050602061109785828601610f40565b9150509250929050565b6110aa81611525565b82525050565b6110b981611525565b82525050565b6110c881611537565b82525050565b6110d781611537565b82525050565b60006110e8826114b9565b6110f281856114c4565b935061110281856020860161157c565b61110b81611726565b840191505092915050565b6000611121826114b9565b61112b81856114d5565b935061113b81856020860161157c565b61114481611726565b840191505092915050565b6000815461115c816115d9565b61116681866114d5565b945060018216600081146111815760018114611193576111c6565b60ff19831686526020860193506111c6565b61119c856114a4565b60005b838110156111be5781548189015260018201915060208101905061119f565b808801955050505b50505092915050565b600081546111dc816115d9565b6111e681866114e6565b94506001821660008114611201576001811461121257611245565b60ff19831686528186019350611245565b61121b856114a4565b60005b8381101561123d5781548189015260018201915060208101905061121e565b838801955050505b50505092915050565b600060c08301600083015161126660008601826112d7565b50602083015161127960208601826110a1565b50604083015161128c60408601826112d7565b50606083015184820360608601526112a482826110dd565b91505060808301516112b960808601826112d7565b5060a08301516112cc60a08601826110bf565b508091505092915050565b6112e081611563565b82525050565b6112ef81611563565b82525050565b600061130182846111cf565b915081905092915050565b600060608201905061132160008301866110b0565b61132e60208301856112e6565b81810360408301526113408184611116565b9050949350505050565b600060808201905061135f60008301876110b0565b61136c60208301866112e6565b818103604083015261137e818561114f565b905061138d60608301846110b0565b95945050505050565b60006060820190506113ab60008301866110b0565b6113b860208301856112e6565b6113c560408301846112e6565b949350505050565b60006020820190506113e260008301846110ce565b92915050565b60006020820190508181036000830152611402818461124e565b905092915050565b600060208201905061141f60008301846112e6565b92915050565b600060408201905061143a60008301856112e6565b61144760208301846110b0565b9392505050565b6000611458611469565b9050611464828261160b565b919050565b6000604051905090565b600067ffffffffffffffff82111561148e5761148d6116e3565b5b61149782611726565b9050602081019050919050565b60008190508160005260206000209050919050565b600081519050919050565b600082825260208201905092915050565b600082825260208201905092915050565b600081905092915050565b60006114fc82611563565b915061150783611563565b92508282101561151a57611519611685565b5b828203905092915050565b600061153082611543565b9050919050565b60008115159050919050565b600073ffffffffffffffffffffffffffffffffffffffff82169050919050565b6000819050919050565b82818337600083830152505050565b60005b8381101561159a57808201518184015260208101905061157f565b838111156115a9576000848401525b50505050565b60006115ba82611563565b915060008214156115ce576115cd611685565b5b600182039050919050565b600060028204905060018216806115f157607f821691505b60208210811415611605576116046116b4565b5b50919050565b61161482611726565b810181811067ffffffffffffffff82111715611633576116326116e3565b5b80604052505050565b600061164782611563565b91507fffffffffffffffffffffffffffffffffffffffffffffffffffffffffffffffff82141561167a57611679611685565b5b600182019050919050565b7f4e487b7100000000000000000000000000000000000000000000000000000000600052601160045260246000fd5b7f4e487b7100000000000000000000000000000000000000000000000000000000600052602260045260246000fd5b7f4e487b7100000000000000000000000000000000000000000000000000000000600052604160045260246000fd5b600080fd5b600080fd5b600080fd5b600080fd5b6000601f19601f8301169050919050565b61174081611525565b811461174b57600080fd5b50565b61175781611563565b811461176257600080fd5b5056fea2646970667358221220f41e2172200ac3393b29ad27933c1520c72a745bad8e8b5b26ba54e10eb74a3164736f6c63430008070033",
					"opcodes": "PUSH1 0x80 PUSH1 0x40 MSTORE CALLVALUE DUP1 ISZERO PUSH3 0x11 JUMPI PUSH1 0x0 DUP1 REVERT JUMPDEST POP PUSH1 0x40 MLOAD PUSH3 0x1CF9 CODESIZE SUB DUP1 PUSH3 0x1CF9 DUP4 CODECOPY DUP2 DUP2 ADD PUSH1 0x40 MSTORE DUP2 ADD SWAP1 PUSH3 0x37 SWAP2 SWAP1 PUSH3 0x2E8 JUMP JUMPDEST DUP2 MLOAD DUP2 GT ISZERO PUSH3 0x73 JUMPI PUSH1 0x40 MLOAD PUSH32 0xAA6EAC5100000000000000000000000000000000000000000000000000000000 DUP2 MSTORE PUSH1 0x4 ADD PUSH1 0x40 MLOAD DUP1 SWAP2 SUB SWAP1 REVERT JUMPDEST PUSH1 0x0 JUMPDEST DUP3 MLOAD DUP2 LT ISZERO PUSH3 0x1FC JUMPI PUSH1 0x0 DUP4 DUP3 DUP2 MLOAD DUP2 LT PUSH3 0x98 JUMPI PUSH3 0x97 PUSH3 0x497 JUMP JUMPDEST JUMPDEST PUSH1 0x20 MUL PUSH1 0x20 ADD ADD MLOAD SWAP1 POP PUSH1 0x0 PUSH20 0xFFFFFFFFFFFFFFFFFFFFFFFFFFFFFFFFFFFFFFFF AND DUP2 PUSH20 0xFFFFFFFFFFFFFFFFFFFFFFFFFFFFFFFFFFFFFFFF AND EQ ISZERO PUSH3 0x10A JUMPI PUSH1 0x40 MLOAD PUSH32 0xD924E5F400000000000000000000000000000000000000000000000000000000 DUP2 MSTORE PUSH1 0x4 ADD PUSH1 0x40 MLOAD DUP1 SWAP2 SUB SWAP1 REVERT JUMPDEST PUSH1 0x0 DUP1 DUP3 PUSH20 0xFFFFFFFFFFFFFFFFFFFFFFFFFFFFFFFFFFFFFFFF AND PUSH20 0xFFFFFFFFFFFFFFFFFFFFFFFFFFFFFFFFFFFFFFFF AND DUP2 MSTORE PUSH1 0x20 ADD SWAP1 DUP2 MSTORE PUSH1 0x20 ADD PUSH1 0x0 KECCAK256 PUSH1 0x0 SWAP1 SLOAD SWAP1 PUSH2 0x100 EXP SWAP1 DIV PUSH1 0xFF AND ISZERO PUSH3 0x18E JUMPI PUSH1 0x40 MLOAD PUSH32 0xC0159E0E00000000000000000000000000000000000000000000000000000000 DUP2 MSTORE PUSH1 0x4 ADD PUSH1 0x40 MLOAD DUP1 SWAP2 SUB SWAP1 REVERT JUMPDEST PUSH1 0x1 PUSH1 0x0 DUP1 DUP4 PUSH20 0xFFFFFFFFFFFFFFFFFFFFFFFFFFFFFFFFFFFFFFFF AND PUSH20 0xFFFFFFFFFFFFFFFFFFFFFFFFFFFFFFFFFFFFFFFF AND DUP2 MSTORE PUSH1 0x20 ADD SWAP1 DUP2 MSTORE PUSH1 0x20 ADD PUSH1 0x0 KECCAK256 PUSH1 0x0 PUSH2 0x100 EXP DUP2 SLOAD DUP2 PUSH1 0xFF MUL NOT AND SWAP1 DUP4 ISZERO ISZERO MUL OR SWAP1 SSTORE POP POP DUP1 DUP1 PUSH3 0x1F3 SWAP1 PUSH3 0x41A JUMP JUMPDEST SWAP2 POP POP PUSH3 0x76 JUMP JUMPDEST POP DUP1 PUSH1 0x3 DUP2 SWAP1 SSTORE POP POP POP PUSH3 0x54E JUMP JUMPDEST PUSH1 0x0 PUSH3 0x223 PUSH3 0x21D DUP5 PUSH3 0x377 JUMP JUMPDEST PUSH3 0x34E JUMP JUMPDEST SWAP1 POP DUP1 DUP4 DUP3 MSTORE PUSH1 0x20 DUP3 ADD SWAP1 POP DUP3 DUP6 PUSH1 0x20 DUP7 MUL DUP3 ADD GT ISZERO PUSH3 0x249 JUMPI PUSH3 0x248 PUSH3 0x4FA JUMP JUMPDEST JUMPDEST PUSH1 0x0 JUMPDEST DUP6 DUP2 LT ISZERO PUSH3 0x27D JUMPI DUP2 PUSH3 0x262 DUP9 DUP3 PUSH3 0x287 JUMP JUMPDEST DUP5 MSTORE PUSH1 0x20 DUP5 ADD SWAP4 POP PUSH1 0x20 DUP4 ADD SWAP3 POP POP PUSH1 0x1 DUP2 ADD SWAP1 POP PUSH3 0x24C JUMP JUMPDEST POP POP POP SWAP4 SWAP3 POP POP POP JUMP JUMPDEST PUSH1 0x0 DUP2 MLOAD SWAP1 POP PUSH3 0x298 DUP2 PUSH3 0x51A JUMP JUMPDEST SWAP3 SWAP2 POP POP JUMP JUMPDEST PUSH1 0x0 DUP3 PUSH1 0x1F DUP4 ADD SLT PUSH3 0x2B6 JUMPI PUSH3 0x2B5 PUSH3 0x4F5 JUMP JUMPDEST JUMPDEST DUP2 MLOAD PUSH3 0x2C8 DUP5 DUP3 PUSH1 0x20 DUP7 ADD PUSH3 0x20C JUMP JUMPDEST SWAP2 POP POP SWAP3 SWAP2 POP POP JUMP JUMPDEST PUSH1 0x0 DUP2 MLOAD SWAP1 POP PUSH3 0x2E2 DUP2 PUSH3 0x534 JUMP JUMPDEST SWAP3 SWAP2 POP POP JUMP JUMPDEST PUSH1 0x0 DUP1 PUSH1 0x40 DUP4 DUP6 SUB SLT ISZERO PUSH3 0x302 JUMPI PUSH3 0x301 PUSH3 0x504 JUMP JUMPDEST JUMPDEST PUSH1 0x0 DUP4 ADD MLOAD PUSH8 0xFFFFFFFFFFFFFFFF DUP2 GT ISZERO PUSH3 0x323 JUMPI PUSH3 0x322 PUSH3 0x4FF JUMP JUMPDEST JUMPDEST PUSH3 0x331 DUP6 DUP3 DUP7 ADD PUSH3 0x29E JUMP JUMPDEST SWAP3 POP POP PUSH1 0x20 PUSH3 0x344 DUP6 DUP3 DUP7 ADD PUSH3 0x2D1 JUMP JUMPDEST SWAP2 POP POP SWAP3 POP SWAP3 SWAP1 POP JUMP JUMPDEST PUSH1 0x0 PUSH3 0x35A PUSH3 0x36D JUMP JUMPDEST SWAP1 POP PUSH3 0x368 DUP3 DUP3 PUSH3 0x3E4 JUMP JUMPDEST SWAP2 SWAP1 POP JUMP JUMPDEST PUSH1 0x0 PUSH1 0x40 MLOAD SWAP1 POP SWAP1 JUMP JUMPDEST PUSH1 0x0 PUSH8 0xFFFFFFFFFFFFFFFF DUP3 GT ISZERO PUSH3 0x395 JUMPI PUSH3 0x394 PUSH3 0x4C6 JUMP JUMPDEST JUMPDEST PUSH1 0x20 DUP3 MUL SWAP1 POP PUSH1 0x20 DUP2 ADD SWAP1 POP SWAP2 SWAP1 POP JUMP JUMPDEST PUSH1 0x0 PUSH3 0x3B3 DUP3 PUSH3 0x3BA JUMP JUMPDEST SWAP1 POP SWAP2 SWAP1 POP JUMP JUMPDEST PUSH1 0x0 PUSH20 0xFFFFFFFFFFFFFFFFFFFFFFFFFFFFFFFFFFFFFFFF DUP3 AND SWAP1 POP SWAP2 SWAP1 POP JUMP JUMPDEST PUSH1 0x0 DUP2 SWAP1 POP SWAP2 SWAP1 POP JUMP JUMPDEST PUSH3 0x3EF DUP3 PUSH3 0x509 JUMP JUMPDEST DUP2 ADD DUP2 DUP2 LT PUSH8 0xFFFFFFFFFFFFFFFF DUP3 GT OR ISZERO PUSH3 0x411 JUMPI PUSH3 0x410 PUSH3 0x4C6 JUMP JUMPDEST JUMPDEST DUP1 PUSH1 0x40 MSTORE POP POP POP JUMP JUMPDEST PUSH1 0x0 PUSH3 0x427 DUP3 PUSH3 0x3DA JUMP JUMPDEST SWAP2 POP PUSH32 0xFFFFFFFFFFFFFFFFFFFFFFFFFFFFFFFFFFFFFFFFFFFFFFFFFFFFFFFFFFFFFFFF DUP3 EQ ISZERO PUSH3 0x45D JUMPI PUSH3 0x45C PUSH3 0x468 JUMP JUMPDEST JUMPDEST PUSH1 0x1 DUP3 ADD SWAP1 POP SWAP2 SWAP1 POP JUMP JUMPDEST PUSH32 0x4E487B7100000000000000000000000000000000000000000000000000000000 PUSH1 0x0 MSTORE PUSH1 0x11 PUSH1 0x4 MSTORE PUSH1 0x24 PUSH1 0x0 REVERT JUMPDEST PUSH32 0x4E487B7100000000000000000000000000000000000000000000000000000000 PUSH1 0x0 MSTORE PUSH1 0x32 PUSH1 0x4 MSTORE PUSH1 0x24 PUSH1 0x0 REVERT JUMPDEST PUSH32 0x4E487B7100000000000000000000000000000000000000000000000000000000 PUSH1 0x0 MSTORE PUSH1 0x41 PUSH1 0x4 MSTORE PUSH1 0x24 PUSH1 0x0 REVERT JUMPDEST PUSH1 0x0 DUP1 REVERT JUMPDEST PUSH1 0x0 DUP1 REVERT JUMPDEST PUSH1 0x0 DUP1 REVERT JUMPDEST PUSH1 0x0 DUP1 REVERT JUMPDEST PUSH1 0x0 PUSH1 0x1F NOT PUSH1 0x1F DUP4 ADD AND SWAP1 POP SWAP2 SWAP1 POP JUMP JUMPDEST PUSH3 0x525 DUP2 PUSH3 0x3A6 JUMP JUMPDEST DUP2 EQ PUSH3 0x531 JUMPI PUSH1 0x0 DUP1 REVERT JUMPDEST POP JUMP JUMPDEST PUSH3 0x53F DUP2 PUSH3 0x3DA JUMP JUMPDEST DUP2 EQ PUSH3 0x54B JUMPI PUSH1 0x0 DUP1 REVERT JUMPDEST POP JUMP JUMPDEST PUSH2 0x179B DUP1 PUSH3 0x55E PUSH1 0x0 CODECOPY PUSH1 0x0 RETURN INVALID PUSH1 0x80 PUSH1 0x40 MSTORE PUSH1 0x4 CALLDATASIZE LT PUSH2 0x8A JUMPI PUSH1 0x0 CALLDATALOAD PUSH1 0xE0 SHR DUP1 PUSH4 0x8F9487EB GT PUSH2 0x59 JUMPI DUP1 PUSH4 0x8F9487EB EQ PUSH2 0x189 JUMPI DUP1 PUSH4 0xBB84C5A9 EQ PUSH2 0x1C6 JUMPI DUP1 PUSH4 0xCD568D1F EQ PUSH2 0x1EF JUMPI DUP1 PUSH4 0xDC8452CD EQ PUSH2 0x21A JUMPI DUP1 PUSH4 0xE0E3671C EQ PUSH2 0x245 JUMPI PUSH2 0xCC JUMP JUMPDEST DUP1 PUSH4 0x1087393A EQ PUSH2 0xD1 JUMPI DUP1 PUSH4 0x33EA3DC8 EQ PUSH2 0xFA JUMPI DUP1 PUSH4 0x54B5FE80 EQ PUSH2 0x137 JUMPI DUP1 PUSH4 0x5986AACA EQ PUSH2 0x160 JUMPI PUSH2 0xCC JUMP JUMPDEST CALLDATASIZE PUSH2 0xCC JUMPI PUSH32 0x90890809C654F11D6E72A28FA60149770A0D11EC6C92319D6CEB2BB0A4EA1A15 CALLER CALLVALUE SELFBALANCE PUSH1 0x40 MLOAD PUSH2 0xC2 SWAP4 SWAP3 SWAP2 SWAP1 PUSH2 0x1396 JUMP JUMPDEST PUSH1 0x40 MLOAD DUP1 SWAP2 SUB SWAP1 LOG1 STOP JUMPDEST PUSH1 0x0 DUP1 REVERT JUMPDEST CALLVALUE DUP1 ISZERO PUSH2 0xDD JUMPI PUSH1 0x0 DUP1 REVERT JUMPDEST POP PUSH2 0xF8 PUSH1 0x4 DUP1 CALLDATASIZE SUB DUP2 ADD SWAP1 PUSH2 0xF3 SWAP2 SWAP1 PUSH2 0x1034 JUMP JUMPDEST PUSH2 0x282 JUMP JUMPDEST STOP JUMPDEST CALLVALUE DUP1 ISZERO PUSH2 0x106 JUMPI PUSH1 0x0 DUP1 REVERT JUMPDEST POP PUSH2 0x121 PUSH1 0x4 DUP1 CALLDATASIZE SUB DUP2 ADD SWAP1 PUSH2 0x11C SWAP2 SWAP1 PUSH2 0x1034 JUMP JUMPDEST PUSH2 0x513 JUMP JUMPDEST PUSH1 0x40 MLOAD PUSH2 0x12E SWAP2 SWAP1 PUSH2 0x13E8 JUMP JUMPDEST PUSH1 0x40 MLOAD DUP1 SWAP2 SUB SWAP1 RETURN JUMPDEST CALLVALUE DUP1 ISZERO PUSH2 0x143 JUMPI PUSH1 0x0 DUP1 REVERT JUMPDEST POP PUSH2 0x15E PUSH1 0x4 DUP1 CALLDATASIZE SUB DUP2 ADD SWAP1 PUSH2 0x159 SWAP2 SWAP1 PUSH2 0x1034 JUMP JUMPDEST PUSH2 0x6AB JUMP JUMPDEST STOP JUMPDEST CALLVALUE DUP1 ISZERO PUSH2 0x16C JUMPI PUSH1 0x0 DUP1 REVERT JUMPDEST POP PUSH2 0x187 PUSH1 0x4 DUP1 CALLDATASIZE SUB DUP2 ADD SWAP1 PUSH2 0x182 SWAP2 SWAP1 PUSH2 0x1034 JUMP JUMPDEST PUSH2 0x985 JUMP JUMPDEST STOP JUMPDEST CALLVALUE DUP1 ISZERO PUSH2 0x195 JUMPI PUSH1 0x0 DUP1 REVERT JUMPDEST POP PUSH2 0x1B0 PUSH1 0x4 DUP1 CALLDATASIZE SUB DUP2 ADD SWAP1 PUSH2 0x1AB SWAP2 SWAP1 PUSH2 0x1061 JUMP JUMPDEST PUSH2 0xBE0 JUMP JUMPDEST PUSH1 0x40 MLOAD PUSH2 0x1BD SWAP2 SWAP1 PUSH2 0x13CD JUMP JUMPDEST PUSH1 0x40 MLOAD DUP1 SWAP2 SUB SWAP1 RETURN JUMPDEST CALLVALUE DUP1 ISZERO PUSH2 0x1D2 JUMPI PUSH1 0x0 DUP1 REVERT JUMPDEST POP PUSH2 0x1ED PUSH1 0x4 DUP1 CALLDATASIZE SUB DUP2 ADD SWAP1 PUSH2 0x1E8 SWAP2 SWAP1 PUSH2 0xFC5 JUMP JUMPDEST PUSH2 0xC48 JUMP JUMPDEST STOP JUMPDEST CALLVALUE DUP1 ISZERO PUSH2 0x1FB JUMPI PUSH1 0x0 DUP1 REVERT JUMPDEST POP PUSH2 0x204 PUSH2 0xDAC JUMP JUMPDEST PUSH1 0x40 MLOAD PUSH2 0x211 SWAP2 SWAP1 PUSH2 0x140A JUMP JUMPDEST PUSH1 0x40 MLOAD DUP1 SWAP2 SUB SWAP1 RETURN JUMPDEST CALLVALUE DUP1 ISZERO PUSH2 0x226 JUMPI PUSH1 0x0 DUP1 REVERT JUMPDEST POP PUSH2 0x22F PUSH2 0xDB2 JUMP JUMPDEST PUSH1 0x40 MLOAD PUSH2 0x23C SWAP2 SWAP1 PUSH2 0x140A JUMP JUMPDEST PUSH1 0x40 MLOAD DUP1 SWAP2 SUB SWAP1 RETURN JUMPDEST CALLVALUE DUP1 ISZERO PUSH2 0x251 JUMPI PUSH1 0x0 DUP1 REVERT JUMPDEST POP PUSH2 0x26C PUSH1 0x4 DUP1 CALLDATASIZE SUB DUP2 ADD SWAP1 PUSH2 0x267 SWAP2 SWAP1 PUSH2 0xF98 JUMP JUMPDEST PUSH2 0xDB8 JUMP JUMPDEST PUSH1 0x40 MLOAD PUSH2 0x279 SWAP2 SWAP1 PUSH2 0x13CD JUMP JUMPDEST PUSH1 0x40 MLOAD DUP1 SWAP2 SUB SWAP1 RETURN JUMPDEST PUSH1 0x0 DUP1 CALLER PUSH20 0xFFFFFFFFFFFFFFFFFFFFFFFFFFFFFFFFFFFFFFFF AND PUSH20 0xFFFFFFFFFFFFFFFFFFFFFFFFFFFFFFFFFFFFFFFF AND DUP2 MSTORE PUSH1 0x20 ADD SWAP1 DUP2 MSTORE PUSH1 0x20 ADD PUSH1 0x0 KECCAK256 PUSH1 0x0 SWAP1 SLOAD SWAP1 PUSH2 0x100 EXP SWAP1 DIV PUSH1 0xFF AND PUSH2 0x304 JUMPI PUSH1 0x40 MLOAD PUSH32 0x30CD747100000000000000000000000000000000000000000000000000000000 DUP2 MSTORE PUSH1 0x4 ADD PUSH1 0x40 MLOAD DUP1 SWAP2 SUB SWAP1 REVERT JUMPDEST DUP1 PUSH1 0x1 PUSH1 0x4 SLOAD PUSH2 0x314 SWAP2 SWAP1 PUSH2 0x14F1 JUMP JUMPDEST DUP2 GT ISZERO PUSH2 0x34D JUMPI PUSH1 0x40 MLOAD PUSH32 0x9E1B596F00000000000000000000000000000000000000000000000000000000 DUP2 MSTORE PUSH1 0x4 ADD PUSH1 0x40 MLOAD DUP1 SWAP2 SUB SWAP1 REVERT JUMPDEST DUP2 PUSH1 0x2 PUSH1 0x0 DUP3 DUP2 MSTORE PUSH1 0x20 ADD SWAP1 DUP2 MSTORE PUSH1 0x20 ADD PUSH1 0x0 KECCAK256 PUSH1 0x0 CALLER PUSH20 0xFFFFFFFFFFFFFFFFFFFFFFFFFFFFFFFFFFFFFFFF AND PUSH20 0xFFFFFFFFFFFFFFFFFFFFFFFFFFFFFFFFFFFFFFFF AND DUP2 MSTORE PUSH1 0x20 ADD SWAP1 DUP2 MSTORE PUSH1 0x20 ADD PUSH1 0x0 KECCAK256 PUSH1 0x0 SWAP1 SLOAD SWAP1 PUSH2 0x100 EXP SWAP1 DIV PUSH1 0xFF AND ISZERO PUSH2 0x3E3 JUMPI PUSH1 0x40 MLOAD PUSH32 0x5DB7EC0D00000000000000000000000000000000000000000000000000000000 DUP2 MSTORE PUSH1 0x4 ADD PUSH1 0x40 MLOAD DUP1 SWAP2 SUB SWAP1 REVERT JUMPDEST DUP3 PUSH1 0x1 PUSH1 0x0 DUP3 DUP2 MSTORE PUSH1 0x20 ADD SWAP1 DUP2 MSTORE PUSH1 0x20 ADD PUSH1 0x0 KECCAK256 PUSH1 0x5 ADD PUSH1 0x0 SWAP1 SLOAD SWAP1 PUSH2 0x100 EXP SWAP1 DIV PUSH1 0xFF AND ISZERO PUSH2 0x43F JUMPI PUSH1 0x40 MLOAD PUSH32 0x2EA945CF00000000000000000000000000000000000000000000000000000000 DUP2 MSTORE PUSH1 0x4 ADD PUSH1 0x40 MLOAD DUP1 SWAP2 SUB SWAP1 REVERT JUMPDEST PUSH1 0x1 PUSH1 0x0 DUP6 DUP2 MSTORE PUSH1 0x20 ADD SWAP1 DUP2 MSTORE PUSH1 0x20 ADD PUSH1 0x0 KECCAK256 PUSH1 0x4 ADD PUSH1 0x0 DUP2 SLOAD DUP1 SWAP3 SWAP2 SWAP1 PUSH2 0x466 SWAP1 PUSH2 0x163C JUMP JUMPDEST SWAP2 SWAP1 POP SSTORE POP PUSH1 0x1 PUSH1 0x2 PUSH1 0x0 DUP7 DUP2 MSTORE PUSH1 0x20 ADD SWAP1 DUP2 MSTORE PUSH1 0x20 ADD PUSH1 0x0 KECCAK256 PUSH1 0x0 CALLER PUSH20 0xFFFFFFFFFFFFFFFFFFFFFFFFFFFFFFFFFFFFFFFF AND PUSH20 0xFFFFFFFFFFFFFFFFFFFFFFFFFFFFFFFFFFFFFFFF AND DUP2 MSTORE PUSH1 0x20 ADD SWAP1 DUP2 MSTORE PUSH1 0x20 ADD PUSH1 0x0 KECCAK256 PUSH1 0x0 PUSH2 0x100 EXP DUP2 SLOAD DUP2 PUSH1 0xFF MUL NOT AND SWAP1 DUP4 ISZERO ISZERO MUL OR SWAP1 SSTORE POP PUSH32 0xD4329D04E785EBE84C72DCD09FB9C65F1FBBDA53EE15EC20E93342C7F3E2A62D DUP5 CALLER PUSH1 0x40 MLOAD PUSH2 0x505 SWAP3 SWAP2 SWAP1 PUSH2 0x1425 JUMP JUMPDEST PUSH1 0x40 MLOAD DUP1 SWAP2 SUB SWAP1 LOG1 POP POP POP POP JUMP JUMPDEST PUSH2 0x51B PUSH2 0xE0D JUMP JUMPDEST DUP2 PUSH1 0x1 PUSH1 0x4 SLOAD PUSH2 0x52B SWAP2 SWAP1 PUSH2 0x14F1 JUMP JUMPDEST DUP2 GT ISZERO PUSH2 0x564 JUMPI PUSH1 0x40 MLOAD PUSH32 0x9E1B596F00000000000000000000000000000000000000000000000000000000 DUP2 MSTORE PUSH1 0x4 ADD PUSH1 0x40 MLOAD DUP1 SWAP2 SUB SWAP1 REVERT JUMPDEST PUSH1 0x1 PUSH1 0x0 DUP5 DUP2 MSTORE PUSH1 0x20 ADD SWAP1 DUP2 MSTORE PUSH1 0x20 ADD PUSH1 0x0 KECCAK256 PUSH1 0x40 MLOAD DUP1 PUSH1 0xC0 ADD PUSH1 0x40 MSTORE SWAP1 DUP2 PUSH1 0x0 DUP3 ADD SLOAD DUP2 MSTORE PUSH1 0x20 ADD PUSH1 0x1 DUP3 ADD PUSH1 0x0 SWAP1 SLOAD SWAP1 PUSH2 0x100 EXP SWAP1 DIV PUSH20 0xFFFFFFFFFFFFFFFFFFFFFFFFFFFFFFFFFFFFFFFF AND PUSH20 0xFFFFFFFFFFFFFFFFFFFFFFFFFFFFFFFFFFFFFFFF AND PUSH20 0xFFFFFFFFFFFFFFFFFFFFFFFFFFFFFFFFFFFFFFFF AND DUP2 MSTORE PUSH1 0x20 ADD PUSH1 0x2 DUP3 ADD SLOAD DUP2 MSTORE PUSH1 0x20 ADD PUSH1 0x3 DUP3 ADD DUP1 SLOAD PUSH2 0x5FC SWAP1 PUSH2 0x15D9 JUMP JUMPDEST DUP1 PUSH1 0x1F ADD PUSH1 0x20 DUP1 SWAP2 DIV MUL PUSH1 0x20 ADD PUSH1 0x40 MLOAD SWAP1 DUP2 ADD PUSH1 0x40 MSTORE DUP1 SWAP3 SWAP2 SWAP1 DUP2 DUP2 MSTORE PUSH1 0x20 ADD DUP3 DUP1 SLOAD PUSH2 0x628 SWAP1 PUSH2 0x15D9 JUMP JUMPDEST DUP1 ISZERO PUSH2 0x675 JUMPI DUP1 PUSH1 0x1F LT PUSH2 0x64A JUMPI PUSH2 0x100 DUP1 DUP4 SLOAD DIV MUL DUP4 MSTORE SWAP2 PUSH1 0x20 ADD SWAP2 PUSH2 0x675 JUMP JUMPDEST DUP3 ADD SWAP2 SWAP1 PUSH1 0x0 MSTORE PUSH1 0x20 PUSH1 0x0 KECCAK256 SWAP1 JUMPDEST DUP2 SLOAD DUP2 MSTORE SWAP1 PUSH1 0x1 ADD SWAP1 PUSH1 0x20 ADD DUP1 DUP4 GT PUSH2 0x658 JUMPI DUP3 SWAP1 SUB PUSH1 0x1F AND DUP3 ADD SWAP2 JUMPDEST POP POP POP POP POP DUP2 MSTORE PUSH1 0x20 ADD PUSH1 0x4 DUP3 ADD SLOAD DUP2 MSTORE PUSH1 0x20 ADD PUSH1 0x5 DUP3 ADD PUSH1 0x0 SWAP1 SLOAD SWAP1 PUSH2 0x100 EXP SWAP1 DIV PUSH1 0xFF AND ISZERO ISZERO ISZERO ISZERO DUP2 MSTORE POP POP SWAP2 POP POP SWAP2 SWAP1 POP JUMP JUMPDEST PUSH1 0x0 DUP1 CALLER PUSH20 0xFFFFFFFFFFFFFFFFFFFFFFFFFFFFFFFFFFFFFFFF AND PUSH20 0xFFFFFFFFFFFFFFFFFFFFFFFFFFFFFFFFFFFFFFFF AND DUP2 MSTORE PUSH1 0x20 ADD SWAP1 DUP2 MSTORE PUSH1 0x20 ADD PUSH1 0x0 KECCAK256 PUSH1 0x0 SWAP1 SLOAD SWAP1 PUSH2 0x100 EXP SWAP1 DIV PUSH1 0xFF AND PUSH2 0x72D JUMPI PUSH1 0x40 MLOAD PUSH32 0x30CD747100000000000000000000000000000000000000000000000000000000 DUP2 MSTORE PUSH1 0x4 ADD PUSH1 0x40 MLOAD DUP1 SWAP2 SUB SWAP1 REVERT JUMPDEST DUP1 PUSH1 0x1 PUSH1 0x4 SLOAD PUSH2 0x73D SWAP2 SWAP1 PUSH2 0x14F1 JUMP JUMPDEST DUP2 GT ISZERO PUSH2 0x776 JUMPI PUSH1 0x40 MLOAD PUSH32 0x9E1B596F00000000000000000000000000000000000000000000000000000000 DUP2 MSTORE PUSH1 0x4 ADD PUSH1 0x40 MLOAD DUP1 SWAP2 SUB SWAP1 REVERT JUMPDEST DUP2 PUSH1 0x1 PUSH1 0x0 DUP3 DUP2 MSTORE PUSH1 0x20 ADD SWAP1 DUP2 MSTORE PUSH1 0x20 ADD PUSH1 0x0 KECCAK256 PUSH1 0x5 ADD PUSH1 0x0 SWAP1 SLOAD SWAP1 PUSH2 0x100 EXP SWAP1 DIV PUSH1 0xFF AND ISZERO PUSH2 0x7D2 JUMPI PUSH1 0x40 MLOAD PUSH32 0x2EA945CF00000000000000000000000000000000000000000000000000000000 DUP2 MSTORE PUSH1 0x4 ADD PUSH1 0x40 MLOAD DUP1 SWAP2 SUB SWAP1 REVERT JUMPDEST PUSH1 0x0 PUSH1 0x1 PUSH1 0x0 DUP6 DUP2 MSTORE PUSH1 0x20 ADD SWAP1 DUP2 MSTORE PUSH1 0x20 ADD PUSH1 0x0 KECCAK256 SWAP1 POP PUSH1 0x3 SLOAD DUP2 PUSH1 0x4 ADD SLOAD LT ISZERO PUSH2 0x829 JUMPI PUSH1 0x40 MLOAD PUSH32 0x9DD63CB700000000000000000000000000000000000000000000000000000000 DUP2 MSTORE PUSH1 0x4 ADD PUSH1 0x40 MLOAD DUP1 SWAP2 SUB SWAP1 REVERT JUMPDEST PUSH1 0x1 DUP2 PUSH1 0x5 ADD PUSH1 0x0 PUSH2 0x100 EXP DUP2 SLOAD DUP2 PUSH1 0xFF MUL NOT AND SWAP1 DUP4 ISZERO ISZERO MUL OR SWAP1 SSTORE POP PUSH1 0x0 DUP2 PUSH1 0x1 ADD PUSH1 0x0 SWAP1 SLOAD SWAP1 PUSH2 0x100 EXP SWAP1 DIV PUSH20 0xFFFFFFFFFFFFFFFFFFFFFFFFFFFFFFFFFFFFFFFF AND PUSH20 0xFFFFFFFFFFFFFFFFFFFFFFFFFFFFFFFFFFFFFFFF AND DUP3 PUSH1 0x2 ADD SLOAD DUP4 PUSH1 0x3 ADD PUSH1 0x40 MLOAD PUSH2 0x899 SWAP2 SWAP1 PUSH2 0x12F5 JUMP JUMPDEST PUSH1 0x0 PUSH1 0x40 MLOAD DUP1 DUP4 SUB DUP2 DUP6 DUP8 GAS CALL SWAP3 POP POP POP RETURNDATASIZE DUP1 PUSH1 0x0 DUP2 EQ PUSH2 0x8D6 JUMPI PUSH1 0x40 MLOAD SWAP2 POP PUSH1 0x1F NOT PUSH1 0x3F RETURNDATASIZE ADD AND DUP3 ADD PUSH1 0x40 MSTORE RETURNDATASIZE DUP3 MSTORE RETURNDATASIZE PUSH1 0x0 PUSH1 0x20 DUP5 ADD RETURNDATACOPY PUSH2 0x8DB JUMP JUMPDEST PUSH1 0x60 SWAP2 POP JUMPDEST POP POP SWAP1 POP DUP1 PUSH2 0x916 JUMPI PUSH1 0x40 MLOAD PUSH32 0xCB2F2A1C00000000000000000000000000000000000000000000000000000000 DUP2 MSTORE PUSH1 0x4 ADD PUSH1 0x40 MLOAD DUP1 SWAP2 SUB SWAP1 REVERT JUMPDEST PUSH32 0xB91792DFBEC9D14F14EFE0FD0328FE544073CD1BEFA73F98441BCE708E643179 DUP3 PUSH1 0x1 ADD PUSH1 0x0 SWAP1 SLOAD SWAP1 PUSH2 0x100 EXP SWAP1 DIV PUSH20 0xFFFFFFFFFFFFFFFFFFFFFFFFFFFFFFFFFFFFFFFF AND DUP4 PUSH1 0x2 ADD SLOAD DUP5 PUSH1 0x3 ADD CALLER PUSH1 0x40 MLOAD PUSH2 0x976 SWAP5 SWAP4 SWAP3 SWAP2 SWAP1 PUSH2 0x134A JUMP JUMPDEST PUSH1 0x40 MLOAD DUP1 SWAP2 SUB SWAP1 LOG1 POP POP POP POP POP JUMP JUMPDEST PUSH1 0x0 DUP1 CALLER PUSH20 0xFFFFFFFFFFFFFFFFFFFFFFFFFFFFFFFFFFFFFFFF AND PUSH20 0xFFFFFFFFFFFFFFFFFFFFFFFFFFFFFFFFFFFFFFFF AND DUP2 MSTORE PUSH1 0x20 ADD SWAP1 DUP2 MSTORE PUSH1 0x20 ADD PUSH1 0x0 KECCAK256 PUSH1 0x0 SWAP1 SLOAD SWAP1 PUSH2 0x100 EXP SWAP1 DIV PUSH1 0xFF AND PUSH2 0xA07 JUMPI PUSH1 0x40 MLOAD PUSH32 0x30CD747100000000000000000000000000000000000000000000000000000000 DUP2 MSTORE PUSH1 0x4 ADD PUSH1 0x40 MLOAD DUP1 SWAP2 SUB SWAP1 REVERT JUMPDEST DUP1 PUSH1 0x1 PUSH1 0x4 SLOAD PUSH2 0xA17 SWAP2 SWAP1 PUSH2 0x14F1 JUMP JUMPDEST DUP2 GT ISZERO PUSH2 0xA50 JUMPI PUSH1 0x40 MLOAD PUSH32 0x9E1B596F00000000000000000000000000000000000000000000000000000000 DUP2 MSTORE PUSH1 0x4 ADD PUSH1 0x40 MLOAD DUP1 SWAP2 SUB SWAP1 REVERT JUMPDEST DUP2 PUSH1 0x1 PUSH1 0x0 DUP3 DUP2 MSTORE PUSH1 0x20 ADD SWAP1 DUP2 MSTORE PUSH1 0x20 ADD PUSH1 0x0 KECCAK256 PUSH1 0x5 ADD PUSH1 0x0 SWAP1 SLOAD SWAP1 PUSH2 0x100 EXP SWAP1 DIV PUSH1 0xFF AND ISZERO PUSH2 0xAAC JUMPI PUSH1 0x40 MLOAD PUSH32 0x2EA945CF00000000000000000000000000000000000000000000000000000000 DUP2 MSTORE PUSH1 0x4 ADD PUSH1 0x40 MLOAD DUP1 SWAP2 SUB SWAP1 REVERT JUMPDEST PUSH1 0x2 PUSH1 0x0 DUP5 DUP2 MSTORE PUSH1 0x20 ADD SWAP1 DUP2 MSTORE PUSH1 0x20 ADD PUSH1 0x0 KECCAK256 PUSH1 0x0 CALLER PUSH20 0xFFFFFFFFFFFFFFFFFFFFFFFFFFFFFFFFFFFFFFFF AND PUSH20 0xFFFFFFFFFFFFFFFFFFFFFFFFFFFFFFFFFFFFFFFF AND DUP2 MSTORE PUSH1 0x20 ADD SWAP1 DUP2 MSTORE PUSH1 0x20 ADD PUSH1 0x0 KECCAK256 PUSH1 0x0 SWAP1 SLOAD SWAP1 PUSH2 0x100 EXP SWAP1 DIV PUSH1 0xFF AND ISZERO PUSH2 0xBA9 JUMPI PUSH1 0x1 PUSH1 0x0 DUP5 DUP2 MSTORE PUSH1 0x20 ADD SWAP1 DUP2 MSTORE PUSH1 0x20 ADD PUSH1 0x0 KECCAK256 PUSH1 0x4 ADD PUSH1 0x0 DUP2 SLOAD DUP1 SWAP3 SWAP2 SWAP1 PUSH2 0xB36 SWAP1 PUSH2 0x15AF JUMP JUMPDEST SWAP2 SWAP1 POP SSTORE POP PUSH1 0x0 PUSH1 0x2 PUSH1 0x0 DUP6 DUP2 MSTORE PUSH1 0x20 ADD SWAP1 DUP2 MSTORE PUSH1 0x20 ADD PUSH1 0x0 KECCAK256 PUSH1 0x0 CALLER PUSH20 0xFFFFFFFFFFFFFFFFFFFFFFFFFFFFFFFFFFFFFFFF AND PUSH20 0xFFFFFFFFFFFFFFFFFFFFFFFFFFFFFFFFFFFFFFFF AND DUP2 MSTORE PUSH1 0x20 ADD SWAP1 DUP2 MSTORE PUSH1 0x20 ADD PUSH1 0x0 KECCAK256 PUSH1 0x0 PUSH2 0x100 EXP DUP2 SLOAD DUP2 PUSH1 0xFF MUL NOT AND SWAP1 DUP4 ISZERO ISZERO MUL OR SWAP1 SSTORE POP PUSH2 0xBDB JUMP JUMPDEST PUSH1 0x40 MLOAD PUSH32 0xFAFE52BF00000000000000000000000000000000000000000000000000000000 DUP2 MSTORE PUSH1 0x4 ADD PUSH1 0x40 MLOAD DUP1 SWAP2 SUB SWAP1 REVERT JUMPDEST POP POP POP JUMP JUMPDEST PUSH1 0x0 PUSH1 0x2 PUSH1 0x0 DUP5 DUP2 MSTORE PUSH1 0x20 ADD SWAP1 DUP2 MSTORE PUSH1 0x20 ADD PUSH1 0x0 KECCAK256 PUSH1 0x0 DUP4 PUSH20 0xFFFFFFFFFFFFFFFFFFFFFFFFFFFFFFFFFFFFFFFF AND PUSH20 0xFFFFFFFFFFFFFFFFFFFFFFFFFFFFFFFFFFFFFFFF AND DUP2 MSTORE PUSH1 0x20 ADD SWAP1 DUP2 MSTORE PUSH1 0x20 ADD PUSH1 0x0 KECCAK256 PUSH1 0x0 SWAP1 SLOAD SWAP1 PUSH2 0x100 EXP SWAP1 DIV PUSH1 0xFF AND SWAP1 POP SWAP3 SWAP2 POP POP JUMP JUMPDEST PUSH1 0x0 DUP1 CALLER PUSH20 0xFFFFFFFFFFFFFFFFFFFFFFFFFFFFFFFFFFFFFFFF AND PUSH20 0xFFFFFFFFFFFFFFFFFFFFFFFFFFFFFFFFFFFFFFFF AND DUP2 MSTORE PUSH1 0x20 ADD SWAP1 DUP2 MSTORE PUSH1 0x20 ADD PUSH1 0x0 KECCAK256 PUSH1 0x0 SWAP1 SLOAD SWAP1 PUSH2 0x100 EXP SWAP1 DIV PUSH1 0xFF AND PUSH2 0xCCA JUMPI PUSH1 0x40 MLOAD PUSH32 0x30CD747100000000000000000000000000000000000000000000000000000000 DUP2 MSTORE PUSH1 0x4 ADD PUSH1 0x40 MLOAD DUP1 SWAP2 SUB SWAP1 REVERT JUMPDEST PUSH1 0x0 PUSH1 0x1 PUSH1 0x0 PUSH1 0x4 SLOAD DUP2 MSTORE PUSH1 0x20 ADD SWAP1 DUP2 MSTORE PUSH1 0x20 ADD PUSH1 0x0 KECCAK256 SWAP1 POP PUSH1 0x4 SLOAD DUP2 PUSH1 0x0 ADD DUP2 SWAP1 SSTORE POP DUP4 DUP2 PUSH1 0x1 ADD PUSH1 0x0 PUSH2 0x100 EXP DUP2 SLOAD DUP2 PUSH20 0xFFFFFFFFFFFFFFFFFFFFFFFFFFFFFFFFFFFFFFFF MUL NOT AND SWAP1 DUP4 PUSH20 0xFFFFFFFFFFFFFFFFFFFFFFFFFFFFFFFFFFFFFFFF AND MUL OR SWAP1 SSTORE POP DUP3 DUP2 PUSH1 0x2 ADD DUP2 SWAP1 SSTORE POP DUP2 DUP2 PUSH1 0x3 ADD SWAP1 DUP1 MLOAD SWAP1 PUSH1 0x20 ADD SWAP1 PUSH2 0xD52 SWAP3 SWAP2 SWAP1 PUSH2 0xE5B JUMP JUMPDEST POP PUSH1 0x4 PUSH1 0x0 DUP2 SLOAD DUP1 SWAP3 SWAP2 SWAP1 PUSH2 0xD66 SWAP1 PUSH2 0x163C JUMP JUMPDEST SWAP2 SWAP1 POP SSTORE POP PUSH32 0x315D8BF6C6D36A1411EE3D8D607B26DF37940936BD273E006857A296FBAC2CE8 DUP5 DUP5 DUP5 PUSH1 0x40 MLOAD PUSH2 0xD9E SWAP4 SWAP3 SWAP2 SWAP1 PUSH2 0x130C JUMP JUMPDEST PUSH1 0x40 MLOAD DUP1 SWAP2 SUB SWAP1 LOG1 POP POP POP POP JUMP JUMPDEST PUSH1 0x4 SLOAD DUP2 JUMP JUMPDEST PUSH1 0x3 SLOAD DUP2 JUMP JUMPDEST PUSH1 0x0 DUP1 PUSH1 0x0 DUP4 PUSH20 0xFFFFFFFFFFFFFFFFFFFFFFFFFFFFFFFFFFFFFFFF AND PUSH20 0xFFFFFFFFFFFFFFFFFFFFFFFFFFFFFFFFFFFFFFFF AND DUP2 MSTORE PUSH1 0x20 ADD SWAP1 DUP2 MSTORE PUSH1 0x20 ADD PUSH1 0x0 KECCAK256 PUSH1 0x0 SWAP1 SLOAD SWAP1 PUSH2 0x100 EXP SWAP1 DIV PUSH1 0xFF AND SWAP1 POP SWAP2 SWAP1 POP JUMP JUMPDEST PUSH1 0x40 MLOAD DUP1 PUSH1 0xC0 ADD PUSH1 0x40 MSTORE DUP1 PUSH1 0x0 DUP2 MSTORE PUSH1 0x20 ADD PUSH1 0x0 PUSH20 0xFFFFFFFFFFFFFFFFFFFFFFFFFFFFFFFFFFFFFFFF AND DUP2 MSTORE PUSH1 0x20 ADD PUSH1 0x0 DUP2 MSTORE PUSH1 0x20 ADD PUSH1 0x60 DUP2 MSTORE PUSH1 0x20 ADD PUSH1 0x0 DUP2 MSTORE PUSH1 0x20 ADD PUSH1 0x0 ISZERO ISZERO DUP2 MSTORE POP SWAP1 JUMP JUMPDEST DUP3 DUP1 SLOAD PUSH2 0xE67 SWAP1 PUSH2 0x15D9 JUMP JUMPDEST SWAP1 PUSH1 0x0 MSTORE PUSH1 0x20 PUSH1 0x0 KECCAK256 SWAP1 PUSH1 0x1F ADD PUSH1 0x20 SWAP1 DIV DUP2 ADD SWAP3 DUP3 PUSH2 0xE89 JUMPI PUSH1 0x0 DUP6 SSTORE PUSH2 0xED0 JUMP JUMPDEST DUP3 PUSH1 0x1F LT PUSH2 0xEA2 JUMPI DUP1 MLOAD PUSH1 0xFF NOT AND DUP4 DUP1 ADD OR DUP6 SSTORE PUSH2 0xED0 JUMP JUMPDEST DUP3 DUP1 ADD PUSH1 0x1 ADD DUP6 SSTORE DUP3 ISZERO PUSH2 0xED0 JUMPI SWAP2 DUP3 ADD JUMPDEST DUP3 DUP2 GT ISZERO PUSH2 0xECF JUMPI DUP3 MLOAD DUP3 SSTORE SWAP2 PUSH1 0x20 ADD SWAP2 SWAP1 PUSH1 0x1 ADD SWAP1 PUSH2 0xEB4 JUMP JUMPDEST JUMPDEST POP SWAP1 POP PUSH2 0xEDD SWAP2 SWAP1 PUSH2 0xEE1 JUMP JUMPDEST POP SWAP1 JUMP JUMPDEST JUMPDEST DUP1 DUP3 GT ISZERO PUSH2 0xEFA JUMPI PUSH1 0x0 DUP2 PUSH1 0x0 SWAP1 SSTORE POP PUSH1 0x1 ADD PUSH2 0xEE2 JUMP JUMPDEST POP SWAP1 JUMP JUMPDEST PUSH1 0x0 PUSH2 0xF11 PUSH2 0xF0C DUP5 PUSH2 0x1473 JUMP JUMPDEST PUSH2 0x144E JUMP JUMPDEST SWAP1 POP DUP3 DUP2 MSTORE PUSH1 0x20 DUP2 ADD DUP5 DUP5 DUP5 ADD GT ISZERO PUSH2 0xF2D JUMPI PUSH2 0xF2C PUSH2 0x1717 JUMP JUMPDEST JUMPDEST PUSH2 0xF38 DUP5 DUP3 DUP6 PUSH2 0x156D JUMP JUMPDEST POP SWAP4 SWAP3 POP POP POP JUMP JUMPDEST PUSH1 0x0 DUP2 CALLDATALOAD SWAP1 POP PUSH2 0xF4F DUP2 PUSH2 0x1737 JUMP JUMPDEST SWAP3 SWAP2 POP POP JUMP JUMPDEST PUSH1 0x0 DUP3 PUSH1 0x1F DUP4 ADD SLT PUSH2 0xF6A JUMPI PUSH2 0xF69 PUSH2 0x1712 JUMP JUMPDEST JUMPDEST DUP2 CALLDATALOAD PUSH2 0xF7A DUP5 DUP3 PUSH1 0x20 DUP7 ADD PUSH2 0xEFE JUMP JUMPDEST SWAP2 POP POP SWAP3 SWAP2 POP POP JUMP JUMPDEST PUSH1 0x0 DUP2 CALLDATALOAD SWAP1 POP PUSH2 0xF92 DUP2 PUSH2 0x174E JUMP JUMPDEST SWAP3 SWAP2 POP POP JUMP JUMPDEST PUSH1 0x0 PUSH1 0x20 DUP3 DUP5 SUB SLT ISZERO PUSH2 0xFAE JUMPI PUSH2 0xFAD PUSH2 0x1721 JUMP JUMPDEST JUMPDEST PUSH1 0x0 PUSH2 0xFBC DUP5 DUP3 DUP6 ADD PUSH2 0xF40 JUMP JUMPDEST SWAP2 POP POP SWAP3 SWAP2 POP POP JUMP JUMPDEST PUSH1 0x0 DUP1 PUSH1 0x0 PUSH1 0x60 DUP5 DUP7 SUB SLT ISZERO PUSH2 0xFDE JUMPI PUSH2 0xFDD PUSH2 0x1721 JUMP JUMPDEST JUMPDEST PUSH1 0x0 PUSH2 0xFEC DUP7 DUP3 DUP8 ADD PUSH2 0xF40 JUMP JUMPDEST SWAP4 POP POP PUSH1 0x20 PUSH2 0xFFD DUP7 DUP3 DUP8 ADD PUSH2 0xF83 JUMP JUMPDEST SWAP3 POP POP PUSH1 0x40 DUP5 ADD CALLDATALOAD PUSH8 0xFFFFFFFFFFFFFFFF DUP2 GT ISZERO PUSH2 0x101E JUMPI PUSH2 0x101D PUSH2 0x171C JUMP JUMPDEST JUMPDEST PUSH2 0x102A DUP7 DUP3 DUP8 ADD PUSH2 0xF55 JUMP JUMPDEST SWAP2 POP POP SWAP3 POP SWAP3 POP SWAP3 JUMP JUMPDEST PUSH1 0x0 PUSH1 0x20 DUP3 DUP5 SUB SLT ISZERO PUSH2 0x104A JUMPI PUSH2 0x1049 PUSH2 0x1721 JUMP JUMPDEST JUMPDEST PUSH1 0x0 PUSH2 0x1058 DUP5 DUP3 DUP6 ADD PUSH2 0xF83 JUMP JUMPDEST SWAP2 POP POP SWAP3 SWAP2 POP POP JUMP JUMPDEST PUSH1 0x0 DUP1 PUSH1 0x40 DUP4 DUP6 SUB SLT ISZERO PUSH2 0x1078 JUMPI PUSH2 0x1077 PUSH2 0x1721 JUMP JUMPDEST JUMPDEST PUSH1 0x0 PUSH2 0x1086 DUP6 DUP3 DUP7 ADD PUSH2 0xF83 JUMP JUMPDEST SWAP3 POP POP PUSH1 0x20 PUSH2 0x1097 DUP6 DUP3 DUP7 ADD PUSH2 0xF40 JUMP JUMPDEST SWAP2 POP POP SWAP3 POP SWAP3 SWAP1 POP JUMP JUMPDEST PUSH2 0x10AA DUP2 PUSH2 0x1525 JUMP JUMPDEST DUP3 MSTORE POP POP JUMP JUMPDEST PUSH2 0x10B9 DUP2 PUSH2 0x1525 JUMP JUMPDEST DUP3 MSTORE POP POP JUMP JUMPDEST PUSH2 0x10C8 DUP2 PUSH2 0x1537 JUMP JUMPDEST DUP3 MSTORE POP POP JUMP JUMPDEST PUSH2 0x10D7 DUP2 PUSH2 0x1537 JUMP JUMPDEST DUP3 MSTORE POP POP JUMP JUMPDEST PUSH1 0x0 PUSH2 0x10E8 DUP3 PUSH2 0x14B9 JUMP JUMPDEST PUSH2 0x10F2 DUP2 DUP6 PUSH2 0x14C4 JUMP JUMPDEST SWAP4 POP PUSH2 0x1102 DUP2 DUP6 PUSH1 0x20 DUP7 ADD PUSH2 0x157C JUMP JUMPDEST PUSH2 0x110B DUP2 PUSH2 0x1726 JUMP JUMPDEST DUP5 ADD SWAP2 POP POP SWAP3 SWAP2 POP POP JUMP JUMPDEST PUSH1 0x0 PUSH2 0x1121 DUP3 PUSH2 0x14B9 JUMP JUMPDEST PUSH2 0x112B DUP2 DUP6 PUSH2 0x14D5 JUMP JUMPDEST SWAP4 POP PUSH2 0x113B DUP2 DUP6 PUSH1 0x20 DUP7 ADD PUSH2 0x157C JUMP JUMPDEST PUSH2 0x1144 DUP2 PUSH2 0x1726 JUMP JUMPDEST DUP5 ADD SWAP2 POP POP SWAP3 SWAP2 POP POP JUMP JUMPDEST PUSH1 0x0 DUP2 SLOAD PUSH2 0x115C DUP2 PUSH2 0x15D9 JUMP JUMPDEST PUSH2 0x1166 DUP2 DUP7 PUSH2 0x14D5 JUMP JUMPDEST SWAP5 POP PUSH1 0x1 DUP3 AND PUSH1 0x0 DUP2 EQ PUSH2 0x1181 JUMPI PUSH1 0x1 DUP2 EQ PUSH2 0x1193 JUMPI PUSH2 0x11C6 JUMP JUMPDEST PUSH1 0xFF NOT DUP4 AND DUP7 MSTORE PUSH1 0x20 DUP7 ADD SWAP4 POP PUSH2 0x11C6 JUMP JUMPDEST PUSH2 0x119C DUP6 PUSH2 0x14A4 JUMP JUMPDEST PUSH1 0x0 JUMPDEST DUP4 DUP2 LT ISZERO PUSH2 0x11BE JUMPI DUP2 SLOAD DUP2 DUP10 ADD MSTORE PUSH1 0x1 DUP3 ADD SWAP2 POP PUSH1 0x20 DUP2 ADD SWAP1 POP PUSH2 0x119F JUMP JUMPDEST DUP1 DUP9 ADD SWAP6 POP POP POP JUMPDEST POP POP POP SWAP3 SWAP2 POP POP JUMP JUMPDEST PUSH1 0x0 DUP2 SLOAD PUSH2 0x11DC DUP2 PUSH2 0x15D9 JUMP JUMPDEST PUSH2 0x11E6 DUP2 DUP7 PUSH2 0x14E6 JUMP JUMPDEST SWAP5 POP PUSH1 0x1 DUP3 AND PUSH1 0x0 DUP2 EQ PUSH2 0x1201 JUMPI PUSH1 0x1 DUP2 EQ PUSH2 0x1212 JUMPI PUSH2 0x1245 JUMP JUMPDEST PUSH1 0xFF NOT DUP4 AND DUP7 MSTORE DUP2 DUP7 ADD SWAP4 POP PUSH2 0x1245 JUMP JUMPDEST PUSH2 0x121B DUP6 PUSH2 0x14A4 JUMP JUMPDEST PUSH1 0x0 JUMPDEST DUP4 DUP2 LT ISZERO PUSH2 0x123D JUMPI DUP2 SLOAD DUP2 DUP10 ADD MSTORE PUSH1 0x1 DUP3 ADD SWAP2 POP PUSH1 0x20 DUP2 ADD SWAP1 POP PUSH2 0x121E JUMP JUMPDEST DUP4 DUP9 ADD SWAP6 POP POP POP JUMPDEST POP POP POP SWAP3 SWAP2 POP POP JUMP JUMPDEST PUSH1 0x0 PUSH1 0xC0 DUP4 ADD PUSH1 0x0 DUP4 ADD MLOAD PUSH2 0x1266 PUSH1 0x0 DUP7 ADD DUP3 PUSH2 0x12D7 JUMP JUMPDEST POP PUSH1 0x20 DUP4 ADD MLOAD PUSH2 0x1279 PUSH1 0x20 DUP7 ADD DUP3 PUSH2 0x10A1 JUMP JUMPDEST POP PUSH1 0x40 DUP4 ADD MLOAD PUSH2 0x128C PUSH1 0x40 DUP7 ADD DUP3 PUSH2 0x12D7 JUMP JUMPDEST POP PUSH1 0x60 DUP4 ADD MLOAD DUP5 DUP3 SUB PUSH1 0x60 DUP7 ADD MSTORE PUSH2 0x12A4 DUP3 DUP3 PUSH2 0x10DD JUMP JUMPDEST SWAP2 POP POP PUSH1 0x80 DUP4 ADD MLOAD PUSH2 0x12B9 PUSH1 0x80 DUP7 ADD DUP3 PUSH2 0x12D7 JUMP JUMPDEST POP PUSH1 0xA0 DUP4 ADD MLOAD PUSH2 0x12CC PUSH1 0xA0 DUP7 ADD DUP3 PUSH2 0x10BF JUMP JUMPDEST POP DUP1 SWAP2 POP POP SWAP3 SWAP2 POP POP JUMP JUMPDEST PUSH2 0x12E0 DUP2 PUSH2 0x1563 JUMP JUMPDEST DUP3 MSTORE POP POP JUMP JUMPDEST PUSH2 0x12EF DUP2 PUSH2 0x1563 JUMP JUMPDEST DUP3 MSTORE POP POP JUMP JUMPDEST PUSH1 0x0 PUSH2 0x1301 DUP3 DUP5 PUSH2 0x11CF JUMP JUMPDEST SWAP2 POP DUP2 SWAP1 POP SWAP3 SWAP2 POP POP JUMP JUMPDEST PUSH1 0x0 PUSH1 0x60 DUP3 ADD SWAP1 POP PUSH2 0x1321 PUSH1 0x0 DUP4 ADD DUP7 PUSH2 0x10B0 JUMP JUMPDEST PUSH2 0x132E PUSH1 0x20 DUP4 ADD DUP6 PUSH2 0x12E6 JUMP JUMPDEST DUP2 DUP2 SUB PUSH1 0x40 DUP4 ADD MSTORE PUSH2 0x1340 DUP2 DUP5 PUSH2 0x1116 JUMP JUMPDEST SWAP1 POP SWAP5 SWAP4 POP POP POP POP JUMP JUMPDEST PUSH1 0x0 PUSH1 0x80 DUP3 ADD SWAP1 POP PUSH2 0x135F PUSH1 0x0 DUP4 ADD DUP8 PUSH2 0x10B0 JUMP JUMPDEST PUSH2 0x136C PUSH1 0x20 DUP4 ADD DUP7 PUSH2 0x12E6 JUMP JUMPDEST DUP2 DUP2 SUB PUSH1 0x40 DUP4 ADD MSTORE PUSH2 0x137E DUP2 DUP6 PUSH2 0x114F JUMP JUMPDEST SWAP1 POP PUSH2 0x138D PUSH1 0x60 DUP4 ADD DUP5 PUSH2 0x10B0 JUMP JUMPDEST SWAP6 SWAP5 POP POP POP POP POP JUMP JUMPDEST PUSH1 0x0 PUSH1 0x60 DUP3 ADD SWAP1 POP PUSH2 0x13AB PUSH1 0x0 DUP4 ADD DUP7 PUSH2 0x10B0 JUMP JUMPDEST PUSH2 0x13B8 PUSH1 0x20 DUP4 ADD DUP6 PUSH2 0x12E6 JUMP JUMPDEST PUSH2 0x13C5 PUSH1 0x40 DUP4 ADD DUP5 PUSH2 0x12E6 JUMP JUMPDEST SWAP5 SWAP4 POP POP POP POP JUMP JUMPDEST PUSH1 0x0 PUSH1 0x20 DUP3 ADD SWAP1 POP PUSH2 0x13E2 PUSH1 0x0 DUP4 ADD DUP5 PUSH2 0x10CE JUMP JUMPDEST SWAP3 SWAP2 POP POP JUMP JUMPDEST PUSH1 0x0 PUSH1 0x20 DUP3 ADD SWAP1 POP DUP2 DUP2 SUB PUSH1 0x0 DUP4 ADD MSTORE PUSH2 0x1402 DUP2 DUP5 PUSH2 0x124E JUMP JUMPDEST SWAP1 POP SWAP3 SWAP2 POP POP JUMP JUMPDEST PUSH1 0x0 PUSH1 0x20 DUP3 ADD SWAP1 POP PUSH2 0x141F PUSH1 0x0 DUP4 ADD DUP5 PUSH2 0x12E6 JUMP JUMPDEST SWAP3 SWAP2 POP POP JUMP JUMPDEST PUSH1 0x0 PUSH1 0x40 DUP3 ADD SWAP1 POP PUSH2 0x143A PUSH1 0x0 DUP4 ADD DUP6 PUSH2 0x12E6 JUMP JUMPDEST PUSH2 0x1447 PUSH1 0x20 DUP4 ADD DUP5 PUSH2 0x10B0 JUMP JUMPDEST SWAP4 SWAP3 POP POP POP JUMP JUMPDEST PUSH1 0x0 PUSH2 0x1458 PUSH2 0x1469 JUMP JUMPDEST SWAP1 POP PUSH2 0x1464 DUP3 DUP3 PUSH2 0x160B JUMP JUMPDEST SWAP2 SWAP1 POP JUMP JUMPDEST PUSH1 0x0 PUSH1 0x40 MLOAD SWAP1 POP SWAP1 JUMP JUMPDEST PUSH1 0x0 PUSH8 0xFFFFFFFFFFFFFFFF DUP3 GT ISZERO PUSH2 0x148E JUMPI PUSH2 0x148D PUSH2 0x16E3 JUMP JUMPDEST JUMPDEST PUSH2 0x1497 DUP3 PUSH2 0x1726 JUMP JUMPDEST SWAP1 POP PUSH1 0x20 DUP2 ADD SWAP1 POP SWAP2 SWAP1 POP JUMP JUMPDEST PUSH1 0x0 DUP2 SWAP1 POP DUP2 PUSH1 0x0 MSTORE PUSH1 0x20 PUSH1 0x0 KECCAK256 SWAP1 POP SWAP2 SWAP1 POP JUMP JUMPDEST PUSH1 0x0 DUP2 MLOAD SWAP1 POP SWAP2 SWAP1 POP JUMP JUMPDEST PUSH1 0x0 DUP3 DUP3 MSTORE PUSH1 0x20 DUP3 ADD SWAP1 POP SWAP3 SWAP2 POP POP JUMP JUMPDEST PUSH1 0x0 DUP3 DUP3 MSTORE PUSH1 0x20 DUP3 ADD SWAP1 POP SWAP3 SWAP2 POP POP JUMP JUMPDEST PUSH1 0x0 DUP2 SWAP1 POP SWAP3 SWAP2 POP POP JUMP JUMPDEST PUSH1 0x0 PUSH2 0x14FC DUP3 PUSH2 0x1563 JUMP JUMPDEST SWAP2 POP PUSH2 0x1507 DUP4 PUSH2 0x1563 JUMP JUMPDEST SWAP3 POP DUP3 DUP3 LT ISZERO PUSH2 0x151A JUMPI PUSH2 0x1519 PUSH2 0x1685 JUMP JUMPDEST JUMPDEST DUP3 DUP3 SUB SWAP1 POP SWAP3 SWAP2 POP POP JUMP JUMPDEST PUSH1 0x0 PUSH2 0x1530 DUP3 PUSH2 0x1543 JUMP JUMPDEST SWAP1 POP SWAP2 SWAP1 POP JUMP JUMPDEST PUSH1 0x0 DUP2 ISZERO ISZERO SWAP1 POP SWAP2 SWAP1 POP JUMP JUMPDEST PUSH1 0x0 PUSH20 0xFFFFFFFFFFFFFFFFFFFFFFFFFFFFFFFFFFFFFFFF DUP3 AND SWAP1 POP SWAP2 SWAP1 POP JUMP JUMPDEST PUSH1 0x0 DUP2 SWAP1 POP SWAP2 SWAP1 POP JUMP JUMPDEST DUP3 DUP2 DUP4 CALLDATACOPY PUSH1 0x0 DUP4 DUP4 ADD MSTORE POP POP POP JUMP JUMPDEST PUSH1 0x0 JUMPDEST DUP4 DUP2 LT ISZERO PUSH2 0x159A JUMPI DUP1 DUP3 ADD MLOAD DUP2 DUP5 ADD MSTORE PUSH1 0x20 DUP2 ADD SWAP1 POP PUSH2 0x157F JUMP JUMPDEST DUP4 DUP2 GT ISZERO PUSH2 0x15A9 JUMPI PUSH1 0x0 DUP5 DUP5 ADD MSTORE JUMPDEST POP POP POP POP JUMP JUMPDEST PUSH1 0x0 PUSH2 0x15BA DUP3 PUSH2 0x1563 JUMP JUMPDEST SWAP2 POP PUSH1 0x0 DUP3 EQ ISZERO PUSH2 0x15CE JUMPI PUSH2 0x15CD PUSH2 0x1685 JUMP JUMPDEST JUMPDEST PUSH1 0x1 DUP3 SUB SWAP1 POP SWAP2 SWAP1 POP JUMP JUMPDEST PUSH1 0x0 PUSH1 0x2 DUP3 DIV SWAP1 POP PUSH1 0x1 DUP3 AND DUP1 PUSH2 0x15F1 JUMPI PUSH1 0x7F DUP3 AND SWAP2 POP JUMPDEST PUSH1 0x20 DUP3 LT DUP2 EQ ISZERO PUSH2 0x1605 JUMPI PUSH2 0x1604 PUSH2 0x16B4 JUMP JUMPDEST JUMPDEST POP SWAP2 SWAP1 POP JUMP JUMPDEST PUSH2 0x1614 DUP3 PUSH2 0x1726 JUMP JUMPDEST DUP2 ADD DUP2 DUP2 LT PUSH8 0xFFFFFFFFFFFFFFFF DUP3 GT OR ISZERO PUSH2 0x1633 JUMPI PUSH2 0x1632 PUSH2 0x16E3 JUMP JUMPDEST JUMPDEST DUP1 PUSH1 0x40 MSTORE POP POP POP JUMP JUMPDEST PUSH1 0x0 PUSH2 0x1647 DUP3 PUSH2 0x1563 JUMP JUMPDEST SWAP2 POP PUSH32 0xFFFFFFFFFFFFFFFFFFFFFFFFFFFFFFFFFFFFFFFFFFFFFFFFFFFFFFFFFFFFFFFF DUP3 EQ ISZERO PUSH2 0x167A JUMPI PUSH2 0x1679 PUSH2 0x1685 JUMP JUMPDEST JUMPDEST PUSH1 0x1 DUP3 ADD SWAP1 POP SWAP2 SWAP1 POP JUMP JUMPDEST PUSH32 0x4E487B7100000000000000000000000000000000000000000000000000000000 PUSH1 0x0 MSTORE PUSH1 0x11 PUSH1 0x4 MSTORE PUSH1 0x24 PUSH1 0x0 REVERT JUMPDEST PUSH32 0x4E487B7100000000000000000000000000000000000000000000000000000000 PUSH1 0x0 MSTORE PUSH1 0x22 PUSH1 0x4 MSTORE PUSH1 0x24 PUSH1 0x0 REVERT JUMPDEST PUSH32 0x4E487B7100000000000000000000000000000000000000000000000000000000 PUSH1 0x0 MSTORE PUSH1 0x41 PUSH1 0x4 MSTORE PUSH1 0x24 PUSH1 0x0 REVERT JUMPDEST PUSH1 0x0 DUP1 REVERT JUMPDEST PUSH1 0x0 DUP1 REVERT JUMPDEST PUSH1 0x0 DUP1 REVERT JUMPDEST PUSH1 0x0 DUP1 REVERT JUMPDEST PUSH1 0x0 PUSH1 0x1F NOT PUSH1 0x1F DUP4 ADD AND SWAP1 POP SWAP2 SWAP1 POP JUMP JUMPDEST PUSH2 0x1740 DUP2 PUSH2 0x1525 JUMP JUMPDEST DUP2 EQ PUSH2 0x174B JUMPI PUSH1 0x0 DUP1 REVERT JUMPDEST POP JUMP JUMPDEST PUSH2 0x1757 DUP2 PUSH2 0x1563 JUMP JUMPDEST DUP2 EQ PUSH2 0x1762 JUMPI PUSH1 0x0 DUP1 REVERT JUMPDEST POP JUMP INVALID LOG2 PUSH5 0x6970667358 0x22 SLT KECCAK256 DELEGATECALL 0x1E 0x21 PUSH19 0x200AC3393B29AD27933C1520C72A745BAD8E8B JUMPDEST 0x26 0xBA SLOAD 0xE1 0xE 0xB7 0x4A BALANCE PUSH5 0x736F6C6343 STOP ADDMOD SMOD STOP CALLER "
				},
				"gasEstimates": {
					"creation": {
						"codeDepositCost": "1208600",
						"executionCost": "infinite",
						"totalCost": "infinite"
					},
					"external": {
						"approveTx(uint256)": "infinite",
						"checkApproved(uint256,address)": "3134",
						"checkOwner(address)": "2971",
						"executeTx(uint256)": "infinite",
						"getTransaction(uint256)": "infinite",
						"required()": "2495",
						"revokeTx(uint256)": "infinite",
						"submitTx(address,uint256,bytes)": "infinite",
						"txId()": "2473"
					}
				},
				"methodIdentifiers": {
					"approveTx(uint256)": "1087393a",
					"checkApproved(uint256,address)": "8f9487eb",
					"checkOwner(address)": "e0e3671c",
					"executeTx(uint256)": "54b5fe80",
					"getTransaction(uint256)": "33ea3dc8",
					"required()": "dc8452cd",
					"revokeTx(uint256)": "5986aaca",
					"submitTx(address,uint256,bytes)": "bb84c5a9",
					"txId()": "cd568d1f"
				}
			},
			"storageLayout": {
				"storage": [
					{
						"astId": 37,
						"contract": "contracts/DeFi/MultiSigV2.sol:MultiSigWallet",
						"label": "isOwner",
						"offset": 0,
						"slot": "0",
						"type": "t_mapping(t_address,t_bool)"
					},
					{
						"astId": 55,
						"contract": "contracts/DeFi/MultiSigV2.sol:MultiSigWallet",
						"label": "transactions",
						"offset": 0,
						"slot": "1",
						"type": "t_mapping(t_uint256,t_struct(Transaction)50_storage)"
					},
					{
						"astId": 61,
						"contract": "contracts/DeFi/MultiSigV2.sol:MultiSigWallet",
						"label": "approved",
						"offset": 0,
						"slot": "2",
						"type": "t_mapping(t_uint256,t_mapping(t_address,t_bool))"
					},
					{
						"astId": 63,
						"contract": "contracts/DeFi/MultiSigV2.sol:MultiSigWallet",
						"label": "required",
						"offset": 0,
						"slot": "3",
						"type": "t_uint256"
					},
					{
						"astId": 65,
						"contract": "contracts/DeFi/MultiSigV2.sol:MultiSigWallet",
						"label": "txId",
						"offset": 0,
						"slot": "4",
						"type": "t_uint256"
					}
				],
				"types": {
					"t_address": {
						"encoding": "inplace",
						"label": "address",
						"numberOfBytes": "20"
					},
					"t_bool": {
						"encoding": "inplace",
						"label": "bool",
						"numberOfBytes": "1"
					},
					"t_bytes_storage": {
						"encoding": "bytes",
						"label": "bytes",
						"numberOfBytes": "32"
					},
					"t_mapping(t_address,t_bool)": {
						"encoding": "mapping",
						"key": "t_address",
						"label": "mapping(address => bool)",
						"numberOfBytes": "32",
						"value": "t_bool"
					},
					"t_mapping(t_uint256,t_mapping(t_address,t_bool))": {
						"encoding": "mapping",
						"key": "t_uint256",
						"label": "mapping(uint256 => mapping(address => bool))",
						"numberOfBytes": "32",
						"value": "t_mapping(t_address,t_bool)"
					},
					"t_mapping(t_uint256,t_struct(Transaction)50_storage)": {
						"encoding": "mapping",
						"key": "t_uint256",
						"label": "mapping(uint256 => struct MultiSigWallet.Transaction)",
						"numberOfBytes": "32",
						"value": "t_struct(Transaction)50_storage"
					},
					"t_struct(Transaction)50_storage": {
						"encoding": "inplace",
						"label": "struct MultiSigWallet.Transaction",
						"members": [
							{
								"astId": 39,
								"contract": "contracts/DeFi/MultiSigV2.sol:MultiSigWallet",
								"label": "id",
								"offset": 0,
								"slot": "0",
								"type": "t_uint256"
							},
							{
								"astId": 41,
								"contract": "contracts/DeFi/MultiSigV2.sol:MultiSigWallet",
								"label": "to",
								"offset": 0,
								"slot": "1",
								"type": "t_address"
							},
							{
								"astId": 43,
								"contract": "contracts/DeFi/MultiSigV2.sol:MultiSigWallet",
								"label": "value",
								"offset": 0,
								"slot": "2",
								"type": "t_uint256"
							},
							{
								"astId": 45,
								"contract": "contracts/DeFi/MultiSigV2.sol:MultiSigWallet",
								"label": "data",
								"offset": 0,
								"slot": "3",
								"type": "t_bytes_storage"
							},
							{
								"astId": 47,
								"contract": "contracts/DeFi/MultiSigV2.sol:MultiSigWallet",
								"label": "confirmations",
								"offset": 0,
								"slot": "4",
								"type": "t_uint256"
							},
							{
								"astId": 49,
								"contract": "contracts/DeFi/MultiSigV2.sol:MultiSigWallet",
								"label": "executed",
								"offset": 0,
								"slot": "5",
								"type": "t_bool"
							}
						],
						"numberOfBytes": "192"
					},
					"t_uint256": {
						"encoding": "inplace",
						"label": "uint256",
						"numberOfBytes": "32"
					}
				}
			},
			"userdoc": {
				"kind": "user",
				"methods": {},
				"version": 1
			}
		}
	}
}