{
	"contracts/DeFi/MerkleAirdrop.sol": {
		"PrivateAirdrop": {
			"abi": [
				{
					"inputs": [
						{
							"internalType": "contract IERC20",
							"name": "_airdropToken",
							"type": "address"
						},
						{
							"internalType": "uint256",
							"name": "_amountPerRedemption",
							"type": "uint256"
						},
						{
							"internalType": "contract IPlonkVerifier",
							"name": "_verifier",
							"type": "address"
						},
						{
							"internalType": "bytes32",
							"name": "_root",
							"type": "bytes32"
						}
					],
					"stateMutability": "nonpayable",
					"type": "constructor"
				},
				{
					"anonymous": false,
					"inputs": [
						{
							"indexed": true,
							"internalType": "address",
							"name": "previousOwner",
							"type": "address"
						},
						{
							"indexed": true,
							"internalType": "address",
							"name": "newOwner",
							"type": "address"
						}
					],
					"name": "OwnershipTransferred",
					"type": "event"
				},
				{
					"inputs": [],
					"name": "airdropToken",
					"outputs": [
						{
							"internalType": "contract IERC20",
							"name": "",
							"type": "address"
						}
					],
					"stateMutability": "view",
					"type": "function"
				},
				{
					"inputs": [],
					"name": "amountPerRedemption",
					"outputs": [
						{
							"internalType": "uint256",
							"name": "",
							"type": "uint256"
						}
					],
					"stateMutability": "view",
					"type": "function"
				},
				{
					"inputs": [
						{
							"internalType": "bytes",
							"name": "proof",
							"type": "bytes"
						},
						{
							"internalType": "bytes32",
							"name": "nullifierHash",
							"type": "bytes32"
						}
					],
					"name": "collectAirdrop",
					"outputs": [],
					"stateMutability": "nonpayable",
					"type": "function"
				},
				{
					"inputs": [
						{
							"internalType": "bytes32",
							"name": "",
							"type": "bytes32"
						}
					],
					"name": "nullifierSpent",
					"outputs": [
						{
							"internalType": "bool",
							"name": "",
							"type": "bool"
						}
					],
					"stateMutability": "view",
					"type": "function"
				},
				{
					"inputs": [],
					"name": "owner",
					"outputs": [
						{
							"internalType": "address",
							"name": "",
							"type": "address"
						}
					],
					"stateMutability": "view",
					"type": "function"
				},
				{
					"inputs": [],
					"name": "renounceOwnership",
					"outputs": [],
					"stateMutability": "nonpayable",
					"type": "function"
				},
				{
					"inputs": [],
					"name": "root",
					"outputs": [
						{
							"internalType": "bytes32",
							"name": "",
							"type": "bytes32"
						}
					],
					"stateMutability": "view",
					"type": "function"
				},
				{
					"inputs": [
						{
							"internalType": "address",
							"name": "newOwner",
							"type": "address"
						}
					],
					"name": "transferOwnership",
					"outputs": [],
					"stateMutability": "nonpayable",
					"type": "function"
				},
				{
					"inputs": [
						{
							"internalType": "bytes32",
							"name": "newRoot",
							"type": "bytes32"
						}
					],
					"name": "updateRoot",
					"outputs": [],
					"stateMutability": "nonpayable",
					"type": "function"
				}
			],
			"devdoc": {
				"kind": "dev",
				"methods": {
					"owner()": {
						"details": "Returns the address of the current owner."
					},
					"renounceOwnership()": {
						"details": "Leaves the contract without owner. It will not be possible to call `onlyOwner` functions anymore. Can only be called by the current owner. NOTE: Renouncing ownership will leave the contract without an owner, thereby removing any functionality that is only available to the owner."
					},
					"transferOwnership(address)": {
						"details": "Transfers ownership of the contract to a new account (`newOwner`). Can only be called by the current owner."
					},
					"updateRoot(bytes32)": {
						"details": "Function can be removed to make the merkle tree immutable. If removed, the ownable extension can also be removed for gas savings."
					}
				},
				"title": "An example airdrop contract utilizing a zk-proof of MerkleTree inclusion.",
				"version": 1
			},
			"evm": {
				"assembly": "    /* \"contracts/DeFi/MerkleAirdrop.sol\":434:2124  contract PrivateAirdrop is Ownable {... */\n  mstore(0x40, 0x80)\n    /* \"contracts/DeFi/MerkleAirdrop.sol\":768:1057  constructor(... */\n  callvalue\n  dup1\n  iszero\n  tag_1\n  jumpi\n  0x00\n  dup1\n  revert\ntag_1:\n  pop\n  mload(0x40)\n  sub(codesize, bytecodeSize)\n  dup1\n  bytecodeSize\n  dup4\n  codecopy\n  dup2\n  dup2\n  add\n  0x40\n  mstore\n  dup2\n  add\n  swap1\n  tag_2\n  swap2\n  swap1\n  tag_3\n  jump\t// in\ntag_2:\n    /* \"@openzeppelin/contracts/access/Ownable.sol\":921:953  _transferOwnership(_msgSender()) */\n  tag_7\n    /* \"@openzeppelin/contracts/access/Ownable.sol\":940:952  _msgSender() */\n  tag_8\n    /* \"@openzeppelin/contracts/access/Ownable.sol\":940:950  _msgSender */\n  shl(0x20, tag_9)\n    /* \"@openzeppelin/contracts/access/Ownable.sol\":940:952  _msgSender() */\n  0x20\n  shr\n  jump\t// in\ntag_8:\n    /* \"@openzeppelin/contracts/access/Ownable.sol\":921:939  _transferOwnership */\n  shl(0x20, tag_10)\n    /* \"@openzeppelin/contracts/access/Ownable.sol\":921:953  _transferOwnership(_msgSender()) */\n  0x20\n  shr\n  jump\t// in\ntag_7:\n    /* \"contracts/DeFi/MerkleAirdrop.sol\":933:946  _airdropToken */\n  dup4\n    /* \"contracts/DeFi/MerkleAirdrop.sol\":918:930  airdropToken */\n  0x01\n  0x00\n    /* \"contracts/DeFi/MerkleAirdrop.sol\":918:946  airdropToken = _airdropToken */\n  0x0100\n  exp\n  dup2\n  sload\n  dup2\n  0xffffffffffffffffffffffffffffffffffffffff\n  mul\n  not\n  and\n  swap1\n  dup4\n  0xffffffffffffffffffffffffffffffffffffffff\n  and\n  mul\n  or\n  swap1\n  sstore\n  pop\n    /* \"contracts/DeFi/MerkleAirdrop.sol\":978:998  _amountPerRedemption */\n  dup3\n    /* \"contracts/DeFi/MerkleAirdrop.sol\":956:975  amountPerRedemption */\n  0x02\n    /* \"contracts/DeFi/MerkleAirdrop.sol\":956:998  amountPerRedemption = _amountPerRedemption */\n  dup2\n  swap1\n  sstore\n  pop\n    /* \"contracts/DeFi/MerkleAirdrop.sol\":1019:1028  _verifier */\n  dup2\n    /* \"contracts/DeFi/MerkleAirdrop.sol\":1008:1016  verifier */\n  0x03\n  0x00\n    /* \"contracts/DeFi/MerkleAirdrop.sol\":1008:1028  verifier = _verifier */\n  0x0100\n  exp\n  dup2\n  sload\n  dup2\n  0xffffffffffffffffffffffffffffffffffffffff\n  mul\n  not\n  and\n  swap1\n  dup4\n  0xffffffffffffffffffffffffffffffffffffffff\n  and\n  mul\n  or\n  swap1\n  sstore\n  pop\n    /* \"contracts/DeFi/MerkleAirdrop.sol\":1045:1050  _root */\n  dup1\n    /* \"contracts/DeFi/MerkleAirdrop.sol\":1038:1042  root */\n  0x04\n    /* \"contracts/DeFi/MerkleAirdrop.sol\":1038:1050  root = _root */\n  dup2\n  swap1\n  sstore\n  pop\n    /* \"contracts/DeFi/MerkleAirdrop.sol\":768:1057  constructor(... */\n  pop\n  pop\n  pop\n  pop\n    /* \"contracts/DeFi/MerkleAirdrop.sol\":434:2124  contract PrivateAirdrop is Ownable {... */\n  jump(tag_12)\n    /* \"@openzeppelin/contracts/utils/Context.sol\":640:736  function _msgSender() internal view virtual returns (address) {... */\ntag_9:\n    /* \"@openzeppelin/contracts/utils/Context.sol\":693:700  address */\n  0x00\n    /* \"@openzeppelin/contracts/utils/Context.sol\":719:729  msg.sender */\n  caller\n    /* \"@openzeppelin/contracts/utils/Context.sol\":712:729  return msg.sender */\n  swap1\n  pop\n    /* \"@openzeppelin/contracts/utils/Context.sol\":640:736  function _msgSender() internal view virtual returns (address) {... */\n  swap1\n  jump\t// out\n    /* \"@openzeppelin/contracts/access/Ownable.sol\":2270:2457  function _transferOwnership(address newOwner) internal virtual {... */\ntag_10:\n    /* \"@openzeppelin/contracts/access/Ownable.sol\":2343:2359  address oldOwner */\n  0x00\n    /* \"@openzeppelin/contracts/access/Ownable.sol\":2362:2368  _owner */\n  dup1\n  0x00\n  swap1\n  sload\n  swap1\n  0x0100\n  exp\n  swap1\n  div\n  0xffffffffffffffffffffffffffffffffffffffff\n  and\n    /* \"@openzeppelin/contracts/access/Ownable.sol\":2343:2368  address oldOwner = _owner */\n  swap1\n  pop\n    /* \"@openzeppelin/contracts/access/Ownable.sol\":2387:2395  newOwner */\n  dup2\n    /* \"@openzeppelin/contracts/access/Ownable.sol\":2378:2384  _owner */\n  0x00\n  dup1\n    /* \"@openzeppelin/contracts/access/Ownable.sol\":2378:2395  _owner = newOwner */\n  0x0100\n  exp\n  dup2\n  sload\n  dup2\n  0xffffffffffffffffffffffffffffffffffffffff\n  mul\n  not\n  and\n  swap1\n  dup4\n  0xffffffffffffffffffffffffffffffffffffffff\n  and\n  mul\n  or\n  swap1\n  sstore\n  pop\n    /* \"@openzeppelin/contracts/access/Ownable.sol\":2441:2449  newOwner */\n  dup2\n    /* \"@openzeppelin/contracts/access/Ownable.sol\":2410:2450  OwnershipTransferred(oldOwner, newOwner) */\n  0xffffffffffffffffffffffffffffffffffffffff\n  and\n    /* \"@openzeppelin/contracts/access/Ownable.sol\":2431:2439  oldOwner */\n  dup2\n    /* \"@openzeppelin/contracts/access/Ownable.sol\":2410:2450  OwnershipTransferred(oldOwner, newOwner) */\n  0xffffffffffffffffffffffffffffffffffffffff\n  and\n  0x8be0079c531659141344cd1fd0a4f28419497f9722a3daafe3b4186f6b6457e0\n  mload(0x40)\n  mload(0x40)\n  dup1\n  swap2\n  sub\n  swap1\n  log3\n    /* \"@openzeppelin/contracts/access/Ownable.sol\":2333:2457  {... */\n  pop\n    /* \"@openzeppelin/contracts/access/Ownable.sol\":2270:2457  function _transferOwnership(address newOwner) internal virtual {... */\n  pop\n  jump\t// out\n    /* \"#utility.yul\":7:150   */\ntag_16:\n    /* \"#utility.yul\":64:69   */\n  0x00\n    /* \"#utility.yul\":95:101   */\n  dup2\n    /* \"#utility.yul\":89:102   */\n  mload\n    /* \"#utility.yul\":80:102   */\n  swap1\n  pop\n    /* \"#utility.yul\":111:144   */\n  tag_18\n    /* \"#utility.yul\":138:143   */\n  dup2\n    /* \"#utility.yul\":111:144   */\n  tag_19\n  jump\t// in\ntag_18:\n    /* \"#utility.yul\":7:150   */\n  swap3\n  swap2\n  pop\n  pop\n  jump\t// out\n    /* \"#utility.yul\":156:327   */\ntag_20:\n    /* \"#utility.yul\":227:232   */\n  0x00\n    /* \"#utility.yul\":258:264   */\n  dup2\n    /* \"#utility.yul\":252:265   */\n  mload\n    /* \"#utility.yul\":243:265   */\n  swap1\n  pop\n    /* \"#utility.yul\":274:321   */\n  tag_22\n    /* \"#utility.yul\":315:320   */\n  dup2\n    /* \"#utility.yul\":274:321   */\n  tag_23\n  jump\t// in\ntag_22:\n    /* \"#utility.yul\":156:327   */\n  swap3\n  swap2\n  pop\n  pop\n  jump\t// out\n    /* \"#utility.yul\":333:520   */\ntag_24:\n    /* \"#utility.yul\":412:417   */\n  0x00\n    /* \"#utility.yul\":443:449   */\n  dup2\n    /* \"#utility.yul\":437:450   */\n  mload\n    /* \"#utility.yul\":428:450   */\n  swap1\n  pop\n    /* \"#utility.yul\":459:514   */\n  tag_26\n    /* \"#utility.yul\":508:513   */\n  dup2\n    /* \"#utility.yul\":459:514   */\n  tag_27\n  jump\t// in\ntag_26:\n    /* \"#utility.yul\":333:520   */\n  swap3\n  swap2\n  pop\n  pop\n  jump\t// out\n    /* \"#utility.yul\":526:669   */\ntag_28:\n    /* \"#utility.yul\":583:588   */\n  0x00\n    /* \"#utility.yul\":614:620   */\n  dup2\n    /* \"#utility.yul\":608:621   */\n  mload\n    /* \"#utility.yul\":599:621   */\n  swap1\n  pop\n    /* \"#utility.yul\":630:663   */\n  tag_30\n    /* \"#utility.yul\":657:662   */\n  dup2\n    /* \"#utility.yul\":630:663   */\n  tag_31\n  jump\t// in\ntag_30:\n    /* \"#utility.yul\":526:669   */\n  swap3\n  swap2\n  pop\n  pop\n  jump\t// out\n    /* \"#utility.yul\":675:1567   */\ntag_3:\n    /* \"#utility.yul\":808:814   */\n  0x00\n    /* \"#utility.yul\":816:822   */\n  dup1\n    /* \"#utility.yul\":824:830   */\n  0x00\n    /* \"#utility.yul\":832:838   */\n  dup1\n    /* \"#utility.yul\":881:884   */\n  0x80\n    /* \"#utility.yul\":869:878   */\n  dup6\n    /* \"#utility.yul\":860:867   */\n  dup8\n    /* \"#utility.yul\":856:879   */\n  sub\n    /* \"#utility.yul\":852:885   */\n  slt\n    /* \"#utility.yul\":849:969   */\n  iszero\n  tag_33\n  jumpi\n    /* \"#utility.yul\":888:967   */\n  tag_34\n  tag_35\n  jump\t// in\ntag_34:\n    /* \"#utility.yul\":849:969   */\ntag_33:\n    /* \"#utility.yul\":1008:1009   */\n  0x00\n    /* \"#utility.yul\":1033:1111   */\n  tag_36\n    /* \"#utility.yul\":1103:1110   */\n  dup8\n    /* \"#utility.yul\":1094:1100   */\n  dup3\n    /* \"#utility.yul\":1083:1092   */\n  dup9\n    /* \"#utility.yul\":1079:1101   */\n  add\n    /* \"#utility.yul\":1033:1111   */\n  tag_20\n  jump\t// in\ntag_36:\n    /* \"#utility.yul\":1023:1111   */\n  swap5\n  pop\n    /* \"#utility.yul\":979:1121   */\n  pop\n    /* \"#utility.yul\":1160:1162   */\n  0x20\n    /* \"#utility.yul\":1186:1250   */\n  tag_37\n    /* \"#utility.yul\":1242:1249   */\n  dup8\n    /* \"#utility.yul\":1233:1239   */\n  dup3\n    /* \"#utility.yul\":1222:1231   */\n  dup9\n    /* \"#utility.yul\":1218:1240   */\n  add\n    /* \"#utility.yul\":1186:1250   */\n  tag_28\n  jump\t// in\ntag_37:\n    /* \"#utility.yul\":1176:1250   */\n  swap4\n  pop\n    /* \"#utility.yul\":1131:1260   */\n  pop\n    /* \"#utility.yul\":1299:1301   */\n  0x40\n    /* \"#utility.yul\":1325:1411   */\n  tag_38\n    /* \"#utility.yul\":1403:1410   */\n  dup8\n    /* \"#utility.yul\":1394:1400   */\n  dup3\n    /* \"#utility.yul\":1383:1392   */\n  dup9\n    /* \"#utility.yul\":1379:1401   */\n  add\n    /* \"#utility.yul\":1325:1411   */\n  tag_24\n  jump\t// in\ntag_38:\n    /* \"#utility.yul\":1315:1411   */\n  swap3\n  pop\n    /* \"#utility.yul\":1270:1421   */\n  pop\n    /* \"#utility.yul\":1460:1462   */\n  0x60\n    /* \"#utility.yul\":1486:1550   */\n  tag_39\n    /* \"#utility.yul\":1542:1549   */\n  dup8\n    /* \"#utility.yul\":1533:1539   */\n  dup3\n    /* \"#utility.yul\":1522:1531   */\n  dup9\n    /* \"#utility.yul\":1518:1540   */\n  add\n    /* \"#utility.yul\":1486:1550   */\n  tag_16\n  jump\t// in\ntag_39:\n    /* \"#utility.yul\":1476:1550   */\n  swap2\n  pop\n    /* \"#utility.yul\":1431:1560   */\n  pop\n    /* \"#utility.yul\":675:1567   */\n  swap3\n  swap6\n  swap2\n  swap5\n  pop\n  swap3\n  pop\n  jump\t// out\n    /* \"#utility.yul\":1654:1750   */\ntag_42:\n    /* \"#utility.yul\":1691:1698   */\n  0x00\n    /* \"#utility.yul\":1720:1744   */\n  tag_44\n    /* \"#utility.yul\":1738:1743   */\n  dup3\n    /* \"#utility.yul\":1720:1744   */\n  tag_45\n  jump\t// in\ntag_44:\n    /* \"#utility.yul\":1709:1744   */\n  swap1\n  pop\n    /* \"#utility.yul\":1654:1750   */\n  swap2\n  swap1\n  pop\n  jump\t// out\n    /* \"#utility.yul\":1756:1833   */\ntag_46:\n    /* \"#utility.yul\":1793:1800   */\n  0x00\n    /* \"#utility.yul\":1822:1827   */\n  dup2\n    /* \"#utility.yul\":1811:1827   */\n  swap1\n  pop\n    /* \"#utility.yul\":1756:1833   */\n  swap2\n  swap1\n  pop\n  jump\t// out\n    /* \"#utility.yul\":1839:1949   */\ntag_48:\n    /* \"#utility.yul\":1890:1897   */\n  0x00\n    /* \"#utility.yul\":1919:1943   */\n  tag_50\n    /* \"#utility.yul\":1937:1942   */\n  dup3\n    /* \"#utility.yul\":1919:1943   */\n  tag_42\n  jump\t// in\ntag_50:\n    /* \"#utility.yul\":1908:1943   */\n  swap1\n  pop\n    /* \"#utility.yul\":1839:1949   */\n  swap2\n  swap1\n  pop\n  jump\t// out\n    /* \"#utility.yul\":1955:2073   */\ntag_51:\n    /* \"#utility.yul\":2014:2021   */\n  0x00\n    /* \"#utility.yul\":2043:2067   */\n  tag_53\n    /* \"#utility.yul\":2061:2066   */\n  dup3\n    /* \"#utility.yul\":2043:2067   */\n  tag_42\n  jump\t// in\ntag_53:\n    /* \"#utility.yul\":2032:2067   */\n  swap1\n  pop\n    /* \"#utility.yul\":1955:2073   */\n  swap2\n  swap1\n  pop\n  jump\t// out\n    /* \"#utility.yul\":2079:2205   */\ntag_45:\n    /* \"#utility.yul\":2116:2123   */\n  0x00\n    /* \"#utility.yul\":2156:2198   */\n  0xffffffffffffffffffffffffffffffffffffffff\n    /* \"#utility.yul\":2149:2154   */\n  dup3\n    /* \"#utility.yul\":2145:2199   */\n  and\n    /* \"#utility.yul\":2134:2199   */\n  swap1\n  pop\n    /* \"#utility.yul\":2079:2205   */\n  swap2\n  swap1\n  pop\n  jump\t// out\n    /* \"#utility.yul\":2211:2288   */\ntag_55:\n    /* \"#utility.yul\":2248:2255   */\n  0x00\n    /* \"#utility.yul\":2277:2282   */\n  dup2\n    /* \"#utility.yul\":2266:2282   */\n  swap1\n  pop\n    /* \"#utility.yul\":2211:2288   */\n  swap2\n  swap1\n  pop\n  jump\t// out\n    /* \"#utility.yul\":2417:2534   */\ntag_35:\n    /* \"#utility.yul\":2526:2527   */\n  0x00\n    /* \"#utility.yul\":2523:2524   */\n  dup1\n    /* \"#utility.yul\":2516:2528   */\n  revert\n    /* \"#utility.yul\":2540:2662   */\ntag_19:\n    /* \"#utility.yul\":2613:2637   */\n  tag_61\n    /* \"#utility.yul\":2631:2636   */\n  dup2\n    /* \"#utility.yul\":2613:2637   */\n  tag_46\n  jump\t// in\ntag_61:\n    /* \"#utility.yul\":2606:2611   */\n  dup2\n    /* \"#utility.yul\":2603:2638   */\n  eq\n    /* \"#utility.yul\":2593:2656   */\n  tag_62\n  jumpi\n    /* \"#utility.yul\":2652:2653   */\n  0x00\n    /* \"#utility.yul\":2649:2650   */\n  dup1\n    /* \"#utility.yul\":2642:2654   */\n  revert\n    /* \"#utility.yul\":2593:2656   */\ntag_62:\n    /* \"#utility.yul\":2540:2662   */\n  pop\n  jump\t// out\n    /* \"#utility.yul\":2668:2818   */\ntag_23:\n    /* \"#utility.yul\":2755:2793   */\n  tag_64\n    /* \"#utility.yul\":2787:2792   */\n  dup2\n    /* \"#utility.yul\":2755:2793   */\n  tag_48\n  jump\t// in\ntag_64:\n    /* \"#utility.yul\":2748:2753   */\n  dup2\n    /* \"#utility.yul\":2745:2794   */\n  eq\n    /* \"#utility.yul\":2735:2812   */\n  tag_65\n  jumpi\n    /* \"#utility.yul\":2808:2809   */\n  0x00\n    /* \"#utility.yul\":2805:2806   */\n  dup1\n    /* \"#utility.yul\":2798:2810   */\n  revert\n    /* \"#utility.yul\":2735:2812   */\ntag_65:\n    /* \"#utility.yul\":2668:2818   */\n  pop\n  jump\t// out\n    /* \"#utility.yul\":2824:2990   */\ntag_27:\n    /* \"#utility.yul\":2919:2965   */\n  tag_67\n    /* \"#utility.yul\":2959:2964   */\n  dup2\n    /* \"#utility.yul\":2919:2965   */\n  tag_51\n  jump\t// in\ntag_67:\n    /* \"#utility.yul\":2912:2917   */\n  dup2\n    /* \"#utility.yul\":2909:2966   */\n  eq\n    /* \"#utility.yul\":2899:2984   */\n  tag_68\n  jumpi\n    /* \"#utility.yul\":2980:2981   */\n  0x00\n    /* \"#utility.yul\":2977:2978   */\n  dup1\n    /* \"#utility.yul\":2970:2982   */\n  revert\n    /* \"#utility.yul\":2899:2984   */\ntag_68:\n    /* \"#utility.yul\":2824:2990   */\n  pop\n  jump\t// out\n    /* \"#utility.yul\":2996:3118   */\ntag_31:\n    /* \"#utility.yul\":3069:3093   */\n  tag_70\n    /* \"#utility.yul\":3087:3092   */\n  dup2\n    /* \"#utility.yul\":3069:3093   */\n  tag_55\n  jump\t// in\ntag_70:\n    /* \"#utility.yul\":3062:3067   */\n  dup2\n    /* \"#utility.yul\":3059:3094   */\n  eq\n    /* \"#utility.yul\":3049:3112   */\n  tag_71\n  jumpi\n    /* \"#utility.yul\":3108:3109   */\n  0x00\n    /* \"#utility.yul\":3105:3106   */\n  dup1\n    /* \"#utility.yul\":3098:3110   */\n  revert\n    /* \"#utility.yul\":3049:3112   */\ntag_71:\n    /* \"#utility.yul\":2996:3118   */\n  pop\n  jump\t// out\n    /* \"contracts/DeFi/MerkleAirdrop.sol\":434:2124  contract PrivateAirdrop is Ownable {... */\ntag_12:\n  dataSize(sub_0)\n  dup1\n  dataOffset(sub_0)\n  0x00\n  codecopy\n  0x00\n  return\nstop\n\nsub_0: assembly {\n        /* \"contracts/DeFi/MerkleAirdrop.sol\":434:2124  contract PrivateAirdrop is Ownable {... */\n      mstore(0x40, 0x80)\n      callvalue\n      dup1\n      iszero\n      tag_1\n      jumpi\n      0x00\n      dup1\n      revert\n    tag_1:\n      pop\n      jumpi(tag_2, lt(calldatasize, 0x04))\n      shr(0xe0, calldataload(0x00))\n      dup1\n      0x715018a6\n      gt\n      tag_12\n      jumpi\n      dup1\n      0x715018a6\n      eq\n      tag_7\n      jumpi\n      dup1\n      0x7f0d7159\n      eq\n      tag_8\n      jumpi\n      dup1\n      0x8da5cb5b\n      eq\n      tag_9\n      jumpi\n      dup1\n      0xebf0c717\n      eq\n      tag_10\n      jumpi\n      dup1\n      0xf2fde38b\n      eq\n      tag_11\n      jumpi\n      jump(tag_2)\n    tag_12:\n      dup1\n      0x213e0b17\n      eq\n      tag_3\n      jumpi\n      dup1\n      0x21ff9970\n      eq\n      tag_4\n      jumpi\n      dup1\n      0x38c86911\n      eq\n      tag_5\n      jumpi\n      dup1\n      0x4d06068a\n      eq\n      tag_6\n      jumpi\n    tag_2:\n      0x00\n      dup1\n      revert\n        /* \"contracts/DeFi/MerkleAirdrop.sol\":1174:1816  function collectAirdrop(bytes calldata proof, bytes32 nullifierHash) public {... */\n    tag_3:\n      tag_13\n      0x04\n      dup1\n      calldatasize\n      sub\n      dup2\n      add\n      swap1\n      tag_14\n      swap2\n      swap1\n      tag_15\n      jump\t// in\n    tag_14:\n      tag_16\n      jump\t// in\n    tag_13:\n      stop\n        /* \"contracts/DeFi/MerkleAirdrop.sol\":2037:2122  function updateRoot(bytes32 newRoot) public onlyOwner {... */\n    tag_4:\n      tag_17\n      0x04\n      dup1\n      calldatasize\n      sub\n      dup2\n      add\n      swap1\n      tag_18\n      swap2\n      swap1\n      tag_19\n      jump\t// in\n    tag_18:\n      tag_20\n      jump\t// in\n    tag_17:\n      stop\n        /* \"contracts/DeFi/MerkleAirdrop.sol\":600:646  mapping(bytes32 => bool) public nullifierSpent */\n    tag_5:\n      tag_21\n      0x04\n      dup1\n      calldatasize\n      sub\n      dup2\n      add\n      swap1\n      tag_22\n      swap2\n      swap1\n      tag_19\n      jump\t// in\n    tag_22:\n      tag_23\n      jump\t// in\n    tag_21:\n      mload(0x40)\n      tag_24\n      swap2\n      swap1\n      tag_25\n      jump\t// in\n    tag_24:\n      mload(0x40)\n      dup1\n      swap2\n      sub\n      swap1\n      return\n        /* \"contracts/DeFi/MerkleAirdrop.sol\":475:501  IERC20 public airdropToken */\n    tag_6:\n      tag_26\n      tag_27\n      jump\t// in\n    tag_26:\n      mload(0x40)\n      tag_28\n      swap2\n      swap1\n      tag_29\n      jump\t// in\n    tag_28:\n      mload(0x40)\n      dup1\n      swap2\n      sub\n      swap1\n      return\n        /* \"@openzeppelin/contracts/access/Ownable.sol\":1668:1769  function renounceOwnership() public virtual onlyOwner {... */\n    tag_7:\n      tag_30\n      tag_31\n      jump\t// in\n    tag_30:\n      stop\n        /* \"contracts/DeFi/MerkleAirdrop.sol\":507:538  uint public amountPerRedemption */\n    tag_8:\n      tag_32\n      tag_33\n      jump\t// in\n    tag_32:\n      mload(0x40)\n      tag_34\n      swap2\n      swap1\n      tag_35\n      jump\t// in\n    tag_34:\n      mload(0x40)\n      dup1\n      swap2\n      sub\n      swap1\n      return\n        /* \"@openzeppelin/contracts/access/Ownable.sol\":1036:1121  function owner() public view virtual returns (address) {... */\n    tag_9:\n      tag_36\n      tag_37\n      jump\t// in\n    tag_36:\n      mload(0x40)\n      tag_38\n      swap2\n      swap1\n      tag_39\n      jump\t// in\n    tag_38:\n      mload(0x40)\n      dup1\n      swap2\n      sub\n      swap1\n      return\n        /* \"contracts/DeFi/MerkleAirdrop.sol\":574:593  bytes32 public root */\n    tag_10:\n      tag_40\n      tag_41\n      jump\t// in\n    tag_40:\n      mload(0x40)\n      tag_42\n      swap2\n      swap1\n      tag_43\n      jump\t// in\n    tag_42:\n      mload(0x40)\n      dup1\n      swap2\n      sub\n      swap1\n      return\n        /* \"@openzeppelin/contracts/access/Ownable.sol\":1918:2116  function transferOwnership(address newOwner) public virtual onlyOwner {... */\n    tag_11:\n      tag_44\n      0x04\n      dup1\n      calldatasize\n      sub\n      dup2\n      add\n      swap1\n      tag_45\n      swap2\n      swap1\n      tag_46\n      jump\t// in\n    tag_45:\n      tag_47\n      jump\t// in\n    tag_44:\n      stop\n        /* \"contracts/DeFi/MerkleAirdrop.sol\":1174:1816  function collectAirdrop(bytes calldata proof, bytes32 nullifierHash) public {... */\n    tag_16:\n        /* \"contracts/DeFi/MerkleAirdrop.sol\":684:761  21888242871839275222246405745257275088548364400416034343698204186575808495617 */\n      0x30644e72e131a029b85045b68181585d2833e84879b9709143e1f593f0000001\n        /* \"contracts/DeFi/MerkleAirdrop.sol\":1276:1289  nullifierHash */\n      dup2\n        /* \"contracts/DeFi/MerkleAirdrop.sol\":1268:1290  uint256(nullifierHash) */\n      0x00\n      shr\n        /* \"contracts/DeFi/MerkleAirdrop.sol\":1268:1304  uint256(nullifierHash) < SNARK_FIELD */\n      lt\n        /* \"contracts/DeFi/MerkleAirdrop.sol\":1260:1342  require(uint256(nullifierHash) < SNARK_FIELD ,\"Nullifier is not within the field\") */\n      tag_49\n      jumpi\n      mload(0x40)\n      0x08c379a000000000000000000000000000000000000000000000000000000000\n      dup2\n      mstore\n      0x04\n      add\n      tag_50\n      swap1\n      tag_51\n      jump\t// in\n    tag_50:\n      mload(0x40)\n      dup1\n      swap2\n      sub\n      swap1\n      revert\n    tag_49:\n        /* \"contracts/DeFi/MerkleAirdrop.sol\":1361:1375  nullifierSpent */\n      0x05\n        /* \"contracts/DeFi/MerkleAirdrop.sol\":1361:1390  nullifierSpent[nullifierHash] */\n      0x00\n        /* \"contracts/DeFi/MerkleAirdrop.sol\":1376:1389  nullifierHash */\n      dup3\n        /* \"contracts/DeFi/MerkleAirdrop.sol\":1361:1390  nullifierSpent[nullifierHash] */\n      dup2\n      mstore\n      0x20\n      add\n      swap1\n      dup2\n      mstore\n      0x20\n      add\n      0x00\n      keccak256\n      0x00\n      swap1\n      sload\n      swap1\n      0x0100\n      exp\n      swap1\n      div\n      0xff\n      and\n        /* \"contracts/DeFi/MerkleAirdrop.sol\":1360:1390  !nullifierSpent[nullifierHash] */\n      iszero\n        /* \"contracts/DeFi/MerkleAirdrop.sol\":1352:1419  require(!nullifierSpent[nullifierHash], \"Airdrop already redeemed\") */\n      tag_52\n      jumpi\n      mload(0x40)\n      0x08c379a000000000000000000000000000000000000000000000000000000000\n      dup2\n      mstore\n      0x04\n      add\n      tag_53\n      swap1\n      tag_54\n      jump\t// in\n    tag_53:\n      mload(0x40)\n      dup1\n      swap2\n      sub\n      swap1\n      revert\n    tag_52:\n        /* \"contracts/DeFi/MerkleAirdrop.sol\":1430:1454  uint[] memory pubSignals */\n      0x00\n        /* \"contracts/DeFi/MerkleAirdrop.sol\":1468:1469  3 */\n      0x03\n        /* \"contracts/DeFi/MerkleAirdrop.sol\":1457:1470  new uint[](3) */\n      0xffffffffffffffff\n      dup2\n      gt\n      iszero\n      tag_55\n      jumpi\n      tag_56\n      tag_57\n      jump\t// in\n    tag_56:\n    tag_55:\n      mload(0x40)\n      swap1\n      dup1\n      dup3\n      mstore\n      dup1\n      0x20\n      mul\n      0x20\n      add\n      dup3\n      add\n      0x40\n      mstore\n      dup1\n      iszero\n      tag_58\n      jumpi\n      dup2\n      0x20\n      add\n      0x20\n      dup3\n      mul\n      dup1\n      calldatasize\n      dup4\n      calldatacopy\n      dup1\n      dup3\n      add\n      swap2\n      pop\n      pop\n      swap1\n      pop\n    tag_58:\n      pop\n        /* \"contracts/DeFi/MerkleAirdrop.sol\":1430:1470  uint[] memory pubSignals = new uint[](3) */\n      swap1\n      pop\n        /* \"contracts/DeFi/MerkleAirdrop.sol\":1504:1508  root */\n      sload(0x04)\n        /* \"contracts/DeFi/MerkleAirdrop.sol\":1496:1509  uint256(root) */\n      0x00\n      shr\n        /* \"contracts/DeFi/MerkleAirdrop.sol\":1480:1490  pubSignals */\n      dup2\n        /* \"contracts/DeFi/MerkleAirdrop.sol\":1491:1492  0 */\n      0x00\n        /* \"contracts/DeFi/MerkleAirdrop.sol\":1480:1493  pubSignals[0] */\n      dup2\n      mload\n      dup2\n      lt\n      tag_59\n      jumpi\n      tag_60\n      tag_61\n      jump\t// in\n    tag_60:\n    tag_59:\n      0x20\n      mul\n      0x20\n      add\n      add\n        /* \"contracts/DeFi/MerkleAirdrop.sol\":1480:1509  pubSignals[0] = uint256(root) */\n      dup2\n      dup2\n      mstore\n      pop\n      pop\n        /* \"contracts/DeFi/MerkleAirdrop.sol\":1543:1556  nullifierHash */\n      dup2\n        /* \"contracts/DeFi/MerkleAirdrop.sol\":1535:1557  uint256(nullifierHash) */\n      0x00\n      shr\n        /* \"contracts/DeFi/MerkleAirdrop.sol\":1519:1529  pubSignals */\n      dup2\n        /* \"contracts/DeFi/MerkleAirdrop.sol\":1530:1531  1 */\n      0x01\n        /* \"contracts/DeFi/MerkleAirdrop.sol\":1519:1532  pubSignals[1] */\n      dup2\n      mload\n      dup2\n      lt\n      tag_62\n      jumpi\n      tag_63\n      tag_61\n      jump\t// in\n    tag_63:\n    tag_62:\n      0x20\n      mul\n      0x20\n      add\n      add\n        /* \"contracts/DeFi/MerkleAirdrop.sol\":1519:1557  pubSignals[1] = uint256(nullifierHash) */\n      dup2\n      dup2\n      mstore\n      pop\n      pop\n        /* \"contracts/DeFi/MerkleAirdrop.sol\":1599:1609  msg.sender */\n      caller\n        /* \"contracts/DeFi/MerkleAirdrop.sol\":1583:1611  uint256(uint160(msg.sender)) */\n      0xffffffffffffffffffffffffffffffffffffffff\n      and\n        /* \"contracts/DeFi/MerkleAirdrop.sol\":1567:1577  pubSignals */\n      dup2\n        /* \"contracts/DeFi/MerkleAirdrop.sol\":1578:1579  2 */\n      0x02\n        /* \"contracts/DeFi/MerkleAirdrop.sol\":1567:1580  pubSignals[2] */\n      dup2\n      mload\n      dup2\n      lt\n      tag_64\n      jumpi\n      tag_65\n      tag_61\n      jump\t// in\n    tag_65:\n    tag_64:\n      0x20\n      mul\n      0x20\n      add\n      add\n        /* \"contracts/DeFi/MerkleAirdrop.sol\":1567:1611  pubSignals[2] = uint256(uint160(msg.sender)) */\n      dup2\n      dup2\n      mstore\n      pop\n      pop\n        /* \"contracts/DeFi/MerkleAirdrop.sol\":1629:1637  verifier */\n      0x03\n      0x00\n      swap1\n      sload\n      swap1\n      0x0100\n      exp\n      swap1\n      div\n      0xffffffffffffffffffffffffffffffffffffffff\n      and\n        /* \"contracts/DeFi/MerkleAirdrop.sol\":1629:1649  verifier.verifyProof */\n      0xffffffffffffffffffffffffffffffffffffffff\n      and\n      0x1e8e1e13\n        /* \"contracts/DeFi/MerkleAirdrop.sol\":1650:1655  proof */\n      dup6\n      dup6\n        /* \"contracts/DeFi/MerkleAirdrop.sol\":1657:1667  pubSignals */\n      dup5\n        /* \"contracts/DeFi/MerkleAirdrop.sol\":1629:1668  verifier.verifyProof(proof, pubSignals) */\n      mload(0x40)\n      dup5\n      0xffffffff\n      and\n      0xe0\n      shl\n      dup2\n      mstore\n      0x04\n      add\n      tag_66\n      swap4\n      swap3\n      swap2\n      swap1\n      tag_67\n      jump\t// in\n    tag_66:\n      0x20\n      mload(0x40)\n      dup1\n      dup4\n      sub\n      dup2\n      dup7\n      dup1\n      extcodesize\n      iszero\n      dup1\n      iszero\n      tag_68\n      jumpi\n      0x00\n      dup1\n      revert\n    tag_68:\n      pop\n      gas\n      staticcall\n      iszero\n      dup1\n      iszero\n      tag_70\n      jumpi\n      returndatasize\n      0x00\n      dup1\n      returndatacopy\n      revert(0x00, returndatasize)\n    tag_70:\n      pop\n      pop\n      pop\n      pop\n      mload(0x40)\n      returndatasize\n      not(0x1f)\n      0x1f\n      dup3\n      add\n      and\n      dup3\n      add\n      dup1\n      0x40\n      mstore\n      pop\n      dup2\n      add\n      swap1\n      tag_71\n      swap2\n      swap1\n      tag_72\n      jump\t// in\n    tag_71:\n        /* \"contracts/DeFi/MerkleAirdrop.sol\":1621:1698  require(verifier.verifyProof(proof, pubSignals), \"Proof verification failed\") */\n      tag_73\n      jumpi\n      mload(0x40)\n      0x08c379a000000000000000000000000000000000000000000000000000000000\n      dup2\n      mstore\n      0x04\n      add\n      tag_74\n      swap1\n      tag_75\n      jump\t// in\n    tag_74:\n      mload(0x40)\n      dup1\n      swap2\n      sub\n      swap1\n      revert\n    tag_73:\n        /* \"contracts/DeFi/MerkleAirdrop.sol\":1741:1745  true */\n      0x01\n        /* \"contracts/DeFi/MerkleAirdrop.sol\":1709:1723  nullifierSpent */\n      0x05\n        /* \"contracts/DeFi/MerkleAirdrop.sol\":1709:1738  nullifierSpent[nullifierHash] */\n      0x00\n        /* \"contracts/DeFi/MerkleAirdrop.sol\":1724:1737  nullifierHash */\n      dup5\n        /* \"contracts/DeFi/MerkleAirdrop.sol\":1709:1738  nullifierSpent[nullifierHash] */\n      dup2\n      mstore\n      0x20\n      add\n      swap1\n      dup2\n      mstore\n      0x20\n      add\n      0x00\n      keccak256\n      0x00\n        /* \"contracts/DeFi/MerkleAirdrop.sol\":1709:1745  nullifierSpent[nullifierHash] = true */\n      0x0100\n      exp\n      dup2\n      sload\n      dup2\n      0xff\n      mul\n      not\n      and\n      swap1\n      dup4\n      iszero\n      iszero\n      mul\n      or\n      swap1\n      sstore\n      pop\n        /* \"contracts/DeFi/MerkleAirdrop.sol\":1755:1767  airdropToken */\n      0x01\n      0x00\n      swap1\n      sload\n      swap1\n      0x0100\n      exp\n      swap1\n      div\n      0xffffffffffffffffffffffffffffffffffffffff\n      and\n        /* \"contracts/DeFi/MerkleAirdrop.sol\":1755:1776  airdropToken.transfer */\n      0xffffffffffffffffffffffffffffffffffffffff\n      and\n      0xa9059cbb\n        /* \"contracts/DeFi/MerkleAirdrop.sol\":1777:1787  msg.sender */\n      caller\n        /* \"contracts/DeFi/MerkleAirdrop.sol\":1789:1808  amountPerRedemption */\n      sload(0x02)\n        /* \"contracts/DeFi/MerkleAirdrop.sol\":1755:1809  airdropToken.transfer(msg.sender, amountPerRedemption) */\n      mload(0x40)\n      dup4\n      0xffffffff\n      and\n      0xe0\n      shl\n      dup2\n      mstore\n      0x04\n      add\n      tag_76\n      swap3\n      swap2\n      swap1\n      tag_77\n      jump\t// in\n    tag_76:\n      0x20\n      mload(0x40)\n      dup1\n      dup4\n      sub\n      dup2\n      0x00\n      dup8\n      dup1\n      extcodesize\n      iszero\n      dup1\n      iszero\n      tag_78\n      jumpi\n      0x00\n      dup1\n      revert\n    tag_78:\n      pop\n      gas\n      call\n      iszero\n      dup1\n      iszero\n      tag_80\n      jumpi\n      returndatasize\n      0x00\n      dup1\n      returndatacopy\n      revert(0x00, returndatasize)\n    tag_80:\n      pop\n      pop\n      pop\n      pop\n      mload(0x40)\n      returndatasize\n      not(0x1f)\n      0x1f\n      dup3\n      add\n      and\n      dup3\n      add\n      dup1\n      0x40\n      mstore\n      pop\n      dup2\n      add\n      swap1\n      tag_81\n      swap2\n      swap1\n      tag_72\n      jump\t// in\n    tag_81:\n      pop\n        /* \"contracts/DeFi/MerkleAirdrop.sol\":1250:1816  {... */\n      pop\n        /* \"contracts/DeFi/MerkleAirdrop.sol\":1174:1816  function collectAirdrop(bytes calldata proof, bytes32 nullifierHash) public {... */\n      pop\n      pop\n      pop\n      jump\t// out\n        /* \"contracts/DeFi/MerkleAirdrop.sol\":2037:2122  function updateRoot(bytes32 newRoot) public onlyOwner {... */\n    tag_20:\n        /* \"@openzeppelin/contracts/access/Ownable.sol\":1259:1271  _msgSender() */\n      tag_83\n        /* \"@openzeppelin/contracts/access/Ownable.sol\":1259:1269  _msgSender */\n      tag_84\n        /* \"@openzeppelin/contracts/access/Ownable.sol\":1259:1271  _msgSender() */\n      jump\t// in\n    tag_83:\n        /* \"@openzeppelin/contracts/access/Ownable.sol\":1248:1271  owner() == _msgSender() */\n      0xffffffffffffffffffffffffffffffffffffffff\n      and\n        /* \"@openzeppelin/contracts/access/Ownable.sol\":1248:1255  owner() */\n      tag_85\n        /* \"@openzeppelin/contracts/access/Ownable.sol\":1248:1253  owner */\n      tag_37\n        /* \"@openzeppelin/contracts/access/Ownable.sol\":1248:1255  owner() */\n      jump\t// in\n    tag_85:\n        /* \"@openzeppelin/contracts/access/Ownable.sol\":1248:1271  owner() == _msgSender() */\n      0xffffffffffffffffffffffffffffffffffffffff\n      and\n      eq\n        /* \"@openzeppelin/contracts/access/Ownable.sol\":1240:1308  require(owner() == _msgSender(), \"Ownable: caller is not the owner\") */\n      tag_86\n      jumpi\n      mload(0x40)\n      0x08c379a000000000000000000000000000000000000000000000000000000000\n      dup2\n      mstore\n      0x04\n      add\n      tag_87\n      swap1\n      tag_88\n      jump\t// in\n    tag_87:\n      mload(0x40)\n      dup1\n      swap2\n      sub\n      swap1\n      revert\n    tag_86:\n        /* \"contracts/DeFi/MerkleAirdrop.sol\":2108:2115  newRoot */\n      dup1\n        /* \"contracts/DeFi/MerkleAirdrop.sol\":2101:2105  root */\n      0x04\n        /* \"contracts/DeFi/MerkleAirdrop.sol\":2101:2115  root = newRoot */\n      dup2\n      swap1\n      sstore\n      pop\n        /* \"contracts/DeFi/MerkleAirdrop.sol\":2037:2122  function updateRoot(bytes32 newRoot) public onlyOwner {... */\n      pop\n      jump\t// out\n        /* \"contracts/DeFi/MerkleAirdrop.sol\":600:646  mapping(bytes32 => bool) public nullifierSpent */\n    tag_23:\n      mstore(0x20, 0x05)\n      dup1\n      0x00\n      mstore\n      keccak256(0x00, 0x40)\n      0x00\n      swap2\n      pop\n      sload\n      swap1\n      0x0100\n      exp\n      swap1\n      div\n      0xff\n      and\n      dup2\n      jump\t// out\n        /* \"contracts/DeFi/MerkleAirdrop.sol\":475:501  IERC20 public airdropToken */\n    tag_27:\n      0x01\n      0x00\n      swap1\n      sload\n      swap1\n      0x0100\n      exp\n      swap1\n      div\n      0xffffffffffffffffffffffffffffffffffffffff\n      and\n      dup2\n      jump\t// out\n        /* \"@openzeppelin/contracts/access/Ownable.sol\":1668:1769  function renounceOwnership() public virtual onlyOwner {... */\n    tag_31:\n        /* \"@openzeppelin/contracts/access/Ownable.sol\":1259:1271  _msgSender() */\n      tag_91\n        /* \"@openzeppelin/contracts/access/Ownable.sol\":1259:1269  _msgSender */\n      tag_84\n        /* \"@openzeppelin/contracts/access/Ownable.sol\":1259:1271  _msgSender() */\n      jump\t// in\n    tag_91:\n        /* \"@openzeppelin/contracts/access/Ownable.sol\":1248:1271  owner() == _msgSender() */\n      0xffffffffffffffffffffffffffffffffffffffff\n      and\n        /* \"@openzeppelin/contracts/access/Ownable.sol\":1248:1255  owner() */\n      tag_92\n        /* \"@openzeppelin/contracts/access/Ownable.sol\":1248:1253  owner */\n      tag_37\n        /* \"@openzeppelin/contracts/access/Ownable.sol\":1248:1255  owner() */\n      jump\t// in\n    tag_92:\n        /* \"@openzeppelin/contracts/access/Ownable.sol\":1248:1271  owner() == _msgSender() */\n      0xffffffffffffffffffffffffffffffffffffffff\n      and\n      eq\n        /* \"@openzeppelin/contracts/access/Ownable.sol\":1240:1308  require(owner() == _msgSender(), \"Ownable: caller is not the owner\") */\n      tag_93\n      jumpi\n      mload(0x40)\n      0x08c379a000000000000000000000000000000000000000000000000000000000\n      dup2\n      mstore\n      0x04\n      add\n      tag_94\n      swap1\n      tag_88\n      jump\t// in\n    tag_94:\n      mload(0x40)\n      dup1\n      swap2\n      sub\n      swap1\n      revert\n    tag_93:\n        /* \"@openzeppelin/contracts/access/Ownable.sol\":1732:1762  _transferOwnership(address(0)) */\n      tag_96\n        /* \"@openzeppelin/contracts/access/Ownable.sol\":1759:1760  0 */\n      0x00\n        /* \"@openzeppelin/contracts/access/Ownable.sol\":1732:1750  _transferOwnership */\n      tag_97\n        /* \"@openzeppelin/contracts/access/Ownable.sol\":1732:1762  _transferOwnership(address(0)) */\n      jump\t// in\n    tag_96:\n        /* \"@openzeppelin/contracts/access/Ownable.sol\":1668:1769  function renounceOwnership() public virtual onlyOwner {... */\n      jump\t// out\n        /* \"contracts/DeFi/MerkleAirdrop.sol\":507:538  uint public amountPerRedemption */\n    tag_33:\n      sload(0x02)\n      dup2\n      jump\t// out\n        /* \"@openzeppelin/contracts/access/Ownable.sol\":1036:1121  function owner() public view virtual returns (address) {... */\n    tag_37:\n        /* \"@openzeppelin/contracts/access/Ownable.sol\":1082:1089  address */\n      0x00\n        /* \"@openzeppelin/contracts/access/Ownable.sol\":1108:1114  _owner */\n      dup1\n      0x00\n      swap1\n      sload\n      swap1\n      0x0100\n      exp\n      swap1\n      div\n      0xffffffffffffffffffffffffffffffffffffffff\n      and\n        /* \"@openzeppelin/contracts/access/Ownable.sol\":1101:1114  return _owner */\n      swap1\n      pop\n        /* \"@openzeppelin/contracts/access/Ownable.sol\":1036:1121  function owner() public view virtual returns (address) {... */\n      swap1\n      jump\t// out\n        /* \"contracts/DeFi/MerkleAirdrop.sol\":574:593  bytes32 public root */\n    tag_41:\n      sload(0x04)\n      dup2\n      jump\t// out\n        /* \"@openzeppelin/contracts/access/Ownable.sol\":1918:2116  function transferOwnership(address newOwner) public virtual onlyOwner {... */\n    tag_47:\n        /* \"@openzeppelin/contracts/access/Ownable.sol\":1259:1271  _msgSender() */\n      tag_100\n        /* \"@openzeppelin/contracts/access/Ownable.sol\":1259:1269  _msgSender */\n      tag_84\n        /* \"@openzeppelin/contracts/access/Ownable.sol\":1259:1271  _msgSender() */\n      jump\t// in\n    tag_100:\n        /* \"@openzeppelin/contracts/access/Ownable.sol\":1248:1271  owner() == _msgSender() */\n      0xffffffffffffffffffffffffffffffffffffffff\n      and\n        /* \"@openzeppelin/contracts/access/Ownable.sol\":1248:1255  owner() */\n      tag_101\n        /* \"@openzeppelin/contracts/access/Ownable.sol\":1248:1253  owner */\n      tag_37\n        /* \"@openzeppelin/contracts/access/Ownable.sol\":1248:1255  owner() */\n      jump\t// in\n    tag_101:\n        /* \"@openzeppelin/contracts/access/Ownable.sol\":1248:1271  owner() == _msgSender() */\n      0xffffffffffffffffffffffffffffffffffffffff\n      and\n      eq\n        /* \"@openzeppelin/contracts/access/Ownable.sol\":1240:1308  require(owner() == _msgSender(), \"Ownable: caller is not the owner\") */\n      tag_102\n      jumpi\n      mload(0x40)\n      0x08c379a000000000000000000000000000000000000000000000000000000000\n      dup2\n      mstore\n      0x04\n      add\n      tag_103\n      swap1\n      tag_88\n      jump\t// in\n    tag_103:\n      mload(0x40)\n      dup1\n      swap2\n      sub\n      swap1\n      revert\n    tag_102:\n        /* \"@openzeppelin/contracts/access/Ownable.sol\":2026:2027  0 */\n      0x00\n        /* \"@openzeppelin/contracts/access/Ownable.sol\":2006:2028  newOwner != address(0) */\n      0xffffffffffffffffffffffffffffffffffffffff\n      and\n        /* \"@openzeppelin/contracts/access/Ownable.sol\":2006:2014  newOwner */\n      dup2\n        /* \"@openzeppelin/contracts/access/Ownable.sol\":2006:2028  newOwner != address(0) */\n      0xffffffffffffffffffffffffffffffffffffffff\n      and\n      eq\n      iszero\n        /* \"@openzeppelin/contracts/access/Ownable.sol\":1998:2071  require(newOwner != address(0), \"Ownable: new owner is the zero address\") */\n      tag_105\n      jumpi\n      mload(0x40)\n      0x08c379a000000000000000000000000000000000000000000000000000000000\n      dup2\n      mstore\n      0x04\n      add\n      tag_106\n      swap1\n      tag_107\n      jump\t// in\n    tag_106:\n      mload(0x40)\n      dup1\n      swap2\n      sub\n      swap1\n      revert\n    tag_105:\n        /* \"@openzeppelin/contracts/access/Ownable.sol\":2081:2109  _transferOwnership(newOwner) */\n      tag_108\n        /* \"@openzeppelin/contracts/access/Ownable.sol\":2100:2108  newOwner */\n      dup2\n        /* \"@openzeppelin/contracts/access/Ownable.sol\":2081:2099  _transferOwnership */\n      tag_97\n        /* \"@openzeppelin/contracts/access/Ownable.sol\":2081:2109  _transferOwnership(newOwner) */\n      jump\t// in\n    tag_108:\n        /* \"@openzeppelin/contracts/access/Ownable.sol\":1918:2116  function transferOwnership(address newOwner) public virtual onlyOwner {... */\n      pop\n      jump\t// out\n        /* \"@openzeppelin/contracts/utils/Context.sol\":640:736  function _msgSender() internal view virtual returns (address) {... */\n    tag_84:\n        /* \"@openzeppelin/contracts/utils/Context.sol\":693:700  address */\n      0x00\n        /* \"@openzeppelin/contracts/utils/Context.sol\":719:729  msg.sender */\n      caller\n        /* \"@openzeppelin/contracts/utils/Context.sol\":712:729  return msg.sender */\n      swap1\n      pop\n        /* \"@openzeppelin/contracts/utils/Context.sol\":640:736  function _msgSender() internal view virtual returns (address) {... */\n      swap1\n      jump\t// out\n        /* \"@openzeppelin/contracts/access/Ownable.sol\":2270:2457  function _transferOwnership(address newOwner) internal virtual {... */\n    tag_97:\n        /* \"@openzeppelin/contracts/access/Ownable.sol\":2343:2359  address oldOwner */\n      0x00\n        /* \"@openzeppelin/contracts/access/Ownable.sol\":2362:2368  _owner */\n      dup1\n      0x00\n      swap1\n      sload\n      swap1\n      0x0100\n      exp\n      swap1\n      div\n      0xffffffffffffffffffffffffffffffffffffffff\n      and\n        /* \"@openzeppelin/contracts/access/Ownable.sol\":2343:2368  address oldOwner = _owner */\n      swap1\n      pop\n        /* \"@openzeppelin/contracts/access/Ownable.sol\":2387:2395  newOwner */\n      dup2\n        /* \"@openzeppelin/contracts/access/Ownable.sol\":2378:2384  _owner */\n      0x00\n      dup1\n        /* \"@openzeppelin/contracts/access/Ownable.sol\":2378:2395  _owner = newOwner */\n      0x0100\n      exp\n      dup2\n      sload\n      dup2\n      0xffffffffffffffffffffffffffffffffffffffff\n      mul\n      not\n      and\n      swap1\n      dup4\n      0xffffffffffffffffffffffffffffffffffffffff\n      and\n      mul\n      or\n      swap1\n      sstore\n      pop\n        /* \"@openzeppelin/contracts/access/Ownable.sol\":2441:2449  newOwner */\n      dup2\n        /* \"@openzeppelin/contracts/access/Ownable.sol\":2410:2450  OwnershipTransferred(oldOwner, newOwner) */\n      0xffffffffffffffffffffffffffffffffffffffff\n      and\n        /* \"@openzeppelin/contracts/access/Ownable.sol\":2431:2439  oldOwner */\n      dup2\n        /* \"@openzeppelin/contracts/access/Ownable.sol\":2410:2450  OwnershipTransferred(oldOwner, newOwner) */\n      0xffffffffffffffffffffffffffffffffffffffff\n      and\n      0x8be0079c531659141344cd1fd0a4f28419497f9722a3daafe3b4186f6b6457e0\n      mload(0x40)\n      mload(0x40)\n      dup1\n      swap2\n      sub\n      swap1\n      log3\n        /* \"@openzeppelin/contracts/access/Ownable.sol\":2333:2457  {... */\n      pop\n        /* \"@openzeppelin/contracts/access/Ownable.sol\":2270:2457  function _transferOwnership(address newOwner) internal virtual {... */\n      pop\n      jump\t// out\n        /* \"#utility.yul\":7:146   */\n    tag_112:\n        /* \"#utility.yul\":53:58   */\n      0x00\n        /* \"#utility.yul\":91:97   */\n      dup2\n        /* \"#utility.yul\":78:98   */\n      calldataload\n        /* \"#utility.yul\":69:98   */\n      swap1\n      pop\n        /* \"#utility.yul\":107:140   */\n      tag_114\n        /* \"#utility.yul\":134:139   */\n      dup2\n        /* \"#utility.yul\":107:140   */\n      tag_115\n      jump\t// in\n    tag_114:\n        /* \"#utility.yul\":7:146   */\n      swap3\n      swap2\n      pop\n      pop\n      jump\t// out\n        /* \"#utility.yul\":152:289   */\n    tag_116:\n        /* \"#utility.yul\":206:211   */\n      0x00\n        /* \"#utility.yul\":237:243   */\n      dup2\n        /* \"#utility.yul\":231:244   */\n      mload\n        /* \"#utility.yul\":222:244   */\n      swap1\n      pop\n        /* \"#utility.yul\":253:283   */\n      tag_118\n        /* \"#utility.yul\":277:282   */\n      dup2\n        /* \"#utility.yul\":253:283   */\n      tag_119\n      jump\t// in\n    tag_118:\n        /* \"#utility.yul\":152:289   */\n      swap3\n      swap2\n      pop\n      pop\n      jump\t// out\n        /* \"#utility.yul\":295:434   */\n    tag_120:\n        /* \"#utility.yul\":341:346   */\n      0x00\n        /* \"#utility.yul\":379:385   */\n      dup2\n        /* \"#utility.yul\":366:386   */\n      calldataload\n        /* \"#utility.yul\":357:386   */\n      swap1\n      pop\n        /* \"#utility.yul\":395:428   */\n      tag_122\n        /* \"#utility.yul\":422:427   */\n      dup2\n        /* \"#utility.yul\":395:428   */\n      tag_123\n      jump\t// in\n    tag_122:\n        /* \"#utility.yul\":295:434   */\n      swap3\n      swap2\n      pop\n      pop\n      jump\t// out\n        /* \"#utility.yul\":453:1005   */\n    tag_124:\n        /* \"#utility.yul\":510:518   */\n      0x00\n        /* \"#utility.yul\":520:526   */\n      dup1\n        /* \"#utility.yul\":570:573   */\n      dup4\n        /* \"#utility.yul\":563:567   */\n      0x1f\n        /* \"#utility.yul\":555:561   */\n      dup5\n        /* \"#utility.yul\":551:568   */\n      add\n        /* \"#utility.yul\":547:574   */\n      slt\n        /* \"#utility.yul\":537:659   */\n      tag_126\n      jumpi\n        /* \"#utility.yul\":578:657   */\n      tag_127\n      tag_128\n      jump\t// in\n    tag_127:\n        /* \"#utility.yul\":537:659   */\n    tag_126:\n        /* \"#utility.yul\":691:697   */\n      dup3\n        /* \"#utility.yul\":678:698   */\n      calldataload\n        /* \"#utility.yul\":668:698   */\n      swap1\n      pop\n        /* \"#utility.yul\":721:739   */\n      0xffffffffffffffff\n        /* \"#utility.yul\":713:719   */\n      dup2\n        /* \"#utility.yul\":710:740   */\n      gt\n        /* \"#utility.yul\":707:824   */\n      iszero\n      tag_129\n      jumpi\n        /* \"#utility.yul\":743:822   */\n      tag_130\n      tag_131\n      jump\t// in\n    tag_130:\n        /* \"#utility.yul\":707:824   */\n    tag_129:\n        /* \"#utility.yul\":857:861   */\n      0x20\n        /* \"#utility.yul\":849:855   */\n      dup4\n        /* \"#utility.yul\":845:862   */\n      add\n        /* \"#utility.yul\":833:862   */\n      swap2\n      pop\n        /* \"#utility.yul\":911:914   */\n      dup4\n        /* \"#utility.yul\":903:907   */\n      0x01\n        /* \"#utility.yul\":895:901   */\n      dup3\n        /* \"#utility.yul\":891:908   */\n      mul\n        /* \"#utility.yul\":881:889   */\n      dup4\n        /* \"#utility.yul\":877:909   */\n      add\n        /* \"#utility.yul\":874:915   */\n      gt\n        /* \"#utility.yul\":871:999   */\n      iszero\n      tag_132\n      jumpi\n        /* \"#utility.yul\":918:997   */\n      tag_133\n      tag_134\n      jump\t// in\n    tag_133:\n        /* \"#utility.yul\":871:999   */\n    tag_132:\n        /* \"#utility.yul\":453:1005   */\n      swap3\n      pop\n      swap3\n      swap1\n      pop\n      jump\t// out\n        /* \"#utility.yul\":1011:1340   */\n    tag_46:\n        /* \"#utility.yul\":1070:1076   */\n      0x00\n        /* \"#utility.yul\":1119:1121   */\n      0x20\n        /* \"#utility.yul\":1107:1116   */\n      dup3\n        /* \"#utility.yul\":1098:1105   */\n      dup5\n        /* \"#utility.yul\":1094:1117   */\n      sub\n        /* \"#utility.yul\":1090:1122   */\n      slt\n        /* \"#utility.yul\":1087:1206   */\n      iszero\n      tag_136\n      jumpi\n        /* \"#utility.yul\":1125:1204   */\n      tag_137\n      tag_138\n      jump\t// in\n    tag_137:\n        /* \"#utility.yul\":1087:1206   */\n    tag_136:\n        /* \"#utility.yul\":1245:1246   */\n      0x00\n        /* \"#utility.yul\":1270:1323   */\n      tag_139\n        /* \"#utility.yul\":1315:1322   */\n      dup5\n        /* \"#utility.yul\":1306:1312   */\n      dup3\n        /* \"#utility.yul\":1295:1304   */\n      dup6\n        /* \"#utility.yul\":1291:1313   */\n      add\n        /* \"#utility.yul\":1270:1323   */\n      tag_112\n      jump\t// in\n    tag_139:\n        /* \"#utility.yul\":1260:1323   */\n      swap2\n      pop\n        /* \"#utility.yul\":1216:1333   */\n      pop\n        /* \"#utility.yul\":1011:1340   */\n      swap3\n      swap2\n      pop\n      pop\n      jump\t// out\n        /* \"#utility.yul\":1346:1691   */\n    tag_72:\n        /* \"#utility.yul\":1413:1419   */\n      0x00\n        /* \"#utility.yul\":1462:1464   */\n      0x20\n        /* \"#utility.yul\":1450:1459   */\n      dup3\n        /* \"#utility.yul\":1441:1448   */\n      dup5\n        /* \"#utility.yul\":1437:1460   */\n      sub\n        /* \"#utility.yul\":1433:1465   */\n      slt\n        /* \"#utility.yul\":1430:1549   */\n      iszero\n      tag_141\n      jumpi\n        /* \"#utility.yul\":1468:1547   */\n      tag_142\n      tag_138\n      jump\t// in\n    tag_142:\n        /* \"#utility.yul\":1430:1549   */\n    tag_141:\n        /* \"#utility.yul\":1588:1589   */\n      0x00\n        /* \"#utility.yul\":1613:1674   */\n      tag_143\n        /* \"#utility.yul\":1666:1673   */\n      dup5\n        /* \"#utility.yul\":1657:1663   */\n      dup3\n        /* \"#utility.yul\":1646:1655   */\n      dup6\n        /* \"#utility.yul\":1642:1664   */\n      add\n        /* \"#utility.yul\":1613:1674   */\n      tag_116\n      jump\t// in\n    tag_143:\n        /* \"#utility.yul\":1603:1674   */\n      swap2\n      pop\n        /* \"#utility.yul\":1559:1684   */\n      pop\n        /* \"#utility.yul\":1346:1691   */\n      swap3\n      swap2\n      pop\n      pop\n      jump\t// out\n        /* \"#utility.yul\":1697:2026   */\n    tag_19:\n        /* \"#utility.yul\":1756:1762   */\n      0x00\n        /* \"#utility.yul\":1805:1807   */\n      0x20\n        /* \"#utility.yul\":1793:1802   */\n      dup3\n        /* \"#utility.yul\":1784:1791   */\n      dup5\n        /* \"#utility.yul\":1780:1803   */\n      sub\n        /* \"#utility.yul\":1776:1808   */\n      slt\n        /* \"#utility.yul\":1773:1892   */\n      iszero\n      tag_145\n      jumpi\n        /* \"#utility.yul\":1811:1890   */\n      tag_146\n      tag_138\n      jump\t// in\n    tag_146:\n        /* \"#utility.yul\":1773:1892   */\n    tag_145:\n        /* \"#utility.yul\":1931:1932   */\n      0x00\n        /* \"#utility.yul\":1956:2009   */\n      tag_147\n        /* \"#utility.yul\":2001:2008   */\n      dup5\n        /* \"#utility.yul\":1992:1998   */\n      dup3\n        /* \"#utility.yul\":1981:1990   */\n      dup6\n        /* \"#utility.yul\":1977:1999   */\n      add\n        /* \"#utility.yul\":1956:2009   */\n      tag_120\n      jump\t// in\n    tag_147:\n        /* \"#utility.yul\":1946:2009   */\n      swap2\n      pop\n        /* \"#utility.yul\":1902:2019   */\n      pop\n        /* \"#utility.yul\":1697:2026   */\n      swap3\n      swap2\n      pop\n      pop\n      jump\t// out\n        /* \"#utility.yul\":2032:2704   */\n    tag_15:\n        /* \"#utility.yul\":2111:2117   */\n      0x00\n        /* \"#utility.yul\":2119:2125   */\n      dup1\n        /* \"#utility.yul\":2127:2133   */\n      0x00\n        /* \"#utility.yul\":2176:2178   */\n      0x40\n        /* \"#utility.yul\":2164:2173   */\n      dup5\n        /* \"#utility.yul\":2155:2162   */\n      dup7\n        /* \"#utility.yul\":2151:2174   */\n      sub\n        /* \"#utility.yul\":2147:2179   */\n      slt\n        /* \"#utility.yul\":2144:2263   */\n      iszero\n      tag_149\n      jumpi\n        /* \"#utility.yul\":2182:2261   */\n      tag_150\n      tag_138\n      jump\t// in\n    tag_150:\n        /* \"#utility.yul\":2144:2263   */\n    tag_149:\n        /* \"#utility.yul\":2330:2331   */\n      0x00\n        /* \"#utility.yul\":2319:2328   */\n      dup5\n        /* \"#utility.yul\":2315:2332   */\n      add\n        /* \"#utility.yul\":2302:2333   */\n      calldataload\n        /* \"#utility.yul\":2360:2378   */\n      0xffffffffffffffff\n        /* \"#utility.yul\":2352:2358   */\n      dup2\n        /* \"#utility.yul\":2349:2379   */\n      gt\n        /* \"#utility.yul\":2346:2463   */\n      iszero\n      tag_151\n      jumpi\n        /* \"#utility.yul\":2382:2461   */\n      tag_152\n      tag_153\n      jump\t// in\n    tag_152:\n        /* \"#utility.yul\":2346:2463   */\n    tag_151:\n        /* \"#utility.yul\":2495:2559   */\n      tag_154\n        /* \"#utility.yul\":2551:2558   */\n      dup7\n        /* \"#utility.yul\":2542:2548   */\n      dup3\n        /* \"#utility.yul\":2531:2540   */\n      dup8\n        /* \"#utility.yul\":2527:2549   */\n      add\n        /* \"#utility.yul\":2495:2559   */\n      tag_124\n      jump\t// in\n    tag_154:\n        /* \"#utility.yul\":2477:2559   */\n      swap4\n      pop\n      swap4\n      pop\n        /* \"#utility.yul\":2273:2569   */\n      pop\n        /* \"#utility.yul\":2608:2610   */\n      0x20\n        /* \"#utility.yul\":2634:2687   */\n      tag_155\n        /* \"#utility.yul\":2679:2686   */\n      dup7\n        /* \"#utility.yul\":2670:2676   */\n      dup3\n        /* \"#utility.yul\":2659:2668   */\n      dup8\n        /* \"#utility.yul\":2655:2677   */\n      add\n        /* \"#utility.yul\":2634:2687   */\n      tag_120\n      jump\t// in\n    tag_155:\n        /* \"#utility.yul\":2624:2687   */\n      swap2\n      pop\n        /* \"#utility.yul\":2579:2697   */\n      pop\n        /* \"#utility.yul\":2032:2704   */\n      swap3\n      pop\n      swap3\n      pop\n      swap3\n      jump\t// out\n        /* \"#utility.yul\":2710:2889   */\n    tag_156:\n        /* \"#utility.yul\":2779:2789   */\n      0x00\n        /* \"#utility.yul\":2800:2846   */\n      tag_158\n        /* \"#utility.yul\":2842:2845   */\n      dup4\n        /* \"#utility.yul\":2834:2840   */\n      dup4\n        /* \"#utility.yul\":2800:2846   */\n      tag_159\n      jump\t// in\n    tag_158:\n        /* \"#utility.yul\":2878:2882   */\n      0x20\n        /* \"#utility.yul\":2873:2876   */\n      dup4\n        /* \"#utility.yul\":2869:2883   */\n      add\n        /* \"#utility.yul\":2855:2883   */\n      swap1\n      pop\n        /* \"#utility.yul\":2710:2889   */\n      swap3\n      swap2\n      pop\n      pop\n      jump\t// out\n        /* \"#utility.yul\":2895:3013   */\n    tag_160:\n        /* \"#utility.yul\":2982:3006   */\n      tag_162\n        /* \"#utility.yul\":3000:3005   */\n      dup2\n        /* \"#utility.yul\":2982:3006   */\n      tag_163\n      jump\t// in\n    tag_162:\n        /* \"#utility.yul\":2977:2980   */\n      dup3\n        /* \"#utility.yul\":2970:3007   */\n      mstore\n        /* \"#utility.yul\":2895:3013   */\n      pop\n      pop\n      jump\t// out\n        /* \"#utility.yul\":3049:3781   */\n    tag_164:\n        /* \"#utility.yul\":3168:3171   */\n      0x00\n        /* \"#utility.yul\":3197:3251   */\n      tag_166\n        /* \"#utility.yul\":3245:3250   */\n      dup3\n        /* \"#utility.yul\":3197:3251   */\n      tag_167\n      jump\t// in\n    tag_166:\n        /* \"#utility.yul\":3267:3353   */\n      tag_168\n        /* \"#utility.yul\":3346:3352   */\n      dup2\n        /* \"#utility.yul\":3341:3344   */\n      dup6\n        /* \"#utility.yul\":3267:3353   */\n      tag_169\n      jump\t// in\n    tag_168:\n        /* \"#utility.yul\":3260:3353   */\n      swap4\n      pop\n        /* \"#utility.yul\":3377:3433   */\n      tag_170\n        /* \"#utility.yul\":3427:3432   */\n      dup4\n        /* \"#utility.yul\":3377:3433   */\n      tag_171\n      jump\t// in\n    tag_170:\n        /* \"#utility.yul\":3456:3463   */\n      dup1\n        /* \"#utility.yul\":3487:3488   */\n      0x00\n        /* \"#utility.yul\":3472:3756   */\n    tag_172:\n        /* \"#utility.yul\":3497:3503   */\n      dup4\n        /* \"#utility.yul\":3494:3495   */\n      dup2\n        /* \"#utility.yul\":3491:3504   */\n      lt\n        /* \"#utility.yul\":3472:3756   */\n      iszero\n      tag_174\n      jumpi\n        /* \"#utility.yul\":3573:3579   */\n      dup2\n        /* \"#utility.yul\":3567:3580   */\n      mload\n        /* \"#utility.yul\":3600:3663   */\n      tag_175\n        /* \"#utility.yul\":3659:3662   */\n      dup9\n        /* \"#utility.yul\":3644:3657   */\n      dup3\n        /* \"#utility.yul\":3600:3663   */\n      tag_156\n      jump\t// in\n    tag_175:\n        /* \"#utility.yul\":3593:3663   */\n      swap8\n      pop\n        /* \"#utility.yul\":3686:3746   */\n      tag_176\n        /* \"#utility.yul\":3739:3745   */\n      dup4\n        /* \"#utility.yul\":3686:3746   */\n      tag_177\n      jump\t// in\n    tag_176:\n        /* \"#utility.yul\":3676:3746   */\n      swap3\n      pop\n        /* \"#utility.yul\":3532:3756   */\n      pop\n        /* \"#utility.yul\":3519:3520   */\n      0x01\n        /* \"#utility.yul\":3516:3517   */\n      dup2\n        /* \"#utility.yul\":3512:3521   */\n      add\n        /* \"#utility.yul\":3507:3521   */\n      swap1\n      pop\n        /* \"#utility.yul\":3472:3756   */\n      jump(tag_172)\n    tag_174:\n        /* \"#utility.yul\":3476:3490   */\n      pop\n        /* \"#utility.yul\":3772:3775   */\n      dup6\n        /* \"#utility.yul\":3765:3775   */\n      swap4\n      pop\n        /* \"#utility.yul\":3173:3781   */\n      pop\n      pop\n      pop\n        /* \"#utility.yul\":3049:3781   */\n      swap3\n      swap2\n      pop\n      pop\n      jump\t// out\n        /* \"#utility.yul\":3787:3896   */\n    tag_178:\n        /* \"#utility.yul\":3868:3889   */\n      tag_180\n        /* \"#utility.yul\":3883:3888   */\n      dup2\n        /* \"#utility.yul\":3868:3889   */\n      tag_181\n      jump\t// in\n    tag_180:\n        /* \"#utility.yul\":3863:3866   */\n      dup3\n        /* \"#utility.yul\":3856:3890   */\n      mstore\n        /* \"#utility.yul\":3787:3896   */\n      pop\n      pop\n      jump\t// out\n        /* \"#utility.yul\":3902:4020   */\n    tag_182:\n        /* \"#utility.yul\":3989:4013   */\n      tag_184\n        /* \"#utility.yul\":4007:4012   */\n      dup2\n        /* \"#utility.yul\":3989:4013   */\n      tag_185\n      jump\t// in\n    tag_184:\n        /* \"#utility.yul\":3984:3987   */\n      dup3\n        /* \"#utility.yul\":3977:4014   */\n      mstore\n        /* \"#utility.yul\":3902:4020   */\n      pop\n      pop\n      jump\t// out\n        /* \"#utility.yul\":4048:4349   */\n    tag_186:\n        /* \"#utility.yul\":4144:4147   */\n      0x00\n        /* \"#utility.yul\":4165:4235   */\n      tag_188\n        /* \"#utility.yul\":4228:4234   */\n      dup4\n        /* \"#utility.yul\":4223:4226   */\n      dup6\n        /* \"#utility.yul\":4165:4235   */\n      tag_189\n      jump\t// in\n    tag_188:\n        /* \"#utility.yul\":4158:4235   */\n      swap4\n      pop\n        /* \"#utility.yul\":4245:4288   */\n      tag_190\n        /* \"#utility.yul\":4281:4287   */\n      dup4\n        /* \"#utility.yul\":4276:4279   */\n      dup6\n        /* \"#utility.yul\":4269:4274   */\n      dup5\n        /* \"#utility.yul\":4245:4288   */\n      tag_191\n      jump\t// in\n    tag_190:\n        /* \"#utility.yul\":4313:4342   */\n      tag_192\n        /* \"#utility.yul\":4335:4341   */\n      dup4\n        /* \"#utility.yul\":4313:4342   */\n      tag_193\n      jump\t// in\n    tag_192:\n        /* \"#utility.yul\":4308:4311   */\n      dup5\n        /* \"#utility.yul\":4304:4343   */\n      add\n        /* \"#utility.yul\":4297:4343   */\n      swap1\n      pop\n        /* \"#utility.yul\":4048:4349   */\n      swap4\n      swap3\n      pop\n      pop\n      pop\n      jump\t// out\n        /* \"#utility.yul\":4355:4514   */\n    tag_194:\n        /* \"#utility.yul\":4456:4507   */\n      tag_196\n        /* \"#utility.yul\":4501:4506   */\n      dup2\n        /* \"#utility.yul\":4456:4507   */\n      tag_197\n      jump\t// in\n    tag_196:\n        /* \"#utility.yul\":4451:4454   */\n      dup3\n        /* \"#utility.yul\":4444:4508   */\n      mstore\n        /* \"#utility.yul\":4355:4514   */\n      pop\n      pop\n      jump\t// out\n        /* \"#utility.yul\":4520:4886   */\n    tag_198:\n        /* \"#utility.yul\":4662:4665   */\n      0x00\n        /* \"#utility.yul\":4683:4750   */\n      tag_200\n        /* \"#utility.yul\":4747:4749   */\n      0x26\n        /* \"#utility.yul\":4742:4745   */\n      dup4\n        /* \"#utility.yul\":4683:4750   */\n      tag_201\n      jump\t// in\n    tag_200:\n        /* \"#utility.yul\":4676:4750   */\n      swap2\n      pop\n        /* \"#utility.yul\":4759:4852   */\n      tag_202\n        /* \"#utility.yul\":4848:4851   */\n      dup3\n        /* \"#utility.yul\":4759:4852   */\n      tag_203\n      jump\t// in\n    tag_202:\n        /* \"#utility.yul\":4877:4879   */\n      0x40\n        /* \"#utility.yul\":4872:4875   */\n      dup3\n        /* \"#utility.yul\":4868:4880   */\n      add\n        /* \"#utility.yul\":4861:4880   */\n      swap1\n      pop\n        /* \"#utility.yul\":4520:4886   */\n      swap2\n      swap1\n      pop\n      jump\t// out\n        /* \"#utility.yul\":4892:5258   */\n    tag_204:\n        /* \"#utility.yul\":5034:5037   */\n      0x00\n        /* \"#utility.yul\":5055:5122   */\n      tag_206\n        /* \"#utility.yul\":5119:5121   */\n      0x18\n        /* \"#utility.yul\":5114:5117   */\n      dup4\n        /* \"#utility.yul\":5055:5122   */\n      tag_201\n      jump\t// in\n    tag_206:\n        /* \"#utility.yul\":5048:5122   */\n      swap2\n      pop\n        /* \"#utility.yul\":5131:5224   */\n      tag_207\n        /* \"#utility.yul\":5220:5223   */\n      dup3\n        /* \"#utility.yul\":5131:5224   */\n      tag_208\n      jump\t// in\n    tag_207:\n        /* \"#utility.yul\":5249:5251   */\n      0x20\n        /* \"#utility.yul\":5244:5247   */\n      dup3\n        /* \"#utility.yul\":5240:5252   */\n      add\n        /* \"#utility.yul\":5233:5252   */\n      swap1\n      pop\n        /* \"#utility.yul\":4892:5258   */\n      swap2\n      swap1\n      pop\n      jump\t// out\n        /* \"#utility.yul\":5264:5630   */\n    tag_209:\n        /* \"#utility.yul\":5406:5409   */\n      0x00\n        /* \"#utility.yul\":5427:5494   */\n      tag_211\n        /* \"#utility.yul\":5491:5493   */\n      0x19\n        /* \"#utility.yul\":5486:5489   */\n      dup4\n        /* \"#utility.yul\":5427:5494   */\n      tag_201\n      jump\t// in\n    tag_211:\n        /* \"#utility.yul\":5420:5494   */\n      swap2\n      pop\n        /* \"#utility.yul\":5503:5596   */\n      tag_212\n        /* \"#utility.yul\":5592:5595   */\n      dup3\n        /* \"#utility.yul\":5503:5596   */\n      tag_213\n      jump\t// in\n    tag_212:\n        /* \"#utility.yul\":5621:5623   */\n      0x20\n        /* \"#utility.yul\":5616:5619   */\n      dup3\n        /* \"#utility.yul\":5612:5624   */\n      add\n        /* \"#utility.yul\":5605:5624   */\n      swap1\n      pop\n        /* \"#utility.yul\":5264:5630   */\n      swap2\n      swap1\n      pop\n      jump\t// out\n        /* \"#utility.yul\":5636:6002   */\n    tag_214:\n        /* \"#utility.yul\":5778:5781   */\n      0x00\n        /* \"#utility.yul\":5799:5866   */\n      tag_216\n        /* \"#utility.yul\":5863:5865   */\n      0x21\n        /* \"#utility.yul\":5858:5861   */\n      dup4\n        /* \"#utility.yul\":5799:5866   */\n      tag_201\n      jump\t// in\n    tag_216:\n        /* \"#utility.yul\":5792:5866   */\n      swap2\n      pop\n        /* \"#utility.yul\":5875:5968   */\n      tag_217\n        /* \"#utility.yul\":5964:5967   */\n      dup3\n        /* \"#utility.yul\":5875:5968   */\n      tag_218\n      jump\t// in\n    tag_217:\n        /* \"#utility.yul\":5993:5995   */\n      0x40\n        /* \"#utility.yul\":5988:5991   */\n      dup3\n        /* \"#utility.yul\":5984:5996   */\n      add\n        /* \"#utility.yul\":5977:5996   */\n      swap1\n      pop\n        /* \"#utility.yul\":5636:6002   */\n      swap2\n      swap1\n      pop\n      jump\t// out\n        /* \"#utility.yul\":6008:6374   */\n    tag_219:\n        /* \"#utility.yul\":6150:6153   */\n      0x00\n        /* \"#utility.yul\":6171:6238   */\n      tag_221\n        /* \"#utility.yul\":6235:6237   */\n      0x20\n        /* \"#utility.yul\":6230:6233   */\n      dup4\n        /* \"#utility.yul\":6171:6238   */\n      tag_201\n      jump\t// in\n    tag_221:\n        /* \"#utility.yul\":6164:6238   */\n      swap2\n      pop\n        /* \"#utility.yul\":6247:6340   */\n      tag_222\n        /* \"#utility.yul\":6336:6339   */\n      dup3\n        /* \"#utility.yul\":6247:6340   */\n      tag_223\n      jump\t// in\n    tag_222:\n        /* \"#utility.yul\":6365:6367   */\n      0x20\n        /* \"#utility.yul\":6360:6363   */\n      dup3\n        /* \"#utility.yul\":6356:6368   */\n      add\n        /* \"#utility.yul\":6349:6368   */\n      swap1\n      pop\n        /* \"#utility.yul\":6008:6374   */\n      swap2\n      swap1\n      pop\n      jump\t// out\n        /* \"#utility.yul\":6380:6488   */\n    tag_159:\n        /* \"#utility.yul\":6457:6481   */\n      tag_225\n        /* \"#utility.yul\":6475:6480   */\n      dup2\n        /* \"#utility.yul\":6457:6481   */\n      tag_226\n      jump\t// in\n    tag_225:\n        /* \"#utility.yul\":6452:6455   */\n      dup3\n        /* \"#utility.yul\":6445:6482   */\n      mstore\n        /* \"#utility.yul\":6380:6488   */\n      pop\n      pop\n      jump\t// out\n        /* \"#utility.yul\":6494:6612   */\n    tag_227:\n        /* \"#utility.yul\":6581:6605   */\n      tag_229\n        /* \"#utility.yul\":6599:6604   */\n      dup2\n        /* \"#utility.yul\":6581:6605   */\n      tag_226\n      jump\t// in\n    tag_229:\n        /* \"#utility.yul\":6576:6579   */\n      dup3\n        /* \"#utility.yul\":6569:6606   */\n      mstore\n        /* \"#utility.yul\":6494:6612   */\n      pop\n      pop\n      jump\t// out\n        /* \"#utility.yul\":6618:6840   */\n    tag_39:\n        /* \"#utility.yul\":6711:6715   */\n      0x00\n        /* \"#utility.yul\":6749:6751   */\n      0x20\n        /* \"#utility.yul\":6738:6747   */\n      dup3\n        /* \"#utility.yul\":6734:6752   */\n      add\n        /* \"#utility.yul\":6726:6752   */\n      swap1\n      pop\n        /* \"#utility.yul\":6762:6833   */\n      tag_231\n        /* \"#utility.yul\":6830:6831   */\n      0x00\n        /* \"#utility.yul\":6819:6828   */\n      dup4\n        /* \"#utility.yul\":6815:6832   */\n      add\n        /* \"#utility.yul\":6806:6812   */\n      dup5\n        /* \"#utility.yul\":6762:6833   */\n      tag_160\n      jump\t// in\n    tag_231:\n        /* \"#utility.yul\":6618:6840   */\n      swap3\n      swap2\n      pop\n      pop\n      jump\t// out\n        /* \"#utility.yul\":6846:7178   */\n    tag_77:\n        /* \"#utility.yul\":6967:6971   */\n      0x00\n        /* \"#utility.yul\":7005:7007   */\n      0x40\n        /* \"#utility.yul\":6994:7003   */\n      dup3\n        /* \"#utility.yul\":6990:7008   */\n      add\n        /* \"#utility.yul\":6982:7008   */\n      swap1\n      pop\n        /* \"#utility.yul\":7018:7089   */\n      tag_233\n        /* \"#utility.yul\":7086:7087   */\n      0x00\n        /* \"#utility.yul\":7075:7084   */\n      dup4\n        /* \"#utility.yul\":7071:7088   */\n      add\n        /* \"#utility.yul\":7062:7068   */\n      dup6\n        /* \"#utility.yul\":7018:7089   */\n      tag_160\n      jump\t// in\n    tag_233:\n        /* \"#utility.yul\":7099:7171   */\n      tag_234\n        /* \"#utility.yul\":7167:7169   */\n      0x20\n        /* \"#utility.yul\":7156:7165   */\n      dup4\n        /* \"#utility.yul\":7152:7170   */\n      add\n        /* \"#utility.yul\":7143:7149   */\n      dup5\n        /* \"#utility.yul\":7099:7171   */\n      tag_227\n      jump\t// in\n    tag_234:\n        /* \"#utility.yul\":6846:7178   */\n      swap4\n      swap3\n      pop\n      pop\n      pop\n      jump\t// out\n        /* \"#utility.yul\":7184:7394   */\n    tag_25:\n        /* \"#utility.yul\":7271:7275   */\n      0x00\n        /* \"#utility.yul\":7309:7311   */\n      0x20\n        /* \"#utility.yul\":7298:7307   */\n      dup3\n        /* \"#utility.yul\":7294:7312   */\n      add\n        /* \"#utility.yul\":7286:7312   */\n      swap1\n      pop\n        /* \"#utility.yul\":7322:7387   */\n      tag_236\n        /* \"#utility.yul\":7384:7385   */\n      0x00\n        /* \"#utility.yul\":7373:7382   */\n      dup4\n        /* \"#utility.yul\":7369:7386   */\n      add\n        /* \"#utility.yul\":7360:7366   */\n      dup5\n        /* \"#utility.yul\":7322:7387   */\n      tag_178\n      jump\t// in\n    tag_236:\n        /* \"#utility.yul\":7184:7394   */\n      swap3\n      swap2\n      pop\n      pop\n      jump\t// out\n        /* \"#utility.yul\":7400:7622   */\n    tag_43:\n        /* \"#utility.yul\":7493:7497   */\n      0x00\n        /* \"#utility.yul\":7531:7533   */\n      0x20\n        /* \"#utility.yul\":7520:7529   */\n      dup3\n        /* \"#utility.yul\":7516:7534   */\n      add\n        /* \"#utility.yul\":7508:7534   */\n      swap1\n      pop\n        /* \"#utility.yul\":7544:7615   */\n      tag_238\n        /* \"#utility.yul\":7612:7613   */\n      0x00\n        /* \"#utility.yul\":7601:7610   */\n      dup4\n        /* \"#utility.yul\":7597:7614   */\n      add\n        /* \"#utility.yul\":7588:7594   */\n      dup5\n        /* \"#utility.yul\":7544:7615   */\n      tag_182\n      jump\t// in\n    tag_238:\n        /* \"#utility.yul\":7400:7622   */\n      swap3\n      swap2\n      pop\n      pop\n      jump\t// out\n        /* \"#utility.yul\":7628:8218   */\n    tag_67:\n        /* \"#utility.yul\":7827:7831   */\n      0x00\n        /* \"#utility.yul\":7865:7867   */\n      0x40\n        /* \"#utility.yul\":7854:7863   */\n      dup3\n        /* \"#utility.yul\":7850:7868   */\n      add\n        /* \"#utility.yul\":7842:7868   */\n      swap1\n      pop\n        /* \"#utility.yul\":7914:7923   */\n      dup2\n        /* \"#utility.yul\":7908:7912   */\n      dup2\n        /* \"#utility.yul\":7904:7924   */\n      sub\n        /* \"#utility.yul\":7900:7901   */\n      0x00\n        /* \"#utility.yul\":7889:7898   */\n      dup4\n        /* \"#utility.yul\":7885:7902   */\n      add\n        /* \"#utility.yul\":7878:7925   */\n      mstore\n        /* \"#utility.yul\":7942:8028   */\n      tag_240\n        /* \"#utility.yul\":8023:8027   */\n      dup2\n        /* \"#utility.yul\":8014:8020   */\n      dup6\n        /* \"#utility.yul\":8006:8012   */\n      dup8\n        /* \"#utility.yul\":7942:8028   */\n      tag_186\n      jump\t// in\n    tag_240:\n        /* \"#utility.yul\":7934:8028   */\n      swap1\n      pop\n        /* \"#utility.yul\":8075:8084   */\n      dup2\n        /* \"#utility.yul\":8069:8073   */\n      dup2\n        /* \"#utility.yul\":8065:8085   */\n      sub\n        /* \"#utility.yul\":8060:8062   */\n      0x20\n        /* \"#utility.yul\":8049:8058   */\n      dup4\n        /* \"#utility.yul\":8045:8063   */\n      add\n        /* \"#utility.yul\":8038:8086   */\n      mstore\n        /* \"#utility.yul\":8103:8211   */\n      tag_241\n        /* \"#utility.yul\":8206:8210   */\n      dup2\n        /* \"#utility.yul\":8197:8203   */\n      dup5\n        /* \"#utility.yul\":8103:8211   */\n      tag_164\n      jump\t// in\n    tag_241:\n        /* \"#utility.yul\":8095:8211   */\n      swap1\n      pop\n        /* \"#utility.yul\":7628:8218   */\n      swap5\n      swap4\n      pop\n      pop\n      pop\n      pop\n      jump\t// out\n        /* \"#utility.yul\":8224:8474   */\n    tag_29:\n        /* \"#utility.yul\":8331:8335   */\n      0x00\n        /* \"#utility.yul\":8369:8371   */\n      0x20\n        /* \"#utility.yul\":8358:8367   */\n      dup3\n        /* \"#utility.yul\":8354:8372   */\n      add\n        /* \"#utility.yul\":8346:8372   */\n      swap1\n      pop\n        /* \"#utility.yul\":8382:8467   */\n      tag_243\n        /* \"#utility.yul\":8464:8465   */\n      0x00\n        /* \"#utility.yul\":8453:8462   */\n      dup4\n        /* \"#utility.yul\":8449:8466   */\n      add\n        /* \"#utility.yul\":8440:8446   */\n      dup5\n        /* \"#utility.yul\":8382:8467   */\n      tag_194\n      jump\t// in\n    tag_243:\n        /* \"#utility.yul\":8224:8474   */\n      swap3\n      swap2\n      pop\n      pop\n      jump\t// out\n        /* \"#utility.yul\":8480:8899   */\n    tag_107:\n        /* \"#utility.yul\":8646:8650   */\n      0x00\n        /* \"#utility.yul\":8684:8686   */\n      0x20\n        /* \"#utility.yul\":8673:8682   */\n      dup3\n        /* \"#utility.yul\":8669:8687   */\n      add\n        /* \"#utility.yul\":8661:8687   */\n      swap1\n      pop\n        /* \"#utility.yul\":8733:8742   */\n      dup2\n        /* \"#utility.yul\":8727:8731   */\n      dup2\n        /* \"#utility.yul\":8723:8743   */\n      sub\n        /* \"#utility.yul\":8719:8720   */\n      0x00\n        /* \"#utility.yul\":8708:8717   */\n      dup4\n        /* \"#utility.yul\":8704:8721   */\n      add\n        /* \"#utility.yul\":8697:8744   */\n      mstore\n        /* \"#utility.yul\":8761:8892   */\n      tag_245\n        /* \"#utility.yul\":8887:8891   */\n      dup2\n        /* \"#utility.yul\":8761:8892   */\n      tag_198\n      jump\t// in\n    tag_245:\n        /* \"#utility.yul\":8753:8892   */\n      swap1\n      pop\n        /* \"#utility.yul\":8480:8899   */\n      swap2\n      swap1\n      pop\n      jump\t// out\n        /* \"#utility.yul\":8905:9324   */\n    tag_54:\n        /* \"#utility.yul\":9071:9075   */\n      0x00\n        /* \"#utility.yul\":9109:9111   */\n      0x20\n        /* \"#utility.yul\":9098:9107   */\n      dup3\n        /* \"#utility.yul\":9094:9112   */\n      add\n        /* \"#utility.yul\":9086:9112   */\n      swap1\n      pop\n        /* \"#utility.yul\":9158:9167   */\n      dup2\n        /* \"#utility.yul\":9152:9156   */\n      dup2\n        /* \"#utility.yul\":9148:9168   */\n      sub\n        /* \"#utility.yul\":9144:9145   */\n      0x00\n        /* \"#utility.yul\":9133:9142   */\n      dup4\n        /* \"#utility.yul\":9129:9146   */\n      add\n        /* \"#utility.yul\":9122:9169   */\n      mstore\n        /* \"#utility.yul\":9186:9317   */\n      tag_247\n        /* \"#utility.yul\":9312:9316   */\n      dup2\n        /* \"#utility.yul\":9186:9317   */\n      tag_204\n      jump\t// in\n    tag_247:\n        /* \"#utility.yul\":9178:9317   */\n      swap1\n      pop\n        /* \"#utility.yul\":8905:9324   */\n      swap2\n      swap1\n      pop\n      jump\t// out\n        /* \"#utility.yul\":9330:9749   */\n    tag_75:\n        /* \"#utility.yul\":9496:9500   */\n      0x00\n        /* \"#utility.yul\":9534:9536   */\n      0x20\n        /* \"#utility.yul\":9523:9532   */\n      dup3\n        /* \"#utility.yul\":9519:9537   */\n      add\n        /* \"#utility.yul\":9511:9537   */\n      swap1\n      pop\n        /* \"#utility.yul\":9583:9592   */\n      dup2\n        /* \"#utility.yul\":9577:9581   */\n      dup2\n        /* \"#utility.yul\":9573:9593   */\n      sub\n        /* \"#utility.yul\":9569:9570   */\n      0x00\n        /* \"#utility.yul\":9558:9567   */\n      dup4\n        /* \"#utility.yul\":9554:9571   */\n      add\n        /* \"#utility.yul\":9547:9594   */\n      mstore\n        /* \"#utility.yul\":9611:9742   */\n      tag_249\n        /* \"#utility.yul\":9737:9741   */\n      dup2\n        /* \"#utility.yul\":9611:9742   */\n      tag_209\n      jump\t// in\n    tag_249:\n        /* \"#utility.yul\":9603:9742   */\n      swap1\n      pop\n        /* \"#utility.yul\":9330:9749   */\n      swap2\n      swap1\n      pop\n      jump\t// out\n        /* \"#utility.yul\":9755:10174   */\n    tag_51:\n        /* \"#utility.yul\":9921:9925   */\n      0x00\n        /* \"#utility.yul\":9959:9961   */\n      0x20\n        /* \"#utility.yul\":9948:9957   */\n      dup3\n        /* \"#utility.yul\":9944:9962   */\n      add\n        /* \"#utility.yul\":9936:9962   */\n      swap1\n      pop\n        /* \"#utility.yul\":10008:10017   */\n      dup2\n        /* \"#utility.yul\":10002:10006   */\n      dup2\n        /* \"#utility.yul\":9998:10018   */\n      sub\n        /* \"#utility.yul\":9994:9995   */\n      0x00\n        /* \"#utility.yul\":9983:9992   */\n      dup4\n        /* \"#utility.yul\":9979:9996   */\n      add\n        /* \"#utility.yul\":9972:10019   */\n      mstore\n        /* \"#utility.yul\":10036:10167   */\n      tag_251\n        /* \"#utility.yul\":10162:10166   */\n      dup2\n        /* \"#utility.yul\":10036:10167   */\n      tag_214\n      jump\t// in\n    tag_251:\n        /* \"#utility.yul\":10028:10167   */\n      swap1\n      pop\n        /* \"#utility.yul\":9755:10174   */\n      swap2\n      swap1\n      pop\n      jump\t// out\n        /* \"#utility.yul\":10180:10599   */\n    tag_88:\n        /* \"#utility.yul\":10346:10350   */\n      0x00\n        /* \"#utility.yul\":10384:10386   */\n      0x20\n        /* \"#utility.yul\":10373:10382   */\n      dup3\n        /* \"#utility.yul\":10369:10387   */\n      add\n        /* \"#utility.yul\":10361:10387   */\n      swap1\n      pop\n        /* \"#utility.yul\":10433:10442   */\n      dup2\n        /* \"#utility.yul\":10427:10431   */\n      dup2\n        /* \"#utility.yul\":10423:10443   */\n      sub\n        /* \"#utility.yul\":10419:10420   */\n      0x00\n        /* \"#utility.yul\":10408:10417   */\n      dup4\n        /* \"#utility.yul\":10404:10421   */\n      add\n        /* \"#utility.yul\":10397:10444   */\n      mstore\n        /* \"#utility.yul\":10461:10592   */\n      tag_253\n        /* \"#utility.yul\":10587:10591   */\n      dup2\n        /* \"#utility.yul\":10461:10592   */\n      tag_219\n      jump\t// in\n    tag_253:\n        /* \"#utility.yul\":10453:10592   */\n      swap1\n      pop\n        /* \"#utility.yul\":10180:10599   */\n      swap2\n      swap1\n      pop\n      jump\t// out\n        /* \"#utility.yul\":10605:10827   */\n    tag_35:\n        /* \"#utility.yul\":10698:10702   */\n      0x00\n        /* \"#utility.yul\":10736:10738   */\n      0x20\n        /* \"#utility.yul\":10725:10734   */\n      dup3\n        /* \"#utility.yul\":10721:10739   */\n      add\n        /* \"#utility.yul\":10713:10739   */\n      swap1\n      pop\n        /* \"#utility.yul\":10749:10820   */\n      tag_255\n        /* \"#utility.yul\":10817:10818   */\n      0x00\n        /* \"#utility.yul\":10806:10815   */\n      dup4\n        /* \"#utility.yul\":10802:10819   */\n      add\n        /* \"#utility.yul\":10793:10799   */\n      dup5\n        /* \"#utility.yul\":10749:10820   */\n      tag_227\n      jump\t// in\n    tag_255:\n        /* \"#utility.yul\":10605:10827   */\n      swap3\n      swap2\n      pop\n      pop\n      jump\t// out\n        /* \"#utility.yul\":10914:11046   */\n    tag_171:\n        /* \"#utility.yul\":10981:10985   */\n      0x00\n        /* \"#utility.yul\":11004:11007   */\n      dup2\n        /* \"#utility.yul\":10996:11007   */\n      swap1\n      pop\n        /* \"#utility.yul\":11034:11038   */\n      0x20\n        /* \"#utility.yul\":11029:11032   */\n      dup3\n        /* \"#utility.yul\":11025:11039   */\n      add\n        /* \"#utility.yul\":11017:11039   */\n      swap1\n      pop\n        /* \"#utility.yul\":10914:11046   */\n      swap2\n      swap1\n      pop\n      jump\t// out\n        /* \"#utility.yul\":11052:11166   */\n    tag_167:\n        /* \"#utility.yul\":11119:11125   */\n      0x00\n        /* \"#utility.yul\":11153:11158   */\n      dup2\n        /* \"#utility.yul\":11147:11159   */\n      mload\n        /* \"#utility.yul\":11137:11159   */\n      swap1\n      pop\n        /* \"#utility.yul\":11052:11166   */\n      swap2\n      swap1\n      pop\n      jump\t// out\n        /* \"#utility.yul\":11172:11285   */\n    tag_177:\n        /* \"#utility.yul\":11242:11246   */\n      0x00\n        /* \"#utility.yul\":11274:11278   */\n      0x20\n        /* \"#utility.yul\":11269:11272   */\n      dup3\n        /* \"#utility.yul\":11265:11279   */\n      add\n        /* \"#utility.yul\":11257:11279   */\n      swap1\n      pop\n        /* \"#utility.yul\":11172:11285   */\n      swap2\n      swap1\n      pop\n      jump\t// out\n        /* \"#utility.yul\":11291:11475   */\n    tag_169:\n        /* \"#utility.yul\":11390:11401   */\n      0x00\n        /* \"#utility.yul\":11424:11430   */\n      dup3\n        /* \"#utility.yul\":11419:11422   */\n      dup3\n        /* \"#utility.yul\":11412:11431   */\n      mstore\n        /* \"#utility.yul\":11464:11468   */\n      0x20\n        /* \"#utility.yul\":11459:11462   */\n      dup3\n        /* \"#utility.yul\":11455:11469   */\n      add\n        /* \"#utility.yul\":11440:11469   */\n      swap1\n      pop\n        /* \"#utility.yul\":11291:11475   */\n      swap3\n      swap2\n      pop\n      pop\n      jump\t// out\n        /* \"#utility.yul\":11481:11649   */\n    tag_189:\n        /* \"#utility.yul\":11564:11575   */\n      0x00\n        /* \"#utility.yul\":11598:11604   */\n      dup3\n        /* \"#utility.yul\":11593:11596   */\n      dup3\n        /* \"#utility.yul\":11586:11605   */\n      mstore\n        /* \"#utility.yul\":11638:11642   */\n      0x20\n        /* \"#utility.yul\":11633:11636   */\n      dup3\n        /* \"#utility.yul\":11629:11643   */\n      add\n        /* \"#utility.yul\":11614:11643   */\n      swap1\n      pop\n        /* \"#utility.yul\":11481:11649   */\n      swap3\n      swap2\n      pop\n      pop\n      jump\t// out\n        /* \"#utility.yul\":11655:11824   */\n    tag_201:\n        /* \"#utility.yul\":11739:11750   */\n      0x00\n        /* \"#utility.yul\":11773:11779   */\n      dup3\n        /* \"#utility.yul\":11768:11771   */\n      dup3\n        /* \"#utility.yul\":11761:11780   */\n      mstore\n        /* \"#utility.yul\":11813:11817   */\n      0x20\n        /* \"#utility.yul\":11808:11811   */\n      dup3\n        /* \"#utility.yul\":11804:11818   */\n      add\n        /* \"#utility.yul\":11789:11818   */\n      swap1\n      pop\n        /* \"#utility.yul\":11655:11824   */\n      swap3\n      swap2\n      pop\n      pop\n      jump\t// out\n        /* \"#utility.yul\":11830:11926   */\n    tag_163:\n        /* \"#utility.yul\":11867:11874   */\n      0x00\n        /* \"#utility.yul\":11896:11920   */\n      tag_265\n        /* \"#utility.yul\":11914:11919   */\n      dup3\n        /* \"#utility.yul\":11896:11920   */\n      tag_266\n      jump\t// in\n    tag_265:\n        /* \"#utility.yul\":11885:11920   */\n      swap1\n      pop\n        /* \"#utility.yul\":11830:11926   */\n      swap2\n      swap1\n      pop\n      jump\t// out\n        /* \"#utility.yul\":11932:12022   */\n    tag_181:\n        /* \"#utility.yul\":11966:11973   */\n      0x00\n        /* \"#utility.yul\":12009:12014   */\n      dup2\n        /* \"#utility.yul\":12002:12015   */\n      iszero\n        /* \"#utility.yul\":11995:12016   */\n      iszero\n        /* \"#utility.yul\":11984:12016   */\n      swap1\n      pop\n        /* \"#utility.yul\":11932:12022   */\n      swap2\n      swap1\n      pop\n      jump\t// out\n        /* \"#utility.yul\":12028:12105   */\n    tag_185:\n        /* \"#utility.yul\":12065:12072   */\n      0x00\n        /* \"#utility.yul\":12094:12099   */\n      dup2\n        /* \"#utility.yul\":12083:12099   */\n      swap1\n      pop\n        /* \"#utility.yul\":12028:12105   */\n      swap2\n      swap1\n      pop\n      jump\t// out\n        /* \"#utility.yul\":12111:12237   */\n    tag_266:\n        /* \"#utility.yul\":12148:12155   */\n      0x00\n        /* \"#utility.yul\":12188:12230   */\n      0xffffffffffffffffffffffffffffffffffffffff\n        /* \"#utility.yul\":12181:12186   */\n      dup3\n        /* \"#utility.yul\":12177:12231   */\n      and\n        /* \"#utility.yul\":12166:12231   */\n      swap1\n      pop\n        /* \"#utility.yul\":12111:12237   */\n      swap2\n      swap1\n      pop\n      jump\t// out\n        /* \"#utility.yul\":12243:12320   */\n    tag_226:\n        /* \"#utility.yul\":12280:12287   */\n      0x00\n        /* \"#utility.yul\":12309:12314   */\n      dup2\n        /* \"#utility.yul\":12298:12314   */\n      swap1\n      pop\n        /* \"#utility.yul\":12243:12320   */\n      swap2\n      swap1\n      pop\n      jump\t// out\n        /* \"#utility.yul\":12326:12466   */\n    tag_197:\n        /* \"#utility.yul\":12390:12399   */\n      0x00\n        /* \"#utility.yul\":12423:12460   */\n      tag_272\n        /* \"#utility.yul\":12454:12459   */\n      dup3\n        /* \"#utility.yul\":12423:12460   */\n      tag_273\n      jump\t// in\n    tag_272:\n        /* \"#utility.yul\":12410:12460   */\n      swap1\n      pop\n        /* \"#utility.yul\":12326:12466   */\n      swap2\n      swap1\n      pop\n      jump\t// out\n        /* \"#utility.yul\":12472:12598   */\n    tag_273:\n        /* \"#utility.yul\":12522:12531   */\n      0x00\n        /* \"#utility.yul\":12555:12592   */\n      tag_275\n        /* \"#utility.yul\":12586:12591   */\n      dup3\n        /* \"#utility.yul\":12555:12592   */\n      tag_276\n      jump\t// in\n    tag_275:\n        /* \"#utility.yul\":12542:12592   */\n      swap1\n      pop\n        /* \"#utility.yul\":12472:12598   */\n      swap2\n      swap1\n      pop\n      jump\t// out\n        /* \"#utility.yul\":12604:12717   */\n    tag_276:\n        /* \"#utility.yul\":12654:12663   */\n      0x00\n        /* \"#utility.yul\":12687:12711   */\n      tag_278\n        /* \"#utility.yul\":12705:12710   */\n      dup3\n        /* \"#utility.yul\":12687:12711   */\n      tag_266\n      jump\t// in\n    tag_278:\n        /* \"#utility.yul\":12674:12711   */\n      swap1\n      pop\n        /* \"#utility.yul\":12604:12717   */\n      swap2\n      swap1\n      pop\n      jump\t// out\n        /* \"#utility.yul\":12723:12877   */\n    tag_191:\n        /* \"#utility.yul\":12807:12813   */\n      dup3\n        /* \"#utility.yul\":12802:12805   */\n      dup2\n        /* \"#utility.yul\":12797:12800   */\n      dup4\n        /* \"#utility.yul\":12784:12814   */\n      calldatacopy\n        /* \"#utility.yul\":12869:12870   */\n      0x00\n        /* \"#utility.yul\":12860:12866   */\n      dup4\n        /* \"#utility.yul\":12855:12858   */\n      dup4\n        /* \"#utility.yul\":12851:12867   */\n      add\n        /* \"#utility.yul\":12844:12871   */\n      mstore\n        /* \"#utility.yul\":12723:12877   */\n      pop\n      pop\n      pop\n      jump\t// out\n        /* \"#utility.yul\":12883:13063   */\n    tag_61:\n        /* \"#utility.yul\":12931:13008   */\n      0x4e487b7100000000000000000000000000000000000000000000000000000000\n        /* \"#utility.yul\":12928:12929   */\n      0x00\n        /* \"#utility.yul\":12921:13009   */\n      mstore\n        /* \"#utility.yul\":13028:13032   */\n      0x32\n        /* \"#utility.yul\":13025:13026   */\n      0x04\n        /* \"#utility.yul\":13018:13033   */\n      mstore\n        /* \"#utility.yul\":13052:13056   */\n      0x24\n        /* \"#utility.yul\":13049:13050   */\n      0x00\n        /* \"#utility.yul\":13042:13057   */\n      revert\n        /* \"#utility.yul\":13069:13249   */\n    tag_57:\n        /* \"#utility.yul\":13117:13194   */\n      0x4e487b7100000000000000000000000000000000000000000000000000000000\n        /* \"#utility.yul\":13114:13115   */\n      0x00\n        /* \"#utility.yul\":13107:13195   */\n      mstore\n        /* \"#utility.yul\":13214:13218   */\n      0x41\n        /* \"#utility.yul\":13211:13212   */\n      0x04\n        /* \"#utility.yul\":13204:13219   */\n      mstore\n        /* \"#utility.yul\":13238:13242   */\n      0x24\n        /* \"#utility.yul\":13235:13236   */\n      0x00\n        /* \"#utility.yul\":13228:13243   */\n      revert\n        /* \"#utility.yul\":13255:13372   */\n    tag_131:\n        /* \"#utility.yul\":13364:13365   */\n      0x00\n        /* \"#utility.yul\":13361:13362   */\n      dup1\n        /* \"#utility.yul\":13354:13366   */\n      revert\n        /* \"#utility.yul\":13378:13495   */\n    tag_128:\n        /* \"#utility.yul\":13487:13488   */\n      0x00\n        /* \"#utility.yul\":13484:13485   */\n      dup1\n        /* \"#utility.yul\":13477:13489   */\n      revert\n        /* \"#utility.yul\":13501:13618   */\n    tag_134:\n        /* \"#utility.yul\":13610:13611   */\n      0x00\n        /* \"#utility.yul\":13607:13608   */\n      dup1\n        /* \"#utility.yul\":13600:13612   */\n      revert\n        /* \"#utility.yul\":13624:13741   */\n    tag_153:\n        /* \"#utility.yul\":13733:13734   */\n      0x00\n        /* \"#utility.yul\":13730:13731   */\n      dup1\n        /* \"#utility.yul\":13723:13735   */\n      revert\n        /* \"#utility.yul\":13747:13864   */\n    tag_138:\n        /* \"#utility.yul\":13856:13857   */\n      0x00\n        /* \"#utility.yul\":13853:13854   */\n      dup1\n        /* \"#utility.yul\":13846:13858   */\n      revert\n        /* \"#utility.yul\":13870:13972   */\n    tag_193:\n        /* \"#utility.yul\":13911:13917   */\n      0x00\n        /* \"#utility.yul\":13962:13964   */\n      0x1f\n        /* \"#utility.yul\":13958:13965   */\n      not\n        /* \"#utility.yul\":13953:13955   */\n      0x1f\n        /* \"#utility.yul\":13946:13951   */\n      dup4\n        /* \"#utility.yul\":13942:13956   */\n      add\n        /* \"#utility.yul\":13938:13966   */\n      and\n        /* \"#utility.yul\":13928:13966   */\n      swap1\n      pop\n        /* \"#utility.yul\":13870:13972   */\n      swap2\n      swap1\n      pop\n      jump\t// out\n        /* \"#utility.yul\":13978:14203   */\n    tag_203:\n        /* \"#utility.yul\":14118:14152   */\n      0x4f776e61626c653a206e6577206f776e657220697320746865207a65726f2061\n        /* \"#utility.yul\":14114:14115   */\n      0x00\n        /* \"#utility.yul\":14106:14112   */\n      dup3\n        /* \"#utility.yul\":14102:14116   */\n      add\n        /* \"#utility.yul\":14095:14153   */\n      mstore\n        /* \"#utility.yul\":14187:14195   */\n      0x6464726573730000000000000000000000000000000000000000000000000000\n        /* \"#utility.yul\":14182:14184   */\n      0x20\n        /* \"#utility.yul\":14174:14180   */\n      dup3\n        /* \"#utility.yul\":14170:14185   */\n      add\n        /* \"#utility.yul\":14163:14196   */\n      mstore\n        /* \"#utility.yul\":13978:14203   */\n      pop\n      jump\t// out\n        /* \"#utility.yul\":14209:14383   */\n    tag_208:\n        /* \"#utility.yul\":14349:14375   */\n      0x41697264726f7020616c72656164792072656465656d65640000000000000000\n        /* \"#utility.yul\":14345:14346   */\n      0x00\n        /* \"#utility.yul\":14337:14343   */\n      dup3\n        /* \"#utility.yul\":14333:14347   */\n      add\n        /* \"#utility.yul\":14326:14376   */\n      mstore\n        /* \"#utility.yul\":14209:14383   */\n      pop\n      jump\t// out\n        /* \"#utility.yul\":14389:14564   */\n    tag_213:\n        /* \"#utility.yul\":14529:14556   */\n      0x50726f6f6620766572696669636174696f6e206661696c656400000000000000\n        /* \"#utility.yul\":14525:14526   */\n      0x00\n        /* \"#utility.yul\":14517:14523   */\n      dup3\n        /* \"#utility.yul\":14513:14527   */\n      add\n        /* \"#utility.yul\":14506:14557   */\n      mstore\n        /* \"#utility.yul\":14389:14564   */\n      pop\n      jump\t// out\n        /* \"#utility.yul\":14570:14790   */\n    tag_218:\n        /* \"#utility.yul\":14710:14744   */\n      0x4e756c6c6966696572206973206e6f742077697468696e20746865206669656c\n        /* \"#utility.yul\":14706:14707   */\n      0x00\n        /* \"#utility.yul\":14698:14704   */\n      dup3\n        /* \"#utility.yul\":14694:14708   */\n      add\n        /* \"#utility.yul\":14687:14745   */\n      mstore\n        /* \"#utility.yul\":14779:14782   */\n      0x6400000000000000000000000000000000000000000000000000000000000000\n        /* \"#utility.yul\":14774:14776   */\n      0x20\n        /* \"#utility.yul\":14766:14772   */\n      dup3\n        /* \"#utility.yul\":14762:14777   */\n      add\n        /* \"#utility.yul\":14755:14783   */\n      mstore\n        /* \"#utility.yul\":14570:14790   */\n      pop\n      jump\t// out\n        /* \"#utility.yul\":14796:14978   */\n    tag_223:\n        /* \"#utility.yul\":14936:14970   */\n      0x4f776e61626c653a2063616c6c6572206973206e6f7420746865206f776e6572\n        /* \"#utility.yul\":14932:14933   */\n      0x00\n        /* \"#utility.yul\":14924:14930   */\n      dup3\n        /* \"#utility.yul\":14920:14934   */\n      add\n        /* \"#utility.yul\":14913:14971   */\n      mstore\n        /* \"#utility.yul\":14796:14978   */\n      pop\n      jump\t// out\n        /* \"#utility.yul\":14984:15106   */\n    tag_115:\n        /* \"#utility.yul\":15057:15081   */\n      tag_294\n        /* \"#utility.yul\":15075:15080   */\n      dup2\n        /* \"#utility.yul\":15057:15081   */\n      tag_163\n      jump\t// in\n    tag_294:\n        /* \"#utility.yul\":15050:15055   */\n      dup2\n        /* \"#utility.yul\":15047:15082   */\n      eq\n        /* \"#utility.yul\":15037:15100   */\n      tag_295\n      jumpi\n        /* \"#utility.yul\":15096:15097   */\n      0x00\n        /* \"#utility.yul\":15093:15094   */\n      dup1\n        /* \"#utility.yul\":15086:15098   */\n      revert\n        /* \"#utility.yul\":15037:15100   */\n    tag_295:\n        /* \"#utility.yul\":14984:15106   */\n      pop\n      jump\t// out\n        /* \"#utility.yul\":15112:15228   */\n    tag_119:\n        /* \"#utility.yul\":15182:15203   */\n      tag_297\n        /* \"#utility.yul\":15197:15202   */\n      dup2\n        /* \"#utility.yul\":15182:15203   */\n      tag_181\n      jump\t// in\n    tag_297:\n        /* \"#utility.yul\":15175:15180   */\n      dup2\n        /* \"#utility.yul\":15172:15204   */\n      eq\n        /* \"#utility.yul\":15162:15222   */\n      tag_298\n      jumpi\n        /* \"#utility.yul\":15218:15219   */\n      0x00\n        /* \"#utility.yul\":15215:15216   */\n      dup1\n        /* \"#utility.yul\":15208:15220   */\n      revert\n        /* \"#utility.yul\":15162:15222   */\n    tag_298:\n        /* \"#utility.yul\":15112:15228   */\n      pop\n      jump\t// out\n        /* \"#utility.yul\":15234:15356   */\n    tag_123:\n        /* \"#utility.yul\":15307:15331   */\n      tag_300\n        /* \"#utility.yul\":15325:15330   */\n      dup2\n        /* \"#utility.yul\":15307:15331   */\n      tag_185\n      jump\t// in\n    tag_300:\n        /* \"#utility.yul\":15300:15305   */\n      dup2\n        /* \"#utility.yul\":15297:15332   */\n      eq\n        /* \"#utility.yul\":15287:15350   */\n      tag_301\n      jumpi\n        /* \"#utility.yul\":15346:15347   */\n      0x00\n        /* \"#utility.yul\":15343:15344   */\n      dup1\n        /* \"#utility.yul\":15336:15348   */\n      revert\n        /* \"#utility.yul\":15287:15350   */\n    tag_301:\n        /* \"#utility.yul\":15234:15356   */\n      pop\n      jump\t// out\n\n    auxdata: 0xa26469706673582212209d4f7dfb65bcfff46e283ffa4e6f7cf718020102128beb2adf8be1f18a9a794864736f6c63430008070033\n}\n",
				"bytecode": {
					"linkReferences": {},
					"object": "60806040523480156200001157600080fd5b506040516200138938038062001389833981810160405281019062000037919062000219565b620000576200004b620000f160201b60201c565b620000f960201b60201c565b83600160006101000a81548173ffffffffffffffffffffffffffffffffffffffff021916908373ffffffffffffffffffffffffffffffffffffffff1602179055508260028190555081600360006101000a81548173ffffffffffffffffffffffffffffffffffffffff021916908373ffffffffffffffffffffffffffffffffffffffff160217905550806004819055505050505062000368565b600033905090565b60008060009054906101000a900473ffffffffffffffffffffffffffffffffffffffff169050816000806101000a81548173ffffffffffffffffffffffffffffffffffffffff021916908373ffffffffffffffffffffffffffffffffffffffff1602179055508173ffffffffffffffffffffffffffffffffffffffff168173ffffffffffffffffffffffffffffffffffffffff167f8be0079c531659141344cd1fd0a4f28419497f9722a3daafe3b4186f6b6457e060405160405180910390a35050565b600081519050620001ce8162000300565b92915050565b600081519050620001e5816200031a565b92915050565b600081519050620001fc8162000334565b92915050565b60008151905062000213816200034e565b92915050565b60008060008060808587031215620002365762000235620002fb565b5b60006200024687828801620001d4565b9450506020620002598782880162000202565b93505060406200026c87828801620001eb565b92505060606200027f87828801620001bd565b91505092959194509250565b60006200029882620002d1565b9050919050565b6000819050919050565b6000620002b6826200028b565b9050919050565b6000620002ca826200028b565b9050919050565b600073ffffffffffffffffffffffffffffffffffffffff82169050919050565b6000819050919050565b600080fd5b6200030b816200029f565b81146200031757600080fd5b50565b6200032581620002a9565b81146200033157600080fd5b50565b6200033f81620002bd565b81146200034b57600080fd5b50565b6200035981620002f1565b81146200036557600080fd5b50565b61101180620003786000396000f3fe608060405234801561001057600080fd5b50600436106100935760003560e01c8063715018a611610066578063715018a61461011e5780637f0d7159146101285780638da5cb5b14610146578063ebf0c71714610164578063f2fde38b1461018257610093565b8063213e0b171461009857806321ff9970146100b457806338c86911146100d05780634d06068a14610100575b600080fd5b6100b260048036038101906100ad919061096e565b61019e565b005b6100ce60048036038101906100c99190610941565b610505565b005b6100ea60048036038101906100e59190610941565b61058b565b6040516100f79190610bbe565b60405180910390f35b6101086105ab565b6040516101159190610c2d565b60405180910390f35b6101266105d1565b005b610130610659565b60405161013d9190610ce8565b60405180910390f35b61014e61065f565b60405161015b9190610b7a565b60405180910390f35b61016c610688565b6040516101799190610bd9565b60405180910390f35b61019c600480360381019061019791906108e7565b61068e565b005b7f30644e72e131a029b85045b68181585d2833e84879b9709143e1f593f00000018160001c10610203576040517f08c379a00000000000000000000000000000000000000000000000000000000081526004016101fa90610ca8565b60405180910390fd5b6005600082815260200190815260200160002060009054906101000a900460ff1615610264576040517f08c379a000000000000000000000000000000000000000000000000000000000815260040161025b90610c68565b60405180910390fd5b6000600367ffffffffffffffff81111561028157610280610e24565b5b6040519080825280602002602001820160405280156102af5781602001602082028036833780820191505090505b50905060045460001c816000815181106102cc576102cb610df5565b5b6020026020010181815250508160001c816001815181106102f0576102ef610df5565b5b6020026020010181815250503373ffffffffffffffffffffffffffffffffffffffff168160028151811061032757610326610df5565b5b602002602001018181525050600360009054906101000a900473ffffffffffffffffffffffffffffffffffffffff1673ffffffffffffffffffffffffffffffffffffffff16631e8e1e138585846040518463ffffffff1660e01b815260040161039293929190610bf4565b60206040518083038186803b1580156103aa57600080fd5b505afa1580156103be573d6000803e3d6000fd5b505050506040513d601f19601f820116820180604052508101906103e29190610914565b610421576040517f08c379a000000000000000000000000000000000000000000000000000000000815260040161041890610c88565b60405180910390fd5b60016005600084815260200190815260200160002060006101000a81548160ff021916908315150217905550600160009054906101000a900473ffffffffffffffffffffffffffffffffffffffff1673ffffffffffffffffffffffffffffffffffffffff1663a9059cbb336002546040518363ffffffff1660e01b81526004016104ac929190610b95565b602060405180830381600087803b1580156104c657600080fd5b505af11580156104da573d6000803e3d6000fd5b505050506040513d601f19601f820116820180604052508101906104fe9190610914565b5050505050565b61050d610786565b73ffffffffffffffffffffffffffffffffffffffff1661052b61065f565b73ffffffffffffffffffffffffffffffffffffffff1614610581576040517f08c379a000000000000000000000000000000000000000000000000000000000815260040161057890610cc8565b60405180910390fd5b8060048190555050565b60056020528060005260406000206000915054906101000a900460ff1681565b600160009054906101000a900473ffffffffffffffffffffffffffffffffffffffff1681565b6105d9610786565b73ffffffffffffffffffffffffffffffffffffffff166105f761065f565b73ffffffffffffffffffffffffffffffffffffffff161461064d576040517f08c379a000000000000000000000000000000000000000000000000000000000815260040161064490610cc8565b60405180910390fd5b610657600061078e565b565b60025481565b60008060009054906101000a900473ffffffffffffffffffffffffffffffffffffffff16905090565b60045481565b610696610786565b73ffffffffffffffffffffffffffffffffffffffff166106b461065f565b73ffffffffffffffffffffffffffffffffffffffff161461070a576040517f08c379a000000000000000000000000000000000000000000000000000000000815260040161070190610cc8565b60405180910390fd5b600073ffffffffffffffffffffffffffffffffffffffff168173ffffffffffffffffffffffffffffffffffffffff16141561077a576040517f08c379a000000000000000000000000000000000000000000000000000000000815260040161077190610c48565b60405180910390fd5b6107838161078e565b50565b600033905090565b60008060009054906101000a900473ffffffffffffffffffffffffffffffffffffffff169050816000806101000a81548173ffffffffffffffffffffffffffffffffffffffff021916908373ffffffffffffffffffffffffffffffffffffffff1602179055508173ffffffffffffffffffffffffffffffffffffffff168173ffffffffffffffffffffffffffffffffffffffff167f8be0079c531659141344cd1fd0a4f28419497f9722a3daafe3b4186f6b6457e060405160405180910390a35050565b60008135905061086181610f96565b92915050565b60008151905061087681610fad565b92915050565b60008135905061088b81610fc4565b92915050565b60008083601f8401126108a7576108a6610e58565b5b8235905067ffffffffffffffff8111156108c4576108c3610e53565b5b6020830191508360018202830111156108e0576108df610e5d565b5b9250929050565b6000602082840312156108fd576108fc610e67565b5b600061090b84828501610852565b91505092915050565b60006020828403121561092a57610929610e67565b5b600061093884828501610867565b91505092915050565b60006020828403121561095757610956610e67565b5b60006109658482850161087c565b91505092915050565b60008060006040848603121561098757610986610e67565b5b600084013567ffffffffffffffff8111156109a5576109a4610e62565b5b6109b186828701610891565b935093505060206109c48682870161087c565b9150509250925092565b60006109da8383610b5c565b60208301905092915050565b6109ef81610d5e565b82525050565b6000610a0082610d13565b610a0a8185610d2b565b9350610a1583610d03565b8060005b83811015610a46578151610a2d88826109ce565b9750610a3883610d1e565b925050600181019050610a19565b5085935050505092915050565b610a5c81610d70565b82525050565b610a6b81610d7c565b82525050565b6000610a7d8385610d3c565b9350610a8a838584610de6565b610a9383610e6c565b840190509392505050565b610aa781610db0565b82525050565b6000610aba602683610d4d565b9150610ac582610e7d565b604082019050919050565b6000610add601883610d4d565b9150610ae882610ecc565b602082019050919050565b6000610b00601983610d4d565b9150610b0b82610ef5565b602082019050919050565b6000610b23602183610d4d565b9150610b2e82610f1e565b604082019050919050565b6000610b46602083610d4d565b9150610b5182610f6d565b602082019050919050565b610b6581610da6565b82525050565b610b7481610da6565b82525050565b6000602082019050610b8f60008301846109e6565b92915050565b6000604082019050610baa60008301856109e6565b610bb76020830184610b6b565b9392505050565b6000602082019050610bd36000830184610a53565b92915050565b6000602082019050610bee6000830184610a62565b92915050565b60006040820190508181036000830152610c0f818587610a71565b90508181036020830152610c2381846109f5565b9050949350505050565b6000602082019050610c426000830184610a9e565b92915050565b60006020820190508181036000830152610c6181610aad565b9050919050565b60006020820190508181036000830152610c8181610ad0565b9050919050565b60006020820190508181036000830152610ca181610af3565b9050919050565b60006020820190508181036000830152610cc181610b16565b9050919050565b60006020820190508181036000830152610ce181610b39565b9050919050565b6000602082019050610cfd6000830184610b6b565b92915050565b6000819050602082019050919050565b600081519050919050565b6000602082019050919050565b600082825260208201905092915050565b600082825260208201905092915050565b600082825260208201905092915050565b6000610d6982610d86565b9050919050565b60008115159050919050565b6000819050919050565b600073ffffffffffffffffffffffffffffffffffffffff82169050919050565b6000819050919050565b6000610dbb82610dc2565b9050919050565b6000610dcd82610dd4565b9050919050565b6000610ddf82610d86565b9050919050565b82818337600083830152505050565b7f4e487b7100000000000000000000000000000000000000000000000000000000600052603260045260246000fd5b7f4e487b7100000000000000000000000000000000000000000000000000000000600052604160045260246000fd5b600080fd5b600080fd5b600080fd5b600080fd5b600080fd5b6000601f19601f8301169050919050565b7f4f776e61626c653a206e6577206f776e657220697320746865207a65726f206160008201527f6464726573730000000000000000000000000000000000000000000000000000602082015250565b7f41697264726f7020616c72656164792072656465656d65640000000000000000600082015250565b7f50726f6f6620766572696669636174696f6e206661696c656400000000000000600082015250565b7f4e756c6c6966696572206973206e6f742077697468696e20746865206669656c60008201527f6400000000000000000000000000000000000000000000000000000000000000602082015250565b7f4f776e61626c653a2063616c6c6572206973206e6f7420746865206f776e6572600082015250565b610f9f81610d5e565b8114610faa57600080fd5b50565b610fb681610d70565b8114610fc157600080fd5b50565b610fcd81610d7c565b8114610fd857600080fd5b5056fea26469706673582212209d4f7dfb65bcfff46e283ffa4e6f7cf718020102128beb2adf8be1f18a9a794864736f6c63430008070033",
					"opcodes": "PUSH1 0x80 PUSH1 0x40 MSTORE CALLVALUE DUP1 ISZERO PUSH3 0x11 JUMPI PUSH1 0x0 DUP1 REVERT JUMPDEST POP PUSH1 0x40 MLOAD PUSH3 0x1389 CODESIZE SUB DUP1 PUSH3 0x1389 DUP4 CODECOPY DUP2 DUP2 ADD PUSH1 0x40 MSTORE DUP2 ADD SWAP1 PUSH3 0x37 SWAP2 SWAP1 PUSH3 0x219 JUMP JUMPDEST PUSH3 0x57 PUSH3 0x4B PUSH3 0xF1 PUSH1 0x20 SHL PUSH1 0x20 SHR JUMP JUMPDEST PUSH3 0xF9 PUSH1 0x20 SHL PUSH1 0x20 SHR JUMP JUMPDEST DUP4 PUSH1 0x1 PUSH1 0x0 PUSH2 0x100 EXP DUP2 SLOAD DUP2 PUSH20 0xFFFFFFFFFFFFFFFFFFFFFFFFFFFFFFFFFFFFFFFF MUL NOT AND SWAP1 DUP4 PUSH20 0xFFFFFFFFFFFFFFFFFFFFFFFFFFFFFFFFFFFFFFFF AND MUL OR SWAP1 SSTORE POP DUP3 PUSH1 0x2 DUP2 SWAP1 SSTORE POP DUP2 PUSH1 0x3 PUSH1 0x0 PUSH2 0x100 EXP DUP2 SLOAD DUP2 PUSH20 0xFFFFFFFFFFFFFFFFFFFFFFFFFFFFFFFFFFFFFFFF MUL NOT AND SWAP1 DUP4 PUSH20 0xFFFFFFFFFFFFFFFFFFFFFFFFFFFFFFFFFFFFFFFF AND MUL OR SWAP1 SSTORE POP DUP1 PUSH1 0x4 DUP2 SWAP1 SSTORE POP POP POP POP POP PUSH3 0x368 JUMP JUMPDEST PUSH1 0x0 CALLER SWAP1 POP SWAP1 JUMP JUMPDEST PUSH1 0x0 DUP1 PUSH1 0x0 SWAP1 SLOAD SWAP1 PUSH2 0x100 EXP SWAP1 DIV PUSH20 0xFFFFFFFFFFFFFFFFFFFFFFFFFFFFFFFFFFFFFFFF AND SWAP1 POP DUP2 PUSH1 0x0 DUP1 PUSH2 0x100 EXP DUP2 SLOAD DUP2 PUSH20 0xFFFFFFFFFFFFFFFFFFFFFFFFFFFFFFFFFFFFFFFF MUL NOT AND SWAP1 DUP4 PUSH20 0xFFFFFFFFFFFFFFFFFFFFFFFFFFFFFFFFFFFFFFFF AND MUL OR SWAP1 SSTORE POP DUP2 PUSH20 0xFFFFFFFFFFFFFFFFFFFFFFFFFFFFFFFFFFFFFFFF AND DUP2 PUSH20 0xFFFFFFFFFFFFFFFFFFFFFFFFFFFFFFFFFFFFFFFF AND PUSH32 0x8BE0079C531659141344CD1FD0A4F28419497F9722A3DAAFE3B4186F6B6457E0 PUSH1 0x40 MLOAD PUSH1 0x40 MLOAD DUP1 SWAP2 SUB SWAP1 LOG3 POP POP JUMP JUMPDEST PUSH1 0x0 DUP2 MLOAD SWAP1 POP PUSH3 0x1CE DUP2 PUSH3 0x300 JUMP JUMPDEST SWAP3 SWAP2 POP POP JUMP JUMPDEST PUSH1 0x0 DUP2 MLOAD SWAP1 POP PUSH3 0x1E5 DUP2 PUSH3 0x31A JUMP JUMPDEST SWAP3 SWAP2 POP POP JUMP JUMPDEST PUSH1 0x0 DUP2 MLOAD SWAP1 POP PUSH3 0x1FC DUP2 PUSH3 0x334 JUMP JUMPDEST SWAP3 SWAP2 POP POP JUMP JUMPDEST PUSH1 0x0 DUP2 MLOAD SWAP1 POP PUSH3 0x213 DUP2 PUSH3 0x34E JUMP JUMPDEST SWAP3 SWAP2 POP POP JUMP JUMPDEST PUSH1 0x0 DUP1 PUSH1 0x0 DUP1 PUSH1 0x80 DUP6 DUP8 SUB SLT ISZERO PUSH3 0x236 JUMPI PUSH3 0x235 PUSH3 0x2FB JUMP JUMPDEST JUMPDEST PUSH1 0x0 PUSH3 0x246 DUP8 DUP3 DUP9 ADD PUSH3 0x1D4 JUMP JUMPDEST SWAP5 POP POP PUSH1 0x20 PUSH3 0x259 DUP8 DUP3 DUP9 ADD PUSH3 0x202 JUMP JUMPDEST SWAP4 POP POP PUSH1 0x40 PUSH3 0x26C DUP8 DUP3 DUP9 ADD PUSH3 0x1EB JUMP JUMPDEST SWAP3 POP POP PUSH1 0x60 PUSH3 0x27F DUP8 DUP3 DUP9 ADD PUSH3 0x1BD JUMP JUMPDEST SWAP2 POP POP SWAP3 SWAP6 SWAP2 SWAP5 POP SWAP3 POP JUMP JUMPDEST PUSH1 0x0 PUSH3 0x298 DUP3 PUSH3 0x2D1 JUMP JUMPDEST SWAP1 POP SWAP2 SWAP1 POP JUMP JUMPDEST PUSH1 0x0 DUP2 SWAP1 POP SWAP2 SWAP1 POP JUMP JUMPDEST PUSH1 0x0 PUSH3 0x2B6 DUP3 PUSH3 0x28B JUMP JUMPDEST SWAP1 POP SWAP2 SWAP1 POP JUMP JUMPDEST PUSH1 0x0 PUSH3 0x2CA DUP3 PUSH3 0x28B JUMP JUMPDEST SWAP1 POP SWAP2 SWAP1 POP JUMP JUMPDEST PUSH1 0x0 PUSH20 0xFFFFFFFFFFFFFFFFFFFFFFFFFFFFFFFFFFFFFFFF DUP3 AND SWAP1 POP SWAP2 SWAP1 POP JUMP JUMPDEST PUSH1 0x0 DUP2 SWAP1 POP SWAP2 SWAP1 POP JUMP JUMPDEST PUSH1 0x0 DUP1 REVERT JUMPDEST PUSH3 0x30B DUP2 PUSH3 0x29F JUMP JUMPDEST DUP2 EQ PUSH3 0x317 JUMPI PUSH1 0x0 DUP1 REVERT JUMPDEST POP JUMP JUMPDEST PUSH3 0x325 DUP2 PUSH3 0x2A9 JUMP JUMPDEST DUP2 EQ PUSH3 0x331 JUMPI PUSH1 0x0 DUP1 REVERT JUMPDEST POP JUMP JUMPDEST PUSH3 0x33F DUP2 PUSH3 0x2BD JUMP JUMPDEST DUP2 EQ PUSH3 0x34B JUMPI PUSH1 0x0 DUP1 REVERT JUMPDEST POP JUMP JUMPDEST PUSH3 0x359 DUP2 PUSH3 0x2F1 JUMP JUMPDEST DUP2 EQ PUSH3 0x365 JUMPI PUSH1 0x0 DUP1 REVERT JUMPDEST POP JUMP JUMPDEST PUSH2 0x1011 DUP1 PUSH3 0x378 PUSH1 0x0 CODECOPY PUSH1 0x0 RETURN INVALID PUSH1 0x80 PUSH1 0x40 MSTORE CALLVALUE DUP1 ISZERO PUSH2 0x10 JUMPI PUSH1 0x0 DUP1 REVERT JUMPDEST POP PUSH1 0x4 CALLDATASIZE LT PUSH2 0x93 JUMPI PUSH1 0x0 CALLDATALOAD PUSH1 0xE0 SHR DUP1 PUSH4 0x715018A6 GT PUSH2 0x66 JUMPI DUP1 PUSH4 0x715018A6 EQ PUSH2 0x11E JUMPI DUP1 PUSH4 0x7F0D7159 EQ PUSH2 0x128 JUMPI DUP1 PUSH4 0x8DA5CB5B EQ PUSH2 0x146 JUMPI DUP1 PUSH4 0xEBF0C717 EQ PUSH2 0x164 JUMPI DUP1 PUSH4 0xF2FDE38B EQ PUSH2 0x182 JUMPI PUSH2 0x93 JUMP JUMPDEST DUP1 PUSH4 0x213E0B17 EQ PUSH2 0x98 JUMPI DUP1 PUSH4 0x21FF9970 EQ PUSH2 0xB4 JUMPI DUP1 PUSH4 0x38C86911 EQ PUSH2 0xD0 JUMPI DUP1 PUSH4 0x4D06068A EQ PUSH2 0x100 JUMPI JUMPDEST PUSH1 0x0 DUP1 REVERT JUMPDEST PUSH2 0xB2 PUSH1 0x4 DUP1 CALLDATASIZE SUB DUP2 ADD SWAP1 PUSH2 0xAD SWAP2 SWAP1 PUSH2 0x96E JUMP JUMPDEST PUSH2 0x19E JUMP JUMPDEST STOP JUMPDEST PUSH2 0xCE PUSH1 0x4 DUP1 CALLDATASIZE SUB DUP2 ADD SWAP1 PUSH2 0xC9 SWAP2 SWAP1 PUSH2 0x941 JUMP JUMPDEST PUSH2 0x505 JUMP JUMPDEST STOP JUMPDEST PUSH2 0xEA PUSH1 0x4 DUP1 CALLDATASIZE SUB DUP2 ADD SWAP1 PUSH2 0xE5 SWAP2 SWAP1 PUSH2 0x941 JUMP JUMPDEST PUSH2 0x58B JUMP JUMPDEST PUSH1 0x40 MLOAD PUSH2 0xF7 SWAP2 SWAP1 PUSH2 0xBBE JUMP JUMPDEST PUSH1 0x40 MLOAD DUP1 SWAP2 SUB SWAP1 RETURN JUMPDEST PUSH2 0x108 PUSH2 0x5AB JUMP JUMPDEST PUSH1 0x40 MLOAD PUSH2 0x115 SWAP2 SWAP1 PUSH2 0xC2D JUMP JUMPDEST PUSH1 0x40 MLOAD DUP1 SWAP2 SUB SWAP1 RETURN JUMPDEST PUSH2 0x126 PUSH2 0x5D1 JUMP JUMPDEST STOP JUMPDEST PUSH2 0x130 PUSH2 0x659 JUMP JUMPDEST PUSH1 0x40 MLOAD PUSH2 0x13D SWAP2 SWAP1 PUSH2 0xCE8 JUMP JUMPDEST PUSH1 0x40 MLOAD DUP1 SWAP2 SUB SWAP1 RETURN JUMPDEST PUSH2 0x14E PUSH2 0x65F JUMP JUMPDEST PUSH1 0x40 MLOAD PUSH2 0x15B SWAP2 SWAP1 PUSH2 0xB7A JUMP JUMPDEST PUSH1 0x40 MLOAD DUP1 SWAP2 SUB SWAP1 RETURN JUMPDEST PUSH2 0x16C PUSH2 0x688 JUMP JUMPDEST PUSH1 0x40 MLOAD PUSH2 0x179 SWAP2 SWAP1 PUSH2 0xBD9 JUMP JUMPDEST PUSH1 0x40 MLOAD DUP1 SWAP2 SUB SWAP1 RETURN JUMPDEST PUSH2 0x19C PUSH1 0x4 DUP1 CALLDATASIZE SUB DUP2 ADD SWAP1 PUSH2 0x197 SWAP2 SWAP1 PUSH2 0x8E7 JUMP JUMPDEST PUSH2 0x68E JUMP JUMPDEST STOP JUMPDEST PUSH32 0x30644E72E131A029B85045B68181585D2833E84879B9709143E1F593F0000001 DUP2 PUSH1 0x0 SHR LT PUSH2 0x203 JUMPI PUSH1 0x40 MLOAD PUSH32 0x8C379A000000000000000000000000000000000000000000000000000000000 DUP2 MSTORE PUSH1 0x4 ADD PUSH2 0x1FA SWAP1 PUSH2 0xCA8 JUMP JUMPDEST PUSH1 0x40 MLOAD DUP1 SWAP2 SUB SWAP1 REVERT JUMPDEST PUSH1 0x5 PUSH1 0x0 DUP3 DUP2 MSTORE PUSH1 0x20 ADD SWAP1 DUP2 MSTORE PUSH1 0x20 ADD PUSH1 0x0 KECCAK256 PUSH1 0x0 SWAP1 SLOAD SWAP1 PUSH2 0x100 EXP SWAP1 DIV PUSH1 0xFF AND ISZERO PUSH2 0x264 JUMPI PUSH1 0x40 MLOAD PUSH32 0x8C379A000000000000000000000000000000000000000000000000000000000 DUP2 MSTORE PUSH1 0x4 ADD PUSH2 0x25B SWAP1 PUSH2 0xC68 JUMP JUMPDEST PUSH1 0x40 MLOAD DUP1 SWAP2 SUB SWAP1 REVERT JUMPDEST PUSH1 0x0 PUSH1 0x3 PUSH8 0xFFFFFFFFFFFFFFFF DUP2 GT ISZERO PUSH2 0x281 JUMPI PUSH2 0x280 PUSH2 0xE24 JUMP JUMPDEST JUMPDEST PUSH1 0x40 MLOAD SWAP1 DUP1 DUP3 MSTORE DUP1 PUSH1 0x20 MUL PUSH1 0x20 ADD DUP3 ADD PUSH1 0x40 MSTORE DUP1 ISZERO PUSH2 0x2AF JUMPI DUP2 PUSH1 0x20 ADD PUSH1 0x20 DUP3 MUL DUP1 CALLDATASIZE DUP4 CALLDATACOPY DUP1 DUP3 ADD SWAP2 POP POP SWAP1 POP JUMPDEST POP SWAP1 POP PUSH1 0x4 SLOAD PUSH1 0x0 SHR DUP2 PUSH1 0x0 DUP2 MLOAD DUP2 LT PUSH2 0x2CC JUMPI PUSH2 0x2CB PUSH2 0xDF5 JUMP JUMPDEST JUMPDEST PUSH1 0x20 MUL PUSH1 0x20 ADD ADD DUP2 DUP2 MSTORE POP POP DUP2 PUSH1 0x0 SHR DUP2 PUSH1 0x1 DUP2 MLOAD DUP2 LT PUSH2 0x2F0 JUMPI PUSH2 0x2EF PUSH2 0xDF5 JUMP JUMPDEST JUMPDEST PUSH1 0x20 MUL PUSH1 0x20 ADD ADD DUP2 DUP2 MSTORE POP POP CALLER PUSH20 0xFFFFFFFFFFFFFFFFFFFFFFFFFFFFFFFFFFFFFFFF AND DUP2 PUSH1 0x2 DUP2 MLOAD DUP2 LT PUSH2 0x327 JUMPI PUSH2 0x326 PUSH2 0xDF5 JUMP JUMPDEST JUMPDEST PUSH1 0x20 MUL PUSH1 0x20 ADD ADD DUP2 DUP2 MSTORE POP POP PUSH1 0x3 PUSH1 0x0 SWAP1 SLOAD SWAP1 PUSH2 0x100 EXP SWAP1 DIV PUSH20 0xFFFFFFFFFFFFFFFFFFFFFFFFFFFFFFFFFFFFFFFF AND PUSH20 0xFFFFFFFFFFFFFFFFFFFFFFFFFFFFFFFFFFFFFFFF AND PUSH4 0x1E8E1E13 DUP6 DUP6 DUP5 PUSH1 0x40 MLOAD DUP5 PUSH4 0xFFFFFFFF AND PUSH1 0xE0 SHL DUP2 MSTORE PUSH1 0x4 ADD PUSH2 0x392 SWAP4 SWAP3 SWAP2 SWAP1 PUSH2 0xBF4 JUMP JUMPDEST PUSH1 0x20 PUSH1 0x40 MLOAD DUP1 DUP4 SUB DUP2 DUP7 DUP1 EXTCODESIZE ISZERO DUP1 ISZERO PUSH2 0x3AA JUMPI PUSH1 0x0 DUP1 REVERT JUMPDEST POP GAS STATICCALL ISZERO DUP1 ISZERO PUSH2 0x3BE JUMPI RETURNDATASIZE PUSH1 0x0 DUP1 RETURNDATACOPY RETURNDATASIZE PUSH1 0x0 REVERT JUMPDEST POP POP POP POP PUSH1 0x40 MLOAD RETURNDATASIZE PUSH1 0x1F NOT PUSH1 0x1F DUP3 ADD AND DUP3 ADD DUP1 PUSH1 0x40 MSTORE POP DUP2 ADD SWAP1 PUSH2 0x3E2 SWAP2 SWAP1 PUSH2 0x914 JUMP JUMPDEST PUSH2 0x421 JUMPI PUSH1 0x40 MLOAD PUSH32 0x8C379A000000000000000000000000000000000000000000000000000000000 DUP2 MSTORE PUSH1 0x4 ADD PUSH2 0x418 SWAP1 PUSH2 0xC88 JUMP JUMPDEST PUSH1 0x40 MLOAD DUP1 SWAP2 SUB SWAP1 REVERT JUMPDEST PUSH1 0x1 PUSH1 0x5 PUSH1 0x0 DUP5 DUP2 MSTORE PUSH1 0x20 ADD SWAP1 DUP2 MSTORE PUSH1 0x20 ADD PUSH1 0x0 KECCAK256 PUSH1 0x0 PUSH2 0x100 EXP DUP2 SLOAD DUP2 PUSH1 0xFF MUL NOT AND SWAP1 DUP4 ISZERO ISZERO MUL OR SWAP1 SSTORE POP PUSH1 0x1 PUSH1 0x0 SWAP1 SLOAD SWAP1 PUSH2 0x100 EXP SWAP1 DIV PUSH20 0xFFFFFFFFFFFFFFFFFFFFFFFFFFFFFFFFFFFFFFFF AND PUSH20 0xFFFFFFFFFFFFFFFFFFFFFFFFFFFFFFFFFFFFFFFF AND PUSH4 0xA9059CBB CALLER PUSH1 0x2 SLOAD PUSH1 0x40 MLOAD DUP4 PUSH4 0xFFFFFFFF AND PUSH1 0xE0 SHL DUP2 MSTORE PUSH1 0x4 ADD PUSH2 0x4AC SWAP3 SWAP2 SWAP1 PUSH2 0xB95 JUMP JUMPDEST PUSH1 0x20 PUSH1 0x40 MLOAD DUP1 DUP4 SUB DUP2 PUSH1 0x0 DUP8 DUP1 EXTCODESIZE ISZERO DUP1 ISZERO PUSH2 0x4C6 JUMPI PUSH1 0x0 DUP1 REVERT JUMPDEST POP GAS CALL ISZERO DUP1 ISZERO PUSH2 0x4DA JUMPI RETURNDATASIZE PUSH1 0x0 DUP1 RETURNDATACOPY RETURNDATASIZE PUSH1 0x0 REVERT JUMPDEST POP POP POP POP PUSH1 0x40 MLOAD RETURNDATASIZE PUSH1 0x1F NOT PUSH1 0x1F DUP3 ADD AND DUP3 ADD DUP1 PUSH1 0x40 MSTORE POP DUP2 ADD SWAP1 PUSH2 0x4FE SWAP2 SWAP1 PUSH2 0x914 JUMP JUMPDEST POP POP POP POP POP JUMP JUMPDEST PUSH2 0x50D PUSH2 0x786 JUMP JUMPDEST PUSH20 0xFFFFFFFFFFFFFFFFFFFFFFFFFFFFFFFFFFFFFFFF AND PUSH2 0x52B PUSH2 0x65F JUMP JUMPDEST PUSH20 0xFFFFFFFFFFFFFFFFFFFFFFFFFFFFFFFFFFFFFFFF AND EQ PUSH2 0x581 JUMPI PUSH1 0x40 MLOAD PUSH32 0x8C379A000000000000000000000000000000000000000000000000000000000 DUP2 MSTORE PUSH1 0x4 ADD PUSH2 0x578 SWAP1 PUSH2 0xCC8 JUMP JUMPDEST PUSH1 0x40 MLOAD DUP1 SWAP2 SUB SWAP1 REVERT JUMPDEST DUP1 PUSH1 0x4 DUP2 SWAP1 SSTORE POP POP JUMP JUMPDEST PUSH1 0x5 PUSH1 0x20 MSTORE DUP1 PUSH1 0x0 MSTORE PUSH1 0x40 PUSH1 0x0 KECCAK256 PUSH1 0x0 SWAP2 POP SLOAD SWAP1 PUSH2 0x100 EXP SWAP1 DIV PUSH1 0xFF AND DUP2 JUMP JUMPDEST PUSH1 0x1 PUSH1 0x0 SWAP1 SLOAD SWAP1 PUSH2 0x100 EXP SWAP1 DIV PUSH20 0xFFFFFFFFFFFFFFFFFFFFFFFFFFFFFFFFFFFFFFFF AND DUP2 JUMP JUMPDEST PUSH2 0x5D9 PUSH2 0x786 JUMP JUMPDEST PUSH20 0xFFFFFFFFFFFFFFFFFFFFFFFFFFFFFFFFFFFFFFFF AND PUSH2 0x5F7 PUSH2 0x65F JUMP JUMPDEST PUSH20 0xFFFFFFFFFFFFFFFFFFFFFFFFFFFFFFFFFFFFFFFF AND EQ PUSH2 0x64D JUMPI PUSH1 0x40 MLOAD PUSH32 0x8C379A000000000000000000000000000000000000000000000000000000000 DUP2 MSTORE PUSH1 0x4 ADD PUSH2 0x644 SWAP1 PUSH2 0xCC8 JUMP JUMPDEST PUSH1 0x40 MLOAD DUP1 SWAP2 SUB SWAP1 REVERT JUMPDEST PUSH2 0x657 PUSH1 0x0 PUSH2 0x78E JUMP JUMPDEST JUMP JUMPDEST PUSH1 0x2 SLOAD DUP2 JUMP JUMPDEST PUSH1 0x0 DUP1 PUSH1 0x0 SWAP1 SLOAD SWAP1 PUSH2 0x100 EXP SWAP1 DIV PUSH20 0xFFFFFFFFFFFFFFFFFFFFFFFFFFFFFFFFFFFFFFFF AND SWAP1 POP SWAP1 JUMP JUMPDEST PUSH1 0x4 SLOAD DUP2 JUMP JUMPDEST PUSH2 0x696 PUSH2 0x786 JUMP JUMPDEST PUSH20 0xFFFFFFFFFFFFFFFFFFFFFFFFFFFFFFFFFFFFFFFF AND PUSH2 0x6B4 PUSH2 0x65F JUMP JUMPDEST PUSH20 0xFFFFFFFFFFFFFFFFFFFFFFFFFFFFFFFFFFFFFFFF AND EQ PUSH2 0x70A JUMPI PUSH1 0x40 MLOAD PUSH32 0x8C379A000000000000000000000000000000000000000000000000000000000 DUP2 MSTORE PUSH1 0x4 ADD PUSH2 0x701 SWAP1 PUSH2 0xCC8 JUMP JUMPDEST PUSH1 0x40 MLOAD DUP1 SWAP2 SUB SWAP1 REVERT JUMPDEST PUSH1 0x0 PUSH20 0xFFFFFFFFFFFFFFFFFFFFFFFFFFFFFFFFFFFFFFFF AND DUP2 PUSH20 0xFFFFFFFFFFFFFFFFFFFFFFFFFFFFFFFFFFFFFFFF AND EQ ISZERO PUSH2 0x77A JUMPI PUSH1 0x40 MLOAD PUSH32 0x8C379A000000000000000000000000000000000000000000000000000000000 DUP2 MSTORE PUSH1 0x4 ADD PUSH2 0x771 SWAP1 PUSH2 0xC48 JUMP JUMPDEST PUSH1 0x40 MLOAD DUP1 SWAP2 SUB SWAP1 REVERT JUMPDEST PUSH2 0x783 DUP2 PUSH2 0x78E JUMP JUMPDEST POP JUMP JUMPDEST PUSH1 0x0 CALLER SWAP1 POP SWAP1 JUMP JUMPDEST PUSH1 0x0 DUP1 PUSH1 0x0 SWAP1 SLOAD SWAP1 PUSH2 0x100 EXP SWAP1 DIV PUSH20 0xFFFFFFFFFFFFFFFFFFFFFFFFFFFFFFFFFFFFFFFF AND SWAP1 POP DUP2 PUSH1 0x0 DUP1 PUSH2 0x100 EXP DUP2 SLOAD DUP2 PUSH20 0xFFFFFFFFFFFFFFFFFFFFFFFFFFFFFFFFFFFFFFFF MUL NOT AND SWAP1 DUP4 PUSH20 0xFFFFFFFFFFFFFFFFFFFFFFFFFFFFFFFFFFFFFFFF AND MUL OR SWAP1 SSTORE POP DUP2 PUSH20 0xFFFFFFFFFFFFFFFFFFFFFFFFFFFFFFFFFFFFFFFF AND DUP2 PUSH20 0xFFFFFFFFFFFFFFFFFFFFFFFFFFFFFFFFFFFFFFFF AND PUSH32 0x8BE0079C531659141344CD1FD0A4F28419497F9722A3DAAFE3B4186F6B6457E0 PUSH1 0x40 MLOAD PUSH1 0x40 MLOAD DUP1 SWAP2 SUB SWAP1 LOG3 POP POP JUMP JUMPDEST PUSH1 0x0 DUP2 CALLDATALOAD SWAP1 POP PUSH2 0x861 DUP2 PUSH2 0xF96 JUMP JUMPDEST SWAP3 SWAP2 POP POP JUMP JUMPDEST PUSH1 0x0 DUP2 MLOAD SWAP1 POP PUSH2 0x876 DUP2 PUSH2 0xFAD JUMP JUMPDEST SWAP3 SWAP2 POP POP JUMP JUMPDEST PUSH1 0x0 DUP2 CALLDATALOAD SWAP1 POP PUSH2 0x88B DUP2 PUSH2 0xFC4 JUMP JUMPDEST SWAP3 SWAP2 POP POP JUMP JUMPDEST PUSH1 0x0 DUP1 DUP4 PUSH1 0x1F DUP5 ADD SLT PUSH2 0x8A7 JUMPI PUSH2 0x8A6 PUSH2 0xE58 JUMP JUMPDEST JUMPDEST DUP3 CALLDATALOAD SWAP1 POP PUSH8 0xFFFFFFFFFFFFFFFF DUP2 GT ISZERO PUSH2 0x8C4 JUMPI PUSH2 0x8C3 PUSH2 0xE53 JUMP JUMPDEST JUMPDEST PUSH1 0x20 DUP4 ADD SWAP2 POP DUP4 PUSH1 0x1 DUP3 MUL DUP4 ADD GT ISZERO PUSH2 0x8E0 JUMPI PUSH2 0x8DF PUSH2 0xE5D JUMP JUMPDEST JUMPDEST SWAP3 POP SWAP3 SWAP1 POP JUMP JUMPDEST PUSH1 0x0 PUSH1 0x20 DUP3 DUP5 SUB SLT ISZERO PUSH2 0x8FD JUMPI PUSH2 0x8FC PUSH2 0xE67 JUMP JUMPDEST JUMPDEST PUSH1 0x0 PUSH2 0x90B DUP5 DUP3 DUP6 ADD PUSH2 0x852 JUMP JUMPDEST SWAP2 POP POP SWAP3 SWAP2 POP POP JUMP JUMPDEST PUSH1 0x0 PUSH1 0x20 DUP3 DUP5 SUB SLT ISZERO PUSH2 0x92A JUMPI PUSH2 0x929 PUSH2 0xE67 JUMP JUMPDEST JUMPDEST PUSH1 0x0 PUSH2 0x938 DUP5 DUP3 DUP6 ADD PUSH2 0x867 JUMP JUMPDEST SWAP2 POP POP SWAP3 SWAP2 POP POP JUMP JUMPDEST PUSH1 0x0 PUSH1 0x20 DUP3 DUP5 SUB SLT ISZERO PUSH2 0x957 JUMPI PUSH2 0x956 PUSH2 0xE67 JUMP JUMPDEST JUMPDEST PUSH1 0x0 PUSH2 0x965 DUP5 DUP3 DUP6 ADD PUSH2 0x87C JUMP JUMPDEST SWAP2 POP POP SWAP3 SWAP2 POP POP JUMP JUMPDEST PUSH1 0x0 DUP1 PUSH1 0x0 PUSH1 0x40 DUP5 DUP7 SUB SLT ISZERO PUSH2 0x987 JUMPI PUSH2 0x986 PUSH2 0xE67 JUMP JUMPDEST JUMPDEST PUSH1 0x0 DUP5 ADD CALLDATALOAD PUSH8 0xFFFFFFFFFFFFFFFF DUP2 GT ISZERO PUSH2 0x9A5 JUMPI PUSH2 0x9A4 PUSH2 0xE62 JUMP JUMPDEST JUMPDEST PUSH2 0x9B1 DUP7 DUP3 DUP8 ADD PUSH2 0x891 JUMP JUMPDEST SWAP4 POP SWAP4 POP POP PUSH1 0x20 PUSH2 0x9C4 DUP7 DUP3 DUP8 ADD PUSH2 0x87C JUMP JUMPDEST SWAP2 POP POP SWAP3 POP SWAP3 POP SWAP3 JUMP JUMPDEST PUSH1 0x0 PUSH2 0x9DA DUP4 DUP4 PUSH2 0xB5C JUMP JUMPDEST PUSH1 0x20 DUP4 ADD SWAP1 POP SWAP3 SWAP2 POP POP JUMP JUMPDEST PUSH2 0x9EF DUP2 PUSH2 0xD5E JUMP JUMPDEST DUP3 MSTORE POP POP JUMP JUMPDEST PUSH1 0x0 PUSH2 0xA00 DUP3 PUSH2 0xD13 JUMP JUMPDEST PUSH2 0xA0A DUP2 DUP6 PUSH2 0xD2B JUMP JUMPDEST SWAP4 POP PUSH2 0xA15 DUP4 PUSH2 0xD03 JUMP JUMPDEST DUP1 PUSH1 0x0 JUMPDEST DUP4 DUP2 LT ISZERO PUSH2 0xA46 JUMPI DUP2 MLOAD PUSH2 0xA2D DUP9 DUP3 PUSH2 0x9CE JUMP JUMPDEST SWAP8 POP PUSH2 0xA38 DUP4 PUSH2 0xD1E JUMP JUMPDEST SWAP3 POP POP PUSH1 0x1 DUP2 ADD SWAP1 POP PUSH2 0xA19 JUMP JUMPDEST POP DUP6 SWAP4 POP POP POP POP SWAP3 SWAP2 POP POP JUMP JUMPDEST PUSH2 0xA5C DUP2 PUSH2 0xD70 JUMP JUMPDEST DUP3 MSTORE POP POP JUMP JUMPDEST PUSH2 0xA6B DUP2 PUSH2 0xD7C JUMP JUMPDEST DUP3 MSTORE POP POP JUMP JUMPDEST PUSH1 0x0 PUSH2 0xA7D DUP4 DUP6 PUSH2 0xD3C JUMP JUMPDEST SWAP4 POP PUSH2 0xA8A DUP4 DUP6 DUP5 PUSH2 0xDE6 JUMP JUMPDEST PUSH2 0xA93 DUP4 PUSH2 0xE6C JUMP JUMPDEST DUP5 ADD SWAP1 POP SWAP4 SWAP3 POP POP POP JUMP JUMPDEST PUSH2 0xAA7 DUP2 PUSH2 0xDB0 JUMP JUMPDEST DUP3 MSTORE POP POP JUMP JUMPDEST PUSH1 0x0 PUSH2 0xABA PUSH1 0x26 DUP4 PUSH2 0xD4D JUMP JUMPDEST SWAP2 POP PUSH2 0xAC5 DUP3 PUSH2 0xE7D JUMP JUMPDEST PUSH1 0x40 DUP3 ADD SWAP1 POP SWAP2 SWAP1 POP JUMP JUMPDEST PUSH1 0x0 PUSH2 0xADD PUSH1 0x18 DUP4 PUSH2 0xD4D JUMP JUMPDEST SWAP2 POP PUSH2 0xAE8 DUP3 PUSH2 0xECC JUMP JUMPDEST PUSH1 0x20 DUP3 ADD SWAP1 POP SWAP2 SWAP1 POP JUMP JUMPDEST PUSH1 0x0 PUSH2 0xB00 PUSH1 0x19 DUP4 PUSH2 0xD4D JUMP JUMPDEST SWAP2 POP PUSH2 0xB0B DUP3 PUSH2 0xEF5 JUMP JUMPDEST PUSH1 0x20 DUP3 ADD SWAP1 POP SWAP2 SWAP1 POP JUMP JUMPDEST PUSH1 0x0 PUSH2 0xB23 PUSH1 0x21 DUP4 PUSH2 0xD4D JUMP JUMPDEST SWAP2 POP PUSH2 0xB2E DUP3 PUSH2 0xF1E JUMP JUMPDEST PUSH1 0x40 DUP3 ADD SWAP1 POP SWAP2 SWAP1 POP JUMP JUMPDEST PUSH1 0x0 PUSH2 0xB46 PUSH1 0x20 DUP4 PUSH2 0xD4D JUMP JUMPDEST SWAP2 POP PUSH2 0xB51 DUP3 PUSH2 0xF6D JUMP JUMPDEST PUSH1 0x20 DUP3 ADD SWAP1 POP SWAP2 SWAP1 POP JUMP JUMPDEST PUSH2 0xB65 DUP2 PUSH2 0xDA6 JUMP JUMPDEST DUP3 MSTORE POP POP JUMP JUMPDEST PUSH2 0xB74 DUP2 PUSH2 0xDA6 JUMP JUMPDEST DUP3 MSTORE POP POP JUMP JUMPDEST PUSH1 0x0 PUSH1 0x20 DUP3 ADD SWAP1 POP PUSH2 0xB8F PUSH1 0x0 DUP4 ADD DUP5 PUSH2 0x9E6 JUMP JUMPDEST SWAP3 SWAP2 POP POP JUMP JUMPDEST PUSH1 0x0 PUSH1 0x40 DUP3 ADD SWAP1 POP PUSH2 0xBAA PUSH1 0x0 DUP4 ADD DUP6 PUSH2 0x9E6 JUMP JUMPDEST PUSH2 0xBB7 PUSH1 0x20 DUP4 ADD DUP5 PUSH2 0xB6B JUMP JUMPDEST SWAP4 SWAP3 POP POP POP JUMP JUMPDEST PUSH1 0x0 PUSH1 0x20 DUP3 ADD SWAP1 POP PUSH2 0xBD3 PUSH1 0x0 DUP4 ADD DUP5 PUSH2 0xA53 JUMP JUMPDEST SWAP3 SWAP2 POP POP JUMP JUMPDEST PUSH1 0x0 PUSH1 0x20 DUP3 ADD SWAP1 POP PUSH2 0xBEE PUSH1 0x0 DUP4 ADD DUP5 PUSH2 0xA62 JUMP JUMPDEST SWAP3 SWAP2 POP POP JUMP JUMPDEST PUSH1 0x0 PUSH1 0x40 DUP3 ADD SWAP1 POP DUP2 DUP2 SUB PUSH1 0x0 DUP4 ADD MSTORE PUSH2 0xC0F DUP2 DUP6 DUP8 PUSH2 0xA71 JUMP JUMPDEST SWAP1 POP DUP2 DUP2 SUB PUSH1 0x20 DUP4 ADD MSTORE PUSH2 0xC23 DUP2 DUP5 PUSH2 0x9F5 JUMP JUMPDEST SWAP1 POP SWAP5 SWAP4 POP POP POP POP JUMP JUMPDEST PUSH1 0x0 PUSH1 0x20 DUP3 ADD SWAP1 POP PUSH2 0xC42 PUSH1 0x0 DUP4 ADD DUP5 PUSH2 0xA9E JUMP JUMPDEST SWAP3 SWAP2 POP POP JUMP JUMPDEST PUSH1 0x0 PUSH1 0x20 DUP3 ADD SWAP1 POP DUP2 DUP2 SUB PUSH1 0x0 DUP4 ADD MSTORE PUSH2 0xC61 DUP2 PUSH2 0xAAD JUMP JUMPDEST SWAP1 POP SWAP2 SWAP1 POP JUMP JUMPDEST PUSH1 0x0 PUSH1 0x20 DUP3 ADD SWAP1 POP DUP2 DUP2 SUB PUSH1 0x0 DUP4 ADD MSTORE PUSH2 0xC81 DUP2 PUSH2 0xAD0 JUMP JUMPDEST SWAP1 POP SWAP2 SWAP1 POP JUMP JUMPDEST PUSH1 0x0 PUSH1 0x20 DUP3 ADD SWAP1 POP DUP2 DUP2 SUB PUSH1 0x0 DUP4 ADD MSTORE PUSH2 0xCA1 DUP2 PUSH2 0xAF3 JUMP JUMPDEST SWAP1 POP SWAP2 SWAP1 POP JUMP JUMPDEST PUSH1 0x0 PUSH1 0x20 DUP3 ADD SWAP1 POP DUP2 DUP2 SUB PUSH1 0x0 DUP4 ADD MSTORE PUSH2 0xCC1 DUP2 PUSH2 0xB16 JUMP JUMPDEST SWAP1 POP SWAP2 SWAP1 POP JUMP JUMPDEST PUSH1 0x0 PUSH1 0x20 DUP3 ADD SWAP1 POP DUP2 DUP2 SUB PUSH1 0x0 DUP4 ADD MSTORE PUSH2 0xCE1 DUP2 PUSH2 0xB39 JUMP JUMPDEST SWAP1 POP SWAP2 SWAP1 POP JUMP JUMPDEST PUSH1 0x0 PUSH1 0x20 DUP3 ADD SWAP1 POP PUSH2 0xCFD PUSH1 0x0 DUP4 ADD DUP5 PUSH2 0xB6B JUMP JUMPDEST SWAP3 SWAP2 POP POP JUMP JUMPDEST PUSH1 0x0 DUP2 SWAP1 POP PUSH1 0x20 DUP3 ADD SWAP1 POP SWAP2 SWAP1 POP JUMP JUMPDEST PUSH1 0x0 DUP2 MLOAD SWAP1 POP SWAP2 SWAP1 POP JUMP JUMPDEST PUSH1 0x0 PUSH1 0x20 DUP3 ADD SWAP1 POP SWAP2 SWAP1 POP JUMP JUMPDEST PUSH1 0x0 DUP3 DUP3 MSTORE PUSH1 0x20 DUP3 ADD SWAP1 POP SWAP3 SWAP2 POP POP JUMP JUMPDEST PUSH1 0x0 DUP3 DUP3 MSTORE PUSH1 0x20 DUP3 ADD SWAP1 POP SWAP3 SWAP2 POP POP JUMP JUMPDEST PUSH1 0x0 DUP3 DUP3 MSTORE PUSH1 0x20 DUP3 ADD SWAP1 POP SWAP3 SWAP2 POP POP JUMP JUMPDEST PUSH1 0x0 PUSH2 0xD69 DUP3 PUSH2 0xD86 JUMP JUMPDEST SWAP1 POP SWAP2 SWAP1 POP JUMP JUMPDEST PUSH1 0x0 DUP2 ISZERO ISZERO SWAP1 POP SWAP2 SWAP1 POP JUMP JUMPDEST PUSH1 0x0 DUP2 SWAP1 POP SWAP2 SWAP1 POP JUMP JUMPDEST PUSH1 0x0 PUSH20 0xFFFFFFFFFFFFFFFFFFFFFFFFFFFFFFFFFFFFFFFF DUP3 AND SWAP1 POP SWAP2 SWAP1 POP JUMP JUMPDEST PUSH1 0x0 DUP2 SWAP1 POP SWAP2 SWAP1 POP JUMP JUMPDEST PUSH1 0x0 PUSH2 0xDBB DUP3 PUSH2 0xDC2 JUMP JUMPDEST SWAP1 POP SWAP2 SWAP1 POP JUMP JUMPDEST PUSH1 0x0 PUSH2 0xDCD DUP3 PUSH2 0xDD4 JUMP JUMPDEST SWAP1 POP SWAP2 SWAP1 POP JUMP JUMPDEST PUSH1 0x0 PUSH2 0xDDF DUP3 PUSH2 0xD86 JUMP JUMPDEST SWAP1 POP SWAP2 SWAP1 POP JUMP JUMPDEST DUP3 DUP2 DUP4 CALLDATACOPY PUSH1 0x0 DUP4 DUP4 ADD MSTORE POP POP POP JUMP JUMPDEST PUSH32 0x4E487B7100000000000000000000000000000000000000000000000000000000 PUSH1 0x0 MSTORE PUSH1 0x32 PUSH1 0x4 MSTORE PUSH1 0x24 PUSH1 0x0 REVERT JUMPDEST PUSH32 0x4E487B7100000000000000000000000000000000000000000000000000000000 PUSH1 0x0 MSTORE PUSH1 0x41 PUSH1 0x4 MSTORE PUSH1 0x24 PUSH1 0x0 REVERT JUMPDEST PUSH1 0x0 DUP1 REVERT JUMPDEST PUSH1 0x0 DUP1 REVERT JUMPDEST PUSH1 0x0 DUP1 REVERT JUMPDEST PUSH1 0x0 DUP1 REVERT JUMPDEST PUSH1 0x0 DUP1 REVERT JUMPDEST PUSH1 0x0 PUSH1 0x1F NOT PUSH1 0x1F DUP4 ADD AND SWAP1 POP SWAP2 SWAP1 POP JUMP JUMPDEST PUSH32 0x4F776E61626C653A206E6577206F776E657220697320746865207A65726F2061 PUSH1 0x0 DUP3 ADD MSTORE PUSH32 0x6464726573730000000000000000000000000000000000000000000000000000 PUSH1 0x20 DUP3 ADD MSTORE POP JUMP JUMPDEST PUSH32 0x41697264726F7020616C72656164792072656465656D65640000000000000000 PUSH1 0x0 DUP3 ADD MSTORE POP JUMP JUMPDEST PUSH32 0x50726F6F6620766572696669636174696F6E206661696C656400000000000000 PUSH1 0x0 DUP3 ADD MSTORE POP JUMP JUMPDEST PUSH32 0x4E756C6C6966696572206973206E6F742077697468696E20746865206669656C PUSH1 0x0 DUP3 ADD MSTORE PUSH32 0x6400000000000000000000000000000000000000000000000000000000000000 PUSH1 0x20 DUP3 ADD MSTORE POP JUMP JUMPDEST PUSH32 0x4F776E61626C653A2063616C6C6572206973206E6F7420746865206F776E6572 PUSH1 0x0 DUP3 ADD MSTORE POP JUMP JUMPDEST PUSH2 0xF9F DUP2 PUSH2 0xD5E JUMP JUMPDEST DUP2 EQ PUSH2 0xFAA JUMPI PUSH1 0x0 DUP1 REVERT JUMPDEST POP JUMP JUMPDEST PUSH2 0xFB6 DUP2 PUSH2 0xD70 JUMP JUMPDEST DUP2 EQ PUSH2 0xFC1 JUMPI PUSH1 0x0 DUP1 REVERT JUMPDEST POP JUMP JUMPDEST PUSH2 0xFCD DUP2 PUSH2 0xD7C JUMP JUMPDEST DUP2 EQ PUSH2 0xFD8 JUMPI PUSH1 0x0 DUP1 REVERT JUMPDEST POP JUMP INVALID LOG2 PUSH5 0x6970667358 0x22 SLT KECCAK256 SWAP14 0x4F PUSH30 0xFB65BCFFF46E283FFA4E6F7CF718020102128BEB2ADF8BE1F18A9A794864 PUSH20 0x6F6C634300080700330000000000000000000000 "
				},
				"gasEstimates": {
					"creation": {
						"codeDepositCost": "822600",
						"executionCost": "infinite",
						"totalCost": "infinite"
					},
					"external": {
						"airdropToken()": "2667",
						"amountPerRedemption()": "2451",
						"collectAirdrop(bytes,bytes32)": "infinite",
						"nullifierSpent(bytes32)": "2841",
						"owner()": "2566",
						"renounceOwnership()": "30374",
						"root()": "2495",
						"transferOwnership(address)": "30811",
						"updateRoot(bytes32)": "24783"
					}
				},
				"methodIdentifiers": {
					"airdropToken()": "4d06068a",
					"amountPerRedemption()": "7f0d7159",
					"collectAirdrop(bytes,bytes32)": "213e0b17",
					"nullifierSpent(bytes32)": "38c86911",
					"owner()": "8da5cb5b",
					"renounceOwnership()": "715018a6",
					"root()": "ebf0c717",
					"transferOwnership(address)": "f2fde38b",
					"updateRoot(bytes32)": "21ff9970"
				}
			},
			"storageLayout": {
				"storage": [
					{
						"astId": 7,
						"contract": "contracts/DeFi/MerkleAirdrop.sol:PrivateAirdrop",
						"label": "_owner",
						"offset": 0,
						"slot": "0",
						"type": "t_address"
					},
					{
						"astId": 156,
						"contract": "contracts/DeFi/MerkleAirdrop.sol:PrivateAirdrop",
						"label": "airdropToken",
						"offset": 0,
						"slot": "1",
						"type": "t_contract(IERC20)150"
					},
					{
						"astId": 158,
						"contract": "contracts/DeFi/MerkleAirdrop.sol:PrivateAirdrop",
						"label": "amountPerRedemption",
						"offset": 0,
						"slot": "2",
						"type": "t_uint256"
					},
					{
						"astId": 161,
						"contract": "contracts/DeFi/MerkleAirdrop.sol:PrivateAirdrop",
						"label": "verifier",
						"offset": 0,
						"slot": "3",
						"type": "t_contract(IPlonkVerifier)140"
					},
					{
						"astId": 163,
						"contract": "contracts/DeFi/MerkleAirdrop.sol:PrivateAirdrop",
						"label": "root",
						"offset": 0,
						"slot": "4",
						"type": "t_bytes32"
					},
					{
						"astId": 167,
						"contract": "contracts/DeFi/MerkleAirdrop.sol:PrivateAirdrop",
						"label": "nullifierSpent",
						"offset": 0,
						"slot": "5",
						"type": "t_mapping(t_bytes32,t_bool)"
					}
				],
				"types": {
					"t_address": {
						"encoding": "inplace",
						"label": "address",
						"numberOfBytes": "20"
					},
					"t_bool": {
						"encoding": "inplace",
						"label": "bool",
						"numberOfBytes": "1"
					},
					"t_bytes32": {
						"encoding": "inplace",
						"label": "bytes32",
						"numberOfBytes": "32"
					},
					"t_contract(IERC20)150": {
						"encoding": "inplace",
						"label": "contract IERC20",
						"numberOfBytes": "20"
					},
					"t_contract(IPlonkVerifier)140": {
						"encoding": "inplace",
						"label": "contract IPlonkVerifier",
						"numberOfBytes": "20"
					},
					"t_mapping(t_bytes32,t_bool)": {
						"encoding": "mapping",
						"key": "t_bytes32",
						"label": "mapping(bytes32 => bool)",
						"numberOfBytes": "32",
						"value": "t_bool"
					},
					"t_uint256": {
						"encoding": "inplace",
						"label": "uint256",
						"numberOfBytes": "32"
					}
				}
			},
			"userdoc": {
				"kind": "user",
				"methods": {
					"collectAirdrop(bytes,bytes32)": {
						"notice": "verifies the proof, collects the airdrop if valid, and prevents this proof from working again."
					},
					"updateRoot(bytes32)": {
						"notice": "Allows the owner to update the root of the merkle tree."
					}
				},
				"version": 1
			}
		}
	}
}