{
	"contracts/DeFi/CrowdfundV2.sol": {
		"Crowdfund": {
			"abi": [
				{
					"anonymous": false,
					"inputs": [
						{
							"indexed": true,
							"internalType": "uint256",
							"name": "id",
							"type": "uint256"
						}
					],
					"name": "Cancel",
					"type": "event"
				},
				{
					"anonymous": false,
					"inputs": [
						{
							"indexed": true,
							"internalType": "uint256",
							"name": "id",
							"type": "uint256"
						}
					],
					"name": "Claim",
					"type": "event"
				},
				{
					"anonymous": false,
					"inputs": [
						{
							"indexed": false,
							"internalType": "uint8",
							"name": "version",
							"type": "uint8"
						}
					],
					"name": "Initialized",
					"type": "event"
				},
				{
					"anonymous": false,
					"inputs": [
						{
							"indexed": true,
							"internalType": "uint256",
							"name": "id",
							"type": "uint256"
						},
						{
							"indexed": true,
							"internalType": "address",
							"name": "creator",
							"type": "address"
						},
						{
							"indexed": false,
							"internalType": "uint256",
							"name": "goal",
							"type": "uint256"
						},
						{
							"indexed": false,
							"internalType": "uint32",
							"name": "startAt",
							"type": "uint32"
						},
						{
							"indexed": false,
							"internalType": "uint32",
							"name": "endAt",
							"type": "uint32"
						}
					],
					"name": "Launch",
					"type": "event"
				},
				{
					"anonymous": false,
					"inputs": [
						{
							"indexed": true,
							"internalType": "uint256",
							"name": "id",
							"type": "uint256"
						},
						{
							"indexed": true,
							"internalType": "address",
							"name": "caller",
							"type": "address"
						},
						{
							"indexed": false,
							"internalType": "uint256",
							"name": "amount",
							"type": "uint256"
						}
					],
					"name": "Pledged",
					"type": "event"
				},
				{
					"anonymous": false,
					"inputs": [
						{
							"indexed": true,
							"internalType": "uint256",
							"name": "id",
							"type": "uint256"
						},
						{
							"indexed": true,
							"internalType": "address",
							"name": "caller",
							"type": "address"
						},
						{
							"indexed": false,
							"internalType": "uint256",
							"name": "amount",
							"type": "uint256"
						}
					],
					"name": "Refund",
					"type": "event"
				},
				{
					"anonymous": false,
					"inputs": [
						{
							"indexed": true,
							"internalType": "uint256",
							"name": "id",
							"type": "uint256"
						},
						{
							"indexed": true,
							"internalType": "address",
							"name": "caller",
							"type": "address"
						},
						{
							"indexed": false,
							"internalType": "uint256",
							"name": "amount",
							"type": "uint256"
						}
					],
					"name": "Unpledged",
					"type": "event"
				},
				{
					"inputs": [
						{
							"internalType": "uint256",
							"name": "",
							"type": "uint256"
						}
					],
					"name": "campaigns",
					"outputs": [
						{
							"internalType": "uint256",
							"name": "id",
							"type": "uint256"
						},
						{
							"internalType": "address",
							"name": "creator",
							"type": "address"
						},
						{
							"internalType": "uint256",
							"name": "goal",
							"type": "uint256"
						},
						{
							"internalType": "uint256",
							"name": "pledged",
							"type": "uint256"
						},
						{
							"internalType": "uint32",
							"name": "startAt",
							"type": "uint32"
						},
						{
							"internalType": "uint32",
							"name": "endAt",
							"type": "uint32"
						},
						{
							"internalType": "bool",
							"name": "claimed",
							"type": "bool"
						},
						{
							"internalType": "bool",
							"name": "cancelled",
							"type": "bool"
						}
					],
					"stateMutability": "view",
					"type": "function"
				},
				{
					"inputs": [
						{
							"internalType": "uint256",
							"name": "_id",
							"type": "uint256"
						}
					],
					"name": "cancel",
					"outputs": [],
					"stateMutability": "nonpayable",
					"type": "function"
				},
				{
					"inputs": [
						{
							"internalType": "uint256",
							"name": "_id",
							"type": "uint256"
						}
					],
					"name": "claim",
					"outputs": [],
					"stateMutability": "nonpayable",
					"type": "function"
				},
				{
					"inputs": [],
					"name": "count",
					"outputs": [
						{
							"internalType": "uint256",
							"name": "",
							"type": "uint256"
						}
					],
					"stateMutability": "view",
					"type": "function"
				},
				{
					"inputs": [
						{
							"internalType": "contract IERC20",
							"name": "_token",
							"type": "address"
						},
						{
							"internalType": "uint256",
							"name": "_minDuration",
							"type": "uint256"
						},
						{
							"internalType": "uint256",
							"name": "_maxDuration",
							"type": "uint256"
						}
					],
					"name": "initialize",
					"outputs": [],
					"stateMutability": "nonpayable",
					"type": "function"
				},
				{
					"inputs": [
						{
							"internalType": "uint256",
							"name": "_goal",
							"type": "uint256"
						},
						{
							"internalType": "uint32",
							"name": "_startAt",
							"type": "uint32"
						},
						{
							"internalType": "uint32",
							"name": "_endAt",
							"type": "uint32"
						}
					],
					"name": "launch",
					"outputs": [],
					"stateMutability": "nonpayable",
					"type": "function"
				},
				{
					"inputs": [],
					"name": "maxDuration",
					"outputs": [
						{
							"internalType": "uint256",
							"name": "",
							"type": "uint256"
						}
					],
					"stateMutability": "view",
					"type": "function"
				},
				{
					"inputs": [],
					"name": "minDuration",
					"outputs": [
						{
							"internalType": "uint256",
							"name": "",
							"type": "uint256"
						}
					],
					"stateMutability": "view",
					"type": "function"
				},
				{
					"inputs": [
						{
							"internalType": "uint256",
							"name": "_id",
							"type": "uint256"
						},
						{
							"internalType": "uint256",
							"name": "_amount",
							"type": "uint256"
						}
					],
					"name": "pledge",
					"outputs": [],
					"stateMutability": "nonpayable",
					"type": "function"
				},
				{
					"inputs": [
						{
							"internalType": "uint256",
							"name": "",
							"type": "uint256"
						},
						{
							"internalType": "address",
							"name": "",
							"type": "address"
						}
					],
					"name": "pledgedAmount",
					"outputs": [
						{
							"internalType": "uint256",
							"name": "",
							"type": "uint256"
						}
					],
					"stateMutability": "view",
					"type": "function"
				},
				{
					"inputs": [
						{
							"internalType": "uint256",
							"name": "_id",
							"type": "uint256"
						}
					],
					"name": "refund",
					"outputs": [],
					"stateMutability": "nonpayable",
					"type": "function"
				},
				{
					"inputs": [],
					"name": "token",
					"outputs": [
						{
							"internalType": "contract IERC20",
							"name": "",
							"type": "address"
						}
					],
					"stateMutability": "view",
					"type": "function"
				},
				{
					"inputs": [
						{
							"internalType": "uint256",
							"name": "_id",
							"type": "uint256"
						},
						{
							"internalType": "uint256",
							"name": "_amount",
							"type": "uint256"
						}
					],
					"name": "unpledge",
					"outputs": [],
					"stateMutability": "nonpayable",
					"type": "function"
				}
			],
			"devdoc": {
				"events": {
					"Initialized(uint8)": {
						"details": "Triggered when the contract has been initialized or reinitialized."
					}
				},
				"kind": "dev",
				"methods": {
					"cancel(uint256)": {
						"details": "function called by campaign creator to cancel a crowdfunding campaign",
						"params": {
							"_id": "- the uinique uint256 id of the campaign to be cancelled"
						}
					},
					"claim(uint256)": {
						"details": "function called by campaign creator to receive fundscaller must be creator, creator cannot have cancelled the campaign, campaign must have passed end at time, the campaign goal must have been met or exceededthis function can only be called once by creator",
						"params": {
							"_id": "- the uinique uint256 id of the campaign which funds are claimed"
						}
					},
					"initialize(address,uint256,uint256)": {
						"details": "dunction from @openzeppelin to initialize this as the base contract for upgradesmust be the first function called"
					},
					"launch(uint256,uint32,uint32)": {
						"details": "function called by campaign creator to create the crowdfunding campaign and add Campaign to mapping",
						"params": {
							"_endAt": "- the block.timestamp at which the campaign will end (note: must be >= starting time + minDuration and <= starting time + maxDuration)",
							"_goal": "- the amount of tokens the campaign aims to receive",
							"_startAt": "- the time the campaign will begin (note: _startAt time is passed in by creator and not necessarily the time the creator calls the launch function)"
						}
					},
					"pledge(uint256,uint256)": {
						"details": "function to transfer tokens from pledger into the contractsender must first call approve on the ERC20 token for this contract address and _amountcampaign must not be cancelled, must be within startAt and endAt times",
						"params": {
							"_amount": "- the amount of tokens trasferred from pledger into contract",
							"_id": "- the uinique uint256 id of the campaign to be pledged"
						}
					},
					"refund(uint256)": {
						"details": "function to refund ALL the pledged tokens from pledger in this contract back to the pledger AFTER a campaign has ended and failedwhen a funding goal is not met, pledgers are be able to get a refund of their pledged funds",
						"params": {
							"_id": "- the uinique uint256 id of the campaign to refund from"
						}
					},
					"unpledge(uint256,uint256)": {
						"details": "function for pledger to unpledge their tokens and receive them back BEFORE a campaign has ended (ex: unpledge if campaign cancelled before end time)pledger specifies amount of tokens to unpledge, if a campaign has ended and not met goal, pledger then calls refund function to receive all tokens back",
						"params": {
							"_amount": "- the amount of tokens transferred from contract back to pledger",
							"_id": "- the uinique uint256 id of the campaign to be unpledged"
						}
					}
				},
				"stateVariables": {
					"campaigns": {
						"details": "mapping of id to Campaign struct"
					},
					"count": {
						"details": "used to track and update unique campaign ids"
					},
					"maxDuration": {
						"details": "maximum and minimum length of times a campaign can be Set in initalize function"
					},
					"pledgedAmount": {
						"details": "mapping of campaign id to pledger to amount pledged"
					}
				},
				"version": 1
			},
			"evm": {
				"assembly": "    /* \"contracts/DeFi/CrowdfundV2.sol\":257:9732  contract Crowdfund is Initializable {... */\n  mstore(0x40, 0x80)\n  callvalue\n  dup1\n  iszero\n  tag_1\n  jumpi\n  0x00\n  dup1\n  revert\ntag_1:\n  pop\n  dataSize(sub_0)\n  dup1\n  dataOffset(sub_0)\n  0x00\n  codecopy\n  0x00\n  return\nstop\n\nsub_0: assembly {\n        /* \"contracts/DeFi/CrowdfundV2.sol\":257:9732  contract Crowdfund is Initializable {... */\n      mstore(0x40, 0x80)\n      callvalue\n      dup1\n      iszero\n      tag_1\n      jumpi\n      0x00\n      dup1\n      revert\n    tag_1:\n      pop\n      jumpi(tag_2, lt(calldatasize, 0x04))\n      shr(0xe0, calldataload(0x00))\n      dup1\n      0x56715761\n      gt\n      tag_16\n      jumpi\n      dup1\n      0x7a1ac61e\n      gt\n      tag_17\n      jumpi\n      dup1\n      0x7a1ac61e\n      eq\n      tag_12\n      jumpi\n      dup1\n      0xaa4fb63a\n      eq\n      tag_13\n      jumpi\n      dup1\n      0xfc0c546a\n      eq\n      tag_14\n      jumpi\n      dup1\n      0xfde327be\n      eq\n      tag_15\n      jumpi\n      jump(tag_2)\n    tag_17:\n      dup1\n      0x56715761\n      eq\n      tag_9\n      jumpi\n      dup1\n      0x6db5c8fd\n      eq\n      tag_10\n      jumpi\n      dup1\n      0x711853ab\n      eq\n      tag_11\n      jumpi\n      jump(tag_2)\n    tag_16:\n      dup1\n      0x06661abd\n      eq\n      tag_3\n      jumpi\n      dup1\n      0x141961bc\n      eq\n      tag_4\n      jumpi\n      dup1\n      0x278ecde1\n      eq\n      tag_5\n      jumpi\n      dup1\n      0x2c63f146\n      eq\n      tag_6\n      jumpi\n      dup1\n      0x379607f5\n      eq\n      tag_7\n      jumpi\n      dup1\n      0x40e58ee5\n      eq\n      tag_8\n      jumpi\n    tag_2:\n      0x00\n      dup1\n      revert\n        /* \"contracts/DeFi/CrowdfundV2.sol\":1776:1796  uint256 public count */\n    tag_3:\n      tag_18\n      tag_19\n      jump\t// in\n    tag_18:\n      mload(0x40)\n      tag_20\n      swap2\n      swap1\n      tag_21\n      jump\t// in\n    tag_20:\n      mload(0x40)\n      dup1\n      swap2\n      sub\n      swap1\n      return\n        /* \"contracts/DeFi/CrowdfundV2.sol\":1863:1908  mapping(uint256 => Campaign) public campaigns */\n    tag_4:\n      tag_22\n      0x04\n      dup1\n      calldatasize\n      sub\n      dup2\n      add\n      swap1\n      tag_23\n      swap2\n      swap1\n      tag_24\n      jump\t// in\n    tag_23:\n      tag_25\n      jump\t// in\n    tag_22:\n      mload(0x40)\n      tag_26\n      swap9\n      swap8\n      swap7\n      swap6\n      swap5\n      swap4\n      swap3\n      swap2\n      swap1\n      tag_27\n      jump\t// in\n    tag_26:\n      mload(0x40)\n      dup1\n      swap2\n      sub\n      swap1\n      return\n        /* \"contracts/DeFi/CrowdfundV2.sol\":8575:8937  function refund(... */\n    tag_5:\n      tag_28\n      0x04\n      dup1\n      calldatasize\n      sub\n      dup2\n      add\n      swap1\n      tag_29\n      swap2\n      swap1\n      tag_24\n      jump\t// in\n    tag_29:\n      tag_30\n      jump\t// in\n    tag_28:\n      stop\n        /* \"contracts/DeFi/CrowdfundV2.sol\":4645:5311  function launch(uint256 _goal, uint32 _startAt, uint32 _endAt) external {... */\n    tag_6:\n      tag_31\n      0x04\n      dup1\n      calldatasize\n      sub\n      dup2\n      add\n      swap1\n      tag_32\n      swap2\n      swap1\n      tag_33\n      jump\t// in\n    tag_32:\n      tag_34\n      jump\t// in\n    tag_31:\n      stop\n        /* \"contracts/DeFi/CrowdfundV2.sol\":7701:8233  function claim(... */\n    tag_7:\n      tag_35\n      0x04\n      dup1\n      calldatasize\n      sub\n      dup2\n      add\n      swap1\n      tag_36\n      swap2\n      swap1\n      tag_24\n      jump\t// in\n    tag_36:\n      tag_37\n      jump\t// in\n    tag_35:\n      stop\n        /* \"contracts/DeFi/CrowdfundV2.sol\":5490:5672  function cancel(... */\n    tag_8:\n      tag_38\n      0x04\n      dup1\n      calldatasize\n      sub\n      dup2\n      add\n      swap1\n      tag_39\n      swap2\n      swap1\n      tag_24\n      jump\t// in\n    tag_39:\n      tag_40\n      jump\t// in\n    tag_38:\n      stop\n        /* \"contracts/DeFi/CrowdfundV2.sol\":1671:1697  uint256 public minDuration */\n    tag_9:\n      tag_41\n      tag_42\n      jump\t// in\n    tag_41:\n      mload(0x40)\n      tag_43\n      swap2\n      swap1\n      tag_21\n      jump\t// in\n    tag_43:\n      mload(0x40)\n      dup1\n      swap2\n      sub\n      swap1\n      return\n        /* \"contracts/DeFi/CrowdfundV2.sol\":1638:1664  uint256 public maxDuration */\n    tag_10:\n      tag_44\n      tag_45\n      jump\t// in\n    tag_44:\n      mload(0x40)\n      tag_46\n      swap2\n      swap1\n      tag_21\n      jump\t// in\n    tag_46:\n      mload(0x40)\n      dup1\n      swap2\n      sub\n      swap1\n      return\n        /* \"contracts/DeFi/CrowdfundV2.sol\":7080:7302  function unpledge(... */\n    tag_11:\n      tag_47\n      0x04\n      dup1\n      calldatasize\n      sub\n      dup2\n      add\n      swap1\n      tag_48\n      swap2\n      swap1\n      tag_49\n      jump\t// in\n    tag_48:\n      tag_50\n      jump\t// in\n    tag_47:\n      stop\n        /* \"contracts/DeFi/CrowdfundV2.sol\":3753:4059  function initialize(... */\n    tag_12:\n      tag_51\n      0x04\n      dup1\n      calldatasize\n      sub\n      dup2\n      add\n      swap1\n      tag_52\n      swap2\n      swap1\n      tag_53\n      jump\t// in\n    tag_52:\n      tag_54\n      jump\t// in\n    tag_51:\n      stop\n        /* \"contracts/DeFi/CrowdfundV2.sol\":1994:2062  mapping(uint256 => mapping(address => uint256)) public pledgedAmount */\n    tag_13:\n      tag_55\n      0x04\n      dup1\n      calldatasize\n      sub\n      dup2\n      add\n      swap1\n      tag_56\n      swap2\n      swap1\n      tag_57\n      jump\t// in\n    tag_56:\n      tag_58\n      jump\t// in\n    tag_55:\n      mload(0x40)\n      tag_59\n      swap2\n      swap1\n      tag_21\n      jump\t// in\n    tag_59:\n      mload(0x40)\n      dup1\n      swap2\n      sub\n      swap1\n      return\n        /* \"contracts/DeFi/CrowdfundV2.sol\":1497:1516  IERC20 public token */\n    tag_14:\n      tag_60\n      tag_61\n      jump\t// in\n    tag_60:\n      mload(0x40)\n      tag_62\n      swap2\n      swap1\n      tag_63\n      jump\t// in\n    tag_62:\n      mload(0x40)\n      dup1\n      swap2\n      sub\n      swap1\n      return\n        /* \"contracts/DeFi/CrowdfundV2.sol\":6104:6571  function pledge(... */\n    tag_15:\n      tag_64\n      0x04\n      dup1\n      calldatasize\n      sub\n      dup2\n      add\n      swap1\n      tag_65\n      swap2\n      swap1\n      tag_49\n      jump\t// in\n    tag_65:\n      tag_66\n      jump\t// in\n    tag_64:\n      stop\n        /* \"contracts/DeFi/CrowdfundV2.sol\":1776:1796  uint256 public count */\n    tag_19:\n      sload(0x03)\n      dup2\n      jump\t// out\n        /* \"contracts/DeFi/CrowdfundV2.sol\":1863:1908  mapping(uint256 => Campaign) public campaigns */\n    tag_25:\n      mstore(0x20, 0x04)\n      dup1\n      0x00\n      mstore\n      keccak256(0x00, 0x40)\n      0x00\n      swap2\n      pop\n      swap1\n      pop\n      dup1\n      0x00\n      add\n      sload\n      swap1\n      dup1\n      0x01\n      add\n      0x00\n      swap1\n      sload\n      swap1\n      0x0100\n      exp\n      swap1\n      div\n      0xffffffffffffffffffffffffffffffffffffffff\n      and\n      swap1\n      dup1\n      0x02\n      add\n      sload\n      swap1\n      dup1\n      0x03\n      add\n      sload\n      swap1\n      dup1\n      0x04\n      add\n      0x00\n      swap1\n      sload\n      swap1\n      0x0100\n      exp\n      swap1\n      div\n      0xffffffff\n      and\n      swap1\n      dup1\n      0x04\n      add\n      0x04\n      swap1\n      sload\n      swap1\n      0x0100\n      exp\n      swap1\n      div\n      0xffffffff\n      and\n      swap1\n      dup1\n      0x04\n      add\n      0x08\n      swap1\n      sload\n      swap1\n      0x0100\n      exp\n      swap1\n      div\n      0xff\n      and\n      swap1\n      dup1\n      0x04\n      add\n      0x09\n      swap1\n      sload\n      swap1\n      0x0100\n      exp\n      swap1\n      div\n      0xff\n      and\n      swap1\n      pop\n      dup9\n      jump\t// out\n        /* \"contracts/DeFi/CrowdfundV2.sol\":8575:8937  function refund(... */\n    tag_30:\n        /* \"contracts/DeFi/CrowdfundV2.sol\":8642:8645  _id */\n      dup1\n        /* \"contracts/DeFi/CrowdfundV2.sol\":2788:2789  0 */\n      0x00\n        /* \"contracts/DeFi/CrowdfundV2.sol\":2767:2776  campaigns */\n      0x04\n        /* \"contracts/DeFi/CrowdfundV2.sol\":2767:2781  campaigns[_id] */\n      0x00\n        /* \"contracts/DeFi/CrowdfundV2.sol\":2777:2780  _id */\n      dup4\n        /* \"contracts/DeFi/CrowdfundV2.sol\":2767:2781  campaigns[_id] */\n      dup2\n      mstore\n      0x20\n      add\n      swap1\n      dup2\n      mstore\n      0x20\n      add\n      0x00\n      keccak256\n        /* \"contracts/DeFi/CrowdfundV2.sol\":2767:2784  campaigns[_id].id */\n      0x00\n      add\n      sload\n        /* \"contracts/DeFi/CrowdfundV2.sol\":2767:2789  campaigns[_id].id != 0 */\n      sub\n        /* \"contracts/DeFi/CrowdfundV2.sol\":2759:2817  require(campaigns[_id].id != 0, \"campaign does not exist\") */\n      tag_68\n      jumpi\n      mload(0x40)\n      0x08c379a000000000000000000000000000000000000000000000000000000000\n      dup2\n      mstore\n      0x04\n      add\n      tag_69\n      swap1\n      tag_70\n      jump\t// in\n    tag_69:\n      mload(0x40)\n      dup1\n      swap2\n      sub\n      swap1\n      revert\n    tag_68:\n        /* \"contracts/DeFi/CrowdfundV2.sol\":8661:8664  _id */\n      dup2\n        /* \"contracts/DeFi/CrowdfundV2.sol\":3485:3494  campaigns */\n      0x04\n        /* \"contracts/DeFi/CrowdfundV2.sol\":3485:3499  campaigns[_id] */\n      0x00\n        /* \"contracts/DeFi/CrowdfundV2.sol\":3495:3498  _id */\n      dup3\n        /* \"contracts/DeFi/CrowdfundV2.sol\":3485:3499  campaigns[_id] */\n      dup2\n      mstore\n      0x20\n      add\n      swap1\n      dup2\n      mstore\n      0x20\n      add\n      0x00\n      keccak256\n        /* \"contracts/DeFi/CrowdfundV2.sol\":3485:3505  campaigns[_id].endAt */\n      0x04\n      add\n      0x04\n      swap1\n      sload\n      swap1\n      0x0100\n      exp\n      swap1\n      div\n      0xffffffff\n      and\n        /* \"contracts/DeFi/CrowdfundV2.sol\":3467:3505  block.timestamp > campaigns[_id].endAt */\n      0xffffffff\n      and\n        /* \"contracts/DeFi/CrowdfundV2.sol\":3467:3482  block.timestamp */\n      timestamp\n        /* \"contracts/DeFi/CrowdfundV2.sol\":3467:3505  block.timestamp > campaigns[_id].endAt */\n      gt\n        /* \"contracts/DeFi/CrowdfundV2.sol\":3459:3528  require(block.timestamp > campaigns[_id].endAt, \"campaign not ended\") */\n      tag_72\n      jumpi\n      mload(0x40)\n      0x08c379a000000000000000000000000000000000000000000000000000000000\n      dup2\n      mstore\n      0x04\n      add\n      tag_73\n      swap1\n      tag_74\n      jump\t// in\n    tag_73:\n      mload(0x40)\n      dup1\n      swap2\n      sub\n      swap1\n      revert\n    tag_72:\n        /* \"contracts/DeFi/CrowdfundV2.sol\":8676:8701  Campaign storage campaign */\n      0x00\n        /* \"contracts/DeFi/CrowdfundV2.sol\":8704:8713  campaigns */\n      0x04\n        /* \"contracts/DeFi/CrowdfundV2.sol\":8704:8718  campaigns[_id] */\n      0x00\n        /* \"contracts/DeFi/CrowdfundV2.sol\":8714:8717  _id */\n      dup6\n        /* \"contracts/DeFi/CrowdfundV2.sol\":8704:8718  campaigns[_id] */\n      dup2\n      mstore\n      0x20\n      add\n      swap1\n      dup2\n      mstore\n      0x20\n      add\n      0x00\n      keccak256\n        /* \"contracts/DeFi/CrowdfundV2.sol\":8676:8718  Campaign storage campaign = campaigns[_id] */\n      swap1\n      pop\n        /* \"contracts/DeFi/CrowdfundV2.sol\":8756:8764  campaign */\n      dup1\n        /* \"contracts/DeFi/CrowdfundV2.sol\":8756:8769  campaign.goal */\n      0x02\n      add\n      sload\n        /* \"contracts/DeFi/CrowdfundV2.sol\":8737:8745  campaign */\n      dup2\n        /* \"contracts/DeFi/CrowdfundV2.sol\":8737:8753  campaign.pledged */\n      0x03\n      add\n      sload\n        /* \"contracts/DeFi/CrowdfundV2.sol\":8737:8769  campaign.pledged < campaign.goal */\n      lt\n        /* \"contracts/DeFi/CrowdfundV2.sol\":8729:8789  require(campaign.pledged < campaign.goal, \"pledged >= goal\") */\n      tag_76\n      jumpi\n      mload(0x40)\n      0x08c379a000000000000000000000000000000000000000000000000000000000\n      dup2\n      mstore\n      0x04\n      add\n      tag_77\n      swap1\n      tag_78\n      jump\t// in\n    tag_77:\n      mload(0x40)\n      dup1\n      swap2\n      sub\n      swap1\n      revert\n    tag_76:\n        /* \"contracts/DeFi/CrowdfundV2.sol\":8800:8812  uint256 _bal */\n      0x00\n        /* \"contracts/DeFi/CrowdfundV2.sol\":8815:8828  pledgedAmount */\n      0x05\n        /* \"contracts/DeFi/CrowdfundV2.sol\":8815:8833  pledgedAmount[_id] */\n      0x00\n        /* \"contracts/DeFi/CrowdfundV2.sol\":8829:8832  _id */\n      dup7\n        /* \"contracts/DeFi/CrowdfundV2.sol\":8815:8833  pledgedAmount[_id] */\n      dup2\n      mstore\n      0x20\n      add\n      swap1\n      dup2\n      mstore\n      0x20\n      add\n      0x00\n      keccak256\n        /* \"contracts/DeFi/CrowdfundV2.sol\":8815:8845  pledgedAmount[_id][msg.sender] */\n      0x00\n        /* \"contracts/DeFi/CrowdfundV2.sol\":8834:8844  msg.sender */\n      caller\n        /* \"contracts/DeFi/CrowdfundV2.sol\":8815:8845  pledgedAmount[_id][msg.sender] */\n      0xffffffffffffffffffffffffffffffffffffffff\n      and\n      0xffffffffffffffffffffffffffffffffffffffff\n      and\n      dup2\n      mstore\n      0x20\n      add\n      swap1\n      dup2\n      mstore\n      0x20\n      add\n      0x00\n      keccak256\n      sload\n        /* \"contracts/DeFi/CrowdfundV2.sol\":8800:8845  uint256 _bal = pledgedAmount[_id][msg.sender] */\n      swap1\n      pop\n        /* \"contracts/DeFi/CrowdfundV2.sol\":8855:8885  _refund(msg.sender, _id, _bal) */\n      tag_79\n        /* \"contracts/DeFi/CrowdfundV2.sol\":8863:8873  msg.sender */\n      caller\n        /* \"contracts/DeFi/CrowdfundV2.sol\":8875:8878  _id */\n      dup7\n        /* \"contracts/DeFi/CrowdfundV2.sol\":8880:8884  _bal */\n      dup4\n        /* \"contracts/DeFi/CrowdfundV2.sol\":8855:8862  _refund */\n      tag_80\n        /* \"contracts/DeFi/CrowdfundV2.sol\":8855:8885  _refund(msg.sender, _id, _bal) */\n      jump\t// in\n    tag_79:\n        /* \"contracts/DeFi/CrowdfundV2.sol\":8913:8923  msg.sender */\n      caller\n        /* \"contracts/DeFi/CrowdfundV2.sol\":8901:8930  Refund(_id, msg.sender, _bal) */\n      0xffffffffffffffffffffffffffffffffffffffff\n      and\n        /* \"contracts/DeFi/CrowdfundV2.sol\":8908:8911  _id */\n      dup6\n        /* \"contracts/DeFi/CrowdfundV2.sol\":8901:8930  Refund(_id, msg.sender, _bal) */\n      0x21e12a7cad0da5928167e1084ea4d5fdf8d9af66657a2543a9ac76a0ca081477\n        /* \"contracts/DeFi/CrowdfundV2.sol\":8925:8929  _bal */\n      dup4\n        /* \"contracts/DeFi/CrowdfundV2.sol\":8901:8930  Refund(_id, msg.sender, _bal) */\n      mload(0x40)\n      tag_81\n      swap2\n      swap1\n      tag_21\n      jump\t// in\n    tag_81:\n      mload(0x40)\n      dup1\n      swap2\n      sub\n      swap1\n      log3\n        /* \"contracts/DeFi/CrowdfundV2.sol\":8666:8937  {... */\n      pop\n      pop\n        /* \"contracts/DeFi/CrowdfundV2.sol\":2827:2828  _ */\n      pop\n        /* \"contracts/DeFi/CrowdfundV2.sol\":8575:8937  function refund(... */\n      pop\n      pop\n      jump\t// out\n        /* \"contracts/DeFi/CrowdfundV2.sol\":4645:5311  function launch(uint256 _goal, uint32 _startAt, uint32 _endAt) external {... */\n    tag_34:\n        /* \"contracts/DeFi/CrowdfundV2.sol\":4747:4762  block.timestamp */\n      timestamp\n        /* \"contracts/DeFi/CrowdfundV2.sol\":4735:4743  _startAt */\n      dup3\n        /* \"contracts/DeFi/CrowdfundV2.sol\":4735:4762  _startAt >= block.timestamp */\n      0xffffffff\n      and\n      lt\n      iszero\n        /* \"contracts/DeFi/CrowdfundV2.sol\":4727:4781  require(_startAt >= block.timestamp, \"start at < now\") */\n      tag_83\n      jumpi\n      mload(0x40)\n      0x08c379a000000000000000000000000000000000000000000000000000000000\n      dup2\n      mstore\n      0x04\n      add\n      tag_84\n      swap1\n      tag_85\n      jump\t// in\n    tag_84:\n      mload(0x40)\n      dup1\n      swap2\n      sub\n      swap1\n      revert\n    tag_83:\n        /* \"contracts/DeFi/CrowdfundV2.sol\":4833:4844  minDuration */\n      sload(0x02)\n        /* \"contracts/DeFi/CrowdfundV2.sol\":4822:4830  _startAt */\n      dup3\n        /* \"contracts/DeFi/CrowdfundV2.sol\":4822:4844  _startAt + minDuration */\n      0xffffffff\n      and\n      tag_86\n      swap2\n      swap1\n      tag_87\n      jump\t// in\n    tag_86:\n        /* \"contracts/DeFi/CrowdfundV2.sol\":4812:4818  _endAt */\n      dup2\n        /* \"contracts/DeFi/CrowdfundV2.sol\":4812:4844  _endAt >= _startAt + minDuration */\n      0xffffffff\n      and\n      lt\n      iszero\n        /* \"contracts/DeFi/CrowdfundV2.sol\":4812:4896  _endAt >= _startAt + minDuration &&... */\n      dup1\n      iszero\n      tag_88\n      jumpi\n      pop\n        /* \"contracts/DeFi/CrowdfundV2.sol\":4885:4896  maxDuration */\n      sload(0x01)\n        /* \"contracts/DeFi/CrowdfundV2.sol\":4874:4882  _startAt */\n      dup3\n        /* \"contracts/DeFi/CrowdfundV2.sol\":4874:4896  _startAt + maxDuration */\n      0xffffffff\n      and\n      tag_89\n      swap2\n      swap1\n      tag_87\n      jump\t// in\n    tag_89:\n        /* \"contracts/DeFi/CrowdfundV2.sol\":4864:4870  _endAt */\n      dup2\n        /* \"contracts/DeFi/CrowdfundV2.sol\":4864:4896  _endAt <= _startAt + maxDuration */\n      0xffffffff\n      and\n      gt\n      iszero\n        /* \"contracts/DeFi/CrowdfundV2.sol\":4812:4896  _endAt >= _startAt + minDuration &&... */\n    tag_88:\n        /* \"contracts/DeFi/CrowdfundV2.sol\":4791:4947  require(... */\n      tag_90\n      jumpi\n      mload(0x40)\n      0x08c379a000000000000000000000000000000000000000000000000000000000\n      dup2\n      mstore\n      0x04\n      add\n      tag_91\n      swap1\n      tag_92\n      jump\t// in\n    tag_91:\n      mload(0x40)\n      dup1\n      swap2\n      sub\n      swap1\n      revert\n    tag_90:\n        /* \"contracts/DeFi/CrowdfundV2.sol\":4967:4968  1 */\n      0x01\n        /* \"contracts/DeFi/CrowdfundV2.sol\":4958:4963  count */\n      0x03\n      0x00\n        /* \"contracts/DeFi/CrowdfundV2.sol\":4958:4968  count += 1 */\n      dup3\n      dup3\n      sload\n      tag_93\n      swap2\n      swap1\n      tag_87\n      jump\t// in\n    tag_93:\n      swap3\n      pop\n      pop\n      dup2\n      swap1\n      sstore\n      pop\n        /* \"contracts/DeFi/CrowdfundV2.sol\":4997:5238  Campaign({... */\n      mload(0x40)\n      dup1\n      0x0100\n      add\n      0x40\n      mstore\n      dup1\n        /* \"contracts/DeFi/CrowdfundV2.sol\":5024:5029  count */\n      sload(0x03)\n        /* \"contracts/DeFi/CrowdfundV2.sol\":4997:5238  Campaign({... */\n      dup2\n      mstore\n      0x20\n      add\n        /* \"contracts/DeFi/CrowdfundV2.sol\":5052:5062  msg.sender */\n      caller\n        /* \"contracts/DeFi/CrowdfundV2.sol\":4997:5238  Campaign({... */\n      0xffffffffffffffffffffffffffffffffffffffff\n      and\n      dup2\n      mstore\n      0x20\n      add\n        /* \"contracts/DeFi/CrowdfundV2.sol\":5082:5087  _goal */\n      dup5\n        /* \"contracts/DeFi/CrowdfundV2.sol\":4997:5238  Campaign({... */\n      dup2\n      mstore\n      0x20\n      add\n        /* \"contracts/DeFi/CrowdfundV2.sol\":5110:5111  0 */\n      0x00\n        /* \"contracts/DeFi/CrowdfundV2.sol\":4997:5238  Campaign({... */\n      dup2\n      mstore\n      0x20\n      add\n        /* \"contracts/DeFi/CrowdfundV2.sol\":5134:5142  _startAt */\n      dup4\n        /* \"contracts/DeFi/CrowdfundV2.sol\":4997:5238  Campaign({... */\n      0xffffffff\n      and\n      dup2\n      mstore\n      0x20\n      add\n        /* \"contracts/DeFi/CrowdfundV2.sol\":5163:5169  _endAt */\n      dup3\n        /* \"contracts/DeFi/CrowdfundV2.sol\":4997:5238  Campaign({... */\n      0xffffffff\n      and\n      dup2\n      mstore\n      0x20\n      add\n        /* \"contracts/DeFi/CrowdfundV2.sol\":5192:5197  false */\n      0x00\n        /* \"contracts/DeFi/CrowdfundV2.sol\":4997:5238  Campaign({... */\n      iszero\n      iszero\n      dup2\n      mstore\n      0x20\n      add\n        /* \"contracts/DeFi/CrowdfundV2.sol\":5222:5227  false */\n      0x00\n        /* \"contracts/DeFi/CrowdfundV2.sol\":4997:5238  Campaign({... */\n      iszero\n      iszero\n      dup2\n      mstore\n      pop\n        /* \"contracts/DeFi/CrowdfundV2.sol\":4978:4987  campaigns */\n      0x04\n        /* \"contracts/DeFi/CrowdfundV2.sol\":4978:4994  campaigns[count] */\n      0x00\n        /* \"contracts/DeFi/CrowdfundV2.sol\":4988:4993  count */\n      sload(0x03)\n        /* \"contracts/DeFi/CrowdfundV2.sol\":4978:4994  campaigns[count] */\n      dup2\n      mstore\n      0x20\n      add\n      swap1\n      dup2\n      mstore\n      0x20\n      add\n      0x00\n      keccak256\n        /* \"contracts/DeFi/CrowdfundV2.sol\":4978:5238  campaigns[count] = Campaign({... */\n      0x00\n      dup3\n      add\n      mload\n      dup2\n      0x00\n      add\n      sstore\n      0x20\n      dup3\n      add\n      mload\n      dup2\n      0x01\n      add\n      exp(0x0100, 0x00)\n      dup2\n      sload\n      dup2\n      0xffffffffffffffffffffffffffffffffffffffff\n      mul\n      not\n      and\n      swap1\n      dup4\n      0xffffffffffffffffffffffffffffffffffffffff\n      and\n      mul\n      or\n      swap1\n      sstore\n      pop\n      0x40\n      dup3\n      add\n      mload\n      dup2\n      0x02\n      add\n      sstore\n      0x60\n      dup3\n      add\n      mload\n      dup2\n      0x03\n      add\n      sstore\n      0x80\n      dup3\n      add\n      mload\n      dup2\n      0x04\n      add\n      exp(0x0100, 0x00)\n      dup2\n      sload\n      dup2\n      0xffffffff\n      mul\n      not\n      and\n      swap1\n      dup4\n      0xffffffff\n      and\n      mul\n      or\n      swap1\n      sstore\n      pop\n      0xa0\n      dup3\n      add\n      mload\n      dup2\n      0x04\n      add\n      exp(0x0100, 0x04)\n      dup2\n      sload\n      dup2\n      0xffffffff\n      mul\n      not\n      and\n      swap1\n      dup4\n      0xffffffff\n      and\n      mul\n      or\n      swap1\n      sstore\n      pop\n      0xc0\n      dup3\n      add\n      mload\n      dup2\n      0x04\n      add\n      exp(0x0100, 0x08)\n      dup2\n      sload\n      dup2\n      0xff\n      mul\n      not\n      and\n      swap1\n      dup4\n      iszero\n      iszero\n      mul\n      or\n      swap1\n      sstore\n      pop\n      0xe0\n      dup3\n      add\n      mload\n      dup2\n      0x04\n      add\n      exp(0x0100, 0x09)\n      dup2\n      sload\n      dup2\n      0xff\n      mul\n      not\n      and\n      swap1\n      dup4\n      iszero\n      iszero\n      mul\n      or\n      swap1\n      sstore\n      pop\n      swap1\n      pop\n      pop\n        /* \"contracts/DeFi/CrowdfundV2.sol\":5268:5278  msg.sender */\n      caller\n        /* \"contracts/DeFi/CrowdfundV2.sol\":5254:5304  Launch(count, msg.sender, _goal, _startAt, _endAt) */\n      0xffffffffffffffffffffffffffffffffffffffff\n      and\n        /* \"contracts/DeFi/CrowdfundV2.sol\":5261:5266  count */\n      sload(0x03)\n        /* \"contracts/DeFi/CrowdfundV2.sol\":5254:5304  Launch(count, msg.sender, _goal, _startAt, _endAt) */\n      0x0601cd0d650b473037e838a2696d41e654433d065b3f56b28d1d3302e44a304f\n        /* \"contracts/DeFi/CrowdfundV2.sol\":5280:5285  _goal */\n      dup6\n        /* \"contracts/DeFi/CrowdfundV2.sol\":5287:5295  _startAt */\n      dup6\n        /* \"contracts/DeFi/CrowdfundV2.sol\":5297:5303  _endAt */\n      dup6\n        /* \"contracts/DeFi/CrowdfundV2.sol\":5254:5304  Launch(count, msg.sender, _goal, _startAt, _endAt) */\n      mload(0x40)\n      tag_94\n      swap4\n      swap3\n      swap2\n      swap1\n      tag_95\n      jump\t// in\n    tag_94:\n      mload(0x40)\n      dup1\n      swap2\n      sub\n      swap1\n      log3\n        /* \"contracts/DeFi/CrowdfundV2.sol\":4645:5311  function launch(uint256 _goal, uint32 _startAt, uint32 _endAt) external {... */\n      pop\n      pop\n      pop\n      jump\t// out\n        /* \"contracts/DeFi/CrowdfundV2.sol\":7701:8233  function claim(... */\n    tag_37:\n        /* \"contracts/DeFi/CrowdfundV2.sol\":7783:7786  _id */\n      dup1\n        /* \"contracts/DeFi/CrowdfundV2.sol\":2788:2789  0 */\n      0x00\n        /* \"contracts/DeFi/CrowdfundV2.sol\":2767:2776  campaigns */\n      0x04\n        /* \"contracts/DeFi/CrowdfundV2.sol\":2767:2781  campaigns[_id] */\n      0x00\n        /* \"contracts/DeFi/CrowdfundV2.sol\":2777:2780  _id */\n      dup4\n        /* \"contracts/DeFi/CrowdfundV2.sol\":2767:2781  campaigns[_id] */\n      dup2\n      mstore\n      0x20\n      add\n      swap1\n      dup2\n      mstore\n      0x20\n      add\n      0x00\n      keccak256\n        /* \"contracts/DeFi/CrowdfundV2.sol\":2767:2784  campaigns[_id].id */\n      0x00\n      add\n      sload\n        /* \"contracts/DeFi/CrowdfundV2.sol\":2767:2789  campaigns[_id].id != 0 */\n      sub\n        /* \"contracts/DeFi/CrowdfundV2.sol\":2759:2817  require(campaigns[_id].id != 0, \"campaign does not exist\") */\n      tag_97\n      jumpi\n      mload(0x40)\n      0x08c379a000000000000000000000000000000000000000000000000000000000\n      dup2\n      mstore\n      0x04\n      add\n      tag_98\n      swap1\n      tag_70\n      jump\t// in\n    tag_98:\n      mload(0x40)\n      dup1\n      swap2\n      sub\n      swap1\n      revert\n    tag_97:\n        /* \"contracts/DeFi/CrowdfundV2.sol\":7808:7811  _id */\n      dup2\n        /* \"contracts/DeFi/CrowdfundV2.sol\":3044:3054  msg.sender */\n      caller\n        /* \"contracts/DeFi/CrowdfundV2.sol\":3018:3054  campaigns[_id].creator == msg.sender */\n      0xffffffffffffffffffffffffffffffffffffffff\n      and\n        /* \"contracts/DeFi/CrowdfundV2.sol\":3018:3027  campaigns */\n      0x04\n        /* \"contracts/DeFi/CrowdfundV2.sol\":3018:3032  campaigns[_id] */\n      0x00\n        /* \"contracts/DeFi/CrowdfundV2.sol\":3028:3031  _id */\n      dup4\n        /* \"contracts/DeFi/CrowdfundV2.sol\":3018:3032  campaigns[_id] */\n      dup2\n      mstore\n      0x20\n      add\n      swap1\n      dup2\n      mstore\n      0x20\n      add\n      0x00\n      keccak256\n        /* \"contracts/DeFi/CrowdfundV2.sol\":3018:3040  campaigns[_id].creator */\n      0x01\n      add\n      0x00\n      swap1\n      sload\n      swap1\n      0x0100\n      exp\n      swap1\n      div\n      0xffffffffffffffffffffffffffffffffffffffff\n      and\n        /* \"contracts/DeFi/CrowdfundV2.sol\":3018:3054  campaigns[_id].creator == msg.sender */\n      0xffffffffffffffffffffffffffffffffffffffff\n      and\n      eq\n        /* \"contracts/DeFi/CrowdfundV2.sol\":3010:3070  require(campaigns[_id].creator == msg.sender, \"not creator\") */\n      tag_100\n      jumpi\n      mload(0x40)\n      0x08c379a000000000000000000000000000000000000000000000000000000000\n      dup2\n      mstore\n      0x04\n      add\n      tag_101\n      swap1\n      tag_102\n      jump\t// in\n    tag_101:\n      mload(0x40)\n      dup1\n      swap2\n      sub\n      swap1\n      revert\n    tag_100:\n        /* \"contracts/DeFi/CrowdfundV2.sol\":7834:7837  _id */\n      dup3\n        /* \"contracts/DeFi/CrowdfundV2.sol\":2895:2904  campaigns */\n      0x04\n        /* \"contracts/DeFi/CrowdfundV2.sol\":2895:2909  campaigns[_id] */\n      0x00\n        /* \"contracts/DeFi/CrowdfundV2.sol\":2905:2908  _id */\n      dup3\n        /* \"contracts/DeFi/CrowdfundV2.sol\":2895:2909  campaigns[_id] */\n      dup2\n      mstore\n      0x20\n      add\n      swap1\n      dup2\n      mstore\n      0x20\n      add\n      0x00\n      keccak256\n        /* \"contracts/DeFi/CrowdfundV2.sol\":2895:2919  campaigns[_id].cancelled */\n      0x04\n      add\n      0x09\n      swap1\n      sload\n      swap1\n      0x0100\n      exp\n      swap1\n      div\n      0xff\n      and\n        /* \"contracts/DeFi/CrowdfundV2.sol\":2894:2919  !campaigns[_id].cancelled */\n      iszero\n        /* \"contracts/DeFi/CrowdfundV2.sol\":2886:2942  require(!campaigns[_id].cancelled, \"campaign cancelled\") */\n      tag_104\n      jumpi\n      mload(0x40)\n      0x08c379a000000000000000000000000000000000000000000000000000000000\n      dup2\n      mstore\n      0x04\n      add\n      tag_105\n      swap1\n      tag_106\n      jump\t// in\n    tag_105:\n      mload(0x40)\n      dup1\n      swap2\n      sub\n      swap1\n      revert\n    tag_104:\n        /* \"contracts/DeFi/CrowdfundV2.sol\":7861:7864  _id */\n      dup4\n        /* \"contracts/DeFi/CrowdfundV2.sol\":3485:3494  campaigns */\n      0x04\n        /* \"contracts/DeFi/CrowdfundV2.sol\":3485:3499  campaigns[_id] */\n      0x00\n        /* \"contracts/DeFi/CrowdfundV2.sol\":3495:3498  _id */\n      dup3\n        /* \"contracts/DeFi/CrowdfundV2.sol\":3485:3499  campaigns[_id] */\n      dup2\n      mstore\n      0x20\n      add\n      swap1\n      dup2\n      mstore\n      0x20\n      add\n      0x00\n      keccak256\n        /* \"contracts/DeFi/CrowdfundV2.sol\":3485:3505  campaigns[_id].endAt */\n      0x04\n      add\n      0x04\n      swap1\n      sload\n      swap1\n      0x0100\n      exp\n      swap1\n      div\n      0xffffffff\n      and\n        /* \"contracts/DeFi/CrowdfundV2.sol\":3467:3505  block.timestamp > campaigns[_id].endAt */\n      0xffffffff\n      and\n        /* \"contracts/DeFi/CrowdfundV2.sol\":3467:3482  block.timestamp */\n      timestamp\n        /* \"contracts/DeFi/CrowdfundV2.sol\":3467:3505  block.timestamp > campaigns[_id].endAt */\n      gt\n        /* \"contracts/DeFi/CrowdfundV2.sol\":3459:3528  require(block.timestamp > campaigns[_id].endAt, \"campaign not ended\") */\n      tag_108\n      jumpi\n      mload(0x40)\n      0x08c379a000000000000000000000000000000000000000000000000000000000\n      dup2\n      mstore\n      0x04\n      add\n      tag_109\n      swap1\n      tag_74\n      jump\t// in\n    tag_109:\n      mload(0x40)\n      dup1\n      swap2\n      sub\n      swap1\n      revert\n    tag_108:\n        /* \"contracts/DeFi/CrowdfundV2.sol\":7880:7905  Campaign storage campaign */\n      0x00\n        /* \"contracts/DeFi/CrowdfundV2.sol\":7908:7917  campaigns */\n      0x04\n        /* \"contracts/DeFi/CrowdfundV2.sol\":7908:7922  campaigns[_id] */\n      0x00\n        /* \"contracts/DeFi/CrowdfundV2.sol\":7918:7921  _id */\n      dup8\n        /* \"contracts/DeFi/CrowdfundV2.sol\":7908:7922  campaigns[_id] */\n      dup2\n      mstore\n      0x20\n      add\n      swap1\n      dup2\n      mstore\n      0x20\n      add\n      0x00\n      keccak256\n        /* \"contracts/DeFi/CrowdfundV2.sol\":7880:7922  Campaign storage campaign = campaigns[_id] */\n      swap1\n      pop\n        /* \"contracts/DeFi/CrowdfundV2.sol\":7942:7950  campaign */\n      dup1\n        /* \"contracts/DeFi/CrowdfundV2.sol\":7942:7958  campaign.claimed */\n      0x04\n      add\n      0x08\n      swap1\n      sload\n      swap1\n      0x0100\n      exp\n      swap1\n      div\n      0xff\n      and\n        /* \"contracts/DeFi/CrowdfundV2.sol\":7941:7958  !campaign.claimed */\n      iszero\n        /* \"contracts/DeFi/CrowdfundV2.sol\":7933:7970  require(!campaign.claimed, \"claimed\") */\n      tag_111\n      jumpi\n      mload(0x40)\n      0x08c379a000000000000000000000000000000000000000000000000000000000\n      dup2\n      mstore\n      0x04\n      add\n      tag_112\n      swap1\n      tag_113\n      jump\t// in\n    tag_112:\n      mload(0x40)\n      dup1\n      swap2\n      sub\n      swap1\n      revert\n    tag_111:\n        /* \"contracts/DeFi/CrowdfundV2.sol\":8008:8016  campaign */\n      dup1\n        /* \"contracts/DeFi/CrowdfundV2.sol\":8008:8021  campaign.goal */\n      0x02\n      add\n      sload\n        /* \"contracts/DeFi/CrowdfundV2.sol\":7988:7996  campaign */\n      dup2\n        /* \"contracts/DeFi/CrowdfundV2.sol\":7988:8004  campaign.pledged */\n      0x03\n      add\n      sload\n        /* \"contracts/DeFi/CrowdfundV2.sol\":7988:8021  campaign.pledged >= campaign.goal */\n      lt\n      iszero\n        /* \"contracts/DeFi/CrowdfundV2.sol\":7980:8040  require(campaign.pledged >= campaign.goal, \"pledged < goal\") */\n      tag_114\n      jumpi\n      mload(0x40)\n      0x08c379a000000000000000000000000000000000000000000000000000000000\n      dup2\n      mstore\n      0x04\n      add\n      tag_115\n      swap1\n      tag_116\n      jump\t// in\n    tag_115:\n      mload(0x40)\n      dup1\n      swap2\n      sub\n      swap1\n      revert\n    tag_114:\n        /* \"contracts/DeFi/CrowdfundV2.sol\":8070:8074  true */\n      0x01\n        /* \"contracts/DeFi/CrowdfundV2.sol\":8051:8059  campaign */\n      dup2\n        /* \"contracts/DeFi/CrowdfundV2.sol\":8051:8067  campaign.claimed */\n      0x04\n      add\n      0x08\n        /* \"contracts/DeFi/CrowdfundV2.sol\":8051:8074  campaign.claimed = true */\n      0x0100\n      exp\n      dup2\n      sload\n      dup2\n      0xff\n      mul\n      not\n      and\n      swap1\n      dup4\n      iszero\n      iszero\n      mul\n      or\n      swap1\n      sstore\n      pop\n        /* \"contracts/DeFi/CrowdfundV2.sol\":8085:8142  token.safeIncreaseAllowance(msg.sender, campaign.pledged) */\n      tag_117\n        /* \"contracts/DeFi/CrowdfundV2.sol\":8113:8123  msg.sender */\n      caller\n        /* \"contracts/DeFi/CrowdfundV2.sol\":8125:8133  campaign */\n      dup3\n        /* \"contracts/DeFi/CrowdfundV2.sol\":8125:8141  campaign.pledged */\n      0x03\n      add\n      sload\n        /* \"contracts/DeFi/CrowdfundV2.sol\":8085:8090  token */\n      0x00\n      0x02\n      swap1\n      sload\n      swap1\n      0x0100\n      exp\n      swap1\n      div\n      0xffffffffffffffffffffffffffffffffffffffff\n      and\n        /* \"contracts/DeFi/CrowdfundV2.sol\":8085:8112  token.safeIncreaseAllowance */\n      0xffffffffffffffffffffffffffffffffffffffff\n      and\n      tag_118\n      swap1\n        /* \"contracts/DeFi/CrowdfundV2.sol\":8085:8142  token.safeIncreaseAllowance(msg.sender, campaign.pledged) */\n      swap3\n      swap2\n      swap1\n      0xffffffff\n      and\n      jump\t// in\n    tag_117:\n        /* \"contracts/DeFi/CrowdfundV2.sol\":8152:8200  token.safeTransfer(msg.sender, campaign.pledged) */\n      tag_119\n        /* \"contracts/DeFi/CrowdfundV2.sol\":8171:8181  msg.sender */\n      caller\n        /* \"contracts/DeFi/CrowdfundV2.sol\":8183:8191  campaign */\n      dup3\n        /* \"contracts/DeFi/CrowdfundV2.sol\":8183:8199  campaign.pledged */\n      0x03\n      add\n      sload\n        /* \"contracts/DeFi/CrowdfundV2.sol\":8152:8157  token */\n      0x00\n      0x02\n      swap1\n      sload\n      swap1\n      0x0100\n      exp\n      swap1\n      div\n      0xffffffffffffffffffffffffffffffffffffffff\n      and\n        /* \"contracts/DeFi/CrowdfundV2.sol\":8152:8170  token.safeTransfer */\n      0xffffffffffffffffffffffffffffffffffffffff\n      and\n      tag_120\n      swap1\n        /* \"contracts/DeFi/CrowdfundV2.sol\":8152:8200  token.safeTransfer(msg.sender, campaign.pledged) */\n      swap3\n      swap2\n      swap1\n      0xffffffff\n      and\n      jump\t// in\n    tag_119:\n        /* \"contracts/DeFi/CrowdfundV2.sol\":8222:8225  _id */\n      dup6\n        /* \"contracts/DeFi/CrowdfundV2.sol\":8216:8226  Claim(_id) */\n      0x7bb2b3c10797baccb6f8c4791f1edd6ca2f0d028ee0eda64b01a9a57e3a653f7\n      mload(0x40)\n      mload(0x40)\n      dup1\n      swap2\n      sub\n      swap1\n      log2\n        /* \"contracts/DeFi/CrowdfundV2.sol\":7870:8233  {... */\n      pop\n        /* \"contracts/DeFi/CrowdfundV2.sol\":2952:2953  _ */\n      pop\n        /* \"contracts/DeFi/CrowdfundV2.sol\":3080:3081  _ */\n      pop\n        /* \"contracts/DeFi/CrowdfundV2.sol\":2827:2828  _ */\n      pop\n        /* \"contracts/DeFi/CrowdfundV2.sol\":7701:8233  function claim(... */\n      pop\n      pop\n      jump\t// out\n        /* \"contracts/DeFi/CrowdfundV2.sol\":5490:5672  function cancel(... */\n    tag_40:\n        /* \"contracts/DeFi/CrowdfundV2.sol\":5557:5560  _id */\n      dup1\n        /* \"contracts/DeFi/CrowdfundV2.sol\":2788:2789  0 */\n      0x00\n        /* \"contracts/DeFi/CrowdfundV2.sol\":2767:2776  campaigns */\n      0x04\n        /* \"contracts/DeFi/CrowdfundV2.sol\":2767:2781  campaigns[_id] */\n      0x00\n        /* \"contracts/DeFi/CrowdfundV2.sol\":2777:2780  _id */\n      dup4\n        /* \"contracts/DeFi/CrowdfundV2.sol\":2767:2781  campaigns[_id] */\n      dup2\n      mstore\n      0x20\n      add\n      swap1\n      dup2\n      mstore\n      0x20\n      add\n      0x00\n      keccak256\n        /* \"contracts/DeFi/CrowdfundV2.sol\":2767:2784  campaigns[_id].id */\n      0x00\n      add\n      sload\n        /* \"contracts/DeFi/CrowdfundV2.sol\":2767:2789  campaigns[_id].id != 0 */\n      sub\n        /* \"contracts/DeFi/CrowdfundV2.sol\":2759:2817  require(campaigns[_id].id != 0, \"campaign does not exist\") */\n      tag_122\n      jumpi\n      mload(0x40)\n      0x08c379a000000000000000000000000000000000000000000000000000000000\n      dup2\n      mstore\n      0x04\n      add\n      tag_123\n      swap1\n      tag_70\n      jump\t// in\n    tag_123:\n      mload(0x40)\n      dup1\n      swap2\n      sub\n      swap1\n      revert\n    tag_122:\n        /* \"contracts/DeFi/CrowdfundV2.sol\":5574:5577  _id */\n      dup2\n        /* \"contracts/DeFi/CrowdfundV2.sol\":3044:3054  msg.sender */\n      caller\n        /* \"contracts/DeFi/CrowdfundV2.sol\":3018:3054  campaigns[_id].creator == msg.sender */\n      0xffffffffffffffffffffffffffffffffffffffff\n      and\n        /* \"contracts/DeFi/CrowdfundV2.sol\":3018:3027  campaigns */\n      0x04\n        /* \"contracts/DeFi/CrowdfundV2.sol\":3018:3032  campaigns[_id] */\n      0x00\n        /* \"contracts/DeFi/CrowdfundV2.sol\":3028:3031  _id */\n      dup4\n        /* \"contracts/DeFi/CrowdfundV2.sol\":3018:3032  campaigns[_id] */\n      dup2\n      mstore\n      0x20\n      add\n      swap1\n      dup2\n      mstore\n      0x20\n      add\n      0x00\n      keccak256\n        /* \"contracts/DeFi/CrowdfundV2.sol\":3018:3040  campaigns[_id].creator */\n      0x01\n      add\n      0x00\n      swap1\n      sload\n      swap1\n      0x0100\n      exp\n      swap1\n      div\n      0xffffffffffffffffffffffffffffffffffffffff\n      and\n        /* \"contracts/DeFi/CrowdfundV2.sol\":3018:3054  campaigns[_id].creator == msg.sender */\n      0xffffffffffffffffffffffffffffffffffffffff\n      and\n      eq\n        /* \"contracts/DeFi/CrowdfundV2.sol\":3010:3070  require(campaigns[_id].creator == msg.sender, \"not creator\") */\n      tag_125\n      jumpi\n      mload(0x40)\n      0x08c379a000000000000000000000000000000000000000000000000000000000\n      dup2\n      mstore\n      0x04\n      add\n      tag_126\n      swap1\n      tag_102\n      jump\t// in\n    tag_126:\n      mload(0x40)\n      dup1\n      swap2\n      sub\n      swap1\n      revert\n    tag_125:\n        /* \"contracts/DeFi/CrowdfundV2.sol\":5592:5595  _id */\n      dup3\n        /* \"contracts/DeFi/CrowdfundV2.sol\":2895:2904  campaigns */\n      0x04\n        /* \"contracts/DeFi/CrowdfundV2.sol\":2895:2909  campaigns[_id] */\n      0x00\n        /* \"contracts/DeFi/CrowdfundV2.sol\":2905:2908  _id */\n      dup3\n        /* \"contracts/DeFi/CrowdfundV2.sol\":2895:2909  campaigns[_id] */\n      dup2\n      mstore\n      0x20\n      add\n      swap1\n      dup2\n      mstore\n      0x20\n      add\n      0x00\n      keccak256\n        /* \"contracts/DeFi/CrowdfundV2.sol\":2895:2919  campaigns[_id].cancelled */\n      0x04\n      add\n      0x09\n      swap1\n      sload\n      swap1\n      0x0100\n      exp\n      swap1\n      div\n      0xff\n      and\n        /* \"contracts/DeFi/CrowdfundV2.sol\":2894:2919  !campaigns[_id].cancelled */\n      iszero\n        /* \"contracts/DeFi/CrowdfundV2.sol\":2886:2942  require(!campaigns[_id].cancelled, \"campaign cancelled\") */\n      tag_128\n      jumpi\n      mload(0x40)\n      0x08c379a000000000000000000000000000000000000000000000000000000000\n      dup2\n      mstore\n      0x04\n      add\n      tag_129\n      swap1\n      tag_106\n      jump\t// in\n    tag_129:\n      mload(0x40)\n      dup1\n      swap2\n      sub\n      swap1\n      revert\n    tag_128:\n        /* \"contracts/DeFi/CrowdfundV2.sol\":5634:5638  true */\n      0x01\n        /* \"contracts/DeFi/CrowdfundV2.sol\":5607:5616  campaigns */\n      0x04\n        /* \"contracts/DeFi/CrowdfundV2.sol\":5607:5621  campaigns[_id] */\n      0x00\n        /* \"contracts/DeFi/CrowdfundV2.sol\":5617:5620  _id */\n      dup7\n        /* \"contracts/DeFi/CrowdfundV2.sol\":5607:5621  campaigns[_id] */\n      dup2\n      mstore\n      0x20\n      add\n      swap1\n      dup2\n      mstore\n      0x20\n      add\n      0x00\n      keccak256\n        /* \"contracts/DeFi/CrowdfundV2.sol\":5607:5631  campaigns[_id].cancelled */\n      0x04\n      add\n      0x09\n        /* \"contracts/DeFi/CrowdfundV2.sol\":5607:5638  campaigns[_id].cancelled = true */\n      0x0100\n      exp\n      dup2\n      sload\n      dup2\n      0xff\n      mul\n      not\n      and\n      swap1\n      dup4\n      iszero\n      iszero\n      mul\n      or\n      swap1\n      sstore\n      pop\n        /* \"contracts/DeFi/CrowdfundV2.sol\":5661:5664  _id */\n      dup4\n        /* \"contracts/DeFi/CrowdfundV2.sol\":5654:5665  Cancel(_id) */\n      0x8bf30e7ff26833413be5f69e1d373744864d600b664204b4a2f9844a8eedb9ed\n      mload(0x40)\n      mload(0x40)\n      dup1\n      swap2\n      sub\n      swap1\n      log2\n        /* \"contracts/DeFi/CrowdfundV2.sol\":3080:3081  _ */\n      pop\n        /* \"contracts/DeFi/CrowdfundV2.sol\":2827:2828  _ */\n      pop\n        /* \"contracts/DeFi/CrowdfundV2.sol\":5490:5672  function cancel(... */\n      pop\n      pop\n      jump\t// out\n        /* \"contracts/DeFi/CrowdfundV2.sol\":1671:1697  uint256 public minDuration */\n    tag_42:\n      sload(0x02)\n      dup2\n      jump\t// out\n        /* \"contracts/DeFi/CrowdfundV2.sol\":1638:1664  uint256 public maxDuration */\n    tag_45:\n      sload(0x01)\n      dup2\n      jump\t// out\n        /* \"contracts/DeFi/CrowdfundV2.sol\":7080:7302  function unpledge(... */\n    tag_50:\n        /* \"contracts/DeFi/CrowdfundV2.sol\":7174:7177  _id */\n      dup2\n        /* \"contracts/DeFi/CrowdfundV2.sol\":2788:2789  0 */\n      0x00\n        /* \"contracts/DeFi/CrowdfundV2.sol\":2767:2776  campaigns */\n      0x04\n        /* \"contracts/DeFi/CrowdfundV2.sol\":2767:2781  campaigns[_id] */\n      0x00\n        /* \"contracts/DeFi/CrowdfundV2.sol\":2777:2780  _id */\n      dup4\n        /* \"contracts/DeFi/CrowdfundV2.sol\":2767:2781  campaigns[_id] */\n      dup2\n      mstore\n      0x20\n      add\n      swap1\n      dup2\n      mstore\n      0x20\n      add\n      0x00\n      keccak256\n        /* \"contracts/DeFi/CrowdfundV2.sol\":2767:2784  campaigns[_id].id */\n      0x00\n      add\n      sload\n        /* \"contracts/DeFi/CrowdfundV2.sol\":2767:2789  campaigns[_id].id != 0 */\n      sub\n        /* \"contracts/DeFi/CrowdfundV2.sol\":2759:2817  require(campaigns[_id].id != 0, \"campaign does not exist\") */\n      tag_132\n      jumpi\n      mload(0x40)\n      0x08c379a000000000000000000000000000000000000000000000000000000000\n      dup2\n      mstore\n      0x04\n      add\n      tag_133\n      swap1\n      tag_70\n      jump\t// in\n    tag_133:\n      mload(0x40)\n      dup1\n      swap2\n      sub\n      swap1\n      revert\n    tag_132:\n        /* \"contracts/DeFi/CrowdfundV2.sol\":7196:7199  _id */\n      dup3\n        /* \"contracts/DeFi/CrowdfundV2.sol\":3350:3359  campaigns */\n      0x04\n        /* \"contracts/DeFi/CrowdfundV2.sol\":3350:3364  campaigns[_id] */\n      0x00\n        /* \"contracts/DeFi/CrowdfundV2.sol\":3360:3363  _id */\n      dup3\n        /* \"contracts/DeFi/CrowdfundV2.sol\":3350:3364  campaigns[_id] */\n      dup2\n      mstore\n      0x20\n      add\n      swap1\n      dup2\n      mstore\n      0x20\n      add\n      0x00\n      keccak256\n        /* \"contracts/DeFi/CrowdfundV2.sol\":3350:3370  campaigns[_id].endAt */\n      0x04\n      add\n      0x04\n      swap1\n      sload\n      swap1\n      0x0100\n      exp\n      swap1\n      div\n      0xffffffff\n      and\n        /* \"contracts/DeFi/CrowdfundV2.sol\":3331:3370  block.timestamp <= campaigns[_id].endAt */\n      0xffffffff\n      and\n        /* \"contracts/DeFi/CrowdfundV2.sol\":3331:3346  block.timestamp */\n      timestamp\n        /* \"contracts/DeFi/CrowdfundV2.sol\":3331:3370  block.timestamp <= campaigns[_id].endAt */\n      gt\n      iszero\n        /* \"contracts/DeFi/CrowdfundV2.sol\":3323:3389  require(block.timestamp <= campaigns[_id].endAt, \"campaign ended\") */\n      tag_135\n      jumpi\n      mload(0x40)\n      0x08c379a000000000000000000000000000000000000000000000000000000000\n      dup2\n      mstore\n      0x04\n      add\n      tag_136\n      swap1\n      tag_137\n      jump\t// in\n    tag_136:\n      mload(0x40)\n      dup1\n      swap2\n      sub\n      swap1\n      revert\n    tag_135:\n        /* \"contracts/DeFi/CrowdfundV2.sol\":7211:7244  _refund(msg.sender, _id, _amount) */\n      tag_139\n        /* \"contracts/DeFi/CrowdfundV2.sol\":7219:7229  msg.sender */\n      caller\n        /* \"contracts/DeFi/CrowdfundV2.sol\":7231:7234  _id */\n      dup6\n        /* \"contracts/DeFi/CrowdfundV2.sol\":7236:7243  _amount */\n      dup6\n        /* \"contracts/DeFi/CrowdfundV2.sol\":7211:7218  _refund */\n      tag_80\n        /* \"contracts/DeFi/CrowdfundV2.sol\":7211:7244  _refund(msg.sender, _id, _amount) */\n      jump\t// in\n    tag_139:\n        /* \"contracts/DeFi/CrowdfundV2.sol\":7275:7285  msg.sender */\n      caller\n        /* \"contracts/DeFi/CrowdfundV2.sol\":7260:7295  Unpledged(_id, msg.sender, _amount) */\n      0xffffffffffffffffffffffffffffffffffffffff\n      and\n        /* \"contracts/DeFi/CrowdfundV2.sol\":7270:7273  _id */\n      dup5\n        /* \"contracts/DeFi/CrowdfundV2.sol\":7260:7295  Unpledged(_id, msg.sender, _amount) */\n      0xfcd29b1632c6748a9a4bb9b4cd5c6486c3c84a8550dce2368f83fef3969d9685\n        /* \"contracts/DeFi/CrowdfundV2.sol\":7287:7294  _amount */\n      dup6\n        /* \"contracts/DeFi/CrowdfundV2.sol\":7260:7295  Unpledged(_id, msg.sender, _amount) */\n      mload(0x40)\n      tag_140\n      swap2\n      swap1\n      tag_21\n      jump\t// in\n    tag_140:\n      mload(0x40)\n      dup1\n      swap2\n      sub\n      swap1\n      log3\n        /* \"contracts/DeFi/CrowdfundV2.sol\":2827:2828  _ */\n      pop\n        /* \"contracts/DeFi/CrowdfundV2.sol\":7080:7302  function unpledge(... */\n      pop\n      pop\n      pop\n      jump\t// out\n        /* \"contracts/DeFi/CrowdfundV2.sol\":3753:4059  function initialize(... */\n    tag_54:\n        /* \"@openzeppelin/contracts-upgradeable/proxy/utils/Initializable.sol\":3268:3287  bool isTopLevelCall */\n      0x00\n        /* \"@openzeppelin/contracts-upgradeable/proxy/utils/Initializable.sol\":3291:3304  _initializing */\n      dup1\n      0x01\n      swap1\n      sload\n      swap1\n      0x0100\n      exp\n      swap1\n      div\n      0xff\n      and\n        /* \"@openzeppelin/contracts-upgradeable/proxy/utils/Initializable.sol\":3290:3304  !_initializing */\n      iszero\n        /* \"@openzeppelin/contracts-upgradeable/proxy/utils/Initializable.sol\":3268:3304  bool isTopLevelCall = !_initializing */\n      swap1\n      pop\n        /* \"@openzeppelin/contracts-upgradeable/proxy/utils/Initializable.sol\":3336:3350  isTopLevelCall */\n      dup1\n        /* \"@openzeppelin/contracts-upgradeable/proxy/utils/Initializable.sol\":3336:3370  isTopLevelCall && _initialized < 1 */\n      dup1\n      iszero\n      tag_142\n      jumpi\n      pop\n        /* \"@openzeppelin/contracts-upgradeable/proxy/utils/Initializable.sol\":3369:3370  1 */\n      0x01\n        /* \"@openzeppelin/contracts-upgradeable/proxy/utils/Initializable.sol\":3354:3366  _initialized */\n      0x00\n      dup1\n      sload\n      swap1\n      0x0100\n      exp\n      swap1\n      div\n      0xff\n      and\n        /* \"@openzeppelin/contracts-upgradeable/proxy/utils/Initializable.sol\":3354:3370  _initialized < 1 */\n      0xff\n      and\n      lt\n        /* \"@openzeppelin/contracts-upgradeable/proxy/utils/Initializable.sol\":3336:3370  isTopLevelCall && _initialized < 1 */\n    tag_142:\n        /* \"@openzeppelin/contracts-upgradeable/proxy/utils/Initializable.sol\":3335:3443  (isTopLevelCall && _initialized < 1) || (!AddressUpgradeable.isContract(address(this)) && _initialized == 1) */\n      dup1\n      tag_143\n      jumpi\n      pop\n        /* \"@openzeppelin/contracts-upgradeable/proxy/utils/Initializable.sol\":3377:3421  AddressUpgradeable.isContract(address(this)) */\n      tag_144\n        /* \"@openzeppelin/contracts-upgradeable/proxy/utils/Initializable.sol\":3415:3419  this */\n      address\n        /* \"@openzeppelin/contracts-upgradeable/proxy/utils/Initializable.sol\":3377:3406  AddressUpgradeable.isContract */\n      tag_145\n        /* \"@openzeppelin/contracts-upgradeable/proxy/utils/Initializable.sol\":3377:3421  AddressUpgradeable.isContract(address(this)) */\n      jump\t// in\n    tag_144:\n        /* \"@openzeppelin/contracts-upgradeable/proxy/utils/Initializable.sol\":3376:3421  !AddressUpgradeable.isContract(address(this)) */\n      iszero\n        /* \"@openzeppelin/contracts-upgradeable/proxy/utils/Initializable.sol\":3376:3442  !AddressUpgradeable.isContract(address(this)) && _initialized == 1 */\n      dup1\n      iszero\n      tag_146\n      jumpi\n      pop\n        /* \"@openzeppelin/contracts-upgradeable/proxy/utils/Initializable.sol\":3441:3442  1 */\n      0x01\n        /* \"@openzeppelin/contracts-upgradeable/proxy/utils/Initializable.sol\":3425:3437  _initialized */\n      0x00\n      dup1\n      sload\n      swap1\n      0x0100\n      exp\n      swap1\n      div\n      0xff\n      and\n        /* \"@openzeppelin/contracts-upgradeable/proxy/utils/Initializable.sol\":3425:3442  _initialized == 1 */\n      0xff\n      and\n      eq\n        /* \"@openzeppelin/contracts-upgradeable/proxy/utils/Initializable.sol\":3376:3442  !AddressUpgradeable.isContract(address(this)) && _initialized == 1 */\n    tag_146:\n        /* \"@openzeppelin/contracts-upgradeable/proxy/utils/Initializable.sol\":3335:3443  (isTopLevelCall && _initialized < 1) || (!AddressUpgradeable.isContract(address(this)) && _initialized == 1) */\n    tag_143:\n        /* \"@openzeppelin/contracts-upgradeable/proxy/utils/Initializable.sol\":3314:3515  require(... */\n      tag_147\n      jumpi\n      mload(0x40)\n      0x08c379a000000000000000000000000000000000000000000000000000000000\n      dup2\n      mstore\n      0x04\n      add\n      tag_148\n      swap1\n      tag_149\n      jump\t// in\n    tag_148:\n      mload(0x40)\n      dup1\n      swap2\n      sub\n      swap1\n      revert\n    tag_147:\n        /* \"@openzeppelin/contracts-upgradeable/proxy/utils/Initializable.sol\":3540:3541  1 */\n      0x01\n        /* \"@openzeppelin/contracts-upgradeable/proxy/utils/Initializable.sol\":3525:3537  _initialized */\n      0x00\n      dup1\n        /* \"@openzeppelin/contracts-upgradeable/proxy/utils/Initializable.sol\":3525:3541  _initialized = 1 */\n      0x0100\n      exp\n      dup2\n      sload\n      dup2\n      0xff\n      mul\n      not\n      and\n      swap1\n      dup4\n      0xff\n      and\n      mul\n      or\n      swap1\n      sstore\n      pop\n        /* \"@openzeppelin/contracts-upgradeable/proxy/utils/Initializable.sol\":3555:3569  isTopLevelCall */\n      dup1\n        /* \"@openzeppelin/contracts-upgradeable/proxy/utils/Initializable.sol\":3551:3616  if (isTopLevelCall) {... */\n      iszero\n      tag_150\n      jumpi\n        /* \"@openzeppelin/contracts-upgradeable/proxy/utils/Initializable.sol\":3601:3605  true */\n      0x01\n        /* \"@openzeppelin/contracts-upgradeable/proxy/utils/Initializable.sol\":3585:3598  _initializing */\n      0x00\n      0x01\n        /* \"@openzeppelin/contracts-upgradeable/proxy/utils/Initializable.sol\":3585:3605  _initializing = true */\n      0x0100\n      exp\n      dup2\n      sload\n      dup2\n      0xff\n      mul\n      not\n      and\n      swap1\n      dup4\n      iszero\n      iszero\n      mul\n      or\n      swap1\n      sstore\n      pop\n        /* \"@openzeppelin/contracts-upgradeable/proxy/utils/Initializable.sol\":3551:3616  if (isTopLevelCall) {... */\n    tag_150:\n        /* \"contracts/DeFi/CrowdfundV2.sol\":3914:3926  _maxDuration */\n      dup2\n        /* \"contracts/DeFi/CrowdfundV2.sol\":3899:3911  _minDuration */\n      dup4\n        /* \"contracts/DeFi/CrowdfundV2.sol\":3899:3926  _minDuration < _maxDuration */\n      lt\n        /* \"contracts/DeFi/CrowdfundV2.sol\":3891:3956  require(_minDuration < _maxDuration, \"minDuration > maxDuration\") */\n      tag_152\n      jumpi\n      mload(0x40)\n      0x08c379a000000000000000000000000000000000000000000000000000000000\n      dup2\n      mstore\n      0x04\n      add\n      tag_153\n      swap1\n      tag_154\n      jump\t// in\n    tag_153:\n      mload(0x40)\n      dup1\n      swap2\n      sub\n      swap1\n      revert\n    tag_152:\n        /* \"contracts/DeFi/CrowdfundV2.sol\":3974:3980  _token */\n      dup4\n        /* \"contracts/DeFi/CrowdfundV2.sol\":3966:3971  token */\n      0x00\n      0x02\n        /* \"contracts/DeFi/CrowdfundV2.sol\":3966:3980  token = _token */\n      0x0100\n      exp\n      dup2\n      sload\n      dup2\n      0xffffffffffffffffffffffffffffffffffffffff\n      mul\n      not\n      and\n      swap1\n      dup4\n      0xffffffffffffffffffffffffffffffffffffffff\n      and\n      mul\n      or\n      swap1\n      sstore\n      pop\n        /* \"contracts/DeFi/CrowdfundV2.sol\":4004:4016  _minDuration */\n      dup3\n        /* \"contracts/DeFi/CrowdfundV2.sol\":3990:4001  minDuration */\n      0x02\n        /* \"contracts/DeFi/CrowdfundV2.sol\":3990:4016  minDuration = _minDuration */\n      dup2\n      swap1\n      sstore\n      pop\n        /* \"contracts/DeFi/CrowdfundV2.sol\":4040:4052  _maxDuration */\n      dup2\n        /* \"contracts/DeFi/CrowdfundV2.sol\":4026:4037  maxDuration */\n      0x01\n        /* \"contracts/DeFi/CrowdfundV2.sol\":4026:4052  maxDuration = _maxDuration */\n      dup2\n      swap1\n      sstore\n      pop\n        /* \"@openzeppelin/contracts-upgradeable/proxy/utils/Initializable.sol\":3640:3654  isTopLevelCall */\n      dup1\n        /* \"@openzeppelin/contracts-upgradeable/proxy/utils/Initializable.sol\":3636:3735  if (isTopLevelCall) {... */\n      iszero\n      tag_155\n      jumpi\n        /* \"@openzeppelin/contracts-upgradeable/proxy/utils/Initializable.sol\":3686:3691  false */\n      0x00\n        /* \"@openzeppelin/contracts-upgradeable/proxy/utils/Initializable.sol\":3670:3683  _initializing */\n      dup1\n      0x01\n        /* \"@openzeppelin/contracts-upgradeable/proxy/utils/Initializable.sol\":3670:3691  _initializing = false */\n      0x0100\n      exp\n      dup2\n      sload\n      dup2\n      0xff\n      mul\n      not\n      and\n      swap1\n      dup4\n      iszero\n      iszero\n      mul\n      or\n      swap1\n      sstore\n      pop\n        /* \"@openzeppelin/contracts-upgradeable/proxy/utils/Initializable.sol\":3710:3724  Initialized(1) */\n      0x7f26b83ff96e1f2b6a682f133852f6798a09c465da95921460cefb3847402498\n        /* \"@openzeppelin/contracts-upgradeable/proxy/utils/Initializable.sol\":3722:3723  1 */\n      0x01\n        /* \"@openzeppelin/contracts-upgradeable/proxy/utils/Initializable.sol\":3710:3724  Initialized(1) */\n      mload(0x40)\n      tag_156\n      swap2\n      swap1\n      tag_157\n      jump\t// in\n    tag_156:\n      mload(0x40)\n      dup1\n      swap2\n      sub\n      swap1\n      log1\n        /* \"@openzeppelin/contracts-upgradeable/proxy/utils/Initializable.sol\":3636:3735  if (isTopLevelCall) {... */\n    tag_155:\n        /* \"@openzeppelin/contracts-upgradeable/proxy/utils/Initializable.sol\":3258:3741  {... */\n      pop\n        /* \"contracts/DeFi/CrowdfundV2.sol\":3753:4059  function initialize(... */\n      pop\n      pop\n      pop\n      jump\t// out\n        /* \"contracts/DeFi/CrowdfundV2.sol\":1994:2062  mapping(uint256 => mapping(address => uint256)) public pledgedAmount */\n    tag_58:\n      mstore(0x20, 0x05)\n      dup2\n      0x00\n      mstore\n      mstore(0x20, keccak256(0x00, 0x40))\n      dup1\n      0x00\n      mstore\n      keccak256(0x00, 0x40)\n      0x00\n      swap2\n      pop\n      swap2\n      pop\n      pop\n      sload\n      dup2\n      jump\t// out\n        /* \"contracts/DeFi/CrowdfundV2.sol\":1497:1516  IERC20 public token */\n    tag_61:\n      0x00\n      0x02\n      swap1\n      sload\n      swap1\n      0x0100\n      exp\n      swap1\n      div\n      0xffffffffffffffffffffffffffffffffffffffff\n      and\n      dup2\n      jump\t// out\n        /* \"contracts/DeFi/CrowdfundV2.sol\":6104:6571  function pledge(... */\n    tag_66:\n        /* \"contracts/DeFi/CrowdfundV2.sol\":6212:6215  _id */\n      dup2\n        /* \"contracts/DeFi/CrowdfundV2.sol\":2788:2789  0 */\n      0x00\n        /* \"contracts/DeFi/CrowdfundV2.sol\":2767:2776  campaigns */\n      0x04\n        /* \"contracts/DeFi/CrowdfundV2.sol\":2767:2781  campaigns[_id] */\n      0x00\n        /* \"contracts/DeFi/CrowdfundV2.sol\":2777:2780  _id */\n      dup4\n        /* \"contracts/DeFi/CrowdfundV2.sol\":2767:2781  campaigns[_id] */\n      dup2\n      mstore\n      0x20\n      add\n      swap1\n      dup2\n      mstore\n      0x20\n      add\n      0x00\n      keccak256\n        /* \"contracts/DeFi/CrowdfundV2.sol\":2767:2784  campaigns[_id].id */\n      0x00\n      add\n      sload\n        /* \"contracts/DeFi/CrowdfundV2.sol\":2767:2789  campaigns[_id].id != 0 */\n      sub\n        /* \"contracts/DeFi/CrowdfundV2.sol\":2759:2817  require(campaigns[_id].id != 0, \"campaign does not exist\") */\n      tag_159\n      jumpi\n      mload(0x40)\n      0x08c379a000000000000000000000000000000000000000000000000000000000\n      dup2\n      mstore\n      0x04\n      add\n      tag_160\n      swap1\n      tag_70\n      jump\t// in\n    tag_160:\n      mload(0x40)\n      dup1\n      swap2\n      sub\n      swap1\n      revert\n    tag_159:\n        /* \"contracts/DeFi/CrowdfundV2.sol\":6238:6241  _id */\n      dup3\n        /* \"contracts/DeFi/CrowdfundV2.sol\":2895:2904  campaigns */\n      0x04\n        /* \"contracts/DeFi/CrowdfundV2.sol\":2895:2909  campaigns[_id] */\n      0x00\n        /* \"contracts/DeFi/CrowdfundV2.sol\":2905:2908  _id */\n      dup3\n        /* \"contracts/DeFi/CrowdfundV2.sol\":2895:2909  campaigns[_id] */\n      dup2\n      mstore\n      0x20\n      add\n      swap1\n      dup2\n      mstore\n      0x20\n      add\n      0x00\n      keccak256\n        /* \"contracts/DeFi/CrowdfundV2.sol\":2895:2919  campaigns[_id].cancelled */\n      0x04\n      add\n      0x09\n      swap1\n      sload\n      swap1\n      0x0100\n      exp\n      swap1\n      div\n      0xff\n      and\n        /* \"contracts/DeFi/CrowdfundV2.sol\":2894:2919  !campaigns[_id].cancelled */\n      iszero\n        /* \"contracts/DeFi/CrowdfundV2.sol\":2886:2942  require(!campaigns[_id].cancelled, \"campaign cancelled\") */\n      tag_162\n      jumpi\n      mload(0x40)\n      0x08c379a000000000000000000000000000000000000000000000000000000000\n      dup2\n      mstore\n      0x04\n      add\n      tag_163\n      swap1\n      tag_106\n      jump\t// in\n    tag_163:\n      mload(0x40)\n      dup1\n      swap2\n      sub\n      swap1\n      revert\n    tag_162:\n        /* \"contracts/DeFi/CrowdfundV2.sol\":6267:6270  _id */\n      dup4\n        /* \"contracts/DeFi/CrowdfundV2.sol\":3182:3191  campaigns */\n      0x04\n        /* \"contracts/DeFi/CrowdfundV2.sol\":3182:3196  campaigns[_id] */\n      0x00\n        /* \"contracts/DeFi/CrowdfundV2.sol\":3192:3195  _id */\n      dup3\n        /* \"contracts/DeFi/CrowdfundV2.sol\":3182:3196  campaigns[_id] */\n      dup2\n      mstore\n      0x20\n      add\n      swap1\n      dup2\n      mstore\n      0x20\n      add\n      0x00\n      keccak256\n        /* \"contracts/DeFi/CrowdfundV2.sol\":3182:3204  campaigns[_id].startAt */\n      0x04\n      add\n      0x00\n      swap1\n      sload\n      swap1\n      0x0100\n      exp\n      swap1\n      div\n      0xffffffff\n      and\n        /* \"contracts/DeFi/CrowdfundV2.sol\":3163:3204  block.timestamp >= campaigns[_id].startAt */\n      0xffffffff\n      and\n        /* \"contracts/DeFi/CrowdfundV2.sol\":3163:3178  block.timestamp */\n      timestamp\n        /* \"contracts/DeFi/CrowdfundV2.sol\":3163:3204  block.timestamp >= campaigns[_id].startAt */\n      lt\n      iszero\n        /* \"contracts/DeFi/CrowdfundV2.sol\":3142:3250  require(... */\n      tag_165\n      jumpi\n      mload(0x40)\n      0x08c379a000000000000000000000000000000000000000000000000000000000\n      dup2\n      mstore\n      0x04\n      add\n      tag_166\n      swap1\n      tag_167\n      jump\t// in\n    tag_166:\n      mload(0x40)\n      dup1\n      swap2\n      sub\n      swap1\n      revert\n    tag_165:\n        /* \"contracts/DeFi/CrowdfundV2.sol\":6297:6300  _id */\n      dup5\n        /* \"contracts/DeFi/CrowdfundV2.sol\":3350:3359  campaigns */\n      0x04\n        /* \"contracts/DeFi/CrowdfundV2.sol\":3350:3364  campaigns[_id] */\n      0x00\n        /* \"contracts/DeFi/CrowdfundV2.sol\":3360:3363  _id */\n      dup3\n        /* \"contracts/DeFi/CrowdfundV2.sol\":3350:3364  campaigns[_id] */\n      dup2\n      mstore\n      0x20\n      add\n      swap1\n      dup2\n      mstore\n      0x20\n      add\n      0x00\n      keccak256\n        /* \"contracts/DeFi/CrowdfundV2.sol\":3350:3370  campaigns[_id].endAt */\n      0x04\n      add\n      0x04\n      swap1\n      sload\n      swap1\n      0x0100\n      exp\n      swap1\n      div\n      0xffffffff\n      and\n        /* \"contracts/DeFi/CrowdfundV2.sol\":3331:3370  block.timestamp <= campaigns[_id].endAt */\n      0xffffffff\n      and\n        /* \"contracts/DeFi/CrowdfundV2.sol\":3331:3346  block.timestamp */\n      timestamp\n        /* \"contracts/DeFi/CrowdfundV2.sol\":3331:3370  block.timestamp <= campaigns[_id].endAt */\n      gt\n      iszero\n        /* \"contracts/DeFi/CrowdfundV2.sol\":3323:3389  require(block.timestamp <= campaigns[_id].endAt, \"campaign ended\") */\n      tag_169\n      jumpi\n      mload(0x40)\n      0x08c379a000000000000000000000000000000000000000000000000000000000\n      dup2\n      mstore\n      0x04\n      add\n      tag_170\n      swap1\n      tag_137\n      jump\t// in\n    tag_170:\n      mload(0x40)\n      dup1\n      swap2\n      sub\n      swap1\n      revert\n    tag_169:\n        /* \"contracts/DeFi/CrowdfundV2.sol\":6316:6341  Campaign storage campaign */\n      0x00\n        /* \"contracts/DeFi/CrowdfundV2.sol\":6344:6353  campaigns */\n      0x04\n        /* \"contracts/DeFi/CrowdfundV2.sol\":6344:6358  campaigns[_id] */\n      0x00\n        /* \"contracts/DeFi/CrowdfundV2.sol\":6354:6357  _id */\n      dup9\n        /* \"contracts/DeFi/CrowdfundV2.sol\":6344:6358  campaigns[_id] */\n      dup2\n      mstore\n      0x20\n      add\n      swap1\n      dup2\n      mstore\n      0x20\n      add\n      0x00\n      keccak256\n        /* \"contracts/DeFi/CrowdfundV2.sol\":6316:6358  Campaign storage campaign = campaigns[_id] */\n      swap1\n      pop\n        /* \"contracts/DeFi/CrowdfundV2.sol\":6389:6396  _amount */\n      dup6\n        /* \"contracts/DeFi/CrowdfundV2.sol\":6369:6377  campaign */\n      dup2\n        /* \"contracts/DeFi/CrowdfundV2.sol\":6369:6385  campaign.pledged */\n      0x03\n      add\n      0x00\n        /* \"contracts/DeFi/CrowdfundV2.sol\":6369:6396  campaign.pledged += _amount */\n      dup3\n      dup3\n      sload\n      tag_172\n      swap2\n      swap1\n      tag_87\n      jump\t// in\n    tag_172:\n      swap3\n      pop\n      pop\n      dup2\n      swap1\n      sstore\n      pop\n        /* \"contracts/DeFi/CrowdfundV2.sol\":6440:6447  _amount */\n      dup6\n        /* \"contracts/DeFi/CrowdfundV2.sol\":6406:6419  pledgedAmount */\n      0x05\n        /* \"contracts/DeFi/CrowdfundV2.sol\":6406:6424  pledgedAmount[_id] */\n      0x00\n        /* \"contracts/DeFi/CrowdfundV2.sol\":6420:6423  _id */\n      dup10\n        /* \"contracts/DeFi/CrowdfundV2.sol\":6406:6424  pledgedAmount[_id] */\n      dup2\n      mstore\n      0x20\n      add\n      swap1\n      dup2\n      mstore\n      0x20\n      add\n      0x00\n      keccak256\n        /* \"contracts/DeFi/CrowdfundV2.sol\":6406:6436  pledgedAmount[_id][msg.sender] */\n      0x00\n        /* \"contracts/DeFi/CrowdfundV2.sol\":6425:6435  msg.sender */\n      caller\n        /* \"contracts/DeFi/CrowdfundV2.sol\":6406:6436  pledgedAmount[_id][msg.sender] */\n      0xffffffffffffffffffffffffffffffffffffffff\n      and\n      0xffffffffffffffffffffffffffffffffffffffff\n      and\n      dup2\n      mstore\n      0x20\n      add\n      swap1\n      dup2\n      mstore\n      0x20\n      add\n      0x00\n      keccak256\n      0x00\n        /* \"contracts/DeFi/CrowdfundV2.sol\":6406:6447  pledgedAmount[_id][msg.sender] += _amount */\n      dup3\n      dup3\n      sload\n      tag_173\n      swap2\n      swap1\n      tag_87\n      jump\t// in\n    tag_173:\n      swap3\n      pop\n      pop\n      dup2\n      swap1\n      sstore\n      pop\n        /* \"contracts/DeFi/CrowdfundV2.sol\":6457:6515  token.safeTransferFrom(msg.sender, address(this), _amount) */\n      tag_174\n        /* \"contracts/DeFi/CrowdfundV2.sol\":6480:6490  msg.sender */\n      caller\n        /* \"contracts/DeFi/CrowdfundV2.sol\":6500:6504  this */\n      address\n        /* \"contracts/DeFi/CrowdfundV2.sol\":6507:6514  _amount */\n      dup9\n        /* \"contracts/DeFi/CrowdfundV2.sol\":6457:6462  token */\n      0x00\n      0x02\n      swap1\n      sload\n      swap1\n      0x0100\n      exp\n      swap1\n      div\n      0xffffffffffffffffffffffffffffffffffffffff\n      and\n        /* \"contracts/DeFi/CrowdfundV2.sol\":6457:6479  token.safeTransferFrom */\n      0xffffffffffffffffffffffffffffffffffffffff\n      and\n      tag_175\n      swap1\n        /* \"contracts/DeFi/CrowdfundV2.sol\":6457:6515  token.safeTransferFrom(msg.sender, address(this), _amount) */\n      swap4\n      swap3\n      swap2\n      swap1\n      0xffffffff\n      and\n      jump\t// in\n    tag_174:\n        /* \"contracts/DeFi/CrowdfundV2.sol\":6544:6554  msg.sender */\n      caller\n        /* \"contracts/DeFi/CrowdfundV2.sol\":6531:6564  Pledged(_id, msg.sender, _amount) */\n      0xffffffffffffffffffffffffffffffffffffffff\n      and\n        /* \"contracts/DeFi/CrowdfundV2.sol\":6539:6542  _id */\n      dup8\n        /* \"contracts/DeFi/CrowdfundV2.sol\":6531:6564  Pledged(_id, msg.sender, _amount) */\n      0x2757ac6a40883f4491cc56930ae964df9034e343e660d5179eb01e198336756b\n        /* \"contracts/DeFi/CrowdfundV2.sol\":6556:6563  _amount */\n      dup9\n        /* \"contracts/DeFi/CrowdfundV2.sol\":6531:6564  Pledged(_id, msg.sender, _amount) */\n      mload(0x40)\n      tag_176\n      swap2\n      swap1\n      tag_21\n      jump\t// in\n    tag_176:\n      mload(0x40)\n      dup1\n      swap2\n      sub\n      swap1\n      log3\n        /* \"contracts/DeFi/CrowdfundV2.sol\":6306:6571  {... */\n      pop\n        /* \"contracts/DeFi/CrowdfundV2.sol\":3260:3261  _ */\n      pop\n        /* \"contracts/DeFi/CrowdfundV2.sol\":2952:2953  _ */\n      pop\n        /* \"contracts/DeFi/CrowdfundV2.sol\":2827:2828  _ */\n      pop\n        /* \"contracts/DeFi/CrowdfundV2.sol\":6104:6571  function pledge(... */\n      pop\n      pop\n      pop\n      jump\t// out\n        /* \"contracts/DeFi/CrowdfundV2.sol\":9338:9730  function _refund(address _donor, uint256 _id, uint256 _amount) private {... */\n    tag_80:\n        /* \"contracts/DeFi/CrowdfundV2.sol\":9450:9451  0 */\n      0x00\n        /* \"contracts/DeFi/CrowdfundV2.sol\":9440:9447  _amount */\n      dup2\n        /* \"contracts/DeFi/CrowdfundV2.sol\":9440:9451  _amount > 0 */\n      gt\n        /* \"contracts/DeFi/CrowdfundV2.sol\":9440:9492  _amount > 0 && _amount <= pledgedAmount[_id][_donor] */\n      dup1\n      iszero\n      tag_178\n      jumpi\n      pop\n        /* \"contracts/DeFi/CrowdfundV2.sol\":9466:9479  pledgedAmount */\n      0x05\n        /* \"contracts/DeFi/CrowdfundV2.sol\":9466:9484  pledgedAmount[_id] */\n      0x00\n        /* \"contracts/DeFi/CrowdfundV2.sol\":9480:9483  _id */\n      dup4\n        /* \"contracts/DeFi/CrowdfundV2.sol\":9466:9484  pledgedAmount[_id] */\n      dup2\n      mstore\n      0x20\n      add\n      swap1\n      dup2\n      mstore\n      0x20\n      add\n      0x00\n      keccak256\n        /* \"contracts/DeFi/CrowdfundV2.sol\":9466:9492  pledgedAmount[_id][_donor] */\n      0x00\n        /* \"contracts/DeFi/CrowdfundV2.sol\":9485:9491  _donor */\n      dup5\n        /* \"contracts/DeFi/CrowdfundV2.sol\":9466:9492  pledgedAmount[_id][_donor] */\n      0xffffffffffffffffffffffffffffffffffffffff\n      and\n      0xffffffffffffffffffffffffffffffffffffffff\n      and\n      dup2\n      mstore\n      0x20\n      add\n      swap1\n      dup2\n      mstore\n      0x20\n      add\n      0x00\n      keccak256\n      sload\n        /* \"contracts/DeFi/CrowdfundV2.sol\":9455:9462  _amount */\n      dup2\n        /* \"contracts/DeFi/CrowdfundV2.sol\":9455:9492  _amount <= pledgedAmount[_id][_donor] */\n      gt\n      iszero\n        /* \"contracts/DeFi/CrowdfundV2.sol\":9440:9492  _amount > 0 && _amount <= pledgedAmount[_id][_donor] */\n    tag_178:\n        /* \"contracts/DeFi/CrowdfundV2.sol\":9419:9532  require(... */\n      tag_179\n      jumpi\n      mload(0x40)\n      0x08c379a000000000000000000000000000000000000000000000000000000000\n      dup2\n      mstore\n      0x04\n      add\n      tag_180\n      swap1\n      tag_181\n      jump\t// in\n    tag_180:\n      mload(0x40)\n      dup1\n      swap2\n      sub\n      swap1\n      revert\n    tag_179:\n        /* \"contracts/DeFi/CrowdfundV2.sol\":9573:9580  _amount */\n      dup1\n        /* \"contracts/DeFi/CrowdfundV2.sol\":9543:9556  pledgedAmount */\n      0x05\n        /* \"contracts/DeFi/CrowdfundV2.sol\":9543:9561  pledgedAmount[_id] */\n      0x00\n        /* \"contracts/DeFi/CrowdfundV2.sol\":9557:9560  _id */\n      dup5\n        /* \"contracts/DeFi/CrowdfundV2.sol\":9543:9561  pledgedAmount[_id] */\n      dup2\n      mstore\n      0x20\n      add\n      swap1\n      dup2\n      mstore\n      0x20\n      add\n      0x00\n      keccak256\n        /* \"contracts/DeFi/CrowdfundV2.sol\":9543:9569  pledgedAmount[_id][_donor] */\n      0x00\n        /* \"contracts/DeFi/CrowdfundV2.sol\":9562:9568  _donor */\n      dup6\n        /* \"contracts/DeFi/CrowdfundV2.sol\":9543:9569  pledgedAmount[_id][_donor] */\n      0xffffffffffffffffffffffffffffffffffffffff\n      and\n      0xffffffffffffffffffffffffffffffffffffffff\n      and\n      dup2\n      mstore\n      0x20\n      add\n      swap1\n      dup2\n      mstore\n      0x20\n      add\n      0x00\n      keccak256\n      0x00\n        /* \"contracts/DeFi/CrowdfundV2.sol\":9543:9580  pledgedAmount[_id][_donor] -= _amount */\n      dup3\n      dup3\n      sload\n      tag_182\n      swap2\n      swap1\n      tag_183\n      jump\t// in\n    tag_182:\n      swap3\n      pop\n      pop\n      dup2\n      swap1\n      sstore\n      pop\n        /* \"contracts/DeFi/CrowdfundV2.sol\":9616:9623  _amount */\n      dup1\n        /* \"contracts/DeFi/CrowdfundV2.sol\":9590:9599  campaigns */\n      0x04\n        /* \"contracts/DeFi/CrowdfundV2.sol\":9590:9604  campaigns[_id] */\n      0x00\n        /* \"contracts/DeFi/CrowdfundV2.sol\":9600:9603  _id */\n      dup5\n        /* \"contracts/DeFi/CrowdfundV2.sol\":9590:9604  campaigns[_id] */\n      dup2\n      mstore\n      0x20\n      add\n      swap1\n      dup2\n      mstore\n      0x20\n      add\n      0x00\n      keccak256\n        /* \"contracts/DeFi/CrowdfundV2.sol\":9590:9612  campaigns[_id].pledged */\n      0x03\n      add\n      0x00\n        /* \"contracts/DeFi/CrowdfundV2.sol\":9590:9623  campaigns[_id].pledged -= _amount */\n      dup3\n      dup3\n      sload\n      tag_184\n      swap2\n      swap1\n      tag_183\n      jump\t// in\n    tag_184:\n      swap3\n      pop\n      pop\n      dup2\n      swap1\n      sstore\n      pop\n        /* \"contracts/DeFi/CrowdfundV2.sol\":9634:9678  token.safeIncreaseAllowance(_donor, _amount) */\n      tag_185\n        /* \"contracts/DeFi/CrowdfundV2.sol\":9662:9668  _donor */\n      dup4\n        /* \"contracts/DeFi/CrowdfundV2.sol\":9670:9677  _amount */\n      dup3\n        /* \"contracts/DeFi/CrowdfundV2.sol\":9634:9639  token */\n      0x00\n      0x02\n      swap1\n      sload\n      swap1\n      0x0100\n      exp\n      swap1\n      div\n      0xffffffffffffffffffffffffffffffffffffffff\n      and\n        /* \"contracts/DeFi/CrowdfundV2.sol\":9634:9661  token.safeIncreaseAllowance */\n      0xffffffffffffffffffffffffffffffffffffffff\n      and\n      tag_118\n      swap1\n        /* \"contracts/DeFi/CrowdfundV2.sol\":9634:9678  token.safeIncreaseAllowance(_donor, _amount) */\n      swap3\n      swap2\n      swap1\n      0xffffffff\n      and\n      jump\t// in\n    tag_185:\n        /* \"contracts/DeFi/CrowdfundV2.sol\":9688:9723  token.safeTransfer(_donor, _amount) */\n      tag_186\n        /* \"contracts/DeFi/CrowdfundV2.sol\":9707:9713  _donor */\n      dup4\n        /* \"contracts/DeFi/CrowdfundV2.sol\":9715:9722  _amount */\n      dup3\n        /* \"contracts/DeFi/CrowdfundV2.sol\":9688:9693  token */\n      0x00\n      0x02\n      swap1\n      sload\n      swap1\n      0x0100\n      exp\n      swap1\n      div\n      0xffffffffffffffffffffffffffffffffffffffff\n      and\n        /* \"contracts/DeFi/CrowdfundV2.sol\":9688:9706  token.safeTransfer */\n      0xffffffffffffffffffffffffffffffffffffffff\n      and\n      tag_120\n      swap1\n        /* \"contracts/DeFi/CrowdfundV2.sol\":9688:9723  token.safeTransfer(_donor, _amount) */\n      swap3\n      swap2\n      swap1\n      0xffffffff\n      and\n      jump\t// in\n    tag_186:\n        /* \"contracts/DeFi/CrowdfundV2.sol\":9338:9730  function _refund(address _donor, uint256 _id, uint256 _amount) private {... */\n      pop\n      pop\n      pop\n      jump\t// out\n        /* \"@openzeppelin/contracts/token/ERC20/utils/SafeERC20.sol\":2084:2394  function safeIncreaseAllowance(... */\n    tag_118:\n        /* \"@openzeppelin/contracts/token/ERC20/utils/SafeERC20.sol\":2210:2230  uint256 newAllowance */\n      0x00\n        /* \"@openzeppelin/contracts/token/ERC20/utils/SafeERC20.sol\":2275:2280  value */\n      dup2\n        /* \"@openzeppelin/contracts/token/ERC20/utils/SafeERC20.sol\":2233:2238  token */\n      dup5\n        /* \"@openzeppelin/contracts/token/ERC20/utils/SafeERC20.sol\":2233:2248  token.allowance */\n      0xffffffffffffffffffffffffffffffffffffffff\n      and\n      0xdd62ed3e\n        /* \"@openzeppelin/contracts/token/ERC20/utils/SafeERC20.sol\":2257:2261  this */\n      address\n        /* \"@openzeppelin/contracts/token/ERC20/utils/SafeERC20.sol\":2264:2271  spender */\n      dup7\n        /* \"@openzeppelin/contracts/token/ERC20/utils/SafeERC20.sol\":2233:2272  token.allowance(address(this), spender) */\n      mload(0x40)\n      dup4\n      0xffffffff\n      and\n      0xe0\n      shl\n      dup2\n      mstore\n      0x04\n      add\n      tag_188\n      swap3\n      swap2\n      swap1\n      tag_189\n      jump\t// in\n    tag_188:\n      0x20\n      mload(0x40)\n      dup1\n      dup4\n      sub\n      dup2\n      dup7\n      gas\n      staticcall\n      iszero\n      dup1\n      iszero\n      tag_191\n      jumpi\n      returndatasize\n      0x00\n      dup1\n      returndatacopy\n      revert(0x00, returndatasize)\n    tag_191:\n      pop\n      pop\n      pop\n      pop\n      mload(0x40)\n      returndatasize\n      not(0x1f)\n      0x1f\n      dup3\n      add\n      and\n      dup3\n      add\n      dup1\n      0x40\n      mstore\n      pop\n      dup2\n      add\n      swap1\n      tag_192\n      swap2\n      swap1\n      tag_193\n      jump\t// in\n    tag_192:\n        /* \"@openzeppelin/contracts/token/ERC20/utils/SafeERC20.sol\":2233:2280  token.allowance(address(this), spender) + value */\n      tag_194\n      swap2\n      swap1\n      tag_87\n      jump\t// in\n    tag_194:\n        /* \"@openzeppelin/contracts/token/ERC20/utils/SafeERC20.sol\":2210:2280  uint256 newAllowance = token.allowance(address(this), spender) + value */\n      swap1\n      pop\n        /* \"@openzeppelin/contracts/token/ERC20/utils/SafeERC20.sol\":2290:2387  _callOptionalReturn(token, abi.encodeWithSelector(token.approve.selector, spender, newAllowance)) */\n      tag_195\n        /* \"@openzeppelin/contracts/token/ERC20/utils/SafeERC20.sol\":2310:2315  token */\n      dup5\n        /* \"@openzeppelin/contracts/token/ERC20/utils/SafeERC20.sol\":2340:2362  token.approve.selector */\n      shl(0xe0, 0x095ea7b3)\n        /* \"@openzeppelin/contracts/token/ERC20/utils/SafeERC20.sol\":2364:2371  spender */\n      dup6\n        /* \"@openzeppelin/contracts/token/ERC20/utils/SafeERC20.sol\":2373:2385  newAllowance */\n      dup5\n        /* \"@openzeppelin/contracts/token/ERC20/utils/SafeERC20.sol\":2317:2386  abi.encodeWithSelector(token.approve.selector, spender, newAllowance) */\n      add(0x24, mload(0x40))\n      tag_196\n      swap3\n      swap2\n      swap1\n      tag_197\n      jump\t// in\n    tag_196:\n      mload(0x40)\n      0x20\n      dup2\n      dup4\n      sub\n      sub\n      dup2\n      mstore\n      swap1\n      0x40\n      mstore\n      swap1\n      not(0xffffffffffffffffffffffffffffffffffffffffffffffffffffffff)\n      and\n      0x20\n      dup3\n      add\n      dup1\n      mload\n      0xffffffffffffffffffffffffffffffffffffffffffffffffffffffff\n      dup4\n      dup2\n      dup4\n      and\n      or\n      dup4\n      mstore\n      pop\n      pop\n      pop\n      pop\n        /* \"@openzeppelin/contracts/token/ERC20/utils/SafeERC20.sol\":2290:2309  _callOptionalReturn */\n      tag_198\n        /* \"@openzeppelin/contracts/token/ERC20/utils/SafeERC20.sol\":2290:2387  _callOptionalReturn(token, abi.encodeWithSelector(token.approve.selector, spender, newAllowance)) */\n      jump\t// in\n    tag_195:\n        /* \"@openzeppelin/contracts/token/ERC20/utils/SafeERC20.sol\":2200:2394  {... */\n      pop\n        /* \"@openzeppelin/contracts/token/ERC20/utils/SafeERC20.sol\":2084:2394  function safeIncreaseAllowance(... */\n      pop\n      pop\n      pop\n      jump\t// out\n        /* \"@openzeppelin/contracts/token/ERC20/utils/SafeERC20.sol\":763:968  function safeTransfer(... */\n    tag_120:\n        /* \"@openzeppelin/contracts/token/ERC20/utils/SafeERC20.sol\":875:961  _callOptionalReturn(token, abi.encodeWithSelector(token.transfer.selector, to, value)) */\n      tag_200\n        /* \"@openzeppelin/contracts/token/ERC20/utils/SafeERC20.sol\":895:900  token */\n      dup4\n        /* \"@openzeppelin/contracts/token/ERC20/utils/SafeERC20.sol\":925:948  token.transfer.selector */\n      shl(0xe0, 0xa9059cbb)\n        /* \"@openzeppelin/contracts/token/ERC20/utils/SafeERC20.sol\":950:952  to */\n      dup5\n        /* \"@openzeppelin/contracts/token/ERC20/utils/SafeERC20.sol\":954:959  value */\n      dup5\n        /* \"@openzeppelin/contracts/token/ERC20/utils/SafeERC20.sol\":902:960  abi.encodeWithSelector(token.transfer.selector, to, value) */\n      add(0x24, mload(0x40))\n      tag_201\n      swap3\n      swap2\n      swap1\n      tag_197\n      jump\t// in\n    tag_201:\n      mload(0x40)\n      0x20\n      dup2\n      dup4\n      sub\n      sub\n      dup2\n      mstore\n      swap1\n      0x40\n      mstore\n      swap1\n      not(0xffffffffffffffffffffffffffffffffffffffffffffffffffffffff)\n      and\n      0x20\n      dup3\n      add\n      dup1\n      mload\n      0xffffffffffffffffffffffffffffffffffffffffffffffffffffffff\n      dup4\n      dup2\n      dup4\n      and\n      or\n      dup4\n      mstore\n      pop\n      pop\n      pop\n      pop\n        /* \"@openzeppelin/contracts/token/ERC20/utils/SafeERC20.sol\":875:894  _callOptionalReturn */\n      tag_198\n        /* \"@openzeppelin/contracts/token/ERC20/utils/SafeERC20.sol\":875:961  _callOptionalReturn(token, abi.encodeWithSelector(token.transfer.selector, to, value)) */\n      jump\t// in\n    tag_200:\n        /* \"@openzeppelin/contracts/token/ERC20/utils/SafeERC20.sol\":763:968  function safeTransfer(... */\n      pop\n      pop\n      pop\n      jump\t// out\n        /* \"@openzeppelin/contracts-upgradeable/utils/AddressUpgradeable.sol\":1186:1506  function isContract(address account) internal view returns (bool) {... */\n    tag_145:\n        /* \"@openzeppelin/contracts-upgradeable/utils/AddressUpgradeable.sol\":1246:1250  bool */\n      0x00\n        /* \"@openzeppelin/contracts-upgradeable/utils/AddressUpgradeable.sol\":1498:1499  0 */\n      dup1\n        /* \"@openzeppelin/contracts-upgradeable/utils/AddressUpgradeable.sol\":1476:1483  account */\n      dup3\n        /* \"@openzeppelin/contracts-upgradeable/utils/AddressUpgradeable.sol\":1476:1495  account.code.length */\n      0xffffffffffffffffffffffffffffffffffffffff\n      and\n      extcodesize\n        /* \"@openzeppelin/contracts-upgradeable/utils/AddressUpgradeable.sol\":1476:1499  account.code.length > 0 */\n      gt\n        /* \"@openzeppelin/contracts-upgradeable/utils/AddressUpgradeable.sol\":1469:1499  return account.code.length > 0 */\n      swap1\n      pop\n        /* \"@openzeppelin/contracts-upgradeable/utils/AddressUpgradeable.sol\":1186:1506  function isContract(address account) internal view returns (bool) {... */\n      swap2\n      swap1\n      pop\n      jump\t// out\n        /* \"@openzeppelin/contracts/token/ERC20/utils/SafeERC20.sol\":974:1215  function safeTransferFrom(... */\n    tag_175:\n        /* \"@openzeppelin/contracts/token/ERC20/utils/SafeERC20.sol\":1112:1208  _callOptionalReturn(token, abi.encodeWithSelector(token.transferFrom.selector, from, to, value)) */\n      tag_204\n        /* \"@openzeppelin/contracts/token/ERC20/utils/SafeERC20.sol\":1132:1137  token */\n      dup5\n        /* \"@openzeppelin/contracts/token/ERC20/utils/SafeERC20.sol\":1162:1189  token.transferFrom.selector */\n      shl(0xe0, 0x23b872dd)\n        /* \"@openzeppelin/contracts/token/ERC20/utils/SafeERC20.sol\":1191:1195  from */\n      dup6\n        /* \"@openzeppelin/contracts/token/ERC20/utils/SafeERC20.sol\":1197:1199  to */\n      dup6\n        /* \"@openzeppelin/contracts/token/ERC20/utils/SafeERC20.sol\":1201:1206  value */\n      dup6\n        /* \"@openzeppelin/contracts/token/ERC20/utils/SafeERC20.sol\":1139:1207  abi.encodeWithSelector(token.transferFrom.selector, from, to, value) */\n      add(0x24, mload(0x40))\n      tag_205\n      swap4\n      swap3\n      swap2\n      swap1\n      tag_206\n      jump\t// in\n    tag_205:\n      mload(0x40)\n      0x20\n      dup2\n      dup4\n      sub\n      sub\n      dup2\n      mstore\n      swap1\n      0x40\n      mstore\n      swap1\n      not(0xffffffffffffffffffffffffffffffffffffffffffffffffffffffff)\n      and\n      0x20\n      dup3\n      add\n      dup1\n      mload\n      0xffffffffffffffffffffffffffffffffffffffffffffffffffffffff\n      dup4\n      dup2\n      dup4\n      and\n      or\n      dup4\n      mstore\n      pop\n      pop\n      pop\n      pop\n        /* \"@openzeppelin/contracts/token/ERC20/utils/SafeERC20.sol\":1112:1131  _callOptionalReturn */\n      tag_198\n        /* \"@openzeppelin/contracts/token/ERC20/utils/SafeERC20.sol\":1112:1208  _callOptionalReturn(token, abi.encodeWithSelector(token.transferFrom.selector, from, to, value)) */\n      jump\t// in\n    tag_204:\n        /* \"@openzeppelin/contracts/token/ERC20/utils/SafeERC20.sol\":974:1215  function safeTransferFrom(... */\n      pop\n      pop\n      pop\n      pop\n      jump\t// out\n        /* \"@openzeppelin/contracts/token/ERC20/utils/SafeERC20.sol\":3747:4453  function _callOptionalReturn(IERC20 token, bytes memory data) private {... */\n    tag_198:\n        /* \"@openzeppelin/contracts/token/ERC20/utils/SafeERC20.sol\":4166:4189  bytes memory returndata */\n      0x00\n        /* \"@openzeppelin/contracts/token/ERC20/utils/SafeERC20.sol\":4192:4261  address(token).functionCall(data, \"SafeERC20: low-level call failed\") */\n      tag_208\n        /* \"@openzeppelin/contracts/token/ERC20/utils/SafeERC20.sol\":4220:4224  data */\n      dup3\n        /* \"@openzeppelin/contracts/token/ERC20/utils/SafeERC20.sol\":4192:4261  address(token).functionCall(data, \"SafeERC20: low-level call failed\") */\n      mload(0x40)\n      dup1\n      0x40\n      add\n      0x40\n      mstore\n      dup1\n      0x20\n      dup2\n      mstore\n      0x20\n      add\n      0x5361666545524332303a206c6f772d6c6576656c2063616c6c206661696c6564\n      dup2\n      mstore\n      pop\n        /* \"@openzeppelin/contracts/token/ERC20/utils/SafeERC20.sol\":4200:4205  token */\n      dup6\n        /* \"@openzeppelin/contracts/token/ERC20/utils/SafeERC20.sol\":4192:4219  address(token).functionCall */\n      0xffffffffffffffffffffffffffffffffffffffff\n      and\n      tag_209\n      swap1\n        /* \"@openzeppelin/contracts/token/ERC20/utils/SafeERC20.sol\":4192:4261  address(token).functionCall(data, \"SafeERC20: low-level call failed\") */\n      swap3\n      swap2\n      swap1\n      0xffffffff\n      and\n      jump\t// in\n    tag_208:\n        /* \"@openzeppelin/contracts/token/ERC20/utils/SafeERC20.sol\":4166:4261  bytes memory returndata = address(token).functionCall(data, \"SafeERC20: low-level call failed\") */\n      swap1\n      pop\n        /* \"@openzeppelin/contracts/token/ERC20/utils/SafeERC20.sol\":4295:4296  0 */\n      0x00\n        /* \"@openzeppelin/contracts/token/ERC20/utils/SafeERC20.sol\":4275:4285  returndata */\n      dup2\n        /* \"@openzeppelin/contracts/token/ERC20/utils/SafeERC20.sol\":4275:4292  returndata.length */\n      mload\n        /* \"@openzeppelin/contracts/token/ERC20/utils/SafeERC20.sol\":4275:4296  returndata.length > 0 */\n      gt\n        /* \"@openzeppelin/contracts/token/ERC20/utils/SafeERC20.sol\":4271:4447  if (returndata.length > 0) {... */\n      iszero\n      tag_210\n      jumpi\n        /* \"@openzeppelin/contracts/token/ERC20/utils/SafeERC20.sol\":4370:4380  returndata */\n      dup1\n        /* \"@openzeppelin/contracts/token/ERC20/utils/SafeERC20.sol\":4359:4389  abi.decode(returndata, (bool)) */\n      dup1\n      0x20\n      add\n      swap1\n      mload\n      dup2\n      add\n      swap1\n      tag_211\n      swap2\n      swap1\n      tag_212\n      jump\t// in\n    tag_211:\n        /* \"@openzeppelin/contracts/token/ERC20/utils/SafeERC20.sol\":4351:4436  require(abi.decode(returndata, (bool)), \"SafeERC20: ERC20 operation did not succeed\") */\n      tag_213\n      jumpi\n      mload(0x40)\n      0x08c379a000000000000000000000000000000000000000000000000000000000\n      dup2\n      mstore\n      0x04\n      add\n      tag_214\n      swap1\n      tag_215\n      jump\t// in\n    tag_214:\n      mload(0x40)\n      dup1\n      swap2\n      sub\n      swap1\n      revert\n    tag_213:\n        /* \"@openzeppelin/contracts/token/ERC20/utils/SafeERC20.sol\":4271:4447  if (returndata.length > 0) {... */\n    tag_210:\n        /* \"@openzeppelin/contracts/token/ERC20/utils/SafeERC20.sol\":3817:4453  {... */\n      pop\n        /* \"@openzeppelin/contracts/token/ERC20/utils/SafeERC20.sol\":3747:4453  function _callOptionalReturn(IERC20 token, bytes memory data) private {... */\n      pop\n      pop\n      jump\t// out\n        /* \"@openzeppelin/contracts/utils/Address.sol\":3861:4084  function functionCall(... */\n    tag_209:\n        /* \"@openzeppelin/contracts/utils/Address.sol\":3994:4006  bytes memory */\n      0x60\n        /* \"@openzeppelin/contracts/utils/Address.sol\":4025:4077  functionCallWithValue(target, data, 0, errorMessage) */\n      tag_217\n        /* \"@openzeppelin/contracts/utils/Address.sol\":4047:4053  target */\n      dup5\n        /* \"@openzeppelin/contracts/utils/Address.sol\":4055:4059  data */\n      dup5\n        /* \"@openzeppelin/contracts/utils/Address.sol\":4061:4062  0 */\n      0x00\n        /* \"@openzeppelin/contracts/utils/Address.sol\":4064:4076  errorMessage */\n      dup6\n        /* \"@openzeppelin/contracts/utils/Address.sol\":4025:4046  functionCallWithValue */\n      tag_218\n        /* \"@openzeppelin/contracts/utils/Address.sol\":4025:4077  functionCallWithValue(target, data, 0, errorMessage) */\n      jump\t// in\n    tag_217:\n        /* \"@openzeppelin/contracts/utils/Address.sol\":4018:4077  return functionCallWithValue(target, data, 0, errorMessage) */\n      swap1\n      pop\n        /* \"@openzeppelin/contracts/utils/Address.sol\":3861:4084  function functionCall(... */\n      swap4\n      swap3\n      pop\n      pop\n      pop\n      jump\t// out\n        /* \"@openzeppelin/contracts/utils/Address.sol\":4948:5447  function functionCallWithValue(... */\n    tag_218:\n        /* \"@openzeppelin/contracts/utils/Address.sol\":5113:5125  bytes memory */\n      0x60\n        /* \"@openzeppelin/contracts/utils/Address.sol\":5170:5175  value */\n      dup3\n        /* \"@openzeppelin/contracts/utils/Address.sol\":5145:5166  address(this).balance */\n      selfbalance\n        /* \"@openzeppelin/contracts/utils/Address.sol\":5145:5175  address(this).balance >= value */\n      lt\n      iszero\n        /* \"@openzeppelin/contracts/utils/Address.sol\":5137:5218  require(address(this).balance >= value, \"Address: insufficient balance for call\") */\n      tag_220\n      jumpi\n      mload(0x40)\n      0x08c379a000000000000000000000000000000000000000000000000000000000\n      dup2\n      mstore\n      0x04\n      add\n      tag_221\n      swap1\n      tag_222\n      jump\t// in\n    tag_221:\n      mload(0x40)\n      dup1\n      swap2\n      sub\n      swap1\n      revert\n    tag_220:\n        /* \"@openzeppelin/contracts/utils/Address.sol\":5236:5254  isContract(target) */\n      tag_223\n        /* \"@openzeppelin/contracts/utils/Address.sol\":5247:5253  target */\n      dup6\n        /* \"@openzeppelin/contracts/utils/Address.sol\":5236:5246  isContract */\n      tag_224\n        /* \"@openzeppelin/contracts/utils/Address.sol\":5236:5254  isContract(target) */\n      jump\t// in\n    tag_223:\n        /* \"@openzeppelin/contracts/utils/Address.sol\":5228:5288  require(isContract(target), \"Address: call to non-contract\") */\n      tag_225\n      jumpi\n      mload(0x40)\n      0x08c379a000000000000000000000000000000000000000000000000000000000\n      dup2\n      mstore\n      0x04\n      add\n      tag_226\n      swap1\n      tag_227\n      jump\t// in\n    tag_226:\n      mload(0x40)\n      dup1\n      swap2\n      sub\n      swap1\n      revert\n    tag_225:\n        /* \"@openzeppelin/contracts/utils/Address.sol\":5300:5312  bool success */\n      0x00\n        /* \"@openzeppelin/contracts/utils/Address.sol\":5314:5337  bytes memory returndata */\n      dup1\n        /* \"@openzeppelin/contracts/utils/Address.sol\":5341:5347  target */\n      dup7\n        /* \"@openzeppelin/contracts/utils/Address.sol\":5341:5352  target.call */\n      0xffffffffffffffffffffffffffffffffffffffff\n      and\n        /* \"@openzeppelin/contracts/utils/Address.sol\":5360:5365  value */\n      dup6\n        /* \"@openzeppelin/contracts/utils/Address.sol\":5367:5371  data */\n      dup8\n        /* \"@openzeppelin/contracts/utils/Address.sol\":5341:5372  target.call{value: value}(data) */\n      mload(0x40)\n      tag_228\n      swap2\n      swap1\n      tag_229\n      jump\t// in\n    tag_228:\n      0x00\n      mload(0x40)\n      dup1\n      dup4\n      sub\n      dup2\n      dup6\n      dup8\n      gas\n      call\n      swap3\n      pop\n      pop\n      pop\n      returndatasize\n      dup1\n      0x00\n      dup2\n      eq\n      tag_232\n      jumpi\n      mload(0x40)\n      swap2\n      pop\n      and(add(returndatasize, 0x3f), not(0x1f))\n      dup3\n      add\n      0x40\n      mstore\n      returndatasize\n      dup3\n      mstore\n      returndatasize\n      0x00\n      0x20\n      dup5\n      add\n      returndatacopy\n      jump(tag_231)\n    tag_232:\n      0x60\n      swap2\n      pop\n    tag_231:\n      pop\n        /* \"@openzeppelin/contracts/utils/Address.sol\":5299:5372  (bool success, bytes memory returndata) = target.call{value: value}(data) */\n      swap2\n      pop\n      swap2\n      pop\n        /* \"@openzeppelin/contracts/utils/Address.sol\":5389:5440  verifyCallResult(success, returndata, errorMessage) */\n      tag_233\n        /* \"@openzeppelin/contracts/utils/Address.sol\":5406:5413  success */\n      dup3\n        /* \"@openzeppelin/contracts/utils/Address.sol\":5415:5425  returndata */\n      dup3\n        /* \"@openzeppelin/contracts/utils/Address.sol\":5427:5439  errorMessage */\n      dup7\n        /* \"@openzeppelin/contracts/utils/Address.sol\":5389:5405  verifyCallResult */\n      tag_234\n        /* \"@openzeppelin/contracts/utils/Address.sol\":5389:5440  verifyCallResult(success, returndata, errorMessage) */\n      jump\t// in\n    tag_233:\n        /* \"@openzeppelin/contracts/utils/Address.sol\":5382:5440  return verifyCallResult(success, returndata, errorMessage) */\n      swap3\n      pop\n      pop\n      pop\n        /* \"@openzeppelin/contracts/utils/Address.sol\":4948:5447  function functionCallWithValue(... */\n      swap5\n      swap4\n      pop\n      pop\n      pop\n      pop\n      jump\t// out\n        /* \"@openzeppelin/contracts/utils/Address.sol\":1175:1495  function isContract(address account) internal view returns (bool) {... */\n    tag_224:\n        /* \"@openzeppelin/contracts/utils/Address.sol\":1235:1239  bool */\n      0x00\n        /* \"@openzeppelin/contracts/utils/Address.sol\":1487:1488  0 */\n      dup1\n        /* \"@openzeppelin/contracts/utils/Address.sol\":1465:1472  account */\n      dup3\n        /* \"@openzeppelin/contracts/utils/Address.sol\":1465:1484  account.code.length */\n      0xffffffffffffffffffffffffffffffffffffffff\n      and\n      extcodesize\n        /* \"@openzeppelin/contracts/utils/Address.sol\":1465:1488  account.code.length > 0 */\n      gt\n        /* \"@openzeppelin/contracts/utils/Address.sol\":1458:1488  return account.code.length > 0 */\n      swap1\n      pop\n        /* \"@openzeppelin/contracts/utils/Address.sol\":1175:1495  function isContract(address account) internal view returns (bool) {... */\n      swap2\n      swap1\n      pop\n      jump\t// out\n        /* \"@openzeppelin/contracts/utils/Address.sol\":7561:8253  function verifyCallResult(... */\n    tag_234:\n        /* \"@openzeppelin/contracts/utils/Address.sol\":7707:7719  bytes memory */\n      0x60\n        /* \"@openzeppelin/contracts/utils/Address.sol\":7735:7742  success */\n      dup4\n        /* \"@openzeppelin/contracts/utils/Address.sol\":7731:8247  if (success) {... */\n      iszero\n      tag_237\n      jumpi\n        /* \"@openzeppelin/contracts/utils/Address.sol\":7765:7775  returndata */\n      dup3\n        /* \"@openzeppelin/contracts/utils/Address.sol\":7758:7775  return returndata */\n      swap1\n      pop\n      jump(tag_236)\n        /* \"@openzeppelin/contracts/utils/Address.sol\":7731:8247  if (success) {... */\n    tag_237:\n        /* \"@openzeppelin/contracts/utils/Address.sol\":7896:7897  0 */\n      0x00\n        /* \"@openzeppelin/contracts/utils/Address.sol\":7876:7886  returndata */\n      dup4\n        /* \"@openzeppelin/contracts/utils/Address.sol\":7876:7893  returndata.length */\n      mload\n        /* \"@openzeppelin/contracts/utils/Address.sol\":7876:7897  returndata.length > 0 */\n      gt\n        /* \"@openzeppelin/contracts/utils/Address.sol\":7872:8237  if (returndata.length > 0) {... */\n      iszero\n      tag_239\n      jumpi\n        /* \"@openzeppelin/contracts/utils/Address.sol\":8070:8080  returndata */\n      dup3\n        /* \"@openzeppelin/contracts/utils/Address.sol\":8064:8081  mload(returndata) */\n      mload\n        /* \"@openzeppelin/contracts/utils/Address.sol\":8130:8145  returndata_size */\n      dup1\n        /* \"@openzeppelin/contracts/utils/Address.sol\":8117:8127  returndata */\n      dup5\n        /* \"@openzeppelin/contracts/utils/Address.sol\":8113:8115  32 */\n      0x20\n        /* \"@openzeppelin/contracts/utils/Address.sol\":8109:8128  add(32, returndata) */\n      add\n        /* \"@openzeppelin/contracts/utils/Address.sol\":8102:8146  revert(add(32, returndata), returndata_size) */\n      revert\n        /* \"@openzeppelin/contracts/utils/Address.sol\":7872:8237  if (returndata.length > 0) {... */\n    tag_239:\n        /* \"@openzeppelin/contracts/utils/Address.sol\":8209:8221  errorMessage */\n      dup2\n        /* \"@openzeppelin/contracts/utils/Address.sol\":8202:8222  revert(errorMessage) */\n      mload(0x40)\n      0x08c379a000000000000000000000000000000000000000000000000000000000\n      dup2\n      mstore\n      0x04\n      add\n      tag_241\n      swap2\n      swap1\n      tag_242\n      jump\t// in\n    tag_241:\n      mload(0x40)\n      dup1\n      swap2\n      sub\n      swap1\n      revert\n        /* \"@openzeppelin/contracts/utils/Address.sol\":7561:8253  function verifyCallResult(... */\n    tag_236:\n      swap4\n      swap3\n      pop\n      pop\n      pop\n      jump\t// out\n        /* \"#utility.yul\":7:84   */\n    tag_243:\n        /* \"#utility.yul\":44:51   */\n      0x00\n        /* \"#utility.yul\":73:78   */\n      dup2\n        /* \"#utility.yul\":62:78   */\n      swap1\n      pop\n        /* \"#utility.yul\":7:84   */\n      swap2\n      swap1\n      pop\n      jump\t// out\n        /* \"#utility.yul\":90:208   */\n    tag_244:\n        /* \"#utility.yul\":177:201   */\n      tag_322\n        /* \"#utility.yul\":195:200   */\n      dup2\n        /* \"#utility.yul\":177:201   */\n      tag_243\n      jump\t// in\n    tag_322:\n        /* \"#utility.yul\":172:175   */\n      dup3\n        /* \"#utility.yul\":165:202   */\n      mstore\n        /* \"#utility.yul\":90:208   */\n      pop\n      pop\n      jump\t// out\n        /* \"#utility.yul\":214:436   */\n    tag_21:\n        /* \"#utility.yul\":307:311   */\n      0x00\n        /* \"#utility.yul\":345:347   */\n      0x20\n        /* \"#utility.yul\":334:343   */\n      dup3\n        /* \"#utility.yul\":330:348   */\n      add\n        /* \"#utility.yul\":322:348   */\n      swap1\n      pop\n        /* \"#utility.yul\":358:429   */\n      tag_324\n        /* \"#utility.yul\":426:427   */\n      0x00\n        /* \"#utility.yul\":415:424   */\n      dup4\n        /* \"#utility.yul\":411:428   */\n      add\n        /* \"#utility.yul\":402:408   */\n      dup5\n        /* \"#utility.yul\":358:429   */\n      tag_244\n      jump\t// in\n    tag_324:\n        /* \"#utility.yul\":214:436   */\n      swap3\n      swap2\n      pop\n      pop\n      jump\t// out\n        /* \"#utility.yul\":523:640   */\n    tag_246:\n        /* \"#utility.yul\":632:633   */\n      0x00\n        /* \"#utility.yul\":629:630   */\n      dup1\n        /* \"#utility.yul\":622:634   */\n      revert\n        /* \"#utility.yul\":769:891   */\n    tag_248:\n        /* \"#utility.yul\":842:866   */\n      tag_329\n        /* \"#utility.yul\":860:865   */\n      dup2\n        /* \"#utility.yul\":842:866   */\n      tag_243\n      jump\t// in\n    tag_329:\n        /* \"#utility.yul\":835:840   */\n      dup2\n        /* \"#utility.yul\":832:867   */\n      eq\n        /* \"#utility.yul\":822:885   */\n      tag_330\n      jumpi\n        /* \"#utility.yul\":881:882   */\n      0x00\n        /* \"#utility.yul\":878:879   */\n      dup1\n        /* \"#utility.yul\":871:883   */\n      revert\n        /* \"#utility.yul\":822:885   */\n    tag_330:\n        /* \"#utility.yul\":769:891   */\n      pop\n      jump\t// out\n        /* \"#utility.yul\":897:1036   */\n    tag_249:\n        /* \"#utility.yul\":943:948   */\n      0x00\n        /* \"#utility.yul\":981:987   */\n      dup2\n        /* \"#utility.yul\":968:988   */\n      calldataload\n        /* \"#utility.yul\":959:988   */\n      swap1\n      pop\n        /* \"#utility.yul\":997:1030   */\n      tag_332\n        /* \"#utility.yul\":1024:1029   */\n      dup2\n        /* \"#utility.yul\":997:1030   */\n      tag_248\n      jump\t// in\n    tag_332:\n        /* \"#utility.yul\":897:1036   */\n      swap3\n      swap2\n      pop\n      pop\n      jump\t// out\n        /* \"#utility.yul\":1042:1371   */\n    tag_24:\n        /* \"#utility.yul\":1101:1107   */\n      0x00\n        /* \"#utility.yul\":1150:1152   */\n      0x20\n        /* \"#utility.yul\":1138:1147   */\n      dup3\n        /* \"#utility.yul\":1129:1136   */\n      dup5\n        /* \"#utility.yul\":1125:1148   */\n      sub\n        /* \"#utility.yul\":1121:1153   */\n      slt\n        /* \"#utility.yul\":1118:1237   */\n      iszero\n      tag_334\n      jumpi\n        /* \"#utility.yul\":1156:1235   */\n      tag_335\n      tag_246\n      jump\t// in\n    tag_335:\n        /* \"#utility.yul\":1118:1237   */\n    tag_334:\n        /* \"#utility.yul\":1276:1277   */\n      0x00\n        /* \"#utility.yul\":1301:1354   */\n      tag_336\n        /* \"#utility.yul\":1346:1353   */\n      dup5\n        /* \"#utility.yul\":1337:1343   */\n      dup3\n        /* \"#utility.yul\":1326:1335   */\n      dup6\n        /* \"#utility.yul\":1322:1344   */\n      add\n        /* \"#utility.yul\":1301:1354   */\n      tag_249\n      jump\t// in\n    tag_336:\n        /* \"#utility.yul\":1291:1354   */\n      swap2\n      pop\n        /* \"#utility.yul\":1247:1364   */\n      pop\n        /* \"#utility.yul\":1042:1371   */\n      swap3\n      swap2\n      pop\n      pop\n      jump\t// out\n        /* \"#utility.yul\":1377:1503   */\n    tag_250:\n        /* \"#utility.yul\":1414:1421   */\n      0x00\n        /* \"#utility.yul\":1454:1496   */\n      0xffffffffffffffffffffffffffffffffffffffff\n        /* \"#utility.yul\":1447:1452   */\n      dup3\n        /* \"#utility.yul\":1443:1497   */\n      and\n        /* \"#utility.yul\":1432:1497   */\n      swap1\n      pop\n        /* \"#utility.yul\":1377:1503   */\n      swap2\n      swap1\n      pop\n      jump\t// out\n        /* \"#utility.yul\":1509:1605   */\n    tag_251:\n        /* \"#utility.yul\":1546:1553   */\n      0x00\n        /* \"#utility.yul\":1575:1599   */\n      tag_339\n        /* \"#utility.yul\":1593:1598   */\n      dup3\n        /* \"#utility.yul\":1575:1599   */\n      tag_250\n      jump\t// in\n    tag_339:\n        /* \"#utility.yul\":1564:1599   */\n      swap1\n      pop\n        /* \"#utility.yul\":1509:1605   */\n      swap2\n      swap1\n      pop\n      jump\t// out\n        /* \"#utility.yul\":1611:1729   */\n    tag_252:\n        /* \"#utility.yul\":1698:1722   */\n      tag_341\n        /* \"#utility.yul\":1716:1721   */\n      dup2\n        /* \"#utility.yul\":1698:1722   */\n      tag_251\n      jump\t// in\n    tag_341:\n        /* \"#utility.yul\":1693:1696   */\n      dup3\n        /* \"#utility.yul\":1686:1723   */\n      mstore\n        /* \"#utility.yul\":1611:1729   */\n      pop\n      pop\n      jump\t// out\n        /* \"#utility.yul\":1735:1828   */\n    tag_253:\n        /* \"#utility.yul\":1771:1778   */\n      0x00\n        /* \"#utility.yul\":1811:1821   */\n      0xffffffff\n        /* \"#utility.yul\":1804:1809   */\n      dup3\n        /* \"#utility.yul\":1800:1822   */\n      and\n        /* \"#utility.yul\":1789:1822   */\n      swap1\n      pop\n        /* \"#utility.yul\":1735:1828   */\n      swap2\n      swap1\n      pop\n      jump\t// out\n        /* \"#utility.yul\":1834:1949   */\n    tag_254:\n        /* \"#utility.yul\":1919:1942   */\n      tag_344\n        /* \"#utility.yul\":1936:1941   */\n      dup2\n        /* \"#utility.yul\":1919:1942   */\n      tag_253\n      jump\t// in\n    tag_344:\n        /* \"#utility.yul\":1914:1917   */\n      dup3\n        /* \"#utility.yul\":1907:1943   */\n      mstore\n        /* \"#utility.yul\":1834:1949   */\n      pop\n      pop\n      jump\t// out\n        /* \"#utility.yul\":1955:2045   */\n    tag_255:\n        /* \"#utility.yul\":1989:1996   */\n      0x00\n        /* \"#utility.yul\":2032:2037   */\n      dup2\n        /* \"#utility.yul\":2025:2038   */\n      iszero\n        /* \"#utility.yul\":2018:2039   */\n      iszero\n        /* \"#utility.yul\":2007:2039   */\n      swap1\n      pop\n        /* \"#utility.yul\":1955:2045   */\n      swap2\n      swap1\n      pop\n      jump\t// out\n        /* \"#utility.yul\":2051:2160   */\n    tag_256:\n        /* \"#utility.yul\":2132:2153   */\n      tag_347\n        /* \"#utility.yul\":2147:2152   */\n      dup2\n        /* \"#utility.yul\":2132:2153   */\n      tag_255\n      jump\t// in\n    tag_347:\n        /* \"#utility.yul\":2127:2130   */\n      dup3\n        /* \"#utility.yul\":2120:2154   */\n      mstore\n        /* \"#utility.yul\":2051:2160   */\n      pop\n      pop\n      jump\t// out\n        /* \"#utility.yul\":2166:3131   */\n    tag_27:\n        /* \"#utility.yul\":2439:2443   */\n      0x00\n        /* \"#utility.yul\":2477:2480   */\n      0x0100\n        /* \"#utility.yul\":2466:2475   */\n      dup3\n        /* \"#utility.yul\":2462:2481   */\n      add\n        /* \"#utility.yul\":2454:2481   */\n      swap1\n      pop\n        /* \"#utility.yul\":2491:2562   */\n      tag_349\n        /* \"#utility.yul\":2559:2560   */\n      0x00\n        /* \"#utility.yul\":2548:2557   */\n      dup4\n        /* \"#utility.yul\":2544:2561   */\n      add\n        /* \"#utility.yul\":2535:2541   */\n      dup12\n        /* \"#utility.yul\":2491:2562   */\n      tag_244\n      jump\t// in\n    tag_349:\n        /* \"#utility.yul\":2572:2644   */\n      tag_350\n        /* \"#utility.yul\":2640:2642   */\n      0x20\n        /* \"#utility.yul\":2629:2638   */\n      dup4\n        /* \"#utility.yul\":2625:2643   */\n      add\n        /* \"#utility.yul\":2616:2622   */\n      dup11\n        /* \"#utility.yul\":2572:2644   */\n      tag_252\n      jump\t// in\n    tag_350:\n        /* \"#utility.yul\":2654:2726   */\n      tag_351\n        /* \"#utility.yul\":2722:2724   */\n      0x40\n        /* \"#utility.yul\":2711:2720   */\n      dup4\n        /* \"#utility.yul\":2707:2725   */\n      add\n        /* \"#utility.yul\":2698:2704   */\n      dup10\n        /* \"#utility.yul\":2654:2726   */\n      tag_244\n      jump\t// in\n    tag_351:\n        /* \"#utility.yul\":2736:2808   */\n      tag_352\n        /* \"#utility.yul\":2804:2806   */\n      0x60\n        /* \"#utility.yul\":2793:2802   */\n      dup4\n        /* \"#utility.yul\":2789:2807   */\n      add\n        /* \"#utility.yul\":2780:2786   */\n      dup9\n        /* \"#utility.yul\":2736:2808   */\n      tag_244\n      jump\t// in\n    tag_352:\n        /* \"#utility.yul\":2818:2889   */\n      tag_353\n        /* \"#utility.yul\":2884:2887   */\n      0x80\n        /* \"#utility.yul\":2873:2882   */\n      dup4\n        /* \"#utility.yul\":2869:2888   */\n      add\n        /* \"#utility.yul\":2860:2866   */\n      dup8\n        /* \"#utility.yul\":2818:2889   */\n      tag_254\n      jump\t// in\n    tag_353:\n        /* \"#utility.yul\":2899:2970   */\n      tag_354\n        /* \"#utility.yul\":2965:2968   */\n      0xa0\n        /* \"#utility.yul\":2954:2963   */\n      dup4\n        /* \"#utility.yul\":2950:2969   */\n      add\n        /* \"#utility.yul\":2941:2947   */\n      dup7\n        /* \"#utility.yul\":2899:2970   */\n      tag_254\n      jump\t// in\n    tag_354:\n        /* \"#utility.yul\":2980:3047   */\n      tag_355\n        /* \"#utility.yul\":3042:3045   */\n      0xc0\n        /* \"#utility.yul\":3031:3040   */\n      dup4\n        /* \"#utility.yul\":3027:3046   */\n      add\n        /* \"#utility.yul\":3018:3024   */\n      dup6\n        /* \"#utility.yul\":2980:3047   */\n      tag_256\n      jump\t// in\n    tag_355:\n        /* \"#utility.yul\":3057:3124   */\n      tag_356\n        /* \"#utility.yul\":3119:3122   */\n      0xe0\n        /* \"#utility.yul\":3108:3117   */\n      dup4\n        /* \"#utility.yul\":3104:3123   */\n      add\n        /* \"#utility.yul\":3095:3101   */\n      dup5\n        /* \"#utility.yul\":3057:3124   */\n      tag_256\n      jump\t// in\n    tag_356:\n        /* \"#utility.yul\":2166:3131   */\n      swap10\n      swap9\n      pop\n      pop\n      pop\n      pop\n      pop\n      pop\n      pop\n      pop\n      pop\n      jump\t// out\n        /* \"#utility.yul\":3137:3257   */\n    tag_257:\n        /* \"#utility.yul\":3209:3232   */\n      tag_358\n        /* \"#utility.yul\":3226:3231   */\n      dup2\n        /* \"#utility.yul\":3209:3232   */\n      tag_253\n      jump\t// in\n    tag_358:\n        /* \"#utility.yul\":3202:3207   */\n      dup2\n        /* \"#utility.yul\":3199:3233   */\n      eq\n        /* \"#utility.yul\":3189:3251   */\n      tag_359\n      jumpi\n        /* \"#utility.yul\":3247:3248   */\n      0x00\n        /* \"#utility.yul\":3244:3245   */\n      dup1\n        /* \"#utility.yul\":3237:3249   */\n      revert\n        /* \"#utility.yul\":3189:3251   */\n    tag_359:\n        /* \"#utility.yul\":3137:3257   */\n      pop\n      jump\t// out\n        /* \"#utility.yul\":3263:3400   */\n    tag_258:\n        /* \"#utility.yul\":3308:3313   */\n      0x00\n        /* \"#utility.yul\":3346:3352   */\n      dup2\n        /* \"#utility.yul\":3333:3353   */\n      calldataload\n        /* \"#utility.yul\":3324:3353   */\n      swap1\n      pop\n        /* \"#utility.yul\":3362:3394   */\n      tag_361\n        /* \"#utility.yul\":3388:3393   */\n      dup2\n        /* \"#utility.yul\":3362:3394   */\n      tag_257\n      jump\t// in\n    tag_361:\n        /* \"#utility.yul\":3263:3400   */\n      swap3\n      swap2\n      pop\n      pop\n      jump\t// out\n        /* \"#utility.yul\":3406:4021   */\n    tag_33:\n        /* \"#utility.yul\":3481:3487   */\n      0x00\n        /* \"#utility.yul\":3489:3495   */\n      dup1\n        /* \"#utility.yul\":3497:3503   */\n      0x00\n        /* \"#utility.yul\":3546:3548   */\n      0x60\n        /* \"#utility.yul\":3534:3543   */\n      dup5\n        /* \"#utility.yul\":3525:3532   */\n      dup7\n        /* \"#utility.yul\":3521:3544   */\n      sub\n        /* \"#utility.yul\":3517:3549   */\n      slt\n        /* \"#utility.yul\":3514:3633   */\n      iszero\n      tag_363\n      jumpi\n        /* \"#utility.yul\":3552:3631   */\n      tag_364\n      tag_246\n      jump\t// in\n    tag_364:\n        /* \"#utility.yul\":3514:3633   */\n    tag_363:\n        /* \"#utility.yul\":3672:3673   */\n      0x00\n        /* \"#utility.yul\":3697:3750   */\n      tag_365\n        /* \"#utility.yul\":3742:3749   */\n      dup7\n        /* \"#utility.yul\":3733:3739   */\n      dup3\n        /* \"#utility.yul\":3722:3731   */\n      dup8\n        /* \"#utility.yul\":3718:3740   */\n      add\n        /* \"#utility.yul\":3697:3750   */\n      tag_249\n      jump\t// in\n    tag_365:\n        /* \"#utility.yul\":3687:3750   */\n      swap4\n      pop\n        /* \"#utility.yul\":3643:3760   */\n      pop\n        /* \"#utility.yul\":3799:3801   */\n      0x20\n        /* \"#utility.yul\":3825:3877   */\n      tag_366\n        /* \"#utility.yul\":3869:3876   */\n      dup7\n        /* \"#utility.yul\":3860:3866   */\n      dup3\n        /* \"#utility.yul\":3849:3858   */\n      dup8\n        /* \"#utility.yul\":3845:3867   */\n      add\n        /* \"#utility.yul\":3825:3877   */\n      tag_258\n      jump\t// in\n    tag_366:\n        /* \"#utility.yul\":3815:3877   */\n      swap3\n      pop\n        /* \"#utility.yul\":3770:3887   */\n      pop\n        /* \"#utility.yul\":3926:3928   */\n      0x40\n        /* \"#utility.yul\":3952:4004   */\n      tag_367\n        /* \"#utility.yul\":3996:4003   */\n      dup7\n        /* \"#utility.yul\":3987:3993   */\n      dup3\n        /* \"#utility.yul\":3976:3985   */\n      dup8\n        /* \"#utility.yul\":3972:3994   */\n      add\n        /* \"#utility.yul\":3952:4004   */\n      tag_258\n      jump\t// in\n    tag_367:\n        /* \"#utility.yul\":3942:4004   */\n      swap2\n      pop\n        /* \"#utility.yul\":3897:4014   */\n      pop\n        /* \"#utility.yul\":3406:4021   */\n      swap3\n      pop\n      swap3\n      pop\n      swap3\n      jump\t// out\n        /* \"#utility.yul\":4027:4501   */\n    tag_49:\n        /* \"#utility.yul\":4095:4101   */\n      0x00\n        /* \"#utility.yul\":4103:4109   */\n      dup1\n        /* \"#utility.yul\":4152:4154   */\n      0x40\n        /* \"#utility.yul\":4140:4149   */\n      dup4\n        /* \"#utility.yul\":4131:4138   */\n      dup6\n        /* \"#utility.yul\":4127:4150   */\n      sub\n        /* \"#utility.yul\":4123:4155   */\n      slt\n        /* \"#utility.yul\":4120:4239   */\n      iszero\n      tag_369\n      jumpi\n        /* \"#utility.yul\":4158:4237   */\n      tag_370\n      tag_246\n      jump\t// in\n    tag_370:\n        /* \"#utility.yul\":4120:4239   */\n    tag_369:\n        /* \"#utility.yul\":4278:4279   */\n      0x00\n        /* \"#utility.yul\":4303:4356   */\n      tag_371\n        /* \"#utility.yul\":4348:4355   */\n      dup6\n        /* \"#utility.yul\":4339:4345   */\n      dup3\n        /* \"#utility.yul\":4328:4337   */\n      dup7\n        /* \"#utility.yul\":4324:4346   */\n      add\n        /* \"#utility.yul\":4303:4356   */\n      tag_249\n      jump\t// in\n    tag_371:\n        /* \"#utility.yul\":4293:4356   */\n      swap3\n      pop\n        /* \"#utility.yul\":4249:4366   */\n      pop\n        /* \"#utility.yul\":4405:4407   */\n      0x20\n        /* \"#utility.yul\":4431:4484   */\n      tag_372\n        /* \"#utility.yul\":4476:4483   */\n      dup6\n        /* \"#utility.yul\":4467:4473   */\n      dup3\n        /* \"#utility.yul\":4456:4465   */\n      dup7\n        /* \"#utility.yul\":4452:4474   */\n      add\n        /* \"#utility.yul\":4431:4484   */\n      tag_249\n      jump\t// in\n    tag_372:\n        /* \"#utility.yul\":4421:4484   */\n      swap2\n      pop\n        /* \"#utility.yul\":4376:4494   */\n      pop\n        /* \"#utility.yul\":4027:4501   */\n      swap3\n      pop\n      swap3\n      swap1\n      pop\n      jump\t// out\n        /* \"#utility.yul\":4507:4617   */\n    tag_259:\n        /* \"#utility.yul\":4558:4565   */\n      0x00\n        /* \"#utility.yul\":4587:4611   */\n      tag_374\n        /* \"#utility.yul\":4605:4610   */\n      dup3\n        /* \"#utility.yul\":4587:4611   */\n      tag_251\n      jump\t// in\n    tag_374:\n        /* \"#utility.yul\":4576:4611   */\n      swap1\n      pop\n        /* \"#utility.yul\":4507:4617   */\n      swap2\n      swap1\n      pop\n      jump\t// out\n        /* \"#utility.yul\":4623:4773   */\n    tag_260:\n        /* \"#utility.yul\":4710:4748   */\n      tag_376\n        /* \"#utility.yul\":4742:4747   */\n      dup2\n        /* \"#utility.yul\":4710:4748   */\n      tag_259\n      jump\t// in\n    tag_376:\n        /* \"#utility.yul\":4703:4708   */\n      dup2\n        /* \"#utility.yul\":4700:4749   */\n      eq\n        /* \"#utility.yul\":4690:4767   */\n      tag_377\n      jumpi\n        /* \"#utility.yul\":4763:4764   */\n      0x00\n        /* \"#utility.yul\":4760:4761   */\n      dup1\n        /* \"#utility.yul\":4753:4765   */\n      revert\n        /* \"#utility.yul\":4690:4767   */\n    tag_377:\n        /* \"#utility.yul\":4623:4773   */\n      pop\n      jump\t// out\n        /* \"#utility.yul\":4779:4946   */\n    tag_261:\n        /* \"#utility.yul\":4839:4844   */\n      0x00\n        /* \"#utility.yul\":4877:4883   */\n      dup2\n        /* \"#utility.yul\":4864:4884   */\n      calldataload\n        /* \"#utility.yul\":4855:4884   */\n      swap1\n      pop\n        /* \"#utility.yul\":4893:4940   */\n      tag_379\n        /* \"#utility.yul\":4934:4939   */\n      dup2\n        /* \"#utility.yul\":4893:4940   */\n      tag_260\n      jump\t// in\n    tag_379:\n        /* \"#utility.yul\":4779:4946   */\n      swap3\n      swap2\n      pop\n      pop\n      jump\t// out\n        /* \"#utility.yul\":4952:5599   */\n    tag_53:\n        /* \"#utility.yul\":5043:5049   */\n      0x00\n        /* \"#utility.yul\":5051:5057   */\n      dup1\n        /* \"#utility.yul\":5059:5065   */\n      0x00\n        /* \"#utility.yul\":5108:5110   */\n      0x60\n        /* \"#utility.yul\":5096:5105   */\n      dup5\n        /* \"#utility.yul\":5087:5094   */\n      dup7\n        /* \"#utility.yul\":5083:5106   */\n      sub\n        /* \"#utility.yul\":5079:5111   */\n      slt\n        /* \"#utility.yul\":5076:5195   */\n      iszero\n      tag_381\n      jumpi\n        /* \"#utility.yul\":5114:5193   */\n      tag_382\n      tag_246\n      jump\t// in\n    tag_382:\n        /* \"#utility.yul\":5076:5195   */\n    tag_381:\n        /* \"#utility.yul\":5234:5235   */\n      0x00\n        /* \"#utility.yul\":5259:5326   */\n      tag_383\n        /* \"#utility.yul\":5318:5325   */\n      dup7\n        /* \"#utility.yul\":5309:5315   */\n      dup3\n        /* \"#utility.yul\":5298:5307   */\n      dup8\n        /* \"#utility.yul\":5294:5316   */\n      add\n        /* \"#utility.yul\":5259:5326   */\n      tag_261\n      jump\t// in\n    tag_383:\n        /* \"#utility.yul\":5249:5326   */\n      swap4\n      pop\n        /* \"#utility.yul\":5205:5336   */\n      pop\n        /* \"#utility.yul\":5375:5377   */\n      0x20\n        /* \"#utility.yul\":5401:5454   */\n      tag_384\n        /* \"#utility.yul\":5446:5453   */\n      dup7\n        /* \"#utility.yul\":5437:5443   */\n      dup3\n        /* \"#utility.yul\":5426:5435   */\n      dup8\n        /* \"#utility.yul\":5422:5444   */\n      add\n        /* \"#utility.yul\":5401:5454   */\n      tag_249\n      jump\t// in\n    tag_384:\n        /* \"#utility.yul\":5391:5454   */\n      swap3\n      pop\n        /* \"#utility.yul\":5346:5464   */\n      pop\n        /* \"#utility.yul\":5503:5505   */\n      0x40\n        /* \"#utility.yul\":5529:5582   */\n      tag_385\n        /* \"#utility.yul\":5574:5581   */\n      dup7\n        /* \"#utility.yul\":5565:5571   */\n      dup3\n        /* \"#utility.yul\":5554:5563   */\n      dup8\n        /* \"#utility.yul\":5550:5572   */\n      add\n        /* \"#utility.yul\":5529:5582   */\n      tag_249\n      jump\t// in\n    tag_385:\n        /* \"#utility.yul\":5519:5582   */\n      swap2\n      pop\n        /* \"#utility.yul\":5474:5592   */\n      pop\n        /* \"#utility.yul\":4952:5599   */\n      swap3\n      pop\n      swap3\n      pop\n      swap3\n      jump\t// out\n        /* \"#utility.yul\":5605:5727   */\n    tag_262:\n        /* \"#utility.yul\":5678:5702   */\n      tag_387\n        /* \"#utility.yul\":5696:5701   */\n      dup2\n        /* \"#utility.yul\":5678:5702   */\n      tag_251\n      jump\t// in\n    tag_387:\n        /* \"#utility.yul\":5671:5676   */\n      dup2\n        /* \"#utility.yul\":5668:5703   */\n      eq\n        /* \"#utility.yul\":5658:5721   */\n      tag_388\n      jumpi\n        /* \"#utility.yul\":5717:5718   */\n      0x00\n        /* \"#utility.yul\":5714:5715   */\n      dup1\n        /* \"#utility.yul\":5707:5719   */\n      revert\n        /* \"#utility.yul\":5658:5721   */\n    tag_388:\n        /* \"#utility.yul\":5605:5727   */\n      pop\n      jump\t// out\n        /* \"#utility.yul\":5733:5872   */\n    tag_263:\n        /* \"#utility.yul\":5779:5784   */\n      0x00\n        /* \"#utility.yul\":5817:5823   */\n      dup2\n        /* \"#utility.yul\":5804:5824   */\n      calldataload\n        /* \"#utility.yul\":5795:5824   */\n      swap1\n      pop\n        /* \"#utility.yul\":5833:5866   */\n      tag_390\n        /* \"#utility.yul\":5860:5865   */\n      dup2\n        /* \"#utility.yul\":5833:5866   */\n      tag_262\n      jump\t// in\n    tag_390:\n        /* \"#utility.yul\":5733:5872   */\n      swap3\n      swap2\n      pop\n      pop\n      jump\t// out\n        /* \"#utility.yul\":5878:6352   */\n    tag_57:\n        /* \"#utility.yul\":5946:5952   */\n      0x00\n        /* \"#utility.yul\":5954:5960   */\n      dup1\n        /* \"#utility.yul\":6003:6005   */\n      0x40\n        /* \"#utility.yul\":5991:6000   */\n      dup4\n        /* \"#utility.yul\":5982:5989   */\n      dup6\n        /* \"#utility.yul\":5978:6001   */\n      sub\n        /* \"#utility.yul\":5974:6006   */\n      slt\n        /* \"#utility.yul\":5971:6090   */\n      iszero\n      tag_392\n      jumpi\n        /* \"#utility.yul\":6009:6088   */\n      tag_393\n      tag_246\n      jump\t// in\n    tag_393:\n        /* \"#utility.yul\":5971:6090   */\n    tag_392:\n        /* \"#utility.yul\":6129:6130   */\n      0x00\n        /* \"#utility.yul\":6154:6207   */\n      tag_394\n        /* \"#utility.yul\":6199:6206   */\n      dup6\n        /* \"#utility.yul\":6190:6196   */\n      dup3\n        /* \"#utility.yul\":6179:6188   */\n      dup7\n        /* \"#utility.yul\":6175:6197   */\n      add\n        /* \"#utility.yul\":6154:6207   */\n      tag_249\n      jump\t// in\n    tag_394:\n        /* \"#utility.yul\":6144:6207   */\n      swap3\n      pop\n        /* \"#utility.yul\":6100:6217   */\n      pop\n        /* \"#utility.yul\":6256:6258   */\n      0x20\n        /* \"#utility.yul\":6282:6335   */\n      tag_395\n        /* \"#utility.yul\":6327:6334   */\n      dup6\n        /* \"#utility.yul\":6318:6324   */\n      dup3\n        /* \"#utility.yul\":6307:6316   */\n      dup7\n        /* \"#utility.yul\":6303:6325   */\n      add\n        /* \"#utility.yul\":6282:6335   */\n      tag_263\n      jump\t// in\n    tag_395:\n        /* \"#utility.yul\":6272:6335   */\n      swap2\n      pop\n        /* \"#utility.yul\":6227:6345   */\n      pop\n        /* \"#utility.yul\":5878:6352   */\n      swap3\n      pop\n      swap3\n      swap1\n      pop\n      jump\t// out\n        /* \"#utility.yul\":6358:6418   */\n    tag_264:\n        /* \"#utility.yul\":6386:6389   */\n      0x00\n        /* \"#utility.yul\":6407:6412   */\n      dup2\n        /* \"#utility.yul\":6400:6412   */\n      swap1\n      pop\n        /* \"#utility.yul\":6358:6418   */\n      swap2\n      swap1\n      pop\n      jump\t// out\n        /* \"#utility.yul\":6424:6566   */\n    tag_265:\n        /* \"#utility.yul\":6474:6483   */\n      0x00\n        /* \"#utility.yul\":6507:6560   */\n      tag_398\n        /* \"#utility.yul\":6525:6559   */\n      tag_399\n        /* \"#utility.yul\":6534:6558   */\n      tag_400\n        /* \"#utility.yul\":6552:6557   */\n      dup5\n        /* \"#utility.yul\":6534:6558   */\n      tag_250\n      jump\t// in\n    tag_400:\n        /* \"#utility.yul\":6525:6559   */\n      tag_264\n      jump\t// in\n    tag_399:\n        /* \"#utility.yul\":6507:6560   */\n      tag_250\n      jump\t// in\n    tag_398:\n        /* \"#utility.yul\":6494:6560   */\n      swap1\n      pop\n        /* \"#utility.yul\":6424:6566   */\n      swap2\n      swap1\n      pop\n      jump\t// out\n        /* \"#utility.yul\":6572:6698   */\n    tag_266:\n        /* \"#utility.yul\":6622:6631   */\n      0x00\n        /* \"#utility.yul\":6655:6692   */\n      tag_402\n        /* \"#utility.yul\":6686:6691   */\n      dup3\n        /* \"#utility.yul\":6655:6692   */\n      tag_265\n      jump\t// in\n    tag_402:\n        /* \"#utility.yul\":6642:6692   */\n      swap1\n      pop\n        /* \"#utility.yul\":6572:6698   */\n      swap2\n      swap1\n      pop\n      jump\t// out\n        /* \"#utility.yul\":6704:6844   */\n    tag_267:\n        /* \"#utility.yul\":6768:6777   */\n      0x00\n        /* \"#utility.yul\":6801:6838   */\n      tag_404\n        /* \"#utility.yul\":6832:6837   */\n      dup3\n        /* \"#utility.yul\":6801:6838   */\n      tag_266\n      jump\t// in\n    tag_404:\n        /* \"#utility.yul\":6788:6838   */\n      swap1\n      pop\n        /* \"#utility.yul\":6704:6844   */\n      swap2\n      swap1\n      pop\n      jump\t// out\n        /* \"#utility.yul\":6850:7009   */\n    tag_268:\n        /* \"#utility.yul\":6951:7002   */\n      tag_406\n        /* \"#utility.yul\":6996:7001   */\n      dup2\n        /* \"#utility.yul\":6951:7002   */\n      tag_267\n      jump\t// in\n    tag_406:\n        /* \"#utility.yul\":6946:6949   */\n      dup3\n        /* \"#utility.yul\":6939:7003   */\n      mstore\n        /* \"#utility.yul\":6850:7009   */\n      pop\n      pop\n      jump\t// out\n        /* \"#utility.yul\":7015:7265   */\n    tag_63:\n        /* \"#utility.yul\":7122:7126   */\n      0x00\n        /* \"#utility.yul\":7160:7162   */\n      0x20\n        /* \"#utility.yul\":7149:7158   */\n      dup3\n        /* \"#utility.yul\":7145:7163   */\n      add\n        /* \"#utility.yul\":7137:7163   */\n      swap1\n      pop\n        /* \"#utility.yul\":7173:7258   */\n      tag_408\n        /* \"#utility.yul\":7255:7256   */\n      0x00\n        /* \"#utility.yul\":7244:7253   */\n      dup4\n        /* \"#utility.yul\":7240:7257   */\n      add\n        /* \"#utility.yul\":7231:7237   */\n      dup5\n        /* \"#utility.yul\":7173:7258   */\n      tag_268\n      jump\t// in\n    tag_408:\n        /* \"#utility.yul\":7015:7265   */\n      swap3\n      swap2\n      pop\n      pop\n      jump\t// out\n        /* \"#utility.yul\":7271:7440   */\n    tag_269:\n        /* \"#utility.yul\":7355:7366   */\n      0x00\n        /* \"#utility.yul\":7389:7395   */\n      dup3\n        /* \"#utility.yul\":7384:7387   */\n      dup3\n        /* \"#utility.yul\":7377:7396   */\n      mstore\n        /* \"#utility.yul\":7429:7433   */\n      0x20\n        /* \"#utility.yul\":7424:7427   */\n      dup3\n        /* \"#utility.yul\":7420:7434   */\n      add\n        /* \"#utility.yul\":7405:7434   */\n      swap1\n      pop\n        /* \"#utility.yul\":7271:7440   */\n      swap3\n      swap2\n      pop\n      pop\n      jump\t// out\n        /* \"#utility.yul\":7446:7619   */\n    tag_270:\n        /* \"#utility.yul\":7586:7611   */\n      0x63616d706169676e20646f6573206e6f74206578697374000000000000000000\n        /* \"#utility.yul\":7582:7583   */\n      0x00\n        /* \"#utility.yul\":7574:7580   */\n      dup3\n        /* \"#utility.yul\":7570:7584   */\n      add\n        /* \"#utility.yul\":7563:7612   */\n      mstore\n        /* \"#utility.yul\":7446:7619   */\n      pop\n      jump\t// out\n        /* \"#utility.yul\":7625:7991   */\n    tag_271:\n        /* \"#utility.yul\":7767:7770   */\n      0x00\n        /* \"#utility.yul\":7788:7855   */\n      tag_412\n        /* \"#utility.yul\":7852:7854   */\n      0x17\n        /* \"#utility.yul\":7847:7850   */\n      dup4\n        /* \"#utility.yul\":7788:7855   */\n      tag_269\n      jump\t// in\n    tag_412:\n        /* \"#utility.yul\":7781:7855   */\n      swap2\n      pop\n        /* \"#utility.yul\":7864:7957   */\n      tag_413\n        /* \"#utility.yul\":7953:7956   */\n      dup3\n        /* \"#utility.yul\":7864:7957   */\n      tag_270\n      jump\t// in\n    tag_413:\n        /* \"#utility.yul\":7982:7984   */\n      0x20\n        /* \"#utility.yul\":7977:7980   */\n      dup3\n        /* \"#utility.yul\":7973:7985   */\n      add\n        /* \"#utility.yul\":7966:7985   */\n      swap1\n      pop\n        /* \"#utility.yul\":7625:7991   */\n      swap2\n      swap1\n      pop\n      jump\t// out\n        /* \"#utility.yul\":7997:8416   */\n    tag_70:\n        /* \"#utility.yul\":8163:8167   */\n      0x00\n        /* \"#utility.yul\":8201:8203   */\n      0x20\n        /* \"#utility.yul\":8190:8199   */\n      dup3\n        /* \"#utility.yul\":8186:8204   */\n      add\n        /* \"#utility.yul\":8178:8204   */\n      swap1\n      pop\n        /* \"#utility.yul\":8250:8259   */\n      dup2\n        /* \"#utility.yul\":8244:8248   */\n      dup2\n        /* \"#utility.yul\":8240:8260   */\n      sub\n        /* \"#utility.yul\":8236:8237   */\n      0x00\n        /* \"#utility.yul\":8225:8234   */\n      dup4\n        /* \"#utility.yul\":8221:8238   */\n      add\n        /* \"#utility.yul\":8214:8261   */\n      mstore\n        /* \"#utility.yul\":8278:8409   */\n      tag_415\n        /* \"#utility.yul\":8404:8408   */\n      dup2\n        /* \"#utility.yul\":8278:8409   */\n      tag_271\n      jump\t// in\n    tag_415:\n        /* \"#utility.yul\":8270:8409   */\n      swap1\n      pop\n        /* \"#utility.yul\":7997:8416   */\n      swap2\n      swap1\n      pop\n      jump\t// out\n        /* \"#utility.yul\":8422:8590   */\n    tag_272:\n        /* \"#utility.yul\":8562:8582   */\n      0x63616d706169676e206e6f7420656e6465640000000000000000000000000000\n        /* \"#utility.yul\":8558:8559   */\n      0x00\n        /* \"#utility.yul\":8550:8556   */\n      dup3\n        /* \"#utility.yul\":8546:8560   */\n      add\n        /* \"#utility.yul\":8539:8583   */\n      mstore\n        /* \"#utility.yul\":8422:8590   */\n      pop\n      jump\t// out\n        /* \"#utility.yul\":8596:8962   */\n    tag_273:\n        /* \"#utility.yul\":8738:8741   */\n      0x00\n        /* \"#utility.yul\":8759:8826   */\n      tag_418\n        /* \"#utility.yul\":8823:8825   */\n      0x12\n        /* \"#utility.yul\":8818:8821   */\n      dup4\n        /* \"#utility.yul\":8759:8826   */\n      tag_269\n      jump\t// in\n    tag_418:\n        /* \"#utility.yul\":8752:8826   */\n      swap2\n      pop\n        /* \"#utility.yul\":8835:8928   */\n      tag_419\n        /* \"#utility.yul\":8924:8927   */\n      dup3\n        /* \"#utility.yul\":8835:8928   */\n      tag_272\n      jump\t// in\n    tag_419:\n        /* \"#utility.yul\":8953:8955   */\n      0x20\n        /* \"#utility.yul\":8948:8951   */\n      dup3\n        /* \"#utility.yul\":8944:8956   */\n      add\n        /* \"#utility.yul\":8937:8956   */\n      swap1\n      pop\n        /* \"#utility.yul\":8596:8962   */\n      swap2\n      swap1\n      pop\n      jump\t// out\n        /* \"#utility.yul\":8968:9387   */\n    tag_74:\n        /* \"#utility.yul\":9134:9138   */\n      0x00\n        /* \"#utility.yul\":9172:9174   */\n      0x20\n        /* \"#utility.yul\":9161:9170   */\n      dup3\n        /* \"#utility.yul\":9157:9175   */\n      add\n        /* \"#utility.yul\":9149:9175   */\n      swap1\n      pop\n        /* \"#utility.yul\":9221:9230   */\n      dup2\n        /* \"#utility.yul\":9215:9219   */\n      dup2\n        /* \"#utility.yul\":9211:9231   */\n      sub\n        /* \"#utility.yul\":9207:9208   */\n      0x00\n        /* \"#utility.yul\":9196:9205   */\n      dup4\n        /* \"#utility.yul\":9192:9209   */\n      add\n        /* \"#utility.yul\":9185:9232   */\n      mstore\n        /* \"#utility.yul\":9249:9380   */\n      tag_421\n        /* \"#utility.yul\":9375:9379   */\n      dup2\n        /* \"#utility.yul\":9249:9380   */\n      tag_273\n      jump\t// in\n    tag_421:\n        /* \"#utility.yul\":9241:9380   */\n      swap1\n      pop\n        /* \"#utility.yul\":8968:9387   */\n      swap2\n      swap1\n      pop\n      jump\t// out\n        /* \"#utility.yul\":9393:9558   */\n    tag_274:\n        /* \"#utility.yul\":9533:9550   */\n      0x706c6564676564203e3d20676f616c0000000000000000000000000000000000\n        /* \"#utility.yul\":9529:9530   */\n      0x00\n        /* \"#utility.yul\":9521:9527   */\n      dup3\n        /* \"#utility.yul\":9517:9531   */\n      add\n        /* \"#utility.yul\":9510:9551   */\n      mstore\n        /* \"#utility.yul\":9393:9558   */\n      pop\n      jump\t// out\n        /* \"#utility.yul\":9564:9930   */\n    tag_275:\n        /* \"#utility.yul\":9706:9709   */\n      0x00\n        /* \"#utility.yul\":9727:9794   */\n      tag_424\n        /* \"#utility.yul\":9791:9793   */\n      0x0f\n        /* \"#utility.yul\":9786:9789   */\n      dup4\n        /* \"#utility.yul\":9727:9794   */\n      tag_269\n      jump\t// in\n    tag_424:\n        /* \"#utility.yul\":9720:9794   */\n      swap2\n      pop\n        /* \"#utility.yul\":9803:9896   */\n      tag_425\n        /* \"#utility.yul\":9892:9895   */\n      dup3\n        /* \"#utility.yul\":9803:9896   */\n      tag_274\n      jump\t// in\n    tag_425:\n        /* \"#utility.yul\":9921:9923   */\n      0x20\n        /* \"#utility.yul\":9916:9919   */\n      dup3\n        /* \"#utility.yul\":9912:9924   */\n      add\n        /* \"#utility.yul\":9905:9924   */\n      swap1\n      pop\n        /* \"#utility.yul\":9564:9930   */\n      swap2\n      swap1\n      pop\n      jump\t// out\n        /* \"#utility.yul\":9936:10355   */\n    tag_78:\n        /* \"#utility.yul\":10102:10106   */\n      0x00\n        /* \"#utility.yul\":10140:10142   */\n      0x20\n        /* \"#utility.yul\":10129:10138   */\n      dup3\n        /* \"#utility.yul\":10125:10143   */\n      add\n        /* \"#utility.yul\":10117:10143   */\n      swap1\n      pop\n        /* \"#utility.yul\":10189:10198   */\n      dup2\n        /* \"#utility.yul\":10183:10187   */\n      dup2\n        /* \"#utility.yul\":10179:10199   */\n      sub\n        /* \"#utility.yul\":10175:10176   */\n      0x00\n        /* \"#utility.yul\":10164:10173   */\n      dup4\n        /* \"#utility.yul\":10160:10177   */\n      add\n        /* \"#utility.yul\":10153:10200   */\n      mstore\n        /* \"#utility.yul\":10217:10348   */\n      tag_427\n        /* \"#utility.yul\":10343:10347   */\n      dup2\n        /* \"#utility.yul\":10217:10348   */\n      tag_275\n      jump\t// in\n    tag_427:\n        /* \"#utility.yul\":10209:10348   */\n      swap1\n      pop\n        /* \"#utility.yul\":9936:10355   */\n      swap2\n      swap1\n      pop\n      jump\t// out\n        /* \"#utility.yul\":10361:10525   */\n    tag_276:\n        /* \"#utility.yul\":10501:10517   */\n      0x7374617274206174203c206e6f77000000000000000000000000000000000000\n        /* \"#utility.yul\":10497:10498   */\n      0x00\n        /* \"#utility.yul\":10489:10495   */\n      dup3\n        /* \"#utility.yul\":10485:10499   */\n      add\n        /* \"#utility.yul\":10478:10518   */\n      mstore\n        /* \"#utility.yul\":10361:10525   */\n      pop\n      jump\t// out\n        /* \"#utility.yul\":10531:10897   */\n    tag_277:\n        /* \"#utility.yul\":10673:10676   */\n      0x00\n        /* \"#utility.yul\":10694:10761   */\n      tag_430\n        /* \"#utility.yul\":10758:10760   */\n      0x0e\n        /* \"#utility.yul\":10753:10756   */\n      dup4\n        /* \"#utility.yul\":10694:10761   */\n      tag_269\n      jump\t// in\n    tag_430:\n        /* \"#utility.yul\":10687:10761   */\n      swap2\n      pop\n        /* \"#utility.yul\":10770:10863   */\n      tag_431\n        /* \"#utility.yul\":10859:10862   */\n      dup3\n        /* \"#utility.yul\":10770:10863   */\n      tag_276\n      jump\t// in\n    tag_431:\n        /* \"#utility.yul\":10888:10890   */\n      0x20\n        /* \"#utility.yul\":10883:10886   */\n      dup3\n        /* \"#utility.yul\":10879:10891   */\n      add\n        /* \"#utility.yul\":10872:10891   */\n      swap1\n      pop\n        /* \"#utility.yul\":10531:10897   */\n      swap2\n      swap1\n      pop\n      jump\t// out\n        /* \"#utility.yul\":10903:11322   */\n    tag_85:\n        /* \"#utility.yul\":11069:11073   */\n      0x00\n        /* \"#utility.yul\":11107:11109   */\n      0x20\n        /* \"#utility.yul\":11096:11105   */\n      dup3\n        /* \"#utility.yul\":11092:11110   */\n      add\n        /* \"#utility.yul\":11084:11110   */\n      swap1\n      pop\n        /* \"#utility.yul\":11156:11165   */\n      dup2\n        /* \"#utility.yul\":11150:11154   */\n      dup2\n        /* \"#utility.yul\":11146:11166   */\n      sub\n        /* \"#utility.yul\":11142:11143   */\n      0x00\n        /* \"#utility.yul\":11131:11140   */\n      dup4\n        /* \"#utility.yul\":11127:11144   */\n      add\n        /* \"#utility.yul\":11120:11167   */\n      mstore\n        /* \"#utility.yul\":11184:11315   */\n      tag_433\n        /* \"#utility.yul\":11310:11314   */\n      dup2\n        /* \"#utility.yul\":11184:11315   */\n      tag_277\n      jump\t// in\n    tag_433:\n        /* \"#utility.yul\":11176:11315   */\n      swap1\n      pop\n        /* \"#utility.yul\":10903:11322   */\n      swap2\n      swap1\n      pop\n      jump\t// out\n        /* \"#utility.yul\":11328:11508   */\n    tag_278:\n        /* \"#utility.yul\":11376:11453   */\n      0x4e487b7100000000000000000000000000000000000000000000000000000000\n        /* \"#utility.yul\":11373:11374   */\n      0x00\n        /* \"#utility.yul\":11366:11454   */\n      mstore\n        /* \"#utility.yul\":11473:11477   */\n      0x11\n        /* \"#utility.yul\":11470:11471   */\n      0x04\n        /* \"#utility.yul\":11463:11478   */\n      mstore\n        /* \"#utility.yul\":11497:11501   */\n      0x24\n        /* \"#utility.yul\":11494:11495   */\n      0x00\n        /* \"#utility.yul\":11487:11502   */\n      revert\n        /* \"#utility.yul\":11514:11705   */\n    tag_87:\n        /* \"#utility.yul\":11554:11557   */\n      0x00\n        /* \"#utility.yul\":11573:11593   */\n      tag_436\n        /* \"#utility.yul\":11591:11592   */\n      dup3\n        /* \"#utility.yul\":11573:11593   */\n      tag_243\n      jump\t// in\n    tag_436:\n        /* \"#utility.yul\":11568:11593   */\n      swap2\n      pop\n        /* \"#utility.yul\":11607:11627   */\n      tag_437\n        /* \"#utility.yul\":11625:11626   */\n      dup4\n        /* \"#utility.yul\":11607:11627   */\n      tag_243\n      jump\t// in\n    tag_437:\n        /* \"#utility.yul\":11602:11627   */\n      swap3\n      pop\n        /* \"#utility.yul\":11650:11651   */\n      dup3\n        /* \"#utility.yul\":11647:11648   */\n      dup3\n        /* \"#utility.yul\":11643:11652   */\n      add\n        /* \"#utility.yul\":11636:11652   */\n      swap1\n      pop\n        /* \"#utility.yul\":11671:11674   */\n      dup1\n        /* \"#utility.yul\":11668:11669   */\n      dup3\n        /* \"#utility.yul\":11665:11675   */\n      gt\n        /* \"#utility.yul\":11662:11698   */\n      iszero\n      tag_438\n      jumpi\n        /* \"#utility.yul\":11678:11696   */\n      tag_439\n      tag_278\n      jump\t// in\n    tag_439:\n        /* \"#utility.yul\":11662:11698   */\n    tag_438:\n        /* \"#utility.yul\":11514:11705   */\n      swap3\n      swap2\n      pop\n      pop\n      jump\t// out\n        /* \"#utility.yul\":11711:11886   */\n    tag_279:\n        /* \"#utility.yul\":11851:11878   */\n      0x6e6f7420696e206d696e2026206d6178206475726174696f6e00000000000000\n        /* \"#utility.yul\":11847:11848   */\n      0x00\n        /* \"#utility.yul\":11839:11845   */\n      dup3\n        /* \"#utility.yul\":11835:11849   */\n      add\n        /* \"#utility.yul\":11828:11879   */\n      mstore\n        /* \"#utility.yul\":11711:11886   */\n      pop\n      jump\t// out\n        /* \"#utility.yul\":11892:12258   */\n    tag_280:\n        /* \"#utility.yul\":12034:12037   */\n      0x00\n        /* \"#utility.yul\":12055:12122   */\n      tag_442\n        /* \"#utility.yul\":12119:12121   */\n      0x19\n        /* \"#utility.yul\":12114:12117   */\n      dup4\n        /* \"#utility.yul\":12055:12122   */\n      tag_269\n      jump\t// in\n    tag_442:\n        /* \"#utility.yul\":12048:12122   */\n      swap2\n      pop\n        /* \"#utility.yul\":12131:12224   */\n      tag_443\n        /* \"#utility.yul\":12220:12223   */\n      dup3\n        /* \"#utility.yul\":12131:12224   */\n      tag_279\n      jump\t// in\n    tag_443:\n        /* \"#utility.yul\":12249:12251   */\n      0x20\n        /* \"#utility.yul\":12244:12247   */\n      dup3\n        /* \"#utility.yul\":12240:12252   */\n      add\n        /* \"#utility.yul\":12233:12252   */\n      swap1\n      pop\n        /* \"#utility.yul\":11892:12258   */\n      swap2\n      swap1\n      pop\n      jump\t// out\n        /* \"#utility.yul\":12264:12683   */\n    tag_92:\n        /* \"#utility.yul\":12430:12434   */\n      0x00\n        /* \"#utility.yul\":12468:12470   */\n      0x20\n        /* \"#utility.yul\":12457:12466   */\n      dup3\n        /* \"#utility.yul\":12453:12471   */\n      add\n        /* \"#utility.yul\":12445:12471   */\n      swap1\n      pop\n        /* \"#utility.yul\":12517:12526   */\n      dup2\n        /* \"#utility.yul\":12511:12515   */\n      dup2\n        /* \"#utility.yul\":12507:12527   */\n      sub\n        /* \"#utility.yul\":12503:12504   */\n      0x00\n        /* \"#utility.yul\":12492:12501   */\n      dup4\n        /* \"#utility.yul\":12488:12505   */\n      add\n        /* \"#utility.yul\":12481:12528   */\n      mstore\n        /* \"#utility.yul\":12545:12676   */\n      tag_445\n        /* \"#utility.yul\":12671:12675   */\n      dup2\n        /* \"#utility.yul\":12545:12676   */\n      tag_280\n      jump\t// in\n    tag_445:\n        /* \"#utility.yul\":12537:12676   */\n      swap1\n      pop\n        /* \"#utility.yul\":12264:12683   */\n      swap2\n      swap1\n      pop\n      jump\t// out\n        /* \"#utility.yul\":12689:13123   */\n    tag_95:\n        /* \"#utility.yul\":12834:12838   */\n      0x00\n        /* \"#utility.yul\":12872:12874   */\n      0x60\n        /* \"#utility.yul\":12861:12870   */\n      dup3\n        /* \"#utility.yul\":12857:12875   */\n      add\n        /* \"#utility.yul\":12849:12875   */\n      swap1\n      pop\n        /* \"#utility.yul\":12885:12956   */\n      tag_447\n        /* \"#utility.yul\":12953:12954   */\n      0x00\n        /* \"#utility.yul\":12942:12951   */\n      dup4\n        /* \"#utility.yul\":12938:12955   */\n      add\n        /* \"#utility.yul\":12929:12935   */\n      dup7\n        /* \"#utility.yul\":12885:12956   */\n      tag_244\n      jump\t// in\n    tag_447:\n        /* \"#utility.yul\":12966:13036   */\n      tag_448\n        /* \"#utility.yul\":13032:13034   */\n      0x20\n        /* \"#utility.yul\":13021:13030   */\n      dup4\n        /* \"#utility.yul\":13017:13035   */\n      add\n        /* \"#utility.yul\":13008:13014   */\n      dup6\n        /* \"#utility.yul\":12966:13036   */\n      tag_254\n      jump\t// in\n    tag_448:\n        /* \"#utility.yul\":13046:13116   */\n      tag_449\n        /* \"#utility.yul\":13112:13114   */\n      0x40\n        /* \"#utility.yul\":13101:13110   */\n      dup4\n        /* \"#utility.yul\":13097:13115   */\n      add\n        /* \"#utility.yul\":13088:13094   */\n      dup5\n        /* \"#utility.yul\":13046:13116   */\n      tag_254\n      jump\t// in\n    tag_449:\n        /* \"#utility.yul\":12689:13123   */\n      swap5\n      swap4\n      pop\n      pop\n      pop\n      pop\n      jump\t// out\n        /* \"#utility.yul\":13129:13290   */\n    tag_281:\n        /* \"#utility.yul\":13269:13282   */\n      0x6e6f742063726561746f72000000000000000000000000000000000000000000\n        /* \"#utility.yul\":13265:13266   */\n      0x00\n        /* \"#utility.yul\":13257:13263   */\n      dup3\n        /* \"#utility.yul\":13253:13267   */\n      add\n        /* \"#utility.yul\":13246:13283   */\n      mstore\n        /* \"#utility.yul\":13129:13290   */\n      pop\n      jump\t// out\n        /* \"#utility.yul\":13296:13662   */\n    tag_282:\n        /* \"#utility.yul\":13438:13441   */\n      0x00\n        /* \"#utility.yul\":13459:13526   */\n      tag_452\n        /* \"#utility.yul\":13523:13525   */\n      0x0b\n        /* \"#utility.yul\":13518:13521   */\n      dup4\n        /* \"#utility.yul\":13459:13526   */\n      tag_269\n      jump\t// in\n    tag_452:\n        /* \"#utility.yul\":13452:13526   */\n      swap2\n      pop\n        /* \"#utility.yul\":13535:13628   */\n      tag_453\n        /* \"#utility.yul\":13624:13627   */\n      dup3\n        /* \"#utility.yul\":13535:13628   */\n      tag_281\n      jump\t// in\n    tag_453:\n        /* \"#utility.yul\":13653:13655   */\n      0x20\n        /* \"#utility.yul\":13648:13651   */\n      dup3\n        /* \"#utility.yul\":13644:13656   */\n      add\n        /* \"#utility.yul\":13637:13656   */\n      swap1\n      pop\n        /* \"#utility.yul\":13296:13662   */\n      swap2\n      swap1\n      pop\n      jump\t// out\n        /* \"#utility.yul\":13668:14087   */\n    tag_102:\n        /* \"#utility.yul\":13834:13838   */\n      0x00\n        /* \"#utility.yul\":13872:13874   */\n      0x20\n        /* \"#utility.yul\":13861:13870   */\n      dup3\n        /* \"#utility.yul\":13857:13875   */\n      add\n        /* \"#utility.yul\":13849:13875   */\n      swap1\n      pop\n        /* \"#utility.yul\":13921:13930   */\n      dup2\n        /* \"#utility.yul\":13915:13919   */\n      dup2\n        /* \"#utility.yul\":13911:13931   */\n      sub\n        /* \"#utility.yul\":13907:13908   */\n      0x00\n        /* \"#utility.yul\":13896:13905   */\n      dup4\n        /* \"#utility.yul\":13892:13909   */\n      add\n        /* \"#utility.yul\":13885:13932   */\n      mstore\n        /* \"#utility.yul\":13949:14080   */\n      tag_455\n        /* \"#utility.yul\":14075:14079   */\n      dup2\n        /* \"#utility.yul\":13949:14080   */\n      tag_282\n      jump\t// in\n    tag_455:\n        /* \"#utility.yul\":13941:14080   */\n      swap1\n      pop\n        /* \"#utility.yul\":13668:14087   */\n      swap2\n      swap1\n      pop\n      jump\t// out\n        /* \"#utility.yul\":14093:14261   */\n    tag_283:\n        /* \"#utility.yul\":14233:14253   */\n      0x63616d706169676e2063616e63656c6c65640000000000000000000000000000\n        /* \"#utility.yul\":14229:14230   */\n      0x00\n        /* \"#utility.yul\":14221:14227   */\n      dup3\n        /* \"#utility.yul\":14217:14231   */\n      add\n        /* \"#utility.yul\":14210:14254   */\n      mstore\n        /* \"#utility.yul\":14093:14261   */\n      pop\n      jump\t// out\n        /* \"#utility.yul\":14267:14633   */\n    tag_284:\n        /* \"#utility.yul\":14409:14412   */\n      0x00\n        /* \"#utility.yul\":14430:14497   */\n      tag_458\n        /* \"#utility.yul\":14494:14496   */\n      0x12\n        /* \"#utility.yul\":14489:14492   */\n      dup4\n        /* \"#utility.yul\":14430:14497   */\n      tag_269\n      jump\t// in\n    tag_458:\n        /* \"#utility.yul\":14423:14497   */\n      swap2\n      pop\n        /* \"#utility.yul\":14506:14599   */\n      tag_459\n        /* \"#utility.yul\":14595:14598   */\n      dup3\n        /* \"#utility.yul\":14506:14599   */\n      tag_283\n      jump\t// in\n    tag_459:\n        /* \"#utility.yul\":14624:14626   */\n      0x20\n        /* \"#utility.yul\":14619:14622   */\n      dup3\n        /* \"#utility.yul\":14615:14627   */\n      add\n        /* \"#utility.yul\":14608:14627   */\n      swap1\n      pop\n        /* \"#utility.yul\":14267:14633   */\n      swap2\n      swap1\n      pop\n      jump\t// out\n        /* \"#utility.yul\":14639:15058   */\n    tag_106:\n        /* \"#utility.yul\":14805:14809   */\n      0x00\n        /* \"#utility.yul\":14843:14845   */\n      0x20\n        /* \"#utility.yul\":14832:14841   */\n      dup3\n        /* \"#utility.yul\":14828:14846   */\n      add\n        /* \"#utility.yul\":14820:14846   */\n      swap1\n      pop\n        /* \"#utility.yul\":14892:14901   */\n      dup2\n        /* \"#utility.yul\":14886:14890   */\n      dup2\n        /* \"#utility.yul\":14882:14902   */\n      sub\n        /* \"#utility.yul\":14878:14879   */\n      0x00\n        /* \"#utility.yul\":14867:14876   */\n      dup4\n        /* \"#utility.yul\":14863:14880   */\n      add\n        /* \"#utility.yul\":14856:14903   */\n      mstore\n        /* \"#utility.yul\":14920:15051   */\n      tag_461\n        /* \"#utility.yul\":15046:15050   */\n      dup2\n        /* \"#utility.yul\":14920:15051   */\n      tag_284\n      jump\t// in\n    tag_461:\n        /* \"#utility.yul\":14912:15051   */\n      swap1\n      pop\n        /* \"#utility.yul\":14639:15058   */\n      swap2\n      swap1\n      pop\n      jump\t// out\n        /* \"#utility.yul\":15064:15221   */\n    tag_285:\n        /* \"#utility.yul\":15204:15213   */\n      0x636c61696d656400000000000000000000000000000000000000000000000000\n        /* \"#utility.yul\":15200:15201   */\n      0x00\n        /* \"#utility.yul\":15192:15198   */\n      dup3\n        /* \"#utility.yul\":15188:15202   */\n      add\n        /* \"#utility.yul\":15181:15214   */\n      mstore\n        /* \"#utility.yul\":15064:15221   */\n      pop\n      jump\t// out\n        /* \"#utility.yul\":15227:15592   */\n    tag_286:\n        /* \"#utility.yul\":15369:15372   */\n      0x00\n        /* \"#utility.yul\":15390:15456   */\n      tag_464\n        /* \"#utility.yul\":15454:15455   */\n      0x07\n        /* \"#utility.yul\":15449:15452   */\n      dup4\n        /* \"#utility.yul\":15390:15456   */\n      tag_269\n      jump\t// in\n    tag_464:\n        /* \"#utility.yul\":15383:15456   */\n      swap2\n      pop\n        /* \"#utility.yul\":15465:15558   */\n      tag_465\n        /* \"#utility.yul\":15554:15557   */\n      dup3\n        /* \"#utility.yul\":15465:15558   */\n      tag_285\n      jump\t// in\n    tag_465:\n        /* \"#utility.yul\":15583:15585   */\n      0x20\n        /* \"#utility.yul\":15578:15581   */\n      dup3\n        /* \"#utility.yul\":15574:15586   */\n      add\n        /* \"#utility.yul\":15567:15586   */\n      swap1\n      pop\n        /* \"#utility.yul\":15227:15592   */\n      swap2\n      swap1\n      pop\n      jump\t// out\n        /* \"#utility.yul\":15598:16017   */\n    tag_113:\n        /* \"#utility.yul\":15764:15768   */\n      0x00\n        /* \"#utility.yul\":15802:15804   */\n      0x20\n        /* \"#utility.yul\":15791:15800   */\n      dup3\n        /* \"#utility.yul\":15787:15805   */\n      add\n        /* \"#utility.yul\":15779:15805   */\n      swap1\n      pop\n        /* \"#utility.yul\":15851:15860   */\n      dup2\n        /* \"#utility.yul\":15845:15849   */\n      dup2\n        /* \"#utility.yul\":15841:15861   */\n      sub\n        /* \"#utility.yul\":15837:15838   */\n      0x00\n        /* \"#utility.yul\":15826:15835   */\n      dup4\n        /* \"#utility.yul\":15822:15839   */\n      add\n        /* \"#utility.yul\":15815:15862   */\n      mstore\n        /* \"#utility.yul\":15879:16010   */\n      tag_467\n        /* \"#utility.yul\":16005:16009   */\n      dup2\n        /* \"#utility.yul\":15879:16010   */\n      tag_286\n      jump\t// in\n    tag_467:\n        /* \"#utility.yul\":15871:16010   */\n      swap1\n      pop\n        /* \"#utility.yul\":15598:16017   */\n      swap2\n      swap1\n      pop\n      jump\t// out\n        /* \"#utility.yul\":16023:16187   */\n    tag_287:\n        /* \"#utility.yul\":16163:16179   */\n      0x706c6564676564203c20676f616c000000000000000000000000000000000000\n        /* \"#utility.yul\":16159:16160   */\n      0x00\n        /* \"#utility.yul\":16151:16157   */\n      dup3\n        /* \"#utility.yul\":16147:16161   */\n      add\n        /* \"#utility.yul\":16140:16180   */\n      mstore\n        /* \"#utility.yul\":16023:16187   */\n      pop\n      jump\t// out\n        /* \"#utility.yul\":16193:16559   */\n    tag_288:\n        /* \"#utility.yul\":16335:16338   */\n      0x00\n        /* \"#utility.yul\":16356:16423   */\n      tag_470\n        /* \"#utility.yul\":16420:16422   */\n      0x0e\n        /* \"#utility.yul\":16415:16418   */\n      dup4\n        /* \"#utility.yul\":16356:16423   */\n      tag_269\n      jump\t// in\n    tag_470:\n        /* \"#utility.yul\":16349:16423   */\n      swap2\n      pop\n        /* \"#utility.yul\":16432:16525   */\n      tag_471\n        /* \"#utility.yul\":16521:16524   */\n      dup3\n        /* \"#utility.yul\":16432:16525   */\n      tag_287\n      jump\t// in\n    tag_471:\n        /* \"#utility.yul\":16550:16552   */\n      0x20\n        /* \"#utility.yul\":16545:16548   */\n      dup3\n        /* \"#utility.yul\":16541:16553   */\n      add\n        /* \"#utility.yul\":16534:16553   */\n      swap1\n      pop\n        /* \"#utility.yul\":16193:16559   */\n      swap2\n      swap1\n      pop\n      jump\t// out\n        /* \"#utility.yul\":16565:16984   */\n    tag_116:\n        /* \"#utility.yul\":16731:16735   */\n      0x00\n        /* \"#utility.yul\":16769:16771   */\n      0x20\n        /* \"#utility.yul\":16758:16767   */\n      dup3\n        /* \"#utility.yul\":16754:16772   */\n      add\n        /* \"#utility.yul\":16746:16772   */\n      swap1\n      pop\n        /* \"#utility.yul\":16818:16827   */\n      dup2\n        /* \"#utility.yul\":16812:16816   */\n      dup2\n        /* \"#utility.yul\":16808:16828   */\n      sub\n        /* \"#utility.yul\":16804:16805   */\n      0x00\n        /* \"#utility.yul\":16793:16802   */\n      dup4\n        /* \"#utility.yul\":16789:16806   */\n      add\n        /* \"#utility.yul\":16782:16829   */\n      mstore\n        /* \"#utility.yul\":16846:16977   */\n      tag_473\n        /* \"#utility.yul\":16972:16976   */\n      dup2\n        /* \"#utility.yul\":16846:16977   */\n      tag_288\n      jump\t// in\n    tag_473:\n        /* \"#utility.yul\":16838:16977   */\n      swap1\n      pop\n        /* \"#utility.yul\":16565:16984   */\n      swap2\n      swap1\n      pop\n      jump\t// out\n        /* \"#utility.yul\":16990:17154   */\n    tag_289:\n        /* \"#utility.yul\":17130:17146   */\n      0x63616d706169676e20656e646564000000000000000000000000000000000000\n        /* \"#utility.yul\":17126:17127   */\n      0x00\n        /* \"#utility.yul\":17118:17124   */\n      dup3\n        /* \"#utility.yul\":17114:17128   */\n      add\n        /* \"#utility.yul\":17107:17147   */\n      mstore\n        /* \"#utility.yul\":16990:17154   */\n      pop\n      jump\t// out\n        /* \"#utility.yul\":17160:17526   */\n    tag_290:\n        /* \"#utility.yul\":17302:17305   */\n      0x00\n        /* \"#utility.yul\":17323:17390   */\n      tag_476\n        /* \"#utility.yul\":17387:17389   */\n      0x0e\n        /* \"#utility.yul\":17382:17385   */\n      dup4\n        /* \"#utility.yul\":17323:17390   */\n      tag_269\n      jump\t// in\n    tag_476:\n        /* \"#utility.yul\":17316:17390   */\n      swap2\n      pop\n        /* \"#utility.yul\":17399:17492   */\n      tag_477\n        /* \"#utility.yul\":17488:17491   */\n      dup3\n        /* \"#utility.yul\":17399:17492   */\n      tag_289\n      jump\t// in\n    tag_477:\n        /* \"#utility.yul\":17517:17519   */\n      0x20\n        /* \"#utility.yul\":17512:17515   */\n      dup3\n        /* \"#utility.yul\":17508:17520   */\n      add\n        /* \"#utility.yul\":17501:17520   */\n      swap1\n      pop\n        /* \"#utility.yul\":17160:17526   */\n      swap2\n      swap1\n      pop\n      jump\t// out\n        /* \"#utility.yul\":17532:17951   */\n    tag_137:\n        /* \"#utility.yul\":17698:17702   */\n      0x00\n        /* \"#utility.yul\":17736:17738   */\n      0x20\n        /* \"#utility.yul\":17725:17734   */\n      dup3\n        /* \"#utility.yul\":17721:17739   */\n      add\n        /* \"#utility.yul\":17713:17739   */\n      swap1\n      pop\n        /* \"#utility.yul\":17785:17794   */\n      dup2\n        /* \"#utility.yul\":17779:17783   */\n      dup2\n        /* \"#utility.yul\":17775:17795   */\n      sub\n        /* \"#utility.yul\":17771:17772   */\n      0x00\n        /* \"#utility.yul\":17760:17769   */\n      dup4\n        /* \"#utility.yul\":17756:17773   */\n      add\n        /* \"#utility.yul\":17749:17796   */\n      mstore\n        /* \"#utility.yul\":17813:17944   */\n      tag_479\n        /* \"#utility.yul\":17939:17943   */\n      dup2\n        /* \"#utility.yul\":17813:17944   */\n      tag_290\n      jump\t// in\n    tag_479:\n        /* \"#utility.yul\":17805:17944   */\n      swap1\n      pop\n        /* \"#utility.yul\":17532:17951   */\n      swap2\n      swap1\n      pop\n      jump\t// out\n        /* \"#utility.yul\":17957:18190   */\n    tag_291:\n        /* \"#utility.yul\":18097:18131   */\n      0x496e697469616c697a61626c653a20636f6e747261637420697320616c726561\n        /* \"#utility.yul\":18093:18094   */\n      0x00\n        /* \"#utility.yul\":18085:18091   */\n      dup3\n        /* \"#utility.yul\":18081:18095   */\n      add\n        /* \"#utility.yul\":18074:18132   */\n      mstore\n        /* \"#utility.yul\":18166:18182   */\n      0x647920696e697469616c697a6564000000000000000000000000000000000000\n        /* \"#utility.yul\":18161:18163   */\n      0x20\n        /* \"#utility.yul\":18153:18159   */\n      dup3\n        /* \"#utility.yul\":18149:18164   */\n      add\n        /* \"#utility.yul\":18142:18183   */\n      mstore\n        /* \"#utility.yul\":17957:18190   */\n      pop\n      jump\t// out\n        /* \"#utility.yul\":18196:18562   */\n    tag_292:\n        /* \"#utility.yul\":18338:18341   */\n      0x00\n        /* \"#utility.yul\":18359:18426   */\n      tag_482\n        /* \"#utility.yul\":18423:18425   */\n      0x2e\n        /* \"#utility.yul\":18418:18421   */\n      dup4\n        /* \"#utility.yul\":18359:18426   */\n      tag_269\n      jump\t// in\n    tag_482:\n        /* \"#utility.yul\":18352:18426   */\n      swap2\n      pop\n        /* \"#utility.yul\":18435:18528   */\n      tag_483\n        /* \"#utility.yul\":18524:18527   */\n      dup3\n        /* \"#utility.yul\":18435:18528   */\n      tag_291\n      jump\t// in\n    tag_483:\n        /* \"#utility.yul\":18553:18555   */\n      0x40\n        /* \"#utility.yul\":18548:18551   */\n      dup3\n        /* \"#utility.yul\":18544:18556   */\n      add\n        /* \"#utility.yul\":18537:18556   */\n      swap1\n      pop\n        /* \"#utility.yul\":18196:18562   */\n      swap2\n      swap1\n      pop\n      jump\t// out\n        /* \"#utility.yul\":18568:18987   */\n    tag_149:\n        /* \"#utility.yul\":18734:18738   */\n      0x00\n        /* \"#utility.yul\":18772:18774   */\n      0x20\n        /* \"#utility.yul\":18761:18770   */\n      dup3\n        /* \"#utility.yul\":18757:18775   */\n      add\n        /* \"#utility.yul\":18749:18775   */\n      swap1\n      pop\n        /* \"#utility.yul\":18821:18830   */\n      dup2\n        /* \"#utility.yul\":18815:18819   */\n      dup2\n        /* \"#utility.yul\":18811:18831   */\n      sub\n        /* \"#utility.yul\":18807:18808   */\n      0x00\n        /* \"#utility.yul\":18796:18805   */\n      dup4\n        /* \"#utility.yul\":18792:18809   */\n      add\n        /* \"#utility.yul\":18785:18832   */\n      mstore\n        /* \"#utility.yul\":18849:18980   */\n      tag_485\n        /* \"#utility.yul\":18975:18979   */\n      dup2\n        /* \"#utility.yul\":18849:18980   */\n      tag_292\n      jump\t// in\n    tag_485:\n        /* \"#utility.yul\":18841:18980   */\n      swap1\n      pop\n        /* \"#utility.yul\":18568:18987   */\n      swap2\n      swap1\n      pop\n      jump\t// out\n        /* \"#utility.yul\":18993:19168   */\n    tag_293:\n        /* \"#utility.yul\":19133:19160   */\n      0x6d696e4475726174696f6e203e206d61784475726174696f6e00000000000000\n        /* \"#utility.yul\":19129:19130   */\n      0x00\n        /* \"#utility.yul\":19121:19127   */\n      dup3\n        /* \"#utility.yul\":19117:19131   */\n      add\n        /* \"#utility.yul\":19110:19161   */\n      mstore\n        /* \"#utility.yul\":18993:19168   */\n      pop\n      jump\t// out\n        /* \"#utility.yul\":19174:19540   */\n    tag_294:\n        /* \"#utility.yul\":19316:19319   */\n      0x00\n        /* \"#utility.yul\":19337:19404   */\n      tag_488\n        /* \"#utility.yul\":19401:19403   */\n      0x19\n        /* \"#utility.yul\":19396:19399   */\n      dup4\n        /* \"#utility.yul\":19337:19404   */\n      tag_269\n      jump\t// in\n    tag_488:\n        /* \"#utility.yul\":19330:19404   */\n      swap2\n      pop\n        /* \"#utility.yul\":19413:19506   */\n      tag_489\n        /* \"#utility.yul\":19502:19505   */\n      dup3\n        /* \"#utility.yul\":19413:19506   */\n      tag_293\n      jump\t// in\n    tag_489:\n        /* \"#utility.yul\":19531:19533   */\n      0x20\n        /* \"#utility.yul\":19526:19529   */\n      dup3\n        /* \"#utility.yul\":19522:19534   */\n      add\n        /* \"#utility.yul\":19515:19534   */\n      swap1\n      pop\n        /* \"#utility.yul\":19174:19540   */\n      swap2\n      swap1\n      pop\n      jump\t// out\n        /* \"#utility.yul\":19546:19965   */\n    tag_154:\n        /* \"#utility.yul\":19712:19716   */\n      0x00\n        /* \"#utility.yul\":19750:19752   */\n      0x20\n        /* \"#utility.yul\":19739:19748   */\n      dup3\n        /* \"#utility.yul\":19735:19753   */\n      add\n        /* \"#utility.yul\":19727:19753   */\n      swap1\n      pop\n        /* \"#utility.yul\":19799:19808   */\n      dup2\n        /* \"#utility.yul\":19793:19797   */\n      dup2\n        /* \"#utility.yul\":19789:19809   */\n      sub\n        /* \"#utility.yul\":19785:19786   */\n      0x00\n        /* \"#utility.yul\":19774:19783   */\n      dup4\n        /* \"#utility.yul\":19770:19787   */\n      add\n        /* \"#utility.yul\":19763:19810   */\n      mstore\n        /* \"#utility.yul\":19827:19958   */\n      tag_491\n        /* \"#utility.yul\":19953:19957   */\n      dup2\n        /* \"#utility.yul\":19827:19958   */\n      tag_294\n      jump\t// in\n    tag_491:\n        /* \"#utility.yul\":19819:19958   */\n      swap1\n      pop\n        /* \"#utility.yul\":19546:19965   */\n      swap2\n      swap1\n      pop\n      jump\t// out\n        /* \"#utility.yul\":19971:20056   */\n    tag_295:\n        /* \"#utility.yul\":20016:20023   */\n      0x00\n        /* \"#utility.yul\":20045:20050   */\n      dup2\n        /* \"#utility.yul\":20034:20050   */\n      swap1\n      pop\n        /* \"#utility.yul\":19971:20056   */\n      swap2\n      swap1\n      pop\n      jump\t// out\n        /* \"#utility.yul\":20062:20148   */\n    tag_296:\n        /* \"#utility.yul\":20097:20104   */\n      0x00\n        /* \"#utility.yul\":20137:20141   */\n      0xff\n        /* \"#utility.yul\":20130:20135   */\n      dup3\n        /* \"#utility.yul\":20126:20142   */\n      and\n        /* \"#utility.yul\":20115:20142   */\n      swap1\n      pop\n        /* \"#utility.yul\":20062:20148   */\n      swap2\n      swap1\n      pop\n      jump\t// out\n        /* \"#utility.yul\":20154:20308   */\n    tag_297:\n        /* \"#utility.yul\":20210:20219   */\n      0x00\n        /* \"#utility.yul\":20243:20302   */\n      tag_495\n        /* \"#utility.yul\":20259:20301   */\n      tag_496\n        /* \"#utility.yul\":20268:20300   */\n      tag_497\n        /* \"#utility.yul\":20294:20299   */\n      dup5\n        /* \"#utility.yul\":20268:20300   */\n      tag_295\n      jump\t// in\n    tag_497:\n        /* \"#utility.yul\":20259:20301   */\n      tag_264\n      jump\t// in\n    tag_496:\n        /* \"#utility.yul\":20243:20302   */\n      tag_296\n      jump\t// in\n    tag_495:\n        /* \"#utility.yul\":20230:20302   */\n      swap1\n      pop\n        /* \"#utility.yul\":20154:20308   */\n      swap2\n      swap1\n      pop\n      jump\t// out\n        /* \"#utility.yul\":20314:20457   */\n    tag_298:\n        /* \"#utility.yul\":20407:20450   */\n      tag_499\n        /* \"#utility.yul\":20444:20449   */\n      dup2\n        /* \"#utility.yul\":20407:20450   */\n      tag_297\n      jump\t// in\n    tag_499:\n        /* \"#utility.yul\":20402:20405   */\n      dup3\n        /* \"#utility.yul\":20395:20451   */\n      mstore\n        /* \"#utility.yul\":20314:20457   */\n      pop\n      pop\n      jump\t// out\n        /* \"#utility.yul\":20463:20697   */\n    tag_157:\n        /* \"#utility.yul\":20562:20566   */\n      0x00\n        /* \"#utility.yul\":20600:20602   */\n      0x20\n        /* \"#utility.yul\":20589:20598   */\n      dup3\n        /* \"#utility.yul\":20585:20603   */\n      add\n        /* \"#utility.yul\":20577:20603   */\n      swap1\n      pop\n        /* \"#utility.yul\":20613:20690   */\n      tag_501\n        /* \"#utility.yul\":20687:20688   */\n      0x00\n        /* \"#utility.yul\":20676:20685   */\n      dup4\n        /* \"#utility.yul\":20672:20689   */\n      add\n        /* \"#utility.yul\":20663:20669   */\n      dup5\n        /* \"#utility.yul\":20613:20690   */\n      tag_298\n      jump\t// in\n    tag_501:\n        /* \"#utility.yul\":20463:20697   */\n      swap3\n      swap2\n      pop\n      pop\n      jump\t// out\n        /* \"#utility.yul\":20703:20873   */\n    tag_299:\n        /* \"#utility.yul\":20843:20865   */\n      0x63616d706169676e206e6f742073746172746564000000000000000000000000\n        /* \"#utility.yul\":20839:20840   */\n      0x00\n        /* \"#utility.yul\":20831:20837   */\n      dup3\n        /* \"#utility.yul\":20827:20841   */\n      add\n        /* \"#utility.yul\":20820:20866   */\n      mstore\n        /* \"#utility.yul\":20703:20873   */\n      pop\n      jump\t// out\n        /* \"#utility.yul\":20879:21245   */\n    tag_300:\n        /* \"#utility.yul\":21021:21024   */\n      0x00\n        /* \"#utility.yul\":21042:21109   */\n      tag_504\n        /* \"#utility.yul\":21106:21108   */\n      0x14\n        /* \"#utility.yul\":21101:21104   */\n      dup4\n        /* \"#utility.yul\":21042:21109   */\n      tag_269\n      jump\t// in\n    tag_504:\n        /* \"#utility.yul\":21035:21109   */\n      swap2\n      pop\n        /* \"#utility.yul\":21118:21211   */\n      tag_505\n        /* \"#utility.yul\":21207:21210   */\n      dup3\n        /* \"#utility.yul\":21118:21211   */\n      tag_299\n      jump\t// in\n    tag_505:\n        /* \"#utility.yul\":21236:21238   */\n      0x20\n        /* \"#utility.yul\":21231:21234   */\n      dup3\n        /* \"#utility.yul\":21227:21239   */\n      add\n        /* \"#utility.yul\":21220:21239   */\n      swap1\n      pop\n        /* \"#utility.yul\":20879:21245   */\n      swap2\n      swap1\n      pop\n      jump\t// out\n        /* \"#utility.yul\":21251:21670   */\n    tag_167:\n        /* \"#utility.yul\":21417:21421   */\n      0x00\n        /* \"#utility.yul\":21455:21457   */\n      0x20\n        /* \"#utility.yul\":21444:21453   */\n      dup3\n        /* \"#utility.yul\":21440:21458   */\n      add\n        /* \"#utility.yul\":21432:21458   */\n      swap1\n      pop\n        /* \"#utility.yul\":21504:21513   */\n      dup2\n        /* \"#utility.yul\":21498:21502   */\n      dup2\n        /* \"#utility.yul\":21494:21514   */\n      sub\n        /* \"#utility.yul\":21490:21491   */\n      0x00\n        /* \"#utility.yul\":21479:21488   */\n      dup4\n        /* \"#utility.yul\":21475:21492   */\n      add\n        /* \"#utility.yul\":21468:21515   */\n      mstore\n        /* \"#utility.yul\":21532:21663   */\n      tag_507\n        /* \"#utility.yul\":21658:21662   */\n      dup2\n        /* \"#utility.yul\":21532:21663   */\n      tag_300\n      jump\t// in\n    tag_507:\n        /* \"#utility.yul\":21524:21663   */\n      swap1\n      pop\n        /* \"#utility.yul\":21251:21670   */\n      swap2\n      swap1\n      pop\n      jump\t// out\n        /* \"#utility.yul\":21676:21840   */\n    tag_301:\n        /* \"#utility.yul\":21816:21832   */\n      0x696e76616c696420616d6f756e74000000000000000000000000000000000000\n        /* \"#utility.yul\":21812:21813   */\n      0x00\n        /* \"#utility.yul\":21804:21810   */\n      dup3\n        /* \"#utility.yul\":21800:21814   */\n      add\n        /* \"#utility.yul\":21793:21833   */\n      mstore\n        /* \"#utility.yul\":21676:21840   */\n      pop\n      jump\t// out\n        /* \"#utility.yul\":21846:22212   */\n    tag_302:\n        /* \"#utility.yul\":21988:21991   */\n      0x00\n        /* \"#utility.yul\":22009:22076   */\n      tag_510\n        /* \"#utility.yul\":22073:22075   */\n      0x0e\n        /* \"#utility.yul\":22068:22071   */\n      dup4\n        /* \"#utility.yul\":22009:22076   */\n      tag_269\n      jump\t// in\n    tag_510:\n        /* \"#utility.yul\":22002:22076   */\n      swap2\n      pop\n        /* \"#utility.yul\":22085:22178   */\n      tag_511\n        /* \"#utility.yul\":22174:22177   */\n      dup3\n        /* \"#utility.yul\":22085:22178   */\n      tag_301\n      jump\t// in\n    tag_511:\n        /* \"#utility.yul\":22203:22205   */\n      0x20\n        /* \"#utility.yul\":22198:22201   */\n      dup3\n        /* \"#utility.yul\":22194:22206   */\n      add\n        /* \"#utility.yul\":22187:22206   */\n      swap1\n      pop\n        /* \"#utility.yul\":21846:22212   */\n      swap2\n      swap1\n      pop\n      jump\t// out\n        /* \"#utility.yul\":22218:22637   */\n    tag_181:\n        /* \"#utility.yul\":22384:22388   */\n      0x00\n        /* \"#utility.yul\":22422:22424   */\n      0x20\n        /* \"#utility.yul\":22411:22420   */\n      dup3\n        /* \"#utility.yul\":22407:22425   */\n      add\n        /* \"#utility.yul\":22399:22425   */\n      swap1\n      pop\n        /* \"#utility.yul\":22471:22480   */\n      dup2\n        /* \"#utility.yul\":22465:22469   */\n      dup2\n        /* \"#utility.yul\":22461:22481   */\n      sub\n        /* \"#utility.yul\":22457:22458   */\n      0x00\n        /* \"#utility.yul\":22446:22455   */\n      dup4\n        /* \"#utility.yul\":22442:22459   */\n      add\n        /* \"#utility.yul\":22435:22482   */\n      mstore\n        /* \"#utility.yul\":22499:22630   */\n      tag_513\n        /* \"#utility.yul\":22625:22629   */\n      dup2\n        /* \"#utility.yul\":22499:22630   */\n      tag_302\n      jump\t// in\n    tag_513:\n        /* \"#utility.yul\":22491:22630   */\n      swap1\n      pop\n        /* \"#utility.yul\":22218:22637   */\n      swap2\n      swap1\n      pop\n      jump\t// out\n        /* \"#utility.yul\":22643:22837   */\n    tag_183:\n        /* \"#utility.yul\":22683:22687   */\n      0x00\n        /* \"#utility.yul\":22703:22723   */\n      tag_515\n        /* \"#utility.yul\":22721:22722   */\n      dup3\n        /* \"#utility.yul\":22703:22723   */\n      tag_243\n      jump\t// in\n    tag_515:\n        /* \"#utility.yul\":22698:22723   */\n      swap2\n      pop\n        /* \"#utility.yul\":22737:22757   */\n      tag_516\n        /* \"#utility.yul\":22755:22756   */\n      dup4\n        /* \"#utility.yul\":22737:22757   */\n      tag_243\n      jump\t// in\n    tag_516:\n        /* \"#utility.yul\":22732:22757   */\n      swap3\n      pop\n        /* \"#utility.yul\":22781:22782   */\n      dup3\n        /* \"#utility.yul\":22778:22779   */\n      dup3\n        /* \"#utility.yul\":22774:22783   */\n      sub\n        /* \"#utility.yul\":22766:22783   */\n      swap1\n      pop\n        /* \"#utility.yul\":22805:22806   */\n      dup2\n        /* \"#utility.yul\":22799:22803   */\n      dup2\n        /* \"#utility.yul\":22796:22807   */\n      gt\n        /* \"#utility.yul\":22793:22830   */\n      iszero\n      tag_517\n      jumpi\n        /* \"#utility.yul\":22810:22828   */\n      tag_518\n      tag_278\n      jump\t// in\n    tag_518:\n        /* \"#utility.yul\":22793:22830   */\n    tag_517:\n        /* \"#utility.yul\":22643:22837   */\n      swap3\n      swap2\n      pop\n      pop\n      jump\t// out\n        /* \"#utility.yul\":22843:23175   */\n    tag_189:\n        /* \"#utility.yul\":22964:22968   */\n      0x00\n        /* \"#utility.yul\":23002:23004   */\n      0x40\n        /* \"#utility.yul\":22991:23000   */\n      dup3\n        /* \"#utility.yul\":22987:23005   */\n      add\n        /* \"#utility.yul\":22979:23005   */\n      swap1\n      pop\n        /* \"#utility.yul\":23015:23086   */\n      tag_520\n        /* \"#utility.yul\":23083:23084   */\n      0x00\n        /* \"#utility.yul\":23072:23081   */\n      dup4\n        /* \"#utility.yul\":23068:23085   */\n      add\n        /* \"#utility.yul\":23059:23065   */\n      dup6\n        /* \"#utility.yul\":23015:23086   */\n      tag_252\n      jump\t// in\n    tag_520:\n        /* \"#utility.yul\":23096:23168   */\n      tag_521\n        /* \"#utility.yul\":23164:23166   */\n      0x20\n        /* \"#utility.yul\":23153:23162   */\n      dup4\n        /* \"#utility.yul\":23149:23167   */\n      add\n        /* \"#utility.yul\":23140:23146   */\n      dup5\n        /* \"#utility.yul\":23096:23168   */\n      tag_252\n      jump\t// in\n    tag_521:\n        /* \"#utility.yul\":22843:23175   */\n      swap4\n      swap3\n      pop\n      pop\n      pop\n      jump\t// out\n        /* \"#utility.yul\":23181:23324   */\n    tag_303:\n        /* \"#utility.yul\":23238:23243   */\n      0x00\n        /* \"#utility.yul\":23269:23275   */\n      dup2\n        /* \"#utility.yul\":23263:23276   */\n      mload\n        /* \"#utility.yul\":23254:23276   */\n      swap1\n      pop\n        /* \"#utility.yul\":23285:23318   */\n      tag_523\n        /* \"#utility.yul\":23312:23317   */\n      dup2\n        /* \"#utility.yul\":23285:23318   */\n      tag_248\n      jump\t// in\n    tag_523:\n        /* \"#utility.yul\":23181:23324   */\n      swap3\n      swap2\n      pop\n      pop\n      jump\t// out\n        /* \"#utility.yul\":23330:23681   */\n    tag_193:\n        /* \"#utility.yul\":23400:23406   */\n      0x00\n        /* \"#utility.yul\":23449:23451   */\n      0x20\n        /* \"#utility.yul\":23437:23446   */\n      dup3\n        /* \"#utility.yul\":23428:23435   */\n      dup5\n        /* \"#utility.yul\":23424:23447   */\n      sub\n        /* \"#utility.yul\":23420:23452   */\n      slt\n        /* \"#utility.yul\":23417:23536   */\n      iszero\n      tag_525\n      jumpi\n        /* \"#utility.yul\":23455:23534   */\n      tag_526\n      tag_246\n      jump\t// in\n    tag_526:\n        /* \"#utility.yul\":23417:23536   */\n    tag_525:\n        /* \"#utility.yul\":23575:23576   */\n      0x00\n        /* \"#utility.yul\":23600:23664   */\n      tag_527\n        /* \"#utility.yul\":23656:23663   */\n      dup5\n        /* \"#utility.yul\":23647:23653   */\n      dup3\n        /* \"#utility.yul\":23636:23645   */\n      dup6\n        /* \"#utility.yul\":23632:23654   */\n      add\n        /* \"#utility.yul\":23600:23664   */\n      tag_303\n      jump\t// in\n    tag_527:\n        /* \"#utility.yul\":23590:23664   */\n      swap2\n      pop\n        /* \"#utility.yul\":23546:23674   */\n      pop\n        /* \"#utility.yul\":23330:23681   */\n      swap3\n      swap2\n      pop\n      pop\n      jump\t// out\n        /* \"#utility.yul\":23687:24019   */\n    tag_197:\n        /* \"#utility.yul\":23808:23812   */\n      0x00\n        /* \"#utility.yul\":23846:23848   */\n      0x40\n        /* \"#utility.yul\":23835:23844   */\n      dup3\n        /* \"#utility.yul\":23831:23849   */\n      add\n        /* \"#utility.yul\":23823:23849   */\n      swap1\n      pop\n        /* \"#utility.yul\":23859:23930   */\n      tag_529\n        /* \"#utility.yul\":23927:23928   */\n      0x00\n        /* \"#utility.yul\":23916:23925   */\n      dup4\n        /* \"#utility.yul\":23912:23929   */\n      add\n        /* \"#utility.yul\":23903:23909   */\n      dup6\n        /* \"#utility.yul\":23859:23930   */\n      tag_252\n      jump\t// in\n    tag_529:\n        /* \"#utility.yul\":23940:24012   */\n      tag_530\n        /* \"#utility.yul\":24008:24010   */\n      0x20\n        /* \"#utility.yul\":23997:24006   */\n      dup4\n        /* \"#utility.yul\":23993:24011   */\n      add\n        /* \"#utility.yul\":23984:23990   */\n      dup5\n        /* \"#utility.yul\":23940:24012   */\n      tag_244\n      jump\t// in\n    tag_530:\n        /* \"#utility.yul\":23687:24019   */\n      swap4\n      swap3\n      pop\n      pop\n      pop\n      jump\t// out\n        /* \"#utility.yul\":24025:24467   */\n    tag_206:\n        /* \"#utility.yul\":24174:24178   */\n      0x00\n        /* \"#utility.yul\":24212:24214   */\n      0x60\n        /* \"#utility.yul\":24201:24210   */\n      dup3\n        /* \"#utility.yul\":24197:24215   */\n      add\n        /* \"#utility.yul\":24189:24215   */\n      swap1\n      pop\n        /* \"#utility.yul\":24225:24296   */\n      tag_532\n        /* \"#utility.yul\":24293:24294   */\n      0x00\n        /* \"#utility.yul\":24282:24291   */\n      dup4\n        /* \"#utility.yul\":24278:24295   */\n      add\n        /* \"#utility.yul\":24269:24275   */\n      dup7\n        /* \"#utility.yul\":24225:24296   */\n      tag_252\n      jump\t// in\n    tag_532:\n        /* \"#utility.yul\":24306:24378   */\n      tag_533\n        /* \"#utility.yul\":24374:24376   */\n      0x20\n        /* \"#utility.yul\":24363:24372   */\n      dup4\n        /* \"#utility.yul\":24359:24377   */\n      add\n        /* \"#utility.yul\":24350:24356   */\n      dup6\n        /* \"#utility.yul\":24306:24378   */\n      tag_252\n      jump\t// in\n    tag_533:\n        /* \"#utility.yul\":24388:24460   */\n      tag_534\n        /* \"#utility.yul\":24456:24458   */\n      0x40\n        /* \"#utility.yul\":24445:24454   */\n      dup4\n        /* \"#utility.yul\":24441:24459   */\n      add\n        /* \"#utility.yul\":24432:24438   */\n      dup5\n        /* \"#utility.yul\":24388:24460   */\n      tag_244\n      jump\t// in\n    tag_534:\n        /* \"#utility.yul\":24025:24467   */\n      swap5\n      swap4\n      pop\n      pop\n      pop\n      pop\n      jump\t// out\n        /* \"#utility.yul\":24473:24589   */\n    tag_304:\n        /* \"#utility.yul\":24543:24564   */\n      tag_536\n        /* \"#utility.yul\":24558:24563   */\n      dup2\n        /* \"#utility.yul\":24543:24564   */\n      tag_255\n      jump\t// in\n    tag_536:\n        /* \"#utility.yul\":24536:24541   */\n      dup2\n        /* \"#utility.yul\":24533:24565   */\n      eq\n        /* \"#utility.yul\":24523:24583   */\n      tag_537\n      jumpi\n        /* \"#utility.yul\":24579:24580   */\n      0x00\n        /* \"#utility.yul\":24576:24577   */\n      dup1\n        /* \"#utility.yul\":24569:24581   */\n      revert\n        /* \"#utility.yul\":24523:24583   */\n    tag_537:\n        /* \"#utility.yul\":24473:24589   */\n      pop\n      jump\t// out\n        /* \"#utility.yul\":24595:24732   */\n    tag_305:\n        /* \"#utility.yul\":24649:24654   */\n      0x00\n        /* \"#utility.yul\":24680:24686   */\n      dup2\n        /* \"#utility.yul\":24674:24687   */\n      mload\n        /* \"#utility.yul\":24665:24687   */\n      swap1\n      pop\n        /* \"#utility.yul\":24696:24726   */\n      tag_539\n        /* \"#utility.yul\":24720:24725   */\n      dup2\n        /* \"#utility.yul\":24696:24726   */\n      tag_304\n      jump\t// in\n    tag_539:\n        /* \"#utility.yul\":24595:24732   */\n      swap3\n      swap2\n      pop\n      pop\n      jump\t// out\n        /* \"#utility.yul\":24738:25083   */\n    tag_212:\n        /* \"#utility.yul\":24805:24811   */\n      0x00\n        /* \"#utility.yul\":24854:24856   */\n      0x20\n        /* \"#utility.yul\":24842:24851   */\n      dup3\n        /* \"#utility.yul\":24833:24840   */\n      dup5\n        /* \"#utility.yul\":24829:24852   */\n      sub\n        /* \"#utility.yul\":24825:24857   */\n      slt\n        /* \"#utility.yul\":24822:24941   */\n      iszero\n      tag_541\n      jumpi\n        /* \"#utility.yul\":24860:24939   */\n      tag_542\n      tag_246\n      jump\t// in\n    tag_542:\n        /* \"#utility.yul\":24822:24941   */\n    tag_541:\n        /* \"#utility.yul\":24980:24981   */\n      0x00\n        /* \"#utility.yul\":25005:25066   */\n      tag_543\n        /* \"#utility.yul\":25058:25065   */\n      dup5\n        /* \"#utility.yul\":25049:25055   */\n      dup3\n        /* \"#utility.yul\":25038:25047   */\n      dup6\n        /* \"#utility.yul\":25034:25056   */\n      add\n        /* \"#utility.yul\":25005:25066   */\n      tag_305\n      jump\t// in\n    tag_543:\n        /* \"#utility.yul\":24995:25066   */\n      swap2\n      pop\n        /* \"#utility.yul\":24951:25076   */\n      pop\n        /* \"#utility.yul\":24738:25083   */\n      swap3\n      swap2\n      pop\n      pop\n      jump\t// out\n        /* \"#utility.yul\":25089:25318   */\n    tag_306:\n        /* \"#utility.yul\":25229:25263   */\n      0x5361666545524332303a204552433230206f7065726174696f6e20646964206e\n        /* \"#utility.yul\":25225:25226   */\n      0x00\n        /* \"#utility.yul\":25217:25223   */\n      dup3\n        /* \"#utility.yul\":25213:25227   */\n      add\n        /* \"#utility.yul\":25206:25264   */\n      mstore\n        /* \"#utility.yul\":25298:25310   */\n      0x6f74207375636365656400000000000000000000000000000000000000000000\n        /* \"#utility.yul\":25293:25295   */\n      0x20\n        /* \"#utility.yul\":25285:25291   */\n      dup3\n        /* \"#utility.yul\":25281:25296   */\n      add\n        /* \"#utility.yul\":25274:25311   */\n      mstore\n        /* \"#utility.yul\":25089:25318   */\n      pop\n      jump\t// out\n        /* \"#utility.yul\":25324:25690   */\n    tag_307:\n        /* \"#utility.yul\":25466:25469   */\n      0x00\n        /* \"#utility.yul\":25487:25554   */\n      tag_546\n        /* \"#utility.yul\":25551:25553   */\n      0x2a\n        /* \"#utility.yul\":25546:25549   */\n      dup4\n        /* \"#utility.yul\":25487:25554   */\n      tag_269\n      jump\t// in\n    tag_546:\n        /* \"#utility.yul\":25480:25554   */\n      swap2\n      pop\n        /* \"#utility.yul\":25563:25656   */\n      tag_547\n        /* \"#utility.yul\":25652:25655   */\n      dup3\n        /* \"#utility.yul\":25563:25656   */\n      tag_306\n      jump\t// in\n    tag_547:\n        /* \"#utility.yul\":25681:25683   */\n      0x40\n        /* \"#utility.yul\":25676:25679   */\n      dup3\n        /* \"#utility.yul\":25672:25684   */\n      add\n        /* \"#utility.yul\":25665:25684   */\n      swap1\n      pop\n        /* \"#utility.yul\":25324:25690   */\n      swap2\n      swap1\n      pop\n      jump\t// out\n        /* \"#utility.yul\":25696:26115   */\n    tag_215:\n        /* \"#utility.yul\":25862:25866   */\n      0x00\n        /* \"#utility.yul\":25900:25902   */\n      0x20\n        /* \"#utility.yul\":25889:25898   */\n      dup3\n        /* \"#utility.yul\":25885:25903   */\n      add\n        /* \"#utility.yul\":25877:25903   */\n      swap1\n      pop\n        /* \"#utility.yul\":25949:25958   */\n      dup2\n        /* \"#utility.yul\":25943:25947   */\n      dup2\n        /* \"#utility.yul\":25939:25959   */\n      sub\n        /* \"#utility.yul\":25935:25936   */\n      0x00\n        /* \"#utility.yul\":25924:25933   */\n      dup4\n        /* \"#utility.yul\":25920:25937   */\n      add\n        /* \"#utility.yul\":25913:25960   */\n      mstore\n        /* \"#utility.yul\":25977:26108   */\n      tag_549\n        /* \"#utility.yul\":26103:26107   */\n      dup2\n        /* \"#utility.yul\":25977:26108   */\n      tag_307\n      jump\t// in\n    tag_549:\n        /* \"#utility.yul\":25969:26108   */\n      swap1\n      pop\n        /* \"#utility.yul\":25696:26115   */\n      swap2\n      swap1\n      pop\n      jump\t// out\n        /* \"#utility.yul\":26121:26346   */\n    tag_308:\n        /* \"#utility.yul\":26261:26295   */\n      0x416464726573733a20696e73756666696369656e742062616c616e636520666f\n        /* \"#utility.yul\":26257:26258   */\n      0x00\n        /* \"#utility.yul\":26249:26255   */\n      dup3\n        /* \"#utility.yul\":26245:26259   */\n      add\n        /* \"#utility.yul\":26238:26296   */\n      mstore\n        /* \"#utility.yul\":26330:26338   */\n      0x722063616c6c0000000000000000000000000000000000000000000000000000\n        /* \"#utility.yul\":26325:26327   */\n      0x20\n        /* \"#utility.yul\":26317:26323   */\n      dup3\n        /* \"#utility.yul\":26313:26328   */\n      add\n        /* \"#utility.yul\":26306:26339   */\n      mstore\n        /* \"#utility.yul\":26121:26346   */\n      pop\n      jump\t// out\n        /* \"#utility.yul\":26352:26718   */\n    tag_309:\n        /* \"#utility.yul\":26494:26497   */\n      0x00\n        /* \"#utility.yul\":26515:26582   */\n      tag_552\n        /* \"#utility.yul\":26579:26581   */\n      0x26\n        /* \"#utility.yul\":26574:26577   */\n      dup4\n        /* \"#utility.yul\":26515:26582   */\n      tag_269\n      jump\t// in\n    tag_552:\n        /* \"#utility.yul\":26508:26582   */\n      swap2\n      pop\n        /* \"#utility.yul\":26591:26684   */\n      tag_553\n        /* \"#utility.yul\":26680:26683   */\n      dup3\n        /* \"#utility.yul\":26591:26684   */\n      tag_308\n      jump\t// in\n    tag_553:\n        /* \"#utility.yul\":26709:26711   */\n      0x40\n        /* \"#utility.yul\":26704:26707   */\n      dup3\n        /* \"#utility.yul\":26700:26712   */\n      add\n        /* \"#utility.yul\":26693:26712   */\n      swap1\n      pop\n        /* \"#utility.yul\":26352:26718   */\n      swap2\n      swap1\n      pop\n      jump\t// out\n        /* \"#utility.yul\":26724:27143   */\n    tag_222:\n        /* \"#utility.yul\":26890:26894   */\n      0x00\n        /* \"#utility.yul\":26928:26930   */\n      0x20\n        /* \"#utility.yul\":26917:26926   */\n      dup3\n        /* \"#utility.yul\":26913:26931   */\n      add\n        /* \"#utility.yul\":26905:26931   */\n      swap1\n      pop\n        /* \"#utility.yul\":26977:26986   */\n      dup2\n        /* \"#utility.yul\":26971:26975   */\n      dup2\n        /* \"#utility.yul\":26967:26987   */\n      sub\n        /* \"#utility.yul\":26963:26964   */\n      0x00\n        /* \"#utility.yul\":26952:26961   */\n      dup4\n        /* \"#utility.yul\":26948:26965   */\n      add\n        /* \"#utility.yul\":26941:26988   */\n      mstore\n        /* \"#utility.yul\":27005:27136   */\n      tag_555\n        /* \"#utility.yul\":27131:27135   */\n      dup2\n        /* \"#utility.yul\":27005:27136   */\n      tag_309\n      jump\t// in\n    tag_555:\n        /* \"#utility.yul\":26997:27136   */\n      swap1\n      pop\n        /* \"#utility.yul\":26724:27143   */\n      swap2\n      swap1\n      pop\n      jump\t// out\n        /* \"#utility.yul\":27149:27328   */\n    tag_310:\n        /* \"#utility.yul\":27289:27320   */\n      0x416464726573733a2063616c6c20746f206e6f6e2d636f6e7472616374000000\n        /* \"#utility.yul\":27285:27286   */\n      0x00\n        /* \"#utility.yul\":27277:27283   */\n      dup3\n        /* \"#utility.yul\":27273:27287   */\n      add\n        /* \"#utility.yul\":27266:27321   */\n      mstore\n        /* \"#utility.yul\":27149:27328   */\n      pop\n      jump\t// out\n        /* \"#utility.yul\":27334:27700   */\n    tag_311:\n        /* \"#utility.yul\":27476:27479   */\n      0x00\n        /* \"#utility.yul\":27497:27564   */\n      tag_558\n        /* \"#utility.yul\":27561:27563   */\n      0x1d\n        /* \"#utility.yul\":27556:27559   */\n      dup4\n        /* \"#utility.yul\":27497:27564   */\n      tag_269\n      jump\t// in\n    tag_558:\n        /* \"#utility.yul\":27490:27564   */\n      swap2\n      pop\n        /* \"#utility.yul\":27573:27666   */\n      tag_559\n        /* \"#utility.yul\":27662:27665   */\n      dup3\n        /* \"#utility.yul\":27573:27666   */\n      tag_310\n      jump\t// in\n    tag_559:\n        /* \"#utility.yul\":27691:27693   */\n      0x20\n        /* \"#utility.yul\":27686:27689   */\n      dup3\n        /* \"#utility.yul\":27682:27694   */\n      add\n        /* \"#utility.yul\":27675:27694   */\n      swap1\n      pop\n        /* \"#utility.yul\":27334:27700   */\n      swap2\n      swap1\n      pop\n      jump\t// out\n        /* \"#utility.yul\":27706:28125   */\n    tag_227:\n        /* \"#utility.yul\":27872:27876   */\n      0x00\n        /* \"#utility.yul\":27910:27912   */\n      0x20\n        /* \"#utility.yul\":27899:27908   */\n      dup3\n        /* \"#utility.yul\":27895:27913   */\n      add\n        /* \"#utility.yul\":27887:27913   */\n      swap1\n      pop\n        /* \"#utility.yul\":27959:27968   */\n      dup2\n        /* \"#utility.yul\":27953:27957   */\n      dup2\n        /* \"#utility.yul\":27949:27969   */\n      sub\n        /* \"#utility.yul\":27945:27946   */\n      0x00\n        /* \"#utility.yul\":27934:27943   */\n      dup4\n        /* \"#utility.yul\":27930:27947   */\n      add\n        /* \"#utility.yul\":27923:27970   */\n      mstore\n        /* \"#utility.yul\":27987:28118   */\n      tag_561\n        /* \"#utility.yul\":28113:28117   */\n      dup2\n        /* \"#utility.yul\":27987:28118   */\n      tag_311\n      jump\t// in\n    tag_561:\n        /* \"#utility.yul\":27979:28118   */\n      swap1\n      pop\n        /* \"#utility.yul\":27706:28125   */\n      swap2\n      swap1\n      pop\n      jump\t// out\n        /* \"#utility.yul\":28131:28229   */\n    tag_312:\n        /* \"#utility.yul\":28182:28188   */\n      0x00\n        /* \"#utility.yul\":28216:28221   */\n      dup2\n        /* \"#utility.yul\":28210:28222   */\n      mload\n        /* \"#utility.yul\":28200:28222   */\n      swap1\n      pop\n        /* \"#utility.yul\":28131:28229   */\n      swap2\n      swap1\n      pop\n      jump\t// out\n        /* \"#utility.yul\":28235:28382   */\n    tag_313:\n        /* \"#utility.yul\":28336:28347   */\n      0x00\n        /* \"#utility.yul\":28373:28376   */\n      dup2\n        /* \"#utility.yul\":28358:28376   */\n      swap1\n      pop\n        /* \"#utility.yul\":28235:28382   */\n      swap3\n      swap2\n      pop\n      pop\n      jump\t// out\n        /* \"#utility.yul\":28388:28634   */\n    tag_314:\n        /* \"#utility.yul\":28469:28470   */\n      0x00\n        /* \"#utility.yul\":28479:28592   */\n    tag_565:\n        /* \"#utility.yul\":28493:28499   */\n      dup4\n        /* \"#utility.yul\":28490:28491   */\n      dup2\n        /* \"#utility.yul\":28487:28500   */\n      lt\n        /* \"#utility.yul\":28479:28592   */\n      iszero\n      tag_567\n      jumpi\n        /* \"#utility.yul\":28578:28579   */\n      dup1\n        /* \"#utility.yul\":28573:28576   */\n      dup3\n        /* \"#utility.yul\":28569:28580   */\n      add\n        /* \"#utility.yul\":28563:28581   */\n      mload\n        /* \"#utility.yul\":28559:28560   */\n      dup2\n        /* \"#utility.yul\":28554:28557   */\n      dup5\n        /* \"#utility.yul\":28550:28561   */\n      add\n        /* \"#utility.yul\":28543:28582   */\n      mstore\n        /* \"#utility.yul\":28515:28517   */\n      0x20\n        /* \"#utility.yul\":28512:28513   */\n      dup2\n        /* \"#utility.yul\":28508:28518   */\n      add\n        /* \"#utility.yul\":28503:28518   */\n      swap1\n      pop\n        /* \"#utility.yul\":28479:28592   */\n      jump(tag_565)\n    tag_567:\n        /* \"#utility.yul\":28626:28627   */\n      0x00\n        /* \"#utility.yul\":28617:28623   */\n      dup5\n        /* \"#utility.yul\":28612:28615   */\n      dup5\n        /* \"#utility.yul\":28608:28624   */\n      add\n        /* \"#utility.yul\":28601:28628   */\n      mstore\n        /* \"#utility.yul\":28450:28634   */\n      pop\n        /* \"#utility.yul\":28388:28634   */\n      pop\n      pop\n      pop\n      jump\t// out\n        /* \"#utility.yul\":28640:29026   */\n    tag_315:\n        /* \"#utility.yul\":28744:28747   */\n      0x00\n        /* \"#utility.yul\":28772:28810   */\n      tag_569\n        /* \"#utility.yul\":28804:28809   */\n      dup3\n        /* \"#utility.yul\":28772:28810   */\n      tag_312\n      jump\t// in\n    tag_569:\n        /* \"#utility.yul\":28826:28914   */\n      tag_570\n        /* \"#utility.yul\":28907:28913   */\n      dup2\n        /* \"#utility.yul\":28902:28905   */\n      dup6\n        /* \"#utility.yul\":28826:28914   */\n      tag_313\n      jump\t// in\n    tag_570:\n        /* \"#utility.yul\":28819:28914   */\n      swap4\n      pop\n        /* \"#utility.yul\":28923:28988   */\n      tag_571\n        /* \"#utility.yul\":28981:28987   */\n      dup2\n        /* \"#utility.yul\":28976:28979   */\n      dup6\n        /* \"#utility.yul\":28969:28973   */\n      0x20\n        /* \"#utility.yul\":28962:28967   */\n      dup7\n        /* \"#utility.yul\":28958:28974   */\n      add\n        /* \"#utility.yul\":28923:28988   */\n      tag_314\n      jump\t// in\n    tag_571:\n        /* \"#utility.yul\":29013:29019   */\n      dup1\n        /* \"#utility.yul\":29008:29011   */\n      dup5\n        /* \"#utility.yul\":29004:29020   */\n      add\n        /* \"#utility.yul\":28997:29020   */\n      swap2\n      pop\n        /* \"#utility.yul\":28748:29026   */\n      pop\n        /* \"#utility.yul\":28640:29026   */\n      swap3\n      swap2\n      pop\n      pop\n      jump\t// out\n        /* \"#utility.yul\":29032:29303   */\n    tag_229:\n        /* \"#utility.yul\":29162:29165   */\n      0x00\n        /* \"#utility.yul\":29184:29277   */\n      tag_573\n        /* \"#utility.yul\":29273:29276   */\n      dup3\n        /* \"#utility.yul\":29264:29270   */\n      dup5\n        /* \"#utility.yul\":29184:29277   */\n      tag_315\n      jump\t// in\n    tag_573:\n        /* \"#utility.yul\":29177:29277   */\n      swap2\n      pop\n        /* \"#utility.yul\":29294:29297   */\n      dup2\n        /* \"#utility.yul\":29287:29297   */\n      swap1\n      pop\n        /* \"#utility.yul\":29032:29303   */\n      swap3\n      swap2\n      pop\n      pop\n      jump\t// out\n        /* \"#utility.yul\":29309:29408   */\n    tag_316:\n        /* \"#utility.yul\":29361:29367   */\n      0x00\n        /* \"#utility.yul\":29395:29400   */\n      dup2\n        /* \"#utility.yul\":29389:29401   */\n      mload\n        /* \"#utility.yul\":29379:29401   */\n      swap1\n      pop\n        /* \"#utility.yul\":29309:29408   */\n      swap2\n      swap1\n      pop\n      jump\t// out\n        /* \"#utility.yul\":29414:29516   */\n    tag_317:\n        /* \"#utility.yul\":29455:29461   */\n      0x00\n        /* \"#utility.yul\":29506:29508   */\n      0x1f\n        /* \"#utility.yul\":29502:29509   */\n      not\n        /* \"#utility.yul\":29497:29499   */\n      0x1f\n        /* \"#utility.yul\":29490:29495   */\n      dup4\n        /* \"#utility.yul\":29486:29500   */\n      add\n        /* \"#utility.yul\":29482:29510   */\n      and\n        /* \"#utility.yul\":29472:29510   */\n      swap1\n      pop\n        /* \"#utility.yul\":29414:29516   */\n      swap2\n      swap1\n      pop\n      jump\t// out\n        /* \"#utility.yul\":29522:29899   */\n    tag_318:\n        /* \"#utility.yul\":29610:29613   */\n      0x00\n        /* \"#utility.yul\":29638:29677   */\n      tag_577\n        /* \"#utility.yul\":29671:29676   */\n      dup3\n        /* \"#utility.yul\":29638:29677   */\n      tag_316\n      jump\t// in\n    tag_577:\n        /* \"#utility.yul\":29693:29764   */\n      tag_578\n        /* \"#utility.yul\":29757:29763   */\n      dup2\n        /* \"#utility.yul\":29752:29755   */\n      dup6\n        /* \"#utility.yul\":29693:29764   */\n      tag_269\n      jump\t// in\n    tag_578:\n        /* \"#utility.yul\":29686:29764   */\n      swap4\n      pop\n        /* \"#utility.yul\":29773:29838   */\n      tag_579\n        /* \"#utility.yul\":29831:29837   */\n      dup2\n        /* \"#utility.yul\":29826:29829   */\n      dup6\n        /* \"#utility.yul\":29819:29823   */\n      0x20\n        /* \"#utility.yul\":29812:29817   */\n      dup7\n        /* \"#utility.yul\":29808:29824   */\n      add\n        /* \"#utility.yul\":29773:29838   */\n      tag_314\n      jump\t// in\n    tag_579:\n        /* \"#utility.yul\":29863:29892   */\n      tag_580\n        /* \"#utility.yul\":29885:29891   */\n      dup2\n        /* \"#utility.yul\":29863:29892   */\n      tag_317\n      jump\t// in\n    tag_580:\n        /* \"#utility.yul\":29858:29861   */\n      dup5\n        /* \"#utility.yul\":29854:29893   */\n      add\n        /* \"#utility.yul\":29847:29893   */\n      swap2\n      pop\n        /* \"#utility.yul\":29614:29899   */\n      pop\n        /* \"#utility.yul\":29522:29899   */\n      swap3\n      swap2\n      pop\n      pop\n      jump\t// out\n        /* \"#utility.yul\":29905:30218   */\n    tag_242:\n        /* \"#utility.yul\":30018:30022   */\n      0x00\n        /* \"#utility.yul\":30056:30058   */\n      0x20\n        /* \"#utility.yul\":30045:30054   */\n      dup3\n        /* \"#utility.yul\":30041:30059   */\n      add\n        /* \"#utility.yul\":30033:30059   */\n      swap1\n      pop\n        /* \"#utility.yul\":30105:30114   */\n      dup2\n        /* \"#utility.yul\":30099:30103   */\n      dup2\n        /* \"#utility.yul\":30095:30115   */\n      sub\n        /* \"#utility.yul\":30091:30092   */\n      0x00\n        /* \"#utility.yul\":30080:30089   */\n      dup4\n        /* \"#utility.yul\":30076:30093   */\n      add\n        /* \"#utility.yul\":30069:30116   */\n      mstore\n        /* \"#utility.yul\":30133:30211   */\n      tag_582\n        /* \"#utility.yul\":30206:30210   */\n      dup2\n        /* \"#utility.yul\":30197:30203   */\n      dup5\n        /* \"#utility.yul\":30133:30211   */\n      tag_318\n      jump\t// in\n    tag_582:\n        /* \"#utility.yul\":30125:30211   */\n      swap1\n      pop\n        /* \"#utility.yul\":29905:30218   */\n      swap3\n      swap2\n      pop\n      pop\n      jump\t// out\n\n    auxdata: 0xa2646970667358221220eb49d8e614e1c998c265bc41fd322f1a5ee808451031d7ec952b4b91bc339b8c64736f6c63430008130033\n}\n",
				"bytecode": {
					"linkReferences": {},
					"object": "608060405234801561001057600080fd5b506128a5806100206000396000f3fe608060405234801561001057600080fd5b50600436106100cf5760003560e01c8063567157611161008c5780637a1ac61e116100665780637a1ac61e146101f1578063aa4fb63a1461020d578063fc0c546a1461023d578063fde327be1461025b576100cf565b806356715761146101995780636db5c8fd146101b7578063711853ab146101d5576100cf565b806306661abd146100d4578063141961bc146100f2578063278ecde1146101295780632c63f14614610145578063379607f51461016157806340e58ee51461017d575b600080fd5b6100dc610277565b6040516100e991906119c4565b60405180910390f35b61010c60048036038101906101079190611a10565b61027d565b604051610120989796959493929190611ab8565b60405180910390f35b610143600480360381019061013e9190611a10565b61031f565b005b61015f600480360381019061015a9190611b62565b6104ff565b005b61017b60048036038101906101769190611a10565b6107ad565b005b61019760048036038101906101929190611a10565b610b28565b005b6101a1610cee565b6040516101ae91906119c4565b60405180910390f35b6101bf610cf4565b6040516101cc91906119c4565b60405180910390f35b6101ef60048036038101906101ea9190611bb5565b610cfa565b005b61020b60048036038101906102069190611c33565b610e24565b005b61022760048036038101906102229190611cb2565b610fee565b60405161023491906119c4565b60405180910390f35b610245611013565b6040516102529190611d51565b60405180910390f35b61027560048036038101906102709190611bb5565b611039565b005b60035481565b60046020528060005260406000206000915090508060000154908060010160009054906101000a900473ffffffffffffffffffffffffffffffffffffffff16908060020154908060030154908060040160009054906101000a900463ffffffff16908060040160049054906101000a900463ffffffff16908060040160089054906101000a900460ff16908060040160099054906101000a900460ff16905088565b806000600460008381526020019081526020016000206000015403610379576040517f08c379a000000000000000000000000000000000000000000000000000000000815260040161037090611dc9565b60405180910390fd5b816004600082815260200190815260200160002060040160049054906101000a900463ffffffff1663ffffffff1642116103e8576040517f08c379a00000000000000000000000000000000000000000000000000000000081526004016103df90611e35565b60405180910390fd5b60006004600085815260200190815260200160002090508060020154816003015410610449576040517f08c379a000000000000000000000000000000000000000000000000000000000815260040161044090611ea1565b60405180910390fd5b60006005600086815260200190815260200160002060003373ffffffffffffffffffffffffffffffffffffffff1673ffffffffffffffffffffffffffffffffffffffff1681526020019081526020016000205490506104a9338683611318565b3373ffffffffffffffffffffffffffffffffffffffff16857f21e12a7cad0da5928167e1084ea4d5fdf8d9af66657a2543a9ac76a0ca081477836040516104f091906119c4565b60405180910390a35050505050565b428263ffffffff161015610548576040517f08c379a000000000000000000000000000000000000000000000000000000000815260040161053f90611f0d565b60405180910390fd5b6002548263ffffffff1661055c9190611f5c565b8163ffffffff161015801561058a57506001548263ffffffff166105809190611f5c565b8163ffffffff1611155b6105c9576040517f08c379a00000000000000000000000000000000000000000000000000000000081526004016105c090611fdc565b60405180910390fd5b6001600360008282546105dc9190611f5c565b9250508190555060405180610100016040528060035481526020013373ffffffffffffffffffffffffffffffffffffffff168152602001848152602001600081526020018363ffffffff1681526020018263ffffffff168152602001600015158152602001600015158152506004600060035481526020019081526020016000206000820151816000015560208201518160010160006101000a81548173ffffffffffffffffffffffffffffffffffffffff021916908373ffffffffffffffffffffffffffffffffffffffff160217905550604082015181600201556060820151816003015560808201518160040160006101000a81548163ffffffff021916908363ffffffff16021790555060a08201518160040160046101000a81548163ffffffff021916908363ffffffff16021790555060c08201518160040160086101000a81548160ff02191690831515021790555060e08201518160040160096101000a81548160ff0219169083151502179055509050503373ffffffffffffffffffffffffffffffffffffffff166003547f0601cd0d650b473037e838a2696d41e654433d065b3f56b28d1d3302e44a304f8585856040516107a093929190611ffc565b60405180910390a3505050565b806000600460008381526020019081526020016000206000015403610807576040517f08c379a00000000000000000000000000000000000000000000000000000000081526004016107fe90611dc9565b60405180910390fd5b813373ffffffffffffffffffffffffffffffffffffffff166004600083815260200190815260200160002060010160009054906101000a900473ffffffffffffffffffffffffffffffffffffffff1673ffffffffffffffffffffffffffffffffffffffff16146108ac576040517f08c379a00000000000000000000000000000000000000000000000000000000081526004016108a39061207f565b60405180910390fd5b826004600082815260200190815260200160002060040160099054906101000a900460ff1615610911576040517f08c379a0000000000000000000000000000000000000000000000000000000008152600401610908906120eb565b60405180910390fd5b836004600082815260200190815260200160002060040160049054906101000a900463ffffffff1663ffffffff164211610980576040517f08c379a000000000000000000000000000000000000000000000000000000000815260040161097790611e35565b60405180910390fd5b60006004600087815260200190815260200160002090508060040160089054906101000a900460ff16156109e9576040517f08c379a00000000000000000000000000000000000000000000000000000000081526004016109e090612157565b60405180910390fd5b806002015481600301541015610a34576040517f08c379a0000000000000000000000000000000000000000000000000000000008152600401610a2b906121c3565b60405180910390fd5b60018160040160086101000a81548160ff021916908315150217905550610aa2338260030154600060029054906101000a900473ffffffffffffffffffffffffffffffffffffffff1673ffffffffffffffffffffffffffffffffffffffff166114ea9092919063ffffffff16565b610af3338260030154600060029054906101000a900473ffffffffffffffffffffffffffffffffffffffff1673ffffffffffffffffffffffffffffffffffffffff166115fc9092919063ffffffff16565b857f7bb2b3c10797baccb6f8c4791f1edd6ca2f0d028ee0eda64b01a9a57e3a653f760405160405180910390a2505050505050565b806000600460008381526020019081526020016000206000015403610b82576040517f08c379a0000000000000000000000000000000000000000000000000000000008152600401610b7990611dc9565b60405180910390fd5b813373ffffffffffffffffffffffffffffffffffffffff166004600083815260200190815260200160002060010160009054906101000a900473ffffffffffffffffffffffffffffffffffffffff1673ffffffffffffffffffffffffffffffffffffffff1614610c27576040517f08c379a0000000000000000000000000000000000000000000000000000000008152600401610c1e9061207f565b60405180910390fd5b826004600082815260200190815260200160002060040160099054906101000a900460ff1615610c8c576040517f08c379a0000000000000000000000000000000000000000000000000000000008152600401610c83906120eb565b60405180910390fd5b60016004600086815260200190815260200160002060040160096101000a81548160ff021916908315150217905550837f8bf30e7ff26833413be5f69e1d373744864d600b664204b4a2f9844a8eedb9ed60405160405180910390a250505050565b60025481565b60015481565b816000600460008381526020019081526020016000206000015403610d54576040517f08c379a0000000000000000000000000000000000000000000000000000000008152600401610d4b90611dc9565b60405180910390fd5b826004600082815260200190815260200160002060040160049054906101000a900463ffffffff1663ffffffff16421115610dc4576040517f08c379a0000000000000000000000000000000000000000000000000000000008152600401610dbb9061222f565b60405180910390fd5b610dcf338585611318565b3373ffffffffffffffffffffffffffffffffffffffff16847ffcd29b1632c6748a9a4bb9b4cd5c6486c3c84a8550dce2368f83fef3969d968585604051610e1691906119c4565b60405180910390a350505050565b60008060019054906101000a900460ff16159050808015610e555750600160008054906101000a900460ff1660ff16105b80610e825750610e6430611682565b158015610e815750600160008054906101000a900460ff1660ff16145b5b610ec1576040517f08c379a0000000000000000000000000000000000000000000000000000000008152600401610eb8906122c1565b60405180910390fd5b60016000806101000a81548160ff021916908360ff1602179055508015610efe576001600060016101000a81548160ff0219169083151502179055505b818310610f40576040517f08c379a0000000000000000000000000000000000000000000000000000000008152600401610f379061232d565b60405180910390fd5b83600060026101000a81548173ffffffffffffffffffffffffffffffffffffffff021916908373ffffffffffffffffffffffffffffffffffffffff16021790555082600281905550816001819055508015610fe85760008060016101000a81548160ff0219169083151502179055507f7f26b83ff96e1f2b6a682f133852f6798a09c465da95921460cefb38474024986001604051610fdf9190612395565b60405180910390a15b50505050565b6005602052816000526040600020602052806000526040600020600091509150505481565b600060029054906101000a900473ffffffffffffffffffffffffffffffffffffffff1681565b816000600460008381526020019081526020016000206000015403611093576040517f08c379a000000000000000000000000000000000000000000000000000000000815260040161108a90611dc9565b60405180910390fd5b826004600082815260200190815260200160002060040160099054906101000a900460ff16156110f8576040517f08c379a00000000000000000000000000000000000000000000000000000000081526004016110ef906120eb565b60405180910390fd5b836004600082815260200190815260200160002060040160009054906101000a900463ffffffff1663ffffffff16421015611168576040517f08c379a000000000000000000000000000000000000000000000000000000000815260040161115f906123fc565b60405180910390fd5b846004600082815260200190815260200160002060040160049054906101000a900463ffffffff1663ffffffff164211156111d8576040517f08c379a00000000000000000000000000000000000000000000000000000000081526004016111cf9061222f565b60405180910390fd5b6000600460008881526020019081526020016000209050858160030160008282546112039190611f5c565b92505081905550856005600089815260200190815260200160002060003373ffffffffffffffffffffffffffffffffffffffff1673ffffffffffffffffffffffffffffffffffffffff168152602001908152602001600020600082825461126a9190611f5c565b925050819055506112c0333088600060029054906101000a900473ffffffffffffffffffffffffffffffffffffffff1673ffffffffffffffffffffffffffffffffffffffff166116a5909392919063ffffffff16565b3373ffffffffffffffffffffffffffffffffffffffff16877f2757ac6a40883f4491cc56930ae964df9034e343e660d5179eb01e198336756b8860405161130791906119c4565b60405180910390a350505050505050565b60008111801561137857506005600083815260200190815260200160002060008473ffffffffffffffffffffffffffffffffffffffff1673ffffffffffffffffffffffffffffffffffffffff168152602001908152602001600020548111155b6113b7576040517f08c379a00000000000000000000000000000000000000000000000000000000081526004016113ae90612468565b60405180910390fd5b806005600084815260200190815260200160002060008573ffffffffffffffffffffffffffffffffffffffff1673ffffffffffffffffffffffffffffffffffffffff16815260200190815260200160002060008282546114179190612488565b92505081905550806004600084815260200190815260200160002060030160008282546114449190612488565b925050819055506114988382600060029054906101000a900473ffffffffffffffffffffffffffffffffffffffff1673ffffffffffffffffffffffffffffffffffffffff166114ea9092919063ffffffff16565b6114e58382600060029054906101000a900473ffffffffffffffffffffffffffffffffffffffff1673ffffffffffffffffffffffffffffffffffffffff166115fc9092919063ffffffff16565b505050565b6000818473ffffffffffffffffffffffffffffffffffffffff1663dd62ed3e30866040518363ffffffff1660e01b81526004016115289291906124bc565b602060405180830381865afa158015611545573d6000803e3d6000fd5b505050506040513d601f19601f8201168201806040525081019061156991906124fa565b6115739190611f5c565b90506115f68463095ea7b360e01b8584604051602401611594929190612527565b604051602081830303815290604052907bffffffffffffffffffffffffffffffffffffffffffffffffffffffff19166020820180517bffffffffffffffffffffffffffffffffffffffffffffffffffffffff838183161783525050505061172e565b50505050565b61167d8363a9059cbb60e01b848460405160240161161b929190612527565b604051602081830303815290604052907bffffffffffffffffffffffffffffffffffffffffffffffffffffffff19166020820180517bffffffffffffffffffffffffffffffffffffffffffffffffffffffff838183161783525050505061172e565b505050565b6000808273ffffffffffffffffffffffffffffffffffffffff163b119050919050565b611728846323b872dd60e01b8585856040516024016116c693929190612550565b604051602081830303815290604052907bffffffffffffffffffffffffffffffffffffffffffffffffffffffff19166020820180517bffffffffffffffffffffffffffffffffffffffffffffffffffffffff838183161783525050505061172e565b50505050565b6000611790826040518060400160405280602081526020017f5361666545524332303a206c6f772d6c6576656c2063616c6c206661696c65648152508573ffffffffffffffffffffffffffffffffffffffff166117f59092919063ffffffff16565b90506000815111156117f057808060200190518101906117b091906125b3565b6117ef576040517f08c379a00000000000000000000000000000000000000000000000000000000081526004016117e690612652565b60405180910390fd5b5b505050565b6060611804848460008561180d565b90509392505050565b606082471015611852576040517f08c379a0000000000000000000000000000000000000000000000000000000008152600401611849906126e4565b60405180910390fd5b61185b85611921565b61189a576040517f08c379a000000000000000000000000000000000000000000000000000000000815260040161189190612750565b60405180910390fd5b6000808673ffffffffffffffffffffffffffffffffffffffff1685876040516118c391906127e1565b60006040518083038185875af1925050503d8060008114611900576040519150601f19603f3d011682016040523d82523d6000602084013e611905565b606091505b5091509150611915828286611944565b92505050949350505050565b6000808273ffffffffffffffffffffffffffffffffffffffff163b119050919050565b60608315611954578290506119a4565b6000835111156119675782518084602001fd5b816040517f08c379a000000000000000000000000000000000000000000000000000000000815260040161199b919061284d565b60405180910390fd5b9392505050565b6000819050919050565b6119be816119ab565b82525050565b60006020820190506119d960008301846119b5565b92915050565b600080fd5b6119ed816119ab565b81146119f857600080fd5b50565b600081359050611a0a816119e4565b92915050565b600060208284031215611a2657611a256119df565b5b6000611a34848285016119fb565b91505092915050565b600073ffffffffffffffffffffffffffffffffffffffff82169050919050565b6000611a6882611a3d565b9050919050565b611a7881611a5d565b82525050565b600063ffffffff82169050919050565b611a9781611a7e565b82525050565b60008115159050919050565b611ab281611a9d565b82525050565b600061010082019050611ace600083018b6119b5565b611adb602083018a611a6f565b611ae860408301896119b5565b611af560608301886119b5565b611b026080830187611a8e565b611b0f60a0830186611a8e565b611b1c60c0830185611aa9565b611b2960e0830184611aa9565b9998505050505050505050565b611b3f81611a7e565b8114611b4a57600080fd5b50565b600081359050611b5c81611b36565b92915050565b600080600060608486031215611b7b57611b7a6119df565b5b6000611b89868287016119fb565b9350506020611b9a86828701611b4d565b9250506040611bab86828701611b4d565b9150509250925092565b60008060408385031215611bcc57611bcb6119df565b5b6000611bda858286016119fb565b9250506020611beb858286016119fb565b9150509250929050565b6000611c0082611a5d565b9050919050565b611c1081611bf5565b8114611c1b57600080fd5b50565b600081359050611c2d81611c07565b92915050565b600080600060608486031215611c4c57611c4b6119df565b5b6000611c5a86828701611c1e565b9350506020611c6b868287016119fb565b9250506040611c7c868287016119fb565b9150509250925092565b611c8f81611a5d565b8114611c9a57600080fd5b50565b600081359050611cac81611c86565b92915050565b60008060408385031215611cc957611cc86119df565b5b6000611cd7858286016119fb565b9250506020611ce885828601611c9d565b9150509250929050565b6000819050919050565b6000611d17611d12611d0d84611a3d565b611cf2565b611a3d565b9050919050565b6000611d2982611cfc565b9050919050565b6000611d3b82611d1e565b9050919050565b611d4b81611d30565b82525050565b6000602082019050611d666000830184611d42565b92915050565b600082825260208201905092915050565b7f63616d706169676e20646f6573206e6f74206578697374000000000000000000600082015250565b6000611db3601783611d6c565b9150611dbe82611d7d565b602082019050919050565b60006020820190508181036000830152611de281611da6565b9050919050565b7f63616d706169676e206e6f7420656e6465640000000000000000000000000000600082015250565b6000611e1f601283611d6c565b9150611e2a82611de9565b602082019050919050565b60006020820190508181036000830152611e4e81611e12565b9050919050565b7f706c6564676564203e3d20676f616c0000000000000000000000000000000000600082015250565b6000611e8b600f83611d6c565b9150611e9682611e55565b602082019050919050565b60006020820190508181036000830152611eba81611e7e565b9050919050565b7f7374617274206174203c206e6f77000000000000000000000000000000000000600082015250565b6000611ef7600e83611d6c565b9150611f0282611ec1565b602082019050919050565b60006020820190508181036000830152611f2681611eea565b9050919050565b7f4e487b7100000000000000000000000000000000000000000000000000000000600052601160045260246000fd5b6000611f67826119ab565b9150611f72836119ab565b9250828201905080821115611f8a57611f89611f2d565b5b92915050565b7f6e6f7420696e206d696e2026206d6178206475726174696f6e00000000000000600082015250565b6000611fc6601983611d6c565b9150611fd182611f90565b602082019050919050565b60006020820190508181036000830152611ff581611fb9565b9050919050565b600060608201905061201160008301866119b5565b61201e6020830185611a8e565b61202b6040830184611a8e565b949350505050565b7f6e6f742063726561746f72000000000000000000000000000000000000000000600082015250565b6000612069600b83611d6c565b915061207482612033565b602082019050919050565b600060208201905081810360008301526120988161205c565b9050919050565b7f63616d706169676e2063616e63656c6c65640000000000000000000000000000600082015250565b60006120d5601283611d6c565b91506120e08261209f565b602082019050919050565b60006020820190508181036000830152612104816120c8565b9050919050565b7f636c61696d656400000000000000000000000000000000000000000000000000600082015250565b6000612141600783611d6c565b915061214c8261210b565b602082019050919050565b6000602082019050818103600083015261217081612134565b9050919050565b7f706c6564676564203c20676f616c000000000000000000000000000000000000600082015250565b60006121ad600e83611d6c565b91506121b882612177565b602082019050919050565b600060208201905081810360008301526121dc816121a0565b9050919050565b7f63616d706169676e20656e646564000000000000000000000000000000000000600082015250565b6000612219600e83611d6c565b9150612224826121e3565b602082019050919050565b600060208201905081810360008301526122488161220c565b9050919050565b7f496e697469616c697a61626c653a20636f6e747261637420697320616c72656160008201527f647920696e697469616c697a6564000000000000000000000000000000000000602082015250565b60006122ab602e83611d6c565b91506122b68261224f565b604082019050919050565b600060208201905081810360008301526122da8161229e565b9050919050565b7f6d696e4475726174696f6e203e206d61784475726174696f6e00000000000000600082015250565b6000612317601983611d6c565b9150612322826122e1565b602082019050919050565b600060208201905081810360008301526123468161230a565b9050919050565b6000819050919050565b600060ff82169050919050565b600061237f61237a6123758461234d565b611cf2565b612357565b9050919050565b61238f81612364565b82525050565b60006020820190506123aa6000830184612386565b92915050565b7f63616d706169676e206e6f742073746172746564000000000000000000000000600082015250565b60006123e6601483611d6c565b91506123f1826123b0565b602082019050919050565b60006020820190508181036000830152612415816123d9565b9050919050565b7f696e76616c696420616d6f756e74000000000000000000000000000000000000600082015250565b6000612452600e83611d6c565b915061245d8261241c565b602082019050919050565b6000602082019050818103600083015261248181612445565b9050919050565b6000612493826119ab565b915061249e836119ab565b92508282039050818111156124b6576124b5611f2d565b5b92915050565b60006040820190506124d16000830185611a6f565b6124de6020830184611a6f565b9392505050565b6000815190506124f4816119e4565b92915050565b6000602082840312156125105761250f6119df565b5b600061251e848285016124e5565b91505092915050565b600060408201905061253c6000830185611a6f565b61254960208301846119b5565b9392505050565b60006060820190506125656000830186611a6f565b6125726020830185611a6f565b61257f60408301846119b5565b949350505050565b61259081611a9d565b811461259b57600080fd5b50565b6000815190506125ad81612587565b92915050565b6000602082840312156125c9576125c86119df565b5b60006125d78482850161259e565b91505092915050565b7f5361666545524332303a204552433230206f7065726174696f6e20646964206e60008201527f6f74207375636365656400000000000000000000000000000000000000000000602082015250565b600061263c602a83611d6c565b9150612647826125e0565b604082019050919050565b6000602082019050818103600083015261266b8161262f565b9050919050565b7f416464726573733a20696e73756666696369656e742062616c616e636520666f60008201527f722063616c6c0000000000000000000000000000000000000000000000000000602082015250565b60006126ce602683611d6c565b91506126d982612672565b604082019050919050565b600060208201905081810360008301526126fd816126c1565b9050919050565b7f416464726573733a2063616c6c20746f206e6f6e2d636f6e7472616374000000600082015250565b600061273a601d83611d6c565b915061274582612704565b602082019050919050565b600060208201905081810360008301526127698161272d565b9050919050565b600081519050919050565b600081905092915050565b60005b838110156127a4578082015181840152602081019050612789565b60008484015250505050565b60006127bb82612770565b6127c5818561277b565b93506127d5818560208601612786565b80840191505092915050565b60006127ed82846127b0565b915081905092915050565b600081519050919050565b6000601f19601f8301169050919050565b600061281f826127f8565b6128298185611d6c565b9350612839818560208601612786565b61284281612803565b840191505092915050565b600060208201905081810360008301526128678184612814565b90509291505056fea2646970667358221220eb49d8e614e1c998c265bc41fd322f1a5ee808451031d7ec952b4b91bc339b8c64736f6c63430008130033",
					"opcodes": "PUSH1 0x80 PUSH1 0x40 MSTORE CALLVALUE DUP1 ISZERO PUSH2 0x10 JUMPI PUSH1 0x0 DUP1 REVERT JUMPDEST POP PUSH2 0x28A5 DUP1 PUSH2 0x20 PUSH1 0x0 CODECOPY PUSH1 0x0 RETURN INVALID PUSH1 0x80 PUSH1 0x40 MSTORE CALLVALUE DUP1 ISZERO PUSH2 0x10 JUMPI PUSH1 0x0 DUP1 REVERT JUMPDEST POP PUSH1 0x4 CALLDATASIZE LT PUSH2 0xCF JUMPI PUSH1 0x0 CALLDATALOAD PUSH1 0xE0 SHR DUP1 PUSH4 0x56715761 GT PUSH2 0x8C JUMPI DUP1 PUSH4 0x7A1AC61E GT PUSH2 0x66 JUMPI DUP1 PUSH4 0x7A1AC61E EQ PUSH2 0x1F1 JUMPI DUP1 PUSH4 0xAA4FB63A EQ PUSH2 0x20D JUMPI DUP1 PUSH4 0xFC0C546A EQ PUSH2 0x23D JUMPI DUP1 PUSH4 0xFDE327BE EQ PUSH2 0x25B JUMPI PUSH2 0xCF JUMP JUMPDEST DUP1 PUSH4 0x56715761 EQ PUSH2 0x199 JUMPI DUP1 PUSH4 0x6DB5C8FD EQ PUSH2 0x1B7 JUMPI DUP1 PUSH4 0x711853AB EQ PUSH2 0x1D5 JUMPI PUSH2 0xCF JUMP JUMPDEST DUP1 PUSH4 0x6661ABD EQ PUSH2 0xD4 JUMPI DUP1 PUSH4 0x141961BC EQ PUSH2 0xF2 JUMPI DUP1 PUSH4 0x278ECDE1 EQ PUSH2 0x129 JUMPI DUP1 PUSH4 0x2C63F146 EQ PUSH2 0x145 JUMPI DUP1 PUSH4 0x379607F5 EQ PUSH2 0x161 JUMPI DUP1 PUSH4 0x40E58EE5 EQ PUSH2 0x17D JUMPI JUMPDEST PUSH1 0x0 DUP1 REVERT JUMPDEST PUSH2 0xDC PUSH2 0x277 JUMP JUMPDEST PUSH1 0x40 MLOAD PUSH2 0xE9 SWAP2 SWAP1 PUSH2 0x19C4 JUMP JUMPDEST PUSH1 0x40 MLOAD DUP1 SWAP2 SUB SWAP1 RETURN JUMPDEST PUSH2 0x10C PUSH1 0x4 DUP1 CALLDATASIZE SUB DUP2 ADD SWAP1 PUSH2 0x107 SWAP2 SWAP1 PUSH2 0x1A10 JUMP JUMPDEST PUSH2 0x27D JUMP JUMPDEST PUSH1 0x40 MLOAD PUSH2 0x120 SWAP9 SWAP8 SWAP7 SWAP6 SWAP5 SWAP4 SWAP3 SWAP2 SWAP1 PUSH2 0x1AB8 JUMP JUMPDEST PUSH1 0x40 MLOAD DUP1 SWAP2 SUB SWAP1 RETURN JUMPDEST PUSH2 0x143 PUSH1 0x4 DUP1 CALLDATASIZE SUB DUP2 ADD SWAP1 PUSH2 0x13E SWAP2 SWAP1 PUSH2 0x1A10 JUMP JUMPDEST PUSH2 0x31F JUMP JUMPDEST STOP JUMPDEST PUSH2 0x15F PUSH1 0x4 DUP1 CALLDATASIZE SUB DUP2 ADD SWAP1 PUSH2 0x15A SWAP2 SWAP1 PUSH2 0x1B62 JUMP JUMPDEST PUSH2 0x4FF JUMP JUMPDEST STOP JUMPDEST PUSH2 0x17B PUSH1 0x4 DUP1 CALLDATASIZE SUB DUP2 ADD SWAP1 PUSH2 0x176 SWAP2 SWAP1 PUSH2 0x1A10 JUMP JUMPDEST PUSH2 0x7AD JUMP JUMPDEST STOP JUMPDEST PUSH2 0x197 PUSH1 0x4 DUP1 CALLDATASIZE SUB DUP2 ADD SWAP1 PUSH2 0x192 SWAP2 SWAP1 PUSH2 0x1A10 JUMP JUMPDEST PUSH2 0xB28 JUMP JUMPDEST STOP JUMPDEST PUSH2 0x1A1 PUSH2 0xCEE JUMP JUMPDEST PUSH1 0x40 MLOAD PUSH2 0x1AE SWAP2 SWAP1 PUSH2 0x19C4 JUMP JUMPDEST PUSH1 0x40 MLOAD DUP1 SWAP2 SUB SWAP1 RETURN JUMPDEST PUSH2 0x1BF PUSH2 0xCF4 JUMP JUMPDEST PUSH1 0x40 MLOAD PUSH2 0x1CC SWAP2 SWAP1 PUSH2 0x19C4 JUMP JUMPDEST PUSH1 0x40 MLOAD DUP1 SWAP2 SUB SWAP1 RETURN JUMPDEST PUSH2 0x1EF PUSH1 0x4 DUP1 CALLDATASIZE SUB DUP2 ADD SWAP1 PUSH2 0x1EA SWAP2 SWAP1 PUSH2 0x1BB5 JUMP JUMPDEST PUSH2 0xCFA JUMP JUMPDEST STOP JUMPDEST PUSH2 0x20B PUSH1 0x4 DUP1 CALLDATASIZE SUB DUP2 ADD SWAP1 PUSH2 0x206 SWAP2 SWAP1 PUSH2 0x1C33 JUMP JUMPDEST PUSH2 0xE24 JUMP JUMPDEST STOP JUMPDEST PUSH2 0x227 PUSH1 0x4 DUP1 CALLDATASIZE SUB DUP2 ADD SWAP1 PUSH2 0x222 SWAP2 SWAP1 PUSH2 0x1CB2 JUMP JUMPDEST PUSH2 0xFEE JUMP JUMPDEST PUSH1 0x40 MLOAD PUSH2 0x234 SWAP2 SWAP1 PUSH2 0x19C4 JUMP JUMPDEST PUSH1 0x40 MLOAD DUP1 SWAP2 SUB SWAP1 RETURN JUMPDEST PUSH2 0x245 PUSH2 0x1013 JUMP JUMPDEST PUSH1 0x40 MLOAD PUSH2 0x252 SWAP2 SWAP1 PUSH2 0x1D51 JUMP JUMPDEST PUSH1 0x40 MLOAD DUP1 SWAP2 SUB SWAP1 RETURN JUMPDEST PUSH2 0x275 PUSH1 0x4 DUP1 CALLDATASIZE SUB DUP2 ADD SWAP1 PUSH2 0x270 SWAP2 SWAP1 PUSH2 0x1BB5 JUMP JUMPDEST PUSH2 0x1039 JUMP JUMPDEST STOP JUMPDEST PUSH1 0x3 SLOAD DUP2 JUMP JUMPDEST PUSH1 0x4 PUSH1 0x20 MSTORE DUP1 PUSH1 0x0 MSTORE PUSH1 0x40 PUSH1 0x0 KECCAK256 PUSH1 0x0 SWAP2 POP SWAP1 POP DUP1 PUSH1 0x0 ADD SLOAD SWAP1 DUP1 PUSH1 0x1 ADD PUSH1 0x0 SWAP1 SLOAD SWAP1 PUSH2 0x100 EXP SWAP1 DIV PUSH20 0xFFFFFFFFFFFFFFFFFFFFFFFFFFFFFFFFFFFFFFFF AND SWAP1 DUP1 PUSH1 0x2 ADD SLOAD SWAP1 DUP1 PUSH1 0x3 ADD SLOAD SWAP1 DUP1 PUSH1 0x4 ADD PUSH1 0x0 SWAP1 SLOAD SWAP1 PUSH2 0x100 EXP SWAP1 DIV PUSH4 0xFFFFFFFF AND SWAP1 DUP1 PUSH1 0x4 ADD PUSH1 0x4 SWAP1 SLOAD SWAP1 PUSH2 0x100 EXP SWAP1 DIV PUSH4 0xFFFFFFFF AND SWAP1 DUP1 PUSH1 0x4 ADD PUSH1 0x8 SWAP1 SLOAD SWAP1 PUSH2 0x100 EXP SWAP1 DIV PUSH1 0xFF AND SWAP1 DUP1 PUSH1 0x4 ADD PUSH1 0x9 SWAP1 SLOAD SWAP1 PUSH2 0x100 EXP SWAP1 DIV PUSH1 0xFF AND SWAP1 POP DUP9 JUMP JUMPDEST DUP1 PUSH1 0x0 PUSH1 0x4 PUSH1 0x0 DUP4 DUP2 MSTORE PUSH1 0x20 ADD SWAP1 DUP2 MSTORE PUSH1 0x20 ADD PUSH1 0x0 KECCAK256 PUSH1 0x0 ADD SLOAD SUB PUSH2 0x379 JUMPI PUSH1 0x40 MLOAD PUSH32 0x8C379A000000000000000000000000000000000000000000000000000000000 DUP2 MSTORE PUSH1 0x4 ADD PUSH2 0x370 SWAP1 PUSH2 0x1DC9 JUMP JUMPDEST PUSH1 0x40 MLOAD DUP1 SWAP2 SUB SWAP1 REVERT JUMPDEST DUP2 PUSH1 0x4 PUSH1 0x0 DUP3 DUP2 MSTORE PUSH1 0x20 ADD SWAP1 DUP2 MSTORE PUSH1 0x20 ADD PUSH1 0x0 KECCAK256 PUSH1 0x4 ADD PUSH1 0x4 SWAP1 SLOAD SWAP1 PUSH2 0x100 EXP SWAP1 DIV PUSH4 0xFFFFFFFF AND PUSH4 0xFFFFFFFF AND TIMESTAMP GT PUSH2 0x3E8 JUMPI PUSH1 0x40 MLOAD PUSH32 0x8C379A000000000000000000000000000000000000000000000000000000000 DUP2 MSTORE PUSH1 0x4 ADD PUSH2 0x3DF SWAP1 PUSH2 0x1E35 JUMP JUMPDEST PUSH1 0x40 MLOAD DUP1 SWAP2 SUB SWAP1 REVERT JUMPDEST PUSH1 0x0 PUSH1 0x4 PUSH1 0x0 DUP6 DUP2 MSTORE PUSH1 0x20 ADD SWAP1 DUP2 MSTORE PUSH1 0x20 ADD PUSH1 0x0 KECCAK256 SWAP1 POP DUP1 PUSH1 0x2 ADD SLOAD DUP2 PUSH1 0x3 ADD SLOAD LT PUSH2 0x449 JUMPI PUSH1 0x40 MLOAD PUSH32 0x8C379A000000000000000000000000000000000000000000000000000000000 DUP2 MSTORE PUSH1 0x4 ADD PUSH2 0x440 SWAP1 PUSH2 0x1EA1 JUMP JUMPDEST PUSH1 0x40 MLOAD DUP1 SWAP2 SUB SWAP1 REVERT JUMPDEST PUSH1 0x0 PUSH1 0x5 PUSH1 0x0 DUP7 DUP2 MSTORE PUSH1 0x20 ADD SWAP1 DUP2 MSTORE PUSH1 0x20 ADD PUSH1 0x0 KECCAK256 PUSH1 0x0 CALLER PUSH20 0xFFFFFFFFFFFFFFFFFFFFFFFFFFFFFFFFFFFFFFFF AND PUSH20 0xFFFFFFFFFFFFFFFFFFFFFFFFFFFFFFFFFFFFFFFF AND DUP2 MSTORE PUSH1 0x20 ADD SWAP1 DUP2 MSTORE PUSH1 0x20 ADD PUSH1 0x0 KECCAK256 SLOAD SWAP1 POP PUSH2 0x4A9 CALLER DUP7 DUP4 PUSH2 0x1318 JUMP JUMPDEST CALLER PUSH20 0xFFFFFFFFFFFFFFFFFFFFFFFFFFFFFFFFFFFFFFFF AND DUP6 PUSH32 0x21E12A7CAD0DA5928167E1084EA4D5FDF8D9AF66657A2543A9AC76A0CA081477 DUP4 PUSH1 0x40 MLOAD PUSH2 0x4F0 SWAP2 SWAP1 PUSH2 0x19C4 JUMP JUMPDEST PUSH1 0x40 MLOAD DUP1 SWAP2 SUB SWAP1 LOG3 POP POP POP POP POP JUMP JUMPDEST TIMESTAMP DUP3 PUSH4 0xFFFFFFFF AND LT ISZERO PUSH2 0x548 JUMPI PUSH1 0x40 MLOAD PUSH32 0x8C379A000000000000000000000000000000000000000000000000000000000 DUP2 MSTORE PUSH1 0x4 ADD PUSH2 0x53F SWAP1 PUSH2 0x1F0D JUMP JUMPDEST PUSH1 0x40 MLOAD DUP1 SWAP2 SUB SWAP1 REVERT JUMPDEST PUSH1 0x2 SLOAD DUP3 PUSH4 0xFFFFFFFF AND PUSH2 0x55C SWAP2 SWAP1 PUSH2 0x1F5C JUMP JUMPDEST DUP2 PUSH4 0xFFFFFFFF AND LT ISZERO DUP1 ISZERO PUSH2 0x58A JUMPI POP PUSH1 0x1 SLOAD DUP3 PUSH4 0xFFFFFFFF AND PUSH2 0x580 SWAP2 SWAP1 PUSH2 0x1F5C JUMP JUMPDEST DUP2 PUSH4 0xFFFFFFFF AND GT ISZERO JUMPDEST PUSH2 0x5C9 JUMPI PUSH1 0x40 MLOAD PUSH32 0x8C379A000000000000000000000000000000000000000000000000000000000 DUP2 MSTORE PUSH1 0x4 ADD PUSH2 0x5C0 SWAP1 PUSH2 0x1FDC JUMP JUMPDEST PUSH1 0x40 MLOAD DUP1 SWAP2 SUB SWAP1 REVERT JUMPDEST PUSH1 0x1 PUSH1 0x3 PUSH1 0x0 DUP3 DUP3 SLOAD PUSH2 0x5DC SWAP2 SWAP1 PUSH2 0x1F5C JUMP JUMPDEST SWAP3 POP POP DUP2 SWAP1 SSTORE POP PUSH1 0x40 MLOAD DUP1 PUSH2 0x100 ADD PUSH1 0x40 MSTORE DUP1 PUSH1 0x3 SLOAD DUP2 MSTORE PUSH1 0x20 ADD CALLER PUSH20 0xFFFFFFFFFFFFFFFFFFFFFFFFFFFFFFFFFFFFFFFF AND DUP2 MSTORE PUSH1 0x20 ADD DUP5 DUP2 MSTORE PUSH1 0x20 ADD PUSH1 0x0 DUP2 MSTORE PUSH1 0x20 ADD DUP4 PUSH4 0xFFFFFFFF AND DUP2 MSTORE PUSH1 0x20 ADD DUP3 PUSH4 0xFFFFFFFF AND DUP2 MSTORE PUSH1 0x20 ADD PUSH1 0x0 ISZERO ISZERO DUP2 MSTORE PUSH1 0x20 ADD PUSH1 0x0 ISZERO ISZERO DUP2 MSTORE POP PUSH1 0x4 PUSH1 0x0 PUSH1 0x3 SLOAD DUP2 MSTORE PUSH1 0x20 ADD SWAP1 DUP2 MSTORE PUSH1 0x20 ADD PUSH1 0x0 KECCAK256 PUSH1 0x0 DUP3 ADD MLOAD DUP2 PUSH1 0x0 ADD SSTORE PUSH1 0x20 DUP3 ADD MLOAD DUP2 PUSH1 0x1 ADD PUSH1 0x0 PUSH2 0x100 EXP DUP2 SLOAD DUP2 PUSH20 0xFFFFFFFFFFFFFFFFFFFFFFFFFFFFFFFFFFFFFFFF MUL NOT AND SWAP1 DUP4 PUSH20 0xFFFFFFFFFFFFFFFFFFFFFFFFFFFFFFFFFFFFFFFF AND MUL OR SWAP1 SSTORE POP PUSH1 0x40 DUP3 ADD MLOAD DUP2 PUSH1 0x2 ADD SSTORE PUSH1 0x60 DUP3 ADD MLOAD DUP2 PUSH1 0x3 ADD SSTORE PUSH1 0x80 DUP3 ADD MLOAD DUP2 PUSH1 0x4 ADD PUSH1 0x0 PUSH2 0x100 EXP DUP2 SLOAD DUP2 PUSH4 0xFFFFFFFF MUL NOT AND SWAP1 DUP4 PUSH4 0xFFFFFFFF AND MUL OR SWAP1 SSTORE POP PUSH1 0xA0 DUP3 ADD MLOAD DUP2 PUSH1 0x4 ADD PUSH1 0x4 PUSH2 0x100 EXP DUP2 SLOAD DUP2 PUSH4 0xFFFFFFFF MUL NOT AND SWAP1 DUP4 PUSH4 0xFFFFFFFF AND MUL OR SWAP1 SSTORE POP PUSH1 0xC0 DUP3 ADD MLOAD DUP2 PUSH1 0x4 ADD PUSH1 0x8 PUSH2 0x100 EXP DUP2 SLOAD DUP2 PUSH1 0xFF MUL NOT AND SWAP1 DUP4 ISZERO ISZERO MUL OR SWAP1 SSTORE POP PUSH1 0xE0 DUP3 ADD MLOAD DUP2 PUSH1 0x4 ADD PUSH1 0x9 PUSH2 0x100 EXP DUP2 SLOAD DUP2 PUSH1 0xFF MUL NOT AND SWAP1 DUP4 ISZERO ISZERO MUL OR SWAP1 SSTORE POP SWAP1 POP POP CALLER PUSH20 0xFFFFFFFFFFFFFFFFFFFFFFFFFFFFFFFFFFFFFFFF AND PUSH1 0x3 SLOAD PUSH32 0x601CD0D650B473037E838A2696D41E654433D065B3F56B28D1D3302E44A304F DUP6 DUP6 DUP6 PUSH1 0x40 MLOAD PUSH2 0x7A0 SWAP4 SWAP3 SWAP2 SWAP1 PUSH2 0x1FFC JUMP JUMPDEST PUSH1 0x40 MLOAD DUP1 SWAP2 SUB SWAP1 LOG3 POP POP POP JUMP JUMPDEST DUP1 PUSH1 0x0 PUSH1 0x4 PUSH1 0x0 DUP4 DUP2 MSTORE PUSH1 0x20 ADD SWAP1 DUP2 MSTORE PUSH1 0x20 ADD PUSH1 0x0 KECCAK256 PUSH1 0x0 ADD SLOAD SUB PUSH2 0x807 JUMPI PUSH1 0x40 MLOAD PUSH32 0x8C379A000000000000000000000000000000000000000000000000000000000 DUP2 MSTORE PUSH1 0x4 ADD PUSH2 0x7FE SWAP1 PUSH2 0x1DC9 JUMP JUMPDEST PUSH1 0x40 MLOAD DUP1 SWAP2 SUB SWAP1 REVERT JUMPDEST DUP2 CALLER PUSH20 0xFFFFFFFFFFFFFFFFFFFFFFFFFFFFFFFFFFFFFFFF AND PUSH1 0x4 PUSH1 0x0 DUP4 DUP2 MSTORE PUSH1 0x20 ADD SWAP1 DUP2 MSTORE PUSH1 0x20 ADD PUSH1 0x0 KECCAK256 PUSH1 0x1 ADD PUSH1 0x0 SWAP1 SLOAD SWAP1 PUSH2 0x100 EXP SWAP1 DIV PUSH20 0xFFFFFFFFFFFFFFFFFFFFFFFFFFFFFFFFFFFFFFFF AND PUSH20 0xFFFFFFFFFFFFFFFFFFFFFFFFFFFFFFFFFFFFFFFF AND EQ PUSH2 0x8AC JUMPI PUSH1 0x40 MLOAD PUSH32 0x8C379A000000000000000000000000000000000000000000000000000000000 DUP2 MSTORE PUSH1 0x4 ADD PUSH2 0x8A3 SWAP1 PUSH2 0x207F JUMP JUMPDEST PUSH1 0x40 MLOAD DUP1 SWAP2 SUB SWAP1 REVERT JUMPDEST DUP3 PUSH1 0x4 PUSH1 0x0 DUP3 DUP2 MSTORE PUSH1 0x20 ADD SWAP1 DUP2 MSTORE PUSH1 0x20 ADD PUSH1 0x0 KECCAK256 PUSH1 0x4 ADD PUSH1 0x9 SWAP1 SLOAD SWAP1 PUSH2 0x100 EXP SWAP1 DIV PUSH1 0xFF AND ISZERO PUSH2 0x911 JUMPI PUSH1 0x40 MLOAD PUSH32 0x8C379A000000000000000000000000000000000000000000000000000000000 DUP2 MSTORE PUSH1 0x4 ADD PUSH2 0x908 SWAP1 PUSH2 0x20EB JUMP JUMPDEST PUSH1 0x40 MLOAD DUP1 SWAP2 SUB SWAP1 REVERT JUMPDEST DUP4 PUSH1 0x4 PUSH1 0x0 DUP3 DUP2 MSTORE PUSH1 0x20 ADD SWAP1 DUP2 MSTORE PUSH1 0x20 ADD PUSH1 0x0 KECCAK256 PUSH1 0x4 ADD PUSH1 0x4 SWAP1 SLOAD SWAP1 PUSH2 0x100 EXP SWAP1 DIV PUSH4 0xFFFFFFFF AND PUSH4 0xFFFFFFFF AND TIMESTAMP GT PUSH2 0x980 JUMPI PUSH1 0x40 MLOAD PUSH32 0x8C379A000000000000000000000000000000000000000000000000000000000 DUP2 MSTORE PUSH1 0x4 ADD PUSH2 0x977 SWAP1 PUSH2 0x1E35 JUMP JUMPDEST PUSH1 0x40 MLOAD DUP1 SWAP2 SUB SWAP1 REVERT JUMPDEST PUSH1 0x0 PUSH1 0x4 PUSH1 0x0 DUP8 DUP2 MSTORE PUSH1 0x20 ADD SWAP1 DUP2 MSTORE PUSH1 0x20 ADD PUSH1 0x0 KECCAK256 SWAP1 POP DUP1 PUSH1 0x4 ADD PUSH1 0x8 SWAP1 SLOAD SWAP1 PUSH2 0x100 EXP SWAP1 DIV PUSH1 0xFF AND ISZERO PUSH2 0x9E9 JUMPI PUSH1 0x40 MLOAD PUSH32 0x8C379A000000000000000000000000000000000000000000000000000000000 DUP2 MSTORE PUSH1 0x4 ADD PUSH2 0x9E0 SWAP1 PUSH2 0x2157 JUMP JUMPDEST PUSH1 0x40 MLOAD DUP1 SWAP2 SUB SWAP1 REVERT JUMPDEST DUP1 PUSH1 0x2 ADD SLOAD DUP2 PUSH1 0x3 ADD SLOAD LT ISZERO PUSH2 0xA34 JUMPI PUSH1 0x40 MLOAD PUSH32 0x8C379A000000000000000000000000000000000000000000000000000000000 DUP2 MSTORE PUSH1 0x4 ADD PUSH2 0xA2B SWAP1 PUSH2 0x21C3 JUMP JUMPDEST PUSH1 0x40 MLOAD DUP1 SWAP2 SUB SWAP1 REVERT JUMPDEST PUSH1 0x1 DUP2 PUSH1 0x4 ADD PUSH1 0x8 PUSH2 0x100 EXP DUP2 SLOAD DUP2 PUSH1 0xFF MUL NOT AND SWAP1 DUP4 ISZERO ISZERO MUL OR SWAP1 SSTORE POP PUSH2 0xAA2 CALLER DUP3 PUSH1 0x3 ADD SLOAD PUSH1 0x0 PUSH1 0x2 SWAP1 SLOAD SWAP1 PUSH2 0x100 EXP SWAP1 DIV PUSH20 0xFFFFFFFFFFFFFFFFFFFFFFFFFFFFFFFFFFFFFFFF AND PUSH20 0xFFFFFFFFFFFFFFFFFFFFFFFFFFFFFFFFFFFFFFFF AND PUSH2 0x14EA SWAP1 SWAP3 SWAP2 SWAP1 PUSH4 0xFFFFFFFF AND JUMP JUMPDEST PUSH2 0xAF3 CALLER DUP3 PUSH1 0x3 ADD SLOAD PUSH1 0x0 PUSH1 0x2 SWAP1 SLOAD SWAP1 PUSH2 0x100 EXP SWAP1 DIV PUSH20 0xFFFFFFFFFFFFFFFFFFFFFFFFFFFFFFFFFFFFFFFF AND PUSH20 0xFFFFFFFFFFFFFFFFFFFFFFFFFFFFFFFFFFFFFFFF AND PUSH2 0x15FC SWAP1 SWAP3 SWAP2 SWAP1 PUSH4 0xFFFFFFFF AND JUMP JUMPDEST DUP6 PUSH32 0x7BB2B3C10797BACCB6F8C4791F1EDD6CA2F0D028EE0EDA64B01A9A57E3A653F7 PUSH1 0x40 MLOAD PUSH1 0x40 MLOAD DUP1 SWAP2 SUB SWAP1 LOG2 POP POP POP POP POP POP JUMP JUMPDEST DUP1 PUSH1 0x0 PUSH1 0x4 PUSH1 0x0 DUP4 DUP2 MSTORE PUSH1 0x20 ADD SWAP1 DUP2 MSTORE PUSH1 0x20 ADD PUSH1 0x0 KECCAK256 PUSH1 0x0 ADD SLOAD SUB PUSH2 0xB82 JUMPI PUSH1 0x40 MLOAD PUSH32 0x8C379A000000000000000000000000000000000000000000000000000000000 DUP2 MSTORE PUSH1 0x4 ADD PUSH2 0xB79 SWAP1 PUSH2 0x1DC9 JUMP JUMPDEST PUSH1 0x40 MLOAD DUP1 SWAP2 SUB SWAP1 REVERT JUMPDEST DUP2 CALLER PUSH20 0xFFFFFFFFFFFFFFFFFFFFFFFFFFFFFFFFFFFFFFFF AND PUSH1 0x4 PUSH1 0x0 DUP4 DUP2 MSTORE PUSH1 0x20 ADD SWAP1 DUP2 MSTORE PUSH1 0x20 ADD PUSH1 0x0 KECCAK256 PUSH1 0x1 ADD PUSH1 0x0 SWAP1 SLOAD SWAP1 PUSH2 0x100 EXP SWAP1 DIV PUSH20 0xFFFFFFFFFFFFFFFFFFFFFFFFFFFFFFFFFFFFFFFF AND PUSH20 0xFFFFFFFFFFFFFFFFFFFFFFFFFFFFFFFFFFFFFFFF AND EQ PUSH2 0xC27 JUMPI PUSH1 0x40 MLOAD PUSH32 0x8C379A000000000000000000000000000000000000000000000000000000000 DUP2 MSTORE PUSH1 0x4 ADD PUSH2 0xC1E SWAP1 PUSH2 0x207F JUMP JUMPDEST PUSH1 0x40 MLOAD DUP1 SWAP2 SUB SWAP1 REVERT JUMPDEST DUP3 PUSH1 0x4 PUSH1 0x0 DUP3 DUP2 MSTORE PUSH1 0x20 ADD SWAP1 DUP2 MSTORE PUSH1 0x20 ADD PUSH1 0x0 KECCAK256 PUSH1 0x4 ADD PUSH1 0x9 SWAP1 SLOAD SWAP1 PUSH2 0x100 EXP SWAP1 DIV PUSH1 0xFF AND ISZERO PUSH2 0xC8C JUMPI PUSH1 0x40 MLOAD PUSH32 0x8C379A000000000000000000000000000000000000000000000000000000000 DUP2 MSTORE PUSH1 0x4 ADD PUSH2 0xC83 SWAP1 PUSH2 0x20EB JUMP JUMPDEST PUSH1 0x40 MLOAD DUP1 SWAP2 SUB SWAP1 REVERT JUMPDEST PUSH1 0x1 PUSH1 0x4 PUSH1 0x0 DUP7 DUP2 MSTORE PUSH1 0x20 ADD SWAP1 DUP2 MSTORE PUSH1 0x20 ADD PUSH1 0x0 KECCAK256 PUSH1 0x4 ADD PUSH1 0x9 PUSH2 0x100 EXP DUP2 SLOAD DUP2 PUSH1 0xFF MUL NOT AND SWAP1 DUP4 ISZERO ISZERO MUL OR SWAP1 SSTORE POP DUP4 PUSH32 0x8BF30E7FF26833413BE5F69E1D373744864D600B664204B4A2F9844A8EEDB9ED PUSH1 0x40 MLOAD PUSH1 0x40 MLOAD DUP1 SWAP2 SUB SWAP1 LOG2 POP POP POP POP JUMP JUMPDEST PUSH1 0x2 SLOAD DUP2 JUMP JUMPDEST PUSH1 0x1 SLOAD DUP2 JUMP JUMPDEST DUP2 PUSH1 0x0 PUSH1 0x4 PUSH1 0x0 DUP4 DUP2 MSTORE PUSH1 0x20 ADD SWAP1 DUP2 MSTORE PUSH1 0x20 ADD PUSH1 0x0 KECCAK256 PUSH1 0x0 ADD SLOAD SUB PUSH2 0xD54 JUMPI PUSH1 0x40 MLOAD PUSH32 0x8C379A000000000000000000000000000000000000000000000000000000000 DUP2 MSTORE PUSH1 0x4 ADD PUSH2 0xD4B SWAP1 PUSH2 0x1DC9 JUMP JUMPDEST PUSH1 0x40 MLOAD DUP1 SWAP2 SUB SWAP1 REVERT JUMPDEST DUP3 PUSH1 0x4 PUSH1 0x0 DUP3 DUP2 MSTORE PUSH1 0x20 ADD SWAP1 DUP2 MSTORE PUSH1 0x20 ADD PUSH1 0x0 KECCAK256 PUSH1 0x4 ADD PUSH1 0x4 SWAP1 SLOAD SWAP1 PUSH2 0x100 EXP SWAP1 DIV PUSH4 0xFFFFFFFF AND PUSH4 0xFFFFFFFF AND TIMESTAMP GT ISZERO PUSH2 0xDC4 JUMPI PUSH1 0x40 MLOAD PUSH32 0x8C379A000000000000000000000000000000000000000000000000000000000 DUP2 MSTORE PUSH1 0x4 ADD PUSH2 0xDBB SWAP1 PUSH2 0x222F JUMP JUMPDEST PUSH1 0x40 MLOAD DUP1 SWAP2 SUB SWAP1 REVERT JUMPDEST PUSH2 0xDCF CALLER DUP6 DUP6 PUSH2 0x1318 JUMP JUMPDEST CALLER PUSH20 0xFFFFFFFFFFFFFFFFFFFFFFFFFFFFFFFFFFFFFFFF AND DUP5 PUSH32 0xFCD29B1632C6748A9A4BB9B4CD5C6486C3C84A8550DCE2368F83FEF3969D9685 DUP6 PUSH1 0x40 MLOAD PUSH2 0xE16 SWAP2 SWAP1 PUSH2 0x19C4 JUMP JUMPDEST PUSH1 0x40 MLOAD DUP1 SWAP2 SUB SWAP1 LOG3 POP POP POP POP JUMP JUMPDEST PUSH1 0x0 DUP1 PUSH1 0x1 SWAP1 SLOAD SWAP1 PUSH2 0x100 EXP SWAP1 DIV PUSH1 0xFF AND ISZERO SWAP1 POP DUP1 DUP1 ISZERO PUSH2 0xE55 JUMPI POP PUSH1 0x1 PUSH1 0x0 DUP1 SLOAD SWAP1 PUSH2 0x100 EXP SWAP1 DIV PUSH1 0xFF AND PUSH1 0xFF AND LT JUMPDEST DUP1 PUSH2 0xE82 JUMPI POP PUSH2 0xE64 ADDRESS PUSH2 0x1682 JUMP JUMPDEST ISZERO DUP1 ISZERO PUSH2 0xE81 JUMPI POP PUSH1 0x1 PUSH1 0x0 DUP1 SLOAD SWAP1 PUSH2 0x100 EXP SWAP1 DIV PUSH1 0xFF AND PUSH1 0xFF AND EQ JUMPDEST JUMPDEST PUSH2 0xEC1 JUMPI PUSH1 0x40 MLOAD PUSH32 0x8C379A000000000000000000000000000000000000000000000000000000000 DUP2 MSTORE PUSH1 0x4 ADD PUSH2 0xEB8 SWAP1 PUSH2 0x22C1 JUMP JUMPDEST PUSH1 0x40 MLOAD DUP1 SWAP2 SUB SWAP1 REVERT JUMPDEST PUSH1 0x1 PUSH1 0x0 DUP1 PUSH2 0x100 EXP DUP2 SLOAD DUP2 PUSH1 0xFF MUL NOT AND SWAP1 DUP4 PUSH1 0xFF AND MUL OR SWAP1 SSTORE POP DUP1 ISZERO PUSH2 0xEFE JUMPI PUSH1 0x1 PUSH1 0x0 PUSH1 0x1 PUSH2 0x100 EXP DUP2 SLOAD DUP2 PUSH1 0xFF MUL NOT AND SWAP1 DUP4 ISZERO ISZERO MUL OR SWAP1 SSTORE POP JUMPDEST DUP2 DUP4 LT PUSH2 0xF40 JUMPI PUSH1 0x40 MLOAD PUSH32 0x8C379A000000000000000000000000000000000000000000000000000000000 DUP2 MSTORE PUSH1 0x4 ADD PUSH2 0xF37 SWAP1 PUSH2 0x232D JUMP JUMPDEST PUSH1 0x40 MLOAD DUP1 SWAP2 SUB SWAP1 REVERT JUMPDEST DUP4 PUSH1 0x0 PUSH1 0x2 PUSH2 0x100 EXP DUP2 SLOAD DUP2 PUSH20 0xFFFFFFFFFFFFFFFFFFFFFFFFFFFFFFFFFFFFFFFF MUL NOT AND SWAP1 DUP4 PUSH20 0xFFFFFFFFFFFFFFFFFFFFFFFFFFFFFFFFFFFFFFFF AND MUL OR SWAP1 SSTORE POP DUP3 PUSH1 0x2 DUP2 SWAP1 SSTORE POP DUP2 PUSH1 0x1 DUP2 SWAP1 SSTORE POP DUP1 ISZERO PUSH2 0xFE8 JUMPI PUSH1 0x0 DUP1 PUSH1 0x1 PUSH2 0x100 EXP DUP2 SLOAD DUP2 PUSH1 0xFF MUL NOT AND SWAP1 DUP4 ISZERO ISZERO MUL OR SWAP1 SSTORE POP PUSH32 0x7F26B83FF96E1F2B6A682F133852F6798A09C465DA95921460CEFB3847402498 PUSH1 0x1 PUSH1 0x40 MLOAD PUSH2 0xFDF SWAP2 SWAP1 PUSH2 0x2395 JUMP JUMPDEST PUSH1 0x40 MLOAD DUP1 SWAP2 SUB SWAP1 LOG1 JUMPDEST POP POP POP POP JUMP JUMPDEST PUSH1 0x5 PUSH1 0x20 MSTORE DUP2 PUSH1 0x0 MSTORE PUSH1 0x40 PUSH1 0x0 KECCAK256 PUSH1 0x20 MSTORE DUP1 PUSH1 0x0 MSTORE PUSH1 0x40 PUSH1 0x0 KECCAK256 PUSH1 0x0 SWAP2 POP SWAP2 POP POP SLOAD DUP2 JUMP JUMPDEST PUSH1 0x0 PUSH1 0x2 SWAP1 SLOAD SWAP1 PUSH2 0x100 EXP SWAP1 DIV PUSH20 0xFFFFFFFFFFFFFFFFFFFFFFFFFFFFFFFFFFFFFFFF AND DUP2 JUMP JUMPDEST DUP2 PUSH1 0x0 PUSH1 0x4 PUSH1 0x0 DUP4 DUP2 MSTORE PUSH1 0x20 ADD SWAP1 DUP2 MSTORE PUSH1 0x20 ADD PUSH1 0x0 KECCAK256 PUSH1 0x0 ADD SLOAD SUB PUSH2 0x1093 JUMPI PUSH1 0x40 MLOAD PUSH32 0x8C379A000000000000000000000000000000000000000000000000000000000 DUP2 MSTORE PUSH1 0x4 ADD PUSH2 0x108A SWAP1 PUSH2 0x1DC9 JUMP JUMPDEST PUSH1 0x40 MLOAD DUP1 SWAP2 SUB SWAP1 REVERT JUMPDEST DUP3 PUSH1 0x4 PUSH1 0x0 DUP3 DUP2 MSTORE PUSH1 0x20 ADD SWAP1 DUP2 MSTORE PUSH1 0x20 ADD PUSH1 0x0 KECCAK256 PUSH1 0x4 ADD PUSH1 0x9 SWAP1 SLOAD SWAP1 PUSH2 0x100 EXP SWAP1 DIV PUSH1 0xFF AND ISZERO PUSH2 0x10F8 JUMPI PUSH1 0x40 MLOAD PUSH32 0x8C379A000000000000000000000000000000000000000000000000000000000 DUP2 MSTORE PUSH1 0x4 ADD PUSH2 0x10EF SWAP1 PUSH2 0x20EB JUMP JUMPDEST PUSH1 0x40 MLOAD DUP1 SWAP2 SUB SWAP1 REVERT JUMPDEST DUP4 PUSH1 0x4 PUSH1 0x0 DUP3 DUP2 MSTORE PUSH1 0x20 ADD SWAP1 DUP2 MSTORE PUSH1 0x20 ADD PUSH1 0x0 KECCAK256 PUSH1 0x4 ADD PUSH1 0x0 SWAP1 SLOAD SWAP1 PUSH2 0x100 EXP SWAP1 DIV PUSH4 0xFFFFFFFF AND PUSH4 0xFFFFFFFF AND TIMESTAMP LT ISZERO PUSH2 0x1168 JUMPI PUSH1 0x40 MLOAD PUSH32 0x8C379A000000000000000000000000000000000000000000000000000000000 DUP2 MSTORE PUSH1 0x4 ADD PUSH2 0x115F SWAP1 PUSH2 0x23FC JUMP JUMPDEST PUSH1 0x40 MLOAD DUP1 SWAP2 SUB SWAP1 REVERT JUMPDEST DUP5 PUSH1 0x4 PUSH1 0x0 DUP3 DUP2 MSTORE PUSH1 0x20 ADD SWAP1 DUP2 MSTORE PUSH1 0x20 ADD PUSH1 0x0 KECCAK256 PUSH1 0x4 ADD PUSH1 0x4 SWAP1 SLOAD SWAP1 PUSH2 0x100 EXP SWAP1 DIV PUSH4 0xFFFFFFFF AND PUSH4 0xFFFFFFFF AND TIMESTAMP GT ISZERO PUSH2 0x11D8 JUMPI PUSH1 0x40 MLOAD PUSH32 0x8C379A000000000000000000000000000000000000000000000000000000000 DUP2 MSTORE PUSH1 0x4 ADD PUSH2 0x11CF SWAP1 PUSH2 0x222F JUMP JUMPDEST PUSH1 0x40 MLOAD DUP1 SWAP2 SUB SWAP1 REVERT JUMPDEST PUSH1 0x0 PUSH1 0x4 PUSH1 0x0 DUP9 DUP2 MSTORE PUSH1 0x20 ADD SWAP1 DUP2 MSTORE PUSH1 0x20 ADD PUSH1 0x0 KECCAK256 SWAP1 POP DUP6 DUP2 PUSH1 0x3 ADD PUSH1 0x0 DUP3 DUP3 SLOAD PUSH2 0x1203 SWAP2 SWAP1 PUSH2 0x1F5C JUMP JUMPDEST SWAP3 POP POP DUP2 SWAP1 SSTORE POP DUP6 PUSH1 0x5 PUSH1 0x0 DUP10 DUP2 MSTORE PUSH1 0x20 ADD SWAP1 DUP2 MSTORE PUSH1 0x20 ADD PUSH1 0x0 KECCAK256 PUSH1 0x0 CALLER PUSH20 0xFFFFFFFFFFFFFFFFFFFFFFFFFFFFFFFFFFFFFFFF AND PUSH20 0xFFFFFFFFFFFFFFFFFFFFFFFFFFFFFFFFFFFFFFFF AND DUP2 MSTORE PUSH1 0x20 ADD SWAP1 DUP2 MSTORE PUSH1 0x20 ADD PUSH1 0x0 KECCAK256 PUSH1 0x0 DUP3 DUP3 SLOAD PUSH2 0x126A SWAP2 SWAP1 PUSH2 0x1F5C JUMP JUMPDEST SWAP3 POP POP DUP2 SWAP1 SSTORE POP PUSH2 0x12C0 CALLER ADDRESS DUP9 PUSH1 0x0 PUSH1 0x2 SWAP1 SLOAD SWAP1 PUSH2 0x100 EXP SWAP1 DIV PUSH20 0xFFFFFFFFFFFFFFFFFFFFFFFFFFFFFFFFFFFFFFFF AND PUSH20 0xFFFFFFFFFFFFFFFFFFFFFFFFFFFFFFFFFFFFFFFF AND PUSH2 0x16A5 SWAP1 SWAP4 SWAP3 SWAP2 SWAP1 PUSH4 0xFFFFFFFF AND JUMP JUMPDEST CALLER PUSH20 0xFFFFFFFFFFFFFFFFFFFFFFFFFFFFFFFFFFFFFFFF AND DUP8 PUSH32 0x2757AC6A40883F4491CC56930AE964DF9034E343E660D5179EB01E198336756B DUP9 PUSH1 0x40 MLOAD PUSH2 0x1307 SWAP2 SWAP1 PUSH2 0x19C4 JUMP JUMPDEST PUSH1 0x40 MLOAD DUP1 SWAP2 SUB SWAP1 LOG3 POP POP POP POP POP POP POP JUMP JUMPDEST PUSH1 0x0 DUP2 GT DUP1 ISZERO PUSH2 0x1378 JUMPI POP PUSH1 0x5 PUSH1 0x0 DUP4 DUP2 MSTORE PUSH1 0x20 ADD SWAP1 DUP2 MSTORE PUSH1 0x20 ADD PUSH1 0x0 KECCAK256 PUSH1 0x0 DUP5 PUSH20 0xFFFFFFFFFFFFFFFFFFFFFFFFFFFFFFFFFFFFFFFF AND PUSH20 0xFFFFFFFFFFFFFFFFFFFFFFFFFFFFFFFFFFFFFFFF AND DUP2 MSTORE PUSH1 0x20 ADD SWAP1 DUP2 MSTORE PUSH1 0x20 ADD PUSH1 0x0 KECCAK256 SLOAD DUP2 GT ISZERO JUMPDEST PUSH2 0x13B7 JUMPI PUSH1 0x40 MLOAD PUSH32 0x8C379A000000000000000000000000000000000000000000000000000000000 DUP2 MSTORE PUSH1 0x4 ADD PUSH2 0x13AE SWAP1 PUSH2 0x2468 JUMP JUMPDEST PUSH1 0x40 MLOAD DUP1 SWAP2 SUB SWAP1 REVERT JUMPDEST DUP1 PUSH1 0x5 PUSH1 0x0 DUP5 DUP2 MSTORE PUSH1 0x20 ADD SWAP1 DUP2 MSTORE PUSH1 0x20 ADD PUSH1 0x0 KECCAK256 PUSH1 0x0 DUP6 PUSH20 0xFFFFFFFFFFFFFFFFFFFFFFFFFFFFFFFFFFFFFFFF AND PUSH20 0xFFFFFFFFFFFFFFFFFFFFFFFFFFFFFFFFFFFFFFFF AND DUP2 MSTORE PUSH1 0x20 ADD SWAP1 DUP2 MSTORE PUSH1 0x20 ADD PUSH1 0x0 KECCAK256 PUSH1 0x0 DUP3 DUP3 SLOAD PUSH2 0x1417 SWAP2 SWAP1 PUSH2 0x2488 JUMP JUMPDEST SWAP3 POP POP DUP2 SWAP1 SSTORE POP DUP1 PUSH1 0x4 PUSH1 0x0 DUP5 DUP2 MSTORE PUSH1 0x20 ADD SWAP1 DUP2 MSTORE PUSH1 0x20 ADD PUSH1 0x0 KECCAK256 PUSH1 0x3 ADD PUSH1 0x0 DUP3 DUP3 SLOAD PUSH2 0x1444 SWAP2 SWAP1 PUSH2 0x2488 JUMP JUMPDEST SWAP3 POP POP DUP2 SWAP1 SSTORE POP PUSH2 0x1498 DUP4 DUP3 PUSH1 0x0 PUSH1 0x2 SWAP1 SLOAD SWAP1 PUSH2 0x100 EXP SWAP1 DIV PUSH20 0xFFFFFFFFFFFFFFFFFFFFFFFFFFFFFFFFFFFFFFFF AND PUSH20 0xFFFFFFFFFFFFFFFFFFFFFFFFFFFFFFFFFFFFFFFF AND PUSH2 0x14EA SWAP1 SWAP3 SWAP2 SWAP1 PUSH4 0xFFFFFFFF AND JUMP JUMPDEST PUSH2 0x14E5 DUP4 DUP3 PUSH1 0x0 PUSH1 0x2 SWAP1 SLOAD SWAP1 PUSH2 0x100 EXP SWAP1 DIV PUSH20 0xFFFFFFFFFFFFFFFFFFFFFFFFFFFFFFFFFFFFFFFF AND PUSH20 0xFFFFFFFFFFFFFFFFFFFFFFFFFFFFFFFFFFFFFFFF AND PUSH2 0x15FC SWAP1 SWAP3 SWAP2 SWAP1 PUSH4 0xFFFFFFFF AND JUMP JUMPDEST POP POP POP JUMP JUMPDEST PUSH1 0x0 DUP2 DUP5 PUSH20 0xFFFFFFFFFFFFFFFFFFFFFFFFFFFFFFFFFFFFFFFF AND PUSH4 0xDD62ED3E ADDRESS DUP7 PUSH1 0x40 MLOAD DUP4 PUSH4 0xFFFFFFFF AND PUSH1 0xE0 SHL DUP2 MSTORE PUSH1 0x4 ADD PUSH2 0x1528 SWAP3 SWAP2 SWAP1 PUSH2 0x24BC JUMP JUMPDEST PUSH1 0x20 PUSH1 0x40 MLOAD DUP1 DUP4 SUB DUP2 DUP7 GAS STATICCALL ISZERO DUP1 ISZERO PUSH2 0x1545 JUMPI RETURNDATASIZE PUSH1 0x0 DUP1 RETURNDATACOPY RETURNDATASIZE PUSH1 0x0 REVERT JUMPDEST POP POP POP POP PUSH1 0x40 MLOAD RETURNDATASIZE PUSH1 0x1F NOT PUSH1 0x1F DUP3 ADD AND DUP3 ADD DUP1 PUSH1 0x40 MSTORE POP DUP2 ADD SWAP1 PUSH2 0x1569 SWAP2 SWAP1 PUSH2 0x24FA JUMP JUMPDEST PUSH2 0x1573 SWAP2 SWAP1 PUSH2 0x1F5C JUMP JUMPDEST SWAP1 POP PUSH2 0x15F6 DUP5 PUSH4 0x95EA7B3 PUSH1 0xE0 SHL DUP6 DUP5 PUSH1 0x40 MLOAD PUSH1 0x24 ADD PUSH2 0x1594 SWAP3 SWAP2 SWAP1 PUSH2 0x2527 JUMP JUMPDEST PUSH1 0x40 MLOAD PUSH1 0x20 DUP2 DUP4 SUB SUB DUP2 MSTORE SWAP1 PUSH1 0x40 MSTORE SWAP1 PUSH28 0xFFFFFFFFFFFFFFFFFFFFFFFFFFFFFFFFFFFFFFFFFFFFFFFFFFFFFFFF NOT AND PUSH1 0x20 DUP3 ADD DUP1 MLOAD PUSH28 0xFFFFFFFFFFFFFFFFFFFFFFFFFFFFFFFFFFFFFFFFFFFFFFFFFFFFFFFF DUP4 DUP2 DUP4 AND OR DUP4 MSTORE POP POP POP POP PUSH2 0x172E JUMP JUMPDEST POP POP POP POP JUMP JUMPDEST PUSH2 0x167D DUP4 PUSH4 0xA9059CBB PUSH1 0xE0 SHL DUP5 DUP5 PUSH1 0x40 MLOAD PUSH1 0x24 ADD PUSH2 0x161B SWAP3 SWAP2 SWAP1 PUSH2 0x2527 JUMP JUMPDEST PUSH1 0x40 MLOAD PUSH1 0x20 DUP2 DUP4 SUB SUB DUP2 MSTORE SWAP1 PUSH1 0x40 MSTORE SWAP1 PUSH28 0xFFFFFFFFFFFFFFFFFFFFFFFFFFFFFFFFFFFFFFFFFFFFFFFFFFFFFFFF NOT AND PUSH1 0x20 DUP3 ADD DUP1 MLOAD PUSH28 0xFFFFFFFFFFFFFFFFFFFFFFFFFFFFFFFFFFFFFFFFFFFFFFFFFFFFFFFF DUP4 DUP2 DUP4 AND OR DUP4 MSTORE POP POP POP POP PUSH2 0x172E JUMP JUMPDEST POP POP POP JUMP JUMPDEST PUSH1 0x0 DUP1 DUP3 PUSH20 0xFFFFFFFFFFFFFFFFFFFFFFFFFFFFFFFFFFFFFFFF AND EXTCODESIZE GT SWAP1 POP SWAP2 SWAP1 POP JUMP JUMPDEST PUSH2 0x1728 DUP5 PUSH4 0x23B872DD PUSH1 0xE0 SHL DUP6 DUP6 DUP6 PUSH1 0x40 MLOAD PUSH1 0x24 ADD PUSH2 0x16C6 SWAP4 SWAP3 SWAP2 SWAP1 PUSH2 0x2550 JUMP JUMPDEST PUSH1 0x40 MLOAD PUSH1 0x20 DUP2 DUP4 SUB SUB DUP2 MSTORE SWAP1 PUSH1 0x40 MSTORE SWAP1 PUSH28 0xFFFFFFFFFFFFFFFFFFFFFFFFFFFFFFFFFFFFFFFFFFFFFFFFFFFFFFFF NOT AND PUSH1 0x20 DUP3 ADD DUP1 MLOAD PUSH28 0xFFFFFFFFFFFFFFFFFFFFFFFFFFFFFFFFFFFFFFFFFFFFFFFFFFFFFFFF DUP4 DUP2 DUP4 AND OR DUP4 MSTORE POP POP POP POP PUSH2 0x172E JUMP JUMPDEST POP POP POP POP JUMP JUMPDEST PUSH1 0x0 PUSH2 0x1790 DUP3 PUSH1 0x40 MLOAD DUP1 PUSH1 0x40 ADD PUSH1 0x40 MSTORE DUP1 PUSH1 0x20 DUP2 MSTORE PUSH1 0x20 ADD PUSH32 0x5361666545524332303A206C6F772D6C6576656C2063616C6C206661696C6564 DUP2 MSTORE POP DUP6 PUSH20 0xFFFFFFFFFFFFFFFFFFFFFFFFFFFFFFFFFFFFFFFF AND PUSH2 0x17F5 SWAP1 SWAP3 SWAP2 SWAP1 PUSH4 0xFFFFFFFF AND JUMP JUMPDEST SWAP1 POP PUSH1 0x0 DUP2 MLOAD GT ISZERO PUSH2 0x17F0 JUMPI DUP1 DUP1 PUSH1 0x20 ADD SWAP1 MLOAD DUP2 ADD SWAP1 PUSH2 0x17B0 SWAP2 SWAP1 PUSH2 0x25B3 JUMP JUMPDEST PUSH2 0x17EF JUMPI PUSH1 0x40 MLOAD PUSH32 0x8C379A000000000000000000000000000000000000000000000000000000000 DUP2 MSTORE PUSH1 0x4 ADD PUSH2 0x17E6 SWAP1 PUSH2 0x2652 JUMP JUMPDEST PUSH1 0x40 MLOAD DUP1 SWAP2 SUB SWAP1 REVERT JUMPDEST JUMPDEST POP POP POP JUMP JUMPDEST PUSH1 0x60 PUSH2 0x1804 DUP5 DUP5 PUSH1 0x0 DUP6 PUSH2 0x180D JUMP JUMPDEST SWAP1 POP SWAP4 SWAP3 POP POP POP JUMP JUMPDEST PUSH1 0x60 DUP3 SELFBALANCE LT ISZERO PUSH2 0x1852 JUMPI PUSH1 0x40 MLOAD PUSH32 0x8C379A000000000000000000000000000000000000000000000000000000000 DUP2 MSTORE PUSH1 0x4 ADD PUSH2 0x1849 SWAP1 PUSH2 0x26E4 JUMP JUMPDEST PUSH1 0x40 MLOAD DUP1 SWAP2 SUB SWAP1 REVERT JUMPDEST PUSH2 0x185B DUP6 PUSH2 0x1921 JUMP JUMPDEST PUSH2 0x189A JUMPI PUSH1 0x40 MLOAD PUSH32 0x8C379A000000000000000000000000000000000000000000000000000000000 DUP2 MSTORE PUSH1 0x4 ADD PUSH2 0x1891 SWAP1 PUSH2 0x2750 JUMP JUMPDEST PUSH1 0x40 MLOAD DUP1 SWAP2 SUB SWAP1 REVERT JUMPDEST PUSH1 0x0 DUP1 DUP7 PUSH20 0xFFFFFFFFFFFFFFFFFFFFFFFFFFFFFFFFFFFFFFFF AND DUP6 DUP8 PUSH1 0x40 MLOAD PUSH2 0x18C3 SWAP2 SWAP1 PUSH2 0x27E1 JUMP JUMPDEST PUSH1 0x0 PUSH1 0x40 MLOAD DUP1 DUP4 SUB DUP2 DUP6 DUP8 GAS CALL SWAP3 POP POP POP RETURNDATASIZE DUP1 PUSH1 0x0 DUP2 EQ PUSH2 0x1900 JUMPI PUSH1 0x40 MLOAD SWAP2 POP PUSH1 0x1F NOT PUSH1 0x3F RETURNDATASIZE ADD AND DUP3 ADD PUSH1 0x40 MSTORE RETURNDATASIZE DUP3 MSTORE RETURNDATASIZE PUSH1 0x0 PUSH1 0x20 DUP5 ADD RETURNDATACOPY PUSH2 0x1905 JUMP JUMPDEST PUSH1 0x60 SWAP2 POP JUMPDEST POP SWAP2 POP SWAP2 POP PUSH2 0x1915 DUP3 DUP3 DUP7 PUSH2 0x1944 JUMP JUMPDEST SWAP3 POP POP POP SWAP5 SWAP4 POP POP POP POP JUMP JUMPDEST PUSH1 0x0 DUP1 DUP3 PUSH20 0xFFFFFFFFFFFFFFFFFFFFFFFFFFFFFFFFFFFFFFFF AND EXTCODESIZE GT SWAP1 POP SWAP2 SWAP1 POP JUMP JUMPDEST PUSH1 0x60 DUP4 ISZERO PUSH2 0x1954 JUMPI DUP3 SWAP1 POP PUSH2 0x19A4 JUMP JUMPDEST PUSH1 0x0 DUP4 MLOAD GT ISZERO PUSH2 0x1967 JUMPI DUP3 MLOAD DUP1 DUP5 PUSH1 0x20 ADD REVERT JUMPDEST DUP2 PUSH1 0x40 MLOAD PUSH32 0x8C379A000000000000000000000000000000000000000000000000000000000 DUP2 MSTORE PUSH1 0x4 ADD PUSH2 0x199B SWAP2 SWAP1 PUSH2 0x284D JUMP JUMPDEST PUSH1 0x40 MLOAD DUP1 SWAP2 SUB SWAP1 REVERT JUMPDEST SWAP4 SWAP3 POP POP POP JUMP JUMPDEST PUSH1 0x0 DUP2 SWAP1 POP SWAP2 SWAP1 POP JUMP JUMPDEST PUSH2 0x19BE DUP2 PUSH2 0x19AB JUMP JUMPDEST DUP3 MSTORE POP POP JUMP JUMPDEST PUSH1 0x0 PUSH1 0x20 DUP3 ADD SWAP1 POP PUSH2 0x19D9 PUSH1 0x0 DUP4 ADD DUP5 PUSH2 0x19B5 JUMP JUMPDEST SWAP3 SWAP2 POP POP JUMP JUMPDEST PUSH1 0x0 DUP1 REVERT JUMPDEST PUSH2 0x19ED DUP2 PUSH2 0x19AB JUMP JUMPDEST DUP2 EQ PUSH2 0x19F8 JUMPI PUSH1 0x0 DUP1 REVERT JUMPDEST POP JUMP JUMPDEST PUSH1 0x0 DUP2 CALLDATALOAD SWAP1 POP PUSH2 0x1A0A DUP2 PUSH2 0x19E4 JUMP JUMPDEST SWAP3 SWAP2 POP POP JUMP JUMPDEST PUSH1 0x0 PUSH1 0x20 DUP3 DUP5 SUB SLT ISZERO PUSH2 0x1A26 JUMPI PUSH2 0x1A25 PUSH2 0x19DF JUMP JUMPDEST JUMPDEST PUSH1 0x0 PUSH2 0x1A34 DUP5 DUP3 DUP6 ADD PUSH2 0x19FB JUMP JUMPDEST SWAP2 POP POP SWAP3 SWAP2 POP POP JUMP JUMPDEST PUSH1 0x0 PUSH20 0xFFFFFFFFFFFFFFFFFFFFFFFFFFFFFFFFFFFFFFFF DUP3 AND SWAP1 POP SWAP2 SWAP1 POP JUMP JUMPDEST PUSH1 0x0 PUSH2 0x1A68 DUP3 PUSH2 0x1A3D JUMP JUMPDEST SWAP1 POP SWAP2 SWAP1 POP JUMP JUMPDEST PUSH2 0x1A78 DUP2 PUSH2 0x1A5D JUMP JUMPDEST DUP3 MSTORE POP POP JUMP JUMPDEST PUSH1 0x0 PUSH4 0xFFFFFFFF DUP3 AND SWAP1 POP SWAP2 SWAP1 POP JUMP JUMPDEST PUSH2 0x1A97 DUP2 PUSH2 0x1A7E JUMP JUMPDEST DUP3 MSTORE POP POP JUMP JUMPDEST PUSH1 0x0 DUP2 ISZERO ISZERO SWAP1 POP SWAP2 SWAP1 POP JUMP JUMPDEST PUSH2 0x1AB2 DUP2 PUSH2 0x1A9D JUMP JUMPDEST DUP3 MSTORE POP POP JUMP JUMPDEST PUSH1 0x0 PUSH2 0x100 DUP3 ADD SWAP1 POP PUSH2 0x1ACE PUSH1 0x0 DUP4 ADD DUP12 PUSH2 0x19B5 JUMP JUMPDEST PUSH2 0x1ADB PUSH1 0x20 DUP4 ADD DUP11 PUSH2 0x1A6F JUMP JUMPDEST PUSH2 0x1AE8 PUSH1 0x40 DUP4 ADD DUP10 PUSH2 0x19B5 JUMP JUMPDEST PUSH2 0x1AF5 PUSH1 0x60 DUP4 ADD DUP9 PUSH2 0x19B5 JUMP JUMPDEST PUSH2 0x1B02 PUSH1 0x80 DUP4 ADD DUP8 PUSH2 0x1A8E JUMP JUMPDEST PUSH2 0x1B0F PUSH1 0xA0 DUP4 ADD DUP7 PUSH2 0x1A8E JUMP JUMPDEST PUSH2 0x1B1C PUSH1 0xC0 DUP4 ADD DUP6 PUSH2 0x1AA9 JUMP JUMPDEST PUSH2 0x1B29 PUSH1 0xE0 DUP4 ADD DUP5 PUSH2 0x1AA9 JUMP JUMPDEST SWAP10 SWAP9 POP POP POP POP POP POP POP POP POP JUMP JUMPDEST PUSH2 0x1B3F DUP2 PUSH2 0x1A7E JUMP JUMPDEST DUP2 EQ PUSH2 0x1B4A JUMPI PUSH1 0x0 DUP1 REVERT JUMPDEST POP JUMP JUMPDEST PUSH1 0x0 DUP2 CALLDATALOAD SWAP1 POP PUSH2 0x1B5C DUP2 PUSH2 0x1B36 JUMP JUMPDEST SWAP3 SWAP2 POP POP JUMP JUMPDEST PUSH1 0x0 DUP1 PUSH1 0x0 PUSH1 0x60 DUP5 DUP7 SUB SLT ISZERO PUSH2 0x1B7B JUMPI PUSH2 0x1B7A PUSH2 0x19DF JUMP JUMPDEST JUMPDEST PUSH1 0x0 PUSH2 0x1B89 DUP7 DUP3 DUP8 ADD PUSH2 0x19FB JUMP JUMPDEST SWAP4 POP POP PUSH1 0x20 PUSH2 0x1B9A DUP7 DUP3 DUP8 ADD PUSH2 0x1B4D JUMP JUMPDEST SWAP3 POP POP PUSH1 0x40 PUSH2 0x1BAB DUP7 DUP3 DUP8 ADD PUSH2 0x1B4D JUMP JUMPDEST SWAP2 POP POP SWAP3 POP SWAP3 POP SWAP3 JUMP JUMPDEST PUSH1 0x0 DUP1 PUSH1 0x40 DUP4 DUP6 SUB SLT ISZERO PUSH2 0x1BCC JUMPI PUSH2 0x1BCB PUSH2 0x19DF JUMP JUMPDEST JUMPDEST PUSH1 0x0 PUSH2 0x1BDA DUP6 DUP3 DUP7 ADD PUSH2 0x19FB JUMP JUMPDEST SWAP3 POP POP PUSH1 0x20 PUSH2 0x1BEB DUP6 DUP3 DUP7 ADD PUSH2 0x19FB JUMP JUMPDEST SWAP2 POP POP SWAP3 POP SWAP3 SWAP1 POP JUMP JUMPDEST PUSH1 0x0 PUSH2 0x1C00 DUP3 PUSH2 0x1A5D JUMP JUMPDEST SWAP1 POP SWAP2 SWAP1 POP JUMP JUMPDEST PUSH2 0x1C10 DUP2 PUSH2 0x1BF5 JUMP JUMPDEST DUP2 EQ PUSH2 0x1C1B JUMPI PUSH1 0x0 DUP1 REVERT JUMPDEST POP JUMP JUMPDEST PUSH1 0x0 DUP2 CALLDATALOAD SWAP1 POP PUSH2 0x1C2D DUP2 PUSH2 0x1C07 JUMP JUMPDEST SWAP3 SWAP2 POP POP JUMP JUMPDEST PUSH1 0x0 DUP1 PUSH1 0x0 PUSH1 0x60 DUP5 DUP7 SUB SLT ISZERO PUSH2 0x1C4C JUMPI PUSH2 0x1C4B PUSH2 0x19DF JUMP JUMPDEST JUMPDEST PUSH1 0x0 PUSH2 0x1C5A DUP7 DUP3 DUP8 ADD PUSH2 0x1C1E JUMP JUMPDEST SWAP4 POP POP PUSH1 0x20 PUSH2 0x1C6B DUP7 DUP3 DUP8 ADD PUSH2 0x19FB JUMP JUMPDEST SWAP3 POP POP PUSH1 0x40 PUSH2 0x1C7C DUP7 DUP3 DUP8 ADD PUSH2 0x19FB JUMP JUMPDEST SWAP2 POP POP SWAP3 POP SWAP3 POP SWAP3 JUMP JUMPDEST PUSH2 0x1C8F DUP2 PUSH2 0x1A5D JUMP JUMPDEST DUP2 EQ PUSH2 0x1C9A JUMPI PUSH1 0x0 DUP1 REVERT JUMPDEST POP JUMP JUMPDEST PUSH1 0x0 DUP2 CALLDATALOAD SWAP1 POP PUSH2 0x1CAC DUP2 PUSH2 0x1C86 JUMP JUMPDEST SWAP3 SWAP2 POP POP JUMP JUMPDEST PUSH1 0x0 DUP1 PUSH1 0x40 DUP4 DUP6 SUB SLT ISZERO PUSH2 0x1CC9 JUMPI PUSH2 0x1CC8 PUSH2 0x19DF JUMP JUMPDEST JUMPDEST PUSH1 0x0 PUSH2 0x1CD7 DUP6 DUP3 DUP7 ADD PUSH2 0x19FB JUMP JUMPDEST SWAP3 POP POP PUSH1 0x20 PUSH2 0x1CE8 DUP6 DUP3 DUP7 ADD PUSH2 0x1C9D JUMP JUMPDEST SWAP2 POP POP SWAP3 POP SWAP3 SWAP1 POP JUMP JUMPDEST PUSH1 0x0 DUP2 SWAP1 POP SWAP2 SWAP1 POP JUMP JUMPDEST PUSH1 0x0 PUSH2 0x1D17 PUSH2 0x1D12 PUSH2 0x1D0D DUP5 PUSH2 0x1A3D JUMP JUMPDEST PUSH2 0x1CF2 JUMP JUMPDEST PUSH2 0x1A3D JUMP JUMPDEST SWAP1 POP SWAP2 SWAP1 POP JUMP JUMPDEST PUSH1 0x0 PUSH2 0x1D29 DUP3 PUSH2 0x1CFC JUMP JUMPDEST SWAP1 POP SWAP2 SWAP1 POP JUMP JUMPDEST PUSH1 0x0 PUSH2 0x1D3B DUP3 PUSH2 0x1D1E JUMP JUMPDEST SWAP1 POP SWAP2 SWAP1 POP JUMP JUMPDEST PUSH2 0x1D4B DUP2 PUSH2 0x1D30 JUMP JUMPDEST DUP3 MSTORE POP POP JUMP JUMPDEST PUSH1 0x0 PUSH1 0x20 DUP3 ADD SWAP1 POP PUSH2 0x1D66 PUSH1 0x0 DUP4 ADD DUP5 PUSH2 0x1D42 JUMP JUMPDEST SWAP3 SWAP2 POP POP JUMP JUMPDEST PUSH1 0x0 DUP3 DUP3 MSTORE PUSH1 0x20 DUP3 ADD SWAP1 POP SWAP3 SWAP2 POP POP JUMP JUMPDEST PUSH32 0x63616D706169676E20646F6573206E6F74206578697374000000000000000000 PUSH1 0x0 DUP3 ADD MSTORE POP JUMP JUMPDEST PUSH1 0x0 PUSH2 0x1DB3 PUSH1 0x17 DUP4 PUSH2 0x1D6C JUMP JUMPDEST SWAP2 POP PUSH2 0x1DBE DUP3 PUSH2 0x1D7D JUMP JUMPDEST PUSH1 0x20 DUP3 ADD SWAP1 POP SWAP2 SWAP1 POP JUMP JUMPDEST PUSH1 0x0 PUSH1 0x20 DUP3 ADD SWAP1 POP DUP2 DUP2 SUB PUSH1 0x0 DUP4 ADD MSTORE PUSH2 0x1DE2 DUP2 PUSH2 0x1DA6 JUMP JUMPDEST SWAP1 POP SWAP2 SWAP1 POP JUMP JUMPDEST PUSH32 0x63616D706169676E206E6F7420656E6465640000000000000000000000000000 PUSH1 0x0 DUP3 ADD MSTORE POP JUMP JUMPDEST PUSH1 0x0 PUSH2 0x1E1F PUSH1 0x12 DUP4 PUSH2 0x1D6C JUMP JUMPDEST SWAP2 POP PUSH2 0x1E2A DUP3 PUSH2 0x1DE9 JUMP JUMPDEST PUSH1 0x20 DUP3 ADD SWAP1 POP SWAP2 SWAP1 POP JUMP JUMPDEST PUSH1 0x0 PUSH1 0x20 DUP3 ADD SWAP1 POP DUP2 DUP2 SUB PUSH1 0x0 DUP4 ADD MSTORE PUSH2 0x1E4E DUP2 PUSH2 0x1E12 JUMP JUMPDEST SWAP1 POP SWAP2 SWAP1 POP JUMP JUMPDEST PUSH32 0x706C6564676564203E3D20676F616C0000000000000000000000000000000000 PUSH1 0x0 DUP3 ADD MSTORE POP JUMP JUMPDEST PUSH1 0x0 PUSH2 0x1E8B PUSH1 0xF DUP4 PUSH2 0x1D6C JUMP JUMPDEST SWAP2 POP PUSH2 0x1E96 DUP3 PUSH2 0x1E55 JUMP JUMPDEST PUSH1 0x20 DUP3 ADD SWAP1 POP SWAP2 SWAP1 POP JUMP JUMPDEST PUSH1 0x0 PUSH1 0x20 DUP3 ADD SWAP1 POP DUP2 DUP2 SUB PUSH1 0x0 DUP4 ADD MSTORE PUSH2 0x1EBA DUP2 PUSH2 0x1E7E JUMP JUMPDEST SWAP1 POP SWAP2 SWAP1 POP JUMP JUMPDEST PUSH32 0x7374617274206174203C206E6F77000000000000000000000000000000000000 PUSH1 0x0 DUP3 ADD MSTORE POP JUMP JUMPDEST PUSH1 0x0 PUSH2 0x1EF7 PUSH1 0xE DUP4 PUSH2 0x1D6C JUMP JUMPDEST SWAP2 POP PUSH2 0x1F02 DUP3 PUSH2 0x1EC1 JUMP JUMPDEST PUSH1 0x20 DUP3 ADD SWAP1 POP SWAP2 SWAP1 POP JUMP JUMPDEST PUSH1 0x0 PUSH1 0x20 DUP3 ADD SWAP1 POP DUP2 DUP2 SUB PUSH1 0x0 DUP4 ADD MSTORE PUSH2 0x1F26 DUP2 PUSH2 0x1EEA JUMP JUMPDEST SWAP1 POP SWAP2 SWAP1 POP JUMP JUMPDEST PUSH32 0x4E487B7100000000000000000000000000000000000000000000000000000000 PUSH1 0x0 MSTORE PUSH1 0x11 PUSH1 0x4 MSTORE PUSH1 0x24 PUSH1 0x0 REVERT JUMPDEST PUSH1 0x0 PUSH2 0x1F67 DUP3 PUSH2 0x19AB JUMP JUMPDEST SWAP2 POP PUSH2 0x1F72 DUP4 PUSH2 0x19AB JUMP JUMPDEST SWAP3 POP DUP3 DUP3 ADD SWAP1 POP DUP1 DUP3 GT ISZERO PUSH2 0x1F8A JUMPI PUSH2 0x1F89 PUSH2 0x1F2D JUMP JUMPDEST JUMPDEST SWAP3 SWAP2 POP POP JUMP JUMPDEST PUSH32 0x6E6F7420696E206D696E2026206D6178206475726174696F6E00000000000000 PUSH1 0x0 DUP3 ADD MSTORE POP JUMP JUMPDEST PUSH1 0x0 PUSH2 0x1FC6 PUSH1 0x19 DUP4 PUSH2 0x1D6C JUMP JUMPDEST SWAP2 POP PUSH2 0x1FD1 DUP3 PUSH2 0x1F90 JUMP JUMPDEST PUSH1 0x20 DUP3 ADD SWAP1 POP SWAP2 SWAP1 POP JUMP JUMPDEST PUSH1 0x0 PUSH1 0x20 DUP3 ADD SWAP1 POP DUP2 DUP2 SUB PUSH1 0x0 DUP4 ADD MSTORE PUSH2 0x1FF5 DUP2 PUSH2 0x1FB9 JUMP JUMPDEST SWAP1 POP SWAP2 SWAP1 POP JUMP JUMPDEST PUSH1 0x0 PUSH1 0x60 DUP3 ADD SWAP1 POP PUSH2 0x2011 PUSH1 0x0 DUP4 ADD DUP7 PUSH2 0x19B5 JUMP JUMPDEST PUSH2 0x201E PUSH1 0x20 DUP4 ADD DUP6 PUSH2 0x1A8E JUMP JUMPDEST PUSH2 0x202B PUSH1 0x40 DUP4 ADD DUP5 PUSH2 0x1A8E JUMP JUMPDEST SWAP5 SWAP4 POP POP POP POP JUMP JUMPDEST PUSH32 0x6E6F742063726561746F72000000000000000000000000000000000000000000 PUSH1 0x0 DUP3 ADD MSTORE POP JUMP JUMPDEST PUSH1 0x0 PUSH2 0x2069 PUSH1 0xB DUP4 PUSH2 0x1D6C JUMP JUMPDEST SWAP2 POP PUSH2 0x2074 DUP3 PUSH2 0x2033 JUMP JUMPDEST PUSH1 0x20 DUP3 ADD SWAP1 POP SWAP2 SWAP1 POP JUMP JUMPDEST PUSH1 0x0 PUSH1 0x20 DUP3 ADD SWAP1 POP DUP2 DUP2 SUB PUSH1 0x0 DUP4 ADD MSTORE PUSH2 0x2098 DUP2 PUSH2 0x205C JUMP JUMPDEST SWAP1 POP SWAP2 SWAP1 POP JUMP JUMPDEST PUSH32 0x63616D706169676E2063616E63656C6C65640000000000000000000000000000 PUSH1 0x0 DUP3 ADD MSTORE POP JUMP JUMPDEST PUSH1 0x0 PUSH2 0x20D5 PUSH1 0x12 DUP4 PUSH2 0x1D6C JUMP JUMPDEST SWAP2 POP PUSH2 0x20E0 DUP3 PUSH2 0x209F JUMP JUMPDEST PUSH1 0x20 DUP3 ADD SWAP1 POP SWAP2 SWAP1 POP JUMP JUMPDEST PUSH1 0x0 PUSH1 0x20 DUP3 ADD SWAP1 POP DUP2 DUP2 SUB PUSH1 0x0 DUP4 ADD MSTORE PUSH2 0x2104 DUP2 PUSH2 0x20C8 JUMP JUMPDEST SWAP1 POP SWAP2 SWAP1 POP JUMP JUMPDEST PUSH32 0x636C61696D656400000000000000000000000000000000000000000000000000 PUSH1 0x0 DUP3 ADD MSTORE POP JUMP JUMPDEST PUSH1 0x0 PUSH2 0x2141 PUSH1 0x7 DUP4 PUSH2 0x1D6C JUMP JUMPDEST SWAP2 POP PUSH2 0x214C DUP3 PUSH2 0x210B JUMP JUMPDEST PUSH1 0x20 DUP3 ADD SWAP1 POP SWAP2 SWAP1 POP JUMP JUMPDEST PUSH1 0x0 PUSH1 0x20 DUP3 ADD SWAP1 POP DUP2 DUP2 SUB PUSH1 0x0 DUP4 ADD MSTORE PUSH2 0x2170 DUP2 PUSH2 0x2134 JUMP JUMPDEST SWAP1 POP SWAP2 SWAP1 POP JUMP JUMPDEST PUSH32 0x706C6564676564203C20676F616C000000000000000000000000000000000000 PUSH1 0x0 DUP3 ADD MSTORE POP JUMP JUMPDEST PUSH1 0x0 PUSH2 0x21AD PUSH1 0xE DUP4 PUSH2 0x1D6C JUMP JUMPDEST SWAP2 POP PUSH2 0x21B8 DUP3 PUSH2 0x2177 JUMP JUMPDEST PUSH1 0x20 DUP3 ADD SWAP1 POP SWAP2 SWAP1 POP JUMP JUMPDEST PUSH1 0x0 PUSH1 0x20 DUP3 ADD SWAP1 POP DUP2 DUP2 SUB PUSH1 0x0 DUP4 ADD MSTORE PUSH2 0x21DC DUP2 PUSH2 0x21A0 JUMP JUMPDEST SWAP1 POP SWAP2 SWAP1 POP JUMP JUMPDEST PUSH32 0x63616D706169676E20656E646564000000000000000000000000000000000000 PUSH1 0x0 DUP3 ADD MSTORE POP JUMP JUMPDEST PUSH1 0x0 PUSH2 0x2219 PUSH1 0xE DUP4 PUSH2 0x1D6C JUMP JUMPDEST SWAP2 POP PUSH2 0x2224 DUP3 PUSH2 0x21E3 JUMP JUMPDEST PUSH1 0x20 DUP3 ADD SWAP1 POP SWAP2 SWAP1 POP JUMP JUMPDEST PUSH1 0x0 PUSH1 0x20 DUP3 ADD SWAP1 POP DUP2 DUP2 SUB PUSH1 0x0 DUP4 ADD MSTORE PUSH2 0x2248 DUP2 PUSH2 0x220C JUMP JUMPDEST SWAP1 POP SWAP2 SWAP1 POP JUMP JUMPDEST PUSH32 0x496E697469616C697A61626C653A20636F6E747261637420697320616C726561 PUSH1 0x0 DUP3 ADD MSTORE PUSH32 0x647920696E697469616C697A6564000000000000000000000000000000000000 PUSH1 0x20 DUP3 ADD MSTORE POP JUMP JUMPDEST PUSH1 0x0 PUSH2 0x22AB PUSH1 0x2E DUP4 PUSH2 0x1D6C JUMP JUMPDEST SWAP2 POP PUSH2 0x22B6 DUP3 PUSH2 0x224F JUMP JUMPDEST PUSH1 0x40 DUP3 ADD SWAP1 POP SWAP2 SWAP1 POP JUMP JUMPDEST PUSH1 0x0 PUSH1 0x20 DUP3 ADD SWAP1 POP DUP2 DUP2 SUB PUSH1 0x0 DUP4 ADD MSTORE PUSH2 0x22DA DUP2 PUSH2 0x229E JUMP JUMPDEST SWAP1 POP SWAP2 SWAP1 POP JUMP JUMPDEST PUSH32 0x6D696E4475726174696F6E203E206D61784475726174696F6E00000000000000 PUSH1 0x0 DUP3 ADD MSTORE POP JUMP JUMPDEST PUSH1 0x0 PUSH2 0x2317 PUSH1 0x19 DUP4 PUSH2 0x1D6C JUMP JUMPDEST SWAP2 POP PUSH2 0x2322 DUP3 PUSH2 0x22E1 JUMP JUMPDEST PUSH1 0x20 DUP3 ADD SWAP1 POP SWAP2 SWAP1 POP JUMP JUMPDEST PUSH1 0x0 PUSH1 0x20 DUP3 ADD SWAP1 POP DUP2 DUP2 SUB PUSH1 0x0 DUP4 ADD MSTORE PUSH2 0x2346 DUP2 PUSH2 0x230A JUMP JUMPDEST SWAP1 POP SWAP2 SWAP1 POP JUMP JUMPDEST PUSH1 0x0 DUP2 SWAP1 POP SWAP2 SWAP1 POP JUMP JUMPDEST PUSH1 0x0 PUSH1 0xFF DUP3 AND SWAP1 POP SWAP2 SWAP1 POP JUMP JUMPDEST PUSH1 0x0 PUSH2 0x237F PUSH2 0x237A PUSH2 0x2375 DUP5 PUSH2 0x234D JUMP JUMPDEST PUSH2 0x1CF2 JUMP JUMPDEST PUSH2 0x2357 JUMP JUMPDEST SWAP1 POP SWAP2 SWAP1 POP JUMP JUMPDEST PUSH2 0x238F DUP2 PUSH2 0x2364 JUMP JUMPDEST DUP3 MSTORE POP POP JUMP JUMPDEST PUSH1 0x0 PUSH1 0x20 DUP3 ADD SWAP1 POP PUSH2 0x23AA PUSH1 0x0 DUP4 ADD DUP5 PUSH2 0x2386 JUMP JUMPDEST SWAP3 SWAP2 POP POP JUMP JUMPDEST PUSH32 0x63616D706169676E206E6F742073746172746564000000000000000000000000 PUSH1 0x0 DUP3 ADD MSTORE POP JUMP JUMPDEST PUSH1 0x0 PUSH2 0x23E6 PUSH1 0x14 DUP4 PUSH2 0x1D6C JUMP JUMPDEST SWAP2 POP PUSH2 0x23F1 DUP3 PUSH2 0x23B0 JUMP JUMPDEST PUSH1 0x20 DUP3 ADD SWAP1 POP SWAP2 SWAP1 POP JUMP JUMPDEST PUSH1 0x0 PUSH1 0x20 DUP3 ADD SWAP1 POP DUP2 DUP2 SUB PUSH1 0x0 DUP4 ADD MSTORE PUSH2 0x2415 DUP2 PUSH2 0x23D9 JUMP JUMPDEST SWAP1 POP SWAP2 SWAP1 POP JUMP JUMPDEST PUSH32 0x696E76616C696420616D6F756E74000000000000000000000000000000000000 PUSH1 0x0 DUP3 ADD MSTORE POP JUMP JUMPDEST PUSH1 0x0 PUSH2 0x2452 PUSH1 0xE DUP4 PUSH2 0x1D6C JUMP JUMPDEST SWAP2 POP PUSH2 0x245D DUP3 PUSH2 0x241C JUMP JUMPDEST PUSH1 0x20 DUP3 ADD SWAP1 POP SWAP2 SWAP1 POP JUMP JUMPDEST PUSH1 0x0 PUSH1 0x20 DUP3 ADD SWAP1 POP DUP2 DUP2 SUB PUSH1 0x0 DUP4 ADD MSTORE PUSH2 0x2481 DUP2 PUSH2 0x2445 JUMP JUMPDEST SWAP1 POP SWAP2 SWAP1 POP JUMP JUMPDEST PUSH1 0x0 PUSH2 0x2493 DUP3 PUSH2 0x19AB JUMP JUMPDEST SWAP2 POP PUSH2 0x249E DUP4 PUSH2 0x19AB JUMP JUMPDEST SWAP3 POP DUP3 DUP3 SUB SWAP1 POP DUP2 DUP2 GT ISZERO PUSH2 0x24B6 JUMPI PUSH2 0x24B5 PUSH2 0x1F2D JUMP JUMPDEST JUMPDEST SWAP3 SWAP2 POP POP JUMP JUMPDEST PUSH1 0x0 PUSH1 0x40 DUP3 ADD SWAP1 POP PUSH2 0x24D1 PUSH1 0x0 DUP4 ADD DUP6 PUSH2 0x1A6F JUMP JUMPDEST PUSH2 0x24DE PUSH1 0x20 DUP4 ADD DUP5 PUSH2 0x1A6F JUMP JUMPDEST SWAP4 SWAP3 POP POP POP JUMP JUMPDEST PUSH1 0x0 DUP2 MLOAD SWAP1 POP PUSH2 0x24F4 DUP2 PUSH2 0x19E4 JUMP JUMPDEST SWAP3 SWAP2 POP POP JUMP JUMPDEST PUSH1 0x0 PUSH1 0x20 DUP3 DUP5 SUB SLT ISZERO PUSH2 0x2510 JUMPI PUSH2 0x250F PUSH2 0x19DF JUMP JUMPDEST JUMPDEST PUSH1 0x0 PUSH2 0x251E DUP5 DUP3 DUP6 ADD PUSH2 0x24E5 JUMP JUMPDEST SWAP2 POP POP SWAP3 SWAP2 POP POP JUMP JUMPDEST PUSH1 0x0 PUSH1 0x40 DUP3 ADD SWAP1 POP PUSH2 0x253C PUSH1 0x0 DUP4 ADD DUP6 PUSH2 0x1A6F JUMP JUMPDEST PUSH2 0x2549 PUSH1 0x20 DUP4 ADD DUP5 PUSH2 0x19B5 JUMP JUMPDEST SWAP4 SWAP3 POP POP POP JUMP JUMPDEST PUSH1 0x0 PUSH1 0x60 DUP3 ADD SWAP1 POP PUSH2 0x2565 PUSH1 0x0 DUP4 ADD DUP7 PUSH2 0x1A6F JUMP JUMPDEST PUSH2 0x2572 PUSH1 0x20 DUP4 ADD DUP6 PUSH2 0x1A6F JUMP JUMPDEST PUSH2 0x257F PUSH1 0x40 DUP4 ADD DUP5 PUSH2 0x19B5 JUMP JUMPDEST SWAP5 SWAP4 POP POP POP POP JUMP JUMPDEST PUSH2 0x2590 DUP2 PUSH2 0x1A9D JUMP JUMPDEST DUP2 EQ PUSH2 0x259B JUMPI PUSH1 0x0 DUP1 REVERT JUMPDEST POP JUMP JUMPDEST PUSH1 0x0 DUP2 MLOAD SWAP1 POP PUSH2 0x25AD DUP2 PUSH2 0x2587 JUMP JUMPDEST SWAP3 SWAP2 POP POP JUMP JUMPDEST PUSH1 0x0 PUSH1 0x20 DUP3 DUP5 SUB SLT ISZERO PUSH2 0x25C9 JUMPI PUSH2 0x25C8 PUSH2 0x19DF JUMP JUMPDEST JUMPDEST PUSH1 0x0 PUSH2 0x25D7 DUP5 DUP3 DUP6 ADD PUSH2 0x259E JUMP JUMPDEST SWAP2 POP POP SWAP3 SWAP2 POP POP JUMP JUMPDEST PUSH32 0x5361666545524332303A204552433230206F7065726174696F6E20646964206E PUSH1 0x0 DUP3 ADD MSTORE PUSH32 0x6F74207375636365656400000000000000000000000000000000000000000000 PUSH1 0x20 DUP3 ADD MSTORE POP JUMP JUMPDEST PUSH1 0x0 PUSH2 0x263C PUSH1 0x2A DUP4 PUSH2 0x1D6C JUMP JUMPDEST SWAP2 POP PUSH2 0x2647 DUP3 PUSH2 0x25E0 JUMP JUMPDEST PUSH1 0x40 DUP3 ADD SWAP1 POP SWAP2 SWAP1 POP JUMP JUMPDEST PUSH1 0x0 PUSH1 0x20 DUP3 ADD SWAP1 POP DUP2 DUP2 SUB PUSH1 0x0 DUP4 ADD MSTORE PUSH2 0x266B DUP2 PUSH2 0x262F JUMP JUMPDEST SWAP1 POP SWAP2 SWAP1 POP JUMP JUMPDEST PUSH32 0x416464726573733A20696E73756666696369656E742062616C616E636520666F PUSH1 0x0 DUP3 ADD MSTORE PUSH32 0x722063616C6C0000000000000000000000000000000000000000000000000000 PUSH1 0x20 DUP3 ADD MSTORE POP JUMP JUMPDEST PUSH1 0x0 PUSH2 0x26CE PUSH1 0x26 DUP4 PUSH2 0x1D6C JUMP JUMPDEST SWAP2 POP PUSH2 0x26D9 DUP3 PUSH2 0x2672 JUMP JUMPDEST PUSH1 0x40 DUP3 ADD SWAP1 POP SWAP2 SWAP1 POP JUMP JUMPDEST PUSH1 0x0 PUSH1 0x20 DUP3 ADD SWAP1 POP DUP2 DUP2 SUB PUSH1 0x0 DUP4 ADD MSTORE PUSH2 0x26FD DUP2 PUSH2 0x26C1 JUMP JUMPDEST SWAP1 POP SWAP2 SWAP1 POP JUMP JUMPDEST PUSH32 0x416464726573733A2063616C6C20746F206E6F6E2D636F6E7472616374000000 PUSH1 0x0 DUP3 ADD MSTORE POP JUMP JUMPDEST PUSH1 0x0 PUSH2 0x273A PUSH1 0x1D DUP4 PUSH2 0x1D6C JUMP JUMPDEST SWAP2 POP PUSH2 0x2745 DUP3 PUSH2 0x2704 JUMP JUMPDEST PUSH1 0x20 DUP3 ADD SWAP1 POP SWAP2 SWAP1 POP JUMP JUMPDEST PUSH1 0x0 PUSH1 0x20 DUP3 ADD SWAP1 POP DUP2 DUP2 SUB PUSH1 0x0 DUP4 ADD MSTORE PUSH2 0x2769 DUP2 PUSH2 0x272D JUMP JUMPDEST SWAP1 POP SWAP2 SWAP1 POP JUMP JUMPDEST PUSH1 0x0 DUP2 MLOAD SWAP1 POP SWAP2 SWAP1 POP JUMP JUMPDEST PUSH1 0x0 DUP2 SWAP1 POP SWAP3 SWAP2 POP POP JUMP JUMPDEST PUSH1 0x0 JUMPDEST DUP4 DUP2 LT ISZERO PUSH2 0x27A4 JUMPI DUP1 DUP3 ADD MLOAD DUP2 DUP5 ADD MSTORE PUSH1 0x20 DUP2 ADD SWAP1 POP PUSH2 0x2789 JUMP JUMPDEST PUSH1 0x0 DUP5 DUP5 ADD MSTORE POP POP POP POP JUMP JUMPDEST PUSH1 0x0 PUSH2 0x27BB DUP3 PUSH2 0x2770 JUMP JUMPDEST PUSH2 0x27C5 DUP2 DUP6 PUSH2 0x277B JUMP JUMPDEST SWAP4 POP PUSH2 0x27D5 DUP2 DUP6 PUSH1 0x20 DUP7 ADD PUSH2 0x2786 JUMP JUMPDEST DUP1 DUP5 ADD SWAP2 POP POP SWAP3 SWAP2 POP POP JUMP JUMPDEST PUSH1 0x0 PUSH2 0x27ED DUP3 DUP5 PUSH2 0x27B0 JUMP JUMPDEST SWAP2 POP DUP2 SWAP1 POP SWAP3 SWAP2 POP POP JUMP JUMPDEST PUSH1 0x0 DUP2 MLOAD SWAP1 POP SWAP2 SWAP1 POP JUMP JUMPDEST PUSH1 0x0 PUSH1 0x1F NOT PUSH1 0x1F DUP4 ADD AND SWAP1 POP SWAP2 SWAP1 POP JUMP JUMPDEST PUSH1 0x0 PUSH2 0x281F DUP3 PUSH2 0x27F8 JUMP JUMPDEST PUSH2 0x2829 DUP2 DUP6 PUSH2 0x1D6C JUMP JUMPDEST SWAP4 POP PUSH2 0x2839 DUP2 DUP6 PUSH1 0x20 DUP7 ADD PUSH2 0x2786 JUMP JUMPDEST PUSH2 0x2842 DUP2 PUSH2 0x2803 JUMP JUMPDEST DUP5 ADD SWAP2 POP POP SWAP3 SWAP2 POP POP JUMP JUMPDEST PUSH1 0x0 PUSH1 0x20 DUP3 ADD SWAP1 POP DUP2 DUP2 SUB PUSH1 0x0 DUP4 ADD MSTORE PUSH2 0x2867 DUP2 DUP5 PUSH2 0x2814 JUMP JUMPDEST SWAP1 POP SWAP3 SWAP2 POP POP JUMP INVALID LOG2 PUSH5 0x6970667358 0x22 SLT KECCAK256 0xEB 0x49 0xD8 0xE6 EQ 0xE1 0xC9 SWAP9 0xC2 PUSH6 0xBC41FD322F1A 0x5E 0xE8 ADDMOD GASLIMIT LT BALANCE 0xD7 0xEC SWAP6 0x2B 0x4B SWAP2 0xBC CALLER SWAP12 DUP13 PUSH5 0x736F6C6343 STOP ADDMOD SGT STOP CALLER "
				},
				"gasEstimates": {
					"creation": {
						"codeDepositCost": "2081000",
						"executionCost": "2214",
						"totalCost": "2083214"
					},
					"external": {
						"campaigns(uint256)": "infinite",
						"cancel(uint256)": "32839",
						"claim(uint256)": "infinite",
						"count()": "2430",
						"initialize(address,uint256,uint256)": "infinite",
						"launch(uint256,uint32,uint32)": "infinite",
						"maxDuration()": "2474",
						"minDuration()": "2452",
						"pledge(uint256,uint256)": "infinite",
						"pledgedAmount(uint256,address)": "infinite",
						"refund(uint256)": "infinite",
						"token()": "infinite",
						"unpledge(uint256,uint256)": "infinite"
					},
					"internal": {
						"_refund(address,uint256,uint256)": "infinite"
					}
				},
				"methodIdentifiers": {
					"campaigns(uint256)": "141961bc",
					"cancel(uint256)": "40e58ee5",
					"claim(uint256)": "379607f5",
					"count()": "06661abd",
					"initialize(address,uint256,uint256)": "7a1ac61e",
					"launch(uint256,uint32,uint32)": "2c63f146",
					"maxDuration()": "6db5c8fd",
					"minDuration()": "56715761",
					"pledge(uint256,uint256)": "fde327be",
					"pledgedAmount(uint256,address)": "aa4fb63a",
					"refund(uint256)": "278ecde1",
					"token()": "fc0c546a",
					"unpledge(uint256,uint256)": "711853ab"
				}
			},
			"storageLayout": {
				"storage": [
					{
						"astId": 6,
						"contract": "contracts/DeFi/CrowdfundV2.sol:Crowdfund",
						"label": "_initialized",
						"offset": 0,
						"slot": "0",
						"type": "t_uint8"
					},
					{
						"astId": 9,
						"contract": "contracts/DeFi/CrowdfundV2.sol:Crowdfund",
						"label": "_initializing",
						"offset": 1,
						"slot": "0",
						"type": "t_bool"
					},
					{
						"astId": 1173,
						"contract": "contracts/DeFi/CrowdfundV2.sol:Crowdfund",
						"label": "token",
						"offset": 2,
						"slot": "0",
						"type": "t_contract(IERC20)530"
					},
					{
						"astId": 1176,
						"contract": "contracts/DeFi/CrowdfundV2.sol:Crowdfund",
						"label": "maxDuration",
						"offset": 0,
						"slot": "1",
						"type": "t_uint256"
					},
					{
						"astId": 1178,
						"contract": "contracts/DeFi/CrowdfundV2.sol:Crowdfund",
						"label": "minDuration",
						"offset": 0,
						"slot": "2",
						"type": "t_uint256"
					},
					{
						"astId": 1181,
						"contract": "contracts/DeFi/CrowdfundV2.sol:Crowdfund",
						"label": "count",
						"offset": 0,
						"slot": "3",
						"type": "t_uint256"
					},
					{
						"astId": 1187,
						"contract": "contracts/DeFi/CrowdfundV2.sol:Crowdfund",
						"label": "campaigns",
						"offset": 0,
						"slot": "4",
						"type": "t_mapping(t_uint256,t_struct(Campaign)1166_storage)"
					},
					{
						"astId": 1194,
						"contract": "contracts/DeFi/CrowdfundV2.sol:Crowdfund",
						"label": "pledgedAmount",
						"offset": 0,
						"slot": "5",
						"type": "t_mapping(t_uint256,t_mapping(t_address,t_uint256))"
					}
				],
				"types": {
					"t_address": {
						"encoding": "inplace",
						"label": "address",
						"numberOfBytes": "20"
					},
					"t_bool": {
						"encoding": "inplace",
						"label": "bool",
						"numberOfBytes": "1"
					},
					"t_contract(IERC20)530": {
						"encoding": "inplace",
						"label": "contract IERC20",
						"numberOfBytes": "20"
					},
					"t_mapping(t_address,t_uint256)": {
						"encoding": "mapping",
						"key": "t_address",
						"label": "mapping(address => uint256)",
						"numberOfBytes": "32",
						"value": "t_uint256"
					},
					"t_mapping(t_uint256,t_mapping(t_address,t_uint256))": {
						"encoding": "mapping",
						"key": "t_uint256",
						"label": "mapping(uint256 => mapping(address => uint256))",
						"numberOfBytes": "32",
						"value": "t_mapping(t_address,t_uint256)"
					},
					"t_mapping(t_uint256,t_struct(Campaign)1166_storage)": {
						"encoding": "mapping",
						"key": "t_uint256",
						"label": "mapping(uint256 => struct Crowdfund.Campaign)",
						"numberOfBytes": "32",
						"value": "t_struct(Campaign)1166_storage"
					},
					"t_struct(Campaign)1166_storage": {
						"encoding": "inplace",
						"label": "struct Crowdfund.Campaign",
						"members": [
							{
								"astId": 1151,
								"contract": "contracts/DeFi/CrowdfundV2.sol:Crowdfund",
								"label": "id",
								"offset": 0,
								"slot": "0",
								"type": "t_uint256"
							},
							{
								"astId": 1153,
								"contract": "contracts/DeFi/CrowdfundV2.sol:Crowdfund",
								"label": "creator",
								"offset": 0,
								"slot": "1",
								"type": "t_address"
							},
							{
								"astId": 1155,
								"contract": "contracts/DeFi/CrowdfundV2.sol:Crowdfund",
								"label": "goal",
								"offset": 0,
								"slot": "2",
								"type": "t_uint256"
							},
							{
								"astId": 1157,
								"contract": "contracts/DeFi/CrowdfundV2.sol:Crowdfund",
								"label": "pledged",
								"offset": 0,
								"slot": "3",
								"type": "t_uint256"
							},
							{
								"astId": 1159,
								"contract": "contracts/DeFi/CrowdfundV2.sol:Crowdfund",
								"label": "startAt",
								"offset": 0,
								"slot": "4",
								"type": "t_uint32"
							},
							{
								"astId": 1161,
								"contract": "contracts/DeFi/CrowdfundV2.sol:Crowdfund",
								"label": "endAt",
								"offset": 4,
								"slot": "4",
								"type": "t_uint32"
							},
							{
								"astId": 1163,
								"contract": "contracts/DeFi/CrowdfundV2.sol:Crowdfund",
								"label": "claimed",
								"offset": 8,
								"slot": "4",
								"type": "t_bool"
							},
							{
								"astId": 1165,
								"contract": "contracts/DeFi/CrowdfundV2.sol:Crowdfund",
								"label": "cancelled",
								"offset": 9,
								"slot": "4",
								"type": "t_bool"
							}
						],
						"numberOfBytes": "160"
					},
					"t_uint256": {
						"encoding": "inplace",
						"label": "uint256",
						"numberOfBytes": "32"
					},
					"t_uint32": {
						"encoding": "inplace",
						"label": "uint32",
						"numberOfBytes": "4"
					},
					"t_uint8": {
						"encoding": "inplace",
						"label": "uint8",
						"numberOfBytes": "1"
					}
				}
			},
			"userdoc": {
				"events": {
					"Launch(uint256,address,uint256,uint32,uint32)": {
						"notice": "dApps using the contract can observe state changes in transaction logs"
					}
				},
				"kind": "user",
				"methods": {},
				"version": 1
			}
		}
	}
}