{
	"contracts/DeFi/CSAMM2.sol": {
		"CSAMM": {
			"abi": [
				{
					"inputs": [
						{
							"internalType": "contract IERC20",
							"name": "_token0",
							"type": "address"
						},
						{
							"internalType": "contract IERC20",
							"name": "_token1",
							"type": "address"
						}
					],
					"stateMutability": "nonpayable",
					"type": "constructor"
				},
				{
					"inputs": [
						{
							"internalType": "uint256",
							"name": "_amount0",
							"type": "uint256"
						},
						{
							"internalType": "uint256",
							"name": "_amount1",
							"type": "uint256"
						}
					],
					"name": "addLiquidity",
					"outputs": [
						{
							"internalType": "uint256",
							"name": "shares",
							"type": "uint256"
						}
					],
					"stateMutability": "nonpayable",
					"type": "function"
				},
				{
					"inputs": [
						{
							"internalType": "address",
							"name": "",
							"type": "address"
						}
					],
					"name": "balanceOf",
					"outputs": [
						{
							"internalType": "uint256",
							"name": "",
							"type": "uint256"
						}
					],
					"stateMutability": "view",
					"type": "function"
				},
				{
					"inputs": [],
					"name": "removeLiquidity",
					"outputs": [],
					"stateMutability": "nonpayable",
					"type": "function"
				},
				{
					"inputs": [],
					"name": "reserve0",
					"outputs": [
						{
							"internalType": "uint256",
							"name": "",
							"type": "uint256"
						}
					],
					"stateMutability": "view",
					"type": "function"
				},
				{
					"inputs": [],
					"name": "reserve1",
					"outputs": [
						{
							"internalType": "uint256",
							"name": "",
							"type": "uint256"
						}
					],
					"stateMutability": "view",
					"type": "function"
				},
				{
					"inputs": [
						{
							"internalType": "address",
							"name": "_tokenIn",
							"type": "address"
						},
						{
							"internalType": "uint256",
							"name": "_amountIn",
							"type": "uint256"
						}
					],
					"name": "swap",
					"outputs": [
						{
							"internalType": "uint256",
							"name": "amountOut",
							"type": "uint256"
						}
					],
					"stateMutability": "nonpayable",
					"type": "function"
				},
				{
					"inputs": [],
					"name": "token0",
					"outputs": [
						{
							"internalType": "contract IERC20",
							"name": "",
							"type": "address"
						}
					],
					"stateMutability": "view",
					"type": "function"
				},
				{
					"inputs": [],
					"name": "token1",
					"outputs": [
						{
							"internalType": "contract IERC20",
							"name": "",
							"type": "address"
						}
					],
					"stateMutability": "view",
					"type": "function"
				},
				{
					"inputs": [],
					"name": "totalSupply",
					"outputs": [
						{
							"internalType": "uint256",
							"name": "",
							"type": "uint256"
						}
					],
					"stateMutability": "view",
					"type": "function"
				}
			],
			"devdoc": {
				"kind": "dev",
				"methods": {},
				"version": 1
			},
			"evm": {
				"assembly": "    /* \"contracts/DeFi/CSAMM2.sol\":83:2771  contract CSAMM {... */\n  mstore(0x40, 0xc0)\n    /* \"contracts/DeFi/CSAMM2.sol\":351:454  constructor(IERC20 _token0, IERC20 _token1) {... */\n  callvalue\n  dup1\n  iszero\n  tag_1\n  jumpi\n  0x00\n  dup1\n  revert\ntag_1:\n  pop\n  mload(0x40)\n  sub(codesize, bytecodeSize)\n  dup1\n  bytecodeSize\n  dup4\n  codecopy\n  dup2\n  dup2\n  add\n  0x40\n  mstore\n  dup2\n  add\n  swap1\n  tag_2\n  swap2\n  swap1\n  tag_3\n  jump\t// in\ntag_2:\n    /* \"contracts/DeFi/CSAMM2.sol\":414:421  _token0 */\n  dup2\n    /* \"contracts/DeFi/CSAMM2.sol\":405:421  token0 = _token0 */\n  0xffffffffffffffffffffffffffffffffffffffff\n  and\n  0x80\n  dup2\n  0xffffffffffffffffffffffffffffffffffffffff\n  and\n  dup2\n  mstore\n  pop\n  pop\n    /* \"contracts/DeFi/CSAMM2.sol\":440:447  _token1 */\n  dup1\n    /* \"contracts/DeFi/CSAMM2.sol\":431:447  token1 = _token1 */\n  0xffffffffffffffffffffffffffffffffffffffff\n  and\n  0xa0\n  dup2\n  0xffffffffffffffffffffffffffffffffffffffff\n  and\n  dup2\n  mstore\n  pop\n  pop\n    /* \"contracts/DeFi/CSAMM2.sol\":351:454  constructor(IERC20 _token0, IERC20 _token1) {... */\n  pop\n  pop\n    /* \"contracts/DeFi/CSAMM2.sol\":83:2771  contract CSAMM {... */\n  jump(tag_6)\n    /* \"#utility.yul\":88:205   */\ntag_8:\n    /* \"#utility.yul\":197:198   */\n  0x00\n    /* \"#utility.yul\":194:195   */\n  dup1\n    /* \"#utility.yul\":187:199   */\n  revert\n    /* \"#utility.yul\":334:460   */\ntag_10:\n    /* \"#utility.yul\":371:378   */\n  0x00\n    /* \"#utility.yul\":411:453   */\n  0xffffffffffffffffffffffffffffffffffffffff\n    /* \"#utility.yul\":404:409   */\n  dup3\n    /* \"#utility.yul\":400:454   */\n  and\n    /* \"#utility.yul\":389:454   */\n  swap1\n  pop\n    /* \"#utility.yul\":334:460   */\n  swap2\n  swap1\n  pop\n  jump\t// out\n    /* \"#utility.yul\":466:562   */\ntag_11:\n    /* \"#utility.yul\":503:510   */\n  0x00\n    /* \"#utility.yul\":532:556   */\n  tag_21\n    /* \"#utility.yul\":550:555   */\n  dup3\n    /* \"#utility.yul\":532:556   */\n  tag_10\n  jump\t// in\ntag_21:\n    /* \"#utility.yul\":521:556   */\n  swap1\n  pop\n    /* \"#utility.yul\":466:562   */\n  swap2\n  swap1\n  pop\n  jump\t// out\n    /* \"#utility.yul\":568:678   */\ntag_12:\n    /* \"#utility.yul\":619:626   */\n  0x00\n    /* \"#utility.yul\":648:672   */\n  tag_23\n    /* \"#utility.yul\":666:671   */\n  dup3\n    /* \"#utility.yul\":648:672   */\n  tag_11\n  jump\t// in\ntag_23:\n    /* \"#utility.yul\":637:672   */\n  swap1\n  pop\n    /* \"#utility.yul\":568:678   */\n  swap2\n  swap1\n  pop\n  jump\t// out\n    /* \"#utility.yul\":684:834   */\ntag_13:\n    /* \"#utility.yul\":771:809   */\n  tag_25\n    /* \"#utility.yul\":803:808   */\n  dup2\n    /* \"#utility.yul\":771:809   */\n  tag_12\n  jump\t// in\ntag_25:\n    /* \"#utility.yul\":764:769   */\n  dup2\n    /* \"#utility.yul\":761:810   */\n  eq\n    /* \"#utility.yul\":751:828   */\n  tag_26\n  jumpi\n    /* \"#utility.yul\":824:825   */\n  0x00\n    /* \"#utility.yul\":821:822   */\n  dup1\n    /* \"#utility.yul\":814:826   */\n  revert\n    /* \"#utility.yul\":751:828   */\ntag_26:\n    /* \"#utility.yul\":684:834   */\n  pop\n  jump\t// out\n    /* \"#utility.yul\":840:1011   */\ntag_14:\n    /* \"#utility.yul\":911:916   */\n  0x00\n    /* \"#utility.yul\":942:948   */\n  dup2\n    /* \"#utility.yul\":936:949   */\n  mload\n    /* \"#utility.yul\":927:949   */\n  swap1\n  pop\n    /* \"#utility.yul\":958:1005   */\n  tag_28\n    /* \"#utility.yul\":999:1004   */\n  dup2\n    /* \"#utility.yul\":958:1005   */\n  tag_13\n  jump\t// in\ntag_28:\n    /* \"#utility.yul\":840:1011   */\n  swap3\n  swap2\n  pop\n  pop\n  jump\t// out\n    /* \"#utility.yul\":1017:1580   */\ntag_3:\n    /* \"#utility.yul\":1124:1130   */\n  0x00\n    /* \"#utility.yul\":1132:1138   */\n  dup1\n    /* \"#utility.yul\":1181:1183   */\n  0x40\n    /* \"#utility.yul\":1169:1178   */\n  dup4\n    /* \"#utility.yul\":1160:1167   */\n  dup6\n    /* \"#utility.yul\":1156:1179   */\n  sub\n    /* \"#utility.yul\":1152:1184   */\n  slt\n    /* \"#utility.yul\":1149:1268   */\n  iszero\n  tag_30\n  jumpi\n    /* \"#utility.yul\":1187:1266   */\n  tag_31\n  tag_8\n  jump\t// in\ntag_31:\n    /* \"#utility.yul\":1149:1268   */\ntag_30:\n    /* \"#utility.yul\":1307:1308   */\n  0x00\n    /* \"#utility.yul\":1332:1410   */\n  tag_32\n    /* \"#utility.yul\":1402:1409   */\n  dup6\n    /* \"#utility.yul\":1393:1399   */\n  dup3\n    /* \"#utility.yul\":1382:1391   */\n  dup7\n    /* \"#utility.yul\":1378:1400   */\n  add\n    /* \"#utility.yul\":1332:1410   */\n  tag_14\n  jump\t// in\ntag_32:\n    /* \"#utility.yul\":1322:1410   */\n  swap3\n  pop\n    /* \"#utility.yul\":1278:1420   */\n  pop\n    /* \"#utility.yul\":1459:1461   */\n  0x20\n    /* \"#utility.yul\":1485:1563   */\n  tag_33\n    /* \"#utility.yul\":1555:1562   */\n  dup6\n    /* \"#utility.yul\":1546:1552   */\n  dup3\n    /* \"#utility.yul\":1535:1544   */\n  dup7\n    /* \"#utility.yul\":1531:1553   */\n  add\n    /* \"#utility.yul\":1485:1563   */\n  tag_14\n  jump\t// in\ntag_33:\n    /* \"#utility.yul\":1475:1563   */\n  swap2\n  pop\n    /* \"#utility.yul\":1430:1573   */\n  pop\n    /* \"#utility.yul\":1017:1580   */\n  swap3\n  pop\n  swap3\n  swap1\n  pop\n  jump\t// out\n    /* \"contracts/DeFi/CSAMM2.sol\":83:2771  contract CSAMM {... */\ntag_6:\n  mload(0x80)\n  mload(0xa0)\n  codecopy(0x00, dataOffset(sub_0), dataSize(sub_0))\n  0x00\n  assignImmutable(\"0xe4b1702d9298fee62dfeccc57d322a463ad55ca201256d01f62b45b2e1c21c10\")\n  0x00\n  assignImmutable(\"0xceebf77a833b30520287ddd9478ff51abbdffa30aa90a8d655dba0e8a79ce0c1\")\n  return(0x00, dataSize(sub_0))\nstop\n\nsub_0: assembly {\n        /* \"contracts/DeFi/CSAMM2.sol\":83:2771  contract CSAMM {... */\n      mstore(0x40, 0x80)\n      callvalue\n      dup1\n      iszero\n      tag_1\n      jumpi\n      0x00\n      dup1\n      revert\n    tag_1:\n      pop\n      jumpi(tag_2, lt(calldatasize, 0x04))\n      shr(0xe0, calldataload(0x00))\n      dup1\n      0x67b9a286\n      gt\n      tag_12\n      jumpi\n      dup1\n      0x67b9a286\n      eq\n      tag_7\n      jumpi\n      dup1\n      0x70a08231\n      eq\n      tag_8\n      jumpi\n      dup1\n      0x9cd441da\n      eq\n      tag_9\n      jumpi\n      dup1\n      0xd004f0f7\n      eq\n      tag_10\n      jumpi\n      dup1\n      0xd21220a7\n      eq\n      tag_11\n      jumpi\n      jump(tag_2)\n    tag_12:\n      dup1\n      0x0dfe1681\n      eq\n      tag_3\n      jumpi\n      dup1\n      0x18160ddd\n      eq\n      tag_4\n      jumpi\n      dup1\n      0x443cb4bc\n      eq\n      tag_5\n      jumpi\n      dup1\n      0x5a76f25e\n      eq\n      tag_6\n      jumpi\n    tag_2:\n      0x00\n      dup1\n      revert\n        /* \"contracts/DeFi/CSAMM2.sol\":104:134  IERC20 public immutable token0 */\n    tag_3:\n      tag_13\n      tag_14\n      jump\t// in\n    tag_13:\n      mload(0x40)\n      tag_15\n      swap2\n      swap1\n      tag_16\n      jump\t// in\n    tag_15:\n      mload(0x40)\n      dup1\n      swap2\n      sub\n      swap1\n      return\n        /* \"contracts/DeFi/CSAMM2.sol\":258:281  uint public totalSupply */\n    tag_4:\n      tag_17\n      tag_18\n      jump\t// in\n    tag_17:\n      mload(0x40)\n      tag_19\n      swap2\n      swap1\n      tag_20\n      jump\t// in\n    tag_19:\n      mload(0x40)\n      dup1\n      swap2\n      sub\n      swap1\n      return\n        /* \"contracts/DeFi/CSAMM2.sol\":177:197  uint public reserve0 */\n    tag_5:\n      tag_21\n      tag_22\n      jump\t// in\n    tag_21:\n      mload(0x40)\n      tag_23\n      swap2\n      swap1\n      tag_20\n      jump\t// in\n    tag_23:\n      mload(0x40)\n      dup1\n      swap2\n      sub\n      swap1\n      return\n        /* \"contracts/DeFi/CSAMM2.sol\":217:237  uint public reserve1 */\n    tag_6:\n      tag_24\n      tag_25\n      jump\t// in\n    tag_24:\n      mload(0x40)\n      tag_26\n      swap2\n      swap1\n      tag_20\n      jump\t// in\n    tag_26:\n      mload(0x40)\n      dup1\n      swap2\n      sub\n      swap1\n      return\n        /* \"contracts/DeFi/CSAMM2.sol\":2731:2769  function removeLiquidity() external {} */\n    tag_7:\n      tag_27\n      tag_28\n      jump\t// in\n    tag_27:\n      stop\n        /* \"contracts/DeFi/CSAMM2.sol\":303:344  mapping(address => uint) public balanceOf */\n    tag_8:\n      tag_29\n      0x04\n      dup1\n      calldatasize\n      sub\n      dup2\n      add\n      swap1\n      tag_30\n      swap2\n      swap1\n      tag_31\n      jump\t// in\n    tag_30:\n      tag_32\n      jump\t// in\n    tag_29:\n      mload(0x40)\n      tag_33\n      swap2\n      swap1\n      tag_20\n      jump\t// in\n    tag_33:\n      mload(0x40)\n      dup1\n      swap2\n      sub\n      swap1\n      return\n        /* \"contracts/DeFi/CSAMM2.sol\":1834:2726  function addLiquidity(uint _amount0, uint _amount1) external returns (uint shares) {... */\n    tag_9:\n      tag_34\n      0x04\n      dup1\n      calldatasize\n      sub\n      dup2\n      add\n      swap1\n      tag_35\n      swap2\n      swap1\n      tag_36\n      jump\t// in\n    tag_35:\n      tag_37\n      jump\t// in\n    tag_34:\n      mload(0x40)\n      tag_38\n      swap2\n      swap1\n      tag_20\n      jump\t// in\n    tag_38:\n      mload(0x40)\n      dup1\n      swap2\n      sub\n      swap1\n      return\n        /* \"contracts/DeFi/CSAMM2.sol\":839:1829  function swap(address _tokenIn, uint _amountIn) external returns (uint amountOut) {... */\n    tag_10:\n      tag_39\n      0x04\n      dup1\n      calldatasize\n      sub\n      dup2\n      add\n      swap1\n      tag_40\n      swap2\n      swap1\n      tag_41\n      jump\t// in\n    tag_40:\n      tag_42\n      jump\t// in\n    tag_39:\n      mload(0x40)\n      tag_43\n      swap2\n      swap1\n      tag_20\n      jump\t// in\n    tag_43:\n      mload(0x40)\n      dup1\n      swap2\n      sub\n      swap1\n      return\n        /* \"contracts/DeFi/CSAMM2.sol\":140:170  IERC20 public immutable token1 */\n    tag_11:\n      tag_44\n      tag_45\n      jump\t// in\n    tag_44:\n      mload(0x40)\n      tag_46\n      swap2\n      swap1\n      tag_16\n      jump\t// in\n    tag_46:\n      mload(0x40)\n      dup1\n      swap2\n      sub\n      swap1\n      return\n        /* \"contracts/DeFi/CSAMM2.sol\":104:134  IERC20 public immutable token0 */\n    tag_14:\n      immutable(\"0xceebf77a833b30520287ddd9478ff51abbdffa30aa90a8d655dba0e8a79ce0c1\")\n      dup2\n      jump\t// out\n        /* \"contracts/DeFi/CSAMM2.sol\":258:281  uint public totalSupply */\n    tag_18:\n      sload(0x02)\n      dup2\n      jump\t// out\n        /* \"contracts/DeFi/CSAMM2.sol\":177:197  uint public reserve0 */\n    tag_22:\n      sload(0x00)\n      dup2\n      jump\t// out\n        /* \"contracts/DeFi/CSAMM2.sol\":217:237  uint public reserve1 */\n    tag_25:\n      sload(0x01)\n      dup2\n      jump\t// out\n        /* \"contracts/DeFi/CSAMM2.sol\":2731:2769  function removeLiquidity() external {} */\n    tag_28:\n      jump\t// out\n        /* \"contracts/DeFi/CSAMM2.sol\":303:344  mapping(address => uint) public balanceOf */\n    tag_32:\n      mstore(0x20, 0x03)\n      dup1\n      0x00\n      mstore\n      keccak256(0x00, 0x40)\n      0x00\n      swap2\n      pop\n      swap1\n      pop\n      sload\n      dup2\n      jump\t// out\n        /* \"contracts/DeFi/CSAMM2.sol\":1834:2726  function addLiquidity(uint _amount0, uint _amount1) external returns (uint shares) {... */\n    tag_37:\n        /* \"contracts/DeFi/CSAMM2.sol\":1904:1915  uint shares */\n      0x00\n        /* \"contracts/DeFi/CSAMM2.sol\":1927:1933  token0 */\n      immutable(\"0xceebf77a833b30520287ddd9478ff51abbdffa30aa90a8d655dba0e8a79ce0c1\")\n        /* \"contracts/DeFi/CSAMM2.sol\":1927:1946  token0.transferFrom */\n      0xffffffffffffffffffffffffffffffffffffffff\n      and\n      0x23b872dd\n        /* \"contracts/DeFi/CSAMM2.sol\":1947:1957  msg.sender */\n      caller\n        /* \"contracts/DeFi/CSAMM2.sol\":1967:1971  this */\n      address\n        /* \"contracts/DeFi/CSAMM2.sol\":1974:1982  _amount0 */\n      dup7\n        /* \"contracts/DeFi/CSAMM2.sol\":1927:1983  token0.transferFrom(msg.sender, address(this), _amount0) */\n      mload(0x40)\n      dup5\n      0xffffffff\n      and\n      0xe0\n      shl\n      dup2\n      mstore\n      0x04\n      add\n      tag_49\n      swap4\n      swap3\n      swap2\n      swap1\n      tag_50\n      jump\t// in\n    tag_49:\n      0x20\n      mload(0x40)\n      dup1\n      dup4\n      sub\n      dup2\n      0x00\n      dup8\n      gas\n      call\n      iszero\n      dup1\n      iszero\n      tag_52\n      jumpi\n      returndatasize\n      0x00\n      dup1\n      returndatacopy\n      revert(0x00, returndatasize)\n    tag_52:\n      pop\n      pop\n      pop\n      pop\n      mload(0x40)\n      returndatasize\n      not(0x1f)\n      0x1f\n      dup3\n      add\n      and\n      dup3\n      add\n      dup1\n      0x40\n      mstore\n      pop\n      dup2\n      add\n      swap1\n      tag_53\n      swap2\n      swap1\n      tag_54\n      jump\t// in\n    tag_53:\n      pop\n        /* \"contracts/DeFi/CSAMM2.sol\":1993:1999  token1 */\n      immutable(\"0xe4b1702d9298fee62dfeccc57d322a463ad55ca201256d01f62b45b2e1c21c10\")\n        /* \"contracts/DeFi/CSAMM2.sol\":1993:2012  token1.transferFrom */\n      0xffffffffffffffffffffffffffffffffffffffff\n      and\n      0x23b872dd\n        /* \"contracts/DeFi/CSAMM2.sol\":2013:2023  msg.sender */\n      caller\n        /* \"contracts/DeFi/CSAMM2.sol\":2033:2037  this */\n      address\n        /* \"contracts/DeFi/CSAMM2.sol\":2040:2048  _amount1 */\n      dup6\n        /* \"contracts/DeFi/CSAMM2.sol\":1993:2049  token1.transferFrom(msg.sender, address(this), _amount1) */\n      mload(0x40)\n      dup5\n      0xffffffff\n      and\n      0xe0\n      shl\n      dup2\n      mstore\n      0x04\n      add\n      tag_55\n      swap4\n      swap3\n      swap2\n      swap1\n      tag_50\n      jump\t// in\n    tag_55:\n      0x20\n      mload(0x40)\n      dup1\n      dup4\n      sub\n      dup2\n      0x00\n      dup8\n      gas\n      call\n      iszero\n      dup1\n      iszero\n      tag_57\n      jumpi\n      returndatasize\n      0x00\n      dup1\n      returndatacopy\n      revert(0x00, returndatasize)\n    tag_57:\n      pop\n      pop\n      pop\n      pop\n      mload(0x40)\n      returndatasize\n      not(0x1f)\n      0x1f\n      dup3\n      add\n      and\n      dup3\n      add\n      dup1\n      0x40\n      mstore\n      pop\n      dup2\n      add\n      swap1\n      tag_58\n      swap2\n      swap1\n      tag_54\n      jump\t// in\n    tag_58:\n      pop\n        /* \"contracts/DeFi/CSAMM2.sol\":2060:2069  uint bal0 */\n      0x00\n        /* \"contracts/DeFi/CSAMM2.sol\":2072:2078  token0 */\n      immutable(\"0xceebf77a833b30520287ddd9478ff51abbdffa30aa90a8d655dba0e8a79ce0c1\")\n        /* \"contracts/DeFi/CSAMM2.sol\":2072:2088  token0.balanceOf */\n      0xffffffffffffffffffffffffffffffffffffffff\n      and\n      0x70a08231\n        /* \"contracts/DeFi/CSAMM2.sol\":2097:2101  this */\n      address\n        /* \"contracts/DeFi/CSAMM2.sol\":2072:2103  token0.balanceOf(address(this)) */\n      mload(0x40)\n      dup3\n      0xffffffff\n      and\n      0xe0\n      shl\n      dup2\n      mstore\n      0x04\n      add\n      tag_59\n      swap2\n      swap1\n      tag_60\n      jump\t// in\n    tag_59:\n      0x20\n      mload(0x40)\n      dup1\n      dup4\n      sub\n      dup2\n      dup7\n      gas\n      staticcall\n      iszero\n      dup1\n      iszero\n      tag_62\n      jumpi\n      returndatasize\n      0x00\n      dup1\n      returndatacopy\n      revert(0x00, returndatasize)\n    tag_62:\n      pop\n      pop\n      pop\n      pop\n      mload(0x40)\n      returndatasize\n      not(0x1f)\n      0x1f\n      dup3\n      add\n      and\n      dup3\n      add\n      dup1\n      0x40\n      mstore\n      pop\n      dup2\n      add\n      swap1\n      tag_63\n      swap2\n      swap1\n      tag_64\n      jump\t// in\n    tag_63:\n        /* \"contracts/DeFi/CSAMM2.sol\":2060:2103  uint bal0 = token0.balanceOf(address(this)) */\n      swap1\n      pop\n        /* \"contracts/DeFi/CSAMM2.sol\":2113:2122  uint bal1 */\n      0x00\n        /* \"contracts/DeFi/CSAMM2.sol\":2125:2131  token1 */\n      immutable(\"0xe4b1702d9298fee62dfeccc57d322a463ad55ca201256d01f62b45b2e1c21c10\")\n        /* \"contracts/DeFi/CSAMM2.sol\":2125:2141  token1.balanceOf */\n      0xffffffffffffffffffffffffffffffffffffffff\n      and\n      0x70a08231\n        /* \"contracts/DeFi/CSAMM2.sol\":2150:2154  this */\n      address\n        /* \"contracts/DeFi/CSAMM2.sol\":2125:2156  token1.balanceOf(address(this)) */\n      mload(0x40)\n      dup3\n      0xffffffff\n      and\n      0xe0\n      shl\n      dup2\n      mstore\n      0x04\n      add\n      tag_65\n      swap2\n      swap1\n      tag_60\n      jump\t// in\n    tag_65:\n      0x20\n      mload(0x40)\n      dup1\n      dup4\n      sub\n      dup2\n      dup7\n      gas\n      staticcall\n      iszero\n      dup1\n      iszero\n      tag_67\n      jumpi\n      returndatasize\n      0x00\n      dup1\n      returndatacopy\n      revert(0x00, returndatasize)\n    tag_67:\n      pop\n      pop\n      pop\n      pop\n      mload(0x40)\n      returndatasize\n      not(0x1f)\n      0x1f\n      dup3\n      add\n      and\n      dup3\n      add\n      dup1\n      0x40\n      mstore\n      pop\n      dup2\n      add\n      swap1\n      tag_68\n      swap2\n      swap1\n      tag_64\n      jump\t// in\n    tag_68:\n        /* \"contracts/DeFi/CSAMM2.sol\":2113:2156  uint bal1 = token1.balanceOf(address(this)) */\n      swap1\n      pop\n        /* \"contracts/DeFi/CSAMM2.sol\":2205:2212  uint d0 */\n      0x00\n        /* \"contracts/DeFi/CSAMM2.sol\":2222:2230  reserve0 */\n      dup1\n      sload\n        /* \"contracts/DeFi/CSAMM2.sol\":2215:2219  bal0 */\n      dup4\n        /* \"contracts/DeFi/CSAMM2.sol\":2215:2230  bal0 - reserve0 */\n      tag_69\n      swap2\n      swap1\n      tag_70\n      jump\t// in\n    tag_69:\n        /* \"contracts/DeFi/CSAMM2.sol\":2205:2230  uint d0 = bal0 - reserve0 */\n      swap1\n      pop\n        /* \"contracts/DeFi/CSAMM2.sol\":2240:2247  uint d1 */\n      0x00\n        /* \"contracts/DeFi/CSAMM2.sol\":2257:2265  reserve1 */\n      sload(0x01)\n        /* \"contracts/DeFi/CSAMM2.sol\":2250:2254  bal1 */\n      dup4\n        /* \"contracts/DeFi/CSAMM2.sol\":2250:2265  bal1 - reserve1 */\n      tag_71\n      swap2\n      swap1\n      tag_70\n      jump\t// in\n    tag_71:\n        /* \"contracts/DeFi/CSAMM2.sol\":2240:2265  uint d1 = bal1 - reserve1 */\n      swap1\n      pop\n        /* \"contracts/DeFi/CSAMM2.sol\":2478:2479  0 */\n      0x00\n        /* \"contracts/DeFi/CSAMM2.sol\":2463:2474  totalSupply */\n      sload(0x02)\n        /* \"contracts/DeFi/CSAMM2.sol\":2463:2479  totalSupply == 0 */\n      sub\n        /* \"contracts/DeFi/CSAMM2.sol\":2459:2611  if (totalSupply == 0) {... */\n      tag_72\n      jumpi\n        /* \"contracts/DeFi/CSAMM2.sol\":2509:2511  d1 */\n      dup1\n        /* \"contracts/DeFi/CSAMM2.sol\":2504:2506  d0 */\n      dup3\n        /* \"contracts/DeFi/CSAMM2.sol\":2504:2511  d0 + d1 */\n      tag_73\n      swap2\n      swap1\n      tag_74\n      jump\t// in\n    tag_73:\n        /* \"contracts/DeFi/CSAMM2.sol\":2495:2511  shares = d0 + d1 */\n      swap5\n      pop\n        /* \"contracts/DeFi/CSAMM2.sol\":2459:2611  if (totalSupply == 0) {... */\n      jump(tag_75)\n    tag_72:\n        /* \"contracts/DeFi/CSAMM2.sol\":2591:2599  reserve1 */\n      sload(0x01)\n        /* \"contracts/DeFi/CSAMM2.sol\":2580:2588  reserve0 */\n      sload(0x00)\n        /* \"contracts/DeFi/CSAMM2.sol\":2580:2599  reserve0 + reserve1 */\n      tag_76\n      swap2\n      swap1\n      tag_74\n      jump\t// in\n    tag_76:\n        /* \"contracts/DeFi/CSAMM2.sol\":2564:2575  totalSupply */\n      sload(0x02)\n        /* \"contracts/DeFi/CSAMM2.sol\":2558:2560  d1 */\n      dup3\n        /* \"contracts/DeFi/CSAMM2.sol\":2553:2555  d0 */\n      dup5\n        /* \"contracts/DeFi/CSAMM2.sol\":2553:2560  d0 + d1 */\n      tag_77\n      swap2\n      swap1\n      tag_74\n      jump\t// in\n    tag_77:\n        /* \"contracts/DeFi/CSAMM2.sol\":2552:2575  (d0 + d1) * totalSupply */\n      tag_78\n      swap2\n      swap1\n      tag_79\n      jump\t// in\n    tag_78:\n        /* \"contracts/DeFi/CSAMM2.sol\":2551:2600  ((d0 + d1) * totalSupply) / (reserve0 + reserve1) */\n      tag_80\n      swap2\n      swap1\n      tag_81\n      jump\t// in\n    tag_80:\n        /* \"contracts/DeFi/CSAMM2.sol\":2542:2600  shares = ((d0 + d1) * totalSupply) / (reserve0 + reserve1) */\n      swap5\n      pop\n        /* \"contracts/DeFi/CSAMM2.sol\":2459:2611  if (totalSupply == 0) {... */\n    tag_75:\n        /* \"contracts/DeFi/CSAMM2.sol\":2638:2639  0 */\n      0x00\n        /* \"contracts/DeFi/CSAMM2.sol\":2629:2635  shares */\n      dup6\n        /* \"contracts/DeFi/CSAMM2.sol\":2629:2639  shares > 0 */\n      gt\n        /* \"contracts/DeFi/CSAMM2.sol\":2621:2654  require(shares > 0, \"shares = 0\") */\n      tag_82\n      jumpi\n      mload(0x40)\n      0x08c379a000000000000000000000000000000000000000000000000000000000\n      dup2\n      mstore\n      0x04\n      add\n      tag_83\n      swap1\n      tag_84\n      jump\t// in\n    tag_83:\n      mload(0x40)\n      dup1\n      swap2\n      sub\n      swap1\n      revert\n    tag_82:\n        /* \"contracts/DeFi/CSAMM2.sol\":2664:2689  _mint(msg.sender, shares) */\n      tag_85\n        /* \"contracts/DeFi/CSAMM2.sol\":2670:2680  msg.sender */\n      caller\n        /* \"contracts/DeFi/CSAMM2.sol\":2682:2688  shares */\n      dup7\n        /* \"contracts/DeFi/CSAMM2.sol\":2664:2669  _mint */\n      tag_86\n        /* \"contracts/DeFi/CSAMM2.sol\":2664:2689  _mint(msg.sender, shares) */\n      jump\t// in\n    tag_85:\n        /* \"contracts/DeFi/CSAMM2.sol\":2700:2719  _update(bal0, bal1) */\n      tag_87\n        /* \"contracts/DeFi/CSAMM2.sol\":2708:2712  bal0 */\n      dup5\n        /* \"contracts/DeFi/CSAMM2.sol\":2714:2718  bal1 */\n      dup5\n        /* \"contracts/DeFi/CSAMM2.sol\":2700:2707  _update */\n      tag_88\n        /* \"contracts/DeFi/CSAMM2.sol\":2700:2719  _update(bal0, bal1) */\n      jump\t// in\n    tag_87:\n        /* \"contracts/DeFi/CSAMM2.sol\":1917:2726  {... */\n      pop\n      pop\n      pop\n      pop\n        /* \"contracts/DeFi/CSAMM2.sol\":1834:2726  function addLiquidity(uint _amount0, uint _amount1) external returns (uint shares) {... */\n      swap3\n      swap2\n      pop\n      pop\n      jump\t// out\n        /* \"contracts/DeFi/CSAMM2.sol\":839:1829  function swap(address _tokenIn, uint _amountIn) external returns (uint amountOut) {... */\n    tag_42:\n        /* \"contracts/DeFi/CSAMM2.sol\":905:919  uint amountOut */\n      0x00\n        /* \"contracts/DeFi/CSAMM2.sol\":959:965  token0 */\n      immutable(\"0xceebf77a833b30520287ddd9478ff51abbdffa30aa90a8d655dba0e8a79ce0c1\")\n        /* \"contracts/DeFi/CSAMM2.sol\":939:966  _tokenIn == address(token0) */\n      0xffffffffffffffffffffffffffffffffffffffff\n      and\n        /* \"contracts/DeFi/CSAMM2.sol\":939:947  _tokenIn */\n      dup4\n        /* \"contracts/DeFi/CSAMM2.sol\":939:966  _tokenIn == address(token0) */\n      0xffffffffffffffffffffffffffffffffffffffff\n      and\n      eq\n        /* \"contracts/DeFi/CSAMM2.sol\":939:997  _tokenIn == address(token0) || _tokenIn == address(token1) */\n      dup1\n      tag_90\n      jumpi\n      pop\n        /* \"contracts/DeFi/CSAMM2.sol\":990:996  token1 */\n      immutable(\"0xe4b1702d9298fee62dfeccc57d322a463ad55ca201256d01f62b45b2e1c21c10\")\n        /* \"contracts/DeFi/CSAMM2.sol\":970:997  _tokenIn == address(token1) */\n      0xffffffffffffffffffffffffffffffffffffffff\n      and\n        /* \"contracts/DeFi/CSAMM2.sol\":970:978  _tokenIn */\n      dup4\n        /* \"contracts/DeFi/CSAMM2.sol\":970:997  _tokenIn == address(token1) */\n      0xffffffffffffffffffffffffffffffffffffffff\n      and\n      eq\n        /* \"contracts/DeFi/CSAMM2.sol\":939:997  _tokenIn == address(token0) || _tokenIn == address(token1) */\n    tag_90:\n        /* \"contracts/DeFi/CSAMM2.sol\":931:1015  require(_tokenIn == address(token0) || _tokenIn == address(token1), \"invalid token\") */\n      tag_91\n      jumpi\n      mload(0x40)\n      0x08c379a000000000000000000000000000000000000000000000000000000000\n      dup2\n      mstore\n      0x04\n      add\n      tag_92\n      swap1\n      tag_93\n      jump\t// in\n    tag_92:\n      mload(0x40)\n      dup1\n      swap2\n      sub\n      swap1\n      revert\n    tag_91:\n        /* \"contracts/DeFi/CSAMM2.sol\":1026:1039  bool isToken0 */\n      0x00\n        /* \"contracts/DeFi/CSAMM2.sol\":1062:1068  token0 */\n      immutable(\"0xceebf77a833b30520287ddd9478ff51abbdffa30aa90a8d655dba0e8a79ce0c1\")\n        /* \"contracts/DeFi/CSAMM2.sol\":1042:1069  _tokenIn == address(token0) */\n      0xffffffffffffffffffffffffffffffffffffffff\n      and\n        /* \"contracts/DeFi/CSAMM2.sol\":1042:1050  _tokenIn */\n      dup5\n        /* \"contracts/DeFi/CSAMM2.sol\":1042:1069  _tokenIn == address(token0) */\n      0xffffffffffffffffffffffffffffffffffffffff\n      and\n      eq\n        /* \"contracts/DeFi/CSAMM2.sol\":1026:1069  bool isToken0 = _tokenIn == address(token0) */\n      swap1\n      pop\n        /* \"contracts/DeFi/CSAMM2.sol\":1081:1095  IERC20 tokenIn */\n      0x00\n        /* \"contracts/DeFi/CSAMM2.sol\":1097:1112  IERC20 tokenOut */\n      dup1\n        /* \"contracts/DeFi/CSAMM2.sol\":1114:1124  uint resIn */\n      0x00\n        /* \"contracts/DeFi/CSAMM2.sol\":1126:1137  uint resOut */\n      dup1\n        /* \"contracts/DeFi/CSAMM2.sol\":1141:1149  isToken0 */\n      dup5\n        /* \"contracts/DeFi/CSAMM2.sol\":1141:1236  isToken0 ? ... */\n      tag_94\n      jumpi\n        /* \"contracts/DeFi/CSAMM2.sol\":1201:1207  token1 */\n      immutable(\"0xe4b1702d9298fee62dfeccc57d322a463ad55ca201256d01f62b45b2e1c21c10\")\n        /* \"contracts/DeFi/CSAMM2.sol\":1209:1215  token0 */\n      immutable(\"0xceebf77a833b30520287ddd9478ff51abbdffa30aa90a8d655dba0e8a79ce0c1\")\n        /* \"contracts/DeFi/CSAMM2.sol\":1217:1225  reserve1 */\n      sload(0x01)\n        /* \"contracts/DeFi/CSAMM2.sol\":1227:1235  reserve0 */\n      sload(0x00)\n        /* \"contracts/DeFi/CSAMM2.sol\":1141:1236  isToken0 ? ... */\n      jump(tag_95)\n    tag_94:\n        /* \"contracts/DeFi/CSAMM2.sol\":1162:1168  token0 */\n      immutable(\"0xceebf77a833b30520287ddd9478ff51abbdffa30aa90a8d655dba0e8a79ce0c1\")\n        /* \"contracts/DeFi/CSAMM2.sol\":1170:1176  token1 */\n      immutable(\"0xe4b1702d9298fee62dfeccc57d322a463ad55ca201256d01f62b45b2e1c21c10\")\n        /* \"contracts/DeFi/CSAMM2.sol\":1178:1186  reserve0 */\n      sload(0x00)\n        /* \"contracts/DeFi/CSAMM2.sol\":1188:1196  reserve1 */\n      sload(0x01)\n        /* \"contracts/DeFi/CSAMM2.sol\":1141:1236  isToken0 ? ... */\n    tag_95:\n        /* \"contracts/DeFi/CSAMM2.sol\":1080:1236  (IERC20 tokenIn, IERC20 tokenOut, uint resIn, uint resOut) = isToken0 ? ... */\n      swap4\n      pop\n      swap4\n      pop\n      swap4\n      pop\n      swap4\n      pop\n        /* \"contracts/DeFi/CSAMM2.sol\":1277:1284  tokenIn */\n      dup4\n        /* \"contracts/DeFi/CSAMM2.sol\":1277:1297  tokenIn.transferFrom */\n      0xffffffffffffffffffffffffffffffffffffffff\n      and\n      0x23b872dd\n        /* \"contracts/DeFi/CSAMM2.sol\":1298:1308  msg.sender */\n      caller\n        /* \"contracts/DeFi/CSAMM2.sol\":1318:1322  this */\n      address\n        /* \"contracts/DeFi/CSAMM2.sol\":1325:1334  _amountIn */\n      dup11\n        /* \"contracts/DeFi/CSAMM2.sol\":1277:1335  tokenIn.transferFrom(msg.sender, address(this), _amountIn) */\n      mload(0x40)\n      dup5\n      0xffffffff\n      and\n      0xe0\n      shl\n      dup2\n      mstore\n      0x04\n      add\n      tag_96\n      swap4\n      swap3\n      swap2\n      swap1\n      tag_50\n      jump\t// in\n    tag_96:\n      0x20\n      mload(0x40)\n      dup1\n      dup4\n      sub\n      dup2\n      0x00\n      dup8\n      gas\n      call\n      iszero\n      dup1\n      iszero\n      tag_98\n      jumpi\n      returndatasize\n      0x00\n      dup1\n      returndatacopy\n      revert(0x00, returndatasize)\n    tag_98:\n      pop\n      pop\n      pop\n      pop\n      mload(0x40)\n      returndatasize\n      not(0x1f)\n      0x1f\n      dup3\n      add\n      and\n      dup3\n      add\n      dup1\n      0x40\n      mstore\n      pop\n      dup2\n      add\n      swap1\n      tag_99\n      swap2\n      swap1\n      tag_54\n      jump\t// in\n    tag_99:\n      pop\n        /* \"contracts/DeFi/CSAMM2.sol\":1345:1358  uint amountIn */\n      0x00\n        /* \"contracts/DeFi/CSAMM2.sol\":1395:1400  resIn */\n      dup3\n        /* \"contracts/DeFi/CSAMM2.sol\":1361:1367  token0 */\n      immutable(\"0xceebf77a833b30520287ddd9478ff51abbdffa30aa90a8d655dba0e8a79ce0c1\")\n        /* \"contracts/DeFi/CSAMM2.sol\":1361:1377  token0.balanceOf */\n      0xffffffffffffffffffffffffffffffffffffffff\n      and\n      0x70a08231\n        /* \"contracts/DeFi/CSAMM2.sol\":1386:1390  this */\n      address\n        /* \"contracts/DeFi/CSAMM2.sol\":1361:1392  token0.balanceOf(address(this)) */\n      mload(0x40)\n      dup3\n      0xffffffff\n      and\n      0xe0\n      shl\n      dup2\n      mstore\n      0x04\n      add\n      tag_100\n      swap2\n      swap1\n      tag_60\n      jump\t// in\n    tag_100:\n      0x20\n      mload(0x40)\n      dup1\n      dup4\n      sub\n      dup2\n      dup7\n      gas\n      staticcall\n      iszero\n      dup1\n      iszero\n      tag_102\n      jumpi\n      returndatasize\n      0x00\n      dup1\n      returndatacopy\n      revert(0x00, returndatasize)\n    tag_102:\n      pop\n      pop\n      pop\n      pop\n      mload(0x40)\n      returndatasize\n      not(0x1f)\n      0x1f\n      dup3\n      add\n      and\n      dup3\n      add\n      dup1\n      0x40\n      mstore\n      pop\n      dup2\n      add\n      swap1\n      tag_103\n      swap2\n      swap1\n      tag_64\n      jump\t// in\n    tag_103:\n        /* \"contracts/DeFi/CSAMM2.sol\":1361:1400  token0.balanceOf(address(this)) - resIn */\n      tag_104\n      swap2\n      swap1\n      tag_70\n      jump\t// in\n    tag_104:\n        /* \"contracts/DeFi/CSAMM2.sol\":1345:1400  uint amountIn = token0.balanceOf(address(this)) - resIn */\n      swap1\n      pop\n        /* \"contracts/DeFi/CSAMM2.sol\":1531:1535  1000 */\n      0x03e8\n        /* \"contracts/DeFi/CSAMM2.sol\":1524:1527  997 */\n      0x03e5\n        /* \"contracts/DeFi/CSAMM2.sol\":1513:1521  amountIn */\n      dup3\n        /* \"contracts/DeFi/CSAMM2.sol\":1513:1527  amountIn * 997 */\n      tag_105\n      swap2\n      swap1\n      tag_79\n      jump\t// in\n    tag_105:\n        /* \"contracts/DeFi/CSAMM2.sol\":1512:1535  (amountIn * 997) / 1000 */\n      tag_106\n      swap2\n      swap1\n      tag_81\n      jump\t// in\n    tag_106:\n        /* \"contracts/DeFi/CSAMM2.sol\":1500:1535  amountOut = (amountIn * 997) / 1000 */\n      swap7\n      pop\n        /* \"contracts/DeFi/CSAMM2.sol\":1587:1596  uint res0 */\n      0x00\n        /* \"contracts/DeFi/CSAMM2.sol\":1598:1607  uint res1 */\n      dup1\n        /* \"contracts/DeFi/CSAMM2.sol\":1611:1619  isToken0 */\n      dup8\n        /* \"contracts/DeFi/CSAMM2.sol\":1611:1711  isToken0 ?... */\n      tag_107\n      jumpi\n        /* \"contracts/DeFi/CSAMM2.sol\":1682:1691  amountOut */\n      dup9\n        /* \"contracts/DeFi/CSAMM2.sol\":1673:1679  resOut */\n      dup5\n        /* \"contracts/DeFi/CSAMM2.sol\":1673:1691  resOut - amountOut */\n      tag_108\n      swap2\n      swap1\n      tag_70\n      jump\t// in\n    tag_108:\n        /* \"contracts/DeFi/CSAMM2.sol\":1701:1710  _amountIn */\n      dup11\n        /* \"contracts/DeFi/CSAMM2.sol\":1693:1698  resIn */\n      dup7\n        /* \"contracts/DeFi/CSAMM2.sol\":1693:1710  resIn + _amountIn */\n      tag_109\n      swap2\n      swap1\n      tag_74\n      jump\t// in\n    tag_109:\n        /* \"contracts/DeFi/CSAMM2.sol\":1611:1711  isToken0 ?... */\n      jump(tag_110)\n    tag_107:\n        /* \"contracts/DeFi/CSAMM2.sol\":1639:1648  _amountIn */\n      dup10\n        /* \"contracts/DeFi/CSAMM2.sol\":1631:1636  resIn */\n      dup6\n        /* \"contracts/DeFi/CSAMM2.sol\":1631:1648  resIn + _amountIn */\n      tag_111\n      swap2\n      swap1\n      tag_74\n      jump\t// in\n    tag_111:\n        /* \"contracts/DeFi/CSAMM2.sol\":1659:1668  amountOut */\n      dup10\n        /* \"contracts/DeFi/CSAMM2.sol\":1650:1656  resOut */\n      dup6\n        /* \"contracts/DeFi/CSAMM2.sol\":1650:1668  resOut - amountOut */\n      tag_112\n      swap2\n      swap1\n      tag_70\n      jump\t// in\n    tag_112:\n        /* \"contracts/DeFi/CSAMM2.sol\":1611:1711  isToken0 ?... */\n    tag_110:\n        /* \"contracts/DeFi/CSAMM2.sol\":1586:1711  (uint res0, uint res1) = isToken0 ?... */\n      swap2\n      pop\n      swap2\n      pop\n        /* \"contracts/DeFi/CSAMM2.sol\":1721:1740  _update(res0, res1) */\n      tag_113\n        /* \"contracts/DeFi/CSAMM2.sol\":1729:1733  res0 */\n      dup3\n        /* \"contracts/DeFi/CSAMM2.sol\":1735:1739  res1 */\n      dup3\n        /* \"contracts/DeFi/CSAMM2.sol\":1721:1728  _update */\n      tag_88\n        /* \"contracts/DeFi/CSAMM2.sol\":1721:1740  _update(res0, res1) */\n      jump\t// in\n    tag_113:\n        /* \"contracts/DeFi/CSAMM2.sol\":1782:1790  tokenOut */\n      dup6\n        /* \"contracts/DeFi/CSAMM2.sol\":1782:1799  tokenOut.transfer */\n      0xffffffffffffffffffffffffffffffffffffffff\n      and\n      0xa9059cbb\n        /* \"contracts/DeFi/CSAMM2.sol\":1800:1810  msg.sender */\n      caller\n        /* \"contracts/DeFi/CSAMM2.sol\":1812:1821  amountOut */\n      dup12\n        /* \"contracts/DeFi/CSAMM2.sol\":1782:1822  tokenOut.transfer(msg.sender, amountOut) */\n      mload(0x40)\n      dup4\n      0xffffffff\n      and\n      0xe0\n      shl\n      dup2\n      mstore\n      0x04\n      add\n      tag_114\n      swap3\n      swap2\n      swap1\n      tag_115\n      jump\t// in\n    tag_114:\n      0x20\n      mload(0x40)\n      dup1\n      dup4\n      sub\n      dup2\n      0x00\n      dup8\n      gas\n      call\n      iszero\n      dup1\n      iszero\n      tag_117\n      jumpi\n      returndatasize\n      0x00\n      dup1\n      returndatacopy\n      revert(0x00, returndatasize)\n    tag_117:\n      pop\n      pop\n      pop\n      pop\n      mload(0x40)\n      returndatasize\n      not(0x1f)\n      0x1f\n      dup3\n      add\n      and\n      dup3\n      add\n      dup1\n      0x40\n      mstore\n      pop\n      dup2\n      add\n      swap1\n      tag_118\n      swap2\n      swap1\n      tag_54\n      jump\t// in\n    tag_118:\n      pop\n        /* \"contracts/DeFi/CSAMM2.sol\":921:1829  {... */\n      pop\n      pop\n      pop\n      pop\n      pop\n      pop\n      pop\n      pop\n        /* \"contracts/DeFi/CSAMM2.sol\":839:1829  function swap(address _tokenIn, uint _amountIn) external returns (uint amountOut) {... */\n      swap3\n      swap2\n      pop\n      pop\n      jump\t// out\n        /* \"contracts/DeFi/CSAMM2.sol\":140:170  IERC20 public immutable token1 */\n    tag_45:\n      immutable(\"0xe4b1702d9298fee62dfeccc57d322a463ad55ca201256d01f62b45b2e1c21c10\")\n      dup2\n      jump\t// out\n        /* \"contracts/DeFi/CSAMM2.sol\":460:584  function _mint(address _to, uint _amount) private {... */\n    tag_86:\n        /* \"contracts/DeFi/CSAMM2.sol\":538:545  _amount */\n      dup1\n        /* \"contracts/DeFi/CSAMM2.sol\":520:529  balanceOf */\n      0x03\n        /* \"contracts/DeFi/CSAMM2.sol\":520:534  balanceOf[_to] */\n      0x00\n        /* \"contracts/DeFi/CSAMM2.sol\":530:533  _to */\n      dup5\n        /* \"contracts/DeFi/CSAMM2.sol\":520:534  balanceOf[_to] */\n      0xffffffffffffffffffffffffffffffffffffffff\n      and\n      0xffffffffffffffffffffffffffffffffffffffff\n      and\n      dup2\n      mstore\n      0x20\n      add\n      swap1\n      dup2\n      mstore\n      0x20\n      add\n      0x00\n      keccak256\n      0x00\n        /* \"contracts/DeFi/CSAMM2.sol\":520:545  balanceOf[_to] += _amount */\n      dup3\n      dup3\n      sload\n      tag_120\n      swap2\n      swap1\n      tag_74\n      jump\t// in\n    tag_120:\n      swap3\n      pop\n      pop\n      dup2\n      swap1\n      sstore\n      pop\n        /* \"contracts/DeFi/CSAMM2.sol\":570:577  _amount */\n      dup1\n        /* \"contracts/DeFi/CSAMM2.sol\":555:566  totalSupply */\n      0x02\n      0x00\n        /* \"contracts/DeFi/CSAMM2.sol\":555:577  totalSupply += _amount */\n      dup3\n      dup3\n      sload\n      tag_121\n      swap2\n      swap1\n      tag_74\n      jump\t// in\n    tag_121:\n      swap3\n      pop\n      pop\n      dup2\n      swap1\n      sstore\n      pop\n        /* \"contracts/DeFi/CSAMM2.sol\":460:584  function _mint(address _to, uint _amount) private {... */\n      pop\n      pop\n      jump\t// out\n        /* \"contracts/DeFi/CSAMM2.sol\":724:833  function _update (uint _res0, uint _res1) private {... */\n    tag_88:\n        /* \"contracts/DeFi/CSAMM2.sol\":795:800  _res0 */\n      dup2\n        /* \"contracts/DeFi/CSAMM2.sol\":784:792  reserve0 */\n      0x00\n        /* \"contracts/DeFi/CSAMM2.sol\":784:800  reserve0 = _res0 */\n      dup2\n      swap1\n      sstore\n      pop\n        /* \"contracts/DeFi/CSAMM2.sol\":821:826  _res1 */\n      dup1\n        /* \"contracts/DeFi/CSAMM2.sol\":810:818  reserve1 */\n      0x01\n        /* \"contracts/DeFi/CSAMM2.sol\":810:826  reserve1 = _res1 */\n      dup2\n      swap1\n      sstore\n      pop\n        /* \"contracts/DeFi/CSAMM2.sol\":724:833  function _update (uint _res0, uint _res1) private {... */\n      pop\n      pop\n      jump\t// out\n        /* \"#utility.yul\":7:133   */\n    tag_123:\n        /* \"#utility.yul\":44:51   */\n      0x00\n        /* \"#utility.yul\":84:126   */\n      0xffffffffffffffffffffffffffffffffffffffff\n        /* \"#utility.yul\":77:82   */\n      dup3\n        /* \"#utility.yul\":73:127   */\n      and\n        /* \"#utility.yul\":62:127   */\n      swap1\n      pop\n        /* \"#utility.yul\":7:133   */\n      swap2\n      swap1\n      pop\n      jump\t// out\n        /* \"#utility.yul\":139:199   */\n    tag_124:\n        /* \"#utility.yul\":167:170   */\n      0x00\n        /* \"#utility.yul\":188:193   */\n      dup2\n        /* \"#utility.yul\":181:193   */\n      swap1\n      pop\n        /* \"#utility.yul\":139:199   */\n      swap2\n      swap1\n      pop\n      jump\t// out\n        /* \"#utility.yul\":205:347   */\n    tag_125:\n        /* \"#utility.yul\":255:264   */\n      0x00\n        /* \"#utility.yul\":288:341   */\n      tag_155\n        /* \"#utility.yul\":306:340   */\n      tag_156\n        /* \"#utility.yul\":315:339   */\n      tag_157\n        /* \"#utility.yul\":333:338   */\n      dup5\n        /* \"#utility.yul\":315:339   */\n      tag_123\n      jump\t// in\n    tag_157:\n        /* \"#utility.yul\":306:340   */\n      tag_124\n      jump\t// in\n    tag_156:\n        /* \"#utility.yul\":288:341   */\n      tag_123\n      jump\t// in\n    tag_155:\n        /* \"#utility.yul\":275:341   */\n      swap1\n      pop\n        /* \"#utility.yul\":205:347   */\n      swap2\n      swap1\n      pop\n      jump\t// out\n        /* \"#utility.yul\":353:479   */\n    tag_126:\n        /* \"#utility.yul\":403:412   */\n      0x00\n        /* \"#utility.yul\":436:473   */\n      tag_159\n        /* \"#utility.yul\":467:472   */\n      dup3\n        /* \"#utility.yul\":436:473   */\n      tag_125\n      jump\t// in\n    tag_159:\n        /* \"#utility.yul\":423:473   */\n      swap1\n      pop\n        /* \"#utility.yul\":353:479   */\n      swap2\n      swap1\n      pop\n      jump\t// out\n        /* \"#utility.yul\":485:625   */\n    tag_127:\n        /* \"#utility.yul\":549:558   */\n      0x00\n        /* \"#utility.yul\":582:619   */\n      tag_161\n        /* \"#utility.yul\":613:618   */\n      dup3\n        /* \"#utility.yul\":582:619   */\n      tag_126\n      jump\t// in\n    tag_161:\n        /* \"#utility.yul\":569:619   */\n      swap1\n      pop\n        /* \"#utility.yul\":485:625   */\n      swap2\n      swap1\n      pop\n      jump\t// out\n        /* \"#utility.yul\":631:790   */\n    tag_128:\n        /* \"#utility.yul\":732:783   */\n      tag_163\n        /* \"#utility.yul\":777:782   */\n      dup2\n        /* \"#utility.yul\":732:783   */\n      tag_127\n      jump\t// in\n    tag_163:\n        /* \"#utility.yul\":727:730   */\n      dup3\n        /* \"#utility.yul\":720:784   */\n      mstore\n        /* \"#utility.yul\":631:790   */\n      pop\n      pop\n      jump\t// out\n        /* \"#utility.yul\":796:1046   */\n    tag_16:\n        /* \"#utility.yul\":903:907   */\n      0x00\n        /* \"#utility.yul\":941:943   */\n      0x20\n        /* \"#utility.yul\":930:939   */\n      dup3\n        /* \"#utility.yul\":926:944   */\n      add\n        /* \"#utility.yul\":918:944   */\n      swap1\n      pop\n        /* \"#utility.yul\":954:1039   */\n      tag_165\n        /* \"#utility.yul\":1036:1037   */\n      0x00\n        /* \"#utility.yul\":1025:1034   */\n      dup4\n        /* \"#utility.yul\":1021:1038   */\n      add\n        /* \"#utility.yul\":1012:1018   */\n      dup5\n        /* \"#utility.yul\":954:1039   */\n      tag_128\n      jump\t// in\n    tag_165:\n        /* \"#utility.yul\":796:1046   */\n      swap3\n      swap2\n      pop\n      pop\n      jump\t// out\n        /* \"#utility.yul\":1052:1129   */\n    tag_129:\n        /* \"#utility.yul\":1089:1096   */\n      0x00\n        /* \"#utility.yul\":1118:1123   */\n      dup2\n        /* \"#utility.yul\":1107:1123   */\n      swap1\n      pop\n        /* \"#utility.yul\":1052:1129   */\n      swap2\n      swap1\n      pop\n      jump\t// out\n        /* \"#utility.yul\":1135:1253   */\n    tag_130:\n        /* \"#utility.yul\":1222:1246   */\n      tag_168\n        /* \"#utility.yul\":1240:1245   */\n      dup2\n        /* \"#utility.yul\":1222:1246   */\n      tag_129\n      jump\t// in\n    tag_168:\n        /* \"#utility.yul\":1217:1220   */\n      dup3\n        /* \"#utility.yul\":1210:1247   */\n      mstore\n        /* \"#utility.yul\":1135:1253   */\n      pop\n      pop\n      jump\t// out\n        /* \"#utility.yul\":1259:1481   */\n    tag_20:\n        /* \"#utility.yul\":1352:1356   */\n      0x00\n        /* \"#utility.yul\":1390:1392   */\n      0x20\n        /* \"#utility.yul\":1379:1388   */\n      dup3\n        /* \"#utility.yul\":1375:1393   */\n      add\n        /* \"#utility.yul\":1367:1393   */\n      swap1\n      pop\n        /* \"#utility.yul\":1403:1474   */\n      tag_170\n        /* \"#utility.yul\":1471:1472   */\n      0x00\n        /* \"#utility.yul\":1460:1469   */\n      dup4\n        /* \"#utility.yul\":1456:1473   */\n      add\n        /* \"#utility.yul\":1447:1453   */\n      dup5\n        /* \"#utility.yul\":1403:1474   */\n      tag_130\n      jump\t// in\n    tag_170:\n        /* \"#utility.yul\":1259:1481   */\n      swap3\n      swap2\n      pop\n      pop\n      jump\t// out\n        /* \"#utility.yul\":1568:1685   */\n    tag_132:\n        /* \"#utility.yul\":1677:1678   */\n      0x00\n        /* \"#utility.yul\":1674:1675   */\n      dup1\n        /* \"#utility.yul\":1667:1679   */\n      revert\n        /* \"#utility.yul\":1814:1910   */\n    tag_134:\n        /* \"#utility.yul\":1851:1858   */\n      0x00\n        /* \"#utility.yul\":1880:1904   */\n      tag_175\n        /* \"#utility.yul\":1898:1903   */\n      dup3\n        /* \"#utility.yul\":1880:1904   */\n      tag_123\n      jump\t// in\n    tag_175:\n        /* \"#utility.yul\":1869:1904   */\n      swap1\n      pop\n        /* \"#utility.yul\":1814:1910   */\n      swap2\n      swap1\n      pop\n      jump\t// out\n        /* \"#utility.yul\":1916:2038   */\n    tag_135:\n        /* \"#utility.yul\":1989:2013   */\n      tag_177\n        /* \"#utility.yul\":2007:2012   */\n      dup2\n        /* \"#utility.yul\":1989:2013   */\n      tag_134\n      jump\t// in\n    tag_177:\n        /* \"#utility.yul\":1982:1987   */\n      dup2\n        /* \"#utility.yul\":1979:2014   */\n      eq\n        /* \"#utility.yul\":1969:2032   */\n      tag_178\n      jumpi\n        /* \"#utility.yul\":2028:2029   */\n      0x00\n        /* \"#utility.yul\":2025:2026   */\n      dup1\n        /* \"#utility.yul\":2018:2030   */\n      revert\n        /* \"#utility.yul\":1969:2032   */\n    tag_178:\n        /* \"#utility.yul\":1916:2038   */\n      pop\n      jump\t// out\n        /* \"#utility.yul\":2044:2183   */\n    tag_136:\n        /* \"#utility.yul\":2090:2095   */\n      0x00\n        /* \"#utility.yul\":2128:2134   */\n      dup2\n        /* \"#utility.yul\":2115:2135   */\n      calldataload\n        /* \"#utility.yul\":2106:2135   */\n      swap1\n      pop\n        /* \"#utility.yul\":2144:2177   */\n      tag_180\n        /* \"#utility.yul\":2171:2176   */\n      dup2\n        /* \"#utility.yul\":2144:2177   */\n      tag_135\n      jump\t// in\n    tag_180:\n        /* \"#utility.yul\":2044:2183   */\n      swap3\n      swap2\n      pop\n      pop\n      jump\t// out\n        /* \"#utility.yul\":2189:2518   */\n    tag_31:\n        /* \"#utility.yul\":2248:2254   */\n      0x00\n        /* \"#utility.yul\":2297:2299   */\n      0x20\n        /* \"#utility.yul\":2285:2294   */\n      dup3\n        /* \"#utility.yul\":2276:2283   */\n      dup5\n        /* \"#utility.yul\":2272:2295   */\n      sub\n        /* \"#utility.yul\":2268:2300   */\n      slt\n        /* \"#utility.yul\":2265:2384   */\n      iszero\n      tag_182\n      jumpi\n        /* \"#utility.yul\":2303:2382   */\n      tag_183\n      tag_132\n      jump\t// in\n    tag_183:\n        /* \"#utility.yul\":2265:2384   */\n    tag_182:\n        /* \"#utility.yul\":2423:2424   */\n      0x00\n        /* \"#utility.yul\":2448:2501   */\n      tag_184\n        /* \"#utility.yul\":2493:2500   */\n      dup5\n        /* \"#utility.yul\":2484:2490   */\n      dup3\n        /* \"#utility.yul\":2473:2482   */\n      dup6\n        /* \"#utility.yul\":2469:2491   */\n      add\n        /* \"#utility.yul\":2448:2501   */\n      tag_136\n      jump\t// in\n    tag_184:\n        /* \"#utility.yul\":2438:2501   */\n      swap2\n      pop\n        /* \"#utility.yul\":2394:2511   */\n      pop\n        /* \"#utility.yul\":2189:2518   */\n      swap3\n      swap2\n      pop\n      pop\n      jump\t// out\n        /* \"#utility.yul\":2524:2646   */\n    tag_137:\n        /* \"#utility.yul\":2597:2621   */\n      tag_186\n        /* \"#utility.yul\":2615:2620   */\n      dup2\n        /* \"#utility.yul\":2597:2621   */\n      tag_129\n      jump\t// in\n    tag_186:\n        /* \"#utility.yul\":2590:2595   */\n      dup2\n        /* \"#utility.yul\":2587:2622   */\n      eq\n        /* \"#utility.yul\":2577:2640   */\n      tag_187\n      jumpi\n        /* \"#utility.yul\":2636:2637   */\n      0x00\n        /* \"#utility.yul\":2633:2634   */\n      dup1\n        /* \"#utility.yul\":2626:2638   */\n      revert\n        /* \"#utility.yul\":2577:2640   */\n    tag_187:\n        /* \"#utility.yul\":2524:2646   */\n      pop\n      jump\t// out\n        /* \"#utility.yul\":2652:2791   */\n    tag_138:\n        /* \"#utility.yul\":2698:2703   */\n      0x00\n        /* \"#utility.yul\":2736:2742   */\n      dup2\n        /* \"#utility.yul\":2723:2743   */\n      calldataload\n        /* \"#utility.yul\":2714:2743   */\n      swap1\n      pop\n        /* \"#utility.yul\":2752:2785   */\n      tag_189\n        /* \"#utility.yul\":2779:2784   */\n      dup2\n        /* \"#utility.yul\":2752:2785   */\n      tag_137\n      jump\t// in\n    tag_189:\n        /* \"#utility.yul\":2652:2791   */\n      swap3\n      swap2\n      pop\n      pop\n      jump\t// out\n        /* \"#utility.yul\":2797:3271   */\n    tag_36:\n        /* \"#utility.yul\":2865:2871   */\n      0x00\n        /* \"#utility.yul\":2873:2879   */\n      dup1\n        /* \"#utility.yul\":2922:2924   */\n      0x40\n        /* \"#utility.yul\":2910:2919   */\n      dup4\n        /* \"#utility.yul\":2901:2908   */\n      dup6\n        /* \"#utility.yul\":2897:2920   */\n      sub\n        /* \"#utility.yul\":2893:2925   */\n      slt\n        /* \"#utility.yul\":2890:3009   */\n      iszero\n      tag_191\n      jumpi\n        /* \"#utility.yul\":2928:3007   */\n      tag_192\n      tag_132\n      jump\t// in\n    tag_192:\n        /* \"#utility.yul\":2890:3009   */\n    tag_191:\n        /* \"#utility.yul\":3048:3049   */\n      0x00\n        /* \"#utility.yul\":3073:3126   */\n      tag_193\n        /* \"#utility.yul\":3118:3125   */\n      dup6\n        /* \"#utility.yul\":3109:3115   */\n      dup3\n        /* \"#utility.yul\":3098:3107   */\n      dup7\n        /* \"#utility.yul\":3094:3116   */\n      add\n        /* \"#utility.yul\":3073:3126   */\n      tag_138\n      jump\t// in\n    tag_193:\n        /* \"#utility.yul\":3063:3126   */\n      swap3\n      pop\n        /* \"#utility.yul\":3019:3136   */\n      pop\n        /* \"#utility.yul\":3175:3177   */\n      0x20\n        /* \"#utility.yul\":3201:3254   */\n      tag_194\n        /* \"#utility.yul\":3246:3253   */\n      dup6\n        /* \"#utility.yul\":3237:3243   */\n      dup3\n        /* \"#utility.yul\":3226:3235   */\n      dup7\n        /* \"#utility.yul\":3222:3244   */\n      add\n        /* \"#utility.yul\":3201:3254   */\n      tag_138\n      jump\t// in\n    tag_194:\n        /* \"#utility.yul\":3191:3254   */\n      swap2\n      pop\n        /* \"#utility.yul\":3146:3264   */\n      pop\n        /* \"#utility.yul\":2797:3271   */\n      swap3\n      pop\n      swap3\n      swap1\n      pop\n      jump\t// out\n        /* \"#utility.yul\":3277:3751   */\n    tag_41:\n        /* \"#utility.yul\":3345:3351   */\n      0x00\n        /* \"#utility.yul\":3353:3359   */\n      dup1\n        /* \"#utility.yul\":3402:3404   */\n      0x40\n        /* \"#utility.yul\":3390:3399   */\n      dup4\n        /* \"#utility.yul\":3381:3388   */\n      dup6\n        /* \"#utility.yul\":3377:3400   */\n      sub\n        /* \"#utility.yul\":3373:3405   */\n      slt\n        /* \"#utility.yul\":3370:3489   */\n      iszero\n      tag_196\n      jumpi\n        /* \"#utility.yul\":3408:3487   */\n      tag_197\n      tag_132\n      jump\t// in\n    tag_197:\n        /* \"#utility.yul\":3370:3489   */\n    tag_196:\n        /* \"#utility.yul\":3528:3529   */\n      0x00\n        /* \"#utility.yul\":3553:3606   */\n      tag_198\n        /* \"#utility.yul\":3598:3605   */\n      dup6\n        /* \"#utility.yul\":3589:3595   */\n      dup3\n        /* \"#utility.yul\":3578:3587   */\n      dup7\n        /* \"#utility.yul\":3574:3596   */\n      add\n        /* \"#utility.yul\":3553:3606   */\n      tag_136\n      jump\t// in\n    tag_198:\n        /* \"#utility.yul\":3543:3606   */\n      swap3\n      pop\n        /* \"#utility.yul\":3499:3616   */\n      pop\n        /* \"#utility.yul\":3655:3657   */\n      0x20\n        /* \"#utility.yul\":3681:3734   */\n      tag_199\n        /* \"#utility.yul\":3726:3733   */\n      dup6\n        /* \"#utility.yul\":3717:3723   */\n      dup3\n        /* \"#utility.yul\":3706:3715   */\n      dup7\n        /* \"#utility.yul\":3702:3724   */\n      add\n        /* \"#utility.yul\":3681:3734   */\n      tag_138\n      jump\t// in\n    tag_199:\n        /* \"#utility.yul\":3671:3734   */\n      swap2\n      pop\n        /* \"#utility.yul\":3626:3744   */\n      pop\n        /* \"#utility.yul\":3277:3751   */\n      swap3\n      pop\n      swap3\n      swap1\n      pop\n      jump\t// out\n        /* \"#utility.yul\":3757:3875   */\n    tag_139:\n        /* \"#utility.yul\":3844:3868   */\n      tag_201\n        /* \"#utility.yul\":3862:3867   */\n      dup2\n        /* \"#utility.yul\":3844:3868   */\n      tag_134\n      jump\t// in\n    tag_201:\n        /* \"#utility.yul\":3839:3842   */\n      dup3\n        /* \"#utility.yul\":3832:3869   */\n      mstore\n        /* \"#utility.yul\":3757:3875   */\n      pop\n      pop\n      jump\t// out\n        /* \"#utility.yul\":3881:4323   */\n    tag_50:\n        /* \"#utility.yul\":4030:4034   */\n      0x00\n        /* \"#utility.yul\":4068:4070   */\n      0x60\n        /* \"#utility.yul\":4057:4066   */\n      dup3\n        /* \"#utility.yul\":4053:4071   */\n      add\n        /* \"#utility.yul\":4045:4071   */\n      swap1\n      pop\n        /* \"#utility.yul\":4081:4152   */\n      tag_203\n        /* \"#utility.yul\":4149:4150   */\n      0x00\n        /* \"#utility.yul\":4138:4147   */\n      dup4\n        /* \"#utility.yul\":4134:4151   */\n      add\n        /* \"#utility.yul\":4125:4131   */\n      dup7\n        /* \"#utility.yul\":4081:4152   */\n      tag_139\n      jump\t// in\n    tag_203:\n        /* \"#utility.yul\":4162:4234   */\n      tag_204\n        /* \"#utility.yul\":4230:4232   */\n      0x20\n        /* \"#utility.yul\":4219:4228   */\n      dup4\n        /* \"#utility.yul\":4215:4233   */\n      add\n        /* \"#utility.yul\":4206:4212   */\n      dup6\n        /* \"#utility.yul\":4162:4234   */\n      tag_139\n      jump\t// in\n    tag_204:\n        /* \"#utility.yul\":4244:4316   */\n      tag_205\n        /* \"#utility.yul\":4312:4314   */\n      0x40\n        /* \"#utility.yul\":4301:4310   */\n      dup4\n        /* \"#utility.yul\":4297:4315   */\n      add\n        /* \"#utility.yul\":4288:4294   */\n      dup5\n        /* \"#utility.yul\":4244:4316   */\n      tag_130\n      jump\t// in\n    tag_205:\n        /* \"#utility.yul\":3881:4323   */\n      swap5\n      swap4\n      pop\n      pop\n      pop\n      pop\n      jump\t// out\n        /* \"#utility.yul\":4329:4419   */\n    tag_140:\n        /* \"#utility.yul\":4363:4370   */\n      0x00\n        /* \"#utility.yul\":4406:4411   */\n      dup2\n        /* \"#utility.yul\":4399:4412   */\n      iszero\n        /* \"#utility.yul\":4392:4413   */\n      iszero\n        /* \"#utility.yul\":4381:4413   */\n      swap1\n      pop\n        /* \"#utility.yul\":4329:4419   */\n      swap2\n      swap1\n      pop\n      jump\t// out\n        /* \"#utility.yul\":4425:4541   */\n    tag_141:\n        /* \"#utility.yul\":4495:4516   */\n      tag_208\n        /* \"#utility.yul\":4510:4515   */\n      dup2\n        /* \"#utility.yul\":4495:4516   */\n      tag_140\n      jump\t// in\n    tag_208:\n        /* \"#utility.yul\":4488:4493   */\n      dup2\n        /* \"#utility.yul\":4485:4517   */\n      eq\n        /* \"#utility.yul\":4475:4535   */\n      tag_209\n      jumpi\n        /* \"#utility.yul\":4531:4532   */\n      0x00\n        /* \"#utility.yul\":4528:4529   */\n      dup1\n        /* \"#utility.yul\":4521:4533   */\n      revert\n        /* \"#utility.yul\":4475:4535   */\n    tag_209:\n        /* \"#utility.yul\":4425:4541   */\n      pop\n      jump\t// out\n        /* \"#utility.yul\":4547:4684   */\n    tag_142:\n        /* \"#utility.yul\":4601:4606   */\n      0x00\n        /* \"#utility.yul\":4632:4638   */\n      dup2\n        /* \"#utility.yul\":4626:4639   */\n      mload\n        /* \"#utility.yul\":4617:4639   */\n      swap1\n      pop\n        /* \"#utility.yul\":4648:4678   */\n      tag_211\n        /* \"#utility.yul\":4672:4677   */\n      dup2\n        /* \"#utility.yul\":4648:4678   */\n      tag_141\n      jump\t// in\n    tag_211:\n        /* \"#utility.yul\":4547:4684   */\n      swap3\n      swap2\n      pop\n      pop\n      jump\t// out\n        /* \"#utility.yul\":4690:5035   */\n    tag_54:\n        /* \"#utility.yul\":4757:4763   */\n      0x00\n        /* \"#utility.yul\":4806:4808   */\n      0x20\n        /* \"#utility.yul\":4794:4803   */\n      dup3\n        /* \"#utility.yul\":4785:4792   */\n      dup5\n        /* \"#utility.yul\":4781:4804   */\n      sub\n        /* \"#utility.yul\":4777:4809   */\n      slt\n        /* \"#utility.yul\":4774:4893   */\n      iszero\n      tag_213\n      jumpi\n        /* \"#utility.yul\":4812:4891   */\n      tag_214\n      tag_132\n      jump\t// in\n    tag_214:\n        /* \"#utility.yul\":4774:4893   */\n    tag_213:\n        /* \"#utility.yul\":4932:4933   */\n      0x00\n        /* \"#utility.yul\":4957:5018   */\n      tag_215\n        /* \"#utility.yul\":5010:5017   */\n      dup5\n        /* \"#utility.yul\":5001:5007   */\n      dup3\n        /* \"#utility.yul\":4990:4999   */\n      dup6\n        /* \"#utility.yul\":4986:5008   */\n      add\n        /* \"#utility.yul\":4957:5018   */\n      tag_142\n      jump\t// in\n    tag_215:\n        /* \"#utility.yul\":4947:5018   */\n      swap2\n      pop\n        /* \"#utility.yul\":4903:5028   */\n      pop\n        /* \"#utility.yul\":4690:5035   */\n      swap3\n      swap2\n      pop\n      pop\n      jump\t// out\n        /* \"#utility.yul\":5041:5263   */\n    tag_60:\n        /* \"#utility.yul\":5134:5138   */\n      0x00\n        /* \"#utility.yul\":5172:5174   */\n      0x20\n        /* \"#utility.yul\":5161:5170   */\n      dup3\n        /* \"#utility.yul\":5157:5175   */\n      add\n        /* \"#utility.yul\":5149:5175   */\n      swap1\n      pop\n        /* \"#utility.yul\":5185:5256   */\n      tag_217\n        /* \"#utility.yul\":5253:5254   */\n      0x00\n        /* \"#utility.yul\":5242:5251   */\n      dup4\n        /* \"#utility.yul\":5238:5255   */\n      add\n        /* \"#utility.yul\":5229:5235   */\n      dup5\n        /* \"#utility.yul\":5185:5256   */\n      tag_139\n      jump\t// in\n    tag_217:\n        /* \"#utility.yul\":5041:5263   */\n      swap3\n      swap2\n      pop\n      pop\n      jump\t// out\n        /* \"#utility.yul\":5269:5412   */\n    tag_143:\n        /* \"#utility.yul\":5326:5331   */\n      0x00\n        /* \"#utility.yul\":5357:5363   */\n      dup2\n        /* \"#utility.yul\":5351:5364   */\n      mload\n        /* \"#utility.yul\":5342:5364   */\n      swap1\n      pop\n        /* \"#utility.yul\":5373:5406   */\n      tag_219\n        /* \"#utility.yul\":5400:5405   */\n      dup2\n        /* \"#utility.yul\":5373:5406   */\n      tag_137\n      jump\t// in\n    tag_219:\n        /* \"#utility.yul\":5269:5412   */\n      swap3\n      swap2\n      pop\n      pop\n      jump\t// out\n        /* \"#utility.yul\":5418:5769   */\n    tag_64:\n        /* \"#utility.yul\":5488:5494   */\n      0x00\n        /* \"#utility.yul\":5537:5539   */\n      0x20\n        /* \"#utility.yul\":5525:5534   */\n      dup3\n        /* \"#utility.yul\":5516:5523   */\n      dup5\n        /* \"#utility.yul\":5512:5535   */\n      sub\n        /* \"#utility.yul\":5508:5540   */\n      slt\n        /* \"#utility.yul\":5505:5624   */\n      iszero\n      tag_221\n      jumpi\n        /* \"#utility.yul\":5543:5622   */\n      tag_222\n      tag_132\n      jump\t// in\n    tag_222:\n        /* \"#utility.yul\":5505:5624   */\n    tag_221:\n        /* \"#utility.yul\":5663:5664   */\n      0x00\n        /* \"#utility.yul\":5688:5752   */\n      tag_223\n        /* \"#utility.yul\":5744:5751   */\n      dup5\n        /* \"#utility.yul\":5735:5741   */\n      dup3\n        /* \"#utility.yul\":5724:5733   */\n      dup6\n        /* \"#utility.yul\":5720:5742   */\n      add\n        /* \"#utility.yul\":5688:5752   */\n      tag_143\n      jump\t// in\n    tag_223:\n        /* \"#utility.yul\":5678:5752   */\n      swap2\n      pop\n        /* \"#utility.yul\":5634:5762   */\n      pop\n        /* \"#utility.yul\":5418:5769   */\n      swap3\n      swap2\n      pop\n      pop\n      jump\t// out\n        /* \"#utility.yul\":5775:5955   */\n    tag_144:\n        /* \"#utility.yul\":5823:5900   */\n      0x4e487b7100000000000000000000000000000000000000000000000000000000\n        /* \"#utility.yul\":5820:5821   */\n      0x00\n        /* \"#utility.yul\":5813:5901   */\n      mstore\n        /* \"#utility.yul\":5920:5924   */\n      0x11\n        /* \"#utility.yul\":5917:5918   */\n      0x04\n        /* \"#utility.yul\":5910:5925   */\n      mstore\n        /* \"#utility.yul\":5944:5948   */\n      0x24\n        /* \"#utility.yul\":5941:5942   */\n      0x00\n        /* \"#utility.yul\":5934:5949   */\n      revert\n        /* \"#utility.yul\":5961:6152   */\n    tag_70:\n        /* \"#utility.yul\":6001:6005   */\n      0x00\n        /* \"#utility.yul\":6021:6041   */\n      tag_226\n        /* \"#utility.yul\":6039:6040   */\n      dup3\n        /* \"#utility.yul\":6021:6041   */\n      tag_129\n      jump\t// in\n    tag_226:\n        /* \"#utility.yul\":6016:6041   */\n      swap2\n      pop\n        /* \"#utility.yul\":6055:6075   */\n      tag_227\n        /* \"#utility.yul\":6073:6074   */\n      dup4\n        /* \"#utility.yul\":6055:6075   */\n      tag_129\n      jump\t// in\n    tag_227:\n        /* \"#utility.yul\":6050:6075   */\n      swap3\n      pop\n        /* \"#utility.yul\":6094:6095   */\n      dup3\n        /* \"#utility.yul\":6091:6092   */\n      dup3\n        /* \"#utility.yul\":6088:6096   */\n      lt\n        /* \"#utility.yul\":6085:6119   */\n      iszero\n      tag_228\n      jumpi\n        /* \"#utility.yul\":6099:6117   */\n      tag_229\n      tag_144\n      jump\t// in\n    tag_229:\n        /* \"#utility.yul\":6085:6119   */\n    tag_228:\n        /* \"#utility.yul\":6144:6145   */\n      dup3\n        /* \"#utility.yul\":6141:6142   */\n      dup3\n        /* \"#utility.yul\":6137:6146   */\n      sub\n        /* \"#utility.yul\":6129:6146   */\n      swap1\n      pop\n        /* \"#utility.yul\":5961:6152   */\n      swap3\n      swap2\n      pop\n      pop\n      jump\t// out\n        /* \"#utility.yul\":6158:6463   */\n    tag_74:\n        /* \"#utility.yul\":6198:6201   */\n      0x00\n        /* \"#utility.yul\":6217:6237   */\n      tag_231\n        /* \"#utility.yul\":6235:6236   */\n      dup3\n        /* \"#utility.yul\":6217:6237   */\n      tag_129\n      jump\t// in\n    tag_231:\n        /* \"#utility.yul\":6212:6237   */\n      swap2\n      pop\n        /* \"#utility.yul\":6251:6271   */\n      tag_232\n        /* \"#utility.yul\":6269:6270   */\n      dup4\n        /* \"#utility.yul\":6251:6271   */\n      tag_129\n      jump\t// in\n    tag_232:\n        /* \"#utility.yul\":6246:6271   */\n      swap3\n      pop\n        /* \"#utility.yul\":6405:6406   */\n      dup3\n        /* \"#utility.yul\":6337:6403   */\n      0xffffffffffffffffffffffffffffffffffffffffffffffffffffffffffffffff\n        /* \"#utility.yul\":6333:6407   */\n      sub\n        /* \"#utility.yul\":6330:6331   */\n      dup3\n        /* \"#utility.yul\":6327:6408   */\n      gt\n        /* \"#utility.yul\":6324:6431   */\n      iszero\n      tag_233\n      jumpi\n        /* \"#utility.yul\":6411:6429   */\n      tag_234\n      tag_144\n      jump\t// in\n    tag_234:\n        /* \"#utility.yul\":6324:6431   */\n    tag_233:\n        /* \"#utility.yul\":6455:6456   */\n      dup3\n        /* \"#utility.yul\":6452:6453   */\n      dup3\n        /* \"#utility.yul\":6448:6457   */\n      add\n        /* \"#utility.yul\":6441:6457   */\n      swap1\n      pop\n        /* \"#utility.yul\":6158:6463   */\n      swap3\n      swap2\n      pop\n      pop\n      jump\t// out\n        /* \"#utility.yul\":6469:6817   */\n    tag_79:\n        /* \"#utility.yul\":6509:6516   */\n      0x00\n        /* \"#utility.yul\":6532:6552   */\n      tag_236\n        /* \"#utility.yul\":6550:6551   */\n      dup3\n        /* \"#utility.yul\":6532:6552   */\n      tag_129\n      jump\t// in\n    tag_236:\n        /* \"#utility.yul\":6527:6552   */\n      swap2\n      pop\n        /* \"#utility.yul\":6566:6586   */\n      tag_237\n        /* \"#utility.yul\":6584:6585   */\n      dup4\n        /* \"#utility.yul\":6566:6586   */\n      tag_129\n      jump\t// in\n    tag_237:\n        /* \"#utility.yul\":6561:6586   */\n      swap3\n      pop\n        /* \"#utility.yul\":6754:6755   */\n      dup2\n        /* \"#utility.yul\":6686:6752   */\n      0xffffffffffffffffffffffffffffffffffffffffffffffffffffffffffffffff\n        /* \"#utility.yul\":6682:6756   */\n      div\n        /* \"#utility.yul\":6679:6680   */\n      dup4\n        /* \"#utility.yul\":6676:6757   */\n      gt\n        /* \"#utility.yul\":6671:6672   */\n      dup3\n        /* \"#utility.yul\":6664:6673   */\n      iszero\n        /* \"#utility.yul\":6657:6674   */\n      iszero\n        /* \"#utility.yul\":6653:6758   */\n      and\n        /* \"#utility.yul\":6650:6781   */\n      iszero\n      tag_238\n      jumpi\n        /* \"#utility.yul\":6761:6779   */\n      tag_239\n      tag_144\n      jump\t// in\n    tag_239:\n        /* \"#utility.yul\":6650:6781   */\n    tag_238:\n        /* \"#utility.yul\":6809:6810   */\n      dup3\n        /* \"#utility.yul\":6806:6807   */\n      dup3\n        /* \"#utility.yul\":6802:6811   */\n      mul\n        /* \"#utility.yul\":6791:6811   */\n      swap1\n      pop\n        /* \"#utility.yul\":6469:6817   */\n      swap3\n      swap2\n      pop\n      pop\n      jump\t// out\n        /* \"#utility.yul\":6823:7003   */\n    tag_145:\n        /* \"#utility.yul\":6871:6948   */\n      0x4e487b7100000000000000000000000000000000000000000000000000000000\n        /* \"#utility.yul\":6868:6869   */\n      0x00\n        /* \"#utility.yul\":6861:6949   */\n      mstore\n        /* \"#utility.yul\":6968:6972   */\n      0x12\n        /* \"#utility.yul\":6965:6966   */\n      0x04\n        /* \"#utility.yul\":6958:6973   */\n      mstore\n        /* \"#utility.yul\":6992:6996   */\n      0x24\n        /* \"#utility.yul\":6989:6990   */\n      0x00\n        /* \"#utility.yul\":6982:6997   */\n      revert\n        /* \"#utility.yul\":7009:7194   */\n    tag_81:\n        /* \"#utility.yul\":7049:7050   */\n      0x00\n        /* \"#utility.yul\":7066:7086   */\n      tag_242\n        /* \"#utility.yul\":7084:7085   */\n      dup3\n        /* \"#utility.yul\":7066:7086   */\n      tag_129\n      jump\t// in\n    tag_242:\n        /* \"#utility.yul\":7061:7086   */\n      swap2\n      pop\n        /* \"#utility.yul\":7100:7120   */\n      tag_243\n        /* \"#utility.yul\":7118:7119   */\n      dup4\n        /* \"#utility.yul\":7100:7120   */\n      tag_129\n      jump\t// in\n    tag_243:\n        /* \"#utility.yul\":7095:7120   */\n      swap3\n      pop\n        /* \"#utility.yul\":7139:7140   */\n      dup3\n        /* \"#utility.yul\":7129:7164   */\n      tag_244\n      jumpi\n        /* \"#utility.yul\":7144:7162   */\n      tag_245\n      tag_145\n      jump\t// in\n    tag_245:\n        /* \"#utility.yul\":7129:7164   */\n    tag_244:\n        /* \"#utility.yul\":7186:7187   */\n      dup3\n        /* \"#utility.yul\":7183:7184   */\n      dup3\n        /* \"#utility.yul\":7179:7188   */\n      div\n        /* \"#utility.yul\":7174:7188   */\n      swap1\n      pop\n        /* \"#utility.yul\":7009:7194   */\n      swap3\n      swap2\n      pop\n      pop\n      jump\t// out\n        /* \"#utility.yul\":7200:7369   */\n    tag_146:\n        /* \"#utility.yul\":7284:7295   */\n      0x00\n        /* \"#utility.yul\":7318:7324   */\n      dup3\n        /* \"#utility.yul\":7313:7316   */\n      dup3\n        /* \"#utility.yul\":7306:7325   */\n      mstore\n        /* \"#utility.yul\":7358:7362   */\n      0x20\n        /* \"#utility.yul\":7353:7356   */\n      dup3\n        /* \"#utility.yul\":7349:7363   */\n      add\n        /* \"#utility.yul\":7334:7363   */\n      swap1\n      pop\n        /* \"#utility.yul\":7200:7369   */\n      swap3\n      swap2\n      pop\n      pop\n      jump\t// out\n        /* \"#utility.yul\":7375:7535   */\n    tag_147:\n        /* \"#utility.yul\":7515:7527   */\n      0x736861726573203d203000000000000000000000000000000000000000000000\n        /* \"#utility.yul\":7511:7512   */\n      0x00\n        /* \"#utility.yul\":7503:7509   */\n      dup3\n        /* \"#utility.yul\":7499:7513   */\n      add\n        /* \"#utility.yul\":7492:7528   */\n      mstore\n        /* \"#utility.yul\":7375:7535   */\n      pop\n      jump\t// out\n        /* \"#utility.yul\":7541:7907   */\n    tag_148:\n        /* \"#utility.yul\":7683:7686   */\n      0x00\n        /* \"#utility.yul\":7704:7771   */\n      tag_249\n        /* \"#utility.yul\":7768:7770   */\n      0x0a\n        /* \"#utility.yul\":7763:7766   */\n      dup4\n        /* \"#utility.yul\":7704:7771   */\n      tag_146\n      jump\t// in\n    tag_249:\n        /* \"#utility.yul\":7697:7771   */\n      swap2\n      pop\n        /* \"#utility.yul\":7780:7873   */\n      tag_250\n        /* \"#utility.yul\":7869:7872   */\n      dup3\n        /* \"#utility.yul\":7780:7873   */\n      tag_147\n      jump\t// in\n    tag_250:\n        /* \"#utility.yul\":7898:7900   */\n      0x20\n        /* \"#utility.yul\":7893:7896   */\n      dup3\n        /* \"#utility.yul\":7889:7901   */\n      add\n        /* \"#utility.yul\":7882:7901   */\n      swap1\n      pop\n        /* \"#utility.yul\":7541:7907   */\n      swap2\n      swap1\n      pop\n      jump\t// out\n        /* \"#utility.yul\":7913:8332   */\n    tag_84:\n        /* \"#utility.yul\":8079:8083   */\n      0x00\n        /* \"#utility.yul\":8117:8119   */\n      0x20\n        /* \"#utility.yul\":8106:8115   */\n      dup3\n        /* \"#utility.yul\":8102:8120   */\n      add\n        /* \"#utility.yul\":8094:8120   */\n      swap1\n      pop\n        /* \"#utility.yul\":8166:8175   */\n      dup2\n        /* \"#utility.yul\":8160:8164   */\n      dup2\n        /* \"#utility.yul\":8156:8176   */\n      sub\n        /* \"#utility.yul\":8152:8153   */\n      0x00\n        /* \"#utility.yul\":8141:8150   */\n      dup4\n        /* \"#utility.yul\":8137:8154   */\n      add\n        /* \"#utility.yul\":8130:8177   */\n      mstore\n        /* \"#utility.yul\":8194:8325   */\n      tag_252\n        /* \"#utility.yul\":8320:8324   */\n      dup2\n        /* \"#utility.yul\":8194:8325   */\n      tag_148\n      jump\t// in\n    tag_252:\n        /* \"#utility.yul\":8186:8325   */\n      swap1\n      pop\n        /* \"#utility.yul\":7913:8332   */\n      swap2\n      swap1\n      pop\n      jump\t// out\n        /* \"#utility.yul\":8338:8501   */\n    tag_149:\n        /* \"#utility.yul\":8478:8493   */\n      0x696e76616c696420746f6b656e00000000000000000000000000000000000000\n        /* \"#utility.yul\":8474:8475   */\n      0x00\n        /* \"#utility.yul\":8466:8472   */\n      dup3\n        /* \"#utility.yul\":8462:8476   */\n      add\n        /* \"#utility.yul\":8455:8494   */\n      mstore\n        /* \"#utility.yul\":8338:8501   */\n      pop\n      jump\t// out\n        /* \"#utility.yul\":8507:8873   */\n    tag_150:\n        /* \"#utility.yul\":8649:8652   */\n      0x00\n        /* \"#utility.yul\":8670:8737   */\n      tag_255\n        /* \"#utility.yul\":8734:8736   */\n      0x0d\n        /* \"#utility.yul\":8729:8732   */\n      dup4\n        /* \"#utility.yul\":8670:8737   */\n      tag_146\n      jump\t// in\n    tag_255:\n        /* \"#utility.yul\":8663:8737   */\n      swap2\n      pop\n        /* \"#utility.yul\":8746:8839   */\n      tag_256\n        /* \"#utility.yul\":8835:8838   */\n      dup3\n        /* \"#utility.yul\":8746:8839   */\n      tag_149\n      jump\t// in\n    tag_256:\n        /* \"#utility.yul\":8864:8866   */\n      0x20\n        /* \"#utility.yul\":8859:8862   */\n      dup3\n        /* \"#utility.yul\":8855:8867   */\n      add\n        /* \"#utility.yul\":8848:8867   */\n      swap1\n      pop\n        /* \"#utility.yul\":8507:8873   */\n      swap2\n      swap1\n      pop\n      jump\t// out\n        /* \"#utility.yul\":8879:9298   */\n    tag_93:\n        /* \"#utility.yul\":9045:9049   */\n      0x00\n        /* \"#utility.yul\":9083:9085   */\n      0x20\n        /* \"#utility.yul\":9072:9081   */\n      dup3\n        /* \"#utility.yul\":9068:9086   */\n      add\n        /* \"#utility.yul\":9060:9086   */\n      swap1\n      pop\n        /* \"#utility.yul\":9132:9141   */\n      dup2\n        /* \"#utility.yul\":9126:9130   */\n      dup2\n        /* \"#utility.yul\":9122:9142   */\n      sub\n        /* \"#utility.yul\":9118:9119   */\n      0x00\n        /* \"#utility.yul\":9107:9116   */\n      dup4\n        /* \"#utility.yul\":9103:9120   */\n      add\n        /* \"#utility.yul\":9096:9143   */\n      mstore\n        /* \"#utility.yul\":9160:9291   */\n      tag_258\n        /* \"#utility.yul\":9286:9290   */\n      dup2\n        /* \"#utility.yul\":9160:9291   */\n      tag_150\n      jump\t// in\n    tag_258:\n        /* \"#utility.yul\":9152:9291   */\n      swap1\n      pop\n        /* \"#utility.yul\":8879:9298   */\n      swap2\n      swap1\n      pop\n      jump\t// out\n        /* \"#utility.yul\":9304:9636   */\n    tag_115:\n        /* \"#utility.yul\":9425:9429   */\n      0x00\n        /* \"#utility.yul\":9463:9465   */\n      0x40\n        /* \"#utility.yul\":9452:9461   */\n      dup3\n        /* \"#utility.yul\":9448:9466   */\n      add\n        /* \"#utility.yul\":9440:9466   */\n      swap1\n      pop\n        /* \"#utility.yul\":9476:9547   */\n      tag_260\n        /* \"#utility.yul\":9544:9545   */\n      0x00\n        /* \"#utility.yul\":9533:9542   */\n      dup4\n        /* \"#utility.yul\":9529:9546   */\n      add\n        /* \"#utility.yul\":9520:9526   */\n      dup6\n        /* \"#utility.yul\":9476:9547   */\n      tag_139\n      jump\t// in\n    tag_260:\n        /* \"#utility.yul\":9557:9629   */\n      tag_261\n        /* \"#utility.yul\":9625:9627   */\n      0x20\n        /* \"#utility.yul\":9614:9623   */\n      dup4\n        /* \"#utility.yul\":9610:9628   */\n      add\n        /* \"#utility.yul\":9601:9607   */\n      dup5\n        /* \"#utility.yul\":9557:9629   */\n      tag_130\n      jump\t// in\n    tag_261:\n        /* \"#utility.yul\":9304:9636   */\n      swap4\n      swap3\n      pop\n      pop\n      pop\n      jump\t// out\n\n    auxdata: 0xa26469706673582212204cecb9f591b0933149064d994cbc05e38992d12d371bbb475d16765ef621673964736f6c634300080d0033\n}\n",
				"bytecode": {
					"linkReferences": {},
					"object": "60c06040523480156200001157600080fd5b50604051620011ad380380620011ad833981810160405281019062000037919062000125565b8173ffffffffffffffffffffffffffffffffffffffff1660808173ffffffffffffffffffffffffffffffffffffffff16815250508073ffffffffffffffffffffffffffffffffffffffff1660a08173ffffffffffffffffffffffffffffffffffffffff168152505050506200016c565b600080fd5b600073ffffffffffffffffffffffffffffffffffffffff82169050919050565b6000620000d982620000ac565b9050919050565b6000620000ed82620000cc565b9050919050565b620000ff81620000e0565b81146200010b57600080fd5b50565b6000815190506200011f81620000f4565b92915050565b600080604083850312156200013f576200013e620000a7565b5b60006200014f858286016200010e565b925050602062000162858286016200010e565b9150509250929050565b60805160a051610fc7620001e6600039600081816102bd015281816103fe015281816105c8015281816106b50152818161072301526109730152600081816101ca0152818161021c015281816103600152818161057301528181610659015281816106d60152818161070201526107d70152610fc76000f3fe608060405234801561001057600080fd5b50600436106100935760003560e01c806367b9a2861161006657806367b9a2861461011057806370a082311461011a5780639cd441da1461014a578063d004f0f71461017a578063d21220a7146101aa57610093565b80630dfe16811461009857806318160ddd146100b6578063443cb4bc146100d45780635a76f25e146100f2575b600080fd5b6100a06101c8565b6040516100ad9190610a99565b60405180910390f35b6100be6101ec565b6040516100cb9190610acd565b60405180910390f35b6100dc6101f2565b6040516100e99190610acd565b60405180910390f35b6100fa6101f8565b6040516101079190610acd565b60405180910390f35b6101186101fe565b005b610134600480360381019061012f9190610b2b565b610200565b6040516101419190610acd565b60405180910390f35b610164600480360381019061015f9190610b84565b610218565b6040516101719190610acd565b60405180910390f35b610194600480360381019061018f9190610bc4565b61056f565b6040516101a19190610acd565b60405180910390f35b6101b2610971565b6040516101bf9190610a99565b60405180910390f35b7f000000000000000000000000000000000000000000000000000000000000000081565b60025481565b60005481565b60015481565b565b60036020528060005260406000206000915090505481565b60007f000000000000000000000000000000000000000000000000000000000000000073ffffffffffffffffffffffffffffffffffffffff166323b872dd3330866040518463ffffffff1660e01b815260040161027793929190610c13565b6020604051808303816000875af1158015610296573d6000803e3d6000fd5b505050506040513d601f19601f820116820180604052508101906102ba9190610c82565b507f000000000000000000000000000000000000000000000000000000000000000073ffffffffffffffffffffffffffffffffffffffff166323b872dd3330856040518463ffffffff1660e01b815260040161031893929190610c13565b6020604051808303816000875af1158015610337573d6000803e3d6000fd5b505050506040513d601f19601f8201168201806040525081019061035b9190610c82565b5060007f000000000000000000000000000000000000000000000000000000000000000073ffffffffffffffffffffffffffffffffffffffff166370a08231306040518263ffffffff1660e01b81526004016103b79190610caf565b602060405180830381865afa1580156103d4573d6000803e3d6000fd5b505050506040513d601f19601f820116820180604052508101906103f89190610cdf565b905060007f000000000000000000000000000000000000000000000000000000000000000073ffffffffffffffffffffffffffffffffffffffff166370a08231306040518263ffffffff1660e01b81526004016104559190610caf565b602060405180830381865afa158015610472573d6000803e3d6000fd5b505050506040513d601f19601f820116820180604052508101906104969190610cdf565b905060008054836104a79190610d3b565b90506000600154836104b99190610d3b565b90506000600254036104d85780826104d19190610d6f565b945061050e565b6001546000546104e89190610d6f565b60025482846104f79190610d6f565b6105019190610dc5565b61050b9190610e4e565b94505b60008511610551576040517f08c379a000000000000000000000000000000000000000000000000000000000815260040161054890610edc565b60405180910390fd5b61055b3386610995565b6105658484610a08565b5050505092915050565b60007f000000000000000000000000000000000000000000000000000000000000000073ffffffffffffffffffffffffffffffffffffffff168373ffffffffffffffffffffffffffffffffffffffff16148061061657507f000000000000000000000000000000000000000000000000000000000000000073ffffffffffffffffffffffffffffffffffffffff168373ffffffffffffffffffffffffffffffffffffffff16145b610655576040517f08c379a000000000000000000000000000000000000000000000000000000000815260040161064c90610f48565b60405180910390fd5b60007f000000000000000000000000000000000000000000000000000000000000000073ffffffffffffffffffffffffffffffffffffffff168473ffffffffffffffffffffffffffffffffffffffff1614905060008060008084610700577f00000000000000000000000000000000000000000000000000000000000000007f0000000000000000000000000000000000000000000000000000000000000000600154600054610749565b7f00000000000000000000000000000000000000000000000000000000000000007f00000000000000000000000000000000000000000000000000000000000000006000546001545b93509350935093508373ffffffffffffffffffffffffffffffffffffffff166323b872dd33308a6040518463ffffffff1660e01b815260040161078e93929190610c13565b6020604051808303816000875af11580156107ad573d6000803e3d6000fd5b505050506040513d601f19601f820116820180604052508101906107d19190610c82565b506000827f000000000000000000000000000000000000000000000000000000000000000073ffffffffffffffffffffffffffffffffffffffff166370a08231306040518263ffffffff1660e01b815260040161082e9190610caf565b602060405180830381865afa15801561084b573d6000803e3d6000fd5b505050506040513d601f19601f8201168201806040525081019061086f9190610cdf565b6108799190610d3b565b90506103e86103e58261088c9190610dc5565b6108969190610e4e565b9650600080876108bd5788846108ac9190610d3b565b8a866108b89190610d6f565b6108d6565b89856108c99190610d6f565b89856108d59190610d3b565b5b915091506108e48282610a08565b8573ffffffffffffffffffffffffffffffffffffffff1663a9059cbb338b6040518363ffffffff1660e01b815260040161091f929190610f68565b6020604051808303816000875af115801561093e573d6000803e3d6000fd5b505050506040513d601f19601f820116820180604052508101906109629190610c82565b50505050505050505092915050565b7f000000000000000000000000000000000000000000000000000000000000000081565b80600360008473ffffffffffffffffffffffffffffffffffffffff1673ffffffffffffffffffffffffffffffffffffffff16815260200190815260200160002060008282546109e49190610d6f565b9250508190555080600260008282546109fd9190610d6f565b925050819055505050565b81600081905550806001819055505050565b600073ffffffffffffffffffffffffffffffffffffffff82169050919050565b6000819050919050565b6000610a5f610a5a610a5584610a1a565b610a3a565b610a1a565b9050919050565b6000610a7182610a44565b9050919050565b6000610a8382610a66565b9050919050565b610a9381610a78565b82525050565b6000602082019050610aae6000830184610a8a565b92915050565b6000819050919050565b610ac781610ab4565b82525050565b6000602082019050610ae26000830184610abe565b92915050565b600080fd5b6000610af882610a1a565b9050919050565b610b0881610aed565b8114610b1357600080fd5b50565b600081359050610b2581610aff565b92915050565b600060208284031215610b4157610b40610ae8565b5b6000610b4f84828501610b16565b91505092915050565b610b6181610ab4565b8114610b6c57600080fd5b50565b600081359050610b7e81610b58565b92915050565b60008060408385031215610b9b57610b9a610ae8565b5b6000610ba985828601610b6f565b9250506020610bba85828601610b6f565b9150509250929050565b60008060408385031215610bdb57610bda610ae8565b5b6000610be985828601610b16565b9250506020610bfa85828601610b6f565b9150509250929050565b610c0d81610aed565b82525050565b6000606082019050610c286000830186610c04565b610c356020830185610c04565b610c426040830184610abe565b949350505050565b60008115159050919050565b610c5f81610c4a565b8114610c6a57600080fd5b50565b600081519050610c7c81610c56565b92915050565b600060208284031215610c9857610c97610ae8565b5b6000610ca684828501610c6d565b91505092915050565b6000602082019050610cc46000830184610c04565b92915050565b600081519050610cd981610b58565b92915050565b600060208284031215610cf557610cf4610ae8565b5b6000610d0384828501610cca565b91505092915050565b7f4e487b7100000000000000000000000000000000000000000000000000000000600052601160045260246000fd5b6000610d4682610ab4565b9150610d5183610ab4565b925082821015610d6457610d63610d0c565b5b828203905092915050565b6000610d7a82610ab4565b9150610d8583610ab4565b9250827fffffffffffffffffffffffffffffffffffffffffffffffffffffffffffffffff03821115610dba57610db9610d0c565b5b828201905092915050565b6000610dd082610ab4565b9150610ddb83610ab4565b9250817fffffffffffffffffffffffffffffffffffffffffffffffffffffffffffffffff0483118215151615610e1457610e13610d0c565b5b828202905092915050565b7f4e487b7100000000000000000000000000000000000000000000000000000000600052601260045260246000fd5b6000610e5982610ab4565b9150610e6483610ab4565b925082610e7457610e73610e1f565b5b828204905092915050565b600082825260208201905092915050565b7f736861726573203d203000000000000000000000000000000000000000000000600082015250565b6000610ec6600a83610e7f565b9150610ed182610e90565b602082019050919050565b60006020820190508181036000830152610ef581610eb9565b9050919050565b7f696e76616c696420746f6b656e00000000000000000000000000000000000000600082015250565b6000610f32600d83610e7f565b9150610f3d82610efc565b602082019050919050565b60006020820190508181036000830152610f6181610f25565b9050919050565b6000604082019050610f7d6000830185610c04565b610f8a6020830184610abe565b939250505056fea26469706673582212204cecb9f591b0933149064d994cbc05e38992d12d371bbb475d16765ef621673964736f6c634300080d0033",
					"opcodes": "PUSH1 0xC0 PUSH1 0x40 MSTORE CALLVALUE DUP1 ISZERO PUSH3 0x11 JUMPI PUSH1 0x0 DUP1 REVERT JUMPDEST POP PUSH1 0x40 MLOAD PUSH3 0x11AD CODESIZE SUB DUP1 PUSH3 0x11AD DUP4 CODECOPY DUP2 DUP2 ADD PUSH1 0x40 MSTORE DUP2 ADD SWAP1 PUSH3 0x37 SWAP2 SWAP1 PUSH3 0x125 JUMP JUMPDEST DUP2 PUSH20 0xFFFFFFFFFFFFFFFFFFFFFFFFFFFFFFFFFFFFFFFF AND PUSH1 0x80 DUP2 PUSH20 0xFFFFFFFFFFFFFFFFFFFFFFFFFFFFFFFFFFFFFFFF AND DUP2 MSTORE POP POP DUP1 PUSH20 0xFFFFFFFFFFFFFFFFFFFFFFFFFFFFFFFFFFFFFFFF AND PUSH1 0xA0 DUP2 PUSH20 0xFFFFFFFFFFFFFFFFFFFFFFFFFFFFFFFFFFFFFFFF AND DUP2 MSTORE POP POP POP POP PUSH3 0x16C JUMP JUMPDEST PUSH1 0x0 DUP1 REVERT JUMPDEST PUSH1 0x0 PUSH20 0xFFFFFFFFFFFFFFFFFFFFFFFFFFFFFFFFFFFFFFFF DUP3 AND SWAP1 POP SWAP2 SWAP1 POP JUMP JUMPDEST PUSH1 0x0 PUSH3 0xD9 DUP3 PUSH3 0xAC JUMP JUMPDEST SWAP1 POP SWAP2 SWAP1 POP JUMP JUMPDEST PUSH1 0x0 PUSH3 0xED DUP3 PUSH3 0xCC JUMP JUMPDEST SWAP1 POP SWAP2 SWAP1 POP JUMP JUMPDEST PUSH3 0xFF DUP2 PUSH3 0xE0 JUMP JUMPDEST DUP2 EQ PUSH3 0x10B JUMPI PUSH1 0x0 DUP1 REVERT JUMPDEST POP JUMP JUMPDEST PUSH1 0x0 DUP2 MLOAD SWAP1 POP PUSH3 0x11F DUP2 PUSH3 0xF4 JUMP JUMPDEST SWAP3 SWAP2 POP POP JUMP JUMPDEST PUSH1 0x0 DUP1 PUSH1 0x40 DUP4 DUP6 SUB SLT ISZERO PUSH3 0x13F JUMPI PUSH3 0x13E PUSH3 0xA7 JUMP JUMPDEST JUMPDEST PUSH1 0x0 PUSH3 0x14F DUP6 DUP3 DUP7 ADD PUSH3 0x10E JUMP JUMPDEST SWAP3 POP POP PUSH1 0x20 PUSH3 0x162 DUP6 DUP3 DUP7 ADD PUSH3 0x10E JUMP JUMPDEST SWAP2 POP POP SWAP3 POP SWAP3 SWAP1 POP JUMP JUMPDEST PUSH1 0x80 MLOAD PUSH1 0xA0 MLOAD PUSH2 0xFC7 PUSH3 0x1E6 PUSH1 0x0 CODECOPY PUSH1 0x0 DUP2 DUP2 PUSH2 0x2BD ADD MSTORE DUP2 DUP2 PUSH2 0x3FE ADD MSTORE DUP2 DUP2 PUSH2 0x5C8 ADD MSTORE DUP2 DUP2 PUSH2 0x6B5 ADD MSTORE DUP2 DUP2 PUSH2 0x723 ADD MSTORE PUSH2 0x973 ADD MSTORE PUSH1 0x0 DUP2 DUP2 PUSH2 0x1CA ADD MSTORE DUP2 DUP2 PUSH2 0x21C ADD MSTORE DUP2 DUP2 PUSH2 0x360 ADD MSTORE DUP2 DUP2 PUSH2 0x573 ADD MSTORE DUP2 DUP2 PUSH2 0x659 ADD MSTORE DUP2 DUP2 PUSH2 0x6D6 ADD MSTORE DUP2 DUP2 PUSH2 0x702 ADD MSTORE PUSH2 0x7D7 ADD MSTORE PUSH2 0xFC7 PUSH1 0x0 RETURN INVALID PUSH1 0x80 PUSH1 0x40 MSTORE CALLVALUE DUP1 ISZERO PUSH2 0x10 JUMPI PUSH1 0x0 DUP1 REVERT JUMPDEST POP PUSH1 0x4 CALLDATASIZE LT PUSH2 0x93 JUMPI PUSH1 0x0 CALLDATALOAD PUSH1 0xE0 SHR DUP1 PUSH4 0x67B9A286 GT PUSH2 0x66 JUMPI DUP1 PUSH4 0x67B9A286 EQ PUSH2 0x110 JUMPI DUP1 PUSH4 0x70A08231 EQ PUSH2 0x11A JUMPI DUP1 PUSH4 0x9CD441DA EQ PUSH2 0x14A JUMPI DUP1 PUSH4 0xD004F0F7 EQ PUSH2 0x17A JUMPI DUP1 PUSH4 0xD21220A7 EQ PUSH2 0x1AA JUMPI PUSH2 0x93 JUMP JUMPDEST DUP1 PUSH4 0xDFE1681 EQ PUSH2 0x98 JUMPI DUP1 PUSH4 0x18160DDD EQ PUSH2 0xB6 JUMPI DUP1 PUSH4 0x443CB4BC EQ PUSH2 0xD4 JUMPI DUP1 PUSH4 0x5A76F25E EQ PUSH2 0xF2 JUMPI JUMPDEST PUSH1 0x0 DUP1 REVERT JUMPDEST PUSH2 0xA0 PUSH2 0x1C8 JUMP JUMPDEST PUSH1 0x40 MLOAD PUSH2 0xAD SWAP2 SWAP1 PUSH2 0xA99 JUMP JUMPDEST PUSH1 0x40 MLOAD DUP1 SWAP2 SUB SWAP1 RETURN JUMPDEST PUSH2 0xBE PUSH2 0x1EC JUMP JUMPDEST PUSH1 0x40 MLOAD PUSH2 0xCB SWAP2 SWAP1 PUSH2 0xACD JUMP JUMPDEST PUSH1 0x40 MLOAD DUP1 SWAP2 SUB SWAP1 RETURN JUMPDEST PUSH2 0xDC PUSH2 0x1F2 JUMP JUMPDEST PUSH1 0x40 MLOAD PUSH2 0xE9 SWAP2 SWAP1 PUSH2 0xACD JUMP JUMPDEST PUSH1 0x40 MLOAD DUP1 SWAP2 SUB SWAP1 RETURN JUMPDEST PUSH2 0xFA PUSH2 0x1F8 JUMP JUMPDEST PUSH1 0x40 MLOAD PUSH2 0x107 SWAP2 SWAP1 PUSH2 0xACD JUMP JUMPDEST PUSH1 0x40 MLOAD DUP1 SWAP2 SUB SWAP1 RETURN JUMPDEST PUSH2 0x118 PUSH2 0x1FE JUMP JUMPDEST STOP JUMPDEST PUSH2 0x134 PUSH1 0x4 DUP1 CALLDATASIZE SUB DUP2 ADD SWAP1 PUSH2 0x12F SWAP2 SWAP1 PUSH2 0xB2B JUMP JUMPDEST PUSH2 0x200 JUMP JUMPDEST PUSH1 0x40 MLOAD PUSH2 0x141 SWAP2 SWAP1 PUSH2 0xACD JUMP JUMPDEST PUSH1 0x40 MLOAD DUP1 SWAP2 SUB SWAP1 RETURN JUMPDEST PUSH2 0x164 PUSH1 0x4 DUP1 CALLDATASIZE SUB DUP2 ADD SWAP1 PUSH2 0x15F SWAP2 SWAP1 PUSH2 0xB84 JUMP JUMPDEST PUSH2 0x218 JUMP JUMPDEST PUSH1 0x40 MLOAD PUSH2 0x171 SWAP2 SWAP1 PUSH2 0xACD JUMP JUMPDEST PUSH1 0x40 MLOAD DUP1 SWAP2 SUB SWAP1 RETURN JUMPDEST PUSH2 0x194 PUSH1 0x4 DUP1 CALLDATASIZE SUB DUP2 ADD SWAP1 PUSH2 0x18F SWAP2 SWAP1 PUSH2 0xBC4 JUMP JUMPDEST PUSH2 0x56F JUMP JUMPDEST PUSH1 0x40 MLOAD PUSH2 0x1A1 SWAP2 SWAP1 PUSH2 0xACD JUMP JUMPDEST PUSH1 0x40 MLOAD DUP1 SWAP2 SUB SWAP1 RETURN JUMPDEST PUSH2 0x1B2 PUSH2 0x971 JUMP JUMPDEST PUSH1 0x40 MLOAD PUSH2 0x1BF SWAP2 SWAP1 PUSH2 0xA99 JUMP JUMPDEST PUSH1 0x40 MLOAD DUP1 SWAP2 SUB SWAP1 RETURN JUMPDEST PUSH32 0x0 DUP2 JUMP JUMPDEST PUSH1 0x2 SLOAD DUP2 JUMP JUMPDEST PUSH1 0x0 SLOAD DUP2 JUMP JUMPDEST PUSH1 0x1 SLOAD DUP2 JUMP JUMPDEST JUMP JUMPDEST PUSH1 0x3 PUSH1 0x20 MSTORE DUP1 PUSH1 0x0 MSTORE PUSH1 0x40 PUSH1 0x0 KECCAK256 PUSH1 0x0 SWAP2 POP SWAP1 POP SLOAD DUP2 JUMP JUMPDEST PUSH1 0x0 PUSH32 0x0 PUSH20 0xFFFFFFFFFFFFFFFFFFFFFFFFFFFFFFFFFFFFFFFF AND PUSH4 0x23B872DD CALLER ADDRESS DUP7 PUSH1 0x40 MLOAD DUP5 PUSH4 0xFFFFFFFF AND PUSH1 0xE0 SHL DUP2 MSTORE PUSH1 0x4 ADD PUSH2 0x277 SWAP4 SWAP3 SWAP2 SWAP1 PUSH2 0xC13 JUMP JUMPDEST PUSH1 0x20 PUSH1 0x40 MLOAD DUP1 DUP4 SUB DUP2 PUSH1 0x0 DUP8 GAS CALL ISZERO DUP1 ISZERO PUSH2 0x296 JUMPI RETURNDATASIZE PUSH1 0x0 DUP1 RETURNDATACOPY RETURNDATASIZE PUSH1 0x0 REVERT JUMPDEST POP POP POP POP PUSH1 0x40 MLOAD RETURNDATASIZE PUSH1 0x1F NOT PUSH1 0x1F DUP3 ADD AND DUP3 ADD DUP1 PUSH1 0x40 MSTORE POP DUP2 ADD SWAP1 PUSH2 0x2BA SWAP2 SWAP1 PUSH2 0xC82 JUMP JUMPDEST POP PUSH32 0x0 PUSH20 0xFFFFFFFFFFFFFFFFFFFFFFFFFFFFFFFFFFFFFFFF AND PUSH4 0x23B872DD CALLER ADDRESS DUP6 PUSH1 0x40 MLOAD DUP5 PUSH4 0xFFFFFFFF AND PUSH1 0xE0 SHL DUP2 MSTORE PUSH1 0x4 ADD PUSH2 0x318 SWAP4 SWAP3 SWAP2 SWAP1 PUSH2 0xC13 JUMP JUMPDEST PUSH1 0x20 PUSH1 0x40 MLOAD DUP1 DUP4 SUB DUP2 PUSH1 0x0 DUP8 GAS CALL ISZERO DUP1 ISZERO PUSH2 0x337 JUMPI RETURNDATASIZE PUSH1 0x0 DUP1 RETURNDATACOPY RETURNDATASIZE PUSH1 0x0 REVERT JUMPDEST POP POP POP POP PUSH1 0x40 MLOAD RETURNDATASIZE PUSH1 0x1F NOT PUSH1 0x1F DUP3 ADD AND DUP3 ADD DUP1 PUSH1 0x40 MSTORE POP DUP2 ADD SWAP1 PUSH2 0x35B SWAP2 SWAP1 PUSH2 0xC82 JUMP JUMPDEST POP PUSH1 0x0 PUSH32 0x0 PUSH20 0xFFFFFFFFFFFFFFFFFFFFFFFFFFFFFFFFFFFFFFFF AND PUSH4 0x70A08231 ADDRESS PUSH1 0x40 MLOAD DUP3 PUSH4 0xFFFFFFFF AND PUSH1 0xE0 SHL DUP2 MSTORE PUSH1 0x4 ADD PUSH2 0x3B7 SWAP2 SWAP1 PUSH2 0xCAF JUMP JUMPDEST PUSH1 0x20 PUSH1 0x40 MLOAD DUP1 DUP4 SUB DUP2 DUP7 GAS STATICCALL ISZERO DUP1 ISZERO PUSH2 0x3D4 JUMPI RETURNDATASIZE PUSH1 0x0 DUP1 RETURNDATACOPY RETURNDATASIZE PUSH1 0x0 REVERT JUMPDEST POP POP POP POP PUSH1 0x40 MLOAD RETURNDATASIZE PUSH1 0x1F NOT PUSH1 0x1F DUP3 ADD AND DUP3 ADD DUP1 PUSH1 0x40 MSTORE POP DUP2 ADD SWAP1 PUSH2 0x3F8 SWAP2 SWAP1 PUSH2 0xCDF JUMP JUMPDEST SWAP1 POP PUSH1 0x0 PUSH32 0x0 PUSH20 0xFFFFFFFFFFFFFFFFFFFFFFFFFFFFFFFFFFFFFFFF AND PUSH4 0x70A08231 ADDRESS PUSH1 0x40 MLOAD DUP3 PUSH4 0xFFFFFFFF AND PUSH1 0xE0 SHL DUP2 MSTORE PUSH1 0x4 ADD PUSH2 0x455 SWAP2 SWAP1 PUSH2 0xCAF JUMP JUMPDEST PUSH1 0x20 PUSH1 0x40 MLOAD DUP1 DUP4 SUB DUP2 DUP7 GAS STATICCALL ISZERO DUP1 ISZERO PUSH2 0x472 JUMPI RETURNDATASIZE PUSH1 0x0 DUP1 RETURNDATACOPY RETURNDATASIZE PUSH1 0x0 REVERT JUMPDEST POP POP POP POP PUSH1 0x40 MLOAD RETURNDATASIZE PUSH1 0x1F NOT PUSH1 0x1F DUP3 ADD AND DUP3 ADD DUP1 PUSH1 0x40 MSTORE POP DUP2 ADD SWAP1 PUSH2 0x496 SWAP2 SWAP1 PUSH2 0xCDF JUMP JUMPDEST SWAP1 POP PUSH1 0x0 DUP1 SLOAD DUP4 PUSH2 0x4A7 SWAP2 SWAP1 PUSH2 0xD3B JUMP JUMPDEST SWAP1 POP PUSH1 0x0 PUSH1 0x1 SLOAD DUP4 PUSH2 0x4B9 SWAP2 SWAP1 PUSH2 0xD3B JUMP JUMPDEST SWAP1 POP PUSH1 0x0 PUSH1 0x2 SLOAD SUB PUSH2 0x4D8 JUMPI DUP1 DUP3 PUSH2 0x4D1 SWAP2 SWAP1 PUSH2 0xD6F JUMP JUMPDEST SWAP5 POP PUSH2 0x50E JUMP JUMPDEST PUSH1 0x1 SLOAD PUSH1 0x0 SLOAD PUSH2 0x4E8 SWAP2 SWAP1 PUSH2 0xD6F JUMP JUMPDEST PUSH1 0x2 SLOAD DUP3 DUP5 PUSH2 0x4F7 SWAP2 SWAP1 PUSH2 0xD6F JUMP JUMPDEST PUSH2 0x501 SWAP2 SWAP1 PUSH2 0xDC5 JUMP JUMPDEST PUSH2 0x50B SWAP2 SWAP1 PUSH2 0xE4E JUMP JUMPDEST SWAP5 POP JUMPDEST PUSH1 0x0 DUP6 GT PUSH2 0x551 JUMPI PUSH1 0x40 MLOAD PUSH32 0x8C379A000000000000000000000000000000000000000000000000000000000 DUP2 MSTORE PUSH1 0x4 ADD PUSH2 0x548 SWAP1 PUSH2 0xEDC JUMP JUMPDEST PUSH1 0x40 MLOAD DUP1 SWAP2 SUB SWAP1 REVERT JUMPDEST PUSH2 0x55B CALLER DUP7 PUSH2 0x995 JUMP JUMPDEST PUSH2 0x565 DUP5 DUP5 PUSH2 0xA08 JUMP JUMPDEST POP POP POP POP SWAP3 SWAP2 POP POP JUMP JUMPDEST PUSH1 0x0 PUSH32 0x0 PUSH20 0xFFFFFFFFFFFFFFFFFFFFFFFFFFFFFFFFFFFFFFFF AND DUP4 PUSH20 0xFFFFFFFFFFFFFFFFFFFFFFFFFFFFFFFFFFFFFFFF AND EQ DUP1 PUSH2 0x616 JUMPI POP PUSH32 0x0 PUSH20 0xFFFFFFFFFFFFFFFFFFFFFFFFFFFFFFFFFFFFFFFF AND DUP4 PUSH20 0xFFFFFFFFFFFFFFFFFFFFFFFFFFFFFFFFFFFFFFFF AND EQ JUMPDEST PUSH2 0x655 JUMPI PUSH1 0x40 MLOAD PUSH32 0x8C379A000000000000000000000000000000000000000000000000000000000 DUP2 MSTORE PUSH1 0x4 ADD PUSH2 0x64C SWAP1 PUSH2 0xF48 JUMP JUMPDEST PUSH1 0x40 MLOAD DUP1 SWAP2 SUB SWAP1 REVERT JUMPDEST PUSH1 0x0 PUSH32 0x0 PUSH20 0xFFFFFFFFFFFFFFFFFFFFFFFFFFFFFFFFFFFFFFFF AND DUP5 PUSH20 0xFFFFFFFFFFFFFFFFFFFFFFFFFFFFFFFFFFFFFFFF AND EQ SWAP1 POP PUSH1 0x0 DUP1 PUSH1 0x0 DUP1 DUP5 PUSH2 0x700 JUMPI PUSH32 0x0 PUSH32 0x0 PUSH1 0x1 SLOAD PUSH1 0x0 SLOAD PUSH2 0x749 JUMP JUMPDEST PUSH32 0x0 PUSH32 0x0 PUSH1 0x0 SLOAD PUSH1 0x1 SLOAD JUMPDEST SWAP4 POP SWAP4 POP SWAP4 POP SWAP4 POP DUP4 PUSH20 0xFFFFFFFFFFFFFFFFFFFFFFFFFFFFFFFFFFFFFFFF AND PUSH4 0x23B872DD CALLER ADDRESS DUP11 PUSH1 0x40 MLOAD DUP5 PUSH4 0xFFFFFFFF AND PUSH1 0xE0 SHL DUP2 MSTORE PUSH1 0x4 ADD PUSH2 0x78E SWAP4 SWAP3 SWAP2 SWAP1 PUSH2 0xC13 JUMP JUMPDEST PUSH1 0x20 PUSH1 0x40 MLOAD DUP1 DUP4 SUB DUP2 PUSH1 0x0 DUP8 GAS CALL ISZERO DUP1 ISZERO PUSH2 0x7AD JUMPI RETURNDATASIZE PUSH1 0x0 DUP1 RETURNDATACOPY RETURNDATASIZE PUSH1 0x0 REVERT JUMPDEST POP POP POP POP PUSH1 0x40 MLOAD RETURNDATASIZE PUSH1 0x1F NOT PUSH1 0x1F DUP3 ADD AND DUP3 ADD DUP1 PUSH1 0x40 MSTORE POP DUP2 ADD SWAP1 PUSH2 0x7D1 SWAP2 SWAP1 PUSH2 0xC82 JUMP JUMPDEST POP PUSH1 0x0 DUP3 PUSH32 0x0 PUSH20 0xFFFFFFFFFFFFFFFFFFFFFFFFFFFFFFFFFFFFFFFF AND PUSH4 0x70A08231 ADDRESS PUSH1 0x40 MLOAD DUP3 PUSH4 0xFFFFFFFF AND PUSH1 0xE0 SHL DUP2 MSTORE PUSH1 0x4 ADD PUSH2 0x82E SWAP2 SWAP1 PUSH2 0xCAF JUMP JUMPDEST PUSH1 0x20 PUSH1 0x40 MLOAD DUP1 DUP4 SUB DUP2 DUP7 GAS STATICCALL ISZERO DUP1 ISZERO PUSH2 0x84B JUMPI RETURNDATASIZE PUSH1 0x0 DUP1 RETURNDATACOPY RETURNDATASIZE PUSH1 0x0 REVERT JUMPDEST POP POP POP POP PUSH1 0x40 MLOAD RETURNDATASIZE PUSH1 0x1F NOT PUSH1 0x1F DUP3 ADD AND DUP3 ADD DUP1 PUSH1 0x40 MSTORE POP DUP2 ADD SWAP1 PUSH2 0x86F SWAP2 SWAP1 PUSH2 0xCDF JUMP JUMPDEST PUSH2 0x879 SWAP2 SWAP1 PUSH2 0xD3B JUMP JUMPDEST SWAP1 POP PUSH2 0x3E8 PUSH2 0x3E5 DUP3 PUSH2 0x88C SWAP2 SWAP1 PUSH2 0xDC5 JUMP JUMPDEST PUSH2 0x896 SWAP2 SWAP1 PUSH2 0xE4E JUMP JUMPDEST SWAP7 POP PUSH1 0x0 DUP1 DUP8 PUSH2 0x8BD JUMPI DUP9 DUP5 PUSH2 0x8AC SWAP2 SWAP1 PUSH2 0xD3B JUMP JUMPDEST DUP11 DUP7 PUSH2 0x8B8 SWAP2 SWAP1 PUSH2 0xD6F JUMP JUMPDEST PUSH2 0x8D6 JUMP JUMPDEST DUP10 DUP6 PUSH2 0x8C9 SWAP2 SWAP1 PUSH2 0xD6F JUMP JUMPDEST DUP10 DUP6 PUSH2 0x8D5 SWAP2 SWAP1 PUSH2 0xD3B JUMP JUMPDEST JUMPDEST SWAP2 POP SWAP2 POP PUSH2 0x8E4 DUP3 DUP3 PUSH2 0xA08 JUMP JUMPDEST DUP6 PUSH20 0xFFFFFFFFFFFFFFFFFFFFFFFFFFFFFFFFFFFFFFFF AND PUSH4 0xA9059CBB CALLER DUP12 PUSH1 0x40 MLOAD DUP4 PUSH4 0xFFFFFFFF AND PUSH1 0xE0 SHL DUP2 MSTORE PUSH1 0x4 ADD PUSH2 0x91F SWAP3 SWAP2 SWAP1 PUSH2 0xF68 JUMP JUMPDEST PUSH1 0x20 PUSH1 0x40 MLOAD DUP1 DUP4 SUB DUP2 PUSH1 0x0 DUP8 GAS CALL ISZERO DUP1 ISZERO PUSH2 0x93E JUMPI RETURNDATASIZE PUSH1 0x0 DUP1 RETURNDATACOPY RETURNDATASIZE PUSH1 0x0 REVERT JUMPDEST POP POP POP POP PUSH1 0x40 MLOAD RETURNDATASIZE PUSH1 0x1F NOT PUSH1 0x1F DUP3 ADD AND DUP3 ADD DUP1 PUSH1 0x40 MSTORE POP DUP2 ADD SWAP1 PUSH2 0x962 SWAP2 SWAP1 PUSH2 0xC82 JUMP JUMPDEST POP POP POP POP POP POP POP POP POP SWAP3 SWAP2 POP POP JUMP JUMPDEST PUSH32 0x0 DUP2 JUMP JUMPDEST DUP1 PUSH1 0x3 PUSH1 0x0 DUP5 PUSH20 0xFFFFFFFFFFFFFFFFFFFFFFFFFFFFFFFFFFFFFFFF AND PUSH20 0xFFFFFFFFFFFFFFFFFFFFFFFFFFFFFFFFFFFFFFFF AND DUP2 MSTORE PUSH1 0x20 ADD SWAP1 DUP2 MSTORE PUSH1 0x20 ADD PUSH1 0x0 KECCAK256 PUSH1 0x0 DUP3 DUP3 SLOAD PUSH2 0x9E4 SWAP2 SWAP1 PUSH2 0xD6F JUMP JUMPDEST SWAP3 POP POP DUP2 SWAP1 SSTORE POP DUP1 PUSH1 0x2 PUSH1 0x0 DUP3 DUP3 SLOAD PUSH2 0x9FD SWAP2 SWAP1 PUSH2 0xD6F JUMP JUMPDEST SWAP3 POP POP DUP2 SWAP1 SSTORE POP POP POP JUMP JUMPDEST DUP2 PUSH1 0x0 DUP2 SWAP1 SSTORE POP DUP1 PUSH1 0x1 DUP2 SWAP1 SSTORE POP POP POP JUMP JUMPDEST PUSH1 0x0 PUSH20 0xFFFFFFFFFFFFFFFFFFFFFFFFFFFFFFFFFFFFFFFF DUP3 AND SWAP1 POP SWAP2 SWAP1 POP JUMP JUMPDEST PUSH1 0x0 DUP2 SWAP1 POP SWAP2 SWAP1 POP JUMP JUMPDEST PUSH1 0x0 PUSH2 0xA5F PUSH2 0xA5A PUSH2 0xA55 DUP5 PUSH2 0xA1A JUMP JUMPDEST PUSH2 0xA3A JUMP JUMPDEST PUSH2 0xA1A JUMP JUMPDEST SWAP1 POP SWAP2 SWAP1 POP JUMP JUMPDEST PUSH1 0x0 PUSH2 0xA71 DUP3 PUSH2 0xA44 JUMP JUMPDEST SWAP1 POP SWAP2 SWAP1 POP JUMP JUMPDEST PUSH1 0x0 PUSH2 0xA83 DUP3 PUSH2 0xA66 JUMP JUMPDEST SWAP1 POP SWAP2 SWAP1 POP JUMP JUMPDEST PUSH2 0xA93 DUP2 PUSH2 0xA78 JUMP JUMPDEST DUP3 MSTORE POP POP JUMP JUMPDEST PUSH1 0x0 PUSH1 0x20 DUP3 ADD SWAP1 POP PUSH2 0xAAE PUSH1 0x0 DUP4 ADD DUP5 PUSH2 0xA8A JUMP JUMPDEST SWAP3 SWAP2 POP POP JUMP JUMPDEST PUSH1 0x0 DUP2 SWAP1 POP SWAP2 SWAP1 POP JUMP JUMPDEST PUSH2 0xAC7 DUP2 PUSH2 0xAB4 JUMP JUMPDEST DUP3 MSTORE POP POP JUMP JUMPDEST PUSH1 0x0 PUSH1 0x20 DUP3 ADD SWAP1 POP PUSH2 0xAE2 PUSH1 0x0 DUP4 ADD DUP5 PUSH2 0xABE JUMP JUMPDEST SWAP3 SWAP2 POP POP JUMP JUMPDEST PUSH1 0x0 DUP1 REVERT JUMPDEST PUSH1 0x0 PUSH2 0xAF8 DUP3 PUSH2 0xA1A JUMP JUMPDEST SWAP1 POP SWAP2 SWAP1 POP JUMP JUMPDEST PUSH2 0xB08 DUP2 PUSH2 0xAED JUMP JUMPDEST DUP2 EQ PUSH2 0xB13 JUMPI PUSH1 0x0 DUP1 REVERT JUMPDEST POP JUMP JUMPDEST PUSH1 0x0 DUP2 CALLDATALOAD SWAP1 POP PUSH2 0xB25 DUP2 PUSH2 0xAFF JUMP JUMPDEST SWAP3 SWAP2 POP POP JUMP JUMPDEST PUSH1 0x0 PUSH1 0x20 DUP3 DUP5 SUB SLT ISZERO PUSH2 0xB41 JUMPI PUSH2 0xB40 PUSH2 0xAE8 JUMP JUMPDEST JUMPDEST PUSH1 0x0 PUSH2 0xB4F DUP5 DUP3 DUP6 ADD PUSH2 0xB16 JUMP JUMPDEST SWAP2 POP POP SWAP3 SWAP2 POP POP JUMP JUMPDEST PUSH2 0xB61 DUP2 PUSH2 0xAB4 JUMP JUMPDEST DUP2 EQ PUSH2 0xB6C JUMPI PUSH1 0x0 DUP1 REVERT JUMPDEST POP JUMP JUMPDEST PUSH1 0x0 DUP2 CALLDATALOAD SWAP1 POP PUSH2 0xB7E DUP2 PUSH2 0xB58 JUMP JUMPDEST SWAP3 SWAP2 POP POP JUMP JUMPDEST PUSH1 0x0 DUP1 PUSH1 0x40 DUP4 DUP6 SUB SLT ISZERO PUSH2 0xB9B JUMPI PUSH2 0xB9A PUSH2 0xAE8 JUMP JUMPDEST JUMPDEST PUSH1 0x0 PUSH2 0xBA9 DUP6 DUP3 DUP7 ADD PUSH2 0xB6F JUMP JUMPDEST SWAP3 POP POP PUSH1 0x20 PUSH2 0xBBA DUP6 DUP3 DUP7 ADD PUSH2 0xB6F JUMP JUMPDEST SWAP2 POP POP SWAP3 POP SWAP3 SWAP1 POP JUMP JUMPDEST PUSH1 0x0 DUP1 PUSH1 0x40 DUP4 DUP6 SUB SLT ISZERO PUSH2 0xBDB JUMPI PUSH2 0xBDA PUSH2 0xAE8 JUMP JUMPDEST JUMPDEST PUSH1 0x0 PUSH2 0xBE9 DUP6 DUP3 DUP7 ADD PUSH2 0xB16 JUMP JUMPDEST SWAP3 POP POP PUSH1 0x20 PUSH2 0xBFA DUP6 DUP3 DUP7 ADD PUSH2 0xB6F JUMP JUMPDEST SWAP2 POP POP SWAP3 POP SWAP3 SWAP1 POP JUMP JUMPDEST PUSH2 0xC0D DUP2 PUSH2 0xAED JUMP JUMPDEST DUP3 MSTORE POP POP JUMP JUMPDEST PUSH1 0x0 PUSH1 0x60 DUP3 ADD SWAP1 POP PUSH2 0xC28 PUSH1 0x0 DUP4 ADD DUP7 PUSH2 0xC04 JUMP JUMPDEST PUSH2 0xC35 PUSH1 0x20 DUP4 ADD DUP6 PUSH2 0xC04 JUMP JUMPDEST PUSH2 0xC42 PUSH1 0x40 DUP4 ADD DUP5 PUSH2 0xABE JUMP JUMPDEST SWAP5 SWAP4 POP POP POP POP JUMP JUMPDEST PUSH1 0x0 DUP2 ISZERO ISZERO SWAP1 POP SWAP2 SWAP1 POP JUMP JUMPDEST PUSH2 0xC5F DUP2 PUSH2 0xC4A JUMP JUMPDEST DUP2 EQ PUSH2 0xC6A JUMPI PUSH1 0x0 DUP1 REVERT JUMPDEST POP JUMP JUMPDEST PUSH1 0x0 DUP2 MLOAD SWAP1 POP PUSH2 0xC7C DUP2 PUSH2 0xC56 JUMP JUMPDEST SWAP3 SWAP2 POP POP JUMP JUMPDEST PUSH1 0x0 PUSH1 0x20 DUP3 DUP5 SUB SLT ISZERO PUSH2 0xC98 JUMPI PUSH2 0xC97 PUSH2 0xAE8 JUMP JUMPDEST JUMPDEST PUSH1 0x0 PUSH2 0xCA6 DUP5 DUP3 DUP6 ADD PUSH2 0xC6D JUMP JUMPDEST SWAP2 POP POP SWAP3 SWAP2 POP POP JUMP JUMPDEST PUSH1 0x0 PUSH1 0x20 DUP3 ADD SWAP1 POP PUSH2 0xCC4 PUSH1 0x0 DUP4 ADD DUP5 PUSH2 0xC04 JUMP JUMPDEST SWAP3 SWAP2 POP POP JUMP JUMPDEST PUSH1 0x0 DUP2 MLOAD SWAP1 POP PUSH2 0xCD9 DUP2 PUSH2 0xB58 JUMP JUMPDEST SWAP3 SWAP2 POP POP JUMP JUMPDEST PUSH1 0x0 PUSH1 0x20 DUP3 DUP5 SUB SLT ISZERO PUSH2 0xCF5 JUMPI PUSH2 0xCF4 PUSH2 0xAE8 JUMP JUMPDEST JUMPDEST PUSH1 0x0 PUSH2 0xD03 DUP5 DUP3 DUP6 ADD PUSH2 0xCCA JUMP JUMPDEST SWAP2 POP POP SWAP3 SWAP2 POP POP JUMP JUMPDEST PUSH32 0x4E487B7100000000000000000000000000000000000000000000000000000000 PUSH1 0x0 MSTORE PUSH1 0x11 PUSH1 0x4 MSTORE PUSH1 0x24 PUSH1 0x0 REVERT JUMPDEST PUSH1 0x0 PUSH2 0xD46 DUP3 PUSH2 0xAB4 JUMP JUMPDEST SWAP2 POP PUSH2 0xD51 DUP4 PUSH2 0xAB4 JUMP JUMPDEST SWAP3 POP DUP3 DUP3 LT ISZERO PUSH2 0xD64 JUMPI PUSH2 0xD63 PUSH2 0xD0C JUMP JUMPDEST JUMPDEST DUP3 DUP3 SUB SWAP1 POP SWAP3 SWAP2 POP POP JUMP JUMPDEST PUSH1 0x0 PUSH2 0xD7A DUP3 PUSH2 0xAB4 JUMP JUMPDEST SWAP2 POP PUSH2 0xD85 DUP4 PUSH2 0xAB4 JUMP JUMPDEST SWAP3 POP DUP3 PUSH32 0xFFFFFFFFFFFFFFFFFFFFFFFFFFFFFFFFFFFFFFFFFFFFFFFFFFFFFFFFFFFFFFFF SUB DUP3 GT ISZERO PUSH2 0xDBA JUMPI PUSH2 0xDB9 PUSH2 0xD0C JUMP JUMPDEST JUMPDEST DUP3 DUP3 ADD SWAP1 POP SWAP3 SWAP2 POP POP JUMP JUMPDEST PUSH1 0x0 PUSH2 0xDD0 DUP3 PUSH2 0xAB4 JUMP JUMPDEST SWAP2 POP PUSH2 0xDDB DUP4 PUSH2 0xAB4 JUMP JUMPDEST SWAP3 POP DUP2 PUSH32 0xFFFFFFFFFFFFFFFFFFFFFFFFFFFFFFFFFFFFFFFFFFFFFFFFFFFFFFFFFFFFFFFF DIV DUP4 GT DUP3 ISZERO ISZERO AND ISZERO PUSH2 0xE14 JUMPI PUSH2 0xE13 PUSH2 0xD0C JUMP JUMPDEST JUMPDEST DUP3 DUP3 MUL SWAP1 POP SWAP3 SWAP2 POP POP JUMP JUMPDEST PUSH32 0x4E487B7100000000000000000000000000000000000000000000000000000000 PUSH1 0x0 MSTORE PUSH1 0x12 PUSH1 0x4 MSTORE PUSH1 0x24 PUSH1 0x0 REVERT JUMPDEST PUSH1 0x0 PUSH2 0xE59 DUP3 PUSH2 0xAB4 JUMP JUMPDEST SWAP2 POP PUSH2 0xE64 DUP4 PUSH2 0xAB4 JUMP JUMPDEST SWAP3 POP DUP3 PUSH2 0xE74 JUMPI PUSH2 0xE73 PUSH2 0xE1F JUMP JUMPDEST JUMPDEST DUP3 DUP3 DIV SWAP1 POP SWAP3 SWAP2 POP POP JUMP JUMPDEST PUSH1 0x0 DUP3 DUP3 MSTORE PUSH1 0x20 DUP3 ADD SWAP1 POP SWAP3 SWAP2 POP POP JUMP JUMPDEST PUSH32 0x736861726573203D203000000000000000000000000000000000000000000000 PUSH1 0x0 DUP3 ADD MSTORE POP JUMP JUMPDEST PUSH1 0x0 PUSH2 0xEC6 PUSH1 0xA DUP4 PUSH2 0xE7F JUMP JUMPDEST SWAP2 POP PUSH2 0xED1 DUP3 PUSH2 0xE90 JUMP JUMPDEST PUSH1 0x20 DUP3 ADD SWAP1 POP SWAP2 SWAP1 POP JUMP JUMPDEST PUSH1 0x0 PUSH1 0x20 DUP3 ADD SWAP1 POP DUP2 DUP2 SUB PUSH1 0x0 DUP4 ADD MSTORE PUSH2 0xEF5 DUP2 PUSH2 0xEB9 JUMP JUMPDEST SWAP1 POP SWAP2 SWAP1 POP JUMP JUMPDEST PUSH32 0x696E76616C696420746F6B656E00000000000000000000000000000000000000 PUSH1 0x0 DUP3 ADD MSTORE POP JUMP JUMPDEST PUSH1 0x0 PUSH2 0xF32 PUSH1 0xD DUP4 PUSH2 0xE7F JUMP JUMPDEST SWAP2 POP PUSH2 0xF3D DUP3 PUSH2 0xEFC JUMP JUMPDEST PUSH1 0x20 DUP3 ADD SWAP1 POP SWAP2 SWAP1 POP JUMP JUMPDEST PUSH1 0x0 PUSH1 0x20 DUP3 ADD SWAP1 POP DUP2 DUP2 SUB PUSH1 0x0 DUP4 ADD MSTORE PUSH2 0xF61 DUP2 PUSH2 0xF25 JUMP JUMPDEST SWAP1 POP SWAP2 SWAP1 POP JUMP JUMPDEST PUSH1 0x0 PUSH1 0x40 DUP3 ADD SWAP1 POP PUSH2 0xF7D PUSH1 0x0 DUP4 ADD DUP6 PUSH2 0xC04 JUMP JUMPDEST PUSH2 0xF8A PUSH1 0x20 DUP4 ADD DUP5 PUSH2 0xABE JUMP JUMPDEST SWAP4 SWAP3 POP POP POP JUMP INVALID LOG2 PUSH5 0x6970667358 0x22 SLT KECCAK256 0x4C 0xEC 0xB9 CREATE2 SWAP2 0xB0 SWAP4 BALANCE 0x49 MOD 0x4D SWAP10 0x4C 0xBC SDIV 0xE3 DUP10 SWAP3 0xD1 0x2D CALLDATACOPY SHL 0xBB SELFBALANCE 0x5D AND PUSH23 0x5EF621673964736F6C634300080D003300000000000000 "
				},
				"gasEstimates": {
					"creation": {
						"codeDepositCost": "807800",
						"executionCost": "infinite",
						"totalCost": "infinite"
					},
					"external": {
						"addLiquidity(uint256,uint256)": "infinite",
						"balanceOf(address)": "2836",
						"removeLiquidity()": "144",
						"reserve0()": "2474",
						"reserve1()": "2496",
						"swap(address,uint256)": "infinite",
						"token0()": "infinite",
						"token1()": "infinite",
						"totalSupply()": "2452"
					},
					"internal": {
						"_burn(address,uint256)": "infinite",
						"_mint(address,uint256)": "infinite",
						"_update(uint256,uint256)": "44241"
					}
				},
				"methodIdentifiers": {
					"addLiquidity(uint256,uint256)": "9cd441da",
					"balanceOf(address)": "70a08231",
					"removeLiquidity()": "67b9a286",
					"reserve0()": "443cb4bc",
					"reserve1()": "5a76f25e",
					"swap(address,uint256)": "d004f0f7",
					"token0()": "0dfe1681",
					"token1()": "d21220a7",
					"totalSupply()": "18160ddd"
				}
			},
			"storageLayout": {
				"storage": [
					{
						"astId": 10,
						"contract": "contracts/DeFi/CSAMM2.sol:CSAMM",
						"label": "reserve0",
						"offset": 0,
						"slot": "0",
						"type": "t_uint256"
					},
					{
						"astId": 12,
						"contract": "contracts/DeFi/CSAMM2.sol:CSAMM",
						"label": "reserve1",
						"offset": 0,
						"slot": "1",
						"type": "t_uint256"
					},
					{
						"astId": 14,
						"contract": "contracts/DeFi/CSAMM2.sol:CSAMM",
						"label": "totalSupply",
						"offset": 0,
						"slot": "2",
						"type": "t_uint256"
					},
					{
						"astId": 18,
						"contract": "contracts/DeFi/CSAMM2.sol:CSAMM",
						"label": "balanceOf",
						"offset": 0,
						"slot": "3",
						"type": "t_mapping(t_address,t_uint256)"
					}
				],
				"types": {
					"t_address": {
						"encoding": "inplace",
						"label": "address",
						"numberOfBytes": "20"
					},
					"t_mapping(t_address,t_uint256)": {
						"encoding": "mapping",
						"key": "t_address",
						"label": "mapping(address => uint256)",
						"numberOfBytes": "32",
						"value": "t_uint256"
					},
					"t_uint256": {
						"encoding": "inplace",
						"label": "uint256",
						"numberOfBytes": "32"
					}
				}
			},
			"userdoc": {
				"kind": "user",
				"methods": {},
				"version": 1
			}
		}
	}
}