{
	"contracts/DeFi/CSAMM.sol": {
		"CSAMM": {
			"abi": [
				{
					"inputs": [
						{
							"internalType": "address",
							"name": "_token0",
							"type": "address"
						},
						{
							"internalType": "address",
							"name": "_token1",
							"type": "address"
						}
					],
					"stateMutability": "nonpayable",
					"type": "constructor"
				},
				{
					"inputs": [
						{
							"internalType": "uint256",
							"name": "_amount0",
							"type": "uint256"
						},
						{
							"internalType": "uint256",
							"name": "_amount1",
							"type": "uint256"
						}
					],
					"name": "addLiquidity",
					"outputs": [
						{
							"internalType": "uint256",
							"name": "shares",
							"type": "uint256"
						}
					],
					"stateMutability": "nonpayable",
					"type": "function"
				},
				{
					"inputs": [
						{
							"internalType": "address",
							"name": "",
							"type": "address"
						}
					],
					"name": "balanceOf",
					"outputs": [
						{
							"internalType": "uint256",
							"name": "",
							"type": "uint256"
						}
					],
					"stateMutability": "view",
					"type": "function"
				},
				{
					"inputs": [
						{
							"internalType": "uint256",
							"name": "_shares",
							"type": "uint256"
						}
					],
					"name": "removeLiquidity",
					"outputs": [
						{
							"internalType": "uint256",
							"name": "d0",
							"type": "uint256"
						},
						{
							"internalType": "uint256",
							"name": "d1",
							"type": "uint256"
						}
					],
					"stateMutability": "nonpayable",
					"type": "function"
				},
				{
					"inputs": [],
					"name": "reserve0",
					"outputs": [
						{
							"internalType": "uint256",
							"name": "",
							"type": "uint256"
						}
					],
					"stateMutability": "view",
					"type": "function"
				},
				{
					"inputs": [],
					"name": "reserve1",
					"outputs": [
						{
							"internalType": "uint256",
							"name": "",
							"type": "uint256"
						}
					],
					"stateMutability": "view",
					"type": "function"
				},
				{
					"inputs": [
						{
							"internalType": "address",
							"name": "_tokenIn",
							"type": "address"
						},
						{
							"internalType": "uint256",
							"name": "_amountIn",
							"type": "uint256"
						}
					],
					"name": "swap",
					"outputs": [
						{
							"internalType": "uint256",
							"name": "amountOut",
							"type": "uint256"
						}
					],
					"stateMutability": "nonpayable",
					"type": "function"
				},
				{
					"inputs": [],
					"name": "token0",
					"outputs": [
						{
							"internalType": "contract IERC20",
							"name": "",
							"type": "address"
						}
					],
					"stateMutability": "view",
					"type": "function"
				},
				{
					"inputs": [],
					"name": "token1",
					"outputs": [
						{
							"internalType": "contract IERC20",
							"name": "",
							"type": "address"
						}
					],
					"stateMutability": "view",
					"type": "function"
				},
				{
					"inputs": [],
					"name": "totalSupply",
					"outputs": [
						{
							"internalType": "uint256",
							"name": "",
							"type": "uint256"
						}
					],
					"stateMutability": "view",
					"type": "function"
				}
			],
			"devdoc": {
				"kind": "dev",
				"methods": {},
				"version": 1
			},
			"evm": {
				"assembly": "    /* \"contracts/DeFi/CSAMM.sol\":135:3199  contract CSAMM {... */\n  mstore(0x40, 0xc0)\n    /* \"contracts/DeFi/CSAMM.sol\":371:492  constructor(address _token0, address _token1) {... */\n  callvalue\n  dup1\n  iszero\n  tag_1\n  jumpi\n  0x00\n  dup1\n  revert\ntag_1:\n  pop\n  mload(0x40)\n  sub(codesize, bytecodeSize)\n  dup1\n  bytecodeSize\n  dup4\n  codecopy\n  dup2\n  dup2\n  add\n  0x40\n  mstore\n  dup2\n  add\n  swap1\n  tag_2\n  swap2\n  swap1\n  tag_3\n  jump\t// in\ntag_2:\n    /* \"contracts/DeFi/CSAMM.sol\":443:450  _token0 */\n  dup2\n    /* \"contracts/DeFi/CSAMM.sol\":427:451  token0 = IERC20(_token0) */\n  0xffffffffffffffffffffffffffffffffffffffff\n  and\n  0x80\n  dup2\n  0xffffffffffffffffffffffffffffffffffffffff\n  and\n  dup2\n  mstore\n  pop\n  pop\n    /* \"contracts/DeFi/CSAMM.sol\":477:484  _token1 */\n  dup1\n    /* \"contracts/DeFi/CSAMM.sol\":461:485  token1 = IERC20(_token1) */\n  0xffffffffffffffffffffffffffffffffffffffff\n  and\n  0xa0\n  dup2\n  0xffffffffffffffffffffffffffffffffffffffff\n  and\n  dup2\n  mstore\n  pop\n  pop\n    /* \"contracts/DeFi/CSAMM.sol\":371:492  constructor(address _token0, address _token1) {... */\n  pop\n  pop\n    /* \"contracts/DeFi/CSAMM.sol\":135:3199  contract CSAMM {... */\n  jump(tag_6)\n    /* \"#utility.yul\":88:205   */\ntag_8:\n    /* \"#utility.yul\":197:198   */\n  0x00\n    /* \"#utility.yul\":194:195   */\n  dup1\n    /* \"#utility.yul\":187:199   */\n  revert\n    /* \"#utility.yul\":334:460   */\ntag_10:\n    /* \"#utility.yul\":371:378   */\n  0x00\n    /* \"#utility.yul\":411:453   */\n  0xffffffffffffffffffffffffffffffffffffffff\n    /* \"#utility.yul\":404:409   */\n  dup3\n    /* \"#utility.yul\":400:454   */\n  and\n    /* \"#utility.yul\":389:454   */\n  swap1\n  pop\n    /* \"#utility.yul\":334:460   */\n  swap2\n  swap1\n  pop\n  jump\t// out\n    /* \"#utility.yul\":466:562   */\ntag_11:\n    /* \"#utility.yul\":503:510   */\n  0x00\n    /* \"#utility.yul\":532:556   */\n  tag_20\n    /* \"#utility.yul\":550:555   */\n  dup3\n    /* \"#utility.yul\":532:556   */\n  tag_10\n  jump\t// in\ntag_20:\n    /* \"#utility.yul\":521:556   */\n  swap1\n  pop\n    /* \"#utility.yul\":466:562   */\n  swap2\n  swap1\n  pop\n  jump\t// out\n    /* \"#utility.yul\":568:690   */\ntag_12:\n    /* \"#utility.yul\":641:665   */\n  tag_22\n    /* \"#utility.yul\":659:664   */\n  dup2\n    /* \"#utility.yul\":641:665   */\n  tag_11\n  jump\t// in\ntag_22:\n    /* \"#utility.yul\":634:639   */\n  dup2\n    /* \"#utility.yul\":631:666   */\n  eq\n    /* \"#utility.yul\":621:684   */\n  tag_23\n  jumpi\n    /* \"#utility.yul\":680:681   */\n  0x00\n    /* \"#utility.yul\":677:678   */\n  dup1\n    /* \"#utility.yul\":670:682   */\n  revert\n    /* \"#utility.yul\":621:684   */\ntag_23:\n    /* \"#utility.yul\":568:690   */\n  pop\n  jump\t// out\n    /* \"#utility.yul\":696:839   */\ntag_13:\n    /* \"#utility.yul\":753:758   */\n  0x00\n    /* \"#utility.yul\":784:790   */\n  dup2\n    /* \"#utility.yul\":778:791   */\n  mload\n    /* \"#utility.yul\":769:791   */\n  swap1\n  pop\n    /* \"#utility.yul\":800:833   */\n  tag_25\n    /* \"#utility.yul\":827:832   */\n  dup2\n    /* \"#utility.yul\":800:833   */\n  tag_12\n  jump\t// in\ntag_25:\n    /* \"#utility.yul\":696:839   */\n  swap3\n  swap2\n  pop\n  pop\n  jump\t// out\n    /* \"#utility.yul\":845:1352   */\ntag_3:\n    /* \"#utility.yul\":924:930   */\n  0x00\n    /* \"#utility.yul\":932:938   */\n  dup1\n    /* \"#utility.yul\":981:983   */\n  0x40\n    /* \"#utility.yul\":969:978   */\n  dup4\n    /* \"#utility.yul\":960:967   */\n  dup6\n    /* \"#utility.yul\":956:979   */\n  sub\n    /* \"#utility.yul\":952:984   */\n  slt\n    /* \"#utility.yul\":949:1068   */\n  iszero\n  tag_27\n  jumpi\n    /* \"#utility.yul\":987:1066   */\n  tag_28\n  tag_8\n  jump\t// in\ntag_28:\n    /* \"#utility.yul\":949:1068   */\ntag_27:\n    /* \"#utility.yul\":1107:1108   */\n  0x00\n    /* \"#utility.yul\":1132:1196   */\n  tag_29\n    /* \"#utility.yul\":1188:1195   */\n  dup6\n    /* \"#utility.yul\":1179:1185   */\n  dup3\n    /* \"#utility.yul\":1168:1177   */\n  dup7\n    /* \"#utility.yul\":1164:1186   */\n  add\n    /* \"#utility.yul\":1132:1196   */\n  tag_13\n  jump\t// in\ntag_29:\n    /* \"#utility.yul\":1122:1196   */\n  swap3\n  pop\n    /* \"#utility.yul\":1078:1206   */\n  pop\n    /* \"#utility.yul\":1245:1247   */\n  0x20\n    /* \"#utility.yul\":1271:1335   */\n  tag_30\n    /* \"#utility.yul\":1327:1334   */\n  dup6\n    /* \"#utility.yul\":1318:1324   */\n  dup3\n    /* \"#utility.yul\":1307:1316   */\n  dup7\n    /* \"#utility.yul\":1303:1325   */\n  add\n    /* \"#utility.yul\":1271:1335   */\n  tag_13\n  jump\t// in\ntag_30:\n    /* \"#utility.yul\":1261:1335   */\n  swap2\n  pop\n    /* \"#utility.yul\":1216:1345   */\n  pop\n    /* \"#utility.yul\":845:1352   */\n  swap3\n  pop\n  swap3\n  swap1\n  pop\n  jump\t// out\n    /* \"contracts/DeFi/CSAMM.sol\":135:3199  contract CSAMM {... */\ntag_6:\n  mload(0x80)\n  mload(0xa0)\n  codecopy(0x00, dataOffset(sub_0), dataSize(sub_0))\n  0x00\n  assignImmutable(\"0x52f1a9b320cab38e5da8a8f97989383aab0a49165fc91c737310e4f7e9821021\")\n  0x00\n  assignImmutable(\"0x13600b294191fc92924bb3ce4b969c1e7e2bab8f4c93c3fc6d0a51733df3c060\")\n  return(0x00, dataSize(sub_0))\nstop\n\nsub_0: assembly {\n        /* \"contracts/DeFi/CSAMM.sol\":135:3199  contract CSAMM {... */\n      mstore(0x40, 0x80)\n      callvalue\n      dup1\n      iszero\n      tag_1\n      jumpi\n      0x00\n      dup1\n      revert\n    tag_1:\n      pop\n      jumpi(tag_2, lt(calldatasize, 0x04))\n      shr(0xe0, calldataload(0x00))\n      dup1\n      0x70a08231\n      gt\n      tag_12\n      jumpi\n      dup1\n      0x70a08231\n      eq\n      tag_7\n      jumpi\n      dup1\n      0x9c8f9f23\n      eq\n      tag_8\n      jumpi\n      dup1\n      0x9cd441da\n      eq\n      tag_9\n      jumpi\n      dup1\n      0xd004f0f7\n      eq\n      tag_10\n      jumpi\n      dup1\n      0xd21220a7\n      eq\n      tag_11\n      jumpi\n      jump(tag_2)\n    tag_12:\n      dup1\n      0x0dfe1681\n      eq\n      tag_3\n      jumpi\n      dup1\n      0x18160ddd\n      eq\n      tag_4\n      jumpi\n      dup1\n      0x443cb4bc\n      eq\n      tag_5\n      jumpi\n      dup1\n      0x5a76f25e\n      eq\n      tag_6\n      jumpi\n    tag_2:\n      0x00\n      dup1\n      revert\n        /* \"contracts/DeFi/CSAMM.sol\":156:186  IERC20 immutable public token0 */\n    tag_3:\n      tag_13\n      tag_14\n      jump\t// in\n    tag_13:\n      mload(0x40)\n      tag_15\n      swap2\n      swap1\n      tag_16\n      jump\t// in\n    tag_15:\n      mload(0x40)\n      dup1\n      swap2\n      sub\n      swap1\n      return\n        /* \"contracts/DeFi/CSAMM.sol\":287:313  uint256 public totalSupply */\n    tag_4:\n      tag_17\n      tag_18\n      jump\t// in\n    tag_17:\n      mload(0x40)\n      tag_19\n      swap2\n      swap1\n      tag_20\n      jump\t// in\n    tag_19:\n      mload(0x40)\n      dup1\n      swap2\n      sub\n      swap1\n      return\n        /* \"contracts/DeFi/CSAMM.sol\":229:252  uint256 public reserve0 */\n    tag_5:\n      tag_21\n      tag_22\n      jump\t// in\n    tag_21:\n      mload(0x40)\n      tag_23\n      swap2\n      swap1\n      tag_20\n      jump\t// in\n    tag_23:\n      mload(0x40)\n      dup1\n      swap2\n      sub\n      swap1\n      return\n        /* \"contracts/DeFi/CSAMM.sol\":258:281  uint256 public reserve1 */\n    tag_6:\n      tag_24\n      tag_25\n      jump\t// in\n    tag_24:\n      mload(0x40)\n      tag_26\n      swap2\n      swap1\n      tag_20\n      jump\t// in\n    tag_26:\n      mload(0x40)\n      dup1\n      swap2\n      sub\n      swap1\n      return\n        /* \"contracts/DeFi/CSAMM.sol\":320:364  mapping(address => uint256) public balanceOf */\n    tag_7:\n      tag_27\n      0x04\n      dup1\n      calldatasize\n      sub\n      dup2\n      add\n      swap1\n      tag_28\n      swap2\n      swap1\n      tag_29\n      jump\t// in\n    tag_28:\n      tag_30\n      jump\t// in\n    tag_27:\n      mload(0x40)\n      tag_31\n      swap2\n      swap1\n      tag_20\n      jump\t// in\n    tag_31:\n      mload(0x40)\n      dup1\n      swap2\n      sub\n      swap1\n      return\n        /* \"contracts/DeFi/CSAMM.sol\":2586:3197  function removeLiquidity(uint256 _shares) external returns (uint256 d0, uint256 d1) {... */\n    tag_8:\n      tag_32\n      0x04\n      dup1\n      calldatasize\n      sub\n      dup2\n      add\n      swap1\n      tag_33\n      swap2\n      swap1\n      tag_34\n      jump\t// in\n    tag_33:\n      tag_35\n      jump\t// in\n    tag_32:\n      mload(0x40)\n      tag_36\n      swap3\n      swap2\n      swap1\n      tag_37\n      jump\t// in\n    tag_36:\n      mload(0x40)\n      dup1\n      swap2\n      sub\n      swap1\n      return\n        /* \"contracts/DeFi/CSAMM.sol\":1742:2580  function addLiquidity(uint256 _amount0, uint256 _amount1) external returns (uint256 shares) {... */\n    tag_9:\n      tag_38\n      0x04\n      dup1\n      calldatasize\n      sub\n      dup2\n      add\n      swap1\n      tag_39\n      swap2\n      swap1\n      tag_40\n      jump\t// in\n    tag_39:\n      tag_41\n      jump\t// in\n    tag_38:\n      mload(0x40)\n      tag_42\n      swap2\n      swap1\n      tag_20\n      jump\t// in\n    tag_42:\n      mload(0x40)\n      dup1\n      swap2\n      sub\n      swap1\n      return\n        /* \"contracts/DeFi/CSAMM.sol\":888:1736  function swap(address _tokenIn, uint256 _amountIn) external returns (uint256 amountOut) {... */\n    tag_10:\n      tag_43\n      0x04\n      dup1\n      calldatasize\n      sub\n      dup2\n      add\n      swap1\n      tag_44\n      swap2\n      swap1\n      tag_45\n      jump\t// in\n    tag_44:\n      tag_46\n      jump\t// in\n    tag_43:\n      mload(0x40)\n      tag_47\n      swap2\n      swap1\n      tag_20\n      jump\t// in\n    tag_47:\n      mload(0x40)\n      dup1\n      swap2\n      sub\n      swap1\n      return\n        /* \"contracts/DeFi/CSAMM.sol\":192:222  IERC20 immutable public token1 */\n    tag_11:\n      tag_48\n      tag_49\n      jump\t// in\n    tag_48:\n      mload(0x40)\n      tag_50\n      swap2\n      swap1\n      tag_16\n      jump\t// in\n    tag_50:\n      mload(0x40)\n      dup1\n      swap2\n      sub\n      swap1\n      return\n        /* \"contracts/DeFi/CSAMM.sol\":156:186  IERC20 immutable public token0 */\n    tag_14:\n      immutable(\"0x13600b294191fc92924bb3ce4b969c1e7e2bab8f4c93c3fc6d0a51733df3c060\")\n      dup2\n      jump\t// out\n        /* \"contracts/DeFi/CSAMM.sol\":287:313  uint256 public totalSupply */\n    tag_18:\n      sload(0x02)\n      dup2\n      jump\t// out\n        /* \"contracts/DeFi/CSAMM.sol\":229:252  uint256 public reserve0 */\n    tag_22:\n      sload(0x00)\n      dup2\n      jump\t// out\n        /* \"contracts/DeFi/CSAMM.sol\":258:281  uint256 public reserve1 */\n    tag_25:\n      sload(0x01)\n      dup2\n      jump\t// out\n        /* \"contracts/DeFi/CSAMM.sol\":320:364  mapping(address => uint256) public balanceOf */\n    tag_30:\n      mstore(0x20, 0x03)\n      dup1\n      0x00\n      mstore\n      keccak256(0x00, 0x40)\n      0x00\n      swap2\n      pop\n      swap1\n      pop\n      sload\n      dup2\n      jump\t// out\n        /* \"contracts/DeFi/CSAMM.sol\":2586:3197  function removeLiquidity(uint256 _shares) external returns (uint256 d0, uint256 d1) {... */\n    tag_35:\n        /* \"contracts/DeFi/CSAMM.sol\":2646:2656  uint256 d0 */\n      0x00\n        /* \"contracts/DeFi/CSAMM.sol\":2658:2668  uint256 d1 */\n      dup1\n        /* \"contracts/DeFi/CSAMM.sol\":2891:2902  totalSupply */\n      sload(0x02)\n        /* \"contracts/DeFi/CSAMM.sol\":2880:2887  _shares */\n      dup4\n        /* \"contracts/DeFi/CSAMM.sol\":2869:2877  reserve0 */\n      sload(0x00)\n        /* \"contracts/DeFi/CSAMM.sol\":2869:2887  reserve0 * _shares */\n      tag_52\n      swap2\n      swap1\n      tag_53\n      jump\t// in\n    tag_52:\n        /* \"contracts/DeFi/CSAMM.sol\":2868:2902  (reserve0 * _shares) / totalSupply */\n      tag_54\n      swap2\n      swap1\n      tag_55\n      jump\t// in\n    tag_54:\n        /* \"contracts/DeFi/CSAMM.sol\":2863:2902  d0 = (reserve0 * _shares) / totalSupply */\n      swap2\n      pop\n        /* \"contracts/DeFi/CSAMM.sol\":2940:2951  totalSupply */\n      sload(0x02)\n        /* \"contracts/DeFi/CSAMM.sol\":2929:2936  _shares */\n      dup4\n        /* \"contracts/DeFi/CSAMM.sol\":2918:2926  reserve1 */\n      sload(0x01)\n        /* \"contracts/DeFi/CSAMM.sol\":2918:2936  reserve1 * _shares */\n      tag_56\n      swap2\n      swap1\n      tag_53\n      jump\t// in\n    tag_56:\n        /* \"contracts/DeFi/CSAMM.sol\":2917:2951  (reserve1 * _shares) / totalSupply */\n      tag_57\n      swap2\n      swap1\n      tag_55\n      jump\t// in\n    tag_57:\n        /* \"contracts/DeFi/CSAMM.sol\":2912:2951  d1 = (reserve1 * _shares) / totalSupply */\n      swap1\n      pop\n        /* \"contracts/DeFi/CSAMM.sol\":2962:2988  _burn(msg.sender, _shares) */\n      tag_58\n        /* \"contracts/DeFi/CSAMM.sol\":2968:2978  msg.sender */\n      caller\n        /* \"contracts/DeFi/CSAMM.sol\":2980:2987  _shares */\n      dup5\n        /* \"contracts/DeFi/CSAMM.sol\":2962:2967  _burn */\n      tag_59\n        /* \"contracts/DeFi/CSAMM.sol\":2962:2988  _burn(msg.sender, _shares) */\n      jump\t// in\n    tag_58:\n        /* \"contracts/DeFi/CSAMM.sol\":2998:3035  _update(reserve0 - d0, reserve1 - d1) */\n      tag_60\n        /* \"contracts/DeFi/CSAMM.sol\":3017:3019  d0 */\n      dup3\n        /* \"contracts/DeFi/CSAMM.sol\":3006:3014  reserve0 */\n      sload(0x00)\n        /* \"contracts/DeFi/CSAMM.sol\":3006:3019  reserve0 - d0 */\n      tag_61\n      swap2\n      swap1\n      tag_62\n      jump\t// in\n    tag_61:\n        /* \"contracts/DeFi/CSAMM.sol\":3032:3034  d1 */\n      dup3\n        /* \"contracts/DeFi/CSAMM.sol\":3021:3029  reserve1 */\n      sload(0x01)\n        /* \"contracts/DeFi/CSAMM.sol\":3021:3034  reserve1 - d1 */\n      tag_63\n      swap2\n      swap1\n      tag_62\n      jump\t// in\n    tag_63:\n        /* \"contracts/DeFi/CSAMM.sol\":2998:3005  _update */\n      tag_64\n        /* \"contracts/DeFi/CSAMM.sol\":2998:3035  _update(reserve0 - d0, reserve1 - d1) */\n      jump\t// in\n    tag_60:\n        /* \"contracts/DeFi/CSAMM.sol\":3055:3056  0 */\n      0x00\n        /* \"contracts/DeFi/CSAMM.sol\":3050:3052  d0 */\n      dup3\n        /* \"contracts/DeFi/CSAMM.sol\":3050:3056  d0 > 0 */\n      gt\n        /* \"contracts/DeFi/CSAMM.sol\":3046:3114  if (d0 > 0) {... */\n      iszero\n      tag_65\n      jumpi\n        /* \"contracts/DeFi/CSAMM.sol\":3072:3078  token0 */\n      immutable(\"0x13600b294191fc92924bb3ce4b969c1e7e2bab8f4c93c3fc6d0a51733df3c060\")\n        /* \"contracts/DeFi/CSAMM.sol\":3072:3087  token0.transfer */\n      0xffffffffffffffffffffffffffffffffffffffff\n      and\n      0xa9059cbb\n        /* \"contracts/DeFi/CSAMM.sol\":3088:3098  msg.sender */\n      caller\n        /* \"contracts/DeFi/CSAMM.sol\":3100:3102  d0 */\n      dup5\n        /* \"contracts/DeFi/CSAMM.sol\":3072:3103  token0.transfer(msg.sender, d0) */\n      mload(0x40)\n      dup4\n      0xffffffff\n      and\n      0xe0\n      shl\n      dup2\n      mstore\n      0x04\n      add\n      tag_66\n      swap3\n      swap2\n      swap1\n      tag_67\n      jump\t// in\n    tag_66:\n      0x20\n      mload(0x40)\n      dup1\n      dup4\n      sub\n      dup2\n      0x00\n      dup8\n      gas\n      call\n      iszero\n      dup1\n      iszero\n      tag_69\n      jumpi\n      returndatasize\n      0x00\n      dup1\n      returndatacopy\n      revert(0x00, returndatasize)\n    tag_69:\n      pop\n      pop\n      pop\n      pop\n      mload(0x40)\n      returndatasize\n      not(0x1f)\n      0x1f\n      dup3\n      add\n      and\n      dup3\n      add\n      dup1\n      0x40\n      mstore\n      pop\n      dup2\n      add\n      swap1\n      tag_70\n      swap2\n      swap1\n      tag_71\n      jump\t// in\n    tag_70:\n      pop\n        /* \"contracts/DeFi/CSAMM.sol\":3046:3114  if (d0 > 0) {... */\n    tag_65:\n        /* \"contracts/DeFi/CSAMM.sol\":3132:3133  0 */\n      0x00\n        /* \"contracts/DeFi/CSAMM.sol\":3127:3129  d1 */\n      dup2\n        /* \"contracts/DeFi/CSAMM.sol\":3127:3133  d1 > 0 */\n      gt\n        /* \"contracts/DeFi/CSAMM.sol\":3123:3191  if (d1 > 0) {... */\n      iszero\n      tag_72\n      jumpi\n        /* \"contracts/DeFi/CSAMM.sol\":3149:3155  token1 */\n      immutable(\"0x52f1a9b320cab38e5da8a8f97989383aab0a49165fc91c737310e4f7e9821021\")\n        /* \"contracts/DeFi/CSAMM.sol\":3149:3164  token1.transfer */\n      0xffffffffffffffffffffffffffffffffffffffff\n      and\n      0xa9059cbb\n        /* \"contracts/DeFi/CSAMM.sol\":3165:3175  msg.sender */\n      caller\n        /* \"contracts/DeFi/CSAMM.sol\":3177:3179  d1 */\n      dup4\n        /* \"contracts/DeFi/CSAMM.sol\":3149:3180  token1.transfer(msg.sender, d1) */\n      mload(0x40)\n      dup4\n      0xffffffff\n      and\n      0xe0\n      shl\n      dup2\n      mstore\n      0x04\n      add\n      tag_73\n      swap3\n      swap2\n      swap1\n      tag_67\n      jump\t// in\n    tag_73:\n      0x20\n      mload(0x40)\n      dup1\n      dup4\n      sub\n      dup2\n      0x00\n      dup8\n      gas\n      call\n      iszero\n      dup1\n      iszero\n      tag_75\n      jumpi\n      returndatasize\n      0x00\n      dup1\n      returndatacopy\n      revert(0x00, returndatasize)\n    tag_75:\n      pop\n      pop\n      pop\n      pop\n      mload(0x40)\n      returndatasize\n      not(0x1f)\n      0x1f\n      dup3\n      add\n      and\n      dup3\n      add\n      dup1\n      0x40\n      mstore\n      pop\n      dup2\n      add\n      swap1\n      tag_76\n      swap2\n      swap1\n      tag_71\n      jump\t// in\n    tag_76:\n      pop\n        /* \"contracts/DeFi/CSAMM.sol\":3123:3191  if (d1 > 0) {... */\n    tag_72:\n        /* \"contracts/DeFi/CSAMM.sol\":2586:3197  function removeLiquidity(uint256 _shares) external returns (uint256 d0, uint256 d1) {... */\n      swap2\n      pop\n      swap2\n      jump\t// out\n        /* \"contracts/DeFi/CSAMM.sol\":1742:2580  function addLiquidity(uint256 _amount0, uint256 _amount1) external returns (uint256 shares) {... */\n    tag_41:\n        /* \"contracts/DeFi/CSAMM.sol\":1818:1832  uint256 shares */\n      0x00\n        /* \"contracts/DeFi/CSAMM.sol\":1844:1850  token0 */\n      immutable(\"0x13600b294191fc92924bb3ce4b969c1e7e2bab8f4c93c3fc6d0a51733df3c060\")\n        /* \"contracts/DeFi/CSAMM.sol\":1844:1863  token0.transferFrom */\n      0xffffffffffffffffffffffffffffffffffffffff\n      and\n      0x23b872dd\n        /* \"contracts/DeFi/CSAMM.sol\":1864:1874  msg.sender */\n      caller\n        /* \"contracts/DeFi/CSAMM.sol\":1884:1888  this */\n      address\n        /* \"contracts/DeFi/CSAMM.sol\":1891:1899  _amount0 */\n      dup7\n        /* \"contracts/DeFi/CSAMM.sol\":1844:1900  token0.transferFrom(msg.sender, address(this), _amount0) */\n      mload(0x40)\n      dup5\n      0xffffffff\n      and\n      0xe0\n      shl\n      dup2\n      mstore\n      0x04\n      add\n      tag_78\n      swap4\n      swap3\n      swap2\n      swap1\n      tag_79\n      jump\t// in\n    tag_78:\n      0x20\n      mload(0x40)\n      dup1\n      dup4\n      sub\n      dup2\n      0x00\n      dup8\n      gas\n      call\n      iszero\n      dup1\n      iszero\n      tag_81\n      jumpi\n      returndatasize\n      0x00\n      dup1\n      returndatacopy\n      revert(0x00, returndatasize)\n    tag_81:\n      pop\n      pop\n      pop\n      pop\n      mload(0x40)\n      returndatasize\n      not(0x1f)\n      0x1f\n      dup3\n      add\n      and\n      dup3\n      add\n      dup1\n      0x40\n      mstore\n      pop\n      dup2\n      add\n      swap1\n      tag_82\n      swap2\n      swap1\n      tag_71\n      jump\t// in\n    tag_82:\n      pop\n        /* \"contracts/DeFi/CSAMM.sol\":1910:1916  token1 */\n      immutable(\"0x52f1a9b320cab38e5da8a8f97989383aab0a49165fc91c737310e4f7e9821021\")\n        /* \"contracts/DeFi/CSAMM.sol\":1910:1929  token1.transferFrom */\n      0xffffffffffffffffffffffffffffffffffffffff\n      and\n      0x23b872dd\n        /* \"contracts/DeFi/CSAMM.sol\":1930:1940  msg.sender */\n      caller\n        /* \"contracts/DeFi/CSAMM.sol\":1950:1954  this */\n      address\n        /* \"contracts/DeFi/CSAMM.sol\":1957:1965  _amount1 */\n      dup6\n        /* \"contracts/DeFi/CSAMM.sol\":1910:1966  token1.transferFrom(msg.sender, address(this), _amount1) */\n      mload(0x40)\n      dup5\n      0xffffffff\n      and\n      0xe0\n      shl\n      dup2\n      mstore\n      0x04\n      add\n      tag_83\n      swap4\n      swap3\n      swap2\n      swap1\n      tag_79\n      jump\t// in\n    tag_83:\n      0x20\n      mload(0x40)\n      dup1\n      dup4\n      sub\n      dup2\n      0x00\n      dup8\n      gas\n      call\n      iszero\n      dup1\n      iszero\n      tag_85\n      jumpi\n      returndatasize\n      0x00\n      dup1\n      returndatacopy\n      revert(0x00, returndatasize)\n    tag_85:\n      pop\n      pop\n      pop\n      pop\n      mload(0x40)\n      returndatasize\n      not(0x1f)\n      0x1f\n      dup3\n      add\n      and\n      dup3\n      add\n      dup1\n      0x40\n      mstore\n      pop\n      dup2\n      add\n      swap1\n      tag_86\n      swap2\n      swap1\n      tag_71\n      jump\t// in\n    tag_86:\n      pop\n        /* \"contracts/DeFi/CSAMM.sol\":1977:1989  uint256 bal0 */\n      0x00\n        /* \"contracts/DeFi/CSAMM.sol\":1992:1998  token0 */\n      immutable(\"0x13600b294191fc92924bb3ce4b969c1e7e2bab8f4c93c3fc6d0a51733df3c060\")\n        /* \"contracts/DeFi/CSAMM.sol\":1992:2008  token0.balanceOf */\n      0xffffffffffffffffffffffffffffffffffffffff\n      and\n      0x70a08231\n        /* \"contracts/DeFi/CSAMM.sol\":2017:2021  this */\n      address\n        /* \"contracts/DeFi/CSAMM.sol\":1992:2023  token0.balanceOf(address(this)) */\n      mload(0x40)\n      dup3\n      0xffffffff\n      and\n      0xe0\n      shl\n      dup2\n      mstore\n      0x04\n      add\n      tag_87\n      swap2\n      swap1\n      tag_88\n      jump\t// in\n    tag_87:\n      0x20\n      mload(0x40)\n      dup1\n      dup4\n      sub\n      dup2\n      dup7\n      gas\n      staticcall\n      iszero\n      dup1\n      iszero\n      tag_90\n      jumpi\n      returndatasize\n      0x00\n      dup1\n      returndatacopy\n      revert(0x00, returndatasize)\n    tag_90:\n      pop\n      pop\n      pop\n      pop\n      mload(0x40)\n      returndatasize\n      not(0x1f)\n      0x1f\n      dup3\n      add\n      and\n      dup3\n      add\n      dup1\n      0x40\n      mstore\n      pop\n      dup2\n      add\n      swap1\n      tag_91\n      swap2\n      swap1\n      tag_92\n      jump\t// in\n    tag_91:\n        /* \"contracts/DeFi/CSAMM.sol\":1977:2023  uint256 bal0 = token0.balanceOf(address(this)) */\n      swap1\n      pop\n        /* \"contracts/DeFi/CSAMM.sol\":2033:2045  uint256 bal1 */\n      0x00\n        /* \"contracts/DeFi/CSAMM.sol\":2048:2054  token1 */\n      immutable(\"0x52f1a9b320cab38e5da8a8f97989383aab0a49165fc91c737310e4f7e9821021\")\n        /* \"contracts/DeFi/CSAMM.sol\":2048:2064  token1.balanceOf */\n      0xffffffffffffffffffffffffffffffffffffffff\n      and\n      0x70a08231\n        /* \"contracts/DeFi/CSAMM.sol\":2073:2077  this */\n      address\n        /* \"contracts/DeFi/CSAMM.sol\":2048:2079  token1.balanceOf(address(this)) */\n      mload(0x40)\n      dup3\n      0xffffffff\n      and\n      0xe0\n      shl\n      dup2\n      mstore\n      0x04\n      add\n      tag_93\n      swap2\n      swap1\n      tag_88\n      jump\t// in\n    tag_93:\n      0x20\n      mload(0x40)\n      dup1\n      dup4\n      sub\n      dup2\n      dup7\n      gas\n      staticcall\n      iszero\n      dup1\n      iszero\n      tag_95\n      jumpi\n      returndatasize\n      0x00\n      dup1\n      returndatacopy\n      revert(0x00, returndatasize)\n    tag_95:\n      pop\n      pop\n      pop\n      pop\n      mload(0x40)\n      returndatasize\n      not(0x1f)\n      0x1f\n      dup3\n      add\n      and\n      dup3\n      add\n      dup1\n      0x40\n      mstore\n      pop\n      dup2\n      add\n      swap1\n      tag_96\n      swap2\n      swap1\n      tag_92\n      jump\t// in\n    tag_96:\n        /* \"contracts/DeFi/CSAMM.sol\":2033:2079  uint256 bal1 = token1.balanceOf(address(this)) */\n      swap1\n      pop\n        /* \"contracts/DeFi/CSAMM.sol\":2090:2100  uint256 d0 */\n      0x00\n        /* \"contracts/DeFi/CSAMM.sol\":2110:2118  reserve0 */\n      dup1\n      sload\n        /* \"contracts/DeFi/CSAMM.sol\":2103:2107  bal0 */\n      dup4\n        /* \"contracts/DeFi/CSAMM.sol\":2103:2118  bal0 - reserve0 */\n      tag_97\n      swap2\n      swap1\n      tag_62\n      jump\t// in\n    tag_97:\n        /* \"contracts/DeFi/CSAMM.sol\":2090:2118  uint256 d0 = bal0 - reserve0 */\n      swap1\n      pop\n        /* \"contracts/DeFi/CSAMM.sol\":2128:2138  uint256 d1 */\n      0x00\n        /* \"contracts/DeFi/CSAMM.sol\":2148:2156  reserve1 */\n      sload(0x01)\n        /* \"contracts/DeFi/CSAMM.sol\":2141:2145  bal1 */\n      dup4\n        /* \"contracts/DeFi/CSAMM.sol\":2141:2156  bal1 - reserve1 */\n      tag_98\n      swap2\n      swap1\n      tag_62\n      jump\t// in\n    tag_98:\n        /* \"contracts/DeFi/CSAMM.sol\":2128:2156  uint256 d1 = bal1 - reserve1 */\n      swap1\n      pop\n        /* \"contracts/DeFi/CSAMM.sol\":2332:2333  0 */\n      0x00\n        /* \"contracts/DeFi/CSAMM.sol\":2318:2329  totalSupply */\n      sload(0x02)\n        /* \"contracts/DeFi/CSAMM.sol\":2318:2333  totalSupply > 0 */\n      gt\n        /* \"contracts/DeFi/CSAMM.sol\":2314:2465  if (totalSupply > 0) {... */\n      iszero\n      tag_99\n      jumpi\n        /* \"contracts/DeFi/CSAMM.sol\":2398:2406  reserve1 */\n      sload(0x01)\n        /* \"contracts/DeFi/CSAMM.sol\":2387:2395  reserve0 */\n      sload(0x00)\n        /* \"contracts/DeFi/CSAMM.sol\":2387:2406  reserve0 + reserve1 */\n      tag_100\n      swap2\n      swap1\n      tag_101\n      jump\t// in\n    tag_100:\n        /* \"contracts/DeFi/CSAMM.sol\":2371:2382  totalSupply */\n      sload(0x02)\n        /* \"contracts/DeFi/CSAMM.sol\":2365:2367  d1 */\n      dup3\n        /* \"contracts/DeFi/CSAMM.sol\":2360:2362  d0 */\n      dup5\n        /* \"contracts/DeFi/CSAMM.sol\":2360:2367  d0 + d1 */\n      tag_102\n      swap2\n      swap1\n      tag_101\n      jump\t// in\n    tag_102:\n        /* \"contracts/DeFi/CSAMM.sol\":2359:2382  (d0 + d1) * totalSupply */\n      tag_103\n      swap2\n      swap1\n      tag_53\n      jump\t// in\n    tag_103:\n        /* \"contracts/DeFi/CSAMM.sol\":2358:2407  ((d0 + d1) * totalSupply) / (reserve0 + reserve1) */\n      tag_104\n      swap2\n      swap1\n      tag_55\n      jump\t// in\n    tag_104:\n        /* \"contracts/DeFi/CSAMM.sol\":2349:2407  shares = ((d0 + d1) * totalSupply) / (reserve0 + reserve1) */\n      swap5\n      pop\n        /* \"contracts/DeFi/CSAMM.sol\":2314:2465  if (totalSupply > 0) {... */\n      jump(tag_105)\n    tag_99:\n        /* \"contracts/DeFi/CSAMM.sol\":2452:2454  d1 */\n      dup1\n        /* \"contracts/DeFi/CSAMM.sol\":2447:2449  d0 */\n      dup3\n        /* \"contracts/DeFi/CSAMM.sol\":2447:2454  d0 + d1 */\n      tag_106\n      swap2\n      swap1\n      tag_101\n      jump\t// in\n    tag_106:\n        /* \"contracts/DeFi/CSAMM.sol\":2438:2454  shares = d0 + d1 */\n      swap5\n      pop\n        /* \"contracts/DeFi/CSAMM.sol\":2314:2465  if (totalSupply > 0) {... */\n    tag_105:\n        /* \"contracts/DeFi/CSAMM.sol\":2493:2494  0 */\n      0x00\n        /* \"contracts/DeFi/CSAMM.sol\":2484:2490  shares */\n      dup6\n        /* \"contracts/DeFi/CSAMM.sol\":2484:2494  shares > 0 */\n      gt\n        /* \"contracts/DeFi/CSAMM.sol\":2475:2509  require (shares > 0, \"shares = 0\") */\n      tag_107\n      jumpi\n      mload(0x40)\n      0x08c379a000000000000000000000000000000000000000000000000000000000\n      dup2\n      mstore\n      0x04\n      add\n      tag_108\n      swap1\n      tag_109\n      jump\t// in\n    tag_108:\n      mload(0x40)\n      dup1\n      swap2\n      sub\n      swap1\n      revert\n    tag_107:\n        /* \"contracts/DeFi/CSAMM.sol\":2519:2544  _mint(msg.sender, shares) */\n      tag_110\n        /* \"contracts/DeFi/CSAMM.sol\":2525:2535  msg.sender */\n      caller\n        /* \"contracts/DeFi/CSAMM.sol\":2537:2543  shares */\n      dup7\n        /* \"contracts/DeFi/CSAMM.sol\":2519:2524  _mint */\n      tag_111\n        /* \"contracts/DeFi/CSAMM.sol\":2519:2544  _mint(msg.sender, shares) */\n      jump\t// in\n    tag_110:\n        /* \"contracts/DeFi/CSAMM.sol\":2554:2573  _update(bal0, bal1) */\n      tag_112\n        /* \"contracts/DeFi/CSAMM.sol\":2562:2566  bal0 */\n      dup5\n        /* \"contracts/DeFi/CSAMM.sol\":2568:2572  bal1 */\n      dup5\n        /* \"contracts/DeFi/CSAMM.sol\":2554:2561  _update */\n      tag_64\n        /* \"contracts/DeFi/CSAMM.sol\":2554:2573  _update(bal0, bal1) */\n      jump\t// in\n    tag_112:\n        /* \"contracts/DeFi/CSAMM.sol\":1834:2580  {... */\n      pop\n      pop\n      pop\n      pop\n        /* \"contracts/DeFi/CSAMM.sol\":1742:2580  function addLiquidity(uint256 _amount0, uint256 _amount1) external returns (uint256 shares) {... */\n      swap3\n      swap2\n      pop\n      pop\n      jump\t// out\n        /* \"contracts/DeFi/CSAMM.sol\":888:1736  function swap(address _tokenIn, uint256 _amountIn) external returns (uint256 amountOut) {... */\n    tag_46:\n        /* \"contracts/DeFi/CSAMM.sol\":957:974  uint256 amountOut */\n      0x00\n        /* \"contracts/DeFi/CSAMM.sol\":1014:1020  token0 */\n      immutable(\"0x13600b294191fc92924bb3ce4b969c1e7e2bab8f4c93c3fc6d0a51733df3c060\")\n        /* \"contracts/DeFi/CSAMM.sol\":994:1021  _tokenIn == address(token0) */\n      0xffffffffffffffffffffffffffffffffffffffff\n      and\n        /* \"contracts/DeFi/CSAMM.sol\":994:1002  _tokenIn */\n      dup4\n        /* \"contracts/DeFi/CSAMM.sol\":994:1021  _tokenIn == address(token0) */\n      0xffffffffffffffffffffffffffffffffffffffff\n      and\n      eq\n        /* \"contracts/DeFi/CSAMM.sol\":994:1052  _tokenIn == address(token0) || _tokenIn == address(token1) */\n      dup1\n      tag_114\n      jumpi\n      pop\n        /* \"contracts/DeFi/CSAMM.sol\":1045:1051  token1 */\n      immutable(\"0x52f1a9b320cab38e5da8a8f97989383aab0a49165fc91c737310e4f7e9821021\")\n        /* \"contracts/DeFi/CSAMM.sol\":1025:1052  _tokenIn == address(token1) */\n      0xffffffffffffffffffffffffffffffffffffffff\n      and\n        /* \"contracts/DeFi/CSAMM.sol\":1025:1033  _tokenIn */\n      dup4\n        /* \"contracts/DeFi/CSAMM.sol\":1025:1052  _tokenIn == address(token1) */\n      0xffffffffffffffffffffffffffffffffffffffff\n      and\n      eq\n        /* \"contracts/DeFi/CSAMM.sol\":994:1052  _tokenIn == address(token0) || _tokenIn == address(token1) */\n    tag_114:\n        /* \"contracts/DeFi/CSAMM.sol\":986:1070  require(_tokenIn == address(token0) || _tokenIn == address(token1), \"invalid token\") */\n      tag_115\n      jumpi\n      mload(0x40)\n      0x08c379a000000000000000000000000000000000000000000000000000000000\n      dup2\n      mstore\n      0x04\n      add\n      tag_116\n      swap1\n      tag_117\n      jump\t// in\n    tag_116:\n      mload(0x40)\n      dup1\n      swap2\n      sub\n      swap1\n      revert\n    tag_115:\n        /* \"contracts/DeFi/CSAMM.sol\":1081:1094  bool isToken0 */\n      0x00\n        /* \"contracts/DeFi/CSAMM.sol\":1117:1123  token0 */\n      immutable(\"0x13600b294191fc92924bb3ce4b969c1e7e2bab8f4c93c3fc6d0a51733df3c060\")\n        /* \"contracts/DeFi/CSAMM.sol\":1097:1124  _tokenIn == address(token0) */\n      0xffffffffffffffffffffffffffffffffffffffff\n      and\n        /* \"contracts/DeFi/CSAMM.sol\":1097:1105  _tokenIn */\n      dup5\n        /* \"contracts/DeFi/CSAMM.sol\":1097:1124  _tokenIn == address(token0) */\n      0xffffffffffffffffffffffffffffffffffffffff\n      and\n      eq\n        /* \"contracts/DeFi/CSAMM.sol\":1081:1124  bool isToken0 = _tokenIn == address(token0) */\n      swap1\n      pop\n        /* \"contracts/DeFi/CSAMM.sol\":1136:1150  IERC20 tokenIn */\n      0x00\n        /* \"contracts/DeFi/CSAMM.sol\":1152:1167  IERC20 tokenOut */\n      dup1\n        /* \"contracts/DeFi/CSAMM.sol\":1169:1182  uint256 resIn */\n      0x00\n        /* \"contracts/DeFi/CSAMM.sol\":1184:1198  uint256 resOut */\n      dup1\n        /* \"contracts/DeFi/CSAMM.sol\":1202:1210  isToken0 */\n      dup5\n        /* \"contracts/DeFi/CSAMM.sol\":1202:1296  isToken0... */\n      tag_118\n      jumpi\n        /* \"contracts/DeFi/CSAMM.sol\":1261:1267  token1 */\n      immutable(\"0x52f1a9b320cab38e5da8a8f97989383aab0a49165fc91c737310e4f7e9821021\")\n        /* \"contracts/DeFi/CSAMM.sol\":1269:1275  token0 */\n      immutable(\"0x13600b294191fc92924bb3ce4b969c1e7e2bab8f4c93c3fc6d0a51733df3c060\")\n        /* \"contracts/DeFi/CSAMM.sol\":1277:1285  reserve1 */\n      sload(0x01)\n        /* \"contracts/DeFi/CSAMM.sol\":1287:1295  reserve0 */\n      sload(0x00)\n        /* \"contracts/DeFi/CSAMM.sol\":1202:1296  isToken0... */\n      jump(tag_119)\n    tag_118:\n        /* \"contracts/DeFi/CSAMM.sol\":1222:1228  token0 */\n      immutable(\"0x13600b294191fc92924bb3ce4b969c1e7e2bab8f4c93c3fc6d0a51733df3c060\")\n        /* \"contracts/DeFi/CSAMM.sol\":1230:1236  token1 */\n      immutable(\"0x52f1a9b320cab38e5da8a8f97989383aab0a49165fc91c737310e4f7e9821021\")\n        /* \"contracts/DeFi/CSAMM.sol\":1238:1246  reserve0 */\n      sload(0x00)\n        /* \"contracts/DeFi/CSAMM.sol\":1248:1256  reserve1 */\n      sload(0x01)\n        /* \"contracts/DeFi/CSAMM.sol\":1202:1296  isToken0... */\n    tag_119:\n        /* \"contracts/DeFi/CSAMM.sol\":1135:1296  (IERC20 tokenIn, IERC20 tokenOut, uint256 resIn, uint256 resOut) = isToken0... */\n      swap4\n      pop\n      swap4\n      pop\n      swap4\n      pop\n      swap4\n      pop\n        /* \"contracts/DeFi/CSAMM.sol\":1307:1314  tokenIn */\n      dup4\n        /* \"contracts/DeFi/CSAMM.sol\":1307:1327  tokenIn.transferFrom */\n      0xffffffffffffffffffffffffffffffffffffffff\n      and\n      0x23b872dd\n        /* \"contracts/DeFi/CSAMM.sol\":1328:1338  msg.sender */\n      caller\n        /* \"contracts/DeFi/CSAMM.sol\":1348:1352  this */\n      address\n        /* \"contracts/DeFi/CSAMM.sol\":1355:1364  _amountIn */\n      dup11\n        /* \"contracts/DeFi/CSAMM.sol\":1307:1365  tokenIn.transferFrom(msg.sender, address(this), _amountIn) */\n      mload(0x40)\n      dup5\n      0xffffffff\n      and\n      0xe0\n      shl\n      dup2\n      mstore\n      0x04\n      add\n      tag_120\n      swap4\n      swap3\n      swap2\n      swap1\n      tag_79\n      jump\t// in\n    tag_120:\n      0x20\n      mload(0x40)\n      dup1\n      dup4\n      sub\n      dup2\n      0x00\n      dup8\n      gas\n      call\n      iszero\n      dup1\n      iszero\n      tag_122\n      jumpi\n      returndatasize\n      0x00\n      dup1\n      returndatacopy\n      revert(0x00, returndatasize)\n    tag_122:\n      pop\n      pop\n      pop\n      pop\n      mload(0x40)\n      returndatasize\n      not(0x1f)\n      0x1f\n      dup3\n      add\n      and\n      dup3\n      add\n      dup1\n      0x40\n      mstore\n      pop\n      dup2\n      add\n      swap1\n      tag_123\n      swap2\n      swap1\n      tag_71\n      jump\t// in\n    tag_123:\n      pop\n        /* \"contracts/DeFi/CSAMM.sol\":1375:1391  uint256 amountIn */\n      0x00\n        /* \"contracts/DeFi/CSAMM.sol\":1429:1434  resIn */\n      dup3\n        /* \"contracts/DeFi/CSAMM.sol\":1394:1401  tokenIn */\n      dup6\n        /* \"contracts/DeFi/CSAMM.sol\":1394:1411  tokenIn.balanceOf */\n      0xffffffffffffffffffffffffffffffffffffffff\n      and\n      0x70a08231\n        /* \"contracts/DeFi/CSAMM.sol\":1420:1424  this */\n      address\n        /* \"contracts/DeFi/CSAMM.sol\":1394:1426  tokenIn.balanceOf(address(this)) */\n      mload(0x40)\n      dup3\n      0xffffffff\n      and\n      0xe0\n      shl\n      dup2\n      mstore\n      0x04\n      add\n      tag_124\n      swap2\n      swap1\n      tag_88\n      jump\t// in\n    tag_124:\n      0x20\n      mload(0x40)\n      dup1\n      dup4\n      sub\n      dup2\n      dup7\n      gas\n      staticcall\n      iszero\n      dup1\n      iszero\n      tag_126\n      jumpi\n      returndatasize\n      0x00\n      dup1\n      returndatacopy\n      revert(0x00, returndatasize)\n    tag_126:\n      pop\n      pop\n      pop\n      pop\n      mload(0x40)\n      returndatasize\n      not(0x1f)\n      0x1f\n      dup3\n      add\n      and\n      dup3\n      add\n      dup1\n      0x40\n      mstore\n      pop\n      dup2\n      add\n      swap1\n      tag_127\n      swap2\n      swap1\n      tag_92\n      jump\t// in\n    tag_127:\n        /* \"contracts/DeFi/CSAMM.sol\":1394:1434  tokenIn.balanceOf(address(this)) - resIn */\n      tag_128\n      swap2\n      swap1\n      tag_62\n      jump\t// in\n    tag_128:\n        /* \"contracts/DeFi/CSAMM.sol\":1375:1434  uint256 amountIn = tokenIn.balanceOf(address(this)) - resIn */\n      swap1\n      pop\n        /* \"contracts/DeFi/CSAMM.sol\":1497:1501  1000 */\n      0x03e8\n        /* \"contracts/DeFi/CSAMM.sol\":1490:1493  997 */\n      0x03e5\n        /* \"contracts/DeFi/CSAMM.sol\":1479:1487  amountIn */\n      dup3\n        /* \"contracts/DeFi/CSAMM.sol\":1479:1493  amountIn * 997 */\n      tag_129\n      swap2\n      swap1\n      tag_53\n      jump\t// in\n    tag_129:\n        /* \"contracts/DeFi/CSAMM.sol\":1478:1501  (amountIn * 997) / 1000 */\n      tag_130\n      swap2\n      swap1\n      tag_55\n      jump\t// in\n    tag_130:\n        /* \"contracts/DeFi/CSAMM.sol\":1466:1501  amountOut = (amountIn * 997) / 1000 */\n      swap7\n      pop\n        /* \"contracts/DeFi/CSAMM.sol\":1513:1525  uint256 res0 */\n      0x00\n        /* \"contracts/DeFi/CSAMM.sol\":1527:1539  uint256 res1 */\n      dup1\n        /* \"contracts/DeFi/CSAMM.sol\":1543:1551  isToken0 */\n      dup8\n        /* \"contracts/DeFi/CSAMM.sol\":1543:1649  isToken0... */\n      tag_131\n      jumpi\n        /* \"contracts/DeFi/CSAMM.sol\":1621:1630  amountOut */\n      dup9\n        /* \"contracts/DeFi/CSAMM.sol\":1612:1618  resOut */\n      dup5\n        /* \"contracts/DeFi/CSAMM.sol\":1612:1630  resOut - amountOut */\n      tag_132\n      swap2\n      swap1\n      tag_62\n      jump\t// in\n    tag_132:\n        /* \"contracts/DeFi/CSAMM.sol\":1640:1648  amountIn */\n      dup4\n        /* \"contracts/DeFi/CSAMM.sol\":1632:1637  resIn */\n      dup7\n        /* \"contracts/DeFi/CSAMM.sol\":1632:1648  resIn + amountIn */\n      tag_133\n      swap2\n      swap1\n      tag_101\n      jump\t// in\n    tag_133:\n        /* \"contracts/DeFi/CSAMM.sol\":1543:1649  isToken0... */\n      jump(tag_134)\n    tag_131:\n        /* \"contracts/DeFi/CSAMM.sol\":1571:1579  amountIn */\n      dup3\n        /* \"contracts/DeFi/CSAMM.sol\":1563:1568  resIn */\n      dup6\n        /* \"contracts/DeFi/CSAMM.sol\":1563:1579  resIn + amountIn */\n      tag_135\n      swap2\n      swap1\n      tag_101\n      jump\t// in\n    tag_135:\n        /* \"contracts/DeFi/CSAMM.sol\":1590:1599  amountOut */\n      dup10\n        /* \"contracts/DeFi/CSAMM.sol\":1581:1587  resOut */\n      dup6\n        /* \"contracts/DeFi/CSAMM.sol\":1581:1599  resOut - amountOut */\n      tag_136\n      swap2\n      swap1\n      tag_62\n      jump\t// in\n    tag_136:\n        /* \"contracts/DeFi/CSAMM.sol\":1543:1649  isToken0... */\n    tag_134:\n        /* \"contracts/DeFi/CSAMM.sol\":1512:1649  (uint256 res0, uint256 res1) = isToken0... */\n      swap2\n      pop\n      swap2\n      pop\n        /* \"contracts/DeFi/CSAMM.sol\":1660:1679  _update(res0, res1) */\n      tag_137\n        /* \"contracts/DeFi/CSAMM.sol\":1668:1672  res0 */\n      dup3\n        /* \"contracts/DeFi/CSAMM.sol\":1674:1678  res1 */\n      dup3\n        /* \"contracts/DeFi/CSAMM.sol\":1660:1667  _update */\n      tag_64\n        /* \"contracts/DeFi/CSAMM.sol\":1660:1679  _update(res0, res1) */\n      jump\t// in\n    tag_137:\n        /* \"contracts/DeFi/CSAMM.sol\":1689:1697  tokenOut */\n      dup6\n        /* \"contracts/DeFi/CSAMM.sol\":1689:1706  tokenOut.transfer */\n      0xffffffffffffffffffffffffffffffffffffffff\n      and\n      0xa9059cbb\n        /* \"contracts/DeFi/CSAMM.sol\":1707:1717  msg.sender */\n      caller\n        /* \"contracts/DeFi/CSAMM.sol\":1719:1728  amountOut */\n      dup12\n        /* \"contracts/DeFi/CSAMM.sol\":1689:1729  tokenOut.transfer(msg.sender, amountOut) */\n      mload(0x40)\n      dup4\n      0xffffffff\n      and\n      0xe0\n      shl\n      dup2\n      mstore\n      0x04\n      add\n      tag_138\n      swap3\n      swap2\n      swap1\n      tag_67\n      jump\t// in\n    tag_138:\n      0x20\n      mload(0x40)\n      dup1\n      dup4\n      sub\n      dup2\n      0x00\n      dup8\n      gas\n      call\n      iszero\n      dup1\n      iszero\n      tag_140\n      jumpi\n      returndatasize\n      0x00\n      dup1\n      returndatacopy\n      revert(0x00, returndatasize)\n    tag_140:\n      pop\n      pop\n      pop\n      pop\n      mload(0x40)\n      returndatasize\n      not(0x1f)\n      0x1f\n      dup3\n      add\n      and\n      dup3\n      add\n      dup1\n      0x40\n      mstore\n      pop\n      dup2\n      add\n      swap1\n      tag_141\n      swap2\n      swap1\n      tag_71\n      jump\t// in\n    tag_141:\n      pop\n        /* \"contracts/DeFi/CSAMM.sol\":976:1736  {... */\n      pop\n      pop\n      pop\n      pop\n      pop\n      pop\n      pop\n      pop\n        /* \"contracts/DeFi/CSAMM.sol\":888:1736  function swap(address _tokenIn, uint256 _amountIn) external returns (uint256 amountOut) {... */\n      swap3\n      swap2\n      pop\n      pop\n      jump\t// out\n        /* \"contracts/DeFi/CSAMM.sol\":192:222  IERC20 immutable public token1 */\n    tag_49:\n      immutable(\"0x52f1a9b320cab38e5da8a8f97989383aab0a49165fc91c737310e4f7e9821021\")\n      dup2\n      jump\t// out\n        /* \"contracts/DeFi/CSAMM.sol\":631:762  function _burn(address _from, uint256 _amount) private {... */\n    tag_59:\n        /* \"contracts/DeFi/CSAMM.sol\":716:723  _amount */\n      dup1\n        /* \"contracts/DeFi/CSAMM.sol\":696:705  balanceOf */\n      0x03\n        /* \"contracts/DeFi/CSAMM.sol\":696:712  balanceOf[_from] */\n      0x00\n        /* \"contracts/DeFi/CSAMM.sol\":706:711  _from */\n      dup5\n        /* \"contracts/DeFi/CSAMM.sol\":696:712  balanceOf[_from] */\n      0xffffffffffffffffffffffffffffffffffffffff\n      and\n      0xffffffffffffffffffffffffffffffffffffffff\n      and\n      dup2\n      mstore\n      0x20\n      add\n      swap1\n      dup2\n      mstore\n      0x20\n      add\n      0x00\n      keccak256\n      0x00\n        /* \"contracts/DeFi/CSAMM.sol\":696:723  balanceOf[_from] -= _amount */\n      dup3\n      dup3\n      sload\n      tag_143\n      swap2\n      swap1\n      tag_62\n      jump\t// in\n    tag_143:\n      swap3\n      pop\n      pop\n      dup2\n      swap1\n      sstore\n      pop\n        /* \"contracts/DeFi/CSAMM.sol\":748:755  _amount */\n      dup1\n        /* \"contracts/DeFi/CSAMM.sol\":733:744  totalSupply */\n      0x02\n      0x00\n        /* \"contracts/DeFi/CSAMM.sol\":733:755  totalSupply -= _amount */\n      dup3\n      dup3\n      sload\n      tag_144\n      swap2\n      swap1\n      tag_62\n      jump\t// in\n    tag_144:\n      swap3\n      pop\n      pop\n      dup2\n      swap1\n      sstore\n      pop\n        /* \"contracts/DeFi/CSAMM.sol\":631:762  function _burn(address _from, uint256 _amount) private {... */\n      pop\n      pop\n      jump\t// out\n        /* \"contracts/DeFi/CSAMM.sol\":768:882  function _update(uint256 _res0, uint256 _res1) private {... */\n    tag_64:\n        /* \"contracts/DeFi/CSAMM.sol\":844:849  _res0 */\n      dup2\n        /* \"contracts/DeFi/CSAMM.sol\":833:841  reserve0 */\n      0x00\n        /* \"contracts/DeFi/CSAMM.sol\":833:849  reserve0 = _res0 */\n      dup2\n      swap1\n      sstore\n      pop\n        /* \"contracts/DeFi/CSAMM.sol\":870:875  _res1 */\n      dup1\n        /* \"contracts/DeFi/CSAMM.sol\":859:867  reserve1 */\n      0x01\n        /* \"contracts/DeFi/CSAMM.sol\":859:875  reserve1 = _res1 */\n      dup2\n      swap1\n      sstore\n      pop\n        /* \"contracts/DeFi/CSAMM.sol\":768:882  function _update(uint256 _res0, uint256 _res1) private {... */\n      pop\n      pop\n      jump\t// out\n        /* \"contracts/DeFi/CSAMM.sol\":498:625  function _mint(address _to, uint256 _amount) private {... */\n    tag_111:\n        /* \"contracts/DeFi/CSAMM.sol\":579:586  _amount */\n      dup1\n        /* \"contracts/DeFi/CSAMM.sol\":561:570  balanceOf */\n      0x03\n        /* \"contracts/DeFi/CSAMM.sol\":561:575  balanceOf[_to] */\n      0x00\n        /* \"contracts/DeFi/CSAMM.sol\":571:574  _to */\n      dup5\n        /* \"contracts/DeFi/CSAMM.sol\":561:575  balanceOf[_to] */\n      0xffffffffffffffffffffffffffffffffffffffff\n      and\n      0xffffffffffffffffffffffffffffffffffffffff\n      and\n      dup2\n      mstore\n      0x20\n      add\n      swap1\n      dup2\n      mstore\n      0x20\n      add\n      0x00\n      keccak256\n      0x00\n        /* \"contracts/DeFi/CSAMM.sol\":561:586  balanceOf[_to] += _amount */\n      dup3\n      dup3\n      sload\n      tag_147\n      swap2\n      swap1\n      tag_101\n      jump\t// in\n    tag_147:\n      swap3\n      pop\n      pop\n      dup2\n      swap1\n      sstore\n      pop\n        /* \"contracts/DeFi/CSAMM.sol\":611:618  _amount */\n      dup1\n        /* \"contracts/DeFi/CSAMM.sol\":596:607  totalSupply */\n      0x02\n      0x00\n        /* \"contracts/DeFi/CSAMM.sol\":596:618  totalSupply += _amount */\n      dup3\n      dup3\n      sload\n      tag_148\n      swap2\n      swap1\n      tag_101\n      jump\t// in\n    tag_148:\n      swap3\n      pop\n      pop\n      dup2\n      swap1\n      sstore\n      pop\n        /* \"contracts/DeFi/CSAMM.sol\":498:625  function _mint(address _to, uint256 _amount) private {... */\n      pop\n      pop\n      jump\t// out\n        /* \"#utility.yul\":7:133   */\n    tag_149:\n        /* \"#utility.yul\":44:51   */\n      0x00\n        /* \"#utility.yul\":84:126   */\n      0xffffffffffffffffffffffffffffffffffffffff\n        /* \"#utility.yul\":77:82   */\n      dup3\n        /* \"#utility.yul\":73:127   */\n      and\n        /* \"#utility.yul\":62:127   */\n      swap1\n      pop\n        /* \"#utility.yul\":7:133   */\n      swap2\n      swap1\n      pop\n      jump\t// out\n        /* \"#utility.yul\":139:199   */\n    tag_150:\n        /* \"#utility.yul\":167:170   */\n      0x00\n        /* \"#utility.yul\":188:193   */\n      dup2\n        /* \"#utility.yul\":181:193   */\n      swap1\n      pop\n        /* \"#utility.yul\":139:199   */\n      swap2\n      swap1\n      pop\n      jump\t// out\n        /* \"#utility.yul\":205:347   */\n    tag_151:\n        /* \"#utility.yul\":255:264   */\n      0x00\n        /* \"#utility.yul\":288:341   */\n      tag_181\n        /* \"#utility.yul\":306:340   */\n      tag_182\n        /* \"#utility.yul\":315:339   */\n      tag_183\n        /* \"#utility.yul\":333:338   */\n      dup5\n        /* \"#utility.yul\":315:339   */\n      tag_149\n      jump\t// in\n    tag_183:\n        /* \"#utility.yul\":306:340   */\n      tag_150\n      jump\t// in\n    tag_182:\n        /* \"#utility.yul\":288:341   */\n      tag_149\n      jump\t// in\n    tag_181:\n        /* \"#utility.yul\":275:341   */\n      swap1\n      pop\n        /* \"#utility.yul\":205:347   */\n      swap2\n      swap1\n      pop\n      jump\t// out\n        /* \"#utility.yul\":353:479   */\n    tag_152:\n        /* \"#utility.yul\":403:412   */\n      0x00\n        /* \"#utility.yul\":436:473   */\n      tag_185\n        /* \"#utility.yul\":467:472   */\n      dup3\n        /* \"#utility.yul\":436:473   */\n      tag_151\n      jump\t// in\n    tag_185:\n        /* \"#utility.yul\":423:473   */\n      swap1\n      pop\n        /* \"#utility.yul\":353:479   */\n      swap2\n      swap1\n      pop\n      jump\t// out\n        /* \"#utility.yul\":485:625   */\n    tag_153:\n        /* \"#utility.yul\":549:558   */\n      0x00\n        /* \"#utility.yul\":582:619   */\n      tag_187\n        /* \"#utility.yul\":613:618   */\n      dup3\n        /* \"#utility.yul\":582:619   */\n      tag_152\n      jump\t// in\n    tag_187:\n        /* \"#utility.yul\":569:619   */\n      swap1\n      pop\n        /* \"#utility.yul\":485:625   */\n      swap2\n      swap1\n      pop\n      jump\t// out\n        /* \"#utility.yul\":631:790   */\n    tag_154:\n        /* \"#utility.yul\":732:783   */\n      tag_189\n        /* \"#utility.yul\":777:782   */\n      dup2\n        /* \"#utility.yul\":732:783   */\n      tag_153\n      jump\t// in\n    tag_189:\n        /* \"#utility.yul\":727:730   */\n      dup3\n        /* \"#utility.yul\":720:784   */\n      mstore\n        /* \"#utility.yul\":631:790   */\n      pop\n      pop\n      jump\t// out\n        /* \"#utility.yul\":796:1046   */\n    tag_16:\n        /* \"#utility.yul\":903:907   */\n      0x00\n        /* \"#utility.yul\":941:943   */\n      0x20\n        /* \"#utility.yul\":930:939   */\n      dup3\n        /* \"#utility.yul\":926:944   */\n      add\n        /* \"#utility.yul\":918:944   */\n      swap1\n      pop\n        /* \"#utility.yul\":954:1039   */\n      tag_191\n        /* \"#utility.yul\":1036:1037   */\n      0x00\n        /* \"#utility.yul\":1025:1034   */\n      dup4\n        /* \"#utility.yul\":1021:1038   */\n      add\n        /* \"#utility.yul\":1012:1018   */\n      dup5\n        /* \"#utility.yul\":954:1039   */\n      tag_154\n      jump\t// in\n    tag_191:\n        /* \"#utility.yul\":796:1046   */\n      swap3\n      swap2\n      pop\n      pop\n      jump\t// out\n        /* \"#utility.yul\":1052:1129   */\n    tag_155:\n        /* \"#utility.yul\":1089:1096   */\n      0x00\n        /* \"#utility.yul\":1118:1123   */\n      dup2\n        /* \"#utility.yul\":1107:1123   */\n      swap1\n      pop\n        /* \"#utility.yul\":1052:1129   */\n      swap2\n      swap1\n      pop\n      jump\t// out\n        /* \"#utility.yul\":1135:1253   */\n    tag_156:\n        /* \"#utility.yul\":1222:1246   */\n      tag_194\n        /* \"#utility.yul\":1240:1245   */\n      dup2\n        /* \"#utility.yul\":1222:1246   */\n      tag_155\n      jump\t// in\n    tag_194:\n        /* \"#utility.yul\":1217:1220   */\n      dup3\n        /* \"#utility.yul\":1210:1247   */\n      mstore\n        /* \"#utility.yul\":1135:1253   */\n      pop\n      pop\n      jump\t// out\n        /* \"#utility.yul\":1259:1481   */\n    tag_20:\n        /* \"#utility.yul\":1352:1356   */\n      0x00\n        /* \"#utility.yul\":1390:1392   */\n      0x20\n        /* \"#utility.yul\":1379:1388   */\n      dup3\n        /* \"#utility.yul\":1375:1393   */\n      add\n        /* \"#utility.yul\":1367:1393   */\n      swap1\n      pop\n        /* \"#utility.yul\":1403:1474   */\n      tag_196\n        /* \"#utility.yul\":1471:1472   */\n      0x00\n        /* \"#utility.yul\":1460:1469   */\n      dup4\n        /* \"#utility.yul\":1456:1473   */\n      add\n        /* \"#utility.yul\":1447:1453   */\n      dup5\n        /* \"#utility.yul\":1403:1474   */\n      tag_156\n      jump\t// in\n    tag_196:\n        /* \"#utility.yul\":1259:1481   */\n      swap3\n      swap2\n      pop\n      pop\n      jump\t// out\n        /* \"#utility.yul\":1568:1685   */\n    tag_158:\n        /* \"#utility.yul\":1677:1678   */\n      0x00\n        /* \"#utility.yul\":1674:1675   */\n      dup1\n        /* \"#utility.yul\":1667:1679   */\n      revert\n        /* \"#utility.yul\":1814:1910   */\n    tag_160:\n        /* \"#utility.yul\":1851:1858   */\n      0x00\n        /* \"#utility.yul\":1880:1904   */\n      tag_201\n        /* \"#utility.yul\":1898:1903   */\n      dup3\n        /* \"#utility.yul\":1880:1904   */\n      tag_149\n      jump\t// in\n    tag_201:\n        /* \"#utility.yul\":1869:1904   */\n      swap1\n      pop\n        /* \"#utility.yul\":1814:1910   */\n      swap2\n      swap1\n      pop\n      jump\t// out\n        /* \"#utility.yul\":1916:2038   */\n    tag_161:\n        /* \"#utility.yul\":1989:2013   */\n      tag_203\n        /* \"#utility.yul\":2007:2012   */\n      dup2\n        /* \"#utility.yul\":1989:2013   */\n      tag_160\n      jump\t// in\n    tag_203:\n        /* \"#utility.yul\":1982:1987   */\n      dup2\n        /* \"#utility.yul\":1979:2014   */\n      eq\n        /* \"#utility.yul\":1969:2032   */\n      tag_204\n      jumpi\n        /* \"#utility.yul\":2028:2029   */\n      0x00\n        /* \"#utility.yul\":2025:2026   */\n      dup1\n        /* \"#utility.yul\":2018:2030   */\n      revert\n        /* \"#utility.yul\":1969:2032   */\n    tag_204:\n        /* \"#utility.yul\":1916:2038   */\n      pop\n      jump\t// out\n        /* \"#utility.yul\":2044:2183   */\n    tag_162:\n        /* \"#utility.yul\":2090:2095   */\n      0x00\n        /* \"#utility.yul\":2128:2134   */\n      dup2\n        /* \"#utility.yul\":2115:2135   */\n      calldataload\n        /* \"#utility.yul\":2106:2135   */\n      swap1\n      pop\n        /* \"#utility.yul\":2144:2177   */\n      tag_206\n        /* \"#utility.yul\":2171:2176   */\n      dup2\n        /* \"#utility.yul\":2144:2177   */\n      tag_161\n      jump\t// in\n    tag_206:\n        /* \"#utility.yul\":2044:2183   */\n      swap3\n      swap2\n      pop\n      pop\n      jump\t// out\n        /* \"#utility.yul\":2189:2518   */\n    tag_29:\n        /* \"#utility.yul\":2248:2254   */\n      0x00\n        /* \"#utility.yul\":2297:2299   */\n      0x20\n        /* \"#utility.yul\":2285:2294   */\n      dup3\n        /* \"#utility.yul\":2276:2283   */\n      dup5\n        /* \"#utility.yul\":2272:2295   */\n      sub\n        /* \"#utility.yul\":2268:2300   */\n      slt\n        /* \"#utility.yul\":2265:2384   */\n      iszero\n      tag_208\n      jumpi\n        /* \"#utility.yul\":2303:2382   */\n      tag_209\n      tag_158\n      jump\t// in\n    tag_209:\n        /* \"#utility.yul\":2265:2384   */\n    tag_208:\n        /* \"#utility.yul\":2423:2424   */\n      0x00\n        /* \"#utility.yul\":2448:2501   */\n      tag_210\n        /* \"#utility.yul\":2493:2500   */\n      dup5\n        /* \"#utility.yul\":2484:2490   */\n      dup3\n        /* \"#utility.yul\":2473:2482   */\n      dup6\n        /* \"#utility.yul\":2469:2491   */\n      add\n        /* \"#utility.yul\":2448:2501   */\n      tag_162\n      jump\t// in\n    tag_210:\n        /* \"#utility.yul\":2438:2501   */\n      swap2\n      pop\n        /* \"#utility.yul\":2394:2511   */\n      pop\n        /* \"#utility.yul\":2189:2518   */\n      swap3\n      swap2\n      pop\n      pop\n      jump\t// out\n        /* \"#utility.yul\":2524:2646   */\n    tag_163:\n        /* \"#utility.yul\":2597:2621   */\n      tag_212\n        /* \"#utility.yul\":2615:2620   */\n      dup2\n        /* \"#utility.yul\":2597:2621   */\n      tag_155\n      jump\t// in\n    tag_212:\n        /* \"#utility.yul\":2590:2595   */\n      dup2\n        /* \"#utility.yul\":2587:2622   */\n      eq\n        /* \"#utility.yul\":2577:2640   */\n      tag_213\n      jumpi\n        /* \"#utility.yul\":2636:2637   */\n      0x00\n        /* \"#utility.yul\":2633:2634   */\n      dup1\n        /* \"#utility.yul\":2626:2638   */\n      revert\n        /* \"#utility.yul\":2577:2640   */\n    tag_213:\n        /* \"#utility.yul\":2524:2646   */\n      pop\n      jump\t// out\n        /* \"#utility.yul\":2652:2791   */\n    tag_164:\n        /* \"#utility.yul\":2698:2703   */\n      0x00\n        /* \"#utility.yul\":2736:2742   */\n      dup2\n        /* \"#utility.yul\":2723:2743   */\n      calldataload\n        /* \"#utility.yul\":2714:2743   */\n      swap1\n      pop\n        /* \"#utility.yul\":2752:2785   */\n      tag_215\n        /* \"#utility.yul\":2779:2784   */\n      dup2\n        /* \"#utility.yul\":2752:2785   */\n      tag_163\n      jump\t// in\n    tag_215:\n        /* \"#utility.yul\":2652:2791   */\n      swap3\n      swap2\n      pop\n      pop\n      jump\t// out\n        /* \"#utility.yul\":2797:3126   */\n    tag_34:\n        /* \"#utility.yul\":2856:2862   */\n      0x00\n        /* \"#utility.yul\":2905:2907   */\n      0x20\n        /* \"#utility.yul\":2893:2902   */\n      dup3\n        /* \"#utility.yul\":2884:2891   */\n      dup5\n        /* \"#utility.yul\":2880:2903   */\n      sub\n        /* \"#utility.yul\":2876:2908   */\n      slt\n        /* \"#utility.yul\":2873:2992   */\n      iszero\n      tag_217\n      jumpi\n        /* \"#utility.yul\":2911:2990   */\n      tag_218\n      tag_158\n      jump\t// in\n    tag_218:\n        /* \"#utility.yul\":2873:2992   */\n    tag_217:\n        /* \"#utility.yul\":3031:3032   */\n      0x00\n        /* \"#utility.yul\":3056:3109   */\n      tag_219\n        /* \"#utility.yul\":3101:3108   */\n      dup5\n        /* \"#utility.yul\":3092:3098   */\n      dup3\n        /* \"#utility.yul\":3081:3090   */\n      dup6\n        /* \"#utility.yul\":3077:3099   */\n      add\n        /* \"#utility.yul\":3056:3109   */\n      tag_164\n      jump\t// in\n    tag_219:\n        /* \"#utility.yul\":3046:3109   */\n      swap2\n      pop\n        /* \"#utility.yul\":3002:3119   */\n      pop\n        /* \"#utility.yul\":2797:3126   */\n      swap3\n      swap2\n      pop\n      pop\n      jump\t// out\n        /* \"#utility.yul\":3132:3464   */\n    tag_37:\n        /* \"#utility.yul\":3253:3257   */\n      0x00\n        /* \"#utility.yul\":3291:3293   */\n      0x40\n        /* \"#utility.yul\":3280:3289   */\n      dup3\n        /* \"#utility.yul\":3276:3294   */\n      add\n        /* \"#utility.yul\":3268:3294   */\n      swap1\n      pop\n        /* \"#utility.yul\":3304:3375   */\n      tag_221\n        /* \"#utility.yul\":3372:3373   */\n      0x00\n        /* \"#utility.yul\":3361:3370   */\n      dup4\n        /* \"#utility.yul\":3357:3374   */\n      add\n        /* \"#utility.yul\":3348:3354   */\n      dup6\n        /* \"#utility.yul\":3304:3375   */\n      tag_156\n      jump\t// in\n    tag_221:\n        /* \"#utility.yul\":3385:3457   */\n      tag_222\n        /* \"#utility.yul\":3453:3455   */\n      0x20\n        /* \"#utility.yul\":3442:3451   */\n      dup4\n        /* \"#utility.yul\":3438:3456   */\n      add\n        /* \"#utility.yul\":3429:3435   */\n      dup5\n        /* \"#utility.yul\":3385:3457   */\n      tag_156\n      jump\t// in\n    tag_222:\n        /* \"#utility.yul\":3132:3464   */\n      swap4\n      swap3\n      pop\n      pop\n      pop\n      jump\t// out\n        /* \"#utility.yul\":3470:3944   */\n    tag_40:\n        /* \"#utility.yul\":3538:3544   */\n      0x00\n        /* \"#utility.yul\":3546:3552   */\n      dup1\n        /* \"#utility.yul\":3595:3597   */\n      0x40\n        /* \"#utility.yul\":3583:3592   */\n      dup4\n        /* \"#utility.yul\":3574:3581   */\n      dup6\n        /* \"#utility.yul\":3570:3593   */\n      sub\n        /* \"#utility.yul\":3566:3598   */\n      slt\n        /* \"#utility.yul\":3563:3682   */\n      iszero\n      tag_224\n      jumpi\n        /* \"#utility.yul\":3601:3680   */\n      tag_225\n      tag_158\n      jump\t// in\n    tag_225:\n        /* \"#utility.yul\":3563:3682   */\n    tag_224:\n        /* \"#utility.yul\":3721:3722   */\n      0x00\n        /* \"#utility.yul\":3746:3799   */\n      tag_226\n        /* \"#utility.yul\":3791:3798   */\n      dup6\n        /* \"#utility.yul\":3782:3788   */\n      dup3\n        /* \"#utility.yul\":3771:3780   */\n      dup7\n        /* \"#utility.yul\":3767:3789   */\n      add\n        /* \"#utility.yul\":3746:3799   */\n      tag_164\n      jump\t// in\n    tag_226:\n        /* \"#utility.yul\":3736:3799   */\n      swap3\n      pop\n        /* \"#utility.yul\":3692:3809   */\n      pop\n        /* \"#utility.yul\":3848:3850   */\n      0x20\n        /* \"#utility.yul\":3874:3927   */\n      tag_227\n        /* \"#utility.yul\":3919:3926   */\n      dup6\n        /* \"#utility.yul\":3910:3916   */\n      dup3\n        /* \"#utility.yul\":3899:3908   */\n      dup7\n        /* \"#utility.yul\":3895:3917   */\n      add\n        /* \"#utility.yul\":3874:3927   */\n      tag_164\n      jump\t// in\n    tag_227:\n        /* \"#utility.yul\":3864:3927   */\n      swap2\n      pop\n        /* \"#utility.yul\":3819:3937   */\n      pop\n        /* \"#utility.yul\":3470:3944   */\n      swap3\n      pop\n      swap3\n      swap1\n      pop\n      jump\t// out\n        /* \"#utility.yul\":3950:4424   */\n    tag_45:\n        /* \"#utility.yul\":4018:4024   */\n      0x00\n        /* \"#utility.yul\":4026:4032   */\n      dup1\n        /* \"#utility.yul\":4075:4077   */\n      0x40\n        /* \"#utility.yul\":4063:4072   */\n      dup4\n        /* \"#utility.yul\":4054:4061   */\n      dup6\n        /* \"#utility.yul\":4050:4073   */\n      sub\n        /* \"#utility.yul\":4046:4078   */\n      slt\n        /* \"#utility.yul\":4043:4162   */\n      iszero\n      tag_229\n      jumpi\n        /* \"#utility.yul\":4081:4160   */\n      tag_230\n      tag_158\n      jump\t// in\n    tag_230:\n        /* \"#utility.yul\":4043:4162   */\n    tag_229:\n        /* \"#utility.yul\":4201:4202   */\n      0x00\n        /* \"#utility.yul\":4226:4279   */\n      tag_231\n        /* \"#utility.yul\":4271:4278   */\n      dup6\n        /* \"#utility.yul\":4262:4268   */\n      dup3\n        /* \"#utility.yul\":4251:4260   */\n      dup7\n        /* \"#utility.yul\":4247:4269   */\n      add\n        /* \"#utility.yul\":4226:4279   */\n      tag_162\n      jump\t// in\n    tag_231:\n        /* \"#utility.yul\":4216:4279   */\n      swap3\n      pop\n        /* \"#utility.yul\":4172:4289   */\n      pop\n        /* \"#utility.yul\":4328:4330   */\n      0x20\n        /* \"#utility.yul\":4354:4407   */\n      tag_232\n        /* \"#utility.yul\":4399:4406   */\n      dup6\n        /* \"#utility.yul\":4390:4396   */\n      dup3\n        /* \"#utility.yul\":4379:4388   */\n      dup7\n        /* \"#utility.yul\":4375:4397   */\n      add\n        /* \"#utility.yul\":4354:4407   */\n      tag_164\n      jump\t// in\n    tag_232:\n        /* \"#utility.yul\":4344:4407   */\n      swap2\n      pop\n        /* \"#utility.yul\":4299:4417   */\n      pop\n        /* \"#utility.yul\":3950:4424   */\n      swap3\n      pop\n      swap3\n      swap1\n      pop\n      jump\t// out\n        /* \"#utility.yul\":4430:4610   */\n    tag_165:\n        /* \"#utility.yul\":4478:4555   */\n      0x4e487b7100000000000000000000000000000000000000000000000000000000\n        /* \"#utility.yul\":4475:4476   */\n      0x00\n        /* \"#utility.yul\":4468:4556   */\n      mstore\n        /* \"#utility.yul\":4575:4579   */\n      0x11\n        /* \"#utility.yul\":4572:4573   */\n      0x04\n        /* \"#utility.yul\":4565:4580   */\n      mstore\n        /* \"#utility.yul\":4599:4603   */\n      0x24\n        /* \"#utility.yul\":4596:4597   */\n      0x00\n        /* \"#utility.yul\":4589:4604   */\n      revert\n        /* \"#utility.yul\":4616:4964   */\n    tag_53:\n        /* \"#utility.yul\":4656:4663   */\n      0x00\n        /* \"#utility.yul\":4679:4699   */\n      tag_235\n        /* \"#utility.yul\":4697:4698   */\n      dup3\n        /* \"#utility.yul\":4679:4699   */\n      tag_155\n      jump\t// in\n    tag_235:\n        /* \"#utility.yul\":4674:4699   */\n      swap2\n      pop\n        /* \"#utility.yul\":4713:4733   */\n      tag_236\n        /* \"#utility.yul\":4731:4732   */\n      dup4\n        /* \"#utility.yul\":4713:4733   */\n      tag_155\n      jump\t// in\n    tag_236:\n        /* \"#utility.yul\":4708:4733   */\n      swap3\n      pop\n        /* \"#utility.yul\":4901:4902   */\n      dup2\n        /* \"#utility.yul\":4833:4899   */\n      0xffffffffffffffffffffffffffffffffffffffffffffffffffffffffffffffff\n        /* \"#utility.yul\":4829:4903   */\n      div\n        /* \"#utility.yul\":4826:4827   */\n      dup4\n        /* \"#utility.yul\":4823:4904   */\n      gt\n        /* \"#utility.yul\":4818:4819   */\n      dup3\n        /* \"#utility.yul\":4811:4820   */\n      iszero\n        /* \"#utility.yul\":4804:4821   */\n      iszero\n        /* \"#utility.yul\":4800:4905   */\n      and\n        /* \"#utility.yul\":4797:4928   */\n      iszero\n      tag_237\n      jumpi\n        /* \"#utility.yul\":4908:4926   */\n      tag_238\n      tag_165\n      jump\t// in\n    tag_238:\n        /* \"#utility.yul\":4797:4928   */\n    tag_237:\n        /* \"#utility.yul\":4956:4957   */\n      dup3\n        /* \"#utility.yul\":4953:4954   */\n      dup3\n        /* \"#utility.yul\":4949:4958   */\n      mul\n        /* \"#utility.yul\":4938:4958   */\n      swap1\n      pop\n        /* \"#utility.yul\":4616:4964   */\n      swap3\n      swap2\n      pop\n      pop\n      jump\t// out\n        /* \"#utility.yul\":4970:5150   */\n    tag_166:\n        /* \"#utility.yul\":5018:5095   */\n      0x4e487b7100000000000000000000000000000000000000000000000000000000\n        /* \"#utility.yul\":5015:5016   */\n      0x00\n        /* \"#utility.yul\":5008:5096   */\n      mstore\n        /* \"#utility.yul\":5115:5119   */\n      0x12\n        /* \"#utility.yul\":5112:5113   */\n      0x04\n        /* \"#utility.yul\":5105:5120   */\n      mstore\n        /* \"#utility.yul\":5139:5143   */\n      0x24\n        /* \"#utility.yul\":5136:5137   */\n      0x00\n        /* \"#utility.yul\":5129:5144   */\n      revert\n        /* \"#utility.yul\":5156:5341   */\n    tag_55:\n        /* \"#utility.yul\":5196:5197   */\n      0x00\n        /* \"#utility.yul\":5213:5233   */\n      tag_241\n        /* \"#utility.yul\":5231:5232   */\n      dup3\n        /* \"#utility.yul\":5213:5233   */\n      tag_155\n      jump\t// in\n    tag_241:\n        /* \"#utility.yul\":5208:5233   */\n      swap2\n      pop\n        /* \"#utility.yul\":5247:5267   */\n      tag_242\n        /* \"#utility.yul\":5265:5266   */\n      dup4\n        /* \"#utility.yul\":5247:5267   */\n      tag_155\n      jump\t// in\n    tag_242:\n        /* \"#utility.yul\":5242:5267   */\n      swap3\n      pop\n        /* \"#utility.yul\":5286:5287   */\n      dup3\n        /* \"#utility.yul\":5276:5311   */\n      tag_243\n      jumpi\n        /* \"#utility.yul\":5291:5309   */\n      tag_244\n      tag_166\n      jump\t// in\n    tag_244:\n        /* \"#utility.yul\":5276:5311   */\n    tag_243:\n        /* \"#utility.yul\":5333:5334   */\n      dup3\n        /* \"#utility.yul\":5330:5331   */\n      dup3\n        /* \"#utility.yul\":5326:5335   */\n      div\n        /* \"#utility.yul\":5321:5335   */\n      swap1\n      pop\n        /* \"#utility.yul\":5156:5341   */\n      swap3\n      swap2\n      pop\n      pop\n      jump\t// out\n        /* \"#utility.yul\":5347:5538   */\n    tag_62:\n        /* \"#utility.yul\":5387:5391   */\n      0x00\n        /* \"#utility.yul\":5407:5427   */\n      tag_246\n        /* \"#utility.yul\":5425:5426   */\n      dup3\n        /* \"#utility.yul\":5407:5427   */\n      tag_155\n      jump\t// in\n    tag_246:\n        /* \"#utility.yul\":5402:5427   */\n      swap2\n      pop\n        /* \"#utility.yul\":5441:5461   */\n      tag_247\n        /* \"#utility.yul\":5459:5460   */\n      dup4\n        /* \"#utility.yul\":5441:5461   */\n      tag_155\n      jump\t// in\n    tag_247:\n        /* \"#utility.yul\":5436:5461   */\n      swap3\n      pop\n        /* \"#utility.yul\":5480:5481   */\n      dup3\n        /* \"#utility.yul\":5477:5478   */\n      dup3\n        /* \"#utility.yul\":5474:5482   */\n      lt\n        /* \"#utility.yul\":5471:5505   */\n      iszero\n      tag_248\n      jumpi\n        /* \"#utility.yul\":5485:5503   */\n      tag_249\n      tag_165\n      jump\t// in\n    tag_249:\n        /* \"#utility.yul\":5471:5505   */\n    tag_248:\n        /* \"#utility.yul\":5530:5531   */\n      dup3\n        /* \"#utility.yul\":5527:5528   */\n      dup3\n        /* \"#utility.yul\":5523:5532   */\n      sub\n        /* \"#utility.yul\":5515:5532   */\n      swap1\n      pop\n        /* \"#utility.yul\":5347:5538   */\n      swap3\n      swap2\n      pop\n      pop\n      jump\t// out\n        /* \"#utility.yul\":5544:5662   */\n    tag_167:\n        /* \"#utility.yul\":5631:5655   */\n      tag_251\n        /* \"#utility.yul\":5649:5654   */\n      dup2\n        /* \"#utility.yul\":5631:5655   */\n      tag_160\n      jump\t// in\n    tag_251:\n        /* \"#utility.yul\":5626:5629   */\n      dup3\n        /* \"#utility.yul\":5619:5656   */\n      mstore\n        /* \"#utility.yul\":5544:5662   */\n      pop\n      pop\n      jump\t// out\n        /* \"#utility.yul\":5668:6000   */\n    tag_67:\n        /* \"#utility.yul\":5789:5793   */\n      0x00\n        /* \"#utility.yul\":5827:5829   */\n      0x40\n        /* \"#utility.yul\":5816:5825   */\n      dup3\n        /* \"#utility.yul\":5812:5830   */\n      add\n        /* \"#utility.yul\":5804:5830   */\n      swap1\n      pop\n        /* \"#utility.yul\":5840:5911   */\n      tag_253\n        /* \"#utility.yul\":5908:5909   */\n      0x00\n        /* \"#utility.yul\":5897:5906   */\n      dup4\n        /* \"#utility.yul\":5893:5910   */\n      add\n        /* \"#utility.yul\":5884:5890   */\n      dup6\n        /* \"#utility.yul\":5840:5911   */\n      tag_167\n      jump\t// in\n    tag_253:\n        /* \"#utility.yul\":5921:5993   */\n      tag_254\n        /* \"#utility.yul\":5989:5991   */\n      0x20\n        /* \"#utility.yul\":5978:5987   */\n      dup4\n        /* \"#utility.yul\":5974:5992   */\n      add\n        /* \"#utility.yul\":5965:5971   */\n      dup5\n        /* \"#utility.yul\":5921:5993   */\n      tag_156\n      jump\t// in\n    tag_254:\n        /* \"#utility.yul\":5668:6000   */\n      swap4\n      swap3\n      pop\n      pop\n      pop\n      jump\t// out\n        /* \"#utility.yul\":6006:6096   */\n    tag_168:\n        /* \"#utility.yul\":6040:6047   */\n      0x00\n        /* \"#utility.yul\":6083:6088   */\n      dup2\n        /* \"#utility.yul\":6076:6089   */\n      iszero\n        /* \"#utility.yul\":6069:6090   */\n      iszero\n        /* \"#utility.yul\":6058:6090   */\n      swap1\n      pop\n        /* \"#utility.yul\":6006:6096   */\n      swap2\n      swap1\n      pop\n      jump\t// out\n        /* \"#utility.yul\":6102:6218   */\n    tag_169:\n        /* \"#utility.yul\":6172:6193   */\n      tag_257\n        /* \"#utility.yul\":6187:6192   */\n      dup2\n        /* \"#utility.yul\":6172:6193   */\n      tag_168\n      jump\t// in\n    tag_257:\n        /* \"#utility.yul\":6165:6170   */\n      dup2\n        /* \"#utility.yul\":6162:6194   */\n      eq\n        /* \"#utility.yul\":6152:6212   */\n      tag_258\n      jumpi\n        /* \"#utility.yul\":6208:6209   */\n      0x00\n        /* \"#utility.yul\":6205:6206   */\n      dup1\n        /* \"#utility.yul\":6198:6210   */\n      revert\n        /* \"#utility.yul\":6152:6212   */\n    tag_258:\n        /* \"#utility.yul\":6102:6218   */\n      pop\n      jump\t// out\n        /* \"#utility.yul\":6224:6361   */\n    tag_170:\n        /* \"#utility.yul\":6278:6283   */\n      0x00\n        /* \"#utility.yul\":6309:6315   */\n      dup2\n        /* \"#utility.yul\":6303:6316   */\n      mload\n        /* \"#utility.yul\":6294:6316   */\n      swap1\n      pop\n        /* \"#utility.yul\":6325:6355   */\n      tag_260\n        /* \"#utility.yul\":6349:6354   */\n      dup2\n        /* \"#utility.yul\":6325:6355   */\n      tag_169\n      jump\t// in\n    tag_260:\n        /* \"#utility.yul\":6224:6361   */\n      swap3\n      swap2\n      pop\n      pop\n      jump\t// out\n        /* \"#utility.yul\":6367:6712   */\n    tag_71:\n        /* \"#utility.yul\":6434:6440   */\n      0x00\n        /* \"#utility.yul\":6483:6485   */\n      0x20\n        /* \"#utility.yul\":6471:6480   */\n      dup3\n        /* \"#utility.yul\":6462:6469   */\n      dup5\n        /* \"#utility.yul\":6458:6481   */\n      sub\n        /* \"#utility.yul\":6454:6486   */\n      slt\n        /* \"#utility.yul\":6451:6570   */\n      iszero\n      tag_262\n      jumpi\n        /* \"#utility.yul\":6489:6568   */\n      tag_263\n      tag_158\n      jump\t// in\n    tag_263:\n        /* \"#utility.yul\":6451:6570   */\n    tag_262:\n        /* \"#utility.yul\":6609:6610   */\n      0x00\n        /* \"#utility.yul\":6634:6695   */\n      tag_264\n        /* \"#utility.yul\":6687:6694   */\n      dup5\n        /* \"#utility.yul\":6678:6684   */\n      dup3\n        /* \"#utility.yul\":6667:6676   */\n      dup6\n        /* \"#utility.yul\":6663:6685   */\n      add\n        /* \"#utility.yul\":6634:6695   */\n      tag_170\n      jump\t// in\n    tag_264:\n        /* \"#utility.yul\":6624:6695   */\n      swap2\n      pop\n        /* \"#utility.yul\":6580:6705   */\n      pop\n        /* \"#utility.yul\":6367:6712   */\n      swap3\n      swap2\n      pop\n      pop\n      jump\t// out\n        /* \"#utility.yul\":6718:7160   */\n    tag_79:\n        /* \"#utility.yul\":6867:6871   */\n      0x00\n        /* \"#utility.yul\":6905:6907   */\n      0x60\n        /* \"#utility.yul\":6894:6903   */\n      dup3\n        /* \"#utility.yul\":6890:6908   */\n      add\n        /* \"#utility.yul\":6882:6908   */\n      swap1\n      pop\n        /* \"#utility.yul\":6918:6989   */\n      tag_266\n        /* \"#utility.yul\":6986:6987   */\n      0x00\n        /* \"#utility.yul\":6975:6984   */\n      dup4\n        /* \"#utility.yul\":6971:6988   */\n      add\n        /* \"#utility.yul\":6962:6968   */\n      dup7\n        /* \"#utility.yul\":6918:6989   */\n      tag_167\n      jump\t// in\n    tag_266:\n        /* \"#utility.yul\":6999:7071   */\n      tag_267\n        /* \"#utility.yul\":7067:7069   */\n      0x20\n        /* \"#utility.yul\":7056:7065   */\n      dup4\n        /* \"#utility.yul\":7052:7070   */\n      add\n        /* \"#utility.yul\":7043:7049   */\n      dup6\n        /* \"#utility.yul\":6999:7071   */\n      tag_167\n      jump\t// in\n    tag_267:\n        /* \"#utility.yul\":7081:7153   */\n      tag_268\n        /* \"#utility.yul\":7149:7151   */\n      0x40\n        /* \"#utility.yul\":7138:7147   */\n      dup4\n        /* \"#utility.yul\":7134:7152   */\n      add\n        /* \"#utility.yul\":7125:7131   */\n      dup5\n        /* \"#utility.yul\":7081:7153   */\n      tag_156\n      jump\t// in\n    tag_268:\n        /* \"#utility.yul\":6718:7160   */\n      swap5\n      swap4\n      pop\n      pop\n      pop\n      pop\n      jump\t// out\n        /* \"#utility.yul\":7166:7388   */\n    tag_88:\n        /* \"#utility.yul\":7259:7263   */\n      0x00\n        /* \"#utility.yul\":7297:7299   */\n      0x20\n        /* \"#utility.yul\":7286:7295   */\n      dup3\n        /* \"#utility.yul\":7282:7300   */\n      add\n        /* \"#utility.yul\":7274:7300   */\n      swap1\n      pop\n        /* \"#utility.yul\":7310:7381   */\n      tag_270\n        /* \"#utility.yul\":7378:7379   */\n      0x00\n        /* \"#utility.yul\":7367:7376   */\n      dup4\n        /* \"#utility.yul\":7363:7380   */\n      add\n        /* \"#utility.yul\":7354:7360   */\n      dup5\n        /* \"#utility.yul\":7310:7381   */\n      tag_167\n      jump\t// in\n    tag_270:\n        /* \"#utility.yul\":7166:7388   */\n      swap3\n      swap2\n      pop\n      pop\n      jump\t// out\n        /* \"#utility.yul\":7394:7537   */\n    tag_171:\n        /* \"#utility.yul\":7451:7456   */\n      0x00\n        /* \"#utility.yul\":7482:7488   */\n      dup2\n        /* \"#utility.yul\":7476:7489   */\n      mload\n        /* \"#utility.yul\":7467:7489   */\n      swap1\n      pop\n        /* \"#utility.yul\":7498:7531   */\n      tag_272\n        /* \"#utility.yul\":7525:7530   */\n      dup2\n        /* \"#utility.yul\":7498:7531   */\n      tag_163\n      jump\t// in\n    tag_272:\n        /* \"#utility.yul\":7394:7537   */\n      swap3\n      swap2\n      pop\n      pop\n      jump\t// out\n        /* \"#utility.yul\":7543:7894   */\n    tag_92:\n        /* \"#utility.yul\":7613:7619   */\n      0x00\n        /* \"#utility.yul\":7662:7664   */\n      0x20\n        /* \"#utility.yul\":7650:7659   */\n      dup3\n        /* \"#utility.yul\":7641:7648   */\n      dup5\n        /* \"#utility.yul\":7637:7660   */\n      sub\n        /* \"#utility.yul\":7633:7665   */\n      slt\n        /* \"#utility.yul\":7630:7749   */\n      iszero\n      tag_274\n      jumpi\n        /* \"#utility.yul\":7668:7747   */\n      tag_275\n      tag_158\n      jump\t// in\n    tag_275:\n        /* \"#utility.yul\":7630:7749   */\n    tag_274:\n        /* \"#utility.yul\":7788:7789   */\n      0x00\n        /* \"#utility.yul\":7813:7877   */\n      tag_276\n        /* \"#utility.yul\":7869:7876   */\n      dup5\n        /* \"#utility.yul\":7860:7866   */\n      dup3\n        /* \"#utility.yul\":7849:7858   */\n      dup6\n        /* \"#utility.yul\":7845:7867   */\n      add\n        /* \"#utility.yul\":7813:7877   */\n      tag_171\n      jump\t// in\n    tag_276:\n        /* \"#utility.yul\":7803:7877   */\n      swap2\n      pop\n        /* \"#utility.yul\":7759:7887   */\n      pop\n        /* \"#utility.yul\":7543:7894   */\n      swap3\n      swap2\n      pop\n      pop\n      jump\t// out\n        /* \"#utility.yul\":7900:8205   */\n    tag_101:\n        /* \"#utility.yul\":7940:7943   */\n      0x00\n        /* \"#utility.yul\":7959:7979   */\n      tag_278\n        /* \"#utility.yul\":7977:7978   */\n      dup3\n        /* \"#utility.yul\":7959:7979   */\n      tag_155\n      jump\t// in\n    tag_278:\n        /* \"#utility.yul\":7954:7979   */\n      swap2\n      pop\n        /* \"#utility.yul\":7993:8013   */\n      tag_279\n        /* \"#utility.yul\":8011:8012   */\n      dup4\n        /* \"#utility.yul\":7993:8013   */\n      tag_155\n      jump\t// in\n    tag_279:\n        /* \"#utility.yul\":7988:8013   */\n      swap3\n      pop\n        /* \"#utility.yul\":8147:8148   */\n      dup3\n        /* \"#utility.yul\":8079:8145   */\n      0xffffffffffffffffffffffffffffffffffffffffffffffffffffffffffffffff\n        /* \"#utility.yul\":8075:8149   */\n      sub\n        /* \"#utility.yul\":8072:8073   */\n      dup3\n        /* \"#utility.yul\":8069:8150   */\n      gt\n        /* \"#utility.yul\":8066:8173   */\n      iszero\n      tag_280\n      jumpi\n        /* \"#utility.yul\":8153:8171   */\n      tag_281\n      tag_165\n      jump\t// in\n    tag_281:\n        /* \"#utility.yul\":8066:8173   */\n    tag_280:\n        /* \"#utility.yul\":8197:8198   */\n      dup3\n        /* \"#utility.yul\":8194:8195   */\n      dup3\n        /* \"#utility.yul\":8190:8199   */\n      add\n        /* \"#utility.yul\":8183:8199   */\n      swap1\n      pop\n        /* \"#utility.yul\":7900:8205   */\n      swap3\n      swap2\n      pop\n      pop\n      jump\t// out\n        /* \"#utility.yul\":8211:8380   */\n    tag_172:\n        /* \"#utility.yul\":8295:8306   */\n      0x00\n        /* \"#utility.yul\":8329:8335   */\n      dup3\n        /* \"#utility.yul\":8324:8327   */\n      dup3\n        /* \"#utility.yul\":8317:8336   */\n      mstore\n        /* \"#utility.yul\":8369:8373   */\n      0x20\n        /* \"#utility.yul\":8364:8367   */\n      dup3\n        /* \"#utility.yul\":8360:8374   */\n      add\n        /* \"#utility.yul\":8345:8374   */\n      swap1\n      pop\n        /* \"#utility.yul\":8211:8380   */\n      swap3\n      swap2\n      pop\n      pop\n      jump\t// out\n        /* \"#utility.yul\":8386:8546   */\n    tag_173:\n        /* \"#utility.yul\":8526:8538   */\n      0x736861726573203d203000000000000000000000000000000000000000000000\n        /* \"#utility.yul\":8522:8523   */\n      0x00\n        /* \"#utility.yul\":8514:8520   */\n      dup3\n        /* \"#utility.yul\":8510:8524   */\n      add\n        /* \"#utility.yul\":8503:8539   */\n      mstore\n        /* \"#utility.yul\":8386:8546   */\n      pop\n      jump\t// out\n        /* \"#utility.yul\":8552:8918   */\n    tag_174:\n        /* \"#utility.yul\":8694:8697   */\n      0x00\n        /* \"#utility.yul\":8715:8782   */\n      tag_285\n        /* \"#utility.yul\":8779:8781   */\n      0x0a\n        /* \"#utility.yul\":8774:8777   */\n      dup4\n        /* \"#utility.yul\":8715:8782   */\n      tag_172\n      jump\t// in\n    tag_285:\n        /* \"#utility.yul\":8708:8782   */\n      swap2\n      pop\n        /* \"#utility.yul\":8791:8884   */\n      tag_286\n        /* \"#utility.yul\":8880:8883   */\n      dup3\n        /* \"#utility.yul\":8791:8884   */\n      tag_173\n      jump\t// in\n    tag_286:\n        /* \"#utility.yul\":8909:8911   */\n      0x20\n        /* \"#utility.yul\":8904:8907   */\n      dup3\n        /* \"#utility.yul\":8900:8912   */\n      add\n        /* \"#utility.yul\":8893:8912   */\n      swap1\n      pop\n        /* \"#utility.yul\":8552:8918   */\n      swap2\n      swap1\n      pop\n      jump\t// out\n        /* \"#utility.yul\":8924:9343   */\n    tag_109:\n        /* \"#utility.yul\":9090:9094   */\n      0x00\n        /* \"#utility.yul\":9128:9130   */\n      0x20\n        /* \"#utility.yul\":9117:9126   */\n      dup3\n        /* \"#utility.yul\":9113:9131   */\n      add\n        /* \"#utility.yul\":9105:9131   */\n      swap1\n      pop\n        /* \"#utility.yul\":9177:9186   */\n      dup2\n        /* \"#utility.yul\":9171:9175   */\n      dup2\n        /* \"#utility.yul\":9167:9187   */\n      sub\n        /* \"#utility.yul\":9163:9164   */\n      0x00\n        /* \"#utility.yul\":9152:9161   */\n      dup4\n        /* \"#utility.yul\":9148:9165   */\n      add\n        /* \"#utility.yul\":9141:9188   */\n      mstore\n        /* \"#utility.yul\":9205:9336   */\n      tag_288\n        /* \"#utility.yul\":9331:9335   */\n      dup2\n        /* \"#utility.yul\":9205:9336   */\n      tag_174\n      jump\t// in\n    tag_288:\n        /* \"#utility.yul\":9197:9336   */\n      swap1\n      pop\n        /* \"#utility.yul\":8924:9343   */\n      swap2\n      swap1\n      pop\n      jump\t// out\n        /* \"#utility.yul\":9349:9512   */\n    tag_175:\n        /* \"#utility.yul\":9489:9504   */\n      0x696e76616c696420746f6b656e00000000000000000000000000000000000000\n        /* \"#utility.yul\":9485:9486   */\n      0x00\n        /* \"#utility.yul\":9477:9483   */\n      dup3\n        /* \"#utility.yul\":9473:9487   */\n      add\n        /* \"#utility.yul\":9466:9505   */\n      mstore\n        /* \"#utility.yul\":9349:9512   */\n      pop\n      jump\t// out\n        /* \"#utility.yul\":9518:9884   */\n    tag_176:\n        /* \"#utility.yul\":9660:9663   */\n      0x00\n        /* \"#utility.yul\":9681:9748   */\n      tag_291\n        /* \"#utility.yul\":9745:9747   */\n      0x0d\n        /* \"#utility.yul\":9740:9743   */\n      dup4\n        /* \"#utility.yul\":9681:9748   */\n      tag_172\n      jump\t// in\n    tag_291:\n        /* \"#utility.yul\":9674:9748   */\n      swap2\n      pop\n        /* \"#utility.yul\":9757:9850   */\n      tag_292\n        /* \"#utility.yul\":9846:9849   */\n      dup3\n        /* \"#utility.yul\":9757:9850   */\n      tag_175\n      jump\t// in\n    tag_292:\n        /* \"#utility.yul\":9875:9877   */\n      0x20\n        /* \"#utility.yul\":9870:9873   */\n      dup3\n        /* \"#utility.yul\":9866:9878   */\n      add\n        /* \"#utility.yul\":9859:9878   */\n      swap1\n      pop\n        /* \"#utility.yul\":9518:9884   */\n      swap2\n      swap1\n      pop\n      jump\t// out\n        /* \"#utility.yul\":9890:10309   */\n    tag_117:\n        /* \"#utility.yul\":10056:10060   */\n      0x00\n        /* \"#utility.yul\":10094:10096   */\n      0x20\n        /* \"#utility.yul\":10083:10092   */\n      dup3\n        /* \"#utility.yul\":10079:10097   */\n      add\n        /* \"#utility.yul\":10071:10097   */\n      swap1\n      pop\n        /* \"#utility.yul\":10143:10152   */\n      dup2\n        /* \"#utility.yul\":10137:10141   */\n      dup2\n        /* \"#utility.yul\":10133:10153   */\n      sub\n        /* \"#utility.yul\":10129:10130   */\n      0x00\n        /* \"#utility.yul\":10118:10127   */\n      dup4\n        /* \"#utility.yul\":10114:10131   */\n      add\n        /* \"#utility.yul\":10107:10154   */\n      mstore\n        /* \"#utility.yul\":10171:10302   */\n      tag_294\n        /* \"#utility.yul\":10297:10301   */\n      dup2\n        /* \"#utility.yul\":10171:10302   */\n      tag_176\n      jump\t// in\n    tag_294:\n        /* \"#utility.yul\":10163:10302   */\n      swap1\n      pop\n        /* \"#utility.yul\":9890:10309   */\n      swap2\n      swap1\n      pop\n      jump\t// out\n\n    auxdata: 0xa2646970667358221220973d3ca3f17d5525f2d9e37bb1bb7ee15e501adc8f436b5dce1d250a55c859a364736f6c634300080f0033\n}\n",
				"bytecode": {
					"linkReferences": {},
					"object": "60c06040523480156200001157600080fd5b506040516200143138038062001431833981810160405281019062000037919062000111565b8173ffffffffffffffffffffffffffffffffffffffff1660808173ffffffffffffffffffffffffffffffffffffffff16815250508073ffffffffffffffffffffffffffffffffffffffff1660a08173ffffffffffffffffffffffffffffffffffffffff1681525050505062000158565b600080fd5b600073ffffffffffffffffffffffffffffffffffffffff82169050919050565b6000620000d982620000ac565b9050919050565b620000eb81620000cc565b8114620000f757600080fd5b50565b6000815190506200010b81620000e0565b92915050565b600080604083850312156200012b576200012a620000a7565b5b60006200013b85828601620000fa565b92505060206200014e85828601620000fa565b9150509250929050565b60805160a051611258620001d96000396000818161035c015281816104a4015281816105e5015281816107b00152818161089d0152818161090b0152610b3b0152600081816101f1015281816102b301528181610403015281816105470152818161075b01528181610841015281816108be01526108ea01526112586000f3fe608060405234801561001057600080fd5b50600436106100935760003560e01c806370a082311161006657806370a08231146101105780639c8f9f23146101405780639cd441da14610171578063d004f0f7146101a1578063d21220a7146101d157610093565b80630dfe16811461009857806318160ddd146100b6578063443cb4bc146100d45780635a76f25e146100f2575b600080fd5b6100a06101ef565b6040516100ad9190610cd4565b60405180910390f35b6100be610213565b6040516100cb9190610d08565b60405180910390f35b6100dc610219565b6040516100e99190610d08565b60405180910390f35b6100fa61021f565b6040516101079190610d08565b60405180910390f35b61012a60048036038101906101259190610d66565b610225565b6040516101379190610d08565b60405180910390f35b61015a60048036038101906101559190610dbf565b61023d565b604051610168929190610dec565b60405180910390f35b61018b60048036038101906101869190610e15565b6103ff565b6040516101989190610d08565b60405180910390f35b6101bb60048036038101906101b69190610e55565b610757565b6040516101c89190610d08565b60405180910390f35b6101d9610b39565b6040516101e69190610cd4565b60405180910390f35b7f000000000000000000000000000000000000000000000000000000000000000081565b60025481565b60005481565b60015481565b60036020528060005260406000206000915090505481565b600080600254836000546102519190610ec4565b61025b9190610f4d565b91506002548360015461026e9190610ec4565b6102789190610f4d565b90506102843384610b5d565b6102a8826000546102959190610f7e565b826001546102a39190610f7e565b610bd0565b6000821115610351577f000000000000000000000000000000000000000000000000000000000000000073ffffffffffffffffffffffffffffffffffffffff1663a9059cbb33846040518363ffffffff1660e01b815260040161030c929190610fc1565b6020604051808303816000875af115801561032b573d6000803e3d6000fd5b505050506040513d601f19601f8201168201806040525081019061034f9190611022565b505b60008111156103fa577f000000000000000000000000000000000000000000000000000000000000000073ffffffffffffffffffffffffffffffffffffffff1663a9059cbb33836040518363ffffffff1660e01b81526004016103b5929190610fc1565b6020604051808303816000875af11580156103d4573d6000803e3d6000fd5b505050506040513d601f19601f820116820180604052508101906103f89190611022565b505b915091565b60007f000000000000000000000000000000000000000000000000000000000000000073ffffffffffffffffffffffffffffffffffffffff166323b872dd3330866040518463ffffffff1660e01b815260040161045e9392919061104f565b6020604051808303816000875af115801561047d573d6000803e3d6000fd5b505050506040513d601f19601f820116820180604052508101906104a19190611022565b507f000000000000000000000000000000000000000000000000000000000000000073ffffffffffffffffffffffffffffffffffffffff166323b872dd3330856040518463ffffffff1660e01b81526004016104ff9392919061104f565b6020604051808303816000875af115801561051e573d6000803e3d6000fd5b505050506040513d601f19601f820116820180604052508101906105429190611022565b5060007f000000000000000000000000000000000000000000000000000000000000000073ffffffffffffffffffffffffffffffffffffffff166370a08231306040518263ffffffff1660e01b815260040161059e9190611086565b602060405180830381865afa1580156105bb573d6000803e3d6000fd5b505050506040513d601f19601f820116820180604052508101906105df91906110b6565b905060007f000000000000000000000000000000000000000000000000000000000000000073ffffffffffffffffffffffffffffffffffffffff166370a08231306040518263ffffffff1660e01b815260040161063c9190611086565b602060405180830381865afa158015610659573d6000803e3d6000fd5b505050506040513d601f19601f8201168201806040525081019061067d91906110b6565b9050600080548361068e9190610f7e565b90506000600154836106a09190610f7e565b9050600060025411156106e7576001546000546106bd91906110e3565b60025482846106cc91906110e3565b6106d69190610ec4565b6106e09190610f4d565b94506106f6565b80826106f391906110e3565b94505b60008511610739576040517f08c379a000000000000000000000000000000000000000000000000000000000815260040161073090611196565b60405180910390fd5b6107433386610be2565b61074d8484610bd0565b5050505092915050565b60007f000000000000000000000000000000000000000000000000000000000000000073ffffffffffffffffffffffffffffffffffffffff168373ffffffffffffffffffffffffffffffffffffffff1614806107fe57507f000000000000000000000000000000000000000000000000000000000000000073ffffffffffffffffffffffffffffffffffffffff168373ffffffffffffffffffffffffffffffffffffffff16145b61083d576040517f08c379a000000000000000000000000000000000000000000000000000000000815260040161083490611202565b60405180910390fd5b60007f000000000000000000000000000000000000000000000000000000000000000073ffffffffffffffffffffffffffffffffffffffff168473ffffffffffffffffffffffffffffffffffffffff16149050600080600080846108e8577f00000000000000000000000000000000000000000000000000000000000000007f0000000000000000000000000000000000000000000000000000000000000000600154600054610931565b7f00000000000000000000000000000000000000000000000000000000000000007f00000000000000000000000000000000000000000000000000000000000000006000546001545b93509350935093508373ffffffffffffffffffffffffffffffffffffffff166323b872dd33308a6040518463ffffffff1660e01b81526004016109769392919061104f565b6020604051808303816000875af1158015610995573d6000803e3d6000fd5b505050506040513d601f19601f820116820180604052508101906109b99190611022565b506000828573ffffffffffffffffffffffffffffffffffffffff166370a08231306040518263ffffffff1660e01b81526004016109f69190611086565b602060405180830381865afa158015610a13573d6000803e3d6000fd5b505050506040513d601f19601f82011682018060405250810190610a3791906110b6565b610a419190610f7e565b90506103e86103e582610a549190610ec4565b610a5e9190610f4d565b965060008087610a85578884610a749190610f7e565b8386610a8091906110e3565b610a9e565b8285610a9191906110e3565b8985610a9d9190610f7e565b5b91509150610aac8282610bd0565b8573ffffffffffffffffffffffffffffffffffffffff1663a9059cbb338b6040518363ffffffff1660e01b8152600401610ae7929190610fc1565b6020604051808303816000875af1158015610b06573d6000803e3d6000fd5b505050506040513d601f19601f82011682018060405250810190610b2a9190611022565b50505050505050505092915050565b7f000000000000000000000000000000000000000000000000000000000000000081565b80600360008473ffffffffffffffffffffffffffffffffffffffff1673ffffffffffffffffffffffffffffffffffffffff1681526020019081526020016000206000828254610bac9190610f7e565b925050819055508060026000828254610bc59190610f7e565b925050819055505050565b81600081905550806001819055505050565b80600360008473ffffffffffffffffffffffffffffffffffffffff1673ffffffffffffffffffffffffffffffffffffffff1681526020019081526020016000206000828254610c3191906110e3565b925050819055508060026000828254610c4a91906110e3565b925050819055505050565b600073ffffffffffffffffffffffffffffffffffffffff82169050919050565b6000819050919050565b6000610c9a610c95610c9084610c55565b610c75565b610c55565b9050919050565b6000610cac82610c7f565b9050919050565b6000610cbe82610ca1565b9050919050565b610cce81610cb3565b82525050565b6000602082019050610ce96000830184610cc5565b92915050565b6000819050919050565b610d0281610cef565b82525050565b6000602082019050610d1d6000830184610cf9565b92915050565b600080fd5b6000610d3382610c55565b9050919050565b610d4381610d28565b8114610d4e57600080fd5b50565b600081359050610d6081610d3a565b92915050565b600060208284031215610d7c57610d7b610d23565b5b6000610d8a84828501610d51565b91505092915050565b610d9c81610cef565b8114610da757600080fd5b50565b600081359050610db981610d93565b92915050565b600060208284031215610dd557610dd4610d23565b5b6000610de384828501610daa565b91505092915050565b6000604082019050610e016000830185610cf9565b610e0e6020830184610cf9565b9392505050565b60008060408385031215610e2c57610e2b610d23565b5b6000610e3a85828601610daa565b9250506020610e4b85828601610daa565b9150509250929050565b60008060408385031215610e6c57610e6b610d23565b5b6000610e7a85828601610d51565b9250506020610e8b85828601610daa565b9150509250929050565b7f4e487b7100000000000000000000000000000000000000000000000000000000600052601160045260246000fd5b6000610ecf82610cef565b9150610eda83610cef565b9250817fffffffffffffffffffffffffffffffffffffffffffffffffffffffffffffffff0483118215151615610f1357610f12610e95565b5b828202905092915050565b7f4e487b7100000000000000000000000000000000000000000000000000000000600052601260045260246000fd5b6000610f5882610cef565b9150610f6383610cef565b925082610f7357610f72610f1e565b5b828204905092915050565b6000610f8982610cef565b9150610f9483610cef565b925082821015610fa757610fa6610e95565b5b828203905092915050565b610fbb81610d28565b82525050565b6000604082019050610fd66000830185610fb2565b610fe36020830184610cf9565b9392505050565b60008115159050919050565b610fff81610fea565b811461100a57600080fd5b50565b60008151905061101c81610ff6565b92915050565b60006020828403121561103857611037610d23565b5b60006110468482850161100d565b91505092915050565b60006060820190506110646000830186610fb2565b6110716020830185610fb2565b61107e6040830184610cf9565b949350505050565b600060208201905061109b6000830184610fb2565b92915050565b6000815190506110b081610d93565b92915050565b6000602082840312156110cc576110cb610d23565b5b60006110da848285016110a1565b91505092915050565b60006110ee82610cef565b91506110f983610cef565b9250827fffffffffffffffffffffffffffffffffffffffffffffffffffffffffffffffff0382111561112e5761112d610e95565b5b828201905092915050565b600082825260208201905092915050565b7f736861726573203d203000000000000000000000000000000000000000000000600082015250565b6000611180600a83611139565b915061118b8261114a565b602082019050919050565b600060208201905081810360008301526111af81611173565b9050919050565b7f696e76616c696420746f6b656e00000000000000000000000000000000000000600082015250565b60006111ec600d83611139565b91506111f7826111b6565b602082019050919050565b6000602082019050818103600083015261121b816111df565b905091905056fea2646970667358221220973d3ca3f17d5525f2d9e37bb1bb7ee15e501adc8f436b5dce1d250a55c859a364736f6c634300080f0033",
					"opcodes": "PUSH1 0xC0 PUSH1 0x40 MSTORE CALLVALUE DUP1 ISZERO PUSH3 0x11 JUMPI PUSH1 0x0 DUP1 REVERT JUMPDEST POP PUSH1 0x40 MLOAD PUSH3 0x1431 CODESIZE SUB DUP1 PUSH3 0x1431 DUP4 CODECOPY DUP2 DUP2 ADD PUSH1 0x40 MSTORE DUP2 ADD SWAP1 PUSH3 0x37 SWAP2 SWAP1 PUSH3 0x111 JUMP JUMPDEST DUP2 PUSH20 0xFFFFFFFFFFFFFFFFFFFFFFFFFFFFFFFFFFFFFFFF AND PUSH1 0x80 DUP2 PUSH20 0xFFFFFFFFFFFFFFFFFFFFFFFFFFFFFFFFFFFFFFFF AND DUP2 MSTORE POP POP DUP1 PUSH20 0xFFFFFFFFFFFFFFFFFFFFFFFFFFFFFFFFFFFFFFFF AND PUSH1 0xA0 DUP2 PUSH20 0xFFFFFFFFFFFFFFFFFFFFFFFFFFFFFFFFFFFFFFFF AND DUP2 MSTORE POP POP POP POP PUSH3 0x158 JUMP JUMPDEST PUSH1 0x0 DUP1 REVERT JUMPDEST PUSH1 0x0 PUSH20 0xFFFFFFFFFFFFFFFFFFFFFFFFFFFFFFFFFFFFFFFF DUP3 AND SWAP1 POP SWAP2 SWAP1 POP JUMP JUMPDEST PUSH1 0x0 PUSH3 0xD9 DUP3 PUSH3 0xAC JUMP JUMPDEST SWAP1 POP SWAP2 SWAP1 POP JUMP JUMPDEST PUSH3 0xEB DUP2 PUSH3 0xCC JUMP JUMPDEST DUP2 EQ PUSH3 0xF7 JUMPI PUSH1 0x0 DUP1 REVERT JUMPDEST POP JUMP JUMPDEST PUSH1 0x0 DUP2 MLOAD SWAP1 POP PUSH3 0x10B DUP2 PUSH3 0xE0 JUMP JUMPDEST SWAP3 SWAP2 POP POP JUMP JUMPDEST PUSH1 0x0 DUP1 PUSH1 0x40 DUP4 DUP6 SUB SLT ISZERO PUSH3 0x12B JUMPI PUSH3 0x12A PUSH3 0xA7 JUMP JUMPDEST JUMPDEST PUSH1 0x0 PUSH3 0x13B DUP6 DUP3 DUP7 ADD PUSH3 0xFA JUMP JUMPDEST SWAP3 POP POP PUSH1 0x20 PUSH3 0x14E DUP6 DUP3 DUP7 ADD PUSH3 0xFA JUMP JUMPDEST SWAP2 POP POP SWAP3 POP SWAP3 SWAP1 POP JUMP JUMPDEST PUSH1 0x80 MLOAD PUSH1 0xA0 MLOAD PUSH2 0x1258 PUSH3 0x1D9 PUSH1 0x0 CODECOPY PUSH1 0x0 DUP2 DUP2 PUSH2 0x35C ADD MSTORE DUP2 DUP2 PUSH2 0x4A4 ADD MSTORE DUP2 DUP2 PUSH2 0x5E5 ADD MSTORE DUP2 DUP2 PUSH2 0x7B0 ADD MSTORE DUP2 DUP2 PUSH2 0x89D ADD MSTORE DUP2 DUP2 PUSH2 0x90B ADD MSTORE PUSH2 0xB3B ADD MSTORE PUSH1 0x0 DUP2 DUP2 PUSH2 0x1F1 ADD MSTORE DUP2 DUP2 PUSH2 0x2B3 ADD MSTORE DUP2 DUP2 PUSH2 0x403 ADD MSTORE DUP2 DUP2 PUSH2 0x547 ADD MSTORE DUP2 DUP2 PUSH2 0x75B ADD MSTORE DUP2 DUP2 PUSH2 0x841 ADD MSTORE DUP2 DUP2 PUSH2 0x8BE ADD MSTORE PUSH2 0x8EA ADD MSTORE PUSH2 0x1258 PUSH1 0x0 RETURN INVALID PUSH1 0x80 PUSH1 0x40 MSTORE CALLVALUE DUP1 ISZERO PUSH2 0x10 JUMPI PUSH1 0x0 DUP1 REVERT JUMPDEST POP PUSH1 0x4 CALLDATASIZE LT PUSH2 0x93 JUMPI PUSH1 0x0 CALLDATALOAD PUSH1 0xE0 SHR DUP1 PUSH4 0x70A08231 GT PUSH2 0x66 JUMPI DUP1 PUSH4 0x70A08231 EQ PUSH2 0x110 JUMPI DUP1 PUSH4 0x9C8F9F23 EQ PUSH2 0x140 JUMPI DUP1 PUSH4 0x9CD441DA EQ PUSH2 0x171 JUMPI DUP1 PUSH4 0xD004F0F7 EQ PUSH2 0x1A1 JUMPI DUP1 PUSH4 0xD21220A7 EQ PUSH2 0x1D1 JUMPI PUSH2 0x93 JUMP JUMPDEST DUP1 PUSH4 0xDFE1681 EQ PUSH2 0x98 JUMPI DUP1 PUSH4 0x18160DDD EQ PUSH2 0xB6 JUMPI DUP1 PUSH4 0x443CB4BC EQ PUSH2 0xD4 JUMPI DUP1 PUSH4 0x5A76F25E EQ PUSH2 0xF2 JUMPI JUMPDEST PUSH1 0x0 DUP1 REVERT JUMPDEST PUSH2 0xA0 PUSH2 0x1EF JUMP JUMPDEST PUSH1 0x40 MLOAD PUSH2 0xAD SWAP2 SWAP1 PUSH2 0xCD4 JUMP JUMPDEST PUSH1 0x40 MLOAD DUP1 SWAP2 SUB SWAP1 RETURN JUMPDEST PUSH2 0xBE PUSH2 0x213 JUMP JUMPDEST PUSH1 0x40 MLOAD PUSH2 0xCB SWAP2 SWAP1 PUSH2 0xD08 JUMP JUMPDEST PUSH1 0x40 MLOAD DUP1 SWAP2 SUB SWAP1 RETURN JUMPDEST PUSH2 0xDC PUSH2 0x219 JUMP JUMPDEST PUSH1 0x40 MLOAD PUSH2 0xE9 SWAP2 SWAP1 PUSH2 0xD08 JUMP JUMPDEST PUSH1 0x40 MLOAD DUP1 SWAP2 SUB SWAP1 RETURN JUMPDEST PUSH2 0xFA PUSH2 0x21F JUMP JUMPDEST PUSH1 0x40 MLOAD PUSH2 0x107 SWAP2 SWAP1 PUSH2 0xD08 JUMP JUMPDEST PUSH1 0x40 MLOAD DUP1 SWAP2 SUB SWAP1 RETURN JUMPDEST PUSH2 0x12A PUSH1 0x4 DUP1 CALLDATASIZE SUB DUP2 ADD SWAP1 PUSH2 0x125 SWAP2 SWAP1 PUSH2 0xD66 JUMP JUMPDEST PUSH2 0x225 JUMP JUMPDEST PUSH1 0x40 MLOAD PUSH2 0x137 SWAP2 SWAP1 PUSH2 0xD08 JUMP JUMPDEST PUSH1 0x40 MLOAD DUP1 SWAP2 SUB SWAP1 RETURN JUMPDEST PUSH2 0x15A PUSH1 0x4 DUP1 CALLDATASIZE SUB DUP2 ADD SWAP1 PUSH2 0x155 SWAP2 SWAP1 PUSH2 0xDBF JUMP JUMPDEST PUSH2 0x23D JUMP JUMPDEST PUSH1 0x40 MLOAD PUSH2 0x168 SWAP3 SWAP2 SWAP1 PUSH2 0xDEC JUMP JUMPDEST PUSH1 0x40 MLOAD DUP1 SWAP2 SUB SWAP1 RETURN JUMPDEST PUSH2 0x18B PUSH1 0x4 DUP1 CALLDATASIZE SUB DUP2 ADD SWAP1 PUSH2 0x186 SWAP2 SWAP1 PUSH2 0xE15 JUMP JUMPDEST PUSH2 0x3FF JUMP JUMPDEST PUSH1 0x40 MLOAD PUSH2 0x198 SWAP2 SWAP1 PUSH2 0xD08 JUMP JUMPDEST PUSH1 0x40 MLOAD DUP1 SWAP2 SUB SWAP1 RETURN JUMPDEST PUSH2 0x1BB PUSH1 0x4 DUP1 CALLDATASIZE SUB DUP2 ADD SWAP1 PUSH2 0x1B6 SWAP2 SWAP1 PUSH2 0xE55 JUMP JUMPDEST PUSH2 0x757 JUMP JUMPDEST PUSH1 0x40 MLOAD PUSH2 0x1C8 SWAP2 SWAP1 PUSH2 0xD08 JUMP JUMPDEST PUSH1 0x40 MLOAD DUP1 SWAP2 SUB SWAP1 RETURN JUMPDEST PUSH2 0x1D9 PUSH2 0xB39 JUMP JUMPDEST PUSH1 0x40 MLOAD PUSH2 0x1E6 SWAP2 SWAP1 PUSH2 0xCD4 JUMP JUMPDEST PUSH1 0x40 MLOAD DUP1 SWAP2 SUB SWAP1 RETURN JUMPDEST PUSH32 0x0 DUP2 JUMP JUMPDEST PUSH1 0x2 SLOAD DUP2 JUMP JUMPDEST PUSH1 0x0 SLOAD DUP2 JUMP JUMPDEST PUSH1 0x1 SLOAD DUP2 JUMP JUMPDEST PUSH1 0x3 PUSH1 0x20 MSTORE DUP1 PUSH1 0x0 MSTORE PUSH1 0x40 PUSH1 0x0 KECCAK256 PUSH1 0x0 SWAP2 POP SWAP1 POP SLOAD DUP2 JUMP JUMPDEST PUSH1 0x0 DUP1 PUSH1 0x2 SLOAD DUP4 PUSH1 0x0 SLOAD PUSH2 0x251 SWAP2 SWAP1 PUSH2 0xEC4 JUMP JUMPDEST PUSH2 0x25B SWAP2 SWAP1 PUSH2 0xF4D JUMP JUMPDEST SWAP2 POP PUSH1 0x2 SLOAD DUP4 PUSH1 0x1 SLOAD PUSH2 0x26E SWAP2 SWAP1 PUSH2 0xEC4 JUMP JUMPDEST PUSH2 0x278 SWAP2 SWAP1 PUSH2 0xF4D JUMP JUMPDEST SWAP1 POP PUSH2 0x284 CALLER DUP5 PUSH2 0xB5D JUMP JUMPDEST PUSH2 0x2A8 DUP3 PUSH1 0x0 SLOAD PUSH2 0x295 SWAP2 SWAP1 PUSH2 0xF7E JUMP JUMPDEST DUP3 PUSH1 0x1 SLOAD PUSH2 0x2A3 SWAP2 SWAP1 PUSH2 0xF7E JUMP JUMPDEST PUSH2 0xBD0 JUMP JUMPDEST PUSH1 0x0 DUP3 GT ISZERO PUSH2 0x351 JUMPI PUSH32 0x0 PUSH20 0xFFFFFFFFFFFFFFFFFFFFFFFFFFFFFFFFFFFFFFFF AND PUSH4 0xA9059CBB CALLER DUP5 PUSH1 0x40 MLOAD DUP4 PUSH4 0xFFFFFFFF AND PUSH1 0xE0 SHL DUP2 MSTORE PUSH1 0x4 ADD PUSH2 0x30C SWAP3 SWAP2 SWAP1 PUSH2 0xFC1 JUMP JUMPDEST PUSH1 0x20 PUSH1 0x40 MLOAD DUP1 DUP4 SUB DUP2 PUSH1 0x0 DUP8 GAS CALL ISZERO DUP1 ISZERO PUSH2 0x32B JUMPI RETURNDATASIZE PUSH1 0x0 DUP1 RETURNDATACOPY RETURNDATASIZE PUSH1 0x0 REVERT JUMPDEST POP POP POP POP PUSH1 0x40 MLOAD RETURNDATASIZE PUSH1 0x1F NOT PUSH1 0x1F DUP3 ADD AND DUP3 ADD DUP1 PUSH1 0x40 MSTORE POP DUP2 ADD SWAP1 PUSH2 0x34F SWAP2 SWAP1 PUSH2 0x1022 JUMP JUMPDEST POP JUMPDEST PUSH1 0x0 DUP2 GT ISZERO PUSH2 0x3FA JUMPI PUSH32 0x0 PUSH20 0xFFFFFFFFFFFFFFFFFFFFFFFFFFFFFFFFFFFFFFFF AND PUSH4 0xA9059CBB CALLER DUP4 PUSH1 0x40 MLOAD DUP4 PUSH4 0xFFFFFFFF AND PUSH1 0xE0 SHL DUP2 MSTORE PUSH1 0x4 ADD PUSH2 0x3B5 SWAP3 SWAP2 SWAP1 PUSH2 0xFC1 JUMP JUMPDEST PUSH1 0x20 PUSH1 0x40 MLOAD DUP1 DUP4 SUB DUP2 PUSH1 0x0 DUP8 GAS CALL ISZERO DUP1 ISZERO PUSH2 0x3D4 JUMPI RETURNDATASIZE PUSH1 0x0 DUP1 RETURNDATACOPY RETURNDATASIZE PUSH1 0x0 REVERT JUMPDEST POP POP POP POP PUSH1 0x40 MLOAD RETURNDATASIZE PUSH1 0x1F NOT PUSH1 0x1F DUP3 ADD AND DUP3 ADD DUP1 PUSH1 0x40 MSTORE POP DUP2 ADD SWAP1 PUSH2 0x3F8 SWAP2 SWAP1 PUSH2 0x1022 JUMP JUMPDEST POP JUMPDEST SWAP2 POP SWAP2 JUMP JUMPDEST PUSH1 0x0 PUSH32 0x0 PUSH20 0xFFFFFFFFFFFFFFFFFFFFFFFFFFFFFFFFFFFFFFFF AND PUSH4 0x23B872DD CALLER ADDRESS DUP7 PUSH1 0x40 MLOAD DUP5 PUSH4 0xFFFFFFFF AND PUSH1 0xE0 SHL DUP2 MSTORE PUSH1 0x4 ADD PUSH2 0x45E SWAP4 SWAP3 SWAP2 SWAP1 PUSH2 0x104F JUMP JUMPDEST PUSH1 0x20 PUSH1 0x40 MLOAD DUP1 DUP4 SUB DUP2 PUSH1 0x0 DUP8 GAS CALL ISZERO DUP1 ISZERO PUSH2 0x47D JUMPI RETURNDATASIZE PUSH1 0x0 DUP1 RETURNDATACOPY RETURNDATASIZE PUSH1 0x0 REVERT JUMPDEST POP POP POP POP PUSH1 0x40 MLOAD RETURNDATASIZE PUSH1 0x1F NOT PUSH1 0x1F DUP3 ADD AND DUP3 ADD DUP1 PUSH1 0x40 MSTORE POP DUP2 ADD SWAP1 PUSH2 0x4A1 SWAP2 SWAP1 PUSH2 0x1022 JUMP JUMPDEST POP PUSH32 0x0 PUSH20 0xFFFFFFFFFFFFFFFFFFFFFFFFFFFFFFFFFFFFFFFF AND PUSH4 0x23B872DD CALLER ADDRESS DUP6 PUSH1 0x40 MLOAD DUP5 PUSH4 0xFFFFFFFF AND PUSH1 0xE0 SHL DUP2 MSTORE PUSH1 0x4 ADD PUSH2 0x4FF SWAP4 SWAP3 SWAP2 SWAP1 PUSH2 0x104F JUMP JUMPDEST PUSH1 0x20 PUSH1 0x40 MLOAD DUP1 DUP4 SUB DUP2 PUSH1 0x0 DUP8 GAS CALL ISZERO DUP1 ISZERO PUSH2 0x51E JUMPI RETURNDATASIZE PUSH1 0x0 DUP1 RETURNDATACOPY RETURNDATASIZE PUSH1 0x0 REVERT JUMPDEST POP POP POP POP PUSH1 0x40 MLOAD RETURNDATASIZE PUSH1 0x1F NOT PUSH1 0x1F DUP3 ADD AND DUP3 ADD DUP1 PUSH1 0x40 MSTORE POP DUP2 ADD SWAP1 PUSH2 0x542 SWAP2 SWAP1 PUSH2 0x1022 JUMP JUMPDEST POP PUSH1 0x0 PUSH32 0x0 PUSH20 0xFFFFFFFFFFFFFFFFFFFFFFFFFFFFFFFFFFFFFFFF AND PUSH4 0x70A08231 ADDRESS PUSH1 0x40 MLOAD DUP3 PUSH4 0xFFFFFFFF AND PUSH1 0xE0 SHL DUP2 MSTORE PUSH1 0x4 ADD PUSH2 0x59E SWAP2 SWAP1 PUSH2 0x1086 JUMP JUMPDEST PUSH1 0x20 PUSH1 0x40 MLOAD DUP1 DUP4 SUB DUP2 DUP7 GAS STATICCALL ISZERO DUP1 ISZERO PUSH2 0x5BB JUMPI RETURNDATASIZE PUSH1 0x0 DUP1 RETURNDATACOPY RETURNDATASIZE PUSH1 0x0 REVERT JUMPDEST POP POP POP POP PUSH1 0x40 MLOAD RETURNDATASIZE PUSH1 0x1F NOT PUSH1 0x1F DUP3 ADD AND DUP3 ADD DUP1 PUSH1 0x40 MSTORE POP DUP2 ADD SWAP1 PUSH2 0x5DF SWAP2 SWAP1 PUSH2 0x10B6 JUMP JUMPDEST SWAP1 POP PUSH1 0x0 PUSH32 0x0 PUSH20 0xFFFFFFFFFFFFFFFFFFFFFFFFFFFFFFFFFFFFFFFF AND PUSH4 0x70A08231 ADDRESS PUSH1 0x40 MLOAD DUP3 PUSH4 0xFFFFFFFF AND PUSH1 0xE0 SHL DUP2 MSTORE PUSH1 0x4 ADD PUSH2 0x63C SWAP2 SWAP1 PUSH2 0x1086 JUMP JUMPDEST PUSH1 0x20 PUSH1 0x40 MLOAD DUP1 DUP4 SUB DUP2 DUP7 GAS STATICCALL ISZERO DUP1 ISZERO PUSH2 0x659 JUMPI RETURNDATASIZE PUSH1 0x0 DUP1 RETURNDATACOPY RETURNDATASIZE PUSH1 0x0 REVERT JUMPDEST POP POP POP POP PUSH1 0x40 MLOAD RETURNDATASIZE PUSH1 0x1F NOT PUSH1 0x1F DUP3 ADD AND DUP3 ADD DUP1 PUSH1 0x40 MSTORE POP DUP2 ADD SWAP1 PUSH2 0x67D SWAP2 SWAP1 PUSH2 0x10B6 JUMP JUMPDEST SWAP1 POP PUSH1 0x0 DUP1 SLOAD DUP4 PUSH2 0x68E SWAP2 SWAP1 PUSH2 0xF7E JUMP JUMPDEST SWAP1 POP PUSH1 0x0 PUSH1 0x1 SLOAD DUP4 PUSH2 0x6A0 SWAP2 SWAP1 PUSH2 0xF7E JUMP JUMPDEST SWAP1 POP PUSH1 0x0 PUSH1 0x2 SLOAD GT ISZERO PUSH2 0x6E7 JUMPI PUSH1 0x1 SLOAD PUSH1 0x0 SLOAD PUSH2 0x6BD SWAP2 SWAP1 PUSH2 0x10E3 JUMP JUMPDEST PUSH1 0x2 SLOAD DUP3 DUP5 PUSH2 0x6CC SWAP2 SWAP1 PUSH2 0x10E3 JUMP JUMPDEST PUSH2 0x6D6 SWAP2 SWAP1 PUSH2 0xEC4 JUMP JUMPDEST PUSH2 0x6E0 SWAP2 SWAP1 PUSH2 0xF4D JUMP JUMPDEST SWAP5 POP PUSH2 0x6F6 JUMP JUMPDEST DUP1 DUP3 PUSH2 0x6F3 SWAP2 SWAP1 PUSH2 0x10E3 JUMP JUMPDEST SWAP5 POP JUMPDEST PUSH1 0x0 DUP6 GT PUSH2 0x739 JUMPI PUSH1 0x40 MLOAD PUSH32 0x8C379A000000000000000000000000000000000000000000000000000000000 DUP2 MSTORE PUSH1 0x4 ADD PUSH2 0x730 SWAP1 PUSH2 0x1196 JUMP JUMPDEST PUSH1 0x40 MLOAD DUP1 SWAP2 SUB SWAP1 REVERT JUMPDEST PUSH2 0x743 CALLER DUP7 PUSH2 0xBE2 JUMP JUMPDEST PUSH2 0x74D DUP5 DUP5 PUSH2 0xBD0 JUMP JUMPDEST POP POP POP POP SWAP3 SWAP2 POP POP JUMP JUMPDEST PUSH1 0x0 PUSH32 0x0 PUSH20 0xFFFFFFFFFFFFFFFFFFFFFFFFFFFFFFFFFFFFFFFF AND DUP4 PUSH20 0xFFFFFFFFFFFFFFFFFFFFFFFFFFFFFFFFFFFFFFFF AND EQ DUP1 PUSH2 0x7FE JUMPI POP PUSH32 0x0 PUSH20 0xFFFFFFFFFFFFFFFFFFFFFFFFFFFFFFFFFFFFFFFF AND DUP4 PUSH20 0xFFFFFFFFFFFFFFFFFFFFFFFFFFFFFFFFFFFFFFFF AND EQ JUMPDEST PUSH2 0x83D JUMPI PUSH1 0x40 MLOAD PUSH32 0x8C379A000000000000000000000000000000000000000000000000000000000 DUP2 MSTORE PUSH1 0x4 ADD PUSH2 0x834 SWAP1 PUSH2 0x1202 JUMP JUMPDEST PUSH1 0x40 MLOAD DUP1 SWAP2 SUB SWAP1 REVERT JUMPDEST PUSH1 0x0 PUSH32 0x0 PUSH20 0xFFFFFFFFFFFFFFFFFFFFFFFFFFFFFFFFFFFFFFFF AND DUP5 PUSH20 0xFFFFFFFFFFFFFFFFFFFFFFFFFFFFFFFFFFFFFFFF AND EQ SWAP1 POP PUSH1 0x0 DUP1 PUSH1 0x0 DUP1 DUP5 PUSH2 0x8E8 JUMPI PUSH32 0x0 PUSH32 0x0 PUSH1 0x1 SLOAD PUSH1 0x0 SLOAD PUSH2 0x931 JUMP JUMPDEST PUSH32 0x0 PUSH32 0x0 PUSH1 0x0 SLOAD PUSH1 0x1 SLOAD JUMPDEST SWAP4 POP SWAP4 POP SWAP4 POP SWAP4 POP DUP4 PUSH20 0xFFFFFFFFFFFFFFFFFFFFFFFFFFFFFFFFFFFFFFFF AND PUSH4 0x23B872DD CALLER ADDRESS DUP11 PUSH1 0x40 MLOAD DUP5 PUSH4 0xFFFFFFFF AND PUSH1 0xE0 SHL DUP2 MSTORE PUSH1 0x4 ADD PUSH2 0x976 SWAP4 SWAP3 SWAP2 SWAP1 PUSH2 0x104F JUMP JUMPDEST PUSH1 0x20 PUSH1 0x40 MLOAD DUP1 DUP4 SUB DUP2 PUSH1 0x0 DUP8 GAS CALL ISZERO DUP1 ISZERO PUSH2 0x995 JUMPI RETURNDATASIZE PUSH1 0x0 DUP1 RETURNDATACOPY RETURNDATASIZE PUSH1 0x0 REVERT JUMPDEST POP POP POP POP PUSH1 0x40 MLOAD RETURNDATASIZE PUSH1 0x1F NOT PUSH1 0x1F DUP3 ADD AND DUP3 ADD DUP1 PUSH1 0x40 MSTORE POP DUP2 ADD SWAP1 PUSH2 0x9B9 SWAP2 SWAP1 PUSH2 0x1022 JUMP JUMPDEST POP PUSH1 0x0 DUP3 DUP6 PUSH20 0xFFFFFFFFFFFFFFFFFFFFFFFFFFFFFFFFFFFFFFFF AND PUSH4 0x70A08231 ADDRESS PUSH1 0x40 MLOAD DUP3 PUSH4 0xFFFFFFFF AND PUSH1 0xE0 SHL DUP2 MSTORE PUSH1 0x4 ADD PUSH2 0x9F6 SWAP2 SWAP1 PUSH2 0x1086 JUMP JUMPDEST PUSH1 0x20 PUSH1 0x40 MLOAD DUP1 DUP4 SUB DUP2 DUP7 GAS STATICCALL ISZERO DUP1 ISZERO PUSH2 0xA13 JUMPI RETURNDATASIZE PUSH1 0x0 DUP1 RETURNDATACOPY RETURNDATASIZE PUSH1 0x0 REVERT JUMPDEST POP POP POP POP PUSH1 0x40 MLOAD RETURNDATASIZE PUSH1 0x1F NOT PUSH1 0x1F DUP3 ADD AND DUP3 ADD DUP1 PUSH1 0x40 MSTORE POP DUP2 ADD SWAP1 PUSH2 0xA37 SWAP2 SWAP1 PUSH2 0x10B6 JUMP JUMPDEST PUSH2 0xA41 SWAP2 SWAP1 PUSH2 0xF7E JUMP JUMPDEST SWAP1 POP PUSH2 0x3E8 PUSH2 0x3E5 DUP3 PUSH2 0xA54 SWAP2 SWAP1 PUSH2 0xEC4 JUMP JUMPDEST PUSH2 0xA5E SWAP2 SWAP1 PUSH2 0xF4D JUMP JUMPDEST SWAP7 POP PUSH1 0x0 DUP1 DUP8 PUSH2 0xA85 JUMPI DUP9 DUP5 PUSH2 0xA74 SWAP2 SWAP1 PUSH2 0xF7E JUMP JUMPDEST DUP4 DUP7 PUSH2 0xA80 SWAP2 SWAP1 PUSH2 0x10E3 JUMP JUMPDEST PUSH2 0xA9E JUMP JUMPDEST DUP3 DUP6 PUSH2 0xA91 SWAP2 SWAP1 PUSH2 0x10E3 JUMP JUMPDEST DUP10 DUP6 PUSH2 0xA9D SWAP2 SWAP1 PUSH2 0xF7E JUMP JUMPDEST JUMPDEST SWAP2 POP SWAP2 POP PUSH2 0xAAC DUP3 DUP3 PUSH2 0xBD0 JUMP JUMPDEST DUP6 PUSH20 0xFFFFFFFFFFFFFFFFFFFFFFFFFFFFFFFFFFFFFFFF AND PUSH4 0xA9059CBB CALLER DUP12 PUSH1 0x40 MLOAD DUP4 PUSH4 0xFFFFFFFF AND PUSH1 0xE0 SHL DUP2 MSTORE PUSH1 0x4 ADD PUSH2 0xAE7 SWAP3 SWAP2 SWAP1 PUSH2 0xFC1 JUMP JUMPDEST PUSH1 0x20 PUSH1 0x40 MLOAD DUP1 DUP4 SUB DUP2 PUSH1 0x0 DUP8 GAS CALL ISZERO DUP1 ISZERO PUSH2 0xB06 JUMPI RETURNDATASIZE PUSH1 0x0 DUP1 RETURNDATACOPY RETURNDATASIZE PUSH1 0x0 REVERT JUMPDEST POP POP POP POP PUSH1 0x40 MLOAD RETURNDATASIZE PUSH1 0x1F NOT PUSH1 0x1F DUP3 ADD AND DUP3 ADD DUP1 PUSH1 0x40 MSTORE POP DUP2 ADD SWAP1 PUSH2 0xB2A SWAP2 SWAP1 PUSH2 0x1022 JUMP JUMPDEST POP POP POP POP POP POP POP POP POP SWAP3 SWAP2 POP POP JUMP JUMPDEST PUSH32 0x0 DUP2 JUMP JUMPDEST DUP1 PUSH1 0x3 PUSH1 0x0 DUP5 PUSH20 0xFFFFFFFFFFFFFFFFFFFFFFFFFFFFFFFFFFFFFFFF AND PUSH20 0xFFFFFFFFFFFFFFFFFFFFFFFFFFFFFFFFFFFFFFFF AND DUP2 MSTORE PUSH1 0x20 ADD SWAP1 DUP2 MSTORE PUSH1 0x20 ADD PUSH1 0x0 KECCAK256 PUSH1 0x0 DUP3 DUP3 SLOAD PUSH2 0xBAC SWAP2 SWAP1 PUSH2 0xF7E JUMP JUMPDEST SWAP3 POP POP DUP2 SWAP1 SSTORE POP DUP1 PUSH1 0x2 PUSH1 0x0 DUP3 DUP3 SLOAD PUSH2 0xBC5 SWAP2 SWAP1 PUSH2 0xF7E JUMP JUMPDEST SWAP3 POP POP DUP2 SWAP1 SSTORE POP POP POP JUMP JUMPDEST DUP2 PUSH1 0x0 DUP2 SWAP1 SSTORE POP DUP1 PUSH1 0x1 DUP2 SWAP1 SSTORE POP POP POP JUMP JUMPDEST DUP1 PUSH1 0x3 PUSH1 0x0 DUP5 PUSH20 0xFFFFFFFFFFFFFFFFFFFFFFFFFFFFFFFFFFFFFFFF AND PUSH20 0xFFFFFFFFFFFFFFFFFFFFFFFFFFFFFFFFFFFFFFFF AND DUP2 MSTORE PUSH1 0x20 ADD SWAP1 DUP2 MSTORE PUSH1 0x20 ADD PUSH1 0x0 KECCAK256 PUSH1 0x0 DUP3 DUP3 SLOAD PUSH2 0xC31 SWAP2 SWAP1 PUSH2 0x10E3 JUMP JUMPDEST SWAP3 POP POP DUP2 SWAP1 SSTORE POP DUP1 PUSH1 0x2 PUSH1 0x0 DUP3 DUP3 SLOAD PUSH2 0xC4A SWAP2 SWAP1 PUSH2 0x10E3 JUMP JUMPDEST SWAP3 POP POP DUP2 SWAP1 SSTORE POP POP POP JUMP JUMPDEST PUSH1 0x0 PUSH20 0xFFFFFFFFFFFFFFFFFFFFFFFFFFFFFFFFFFFFFFFF DUP3 AND SWAP1 POP SWAP2 SWAP1 POP JUMP JUMPDEST PUSH1 0x0 DUP2 SWAP1 POP SWAP2 SWAP1 POP JUMP JUMPDEST PUSH1 0x0 PUSH2 0xC9A PUSH2 0xC95 PUSH2 0xC90 DUP5 PUSH2 0xC55 JUMP JUMPDEST PUSH2 0xC75 JUMP JUMPDEST PUSH2 0xC55 JUMP JUMPDEST SWAP1 POP SWAP2 SWAP1 POP JUMP JUMPDEST PUSH1 0x0 PUSH2 0xCAC DUP3 PUSH2 0xC7F JUMP JUMPDEST SWAP1 POP SWAP2 SWAP1 POP JUMP JUMPDEST PUSH1 0x0 PUSH2 0xCBE DUP3 PUSH2 0xCA1 JUMP JUMPDEST SWAP1 POP SWAP2 SWAP1 POP JUMP JUMPDEST PUSH2 0xCCE DUP2 PUSH2 0xCB3 JUMP JUMPDEST DUP3 MSTORE POP POP JUMP JUMPDEST PUSH1 0x0 PUSH1 0x20 DUP3 ADD SWAP1 POP PUSH2 0xCE9 PUSH1 0x0 DUP4 ADD DUP5 PUSH2 0xCC5 JUMP JUMPDEST SWAP3 SWAP2 POP POP JUMP JUMPDEST PUSH1 0x0 DUP2 SWAP1 POP SWAP2 SWAP1 POP JUMP JUMPDEST PUSH2 0xD02 DUP2 PUSH2 0xCEF JUMP JUMPDEST DUP3 MSTORE POP POP JUMP JUMPDEST PUSH1 0x0 PUSH1 0x20 DUP3 ADD SWAP1 POP PUSH2 0xD1D PUSH1 0x0 DUP4 ADD DUP5 PUSH2 0xCF9 JUMP JUMPDEST SWAP3 SWAP2 POP POP JUMP JUMPDEST PUSH1 0x0 DUP1 REVERT JUMPDEST PUSH1 0x0 PUSH2 0xD33 DUP3 PUSH2 0xC55 JUMP JUMPDEST SWAP1 POP SWAP2 SWAP1 POP JUMP JUMPDEST PUSH2 0xD43 DUP2 PUSH2 0xD28 JUMP JUMPDEST DUP2 EQ PUSH2 0xD4E JUMPI PUSH1 0x0 DUP1 REVERT JUMPDEST POP JUMP JUMPDEST PUSH1 0x0 DUP2 CALLDATALOAD SWAP1 POP PUSH2 0xD60 DUP2 PUSH2 0xD3A JUMP JUMPDEST SWAP3 SWAP2 POP POP JUMP JUMPDEST PUSH1 0x0 PUSH1 0x20 DUP3 DUP5 SUB SLT ISZERO PUSH2 0xD7C JUMPI PUSH2 0xD7B PUSH2 0xD23 JUMP JUMPDEST JUMPDEST PUSH1 0x0 PUSH2 0xD8A DUP5 DUP3 DUP6 ADD PUSH2 0xD51 JUMP JUMPDEST SWAP2 POP POP SWAP3 SWAP2 POP POP JUMP JUMPDEST PUSH2 0xD9C DUP2 PUSH2 0xCEF JUMP JUMPDEST DUP2 EQ PUSH2 0xDA7 JUMPI PUSH1 0x0 DUP1 REVERT JUMPDEST POP JUMP JUMPDEST PUSH1 0x0 DUP2 CALLDATALOAD SWAP1 POP PUSH2 0xDB9 DUP2 PUSH2 0xD93 JUMP JUMPDEST SWAP3 SWAP2 POP POP JUMP JUMPDEST PUSH1 0x0 PUSH1 0x20 DUP3 DUP5 SUB SLT ISZERO PUSH2 0xDD5 JUMPI PUSH2 0xDD4 PUSH2 0xD23 JUMP JUMPDEST JUMPDEST PUSH1 0x0 PUSH2 0xDE3 DUP5 DUP3 DUP6 ADD PUSH2 0xDAA JUMP JUMPDEST SWAP2 POP POP SWAP3 SWAP2 POP POP JUMP JUMPDEST PUSH1 0x0 PUSH1 0x40 DUP3 ADD SWAP1 POP PUSH2 0xE01 PUSH1 0x0 DUP4 ADD DUP6 PUSH2 0xCF9 JUMP JUMPDEST PUSH2 0xE0E PUSH1 0x20 DUP4 ADD DUP5 PUSH2 0xCF9 JUMP JUMPDEST SWAP4 SWAP3 POP POP POP JUMP JUMPDEST PUSH1 0x0 DUP1 PUSH1 0x40 DUP4 DUP6 SUB SLT ISZERO PUSH2 0xE2C JUMPI PUSH2 0xE2B PUSH2 0xD23 JUMP JUMPDEST JUMPDEST PUSH1 0x0 PUSH2 0xE3A DUP6 DUP3 DUP7 ADD PUSH2 0xDAA JUMP JUMPDEST SWAP3 POP POP PUSH1 0x20 PUSH2 0xE4B DUP6 DUP3 DUP7 ADD PUSH2 0xDAA JUMP JUMPDEST SWAP2 POP POP SWAP3 POP SWAP3 SWAP1 POP JUMP JUMPDEST PUSH1 0x0 DUP1 PUSH1 0x40 DUP4 DUP6 SUB SLT ISZERO PUSH2 0xE6C JUMPI PUSH2 0xE6B PUSH2 0xD23 JUMP JUMPDEST JUMPDEST PUSH1 0x0 PUSH2 0xE7A DUP6 DUP3 DUP7 ADD PUSH2 0xD51 JUMP JUMPDEST SWAP3 POP POP PUSH1 0x20 PUSH2 0xE8B DUP6 DUP3 DUP7 ADD PUSH2 0xDAA JUMP JUMPDEST SWAP2 POP POP SWAP3 POP SWAP3 SWAP1 POP JUMP JUMPDEST PUSH32 0x4E487B7100000000000000000000000000000000000000000000000000000000 PUSH1 0x0 MSTORE PUSH1 0x11 PUSH1 0x4 MSTORE PUSH1 0x24 PUSH1 0x0 REVERT JUMPDEST PUSH1 0x0 PUSH2 0xECF DUP3 PUSH2 0xCEF JUMP JUMPDEST SWAP2 POP PUSH2 0xEDA DUP4 PUSH2 0xCEF JUMP JUMPDEST SWAP3 POP DUP2 PUSH32 0xFFFFFFFFFFFFFFFFFFFFFFFFFFFFFFFFFFFFFFFFFFFFFFFFFFFFFFFFFFFFFFFF DIV DUP4 GT DUP3 ISZERO ISZERO AND ISZERO PUSH2 0xF13 JUMPI PUSH2 0xF12 PUSH2 0xE95 JUMP JUMPDEST JUMPDEST DUP3 DUP3 MUL SWAP1 POP SWAP3 SWAP2 POP POP JUMP JUMPDEST PUSH32 0x4E487B7100000000000000000000000000000000000000000000000000000000 PUSH1 0x0 MSTORE PUSH1 0x12 PUSH1 0x4 MSTORE PUSH1 0x24 PUSH1 0x0 REVERT JUMPDEST PUSH1 0x0 PUSH2 0xF58 DUP3 PUSH2 0xCEF JUMP JUMPDEST SWAP2 POP PUSH2 0xF63 DUP4 PUSH2 0xCEF JUMP JUMPDEST SWAP3 POP DUP3 PUSH2 0xF73 JUMPI PUSH2 0xF72 PUSH2 0xF1E JUMP JUMPDEST JUMPDEST DUP3 DUP3 DIV SWAP1 POP SWAP3 SWAP2 POP POP JUMP JUMPDEST PUSH1 0x0 PUSH2 0xF89 DUP3 PUSH2 0xCEF JUMP JUMPDEST SWAP2 POP PUSH2 0xF94 DUP4 PUSH2 0xCEF JUMP JUMPDEST SWAP3 POP DUP3 DUP3 LT ISZERO PUSH2 0xFA7 JUMPI PUSH2 0xFA6 PUSH2 0xE95 JUMP JUMPDEST JUMPDEST DUP3 DUP3 SUB SWAP1 POP SWAP3 SWAP2 POP POP JUMP JUMPDEST PUSH2 0xFBB DUP2 PUSH2 0xD28 JUMP JUMPDEST DUP3 MSTORE POP POP JUMP JUMPDEST PUSH1 0x0 PUSH1 0x40 DUP3 ADD SWAP1 POP PUSH2 0xFD6 PUSH1 0x0 DUP4 ADD DUP6 PUSH2 0xFB2 JUMP JUMPDEST PUSH2 0xFE3 PUSH1 0x20 DUP4 ADD DUP5 PUSH2 0xCF9 JUMP JUMPDEST SWAP4 SWAP3 POP POP POP JUMP JUMPDEST PUSH1 0x0 DUP2 ISZERO ISZERO SWAP1 POP SWAP2 SWAP1 POP JUMP JUMPDEST PUSH2 0xFFF DUP2 PUSH2 0xFEA JUMP JUMPDEST DUP2 EQ PUSH2 0x100A JUMPI PUSH1 0x0 DUP1 REVERT JUMPDEST POP JUMP JUMPDEST PUSH1 0x0 DUP2 MLOAD SWAP1 POP PUSH2 0x101C DUP2 PUSH2 0xFF6 JUMP JUMPDEST SWAP3 SWAP2 POP POP JUMP JUMPDEST PUSH1 0x0 PUSH1 0x20 DUP3 DUP5 SUB SLT ISZERO PUSH2 0x1038 JUMPI PUSH2 0x1037 PUSH2 0xD23 JUMP JUMPDEST JUMPDEST PUSH1 0x0 PUSH2 0x1046 DUP5 DUP3 DUP6 ADD PUSH2 0x100D JUMP JUMPDEST SWAP2 POP POP SWAP3 SWAP2 POP POP JUMP JUMPDEST PUSH1 0x0 PUSH1 0x60 DUP3 ADD SWAP1 POP PUSH2 0x1064 PUSH1 0x0 DUP4 ADD DUP7 PUSH2 0xFB2 JUMP JUMPDEST PUSH2 0x1071 PUSH1 0x20 DUP4 ADD DUP6 PUSH2 0xFB2 JUMP JUMPDEST PUSH2 0x107E PUSH1 0x40 DUP4 ADD DUP5 PUSH2 0xCF9 JUMP JUMPDEST SWAP5 SWAP4 POP POP POP POP JUMP JUMPDEST PUSH1 0x0 PUSH1 0x20 DUP3 ADD SWAP1 POP PUSH2 0x109B PUSH1 0x0 DUP4 ADD DUP5 PUSH2 0xFB2 JUMP JUMPDEST SWAP3 SWAP2 POP POP JUMP JUMPDEST PUSH1 0x0 DUP2 MLOAD SWAP1 POP PUSH2 0x10B0 DUP2 PUSH2 0xD93 JUMP JUMPDEST SWAP3 SWAP2 POP POP JUMP JUMPDEST PUSH1 0x0 PUSH1 0x20 DUP3 DUP5 SUB SLT ISZERO PUSH2 0x10CC JUMPI PUSH2 0x10CB PUSH2 0xD23 JUMP JUMPDEST JUMPDEST PUSH1 0x0 PUSH2 0x10DA DUP5 DUP3 DUP6 ADD PUSH2 0x10A1 JUMP JUMPDEST SWAP2 POP POP SWAP3 SWAP2 POP POP JUMP JUMPDEST PUSH1 0x0 PUSH2 0x10EE DUP3 PUSH2 0xCEF JUMP JUMPDEST SWAP2 POP PUSH2 0x10F9 DUP4 PUSH2 0xCEF JUMP JUMPDEST SWAP3 POP DUP3 PUSH32 0xFFFFFFFFFFFFFFFFFFFFFFFFFFFFFFFFFFFFFFFFFFFFFFFFFFFFFFFFFFFFFFFF SUB DUP3 GT ISZERO PUSH2 0x112E JUMPI PUSH2 0x112D PUSH2 0xE95 JUMP JUMPDEST JUMPDEST DUP3 DUP3 ADD SWAP1 POP SWAP3 SWAP2 POP POP JUMP JUMPDEST PUSH1 0x0 DUP3 DUP3 MSTORE PUSH1 0x20 DUP3 ADD SWAP1 POP SWAP3 SWAP2 POP POP JUMP JUMPDEST PUSH32 0x736861726573203D203000000000000000000000000000000000000000000000 PUSH1 0x0 DUP3 ADD MSTORE POP JUMP JUMPDEST PUSH1 0x0 PUSH2 0x1180 PUSH1 0xA DUP4 PUSH2 0x1139 JUMP JUMPDEST SWAP2 POP PUSH2 0x118B DUP3 PUSH2 0x114A JUMP JUMPDEST PUSH1 0x20 DUP3 ADD SWAP1 POP SWAP2 SWAP1 POP JUMP JUMPDEST PUSH1 0x0 PUSH1 0x20 DUP3 ADD SWAP1 POP DUP2 DUP2 SUB PUSH1 0x0 DUP4 ADD MSTORE PUSH2 0x11AF DUP2 PUSH2 0x1173 JUMP JUMPDEST SWAP1 POP SWAP2 SWAP1 POP JUMP JUMPDEST PUSH32 0x696E76616C696420746F6B656E00000000000000000000000000000000000000 PUSH1 0x0 DUP3 ADD MSTORE POP JUMP JUMPDEST PUSH1 0x0 PUSH2 0x11EC PUSH1 0xD DUP4 PUSH2 0x1139 JUMP JUMPDEST SWAP2 POP PUSH2 0x11F7 DUP3 PUSH2 0x11B6 JUMP JUMPDEST PUSH1 0x20 DUP3 ADD SWAP1 POP SWAP2 SWAP1 POP JUMP JUMPDEST PUSH1 0x0 PUSH1 0x20 DUP3 ADD SWAP1 POP DUP2 DUP2 SUB PUSH1 0x0 DUP4 ADD MSTORE PUSH2 0x121B DUP2 PUSH2 0x11DF JUMP JUMPDEST SWAP1 POP SWAP2 SWAP1 POP JUMP INVALID LOG2 PUSH5 0x6970667358 0x22 SLT KECCAK256 SWAP8 RETURNDATASIZE EXTCODECOPY LOG3 CALL PUSH30 0x5525F2D9E37BB1BB7EE15E501ADC8F436B5DCE1D250A55C859A364736F6C PUSH4 0x4300080F STOP CALLER "
				},
				"gasEstimates": {
					"creation": {
						"codeDepositCost": "939200",
						"executionCost": "infinite",
						"totalCost": "infinite"
					},
					"external": {
						"addLiquidity(uint256,uint256)": "infinite",
						"balanceOf(address)": "2814",
						"removeLiquidity(uint256)": "infinite",
						"reserve0()": "2474",
						"reserve1()": "2496",
						"swap(address,uint256)": "infinite",
						"token0()": "infinite",
						"token1()": "infinite",
						"totalSupply()": "2452"
					},
					"internal": {
						"_burn(address,uint256)": "infinite",
						"_mint(address,uint256)": "infinite",
						"_update(uint256,uint256)": "44241"
					}
				},
				"methodIdentifiers": {
					"addLiquidity(uint256,uint256)": "9cd441da",
					"balanceOf(address)": "70a08231",
					"removeLiquidity(uint256)": "9c8f9f23",
					"reserve0()": "443cb4bc",
					"reserve1()": "5a76f25e",
					"swap(address,uint256)": "d004f0f7",
					"token0()": "0dfe1681",
					"token1()": "d21220a7",
					"totalSupply()": "18160ddd"
				}
			},
			"storageLayout": {
				"storage": [
					{
						"astId": 9,
						"contract": "contracts/DeFi/CSAMM.sol:CSAMM",
						"label": "reserve0",
						"offset": 0,
						"slot": "0",
						"type": "t_uint256"
					},
					{
						"astId": 11,
						"contract": "contracts/DeFi/CSAMM.sol:CSAMM",
						"label": "reserve1",
						"offset": 0,
						"slot": "1",
						"type": "t_uint256"
					},
					{
						"astId": 13,
						"contract": "contracts/DeFi/CSAMM.sol:CSAMM",
						"label": "totalSupply",
						"offset": 0,
						"slot": "2",
						"type": "t_uint256"
					},
					{
						"astId": 17,
						"contract": "contracts/DeFi/CSAMM.sol:CSAMM",
						"label": "balanceOf",
						"offset": 0,
						"slot": "3",
						"type": "t_mapping(t_address,t_uint256)"
					}
				],
				"types": {
					"t_address": {
						"encoding": "inplace",
						"label": "address",
						"numberOfBytes": "20"
					},
					"t_mapping(t_address,t_uint256)": {
						"encoding": "mapping",
						"key": "t_address",
						"label": "mapping(address => uint256)",
						"numberOfBytes": "32",
						"value": "t_uint256"
					},
					"t_uint256": {
						"encoding": "inplace",
						"label": "uint256",
						"numberOfBytes": "32"
					}
				}
			},
			"userdoc": {
				"kind": "user",
				"methods": {},
				"version": 1
			}
		}
	}
}