{
	"contracts/DeFi/CSAMM2.sol": {
		"CSAMM": {
			"abi": [
				{
					"inputs": [
						{
							"internalType": "address",
							"name": "_token0",
							"type": "address"
						},
						{
							"internalType": "address",
							"name": "_token1",
							"type": "address"
						}
					],
					"stateMutability": "nonpayable",
					"type": "constructor"
				},
				{
					"inputs": [
						{
							"internalType": "uint256",
							"name": "_amount0",
							"type": "uint256"
						},
						{
							"internalType": "uint256",
							"name": "_amount1",
							"type": "uint256"
						}
					],
					"name": "addLiquidity",
					"outputs": [
						{
							"internalType": "uint256",
							"name": "shares",
							"type": "uint256"
						}
					],
					"stateMutability": "nonpayable",
					"type": "function"
				},
				{
					"inputs": [
						{
							"internalType": "address",
							"name": "",
							"type": "address"
						}
					],
					"name": "balanceOf",
					"outputs": [
						{
							"internalType": "uint256",
							"name": "",
							"type": "uint256"
						}
					],
					"stateMutability": "view",
					"type": "function"
				},
				{
					"inputs": [
						{
							"internalType": "uint256",
							"name": "_shares",
							"type": "uint256"
						}
					],
					"name": "removeLiquidity",
					"outputs": [
						{
							"internalType": "uint256",
							"name": "d0",
							"type": "uint256"
						},
						{
							"internalType": "uint256",
							"name": "d1",
							"type": "uint256"
						}
					],
					"stateMutability": "nonpayable",
					"type": "function"
				},
				{
					"inputs": [],
					"name": "reserve0",
					"outputs": [
						{
							"internalType": "uint256",
							"name": "",
							"type": "uint256"
						}
					],
					"stateMutability": "view",
					"type": "function"
				},
				{
					"inputs": [],
					"name": "reserve1",
					"outputs": [
						{
							"internalType": "uint256",
							"name": "",
							"type": "uint256"
						}
					],
					"stateMutability": "view",
					"type": "function"
				},
				{
					"inputs": [
						{
							"internalType": "address",
							"name": "_tokenIn",
							"type": "address"
						},
						{
							"internalType": "uint256",
							"name": "_amountIn",
							"type": "uint256"
						}
					],
					"name": "swap",
					"outputs": [
						{
							"internalType": "uint256",
							"name": "amountOut",
							"type": "uint256"
						}
					],
					"stateMutability": "nonpayable",
					"type": "function"
				},
				{
					"inputs": [],
					"name": "token0",
					"outputs": [
						{
							"internalType": "contract IERC20",
							"name": "",
							"type": "address"
						}
					],
					"stateMutability": "view",
					"type": "function"
				},
				{
					"inputs": [],
					"name": "token1",
					"outputs": [
						{
							"internalType": "contract IERC20",
							"name": "",
							"type": "address"
						}
					],
					"stateMutability": "view",
					"type": "function"
				},
				{
					"inputs": [],
					"name": "totalSupply",
					"outputs": [
						{
							"internalType": "uint256",
							"name": "",
							"type": "uint256"
						}
					],
					"stateMutability": "view",
					"type": "function"
				}
			],
			"devdoc": {
				"kind": "dev",
				"methods": {},
				"version": 1
			},
			"evm": {
				"assembly": "    /* \"contracts/DeFi/CSAMM2.sol\":83:3533  contract CSAMM {... */\n  mstore(0x40, 0xc0)\n    /* \"contracts/DeFi/CSAMM2.sol\":351:556  constructor(address _token0, address _token1) {... */\n  callvalue\n  dup1\n  iszero\n  tag_1\n  jumpi\n  0x00\n  dup1\n  revert\ntag_1:\n  pop\n  mload(0x40)\n  sub(codesize, bytecodeSize)\n  dup1\n  bytecodeSize\n  dup4\n  codecopy\n  dup2\n  dup2\n  add\n  0x40\n  mstore\n  dup2\n  add\n  swap1\n  tag_2\n  swap2\n  swap1\n  tag_3\n  jump\t// in\ntag_2:\n    /* \"contracts/DeFi/CSAMM2.sol\":434:435  0 */\n  0x00\n    /* \"contracts/DeFi/CSAMM2.sol\":415:436  _token0 != address(0) */\n  0xffffffffffffffffffffffffffffffffffffffff\n  and\n    /* \"contracts/DeFi/CSAMM2.sol\":415:422  _token0 */\n  dup3\n    /* \"contracts/DeFi/CSAMM2.sol\":415:436  _token0 != address(0) */\n  0xffffffffffffffffffffffffffffffffffffffff\n  and\n  eq\n  iszero\n    /* \"contracts/DeFi/CSAMM2.sol\":415:461  _token0 != address(0) && _token1 != address(0) */\n  dup1\n  iszero\n  tag_6\n  jumpi\n  pop\n    /* \"contracts/DeFi/CSAMM2.sol\":459:460  0 */\n  0x00\n    /* \"contracts/DeFi/CSAMM2.sol\":440:461  _token1 != address(0) */\n  0xffffffffffffffffffffffffffffffffffffffff\n  and\n    /* \"contracts/DeFi/CSAMM2.sol\":440:447  _token1 */\n  dup2\n    /* \"contracts/DeFi/CSAMM2.sol\":440:461  _token1 != address(0) */\n  0xffffffffffffffffffffffffffffffffffffffff\n  and\n  eq\n  iszero\n    /* \"contracts/DeFi/CSAMM2.sol\":415:461  _token0 != address(0) && _token1 != address(0) */\ntag_6:\n    /* \"contracts/DeFi/CSAMM2.sol\":407:481  require(_token0 != address(0) && _token1 != address(0), \"invalid address\") */\n  tag_7\n  jumpi\n  mload(0x40)\n  0x08c379a000000000000000000000000000000000000000000000000000000000\n  dup2\n  mstore\n  0x04\n  add\n  tag_8\n  swap1\n  tag_9\n  jump\t// in\ntag_8:\n  mload(0x40)\n  dup1\n  swap2\n  sub\n  swap1\n  revert\ntag_7:\n    /* \"contracts/DeFi/CSAMM2.sol\":507:514  _token0 */\n  dup2\n    /* \"contracts/DeFi/CSAMM2.sol\":491:515  token0 = IERC20(_token0) */\n  0xffffffffffffffffffffffffffffffffffffffff\n  and\n  0x80\n  dup2\n  0xffffffffffffffffffffffffffffffffffffffff\n  and\n  dup2\n  mstore\n  pop\n  pop\n    /* \"contracts/DeFi/CSAMM2.sol\":541:548  _token1 */\n  dup1\n    /* \"contracts/DeFi/CSAMM2.sol\":525:549  token1 = IERC20(_token1) */\n  0xffffffffffffffffffffffffffffffffffffffff\n  and\n  0xa0\n  dup2\n  0xffffffffffffffffffffffffffffffffffffffff\n  and\n  dup2\n  mstore\n  pop\n  pop\n    /* \"contracts/DeFi/CSAMM2.sol\":351:556  constructor(address _token0, address _token1) {... */\n  pop\n  pop\n    /* \"contracts/DeFi/CSAMM2.sol\":83:3533  contract CSAMM {... */\n  jump(tag_10)\n    /* \"#utility.yul\":88:205   */\ntag_12:\n    /* \"#utility.yul\":197:198   */\n  0x00\n    /* \"#utility.yul\":194:195   */\n  dup1\n    /* \"#utility.yul\":187:199   */\n  revert\n    /* \"#utility.yul\":334:460   */\ntag_14:\n    /* \"#utility.yul\":371:378   */\n  0x00\n    /* \"#utility.yul\":411:453   */\n  0xffffffffffffffffffffffffffffffffffffffff\n    /* \"#utility.yul\":404:409   */\n  dup3\n    /* \"#utility.yul\":400:454   */\n  and\n    /* \"#utility.yul\":389:454   */\n  swap1\n  pop\n    /* \"#utility.yul\":334:460   */\n  swap2\n  swap1\n  pop\n  jump\t// out\n    /* \"#utility.yul\":466:562   */\ntag_15:\n    /* \"#utility.yul\":503:510   */\n  0x00\n    /* \"#utility.yul\":532:556   */\n  tag_27\n    /* \"#utility.yul\":550:555   */\n  dup3\n    /* \"#utility.yul\":532:556   */\n  tag_14\n  jump\t// in\ntag_27:\n    /* \"#utility.yul\":521:556   */\n  swap1\n  pop\n    /* \"#utility.yul\":466:562   */\n  swap2\n  swap1\n  pop\n  jump\t// out\n    /* \"#utility.yul\":568:690   */\ntag_16:\n    /* \"#utility.yul\":641:665   */\n  tag_29\n    /* \"#utility.yul\":659:664   */\n  dup2\n    /* \"#utility.yul\":641:665   */\n  tag_15\n  jump\t// in\ntag_29:\n    /* \"#utility.yul\":634:639   */\n  dup2\n    /* \"#utility.yul\":631:666   */\n  eq\n    /* \"#utility.yul\":621:684   */\n  tag_30\n  jumpi\n    /* \"#utility.yul\":680:681   */\n  0x00\n    /* \"#utility.yul\":677:678   */\n  dup1\n    /* \"#utility.yul\":670:682   */\n  revert\n    /* \"#utility.yul\":621:684   */\ntag_30:\n    /* \"#utility.yul\":568:690   */\n  pop\n  jump\t// out\n    /* \"#utility.yul\":696:839   */\ntag_17:\n    /* \"#utility.yul\":753:758   */\n  0x00\n    /* \"#utility.yul\":784:790   */\n  dup2\n    /* \"#utility.yul\":778:791   */\n  mload\n    /* \"#utility.yul\":769:791   */\n  swap1\n  pop\n    /* \"#utility.yul\":800:833   */\n  tag_32\n    /* \"#utility.yul\":827:832   */\n  dup2\n    /* \"#utility.yul\":800:833   */\n  tag_16\n  jump\t// in\ntag_32:\n    /* \"#utility.yul\":696:839   */\n  swap3\n  swap2\n  pop\n  pop\n  jump\t// out\n    /* \"#utility.yul\":845:1352   */\ntag_3:\n    /* \"#utility.yul\":924:930   */\n  0x00\n    /* \"#utility.yul\":932:938   */\n  dup1\n    /* \"#utility.yul\":981:983   */\n  0x40\n    /* \"#utility.yul\":969:978   */\n  dup4\n    /* \"#utility.yul\":960:967   */\n  dup6\n    /* \"#utility.yul\":956:979   */\n  sub\n    /* \"#utility.yul\":952:984   */\n  slt\n    /* \"#utility.yul\":949:1068   */\n  iszero\n  tag_34\n  jumpi\n    /* \"#utility.yul\":987:1066   */\n  tag_35\n  tag_12\n  jump\t// in\ntag_35:\n    /* \"#utility.yul\":949:1068   */\ntag_34:\n    /* \"#utility.yul\":1107:1108   */\n  0x00\n    /* \"#utility.yul\":1132:1196   */\n  tag_36\n    /* \"#utility.yul\":1188:1195   */\n  dup6\n    /* \"#utility.yul\":1179:1185   */\n  dup3\n    /* \"#utility.yul\":1168:1177   */\n  dup7\n    /* \"#utility.yul\":1164:1186   */\n  add\n    /* \"#utility.yul\":1132:1196   */\n  tag_17\n  jump\t// in\ntag_36:\n    /* \"#utility.yul\":1122:1196   */\n  swap3\n  pop\n    /* \"#utility.yul\":1078:1206   */\n  pop\n    /* \"#utility.yul\":1245:1247   */\n  0x20\n    /* \"#utility.yul\":1271:1335   */\n  tag_37\n    /* \"#utility.yul\":1327:1334   */\n  dup6\n    /* \"#utility.yul\":1318:1324   */\n  dup3\n    /* \"#utility.yul\":1307:1316   */\n  dup7\n    /* \"#utility.yul\":1303:1325   */\n  add\n    /* \"#utility.yul\":1271:1335   */\n  tag_17\n  jump\t// in\ntag_37:\n    /* \"#utility.yul\":1261:1335   */\n  swap2\n  pop\n    /* \"#utility.yul\":1216:1345   */\n  pop\n    /* \"#utility.yul\":845:1352   */\n  swap3\n  pop\n  swap3\n  swap1\n  pop\n  jump\t// out\n    /* \"#utility.yul\":1358:1527   */\ntag_18:\n    /* \"#utility.yul\":1442:1453   */\n  0x00\n    /* \"#utility.yul\":1476:1482   */\n  dup3\n    /* \"#utility.yul\":1471:1474   */\n  dup3\n    /* \"#utility.yul\":1464:1483   */\n  mstore\n    /* \"#utility.yul\":1516:1520   */\n  0x20\n    /* \"#utility.yul\":1511:1514   */\n  dup3\n    /* \"#utility.yul\":1507:1521   */\n  add\n    /* \"#utility.yul\":1492:1521   */\n  swap1\n  pop\n    /* \"#utility.yul\":1358:1527   */\n  swap3\n  swap2\n  pop\n  pop\n  jump\t// out\n    /* \"#utility.yul\":1533:1698   */\ntag_19:\n    /* \"#utility.yul\":1673:1690   */\n  0x696e76616c696420616464726573730000000000000000000000000000000000\n    /* \"#utility.yul\":1669:1670   */\n  0x00\n    /* \"#utility.yul\":1661:1667   */\n  dup3\n    /* \"#utility.yul\":1657:1671   */\n  add\n    /* \"#utility.yul\":1650:1691   */\n  mstore\n    /* \"#utility.yul\":1533:1698   */\n  pop\n  jump\t// out\n    /* \"#utility.yul\":1704:2070   */\ntag_20:\n    /* \"#utility.yul\":1846:1849   */\n  0x00\n    /* \"#utility.yul\":1867:1934   */\n  tag_41\n    /* \"#utility.yul\":1931:1933   */\n  0x0f\n    /* \"#utility.yul\":1926:1929   */\n  dup4\n    /* \"#utility.yul\":1867:1934   */\n  tag_18\n  jump\t// in\ntag_41:\n    /* \"#utility.yul\":1860:1934   */\n  swap2\n  pop\n    /* \"#utility.yul\":1943:2036   */\n  tag_42\n    /* \"#utility.yul\":2032:2035   */\n  dup3\n    /* \"#utility.yul\":1943:2036   */\n  tag_19\n  jump\t// in\ntag_42:\n    /* \"#utility.yul\":2061:2063   */\n  0x20\n    /* \"#utility.yul\":2056:2059   */\n  dup3\n    /* \"#utility.yul\":2052:2064   */\n  add\n    /* \"#utility.yul\":2045:2064   */\n  swap1\n  pop\n    /* \"#utility.yul\":1704:2070   */\n  swap2\n  swap1\n  pop\n  jump\t// out\n    /* \"#utility.yul\":2076:2495   */\ntag_9:\n    /* \"#utility.yul\":2242:2246   */\n  0x00\n    /* \"#utility.yul\":2280:2282   */\n  0x20\n    /* \"#utility.yul\":2269:2278   */\n  dup3\n    /* \"#utility.yul\":2265:2283   */\n  add\n    /* \"#utility.yul\":2257:2283   */\n  swap1\n  pop\n    /* \"#utility.yul\":2329:2338   */\n  dup2\n    /* \"#utility.yul\":2323:2327   */\n  dup2\n    /* \"#utility.yul\":2319:2339   */\n  sub\n    /* \"#utility.yul\":2315:2316   */\n  0x00\n    /* \"#utility.yul\":2304:2313   */\n  dup4\n    /* \"#utility.yul\":2300:2317   */\n  add\n    /* \"#utility.yul\":2293:2340   */\n  mstore\n    /* \"#utility.yul\":2357:2488   */\n  tag_44\n    /* \"#utility.yul\":2483:2487   */\n  dup2\n    /* \"#utility.yul\":2357:2488   */\n  tag_20\n  jump\t// in\ntag_44:\n    /* \"#utility.yul\":2349:2488   */\n  swap1\n  pop\n    /* \"#utility.yul\":2076:2495   */\n  swap2\n  swap1\n  pop\n  jump\t// out\n    /* \"contracts/DeFi/CSAMM2.sol\":83:3533  contract CSAMM {... */\ntag_10:\n  mload(0x80)\n  mload(0xa0)\n  codecopy(0x00, dataOffset(sub_0), dataSize(sub_0))\n  0x00\n  assignImmutable(\"0xe4b1702d9298fee62dfeccc57d322a463ad55ca201256d01f62b45b2e1c21c10\")\n  0x00\n  assignImmutable(\"0xceebf77a833b30520287ddd9478ff51abbdffa30aa90a8d655dba0e8a79ce0c1\")\n  return(0x00, dataSize(sub_0))\nstop\n\nsub_0: assembly {\n        /* \"contracts/DeFi/CSAMM2.sol\":83:3533  contract CSAMM {... */\n      mstore(0x40, 0x80)\n      callvalue\n      dup1\n      iszero\n      tag_1\n      jumpi\n      0x00\n      dup1\n      revert\n    tag_1:\n      pop\n      jumpi(tag_2, lt(calldatasize, 0x04))\n      shr(0xe0, calldataload(0x00))\n      dup1\n      0x70a08231\n      gt\n      tag_12\n      jumpi\n      dup1\n      0x70a08231\n      eq\n      tag_7\n      jumpi\n      dup1\n      0x9c8f9f23\n      eq\n      tag_8\n      jumpi\n      dup1\n      0x9cd441da\n      eq\n      tag_9\n      jumpi\n      dup1\n      0xd004f0f7\n      eq\n      tag_10\n      jumpi\n      dup1\n      0xd21220a7\n      eq\n      tag_11\n      jumpi\n      jump(tag_2)\n    tag_12:\n      dup1\n      0x0dfe1681\n      eq\n      tag_3\n      jumpi\n      dup1\n      0x18160ddd\n      eq\n      tag_4\n      jumpi\n      dup1\n      0x443cb4bc\n      eq\n      tag_5\n      jumpi\n      dup1\n      0x5a76f25e\n      eq\n      tag_6\n      jumpi\n    tag_2:\n      0x00\n      dup1\n      revert\n        /* \"contracts/DeFi/CSAMM2.sol\":104:134  IERC20 public immutable token0 */\n    tag_3:\n      tag_13\n      tag_14\n      jump\t// in\n    tag_13:\n      mload(0x40)\n      tag_15\n      swap2\n      swap1\n      tag_16\n      jump\t// in\n    tag_15:\n      mload(0x40)\n      dup1\n      swap2\n      sub\n      swap1\n      return\n        /* \"contracts/DeFi/CSAMM2.sol\":258:281  uint public totalSupply */\n    tag_4:\n      tag_17\n      tag_18\n      jump\t// in\n    tag_17:\n      mload(0x40)\n      tag_19\n      swap2\n      swap1\n      tag_20\n      jump\t// in\n    tag_19:\n      mload(0x40)\n      dup1\n      swap2\n      sub\n      swap1\n      return\n        /* \"contracts/DeFi/CSAMM2.sol\":177:197  uint public reserve0 */\n    tag_5:\n      tag_21\n      tag_22\n      jump\t// in\n    tag_21:\n      mload(0x40)\n      tag_23\n      swap2\n      swap1\n      tag_20\n      jump\t// in\n    tag_23:\n      mload(0x40)\n      dup1\n      swap2\n      sub\n      swap1\n      return\n        /* \"contracts/DeFi/CSAMM2.sol\":217:237  uint public reserve1 */\n    tag_6:\n      tag_24\n      tag_25\n      jump\t// in\n    tag_24:\n      mload(0x40)\n      tag_26\n      swap2\n      swap1\n      tag_20\n      jump\t// in\n    tag_26:\n      mload(0x40)\n      dup1\n      swap2\n      sub\n      swap1\n      return\n        /* \"contracts/DeFi/CSAMM2.sol\":303:344  mapping(address => uint) public balanceOf */\n    tag_7:\n      tag_27\n      0x04\n      dup1\n      calldatasize\n      sub\n      dup2\n      add\n      swap1\n      tag_28\n      swap2\n      swap1\n      tag_29\n      jump\t// in\n    tag_28:\n      tag_30\n      jump\t// in\n    tag_27:\n      mload(0x40)\n      tag_31\n      swap2\n      swap1\n      tag_20\n      jump\t// in\n    tag_31:\n      mload(0x40)\n      dup1\n      swap2\n      sub\n      swap1\n      return\n        /* \"contracts/DeFi/CSAMM2.sol\":2834:3531  function removeLiquidity(uint _shares) external returns (uint d0, uint d1) {... */\n    tag_8:\n      tag_32\n      0x04\n      dup1\n      calldatasize\n      sub\n      dup2\n      add\n      swap1\n      tag_33\n      swap2\n      swap1\n      tag_34\n      jump\t// in\n    tag_33:\n      tag_35\n      jump\t// in\n    tag_32:\n      mload(0x40)\n      tag_36\n      swap3\n      swap2\n      swap1\n      tag_37\n      jump\t// in\n    tag_36:\n      mload(0x40)\n      dup1\n      swap2\n      sub\n      swap1\n      return\n        /* \"contracts/DeFi/CSAMM2.sol\":1936:2828  function addLiquidity(uint _amount0, uint _amount1) external returns (uint shares) {... */\n    tag_9:\n      tag_38\n      0x04\n      dup1\n      calldatasize\n      sub\n      dup2\n      add\n      swap1\n      tag_39\n      swap2\n      swap1\n      tag_40\n      jump\t// in\n    tag_39:\n      tag_41\n      jump\t// in\n    tag_38:\n      mload(0x40)\n      tag_42\n      swap2\n      swap1\n      tag_20\n      jump\t// in\n    tag_42:\n      mload(0x40)\n      dup1\n      swap2\n      sub\n      swap1\n      return\n        /* \"contracts/DeFi/CSAMM2.sol\":941:1930  function swap(address _tokenIn, uint _amountIn) external returns (uint amountOut) {... */\n    tag_10:\n      tag_43\n      0x04\n      dup1\n      calldatasize\n      sub\n      dup2\n      add\n      swap1\n      tag_44\n      swap2\n      swap1\n      tag_45\n      jump\t// in\n    tag_44:\n      tag_46\n      jump\t// in\n    tag_43:\n      mload(0x40)\n      tag_47\n      swap2\n      swap1\n      tag_20\n      jump\t// in\n    tag_47:\n      mload(0x40)\n      dup1\n      swap2\n      sub\n      swap1\n      return\n        /* \"contracts/DeFi/CSAMM2.sol\":140:170  IERC20 public immutable token1 */\n    tag_11:\n      tag_48\n      tag_49\n      jump\t// in\n    tag_48:\n      mload(0x40)\n      tag_50\n      swap2\n      swap1\n      tag_16\n      jump\t// in\n    tag_50:\n      mload(0x40)\n      dup1\n      swap2\n      sub\n      swap1\n      return\n        /* \"contracts/DeFi/CSAMM2.sol\":104:134  IERC20 public immutable token0 */\n    tag_14:\n      immutable(\"0xceebf77a833b30520287ddd9478ff51abbdffa30aa90a8d655dba0e8a79ce0c1\")\n      dup2\n      jump\t// out\n        /* \"contracts/DeFi/CSAMM2.sol\":258:281  uint public totalSupply */\n    tag_18:\n      sload(0x02)\n      dup2\n      jump\t// out\n        /* \"contracts/DeFi/CSAMM2.sol\":177:197  uint public reserve0 */\n    tag_22:\n      sload(0x00)\n      dup2\n      jump\t// out\n        /* \"contracts/DeFi/CSAMM2.sol\":217:237  uint public reserve1 */\n    tag_25:\n      sload(0x01)\n      dup2\n      jump\t// out\n        /* \"contracts/DeFi/CSAMM2.sol\":303:344  mapping(address => uint) public balanceOf */\n    tag_30:\n      mstore(0x20, 0x03)\n      dup1\n      0x00\n      mstore\n      keccak256(0x00, 0x40)\n      0x00\n      swap2\n      pop\n      swap1\n      pop\n      sload\n      dup2\n      jump\t// out\n        /* \"contracts/DeFi/CSAMM2.sol\":2834:3531  function removeLiquidity(uint _shares) external returns (uint d0, uint d1) {... */\n    tag_35:\n        /* \"contracts/DeFi/CSAMM2.sol\":2891:2898  uint d0 */\n      0x00\n        /* \"contracts/DeFi/CSAMM2.sol\":2900:2907  uint d1 */\n      dup1\n        /* \"contracts/DeFi/CSAMM2.sol\":2939:2948  balanceOf */\n      0x03\n        /* \"contracts/DeFi/CSAMM2.sol\":2939:2960  balanceOf[msg.sender] */\n      0x00\n        /* \"contracts/DeFi/CSAMM2.sol\":2949:2959  msg.sender */\n      caller\n        /* \"contracts/DeFi/CSAMM2.sol\":2939:2960  balanceOf[msg.sender] */\n      0xffffffffffffffffffffffffffffffffffffffff\n      and\n      0xffffffffffffffffffffffffffffffffffffffff\n      and\n      dup2\n      mstore\n      0x20\n      add\n      swap1\n      dup2\n      mstore\n      0x20\n      add\n      0x00\n      keccak256\n      sload\n        /* \"contracts/DeFi/CSAMM2.sol\":2928:2935  _shares */\n      dup4\n        /* \"contracts/DeFi/CSAMM2.sol\":2928:2960  _shares <= balanceOf[msg.sender] */\n      gt\n      iszero\n        /* \"contracts/DeFi/CSAMM2.sol\":2919:2981  require (_shares <= balanceOf[msg.sender], \"invalid quantity\") */\n      tag_52\n      jumpi\n      mload(0x40)\n      0x08c379a000000000000000000000000000000000000000000000000000000000\n      dup2\n      mstore\n      0x04\n      add\n      tag_53\n      swap1\n      tag_54\n      jump\t// in\n    tag_53:\n      mload(0x40)\n      dup1\n      swap2\n      sub\n      swap1\n      revert\n    tag_52:\n        /* \"contracts/DeFi/CSAMM2.sol\":3225:3236  totalSupply */\n      sload(0x02)\n        /* \"contracts/DeFi/CSAMM2.sol\":3214:3221  _shares */\n      dup4\n        /* \"contracts/DeFi/CSAMM2.sol\":3203:3211  reserve0 */\n      sload(0x00)\n        /* \"contracts/DeFi/CSAMM2.sol\":3203:3221  reserve0 * _shares */\n      tag_55\n      swap2\n      swap1\n      tag_56\n      jump\t// in\n    tag_55:\n        /* \"contracts/DeFi/CSAMM2.sol\":3202:3236  (reserve0 * _shares) / totalSupply */\n      tag_57\n      swap2\n      swap1\n      tag_58\n      jump\t// in\n    tag_57:\n        /* \"contracts/DeFi/CSAMM2.sol\":3197:3236  d0 = (reserve0 * _shares) / totalSupply */\n      swap2\n      pop\n        /* \"contracts/DeFi/CSAMM2.sol\":3274:3285  totalSupply */\n      sload(0x02)\n        /* \"contracts/DeFi/CSAMM2.sol\":3263:3270  _shares */\n      dup4\n        /* \"contracts/DeFi/CSAMM2.sol\":3252:3260  reserve1 */\n      sload(0x01)\n        /* \"contracts/DeFi/CSAMM2.sol\":3252:3270  reserve1 * _shares */\n      tag_59\n      swap2\n      swap1\n      tag_56\n      jump\t// in\n    tag_59:\n        /* \"contracts/DeFi/CSAMM2.sol\":3251:3285  (reserve1 * _shares) / totalSupply */\n      tag_60\n      swap2\n      swap1\n      tag_58\n      jump\t// in\n    tag_60:\n        /* \"contracts/DeFi/CSAMM2.sol\":3246:3285  d1 = (reserve1 * _shares) / totalSupply */\n      swap1\n      pop\n        /* \"contracts/DeFi/CSAMM2.sol\":3296:3322  _burn(msg.sender, _shares) */\n      tag_61\n        /* \"contracts/DeFi/CSAMM2.sol\":3302:3312  msg.sender */\n      caller\n        /* \"contracts/DeFi/CSAMM2.sol\":3314:3321  _shares */\n      dup5\n        /* \"contracts/DeFi/CSAMM2.sol\":3296:3301  _burn */\n      tag_62\n        /* \"contracts/DeFi/CSAMM2.sol\":3296:3322  _burn(msg.sender, _shares) */\n      jump\t// in\n    tag_61:\n        /* \"contracts/DeFi/CSAMM2.sol\":3332:3369  _update(reserve0 - d0, reserve1 - d1) */\n      tag_63\n        /* \"contracts/DeFi/CSAMM2.sol\":3351:3353  d0 */\n      dup3\n        /* \"contracts/DeFi/CSAMM2.sol\":3340:3348  reserve0 */\n      sload(0x00)\n        /* \"contracts/DeFi/CSAMM2.sol\":3340:3353  reserve0 - d0 */\n      tag_64\n      swap2\n      swap1\n      tag_65\n      jump\t// in\n    tag_64:\n        /* \"contracts/DeFi/CSAMM2.sol\":3366:3368  d1 */\n      dup3\n        /* \"contracts/DeFi/CSAMM2.sol\":3355:3363  reserve1 */\n      sload(0x01)\n        /* \"contracts/DeFi/CSAMM2.sol\":3355:3368  reserve1 - d1 */\n      tag_66\n      swap2\n      swap1\n      tag_65\n      jump\t// in\n    tag_66:\n        /* \"contracts/DeFi/CSAMM2.sol\":3332:3339  _update */\n      tag_67\n        /* \"contracts/DeFi/CSAMM2.sol\":3332:3369  _update(reserve0 - d0, reserve1 - d1) */\n      jump\t// in\n    tag_63:\n        /* \"contracts/DeFi/CSAMM2.sol\":3389:3390  0 */\n      0x00\n        /* \"contracts/DeFi/CSAMM2.sol\":3384:3386  d0 */\n      dup3\n        /* \"contracts/DeFi/CSAMM2.sol\":3384:3390  d0 > 0 */\n      gt\n        /* \"contracts/DeFi/CSAMM2.sol\":3380:3448  if (d0 > 0) {... */\n      iszero\n      tag_68\n      jumpi\n        /* \"contracts/DeFi/CSAMM2.sol\":3406:3412  token0 */\n      immutable(\"0xceebf77a833b30520287ddd9478ff51abbdffa30aa90a8d655dba0e8a79ce0c1\")\n        /* \"contracts/DeFi/CSAMM2.sol\":3406:3421  token0.transfer */\n      0xffffffffffffffffffffffffffffffffffffffff\n      and\n      0xa9059cbb\n        /* \"contracts/DeFi/CSAMM2.sol\":3422:3432  msg.sender */\n      caller\n        /* \"contracts/DeFi/CSAMM2.sol\":3434:3436  d0 */\n      dup5\n        /* \"contracts/DeFi/CSAMM2.sol\":3406:3437  token0.transfer(msg.sender, d0) */\n      mload(0x40)\n      dup4\n      0xffffffff\n      and\n      0xe0\n      shl\n      dup2\n      mstore\n      0x04\n      add\n      tag_69\n      swap3\n      swap2\n      swap1\n      tag_70\n      jump\t// in\n    tag_69:\n      0x20\n      mload(0x40)\n      dup1\n      dup4\n      sub\n      dup2\n      0x00\n      dup8\n      gas\n      call\n      iszero\n      dup1\n      iszero\n      tag_72\n      jumpi\n      returndatasize\n      0x00\n      dup1\n      returndatacopy\n      revert(0x00, returndatasize)\n    tag_72:\n      pop\n      pop\n      pop\n      pop\n      mload(0x40)\n      returndatasize\n      not(0x1f)\n      0x1f\n      dup3\n      add\n      and\n      dup3\n      add\n      dup1\n      0x40\n      mstore\n      pop\n      dup2\n      add\n      swap1\n      tag_73\n      swap2\n      swap1\n      tag_74\n      jump\t// in\n    tag_73:\n      pop\n        /* \"contracts/DeFi/CSAMM2.sol\":3380:3448  if (d0 > 0) {... */\n    tag_68:\n        /* \"contracts/DeFi/CSAMM2.sol\":3466:3467  0 */\n      0x00\n        /* \"contracts/DeFi/CSAMM2.sol\":3461:3463  d1 */\n      dup2\n        /* \"contracts/DeFi/CSAMM2.sol\":3461:3467  d1 > 0 */\n      gt\n        /* \"contracts/DeFi/CSAMM2.sol\":3457:3525  if (d1 > 0) {... */\n      iszero\n      tag_75\n      jumpi\n        /* \"contracts/DeFi/CSAMM2.sol\":3483:3489  token1 */\n      immutable(\"0xe4b1702d9298fee62dfeccc57d322a463ad55ca201256d01f62b45b2e1c21c10\")\n        /* \"contracts/DeFi/CSAMM2.sol\":3483:3498  token1.transfer */\n      0xffffffffffffffffffffffffffffffffffffffff\n      and\n      0xa9059cbb\n        /* \"contracts/DeFi/CSAMM2.sol\":3499:3509  msg.sender */\n      caller\n        /* \"contracts/DeFi/CSAMM2.sol\":3511:3513  d1 */\n      dup4\n        /* \"contracts/DeFi/CSAMM2.sol\":3483:3514  token1.transfer(msg.sender, d1) */\n      mload(0x40)\n      dup4\n      0xffffffff\n      and\n      0xe0\n      shl\n      dup2\n      mstore\n      0x04\n      add\n      tag_76\n      swap3\n      swap2\n      swap1\n      tag_70\n      jump\t// in\n    tag_76:\n      0x20\n      mload(0x40)\n      dup1\n      dup4\n      sub\n      dup2\n      0x00\n      dup8\n      gas\n      call\n      iszero\n      dup1\n      iszero\n      tag_78\n      jumpi\n      returndatasize\n      0x00\n      dup1\n      returndatacopy\n      revert(0x00, returndatasize)\n    tag_78:\n      pop\n      pop\n      pop\n      pop\n      mload(0x40)\n      returndatasize\n      not(0x1f)\n      0x1f\n      dup3\n      add\n      and\n      dup3\n      add\n      dup1\n      0x40\n      mstore\n      pop\n      dup2\n      add\n      swap1\n      tag_79\n      swap2\n      swap1\n      tag_74\n      jump\t// in\n    tag_79:\n      pop\n        /* \"contracts/DeFi/CSAMM2.sol\":3457:3525  if (d1 > 0) {... */\n    tag_75:\n        /* \"contracts/DeFi/CSAMM2.sol\":2834:3531  function removeLiquidity(uint _shares) external returns (uint d0, uint d1) {... */\n      swap2\n      pop\n      swap2\n      jump\t// out\n        /* \"contracts/DeFi/CSAMM2.sol\":1936:2828  function addLiquidity(uint _amount0, uint _amount1) external returns (uint shares) {... */\n    tag_41:\n        /* \"contracts/DeFi/CSAMM2.sol\":2006:2017  uint shares */\n      0x00\n        /* \"contracts/DeFi/CSAMM2.sol\":2029:2035  token0 */\n      immutable(\"0xceebf77a833b30520287ddd9478ff51abbdffa30aa90a8d655dba0e8a79ce0c1\")\n        /* \"contracts/DeFi/CSAMM2.sol\":2029:2048  token0.transferFrom */\n      0xffffffffffffffffffffffffffffffffffffffff\n      and\n      0x23b872dd\n        /* \"contracts/DeFi/CSAMM2.sol\":2049:2059  msg.sender */\n      caller\n        /* \"contracts/DeFi/CSAMM2.sol\":2069:2073  this */\n      address\n        /* \"contracts/DeFi/CSAMM2.sol\":2076:2084  _amount0 */\n      dup7\n        /* \"contracts/DeFi/CSAMM2.sol\":2029:2085  token0.transferFrom(msg.sender, address(this), _amount0) */\n      mload(0x40)\n      dup5\n      0xffffffff\n      and\n      0xe0\n      shl\n      dup2\n      mstore\n      0x04\n      add\n      tag_81\n      swap4\n      swap3\n      swap2\n      swap1\n      tag_82\n      jump\t// in\n    tag_81:\n      0x20\n      mload(0x40)\n      dup1\n      dup4\n      sub\n      dup2\n      0x00\n      dup8\n      gas\n      call\n      iszero\n      dup1\n      iszero\n      tag_84\n      jumpi\n      returndatasize\n      0x00\n      dup1\n      returndatacopy\n      revert(0x00, returndatasize)\n    tag_84:\n      pop\n      pop\n      pop\n      pop\n      mload(0x40)\n      returndatasize\n      not(0x1f)\n      0x1f\n      dup3\n      add\n      and\n      dup3\n      add\n      dup1\n      0x40\n      mstore\n      pop\n      dup2\n      add\n      swap1\n      tag_85\n      swap2\n      swap1\n      tag_74\n      jump\t// in\n    tag_85:\n      pop\n        /* \"contracts/DeFi/CSAMM2.sol\":2095:2101  token1 */\n      immutable(\"0xe4b1702d9298fee62dfeccc57d322a463ad55ca201256d01f62b45b2e1c21c10\")\n        /* \"contracts/DeFi/CSAMM2.sol\":2095:2114  token1.transferFrom */\n      0xffffffffffffffffffffffffffffffffffffffff\n      and\n      0x23b872dd\n        /* \"contracts/DeFi/CSAMM2.sol\":2115:2125  msg.sender */\n      caller\n        /* \"contracts/DeFi/CSAMM2.sol\":2135:2139  this */\n      address\n        /* \"contracts/DeFi/CSAMM2.sol\":2142:2150  _amount1 */\n      dup6\n        /* \"contracts/DeFi/CSAMM2.sol\":2095:2151  token1.transferFrom(msg.sender, address(this), _amount1) */\n      mload(0x40)\n      dup5\n      0xffffffff\n      and\n      0xe0\n      shl\n      dup2\n      mstore\n      0x04\n      add\n      tag_86\n      swap4\n      swap3\n      swap2\n      swap1\n      tag_82\n      jump\t// in\n    tag_86:\n      0x20\n      mload(0x40)\n      dup1\n      dup4\n      sub\n      dup2\n      0x00\n      dup8\n      gas\n      call\n      iszero\n      dup1\n      iszero\n      tag_88\n      jumpi\n      returndatasize\n      0x00\n      dup1\n      returndatacopy\n      revert(0x00, returndatasize)\n    tag_88:\n      pop\n      pop\n      pop\n      pop\n      mload(0x40)\n      returndatasize\n      not(0x1f)\n      0x1f\n      dup3\n      add\n      and\n      dup3\n      add\n      dup1\n      0x40\n      mstore\n      pop\n      dup2\n      add\n      swap1\n      tag_89\n      swap2\n      swap1\n      tag_74\n      jump\t// in\n    tag_89:\n      pop\n        /* \"contracts/DeFi/CSAMM2.sol\":2162:2171  uint bal0 */\n      0x00\n        /* \"contracts/DeFi/CSAMM2.sol\":2174:2180  token0 */\n      immutable(\"0xceebf77a833b30520287ddd9478ff51abbdffa30aa90a8d655dba0e8a79ce0c1\")\n        /* \"contracts/DeFi/CSAMM2.sol\":2174:2190  token0.balanceOf */\n      0xffffffffffffffffffffffffffffffffffffffff\n      and\n      0x70a08231\n        /* \"contracts/DeFi/CSAMM2.sol\":2199:2203  this */\n      address\n        /* \"contracts/DeFi/CSAMM2.sol\":2174:2205  token0.balanceOf(address(this)) */\n      mload(0x40)\n      dup3\n      0xffffffff\n      and\n      0xe0\n      shl\n      dup2\n      mstore\n      0x04\n      add\n      tag_90\n      swap2\n      swap1\n      tag_91\n      jump\t// in\n    tag_90:\n      0x20\n      mload(0x40)\n      dup1\n      dup4\n      sub\n      dup2\n      dup7\n      gas\n      staticcall\n      iszero\n      dup1\n      iszero\n      tag_93\n      jumpi\n      returndatasize\n      0x00\n      dup1\n      returndatacopy\n      revert(0x00, returndatasize)\n    tag_93:\n      pop\n      pop\n      pop\n      pop\n      mload(0x40)\n      returndatasize\n      not(0x1f)\n      0x1f\n      dup3\n      add\n      and\n      dup3\n      add\n      dup1\n      0x40\n      mstore\n      pop\n      dup2\n      add\n      swap1\n      tag_94\n      swap2\n      swap1\n      tag_95\n      jump\t// in\n    tag_94:\n        /* \"contracts/DeFi/CSAMM2.sol\":2162:2205  uint bal0 = token0.balanceOf(address(this)) */\n      swap1\n      pop\n        /* \"contracts/DeFi/CSAMM2.sol\":2215:2224  uint bal1 */\n      0x00\n        /* \"contracts/DeFi/CSAMM2.sol\":2227:2233  token1 */\n      immutable(\"0xe4b1702d9298fee62dfeccc57d322a463ad55ca201256d01f62b45b2e1c21c10\")\n        /* \"contracts/DeFi/CSAMM2.sol\":2227:2243  token1.balanceOf */\n      0xffffffffffffffffffffffffffffffffffffffff\n      and\n      0x70a08231\n        /* \"contracts/DeFi/CSAMM2.sol\":2252:2256  this */\n      address\n        /* \"contracts/DeFi/CSAMM2.sol\":2227:2258  token1.balanceOf(address(this)) */\n      mload(0x40)\n      dup3\n      0xffffffff\n      and\n      0xe0\n      shl\n      dup2\n      mstore\n      0x04\n      add\n      tag_96\n      swap2\n      swap1\n      tag_91\n      jump\t// in\n    tag_96:\n      0x20\n      mload(0x40)\n      dup1\n      dup4\n      sub\n      dup2\n      dup7\n      gas\n      staticcall\n      iszero\n      dup1\n      iszero\n      tag_98\n      jumpi\n      returndatasize\n      0x00\n      dup1\n      returndatacopy\n      revert(0x00, returndatasize)\n    tag_98:\n      pop\n      pop\n      pop\n      pop\n      mload(0x40)\n      returndatasize\n      not(0x1f)\n      0x1f\n      dup3\n      add\n      and\n      dup3\n      add\n      dup1\n      0x40\n      mstore\n      pop\n      dup2\n      add\n      swap1\n      tag_99\n      swap2\n      swap1\n      tag_95\n      jump\t// in\n    tag_99:\n        /* \"contracts/DeFi/CSAMM2.sol\":2215:2258  uint bal1 = token1.balanceOf(address(this)) */\n      swap1\n      pop\n        /* \"contracts/DeFi/CSAMM2.sol\":2307:2314  uint d0 */\n      0x00\n        /* \"contracts/DeFi/CSAMM2.sol\":2324:2332  reserve0 */\n      dup1\n      sload\n        /* \"contracts/DeFi/CSAMM2.sol\":2317:2321  bal0 */\n      dup4\n        /* \"contracts/DeFi/CSAMM2.sol\":2317:2332  bal0 - reserve0 */\n      tag_100\n      swap2\n      swap1\n      tag_65\n      jump\t// in\n    tag_100:\n        /* \"contracts/DeFi/CSAMM2.sol\":2307:2332  uint d0 = bal0 - reserve0 */\n      swap1\n      pop\n        /* \"contracts/DeFi/CSAMM2.sol\":2342:2349  uint d1 */\n      0x00\n        /* \"contracts/DeFi/CSAMM2.sol\":2359:2367  reserve1 */\n      sload(0x01)\n        /* \"contracts/DeFi/CSAMM2.sol\":2352:2356  bal1 */\n      dup4\n        /* \"contracts/DeFi/CSAMM2.sol\":2352:2367  bal1 - reserve1 */\n      tag_101\n      swap2\n      swap1\n      tag_65\n      jump\t// in\n    tag_101:\n        /* \"contracts/DeFi/CSAMM2.sol\":2342:2367  uint d1 = bal1 - reserve1 */\n      swap1\n      pop\n        /* \"contracts/DeFi/CSAMM2.sol\":2580:2581  0 */\n      0x00\n        /* \"contracts/DeFi/CSAMM2.sol\":2565:2576  totalSupply */\n      sload(0x02)\n        /* \"contracts/DeFi/CSAMM2.sol\":2565:2581  totalSupply == 0 */\n      sub\n        /* \"contracts/DeFi/CSAMM2.sol\":2561:2713  if (totalSupply == 0) {... */\n      tag_102\n      jumpi\n        /* \"contracts/DeFi/CSAMM2.sol\":2611:2613  d1 */\n      dup1\n        /* \"contracts/DeFi/CSAMM2.sol\":2606:2608  d0 */\n      dup3\n        /* \"contracts/DeFi/CSAMM2.sol\":2606:2613  d0 + d1 */\n      tag_103\n      swap2\n      swap1\n      tag_104\n      jump\t// in\n    tag_103:\n        /* \"contracts/DeFi/CSAMM2.sol\":2597:2613  shares = d0 + d1 */\n      swap5\n      pop\n        /* \"contracts/DeFi/CSAMM2.sol\":2561:2713  if (totalSupply == 0) {... */\n      jump(tag_105)\n    tag_102:\n        /* \"contracts/DeFi/CSAMM2.sol\":2693:2701  reserve1 */\n      sload(0x01)\n        /* \"contracts/DeFi/CSAMM2.sol\":2682:2690  reserve0 */\n      sload(0x00)\n        /* \"contracts/DeFi/CSAMM2.sol\":2682:2701  reserve0 + reserve1 */\n      tag_106\n      swap2\n      swap1\n      tag_104\n      jump\t// in\n    tag_106:\n        /* \"contracts/DeFi/CSAMM2.sol\":2666:2677  totalSupply */\n      sload(0x02)\n        /* \"contracts/DeFi/CSAMM2.sol\":2660:2662  d1 */\n      dup3\n        /* \"contracts/DeFi/CSAMM2.sol\":2655:2657  d0 */\n      dup5\n        /* \"contracts/DeFi/CSAMM2.sol\":2655:2662  d0 + d1 */\n      tag_107\n      swap2\n      swap1\n      tag_104\n      jump\t// in\n    tag_107:\n        /* \"contracts/DeFi/CSAMM2.sol\":2654:2677  (d0 + d1) * totalSupply */\n      tag_108\n      swap2\n      swap1\n      tag_56\n      jump\t// in\n    tag_108:\n        /* \"contracts/DeFi/CSAMM2.sol\":2653:2702  ((d0 + d1) * totalSupply) / (reserve0 + reserve1) */\n      tag_109\n      swap2\n      swap1\n      tag_58\n      jump\t// in\n    tag_109:\n        /* \"contracts/DeFi/CSAMM2.sol\":2644:2702  shares = ((d0 + d1) * totalSupply) / (reserve0 + reserve1) */\n      swap5\n      pop\n        /* \"contracts/DeFi/CSAMM2.sol\":2561:2713  if (totalSupply == 0) {... */\n    tag_105:\n        /* \"contracts/DeFi/CSAMM2.sol\":2740:2741  0 */\n      0x00\n        /* \"contracts/DeFi/CSAMM2.sol\":2731:2737  shares */\n      dup6\n        /* \"contracts/DeFi/CSAMM2.sol\":2731:2741  shares > 0 */\n      gt\n        /* \"contracts/DeFi/CSAMM2.sol\":2723:2756  require(shares > 0, \"shares = 0\") */\n      tag_110\n      jumpi\n      mload(0x40)\n      0x08c379a000000000000000000000000000000000000000000000000000000000\n      dup2\n      mstore\n      0x04\n      add\n      tag_111\n      swap1\n      tag_112\n      jump\t// in\n    tag_111:\n      mload(0x40)\n      dup1\n      swap2\n      sub\n      swap1\n      revert\n    tag_110:\n        /* \"contracts/DeFi/CSAMM2.sol\":2766:2791  _mint(msg.sender, shares) */\n      tag_113\n        /* \"contracts/DeFi/CSAMM2.sol\":2772:2782  msg.sender */\n      caller\n        /* \"contracts/DeFi/CSAMM2.sol\":2784:2790  shares */\n      dup7\n        /* \"contracts/DeFi/CSAMM2.sol\":2766:2771  _mint */\n      tag_114\n        /* \"contracts/DeFi/CSAMM2.sol\":2766:2791  _mint(msg.sender, shares) */\n      jump\t// in\n    tag_113:\n        /* \"contracts/DeFi/CSAMM2.sol\":2802:2821  _update(bal0, bal1) */\n      tag_115\n        /* \"contracts/DeFi/CSAMM2.sol\":2810:2814  bal0 */\n      dup5\n        /* \"contracts/DeFi/CSAMM2.sol\":2816:2820  bal1 */\n      dup5\n        /* \"contracts/DeFi/CSAMM2.sol\":2802:2809  _update */\n      tag_67\n        /* \"contracts/DeFi/CSAMM2.sol\":2802:2821  _update(bal0, bal1) */\n      jump\t// in\n    tag_115:\n        /* \"contracts/DeFi/CSAMM2.sol\":2019:2828  {... */\n      pop\n      pop\n      pop\n      pop\n        /* \"contracts/DeFi/CSAMM2.sol\":1936:2828  function addLiquidity(uint _amount0, uint _amount1) external returns (uint shares) {... */\n      swap3\n      swap2\n      pop\n      pop\n      jump\t// out\n        /* \"contracts/DeFi/CSAMM2.sol\":941:1930  function swap(address _tokenIn, uint _amountIn) external returns (uint amountOut) {... */\n    tag_46:\n        /* \"contracts/DeFi/CSAMM2.sol\":1007:1021  uint amountOut */\n      0x00\n        /* \"contracts/DeFi/CSAMM2.sol\":1061:1067  token0 */\n      immutable(\"0xceebf77a833b30520287ddd9478ff51abbdffa30aa90a8d655dba0e8a79ce0c1\")\n        /* \"contracts/DeFi/CSAMM2.sol\":1041:1068  _tokenIn == address(token0) */\n      0xffffffffffffffffffffffffffffffffffffffff\n      and\n        /* \"contracts/DeFi/CSAMM2.sol\":1041:1049  _tokenIn */\n      dup4\n        /* \"contracts/DeFi/CSAMM2.sol\":1041:1068  _tokenIn == address(token0) */\n      0xffffffffffffffffffffffffffffffffffffffff\n      and\n      eq\n        /* \"contracts/DeFi/CSAMM2.sol\":1041:1099  _tokenIn == address(token0) || _tokenIn == address(token1) */\n      dup1\n      tag_117\n      jumpi\n      pop\n        /* \"contracts/DeFi/CSAMM2.sol\":1092:1098  token1 */\n      immutable(\"0xe4b1702d9298fee62dfeccc57d322a463ad55ca201256d01f62b45b2e1c21c10\")\n        /* \"contracts/DeFi/CSAMM2.sol\":1072:1099  _tokenIn == address(token1) */\n      0xffffffffffffffffffffffffffffffffffffffff\n      and\n        /* \"contracts/DeFi/CSAMM2.sol\":1072:1080  _tokenIn */\n      dup4\n        /* \"contracts/DeFi/CSAMM2.sol\":1072:1099  _tokenIn == address(token1) */\n      0xffffffffffffffffffffffffffffffffffffffff\n      and\n      eq\n        /* \"contracts/DeFi/CSAMM2.sol\":1041:1099  _tokenIn == address(token0) || _tokenIn == address(token1) */\n    tag_117:\n        /* \"contracts/DeFi/CSAMM2.sol\":1033:1117  require(_tokenIn == address(token0) || _tokenIn == address(token1), \"invalid token\") */\n      tag_118\n      jumpi\n      mload(0x40)\n      0x08c379a000000000000000000000000000000000000000000000000000000000\n      dup2\n      mstore\n      0x04\n      add\n      tag_119\n      swap1\n      tag_120\n      jump\t// in\n    tag_119:\n      mload(0x40)\n      dup1\n      swap2\n      sub\n      swap1\n      revert\n    tag_118:\n        /* \"contracts/DeFi/CSAMM2.sol\":1128:1141  bool isToken0 */\n      0x00\n        /* \"contracts/DeFi/CSAMM2.sol\":1164:1170  token0 */\n      immutable(\"0xceebf77a833b30520287ddd9478ff51abbdffa30aa90a8d655dba0e8a79ce0c1\")\n        /* \"contracts/DeFi/CSAMM2.sol\":1144:1171  _tokenIn == address(token0) */\n      0xffffffffffffffffffffffffffffffffffffffff\n      and\n        /* \"contracts/DeFi/CSAMM2.sol\":1144:1152  _tokenIn */\n      dup5\n        /* \"contracts/DeFi/CSAMM2.sol\":1144:1171  _tokenIn == address(token0) */\n      0xffffffffffffffffffffffffffffffffffffffff\n      and\n      eq\n        /* \"contracts/DeFi/CSAMM2.sol\":1128:1171  bool isToken0 = _tokenIn == address(token0) */\n      swap1\n      pop\n        /* \"contracts/DeFi/CSAMM2.sol\":1183:1197  IERC20 tokenIn */\n      0x00\n        /* \"contracts/DeFi/CSAMM2.sol\":1199:1214  IERC20 tokenOut */\n      dup1\n        /* \"contracts/DeFi/CSAMM2.sol\":1216:1226  uint resIn */\n      0x00\n        /* \"contracts/DeFi/CSAMM2.sol\":1228:1239  uint resOut */\n      dup1\n        /* \"contracts/DeFi/CSAMM2.sol\":1243:1251  isToken0 */\n      dup5\n        /* \"contracts/DeFi/CSAMM2.sol\":1243:1338  isToken0 ? ... */\n      tag_121\n      jumpi\n        /* \"contracts/DeFi/CSAMM2.sol\":1303:1309  token1 */\n      immutable(\"0xe4b1702d9298fee62dfeccc57d322a463ad55ca201256d01f62b45b2e1c21c10\")\n        /* \"contracts/DeFi/CSAMM2.sol\":1311:1317  token0 */\n      immutable(\"0xceebf77a833b30520287ddd9478ff51abbdffa30aa90a8d655dba0e8a79ce0c1\")\n        /* \"contracts/DeFi/CSAMM2.sol\":1319:1327  reserve1 */\n      sload(0x01)\n        /* \"contracts/DeFi/CSAMM2.sol\":1329:1337  reserve0 */\n      sload(0x00)\n        /* \"contracts/DeFi/CSAMM2.sol\":1243:1338  isToken0 ? ... */\n      jump(tag_122)\n    tag_121:\n        /* \"contracts/DeFi/CSAMM2.sol\":1264:1270  token0 */\n      immutable(\"0xceebf77a833b30520287ddd9478ff51abbdffa30aa90a8d655dba0e8a79ce0c1\")\n        /* \"contracts/DeFi/CSAMM2.sol\":1272:1278  token1 */\n      immutable(\"0xe4b1702d9298fee62dfeccc57d322a463ad55ca201256d01f62b45b2e1c21c10\")\n        /* \"contracts/DeFi/CSAMM2.sol\":1280:1288  reserve0 */\n      sload(0x00)\n        /* \"contracts/DeFi/CSAMM2.sol\":1290:1298  reserve1 */\n      sload(0x01)\n        /* \"contracts/DeFi/CSAMM2.sol\":1243:1338  isToken0 ? ... */\n    tag_122:\n        /* \"contracts/DeFi/CSAMM2.sol\":1182:1338  (IERC20 tokenIn, IERC20 tokenOut, uint resIn, uint resOut) = isToken0 ? ... */\n      swap4\n      pop\n      swap4\n      pop\n      swap4\n      pop\n      swap4\n      pop\n        /* \"contracts/DeFi/CSAMM2.sol\":1379:1386  tokenIn */\n      dup4\n        /* \"contracts/DeFi/CSAMM2.sol\":1379:1399  tokenIn.transferFrom */\n      0xffffffffffffffffffffffffffffffffffffffff\n      and\n      0x23b872dd\n        /* \"contracts/DeFi/CSAMM2.sol\":1400:1410  msg.sender */\n      caller\n        /* \"contracts/DeFi/CSAMM2.sol\":1420:1424  this */\n      address\n        /* \"contracts/DeFi/CSAMM2.sol\":1427:1436  _amountIn */\n      dup11\n        /* \"contracts/DeFi/CSAMM2.sol\":1379:1437  tokenIn.transferFrom(msg.sender, address(this), _amountIn) */\n      mload(0x40)\n      dup5\n      0xffffffff\n      and\n      0xe0\n      shl\n      dup2\n      mstore\n      0x04\n      add\n      tag_123\n      swap4\n      swap3\n      swap2\n      swap1\n      tag_82\n      jump\t// in\n    tag_123:\n      0x20\n      mload(0x40)\n      dup1\n      dup4\n      sub\n      dup2\n      0x00\n      dup8\n      gas\n      call\n      iszero\n      dup1\n      iszero\n      tag_125\n      jumpi\n      returndatasize\n      0x00\n      dup1\n      returndatacopy\n      revert(0x00, returndatasize)\n    tag_125:\n      pop\n      pop\n      pop\n      pop\n      mload(0x40)\n      returndatasize\n      not(0x1f)\n      0x1f\n      dup3\n      add\n      and\n      dup3\n      add\n      dup1\n      0x40\n      mstore\n      pop\n      dup2\n      add\n      swap1\n      tag_126\n      swap2\n      swap1\n      tag_74\n      jump\t// in\n    tag_126:\n      pop\n        /* \"contracts/DeFi/CSAMM2.sol\":1447:1460  uint amountIn */\n      0x00\n        /* \"contracts/DeFi/CSAMM2.sol\":1498:1503  resIn */\n      dup3\n        /* \"contracts/DeFi/CSAMM2.sol\":1463:1470  tokenIn */\n      dup6\n        /* \"contracts/DeFi/CSAMM2.sol\":1463:1480  tokenIn.balanceOf */\n      0xffffffffffffffffffffffffffffffffffffffff\n      and\n      0x70a08231\n        /* \"contracts/DeFi/CSAMM2.sol\":1489:1493  this */\n      address\n        /* \"contracts/DeFi/CSAMM2.sol\":1463:1495  tokenIn.balanceOf(address(this)) */\n      mload(0x40)\n      dup3\n      0xffffffff\n      and\n      0xe0\n      shl\n      dup2\n      mstore\n      0x04\n      add\n      tag_127\n      swap2\n      swap1\n      tag_91\n      jump\t// in\n    tag_127:\n      0x20\n      mload(0x40)\n      dup1\n      dup4\n      sub\n      dup2\n      dup7\n      gas\n      staticcall\n      iszero\n      dup1\n      iszero\n      tag_129\n      jumpi\n      returndatasize\n      0x00\n      dup1\n      returndatacopy\n      revert(0x00, returndatasize)\n    tag_129:\n      pop\n      pop\n      pop\n      pop\n      mload(0x40)\n      returndatasize\n      not(0x1f)\n      0x1f\n      dup3\n      add\n      and\n      dup3\n      add\n      dup1\n      0x40\n      mstore\n      pop\n      dup2\n      add\n      swap1\n      tag_130\n      swap2\n      swap1\n      tag_95\n      jump\t// in\n    tag_130:\n        /* \"contracts/DeFi/CSAMM2.sol\":1463:1503  tokenIn.balanceOf(address(this)) - resIn */\n      tag_131\n      swap2\n      swap1\n      tag_65\n      jump\t// in\n    tag_131:\n        /* \"contracts/DeFi/CSAMM2.sol\":1447:1503  uint amountIn = tokenIn.balanceOf(address(this)) - resIn */\n      swap1\n      pop\n        /* \"contracts/DeFi/CSAMM2.sol\":1634:1638  1000 */\n      0x03e8\n        /* \"contracts/DeFi/CSAMM2.sol\":1627:1630  997 */\n      0x03e5\n        /* \"contracts/DeFi/CSAMM2.sol\":1616:1624  amountIn */\n      dup3\n        /* \"contracts/DeFi/CSAMM2.sol\":1616:1630  amountIn * 997 */\n      tag_132\n      swap2\n      swap1\n      tag_56\n      jump\t// in\n    tag_132:\n        /* \"contracts/DeFi/CSAMM2.sol\":1615:1638  (amountIn * 997) / 1000 */\n      tag_133\n      swap2\n      swap1\n      tag_58\n      jump\t// in\n    tag_133:\n        /* \"contracts/DeFi/CSAMM2.sol\":1603:1638  amountOut = (amountIn * 997) / 1000 */\n      swap7\n      pop\n        /* \"contracts/DeFi/CSAMM2.sol\":1690:1699  uint res0 */\n      0x00\n        /* \"contracts/DeFi/CSAMM2.sol\":1701:1710  uint res1 */\n      dup1\n        /* \"contracts/DeFi/CSAMM2.sol\":1714:1722  isToken0 */\n      dup8\n        /* \"contracts/DeFi/CSAMM2.sol\":1714:1812  isToken0 ?... */\n      tag_134\n      jumpi\n        /* \"contracts/DeFi/CSAMM2.sol\":1784:1793  amountOut */\n      dup9\n        /* \"contracts/DeFi/CSAMM2.sol\":1775:1781  resOut */\n      dup5\n        /* \"contracts/DeFi/CSAMM2.sol\":1775:1793  resOut - amountOut */\n      tag_135\n      swap2\n      swap1\n      tag_65\n      jump\t// in\n    tag_135:\n        /* \"contracts/DeFi/CSAMM2.sol\":1803:1811  amountIn */\n      dup4\n        /* \"contracts/DeFi/CSAMM2.sol\":1795:1800  resIn */\n      dup7\n        /* \"contracts/DeFi/CSAMM2.sol\":1795:1811  resIn + amountIn */\n      tag_136\n      swap2\n      swap1\n      tag_104\n      jump\t// in\n    tag_136:\n        /* \"contracts/DeFi/CSAMM2.sol\":1714:1812  isToken0 ?... */\n      jump(tag_137)\n    tag_134:\n        /* \"contracts/DeFi/CSAMM2.sol\":1742:1750  amountIn */\n      dup3\n        /* \"contracts/DeFi/CSAMM2.sol\":1734:1739  resIn */\n      dup6\n        /* \"contracts/DeFi/CSAMM2.sol\":1734:1750  resIn + amountIn */\n      tag_138\n      swap2\n      swap1\n      tag_104\n      jump\t// in\n    tag_138:\n        /* \"contracts/DeFi/CSAMM2.sol\":1761:1770  amountOut */\n      dup10\n        /* \"contracts/DeFi/CSAMM2.sol\":1752:1758  resOut */\n      dup6\n        /* \"contracts/DeFi/CSAMM2.sol\":1752:1770  resOut - amountOut */\n      tag_139\n      swap2\n      swap1\n      tag_65\n      jump\t// in\n    tag_139:\n        /* \"contracts/DeFi/CSAMM2.sol\":1714:1812  isToken0 ?... */\n    tag_137:\n        /* \"contracts/DeFi/CSAMM2.sol\":1689:1812  (uint res0, uint res1) = isToken0 ?... */\n      swap2\n      pop\n      swap2\n      pop\n        /* \"contracts/DeFi/CSAMM2.sol\":1822:1841  _update(res0, res1) */\n      tag_140\n        /* \"contracts/DeFi/CSAMM2.sol\":1830:1834  res0 */\n      dup3\n        /* \"contracts/DeFi/CSAMM2.sol\":1836:1840  res1 */\n      dup3\n        /* \"contracts/DeFi/CSAMM2.sol\":1822:1829  _update */\n      tag_67\n        /* \"contracts/DeFi/CSAMM2.sol\":1822:1841  _update(res0, res1) */\n      jump\t// in\n    tag_140:\n        /* \"contracts/DeFi/CSAMM2.sol\":1883:1891  tokenOut */\n      dup6\n        /* \"contracts/DeFi/CSAMM2.sol\":1883:1900  tokenOut.transfer */\n      0xffffffffffffffffffffffffffffffffffffffff\n      and\n      0xa9059cbb\n        /* \"contracts/DeFi/CSAMM2.sol\":1901:1911  msg.sender */\n      caller\n        /* \"contracts/DeFi/CSAMM2.sol\":1913:1922  amountOut */\n      dup12\n        /* \"contracts/DeFi/CSAMM2.sol\":1883:1923  tokenOut.transfer(msg.sender, amountOut) */\n      mload(0x40)\n      dup4\n      0xffffffff\n      and\n      0xe0\n      shl\n      dup2\n      mstore\n      0x04\n      add\n      tag_141\n      swap3\n      swap2\n      swap1\n      tag_70\n      jump\t// in\n    tag_141:\n      0x20\n      mload(0x40)\n      dup1\n      dup4\n      sub\n      dup2\n      0x00\n      dup8\n      gas\n      call\n      iszero\n      dup1\n      iszero\n      tag_143\n      jumpi\n      returndatasize\n      0x00\n      dup1\n      returndatacopy\n      revert(0x00, returndatasize)\n    tag_143:\n      pop\n      pop\n      pop\n      pop\n      mload(0x40)\n      returndatasize\n      not(0x1f)\n      0x1f\n      dup3\n      add\n      and\n      dup3\n      add\n      dup1\n      0x40\n      mstore\n      pop\n      dup2\n      add\n      swap1\n      tag_144\n      swap2\n      swap1\n      tag_74\n      jump\t// in\n    tag_144:\n      pop\n        /* \"contracts/DeFi/CSAMM2.sol\":1023:1930  {... */\n      pop\n      pop\n      pop\n      pop\n      pop\n      pop\n      pop\n      pop\n        /* \"contracts/DeFi/CSAMM2.sol\":941:1930  function swap(address _tokenIn, uint _amountIn) external returns (uint amountOut) {... */\n      swap3\n      swap2\n      pop\n      pop\n      jump\t// out\n        /* \"contracts/DeFi/CSAMM2.sol\":140:170  IERC20 public immutable token1 */\n    tag_49:\n      immutable(\"0xe4b1702d9298fee62dfeccc57d322a463ad55ca201256d01f62b45b2e1c21c10\")\n      dup2\n      jump\t// out\n        /* \"contracts/DeFi/CSAMM2.sol\":692:820  function _burn(address _from, uint _amount) private {... */\n    tag_62:\n        /* \"contracts/DeFi/CSAMM2.sol\":774:781  _amount */\n      dup1\n        /* \"contracts/DeFi/CSAMM2.sol\":754:763  balanceOf */\n      0x03\n        /* \"contracts/DeFi/CSAMM2.sol\":754:770  balanceOf[_from] */\n      0x00\n        /* \"contracts/DeFi/CSAMM2.sol\":764:769  _from */\n      dup5\n        /* \"contracts/DeFi/CSAMM2.sol\":754:770  balanceOf[_from] */\n      0xffffffffffffffffffffffffffffffffffffffff\n      and\n      0xffffffffffffffffffffffffffffffffffffffff\n      and\n      dup2\n      mstore\n      0x20\n      add\n      swap1\n      dup2\n      mstore\n      0x20\n      add\n      0x00\n      keccak256\n      0x00\n        /* \"contracts/DeFi/CSAMM2.sol\":754:781  balanceOf[_from] -= _amount */\n      dup3\n      dup3\n      sload\n      tag_146\n      swap2\n      swap1\n      tag_65\n      jump\t// in\n    tag_146:\n      swap3\n      pop\n      pop\n      dup2\n      swap1\n      sstore\n      pop\n        /* \"contracts/DeFi/CSAMM2.sol\":806:813  _amount */\n      dup1\n        /* \"contracts/DeFi/CSAMM2.sol\":791:802  totalSupply */\n      0x02\n      0x00\n        /* \"contracts/DeFi/CSAMM2.sol\":791:813  totalSupply -= _amount */\n      dup3\n      dup3\n      sload\n      tag_147\n      swap2\n      swap1\n      tag_65\n      jump\t// in\n    tag_147:\n      swap3\n      pop\n      pop\n      dup2\n      swap1\n      sstore\n      pop\n        /* \"contracts/DeFi/CSAMM2.sol\":692:820  function _burn(address _from, uint _amount) private {... */\n      pop\n      pop\n      jump\t// out\n        /* \"contracts/DeFi/CSAMM2.sol\":826:935  function _update (uint _res0, uint _res1) private {... */\n    tag_67:\n        /* \"contracts/DeFi/CSAMM2.sol\":897:902  _res0 */\n      dup2\n        /* \"contracts/DeFi/CSAMM2.sol\":886:894  reserve0 */\n      0x00\n        /* \"contracts/DeFi/CSAMM2.sol\":886:902  reserve0 = _res0 */\n      dup2\n      swap1\n      sstore\n      pop\n        /* \"contracts/DeFi/CSAMM2.sol\":923:928  _res1 */\n      dup1\n        /* \"contracts/DeFi/CSAMM2.sol\":912:920  reserve1 */\n      0x01\n        /* \"contracts/DeFi/CSAMM2.sol\":912:928  reserve1 = _res1 */\n      dup2\n      swap1\n      sstore\n      pop\n        /* \"contracts/DeFi/CSAMM2.sol\":826:935  function _update (uint _res0, uint _res1) private {... */\n      pop\n      pop\n      jump\t// out\n        /* \"contracts/DeFi/CSAMM2.sol\":562:686  function _mint(address _to, uint _amount) private {... */\n    tag_114:\n        /* \"contracts/DeFi/CSAMM2.sol\":640:647  _amount */\n      dup1\n        /* \"contracts/DeFi/CSAMM2.sol\":622:631  balanceOf */\n      0x03\n        /* \"contracts/DeFi/CSAMM2.sol\":622:636  balanceOf[_to] */\n      0x00\n        /* \"contracts/DeFi/CSAMM2.sol\":632:635  _to */\n      dup5\n        /* \"contracts/DeFi/CSAMM2.sol\":622:636  balanceOf[_to] */\n      0xffffffffffffffffffffffffffffffffffffffff\n      and\n      0xffffffffffffffffffffffffffffffffffffffff\n      and\n      dup2\n      mstore\n      0x20\n      add\n      swap1\n      dup2\n      mstore\n      0x20\n      add\n      0x00\n      keccak256\n      0x00\n        /* \"contracts/DeFi/CSAMM2.sol\":622:647  balanceOf[_to] += _amount */\n      dup3\n      dup3\n      sload\n      tag_150\n      swap2\n      swap1\n      tag_104\n      jump\t// in\n    tag_150:\n      swap3\n      pop\n      pop\n      dup2\n      swap1\n      sstore\n      pop\n        /* \"contracts/DeFi/CSAMM2.sol\":672:679  _amount */\n      dup1\n        /* \"contracts/DeFi/CSAMM2.sol\":657:668  totalSupply */\n      0x02\n      0x00\n        /* \"contracts/DeFi/CSAMM2.sol\":657:679  totalSupply += _amount */\n      dup3\n      dup3\n      sload\n      tag_151\n      swap2\n      swap1\n      tag_104\n      jump\t// in\n    tag_151:\n      swap3\n      pop\n      pop\n      dup2\n      swap1\n      sstore\n      pop\n        /* \"contracts/DeFi/CSAMM2.sol\":562:686  function _mint(address _to, uint _amount) private {... */\n      pop\n      pop\n      jump\t// out\n        /* \"#utility.yul\":7:133   */\n    tag_152:\n        /* \"#utility.yul\":44:51   */\n      0x00\n        /* \"#utility.yul\":84:126   */\n      0xffffffffffffffffffffffffffffffffffffffff\n        /* \"#utility.yul\":77:82   */\n      dup3\n        /* \"#utility.yul\":73:127   */\n      and\n        /* \"#utility.yul\":62:127   */\n      swap1\n      pop\n        /* \"#utility.yul\":7:133   */\n      swap2\n      swap1\n      pop\n      jump\t// out\n        /* \"#utility.yul\":139:199   */\n    tag_153:\n        /* \"#utility.yul\":167:170   */\n      0x00\n        /* \"#utility.yul\":188:193   */\n      dup2\n        /* \"#utility.yul\":181:193   */\n      swap1\n      pop\n        /* \"#utility.yul\":139:199   */\n      swap2\n      swap1\n      pop\n      jump\t// out\n        /* \"#utility.yul\":205:347   */\n    tag_154:\n        /* \"#utility.yul\":255:264   */\n      0x00\n        /* \"#utility.yul\":288:341   */\n      tag_186\n        /* \"#utility.yul\":306:340   */\n      tag_187\n        /* \"#utility.yul\":315:339   */\n      tag_188\n        /* \"#utility.yul\":333:338   */\n      dup5\n        /* \"#utility.yul\":315:339   */\n      tag_152\n      jump\t// in\n    tag_188:\n        /* \"#utility.yul\":306:340   */\n      tag_153\n      jump\t// in\n    tag_187:\n        /* \"#utility.yul\":288:341   */\n      tag_152\n      jump\t// in\n    tag_186:\n        /* \"#utility.yul\":275:341   */\n      swap1\n      pop\n        /* \"#utility.yul\":205:347   */\n      swap2\n      swap1\n      pop\n      jump\t// out\n        /* \"#utility.yul\":353:479   */\n    tag_155:\n        /* \"#utility.yul\":403:412   */\n      0x00\n        /* \"#utility.yul\":436:473   */\n      tag_190\n        /* \"#utility.yul\":467:472   */\n      dup3\n        /* \"#utility.yul\":436:473   */\n      tag_154\n      jump\t// in\n    tag_190:\n        /* \"#utility.yul\":423:473   */\n      swap1\n      pop\n        /* \"#utility.yul\":353:479   */\n      swap2\n      swap1\n      pop\n      jump\t// out\n        /* \"#utility.yul\":485:625   */\n    tag_156:\n        /* \"#utility.yul\":549:558   */\n      0x00\n        /* \"#utility.yul\":582:619   */\n      tag_192\n        /* \"#utility.yul\":613:618   */\n      dup3\n        /* \"#utility.yul\":582:619   */\n      tag_155\n      jump\t// in\n    tag_192:\n        /* \"#utility.yul\":569:619   */\n      swap1\n      pop\n        /* \"#utility.yul\":485:625   */\n      swap2\n      swap1\n      pop\n      jump\t// out\n        /* \"#utility.yul\":631:790   */\n    tag_157:\n        /* \"#utility.yul\":732:783   */\n      tag_194\n        /* \"#utility.yul\":777:782   */\n      dup2\n        /* \"#utility.yul\":732:783   */\n      tag_156\n      jump\t// in\n    tag_194:\n        /* \"#utility.yul\":727:730   */\n      dup3\n        /* \"#utility.yul\":720:784   */\n      mstore\n        /* \"#utility.yul\":631:790   */\n      pop\n      pop\n      jump\t// out\n        /* \"#utility.yul\":796:1046   */\n    tag_16:\n        /* \"#utility.yul\":903:907   */\n      0x00\n        /* \"#utility.yul\":941:943   */\n      0x20\n        /* \"#utility.yul\":930:939   */\n      dup3\n        /* \"#utility.yul\":926:944   */\n      add\n        /* \"#utility.yul\":918:944   */\n      swap1\n      pop\n        /* \"#utility.yul\":954:1039   */\n      tag_196\n        /* \"#utility.yul\":1036:1037   */\n      0x00\n        /* \"#utility.yul\":1025:1034   */\n      dup4\n        /* \"#utility.yul\":1021:1038   */\n      add\n        /* \"#utility.yul\":1012:1018   */\n      dup5\n        /* \"#utility.yul\":954:1039   */\n      tag_157\n      jump\t// in\n    tag_196:\n        /* \"#utility.yul\":796:1046   */\n      swap3\n      swap2\n      pop\n      pop\n      jump\t// out\n        /* \"#utility.yul\":1052:1129   */\n    tag_158:\n        /* \"#utility.yul\":1089:1096   */\n      0x00\n        /* \"#utility.yul\":1118:1123   */\n      dup2\n        /* \"#utility.yul\":1107:1123   */\n      swap1\n      pop\n        /* \"#utility.yul\":1052:1129   */\n      swap2\n      swap1\n      pop\n      jump\t// out\n        /* \"#utility.yul\":1135:1253   */\n    tag_159:\n        /* \"#utility.yul\":1222:1246   */\n      tag_199\n        /* \"#utility.yul\":1240:1245   */\n      dup2\n        /* \"#utility.yul\":1222:1246   */\n      tag_158\n      jump\t// in\n    tag_199:\n        /* \"#utility.yul\":1217:1220   */\n      dup3\n        /* \"#utility.yul\":1210:1247   */\n      mstore\n        /* \"#utility.yul\":1135:1253   */\n      pop\n      pop\n      jump\t// out\n        /* \"#utility.yul\":1259:1481   */\n    tag_20:\n        /* \"#utility.yul\":1352:1356   */\n      0x00\n        /* \"#utility.yul\":1390:1392   */\n      0x20\n        /* \"#utility.yul\":1379:1388   */\n      dup3\n        /* \"#utility.yul\":1375:1393   */\n      add\n        /* \"#utility.yul\":1367:1393   */\n      swap1\n      pop\n        /* \"#utility.yul\":1403:1474   */\n      tag_201\n        /* \"#utility.yul\":1471:1472   */\n      0x00\n        /* \"#utility.yul\":1460:1469   */\n      dup4\n        /* \"#utility.yul\":1456:1473   */\n      add\n        /* \"#utility.yul\":1447:1453   */\n      dup5\n        /* \"#utility.yul\":1403:1474   */\n      tag_159\n      jump\t// in\n    tag_201:\n        /* \"#utility.yul\":1259:1481   */\n      swap3\n      swap2\n      pop\n      pop\n      jump\t// out\n        /* \"#utility.yul\":1568:1685   */\n    tag_161:\n        /* \"#utility.yul\":1677:1678   */\n      0x00\n        /* \"#utility.yul\":1674:1675   */\n      dup1\n        /* \"#utility.yul\":1667:1679   */\n      revert\n        /* \"#utility.yul\":1814:1910   */\n    tag_163:\n        /* \"#utility.yul\":1851:1858   */\n      0x00\n        /* \"#utility.yul\":1880:1904   */\n      tag_206\n        /* \"#utility.yul\":1898:1903   */\n      dup3\n        /* \"#utility.yul\":1880:1904   */\n      tag_152\n      jump\t// in\n    tag_206:\n        /* \"#utility.yul\":1869:1904   */\n      swap1\n      pop\n        /* \"#utility.yul\":1814:1910   */\n      swap2\n      swap1\n      pop\n      jump\t// out\n        /* \"#utility.yul\":1916:2038   */\n    tag_164:\n        /* \"#utility.yul\":1989:2013   */\n      tag_208\n        /* \"#utility.yul\":2007:2012   */\n      dup2\n        /* \"#utility.yul\":1989:2013   */\n      tag_163\n      jump\t// in\n    tag_208:\n        /* \"#utility.yul\":1982:1987   */\n      dup2\n        /* \"#utility.yul\":1979:2014   */\n      eq\n        /* \"#utility.yul\":1969:2032   */\n      tag_209\n      jumpi\n        /* \"#utility.yul\":2028:2029   */\n      0x00\n        /* \"#utility.yul\":2025:2026   */\n      dup1\n        /* \"#utility.yul\":2018:2030   */\n      revert\n        /* \"#utility.yul\":1969:2032   */\n    tag_209:\n        /* \"#utility.yul\":1916:2038   */\n      pop\n      jump\t// out\n        /* \"#utility.yul\":2044:2183   */\n    tag_165:\n        /* \"#utility.yul\":2090:2095   */\n      0x00\n        /* \"#utility.yul\":2128:2134   */\n      dup2\n        /* \"#utility.yul\":2115:2135   */\n      calldataload\n        /* \"#utility.yul\":2106:2135   */\n      swap1\n      pop\n        /* \"#utility.yul\":2144:2177   */\n      tag_211\n        /* \"#utility.yul\":2171:2176   */\n      dup2\n        /* \"#utility.yul\":2144:2177   */\n      tag_164\n      jump\t// in\n    tag_211:\n        /* \"#utility.yul\":2044:2183   */\n      swap3\n      swap2\n      pop\n      pop\n      jump\t// out\n        /* \"#utility.yul\":2189:2518   */\n    tag_29:\n        /* \"#utility.yul\":2248:2254   */\n      0x00\n        /* \"#utility.yul\":2297:2299   */\n      0x20\n        /* \"#utility.yul\":2285:2294   */\n      dup3\n        /* \"#utility.yul\":2276:2283   */\n      dup5\n        /* \"#utility.yul\":2272:2295   */\n      sub\n        /* \"#utility.yul\":2268:2300   */\n      slt\n        /* \"#utility.yul\":2265:2384   */\n      iszero\n      tag_213\n      jumpi\n        /* \"#utility.yul\":2303:2382   */\n      tag_214\n      tag_161\n      jump\t// in\n    tag_214:\n        /* \"#utility.yul\":2265:2384   */\n    tag_213:\n        /* \"#utility.yul\":2423:2424   */\n      0x00\n        /* \"#utility.yul\":2448:2501   */\n      tag_215\n        /* \"#utility.yul\":2493:2500   */\n      dup5\n        /* \"#utility.yul\":2484:2490   */\n      dup3\n        /* \"#utility.yul\":2473:2482   */\n      dup6\n        /* \"#utility.yul\":2469:2491   */\n      add\n        /* \"#utility.yul\":2448:2501   */\n      tag_165\n      jump\t// in\n    tag_215:\n        /* \"#utility.yul\":2438:2501   */\n      swap2\n      pop\n        /* \"#utility.yul\":2394:2511   */\n      pop\n        /* \"#utility.yul\":2189:2518   */\n      swap3\n      swap2\n      pop\n      pop\n      jump\t// out\n        /* \"#utility.yul\":2524:2646   */\n    tag_166:\n        /* \"#utility.yul\":2597:2621   */\n      tag_217\n        /* \"#utility.yul\":2615:2620   */\n      dup2\n        /* \"#utility.yul\":2597:2621   */\n      tag_158\n      jump\t// in\n    tag_217:\n        /* \"#utility.yul\":2590:2595   */\n      dup2\n        /* \"#utility.yul\":2587:2622   */\n      eq\n        /* \"#utility.yul\":2577:2640   */\n      tag_218\n      jumpi\n        /* \"#utility.yul\":2636:2637   */\n      0x00\n        /* \"#utility.yul\":2633:2634   */\n      dup1\n        /* \"#utility.yul\":2626:2638   */\n      revert\n        /* \"#utility.yul\":2577:2640   */\n    tag_218:\n        /* \"#utility.yul\":2524:2646   */\n      pop\n      jump\t// out\n        /* \"#utility.yul\":2652:2791   */\n    tag_167:\n        /* \"#utility.yul\":2698:2703   */\n      0x00\n        /* \"#utility.yul\":2736:2742   */\n      dup2\n        /* \"#utility.yul\":2723:2743   */\n      calldataload\n        /* \"#utility.yul\":2714:2743   */\n      swap1\n      pop\n        /* \"#utility.yul\":2752:2785   */\n      tag_220\n        /* \"#utility.yul\":2779:2784   */\n      dup2\n        /* \"#utility.yul\":2752:2785   */\n      tag_166\n      jump\t// in\n    tag_220:\n        /* \"#utility.yul\":2652:2791   */\n      swap3\n      swap2\n      pop\n      pop\n      jump\t// out\n        /* \"#utility.yul\":2797:3126   */\n    tag_34:\n        /* \"#utility.yul\":2856:2862   */\n      0x00\n        /* \"#utility.yul\":2905:2907   */\n      0x20\n        /* \"#utility.yul\":2893:2902   */\n      dup3\n        /* \"#utility.yul\":2884:2891   */\n      dup5\n        /* \"#utility.yul\":2880:2903   */\n      sub\n        /* \"#utility.yul\":2876:2908   */\n      slt\n        /* \"#utility.yul\":2873:2992   */\n      iszero\n      tag_222\n      jumpi\n        /* \"#utility.yul\":2911:2990   */\n      tag_223\n      tag_161\n      jump\t// in\n    tag_223:\n        /* \"#utility.yul\":2873:2992   */\n    tag_222:\n        /* \"#utility.yul\":3031:3032   */\n      0x00\n        /* \"#utility.yul\":3056:3109   */\n      tag_224\n        /* \"#utility.yul\":3101:3108   */\n      dup5\n        /* \"#utility.yul\":3092:3098   */\n      dup3\n        /* \"#utility.yul\":3081:3090   */\n      dup6\n        /* \"#utility.yul\":3077:3099   */\n      add\n        /* \"#utility.yul\":3056:3109   */\n      tag_167\n      jump\t// in\n    tag_224:\n        /* \"#utility.yul\":3046:3109   */\n      swap2\n      pop\n        /* \"#utility.yul\":3002:3119   */\n      pop\n        /* \"#utility.yul\":2797:3126   */\n      swap3\n      swap2\n      pop\n      pop\n      jump\t// out\n        /* \"#utility.yul\":3132:3464   */\n    tag_37:\n        /* \"#utility.yul\":3253:3257   */\n      0x00\n        /* \"#utility.yul\":3291:3293   */\n      0x40\n        /* \"#utility.yul\":3280:3289   */\n      dup3\n        /* \"#utility.yul\":3276:3294   */\n      add\n        /* \"#utility.yul\":3268:3294   */\n      swap1\n      pop\n        /* \"#utility.yul\":3304:3375   */\n      tag_226\n        /* \"#utility.yul\":3372:3373   */\n      0x00\n        /* \"#utility.yul\":3361:3370   */\n      dup4\n        /* \"#utility.yul\":3357:3374   */\n      add\n        /* \"#utility.yul\":3348:3354   */\n      dup6\n        /* \"#utility.yul\":3304:3375   */\n      tag_159\n      jump\t// in\n    tag_226:\n        /* \"#utility.yul\":3385:3457   */\n      tag_227\n        /* \"#utility.yul\":3453:3455   */\n      0x20\n        /* \"#utility.yul\":3442:3451   */\n      dup4\n        /* \"#utility.yul\":3438:3456   */\n      add\n        /* \"#utility.yul\":3429:3435   */\n      dup5\n        /* \"#utility.yul\":3385:3457   */\n      tag_159\n      jump\t// in\n    tag_227:\n        /* \"#utility.yul\":3132:3464   */\n      swap4\n      swap3\n      pop\n      pop\n      pop\n      jump\t// out\n        /* \"#utility.yul\":3470:3944   */\n    tag_40:\n        /* \"#utility.yul\":3538:3544   */\n      0x00\n        /* \"#utility.yul\":3546:3552   */\n      dup1\n        /* \"#utility.yul\":3595:3597   */\n      0x40\n        /* \"#utility.yul\":3583:3592   */\n      dup4\n        /* \"#utility.yul\":3574:3581   */\n      dup6\n        /* \"#utility.yul\":3570:3593   */\n      sub\n        /* \"#utility.yul\":3566:3598   */\n      slt\n        /* \"#utility.yul\":3563:3682   */\n      iszero\n      tag_229\n      jumpi\n        /* \"#utility.yul\":3601:3680   */\n      tag_230\n      tag_161\n      jump\t// in\n    tag_230:\n        /* \"#utility.yul\":3563:3682   */\n    tag_229:\n        /* \"#utility.yul\":3721:3722   */\n      0x00\n        /* \"#utility.yul\":3746:3799   */\n      tag_231\n        /* \"#utility.yul\":3791:3798   */\n      dup6\n        /* \"#utility.yul\":3782:3788   */\n      dup3\n        /* \"#utility.yul\":3771:3780   */\n      dup7\n        /* \"#utility.yul\":3767:3789   */\n      add\n        /* \"#utility.yul\":3746:3799   */\n      tag_167\n      jump\t// in\n    tag_231:\n        /* \"#utility.yul\":3736:3799   */\n      swap3\n      pop\n        /* \"#utility.yul\":3692:3809   */\n      pop\n        /* \"#utility.yul\":3848:3850   */\n      0x20\n        /* \"#utility.yul\":3874:3927   */\n      tag_232\n        /* \"#utility.yul\":3919:3926   */\n      dup6\n        /* \"#utility.yul\":3910:3916   */\n      dup3\n        /* \"#utility.yul\":3899:3908   */\n      dup7\n        /* \"#utility.yul\":3895:3917   */\n      add\n        /* \"#utility.yul\":3874:3927   */\n      tag_167\n      jump\t// in\n    tag_232:\n        /* \"#utility.yul\":3864:3927   */\n      swap2\n      pop\n        /* \"#utility.yul\":3819:3937   */\n      pop\n        /* \"#utility.yul\":3470:3944   */\n      swap3\n      pop\n      swap3\n      swap1\n      pop\n      jump\t// out\n        /* \"#utility.yul\":3950:4424   */\n    tag_45:\n        /* \"#utility.yul\":4018:4024   */\n      0x00\n        /* \"#utility.yul\":4026:4032   */\n      dup1\n        /* \"#utility.yul\":4075:4077   */\n      0x40\n        /* \"#utility.yul\":4063:4072   */\n      dup4\n        /* \"#utility.yul\":4054:4061   */\n      dup6\n        /* \"#utility.yul\":4050:4073   */\n      sub\n        /* \"#utility.yul\":4046:4078   */\n      slt\n        /* \"#utility.yul\":4043:4162   */\n      iszero\n      tag_234\n      jumpi\n        /* \"#utility.yul\":4081:4160   */\n      tag_235\n      tag_161\n      jump\t// in\n    tag_235:\n        /* \"#utility.yul\":4043:4162   */\n    tag_234:\n        /* \"#utility.yul\":4201:4202   */\n      0x00\n        /* \"#utility.yul\":4226:4279   */\n      tag_236\n        /* \"#utility.yul\":4271:4278   */\n      dup6\n        /* \"#utility.yul\":4262:4268   */\n      dup3\n        /* \"#utility.yul\":4251:4260   */\n      dup7\n        /* \"#utility.yul\":4247:4269   */\n      add\n        /* \"#utility.yul\":4226:4279   */\n      tag_165\n      jump\t// in\n    tag_236:\n        /* \"#utility.yul\":4216:4279   */\n      swap3\n      pop\n        /* \"#utility.yul\":4172:4289   */\n      pop\n        /* \"#utility.yul\":4328:4330   */\n      0x20\n        /* \"#utility.yul\":4354:4407   */\n      tag_237\n        /* \"#utility.yul\":4399:4406   */\n      dup6\n        /* \"#utility.yul\":4390:4396   */\n      dup3\n        /* \"#utility.yul\":4379:4388   */\n      dup7\n        /* \"#utility.yul\":4375:4397   */\n      add\n        /* \"#utility.yul\":4354:4407   */\n      tag_167\n      jump\t// in\n    tag_237:\n        /* \"#utility.yul\":4344:4407   */\n      swap2\n      pop\n        /* \"#utility.yul\":4299:4417   */\n      pop\n        /* \"#utility.yul\":3950:4424   */\n      swap3\n      pop\n      swap3\n      swap1\n      pop\n      jump\t// out\n        /* \"#utility.yul\":4430:4599   */\n    tag_168:\n        /* \"#utility.yul\":4514:4525   */\n      0x00\n        /* \"#utility.yul\":4548:4554   */\n      dup3\n        /* \"#utility.yul\":4543:4546   */\n      dup3\n        /* \"#utility.yul\":4536:4555   */\n      mstore\n        /* \"#utility.yul\":4588:4592   */\n      0x20\n        /* \"#utility.yul\":4583:4586   */\n      dup3\n        /* \"#utility.yul\":4579:4593   */\n      add\n        /* \"#utility.yul\":4564:4593   */\n      swap1\n      pop\n        /* \"#utility.yul\":4430:4599   */\n      swap3\n      swap2\n      pop\n      pop\n      jump\t// out\n        /* \"#utility.yul\":4605:4771   */\n    tag_169:\n        /* \"#utility.yul\":4745:4763   */\n      0x696e76616c6964207175616e7469747900000000000000000000000000000000\n        /* \"#utility.yul\":4741:4742   */\n      0x00\n        /* \"#utility.yul\":4733:4739   */\n      dup3\n        /* \"#utility.yul\":4729:4743   */\n      add\n        /* \"#utility.yul\":4722:4764   */\n      mstore\n        /* \"#utility.yul\":4605:4771   */\n      pop\n      jump\t// out\n        /* \"#utility.yul\":4777:5143   */\n    tag_170:\n        /* \"#utility.yul\":4919:4922   */\n      0x00\n        /* \"#utility.yul\":4940:5007   */\n      tag_241\n        /* \"#utility.yul\":5004:5006   */\n      0x10\n        /* \"#utility.yul\":4999:5002   */\n      dup4\n        /* \"#utility.yul\":4940:5007   */\n      tag_168\n      jump\t// in\n    tag_241:\n        /* \"#utility.yul\":4933:5007   */\n      swap2\n      pop\n        /* \"#utility.yul\":5016:5109   */\n      tag_242\n        /* \"#utility.yul\":5105:5108   */\n      dup3\n        /* \"#utility.yul\":5016:5109   */\n      tag_169\n      jump\t// in\n    tag_242:\n        /* \"#utility.yul\":5134:5136   */\n      0x20\n        /* \"#utility.yul\":5129:5132   */\n      dup3\n        /* \"#utility.yul\":5125:5137   */\n      add\n        /* \"#utility.yul\":5118:5137   */\n      swap1\n      pop\n        /* \"#utility.yul\":4777:5143   */\n      swap2\n      swap1\n      pop\n      jump\t// out\n        /* \"#utility.yul\":5149:5568   */\n    tag_54:\n        /* \"#utility.yul\":5315:5319   */\n      0x00\n        /* \"#utility.yul\":5353:5355   */\n      0x20\n        /* \"#utility.yul\":5342:5351   */\n      dup3\n        /* \"#utility.yul\":5338:5356   */\n      add\n        /* \"#utility.yul\":5330:5356   */\n      swap1\n      pop\n        /* \"#utility.yul\":5402:5411   */\n      dup2\n        /* \"#utility.yul\":5396:5400   */\n      dup2\n        /* \"#utility.yul\":5392:5412   */\n      sub\n        /* \"#utility.yul\":5388:5389   */\n      0x00\n        /* \"#utility.yul\":5377:5386   */\n      dup4\n        /* \"#utility.yul\":5373:5390   */\n      add\n        /* \"#utility.yul\":5366:5413   */\n      mstore\n        /* \"#utility.yul\":5430:5561   */\n      tag_244\n        /* \"#utility.yul\":5556:5560   */\n      dup2\n        /* \"#utility.yul\":5430:5561   */\n      tag_170\n      jump\t// in\n    tag_244:\n        /* \"#utility.yul\":5422:5561   */\n      swap1\n      pop\n        /* \"#utility.yul\":5149:5568   */\n      swap2\n      swap1\n      pop\n      jump\t// out\n        /* \"#utility.yul\":5574:5754   */\n    tag_171:\n        /* \"#utility.yul\":5622:5699   */\n      0x4e487b7100000000000000000000000000000000000000000000000000000000\n        /* \"#utility.yul\":5619:5620   */\n      0x00\n        /* \"#utility.yul\":5612:5700   */\n      mstore\n        /* \"#utility.yul\":5719:5723   */\n      0x11\n        /* \"#utility.yul\":5716:5717   */\n      0x04\n        /* \"#utility.yul\":5709:5724   */\n      mstore\n        /* \"#utility.yul\":5743:5747   */\n      0x24\n        /* \"#utility.yul\":5740:5741   */\n      0x00\n        /* \"#utility.yul\":5733:5748   */\n      revert\n        /* \"#utility.yul\":5760:6108   */\n    tag_56:\n        /* \"#utility.yul\":5800:5807   */\n      0x00\n        /* \"#utility.yul\":5823:5843   */\n      tag_247\n        /* \"#utility.yul\":5841:5842   */\n      dup3\n        /* \"#utility.yul\":5823:5843   */\n      tag_158\n      jump\t// in\n    tag_247:\n        /* \"#utility.yul\":5818:5843   */\n      swap2\n      pop\n        /* \"#utility.yul\":5857:5877   */\n      tag_248\n        /* \"#utility.yul\":5875:5876   */\n      dup4\n        /* \"#utility.yul\":5857:5877   */\n      tag_158\n      jump\t// in\n    tag_248:\n        /* \"#utility.yul\":5852:5877   */\n      swap3\n      pop\n        /* \"#utility.yul\":6045:6046   */\n      dup2\n        /* \"#utility.yul\":5977:6043   */\n      0xffffffffffffffffffffffffffffffffffffffffffffffffffffffffffffffff\n        /* \"#utility.yul\":5973:6047   */\n      div\n        /* \"#utility.yul\":5970:5971   */\n      dup4\n        /* \"#utility.yul\":5967:6048   */\n      gt\n        /* \"#utility.yul\":5962:5963   */\n      dup3\n        /* \"#utility.yul\":5955:5964   */\n      iszero\n        /* \"#utility.yul\":5948:5965   */\n      iszero\n        /* \"#utility.yul\":5944:6049   */\n      and\n        /* \"#utility.yul\":5941:6072   */\n      iszero\n      tag_249\n      jumpi\n        /* \"#utility.yul\":6052:6070   */\n      tag_250\n      tag_171\n      jump\t// in\n    tag_250:\n        /* \"#utility.yul\":5941:6072   */\n    tag_249:\n        /* \"#utility.yul\":6100:6101   */\n      dup3\n        /* \"#utility.yul\":6097:6098   */\n      dup3\n        /* \"#utility.yul\":6093:6102   */\n      mul\n        /* \"#utility.yul\":6082:6102   */\n      swap1\n      pop\n        /* \"#utility.yul\":5760:6108   */\n      swap3\n      swap2\n      pop\n      pop\n      jump\t// out\n        /* \"#utility.yul\":6114:6294   */\n    tag_172:\n        /* \"#utility.yul\":6162:6239   */\n      0x4e487b7100000000000000000000000000000000000000000000000000000000\n        /* \"#utility.yul\":6159:6160   */\n      0x00\n        /* \"#utility.yul\":6152:6240   */\n      mstore\n        /* \"#utility.yul\":6259:6263   */\n      0x12\n        /* \"#utility.yul\":6256:6257   */\n      0x04\n        /* \"#utility.yul\":6249:6264   */\n      mstore\n        /* \"#utility.yul\":6283:6287   */\n      0x24\n        /* \"#utility.yul\":6280:6281   */\n      0x00\n        /* \"#utility.yul\":6273:6288   */\n      revert\n        /* \"#utility.yul\":6300:6485   */\n    tag_58:\n        /* \"#utility.yul\":6340:6341   */\n      0x00\n        /* \"#utility.yul\":6357:6377   */\n      tag_253\n        /* \"#utility.yul\":6375:6376   */\n      dup3\n        /* \"#utility.yul\":6357:6377   */\n      tag_158\n      jump\t// in\n    tag_253:\n        /* \"#utility.yul\":6352:6377   */\n      swap2\n      pop\n        /* \"#utility.yul\":6391:6411   */\n      tag_254\n        /* \"#utility.yul\":6409:6410   */\n      dup4\n        /* \"#utility.yul\":6391:6411   */\n      tag_158\n      jump\t// in\n    tag_254:\n        /* \"#utility.yul\":6386:6411   */\n      swap3\n      pop\n        /* \"#utility.yul\":6430:6431   */\n      dup3\n        /* \"#utility.yul\":6420:6455   */\n      tag_255\n      jumpi\n        /* \"#utility.yul\":6435:6453   */\n      tag_256\n      tag_172\n      jump\t// in\n    tag_256:\n        /* \"#utility.yul\":6420:6455   */\n    tag_255:\n        /* \"#utility.yul\":6477:6478   */\n      dup3\n        /* \"#utility.yul\":6474:6475   */\n      dup3\n        /* \"#utility.yul\":6470:6479   */\n      div\n        /* \"#utility.yul\":6465:6479   */\n      swap1\n      pop\n        /* \"#utility.yul\":6300:6485   */\n      swap3\n      swap2\n      pop\n      pop\n      jump\t// out\n        /* \"#utility.yul\":6491:6682   */\n    tag_65:\n        /* \"#utility.yul\":6531:6535   */\n      0x00\n        /* \"#utility.yul\":6551:6571   */\n      tag_258\n        /* \"#utility.yul\":6569:6570   */\n      dup3\n        /* \"#utility.yul\":6551:6571   */\n      tag_158\n      jump\t// in\n    tag_258:\n        /* \"#utility.yul\":6546:6571   */\n      swap2\n      pop\n        /* \"#utility.yul\":6585:6605   */\n      tag_259\n        /* \"#utility.yul\":6603:6604   */\n      dup4\n        /* \"#utility.yul\":6585:6605   */\n      tag_158\n      jump\t// in\n    tag_259:\n        /* \"#utility.yul\":6580:6605   */\n      swap3\n      pop\n        /* \"#utility.yul\":6624:6625   */\n      dup3\n        /* \"#utility.yul\":6621:6622   */\n      dup3\n        /* \"#utility.yul\":6618:6626   */\n      lt\n        /* \"#utility.yul\":6615:6649   */\n      iszero\n      tag_260\n      jumpi\n        /* \"#utility.yul\":6629:6647   */\n      tag_261\n      tag_171\n      jump\t// in\n    tag_261:\n        /* \"#utility.yul\":6615:6649   */\n    tag_260:\n        /* \"#utility.yul\":6674:6675   */\n      dup3\n        /* \"#utility.yul\":6671:6672   */\n      dup3\n        /* \"#utility.yul\":6667:6676   */\n      sub\n        /* \"#utility.yul\":6659:6676   */\n      swap1\n      pop\n        /* \"#utility.yul\":6491:6682   */\n      swap3\n      swap2\n      pop\n      pop\n      jump\t// out\n        /* \"#utility.yul\":6688:6806   */\n    tag_173:\n        /* \"#utility.yul\":6775:6799   */\n      tag_263\n        /* \"#utility.yul\":6793:6798   */\n      dup2\n        /* \"#utility.yul\":6775:6799   */\n      tag_163\n      jump\t// in\n    tag_263:\n        /* \"#utility.yul\":6770:6773   */\n      dup3\n        /* \"#utility.yul\":6763:6800   */\n      mstore\n        /* \"#utility.yul\":6688:6806   */\n      pop\n      pop\n      jump\t// out\n        /* \"#utility.yul\":6812:7144   */\n    tag_70:\n        /* \"#utility.yul\":6933:6937   */\n      0x00\n        /* \"#utility.yul\":6971:6973   */\n      0x40\n        /* \"#utility.yul\":6960:6969   */\n      dup3\n        /* \"#utility.yul\":6956:6974   */\n      add\n        /* \"#utility.yul\":6948:6974   */\n      swap1\n      pop\n        /* \"#utility.yul\":6984:7055   */\n      tag_265\n        /* \"#utility.yul\":7052:7053   */\n      0x00\n        /* \"#utility.yul\":7041:7050   */\n      dup4\n        /* \"#utility.yul\":7037:7054   */\n      add\n        /* \"#utility.yul\":7028:7034   */\n      dup6\n        /* \"#utility.yul\":6984:7055   */\n      tag_173\n      jump\t// in\n    tag_265:\n        /* \"#utility.yul\":7065:7137   */\n      tag_266\n        /* \"#utility.yul\":7133:7135   */\n      0x20\n        /* \"#utility.yul\":7122:7131   */\n      dup4\n        /* \"#utility.yul\":7118:7136   */\n      add\n        /* \"#utility.yul\":7109:7115   */\n      dup5\n        /* \"#utility.yul\":7065:7137   */\n      tag_159\n      jump\t// in\n    tag_266:\n        /* \"#utility.yul\":6812:7144   */\n      swap4\n      swap3\n      pop\n      pop\n      pop\n      jump\t// out\n        /* \"#utility.yul\":7150:7240   */\n    tag_174:\n        /* \"#utility.yul\":7184:7191   */\n      0x00\n        /* \"#utility.yul\":7227:7232   */\n      dup2\n        /* \"#utility.yul\":7220:7233   */\n      iszero\n        /* \"#utility.yul\":7213:7234   */\n      iszero\n        /* \"#utility.yul\":7202:7234   */\n      swap1\n      pop\n        /* \"#utility.yul\":7150:7240   */\n      swap2\n      swap1\n      pop\n      jump\t// out\n        /* \"#utility.yul\":7246:7362   */\n    tag_175:\n        /* \"#utility.yul\":7316:7337   */\n      tag_269\n        /* \"#utility.yul\":7331:7336   */\n      dup2\n        /* \"#utility.yul\":7316:7337   */\n      tag_174\n      jump\t// in\n    tag_269:\n        /* \"#utility.yul\":7309:7314   */\n      dup2\n        /* \"#utility.yul\":7306:7338   */\n      eq\n        /* \"#utility.yul\":7296:7356   */\n      tag_270\n      jumpi\n        /* \"#utility.yul\":7352:7353   */\n      0x00\n        /* \"#utility.yul\":7349:7350   */\n      dup1\n        /* \"#utility.yul\":7342:7354   */\n      revert\n        /* \"#utility.yul\":7296:7356   */\n    tag_270:\n        /* \"#utility.yul\":7246:7362   */\n      pop\n      jump\t// out\n        /* \"#utility.yul\":7368:7505   */\n    tag_176:\n        /* \"#utility.yul\":7422:7427   */\n      0x00\n        /* \"#utility.yul\":7453:7459   */\n      dup2\n        /* \"#utility.yul\":7447:7460   */\n      mload\n        /* \"#utility.yul\":7438:7460   */\n      swap1\n      pop\n        /* \"#utility.yul\":7469:7499   */\n      tag_272\n        /* \"#utility.yul\":7493:7498   */\n      dup2\n        /* \"#utility.yul\":7469:7499   */\n      tag_175\n      jump\t// in\n    tag_272:\n        /* \"#utility.yul\":7368:7505   */\n      swap3\n      swap2\n      pop\n      pop\n      jump\t// out\n        /* \"#utility.yul\":7511:7856   */\n    tag_74:\n        /* \"#utility.yul\":7578:7584   */\n      0x00\n        /* \"#utility.yul\":7627:7629   */\n      0x20\n        /* \"#utility.yul\":7615:7624   */\n      dup3\n        /* \"#utility.yul\":7606:7613   */\n      dup5\n        /* \"#utility.yul\":7602:7625   */\n      sub\n        /* \"#utility.yul\":7598:7630   */\n      slt\n        /* \"#utility.yul\":7595:7714   */\n      iszero\n      tag_274\n      jumpi\n        /* \"#utility.yul\":7633:7712   */\n      tag_275\n      tag_161\n      jump\t// in\n    tag_275:\n        /* \"#utility.yul\":7595:7714   */\n    tag_274:\n        /* \"#utility.yul\":7753:7754   */\n      0x00\n        /* \"#utility.yul\":7778:7839   */\n      tag_276\n        /* \"#utility.yul\":7831:7838   */\n      dup5\n        /* \"#utility.yul\":7822:7828   */\n      dup3\n        /* \"#utility.yul\":7811:7820   */\n      dup6\n        /* \"#utility.yul\":7807:7829   */\n      add\n        /* \"#utility.yul\":7778:7839   */\n      tag_176\n      jump\t// in\n    tag_276:\n        /* \"#utility.yul\":7768:7839   */\n      swap2\n      pop\n        /* \"#utility.yul\":7724:7849   */\n      pop\n        /* \"#utility.yul\":7511:7856   */\n      swap3\n      swap2\n      pop\n      pop\n      jump\t// out\n        /* \"#utility.yul\":7862:8304   */\n    tag_82:\n        /* \"#utility.yul\":8011:8015   */\n      0x00\n        /* \"#utility.yul\":8049:8051   */\n      0x60\n        /* \"#utility.yul\":8038:8047   */\n      dup3\n        /* \"#utility.yul\":8034:8052   */\n      add\n        /* \"#utility.yul\":8026:8052   */\n      swap1\n      pop\n        /* \"#utility.yul\":8062:8133   */\n      tag_278\n        /* \"#utility.yul\":8130:8131   */\n      0x00\n        /* \"#utility.yul\":8119:8128   */\n      dup4\n        /* \"#utility.yul\":8115:8132   */\n      add\n        /* \"#utility.yul\":8106:8112   */\n      dup7\n        /* \"#utility.yul\":8062:8133   */\n      tag_173\n      jump\t// in\n    tag_278:\n        /* \"#utility.yul\":8143:8215   */\n      tag_279\n        /* \"#utility.yul\":8211:8213   */\n      0x20\n        /* \"#utility.yul\":8200:8209   */\n      dup4\n        /* \"#utility.yul\":8196:8214   */\n      add\n        /* \"#utility.yul\":8187:8193   */\n      dup6\n        /* \"#utility.yul\":8143:8215   */\n      tag_173\n      jump\t// in\n    tag_279:\n        /* \"#utility.yul\":8225:8297   */\n      tag_280\n        /* \"#utility.yul\":8293:8295   */\n      0x40\n        /* \"#utility.yul\":8282:8291   */\n      dup4\n        /* \"#utility.yul\":8278:8296   */\n      add\n        /* \"#utility.yul\":8269:8275   */\n      dup5\n        /* \"#utility.yul\":8225:8297   */\n      tag_159\n      jump\t// in\n    tag_280:\n        /* \"#utility.yul\":7862:8304   */\n      swap5\n      swap4\n      pop\n      pop\n      pop\n      pop\n      jump\t// out\n        /* \"#utility.yul\":8310:8532   */\n    tag_91:\n        /* \"#utility.yul\":8403:8407   */\n      0x00\n        /* \"#utility.yul\":8441:8443   */\n      0x20\n        /* \"#utility.yul\":8430:8439   */\n      dup3\n        /* \"#utility.yul\":8426:8444   */\n      add\n        /* \"#utility.yul\":8418:8444   */\n      swap1\n      pop\n        /* \"#utility.yul\":8454:8525   */\n      tag_282\n        /* \"#utility.yul\":8522:8523   */\n      0x00\n        /* \"#utility.yul\":8511:8520   */\n      dup4\n        /* \"#utility.yul\":8507:8524   */\n      add\n        /* \"#utility.yul\":8498:8504   */\n      dup5\n        /* \"#utility.yul\":8454:8525   */\n      tag_173\n      jump\t// in\n    tag_282:\n        /* \"#utility.yul\":8310:8532   */\n      swap3\n      swap2\n      pop\n      pop\n      jump\t// out\n        /* \"#utility.yul\":8538:8681   */\n    tag_177:\n        /* \"#utility.yul\":8595:8600   */\n      0x00\n        /* \"#utility.yul\":8626:8632   */\n      dup2\n        /* \"#utility.yul\":8620:8633   */\n      mload\n        /* \"#utility.yul\":8611:8633   */\n      swap1\n      pop\n        /* \"#utility.yul\":8642:8675   */\n      tag_284\n        /* \"#utility.yul\":8669:8674   */\n      dup2\n        /* \"#utility.yul\":8642:8675   */\n      tag_166\n      jump\t// in\n    tag_284:\n        /* \"#utility.yul\":8538:8681   */\n      swap3\n      swap2\n      pop\n      pop\n      jump\t// out\n        /* \"#utility.yul\":8687:9038   */\n    tag_95:\n        /* \"#utility.yul\":8757:8763   */\n      0x00\n        /* \"#utility.yul\":8806:8808   */\n      0x20\n        /* \"#utility.yul\":8794:8803   */\n      dup3\n        /* \"#utility.yul\":8785:8792   */\n      dup5\n        /* \"#utility.yul\":8781:8804   */\n      sub\n        /* \"#utility.yul\":8777:8809   */\n      slt\n        /* \"#utility.yul\":8774:8893   */\n      iszero\n      tag_286\n      jumpi\n        /* \"#utility.yul\":8812:8891   */\n      tag_287\n      tag_161\n      jump\t// in\n    tag_287:\n        /* \"#utility.yul\":8774:8893   */\n    tag_286:\n        /* \"#utility.yul\":8932:8933   */\n      0x00\n        /* \"#utility.yul\":8957:9021   */\n      tag_288\n        /* \"#utility.yul\":9013:9020   */\n      dup5\n        /* \"#utility.yul\":9004:9010   */\n      dup3\n        /* \"#utility.yul\":8993:9002   */\n      dup6\n        /* \"#utility.yul\":8989:9011   */\n      add\n        /* \"#utility.yul\":8957:9021   */\n      tag_177\n      jump\t// in\n    tag_288:\n        /* \"#utility.yul\":8947:9021   */\n      swap2\n      pop\n        /* \"#utility.yul\":8903:9031   */\n      pop\n        /* \"#utility.yul\":8687:9038   */\n      swap3\n      swap2\n      pop\n      pop\n      jump\t// out\n        /* \"#utility.yul\":9044:9349   */\n    tag_104:\n        /* \"#utility.yul\":9084:9087   */\n      0x00\n        /* \"#utility.yul\":9103:9123   */\n      tag_290\n        /* \"#utility.yul\":9121:9122   */\n      dup3\n        /* \"#utility.yul\":9103:9123   */\n      tag_158\n      jump\t// in\n    tag_290:\n        /* \"#utility.yul\":9098:9123   */\n      swap2\n      pop\n        /* \"#utility.yul\":9137:9157   */\n      tag_291\n        /* \"#utility.yul\":9155:9156   */\n      dup4\n        /* \"#utility.yul\":9137:9157   */\n      tag_158\n      jump\t// in\n    tag_291:\n        /* \"#utility.yul\":9132:9157   */\n      swap3\n      pop\n        /* \"#utility.yul\":9291:9292   */\n      dup3\n        /* \"#utility.yul\":9223:9289   */\n      0xffffffffffffffffffffffffffffffffffffffffffffffffffffffffffffffff\n        /* \"#utility.yul\":9219:9293   */\n      sub\n        /* \"#utility.yul\":9216:9217   */\n      dup3\n        /* \"#utility.yul\":9213:9294   */\n      gt\n        /* \"#utility.yul\":9210:9317   */\n      iszero\n      tag_292\n      jumpi\n        /* \"#utility.yul\":9297:9315   */\n      tag_293\n      tag_171\n      jump\t// in\n    tag_293:\n        /* \"#utility.yul\":9210:9317   */\n    tag_292:\n        /* \"#utility.yul\":9341:9342   */\n      dup3\n        /* \"#utility.yul\":9338:9339   */\n      dup3\n        /* \"#utility.yul\":9334:9343   */\n      add\n        /* \"#utility.yul\":9327:9343   */\n      swap1\n      pop\n        /* \"#utility.yul\":9044:9349   */\n      swap3\n      swap2\n      pop\n      pop\n      jump\t// out\n        /* \"#utility.yul\":9355:9515   */\n    tag_178:\n        /* \"#utility.yul\":9495:9507   */\n      0x736861726573203d203000000000000000000000000000000000000000000000\n        /* \"#utility.yul\":9491:9492   */\n      0x00\n        /* \"#utility.yul\":9483:9489   */\n      dup3\n        /* \"#utility.yul\":9479:9493   */\n      add\n        /* \"#utility.yul\":9472:9508   */\n      mstore\n        /* \"#utility.yul\":9355:9515   */\n      pop\n      jump\t// out\n        /* \"#utility.yul\":9521:9887   */\n    tag_179:\n        /* \"#utility.yul\":9663:9666   */\n      0x00\n        /* \"#utility.yul\":9684:9751   */\n      tag_296\n        /* \"#utility.yul\":9748:9750   */\n      0x0a\n        /* \"#utility.yul\":9743:9746   */\n      dup4\n        /* \"#utility.yul\":9684:9751   */\n      tag_168\n      jump\t// in\n    tag_296:\n        /* \"#utility.yul\":9677:9751   */\n      swap2\n      pop\n        /* \"#utility.yul\":9760:9853   */\n      tag_297\n        /* \"#utility.yul\":9849:9852   */\n      dup3\n        /* \"#utility.yul\":9760:9853   */\n      tag_178\n      jump\t// in\n    tag_297:\n        /* \"#utility.yul\":9878:9880   */\n      0x20\n        /* \"#utility.yul\":9873:9876   */\n      dup3\n        /* \"#utility.yul\":9869:9881   */\n      add\n        /* \"#utility.yul\":9862:9881   */\n      swap1\n      pop\n        /* \"#utility.yul\":9521:9887   */\n      swap2\n      swap1\n      pop\n      jump\t// out\n        /* \"#utility.yul\":9893:10312   */\n    tag_112:\n        /* \"#utility.yul\":10059:10063   */\n      0x00\n        /* \"#utility.yul\":10097:10099   */\n      0x20\n        /* \"#utility.yul\":10086:10095   */\n      dup3\n        /* \"#utility.yul\":10082:10100   */\n      add\n        /* \"#utility.yul\":10074:10100   */\n      swap1\n      pop\n        /* \"#utility.yul\":10146:10155   */\n      dup2\n        /* \"#utility.yul\":10140:10144   */\n      dup2\n        /* \"#utility.yul\":10136:10156   */\n      sub\n        /* \"#utility.yul\":10132:10133   */\n      0x00\n        /* \"#utility.yul\":10121:10130   */\n      dup4\n        /* \"#utility.yul\":10117:10134   */\n      add\n        /* \"#utility.yul\":10110:10157   */\n      mstore\n        /* \"#utility.yul\":10174:10305   */\n      tag_299\n        /* \"#utility.yul\":10300:10304   */\n      dup2\n        /* \"#utility.yul\":10174:10305   */\n      tag_179\n      jump\t// in\n    tag_299:\n        /* \"#utility.yul\":10166:10305   */\n      swap1\n      pop\n        /* \"#utility.yul\":9893:10312   */\n      swap2\n      swap1\n      pop\n      jump\t// out\n        /* \"#utility.yul\":10318:10481   */\n    tag_180:\n        /* \"#utility.yul\":10458:10473   */\n      0x696e76616c696420746f6b656e00000000000000000000000000000000000000\n        /* \"#utility.yul\":10454:10455   */\n      0x00\n        /* \"#utility.yul\":10446:10452   */\n      dup3\n        /* \"#utility.yul\":10442:10456   */\n      add\n        /* \"#utility.yul\":10435:10474   */\n      mstore\n        /* \"#utility.yul\":10318:10481   */\n      pop\n      jump\t// out\n        /* \"#utility.yul\":10487:10853   */\n    tag_181:\n        /* \"#utility.yul\":10629:10632   */\n      0x00\n        /* \"#utility.yul\":10650:10717   */\n      tag_302\n        /* \"#utility.yul\":10714:10716   */\n      0x0d\n        /* \"#utility.yul\":10709:10712   */\n      dup4\n        /* \"#utility.yul\":10650:10717   */\n      tag_168\n      jump\t// in\n    tag_302:\n        /* \"#utility.yul\":10643:10717   */\n      swap2\n      pop\n        /* \"#utility.yul\":10726:10819   */\n      tag_303\n        /* \"#utility.yul\":10815:10818   */\n      dup3\n        /* \"#utility.yul\":10726:10819   */\n      tag_180\n      jump\t// in\n    tag_303:\n        /* \"#utility.yul\":10844:10846   */\n      0x20\n        /* \"#utility.yul\":10839:10842   */\n      dup3\n        /* \"#utility.yul\":10835:10847   */\n      add\n        /* \"#utility.yul\":10828:10847   */\n      swap1\n      pop\n        /* \"#utility.yul\":10487:10853   */\n      swap2\n      swap1\n      pop\n      jump\t// out\n        /* \"#utility.yul\":10859:11278   */\n    tag_120:\n        /* \"#utility.yul\":11025:11029   */\n      0x00\n        /* \"#utility.yul\":11063:11065   */\n      0x20\n        /* \"#utility.yul\":11052:11061   */\n      dup3\n        /* \"#utility.yul\":11048:11066   */\n      add\n        /* \"#utility.yul\":11040:11066   */\n      swap1\n      pop\n        /* \"#utility.yul\":11112:11121   */\n      dup2\n        /* \"#utility.yul\":11106:11110   */\n      dup2\n        /* \"#utility.yul\":11102:11122   */\n      sub\n        /* \"#utility.yul\":11098:11099   */\n      0x00\n        /* \"#utility.yul\":11087:11096   */\n      dup4\n        /* \"#utility.yul\":11083:11100   */\n      add\n        /* \"#utility.yul\":11076:11123   */\n      mstore\n        /* \"#utility.yul\":11140:11271   */\n      tag_305\n        /* \"#utility.yul\":11266:11270   */\n      dup2\n        /* \"#utility.yul\":11140:11271   */\n      tag_181\n      jump\t// in\n    tag_305:\n        /* \"#utility.yul\":11132:11271   */\n      swap1\n      pop\n        /* \"#utility.yul\":10859:11278   */\n      swap2\n      swap1\n      pop\n      jump\t// out\n\n    auxdata: 0xa2646970667358221220f49098bcb61c08e37c81a363c5a96ddf923dcd1a3af44b81419c0b262548132b64736f6c634300080f0033\n}\n",
				"bytecode": {
					"linkReferences": {},
					"object": "60c06040523480156200001157600080fd5b506040516200164e3803806200164e8339818101604052810190620000379190620001be565b600073ffffffffffffffffffffffffffffffffffffffff168273ffffffffffffffffffffffffffffffffffffffff1614158015620000a25750600073ffffffffffffffffffffffffffffffffffffffff168173ffffffffffffffffffffffffffffffffffffffff1614155b620000e4576040517f08c379a0000000000000000000000000000000000000000000000000000000008152600401620000db9062000266565b60405180910390fd5b8173ffffffffffffffffffffffffffffffffffffffff1660808173ffffffffffffffffffffffffffffffffffffffff16815250508073ffffffffffffffffffffffffffffffffffffffff1660a08173ffffffffffffffffffffffffffffffffffffffff1681525050505062000288565b600080fd5b600073ffffffffffffffffffffffffffffffffffffffff82169050919050565b6000620001868262000159565b9050919050565b620001988162000179565b8114620001a457600080fd5b50565b600081519050620001b8816200018d565b92915050565b60008060408385031215620001d857620001d762000154565b5b6000620001e885828601620001a7565b9250506020620001fb85828601620001a7565b9150509250929050565b600082825260208201905092915050565b7f696e76616c696420616464726573730000000000000000000000000000000000600082015250565b60006200024e600f8362000205565b91506200025b8262000216565b602082019050919050565b6000602082019050818103600083015262000281816200023f565b9050919050565b60805160a05161134562000309600039600081816103de0152818161052601528181610667015281816108310152818161091e0152818161098c0152610bbc0152600081816101f10152818161033501528181610485015281816105c9015281816107dc015281816108c20152818161093f015261096b01526113456000f3fe608060405234801561001057600080fd5b50600436106100935760003560e01c806370a082311161006657806370a08231146101105780639c8f9f23146101405780639cd441da14610171578063d004f0f7146101a1578063d21220a7146101d157610093565b80630dfe16811461009857806318160ddd146100b6578063443cb4bc146100d45780635a76f25e146100f2575b600080fd5b6100a06101ef565b6040516100ad9190610d55565b60405180910390f35b6100be610213565b6040516100cb9190610d89565b60405180910390f35b6100dc610219565b6040516100e99190610d89565b60405180910390f35b6100fa61021f565b6040516101079190610d89565b60405180910390f35b61012a60048036038101906101259190610de7565b610225565b6040516101379190610d89565b60405180910390f35b61015a60048036038101906101559190610e40565b61023d565b604051610168929190610e6d565b60405180910390f35b61018b60048036038101906101869190610e96565b610481565b6040516101989190610d89565b60405180910390f35b6101bb60048036038101906101b69190610ed6565b6107d8565b6040516101c89190610d89565b60405180910390f35b6101d9610bba565b6040516101e69190610d55565b60405180910390f35b7f000000000000000000000000000000000000000000000000000000000000000081565b60025481565b60005481565b60015481565b60036020528060005260406000206000915090505481565b600080600360003373ffffffffffffffffffffffffffffffffffffffff1673ffffffffffffffffffffffffffffffffffffffff168152602001908152602001600020548311156102c2576040517f08c379a00000000000000000000000000000000000000000000000000000000081526004016102b990610f73565b60405180910390fd5b600254836000546102d39190610fc2565b6102dd919061104b565b9150600254836001546102f09190610fc2565b6102fa919061104b565b90506103063384610bde565b61032a82600054610317919061107c565b82600154610325919061107c565b610c51565b60008211156103d3577f000000000000000000000000000000000000000000000000000000000000000073ffffffffffffffffffffffffffffffffffffffff1663a9059cbb33846040518363ffffffff1660e01b815260040161038e9291906110bf565b6020604051808303816000875af11580156103ad573d6000803e3d6000fd5b505050506040513d601f19601f820116820180604052508101906103d19190611120565b505b600081111561047c577f000000000000000000000000000000000000000000000000000000000000000073ffffffffffffffffffffffffffffffffffffffff1663a9059cbb33836040518363ffffffff1660e01b81526004016104379291906110bf565b6020604051808303816000875af1158015610456573d6000803e3d6000fd5b505050506040513d601f19601f8201168201806040525081019061047a9190611120565b505b915091565b60007f000000000000000000000000000000000000000000000000000000000000000073ffffffffffffffffffffffffffffffffffffffff166323b872dd3330866040518463ffffffff1660e01b81526004016104e09392919061114d565b6020604051808303816000875af11580156104ff573d6000803e3d6000fd5b505050506040513d601f19601f820116820180604052508101906105239190611120565b507f000000000000000000000000000000000000000000000000000000000000000073ffffffffffffffffffffffffffffffffffffffff166323b872dd3330856040518463ffffffff1660e01b81526004016105819392919061114d565b6020604051808303816000875af11580156105a0573d6000803e3d6000fd5b505050506040513d601f19601f820116820180604052508101906105c49190611120565b5060007f000000000000000000000000000000000000000000000000000000000000000073ffffffffffffffffffffffffffffffffffffffff166370a08231306040518263ffffffff1660e01b81526004016106209190611184565b602060405180830381865afa15801561063d573d6000803e3d6000fd5b505050506040513d601f19601f8201168201806040525081019061066191906111b4565b905060007f000000000000000000000000000000000000000000000000000000000000000073ffffffffffffffffffffffffffffffffffffffff166370a08231306040518263ffffffff1660e01b81526004016106be9190611184565b602060405180830381865afa1580156106db573d6000803e3d6000fd5b505050506040513d601f19601f820116820180604052508101906106ff91906111b4565b90506000805483610710919061107c565b9050600060015483610722919061107c565b905060006002540361074157808261073a91906111e1565b9450610777565b60015460005461075191906111e1565b600254828461076091906111e1565b61076a9190610fc2565b610774919061104b565b94505b600085116107ba576040517f08c379a00000000000000000000000000000000000000000000000000000000081526004016107b190611283565b60405180910390fd5b6107c43386610c63565b6107ce8484610c51565b5050505092915050565b60007f000000000000000000000000000000000000000000000000000000000000000073ffffffffffffffffffffffffffffffffffffffff168373ffffffffffffffffffffffffffffffffffffffff16148061087f57507f000000000000000000000000000000000000000000000000000000000000000073ffffffffffffffffffffffffffffffffffffffff168373ffffffffffffffffffffffffffffffffffffffff16145b6108be576040517f08c379a00000000000000000000000000000000000000000000000000000000081526004016108b5906112ef565b60405180910390fd5b60007f000000000000000000000000000000000000000000000000000000000000000073ffffffffffffffffffffffffffffffffffffffff168473ffffffffffffffffffffffffffffffffffffffff1614905060008060008084610969577f00000000000000000000000000000000000000000000000000000000000000007f00000000000000000000000000000000000000000000000000000000000000006001546000546109b2565b7f00000000000000000000000000000000000000000000000000000000000000007f00000000000000000000000000000000000000000000000000000000000000006000546001545b93509350935093508373ffffffffffffffffffffffffffffffffffffffff166323b872dd33308a6040518463ffffffff1660e01b81526004016109f79392919061114d565b6020604051808303816000875af1158015610a16573d6000803e3d6000fd5b505050506040513d601f19601f82011682018060405250810190610a3a9190611120565b506000828573ffffffffffffffffffffffffffffffffffffffff166370a08231306040518263ffffffff1660e01b8152600401610a779190611184565b602060405180830381865afa158015610a94573d6000803e3d6000fd5b505050506040513d601f19601f82011682018060405250810190610ab891906111b4565b610ac2919061107c565b90506103e86103e582610ad59190610fc2565b610adf919061104b565b965060008087610b06578884610af5919061107c565b8386610b0191906111e1565b610b1f565b8285610b1291906111e1565b8985610b1e919061107c565b5b91509150610b2d8282610c51565b8573ffffffffffffffffffffffffffffffffffffffff1663a9059cbb338b6040518363ffffffff1660e01b8152600401610b689291906110bf565b6020604051808303816000875af1158015610b87573d6000803e3d6000fd5b505050506040513d601f19601f82011682018060405250810190610bab9190611120565b50505050505050505092915050565b7f000000000000000000000000000000000000000000000000000000000000000081565b80600360008473ffffffffffffffffffffffffffffffffffffffff1673ffffffffffffffffffffffffffffffffffffffff1681526020019081526020016000206000828254610c2d919061107c565b925050819055508060026000828254610c46919061107c565b925050819055505050565b81600081905550806001819055505050565b80600360008473ffffffffffffffffffffffffffffffffffffffff1673ffffffffffffffffffffffffffffffffffffffff1681526020019081526020016000206000828254610cb291906111e1565b925050819055508060026000828254610ccb91906111e1565b925050819055505050565b600073ffffffffffffffffffffffffffffffffffffffff82169050919050565b6000819050919050565b6000610d1b610d16610d1184610cd6565b610cf6565b610cd6565b9050919050565b6000610d2d82610d00565b9050919050565b6000610d3f82610d22565b9050919050565b610d4f81610d34565b82525050565b6000602082019050610d6a6000830184610d46565b92915050565b6000819050919050565b610d8381610d70565b82525050565b6000602082019050610d9e6000830184610d7a565b92915050565b600080fd5b6000610db482610cd6565b9050919050565b610dc481610da9565b8114610dcf57600080fd5b50565b600081359050610de181610dbb565b92915050565b600060208284031215610dfd57610dfc610da4565b5b6000610e0b84828501610dd2565b91505092915050565b610e1d81610d70565b8114610e2857600080fd5b50565b600081359050610e3a81610e14565b92915050565b600060208284031215610e5657610e55610da4565b5b6000610e6484828501610e2b565b91505092915050565b6000604082019050610e826000830185610d7a565b610e8f6020830184610d7a565b9392505050565b60008060408385031215610ead57610eac610da4565b5b6000610ebb85828601610e2b565b9250506020610ecc85828601610e2b565b9150509250929050565b60008060408385031215610eed57610eec610da4565b5b6000610efb85828601610dd2565b9250506020610f0c85828601610e2b565b9150509250929050565b600082825260208201905092915050565b7f696e76616c6964207175616e7469747900000000000000000000000000000000600082015250565b6000610f5d601083610f16565b9150610f6882610f27565b602082019050919050565b60006020820190508181036000830152610f8c81610f50565b9050919050565b7f4e487b7100000000000000000000000000000000000000000000000000000000600052601160045260246000fd5b6000610fcd82610d70565b9150610fd883610d70565b9250817fffffffffffffffffffffffffffffffffffffffffffffffffffffffffffffffff048311821515161561101157611010610f93565b5b828202905092915050565b7f4e487b7100000000000000000000000000000000000000000000000000000000600052601260045260246000fd5b600061105682610d70565b915061106183610d70565b9250826110715761107061101c565b5b828204905092915050565b600061108782610d70565b915061109283610d70565b9250828210156110a5576110a4610f93565b5b828203905092915050565b6110b981610da9565b82525050565b60006040820190506110d460008301856110b0565b6110e16020830184610d7a565b9392505050565b60008115159050919050565b6110fd816110e8565b811461110857600080fd5b50565b60008151905061111a816110f4565b92915050565b60006020828403121561113657611135610da4565b5b60006111448482850161110b565b91505092915050565b600060608201905061116260008301866110b0565b61116f60208301856110b0565b61117c6040830184610d7a565b949350505050565b600060208201905061119960008301846110b0565b92915050565b6000815190506111ae81610e14565b92915050565b6000602082840312156111ca576111c9610da4565b5b60006111d88482850161119f565b91505092915050565b60006111ec82610d70565b91506111f783610d70565b9250827fffffffffffffffffffffffffffffffffffffffffffffffffffffffffffffffff0382111561122c5761122b610f93565b5b828201905092915050565b7f736861726573203d203000000000000000000000000000000000000000000000600082015250565b600061126d600a83610f16565b915061127882611237565b602082019050919050565b6000602082019050818103600083015261129c81611260565b9050919050565b7f696e76616c696420746f6b656e00000000000000000000000000000000000000600082015250565b60006112d9600d83610f16565b91506112e4826112a3565b602082019050919050565b60006020820190508181036000830152611308816112cc565b905091905056fea2646970667358221220f49098bcb61c08e37c81a363c5a96ddf923dcd1a3af44b81419c0b262548132b64736f6c634300080f0033",
					"opcodes": "PUSH1 0xC0 PUSH1 0x40 MSTORE CALLVALUE DUP1 ISZERO PUSH3 0x11 JUMPI PUSH1 0x0 DUP1 REVERT JUMPDEST POP PUSH1 0x40 MLOAD PUSH3 0x164E CODESIZE SUB DUP1 PUSH3 0x164E DUP4 CODECOPY DUP2 DUP2 ADD PUSH1 0x40 MSTORE DUP2 ADD SWAP1 PUSH3 0x37 SWAP2 SWAP1 PUSH3 0x1BE JUMP JUMPDEST PUSH1 0x0 PUSH20 0xFFFFFFFFFFFFFFFFFFFFFFFFFFFFFFFFFFFFFFFF AND DUP3 PUSH20 0xFFFFFFFFFFFFFFFFFFFFFFFFFFFFFFFFFFFFFFFF AND EQ ISZERO DUP1 ISZERO PUSH3 0xA2 JUMPI POP PUSH1 0x0 PUSH20 0xFFFFFFFFFFFFFFFFFFFFFFFFFFFFFFFFFFFFFFFF AND DUP2 PUSH20 0xFFFFFFFFFFFFFFFFFFFFFFFFFFFFFFFFFFFFFFFF AND EQ ISZERO JUMPDEST PUSH3 0xE4 JUMPI PUSH1 0x40 MLOAD PUSH32 0x8C379A000000000000000000000000000000000000000000000000000000000 DUP2 MSTORE PUSH1 0x4 ADD PUSH3 0xDB SWAP1 PUSH3 0x266 JUMP JUMPDEST PUSH1 0x40 MLOAD DUP1 SWAP2 SUB SWAP1 REVERT JUMPDEST DUP2 PUSH20 0xFFFFFFFFFFFFFFFFFFFFFFFFFFFFFFFFFFFFFFFF AND PUSH1 0x80 DUP2 PUSH20 0xFFFFFFFFFFFFFFFFFFFFFFFFFFFFFFFFFFFFFFFF AND DUP2 MSTORE POP POP DUP1 PUSH20 0xFFFFFFFFFFFFFFFFFFFFFFFFFFFFFFFFFFFFFFFF AND PUSH1 0xA0 DUP2 PUSH20 0xFFFFFFFFFFFFFFFFFFFFFFFFFFFFFFFFFFFFFFFF AND DUP2 MSTORE POP POP POP POP PUSH3 0x288 JUMP JUMPDEST PUSH1 0x0 DUP1 REVERT JUMPDEST PUSH1 0x0 PUSH20 0xFFFFFFFFFFFFFFFFFFFFFFFFFFFFFFFFFFFFFFFF DUP3 AND SWAP1 POP SWAP2 SWAP1 POP JUMP JUMPDEST PUSH1 0x0 PUSH3 0x186 DUP3 PUSH3 0x159 JUMP JUMPDEST SWAP1 POP SWAP2 SWAP1 POP JUMP JUMPDEST PUSH3 0x198 DUP2 PUSH3 0x179 JUMP JUMPDEST DUP2 EQ PUSH3 0x1A4 JUMPI PUSH1 0x0 DUP1 REVERT JUMPDEST POP JUMP JUMPDEST PUSH1 0x0 DUP2 MLOAD SWAP1 POP PUSH3 0x1B8 DUP2 PUSH3 0x18D JUMP JUMPDEST SWAP3 SWAP2 POP POP JUMP JUMPDEST PUSH1 0x0 DUP1 PUSH1 0x40 DUP4 DUP6 SUB SLT ISZERO PUSH3 0x1D8 JUMPI PUSH3 0x1D7 PUSH3 0x154 JUMP JUMPDEST JUMPDEST PUSH1 0x0 PUSH3 0x1E8 DUP6 DUP3 DUP7 ADD PUSH3 0x1A7 JUMP JUMPDEST SWAP3 POP POP PUSH1 0x20 PUSH3 0x1FB DUP6 DUP3 DUP7 ADD PUSH3 0x1A7 JUMP JUMPDEST SWAP2 POP POP SWAP3 POP SWAP3 SWAP1 POP JUMP JUMPDEST PUSH1 0x0 DUP3 DUP3 MSTORE PUSH1 0x20 DUP3 ADD SWAP1 POP SWAP3 SWAP2 POP POP JUMP JUMPDEST PUSH32 0x696E76616C696420616464726573730000000000000000000000000000000000 PUSH1 0x0 DUP3 ADD MSTORE POP JUMP JUMPDEST PUSH1 0x0 PUSH3 0x24E PUSH1 0xF DUP4 PUSH3 0x205 JUMP JUMPDEST SWAP2 POP PUSH3 0x25B DUP3 PUSH3 0x216 JUMP JUMPDEST PUSH1 0x20 DUP3 ADD SWAP1 POP SWAP2 SWAP1 POP JUMP JUMPDEST PUSH1 0x0 PUSH1 0x20 DUP3 ADD SWAP1 POP DUP2 DUP2 SUB PUSH1 0x0 DUP4 ADD MSTORE PUSH3 0x281 DUP2 PUSH3 0x23F JUMP JUMPDEST SWAP1 POP SWAP2 SWAP1 POP JUMP JUMPDEST PUSH1 0x80 MLOAD PUSH1 0xA0 MLOAD PUSH2 0x1345 PUSH3 0x309 PUSH1 0x0 CODECOPY PUSH1 0x0 DUP2 DUP2 PUSH2 0x3DE ADD MSTORE DUP2 DUP2 PUSH2 0x526 ADD MSTORE DUP2 DUP2 PUSH2 0x667 ADD MSTORE DUP2 DUP2 PUSH2 0x831 ADD MSTORE DUP2 DUP2 PUSH2 0x91E ADD MSTORE DUP2 DUP2 PUSH2 0x98C ADD MSTORE PUSH2 0xBBC ADD MSTORE PUSH1 0x0 DUP2 DUP2 PUSH2 0x1F1 ADD MSTORE DUP2 DUP2 PUSH2 0x335 ADD MSTORE DUP2 DUP2 PUSH2 0x485 ADD MSTORE DUP2 DUP2 PUSH2 0x5C9 ADD MSTORE DUP2 DUP2 PUSH2 0x7DC ADD MSTORE DUP2 DUP2 PUSH2 0x8C2 ADD MSTORE DUP2 DUP2 PUSH2 0x93F ADD MSTORE PUSH2 0x96B ADD MSTORE PUSH2 0x1345 PUSH1 0x0 RETURN INVALID PUSH1 0x80 PUSH1 0x40 MSTORE CALLVALUE DUP1 ISZERO PUSH2 0x10 JUMPI PUSH1 0x0 DUP1 REVERT JUMPDEST POP PUSH1 0x4 CALLDATASIZE LT PUSH2 0x93 JUMPI PUSH1 0x0 CALLDATALOAD PUSH1 0xE0 SHR DUP1 PUSH4 0x70A08231 GT PUSH2 0x66 JUMPI DUP1 PUSH4 0x70A08231 EQ PUSH2 0x110 JUMPI DUP1 PUSH4 0x9C8F9F23 EQ PUSH2 0x140 JUMPI DUP1 PUSH4 0x9CD441DA EQ PUSH2 0x171 JUMPI DUP1 PUSH4 0xD004F0F7 EQ PUSH2 0x1A1 JUMPI DUP1 PUSH4 0xD21220A7 EQ PUSH2 0x1D1 JUMPI PUSH2 0x93 JUMP JUMPDEST DUP1 PUSH4 0xDFE1681 EQ PUSH2 0x98 JUMPI DUP1 PUSH4 0x18160DDD EQ PUSH2 0xB6 JUMPI DUP1 PUSH4 0x443CB4BC EQ PUSH2 0xD4 JUMPI DUP1 PUSH4 0x5A76F25E EQ PUSH2 0xF2 JUMPI JUMPDEST PUSH1 0x0 DUP1 REVERT JUMPDEST PUSH2 0xA0 PUSH2 0x1EF JUMP JUMPDEST PUSH1 0x40 MLOAD PUSH2 0xAD SWAP2 SWAP1 PUSH2 0xD55 JUMP JUMPDEST PUSH1 0x40 MLOAD DUP1 SWAP2 SUB SWAP1 RETURN JUMPDEST PUSH2 0xBE PUSH2 0x213 JUMP JUMPDEST PUSH1 0x40 MLOAD PUSH2 0xCB SWAP2 SWAP1 PUSH2 0xD89 JUMP JUMPDEST PUSH1 0x40 MLOAD DUP1 SWAP2 SUB SWAP1 RETURN JUMPDEST PUSH2 0xDC PUSH2 0x219 JUMP JUMPDEST PUSH1 0x40 MLOAD PUSH2 0xE9 SWAP2 SWAP1 PUSH2 0xD89 JUMP JUMPDEST PUSH1 0x40 MLOAD DUP1 SWAP2 SUB SWAP1 RETURN JUMPDEST PUSH2 0xFA PUSH2 0x21F JUMP JUMPDEST PUSH1 0x40 MLOAD PUSH2 0x107 SWAP2 SWAP1 PUSH2 0xD89 JUMP JUMPDEST PUSH1 0x40 MLOAD DUP1 SWAP2 SUB SWAP1 RETURN JUMPDEST PUSH2 0x12A PUSH1 0x4 DUP1 CALLDATASIZE SUB DUP2 ADD SWAP1 PUSH2 0x125 SWAP2 SWAP1 PUSH2 0xDE7 JUMP JUMPDEST PUSH2 0x225 JUMP JUMPDEST PUSH1 0x40 MLOAD PUSH2 0x137 SWAP2 SWAP1 PUSH2 0xD89 JUMP JUMPDEST PUSH1 0x40 MLOAD DUP1 SWAP2 SUB SWAP1 RETURN JUMPDEST PUSH2 0x15A PUSH1 0x4 DUP1 CALLDATASIZE SUB DUP2 ADD SWAP1 PUSH2 0x155 SWAP2 SWAP1 PUSH2 0xE40 JUMP JUMPDEST PUSH2 0x23D JUMP JUMPDEST PUSH1 0x40 MLOAD PUSH2 0x168 SWAP3 SWAP2 SWAP1 PUSH2 0xE6D JUMP JUMPDEST PUSH1 0x40 MLOAD DUP1 SWAP2 SUB SWAP1 RETURN JUMPDEST PUSH2 0x18B PUSH1 0x4 DUP1 CALLDATASIZE SUB DUP2 ADD SWAP1 PUSH2 0x186 SWAP2 SWAP1 PUSH2 0xE96 JUMP JUMPDEST PUSH2 0x481 JUMP JUMPDEST PUSH1 0x40 MLOAD PUSH2 0x198 SWAP2 SWAP1 PUSH2 0xD89 JUMP JUMPDEST PUSH1 0x40 MLOAD DUP1 SWAP2 SUB SWAP1 RETURN JUMPDEST PUSH2 0x1BB PUSH1 0x4 DUP1 CALLDATASIZE SUB DUP2 ADD SWAP1 PUSH2 0x1B6 SWAP2 SWAP1 PUSH2 0xED6 JUMP JUMPDEST PUSH2 0x7D8 JUMP JUMPDEST PUSH1 0x40 MLOAD PUSH2 0x1C8 SWAP2 SWAP1 PUSH2 0xD89 JUMP JUMPDEST PUSH1 0x40 MLOAD DUP1 SWAP2 SUB SWAP1 RETURN JUMPDEST PUSH2 0x1D9 PUSH2 0xBBA JUMP JUMPDEST PUSH1 0x40 MLOAD PUSH2 0x1E6 SWAP2 SWAP1 PUSH2 0xD55 JUMP JUMPDEST PUSH1 0x40 MLOAD DUP1 SWAP2 SUB SWAP1 RETURN JUMPDEST PUSH32 0x0 DUP2 JUMP JUMPDEST PUSH1 0x2 SLOAD DUP2 JUMP JUMPDEST PUSH1 0x0 SLOAD DUP2 JUMP JUMPDEST PUSH1 0x1 SLOAD DUP2 JUMP JUMPDEST PUSH1 0x3 PUSH1 0x20 MSTORE DUP1 PUSH1 0x0 MSTORE PUSH1 0x40 PUSH1 0x0 KECCAK256 PUSH1 0x0 SWAP2 POP SWAP1 POP SLOAD DUP2 JUMP JUMPDEST PUSH1 0x0 DUP1 PUSH1 0x3 PUSH1 0x0 CALLER PUSH20 0xFFFFFFFFFFFFFFFFFFFFFFFFFFFFFFFFFFFFFFFF AND PUSH20 0xFFFFFFFFFFFFFFFFFFFFFFFFFFFFFFFFFFFFFFFF AND DUP2 MSTORE PUSH1 0x20 ADD SWAP1 DUP2 MSTORE PUSH1 0x20 ADD PUSH1 0x0 KECCAK256 SLOAD DUP4 GT ISZERO PUSH2 0x2C2 JUMPI PUSH1 0x40 MLOAD PUSH32 0x8C379A000000000000000000000000000000000000000000000000000000000 DUP2 MSTORE PUSH1 0x4 ADD PUSH2 0x2B9 SWAP1 PUSH2 0xF73 JUMP JUMPDEST PUSH1 0x40 MLOAD DUP1 SWAP2 SUB SWAP1 REVERT JUMPDEST PUSH1 0x2 SLOAD DUP4 PUSH1 0x0 SLOAD PUSH2 0x2D3 SWAP2 SWAP1 PUSH2 0xFC2 JUMP JUMPDEST PUSH2 0x2DD SWAP2 SWAP1 PUSH2 0x104B JUMP JUMPDEST SWAP2 POP PUSH1 0x2 SLOAD DUP4 PUSH1 0x1 SLOAD PUSH2 0x2F0 SWAP2 SWAP1 PUSH2 0xFC2 JUMP JUMPDEST PUSH2 0x2FA SWAP2 SWAP1 PUSH2 0x104B JUMP JUMPDEST SWAP1 POP PUSH2 0x306 CALLER DUP5 PUSH2 0xBDE JUMP JUMPDEST PUSH2 0x32A DUP3 PUSH1 0x0 SLOAD PUSH2 0x317 SWAP2 SWAP1 PUSH2 0x107C JUMP JUMPDEST DUP3 PUSH1 0x1 SLOAD PUSH2 0x325 SWAP2 SWAP1 PUSH2 0x107C JUMP JUMPDEST PUSH2 0xC51 JUMP JUMPDEST PUSH1 0x0 DUP3 GT ISZERO PUSH2 0x3D3 JUMPI PUSH32 0x0 PUSH20 0xFFFFFFFFFFFFFFFFFFFFFFFFFFFFFFFFFFFFFFFF AND PUSH4 0xA9059CBB CALLER DUP5 PUSH1 0x40 MLOAD DUP4 PUSH4 0xFFFFFFFF AND PUSH1 0xE0 SHL DUP2 MSTORE PUSH1 0x4 ADD PUSH2 0x38E SWAP3 SWAP2 SWAP1 PUSH2 0x10BF JUMP JUMPDEST PUSH1 0x20 PUSH1 0x40 MLOAD DUP1 DUP4 SUB DUP2 PUSH1 0x0 DUP8 GAS CALL ISZERO DUP1 ISZERO PUSH2 0x3AD JUMPI RETURNDATASIZE PUSH1 0x0 DUP1 RETURNDATACOPY RETURNDATASIZE PUSH1 0x0 REVERT JUMPDEST POP POP POP POP PUSH1 0x40 MLOAD RETURNDATASIZE PUSH1 0x1F NOT PUSH1 0x1F DUP3 ADD AND DUP3 ADD DUP1 PUSH1 0x40 MSTORE POP DUP2 ADD SWAP1 PUSH2 0x3D1 SWAP2 SWAP1 PUSH2 0x1120 JUMP JUMPDEST POP JUMPDEST PUSH1 0x0 DUP2 GT ISZERO PUSH2 0x47C JUMPI PUSH32 0x0 PUSH20 0xFFFFFFFFFFFFFFFFFFFFFFFFFFFFFFFFFFFFFFFF AND PUSH4 0xA9059CBB CALLER DUP4 PUSH1 0x40 MLOAD DUP4 PUSH4 0xFFFFFFFF AND PUSH1 0xE0 SHL DUP2 MSTORE PUSH1 0x4 ADD PUSH2 0x437 SWAP3 SWAP2 SWAP1 PUSH2 0x10BF JUMP JUMPDEST PUSH1 0x20 PUSH1 0x40 MLOAD DUP1 DUP4 SUB DUP2 PUSH1 0x0 DUP8 GAS CALL ISZERO DUP1 ISZERO PUSH2 0x456 JUMPI RETURNDATASIZE PUSH1 0x0 DUP1 RETURNDATACOPY RETURNDATASIZE PUSH1 0x0 REVERT JUMPDEST POP POP POP POP PUSH1 0x40 MLOAD RETURNDATASIZE PUSH1 0x1F NOT PUSH1 0x1F DUP3 ADD AND DUP3 ADD DUP1 PUSH1 0x40 MSTORE POP DUP2 ADD SWAP1 PUSH2 0x47A SWAP2 SWAP1 PUSH2 0x1120 JUMP JUMPDEST POP JUMPDEST SWAP2 POP SWAP2 JUMP JUMPDEST PUSH1 0x0 PUSH32 0x0 PUSH20 0xFFFFFFFFFFFFFFFFFFFFFFFFFFFFFFFFFFFFFFFF AND PUSH4 0x23B872DD CALLER ADDRESS DUP7 PUSH1 0x40 MLOAD DUP5 PUSH4 0xFFFFFFFF AND PUSH1 0xE0 SHL DUP2 MSTORE PUSH1 0x4 ADD PUSH2 0x4E0 SWAP4 SWAP3 SWAP2 SWAP1 PUSH2 0x114D JUMP JUMPDEST PUSH1 0x20 PUSH1 0x40 MLOAD DUP1 DUP4 SUB DUP2 PUSH1 0x0 DUP8 GAS CALL ISZERO DUP1 ISZERO PUSH2 0x4FF JUMPI RETURNDATASIZE PUSH1 0x0 DUP1 RETURNDATACOPY RETURNDATASIZE PUSH1 0x0 REVERT JUMPDEST POP POP POP POP PUSH1 0x40 MLOAD RETURNDATASIZE PUSH1 0x1F NOT PUSH1 0x1F DUP3 ADD AND DUP3 ADD DUP1 PUSH1 0x40 MSTORE POP DUP2 ADD SWAP1 PUSH2 0x523 SWAP2 SWAP1 PUSH2 0x1120 JUMP JUMPDEST POP PUSH32 0x0 PUSH20 0xFFFFFFFFFFFFFFFFFFFFFFFFFFFFFFFFFFFFFFFF AND PUSH4 0x23B872DD CALLER ADDRESS DUP6 PUSH1 0x40 MLOAD DUP5 PUSH4 0xFFFFFFFF AND PUSH1 0xE0 SHL DUP2 MSTORE PUSH1 0x4 ADD PUSH2 0x581 SWAP4 SWAP3 SWAP2 SWAP1 PUSH2 0x114D JUMP JUMPDEST PUSH1 0x20 PUSH1 0x40 MLOAD DUP1 DUP4 SUB DUP2 PUSH1 0x0 DUP8 GAS CALL ISZERO DUP1 ISZERO PUSH2 0x5A0 JUMPI RETURNDATASIZE PUSH1 0x0 DUP1 RETURNDATACOPY RETURNDATASIZE PUSH1 0x0 REVERT JUMPDEST POP POP POP POP PUSH1 0x40 MLOAD RETURNDATASIZE PUSH1 0x1F NOT PUSH1 0x1F DUP3 ADD AND DUP3 ADD DUP1 PUSH1 0x40 MSTORE POP DUP2 ADD SWAP1 PUSH2 0x5C4 SWAP2 SWAP1 PUSH2 0x1120 JUMP JUMPDEST POP PUSH1 0x0 PUSH32 0x0 PUSH20 0xFFFFFFFFFFFFFFFFFFFFFFFFFFFFFFFFFFFFFFFF AND PUSH4 0x70A08231 ADDRESS PUSH1 0x40 MLOAD DUP3 PUSH4 0xFFFFFFFF AND PUSH1 0xE0 SHL DUP2 MSTORE PUSH1 0x4 ADD PUSH2 0x620 SWAP2 SWAP1 PUSH2 0x1184 JUMP JUMPDEST PUSH1 0x20 PUSH1 0x40 MLOAD DUP1 DUP4 SUB DUP2 DUP7 GAS STATICCALL ISZERO DUP1 ISZERO PUSH2 0x63D JUMPI RETURNDATASIZE PUSH1 0x0 DUP1 RETURNDATACOPY RETURNDATASIZE PUSH1 0x0 REVERT JUMPDEST POP POP POP POP PUSH1 0x40 MLOAD RETURNDATASIZE PUSH1 0x1F NOT PUSH1 0x1F DUP3 ADD AND DUP3 ADD DUP1 PUSH1 0x40 MSTORE POP DUP2 ADD SWAP1 PUSH2 0x661 SWAP2 SWAP1 PUSH2 0x11B4 JUMP JUMPDEST SWAP1 POP PUSH1 0x0 PUSH32 0x0 PUSH20 0xFFFFFFFFFFFFFFFFFFFFFFFFFFFFFFFFFFFFFFFF AND PUSH4 0x70A08231 ADDRESS PUSH1 0x40 MLOAD DUP3 PUSH4 0xFFFFFFFF AND PUSH1 0xE0 SHL DUP2 MSTORE PUSH1 0x4 ADD PUSH2 0x6BE SWAP2 SWAP1 PUSH2 0x1184 JUMP JUMPDEST PUSH1 0x20 PUSH1 0x40 MLOAD DUP1 DUP4 SUB DUP2 DUP7 GAS STATICCALL ISZERO DUP1 ISZERO PUSH2 0x6DB JUMPI RETURNDATASIZE PUSH1 0x0 DUP1 RETURNDATACOPY RETURNDATASIZE PUSH1 0x0 REVERT JUMPDEST POP POP POP POP PUSH1 0x40 MLOAD RETURNDATASIZE PUSH1 0x1F NOT PUSH1 0x1F DUP3 ADD AND DUP3 ADD DUP1 PUSH1 0x40 MSTORE POP DUP2 ADD SWAP1 PUSH2 0x6FF SWAP2 SWAP1 PUSH2 0x11B4 JUMP JUMPDEST SWAP1 POP PUSH1 0x0 DUP1 SLOAD DUP4 PUSH2 0x710 SWAP2 SWAP1 PUSH2 0x107C JUMP JUMPDEST SWAP1 POP PUSH1 0x0 PUSH1 0x1 SLOAD DUP4 PUSH2 0x722 SWAP2 SWAP1 PUSH2 0x107C JUMP JUMPDEST SWAP1 POP PUSH1 0x0 PUSH1 0x2 SLOAD SUB PUSH2 0x741 JUMPI DUP1 DUP3 PUSH2 0x73A SWAP2 SWAP1 PUSH2 0x11E1 JUMP JUMPDEST SWAP5 POP PUSH2 0x777 JUMP JUMPDEST PUSH1 0x1 SLOAD PUSH1 0x0 SLOAD PUSH2 0x751 SWAP2 SWAP1 PUSH2 0x11E1 JUMP JUMPDEST PUSH1 0x2 SLOAD DUP3 DUP5 PUSH2 0x760 SWAP2 SWAP1 PUSH2 0x11E1 JUMP JUMPDEST PUSH2 0x76A SWAP2 SWAP1 PUSH2 0xFC2 JUMP JUMPDEST PUSH2 0x774 SWAP2 SWAP1 PUSH2 0x104B JUMP JUMPDEST SWAP5 POP JUMPDEST PUSH1 0x0 DUP6 GT PUSH2 0x7BA JUMPI PUSH1 0x40 MLOAD PUSH32 0x8C379A000000000000000000000000000000000000000000000000000000000 DUP2 MSTORE PUSH1 0x4 ADD PUSH2 0x7B1 SWAP1 PUSH2 0x1283 JUMP JUMPDEST PUSH1 0x40 MLOAD DUP1 SWAP2 SUB SWAP1 REVERT JUMPDEST PUSH2 0x7C4 CALLER DUP7 PUSH2 0xC63 JUMP JUMPDEST PUSH2 0x7CE DUP5 DUP5 PUSH2 0xC51 JUMP JUMPDEST POP POP POP POP SWAP3 SWAP2 POP POP JUMP JUMPDEST PUSH1 0x0 PUSH32 0x0 PUSH20 0xFFFFFFFFFFFFFFFFFFFFFFFFFFFFFFFFFFFFFFFF AND DUP4 PUSH20 0xFFFFFFFFFFFFFFFFFFFFFFFFFFFFFFFFFFFFFFFF AND EQ DUP1 PUSH2 0x87F JUMPI POP PUSH32 0x0 PUSH20 0xFFFFFFFFFFFFFFFFFFFFFFFFFFFFFFFFFFFFFFFF AND DUP4 PUSH20 0xFFFFFFFFFFFFFFFFFFFFFFFFFFFFFFFFFFFFFFFF AND EQ JUMPDEST PUSH2 0x8BE JUMPI PUSH1 0x40 MLOAD PUSH32 0x8C379A000000000000000000000000000000000000000000000000000000000 DUP2 MSTORE PUSH1 0x4 ADD PUSH2 0x8B5 SWAP1 PUSH2 0x12EF JUMP JUMPDEST PUSH1 0x40 MLOAD DUP1 SWAP2 SUB SWAP1 REVERT JUMPDEST PUSH1 0x0 PUSH32 0x0 PUSH20 0xFFFFFFFFFFFFFFFFFFFFFFFFFFFFFFFFFFFFFFFF AND DUP5 PUSH20 0xFFFFFFFFFFFFFFFFFFFFFFFFFFFFFFFFFFFFFFFF AND EQ SWAP1 POP PUSH1 0x0 DUP1 PUSH1 0x0 DUP1 DUP5 PUSH2 0x969 JUMPI PUSH32 0x0 PUSH32 0x0 PUSH1 0x1 SLOAD PUSH1 0x0 SLOAD PUSH2 0x9B2 JUMP JUMPDEST PUSH32 0x0 PUSH32 0x0 PUSH1 0x0 SLOAD PUSH1 0x1 SLOAD JUMPDEST SWAP4 POP SWAP4 POP SWAP4 POP SWAP4 POP DUP4 PUSH20 0xFFFFFFFFFFFFFFFFFFFFFFFFFFFFFFFFFFFFFFFF AND PUSH4 0x23B872DD CALLER ADDRESS DUP11 PUSH1 0x40 MLOAD DUP5 PUSH4 0xFFFFFFFF AND PUSH1 0xE0 SHL DUP2 MSTORE PUSH1 0x4 ADD PUSH2 0x9F7 SWAP4 SWAP3 SWAP2 SWAP1 PUSH2 0x114D JUMP JUMPDEST PUSH1 0x20 PUSH1 0x40 MLOAD DUP1 DUP4 SUB DUP2 PUSH1 0x0 DUP8 GAS CALL ISZERO DUP1 ISZERO PUSH2 0xA16 JUMPI RETURNDATASIZE PUSH1 0x0 DUP1 RETURNDATACOPY RETURNDATASIZE PUSH1 0x0 REVERT JUMPDEST POP POP POP POP PUSH1 0x40 MLOAD RETURNDATASIZE PUSH1 0x1F NOT PUSH1 0x1F DUP3 ADD AND DUP3 ADD DUP1 PUSH1 0x40 MSTORE POP DUP2 ADD SWAP1 PUSH2 0xA3A SWAP2 SWAP1 PUSH2 0x1120 JUMP JUMPDEST POP PUSH1 0x0 DUP3 DUP6 PUSH20 0xFFFFFFFFFFFFFFFFFFFFFFFFFFFFFFFFFFFFFFFF AND PUSH4 0x70A08231 ADDRESS PUSH1 0x40 MLOAD DUP3 PUSH4 0xFFFFFFFF AND PUSH1 0xE0 SHL DUP2 MSTORE PUSH1 0x4 ADD PUSH2 0xA77 SWAP2 SWAP1 PUSH2 0x1184 JUMP JUMPDEST PUSH1 0x20 PUSH1 0x40 MLOAD DUP1 DUP4 SUB DUP2 DUP7 GAS STATICCALL ISZERO DUP1 ISZERO PUSH2 0xA94 JUMPI RETURNDATASIZE PUSH1 0x0 DUP1 RETURNDATACOPY RETURNDATASIZE PUSH1 0x0 REVERT JUMPDEST POP POP POP POP PUSH1 0x40 MLOAD RETURNDATASIZE PUSH1 0x1F NOT PUSH1 0x1F DUP3 ADD AND DUP3 ADD DUP1 PUSH1 0x40 MSTORE POP DUP2 ADD SWAP1 PUSH2 0xAB8 SWAP2 SWAP1 PUSH2 0x11B4 JUMP JUMPDEST PUSH2 0xAC2 SWAP2 SWAP1 PUSH2 0x107C JUMP JUMPDEST SWAP1 POP PUSH2 0x3E8 PUSH2 0x3E5 DUP3 PUSH2 0xAD5 SWAP2 SWAP1 PUSH2 0xFC2 JUMP JUMPDEST PUSH2 0xADF SWAP2 SWAP1 PUSH2 0x104B JUMP JUMPDEST SWAP7 POP PUSH1 0x0 DUP1 DUP8 PUSH2 0xB06 JUMPI DUP9 DUP5 PUSH2 0xAF5 SWAP2 SWAP1 PUSH2 0x107C JUMP JUMPDEST DUP4 DUP7 PUSH2 0xB01 SWAP2 SWAP1 PUSH2 0x11E1 JUMP JUMPDEST PUSH2 0xB1F JUMP JUMPDEST DUP3 DUP6 PUSH2 0xB12 SWAP2 SWAP1 PUSH2 0x11E1 JUMP JUMPDEST DUP10 DUP6 PUSH2 0xB1E SWAP2 SWAP1 PUSH2 0x107C JUMP JUMPDEST JUMPDEST SWAP2 POP SWAP2 POP PUSH2 0xB2D DUP3 DUP3 PUSH2 0xC51 JUMP JUMPDEST DUP6 PUSH20 0xFFFFFFFFFFFFFFFFFFFFFFFFFFFFFFFFFFFFFFFF AND PUSH4 0xA9059CBB CALLER DUP12 PUSH1 0x40 MLOAD DUP4 PUSH4 0xFFFFFFFF AND PUSH1 0xE0 SHL DUP2 MSTORE PUSH1 0x4 ADD PUSH2 0xB68 SWAP3 SWAP2 SWAP1 PUSH2 0x10BF JUMP JUMPDEST PUSH1 0x20 PUSH1 0x40 MLOAD DUP1 DUP4 SUB DUP2 PUSH1 0x0 DUP8 GAS CALL ISZERO DUP1 ISZERO PUSH2 0xB87 JUMPI RETURNDATASIZE PUSH1 0x0 DUP1 RETURNDATACOPY RETURNDATASIZE PUSH1 0x0 REVERT JUMPDEST POP POP POP POP PUSH1 0x40 MLOAD RETURNDATASIZE PUSH1 0x1F NOT PUSH1 0x1F DUP3 ADD AND DUP3 ADD DUP1 PUSH1 0x40 MSTORE POP DUP2 ADD SWAP1 PUSH2 0xBAB SWAP2 SWAP1 PUSH2 0x1120 JUMP JUMPDEST POP POP POP POP POP POP POP POP POP SWAP3 SWAP2 POP POP JUMP JUMPDEST PUSH32 0x0 DUP2 JUMP JUMPDEST DUP1 PUSH1 0x3 PUSH1 0x0 DUP5 PUSH20 0xFFFFFFFFFFFFFFFFFFFFFFFFFFFFFFFFFFFFFFFF AND PUSH20 0xFFFFFFFFFFFFFFFFFFFFFFFFFFFFFFFFFFFFFFFF AND DUP2 MSTORE PUSH1 0x20 ADD SWAP1 DUP2 MSTORE PUSH1 0x20 ADD PUSH1 0x0 KECCAK256 PUSH1 0x0 DUP3 DUP3 SLOAD PUSH2 0xC2D SWAP2 SWAP1 PUSH2 0x107C JUMP JUMPDEST SWAP3 POP POP DUP2 SWAP1 SSTORE POP DUP1 PUSH1 0x2 PUSH1 0x0 DUP3 DUP3 SLOAD PUSH2 0xC46 SWAP2 SWAP1 PUSH2 0x107C JUMP JUMPDEST SWAP3 POP POP DUP2 SWAP1 SSTORE POP POP POP JUMP JUMPDEST DUP2 PUSH1 0x0 DUP2 SWAP1 SSTORE POP DUP1 PUSH1 0x1 DUP2 SWAP1 SSTORE POP POP POP JUMP JUMPDEST DUP1 PUSH1 0x3 PUSH1 0x0 DUP5 PUSH20 0xFFFFFFFFFFFFFFFFFFFFFFFFFFFFFFFFFFFFFFFF AND PUSH20 0xFFFFFFFFFFFFFFFFFFFFFFFFFFFFFFFFFFFFFFFF AND DUP2 MSTORE PUSH1 0x20 ADD SWAP1 DUP2 MSTORE PUSH1 0x20 ADD PUSH1 0x0 KECCAK256 PUSH1 0x0 DUP3 DUP3 SLOAD PUSH2 0xCB2 SWAP2 SWAP1 PUSH2 0x11E1 JUMP JUMPDEST SWAP3 POP POP DUP2 SWAP1 SSTORE POP DUP1 PUSH1 0x2 PUSH1 0x0 DUP3 DUP3 SLOAD PUSH2 0xCCB SWAP2 SWAP1 PUSH2 0x11E1 JUMP JUMPDEST SWAP3 POP POP DUP2 SWAP1 SSTORE POP POP POP JUMP JUMPDEST PUSH1 0x0 PUSH20 0xFFFFFFFFFFFFFFFFFFFFFFFFFFFFFFFFFFFFFFFF DUP3 AND SWAP1 POP SWAP2 SWAP1 POP JUMP JUMPDEST PUSH1 0x0 DUP2 SWAP1 POP SWAP2 SWAP1 POP JUMP JUMPDEST PUSH1 0x0 PUSH2 0xD1B PUSH2 0xD16 PUSH2 0xD11 DUP5 PUSH2 0xCD6 JUMP JUMPDEST PUSH2 0xCF6 JUMP JUMPDEST PUSH2 0xCD6 JUMP JUMPDEST SWAP1 POP SWAP2 SWAP1 POP JUMP JUMPDEST PUSH1 0x0 PUSH2 0xD2D DUP3 PUSH2 0xD00 JUMP JUMPDEST SWAP1 POP SWAP2 SWAP1 POP JUMP JUMPDEST PUSH1 0x0 PUSH2 0xD3F DUP3 PUSH2 0xD22 JUMP JUMPDEST SWAP1 POP SWAP2 SWAP1 POP JUMP JUMPDEST PUSH2 0xD4F DUP2 PUSH2 0xD34 JUMP JUMPDEST DUP3 MSTORE POP POP JUMP JUMPDEST PUSH1 0x0 PUSH1 0x20 DUP3 ADD SWAP1 POP PUSH2 0xD6A PUSH1 0x0 DUP4 ADD DUP5 PUSH2 0xD46 JUMP JUMPDEST SWAP3 SWAP2 POP POP JUMP JUMPDEST PUSH1 0x0 DUP2 SWAP1 POP SWAP2 SWAP1 POP JUMP JUMPDEST PUSH2 0xD83 DUP2 PUSH2 0xD70 JUMP JUMPDEST DUP3 MSTORE POP POP JUMP JUMPDEST PUSH1 0x0 PUSH1 0x20 DUP3 ADD SWAP1 POP PUSH2 0xD9E PUSH1 0x0 DUP4 ADD DUP5 PUSH2 0xD7A JUMP JUMPDEST SWAP3 SWAP2 POP POP JUMP JUMPDEST PUSH1 0x0 DUP1 REVERT JUMPDEST PUSH1 0x0 PUSH2 0xDB4 DUP3 PUSH2 0xCD6 JUMP JUMPDEST SWAP1 POP SWAP2 SWAP1 POP JUMP JUMPDEST PUSH2 0xDC4 DUP2 PUSH2 0xDA9 JUMP JUMPDEST DUP2 EQ PUSH2 0xDCF JUMPI PUSH1 0x0 DUP1 REVERT JUMPDEST POP JUMP JUMPDEST PUSH1 0x0 DUP2 CALLDATALOAD SWAP1 POP PUSH2 0xDE1 DUP2 PUSH2 0xDBB JUMP JUMPDEST SWAP3 SWAP2 POP POP JUMP JUMPDEST PUSH1 0x0 PUSH1 0x20 DUP3 DUP5 SUB SLT ISZERO PUSH2 0xDFD JUMPI PUSH2 0xDFC PUSH2 0xDA4 JUMP JUMPDEST JUMPDEST PUSH1 0x0 PUSH2 0xE0B DUP5 DUP3 DUP6 ADD PUSH2 0xDD2 JUMP JUMPDEST SWAP2 POP POP SWAP3 SWAP2 POP POP JUMP JUMPDEST PUSH2 0xE1D DUP2 PUSH2 0xD70 JUMP JUMPDEST DUP2 EQ PUSH2 0xE28 JUMPI PUSH1 0x0 DUP1 REVERT JUMPDEST POP JUMP JUMPDEST PUSH1 0x0 DUP2 CALLDATALOAD SWAP1 POP PUSH2 0xE3A DUP2 PUSH2 0xE14 JUMP JUMPDEST SWAP3 SWAP2 POP POP JUMP JUMPDEST PUSH1 0x0 PUSH1 0x20 DUP3 DUP5 SUB SLT ISZERO PUSH2 0xE56 JUMPI PUSH2 0xE55 PUSH2 0xDA4 JUMP JUMPDEST JUMPDEST PUSH1 0x0 PUSH2 0xE64 DUP5 DUP3 DUP6 ADD PUSH2 0xE2B JUMP JUMPDEST SWAP2 POP POP SWAP3 SWAP2 POP POP JUMP JUMPDEST PUSH1 0x0 PUSH1 0x40 DUP3 ADD SWAP1 POP PUSH2 0xE82 PUSH1 0x0 DUP4 ADD DUP6 PUSH2 0xD7A JUMP JUMPDEST PUSH2 0xE8F PUSH1 0x20 DUP4 ADD DUP5 PUSH2 0xD7A JUMP JUMPDEST SWAP4 SWAP3 POP POP POP JUMP JUMPDEST PUSH1 0x0 DUP1 PUSH1 0x40 DUP4 DUP6 SUB SLT ISZERO PUSH2 0xEAD JUMPI PUSH2 0xEAC PUSH2 0xDA4 JUMP JUMPDEST JUMPDEST PUSH1 0x0 PUSH2 0xEBB DUP6 DUP3 DUP7 ADD PUSH2 0xE2B JUMP JUMPDEST SWAP3 POP POP PUSH1 0x20 PUSH2 0xECC DUP6 DUP3 DUP7 ADD PUSH2 0xE2B JUMP JUMPDEST SWAP2 POP POP SWAP3 POP SWAP3 SWAP1 POP JUMP JUMPDEST PUSH1 0x0 DUP1 PUSH1 0x40 DUP4 DUP6 SUB SLT ISZERO PUSH2 0xEED JUMPI PUSH2 0xEEC PUSH2 0xDA4 JUMP JUMPDEST JUMPDEST PUSH1 0x0 PUSH2 0xEFB DUP6 DUP3 DUP7 ADD PUSH2 0xDD2 JUMP JUMPDEST SWAP3 POP POP PUSH1 0x20 PUSH2 0xF0C DUP6 DUP3 DUP7 ADD PUSH2 0xE2B JUMP JUMPDEST SWAP2 POP POP SWAP3 POP SWAP3 SWAP1 POP JUMP JUMPDEST PUSH1 0x0 DUP3 DUP3 MSTORE PUSH1 0x20 DUP3 ADD SWAP1 POP SWAP3 SWAP2 POP POP JUMP JUMPDEST PUSH32 0x696E76616C6964207175616E7469747900000000000000000000000000000000 PUSH1 0x0 DUP3 ADD MSTORE POP JUMP JUMPDEST PUSH1 0x0 PUSH2 0xF5D PUSH1 0x10 DUP4 PUSH2 0xF16 JUMP JUMPDEST SWAP2 POP PUSH2 0xF68 DUP3 PUSH2 0xF27 JUMP JUMPDEST PUSH1 0x20 DUP3 ADD SWAP1 POP SWAP2 SWAP1 POP JUMP JUMPDEST PUSH1 0x0 PUSH1 0x20 DUP3 ADD SWAP1 POP DUP2 DUP2 SUB PUSH1 0x0 DUP4 ADD MSTORE PUSH2 0xF8C DUP2 PUSH2 0xF50 JUMP JUMPDEST SWAP1 POP SWAP2 SWAP1 POP JUMP JUMPDEST PUSH32 0x4E487B7100000000000000000000000000000000000000000000000000000000 PUSH1 0x0 MSTORE PUSH1 0x11 PUSH1 0x4 MSTORE PUSH1 0x24 PUSH1 0x0 REVERT JUMPDEST PUSH1 0x0 PUSH2 0xFCD DUP3 PUSH2 0xD70 JUMP JUMPDEST SWAP2 POP PUSH2 0xFD8 DUP4 PUSH2 0xD70 JUMP JUMPDEST SWAP3 POP DUP2 PUSH32 0xFFFFFFFFFFFFFFFFFFFFFFFFFFFFFFFFFFFFFFFFFFFFFFFFFFFFFFFFFFFFFFFF DIV DUP4 GT DUP3 ISZERO ISZERO AND ISZERO PUSH2 0x1011 JUMPI PUSH2 0x1010 PUSH2 0xF93 JUMP JUMPDEST JUMPDEST DUP3 DUP3 MUL SWAP1 POP SWAP3 SWAP2 POP POP JUMP JUMPDEST PUSH32 0x4E487B7100000000000000000000000000000000000000000000000000000000 PUSH1 0x0 MSTORE PUSH1 0x12 PUSH1 0x4 MSTORE PUSH1 0x24 PUSH1 0x0 REVERT JUMPDEST PUSH1 0x0 PUSH2 0x1056 DUP3 PUSH2 0xD70 JUMP JUMPDEST SWAP2 POP PUSH2 0x1061 DUP4 PUSH2 0xD70 JUMP JUMPDEST SWAP3 POP DUP3 PUSH2 0x1071 JUMPI PUSH2 0x1070 PUSH2 0x101C JUMP JUMPDEST JUMPDEST DUP3 DUP3 DIV SWAP1 POP SWAP3 SWAP2 POP POP JUMP JUMPDEST PUSH1 0x0 PUSH2 0x1087 DUP3 PUSH2 0xD70 JUMP JUMPDEST SWAP2 POP PUSH2 0x1092 DUP4 PUSH2 0xD70 JUMP JUMPDEST SWAP3 POP DUP3 DUP3 LT ISZERO PUSH2 0x10A5 JUMPI PUSH2 0x10A4 PUSH2 0xF93 JUMP JUMPDEST JUMPDEST DUP3 DUP3 SUB SWAP1 POP SWAP3 SWAP2 POP POP JUMP JUMPDEST PUSH2 0x10B9 DUP2 PUSH2 0xDA9 JUMP JUMPDEST DUP3 MSTORE POP POP JUMP JUMPDEST PUSH1 0x0 PUSH1 0x40 DUP3 ADD SWAP1 POP PUSH2 0x10D4 PUSH1 0x0 DUP4 ADD DUP6 PUSH2 0x10B0 JUMP JUMPDEST PUSH2 0x10E1 PUSH1 0x20 DUP4 ADD DUP5 PUSH2 0xD7A JUMP JUMPDEST SWAP4 SWAP3 POP POP POP JUMP JUMPDEST PUSH1 0x0 DUP2 ISZERO ISZERO SWAP1 POP SWAP2 SWAP1 POP JUMP JUMPDEST PUSH2 0x10FD DUP2 PUSH2 0x10E8 JUMP JUMPDEST DUP2 EQ PUSH2 0x1108 JUMPI PUSH1 0x0 DUP1 REVERT JUMPDEST POP JUMP JUMPDEST PUSH1 0x0 DUP2 MLOAD SWAP1 POP PUSH2 0x111A DUP2 PUSH2 0x10F4 JUMP JUMPDEST SWAP3 SWAP2 POP POP JUMP JUMPDEST PUSH1 0x0 PUSH1 0x20 DUP3 DUP5 SUB SLT ISZERO PUSH2 0x1136 JUMPI PUSH2 0x1135 PUSH2 0xDA4 JUMP JUMPDEST JUMPDEST PUSH1 0x0 PUSH2 0x1144 DUP5 DUP3 DUP6 ADD PUSH2 0x110B JUMP JUMPDEST SWAP2 POP POP SWAP3 SWAP2 POP POP JUMP JUMPDEST PUSH1 0x0 PUSH1 0x60 DUP3 ADD SWAP1 POP PUSH2 0x1162 PUSH1 0x0 DUP4 ADD DUP7 PUSH2 0x10B0 JUMP JUMPDEST PUSH2 0x116F PUSH1 0x20 DUP4 ADD DUP6 PUSH2 0x10B0 JUMP JUMPDEST PUSH2 0x117C PUSH1 0x40 DUP4 ADD DUP5 PUSH2 0xD7A JUMP JUMPDEST SWAP5 SWAP4 POP POP POP POP JUMP JUMPDEST PUSH1 0x0 PUSH1 0x20 DUP3 ADD SWAP1 POP PUSH2 0x1199 PUSH1 0x0 DUP4 ADD DUP5 PUSH2 0x10B0 JUMP JUMPDEST SWAP3 SWAP2 POP POP JUMP JUMPDEST PUSH1 0x0 DUP2 MLOAD SWAP1 POP PUSH2 0x11AE DUP2 PUSH2 0xE14 JUMP JUMPDEST SWAP3 SWAP2 POP POP JUMP JUMPDEST PUSH1 0x0 PUSH1 0x20 DUP3 DUP5 SUB SLT ISZERO PUSH2 0x11CA JUMPI PUSH2 0x11C9 PUSH2 0xDA4 JUMP JUMPDEST JUMPDEST PUSH1 0x0 PUSH2 0x11D8 DUP5 DUP3 DUP6 ADD PUSH2 0x119F JUMP JUMPDEST SWAP2 POP POP SWAP3 SWAP2 POP POP JUMP JUMPDEST PUSH1 0x0 PUSH2 0x11EC DUP3 PUSH2 0xD70 JUMP JUMPDEST SWAP2 POP PUSH2 0x11F7 DUP4 PUSH2 0xD70 JUMP JUMPDEST SWAP3 POP DUP3 PUSH32 0xFFFFFFFFFFFFFFFFFFFFFFFFFFFFFFFFFFFFFFFFFFFFFFFFFFFFFFFFFFFFFFFF SUB DUP3 GT ISZERO PUSH2 0x122C JUMPI PUSH2 0x122B PUSH2 0xF93 JUMP JUMPDEST JUMPDEST DUP3 DUP3 ADD SWAP1 POP SWAP3 SWAP2 POP POP JUMP JUMPDEST PUSH32 0x736861726573203D203000000000000000000000000000000000000000000000 PUSH1 0x0 DUP3 ADD MSTORE POP JUMP JUMPDEST PUSH1 0x0 PUSH2 0x126D PUSH1 0xA DUP4 PUSH2 0xF16 JUMP JUMPDEST SWAP2 POP PUSH2 0x1278 DUP3 PUSH2 0x1237 JUMP JUMPDEST PUSH1 0x20 DUP3 ADD SWAP1 POP SWAP2 SWAP1 POP JUMP JUMPDEST PUSH1 0x0 PUSH1 0x20 DUP3 ADD SWAP1 POP DUP2 DUP2 SUB PUSH1 0x0 DUP4 ADD MSTORE PUSH2 0x129C DUP2 PUSH2 0x1260 JUMP JUMPDEST SWAP1 POP SWAP2 SWAP1 POP JUMP JUMPDEST PUSH32 0x696E76616C696420746F6B656E00000000000000000000000000000000000000 PUSH1 0x0 DUP3 ADD MSTORE POP JUMP JUMPDEST PUSH1 0x0 PUSH2 0x12D9 PUSH1 0xD DUP4 PUSH2 0xF16 JUMP JUMPDEST SWAP2 POP PUSH2 0x12E4 DUP3 PUSH2 0x12A3 JUMP JUMPDEST PUSH1 0x20 DUP3 ADD SWAP1 POP SWAP2 SWAP1 POP JUMP JUMPDEST PUSH1 0x0 PUSH1 0x20 DUP3 ADD SWAP1 POP DUP2 DUP2 SUB PUSH1 0x0 DUP4 ADD MSTORE PUSH2 0x1308 DUP2 PUSH2 0x12CC JUMP JUMPDEST SWAP1 POP SWAP2 SWAP1 POP JUMP INVALID LOG2 PUSH5 0x6970667358 0x22 SLT KECCAK256 DELEGATECALL SWAP1 SWAP9 0xBC 0xB6 SHR ADDMOD 0xE3 PUSH29 0x81A363C5A96DDF923DCD1A3AF44B81419C0B262548132B64736F6C6343 STOP ADDMOD 0xF STOP CALLER "
				},
				"gasEstimates": {
					"creation": {
						"codeDepositCost": "986600",
						"executionCost": "infinite",
						"totalCost": "infinite"
					},
					"external": {
						"addLiquidity(uint256,uint256)": "infinite",
						"balanceOf(address)": "2814",
						"removeLiquidity(uint256)": "infinite",
						"reserve0()": "2474",
						"reserve1()": "2496",
						"swap(address,uint256)": "infinite",
						"token0()": "infinite",
						"token1()": "infinite",
						"totalSupply()": "2452"
					},
					"internal": {
						"_burn(address,uint256)": "infinite",
						"_mint(address,uint256)": "infinite",
						"_update(uint256,uint256)": "44241"
					}
				},
				"methodIdentifiers": {
					"addLiquidity(uint256,uint256)": "9cd441da",
					"balanceOf(address)": "70a08231",
					"removeLiquidity(uint256)": "9c8f9f23",
					"reserve0()": "443cb4bc",
					"reserve1()": "5a76f25e",
					"swap(address,uint256)": "d004f0f7",
					"token0()": "0dfe1681",
					"token1()": "d21220a7",
					"totalSupply()": "18160ddd"
				}
			},
			"storageLayout": {
				"storage": [
					{
						"astId": 10,
						"contract": "contracts/DeFi/CSAMM2.sol:CSAMM",
						"label": "reserve0",
						"offset": 0,
						"slot": "0",
						"type": "t_uint256"
					},
					{
						"astId": 12,
						"contract": "contracts/DeFi/CSAMM2.sol:CSAMM",
						"label": "reserve1",
						"offset": 0,
						"slot": "1",
						"type": "t_uint256"
					},
					{
						"astId": 14,
						"contract": "contracts/DeFi/CSAMM2.sol:CSAMM",
						"label": "totalSupply",
						"offset": 0,
						"slot": "2",
						"type": "t_uint256"
					},
					{
						"astId": 18,
						"contract": "contracts/DeFi/CSAMM2.sol:CSAMM",
						"label": "balanceOf",
						"offset": 0,
						"slot": "3",
						"type": "t_mapping(t_address,t_uint256)"
					}
				],
				"types": {
					"t_address": {
						"encoding": "inplace",
						"label": "address",
						"numberOfBytes": "20"
					},
					"t_mapping(t_address,t_uint256)": {
						"encoding": "mapping",
						"key": "t_address",
						"label": "mapping(address => uint256)",
						"numberOfBytes": "32",
						"value": "t_uint256"
					},
					"t_uint256": {
						"encoding": "inplace",
						"label": "uint256",
						"numberOfBytes": "32"
					}
				}
			},
			"userdoc": {
				"kind": "user",
				"methods": {},
				"version": 1
			}
		}
	}
}