{
	"contracts/DeFi/MultiSigV2.sol": {
		"MultiSigWallet": {
			"abi": [
				{
					"inputs": [
						{
							"internalType": "address[]",
							"name": "_owners",
							"type": "address[]"
						},
						{
							"internalType": "uint256",
							"name": "_required",
							"type": "uint256"
						}
					],
					"stateMutability": "nonpayable",
					"type": "constructor"
				},
				{
					"inputs": [],
					"name": "AlreadyOwner",
					"type": "error"
				},
				{
					"inputs": [],
					"name": "InvalidNumRequired",
					"type": "error"
				},
				{
					"inputs": [],
					"name": "InvalidOwnerAddress",
					"type": "error"
				},
				{
					"inputs": [],
					"name": "LessConfirmationsThanRequired",
					"type": "error"
				},
				{
					"inputs": [],
					"name": "NotOwner",
					"type": "error"
				},
				{
					"inputs": [],
					"name": "TxAlreadyApproved",
					"type": "error"
				},
				{
					"inputs": [],
					"name": "TxAlreadyExecuted",
					"type": "error"
				},
				{
					"inputs": [],
					"name": "TxDoesNotExist",
					"type": "error"
				},
				{
					"inputs": [],
					"name": "TxExecutionFailed",
					"type": "error"
				},
				{
					"inputs": [],
					"name": "TxNotApproved",
					"type": "error"
				},
				{
					"anonymous": false,
					"inputs": [
						{
							"indexed": true,
							"internalType": "uint256",
							"name": "txId",
							"type": "uint256"
						},
						{
							"indexed": true,
							"internalType": "address",
							"name": "approver",
							"type": "address"
						}
					],
					"name": "ApprovedTx",
					"type": "event"
				},
				{
					"anonymous": false,
					"inputs": [
						{
							"indexed": true,
							"internalType": "address",
							"name": "sender",
							"type": "address"
						},
						{
							"indexed": true,
							"internalType": "uint256",
							"name": "value",
							"type": "uint256"
						},
						{
							"indexed": false,
							"internalType": "uint256",
							"name": "balance",
							"type": "uint256"
						}
					],
					"name": "Deposit",
					"type": "event"
				},
				{
					"anonymous": false,
					"inputs": [
						{
							"indexed": true,
							"internalType": "address",
							"name": "owner",
							"type": "address"
						},
						{
							"indexed": true,
							"internalType": "uint256",
							"name": "txId",
							"type": "uint256"
						}
					],
					"name": "RevokeApproval",
					"type": "event"
				},
				{
					"anonymous": false,
					"inputs": [
						{
							"indexed": true,
							"internalType": "address",
							"name": "to",
							"type": "address"
						},
						{
							"indexed": true,
							"internalType": "uint256",
							"name": "value",
							"type": "uint256"
						},
						{
							"indexed": true,
							"internalType": "bytes",
							"name": "data",
							"type": "bytes"
						}
					],
					"name": "SubmittedTx",
					"type": "event"
				},
				{
					"anonymous": false,
					"inputs": [
						{
							"indexed": true,
							"internalType": "address",
							"name": "to",
							"type": "address"
						},
						{
							"indexed": true,
							"internalType": "uint256",
							"name": "value",
							"type": "uint256"
						},
						{
							"indexed": true,
							"internalType": "bytes",
							"name": "data",
							"type": "bytes"
						},
						{
							"indexed": false,
							"internalType": "address",
							"name": "executor",
							"type": "address"
						}
					],
					"name": "TxExecuted",
					"type": "event"
				},
				{
					"inputs": [
						{
							"internalType": "uint256",
							"name": "_txId",
							"type": "uint256"
						}
					],
					"name": "approveTx",
					"outputs": [],
					"stateMutability": "nonpayable",
					"type": "function"
				},
				{
					"inputs": [
						{
							"internalType": "uint256",
							"name": "_txId",
							"type": "uint256"
						},
						{
							"internalType": "address",
							"name": "_approver",
							"type": "address"
						}
					],
					"name": "checkApproved",
					"outputs": [
						{
							"internalType": "bool",
							"name": "",
							"type": "bool"
						}
					],
					"stateMutability": "view",
					"type": "function"
				},
				{
					"inputs": [
						{
							"internalType": "address",
							"name": "_owner",
							"type": "address"
						}
					],
					"name": "checkOwner",
					"outputs": [
						{
							"internalType": "bool",
							"name": "",
							"type": "bool"
						}
					],
					"stateMutability": "view",
					"type": "function"
				},
				{
					"inputs": [
						{
							"internalType": "uint256",
							"name": "_txId",
							"type": "uint256"
						}
					],
					"name": "executeTx",
					"outputs": [],
					"stateMutability": "nonpayable",
					"type": "function"
				},
				{
					"inputs": [
						{
							"internalType": "uint256",
							"name": "_txId",
							"type": "uint256"
						}
					],
					"name": "getTransaction",
					"outputs": [
						{
							"components": [
								{
									"internalType": "uint256",
									"name": "id",
									"type": "uint256"
								},
								{
									"internalType": "address",
									"name": "to",
									"type": "address"
								},
								{
									"internalType": "uint256",
									"name": "value",
									"type": "uint256"
								},
								{
									"internalType": "bytes",
									"name": "data",
									"type": "bytes"
								},
								{
									"internalType": "uint256",
									"name": "confirmations",
									"type": "uint256"
								},
								{
									"internalType": "bool",
									"name": "executed",
									"type": "bool"
								}
							],
							"internalType": "struct MultiSigWallet.Transaction",
							"name": "",
							"type": "tuple"
						}
					],
					"stateMutability": "view",
					"type": "function"
				},
				{
					"inputs": [],
					"name": "required",
					"outputs": [
						{
							"internalType": "uint256",
							"name": "",
							"type": "uint256"
						}
					],
					"stateMutability": "view",
					"type": "function"
				},
				{
					"inputs": [
						{
							"internalType": "uint256",
							"name": "_txId",
							"type": "uint256"
						}
					],
					"name": "revokeApproval",
					"outputs": [],
					"stateMutability": "nonpayable",
					"type": "function"
				},
				{
					"inputs": [
						{
							"internalType": "address",
							"name": "_to",
							"type": "address"
						},
						{
							"internalType": "uint256",
							"name": "_value",
							"type": "uint256"
						},
						{
							"internalType": "bytes",
							"name": "_data",
							"type": "bytes"
						}
					],
					"name": "submitTx",
					"outputs": [],
					"stateMutability": "nonpayable",
					"type": "function"
				},
				{
					"inputs": [],
					"name": "txId",
					"outputs": [
						{
							"internalType": "uint256",
							"name": "",
							"type": "uint256"
						}
					],
					"stateMutability": "view",
					"type": "function"
				},
				{
					"stateMutability": "payable",
					"type": "receive"
				}
			],
			"devdoc": {
				"kind": "dev",
				"methods": {},
				"version": 1
			},
			"evm": {
				"assembly": "    /* \"contracts/DeFi/MultiSigV2.sol\":58:4560  contract MultiSigWallet {... */\n  mstore(0x40, 0x80)\n    /* \"contracts/DeFi/MultiSigV2.sol\":1766:2280  constructor(address[] memory _owners, uint256 _required) {... */\n  callvalue\n  dup1\n  iszero\n  tag_1\n  jumpi\n  0x00\n  dup1\n  revert\ntag_1:\n  pop\n  mload(0x40)\n  sub(codesize, bytecodeSize)\n  dup1\n  bytecodeSize\n  dup4\n  codecopy\n  dup2\n  dup2\n  add\n  0x40\n  mstore\n  dup2\n  add\n  swap1\n  tag_2\n  swap2\n  swap1\n  tag_3\n  jump\t// in\ntag_2:\n    /* \"contracts/DeFi/MultiSigV2.sol\":1849:1856  _owners */\n  dup2\n    /* \"contracts/DeFi/MultiSigV2.sol\":1849:1863  _owners.length */\n  mload\n    /* \"contracts/DeFi/MultiSigV2.sol\":1837:1846  _required */\n  dup2\n    /* \"contracts/DeFi/MultiSigV2.sol\":1837:1863  _required > _owners.length */\n  gt\n    /* \"contracts/DeFi/MultiSigV2.sol\":1833:1917  if (_required > _owners.length) {... */\n  iszero\n  tag_6\n  jumpi\n    /* \"contracts/DeFi/MultiSigV2.sol\":1886:1906  InvalidNumRequired() */\n  mload(0x40)\n  0xaa6eac5100000000000000000000000000000000000000000000000000000000\n  dup2\n  mstore\n  0x04\n  add\n  mload(0x40)\n  dup1\n  swap2\n  sub\n  swap1\n  revert\n    /* \"contracts/DeFi/MultiSigV2.sol\":1833:1917  if (_required > _owners.length) {... */\ntag_6:\n    /* \"contracts/DeFi/MultiSigV2.sol\":1931:1940  uint256 i */\n  0x00\n    /* \"contracts/DeFi/MultiSigV2.sol\":1926:2244  for (uint256 i = 0; i < _owners.length; i++) {... */\ntag_7:\n    /* \"contracts/DeFi/MultiSigV2.sol\":1950:1957  _owners */\n  dup3\n    /* \"contracts/DeFi/MultiSigV2.sol\":1950:1964  _owners.length */\n  mload\n    /* \"contracts/DeFi/MultiSigV2.sol\":1946:1947  i */\n  dup2\n    /* \"contracts/DeFi/MultiSigV2.sol\":1946:1964  i < _owners.length */\n  lt\n    /* \"contracts/DeFi/MultiSigV2.sol\":1926:2244  for (uint256 i = 0; i < _owners.length; i++) {... */\n  iszero\n  tag_8\n  jumpi\n    /* \"contracts/DeFi/MultiSigV2.sol\":1985:1998  address owner */\n  0x00\n    /* \"contracts/DeFi/MultiSigV2.sol\":2001:2008  _owners */\n  dup4\n    /* \"contracts/DeFi/MultiSigV2.sol\":2009:2010  i */\n  dup3\n    /* \"contracts/DeFi/MultiSigV2.sol\":2001:2011  _owners[i] */\n  dup2\n  mload\n  dup2\n  lt\n  tag_10\n  jumpi\n  tag_11\n  tag_12\n  jump\t// in\ntag_11:\ntag_10:\n  0x20\n  mul\n  0x20\n  add\n  add\n  mload\n    /* \"contracts/DeFi/MultiSigV2.sol\":1985:2011  address owner = _owners[i] */\n  swap1\n  pop\n    /* \"contracts/DeFi/MultiSigV2.sol\":2047:2048  0 */\n  0x00\n    /* \"contracts/DeFi/MultiSigV2.sol\":2030:2049  owner == address(0) */\n  0xffffffffffffffffffffffffffffffffffffffff\n  and\n    /* \"contracts/DeFi/MultiSigV2.sol\":2030:2035  owner */\n  dup2\n    /* \"contracts/DeFi/MultiSigV2.sol\":2030:2049  owner == address(0) */\n  0xffffffffffffffffffffffffffffffffffffffff\n  and\n  eq\n    /* \"contracts/DeFi/MultiSigV2.sol\":2026:2112  if (owner == address(0)) {... */\n  iszero\n  tag_13\n  jumpi\n    /* \"contracts/DeFi/MultiSigV2.sol\":2076:2097  InvalidOwnerAddress() */\n  mload(0x40)\n  0xd924e5f400000000000000000000000000000000000000000000000000000000\n  dup2\n  mstore\n  0x04\n  add\n  mload(0x40)\n  dup1\n  swap2\n  sub\n  swap1\n  revert\n    /* \"contracts/DeFi/MultiSigV2.sol\":2026:2112  if (owner == address(0)) {... */\ntag_13:\n    /* \"contracts/DeFi/MultiSigV2.sol\":2129:2136  isOwner */\n  0x00\n    /* \"contracts/DeFi/MultiSigV2.sol\":2129:2143  isOwner[owner] */\n  dup1\n    /* \"contracts/DeFi/MultiSigV2.sol\":2137:2142  owner */\n  dup3\n    /* \"contracts/DeFi/MultiSigV2.sol\":2129:2143  isOwner[owner] */\n  0xffffffffffffffffffffffffffffffffffffffff\n  and\n  0xffffffffffffffffffffffffffffffffffffffff\n  and\n  dup2\n  mstore\n  0x20\n  add\n  swap1\n  dup2\n  mstore\n  0x20\n  add\n  0x00\n  keccak256\n  0x00\n  swap1\n  sload\n  swap1\n  0x0100\n  exp\n  swap1\n  div\n  0xff\n  and\n    /* \"contracts/DeFi/MultiSigV2.sol\":2125:2199  if (isOwner[owner]) {... */\n  iszero\n  tag_14\n  jumpi\n    /* \"contracts/DeFi/MultiSigV2.sol\":2170:2184  AlreadyOwner() */\n  mload(0x40)\n  0xc0159e0e00000000000000000000000000000000000000000000000000000000\n  dup2\n  mstore\n  0x04\n  add\n  mload(0x40)\n  dup1\n  swap2\n  sub\n  swap1\n  revert\n    /* \"contracts/DeFi/MultiSigV2.sol\":2125:2199  if (isOwner[owner]) {... */\ntag_14:\n    /* \"contracts/DeFi/MultiSigV2.sol\":2229:2233  true */\n  0x01\n    /* \"contracts/DeFi/MultiSigV2.sol\":2212:2219  isOwner */\n  0x00\n    /* \"contracts/DeFi/MultiSigV2.sol\":2212:2226  isOwner[owner] */\n  dup1\n    /* \"contracts/DeFi/MultiSigV2.sol\":2220:2225  owner */\n  dup4\n    /* \"contracts/DeFi/MultiSigV2.sol\":2212:2226  isOwner[owner] */\n  0xffffffffffffffffffffffffffffffffffffffff\n  and\n  0xffffffffffffffffffffffffffffffffffffffff\n  and\n  dup2\n  mstore\n  0x20\n  add\n  swap1\n  dup2\n  mstore\n  0x20\n  add\n  0x00\n  keccak256\n  0x00\n    /* \"contracts/DeFi/MultiSigV2.sol\":2212:2233  isOwner[owner] = true */\n  0x0100\n  exp\n  dup2\n  sload\n  dup2\n  0xff\n  mul\n  not\n  and\n  swap1\n  dup4\n  iszero\n  iszero\n  mul\n  or\n  swap1\n  sstore\n  pop\n    /* \"contracts/DeFi/MultiSigV2.sol\":1971:2244  {... */\n  pop\n    /* \"contracts/DeFi/MultiSigV2.sol\":1966:1969  i++ */\n  dup1\n  dup1\n  tag_15\n  swap1\n  tag_16\n  jump\t// in\ntag_15:\n  swap2\n  pop\n  pop\n    /* \"contracts/DeFi/MultiSigV2.sol\":1926:2244  for (uint256 i = 0; i < _owners.length; i++) {... */\n  jump(tag_7)\ntag_8:\n  pop\n    /* \"contracts/DeFi/MultiSigV2.sol\":2264:2273  _required */\n  dup1\n    /* \"contracts/DeFi/MultiSigV2.sol\":2253:2261  required */\n  0x03\n    /* \"contracts/DeFi/MultiSigV2.sol\":2253:2273  required = _required */\n  dup2\n  swap1\n  sstore\n  pop\n    /* \"contracts/DeFi/MultiSigV2.sol\":1766:2280  constructor(address[] memory _owners, uint256 _required) {... */\n  pop\n  pop\n    /* \"contracts/DeFi/MultiSigV2.sol\":58:4560  contract MultiSigWallet {... */\n  jump(tag_17)\n    /* \"#utility.yul\":24:768   */\ntag_19:\n    /* \"#utility.yul\":131:136   */\n  0x00\n    /* \"#utility.yul\":156:237   */\n  tag_21\n    /* \"#utility.yul\":172:236   */\n  tag_22\n    /* \"#utility.yul\":229:235   */\n  dup5\n    /* \"#utility.yul\":172:236   */\n  tag_23\n  jump\t// in\ntag_22:\n    /* \"#utility.yul\":156:237   */\n  tag_24\n  jump\t// in\ntag_21:\n    /* \"#utility.yul\":147:237   */\n  swap1\n  pop\n    /* \"#utility.yul\":257:262   */\n  dup1\n    /* \"#utility.yul\":286:292   */\n  dup4\n    /* \"#utility.yul\":279:284   */\n  dup3\n    /* \"#utility.yul\":272:293   */\n  mstore\n    /* \"#utility.yul\":320:324   */\n  0x20\n    /* \"#utility.yul\":313:318   */\n  dup3\n    /* \"#utility.yul\":309:325   */\n  add\n    /* \"#utility.yul\":302:325   */\n  swap1\n  pop\n    /* \"#utility.yul\":346:352   */\n  dup3\n    /* \"#utility.yul\":396:399   */\n  dup6\n    /* \"#utility.yul\":388:392   */\n  0x20\n    /* \"#utility.yul\":380:386   */\n  dup7\n    /* \"#utility.yul\":376:393   */\n  mul\n    /* \"#utility.yul\":371:374   */\n  dup3\n    /* \"#utility.yul\":367:394   */\n  add\n    /* \"#utility.yul\":364:400   */\n  gt\n    /* \"#utility.yul\":361:504   */\n  iszero\n  tag_25\n  jumpi\n    /* \"#utility.yul\":415:494   */\n  tag_26\n  tag_27\n  jump\t// in\ntag_26:\n    /* \"#utility.yul\":361:504   */\ntag_25:\n    /* \"#utility.yul\":528:529   */\n  0x00\n    /* \"#utility.yul\":513:762   */\ntag_28:\n    /* \"#utility.yul\":538:544   */\n  dup6\n    /* \"#utility.yul\":535:536   */\n  dup2\n    /* \"#utility.yul\":532:545   */\n  lt\n    /* \"#utility.yul\":513:762   */\n  iszero\n  tag_30\n  jumpi\n    /* \"#utility.yul\":606:609   */\n  dup2\n    /* \"#utility.yul\":635:683   */\n  tag_31\n    /* \"#utility.yul\":679:682   */\n  dup9\n    /* \"#utility.yul\":667:677   */\n  dup3\n    /* \"#utility.yul\":635:683   */\n  tag_32\n  jump\t// in\ntag_31:\n    /* \"#utility.yul\":630:633   */\n  dup5\n    /* \"#utility.yul\":623:684   */\n  mstore\n    /* \"#utility.yul\":713:717   */\n  0x20\n    /* \"#utility.yul\":708:711   */\n  dup5\n    /* \"#utility.yul\":704:718   */\n  add\n    /* \"#utility.yul\":697:718   */\n  swap4\n  pop\n    /* \"#utility.yul\":747:751   */\n  0x20\n    /* \"#utility.yul\":742:745   */\n  dup4\n    /* \"#utility.yul\":738:752   */\n  add\n    /* \"#utility.yul\":731:752   */\n  swap3\n  pop\n    /* \"#utility.yul\":573:762   */\n  pop\n    /* \"#utility.yul\":560:561   */\n  0x01\n    /* \"#utility.yul\":557:558   */\n  dup2\n    /* \"#utility.yul\":553:562   */\n  add\n    /* \"#utility.yul\":548:562   */\n  swap1\n  pop\n    /* \"#utility.yul\":513:762   */\n  jump(tag_28)\ntag_30:\n    /* \"#utility.yul\":517:531   */\n  pop\n    /* \"#utility.yul\":137:768   */\n  pop\n  pop\n    /* \"#utility.yul\":24:768   */\n  swap4\n  swap3\n  pop\n  pop\n  pop\n  jump\t// out\n    /* \"#utility.yul\":774:917   */\ntag_32:\n    /* \"#utility.yul\":831:836   */\n  0x00\n    /* \"#utility.yul\":862:868   */\n  dup2\n    /* \"#utility.yul\":856:869   */\n  mload\n    /* \"#utility.yul\":847:869   */\n  swap1\n  pop\n    /* \"#utility.yul\":878:911   */\n  tag_34\n    /* \"#utility.yul\":905:910   */\n  dup2\n    /* \"#utility.yul\":878:911   */\n  tag_35\n  jump\t// in\ntag_34:\n    /* \"#utility.yul\":774:917   */\n  swap3\n  swap2\n  pop\n  pop\n  jump\t// out\n    /* \"#utility.yul\":940:1325   */\ntag_36:\n    /* \"#utility.yul\":1022:1027   */\n  0x00\n    /* \"#utility.yul\":1071:1074   */\n  dup3\n    /* \"#utility.yul\":1064:1068   */\n  0x1f\n    /* \"#utility.yul\":1056:1062   */\n  dup4\n    /* \"#utility.yul\":1052:1069   */\n  add\n    /* \"#utility.yul\":1048:1075   */\n  slt\n    /* \"#utility.yul\":1038:1160   */\n  tag_38\n  jumpi\n    /* \"#utility.yul\":1079:1158   */\n  tag_39\n  tag_40\n  jump\t// in\ntag_39:\n    /* \"#utility.yul\":1038:1160   */\ntag_38:\n    /* \"#utility.yul\":1189:1195   */\n  dup2\n    /* \"#utility.yul\":1183:1196   */\n  mload\n    /* \"#utility.yul\":1214:1319   */\n  tag_41\n    /* \"#utility.yul\":1315:1318   */\n  dup5\n    /* \"#utility.yul\":1307:1313   */\n  dup3\n    /* \"#utility.yul\":1300:1304   */\n  0x20\n    /* \"#utility.yul\":1292:1298   */\n  dup7\n    /* \"#utility.yul\":1288:1305   */\n  add\n    /* \"#utility.yul\":1214:1319   */\n  tag_19\n  jump\t// in\ntag_41:\n    /* \"#utility.yul\":1205:1319   */\n  swap2\n  pop\n    /* \"#utility.yul\":1028:1325   */\n  pop\n    /* \"#utility.yul\":940:1325   */\n  swap3\n  swap2\n  pop\n  pop\n  jump\t// out\n    /* \"#utility.yul\":1331:1474   */\ntag_42:\n    /* \"#utility.yul\":1388:1393   */\n  0x00\n    /* \"#utility.yul\":1419:1425   */\n  dup2\n    /* \"#utility.yul\":1413:1426   */\n  mload\n    /* \"#utility.yul\":1404:1426   */\n  swap1\n  pop\n    /* \"#utility.yul\":1435:1468   */\n  tag_44\n    /* \"#utility.yul\":1462:1467   */\n  dup2\n    /* \"#utility.yul\":1435:1468   */\n  tag_45\n  jump\t// in\ntag_44:\n    /* \"#utility.yul\":1331:1474   */\n  swap3\n  swap2\n  pop\n  pop\n  jump\t// out\n    /* \"#utility.yul\":1480:2190   */\ntag_3:\n    /* \"#utility.yul\":1584:1590   */\n  0x00\n    /* \"#utility.yul\":1592:1598   */\n  dup1\n    /* \"#utility.yul\":1641:1643   */\n  0x40\n    /* \"#utility.yul\":1629:1638   */\n  dup4\n    /* \"#utility.yul\":1620:1627   */\n  dup6\n    /* \"#utility.yul\":1616:1639   */\n  sub\n    /* \"#utility.yul\":1612:1644   */\n  slt\n    /* \"#utility.yul\":1609:1728   */\n  iszero\n  tag_47\n  jumpi\n    /* \"#utility.yul\":1647:1726   */\n  tag_48\n  tag_49\n  jump\t// in\ntag_48:\n    /* \"#utility.yul\":1609:1728   */\ntag_47:\n    /* \"#utility.yul\":1788:1789   */\n  0x00\n    /* \"#utility.yul\":1777:1786   */\n  dup4\n    /* \"#utility.yul\":1773:1790   */\n  add\n    /* \"#utility.yul\":1767:1791   */\n  mload\n    /* \"#utility.yul\":1818:1836   */\n  0xffffffffffffffff\n    /* \"#utility.yul\":1810:1816   */\n  dup2\n    /* \"#utility.yul\":1807:1837   */\n  gt\n    /* \"#utility.yul\":1804:1921   */\n  iszero\n  tag_50\n  jumpi\n    /* \"#utility.yul\":1840:1919   */\n  tag_51\n  tag_52\n  jump\t// in\ntag_51:\n    /* \"#utility.yul\":1804:1921   */\ntag_50:\n    /* \"#utility.yul\":1945:2034   */\n  tag_53\n    /* \"#utility.yul\":2026:2033   */\n  dup6\n    /* \"#utility.yul\":2017:2023   */\n  dup3\n    /* \"#utility.yul\":2006:2015   */\n  dup7\n    /* \"#utility.yul\":2002:2024   */\n  add\n    /* \"#utility.yul\":1945:2034   */\n  tag_36\n  jump\t// in\ntag_53:\n    /* \"#utility.yul\":1935:2034   */\n  swap3\n  pop\n    /* \"#utility.yul\":1738:2044   */\n  pop\n    /* \"#utility.yul\":2083:2085   */\n  0x20\n    /* \"#utility.yul\":2109:2173   */\n  tag_54\n    /* \"#utility.yul\":2165:2172   */\n  dup6\n    /* \"#utility.yul\":2156:2162   */\n  dup3\n    /* \"#utility.yul\":2145:2154   */\n  dup7\n    /* \"#utility.yul\":2141:2163   */\n  add\n    /* \"#utility.yul\":2109:2173   */\n  tag_42\n  jump\t// in\ntag_54:\n    /* \"#utility.yul\":2099:2173   */\n  swap2\n  pop\n    /* \"#utility.yul\":2054:2183   */\n  pop\n    /* \"#utility.yul\":1480:2190   */\n  swap3\n  pop\n  swap3\n  swap1\n  pop\n  jump\t// out\n    /* \"#utility.yul\":2196:2325   */\ntag_24:\n    /* \"#utility.yul\":2230:2236   */\n  0x00\n    /* \"#utility.yul\":2257:2277   */\n  tag_56\n  tag_57\n  jump\t// in\ntag_56:\n    /* \"#utility.yul\":2247:2277   */\n  swap1\n  pop\n    /* \"#utility.yul\":2286:2319   */\n  tag_58\n    /* \"#utility.yul\":2314:2318   */\n  dup3\n    /* \"#utility.yul\":2306:2312   */\n  dup3\n    /* \"#utility.yul\":2286:2319   */\n  tag_59\n  jump\t// in\ntag_58:\n    /* \"#utility.yul\":2196:2325   */\n  swap2\n  swap1\n  pop\n  jump\t// out\n    /* \"#utility.yul\":2331:2406   */\ntag_57:\n    /* \"#utility.yul\":2364:2370   */\n  0x00\n    /* \"#utility.yul\":2397:2399   */\n  0x40\n    /* \"#utility.yul\":2391:2400   */\n  mload\n    /* \"#utility.yul\":2381:2400   */\n  swap1\n  pop\n    /* \"#utility.yul\":2331:2406   */\n  swap1\n  jump\t// out\n    /* \"#utility.yul\":2412:2723   */\ntag_23:\n    /* \"#utility.yul\":2489:2493   */\n  0x00\n    /* \"#utility.yul\":2579:2597   */\n  0xffffffffffffffff\n    /* \"#utility.yul\":2571:2577   */\n  dup3\n    /* \"#utility.yul\":2568:2598   */\n  gt\n    /* \"#utility.yul\":2565:2621   */\n  iszero\n  tag_62\n  jumpi\n    /* \"#utility.yul\":2601:2619   */\n  tag_63\n  tag_64\n  jump\t// in\ntag_63:\n    /* \"#utility.yul\":2565:2621   */\ntag_62:\n    /* \"#utility.yul\":2651:2655   */\n  0x20\n    /* \"#utility.yul\":2643:2649   */\n  dup3\n    /* \"#utility.yul\":2639:2656   */\n  mul\n    /* \"#utility.yul\":2631:2656   */\n  swap1\n  pop\n    /* \"#utility.yul\":2711:2715   */\n  0x20\n    /* \"#utility.yul\":2705:2709   */\n  dup2\n    /* \"#utility.yul\":2701:2716   */\n  add\n    /* \"#utility.yul\":2693:2716   */\n  swap1\n  pop\n    /* \"#utility.yul\":2412:2723   */\n  swap2\n  swap1\n  pop\n  jump\t// out\n    /* \"#utility.yul\":2729:2825   */\ntag_65:\n    /* \"#utility.yul\":2766:2773   */\n  0x00\n    /* \"#utility.yul\":2795:2819   */\n  tag_67\n    /* \"#utility.yul\":2813:2818   */\n  dup3\n    /* \"#utility.yul\":2795:2819   */\n  tag_68\n  jump\t// in\ntag_67:\n    /* \"#utility.yul\":2784:2819   */\n  swap1\n  pop\n    /* \"#utility.yul\":2729:2825   */\n  swap2\n  swap1\n  pop\n  jump\t// out\n    /* \"#utility.yul\":2831:2957   */\ntag_68:\n    /* \"#utility.yul\":2868:2875   */\n  0x00\n    /* \"#utility.yul\":2908:2950   */\n  0xffffffffffffffffffffffffffffffffffffffff\n    /* \"#utility.yul\":2901:2906   */\n  dup3\n    /* \"#utility.yul\":2897:2951   */\n  and\n    /* \"#utility.yul\":2886:2951   */\n  swap1\n  pop\n    /* \"#utility.yul\":2831:2957   */\n  swap2\n  swap1\n  pop\n  jump\t// out\n    /* \"#utility.yul\":2963:3040   */\ntag_70:\n    /* \"#utility.yul\":3000:3007   */\n  0x00\n    /* \"#utility.yul\":3029:3034   */\n  dup2\n    /* \"#utility.yul\":3018:3034   */\n  swap1\n  pop\n    /* \"#utility.yul\":2963:3040   */\n  swap2\n  swap1\n  pop\n  jump\t// out\n    /* \"#utility.yul\":3046:3327   */\ntag_59:\n    /* \"#utility.yul\":3129:3156   */\n  tag_73\n    /* \"#utility.yul\":3151:3155   */\n  dup3\n    /* \"#utility.yul\":3129:3156   */\n  tag_74\n  jump\t// in\ntag_73:\n    /* \"#utility.yul\":3121:3127   */\n  dup2\n    /* \"#utility.yul\":3117:3157   */\n  add\n    /* \"#utility.yul\":3259:3265   */\n  dup2\n    /* \"#utility.yul\":3247:3257   */\n  dup2\n    /* \"#utility.yul\":3244:3266   */\n  lt\n    /* \"#utility.yul\":3223:3241   */\n  0xffffffffffffffff\n    /* \"#utility.yul\":3211:3221   */\n  dup3\n    /* \"#utility.yul\":3208:3242   */\n  gt\n    /* \"#utility.yul\":3205:3267   */\n  or\n    /* \"#utility.yul\":3202:3290   */\n  iszero\n  tag_75\n  jumpi\n    /* \"#utility.yul\":3270:3288   */\n  tag_76\n  tag_64\n  jump\t// in\ntag_76:\n    /* \"#utility.yul\":3202:3290   */\ntag_75:\n    /* \"#utility.yul\":3310:3320   */\n  dup1\n    /* \"#utility.yul\":3306:3308   */\n  0x40\n    /* \"#utility.yul\":3299:3321   */\n  mstore\n    /* \"#utility.yul\":3089:3327   */\n  pop\n    /* \"#utility.yul\":3046:3327   */\n  pop\n  pop\n  jump\t// out\n    /* \"#utility.yul\":3333:3566   */\ntag_16:\n    /* \"#utility.yul\":3372:3375   */\n  0x00\n    /* \"#utility.yul\":3395:3419   */\n  tag_78\n    /* \"#utility.yul\":3413:3418   */\n  dup3\n    /* \"#utility.yul\":3395:3419   */\n  tag_70\n  jump\t// in\ntag_78:\n    /* \"#utility.yul\":3386:3419   */\n  swap2\n  pop\n    /* \"#utility.yul\":3441:3507   */\n  0xffffffffffffffffffffffffffffffffffffffffffffffffffffffffffffffff\n    /* \"#utility.yul\":3434:3439   */\n  dup3\n    /* \"#utility.yul\":3431:3508   */\n  eq\n    /* \"#utility.yul\":3428:3531   */\n  iszero\n  tag_79\n  jumpi\n    /* \"#utility.yul\":3511:3529   */\n  tag_80\n  tag_81\n  jump\t// in\ntag_80:\n    /* \"#utility.yul\":3428:3531   */\ntag_79:\n    /* \"#utility.yul\":3558:3559   */\n  0x01\n    /* \"#utility.yul\":3551:3556   */\n  dup3\n    /* \"#utility.yul\":3547:3560   */\n  add\n    /* \"#utility.yul\":3540:3560   */\n  swap1\n  pop\n    /* \"#utility.yul\":3333:3566   */\n  swap2\n  swap1\n  pop\n  jump\t// out\n    /* \"#utility.yul\":3572:3752   */\ntag_81:\n    /* \"#utility.yul\":3620:3697   */\n  0x4e487b7100000000000000000000000000000000000000000000000000000000\n    /* \"#utility.yul\":3617:3618   */\n  0x00\n    /* \"#utility.yul\":3610:3698   */\n  mstore\n    /* \"#utility.yul\":3717:3721   */\n  0x11\n    /* \"#utility.yul\":3714:3715   */\n  0x04\n    /* \"#utility.yul\":3707:3722   */\n  mstore\n    /* \"#utility.yul\":3741:3745   */\n  0x24\n    /* \"#utility.yul\":3738:3739   */\n  0x00\n    /* \"#utility.yul\":3731:3746   */\n  revert\n    /* \"#utility.yul\":3758:3938   */\ntag_12:\n    /* \"#utility.yul\":3806:3883   */\n  0x4e487b7100000000000000000000000000000000000000000000000000000000\n    /* \"#utility.yul\":3803:3804   */\n  0x00\n    /* \"#utility.yul\":3796:3884   */\n  mstore\n    /* \"#utility.yul\":3903:3907   */\n  0x32\n    /* \"#utility.yul\":3900:3901   */\n  0x04\n    /* \"#utility.yul\":3893:3908   */\n  mstore\n    /* \"#utility.yul\":3927:3931   */\n  0x24\n    /* \"#utility.yul\":3924:3925   */\n  0x00\n    /* \"#utility.yul\":3917:3932   */\n  revert\n    /* \"#utility.yul\":3944:4124   */\ntag_64:\n    /* \"#utility.yul\":3992:4069   */\n  0x4e487b7100000000000000000000000000000000000000000000000000000000\n    /* \"#utility.yul\":3989:3990   */\n  0x00\n    /* \"#utility.yul\":3982:4070   */\n  mstore\n    /* \"#utility.yul\":4089:4093   */\n  0x41\n    /* \"#utility.yul\":4086:4087   */\n  0x04\n    /* \"#utility.yul\":4079:4094   */\n  mstore\n    /* \"#utility.yul\":4113:4117   */\n  0x24\n    /* \"#utility.yul\":4110:4111   */\n  0x00\n    /* \"#utility.yul\":4103:4118   */\n  revert\n    /* \"#utility.yul\":4130:4247   */\ntag_40:\n    /* \"#utility.yul\":4239:4240   */\n  0x00\n    /* \"#utility.yul\":4236:4237   */\n  dup1\n    /* \"#utility.yul\":4229:4241   */\n  revert\n    /* \"#utility.yul\":4253:4370   */\ntag_27:\n    /* \"#utility.yul\":4362:4363   */\n  0x00\n    /* \"#utility.yul\":4359:4360   */\n  dup1\n    /* \"#utility.yul\":4352:4364   */\n  revert\n    /* \"#utility.yul\":4376:4493   */\ntag_52:\n    /* \"#utility.yul\":4485:4486   */\n  0x00\n    /* \"#utility.yul\":4482:4483   */\n  dup1\n    /* \"#utility.yul\":4475:4487   */\n  revert\n    /* \"#utility.yul\":4499:4616   */\ntag_49:\n    /* \"#utility.yul\":4608:4609   */\n  0x00\n    /* \"#utility.yul\":4605:4606   */\n  dup1\n    /* \"#utility.yul\":4598:4610   */\n  revert\n    /* \"#utility.yul\":4622:4724   */\ntag_74:\n    /* \"#utility.yul\":4663:4669   */\n  0x00\n    /* \"#utility.yul\":4714:4716   */\n  0x1f\n    /* \"#utility.yul\":4710:4717   */\n  not\n    /* \"#utility.yul\":4705:4707   */\n  0x1f\n    /* \"#utility.yul\":4698:4703   */\n  dup4\n    /* \"#utility.yul\":4694:4708   */\n  add\n    /* \"#utility.yul\":4690:4718   */\n  and\n    /* \"#utility.yul\":4680:4718   */\n  swap1\n  pop\n    /* \"#utility.yul\":4622:4724   */\n  swap2\n  swap1\n  pop\n  jump\t// out\n    /* \"#utility.yul\":4730:4852   */\ntag_35:\n    /* \"#utility.yul\":4803:4827   */\n  tag_91\n    /* \"#utility.yul\":4821:4826   */\n  dup2\n    /* \"#utility.yul\":4803:4827   */\n  tag_65\n  jump\t// in\ntag_91:\n    /* \"#utility.yul\":4796:4801   */\n  dup2\n    /* \"#utility.yul\":4793:4828   */\n  eq\n    /* \"#utility.yul\":4783:4846   */\n  tag_92\n  jumpi\n    /* \"#utility.yul\":4842:4843   */\n  0x00\n    /* \"#utility.yul\":4839:4840   */\n  dup1\n    /* \"#utility.yul\":4832:4844   */\n  revert\n    /* \"#utility.yul\":4783:4846   */\ntag_92:\n    /* \"#utility.yul\":4730:4852   */\n  pop\n  jump\t// out\n    /* \"#utility.yul\":4858:4980   */\ntag_45:\n    /* \"#utility.yul\":4931:4955   */\n  tag_94\n    /* \"#utility.yul\":4949:4954   */\n  dup2\n    /* \"#utility.yul\":4931:4955   */\n  tag_70\n  jump\t// in\ntag_94:\n    /* \"#utility.yul\":4924:4929   */\n  dup2\n    /* \"#utility.yul\":4921:4956   */\n  eq\n    /* \"#utility.yul\":4911:4974   */\n  tag_95\n  jumpi\n    /* \"#utility.yul\":4970:4971   */\n  0x00\n    /* \"#utility.yul\":4967:4968   */\n  dup1\n    /* \"#utility.yul\":4960:4972   */\n  revert\n    /* \"#utility.yul\":4911:4974   */\ntag_95:\n    /* \"#utility.yul\":4858:4980   */\n  pop\n  jump\t// out\n    /* \"contracts/DeFi/MultiSigV2.sol\":58:4560  contract MultiSigWallet {... */\ntag_17:\n  dataSize(sub_0)\n  dup1\n  dataOffset(sub_0)\n  0x00\n  codecopy\n  0x00\n  return\nstop\n\nsub_0: assembly {\n        /* \"contracts/DeFi/MultiSigV2.sol\":58:4560  contract MultiSigWallet {... */\n      mstore(0x40, 0x80)\n      jumpi(tag_1, lt(calldatasize, 0x04))\n      shr(0xe0, calldataload(0x00))\n      dup1\n      0xb1e130fc\n      gt\n      tag_12\n      jumpi\n      dup1\n      0xb1e130fc\n      eq\n      tag_7\n      jumpi\n      dup1\n      0xbb84c5a9\n      eq\n      tag_8\n      jumpi\n      dup1\n      0xcd568d1f\n      eq\n      tag_9\n      jumpi\n      dup1\n      0xdc8452cd\n      eq\n      tag_10\n      jumpi\n      dup1\n      0xe0e3671c\n      eq\n      tag_11\n      jumpi\n      jump(tag_2)\n    tag_12:\n      dup1\n      0x1087393a\n      eq\n      tag_3\n      jumpi\n      dup1\n      0x33ea3dc8\n      eq\n      tag_4\n      jumpi\n      dup1\n      0x54b5fe80\n      eq\n      tag_5\n      jumpi\n      dup1\n      0x8f9487eb\n      eq\n      tag_6\n      jumpi\n      jump(tag_2)\n    tag_1:\n      jumpi(tag_2, calldatasize)\n        /* \"contracts/DeFi/MultiSigV2.sol\":2348:2357  msg.value */\n      callvalue\n        /* \"contracts/DeFi/MultiSigV2.sol\":2336:2346  msg.sender */\n      caller\n        /* \"contracts/DeFi/MultiSigV2.sol\":2328:2381  Deposit(msg.sender, msg.value, address(this).balance) */\n      0xffffffffffffffffffffffffffffffffffffffff\n      and\n      0x90890809c654f11d6e72a28fa60149770a0d11ec6c92319d6ceb2bb0a4ea1a15\n        /* \"contracts/DeFi/MultiSigV2.sol\":2359:2380  address(this).balance */\n      selfbalance\n        /* \"contracts/DeFi/MultiSigV2.sol\":2328:2381  Deposit(msg.sender, msg.value, address(this).balance) */\n      mload(0x40)\n      tag_15\n      swap2\n      swap1\n      tag_16\n      jump\t// in\n    tag_15:\n      mload(0x40)\n      dup1\n      swap2\n      sub\n      swap1\n      log3\n        /* \"contracts/DeFi/MultiSigV2.sol\":58:4560  contract MultiSigWallet {... */\n      stop\n    tag_2:\n      0x00\n      dup1\n      revert\n        /* \"contracts/DeFi/MultiSigV2.sol\":2778:3069  function approveTx(uint256 _txId)... */\n    tag_3:\n      callvalue\n      dup1\n      iszero\n      tag_17\n      jumpi\n      0x00\n      dup1\n      revert\n    tag_17:\n      pop\n      tag_18\n      0x04\n      dup1\n      calldatasize\n      sub\n      dup2\n      add\n      swap1\n      tag_19\n      swap2\n      swap1\n      tag_20\n      jump\t// in\n    tag_19:\n      tag_21\n      jump\t// in\n    tag_18:\n      stop\n        /* \"contracts/DeFi/MultiSigV2.sol\":4165:4306  function getTransaction(uint256 _txId) external view txExists(_txId) returns (Transaction memory) {... */\n    tag_4:\n      callvalue\n      dup1\n      iszero\n      tag_22\n      jumpi\n      0x00\n      dup1\n      revert\n    tag_22:\n      pop\n      tag_23\n      0x04\n      dup1\n      calldatasize\n      sub\n      dup2\n      add\n      swap1\n      tag_24\n      swap2\n      swap1\n      tag_20\n      jump\t// in\n    tag_24:\n      tag_25\n      jump\t// in\n    tag_23:\n      mload(0x40)\n      tag_26\n      swap2\n      swap1\n      tag_27\n      jump\t// in\n    tag_26:\n      mload(0x40)\n      dup1\n      swap2\n      sub\n      swap1\n      return\n        /* \"contracts/DeFi/MultiSigV2.sol\":3075:3765  function executeTx(uint256 _txId)... */\n    tag_5:\n      callvalue\n      dup1\n      iszero\n      tag_28\n      jumpi\n      0x00\n      dup1\n      revert\n    tag_28:\n      pop\n      tag_29\n      0x04\n      dup1\n      calldatasize\n      sub\n      dup2\n      add\n      swap1\n      tag_30\n      swap2\n      swap1\n      tag_20\n      jump\t// in\n    tag_30:\n      tag_31\n      jump\t// in\n    tag_29:\n      stop\n        /* \"contracts/DeFi/MultiSigV2.sol\":4422:4558  function checkApproved(uint256 _txId, address _approver) external view returns (bool) {... */\n    tag_6:\n      callvalue\n      dup1\n      iszero\n      tag_32\n      jumpi\n      0x00\n      dup1\n      revert\n    tag_32:\n      pop\n      tag_33\n      0x04\n      dup1\n      calldatasize\n      sub\n      dup2\n      add\n      swap1\n      tag_34\n      swap2\n      swap1\n      tag_35\n      jump\t// in\n    tag_34:\n      tag_36\n      jump\t// in\n    tag_33:\n      mload(0x40)\n      tag_37\n      swap2\n      swap1\n      tag_38\n      jump\t// in\n    tag_37:\n      mload(0x40)\n      dup1\n      swap2\n      sub\n      swap1\n      return\n        /* \"contracts/DeFi/MultiSigV2.sol\":3771:4159  function revokeApproval(uint256 _txId)... */\n    tag_7:\n      callvalue\n      dup1\n      iszero\n      tag_39\n      jumpi\n      0x00\n      dup1\n      revert\n    tag_39:\n      pop\n      tag_40\n      0x04\n      dup1\n      calldatasize\n      sub\n      dup2\n      add\n      swap1\n      tag_41\n      swap2\n      swap1\n      tag_20\n      jump\t// in\n    tag_41:\n      tag_42\n      jump\t// in\n    tag_40:\n      stop\n        /* \"contracts/DeFi/MultiSigV2.sol\":2394:2772  function submitTx(... */\n    tag_8:\n      callvalue\n      dup1\n      iszero\n      tag_43\n      jumpi\n      0x00\n      dup1\n      revert\n    tag_43:\n      pop\n      tag_44\n      0x04\n      dup1\n      calldatasize\n      sub\n      dup2\n      add\n      swap1\n      tag_45\n      swap2\n      swap1\n      tag_46\n      jump\t// in\n    tag_45:\n      tag_47\n      jump\t// in\n    tag_44:\n      stop\n        /* \"contracts/DeFi/MultiSigV2.sol\":870:889  uint256 public txId */\n    tag_9:\n      callvalue\n      dup1\n      iszero\n      tag_48\n      jumpi\n      0x00\n      dup1\n      revert\n    tag_48:\n      pop\n      tag_49\n      tag_50\n      jump\t// in\n    tag_49:\n      mload(0x40)\n      tag_51\n      swap2\n      swap1\n      tag_16\n      jump\t// in\n    tag_51:\n      mload(0x40)\n      dup1\n      swap2\n      sub\n      swap1\n      return\n        /* \"contracts/DeFi/MultiSigV2.sol\":841:864  uint256 public required */\n    tag_10:\n      callvalue\n      dup1\n      iszero\n      tag_52\n      jumpi\n      0x00\n      dup1\n      revert\n    tag_52:\n      pop\n      tag_53\n      tag_54\n      jump\t// in\n    tag_53:\n      mload(0x40)\n      tag_55\n      swap2\n      swap1\n      tag_16\n      jump\t// in\n    tag_55:\n      mload(0x40)\n      dup1\n      swap2\n      sub\n      swap1\n      return\n        /* \"contracts/DeFi/MultiSigV2.sol\":4312:4416  function checkOwner(address _owner) external view returns (bool) {... */\n    tag_11:\n      callvalue\n      dup1\n      iszero\n      tag_56\n      jumpi\n      0x00\n      dup1\n      revert\n    tag_56:\n      pop\n      tag_57\n      0x04\n      dup1\n      calldatasize\n      sub\n      dup2\n      add\n      swap1\n      tag_58\n      swap2\n      swap1\n      tag_59\n      jump\t// in\n    tag_58:\n      tag_60\n      jump\t// in\n    tag_57:\n      mload(0x40)\n      tag_61\n      swap2\n      swap1\n      tag_38\n      jump\t// in\n    tag_61:\n      mload(0x40)\n      dup1\n      swap2\n      sub\n      swap1\n      return\n        /* \"contracts/DeFi/MultiSigV2.sol\":2778:3069  function approveTx(uint256 _txId)... */\n    tag_21:\n        /* \"contracts/DeFi/MultiSigV2.sol\":932:939  isOwner */\n      0x00\n        /* \"contracts/DeFi/MultiSigV2.sol\":932:951  isOwner[msg.sender] */\n      dup1\n        /* \"contracts/DeFi/MultiSigV2.sol\":940:950  msg.sender */\n      caller\n        /* \"contracts/DeFi/MultiSigV2.sol\":932:951  isOwner[msg.sender] */\n      0xffffffffffffffffffffffffffffffffffffffff\n      and\n      0xffffffffffffffffffffffffffffffffffffffff\n      and\n      dup2\n      mstore\n      0x20\n      add\n      swap1\n      dup2\n      mstore\n      0x20\n      add\n      0x00\n      keccak256\n      0x00\n      swap1\n      sload\n      swap1\n      0x0100\n      exp\n      swap1\n      div\n      0xff\n      and\n        /* \"contracts/DeFi/MultiSigV2.sol\":927:995  if (!isOwner[msg.sender]) {... */\n      tag_63\n      jumpi\n        /* \"contracts/DeFi/MultiSigV2.sol\":974:984  NotOwner() */\n      mload(0x40)\n      0x30cd747100000000000000000000000000000000000000000000000000000000\n      dup2\n      mstore\n      0x04\n      add\n      mload(0x40)\n      dup1\n      swap2\n      sub\n      swap1\n      revert\n        /* \"contracts/DeFi/MultiSigV2.sol\":927:995  if (!isOwner[msg.sender]) {... */\n    tag_63:\n        /* \"contracts/DeFi/MultiSigV2.sol\":2864:2869  _txId */\n      dup1\n        /* \"contracts/DeFi/MultiSigV2.sol\":1080:1081  1 */\n      0x01\n        /* \"contracts/DeFi/MultiSigV2.sol\":1073:1077  txId */\n      sload(0x04)\n        /* \"contracts/DeFi/MultiSigV2.sol\":1073:1081  txId - 1 */\n      tag_65\n      swap2\n      swap1\n      tag_66\n      jump\t// in\n    tag_65:\n        /* \"contracts/DeFi/MultiSigV2.sol\":1065:1070  _txId */\n      dup2\n        /* \"contracts/DeFi/MultiSigV2.sol\":1065:1081  _txId > txId - 1 */\n      gt\n        /* \"contracts/DeFi/MultiSigV2.sol\":1061:1131  if (_txId > txId - 1) {... */\n      iszero\n      tag_67\n      jumpi\n        /* \"contracts/DeFi/MultiSigV2.sol\":1104:1120  TxDoesNotExist() */\n      mload(0x40)\n      0x9e1b596f00000000000000000000000000000000000000000000000000000000\n      dup2\n      mstore\n      0x04\n      add\n      mload(0x40)\n      dup1\n      swap2\n      sub\n      swap1\n      revert\n        /* \"contracts/DeFi/MultiSigV2.sol\":1061:1131  if (_txId > txId - 1) {... */\n    tag_67:\n        /* \"contracts/DeFi/MultiSigV2.sol\":2891:2896  _txId */\n      dup2\n        /* \"contracts/DeFi/MultiSigV2.sol\":1358:1366  approved */\n      0x02\n        /* \"contracts/DeFi/MultiSigV2.sol\":1358:1373  approved[_txId] */\n      0x00\n        /* \"contracts/DeFi/MultiSigV2.sol\":1367:1372  _txId */\n      dup3\n        /* \"contracts/DeFi/MultiSigV2.sol\":1358:1373  approved[_txId] */\n      dup2\n      mstore\n      0x20\n      add\n      swap1\n      dup2\n      mstore\n      0x20\n      add\n      0x00\n      keccak256\n        /* \"contracts/DeFi/MultiSigV2.sol\":1358:1385  approved[_txId][msg.sender] */\n      0x00\n        /* \"contracts/DeFi/MultiSigV2.sol\":1374:1384  msg.sender */\n      caller\n        /* \"contracts/DeFi/MultiSigV2.sol\":1358:1385  approved[_txId][msg.sender] */\n      0xffffffffffffffffffffffffffffffffffffffff\n      and\n      0xffffffffffffffffffffffffffffffffffffffff\n      and\n      dup2\n      mstore\n      0x20\n      add\n      swap1\n      dup2\n      mstore\n      0x20\n      add\n      0x00\n      keccak256\n      0x00\n      swap1\n      sload\n      swap1\n      0x0100\n      exp\n      swap1\n      div\n      0xff\n      and\n        /* \"contracts/DeFi/MultiSigV2.sol\":1354:1438  if (approved[_txId][msg.sender]) {... */\n      iszero\n      tag_69\n      jumpi\n        /* \"contracts/DeFi/MultiSigV2.sol\":1408:1427  TxAlreadyApproved() */\n      mload(0x40)\n      0x5db7ec0d00000000000000000000000000000000000000000000000000000000\n      dup2\n      mstore\n      0x04\n      add\n      mload(0x40)\n      dup1\n      swap2\n      sub\n      swap1\n      revert\n        /* \"contracts/DeFi/MultiSigV2.sol\":1354:1438  if (approved[_txId][msg.sender]) {... */\n    tag_69:\n        /* \"contracts/DeFi/MultiSigV2.sol\":2918:2923  _txId */\n      dup3\n        /* \"contracts/DeFi/MultiSigV2.sol\":1204:1216  transactions */\n      0x01\n        /* \"contracts/DeFi/MultiSigV2.sol\":1204:1223  transactions[_txId] */\n      0x00\n        /* \"contracts/DeFi/MultiSigV2.sol\":1217:1222  _txId */\n      dup3\n        /* \"contracts/DeFi/MultiSigV2.sol\":1204:1223  transactions[_txId] */\n      dup2\n      mstore\n      0x20\n      add\n      swap1\n      dup2\n      mstore\n      0x20\n      add\n      0x00\n      keccak256\n        /* \"contracts/DeFi/MultiSigV2.sol\":1204:1232  transactions[_txId].executed */\n      0x05\n      add\n      0x00\n      swap1\n      sload\n      swap1\n      0x0100\n      exp\n      swap1\n      div\n      0xff\n      and\n        /* \"contracts/DeFi/MultiSigV2.sol\":1200:1285  if (transactions[_txId].executed) {... */\n      iszero\n      tag_71\n      jumpi\n        /* \"contracts/DeFi/MultiSigV2.sol\":1255:1274  TxAlreadyExecuted() */\n      mload(0x40)\n      0x2ea945cf00000000000000000000000000000000000000000000000000000000\n      dup2\n      mstore\n      0x04\n      add\n      mload(0x40)\n      dup1\n      swap2\n      sub\n      swap1\n      revert\n        /* \"contracts/DeFi/MultiSigV2.sol\":1200:1285  if (transactions[_txId].executed) {... */\n    tag_71:\n        /* \"contracts/DeFi/MultiSigV2.sol\":2939:2951  transactions */\n      0x01\n        /* \"contracts/DeFi/MultiSigV2.sol\":2939:2958  transactions[_txId] */\n      0x00\n        /* \"contracts/DeFi/MultiSigV2.sol\":2952:2957  _txId */\n      dup6\n        /* \"contracts/DeFi/MultiSigV2.sol\":2939:2958  transactions[_txId] */\n      dup2\n      mstore\n      0x20\n      add\n      swap1\n      dup2\n      mstore\n      0x20\n      add\n      0x00\n      keccak256\n        /* \"contracts/DeFi/MultiSigV2.sol\":2939:2972  transactions[_txId].confirmations */\n      0x04\n      add\n      0x00\n        /* \"contracts/DeFi/MultiSigV2.sol\":2939:2974  transactions[_txId].confirmations++ */\n      dup2\n      sload\n      dup1\n      swap3\n      swap2\n      swap1\n      tag_73\n      swap1\n      tag_74\n      jump\t// in\n    tag_73:\n      swap2\n      swap1\n      pop\n      sstore\n      pop\n        /* \"contracts/DeFi/MultiSigV2.sol\":3014:3018  true */\n      0x01\n        /* \"contracts/DeFi/MultiSigV2.sol\":2984:2992  approved */\n      0x02\n        /* \"contracts/DeFi/MultiSigV2.sol\":2984:2999  approved[_txId] */\n      0x00\n        /* \"contracts/DeFi/MultiSigV2.sol\":2993:2998  _txId */\n      dup7\n        /* \"contracts/DeFi/MultiSigV2.sol\":2984:2999  approved[_txId] */\n      dup2\n      mstore\n      0x20\n      add\n      swap1\n      dup2\n      mstore\n      0x20\n      add\n      0x00\n      keccak256\n        /* \"contracts/DeFi/MultiSigV2.sol\":2984:3011  approved[_txId][msg.sender] */\n      0x00\n        /* \"contracts/DeFi/MultiSigV2.sol\":3000:3010  msg.sender */\n      caller\n        /* \"contracts/DeFi/MultiSigV2.sol\":2984:3011  approved[_txId][msg.sender] */\n      0xffffffffffffffffffffffffffffffffffffffff\n      and\n      0xffffffffffffffffffffffffffffffffffffffff\n      and\n      dup2\n      mstore\n      0x20\n      add\n      swap1\n      dup2\n      mstore\n      0x20\n      add\n      0x00\n      keccak256\n      0x00\n        /* \"contracts/DeFi/MultiSigV2.sol\":2984:3018  approved[_txId][msg.sender] = true */\n      0x0100\n      exp\n      dup2\n      sload\n      dup2\n      0xff\n      mul\n      not\n      and\n      swap1\n      dup4\n      iszero\n      iszero\n      mul\n      or\n      swap1\n      sstore\n      pop\n        /* \"contracts/DeFi/MultiSigV2.sol\":3051:3061  msg.sender */\n      caller\n        /* \"contracts/DeFi/MultiSigV2.sol\":3033:3062  ApprovedTx(_txId, msg.sender) */\n      0xffffffffffffffffffffffffffffffffffffffff\n      and\n        /* \"contracts/DeFi/MultiSigV2.sol\":3044:3049  _txId */\n      dup5\n        /* \"contracts/DeFi/MultiSigV2.sol\":3033:3062  ApprovedTx(_txId, msg.sender) */\n      0xd4329d04e785ebe84c72dcd09fb9c65f1fbbda53ee15ec20e93342c7f3e2a62d\n      mload(0x40)\n      mload(0x40)\n      dup1\n      swap2\n      sub\n      swap1\n      log3\n        /* \"contracts/DeFi/MultiSigV2.sol\":1447:1448  _ */\n      pop\n        /* \"contracts/DeFi/MultiSigV2.sol\":1140:1141  _ */\n      pop\n        /* \"contracts/DeFi/MultiSigV2.sol\":1004:1005  _ */\n      pop\n        /* \"contracts/DeFi/MultiSigV2.sol\":2778:3069  function approveTx(uint256 _txId)... */\n      pop\n      jump\t// out\n        /* \"contracts/DeFi/MultiSigV2.sol\":4165:4306  function getTransaction(uint256 _txId) external view txExists(_txId) returns (Transaction memory) {... */\n    tag_25:\n        /* \"contracts/DeFi/MultiSigV2.sol\":4243:4261  Transaction memory */\n      tag_75\n      tag_76\n      jump\t// in\n    tag_75:\n        /* \"contracts/DeFi/MultiSigV2.sol\":4227:4232  _txId */\n      dup2\n        /* \"contracts/DeFi/MultiSigV2.sol\":1080:1081  1 */\n      0x01\n        /* \"contracts/DeFi/MultiSigV2.sol\":1073:1077  txId */\n      sload(0x04)\n        /* \"contracts/DeFi/MultiSigV2.sol\":1073:1081  txId - 1 */\n      tag_78\n      swap2\n      swap1\n      tag_66\n      jump\t// in\n    tag_78:\n        /* \"contracts/DeFi/MultiSigV2.sol\":1065:1070  _txId */\n      dup2\n        /* \"contracts/DeFi/MultiSigV2.sol\":1065:1081  _txId > txId - 1 */\n      gt\n        /* \"contracts/DeFi/MultiSigV2.sol\":1061:1131  if (_txId > txId - 1) {... */\n      iszero\n      tag_79\n      jumpi\n        /* \"contracts/DeFi/MultiSigV2.sol\":1104:1120  TxDoesNotExist() */\n      mload(0x40)\n      0x9e1b596f00000000000000000000000000000000000000000000000000000000\n      dup2\n      mstore\n      0x04\n      add\n      mload(0x40)\n      dup1\n      swap2\n      sub\n      swap1\n      revert\n        /* \"contracts/DeFi/MultiSigV2.sol\":1061:1131  if (_txId > txId - 1) {... */\n    tag_79:\n        /* \"contracts/DeFi/MultiSigV2.sol\":4280:4292  transactions */\n      0x01\n        /* \"contracts/DeFi/MultiSigV2.sol\":4280:4299  transactions[_txId] */\n      0x00\n        /* \"contracts/DeFi/MultiSigV2.sol\":4293:4298  _txId */\n      dup5\n        /* \"contracts/DeFi/MultiSigV2.sol\":4280:4299  transactions[_txId] */\n      dup2\n      mstore\n      0x20\n      add\n      swap1\n      dup2\n      mstore\n      0x20\n      add\n      0x00\n      keccak256\n        /* \"contracts/DeFi/MultiSigV2.sol\":4273:4299  return transactions[_txId] */\n      mload(0x40)\n      dup1\n      0xc0\n      add\n      0x40\n      mstore\n      swap1\n      dup2\n      0x00\n      dup3\n      add\n      sload\n      dup2\n      mstore\n      0x20\n      add\n      0x01\n      dup3\n      add\n      0x00\n      swap1\n      sload\n      swap1\n      0x0100\n      exp\n      swap1\n      div\n      0xffffffffffffffffffffffffffffffffffffffff\n      and\n      0xffffffffffffffffffffffffffffffffffffffff\n      and\n      0xffffffffffffffffffffffffffffffffffffffff\n      and\n      dup2\n      mstore\n      0x20\n      add\n      0x02\n      dup3\n      add\n      sload\n      dup2\n      mstore\n      0x20\n      add\n      0x03\n      dup3\n      add\n      dup1\n      sload\n      tag_81\n      swap1\n      tag_82\n      jump\t// in\n    tag_81:\n      dup1\n      0x1f\n      add\n      0x20\n      dup1\n      swap2\n      div\n      mul\n      0x20\n      add\n      mload(0x40)\n      swap1\n      dup2\n      add\n      0x40\n      mstore\n      dup1\n      swap3\n      swap2\n      swap1\n      dup2\n      dup2\n      mstore\n      0x20\n      add\n      dup3\n      dup1\n      sload\n      tag_83\n      swap1\n      tag_82\n      jump\t// in\n    tag_83:\n      dup1\n      iszero\n      tag_84\n      jumpi\n      dup1\n      0x1f\n      lt\n      tag_85\n      jumpi\n      0x0100\n      dup1\n      dup4\n      sload\n      div\n      mul\n      dup4\n      mstore\n      swap2\n      0x20\n      add\n      swap2\n      jump(tag_84)\n    tag_85:\n      dup3\n      add\n      swap2\n      swap1\n      0x00\n      mstore\n      keccak256(0x00, 0x20)\n      swap1\n    tag_86:\n      dup2\n      sload\n      dup2\n      mstore\n      swap1\n      0x01\n      add\n      swap1\n      0x20\n      add\n      dup1\n      dup4\n      gt\n      tag_86\n      jumpi\n      dup3\n      swap1\n      sub\n      0x1f\n      and\n      dup3\n      add\n      swap2\n    tag_84:\n      pop\n      pop\n      pop\n      pop\n      pop\n      dup2\n      mstore\n      0x20\n      add\n      0x04\n      dup3\n      add\n      sload\n      dup2\n      mstore\n      0x20\n      add\n      0x05\n      dup3\n      add\n      0x00\n      swap1\n      sload\n      swap1\n      0x0100\n      exp\n      swap1\n      div\n      0xff\n      and\n      iszero\n      iszero\n      iszero\n      iszero\n      dup2\n      mstore\n      pop\n      pop\n      swap2\n      pop\n        /* \"contracts/DeFi/MultiSigV2.sol\":4165:4306  function getTransaction(uint256 _txId) external view txExists(_txId) returns (Transaction memory) {... */\n      pop\n      swap2\n      swap1\n      pop\n      jump\t// out\n        /* \"contracts/DeFi/MultiSigV2.sol\":3075:3765  function executeTx(uint256 _txId)... */\n    tag_31:\n        /* \"contracts/DeFi/MultiSigV2.sol\":932:939  isOwner */\n      0x00\n        /* \"contracts/DeFi/MultiSigV2.sol\":932:951  isOwner[msg.sender] */\n      dup1\n        /* \"contracts/DeFi/MultiSigV2.sol\":940:950  msg.sender */\n      caller\n        /* \"contracts/DeFi/MultiSigV2.sol\":932:951  isOwner[msg.sender] */\n      0xffffffffffffffffffffffffffffffffffffffff\n      and\n      0xffffffffffffffffffffffffffffffffffffffff\n      and\n      dup2\n      mstore\n      0x20\n      add\n      swap1\n      dup2\n      mstore\n      0x20\n      add\n      0x00\n      keccak256\n      0x00\n      swap1\n      sload\n      swap1\n      0x0100\n      exp\n      swap1\n      div\n      0xff\n      and\n        /* \"contracts/DeFi/MultiSigV2.sol\":927:995  if (!isOwner[msg.sender]) {... */\n      tag_88\n      jumpi\n        /* \"contracts/DeFi/MultiSigV2.sol\":974:984  NotOwner() */\n      mload(0x40)\n      0x30cd747100000000000000000000000000000000000000000000000000000000\n      dup2\n      mstore\n      0x04\n      add\n      mload(0x40)\n      dup1\n      swap2\n      sub\n      swap1\n      revert\n        /* \"contracts/DeFi/MultiSigV2.sol\":927:995  if (!isOwner[msg.sender]) {... */\n    tag_88:\n        /* \"contracts/DeFi/MultiSigV2.sol\":3161:3166  _txId */\n      dup1\n        /* \"contracts/DeFi/MultiSigV2.sol\":1080:1081  1 */\n      0x01\n        /* \"contracts/DeFi/MultiSigV2.sol\":1073:1077  txId */\n      sload(0x04)\n        /* \"contracts/DeFi/MultiSigV2.sol\":1073:1081  txId - 1 */\n      tag_90\n      swap2\n      swap1\n      tag_66\n      jump\t// in\n    tag_90:\n        /* \"contracts/DeFi/MultiSigV2.sol\":1065:1070  _txId */\n      dup2\n        /* \"contracts/DeFi/MultiSigV2.sol\":1065:1081  _txId > txId - 1 */\n      gt\n        /* \"contracts/DeFi/MultiSigV2.sol\":1061:1131  if (_txId > txId - 1) {... */\n      iszero\n      tag_91\n      jumpi\n        /* \"contracts/DeFi/MultiSigV2.sol\":1104:1120  TxDoesNotExist() */\n      mload(0x40)\n      0x9e1b596f00000000000000000000000000000000000000000000000000000000\n      dup2\n      mstore\n      0x04\n      add\n      mload(0x40)\n      dup1\n      swap2\n      sub\n      swap1\n      revert\n        /* \"contracts/DeFi/MultiSigV2.sol\":1061:1131  if (_txId > txId - 1) {... */\n    tag_91:\n        /* \"contracts/DeFi/MultiSigV2.sol\":3188:3193  _txId */\n      dup2\n        /* \"contracts/DeFi/MultiSigV2.sol\":1204:1216  transactions */\n      0x01\n        /* \"contracts/DeFi/MultiSigV2.sol\":1204:1223  transactions[_txId] */\n      0x00\n        /* \"contracts/DeFi/MultiSigV2.sol\":1217:1222  _txId */\n      dup3\n        /* \"contracts/DeFi/MultiSigV2.sol\":1204:1223  transactions[_txId] */\n      dup2\n      mstore\n      0x20\n      add\n      swap1\n      dup2\n      mstore\n      0x20\n      add\n      0x00\n      keccak256\n        /* \"contracts/DeFi/MultiSigV2.sol\":1204:1232  transactions[_txId].executed */\n      0x05\n      add\n      0x00\n      swap1\n      sload\n      swap1\n      0x0100\n      exp\n      swap1\n      div\n      0xff\n      and\n        /* \"contracts/DeFi/MultiSigV2.sol\":1200:1285  if (transactions[_txId].executed) {... */\n      iszero\n      tag_93\n      jumpi\n        /* \"contracts/DeFi/MultiSigV2.sol\":1255:1274  TxAlreadyExecuted() */\n      mload(0x40)\n      0x2ea945cf00000000000000000000000000000000000000000000000000000000\n      dup2\n      mstore\n      0x04\n      add\n      mload(0x40)\n      dup1\n      swap2\n      sub\n      swap1\n      revert\n        /* \"contracts/DeFi/MultiSigV2.sol\":1200:1285  if (transactions[_txId].executed) {... */\n    tag_93:\n        /* \"contracts/DeFi/MultiSigV2.sol\":3209:3240  Transaction storage transaction */\n      0x00\n        /* \"contracts/DeFi/MultiSigV2.sol\":3243:3255  transactions */\n      0x01\n        /* \"contracts/DeFi/MultiSigV2.sol\":3243:3262  transactions[_txId] */\n      0x00\n        /* \"contracts/DeFi/MultiSigV2.sol\":3256:3261  _txId */\n      dup6\n        /* \"contracts/DeFi/MultiSigV2.sol\":3243:3262  transactions[_txId] */\n      dup2\n      mstore\n      0x20\n      add\n      swap1\n      dup2\n      mstore\n      0x20\n      add\n      0x00\n      keccak256\n        /* \"contracts/DeFi/MultiSigV2.sol\":3209:3262  Transaction storage transaction = transactions[_txId] */\n      swap1\n      pop\n        /* \"contracts/DeFi/MultiSigV2.sol\":3304:3312  required */\n      sload(0x03)\n        /* \"contracts/DeFi/MultiSigV2.sol\":3276:3287  transaction */\n      dup2\n        /* \"contracts/DeFi/MultiSigV2.sol\":3276:3301  transaction.confirmations */\n      0x04\n      add\n      sload\n        /* \"contracts/DeFi/MultiSigV2.sol\":3276:3312  transaction.confirmations < required */\n      lt\n        /* \"contracts/DeFi/MultiSigV2.sol\":3272:3377  if (transaction.confirmations < required) {... */\n      iszero\n      tag_95\n      jumpi\n        /* \"contracts/DeFi/MultiSigV2.sol\":3335:3366  LessConfirmationsThanRequired() */\n      mload(0x40)\n      0x9dd63cb700000000000000000000000000000000000000000000000000000000\n      dup2\n      mstore\n      0x04\n      add\n      mload(0x40)\n      dup1\n      swap2\n      sub\n      swap1\n      revert\n        /* \"contracts/DeFi/MultiSigV2.sol\":3272:3377  if (transaction.confirmations < required) {... */\n    tag_95:\n        /* \"contracts/DeFi/MultiSigV2.sol\":3409:3413  true */\n      0x01\n        /* \"contracts/DeFi/MultiSigV2.sol\":3386:3397  transaction */\n      dup2\n        /* \"contracts/DeFi/MultiSigV2.sol\":3386:3406  transaction.executed */\n      0x05\n      add\n      0x00\n        /* \"contracts/DeFi/MultiSigV2.sol\":3386:3413  transaction.executed = true */\n      0x0100\n      exp\n      dup2\n      sload\n      dup2\n      0xff\n      mul\n      not\n      and\n      swap1\n      dup4\n      iszero\n      iszero\n      mul\n      or\n      swap1\n      sstore\n      pop\n        /* \"contracts/DeFi/MultiSigV2.sol\":3424:3436  bool success */\n      0x00\n        /* \"contracts/DeFi/MultiSigV2.sol\":3450:3461  transaction */\n      dup2\n        /* \"contracts/DeFi/MultiSigV2.sol\":3450:3464  transaction.to */\n      0x01\n      add\n      0x00\n      swap1\n      sload\n      swap1\n      0x0100\n      exp\n      swap1\n      div\n      0xffffffffffffffffffffffffffffffffffffffff\n      and\n        /* \"contracts/DeFi/MultiSigV2.sol\":3442:3470  payable(transaction.to).call */\n      0xffffffffffffffffffffffffffffffffffffffff\n      and\n        /* \"contracts/DeFi/MultiSigV2.sol\":3491:3502  transaction */\n      dup3\n        /* \"contracts/DeFi/MultiSigV2.sol\":3491:3508  transaction.value */\n      0x02\n      add\n      sload\n        /* \"contracts/DeFi/MultiSigV2.sol\":3519:3530  transaction */\n      dup4\n        /* \"contracts/DeFi/MultiSigV2.sol\":3519:3535  transaction.data */\n      0x03\n      add\n        /* \"contracts/DeFi/MultiSigV2.sol\":3442:3536  payable(transaction.to).call{... */\n      mload(0x40)\n      tag_96\n      swap2\n      swap1\n      tag_97\n      jump\t// in\n    tag_96:\n      0x00\n      mload(0x40)\n      dup1\n      dup4\n      sub\n      dup2\n      dup6\n      dup8\n      gas\n      call\n      swap3\n      pop\n      pop\n      pop\n      returndatasize\n      dup1\n      0x00\n      dup2\n      eq\n      tag_100\n      jumpi\n      mload(0x40)\n      swap2\n      pop\n      and(add(returndatasize, 0x3f), not(0x1f))\n      dup3\n      add\n      0x40\n      mstore\n      returndatasize\n      dup3\n      mstore\n      returndatasize\n      0x00\n      0x20\n      dup5\n      add\n      returndatacopy\n      jump(tag_99)\n    tag_100:\n      0x60\n      swap2\n      pop\n    tag_99:\n      pop\n        /* \"contracts/DeFi/MultiSigV2.sol\":3423:3536  (bool success, ) = payable(transaction.to).call{... */\n      pop\n      swap1\n      pop\n        /* \"contracts/DeFi/MultiSigV2.sol\":3551:3558  success */\n      dup1\n        /* \"contracts/DeFi/MultiSigV2.sol\":3546:3611  if (!success) {... */\n      tag_101\n      jumpi\n        /* \"contracts/DeFi/MultiSigV2.sol\":3581:3600  TxExecutionFailed() */\n      mload(0x40)\n      0xcb2f2a1c00000000000000000000000000000000000000000000000000000000\n      dup2\n      mstore\n      0x04\n      add\n      mload(0x40)\n      dup1\n      swap2\n      sub\n      swap1\n      revert\n        /* \"contracts/DeFi/MultiSigV2.sol\":3546:3611  if (!success) {... */\n    tag_101:\n        /* \"contracts/DeFi/MultiSigV2.sol\":3708:3719  transaction */\n      dup2\n        /* \"contracts/DeFi/MultiSigV2.sol\":3708:3724  transaction.data */\n      0x03\n      add\n        /* \"contracts/DeFi/MultiSigV2.sol\":3625:3758  TxExecuted(... */\n      mload(0x40)\n      tag_102\n      swap2\n      swap1\n      tag_97\n      jump\t// in\n    tag_102:\n      mload(0x40)\n      dup1\n      swap2\n      sub\n      swap1\n      keccak256\n        /* \"contracts/DeFi/MultiSigV2.sol\":3677:3688  transaction */\n      dup3\n        /* \"contracts/DeFi/MultiSigV2.sol\":3677:3694  transaction.value */\n      0x02\n      add\n      sload\n        /* \"contracts/DeFi/MultiSigV2.sol\":3649:3660  transaction */\n      dup4\n        /* \"contracts/DeFi/MultiSigV2.sol\":3649:3663  transaction.to */\n      0x01\n      add\n      0x00\n      swap1\n      sload\n      swap1\n      0x0100\n      exp\n      swap1\n      div\n      0xffffffffffffffffffffffffffffffffffffffff\n      and\n        /* \"contracts/DeFi/MultiSigV2.sol\":3625:3758  TxExecuted(... */\n      0xffffffffffffffffffffffffffffffffffffffff\n      and\n      0xb91792dfbec9d14f14efe0fd0328fe544073cd1befa73f98441bce708e643179\n        /* \"contracts/DeFi/MultiSigV2.sol\":3738:3748  msg.sender */\n      caller\n        /* \"contracts/DeFi/MultiSigV2.sol\":3625:3758  TxExecuted(... */\n      mload(0x40)\n      tag_103\n      swap2\n      swap1\n      tag_104\n      jump\t// in\n    tag_103:\n      mload(0x40)\n      dup1\n      swap2\n      sub\n      swap1\n      log4\n        /* \"contracts/DeFi/MultiSigV2.sol\":3199:3765  {... */\n      pop\n      pop\n        /* \"contracts/DeFi/MultiSigV2.sol\":1140:1141  _ */\n      pop\n        /* \"contracts/DeFi/MultiSigV2.sol\":1004:1005  _ */\n      pop\n        /* \"contracts/DeFi/MultiSigV2.sol\":3075:3765  function executeTx(uint256 _txId)... */\n      pop\n      jump\t// out\n        /* \"contracts/DeFi/MultiSigV2.sol\":4422:4558  function checkApproved(uint256 _txId, address _approver) external view returns (bool) {... */\n    tag_36:\n        /* \"contracts/DeFi/MultiSigV2.sol\":4502:4506  bool */\n      0x00\n        /* \"contracts/DeFi/MultiSigV2.sol\":4525:4533  approved */\n      0x02\n        /* \"contracts/DeFi/MultiSigV2.sol\":4525:4540  approved[_txId] */\n      0x00\n        /* \"contracts/DeFi/MultiSigV2.sol\":4534:4539  _txId */\n      dup5\n        /* \"contracts/DeFi/MultiSigV2.sol\":4525:4540  approved[_txId] */\n      dup2\n      mstore\n      0x20\n      add\n      swap1\n      dup2\n      mstore\n      0x20\n      add\n      0x00\n      keccak256\n        /* \"contracts/DeFi/MultiSigV2.sol\":4525:4551  approved[_txId][_approver] */\n      0x00\n        /* \"contracts/DeFi/MultiSigV2.sol\":4541:4550  _approver */\n      dup4\n        /* \"contracts/DeFi/MultiSigV2.sol\":4525:4551  approved[_txId][_approver] */\n      0xffffffffffffffffffffffffffffffffffffffff\n      and\n      0xffffffffffffffffffffffffffffffffffffffff\n      and\n      dup2\n      mstore\n      0x20\n      add\n      swap1\n      dup2\n      mstore\n      0x20\n      add\n      0x00\n      keccak256\n      0x00\n      swap1\n      sload\n      swap1\n      0x0100\n      exp\n      swap1\n      div\n      0xff\n      and\n        /* \"contracts/DeFi/MultiSigV2.sol\":4518:4551  return approved[_txId][_approver] */\n      swap1\n      pop\n        /* \"contracts/DeFi/MultiSigV2.sol\":4422:4558  function checkApproved(uint256 _txId, address _approver) external view returns (bool) {... */\n      swap3\n      swap2\n      pop\n      pop\n      jump\t// out\n        /* \"contracts/DeFi/MultiSigV2.sol\":3771:4159  function revokeApproval(uint256 _txId)... */\n    tag_42:\n        /* \"contracts/DeFi/MultiSigV2.sol\":932:939  isOwner */\n      0x00\n        /* \"contracts/DeFi/MultiSigV2.sol\":932:951  isOwner[msg.sender] */\n      dup1\n        /* \"contracts/DeFi/MultiSigV2.sol\":940:950  msg.sender */\n      caller\n        /* \"contracts/DeFi/MultiSigV2.sol\":932:951  isOwner[msg.sender] */\n      0xffffffffffffffffffffffffffffffffffffffff\n      and\n      0xffffffffffffffffffffffffffffffffffffffff\n      and\n      dup2\n      mstore\n      0x20\n      add\n      swap1\n      dup2\n      mstore\n      0x20\n      add\n      0x00\n      keccak256\n      0x00\n      swap1\n      sload\n      swap1\n      0x0100\n      exp\n      swap1\n      div\n      0xff\n      and\n        /* \"contracts/DeFi/MultiSigV2.sol\":927:995  if (!isOwner[msg.sender]) {... */\n      tag_107\n      jumpi\n        /* \"contracts/DeFi/MultiSigV2.sol\":974:984  NotOwner() */\n      mload(0x40)\n      0x30cd747100000000000000000000000000000000000000000000000000000000\n      dup2\n      mstore\n      0x04\n      add\n      mload(0x40)\n      dup1\n      swap2\n      sub\n      swap1\n      revert\n        /* \"contracts/DeFi/MultiSigV2.sol\":927:995  if (!isOwner[msg.sender]) {... */\n    tag_107:\n        /* \"contracts/DeFi/MultiSigV2.sol\":3862:3867  _txId */\n      dup1\n        /* \"contracts/DeFi/MultiSigV2.sol\":1080:1081  1 */\n      0x01\n        /* \"contracts/DeFi/MultiSigV2.sol\":1073:1077  txId */\n      sload(0x04)\n        /* \"contracts/DeFi/MultiSigV2.sol\":1073:1081  txId - 1 */\n      tag_109\n      swap2\n      swap1\n      tag_66\n      jump\t// in\n    tag_109:\n        /* \"contracts/DeFi/MultiSigV2.sol\":1065:1070  _txId */\n      dup2\n        /* \"contracts/DeFi/MultiSigV2.sol\":1065:1081  _txId > txId - 1 */\n      gt\n        /* \"contracts/DeFi/MultiSigV2.sol\":1061:1131  if (_txId > txId - 1) {... */\n      iszero\n      tag_110\n      jumpi\n        /* \"contracts/DeFi/MultiSigV2.sol\":1104:1120  TxDoesNotExist() */\n      mload(0x40)\n      0x9e1b596f00000000000000000000000000000000000000000000000000000000\n      dup2\n      mstore\n      0x04\n      add\n      mload(0x40)\n      dup1\n      swap2\n      sub\n      swap1\n      revert\n        /* \"contracts/DeFi/MultiSigV2.sol\":1061:1131  if (_txId > txId - 1) {... */\n    tag_110:\n        /* \"contracts/DeFi/MultiSigV2.sol\":3889:3894  _txId */\n      dup2\n        /* \"contracts/DeFi/MultiSigV2.sol\":1204:1216  transactions */\n      0x01\n        /* \"contracts/DeFi/MultiSigV2.sol\":1204:1223  transactions[_txId] */\n      0x00\n        /* \"contracts/DeFi/MultiSigV2.sol\":1217:1222  _txId */\n      dup3\n        /* \"contracts/DeFi/MultiSigV2.sol\":1204:1223  transactions[_txId] */\n      dup2\n      mstore\n      0x20\n      add\n      swap1\n      dup2\n      mstore\n      0x20\n      add\n      0x00\n      keccak256\n        /* \"contracts/DeFi/MultiSigV2.sol\":1204:1232  transactions[_txId].executed */\n      0x05\n      add\n      0x00\n      swap1\n      sload\n      swap1\n      0x0100\n      exp\n      swap1\n      div\n      0xff\n      and\n        /* \"contracts/DeFi/MultiSigV2.sol\":1200:1285  if (transactions[_txId].executed) {... */\n      iszero\n      tag_112\n      jumpi\n        /* \"contracts/DeFi/MultiSigV2.sol\":1255:1274  TxAlreadyExecuted() */\n      mload(0x40)\n      0x2ea945cf00000000000000000000000000000000000000000000000000000000\n      dup2\n      mstore\n      0x04\n      add\n      mload(0x40)\n      dup1\n      swap2\n      sub\n      swap1\n      revert\n        /* \"contracts/DeFi/MultiSigV2.sol\":1200:1285  if (transactions[_txId].executed) {... */\n    tag_112:\n        /* \"contracts/DeFi/MultiSigV2.sol\":3914:3922  approved */\n      0x02\n        /* \"contracts/DeFi/MultiSigV2.sol\":3914:3929  approved[_txId] */\n      0x00\n        /* \"contracts/DeFi/MultiSigV2.sol\":3923:3928  _txId */\n      dup5\n        /* \"contracts/DeFi/MultiSigV2.sol\":3914:3929  approved[_txId] */\n      dup2\n      mstore\n      0x20\n      add\n      swap1\n      dup2\n      mstore\n      0x20\n      add\n      0x00\n      keccak256\n        /* \"contracts/DeFi/MultiSigV2.sol\":3914:3941  approved[_txId][msg.sender] */\n      0x00\n        /* \"contracts/DeFi/MultiSigV2.sol\":3930:3940  msg.sender */\n      caller\n        /* \"contracts/DeFi/MultiSigV2.sol\":3914:3941  approved[_txId][msg.sender] */\n      0xffffffffffffffffffffffffffffffffffffffff\n      and\n      0xffffffffffffffffffffffffffffffffffffffff\n      and\n      dup2\n      mstore\n      0x20\n      add\n      swap1\n      dup2\n      mstore\n      0x20\n      add\n      0x00\n      keccak256\n      0x00\n      swap1\n      sload\n      swap1\n      0x0100\n      exp\n      swap1\n      div\n      0xff\n      and\n        /* \"contracts/DeFi/MultiSigV2.sol\":3910:4105  if (approved[_txId][msg.sender]) {... */\n      iszero\n      tag_114\n      jumpi\n        /* \"contracts/DeFi/MultiSigV2.sol\":3957:3969  transactions */\n      0x01\n        /* \"contracts/DeFi/MultiSigV2.sol\":3957:3976  transactions[_txId] */\n      0x00\n        /* \"contracts/DeFi/MultiSigV2.sol\":3970:3975  _txId */\n      dup5\n        /* \"contracts/DeFi/MultiSigV2.sol\":3957:3976  transactions[_txId] */\n      dup2\n      mstore\n      0x20\n      add\n      swap1\n      dup2\n      mstore\n      0x20\n      add\n      0x00\n      keccak256\n        /* \"contracts/DeFi/MultiSigV2.sol\":3957:3990  transactions[_txId].confirmations */\n      0x04\n      add\n      0x00\n        /* \"contracts/DeFi/MultiSigV2.sol\":3957:3992  transactions[_txId].confirmations-- */\n      dup2\n      sload\n      dup1\n      swap3\n      swap2\n      swap1\n      tag_115\n      swap1\n      tag_116\n      jump\t// in\n    tag_115:\n      swap2\n      swap1\n      pop\n      sstore\n      pop\n        /* \"contracts/DeFi/MultiSigV2.sol\":4036:4041  false */\n      0x00\n        /* \"contracts/DeFi/MultiSigV2.sol\":4006:4014  approved */\n      0x02\n        /* \"contracts/DeFi/MultiSigV2.sol\":4006:4021  approved[_txId] */\n      0x00\n        /* \"contracts/DeFi/MultiSigV2.sol\":4015:4020  _txId */\n      dup6\n        /* \"contracts/DeFi/MultiSigV2.sol\":4006:4021  approved[_txId] */\n      dup2\n      mstore\n      0x20\n      add\n      swap1\n      dup2\n      mstore\n      0x20\n      add\n      0x00\n      keccak256\n        /* \"contracts/DeFi/MultiSigV2.sol\":4006:4033  approved[_txId][msg.sender] */\n      0x00\n        /* \"contracts/DeFi/MultiSigV2.sol\":4022:4032  msg.sender */\n      caller\n        /* \"contracts/DeFi/MultiSigV2.sol\":4006:4033  approved[_txId][msg.sender] */\n      0xffffffffffffffffffffffffffffffffffffffff\n      and\n      0xffffffffffffffffffffffffffffffffffffffff\n      and\n      dup2\n      mstore\n      0x20\n      add\n      swap1\n      dup2\n      mstore\n      0x20\n      add\n      0x00\n      keccak256\n      0x00\n        /* \"contracts/DeFi/MultiSigV2.sol\":4006:4041  approved[_txId][msg.sender] = false */\n      0x0100\n      exp\n      dup2\n      sload\n      dup2\n      0xff\n      mul\n      not\n      and\n      swap1\n      dup4\n      iszero\n      iszero\n      mul\n      or\n      swap1\n      sstore\n      pop\n        /* \"contracts/DeFi/MultiSigV2.sol\":3910:4105  if (approved[_txId][msg.sender]) {... */\n      jump(tag_117)\n    tag_114:\n        /* \"contracts/DeFi/MultiSigV2.sol\":4079:4094  TxNotApproved() */\n      mload(0x40)\n      0xfafe52bf00000000000000000000000000000000000000000000000000000000\n      dup2\n      mstore\n      0x04\n      add\n      mload(0x40)\n      dup1\n      swap2\n      sub\n      swap1\n      revert\n        /* \"contracts/DeFi/MultiSigV2.sol\":3910:4105  if (approved[_txId][msg.sender]) {... */\n    tag_117:\n        /* \"contracts/DeFi/MultiSigV2.sol\":4146:4151  _txId */\n      dup3\n        /* \"contracts/DeFi/MultiSigV2.sol\":4134:4144  msg.sender */\n      caller\n        /* \"contracts/DeFi/MultiSigV2.sol\":4119:4152  RevokeApproval(msg.sender, _txId) */\n      0xffffffffffffffffffffffffffffffffffffffff\n      and\n      0x1e75c0948730226138e58d1e7446b6167b5159a6904c3ac4597714f298d13df2\n      mload(0x40)\n      mload(0x40)\n      dup1\n      swap2\n      sub\n      swap1\n      log3\n        /* \"contracts/DeFi/MultiSigV2.sol\":1140:1141  _ */\n      pop\n        /* \"contracts/DeFi/MultiSigV2.sol\":1004:1005  _ */\n      pop\n        /* \"contracts/DeFi/MultiSigV2.sol\":3771:4159  function revokeApproval(uint256 _txId)... */\n      pop\n      jump\t// out\n        /* \"contracts/DeFi/MultiSigV2.sol\":2394:2772  function submitTx(... */\n    tag_47:\n        /* \"contracts/DeFi/MultiSigV2.sol\":932:939  isOwner */\n      0x00\n        /* \"contracts/DeFi/MultiSigV2.sol\":932:951  isOwner[msg.sender] */\n      dup1\n        /* \"contracts/DeFi/MultiSigV2.sol\":940:950  msg.sender */\n      caller\n        /* \"contracts/DeFi/MultiSigV2.sol\":932:951  isOwner[msg.sender] */\n      0xffffffffffffffffffffffffffffffffffffffff\n      and\n      0xffffffffffffffffffffffffffffffffffffffff\n      and\n      dup2\n      mstore\n      0x20\n      add\n      swap1\n      dup2\n      mstore\n      0x20\n      add\n      0x00\n      keccak256\n      0x00\n      swap1\n      sload\n      swap1\n      0x0100\n      exp\n      swap1\n      div\n      0xff\n      and\n        /* \"contracts/DeFi/MultiSigV2.sol\":927:995  if (!isOwner[msg.sender]) {... */\n      tag_119\n      jumpi\n        /* \"contracts/DeFi/MultiSigV2.sol\":974:984  NotOwner() */\n      mload(0x40)\n      0x30cd747100000000000000000000000000000000000000000000000000000000\n      dup2\n      mstore\n      0x04\n      add\n      mload(0x40)\n      dup1\n      swap2\n      sub\n      swap1\n      revert\n        /* \"contracts/DeFi/MultiSigV2.sol\":927:995  if (!isOwner[msg.sender]) {... */\n    tag_119:\n        /* \"contracts/DeFi/MultiSigV2.sol\":2520:2551  Transaction storage transaction */\n      0x00\n        /* \"contracts/DeFi/MultiSigV2.sol\":2554:2566  transactions */\n      0x01\n        /* \"contracts/DeFi/MultiSigV2.sol\":2554:2572  transactions[txId] */\n      0x00\n        /* \"contracts/DeFi/MultiSigV2.sol\":2567:2571  txId */\n      sload(0x04)\n        /* \"contracts/DeFi/MultiSigV2.sol\":2554:2572  transactions[txId] */\n      dup2\n      mstore\n      0x20\n      add\n      swap1\n      dup2\n      mstore\n      0x20\n      add\n      0x00\n      keccak256\n        /* \"contracts/DeFi/MultiSigV2.sol\":2520:2572  Transaction storage transaction = transactions[txId] */\n      swap1\n      pop\n        /* \"contracts/DeFi/MultiSigV2.sol\":2599:2603  txId */\n      sload(0x04)\n        /* \"contracts/DeFi/MultiSigV2.sol\":2582:2593  transaction */\n      dup2\n        /* \"contracts/DeFi/MultiSigV2.sol\":2582:2596  transaction.id */\n      0x00\n      add\n        /* \"contracts/DeFi/MultiSigV2.sol\":2582:2603  transaction.id = txId */\n      dup2\n      swap1\n      sstore\n      pop\n        /* \"contracts/DeFi/MultiSigV2.sol\":2630:2633  _to */\n      dup4\n        /* \"contracts/DeFi/MultiSigV2.sol\":2613:2624  transaction */\n      dup2\n        /* \"contracts/DeFi/MultiSigV2.sol\":2613:2627  transaction.to */\n      0x01\n      add\n      0x00\n        /* \"contracts/DeFi/MultiSigV2.sol\":2613:2633  transaction.to = _to */\n      0x0100\n      exp\n      dup2\n      sload\n      dup2\n      0xffffffffffffffffffffffffffffffffffffffff\n      mul\n      not\n      and\n      swap1\n      dup4\n      0xffffffffffffffffffffffffffffffffffffffff\n      and\n      mul\n      or\n      swap1\n      sstore\n      pop\n        /* \"contracts/DeFi/MultiSigV2.sol\":2663:2669  _value */\n      dup3\n        /* \"contracts/DeFi/MultiSigV2.sol\":2643:2654  transaction */\n      dup2\n        /* \"contracts/DeFi/MultiSigV2.sol\":2643:2660  transaction.value */\n      0x02\n      add\n        /* \"contracts/DeFi/MultiSigV2.sol\":2643:2669  transaction.value = _value */\n      dup2\n      swap1\n      sstore\n      pop\n        /* \"contracts/DeFi/MultiSigV2.sol\":2698:2703  _data */\n      dup2\n        /* \"contracts/DeFi/MultiSigV2.sol\":2679:2690  transaction */\n      dup2\n        /* \"contracts/DeFi/MultiSigV2.sol\":2679:2695  transaction.data */\n      0x03\n      add\n        /* \"contracts/DeFi/MultiSigV2.sol\":2679:2703  transaction.data = _data */\n      swap1\n      dup1\n      mload\n      swap1\n      0x20\n      add\n      swap1\n      tag_121\n      swap3\n      swap2\n      swap1\n      tag_122\n      jump\t// in\n    tag_121:\n      pop\n        /* \"contracts/DeFi/MultiSigV2.sol\":2713:2717  txId */\n      0x04\n      0x00\n        /* \"contracts/DeFi/MultiSigV2.sol\":2713:2719  txId++ */\n      dup2\n      sload\n      dup1\n      swap3\n      swap2\n      swap1\n      tag_123\n      swap1\n      tag_74\n      jump\t// in\n    tag_123:\n      swap2\n      swap1\n      pop\n      sstore\n      pop\n        /* \"contracts/DeFi/MultiSigV2.sol\":2759:2764  _data */\n      dup2\n        /* \"contracts/DeFi/MultiSigV2.sol\":2734:2765  SubmittedTx(_to, _value, _data) */\n      mload(0x40)\n      tag_124\n      swap2\n      swap1\n      tag_125\n      jump\t// in\n    tag_124:\n      mload(0x40)\n      dup1\n      swap2\n      sub\n      swap1\n      keccak256\n        /* \"contracts/DeFi/MultiSigV2.sol\":2751:2757  _value */\n      dup4\n        /* \"contracts/DeFi/MultiSigV2.sol\":2746:2749  _to */\n      dup6\n        /* \"contracts/DeFi/MultiSigV2.sol\":2734:2765  SubmittedTx(_to, _value, _data) */\n      0xffffffffffffffffffffffffffffffffffffffff\n      and\n      0x315d8bf6c6d36a1411ee3d8d607b26df37940936bd273e006857a296fbac2ce8\n      mload(0x40)\n      mload(0x40)\n      dup1\n      swap2\n      sub\n      swap1\n      log4\n        /* \"contracts/DeFi/MultiSigV2.sol\":2510:2772  {... */\n      pop\n        /* \"contracts/DeFi/MultiSigV2.sol\":2394:2772  function submitTx(... */\n      pop\n      pop\n      pop\n      jump\t// out\n        /* \"contracts/DeFi/MultiSigV2.sol\":870:889  uint256 public txId */\n    tag_50:\n      sload(0x04)\n      dup2\n      jump\t// out\n        /* \"contracts/DeFi/MultiSigV2.sol\":841:864  uint256 public required */\n    tag_54:\n      sload(0x03)\n      dup2\n      jump\t// out\n        /* \"contracts/DeFi/MultiSigV2.sol\":4312:4416  function checkOwner(address _owner) external view returns (bool) {... */\n    tag_60:\n        /* \"contracts/DeFi/MultiSigV2.sol\":4371:4375  bool */\n      0x00\n        /* \"contracts/DeFi/MultiSigV2.sol\":4394:4401  isOwner */\n      dup1\n        /* \"contracts/DeFi/MultiSigV2.sol\":4394:4409  isOwner[_owner] */\n      0x00\n        /* \"contracts/DeFi/MultiSigV2.sol\":4402:4408  _owner */\n      dup4\n        /* \"contracts/DeFi/MultiSigV2.sol\":4394:4409  isOwner[_owner] */\n      0xffffffffffffffffffffffffffffffffffffffff\n      and\n      0xffffffffffffffffffffffffffffffffffffffff\n      and\n      dup2\n      mstore\n      0x20\n      add\n      swap1\n      dup2\n      mstore\n      0x20\n      add\n      0x00\n      keccak256\n      0x00\n      swap1\n      sload\n      swap1\n      0x0100\n      exp\n      swap1\n      div\n      0xff\n      and\n        /* \"contracts/DeFi/MultiSigV2.sol\":4387:4409  return isOwner[_owner] */\n      swap1\n      pop\n        /* \"contracts/DeFi/MultiSigV2.sol\":4312:4416  function checkOwner(address _owner) external view returns (bool) {... */\n      swap2\n      swap1\n      pop\n      jump\t// out\n    tag_76:\n      mload(0x40)\n      dup1\n      0xc0\n      add\n      0x40\n      mstore\n      dup1\n      0x00\n      dup2\n      mstore\n      0x20\n      add\n      and(0xffffffffffffffffffffffffffffffffffffffff, 0x00)\n      dup2\n      mstore\n      0x20\n      add\n      0x00\n      dup2\n      mstore\n      0x20\n      add\n      0x60\n      dup2\n      mstore\n      0x20\n      add\n      0x00\n      dup2\n      mstore\n      0x20\n      add\n      iszero(iszero(0x00))\n      dup2\n      mstore\n      pop\n      swap1\n      jump\t// out\n    tag_122:\n      dup3\n      dup1\n      sload\n      tag_127\n      swap1\n      tag_82\n      jump\t// in\n    tag_127:\n      swap1\n      0x00\n      mstore\n      keccak256(0x00, 0x20)\n      swap1\n      0x1f\n      add\n      0x20\n      swap1\n      div\n      dup2\n      add\n      swap3\n      dup3\n      tag_129\n      jumpi\n      0x00\n      dup6\n      sstore\n      jump(tag_128)\n    tag_129:\n      dup3\n      0x1f\n      lt\n      tag_130\n      jumpi\n      dup1\n      mload\n      not(0xff)\n      and\n      dup4\n      dup1\n      add\n      or\n      dup6\n      sstore\n      jump(tag_128)\n    tag_130:\n      dup3\n      dup1\n      add\n      0x01\n      add\n      dup6\n      sstore\n      dup3\n      iszero\n      tag_128\n      jumpi\n      swap2\n      dup3\n      add\n    tag_131:\n      dup3\n      dup2\n      gt\n      iszero\n      tag_132\n      jumpi\n      dup3\n      mload\n      dup3\n      sstore\n      swap2\n      0x20\n      add\n      swap2\n      swap1\n      0x01\n      add\n      swap1\n      jump(tag_131)\n    tag_132:\n    tag_128:\n      pop\n      swap1\n      pop\n      tag_133\n      swap2\n      swap1\n      tag_134\n      jump\t// in\n    tag_133:\n      pop\n      swap1\n      jump\t// out\n    tag_134:\n    tag_135:\n      dup1\n      dup3\n      gt\n      iszero\n      tag_136\n      jumpi\n      0x00\n      dup2\n      0x00\n      swap1\n      sstore\n      pop\n      0x01\n      add\n      jump(tag_135)\n    tag_136:\n      pop\n      swap1\n      jump\t// out\n        /* \"#utility.yul\":7:417   */\n    tag_138:\n        /* \"#utility.yul\":84:89   */\n      0x00\n        /* \"#utility.yul\":109:174   */\n      tag_140\n        /* \"#utility.yul\":125:173   */\n      tag_141\n        /* \"#utility.yul\":166:172   */\n      dup5\n        /* \"#utility.yul\":125:173   */\n      tag_142\n      jump\t// in\n    tag_141:\n        /* \"#utility.yul\":109:174   */\n      tag_143\n      jump\t// in\n    tag_140:\n        /* \"#utility.yul\":100:174   */\n      swap1\n      pop\n        /* \"#utility.yul\":197:203   */\n      dup3\n        /* \"#utility.yul\":190:195   */\n      dup2\n        /* \"#utility.yul\":183:204   */\n      mstore\n        /* \"#utility.yul\":235:239   */\n      0x20\n        /* \"#utility.yul\":228:233   */\n      dup2\n        /* \"#utility.yul\":224:240   */\n      add\n        /* \"#utility.yul\":273:276   */\n      dup5\n        /* \"#utility.yul\":264:270   */\n      dup5\n        /* \"#utility.yul\":259:262   */\n      dup5\n        /* \"#utility.yul\":255:271   */\n      add\n        /* \"#utility.yul\":252:277   */\n      gt\n        /* \"#utility.yul\":249:361   */\n      iszero\n      tag_144\n      jumpi\n        /* \"#utility.yul\":280:359   */\n      tag_145\n      tag_146\n      jump\t// in\n    tag_145:\n        /* \"#utility.yul\":249:361   */\n    tag_144:\n        /* \"#utility.yul\":370:411   */\n      tag_147\n        /* \"#utility.yul\":404:410   */\n      dup5\n        /* \"#utility.yul\":399:402   */\n      dup3\n        /* \"#utility.yul\":394:397   */\n      dup6\n        /* \"#utility.yul\":370:411   */\n      tag_148\n      jump\t// in\n    tag_147:\n        /* \"#utility.yul\":90:417   */\n      pop\n        /* \"#utility.yul\":7:417   */\n      swap4\n      swap3\n      pop\n      pop\n      pop\n      jump\t// out\n        /* \"#utility.yul\":423:562   */\n    tag_149:\n        /* \"#utility.yul\":469:474   */\n      0x00\n        /* \"#utility.yul\":507:513   */\n      dup2\n        /* \"#utility.yul\":494:514   */\n      calldataload\n        /* \"#utility.yul\":485:514   */\n      swap1\n      pop\n        /* \"#utility.yul\":523:556   */\n      tag_151\n        /* \"#utility.yul\":550:555   */\n      dup2\n        /* \"#utility.yul\":523:556   */\n      tag_152\n      jump\t// in\n    tag_151:\n        /* \"#utility.yul\":423:562   */\n      swap3\n      swap2\n      pop\n      pop\n      jump\t// out\n        /* \"#utility.yul\":581:919   */\n    tag_153:\n        /* \"#utility.yul\":636:641   */\n      0x00\n        /* \"#utility.yul\":685:688   */\n      dup3\n        /* \"#utility.yul\":678:682   */\n      0x1f\n        /* \"#utility.yul\":670:676   */\n      dup4\n        /* \"#utility.yul\":666:683   */\n      add\n        /* \"#utility.yul\":662:689   */\n      slt\n        /* \"#utility.yul\":652:774   */\n      tag_155\n      jumpi\n        /* \"#utility.yul\":693:772   */\n      tag_156\n      tag_157\n      jump\t// in\n    tag_156:\n        /* \"#utility.yul\":652:774   */\n    tag_155:\n        /* \"#utility.yul\":810:816   */\n      dup2\n        /* \"#utility.yul\":797:817   */\n      calldataload\n        /* \"#utility.yul\":835:913   */\n      tag_158\n        /* \"#utility.yul\":909:912   */\n      dup5\n        /* \"#utility.yul\":901:907   */\n      dup3\n        /* \"#utility.yul\":894:898   */\n      0x20\n        /* \"#utility.yul\":886:892   */\n      dup7\n        /* \"#utility.yul\":882:899   */\n      add\n        /* \"#utility.yul\":835:913   */\n      tag_138\n      jump\t// in\n    tag_158:\n        /* \"#utility.yul\":826:913   */\n      swap2\n      pop\n        /* \"#utility.yul\":642:919   */\n      pop\n        /* \"#utility.yul\":581:919   */\n      swap3\n      swap2\n      pop\n      pop\n      jump\t// out\n        /* \"#utility.yul\":925:1064   */\n    tag_159:\n        /* \"#utility.yul\":971:976   */\n      0x00\n        /* \"#utility.yul\":1009:1015   */\n      dup2\n        /* \"#utility.yul\":996:1016   */\n      calldataload\n        /* \"#utility.yul\":987:1016   */\n      swap1\n      pop\n        /* \"#utility.yul\":1025:1058   */\n      tag_161\n        /* \"#utility.yul\":1052:1057   */\n      dup2\n        /* \"#utility.yul\":1025:1058   */\n      tag_162\n      jump\t// in\n    tag_161:\n        /* \"#utility.yul\":925:1064   */\n      swap3\n      swap2\n      pop\n      pop\n      jump\t// out\n        /* \"#utility.yul\":1070:1399   */\n    tag_59:\n        /* \"#utility.yul\":1129:1135   */\n      0x00\n        /* \"#utility.yul\":1178:1180   */\n      0x20\n        /* \"#utility.yul\":1166:1175   */\n      dup3\n        /* \"#utility.yul\":1157:1164   */\n      dup5\n        /* \"#utility.yul\":1153:1176   */\n      sub\n        /* \"#utility.yul\":1149:1181   */\n      slt\n        /* \"#utility.yul\":1146:1265   */\n      iszero\n      tag_164\n      jumpi\n        /* \"#utility.yul\":1184:1263   */\n      tag_165\n      tag_166\n      jump\t// in\n    tag_165:\n        /* \"#utility.yul\":1146:1265   */\n    tag_164:\n        /* \"#utility.yul\":1304:1305   */\n      0x00\n        /* \"#utility.yul\":1329:1382   */\n      tag_167\n        /* \"#utility.yul\":1374:1381   */\n      dup5\n        /* \"#utility.yul\":1365:1371   */\n      dup3\n        /* \"#utility.yul\":1354:1363   */\n      dup6\n        /* \"#utility.yul\":1350:1372   */\n      add\n        /* \"#utility.yul\":1329:1382   */\n      tag_149\n      jump\t// in\n    tag_167:\n        /* \"#utility.yul\":1319:1382   */\n      swap2\n      pop\n        /* \"#utility.yul\":1275:1392   */\n      pop\n        /* \"#utility.yul\":1070:1399   */\n      swap3\n      swap2\n      pop\n      pop\n      jump\t// out\n        /* \"#utility.yul\":1405:2202   */\n    tag_46:\n        /* \"#utility.yul\":1491:1497   */\n      0x00\n        /* \"#utility.yul\":1499:1505   */\n      dup1\n        /* \"#utility.yul\":1507:1513   */\n      0x00\n        /* \"#utility.yul\":1556:1558   */\n      0x60\n        /* \"#utility.yul\":1544:1553   */\n      dup5\n        /* \"#utility.yul\":1535:1542   */\n      dup7\n        /* \"#utility.yul\":1531:1554   */\n      sub\n        /* \"#utility.yul\":1527:1559   */\n      slt\n        /* \"#utility.yul\":1524:1643   */\n      iszero\n      tag_169\n      jumpi\n        /* \"#utility.yul\":1562:1641   */\n      tag_170\n      tag_166\n      jump\t// in\n    tag_170:\n        /* \"#utility.yul\":1524:1643   */\n    tag_169:\n        /* \"#utility.yul\":1682:1683   */\n      0x00\n        /* \"#utility.yul\":1707:1760   */\n      tag_171\n        /* \"#utility.yul\":1752:1759   */\n      dup7\n        /* \"#utility.yul\":1743:1749   */\n      dup3\n        /* \"#utility.yul\":1732:1741   */\n      dup8\n        /* \"#utility.yul\":1728:1750   */\n      add\n        /* \"#utility.yul\":1707:1760   */\n      tag_149\n      jump\t// in\n    tag_171:\n        /* \"#utility.yul\":1697:1760   */\n      swap4\n      pop\n        /* \"#utility.yul\":1653:1770   */\n      pop\n        /* \"#utility.yul\":1809:1811   */\n      0x20\n        /* \"#utility.yul\":1835:1888   */\n      tag_172\n        /* \"#utility.yul\":1880:1887   */\n      dup7\n        /* \"#utility.yul\":1871:1877   */\n      dup3\n        /* \"#utility.yul\":1860:1869   */\n      dup8\n        /* \"#utility.yul\":1856:1878   */\n      add\n        /* \"#utility.yul\":1835:1888   */\n      tag_159\n      jump\t// in\n    tag_172:\n        /* \"#utility.yul\":1825:1888   */\n      swap3\n      pop\n        /* \"#utility.yul\":1780:1898   */\n      pop\n        /* \"#utility.yul\":1965:1967   */\n      0x40\n        /* \"#utility.yul\":1954:1963   */\n      dup5\n        /* \"#utility.yul\":1950:1968   */\n      add\n        /* \"#utility.yul\":1937:1969   */\n      calldataload\n        /* \"#utility.yul\":1996:2014   */\n      0xffffffffffffffff\n        /* \"#utility.yul\":1988:1994   */\n      dup2\n        /* \"#utility.yul\":1985:2015   */\n      gt\n        /* \"#utility.yul\":1982:2099   */\n      iszero\n      tag_173\n      jumpi\n        /* \"#utility.yul\":2018:2097   */\n      tag_174\n      tag_175\n      jump\t// in\n    tag_174:\n        /* \"#utility.yul\":1982:2099   */\n    tag_173:\n        /* \"#utility.yul\":2123:2185   */\n      tag_176\n        /* \"#utility.yul\":2177:2184   */\n      dup7\n        /* \"#utility.yul\":2168:2174   */\n      dup3\n        /* \"#utility.yul\":2157:2166   */\n      dup8\n        /* \"#utility.yul\":2153:2175   */\n      add\n        /* \"#utility.yul\":2123:2185   */\n      tag_153\n      jump\t// in\n    tag_176:\n        /* \"#utility.yul\":2113:2185   */\n      swap2\n      pop\n        /* \"#utility.yul\":1908:2195   */\n      pop\n        /* \"#utility.yul\":1405:2202   */\n      swap3\n      pop\n      swap3\n      pop\n      swap3\n      jump\t// out\n        /* \"#utility.yul\":2208:2537   */\n    tag_20:\n        /* \"#utility.yul\":2267:2273   */\n      0x00\n        /* \"#utility.yul\":2316:2318   */\n      0x20\n        /* \"#utility.yul\":2304:2313   */\n      dup3\n        /* \"#utility.yul\":2295:2302   */\n      dup5\n        /* \"#utility.yul\":2291:2314   */\n      sub\n        /* \"#utility.yul\":2287:2319   */\n      slt\n        /* \"#utility.yul\":2284:2403   */\n      iszero\n      tag_178\n      jumpi\n        /* \"#utility.yul\":2322:2401   */\n      tag_179\n      tag_166\n      jump\t// in\n    tag_179:\n        /* \"#utility.yul\":2284:2403   */\n    tag_178:\n        /* \"#utility.yul\":2442:2443   */\n      0x00\n        /* \"#utility.yul\":2467:2520   */\n      tag_180\n        /* \"#utility.yul\":2512:2519   */\n      dup5\n        /* \"#utility.yul\":2503:2509   */\n      dup3\n        /* \"#utility.yul\":2492:2501   */\n      dup6\n        /* \"#utility.yul\":2488:2510   */\n      add\n        /* \"#utility.yul\":2467:2520   */\n      tag_159\n      jump\t// in\n    tag_180:\n        /* \"#utility.yul\":2457:2520   */\n      swap2\n      pop\n        /* \"#utility.yul\":2413:2530   */\n      pop\n        /* \"#utility.yul\":2208:2537   */\n      swap3\n      swap2\n      pop\n      pop\n      jump\t// out\n        /* \"#utility.yul\":2543:3017   */\n    tag_35:\n        /* \"#utility.yul\":2611:2617   */\n      0x00\n        /* \"#utility.yul\":2619:2625   */\n      dup1\n        /* \"#utility.yul\":2668:2670   */\n      0x40\n        /* \"#utility.yul\":2656:2665   */\n      dup4\n        /* \"#utility.yul\":2647:2654   */\n      dup6\n        /* \"#utility.yul\":2643:2666   */\n      sub\n        /* \"#utility.yul\":2639:2671   */\n      slt\n        /* \"#utility.yul\":2636:2755   */\n      iszero\n      tag_182\n      jumpi\n        /* \"#utility.yul\":2674:2753   */\n      tag_183\n      tag_166\n      jump\t// in\n    tag_183:\n        /* \"#utility.yul\":2636:2755   */\n    tag_182:\n        /* \"#utility.yul\":2794:2795   */\n      0x00\n        /* \"#utility.yul\":2819:2872   */\n      tag_184\n        /* \"#utility.yul\":2864:2871   */\n      dup6\n        /* \"#utility.yul\":2855:2861   */\n      dup3\n        /* \"#utility.yul\":2844:2853   */\n      dup7\n        /* \"#utility.yul\":2840:2862   */\n      add\n        /* \"#utility.yul\":2819:2872   */\n      tag_159\n      jump\t// in\n    tag_184:\n        /* \"#utility.yul\":2809:2872   */\n      swap3\n      pop\n        /* \"#utility.yul\":2765:2882   */\n      pop\n        /* \"#utility.yul\":2921:2923   */\n      0x20\n        /* \"#utility.yul\":2947:3000   */\n      tag_185\n        /* \"#utility.yul\":2992:2999   */\n      dup6\n        /* \"#utility.yul\":2983:2989   */\n      dup3\n        /* \"#utility.yul\":2972:2981   */\n      dup7\n        /* \"#utility.yul\":2968:2990   */\n      add\n        /* \"#utility.yul\":2947:3000   */\n      tag_149\n      jump\t// in\n    tag_185:\n        /* \"#utility.yul\":2937:3000   */\n      swap2\n      pop\n        /* \"#utility.yul\":2892:3010   */\n      pop\n        /* \"#utility.yul\":2543:3017   */\n      swap3\n      pop\n      swap3\n      swap1\n      pop\n      jump\t// out\n        /* \"#utility.yul\":3023:3131   */\n    tag_186:\n        /* \"#utility.yul\":3100:3124   */\n      tag_188\n        /* \"#utility.yul\":3118:3123   */\n      dup2\n        /* \"#utility.yul\":3100:3124   */\n      tag_189\n      jump\t// in\n    tag_188:\n        /* \"#utility.yul\":3095:3098   */\n      dup3\n        /* \"#utility.yul\":3088:3125   */\n      mstore\n        /* \"#utility.yul\":3023:3131   */\n      pop\n      pop\n      jump\t// out\n        /* \"#utility.yul\":3137:3255   */\n    tag_190:\n        /* \"#utility.yul\":3224:3248   */\n      tag_192\n        /* \"#utility.yul\":3242:3247   */\n      dup2\n        /* \"#utility.yul\":3224:3248   */\n      tag_189\n      jump\t// in\n    tag_192:\n        /* \"#utility.yul\":3219:3222   */\n      dup3\n        /* \"#utility.yul\":3212:3249   */\n      mstore\n        /* \"#utility.yul\":3137:3255   */\n      pop\n      pop\n      jump\t// out\n        /* \"#utility.yul\":3261:3360   */\n    tag_193:\n        /* \"#utility.yul\":3332:3353   */\n      tag_195\n        /* \"#utility.yul\":3347:3352   */\n      dup2\n        /* \"#utility.yul\":3332:3353   */\n      tag_196\n      jump\t// in\n    tag_195:\n        /* \"#utility.yul\":3327:3330   */\n      dup3\n        /* \"#utility.yul\":3320:3354   */\n      mstore\n        /* \"#utility.yul\":3261:3360   */\n      pop\n      pop\n      jump\t// out\n        /* \"#utility.yul\":3366:3475   */\n    tag_197:\n        /* \"#utility.yul\":3447:3468   */\n      tag_199\n        /* \"#utility.yul\":3462:3467   */\n      dup2\n        /* \"#utility.yul\":3447:3468   */\n      tag_196\n      jump\t// in\n    tag_199:\n        /* \"#utility.yul\":3442:3445   */\n      dup3\n        /* \"#utility.yul\":3435:3469   */\n      mstore\n        /* \"#utility.yul\":3366:3475   */\n      pop\n      pop\n      jump\t// out\n        /* \"#utility.yul\":3481:3821   */\n    tag_200:\n        /* \"#utility.yul\":3557:3560   */\n      0x00\n        /* \"#utility.yul\":3585:3623   */\n      tag_202\n        /* \"#utility.yul\":3617:3622   */\n      dup3\n        /* \"#utility.yul\":3585:3623   */\n      tag_203\n      jump\t// in\n    tag_202:\n        /* \"#utility.yul\":3639:3699   */\n      tag_204\n        /* \"#utility.yul\":3692:3698   */\n      dup2\n        /* \"#utility.yul\":3687:3690   */\n      dup6\n        /* \"#utility.yul\":3639:3699   */\n      tag_205\n      jump\t// in\n    tag_204:\n        /* \"#utility.yul\":3632:3699   */\n      swap4\n      pop\n        /* \"#utility.yul\":3708:3760   */\n      tag_206\n        /* \"#utility.yul\":3753:3759   */\n      dup2\n        /* \"#utility.yul\":3748:3751   */\n      dup6\n        /* \"#utility.yul\":3741:3745   */\n      0x20\n        /* \"#utility.yul\":3734:3739   */\n      dup7\n        /* \"#utility.yul\":3730:3746   */\n      add\n        /* \"#utility.yul\":3708:3760   */\n      tag_207\n      jump\t// in\n    tag_206:\n        /* \"#utility.yul\":3785:3814   */\n      tag_208\n        /* \"#utility.yul\":3807:3813   */\n      dup2\n        /* \"#utility.yul\":3785:3814   */\n      tag_209\n      jump\t// in\n    tag_208:\n        /* \"#utility.yul\":3780:3783   */\n      dup5\n        /* \"#utility.yul\":3776:3815   */\n      add\n        /* \"#utility.yul\":3769:3815   */\n      swap2\n      pop\n        /* \"#utility.yul\":3561:3821   */\n      pop\n        /* \"#utility.yul\":3481:3821   */\n      swap3\n      swap2\n      pop\n      pop\n      jump\t// out\n        /* \"#utility.yul\":3827:4200   */\n    tag_210:\n        /* \"#utility.yul\":3931:3934   */\n      0x00\n        /* \"#utility.yul\":3959:3997   */\n      tag_212\n        /* \"#utility.yul\":3991:3996   */\n      dup3\n        /* \"#utility.yul\":3959:3997   */\n      tag_203\n      jump\t// in\n    tag_212:\n        /* \"#utility.yul\":4013:4101   */\n      tag_213\n        /* \"#utility.yul\":4094:4100   */\n      dup2\n        /* \"#utility.yul\":4089:4092   */\n      dup6\n        /* \"#utility.yul\":4013:4101   */\n      tag_214\n      jump\t// in\n    tag_213:\n        /* \"#utility.yul\":4006:4101   */\n      swap4\n      pop\n        /* \"#utility.yul\":4110:4162   */\n      tag_215\n        /* \"#utility.yul\":4155:4161   */\n      dup2\n        /* \"#utility.yul\":4150:4153   */\n      dup6\n        /* \"#utility.yul\":4143:4147   */\n      0x20\n        /* \"#utility.yul\":4136:4141   */\n      dup7\n        /* \"#utility.yul\":4132:4148   */\n      add\n        /* \"#utility.yul\":4110:4162   */\n      tag_207\n      jump\t// in\n    tag_215:\n        /* \"#utility.yul\":4187:4193   */\n      dup1\n        /* \"#utility.yul\":4182:4185   */\n      dup5\n        /* \"#utility.yul\":4178:4194   */\n      add\n        /* \"#utility.yul\":4171:4194   */\n      swap2\n      pop\n        /* \"#utility.yul\":3935:4200   */\n      pop\n        /* \"#utility.yul\":3827:4200   */\n      swap3\n      swap2\n      pop\n      pop\n      jump\t// out\n        /* \"#utility.yul\":4228:5069   */\n    tag_216:\n        /* \"#utility.yul\":4329:4332   */\n      0x00\n        /* \"#utility.yul\":4366:4371   */\n      dup2\n        /* \"#utility.yul\":4360:4372   */\n      sload\n        /* \"#utility.yul\":4395:4431   */\n      tag_218\n        /* \"#utility.yul\":4421:4430   */\n      dup2\n        /* \"#utility.yul\":4395:4431   */\n      tag_82\n      jump\t// in\n    tag_218:\n        /* \"#utility.yul\":4447:4535   */\n      tag_219\n        /* \"#utility.yul\":4528:4534   */\n      dup2\n        /* \"#utility.yul\":4523:4526   */\n      dup7\n        /* \"#utility.yul\":4447:4535   */\n      tag_214\n      jump\t// in\n    tag_219:\n        /* \"#utility.yul\":4440:4535   */\n      swap5\n      pop\n        /* \"#utility.yul\":4566:4567   */\n      0x01\n        /* \"#utility.yul\":4555:4564   */\n      dup3\n        /* \"#utility.yul\":4551:4568   */\n      and\n        /* \"#utility.yul\":4582:4583   */\n      0x00\n        /* \"#utility.yul\":4577:4714   */\n      dup2\n      eq\n      tag_221\n      jumpi\n        /* \"#utility.yul\":4728:4729   */\n      0x01\n        /* \"#utility.yul\":4723:5063   */\n      dup2\n      eq\n      tag_222\n      jumpi\n        /* \"#utility.yul\":4544:5063   */\n      jump(tag_220)\n        /* \"#utility.yul\":4577:4714   */\n    tag_221:\n        /* \"#utility.yul\":4661:4665   */\n      0xff\n        /* \"#utility.yul\":4657:4666   */\n      not\n        /* \"#utility.yul\":4646:4655   */\n      dup4\n        /* \"#utility.yul\":4642:4667   */\n      and\n        /* \"#utility.yul\":4637:4640   */\n      dup7\n        /* \"#utility.yul\":4630:4668   */\n      mstore\n        /* \"#utility.yul\":4697:4703   */\n      dup2\n        /* \"#utility.yul\":4692:4695   */\n      dup7\n        /* \"#utility.yul\":4688:4704   */\n      add\n        /* \"#utility.yul\":4681:4704   */\n      swap4\n      pop\n        /* \"#utility.yul\":4577:4714   */\n      jump(tag_220)\n        /* \"#utility.yul\":4723:5063   */\n    tag_222:\n        /* \"#utility.yul\":4790:4827   */\n      tag_223\n        /* \"#utility.yul\":4821:4826   */\n      dup6\n        /* \"#utility.yul\":4790:4827   */\n      tag_224\n      jump\t// in\n    tag_223:\n        /* \"#utility.yul\":4849:4850   */\n      0x00\n        /* \"#utility.yul\":4863:5017   */\n    tag_225:\n        /* \"#utility.yul\":4877:4883   */\n      dup4\n        /* \"#utility.yul\":4874:4875   */\n      dup2\n        /* \"#utility.yul\":4871:4884   */\n      lt\n        /* \"#utility.yul\":4863:5017   */\n      iszero\n      tag_227\n      jumpi\n        /* \"#utility.yul\":4951:4958   */\n      dup2\n        /* \"#utility.yul\":4945:4959   */\n      sload\n        /* \"#utility.yul\":4941:4942   */\n      dup2\n        /* \"#utility.yul\":4936:4939   */\n      dup10\n        /* \"#utility.yul\":4932:4943   */\n      add\n        /* \"#utility.yul\":4925:4960   */\n      mstore\n        /* \"#utility.yul\":5001:5002   */\n      0x01\n        /* \"#utility.yul\":4992:4999   */\n      dup3\n        /* \"#utility.yul\":4988:5003   */\n      add\n        /* \"#utility.yul\":4977:5003   */\n      swap2\n      pop\n        /* \"#utility.yul\":4899:4903   */\n      0x20\n        /* \"#utility.yul\":4896:4897   */\n      dup2\n        /* \"#utility.yul\":4892:4904   */\n      add\n        /* \"#utility.yul\":4887:4904   */\n      swap1\n      pop\n        /* \"#utility.yul\":4863:5017   */\n      jump(tag_225)\n    tag_227:\n        /* \"#utility.yul\":5046:5052   */\n      dup4\n        /* \"#utility.yul\":5041:5044   */\n      dup9\n        /* \"#utility.yul\":5037:5053   */\n      add\n        /* \"#utility.yul\":5030:5053   */\n      swap6\n      pop\n        /* \"#utility.yul\":4730:5063   */\n      pop\n      pop\n        /* \"#utility.yul\":4544:5063   */\n    tag_220:\n      pop\n        /* \"#utility.yul\":4333:5069   */\n      pop\n      pop\n        /* \"#utility.yul\":4228:5069   */\n      swap3\n      swap2\n      pop\n      pop\n      jump\t// out\n        /* \"#utility.yul\":5153:6461   */\n    tag_228:\n        /* \"#utility.yul\":5276:5279   */\n      0x00\n        /* \"#utility.yul\":5312:5316   */\n      0xc0\n        /* \"#utility.yul\":5307:5310   */\n      dup4\n        /* \"#utility.yul\":5303:5317   */\n      add\n        /* \"#utility.yul\":5397:5401   */\n      0x00\n        /* \"#utility.yul\":5390:5395   */\n      dup4\n        /* \"#utility.yul\":5386:5402   */\n      add\n        /* \"#utility.yul\":5380:5403   */\n      mload\n        /* \"#utility.yul\":5416:5479   */\n      tag_230\n        /* \"#utility.yul\":5473:5477   */\n      0x00\n        /* \"#utility.yul\":5468:5471   */\n      dup7\n        /* \"#utility.yul\":5464:5478   */\n      add\n        /* \"#utility.yul\":5450:5462   */\n      dup3\n        /* \"#utility.yul\":5416:5479   */\n      tag_231\n      jump\t// in\n    tag_230:\n        /* \"#utility.yul\":5327:5489   */\n      pop\n        /* \"#utility.yul\":5569:5573   */\n      0x20\n        /* \"#utility.yul\":5562:5567   */\n      dup4\n        /* \"#utility.yul\":5558:5574   */\n      add\n        /* \"#utility.yul\":5552:5575   */\n      mload\n        /* \"#utility.yul\":5588:5651   */\n      tag_232\n        /* \"#utility.yul\":5645:5649   */\n      0x20\n        /* \"#utility.yul\":5640:5643   */\n      dup7\n        /* \"#utility.yul\":5636:5650   */\n      add\n        /* \"#utility.yul\":5622:5634   */\n      dup3\n        /* \"#utility.yul\":5588:5651   */\n      tag_186\n      jump\t// in\n    tag_232:\n        /* \"#utility.yul\":5499:5661   */\n      pop\n        /* \"#utility.yul\":5744:5748   */\n      0x40\n        /* \"#utility.yul\":5737:5742   */\n      dup4\n        /* \"#utility.yul\":5733:5749   */\n      add\n        /* \"#utility.yul\":5727:5750   */\n      mload\n        /* \"#utility.yul\":5763:5826   */\n      tag_233\n        /* \"#utility.yul\":5820:5824   */\n      0x40\n        /* \"#utility.yul\":5815:5818   */\n      dup7\n        /* \"#utility.yul\":5811:5825   */\n      add\n        /* \"#utility.yul\":5797:5809   */\n      dup3\n        /* \"#utility.yul\":5763:5826   */\n      tag_231\n      jump\t// in\n    tag_233:\n        /* \"#utility.yul\":5671:5836   */\n      pop\n        /* \"#utility.yul\":5918:5922   */\n      0x60\n        /* \"#utility.yul\":5911:5916   */\n      dup4\n        /* \"#utility.yul\":5907:5923   */\n      add\n        /* \"#utility.yul\":5901:5924   */\n      mload\n        /* \"#utility.yul\":5971:5974   */\n      dup5\n        /* \"#utility.yul\":5965:5969   */\n      dup3\n        /* \"#utility.yul\":5961:5975   */\n      sub\n        /* \"#utility.yul\":5954:5958   */\n      0x60\n        /* \"#utility.yul\":5949:5952   */\n      dup7\n        /* \"#utility.yul\":5945:5959   */\n      add\n        /* \"#utility.yul\":5938:5976   */\n      mstore\n        /* \"#utility.yul\":5997:6068   */\n      tag_234\n        /* \"#utility.yul\":6063:6067   */\n      dup3\n        /* \"#utility.yul\":6049:6061   */\n      dup3\n        /* \"#utility.yul\":5997:6068   */\n      tag_200\n      jump\t// in\n    tag_234:\n        /* \"#utility.yul\":5989:6068   */\n      swap2\n      pop\n        /* \"#utility.yul\":5846:6079   */\n      pop\n        /* \"#utility.yul\":6170:6174   */\n      0x80\n        /* \"#utility.yul\":6163:6168   */\n      dup4\n        /* \"#utility.yul\":6159:6175   */\n      add\n        /* \"#utility.yul\":6153:6176   */\n      mload\n        /* \"#utility.yul\":6189:6252   */\n      tag_235\n        /* \"#utility.yul\":6246:6250   */\n      0x80\n        /* \"#utility.yul\":6241:6244   */\n      dup7\n        /* \"#utility.yul\":6237:6251   */\n      add\n        /* \"#utility.yul\":6223:6235   */\n      dup3\n        /* \"#utility.yul\":6189:6252   */\n      tag_231\n      jump\t// in\n    tag_235:\n        /* \"#utility.yul\":6089:6262   */\n      pop\n        /* \"#utility.yul\":6348:6352   */\n      0xa0\n        /* \"#utility.yul\":6341:6346   */\n      dup4\n        /* \"#utility.yul\":6337:6353   */\n      add\n        /* \"#utility.yul\":6331:6354   */\n      mload\n        /* \"#utility.yul\":6367:6424   */\n      tag_236\n        /* \"#utility.yul\":6418:6422   */\n      0xa0\n        /* \"#utility.yul\":6413:6416   */\n      dup7\n        /* \"#utility.yul\":6409:6423   */\n      add\n        /* \"#utility.yul\":6395:6407   */\n      dup3\n        /* \"#utility.yul\":6367:6424   */\n      tag_193\n      jump\t// in\n    tag_236:\n        /* \"#utility.yul\":6272:6434   */\n      pop\n        /* \"#utility.yul\":6451:6455   */\n      dup1\n        /* \"#utility.yul\":6444:6455   */\n      swap2\n      pop\n        /* \"#utility.yul\":5281:6461   */\n      pop\n        /* \"#utility.yul\":5153:6461   */\n      swap3\n      swap2\n      pop\n      pop\n      jump\t// out\n        /* \"#utility.yul\":6467:6575   */\n    tag_231:\n        /* \"#utility.yul\":6544:6568   */\n      tag_238\n        /* \"#utility.yul\":6562:6567   */\n      dup2\n        /* \"#utility.yul\":6544:6568   */\n      tag_239\n      jump\t// in\n    tag_238:\n        /* \"#utility.yul\":6539:6542   */\n      dup3\n        /* \"#utility.yul\":6532:6569   */\n      mstore\n        /* \"#utility.yul\":6467:6575   */\n      pop\n      pop\n      jump\t// out\n        /* \"#utility.yul\":6581:6699   */\n    tag_240:\n        /* \"#utility.yul\":6668:6692   */\n      tag_242\n        /* \"#utility.yul\":6686:6691   */\n      dup2\n        /* \"#utility.yul\":6668:6692   */\n      tag_239\n      jump\t// in\n    tag_242:\n        /* \"#utility.yul\":6663:6666   */\n      dup3\n        /* \"#utility.yul\":6656:6693   */\n      mstore\n        /* \"#utility.yul\":6581:6699   */\n      pop\n      pop\n      jump\t// out\n        /* \"#utility.yul\":6705:6976   */\n    tag_125:\n        /* \"#utility.yul\":6835:6838   */\n      0x00\n        /* \"#utility.yul\":6857:6950   */\n      tag_244\n        /* \"#utility.yul\":6946:6949   */\n      dup3\n        /* \"#utility.yul\":6937:6943   */\n      dup5\n        /* \"#utility.yul\":6857:6950   */\n      tag_210\n      jump\t// in\n    tag_244:\n        /* \"#utility.yul\":6850:6950   */\n      swap2\n      pop\n        /* \"#utility.yul\":6967:6970   */\n      dup2\n        /* \"#utility.yul\":6960:6970   */\n      swap1\n      pop\n        /* \"#utility.yul\":6705:6976   */\n      swap3\n      swap2\n      pop\n      pop\n      jump\t// out\n        /* \"#utility.yul\":6982:7247   */\n    tag_97:\n        /* \"#utility.yul\":7109:7112   */\n      0x00\n        /* \"#utility.yul\":7131:7221   */\n      tag_246\n        /* \"#utility.yul\":7217:7220   */\n      dup3\n        /* \"#utility.yul\":7208:7214   */\n      dup5\n        /* \"#utility.yul\":7131:7221   */\n      tag_216\n      jump\t// in\n    tag_246:\n        /* \"#utility.yul\":7124:7221   */\n      swap2\n      pop\n        /* \"#utility.yul\":7238:7241   */\n      dup2\n        /* \"#utility.yul\":7231:7241   */\n      swap1\n      pop\n        /* \"#utility.yul\":6982:7247   */\n      swap3\n      swap2\n      pop\n      pop\n      jump\t// out\n        /* \"#utility.yul\":7253:7475   */\n    tag_104:\n        /* \"#utility.yul\":7346:7350   */\n      0x00\n        /* \"#utility.yul\":7384:7386   */\n      0x20\n        /* \"#utility.yul\":7373:7382   */\n      dup3\n        /* \"#utility.yul\":7369:7387   */\n      add\n        /* \"#utility.yul\":7361:7387   */\n      swap1\n      pop\n        /* \"#utility.yul\":7397:7468   */\n      tag_248\n        /* \"#utility.yul\":7465:7466   */\n      0x00\n        /* \"#utility.yul\":7454:7463   */\n      dup4\n        /* \"#utility.yul\":7450:7467   */\n      add\n        /* \"#utility.yul\":7441:7447   */\n      dup5\n        /* \"#utility.yul\":7397:7468   */\n      tag_190\n      jump\t// in\n    tag_248:\n        /* \"#utility.yul\":7253:7475   */\n      swap3\n      swap2\n      pop\n      pop\n      jump\t// out\n        /* \"#utility.yul\":7481:7691   */\n    tag_38:\n        /* \"#utility.yul\":7568:7572   */\n      0x00\n        /* \"#utility.yul\":7606:7608   */\n      0x20\n        /* \"#utility.yul\":7595:7604   */\n      dup3\n        /* \"#utility.yul\":7591:7609   */\n      add\n        /* \"#utility.yul\":7583:7609   */\n      swap1\n      pop\n        /* \"#utility.yul\":7619:7684   */\n      tag_250\n        /* \"#utility.yul\":7681:7682   */\n      0x00\n        /* \"#utility.yul\":7670:7679   */\n      dup4\n        /* \"#utility.yul\":7666:7683   */\n      add\n        /* \"#utility.yul\":7657:7663   */\n      dup5\n        /* \"#utility.yul\":7619:7684   */\n      tag_197\n      jump\t// in\n    tag_250:\n        /* \"#utility.yul\":7481:7691   */\n      swap3\n      swap2\n      pop\n      pop\n      jump\t// out\n        /* \"#utility.yul\":7697:8078   */\n    tag_27:\n        /* \"#utility.yul\":7844:7848   */\n      0x00\n        /* \"#utility.yul\":7882:7884   */\n      0x20\n        /* \"#utility.yul\":7871:7880   */\n      dup3\n        /* \"#utility.yul\":7867:7885   */\n      add\n        /* \"#utility.yul\":7859:7885   */\n      swap1\n      pop\n        /* \"#utility.yul\":7931:7940   */\n      dup2\n        /* \"#utility.yul\":7925:7929   */\n      dup2\n        /* \"#utility.yul\":7921:7941   */\n      sub\n        /* \"#utility.yul\":7917:7918   */\n      0x00\n        /* \"#utility.yul\":7906:7915   */\n      dup4\n        /* \"#utility.yul\":7902:7919   */\n      add\n        /* \"#utility.yul\":7895:7942   */\n      mstore\n        /* \"#utility.yul\":7959:8071   */\n      tag_252\n        /* \"#utility.yul\":8066:8070   */\n      dup2\n        /* \"#utility.yul\":8057:8063   */\n      dup5\n        /* \"#utility.yul\":7959:8071   */\n      tag_228\n      jump\t// in\n    tag_252:\n        /* \"#utility.yul\":7951:8071   */\n      swap1\n      pop\n        /* \"#utility.yul\":7697:8078   */\n      swap3\n      swap2\n      pop\n      pop\n      jump\t// out\n        /* \"#utility.yul\":8084:8306   */\n    tag_16:\n        /* \"#utility.yul\":8177:8181   */\n      0x00\n        /* \"#utility.yul\":8215:8217   */\n      0x20\n        /* \"#utility.yul\":8204:8213   */\n      dup3\n        /* \"#utility.yul\":8200:8218   */\n      add\n        /* \"#utility.yul\":8192:8218   */\n      swap1\n      pop\n        /* \"#utility.yul\":8228:8299   */\n      tag_254\n        /* \"#utility.yul\":8296:8297   */\n      0x00\n        /* \"#utility.yul\":8285:8294   */\n      dup4\n        /* \"#utility.yul\":8281:8298   */\n      add\n        /* \"#utility.yul\":8272:8278   */\n      dup5\n        /* \"#utility.yul\":8228:8299   */\n      tag_240\n      jump\t// in\n    tag_254:\n        /* \"#utility.yul\":8084:8306   */\n      swap3\n      swap2\n      pop\n      pop\n      jump\t// out\n        /* \"#utility.yul\":8312:8441   */\n    tag_143:\n        /* \"#utility.yul\":8346:8352   */\n      0x00\n        /* \"#utility.yul\":8373:8393   */\n      tag_256\n      tag_257\n      jump\t// in\n    tag_256:\n        /* \"#utility.yul\":8363:8393   */\n      swap1\n      pop\n        /* \"#utility.yul\":8402:8435   */\n      tag_258\n        /* \"#utility.yul\":8430:8434   */\n      dup3\n        /* \"#utility.yul\":8422:8428   */\n      dup3\n        /* \"#utility.yul\":8402:8435   */\n      tag_259\n      jump\t// in\n    tag_258:\n        /* \"#utility.yul\":8312:8441   */\n      swap2\n      swap1\n      pop\n      jump\t// out\n        /* \"#utility.yul\":8447:8522   */\n    tag_257:\n        /* \"#utility.yul\":8480:8486   */\n      0x00\n        /* \"#utility.yul\":8513:8515   */\n      0x40\n        /* \"#utility.yul\":8507:8516   */\n      mload\n        /* \"#utility.yul\":8497:8516   */\n      swap1\n      pop\n        /* \"#utility.yul\":8447:8522   */\n      swap1\n      jump\t// out\n        /* \"#utility.yul\":8528:8835   */\n    tag_142:\n        /* \"#utility.yul\":8589:8593   */\n      0x00\n        /* \"#utility.yul\":8679:8697   */\n      0xffffffffffffffff\n        /* \"#utility.yul\":8671:8677   */\n      dup3\n        /* \"#utility.yul\":8668:8698   */\n      gt\n        /* \"#utility.yul\":8665:8721   */\n      iszero\n      tag_262\n      jumpi\n        /* \"#utility.yul\":8701:8719   */\n      tag_263\n      tag_264\n      jump\t// in\n    tag_263:\n        /* \"#utility.yul\":8665:8721   */\n    tag_262:\n        /* \"#utility.yul\":8739:8768   */\n      tag_265\n        /* \"#utility.yul\":8761:8767   */\n      dup3\n        /* \"#utility.yul\":8739:8768   */\n      tag_209\n      jump\t// in\n    tag_265:\n        /* \"#utility.yul\":8731:8768   */\n      swap1\n      pop\n        /* \"#utility.yul\":8823:8827   */\n      0x20\n        /* \"#utility.yul\":8817:8821   */\n      dup2\n        /* \"#utility.yul\":8813:8828   */\n      add\n        /* \"#utility.yul\":8805:8828   */\n      swap1\n      pop\n        /* \"#utility.yul\":8528:8835   */\n      swap2\n      swap1\n      pop\n      jump\t// out\n        /* \"#utility.yul\":8841:8981   */\n    tag_224:\n        /* \"#utility.yul\":8889:8893   */\n      0x00\n        /* \"#utility.yul\":8912:8915   */\n      dup2\n        /* \"#utility.yul\":8904:8915   */\n      swap1\n      pop\n        /* \"#utility.yul\":8935:8938   */\n      dup2\n        /* \"#utility.yul\":8932:8933   */\n      0x00\n        /* \"#utility.yul\":8925:8939   */\n      mstore\n        /* \"#utility.yul\":8969:8973   */\n      0x20\n        /* \"#utility.yul\":8966:8967   */\n      0x00\n        /* \"#utility.yul\":8956:8974   */\n      keccak256\n        /* \"#utility.yul\":8948:8974   */\n      swap1\n      pop\n        /* \"#utility.yul\":8841:8981   */\n      swap2\n      swap1\n      pop\n      jump\t// out\n        /* \"#utility.yul\":8987:9085   */\n    tag_203:\n        /* \"#utility.yul\":9038:9044   */\n      0x00\n        /* \"#utility.yul\":9072:9077   */\n      dup2\n        /* \"#utility.yul\":9066:9078   */\n      mload\n        /* \"#utility.yul\":9056:9078   */\n      swap1\n      pop\n        /* \"#utility.yul\":8987:9085   */\n      swap2\n      swap1\n      pop\n      jump\t// out\n        /* \"#utility.yul\":9091:9249   */\n    tag_205:\n        /* \"#utility.yul\":9164:9175   */\n      0x00\n        /* \"#utility.yul\":9198:9204   */\n      dup3\n        /* \"#utility.yul\":9193:9196   */\n      dup3\n        /* \"#utility.yul\":9186:9205   */\n      mstore\n        /* \"#utility.yul\":9238:9242   */\n      0x20\n        /* \"#utility.yul\":9233:9236   */\n      dup3\n        /* \"#utility.yul\":9229:9243   */\n      add\n        /* \"#utility.yul\":9214:9243   */\n      swap1\n      pop\n        /* \"#utility.yul\":9091:9249   */\n      swap3\n      swap2\n      pop\n      pop\n      jump\t// out\n        /* \"#utility.yul\":9255:9402   */\n    tag_214:\n        /* \"#utility.yul\":9356:9367   */\n      0x00\n        /* \"#utility.yul\":9393:9396   */\n      dup2\n        /* \"#utility.yul\":9378:9396   */\n      swap1\n      pop\n        /* \"#utility.yul\":9255:9402   */\n      swap3\n      swap2\n      pop\n      pop\n      jump\t// out\n        /* \"#utility.yul\":9408:9599   */\n    tag_66:\n        /* \"#utility.yul\":9448:9452   */\n      0x00\n        /* \"#utility.yul\":9468:9488   */\n      tag_271\n        /* \"#utility.yul\":9486:9487   */\n      dup3\n        /* \"#utility.yul\":9468:9488   */\n      tag_239\n      jump\t// in\n    tag_271:\n        /* \"#utility.yul\":9463:9488   */\n      swap2\n      pop\n        /* \"#utility.yul\":9502:9522   */\n      tag_272\n        /* \"#utility.yul\":9520:9521   */\n      dup4\n        /* \"#utility.yul\":9502:9522   */\n      tag_239\n      jump\t// in\n    tag_272:\n        /* \"#utility.yul\":9497:9522   */\n      swap3\n      pop\n        /* \"#utility.yul\":9541:9542   */\n      dup3\n        /* \"#utility.yul\":9538:9539   */\n      dup3\n        /* \"#utility.yul\":9535:9543   */\n      lt\n        /* \"#utility.yul\":9532:9566   */\n      iszero\n      tag_273\n      jumpi\n        /* \"#utility.yul\":9546:9564   */\n      tag_274\n      tag_275\n      jump\t// in\n    tag_274:\n        /* \"#utility.yul\":9532:9566   */\n    tag_273:\n        /* \"#utility.yul\":9591:9592   */\n      dup3\n        /* \"#utility.yul\":9588:9589   */\n      dup3\n        /* \"#utility.yul\":9584:9593   */\n      sub\n        /* \"#utility.yul\":9576:9593   */\n      swap1\n      pop\n        /* \"#utility.yul\":9408:9599   */\n      swap3\n      swap2\n      pop\n      pop\n      jump\t// out\n        /* \"#utility.yul\":9605:9701   */\n    tag_189:\n        /* \"#utility.yul\":9642:9649   */\n      0x00\n        /* \"#utility.yul\":9671:9695   */\n      tag_277\n        /* \"#utility.yul\":9689:9694   */\n      dup3\n        /* \"#utility.yul\":9671:9695   */\n      tag_278\n      jump\t// in\n    tag_277:\n        /* \"#utility.yul\":9660:9695   */\n      swap1\n      pop\n        /* \"#utility.yul\":9605:9701   */\n      swap2\n      swap1\n      pop\n      jump\t// out\n        /* \"#utility.yul\":9707:9797   */\n    tag_196:\n        /* \"#utility.yul\":9741:9748   */\n      0x00\n        /* \"#utility.yul\":9784:9789   */\n      dup2\n        /* \"#utility.yul\":9777:9790   */\n      iszero\n        /* \"#utility.yul\":9770:9791   */\n      iszero\n        /* \"#utility.yul\":9759:9791   */\n      swap1\n      pop\n        /* \"#utility.yul\":9707:9797   */\n      swap2\n      swap1\n      pop\n      jump\t// out\n        /* \"#utility.yul\":9803:9929   */\n    tag_278:\n        /* \"#utility.yul\":9840:9847   */\n      0x00\n        /* \"#utility.yul\":9880:9922   */\n      0xffffffffffffffffffffffffffffffffffffffff\n        /* \"#utility.yul\":9873:9878   */\n      dup3\n        /* \"#utility.yul\":9869:9923   */\n      and\n        /* \"#utility.yul\":9858:9923   */\n      swap1\n      pop\n        /* \"#utility.yul\":9803:9929   */\n      swap2\n      swap1\n      pop\n      jump\t// out\n        /* \"#utility.yul\":9935:10012   */\n    tag_239:\n        /* \"#utility.yul\":9972:9979   */\n      0x00\n        /* \"#utility.yul\":10001:10006   */\n      dup2\n        /* \"#utility.yul\":9990:10006   */\n      swap1\n      pop\n        /* \"#utility.yul\":9935:10012   */\n      swap2\n      swap1\n      pop\n      jump\t// out\n        /* \"#utility.yul\":10018:10172   */\n    tag_148:\n        /* \"#utility.yul\":10102:10108   */\n      dup3\n        /* \"#utility.yul\":10097:10100   */\n      dup2\n        /* \"#utility.yul\":10092:10095   */\n      dup4\n        /* \"#utility.yul\":10079:10109   */\n      calldatacopy\n        /* \"#utility.yul\":10164:10165   */\n      0x00\n        /* \"#utility.yul\":10155:10161   */\n      dup4\n        /* \"#utility.yul\":10150:10153   */\n      dup4\n        /* \"#utility.yul\":10146:10162   */\n      add\n        /* \"#utility.yul\":10139:10166   */\n      mstore\n        /* \"#utility.yul\":10018:10172   */\n      pop\n      pop\n      pop\n      jump\t// out\n        /* \"#utility.yul\":10178:10485   */\n    tag_207:\n        /* \"#utility.yul\":10246:10247   */\n      0x00\n        /* \"#utility.yul\":10256:10369   */\n    tag_284:\n        /* \"#utility.yul\":10270:10276   */\n      dup4\n        /* \"#utility.yul\":10267:10268   */\n      dup2\n        /* \"#utility.yul\":10264:10277   */\n      lt\n        /* \"#utility.yul\":10256:10369   */\n      iszero\n      tag_286\n      jumpi\n        /* \"#utility.yul\":10355:10356   */\n      dup1\n        /* \"#utility.yul\":10350:10353   */\n      dup3\n        /* \"#utility.yul\":10346:10357   */\n      add\n        /* \"#utility.yul\":10340:10358   */\n      mload\n        /* \"#utility.yul\":10336:10337   */\n      dup2\n        /* \"#utility.yul\":10331:10334   */\n      dup5\n        /* \"#utility.yul\":10327:10338   */\n      add\n        /* \"#utility.yul\":10320:10359   */\n      mstore\n        /* \"#utility.yul\":10292:10294   */\n      0x20\n        /* \"#utility.yul\":10289:10290   */\n      dup2\n        /* \"#utility.yul\":10285:10295   */\n      add\n        /* \"#utility.yul\":10280:10295   */\n      swap1\n      pop\n        /* \"#utility.yul\":10256:10369   */\n      jump(tag_284)\n    tag_286:\n        /* \"#utility.yul\":10387:10393   */\n      dup4\n        /* \"#utility.yul\":10384:10385   */\n      dup2\n        /* \"#utility.yul\":10381:10394   */\n      gt\n        /* \"#utility.yul\":10378:10479   */\n      iszero\n      tag_287\n      jumpi\n        /* \"#utility.yul\":10467:10468   */\n      0x00\n        /* \"#utility.yul\":10458:10464   */\n      dup5\n        /* \"#utility.yul\":10453:10456   */\n      dup5\n        /* \"#utility.yul\":10449:10465   */\n      add\n        /* \"#utility.yul\":10442:10469   */\n      mstore\n        /* \"#utility.yul\":10378:10479   */\n    tag_287:\n        /* \"#utility.yul\":10227:10485   */\n      pop\n        /* \"#utility.yul\":10178:10485   */\n      pop\n      pop\n      pop\n      jump\t// out\n        /* \"#utility.yul\":10491:10662   */\n    tag_116:\n        /* \"#utility.yul\":10530:10533   */\n      0x00\n        /* \"#utility.yul\":10553:10577   */\n      tag_289\n        /* \"#utility.yul\":10571:10576   */\n      dup3\n        /* \"#utility.yul\":10553:10577   */\n      tag_239\n      jump\t// in\n    tag_289:\n        /* \"#utility.yul\":10544:10577   */\n      swap2\n      pop\n        /* \"#utility.yul\":10599:10603   */\n      0x00\n        /* \"#utility.yul\":10592:10597   */\n      dup3\n        /* \"#utility.yul\":10589:10604   */\n      eq\n        /* \"#utility.yul\":10586:10627   */\n      iszero\n      tag_290\n      jumpi\n        /* \"#utility.yul\":10607:10625   */\n      tag_291\n      tag_275\n      jump\t// in\n    tag_291:\n        /* \"#utility.yul\":10586:10627   */\n    tag_290:\n        /* \"#utility.yul\":10654:10655   */\n      0x01\n        /* \"#utility.yul\":10647:10652   */\n      dup3\n        /* \"#utility.yul\":10643:10656   */\n      sub\n        /* \"#utility.yul\":10636:10656   */\n      swap1\n      pop\n        /* \"#utility.yul\":10491:10662   */\n      swap2\n      swap1\n      pop\n      jump\t// out\n        /* \"#utility.yul\":10668:10988   */\n    tag_82:\n        /* \"#utility.yul\":10712:10718   */\n      0x00\n        /* \"#utility.yul\":10749:10750   */\n      0x02\n        /* \"#utility.yul\":10743:10747   */\n      dup3\n        /* \"#utility.yul\":10739:10751   */\n      div\n        /* \"#utility.yul\":10729:10751   */\n      swap1\n      pop\n        /* \"#utility.yul\":10796:10797   */\n      0x01\n        /* \"#utility.yul\":10790:10794   */\n      dup3\n        /* \"#utility.yul\":10786:10798   */\n      and\n        /* \"#utility.yul\":10817:10835   */\n      dup1\n        /* \"#utility.yul\":10807:10888   */\n      tag_293\n      jumpi\n        /* \"#utility.yul\":10873:10877   */\n      0x7f\n        /* \"#utility.yul\":10865:10871   */\n      dup3\n        /* \"#utility.yul\":10861:10878   */\n      and\n        /* \"#utility.yul\":10851:10878   */\n      swap2\n      pop\n        /* \"#utility.yul\":10807:10888   */\n    tag_293:\n        /* \"#utility.yul\":10935:10937   */\n      0x20\n        /* \"#utility.yul\":10927:10933   */\n      dup3\n        /* \"#utility.yul\":10924:10938   */\n      lt\n        /* \"#utility.yul\":10904:10922   */\n      dup2\n        /* \"#utility.yul\":10901:10939   */\n      eq\n        /* \"#utility.yul\":10898:10982   */\n      iszero\n      tag_294\n      jumpi\n        /* \"#utility.yul\":10954:10972   */\n      tag_295\n      tag_296\n      jump\t// in\n    tag_295:\n        /* \"#utility.yul\":10898:10982   */\n    tag_294:\n        /* \"#utility.yul\":10719:10988   */\n      pop\n        /* \"#utility.yul\":10668:10988   */\n      swap2\n      swap1\n      pop\n      jump\t// out\n        /* \"#utility.yul\":10994:11275   */\n    tag_259:\n        /* \"#utility.yul\":11077:11104   */\n      tag_298\n        /* \"#utility.yul\":11099:11103   */\n      dup3\n        /* \"#utility.yul\":11077:11104   */\n      tag_209\n      jump\t// in\n    tag_298:\n        /* \"#utility.yul\":11069:11075   */\n      dup2\n        /* \"#utility.yul\":11065:11105   */\n      add\n        /* \"#utility.yul\":11207:11213   */\n      dup2\n        /* \"#utility.yul\":11195:11205   */\n      dup2\n        /* \"#utility.yul\":11192:11214   */\n      lt\n        /* \"#utility.yul\":11171:11189   */\n      0xffffffffffffffff\n        /* \"#utility.yul\":11159:11169   */\n      dup3\n        /* \"#utility.yul\":11156:11190   */\n      gt\n        /* \"#utility.yul\":11153:11215   */\n      or\n        /* \"#utility.yul\":11150:11238   */\n      iszero\n      tag_299\n      jumpi\n        /* \"#utility.yul\":11218:11236   */\n      tag_300\n      tag_264\n      jump\t// in\n    tag_300:\n        /* \"#utility.yul\":11150:11238   */\n    tag_299:\n        /* \"#utility.yul\":11258:11268   */\n      dup1\n        /* \"#utility.yul\":11254:11256   */\n      0x40\n        /* \"#utility.yul\":11247:11269   */\n      mstore\n        /* \"#utility.yul\":11037:11275   */\n      pop\n        /* \"#utility.yul\":10994:11275   */\n      pop\n      pop\n      jump\t// out\n        /* \"#utility.yul\":11281:11514   */\n    tag_74:\n        /* \"#utility.yul\":11320:11323   */\n      0x00\n        /* \"#utility.yul\":11343:11367   */\n      tag_302\n        /* \"#utility.yul\":11361:11366   */\n      dup3\n        /* \"#utility.yul\":11343:11367   */\n      tag_239\n      jump\t// in\n    tag_302:\n        /* \"#utility.yul\":11334:11367   */\n      swap2\n      pop\n        /* \"#utility.yul\":11389:11455   */\n      0xffffffffffffffffffffffffffffffffffffffffffffffffffffffffffffffff\n        /* \"#utility.yul\":11382:11387   */\n      dup3\n        /* \"#utility.yul\":11379:11456   */\n      eq\n        /* \"#utility.yul\":11376:11479   */\n      iszero\n      tag_303\n      jumpi\n        /* \"#utility.yul\":11459:11477   */\n      tag_304\n      tag_275\n      jump\t// in\n    tag_304:\n        /* \"#utility.yul\":11376:11479   */\n    tag_303:\n        /* \"#utility.yul\":11506:11507   */\n      0x01\n        /* \"#utility.yul\":11499:11504   */\n      dup3\n        /* \"#utility.yul\":11495:11508   */\n      add\n        /* \"#utility.yul\":11488:11508   */\n      swap1\n      pop\n        /* \"#utility.yul\":11281:11514   */\n      swap2\n      swap1\n      pop\n      jump\t// out\n        /* \"#utility.yul\":11520:11700   */\n    tag_275:\n        /* \"#utility.yul\":11568:11645   */\n      0x4e487b7100000000000000000000000000000000000000000000000000000000\n        /* \"#utility.yul\":11565:11566   */\n      0x00\n        /* \"#utility.yul\":11558:11646   */\n      mstore\n        /* \"#utility.yul\":11665:11669   */\n      0x11\n        /* \"#utility.yul\":11662:11663   */\n      0x04\n        /* \"#utility.yul\":11655:11670   */\n      mstore\n        /* \"#utility.yul\":11689:11693   */\n      0x24\n        /* \"#utility.yul\":11686:11687   */\n      0x00\n        /* \"#utility.yul\":11679:11694   */\n      revert\n        /* \"#utility.yul\":11706:11886   */\n    tag_296:\n        /* \"#utility.yul\":11754:11831   */\n      0x4e487b7100000000000000000000000000000000000000000000000000000000\n        /* \"#utility.yul\":11751:11752   */\n      0x00\n        /* \"#utility.yul\":11744:11832   */\n      mstore\n        /* \"#utility.yul\":11851:11855   */\n      0x22\n        /* \"#utility.yul\":11848:11849   */\n      0x04\n        /* \"#utility.yul\":11841:11856   */\n      mstore\n        /* \"#utility.yul\":11875:11879   */\n      0x24\n        /* \"#utility.yul\":11872:11873   */\n      0x00\n        /* \"#utility.yul\":11865:11880   */\n      revert\n        /* \"#utility.yul\":11892:12072   */\n    tag_264:\n        /* \"#utility.yul\":11940:12017   */\n      0x4e487b7100000000000000000000000000000000000000000000000000000000\n        /* \"#utility.yul\":11937:11938   */\n      0x00\n        /* \"#utility.yul\":11930:12018   */\n      mstore\n        /* \"#utility.yul\":12037:12041   */\n      0x41\n        /* \"#utility.yul\":12034:12035   */\n      0x04\n        /* \"#utility.yul\":12027:12042   */\n      mstore\n        /* \"#utility.yul\":12061:12065   */\n      0x24\n        /* \"#utility.yul\":12058:12059   */\n      0x00\n        /* \"#utility.yul\":12051:12066   */\n      revert\n        /* \"#utility.yul\":12078:12195   */\n    tag_157:\n        /* \"#utility.yul\":12187:12188   */\n      0x00\n        /* \"#utility.yul\":12184:12185   */\n      dup1\n        /* \"#utility.yul\":12177:12189   */\n      revert\n        /* \"#utility.yul\":12201:12318   */\n    tag_146:\n        /* \"#utility.yul\":12310:12311   */\n      0x00\n        /* \"#utility.yul\":12307:12308   */\n      dup1\n        /* \"#utility.yul\":12300:12312   */\n      revert\n        /* \"#utility.yul\":12324:12441   */\n    tag_175:\n        /* \"#utility.yul\":12433:12434   */\n      0x00\n        /* \"#utility.yul\":12430:12431   */\n      dup1\n        /* \"#utility.yul\":12423:12435   */\n      revert\n        /* \"#utility.yul\":12447:12564   */\n    tag_166:\n        /* \"#utility.yul\":12556:12557   */\n      0x00\n        /* \"#utility.yul\":12553:12554   */\n      dup1\n        /* \"#utility.yul\":12546:12558   */\n      revert\n        /* \"#utility.yul\":12570:12672   */\n    tag_209:\n        /* \"#utility.yul\":12611:12617   */\n      0x00\n        /* \"#utility.yul\":12662:12664   */\n      0x1f\n        /* \"#utility.yul\":12658:12665   */\n      not\n        /* \"#utility.yul\":12653:12655   */\n      0x1f\n        /* \"#utility.yul\":12646:12651   */\n      dup4\n        /* \"#utility.yul\":12642:12656   */\n      add\n        /* \"#utility.yul\":12638:12666   */\n      and\n        /* \"#utility.yul\":12628:12666   */\n      swap1\n      pop\n        /* \"#utility.yul\":12570:12672   */\n      swap2\n      swap1\n      pop\n      jump\t// out\n        /* \"#utility.yul\":12678:12800   */\n    tag_152:\n        /* \"#utility.yul\":12751:12775   */\n      tag_314\n        /* \"#utility.yul\":12769:12774   */\n      dup2\n        /* \"#utility.yul\":12751:12775   */\n      tag_189\n      jump\t// in\n    tag_314:\n        /* \"#utility.yul\":12744:12749   */\n      dup2\n        /* \"#utility.yul\":12741:12776   */\n      eq\n        /* \"#utility.yul\":12731:12794   */\n      tag_315\n      jumpi\n        /* \"#utility.yul\":12790:12791   */\n      0x00\n        /* \"#utility.yul\":12787:12788   */\n      dup1\n        /* \"#utility.yul\":12780:12792   */\n      revert\n        /* \"#utility.yul\":12731:12794   */\n    tag_315:\n        /* \"#utility.yul\":12678:12800   */\n      pop\n      jump\t// out\n        /* \"#utility.yul\":12806:12928   */\n    tag_162:\n        /* \"#utility.yul\":12879:12903   */\n      tag_317\n        /* \"#utility.yul\":12897:12902   */\n      dup2\n        /* \"#utility.yul\":12879:12903   */\n      tag_239\n      jump\t// in\n    tag_317:\n        /* \"#utility.yul\":12872:12877   */\n      dup2\n        /* \"#utility.yul\":12869:12904   */\n      eq\n        /* \"#utility.yul\":12859:12922   */\n      tag_318\n      jumpi\n        /* \"#utility.yul\":12918:12919   */\n      0x00\n        /* \"#utility.yul\":12915:12916   */\n      dup1\n        /* \"#utility.yul\":12908:12920   */\n      revert\n        /* \"#utility.yul\":12859:12922   */\n    tag_318:\n        /* \"#utility.yul\":12806:12928   */\n      pop\n      jump\t// out\n\n    auxdata: 0xa264697066735822122015642a9406f5b140dd74834f066dbd085ba4e65c3ce4e2c90ae2d40fab7f3d0964736f6c63430008070033\n}\n",
				"bytecode": {
					"linkReferences": {},
					"object": "60806040523480156200001157600080fd5b5060405162001c5238038062001c528339818101604052810190620000379190620002e8565b815181111562000073576040517faa6eac5100000000000000000000000000000000000000000000000000000000815260040160405180910390fd5b60005b8251811015620001fc57600083828151811062000098576200009762000497565b5b60200260200101519050600073ffffffffffffffffffffffffffffffffffffffff168173ffffffffffffffffffffffffffffffffffffffff1614156200010a576040517fd924e5f400000000000000000000000000000000000000000000000000000000815260040160405180910390fd5b6000808273ffffffffffffffffffffffffffffffffffffffff1673ffffffffffffffffffffffffffffffffffffffff16815260200190815260200160002060009054906101000a900460ff16156200018e576040517fc0159e0e00000000000000000000000000000000000000000000000000000000815260040160405180910390fd5b60016000808373ffffffffffffffffffffffffffffffffffffffff1673ffffffffffffffffffffffffffffffffffffffff16815260200190815260200160002060006101000a81548160ff021916908315150217905550508080620001f3906200041a565b91505062000076565b508060038190555050506200054e565b6000620002236200021d8462000377565b6200034e565b90508083825260208201905082856020860282011115620002495762000248620004fa565b5b60005b858110156200027d578162000262888262000287565b8452602084019350602083019250506001810190506200024c565b5050509392505050565b60008151905062000298816200051a565b92915050565b600082601f830112620002b657620002b5620004f5565b5b8151620002c88482602086016200020c565b91505092915050565b600081519050620002e28162000534565b92915050565b6000806040838503121562000302576200030162000504565b5b600083015167ffffffffffffffff811115620003235762000322620004ff565b5b62000331858286016200029e565b92505060206200034485828601620002d1565b9150509250929050565b60006200035a6200036d565b9050620003688282620003e4565b919050565b6000604051905090565b600067ffffffffffffffff821115620003955762000394620004c6565b5b602082029050602081019050919050565b6000620003b382620003ba565b9050919050565b600073ffffffffffffffffffffffffffffffffffffffff82169050919050565b6000819050919050565b620003ef8262000509565b810181811067ffffffffffffffff82111715620004115762000410620004c6565b5b80604052505050565b60006200042782620003da565b91507fffffffffffffffffffffffffffffffffffffffffffffffffffffffffffffffff8214156200045d576200045c62000468565b5b600182019050919050565b7f4e487b7100000000000000000000000000000000000000000000000000000000600052601160045260246000fd5b7f4e487b7100000000000000000000000000000000000000000000000000000000600052603260045260246000fd5b7f4e487b7100000000000000000000000000000000000000000000000000000000600052604160045260246000fd5b600080fd5b600080fd5b600080fd5b600080fd5b6000601f19601f8301169050919050565b6200052581620003a6565b81146200053157600080fd5b50565b6200053f81620003da565b81146200054b57600080fd5b50565b6116f4806200055e6000396000f3fe60806040526004361061008a5760003560e01c8063b1e130fc11610059578063b1e130fc146101b1578063bb84c5a9146101da578063cd568d1f14610203578063dc8452cd1461022e578063e0e3671c14610259576100e0565b80631087393a146100e557806333ea3dc81461010e57806354b5fe801461014b5780638f9487eb14610174576100e0565b366100e057343373ffffffffffffffffffffffffffffffffffffffff167f90890809c654f11d6e72a28fa60149770a0d11ec6c92319d6ceb2bb0a4ea1a15476040516100d6919061139d565b60405180910390a3005b600080fd5b3480156100f157600080fd5b5061010c600480360381019061010791906110de565b610296565b005b34801561011a57600080fd5b50610135600480360381019061013091906110de565b610532565b604051610142919061137b565b60405180910390f35b34801561015757600080fd5b50610172600480360381019061016d91906110de565b6106ca565b005b34801561018057600080fd5b5061019b6004803603810190610196919061110b565b6109cc565b6040516101a89190611360565b60405180910390f35b3480156101bd57600080fd5b506101d860048036038101906101d391906110de565b610a34565b005b3480156101e657600080fd5b5061020160048036038101906101fc919061106f565b610cd3565b005b34801561020f57600080fd5b50610218610e56565b604051610225919061139d565b60405180910390f35b34801561023a57600080fd5b50610243610e5c565b604051610250919061139d565b60405180910390f35b34801561026557600080fd5b50610280600480360381019061027b9190611042565b610e62565b60405161028d9190611360565b60405180910390f35b6000803373ffffffffffffffffffffffffffffffffffffffff1673ffffffffffffffffffffffffffffffffffffffff16815260200190815260200160002060009054906101000a900460ff16610318576040517f30cd747100000000000000000000000000000000000000000000000000000000815260040160405180910390fd5b806001600454610328919061144a565b811115610361576040517f9e1b596f00000000000000000000000000000000000000000000000000000000815260040160405180910390fd5b816002600082815260200190815260200160002060003373ffffffffffffffffffffffffffffffffffffffff1673ffffffffffffffffffffffffffffffffffffffff16815260200190815260200160002060009054906101000a900460ff16156103f7576040517f5db7ec0d00000000000000000000000000000000000000000000000000000000815260040160405180910390fd5b826001600082815260200190815260200160002060050160009054906101000a900460ff1615610453576040517f2ea945cf00000000000000000000000000000000000000000000000000000000815260040160405180910390fd5b60016000858152602001908152602001600020600401600081548092919061047a90611595565b919050555060016002600086815260200190815260200160002060003373ffffffffffffffffffffffffffffffffffffffff1673ffffffffffffffffffffffffffffffffffffffff16815260200190815260200160002060006101000a81548160ff0219169083151502179055503373ffffffffffffffffffffffffffffffffffffffff16847fd4329d04e785ebe84c72dcd09fb9c65f1fbbda53ee15ec20e93342c7f3e2a62d60405160405180910390a350505050565b61053a610eb7565b81600160045461054a919061144a565b811115610583576040517f9e1b596f00000000000000000000000000000000000000000000000000000000815260040160405180910390fd5b600160008481526020019081526020016000206040518060c0016040529081600082015481526020016001820160009054906101000a900473ffffffffffffffffffffffffffffffffffffffff1673ffffffffffffffffffffffffffffffffffffffff1673ffffffffffffffffffffffffffffffffffffffff1681526020016002820154815260200160038201805461061b90611532565b80601f016020809104026020016040519081016040528092919081815260200182805461064790611532565b80156106945780601f1061066957610100808354040283529160200191610694565b820191906000526020600020905b81548152906001019060200180831161067757829003601f168201915b50505050508152602001600482015481526020016005820160009054906101000a900460ff161515151581525050915050919050565b6000803373ffffffffffffffffffffffffffffffffffffffff1673ffffffffffffffffffffffffffffffffffffffff16815260200190815260200160002060009054906101000a900460ff1661074c576040517f30cd747100000000000000000000000000000000000000000000000000000000815260040160405180910390fd5b80600160045461075c919061144a565b811115610795576040517f9e1b596f00000000000000000000000000000000000000000000000000000000815260040160405180910390fd5b816001600082815260200190815260200160002060050160009054906101000a900460ff16156107f1576040517f2ea945cf00000000000000000000000000000000000000000000000000000000815260040160405180910390fd5b600060016000858152602001908152602001600020905060035481600401541015610848576040517f9dd63cb700000000000000000000000000000000000000000000000000000000815260040160405180910390fd5b60018160050160006101000a81548160ff02191690831515021790555060008160010160009054906101000a900473ffffffffffffffffffffffffffffffffffffffff1673ffffffffffffffffffffffffffffffffffffffff168260020154836003016040516108b8919061132e565b60006040518083038185875af1925050503d80600081146108f5576040519150601f19603f3d011682016040523d82523d6000602084013e6108fa565b606091505b5050905080610935576040517fcb2f2a1c00000000000000000000000000000000000000000000000000000000815260040160405180910390fd5b81600301604051610946919061132e565b604051809103902082600201548360010160009054906101000a900473ffffffffffffffffffffffffffffffffffffffff1673ffffffffffffffffffffffffffffffffffffffff167fb91792dfbec9d14f14efe0fd0328fe544073cd1befa73f98441bce708e643179336040516109bd9190611345565b60405180910390a45050505050565b60006002600084815260200190815260200160002060008373ffffffffffffffffffffffffffffffffffffffff1673ffffffffffffffffffffffffffffffffffffffff16815260200190815260200160002060009054906101000a900460ff16905092915050565b6000803373ffffffffffffffffffffffffffffffffffffffff1673ffffffffffffffffffffffffffffffffffffffff16815260200190815260200160002060009054906101000a900460ff16610ab6576040517f30cd747100000000000000000000000000000000000000000000000000000000815260040160405180910390fd5b806001600454610ac6919061144a565b811115610aff576040517f9e1b596f00000000000000000000000000000000000000000000000000000000815260040160405180910390fd5b816001600082815260200190815260200160002060050160009054906101000a900460ff1615610b5b576040517f2ea945cf00000000000000000000000000000000000000000000000000000000815260040160405180910390fd5b6002600084815260200190815260200160002060003373ffffffffffffffffffffffffffffffffffffffff1673ffffffffffffffffffffffffffffffffffffffff16815260200190815260200160002060009054906101000a900460ff1615610c5857600160008481526020019081526020016000206004016000815480929190610be590611508565b919050555060006002600085815260200190815260200160002060003373ffffffffffffffffffffffffffffffffffffffff1673ffffffffffffffffffffffffffffffffffffffff16815260200190815260200160002060006101000a81548160ff021916908315150217905550610c8a565b6040517ffafe52bf00000000000000000000000000000000000000000000000000000000815260040160405180910390fd5b823373ffffffffffffffffffffffffffffffffffffffff167f1e75c0948730226138e58d1e7446b6167b5159a6904c3ac4597714f298d13df260405160405180910390a3505050565b6000803373ffffffffffffffffffffffffffffffffffffffff1673ffffffffffffffffffffffffffffffffffffffff16815260200190815260200160002060009054906101000a900460ff16610d55576040517f30cd747100000000000000000000000000000000000000000000000000000000815260040160405180910390fd5b600060016000600454815260200190815260200160002090506004548160000181905550838160010160006101000a81548173ffffffffffffffffffffffffffffffffffffffff021916908373ffffffffffffffffffffffffffffffffffffffff16021790555082816002018190555081816003019080519060200190610ddd929190610f05565b5060046000815480929190610df190611595565b919050555081604051610e049190611317565b6040518091039020838573ffffffffffffffffffffffffffffffffffffffff167f315d8bf6c6d36a1411ee3d8d607b26df37940936bd273e006857a296fbac2ce860405160405180910390a450505050565b60045481565b60035481565b60008060008373ffffffffffffffffffffffffffffffffffffffff1673ffffffffffffffffffffffffffffffffffffffff16815260200190815260200160002060009054906101000a900460ff169050919050565b6040518060c0016040528060008152602001600073ffffffffffffffffffffffffffffffffffffffff1681526020016000815260200160608152602001600081526020016000151581525090565b828054610f1190611532565b90600052602060002090601f016020900481019282610f335760008555610f7a565b82601f10610f4c57805160ff1916838001178555610f7a565b82800160010185558215610f7a579182015b82811115610f79578251825591602001919060010190610f5e565b5b509050610f879190610f8b565b5090565b5b80821115610fa4576000816000905550600101610f8c565b5090565b6000610fbb610fb6846113dd565b6113b8565b905082815260208101848484011115610fd757610fd6611670565b5b610fe28482856114c6565b509392505050565b600081359050610ff981611690565b92915050565b600082601f8301126110145761101361166b565b5b8135611024848260208601610fa8565b91505092915050565b60008135905061103c816116a7565b92915050565b6000602082840312156110585761105761167a565b5b600061106684828501610fea565b91505092915050565b6000806000606084860312156110885761108761167a565b5b600061109686828701610fea565b93505060206110a78682870161102d565b925050604084013567ffffffffffffffff8111156110c8576110c7611675565b5b6110d486828701610fff565b9150509250925092565b6000602082840312156110f4576110f361167a565b5b60006111028482850161102d565b91505092915050565b600080604083850312156111225761112161167a565b5b60006111308582860161102d565b925050602061114185828601610fea565b9150509250929050565b6111548161147e565b82525050565b6111638161147e565b82525050565b61117281611490565b82525050565b61118181611490565b82525050565b600061119282611423565b61119c818561142e565b93506111ac8185602086016114d5565b6111b58161167f565b840191505092915050565b60006111cb82611423565b6111d5818561143f565b93506111e58185602086016114d5565b80840191505092915050565b600081546111fe81611532565b611208818661143f565b94506001821660008114611223576001811461123457611267565b60ff19831686528186019350611267565b61123d8561140e565b60005b8381101561125f57815481890152600182019150602081019050611240565b838801955050505b50505092915050565b600060c08301600083015161128860008601826112f9565b50602083015161129b602086018261114b565b5060408301516112ae60408601826112f9565b50606083015184820360608601526112c68282611187565b91505060808301516112db60808601826112f9565b5060a08301516112ee60a0860182611169565b508091505092915050565b611302816114bc565b82525050565b611311816114bc565b82525050565b600061132382846111c0565b915081905092915050565b600061133a82846111f1565b915081905092915050565b600060208201905061135a600083018461115a565b92915050565b60006020820190506113756000830184611178565b92915050565b600060208201905081810360008301526113958184611270565b905092915050565b60006020820190506113b26000830184611308565b92915050565b60006113c26113d3565b90506113ce8282611564565b919050565b6000604051905090565b600067ffffffffffffffff8211156113f8576113f761163c565b5b6114018261167f565b9050602081019050919050565b60008190508160005260206000209050919050565b600081519050919050565b600082825260208201905092915050565b600081905092915050565b6000611455826114bc565b9150611460836114bc565b925082821015611473576114726115de565b5b828203905092915050565b60006114898261149c565b9050919050565b60008115159050919050565b600073ffffffffffffffffffffffffffffffffffffffff82169050919050565b6000819050919050565b82818337600083830152505050565b60005b838110156114f35780820151818401526020810190506114d8565b83811115611502576000848401525b50505050565b6000611513826114bc565b91506000821415611527576115266115de565b5b600182039050919050565b6000600282049050600182168061154a57607f821691505b6020821081141561155e5761155d61160d565b5b50919050565b61156d8261167f565b810181811067ffffffffffffffff8211171561158c5761158b61163c565b5b80604052505050565b60006115a0826114bc565b91507fffffffffffffffffffffffffffffffffffffffffffffffffffffffffffffffff8214156115d3576115d26115de565b5b600182019050919050565b7f4e487b7100000000000000000000000000000000000000000000000000000000600052601160045260246000fd5b7f4e487b7100000000000000000000000000000000000000000000000000000000600052602260045260246000fd5b7f4e487b7100000000000000000000000000000000000000000000000000000000600052604160045260246000fd5b600080fd5b600080fd5b600080fd5b600080fd5b6000601f19601f8301169050919050565b6116998161147e565b81146116a457600080fd5b50565b6116b0816114bc565b81146116bb57600080fd5b5056fea264697066735822122015642a9406f5b140dd74834f066dbd085ba4e65c3ce4e2c90ae2d40fab7f3d0964736f6c63430008070033",
					"opcodes": "PUSH1 0x80 PUSH1 0x40 MSTORE CALLVALUE DUP1 ISZERO PUSH3 0x11 JUMPI PUSH1 0x0 DUP1 REVERT JUMPDEST POP PUSH1 0x40 MLOAD PUSH3 0x1C52 CODESIZE SUB DUP1 PUSH3 0x1C52 DUP4 CODECOPY DUP2 DUP2 ADD PUSH1 0x40 MSTORE DUP2 ADD SWAP1 PUSH3 0x37 SWAP2 SWAP1 PUSH3 0x2E8 JUMP JUMPDEST DUP2 MLOAD DUP2 GT ISZERO PUSH3 0x73 JUMPI PUSH1 0x40 MLOAD PUSH32 0xAA6EAC5100000000000000000000000000000000000000000000000000000000 DUP2 MSTORE PUSH1 0x4 ADD PUSH1 0x40 MLOAD DUP1 SWAP2 SUB SWAP1 REVERT JUMPDEST PUSH1 0x0 JUMPDEST DUP3 MLOAD DUP2 LT ISZERO PUSH3 0x1FC JUMPI PUSH1 0x0 DUP4 DUP3 DUP2 MLOAD DUP2 LT PUSH3 0x98 JUMPI PUSH3 0x97 PUSH3 0x497 JUMP JUMPDEST JUMPDEST PUSH1 0x20 MUL PUSH1 0x20 ADD ADD MLOAD SWAP1 POP PUSH1 0x0 PUSH20 0xFFFFFFFFFFFFFFFFFFFFFFFFFFFFFFFFFFFFFFFF AND DUP2 PUSH20 0xFFFFFFFFFFFFFFFFFFFFFFFFFFFFFFFFFFFFFFFF AND EQ ISZERO PUSH3 0x10A JUMPI PUSH1 0x40 MLOAD PUSH32 0xD924E5F400000000000000000000000000000000000000000000000000000000 DUP2 MSTORE PUSH1 0x4 ADD PUSH1 0x40 MLOAD DUP1 SWAP2 SUB SWAP1 REVERT JUMPDEST PUSH1 0x0 DUP1 DUP3 PUSH20 0xFFFFFFFFFFFFFFFFFFFFFFFFFFFFFFFFFFFFFFFF AND PUSH20 0xFFFFFFFFFFFFFFFFFFFFFFFFFFFFFFFFFFFFFFFF AND DUP2 MSTORE PUSH1 0x20 ADD SWAP1 DUP2 MSTORE PUSH1 0x20 ADD PUSH1 0x0 KECCAK256 PUSH1 0x0 SWAP1 SLOAD SWAP1 PUSH2 0x100 EXP SWAP1 DIV PUSH1 0xFF AND ISZERO PUSH3 0x18E JUMPI PUSH1 0x40 MLOAD PUSH32 0xC0159E0E00000000000000000000000000000000000000000000000000000000 DUP2 MSTORE PUSH1 0x4 ADD PUSH1 0x40 MLOAD DUP1 SWAP2 SUB SWAP1 REVERT JUMPDEST PUSH1 0x1 PUSH1 0x0 DUP1 DUP4 PUSH20 0xFFFFFFFFFFFFFFFFFFFFFFFFFFFFFFFFFFFFFFFF AND PUSH20 0xFFFFFFFFFFFFFFFFFFFFFFFFFFFFFFFFFFFFFFFF AND DUP2 MSTORE PUSH1 0x20 ADD SWAP1 DUP2 MSTORE PUSH1 0x20 ADD PUSH1 0x0 KECCAK256 PUSH1 0x0 PUSH2 0x100 EXP DUP2 SLOAD DUP2 PUSH1 0xFF MUL NOT AND SWAP1 DUP4 ISZERO ISZERO MUL OR SWAP1 SSTORE POP POP DUP1 DUP1 PUSH3 0x1F3 SWAP1 PUSH3 0x41A JUMP JUMPDEST SWAP2 POP POP PUSH3 0x76 JUMP JUMPDEST POP DUP1 PUSH1 0x3 DUP2 SWAP1 SSTORE POP POP POP PUSH3 0x54E JUMP JUMPDEST PUSH1 0x0 PUSH3 0x223 PUSH3 0x21D DUP5 PUSH3 0x377 JUMP JUMPDEST PUSH3 0x34E JUMP JUMPDEST SWAP1 POP DUP1 DUP4 DUP3 MSTORE PUSH1 0x20 DUP3 ADD SWAP1 POP DUP3 DUP6 PUSH1 0x20 DUP7 MUL DUP3 ADD GT ISZERO PUSH3 0x249 JUMPI PUSH3 0x248 PUSH3 0x4FA JUMP JUMPDEST JUMPDEST PUSH1 0x0 JUMPDEST DUP6 DUP2 LT ISZERO PUSH3 0x27D JUMPI DUP2 PUSH3 0x262 DUP9 DUP3 PUSH3 0x287 JUMP JUMPDEST DUP5 MSTORE PUSH1 0x20 DUP5 ADD SWAP4 POP PUSH1 0x20 DUP4 ADD SWAP3 POP POP PUSH1 0x1 DUP2 ADD SWAP1 POP PUSH3 0x24C JUMP JUMPDEST POP POP POP SWAP4 SWAP3 POP POP POP JUMP JUMPDEST PUSH1 0x0 DUP2 MLOAD SWAP1 POP PUSH3 0x298 DUP2 PUSH3 0x51A JUMP JUMPDEST SWAP3 SWAP2 POP POP JUMP JUMPDEST PUSH1 0x0 DUP3 PUSH1 0x1F DUP4 ADD SLT PUSH3 0x2B6 JUMPI PUSH3 0x2B5 PUSH3 0x4F5 JUMP JUMPDEST JUMPDEST DUP2 MLOAD PUSH3 0x2C8 DUP5 DUP3 PUSH1 0x20 DUP7 ADD PUSH3 0x20C JUMP JUMPDEST SWAP2 POP POP SWAP3 SWAP2 POP POP JUMP JUMPDEST PUSH1 0x0 DUP2 MLOAD SWAP1 POP PUSH3 0x2E2 DUP2 PUSH3 0x534 JUMP JUMPDEST SWAP3 SWAP2 POP POP JUMP JUMPDEST PUSH1 0x0 DUP1 PUSH1 0x40 DUP4 DUP6 SUB SLT ISZERO PUSH3 0x302 JUMPI PUSH3 0x301 PUSH3 0x504 JUMP JUMPDEST JUMPDEST PUSH1 0x0 DUP4 ADD MLOAD PUSH8 0xFFFFFFFFFFFFFFFF DUP2 GT ISZERO PUSH3 0x323 JUMPI PUSH3 0x322 PUSH3 0x4FF JUMP JUMPDEST JUMPDEST PUSH3 0x331 DUP6 DUP3 DUP7 ADD PUSH3 0x29E JUMP JUMPDEST SWAP3 POP POP PUSH1 0x20 PUSH3 0x344 DUP6 DUP3 DUP7 ADD PUSH3 0x2D1 JUMP JUMPDEST SWAP2 POP POP SWAP3 POP SWAP3 SWAP1 POP JUMP JUMPDEST PUSH1 0x0 PUSH3 0x35A PUSH3 0x36D JUMP JUMPDEST SWAP1 POP PUSH3 0x368 DUP3 DUP3 PUSH3 0x3E4 JUMP JUMPDEST SWAP2 SWAP1 POP JUMP JUMPDEST PUSH1 0x0 PUSH1 0x40 MLOAD SWAP1 POP SWAP1 JUMP JUMPDEST PUSH1 0x0 PUSH8 0xFFFFFFFFFFFFFFFF DUP3 GT ISZERO PUSH3 0x395 JUMPI PUSH3 0x394 PUSH3 0x4C6 JUMP JUMPDEST JUMPDEST PUSH1 0x20 DUP3 MUL SWAP1 POP PUSH1 0x20 DUP2 ADD SWAP1 POP SWAP2 SWAP1 POP JUMP JUMPDEST PUSH1 0x0 PUSH3 0x3B3 DUP3 PUSH3 0x3BA JUMP JUMPDEST SWAP1 POP SWAP2 SWAP1 POP JUMP JUMPDEST PUSH1 0x0 PUSH20 0xFFFFFFFFFFFFFFFFFFFFFFFFFFFFFFFFFFFFFFFF DUP3 AND SWAP1 POP SWAP2 SWAP1 POP JUMP JUMPDEST PUSH1 0x0 DUP2 SWAP1 POP SWAP2 SWAP1 POP JUMP JUMPDEST PUSH3 0x3EF DUP3 PUSH3 0x509 JUMP JUMPDEST DUP2 ADD DUP2 DUP2 LT PUSH8 0xFFFFFFFFFFFFFFFF DUP3 GT OR ISZERO PUSH3 0x411 JUMPI PUSH3 0x410 PUSH3 0x4C6 JUMP JUMPDEST JUMPDEST DUP1 PUSH1 0x40 MSTORE POP POP POP JUMP JUMPDEST PUSH1 0x0 PUSH3 0x427 DUP3 PUSH3 0x3DA JUMP JUMPDEST SWAP2 POP PUSH32 0xFFFFFFFFFFFFFFFFFFFFFFFFFFFFFFFFFFFFFFFFFFFFFFFFFFFFFFFFFFFFFFFF DUP3 EQ ISZERO PUSH3 0x45D JUMPI PUSH3 0x45C PUSH3 0x468 JUMP JUMPDEST JUMPDEST PUSH1 0x1 DUP3 ADD SWAP1 POP SWAP2 SWAP1 POP JUMP JUMPDEST PUSH32 0x4E487B7100000000000000000000000000000000000000000000000000000000 PUSH1 0x0 MSTORE PUSH1 0x11 PUSH1 0x4 MSTORE PUSH1 0x24 PUSH1 0x0 REVERT JUMPDEST PUSH32 0x4E487B7100000000000000000000000000000000000000000000000000000000 PUSH1 0x0 MSTORE PUSH1 0x32 PUSH1 0x4 MSTORE PUSH1 0x24 PUSH1 0x0 REVERT JUMPDEST PUSH32 0x4E487B7100000000000000000000000000000000000000000000000000000000 PUSH1 0x0 MSTORE PUSH1 0x41 PUSH1 0x4 MSTORE PUSH1 0x24 PUSH1 0x0 REVERT JUMPDEST PUSH1 0x0 DUP1 REVERT JUMPDEST PUSH1 0x0 DUP1 REVERT JUMPDEST PUSH1 0x0 DUP1 REVERT JUMPDEST PUSH1 0x0 DUP1 REVERT JUMPDEST PUSH1 0x0 PUSH1 0x1F NOT PUSH1 0x1F DUP4 ADD AND SWAP1 POP SWAP2 SWAP1 POP JUMP JUMPDEST PUSH3 0x525 DUP2 PUSH3 0x3A6 JUMP JUMPDEST DUP2 EQ PUSH3 0x531 JUMPI PUSH1 0x0 DUP1 REVERT JUMPDEST POP JUMP JUMPDEST PUSH3 0x53F DUP2 PUSH3 0x3DA JUMP JUMPDEST DUP2 EQ PUSH3 0x54B JUMPI PUSH1 0x0 DUP1 REVERT JUMPDEST POP JUMP JUMPDEST PUSH2 0x16F4 DUP1 PUSH3 0x55E PUSH1 0x0 CODECOPY PUSH1 0x0 RETURN INVALID PUSH1 0x80 PUSH1 0x40 MSTORE PUSH1 0x4 CALLDATASIZE LT PUSH2 0x8A JUMPI PUSH1 0x0 CALLDATALOAD PUSH1 0xE0 SHR DUP1 PUSH4 0xB1E130FC GT PUSH2 0x59 JUMPI DUP1 PUSH4 0xB1E130FC EQ PUSH2 0x1B1 JUMPI DUP1 PUSH4 0xBB84C5A9 EQ PUSH2 0x1DA JUMPI DUP1 PUSH4 0xCD568D1F EQ PUSH2 0x203 JUMPI DUP1 PUSH4 0xDC8452CD EQ PUSH2 0x22E JUMPI DUP1 PUSH4 0xE0E3671C EQ PUSH2 0x259 JUMPI PUSH2 0xE0 JUMP JUMPDEST DUP1 PUSH4 0x1087393A EQ PUSH2 0xE5 JUMPI DUP1 PUSH4 0x33EA3DC8 EQ PUSH2 0x10E JUMPI DUP1 PUSH4 0x54B5FE80 EQ PUSH2 0x14B JUMPI DUP1 PUSH4 0x8F9487EB EQ PUSH2 0x174 JUMPI PUSH2 0xE0 JUMP JUMPDEST CALLDATASIZE PUSH2 0xE0 JUMPI CALLVALUE CALLER PUSH20 0xFFFFFFFFFFFFFFFFFFFFFFFFFFFFFFFFFFFFFFFF AND PUSH32 0x90890809C654F11D6E72A28FA60149770A0D11EC6C92319D6CEB2BB0A4EA1A15 SELFBALANCE PUSH1 0x40 MLOAD PUSH2 0xD6 SWAP2 SWAP1 PUSH2 0x139D JUMP JUMPDEST PUSH1 0x40 MLOAD DUP1 SWAP2 SUB SWAP1 LOG3 STOP JUMPDEST PUSH1 0x0 DUP1 REVERT JUMPDEST CALLVALUE DUP1 ISZERO PUSH2 0xF1 JUMPI PUSH1 0x0 DUP1 REVERT JUMPDEST POP PUSH2 0x10C PUSH1 0x4 DUP1 CALLDATASIZE SUB DUP2 ADD SWAP1 PUSH2 0x107 SWAP2 SWAP1 PUSH2 0x10DE JUMP JUMPDEST PUSH2 0x296 JUMP JUMPDEST STOP JUMPDEST CALLVALUE DUP1 ISZERO PUSH2 0x11A JUMPI PUSH1 0x0 DUP1 REVERT JUMPDEST POP PUSH2 0x135 PUSH1 0x4 DUP1 CALLDATASIZE SUB DUP2 ADD SWAP1 PUSH2 0x130 SWAP2 SWAP1 PUSH2 0x10DE JUMP JUMPDEST PUSH2 0x532 JUMP JUMPDEST PUSH1 0x40 MLOAD PUSH2 0x142 SWAP2 SWAP1 PUSH2 0x137B JUMP JUMPDEST PUSH1 0x40 MLOAD DUP1 SWAP2 SUB SWAP1 RETURN JUMPDEST CALLVALUE DUP1 ISZERO PUSH2 0x157 JUMPI PUSH1 0x0 DUP1 REVERT JUMPDEST POP PUSH2 0x172 PUSH1 0x4 DUP1 CALLDATASIZE SUB DUP2 ADD SWAP1 PUSH2 0x16D SWAP2 SWAP1 PUSH2 0x10DE JUMP JUMPDEST PUSH2 0x6CA JUMP JUMPDEST STOP JUMPDEST CALLVALUE DUP1 ISZERO PUSH2 0x180 JUMPI PUSH1 0x0 DUP1 REVERT JUMPDEST POP PUSH2 0x19B PUSH1 0x4 DUP1 CALLDATASIZE SUB DUP2 ADD SWAP1 PUSH2 0x196 SWAP2 SWAP1 PUSH2 0x110B JUMP JUMPDEST PUSH2 0x9CC JUMP JUMPDEST PUSH1 0x40 MLOAD PUSH2 0x1A8 SWAP2 SWAP1 PUSH2 0x1360 JUMP JUMPDEST PUSH1 0x40 MLOAD DUP1 SWAP2 SUB SWAP1 RETURN JUMPDEST CALLVALUE DUP1 ISZERO PUSH2 0x1BD JUMPI PUSH1 0x0 DUP1 REVERT JUMPDEST POP PUSH2 0x1D8 PUSH1 0x4 DUP1 CALLDATASIZE SUB DUP2 ADD SWAP1 PUSH2 0x1D3 SWAP2 SWAP1 PUSH2 0x10DE JUMP JUMPDEST PUSH2 0xA34 JUMP JUMPDEST STOP JUMPDEST CALLVALUE DUP1 ISZERO PUSH2 0x1E6 JUMPI PUSH1 0x0 DUP1 REVERT JUMPDEST POP PUSH2 0x201 PUSH1 0x4 DUP1 CALLDATASIZE SUB DUP2 ADD SWAP1 PUSH2 0x1FC SWAP2 SWAP1 PUSH2 0x106F JUMP JUMPDEST PUSH2 0xCD3 JUMP JUMPDEST STOP JUMPDEST CALLVALUE DUP1 ISZERO PUSH2 0x20F JUMPI PUSH1 0x0 DUP1 REVERT JUMPDEST POP PUSH2 0x218 PUSH2 0xE56 JUMP JUMPDEST PUSH1 0x40 MLOAD PUSH2 0x225 SWAP2 SWAP1 PUSH2 0x139D JUMP JUMPDEST PUSH1 0x40 MLOAD DUP1 SWAP2 SUB SWAP1 RETURN JUMPDEST CALLVALUE DUP1 ISZERO PUSH2 0x23A JUMPI PUSH1 0x0 DUP1 REVERT JUMPDEST POP PUSH2 0x243 PUSH2 0xE5C JUMP JUMPDEST PUSH1 0x40 MLOAD PUSH2 0x250 SWAP2 SWAP1 PUSH2 0x139D JUMP JUMPDEST PUSH1 0x40 MLOAD DUP1 SWAP2 SUB SWAP1 RETURN JUMPDEST CALLVALUE DUP1 ISZERO PUSH2 0x265 JUMPI PUSH1 0x0 DUP1 REVERT JUMPDEST POP PUSH2 0x280 PUSH1 0x4 DUP1 CALLDATASIZE SUB DUP2 ADD SWAP1 PUSH2 0x27B SWAP2 SWAP1 PUSH2 0x1042 JUMP JUMPDEST PUSH2 0xE62 JUMP JUMPDEST PUSH1 0x40 MLOAD PUSH2 0x28D SWAP2 SWAP1 PUSH2 0x1360 JUMP JUMPDEST PUSH1 0x40 MLOAD DUP1 SWAP2 SUB SWAP1 RETURN JUMPDEST PUSH1 0x0 DUP1 CALLER PUSH20 0xFFFFFFFFFFFFFFFFFFFFFFFFFFFFFFFFFFFFFFFF AND PUSH20 0xFFFFFFFFFFFFFFFFFFFFFFFFFFFFFFFFFFFFFFFF AND DUP2 MSTORE PUSH1 0x20 ADD SWAP1 DUP2 MSTORE PUSH1 0x20 ADD PUSH1 0x0 KECCAK256 PUSH1 0x0 SWAP1 SLOAD SWAP1 PUSH2 0x100 EXP SWAP1 DIV PUSH1 0xFF AND PUSH2 0x318 JUMPI PUSH1 0x40 MLOAD PUSH32 0x30CD747100000000000000000000000000000000000000000000000000000000 DUP2 MSTORE PUSH1 0x4 ADD PUSH1 0x40 MLOAD DUP1 SWAP2 SUB SWAP1 REVERT JUMPDEST DUP1 PUSH1 0x1 PUSH1 0x4 SLOAD PUSH2 0x328 SWAP2 SWAP1 PUSH2 0x144A JUMP JUMPDEST DUP2 GT ISZERO PUSH2 0x361 JUMPI PUSH1 0x40 MLOAD PUSH32 0x9E1B596F00000000000000000000000000000000000000000000000000000000 DUP2 MSTORE PUSH1 0x4 ADD PUSH1 0x40 MLOAD DUP1 SWAP2 SUB SWAP1 REVERT JUMPDEST DUP2 PUSH1 0x2 PUSH1 0x0 DUP3 DUP2 MSTORE PUSH1 0x20 ADD SWAP1 DUP2 MSTORE PUSH1 0x20 ADD PUSH1 0x0 KECCAK256 PUSH1 0x0 CALLER PUSH20 0xFFFFFFFFFFFFFFFFFFFFFFFFFFFFFFFFFFFFFFFF AND PUSH20 0xFFFFFFFFFFFFFFFFFFFFFFFFFFFFFFFFFFFFFFFF AND DUP2 MSTORE PUSH1 0x20 ADD SWAP1 DUP2 MSTORE PUSH1 0x20 ADD PUSH1 0x0 KECCAK256 PUSH1 0x0 SWAP1 SLOAD SWAP1 PUSH2 0x100 EXP SWAP1 DIV PUSH1 0xFF AND ISZERO PUSH2 0x3F7 JUMPI PUSH1 0x40 MLOAD PUSH32 0x5DB7EC0D00000000000000000000000000000000000000000000000000000000 DUP2 MSTORE PUSH1 0x4 ADD PUSH1 0x40 MLOAD DUP1 SWAP2 SUB SWAP1 REVERT JUMPDEST DUP3 PUSH1 0x1 PUSH1 0x0 DUP3 DUP2 MSTORE PUSH1 0x20 ADD SWAP1 DUP2 MSTORE PUSH1 0x20 ADD PUSH1 0x0 KECCAK256 PUSH1 0x5 ADD PUSH1 0x0 SWAP1 SLOAD SWAP1 PUSH2 0x100 EXP SWAP1 DIV PUSH1 0xFF AND ISZERO PUSH2 0x453 JUMPI PUSH1 0x40 MLOAD PUSH32 0x2EA945CF00000000000000000000000000000000000000000000000000000000 DUP2 MSTORE PUSH1 0x4 ADD PUSH1 0x40 MLOAD DUP1 SWAP2 SUB SWAP1 REVERT JUMPDEST PUSH1 0x1 PUSH1 0x0 DUP6 DUP2 MSTORE PUSH1 0x20 ADD SWAP1 DUP2 MSTORE PUSH1 0x20 ADD PUSH1 0x0 KECCAK256 PUSH1 0x4 ADD PUSH1 0x0 DUP2 SLOAD DUP1 SWAP3 SWAP2 SWAP1 PUSH2 0x47A SWAP1 PUSH2 0x1595 JUMP JUMPDEST SWAP2 SWAP1 POP SSTORE POP PUSH1 0x1 PUSH1 0x2 PUSH1 0x0 DUP7 DUP2 MSTORE PUSH1 0x20 ADD SWAP1 DUP2 MSTORE PUSH1 0x20 ADD PUSH1 0x0 KECCAK256 PUSH1 0x0 CALLER PUSH20 0xFFFFFFFFFFFFFFFFFFFFFFFFFFFFFFFFFFFFFFFF AND PUSH20 0xFFFFFFFFFFFFFFFFFFFFFFFFFFFFFFFFFFFFFFFF AND DUP2 MSTORE PUSH1 0x20 ADD SWAP1 DUP2 MSTORE PUSH1 0x20 ADD PUSH1 0x0 KECCAK256 PUSH1 0x0 PUSH2 0x100 EXP DUP2 SLOAD DUP2 PUSH1 0xFF MUL NOT AND SWAP1 DUP4 ISZERO ISZERO MUL OR SWAP1 SSTORE POP CALLER PUSH20 0xFFFFFFFFFFFFFFFFFFFFFFFFFFFFFFFFFFFFFFFF AND DUP5 PUSH32 0xD4329D04E785EBE84C72DCD09FB9C65F1FBBDA53EE15EC20E93342C7F3E2A62D PUSH1 0x40 MLOAD PUSH1 0x40 MLOAD DUP1 SWAP2 SUB SWAP1 LOG3 POP POP POP POP JUMP JUMPDEST PUSH2 0x53A PUSH2 0xEB7 JUMP JUMPDEST DUP2 PUSH1 0x1 PUSH1 0x4 SLOAD PUSH2 0x54A SWAP2 SWAP1 PUSH2 0x144A JUMP JUMPDEST DUP2 GT ISZERO PUSH2 0x583 JUMPI PUSH1 0x40 MLOAD PUSH32 0x9E1B596F00000000000000000000000000000000000000000000000000000000 DUP2 MSTORE PUSH1 0x4 ADD PUSH1 0x40 MLOAD DUP1 SWAP2 SUB SWAP1 REVERT JUMPDEST PUSH1 0x1 PUSH1 0x0 DUP5 DUP2 MSTORE PUSH1 0x20 ADD SWAP1 DUP2 MSTORE PUSH1 0x20 ADD PUSH1 0x0 KECCAK256 PUSH1 0x40 MLOAD DUP1 PUSH1 0xC0 ADD PUSH1 0x40 MSTORE SWAP1 DUP2 PUSH1 0x0 DUP3 ADD SLOAD DUP2 MSTORE PUSH1 0x20 ADD PUSH1 0x1 DUP3 ADD PUSH1 0x0 SWAP1 SLOAD SWAP1 PUSH2 0x100 EXP SWAP1 DIV PUSH20 0xFFFFFFFFFFFFFFFFFFFFFFFFFFFFFFFFFFFFFFFF AND PUSH20 0xFFFFFFFFFFFFFFFFFFFFFFFFFFFFFFFFFFFFFFFF AND PUSH20 0xFFFFFFFFFFFFFFFFFFFFFFFFFFFFFFFFFFFFFFFF AND DUP2 MSTORE PUSH1 0x20 ADD PUSH1 0x2 DUP3 ADD SLOAD DUP2 MSTORE PUSH1 0x20 ADD PUSH1 0x3 DUP3 ADD DUP1 SLOAD PUSH2 0x61B SWAP1 PUSH2 0x1532 JUMP JUMPDEST DUP1 PUSH1 0x1F ADD PUSH1 0x20 DUP1 SWAP2 DIV MUL PUSH1 0x20 ADD PUSH1 0x40 MLOAD SWAP1 DUP2 ADD PUSH1 0x40 MSTORE DUP1 SWAP3 SWAP2 SWAP1 DUP2 DUP2 MSTORE PUSH1 0x20 ADD DUP3 DUP1 SLOAD PUSH2 0x647 SWAP1 PUSH2 0x1532 JUMP JUMPDEST DUP1 ISZERO PUSH2 0x694 JUMPI DUP1 PUSH1 0x1F LT PUSH2 0x669 JUMPI PUSH2 0x100 DUP1 DUP4 SLOAD DIV MUL DUP4 MSTORE SWAP2 PUSH1 0x20 ADD SWAP2 PUSH2 0x694 JUMP JUMPDEST DUP3 ADD SWAP2 SWAP1 PUSH1 0x0 MSTORE PUSH1 0x20 PUSH1 0x0 KECCAK256 SWAP1 JUMPDEST DUP2 SLOAD DUP2 MSTORE SWAP1 PUSH1 0x1 ADD SWAP1 PUSH1 0x20 ADD DUP1 DUP4 GT PUSH2 0x677 JUMPI DUP3 SWAP1 SUB PUSH1 0x1F AND DUP3 ADD SWAP2 JUMPDEST POP POP POP POP POP DUP2 MSTORE PUSH1 0x20 ADD PUSH1 0x4 DUP3 ADD SLOAD DUP2 MSTORE PUSH1 0x20 ADD PUSH1 0x5 DUP3 ADD PUSH1 0x0 SWAP1 SLOAD SWAP1 PUSH2 0x100 EXP SWAP1 DIV PUSH1 0xFF AND ISZERO ISZERO ISZERO ISZERO DUP2 MSTORE POP POP SWAP2 POP POP SWAP2 SWAP1 POP JUMP JUMPDEST PUSH1 0x0 DUP1 CALLER PUSH20 0xFFFFFFFFFFFFFFFFFFFFFFFFFFFFFFFFFFFFFFFF AND PUSH20 0xFFFFFFFFFFFFFFFFFFFFFFFFFFFFFFFFFFFFFFFF AND DUP2 MSTORE PUSH1 0x20 ADD SWAP1 DUP2 MSTORE PUSH1 0x20 ADD PUSH1 0x0 KECCAK256 PUSH1 0x0 SWAP1 SLOAD SWAP1 PUSH2 0x100 EXP SWAP1 DIV PUSH1 0xFF AND PUSH2 0x74C JUMPI PUSH1 0x40 MLOAD PUSH32 0x30CD747100000000000000000000000000000000000000000000000000000000 DUP2 MSTORE PUSH1 0x4 ADD PUSH1 0x40 MLOAD DUP1 SWAP2 SUB SWAP1 REVERT JUMPDEST DUP1 PUSH1 0x1 PUSH1 0x4 SLOAD PUSH2 0x75C SWAP2 SWAP1 PUSH2 0x144A JUMP JUMPDEST DUP2 GT ISZERO PUSH2 0x795 JUMPI PUSH1 0x40 MLOAD PUSH32 0x9E1B596F00000000000000000000000000000000000000000000000000000000 DUP2 MSTORE PUSH1 0x4 ADD PUSH1 0x40 MLOAD DUP1 SWAP2 SUB SWAP1 REVERT JUMPDEST DUP2 PUSH1 0x1 PUSH1 0x0 DUP3 DUP2 MSTORE PUSH1 0x20 ADD SWAP1 DUP2 MSTORE PUSH1 0x20 ADD PUSH1 0x0 KECCAK256 PUSH1 0x5 ADD PUSH1 0x0 SWAP1 SLOAD SWAP1 PUSH2 0x100 EXP SWAP1 DIV PUSH1 0xFF AND ISZERO PUSH2 0x7F1 JUMPI PUSH1 0x40 MLOAD PUSH32 0x2EA945CF00000000000000000000000000000000000000000000000000000000 DUP2 MSTORE PUSH1 0x4 ADD PUSH1 0x40 MLOAD DUP1 SWAP2 SUB SWAP1 REVERT JUMPDEST PUSH1 0x0 PUSH1 0x1 PUSH1 0x0 DUP6 DUP2 MSTORE PUSH1 0x20 ADD SWAP1 DUP2 MSTORE PUSH1 0x20 ADD PUSH1 0x0 KECCAK256 SWAP1 POP PUSH1 0x3 SLOAD DUP2 PUSH1 0x4 ADD SLOAD LT ISZERO PUSH2 0x848 JUMPI PUSH1 0x40 MLOAD PUSH32 0x9DD63CB700000000000000000000000000000000000000000000000000000000 DUP2 MSTORE PUSH1 0x4 ADD PUSH1 0x40 MLOAD DUP1 SWAP2 SUB SWAP1 REVERT JUMPDEST PUSH1 0x1 DUP2 PUSH1 0x5 ADD PUSH1 0x0 PUSH2 0x100 EXP DUP2 SLOAD DUP2 PUSH1 0xFF MUL NOT AND SWAP1 DUP4 ISZERO ISZERO MUL OR SWAP1 SSTORE POP PUSH1 0x0 DUP2 PUSH1 0x1 ADD PUSH1 0x0 SWAP1 SLOAD SWAP1 PUSH2 0x100 EXP SWAP1 DIV PUSH20 0xFFFFFFFFFFFFFFFFFFFFFFFFFFFFFFFFFFFFFFFF AND PUSH20 0xFFFFFFFFFFFFFFFFFFFFFFFFFFFFFFFFFFFFFFFF AND DUP3 PUSH1 0x2 ADD SLOAD DUP4 PUSH1 0x3 ADD PUSH1 0x40 MLOAD PUSH2 0x8B8 SWAP2 SWAP1 PUSH2 0x132E JUMP JUMPDEST PUSH1 0x0 PUSH1 0x40 MLOAD DUP1 DUP4 SUB DUP2 DUP6 DUP8 GAS CALL SWAP3 POP POP POP RETURNDATASIZE DUP1 PUSH1 0x0 DUP2 EQ PUSH2 0x8F5 JUMPI PUSH1 0x40 MLOAD SWAP2 POP PUSH1 0x1F NOT PUSH1 0x3F RETURNDATASIZE ADD AND DUP3 ADD PUSH1 0x40 MSTORE RETURNDATASIZE DUP3 MSTORE RETURNDATASIZE PUSH1 0x0 PUSH1 0x20 DUP5 ADD RETURNDATACOPY PUSH2 0x8FA JUMP JUMPDEST PUSH1 0x60 SWAP2 POP JUMPDEST POP POP SWAP1 POP DUP1 PUSH2 0x935 JUMPI PUSH1 0x40 MLOAD PUSH32 0xCB2F2A1C00000000000000000000000000000000000000000000000000000000 DUP2 MSTORE PUSH1 0x4 ADD PUSH1 0x40 MLOAD DUP1 SWAP2 SUB SWAP1 REVERT JUMPDEST DUP2 PUSH1 0x3 ADD PUSH1 0x40 MLOAD PUSH2 0x946 SWAP2 SWAP1 PUSH2 0x132E JUMP JUMPDEST PUSH1 0x40 MLOAD DUP1 SWAP2 SUB SWAP1 KECCAK256 DUP3 PUSH1 0x2 ADD SLOAD DUP4 PUSH1 0x1 ADD PUSH1 0x0 SWAP1 SLOAD SWAP1 PUSH2 0x100 EXP SWAP1 DIV PUSH20 0xFFFFFFFFFFFFFFFFFFFFFFFFFFFFFFFFFFFFFFFF AND PUSH20 0xFFFFFFFFFFFFFFFFFFFFFFFFFFFFFFFFFFFFFFFF AND PUSH32 0xB91792DFBEC9D14F14EFE0FD0328FE544073CD1BEFA73F98441BCE708E643179 CALLER PUSH1 0x40 MLOAD PUSH2 0x9BD SWAP2 SWAP1 PUSH2 0x1345 JUMP JUMPDEST PUSH1 0x40 MLOAD DUP1 SWAP2 SUB SWAP1 LOG4 POP POP POP POP POP JUMP JUMPDEST PUSH1 0x0 PUSH1 0x2 PUSH1 0x0 DUP5 DUP2 MSTORE PUSH1 0x20 ADD SWAP1 DUP2 MSTORE PUSH1 0x20 ADD PUSH1 0x0 KECCAK256 PUSH1 0x0 DUP4 PUSH20 0xFFFFFFFFFFFFFFFFFFFFFFFFFFFFFFFFFFFFFFFF AND PUSH20 0xFFFFFFFFFFFFFFFFFFFFFFFFFFFFFFFFFFFFFFFF AND DUP2 MSTORE PUSH1 0x20 ADD SWAP1 DUP2 MSTORE PUSH1 0x20 ADD PUSH1 0x0 KECCAK256 PUSH1 0x0 SWAP1 SLOAD SWAP1 PUSH2 0x100 EXP SWAP1 DIV PUSH1 0xFF AND SWAP1 POP SWAP3 SWAP2 POP POP JUMP JUMPDEST PUSH1 0x0 DUP1 CALLER PUSH20 0xFFFFFFFFFFFFFFFFFFFFFFFFFFFFFFFFFFFFFFFF AND PUSH20 0xFFFFFFFFFFFFFFFFFFFFFFFFFFFFFFFFFFFFFFFF AND DUP2 MSTORE PUSH1 0x20 ADD SWAP1 DUP2 MSTORE PUSH1 0x20 ADD PUSH1 0x0 KECCAK256 PUSH1 0x0 SWAP1 SLOAD SWAP1 PUSH2 0x100 EXP SWAP1 DIV PUSH1 0xFF AND PUSH2 0xAB6 JUMPI PUSH1 0x40 MLOAD PUSH32 0x30CD747100000000000000000000000000000000000000000000000000000000 DUP2 MSTORE PUSH1 0x4 ADD PUSH1 0x40 MLOAD DUP1 SWAP2 SUB SWAP1 REVERT JUMPDEST DUP1 PUSH1 0x1 PUSH1 0x4 SLOAD PUSH2 0xAC6 SWAP2 SWAP1 PUSH2 0x144A JUMP JUMPDEST DUP2 GT ISZERO PUSH2 0xAFF JUMPI PUSH1 0x40 MLOAD PUSH32 0x9E1B596F00000000000000000000000000000000000000000000000000000000 DUP2 MSTORE PUSH1 0x4 ADD PUSH1 0x40 MLOAD DUP1 SWAP2 SUB SWAP1 REVERT JUMPDEST DUP2 PUSH1 0x1 PUSH1 0x0 DUP3 DUP2 MSTORE PUSH1 0x20 ADD SWAP1 DUP2 MSTORE PUSH1 0x20 ADD PUSH1 0x0 KECCAK256 PUSH1 0x5 ADD PUSH1 0x0 SWAP1 SLOAD SWAP1 PUSH2 0x100 EXP SWAP1 DIV PUSH1 0xFF AND ISZERO PUSH2 0xB5B JUMPI PUSH1 0x40 MLOAD PUSH32 0x2EA945CF00000000000000000000000000000000000000000000000000000000 DUP2 MSTORE PUSH1 0x4 ADD PUSH1 0x40 MLOAD DUP1 SWAP2 SUB SWAP1 REVERT JUMPDEST PUSH1 0x2 PUSH1 0x0 DUP5 DUP2 MSTORE PUSH1 0x20 ADD SWAP1 DUP2 MSTORE PUSH1 0x20 ADD PUSH1 0x0 KECCAK256 PUSH1 0x0 CALLER PUSH20 0xFFFFFFFFFFFFFFFFFFFFFFFFFFFFFFFFFFFFFFFF AND PUSH20 0xFFFFFFFFFFFFFFFFFFFFFFFFFFFFFFFFFFFFFFFF AND DUP2 MSTORE PUSH1 0x20 ADD SWAP1 DUP2 MSTORE PUSH1 0x20 ADD PUSH1 0x0 KECCAK256 PUSH1 0x0 SWAP1 SLOAD SWAP1 PUSH2 0x100 EXP SWAP1 DIV PUSH1 0xFF AND ISZERO PUSH2 0xC58 JUMPI PUSH1 0x1 PUSH1 0x0 DUP5 DUP2 MSTORE PUSH1 0x20 ADD SWAP1 DUP2 MSTORE PUSH1 0x20 ADD PUSH1 0x0 KECCAK256 PUSH1 0x4 ADD PUSH1 0x0 DUP2 SLOAD DUP1 SWAP3 SWAP2 SWAP1 PUSH2 0xBE5 SWAP1 PUSH2 0x1508 JUMP JUMPDEST SWAP2 SWAP1 POP SSTORE POP PUSH1 0x0 PUSH1 0x2 PUSH1 0x0 DUP6 DUP2 MSTORE PUSH1 0x20 ADD SWAP1 DUP2 MSTORE PUSH1 0x20 ADD PUSH1 0x0 KECCAK256 PUSH1 0x0 CALLER PUSH20 0xFFFFFFFFFFFFFFFFFFFFFFFFFFFFFFFFFFFFFFFF AND PUSH20 0xFFFFFFFFFFFFFFFFFFFFFFFFFFFFFFFFFFFFFFFF AND DUP2 MSTORE PUSH1 0x20 ADD SWAP1 DUP2 MSTORE PUSH1 0x20 ADD PUSH1 0x0 KECCAK256 PUSH1 0x0 PUSH2 0x100 EXP DUP2 SLOAD DUP2 PUSH1 0xFF MUL NOT AND SWAP1 DUP4 ISZERO ISZERO MUL OR SWAP1 SSTORE POP PUSH2 0xC8A JUMP JUMPDEST PUSH1 0x40 MLOAD PUSH32 0xFAFE52BF00000000000000000000000000000000000000000000000000000000 DUP2 MSTORE PUSH1 0x4 ADD PUSH1 0x40 MLOAD DUP1 SWAP2 SUB SWAP1 REVERT JUMPDEST DUP3 CALLER PUSH20 0xFFFFFFFFFFFFFFFFFFFFFFFFFFFFFFFFFFFFFFFF AND PUSH32 0x1E75C0948730226138E58D1E7446B6167B5159A6904C3AC4597714F298D13DF2 PUSH1 0x40 MLOAD PUSH1 0x40 MLOAD DUP1 SWAP2 SUB SWAP1 LOG3 POP POP POP JUMP JUMPDEST PUSH1 0x0 DUP1 CALLER PUSH20 0xFFFFFFFFFFFFFFFFFFFFFFFFFFFFFFFFFFFFFFFF AND PUSH20 0xFFFFFFFFFFFFFFFFFFFFFFFFFFFFFFFFFFFFFFFF AND DUP2 MSTORE PUSH1 0x20 ADD SWAP1 DUP2 MSTORE PUSH1 0x20 ADD PUSH1 0x0 KECCAK256 PUSH1 0x0 SWAP1 SLOAD SWAP1 PUSH2 0x100 EXP SWAP1 DIV PUSH1 0xFF AND PUSH2 0xD55 JUMPI PUSH1 0x40 MLOAD PUSH32 0x30CD747100000000000000000000000000000000000000000000000000000000 DUP2 MSTORE PUSH1 0x4 ADD PUSH1 0x40 MLOAD DUP1 SWAP2 SUB SWAP1 REVERT JUMPDEST PUSH1 0x0 PUSH1 0x1 PUSH1 0x0 PUSH1 0x4 SLOAD DUP2 MSTORE PUSH1 0x20 ADD SWAP1 DUP2 MSTORE PUSH1 0x20 ADD PUSH1 0x0 KECCAK256 SWAP1 POP PUSH1 0x4 SLOAD DUP2 PUSH1 0x0 ADD DUP2 SWAP1 SSTORE POP DUP4 DUP2 PUSH1 0x1 ADD PUSH1 0x0 PUSH2 0x100 EXP DUP2 SLOAD DUP2 PUSH20 0xFFFFFFFFFFFFFFFFFFFFFFFFFFFFFFFFFFFFFFFF MUL NOT AND SWAP1 DUP4 PUSH20 0xFFFFFFFFFFFFFFFFFFFFFFFFFFFFFFFFFFFFFFFF AND MUL OR SWAP1 SSTORE POP DUP3 DUP2 PUSH1 0x2 ADD DUP2 SWAP1 SSTORE POP DUP2 DUP2 PUSH1 0x3 ADD SWAP1 DUP1 MLOAD SWAP1 PUSH1 0x20 ADD SWAP1 PUSH2 0xDDD SWAP3 SWAP2 SWAP1 PUSH2 0xF05 JUMP JUMPDEST POP PUSH1 0x4 PUSH1 0x0 DUP2 SLOAD DUP1 SWAP3 SWAP2 SWAP1 PUSH2 0xDF1 SWAP1 PUSH2 0x1595 JUMP JUMPDEST SWAP2 SWAP1 POP SSTORE POP DUP2 PUSH1 0x40 MLOAD PUSH2 0xE04 SWAP2 SWAP1 PUSH2 0x1317 JUMP JUMPDEST PUSH1 0x40 MLOAD DUP1 SWAP2 SUB SWAP1 KECCAK256 DUP4 DUP6 PUSH20 0xFFFFFFFFFFFFFFFFFFFFFFFFFFFFFFFFFFFFFFFF AND PUSH32 0x315D8BF6C6D36A1411EE3D8D607B26DF37940936BD273E006857A296FBAC2CE8 PUSH1 0x40 MLOAD PUSH1 0x40 MLOAD DUP1 SWAP2 SUB SWAP1 LOG4 POP POP POP POP JUMP JUMPDEST PUSH1 0x4 SLOAD DUP2 JUMP JUMPDEST PUSH1 0x3 SLOAD DUP2 JUMP JUMPDEST PUSH1 0x0 DUP1 PUSH1 0x0 DUP4 PUSH20 0xFFFFFFFFFFFFFFFFFFFFFFFFFFFFFFFFFFFFFFFF AND PUSH20 0xFFFFFFFFFFFFFFFFFFFFFFFFFFFFFFFFFFFFFFFF AND DUP2 MSTORE PUSH1 0x20 ADD SWAP1 DUP2 MSTORE PUSH1 0x20 ADD PUSH1 0x0 KECCAK256 PUSH1 0x0 SWAP1 SLOAD SWAP1 PUSH2 0x100 EXP SWAP1 DIV PUSH1 0xFF AND SWAP1 POP SWAP2 SWAP1 POP JUMP JUMPDEST PUSH1 0x40 MLOAD DUP1 PUSH1 0xC0 ADD PUSH1 0x40 MSTORE DUP1 PUSH1 0x0 DUP2 MSTORE PUSH1 0x20 ADD PUSH1 0x0 PUSH20 0xFFFFFFFFFFFFFFFFFFFFFFFFFFFFFFFFFFFFFFFF AND DUP2 MSTORE PUSH1 0x20 ADD PUSH1 0x0 DUP2 MSTORE PUSH1 0x20 ADD PUSH1 0x60 DUP2 MSTORE PUSH1 0x20 ADD PUSH1 0x0 DUP2 MSTORE PUSH1 0x20 ADD PUSH1 0x0 ISZERO ISZERO DUP2 MSTORE POP SWAP1 JUMP JUMPDEST DUP3 DUP1 SLOAD PUSH2 0xF11 SWAP1 PUSH2 0x1532 JUMP JUMPDEST SWAP1 PUSH1 0x0 MSTORE PUSH1 0x20 PUSH1 0x0 KECCAK256 SWAP1 PUSH1 0x1F ADD PUSH1 0x20 SWAP1 DIV DUP2 ADD SWAP3 DUP3 PUSH2 0xF33 JUMPI PUSH1 0x0 DUP6 SSTORE PUSH2 0xF7A JUMP JUMPDEST DUP3 PUSH1 0x1F LT PUSH2 0xF4C JUMPI DUP1 MLOAD PUSH1 0xFF NOT AND DUP4 DUP1 ADD OR DUP6 SSTORE PUSH2 0xF7A JUMP JUMPDEST DUP3 DUP1 ADD PUSH1 0x1 ADD DUP6 SSTORE DUP3 ISZERO PUSH2 0xF7A JUMPI SWAP2 DUP3 ADD JUMPDEST DUP3 DUP2 GT ISZERO PUSH2 0xF79 JUMPI DUP3 MLOAD DUP3 SSTORE SWAP2 PUSH1 0x20 ADD SWAP2 SWAP1 PUSH1 0x1 ADD SWAP1 PUSH2 0xF5E JUMP JUMPDEST JUMPDEST POP SWAP1 POP PUSH2 0xF87 SWAP2 SWAP1 PUSH2 0xF8B JUMP JUMPDEST POP SWAP1 JUMP JUMPDEST JUMPDEST DUP1 DUP3 GT ISZERO PUSH2 0xFA4 JUMPI PUSH1 0x0 DUP2 PUSH1 0x0 SWAP1 SSTORE POP PUSH1 0x1 ADD PUSH2 0xF8C JUMP JUMPDEST POP SWAP1 JUMP JUMPDEST PUSH1 0x0 PUSH2 0xFBB PUSH2 0xFB6 DUP5 PUSH2 0x13DD JUMP JUMPDEST PUSH2 0x13B8 JUMP JUMPDEST SWAP1 POP DUP3 DUP2 MSTORE PUSH1 0x20 DUP2 ADD DUP5 DUP5 DUP5 ADD GT ISZERO PUSH2 0xFD7 JUMPI PUSH2 0xFD6 PUSH2 0x1670 JUMP JUMPDEST JUMPDEST PUSH2 0xFE2 DUP5 DUP3 DUP6 PUSH2 0x14C6 JUMP JUMPDEST POP SWAP4 SWAP3 POP POP POP JUMP JUMPDEST PUSH1 0x0 DUP2 CALLDATALOAD SWAP1 POP PUSH2 0xFF9 DUP2 PUSH2 0x1690 JUMP JUMPDEST SWAP3 SWAP2 POP POP JUMP JUMPDEST PUSH1 0x0 DUP3 PUSH1 0x1F DUP4 ADD SLT PUSH2 0x1014 JUMPI PUSH2 0x1013 PUSH2 0x166B JUMP JUMPDEST JUMPDEST DUP2 CALLDATALOAD PUSH2 0x1024 DUP5 DUP3 PUSH1 0x20 DUP7 ADD PUSH2 0xFA8 JUMP JUMPDEST SWAP2 POP POP SWAP3 SWAP2 POP POP JUMP JUMPDEST PUSH1 0x0 DUP2 CALLDATALOAD SWAP1 POP PUSH2 0x103C DUP2 PUSH2 0x16A7 JUMP JUMPDEST SWAP3 SWAP2 POP POP JUMP JUMPDEST PUSH1 0x0 PUSH1 0x20 DUP3 DUP5 SUB SLT ISZERO PUSH2 0x1058 JUMPI PUSH2 0x1057 PUSH2 0x167A JUMP JUMPDEST JUMPDEST PUSH1 0x0 PUSH2 0x1066 DUP5 DUP3 DUP6 ADD PUSH2 0xFEA JUMP JUMPDEST SWAP2 POP POP SWAP3 SWAP2 POP POP JUMP JUMPDEST PUSH1 0x0 DUP1 PUSH1 0x0 PUSH1 0x60 DUP5 DUP7 SUB SLT ISZERO PUSH2 0x1088 JUMPI PUSH2 0x1087 PUSH2 0x167A JUMP JUMPDEST JUMPDEST PUSH1 0x0 PUSH2 0x1096 DUP7 DUP3 DUP8 ADD PUSH2 0xFEA JUMP JUMPDEST SWAP4 POP POP PUSH1 0x20 PUSH2 0x10A7 DUP7 DUP3 DUP8 ADD PUSH2 0x102D JUMP JUMPDEST SWAP3 POP POP PUSH1 0x40 DUP5 ADD CALLDATALOAD PUSH8 0xFFFFFFFFFFFFFFFF DUP2 GT ISZERO PUSH2 0x10C8 JUMPI PUSH2 0x10C7 PUSH2 0x1675 JUMP JUMPDEST JUMPDEST PUSH2 0x10D4 DUP7 DUP3 DUP8 ADD PUSH2 0xFFF JUMP JUMPDEST SWAP2 POP POP SWAP3 POP SWAP3 POP SWAP3 JUMP JUMPDEST PUSH1 0x0 PUSH1 0x20 DUP3 DUP5 SUB SLT ISZERO PUSH2 0x10F4 JUMPI PUSH2 0x10F3 PUSH2 0x167A JUMP JUMPDEST JUMPDEST PUSH1 0x0 PUSH2 0x1102 DUP5 DUP3 DUP6 ADD PUSH2 0x102D JUMP JUMPDEST SWAP2 POP POP SWAP3 SWAP2 POP POP JUMP JUMPDEST PUSH1 0x0 DUP1 PUSH1 0x40 DUP4 DUP6 SUB SLT ISZERO PUSH2 0x1122 JUMPI PUSH2 0x1121 PUSH2 0x167A JUMP JUMPDEST JUMPDEST PUSH1 0x0 PUSH2 0x1130 DUP6 DUP3 DUP7 ADD PUSH2 0x102D JUMP JUMPDEST SWAP3 POP POP PUSH1 0x20 PUSH2 0x1141 DUP6 DUP3 DUP7 ADD PUSH2 0xFEA JUMP JUMPDEST SWAP2 POP POP SWAP3 POP SWAP3 SWAP1 POP JUMP JUMPDEST PUSH2 0x1154 DUP2 PUSH2 0x147E JUMP JUMPDEST DUP3 MSTORE POP POP JUMP JUMPDEST PUSH2 0x1163 DUP2 PUSH2 0x147E JUMP JUMPDEST DUP3 MSTORE POP POP JUMP JUMPDEST PUSH2 0x1172 DUP2 PUSH2 0x1490 JUMP JUMPDEST DUP3 MSTORE POP POP JUMP JUMPDEST PUSH2 0x1181 DUP2 PUSH2 0x1490 JUMP JUMPDEST DUP3 MSTORE POP POP JUMP JUMPDEST PUSH1 0x0 PUSH2 0x1192 DUP3 PUSH2 0x1423 JUMP JUMPDEST PUSH2 0x119C DUP2 DUP6 PUSH2 0x142E JUMP JUMPDEST SWAP4 POP PUSH2 0x11AC DUP2 DUP6 PUSH1 0x20 DUP7 ADD PUSH2 0x14D5 JUMP JUMPDEST PUSH2 0x11B5 DUP2 PUSH2 0x167F JUMP JUMPDEST DUP5 ADD SWAP2 POP POP SWAP3 SWAP2 POP POP JUMP JUMPDEST PUSH1 0x0 PUSH2 0x11CB DUP3 PUSH2 0x1423 JUMP JUMPDEST PUSH2 0x11D5 DUP2 DUP6 PUSH2 0x143F JUMP JUMPDEST SWAP4 POP PUSH2 0x11E5 DUP2 DUP6 PUSH1 0x20 DUP7 ADD PUSH2 0x14D5 JUMP JUMPDEST DUP1 DUP5 ADD SWAP2 POP POP SWAP3 SWAP2 POP POP JUMP JUMPDEST PUSH1 0x0 DUP2 SLOAD PUSH2 0x11FE DUP2 PUSH2 0x1532 JUMP JUMPDEST PUSH2 0x1208 DUP2 DUP7 PUSH2 0x143F JUMP JUMPDEST SWAP5 POP PUSH1 0x1 DUP3 AND PUSH1 0x0 DUP2 EQ PUSH2 0x1223 JUMPI PUSH1 0x1 DUP2 EQ PUSH2 0x1234 JUMPI PUSH2 0x1267 JUMP JUMPDEST PUSH1 0xFF NOT DUP4 AND DUP7 MSTORE DUP2 DUP7 ADD SWAP4 POP PUSH2 0x1267 JUMP JUMPDEST PUSH2 0x123D DUP6 PUSH2 0x140E JUMP JUMPDEST PUSH1 0x0 JUMPDEST DUP4 DUP2 LT ISZERO PUSH2 0x125F JUMPI DUP2 SLOAD DUP2 DUP10 ADD MSTORE PUSH1 0x1 DUP3 ADD SWAP2 POP PUSH1 0x20 DUP2 ADD SWAP1 POP PUSH2 0x1240 JUMP JUMPDEST DUP4 DUP9 ADD SWAP6 POP POP POP JUMPDEST POP POP POP SWAP3 SWAP2 POP POP JUMP JUMPDEST PUSH1 0x0 PUSH1 0xC0 DUP4 ADD PUSH1 0x0 DUP4 ADD MLOAD PUSH2 0x1288 PUSH1 0x0 DUP7 ADD DUP3 PUSH2 0x12F9 JUMP JUMPDEST POP PUSH1 0x20 DUP4 ADD MLOAD PUSH2 0x129B PUSH1 0x20 DUP7 ADD DUP3 PUSH2 0x114B JUMP JUMPDEST POP PUSH1 0x40 DUP4 ADD MLOAD PUSH2 0x12AE PUSH1 0x40 DUP7 ADD DUP3 PUSH2 0x12F9 JUMP JUMPDEST POP PUSH1 0x60 DUP4 ADD MLOAD DUP5 DUP3 SUB PUSH1 0x60 DUP7 ADD MSTORE PUSH2 0x12C6 DUP3 DUP3 PUSH2 0x1187 JUMP JUMPDEST SWAP2 POP POP PUSH1 0x80 DUP4 ADD MLOAD PUSH2 0x12DB PUSH1 0x80 DUP7 ADD DUP3 PUSH2 0x12F9 JUMP JUMPDEST POP PUSH1 0xA0 DUP4 ADD MLOAD PUSH2 0x12EE PUSH1 0xA0 DUP7 ADD DUP3 PUSH2 0x1169 JUMP JUMPDEST POP DUP1 SWAP2 POP POP SWAP3 SWAP2 POP POP JUMP JUMPDEST PUSH2 0x1302 DUP2 PUSH2 0x14BC JUMP JUMPDEST DUP3 MSTORE POP POP JUMP JUMPDEST PUSH2 0x1311 DUP2 PUSH2 0x14BC JUMP JUMPDEST DUP3 MSTORE POP POP JUMP JUMPDEST PUSH1 0x0 PUSH2 0x1323 DUP3 DUP5 PUSH2 0x11C0 JUMP JUMPDEST SWAP2 POP DUP2 SWAP1 POP SWAP3 SWAP2 POP POP JUMP JUMPDEST PUSH1 0x0 PUSH2 0x133A DUP3 DUP5 PUSH2 0x11F1 JUMP JUMPDEST SWAP2 POP DUP2 SWAP1 POP SWAP3 SWAP2 POP POP JUMP JUMPDEST PUSH1 0x0 PUSH1 0x20 DUP3 ADD SWAP1 POP PUSH2 0x135A PUSH1 0x0 DUP4 ADD DUP5 PUSH2 0x115A JUMP JUMPDEST SWAP3 SWAP2 POP POP JUMP JUMPDEST PUSH1 0x0 PUSH1 0x20 DUP3 ADD SWAP1 POP PUSH2 0x1375 PUSH1 0x0 DUP4 ADD DUP5 PUSH2 0x1178 JUMP JUMPDEST SWAP3 SWAP2 POP POP JUMP JUMPDEST PUSH1 0x0 PUSH1 0x20 DUP3 ADD SWAP1 POP DUP2 DUP2 SUB PUSH1 0x0 DUP4 ADD MSTORE PUSH2 0x1395 DUP2 DUP5 PUSH2 0x1270 JUMP JUMPDEST SWAP1 POP SWAP3 SWAP2 POP POP JUMP JUMPDEST PUSH1 0x0 PUSH1 0x20 DUP3 ADD SWAP1 POP PUSH2 0x13B2 PUSH1 0x0 DUP4 ADD DUP5 PUSH2 0x1308 JUMP JUMPDEST SWAP3 SWAP2 POP POP JUMP JUMPDEST PUSH1 0x0 PUSH2 0x13C2 PUSH2 0x13D3 JUMP JUMPDEST SWAP1 POP PUSH2 0x13CE DUP3 DUP3 PUSH2 0x1564 JUMP JUMPDEST SWAP2 SWAP1 POP JUMP JUMPDEST PUSH1 0x0 PUSH1 0x40 MLOAD SWAP1 POP SWAP1 JUMP JUMPDEST PUSH1 0x0 PUSH8 0xFFFFFFFFFFFFFFFF DUP3 GT ISZERO PUSH2 0x13F8 JUMPI PUSH2 0x13F7 PUSH2 0x163C JUMP JUMPDEST JUMPDEST PUSH2 0x1401 DUP3 PUSH2 0x167F JUMP JUMPDEST SWAP1 POP PUSH1 0x20 DUP2 ADD SWAP1 POP SWAP2 SWAP1 POP JUMP JUMPDEST PUSH1 0x0 DUP2 SWAP1 POP DUP2 PUSH1 0x0 MSTORE PUSH1 0x20 PUSH1 0x0 KECCAK256 SWAP1 POP SWAP2 SWAP1 POP JUMP JUMPDEST PUSH1 0x0 DUP2 MLOAD SWAP1 POP SWAP2 SWAP1 POP JUMP JUMPDEST PUSH1 0x0 DUP3 DUP3 MSTORE PUSH1 0x20 DUP3 ADD SWAP1 POP SWAP3 SWAP2 POP POP JUMP JUMPDEST PUSH1 0x0 DUP2 SWAP1 POP SWAP3 SWAP2 POP POP JUMP JUMPDEST PUSH1 0x0 PUSH2 0x1455 DUP3 PUSH2 0x14BC JUMP JUMPDEST SWAP2 POP PUSH2 0x1460 DUP4 PUSH2 0x14BC JUMP JUMPDEST SWAP3 POP DUP3 DUP3 LT ISZERO PUSH2 0x1473 JUMPI PUSH2 0x1472 PUSH2 0x15DE JUMP JUMPDEST JUMPDEST DUP3 DUP3 SUB SWAP1 POP SWAP3 SWAP2 POP POP JUMP JUMPDEST PUSH1 0x0 PUSH2 0x1489 DUP3 PUSH2 0x149C JUMP JUMPDEST SWAP1 POP SWAP2 SWAP1 POP JUMP JUMPDEST PUSH1 0x0 DUP2 ISZERO ISZERO SWAP1 POP SWAP2 SWAP1 POP JUMP JUMPDEST PUSH1 0x0 PUSH20 0xFFFFFFFFFFFFFFFFFFFFFFFFFFFFFFFFFFFFFFFF DUP3 AND SWAP1 POP SWAP2 SWAP1 POP JUMP JUMPDEST PUSH1 0x0 DUP2 SWAP1 POP SWAP2 SWAP1 POP JUMP JUMPDEST DUP3 DUP2 DUP4 CALLDATACOPY PUSH1 0x0 DUP4 DUP4 ADD MSTORE POP POP POP JUMP JUMPDEST PUSH1 0x0 JUMPDEST DUP4 DUP2 LT ISZERO PUSH2 0x14F3 JUMPI DUP1 DUP3 ADD MLOAD DUP2 DUP5 ADD MSTORE PUSH1 0x20 DUP2 ADD SWAP1 POP PUSH2 0x14D8 JUMP JUMPDEST DUP4 DUP2 GT ISZERO PUSH2 0x1502 JUMPI PUSH1 0x0 DUP5 DUP5 ADD MSTORE JUMPDEST POP POP POP POP JUMP JUMPDEST PUSH1 0x0 PUSH2 0x1513 DUP3 PUSH2 0x14BC JUMP JUMPDEST SWAP2 POP PUSH1 0x0 DUP3 EQ ISZERO PUSH2 0x1527 JUMPI PUSH2 0x1526 PUSH2 0x15DE JUMP JUMPDEST JUMPDEST PUSH1 0x1 DUP3 SUB SWAP1 POP SWAP2 SWAP1 POP JUMP JUMPDEST PUSH1 0x0 PUSH1 0x2 DUP3 DIV SWAP1 POP PUSH1 0x1 DUP3 AND DUP1 PUSH2 0x154A JUMPI PUSH1 0x7F DUP3 AND SWAP2 POP JUMPDEST PUSH1 0x20 DUP3 LT DUP2 EQ ISZERO PUSH2 0x155E JUMPI PUSH2 0x155D PUSH2 0x160D JUMP JUMPDEST JUMPDEST POP SWAP2 SWAP1 POP JUMP JUMPDEST PUSH2 0x156D DUP3 PUSH2 0x167F JUMP JUMPDEST DUP2 ADD DUP2 DUP2 LT PUSH8 0xFFFFFFFFFFFFFFFF DUP3 GT OR ISZERO PUSH2 0x158C JUMPI PUSH2 0x158B PUSH2 0x163C JUMP JUMPDEST JUMPDEST DUP1 PUSH1 0x40 MSTORE POP POP POP JUMP JUMPDEST PUSH1 0x0 PUSH2 0x15A0 DUP3 PUSH2 0x14BC JUMP JUMPDEST SWAP2 POP PUSH32 0xFFFFFFFFFFFFFFFFFFFFFFFFFFFFFFFFFFFFFFFFFFFFFFFFFFFFFFFFFFFFFFFF DUP3 EQ ISZERO PUSH2 0x15D3 JUMPI PUSH2 0x15D2 PUSH2 0x15DE JUMP JUMPDEST JUMPDEST PUSH1 0x1 DUP3 ADD SWAP1 POP SWAP2 SWAP1 POP JUMP JUMPDEST PUSH32 0x4E487B7100000000000000000000000000000000000000000000000000000000 PUSH1 0x0 MSTORE PUSH1 0x11 PUSH1 0x4 MSTORE PUSH1 0x24 PUSH1 0x0 REVERT JUMPDEST PUSH32 0x4E487B7100000000000000000000000000000000000000000000000000000000 PUSH1 0x0 MSTORE PUSH1 0x22 PUSH1 0x4 MSTORE PUSH1 0x24 PUSH1 0x0 REVERT JUMPDEST PUSH32 0x4E487B7100000000000000000000000000000000000000000000000000000000 PUSH1 0x0 MSTORE PUSH1 0x41 PUSH1 0x4 MSTORE PUSH1 0x24 PUSH1 0x0 REVERT JUMPDEST PUSH1 0x0 DUP1 REVERT JUMPDEST PUSH1 0x0 DUP1 REVERT JUMPDEST PUSH1 0x0 DUP1 REVERT JUMPDEST PUSH1 0x0 DUP1 REVERT JUMPDEST PUSH1 0x0 PUSH1 0x1F NOT PUSH1 0x1F DUP4 ADD AND SWAP1 POP SWAP2 SWAP1 POP JUMP JUMPDEST PUSH2 0x1699 DUP2 PUSH2 0x147E JUMP JUMPDEST DUP2 EQ PUSH2 0x16A4 JUMPI PUSH1 0x0 DUP1 REVERT JUMPDEST POP JUMP JUMPDEST PUSH2 0x16B0 DUP2 PUSH2 0x14BC JUMP JUMPDEST DUP2 EQ PUSH2 0x16BB JUMPI PUSH1 0x0 DUP1 REVERT JUMPDEST POP JUMP INVALID LOG2 PUSH5 0x6970667358 0x22 SLT KECCAK256 ISZERO PUSH5 0x2A9406F5B1 BLOCKHASH 0xDD PUSH21 0x834F066DBD085BA4E65C3CE4E2C90AE2D40FAB7F3D MULMOD PUSH5 0x736F6C6343 STOP ADDMOD SMOD STOP CALLER "
				},
				"gasEstimates": {
					"creation": {
						"codeDepositCost": "1175200",
						"executionCost": "infinite",
						"totalCost": "infinite"
					},
					"external": {
						"approveTx(uint256)": "infinite",
						"checkApproved(uint256,address)": "3201",
						"checkOwner(address)": "2971",
						"executeTx(uint256)": "infinite",
						"getTransaction(uint256)": "infinite",
						"required()": "2495",
						"revokeApproval(uint256)": "infinite",
						"submitTx(address,uint256,bytes)": "infinite",
						"txId()": "2473"
					}
				},
				"methodIdentifiers": {
					"approveTx(uint256)": "1087393a",
					"checkApproved(uint256,address)": "8f9487eb",
					"checkOwner(address)": "e0e3671c",
					"executeTx(uint256)": "54b5fe80",
					"getTransaction(uint256)": "33ea3dc8",
					"required()": "dc8452cd",
					"revokeApproval(uint256)": "b1e130fc",
					"submitTx(address,uint256,bytes)": "bb84c5a9",
					"txId()": "cd568d1f"
				}
			},
			"storageLayout": {
				"storage": [
					{
						"astId": 43,
						"contract": "contracts/DeFi/MultiSigV2.sol:MultiSigWallet",
						"label": "isOwner",
						"offset": 0,
						"slot": "0",
						"type": "t_mapping(t_address,t_bool)"
					},
					{
						"astId": 61,
						"contract": "contracts/DeFi/MultiSigV2.sol:MultiSigWallet",
						"label": "transactions",
						"offset": 0,
						"slot": "1",
						"type": "t_mapping(t_uint256,t_struct(Transaction)56_storage)"
					},
					{
						"astId": 67,
						"contract": "contracts/DeFi/MultiSigV2.sol:MultiSigWallet",
						"label": "approved",
						"offset": 0,
						"slot": "2",
						"type": "t_mapping(t_uint256,t_mapping(t_address,t_bool))"
					},
					{
						"astId": 69,
						"contract": "contracts/DeFi/MultiSigV2.sol:MultiSigWallet",
						"label": "required",
						"offset": 0,
						"slot": "3",
						"type": "t_uint256"
					},
					{
						"astId": 71,
						"contract": "contracts/DeFi/MultiSigV2.sol:MultiSigWallet",
						"label": "txId",
						"offset": 0,
						"slot": "4",
						"type": "t_uint256"
					}
				],
				"types": {
					"t_address": {
						"encoding": "inplace",
						"label": "address",
						"numberOfBytes": "20"
					},
					"t_bool": {
						"encoding": "inplace",
						"label": "bool",
						"numberOfBytes": "1"
					},
					"t_bytes_storage": {
						"encoding": "bytes",
						"label": "bytes",
						"numberOfBytes": "32"
					},
					"t_mapping(t_address,t_bool)": {
						"encoding": "mapping",
						"key": "t_address",
						"label": "mapping(address => bool)",
						"numberOfBytes": "32",
						"value": "t_bool"
					},
					"t_mapping(t_uint256,t_mapping(t_address,t_bool))": {
						"encoding": "mapping",
						"key": "t_uint256",
						"label": "mapping(uint256 => mapping(address => bool))",
						"numberOfBytes": "32",
						"value": "t_mapping(t_address,t_bool)"
					},
					"t_mapping(t_uint256,t_struct(Transaction)56_storage)": {
						"encoding": "mapping",
						"key": "t_uint256",
						"label": "mapping(uint256 => struct MultiSigWallet.Transaction)",
						"numberOfBytes": "32",
						"value": "t_struct(Transaction)56_storage"
					},
					"t_struct(Transaction)56_storage": {
						"encoding": "inplace",
						"label": "struct MultiSigWallet.Transaction",
						"members": [
							{
								"astId": 45,
								"contract": "contracts/DeFi/MultiSigV2.sol:MultiSigWallet",
								"label": "id",
								"offset": 0,
								"slot": "0",
								"type": "t_uint256"
							},
							{
								"astId": 47,
								"contract": "contracts/DeFi/MultiSigV2.sol:MultiSigWallet",
								"label": "to",
								"offset": 0,
								"slot": "1",
								"type": "t_address"
							},
							{
								"astId": 49,
								"contract": "contracts/DeFi/MultiSigV2.sol:MultiSigWallet",
								"label": "value",
								"offset": 0,
								"slot": "2",
								"type": "t_uint256"
							},
							{
								"astId": 51,
								"contract": "contracts/DeFi/MultiSigV2.sol:MultiSigWallet",
								"label": "data",
								"offset": 0,
								"slot": "3",
								"type": "t_bytes_storage"
							},
							{
								"astId": 53,
								"contract": "contracts/DeFi/MultiSigV2.sol:MultiSigWallet",
								"label": "confirmations",
								"offset": 0,
								"slot": "4",
								"type": "t_uint256"
							},
							{
								"astId": 55,
								"contract": "contracts/DeFi/MultiSigV2.sol:MultiSigWallet",
								"label": "executed",
								"offset": 0,
								"slot": "5",
								"type": "t_bool"
							}
						],
						"numberOfBytes": "192"
					},
					"t_uint256": {
						"encoding": "inplace",
						"label": "uint256",
						"numberOfBytes": "32"
					}
				}
			},
			"userdoc": {
				"kind": "user",
				"methods": {},
				"version": 1
			}
		}
	}
}