{
	"contracts/DeFi/MultiSigV3.sol": {
		"MultiSigWallet": {
			"abi": [
				{
					"inputs": [
						{
							"internalType": "address[2]",
							"name": "_owners",
							"type": "address[2]"
						}
					],
					"stateMutability": "payable",
					"type": "constructor"
				},
				{
					"inputs": [],
					"name": "deposit",
					"outputs": [],
					"stateMutability": "payable",
					"type": "function"
				},
				{
					"inputs": [
						{
							"internalType": "bytes32",
							"name": "",
							"type": "bytes32"
						}
					],
					"name": "executed",
					"outputs": [
						{
							"internalType": "bool",
							"name": "",
							"type": "bool"
						}
					],
					"stateMutability": "view",
					"type": "function"
				},
				{
					"inputs": [
						{
							"internalType": "address",
							"name": "to",
							"type": "address"
						},
						{
							"internalType": "uint256",
							"name": "amount",
							"type": "uint256"
						}
					],
					"name": "getTxHash",
					"outputs": [
						{
							"internalType": "bytes32",
							"name": "",
							"type": "bytes32"
						}
					],
					"stateMutability": "view",
					"type": "function"
				},
				{
					"inputs": [
						{
							"internalType": "uint256",
							"name": "",
							"type": "uint256"
						}
					],
					"name": "owners",
					"outputs": [
						{
							"internalType": "address",
							"name": "",
							"type": "address"
						}
					],
					"stateMutability": "view",
					"type": "function"
				},
				{
					"inputs": [
						{
							"internalType": "address",
							"name": "_to",
							"type": "address"
						},
						{
							"internalType": "uint256",
							"name": "_amount",
							"type": "uint256"
						},
						{
							"internalType": "bytes[2]",
							"name": "_sigs",
							"type": "bytes[2]"
						}
					],
					"name": "transfer",
					"outputs": [],
					"stateMutability": "nonpayable",
					"type": "function"
				},
				{
					"stateMutability": "payable",
					"type": "receive"
				}
			],
			"devdoc": {
				"kind": "dev",
				"methods": {},
				"version": 1
			},
			"evm": {
				"assembly": "    /* \"contracts/DeFi/MultiSigV3.sol\":207:691  contract MultiSigWallet {... */\n  mstore(0x40, 0x80)\n    /* \"contracts/DeFi/MultiSigV3.sol\":344:424  constructor(address[2] memory _owners) payable {... */\n  mload(0x40)\n  sub(codesize, bytecodeSize)\n  dup1\n  bytecodeSize\n  dup4\n  codecopy\n  dup2\n  dup2\n  add\n  0x40\n  mstore\n  dup2\n  add\n  swap1\n  tag_1\n  swap2\n  swap1\n  tag_2\n  jump\t// in\ntag_1:\n    /* \"contracts/DeFi/MultiSigV3.sol\":410:417  _owners */\n  dup1\n    /* \"contracts/DeFi/MultiSigV3.sol\":401:407  owners */\n  0x00\n    /* \"contracts/DeFi/MultiSigV3.sol\":401:417  owners = _owners */\n  swap1\n  0x02\n  tag_5\n  swap3\n  swap2\n  swap1\n  tag_6\n  jump\t// in\ntag_5:\n  pop\n    /* \"contracts/DeFi/MultiSigV3.sol\":344:424  constructor(address[2] memory _owners) payable {... */\n  pop\n    /* \"contracts/DeFi/MultiSigV3.sol\":207:691  contract MultiSigWallet {... */\n  jump(tag_7)\ntag_6:\n  dup3\n  0x02\n  dup2\n  add\n  swap3\n  dup3\n  iszero\n  tag_8\n  jumpi\n  swap2\n  0x20\n  mul\n  dup3\n  add\ntag_9:\n  dup3\n  dup2\n  gt\n  iszero\n  tag_10\n  jumpi\n  dup3\n  mload\n  dup3\n  exp(0x0100, 0x00)\n  dup2\n  sload\n  dup2\n  0xffffffffffffffffffffffffffffffffffffffff\n  mul\n  not\n  and\n  swap1\n  dup4\n  0xffffffffffffffffffffffffffffffffffffffff\n  and\n  mul\n  or\n  swap1\n  sstore\n  pop\n  swap2\n  0x20\n  add\n  swap2\n  swap1\n  0x01\n  add\n  swap1\n  jump(tag_9)\ntag_10:\ntag_8:\n  pop\n  swap1\n  pop\n  tag_11\n  swap2\n  swap1\n  tag_12\n  jump\t// in\ntag_11:\n  pop\n  swap1\n  jump\t// out\ntag_12:\ntag_13:\n  dup1\n  dup3\n  gt\n  iszero\n  tag_14\n  jumpi\n  0x00\n  dup2\n  0x00\n  swap1\n  sstore\n  pop\n  0x01\n  add\n  jump(tag_13)\ntag_14:\n  pop\n  swap1\n  jump\t// out\n    /* \"#utility.yul\":7:82   */\ntag_15:\n    /* \"#utility.yul\":40:46   */\n  0x00\n    /* \"#utility.yul\":73:75   */\n  0x40\n    /* \"#utility.yul\":67:76   */\n  mload\n    /* \"#utility.yul\":57:76   */\n  swap1\n  pop\n    /* \"#utility.yul\":7:82   */\n  swap1\n  jump\t// out\n    /* \"#utility.yul\":88:205   */\ntag_16:\n    /* \"#utility.yul\":197:198   */\n  0x00\n    /* \"#utility.yul\":194:195   */\n  dup1\n    /* \"#utility.yul\":187:199   */\n  revert\n    /* \"#utility.yul\":334:451   */\ntag_18:\n    /* \"#utility.yul\":443:444   */\n  0x00\n    /* \"#utility.yul\":440:441   */\n  dup1\n    /* \"#utility.yul\":433:445   */\n  revert\n    /* \"#utility.yul\":457:559   */\ntag_19:\n    /* \"#utility.yul\":498:504   */\n  0x00\n    /* \"#utility.yul\":549:551   */\n  0x1f\n    /* \"#utility.yul\":545:552   */\n  not\n    /* \"#utility.yul\":540:542   */\n  0x1f\n    /* \"#utility.yul\":533:538   */\n  dup4\n    /* \"#utility.yul\":529:543   */\n  add\n    /* \"#utility.yul\":525:553   */\n  and\n    /* \"#utility.yul\":515:553   */\n  swap1\n  pop\n    /* \"#utility.yul\":457:559   */\n  swap2\n  swap1\n  pop\n  jump\t// out\n    /* \"#utility.yul\":565:745   */\ntag_20:\n    /* \"#utility.yul\":613:690   */\n  0x4e487b7100000000000000000000000000000000000000000000000000000000\n    /* \"#utility.yul\":610:611   */\n  0x00\n    /* \"#utility.yul\":603:691   */\n  mstore\n    /* \"#utility.yul\":710:714   */\n  0x41\n    /* \"#utility.yul\":707:708   */\n  0x04\n    /* \"#utility.yul\":700:715   */\n  mstore\n    /* \"#utility.yul\":734:738   */\n  0x24\n    /* \"#utility.yul\":731:732   */\n  0x00\n    /* \"#utility.yul\":724:739   */\n  revert\n    /* \"#utility.yul\":751:1032   */\ntag_21:\n    /* \"#utility.yul\":834:861   */\n  tag_39\n    /* \"#utility.yul\":856:860   */\n  dup3\n    /* \"#utility.yul\":834:861   */\n  tag_19\n  jump\t// in\ntag_39:\n    /* \"#utility.yul\":826:832   */\n  dup2\n    /* \"#utility.yul\":822:862   */\n  add\n    /* \"#utility.yul\":964:970   */\n  dup2\n    /* \"#utility.yul\":952:962   */\n  dup2\n    /* \"#utility.yul\":949:971   */\n  lt\n    /* \"#utility.yul\":928:946   */\n  0xffffffffffffffff\n    /* \"#utility.yul\":916:926   */\n  dup3\n    /* \"#utility.yul\":913:947   */\n  gt\n    /* \"#utility.yul\":910:972   */\n  or\n    /* \"#utility.yul\":907:995   */\n  iszero\n  tag_40\n  jumpi\n    /* \"#utility.yul\":975:993   */\n  tag_41\n  tag_20\n  jump\t// in\ntag_41:\n    /* \"#utility.yul\":907:995   */\ntag_40:\n    /* \"#utility.yul\":1015:1025   */\n  dup1\n    /* \"#utility.yul\":1011:1013   */\n  0x40\n    /* \"#utility.yul\":1004:1026   */\n  mstore\n    /* \"#utility.yul\":794:1032   */\n  pop\n    /* \"#utility.yul\":751:1032   */\n  pop\n  pop\n  jump\t// out\n    /* \"#utility.yul\":1038:1167   */\ntag_22:\n    /* \"#utility.yul\":1072:1078   */\n  0x00\n    /* \"#utility.yul\":1099:1119   */\n  tag_43\n  tag_15\n  jump\t// in\ntag_43:\n    /* \"#utility.yul\":1089:1119   */\n  swap1\n  pop\n    /* \"#utility.yul\":1128:1161   */\n  tag_44\n    /* \"#utility.yul\":1156:1160   */\n  dup3\n    /* \"#utility.yul\":1148:1154   */\n  dup3\n    /* \"#utility.yul\":1128:1161   */\n  tag_21\n  jump\t// in\ntag_44:\n    /* \"#utility.yul\":1038:1167   */\n  swap2\n  swap1\n  pop\n  jump\t// out\n    /* \"#utility.yul\":1173:1422   */\ntag_23:\n    /* \"#utility.yul\":1248:1252   */\n  0x00\n    /* \"#utility.yul\":1338:1356   */\n  0xffffffffffffffff\n    /* \"#utility.yul\":1330:1336   */\n  dup3\n    /* \"#utility.yul\":1327:1357   */\n  gt\n    /* \"#utility.yul\":1324:1380   */\n  iszero\n  tag_46\n  jumpi\n    /* \"#utility.yul\":1360:1378   */\n  tag_47\n  tag_20\n  jump\t// in\ntag_47:\n    /* \"#utility.yul\":1324:1380   */\ntag_46:\n    /* \"#utility.yul\":1410:1414   */\n  0x20\n    /* \"#utility.yul\":1402:1408   */\n  dup3\n    /* \"#utility.yul\":1398:1415   */\n  mul\n    /* \"#utility.yul\":1390:1415   */\n  swap1\n  pop\n    /* \"#utility.yul\":1173:1422   */\n  swap2\n  swap1\n  pop\n  jump\t// out\n    /* \"#utility.yul\":1428:1545   */\ntag_24:\n    /* \"#utility.yul\":1537:1538   */\n  0x00\n    /* \"#utility.yul\":1534:1535   */\n  dup1\n    /* \"#utility.yul\":1527:1539   */\n  revert\n    /* \"#utility.yul\":1551:1677   */\ntag_25:\n    /* \"#utility.yul\":1588:1595   */\n  0x00\n    /* \"#utility.yul\":1628:1670   */\n  0xffffffffffffffffffffffffffffffffffffffff\n    /* \"#utility.yul\":1621:1626   */\n  dup3\n    /* \"#utility.yul\":1617:1671   */\n  and\n    /* \"#utility.yul\":1606:1671   */\n  swap1\n  pop\n    /* \"#utility.yul\":1551:1677   */\n  swap2\n  swap1\n  pop\n  jump\t// out\n    /* \"#utility.yul\":1683:1779   */\ntag_26:\n    /* \"#utility.yul\":1720:1727   */\n  0x00\n    /* \"#utility.yul\":1749:1773   */\n  tag_51\n    /* \"#utility.yul\":1767:1772   */\n  dup3\n    /* \"#utility.yul\":1749:1773   */\n  tag_25\n  jump\t// in\ntag_51:\n    /* \"#utility.yul\":1738:1773   */\n  swap1\n  pop\n    /* \"#utility.yul\":1683:1779   */\n  swap2\n  swap1\n  pop\n  jump\t// out\n    /* \"#utility.yul\":1785:1907   */\ntag_27:\n    /* \"#utility.yul\":1858:1882   */\n  tag_53\n    /* \"#utility.yul\":1876:1881   */\n  dup2\n    /* \"#utility.yul\":1858:1882   */\n  tag_26\n  jump\t// in\ntag_53:\n    /* \"#utility.yul\":1851:1856   */\n  dup2\n    /* \"#utility.yul\":1848:1883   */\n  eq\n    /* \"#utility.yul\":1838:1901   */\n  tag_54\n  jumpi\n    /* \"#utility.yul\":1897:1898   */\n  0x00\n    /* \"#utility.yul\":1894:1895   */\n  dup1\n    /* \"#utility.yul\":1887:1899   */\n  revert\n    /* \"#utility.yul\":1838:1901   */\ntag_54:\n    /* \"#utility.yul\":1785:1907   */\n  pop\n  jump\t// out\n    /* \"#utility.yul\":1913:2056   */\ntag_28:\n    /* \"#utility.yul\":1970:1975   */\n  0x00\n    /* \"#utility.yul\":2001:2007   */\n  dup2\n    /* \"#utility.yul\":1995:2008   */\n  mload\n    /* \"#utility.yul\":1986:2008   */\n  swap1\n  pop\n    /* \"#utility.yul\":2017:2050   */\n  tag_56\n    /* \"#utility.yul\":2044:2049   */\n  dup2\n    /* \"#utility.yul\":2017:2050   */\n  tag_27\n  jump\t// in\ntag_56:\n    /* \"#utility.yul\":1913:2056   */\n  swap3\n  swap2\n  pop\n  pop\n  jump\t// out\n    /* \"#utility.yul\":2080:2745   */\ntag_29:\n    /* \"#utility.yul\":2185:2190   */\n  0x00\n    /* \"#utility.yul\":2210:2289   */\n  tag_58\n    /* \"#utility.yul\":2226:2288   */\n  tag_59\n    /* \"#utility.yul\":2281:2287   */\n  dup5\n    /* \"#utility.yul\":2226:2288   */\n  tag_23\n  jump\t// in\ntag_59:\n    /* \"#utility.yul\":2210:2289   */\n  tag_22\n  jump\t// in\ntag_58:\n    /* \"#utility.yul\":2201:2289   */\n  swap1\n  pop\n    /* \"#utility.yul\":2309:2314   */\n  dup1\n    /* \"#utility.yul\":2362:2366   */\n  0x20\n    /* \"#utility.yul\":2354:2360   */\n  dup5\n    /* \"#utility.yul\":2350:2367   */\n  mul\n    /* \"#utility.yul\":2342:2348   */\n  dup4\n    /* \"#utility.yul\":2338:2368   */\n  add\n    /* \"#utility.yul\":2391:2394   */\n  dup6\n    /* \"#utility.yul\":2383:2389   */\n  dup2\n    /* \"#utility.yul\":2380:2395   */\n  gt\n    /* \"#utility.yul\":2377:2499   */\n  iszero\n  tag_60\n  jumpi\n    /* \"#utility.yul\":2410:2489   */\n  tag_61\n  tag_24\n  jump\t// in\ntag_61:\n    /* \"#utility.yul\":2377:2499   */\ntag_60:\n    /* \"#utility.yul\":2525:2531   */\n  dup4\n    /* \"#utility.yul\":2508:2739   */\ntag_62:\n    /* \"#utility.yul\":2542:2548   */\n  dup2\n    /* \"#utility.yul\":2537:2540   */\n  dup2\n    /* \"#utility.yul\":2534:2549   */\n  lt\n    /* \"#utility.yul\":2508:2739   */\n  iszero\n  tag_64\n  jumpi\n    /* \"#utility.yul\":2617:2620   */\n  dup1\n    /* \"#utility.yul\":2646:2694   */\n  tag_65\n    /* \"#utility.yul\":2690:2693   */\n  dup9\n    /* \"#utility.yul\":2678:2688   */\n  dup3\n    /* \"#utility.yul\":2646:2694   */\n  tag_28\n  jump\t// in\ntag_65:\n    /* \"#utility.yul\":2641:2644   */\n  dup5\n    /* \"#utility.yul\":2634:2695   */\n  mstore\n    /* \"#utility.yul\":2724:2728   */\n  0x20\n    /* \"#utility.yul\":2719:2722   */\n  dup5\n    /* \"#utility.yul\":2715:2729   */\n  add\n    /* \"#utility.yul\":2708:2729   */\n  swap4\n  pop\n    /* \"#utility.yul\":2584:2739   */\n  pop\n    /* \"#utility.yul\":2568:2572   */\n  0x20\n    /* \"#utility.yul\":2563:2566   */\n  dup2\n    /* \"#utility.yul\":2559:2573   */\n  add\n    /* \"#utility.yul\":2552:2573   */\n  swap1\n  pop\n    /* \"#utility.yul\":2508:2739   */\n  jump(tag_62)\ntag_64:\n    /* \"#utility.yul\":2512:2533   */\n  pop\n    /* \"#utility.yul\":2191:2745   */\n  pop\n  pop\n    /* \"#utility.yul\":2080:2745   */\n  swap4\n  swap3\n  pop\n  pop\n  pop\n  jump\t// out\n    /* \"#utility.yul\":2769:3130   */\ntag_30:\n    /* \"#utility.yul\":2849:2854   */\n  0x00\n    /* \"#utility.yul\":2898:2901   */\n  dup3\n    /* \"#utility.yul\":2891:2895   */\n  0x1f\n    /* \"#utility.yul\":2883:2889   */\n  dup4\n    /* \"#utility.yul\":2879:2896   */\n  add\n    /* \"#utility.yul\":2875:2902   */\n  slt\n    /* \"#utility.yul\":2865:2987   */\n  tag_67\n  jumpi\n    /* \"#utility.yul\":2906:2985   */\n  tag_68\n  tag_18\n  jump\t// in\ntag_68:\n    /* \"#utility.yul\":2865:2987   */\ntag_67:\n    /* \"#utility.yul\":3010:3014   */\n  0x02\n    /* \"#utility.yul\":3032:3124   */\n  tag_69\n    /* \"#utility.yul\":3120:3123   */\n  dup5\n    /* \"#utility.yul\":3112:3118   */\n  dup3\n    /* \"#utility.yul\":3104:3110   */\n  dup6\n    /* \"#utility.yul\":3032:3124   */\n  tag_29\n  jump\t// in\ntag_69:\n    /* \"#utility.yul\":3023:3124   */\n  swap2\n  pop\n    /* \"#utility.yul\":2855:3130   */\n  pop\n    /* \"#utility.yul\":2769:3130   */\n  swap3\n  swap2\n  pop\n  pop\n  jump\t// out\n    /* \"#utility.yul\":3136:3533   */\ntag_2:\n    /* \"#utility.yul\":3229:3235   */\n  0x00\n    /* \"#utility.yul\":3278:3280   */\n  0x40\n    /* \"#utility.yul\":3266:3275   */\n  dup3\n    /* \"#utility.yul\":3257:3264   */\n  dup5\n    /* \"#utility.yul\":3253:3276   */\n  sub\n    /* \"#utility.yul\":3249:3281   */\n  slt\n    /* \"#utility.yul\":3246:3365   */\n  iszero\n  tag_71\n  jumpi\n    /* \"#utility.yul\":3284:3363   */\n  tag_72\n  tag_16\n  jump\t// in\ntag_72:\n    /* \"#utility.yul\":3246:3365   */\ntag_71:\n    /* \"#utility.yul\":3404:3405   */\n  0x00\n    /* \"#utility.yul\":3429:3516   */\n  tag_73\n    /* \"#utility.yul\":3508:3515   */\n  dup5\n    /* \"#utility.yul\":3499:3505   */\n  dup3\n    /* \"#utility.yul\":3488:3497   */\n  dup6\n    /* \"#utility.yul\":3484:3506   */\n  add\n    /* \"#utility.yul\":3429:3516   */\n  tag_30\n  jump\t// in\ntag_73:\n    /* \"#utility.yul\":3419:3516   */\n  swap2\n  pop\n    /* \"#utility.yul\":3375:3526   */\n  pop\n    /* \"#utility.yul\":3136:3533   */\n  swap3\n  swap2\n  pop\n  pop\n  jump\t// out\n    /* \"contracts/DeFi/MultiSigV3.sol\":207:691  contract MultiSigWallet {... */\ntag_7:\n  dataSize(sub_0)\n  dup1\n  dataOffset(sub_0)\n  0x00\n  codecopy\n  0x00\n  return\nstop\n\nsub_0: assembly {\n        /* \"contracts/DeFi/MultiSigV3.sol\":207:691  contract MultiSigWallet {... */\n      mstore(0x40, 0x80)\n      jumpi(tag_1, lt(calldatasize, 0x04))\n      shr(0xe0, calldataload(0x00))\n      dup1\n      0x025e7c27\n      eq\n      tag_3\n      jumpi\n      dup1\n      0x9a4b740b\n      eq\n      tag_4\n      jumpi\n      dup1\n      0xa9fcfb33\n      eq\n      tag_5\n      jumpi\n      dup1\n      0xd0e30db0\n      eq\n      tag_6\n      jumpi\n      dup1\n      0xffb485b8\n      eq\n      tag_7\n      jumpi\n      jump(tag_2)\n    tag_1:\n      jumpi(tag_2, calldatasize)\n      stop\n    tag_2:\n      0x00\n      dup1\n      revert\n        /* \"contracts/DeFi/MultiSigV3.sol\":267:291  address[2] public owners */\n    tag_3:\n      callvalue\n      dup1\n      iszero\n      tag_10\n      jumpi\n      0x00\n      dup1\n      revert\n    tag_10:\n      pop\n      tag_11\n      0x04\n      dup1\n      calldatasize\n      sub\n      dup2\n      add\n      swap1\n      tag_12\n      swap2\n      swap1\n      tag_13\n      jump\t// in\n    tag_12:\n      tag_14\n      jump\t// in\n    tag_11:\n      mload(0x40)\n      tag_15\n      swap2\n      swap1\n      tag_16\n      jump\t// in\n    tag_15:\n      mload(0x40)\n      dup1\n      swap2\n      sub\n      swap1\n      return\n        /* \"contracts/DeFi/MultiSigV3.sol\":600:682  function getTxHash(address to, uint amount) public view returns (bytes32) {... */\n    tag_4:\n      callvalue\n      dup1\n      iszero\n      tag_17\n      jumpi\n      0x00\n      dup1\n      revert\n    tag_17:\n      pop\n      tag_18\n      0x04\n      dup1\n      calldatasize\n      sub\n      dup2\n      add\n      swap1\n      tag_19\n      swap2\n      swap1\n      tag_20\n      jump\t// in\n    tag_19:\n      tag_21\n      jump\t// in\n    tag_18:\n      mload(0x40)\n      tag_22\n      swap2\n      swap1\n      tag_23\n      jump\t// in\n    tag_22:\n      mload(0x40)\n      dup1\n      swap2\n      sub\n      swap1\n      return\n        /* \"contracts/DeFi/MultiSigV3.sol\":297:337  mapping(bytes32 => bool) public executed */\n    tag_5:\n      callvalue\n      dup1\n      iszero\n      tag_24\n      jumpi\n      0x00\n      dup1\n      revert\n    tag_24:\n      pop\n      tag_25\n      0x04\n      dup1\n      calldatasize\n      sub\n      dup2\n      add\n      swap1\n      tag_26\n      swap2\n      swap1\n      tag_27\n      jump\t// in\n    tag_26:\n      tag_28\n      jump\t// in\n    tag_25:\n      mload(0x40)\n      tag_29\n      swap2\n      swap1\n      tag_30\n      jump\t// in\n    tag_29:\n      mload(0x40)\n      dup1\n      swap2\n      sub\n      swap1\n      return\n        /* \"contracts/DeFi/MultiSigV3.sol\":465:503  function deposit() external payable {} */\n    tag_6:\n      tag_31\n      tag_32\n      jump\t// in\n    tag_31:\n      stop\n        /* \"contracts/DeFi/MultiSigV3.sol\":509:594  function transfer(address _to, uint _amount, bytes[2] memory _sigs) external {... */\n    tag_7:\n      callvalue\n      dup1\n      iszero\n      tag_33\n      jumpi\n      0x00\n      dup1\n      revert\n    tag_33:\n      pop\n      tag_34\n      0x04\n      dup1\n      calldatasize\n      sub\n      dup2\n      add\n      swap1\n      tag_35\n      swap2\n      swap1\n      tag_36\n      jump\t// in\n    tag_35:\n      tag_37\n      jump\t// in\n    tag_34:\n      stop\n        /* \"contracts/DeFi/MultiSigV3.sol\":267:291  address[2] public owners */\n    tag_14:\n      0x00\n      dup2\n      0x02\n      dup2\n      lt\n      tag_38\n      jumpi\n      0x00\n      dup1\n      revert\n    tag_38:\n      add\n      0x00\n      swap2\n      pop\n      sload\n      swap1\n      0x0100\n      exp\n      swap1\n      div\n      0xffffffffffffffffffffffffffffffffffffffff\n      and\n      dup2\n      jump\t// out\n        /* \"contracts/DeFi/MultiSigV3.sol\":600:682  function getTxHash(address to, uint amount) public view returns (bytes32) {... */\n    tag_21:\n        /* \"contracts/DeFi/MultiSigV3.sol\":665:672  bytes32 */\n      0x00\n        /* \"contracts/DeFi/MultiSigV3.sol\":600:682  function getTxHash(address to, uint amount) public view returns (bytes32) {... */\n      swap3\n      swap2\n      pop\n      pop\n      jump\t// out\n        /* \"contracts/DeFi/MultiSigV3.sol\":297:337  mapping(bytes32 => bool) public executed */\n    tag_28:\n      mstore(0x20, 0x02)\n      dup1\n      0x00\n      mstore\n      keccak256(0x00, 0x40)\n      0x00\n      swap2\n      pop\n      sload\n      swap1\n      0x0100\n      exp\n      swap1\n      div\n      0xff\n      and\n      dup2\n      jump\t// out\n        /* \"contracts/DeFi/MultiSigV3.sol\":465:503  function deposit() external payable {} */\n    tag_32:\n      jump\t// out\n        /* \"contracts/DeFi/MultiSigV3.sol\":509:594  function transfer(address _to, uint _amount, bytes[2] memory _sigs) external {... */\n    tag_37:\n      pop\n      pop\n      pop\n      jump\t// out\n        /* \"#utility.yul\":7:82   */\n    tag_43:\n        /* \"#utility.yul\":40:46   */\n      0x00\n        /* \"#utility.yul\":73:75   */\n      0x40\n        /* \"#utility.yul\":67:76   */\n      mload\n        /* \"#utility.yul\":57:76   */\n      swap1\n      pop\n        /* \"#utility.yul\":7:82   */\n      swap1\n      jump\t// out\n        /* \"#utility.yul\":88:205   */\n    tag_44:\n        /* \"#utility.yul\":197:198   */\n      0x00\n        /* \"#utility.yul\":194:195   */\n      dup1\n        /* \"#utility.yul\":187:199   */\n      revert\n        /* \"#utility.yul\":211:328   */\n    tag_45:\n        /* \"#utility.yul\":320:321   */\n      0x00\n        /* \"#utility.yul\":317:318   */\n      dup1\n        /* \"#utility.yul\":310:322   */\n      revert\n        /* \"#utility.yul\":334:411   */\n    tag_46:\n        /* \"#utility.yul\":371:378   */\n      0x00\n        /* \"#utility.yul\":400:405   */\n      dup2\n        /* \"#utility.yul\":389:405   */\n      swap1\n      pop\n        /* \"#utility.yul\":334:411   */\n      swap2\n      swap1\n      pop\n      jump\t// out\n        /* \"#utility.yul\":417:539   */\n    tag_47:\n        /* \"#utility.yul\":490:514   */\n      tag_80\n        /* \"#utility.yul\":508:513   */\n      dup2\n        /* \"#utility.yul\":490:514   */\n      tag_46\n      jump\t// in\n    tag_80:\n        /* \"#utility.yul\":483:488   */\n      dup2\n        /* \"#utility.yul\":480:515   */\n      eq\n        /* \"#utility.yul\":470:533   */\n      tag_81\n      jumpi\n        /* \"#utility.yul\":529:530   */\n      0x00\n        /* \"#utility.yul\":526:527   */\n      dup1\n        /* \"#utility.yul\":519:531   */\n      revert\n        /* \"#utility.yul\":470:533   */\n    tag_81:\n        /* \"#utility.yul\":417:539   */\n      pop\n      jump\t// out\n        /* \"#utility.yul\":545:684   */\n    tag_48:\n        /* \"#utility.yul\":591:596   */\n      0x00\n        /* \"#utility.yul\":629:635   */\n      dup2\n        /* \"#utility.yul\":616:636   */\n      calldataload\n        /* \"#utility.yul\":607:636   */\n      swap1\n      pop\n        /* \"#utility.yul\":645:678   */\n      tag_83\n        /* \"#utility.yul\":672:677   */\n      dup2\n        /* \"#utility.yul\":645:678   */\n      tag_47\n      jump\t// in\n    tag_83:\n        /* \"#utility.yul\":545:684   */\n      swap3\n      swap2\n      pop\n      pop\n      jump\t// out\n        /* \"#utility.yul\":690:1019   */\n    tag_13:\n        /* \"#utility.yul\":749:755   */\n      0x00\n        /* \"#utility.yul\":798:800   */\n      0x20\n        /* \"#utility.yul\":786:795   */\n      dup3\n        /* \"#utility.yul\":777:784   */\n      dup5\n        /* \"#utility.yul\":773:796   */\n      sub\n        /* \"#utility.yul\":769:801   */\n      slt\n        /* \"#utility.yul\":766:885   */\n      iszero\n      tag_85\n      jumpi\n        /* \"#utility.yul\":804:883   */\n      tag_86\n      tag_44\n      jump\t// in\n    tag_86:\n        /* \"#utility.yul\":766:885   */\n    tag_85:\n        /* \"#utility.yul\":924:925   */\n      0x00\n        /* \"#utility.yul\":949:1002   */\n      tag_87\n        /* \"#utility.yul\":994:1001   */\n      dup5\n        /* \"#utility.yul\":985:991   */\n      dup3\n        /* \"#utility.yul\":974:983   */\n      dup6\n        /* \"#utility.yul\":970:992   */\n      add\n        /* \"#utility.yul\":949:1002   */\n      tag_48\n      jump\t// in\n    tag_87:\n        /* \"#utility.yul\":939:1002   */\n      swap2\n      pop\n        /* \"#utility.yul\":895:1012   */\n      pop\n        /* \"#utility.yul\":690:1019   */\n      swap3\n      swap2\n      pop\n      pop\n      jump\t// out\n        /* \"#utility.yul\":1025:1151   */\n    tag_49:\n        /* \"#utility.yul\":1062:1069   */\n      0x00\n        /* \"#utility.yul\":1102:1144   */\n      0xffffffffffffffffffffffffffffffffffffffff\n        /* \"#utility.yul\":1095:1100   */\n      dup3\n        /* \"#utility.yul\":1091:1145   */\n      and\n        /* \"#utility.yul\":1080:1145   */\n      swap1\n      pop\n        /* \"#utility.yul\":1025:1151   */\n      swap2\n      swap1\n      pop\n      jump\t// out\n        /* \"#utility.yul\":1157:1253   */\n    tag_50:\n        /* \"#utility.yul\":1194:1201   */\n      0x00\n        /* \"#utility.yul\":1223:1247   */\n      tag_90\n        /* \"#utility.yul\":1241:1246   */\n      dup3\n        /* \"#utility.yul\":1223:1247   */\n      tag_49\n      jump\t// in\n    tag_90:\n        /* \"#utility.yul\":1212:1247   */\n      swap1\n      pop\n        /* \"#utility.yul\":1157:1253   */\n      swap2\n      swap1\n      pop\n      jump\t// out\n        /* \"#utility.yul\":1259:1377   */\n    tag_51:\n        /* \"#utility.yul\":1346:1370   */\n      tag_92\n        /* \"#utility.yul\":1364:1369   */\n      dup2\n        /* \"#utility.yul\":1346:1370   */\n      tag_50\n      jump\t// in\n    tag_92:\n        /* \"#utility.yul\":1341:1344   */\n      dup3\n        /* \"#utility.yul\":1334:1371   */\n      mstore\n        /* \"#utility.yul\":1259:1377   */\n      pop\n      pop\n      jump\t// out\n        /* \"#utility.yul\":1383:1605   */\n    tag_16:\n        /* \"#utility.yul\":1476:1480   */\n      0x00\n        /* \"#utility.yul\":1514:1516   */\n      0x20\n        /* \"#utility.yul\":1503:1512   */\n      dup3\n        /* \"#utility.yul\":1499:1517   */\n      add\n        /* \"#utility.yul\":1491:1517   */\n      swap1\n      pop\n        /* \"#utility.yul\":1527:1598   */\n      tag_94\n        /* \"#utility.yul\":1595:1596   */\n      0x00\n        /* \"#utility.yul\":1584:1593   */\n      dup4\n        /* \"#utility.yul\":1580:1597   */\n      add\n        /* \"#utility.yul\":1571:1577   */\n      dup5\n        /* \"#utility.yul\":1527:1598   */\n      tag_51\n      jump\t// in\n    tag_94:\n        /* \"#utility.yul\":1383:1605   */\n      swap3\n      swap2\n      pop\n      pop\n      jump\t// out\n        /* \"#utility.yul\":1611:1733   */\n    tag_52:\n        /* \"#utility.yul\":1684:1708   */\n      tag_96\n        /* \"#utility.yul\":1702:1707   */\n      dup2\n        /* \"#utility.yul\":1684:1708   */\n      tag_50\n      jump\t// in\n    tag_96:\n        /* \"#utility.yul\":1677:1682   */\n      dup2\n        /* \"#utility.yul\":1674:1709   */\n      eq\n        /* \"#utility.yul\":1664:1727   */\n      tag_97\n      jumpi\n        /* \"#utility.yul\":1723:1724   */\n      0x00\n        /* \"#utility.yul\":1720:1721   */\n      dup1\n        /* \"#utility.yul\":1713:1725   */\n      revert\n        /* \"#utility.yul\":1664:1727   */\n    tag_97:\n        /* \"#utility.yul\":1611:1733   */\n      pop\n      jump\t// out\n        /* \"#utility.yul\":1739:1878   */\n    tag_53:\n        /* \"#utility.yul\":1785:1790   */\n      0x00\n        /* \"#utility.yul\":1823:1829   */\n      dup2\n        /* \"#utility.yul\":1810:1830   */\n      calldataload\n        /* \"#utility.yul\":1801:1830   */\n      swap1\n      pop\n        /* \"#utility.yul\":1839:1872   */\n      tag_99\n        /* \"#utility.yul\":1866:1871   */\n      dup2\n        /* \"#utility.yul\":1839:1872   */\n      tag_52\n      jump\t// in\n    tag_99:\n        /* \"#utility.yul\":1739:1878   */\n      swap3\n      swap2\n      pop\n      pop\n      jump\t// out\n        /* \"#utility.yul\":1884:2358   */\n    tag_20:\n        /* \"#utility.yul\":1952:1958   */\n      0x00\n        /* \"#utility.yul\":1960:1966   */\n      dup1\n        /* \"#utility.yul\":2009:2011   */\n      0x40\n        /* \"#utility.yul\":1997:2006   */\n      dup4\n        /* \"#utility.yul\":1988:1995   */\n      dup6\n        /* \"#utility.yul\":1984:2007   */\n      sub\n        /* \"#utility.yul\":1980:2012   */\n      slt\n        /* \"#utility.yul\":1977:2096   */\n      iszero\n      tag_101\n      jumpi\n        /* \"#utility.yul\":2015:2094   */\n      tag_102\n      tag_44\n      jump\t// in\n    tag_102:\n        /* \"#utility.yul\":1977:2096   */\n    tag_101:\n        /* \"#utility.yul\":2135:2136   */\n      0x00\n        /* \"#utility.yul\":2160:2213   */\n      tag_103\n        /* \"#utility.yul\":2205:2212   */\n      dup6\n        /* \"#utility.yul\":2196:2202   */\n      dup3\n        /* \"#utility.yul\":2185:2194   */\n      dup7\n        /* \"#utility.yul\":2181:2203   */\n      add\n        /* \"#utility.yul\":2160:2213   */\n      tag_53\n      jump\t// in\n    tag_103:\n        /* \"#utility.yul\":2150:2213   */\n      swap3\n      pop\n        /* \"#utility.yul\":2106:2223   */\n      pop\n        /* \"#utility.yul\":2262:2264   */\n      0x20\n        /* \"#utility.yul\":2288:2341   */\n      tag_104\n        /* \"#utility.yul\":2333:2340   */\n      dup6\n        /* \"#utility.yul\":2324:2330   */\n      dup3\n        /* \"#utility.yul\":2313:2322   */\n      dup7\n        /* \"#utility.yul\":2309:2331   */\n      add\n        /* \"#utility.yul\":2288:2341   */\n      tag_48\n      jump\t// in\n    tag_104:\n        /* \"#utility.yul\":2278:2341   */\n      swap2\n      pop\n        /* \"#utility.yul\":2233:2351   */\n      pop\n        /* \"#utility.yul\":1884:2358   */\n      swap3\n      pop\n      swap3\n      swap1\n      pop\n      jump\t// out\n        /* \"#utility.yul\":2364:2441   */\n    tag_54:\n        /* \"#utility.yul\":2401:2408   */\n      0x00\n        /* \"#utility.yul\":2430:2435   */\n      dup2\n        /* \"#utility.yul\":2419:2435   */\n      swap1\n      pop\n        /* \"#utility.yul\":2364:2441   */\n      swap2\n      swap1\n      pop\n      jump\t// out\n        /* \"#utility.yul\":2447:2565   */\n    tag_55:\n        /* \"#utility.yul\":2534:2558   */\n      tag_107\n        /* \"#utility.yul\":2552:2557   */\n      dup2\n        /* \"#utility.yul\":2534:2558   */\n      tag_54\n      jump\t// in\n    tag_107:\n        /* \"#utility.yul\":2529:2532   */\n      dup3\n        /* \"#utility.yul\":2522:2559   */\n      mstore\n        /* \"#utility.yul\":2447:2565   */\n      pop\n      pop\n      jump\t// out\n        /* \"#utility.yul\":2571:2793   */\n    tag_23:\n        /* \"#utility.yul\":2664:2668   */\n      0x00\n        /* \"#utility.yul\":2702:2704   */\n      0x20\n        /* \"#utility.yul\":2691:2700   */\n      dup3\n        /* \"#utility.yul\":2687:2705   */\n      add\n        /* \"#utility.yul\":2679:2705   */\n      swap1\n      pop\n        /* \"#utility.yul\":2715:2786   */\n      tag_109\n        /* \"#utility.yul\":2783:2784   */\n      0x00\n        /* \"#utility.yul\":2772:2781   */\n      dup4\n        /* \"#utility.yul\":2768:2785   */\n      add\n        /* \"#utility.yul\":2759:2765   */\n      dup5\n        /* \"#utility.yul\":2715:2786   */\n      tag_55\n      jump\t// in\n    tag_109:\n        /* \"#utility.yul\":2571:2793   */\n      swap3\n      swap2\n      pop\n      pop\n      jump\t// out\n        /* \"#utility.yul\":2799:2921   */\n    tag_56:\n        /* \"#utility.yul\":2872:2896   */\n      tag_111\n        /* \"#utility.yul\":2890:2895   */\n      dup2\n        /* \"#utility.yul\":2872:2896   */\n      tag_54\n      jump\t// in\n    tag_111:\n        /* \"#utility.yul\":2865:2870   */\n      dup2\n        /* \"#utility.yul\":2862:2897   */\n      eq\n        /* \"#utility.yul\":2852:2915   */\n      tag_112\n      jumpi\n        /* \"#utility.yul\":2911:2912   */\n      0x00\n        /* \"#utility.yul\":2908:2909   */\n      dup1\n        /* \"#utility.yul\":2901:2913   */\n      revert\n        /* \"#utility.yul\":2852:2915   */\n    tag_112:\n        /* \"#utility.yul\":2799:2921   */\n      pop\n      jump\t// out\n        /* \"#utility.yul\":2927:3066   */\n    tag_57:\n        /* \"#utility.yul\":2973:2978   */\n      0x00\n        /* \"#utility.yul\":3011:3017   */\n      dup2\n        /* \"#utility.yul\":2998:3018   */\n      calldataload\n        /* \"#utility.yul\":2989:3018   */\n      swap1\n      pop\n        /* \"#utility.yul\":3027:3060   */\n      tag_114\n        /* \"#utility.yul\":3054:3059   */\n      dup2\n        /* \"#utility.yul\":3027:3060   */\n      tag_56\n      jump\t// in\n    tag_114:\n        /* \"#utility.yul\":2927:3066   */\n      swap3\n      swap2\n      pop\n      pop\n      jump\t// out\n        /* \"#utility.yul\":3072:3401   */\n    tag_27:\n        /* \"#utility.yul\":3131:3137   */\n      0x00\n        /* \"#utility.yul\":3180:3182   */\n      0x20\n        /* \"#utility.yul\":3168:3177   */\n      dup3\n        /* \"#utility.yul\":3159:3166   */\n      dup5\n        /* \"#utility.yul\":3155:3178   */\n      sub\n        /* \"#utility.yul\":3151:3183   */\n      slt\n        /* \"#utility.yul\":3148:3267   */\n      iszero\n      tag_116\n      jumpi\n        /* \"#utility.yul\":3186:3265   */\n      tag_117\n      tag_44\n      jump\t// in\n    tag_117:\n        /* \"#utility.yul\":3148:3267   */\n    tag_116:\n        /* \"#utility.yul\":3306:3307   */\n      0x00\n        /* \"#utility.yul\":3331:3384   */\n      tag_118\n        /* \"#utility.yul\":3376:3383   */\n      dup5\n        /* \"#utility.yul\":3367:3373   */\n      dup3\n        /* \"#utility.yul\":3356:3365   */\n      dup6\n        /* \"#utility.yul\":3352:3374   */\n      add\n        /* \"#utility.yul\":3331:3384   */\n      tag_57\n      jump\t// in\n    tag_118:\n        /* \"#utility.yul\":3321:3384   */\n      swap2\n      pop\n        /* \"#utility.yul\":3277:3394   */\n      pop\n        /* \"#utility.yul\":3072:3401   */\n      swap3\n      swap2\n      pop\n      pop\n      jump\t// out\n        /* \"#utility.yul\":3407:3497   */\n    tag_58:\n        /* \"#utility.yul\":3441:3448   */\n      0x00\n        /* \"#utility.yul\":3484:3489   */\n      dup2\n        /* \"#utility.yul\":3477:3490   */\n      iszero\n        /* \"#utility.yul\":3470:3491   */\n      iszero\n        /* \"#utility.yul\":3459:3491   */\n      swap1\n      pop\n        /* \"#utility.yul\":3407:3497   */\n      swap2\n      swap1\n      pop\n      jump\t// out\n        /* \"#utility.yul\":3503:3612   */\n    tag_59:\n        /* \"#utility.yul\":3584:3605   */\n      tag_121\n        /* \"#utility.yul\":3599:3604   */\n      dup2\n        /* \"#utility.yul\":3584:3605   */\n      tag_58\n      jump\t// in\n    tag_121:\n        /* \"#utility.yul\":3579:3582   */\n      dup3\n        /* \"#utility.yul\":3572:3606   */\n      mstore\n        /* \"#utility.yul\":3503:3612   */\n      pop\n      pop\n      jump\t// out\n        /* \"#utility.yul\":3618:3828   */\n    tag_30:\n        /* \"#utility.yul\":3705:3709   */\n      0x00\n        /* \"#utility.yul\":3743:3745   */\n      0x20\n        /* \"#utility.yul\":3732:3741   */\n      dup3\n        /* \"#utility.yul\":3728:3746   */\n      add\n        /* \"#utility.yul\":3720:3746   */\n      swap1\n      pop\n        /* \"#utility.yul\":3756:3821   */\n      tag_123\n        /* \"#utility.yul\":3818:3819   */\n      0x00\n        /* \"#utility.yul\":3807:3816   */\n      dup4\n        /* \"#utility.yul\":3803:3820   */\n      add\n        /* \"#utility.yul\":3794:3800   */\n      dup5\n        /* \"#utility.yul\":3756:3821   */\n      tag_59\n      jump\t// in\n    tag_123:\n        /* \"#utility.yul\":3618:3828   */\n      swap3\n      swap2\n      pop\n      pop\n      jump\t// out\n        /* \"#utility.yul\":3834:3951   */\n    tag_60:\n        /* \"#utility.yul\":3943:3944   */\n      0x00\n        /* \"#utility.yul\":3940:3941   */\n      dup1\n        /* \"#utility.yul\":3933:3945   */\n      revert\n        /* \"#utility.yul\":3957:4059   */\n    tag_61:\n        /* \"#utility.yul\":3998:4004   */\n      0x00\n        /* \"#utility.yul\":4049:4051   */\n      0x1f\n        /* \"#utility.yul\":4045:4052   */\n      not\n        /* \"#utility.yul\":4040:4042   */\n      0x1f\n        /* \"#utility.yul\":4033:4038   */\n      dup4\n        /* \"#utility.yul\":4029:4043   */\n      add\n        /* \"#utility.yul\":4025:4053   */\n      and\n        /* \"#utility.yul\":4015:4053   */\n      swap1\n      pop\n        /* \"#utility.yul\":3957:4059   */\n      swap2\n      swap1\n      pop\n      jump\t// out\n        /* \"#utility.yul\":4065:4245   */\n    tag_62:\n        /* \"#utility.yul\":4113:4190   */\n      0x4e487b7100000000000000000000000000000000000000000000000000000000\n        /* \"#utility.yul\":4110:4111   */\n      0x00\n        /* \"#utility.yul\":4103:4191   */\n      mstore\n        /* \"#utility.yul\":4210:4214   */\n      0x41\n        /* \"#utility.yul\":4207:4208   */\n      0x04\n        /* \"#utility.yul\":4200:4215   */\n      mstore\n        /* \"#utility.yul\":4234:4238   */\n      0x24\n        /* \"#utility.yul\":4231:4232   */\n      0x00\n        /* \"#utility.yul\":4224:4239   */\n      revert\n        /* \"#utility.yul\":4251:4532   */\n    tag_63:\n        /* \"#utility.yul\":4334:4361   */\n      tag_128\n        /* \"#utility.yul\":4356:4360   */\n      dup3\n        /* \"#utility.yul\":4334:4361   */\n      tag_61\n      jump\t// in\n    tag_128:\n        /* \"#utility.yul\":4326:4332   */\n      dup2\n        /* \"#utility.yul\":4322:4362   */\n      add\n        /* \"#utility.yul\":4464:4470   */\n      dup2\n        /* \"#utility.yul\":4452:4462   */\n      dup2\n        /* \"#utility.yul\":4449:4471   */\n      lt\n        /* \"#utility.yul\":4428:4446   */\n      0xffffffffffffffff\n        /* \"#utility.yul\":4416:4426   */\n      dup3\n        /* \"#utility.yul\":4413:4447   */\n      gt\n        /* \"#utility.yul\":4410:4472   */\n      or\n        /* \"#utility.yul\":4407:4495   */\n      iszero\n      tag_129\n      jumpi\n        /* \"#utility.yul\":4475:4493   */\n      tag_130\n      tag_62\n      jump\t// in\n    tag_130:\n        /* \"#utility.yul\":4407:4495   */\n    tag_129:\n        /* \"#utility.yul\":4515:4525   */\n      dup1\n        /* \"#utility.yul\":4511:4513   */\n      0x40\n        /* \"#utility.yul\":4504:4526   */\n      mstore\n        /* \"#utility.yul\":4294:4532   */\n      pop\n        /* \"#utility.yul\":4251:4532   */\n      pop\n      pop\n      jump\t// out\n        /* \"#utility.yul\":4538:4667   */\n    tag_64:\n        /* \"#utility.yul\":4572:4578   */\n      0x00\n        /* \"#utility.yul\":4599:4619   */\n      tag_132\n      tag_43\n      jump\t// in\n    tag_132:\n        /* \"#utility.yul\":4589:4619   */\n      swap1\n      pop\n        /* \"#utility.yul\":4628:4661   */\n      tag_133\n        /* \"#utility.yul\":4656:4660   */\n      dup3\n        /* \"#utility.yul\":4648:4654   */\n      dup3\n        /* \"#utility.yul\":4628:4661   */\n      tag_63\n      jump\t// in\n    tag_133:\n        /* \"#utility.yul\":4538:4667   */\n      swap2\n      swap1\n      pop\n      jump\t// out\n        /* \"#utility.yul\":4673:4931   */\n    tag_65:\n        /* \"#utility.yul\":4757:4761   */\n      0x00\n        /* \"#utility.yul\":4847:4865   */\n      0xffffffffffffffff\n        /* \"#utility.yul\":4839:4845   */\n      dup3\n        /* \"#utility.yul\":4836:4866   */\n      gt\n        /* \"#utility.yul\":4833:4889   */\n      iszero\n      tag_135\n      jumpi\n        /* \"#utility.yul\":4869:4887   */\n      tag_136\n      tag_62\n      jump\t// in\n    tag_136:\n        /* \"#utility.yul\":4833:4889   */\n    tag_135:\n        /* \"#utility.yul\":4919:4923   */\n      0x20\n        /* \"#utility.yul\":4911:4917   */\n      dup3\n        /* \"#utility.yul\":4907:4924   */\n      mul\n        /* \"#utility.yul\":4899:4924   */\n      swap1\n      pop\n        /* \"#utility.yul\":4673:4931   */\n      swap2\n      swap1\n      pop\n      jump\t// out\n        /* \"#utility.yul\":4937:5054   */\n    tag_66:\n        /* \"#utility.yul\":5046:5047   */\n      0x00\n        /* \"#utility.yul\":5043:5044   */\n      dup1\n        /* \"#utility.yul\":5036:5048   */\n      revert\n        /* \"#utility.yul\":5060:5177   */\n    tag_67:\n        /* \"#utility.yul\":5169:5170   */\n      0x00\n        /* \"#utility.yul\":5166:5167   */\n      dup1\n        /* \"#utility.yul\":5159:5171   */\n      revert\n        /* \"#utility.yul\":5183:5490   */\n    tag_68:\n        /* \"#utility.yul\":5244:5248   */\n      0x00\n        /* \"#utility.yul\":5334:5352   */\n      0xffffffffffffffff\n        /* \"#utility.yul\":5326:5332   */\n      dup3\n        /* \"#utility.yul\":5323:5353   */\n      gt\n        /* \"#utility.yul\":5320:5376   */\n      iszero\n      tag_140\n      jumpi\n        /* \"#utility.yul\":5356:5374   */\n      tag_141\n      tag_62\n      jump\t// in\n    tag_141:\n        /* \"#utility.yul\":5320:5376   */\n    tag_140:\n        /* \"#utility.yul\":5394:5423   */\n      tag_142\n        /* \"#utility.yul\":5416:5422   */\n      dup3\n        /* \"#utility.yul\":5394:5423   */\n      tag_61\n      jump\t// in\n    tag_142:\n        /* \"#utility.yul\":5386:5423   */\n      swap1\n      pop\n        /* \"#utility.yul\":5478:5482   */\n      0x20\n        /* \"#utility.yul\":5472:5476   */\n      dup2\n        /* \"#utility.yul\":5468:5483   */\n      add\n        /* \"#utility.yul\":5460:5483   */\n      swap1\n      pop\n        /* \"#utility.yul\":5183:5490   */\n      swap2\n      swap1\n      pop\n      jump\t// out\n        /* \"#utility.yul\":5496:5650   */\n    tag_69:\n        /* \"#utility.yul\":5580:5586   */\n      dup3\n        /* \"#utility.yul\":5575:5578   */\n      dup2\n        /* \"#utility.yul\":5570:5573   */\n      dup4\n        /* \"#utility.yul\":5557:5587   */\n      calldatacopy\n        /* \"#utility.yul\":5642:5643   */\n      0x00\n        /* \"#utility.yul\":5633:5639   */\n      dup4\n        /* \"#utility.yul\":5628:5631   */\n      dup4\n        /* \"#utility.yul\":5624:5640   */\n      add\n        /* \"#utility.yul\":5617:5644   */\n      mstore\n        /* \"#utility.yul\":5496:5650   */\n      pop\n      pop\n      pop\n      jump\t// out\n        /* \"#utility.yul\":5656:6066   */\n    tag_70:\n        /* \"#utility.yul\":5733:5738   */\n      0x00\n        /* \"#utility.yul\":5758:5823   */\n      tag_145\n        /* \"#utility.yul\":5774:5822   */\n      tag_146\n        /* \"#utility.yul\":5815:5821   */\n      dup5\n        /* \"#utility.yul\":5774:5822   */\n      tag_68\n      jump\t// in\n    tag_146:\n        /* \"#utility.yul\":5758:5823   */\n      tag_64\n      jump\t// in\n    tag_145:\n        /* \"#utility.yul\":5749:5823   */\n      swap1\n      pop\n        /* \"#utility.yul\":5846:5852   */\n      dup3\n        /* \"#utility.yul\":5839:5844   */\n      dup2\n        /* \"#utility.yul\":5832:5853   */\n      mstore\n        /* \"#utility.yul\":5884:5888   */\n      0x20\n        /* \"#utility.yul\":5877:5882   */\n      dup2\n        /* \"#utility.yul\":5873:5889   */\n      add\n        /* \"#utility.yul\":5922:5925   */\n      dup5\n        /* \"#utility.yul\":5913:5919   */\n      dup5\n        /* \"#utility.yul\":5908:5911   */\n      dup5\n        /* \"#utility.yul\":5904:5920   */\n      add\n        /* \"#utility.yul\":5901:5926   */\n      gt\n        /* \"#utility.yul\":5898:6010   */\n      iszero\n      tag_147\n      jumpi\n        /* \"#utility.yul\":5929:6008   */\n      tag_148\n      tag_67\n      jump\t// in\n    tag_148:\n        /* \"#utility.yul\":5898:6010   */\n    tag_147:\n        /* \"#utility.yul\":6019:6060   */\n      tag_149\n        /* \"#utility.yul\":6053:6059   */\n      dup5\n        /* \"#utility.yul\":6048:6051   */\n      dup3\n        /* \"#utility.yul\":6043:6046   */\n      dup6\n        /* \"#utility.yul\":6019:6060   */\n      tag_69\n      jump\t// in\n    tag_149:\n        /* \"#utility.yul\":5739:6066   */\n      pop\n        /* \"#utility.yul\":5656:6066   */\n      swap4\n      swap3\n      pop\n      pop\n      pop\n      jump\t// out\n        /* \"#utility.yul\":6085:6423   */\n    tag_71:\n        /* \"#utility.yul\":6140:6145   */\n      0x00\n        /* \"#utility.yul\":6189:6192   */\n      dup3\n        /* \"#utility.yul\":6182:6186   */\n      0x1f\n        /* \"#utility.yul\":6174:6180   */\n      dup4\n        /* \"#utility.yul\":6170:6187   */\n      add\n        /* \"#utility.yul\":6166:6193   */\n      slt\n        /* \"#utility.yul\":6156:6278   */\n      tag_151\n      jumpi\n        /* \"#utility.yul\":6197:6276   */\n      tag_152\n      tag_60\n      jump\t// in\n    tag_152:\n        /* \"#utility.yul\":6156:6278   */\n    tag_151:\n        /* \"#utility.yul\":6314:6320   */\n      dup2\n        /* \"#utility.yul\":6301:6321   */\n      calldataload\n        /* \"#utility.yul\":6339:6417   */\n      tag_153\n        /* \"#utility.yul\":6413:6416   */\n      dup5\n        /* \"#utility.yul\":6405:6411   */\n      dup3\n        /* \"#utility.yul\":6398:6402   */\n      0x20\n        /* \"#utility.yul\":6390:6396   */\n      dup7\n        /* \"#utility.yul\":6386:6403   */\n      add\n        /* \"#utility.yul\":6339:6417   */\n      tag_70\n      jump\t// in\n    tag_153:\n        /* \"#utility.yul\":6330:6417   */\n      swap2\n      pop\n        /* \"#utility.yul\":6146:6423   */\n      pop\n        /* \"#utility.yul\":6085:6423   */\n      swap3\n      swap2\n      pop\n      pop\n      jump\t// out\n        /* \"#utility.yul\":6445:7320   */\n    tag_72:\n        /* \"#utility.yul\":6548:6553   */\n      0x00\n        /* \"#utility.yul\":6573:6661   */\n      tag_155\n        /* \"#utility.yul\":6589:6660   */\n      tag_156\n        /* \"#utility.yul\":6653:6659   */\n      dup5\n        /* \"#utility.yul\":6589:6660   */\n      tag_65\n      jump\t// in\n    tag_156:\n        /* \"#utility.yul\":6573:6661   */\n      tag_64\n      jump\t// in\n    tag_155:\n        /* \"#utility.yul\":6564:6661   */\n      swap1\n      pop\n        /* \"#utility.yul\":6681:6686   */\n      dup1\n        /* \"#utility.yul\":6734:6738   */\n      0x20\n        /* \"#utility.yul\":6726:6732   */\n      dup5\n        /* \"#utility.yul\":6722:6739   */\n      mul\n        /* \"#utility.yul\":6714:6720   */\n      dup4\n        /* \"#utility.yul\":6710:6740   */\n      add\n        /* \"#utility.yul\":6763:6766   */\n      dup6\n        /* \"#utility.yul\":6755:6761   */\n      dup2\n        /* \"#utility.yul\":6752:6767   */\n      gt\n        /* \"#utility.yul\":6749:6871   */\n      iszero\n      tag_157\n      jumpi\n        /* \"#utility.yul\":6782:6861   */\n      tag_158\n      tag_66\n      jump\t// in\n    tag_158:\n        /* \"#utility.yul\":6749:6871   */\n    tag_157:\n        /* \"#utility.yul\":6897:6903   */\n      dup4\n        /* \"#utility.yul\":6880:7314   */\n    tag_159:\n        /* \"#utility.yul\":6914:6920   */\n      dup2\n        /* \"#utility.yul\":6909:6912   */\n      dup2\n        /* \"#utility.yul\":6906:6921   */\n      lt\n        /* \"#utility.yul\":6880:7314   */\n      iszero\n      tag_161\n      jumpi\n        /* \"#utility.yul\":7003:7006   */\n      dup1\n        /* \"#utility.yul\":6990:7007   */\n      calldataload\n        /* \"#utility.yul\":7039:7057   */\n      0xffffffffffffffff\n        /* \"#utility.yul\":7026:7037   */\n      dup2\n        /* \"#utility.yul\":7023:7058   */\n      gt\n        /* \"#utility.yul\":7020:7142   */\n      iszero\n      tag_162\n      jumpi\n        /* \"#utility.yul\":7061:7140   */\n      tag_163\n      tag_60\n      jump\t// in\n    tag_163:\n        /* \"#utility.yul\":7020:7142   */\n    tag_162:\n        /* \"#utility.yul\":7185:7196   */\n      dup1\n        /* \"#utility.yul\":7177:7183   */\n      dup7\n        /* \"#utility.yul\":7173:7197   */\n      add\n        /* \"#utility.yul\":7223:7269   */\n      tag_164\n        /* \"#utility.yul\":7265:7268   */\n      dup10\n        /* \"#utility.yul\":7253:7263   */\n      dup3\n        /* \"#utility.yul\":7223:7269   */\n      tag_71\n      jump\t// in\n    tag_164:\n        /* \"#utility.yul\":7218:7221   */\n      dup6\n        /* \"#utility.yul\":7211:7270   */\n      mstore\n        /* \"#utility.yul\":7299:7303   */\n      0x20\n        /* \"#utility.yul\":7294:7297   */\n      dup6\n        /* \"#utility.yul\":7290:7304   */\n      add\n        /* \"#utility.yul\":7283:7304   */\n      swap5\n      pop\n        /* \"#utility.yul\":6956:7314   */\n      pop\n      pop\n        /* \"#utility.yul\":6940:6944   */\n      0x20\n        /* \"#utility.yul\":6935:6938   */\n      dup2\n        /* \"#utility.yul\":6931:6945   */\n      add\n        /* \"#utility.yul\":6924:6945   */\n      swap1\n      pop\n        /* \"#utility.yul\":6880:7314   */\n      jump(tag_159)\n    tag_161:\n        /* \"#utility.yul\":6884:6905   */\n      pop\n        /* \"#utility.yul\":6554:7320   */\n      pop\n      pop\n        /* \"#utility.yul\":6445:7320   */\n      swap4\n      swap3\n      pop\n      pop\n      pop\n      jump\t// out\n        /* \"#utility.yul\":7342:7699   */\n    tag_73:\n        /* \"#utility.yul\":7420:7425   */\n      0x00\n        /* \"#utility.yul\":7469:7472   */\n      dup3\n        /* \"#utility.yul\":7462:7466   */\n      0x1f\n        /* \"#utility.yul\":7454:7460   */\n      dup4\n        /* \"#utility.yul\":7450:7467   */\n      add\n        /* \"#utility.yul\":7446:7473   */\n      slt\n        /* \"#utility.yul\":7436:7558   */\n      tag_166\n      jumpi\n        /* \"#utility.yul\":7477:7556   */\n      tag_167\n      tag_60\n      jump\t// in\n    tag_167:\n        /* \"#utility.yul\":7436:7558   */\n    tag_166:\n        /* \"#utility.yul\":7581:7585   */\n      0x02\n        /* \"#utility.yul\":7603:7693   */\n      tag_168\n        /* \"#utility.yul\":7689:7692   */\n      dup5\n        /* \"#utility.yul\":7681:7687   */\n      dup3\n        /* \"#utility.yul\":7673:7679   */\n      dup6\n        /* \"#utility.yul\":7603:7693   */\n      tag_72\n      jump\t// in\n    tag_168:\n        /* \"#utility.yul\":7594:7693   */\n      swap2\n      pop\n        /* \"#utility.yul\":7426:7699   */\n      pop\n        /* \"#utility.yul\":7342:7699   */\n      swap3\n      swap2\n      pop\n      pop\n      jump\t// out\n        /* \"#utility.yul\":7705:8548   */\n    tag_36:\n        /* \"#utility.yul\":7814:7820   */\n      0x00\n        /* \"#utility.yul\":7822:7828   */\n      dup1\n        /* \"#utility.yul\":7830:7836   */\n      0x00\n        /* \"#utility.yul\":7879:7881   */\n      0x60\n        /* \"#utility.yul\":7867:7876   */\n      dup5\n        /* \"#utility.yul\":7858:7865   */\n      dup7\n        /* \"#utility.yul\":7854:7877   */\n      sub\n        /* \"#utility.yul\":7850:7882   */\n      slt\n        /* \"#utility.yul\":7847:7966   */\n      iszero\n      tag_170\n      jumpi\n        /* \"#utility.yul\":7885:7964   */\n      tag_171\n      tag_44\n      jump\t// in\n    tag_171:\n        /* \"#utility.yul\":7847:7966   */\n    tag_170:\n        /* \"#utility.yul\":8005:8006   */\n      0x00\n        /* \"#utility.yul\":8030:8083   */\n      tag_172\n        /* \"#utility.yul\":8075:8082   */\n      dup7\n        /* \"#utility.yul\":8066:8072   */\n      dup3\n        /* \"#utility.yul\":8055:8064   */\n      dup8\n        /* \"#utility.yul\":8051:8073   */\n      add\n        /* \"#utility.yul\":8030:8083   */\n      tag_53\n      jump\t// in\n    tag_172:\n        /* \"#utility.yul\":8020:8083   */\n      swap4\n      pop\n        /* \"#utility.yul\":7976:8093   */\n      pop\n        /* \"#utility.yul\":8132:8134   */\n      0x20\n        /* \"#utility.yul\":8158:8211   */\n      tag_173\n        /* \"#utility.yul\":8203:8210   */\n      dup7\n        /* \"#utility.yul\":8194:8200   */\n      dup3\n        /* \"#utility.yul\":8183:8192   */\n      dup8\n        /* \"#utility.yul\":8179:8201   */\n      add\n        /* \"#utility.yul\":8158:8211   */\n      tag_48\n      jump\t// in\n    tag_173:\n        /* \"#utility.yul\":8148:8211   */\n      swap3\n      pop\n        /* \"#utility.yul\":8103:8221   */\n      pop\n        /* \"#utility.yul\":8288:8290   */\n      0x40\n        /* \"#utility.yul\":8277:8286   */\n      dup5\n        /* \"#utility.yul\":8273:8291   */\n      add\n        /* \"#utility.yul\":8260:8292   */\n      calldataload\n        /* \"#utility.yul\":8319:8337   */\n      0xffffffffffffffff\n        /* \"#utility.yul\":8311:8317   */\n      dup2\n        /* \"#utility.yul\":8308:8338   */\n      gt\n        /* \"#utility.yul\":8305:8422   */\n      iszero\n      tag_174\n      jumpi\n        /* \"#utility.yul\":8341:8420   */\n      tag_175\n      tag_45\n      jump\t// in\n    tag_175:\n        /* \"#utility.yul\":8305:8422   */\n    tag_174:\n        /* \"#utility.yul\":8446:8531   */\n      tag_176\n        /* \"#utility.yul\":8523:8530   */\n      dup7\n        /* \"#utility.yul\":8514:8520   */\n      dup3\n        /* \"#utility.yul\":8503:8512   */\n      dup8\n        /* \"#utility.yul\":8499:8521   */\n      add\n        /* \"#utility.yul\":8446:8531   */\n      tag_73\n      jump\t// in\n    tag_176:\n        /* \"#utility.yul\":8436:8531   */\n      swap2\n      pop\n        /* \"#utility.yul\":8231:8541   */\n      pop\n        /* \"#utility.yul\":7705:8548   */\n      swap3\n      pop\n      swap3\n      pop\n      swap3\n      jump\t// out\n\n    auxdata: 0xa2646970667358221220d80248ab687a9129205367f98722077a648bd1adb70178b5a2bf996c15ed153364736f6c634300080f0033\n}\n",
				"bytecode": {
					"linkReferences": {},
					"object": "608060405260405162000968380380620009688339818101604052810190620000299190620002bc565b8060009060026200003c92919062000044565b5050620002ee565b8260028101928215620000b3579160200282015b82811115620000b25782518260006101000a81548173ffffffffffffffffffffffffffffffffffffffff021916908373ffffffffffffffffffffffffffffffffffffffff1602179055509160200191906001019062000058565b5b509050620000c29190620000c6565b5090565b5b80821115620000e1576000816000905550600101620000c7565b5090565b6000604051905090565b600080fd5b600080fd5b6000601f19601f8301169050919050565b7f4e487b7100000000000000000000000000000000000000000000000000000000600052604160045260246000fd5b6200014482620000f9565b810181811067ffffffffffffffff821117156200016657620001656200010a565b5b80604052505050565b60006200017b620000e5565b905062000189828262000139565b919050565b600067ffffffffffffffff821115620001ac57620001ab6200010a565b5b602082029050919050565b600080fd5b600073ffffffffffffffffffffffffffffffffffffffff82169050919050565b6000620001e982620001bc565b9050919050565b620001fb81620001dc565b81146200020757600080fd5b50565b6000815190506200021b81620001f0565b92915050565b60006200023862000232846200018e565b6200016f565b90508060208402830185811115620002555762000254620001b7565b5b835b818110156200028257806200026d88826200020a565b84526020840193505060208101905062000257565b5050509392505050565b600082601f830112620002a457620002a3620000f4565b5b6002620002b384828562000221565b91505092915050565b600060408284031215620002d557620002d4620000ef565b5b6000620002e5848285016200028c565b91505092915050565b61066a80620002fe6000396000f3fe60806040526004361061004e5760003560e01c8063025e7c271461005a5780639a4b740b14610097578063a9fcfb33146100d4578063d0e30db014610111578063ffb485b81461011b57610055565b3661005557005b600080fd5b34801561006657600080fd5b50610081600480360381019061007c91906101f3565b610144565b60405161008e9190610261565b60405180910390f35b3480156100a357600080fd5b506100be60048036038101906100b991906102a8565b61017a565b6040516100cb9190610301565b60405180910390f35b3480156100e057600080fd5b506100fb60048036038101906100f69190610348565b610182565b6040516101089190610390565b60405180910390f35b6101196101a2565b005b34801561012757600080fd5b50610142600480360381019061013d91906105c5565b6101a4565b005b6000816002811061015457600080fd5b016000915054906101000a900473ffffffffffffffffffffffffffffffffffffffff1681565b600092915050565b60026020528060005260406000206000915054906101000a900460ff1681565b565b505050565b6000604051905090565b600080fd5b600080fd5b6000819050919050565b6101d0816101bd565b81146101db57600080fd5b50565b6000813590506101ed816101c7565b92915050565b600060208284031215610209576102086101b3565b5b6000610217848285016101de565b91505092915050565b600073ffffffffffffffffffffffffffffffffffffffff82169050919050565b600061024b82610220565b9050919050565b61025b81610240565b82525050565b60006020820190506102766000830184610252565b92915050565b61028581610240565b811461029057600080fd5b50565b6000813590506102a28161027c565b92915050565b600080604083850312156102bf576102be6101b3565b5b60006102cd85828601610293565b92505060206102de858286016101de565b9150509250929050565b6000819050919050565b6102fb816102e8565b82525050565b600060208201905061031660008301846102f2565b92915050565b610325816102e8565b811461033057600080fd5b50565b6000813590506103428161031c565b92915050565b60006020828403121561035e5761035d6101b3565b5b600061036c84828501610333565b91505092915050565b60008115159050919050565b61038a81610375565b82525050565b60006020820190506103a56000830184610381565b92915050565b600080fd5b6000601f19601f8301169050919050565b7f4e487b7100000000000000000000000000000000000000000000000000000000600052604160045260246000fd5b6103f9826103b0565b810181811067ffffffffffffffff82111715610418576104176103c1565b5b80604052505050565b600061042b6101a9565b905061043782826103f0565b919050565b600067ffffffffffffffff821115610457576104566103c1565b5b602082029050919050565b600080fd5b600080fd5b600067ffffffffffffffff821115610487576104866103c1565b5b610490826103b0565b9050602081019050919050565b82818337600083830152505050565b60006104bf6104ba8461046c565b610421565b9050828152602081018484840111156104db576104da610467565b5b6104e684828561049d565b509392505050565b600082601f830112610503576105026103ab565b5b81356105138482602086016104ac565b91505092915050565b600061052f61052a8461043c565b610421565b9050806020840283018581111561054957610548610462565b5b835b8181101561059057803567ffffffffffffffff81111561056e5761056d6103ab565b5b80860161057b89826104ee565b8552602085019450505060208101905061054b565b5050509392505050565b600082601f8301126105af576105ae6103ab565b5b60026105bc84828561051c565b91505092915050565b6000806000606084860312156105de576105dd6101b3565b5b60006105ec86828701610293565b93505060206105fd868287016101de565b925050604084013567ffffffffffffffff81111561061e5761061d6101b8565b5b61062a8682870161059a565b915050925092509256fea2646970667358221220d80248ab687a9129205367f98722077a648bd1adb70178b5a2bf996c15ed153364736f6c634300080f0033",
					"opcodes": "PUSH1 0x80 PUSH1 0x40 MSTORE PUSH1 0x40 MLOAD PUSH3 0x968 CODESIZE SUB DUP1 PUSH3 0x968 DUP4 CODECOPY DUP2 DUP2 ADD PUSH1 0x40 MSTORE DUP2 ADD SWAP1 PUSH3 0x29 SWAP2 SWAP1 PUSH3 0x2BC JUMP JUMPDEST DUP1 PUSH1 0x0 SWAP1 PUSH1 0x2 PUSH3 0x3C SWAP3 SWAP2 SWAP1 PUSH3 0x44 JUMP JUMPDEST POP POP PUSH3 0x2EE JUMP JUMPDEST DUP3 PUSH1 0x2 DUP2 ADD SWAP3 DUP3 ISZERO PUSH3 0xB3 JUMPI SWAP2 PUSH1 0x20 MUL DUP3 ADD JUMPDEST DUP3 DUP2 GT ISZERO PUSH3 0xB2 JUMPI DUP3 MLOAD DUP3 PUSH1 0x0 PUSH2 0x100 EXP DUP2 SLOAD DUP2 PUSH20 0xFFFFFFFFFFFFFFFFFFFFFFFFFFFFFFFFFFFFFFFF MUL NOT AND SWAP1 DUP4 PUSH20 0xFFFFFFFFFFFFFFFFFFFFFFFFFFFFFFFFFFFFFFFF AND MUL OR SWAP1 SSTORE POP SWAP2 PUSH1 0x20 ADD SWAP2 SWAP1 PUSH1 0x1 ADD SWAP1 PUSH3 0x58 JUMP JUMPDEST JUMPDEST POP SWAP1 POP PUSH3 0xC2 SWAP2 SWAP1 PUSH3 0xC6 JUMP JUMPDEST POP SWAP1 JUMP JUMPDEST JUMPDEST DUP1 DUP3 GT ISZERO PUSH3 0xE1 JUMPI PUSH1 0x0 DUP2 PUSH1 0x0 SWAP1 SSTORE POP PUSH1 0x1 ADD PUSH3 0xC7 JUMP JUMPDEST POP SWAP1 JUMP JUMPDEST PUSH1 0x0 PUSH1 0x40 MLOAD SWAP1 POP SWAP1 JUMP JUMPDEST PUSH1 0x0 DUP1 REVERT JUMPDEST PUSH1 0x0 DUP1 REVERT JUMPDEST PUSH1 0x0 PUSH1 0x1F NOT PUSH1 0x1F DUP4 ADD AND SWAP1 POP SWAP2 SWAP1 POP JUMP JUMPDEST PUSH32 0x4E487B7100000000000000000000000000000000000000000000000000000000 PUSH1 0x0 MSTORE PUSH1 0x41 PUSH1 0x4 MSTORE PUSH1 0x24 PUSH1 0x0 REVERT JUMPDEST PUSH3 0x144 DUP3 PUSH3 0xF9 JUMP JUMPDEST DUP2 ADD DUP2 DUP2 LT PUSH8 0xFFFFFFFFFFFFFFFF DUP3 GT OR ISZERO PUSH3 0x166 JUMPI PUSH3 0x165 PUSH3 0x10A JUMP JUMPDEST JUMPDEST DUP1 PUSH1 0x40 MSTORE POP POP POP JUMP JUMPDEST PUSH1 0x0 PUSH3 0x17B PUSH3 0xE5 JUMP JUMPDEST SWAP1 POP PUSH3 0x189 DUP3 DUP3 PUSH3 0x139 JUMP JUMPDEST SWAP2 SWAP1 POP JUMP JUMPDEST PUSH1 0x0 PUSH8 0xFFFFFFFFFFFFFFFF DUP3 GT ISZERO PUSH3 0x1AC JUMPI PUSH3 0x1AB PUSH3 0x10A JUMP JUMPDEST JUMPDEST PUSH1 0x20 DUP3 MUL SWAP1 POP SWAP2 SWAP1 POP JUMP JUMPDEST PUSH1 0x0 DUP1 REVERT JUMPDEST PUSH1 0x0 PUSH20 0xFFFFFFFFFFFFFFFFFFFFFFFFFFFFFFFFFFFFFFFF DUP3 AND SWAP1 POP SWAP2 SWAP1 POP JUMP JUMPDEST PUSH1 0x0 PUSH3 0x1E9 DUP3 PUSH3 0x1BC JUMP JUMPDEST SWAP1 POP SWAP2 SWAP1 POP JUMP JUMPDEST PUSH3 0x1FB DUP2 PUSH3 0x1DC JUMP JUMPDEST DUP2 EQ PUSH3 0x207 JUMPI PUSH1 0x0 DUP1 REVERT JUMPDEST POP JUMP JUMPDEST PUSH1 0x0 DUP2 MLOAD SWAP1 POP PUSH3 0x21B DUP2 PUSH3 0x1F0 JUMP JUMPDEST SWAP3 SWAP2 POP POP JUMP JUMPDEST PUSH1 0x0 PUSH3 0x238 PUSH3 0x232 DUP5 PUSH3 0x18E JUMP JUMPDEST PUSH3 0x16F JUMP JUMPDEST SWAP1 POP DUP1 PUSH1 0x20 DUP5 MUL DUP4 ADD DUP6 DUP2 GT ISZERO PUSH3 0x255 JUMPI PUSH3 0x254 PUSH3 0x1B7 JUMP JUMPDEST JUMPDEST DUP4 JUMPDEST DUP2 DUP2 LT ISZERO PUSH3 0x282 JUMPI DUP1 PUSH3 0x26D DUP9 DUP3 PUSH3 0x20A JUMP JUMPDEST DUP5 MSTORE PUSH1 0x20 DUP5 ADD SWAP4 POP POP PUSH1 0x20 DUP2 ADD SWAP1 POP PUSH3 0x257 JUMP JUMPDEST POP POP POP SWAP4 SWAP3 POP POP POP JUMP JUMPDEST PUSH1 0x0 DUP3 PUSH1 0x1F DUP4 ADD SLT PUSH3 0x2A4 JUMPI PUSH3 0x2A3 PUSH3 0xF4 JUMP JUMPDEST JUMPDEST PUSH1 0x2 PUSH3 0x2B3 DUP5 DUP3 DUP6 PUSH3 0x221 JUMP JUMPDEST SWAP2 POP POP SWAP3 SWAP2 POP POP JUMP JUMPDEST PUSH1 0x0 PUSH1 0x40 DUP3 DUP5 SUB SLT ISZERO PUSH3 0x2D5 JUMPI PUSH3 0x2D4 PUSH3 0xEF JUMP JUMPDEST JUMPDEST PUSH1 0x0 PUSH3 0x2E5 DUP5 DUP3 DUP6 ADD PUSH3 0x28C JUMP JUMPDEST SWAP2 POP POP SWAP3 SWAP2 POP POP JUMP JUMPDEST PUSH2 0x66A DUP1 PUSH3 0x2FE PUSH1 0x0 CODECOPY PUSH1 0x0 RETURN INVALID PUSH1 0x80 PUSH1 0x40 MSTORE PUSH1 0x4 CALLDATASIZE LT PUSH2 0x4E JUMPI PUSH1 0x0 CALLDATALOAD PUSH1 0xE0 SHR DUP1 PUSH4 0x25E7C27 EQ PUSH2 0x5A JUMPI DUP1 PUSH4 0x9A4B740B EQ PUSH2 0x97 JUMPI DUP1 PUSH4 0xA9FCFB33 EQ PUSH2 0xD4 JUMPI DUP1 PUSH4 0xD0E30DB0 EQ PUSH2 0x111 JUMPI DUP1 PUSH4 0xFFB485B8 EQ PUSH2 0x11B JUMPI PUSH2 0x55 JUMP JUMPDEST CALLDATASIZE PUSH2 0x55 JUMPI STOP JUMPDEST PUSH1 0x0 DUP1 REVERT JUMPDEST CALLVALUE DUP1 ISZERO PUSH2 0x66 JUMPI PUSH1 0x0 DUP1 REVERT JUMPDEST POP PUSH2 0x81 PUSH1 0x4 DUP1 CALLDATASIZE SUB DUP2 ADD SWAP1 PUSH2 0x7C SWAP2 SWAP1 PUSH2 0x1F3 JUMP JUMPDEST PUSH2 0x144 JUMP JUMPDEST PUSH1 0x40 MLOAD PUSH2 0x8E SWAP2 SWAP1 PUSH2 0x261 JUMP JUMPDEST PUSH1 0x40 MLOAD DUP1 SWAP2 SUB SWAP1 RETURN JUMPDEST CALLVALUE DUP1 ISZERO PUSH2 0xA3 JUMPI PUSH1 0x0 DUP1 REVERT JUMPDEST POP PUSH2 0xBE PUSH1 0x4 DUP1 CALLDATASIZE SUB DUP2 ADD SWAP1 PUSH2 0xB9 SWAP2 SWAP1 PUSH2 0x2A8 JUMP JUMPDEST PUSH2 0x17A JUMP JUMPDEST PUSH1 0x40 MLOAD PUSH2 0xCB SWAP2 SWAP1 PUSH2 0x301 JUMP JUMPDEST PUSH1 0x40 MLOAD DUP1 SWAP2 SUB SWAP1 RETURN JUMPDEST CALLVALUE DUP1 ISZERO PUSH2 0xE0 JUMPI PUSH1 0x0 DUP1 REVERT JUMPDEST POP PUSH2 0xFB PUSH1 0x4 DUP1 CALLDATASIZE SUB DUP2 ADD SWAP1 PUSH2 0xF6 SWAP2 SWAP1 PUSH2 0x348 JUMP JUMPDEST PUSH2 0x182 JUMP JUMPDEST PUSH1 0x40 MLOAD PUSH2 0x108 SWAP2 SWAP1 PUSH2 0x390 JUMP JUMPDEST PUSH1 0x40 MLOAD DUP1 SWAP2 SUB SWAP1 RETURN JUMPDEST PUSH2 0x119 PUSH2 0x1A2 JUMP JUMPDEST STOP JUMPDEST CALLVALUE DUP1 ISZERO PUSH2 0x127 JUMPI PUSH1 0x0 DUP1 REVERT JUMPDEST POP PUSH2 0x142 PUSH1 0x4 DUP1 CALLDATASIZE SUB DUP2 ADD SWAP1 PUSH2 0x13D SWAP2 SWAP1 PUSH2 0x5C5 JUMP JUMPDEST PUSH2 0x1A4 JUMP JUMPDEST STOP JUMPDEST PUSH1 0x0 DUP2 PUSH1 0x2 DUP2 LT PUSH2 0x154 JUMPI PUSH1 0x0 DUP1 REVERT JUMPDEST ADD PUSH1 0x0 SWAP2 POP SLOAD SWAP1 PUSH2 0x100 EXP SWAP1 DIV PUSH20 0xFFFFFFFFFFFFFFFFFFFFFFFFFFFFFFFFFFFFFFFF AND DUP2 JUMP JUMPDEST PUSH1 0x0 SWAP3 SWAP2 POP POP JUMP JUMPDEST PUSH1 0x2 PUSH1 0x20 MSTORE DUP1 PUSH1 0x0 MSTORE PUSH1 0x40 PUSH1 0x0 KECCAK256 PUSH1 0x0 SWAP2 POP SLOAD SWAP1 PUSH2 0x100 EXP SWAP1 DIV PUSH1 0xFF AND DUP2 JUMP JUMPDEST JUMP JUMPDEST POP POP POP JUMP JUMPDEST PUSH1 0x0 PUSH1 0x40 MLOAD SWAP1 POP SWAP1 JUMP JUMPDEST PUSH1 0x0 DUP1 REVERT JUMPDEST PUSH1 0x0 DUP1 REVERT JUMPDEST PUSH1 0x0 DUP2 SWAP1 POP SWAP2 SWAP1 POP JUMP JUMPDEST PUSH2 0x1D0 DUP2 PUSH2 0x1BD JUMP JUMPDEST DUP2 EQ PUSH2 0x1DB JUMPI PUSH1 0x0 DUP1 REVERT JUMPDEST POP JUMP JUMPDEST PUSH1 0x0 DUP2 CALLDATALOAD SWAP1 POP PUSH2 0x1ED DUP2 PUSH2 0x1C7 JUMP JUMPDEST SWAP3 SWAP2 POP POP JUMP JUMPDEST PUSH1 0x0 PUSH1 0x20 DUP3 DUP5 SUB SLT ISZERO PUSH2 0x209 JUMPI PUSH2 0x208 PUSH2 0x1B3 JUMP JUMPDEST JUMPDEST PUSH1 0x0 PUSH2 0x217 DUP5 DUP3 DUP6 ADD PUSH2 0x1DE JUMP JUMPDEST SWAP2 POP POP SWAP3 SWAP2 POP POP JUMP JUMPDEST PUSH1 0x0 PUSH20 0xFFFFFFFFFFFFFFFFFFFFFFFFFFFFFFFFFFFFFFFF DUP3 AND SWAP1 POP SWAP2 SWAP1 POP JUMP JUMPDEST PUSH1 0x0 PUSH2 0x24B DUP3 PUSH2 0x220 JUMP JUMPDEST SWAP1 POP SWAP2 SWAP1 POP JUMP JUMPDEST PUSH2 0x25B DUP2 PUSH2 0x240 JUMP JUMPDEST DUP3 MSTORE POP POP JUMP JUMPDEST PUSH1 0x0 PUSH1 0x20 DUP3 ADD SWAP1 POP PUSH2 0x276 PUSH1 0x0 DUP4 ADD DUP5 PUSH2 0x252 JUMP JUMPDEST SWAP3 SWAP2 POP POP JUMP JUMPDEST PUSH2 0x285 DUP2 PUSH2 0x240 JUMP JUMPDEST DUP2 EQ PUSH2 0x290 JUMPI PUSH1 0x0 DUP1 REVERT JUMPDEST POP JUMP JUMPDEST PUSH1 0x0 DUP2 CALLDATALOAD SWAP1 POP PUSH2 0x2A2 DUP2 PUSH2 0x27C JUMP JUMPDEST SWAP3 SWAP2 POP POP JUMP JUMPDEST PUSH1 0x0 DUP1 PUSH1 0x40 DUP4 DUP6 SUB SLT ISZERO PUSH2 0x2BF JUMPI PUSH2 0x2BE PUSH2 0x1B3 JUMP JUMPDEST JUMPDEST PUSH1 0x0 PUSH2 0x2CD DUP6 DUP3 DUP7 ADD PUSH2 0x293 JUMP JUMPDEST SWAP3 POP POP PUSH1 0x20 PUSH2 0x2DE DUP6 DUP3 DUP7 ADD PUSH2 0x1DE JUMP JUMPDEST SWAP2 POP POP SWAP3 POP SWAP3 SWAP1 POP JUMP JUMPDEST PUSH1 0x0 DUP2 SWAP1 POP SWAP2 SWAP1 POP JUMP JUMPDEST PUSH2 0x2FB DUP2 PUSH2 0x2E8 JUMP JUMPDEST DUP3 MSTORE POP POP JUMP JUMPDEST PUSH1 0x0 PUSH1 0x20 DUP3 ADD SWAP1 POP PUSH2 0x316 PUSH1 0x0 DUP4 ADD DUP5 PUSH2 0x2F2 JUMP JUMPDEST SWAP3 SWAP2 POP POP JUMP JUMPDEST PUSH2 0x325 DUP2 PUSH2 0x2E8 JUMP JUMPDEST DUP2 EQ PUSH2 0x330 JUMPI PUSH1 0x0 DUP1 REVERT JUMPDEST POP JUMP JUMPDEST PUSH1 0x0 DUP2 CALLDATALOAD SWAP1 POP PUSH2 0x342 DUP2 PUSH2 0x31C JUMP JUMPDEST SWAP3 SWAP2 POP POP JUMP JUMPDEST PUSH1 0x0 PUSH1 0x20 DUP3 DUP5 SUB SLT ISZERO PUSH2 0x35E JUMPI PUSH2 0x35D PUSH2 0x1B3 JUMP JUMPDEST JUMPDEST PUSH1 0x0 PUSH2 0x36C DUP5 DUP3 DUP6 ADD PUSH2 0x333 JUMP JUMPDEST SWAP2 POP POP SWAP3 SWAP2 POP POP JUMP JUMPDEST PUSH1 0x0 DUP2 ISZERO ISZERO SWAP1 POP SWAP2 SWAP1 POP JUMP JUMPDEST PUSH2 0x38A DUP2 PUSH2 0x375 JUMP JUMPDEST DUP3 MSTORE POP POP JUMP JUMPDEST PUSH1 0x0 PUSH1 0x20 DUP3 ADD SWAP1 POP PUSH2 0x3A5 PUSH1 0x0 DUP4 ADD DUP5 PUSH2 0x381 JUMP JUMPDEST SWAP3 SWAP2 POP POP JUMP JUMPDEST PUSH1 0x0 DUP1 REVERT JUMPDEST PUSH1 0x0 PUSH1 0x1F NOT PUSH1 0x1F DUP4 ADD AND SWAP1 POP SWAP2 SWAP1 POP JUMP JUMPDEST PUSH32 0x4E487B7100000000000000000000000000000000000000000000000000000000 PUSH1 0x0 MSTORE PUSH1 0x41 PUSH1 0x4 MSTORE PUSH1 0x24 PUSH1 0x0 REVERT JUMPDEST PUSH2 0x3F9 DUP3 PUSH2 0x3B0 JUMP JUMPDEST DUP2 ADD DUP2 DUP2 LT PUSH8 0xFFFFFFFFFFFFFFFF DUP3 GT OR ISZERO PUSH2 0x418 JUMPI PUSH2 0x417 PUSH2 0x3C1 JUMP JUMPDEST JUMPDEST DUP1 PUSH1 0x40 MSTORE POP POP POP JUMP JUMPDEST PUSH1 0x0 PUSH2 0x42B PUSH2 0x1A9 JUMP JUMPDEST SWAP1 POP PUSH2 0x437 DUP3 DUP3 PUSH2 0x3F0 JUMP JUMPDEST SWAP2 SWAP1 POP JUMP JUMPDEST PUSH1 0x0 PUSH8 0xFFFFFFFFFFFFFFFF DUP3 GT ISZERO PUSH2 0x457 JUMPI PUSH2 0x456 PUSH2 0x3C1 JUMP JUMPDEST JUMPDEST PUSH1 0x20 DUP3 MUL SWAP1 POP SWAP2 SWAP1 POP JUMP JUMPDEST PUSH1 0x0 DUP1 REVERT JUMPDEST PUSH1 0x0 DUP1 REVERT JUMPDEST PUSH1 0x0 PUSH8 0xFFFFFFFFFFFFFFFF DUP3 GT ISZERO PUSH2 0x487 JUMPI PUSH2 0x486 PUSH2 0x3C1 JUMP JUMPDEST JUMPDEST PUSH2 0x490 DUP3 PUSH2 0x3B0 JUMP JUMPDEST SWAP1 POP PUSH1 0x20 DUP2 ADD SWAP1 POP SWAP2 SWAP1 POP JUMP JUMPDEST DUP3 DUP2 DUP4 CALLDATACOPY PUSH1 0x0 DUP4 DUP4 ADD MSTORE POP POP POP JUMP JUMPDEST PUSH1 0x0 PUSH2 0x4BF PUSH2 0x4BA DUP5 PUSH2 0x46C JUMP JUMPDEST PUSH2 0x421 JUMP JUMPDEST SWAP1 POP DUP3 DUP2 MSTORE PUSH1 0x20 DUP2 ADD DUP5 DUP5 DUP5 ADD GT ISZERO PUSH2 0x4DB JUMPI PUSH2 0x4DA PUSH2 0x467 JUMP JUMPDEST JUMPDEST PUSH2 0x4E6 DUP5 DUP3 DUP6 PUSH2 0x49D JUMP JUMPDEST POP SWAP4 SWAP3 POP POP POP JUMP JUMPDEST PUSH1 0x0 DUP3 PUSH1 0x1F DUP4 ADD SLT PUSH2 0x503 JUMPI PUSH2 0x502 PUSH2 0x3AB JUMP JUMPDEST JUMPDEST DUP2 CALLDATALOAD PUSH2 0x513 DUP5 DUP3 PUSH1 0x20 DUP7 ADD PUSH2 0x4AC JUMP JUMPDEST SWAP2 POP POP SWAP3 SWAP2 POP POP JUMP JUMPDEST PUSH1 0x0 PUSH2 0x52F PUSH2 0x52A DUP5 PUSH2 0x43C JUMP JUMPDEST PUSH2 0x421 JUMP JUMPDEST SWAP1 POP DUP1 PUSH1 0x20 DUP5 MUL DUP4 ADD DUP6 DUP2 GT ISZERO PUSH2 0x549 JUMPI PUSH2 0x548 PUSH2 0x462 JUMP JUMPDEST JUMPDEST DUP4 JUMPDEST DUP2 DUP2 LT ISZERO PUSH2 0x590 JUMPI DUP1 CALLDATALOAD PUSH8 0xFFFFFFFFFFFFFFFF DUP2 GT ISZERO PUSH2 0x56E JUMPI PUSH2 0x56D PUSH2 0x3AB JUMP JUMPDEST JUMPDEST DUP1 DUP7 ADD PUSH2 0x57B DUP10 DUP3 PUSH2 0x4EE JUMP JUMPDEST DUP6 MSTORE PUSH1 0x20 DUP6 ADD SWAP5 POP POP POP PUSH1 0x20 DUP2 ADD SWAP1 POP PUSH2 0x54B JUMP JUMPDEST POP POP POP SWAP4 SWAP3 POP POP POP JUMP JUMPDEST PUSH1 0x0 DUP3 PUSH1 0x1F DUP4 ADD SLT PUSH2 0x5AF JUMPI PUSH2 0x5AE PUSH2 0x3AB JUMP JUMPDEST JUMPDEST PUSH1 0x2 PUSH2 0x5BC DUP5 DUP3 DUP6 PUSH2 0x51C JUMP JUMPDEST SWAP2 POP POP SWAP3 SWAP2 POP POP JUMP JUMPDEST PUSH1 0x0 DUP1 PUSH1 0x0 PUSH1 0x60 DUP5 DUP7 SUB SLT ISZERO PUSH2 0x5DE JUMPI PUSH2 0x5DD PUSH2 0x1B3 JUMP JUMPDEST JUMPDEST PUSH1 0x0 PUSH2 0x5EC DUP7 DUP3 DUP8 ADD PUSH2 0x293 JUMP JUMPDEST SWAP4 POP POP PUSH1 0x20 PUSH2 0x5FD DUP7 DUP3 DUP8 ADD PUSH2 0x1DE JUMP JUMPDEST SWAP3 POP POP PUSH1 0x40 DUP5 ADD CALLDATALOAD PUSH8 0xFFFFFFFFFFFFFFFF DUP2 GT ISZERO PUSH2 0x61E JUMPI PUSH2 0x61D PUSH2 0x1B8 JUMP JUMPDEST JUMPDEST PUSH2 0x62A DUP7 DUP3 DUP8 ADD PUSH2 0x59A JUMP JUMPDEST SWAP2 POP POP SWAP3 POP SWAP3 POP SWAP3 JUMP INVALID LOG2 PUSH5 0x6970667358 0x22 SLT KECCAK256 0xD8 MUL BASEFEE 0xAB PUSH9 0x7A9129205367F98722 SMOD PUSH27 0x648BD1ADB70178B5A2BF996C15ED153364736F6C634300080F0033 "
				},
				"gasEstimates": {
					"creation": {
						"codeDepositCost": "328400",
						"executionCost": "infinite",
						"totalCost": "infinite"
					},
					"external": {
						"deposit()": "164",
						"executed(bytes32)": "2818",
						"getTxHash(address,uint256)": "816",
						"owners(uint256)": "2783",
						"transfer(address,uint256,bytes[2])": "infinite"
					}
				},
				"methodIdentifiers": {
					"deposit()": "d0e30db0",
					"executed(bytes32)": "a9fcfb33",
					"getTxHash(address,uint256)": "9a4b740b",
					"owners(uint256)": "025e7c27",
					"transfer(address,uint256,bytes[2])": "ffb485b8"
				}
			},
			"storageLayout": {
				"storage": [
					{
						"astId": 10,
						"contract": "contracts/DeFi/MultiSigV3.sol:MultiSigWallet",
						"label": "owners",
						"offset": 0,
						"slot": "0",
						"type": "t_array(t_address)2_storage"
					},
					{
						"astId": 14,
						"contract": "contracts/DeFi/MultiSigV3.sol:MultiSigWallet",
						"label": "executed",
						"offset": 0,
						"slot": "2",
						"type": "t_mapping(t_bytes32,t_bool)"
					}
				],
				"types": {
					"t_address": {
						"encoding": "inplace",
						"label": "address",
						"numberOfBytes": "20"
					},
					"t_array(t_address)2_storage": {
						"base": "t_address",
						"encoding": "inplace",
						"label": "address[2]",
						"numberOfBytes": "64"
					},
					"t_bool": {
						"encoding": "inplace",
						"label": "bool",
						"numberOfBytes": "1"
					},
					"t_bytes32": {
						"encoding": "inplace",
						"label": "bytes32",
						"numberOfBytes": "32"
					},
					"t_mapping(t_bytes32,t_bool)": {
						"encoding": "mapping",
						"key": "t_bytes32",
						"label": "mapping(bytes32 => bool)",
						"numberOfBytes": "32",
						"value": "t_bool"
					}
				}
			},
			"userdoc": {
				"kind": "user",
				"methods": {},
				"version": 1
			}
		}
	}
}