{
	"contracts/DeFi/MultiSigV2.sol": {
		"MultiSigWallet": {
			"abi": [
				{
					"inputs": [
						{
							"internalType": "address[]",
							"name": "_owners",
							"type": "address[]"
						},
						{
							"internalType": "uint256",
							"name": "_required",
							"type": "uint256"
						}
					],
					"stateMutability": "nonpayable",
					"type": "constructor"
				},
				{
					"inputs": [],
					"name": "AlreadyOwner",
					"type": "error"
				},
				{
					"inputs": [],
					"name": "InvalidNumRequired",
					"type": "error"
				},
				{
					"inputs": [],
					"name": "InvalidOwnerAddress",
					"type": "error"
				},
				{
					"inputs": [],
					"name": "LessConfirmationsThanRequired",
					"type": "error"
				},
				{
					"inputs": [],
					"name": "NotOwner",
					"type": "error"
				},
				{
					"inputs": [],
					"name": "TxAlreadyApproved",
					"type": "error"
				},
				{
					"inputs": [],
					"name": "TxAlreadyExecuted",
					"type": "error"
				},
				{
					"inputs": [],
					"name": "TxDoesNotExist",
					"type": "error"
				},
				{
					"inputs": [],
					"name": "TxExecutionFailed",
					"type": "error"
				},
				{
					"inputs": [],
					"name": "TxNotApproved",
					"type": "error"
				},
				{
					"anonymous": false,
					"inputs": [
						{
							"indexed": true,
							"internalType": "uint256",
							"name": "txId",
							"type": "uint256"
						},
						{
							"indexed": true,
							"internalType": "address",
							"name": "approver",
							"type": "address"
						}
					],
					"name": "ApprovedTx",
					"type": "event"
				},
				{
					"anonymous": false,
					"inputs": [
						{
							"indexed": true,
							"internalType": "address",
							"name": "sender",
							"type": "address"
						},
						{
							"indexed": true,
							"internalType": "uint256",
							"name": "value",
							"type": "uint256"
						},
						{
							"indexed": false,
							"internalType": "uint256",
							"name": "balance",
							"type": "uint256"
						}
					],
					"name": "Deposit",
					"type": "event"
				},
				{
					"anonymous": false,
					"inputs": [
						{
							"indexed": true,
							"internalType": "address",
							"name": "owner",
							"type": "address"
						},
						{
							"indexed": true,
							"internalType": "uint256",
							"name": "txId",
							"type": "uint256"
						}
					],
					"name": "RevokeApproval",
					"type": "event"
				},
				{
					"anonymous": false,
					"inputs": [
						{
							"indexed": true,
							"internalType": "address",
							"name": "to",
							"type": "address"
						},
						{
							"indexed": true,
							"internalType": "uint256",
							"name": "value",
							"type": "uint256"
						},
						{
							"indexed": true,
							"internalType": "bytes",
							"name": "data",
							"type": "bytes"
						}
					],
					"name": "SubmittedTx",
					"type": "event"
				},
				{
					"anonymous": false,
					"inputs": [
						{
							"indexed": true,
							"internalType": "address",
							"name": "to",
							"type": "address"
						},
						{
							"indexed": true,
							"internalType": "uint256",
							"name": "value",
							"type": "uint256"
						},
						{
							"indexed": true,
							"internalType": "bytes",
							"name": "data",
							"type": "bytes"
						},
						{
							"indexed": false,
							"internalType": "address",
							"name": "executor",
							"type": "address"
						}
					],
					"name": "TxExecuted",
					"type": "event"
				},
				{
					"inputs": [
						{
							"internalType": "uint256",
							"name": "_txId",
							"type": "uint256"
						}
					],
					"name": "approveTx",
					"outputs": [],
					"stateMutability": "nonpayable",
					"type": "function"
				},
				{
					"inputs": [
						{
							"internalType": "uint256",
							"name": "_txId",
							"type": "uint256"
						},
						{
							"internalType": "address",
							"name": "_approver",
							"type": "address"
						}
					],
					"name": "checkApproved",
					"outputs": [
						{
							"internalType": "bool",
							"name": "",
							"type": "bool"
						}
					],
					"stateMutability": "view",
					"type": "function"
				},
				{
					"inputs": [
						{
							"internalType": "address",
							"name": "_owner",
							"type": "address"
						}
					],
					"name": "checkOwner",
					"outputs": [
						{
							"internalType": "bool",
							"name": "",
							"type": "bool"
						}
					],
					"stateMutability": "view",
					"type": "function"
				},
				{
					"inputs": [
						{
							"internalType": "uint256",
							"name": "_txId",
							"type": "uint256"
						}
					],
					"name": "executeTx",
					"outputs": [],
					"stateMutability": "nonpayable",
					"type": "function"
				},
				{
					"inputs": [
						{
							"internalType": "uint256",
							"name": "_txId",
							"type": "uint256"
						}
					],
					"name": "getTransaction",
					"outputs": [
						{
							"components": [
								{
									"internalType": "uint256",
									"name": "id",
									"type": "uint256"
								},
								{
									"internalType": "address",
									"name": "to",
									"type": "address"
								},
								{
									"internalType": "uint256",
									"name": "value",
									"type": "uint256"
								},
								{
									"internalType": "bytes",
									"name": "data",
									"type": "bytes"
								},
								{
									"internalType": "uint256",
									"name": "confirmations",
									"type": "uint256"
								},
								{
									"internalType": "bool",
									"name": "executed",
									"type": "bool"
								}
							],
							"internalType": "struct MultiSigWallet.Transaction",
							"name": "",
							"type": "tuple"
						}
					],
					"stateMutability": "view",
					"type": "function"
				},
				{
					"inputs": [],
					"name": "required",
					"outputs": [
						{
							"internalType": "uint256",
							"name": "",
							"type": "uint256"
						}
					],
					"stateMutability": "view",
					"type": "function"
				},
				{
					"inputs": [
						{
							"internalType": "uint256",
							"name": "_txId",
							"type": "uint256"
						}
					],
					"name": "revokeApproval",
					"outputs": [],
					"stateMutability": "nonpayable",
					"type": "function"
				},
				{
					"inputs": [
						{
							"internalType": "address",
							"name": "_to",
							"type": "address"
						},
						{
							"internalType": "uint256",
							"name": "_value",
							"type": "uint256"
						},
						{
							"internalType": "bytes",
							"name": "_data",
							"type": "bytes"
						}
					],
					"name": "submitTx",
					"outputs": [],
					"stateMutability": "nonpayable",
					"type": "function"
				},
				{
					"inputs": [],
					"name": "txId",
					"outputs": [
						{
							"internalType": "uint256",
							"name": "",
							"type": "uint256"
						}
					],
					"stateMutability": "view",
					"type": "function"
				},
				{
					"stateMutability": "payable",
					"type": "receive"
				}
			],
			"devdoc": {
				"kind": "dev",
				"methods": {},
				"version": 1
			},
			"evm": {
				"assembly": "    /* \"contracts/DeFi/MultiSigV2.sol\":58:4560  contract MultiSigWallet {... */\n  mstore(0x40, 0x80)\n    /* \"contracts/DeFi/MultiSigV2.sol\":1766:2280  constructor(address[] memory _owners, uint256 _required) {... */\n  callvalue\n  dup1\n  iszero\n  tag_1\n  jumpi\n  0x00\n  dup1\n  revert\ntag_1:\n  pop\n  mload(0x40)\n  sub(codesize, bytecodeSize)\n  dup1\n  bytecodeSize\n  dup4\n  codecopy\n  dup2\n  dup2\n  add\n  0x40\n  mstore\n  dup2\n  add\n  swap1\n  tag_2\n  swap2\n  swap1\n  tag_3\n  jump\t// in\ntag_2:\n    /* \"contracts/DeFi/MultiSigV2.sol\":1849:1856  _owners */\n  dup2\n    /* \"contracts/DeFi/MultiSigV2.sol\":1849:1863  _owners.length */\n  mload\n    /* \"contracts/DeFi/MultiSigV2.sol\":1837:1846  _required */\n  dup2\n    /* \"contracts/DeFi/MultiSigV2.sol\":1837:1863  _required > _owners.length */\n  gt\n    /* \"contracts/DeFi/MultiSigV2.sol\":1833:1917  if (_required > _owners.length) {... */\n  iszero\n  tag_6\n  jumpi\n    /* \"contracts/DeFi/MultiSigV2.sol\":1886:1906  InvalidNumRequired() */\n  mload(0x40)\n  0xaa6eac5100000000000000000000000000000000000000000000000000000000\n  dup2\n  mstore\n  0x04\n  add\n  mload(0x40)\n  dup1\n  swap2\n  sub\n  swap1\n  revert\n    /* \"contracts/DeFi/MultiSigV2.sol\":1833:1917  if (_required > _owners.length) {... */\ntag_6:\n    /* \"contracts/DeFi/MultiSigV2.sol\":1931:1940  uint256 i */\n  0x00\n    /* \"contracts/DeFi/MultiSigV2.sol\":1926:2244  for (uint256 i = 0; i < _owners.length; i++) {... */\ntag_7:\n    /* \"contracts/DeFi/MultiSigV2.sol\":1950:1957  _owners */\n  dup3\n    /* \"contracts/DeFi/MultiSigV2.sol\":1950:1964  _owners.length */\n  mload\n    /* \"contracts/DeFi/MultiSigV2.sol\":1946:1947  i */\n  dup2\n    /* \"contracts/DeFi/MultiSigV2.sol\":1946:1964  i < _owners.length */\n  lt\n    /* \"contracts/DeFi/MultiSigV2.sol\":1926:2244  for (uint256 i = 0; i < _owners.length; i++) {... */\n  iszero\n  tag_8\n  jumpi\n    /* \"contracts/DeFi/MultiSigV2.sol\":1985:1998  address owner */\n  0x00\n    /* \"contracts/DeFi/MultiSigV2.sol\":2001:2008  _owners */\n  dup4\n    /* \"contracts/DeFi/MultiSigV2.sol\":2009:2010  i */\n  dup3\n    /* \"contracts/DeFi/MultiSigV2.sol\":2001:2011  _owners[i] */\n  dup2\n  mload\n  dup2\n  lt\n  tag_10\n  jumpi\n  tag_11\n  tag_12\n  jump\t// in\ntag_11:\ntag_10:\n  0x20\n  mul\n  0x20\n  add\n  add\n  mload\n    /* \"contracts/DeFi/MultiSigV2.sol\":1985:2011  address owner = _owners[i] */\n  swap1\n  pop\n    /* \"contracts/DeFi/MultiSigV2.sol\":2047:2048  0 */\n  0x00\n    /* \"contracts/DeFi/MultiSigV2.sol\":2030:2049  owner == address(0) */\n  0xffffffffffffffffffffffffffffffffffffffff\n  and\n    /* \"contracts/DeFi/MultiSigV2.sol\":2030:2035  owner */\n  dup2\n    /* \"contracts/DeFi/MultiSigV2.sol\":2030:2049  owner == address(0) */\n  0xffffffffffffffffffffffffffffffffffffffff\n  and\n  sub\n    /* \"contracts/DeFi/MultiSigV2.sol\":2026:2112  if (owner == address(0)) {... */\n  tag_13\n  jumpi\n    /* \"contracts/DeFi/MultiSigV2.sol\":2076:2097  InvalidOwnerAddress() */\n  mload(0x40)\n  0xd924e5f400000000000000000000000000000000000000000000000000000000\n  dup2\n  mstore\n  0x04\n  add\n  mload(0x40)\n  dup1\n  swap2\n  sub\n  swap1\n  revert\n    /* \"contracts/DeFi/MultiSigV2.sol\":2026:2112  if (owner == address(0)) {... */\ntag_13:\n    /* \"contracts/DeFi/MultiSigV2.sol\":2129:2136  isOwner */\n  0x00\n    /* \"contracts/DeFi/MultiSigV2.sol\":2129:2143  isOwner[owner] */\n  dup1\n    /* \"contracts/DeFi/MultiSigV2.sol\":2137:2142  owner */\n  dup3\n    /* \"contracts/DeFi/MultiSigV2.sol\":2129:2143  isOwner[owner] */\n  0xffffffffffffffffffffffffffffffffffffffff\n  and\n  0xffffffffffffffffffffffffffffffffffffffff\n  and\n  dup2\n  mstore\n  0x20\n  add\n  swap1\n  dup2\n  mstore\n  0x20\n  add\n  0x00\n  keccak256\n  0x00\n  swap1\n  sload\n  swap1\n  0x0100\n  exp\n  swap1\n  div\n  0xff\n  and\n    /* \"contracts/DeFi/MultiSigV2.sol\":2125:2199  if (isOwner[owner]) {... */\n  iszero\n  tag_14\n  jumpi\n    /* \"contracts/DeFi/MultiSigV2.sol\":2170:2184  AlreadyOwner() */\n  mload(0x40)\n  0xc0159e0e00000000000000000000000000000000000000000000000000000000\n  dup2\n  mstore\n  0x04\n  add\n  mload(0x40)\n  dup1\n  swap2\n  sub\n  swap1\n  revert\n    /* \"contracts/DeFi/MultiSigV2.sol\":2125:2199  if (isOwner[owner]) {... */\ntag_14:\n    /* \"contracts/DeFi/MultiSigV2.sol\":2229:2233  true */\n  0x01\n    /* \"contracts/DeFi/MultiSigV2.sol\":2212:2219  isOwner */\n  0x00\n    /* \"contracts/DeFi/MultiSigV2.sol\":2212:2226  isOwner[owner] */\n  dup1\n    /* \"contracts/DeFi/MultiSigV2.sol\":2220:2225  owner */\n  dup4\n    /* \"contracts/DeFi/MultiSigV2.sol\":2212:2226  isOwner[owner] */\n  0xffffffffffffffffffffffffffffffffffffffff\n  and\n  0xffffffffffffffffffffffffffffffffffffffff\n  and\n  dup2\n  mstore\n  0x20\n  add\n  swap1\n  dup2\n  mstore\n  0x20\n  add\n  0x00\n  keccak256\n  0x00\n    /* \"contracts/DeFi/MultiSigV2.sol\":2212:2233  isOwner[owner] = true */\n  0x0100\n  exp\n  dup2\n  sload\n  dup2\n  0xff\n  mul\n  not\n  and\n  swap1\n  dup4\n  iszero\n  iszero\n  mul\n  or\n  swap1\n  sstore\n  pop\n    /* \"contracts/DeFi/MultiSigV2.sol\":1971:2244  {... */\n  pop\n    /* \"contracts/DeFi/MultiSigV2.sol\":1966:1969  i++ */\n  dup1\n  dup1\n  tag_15\n  swap1\n  tag_16\n  jump\t// in\ntag_15:\n  swap2\n  pop\n  pop\n    /* \"contracts/DeFi/MultiSigV2.sol\":1926:2244  for (uint256 i = 0; i < _owners.length; i++) {... */\n  jump(tag_7)\ntag_8:\n  pop\n    /* \"contracts/DeFi/MultiSigV2.sol\":2264:2273  _required */\n  dup1\n    /* \"contracts/DeFi/MultiSigV2.sol\":2253:2261  required */\n  0x03\n    /* \"contracts/DeFi/MultiSigV2.sol\":2253:2273  required = _required */\n  dup2\n  swap1\n  sstore\n  pop\n    /* \"contracts/DeFi/MultiSigV2.sol\":1766:2280  constructor(address[] memory _owners, uint256 _required) {... */\n  pop\n  pop\n    /* \"contracts/DeFi/MultiSigV2.sol\":58:4560  contract MultiSigWallet {... */\n  jump(tag_17)\n    /* \"#utility.yul\":7:82   */\ntag_18:\n    /* \"#utility.yul\":40:46   */\n  0x00\n    /* \"#utility.yul\":73:75   */\n  0x40\n    /* \"#utility.yul\":67:76   */\n  mload\n    /* \"#utility.yul\":57:76   */\n  swap1\n  pop\n    /* \"#utility.yul\":7:82   */\n  swap1\n  jump\t// out\n    /* \"#utility.yul\":88:205   */\ntag_19:\n    /* \"#utility.yul\":197:198   */\n  0x00\n    /* \"#utility.yul\":194:195   */\n  dup1\n    /* \"#utility.yul\":187:199   */\n  revert\n    /* \"#utility.yul\":211:328   */\ntag_20:\n    /* \"#utility.yul\":320:321   */\n  0x00\n    /* \"#utility.yul\":317:318   */\n  dup1\n    /* \"#utility.yul\":310:322   */\n  revert\n    /* \"#utility.yul\":334:451   */\ntag_21:\n    /* \"#utility.yul\":443:444   */\n  0x00\n    /* \"#utility.yul\":440:441   */\n  dup1\n    /* \"#utility.yul\":433:445   */\n  revert\n    /* \"#utility.yul\":457:559   */\ntag_22:\n    /* \"#utility.yul\":498:504   */\n  0x00\n    /* \"#utility.yul\":549:551   */\n  0x1f\n    /* \"#utility.yul\":545:552   */\n  not\n    /* \"#utility.yul\":540:542   */\n  0x1f\n    /* \"#utility.yul\":533:538   */\n  dup4\n    /* \"#utility.yul\":529:543   */\n  add\n    /* \"#utility.yul\":525:553   */\n  and\n    /* \"#utility.yul\":515:553   */\n  swap1\n  pop\n    /* \"#utility.yul\":457:559   */\n  swap2\n  swap1\n  pop\n  jump\t// out\n    /* \"#utility.yul\":565:745   */\ntag_23:\n    /* \"#utility.yul\":613:690   */\n  0x4e487b7100000000000000000000000000000000000000000000000000000000\n    /* \"#utility.yul\":610:611   */\n  0x00\n    /* \"#utility.yul\":603:691   */\n  mstore\n    /* \"#utility.yul\":710:714   */\n  0x41\n    /* \"#utility.yul\":707:708   */\n  0x04\n    /* \"#utility.yul\":700:715   */\n  mstore\n    /* \"#utility.yul\":734:738   */\n  0x24\n    /* \"#utility.yul\":731:732   */\n  0x00\n    /* \"#utility.yul\":724:739   */\n  revert\n    /* \"#utility.yul\":751:1032   */\ntag_24:\n    /* \"#utility.yul\":834:861   */\n  tag_46\n    /* \"#utility.yul\":856:860   */\n  dup3\n    /* \"#utility.yul\":834:861   */\n  tag_22\n  jump\t// in\ntag_46:\n    /* \"#utility.yul\":826:832   */\n  dup2\n    /* \"#utility.yul\":822:862   */\n  add\n    /* \"#utility.yul\":964:970   */\n  dup2\n    /* \"#utility.yul\":952:962   */\n  dup2\n    /* \"#utility.yul\":949:971   */\n  lt\n    /* \"#utility.yul\":928:946   */\n  0xffffffffffffffff\n    /* \"#utility.yul\":916:926   */\n  dup3\n    /* \"#utility.yul\":913:947   */\n  gt\n    /* \"#utility.yul\":910:972   */\n  or\n    /* \"#utility.yul\":907:995   */\n  iszero\n  tag_47\n  jumpi\n    /* \"#utility.yul\":975:993   */\n  tag_48\n  tag_23\n  jump\t// in\ntag_48:\n    /* \"#utility.yul\":907:995   */\ntag_47:\n    /* \"#utility.yul\":1015:1025   */\n  dup1\n    /* \"#utility.yul\":1011:1013   */\n  0x40\n    /* \"#utility.yul\":1004:1026   */\n  mstore\n    /* \"#utility.yul\":794:1032   */\n  pop\n    /* \"#utility.yul\":751:1032   */\n  pop\n  pop\n  jump\t// out\n    /* \"#utility.yul\":1038:1167   */\ntag_25:\n    /* \"#utility.yul\":1072:1078   */\n  0x00\n    /* \"#utility.yul\":1099:1119   */\n  tag_50\n  tag_18\n  jump\t// in\ntag_50:\n    /* \"#utility.yul\":1089:1119   */\n  swap1\n  pop\n    /* \"#utility.yul\":1128:1161   */\n  tag_51\n    /* \"#utility.yul\":1156:1160   */\n  dup3\n    /* \"#utility.yul\":1148:1154   */\n  dup3\n    /* \"#utility.yul\":1128:1161   */\n  tag_24\n  jump\t// in\ntag_51:\n    /* \"#utility.yul\":1038:1167   */\n  swap2\n  swap1\n  pop\n  jump\t// out\n    /* \"#utility.yul\":1173:1484   */\ntag_26:\n    /* \"#utility.yul\":1250:1254   */\n  0x00\n    /* \"#utility.yul\":1340:1358   */\n  0xffffffffffffffff\n    /* \"#utility.yul\":1332:1338   */\n  dup3\n    /* \"#utility.yul\":1329:1359   */\n  gt\n    /* \"#utility.yul\":1326:1382   */\n  iszero\n  tag_53\n  jumpi\n    /* \"#utility.yul\":1362:1380   */\n  tag_54\n  tag_23\n  jump\t// in\ntag_54:\n    /* \"#utility.yul\":1326:1382   */\ntag_53:\n    /* \"#utility.yul\":1412:1416   */\n  0x20\n    /* \"#utility.yul\":1404:1410   */\n  dup3\n    /* \"#utility.yul\":1400:1417   */\n  mul\n    /* \"#utility.yul\":1392:1417   */\n  swap1\n  pop\n    /* \"#utility.yul\":1472:1476   */\n  0x20\n    /* \"#utility.yul\":1466:1470   */\n  dup2\n    /* \"#utility.yul\":1462:1477   */\n  add\n    /* \"#utility.yul\":1454:1477   */\n  swap1\n  pop\n    /* \"#utility.yul\":1173:1484   */\n  swap2\n  swap1\n  pop\n  jump\t// out\n    /* \"#utility.yul\":1490:1607   */\ntag_27:\n    /* \"#utility.yul\":1599:1600   */\n  0x00\n    /* \"#utility.yul\":1596:1597   */\n  dup1\n    /* \"#utility.yul\":1589:1601   */\n  revert\n    /* \"#utility.yul\":1613:1739   */\ntag_28:\n    /* \"#utility.yul\":1650:1657   */\n  0x00\n    /* \"#utility.yul\":1690:1732   */\n  0xffffffffffffffffffffffffffffffffffffffff\n    /* \"#utility.yul\":1683:1688   */\n  dup3\n    /* \"#utility.yul\":1679:1733   */\n  and\n    /* \"#utility.yul\":1668:1733   */\n  swap1\n  pop\n    /* \"#utility.yul\":1613:1739   */\n  swap2\n  swap1\n  pop\n  jump\t// out\n    /* \"#utility.yul\":1745:1841   */\ntag_29:\n    /* \"#utility.yul\":1782:1789   */\n  0x00\n    /* \"#utility.yul\":1811:1835   */\n  tag_58\n    /* \"#utility.yul\":1829:1834   */\n  dup3\n    /* \"#utility.yul\":1811:1835   */\n  tag_28\n  jump\t// in\ntag_58:\n    /* \"#utility.yul\":1800:1835   */\n  swap1\n  pop\n    /* \"#utility.yul\":1745:1841   */\n  swap2\n  swap1\n  pop\n  jump\t// out\n    /* \"#utility.yul\":1847:1969   */\ntag_30:\n    /* \"#utility.yul\":1920:1944   */\n  tag_60\n    /* \"#utility.yul\":1938:1943   */\n  dup2\n    /* \"#utility.yul\":1920:1944   */\n  tag_29\n  jump\t// in\ntag_60:\n    /* \"#utility.yul\":1913:1918   */\n  dup2\n    /* \"#utility.yul\":1910:1945   */\n  eq\n    /* \"#utility.yul\":1900:1963   */\n  tag_61\n  jumpi\n    /* \"#utility.yul\":1959:1960   */\n  0x00\n    /* \"#utility.yul\":1956:1957   */\n  dup1\n    /* \"#utility.yul\":1949:1961   */\n  revert\n    /* \"#utility.yul\":1900:1963   */\ntag_61:\n    /* \"#utility.yul\":1847:1969   */\n  pop\n  jump\t// out\n    /* \"#utility.yul\":1975:2118   */\ntag_31:\n    /* \"#utility.yul\":2032:2037   */\n  0x00\n    /* \"#utility.yul\":2063:2069   */\n  dup2\n    /* \"#utility.yul\":2057:2070   */\n  mload\n    /* \"#utility.yul\":2048:2070   */\n  swap1\n  pop\n    /* \"#utility.yul\":2079:2112   */\n  tag_63\n    /* \"#utility.yul\":2106:2111   */\n  dup2\n    /* \"#utility.yul\":2079:2112   */\n  tag_30\n  jump\t// in\ntag_63:\n    /* \"#utility.yul\":1975:2118   */\n  swap3\n  swap2\n  pop\n  pop\n  jump\t// out\n    /* \"#utility.yul\":2141:2873   */\ntag_32:\n    /* \"#utility.yul\":2248:2253   */\n  0x00\n    /* \"#utility.yul\":2273:2354   */\n  tag_65\n    /* \"#utility.yul\":2289:2353   */\n  tag_66\n    /* \"#utility.yul\":2346:2352   */\n  dup5\n    /* \"#utility.yul\":2289:2353   */\n  tag_26\n  jump\t// in\ntag_66:\n    /* \"#utility.yul\":2273:2354   */\n  tag_25\n  jump\t// in\ntag_65:\n    /* \"#utility.yul\":2264:2354   */\n  swap1\n  pop\n    /* \"#utility.yul\":2374:2379   */\n  dup1\n    /* \"#utility.yul\":2403:2409   */\n  dup4\n    /* \"#utility.yul\":2396:2401   */\n  dup3\n    /* \"#utility.yul\":2389:2410   */\n  mstore\n    /* \"#utility.yul\":2437:2441   */\n  0x20\n    /* \"#utility.yul\":2430:2435   */\n  dup3\n    /* \"#utility.yul\":2426:2442   */\n  add\n    /* \"#utility.yul\":2419:2442   */\n  swap1\n  pop\n    /* \"#utility.yul\":2490:2494   */\n  0x20\n    /* \"#utility.yul\":2482:2488   */\n  dup5\n    /* \"#utility.yul\":2478:2495   */\n  mul\n    /* \"#utility.yul\":2470:2476   */\n  dup4\n    /* \"#utility.yul\":2466:2496   */\n  add\n    /* \"#utility.yul\":2519:2522   */\n  dup6\n    /* \"#utility.yul\":2511:2517   */\n  dup2\n    /* \"#utility.yul\":2508:2523   */\n  gt\n    /* \"#utility.yul\":2505:2627   */\n  iszero\n  tag_67\n  jumpi\n    /* \"#utility.yul\":2538:2617   */\n  tag_68\n  tag_27\n  jump\t// in\ntag_68:\n    /* \"#utility.yul\":2505:2627   */\ntag_67:\n    /* \"#utility.yul\":2653:2659   */\n  dup4\n    /* \"#utility.yul\":2636:2867   */\ntag_69:\n    /* \"#utility.yul\":2670:2676   */\n  dup2\n    /* \"#utility.yul\":2665:2668   */\n  dup2\n    /* \"#utility.yul\":2662:2677   */\n  lt\n    /* \"#utility.yul\":2636:2867   */\n  iszero\n  tag_71\n  jumpi\n    /* \"#utility.yul\":2745:2748   */\n  dup1\n    /* \"#utility.yul\":2774:2822   */\n  tag_72\n    /* \"#utility.yul\":2818:2821   */\n  dup9\n    /* \"#utility.yul\":2806:2816   */\n  dup3\n    /* \"#utility.yul\":2774:2822   */\n  tag_31\n  jump\t// in\ntag_72:\n    /* \"#utility.yul\":2769:2772   */\n  dup5\n    /* \"#utility.yul\":2762:2823   */\n  mstore\n    /* \"#utility.yul\":2852:2856   */\n  0x20\n    /* \"#utility.yul\":2847:2850   */\n  dup5\n    /* \"#utility.yul\":2843:2857   */\n  add\n    /* \"#utility.yul\":2836:2857   */\n  swap4\n  pop\n    /* \"#utility.yul\":2712:2867   */\n  pop\n    /* \"#utility.yul\":2696:2700   */\n  0x20\n    /* \"#utility.yul\":2691:2694   */\n  dup2\n    /* \"#utility.yul\":2687:2701   */\n  add\n    /* \"#utility.yul\":2680:2701   */\n  swap1\n  pop\n    /* \"#utility.yul\":2636:2867   */\n  jump(tag_69)\ntag_71:\n    /* \"#utility.yul\":2640:2661   */\n  pop\n    /* \"#utility.yul\":2254:2873   */\n  pop\n  pop\n    /* \"#utility.yul\":2141:2873   */\n  swap4\n  swap3\n  pop\n  pop\n  pop\n  jump\t// out\n    /* \"#utility.yul\":2896:3281   */\ntag_33:\n    /* \"#utility.yul\":2978:2983   */\n  0x00\n    /* \"#utility.yul\":3027:3030   */\n  dup3\n    /* \"#utility.yul\":3020:3024   */\n  0x1f\n    /* \"#utility.yul\":3012:3018   */\n  dup4\n    /* \"#utility.yul\":3008:3025   */\n  add\n    /* \"#utility.yul\":3004:3031   */\n  slt\n    /* \"#utility.yul\":2994:3116   */\n  tag_74\n  jumpi\n    /* \"#utility.yul\":3035:3114   */\n  tag_75\n  tag_21\n  jump\t// in\ntag_75:\n    /* \"#utility.yul\":2994:3116   */\ntag_74:\n    /* \"#utility.yul\":3145:3151   */\n  dup2\n    /* \"#utility.yul\":3139:3152   */\n  mload\n    /* \"#utility.yul\":3170:3275   */\n  tag_76\n    /* \"#utility.yul\":3271:3274   */\n  dup5\n    /* \"#utility.yul\":3263:3269   */\n  dup3\n    /* \"#utility.yul\":3256:3260   */\n  0x20\n    /* \"#utility.yul\":3248:3254   */\n  dup7\n    /* \"#utility.yul\":3244:3261   */\n  add\n    /* \"#utility.yul\":3170:3275   */\n  tag_32\n  jump\t// in\ntag_76:\n    /* \"#utility.yul\":3161:3275   */\n  swap2\n  pop\n    /* \"#utility.yul\":2984:3281   */\n  pop\n    /* \"#utility.yul\":2896:3281   */\n  swap3\n  swap2\n  pop\n  pop\n  jump\t// out\n    /* \"#utility.yul\":3287:3364   */\ntag_34:\n    /* \"#utility.yul\":3324:3331   */\n  0x00\n    /* \"#utility.yul\":3353:3358   */\n  dup2\n    /* \"#utility.yul\":3342:3358   */\n  swap1\n  pop\n    /* \"#utility.yul\":3287:3364   */\n  swap2\n  swap1\n  pop\n  jump\t// out\n    /* \"#utility.yul\":3370:3492   */\ntag_35:\n    /* \"#utility.yul\":3443:3467   */\n  tag_79\n    /* \"#utility.yul\":3461:3466   */\n  dup2\n    /* \"#utility.yul\":3443:3467   */\n  tag_34\n  jump\t// in\ntag_79:\n    /* \"#utility.yul\":3436:3441   */\n  dup2\n    /* \"#utility.yul\":3433:3468   */\n  eq\n    /* \"#utility.yul\":3423:3486   */\n  tag_80\n  jumpi\n    /* \"#utility.yul\":3482:3483   */\n  0x00\n    /* \"#utility.yul\":3479:3480   */\n  dup1\n    /* \"#utility.yul\":3472:3484   */\n  revert\n    /* \"#utility.yul\":3423:3486   */\ntag_80:\n    /* \"#utility.yul\":3370:3492   */\n  pop\n  jump\t// out\n    /* \"#utility.yul\":3498:3641   */\ntag_36:\n    /* \"#utility.yul\":3555:3560   */\n  0x00\n    /* \"#utility.yul\":3586:3592   */\n  dup2\n    /* \"#utility.yul\":3580:3593   */\n  mload\n    /* \"#utility.yul\":3571:3593   */\n  swap1\n  pop\n    /* \"#utility.yul\":3602:3635   */\n  tag_82\n    /* \"#utility.yul\":3629:3634   */\n  dup2\n    /* \"#utility.yul\":3602:3635   */\n  tag_35\n  jump\t// in\ntag_82:\n    /* \"#utility.yul\":3498:3641   */\n  swap3\n  swap2\n  pop\n  pop\n  jump\t// out\n    /* \"#utility.yul\":3647:4357   */\ntag_3:\n    /* \"#utility.yul\":3751:3757   */\n  0x00\n    /* \"#utility.yul\":3759:3765   */\n  dup1\n    /* \"#utility.yul\":3808:3810   */\n  0x40\n    /* \"#utility.yul\":3796:3805   */\n  dup4\n    /* \"#utility.yul\":3787:3794   */\n  dup6\n    /* \"#utility.yul\":3783:3806   */\n  sub\n    /* \"#utility.yul\":3779:3811   */\n  slt\n    /* \"#utility.yul\":3776:3895   */\n  iszero\n  tag_84\n  jumpi\n    /* \"#utility.yul\":3814:3893   */\n  tag_85\n  tag_19\n  jump\t// in\ntag_85:\n    /* \"#utility.yul\":3776:3895   */\ntag_84:\n    /* \"#utility.yul\":3955:3956   */\n  0x00\n    /* \"#utility.yul\":3944:3953   */\n  dup4\n    /* \"#utility.yul\":3940:3957   */\n  add\n    /* \"#utility.yul\":3934:3958   */\n  mload\n    /* \"#utility.yul\":3985:4003   */\n  0xffffffffffffffff\n    /* \"#utility.yul\":3977:3983   */\n  dup2\n    /* \"#utility.yul\":3974:4004   */\n  gt\n    /* \"#utility.yul\":3971:4088   */\n  iszero\n  tag_86\n  jumpi\n    /* \"#utility.yul\":4007:4086   */\n  tag_87\n  tag_20\n  jump\t// in\ntag_87:\n    /* \"#utility.yul\":3971:4088   */\ntag_86:\n    /* \"#utility.yul\":4112:4201   */\n  tag_88\n    /* \"#utility.yul\":4193:4200   */\n  dup6\n    /* \"#utility.yul\":4184:4190   */\n  dup3\n    /* \"#utility.yul\":4173:4182   */\n  dup7\n    /* \"#utility.yul\":4169:4191   */\n  add\n    /* \"#utility.yul\":4112:4201   */\n  tag_33\n  jump\t// in\ntag_88:\n    /* \"#utility.yul\":4102:4201   */\n  swap3\n  pop\n    /* \"#utility.yul\":3905:4211   */\n  pop\n    /* \"#utility.yul\":4250:4252   */\n  0x20\n    /* \"#utility.yul\":4276:4340   */\n  tag_89\n    /* \"#utility.yul\":4332:4339   */\n  dup6\n    /* \"#utility.yul\":4323:4329   */\n  dup3\n    /* \"#utility.yul\":4312:4321   */\n  dup7\n    /* \"#utility.yul\":4308:4330   */\n  add\n    /* \"#utility.yul\":4276:4340   */\n  tag_36\n  jump\t// in\ntag_89:\n    /* \"#utility.yul\":4266:4340   */\n  swap2\n  pop\n    /* \"#utility.yul\":4221:4350   */\n  pop\n    /* \"#utility.yul\":3647:4357   */\n  swap3\n  pop\n  swap3\n  swap1\n  pop\n  jump\t// out\n    /* \"#utility.yul\":4363:4543   */\ntag_12:\n    /* \"#utility.yul\":4411:4488   */\n  0x4e487b7100000000000000000000000000000000000000000000000000000000\n    /* \"#utility.yul\":4408:4409   */\n  0x00\n    /* \"#utility.yul\":4401:4489   */\n  mstore\n    /* \"#utility.yul\":4508:4512   */\n  0x32\n    /* \"#utility.yul\":4505:4506   */\n  0x04\n    /* \"#utility.yul\":4498:4513   */\n  mstore\n    /* \"#utility.yul\":4532:4536   */\n  0x24\n    /* \"#utility.yul\":4529:4530   */\n  0x00\n    /* \"#utility.yul\":4522:4537   */\n  revert\n    /* \"#utility.yul\":4549:4729   */\ntag_37:\n    /* \"#utility.yul\":4597:4674   */\n  0x4e487b7100000000000000000000000000000000000000000000000000000000\n    /* \"#utility.yul\":4594:4595   */\n  0x00\n    /* \"#utility.yul\":4587:4675   */\n  mstore\n    /* \"#utility.yul\":4694:4698   */\n  0x11\n    /* \"#utility.yul\":4691:4692   */\n  0x04\n    /* \"#utility.yul\":4684:4699   */\n  mstore\n    /* \"#utility.yul\":4718:4722   */\n  0x24\n    /* \"#utility.yul\":4715:4716   */\n  0x00\n    /* \"#utility.yul\":4708:4723   */\n  revert\n    /* \"#utility.yul\":4735:4968   */\ntag_16:\n    /* \"#utility.yul\":4774:4777   */\n  0x00\n    /* \"#utility.yul\":4797:4821   */\n  tag_93\n    /* \"#utility.yul\":4815:4820   */\n  dup3\n    /* \"#utility.yul\":4797:4821   */\n  tag_34\n  jump\t// in\ntag_93:\n    /* \"#utility.yul\":4788:4821   */\n  swap2\n  pop\n    /* \"#utility.yul\":4843:4909   */\n  0xffffffffffffffffffffffffffffffffffffffffffffffffffffffffffffffff\n    /* \"#utility.yul\":4836:4841   */\n  dup3\n    /* \"#utility.yul\":4833:4910   */\n  sub\n    /* \"#utility.yul\":4830:4933   */\n  tag_94\n  jumpi\n    /* \"#utility.yul\":4913:4931   */\n  tag_95\n  tag_37\n  jump\t// in\ntag_95:\n    /* \"#utility.yul\":4830:4933   */\ntag_94:\n    /* \"#utility.yul\":4960:4961   */\n  0x01\n    /* \"#utility.yul\":4953:4958   */\n  dup3\n    /* \"#utility.yul\":4949:4962   */\n  add\n    /* \"#utility.yul\":4942:4962   */\n  swap1\n  pop\n    /* \"#utility.yul\":4735:4968   */\n  swap2\n  swap1\n  pop\n  jump\t// out\n    /* \"contracts/DeFi/MultiSigV2.sol\":58:4560  contract MultiSigWallet {... */\ntag_17:\n  dataSize(sub_0)\n  dup1\n  dataOffset(sub_0)\n  0x00\n  codecopy\n  0x00\n  return\nstop\n\nsub_0: assembly {\n        /* \"contracts/DeFi/MultiSigV2.sol\":58:4560  contract MultiSigWallet {... */\n      mstore(0x40, 0x80)\n      jumpi(tag_1, lt(calldatasize, 0x04))\n      shr(0xe0, calldataload(0x00))\n      dup1\n      0xb1e130fc\n      gt\n      tag_12\n      jumpi\n      dup1\n      0xb1e130fc\n      eq\n      tag_7\n      jumpi\n      dup1\n      0xbb84c5a9\n      eq\n      tag_8\n      jumpi\n      dup1\n      0xcd568d1f\n      eq\n      tag_9\n      jumpi\n      dup1\n      0xdc8452cd\n      eq\n      tag_10\n      jumpi\n      dup1\n      0xe0e3671c\n      eq\n      tag_11\n      jumpi\n      jump(tag_2)\n    tag_12:\n      dup1\n      0x1087393a\n      eq\n      tag_3\n      jumpi\n      dup1\n      0x33ea3dc8\n      eq\n      tag_4\n      jumpi\n      dup1\n      0x54b5fe80\n      eq\n      tag_5\n      jumpi\n      dup1\n      0x8f9487eb\n      eq\n      tag_6\n      jumpi\n      jump(tag_2)\n    tag_1:\n      jumpi(tag_2, calldatasize)\n        /* \"contracts/DeFi/MultiSigV2.sol\":2348:2357  msg.value */\n      callvalue\n        /* \"contracts/DeFi/MultiSigV2.sol\":2336:2346  msg.sender */\n      caller\n        /* \"contracts/DeFi/MultiSigV2.sol\":2328:2381  Deposit(msg.sender, msg.value, address(this).balance) */\n      0xffffffffffffffffffffffffffffffffffffffff\n      and\n      0x90890809c654f11d6e72a28fa60149770a0d11ec6c92319d6ceb2bb0a4ea1a15\n        /* \"contracts/DeFi/MultiSigV2.sol\":2359:2380  address(this).balance */\n      selfbalance\n        /* \"contracts/DeFi/MultiSigV2.sol\":2328:2381  Deposit(msg.sender, msg.value, address(this).balance) */\n      mload(0x40)\n      tag_15\n      swap2\n      swap1\n      tag_16\n      jump\t// in\n    tag_15:\n      mload(0x40)\n      dup1\n      swap2\n      sub\n      swap1\n      log3\n        /* \"contracts/DeFi/MultiSigV2.sol\":58:4560  contract MultiSigWallet {... */\n      stop\n    tag_2:\n      0x00\n      dup1\n      revert\n        /* \"contracts/DeFi/MultiSigV2.sol\":2778:3069  function approveTx(uint256 _txId)... */\n    tag_3:\n      callvalue\n      dup1\n      iszero\n      tag_17\n      jumpi\n      0x00\n      dup1\n      revert\n    tag_17:\n      pop\n      tag_18\n      0x04\n      dup1\n      calldatasize\n      sub\n      dup2\n      add\n      swap1\n      tag_19\n      swap2\n      swap1\n      tag_20\n      jump\t// in\n    tag_19:\n      tag_21\n      jump\t// in\n    tag_18:\n      stop\n        /* \"contracts/DeFi/MultiSigV2.sol\":4165:4306  function getTransaction(uint256 _txId) external view txExists(_txId) returns (Transaction memory) {... */\n    tag_4:\n      callvalue\n      dup1\n      iszero\n      tag_22\n      jumpi\n      0x00\n      dup1\n      revert\n    tag_22:\n      pop\n      tag_23\n      0x04\n      dup1\n      calldatasize\n      sub\n      dup2\n      add\n      swap1\n      tag_24\n      swap2\n      swap1\n      tag_20\n      jump\t// in\n    tag_24:\n      tag_25\n      jump\t// in\n    tag_23:\n      mload(0x40)\n      tag_26\n      swap2\n      swap1\n      tag_27\n      jump\t// in\n    tag_26:\n      mload(0x40)\n      dup1\n      swap2\n      sub\n      swap1\n      return\n        /* \"contracts/DeFi/MultiSigV2.sol\":3075:3765  function executeTx(uint256 _txId)... */\n    tag_5:\n      callvalue\n      dup1\n      iszero\n      tag_28\n      jumpi\n      0x00\n      dup1\n      revert\n    tag_28:\n      pop\n      tag_29\n      0x04\n      dup1\n      calldatasize\n      sub\n      dup2\n      add\n      swap1\n      tag_30\n      swap2\n      swap1\n      tag_20\n      jump\t// in\n    tag_30:\n      tag_31\n      jump\t// in\n    tag_29:\n      stop\n        /* \"contracts/DeFi/MultiSigV2.sol\":4422:4558  function checkApproved(uint256 _txId, address _approver) external view returns (bool) {... */\n    tag_6:\n      callvalue\n      dup1\n      iszero\n      tag_32\n      jumpi\n      0x00\n      dup1\n      revert\n    tag_32:\n      pop\n      tag_33\n      0x04\n      dup1\n      calldatasize\n      sub\n      dup2\n      add\n      swap1\n      tag_34\n      swap2\n      swap1\n      tag_35\n      jump\t// in\n    tag_34:\n      tag_36\n      jump\t// in\n    tag_33:\n      mload(0x40)\n      tag_37\n      swap2\n      swap1\n      tag_38\n      jump\t// in\n    tag_37:\n      mload(0x40)\n      dup1\n      swap2\n      sub\n      swap1\n      return\n        /* \"contracts/DeFi/MultiSigV2.sol\":3771:4159  function revokeApproval(uint256 _txId)... */\n    tag_7:\n      callvalue\n      dup1\n      iszero\n      tag_39\n      jumpi\n      0x00\n      dup1\n      revert\n    tag_39:\n      pop\n      tag_40\n      0x04\n      dup1\n      calldatasize\n      sub\n      dup2\n      add\n      swap1\n      tag_41\n      swap2\n      swap1\n      tag_20\n      jump\t// in\n    tag_41:\n      tag_42\n      jump\t// in\n    tag_40:\n      stop\n        /* \"contracts/DeFi/MultiSigV2.sol\":2394:2772  function submitTx(... */\n    tag_8:\n      callvalue\n      dup1\n      iszero\n      tag_43\n      jumpi\n      0x00\n      dup1\n      revert\n    tag_43:\n      pop\n      tag_44\n      0x04\n      dup1\n      calldatasize\n      sub\n      dup2\n      add\n      swap1\n      tag_45\n      swap2\n      swap1\n      tag_46\n      jump\t// in\n    tag_45:\n      tag_47\n      jump\t// in\n    tag_44:\n      stop\n        /* \"contracts/DeFi/MultiSigV2.sol\":870:889  uint256 public txId */\n    tag_9:\n      callvalue\n      dup1\n      iszero\n      tag_48\n      jumpi\n      0x00\n      dup1\n      revert\n    tag_48:\n      pop\n      tag_49\n      tag_50\n      jump\t// in\n    tag_49:\n      mload(0x40)\n      tag_51\n      swap2\n      swap1\n      tag_16\n      jump\t// in\n    tag_51:\n      mload(0x40)\n      dup1\n      swap2\n      sub\n      swap1\n      return\n        /* \"contracts/DeFi/MultiSigV2.sol\":841:864  uint256 public required */\n    tag_10:\n      callvalue\n      dup1\n      iszero\n      tag_52\n      jumpi\n      0x00\n      dup1\n      revert\n    tag_52:\n      pop\n      tag_53\n      tag_54\n      jump\t// in\n    tag_53:\n      mload(0x40)\n      tag_55\n      swap2\n      swap1\n      tag_16\n      jump\t// in\n    tag_55:\n      mload(0x40)\n      dup1\n      swap2\n      sub\n      swap1\n      return\n        /* \"contracts/DeFi/MultiSigV2.sol\":4312:4416  function checkOwner(address _owner) external view returns (bool) {... */\n    tag_11:\n      callvalue\n      dup1\n      iszero\n      tag_56\n      jumpi\n      0x00\n      dup1\n      revert\n    tag_56:\n      pop\n      tag_57\n      0x04\n      dup1\n      calldatasize\n      sub\n      dup2\n      add\n      swap1\n      tag_58\n      swap2\n      swap1\n      tag_59\n      jump\t// in\n    tag_58:\n      tag_60\n      jump\t// in\n    tag_57:\n      mload(0x40)\n      tag_61\n      swap2\n      swap1\n      tag_38\n      jump\t// in\n    tag_61:\n      mload(0x40)\n      dup1\n      swap2\n      sub\n      swap1\n      return\n        /* \"contracts/DeFi/MultiSigV2.sol\":2778:3069  function approveTx(uint256 _txId)... */\n    tag_21:\n        /* \"contracts/DeFi/MultiSigV2.sol\":932:939  isOwner */\n      0x00\n        /* \"contracts/DeFi/MultiSigV2.sol\":932:951  isOwner[msg.sender] */\n      dup1\n        /* \"contracts/DeFi/MultiSigV2.sol\":940:950  msg.sender */\n      caller\n        /* \"contracts/DeFi/MultiSigV2.sol\":932:951  isOwner[msg.sender] */\n      0xffffffffffffffffffffffffffffffffffffffff\n      and\n      0xffffffffffffffffffffffffffffffffffffffff\n      and\n      dup2\n      mstore\n      0x20\n      add\n      swap1\n      dup2\n      mstore\n      0x20\n      add\n      0x00\n      keccak256\n      0x00\n      swap1\n      sload\n      swap1\n      0x0100\n      exp\n      swap1\n      div\n      0xff\n      and\n        /* \"contracts/DeFi/MultiSigV2.sol\":927:995  if (!isOwner[msg.sender]) {... */\n      tag_63\n      jumpi\n        /* \"contracts/DeFi/MultiSigV2.sol\":974:984  NotOwner() */\n      mload(0x40)\n      0x30cd747100000000000000000000000000000000000000000000000000000000\n      dup2\n      mstore\n      0x04\n      add\n      mload(0x40)\n      dup1\n      swap2\n      sub\n      swap1\n      revert\n        /* \"contracts/DeFi/MultiSigV2.sol\":927:995  if (!isOwner[msg.sender]) {... */\n    tag_63:\n        /* \"contracts/DeFi/MultiSigV2.sol\":2864:2869  _txId */\n      dup1\n        /* \"contracts/DeFi/MultiSigV2.sol\":1080:1081  1 */\n      0x01\n        /* \"contracts/DeFi/MultiSigV2.sol\":1073:1077  txId */\n      sload(0x04)\n        /* \"contracts/DeFi/MultiSigV2.sol\":1073:1081  txId - 1 */\n      tag_65\n      swap2\n      swap1\n      tag_66\n      jump\t// in\n    tag_65:\n        /* \"contracts/DeFi/MultiSigV2.sol\":1065:1070  _txId */\n      dup2\n        /* \"contracts/DeFi/MultiSigV2.sol\":1065:1081  _txId > txId - 1 */\n      gt\n        /* \"contracts/DeFi/MultiSigV2.sol\":1061:1131  if (_txId > txId - 1) {... */\n      iszero\n      tag_67\n      jumpi\n        /* \"contracts/DeFi/MultiSigV2.sol\":1104:1120  TxDoesNotExist() */\n      mload(0x40)\n      0x9e1b596f00000000000000000000000000000000000000000000000000000000\n      dup2\n      mstore\n      0x04\n      add\n      mload(0x40)\n      dup1\n      swap2\n      sub\n      swap1\n      revert\n        /* \"contracts/DeFi/MultiSigV2.sol\":1061:1131  if (_txId > txId - 1) {... */\n    tag_67:\n        /* \"contracts/DeFi/MultiSigV2.sol\":2891:2896  _txId */\n      dup2\n        /* \"contracts/DeFi/MultiSigV2.sol\":1358:1366  approved */\n      0x02\n        /* \"contracts/DeFi/MultiSigV2.sol\":1358:1373  approved[_txId] */\n      0x00\n        /* \"contracts/DeFi/MultiSigV2.sol\":1367:1372  _txId */\n      dup3\n        /* \"contracts/DeFi/MultiSigV2.sol\":1358:1373  approved[_txId] */\n      dup2\n      mstore\n      0x20\n      add\n      swap1\n      dup2\n      mstore\n      0x20\n      add\n      0x00\n      keccak256\n        /* \"contracts/DeFi/MultiSigV2.sol\":1358:1385  approved[_txId][msg.sender] */\n      0x00\n        /* \"contracts/DeFi/MultiSigV2.sol\":1374:1384  msg.sender */\n      caller\n        /* \"contracts/DeFi/MultiSigV2.sol\":1358:1385  approved[_txId][msg.sender] */\n      0xffffffffffffffffffffffffffffffffffffffff\n      and\n      0xffffffffffffffffffffffffffffffffffffffff\n      and\n      dup2\n      mstore\n      0x20\n      add\n      swap1\n      dup2\n      mstore\n      0x20\n      add\n      0x00\n      keccak256\n      0x00\n      swap1\n      sload\n      swap1\n      0x0100\n      exp\n      swap1\n      div\n      0xff\n      and\n        /* \"contracts/DeFi/MultiSigV2.sol\":1354:1438  if (approved[_txId][msg.sender]) {... */\n      iszero\n      tag_69\n      jumpi\n        /* \"contracts/DeFi/MultiSigV2.sol\":1408:1427  TxAlreadyApproved() */\n      mload(0x40)\n      0x5db7ec0d00000000000000000000000000000000000000000000000000000000\n      dup2\n      mstore\n      0x04\n      add\n      mload(0x40)\n      dup1\n      swap2\n      sub\n      swap1\n      revert\n        /* \"contracts/DeFi/MultiSigV2.sol\":1354:1438  if (approved[_txId][msg.sender]) {... */\n    tag_69:\n        /* \"contracts/DeFi/MultiSigV2.sol\":2918:2923  _txId */\n      dup3\n        /* \"contracts/DeFi/MultiSigV2.sol\":1204:1216  transactions */\n      0x01\n        /* \"contracts/DeFi/MultiSigV2.sol\":1204:1223  transactions[_txId] */\n      0x00\n        /* \"contracts/DeFi/MultiSigV2.sol\":1217:1222  _txId */\n      dup3\n        /* \"contracts/DeFi/MultiSigV2.sol\":1204:1223  transactions[_txId] */\n      dup2\n      mstore\n      0x20\n      add\n      swap1\n      dup2\n      mstore\n      0x20\n      add\n      0x00\n      keccak256\n        /* \"contracts/DeFi/MultiSigV2.sol\":1204:1232  transactions[_txId].executed */\n      0x05\n      add\n      0x00\n      swap1\n      sload\n      swap1\n      0x0100\n      exp\n      swap1\n      div\n      0xff\n      and\n        /* \"contracts/DeFi/MultiSigV2.sol\":1200:1285  if (transactions[_txId].executed) {... */\n      iszero\n      tag_71\n      jumpi\n        /* \"contracts/DeFi/MultiSigV2.sol\":1255:1274  TxAlreadyExecuted() */\n      mload(0x40)\n      0x2ea945cf00000000000000000000000000000000000000000000000000000000\n      dup2\n      mstore\n      0x04\n      add\n      mload(0x40)\n      dup1\n      swap2\n      sub\n      swap1\n      revert\n        /* \"contracts/DeFi/MultiSigV2.sol\":1200:1285  if (transactions[_txId].executed) {... */\n    tag_71:\n        /* \"contracts/DeFi/MultiSigV2.sol\":2939:2951  transactions */\n      0x01\n        /* \"contracts/DeFi/MultiSigV2.sol\":2939:2958  transactions[_txId] */\n      0x00\n        /* \"contracts/DeFi/MultiSigV2.sol\":2952:2957  _txId */\n      dup6\n        /* \"contracts/DeFi/MultiSigV2.sol\":2939:2958  transactions[_txId] */\n      dup2\n      mstore\n      0x20\n      add\n      swap1\n      dup2\n      mstore\n      0x20\n      add\n      0x00\n      keccak256\n        /* \"contracts/DeFi/MultiSigV2.sol\":2939:2972  transactions[_txId].confirmations */\n      0x04\n      add\n      0x00\n        /* \"contracts/DeFi/MultiSigV2.sol\":2939:2974  transactions[_txId].confirmations++ */\n      dup2\n      sload\n      dup1\n      swap3\n      swap2\n      swap1\n      tag_73\n      swap1\n      tag_74\n      jump\t// in\n    tag_73:\n      swap2\n      swap1\n      pop\n      sstore\n      pop\n        /* \"contracts/DeFi/MultiSigV2.sol\":3014:3018  true */\n      0x01\n        /* \"contracts/DeFi/MultiSigV2.sol\":2984:2992  approved */\n      0x02\n        /* \"contracts/DeFi/MultiSigV2.sol\":2984:2999  approved[_txId] */\n      0x00\n        /* \"contracts/DeFi/MultiSigV2.sol\":2993:2998  _txId */\n      dup7\n        /* \"contracts/DeFi/MultiSigV2.sol\":2984:2999  approved[_txId] */\n      dup2\n      mstore\n      0x20\n      add\n      swap1\n      dup2\n      mstore\n      0x20\n      add\n      0x00\n      keccak256\n        /* \"contracts/DeFi/MultiSigV2.sol\":2984:3011  approved[_txId][msg.sender] */\n      0x00\n        /* \"contracts/DeFi/MultiSigV2.sol\":3000:3010  msg.sender */\n      caller\n        /* \"contracts/DeFi/MultiSigV2.sol\":2984:3011  approved[_txId][msg.sender] */\n      0xffffffffffffffffffffffffffffffffffffffff\n      and\n      0xffffffffffffffffffffffffffffffffffffffff\n      and\n      dup2\n      mstore\n      0x20\n      add\n      swap1\n      dup2\n      mstore\n      0x20\n      add\n      0x00\n      keccak256\n      0x00\n        /* \"contracts/DeFi/MultiSigV2.sol\":2984:3018  approved[_txId][msg.sender] = true */\n      0x0100\n      exp\n      dup2\n      sload\n      dup2\n      0xff\n      mul\n      not\n      and\n      swap1\n      dup4\n      iszero\n      iszero\n      mul\n      or\n      swap1\n      sstore\n      pop\n        /* \"contracts/DeFi/MultiSigV2.sol\":3051:3061  msg.sender */\n      caller\n        /* \"contracts/DeFi/MultiSigV2.sol\":3033:3062  ApprovedTx(_txId, msg.sender) */\n      0xffffffffffffffffffffffffffffffffffffffff\n      and\n        /* \"contracts/DeFi/MultiSigV2.sol\":3044:3049  _txId */\n      dup5\n        /* \"contracts/DeFi/MultiSigV2.sol\":3033:3062  ApprovedTx(_txId, msg.sender) */\n      0xd4329d04e785ebe84c72dcd09fb9c65f1fbbda53ee15ec20e93342c7f3e2a62d\n      mload(0x40)\n      mload(0x40)\n      dup1\n      swap2\n      sub\n      swap1\n      log3\n        /* \"contracts/DeFi/MultiSigV2.sol\":1447:1448  _ */\n      pop\n        /* \"contracts/DeFi/MultiSigV2.sol\":1140:1141  _ */\n      pop\n        /* \"contracts/DeFi/MultiSigV2.sol\":1004:1005  _ */\n      pop\n        /* \"contracts/DeFi/MultiSigV2.sol\":2778:3069  function approveTx(uint256 _txId)... */\n      pop\n      jump\t// out\n        /* \"contracts/DeFi/MultiSigV2.sol\":4165:4306  function getTransaction(uint256 _txId) external view txExists(_txId) returns (Transaction memory) {... */\n    tag_25:\n        /* \"contracts/DeFi/MultiSigV2.sol\":4243:4261  Transaction memory */\n      tag_75\n      tag_76\n      jump\t// in\n    tag_75:\n        /* \"contracts/DeFi/MultiSigV2.sol\":4227:4232  _txId */\n      dup2\n        /* \"contracts/DeFi/MultiSigV2.sol\":1080:1081  1 */\n      0x01\n        /* \"contracts/DeFi/MultiSigV2.sol\":1073:1077  txId */\n      sload(0x04)\n        /* \"contracts/DeFi/MultiSigV2.sol\":1073:1081  txId - 1 */\n      tag_78\n      swap2\n      swap1\n      tag_66\n      jump\t// in\n    tag_78:\n        /* \"contracts/DeFi/MultiSigV2.sol\":1065:1070  _txId */\n      dup2\n        /* \"contracts/DeFi/MultiSigV2.sol\":1065:1081  _txId > txId - 1 */\n      gt\n        /* \"contracts/DeFi/MultiSigV2.sol\":1061:1131  if (_txId > txId - 1) {... */\n      iszero\n      tag_79\n      jumpi\n        /* \"contracts/DeFi/MultiSigV2.sol\":1104:1120  TxDoesNotExist() */\n      mload(0x40)\n      0x9e1b596f00000000000000000000000000000000000000000000000000000000\n      dup2\n      mstore\n      0x04\n      add\n      mload(0x40)\n      dup1\n      swap2\n      sub\n      swap1\n      revert\n        /* \"contracts/DeFi/MultiSigV2.sol\":1061:1131  if (_txId > txId - 1) {... */\n    tag_79:\n        /* \"contracts/DeFi/MultiSigV2.sol\":4280:4292  transactions */\n      0x01\n        /* \"contracts/DeFi/MultiSigV2.sol\":4280:4299  transactions[_txId] */\n      0x00\n        /* \"contracts/DeFi/MultiSigV2.sol\":4293:4298  _txId */\n      dup5\n        /* \"contracts/DeFi/MultiSigV2.sol\":4280:4299  transactions[_txId] */\n      dup2\n      mstore\n      0x20\n      add\n      swap1\n      dup2\n      mstore\n      0x20\n      add\n      0x00\n      keccak256\n        /* \"contracts/DeFi/MultiSigV2.sol\":4273:4299  return transactions[_txId] */\n      mload(0x40)\n      dup1\n      0xc0\n      add\n      0x40\n      mstore\n      swap1\n      dup2\n      0x00\n      dup3\n      add\n      sload\n      dup2\n      mstore\n      0x20\n      add\n      0x01\n      dup3\n      add\n      0x00\n      swap1\n      sload\n      swap1\n      0x0100\n      exp\n      swap1\n      div\n      0xffffffffffffffffffffffffffffffffffffffff\n      and\n      0xffffffffffffffffffffffffffffffffffffffff\n      and\n      0xffffffffffffffffffffffffffffffffffffffff\n      and\n      dup2\n      mstore\n      0x20\n      add\n      0x02\n      dup3\n      add\n      sload\n      dup2\n      mstore\n      0x20\n      add\n      0x03\n      dup3\n      add\n      dup1\n      sload\n      tag_81\n      swap1\n      tag_82\n      jump\t// in\n    tag_81:\n      dup1\n      0x1f\n      add\n      0x20\n      dup1\n      swap2\n      div\n      mul\n      0x20\n      add\n      mload(0x40)\n      swap1\n      dup2\n      add\n      0x40\n      mstore\n      dup1\n      swap3\n      swap2\n      swap1\n      dup2\n      dup2\n      mstore\n      0x20\n      add\n      dup3\n      dup1\n      sload\n      tag_83\n      swap1\n      tag_82\n      jump\t// in\n    tag_83:\n      dup1\n      iszero\n      tag_84\n      jumpi\n      dup1\n      0x1f\n      lt\n      tag_85\n      jumpi\n      0x0100\n      dup1\n      dup4\n      sload\n      div\n      mul\n      dup4\n      mstore\n      swap2\n      0x20\n      add\n      swap2\n      jump(tag_84)\n    tag_85:\n      dup3\n      add\n      swap2\n      swap1\n      0x00\n      mstore\n      keccak256(0x00, 0x20)\n      swap1\n    tag_86:\n      dup2\n      sload\n      dup2\n      mstore\n      swap1\n      0x01\n      add\n      swap1\n      0x20\n      add\n      dup1\n      dup4\n      gt\n      tag_86\n      jumpi\n      dup3\n      swap1\n      sub\n      0x1f\n      and\n      dup3\n      add\n      swap2\n    tag_84:\n      pop\n      pop\n      pop\n      pop\n      pop\n      dup2\n      mstore\n      0x20\n      add\n      0x04\n      dup3\n      add\n      sload\n      dup2\n      mstore\n      0x20\n      add\n      0x05\n      dup3\n      add\n      0x00\n      swap1\n      sload\n      swap1\n      0x0100\n      exp\n      swap1\n      div\n      0xff\n      and\n      iszero\n      iszero\n      iszero\n      iszero\n      dup2\n      mstore\n      pop\n      pop\n      swap2\n      pop\n        /* \"contracts/DeFi/MultiSigV2.sol\":4165:4306  function getTransaction(uint256 _txId) external view txExists(_txId) returns (Transaction memory) {... */\n      pop\n      swap2\n      swap1\n      pop\n      jump\t// out\n        /* \"contracts/DeFi/MultiSigV2.sol\":3075:3765  function executeTx(uint256 _txId)... */\n    tag_31:\n        /* \"contracts/DeFi/MultiSigV2.sol\":932:939  isOwner */\n      0x00\n        /* \"contracts/DeFi/MultiSigV2.sol\":932:951  isOwner[msg.sender] */\n      dup1\n        /* \"contracts/DeFi/MultiSigV2.sol\":940:950  msg.sender */\n      caller\n        /* \"contracts/DeFi/MultiSigV2.sol\":932:951  isOwner[msg.sender] */\n      0xffffffffffffffffffffffffffffffffffffffff\n      and\n      0xffffffffffffffffffffffffffffffffffffffff\n      and\n      dup2\n      mstore\n      0x20\n      add\n      swap1\n      dup2\n      mstore\n      0x20\n      add\n      0x00\n      keccak256\n      0x00\n      swap1\n      sload\n      swap1\n      0x0100\n      exp\n      swap1\n      div\n      0xff\n      and\n        /* \"contracts/DeFi/MultiSigV2.sol\":927:995  if (!isOwner[msg.sender]) {... */\n      tag_88\n      jumpi\n        /* \"contracts/DeFi/MultiSigV2.sol\":974:984  NotOwner() */\n      mload(0x40)\n      0x30cd747100000000000000000000000000000000000000000000000000000000\n      dup2\n      mstore\n      0x04\n      add\n      mload(0x40)\n      dup1\n      swap2\n      sub\n      swap1\n      revert\n        /* \"contracts/DeFi/MultiSigV2.sol\":927:995  if (!isOwner[msg.sender]) {... */\n    tag_88:\n        /* \"contracts/DeFi/MultiSigV2.sol\":3161:3166  _txId */\n      dup1\n        /* \"contracts/DeFi/MultiSigV2.sol\":1080:1081  1 */\n      0x01\n        /* \"contracts/DeFi/MultiSigV2.sol\":1073:1077  txId */\n      sload(0x04)\n        /* \"contracts/DeFi/MultiSigV2.sol\":1073:1081  txId - 1 */\n      tag_90\n      swap2\n      swap1\n      tag_66\n      jump\t// in\n    tag_90:\n        /* \"contracts/DeFi/MultiSigV2.sol\":1065:1070  _txId */\n      dup2\n        /* \"contracts/DeFi/MultiSigV2.sol\":1065:1081  _txId > txId - 1 */\n      gt\n        /* \"contracts/DeFi/MultiSigV2.sol\":1061:1131  if (_txId > txId - 1) {... */\n      iszero\n      tag_91\n      jumpi\n        /* \"contracts/DeFi/MultiSigV2.sol\":1104:1120  TxDoesNotExist() */\n      mload(0x40)\n      0x9e1b596f00000000000000000000000000000000000000000000000000000000\n      dup2\n      mstore\n      0x04\n      add\n      mload(0x40)\n      dup1\n      swap2\n      sub\n      swap1\n      revert\n        /* \"contracts/DeFi/MultiSigV2.sol\":1061:1131  if (_txId > txId - 1) {... */\n    tag_91:\n        /* \"contracts/DeFi/MultiSigV2.sol\":3188:3193  _txId */\n      dup2\n        /* \"contracts/DeFi/MultiSigV2.sol\":1204:1216  transactions */\n      0x01\n        /* \"contracts/DeFi/MultiSigV2.sol\":1204:1223  transactions[_txId] */\n      0x00\n        /* \"contracts/DeFi/MultiSigV2.sol\":1217:1222  _txId */\n      dup3\n        /* \"contracts/DeFi/MultiSigV2.sol\":1204:1223  transactions[_txId] */\n      dup2\n      mstore\n      0x20\n      add\n      swap1\n      dup2\n      mstore\n      0x20\n      add\n      0x00\n      keccak256\n        /* \"contracts/DeFi/MultiSigV2.sol\":1204:1232  transactions[_txId].executed */\n      0x05\n      add\n      0x00\n      swap1\n      sload\n      swap1\n      0x0100\n      exp\n      swap1\n      div\n      0xff\n      and\n        /* \"contracts/DeFi/MultiSigV2.sol\":1200:1285  if (transactions[_txId].executed) {... */\n      iszero\n      tag_93\n      jumpi\n        /* \"contracts/DeFi/MultiSigV2.sol\":1255:1274  TxAlreadyExecuted() */\n      mload(0x40)\n      0x2ea945cf00000000000000000000000000000000000000000000000000000000\n      dup2\n      mstore\n      0x04\n      add\n      mload(0x40)\n      dup1\n      swap2\n      sub\n      swap1\n      revert\n        /* \"contracts/DeFi/MultiSigV2.sol\":1200:1285  if (transactions[_txId].executed) {... */\n    tag_93:\n        /* \"contracts/DeFi/MultiSigV2.sol\":3209:3240  Transaction storage transaction */\n      0x00\n        /* \"contracts/DeFi/MultiSigV2.sol\":3243:3255  transactions */\n      0x01\n        /* \"contracts/DeFi/MultiSigV2.sol\":3243:3262  transactions[_txId] */\n      0x00\n        /* \"contracts/DeFi/MultiSigV2.sol\":3256:3261  _txId */\n      dup6\n        /* \"contracts/DeFi/MultiSigV2.sol\":3243:3262  transactions[_txId] */\n      dup2\n      mstore\n      0x20\n      add\n      swap1\n      dup2\n      mstore\n      0x20\n      add\n      0x00\n      keccak256\n        /* \"contracts/DeFi/MultiSigV2.sol\":3209:3262  Transaction storage transaction = transactions[_txId] */\n      swap1\n      pop\n        /* \"contracts/DeFi/MultiSigV2.sol\":3304:3312  required */\n      sload(0x03)\n        /* \"contracts/DeFi/MultiSigV2.sol\":3276:3287  transaction */\n      dup2\n        /* \"contracts/DeFi/MultiSigV2.sol\":3276:3301  transaction.confirmations */\n      0x04\n      add\n      sload\n        /* \"contracts/DeFi/MultiSigV2.sol\":3276:3312  transaction.confirmations < required */\n      lt\n        /* \"contracts/DeFi/MultiSigV2.sol\":3272:3377  if (transaction.confirmations < required) {... */\n      iszero\n      tag_95\n      jumpi\n        /* \"contracts/DeFi/MultiSigV2.sol\":3335:3366  LessConfirmationsThanRequired() */\n      mload(0x40)\n      0x9dd63cb700000000000000000000000000000000000000000000000000000000\n      dup2\n      mstore\n      0x04\n      add\n      mload(0x40)\n      dup1\n      swap2\n      sub\n      swap1\n      revert\n        /* \"contracts/DeFi/MultiSigV2.sol\":3272:3377  if (transaction.confirmations < required) {... */\n    tag_95:\n        /* \"contracts/DeFi/MultiSigV2.sol\":3409:3413  true */\n      0x01\n        /* \"contracts/DeFi/MultiSigV2.sol\":3386:3397  transaction */\n      dup2\n        /* \"contracts/DeFi/MultiSigV2.sol\":3386:3406  transaction.executed */\n      0x05\n      add\n      0x00\n        /* \"contracts/DeFi/MultiSigV2.sol\":3386:3413  transaction.executed = true */\n      0x0100\n      exp\n      dup2\n      sload\n      dup2\n      0xff\n      mul\n      not\n      and\n      swap1\n      dup4\n      iszero\n      iszero\n      mul\n      or\n      swap1\n      sstore\n      pop\n        /* \"contracts/DeFi/MultiSigV2.sol\":3424:3436  bool success */\n      0x00\n        /* \"contracts/DeFi/MultiSigV2.sol\":3450:3461  transaction */\n      dup2\n        /* \"contracts/DeFi/MultiSigV2.sol\":3450:3464  transaction.to */\n      0x01\n      add\n      0x00\n      swap1\n      sload\n      swap1\n      0x0100\n      exp\n      swap1\n      div\n      0xffffffffffffffffffffffffffffffffffffffff\n      and\n        /* \"contracts/DeFi/MultiSigV2.sol\":3442:3470  payable(transaction.to).call */\n      0xffffffffffffffffffffffffffffffffffffffff\n      and\n        /* \"contracts/DeFi/MultiSigV2.sol\":3491:3502  transaction */\n      dup3\n        /* \"contracts/DeFi/MultiSigV2.sol\":3491:3508  transaction.value */\n      0x02\n      add\n      sload\n        /* \"contracts/DeFi/MultiSigV2.sol\":3519:3530  transaction */\n      dup4\n        /* \"contracts/DeFi/MultiSigV2.sol\":3519:3535  transaction.data */\n      0x03\n      add\n        /* \"contracts/DeFi/MultiSigV2.sol\":3442:3536  payable(transaction.to).call{... */\n      mload(0x40)\n      tag_96\n      swap2\n      swap1\n      tag_97\n      jump\t// in\n    tag_96:\n      0x00\n      mload(0x40)\n      dup1\n      dup4\n      sub\n      dup2\n      dup6\n      dup8\n      gas\n      call\n      swap3\n      pop\n      pop\n      pop\n      returndatasize\n      dup1\n      0x00\n      dup2\n      eq\n      tag_100\n      jumpi\n      mload(0x40)\n      swap2\n      pop\n      and(add(returndatasize, 0x3f), not(0x1f))\n      dup3\n      add\n      0x40\n      mstore\n      returndatasize\n      dup3\n      mstore\n      returndatasize\n      0x00\n      0x20\n      dup5\n      add\n      returndatacopy\n      jump(tag_99)\n    tag_100:\n      0x60\n      swap2\n      pop\n    tag_99:\n      pop\n        /* \"contracts/DeFi/MultiSigV2.sol\":3423:3536  (bool success, ) = payable(transaction.to).call{... */\n      pop\n      swap1\n      pop\n        /* \"contracts/DeFi/MultiSigV2.sol\":3551:3558  success */\n      dup1\n        /* \"contracts/DeFi/MultiSigV2.sol\":3546:3611  if (!success) {... */\n      tag_101\n      jumpi\n        /* \"contracts/DeFi/MultiSigV2.sol\":3581:3600  TxExecutionFailed() */\n      mload(0x40)\n      0xcb2f2a1c00000000000000000000000000000000000000000000000000000000\n      dup2\n      mstore\n      0x04\n      add\n      mload(0x40)\n      dup1\n      swap2\n      sub\n      swap1\n      revert\n        /* \"contracts/DeFi/MultiSigV2.sol\":3546:3611  if (!success) {... */\n    tag_101:\n        /* \"contracts/DeFi/MultiSigV2.sol\":3708:3719  transaction */\n      dup2\n        /* \"contracts/DeFi/MultiSigV2.sol\":3708:3724  transaction.data */\n      0x03\n      add\n        /* \"contracts/DeFi/MultiSigV2.sol\":3625:3758  TxExecuted(... */\n      mload(0x40)\n      tag_102\n      swap2\n      swap1\n      tag_97\n      jump\t// in\n    tag_102:\n      mload(0x40)\n      dup1\n      swap2\n      sub\n      swap1\n      keccak256\n        /* \"contracts/DeFi/MultiSigV2.sol\":3677:3688  transaction */\n      dup3\n        /* \"contracts/DeFi/MultiSigV2.sol\":3677:3694  transaction.value */\n      0x02\n      add\n      sload\n        /* \"contracts/DeFi/MultiSigV2.sol\":3649:3660  transaction */\n      dup4\n        /* \"contracts/DeFi/MultiSigV2.sol\":3649:3663  transaction.to */\n      0x01\n      add\n      0x00\n      swap1\n      sload\n      swap1\n      0x0100\n      exp\n      swap1\n      div\n      0xffffffffffffffffffffffffffffffffffffffff\n      and\n        /* \"contracts/DeFi/MultiSigV2.sol\":3625:3758  TxExecuted(... */\n      0xffffffffffffffffffffffffffffffffffffffff\n      and\n      0xb91792dfbec9d14f14efe0fd0328fe544073cd1befa73f98441bce708e643179\n        /* \"contracts/DeFi/MultiSigV2.sol\":3738:3748  msg.sender */\n      caller\n        /* \"contracts/DeFi/MultiSigV2.sol\":3625:3758  TxExecuted(... */\n      mload(0x40)\n      tag_103\n      swap2\n      swap1\n      tag_104\n      jump\t// in\n    tag_103:\n      mload(0x40)\n      dup1\n      swap2\n      sub\n      swap1\n      log4\n        /* \"contracts/DeFi/MultiSigV2.sol\":3199:3765  {... */\n      pop\n      pop\n        /* \"contracts/DeFi/MultiSigV2.sol\":1140:1141  _ */\n      pop\n        /* \"contracts/DeFi/MultiSigV2.sol\":1004:1005  _ */\n      pop\n        /* \"contracts/DeFi/MultiSigV2.sol\":3075:3765  function executeTx(uint256 _txId)... */\n      pop\n      jump\t// out\n        /* \"contracts/DeFi/MultiSigV2.sol\":4422:4558  function checkApproved(uint256 _txId, address _approver) external view returns (bool) {... */\n    tag_36:\n        /* \"contracts/DeFi/MultiSigV2.sol\":4502:4506  bool */\n      0x00\n        /* \"contracts/DeFi/MultiSigV2.sol\":4525:4533  approved */\n      0x02\n        /* \"contracts/DeFi/MultiSigV2.sol\":4525:4540  approved[_txId] */\n      0x00\n        /* \"contracts/DeFi/MultiSigV2.sol\":4534:4539  _txId */\n      dup5\n        /* \"contracts/DeFi/MultiSigV2.sol\":4525:4540  approved[_txId] */\n      dup2\n      mstore\n      0x20\n      add\n      swap1\n      dup2\n      mstore\n      0x20\n      add\n      0x00\n      keccak256\n        /* \"contracts/DeFi/MultiSigV2.sol\":4525:4551  approved[_txId][_approver] */\n      0x00\n        /* \"contracts/DeFi/MultiSigV2.sol\":4541:4550  _approver */\n      dup4\n        /* \"contracts/DeFi/MultiSigV2.sol\":4525:4551  approved[_txId][_approver] */\n      0xffffffffffffffffffffffffffffffffffffffff\n      and\n      0xffffffffffffffffffffffffffffffffffffffff\n      and\n      dup2\n      mstore\n      0x20\n      add\n      swap1\n      dup2\n      mstore\n      0x20\n      add\n      0x00\n      keccak256\n      0x00\n      swap1\n      sload\n      swap1\n      0x0100\n      exp\n      swap1\n      div\n      0xff\n      and\n        /* \"contracts/DeFi/MultiSigV2.sol\":4518:4551  return approved[_txId][_approver] */\n      swap1\n      pop\n        /* \"contracts/DeFi/MultiSigV2.sol\":4422:4558  function checkApproved(uint256 _txId, address _approver) external view returns (bool) {... */\n      swap3\n      swap2\n      pop\n      pop\n      jump\t// out\n        /* \"contracts/DeFi/MultiSigV2.sol\":3771:4159  function revokeApproval(uint256 _txId)... */\n    tag_42:\n        /* \"contracts/DeFi/MultiSigV2.sol\":932:939  isOwner */\n      0x00\n        /* \"contracts/DeFi/MultiSigV2.sol\":932:951  isOwner[msg.sender] */\n      dup1\n        /* \"contracts/DeFi/MultiSigV2.sol\":940:950  msg.sender */\n      caller\n        /* \"contracts/DeFi/MultiSigV2.sol\":932:951  isOwner[msg.sender] */\n      0xffffffffffffffffffffffffffffffffffffffff\n      and\n      0xffffffffffffffffffffffffffffffffffffffff\n      and\n      dup2\n      mstore\n      0x20\n      add\n      swap1\n      dup2\n      mstore\n      0x20\n      add\n      0x00\n      keccak256\n      0x00\n      swap1\n      sload\n      swap1\n      0x0100\n      exp\n      swap1\n      div\n      0xff\n      and\n        /* \"contracts/DeFi/MultiSigV2.sol\":927:995  if (!isOwner[msg.sender]) {... */\n      tag_107\n      jumpi\n        /* \"contracts/DeFi/MultiSigV2.sol\":974:984  NotOwner() */\n      mload(0x40)\n      0x30cd747100000000000000000000000000000000000000000000000000000000\n      dup2\n      mstore\n      0x04\n      add\n      mload(0x40)\n      dup1\n      swap2\n      sub\n      swap1\n      revert\n        /* \"contracts/DeFi/MultiSigV2.sol\":927:995  if (!isOwner[msg.sender]) {... */\n    tag_107:\n        /* \"contracts/DeFi/MultiSigV2.sol\":3862:3867  _txId */\n      dup1\n        /* \"contracts/DeFi/MultiSigV2.sol\":1080:1081  1 */\n      0x01\n        /* \"contracts/DeFi/MultiSigV2.sol\":1073:1077  txId */\n      sload(0x04)\n        /* \"contracts/DeFi/MultiSigV2.sol\":1073:1081  txId - 1 */\n      tag_109\n      swap2\n      swap1\n      tag_66\n      jump\t// in\n    tag_109:\n        /* \"contracts/DeFi/MultiSigV2.sol\":1065:1070  _txId */\n      dup2\n        /* \"contracts/DeFi/MultiSigV2.sol\":1065:1081  _txId > txId - 1 */\n      gt\n        /* \"contracts/DeFi/MultiSigV2.sol\":1061:1131  if (_txId > txId - 1) {... */\n      iszero\n      tag_110\n      jumpi\n        /* \"contracts/DeFi/MultiSigV2.sol\":1104:1120  TxDoesNotExist() */\n      mload(0x40)\n      0x9e1b596f00000000000000000000000000000000000000000000000000000000\n      dup2\n      mstore\n      0x04\n      add\n      mload(0x40)\n      dup1\n      swap2\n      sub\n      swap1\n      revert\n        /* \"contracts/DeFi/MultiSigV2.sol\":1061:1131  if (_txId > txId - 1) {... */\n    tag_110:\n        /* \"contracts/DeFi/MultiSigV2.sol\":3889:3894  _txId */\n      dup2\n        /* \"contracts/DeFi/MultiSigV2.sol\":1204:1216  transactions */\n      0x01\n        /* \"contracts/DeFi/MultiSigV2.sol\":1204:1223  transactions[_txId] */\n      0x00\n        /* \"contracts/DeFi/MultiSigV2.sol\":1217:1222  _txId */\n      dup3\n        /* \"contracts/DeFi/MultiSigV2.sol\":1204:1223  transactions[_txId] */\n      dup2\n      mstore\n      0x20\n      add\n      swap1\n      dup2\n      mstore\n      0x20\n      add\n      0x00\n      keccak256\n        /* \"contracts/DeFi/MultiSigV2.sol\":1204:1232  transactions[_txId].executed */\n      0x05\n      add\n      0x00\n      swap1\n      sload\n      swap1\n      0x0100\n      exp\n      swap1\n      div\n      0xff\n      and\n        /* \"contracts/DeFi/MultiSigV2.sol\":1200:1285  if (transactions[_txId].executed) {... */\n      iszero\n      tag_112\n      jumpi\n        /* \"contracts/DeFi/MultiSigV2.sol\":1255:1274  TxAlreadyExecuted() */\n      mload(0x40)\n      0x2ea945cf00000000000000000000000000000000000000000000000000000000\n      dup2\n      mstore\n      0x04\n      add\n      mload(0x40)\n      dup1\n      swap2\n      sub\n      swap1\n      revert\n        /* \"contracts/DeFi/MultiSigV2.sol\":1200:1285  if (transactions[_txId].executed) {... */\n    tag_112:\n        /* \"contracts/DeFi/MultiSigV2.sol\":3914:3922  approved */\n      0x02\n        /* \"contracts/DeFi/MultiSigV2.sol\":3914:3929  approved[_txId] */\n      0x00\n        /* \"contracts/DeFi/MultiSigV2.sol\":3923:3928  _txId */\n      dup5\n        /* \"contracts/DeFi/MultiSigV2.sol\":3914:3929  approved[_txId] */\n      dup2\n      mstore\n      0x20\n      add\n      swap1\n      dup2\n      mstore\n      0x20\n      add\n      0x00\n      keccak256\n        /* \"contracts/DeFi/MultiSigV2.sol\":3914:3941  approved[_txId][msg.sender] */\n      0x00\n        /* \"contracts/DeFi/MultiSigV2.sol\":3930:3940  msg.sender */\n      caller\n        /* \"contracts/DeFi/MultiSigV2.sol\":3914:3941  approved[_txId][msg.sender] */\n      0xffffffffffffffffffffffffffffffffffffffff\n      and\n      0xffffffffffffffffffffffffffffffffffffffff\n      and\n      dup2\n      mstore\n      0x20\n      add\n      swap1\n      dup2\n      mstore\n      0x20\n      add\n      0x00\n      keccak256\n      0x00\n      swap1\n      sload\n      swap1\n      0x0100\n      exp\n      swap1\n      div\n      0xff\n      and\n        /* \"contracts/DeFi/MultiSigV2.sol\":3910:4105  if (approved[_txId][msg.sender]) {... */\n      iszero\n      tag_114\n      jumpi\n        /* \"contracts/DeFi/MultiSigV2.sol\":3957:3969  transactions */\n      0x01\n        /* \"contracts/DeFi/MultiSigV2.sol\":3957:3976  transactions[_txId] */\n      0x00\n        /* \"contracts/DeFi/MultiSigV2.sol\":3970:3975  _txId */\n      dup5\n        /* \"contracts/DeFi/MultiSigV2.sol\":3957:3976  transactions[_txId] */\n      dup2\n      mstore\n      0x20\n      add\n      swap1\n      dup2\n      mstore\n      0x20\n      add\n      0x00\n      keccak256\n        /* \"contracts/DeFi/MultiSigV2.sol\":3957:3990  transactions[_txId].confirmations */\n      0x04\n      add\n      0x00\n        /* \"contracts/DeFi/MultiSigV2.sol\":3957:3992  transactions[_txId].confirmations-- */\n      dup2\n      sload\n      dup1\n      swap3\n      swap2\n      swap1\n      tag_115\n      swap1\n      tag_116\n      jump\t// in\n    tag_115:\n      swap2\n      swap1\n      pop\n      sstore\n      pop\n        /* \"contracts/DeFi/MultiSigV2.sol\":4036:4041  false */\n      0x00\n        /* \"contracts/DeFi/MultiSigV2.sol\":4006:4014  approved */\n      0x02\n        /* \"contracts/DeFi/MultiSigV2.sol\":4006:4021  approved[_txId] */\n      0x00\n        /* \"contracts/DeFi/MultiSigV2.sol\":4015:4020  _txId */\n      dup6\n        /* \"contracts/DeFi/MultiSigV2.sol\":4006:4021  approved[_txId] */\n      dup2\n      mstore\n      0x20\n      add\n      swap1\n      dup2\n      mstore\n      0x20\n      add\n      0x00\n      keccak256\n        /* \"contracts/DeFi/MultiSigV2.sol\":4006:4033  approved[_txId][msg.sender] */\n      0x00\n        /* \"contracts/DeFi/MultiSigV2.sol\":4022:4032  msg.sender */\n      caller\n        /* \"contracts/DeFi/MultiSigV2.sol\":4006:4033  approved[_txId][msg.sender] */\n      0xffffffffffffffffffffffffffffffffffffffff\n      and\n      0xffffffffffffffffffffffffffffffffffffffff\n      and\n      dup2\n      mstore\n      0x20\n      add\n      swap1\n      dup2\n      mstore\n      0x20\n      add\n      0x00\n      keccak256\n      0x00\n        /* \"contracts/DeFi/MultiSigV2.sol\":4006:4041  approved[_txId][msg.sender] = false */\n      0x0100\n      exp\n      dup2\n      sload\n      dup2\n      0xff\n      mul\n      not\n      and\n      swap1\n      dup4\n      iszero\n      iszero\n      mul\n      or\n      swap1\n      sstore\n      pop\n        /* \"contracts/DeFi/MultiSigV2.sol\":3910:4105  if (approved[_txId][msg.sender]) {... */\n      jump(tag_117)\n    tag_114:\n        /* \"contracts/DeFi/MultiSigV2.sol\":4079:4094  TxNotApproved() */\n      mload(0x40)\n      0xfafe52bf00000000000000000000000000000000000000000000000000000000\n      dup2\n      mstore\n      0x04\n      add\n      mload(0x40)\n      dup1\n      swap2\n      sub\n      swap1\n      revert\n        /* \"contracts/DeFi/MultiSigV2.sol\":3910:4105  if (approved[_txId][msg.sender]) {... */\n    tag_117:\n        /* \"contracts/DeFi/MultiSigV2.sol\":4146:4151  _txId */\n      dup3\n        /* \"contracts/DeFi/MultiSigV2.sol\":4134:4144  msg.sender */\n      caller\n        /* \"contracts/DeFi/MultiSigV2.sol\":4119:4152  RevokeApproval(msg.sender, _txId) */\n      0xffffffffffffffffffffffffffffffffffffffff\n      and\n      0x1e75c0948730226138e58d1e7446b6167b5159a6904c3ac4597714f298d13df2\n      mload(0x40)\n      mload(0x40)\n      dup1\n      swap2\n      sub\n      swap1\n      log3\n        /* \"contracts/DeFi/MultiSigV2.sol\":1140:1141  _ */\n      pop\n        /* \"contracts/DeFi/MultiSigV2.sol\":1004:1005  _ */\n      pop\n        /* \"contracts/DeFi/MultiSigV2.sol\":3771:4159  function revokeApproval(uint256 _txId)... */\n      pop\n      jump\t// out\n        /* \"contracts/DeFi/MultiSigV2.sol\":2394:2772  function submitTx(... */\n    tag_47:\n        /* \"contracts/DeFi/MultiSigV2.sol\":932:939  isOwner */\n      0x00\n        /* \"contracts/DeFi/MultiSigV2.sol\":932:951  isOwner[msg.sender] */\n      dup1\n        /* \"contracts/DeFi/MultiSigV2.sol\":940:950  msg.sender */\n      caller\n        /* \"contracts/DeFi/MultiSigV2.sol\":932:951  isOwner[msg.sender] */\n      0xffffffffffffffffffffffffffffffffffffffff\n      and\n      0xffffffffffffffffffffffffffffffffffffffff\n      and\n      dup2\n      mstore\n      0x20\n      add\n      swap1\n      dup2\n      mstore\n      0x20\n      add\n      0x00\n      keccak256\n      0x00\n      swap1\n      sload\n      swap1\n      0x0100\n      exp\n      swap1\n      div\n      0xff\n      and\n        /* \"contracts/DeFi/MultiSigV2.sol\":927:995  if (!isOwner[msg.sender]) {... */\n      tag_119\n      jumpi\n        /* \"contracts/DeFi/MultiSigV2.sol\":974:984  NotOwner() */\n      mload(0x40)\n      0x30cd747100000000000000000000000000000000000000000000000000000000\n      dup2\n      mstore\n      0x04\n      add\n      mload(0x40)\n      dup1\n      swap2\n      sub\n      swap1\n      revert\n        /* \"contracts/DeFi/MultiSigV2.sol\":927:995  if (!isOwner[msg.sender]) {... */\n    tag_119:\n        /* \"contracts/DeFi/MultiSigV2.sol\":2520:2551  Transaction storage transaction */\n      0x00\n        /* \"contracts/DeFi/MultiSigV2.sol\":2554:2566  transactions */\n      0x01\n        /* \"contracts/DeFi/MultiSigV2.sol\":2554:2572  transactions[txId] */\n      0x00\n        /* \"contracts/DeFi/MultiSigV2.sol\":2567:2571  txId */\n      sload(0x04)\n        /* \"contracts/DeFi/MultiSigV2.sol\":2554:2572  transactions[txId] */\n      dup2\n      mstore\n      0x20\n      add\n      swap1\n      dup2\n      mstore\n      0x20\n      add\n      0x00\n      keccak256\n        /* \"contracts/DeFi/MultiSigV2.sol\":2520:2572  Transaction storage transaction = transactions[txId] */\n      swap1\n      pop\n        /* \"contracts/DeFi/MultiSigV2.sol\":2599:2603  txId */\n      sload(0x04)\n        /* \"contracts/DeFi/MultiSigV2.sol\":2582:2593  transaction */\n      dup2\n        /* \"contracts/DeFi/MultiSigV2.sol\":2582:2596  transaction.id */\n      0x00\n      add\n        /* \"contracts/DeFi/MultiSigV2.sol\":2582:2603  transaction.id = txId */\n      dup2\n      swap1\n      sstore\n      pop\n        /* \"contracts/DeFi/MultiSigV2.sol\":2630:2633  _to */\n      dup4\n        /* \"contracts/DeFi/MultiSigV2.sol\":2613:2624  transaction */\n      dup2\n        /* \"contracts/DeFi/MultiSigV2.sol\":2613:2627  transaction.to */\n      0x01\n      add\n      0x00\n        /* \"contracts/DeFi/MultiSigV2.sol\":2613:2633  transaction.to = _to */\n      0x0100\n      exp\n      dup2\n      sload\n      dup2\n      0xffffffffffffffffffffffffffffffffffffffff\n      mul\n      not\n      and\n      swap1\n      dup4\n      0xffffffffffffffffffffffffffffffffffffffff\n      and\n      mul\n      or\n      swap1\n      sstore\n      pop\n        /* \"contracts/DeFi/MultiSigV2.sol\":2663:2669  _value */\n      dup3\n        /* \"contracts/DeFi/MultiSigV2.sol\":2643:2654  transaction */\n      dup2\n        /* \"contracts/DeFi/MultiSigV2.sol\":2643:2660  transaction.value */\n      0x02\n      add\n        /* \"contracts/DeFi/MultiSigV2.sol\":2643:2669  transaction.value = _value */\n      dup2\n      swap1\n      sstore\n      pop\n        /* \"contracts/DeFi/MultiSigV2.sol\":2698:2703  _data */\n      dup2\n        /* \"contracts/DeFi/MultiSigV2.sol\":2679:2690  transaction */\n      dup2\n        /* \"contracts/DeFi/MultiSigV2.sol\":2679:2695  transaction.data */\n      0x03\n      add\n        /* \"contracts/DeFi/MultiSigV2.sol\":2679:2703  transaction.data = _data */\n      swap1\n      dup2\n      tag_121\n      swap2\n      swap1\n      tag_122\n      jump\t// in\n    tag_121:\n      pop\n        /* \"contracts/DeFi/MultiSigV2.sol\":2713:2717  txId */\n      0x04\n      0x00\n        /* \"contracts/DeFi/MultiSigV2.sol\":2713:2719  txId++ */\n      dup2\n      sload\n      dup1\n      swap3\n      swap2\n      swap1\n      tag_123\n      swap1\n      tag_74\n      jump\t// in\n    tag_123:\n      swap2\n      swap1\n      pop\n      sstore\n      pop\n        /* \"contracts/DeFi/MultiSigV2.sol\":2759:2764  _data */\n      dup2\n        /* \"contracts/DeFi/MultiSigV2.sol\":2734:2765  SubmittedTx(_to, _value, _data) */\n      mload(0x40)\n      tag_124\n      swap2\n      swap1\n      tag_125\n      jump\t// in\n    tag_124:\n      mload(0x40)\n      dup1\n      swap2\n      sub\n      swap1\n      keccak256\n        /* \"contracts/DeFi/MultiSigV2.sol\":2751:2757  _value */\n      dup4\n        /* \"contracts/DeFi/MultiSigV2.sol\":2746:2749  _to */\n      dup6\n        /* \"contracts/DeFi/MultiSigV2.sol\":2734:2765  SubmittedTx(_to, _value, _data) */\n      0xffffffffffffffffffffffffffffffffffffffff\n      and\n      0x315d8bf6c6d36a1411ee3d8d607b26df37940936bd273e006857a296fbac2ce8\n      mload(0x40)\n      mload(0x40)\n      dup1\n      swap2\n      sub\n      swap1\n      log4\n        /* \"contracts/DeFi/MultiSigV2.sol\":2510:2772  {... */\n      pop\n        /* \"contracts/DeFi/MultiSigV2.sol\":2394:2772  function submitTx(... */\n      pop\n      pop\n      pop\n      jump\t// out\n        /* \"contracts/DeFi/MultiSigV2.sol\":870:889  uint256 public txId */\n    tag_50:\n      sload(0x04)\n      dup2\n      jump\t// out\n        /* \"contracts/DeFi/MultiSigV2.sol\":841:864  uint256 public required */\n    tag_54:\n      sload(0x03)\n      dup2\n      jump\t// out\n        /* \"contracts/DeFi/MultiSigV2.sol\":4312:4416  function checkOwner(address _owner) external view returns (bool) {... */\n    tag_60:\n        /* \"contracts/DeFi/MultiSigV2.sol\":4371:4375  bool */\n      0x00\n        /* \"contracts/DeFi/MultiSigV2.sol\":4394:4401  isOwner */\n      dup1\n        /* \"contracts/DeFi/MultiSigV2.sol\":4394:4409  isOwner[_owner] */\n      0x00\n        /* \"contracts/DeFi/MultiSigV2.sol\":4402:4408  _owner */\n      dup4\n        /* \"contracts/DeFi/MultiSigV2.sol\":4394:4409  isOwner[_owner] */\n      0xffffffffffffffffffffffffffffffffffffffff\n      and\n      0xffffffffffffffffffffffffffffffffffffffff\n      and\n      dup2\n      mstore\n      0x20\n      add\n      swap1\n      dup2\n      mstore\n      0x20\n      add\n      0x00\n      keccak256\n      0x00\n      swap1\n      sload\n      swap1\n      0x0100\n      exp\n      swap1\n      div\n      0xff\n      and\n        /* \"contracts/DeFi/MultiSigV2.sol\":4387:4409  return isOwner[_owner] */\n      swap1\n      pop\n        /* \"contracts/DeFi/MultiSigV2.sol\":4312:4416  function checkOwner(address _owner) external view returns (bool) {... */\n      swap2\n      swap1\n      pop\n      jump\t// out\n    tag_76:\n      mload(0x40)\n      dup1\n      0xc0\n      add\n      0x40\n      mstore\n      dup1\n      0x00\n      dup2\n      mstore\n      0x20\n      add\n      and(0xffffffffffffffffffffffffffffffffffffffff, 0x00)\n      dup2\n      mstore\n      0x20\n      add\n      0x00\n      dup2\n      mstore\n      0x20\n      add\n      0x60\n      dup2\n      mstore\n      0x20\n      add\n      0x00\n      dup2\n      mstore\n      0x20\n      add\n      iszero(iszero(0x00))\n      dup2\n      mstore\n      pop\n      swap1\n      jump\t// out\n        /* \"#utility.yul\":7:84   */\n    tag_127:\n        /* \"#utility.yul\":44:51   */\n      0x00\n        /* \"#utility.yul\":73:78   */\n      dup2\n        /* \"#utility.yul\":62:78   */\n      swap1\n      pop\n        /* \"#utility.yul\":7:84   */\n      swap2\n      swap1\n      pop\n      jump\t// out\n        /* \"#utility.yul\":90:208   */\n    tag_128:\n        /* \"#utility.yul\":177:201   */\n      tag_182\n        /* \"#utility.yul\":195:200   */\n      dup2\n        /* \"#utility.yul\":177:201   */\n      tag_127\n      jump\t// in\n    tag_182:\n        /* \"#utility.yul\":172:175   */\n      dup3\n        /* \"#utility.yul\":165:202   */\n      mstore\n        /* \"#utility.yul\":90:208   */\n      pop\n      pop\n      jump\t// out\n        /* \"#utility.yul\":214:436   */\n    tag_16:\n        /* \"#utility.yul\":307:311   */\n      0x00\n        /* \"#utility.yul\":345:347   */\n      0x20\n        /* \"#utility.yul\":334:343   */\n      dup3\n        /* \"#utility.yul\":330:348   */\n      add\n        /* \"#utility.yul\":322:348   */\n      swap1\n      pop\n        /* \"#utility.yul\":358:429   */\n      tag_184\n        /* \"#utility.yul\":426:427   */\n      0x00\n        /* \"#utility.yul\":415:424   */\n      dup4\n        /* \"#utility.yul\":411:428   */\n      add\n        /* \"#utility.yul\":402:408   */\n      dup5\n        /* \"#utility.yul\":358:429   */\n      tag_128\n      jump\t// in\n    tag_184:\n        /* \"#utility.yul\":214:436   */\n      swap3\n      swap2\n      pop\n      pop\n      jump\t// out\n        /* \"#utility.yul\":442:517   */\n    tag_129:\n        /* \"#utility.yul\":475:481   */\n      0x00\n        /* \"#utility.yul\":508:510   */\n      0x40\n        /* \"#utility.yul\":502:511   */\n      mload\n        /* \"#utility.yul\":492:511   */\n      swap1\n      pop\n        /* \"#utility.yul\":442:517   */\n      swap1\n      jump\t// out\n        /* \"#utility.yul\":523:640   */\n    tag_130:\n        /* \"#utility.yul\":632:633   */\n      0x00\n        /* \"#utility.yul\":629:630   */\n      dup1\n        /* \"#utility.yul\":622:634   */\n      revert\n        /* \"#utility.yul\":646:763   */\n    tag_131:\n        /* \"#utility.yul\":755:756   */\n      0x00\n        /* \"#utility.yul\":752:753   */\n      dup1\n        /* \"#utility.yul\":745:757   */\n      revert\n        /* \"#utility.yul\":769:891   */\n    tag_132:\n        /* \"#utility.yul\":842:866   */\n      tag_189\n        /* \"#utility.yul\":860:865   */\n      dup2\n        /* \"#utility.yul\":842:866   */\n      tag_127\n      jump\t// in\n    tag_189:\n        /* \"#utility.yul\":835:840   */\n      dup2\n        /* \"#utility.yul\":832:867   */\n      eq\n        /* \"#utility.yul\":822:885   */\n      tag_190\n      jumpi\n        /* \"#utility.yul\":881:882   */\n      0x00\n        /* \"#utility.yul\":878:879   */\n      dup1\n        /* \"#utility.yul\":871:883   */\n      revert\n        /* \"#utility.yul\":822:885   */\n    tag_190:\n        /* \"#utility.yul\":769:891   */\n      pop\n      jump\t// out\n        /* \"#utility.yul\":897:1036   */\n    tag_133:\n        /* \"#utility.yul\":943:948   */\n      0x00\n        /* \"#utility.yul\":981:987   */\n      dup2\n        /* \"#utility.yul\":968:988   */\n      calldataload\n        /* \"#utility.yul\":959:988   */\n      swap1\n      pop\n        /* \"#utility.yul\":997:1030   */\n      tag_192\n        /* \"#utility.yul\":1024:1029   */\n      dup2\n        /* \"#utility.yul\":997:1030   */\n      tag_132\n      jump\t// in\n    tag_192:\n        /* \"#utility.yul\":897:1036   */\n      swap3\n      swap2\n      pop\n      pop\n      jump\t// out\n        /* \"#utility.yul\":1042:1371   */\n    tag_20:\n        /* \"#utility.yul\":1101:1107   */\n      0x00\n        /* \"#utility.yul\":1150:1152   */\n      0x20\n        /* \"#utility.yul\":1138:1147   */\n      dup3\n        /* \"#utility.yul\":1129:1136   */\n      dup5\n        /* \"#utility.yul\":1125:1148   */\n      sub\n        /* \"#utility.yul\":1121:1153   */\n      slt\n        /* \"#utility.yul\":1118:1237   */\n      iszero\n      tag_194\n      jumpi\n        /* \"#utility.yul\":1156:1235   */\n      tag_195\n      tag_130\n      jump\t// in\n    tag_195:\n        /* \"#utility.yul\":1118:1237   */\n    tag_194:\n        /* \"#utility.yul\":1276:1277   */\n      0x00\n        /* \"#utility.yul\":1301:1354   */\n      tag_196\n        /* \"#utility.yul\":1346:1353   */\n      dup5\n        /* \"#utility.yul\":1337:1343   */\n      dup3\n        /* \"#utility.yul\":1326:1335   */\n      dup6\n        /* \"#utility.yul\":1322:1344   */\n      add\n        /* \"#utility.yul\":1301:1354   */\n      tag_133\n      jump\t// in\n    tag_196:\n        /* \"#utility.yul\":1291:1354   */\n      swap2\n      pop\n        /* \"#utility.yul\":1247:1364   */\n      pop\n        /* \"#utility.yul\":1042:1371   */\n      swap3\n      swap2\n      pop\n      pop\n      jump\t// out\n        /* \"#utility.yul\":1377:1485   */\n    tag_134:\n        /* \"#utility.yul\":1454:1478   */\n      tag_198\n        /* \"#utility.yul\":1472:1477   */\n      dup2\n        /* \"#utility.yul\":1454:1478   */\n      tag_127\n      jump\t// in\n    tag_198:\n        /* \"#utility.yul\":1449:1452   */\n      dup3\n        /* \"#utility.yul\":1442:1479   */\n      mstore\n        /* \"#utility.yul\":1377:1485   */\n      pop\n      pop\n      jump\t// out\n        /* \"#utility.yul\":1491:1617   */\n    tag_135:\n        /* \"#utility.yul\":1528:1535   */\n      0x00\n        /* \"#utility.yul\":1568:1610   */\n      0xffffffffffffffffffffffffffffffffffffffff\n        /* \"#utility.yul\":1561:1566   */\n      dup3\n        /* \"#utility.yul\":1557:1611   */\n      and\n        /* \"#utility.yul\":1546:1611   */\n      swap1\n      pop\n        /* \"#utility.yul\":1491:1617   */\n      swap2\n      swap1\n      pop\n      jump\t// out\n        /* \"#utility.yul\":1623:1719   */\n    tag_136:\n        /* \"#utility.yul\":1660:1667   */\n      0x00\n        /* \"#utility.yul\":1689:1713   */\n      tag_201\n        /* \"#utility.yul\":1707:1712   */\n      dup3\n        /* \"#utility.yul\":1689:1713   */\n      tag_135\n      jump\t// in\n    tag_201:\n        /* \"#utility.yul\":1678:1713   */\n      swap1\n      pop\n        /* \"#utility.yul\":1623:1719   */\n      swap2\n      swap1\n      pop\n      jump\t// out\n        /* \"#utility.yul\":1725:1833   */\n    tag_137:\n        /* \"#utility.yul\":1802:1826   */\n      tag_203\n        /* \"#utility.yul\":1820:1825   */\n      dup2\n        /* \"#utility.yul\":1802:1826   */\n      tag_136\n      jump\t// in\n    tag_203:\n        /* \"#utility.yul\":1797:1800   */\n      dup3\n        /* \"#utility.yul\":1790:1827   */\n      mstore\n        /* \"#utility.yul\":1725:1833   */\n      pop\n      pop\n      jump\t// out\n        /* \"#utility.yul\":1839:1937   */\n    tag_138:\n        /* \"#utility.yul\":1890:1896   */\n      0x00\n        /* \"#utility.yul\":1924:1929   */\n      dup2\n        /* \"#utility.yul\":1918:1930   */\n      mload\n        /* \"#utility.yul\":1908:1930   */\n      swap1\n      pop\n        /* \"#utility.yul\":1839:1937   */\n      swap2\n      swap1\n      pop\n      jump\t// out\n        /* \"#utility.yul\":1943:2101   */\n    tag_139:\n        /* \"#utility.yul\":2016:2027   */\n      0x00\n        /* \"#utility.yul\":2050:2056   */\n      dup3\n        /* \"#utility.yul\":2045:2048   */\n      dup3\n        /* \"#utility.yul\":2038:2057   */\n      mstore\n        /* \"#utility.yul\":2090:2094   */\n      0x20\n        /* \"#utility.yul\":2085:2088   */\n      dup3\n        /* \"#utility.yul\":2081:2095   */\n      add\n        /* \"#utility.yul\":2066:2095   */\n      swap1\n      pop\n        /* \"#utility.yul\":1943:2101   */\n      swap3\n      swap2\n      pop\n      pop\n      jump\t// out\n        /* \"#utility.yul\":2107:2414   */\n    tag_140:\n        /* \"#utility.yul\":2175:2176   */\n      0x00\n        /* \"#utility.yul\":2185:2298   */\n    tag_207:\n        /* \"#utility.yul\":2199:2205   */\n      dup4\n        /* \"#utility.yul\":2196:2197   */\n      dup2\n        /* \"#utility.yul\":2193:2206   */\n      lt\n        /* \"#utility.yul\":2185:2298   */\n      iszero\n      tag_209\n      jumpi\n        /* \"#utility.yul\":2284:2285   */\n      dup1\n        /* \"#utility.yul\":2279:2282   */\n      dup3\n        /* \"#utility.yul\":2275:2286   */\n      add\n        /* \"#utility.yul\":2269:2287   */\n      mload\n        /* \"#utility.yul\":2265:2266   */\n      dup2\n        /* \"#utility.yul\":2260:2263   */\n      dup5\n        /* \"#utility.yul\":2256:2267   */\n      add\n        /* \"#utility.yul\":2249:2288   */\n      mstore\n        /* \"#utility.yul\":2221:2223   */\n      0x20\n        /* \"#utility.yul\":2218:2219   */\n      dup2\n        /* \"#utility.yul\":2214:2224   */\n      add\n        /* \"#utility.yul\":2209:2224   */\n      swap1\n      pop\n        /* \"#utility.yul\":2185:2298   */\n      jump(tag_207)\n    tag_209:\n        /* \"#utility.yul\":2316:2322   */\n      dup4\n        /* \"#utility.yul\":2313:2314   */\n      dup2\n        /* \"#utility.yul\":2310:2323   */\n      gt\n        /* \"#utility.yul\":2307:2408   */\n      iszero\n      tag_210\n      jumpi\n        /* \"#utility.yul\":2396:2397   */\n      0x00\n        /* \"#utility.yul\":2387:2393   */\n      dup5\n        /* \"#utility.yul\":2382:2385   */\n      dup5\n        /* \"#utility.yul\":2378:2394   */\n      add\n        /* \"#utility.yul\":2371:2398   */\n      mstore\n        /* \"#utility.yul\":2307:2408   */\n    tag_210:\n        /* \"#utility.yul\":2156:2414   */\n      pop\n        /* \"#utility.yul\":2107:2414   */\n      pop\n      pop\n      pop\n      jump\t// out\n        /* \"#utility.yul\":2420:2522   */\n    tag_141:\n        /* \"#utility.yul\":2461:2467   */\n      0x00\n        /* \"#utility.yul\":2512:2514   */\n      0x1f\n        /* \"#utility.yul\":2508:2515   */\n      not\n        /* \"#utility.yul\":2503:2505   */\n      0x1f\n        /* \"#utility.yul\":2496:2501   */\n      dup4\n        /* \"#utility.yul\":2492:2506   */\n      add\n        /* \"#utility.yul\":2488:2516   */\n      and\n        /* \"#utility.yul\":2478:2516   */\n      swap1\n      pop\n        /* \"#utility.yul\":2420:2522   */\n      swap2\n      swap1\n      pop\n      jump\t// out\n        /* \"#utility.yul\":2528:2868   */\n    tag_142:\n        /* \"#utility.yul\":2604:2607   */\n      0x00\n        /* \"#utility.yul\":2632:2670   */\n      tag_213\n        /* \"#utility.yul\":2664:2669   */\n      dup3\n        /* \"#utility.yul\":2632:2670   */\n      tag_138\n      jump\t// in\n    tag_213:\n        /* \"#utility.yul\":2686:2746   */\n      tag_214\n        /* \"#utility.yul\":2739:2745   */\n      dup2\n        /* \"#utility.yul\":2734:2737   */\n      dup6\n        /* \"#utility.yul\":2686:2746   */\n      tag_139\n      jump\t// in\n    tag_214:\n        /* \"#utility.yul\":2679:2746   */\n      swap4\n      pop\n        /* \"#utility.yul\":2755:2807   */\n      tag_215\n        /* \"#utility.yul\":2800:2806   */\n      dup2\n        /* \"#utility.yul\":2795:2798   */\n      dup6\n        /* \"#utility.yul\":2788:2792   */\n      0x20\n        /* \"#utility.yul\":2781:2786   */\n      dup7\n        /* \"#utility.yul\":2777:2793   */\n      add\n        /* \"#utility.yul\":2755:2807   */\n      tag_140\n      jump\t// in\n    tag_215:\n        /* \"#utility.yul\":2832:2861   */\n      tag_216\n        /* \"#utility.yul\":2854:2860   */\n      dup2\n        /* \"#utility.yul\":2832:2861   */\n      tag_141\n      jump\t// in\n    tag_216:\n        /* \"#utility.yul\":2827:2830   */\n      dup5\n        /* \"#utility.yul\":2823:2862   */\n      add\n        /* \"#utility.yul\":2816:2862   */\n      swap2\n      pop\n        /* \"#utility.yul\":2608:2868   */\n      pop\n        /* \"#utility.yul\":2528:2868   */\n      swap3\n      swap2\n      pop\n      pop\n      jump\t// out\n        /* \"#utility.yul\":2874:2964   */\n    tag_143:\n        /* \"#utility.yul\":2908:2915   */\n      0x00\n        /* \"#utility.yul\":2951:2956   */\n      dup2\n        /* \"#utility.yul\":2944:2957   */\n      iszero\n        /* \"#utility.yul\":2937:2958   */\n      iszero\n        /* \"#utility.yul\":2926:2958   */\n      swap1\n      pop\n        /* \"#utility.yul\":2874:2964   */\n      swap2\n      swap1\n      pop\n      jump\t// out\n        /* \"#utility.yul\":2970:3069   */\n    tag_144:\n        /* \"#utility.yul\":3041:3062   */\n      tag_219\n        /* \"#utility.yul\":3056:3061   */\n      dup2\n        /* \"#utility.yul\":3041:3062   */\n      tag_143\n      jump\t// in\n    tag_219:\n        /* \"#utility.yul\":3036:3039   */\n      dup3\n        /* \"#utility.yul\":3029:3063   */\n      mstore\n        /* \"#utility.yul\":2970:3069   */\n      pop\n      pop\n      jump\t// out\n        /* \"#utility.yul\":3153:4461   */\n    tag_145:\n        /* \"#utility.yul\":3276:3279   */\n      0x00\n        /* \"#utility.yul\":3312:3316   */\n      0xc0\n        /* \"#utility.yul\":3307:3310   */\n      dup4\n        /* \"#utility.yul\":3303:3317   */\n      add\n        /* \"#utility.yul\":3397:3401   */\n      0x00\n        /* \"#utility.yul\":3390:3395   */\n      dup4\n        /* \"#utility.yul\":3386:3402   */\n      add\n        /* \"#utility.yul\":3380:3403   */\n      mload\n        /* \"#utility.yul\":3416:3479   */\n      tag_221\n        /* \"#utility.yul\":3473:3477   */\n      0x00\n        /* \"#utility.yul\":3468:3471   */\n      dup7\n        /* \"#utility.yul\":3464:3478   */\n      add\n        /* \"#utility.yul\":3450:3462   */\n      dup3\n        /* \"#utility.yul\":3416:3479   */\n      tag_134\n      jump\t// in\n    tag_221:\n        /* \"#utility.yul\":3327:3489   */\n      pop\n        /* \"#utility.yul\":3569:3573   */\n      0x20\n        /* \"#utility.yul\":3562:3567   */\n      dup4\n        /* \"#utility.yul\":3558:3574   */\n      add\n        /* \"#utility.yul\":3552:3575   */\n      mload\n        /* \"#utility.yul\":3588:3651   */\n      tag_222\n        /* \"#utility.yul\":3645:3649   */\n      0x20\n        /* \"#utility.yul\":3640:3643   */\n      dup7\n        /* \"#utility.yul\":3636:3650   */\n      add\n        /* \"#utility.yul\":3622:3634   */\n      dup3\n        /* \"#utility.yul\":3588:3651   */\n      tag_137\n      jump\t// in\n    tag_222:\n        /* \"#utility.yul\":3499:3661   */\n      pop\n        /* \"#utility.yul\":3744:3748   */\n      0x40\n        /* \"#utility.yul\":3737:3742   */\n      dup4\n        /* \"#utility.yul\":3733:3749   */\n      add\n        /* \"#utility.yul\":3727:3750   */\n      mload\n        /* \"#utility.yul\":3763:3826   */\n      tag_223\n        /* \"#utility.yul\":3820:3824   */\n      0x40\n        /* \"#utility.yul\":3815:3818   */\n      dup7\n        /* \"#utility.yul\":3811:3825   */\n      add\n        /* \"#utility.yul\":3797:3809   */\n      dup3\n        /* \"#utility.yul\":3763:3826   */\n      tag_134\n      jump\t// in\n    tag_223:\n        /* \"#utility.yul\":3671:3836   */\n      pop\n        /* \"#utility.yul\":3918:3922   */\n      0x60\n        /* \"#utility.yul\":3911:3916   */\n      dup4\n        /* \"#utility.yul\":3907:3923   */\n      add\n        /* \"#utility.yul\":3901:3924   */\n      mload\n        /* \"#utility.yul\":3971:3974   */\n      dup5\n        /* \"#utility.yul\":3965:3969   */\n      dup3\n        /* \"#utility.yul\":3961:3975   */\n      sub\n        /* \"#utility.yul\":3954:3958   */\n      0x60\n        /* \"#utility.yul\":3949:3952   */\n      dup7\n        /* \"#utility.yul\":3945:3959   */\n      add\n        /* \"#utility.yul\":3938:3976   */\n      mstore\n        /* \"#utility.yul\":3997:4068   */\n      tag_224\n        /* \"#utility.yul\":4063:4067   */\n      dup3\n        /* \"#utility.yul\":4049:4061   */\n      dup3\n        /* \"#utility.yul\":3997:4068   */\n      tag_142\n      jump\t// in\n    tag_224:\n        /* \"#utility.yul\":3989:4068   */\n      swap2\n      pop\n        /* \"#utility.yul\":3846:4079   */\n      pop\n        /* \"#utility.yul\":4170:4174   */\n      0x80\n        /* \"#utility.yul\":4163:4168   */\n      dup4\n        /* \"#utility.yul\":4159:4175   */\n      add\n        /* \"#utility.yul\":4153:4176   */\n      mload\n        /* \"#utility.yul\":4189:4252   */\n      tag_225\n        /* \"#utility.yul\":4246:4250   */\n      0x80\n        /* \"#utility.yul\":4241:4244   */\n      dup7\n        /* \"#utility.yul\":4237:4251   */\n      add\n        /* \"#utility.yul\":4223:4235   */\n      dup3\n        /* \"#utility.yul\":4189:4252   */\n      tag_134\n      jump\t// in\n    tag_225:\n        /* \"#utility.yul\":4089:4262   */\n      pop\n        /* \"#utility.yul\":4348:4352   */\n      0xa0\n        /* \"#utility.yul\":4341:4346   */\n      dup4\n        /* \"#utility.yul\":4337:4353   */\n      add\n        /* \"#utility.yul\":4331:4354   */\n      mload\n        /* \"#utility.yul\":4367:4424   */\n      tag_226\n        /* \"#utility.yul\":4418:4422   */\n      0xa0\n        /* \"#utility.yul\":4413:4416   */\n      dup7\n        /* \"#utility.yul\":4409:4423   */\n      add\n        /* \"#utility.yul\":4395:4407   */\n      dup3\n        /* \"#utility.yul\":4367:4424   */\n      tag_144\n      jump\t// in\n    tag_226:\n        /* \"#utility.yul\":4272:4434   */\n      pop\n        /* \"#utility.yul\":4451:4455   */\n      dup1\n        /* \"#utility.yul\":4444:4455   */\n      swap2\n      pop\n        /* \"#utility.yul\":3281:4461   */\n      pop\n        /* \"#utility.yul\":3153:4461   */\n      swap3\n      swap2\n      pop\n      pop\n      jump\t// out\n        /* \"#utility.yul\":4467:4848   */\n    tag_27:\n        /* \"#utility.yul\":4614:4618   */\n      0x00\n        /* \"#utility.yul\":4652:4654   */\n      0x20\n        /* \"#utility.yul\":4641:4650   */\n      dup3\n        /* \"#utility.yul\":4637:4655   */\n      add\n        /* \"#utility.yul\":4629:4655   */\n      swap1\n      pop\n        /* \"#utility.yul\":4701:4710   */\n      dup2\n        /* \"#utility.yul\":4695:4699   */\n      dup2\n        /* \"#utility.yul\":4691:4711   */\n      sub\n        /* \"#utility.yul\":4687:4688   */\n      0x00\n        /* \"#utility.yul\":4676:4685   */\n      dup4\n        /* \"#utility.yul\":4672:4689   */\n      add\n        /* \"#utility.yul\":4665:4712   */\n      mstore\n        /* \"#utility.yul\":4729:4841   */\n      tag_228\n        /* \"#utility.yul\":4836:4840   */\n      dup2\n        /* \"#utility.yul\":4827:4833   */\n      dup5\n        /* \"#utility.yul\":4729:4841   */\n      tag_145\n      jump\t// in\n    tag_228:\n        /* \"#utility.yul\":4721:4841   */\n      swap1\n      pop\n        /* \"#utility.yul\":4467:4848   */\n      swap3\n      swap2\n      pop\n      pop\n      jump\t// out\n        /* \"#utility.yul\":4854:4976   */\n    tag_146:\n        /* \"#utility.yul\":4927:4951   */\n      tag_230\n        /* \"#utility.yul\":4945:4950   */\n      dup2\n        /* \"#utility.yul\":4927:4951   */\n      tag_136\n      jump\t// in\n    tag_230:\n        /* \"#utility.yul\":4920:4925   */\n      dup2\n        /* \"#utility.yul\":4917:4952   */\n      eq\n        /* \"#utility.yul\":4907:4970   */\n      tag_231\n      jumpi\n        /* \"#utility.yul\":4966:4967   */\n      0x00\n        /* \"#utility.yul\":4963:4964   */\n      dup1\n        /* \"#utility.yul\":4956:4968   */\n      revert\n        /* \"#utility.yul\":4907:4970   */\n    tag_231:\n        /* \"#utility.yul\":4854:4976   */\n      pop\n      jump\t// out\n        /* \"#utility.yul\":4982:5121   */\n    tag_147:\n        /* \"#utility.yul\":5028:5033   */\n      0x00\n        /* \"#utility.yul\":5066:5072   */\n      dup2\n        /* \"#utility.yul\":5053:5073   */\n      calldataload\n        /* \"#utility.yul\":5044:5073   */\n      swap1\n      pop\n        /* \"#utility.yul\":5082:5115   */\n      tag_233\n        /* \"#utility.yul\":5109:5114   */\n      dup2\n        /* \"#utility.yul\":5082:5115   */\n      tag_146\n      jump\t// in\n    tag_233:\n        /* \"#utility.yul\":4982:5121   */\n      swap3\n      swap2\n      pop\n      pop\n      jump\t// out\n        /* \"#utility.yul\":5127:5601   */\n    tag_35:\n        /* \"#utility.yul\":5195:5201   */\n      0x00\n        /* \"#utility.yul\":5203:5209   */\n      dup1\n        /* \"#utility.yul\":5252:5254   */\n      0x40\n        /* \"#utility.yul\":5240:5249   */\n      dup4\n        /* \"#utility.yul\":5231:5238   */\n      dup6\n        /* \"#utility.yul\":5227:5250   */\n      sub\n        /* \"#utility.yul\":5223:5255   */\n      slt\n        /* \"#utility.yul\":5220:5339   */\n      iszero\n      tag_235\n      jumpi\n        /* \"#utility.yul\":5258:5337   */\n      tag_236\n      tag_130\n      jump\t// in\n    tag_236:\n        /* \"#utility.yul\":5220:5339   */\n    tag_235:\n        /* \"#utility.yul\":5378:5379   */\n      0x00\n        /* \"#utility.yul\":5403:5456   */\n      tag_237\n        /* \"#utility.yul\":5448:5455   */\n      dup6\n        /* \"#utility.yul\":5439:5445   */\n      dup3\n        /* \"#utility.yul\":5428:5437   */\n      dup7\n        /* \"#utility.yul\":5424:5446   */\n      add\n        /* \"#utility.yul\":5403:5456   */\n      tag_133\n      jump\t// in\n    tag_237:\n        /* \"#utility.yul\":5393:5456   */\n      swap3\n      pop\n        /* \"#utility.yul\":5349:5466   */\n      pop\n        /* \"#utility.yul\":5505:5507   */\n      0x20\n        /* \"#utility.yul\":5531:5584   */\n      tag_238\n        /* \"#utility.yul\":5576:5583   */\n      dup6\n        /* \"#utility.yul\":5567:5573   */\n      dup3\n        /* \"#utility.yul\":5556:5565   */\n      dup7\n        /* \"#utility.yul\":5552:5574   */\n      add\n        /* \"#utility.yul\":5531:5584   */\n      tag_147\n      jump\t// in\n    tag_238:\n        /* \"#utility.yul\":5521:5584   */\n      swap2\n      pop\n        /* \"#utility.yul\":5476:5594   */\n      pop\n        /* \"#utility.yul\":5127:5601   */\n      swap3\n      pop\n      swap3\n      swap1\n      pop\n      jump\t// out\n        /* \"#utility.yul\":5607:5716   */\n    tag_148:\n        /* \"#utility.yul\":5688:5709   */\n      tag_240\n        /* \"#utility.yul\":5703:5708   */\n      dup2\n        /* \"#utility.yul\":5688:5709   */\n      tag_143\n      jump\t// in\n    tag_240:\n        /* \"#utility.yul\":5683:5686   */\n      dup3\n        /* \"#utility.yul\":5676:5710   */\n      mstore\n        /* \"#utility.yul\":5607:5716   */\n      pop\n      pop\n      jump\t// out\n        /* \"#utility.yul\":5722:5932   */\n    tag_38:\n        /* \"#utility.yul\":5809:5813   */\n      0x00\n        /* \"#utility.yul\":5847:5849   */\n      0x20\n        /* \"#utility.yul\":5836:5845   */\n      dup3\n        /* \"#utility.yul\":5832:5850   */\n      add\n        /* \"#utility.yul\":5824:5850   */\n      swap1\n      pop\n        /* \"#utility.yul\":5860:5925   */\n      tag_242\n        /* \"#utility.yul\":5922:5923   */\n      0x00\n        /* \"#utility.yul\":5911:5920   */\n      dup4\n        /* \"#utility.yul\":5907:5924   */\n      add\n        /* \"#utility.yul\":5898:5904   */\n      dup5\n        /* \"#utility.yul\":5860:5925   */\n      tag_148\n      jump\t// in\n    tag_242:\n        /* \"#utility.yul\":5722:5932   */\n      swap3\n      swap2\n      pop\n      pop\n      jump\t// out\n        /* \"#utility.yul\":5938:6055   */\n    tag_149:\n        /* \"#utility.yul\":6047:6048   */\n      0x00\n        /* \"#utility.yul\":6044:6045   */\n      dup1\n        /* \"#utility.yul\":6037:6049   */\n      revert\n        /* \"#utility.yul\":6061:6178   */\n    tag_150:\n        /* \"#utility.yul\":6170:6171   */\n      0x00\n        /* \"#utility.yul\":6167:6168   */\n      dup1\n        /* \"#utility.yul\":6160:6172   */\n      revert\n        /* \"#utility.yul\":6184:6364   */\n    tag_151:\n        /* \"#utility.yul\":6232:6309   */\n      0x4e487b7100000000000000000000000000000000000000000000000000000000\n        /* \"#utility.yul\":6229:6230   */\n      0x00\n        /* \"#utility.yul\":6222:6310   */\n      mstore\n        /* \"#utility.yul\":6329:6333   */\n      0x41\n        /* \"#utility.yul\":6326:6327   */\n      0x04\n        /* \"#utility.yul\":6319:6334   */\n      mstore\n        /* \"#utility.yul\":6353:6357   */\n      0x24\n        /* \"#utility.yul\":6350:6351   */\n      0x00\n        /* \"#utility.yul\":6343:6358   */\n      revert\n        /* \"#utility.yul\":6370:6651   */\n    tag_152:\n        /* \"#utility.yul\":6453:6480   */\n      tag_247\n        /* \"#utility.yul\":6475:6479   */\n      dup3\n        /* \"#utility.yul\":6453:6480   */\n      tag_141\n      jump\t// in\n    tag_247:\n        /* \"#utility.yul\":6445:6451   */\n      dup2\n        /* \"#utility.yul\":6441:6481   */\n      add\n        /* \"#utility.yul\":6583:6589   */\n      dup2\n        /* \"#utility.yul\":6571:6581   */\n      dup2\n        /* \"#utility.yul\":6568:6590   */\n      lt\n        /* \"#utility.yul\":6547:6565   */\n      0xffffffffffffffff\n        /* \"#utility.yul\":6535:6545   */\n      dup3\n        /* \"#utility.yul\":6532:6566   */\n      gt\n        /* \"#utility.yul\":6529:6591   */\n      or\n        /* \"#utility.yul\":6526:6614   */\n      iszero\n      tag_248\n      jumpi\n        /* \"#utility.yul\":6594:6612   */\n      tag_249\n      tag_151\n      jump\t// in\n    tag_249:\n        /* \"#utility.yul\":6526:6614   */\n    tag_248:\n        /* \"#utility.yul\":6634:6644   */\n      dup1\n        /* \"#utility.yul\":6630:6632   */\n      0x40\n        /* \"#utility.yul\":6623:6645   */\n      mstore\n        /* \"#utility.yul\":6413:6651   */\n      pop\n        /* \"#utility.yul\":6370:6651   */\n      pop\n      pop\n      jump\t// out\n        /* \"#utility.yul\":6657:6786   */\n    tag_153:\n        /* \"#utility.yul\":6691:6697   */\n      0x00\n        /* \"#utility.yul\":6718:6738   */\n      tag_251\n      tag_129\n      jump\t// in\n    tag_251:\n        /* \"#utility.yul\":6708:6738   */\n      swap1\n      pop\n        /* \"#utility.yul\":6747:6780   */\n      tag_252\n        /* \"#utility.yul\":6775:6779   */\n      dup3\n        /* \"#utility.yul\":6767:6773   */\n      dup3\n        /* \"#utility.yul\":6747:6780   */\n      tag_152\n      jump\t// in\n    tag_252:\n        /* \"#utility.yul\":6657:6786   */\n      swap2\n      swap1\n      pop\n      jump\t// out\n        /* \"#utility.yul\":6792:7099   */\n    tag_154:\n        /* \"#utility.yul\":6853:6857   */\n      0x00\n        /* \"#utility.yul\":6943:6961   */\n      0xffffffffffffffff\n        /* \"#utility.yul\":6935:6941   */\n      dup3\n        /* \"#utility.yul\":6932:6962   */\n      gt\n        /* \"#utility.yul\":6929:6985   */\n      iszero\n      tag_254\n      jumpi\n        /* \"#utility.yul\":6965:6983   */\n      tag_255\n      tag_151\n      jump\t// in\n    tag_255:\n        /* \"#utility.yul\":6929:6985   */\n    tag_254:\n        /* \"#utility.yul\":7003:7032   */\n      tag_256\n        /* \"#utility.yul\":7025:7031   */\n      dup3\n        /* \"#utility.yul\":7003:7032   */\n      tag_141\n      jump\t// in\n    tag_256:\n        /* \"#utility.yul\":6995:7032   */\n      swap1\n      pop\n        /* \"#utility.yul\":7087:7091   */\n      0x20\n        /* \"#utility.yul\":7081:7085   */\n      dup2\n        /* \"#utility.yul\":7077:7092   */\n      add\n        /* \"#utility.yul\":7069:7092   */\n      swap1\n      pop\n        /* \"#utility.yul\":6792:7099   */\n      swap2\n      swap1\n      pop\n      jump\t// out\n        /* \"#utility.yul\":7105:7259   */\n    tag_155:\n        /* \"#utility.yul\":7189:7195   */\n      dup3\n        /* \"#utility.yul\":7184:7187   */\n      dup2\n        /* \"#utility.yul\":7179:7182   */\n      dup4\n        /* \"#utility.yul\":7166:7196   */\n      calldatacopy\n        /* \"#utility.yul\":7251:7252   */\n      0x00\n        /* \"#utility.yul\":7242:7248   */\n      dup4\n        /* \"#utility.yul\":7237:7240   */\n      dup4\n        /* \"#utility.yul\":7233:7249   */\n      add\n        /* \"#utility.yul\":7226:7253   */\n      mstore\n        /* \"#utility.yul\":7105:7259   */\n      pop\n      pop\n      pop\n      jump\t// out\n        /* \"#utility.yul\":7265:7675   */\n    tag_156:\n        /* \"#utility.yul\":7342:7347   */\n      0x00\n        /* \"#utility.yul\":7367:7432   */\n      tag_259\n        /* \"#utility.yul\":7383:7431   */\n      tag_260\n        /* \"#utility.yul\":7424:7430   */\n      dup5\n        /* \"#utility.yul\":7383:7431   */\n      tag_154\n      jump\t// in\n    tag_260:\n        /* \"#utility.yul\":7367:7432   */\n      tag_153\n      jump\t// in\n    tag_259:\n        /* \"#utility.yul\":7358:7432   */\n      swap1\n      pop\n        /* \"#utility.yul\":7455:7461   */\n      dup3\n        /* \"#utility.yul\":7448:7453   */\n      dup2\n        /* \"#utility.yul\":7441:7462   */\n      mstore\n        /* \"#utility.yul\":7493:7497   */\n      0x20\n        /* \"#utility.yul\":7486:7491   */\n      dup2\n        /* \"#utility.yul\":7482:7498   */\n      add\n        /* \"#utility.yul\":7531:7534   */\n      dup5\n        /* \"#utility.yul\":7522:7528   */\n      dup5\n        /* \"#utility.yul\":7517:7520   */\n      dup5\n        /* \"#utility.yul\":7513:7529   */\n      add\n        /* \"#utility.yul\":7510:7535   */\n      gt\n        /* \"#utility.yul\":7507:7619   */\n      iszero\n      tag_261\n      jumpi\n        /* \"#utility.yul\":7538:7617   */\n      tag_262\n      tag_150\n      jump\t// in\n    tag_262:\n        /* \"#utility.yul\":7507:7619   */\n    tag_261:\n        /* \"#utility.yul\":7628:7669   */\n      tag_263\n        /* \"#utility.yul\":7662:7668   */\n      dup5\n        /* \"#utility.yul\":7657:7660   */\n      dup3\n        /* \"#utility.yul\":7652:7655   */\n      dup6\n        /* \"#utility.yul\":7628:7669   */\n      tag_155\n      jump\t// in\n    tag_263:\n        /* \"#utility.yul\":7348:7675   */\n      pop\n        /* \"#utility.yul\":7265:7675   */\n      swap4\n      swap3\n      pop\n      pop\n      pop\n      jump\t// out\n        /* \"#utility.yul\":7694:8032   */\n    tag_157:\n        /* \"#utility.yul\":7749:7754   */\n      0x00\n        /* \"#utility.yul\":7798:7801   */\n      dup3\n        /* \"#utility.yul\":7791:7795   */\n      0x1f\n        /* \"#utility.yul\":7783:7789   */\n      dup4\n        /* \"#utility.yul\":7779:7796   */\n      add\n        /* \"#utility.yul\":7775:7802   */\n      slt\n        /* \"#utility.yul\":7765:7887   */\n      tag_265\n      jumpi\n        /* \"#utility.yul\":7806:7885   */\n      tag_266\n      tag_149\n      jump\t// in\n    tag_266:\n        /* \"#utility.yul\":7765:7887   */\n    tag_265:\n        /* \"#utility.yul\":7923:7929   */\n      dup2\n        /* \"#utility.yul\":7910:7930   */\n      calldataload\n        /* \"#utility.yul\":7948:8026   */\n      tag_267\n        /* \"#utility.yul\":8022:8025   */\n      dup5\n        /* \"#utility.yul\":8014:8020   */\n      dup3\n        /* \"#utility.yul\":8007:8011   */\n      0x20\n        /* \"#utility.yul\":7999:8005   */\n      dup7\n        /* \"#utility.yul\":7995:8012   */\n      add\n        /* \"#utility.yul\":7948:8026   */\n      tag_156\n      jump\t// in\n    tag_267:\n        /* \"#utility.yul\":7939:8026   */\n      swap2\n      pop\n        /* \"#utility.yul\":7755:8032   */\n      pop\n        /* \"#utility.yul\":7694:8032   */\n      swap3\n      swap2\n      pop\n      pop\n      jump\t// out\n        /* \"#utility.yul\":8038:8835   */\n    tag_46:\n        /* \"#utility.yul\":8124:8130   */\n      0x00\n        /* \"#utility.yul\":8132:8138   */\n      dup1\n        /* \"#utility.yul\":8140:8146   */\n      0x00\n        /* \"#utility.yul\":8189:8191   */\n      0x60\n        /* \"#utility.yul\":8177:8186   */\n      dup5\n        /* \"#utility.yul\":8168:8175   */\n      dup7\n        /* \"#utility.yul\":8164:8187   */\n      sub\n        /* \"#utility.yul\":8160:8192   */\n      slt\n        /* \"#utility.yul\":8157:8276   */\n      iszero\n      tag_269\n      jumpi\n        /* \"#utility.yul\":8195:8274   */\n      tag_270\n      tag_130\n      jump\t// in\n    tag_270:\n        /* \"#utility.yul\":8157:8276   */\n    tag_269:\n        /* \"#utility.yul\":8315:8316   */\n      0x00\n        /* \"#utility.yul\":8340:8393   */\n      tag_271\n        /* \"#utility.yul\":8385:8392   */\n      dup7\n        /* \"#utility.yul\":8376:8382   */\n      dup3\n        /* \"#utility.yul\":8365:8374   */\n      dup8\n        /* \"#utility.yul\":8361:8383   */\n      add\n        /* \"#utility.yul\":8340:8393   */\n      tag_147\n      jump\t// in\n    tag_271:\n        /* \"#utility.yul\":8330:8393   */\n      swap4\n      pop\n        /* \"#utility.yul\":8286:8403   */\n      pop\n        /* \"#utility.yul\":8442:8444   */\n      0x20\n        /* \"#utility.yul\":8468:8521   */\n      tag_272\n        /* \"#utility.yul\":8513:8520   */\n      dup7\n        /* \"#utility.yul\":8504:8510   */\n      dup3\n        /* \"#utility.yul\":8493:8502   */\n      dup8\n        /* \"#utility.yul\":8489:8511   */\n      add\n        /* \"#utility.yul\":8468:8521   */\n      tag_133\n      jump\t// in\n    tag_272:\n        /* \"#utility.yul\":8458:8521   */\n      swap3\n      pop\n        /* \"#utility.yul\":8413:8531   */\n      pop\n        /* \"#utility.yul\":8598:8600   */\n      0x40\n        /* \"#utility.yul\":8587:8596   */\n      dup5\n        /* \"#utility.yul\":8583:8601   */\n      add\n        /* \"#utility.yul\":8570:8602   */\n      calldataload\n        /* \"#utility.yul\":8629:8647   */\n      0xffffffffffffffff\n        /* \"#utility.yul\":8621:8627   */\n      dup2\n        /* \"#utility.yul\":8618:8648   */\n      gt\n        /* \"#utility.yul\":8615:8732   */\n      iszero\n      tag_273\n      jumpi\n        /* \"#utility.yul\":8651:8730   */\n      tag_274\n      tag_131\n      jump\t// in\n    tag_274:\n        /* \"#utility.yul\":8615:8732   */\n    tag_273:\n        /* \"#utility.yul\":8756:8818   */\n      tag_275\n        /* \"#utility.yul\":8810:8817   */\n      dup7\n        /* \"#utility.yul\":8801:8807   */\n      dup3\n        /* \"#utility.yul\":8790:8799   */\n      dup8\n        /* \"#utility.yul\":8786:8808   */\n      add\n        /* \"#utility.yul\":8756:8818   */\n      tag_157\n      jump\t// in\n    tag_275:\n        /* \"#utility.yul\":8746:8818   */\n      swap2\n      pop\n        /* \"#utility.yul\":8541:8828   */\n      pop\n        /* \"#utility.yul\":8038:8835   */\n      swap3\n      pop\n      swap3\n      pop\n      swap3\n      jump\t// out\n        /* \"#utility.yul\":8841:9170   */\n    tag_59:\n        /* \"#utility.yul\":8900:8906   */\n      0x00\n        /* \"#utility.yul\":8949:8951   */\n      0x20\n        /* \"#utility.yul\":8937:8946   */\n      dup3\n        /* \"#utility.yul\":8928:8935   */\n      dup5\n        /* \"#utility.yul\":8924:8947   */\n      sub\n        /* \"#utility.yul\":8920:8952   */\n      slt\n        /* \"#utility.yul\":8917:9036   */\n      iszero\n      tag_277\n      jumpi\n        /* \"#utility.yul\":8955:9034   */\n      tag_278\n      tag_130\n      jump\t// in\n    tag_278:\n        /* \"#utility.yul\":8917:9036   */\n    tag_277:\n        /* \"#utility.yul\":9075:9076   */\n      0x00\n        /* \"#utility.yul\":9100:9153   */\n      tag_279\n        /* \"#utility.yul\":9145:9152   */\n      dup5\n        /* \"#utility.yul\":9136:9142   */\n      dup3\n        /* \"#utility.yul\":9125:9134   */\n      dup6\n        /* \"#utility.yul\":9121:9143   */\n      add\n        /* \"#utility.yul\":9100:9153   */\n      tag_147\n      jump\t// in\n    tag_279:\n        /* \"#utility.yul\":9090:9153   */\n      swap2\n      pop\n        /* \"#utility.yul\":9046:9163   */\n      pop\n        /* \"#utility.yul\":8841:9170   */\n      swap3\n      swap2\n      pop\n      pop\n      jump\t// out\n        /* \"#utility.yul\":9176:9356   */\n    tag_158:\n        /* \"#utility.yul\":9224:9301   */\n      0x4e487b7100000000000000000000000000000000000000000000000000000000\n        /* \"#utility.yul\":9221:9222   */\n      0x00\n        /* \"#utility.yul\":9214:9302   */\n      mstore\n        /* \"#utility.yul\":9321:9325   */\n      0x11\n        /* \"#utility.yul\":9318:9319   */\n      0x04\n        /* \"#utility.yul\":9311:9326   */\n      mstore\n        /* \"#utility.yul\":9345:9349   */\n      0x24\n        /* \"#utility.yul\":9342:9343   */\n      0x00\n        /* \"#utility.yul\":9335:9350   */\n      revert\n        /* \"#utility.yul\":9362:9553   */\n    tag_66:\n        /* \"#utility.yul\":9402:9406   */\n      0x00\n        /* \"#utility.yul\":9422:9442   */\n      tag_282\n        /* \"#utility.yul\":9440:9441   */\n      dup3\n        /* \"#utility.yul\":9422:9442   */\n      tag_127\n      jump\t// in\n    tag_282:\n        /* \"#utility.yul\":9417:9442   */\n      swap2\n      pop\n        /* \"#utility.yul\":9456:9476   */\n      tag_283\n        /* \"#utility.yul\":9474:9475   */\n      dup4\n        /* \"#utility.yul\":9456:9476   */\n      tag_127\n      jump\t// in\n    tag_283:\n        /* \"#utility.yul\":9451:9476   */\n      swap3\n      pop\n        /* \"#utility.yul\":9495:9496   */\n      dup3\n        /* \"#utility.yul\":9492:9493   */\n      dup3\n        /* \"#utility.yul\":9489:9497   */\n      lt\n        /* \"#utility.yul\":9486:9520   */\n      iszero\n      tag_284\n      jumpi\n        /* \"#utility.yul\":9500:9518   */\n      tag_285\n      tag_158\n      jump\t// in\n    tag_285:\n        /* \"#utility.yul\":9486:9520   */\n    tag_284:\n        /* \"#utility.yul\":9545:9546   */\n      dup3\n        /* \"#utility.yul\":9542:9543   */\n      dup3\n        /* \"#utility.yul\":9538:9547   */\n      sub\n        /* \"#utility.yul\":9530:9547   */\n      swap1\n      pop\n        /* \"#utility.yul\":9362:9553   */\n      swap3\n      swap2\n      pop\n      pop\n      jump\t// out\n        /* \"#utility.yul\":9559:9792   */\n    tag_74:\n        /* \"#utility.yul\":9598:9601   */\n      0x00\n        /* \"#utility.yul\":9621:9645   */\n      tag_287\n        /* \"#utility.yul\":9639:9644   */\n      dup3\n        /* \"#utility.yul\":9621:9645   */\n      tag_127\n      jump\t// in\n    tag_287:\n        /* \"#utility.yul\":9612:9645   */\n      swap2\n      pop\n        /* \"#utility.yul\":9667:9733   */\n      0xffffffffffffffffffffffffffffffffffffffffffffffffffffffffffffffff\n        /* \"#utility.yul\":9660:9665   */\n      dup3\n        /* \"#utility.yul\":9657:9734   */\n      sub\n        /* \"#utility.yul\":9654:9757   */\n      tag_288\n      jumpi\n        /* \"#utility.yul\":9737:9755   */\n      tag_289\n      tag_158\n      jump\t// in\n    tag_289:\n        /* \"#utility.yul\":9654:9757   */\n    tag_288:\n        /* \"#utility.yul\":9784:9785   */\n      0x01\n        /* \"#utility.yul\":9777:9782   */\n      dup3\n        /* \"#utility.yul\":9773:9786   */\n      add\n        /* \"#utility.yul\":9766:9786   */\n      swap1\n      pop\n        /* \"#utility.yul\":9559:9792   */\n      swap2\n      swap1\n      pop\n      jump\t// out\n        /* \"#utility.yul\":9798:9978   */\n    tag_159:\n        /* \"#utility.yul\":9846:9923   */\n      0x4e487b7100000000000000000000000000000000000000000000000000000000\n        /* \"#utility.yul\":9843:9844   */\n      0x00\n        /* \"#utility.yul\":9836:9924   */\n      mstore\n        /* \"#utility.yul\":9943:9947   */\n      0x22\n        /* \"#utility.yul\":9940:9941   */\n      0x04\n        /* \"#utility.yul\":9933:9948   */\n      mstore\n        /* \"#utility.yul\":9967:9971   */\n      0x24\n        /* \"#utility.yul\":9964:9965   */\n      0x00\n        /* \"#utility.yul\":9957:9972   */\n      revert\n        /* \"#utility.yul\":9984:10304   */\n    tag_82:\n        /* \"#utility.yul\":10028:10034   */\n      0x00\n        /* \"#utility.yul\":10065:10066   */\n      0x02\n        /* \"#utility.yul\":10059:10063   */\n      dup3\n        /* \"#utility.yul\":10055:10067   */\n      div\n        /* \"#utility.yul\":10045:10067   */\n      swap1\n      pop\n        /* \"#utility.yul\":10112:10113   */\n      0x01\n        /* \"#utility.yul\":10106:10110   */\n      dup3\n        /* \"#utility.yul\":10102:10114   */\n      and\n        /* \"#utility.yul\":10133:10151   */\n      dup1\n        /* \"#utility.yul\":10123:10204   */\n      tag_292\n      jumpi\n        /* \"#utility.yul\":10189:10193   */\n      0x7f\n        /* \"#utility.yul\":10181:10187   */\n      dup3\n        /* \"#utility.yul\":10177:10194   */\n      and\n        /* \"#utility.yul\":10167:10194   */\n      swap2\n      pop\n        /* \"#utility.yul\":10123:10204   */\n    tag_292:\n        /* \"#utility.yul\":10251:10253   */\n      0x20\n        /* \"#utility.yul\":10243:10249   */\n      dup3\n        /* \"#utility.yul\":10240:10254   */\n      lt\n        /* \"#utility.yul\":10220:10238   */\n      dup2\n        /* \"#utility.yul\":10217:10255   */\n      sub\n        /* \"#utility.yul\":10214:10298   */\n      tag_293\n      jumpi\n        /* \"#utility.yul\":10270:10288   */\n      tag_294\n      tag_159\n      jump\t// in\n    tag_294:\n        /* \"#utility.yul\":10214:10298   */\n    tag_293:\n        /* \"#utility.yul\":10035:10304   */\n      pop\n        /* \"#utility.yul\":9984:10304   */\n      swap2\n      swap1\n      pop\n      jump\t// out\n        /* \"#utility.yul\":10310:10457   */\n    tag_160:\n        /* \"#utility.yul\":10411:10422   */\n      0x00\n        /* \"#utility.yul\":10448:10451   */\n      dup2\n        /* \"#utility.yul\":10433:10451   */\n      swap1\n      pop\n        /* \"#utility.yul\":10310:10457   */\n      swap3\n      swap2\n      pop\n      pop\n      jump\t// out\n        /* \"#utility.yul\":10463:10603   */\n    tag_161:\n        /* \"#utility.yul\":10511:10515   */\n      0x00\n        /* \"#utility.yul\":10534:10537   */\n      dup2\n        /* \"#utility.yul\":10526:10537   */\n      swap1\n      pop\n        /* \"#utility.yul\":10557:10560   */\n      dup2\n        /* \"#utility.yul\":10554:10555   */\n      0x00\n        /* \"#utility.yul\":10547:10561   */\n      mstore\n        /* \"#utility.yul\":10591:10595   */\n      0x20\n        /* \"#utility.yul\":10588:10589   */\n      0x00\n        /* \"#utility.yul\":10578:10596   */\n      keccak256\n        /* \"#utility.yul\":10570:10596   */\n      swap1\n      pop\n        /* \"#utility.yul\":10463:10603   */\n      swap2\n      swap1\n      pop\n      jump\t// out\n        /* \"#utility.yul\":10631:11501   */\n    tag_162:\n        /* \"#utility.yul\":10732:10735   */\n      0x00\n        /* \"#utility.yul\":10769:10774   */\n      dup2\n        /* \"#utility.yul\":10763:10775   */\n      sload\n        /* \"#utility.yul\":10798:10834   */\n      tag_298\n        /* \"#utility.yul\":10824:10833   */\n      dup2\n        /* \"#utility.yul\":10798:10834   */\n      tag_82\n      jump\t// in\n    tag_298:\n        /* \"#utility.yul\":10850:10938   */\n      tag_299\n        /* \"#utility.yul\":10931:10937   */\n      dup2\n        /* \"#utility.yul\":10926:10929   */\n      dup7\n        /* \"#utility.yul\":10850:10938   */\n      tag_160\n      jump\t// in\n    tag_299:\n        /* \"#utility.yul\":10843:10938   */\n      swap5\n      pop\n        /* \"#utility.yul\":10969:10970   */\n      0x01\n        /* \"#utility.yul\":10958:10967   */\n      dup3\n        /* \"#utility.yul\":10954:10971   */\n      and\n        /* \"#utility.yul\":10985:10986   */\n      0x00\n        /* \"#utility.yul\":10980:11146   */\n      dup2\n      eq\n      tag_301\n      jumpi\n        /* \"#utility.yul\":11160:11161   */\n      0x01\n        /* \"#utility.yul\":11155:11495   */\n      dup2\n      eq\n      tag_302\n      jumpi\n        /* \"#utility.yul\":10947:11495   */\n      jump(tag_300)\n        /* \"#utility.yul\":10980:11146   */\n    tag_301:\n        /* \"#utility.yul\":11064:11068   */\n      0xff\n        /* \"#utility.yul\":11060:11069   */\n      not\n        /* \"#utility.yul\":11049:11058   */\n      dup4\n        /* \"#utility.yul\":11045:11070   */\n      and\n        /* \"#utility.yul\":11040:11043   */\n      dup7\n        /* \"#utility.yul\":11033:11071   */\n      mstore\n        /* \"#utility.yul\":11126:11132   */\n      dup2\n        /* \"#utility.yul\":11119:11133   */\n      iszero\n        /* \"#utility.yul\":11112:11134   */\n      iszero\n        /* \"#utility.yul\":11104:11110   */\n      dup3\n        /* \"#utility.yul\":11100:11135   */\n      mul\n        /* \"#utility.yul\":11095:11098   */\n      dup7\n        /* \"#utility.yul\":11091:11136   */\n      add\n        /* \"#utility.yul\":11084:11136   */\n      swap4\n      pop\n        /* \"#utility.yul\":10980:11146   */\n      jump(tag_300)\n        /* \"#utility.yul\":11155:11495   */\n    tag_302:\n        /* \"#utility.yul\":11222:11259   */\n      tag_303\n        /* \"#utility.yul\":11253:11258   */\n      dup6\n        /* \"#utility.yul\":11222:11259   */\n      tag_161\n      jump\t// in\n    tag_303:\n        /* \"#utility.yul\":11281:11282   */\n      0x00\n        /* \"#utility.yul\":11295:11449   */\n    tag_304:\n        /* \"#utility.yul\":11309:11315   */\n      dup4\n        /* \"#utility.yul\":11306:11307   */\n      dup2\n        /* \"#utility.yul\":11303:11316   */\n      lt\n        /* \"#utility.yul\":11295:11449   */\n      iszero\n      tag_306\n      jumpi\n        /* \"#utility.yul\":11383:11390   */\n      dup2\n        /* \"#utility.yul\":11377:11391   */\n      sload\n        /* \"#utility.yul\":11373:11374   */\n      dup2\n        /* \"#utility.yul\":11368:11371   */\n      dup10\n        /* \"#utility.yul\":11364:11375   */\n      add\n        /* \"#utility.yul\":11357:11392   */\n      mstore\n        /* \"#utility.yul\":11433:11434   */\n      0x01\n        /* \"#utility.yul\":11424:11431   */\n      dup3\n        /* \"#utility.yul\":11420:11435   */\n      add\n        /* \"#utility.yul\":11409:11435   */\n      swap2\n      pop\n        /* \"#utility.yul\":11331:11335   */\n      0x20\n        /* \"#utility.yul\":11328:11329   */\n      dup2\n        /* \"#utility.yul\":11324:11336   */\n      add\n        /* \"#utility.yul\":11319:11336   */\n      swap1\n      pop\n        /* \"#utility.yul\":11295:11449   */\n      jump(tag_304)\n    tag_306:\n        /* \"#utility.yul\":11478:11484   */\n      dup4\n        /* \"#utility.yul\":11473:11476   */\n      dup9\n        /* \"#utility.yul\":11469:11485   */\n      add\n        /* \"#utility.yul\":11462:11485   */\n      swap6\n      pop\n        /* \"#utility.yul\":11162:11495   */\n      pop\n      pop\n        /* \"#utility.yul\":10947:11495   */\n    tag_300:\n      pop\n        /* \"#utility.yul\":10736:11501   */\n      pop\n      pop\n        /* \"#utility.yul\":10631:11501   */\n      swap3\n      swap2\n      pop\n      pop\n      jump\t// out\n        /* \"#utility.yul\":11507:11772   */\n    tag_97:\n        /* \"#utility.yul\":11634:11637   */\n      0x00\n        /* \"#utility.yul\":11656:11746   */\n      tag_308\n        /* \"#utility.yul\":11742:11745   */\n      dup3\n        /* \"#utility.yul\":11733:11739   */\n      dup5\n        /* \"#utility.yul\":11656:11746   */\n      tag_162\n      jump\t// in\n    tag_308:\n        /* \"#utility.yul\":11649:11746   */\n      swap2\n      pop\n        /* \"#utility.yul\":11763:11766   */\n      dup2\n        /* \"#utility.yul\":11756:11766   */\n      swap1\n      pop\n        /* \"#utility.yul\":11507:11772   */\n      swap3\n      swap2\n      pop\n      pop\n      jump\t// out\n        /* \"#utility.yul\":11778:11896   */\n    tag_163:\n        /* \"#utility.yul\":11865:11889   */\n      tag_310\n        /* \"#utility.yul\":11883:11888   */\n      dup2\n        /* \"#utility.yul\":11865:11889   */\n      tag_136\n      jump\t// in\n    tag_310:\n        /* \"#utility.yul\":11860:11863   */\n      dup3\n        /* \"#utility.yul\":11853:11890   */\n      mstore\n        /* \"#utility.yul\":11778:11896   */\n      pop\n      pop\n      jump\t// out\n        /* \"#utility.yul\":11902:12124   */\n    tag_104:\n        /* \"#utility.yul\":11995:11999   */\n      0x00\n        /* \"#utility.yul\":12033:12035   */\n      0x20\n        /* \"#utility.yul\":12022:12031   */\n      dup3\n        /* \"#utility.yul\":12018:12036   */\n      add\n        /* \"#utility.yul\":12010:12036   */\n      swap1\n      pop\n        /* \"#utility.yul\":12046:12117   */\n      tag_312\n        /* \"#utility.yul\":12114:12115   */\n      0x00\n        /* \"#utility.yul\":12103:12112   */\n      dup4\n        /* \"#utility.yul\":12099:12116   */\n      add\n        /* \"#utility.yul\":12090:12096   */\n      dup5\n        /* \"#utility.yul\":12046:12117   */\n      tag_163\n      jump\t// in\n    tag_312:\n        /* \"#utility.yul\":11902:12124   */\n      swap3\n      swap2\n      pop\n      pop\n      jump\t// out\n        /* \"#utility.yul\":12130:12301   */\n    tag_116:\n        /* \"#utility.yul\":12169:12172   */\n      0x00\n        /* \"#utility.yul\":12192:12216   */\n      tag_314\n        /* \"#utility.yul\":12210:12215   */\n      dup3\n        /* \"#utility.yul\":12192:12216   */\n      tag_127\n      jump\t// in\n    tag_314:\n        /* \"#utility.yul\":12183:12216   */\n      swap2\n      pop\n        /* \"#utility.yul\":12238:12242   */\n      0x00\n        /* \"#utility.yul\":12231:12236   */\n      dup3\n        /* \"#utility.yul\":12228:12243   */\n      sub\n        /* \"#utility.yul\":12225:12266   */\n      tag_315\n      jumpi\n        /* \"#utility.yul\":12246:12264   */\n      tag_316\n      tag_158\n      jump\t// in\n    tag_316:\n        /* \"#utility.yul\":12225:12266   */\n    tag_315:\n        /* \"#utility.yul\":12293:12294   */\n      0x01\n        /* \"#utility.yul\":12286:12291   */\n      dup3\n        /* \"#utility.yul\":12282:12295   */\n      sub\n        /* \"#utility.yul\":12275:12295   */\n      swap1\n      pop\n        /* \"#utility.yul\":12130:12301   */\n      swap2\n      swap1\n      pop\n      jump\t// out\n        /* \"#utility.yul\":12307:12400   */\n    tag_164:\n        /* \"#utility.yul\":12344:12350   */\n      0x00\n        /* \"#utility.yul\":12391:12393   */\n      0x20\n        /* \"#utility.yul\":12386:12388   */\n      0x1f\n        /* \"#utility.yul\":12379:12384   */\n      dup4\n        /* \"#utility.yul\":12375:12389   */\n      add\n        /* \"#utility.yul\":12371:12394   */\n      div\n        /* \"#utility.yul\":12361:12394   */\n      swap1\n      pop\n        /* \"#utility.yul\":12307:12400   */\n      swap2\n      swap1\n      pop\n      jump\t// out\n        /* \"#utility.yul\":12406:12513   */\n    tag_165:\n        /* \"#utility.yul\":12450:12458   */\n      0x00\n        /* \"#utility.yul\":12500:12505   */\n      dup3\n        /* \"#utility.yul\":12494:12498   */\n      dup3\n        /* \"#utility.yul\":12490:12506   */\n      shl\n        /* \"#utility.yul\":12469:12506   */\n      swap1\n      pop\n        /* \"#utility.yul\":12406:12513   */\n      swap3\n      swap2\n      pop\n      pop\n      jump\t// out\n        /* \"#utility.yul\":12519:12912   */\n    tag_166:\n        /* \"#utility.yul\":12588:12594   */\n      0x00\n        /* \"#utility.yul\":12638:12639   */\n      0x08\n        /* \"#utility.yul\":12626:12636   */\n      dup4\n        /* \"#utility.yul\":12622:12640   */\n      mul\n        /* \"#utility.yul\":12661:12758   */\n      tag_320\n        /* \"#utility.yul\":12691:12757   */\n      0xffffffffffffffffffffffffffffffffffffffffffffffffffffffffffffffff\n        /* \"#utility.yul\":12680:12689   */\n      dup3\n        /* \"#utility.yul\":12661:12758   */\n      tag_165\n      jump\t// in\n    tag_320:\n        /* \"#utility.yul\":12779:12818   */\n      tag_321\n        /* \"#utility.yul\":12809:12817   */\n      dup7\n        /* \"#utility.yul\":12798:12807   */\n      dup4\n        /* \"#utility.yul\":12779:12818   */\n      tag_165\n      jump\t// in\n    tag_321:\n        /* \"#utility.yul\":12767:12818   */\n      swap6\n      pop\n        /* \"#utility.yul\":12851:12855   */\n      dup1\n        /* \"#utility.yul\":12847:12856   */\n      not\n        /* \"#utility.yul\":12840:12845   */\n      dup5\n        /* \"#utility.yul\":12836:12857   */\n      and\n        /* \"#utility.yul\":12827:12857   */\n      swap4\n      pop\n        /* \"#utility.yul\":12900:12904   */\n      dup1\n        /* \"#utility.yul\":12890:12898   */\n      dup7\n        /* \"#utility.yul\":12886:12905   */\n      and\n        /* \"#utility.yul\":12879:12884   */\n      dup5\n        /* \"#utility.yul\":12876:12906   */\n      or\n        /* \"#utility.yul\":12866:12906   */\n      swap3\n      pop\n        /* \"#utility.yul\":12595:12912   */\n      pop\n      pop\n        /* \"#utility.yul\":12519:12912   */\n      swap4\n      swap3\n      pop\n      pop\n      pop\n      jump\t// out\n        /* \"#utility.yul\":12918:12978   */\n    tag_167:\n        /* \"#utility.yul\":12946:12949   */\n      0x00\n        /* \"#utility.yul\":12967:12972   */\n      dup2\n        /* \"#utility.yul\":12960:12972   */\n      swap1\n      pop\n        /* \"#utility.yul\":12918:12978   */\n      swap2\n      swap1\n      pop\n      jump\t// out\n        /* \"#utility.yul\":12984:13126   */\n    tag_168:\n        /* \"#utility.yul\":13034:13043   */\n      0x00\n        /* \"#utility.yul\":13067:13120   */\n      tag_324\n        /* \"#utility.yul\":13085:13119   */\n      tag_325\n        /* \"#utility.yul\":13094:13118   */\n      tag_326\n        /* \"#utility.yul\":13112:13117   */\n      dup5\n        /* \"#utility.yul\":13094:13118   */\n      tag_127\n      jump\t// in\n    tag_326:\n        /* \"#utility.yul\":13085:13119   */\n      tag_167\n      jump\t// in\n    tag_325:\n        /* \"#utility.yul\":13067:13120   */\n      tag_127\n      jump\t// in\n    tag_324:\n        /* \"#utility.yul\":13054:13120   */\n      swap1\n      pop\n        /* \"#utility.yul\":12984:13126   */\n      swap2\n      swap1\n      pop\n      jump\t// out\n        /* \"#utility.yul\":13132:13207   */\n    tag_169:\n        /* \"#utility.yul\":13175:13178   */\n      0x00\n        /* \"#utility.yul\":13196:13201   */\n      dup2\n        /* \"#utility.yul\":13189:13201   */\n      swap1\n      pop\n        /* \"#utility.yul\":13132:13207   */\n      swap2\n      swap1\n      pop\n      jump\t// out\n        /* \"#utility.yul\":13213:13482   */\n    tag_170:\n        /* \"#utility.yul\":13323:13362   */\n      tag_329\n        /* \"#utility.yul\":13354:13361   */\n      dup4\n        /* \"#utility.yul\":13323:13362   */\n      tag_168\n      jump\t// in\n    tag_329:\n        /* \"#utility.yul\":13384:13475   */\n      tag_330\n        /* \"#utility.yul\":13433:13474   */\n      tag_331\n        /* \"#utility.yul\":13457:13473   */\n      dup3\n        /* \"#utility.yul\":13433:13474   */\n      tag_169\n      jump\t// in\n    tag_331:\n        /* \"#utility.yul\":13425:13431   */\n      dup5\n        /* \"#utility.yul\":13418:13422   */\n      dup5\n        /* \"#utility.yul\":13412:13423   */\n      sload\n        /* \"#utility.yul\":13384:13475   */\n      tag_166\n      jump\t// in\n    tag_330:\n        /* \"#utility.yul\":13378:13382   */\n      dup3\n        /* \"#utility.yul\":13371:13476   */\n      sstore\n        /* \"#utility.yul\":13289:13482   */\n      pop\n        /* \"#utility.yul\":13213:13482   */\n      pop\n      pop\n      pop\n      jump\t// out\n        /* \"#utility.yul\":13488:13561   */\n    tag_171:\n        /* \"#utility.yul\":13533:13536   */\n      0x00\n        /* \"#utility.yul\":13488:13561   */\n      swap1\n      jump\t// out\n        /* \"#utility.yul\":13567:13756   */\n    tag_172:\n        /* \"#utility.yul\":13644:13676   */\n      tag_334\n      tag_171\n      jump\t// in\n    tag_334:\n        /* \"#utility.yul\":13685:13750   */\n      tag_335\n        /* \"#utility.yul\":13743:13749   */\n      dup2\n        /* \"#utility.yul\":13735:13741   */\n      dup5\n        /* \"#utility.yul\":13729:13733   */\n      dup5\n        /* \"#utility.yul\":13685:13750   */\n      tag_170\n      jump\t// in\n    tag_335:\n        /* \"#utility.yul\":13620:13756   */\n      pop\n        /* \"#utility.yul\":13567:13756   */\n      pop\n      pop\n      jump\t// out\n        /* \"#utility.yul\":13762:13948   */\n    tag_173:\n        /* \"#utility.yul\":13822:13942   */\n    tag_337:\n        /* \"#utility.yul\":13839:13842   */\n      dup2\n        /* \"#utility.yul\":13832:13837   */\n      dup2\n        /* \"#utility.yul\":13829:13843   */\n      lt\n        /* \"#utility.yul\":13822:13942   */\n      iszero\n      tag_339\n      jumpi\n        /* \"#utility.yul\":13893:13932   */\n      tag_340\n        /* \"#utility.yul\":13930:13931   */\n      0x00\n        /* \"#utility.yul\":13923:13928   */\n      dup3\n        /* \"#utility.yul\":13893:13932   */\n      tag_172\n      jump\t// in\n    tag_340:\n        /* \"#utility.yul\":13866:13867   */\n      0x01\n        /* \"#utility.yul\":13859:13864   */\n      dup2\n        /* \"#utility.yul\":13855:13868   */\n      add\n        /* \"#utility.yul\":13846:13868   */\n      swap1\n      pop\n        /* \"#utility.yul\":13822:13942   */\n      jump(tag_337)\n    tag_339:\n        /* \"#utility.yul\":13762:13948   */\n      pop\n      pop\n      jump\t// out\n        /* \"#utility.yul\":13954:14495   */\n    tag_174:\n        /* \"#utility.yul\":14054:14056   */\n      0x1f\n        /* \"#utility.yul\":14049:14052   */\n      dup3\n        /* \"#utility.yul\":14046:14057   */\n      gt\n        /* \"#utility.yul\":14043:14488   */\n      iszero\n      tag_342\n      jumpi\n        /* \"#utility.yul\":14088:14125   */\n      tag_343\n        /* \"#utility.yul\":14119:14124   */\n      dup2\n        /* \"#utility.yul\":14088:14125   */\n      tag_161\n      jump\t// in\n    tag_343:\n        /* \"#utility.yul\":14171:14200   */\n      tag_344\n        /* \"#utility.yul\":14189:14199   */\n      dup5\n        /* \"#utility.yul\":14171:14200   */\n      tag_164\n      jump\t// in\n    tag_344:\n        /* \"#utility.yul\":14161:14169   */\n      dup2\n        /* \"#utility.yul\":14157:14201   */\n      add\n        /* \"#utility.yul\":14354:14356   */\n      0x20\n        /* \"#utility.yul\":14342:14352   */\n      dup6\n        /* \"#utility.yul\":14339:14357   */\n      lt\n        /* \"#utility.yul\":14336:14385   */\n      iszero\n      tag_345\n      jumpi\n        /* \"#utility.yul\":14375:14383   */\n      dup2\n        /* \"#utility.yul\":14360:14383   */\n      swap1\n      pop\n        /* \"#utility.yul\":14336:14385   */\n    tag_345:\n        /* \"#utility.yul\":14398:14478   */\n      tag_346\n        /* \"#utility.yul\":14454:14476   */\n      tag_347\n        /* \"#utility.yul\":14472:14475   */\n      dup6\n        /* \"#utility.yul\":14454:14476   */\n      tag_164\n      jump\t// in\n    tag_347:\n        /* \"#utility.yul\":14444:14452   */\n      dup4\n        /* \"#utility.yul\":14440:14477   */\n      add\n        /* \"#utility.yul\":14427:14438   */\n      dup3\n        /* \"#utility.yul\":14398:14478   */\n      tag_173\n      jump\t// in\n    tag_346:\n        /* \"#utility.yul\":14058:14488   */\n      pop\n      pop\n        /* \"#utility.yul\":14043:14488   */\n    tag_342:\n        /* \"#utility.yul\":13954:14495   */\n      pop\n      pop\n      pop\n      jump\t// out\n        /* \"#utility.yul\":14501:14618   */\n    tag_175:\n        /* \"#utility.yul\":14555:14563   */\n      0x00\n        /* \"#utility.yul\":14605:14610   */\n      dup3\n        /* \"#utility.yul\":14599:14603   */\n      dup3\n        /* \"#utility.yul\":14595:14611   */\n      shr\n        /* \"#utility.yul\":14574:14611   */\n      swap1\n      pop\n        /* \"#utility.yul\":14501:14618   */\n      swap3\n      swap2\n      pop\n      pop\n      jump\t// out\n        /* \"#utility.yul\":14624:14793   */\n    tag_176:\n        /* \"#utility.yul\":14668:14674   */\n      0x00\n        /* \"#utility.yul\":14701:14752   */\n      tag_350\n        /* \"#utility.yul\":14749:14750   */\n      0x00\n        /* \"#utility.yul\":14745:14751   */\n      not\n        /* \"#utility.yul\":14737:14742   */\n      dup5\n        /* \"#utility.yul\":14734:14735   */\n      0x08\n        /* \"#utility.yul\":14730:14743   */\n      mul\n        /* \"#utility.yul\":14701:14752   */\n      tag_175\n      jump\t// in\n    tag_350:\n        /* \"#utility.yul\":14697:14753   */\n      not\n        /* \"#utility.yul\":14782:14786   */\n      dup1\n        /* \"#utility.yul\":14776:14780   */\n      dup4\n        /* \"#utility.yul\":14772:14787   */\n      and\n        /* \"#utility.yul\":14762:14787   */\n      swap2\n      pop\n        /* \"#utility.yul\":14675:14793   */\n      pop\n        /* \"#utility.yul\":14624:14793   */\n      swap3\n      swap2\n      pop\n      pop\n      jump\t// out\n        /* \"#utility.yul\":14798:15093   */\n    tag_177:\n        /* \"#utility.yul\":14874:14878   */\n      0x00\n        /* \"#utility.yul\":15020:15049   */\n      tag_352\n        /* \"#utility.yul\":15045:15048   */\n      dup4\n        /* \"#utility.yul\":15039:15043   */\n      dup4\n        /* \"#utility.yul\":15020:15049   */\n      tag_176\n      jump\t// in\n    tag_352:\n        /* \"#utility.yul\":15012:15049   */\n      swap2\n      pop\n        /* \"#utility.yul\":15082:15085   */\n      dup3\n        /* \"#utility.yul\":15079:15080   */\n      0x02\n        /* \"#utility.yul\":15075:15086   */\n      mul\n        /* \"#utility.yul\":15069:15073   */\n      dup3\n        /* \"#utility.yul\":15066:15087   */\n      or\n        /* \"#utility.yul\":15058:15087   */\n      swap1\n      pop\n        /* \"#utility.yul\":14798:15093   */\n      swap3\n      swap2\n      pop\n      pop\n      jump\t// out\n        /* \"#utility.yul\":15098:16488   */\n    tag_122:\n        /* \"#utility.yul\":15213:15249   */\n      tag_354\n        /* \"#utility.yul\":15245:15248   */\n      dup3\n        /* \"#utility.yul\":15213:15249   */\n      tag_138\n      jump\t// in\n    tag_354:\n        /* \"#utility.yul\":15314:15332   */\n      0xffffffffffffffff\n        /* \"#utility.yul\":15306:15312   */\n      dup2\n        /* \"#utility.yul\":15303:15333   */\n      gt\n        /* \"#utility.yul\":15300:15356   */\n      iszero\n      tag_355\n      jumpi\n        /* \"#utility.yul\":15336:15354   */\n      tag_356\n      tag_151\n      jump\t// in\n    tag_356:\n        /* \"#utility.yul\":15300:15356   */\n    tag_355:\n        /* \"#utility.yul\":15380:15418   */\n      tag_357\n        /* \"#utility.yul\":15412:15416   */\n      dup3\n        /* \"#utility.yul\":15406:15417   */\n      sload\n        /* \"#utility.yul\":15380:15418   */\n      tag_82\n      jump\t// in\n    tag_357:\n        /* \"#utility.yul\":15465:15531   */\n      tag_358\n        /* \"#utility.yul\":15524:15530   */\n      dup3\n        /* \"#utility.yul\":15516:15522   */\n      dup3\n        /* \"#utility.yul\":15510:15514   */\n      dup6\n        /* \"#utility.yul\":15465:15531   */\n      tag_174\n      jump\t// in\n    tag_358:\n        /* \"#utility.yul\":15558:15559   */\n      0x00\n        /* \"#utility.yul\":15582:15586   */\n      0x20\n        /* \"#utility.yul\":15569:15586   */\n      swap1\n      pop\n        /* \"#utility.yul\":15614:15616   */\n      0x1f\n        /* \"#utility.yul\":15606:15612   */\n      dup4\n        /* \"#utility.yul\":15603:15617   */\n      gt\n        /* \"#utility.yul\":15631:15632   */\n      0x01\n        /* \"#utility.yul\":15626:16243   */\n      dup2\n      eq\n      tag_360\n      jumpi\n        /* \"#utility.yul\":16287:16288   */\n      0x00\n        /* \"#utility.yul\":16304:16310   */\n      dup5\n        /* \"#utility.yul\":16301:16378   */\n      iszero\n      tag_361\n      jumpi\n        /* \"#utility.yul\":16353:16362   */\n      dup3\n        /* \"#utility.yul\":16348:16351   */\n      dup8\n        /* \"#utility.yul\":16344:16363   */\n      add\n        /* \"#utility.yul\":16338:16364   */\n      mload\n        /* \"#utility.yul\":16329:16364   */\n      swap1\n      pop\n        /* \"#utility.yul\":16301:16378   */\n    tag_361:\n        /* \"#utility.yul\":16404:16471   */\n      tag_362\n        /* \"#utility.yul\":16464:16470   */\n      dup6\n        /* \"#utility.yul\":16457:16462   */\n      dup3\n        /* \"#utility.yul\":16404:16471   */\n      tag_177\n      jump\t// in\n    tag_362:\n        /* \"#utility.yul\":16398:16402   */\n      dup7\n        /* \"#utility.yul\":16391:16472   */\n      sstore\n        /* \"#utility.yul\":16260:16482   */\n      pop\n        /* \"#utility.yul\":15596:16482   */\n      jump(tag_359)\n        /* \"#utility.yul\":15626:16243   */\n    tag_360:\n        /* \"#utility.yul\":15678:15682   */\n      0x1f\n        /* \"#utility.yul\":15674:15683   */\n      not\n        /* \"#utility.yul\":15666:15672   */\n      dup5\n        /* \"#utility.yul\":15662:15684   */\n      and\n        /* \"#utility.yul\":15712:15748   */\n      tag_363\n        /* \"#utility.yul\":15743:15747   */\n      dup7\n        /* \"#utility.yul\":15712:15748   */\n      tag_161\n      jump\t// in\n    tag_363:\n        /* \"#utility.yul\":15770:15771   */\n      0x00\n        /* \"#utility.yul\":15784:15992   */\n    tag_364:\n        /* \"#utility.yul\":15798:15805   */\n      dup3\n        /* \"#utility.yul\":15795:15796   */\n      dup2\n        /* \"#utility.yul\":15792:15806   */\n      lt\n        /* \"#utility.yul\":15784:15992   */\n      iszero\n      tag_366\n      jumpi\n        /* \"#utility.yul\":15877:15886   */\n      dup5\n        /* \"#utility.yul\":15872:15875   */\n      dup10\n        /* \"#utility.yul\":15868:15887   */\n      add\n        /* \"#utility.yul\":15862:15888   */\n      mload\n        /* \"#utility.yul\":15854:15860   */\n      dup3\n        /* \"#utility.yul\":15847:15889   */\n      sstore\n        /* \"#utility.yul\":15928:15929   */\n      0x01\n        /* \"#utility.yul\":15920:15926   */\n      dup3\n        /* \"#utility.yul\":15916:15930   */\n      add\n        /* \"#utility.yul\":15906:15930   */\n      swap2\n      pop\n        /* \"#utility.yul\":15975:15977   */\n      0x20\n        /* \"#utility.yul\":15964:15973   */\n      dup6\n        /* \"#utility.yul\":15960:15978   */\n      add\n        /* \"#utility.yul\":15947:15978   */\n      swap5\n      pop\n        /* \"#utility.yul\":15821:15825   */\n      0x20\n        /* \"#utility.yul\":15818:15819   */\n      dup2\n        /* \"#utility.yul\":15814:15826   */\n      add\n        /* \"#utility.yul\":15809:15826   */\n      swap1\n      pop\n        /* \"#utility.yul\":15784:15992   */\n      jump(tag_364)\n    tag_366:\n        /* \"#utility.yul\":16020:16026   */\n      dup7\n        /* \"#utility.yul\":16011:16018   */\n      dup4\n        /* \"#utility.yul\":16008:16027   */\n      lt\n        /* \"#utility.yul\":16005:16184   */\n      iszero\n      tag_367\n      jumpi\n        /* \"#utility.yul\":16078:16087   */\n      dup5\n        /* \"#utility.yul\":16073:16076   */\n      dup10\n        /* \"#utility.yul\":16069:16088   */\n      add\n        /* \"#utility.yul\":16063:16089   */\n      mload\n        /* \"#utility.yul\":16121:16169   */\n      tag_368\n        /* \"#utility.yul\":16163:16167   */\n      0x1f\n        /* \"#utility.yul\":16155:16161   */\n      dup10\n        /* \"#utility.yul\":16151:16168   */\n      and\n        /* \"#utility.yul\":16140:16149   */\n      dup3\n        /* \"#utility.yul\":16121:16169   */\n      tag_176\n      jump\t// in\n    tag_368:\n        /* \"#utility.yul\":16113:16119   */\n      dup4\n        /* \"#utility.yul\":16106:16170   */\n      sstore\n        /* \"#utility.yul\":16028:16184   */\n      pop\n        /* \"#utility.yul\":16005:16184   */\n    tag_367:\n        /* \"#utility.yul\":16230:16231   */\n      0x01\n        /* \"#utility.yul\":16226:16227   */\n      0x02\n        /* \"#utility.yul\":16218:16224   */\n      dup9\n        /* \"#utility.yul\":16214:16228   */\n      mul\n        /* \"#utility.yul\":16210:16232   */\n      add\n        /* \"#utility.yul\":16204:16208   */\n      dup9\n        /* \"#utility.yul\":16197:16233   */\n      sstore\n        /* \"#utility.yul\":15633:16243   */\n      pop\n      pop\n      pop\n        /* \"#utility.yul\":15596:16482   */\n    tag_359:\n      pop\n        /* \"#utility.yul\":15188:16488   */\n      pop\n      pop\n      pop\n        /* \"#utility.yul\":15098:16488   */\n      pop\n      pop\n      jump\t// out\n        /* \"#utility.yul\":16494:16867   */\n    tag_178:\n        /* \"#utility.yul\":16598:16601   */\n      0x00\n        /* \"#utility.yul\":16626:16664   */\n      tag_370\n        /* \"#utility.yul\":16658:16663   */\n      dup3\n        /* \"#utility.yul\":16626:16664   */\n      tag_138\n      jump\t// in\n    tag_370:\n        /* \"#utility.yul\":16680:16768   */\n      tag_371\n        /* \"#utility.yul\":16761:16767   */\n      dup2\n        /* \"#utility.yul\":16756:16759   */\n      dup6\n        /* \"#utility.yul\":16680:16768   */\n      tag_160\n      jump\t// in\n    tag_371:\n        /* \"#utility.yul\":16673:16768   */\n      swap4\n      pop\n        /* \"#utility.yul\":16777:16829   */\n      tag_372\n        /* \"#utility.yul\":16822:16828   */\n      dup2\n        /* \"#utility.yul\":16817:16820   */\n      dup6\n        /* \"#utility.yul\":16810:16814   */\n      0x20\n        /* \"#utility.yul\":16803:16808   */\n      dup7\n        /* \"#utility.yul\":16799:16815   */\n      add\n        /* \"#utility.yul\":16777:16829   */\n      tag_140\n      jump\t// in\n    tag_372:\n        /* \"#utility.yul\":16854:16860   */\n      dup1\n        /* \"#utility.yul\":16849:16852   */\n      dup5\n        /* \"#utility.yul\":16845:16861   */\n      add\n        /* \"#utility.yul\":16838:16861   */\n      swap2\n      pop\n        /* \"#utility.yul\":16602:16867   */\n      pop\n        /* \"#utility.yul\":16494:16867   */\n      swap3\n      swap2\n      pop\n      pop\n      jump\t// out\n        /* \"#utility.yul\":16873:17144   */\n    tag_125:\n        /* \"#utility.yul\":17003:17006   */\n      0x00\n        /* \"#utility.yul\":17025:17118   */\n      tag_374\n        /* \"#utility.yul\":17114:17117   */\n      dup3\n        /* \"#utility.yul\":17105:17111   */\n      dup5\n        /* \"#utility.yul\":17025:17118   */\n      tag_178\n      jump\t// in\n    tag_374:\n        /* \"#utility.yul\":17018:17118   */\n      swap2\n      pop\n        /* \"#utility.yul\":17135:17138   */\n      dup2\n        /* \"#utility.yul\":17128:17138   */\n      swap1\n      pop\n        /* \"#utility.yul\":16873:17144   */\n      swap3\n      swap2\n      pop\n      pop\n      jump\t// out\n\n    auxdata: 0xa2646970667358221220c73b74234da285aa2a108f89d4569b2cc92e23ae4be0c4b48ecf21e1de748eab64736f6c634300080f0033\n}\n",
				"bytecode": {
					"linkReferences": {},
					"object": "60806040523480156200001157600080fd5b5060405162001e0938038062001e09833981810160405281019062000037919062000434565b815181111562000073576040517faa6eac5100000000000000000000000000000000000000000000000000000000815260040160405180910390fd5b60005b8251811015620001fb5760008382815181106200009857620000976200049a565b5b60200260200101519050600073ffffffffffffffffffffffffffffffffffffffff168173ffffffffffffffffffffffffffffffffffffffff160362000109576040517fd924e5f400000000000000000000000000000000000000000000000000000000815260040160405180910390fd5b6000808273ffffffffffffffffffffffffffffffffffffffff1673ffffffffffffffffffffffffffffffffffffffff16815260200190815260200160002060009054906101000a900460ff16156200018d576040517fc0159e0e00000000000000000000000000000000000000000000000000000000815260040160405180910390fd5b60016000808373ffffffffffffffffffffffffffffffffffffffff1673ffffffffffffffffffffffffffffffffffffffff16815260200190815260200160002060006101000a81548160ff021916908315150217905550508080620001f290620004f8565b91505062000076565b5080600381905550505062000545565b6000604051905090565b600080fd5b600080fd5b600080fd5b6000601f19601f8301169050919050565b7f4e487b7100000000000000000000000000000000000000000000000000000000600052604160045260246000fd5b6200026f8262000224565b810181811067ffffffffffffffff8211171562000291576200029062000235565b5b80604052505050565b6000620002a66200020b565b9050620002b4828262000264565b919050565b600067ffffffffffffffff821115620002d757620002d662000235565b5b602082029050602081019050919050565b600080fd5b600073ffffffffffffffffffffffffffffffffffffffff82169050919050565b60006200031a82620002ed565b9050919050565b6200032c816200030d565b81146200033857600080fd5b50565b6000815190506200034c8162000321565b92915050565b6000620003696200036384620002b9565b6200029a565b905080838252602082019050602084028301858111156200038f576200038e620002e8565b5b835b81811015620003bc5780620003a788826200033b565b84526020840193505060208101905062000391565b5050509392505050565b600082601f830112620003de57620003dd6200021f565b5b8151620003f084826020860162000352565b91505092915050565b6000819050919050565b6200040e81620003f9565b81146200041a57600080fd5b50565b6000815190506200042e8162000403565b92915050565b600080604083850312156200044e576200044d62000215565b5b600083015167ffffffffffffffff8111156200046f576200046e6200021a565b5b6200047d85828601620003c6565b925050602062000490858286016200041d565b9150509250929050565b7f4e487b7100000000000000000000000000000000000000000000000000000000600052603260045260246000fd5b7f4e487b7100000000000000000000000000000000000000000000000000000000600052601160045260246000fd5b60006200050582620003f9565b91507fffffffffffffffffffffffffffffffffffffffffffffffffffffffffffffffff82036200053a5762000539620004c9565b5b600182019050919050565b6118b480620005556000396000f3fe60806040526004361061008a5760003560e01c8063b1e130fc11610059578063b1e130fc146101b1578063bb84c5a9146101da578063cd568d1f14610203578063dc8452cd1461022e578063e0e3671c14610259576100e0565b80631087393a146100e557806333ea3dc81461010e57806354b5fe801461014b5780638f9487eb14610174576100e0565b366100e057343373ffffffffffffffffffffffffffffffffffffffff167f90890809c654f11d6e72a28fa60149770a0d11ec6c92319d6ceb2bb0a4ea1a15476040516100d69190610f17565b60405180910390a3005b600080fd5b3480156100f157600080fd5b5061010c60048036038101906101079190610f72565b610296565b005b34801561011a57600080fd5b5061013560048036038101906101309190610f72565b610532565b604051610142919061112c565b60405180910390f35b34801561015757600080fd5b50610172600480360381019061016d9190610f72565b6106ca565b005b34801561018057600080fd5b5061019b6004803603810190610196919061117a565b6109cc565b6040516101a891906111c9565b60405180910390f35b3480156101bd57600080fd5b506101d860048036038101906101d39190610f72565b610a34565b005b3480156101e657600080fd5b5061020160048036038101906101fc9190611319565b610cd3565b005b34801561020f57600080fd5b50610218610e4f565b6040516102259190610f17565b60405180910390f35b34801561023a57600080fd5b50610243610e55565b6040516102509190610f17565b60405180910390f35b34801561026557600080fd5b50610280600480360381019061027b9190611388565b610e5b565b60405161028d91906111c9565b60405180910390f35b6000803373ffffffffffffffffffffffffffffffffffffffff1673ffffffffffffffffffffffffffffffffffffffff16815260200190815260200160002060009054906101000a900460ff16610318576040517f30cd747100000000000000000000000000000000000000000000000000000000815260040160405180910390fd5b80600160045461032891906113e4565b811115610361576040517f9e1b596f00000000000000000000000000000000000000000000000000000000815260040160405180910390fd5b816002600082815260200190815260200160002060003373ffffffffffffffffffffffffffffffffffffffff1673ffffffffffffffffffffffffffffffffffffffff16815260200190815260200160002060009054906101000a900460ff16156103f7576040517f5db7ec0d00000000000000000000000000000000000000000000000000000000815260040160405180910390fd5b826001600082815260200190815260200160002060050160009054906101000a900460ff1615610453576040517f2ea945cf00000000000000000000000000000000000000000000000000000000815260040160405180910390fd5b60016000858152602001908152602001600020600401600081548092919061047a90611418565b919050555060016002600086815260200190815260200160002060003373ffffffffffffffffffffffffffffffffffffffff1673ffffffffffffffffffffffffffffffffffffffff16815260200190815260200160002060006101000a81548160ff0219169083151502179055503373ffffffffffffffffffffffffffffffffffffffff16847fd4329d04e785ebe84c72dcd09fb9c65f1fbbda53ee15ec20e93342c7f3e2a62d60405160405180910390a350505050565b61053a610eb0565b81600160045461054a91906113e4565b811115610583576040517f9e1b596f00000000000000000000000000000000000000000000000000000000815260040160405180910390fd5b600160008481526020019081526020016000206040518060c0016040529081600082015481526020016001820160009054906101000a900473ffffffffffffffffffffffffffffffffffffffff1673ffffffffffffffffffffffffffffffffffffffff1673ffffffffffffffffffffffffffffffffffffffff1681526020016002820154815260200160038201805461061b9061148f565b80601f01602080910402602001604051908101604052809291908181526020018280546106479061148f565b80156106945780601f1061066957610100808354040283529160200191610694565b820191906000526020600020905b81548152906001019060200180831161067757829003601f168201915b50505050508152602001600482015481526020016005820160009054906101000a900460ff161515151581525050915050919050565b6000803373ffffffffffffffffffffffffffffffffffffffff1673ffffffffffffffffffffffffffffffffffffffff16815260200190815260200160002060009054906101000a900460ff1661074c576040517f30cd747100000000000000000000000000000000000000000000000000000000815260040160405180910390fd5b80600160045461075c91906113e4565b811115610795576040517f9e1b596f00000000000000000000000000000000000000000000000000000000815260040160405180910390fd5b816001600082815260200190815260200160002060050160009054906101000a900460ff16156107f1576040517f2ea945cf00000000000000000000000000000000000000000000000000000000815260040160405180910390fd5b600060016000858152602001908152602001600020905060035481600401541015610848576040517f9dd63cb700000000000000000000000000000000000000000000000000000000815260040160405180910390fd5b60018160050160006101000a81548160ff02191690831515021790555060008160010160009054906101000a900473ffffffffffffffffffffffffffffffffffffffff1673ffffffffffffffffffffffffffffffffffffffff168260020154836003016040516108b89190611563565b60006040518083038185875af1925050503d80600081146108f5576040519150601f19603f3d011682016040523d82523d6000602084013e6108fa565b606091505b5050905080610935576040517fcb2f2a1c00000000000000000000000000000000000000000000000000000000815260040160405180910390fd5b816003016040516109469190611563565b604051809103902082600201548360010160009054906101000a900473ffffffffffffffffffffffffffffffffffffffff1673ffffffffffffffffffffffffffffffffffffffff167fb91792dfbec9d14f14efe0fd0328fe544073cd1befa73f98441bce708e643179336040516109bd9190611589565b60405180910390a45050505050565b60006002600084815260200190815260200160002060008373ffffffffffffffffffffffffffffffffffffffff1673ffffffffffffffffffffffffffffffffffffffff16815260200190815260200160002060009054906101000a900460ff16905092915050565b6000803373ffffffffffffffffffffffffffffffffffffffff1673ffffffffffffffffffffffffffffffffffffffff16815260200190815260200160002060009054906101000a900460ff16610ab6576040517f30cd747100000000000000000000000000000000000000000000000000000000815260040160405180910390fd5b806001600454610ac691906113e4565b811115610aff576040517f9e1b596f00000000000000000000000000000000000000000000000000000000815260040160405180910390fd5b816001600082815260200190815260200160002060050160009054906101000a900460ff1615610b5b576040517f2ea945cf00000000000000000000000000000000000000000000000000000000815260040160405180910390fd5b6002600084815260200190815260200160002060003373ffffffffffffffffffffffffffffffffffffffff1673ffffffffffffffffffffffffffffffffffffffff16815260200190815260200160002060009054906101000a900460ff1615610c5857600160008481526020019081526020016000206004016000815480929190610be5906115a4565b919050555060006002600085815260200190815260200160002060003373ffffffffffffffffffffffffffffffffffffffff1673ffffffffffffffffffffffffffffffffffffffff16815260200190815260200160002060006101000a81548160ff021916908315150217905550610c8a565b6040517ffafe52bf00000000000000000000000000000000000000000000000000000000815260040160405180910390fd5b823373ffffffffffffffffffffffffffffffffffffffff167f1e75c0948730226138e58d1e7446b6167b5159a6904c3ac4597714f298d13df260405160405180910390a3505050565b6000803373ffffffffffffffffffffffffffffffffffffffff1673ffffffffffffffffffffffffffffffffffffffff16815260200190815260200160002060009054906101000a900460ff16610d55576040517f30cd747100000000000000000000000000000000000000000000000000000000815260040160405180910390fd5b600060016000600454815260200190815260200160002090506004548160000181905550838160010160006101000a81548173ffffffffffffffffffffffffffffffffffffffff021916908373ffffffffffffffffffffffffffffffffffffffff16021790555082816002018190555081816003019081610dd69190611764565b5060046000815480929190610dea90611418565b919050555081604051610dfd9190611867565b6040518091039020838573ffffffffffffffffffffffffffffffffffffffff167f315d8bf6c6d36a1411ee3d8d607b26df37940936bd273e006857a296fbac2ce860405160405180910390a450505050565b60045481565b60035481565b60008060008373ffffffffffffffffffffffffffffffffffffffff1673ffffffffffffffffffffffffffffffffffffffff16815260200190815260200160002060009054906101000a900460ff169050919050565b6040518060c0016040528060008152602001600073ffffffffffffffffffffffffffffffffffffffff1681526020016000815260200160608152602001600081526020016000151581525090565b6000819050919050565b610f1181610efe565b82525050565b6000602082019050610f2c6000830184610f08565b92915050565b6000604051905090565b600080fd5b600080fd5b610f4f81610efe565b8114610f5a57600080fd5b50565b600081359050610f6c81610f46565b92915050565b600060208284031215610f8857610f87610f3c565b5b6000610f9684828501610f5d565b91505092915050565b610fa881610efe565b82525050565b600073ffffffffffffffffffffffffffffffffffffffff82169050919050565b6000610fd982610fae565b9050919050565b610fe981610fce565b82525050565b600081519050919050565b600082825260208201905092915050565b60005b8381101561102957808201518184015260208101905061100e565b83811115611038576000848401525b50505050565b6000601f19601f8301169050919050565b600061105a82610fef565b6110648185610ffa565b935061107481856020860161100b565b61107d8161103e565b840191505092915050565b60008115159050919050565b61109d81611088565b82525050565b600060c0830160008301516110bb6000860182610f9f565b5060208301516110ce6020860182610fe0565b5060408301516110e16040860182610f9f565b50606083015184820360608601526110f9828261104f565b915050608083015161110e6080860182610f9f565b5060a083015161112160a0860182611094565b508091505092915050565b6000602082019050818103600083015261114681846110a3565b905092915050565b61115781610fce565b811461116257600080fd5b50565b6000813590506111748161114e565b92915050565b6000806040838503121561119157611190610f3c565b5b600061119f85828601610f5d565b92505060206111b085828601611165565b9150509250929050565b6111c381611088565b82525050565b60006020820190506111de60008301846111ba565b92915050565b600080fd5b600080fd5b7f4e487b7100000000000000000000000000000000000000000000000000000000600052604160045260246000fd5b6112268261103e565b810181811067ffffffffffffffff82111715611245576112446111ee565b5b80604052505050565b6000611258610f32565b9050611264828261121d565b919050565b600067ffffffffffffffff821115611284576112836111ee565b5b61128d8261103e565b9050602081019050919050565b82818337600083830152505050565b60006112bc6112b784611269565b61124e565b9050828152602081018484840111156112d8576112d76111e9565b5b6112e384828561129a565b509392505050565b600082601f830112611300576112ff6111e4565b5b81356113108482602086016112a9565b91505092915050565b60008060006060848603121561133257611331610f3c565b5b600061134086828701611165565b935050602061135186828701610f5d565b925050604084013567ffffffffffffffff81111561137257611371610f41565b5b61137e868287016112eb565b9150509250925092565b60006020828403121561139e5761139d610f3c565b5b60006113ac84828501611165565b91505092915050565b7f4e487b7100000000000000000000000000000000000000000000000000000000600052601160045260246000fd5b60006113ef82610efe565b91506113fa83610efe565b92508282101561140d5761140c6113b5565b5b828203905092915050565b600061142382610efe565b91507fffffffffffffffffffffffffffffffffffffffffffffffffffffffffffffffff8203611455576114546113b5565b5b600182019050919050565b7f4e487b7100000000000000000000000000000000000000000000000000000000600052602260045260246000fd5b600060028204905060018216806114a757607f821691505b6020821081036114ba576114b9611460565b5b50919050565b600081905092915050565b60008190508160005260206000209050919050565b600081546114ed8161148f565b6114f781866114c0565b9450600182166000811461151257600181146115275761155a565b60ff198316865281151582028601935061155a565b611530856114cb565b60005b8381101561155257815481890152600182019150602081019050611533565b838801955050505b50505092915050565b600061156f82846114e0565b915081905092915050565b61158381610fce565b82525050565b600060208201905061159e600083018461157a565b92915050565b60006115af82610efe565b9150600082036115c2576115c16113b5565b5b600182039050919050565b60006020601f8301049050919050565b600082821b905092915050565b60006008830261161a7fffffffffffffffffffffffffffffffffffffffffffffffffffffffffffffffff826115dd565b61162486836115dd565b95508019841693508086168417925050509392505050565b6000819050919050565b600061166161165c61165784610efe565b61163c565b610efe565b9050919050565b6000819050919050565b61167b83611646565b61168f61168782611668565b8484546115ea565b825550505050565b600090565b6116a4611697565b6116af818484611672565b505050565b5b818110156116d3576116c860008261169c565b6001810190506116b5565b5050565b601f821115611718576116e9816114cb565b6116f2846115cd565b81016020851015611701578190505b61171561170d856115cd565b8301826116b4565b50505b505050565b600082821c905092915050565b600061173b6000198460080261171d565b1980831691505092915050565b6000611754838361172a565b9150826002028217905092915050565b61176d82610fef565b67ffffffffffffffff811115611786576117856111ee565b5b611790825461148f565b61179b8282856116d7565b600060209050601f8311600181146117ce57600084156117bc578287015190505b6117c68582611748565b86555061182e565b601f1984166117dc866114cb565b60005b82811015611804578489015182556001820191506020850194506020810190506117df565b86831015611821578489015161181d601f89168261172a565b8355505b6001600288020188555050505b505050505050565b600061184182610fef565b61184b81856114c0565b935061185b81856020860161100b565b80840191505092915050565b60006118738284611836565b91508190509291505056fea2646970667358221220c73b74234da285aa2a108f89d4569b2cc92e23ae4be0c4b48ecf21e1de748eab64736f6c634300080f0033",
					"opcodes": "PUSH1 0x80 PUSH1 0x40 MSTORE CALLVALUE DUP1 ISZERO PUSH3 0x11 JUMPI PUSH1 0x0 DUP1 REVERT JUMPDEST POP PUSH1 0x40 MLOAD PUSH3 0x1E09 CODESIZE SUB DUP1 PUSH3 0x1E09 DUP4 CODECOPY DUP2 DUP2 ADD PUSH1 0x40 MSTORE DUP2 ADD SWAP1 PUSH3 0x37 SWAP2 SWAP1 PUSH3 0x434 JUMP JUMPDEST DUP2 MLOAD DUP2 GT ISZERO PUSH3 0x73 JUMPI PUSH1 0x40 MLOAD PUSH32 0xAA6EAC5100000000000000000000000000000000000000000000000000000000 DUP2 MSTORE PUSH1 0x4 ADD PUSH1 0x40 MLOAD DUP1 SWAP2 SUB SWAP1 REVERT JUMPDEST PUSH1 0x0 JUMPDEST DUP3 MLOAD DUP2 LT ISZERO PUSH3 0x1FB JUMPI PUSH1 0x0 DUP4 DUP3 DUP2 MLOAD DUP2 LT PUSH3 0x98 JUMPI PUSH3 0x97 PUSH3 0x49A JUMP JUMPDEST JUMPDEST PUSH1 0x20 MUL PUSH1 0x20 ADD ADD MLOAD SWAP1 POP PUSH1 0x0 PUSH20 0xFFFFFFFFFFFFFFFFFFFFFFFFFFFFFFFFFFFFFFFF AND DUP2 PUSH20 0xFFFFFFFFFFFFFFFFFFFFFFFFFFFFFFFFFFFFFFFF AND SUB PUSH3 0x109 JUMPI PUSH1 0x40 MLOAD PUSH32 0xD924E5F400000000000000000000000000000000000000000000000000000000 DUP2 MSTORE PUSH1 0x4 ADD PUSH1 0x40 MLOAD DUP1 SWAP2 SUB SWAP1 REVERT JUMPDEST PUSH1 0x0 DUP1 DUP3 PUSH20 0xFFFFFFFFFFFFFFFFFFFFFFFFFFFFFFFFFFFFFFFF AND PUSH20 0xFFFFFFFFFFFFFFFFFFFFFFFFFFFFFFFFFFFFFFFF AND DUP2 MSTORE PUSH1 0x20 ADD SWAP1 DUP2 MSTORE PUSH1 0x20 ADD PUSH1 0x0 KECCAK256 PUSH1 0x0 SWAP1 SLOAD SWAP1 PUSH2 0x100 EXP SWAP1 DIV PUSH1 0xFF AND ISZERO PUSH3 0x18D JUMPI PUSH1 0x40 MLOAD PUSH32 0xC0159E0E00000000000000000000000000000000000000000000000000000000 DUP2 MSTORE PUSH1 0x4 ADD PUSH1 0x40 MLOAD DUP1 SWAP2 SUB SWAP1 REVERT JUMPDEST PUSH1 0x1 PUSH1 0x0 DUP1 DUP4 PUSH20 0xFFFFFFFFFFFFFFFFFFFFFFFFFFFFFFFFFFFFFFFF AND PUSH20 0xFFFFFFFFFFFFFFFFFFFFFFFFFFFFFFFFFFFFFFFF AND DUP2 MSTORE PUSH1 0x20 ADD SWAP1 DUP2 MSTORE PUSH1 0x20 ADD PUSH1 0x0 KECCAK256 PUSH1 0x0 PUSH2 0x100 EXP DUP2 SLOAD DUP2 PUSH1 0xFF MUL NOT AND SWAP1 DUP4 ISZERO ISZERO MUL OR SWAP1 SSTORE POP POP DUP1 DUP1 PUSH3 0x1F2 SWAP1 PUSH3 0x4F8 JUMP JUMPDEST SWAP2 POP POP PUSH3 0x76 JUMP JUMPDEST POP DUP1 PUSH1 0x3 DUP2 SWAP1 SSTORE POP POP POP PUSH3 0x545 JUMP JUMPDEST PUSH1 0x0 PUSH1 0x40 MLOAD SWAP1 POP SWAP1 JUMP JUMPDEST PUSH1 0x0 DUP1 REVERT JUMPDEST PUSH1 0x0 DUP1 REVERT JUMPDEST PUSH1 0x0 DUP1 REVERT JUMPDEST PUSH1 0x0 PUSH1 0x1F NOT PUSH1 0x1F DUP4 ADD AND SWAP1 POP SWAP2 SWAP1 POP JUMP JUMPDEST PUSH32 0x4E487B7100000000000000000000000000000000000000000000000000000000 PUSH1 0x0 MSTORE PUSH1 0x41 PUSH1 0x4 MSTORE PUSH1 0x24 PUSH1 0x0 REVERT JUMPDEST PUSH3 0x26F DUP3 PUSH3 0x224 JUMP JUMPDEST DUP2 ADD DUP2 DUP2 LT PUSH8 0xFFFFFFFFFFFFFFFF DUP3 GT OR ISZERO PUSH3 0x291 JUMPI PUSH3 0x290 PUSH3 0x235 JUMP JUMPDEST JUMPDEST DUP1 PUSH1 0x40 MSTORE POP POP POP JUMP JUMPDEST PUSH1 0x0 PUSH3 0x2A6 PUSH3 0x20B JUMP JUMPDEST SWAP1 POP PUSH3 0x2B4 DUP3 DUP3 PUSH3 0x264 JUMP JUMPDEST SWAP2 SWAP1 POP JUMP JUMPDEST PUSH1 0x0 PUSH8 0xFFFFFFFFFFFFFFFF DUP3 GT ISZERO PUSH3 0x2D7 JUMPI PUSH3 0x2D6 PUSH3 0x235 JUMP JUMPDEST JUMPDEST PUSH1 0x20 DUP3 MUL SWAP1 POP PUSH1 0x20 DUP2 ADD SWAP1 POP SWAP2 SWAP1 POP JUMP JUMPDEST PUSH1 0x0 DUP1 REVERT JUMPDEST PUSH1 0x0 PUSH20 0xFFFFFFFFFFFFFFFFFFFFFFFFFFFFFFFFFFFFFFFF DUP3 AND SWAP1 POP SWAP2 SWAP1 POP JUMP JUMPDEST PUSH1 0x0 PUSH3 0x31A DUP3 PUSH3 0x2ED JUMP JUMPDEST SWAP1 POP SWAP2 SWAP1 POP JUMP JUMPDEST PUSH3 0x32C DUP2 PUSH3 0x30D JUMP JUMPDEST DUP2 EQ PUSH3 0x338 JUMPI PUSH1 0x0 DUP1 REVERT JUMPDEST POP JUMP JUMPDEST PUSH1 0x0 DUP2 MLOAD SWAP1 POP PUSH3 0x34C DUP2 PUSH3 0x321 JUMP JUMPDEST SWAP3 SWAP2 POP POP JUMP JUMPDEST PUSH1 0x0 PUSH3 0x369 PUSH3 0x363 DUP5 PUSH3 0x2B9 JUMP JUMPDEST PUSH3 0x29A JUMP JUMPDEST SWAP1 POP DUP1 DUP4 DUP3 MSTORE PUSH1 0x20 DUP3 ADD SWAP1 POP PUSH1 0x20 DUP5 MUL DUP4 ADD DUP6 DUP2 GT ISZERO PUSH3 0x38F JUMPI PUSH3 0x38E PUSH3 0x2E8 JUMP JUMPDEST JUMPDEST DUP4 JUMPDEST DUP2 DUP2 LT ISZERO PUSH3 0x3BC JUMPI DUP1 PUSH3 0x3A7 DUP9 DUP3 PUSH3 0x33B JUMP JUMPDEST DUP5 MSTORE PUSH1 0x20 DUP5 ADD SWAP4 POP POP PUSH1 0x20 DUP2 ADD SWAP1 POP PUSH3 0x391 JUMP JUMPDEST POP POP POP SWAP4 SWAP3 POP POP POP JUMP JUMPDEST PUSH1 0x0 DUP3 PUSH1 0x1F DUP4 ADD SLT PUSH3 0x3DE JUMPI PUSH3 0x3DD PUSH3 0x21F JUMP JUMPDEST JUMPDEST DUP2 MLOAD PUSH3 0x3F0 DUP5 DUP3 PUSH1 0x20 DUP7 ADD PUSH3 0x352 JUMP JUMPDEST SWAP2 POP POP SWAP3 SWAP2 POP POP JUMP JUMPDEST PUSH1 0x0 DUP2 SWAP1 POP SWAP2 SWAP1 POP JUMP JUMPDEST PUSH3 0x40E DUP2 PUSH3 0x3F9 JUMP JUMPDEST DUP2 EQ PUSH3 0x41A JUMPI PUSH1 0x0 DUP1 REVERT JUMPDEST POP JUMP JUMPDEST PUSH1 0x0 DUP2 MLOAD SWAP1 POP PUSH3 0x42E DUP2 PUSH3 0x403 JUMP JUMPDEST SWAP3 SWAP2 POP POP JUMP JUMPDEST PUSH1 0x0 DUP1 PUSH1 0x40 DUP4 DUP6 SUB SLT ISZERO PUSH3 0x44E JUMPI PUSH3 0x44D PUSH3 0x215 JUMP JUMPDEST JUMPDEST PUSH1 0x0 DUP4 ADD MLOAD PUSH8 0xFFFFFFFFFFFFFFFF DUP2 GT ISZERO PUSH3 0x46F JUMPI PUSH3 0x46E PUSH3 0x21A JUMP JUMPDEST JUMPDEST PUSH3 0x47D DUP6 DUP3 DUP7 ADD PUSH3 0x3C6 JUMP JUMPDEST SWAP3 POP POP PUSH1 0x20 PUSH3 0x490 DUP6 DUP3 DUP7 ADD PUSH3 0x41D JUMP JUMPDEST SWAP2 POP POP SWAP3 POP SWAP3 SWAP1 POP JUMP JUMPDEST PUSH32 0x4E487B7100000000000000000000000000000000000000000000000000000000 PUSH1 0x0 MSTORE PUSH1 0x32 PUSH1 0x4 MSTORE PUSH1 0x24 PUSH1 0x0 REVERT JUMPDEST PUSH32 0x4E487B7100000000000000000000000000000000000000000000000000000000 PUSH1 0x0 MSTORE PUSH1 0x11 PUSH1 0x4 MSTORE PUSH1 0x24 PUSH1 0x0 REVERT JUMPDEST PUSH1 0x0 PUSH3 0x505 DUP3 PUSH3 0x3F9 JUMP JUMPDEST SWAP2 POP PUSH32 0xFFFFFFFFFFFFFFFFFFFFFFFFFFFFFFFFFFFFFFFFFFFFFFFFFFFFFFFFFFFFFFFF DUP3 SUB PUSH3 0x53A JUMPI PUSH3 0x539 PUSH3 0x4C9 JUMP JUMPDEST JUMPDEST PUSH1 0x1 DUP3 ADD SWAP1 POP SWAP2 SWAP1 POP JUMP JUMPDEST PUSH2 0x18B4 DUP1 PUSH3 0x555 PUSH1 0x0 CODECOPY PUSH1 0x0 RETURN INVALID PUSH1 0x80 PUSH1 0x40 MSTORE PUSH1 0x4 CALLDATASIZE LT PUSH2 0x8A JUMPI PUSH1 0x0 CALLDATALOAD PUSH1 0xE0 SHR DUP1 PUSH4 0xB1E130FC GT PUSH2 0x59 JUMPI DUP1 PUSH4 0xB1E130FC EQ PUSH2 0x1B1 JUMPI DUP1 PUSH4 0xBB84C5A9 EQ PUSH2 0x1DA JUMPI DUP1 PUSH4 0xCD568D1F EQ PUSH2 0x203 JUMPI DUP1 PUSH4 0xDC8452CD EQ PUSH2 0x22E JUMPI DUP1 PUSH4 0xE0E3671C EQ PUSH2 0x259 JUMPI PUSH2 0xE0 JUMP JUMPDEST DUP1 PUSH4 0x1087393A EQ PUSH2 0xE5 JUMPI DUP1 PUSH4 0x33EA3DC8 EQ PUSH2 0x10E JUMPI DUP1 PUSH4 0x54B5FE80 EQ PUSH2 0x14B JUMPI DUP1 PUSH4 0x8F9487EB EQ PUSH2 0x174 JUMPI PUSH2 0xE0 JUMP JUMPDEST CALLDATASIZE PUSH2 0xE0 JUMPI CALLVALUE CALLER PUSH20 0xFFFFFFFFFFFFFFFFFFFFFFFFFFFFFFFFFFFFFFFF AND PUSH32 0x90890809C654F11D6E72A28FA60149770A0D11EC6C92319D6CEB2BB0A4EA1A15 SELFBALANCE PUSH1 0x40 MLOAD PUSH2 0xD6 SWAP2 SWAP1 PUSH2 0xF17 JUMP JUMPDEST PUSH1 0x40 MLOAD DUP1 SWAP2 SUB SWAP1 LOG3 STOP JUMPDEST PUSH1 0x0 DUP1 REVERT JUMPDEST CALLVALUE DUP1 ISZERO PUSH2 0xF1 JUMPI PUSH1 0x0 DUP1 REVERT JUMPDEST POP PUSH2 0x10C PUSH1 0x4 DUP1 CALLDATASIZE SUB DUP2 ADD SWAP1 PUSH2 0x107 SWAP2 SWAP1 PUSH2 0xF72 JUMP JUMPDEST PUSH2 0x296 JUMP JUMPDEST STOP JUMPDEST CALLVALUE DUP1 ISZERO PUSH2 0x11A JUMPI PUSH1 0x0 DUP1 REVERT JUMPDEST POP PUSH2 0x135 PUSH1 0x4 DUP1 CALLDATASIZE SUB DUP2 ADD SWAP1 PUSH2 0x130 SWAP2 SWAP1 PUSH2 0xF72 JUMP JUMPDEST PUSH2 0x532 JUMP JUMPDEST PUSH1 0x40 MLOAD PUSH2 0x142 SWAP2 SWAP1 PUSH2 0x112C JUMP JUMPDEST PUSH1 0x40 MLOAD DUP1 SWAP2 SUB SWAP1 RETURN JUMPDEST CALLVALUE DUP1 ISZERO PUSH2 0x157 JUMPI PUSH1 0x0 DUP1 REVERT JUMPDEST POP PUSH2 0x172 PUSH1 0x4 DUP1 CALLDATASIZE SUB DUP2 ADD SWAP1 PUSH2 0x16D SWAP2 SWAP1 PUSH2 0xF72 JUMP JUMPDEST PUSH2 0x6CA JUMP JUMPDEST STOP JUMPDEST CALLVALUE DUP1 ISZERO PUSH2 0x180 JUMPI PUSH1 0x0 DUP1 REVERT JUMPDEST POP PUSH2 0x19B PUSH1 0x4 DUP1 CALLDATASIZE SUB DUP2 ADD SWAP1 PUSH2 0x196 SWAP2 SWAP1 PUSH2 0x117A JUMP JUMPDEST PUSH2 0x9CC JUMP JUMPDEST PUSH1 0x40 MLOAD PUSH2 0x1A8 SWAP2 SWAP1 PUSH2 0x11C9 JUMP JUMPDEST PUSH1 0x40 MLOAD DUP1 SWAP2 SUB SWAP1 RETURN JUMPDEST CALLVALUE DUP1 ISZERO PUSH2 0x1BD JUMPI PUSH1 0x0 DUP1 REVERT JUMPDEST POP PUSH2 0x1D8 PUSH1 0x4 DUP1 CALLDATASIZE SUB DUP2 ADD SWAP1 PUSH2 0x1D3 SWAP2 SWAP1 PUSH2 0xF72 JUMP JUMPDEST PUSH2 0xA34 JUMP JUMPDEST STOP JUMPDEST CALLVALUE DUP1 ISZERO PUSH2 0x1E6 JUMPI PUSH1 0x0 DUP1 REVERT JUMPDEST POP PUSH2 0x201 PUSH1 0x4 DUP1 CALLDATASIZE SUB DUP2 ADD SWAP1 PUSH2 0x1FC SWAP2 SWAP1 PUSH2 0x1319 JUMP JUMPDEST PUSH2 0xCD3 JUMP JUMPDEST STOP JUMPDEST CALLVALUE DUP1 ISZERO PUSH2 0x20F JUMPI PUSH1 0x0 DUP1 REVERT JUMPDEST POP PUSH2 0x218 PUSH2 0xE4F JUMP JUMPDEST PUSH1 0x40 MLOAD PUSH2 0x225 SWAP2 SWAP1 PUSH2 0xF17 JUMP JUMPDEST PUSH1 0x40 MLOAD DUP1 SWAP2 SUB SWAP1 RETURN JUMPDEST CALLVALUE DUP1 ISZERO PUSH2 0x23A JUMPI PUSH1 0x0 DUP1 REVERT JUMPDEST POP PUSH2 0x243 PUSH2 0xE55 JUMP JUMPDEST PUSH1 0x40 MLOAD PUSH2 0x250 SWAP2 SWAP1 PUSH2 0xF17 JUMP JUMPDEST PUSH1 0x40 MLOAD DUP1 SWAP2 SUB SWAP1 RETURN JUMPDEST CALLVALUE DUP1 ISZERO PUSH2 0x265 JUMPI PUSH1 0x0 DUP1 REVERT JUMPDEST POP PUSH2 0x280 PUSH1 0x4 DUP1 CALLDATASIZE SUB DUP2 ADD SWAP1 PUSH2 0x27B SWAP2 SWAP1 PUSH2 0x1388 JUMP JUMPDEST PUSH2 0xE5B JUMP JUMPDEST PUSH1 0x40 MLOAD PUSH2 0x28D SWAP2 SWAP1 PUSH2 0x11C9 JUMP JUMPDEST PUSH1 0x40 MLOAD DUP1 SWAP2 SUB SWAP1 RETURN JUMPDEST PUSH1 0x0 DUP1 CALLER PUSH20 0xFFFFFFFFFFFFFFFFFFFFFFFFFFFFFFFFFFFFFFFF AND PUSH20 0xFFFFFFFFFFFFFFFFFFFFFFFFFFFFFFFFFFFFFFFF AND DUP2 MSTORE PUSH1 0x20 ADD SWAP1 DUP2 MSTORE PUSH1 0x20 ADD PUSH1 0x0 KECCAK256 PUSH1 0x0 SWAP1 SLOAD SWAP1 PUSH2 0x100 EXP SWAP1 DIV PUSH1 0xFF AND PUSH2 0x318 JUMPI PUSH1 0x40 MLOAD PUSH32 0x30CD747100000000000000000000000000000000000000000000000000000000 DUP2 MSTORE PUSH1 0x4 ADD PUSH1 0x40 MLOAD DUP1 SWAP2 SUB SWAP1 REVERT JUMPDEST DUP1 PUSH1 0x1 PUSH1 0x4 SLOAD PUSH2 0x328 SWAP2 SWAP1 PUSH2 0x13E4 JUMP JUMPDEST DUP2 GT ISZERO PUSH2 0x361 JUMPI PUSH1 0x40 MLOAD PUSH32 0x9E1B596F00000000000000000000000000000000000000000000000000000000 DUP2 MSTORE PUSH1 0x4 ADD PUSH1 0x40 MLOAD DUP1 SWAP2 SUB SWAP1 REVERT JUMPDEST DUP2 PUSH1 0x2 PUSH1 0x0 DUP3 DUP2 MSTORE PUSH1 0x20 ADD SWAP1 DUP2 MSTORE PUSH1 0x20 ADD PUSH1 0x0 KECCAK256 PUSH1 0x0 CALLER PUSH20 0xFFFFFFFFFFFFFFFFFFFFFFFFFFFFFFFFFFFFFFFF AND PUSH20 0xFFFFFFFFFFFFFFFFFFFFFFFFFFFFFFFFFFFFFFFF AND DUP2 MSTORE PUSH1 0x20 ADD SWAP1 DUP2 MSTORE PUSH1 0x20 ADD PUSH1 0x0 KECCAK256 PUSH1 0x0 SWAP1 SLOAD SWAP1 PUSH2 0x100 EXP SWAP1 DIV PUSH1 0xFF AND ISZERO PUSH2 0x3F7 JUMPI PUSH1 0x40 MLOAD PUSH32 0x5DB7EC0D00000000000000000000000000000000000000000000000000000000 DUP2 MSTORE PUSH1 0x4 ADD PUSH1 0x40 MLOAD DUP1 SWAP2 SUB SWAP1 REVERT JUMPDEST DUP3 PUSH1 0x1 PUSH1 0x0 DUP3 DUP2 MSTORE PUSH1 0x20 ADD SWAP1 DUP2 MSTORE PUSH1 0x20 ADD PUSH1 0x0 KECCAK256 PUSH1 0x5 ADD PUSH1 0x0 SWAP1 SLOAD SWAP1 PUSH2 0x100 EXP SWAP1 DIV PUSH1 0xFF AND ISZERO PUSH2 0x453 JUMPI PUSH1 0x40 MLOAD PUSH32 0x2EA945CF00000000000000000000000000000000000000000000000000000000 DUP2 MSTORE PUSH1 0x4 ADD PUSH1 0x40 MLOAD DUP1 SWAP2 SUB SWAP1 REVERT JUMPDEST PUSH1 0x1 PUSH1 0x0 DUP6 DUP2 MSTORE PUSH1 0x20 ADD SWAP1 DUP2 MSTORE PUSH1 0x20 ADD PUSH1 0x0 KECCAK256 PUSH1 0x4 ADD PUSH1 0x0 DUP2 SLOAD DUP1 SWAP3 SWAP2 SWAP1 PUSH2 0x47A SWAP1 PUSH2 0x1418 JUMP JUMPDEST SWAP2 SWAP1 POP SSTORE POP PUSH1 0x1 PUSH1 0x2 PUSH1 0x0 DUP7 DUP2 MSTORE PUSH1 0x20 ADD SWAP1 DUP2 MSTORE PUSH1 0x20 ADD PUSH1 0x0 KECCAK256 PUSH1 0x0 CALLER PUSH20 0xFFFFFFFFFFFFFFFFFFFFFFFFFFFFFFFFFFFFFFFF AND PUSH20 0xFFFFFFFFFFFFFFFFFFFFFFFFFFFFFFFFFFFFFFFF AND DUP2 MSTORE PUSH1 0x20 ADD SWAP1 DUP2 MSTORE PUSH1 0x20 ADD PUSH1 0x0 KECCAK256 PUSH1 0x0 PUSH2 0x100 EXP DUP2 SLOAD DUP2 PUSH1 0xFF MUL NOT AND SWAP1 DUP4 ISZERO ISZERO MUL OR SWAP1 SSTORE POP CALLER PUSH20 0xFFFFFFFFFFFFFFFFFFFFFFFFFFFFFFFFFFFFFFFF AND DUP5 PUSH32 0xD4329D04E785EBE84C72DCD09FB9C65F1FBBDA53EE15EC20E93342C7F3E2A62D PUSH1 0x40 MLOAD PUSH1 0x40 MLOAD DUP1 SWAP2 SUB SWAP1 LOG3 POP POP POP POP JUMP JUMPDEST PUSH2 0x53A PUSH2 0xEB0 JUMP JUMPDEST DUP2 PUSH1 0x1 PUSH1 0x4 SLOAD PUSH2 0x54A SWAP2 SWAP1 PUSH2 0x13E4 JUMP JUMPDEST DUP2 GT ISZERO PUSH2 0x583 JUMPI PUSH1 0x40 MLOAD PUSH32 0x9E1B596F00000000000000000000000000000000000000000000000000000000 DUP2 MSTORE PUSH1 0x4 ADD PUSH1 0x40 MLOAD DUP1 SWAP2 SUB SWAP1 REVERT JUMPDEST PUSH1 0x1 PUSH1 0x0 DUP5 DUP2 MSTORE PUSH1 0x20 ADD SWAP1 DUP2 MSTORE PUSH1 0x20 ADD PUSH1 0x0 KECCAK256 PUSH1 0x40 MLOAD DUP1 PUSH1 0xC0 ADD PUSH1 0x40 MSTORE SWAP1 DUP2 PUSH1 0x0 DUP3 ADD SLOAD DUP2 MSTORE PUSH1 0x20 ADD PUSH1 0x1 DUP3 ADD PUSH1 0x0 SWAP1 SLOAD SWAP1 PUSH2 0x100 EXP SWAP1 DIV PUSH20 0xFFFFFFFFFFFFFFFFFFFFFFFFFFFFFFFFFFFFFFFF AND PUSH20 0xFFFFFFFFFFFFFFFFFFFFFFFFFFFFFFFFFFFFFFFF AND PUSH20 0xFFFFFFFFFFFFFFFFFFFFFFFFFFFFFFFFFFFFFFFF AND DUP2 MSTORE PUSH1 0x20 ADD PUSH1 0x2 DUP3 ADD SLOAD DUP2 MSTORE PUSH1 0x20 ADD PUSH1 0x3 DUP3 ADD DUP1 SLOAD PUSH2 0x61B SWAP1 PUSH2 0x148F JUMP JUMPDEST DUP1 PUSH1 0x1F ADD PUSH1 0x20 DUP1 SWAP2 DIV MUL PUSH1 0x20 ADD PUSH1 0x40 MLOAD SWAP1 DUP2 ADD PUSH1 0x40 MSTORE DUP1 SWAP3 SWAP2 SWAP1 DUP2 DUP2 MSTORE PUSH1 0x20 ADD DUP3 DUP1 SLOAD PUSH2 0x647 SWAP1 PUSH2 0x148F JUMP JUMPDEST DUP1 ISZERO PUSH2 0x694 JUMPI DUP1 PUSH1 0x1F LT PUSH2 0x669 JUMPI PUSH2 0x100 DUP1 DUP4 SLOAD DIV MUL DUP4 MSTORE SWAP2 PUSH1 0x20 ADD SWAP2 PUSH2 0x694 JUMP JUMPDEST DUP3 ADD SWAP2 SWAP1 PUSH1 0x0 MSTORE PUSH1 0x20 PUSH1 0x0 KECCAK256 SWAP1 JUMPDEST DUP2 SLOAD DUP2 MSTORE SWAP1 PUSH1 0x1 ADD SWAP1 PUSH1 0x20 ADD DUP1 DUP4 GT PUSH2 0x677 JUMPI DUP3 SWAP1 SUB PUSH1 0x1F AND DUP3 ADD SWAP2 JUMPDEST POP POP POP POP POP DUP2 MSTORE PUSH1 0x20 ADD PUSH1 0x4 DUP3 ADD SLOAD DUP2 MSTORE PUSH1 0x20 ADD PUSH1 0x5 DUP3 ADD PUSH1 0x0 SWAP1 SLOAD SWAP1 PUSH2 0x100 EXP SWAP1 DIV PUSH1 0xFF AND ISZERO ISZERO ISZERO ISZERO DUP2 MSTORE POP POP SWAP2 POP POP SWAP2 SWAP1 POP JUMP JUMPDEST PUSH1 0x0 DUP1 CALLER PUSH20 0xFFFFFFFFFFFFFFFFFFFFFFFFFFFFFFFFFFFFFFFF AND PUSH20 0xFFFFFFFFFFFFFFFFFFFFFFFFFFFFFFFFFFFFFFFF AND DUP2 MSTORE PUSH1 0x20 ADD SWAP1 DUP2 MSTORE PUSH1 0x20 ADD PUSH1 0x0 KECCAK256 PUSH1 0x0 SWAP1 SLOAD SWAP1 PUSH2 0x100 EXP SWAP1 DIV PUSH1 0xFF AND PUSH2 0x74C JUMPI PUSH1 0x40 MLOAD PUSH32 0x30CD747100000000000000000000000000000000000000000000000000000000 DUP2 MSTORE PUSH1 0x4 ADD PUSH1 0x40 MLOAD DUP1 SWAP2 SUB SWAP1 REVERT JUMPDEST DUP1 PUSH1 0x1 PUSH1 0x4 SLOAD PUSH2 0x75C SWAP2 SWAP1 PUSH2 0x13E4 JUMP JUMPDEST DUP2 GT ISZERO PUSH2 0x795 JUMPI PUSH1 0x40 MLOAD PUSH32 0x9E1B596F00000000000000000000000000000000000000000000000000000000 DUP2 MSTORE PUSH1 0x4 ADD PUSH1 0x40 MLOAD DUP1 SWAP2 SUB SWAP1 REVERT JUMPDEST DUP2 PUSH1 0x1 PUSH1 0x0 DUP3 DUP2 MSTORE PUSH1 0x20 ADD SWAP1 DUP2 MSTORE PUSH1 0x20 ADD PUSH1 0x0 KECCAK256 PUSH1 0x5 ADD PUSH1 0x0 SWAP1 SLOAD SWAP1 PUSH2 0x100 EXP SWAP1 DIV PUSH1 0xFF AND ISZERO PUSH2 0x7F1 JUMPI PUSH1 0x40 MLOAD PUSH32 0x2EA945CF00000000000000000000000000000000000000000000000000000000 DUP2 MSTORE PUSH1 0x4 ADD PUSH1 0x40 MLOAD DUP1 SWAP2 SUB SWAP1 REVERT JUMPDEST PUSH1 0x0 PUSH1 0x1 PUSH1 0x0 DUP6 DUP2 MSTORE PUSH1 0x20 ADD SWAP1 DUP2 MSTORE PUSH1 0x20 ADD PUSH1 0x0 KECCAK256 SWAP1 POP PUSH1 0x3 SLOAD DUP2 PUSH1 0x4 ADD SLOAD LT ISZERO PUSH2 0x848 JUMPI PUSH1 0x40 MLOAD PUSH32 0x9DD63CB700000000000000000000000000000000000000000000000000000000 DUP2 MSTORE PUSH1 0x4 ADD PUSH1 0x40 MLOAD DUP1 SWAP2 SUB SWAP1 REVERT JUMPDEST PUSH1 0x1 DUP2 PUSH1 0x5 ADD PUSH1 0x0 PUSH2 0x100 EXP DUP2 SLOAD DUP2 PUSH1 0xFF MUL NOT AND SWAP1 DUP4 ISZERO ISZERO MUL OR SWAP1 SSTORE POP PUSH1 0x0 DUP2 PUSH1 0x1 ADD PUSH1 0x0 SWAP1 SLOAD SWAP1 PUSH2 0x100 EXP SWAP1 DIV PUSH20 0xFFFFFFFFFFFFFFFFFFFFFFFFFFFFFFFFFFFFFFFF AND PUSH20 0xFFFFFFFFFFFFFFFFFFFFFFFFFFFFFFFFFFFFFFFF AND DUP3 PUSH1 0x2 ADD SLOAD DUP4 PUSH1 0x3 ADD PUSH1 0x40 MLOAD PUSH2 0x8B8 SWAP2 SWAP1 PUSH2 0x1563 JUMP JUMPDEST PUSH1 0x0 PUSH1 0x40 MLOAD DUP1 DUP4 SUB DUP2 DUP6 DUP8 GAS CALL SWAP3 POP POP POP RETURNDATASIZE DUP1 PUSH1 0x0 DUP2 EQ PUSH2 0x8F5 JUMPI PUSH1 0x40 MLOAD SWAP2 POP PUSH1 0x1F NOT PUSH1 0x3F RETURNDATASIZE ADD AND DUP3 ADD PUSH1 0x40 MSTORE RETURNDATASIZE DUP3 MSTORE RETURNDATASIZE PUSH1 0x0 PUSH1 0x20 DUP5 ADD RETURNDATACOPY PUSH2 0x8FA JUMP JUMPDEST PUSH1 0x60 SWAP2 POP JUMPDEST POP POP SWAP1 POP DUP1 PUSH2 0x935 JUMPI PUSH1 0x40 MLOAD PUSH32 0xCB2F2A1C00000000000000000000000000000000000000000000000000000000 DUP2 MSTORE PUSH1 0x4 ADD PUSH1 0x40 MLOAD DUP1 SWAP2 SUB SWAP1 REVERT JUMPDEST DUP2 PUSH1 0x3 ADD PUSH1 0x40 MLOAD PUSH2 0x946 SWAP2 SWAP1 PUSH2 0x1563 JUMP JUMPDEST PUSH1 0x40 MLOAD DUP1 SWAP2 SUB SWAP1 KECCAK256 DUP3 PUSH1 0x2 ADD SLOAD DUP4 PUSH1 0x1 ADD PUSH1 0x0 SWAP1 SLOAD SWAP1 PUSH2 0x100 EXP SWAP1 DIV PUSH20 0xFFFFFFFFFFFFFFFFFFFFFFFFFFFFFFFFFFFFFFFF AND PUSH20 0xFFFFFFFFFFFFFFFFFFFFFFFFFFFFFFFFFFFFFFFF AND PUSH32 0xB91792DFBEC9D14F14EFE0FD0328FE544073CD1BEFA73F98441BCE708E643179 CALLER PUSH1 0x40 MLOAD PUSH2 0x9BD SWAP2 SWAP1 PUSH2 0x1589 JUMP JUMPDEST PUSH1 0x40 MLOAD DUP1 SWAP2 SUB SWAP1 LOG4 POP POP POP POP POP JUMP JUMPDEST PUSH1 0x0 PUSH1 0x2 PUSH1 0x0 DUP5 DUP2 MSTORE PUSH1 0x20 ADD SWAP1 DUP2 MSTORE PUSH1 0x20 ADD PUSH1 0x0 KECCAK256 PUSH1 0x0 DUP4 PUSH20 0xFFFFFFFFFFFFFFFFFFFFFFFFFFFFFFFFFFFFFFFF AND PUSH20 0xFFFFFFFFFFFFFFFFFFFFFFFFFFFFFFFFFFFFFFFF AND DUP2 MSTORE PUSH1 0x20 ADD SWAP1 DUP2 MSTORE PUSH1 0x20 ADD PUSH1 0x0 KECCAK256 PUSH1 0x0 SWAP1 SLOAD SWAP1 PUSH2 0x100 EXP SWAP1 DIV PUSH1 0xFF AND SWAP1 POP SWAP3 SWAP2 POP POP JUMP JUMPDEST PUSH1 0x0 DUP1 CALLER PUSH20 0xFFFFFFFFFFFFFFFFFFFFFFFFFFFFFFFFFFFFFFFF AND PUSH20 0xFFFFFFFFFFFFFFFFFFFFFFFFFFFFFFFFFFFFFFFF AND DUP2 MSTORE PUSH1 0x20 ADD SWAP1 DUP2 MSTORE PUSH1 0x20 ADD PUSH1 0x0 KECCAK256 PUSH1 0x0 SWAP1 SLOAD SWAP1 PUSH2 0x100 EXP SWAP1 DIV PUSH1 0xFF AND PUSH2 0xAB6 JUMPI PUSH1 0x40 MLOAD PUSH32 0x30CD747100000000000000000000000000000000000000000000000000000000 DUP2 MSTORE PUSH1 0x4 ADD PUSH1 0x40 MLOAD DUP1 SWAP2 SUB SWAP1 REVERT JUMPDEST DUP1 PUSH1 0x1 PUSH1 0x4 SLOAD PUSH2 0xAC6 SWAP2 SWAP1 PUSH2 0x13E4 JUMP JUMPDEST DUP2 GT ISZERO PUSH2 0xAFF JUMPI PUSH1 0x40 MLOAD PUSH32 0x9E1B596F00000000000000000000000000000000000000000000000000000000 DUP2 MSTORE PUSH1 0x4 ADD PUSH1 0x40 MLOAD DUP1 SWAP2 SUB SWAP1 REVERT JUMPDEST DUP2 PUSH1 0x1 PUSH1 0x0 DUP3 DUP2 MSTORE PUSH1 0x20 ADD SWAP1 DUP2 MSTORE PUSH1 0x20 ADD PUSH1 0x0 KECCAK256 PUSH1 0x5 ADD PUSH1 0x0 SWAP1 SLOAD SWAP1 PUSH2 0x100 EXP SWAP1 DIV PUSH1 0xFF AND ISZERO PUSH2 0xB5B JUMPI PUSH1 0x40 MLOAD PUSH32 0x2EA945CF00000000000000000000000000000000000000000000000000000000 DUP2 MSTORE PUSH1 0x4 ADD PUSH1 0x40 MLOAD DUP1 SWAP2 SUB SWAP1 REVERT JUMPDEST PUSH1 0x2 PUSH1 0x0 DUP5 DUP2 MSTORE PUSH1 0x20 ADD SWAP1 DUP2 MSTORE PUSH1 0x20 ADD PUSH1 0x0 KECCAK256 PUSH1 0x0 CALLER PUSH20 0xFFFFFFFFFFFFFFFFFFFFFFFFFFFFFFFFFFFFFFFF AND PUSH20 0xFFFFFFFFFFFFFFFFFFFFFFFFFFFFFFFFFFFFFFFF AND DUP2 MSTORE PUSH1 0x20 ADD SWAP1 DUP2 MSTORE PUSH1 0x20 ADD PUSH1 0x0 KECCAK256 PUSH1 0x0 SWAP1 SLOAD SWAP1 PUSH2 0x100 EXP SWAP1 DIV PUSH1 0xFF AND ISZERO PUSH2 0xC58 JUMPI PUSH1 0x1 PUSH1 0x0 DUP5 DUP2 MSTORE PUSH1 0x20 ADD SWAP1 DUP2 MSTORE PUSH1 0x20 ADD PUSH1 0x0 KECCAK256 PUSH1 0x4 ADD PUSH1 0x0 DUP2 SLOAD DUP1 SWAP3 SWAP2 SWAP1 PUSH2 0xBE5 SWAP1 PUSH2 0x15A4 JUMP JUMPDEST SWAP2 SWAP1 POP SSTORE POP PUSH1 0x0 PUSH1 0x2 PUSH1 0x0 DUP6 DUP2 MSTORE PUSH1 0x20 ADD SWAP1 DUP2 MSTORE PUSH1 0x20 ADD PUSH1 0x0 KECCAK256 PUSH1 0x0 CALLER PUSH20 0xFFFFFFFFFFFFFFFFFFFFFFFFFFFFFFFFFFFFFFFF AND PUSH20 0xFFFFFFFFFFFFFFFFFFFFFFFFFFFFFFFFFFFFFFFF AND DUP2 MSTORE PUSH1 0x20 ADD SWAP1 DUP2 MSTORE PUSH1 0x20 ADD PUSH1 0x0 KECCAK256 PUSH1 0x0 PUSH2 0x100 EXP DUP2 SLOAD DUP2 PUSH1 0xFF MUL NOT AND SWAP1 DUP4 ISZERO ISZERO MUL OR SWAP1 SSTORE POP PUSH2 0xC8A JUMP JUMPDEST PUSH1 0x40 MLOAD PUSH32 0xFAFE52BF00000000000000000000000000000000000000000000000000000000 DUP2 MSTORE PUSH1 0x4 ADD PUSH1 0x40 MLOAD DUP1 SWAP2 SUB SWAP1 REVERT JUMPDEST DUP3 CALLER PUSH20 0xFFFFFFFFFFFFFFFFFFFFFFFFFFFFFFFFFFFFFFFF AND PUSH32 0x1E75C0948730226138E58D1E7446B6167B5159A6904C3AC4597714F298D13DF2 PUSH1 0x40 MLOAD PUSH1 0x40 MLOAD DUP1 SWAP2 SUB SWAP1 LOG3 POP POP POP JUMP JUMPDEST PUSH1 0x0 DUP1 CALLER PUSH20 0xFFFFFFFFFFFFFFFFFFFFFFFFFFFFFFFFFFFFFFFF AND PUSH20 0xFFFFFFFFFFFFFFFFFFFFFFFFFFFFFFFFFFFFFFFF AND DUP2 MSTORE PUSH1 0x20 ADD SWAP1 DUP2 MSTORE PUSH1 0x20 ADD PUSH1 0x0 KECCAK256 PUSH1 0x0 SWAP1 SLOAD SWAP1 PUSH2 0x100 EXP SWAP1 DIV PUSH1 0xFF AND PUSH2 0xD55 JUMPI PUSH1 0x40 MLOAD PUSH32 0x30CD747100000000000000000000000000000000000000000000000000000000 DUP2 MSTORE PUSH1 0x4 ADD PUSH1 0x40 MLOAD DUP1 SWAP2 SUB SWAP1 REVERT JUMPDEST PUSH1 0x0 PUSH1 0x1 PUSH1 0x0 PUSH1 0x4 SLOAD DUP2 MSTORE PUSH1 0x20 ADD SWAP1 DUP2 MSTORE PUSH1 0x20 ADD PUSH1 0x0 KECCAK256 SWAP1 POP PUSH1 0x4 SLOAD DUP2 PUSH1 0x0 ADD DUP2 SWAP1 SSTORE POP DUP4 DUP2 PUSH1 0x1 ADD PUSH1 0x0 PUSH2 0x100 EXP DUP2 SLOAD DUP2 PUSH20 0xFFFFFFFFFFFFFFFFFFFFFFFFFFFFFFFFFFFFFFFF MUL NOT AND SWAP1 DUP4 PUSH20 0xFFFFFFFFFFFFFFFFFFFFFFFFFFFFFFFFFFFFFFFF AND MUL OR SWAP1 SSTORE POP DUP3 DUP2 PUSH1 0x2 ADD DUP2 SWAP1 SSTORE POP DUP2 DUP2 PUSH1 0x3 ADD SWAP1 DUP2 PUSH2 0xDD6 SWAP2 SWAP1 PUSH2 0x1764 JUMP JUMPDEST POP PUSH1 0x4 PUSH1 0x0 DUP2 SLOAD DUP1 SWAP3 SWAP2 SWAP1 PUSH2 0xDEA SWAP1 PUSH2 0x1418 JUMP JUMPDEST SWAP2 SWAP1 POP SSTORE POP DUP2 PUSH1 0x40 MLOAD PUSH2 0xDFD SWAP2 SWAP1 PUSH2 0x1867 JUMP JUMPDEST PUSH1 0x40 MLOAD DUP1 SWAP2 SUB SWAP1 KECCAK256 DUP4 DUP6 PUSH20 0xFFFFFFFFFFFFFFFFFFFFFFFFFFFFFFFFFFFFFFFF AND PUSH32 0x315D8BF6C6D36A1411EE3D8D607B26DF37940936BD273E006857A296FBAC2CE8 PUSH1 0x40 MLOAD PUSH1 0x40 MLOAD DUP1 SWAP2 SUB SWAP1 LOG4 POP POP POP POP JUMP JUMPDEST PUSH1 0x4 SLOAD DUP2 JUMP JUMPDEST PUSH1 0x3 SLOAD DUP2 JUMP JUMPDEST PUSH1 0x0 DUP1 PUSH1 0x0 DUP4 PUSH20 0xFFFFFFFFFFFFFFFFFFFFFFFFFFFFFFFFFFFFFFFF AND PUSH20 0xFFFFFFFFFFFFFFFFFFFFFFFFFFFFFFFFFFFFFFFF AND DUP2 MSTORE PUSH1 0x20 ADD SWAP1 DUP2 MSTORE PUSH1 0x20 ADD PUSH1 0x0 KECCAK256 PUSH1 0x0 SWAP1 SLOAD SWAP1 PUSH2 0x100 EXP SWAP1 DIV PUSH1 0xFF AND SWAP1 POP SWAP2 SWAP1 POP JUMP JUMPDEST PUSH1 0x40 MLOAD DUP1 PUSH1 0xC0 ADD PUSH1 0x40 MSTORE DUP1 PUSH1 0x0 DUP2 MSTORE PUSH1 0x20 ADD PUSH1 0x0 PUSH20 0xFFFFFFFFFFFFFFFFFFFFFFFFFFFFFFFFFFFFFFFF AND DUP2 MSTORE PUSH1 0x20 ADD PUSH1 0x0 DUP2 MSTORE PUSH1 0x20 ADD PUSH1 0x60 DUP2 MSTORE PUSH1 0x20 ADD PUSH1 0x0 DUP2 MSTORE PUSH1 0x20 ADD PUSH1 0x0 ISZERO ISZERO DUP2 MSTORE POP SWAP1 JUMP JUMPDEST PUSH1 0x0 DUP2 SWAP1 POP SWAP2 SWAP1 POP JUMP JUMPDEST PUSH2 0xF11 DUP2 PUSH2 0xEFE JUMP JUMPDEST DUP3 MSTORE POP POP JUMP JUMPDEST PUSH1 0x0 PUSH1 0x20 DUP3 ADD SWAP1 POP PUSH2 0xF2C PUSH1 0x0 DUP4 ADD DUP5 PUSH2 0xF08 JUMP JUMPDEST SWAP3 SWAP2 POP POP JUMP JUMPDEST PUSH1 0x0 PUSH1 0x40 MLOAD SWAP1 POP SWAP1 JUMP JUMPDEST PUSH1 0x0 DUP1 REVERT JUMPDEST PUSH1 0x0 DUP1 REVERT JUMPDEST PUSH2 0xF4F DUP2 PUSH2 0xEFE JUMP JUMPDEST DUP2 EQ PUSH2 0xF5A JUMPI PUSH1 0x0 DUP1 REVERT JUMPDEST POP JUMP JUMPDEST PUSH1 0x0 DUP2 CALLDATALOAD SWAP1 POP PUSH2 0xF6C DUP2 PUSH2 0xF46 JUMP JUMPDEST SWAP3 SWAP2 POP POP JUMP JUMPDEST PUSH1 0x0 PUSH1 0x20 DUP3 DUP5 SUB SLT ISZERO PUSH2 0xF88 JUMPI PUSH2 0xF87 PUSH2 0xF3C JUMP JUMPDEST JUMPDEST PUSH1 0x0 PUSH2 0xF96 DUP5 DUP3 DUP6 ADD PUSH2 0xF5D JUMP JUMPDEST SWAP2 POP POP SWAP3 SWAP2 POP POP JUMP JUMPDEST PUSH2 0xFA8 DUP2 PUSH2 0xEFE JUMP JUMPDEST DUP3 MSTORE POP POP JUMP JUMPDEST PUSH1 0x0 PUSH20 0xFFFFFFFFFFFFFFFFFFFFFFFFFFFFFFFFFFFFFFFF DUP3 AND SWAP1 POP SWAP2 SWAP1 POP JUMP JUMPDEST PUSH1 0x0 PUSH2 0xFD9 DUP3 PUSH2 0xFAE JUMP JUMPDEST SWAP1 POP SWAP2 SWAP1 POP JUMP JUMPDEST PUSH2 0xFE9 DUP2 PUSH2 0xFCE JUMP JUMPDEST DUP3 MSTORE POP POP JUMP JUMPDEST PUSH1 0x0 DUP2 MLOAD SWAP1 POP SWAP2 SWAP1 POP JUMP JUMPDEST PUSH1 0x0 DUP3 DUP3 MSTORE PUSH1 0x20 DUP3 ADD SWAP1 POP SWAP3 SWAP2 POP POP JUMP JUMPDEST PUSH1 0x0 JUMPDEST DUP4 DUP2 LT ISZERO PUSH2 0x1029 JUMPI DUP1 DUP3 ADD MLOAD DUP2 DUP5 ADD MSTORE PUSH1 0x20 DUP2 ADD SWAP1 POP PUSH2 0x100E JUMP JUMPDEST DUP4 DUP2 GT ISZERO PUSH2 0x1038 JUMPI PUSH1 0x0 DUP5 DUP5 ADD MSTORE JUMPDEST POP POP POP POP JUMP JUMPDEST PUSH1 0x0 PUSH1 0x1F NOT PUSH1 0x1F DUP4 ADD AND SWAP1 POP SWAP2 SWAP1 POP JUMP JUMPDEST PUSH1 0x0 PUSH2 0x105A DUP3 PUSH2 0xFEF JUMP JUMPDEST PUSH2 0x1064 DUP2 DUP6 PUSH2 0xFFA JUMP JUMPDEST SWAP4 POP PUSH2 0x1074 DUP2 DUP6 PUSH1 0x20 DUP7 ADD PUSH2 0x100B JUMP JUMPDEST PUSH2 0x107D DUP2 PUSH2 0x103E JUMP JUMPDEST DUP5 ADD SWAP2 POP POP SWAP3 SWAP2 POP POP JUMP JUMPDEST PUSH1 0x0 DUP2 ISZERO ISZERO SWAP1 POP SWAP2 SWAP1 POP JUMP JUMPDEST PUSH2 0x109D DUP2 PUSH2 0x1088 JUMP JUMPDEST DUP3 MSTORE POP POP JUMP JUMPDEST PUSH1 0x0 PUSH1 0xC0 DUP4 ADD PUSH1 0x0 DUP4 ADD MLOAD PUSH2 0x10BB PUSH1 0x0 DUP7 ADD DUP3 PUSH2 0xF9F JUMP JUMPDEST POP PUSH1 0x20 DUP4 ADD MLOAD PUSH2 0x10CE PUSH1 0x20 DUP7 ADD DUP3 PUSH2 0xFE0 JUMP JUMPDEST POP PUSH1 0x40 DUP4 ADD MLOAD PUSH2 0x10E1 PUSH1 0x40 DUP7 ADD DUP3 PUSH2 0xF9F JUMP JUMPDEST POP PUSH1 0x60 DUP4 ADD MLOAD DUP5 DUP3 SUB PUSH1 0x60 DUP7 ADD MSTORE PUSH2 0x10F9 DUP3 DUP3 PUSH2 0x104F JUMP JUMPDEST SWAP2 POP POP PUSH1 0x80 DUP4 ADD MLOAD PUSH2 0x110E PUSH1 0x80 DUP7 ADD DUP3 PUSH2 0xF9F JUMP JUMPDEST POP PUSH1 0xA0 DUP4 ADD MLOAD PUSH2 0x1121 PUSH1 0xA0 DUP7 ADD DUP3 PUSH2 0x1094 JUMP JUMPDEST POP DUP1 SWAP2 POP POP SWAP3 SWAP2 POP POP JUMP JUMPDEST PUSH1 0x0 PUSH1 0x20 DUP3 ADD SWAP1 POP DUP2 DUP2 SUB PUSH1 0x0 DUP4 ADD MSTORE PUSH2 0x1146 DUP2 DUP5 PUSH2 0x10A3 JUMP JUMPDEST SWAP1 POP SWAP3 SWAP2 POP POP JUMP JUMPDEST PUSH2 0x1157 DUP2 PUSH2 0xFCE JUMP JUMPDEST DUP2 EQ PUSH2 0x1162 JUMPI PUSH1 0x0 DUP1 REVERT JUMPDEST POP JUMP JUMPDEST PUSH1 0x0 DUP2 CALLDATALOAD SWAP1 POP PUSH2 0x1174 DUP2 PUSH2 0x114E JUMP JUMPDEST SWAP3 SWAP2 POP POP JUMP JUMPDEST PUSH1 0x0 DUP1 PUSH1 0x40 DUP4 DUP6 SUB SLT ISZERO PUSH2 0x1191 JUMPI PUSH2 0x1190 PUSH2 0xF3C JUMP JUMPDEST JUMPDEST PUSH1 0x0 PUSH2 0x119F DUP6 DUP3 DUP7 ADD PUSH2 0xF5D JUMP JUMPDEST SWAP3 POP POP PUSH1 0x20 PUSH2 0x11B0 DUP6 DUP3 DUP7 ADD PUSH2 0x1165 JUMP JUMPDEST SWAP2 POP POP SWAP3 POP SWAP3 SWAP1 POP JUMP JUMPDEST PUSH2 0x11C3 DUP2 PUSH2 0x1088 JUMP JUMPDEST DUP3 MSTORE POP POP JUMP JUMPDEST PUSH1 0x0 PUSH1 0x20 DUP3 ADD SWAP1 POP PUSH2 0x11DE PUSH1 0x0 DUP4 ADD DUP5 PUSH2 0x11BA JUMP JUMPDEST SWAP3 SWAP2 POP POP JUMP JUMPDEST PUSH1 0x0 DUP1 REVERT JUMPDEST PUSH1 0x0 DUP1 REVERT JUMPDEST PUSH32 0x4E487B7100000000000000000000000000000000000000000000000000000000 PUSH1 0x0 MSTORE PUSH1 0x41 PUSH1 0x4 MSTORE PUSH1 0x24 PUSH1 0x0 REVERT JUMPDEST PUSH2 0x1226 DUP3 PUSH2 0x103E JUMP JUMPDEST DUP2 ADD DUP2 DUP2 LT PUSH8 0xFFFFFFFFFFFFFFFF DUP3 GT OR ISZERO PUSH2 0x1245 JUMPI PUSH2 0x1244 PUSH2 0x11EE JUMP JUMPDEST JUMPDEST DUP1 PUSH1 0x40 MSTORE POP POP POP JUMP JUMPDEST PUSH1 0x0 PUSH2 0x1258 PUSH2 0xF32 JUMP JUMPDEST SWAP1 POP PUSH2 0x1264 DUP3 DUP3 PUSH2 0x121D JUMP JUMPDEST SWAP2 SWAP1 POP JUMP JUMPDEST PUSH1 0x0 PUSH8 0xFFFFFFFFFFFFFFFF DUP3 GT ISZERO PUSH2 0x1284 JUMPI PUSH2 0x1283 PUSH2 0x11EE JUMP JUMPDEST JUMPDEST PUSH2 0x128D DUP3 PUSH2 0x103E JUMP JUMPDEST SWAP1 POP PUSH1 0x20 DUP2 ADD SWAP1 POP SWAP2 SWAP1 POP JUMP JUMPDEST DUP3 DUP2 DUP4 CALLDATACOPY PUSH1 0x0 DUP4 DUP4 ADD MSTORE POP POP POP JUMP JUMPDEST PUSH1 0x0 PUSH2 0x12BC PUSH2 0x12B7 DUP5 PUSH2 0x1269 JUMP JUMPDEST PUSH2 0x124E JUMP JUMPDEST SWAP1 POP DUP3 DUP2 MSTORE PUSH1 0x20 DUP2 ADD DUP5 DUP5 DUP5 ADD GT ISZERO PUSH2 0x12D8 JUMPI PUSH2 0x12D7 PUSH2 0x11E9 JUMP JUMPDEST JUMPDEST PUSH2 0x12E3 DUP5 DUP3 DUP6 PUSH2 0x129A JUMP JUMPDEST POP SWAP4 SWAP3 POP POP POP JUMP JUMPDEST PUSH1 0x0 DUP3 PUSH1 0x1F DUP4 ADD SLT PUSH2 0x1300 JUMPI PUSH2 0x12FF PUSH2 0x11E4 JUMP JUMPDEST JUMPDEST DUP2 CALLDATALOAD PUSH2 0x1310 DUP5 DUP3 PUSH1 0x20 DUP7 ADD PUSH2 0x12A9 JUMP JUMPDEST SWAP2 POP POP SWAP3 SWAP2 POP POP JUMP JUMPDEST PUSH1 0x0 DUP1 PUSH1 0x0 PUSH1 0x60 DUP5 DUP7 SUB SLT ISZERO PUSH2 0x1332 JUMPI PUSH2 0x1331 PUSH2 0xF3C JUMP JUMPDEST JUMPDEST PUSH1 0x0 PUSH2 0x1340 DUP7 DUP3 DUP8 ADD PUSH2 0x1165 JUMP JUMPDEST SWAP4 POP POP PUSH1 0x20 PUSH2 0x1351 DUP7 DUP3 DUP8 ADD PUSH2 0xF5D JUMP JUMPDEST SWAP3 POP POP PUSH1 0x40 DUP5 ADD CALLDATALOAD PUSH8 0xFFFFFFFFFFFFFFFF DUP2 GT ISZERO PUSH2 0x1372 JUMPI PUSH2 0x1371 PUSH2 0xF41 JUMP JUMPDEST JUMPDEST PUSH2 0x137E DUP7 DUP3 DUP8 ADD PUSH2 0x12EB JUMP JUMPDEST SWAP2 POP POP SWAP3 POP SWAP3 POP SWAP3 JUMP JUMPDEST PUSH1 0x0 PUSH1 0x20 DUP3 DUP5 SUB SLT ISZERO PUSH2 0x139E JUMPI PUSH2 0x139D PUSH2 0xF3C JUMP JUMPDEST JUMPDEST PUSH1 0x0 PUSH2 0x13AC DUP5 DUP3 DUP6 ADD PUSH2 0x1165 JUMP JUMPDEST SWAP2 POP POP SWAP3 SWAP2 POP POP JUMP JUMPDEST PUSH32 0x4E487B7100000000000000000000000000000000000000000000000000000000 PUSH1 0x0 MSTORE PUSH1 0x11 PUSH1 0x4 MSTORE PUSH1 0x24 PUSH1 0x0 REVERT JUMPDEST PUSH1 0x0 PUSH2 0x13EF DUP3 PUSH2 0xEFE JUMP JUMPDEST SWAP2 POP PUSH2 0x13FA DUP4 PUSH2 0xEFE JUMP JUMPDEST SWAP3 POP DUP3 DUP3 LT ISZERO PUSH2 0x140D JUMPI PUSH2 0x140C PUSH2 0x13B5 JUMP JUMPDEST JUMPDEST DUP3 DUP3 SUB SWAP1 POP SWAP3 SWAP2 POP POP JUMP JUMPDEST PUSH1 0x0 PUSH2 0x1423 DUP3 PUSH2 0xEFE JUMP JUMPDEST SWAP2 POP PUSH32 0xFFFFFFFFFFFFFFFFFFFFFFFFFFFFFFFFFFFFFFFFFFFFFFFFFFFFFFFFFFFFFFFF DUP3 SUB PUSH2 0x1455 JUMPI PUSH2 0x1454 PUSH2 0x13B5 JUMP JUMPDEST JUMPDEST PUSH1 0x1 DUP3 ADD SWAP1 POP SWAP2 SWAP1 POP JUMP JUMPDEST PUSH32 0x4E487B7100000000000000000000000000000000000000000000000000000000 PUSH1 0x0 MSTORE PUSH1 0x22 PUSH1 0x4 MSTORE PUSH1 0x24 PUSH1 0x0 REVERT JUMPDEST PUSH1 0x0 PUSH1 0x2 DUP3 DIV SWAP1 POP PUSH1 0x1 DUP3 AND DUP1 PUSH2 0x14A7 JUMPI PUSH1 0x7F DUP3 AND SWAP2 POP JUMPDEST PUSH1 0x20 DUP3 LT DUP2 SUB PUSH2 0x14BA JUMPI PUSH2 0x14B9 PUSH2 0x1460 JUMP JUMPDEST JUMPDEST POP SWAP2 SWAP1 POP JUMP JUMPDEST PUSH1 0x0 DUP2 SWAP1 POP SWAP3 SWAP2 POP POP JUMP JUMPDEST PUSH1 0x0 DUP2 SWAP1 POP DUP2 PUSH1 0x0 MSTORE PUSH1 0x20 PUSH1 0x0 KECCAK256 SWAP1 POP SWAP2 SWAP1 POP JUMP JUMPDEST PUSH1 0x0 DUP2 SLOAD PUSH2 0x14ED DUP2 PUSH2 0x148F JUMP JUMPDEST PUSH2 0x14F7 DUP2 DUP7 PUSH2 0x14C0 JUMP JUMPDEST SWAP5 POP PUSH1 0x1 DUP3 AND PUSH1 0x0 DUP2 EQ PUSH2 0x1512 JUMPI PUSH1 0x1 DUP2 EQ PUSH2 0x1527 JUMPI PUSH2 0x155A JUMP JUMPDEST PUSH1 0xFF NOT DUP4 AND DUP7 MSTORE DUP2 ISZERO ISZERO DUP3 MUL DUP7 ADD SWAP4 POP PUSH2 0x155A JUMP JUMPDEST PUSH2 0x1530 DUP6 PUSH2 0x14CB JUMP JUMPDEST PUSH1 0x0 JUMPDEST DUP4 DUP2 LT ISZERO PUSH2 0x1552 JUMPI DUP2 SLOAD DUP2 DUP10 ADD MSTORE PUSH1 0x1 DUP3 ADD SWAP2 POP PUSH1 0x20 DUP2 ADD SWAP1 POP PUSH2 0x1533 JUMP JUMPDEST DUP4 DUP9 ADD SWAP6 POP POP POP JUMPDEST POP POP POP SWAP3 SWAP2 POP POP JUMP JUMPDEST PUSH1 0x0 PUSH2 0x156F DUP3 DUP5 PUSH2 0x14E0 JUMP JUMPDEST SWAP2 POP DUP2 SWAP1 POP SWAP3 SWAP2 POP POP JUMP JUMPDEST PUSH2 0x1583 DUP2 PUSH2 0xFCE JUMP JUMPDEST DUP3 MSTORE POP POP JUMP JUMPDEST PUSH1 0x0 PUSH1 0x20 DUP3 ADD SWAP1 POP PUSH2 0x159E PUSH1 0x0 DUP4 ADD DUP5 PUSH2 0x157A JUMP JUMPDEST SWAP3 SWAP2 POP POP JUMP JUMPDEST PUSH1 0x0 PUSH2 0x15AF DUP3 PUSH2 0xEFE JUMP JUMPDEST SWAP2 POP PUSH1 0x0 DUP3 SUB PUSH2 0x15C2 JUMPI PUSH2 0x15C1 PUSH2 0x13B5 JUMP JUMPDEST JUMPDEST PUSH1 0x1 DUP3 SUB SWAP1 POP SWAP2 SWAP1 POP JUMP JUMPDEST PUSH1 0x0 PUSH1 0x20 PUSH1 0x1F DUP4 ADD DIV SWAP1 POP SWAP2 SWAP1 POP JUMP JUMPDEST PUSH1 0x0 DUP3 DUP3 SHL SWAP1 POP SWAP3 SWAP2 POP POP JUMP JUMPDEST PUSH1 0x0 PUSH1 0x8 DUP4 MUL PUSH2 0x161A PUSH32 0xFFFFFFFFFFFFFFFFFFFFFFFFFFFFFFFFFFFFFFFFFFFFFFFFFFFFFFFFFFFFFFFF DUP3 PUSH2 0x15DD JUMP JUMPDEST PUSH2 0x1624 DUP7 DUP4 PUSH2 0x15DD JUMP JUMPDEST SWAP6 POP DUP1 NOT DUP5 AND SWAP4 POP DUP1 DUP7 AND DUP5 OR SWAP3 POP POP POP SWAP4 SWAP3 POP POP POP JUMP JUMPDEST PUSH1 0x0 DUP2 SWAP1 POP SWAP2 SWAP1 POP JUMP JUMPDEST PUSH1 0x0 PUSH2 0x1661 PUSH2 0x165C PUSH2 0x1657 DUP5 PUSH2 0xEFE JUMP JUMPDEST PUSH2 0x163C JUMP JUMPDEST PUSH2 0xEFE JUMP JUMPDEST SWAP1 POP SWAP2 SWAP1 POP JUMP JUMPDEST PUSH1 0x0 DUP2 SWAP1 POP SWAP2 SWAP1 POP JUMP JUMPDEST PUSH2 0x167B DUP4 PUSH2 0x1646 JUMP JUMPDEST PUSH2 0x168F PUSH2 0x1687 DUP3 PUSH2 0x1668 JUMP JUMPDEST DUP5 DUP5 SLOAD PUSH2 0x15EA JUMP JUMPDEST DUP3 SSTORE POP POP POP POP JUMP JUMPDEST PUSH1 0x0 SWAP1 JUMP JUMPDEST PUSH2 0x16A4 PUSH2 0x1697 JUMP JUMPDEST PUSH2 0x16AF DUP2 DUP5 DUP5 PUSH2 0x1672 JUMP JUMPDEST POP POP POP JUMP JUMPDEST JUMPDEST DUP2 DUP2 LT ISZERO PUSH2 0x16D3 JUMPI PUSH2 0x16C8 PUSH1 0x0 DUP3 PUSH2 0x169C JUMP JUMPDEST PUSH1 0x1 DUP2 ADD SWAP1 POP PUSH2 0x16B5 JUMP JUMPDEST POP POP JUMP JUMPDEST PUSH1 0x1F DUP3 GT ISZERO PUSH2 0x1718 JUMPI PUSH2 0x16E9 DUP2 PUSH2 0x14CB JUMP JUMPDEST PUSH2 0x16F2 DUP5 PUSH2 0x15CD JUMP JUMPDEST DUP2 ADD PUSH1 0x20 DUP6 LT ISZERO PUSH2 0x1701 JUMPI DUP2 SWAP1 POP JUMPDEST PUSH2 0x1715 PUSH2 0x170D DUP6 PUSH2 0x15CD JUMP JUMPDEST DUP4 ADD DUP3 PUSH2 0x16B4 JUMP JUMPDEST POP POP JUMPDEST POP POP POP JUMP JUMPDEST PUSH1 0x0 DUP3 DUP3 SHR SWAP1 POP SWAP3 SWAP2 POP POP JUMP JUMPDEST PUSH1 0x0 PUSH2 0x173B PUSH1 0x0 NOT DUP5 PUSH1 0x8 MUL PUSH2 0x171D JUMP JUMPDEST NOT DUP1 DUP4 AND SWAP2 POP POP SWAP3 SWAP2 POP POP JUMP JUMPDEST PUSH1 0x0 PUSH2 0x1754 DUP4 DUP4 PUSH2 0x172A JUMP JUMPDEST SWAP2 POP DUP3 PUSH1 0x2 MUL DUP3 OR SWAP1 POP SWAP3 SWAP2 POP POP JUMP JUMPDEST PUSH2 0x176D DUP3 PUSH2 0xFEF JUMP JUMPDEST PUSH8 0xFFFFFFFFFFFFFFFF DUP2 GT ISZERO PUSH2 0x1786 JUMPI PUSH2 0x1785 PUSH2 0x11EE JUMP JUMPDEST JUMPDEST PUSH2 0x1790 DUP3 SLOAD PUSH2 0x148F JUMP JUMPDEST PUSH2 0x179B DUP3 DUP3 DUP6 PUSH2 0x16D7 JUMP JUMPDEST PUSH1 0x0 PUSH1 0x20 SWAP1 POP PUSH1 0x1F DUP4 GT PUSH1 0x1 DUP2 EQ PUSH2 0x17CE JUMPI PUSH1 0x0 DUP5 ISZERO PUSH2 0x17BC JUMPI DUP3 DUP8 ADD MLOAD SWAP1 POP JUMPDEST PUSH2 0x17C6 DUP6 DUP3 PUSH2 0x1748 JUMP JUMPDEST DUP7 SSTORE POP PUSH2 0x182E JUMP JUMPDEST PUSH1 0x1F NOT DUP5 AND PUSH2 0x17DC DUP7 PUSH2 0x14CB JUMP JUMPDEST PUSH1 0x0 JUMPDEST DUP3 DUP2 LT ISZERO PUSH2 0x1804 JUMPI DUP5 DUP10 ADD MLOAD DUP3 SSTORE PUSH1 0x1 DUP3 ADD SWAP2 POP PUSH1 0x20 DUP6 ADD SWAP5 POP PUSH1 0x20 DUP2 ADD SWAP1 POP PUSH2 0x17DF JUMP JUMPDEST DUP7 DUP4 LT ISZERO PUSH2 0x1821 JUMPI DUP5 DUP10 ADD MLOAD PUSH2 0x181D PUSH1 0x1F DUP10 AND DUP3 PUSH2 0x172A JUMP JUMPDEST DUP4 SSTORE POP JUMPDEST PUSH1 0x1 PUSH1 0x2 DUP9 MUL ADD DUP9 SSTORE POP POP POP JUMPDEST POP POP POP POP POP POP JUMP JUMPDEST PUSH1 0x0 PUSH2 0x1841 DUP3 PUSH2 0xFEF JUMP JUMPDEST PUSH2 0x184B DUP2 DUP6 PUSH2 0x14C0 JUMP JUMPDEST SWAP4 POP PUSH2 0x185B DUP2 DUP6 PUSH1 0x20 DUP7 ADD PUSH2 0x100B JUMP JUMPDEST DUP1 DUP5 ADD SWAP2 POP POP SWAP3 SWAP2 POP POP JUMP JUMPDEST PUSH1 0x0 PUSH2 0x1873 DUP3 DUP5 PUSH2 0x1836 JUMP JUMPDEST SWAP2 POP DUP2 SWAP1 POP SWAP3 SWAP2 POP POP JUMP INVALID LOG2 PUSH5 0x6970667358 0x22 SLT KECCAK256 0xC7 EXTCODESIZE PUSH21 0x234DA285AA2A108F89D4569B2CC92E23AE4BE0C4B4 DUP15 0xCF 0x21 0xE1 0xDE PUSH21 0x8EAB64736F6C634300080F00330000000000000000 "
				},
				"gasEstimates": {
					"creation": {
						"codeDepositCost": "1264800",
						"executionCost": "infinite",
						"totalCost": "infinite"
					},
					"external": {
						"approveTx(uint256)": "infinite",
						"checkApproved(uint256,address)": "3201",
						"checkOwner(address)": "2971",
						"executeTx(uint256)": "infinite",
						"getTransaction(uint256)": "infinite",
						"required()": "2495",
						"revokeApproval(uint256)": "infinite",
						"submitTx(address,uint256,bytes)": "infinite",
						"txId()": "2473"
					}
				},
				"methodIdentifiers": {
					"approveTx(uint256)": "1087393a",
					"checkApproved(uint256,address)": "8f9487eb",
					"checkOwner(address)": "e0e3671c",
					"executeTx(uint256)": "54b5fe80",
					"getTransaction(uint256)": "33ea3dc8",
					"required()": "dc8452cd",
					"revokeApproval(uint256)": "b1e130fc",
					"submitTx(address,uint256,bytes)": "bb84c5a9",
					"txId()": "cd568d1f"
				}
			},
			"storageLayout": {
				"storage": [
					{
						"astId": 43,
						"contract": "contracts/DeFi/MultiSigV2.sol:MultiSigWallet",
						"label": "isOwner",
						"offset": 0,
						"slot": "0",
						"type": "t_mapping(t_address,t_bool)"
					},
					{
						"astId": 61,
						"contract": "contracts/DeFi/MultiSigV2.sol:MultiSigWallet",
						"label": "transactions",
						"offset": 0,
						"slot": "1",
						"type": "t_mapping(t_uint256,t_struct(Transaction)56_storage)"
					},
					{
						"astId": 67,
						"contract": "contracts/DeFi/MultiSigV2.sol:MultiSigWallet",
						"label": "approved",
						"offset": 0,
						"slot": "2",
						"type": "t_mapping(t_uint256,t_mapping(t_address,t_bool))"
					},
					{
						"astId": 69,
						"contract": "contracts/DeFi/MultiSigV2.sol:MultiSigWallet",
						"label": "required",
						"offset": 0,
						"slot": "3",
						"type": "t_uint256"
					},
					{
						"astId": 71,
						"contract": "contracts/DeFi/MultiSigV2.sol:MultiSigWallet",
						"label": "txId",
						"offset": 0,
						"slot": "4",
						"type": "t_uint256"
					}
				],
				"types": {
					"t_address": {
						"encoding": "inplace",
						"label": "address",
						"numberOfBytes": "20"
					},
					"t_bool": {
						"encoding": "inplace",
						"label": "bool",
						"numberOfBytes": "1"
					},
					"t_bytes_storage": {
						"encoding": "bytes",
						"label": "bytes",
						"numberOfBytes": "32"
					},
					"t_mapping(t_address,t_bool)": {
						"encoding": "mapping",
						"key": "t_address",
						"label": "mapping(address => bool)",
						"numberOfBytes": "32",
						"value": "t_bool"
					},
					"t_mapping(t_uint256,t_mapping(t_address,t_bool))": {
						"encoding": "mapping",
						"key": "t_uint256",
						"label": "mapping(uint256 => mapping(address => bool))",
						"numberOfBytes": "32",
						"value": "t_mapping(t_address,t_bool)"
					},
					"t_mapping(t_uint256,t_struct(Transaction)56_storage)": {
						"encoding": "mapping",
						"key": "t_uint256",
						"label": "mapping(uint256 => struct MultiSigWallet.Transaction)",
						"numberOfBytes": "32",
						"value": "t_struct(Transaction)56_storage"
					},
					"t_struct(Transaction)56_storage": {
						"encoding": "inplace",
						"label": "struct MultiSigWallet.Transaction",
						"members": [
							{
								"astId": 45,
								"contract": "contracts/DeFi/MultiSigV2.sol:MultiSigWallet",
								"label": "id",
								"offset": 0,
								"slot": "0",
								"type": "t_uint256"
							},
							{
								"astId": 47,
								"contract": "contracts/DeFi/MultiSigV2.sol:MultiSigWallet",
								"label": "to",
								"offset": 0,
								"slot": "1",
								"type": "t_address"
							},
							{
								"astId": 49,
								"contract": "contracts/DeFi/MultiSigV2.sol:MultiSigWallet",
								"label": "value",
								"offset": 0,
								"slot": "2",
								"type": "t_uint256"
							},
							{
								"astId": 51,
								"contract": "contracts/DeFi/MultiSigV2.sol:MultiSigWallet",
								"label": "data",
								"offset": 0,
								"slot": "3",
								"type": "t_bytes_storage"
							},
							{
								"astId": 53,
								"contract": "contracts/DeFi/MultiSigV2.sol:MultiSigWallet",
								"label": "confirmations",
								"offset": 0,
								"slot": "4",
								"type": "t_uint256"
							},
							{
								"astId": 55,
								"contract": "contracts/DeFi/MultiSigV2.sol:MultiSigWallet",
								"label": "executed",
								"offset": 0,
								"slot": "5",
								"type": "t_bool"
							}
						],
						"numberOfBytes": "192"
					},
					"t_uint256": {
						"encoding": "inplace",
						"label": "uint256",
						"numberOfBytes": "32"
					}
				}
			},
			"userdoc": {
				"kind": "user",
				"methods": {},
				"version": 1
			}
		}
	}
}