{
	"contracts/DeFi/DeFiStaking.sol": {
		"Staking": {
			"abi": [
				{
					"inputs": [
						{
							"internalType": "address",
							"name": "stakingToken",
							"type": "address"
						},
						{
							"internalType": "address",
							"name": "rewardsToken",
							"type": "address"
						}
					],
					"stateMutability": "nonpayable",
					"type": "constructor"
				},
				{
					"inputs": [],
					"name": "NeedsMoreThanZero",
					"type": "error"
				},
				{
					"inputs": [],
					"name": "TransferFailed",
					"type": "error"
				},
				{
					"anonymous": false,
					"inputs": [
						{
							"indexed": true,
							"internalType": "address",
							"name": "user",
							"type": "address"
						},
						{
							"indexed": true,
							"internalType": "uint256",
							"name": "amount",
							"type": "uint256"
						}
					],
					"name": "RewardsClaimed",
					"type": "event"
				},
				{
					"anonymous": false,
					"inputs": [
						{
							"indexed": true,
							"internalType": "address",
							"name": "user",
							"type": "address"
						},
						{
							"indexed": true,
							"internalType": "uint256",
							"name": "amount",
							"type": "uint256"
						}
					],
					"name": "Staked",
					"type": "event"
				},
				{
					"anonymous": false,
					"inputs": [
						{
							"indexed": true,
							"internalType": "address",
							"name": "user",
							"type": "address"
						},
						{
							"indexed": true,
							"internalType": "uint256",
							"name": "amount",
							"type": "uint256"
						}
					],
					"name": "WithdrewStake",
					"type": "event"
				},
				{
					"inputs": [],
					"name": "REWARD_RATE",
					"outputs": [
						{
							"internalType": "uint256",
							"name": "",
							"type": "uint256"
						}
					],
					"stateMutability": "view",
					"type": "function"
				},
				{
					"inputs": [],
					"name": "claimReward",
					"outputs": [],
					"stateMutability": "nonpayable",
					"type": "function"
				},
				{
					"inputs": [
						{
							"internalType": "address",
							"name": "account",
							"type": "address"
						}
					],
					"name": "earned",
					"outputs": [
						{
							"internalType": "uint256",
							"name": "",
							"type": "uint256"
						}
					],
					"stateMutability": "view",
					"type": "function"
				},
				{
					"inputs": [
						{
							"internalType": "address",
							"name": "account",
							"type": "address"
						}
					],
					"name": "getStaked",
					"outputs": [
						{
							"internalType": "uint256",
							"name": "",
							"type": "uint256"
						}
					],
					"stateMutability": "view",
					"type": "function"
				},
				{
					"inputs": [],
					"name": "rewardPerToken",
					"outputs": [
						{
							"internalType": "uint256",
							"name": "",
							"type": "uint256"
						}
					],
					"stateMutability": "view",
					"type": "function"
				},
				{
					"inputs": [
						{
							"internalType": "address",
							"name": "",
							"type": "address"
						}
					],
					"name": "s_balances",
					"outputs": [
						{
							"internalType": "uint256",
							"name": "",
							"type": "uint256"
						}
					],
					"stateMutability": "view",
					"type": "function"
				},
				{
					"inputs": [],
					"name": "s_lastUpdateTime",
					"outputs": [
						{
							"internalType": "uint256",
							"name": "",
							"type": "uint256"
						}
					],
					"stateMutability": "view",
					"type": "function"
				},
				{
					"inputs": [],
					"name": "s_rewardPerTokenStored",
					"outputs": [
						{
							"internalType": "uint256",
							"name": "",
							"type": "uint256"
						}
					],
					"stateMutability": "view",
					"type": "function"
				},
				{
					"inputs": [
						{
							"internalType": "address",
							"name": "",
							"type": "address"
						}
					],
					"name": "s_rewards",
					"outputs": [
						{
							"internalType": "uint256",
							"name": "",
							"type": "uint256"
						}
					],
					"stateMutability": "view",
					"type": "function"
				},
				{
					"inputs": [],
					"name": "s_rewardsToken",
					"outputs": [
						{
							"internalType": "contract IERC20",
							"name": "",
							"type": "address"
						}
					],
					"stateMutability": "view",
					"type": "function"
				},
				{
					"inputs": [],
					"name": "s_stakingToken",
					"outputs": [
						{
							"internalType": "contract IERC20",
							"name": "",
							"type": "address"
						}
					],
					"stateMutability": "view",
					"type": "function"
				},
				{
					"inputs": [
						{
							"internalType": "address",
							"name": "",
							"type": "address"
						}
					],
					"name": "s_userRewardPerTokenPaid",
					"outputs": [
						{
							"internalType": "uint256",
							"name": "",
							"type": "uint256"
						}
					],
					"stateMutability": "view",
					"type": "function"
				},
				{
					"inputs": [
						{
							"internalType": "uint256",
							"name": "amount",
							"type": "uint256"
						}
					],
					"name": "stake",
					"outputs": [],
					"stateMutability": "nonpayable",
					"type": "function"
				},
				{
					"inputs": [
						{
							"internalType": "uint256",
							"name": "amount",
							"type": "uint256"
						}
					],
					"name": "withdraw",
					"outputs": [],
					"stateMutability": "nonpayable",
					"type": "function"
				}
			],
			"devdoc": {
				"kind": "dev",
				"methods": {
					"stake(uint256)": {
						"params": {
							"amount": "| How much to stake"
						}
					},
					"withdraw(uint256)": {
						"params": {
							"amount": "| How much to withdraw"
						}
					}
				},
				"version": 1
			},
			"evm": {
				"assembly": "    /* \"contracts/DeFi/DeFiStaking.sol\":299:4170  contract Staking is ReentrancyGuard {... */\n  mstore(0x40, 0x80)\n    /* \"contracts/DeFi/DeFiStaking.sol\":1202:1359  constructor(address stakingToken, address rewardsToken) {... */\n  callvalue\n  dup1\n  iszero\n  tag_1\n  jumpi\n  0x00\n  dup1\n  revert\ntag_1:\n  pop\n  mload(0x40)\n  sub(codesize, bytecodeSize)\n  dup1\n  bytecodeSize\n  dup4\n  codecopy\n  dup2\n  dup2\n  add\n  0x40\n  mstore\n  dup2\n  add\n  swap1\n  tag_2\n  swap2\n  swap1\n  tag_3\n  jump\t// in\ntag_2:\n    /* \"@openzeppelin/contracts/security/ReentrancyGuard.sol\":1701:1702  1 */\n  0x01\n    /* \"@openzeppelin/contracts/security/ReentrancyGuard.sol\":1806:1813  _status */\n  0x00\n    /* \"@openzeppelin/contracts/security/ReentrancyGuard.sol\":1806:1828  _status = _NOT_ENTERED */\n  dup2\n  swap1\n  sstore\n  pop\n    /* \"contracts/DeFi/DeFiStaking.sol\":1292:1304  stakingToken */\n  dup2\n    /* \"contracts/DeFi/DeFiStaking.sol\":1268:1282  s_stakingToken */\n  0x02\n  0x00\n    /* \"contracts/DeFi/DeFiStaking.sol\":1268:1305  s_stakingToken = IERC20(stakingToken) */\n  0x0100\n  exp\n  dup2\n  sload\n  dup2\n  0xffffffffffffffffffffffffffffffffffffffff\n  mul\n  not\n  and\n  swap1\n  dup4\n  0xffffffffffffffffffffffffffffffffffffffff\n  and\n  mul\n  or\n  swap1\n  sstore\n  pop\n    /* \"contracts/DeFi/DeFiStaking.sol\":1339:1351  rewardsToken */\n  dup1\n    /* \"contracts/DeFi/DeFiStaking.sol\":1315:1329  s_rewardsToken */\n  0x01\n  0x00\n    /* \"contracts/DeFi/DeFiStaking.sol\":1315:1352  s_rewardsToken = IERC20(rewardsToken) */\n  0x0100\n  exp\n  dup2\n  sload\n  dup2\n  0xffffffffffffffffffffffffffffffffffffffff\n  mul\n  not\n  and\n  swap1\n  dup4\n  0xffffffffffffffffffffffffffffffffffffffff\n  and\n  mul\n  or\n  swap1\n  sstore\n  pop\n    /* \"contracts/DeFi/DeFiStaking.sol\":1202:1359  constructor(address stakingToken, address rewardsToken) {... */\n  pop\n  pop\n    /* \"contracts/DeFi/DeFiStaking.sol\":299:4170  contract Staking is ReentrancyGuard {... */\n  jump(tag_8)\n    /* \"#utility.yul\":7:150   */\ntag_10:\n    /* \"#utility.yul\":64:69   */\n  0x00\n    /* \"#utility.yul\":95:101   */\n  dup2\n    /* \"#utility.yul\":89:102   */\n  mload\n    /* \"#utility.yul\":80:102   */\n  swap1\n  pop\n    /* \"#utility.yul\":111:144   */\n  tag_12\n    /* \"#utility.yul\":138:143   */\n  dup2\n    /* \"#utility.yul\":111:144   */\n  tag_13\n  jump\t// in\ntag_12:\n    /* \"#utility.yul\":7:150   */\n  swap3\n  swap2\n  pop\n  pop\n  jump\t// out\n    /* \"#utility.yul\":156:663   */\ntag_3:\n    /* \"#utility.yul\":235:241   */\n  0x00\n    /* \"#utility.yul\":243:249   */\n  dup1\n    /* \"#utility.yul\":292:294   */\n  0x40\n    /* \"#utility.yul\":280:289   */\n  dup4\n    /* \"#utility.yul\":271:278   */\n  dup6\n    /* \"#utility.yul\":267:290   */\n  sub\n    /* \"#utility.yul\":263:295   */\n  slt\n    /* \"#utility.yul\":260:379   */\n  iszero\n  tag_15\n  jumpi\n    /* \"#utility.yul\":298:377   */\n  tag_16\n  tag_17\n  jump\t// in\ntag_16:\n    /* \"#utility.yul\":260:379   */\ntag_15:\n    /* \"#utility.yul\":418:419   */\n  0x00\n    /* \"#utility.yul\":443:507   */\n  tag_18\n    /* \"#utility.yul\":499:506   */\n  dup6\n    /* \"#utility.yul\":490:496   */\n  dup3\n    /* \"#utility.yul\":479:488   */\n  dup7\n    /* \"#utility.yul\":475:497   */\n  add\n    /* \"#utility.yul\":443:507   */\n  tag_10\n  jump\t// in\ntag_18:\n    /* \"#utility.yul\":433:507   */\n  swap3\n  pop\n    /* \"#utility.yul\":389:517   */\n  pop\n    /* \"#utility.yul\":556:558   */\n  0x20\n    /* \"#utility.yul\":582:646   */\n  tag_19\n    /* \"#utility.yul\":638:645   */\n  dup6\n    /* \"#utility.yul\":629:635   */\n  dup3\n    /* \"#utility.yul\":618:627   */\n  dup7\n    /* \"#utility.yul\":614:636   */\n  add\n    /* \"#utility.yul\":582:646   */\n  tag_10\n  jump\t// in\ntag_19:\n    /* \"#utility.yul\":572:646   */\n  swap2\n  pop\n    /* \"#utility.yul\":527:656   */\n  pop\n    /* \"#utility.yul\":156:663   */\n  swap3\n  pop\n  swap3\n  swap1\n  pop\n  jump\t// out\n    /* \"#utility.yul\":750:846   */\ntag_22:\n    /* \"#utility.yul\":787:794   */\n  0x00\n    /* \"#utility.yul\":816:840   */\n  tag_24\n    /* \"#utility.yul\":834:839   */\n  dup3\n    /* \"#utility.yul\":816:840   */\n  tag_25\n  jump\t// in\ntag_24:\n    /* \"#utility.yul\":805:840   */\n  swap1\n  pop\n    /* \"#utility.yul\":750:846   */\n  swap2\n  swap1\n  pop\n  jump\t// out\n    /* \"#utility.yul\":852:978   */\ntag_25:\n    /* \"#utility.yul\":889:896   */\n  0x00\n    /* \"#utility.yul\":929:971   */\n  0xffffffffffffffffffffffffffffffffffffffff\n    /* \"#utility.yul\":922:927   */\n  dup3\n    /* \"#utility.yul\":918:972   */\n  and\n    /* \"#utility.yul\":907:972   */\n  swap1\n  pop\n    /* \"#utility.yul\":852:978   */\n  swap2\n  swap1\n  pop\n  jump\t// out\n    /* \"#utility.yul\":1107:1224   */\ntag_17:\n    /* \"#utility.yul\":1216:1217   */\n  0x00\n    /* \"#utility.yul\":1213:1214   */\n  dup1\n    /* \"#utility.yul\":1206:1218   */\n  revert\n    /* \"#utility.yul\":1230:1352   */\ntag_13:\n    /* \"#utility.yul\":1303:1327   */\n  tag_31\n    /* \"#utility.yul\":1321:1326   */\n  dup2\n    /* \"#utility.yul\":1303:1327   */\n  tag_22\n  jump\t// in\ntag_31:\n    /* \"#utility.yul\":1296:1301   */\n  dup2\n    /* \"#utility.yul\":1293:1328   */\n  eq\n    /* \"#utility.yul\":1283:1346   */\n  tag_32\n  jumpi\n    /* \"#utility.yul\":1342:1343   */\n  0x00\n    /* \"#utility.yul\":1339:1340   */\n  dup1\n    /* \"#utility.yul\":1332:1344   */\n  revert\n    /* \"#utility.yul\":1283:1346   */\ntag_32:\n    /* \"#utility.yul\":1230:1352   */\n  pop\n  jump\t// out\n    /* \"contracts/DeFi/DeFiStaking.sol\":299:4170  contract Staking is ReentrancyGuard {... */\ntag_8:\n  dataSize(sub_0)\n  dup1\n  dataOffset(sub_0)\n  0x00\n  codecopy\n  0x00\n  return\nstop\n\nsub_0: assembly {\n        /* \"contracts/DeFi/DeFiStaking.sol\":299:4170  contract Staking is ReentrancyGuard {... */\n      mstore(0x40, 0x80)\n      callvalue\n      dup1\n      iszero\n      tag_1\n      jumpi\n      0x00\n      dup1\n      revert\n    tag_1:\n      pop\n      jumpi(tag_2, lt(calldatasize, 0x04))\n      shr(0xe0, calldataload(0x00))\n      dup1\n      0xa694fc3a\n      gt\n      tag_17\n      jumpi\n      dup1\n      0xb88a802f\n      gt\n      tag_18\n      jumpi\n      dup1\n      0xb88a802f\n      eq\n      tag_13\n      jumpi\n      dup1\n      0xbea08151\n      eq\n      tag_14\n      jumpi\n      dup1\n      0xcd3daf9d\n      eq\n      tag_15\n      jumpi\n      dup1\n      0xf245ace4\n      eq\n      tag_16\n      jumpi\n      jump(tag_2)\n    tag_18:\n      dup1\n      0xa694fc3a\n      eq\n      tag_10\n      jumpi\n      dup1\n      0xab32eb69\n      eq\n      tag_11\n      jumpi\n      dup1\n      0xadca9b72\n      eq\n      tag_12\n      jumpi\n      jump(tag_2)\n    tag_17:\n      dup1\n      0x304ac91b\n      gt\n      tag_19\n      jumpi\n      dup1\n      0x304ac91b\n      eq\n      tag_6\n      jumpi\n      dup1\n      0x399080ec\n      eq\n      tag_7\n      jumpi\n      dup1\n      0x5997bb37\n      eq\n      tag_8\n      jumpi\n      dup1\n      0x6aa0838f\n      eq\n      tag_9\n      jumpi\n      jump(tag_2)\n    tag_19:\n      dup1\n      0x8cc262\n      eq\n      tag_3\n      jumpi\n      dup1\n      0x0bd21c56\n      eq\n      tag_4\n      jumpi\n      dup1\n      0x2e1a7d4d\n      eq\n      tag_5\n      jumpi\n    tag_2:\n      0x00\n      dup1\n      revert\n        /* \"contracts/DeFi/DeFiStaking.sol\":1849:2072  function earned(address account) public view returns (uint256) {... */\n    tag_3:\n      tag_20\n      0x04\n      dup1\n      calldatasize\n      sub\n      dup2\n      add\n      swap1\n      tag_21\n      swap2\n      swap1\n      tag_22\n      jump\t// in\n    tag_21:\n      tag_23\n      jump\t// in\n    tag_20:\n      mload(0x40)\n      tag_24\n      swap2\n      swap1\n      tag_25\n      jump\t// in\n    tag_24:\n      mload(0x40)\n      dup1\n      swap2\n      sub\n      swap1\n      return\n        /* \"contracts/DeFi/DeFiStaking.sol\":341:369  IERC20 public s_rewardsToken */\n    tag_4:\n      tag_26\n      tag_27\n      jump\t// in\n    tag_26:\n      mload(0x40)\n      tag_28\n      swap2\n      swap1\n      tag_29\n      jump\t// in\n    tag_28:\n      mload(0x40)\n      dup1\n      swap2\n      sub\n      swap1\n      return\n        /* \"contracts/DeFi/DeFiStaking.sol\":2716:3066  function withdraw(uint256 amount) external updateReward(msg.sender) nonReentrant {... */\n    tag_5:\n      tag_30\n      0x04\n      dup1\n      calldatasize\n      sub\n      dup2\n      add\n      swap1\n      tag_31\n      swap2\n      swap1\n      tag_32\n      jump\t// in\n    tag_31:\n      tag_33\n      jump\t// in\n    tag_30:\n      stop\n        /* \"contracts/DeFi/DeFiStaking.sol\":747:784  uint256 public s_rewardPerTokenStored */\n    tag_6:\n      tag_34\n      tag_35\n      jump\t// in\n    tag_34:\n      mload(0x40)\n      tag_36\n      swap2\n      swap1\n      tag_25\n      jump\t// in\n    tag_36:\n      mload(0x40)\n      dup1\n      swap2\n      sub\n      swap1\n      return\n        /* \"contracts/DeFi/DeFiStaking.sol\":4059:4168  function getStaked(address account) public view returns (uint256) {... */\n    tag_7:\n      tag_37\n      0x04\n      dup1\n      calldatasize\n      sub\n      dup2\n      add\n      swap1\n      tag_38\n      swap2\n      swap1\n      tag_22\n      jump\t// in\n    tag_38:\n      tag_39\n      jump\t// in\n    tag_37:\n      mload(0x40)\n      tag_40\n      swap2\n      swap1\n      tag_25\n      jump\t// in\n    tag_40:\n      mload(0x40)\n      dup1\n      swap2\n      sub\n      swap1\n      return\n        /* \"contracts/DeFi/DeFiStaking.sol\":663:704  uint256 public constant REWARD_RATE = 100 */\n    tag_8:\n      tag_41\n      tag_42\n      jump\t// in\n    tag_41:\n      mload(0x40)\n      tag_43\n      swap2\n      swap1\n      tag_25\n      jump\t// in\n    tag_43:\n      mload(0x40)\n      dup1\n      swap2\n      sub\n      swap1\n      return\n        /* \"contracts/DeFi/DeFiStaking.sol\":710:741  uint256 public s_lastUpdateTime */\n    tag_9:\n      tag_44\n      tag_45\n      jump\t// in\n    tag_44:\n      mload(0x40)\n      tag_46\n      swap2\n      swap1\n      tag_25\n      jump\t// in\n    tag_46:\n      mload(0x40)\n      dup1\n      swap2\n      sub\n      swap1\n      return\n        /* \"contracts/DeFi/DeFiStaking.sol\":2184:2600  function stake(uint256 amount)... */\n    tag_10:\n      tag_47\n      0x04\n      dup1\n      calldatasize\n      sub\n      dup2\n      add\n      swap1\n      tag_48\n      swap2\n      swap1\n      tag_32\n      jump\t// in\n    tag_48:\n      tag_49\n      jump\t// in\n    tag_47:\n      stop\n        /* \"contracts/DeFi/DeFiStaking.sol\":942:987  mapping(address => uint256) public s_balances */\n    tag_11:\n      tag_50\n      0x04\n      dup1\n      calldatasize\n      sub\n      dup2\n      add\n      swap1\n      tag_51\n      swap2\n      swap1\n      tag_22\n      jump\t// in\n    tag_51:\n      tag_52\n      jump\t// in\n    tag_50:\n      mload(0x40)\n      tag_53\n      swap2\n      swap1\n      tag_25\n      jump\t// in\n    tag_53:\n      mload(0x40)\n      dup1\n      swap2\n      sub\n      swap1\n      return\n        /* \"contracts/DeFi/DeFiStaking.sol\":375:403  IERC20 public s_stakingToken */\n    tag_12:\n      tag_54\n      tag_55\n      jump\t// in\n    tag_54:\n      mload(0x40)\n      tag_56\n      swap2\n      swap1\n      tag_29\n      jump\t// in\n    tag_56:\n      mload(0x40)\n      dup1\n      swap2\n      sub\n      swap1\n      return\n        /* \"contracts/DeFi/DeFiStaking.sol\":3128:3476  function claimReward() external updateReward(msg.sender) nonReentrant {... */\n    tag_13:\n      tag_57\n      tag_58\n      jump\t// in\n    tag_57:\n      stop\n        /* \"contracts/DeFi/DeFiStaking.sol\":856:900  mapping(address => uint256) public s_rewards */\n    tag_14:\n      tag_59\n      0x04\n      dup1\n      calldatasize\n      sub\n      dup2\n      add\n      swap1\n      tag_60\n      swap2\n      swap1\n      tag_22\n      jump\t// in\n    tag_60:\n      tag_61\n      jump\t// in\n    tag_59:\n      mload(0x40)\n      tag_62\n      swap2\n      swap1\n      tag_25\n      jump\t// in\n    tag_62:\n      mload(0x40)\n      dup1\n      swap2\n      sub\n      swap1\n      return\n        /* \"contracts/DeFi/DeFiStaking.sol\":1485:1778  function rewardPerToken() public view returns (uint256) {... */\n    tag_15:\n      tag_63\n      tag_64\n      jump\t// in\n    tag_63:\n      mload(0x40)\n      tag_65\n      swap2\n      swap1\n      tag_25\n      jump\t// in\n    tag_65:\n      mload(0x40)\n      dup1\n      swap2\n      sub\n      swap1\n      return\n        /* \"contracts/DeFi/DeFiStaking.sol\":791:850  mapping(address => uint256) public s_userRewardPerTokenPaid */\n    tag_16:\n      tag_66\n      0x04\n      dup1\n      calldatasize\n      sub\n      dup2\n      add\n      swap1\n      tag_67\n      swap2\n      swap1\n      tag_22\n      jump\t// in\n    tag_67:\n      tag_68\n      jump\t// in\n    tag_66:\n      mload(0x40)\n      tag_69\n      swap2\n      swap1\n      tag_25\n      jump\t// in\n    tag_69:\n      mload(0x40)\n      dup1\n      swap2\n      sub\n      swap1\n      return\n        /* \"contracts/DeFi/DeFiStaking.sol\":1849:2072  function earned(address account) public view returns (uint256) {... */\n    tag_23:\n        /* \"contracts/DeFi/DeFiStaking.sol\":1903:1910  uint256 */\n      0x00\n        /* \"contracts/DeFi/DeFiStaking.sol\":2047:2056  s_rewards */\n      0x06\n        /* \"contracts/DeFi/DeFiStaking.sol\":2047:2065  s_rewards[account] */\n      0x00\n        /* \"contracts/DeFi/DeFiStaking.sol\":2057:2064  account */\n      dup4\n        /* \"contracts/DeFi/DeFiStaking.sol\":2047:2065  s_rewards[account] */\n      0xffffffffffffffffffffffffffffffffffffffff\n      and\n      0xffffffffffffffffffffffffffffffffffffffff\n      and\n      dup2\n      mstore\n      0x20\n      add\n      swap1\n      dup2\n      mstore\n      0x20\n      add\n      0x00\n      keccak256\n      sload\n        /* \"contracts/DeFi/DeFiStaking.sol\":2039:2043  1e18 */\n      0x0de0b6b3a7640000\n        /* \"contracts/DeFi/DeFiStaking.sol\":1985:2009  s_userRewardPerTokenPaid */\n      0x05\n        /* \"contracts/DeFi/DeFiStaking.sol\":1985:2018  s_userRewardPerTokenPaid[account] */\n      0x00\n        /* \"contracts/DeFi/DeFiStaking.sol\":2010:2017  account */\n      dup6\n        /* \"contracts/DeFi/DeFiStaking.sol\":1985:2018  s_userRewardPerTokenPaid[account] */\n      0xffffffffffffffffffffffffffffffffffffffff\n      and\n      0xffffffffffffffffffffffffffffffffffffffff\n      and\n      dup2\n      mstore\n      0x20\n      add\n      swap1\n      dup2\n      mstore\n      0x20\n      add\n      0x00\n      keccak256\n      sload\n        /* \"contracts/DeFi/DeFiStaking.sol\":1966:1982  rewardPerToken() */\n      tag_71\n        /* \"contracts/DeFi/DeFiStaking.sol\":1966:1980  rewardPerToken */\n      tag_64\n        /* \"contracts/DeFi/DeFiStaking.sol\":1966:1982  rewardPerToken() */\n      jump\t// in\n    tag_71:\n        /* \"contracts/DeFi/DeFiStaking.sol\":1966:2018  rewardPerToken() - s_userRewardPerTokenPaid[account] */\n      tag_72\n      swap2\n      swap1\n      tag_73\n      jump\t// in\n    tag_72:\n        /* \"contracts/DeFi/DeFiStaking.sol\":1943:1953  s_balances */\n      0x08\n        /* \"contracts/DeFi/DeFiStaking.sol\":1943:1962  s_balances[account] */\n      0x00\n        /* \"contracts/DeFi/DeFiStaking.sol\":1954:1961  account */\n      dup7\n        /* \"contracts/DeFi/DeFiStaking.sol\":1943:1962  s_balances[account] */\n      0xffffffffffffffffffffffffffffffffffffffff\n      and\n      0xffffffffffffffffffffffffffffffffffffffff\n      and\n      dup2\n      mstore\n      0x20\n      add\n      swap1\n      dup2\n      mstore\n      0x20\n      add\n      0x00\n      keccak256\n      sload\n        /* \"contracts/DeFi/DeFiStaking.sol\":1943:2019  s_balances[account] * (rewardPerToken() - s_userRewardPerTokenPaid[account]) */\n      tag_74\n      swap2\n      swap1\n      tag_75\n      jump\t// in\n    tag_74:\n        /* \"contracts/DeFi/DeFiStaking.sol\":1942:2043  (s_balances[account] * (rewardPerToken() - s_userRewardPerTokenPaid[account])) /... */\n      tag_76\n      swap2\n      swap1\n      tag_77\n      jump\t// in\n    tag_76:\n        /* \"contracts/DeFi/DeFiStaking.sol\":1941:2065  ((s_balances[account] * (rewardPerToken() - s_userRewardPerTokenPaid[account])) /... */\n      tag_78\n      swap2\n      swap1\n      tag_79\n      jump\t// in\n    tag_78:\n        /* \"contracts/DeFi/DeFiStaking.sol\":1922:2065  return... */\n      swap1\n      pop\n        /* \"contracts/DeFi/DeFiStaking.sol\":1849:2072  function earned(address account) public view returns (uint256) {... */\n      swap2\n      swap1\n      pop\n      jump\t// out\n        /* \"contracts/DeFi/DeFiStaking.sol\":341:369  IERC20 public s_rewardsToken */\n    tag_27:\n      0x01\n      0x00\n      swap1\n      sload\n      swap1\n      0x0100\n      exp\n      swap1\n      div\n      0xffffffffffffffffffffffffffffffffffffffff\n      and\n      dup2\n      jump\t// out\n        /* \"contracts/DeFi/DeFiStaking.sol\":2716:3066  function withdraw(uint256 amount) external updateReward(msg.sender) nonReentrant {... */\n    tag_33:\n        /* \"contracts/DeFi/DeFiStaking.sol\":2772:2782  msg.sender */\n      caller\n        /* \"contracts/DeFi/DeFiStaking.sol\":3640:3656  rewardPerToken() */\n      tag_81\n        /* \"contracts/DeFi/DeFiStaking.sol\":3640:3654  rewardPerToken */\n      tag_64\n        /* \"contracts/DeFi/DeFiStaking.sol\":3640:3656  rewardPerToken() */\n      jump\t// in\n    tag_81:\n        /* \"contracts/DeFi/DeFiStaking.sol\":3615:3637  s_rewardPerTokenStored */\n      0x04\n        /* \"contracts/DeFi/DeFiStaking.sol\":3615:3656  s_rewardPerTokenStored = rewardPerToken() */\n      dup2\n      swap1\n      sstore\n      pop\n        /* \"contracts/DeFi/DeFiStaking.sol\":3685:3700  block.timestamp */\n      timestamp\n        /* \"contracts/DeFi/DeFiStaking.sol\":3666:3682  s_lastUpdateTime */\n      0x03\n        /* \"contracts/DeFi/DeFiStaking.sol\":3666:3700  s_lastUpdateTime = block.timestamp */\n      dup2\n      swap1\n      sstore\n      pop\n        /* \"contracts/DeFi/DeFiStaking.sol\":3731:3746  earned(account) */\n      tag_82\n        /* \"contracts/DeFi/DeFiStaking.sol\":3738:3745  account */\n      dup2\n        /* \"contracts/DeFi/DeFiStaking.sol\":3731:3737  earned */\n      tag_23\n        /* \"contracts/DeFi/DeFiStaking.sol\":3731:3746  earned(account) */\n      jump\t// in\n    tag_82:\n        /* \"contracts/DeFi/DeFiStaking.sol\":3710:3719  s_rewards */\n      0x06\n        /* \"contracts/DeFi/DeFiStaking.sol\":3710:3728  s_rewards[account] */\n      0x00\n        /* \"contracts/DeFi/DeFiStaking.sol\":3720:3727  account */\n      dup4\n        /* \"contracts/DeFi/DeFiStaking.sol\":3710:3728  s_rewards[account] */\n      0xffffffffffffffffffffffffffffffffffffffff\n      and\n      0xffffffffffffffffffffffffffffffffffffffff\n      and\n      dup2\n      mstore\n      0x20\n      add\n      swap1\n      dup2\n      mstore\n      0x20\n      add\n      0x00\n      keccak256\n        /* \"contracts/DeFi/DeFiStaking.sol\":3710:3746  s_rewards[account] = earned(account) */\n      dup2\n      swap1\n      sstore\n      pop\n        /* \"contracts/DeFi/DeFiStaking.sol\":3792:3814  s_rewardPerTokenStored */\n      sload(0x04)\n        /* \"contracts/DeFi/DeFiStaking.sol\":3756:3780  s_userRewardPerTokenPaid */\n      0x05\n        /* \"contracts/DeFi/DeFiStaking.sol\":3756:3789  s_userRewardPerTokenPaid[account] */\n      0x00\n        /* \"contracts/DeFi/DeFiStaking.sol\":3781:3788  account */\n      dup4\n        /* \"contracts/DeFi/DeFiStaking.sol\":3756:3789  s_userRewardPerTokenPaid[account] */\n      0xffffffffffffffffffffffffffffffffffffffff\n      and\n      0xffffffffffffffffffffffffffffffffffffffff\n      and\n      dup2\n      mstore\n      0x20\n      add\n      swap1\n      dup2\n      mstore\n      0x20\n      add\n      0x00\n      keccak256\n        /* \"contracts/DeFi/DeFiStaking.sol\":3756:3814  s_userRewardPerTokenPaid[account] = s_rewardPerTokenStored */\n      dup2\n      swap1\n      sstore\n      pop\n        /* \"@openzeppelin/contracts/security/ReentrancyGuard.sol\":1744:1745  2 */\n      0x02\n        /* \"@openzeppelin/contracts/security/ReentrancyGuard.sol\":2325:2332  _status */\n      sload(0x00)\n        /* \"@openzeppelin/contracts/security/ReentrancyGuard.sol\":2325:2344  _status != _ENTERED */\n      eq\n      iszero\n        /* \"@openzeppelin/contracts/security/ReentrancyGuard.sol\":2317:2380  require(_status != _ENTERED, \"ReentrancyGuard: reentrant call\") */\n      tag_84\n      jumpi\n      mload(0x40)\n      0x08c379a000000000000000000000000000000000000000000000000000000000\n      dup2\n      mstore\n      0x04\n      add\n      tag_85\n      swap1\n      tag_86\n      jump\t// in\n    tag_85:\n      mload(0x40)\n      dup1\n      swap2\n      sub\n      swap1\n      revert\n    tag_84:\n        /* \"@openzeppelin/contracts/security/ReentrancyGuard.sol\":1744:1745  2 */\n      0x02\n        /* \"@openzeppelin/contracts/security/ReentrancyGuard.sol\":2455:2462  _status */\n      0x00\n        /* \"@openzeppelin/contracts/security/ReentrancyGuard.sol\":2455:2473  _status = _ENTERED */\n      dup2\n      swap1\n      sstore\n      pop\n        /* \"contracts/DeFi/DeFiStaking.sol\":2824:2830  amount */\n      dup2\n        /* \"contracts/DeFi/DeFiStaking.sol\":2807:2820  s_totalSupply */\n      0x07\n      0x00\n        /* \"contracts/DeFi/DeFiStaking.sol\":2807:2830  s_totalSupply -= amount */\n      dup3\n      dup3\n      sload\n      tag_88\n      swap2\n      swap1\n      tag_73\n      jump\t// in\n    tag_88:\n      swap3\n      pop\n      pop\n      dup2\n      swap1\n      sstore\n      pop\n        /* \"contracts/DeFi/DeFiStaking.sol\":2866:2872  amount */\n      dup2\n        /* \"contracts/DeFi/DeFiStaking.sol\":2840:2850  s_balances */\n      0x08\n        /* \"contracts/DeFi/DeFiStaking.sol\":2840:2862  s_balances[msg.sender] */\n      0x00\n        /* \"contracts/DeFi/DeFiStaking.sol\":2851:2861  msg.sender */\n      caller\n        /* \"contracts/DeFi/DeFiStaking.sol\":2840:2862  s_balances[msg.sender] */\n      0xffffffffffffffffffffffffffffffffffffffff\n      and\n      0xffffffffffffffffffffffffffffffffffffffff\n      and\n      dup2\n      mstore\n      0x20\n      add\n      swap1\n      dup2\n      mstore\n      0x20\n      add\n      0x00\n      keccak256\n      0x00\n        /* \"contracts/DeFi/DeFiStaking.sol\":2840:2872  s_balances[msg.sender] -= amount */\n      dup3\n      dup3\n      sload\n      tag_89\n      swap2\n      swap1\n      tag_73\n      jump\t// in\n    tag_89:\n      swap3\n      pop\n      pop\n      dup2\n      swap1\n      sstore\n      pop\n        /* \"contracts/DeFi/DeFiStaking.sol\":2913:2919  amount */\n      dup2\n        /* \"contracts/DeFi/DeFiStaking.sol\":2901:2911  msg.sender */\n      caller\n        /* \"contracts/DeFi/DeFiStaking.sol\":2887:2920  WithdrewStake(msg.sender, amount) */\n      0xffffffffffffffffffffffffffffffffffffffff\n      and\n      0x4cb6da433ea55f6e302b7bdbfeed740816a42301cde7f5bac5dff2b340376374\n      mload(0x40)\n      mload(0x40)\n      dup1\n      swap2\n      sub\n      swap1\n      log3\n        /* \"contracts/DeFi/DeFiStaking.sol\":2930:2942  bool success */\n      0x00\n        /* \"contracts/DeFi/DeFiStaking.sol\":2945:2959  s_stakingToken */\n      0x02\n      0x00\n      swap1\n      sload\n      swap1\n      0x0100\n      exp\n      swap1\n      div\n      0xffffffffffffffffffffffffffffffffffffffff\n      and\n        /* \"contracts/DeFi/DeFiStaking.sol\":2945:2968  s_stakingToken.transfer */\n      0xffffffffffffffffffffffffffffffffffffffff\n      and\n      0xa9059cbb\n        /* \"contracts/DeFi/DeFiStaking.sol\":2969:2979  msg.sender */\n      caller\n        /* \"contracts/DeFi/DeFiStaking.sol\":2981:2987  amount */\n      dup6\n        /* \"contracts/DeFi/DeFiStaking.sol\":2945:2988  s_stakingToken.transfer(msg.sender, amount) */\n      mload(0x40)\n      dup4\n      0xffffffff\n      and\n      0xe0\n      shl\n      dup2\n      mstore\n      0x04\n      add\n      tag_90\n      swap3\n      swap2\n      swap1\n      tag_91\n      jump\t// in\n    tag_90:\n      0x20\n      mload(0x40)\n      dup1\n      dup4\n      sub\n      dup2\n      0x00\n      dup8\n      dup1\n      extcodesize\n      iszero\n      dup1\n      iszero\n      tag_92\n      jumpi\n      0x00\n      dup1\n      revert\n    tag_92:\n      pop\n      gas\n      call\n      iszero\n      dup1\n      iszero\n      tag_94\n      jumpi\n      returndatasize\n      0x00\n      dup1\n      returndatacopy\n      revert(0x00, returndatasize)\n    tag_94:\n      pop\n      pop\n      pop\n      pop\n      mload(0x40)\n      returndatasize\n      not(0x1f)\n      0x1f\n      dup3\n      add\n      and\n      dup3\n      add\n      dup1\n      0x40\n      mstore\n      pop\n      dup2\n      add\n      swap1\n      tag_95\n      swap2\n      swap1\n      tag_96\n      jump\t// in\n    tag_95:\n        /* \"contracts/DeFi/DeFiStaking.sol\":2930:2988  bool success = s_stakingToken.transfer(msg.sender, amount) */\n      swap1\n      pop\n        /* \"contracts/DeFi/DeFiStaking.sol\":3003:3010  success */\n      dup1\n        /* \"contracts/DeFi/DeFiStaking.sol\":2998:3060  if (!success) {... */\n      tag_97\n      jumpi\n        /* \"contracts/DeFi/DeFiStaking.sol\":3033:3049  TransferFailed() */\n      mload(0x40)\n      0x90b8ec1800000000000000000000000000000000000000000000000000000000\n      dup2\n      mstore\n      0x04\n      add\n      mload(0x40)\n      dup1\n      swap2\n      sub\n      swap1\n      revert\n        /* \"contracts/DeFi/DeFiStaking.sol\":2998:3060  if (!success) {... */\n    tag_97:\n        /* \"contracts/DeFi/DeFiStaking.sol\":2797:3066  {... */\n      pop\n        /* \"@openzeppelin/contracts/security/ReentrancyGuard.sol\":1701:1702  1 */\n      0x01\n        /* \"@openzeppelin/contracts/security/ReentrancyGuard.sol\":2628:2635  _status */\n      0x00\n        /* \"@openzeppelin/contracts/security/ReentrancyGuard.sol\":2628:2650  _status = _NOT_ENTERED */\n      dup2\n      swap1\n      sstore\n      pop\n        /* \"contracts/DeFi/DeFiStaking.sol\":2716:3066  function withdraw(uint256 amount) external updateReward(msg.sender) nonReentrant {... */\n      pop\n      pop\n      jump\t// out\n        /* \"contracts/DeFi/DeFiStaking.sol\":747:784  uint256 public s_rewardPerTokenStored */\n    tag_35:\n      sload(0x04)\n      dup2\n      jump\t// out\n        /* \"contracts/DeFi/DeFiStaking.sol\":4059:4168  function getStaked(address account) public view returns (uint256) {... */\n    tag_39:\n        /* \"contracts/DeFi/DeFiStaking.sol\":4116:4123  uint256 */\n      0x00\n        /* \"contracts/DeFi/DeFiStaking.sol\":4142:4152  s_balances */\n      0x08\n        /* \"contracts/DeFi/DeFiStaking.sol\":4142:4161  s_balances[account] */\n      0x00\n        /* \"contracts/DeFi/DeFiStaking.sol\":4153:4160  account */\n      dup4\n        /* \"contracts/DeFi/DeFiStaking.sol\":4142:4161  s_balances[account] */\n      0xffffffffffffffffffffffffffffffffffffffff\n      and\n      0xffffffffffffffffffffffffffffffffffffffff\n      and\n      dup2\n      mstore\n      0x20\n      add\n      swap1\n      dup2\n      mstore\n      0x20\n      add\n      0x00\n      keccak256\n      sload\n        /* \"contracts/DeFi/DeFiStaking.sol\":4135:4161  return s_balances[account] */\n      swap1\n      pop\n        /* \"contracts/DeFi/DeFiStaking.sol\":4059:4168  function getStaked(address account) public view returns (uint256) {... */\n      swap2\n      swap1\n      pop\n      jump\t// out\n        /* \"contracts/DeFi/DeFiStaking.sol\":663:704  uint256 public constant REWARD_RATE = 100 */\n    tag_42:\n        /* \"contracts/DeFi/DeFiStaking.sol\":701:704  100 */\n      0x64\n        /* \"contracts/DeFi/DeFiStaking.sol\":663:704  uint256 public constant REWARD_RATE = 100 */\n      dup2\n      jump\t// out\n        /* \"contracts/DeFi/DeFiStaking.sol\":710:741  uint256 public s_lastUpdateTime */\n    tag_45:\n      sload(0x03)\n      dup2\n      jump\t// out\n        /* \"contracts/DeFi/DeFiStaking.sol\":2184:2600  function stake(uint256 amount)... */\n    tag_49:\n        /* \"contracts/DeFi/DeFiStaking.sol\":2253:2263  msg.sender */\n      caller\n        /* \"contracts/DeFi/DeFiStaking.sol\":3640:3656  rewardPerToken() */\n      tag_100\n        /* \"contracts/DeFi/DeFiStaking.sol\":3640:3654  rewardPerToken */\n      tag_64\n        /* \"contracts/DeFi/DeFiStaking.sol\":3640:3656  rewardPerToken() */\n      jump\t// in\n    tag_100:\n        /* \"contracts/DeFi/DeFiStaking.sol\":3615:3637  s_rewardPerTokenStored */\n      0x04\n        /* \"contracts/DeFi/DeFiStaking.sol\":3615:3656  s_rewardPerTokenStored = rewardPerToken() */\n      dup2\n      swap1\n      sstore\n      pop\n        /* \"contracts/DeFi/DeFiStaking.sol\":3685:3700  block.timestamp */\n      timestamp\n        /* \"contracts/DeFi/DeFiStaking.sol\":3666:3682  s_lastUpdateTime */\n      0x03\n        /* \"contracts/DeFi/DeFiStaking.sol\":3666:3700  s_lastUpdateTime = block.timestamp */\n      dup2\n      swap1\n      sstore\n      pop\n        /* \"contracts/DeFi/DeFiStaking.sol\":3731:3746  earned(account) */\n      tag_101\n        /* \"contracts/DeFi/DeFiStaking.sol\":3738:3745  account */\n      dup2\n        /* \"contracts/DeFi/DeFiStaking.sol\":3731:3737  earned */\n      tag_23\n        /* \"contracts/DeFi/DeFiStaking.sol\":3731:3746  earned(account) */\n      jump\t// in\n    tag_101:\n        /* \"contracts/DeFi/DeFiStaking.sol\":3710:3719  s_rewards */\n      0x06\n        /* \"contracts/DeFi/DeFiStaking.sol\":3710:3728  s_rewards[account] */\n      0x00\n        /* \"contracts/DeFi/DeFiStaking.sol\":3720:3727  account */\n      dup4\n        /* \"contracts/DeFi/DeFiStaking.sol\":3710:3728  s_rewards[account] */\n      0xffffffffffffffffffffffffffffffffffffffff\n      and\n      0xffffffffffffffffffffffffffffffffffffffff\n      and\n      dup2\n      mstore\n      0x20\n      add\n      swap1\n      dup2\n      mstore\n      0x20\n      add\n      0x00\n      keccak256\n        /* \"contracts/DeFi/DeFiStaking.sol\":3710:3746  s_rewards[account] = earned(account) */\n      dup2\n      swap1\n      sstore\n      pop\n        /* \"contracts/DeFi/DeFiStaking.sol\":3792:3814  s_rewardPerTokenStored */\n      sload(0x04)\n        /* \"contracts/DeFi/DeFiStaking.sol\":3756:3780  s_userRewardPerTokenPaid */\n      0x05\n        /* \"contracts/DeFi/DeFiStaking.sol\":3756:3789  s_userRewardPerTokenPaid[account] */\n      0x00\n        /* \"contracts/DeFi/DeFiStaking.sol\":3781:3788  account */\n      dup4\n        /* \"contracts/DeFi/DeFiStaking.sol\":3756:3789  s_userRewardPerTokenPaid[account] */\n      0xffffffffffffffffffffffffffffffffffffffff\n      and\n      0xffffffffffffffffffffffffffffffffffffffff\n      and\n      dup2\n      mstore\n      0x20\n      add\n      swap1\n      dup2\n      mstore\n      0x20\n      add\n      0x00\n      keccak256\n        /* \"contracts/DeFi/DeFiStaking.sol\":3756:3814  s_userRewardPerTokenPaid[account] = s_rewardPerTokenStored */\n      dup2\n      swap1\n      sstore\n      pop\n        /* \"@openzeppelin/contracts/security/ReentrancyGuard.sol\":1744:1745  2 */\n      0x02\n        /* \"@openzeppelin/contracts/security/ReentrancyGuard.sol\":2325:2332  _status */\n      sload(0x00)\n        /* \"@openzeppelin/contracts/security/ReentrancyGuard.sol\":2325:2344  _status != _ENTERED */\n      eq\n      iszero\n        /* \"@openzeppelin/contracts/security/ReentrancyGuard.sol\":2317:2380  require(_status != _ENTERED, \"ReentrancyGuard: reentrant call\") */\n      tag_103\n      jumpi\n      mload(0x40)\n      0x08c379a000000000000000000000000000000000000000000000000000000000\n      dup2\n      mstore\n      0x04\n      add\n      tag_104\n      swap1\n      tag_86\n      jump\t// in\n    tag_104:\n      mload(0x40)\n      dup1\n      swap2\n      sub\n      swap1\n      revert\n    tag_103:\n        /* \"@openzeppelin/contracts/security/ReentrancyGuard.sol\":1744:1745  2 */\n      0x02\n        /* \"@openzeppelin/contracts/security/ReentrancyGuard.sol\":2455:2462  _status */\n      0x00\n        /* \"@openzeppelin/contracts/security/ReentrancyGuard.sol\":2455:2473  _status = _ENTERED */\n      dup2\n      swap1\n      sstore\n      pop\n        /* \"contracts/DeFi/DeFiStaking.sol\":2307:2313  amount */\n      dup2\n        /* \"contracts/DeFi/DeFiStaking.sol\":3900:3901  0 */\n      0x00\n        /* \"contracts/DeFi/DeFiStaking.sol\":3890:3896  amount */\n      dup2\n        /* \"contracts/DeFi/DeFiStaking.sol\":3890:3901  amount == 0 */\n      eq\n        /* \"contracts/DeFi/DeFiStaking.sol\":3886:3954  if (amount == 0) {... */\n      iszero\n      tag_106\n      jumpi\n        /* \"contracts/DeFi/DeFiStaking.sol\":3924:3943  NeedsMoreThanZero() */\n      mload(0x40)\n      0xf45911f000000000000000000000000000000000000000000000000000000000\n      dup2\n      mstore\n      0x04\n      add\n      mload(0x40)\n      dup1\n      swap2\n      sub\n      swap1\n      revert\n        /* \"contracts/DeFi/DeFiStaking.sol\":3886:3954  if (amount == 0) {... */\n    tag_106:\n        /* \"contracts/DeFi/DeFiStaking.sol\":2346:2352  amount */\n      dup3\n        /* \"contracts/DeFi/DeFiStaking.sol\":2329:2342  s_totalSupply */\n      0x07\n      0x00\n        /* \"contracts/DeFi/DeFiStaking.sol\":2329:2352  s_totalSupply += amount */\n      dup3\n      dup3\n      sload\n      tag_108\n      swap2\n      swap1\n      tag_79\n      jump\t// in\n    tag_108:\n      swap3\n      pop\n      pop\n      dup2\n      swap1\n      sstore\n      pop\n        /* \"contracts/DeFi/DeFiStaking.sol\":2388:2394  amount */\n      dup3\n        /* \"contracts/DeFi/DeFiStaking.sol\":2362:2372  s_balances */\n      0x08\n        /* \"contracts/DeFi/DeFiStaking.sol\":2362:2384  s_balances[msg.sender] */\n      0x00\n        /* \"contracts/DeFi/DeFiStaking.sol\":2373:2383  msg.sender */\n      caller\n        /* \"contracts/DeFi/DeFiStaking.sol\":2362:2384  s_balances[msg.sender] */\n      0xffffffffffffffffffffffffffffffffffffffff\n      and\n      0xffffffffffffffffffffffffffffffffffffffff\n      and\n      dup2\n      mstore\n      0x20\n      add\n      swap1\n      dup2\n      mstore\n      0x20\n      add\n      0x00\n      keccak256\n      0x00\n        /* \"contracts/DeFi/DeFiStaking.sol\":2362:2394  s_balances[msg.sender] += amount */\n      dup3\n      dup3\n      sload\n      tag_109\n      swap2\n      swap1\n      tag_79\n      jump\t// in\n    tag_109:\n      swap3\n      pop\n      pop\n      dup2\n      swap1\n      sstore\n      pop\n        /* \"contracts/DeFi/DeFiStaking.sol\":2428:2434  amount */\n      dup3\n        /* \"contracts/DeFi/DeFiStaking.sol\":2416:2426  msg.sender */\n      caller\n        /* \"contracts/DeFi/DeFiStaking.sol\":2409:2435  Staked(msg.sender, amount) */\n      0xffffffffffffffffffffffffffffffffffffffff\n      and\n      0x9e71bc8eea02a63969f509818f2dafb9254532904319f9dbda79b67bd34a5f3d\n      mload(0x40)\n      mload(0x40)\n      dup1\n      swap2\n      sub\n      swap1\n      log3\n        /* \"contracts/DeFi/DeFiStaking.sol\":2445:2457  bool success */\n      0x00\n        /* \"contracts/DeFi/DeFiStaking.sol\":2460:2474  s_stakingToken */\n      0x02\n      0x00\n      swap1\n      sload\n      swap1\n      0x0100\n      exp\n      swap1\n      div\n      0xffffffffffffffffffffffffffffffffffffffff\n      and\n        /* \"contracts/DeFi/DeFiStaking.sol\":2460:2487  s_stakingToken.transferFrom */\n      0xffffffffffffffffffffffffffffffffffffffff\n      and\n      0x23b872dd\n        /* \"contracts/DeFi/DeFiStaking.sol\":2488:2498  msg.sender */\n      caller\n        /* \"contracts/DeFi/DeFiStaking.sol\":2508:2512  this */\n      address\n        /* \"contracts/DeFi/DeFiStaking.sol\":2515:2521  amount */\n      dup8\n        /* \"contracts/DeFi/DeFiStaking.sol\":2460:2522  s_stakingToken.transferFrom(msg.sender, address(this), amount) */\n      mload(0x40)\n      dup5\n      0xffffffff\n      and\n      0xe0\n      shl\n      dup2\n      mstore\n      0x04\n      add\n      tag_110\n      swap4\n      swap3\n      swap2\n      swap1\n      tag_111\n      jump\t// in\n    tag_110:\n      0x20\n      mload(0x40)\n      dup1\n      dup4\n      sub\n      dup2\n      0x00\n      dup8\n      dup1\n      extcodesize\n      iszero\n      dup1\n      iszero\n      tag_112\n      jumpi\n      0x00\n      dup1\n      revert\n    tag_112:\n      pop\n      gas\n      call\n      iszero\n      dup1\n      iszero\n      tag_114\n      jumpi\n      returndatasize\n      0x00\n      dup1\n      returndatacopy\n      revert(0x00, returndatasize)\n    tag_114:\n      pop\n      pop\n      pop\n      pop\n      mload(0x40)\n      returndatasize\n      not(0x1f)\n      0x1f\n      dup3\n      add\n      and\n      dup3\n      add\n      dup1\n      0x40\n      mstore\n      pop\n      dup2\n      add\n      swap1\n      tag_115\n      swap2\n      swap1\n      tag_96\n      jump\t// in\n    tag_115:\n        /* \"contracts/DeFi/DeFiStaking.sol\":2445:2522  bool success = s_stakingToken.transferFrom(msg.sender, address(this), amount) */\n      swap1\n      pop\n        /* \"contracts/DeFi/DeFiStaking.sol\":2537:2544  success */\n      dup1\n        /* \"contracts/DeFi/DeFiStaking.sol\":2532:2594  if (!success) {... */\n      tag_116\n      jumpi\n        /* \"contracts/DeFi/DeFiStaking.sol\":2567:2583  TransferFailed() */\n      mload(0x40)\n      0x90b8ec1800000000000000000000000000000000000000000000000000000000\n      dup2\n      mstore\n      0x04\n      add\n      mload(0x40)\n      dup1\n      swap2\n      sub\n      swap1\n      revert\n        /* \"contracts/DeFi/DeFiStaking.sol\":2532:2594  if (!success) {... */\n    tag_116:\n        /* \"contracts/DeFi/DeFiStaking.sol\":2319:2600  {... */\n      pop\n        /* \"@openzeppelin/contracts/security/ReentrancyGuard.sol\":2484:2485  _ */\n      pop\n        /* \"@openzeppelin/contracts/security/ReentrancyGuard.sol\":1701:1702  1 */\n      0x01\n        /* \"@openzeppelin/contracts/security/ReentrancyGuard.sol\":2628:2635  _status */\n      0x00\n        /* \"@openzeppelin/contracts/security/ReentrancyGuard.sol\":2628:2650  _status = _NOT_ENTERED */\n      dup2\n      swap1\n      sstore\n      pop\n        /* \"contracts/DeFi/DeFiStaking.sol\":2184:2600  function stake(uint256 amount)... */\n      pop\n      pop\n      jump\t// out\n        /* \"contracts/DeFi/DeFiStaking.sol\":942:987  mapping(address => uint256) public s_balances */\n    tag_52:\n      mstore(0x20, 0x08)\n      dup1\n      0x00\n      mstore\n      keccak256(0x00, 0x40)\n      0x00\n      swap2\n      pop\n      swap1\n      pop\n      sload\n      dup2\n      jump\t// out\n        /* \"contracts/DeFi/DeFiStaking.sol\":375:403  IERC20 public s_stakingToken */\n    tag_55:\n      0x02\n      0x00\n      swap1\n      sload\n      swap1\n      0x0100\n      exp\n      swap1\n      div\n      0xffffffffffffffffffffffffffffffffffffffff\n      and\n      dup2\n      jump\t// out\n        /* \"contracts/DeFi/DeFiStaking.sol\":3128:3476  function claimReward() external updateReward(msg.sender) nonReentrant {... */\n    tag_58:\n        /* \"contracts/DeFi/DeFiStaking.sol\":3173:3183  msg.sender */\n      caller\n        /* \"contracts/DeFi/DeFiStaking.sol\":3640:3656  rewardPerToken() */\n      tag_118\n        /* \"contracts/DeFi/DeFiStaking.sol\":3640:3654  rewardPerToken */\n      tag_64\n        /* \"contracts/DeFi/DeFiStaking.sol\":3640:3656  rewardPerToken() */\n      jump\t// in\n    tag_118:\n        /* \"contracts/DeFi/DeFiStaking.sol\":3615:3637  s_rewardPerTokenStored */\n      0x04\n        /* \"contracts/DeFi/DeFiStaking.sol\":3615:3656  s_rewardPerTokenStored = rewardPerToken() */\n      dup2\n      swap1\n      sstore\n      pop\n        /* \"contracts/DeFi/DeFiStaking.sol\":3685:3700  block.timestamp */\n      timestamp\n        /* \"contracts/DeFi/DeFiStaking.sol\":3666:3682  s_lastUpdateTime */\n      0x03\n        /* \"contracts/DeFi/DeFiStaking.sol\":3666:3700  s_lastUpdateTime = block.timestamp */\n      dup2\n      swap1\n      sstore\n      pop\n        /* \"contracts/DeFi/DeFiStaking.sol\":3731:3746  earned(account) */\n      tag_119\n        /* \"contracts/DeFi/DeFiStaking.sol\":3738:3745  account */\n      dup2\n        /* \"contracts/DeFi/DeFiStaking.sol\":3731:3737  earned */\n      tag_23\n        /* \"contracts/DeFi/DeFiStaking.sol\":3731:3746  earned(account) */\n      jump\t// in\n    tag_119:\n        /* \"contracts/DeFi/DeFiStaking.sol\":3710:3719  s_rewards */\n      0x06\n        /* \"contracts/DeFi/DeFiStaking.sol\":3710:3728  s_rewards[account] */\n      0x00\n        /* \"contracts/DeFi/DeFiStaking.sol\":3720:3727  account */\n      dup4\n        /* \"contracts/DeFi/DeFiStaking.sol\":3710:3728  s_rewards[account] */\n      0xffffffffffffffffffffffffffffffffffffffff\n      and\n      0xffffffffffffffffffffffffffffffffffffffff\n      and\n      dup2\n      mstore\n      0x20\n      add\n      swap1\n      dup2\n      mstore\n      0x20\n      add\n      0x00\n      keccak256\n        /* \"contracts/DeFi/DeFiStaking.sol\":3710:3746  s_rewards[account] = earned(account) */\n      dup2\n      swap1\n      sstore\n      pop\n        /* \"contracts/DeFi/DeFiStaking.sol\":3792:3814  s_rewardPerTokenStored */\n      sload(0x04)\n        /* \"contracts/DeFi/DeFiStaking.sol\":3756:3780  s_userRewardPerTokenPaid */\n      0x05\n        /* \"contracts/DeFi/DeFiStaking.sol\":3756:3789  s_userRewardPerTokenPaid[account] */\n      0x00\n        /* \"contracts/DeFi/DeFiStaking.sol\":3781:3788  account */\n      dup4\n        /* \"contracts/DeFi/DeFiStaking.sol\":3756:3789  s_userRewardPerTokenPaid[account] */\n      0xffffffffffffffffffffffffffffffffffffffff\n      and\n      0xffffffffffffffffffffffffffffffffffffffff\n      and\n      dup2\n      mstore\n      0x20\n      add\n      swap1\n      dup2\n      mstore\n      0x20\n      add\n      0x00\n      keccak256\n        /* \"contracts/DeFi/DeFiStaking.sol\":3756:3814  s_userRewardPerTokenPaid[account] = s_rewardPerTokenStored */\n      dup2\n      swap1\n      sstore\n      pop\n        /* \"@openzeppelin/contracts/security/ReentrancyGuard.sol\":1744:1745  2 */\n      0x02\n        /* \"@openzeppelin/contracts/security/ReentrancyGuard.sol\":2325:2332  _status */\n      sload(0x00)\n        /* \"@openzeppelin/contracts/security/ReentrancyGuard.sol\":2325:2344  _status != _ENTERED */\n      eq\n      iszero\n        /* \"@openzeppelin/contracts/security/ReentrancyGuard.sol\":2317:2380  require(_status != _ENTERED, \"ReentrancyGuard: reentrant call\") */\n      tag_121\n      jumpi\n      mload(0x40)\n      0x08c379a000000000000000000000000000000000000000000000000000000000\n      dup2\n      mstore\n      0x04\n      add\n      tag_122\n      swap1\n      tag_86\n      jump\t// in\n    tag_122:\n      mload(0x40)\n      dup1\n      swap2\n      sub\n      swap1\n      revert\n    tag_121:\n        /* \"@openzeppelin/contracts/security/ReentrancyGuard.sol\":1744:1745  2 */\n      0x02\n        /* \"@openzeppelin/contracts/security/ReentrancyGuard.sol\":2455:2462  _status */\n      0x00\n        /* \"@openzeppelin/contracts/security/ReentrancyGuard.sol\":2455:2473  _status = _ENTERED */\n      dup2\n      swap1\n      sstore\n      pop\n        /* \"contracts/DeFi/DeFiStaking.sol\":3208:3222  uint256 reward */\n      0x00\n        /* \"contracts/DeFi/DeFiStaking.sol\":3225:3234  s_rewards */\n      0x06\n        /* \"contracts/DeFi/DeFiStaking.sol\":3225:3246  s_rewards[msg.sender] */\n      0x00\n        /* \"contracts/DeFi/DeFiStaking.sol\":3235:3245  msg.sender */\n      caller\n        /* \"contracts/DeFi/DeFiStaking.sol\":3225:3246  s_rewards[msg.sender] */\n      0xffffffffffffffffffffffffffffffffffffffff\n      and\n      0xffffffffffffffffffffffffffffffffffffffff\n      and\n      dup2\n      mstore\n      0x20\n      add\n      swap1\n      dup2\n      mstore\n      0x20\n      add\n      0x00\n      keccak256\n      sload\n        /* \"contracts/DeFi/DeFiStaking.sol\":3208:3246  uint256 reward = s_rewards[msg.sender] */\n      swap1\n      pop\n        /* \"contracts/DeFi/DeFiStaking.sol\":3280:3281  0 */\n      0x00\n        /* \"contracts/DeFi/DeFiStaking.sol\":3256:3265  s_rewards */\n      0x06\n        /* \"contracts/DeFi/DeFiStaking.sol\":3256:3277  s_rewards[msg.sender] */\n      0x00\n        /* \"contracts/DeFi/DeFiStaking.sol\":3266:3276  msg.sender */\n      caller\n        /* \"contracts/DeFi/DeFiStaking.sol\":3256:3277  s_rewards[msg.sender] */\n      0xffffffffffffffffffffffffffffffffffffffff\n      and\n      0xffffffffffffffffffffffffffffffffffffffff\n      and\n      dup2\n      mstore\n      0x20\n      add\n      swap1\n      dup2\n      mstore\n      0x20\n      add\n      0x00\n      keccak256\n        /* \"contracts/DeFi/DeFiStaking.sol\":3256:3281  s_rewards[msg.sender] = 0 */\n      dup2\n      swap1\n      sstore\n      pop\n        /* \"contracts/DeFi/DeFiStaking.sol\":3323:3329  reward */\n      dup1\n        /* \"contracts/DeFi/DeFiStaking.sol\":3311:3321  msg.sender */\n      caller\n        /* \"contracts/DeFi/DeFiStaking.sol\":3296:3330  RewardsClaimed(msg.sender, reward) */\n      0xffffffffffffffffffffffffffffffffffffffff\n      and\n      0xfc30cddea38e2bf4d6ea7d3f9ed3b6ad7f176419f4963bd81318067a4aee73fe\n      mload(0x40)\n      mload(0x40)\n      dup1\n      swap2\n      sub\n      swap1\n      log3\n        /* \"contracts/DeFi/DeFiStaking.sol\":3340:3352  bool success */\n      0x00\n        /* \"contracts/DeFi/DeFiStaking.sol\":3355:3369  s_rewardsToken */\n      0x01\n      0x00\n      swap1\n      sload\n      swap1\n      0x0100\n      exp\n      swap1\n      div\n      0xffffffffffffffffffffffffffffffffffffffff\n      and\n        /* \"contracts/DeFi/DeFiStaking.sol\":3355:3378  s_rewardsToken.transfer */\n      0xffffffffffffffffffffffffffffffffffffffff\n      and\n      0xa9059cbb\n        /* \"contracts/DeFi/DeFiStaking.sol\":3379:3389  msg.sender */\n      caller\n        /* \"contracts/DeFi/DeFiStaking.sol\":3391:3397  reward */\n      dup5\n        /* \"contracts/DeFi/DeFiStaking.sol\":3355:3398  s_rewardsToken.transfer(msg.sender, reward) */\n      mload(0x40)\n      dup4\n      0xffffffff\n      and\n      0xe0\n      shl\n      dup2\n      mstore\n      0x04\n      add\n      tag_124\n      swap3\n      swap2\n      swap1\n      tag_91\n      jump\t// in\n    tag_124:\n      0x20\n      mload(0x40)\n      dup1\n      dup4\n      sub\n      dup2\n      0x00\n      dup8\n      dup1\n      extcodesize\n      iszero\n      dup1\n      iszero\n      tag_125\n      jumpi\n      0x00\n      dup1\n      revert\n    tag_125:\n      pop\n      gas\n      call\n      iszero\n      dup1\n      iszero\n      tag_127\n      jumpi\n      returndatasize\n      0x00\n      dup1\n      returndatacopy\n      revert(0x00, returndatasize)\n    tag_127:\n      pop\n      pop\n      pop\n      pop\n      mload(0x40)\n      returndatasize\n      not(0x1f)\n      0x1f\n      dup3\n      add\n      and\n      dup3\n      add\n      dup1\n      0x40\n      mstore\n      pop\n      dup2\n      add\n      swap1\n      tag_128\n      swap2\n      swap1\n      tag_96\n      jump\t// in\n    tag_128:\n        /* \"contracts/DeFi/DeFiStaking.sol\":3340:3398  bool success = s_rewardsToken.transfer(msg.sender, reward) */\n      swap1\n      pop\n        /* \"contracts/DeFi/DeFiStaking.sol\":3413:3420  success */\n      dup1\n        /* \"contracts/DeFi/DeFiStaking.sol\":3408:3470  if (!success) {... */\n      tag_129\n      jumpi\n        /* \"contracts/DeFi/DeFiStaking.sol\":3443:3459  TransferFailed() */\n      mload(0x40)\n      0x90b8ec1800000000000000000000000000000000000000000000000000000000\n      dup2\n      mstore\n      0x04\n      add\n      mload(0x40)\n      dup1\n      swap2\n      sub\n      swap1\n      revert\n        /* \"contracts/DeFi/DeFiStaking.sol\":3408:3470  if (!success) {... */\n    tag_129:\n        /* \"contracts/DeFi/DeFiStaking.sol\":3198:3476  {... */\n      pop\n      pop\n        /* \"@openzeppelin/contracts/security/ReentrancyGuard.sol\":1701:1702  1 */\n      0x01\n        /* \"@openzeppelin/contracts/security/ReentrancyGuard.sol\":2628:2635  _status */\n      0x00\n        /* \"@openzeppelin/contracts/security/ReentrancyGuard.sol\":2628:2650  _status = _NOT_ENTERED */\n      dup2\n      swap1\n      sstore\n      pop\n        /* \"contracts/DeFi/DeFiStaking.sol\":3128:3476  function claimReward() external updateReward(msg.sender) nonReentrant {... */\n      pop\n      jump\t// out\n        /* \"contracts/DeFi/DeFiStaking.sol\":856:900  mapping(address => uint256) public s_rewards */\n    tag_61:\n      mstore(0x20, 0x06)\n      dup1\n      0x00\n      mstore\n      keccak256(0x00, 0x40)\n      0x00\n      swap2\n      pop\n      swap1\n      pop\n      sload\n      dup2\n      jump\t// out\n        /* \"contracts/DeFi/DeFiStaking.sol\":1485:1778  function rewardPerToken() public view returns (uint256) {... */\n    tag_64:\n        /* \"contracts/DeFi/DeFiStaking.sol\":1532:1539  uint256 */\n      0x00\n        /* \"contracts/DeFi/DeFiStaking.sol\":1572:1573  0 */\n      dup1\n        /* \"contracts/DeFi/DeFiStaking.sol\":1555:1568  s_totalSupply */\n      sload(0x07)\n        /* \"contracts/DeFi/DeFiStaking.sol\":1555:1573  s_totalSupply == 0 */\n      eq\n        /* \"contracts/DeFi/DeFiStaking.sol\":1551:1629  if (s_totalSupply == 0) {... */\n      iszero\n      tag_131\n      jumpi\n        /* \"contracts/DeFi/DeFiStaking.sol\":1596:1618  s_rewardPerTokenStored */\n      sload(0x04)\n        /* \"contracts/DeFi/DeFiStaking.sol\":1589:1618  return s_rewardPerTokenStored */\n      swap1\n      pop\n      jump(tag_130)\n        /* \"contracts/DeFi/DeFiStaking.sol\":1551:1629  if (s_totalSupply == 0) {... */\n    tag_131:\n        /* \"contracts/DeFi/DeFiStaking.sol\":1757:1770  s_totalSupply */\n      sload(0x07)\n        /* \"contracts/DeFi/DeFiStaking.sol\":1749:1753  1e18 */\n      0x0de0b6b3a7640000\n        /* \"contracts/DeFi/DeFiStaking.sol\":701:704  100 */\n      0x64\n        /* \"contracts/DeFi/DeFiStaking.sol\":1715:1731  s_lastUpdateTime */\n      sload(0x03)\n        /* \"contracts/DeFi/DeFiStaking.sol\":1697:1712  block.timestamp */\n      timestamp\n        /* \"contracts/DeFi/DeFiStaking.sol\":1697:1731  block.timestamp - s_lastUpdateTime */\n      tag_132\n      swap2\n      swap1\n      tag_73\n      jump\t// in\n    tag_132:\n        /* \"contracts/DeFi/DeFiStaking.sol\":1696:1746  (block.timestamp - s_lastUpdateTime) * REWARD_RATE */\n      tag_133\n      swap2\n      swap1\n      tag_75\n      jump\t// in\n    tag_133:\n        /* \"contracts/DeFi/DeFiStaking.sol\":1696:1753  (block.timestamp - s_lastUpdateTime) * REWARD_RATE * 1e18 */\n      tag_134\n      swap2\n      swap1\n      tag_75\n      jump\t// in\n    tag_134:\n        /* \"contracts/DeFi/DeFiStaking.sol\":1695:1770  ((block.timestamp - s_lastUpdateTime) * REWARD_RATE * 1e18) / s_totalSupply */\n      tag_135\n      swap2\n      swap1\n      tag_77\n      jump\t// in\n    tag_135:\n        /* \"contracts/DeFi/DeFiStaking.sol\":1657:1679  s_rewardPerTokenStored */\n      sload(0x04)\n        /* \"contracts/DeFi/DeFiStaking.sol\":1657:1771  s_rewardPerTokenStored +... */\n      tag_136\n      swap2\n      swap1\n      tag_79\n      jump\t// in\n    tag_136:\n        /* \"contracts/DeFi/DeFiStaking.sol\":1638:1771  return... */\n      swap1\n      pop\n        /* \"contracts/DeFi/DeFiStaking.sol\":1485:1778  function rewardPerToken() public view returns (uint256) {... */\n    tag_130:\n      swap1\n      jump\t// out\n        /* \"contracts/DeFi/DeFiStaking.sol\":791:850  mapping(address => uint256) public s_userRewardPerTokenPaid */\n    tag_68:\n      mstore(0x20, 0x05)\n      dup1\n      0x00\n      mstore\n      keccak256(0x00, 0x40)\n      0x00\n      swap2\n      pop\n      swap1\n      pop\n      sload\n      dup2\n      jump\t// out\n        /* \"#utility.yul\":7:146   */\n    tag_138:\n        /* \"#utility.yul\":53:58   */\n      0x00\n        /* \"#utility.yul\":91:97   */\n      dup2\n        /* \"#utility.yul\":78:98   */\n      calldataload\n        /* \"#utility.yul\":69:98   */\n      swap1\n      pop\n        /* \"#utility.yul\":107:140   */\n      tag_140\n        /* \"#utility.yul\":134:139   */\n      dup2\n        /* \"#utility.yul\":107:140   */\n      tag_141\n      jump\t// in\n    tag_140:\n        /* \"#utility.yul\":7:146   */\n      swap3\n      swap2\n      pop\n      pop\n      jump\t// out\n        /* \"#utility.yul\":152:289   */\n    tag_142:\n        /* \"#utility.yul\":206:211   */\n      0x00\n        /* \"#utility.yul\":237:243   */\n      dup2\n        /* \"#utility.yul\":231:244   */\n      mload\n        /* \"#utility.yul\":222:244   */\n      swap1\n      pop\n        /* \"#utility.yul\":253:283   */\n      tag_144\n        /* \"#utility.yul\":277:282   */\n      dup2\n        /* \"#utility.yul\":253:283   */\n      tag_145\n      jump\t// in\n    tag_144:\n        /* \"#utility.yul\":152:289   */\n      swap3\n      swap2\n      pop\n      pop\n      jump\t// out\n        /* \"#utility.yul\":295:434   */\n    tag_146:\n        /* \"#utility.yul\":341:346   */\n      0x00\n        /* \"#utility.yul\":379:385   */\n      dup2\n        /* \"#utility.yul\":366:386   */\n      calldataload\n        /* \"#utility.yul\":357:386   */\n      swap1\n      pop\n        /* \"#utility.yul\":395:428   */\n      tag_148\n        /* \"#utility.yul\":422:427   */\n      dup2\n        /* \"#utility.yul\":395:428   */\n      tag_149\n      jump\t// in\n    tag_148:\n        /* \"#utility.yul\":295:434   */\n      swap3\n      swap2\n      pop\n      pop\n      jump\t// out\n        /* \"#utility.yul\":440:769   */\n    tag_22:\n        /* \"#utility.yul\":499:505   */\n      0x00\n        /* \"#utility.yul\":548:550   */\n      0x20\n        /* \"#utility.yul\":536:545   */\n      dup3\n        /* \"#utility.yul\":527:534   */\n      dup5\n        /* \"#utility.yul\":523:546   */\n      sub\n        /* \"#utility.yul\":519:551   */\n      slt\n        /* \"#utility.yul\":516:635   */\n      iszero\n      tag_151\n      jumpi\n        /* \"#utility.yul\":554:633   */\n      tag_152\n      tag_153\n      jump\t// in\n    tag_152:\n        /* \"#utility.yul\":516:635   */\n    tag_151:\n        /* \"#utility.yul\":674:675   */\n      0x00\n        /* \"#utility.yul\":699:752   */\n      tag_154\n        /* \"#utility.yul\":744:751   */\n      dup5\n        /* \"#utility.yul\":735:741   */\n      dup3\n        /* \"#utility.yul\":724:733   */\n      dup6\n        /* \"#utility.yul\":720:742   */\n      add\n        /* \"#utility.yul\":699:752   */\n      tag_138\n      jump\t// in\n    tag_154:\n        /* \"#utility.yul\":689:752   */\n      swap2\n      pop\n        /* \"#utility.yul\":645:762   */\n      pop\n        /* \"#utility.yul\":440:769   */\n      swap3\n      swap2\n      pop\n      pop\n      jump\t// out\n        /* \"#utility.yul\":775:1120   */\n    tag_96:\n        /* \"#utility.yul\":842:848   */\n      0x00\n        /* \"#utility.yul\":891:893   */\n      0x20\n        /* \"#utility.yul\":879:888   */\n      dup3\n        /* \"#utility.yul\":870:877   */\n      dup5\n        /* \"#utility.yul\":866:889   */\n      sub\n        /* \"#utility.yul\":862:894   */\n      slt\n        /* \"#utility.yul\":859:978   */\n      iszero\n      tag_156\n      jumpi\n        /* \"#utility.yul\":897:976   */\n      tag_157\n      tag_153\n      jump\t// in\n    tag_157:\n        /* \"#utility.yul\":859:978   */\n    tag_156:\n        /* \"#utility.yul\":1017:1018   */\n      0x00\n        /* \"#utility.yul\":1042:1103   */\n      tag_158\n        /* \"#utility.yul\":1095:1102   */\n      dup5\n        /* \"#utility.yul\":1086:1092   */\n      dup3\n        /* \"#utility.yul\":1075:1084   */\n      dup6\n        /* \"#utility.yul\":1071:1093   */\n      add\n        /* \"#utility.yul\":1042:1103   */\n      tag_142\n      jump\t// in\n    tag_158:\n        /* \"#utility.yul\":1032:1103   */\n      swap2\n      pop\n        /* \"#utility.yul\":988:1113   */\n      pop\n        /* \"#utility.yul\":775:1120   */\n      swap3\n      swap2\n      pop\n      pop\n      jump\t// out\n        /* \"#utility.yul\":1126:1455   */\n    tag_32:\n        /* \"#utility.yul\":1185:1191   */\n      0x00\n        /* \"#utility.yul\":1234:1236   */\n      0x20\n        /* \"#utility.yul\":1222:1231   */\n      dup3\n        /* \"#utility.yul\":1213:1220   */\n      dup5\n        /* \"#utility.yul\":1209:1232   */\n      sub\n        /* \"#utility.yul\":1205:1237   */\n      slt\n        /* \"#utility.yul\":1202:1321   */\n      iszero\n      tag_160\n      jumpi\n        /* \"#utility.yul\":1240:1319   */\n      tag_161\n      tag_153\n      jump\t// in\n    tag_161:\n        /* \"#utility.yul\":1202:1321   */\n    tag_160:\n        /* \"#utility.yul\":1360:1361   */\n      0x00\n        /* \"#utility.yul\":1385:1438   */\n      tag_162\n        /* \"#utility.yul\":1430:1437   */\n      dup5\n        /* \"#utility.yul\":1421:1427   */\n      dup3\n        /* \"#utility.yul\":1410:1419   */\n      dup6\n        /* \"#utility.yul\":1406:1428   */\n      add\n        /* \"#utility.yul\":1385:1438   */\n      tag_146\n      jump\t// in\n    tag_162:\n        /* \"#utility.yul\":1375:1438   */\n      swap2\n      pop\n        /* \"#utility.yul\":1331:1448   */\n      pop\n        /* \"#utility.yul\":1126:1455   */\n      swap3\n      swap2\n      pop\n      pop\n      jump\t// out\n        /* \"#utility.yul\":1461:1579   */\n    tag_163:\n        /* \"#utility.yul\":1548:1572   */\n      tag_165\n        /* \"#utility.yul\":1566:1571   */\n      dup2\n        /* \"#utility.yul\":1548:1572   */\n      tag_166\n      jump\t// in\n    tag_165:\n        /* \"#utility.yul\":1543:1546   */\n      dup3\n        /* \"#utility.yul\":1536:1573   */\n      mstore\n        /* \"#utility.yul\":1461:1579   */\n      pop\n      pop\n      jump\t// out\n        /* \"#utility.yul\":1585:1744   */\n    tag_167:\n        /* \"#utility.yul\":1686:1737   */\n      tag_169\n        /* \"#utility.yul\":1731:1736   */\n      dup2\n        /* \"#utility.yul\":1686:1737   */\n      tag_170\n      jump\t// in\n    tag_169:\n        /* \"#utility.yul\":1681:1684   */\n      dup3\n        /* \"#utility.yul\":1674:1738   */\n      mstore\n        /* \"#utility.yul\":1585:1744   */\n      pop\n      pop\n      jump\t// out\n        /* \"#utility.yul\":1750:2116   */\n    tag_171:\n        /* \"#utility.yul\":1892:1895   */\n      0x00\n        /* \"#utility.yul\":1913:1980   */\n      tag_173\n        /* \"#utility.yul\":1977:1979   */\n      0x1f\n        /* \"#utility.yul\":1972:1975   */\n      dup4\n        /* \"#utility.yul\":1913:1980   */\n      tag_174\n      jump\t// in\n    tag_173:\n        /* \"#utility.yul\":1906:1980   */\n      swap2\n      pop\n        /* \"#utility.yul\":1989:2082   */\n      tag_175\n        /* \"#utility.yul\":2078:2081   */\n      dup3\n        /* \"#utility.yul\":1989:2082   */\n      tag_176\n      jump\t// in\n    tag_175:\n        /* \"#utility.yul\":2107:2109   */\n      0x20\n        /* \"#utility.yul\":2102:2105   */\n      dup3\n        /* \"#utility.yul\":2098:2110   */\n      add\n        /* \"#utility.yul\":2091:2110   */\n      swap1\n      pop\n        /* \"#utility.yul\":1750:2116   */\n      swap2\n      swap1\n      pop\n      jump\t// out\n        /* \"#utility.yul\":2122:2240   */\n    tag_177:\n        /* \"#utility.yul\":2209:2233   */\n      tag_179\n        /* \"#utility.yul\":2227:2232   */\n      dup2\n        /* \"#utility.yul\":2209:2233   */\n      tag_180\n      jump\t// in\n    tag_179:\n        /* \"#utility.yul\":2204:2207   */\n      dup3\n        /* \"#utility.yul\":2197:2234   */\n      mstore\n        /* \"#utility.yul\":2122:2240   */\n      pop\n      pop\n      jump\t// out\n        /* \"#utility.yul\":2246:2688   */\n    tag_111:\n        /* \"#utility.yul\":2395:2399   */\n      0x00\n        /* \"#utility.yul\":2433:2435   */\n      0x60\n        /* \"#utility.yul\":2422:2431   */\n      dup3\n        /* \"#utility.yul\":2418:2436   */\n      add\n        /* \"#utility.yul\":2410:2436   */\n      swap1\n      pop\n        /* \"#utility.yul\":2446:2517   */\n      tag_182\n        /* \"#utility.yul\":2514:2515   */\n      0x00\n        /* \"#utility.yul\":2503:2512   */\n      dup4\n        /* \"#utility.yul\":2499:2516   */\n      add\n        /* \"#utility.yul\":2490:2496   */\n      dup7\n        /* \"#utility.yul\":2446:2517   */\n      tag_163\n      jump\t// in\n    tag_182:\n        /* \"#utility.yul\":2527:2599   */\n      tag_183\n        /* \"#utility.yul\":2595:2597   */\n      0x20\n        /* \"#utility.yul\":2584:2593   */\n      dup4\n        /* \"#utility.yul\":2580:2598   */\n      add\n        /* \"#utility.yul\":2571:2577   */\n      dup6\n        /* \"#utility.yul\":2527:2599   */\n      tag_163\n      jump\t// in\n    tag_183:\n        /* \"#utility.yul\":2609:2681   */\n      tag_184\n        /* \"#utility.yul\":2677:2679   */\n      0x40\n        /* \"#utility.yul\":2666:2675   */\n      dup4\n        /* \"#utility.yul\":2662:2680   */\n      add\n        /* \"#utility.yul\":2653:2659   */\n      dup5\n        /* \"#utility.yul\":2609:2681   */\n      tag_177\n      jump\t// in\n    tag_184:\n        /* \"#utility.yul\":2246:2688   */\n      swap5\n      swap4\n      pop\n      pop\n      pop\n      pop\n      jump\t// out\n        /* \"#utility.yul\":2694:3026   */\n    tag_91:\n        /* \"#utility.yul\":2815:2819   */\n      0x00\n        /* \"#utility.yul\":2853:2855   */\n      0x40\n        /* \"#utility.yul\":2842:2851   */\n      dup3\n        /* \"#utility.yul\":2838:2856   */\n      add\n        /* \"#utility.yul\":2830:2856   */\n      swap1\n      pop\n        /* \"#utility.yul\":2866:2937   */\n      tag_186\n        /* \"#utility.yul\":2934:2935   */\n      0x00\n        /* \"#utility.yul\":2923:2932   */\n      dup4\n        /* \"#utility.yul\":2919:2936   */\n      add\n        /* \"#utility.yul\":2910:2916   */\n      dup6\n        /* \"#utility.yul\":2866:2937   */\n      tag_163\n      jump\t// in\n    tag_186:\n        /* \"#utility.yul\":2947:3019   */\n      tag_187\n        /* \"#utility.yul\":3015:3017   */\n      0x20\n        /* \"#utility.yul\":3004:3013   */\n      dup4\n        /* \"#utility.yul\":3000:3018   */\n      add\n        /* \"#utility.yul\":2991:2997   */\n      dup5\n        /* \"#utility.yul\":2947:3019   */\n      tag_177\n      jump\t// in\n    tag_187:\n        /* \"#utility.yul\":2694:3026   */\n      swap4\n      swap3\n      pop\n      pop\n      pop\n      jump\t// out\n        /* \"#utility.yul\":3032:3282   */\n    tag_29:\n        /* \"#utility.yul\":3139:3143   */\n      0x00\n        /* \"#utility.yul\":3177:3179   */\n      0x20\n        /* \"#utility.yul\":3166:3175   */\n      dup3\n        /* \"#utility.yul\":3162:3180   */\n      add\n        /* \"#utility.yul\":3154:3180   */\n      swap1\n      pop\n        /* \"#utility.yul\":3190:3275   */\n      tag_189\n        /* \"#utility.yul\":3272:3273   */\n      0x00\n        /* \"#utility.yul\":3261:3270   */\n      dup4\n        /* \"#utility.yul\":3257:3274   */\n      add\n        /* \"#utility.yul\":3248:3254   */\n      dup5\n        /* \"#utility.yul\":3190:3275   */\n      tag_167\n      jump\t// in\n    tag_189:\n        /* \"#utility.yul\":3032:3282   */\n      swap3\n      swap2\n      pop\n      pop\n      jump\t// out\n        /* \"#utility.yul\":3288:3707   */\n    tag_86:\n        /* \"#utility.yul\":3454:3458   */\n      0x00\n        /* \"#utility.yul\":3492:3494   */\n      0x20\n        /* \"#utility.yul\":3481:3490   */\n      dup3\n        /* \"#utility.yul\":3477:3495   */\n      add\n        /* \"#utility.yul\":3469:3495   */\n      swap1\n      pop\n        /* \"#utility.yul\":3541:3550   */\n      dup2\n        /* \"#utility.yul\":3535:3539   */\n      dup2\n        /* \"#utility.yul\":3531:3551   */\n      sub\n        /* \"#utility.yul\":3527:3528   */\n      0x00\n        /* \"#utility.yul\":3516:3525   */\n      dup4\n        /* \"#utility.yul\":3512:3529   */\n      add\n        /* \"#utility.yul\":3505:3552   */\n      mstore\n        /* \"#utility.yul\":3569:3700   */\n      tag_191\n        /* \"#utility.yul\":3695:3699   */\n      dup2\n        /* \"#utility.yul\":3569:3700   */\n      tag_171\n      jump\t// in\n    tag_191:\n        /* \"#utility.yul\":3561:3700   */\n      swap1\n      pop\n        /* \"#utility.yul\":3288:3707   */\n      swap2\n      swap1\n      pop\n      jump\t// out\n        /* \"#utility.yul\":3713:3935   */\n    tag_25:\n        /* \"#utility.yul\":3806:3810   */\n      0x00\n        /* \"#utility.yul\":3844:3846   */\n      0x20\n        /* \"#utility.yul\":3833:3842   */\n      dup3\n        /* \"#utility.yul\":3829:3847   */\n      add\n        /* \"#utility.yul\":3821:3847   */\n      swap1\n      pop\n        /* \"#utility.yul\":3857:3928   */\n      tag_193\n        /* \"#utility.yul\":3925:3926   */\n      0x00\n        /* \"#utility.yul\":3914:3923   */\n      dup4\n        /* \"#utility.yul\":3910:3927   */\n      add\n        /* \"#utility.yul\":3901:3907   */\n      dup5\n        /* \"#utility.yul\":3857:3928   */\n      tag_177\n      jump\t// in\n    tag_193:\n        /* \"#utility.yul\":3713:3935   */\n      swap3\n      swap2\n      pop\n      pop\n      jump\t// out\n        /* \"#utility.yul\":4022:4191   */\n    tag_174:\n        /* \"#utility.yul\":4106:4117   */\n      0x00\n        /* \"#utility.yul\":4140:4146   */\n      dup3\n        /* \"#utility.yul\":4135:4138   */\n      dup3\n        /* \"#utility.yul\":4128:4147   */\n      mstore\n        /* \"#utility.yul\":4180:4184   */\n      0x20\n        /* \"#utility.yul\":4175:4178   */\n      dup3\n        /* \"#utility.yul\":4171:4185   */\n      add\n        /* \"#utility.yul\":4156:4185   */\n      swap1\n      pop\n        /* \"#utility.yul\":4022:4191   */\n      swap3\n      swap2\n      pop\n      pop\n      jump\t// out\n        /* \"#utility.yul\":4197:4502   */\n    tag_79:\n        /* \"#utility.yul\":4237:4240   */\n      0x00\n        /* \"#utility.yul\":4256:4276   */\n      tag_198\n        /* \"#utility.yul\":4274:4275   */\n      dup3\n        /* \"#utility.yul\":4256:4276   */\n      tag_180\n      jump\t// in\n    tag_198:\n        /* \"#utility.yul\":4251:4276   */\n      swap2\n      pop\n        /* \"#utility.yul\":4290:4310   */\n      tag_199\n        /* \"#utility.yul\":4308:4309   */\n      dup4\n        /* \"#utility.yul\":4290:4310   */\n      tag_180\n      jump\t// in\n    tag_199:\n        /* \"#utility.yul\":4285:4310   */\n      swap3\n      pop\n        /* \"#utility.yul\":4444:4445   */\n      dup3\n        /* \"#utility.yul\":4376:4442   */\n      0xffffffffffffffffffffffffffffffffffffffffffffffffffffffffffffffff\n        /* \"#utility.yul\":4372:4446   */\n      sub\n        /* \"#utility.yul\":4369:4370   */\n      dup3\n        /* \"#utility.yul\":4366:4447   */\n      gt\n        /* \"#utility.yul\":4363:4470   */\n      iszero\n      tag_200\n      jumpi\n        /* \"#utility.yul\":4450:4468   */\n      tag_201\n      tag_202\n      jump\t// in\n    tag_201:\n        /* \"#utility.yul\":4363:4470   */\n    tag_200:\n        /* \"#utility.yul\":4494:4495   */\n      dup3\n        /* \"#utility.yul\":4491:4492   */\n      dup3\n        /* \"#utility.yul\":4487:4496   */\n      add\n        /* \"#utility.yul\":4480:4496   */\n      swap1\n      pop\n        /* \"#utility.yul\":4197:4502   */\n      swap3\n      swap2\n      pop\n      pop\n      jump\t// out\n        /* \"#utility.yul\":4508:4693   */\n    tag_77:\n        /* \"#utility.yul\":4548:4549   */\n      0x00\n        /* \"#utility.yul\":4565:4585   */\n      tag_204\n        /* \"#utility.yul\":4583:4584   */\n      dup3\n        /* \"#utility.yul\":4565:4585   */\n      tag_180\n      jump\t// in\n    tag_204:\n        /* \"#utility.yul\":4560:4585   */\n      swap2\n      pop\n        /* \"#utility.yul\":4599:4619   */\n      tag_205\n        /* \"#utility.yul\":4617:4618   */\n      dup4\n        /* \"#utility.yul\":4599:4619   */\n      tag_180\n      jump\t// in\n    tag_205:\n        /* \"#utility.yul\":4594:4619   */\n      swap3\n      pop\n        /* \"#utility.yul\":4638:4639   */\n      dup3\n        /* \"#utility.yul\":4628:4663   */\n      tag_206\n      jumpi\n        /* \"#utility.yul\":4643:4661   */\n      tag_207\n      tag_208\n      jump\t// in\n    tag_207:\n        /* \"#utility.yul\":4628:4663   */\n    tag_206:\n        /* \"#utility.yul\":4685:4686   */\n      dup3\n        /* \"#utility.yul\":4682:4683   */\n      dup3\n        /* \"#utility.yul\":4678:4687   */\n      div\n        /* \"#utility.yul\":4673:4687   */\n      swap1\n      pop\n        /* \"#utility.yul\":4508:4693   */\n      swap3\n      swap2\n      pop\n      pop\n      jump\t// out\n        /* \"#utility.yul\":4699:5047   */\n    tag_75:\n        /* \"#utility.yul\":4739:4746   */\n      0x00\n        /* \"#utility.yul\":4762:4782   */\n      tag_210\n        /* \"#utility.yul\":4780:4781   */\n      dup3\n        /* \"#utility.yul\":4762:4782   */\n      tag_180\n      jump\t// in\n    tag_210:\n        /* \"#utility.yul\":4757:4782   */\n      swap2\n      pop\n        /* \"#utility.yul\":4796:4816   */\n      tag_211\n        /* \"#utility.yul\":4814:4815   */\n      dup4\n        /* \"#utility.yul\":4796:4816   */\n      tag_180\n      jump\t// in\n    tag_211:\n        /* \"#utility.yul\":4791:4816   */\n      swap3\n      pop\n        /* \"#utility.yul\":4984:4985   */\n      dup2\n        /* \"#utility.yul\":4916:4982   */\n      0xffffffffffffffffffffffffffffffffffffffffffffffffffffffffffffffff\n        /* \"#utility.yul\":4912:4986   */\n      div\n        /* \"#utility.yul\":4909:4910   */\n      dup4\n        /* \"#utility.yul\":4906:4987   */\n      gt\n        /* \"#utility.yul\":4901:4902   */\n      dup3\n        /* \"#utility.yul\":4894:4903   */\n      iszero\n        /* \"#utility.yul\":4887:4904   */\n      iszero\n        /* \"#utility.yul\":4883:4988   */\n      and\n        /* \"#utility.yul\":4880:5011   */\n      iszero\n      tag_212\n      jumpi\n        /* \"#utility.yul\":4991:5009   */\n      tag_213\n      tag_202\n      jump\t// in\n    tag_213:\n        /* \"#utility.yul\":4880:5011   */\n    tag_212:\n        /* \"#utility.yul\":5039:5040   */\n      dup3\n        /* \"#utility.yul\":5036:5037   */\n      dup3\n        /* \"#utility.yul\":5032:5041   */\n      mul\n        /* \"#utility.yul\":5021:5041   */\n      swap1\n      pop\n        /* \"#utility.yul\":4699:5047   */\n      swap3\n      swap2\n      pop\n      pop\n      jump\t// out\n        /* \"#utility.yul\":5053:5244   */\n    tag_73:\n        /* \"#utility.yul\":5093:5097   */\n      0x00\n        /* \"#utility.yul\":5113:5133   */\n      tag_215\n        /* \"#utility.yul\":5131:5132   */\n      dup3\n        /* \"#utility.yul\":5113:5133   */\n      tag_180\n      jump\t// in\n    tag_215:\n        /* \"#utility.yul\":5108:5133   */\n      swap2\n      pop\n        /* \"#utility.yul\":5147:5167   */\n      tag_216\n        /* \"#utility.yul\":5165:5166   */\n      dup4\n        /* \"#utility.yul\":5147:5167   */\n      tag_180\n      jump\t// in\n    tag_216:\n        /* \"#utility.yul\":5142:5167   */\n      swap3\n      pop\n        /* \"#utility.yul\":5186:5187   */\n      dup3\n        /* \"#utility.yul\":5183:5184   */\n      dup3\n        /* \"#utility.yul\":5180:5188   */\n      lt\n        /* \"#utility.yul\":5177:5211   */\n      iszero\n      tag_217\n      jumpi\n        /* \"#utility.yul\":5191:5209   */\n      tag_218\n      tag_202\n      jump\t// in\n    tag_218:\n        /* \"#utility.yul\":5177:5211   */\n    tag_217:\n        /* \"#utility.yul\":5236:5237   */\n      dup3\n        /* \"#utility.yul\":5233:5234   */\n      dup3\n        /* \"#utility.yul\":5229:5238   */\n      sub\n        /* \"#utility.yul\":5221:5238   */\n      swap1\n      pop\n        /* \"#utility.yul\":5053:5244   */\n      swap3\n      swap2\n      pop\n      pop\n      jump\t// out\n        /* \"#utility.yul\":5250:5346   */\n    tag_166:\n        /* \"#utility.yul\":5287:5294   */\n      0x00\n        /* \"#utility.yul\":5316:5340   */\n      tag_220\n        /* \"#utility.yul\":5334:5339   */\n      dup3\n        /* \"#utility.yul\":5316:5340   */\n      tag_221\n      jump\t// in\n    tag_220:\n        /* \"#utility.yul\":5305:5340   */\n      swap1\n      pop\n        /* \"#utility.yul\":5250:5346   */\n      swap2\n      swap1\n      pop\n      jump\t// out\n        /* \"#utility.yul\":5352:5442   */\n    tag_222:\n        /* \"#utility.yul\":5386:5393   */\n      0x00\n        /* \"#utility.yul\":5429:5434   */\n      dup2\n        /* \"#utility.yul\":5422:5435   */\n      iszero\n        /* \"#utility.yul\":5415:5436   */\n      iszero\n        /* \"#utility.yul\":5404:5436   */\n      swap1\n      pop\n        /* \"#utility.yul\":5352:5442   */\n      swap2\n      swap1\n      pop\n      jump\t// out\n        /* \"#utility.yul\":5448:5574   */\n    tag_221:\n        /* \"#utility.yul\":5485:5492   */\n      0x00\n        /* \"#utility.yul\":5525:5567   */\n      0xffffffffffffffffffffffffffffffffffffffff\n        /* \"#utility.yul\":5518:5523   */\n      dup3\n        /* \"#utility.yul\":5514:5568   */\n      and\n        /* \"#utility.yul\":5503:5568   */\n      swap1\n      pop\n        /* \"#utility.yul\":5448:5574   */\n      swap2\n      swap1\n      pop\n      jump\t// out\n        /* \"#utility.yul\":5580:5657   */\n    tag_180:\n        /* \"#utility.yul\":5617:5624   */\n      0x00\n        /* \"#utility.yul\":5646:5651   */\n      dup2\n        /* \"#utility.yul\":5635:5651   */\n      swap1\n      pop\n        /* \"#utility.yul\":5580:5657   */\n      swap2\n      swap1\n      pop\n      jump\t// out\n        /* \"#utility.yul\":5663:5803   */\n    tag_170:\n        /* \"#utility.yul\":5727:5736   */\n      0x00\n        /* \"#utility.yul\":5760:5797   */\n      tag_227\n        /* \"#utility.yul\":5791:5796   */\n      dup3\n        /* \"#utility.yul\":5760:5797   */\n      tag_228\n      jump\t// in\n    tag_227:\n        /* \"#utility.yul\":5747:5797   */\n      swap1\n      pop\n        /* \"#utility.yul\":5663:5803   */\n      swap2\n      swap1\n      pop\n      jump\t// out\n        /* \"#utility.yul\":5809:5935   */\n    tag_228:\n        /* \"#utility.yul\":5859:5868   */\n      0x00\n        /* \"#utility.yul\":5892:5929   */\n      tag_230\n        /* \"#utility.yul\":5923:5928   */\n      dup3\n        /* \"#utility.yul\":5892:5929   */\n      tag_231\n      jump\t// in\n    tag_230:\n        /* \"#utility.yul\":5879:5929   */\n      swap1\n      pop\n        /* \"#utility.yul\":5809:5935   */\n      swap2\n      swap1\n      pop\n      jump\t// out\n        /* \"#utility.yul\":5941:6054   */\n    tag_231:\n        /* \"#utility.yul\":5991:6000   */\n      0x00\n        /* \"#utility.yul\":6024:6048   */\n      tag_233\n        /* \"#utility.yul\":6042:6047   */\n      dup3\n        /* \"#utility.yul\":6024:6048   */\n      tag_221\n      jump\t// in\n    tag_233:\n        /* \"#utility.yul\":6011:6048   */\n      swap1\n      pop\n        /* \"#utility.yul\":5941:6054   */\n      swap2\n      swap1\n      pop\n      jump\t// out\n        /* \"#utility.yul\":6060:6240   */\n    tag_202:\n        /* \"#utility.yul\":6108:6185   */\n      0x4e487b7100000000000000000000000000000000000000000000000000000000\n        /* \"#utility.yul\":6105:6106   */\n      0x00\n        /* \"#utility.yul\":6098:6186   */\n      mstore\n        /* \"#utility.yul\":6205:6209   */\n      0x11\n        /* \"#utility.yul\":6202:6203   */\n      0x04\n        /* \"#utility.yul\":6195:6210   */\n      mstore\n        /* \"#utility.yul\":6229:6233   */\n      0x24\n        /* \"#utility.yul\":6226:6227   */\n      0x00\n        /* \"#utility.yul\":6219:6234   */\n      revert\n        /* \"#utility.yul\":6246:6426   */\n    tag_208:\n        /* \"#utility.yul\":6294:6371   */\n      0x4e487b7100000000000000000000000000000000000000000000000000000000\n        /* \"#utility.yul\":6291:6292   */\n      0x00\n        /* \"#utility.yul\":6284:6372   */\n      mstore\n        /* \"#utility.yul\":6391:6395   */\n      0x12\n        /* \"#utility.yul\":6388:6389   */\n      0x04\n        /* \"#utility.yul\":6381:6396   */\n      mstore\n        /* \"#utility.yul\":6415:6419   */\n      0x24\n        /* \"#utility.yul\":6412:6413   */\n      0x00\n        /* \"#utility.yul\":6405:6420   */\n      revert\n        /* \"#utility.yul\":6555:6672   */\n    tag_153:\n        /* \"#utility.yul\":6664:6665   */\n      0x00\n        /* \"#utility.yul\":6661:6662   */\n      dup1\n        /* \"#utility.yul\":6654:6666   */\n      revert\n        /* \"#utility.yul\":6678:6859   */\n    tag_176:\n        /* \"#utility.yul\":6818:6851   */\n      0x5265656e7472616e637947756172643a207265656e7472616e742063616c6c00\n        /* \"#utility.yul\":6814:6815   */\n      0x00\n        /* \"#utility.yul\":6806:6812   */\n      dup3\n        /* \"#utility.yul\":6802:6816   */\n      add\n        /* \"#utility.yul\":6795:6852   */\n      mstore\n        /* \"#utility.yul\":6678:6859   */\n      pop\n      jump\t// out\n        /* \"#utility.yul\":6865:6987   */\n    tag_141:\n        /* \"#utility.yul\":6938:6962   */\n      tag_241\n        /* \"#utility.yul\":6956:6961   */\n      dup2\n        /* \"#utility.yul\":6938:6962   */\n      tag_166\n      jump\t// in\n    tag_241:\n        /* \"#utility.yul\":6931:6936   */\n      dup2\n        /* \"#utility.yul\":6928:6963   */\n      eq\n        /* \"#utility.yul\":6918:6981   */\n      tag_242\n      jumpi\n        /* \"#utility.yul\":6977:6978   */\n      0x00\n        /* \"#utility.yul\":6974:6975   */\n      dup1\n        /* \"#utility.yul\":6967:6979   */\n      revert\n        /* \"#utility.yul\":6918:6981   */\n    tag_242:\n        /* \"#utility.yul\":6865:6987   */\n      pop\n      jump\t// out\n        /* \"#utility.yul\":6993:7109   */\n    tag_145:\n        /* \"#utility.yul\":7063:7084   */\n      tag_244\n        /* \"#utility.yul\":7078:7083   */\n      dup2\n        /* \"#utility.yul\":7063:7084   */\n      tag_222\n      jump\t// in\n    tag_244:\n        /* \"#utility.yul\":7056:7061   */\n      dup2\n        /* \"#utility.yul\":7053:7085   */\n      eq\n        /* \"#utility.yul\":7043:7103   */\n      tag_245\n      jumpi\n        /* \"#utility.yul\":7099:7100   */\n      0x00\n        /* \"#utility.yul\":7096:7097   */\n      dup1\n        /* \"#utility.yul\":7089:7101   */\n      revert\n        /* \"#utility.yul\":7043:7103   */\n    tag_245:\n        /* \"#utility.yul\":6993:7109   */\n      pop\n      jump\t// out\n        /* \"#utility.yul\":7115:7237   */\n    tag_149:\n        /* \"#utility.yul\":7188:7212   */\n      tag_247\n        /* \"#utility.yul\":7206:7211   */\n      dup2\n        /* \"#utility.yul\":7188:7212   */\n      tag_180\n      jump\t// in\n    tag_247:\n        /* \"#utility.yul\":7181:7186   */\n      dup2\n        /* \"#utility.yul\":7178:7213   */\n      eq\n        /* \"#utility.yul\":7168:7231   */\n      tag_248\n      jumpi\n        /* \"#utility.yul\":7227:7228   */\n      0x00\n        /* \"#utility.yul\":7224:7225   */\n      dup1\n        /* \"#utility.yul\":7217:7229   */\n      revert\n        /* \"#utility.yul\":7168:7231   */\n    tag_248:\n        /* \"#utility.yul\":7115:7237   */\n      pop\n      jump\t// out\n\n    auxdata: 0xa2646970667358221220c48ed106f643afa8bfd7c0a8914c72e078e9bbf45667a081cdcdef79d3e2ae7264736f6c63430008070033\n}\n",
				"bytecode": {
					"linkReferences": {},
					"object": "60806040523480156200001157600080fd5b5060405162001361380380620013618339818101604052810190620000379190620000e0565b600160008190555081600260006101000a81548173ffffffffffffffffffffffffffffffffffffffff021916908373ffffffffffffffffffffffffffffffffffffffff16021790555080600160006101000a81548173ffffffffffffffffffffffffffffffffffffffff021916908373ffffffffffffffffffffffffffffffffffffffff16021790555050506200017a565b600081519050620000da8162000160565b92915050565b60008060408385031215620000fa57620000f96200015b565b5b60006200010a85828601620000c9565b92505060206200011d85828601620000c9565b9150509250929050565b600062000134826200013b565b9050919050565b600073ffffffffffffffffffffffffffffffffffffffff82169050919050565b600080fd5b6200016b8162000127565b81146200017757600080fd5b50565b6111d7806200018a6000396000f3fe608060405234801561001057600080fd5b50600436106100e95760003560e01c8063a694fc3a1161008c578063b88a802f11610066578063b88a802f1461024c578063bea0815114610256578063cd3daf9d14610286578063f245ace4146102a4576100e9565b8063a694fc3a146101e2578063ab32eb69146101fe578063adca9b721461022e576100e9565b8063304ac91b116100c8578063304ac91b14610158578063399080ec146101765780635997bb37146101a65780636aa0838f146101c4576100e9565b80628cc262146100ee5780630bd21c561461011e5780632e1a7d4d1461013c575b600080fd5b61010860048036038101906101039190610d9f565b6102d4565b6040516101159190610f11565b60405180910390f35b6101266103d6565b6040516101339190610ed6565b60405180910390f35b61015660048036038101906101519190610df9565b6103fc565b005b61016061069c565b60405161016d9190610f11565b60405180910390f35b610190600480360381019061018b9190610d9f565b6106a2565b60405161019d9190610f11565b60405180910390f35b6101ae6106eb565b6040516101bb9190610f11565b60405180910390f35b6101cc6106f0565b6040516101d99190610f11565b60405180910390f35b6101fc60048036038101906101f79190610df9565b6106f6565b005b61021860048036038101906102139190610d9f565b6109d5565b6040516102259190610f11565b60405180910390f35b6102366109ed565b6040516102439190610ed6565b60405180910390f35b610254610a13565b005b610270600480360381019061026b9190610d9f565b610ccd565b60405161027d9190610f11565b60405180910390f35b61028e610ce5565b60405161029b9190610f11565b60405180910390f35b6102be60048036038101906102b99190610d9f565b610d48565b6040516102cb9190610f11565b60405180910390f35b6000600660008373ffffffffffffffffffffffffffffffffffffffff1673ffffffffffffffffffffffffffffffffffffffff16815260200190815260200160002054670de0b6b3a7640000600560008573ffffffffffffffffffffffffffffffffffffffff1673ffffffffffffffffffffffffffffffffffffffff16815260200190815260200160002054610367610ce5565b610371919061101e565b600860008673ffffffffffffffffffffffffffffffffffffffff1673ffffffffffffffffffffffffffffffffffffffff168152602001908152602001600020546103bb9190610fc4565b6103c59190610f93565b6103cf9190610f3d565b9050919050565b600160009054906101000a900473ffffffffffffffffffffffffffffffffffffffff1681565b33610405610ce5565b6004819055504260038190555061041b816102d4565b600660008373ffffffffffffffffffffffffffffffffffffffff1673ffffffffffffffffffffffffffffffffffffffff16815260200190815260200160002081905550600454600560008373ffffffffffffffffffffffffffffffffffffffff1673ffffffffffffffffffffffffffffffffffffffff16815260200190815260200160002081905550600260005414156104ea576040517f08c379a00000000000000000000000000000000000000000000000000000000081526004016104e190610ef1565b60405180910390fd5b60026000819055508160076000828254610504919061101e565b9250508190555081600860003373ffffffffffffffffffffffffffffffffffffffff1673ffffffffffffffffffffffffffffffffffffffff168152602001908152602001600020600082825461055a919061101e565b92505081905550813373ffffffffffffffffffffffffffffffffffffffff167f4cb6da433ea55f6e302b7bdbfeed740816a42301cde7f5bac5dff2b34037637460405160405180910390a36000600260009054906101000a900473ffffffffffffffffffffffffffffffffffffffff1673ffffffffffffffffffffffffffffffffffffffff1663a9059cbb33856040518363ffffffff1660e01b8152600401610604929190610ead565b602060405180830381600087803b15801561061e57600080fd5b505af1158015610632573d6000803e3d6000fd5b505050506040513d601f19601f820116820180604052508101906106569190610dcc565b90508061068f576040517f90b8ec1800000000000000000000000000000000000000000000000000000000815260040160405180910390fd5b5060016000819055505050565b60045481565b6000600860008373ffffffffffffffffffffffffffffffffffffffff1673ffffffffffffffffffffffffffffffffffffffff168152602001908152602001600020549050919050565b606481565b60035481565b336106ff610ce5565b60048190555042600381905550610715816102d4565b600660008373ffffffffffffffffffffffffffffffffffffffff1673ffffffffffffffffffffffffffffffffffffffff16815260200190815260200160002081905550600454600560008373ffffffffffffffffffffffffffffffffffffffff1673ffffffffffffffffffffffffffffffffffffffff16815260200190815260200160002081905550600260005414156107e4576040517f08c379a00000000000000000000000000000000000000000000000000000000081526004016107db90610ef1565b60405180910390fd5b6002600081905550816000811415610828576040517ff45911f000000000000000000000000000000000000000000000000000000000815260040160405180910390fd5b826007600082825461083a9190610f3d565b9250508190555082600860003373ffffffffffffffffffffffffffffffffffffffff1673ffffffffffffffffffffffffffffffffffffffff16815260200190815260200160002060008282546108909190610f3d565b92505081905550823373ffffffffffffffffffffffffffffffffffffffff167f9e71bc8eea02a63969f509818f2dafb9254532904319f9dbda79b67bd34a5f3d60405160405180910390a36000600260009054906101000a900473ffffffffffffffffffffffffffffffffffffffff1673ffffffffffffffffffffffffffffffffffffffff166323b872dd3330876040518463ffffffff1660e01b815260040161093c93929190610e76565b602060405180830381600087803b15801561095657600080fd5b505af115801561096a573d6000803e3d6000fd5b505050506040513d601f19601f8201168201806040525081019061098e9190610dcc565b9050806109c7576040517f90b8ec1800000000000000000000000000000000000000000000000000000000815260040160405180910390fd5b505060016000819055505050565b60086020528060005260406000206000915090505481565b600260009054906101000a900473ffffffffffffffffffffffffffffffffffffffff1681565b33610a1c610ce5565b60048190555042600381905550610a32816102d4565b600660008373ffffffffffffffffffffffffffffffffffffffff1673ffffffffffffffffffffffffffffffffffffffff16815260200190815260200160002081905550600454600560008373ffffffffffffffffffffffffffffffffffffffff1673ffffffffffffffffffffffffffffffffffffffff1681526020019081526020016000208190555060026000541415610b01576040517f08c379a0000000000000000000000000000000000000000000000000000000008152600401610af890610ef1565b60405180910390fd5b60026000819055506000600660003373ffffffffffffffffffffffffffffffffffffffff1673ffffffffffffffffffffffffffffffffffffffff1681526020019081526020016000205490506000600660003373ffffffffffffffffffffffffffffffffffffffff1673ffffffffffffffffffffffffffffffffffffffff16815260200190815260200160002081905550803373ffffffffffffffffffffffffffffffffffffffff167ffc30cddea38e2bf4d6ea7d3f9ed3b6ad7f176419f4963bd81318067a4aee73fe60405160405180910390a36000600160009054906101000a900473ffffffffffffffffffffffffffffffffffffffff1673ffffffffffffffffffffffffffffffffffffffff1663a9059cbb33846040518363ffffffff1660e01b8152600401610c35929190610ead565b602060405180830381600087803b158015610c4f57600080fd5b505af1158015610c63573d6000803e3d6000fd5b505050506040513d601f19601f82011682018060405250810190610c879190610dcc565b905080610cc0576040517f90b8ec1800000000000000000000000000000000000000000000000000000000815260040160405180910390fd5b5050600160008190555050565b60066020528060005260406000206000915090505481565b6000806007541415610cfb576004549050610d45565b600754670de0b6b3a7640000606460035442610d17919061101e565b610d219190610fc4565b610d2b9190610fc4565b610d359190610f93565b600454610d429190610f3d565b90505b90565b60056020528060005260406000206000915090505481565b600081359050610d6f8161115c565b92915050565b600081519050610d8481611173565b92915050565b600081359050610d998161118a565b92915050565b600060208284031215610db557610db461112e565b5b6000610dc384828501610d60565b91505092915050565b600060208284031215610de257610de161112e565b5b6000610df084828501610d75565b91505092915050565b600060208284031215610e0f57610e0e61112e565b5b6000610e1d84828501610d8a565b91505092915050565b610e2f81611052565b82525050565b610e3e8161109a565b82525050565b6000610e51601f83610f2c565b9150610e5c82611133565b602082019050919050565b610e7081611090565b82525050565b6000606082019050610e8b6000830186610e26565b610e986020830185610e26565b610ea56040830184610e67565b949350505050565b6000604082019050610ec26000830185610e26565b610ecf6020830184610e67565b9392505050565b6000602082019050610eeb6000830184610e35565b92915050565b60006020820190508181036000830152610f0a81610e44565b9050919050565b6000602082019050610f266000830184610e67565b92915050565b600082825260208201905092915050565b6000610f4882611090565b9150610f5383611090565b9250827fffffffffffffffffffffffffffffffffffffffffffffffffffffffffffffffff03821115610f8857610f876110d0565b5b828201905092915050565b6000610f9e82611090565b9150610fa983611090565b925082610fb957610fb86110ff565b5b828204905092915050565b6000610fcf82611090565b9150610fda83611090565b9250817fffffffffffffffffffffffffffffffffffffffffffffffffffffffffffffffff0483118215151615611013576110126110d0565b5b828202905092915050565b600061102982611090565b915061103483611090565b925082821015611047576110466110d0565b5b828203905092915050565b600061105d82611070565b9050919050565b60008115159050919050565b600073ffffffffffffffffffffffffffffffffffffffff82169050919050565b6000819050919050565b60006110a5826110ac565b9050919050565b60006110b7826110be565b9050919050565b60006110c982611070565b9050919050565b7f4e487b7100000000000000000000000000000000000000000000000000000000600052601160045260246000fd5b7f4e487b7100000000000000000000000000000000000000000000000000000000600052601260045260246000fd5b600080fd5b7f5265656e7472616e637947756172643a207265656e7472616e742063616c6c00600082015250565b61116581611052565b811461117057600080fd5b50565b61117c81611064565b811461118757600080fd5b50565b61119381611090565b811461119e57600080fd5b5056fea2646970667358221220c48ed106f643afa8bfd7c0a8914c72e078e9bbf45667a081cdcdef79d3e2ae7264736f6c63430008070033",
					"opcodes": "PUSH1 0x80 PUSH1 0x40 MSTORE CALLVALUE DUP1 ISZERO PUSH3 0x11 JUMPI PUSH1 0x0 DUP1 REVERT JUMPDEST POP PUSH1 0x40 MLOAD PUSH3 0x1361 CODESIZE SUB DUP1 PUSH3 0x1361 DUP4 CODECOPY DUP2 DUP2 ADD PUSH1 0x40 MSTORE DUP2 ADD SWAP1 PUSH3 0x37 SWAP2 SWAP1 PUSH3 0xE0 JUMP JUMPDEST PUSH1 0x1 PUSH1 0x0 DUP2 SWAP1 SSTORE POP DUP2 PUSH1 0x2 PUSH1 0x0 PUSH2 0x100 EXP DUP2 SLOAD DUP2 PUSH20 0xFFFFFFFFFFFFFFFFFFFFFFFFFFFFFFFFFFFFFFFF MUL NOT AND SWAP1 DUP4 PUSH20 0xFFFFFFFFFFFFFFFFFFFFFFFFFFFFFFFFFFFFFFFF AND MUL OR SWAP1 SSTORE POP DUP1 PUSH1 0x1 PUSH1 0x0 PUSH2 0x100 EXP DUP2 SLOAD DUP2 PUSH20 0xFFFFFFFFFFFFFFFFFFFFFFFFFFFFFFFFFFFFFFFF MUL NOT AND SWAP1 DUP4 PUSH20 0xFFFFFFFFFFFFFFFFFFFFFFFFFFFFFFFFFFFFFFFF AND MUL OR SWAP1 SSTORE POP POP POP PUSH3 0x17A JUMP JUMPDEST PUSH1 0x0 DUP2 MLOAD SWAP1 POP PUSH3 0xDA DUP2 PUSH3 0x160 JUMP JUMPDEST SWAP3 SWAP2 POP POP JUMP JUMPDEST PUSH1 0x0 DUP1 PUSH1 0x40 DUP4 DUP6 SUB SLT ISZERO PUSH3 0xFA JUMPI PUSH3 0xF9 PUSH3 0x15B JUMP JUMPDEST JUMPDEST PUSH1 0x0 PUSH3 0x10A DUP6 DUP3 DUP7 ADD PUSH3 0xC9 JUMP JUMPDEST SWAP3 POP POP PUSH1 0x20 PUSH3 0x11D DUP6 DUP3 DUP7 ADD PUSH3 0xC9 JUMP JUMPDEST SWAP2 POP POP SWAP3 POP SWAP3 SWAP1 POP JUMP JUMPDEST PUSH1 0x0 PUSH3 0x134 DUP3 PUSH3 0x13B JUMP JUMPDEST SWAP1 POP SWAP2 SWAP1 POP JUMP JUMPDEST PUSH1 0x0 PUSH20 0xFFFFFFFFFFFFFFFFFFFFFFFFFFFFFFFFFFFFFFFF DUP3 AND SWAP1 POP SWAP2 SWAP1 POP JUMP JUMPDEST PUSH1 0x0 DUP1 REVERT JUMPDEST PUSH3 0x16B DUP2 PUSH3 0x127 JUMP JUMPDEST DUP2 EQ PUSH3 0x177 JUMPI PUSH1 0x0 DUP1 REVERT JUMPDEST POP JUMP JUMPDEST PUSH2 0x11D7 DUP1 PUSH3 0x18A PUSH1 0x0 CODECOPY PUSH1 0x0 RETURN INVALID PUSH1 0x80 PUSH1 0x40 MSTORE CALLVALUE DUP1 ISZERO PUSH2 0x10 JUMPI PUSH1 0x0 DUP1 REVERT JUMPDEST POP PUSH1 0x4 CALLDATASIZE LT PUSH2 0xE9 JUMPI PUSH1 0x0 CALLDATALOAD PUSH1 0xE0 SHR DUP1 PUSH4 0xA694FC3A GT PUSH2 0x8C JUMPI DUP1 PUSH4 0xB88A802F GT PUSH2 0x66 JUMPI DUP1 PUSH4 0xB88A802F EQ PUSH2 0x24C JUMPI DUP1 PUSH4 0xBEA08151 EQ PUSH2 0x256 JUMPI DUP1 PUSH4 0xCD3DAF9D EQ PUSH2 0x286 JUMPI DUP1 PUSH4 0xF245ACE4 EQ PUSH2 0x2A4 JUMPI PUSH2 0xE9 JUMP JUMPDEST DUP1 PUSH4 0xA694FC3A EQ PUSH2 0x1E2 JUMPI DUP1 PUSH4 0xAB32EB69 EQ PUSH2 0x1FE JUMPI DUP1 PUSH4 0xADCA9B72 EQ PUSH2 0x22E JUMPI PUSH2 0xE9 JUMP JUMPDEST DUP1 PUSH4 0x304AC91B GT PUSH2 0xC8 JUMPI DUP1 PUSH4 0x304AC91B EQ PUSH2 0x158 JUMPI DUP1 PUSH4 0x399080EC EQ PUSH2 0x176 JUMPI DUP1 PUSH4 0x5997BB37 EQ PUSH2 0x1A6 JUMPI DUP1 PUSH4 0x6AA0838F EQ PUSH2 0x1C4 JUMPI PUSH2 0xE9 JUMP JUMPDEST DUP1 PUSH3 0x8CC262 EQ PUSH2 0xEE JUMPI DUP1 PUSH4 0xBD21C56 EQ PUSH2 0x11E JUMPI DUP1 PUSH4 0x2E1A7D4D EQ PUSH2 0x13C JUMPI JUMPDEST PUSH1 0x0 DUP1 REVERT JUMPDEST PUSH2 0x108 PUSH1 0x4 DUP1 CALLDATASIZE SUB DUP2 ADD SWAP1 PUSH2 0x103 SWAP2 SWAP1 PUSH2 0xD9F JUMP JUMPDEST PUSH2 0x2D4 JUMP JUMPDEST PUSH1 0x40 MLOAD PUSH2 0x115 SWAP2 SWAP1 PUSH2 0xF11 JUMP JUMPDEST PUSH1 0x40 MLOAD DUP1 SWAP2 SUB SWAP1 RETURN JUMPDEST PUSH2 0x126 PUSH2 0x3D6 JUMP JUMPDEST PUSH1 0x40 MLOAD PUSH2 0x133 SWAP2 SWAP1 PUSH2 0xED6 JUMP JUMPDEST PUSH1 0x40 MLOAD DUP1 SWAP2 SUB SWAP1 RETURN JUMPDEST PUSH2 0x156 PUSH1 0x4 DUP1 CALLDATASIZE SUB DUP2 ADD SWAP1 PUSH2 0x151 SWAP2 SWAP1 PUSH2 0xDF9 JUMP JUMPDEST PUSH2 0x3FC JUMP JUMPDEST STOP JUMPDEST PUSH2 0x160 PUSH2 0x69C JUMP JUMPDEST PUSH1 0x40 MLOAD PUSH2 0x16D SWAP2 SWAP1 PUSH2 0xF11 JUMP JUMPDEST PUSH1 0x40 MLOAD DUP1 SWAP2 SUB SWAP1 RETURN JUMPDEST PUSH2 0x190 PUSH1 0x4 DUP1 CALLDATASIZE SUB DUP2 ADD SWAP1 PUSH2 0x18B SWAP2 SWAP1 PUSH2 0xD9F JUMP JUMPDEST PUSH2 0x6A2 JUMP JUMPDEST PUSH1 0x40 MLOAD PUSH2 0x19D SWAP2 SWAP1 PUSH2 0xF11 JUMP JUMPDEST PUSH1 0x40 MLOAD DUP1 SWAP2 SUB SWAP1 RETURN JUMPDEST PUSH2 0x1AE PUSH2 0x6EB JUMP JUMPDEST PUSH1 0x40 MLOAD PUSH2 0x1BB SWAP2 SWAP1 PUSH2 0xF11 JUMP JUMPDEST PUSH1 0x40 MLOAD DUP1 SWAP2 SUB SWAP1 RETURN JUMPDEST PUSH2 0x1CC PUSH2 0x6F0 JUMP JUMPDEST PUSH1 0x40 MLOAD PUSH2 0x1D9 SWAP2 SWAP1 PUSH2 0xF11 JUMP JUMPDEST PUSH1 0x40 MLOAD DUP1 SWAP2 SUB SWAP1 RETURN JUMPDEST PUSH2 0x1FC PUSH1 0x4 DUP1 CALLDATASIZE SUB DUP2 ADD SWAP1 PUSH2 0x1F7 SWAP2 SWAP1 PUSH2 0xDF9 JUMP JUMPDEST PUSH2 0x6F6 JUMP JUMPDEST STOP JUMPDEST PUSH2 0x218 PUSH1 0x4 DUP1 CALLDATASIZE SUB DUP2 ADD SWAP1 PUSH2 0x213 SWAP2 SWAP1 PUSH2 0xD9F JUMP JUMPDEST PUSH2 0x9D5 JUMP JUMPDEST PUSH1 0x40 MLOAD PUSH2 0x225 SWAP2 SWAP1 PUSH2 0xF11 JUMP JUMPDEST PUSH1 0x40 MLOAD DUP1 SWAP2 SUB SWAP1 RETURN JUMPDEST PUSH2 0x236 PUSH2 0x9ED JUMP JUMPDEST PUSH1 0x40 MLOAD PUSH2 0x243 SWAP2 SWAP1 PUSH2 0xED6 JUMP JUMPDEST PUSH1 0x40 MLOAD DUP1 SWAP2 SUB SWAP1 RETURN JUMPDEST PUSH2 0x254 PUSH2 0xA13 JUMP JUMPDEST STOP JUMPDEST PUSH2 0x270 PUSH1 0x4 DUP1 CALLDATASIZE SUB DUP2 ADD SWAP1 PUSH2 0x26B SWAP2 SWAP1 PUSH2 0xD9F JUMP JUMPDEST PUSH2 0xCCD JUMP JUMPDEST PUSH1 0x40 MLOAD PUSH2 0x27D SWAP2 SWAP1 PUSH2 0xF11 JUMP JUMPDEST PUSH1 0x40 MLOAD DUP1 SWAP2 SUB SWAP1 RETURN JUMPDEST PUSH2 0x28E PUSH2 0xCE5 JUMP JUMPDEST PUSH1 0x40 MLOAD PUSH2 0x29B SWAP2 SWAP1 PUSH2 0xF11 JUMP JUMPDEST PUSH1 0x40 MLOAD DUP1 SWAP2 SUB SWAP1 RETURN JUMPDEST PUSH2 0x2BE PUSH1 0x4 DUP1 CALLDATASIZE SUB DUP2 ADD SWAP1 PUSH2 0x2B9 SWAP2 SWAP1 PUSH2 0xD9F JUMP JUMPDEST PUSH2 0xD48 JUMP JUMPDEST PUSH1 0x40 MLOAD PUSH2 0x2CB SWAP2 SWAP1 PUSH2 0xF11 JUMP JUMPDEST PUSH1 0x40 MLOAD DUP1 SWAP2 SUB SWAP1 RETURN JUMPDEST PUSH1 0x0 PUSH1 0x6 PUSH1 0x0 DUP4 PUSH20 0xFFFFFFFFFFFFFFFFFFFFFFFFFFFFFFFFFFFFFFFF AND PUSH20 0xFFFFFFFFFFFFFFFFFFFFFFFFFFFFFFFFFFFFFFFF AND DUP2 MSTORE PUSH1 0x20 ADD SWAP1 DUP2 MSTORE PUSH1 0x20 ADD PUSH1 0x0 KECCAK256 SLOAD PUSH8 0xDE0B6B3A7640000 PUSH1 0x5 PUSH1 0x0 DUP6 PUSH20 0xFFFFFFFFFFFFFFFFFFFFFFFFFFFFFFFFFFFFFFFF AND PUSH20 0xFFFFFFFFFFFFFFFFFFFFFFFFFFFFFFFFFFFFFFFF AND DUP2 MSTORE PUSH1 0x20 ADD SWAP1 DUP2 MSTORE PUSH1 0x20 ADD PUSH1 0x0 KECCAK256 SLOAD PUSH2 0x367 PUSH2 0xCE5 JUMP JUMPDEST PUSH2 0x371 SWAP2 SWAP1 PUSH2 0x101E JUMP JUMPDEST PUSH1 0x8 PUSH1 0x0 DUP7 PUSH20 0xFFFFFFFFFFFFFFFFFFFFFFFFFFFFFFFFFFFFFFFF AND PUSH20 0xFFFFFFFFFFFFFFFFFFFFFFFFFFFFFFFFFFFFFFFF AND DUP2 MSTORE PUSH1 0x20 ADD SWAP1 DUP2 MSTORE PUSH1 0x20 ADD PUSH1 0x0 KECCAK256 SLOAD PUSH2 0x3BB SWAP2 SWAP1 PUSH2 0xFC4 JUMP JUMPDEST PUSH2 0x3C5 SWAP2 SWAP1 PUSH2 0xF93 JUMP JUMPDEST PUSH2 0x3CF SWAP2 SWAP1 PUSH2 0xF3D JUMP JUMPDEST SWAP1 POP SWAP2 SWAP1 POP JUMP JUMPDEST PUSH1 0x1 PUSH1 0x0 SWAP1 SLOAD SWAP1 PUSH2 0x100 EXP SWAP1 DIV PUSH20 0xFFFFFFFFFFFFFFFFFFFFFFFFFFFFFFFFFFFFFFFF AND DUP2 JUMP JUMPDEST CALLER PUSH2 0x405 PUSH2 0xCE5 JUMP JUMPDEST PUSH1 0x4 DUP2 SWAP1 SSTORE POP TIMESTAMP PUSH1 0x3 DUP2 SWAP1 SSTORE POP PUSH2 0x41B DUP2 PUSH2 0x2D4 JUMP JUMPDEST PUSH1 0x6 PUSH1 0x0 DUP4 PUSH20 0xFFFFFFFFFFFFFFFFFFFFFFFFFFFFFFFFFFFFFFFF AND PUSH20 0xFFFFFFFFFFFFFFFFFFFFFFFFFFFFFFFFFFFFFFFF AND DUP2 MSTORE PUSH1 0x20 ADD SWAP1 DUP2 MSTORE PUSH1 0x20 ADD PUSH1 0x0 KECCAK256 DUP2 SWAP1 SSTORE POP PUSH1 0x4 SLOAD PUSH1 0x5 PUSH1 0x0 DUP4 PUSH20 0xFFFFFFFFFFFFFFFFFFFFFFFFFFFFFFFFFFFFFFFF AND PUSH20 0xFFFFFFFFFFFFFFFFFFFFFFFFFFFFFFFFFFFFFFFF AND DUP2 MSTORE PUSH1 0x20 ADD SWAP1 DUP2 MSTORE PUSH1 0x20 ADD PUSH1 0x0 KECCAK256 DUP2 SWAP1 SSTORE POP PUSH1 0x2 PUSH1 0x0 SLOAD EQ ISZERO PUSH2 0x4EA JUMPI PUSH1 0x40 MLOAD PUSH32 0x8C379A000000000000000000000000000000000000000000000000000000000 DUP2 MSTORE PUSH1 0x4 ADD PUSH2 0x4E1 SWAP1 PUSH2 0xEF1 JUMP JUMPDEST PUSH1 0x40 MLOAD DUP1 SWAP2 SUB SWAP1 REVERT JUMPDEST PUSH1 0x2 PUSH1 0x0 DUP2 SWAP1 SSTORE POP DUP2 PUSH1 0x7 PUSH1 0x0 DUP3 DUP3 SLOAD PUSH2 0x504 SWAP2 SWAP1 PUSH2 0x101E JUMP JUMPDEST SWAP3 POP POP DUP2 SWAP1 SSTORE POP DUP2 PUSH1 0x8 PUSH1 0x0 CALLER PUSH20 0xFFFFFFFFFFFFFFFFFFFFFFFFFFFFFFFFFFFFFFFF AND PUSH20 0xFFFFFFFFFFFFFFFFFFFFFFFFFFFFFFFFFFFFFFFF AND DUP2 MSTORE PUSH1 0x20 ADD SWAP1 DUP2 MSTORE PUSH1 0x20 ADD PUSH1 0x0 KECCAK256 PUSH1 0x0 DUP3 DUP3 SLOAD PUSH2 0x55A SWAP2 SWAP1 PUSH2 0x101E JUMP JUMPDEST SWAP3 POP POP DUP2 SWAP1 SSTORE POP DUP2 CALLER PUSH20 0xFFFFFFFFFFFFFFFFFFFFFFFFFFFFFFFFFFFFFFFF AND PUSH32 0x4CB6DA433EA55F6E302B7BDBFEED740816A42301CDE7F5BAC5DFF2B340376374 PUSH1 0x40 MLOAD PUSH1 0x40 MLOAD DUP1 SWAP2 SUB SWAP1 LOG3 PUSH1 0x0 PUSH1 0x2 PUSH1 0x0 SWAP1 SLOAD SWAP1 PUSH2 0x100 EXP SWAP1 DIV PUSH20 0xFFFFFFFFFFFFFFFFFFFFFFFFFFFFFFFFFFFFFFFF AND PUSH20 0xFFFFFFFFFFFFFFFFFFFFFFFFFFFFFFFFFFFFFFFF AND PUSH4 0xA9059CBB CALLER DUP6 PUSH1 0x40 MLOAD DUP4 PUSH4 0xFFFFFFFF AND PUSH1 0xE0 SHL DUP2 MSTORE PUSH1 0x4 ADD PUSH2 0x604 SWAP3 SWAP2 SWAP1 PUSH2 0xEAD JUMP JUMPDEST PUSH1 0x20 PUSH1 0x40 MLOAD DUP1 DUP4 SUB DUP2 PUSH1 0x0 DUP8 DUP1 EXTCODESIZE ISZERO DUP1 ISZERO PUSH2 0x61E JUMPI PUSH1 0x0 DUP1 REVERT JUMPDEST POP GAS CALL ISZERO DUP1 ISZERO PUSH2 0x632 JUMPI RETURNDATASIZE PUSH1 0x0 DUP1 RETURNDATACOPY RETURNDATASIZE PUSH1 0x0 REVERT JUMPDEST POP POP POP POP PUSH1 0x40 MLOAD RETURNDATASIZE PUSH1 0x1F NOT PUSH1 0x1F DUP3 ADD AND DUP3 ADD DUP1 PUSH1 0x40 MSTORE POP DUP2 ADD SWAP1 PUSH2 0x656 SWAP2 SWAP1 PUSH2 0xDCC JUMP JUMPDEST SWAP1 POP DUP1 PUSH2 0x68F JUMPI PUSH1 0x40 MLOAD PUSH32 0x90B8EC1800000000000000000000000000000000000000000000000000000000 DUP2 MSTORE PUSH1 0x4 ADD PUSH1 0x40 MLOAD DUP1 SWAP2 SUB SWAP1 REVERT JUMPDEST POP PUSH1 0x1 PUSH1 0x0 DUP2 SWAP1 SSTORE POP POP POP JUMP JUMPDEST PUSH1 0x4 SLOAD DUP2 JUMP JUMPDEST PUSH1 0x0 PUSH1 0x8 PUSH1 0x0 DUP4 PUSH20 0xFFFFFFFFFFFFFFFFFFFFFFFFFFFFFFFFFFFFFFFF AND PUSH20 0xFFFFFFFFFFFFFFFFFFFFFFFFFFFFFFFFFFFFFFFF AND DUP2 MSTORE PUSH1 0x20 ADD SWAP1 DUP2 MSTORE PUSH1 0x20 ADD PUSH1 0x0 KECCAK256 SLOAD SWAP1 POP SWAP2 SWAP1 POP JUMP JUMPDEST PUSH1 0x64 DUP2 JUMP JUMPDEST PUSH1 0x3 SLOAD DUP2 JUMP JUMPDEST CALLER PUSH2 0x6FF PUSH2 0xCE5 JUMP JUMPDEST PUSH1 0x4 DUP2 SWAP1 SSTORE POP TIMESTAMP PUSH1 0x3 DUP2 SWAP1 SSTORE POP PUSH2 0x715 DUP2 PUSH2 0x2D4 JUMP JUMPDEST PUSH1 0x6 PUSH1 0x0 DUP4 PUSH20 0xFFFFFFFFFFFFFFFFFFFFFFFFFFFFFFFFFFFFFFFF AND PUSH20 0xFFFFFFFFFFFFFFFFFFFFFFFFFFFFFFFFFFFFFFFF AND DUP2 MSTORE PUSH1 0x20 ADD SWAP1 DUP2 MSTORE PUSH1 0x20 ADD PUSH1 0x0 KECCAK256 DUP2 SWAP1 SSTORE POP PUSH1 0x4 SLOAD PUSH1 0x5 PUSH1 0x0 DUP4 PUSH20 0xFFFFFFFFFFFFFFFFFFFFFFFFFFFFFFFFFFFFFFFF AND PUSH20 0xFFFFFFFFFFFFFFFFFFFFFFFFFFFFFFFFFFFFFFFF AND DUP2 MSTORE PUSH1 0x20 ADD SWAP1 DUP2 MSTORE PUSH1 0x20 ADD PUSH1 0x0 KECCAK256 DUP2 SWAP1 SSTORE POP PUSH1 0x2 PUSH1 0x0 SLOAD EQ ISZERO PUSH2 0x7E4 JUMPI PUSH1 0x40 MLOAD PUSH32 0x8C379A000000000000000000000000000000000000000000000000000000000 DUP2 MSTORE PUSH1 0x4 ADD PUSH2 0x7DB SWAP1 PUSH2 0xEF1 JUMP JUMPDEST PUSH1 0x40 MLOAD DUP1 SWAP2 SUB SWAP1 REVERT JUMPDEST PUSH1 0x2 PUSH1 0x0 DUP2 SWAP1 SSTORE POP DUP2 PUSH1 0x0 DUP2 EQ ISZERO PUSH2 0x828 JUMPI PUSH1 0x40 MLOAD PUSH32 0xF45911F000000000000000000000000000000000000000000000000000000000 DUP2 MSTORE PUSH1 0x4 ADD PUSH1 0x40 MLOAD DUP1 SWAP2 SUB SWAP1 REVERT JUMPDEST DUP3 PUSH1 0x7 PUSH1 0x0 DUP3 DUP3 SLOAD PUSH2 0x83A SWAP2 SWAP1 PUSH2 0xF3D JUMP JUMPDEST SWAP3 POP POP DUP2 SWAP1 SSTORE POP DUP3 PUSH1 0x8 PUSH1 0x0 CALLER PUSH20 0xFFFFFFFFFFFFFFFFFFFFFFFFFFFFFFFFFFFFFFFF AND PUSH20 0xFFFFFFFFFFFFFFFFFFFFFFFFFFFFFFFFFFFFFFFF AND DUP2 MSTORE PUSH1 0x20 ADD SWAP1 DUP2 MSTORE PUSH1 0x20 ADD PUSH1 0x0 KECCAK256 PUSH1 0x0 DUP3 DUP3 SLOAD PUSH2 0x890 SWAP2 SWAP1 PUSH2 0xF3D JUMP JUMPDEST SWAP3 POP POP DUP2 SWAP1 SSTORE POP DUP3 CALLER PUSH20 0xFFFFFFFFFFFFFFFFFFFFFFFFFFFFFFFFFFFFFFFF AND PUSH32 0x9E71BC8EEA02A63969F509818F2DAFB9254532904319F9DBDA79B67BD34A5F3D PUSH1 0x40 MLOAD PUSH1 0x40 MLOAD DUP1 SWAP2 SUB SWAP1 LOG3 PUSH1 0x0 PUSH1 0x2 PUSH1 0x0 SWAP1 SLOAD SWAP1 PUSH2 0x100 EXP SWAP1 DIV PUSH20 0xFFFFFFFFFFFFFFFFFFFFFFFFFFFFFFFFFFFFFFFF AND PUSH20 0xFFFFFFFFFFFFFFFFFFFFFFFFFFFFFFFFFFFFFFFF AND PUSH4 0x23B872DD CALLER ADDRESS DUP8 PUSH1 0x40 MLOAD DUP5 PUSH4 0xFFFFFFFF AND PUSH1 0xE0 SHL DUP2 MSTORE PUSH1 0x4 ADD PUSH2 0x93C SWAP4 SWAP3 SWAP2 SWAP1 PUSH2 0xE76 JUMP JUMPDEST PUSH1 0x20 PUSH1 0x40 MLOAD DUP1 DUP4 SUB DUP2 PUSH1 0x0 DUP8 DUP1 EXTCODESIZE ISZERO DUP1 ISZERO PUSH2 0x956 JUMPI PUSH1 0x0 DUP1 REVERT JUMPDEST POP GAS CALL ISZERO DUP1 ISZERO PUSH2 0x96A JUMPI RETURNDATASIZE PUSH1 0x0 DUP1 RETURNDATACOPY RETURNDATASIZE PUSH1 0x0 REVERT JUMPDEST POP POP POP POP PUSH1 0x40 MLOAD RETURNDATASIZE PUSH1 0x1F NOT PUSH1 0x1F DUP3 ADD AND DUP3 ADD DUP1 PUSH1 0x40 MSTORE POP DUP2 ADD SWAP1 PUSH2 0x98E SWAP2 SWAP1 PUSH2 0xDCC JUMP JUMPDEST SWAP1 POP DUP1 PUSH2 0x9C7 JUMPI PUSH1 0x40 MLOAD PUSH32 0x90B8EC1800000000000000000000000000000000000000000000000000000000 DUP2 MSTORE PUSH1 0x4 ADD PUSH1 0x40 MLOAD DUP1 SWAP2 SUB SWAP1 REVERT JUMPDEST POP POP PUSH1 0x1 PUSH1 0x0 DUP2 SWAP1 SSTORE POP POP POP JUMP JUMPDEST PUSH1 0x8 PUSH1 0x20 MSTORE DUP1 PUSH1 0x0 MSTORE PUSH1 0x40 PUSH1 0x0 KECCAK256 PUSH1 0x0 SWAP2 POP SWAP1 POP SLOAD DUP2 JUMP JUMPDEST PUSH1 0x2 PUSH1 0x0 SWAP1 SLOAD SWAP1 PUSH2 0x100 EXP SWAP1 DIV PUSH20 0xFFFFFFFFFFFFFFFFFFFFFFFFFFFFFFFFFFFFFFFF AND DUP2 JUMP JUMPDEST CALLER PUSH2 0xA1C PUSH2 0xCE5 JUMP JUMPDEST PUSH1 0x4 DUP2 SWAP1 SSTORE POP TIMESTAMP PUSH1 0x3 DUP2 SWAP1 SSTORE POP PUSH2 0xA32 DUP2 PUSH2 0x2D4 JUMP JUMPDEST PUSH1 0x6 PUSH1 0x0 DUP4 PUSH20 0xFFFFFFFFFFFFFFFFFFFFFFFFFFFFFFFFFFFFFFFF AND PUSH20 0xFFFFFFFFFFFFFFFFFFFFFFFFFFFFFFFFFFFFFFFF AND DUP2 MSTORE PUSH1 0x20 ADD SWAP1 DUP2 MSTORE PUSH1 0x20 ADD PUSH1 0x0 KECCAK256 DUP2 SWAP1 SSTORE POP PUSH1 0x4 SLOAD PUSH1 0x5 PUSH1 0x0 DUP4 PUSH20 0xFFFFFFFFFFFFFFFFFFFFFFFFFFFFFFFFFFFFFFFF AND PUSH20 0xFFFFFFFFFFFFFFFFFFFFFFFFFFFFFFFFFFFFFFFF AND DUP2 MSTORE PUSH1 0x20 ADD SWAP1 DUP2 MSTORE PUSH1 0x20 ADD PUSH1 0x0 KECCAK256 DUP2 SWAP1 SSTORE POP PUSH1 0x2 PUSH1 0x0 SLOAD EQ ISZERO PUSH2 0xB01 JUMPI PUSH1 0x40 MLOAD PUSH32 0x8C379A000000000000000000000000000000000000000000000000000000000 DUP2 MSTORE PUSH1 0x4 ADD PUSH2 0xAF8 SWAP1 PUSH2 0xEF1 JUMP JUMPDEST PUSH1 0x40 MLOAD DUP1 SWAP2 SUB SWAP1 REVERT JUMPDEST PUSH1 0x2 PUSH1 0x0 DUP2 SWAP1 SSTORE POP PUSH1 0x0 PUSH1 0x6 PUSH1 0x0 CALLER PUSH20 0xFFFFFFFFFFFFFFFFFFFFFFFFFFFFFFFFFFFFFFFF AND PUSH20 0xFFFFFFFFFFFFFFFFFFFFFFFFFFFFFFFFFFFFFFFF AND DUP2 MSTORE PUSH1 0x20 ADD SWAP1 DUP2 MSTORE PUSH1 0x20 ADD PUSH1 0x0 KECCAK256 SLOAD SWAP1 POP PUSH1 0x0 PUSH1 0x6 PUSH1 0x0 CALLER PUSH20 0xFFFFFFFFFFFFFFFFFFFFFFFFFFFFFFFFFFFFFFFF AND PUSH20 0xFFFFFFFFFFFFFFFFFFFFFFFFFFFFFFFFFFFFFFFF AND DUP2 MSTORE PUSH1 0x20 ADD SWAP1 DUP2 MSTORE PUSH1 0x20 ADD PUSH1 0x0 KECCAK256 DUP2 SWAP1 SSTORE POP DUP1 CALLER PUSH20 0xFFFFFFFFFFFFFFFFFFFFFFFFFFFFFFFFFFFFFFFF AND PUSH32 0xFC30CDDEA38E2BF4D6EA7D3F9ED3B6AD7F176419F4963BD81318067A4AEE73FE PUSH1 0x40 MLOAD PUSH1 0x40 MLOAD DUP1 SWAP2 SUB SWAP1 LOG3 PUSH1 0x0 PUSH1 0x1 PUSH1 0x0 SWAP1 SLOAD SWAP1 PUSH2 0x100 EXP SWAP1 DIV PUSH20 0xFFFFFFFFFFFFFFFFFFFFFFFFFFFFFFFFFFFFFFFF AND PUSH20 0xFFFFFFFFFFFFFFFFFFFFFFFFFFFFFFFFFFFFFFFF AND PUSH4 0xA9059CBB CALLER DUP5 PUSH1 0x40 MLOAD DUP4 PUSH4 0xFFFFFFFF AND PUSH1 0xE0 SHL DUP2 MSTORE PUSH1 0x4 ADD PUSH2 0xC35 SWAP3 SWAP2 SWAP1 PUSH2 0xEAD JUMP JUMPDEST PUSH1 0x20 PUSH1 0x40 MLOAD DUP1 DUP4 SUB DUP2 PUSH1 0x0 DUP8 DUP1 EXTCODESIZE ISZERO DUP1 ISZERO PUSH2 0xC4F JUMPI PUSH1 0x0 DUP1 REVERT JUMPDEST POP GAS CALL ISZERO DUP1 ISZERO PUSH2 0xC63 JUMPI RETURNDATASIZE PUSH1 0x0 DUP1 RETURNDATACOPY RETURNDATASIZE PUSH1 0x0 REVERT JUMPDEST POP POP POP POP PUSH1 0x40 MLOAD RETURNDATASIZE PUSH1 0x1F NOT PUSH1 0x1F DUP3 ADD AND DUP3 ADD DUP1 PUSH1 0x40 MSTORE POP DUP2 ADD SWAP1 PUSH2 0xC87 SWAP2 SWAP1 PUSH2 0xDCC JUMP JUMPDEST SWAP1 POP DUP1 PUSH2 0xCC0 JUMPI PUSH1 0x40 MLOAD PUSH32 0x90B8EC1800000000000000000000000000000000000000000000000000000000 DUP2 MSTORE PUSH1 0x4 ADD PUSH1 0x40 MLOAD DUP1 SWAP2 SUB SWAP1 REVERT JUMPDEST POP POP PUSH1 0x1 PUSH1 0x0 DUP2 SWAP1 SSTORE POP POP JUMP JUMPDEST PUSH1 0x6 PUSH1 0x20 MSTORE DUP1 PUSH1 0x0 MSTORE PUSH1 0x40 PUSH1 0x0 KECCAK256 PUSH1 0x0 SWAP2 POP SWAP1 POP SLOAD DUP2 JUMP JUMPDEST PUSH1 0x0 DUP1 PUSH1 0x7 SLOAD EQ ISZERO PUSH2 0xCFB JUMPI PUSH1 0x4 SLOAD SWAP1 POP PUSH2 0xD45 JUMP JUMPDEST PUSH1 0x7 SLOAD PUSH8 0xDE0B6B3A7640000 PUSH1 0x64 PUSH1 0x3 SLOAD TIMESTAMP PUSH2 0xD17 SWAP2 SWAP1 PUSH2 0x101E JUMP JUMPDEST PUSH2 0xD21 SWAP2 SWAP1 PUSH2 0xFC4 JUMP JUMPDEST PUSH2 0xD2B SWAP2 SWAP1 PUSH2 0xFC4 JUMP JUMPDEST PUSH2 0xD35 SWAP2 SWAP1 PUSH2 0xF93 JUMP JUMPDEST PUSH1 0x4 SLOAD PUSH2 0xD42 SWAP2 SWAP1 PUSH2 0xF3D JUMP JUMPDEST SWAP1 POP JUMPDEST SWAP1 JUMP JUMPDEST PUSH1 0x5 PUSH1 0x20 MSTORE DUP1 PUSH1 0x0 MSTORE PUSH1 0x40 PUSH1 0x0 KECCAK256 PUSH1 0x0 SWAP2 POP SWAP1 POP SLOAD DUP2 JUMP JUMPDEST PUSH1 0x0 DUP2 CALLDATALOAD SWAP1 POP PUSH2 0xD6F DUP2 PUSH2 0x115C JUMP JUMPDEST SWAP3 SWAP2 POP POP JUMP JUMPDEST PUSH1 0x0 DUP2 MLOAD SWAP1 POP PUSH2 0xD84 DUP2 PUSH2 0x1173 JUMP JUMPDEST SWAP3 SWAP2 POP POP JUMP JUMPDEST PUSH1 0x0 DUP2 CALLDATALOAD SWAP1 POP PUSH2 0xD99 DUP2 PUSH2 0x118A JUMP JUMPDEST SWAP3 SWAP2 POP POP JUMP JUMPDEST PUSH1 0x0 PUSH1 0x20 DUP3 DUP5 SUB SLT ISZERO PUSH2 0xDB5 JUMPI PUSH2 0xDB4 PUSH2 0x112E JUMP JUMPDEST JUMPDEST PUSH1 0x0 PUSH2 0xDC3 DUP5 DUP3 DUP6 ADD PUSH2 0xD60 JUMP JUMPDEST SWAP2 POP POP SWAP3 SWAP2 POP POP JUMP JUMPDEST PUSH1 0x0 PUSH1 0x20 DUP3 DUP5 SUB SLT ISZERO PUSH2 0xDE2 JUMPI PUSH2 0xDE1 PUSH2 0x112E JUMP JUMPDEST JUMPDEST PUSH1 0x0 PUSH2 0xDF0 DUP5 DUP3 DUP6 ADD PUSH2 0xD75 JUMP JUMPDEST SWAP2 POP POP SWAP3 SWAP2 POP POP JUMP JUMPDEST PUSH1 0x0 PUSH1 0x20 DUP3 DUP5 SUB SLT ISZERO PUSH2 0xE0F JUMPI PUSH2 0xE0E PUSH2 0x112E JUMP JUMPDEST JUMPDEST PUSH1 0x0 PUSH2 0xE1D DUP5 DUP3 DUP6 ADD PUSH2 0xD8A JUMP JUMPDEST SWAP2 POP POP SWAP3 SWAP2 POP POP JUMP JUMPDEST PUSH2 0xE2F DUP2 PUSH2 0x1052 JUMP JUMPDEST DUP3 MSTORE POP POP JUMP JUMPDEST PUSH2 0xE3E DUP2 PUSH2 0x109A JUMP JUMPDEST DUP3 MSTORE POP POP JUMP JUMPDEST PUSH1 0x0 PUSH2 0xE51 PUSH1 0x1F DUP4 PUSH2 0xF2C JUMP JUMPDEST SWAP2 POP PUSH2 0xE5C DUP3 PUSH2 0x1133 JUMP JUMPDEST PUSH1 0x20 DUP3 ADD SWAP1 POP SWAP2 SWAP1 POP JUMP JUMPDEST PUSH2 0xE70 DUP2 PUSH2 0x1090 JUMP JUMPDEST DUP3 MSTORE POP POP JUMP JUMPDEST PUSH1 0x0 PUSH1 0x60 DUP3 ADD SWAP1 POP PUSH2 0xE8B PUSH1 0x0 DUP4 ADD DUP7 PUSH2 0xE26 JUMP JUMPDEST PUSH2 0xE98 PUSH1 0x20 DUP4 ADD DUP6 PUSH2 0xE26 JUMP JUMPDEST PUSH2 0xEA5 PUSH1 0x40 DUP4 ADD DUP5 PUSH2 0xE67 JUMP JUMPDEST SWAP5 SWAP4 POP POP POP POP JUMP JUMPDEST PUSH1 0x0 PUSH1 0x40 DUP3 ADD SWAP1 POP PUSH2 0xEC2 PUSH1 0x0 DUP4 ADD DUP6 PUSH2 0xE26 JUMP JUMPDEST PUSH2 0xECF PUSH1 0x20 DUP4 ADD DUP5 PUSH2 0xE67 JUMP JUMPDEST SWAP4 SWAP3 POP POP POP JUMP JUMPDEST PUSH1 0x0 PUSH1 0x20 DUP3 ADD SWAP1 POP PUSH2 0xEEB PUSH1 0x0 DUP4 ADD DUP5 PUSH2 0xE35 JUMP JUMPDEST SWAP3 SWAP2 POP POP JUMP JUMPDEST PUSH1 0x0 PUSH1 0x20 DUP3 ADD SWAP1 POP DUP2 DUP2 SUB PUSH1 0x0 DUP4 ADD MSTORE PUSH2 0xF0A DUP2 PUSH2 0xE44 JUMP JUMPDEST SWAP1 POP SWAP2 SWAP1 POP JUMP JUMPDEST PUSH1 0x0 PUSH1 0x20 DUP3 ADD SWAP1 POP PUSH2 0xF26 PUSH1 0x0 DUP4 ADD DUP5 PUSH2 0xE67 JUMP JUMPDEST SWAP3 SWAP2 POP POP JUMP JUMPDEST PUSH1 0x0 DUP3 DUP3 MSTORE PUSH1 0x20 DUP3 ADD SWAP1 POP SWAP3 SWAP2 POP POP JUMP JUMPDEST PUSH1 0x0 PUSH2 0xF48 DUP3 PUSH2 0x1090 JUMP JUMPDEST SWAP2 POP PUSH2 0xF53 DUP4 PUSH2 0x1090 JUMP JUMPDEST SWAP3 POP DUP3 PUSH32 0xFFFFFFFFFFFFFFFFFFFFFFFFFFFFFFFFFFFFFFFFFFFFFFFFFFFFFFFFFFFFFFFF SUB DUP3 GT ISZERO PUSH2 0xF88 JUMPI PUSH2 0xF87 PUSH2 0x10D0 JUMP JUMPDEST JUMPDEST DUP3 DUP3 ADD SWAP1 POP SWAP3 SWAP2 POP POP JUMP JUMPDEST PUSH1 0x0 PUSH2 0xF9E DUP3 PUSH2 0x1090 JUMP JUMPDEST SWAP2 POP PUSH2 0xFA9 DUP4 PUSH2 0x1090 JUMP JUMPDEST SWAP3 POP DUP3 PUSH2 0xFB9 JUMPI PUSH2 0xFB8 PUSH2 0x10FF JUMP JUMPDEST JUMPDEST DUP3 DUP3 DIV SWAP1 POP SWAP3 SWAP2 POP POP JUMP JUMPDEST PUSH1 0x0 PUSH2 0xFCF DUP3 PUSH2 0x1090 JUMP JUMPDEST SWAP2 POP PUSH2 0xFDA DUP4 PUSH2 0x1090 JUMP JUMPDEST SWAP3 POP DUP2 PUSH32 0xFFFFFFFFFFFFFFFFFFFFFFFFFFFFFFFFFFFFFFFFFFFFFFFFFFFFFFFFFFFFFFFF DIV DUP4 GT DUP3 ISZERO ISZERO AND ISZERO PUSH2 0x1013 JUMPI PUSH2 0x1012 PUSH2 0x10D0 JUMP JUMPDEST JUMPDEST DUP3 DUP3 MUL SWAP1 POP SWAP3 SWAP2 POP POP JUMP JUMPDEST PUSH1 0x0 PUSH2 0x1029 DUP3 PUSH2 0x1090 JUMP JUMPDEST SWAP2 POP PUSH2 0x1034 DUP4 PUSH2 0x1090 JUMP JUMPDEST SWAP3 POP DUP3 DUP3 LT ISZERO PUSH2 0x1047 JUMPI PUSH2 0x1046 PUSH2 0x10D0 JUMP JUMPDEST JUMPDEST DUP3 DUP3 SUB SWAP1 POP SWAP3 SWAP2 POP POP JUMP JUMPDEST PUSH1 0x0 PUSH2 0x105D DUP3 PUSH2 0x1070 JUMP JUMPDEST SWAP1 POP SWAP2 SWAP1 POP JUMP JUMPDEST PUSH1 0x0 DUP2 ISZERO ISZERO SWAP1 POP SWAP2 SWAP1 POP JUMP JUMPDEST PUSH1 0x0 PUSH20 0xFFFFFFFFFFFFFFFFFFFFFFFFFFFFFFFFFFFFFFFF DUP3 AND SWAP1 POP SWAP2 SWAP1 POP JUMP JUMPDEST PUSH1 0x0 DUP2 SWAP1 POP SWAP2 SWAP1 POP JUMP JUMPDEST PUSH1 0x0 PUSH2 0x10A5 DUP3 PUSH2 0x10AC JUMP JUMPDEST SWAP1 POP SWAP2 SWAP1 POP JUMP JUMPDEST PUSH1 0x0 PUSH2 0x10B7 DUP3 PUSH2 0x10BE JUMP JUMPDEST SWAP1 POP SWAP2 SWAP1 POP JUMP JUMPDEST PUSH1 0x0 PUSH2 0x10C9 DUP3 PUSH2 0x1070 JUMP JUMPDEST SWAP1 POP SWAP2 SWAP1 POP JUMP JUMPDEST PUSH32 0x4E487B7100000000000000000000000000000000000000000000000000000000 PUSH1 0x0 MSTORE PUSH1 0x11 PUSH1 0x4 MSTORE PUSH1 0x24 PUSH1 0x0 REVERT JUMPDEST PUSH32 0x4E487B7100000000000000000000000000000000000000000000000000000000 PUSH1 0x0 MSTORE PUSH1 0x12 PUSH1 0x4 MSTORE PUSH1 0x24 PUSH1 0x0 REVERT JUMPDEST PUSH1 0x0 DUP1 REVERT JUMPDEST PUSH32 0x5265656E7472616E637947756172643A207265656E7472616E742063616C6C00 PUSH1 0x0 DUP3 ADD MSTORE POP JUMP JUMPDEST PUSH2 0x1165 DUP2 PUSH2 0x1052 JUMP JUMPDEST DUP2 EQ PUSH2 0x1170 JUMPI PUSH1 0x0 DUP1 REVERT JUMPDEST POP JUMP JUMPDEST PUSH2 0x117C DUP2 PUSH2 0x1064 JUMP JUMPDEST DUP2 EQ PUSH2 0x1187 JUMPI PUSH1 0x0 DUP1 REVERT JUMPDEST POP JUMP JUMPDEST PUSH2 0x1193 DUP2 PUSH2 0x1090 JUMP JUMPDEST DUP2 EQ PUSH2 0x119E JUMPI PUSH1 0x0 DUP1 REVERT JUMPDEST POP JUMP INVALID LOG2 PUSH5 0x6970667358 0x22 SLT KECCAK256 0xC4 DUP15 0xD1 MOD 0xF6 NUMBER 0xAF 0xA8 0xBF 0xD7 0xC0 0xA8 SWAP2 0x4C PUSH19 0xE078E9BBF45667A081CDCDEF79D3E2AE726473 PUSH16 0x6C634300080700330000000000000000 "
				},
				"gasEstimates": {
					"creation": {
						"codeDepositCost": "913400",
						"executionCost": "infinite",
						"totalCost": "infinite"
					},
					"external": {
						"REWARD_RATE()": "396",
						"claimReward()": "infinite",
						"earned(address)": "infinite",
						"getStaked(address)": "2886",
						"rewardPerToken()": "infinite",
						"s_balances(address)": "2859",
						"s_lastUpdateTime()": "2518",
						"s_rewardPerTokenStored()": "2452",
						"s_rewards(address)": "2858",
						"s_rewardsToken()": "2646",
						"s_stakingToken()": "2667",
						"s_userRewardPerTokenPaid(address)": "2902",
						"stake(uint256)": "infinite",
						"withdraw(uint256)": "infinite"
					}
				},
				"methodIdentifiers": {
					"REWARD_RATE()": "5997bb37",
					"claimReward()": "b88a802f",
					"earned(address)": "008cc262",
					"getStaked(address)": "399080ec",
					"rewardPerToken()": "cd3daf9d",
					"s_balances(address)": "ab32eb69",
					"s_lastUpdateTime()": "6aa0838f",
					"s_rewardPerTokenStored()": "304ac91b",
					"s_rewards(address)": "bea08151",
					"s_rewardsToken()": "0bd21c56",
					"s_stakingToken()": "adca9b72",
					"s_userRewardPerTokenPaid(address)": "f245ace4",
					"stake(uint256)": "a694fc3a",
					"withdraw(uint256)": "2e1a7d4d"
				}
			},
			"storageLayout": {
				"storage": [
					{
						"astId": 10,
						"contract": "contracts/DeFi/DeFiStaking.sol:Staking",
						"label": "_status",
						"offset": 0,
						"slot": "0",
						"type": "t_uint256"
					},
					{
						"astId": 130,
						"contract": "contracts/DeFi/DeFiStaking.sol:Staking",
						"label": "s_rewardsToken",
						"offset": 0,
						"slot": "1",
						"type": "t_contract(IERC20)117"
					},
					{
						"astId": 133,
						"contract": "contracts/DeFi/DeFiStaking.sol:Staking",
						"label": "s_stakingToken",
						"offset": 0,
						"slot": "2",
						"type": "t_contract(IERC20)117"
					},
					{
						"astId": 138,
						"contract": "contracts/DeFi/DeFiStaking.sol:Staking",
						"label": "s_lastUpdateTime",
						"offset": 0,
						"slot": "3",
						"type": "t_uint256"
					},
					{
						"astId": 140,
						"contract": "contracts/DeFi/DeFiStaking.sol:Staking",
						"label": "s_rewardPerTokenStored",
						"offset": 0,
						"slot": "4",
						"type": "t_uint256"
					},
					{
						"astId": 144,
						"contract": "contracts/DeFi/DeFiStaking.sol:Staking",
						"label": "s_userRewardPerTokenPaid",
						"offset": 0,
						"slot": "5",
						"type": "t_mapping(t_address,t_uint256)"
					},
					{
						"astId": 148,
						"contract": "contracts/DeFi/DeFiStaking.sol:Staking",
						"label": "s_rewards",
						"offset": 0,
						"slot": "6",
						"type": "t_mapping(t_address,t_uint256)"
					},
					{
						"astId": 150,
						"contract": "contracts/DeFi/DeFiStaking.sol:Staking",
						"label": "s_totalSupply",
						"offset": 0,
						"slot": "7",
						"type": "t_uint256"
					},
					{
						"astId": 154,
						"contract": "contracts/DeFi/DeFiStaking.sol:Staking",
						"label": "s_balances",
						"offset": 0,
						"slot": "8",
						"type": "t_mapping(t_address,t_uint256)"
					}
				],
				"types": {
					"t_address": {
						"encoding": "inplace",
						"label": "address",
						"numberOfBytes": "20"
					},
					"t_contract(IERC20)117": {
						"encoding": "inplace",
						"label": "contract IERC20",
						"numberOfBytes": "20"
					},
					"t_mapping(t_address,t_uint256)": {
						"encoding": "mapping",
						"key": "t_address",
						"label": "mapping(address => uint256)",
						"numberOfBytes": "32",
						"value": "t_uint256"
					},
					"t_uint256": {
						"encoding": "inplace",
						"label": "uint256",
						"numberOfBytes": "32"
					}
				}
			},
			"userdoc": {
				"kind": "user",
				"methods": {
					"claimReward()": {
						"notice": "User claims their tokens"
					},
					"earned(address)": {
						"notice": "How much reward a user has earned"
					},
					"rewardPerToken()": {
						"notice": "How much reward a token gets based on how long it's been in and during which \"snapshots\""
					},
					"stake(uint256)": {
						"notice": "Deposit tokens into this contract"
					},
					"withdraw(uint256)": {
						"notice": "Withdraw tokens from this contract"
					}
				},
				"version": 1
			}
		}
	}
}