{
	"contracts/DeFi/CPAMM.sol": {
		"CPAMM": {
			"abi": [
				{
					"inputs": [
						{
							"internalType": "address",
							"name": "_token0",
							"type": "address"
						},
						{
							"internalType": "address",
							"name": "_token1",
							"type": "address"
						}
					],
					"stateMutability": "nonpayable",
					"type": "constructor"
				},
				{
					"inputs": [
						{
							"internalType": "uint256",
							"name": "_amount0",
							"type": "uint256"
						},
						{
							"internalType": "uint256",
							"name": "_amount1",
							"type": "uint256"
						}
					],
					"name": "addLiquidity",
					"outputs": [
						{
							"internalType": "uint256",
							"name": "shares",
							"type": "uint256"
						}
					],
					"stateMutability": "nonpayable",
					"type": "function"
				},
				{
					"inputs": [
						{
							"internalType": "address",
							"name": "",
							"type": "address"
						}
					],
					"name": "balanceOf",
					"outputs": [
						{
							"internalType": "uint256",
							"name": "",
							"type": "uint256"
						}
					],
					"stateMutability": "view",
					"type": "function"
				},
				{
					"inputs": [
						{
							"internalType": "address",
							"name": "_lp",
							"type": "address"
						}
					],
					"name": "getShares",
					"outputs": [
						{
							"internalType": "uint256",
							"name": "",
							"type": "uint256"
						}
					],
					"stateMutability": "view",
					"type": "function"
				},
				{
					"inputs": [
						{
							"internalType": "uint256",
							"name": "_shares",
							"type": "uint256"
						}
					],
					"name": "removeLiquidity",
					"outputs": [
						{
							"internalType": "uint256",
							"name": "amount0",
							"type": "uint256"
						},
						{
							"internalType": "uint256",
							"name": "amount1",
							"type": "uint256"
						}
					],
					"stateMutability": "nonpayable",
					"type": "function"
				},
				{
					"inputs": [],
					"name": "reserve0",
					"outputs": [
						{
							"internalType": "uint256",
							"name": "",
							"type": "uint256"
						}
					],
					"stateMutability": "view",
					"type": "function"
				},
				{
					"inputs": [],
					"name": "reserve1",
					"outputs": [
						{
							"internalType": "uint256",
							"name": "",
							"type": "uint256"
						}
					],
					"stateMutability": "view",
					"type": "function"
				},
				{
					"inputs": [
						{
							"internalType": "address",
							"name": "_tokenIn",
							"type": "address"
						},
						{
							"internalType": "uint256",
							"name": "_amountIn",
							"type": "uint256"
						}
					],
					"name": "swap",
					"outputs": [
						{
							"internalType": "uint256",
							"name": "amountOut",
							"type": "uint256"
						}
					],
					"stateMutability": "nonpayable",
					"type": "function"
				},
				{
					"inputs": [],
					"name": "token0",
					"outputs": [
						{
							"internalType": "contract IERC20",
							"name": "",
							"type": "address"
						}
					],
					"stateMutability": "view",
					"type": "function"
				},
				{
					"inputs": [],
					"name": "token1",
					"outputs": [
						{
							"internalType": "contract IERC20",
							"name": "",
							"type": "address"
						}
					],
					"stateMutability": "view",
					"type": "function"
				},
				{
					"inputs": [],
					"name": "totalSupply",
					"outputs": [
						{
							"internalType": "uint256",
							"name": "",
							"type": "uint256"
						}
					],
					"stateMutability": "view",
					"type": "function"
				}
			],
			"devdoc": {
				"kind": "dev",
				"methods": {},
				"version": 1
			},
			"evm": {
				"assembly": "    /* \"contracts/DeFi/CPAMM.sol\":83:4751  contract CPAMM {... */\n  mstore(0x40, 0xc0)\n    /* \"contracts/DeFi/CPAMM.sol\":341:601  constructor(address _token0, address _token1) {... */\n  callvalue\n  dup1\n  iszero\n  tag_1\n  jumpi\n  0x00\n  dup1\n  revert\ntag_1:\n  pop\n  mload(0x40)\n  sub(codesize, bytecodeSize)\n  dup1\n  bytecodeSize\n  dup4\n  codecopy\n  dup2\n  dup2\n  add\n  0x40\n  mstore\n  dup2\n  add\n  swap1\n  tag_2\n  swap2\n  swap1\n  tag_3\n  jump\t// in\ntag_2:\n    /* \"contracts/DeFi/CPAMM.sol\":424:425  0 */\n  0x00\n    /* \"contracts/DeFi/CPAMM.sol\":405:426  _token0 != address(0) */\n  0xffffffffffffffffffffffffffffffffffffffff\n  and\n    /* \"contracts/DeFi/CPAMM.sol\":405:412  _token0 */\n  dup3\n    /* \"contracts/DeFi/CPAMM.sol\":405:426  _token0 != address(0) */\n  0xffffffffffffffffffffffffffffffffffffffff\n  and\n  eq\n  iszero\n    /* \"contracts/DeFi/CPAMM.sol\":405:451  _token0 != address(0) && _token1 != address(0) */\n  dup1\n  iszero\n  tag_6\n  jumpi\n  pop\n    /* \"contracts/DeFi/CPAMM.sol\":449:450  0 */\n  0x00\n    /* \"contracts/DeFi/CPAMM.sol\":430:451  _token1 != address(0) */\n  0xffffffffffffffffffffffffffffffffffffffff\n  and\n    /* \"contracts/DeFi/CPAMM.sol\":430:437  _token1 */\n  dup2\n    /* \"contracts/DeFi/CPAMM.sol\":430:451  _token1 != address(0) */\n  0xffffffffffffffffffffffffffffffffffffffff\n  and\n  eq\n  iszero\n    /* \"contracts/DeFi/CPAMM.sol\":405:451  _token0 != address(0) && _token1 != address(0) */\ntag_6:\n    /* \"contracts/DeFi/CPAMM.sol\":397:468  require(_token0 != address(0) && _token1 != address(0), \"zero address\") */\n  tag_7\n  jumpi\n  mload(0x40)\n  0x08c379a000000000000000000000000000000000000000000000000000000000\n  dup2\n  mstore\n  0x04\n  add\n  tag_8\n  swap1\n  tag_9\n  jump\t// in\ntag_8:\n  mload(0x40)\n  dup1\n  swap2\n  sub\n  swap1\n  revert\ntag_7:\n    /* \"contracts/DeFi/CPAMM.sol\":497:504  _token1 */\n  dup1\n    /* \"contracts/DeFi/CPAMM.sol\":486:504  _token0 != _token1 */\n  0xffffffffffffffffffffffffffffffffffffffff\n  and\n    /* \"contracts/DeFi/CPAMM.sol\":486:493  _token0 */\n  dup3\n    /* \"contracts/DeFi/CPAMM.sol\":486:504  _token0 != _token1 */\n  0xffffffffffffffffffffffffffffffffffffffff\n  and\n  sub\n    /* \"contracts/DeFi/CPAMM.sol\":478:526  require(_token0 != _token1, \"duplicate address\") */\n  tag_10\n  jumpi\n  mload(0x40)\n  0x08c379a000000000000000000000000000000000000000000000000000000000\n  dup2\n  mstore\n  0x04\n  add\n  tag_11\n  swap1\n  tag_12\n  jump\t// in\ntag_11:\n  mload(0x40)\n  dup1\n  swap2\n  sub\n  swap1\n  revert\ntag_10:\n    /* \"contracts/DeFi/CPAMM.sol\":552:559  _token0 */\n  dup2\n    /* \"contracts/DeFi/CPAMM.sol\":536:560  token0 = IERC20(_token0) */\n  0xffffffffffffffffffffffffffffffffffffffff\n  and\n  0x80\n  dup2\n  0xffffffffffffffffffffffffffffffffffffffff\n  and\n  dup2\n  mstore\n  pop\n  pop\n    /* \"contracts/DeFi/CPAMM.sol\":586:593  _token1 */\n  dup1\n    /* \"contracts/DeFi/CPAMM.sol\":570:594  token1 = IERC20(_token1) */\n  0xffffffffffffffffffffffffffffffffffffffff\n  and\n  0xa0\n  dup2\n  0xffffffffffffffffffffffffffffffffffffffff\n  and\n  dup2\n  mstore\n  pop\n  pop\n    /* \"contracts/DeFi/CPAMM.sol\":341:601  constructor(address _token0, address _token1) {... */\n  pop\n  pop\n    /* \"contracts/DeFi/CPAMM.sol\":83:4751  contract CPAMM {... */\n  jump(tag_13)\n    /* \"#utility.yul\":88:205   */\ntag_15:\n    /* \"#utility.yul\":197:198   */\n  0x00\n    /* \"#utility.yul\":194:195   */\n  dup1\n    /* \"#utility.yul\":187:199   */\n  revert\n    /* \"#utility.yul\":334:460   */\ntag_17:\n    /* \"#utility.yul\":371:378   */\n  0x00\n    /* \"#utility.yul\":411:453   */\n  0xffffffffffffffffffffffffffffffffffffffff\n    /* \"#utility.yul\":404:409   */\n  dup3\n    /* \"#utility.yul\":400:454   */\n  and\n    /* \"#utility.yul\":389:454   */\n  swap1\n  pop\n    /* \"#utility.yul\":334:460   */\n  swap2\n  swap1\n  pop\n  jump\t// out\n    /* \"#utility.yul\":466:562   */\ntag_18:\n    /* \"#utility.yul\":503:510   */\n  0x00\n    /* \"#utility.yul\":532:556   */\n  tag_32\n    /* \"#utility.yul\":550:555   */\n  dup3\n    /* \"#utility.yul\":532:556   */\n  tag_17\n  jump\t// in\ntag_32:\n    /* \"#utility.yul\":521:556   */\n  swap1\n  pop\n    /* \"#utility.yul\":466:562   */\n  swap2\n  swap1\n  pop\n  jump\t// out\n    /* \"#utility.yul\":568:690   */\ntag_19:\n    /* \"#utility.yul\":641:665   */\n  tag_34\n    /* \"#utility.yul\":659:664   */\n  dup2\n    /* \"#utility.yul\":641:665   */\n  tag_18\n  jump\t// in\ntag_34:\n    /* \"#utility.yul\":634:639   */\n  dup2\n    /* \"#utility.yul\":631:666   */\n  eq\n    /* \"#utility.yul\":621:684   */\n  tag_35\n  jumpi\n    /* \"#utility.yul\":680:681   */\n  0x00\n    /* \"#utility.yul\":677:678   */\n  dup1\n    /* \"#utility.yul\":670:682   */\n  revert\n    /* \"#utility.yul\":621:684   */\ntag_35:\n    /* \"#utility.yul\":568:690   */\n  pop\n  jump\t// out\n    /* \"#utility.yul\":696:839   */\ntag_20:\n    /* \"#utility.yul\":753:758   */\n  0x00\n    /* \"#utility.yul\":784:790   */\n  dup2\n    /* \"#utility.yul\":778:791   */\n  mload\n    /* \"#utility.yul\":769:791   */\n  swap1\n  pop\n    /* \"#utility.yul\":800:833   */\n  tag_37\n    /* \"#utility.yul\":827:832   */\n  dup2\n    /* \"#utility.yul\":800:833   */\n  tag_19\n  jump\t// in\ntag_37:\n    /* \"#utility.yul\":696:839   */\n  swap3\n  swap2\n  pop\n  pop\n  jump\t// out\n    /* \"#utility.yul\":845:1352   */\ntag_3:\n    /* \"#utility.yul\":924:930   */\n  0x00\n    /* \"#utility.yul\":932:938   */\n  dup1\n    /* \"#utility.yul\":981:983   */\n  0x40\n    /* \"#utility.yul\":969:978   */\n  dup4\n    /* \"#utility.yul\":960:967   */\n  dup6\n    /* \"#utility.yul\":956:979   */\n  sub\n    /* \"#utility.yul\":952:984   */\n  slt\n    /* \"#utility.yul\":949:1068   */\n  iszero\n  tag_39\n  jumpi\n    /* \"#utility.yul\":987:1066   */\n  tag_40\n  tag_15\n  jump\t// in\ntag_40:\n    /* \"#utility.yul\":949:1068   */\ntag_39:\n    /* \"#utility.yul\":1107:1108   */\n  0x00\n    /* \"#utility.yul\":1132:1196   */\n  tag_41\n    /* \"#utility.yul\":1188:1195   */\n  dup6\n    /* \"#utility.yul\":1179:1185   */\n  dup3\n    /* \"#utility.yul\":1168:1177   */\n  dup7\n    /* \"#utility.yul\":1164:1186   */\n  add\n    /* \"#utility.yul\":1132:1196   */\n  tag_20\n  jump\t// in\ntag_41:\n    /* \"#utility.yul\":1122:1196   */\n  swap3\n  pop\n    /* \"#utility.yul\":1078:1206   */\n  pop\n    /* \"#utility.yul\":1245:1247   */\n  0x20\n    /* \"#utility.yul\":1271:1335   */\n  tag_42\n    /* \"#utility.yul\":1327:1334   */\n  dup6\n    /* \"#utility.yul\":1318:1324   */\n  dup3\n    /* \"#utility.yul\":1307:1316   */\n  dup7\n    /* \"#utility.yul\":1303:1325   */\n  add\n    /* \"#utility.yul\":1271:1335   */\n  tag_20\n  jump\t// in\ntag_42:\n    /* \"#utility.yul\":1261:1335   */\n  swap2\n  pop\n    /* \"#utility.yul\":1216:1345   */\n  pop\n    /* \"#utility.yul\":845:1352   */\n  swap3\n  pop\n  swap3\n  swap1\n  pop\n  jump\t// out\n    /* \"#utility.yul\":1358:1527   */\ntag_21:\n    /* \"#utility.yul\":1442:1453   */\n  0x00\n    /* \"#utility.yul\":1476:1482   */\n  dup3\n    /* \"#utility.yul\":1471:1474   */\n  dup3\n    /* \"#utility.yul\":1464:1483   */\n  mstore\n    /* \"#utility.yul\":1516:1520   */\n  0x20\n    /* \"#utility.yul\":1511:1514   */\n  dup3\n    /* \"#utility.yul\":1507:1521   */\n  add\n    /* \"#utility.yul\":1492:1521   */\n  swap1\n  pop\n    /* \"#utility.yul\":1358:1527   */\n  swap3\n  swap2\n  pop\n  pop\n  jump\t// out\n    /* \"#utility.yul\":1533:1695   */\ntag_22:\n    /* \"#utility.yul\":1673:1687   */\n  0x7a65726f20616464726573730000000000000000000000000000000000000000\n    /* \"#utility.yul\":1669:1670   */\n  0x00\n    /* \"#utility.yul\":1661:1667   */\n  dup3\n    /* \"#utility.yul\":1657:1671   */\n  add\n    /* \"#utility.yul\":1650:1688   */\n  mstore\n    /* \"#utility.yul\":1533:1695   */\n  pop\n  jump\t// out\n    /* \"#utility.yul\":1701:2067   */\ntag_23:\n    /* \"#utility.yul\":1843:1846   */\n  0x00\n    /* \"#utility.yul\":1864:1931   */\n  tag_46\n    /* \"#utility.yul\":1928:1930   */\n  0x0c\n    /* \"#utility.yul\":1923:1926   */\n  dup4\n    /* \"#utility.yul\":1864:1931   */\n  tag_21\n  jump\t// in\ntag_46:\n    /* \"#utility.yul\":1857:1931   */\n  swap2\n  pop\n    /* \"#utility.yul\":1940:2033   */\n  tag_47\n    /* \"#utility.yul\":2029:2032   */\n  dup3\n    /* \"#utility.yul\":1940:2033   */\n  tag_22\n  jump\t// in\ntag_47:\n    /* \"#utility.yul\":2058:2060   */\n  0x20\n    /* \"#utility.yul\":2053:2056   */\n  dup3\n    /* \"#utility.yul\":2049:2061   */\n  add\n    /* \"#utility.yul\":2042:2061   */\n  swap1\n  pop\n    /* \"#utility.yul\":1701:2067   */\n  swap2\n  swap1\n  pop\n  jump\t// out\n    /* \"#utility.yul\":2073:2492   */\ntag_9:\n    /* \"#utility.yul\":2239:2243   */\n  0x00\n    /* \"#utility.yul\":2277:2279   */\n  0x20\n    /* \"#utility.yul\":2266:2275   */\n  dup3\n    /* \"#utility.yul\":2262:2280   */\n  add\n    /* \"#utility.yul\":2254:2280   */\n  swap1\n  pop\n    /* \"#utility.yul\":2326:2335   */\n  dup2\n    /* \"#utility.yul\":2320:2324   */\n  dup2\n    /* \"#utility.yul\":2316:2336   */\n  sub\n    /* \"#utility.yul\":2312:2313   */\n  0x00\n    /* \"#utility.yul\":2301:2310   */\n  dup4\n    /* \"#utility.yul\":2297:2314   */\n  add\n    /* \"#utility.yul\":2290:2337   */\n  mstore\n    /* \"#utility.yul\":2354:2485   */\n  tag_49\n    /* \"#utility.yul\":2480:2484   */\n  dup2\n    /* \"#utility.yul\":2354:2485   */\n  tag_23\n  jump\t// in\ntag_49:\n    /* \"#utility.yul\":2346:2485   */\n  swap1\n  pop\n    /* \"#utility.yul\":2073:2492   */\n  swap2\n  swap1\n  pop\n  jump\t// out\n    /* \"#utility.yul\":2498:2665   */\ntag_24:\n    /* \"#utility.yul\":2638:2657   */\n  0x6475706c69636174652061646472657373000000000000000000000000000000\n    /* \"#utility.yul\":2634:2635   */\n  0x00\n    /* \"#utility.yul\":2626:2632   */\n  dup3\n    /* \"#utility.yul\":2622:2636   */\n  add\n    /* \"#utility.yul\":2615:2658   */\n  mstore\n    /* \"#utility.yul\":2498:2665   */\n  pop\n  jump\t// out\n    /* \"#utility.yul\":2671:3037   */\ntag_25:\n    /* \"#utility.yul\":2813:2816   */\n  0x00\n    /* \"#utility.yul\":2834:2901   */\n  tag_52\n    /* \"#utility.yul\":2898:2900   */\n  0x11\n    /* \"#utility.yul\":2893:2896   */\n  dup4\n    /* \"#utility.yul\":2834:2901   */\n  tag_21\n  jump\t// in\ntag_52:\n    /* \"#utility.yul\":2827:2901   */\n  swap2\n  pop\n    /* \"#utility.yul\":2910:3003   */\n  tag_53\n    /* \"#utility.yul\":2999:3002   */\n  dup3\n    /* \"#utility.yul\":2910:3003   */\n  tag_24\n  jump\t// in\ntag_53:\n    /* \"#utility.yul\":3028:3030   */\n  0x20\n    /* \"#utility.yul\":3023:3026   */\n  dup3\n    /* \"#utility.yul\":3019:3031   */\n  add\n    /* \"#utility.yul\":3012:3031   */\n  swap1\n  pop\n    /* \"#utility.yul\":2671:3037   */\n  swap2\n  swap1\n  pop\n  jump\t// out\n    /* \"#utility.yul\":3043:3462   */\ntag_12:\n    /* \"#utility.yul\":3209:3213   */\n  0x00\n    /* \"#utility.yul\":3247:3249   */\n  0x20\n    /* \"#utility.yul\":3236:3245   */\n  dup3\n    /* \"#utility.yul\":3232:3250   */\n  add\n    /* \"#utility.yul\":3224:3250   */\n  swap1\n  pop\n    /* \"#utility.yul\":3296:3305   */\n  dup2\n    /* \"#utility.yul\":3290:3294   */\n  dup2\n    /* \"#utility.yul\":3286:3306   */\n  sub\n    /* \"#utility.yul\":3282:3283   */\n  0x00\n    /* \"#utility.yul\":3271:3280   */\n  dup4\n    /* \"#utility.yul\":3267:3284   */\n  add\n    /* \"#utility.yul\":3260:3307   */\n  mstore\n    /* \"#utility.yul\":3324:3455   */\n  tag_55\n    /* \"#utility.yul\":3450:3454   */\n  dup2\n    /* \"#utility.yul\":3324:3455   */\n  tag_25\n  jump\t// in\ntag_55:\n    /* \"#utility.yul\":3316:3455   */\n  swap1\n  pop\n    /* \"#utility.yul\":3043:3462   */\n  swap2\n  swap1\n  pop\n  jump\t// out\n    /* \"contracts/DeFi/CPAMM.sol\":83:4751  contract CPAMM {... */\ntag_13:\n  mload(0x80)\n  mload(0xa0)\n  codecopy(0x00, dataOffset(sub_0), dataSize(sub_0))\n  0x00\n  assignImmutable(\"0xe4b1702d9298fee62dfeccc57d322a463ad55ca201256d01f62b45b2e1c21c10\")\n  0x00\n  assignImmutable(\"0xceebf77a833b30520287ddd9478ff51abbdffa30aa90a8d655dba0e8a79ce0c1\")\n  return(0x00, dataSize(sub_0))\nstop\n\nsub_0: assembly {\n        /* \"contracts/DeFi/CPAMM.sol\":83:4751  contract CPAMM {... */\n      mstore(0x40, 0x80)\n      callvalue\n      dup1\n      iszero\n      tag_1\n      jumpi\n      0x00\n      dup1\n      revert\n    tag_1:\n      pop\n      jumpi(tag_2, lt(calldatasize, 0x04))\n      shr(0xe0, calldataload(0x00))\n      dup1\n      0x9c8f9f23\n      gt\n      tag_13\n      jumpi\n      dup1\n      0x9c8f9f23\n      eq\n      tag_8\n      jumpi\n      dup1\n      0x9cd441da\n      eq\n      tag_9\n      jumpi\n      dup1\n      0xd004f0f7\n      eq\n      tag_10\n      jumpi\n      dup1\n      0xd21220a7\n      eq\n      tag_11\n      jumpi\n      dup1\n      0xf04da65b\n      eq\n      tag_12\n      jumpi\n      jump(tag_2)\n    tag_13:\n      dup1\n      0x0dfe1681\n      eq\n      tag_3\n      jumpi\n      dup1\n      0x18160ddd\n      eq\n      tag_4\n      jumpi\n      dup1\n      0x443cb4bc\n      eq\n      tag_5\n      jumpi\n      dup1\n      0x5a76f25e\n      eq\n      tag_6\n      jumpi\n      dup1\n      0x70a08231\n      eq\n      tag_7\n      jumpi\n    tag_2:\n      0x00\n      dup1\n      revert\n        /* \"contracts/DeFi/CPAMM.sol\":122:152  IERC20 public immutable token0 */\n    tag_3:\n      tag_14\n      tag_15\n      jump\t// in\n    tag_14:\n      mload(0x40)\n      tag_16\n      swap2\n      swap1\n      tag_17\n      jump\t// in\n    tag_16:\n      mload(0x40)\n      dup1\n      swap2\n      sub\n      swap1\n      return\n        /* \"contracts/DeFi/CPAMM.sol\":248:271  uint public totalSupply */\n    tag_4:\n      tag_18\n      tag_19\n      jump\t// in\n    tag_18:\n      mload(0x40)\n      tag_20\n      swap2\n      swap1\n      tag_21\n      jump\t// in\n    tag_20:\n      mload(0x40)\n      dup1\n      swap2\n      sub\n      swap1\n      return\n        /* \"contracts/DeFi/CPAMM.sol\":195:215  uint public reserve0 */\n    tag_5:\n      tag_22\n      tag_23\n      jump\t// in\n    tag_22:\n      mload(0x40)\n      tag_24\n      swap2\n      swap1\n      tag_21\n      jump\t// in\n    tag_24:\n      mload(0x40)\n      dup1\n      swap2\n      sub\n      swap1\n      return\n        /* \"contracts/DeFi/CPAMM.sol\":221:241  uint public reserve1 */\n    tag_6:\n      tag_25\n      tag_26\n      jump\t// in\n    tag_25:\n      mload(0x40)\n      tag_27\n      swap2\n      swap1\n      tag_21\n      jump\t// in\n    tag_27:\n      mload(0x40)\n      dup1\n      swap2\n      sub\n      swap1\n      return\n        /* \"contracts/DeFi/CPAMM.sol\":293:334  mapping(address => uint) public balanceOf */\n    tag_7:\n      tag_28\n      0x04\n      dup1\n      calldatasize\n      sub\n      dup2\n      add\n      swap1\n      tag_29\n      swap2\n      swap1\n      tag_30\n      jump\t// in\n    tag_29:\n      tag_31\n      jump\t// in\n    tag_28:\n      mload(0x40)\n      tag_32\n      swap2\n      swap1\n      tag_21\n      jump\t// in\n    tag_32:\n      mload(0x40)\n      dup1\n      swap2\n      sub\n      swap1\n      return\n        /* \"contracts/DeFi/CPAMM.sol\":3355:4244  function removeLiquidity(uint _shares)... */\n    tag_8:\n      tag_33\n      0x04\n      dup1\n      calldatasize\n      sub\n      dup2\n      add\n      swap1\n      tag_34\n      swap2\n      swap1\n      tag_35\n      jump\t// in\n    tag_34:\n      tag_36\n      jump\t// in\n    tag_33:\n      mload(0x40)\n      tag_37\n      swap3\n      swap2\n      swap1\n      tag_38\n      jump\t// in\n    tag_37:\n      mload(0x40)\n      dup1\n      swap2\n      sub\n      swap1\n      return\n        /* \"contracts/DeFi/CPAMM.sol\":2225:3349  function addLiquidity(uint _amount0, uint _amount1)... */\n    tag_9:\n      tag_39\n      0x04\n      dup1\n      calldatasize\n      sub\n      dup2\n      add\n      swap1\n      tag_40\n      swap2\n      swap1\n      tag_41\n      jump\t// in\n    tag_40:\n      tag_42\n      jump\t// in\n    tag_39:\n      mload(0x40)\n      tag_43\n      swap2\n      swap1\n      tag_21\n      jump\t// in\n    tag_43:\n      mload(0x40)\n      dup1\n      swap2\n      sub\n      swap1\n      return\n        /* \"contracts/DeFi/CPAMM.sol\":1001:2219  function swap(address _tokenIn, uint _amountIn)... */\n    tag_10:\n      tag_44\n      0x04\n      dup1\n      calldatasize\n      sub\n      dup2\n      add\n      swap1\n      tag_45\n      swap2\n      swap1\n      tag_46\n      jump\t// in\n    tag_45:\n      tag_47\n      jump\t// in\n    tag_44:\n      mload(0x40)\n      tag_48\n      swap2\n      swap1\n      tag_21\n      jump\t// in\n    tag_48:\n      mload(0x40)\n      dup1\n      swap2\n      sub\n      swap1\n      return\n        /* \"contracts/DeFi/CPAMM.sol\":158:188  IERC20 public immutable token1 */\n    tag_11:\n      tag_49\n      tag_50\n      jump\t// in\n    tag_49:\n      mload(0x40)\n      tag_51\n      swap2\n      swap1\n      tag_17\n      jump\t// in\n    tag_51:\n      mload(0x40)\n      dup1\n      swap2\n      sub\n      swap1\n      return\n        /* \"contracts/DeFi/CPAMM.sol\":4650:4749  function getShares(address _lp) external view returns (uint) {... */\n    tag_12:\n      tag_52\n      0x04\n      dup1\n      calldatasize\n      sub\n      dup2\n      add\n      swap1\n      tag_53\n      swap2\n      swap1\n      tag_30\n      jump\t// in\n    tag_53:\n      tag_54\n      jump\t// in\n    tag_52:\n      mload(0x40)\n      tag_55\n      swap2\n      swap1\n      tag_21\n      jump\t// in\n    tag_55:\n      mload(0x40)\n      dup1\n      swap2\n      sub\n      swap1\n      return\n        /* \"contracts/DeFi/CPAMM.sol\":122:152  IERC20 public immutable token0 */\n    tag_15:\n      immutable(\"0xceebf77a833b30520287ddd9478ff51abbdffa30aa90a8d655dba0e8a79ce0c1\")\n      dup2\n      jump\t// out\n        /* \"contracts/DeFi/CPAMM.sol\":248:271  uint public totalSupply */\n    tag_19:\n      sload(0x02)\n      dup2\n      jump\t// out\n        /* \"contracts/DeFi/CPAMM.sol\":195:215  uint public reserve0 */\n    tag_23:\n      sload(0x00)\n      dup2\n      jump\t// out\n        /* \"contracts/DeFi/CPAMM.sol\":221:241  uint public reserve1 */\n    tag_26:\n      sload(0x01)\n      dup2\n      jump\t// out\n        /* \"contracts/DeFi/CPAMM.sol\":293:334  mapping(address => uint) public balanceOf */\n    tag_31:\n      mstore(0x20, 0x03)\n      dup1\n      0x00\n      mstore\n      keccak256(0x00, 0x40)\n      0x00\n      swap2\n      pop\n      swap1\n      pop\n      sload\n      dup2\n      jump\t// out\n        /* \"contracts/DeFi/CPAMM.sol\":3355:4244  function removeLiquidity(uint _shares)... */\n    tag_36:\n        /* \"contracts/DeFi/CPAMM.sol\":3428:3440  uint amount0 */\n      0x00\n        /* \"contracts/DeFi/CPAMM.sol\":3442:3454  uint amount1 */\n      dup1\n        /* \"contracts/DeFi/CPAMM.sol\":3488:3489  0 */\n      0x00\n        /* \"contracts/DeFi/CPAMM.sol\":3478:3485  _shares */\n      dup4\n        /* \"contracts/DeFi/CPAMM.sol\":3478:3489  _shares > 0 */\n      gt\n        /* \"contracts/DeFi/CPAMM.sol\":3470:3515  require(_shares > 0, \"shares cannot be zero\") */\n      tag_57\n      jumpi\n      mload(0x40)\n      0x08c379a000000000000000000000000000000000000000000000000000000000\n      dup2\n      mstore\n      0x04\n      add\n      tag_58\n      swap1\n      tag_59\n      jump\t// in\n    tag_58:\n      mload(0x40)\n      dup1\n      swap2\n      sub\n      swap1\n      revert\n    tag_57:\n        /* \"contracts/DeFi/CPAMM.sol\":3544:3553  balanceOf */\n      0x03\n        /* \"contracts/DeFi/CPAMM.sol\":3544:3565  balanceOf[msg.sender] */\n      0x00\n        /* \"contracts/DeFi/CPAMM.sol\":3554:3564  msg.sender */\n      caller\n        /* \"contracts/DeFi/CPAMM.sol\":3544:3565  balanceOf[msg.sender] */\n      0xffffffffffffffffffffffffffffffffffffffff\n      and\n      0xffffffffffffffffffffffffffffffffffffffff\n      and\n      dup2\n      mstore\n      0x20\n      add\n      swap1\n      dup2\n      mstore\n      0x20\n      add\n      0x00\n      keccak256\n      sload\n        /* \"contracts/DeFi/CPAMM.sol\":3533:3540  _shares */\n      dup4\n        /* \"contracts/DeFi/CPAMM.sol\":3533:3565  _shares <= balanceOf[msg.sender] */\n      gt\n      iszero\n        /* \"contracts/DeFi/CPAMM.sol\":3525:3584  require(_shares <= balanceOf[msg.sender], \"invalid shares\") */\n      tag_60\n      jumpi\n      mload(0x40)\n      0x08c379a000000000000000000000000000000000000000000000000000000000\n      dup2\n      mstore\n      0x04\n      add\n      tag_61\n      swap1\n      tag_62\n      jump\t// in\n    tag_61:\n      mload(0x40)\n      dup1\n      swap2\n      sub\n      swap1\n      revert\n    tag_60:\n        /* \"contracts/DeFi/CPAMM.sol\":3699:3708  uint bal0 */\n      0x00\n        /* \"contracts/DeFi/CPAMM.sol\":3711:3717  token0 */\n      immutable(\"0xceebf77a833b30520287ddd9478ff51abbdffa30aa90a8d655dba0e8a79ce0c1\")\n        /* \"contracts/DeFi/CPAMM.sol\":3711:3727  token0.balanceOf */\n      0xffffffffffffffffffffffffffffffffffffffff\n      and\n      0x70a08231\n        /* \"contracts/DeFi/CPAMM.sol\":3736:3740  this */\n      address\n        /* \"contracts/DeFi/CPAMM.sol\":3711:3742  token0.balanceOf(address(this)) */\n      mload(0x40)\n      dup3\n      0xffffffff\n      and\n      0xe0\n      shl\n      dup2\n      mstore\n      0x04\n      add\n      tag_63\n      swap2\n      swap1\n      tag_64\n      jump\t// in\n    tag_63:\n      0x20\n      mload(0x40)\n      dup1\n      dup4\n      sub\n      dup2\n      dup7\n      gas\n      staticcall\n      iszero\n      dup1\n      iszero\n      tag_66\n      jumpi\n      returndatasize\n      0x00\n      dup1\n      returndatacopy\n      revert(0x00, returndatasize)\n    tag_66:\n      pop\n      pop\n      pop\n      pop\n      mload(0x40)\n      returndatasize\n      not(0x1f)\n      0x1f\n      dup3\n      add\n      and\n      dup3\n      add\n      dup1\n      0x40\n      mstore\n      pop\n      dup2\n      add\n      swap1\n      tag_67\n      swap2\n      swap1\n      tag_68\n      jump\t// in\n    tag_67:\n        /* \"contracts/DeFi/CPAMM.sol\":3699:3742  uint bal0 = token0.balanceOf(address(this)) */\n      swap1\n      pop\n        /* \"contracts/DeFi/CPAMM.sol\":3752:3761  uint bal1 */\n      0x00\n        /* \"contracts/DeFi/CPAMM.sol\":3764:3770  token1 */\n      immutable(\"0xe4b1702d9298fee62dfeccc57d322a463ad55ca201256d01f62b45b2e1c21c10\")\n        /* \"contracts/DeFi/CPAMM.sol\":3764:3780  token1.balanceOf */\n      0xffffffffffffffffffffffffffffffffffffffff\n      and\n      0x70a08231\n        /* \"contracts/DeFi/CPAMM.sol\":3789:3793  this */\n      address\n        /* \"contracts/DeFi/CPAMM.sol\":3764:3795  token1.balanceOf(address(this)) */\n      mload(0x40)\n      dup3\n      0xffffffff\n      and\n      0xe0\n      shl\n      dup2\n      mstore\n      0x04\n      add\n      tag_69\n      swap2\n      swap1\n      tag_64\n      jump\t// in\n    tag_69:\n      0x20\n      mload(0x40)\n      dup1\n      dup4\n      sub\n      dup2\n      dup7\n      gas\n      staticcall\n      iszero\n      dup1\n      iszero\n      tag_71\n      jumpi\n      returndatasize\n      0x00\n      dup1\n      returndatacopy\n      revert(0x00, returndatasize)\n    tag_71:\n      pop\n      pop\n      pop\n      pop\n      mload(0x40)\n      returndatasize\n      not(0x1f)\n      0x1f\n      dup3\n      add\n      and\n      dup3\n      add\n      dup1\n      0x40\n      mstore\n      pop\n      dup2\n      add\n      swap1\n      tag_72\n      swap2\n      swap1\n      tag_68\n      jump\t// in\n    tag_72:\n        /* \"contracts/DeFi/CPAMM.sol\":3752:3795  uint bal1 = token1.balanceOf(address(this)) */\n      swap1\n      pop\n        /* \"contracts/DeFi/CPAMM.sol\":3835:3846  totalSupply */\n      sload(0x02)\n        /* \"contracts/DeFi/CPAMM.sol\":3827:3831  bal0 */\n      dup3\n        /* \"contracts/DeFi/CPAMM.sol\":3817:3824  _shares */\n      dup7\n        /* \"contracts/DeFi/CPAMM.sol\":3817:3831  _shares * bal0 */\n      tag_73\n      swap2\n      swap1\n      tag_74\n      jump\t// in\n    tag_73:\n        /* \"contracts/DeFi/CPAMM.sol\":3816:3846  (_shares * bal0) / totalSupply */\n      tag_75\n      swap2\n      swap1\n      tag_76\n      jump\t// in\n    tag_75:\n        /* \"contracts/DeFi/CPAMM.sol\":3806:3846  amount0 = (_shares * bal0) / totalSupply */\n      swap4\n      pop\n        /* \"contracts/DeFi/CPAMM.sol\":3885:3896  totalSupply */\n      sload(0x02)\n        /* \"contracts/DeFi/CPAMM.sol\":3877:3881  bal1 */\n      dup2\n        /* \"contracts/DeFi/CPAMM.sol\":3867:3874  _shares */\n      dup7\n        /* \"contracts/DeFi/CPAMM.sol\":3867:3881  _shares * bal1 */\n      tag_77\n      swap2\n      swap1\n      tag_74\n      jump\t// in\n    tag_77:\n        /* \"contracts/DeFi/CPAMM.sol\":3866:3896  (_shares * bal1) / totalSupply */\n      tag_78\n      swap2\n      swap1\n      tag_76\n      jump\t// in\n    tag_78:\n        /* \"contracts/DeFi/CPAMM.sol\":3856:3896  amount1 = (_shares * bal1) / totalSupply */\n      swap3\n      pop\n        /* \"contracts/DeFi/CPAMM.sol\":3924:3925  0 */\n      0x00\n        /* \"contracts/DeFi/CPAMM.sol\":3914:3921  amount0 */\n      dup5\n        /* \"contracts/DeFi/CPAMM.sol\":3914:3925  amount0 > 0 */\n      gt\n        /* \"contracts/DeFi/CPAMM.sol\":3914:3940  amount0 > 0 && amount1 > 0 */\n      dup1\n      iszero\n      tag_79\n      jumpi\n      pop\n        /* \"contracts/DeFi/CPAMM.sol\":3939:3940  0 */\n      0x00\n        /* \"contracts/DeFi/CPAMM.sol\":3929:3936  amount1 */\n      dup4\n        /* \"contracts/DeFi/CPAMM.sol\":3929:3940  amount1 > 0 */\n      gt\n        /* \"contracts/DeFi/CPAMM.sol\":3914:3940  amount0 > 0 && amount1 > 0 */\n    tag_79:\n        /* \"contracts/DeFi/CPAMM.sol\":3906:3968  require(amount0 > 0 && amount1 > 0, \"ammount0 or amount1 = 0\") */\n      tag_80\n      jumpi\n      mload(0x40)\n      0x08c379a000000000000000000000000000000000000000000000000000000000\n      dup2\n      mstore\n      0x04\n      add\n      tag_81\n      swap1\n      tag_82\n      jump\t// in\n    tag_81:\n      mload(0x40)\n      dup1\n      swap2\n      sub\n      swap1\n      revert\n    tag_80:\n        /* \"contracts/DeFi/CPAMM.sol\":4002:4028  _burn(msg.sender, _shares) */\n      tag_83\n        /* \"contracts/DeFi/CPAMM.sol\":4008:4018  msg.sender */\n      caller\n        /* \"contracts/DeFi/CPAMM.sol\":4020:4027  _shares */\n      dup7\n        /* \"contracts/DeFi/CPAMM.sol\":4002:4007  _burn */\n      tag_84\n        /* \"contracts/DeFi/CPAMM.sol\":4002:4028  _burn(msg.sender, _shares) */\n      jump\t// in\n    tag_83:\n        /* \"contracts/DeFi/CPAMM.sol\":4065:4104  _update(bal0 - amount0, bal1 - amount1) */\n      tag_85\n        /* \"contracts/DeFi/CPAMM.sol\":4080:4087  amount0 */\n      dup5\n        /* \"contracts/DeFi/CPAMM.sol\":4073:4077  bal0 */\n      dup4\n        /* \"contracts/DeFi/CPAMM.sol\":4073:4087  bal0 - amount0 */\n      tag_86\n      swap2\n      swap1\n      tag_87\n      jump\t// in\n    tag_86:\n        /* \"contracts/DeFi/CPAMM.sol\":4096:4103  amount1 */\n      dup5\n        /* \"contracts/DeFi/CPAMM.sol\":4089:4093  bal1 */\n      dup4\n        /* \"contracts/DeFi/CPAMM.sol\":4089:4103  bal1 - amount1 */\n      tag_88\n      swap2\n      swap1\n      tag_87\n      jump\t// in\n    tag_88:\n        /* \"contracts/DeFi/CPAMM.sol\":4065:4072  _update */\n      tag_89\n        /* \"contracts/DeFi/CPAMM.sol\":4065:4104  _update(bal0 - amount0, bal1 - amount1) */\n      jump\t// in\n    tag_85:\n        /* \"contracts/DeFi/CPAMM.sol\":4155:4161  token0 */\n      immutable(\"0xceebf77a833b30520287ddd9478ff51abbdffa30aa90a8d655dba0e8a79ce0c1\")\n        /* \"contracts/DeFi/CPAMM.sol\":4155:4170  token0.transfer */\n      0xffffffffffffffffffffffffffffffffffffffff\n      and\n      0xa9059cbb\n        /* \"contracts/DeFi/CPAMM.sol\":4171:4181  msg.sender */\n      caller\n        /* \"contracts/DeFi/CPAMM.sol\":4183:4190  amount0 */\n      dup7\n        /* \"contracts/DeFi/CPAMM.sol\":4155:4191  token0.transfer(msg.sender, amount0) */\n      mload(0x40)\n      dup4\n      0xffffffff\n      and\n      0xe0\n      shl\n      dup2\n      mstore\n      0x04\n      add\n      tag_90\n      swap3\n      swap2\n      swap1\n      tag_91\n      jump\t// in\n    tag_90:\n      0x20\n      mload(0x40)\n      dup1\n      dup4\n      sub\n      dup2\n      0x00\n      dup8\n      gas\n      call\n      iszero\n      dup1\n      iszero\n      tag_93\n      jumpi\n      returndatasize\n      0x00\n      dup1\n      returndatacopy\n      revert(0x00, returndatasize)\n    tag_93:\n      pop\n      pop\n      pop\n      pop\n      mload(0x40)\n      returndatasize\n      not(0x1f)\n      0x1f\n      dup3\n      add\n      and\n      dup3\n      add\n      dup1\n      0x40\n      mstore\n      pop\n      dup2\n      add\n      swap1\n      tag_94\n      swap2\n      swap1\n      tag_95\n      jump\t// in\n    tag_94:\n      pop\n        /* \"contracts/DeFi/CPAMM.sol\":4201:4207  token1 */\n      immutable(\"0xe4b1702d9298fee62dfeccc57d322a463ad55ca201256d01f62b45b2e1c21c10\")\n        /* \"contracts/DeFi/CPAMM.sol\":4201:4216  token1.transfer */\n      0xffffffffffffffffffffffffffffffffffffffff\n      and\n      0xa9059cbb\n        /* \"contracts/DeFi/CPAMM.sol\":4217:4227  msg.sender */\n      caller\n        /* \"contracts/DeFi/CPAMM.sol\":4229:4236  amount1 */\n      dup6\n        /* \"contracts/DeFi/CPAMM.sol\":4201:4237  token1.transfer(msg.sender, amount1) */\n      mload(0x40)\n      dup4\n      0xffffffff\n      and\n      0xe0\n      shl\n      dup2\n      mstore\n      0x04\n      add\n      tag_96\n      swap3\n      swap2\n      swap1\n      tag_91\n      jump\t// in\n    tag_96:\n      0x20\n      mload(0x40)\n      dup1\n      dup4\n      sub\n      dup2\n      0x00\n      dup8\n      gas\n      call\n      iszero\n      dup1\n      iszero\n      tag_98\n      jumpi\n      returndatasize\n      0x00\n      dup1\n      returndatacopy\n      revert(0x00, returndatasize)\n    tag_98:\n      pop\n      pop\n      pop\n      pop\n      mload(0x40)\n      returndatasize\n      not(0x1f)\n      0x1f\n      dup3\n      add\n      and\n      dup3\n      add\n      dup1\n      0x40\n      mstore\n      pop\n      dup2\n      add\n      swap1\n      tag_99\n      swap2\n      swap1\n      tag_95\n      jump\t// in\n    tag_99:\n      pop\n        /* \"contracts/DeFi/CPAMM.sol\":3460:4244  {... */\n      pop\n      pop\n        /* \"contracts/DeFi/CPAMM.sol\":3355:4244  function removeLiquidity(uint _shares)... */\n      swap2\n      pop\n      swap2\n      jump\t// out\n        /* \"contracts/DeFi/CPAMM.sol\":2225:3349  function addLiquidity(uint _amount0, uint _amount1)... */\n    tag_42:\n        /* \"contracts/DeFi/CPAMM.sol\":2311:2322  uint shares */\n      0x00\n        /* \"contracts/DeFi/CPAMM.sol\":2390:2396  token0 */\n      immutable(\"0xceebf77a833b30520287ddd9478ff51abbdffa30aa90a8d655dba0e8a79ce0c1\")\n        /* \"contracts/DeFi/CPAMM.sol\":2390:2409  token0.transferFrom */\n      0xffffffffffffffffffffffffffffffffffffffff\n      and\n      0x23b872dd\n        /* \"contracts/DeFi/CPAMM.sol\":2410:2420  msg.sender */\n      caller\n        /* \"contracts/DeFi/CPAMM.sol\":2430:2434  this */\n      address\n        /* \"contracts/DeFi/CPAMM.sol\":2437:2445  _amount0 */\n      dup7\n        /* \"contracts/DeFi/CPAMM.sol\":2390:2446  token0.transferFrom(msg.sender, address(this), _amount0) */\n      mload(0x40)\n      dup5\n      0xffffffff\n      and\n      0xe0\n      shl\n      dup2\n      mstore\n      0x04\n      add\n      tag_101\n      swap4\n      swap3\n      swap2\n      swap1\n      tag_102\n      jump\t// in\n    tag_101:\n      0x20\n      mload(0x40)\n      dup1\n      dup4\n      sub\n      dup2\n      0x00\n      dup8\n      gas\n      call\n      iszero\n      dup1\n      iszero\n      tag_104\n      jumpi\n      returndatasize\n      0x00\n      dup1\n      returndatacopy\n      revert(0x00, returndatasize)\n    tag_104:\n      pop\n      pop\n      pop\n      pop\n      mload(0x40)\n      returndatasize\n      not(0x1f)\n      0x1f\n      dup3\n      add\n      and\n      dup3\n      add\n      dup1\n      0x40\n      mstore\n      pop\n      dup2\n      add\n      swap1\n      tag_105\n      swap2\n      swap1\n      tag_95\n      jump\t// in\n    tag_105:\n      pop\n        /* \"contracts/DeFi/CPAMM.sol\":2456:2462  token1 */\n      immutable(\"0xe4b1702d9298fee62dfeccc57d322a463ad55ca201256d01f62b45b2e1c21c10\")\n        /* \"contracts/DeFi/CPAMM.sol\":2456:2475  token1.transferFrom */\n      0xffffffffffffffffffffffffffffffffffffffff\n      and\n      0x23b872dd\n        /* \"contracts/DeFi/CPAMM.sol\":2476:2486  msg.sender */\n      caller\n        /* \"contracts/DeFi/CPAMM.sol\":2496:2500  this */\n      address\n        /* \"contracts/DeFi/CPAMM.sol\":2503:2511  _amount1 */\n      dup6\n        /* \"contracts/DeFi/CPAMM.sol\":2456:2512  token1.transferFrom(msg.sender, address(this), _amount1) */\n      mload(0x40)\n      dup5\n      0xffffffff\n      and\n      0xe0\n      shl\n      dup2\n      mstore\n      0x04\n      add\n      tag_106\n      swap4\n      swap3\n      swap2\n      swap1\n      tag_102\n      jump\t// in\n    tag_106:\n      0x20\n      mload(0x40)\n      dup1\n      dup4\n      sub\n      dup2\n      0x00\n      dup8\n      gas\n      call\n      iszero\n      dup1\n      iszero\n      tag_108\n      jumpi\n      returndatasize\n      0x00\n      dup1\n      returndatacopy\n      revert(0x00, returndatasize)\n    tag_108:\n      pop\n      pop\n      pop\n      pop\n      mload(0x40)\n      returndatasize\n      not(0x1f)\n      0x1f\n      dup3\n      add\n      and\n      dup3\n      add\n      dup1\n      0x40\n      mstore\n      pop\n      dup2\n      add\n      swap1\n      tag_109\n      swap2\n      swap1\n      tag_95\n      jump\t// in\n    tag_109:\n      pop\n        /* \"contracts/DeFi/CPAMM.sol\":2591:2592  0 */\n      0x00\n        /* \"contracts/DeFi/CPAMM.sol\":2580:2588  reserve0 */\n      dup1\n      sload\n        /* \"contracts/DeFi/CPAMM.sol\":2580:2592  reserve0 > 0 */\n      gt\n        /* \"contracts/DeFi/CPAMM.sol\":2580:2608  reserve0 > 0 || reserve1 > 0 */\n      dup1\n      tag_110\n      jumpi\n      pop\n        /* \"contracts/DeFi/CPAMM.sol\":2607:2608  0 */\n      0x00\n        /* \"contracts/DeFi/CPAMM.sol\":2596:2604  reserve1 */\n      sload(0x01)\n        /* \"contracts/DeFi/CPAMM.sol\":2596:2608  reserve1 > 0 */\n      gt\n        /* \"contracts/DeFi/CPAMM.sol\":2580:2608  reserve0 > 0 || reserve1 > 0 */\n    tag_110:\n        /* \"contracts/DeFi/CPAMM.sol\":2576:2752  if (reserve0 > 0 || reserve1 > 0) {... */\n      iszero\n      tag_111\n      jumpi\n        /* \"contracts/DeFi/CPAMM.sol\":2683:2691  _amount0 */\n      dup3\n        /* \"contracts/DeFi/CPAMM.sol\":2672:2680  reserve1 */\n      sload(0x01)\n        /* \"contracts/DeFi/CPAMM.sol\":2672:2691  reserve1 * _amount0 */\n      tag_112\n      swap2\n      swap1\n      tag_74\n      jump\t// in\n    tag_112:\n        /* \"contracts/DeFi/CPAMM.sol\":2660:2668  _amount1 */\n      dup3\n        /* \"contracts/DeFi/CPAMM.sol\":2649:2657  reserve0 */\n      sload(0x00)\n        /* \"contracts/DeFi/CPAMM.sol\":2649:2668  reserve0 * _amount1 */\n      tag_113\n      swap2\n      swap1\n      tag_74\n      jump\t// in\n    tag_113:\n        /* \"contracts/DeFi/CPAMM.sol\":2649:2691  reserve0 * _amount1 == reserve1 * _amount0 */\n      eq\n        /* \"contracts/DeFi/CPAMM.sol\":2624:2741  require(... */\n      tag_114\n      jumpi\n      mload(0x40)\n      0x08c379a000000000000000000000000000000000000000000000000000000000\n      dup2\n      mstore\n      0x04\n      add\n      tag_115\n      swap1\n      tag_116\n      jump\t// in\n    tag_115:\n      mload(0x40)\n      dup1\n      swap2\n      sub\n      swap1\n      revert\n    tag_114:\n        /* \"contracts/DeFi/CPAMM.sol\":2576:2752  if (reserve0 > 0 || reserve1 > 0) {... */\n    tag_111:\n        /* \"contracts/DeFi/CPAMM.sol\":2871:2872  0 */\n      0x00\n        /* \"contracts/DeFi/CPAMM.sol\":2856:2867  totalSupply */\n      sload(0x02)\n        /* \"contracts/DeFi/CPAMM.sol\":2856:2872  totalSupply == 0 */\n      sub\n        /* \"contracts/DeFi/CPAMM.sol\":2852:3098  if (totalSupply == 0) {... */\n      tag_117\n      jumpi\n        /* \"contracts/DeFi/CPAMM.sol\":2897:2923  _sqrt(_amount0 * _amount1) */\n      tag_118\n        /* \"contracts/DeFi/CPAMM.sol\":2914:2922  _amount1 */\n      dup3\n        /* \"contracts/DeFi/CPAMM.sol\":2903:2911  _amount0 */\n      dup5\n        /* \"contracts/DeFi/CPAMM.sol\":2903:2922  _amount0 * _amount1 */\n      tag_119\n      swap2\n      swap1\n      tag_74\n      jump\t// in\n    tag_119:\n        /* \"contracts/DeFi/CPAMM.sol\":2897:2902  _sqrt */\n      tag_120\n        /* \"contracts/DeFi/CPAMM.sol\":2897:2923  _sqrt(_amount0 * _amount1) */\n      jump\t// in\n    tag_118:\n        /* \"contracts/DeFi/CPAMM.sol\":2888:2923  shares = _sqrt(_amount0 * _amount1) */\n      swap1\n      pop\n        /* \"contracts/DeFi/CPAMM.sol\":2852:3098  if (totalSupply == 0) {... */\n      jump(tag_121)\n    tag_117:\n        /* \"contracts/DeFi/CPAMM.sol\":2963:3087  _min(... */\n      tag_122\n        /* \"contracts/DeFi/CPAMM.sol\":3012:3020  reserve0 */\n      sload(0x00)\n        /* \"contracts/DeFi/CPAMM.sol\":2997:3008  totalSupply */\n      sload(0x02)\n        /* \"contracts/DeFi/CPAMM.sol\":2986:2994  _amount0 */\n      dup6\n        /* \"contracts/DeFi/CPAMM.sol\":2986:3008  _amount0 * totalSupply */\n      tag_123\n      swap2\n      swap1\n      tag_74\n      jump\t// in\n    tag_123:\n        /* \"contracts/DeFi/CPAMM.sol\":2985:3020  (_amount0 * totalSupply) / reserve0 */\n      tag_124\n      swap2\n      swap1\n      tag_76\n      jump\t// in\n    tag_124:\n        /* \"contracts/DeFi/CPAMM.sol\":3065:3073  reserve1 */\n      sload(0x01)\n        /* \"contracts/DeFi/CPAMM.sol\":3050:3061  totalSupply */\n      sload(0x02)\n        /* \"contracts/DeFi/CPAMM.sol\":3039:3047  _amount1 */\n      dup6\n        /* \"contracts/DeFi/CPAMM.sol\":3039:3061  _amount1 * totalSupply */\n      tag_125\n      swap2\n      swap1\n      tag_74\n      jump\t// in\n    tag_125:\n        /* \"contracts/DeFi/CPAMM.sol\":3038:3073  (_amount1 * totalSupply) / reserve1 */\n      tag_126\n      swap2\n      swap1\n      tag_76\n      jump\t// in\n    tag_126:\n        /* \"contracts/DeFi/CPAMM.sol\":2963:2967  _min */\n      tag_127\n        /* \"contracts/DeFi/CPAMM.sol\":2963:3087  _min(... */\n      jump\t// in\n    tag_122:\n        /* \"contracts/DeFi/CPAMM.sol\":2954:3087  shares = _min(... */\n      swap1\n      pop\n        /* \"contracts/DeFi/CPAMM.sol\":2852:3098  if (totalSupply == 0) {... */\n    tag_121:\n        /* \"contracts/DeFi/CPAMM.sol\":3124:3125  0 */\n      0x00\n        /* \"contracts/DeFi/CPAMM.sol\":3115:3121  shares */\n      dup2\n        /* \"contracts/DeFi/CPAMM.sol\":3115:3125  shares > 0 */\n      gt\n        /* \"contracts/DeFi/CPAMM.sol\":3107:3140  require(shares > 0, \"shares = 0\") */\n      tag_128\n      jumpi\n      mload(0x40)\n      0x08c379a000000000000000000000000000000000000000000000000000000000\n      dup2\n      mstore\n      0x04\n      add\n      tag_129\n      swap1\n      tag_130\n      jump\t// in\n    tag_129:\n      mload(0x40)\n      dup1\n      swap2\n      sub\n      swap1\n      revert\n    tag_128:\n        /* \"contracts/DeFi/CPAMM.sol\":3173:3198  _mint(msg.sender, shares) */\n      tag_131\n        /* \"contracts/DeFi/CPAMM.sol\":3179:3189  msg.sender */\n      caller\n        /* \"contracts/DeFi/CPAMM.sol\":3191:3197  shares */\n      dup3\n        /* \"contracts/DeFi/CPAMM.sol\":3173:3178  _mint */\n      tag_132\n        /* \"contracts/DeFi/CPAMM.sol\":3173:3198  _mint(msg.sender, shares) */\n      jump\t// in\n    tag_131:\n        /* \"contracts/DeFi/CPAMM.sol\":3235:3342  _update(... */\n      tag_133\n        /* \"contracts/DeFi/CPAMM.sol\":3256:3262  token0 */\n      immutable(\"0xceebf77a833b30520287ddd9478ff51abbdffa30aa90a8d655dba0e8a79ce0c1\")\n        /* \"contracts/DeFi/CPAMM.sol\":3256:3272  token0.balanceOf */\n      0xffffffffffffffffffffffffffffffffffffffff\n      and\n      0x70a08231\n        /* \"contracts/DeFi/CPAMM.sol\":3281:3285  this */\n      address\n        /* \"contracts/DeFi/CPAMM.sol\":3256:3287  token0.balanceOf(address(this)) */\n      mload(0x40)\n      dup3\n      0xffffffff\n      and\n      0xe0\n      shl\n      dup2\n      mstore\n      0x04\n      add\n      tag_134\n      swap2\n      swap1\n      tag_64\n      jump\t// in\n    tag_134:\n      0x20\n      mload(0x40)\n      dup1\n      dup4\n      sub\n      dup2\n      dup7\n      gas\n      staticcall\n      iszero\n      dup1\n      iszero\n      tag_136\n      jumpi\n      returndatasize\n      0x00\n      dup1\n      returndatacopy\n      revert(0x00, returndatasize)\n    tag_136:\n      pop\n      pop\n      pop\n      pop\n      mload(0x40)\n      returndatasize\n      not(0x1f)\n      0x1f\n      dup3\n      add\n      and\n      dup3\n      add\n      dup1\n      0x40\n      mstore\n      pop\n      dup2\n      add\n      swap1\n      tag_137\n      swap2\n      swap1\n      tag_68\n      jump\t// in\n    tag_137:\n        /* \"contracts/DeFi/CPAMM.sol\":3301:3307  token1 */\n      immutable(\"0xe4b1702d9298fee62dfeccc57d322a463ad55ca201256d01f62b45b2e1c21c10\")\n        /* \"contracts/DeFi/CPAMM.sol\":3301:3317  token1.balanceOf */\n      0xffffffffffffffffffffffffffffffffffffffff\n      and\n      0x70a08231\n        /* \"contracts/DeFi/CPAMM.sol\":3326:3330  this */\n      address\n        /* \"contracts/DeFi/CPAMM.sol\":3301:3332  token1.balanceOf(address(this)) */\n      mload(0x40)\n      dup3\n      0xffffffff\n      and\n      0xe0\n      shl\n      dup2\n      mstore\n      0x04\n      add\n      tag_138\n      swap2\n      swap1\n      tag_64\n      jump\t// in\n    tag_138:\n      0x20\n      mload(0x40)\n      dup1\n      dup4\n      sub\n      dup2\n      dup7\n      gas\n      staticcall\n      iszero\n      dup1\n      iszero\n      tag_140\n      jumpi\n      returndatasize\n      0x00\n      dup1\n      returndatacopy\n      revert(0x00, returndatasize)\n    tag_140:\n      pop\n      pop\n      pop\n      pop\n      mload(0x40)\n      returndatasize\n      not(0x1f)\n      0x1f\n      dup3\n      add\n      and\n      dup3\n      add\n      dup1\n      0x40\n      mstore\n      pop\n      dup2\n      add\n      swap1\n      tag_141\n      swap2\n      swap1\n      tag_68\n      jump\t// in\n    tag_141:\n        /* \"contracts/DeFi/CPAMM.sol\":3235:3242  _update */\n      tag_89\n        /* \"contracts/DeFi/CPAMM.sol\":3235:3342  _update(... */\n      jump\t// in\n    tag_133:\n        /* \"contracts/DeFi/CPAMM.sol\":2225:3349  function addLiquidity(uint _amount0, uint _amount1)... */\n      swap3\n      swap2\n      pop\n      pop\n      jump\t// out\n        /* \"contracts/DeFi/CPAMM.sol\":1001:2219  function swap(address _tokenIn, uint _amountIn)... */\n    tag_47:\n        /* \"contracts/DeFi/CPAMM.sol\":1083:1097  uint amountOut */\n      0x00\n        /* \"contracts/DeFi/CPAMM.sol\":1154:1160  token0 */\n      immutable(\"0xceebf77a833b30520287ddd9478ff51abbdffa30aa90a8d655dba0e8a79ce0c1\")\n        /* \"contracts/DeFi/CPAMM.sol\":1134:1161  _tokenIn == address(token0) */\n      0xffffffffffffffffffffffffffffffffffffffff\n      and\n        /* \"contracts/DeFi/CPAMM.sol\":1134:1142  _tokenIn */\n      dup4\n        /* \"contracts/DeFi/CPAMM.sol\":1134:1161  _tokenIn == address(token0) */\n      0xffffffffffffffffffffffffffffffffffffffff\n      and\n      eq\n        /* \"contracts/DeFi/CPAMM.sol\":1134:1192  _tokenIn == address(token0) || _tokenIn == address(token1) */\n      dup1\n      tag_143\n      jumpi\n      pop\n        /* \"contracts/DeFi/CPAMM.sol\":1185:1191  token1 */\n      immutable(\"0xe4b1702d9298fee62dfeccc57d322a463ad55ca201256d01f62b45b2e1c21c10\")\n        /* \"contracts/DeFi/CPAMM.sol\":1165:1192  _tokenIn == address(token1) */\n      0xffffffffffffffffffffffffffffffffffffffff\n      and\n        /* \"contracts/DeFi/CPAMM.sol\":1165:1173  _tokenIn */\n      dup4\n        /* \"contracts/DeFi/CPAMM.sol\":1165:1192  _tokenIn == address(token1) */\n      0xffffffffffffffffffffffffffffffffffffffff\n      and\n      eq\n        /* \"contracts/DeFi/CPAMM.sol\":1134:1192  _tokenIn == address(token0) || _tokenIn == address(token1) */\n    tag_143:\n        /* \"contracts/DeFi/CPAMM.sol\":1113:1231  require(... */\n      tag_144\n      jumpi\n      mload(0x40)\n      0x08c379a000000000000000000000000000000000000000000000000000000000\n      dup2\n      mstore\n      0x04\n      add\n      tag_145\n      swap1\n      tag_146\n      jump\t// in\n    tag_145:\n      mload(0x40)\n      dup1\n      swap2\n      sub\n      swap1\n      revert\n    tag_144:\n        /* \"contracts/DeFi/CPAMM.sol\":1261:1262  0 */\n      0x00\n        /* \"contracts/DeFi/CPAMM.sol\":1249:1258  _amountIn */\n      dup3\n        /* \"contracts/DeFi/CPAMM.sol\":1249:1262  _amountIn > 0 */\n      gt\n        /* \"contracts/DeFi/CPAMM.sol\":1241:1288  require(_amountIn > 0, \"amount cannot be zero\") */\n      tag_147\n      jumpi\n      mload(0x40)\n      0x08c379a000000000000000000000000000000000000000000000000000000000\n      dup2\n      mstore\n      0x04\n      add\n      tag_148\n      swap1\n      tag_149\n      jump\t// in\n    tag_148:\n      mload(0x40)\n      dup1\n      swap2\n      sub\n      swap1\n      revert\n    tag_147:\n        /* \"contracts/DeFi/CPAMM.sol\":1298:1311  bool isToken0 */\n      0x00\n        /* \"contracts/DeFi/CPAMM.sol\":1334:1340  token0 */\n      immutable(\"0xceebf77a833b30520287ddd9478ff51abbdffa30aa90a8d655dba0e8a79ce0c1\")\n        /* \"contracts/DeFi/CPAMM.sol\":1314:1341  _tokenIn == address(token0) */\n      0xffffffffffffffffffffffffffffffffffffffff\n      and\n        /* \"contracts/DeFi/CPAMM.sol\":1314:1322  _tokenIn */\n      dup5\n        /* \"contracts/DeFi/CPAMM.sol\":1314:1341  _tokenIn == address(token0) */\n      0xffffffffffffffffffffffffffffffffffffffff\n      and\n      eq\n        /* \"contracts/DeFi/CPAMM.sol\":1298:1341  bool isToken0 = _tokenIn == address(token0) */\n      swap1\n      pop\n        /* \"contracts/DeFi/CPAMM.sol\":1417:1431  IERC20 tokenIn */\n      0x00\n        /* \"contracts/DeFi/CPAMM.sol\":1445:1460  IERC20 tokenOut */\n      dup1\n        /* \"contracts/DeFi/CPAMM.sol\":1474:1488  uint reserveIn */\n      0x00\n        /* \"contracts/DeFi/CPAMM.sol\":1502:1517  uint reserveOut */\n      dup1\n        /* \"contracts/DeFi/CPAMM.sol\":1530:1538  isToken0 */\n      dup5\n        /* \"contracts/DeFi/CPAMM.sol\":1530:1648  isToken0... */\n      tag_150\n      jumpi\n        /* \"contracts/DeFi/CPAMM.sol\":1613:1619  token1 */\n      immutable(\"0xe4b1702d9298fee62dfeccc57d322a463ad55ca201256d01f62b45b2e1c21c10\")\n        /* \"contracts/DeFi/CPAMM.sol\":1621:1627  token0 */\n      immutable(\"0xceebf77a833b30520287ddd9478ff51abbdffa30aa90a8d655dba0e8a79ce0c1\")\n        /* \"contracts/DeFi/CPAMM.sol\":1629:1637  reserve1 */\n      sload(0x01)\n        /* \"contracts/DeFi/CPAMM.sol\":1639:1647  reserve0 */\n      sload(0x00)\n        /* \"contracts/DeFi/CPAMM.sol\":1530:1648  isToken0... */\n      jump(tag_151)\n    tag_150:\n        /* \"contracts/DeFi/CPAMM.sol\":1558:1564  token0 */\n      immutable(\"0xceebf77a833b30520287ddd9478ff51abbdffa30aa90a8d655dba0e8a79ce0c1\")\n        /* \"contracts/DeFi/CPAMM.sol\":1566:1572  token1 */\n      immutable(\"0xe4b1702d9298fee62dfeccc57d322a463ad55ca201256d01f62b45b2e1c21c10\")\n        /* \"contracts/DeFi/CPAMM.sol\":1574:1582  reserve0 */\n      sload(0x00)\n        /* \"contracts/DeFi/CPAMM.sol\":1584:1592  reserve1 */\n      sload(0x01)\n        /* \"contracts/DeFi/CPAMM.sol\":1530:1648  isToken0... */\n    tag_151:\n        /* \"contracts/DeFi/CPAMM.sol\":1403:1648  (... */\n      swap4\n      pop\n      swap4\n      pop\n      swap4\n      pop\n      swap4\n      pop\n        /* \"contracts/DeFi/CPAMM.sol\":1708:1715  tokenIn */\n      dup4\n        /* \"contracts/DeFi/CPAMM.sol\":1708:1728  tokenIn.transferFrom */\n      0xffffffffffffffffffffffffffffffffffffffff\n      and\n      0x23b872dd\n        /* \"contracts/DeFi/CPAMM.sol\":1729:1739  msg.sender */\n      caller\n        /* \"contracts/DeFi/CPAMM.sol\":1749:1753  this */\n      address\n        /* \"contracts/DeFi/CPAMM.sol\":1756:1765  _amountIn */\n      dup11\n        /* \"contracts/DeFi/CPAMM.sol\":1708:1766  tokenIn.transferFrom(msg.sender, address(this), _amountIn) */\n      mload(0x40)\n      dup5\n      0xffffffff\n      and\n      0xe0\n      shl\n      dup2\n      mstore\n      0x04\n      add\n      tag_152\n      swap4\n      swap3\n      swap2\n      swap1\n      tag_102\n      jump\t// in\n    tag_152:\n      0x20\n      mload(0x40)\n      dup1\n      dup4\n      sub\n      dup2\n      0x00\n      dup8\n      gas\n      call\n      iszero\n      dup1\n      iszero\n      tag_154\n      jumpi\n      returndatasize\n      0x00\n      dup1\n      returndatacopy\n      revert(0x00, returndatasize)\n    tag_154:\n      pop\n      pop\n      pop\n      pop\n      mload(0x40)\n      returndatasize\n      not(0x1f)\n      0x1f\n      dup3\n      add\n      and\n      dup3\n      add\n      dup1\n      0x40\n      mstore\n      pop\n      dup2\n      add\n      swap1\n      tag_155\n      swap2\n      swap1\n      tag_95\n      jump\t// in\n    tag_155:\n      pop\n        /* \"contracts/DeFi/CPAMM.sol\":1827:1847  uint amountInWithFee */\n      0x00\n        /* \"contracts/DeFi/CPAMM.sol\":1870:1874  1000 */\n      0x03e8\n        /* \"contracts/DeFi/CPAMM.sol\":1863:1866  997 */\n      0x03e5\n        /* \"contracts/DeFi/CPAMM.sol\":1851:1860  _amountIn */\n      dup10\n        /* \"contracts/DeFi/CPAMM.sol\":1851:1866  _amountIn * 997 */\n      tag_156\n      swap2\n      swap1\n      tag_74\n      jump\t// in\n    tag_156:\n        /* \"contracts/DeFi/CPAMM.sol\":1850:1874  (_amountIn * 997) / 1000 */\n      tag_157\n      swap2\n      swap1\n      tag_76\n      jump\t// in\n    tag_157:\n        /* \"contracts/DeFi/CPAMM.sol\":1827:1874  uint amountInWithFee = (_amountIn * 997) / 1000 */\n      swap1\n      pop\n        /* \"contracts/DeFi/CPAMM.sol\":1966:1981  amountInWithFee */\n      dup1\n        /* \"contracts/DeFi/CPAMM.sol\":1954:1963  reserveIn */\n      dup4\n        /* \"contracts/DeFi/CPAMM.sol\":1954:1981  reserveIn + amountInWithFee */\n      tag_158\n      swap2\n      swap1\n      tag_159\n      jump\t// in\n    tag_158:\n        /* \"contracts/DeFi/CPAMM.sol\":1922:1937  amountInWithFee */\n      dup2\n        /* \"contracts/DeFi/CPAMM.sol\":1909:1919  reserveOut */\n      dup4\n        /* \"contracts/DeFi/CPAMM.sol\":1909:1937  reserveOut * amountInWithFee */\n      tag_160\n      swap2\n      swap1\n      tag_74\n      jump\t// in\n    tag_160:\n        /* \"contracts/DeFi/CPAMM.sol\":1908:1982  (reserveOut * amountInWithFee) /... */\n      tag_161\n      swap2\n      swap1\n      tag_76\n      jump\t// in\n    tag_161:\n        /* \"contracts/DeFi/CPAMM.sol\":1884:1982  amountOut =... */\n      swap7\n      pop\n        /* \"contracts/DeFi/CPAMM.sol\":2028:2036  tokenOut */\n      dup4\n        /* \"contracts/DeFi/CPAMM.sol\":2028:2045  tokenOut.transfer */\n      0xffffffffffffffffffffffffffffffffffffffff\n      and\n      0xa9059cbb\n        /* \"contracts/DeFi/CPAMM.sol\":2046:2056  msg.sender */\n      caller\n        /* \"contracts/DeFi/CPAMM.sol\":2058:2067  amountOut */\n      dup10\n        /* \"contracts/DeFi/CPAMM.sol\":2028:2068  tokenOut.transfer(msg.sender, amountOut) */\n      mload(0x40)\n      dup4\n      0xffffffff\n      and\n      0xe0\n      shl\n      dup2\n      mstore\n      0x04\n      add\n      tag_162\n      swap3\n      swap2\n      swap1\n      tag_91\n      jump\t// in\n    tag_162:\n      0x20\n      mload(0x40)\n      dup1\n      dup4\n      sub\n      dup2\n      0x00\n      dup8\n      gas\n      call\n      iszero\n      dup1\n      iszero\n      tag_164\n      jumpi\n      returndatasize\n      0x00\n      dup1\n      returndatacopy\n      revert(0x00, returndatasize)\n    tag_164:\n      pop\n      pop\n      pop\n      pop\n      mload(0x40)\n      returndatasize\n      not(0x1f)\n      0x1f\n      dup3\n      add\n      and\n      dup3\n      add\n      dup1\n      0x40\n      mstore\n      pop\n      dup2\n      add\n      swap1\n      tag_165\n      swap2\n      swap1\n      tag_95\n      jump\t// in\n    tag_165:\n      pop\n        /* \"contracts/DeFi/CPAMM.sol\":2105:2212  _update(... */\n      tag_166\n        /* \"contracts/DeFi/CPAMM.sol\":2126:2132  token0 */\n      immutable(\"0xceebf77a833b30520287ddd9478ff51abbdffa30aa90a8d655dba0e8a79ce0c1\")\n        /* \"contracts/DeFi/CPAMM.sol\":2126:2142  token0.balanceOf */\n      0xffffffffffffffffffffffffffffffffffffffff\n      and\n      0x70a08231\n        /* \"contracts/DeFi/CPAMM.sol\":2151:2155  this */\n      address\n        /* \"contracts/DeFi/CPAMM.sol\":2126:2157  token0.balanceOf(address(this)) */\n      mload(0x40)\n      dup3\n      0xffffffff\n      and\n      0xe0\n      shl\n      dup2\n      mstore\n      0x04\n      add\n      tag_167\n      swap2\n      swap1\n      tag_64\n      jump\t// in\n    tag_167:\n      0x20\n      mload(0x40)\n      dup1\n      dup4\n      sub\n      dup2\n      dup7\n      gas\n      staticcall\n      iszero\n      dup1\n      iszero\n      tag_169\n      jumpi\n      returndatasize\n      0x00\n      dup1\n      returndatacopy\n      revert(0x00, returndatasize)\n    tag_169:\n      pop\n      pop\n      pop\n      pop\n      mload(0x40)\n      returndatasize\n      not(0x1f)\n      0x1f\n      dup3\n      add\n      and\n      dup3\n      add\n      dup1\n      0x40\n      mstore\n      pop\n      dup2\n      add\n      swap1\n      tag_170\n      swap2\n      swap1\n      tag_68\n      jump\t// in\n    tag_170:\n        /* \"contracts/DeFi/CPAMM.sol\":2171:2177  token1 */\n      immutable(\"0xe4b1702d9298fee62dfeccc57d322a463ad55ca201256d01f62b45b2e1c21c10\")\n        /* \"contracts/DeFi/CPAMM.sol\":2171:2187  token1.balanceOf */\n      0xffffffffffffffffffffffffffffffffffffffff\n      and\n      0x70a08231\n        /* \"contracts/DeFi/CPAMM.sol\":2196:2200  this */\n      address\n        /* \"contracts/DeFi/CPAMM.sol\":2171:2202  token1.balanceOf(address(this)) */\n      mload(0x40)\n      dup3\n      0xffffffff\n      and\n      0xe0\n      shl\n      dup2\n      mstore\n      0x04\n      add\n      tag_171\n      swap2\n      swap1\n      tag_64\n      jump\t// in\n    tag_171:\n      0x20\n      mload(0x40)\n      dup1\n      dup4\n      sub\n      dup2\n      dup7\n      gas\n      staticcall\n      iszero\n      dup1\n      iszero\n      tag_173\n      jumpi\n      returndatasize\n      0x00\n      dup1\n      returndatacopy\n      revert(0x00, returndatasize)\n    tag_173:\n      pop\n      pop\n      pop\n      pop\n      mload(0x40)\n      returndatasize\n      not(0x1f)\n      0x1f\n      dup3\n      add\n      and\n      dup3\n      add\n      dup1\n      0x40\n      mstore\n      pop\n      dup2\n      add\n      swap1\n      tag_174\n      swap2\n      swap1\n      tag_68\n      jump\t// in\n    tag_174:\n        /* \"contracts/DeFi/CPAMM.sol\":2105:2112  _update */\n      tag_89\n        /* \"contracts/DeFi/CPAMM.sol\":2105:2212  _update(... */\n      jump\t// in\n    tag_166:\n        /* \"contracts/DeFi/CPAMM.sol\":1103:2219  {... */\n      pop\n      pop\n      pop\n      pop\n      pop\n      pop\n        /* \"contracts/DeFi/CPAMM.sol\":1001:2219  function swap(address _tokenIn, uint _amountIn)... */\n      swap3\n      swap2\n      pop\n      pop\n      jump\t// out\n        /* \"contracts/DeFi/CPAMM.sol\":158:188  IERC20 public immutable token1 */\n    tag_50:\n      immutable(\"0xe4b1702d9298fee62dfeccc57d322a463ad55ca201256d01f62b45b2e1c21c10\")\n      dup2\n      jump\t// out\n        /* \"contracts/DeFi/CPAMM.sol\":4650:4749  function getShares(address _lp) external view returns (uint) {... */\n    tag_54:\n        /* \"contracts/DeFi/CPAMM.sol\":4705:4709  uint */\n      0x00\n        /* \"contracts/DeFi/CPAMM.sol\":4728:4737  balanceOf */\n      0x03\n        /* \"contracts/DeFi/CPAMM.sol\":4728:4742  balanceOf[_lp] */\n      0x00\n        /* \"contracts/DeFi/CPAMM.sol\":4738:4741  _lp */\n      dup4\n        /* \"contracts/DeFi/CPAMM.sol\":4728:4742  balanceOf[_lp] */\n      0xffffffffffffffffffffffffffffffffffffffff\n      and\n      0xffffffffffffffffffffffffffffffffffffffff\n      and\n      dup2\n      mstore\n      0x20\n      add\n      swap1\n      dup2\n      mstore\n      0x20\n      add\n      0x00\n      keccak256\n      sload\n        /* \"contracts/DeFi/CPAMM.sol\":4721:4742  return balanceOf[_lp] */\n      swap1\n      pop\n        /* \"contracts/DeFi/CPAMM.sol\":4650:4749  function getShares(address _lp) external view returns (uint) {... */\n      swap2\n      swap1\n      pop\n      jump\t// out\n        /* \"contracts/DeFi/CPAMM.sol\":737:865  function _burn(address _from, uint _amount) private {... */\n    tag_84:\n        /* \"contracts/DeFi/CPAMM.sol\":819:826  _amount */\n      dup1\n        /* \"contracts/DeFi/CPAMM.sol\":799:808  balanceOf */\n      0x03\n        /* \"contracts/DeFi/CPAMM.sol\":799:815  balanceOf[_from] */\n      0x00\n        /* \"contracts/DeFi/CPAMM.sol\":809:814  _from */\n      dup5\n        /* \"contracts/DeFi/CPAMM.sol\":799:815  balanceOf[_from] */\n      0xffffffffffffffffffffffffffffffffffffffff\n      and\n      0xffffffffffffffffffffffffffffffffffffffff\n      and\n      dup2\n      mstore\n      0x20\n      add\n      swap1\n      dup2\n      mstore\n      0x20\n      add\n      0x00\n      keccak256\n      0x00\n        /* \"contracts/DeFi/CPAMM.sol\":799:826  balanceOf[_from] -= _amount */\n      dup3\n      dup3\n      sload\n      tag_177\n      swap2\n      swap1\n      tag_87\n      jump\t// in\n    tag_177:\n      swap3\n      pop\n      pop\n      dup2\n      swap1\n      sstore\n      pop\n        /* \"contracts/DeFi/CPAMM.sol\":851:858  _amount */\n      dup1\n        /* \"contracts/DeFi/CPAMM.sol\":836:847  totalSupply */\n      0x02\n      0x00\n        /* \"contracts/DeFi/CPAMM.sol\":836:858  totalSupply -= _amount */\n      dup3\n      dup3\n      sload\n      tag_178\n      swap2\n      swap1\n      tag_87\n      jump\t// in\n    tag_178:\n      swap3\n      pop\n      pop\n      dup2\n      swap1\n      sstore\n      pop\n        /* \"contracts/DeFi/CPAMM.sol\":737:865  function _burn(address _from, uint _amount) private {... */\n      pop\n      pop\n      jump\t// out\n        /* \"contracts/DeFi/CPAMM.sol\":871:995  function _update(uint _reserve0, uint _reserve1) private {... */\n    tag_89:\n        /* \"contracts/DeFi/CPAMM.sol\":949:958  _reserve0 */\n      dup2\n        /* \"contracts/DeFi/CPAMM.sol\":938:946  reserve0 */\n      0x00\n        /* \"contracts/DeFi/CPAMM.sol\":938:958  reserve0 = _reserve0 */\n      dup2\n      swap1\n      sstore\n      pop\n        /* \"contracts/DeFi/CPAMM.sol\":979:988  _reserve1 */\n      dup1\n        /* \"contracts/DeFi/CPAMM.sol\":968:976  reserve1 */\n      0x01\n        /* \"contracts/DeFi/CPAMM.sol\":968:988  reserve1 = _reserve1 */\n      dup2\n      swap1\n      sstore\n      pop\n        /* \"contracts/DeFi/CPAMM.sol\":871:995  function _update(uint _reserve0, uint _reserve1) private {... */\n      pop\n      pop\n      jump\t// out\n        /* \"contracts/DeFi/CPAMM.sol\":4250:4542  function _sqrt(uint y) private pure returns (uint z) {... */\n    tag_120:\n        /* \"contracts/DeFi/CPAMM.sol\":4295:4301  uint z */\n      0x00\n        /* \"contracts/DeFi/CPAMM.sol\":4321:4322  3 */\n      0x03\n        /* \"contracts/DeFi/CPAMM.sol\":4317:4318  y */\n      dup3\n        /* \"contracts/DeFi/CPAMM.sol\":4317:4322  y > 3 */\n      gt\n        /* \"contracts/DeFi/CPAMM.sol\":4313:4536  if (y > 3) {... */\n      iszero\n      tag_181\n      jumpi\n        /* \"contracts/DeFi/CPAMM.sol\":4342:4343  y */\n      dup2\n        /* \"contracts/DeFi/CPAMM.sol\":4338:4343  z = y */\n      swap1\n      pop\n        /* \"contracts/DeFi/CPAMM.sol\":4357:4363  uint x */\n      0x00\n        /* \"contracts/DeFi/CPAMM.sol\":4374:4375  1 */\n      0x01\n        /* \"contracts/DeFi/CPAMM.sol\":4370:4371  2 */\n      0x02\n        /* \"contracts/DeFi/CPAMM.sol\":4366:4367  y */\n      dup5\n        /* \"contracts/DeFi/CPAMM.sol\":4366:4371  y / 2 */\n      tag_182\n      swap2\n      swap1\n      tag_76\n      jump\t// in\n    tag_182:\n        /* \"contracts/DeFi/CPAMM.sol\":4366:4375  y / 2 + 1 */\n      tag_183\n      swap2\n      swap1\n      tag_159\n      jump\t// in\n    tag_183:\n        /* \"contracts/DeFi/CPAMM.sol\":4357:4375  uint x = y / 2 + 1 */\n      swap1\n      pop\n        /* \"contracts/DeFi/CPAMM.sol\":4389:4478  while (x < z) {... */\n    tag_184:\n        /* \"contracts/DeFi/CPAMM.sol\":4400:4401  z */\n      dup2\n        /* \"contracts/DeFi/CPAMM.sol\":4396:4397  x */\n      dup2\n        /* \"contracts/DeFi/CPAMM.sol\":4396:4401  x < z */\n      lt\n        /* \"contracts/DeFi/CPAMM.sol\":4389:4478  while (x < z) {... */\n      iszero\n      tag_185\n      jumpi\n        /* \"contracts/DeFi/CPAMM.sol\":4425:4426  x */\n      dup1\n        /* \"contracts/DeFi/CPAMM.sol\":4421:4426  z = x */\n      swap2\n      pop\n        /* \"contracts/DeFi/CPAMM.sol\":4462:4463  2 */\n      0x02\n        /* \"contracts/DeFi/CPAMM.sol\":4457:4458  x */\n      dup2\n        /* \"contracts/DeFi/CPAMM.sol\":4453:4454  x */\n      dup3\n        /* \"contracts/DeFi/CPAMM.sol\":4449:4450  y */\n      dup6\n        /* \"contracts/DeFi/CPAMM.sol\":4449:4454  y / x */\n      tag_186\n      swap2\n      swap1\n      tag_76\n      jump\t// in\n    tag_186:\n        /* \"contracts/DeFi/CPAMM.sol\":4449:4458  y / x + x */\n      tag_187\n      swap2\n      swap1\n      tag_159\n      jump\t// in\n    tag_187:\n        /* \"contracts/DeFi/CPAMM.sol\":4448:4463  (y / x + x) / 2 */\n      tag_188\n      swap2\n      swap1\n      tag_76\n      jump\t// in\n    tag_188:\n        /* \"contracts/DeFi/CPAMM.sol\":4444:4463  x = (y / x + x) / 2 */\n      swap1\n      pop\n        /* \"contracts/DeFi/CPAMM.sol\":4389:4478  while (x < z) {... */\n      jump(tag_184)\n    tag_185:\n        /* \"contracts/DeFi/CPAMM.sol\":4324:4488  {... */\n      pop\n        /* \"contracts/DeFi/CPAMM.sol\":4313:4536  if (y > 3) {... */\n      jump(tag_189)\n    tag_181:\n        /* \"contracts/DeFi/CPAMM.sol\":4503:4504  0 */\n      0x00\n        /* \"contracts/DeFi/CPAMM.sol\":4498:4499  y */\n      dup3\n        /* \"contracts/DeFi/CPAMM.sol\":4498:4504  y != 0 */\n      eq\n        /* \"contracts/DeFi/CPAMM.sol\":4494:4536  if (y != 0) {... */\n      tag_190\n      jumpi\n        /* \"contracts/DeFi/CPAMM.sol\":4524:4525  1 */\n      0x01\n        /* \"contracts/DeFi/CPAMM.sol\":4520:4525  z = 1 */\n      swap1\n      pop\n        /* \"contracts/DeFi/CPAMM.sol\":4494:4536  if (y != 0) {... */\n    tag_190:\n        /* \"contracts/DeFi/CPAMM.sol\":4313:4536  if (y > 3) {... */\n    tag_189:\n        /* \"contracts/DeFi/CPAMM.sol\":4250:4542  function _sqrt(uint y) private pure returns (uint z) {... */\n      swap2\n      swap1\n      pop\n      jump\t// out\n        /* \"contracts/DeFi/CPAMM.sol\":4548:4644  function _min(uint x, uint y) private pure returns (uint) {... */\n    tag_127:\n        /* \"contracts/DeFi/CPAMM.sol\":4600:4604  uint */\n      0x00\n        /* \"contracts/DeFi/CPAMM.sol\":4628:4629  y */\n      dup2\n        /* \"contracts/DeFi/CPAMM.sol\":4623:4624  x */\n      dup4\n        /* \"contracts/DeFi/CPAMM.sol\":4623:4629  x <= y */\n      gt\n      iszero\n        /* \"contracts/DeFi/CPAMM.sol\":4623:4637  x <= y ? x : y */\n      tag_192\n      jumpi\n        /* \"contracts/DeFi/CPAMM.sol\":4636:4637  y */\n      dup2\n        /* \"contracts/DeFi/CPAMM.sol\":4623:4637  x <= y ? x : y */\n      jump(tag_193)\n    tag_192:\n        /* \"contracts/DeFi/CPAMM.sol\":4632:4633  x */\n      dup3\n        /* \"contracts/DeFi/CPAMM.sol\":4623:4637  x <= y ? x : y */\n    tag_193:\n        /* \"contracts/DeFi/CPAMM.sol\":4616:4637  return x <= y ? x : y */\n      swap1\n      pop\n        /* \"contracts/DeFi/CPAMM.sol\":4548:4644  function _min(uint x, uint y) private pure returns (uint) {... */\n      swap3\n      swap2\n      pop\n      pop\n      jump\t// out\n        /* \"contracts/DeFi/CPAMM.sol\":607:731  function _mint(address _to, uint _amount) private {... */\n    tag_132:\n        /* \"contracts/DeFi/CPAMM.sol\":685:692  _amount */\n      dup1\n        /* \"contracts/DeFi/CPAMM.sol\":667:676  balanceOf */\n      0x03\n        /* \"contracts/DeFi/CPAMM.sol\":667:681  balanceOf[_to] */\n      0x00\n        /* \"contracts/DeFi/CPAMM.sol\":677:680  _to */\n      dup5\n        /* \"contracts/DeFi/CPAMM.sol\":667:681  balanceOf[_to] */\n      0xffffffffffffffffffffffffffffffffffffffff\n      and\n      0xffffffffffffffffffffffffffffffffffffffff\n      and\n      dup2\n      mstore\n      0x20\n      add\n      swap1\n      dup2\n      mstore\n      0x20\n      add\n      0x00\n      keccak256\n      0x00\n        /* \"contracts/DeFi/CPAMM.sol\":667:692  balanceOf[_to] += _amount */\n      dup3\n      dup3\n      sload\n      tag_195\n      swap2\n      swap1\n      tag_159\n      jump\t// in\n    tag_195:\n      swap3\n      pop\n      pop\n      dup2\n      swap1\n      sstore\n      pop\n        /* \"contracts/DeFi/CPAMM.sol\":717:724  _amount */\n      dup1\n        /* \"contracts/DeFi/CPAMM.sol\":702:713  totalSupply */\n      0x02\n      0x00\n        /* \"contracts/DeFi/CPAMM.sol\":702:724  totalSupply += _amount */\n      dup3\n      dup3\n      sload\n      tag_196\n      swap2\n      swap1\n      tag_159\n      jump\t// in\n    tag_196:\n      swap3\n      pop\n      pop\n      dup2\n      swap1\n      sstore\n      pop\n        /* \"contracts/DeFi/CPAMM.sol\":607:731  function _mint(address _to, uint _amount) private {... */\n      pop\n      pop\n      jump\t// out\n        /* \"#utility.yul\":7:133   */\n    tag_197:\n        /* \"#utility.yul\":44:51   */\n      0x00\n        /* \"#utility.yul\":84:126   */\n      0xffffffffffffffffffffffffffffffffffffffff\n        /* \"#utility.yul\":77:82   */\n      dup3\n        /* \"#utility.yul\":73:127   */\n      and\n        /* \"#utility.yul\":62:127   */\n      swap1\n      pop\n        /* \"#utility.yul\":7:133   */\n      swap2\n      swap1\n      pop\n      jump\t// out\n        /* \"#utility.yul\":139:199   */\n    tag_198:\n        /* \"#utility.yul\":167:170   */\n      0x00\n        /* \"#utility.yul\":188:193   */\n      dup2\n        /* \"#utility.yul\":181:193   */\n      swap1\n      pop\n        /* \"#utility.yul\":139:199   */\n      swap2\n      swap1\n      pop\n      jump\t// out\n        /* \"#utility.yul\":205:347   */\n    tag_199:\n        /* \"#utility.yul\":255:264   */\n      0x00\n        /* \"#utility.yul\":288:341   */\n      tag_239\n        /* \"#utility.yul\":306:340   */\n      tag_240\n        /* \"#utility.yul\":315:339   */\n      tag_241\n        /* \"#utility.yul\":333:338   */\n      dup5\n        /* \"#utility.yul\":315:339   */\n      tag_197\n      jump\t// in\n    tag_241:\n        /* \"#utility.yul\":306:340   */\n      tag_198\n      jump\t// in\n    tag_240:\n        /* \"#utility.yul\":288:341   */\n      tag_197\n      jump\t// in\n    tag_239:\n        /* \"#utility.yul\":275:341   */\n      swap1\n      pop\n        /* \"#utility.yul\":205:347   */\n      swap2\n      swap1\n      pop\n      jump\t// out\n        /* \"#utility.yul\":353:479   */\n    tag_200:\n        /* \"#utility.yul\":403:412   */\n      0x00\n        /* \"#utility.yul\":436:473   */\n      tag_243\n        /* \"#utility.yul\":467:472   */\n      dup3\n        /* \"#utility.yul\":436:473   */\n      tag_199\n      jump\t// in\n    tag_243:\n        /* \"#utility.yul\":423:473   */\n      swap1\n      pop\n        /* \"#utility.yul\":353:479   */\n      swap2\n      swap1\n      pop\n      jump\t// out\n        /* \"#utility.yul\":485:625   */\n    tag_201:\n        /* \"#utility.yul\":549:558   */\n      0x00\n        /* \"#utility.yul\":582:619   */\n      tag_245\n        /* \"#utility.yul\":613:618   */\n      dup3\n        /* \"#utility.yul\":582:619   */\n      tag_200\n      jump\t// in\n    tag_245:\n        /* \"#utility.yul\":569:619   */\n      swap1\n      pop\n        /* \"#utility.yul\":485:625   */\n      swap2\n      swap1\n      pop\n      jump\t// out\n        /* \"#utility.yul\":631:790   */\n    tag_202:\n        /* \"#utility.yul\":732:783   */\n      tag_247\n        /* \"#utility.yul\":777:782   */\n      dup2\n        /* \"#utility.yul\":732:783   */\n      tag_201\n      jump\t// in\n    tag_247:\n        /* \"#utility.yul\":727:730   */\n      dup3\n        /* \"#utility.yul\":720:784   */\n      mstore\n        /* \"#utility.yul\":631:790   */\n      pop\n      pop\n      jump\t// out\n        /* \"#utility.yul\":796:1046   */\n    tag_17:\n        /* \"#utility.yul\":903:907   */\n      0x00\n        /* \"#utility.yul\":941:943   */\n      0x20\n        /* \"#utility.yul\":930:939   */\n      dup3\n        /* \"#utility.yul\":926:944   */\n      add\n        /* \"#utility.yul\":918:944   */\n      swap1\n      pop\n        /* \"#utility.yul\":954:1039   */\n      tag_249\n        /* \"#utility.yul\":1036:1037   */\n      0x00\n        /* \"#utility.yul\":1025:1034   */\n      dup4\n        /* \"#utility.yul\":1021:1038   */\n      add\n        /* \"#utility.yul\":1012:1018   */\n      dup5\n        /* \"#utility.yul\":954:1039   */\n      tag_202\n      jump\t// in\n    tag_249:\n        /* \"#utility.yul\":796:1046   */\n      swap3\n      swap2\n      pop\n      pop\n      jump\t// out\n        /* \"#utility.yul\":1052:1129   */\n    tag_203:\n        /* \"#utility.yul\":1089:1096   */\n      0x00\n        /* \"#utility.yul\":1118:1123   */\n      dup2\n        /* \"#utility.yul\":1107:1123   */\n      swap1\n      pop\n        /* \"#utility.yul\":1052:1129   */\n      swap2\n      swap1\n      pop\n      jump\t// out\n        /* \"#utility.yul\":1135:1253   */\n    tag_204:\n        /* \"#utility.yul\":1222:1246   */\n      tag_252\n        /* \"#utility.yul\":1240:1245   */\n      dup2\n        /* \"#utility.yul\":1222:1246   */\n      tag_203\n      jump\t// in\n    tag_252:\n        /* \"#utility.yul\":1217:1220   */\n      dup3\n        /* \"#utility.yul\":1210:1247   */\n      mstore\n        /* \"#utility.yul\":1135:1253   */\n      pop\n      pop\n      jump\t// out\n        /* \"#utility.yul\":1259:1481   */\n    tag_21:\n        /* \"#utility.yul\":1352:1356   */\n      0x00\n        /* \"#utility.yul\":1390:1392   */\n      0x20\n        /* \"#utility.yul\":1379:1388   */\n      dup3\n        /* \"#utility.yul\":1375:1393   */\n      add\n        /* \"#utility.yul\":1367:1393   */\n      swap1\n      pop\n        /* \"#utility.yul\":1403:1474   */\n      tag_254\n        /* \"#utility.yul\":1471:1472   */\n      0x00\n        /* \"#utility.yul\":1460:1469   */\n      dup4\n        /* \"#utility.yul\":1456:1473   */\n      add\n        /* \"#utility.yul\":1447:1453   */\n      dup5\n        /* \"#utility.yul\":1403:1474   */\n      tag_204\n      jump\t// in\n    tag_254:\n        /* \"#utility.yul\":1259:1481   */\n      swap3\n      swap2\n      pop\n      pop\n      jump\t// out\n        /* \"#utility.yul\":1568:1685   */\n    tag_206:\n        /* \"#utility.yul\":1677:1678   */\n      0x00\n        /* \"#utility.yul\":1674:1675   */\n      dup1\n        /* \"#utility.yul\":1667:1679   */\n      revert\n        /* \"#utility.yul\":1814:1910   */\n    tag_208:\n        /* \"#utility.yul\":1851:1858   */\n      0x00\n        /* \"#utility.yul\":1880:1904   */\n      tag_259\n        /* \"#utility.yul\":1898:1903   */\n      dup3\n        /* \"#utility.yul\":1880:1904   */\n      tag_197\n      jump\t// in\n    tag_259:\n        /* \"#utility.yul\":1869:1904   */\n      swap1\n      pop\n        /* \"#utility.yul\":1814:1910   */\n      swap2\n      swap1\n      pop\n      jump\t// out\n        /* \"#utility.yul\":1916:2038   */\n    tag_209:\n        /* \"#utility.yul\":1989:2013   */\n      tag_261\n        /* \"#utility.yul\":2007:2012   */\n      dup2\n        /* \"#utility.yul\":1989:2013   */\n      tag_208\n      jump\t// in\n    tag_261:\n        /* \"#utility.yul\":1982:1987   */\n      dup2\n        /* \"#utility.yul\":1979:2014   */\n      eq\n        /* \"#utility.yul\":1969:2032   */\n      tag_262\n      jumpi\n        /* \"#utility.yul\":2028:2029   */\n      0x00\n        /* \"#utility.yul\":2025:2026   */\n      dup1\n        /* \"#utility.yul\":2018:2030   */\n      revert\n        /* \"#utility.yul\":1969:2032   */\n    tag_262:\n        /* \"#utility.yul\":1916:2038   */\n      pop\n      jump\t// out\n        /* \"#utility.yul\":2044:2183   */\n    tag_210:\n        /* \"#utility.yul\":2090:2095   */\n      0x00\n        /* \"#utility.yul\":2128:2134   */\n      dup2\n        /* \"#utility.yul\":2115:2135   */\n      calldataload\n        /* \"#utility.yul\":2106:2135   */\n      swap1\n      pop\n        /* \"#utility.yul\":2144:2177   */\n      tag_264\n        /* \"#utility.yul\":2171:2176   */\n      dup2\n        /* \"#utility.yul\":2144:2177   */\n      tag_209\n      jump\t// in\n    tag_264:\n        /* \"#utility.yul\":2044:2183   */\n      swap3\n      swap2\n      pop\n      pop\n      jump\t// out\n        /* \"#utility.yul\":2189:2518   */\n    tag_30:\n        /* \"#utility.yul\":2248:2254   */\n      0x00\n        /* \"#utility.yul\":2297:2299   */\n      0x20\n        /* \"#utility.yul\":2285:2294   */\n      dup3\n        /* \"#utility.yul\":2276:2283   */\n      dup5\n        /* \"#utility.yul\":2272:2295   */\n      sub\n        /* \"#utility.yul\":2268:2300   */\n      slt\n        /* \"#utility.yul\":2265:2384   */\n      iszero\n      tag_266\n      jumpi\n        /* \"#utility.yul\":2303:2382   */\n      tag_267\n      tag_206\n      jump\t// in\n    tag_267:\n        /* \"#utility.yul\":2265:2384   */\n    tag_266:\n        /* \"#utility.yul\":2423:2424   */\n      0x00\n        /* \"#utility.yul\":2448:2501   */\n      tag_268\n        /* \"#utility.yul\":2493:2500   */\n      dup5\n        /* \"#utility.yul\":2484:2490   */\n      dup3\n        /* \"#utility.yul\":2473:2482   */\n      dup6\n        /* \"#utility.yul\":2469:2491   */\n      add\n        /* \"#utility.yul\":2448:2501   */\n      tag_210\n      jump\t// in\n    tag_268:\n        /* \"#utility.yul\":2438:2501   */\n      swap2\n      pop\n        /* \"#utility.yul\":2394:2511   */\n      pop\n        /* \"#utility.yul\":2189:2518   */\n      swap3\n      swap2\n      pop\n      pop\n      jump\t// out\n        /* \"#utility.yul\":2524:2646   */\n    tag_211:\n        /* \"#utility.yul\":2597:2621   */\n      tag_270\n        /* \"#utility.yul\":2615:2620   */\n      dup2\n        /* \"#utility.yul\":2597:2621   */\n      tag_203\n      jump\t// in\n    tag_270:\n        /* \"#utility.yul\":2590:2595   */\n      dup2\n        /* \"#utility.yul\":2587:2622   */\n      eq\n        /* \"#utility.yul\":2577:2640   */\n      tag_271\n      jumpi\n        /* \"#utility.yul\":2636:2637   */\n      0x00\n        /* \"#utility.yul\":2633:2634   */\n      dup1\n        /* \"#utility.yul\":2626:2638   */\n      revert\n        /* \"#utility.yul\":2577:2640   */\n    tag_271:\n        /* \"#utility.yul\":2524:2646   */\n      pop\n      jump\t// out\n        /* \"#utility.yul\":2652:2791   */\n    tag_212:\n        /* \"#utility.yul\":2698:2703   */\n      0x00\n        /* \"#utility.yul\":2736:2742   */\n      dup2\n        /* \"#utility.yul\":2723:2743   */\n      calldataload\n        /* \"#utility.yul\":2714:2743   */\n      swap1\n      pop\n        /* \"#utility.yul\":2752:2785   */\n      tag_273\n        /* \"#utility.yul\":2779:2784   */\n      dup2\n        /* \"#utility.yul\":2752:2785   */\n      tag_211\n      jump\t// in\n    tag_273:\n        /* \"#utility.yul\":2652:2791   */\n      swap3\n      swap2\n      pop\n      pop\n      jump\t// out\n        /* \"#utility.yul\":2797:3126   */\n    tag_35:\n        /* \"#utility.yul\":2856:2862   */\n      0x00\n        /* \"#utility.yul\":2905:2907   */\n      0x20\n        /* \"#utility.yul\":2893:2902   */\n      dup3\n        /* \"#utility.yul\":2884:2891   */\n      dup5\n        /* \"#utility.yul\":2880:2903   */\n      sub\n        /* \"#utility.yul\":2876:2908   */\n      slt\n        /* \"#utility.yul\":2873:2992   */\n      iszero\n      tag_275\n      jumpi\n        /* \"#utility.yul\":2911:2990   */\n      tag_276\n      tag_206\n      jump\t// in\n    tag_276:\n        /* \"#utility.yul\":2873:2992   */\n    tag_275:\n        /* \"#utility.yul\":3031:3032   */\n      0x00\n        /* \"#utility.yul\":3056:3109   */\n      tag_277\n        /* \"#utility.yul\":3101:3108   */\n      dup5\n        /* \"#utility.yul\":3092:3098   */\n      dup3\n        /* \"#utility.yul\":3081:3090   */\n      dup6\n        /* \"#utility.yul\":3077:3099   */\n      add\n        /* \"#utility.yul\":3056:3109   */\n      tag_212\n      jump\t// in\n    tag_277:\n        /* \"#utility.yul\":3046:3109   */\n      swap2\n      pop\n        /* \"#utility.yul\":3002:3119   */\n      pop\n        /* \"#utility.yul\":2797:3126   */\n      swap3\n      swap2\n      pop\n      pop\n      jump\t// out\n        /* \"#utility.yul\":3132:3464   */\n    tag_38:\n        /* \"#utility.yul\":3253:3257   */\n      0x00\n        /* \"#utility.yul\":3291:3293   */\n      0x40\n        /* \"#utility.yul\":3280:3289   */\n      dup3\n        /* \"#utility.yul\":3276:3294   */\n      add\n        /* \"#utility.yul\":3268:3294   */\n      swap1\n      pop\n        /* \"#utility.yul\":3304:3375   */\n      tag_279\n        /* \"#utility.yul\":3372:3373   */\n      0x00\n        /* \"#utility.yul\":3361:3370   */\n      dup4\n        /* \"#utility.yul\":3357:3374   */\n      add\n        /* \"#utility.yul\":3348:3354   */\n      dup6\n        /* \"#utility.yul\":3304:3375   */\n      tag_204\n      jump\t// in\n    tag_279:\n        /* \"#utility.yul\":3385:3457   */\n      tag_280\n        /* \"#utility.yul\":3453:3455   */\n      0x20\n        /* \"#utility.yul\":3442:3451   */\n      dup4\n        /* \"#utility.yul\":3438:3456   */\n      add\n        /* \"#utility.yul\":3429:3435   */\n      dup5\n        /* \"#utility.yul\":3385:3457   */\n      tag_204\n      jump\t// in\n    tag_280:\n        /* \"#utility.yul\":3132:3464   */\n      swap4\n      swap3\n      pop\n      pop\n      pop\n      jump\t// out\n        /* \"#utility.yul\":3470:3944   */\n    tag_41:\n        /* \"#utility.yul\":3538:3544   */\n      0x00\n        /* \"#utility.yul\":3546:3552   */\n      dup1\n        /* \"#utility.yul\":3595:3597   */\n      0x40\n        /* \"#utility.yul\":3583:3592   */\n      dup4\n        /* \"#utility.yul\":3574:3581   */\n      dup6\n        /* \"#utility.yul\":3570:3593   */\n      sub\n        /* \"#utility.yul\":3566:3598   */\n      slt\n        /* \"#utility.yul\":3563:3682   */\n      iszero\n      tag_282\n      jumpi\n        /* \"#utility.yul\":3601:3680   */\n      tag_283\n      tag_206\n      jump\t// in\n    tag_283:\n        /* \"#utility.yul\":3563:3682   */\n    tag_282:\n        /* \"#utility.yul\":3721:3722   */\n      0x00\n        /* \"#utility.yul\":3746:3799   */\n      tag_284\n        /* \"#utility.yul\":3791:3798   */\n      dup6\n        /* \"#utility.yul\":3782:3788   */\n      dup3\n        /* \"#utility.yul\":3771:3780   */\n      dup7\n        /* \"#utility.yul\":3767:3789   */\n      add\n        /* \"#utility.yul\":3746:3799   */\n      tag_212\n      jump\t// in\n    tag_284:\n        /* \"#utility.yul\":3736:3799   */\n      swap3\n      pop\n        /* \"#utility.yul\":3692:3809   */\n      pop\n        /* \"#utility.yul\":3848:3850   */\n      0x20\n        /* \"#utility.yul\":3874:3927   */\n      tag_285\n        /* \"#utility.yul\":3919:3926   */\n      dup6\n        /* \"#utility.yul\":3910:3916   */\n      dup3\n        /* \"#utility.yul\":3899:3908   */\n      dup7\n        /* \"#utility.yul\":3895:3917   */\n      add\n        /* \"#utility.yul\":3874:3927   */\n      tag_212\n      jump\t// in\n    tag_285:\n        /* \"#utility.yul\":3864:3927   */\n      swap2\n      pop\n        /* \"#utility.yul\":3819:3937   */\n      pop\n        /* \"#utility.yul\":3470:3944   */\n      swap3\n      pop\n      swap3\n      swap1\n      pop\n      jump\t// out\n        /* \"#utility.yul\":3950:4424   */\n    tag_46:\n        /* \"#utility.yul\":4018:4024   */\n      0x00\n        /* \"#utility.yul\":4026:4032   */\n      dup1\n        /* \"#utility.yul\":4075:4077   */\n      0x40\n        /* \"#utility.yul\":4063:4072   */\n      dup4\n        /* \"#utility.yul\":4054:4061   */\n      dup6\n        /* \"#utility.yul\":4050:4073   */\n      sub\n        /* \"#utility.yul\":4046:4078   */\n      slt\n        /* \"#utility.yul\":4043:4162   */\n      iszero\n      tag_287\n      jumpi\n        /* \"#utility.yul\":4081:4160   */\n      tag_288\n      tag_206\n      jump\t// in\n    tag_288:\n        /* \"#utility.yul\":4043:4162   */\n    tag_287:\n        /* \"#utility.yul\":4201:4202   */\n      0x00\n        /* \"#utility.yul\":4226:4279   */\n      tag_289\n        /* \"#utility.yul\":4271:4278   */\n      dup6\n        /* \"#utility.yul\":4262:4268   */\n      dup3\n        /* \"#utility.yul\":4251:4260   */\n      dup7\n        /* \"#utility.yul\":4247:4269   */\n      add\n        /* \"#utility.yul\":4226:4279   */\n      tag_210\n      jump\t// in\n    tag_289:\n        /* \"#utility.yul\":4216:4279   */\n      swap3\n      pop\n        /* \"#utility.yul\":4172:4289   */\n      pop\n        /* \"#utility.yul\":4328:4330   */\n      0x20\n        /* \"#utility.yul\":4354:4407   */\n      tag_290\n        /* \"#utility.yul\":4399:4406   */\n      dup6\n        /* \"#utility.yul\":4390:4396   */\n      dup3\n        /* \"#utility.yul\":4379:4388   */\n      dup7\n        /* \"#utility.yul\":4375:4397   */\n      add\n        /* \"#utility.yul\":4354:4407   */\n      tag_212\n      jump\t// in\n    tag_290:\n        /* \"#utility.yul\":4344:4407   */\n      swap2\n      pop\n        /* \"#utility.yul\":4299:4417   */\n      pop\n        /* \"#utility.yul\":3950:4424   */\n      swap3\n      pop\n      swap3\n      swap1\n      pop\n      jump\t// out\n        /* \"#utility.yul\":4430:4599   */\n    tag_213:\n        /* \"#utility.yul\":4514:4525   */\n      0x00\n        /* \"#utility.yul\":4548:4554   */\n      dup3\n        /* \"#utility.yul\":4543:4546   */\n      dup3\n        /* \"#utility.yul\":4536:4555   */\n      mstore\n        /* \"#utility.yul\":4588:4592   */\n      0x20\n        /* \"#utility.yul\":4583:4586   */\n      dup3\n        /* \"#utility.yul\":4579:4593   */\n      add\n        /* \"#utility.yul\":4564:4593   */\n      swap1\n      pop\n        /* \"#utility.yul\":4430:4599   */\n      swap3\n      swap2\n      pop\n      pop\n      jump\t// out\n        /* \"#utility.yul\":4605:4776   */\n    tag_214:\n        /* \"#utility.yul\":4745:4768   */\n      0x7368617265732063616e6e6f74206265207a65726f0000000000000000000000\n        /* \"#utility.yul\":4741:4742   */\n      0x00\n        /* \"#utility.yul\":4733:4739   */\n      dup3\n        /* \"#utility.yul\":4729:4743   */\n      add\n        /* \"#utility.yul\":4722:4769   */\n      mstore\n        /* \"#utility.yul\":4605:4776   */\n      pop\n      jump\t// out\n        /* \"#utility.yul\":4782:5148   */\n    tag_215:\n        /* \"#utility.yul\":4924:4927   */\n      0x00\n        /* \"#utility.yul\":4945:5012   */\n      tag_294\n        /* \"#utility.yul\":5009:5011   */\n      0x15\n        /* \"#utility.yul\":5004:5007   */\n      dup4\n        /* \"#utility.yul\":4945:5012   */\n      tag_213\n      jump\t// in\n    tag_294:\n        /* \"#utility.yul\":4938:5012   */\n      swap2\n      pop\n        /* \"#utility.yul\":5021:5114   */\n      tag_295\n        /* \"#utility.yul\":5110:5113   */\n      dup3\n        /* \"#utility.yul\":5021:5114   */\n      tag_214\n      jump\t// in\n    tag_295:\n        /* \"#utility.yul\":5139:5141   */\n      0x20\n        /* \"#utility.yul\":5134:5137   */\n      dup3\n        /* \"#utility.yul\":5130:5142   */\n      add\n        /* \"#utility.yul\":5123:5142   */\n      swap1\n      pop\n        /* \"#utility.yul\":4782:5148   */\n      swap2\n      swap1\n      pop\n      jump\t// out\n        /* \"#utility.yul\":5154:5573   */\n    tag_59:\n        /* \"#utility.yul\":5320:5324   */\n      0x00\n        /* \"#utility.yul\":5358:5360   */\n      0x20\n        /* \"#utility.yul\":5347:5356   */\n      dup3\n        /* \"#utility.yul\":5343:5361   */\n      add\n        /* \"#utility.yul\":5335:5361   */\n      swap1\n      pop\n        /* \"#utility.yul\":5407:5416   */\n      dup2\n        /* \"#utility.yul\":5401:5405   */\n      dup2\n        /* \"#utility.yul\":5397:5417   */\n      sub\n        /* \"#utility.yul\":5393:5394   */\n      0x00\n        /* \"#utility.yul\":5382:5391   */\n      dup4\n        /* \"#utility.yul\":5378:5395   */\n      add\n        /* \"#utility.yul\":5371:5418   */\n      mstore\n        /* \"#utility.yul\":5435:5566   */\n      tag_297\n        /* \"#utility.yul\":5561:5565   */\n      dup2\n        /* \"#utility.yul\":5435:5566   */\n      tag_215\n      jump\t// in\n    tag_297:\n        /* \"#utility.yul\":5427:5566   */\n      swap1\n      pop\n        /* \"#utility.yul\":5154:5573   */\n      swap2\n      swap1\n      pop\n      jump\t// out\n        /* \"#utility.yul\":5579:5743   */\n    tag_216:\n        /* \"#utility.yul\":5719:5735   */\n      0x696e76616c696420736861726573000000000000000000000000000000000000\n        /* \"#utility.yul\":5715:5716   */\n      0x00\n        /* \"#utility.yul\":5707:5713   */\n      dup3\n        /* \"#utility.yul\":5703:5717   */\n      add\n        /* \"#utility.yul\":5696:5736   */\n      mstore\n        /* \"#utility.yul\":5579:5743   */\n      pop\n      jump\t// out\n        /* \"#utility.yul\":5749:6115   */\n    tag_217:\n        /* \"#utility.yul\":5891:5894   */\n      0x00\n        /* \"#utility.yul\":5912:5979   */\n      tag_300\n        /* \"#utility.yul\":5976:5978   */\n      0x0e\n        /* \"#utility.yul\":5971:5974   */\n      dup4\n        /* \"#utility.yul\":5912:5979   */\n      tag_213\n      jump\t// in\n    tag_300:\n        /* \"#utility.yul\":5905:5979   */\n      swap2\n      pop\n        /* \"#utility.yul\":5988:6081   */\n      tag_301\n        /* \"#utility.yul\":6077:6080   */\n      dup3\n        /* \"#utility.yul\":5988:6081   */\n      tag_216\n      jump\t// in\n    tag_301:\n        /* \"#utility.yul\":6106:6108   */\n      0x20\n        /* \"#utility.yul\":6101:6104   */\n      dup3\n        /* \"#utility.yul\":6097:6109   */\n      add\n        /* \"#utility.yul\":6090:6109   */\n      swap1\n      pop\n        /* \"#utility.yul\":5749:6115   */\n      swap2\n      swap1\n      pop\n      jump\t// out\n        /* \"#utility.yul\":6121:6540   */\n    tag_62:\n        /* \"#utility.yul\":6287:6291   */\n      0x00\n        /* \"#utility.yul\":6325:6327   */\n      0x20\n        /* \"#utility.yul\":6314:6323   */\n      dup3\n        /* \"#utility.yul\":6310:6328   */\n      add\n        /* \"#utility.yul\":6302:6328   */\n      swap1\n      pop\n        /* \"#utility.yul\":6374:6383   */\n      dup2\n        /* \"#utility.yul\":6368:6372   */\n      dup2\n        /* \"#utility.yul\":6364:6384   */\n      sub\n        /* \"#utility.yul\":6360:6361   */\n      0x00\n        /* \"#utility.yul\":6349:6358   */\n      dup4\n        /* \"#utility.yul\":6345:6362   */\n      add\n        /* \"#utility.yul\":6338:6385   */\n      mstore\n        /* \"#utility.yul\":6402:6533   */\n      tag_303\n        /* \"#utility.yul\":6528:6532   */\n      dup2\n        /* \"#utility.yul\":6402:6533   */\n      tag_217\n      jump\t// in\n    tag_303:\n        /* \"#utility.yul\":6394:6533   */\n      swap1\n      pop\n        /* \"#utility.yul\":6121:6540   */\n      swap2\n      swap1\n      pop\n      jump\t// out\n        /* \"#utility.yul\":6546:6664   */\n    tag_218:\n        /* \"#utility.yul\":6633:6657   */\n      tag_305\n        /* \"#utility.yul\":6651:6656   */\n      dup2\n        /* \"#utility.yul\":6633:6657   */\n      tag_208\n      jump\t// in\n    tag_305:\n        /* \"#utility.yul\":6628:6631   */\n      dup3\n        /* \"#utility.yul\":6621:6658   */\n      mstore\n        /* \"#utility.yul\":6546:6664   */\n      pop\n      pop\n      jump\t// out\n        /* \"#utility.yul\":6670:6892   */\n    tag_64:\n        /* \"#utility.yul\":6763:6767   */\n      0x00\n        /* \"#utility.yul\":6801:6803   */\n      0x20\n        /* \"#utility.yul\":6790:6799   */\n      dup3\n        /* \"#utility.yul\":6786:6804   */\n      add\n        /* \"#utility.yul\":6778:6804   */\n      swap1\n      pop\n        /* \"#utility.yul\":6814:6885   */\n      tag_307\n        /* \"#utility.yul\":6882:6883   */\n      0x00\n        /* \"#utility.yul\":6871:6880   */\n      dup4\n        /* \"#utility.yul\":6867:6884   */\n      add\n        /* \"#utility.yul\":6858:6864   */\n      dup5\n        /* \"#utility.yul\":6814:6885   */\n      tag_218\n      jump\t// in\n    tag_307:\n        /* \"#utility.yul\":6670:6892   */\n      swap3\n      swap2\n      pop\n      pop\n      jump\t// out\n        /* \"#utility.yul\":6898:7041   */\n    tag_219:\n        /* \"#utility.yul\":6955:6960   */\n      0x00\n        /* \"#utility.yul\":6986:6992   */\n      dup2\n        /* \"#utility.yul\":6980:6993   */\n      mload\n        /* \"#utility.yul\":6971:6993   */\n      swap1\n      pop\n        /* \"#utility.yul\":7002:7035   */\n      tag_309\n        /* \"#utility.yul\":7029:7034   */\n      dup2\n        /* \"#utility.yul\":7002:7035   */\n      tag_211\n      jump\t// in\n    tag_309:\n        /* \"#utility.yul\":6898:7041   */\n      swap3\n      swap2\n      pop\n      pop\n      jump\t// out\n        /* \"#utility.yul\":7047:7398   */\n    tag_68:\n        /* \"#utility.yul\":7117:7123   */\n      0x00\n        /* \"#utility.yul\":7166:7168   */\n      0x20\n        /* \"#utility.yul\":7154:7163   */\n      dup3\n        /* \"#utility.yul\":7145:7152   */\n      dup5\n        /* \"#utility.yul\":7141:7164   */\n      sub\n        /* \"#utility.yul\":7137:7169   */\n      slt\n        /* \"#utility.yul\":7134:7253   */\n      iszero\n      tag_311\n      jumpi\n        /* \"#utility.yul\":7172:7251   */\n      tag_312\n      tag_206\n      jump\t// in\n    tag_312:\n        /* \"#utility.yul\":7134:7253   */\n    tag_311:\n        /* \"#utility.yul\":7292:7293   */\n      0x00\n        /* \"#utility.yul\":7317:7381   */\n      tag_313\n        /* \"#utility.yul\":7373:7380   */\n      dup5\n        /* \"#utility.yul\":7364:7370   */\n      dup3\n        /* \"#utility.yul\":7353:7362   */\n      dup6\n        /* \"#utility.yul\":7349:7371   */\n      add\n        /* \"#utility.yul\":7317:7381   */\n      tag_219\n      jump\t// in\n    tag_313:\n        /* \"#utility.yul\":7307:7381   */\n      swap2\n      pop\n        /* \"#utility.yul\":7263:7391   */\n      pop\n        /* \"#utility.yul\":7047:7398   */\n      swap3\n      swap2\n      pop\n      pop\n      jump\t// out\n        /* \"#utility.yul\":7404:7584   */\n    tag_220:\n        /* \"#utility.yul\":7452:7529   */\n      0x4e487b7100000000000000000000000000000000000000000000000000000000\n        /* \"#utility.yul\":7449:7450   */\n      0x00\n        /* \"#utility.yul\":7442:7530   */\n      mstore\n        /* \"#utility.yul\":7549:7553   */\n      0x11\n        /* \"#utility.yul\":7546:7547   */\n      0x04\n        /* \"#utility.yul\":7539:7554   */\n      mstore\n        /* \"#utility.yul\":7573:7577   */\n      0x24\n        /* \"#utility.yul\":7570:7571   */\n      0x00\n        /* \"#utility.yul\":7563:7578   */\n      revert\n        /* \"#utility.yul\":7590:7938   */\n    tag_74:\n        /* \"#utility.yul\":7630:7637   */\n      0x00\n        /* \"#utility.yul\":7653:7673   */\n      tag_316\n        /* \"#utility.yul\":7671:7672   */\n      dup3\n        /* \"#utility.yul\":7653:7673   */\n      tag_203\n      jump\t// in\n    tag_316:\n        /* \"#utility.yul\":7648:7673   */\n      swap2\n      pop\n        /* \"#utility.yul\":7687:7707   */\n      tag_317\n        /* \"#utility.yul\":7705:7706   */\n      dup4\n        /* \"#utility.yul\":7687:7707   */\n      tag_203\n      jump\t// in\n    tag_317:\n        /* \"#utility.yul\":7682:7707   */\n      swap3\n      pop\n        /* \"#utility.yul\":7875:7876   */\n      dup2\n        /* \"#utility.yul\":7807:7873   */\n      0xffffffffffffffffffffffffffffffffffffffffffffffffffffffffffffffff\n        /* \"#utility.yul\":7803:7877   */\n      div\n        /* \"#utility.yul\":7800:7801   */\n      dup4\n        /* \"#utility.yul\":7797:7878   */\n      gt\n        /* \"#utility.yul\":7792:7793   */\n      dup3\n        /* \"#utility.yul\":7785:7794   */\n      iszero\n        /* \"#utility.yul\":7778:7795   */\n      iszero\n        /* \"#utility.yul\":7774:7879   */\n      and\n        /* \"#utility.yul\":7771:7902   */\n      iszero\n      tag_318\n      jumpi\n        /* \"#utility.yul\":7882:7900   */\n      tag_319\n      tag_220\n      jump\t// in\n    tag_319:\n        /* \"#utility.yul\":7771:7902   */\n    tag_318:\n        /* \"#utility.yul\":7930:7931   */\n      dup3\n        /* \"#utility.yul\":7927:7928   */\n      dup3\n        /* \"#utility.yul\":7923:7932   */\n      mul\n        /* \"#utility.yul\":7912:7932   */\n      swap1\n      pop\n        /* \"#utility.yul\":7590:7938   */\n      swap3\n      swap2\n      pop\n      pop\n      jump\t// out\n        /* \"#utility.yul\":7944:8124   */\n    tag_221:\n        /* \"#utility.yul\":7992:8069   */\n      0x4e487b7100000000000000000000000000000000000000000000000000000000\n        /* \"#utility.yul\":7989:7990   */\n      0x00\n        /* \"#utility.yul\":7982:8070   */\n      mstore\n        /* \"#utility.yul\":8089:8093   */\n      0x12\n        /* \"#utility.yul\":8086:8087   */\n      0x04\n        /* \"#utility.yul\":8079:8094   */\n      mstore\n        /* \"#utility.yul\":8113:8117   */\n      0x24\n        /* \"#utility.yul\":8110:8111   */\n      0x00\n        /* \"#utility.yul\":8103:8118   */\n      revert\n        /* \"#utility.yul\":8130:8315   */\n    tag_76:\n        /* \"#utility.yul\":8170:8171   */\n      0x00\n        /* \"#utility.yul\":8187:8207   */\n      tag_322\n        /* \"#utility.yul\":8205:8206   */\n      dup3\n        /* \"#utility.yul\":8187:8207   */\n      tag_203\n      jump\t// in\n    tag_322:\n        /* \"#utility.yul\":8182:8207   */\n      swap2\n      pop\n        /* \"#utility.yul\":8221:8241   */\n      tag_323\n        /* \"#utility.yul\":8239:8240   */\n      dup4\n        /* \"#utility.yul\":8221:8241   */\n      tag_203\n      jump\t// in\n    tag_323:\n        /* \"#utility.yul\":8216:8241   */\n      swap3\n      pop\n        /* \"#utility.yul\":8260:8261   */\n      dup3\n        /* \"#utility.yul\":8250:8285   */\n      tag_324\n      jumpi\n        /* \"#utility.yul\":8265:8283   */\n      tag_325\n      tag_221\n      jump\t// in\n    tag_325:\n        /* \"#utility.yul\":8250:8285   */\n    tag_324:\n        /* \"#utility.yul\":8307:8308   */\n      dup3\n        /* \"#utility.yul\":8304:8305   */\n      dup3\n        /* \"#utility.yul\":8300:8309   */\n      div\n        /* \"#utility.yul\":8295:8309   */\n      swap1\n      pop\n        /* \"#utility.yul\":8130:8315   */\n      swap3\n      swap2\n      pop\n      pop\n      jump\t// out\n        /* \"#utility.yul\":8321:8494   */\n    tag_222:\n        /* \"#utility.yul\":8461:8486   */\n      0x616d6d6f756e7430206f7220616d6f756e7431203d2030000000000000000000\n        /* \"#utility.yul\":8457:8458   */\n      0x00\n        /* \"#utility.yul\":8449:8455   */\n      dup3\n        /* \"#utility.yul\":8445:8459   */\n      add\n        /* \"#utility.yul\":8438:8487   */\n      mstore\n        /* \"#utility.yul\":8321:8494   */\n      pop\n      jump\t// out\n        /* \"#utility.yul\":8500:8866   */\n    tag_223:\n        /* \"#utility.yul\":8642:8645   */\n      0x00\n        /* \"#utility.yul\":8663:8730   */\n      tag_328\n        /* \"#utility.yul\":8727:8729   */\n      0x17\n        /* \"#utility.yul\":8722:8725   */\n      dup4\n        /* \"#utility.yul\":8663:8730   */\n      tag_213\n      jump\t// in\n    tag_328:\n        /* \"#utility.yul\":8656:8730   */\n      swap2\n      pop\n        /* \"#utility.yul\":8739:8832   */\n      tag_329\n        /* \"#utility.yul\":8828:8831   */\n      dup3\n        /* \"#utility.yul\":8739:8832   */\n      tag_222\n      jump\t// in\n    tag_329:\n        /* \"#utility.yul\":8857:8859   */\n      0x20\n        /* \"#utility.yul\":8852:8855   */\n      dup3\n        /* \"#utility.yul\":8848:8860   */\n      add\n        /* \"#utility.yul\":8841:8860   */\n      swap1\n      pop\n        /* \"#utility.yul\":8500:8866   */\n      swap2\n      swap1\n      pop\n      jump\t// out\n        /* \"#utility.yul\":8872:9291   */\n    tag_82:\n        /* \"#utility.yul\":9038:9042   */\n      0x00\n        /* \"#utility.yul\":9076:9078   */\n      0x20\n        /* \"#utility.yul\":9065:9074   */\n      dup3\n        /* \"#utility.yul\":9061:9079   */\n      add\n        /* \"#utility.yul\":9053:9079   */\n      swap1\n      pop\n        /* \"#utility.yul\":9125:9134   */\n      dup2\n        /* \"#utility.yul\":9119:9123   */\n      dup2\n        /* \"#utility.yul\":9115:9135   */\n      sub\n        /* \"#utility.yul\":9111:9112   */\n      0x00\n        /* \"#utility.yul\":9100:9109   */\n      dup4\n        /* \"#utility.yul\":9096:9113   */\n      add\n        /* \"#utility.yul\":9089:9136   */\n      mstore\n        /* \"#utility.yul\":9153:9284   */\n      tag_331\n        /* \"#utility.yul\":9279:9283   */\n      dup2\n        /* \"#utility.yul\":9153:9284   */\n      tag_223\n      jump\t// in\n    tag_331:\n        /* \"#utility.yul\":9145:9284   */\n      swap1\n      pop\n        /* \"#utility.yul\":8872:9291   */\n      swap2\n      swap1\n      pop\n      jump\t// out\n        /* \"#utility.yul\":9297:9488   */\n    tag_87:\n        /* \"#utility.yul\":9337:9341   */\n      0x00\n        /* \"#utility.yul\":9357:9377   */\n      tag_333\n        /* \"#utility.yul\":9375:9376   */\n      dup3\n        /* \"#utility.yul\":9357:9377   */\n      tag_203\n      jump\t// in\n    tag_333:\n        /* \"#utility.yul\":9352:9377   */\n      swap2\n      pop\n        /* \"#utility.yul\":9391:9411   */\n      tag_334\n        /* \"#utility.yul\":9409:9410   */\n      dup4\n        /* \"#utility.yul\":9391:9411   */\n      tag_203\n      jump\t// in\n    tag_334:\n        /* \"#utility.yul\":9386:9411   */\n      swap3\n      pop\n        /* \"#utility.yul\":9430:9431   */\n      dup3\n        /* \"#utility.yul\":9427:9428   */\n      dup3\n        /* \"#utility.yul\":9424:9432   */\n      lt\n        /* \"#utility.yul\":9421:9455   */\n      iszero\n      tag_335\n      jumpi\n        /* \"#utility.yul\":9435:9453   */\n      tag_336\n      tag_220\n      jump\t// in\n    tag_336:\n        /* \"#utility.yul\":9421:9455   */\n    tag_335:\n        /* \"#utility.yul\":9480:9481   */\n      dup3\n        /* \"#utility.yul\":9477:9478   */\n      dup3\n        /* \"#utility.yul\":9473:9482   */\n      sub\n        /* \"#utility.yul\":9465:9482   */\n      swap1\n      pop\n        /* \"#utility.yul\":9297:9488   */\n      swap3\n      swap2\n      pop\n      pop\n      jump\t// out\n        /* \"#utility.yul\":9494:9826   */\n    tag_91:\n        /* \"#utility.yul\":9615:9619   */\n      0x00\n        /* \"#utility.yul\":9653:9655   */\n      0x40\n        /* \"#utility.yul\":9642:9651   */\n      dup3\n        /* \"#utility.yul\":9638:9656   */\n      add\n        /* \"#utility.yul\":9630:9656   */\n      swap1\n      pop\n        /* \"#utility.yul\":9666:9737   */\n      tag_338\n        /* \"#utility.yul\":9734:9735   */\n      0x00\n        /* \"#utility.yul\":9723:9732   */\n      dup4\n        /* \"#utility.yul\":9719:9736   */\n      add\n        /* \"#utility.yul\":9710:9716   */\n      dup6\n        /* \"#utility.yul\":9666:9737   */\n      tag_218\n      jump\t// in\n    tag_338:\n        /* \"#utility.yul\":9747:9819   */\n      tag_339\n        /* \"#utility.yul\":9815:9817   */\n      0x20\n        /* \"#utility.yul\":9804:9813   */\n      dup4\n        /* \"#utility.yul\":9800:9818   */\n      add\n        /* \"#utility.yul\":9791:9797   */\n      dup5\n        /* \"#utility.yul\":9747:9819   */\n      tag_204\n      jump\t// in\n    tag_339:\n        /* \"#utility.yul\":9494:9826   */\n      swap4\n      swap3\n      pop\n      pop\n      pop\n      jump\t// out\n        /* \"#utility.yul\":9832:9922   */\n    tag_224:\n        /* \"#utility.yul\":9866:9873   */\n      0x00\n        /* \"#utility.yul\":9909:9914   */\n      dup2\n        /* \"#utility.yul\":9902:9915   */\n      iszero\n        /* \"#utility.yul\":9895:9916   */\n      iszero\n        /* \"#utility.yul\":9884:9916   */\n      swap1\n      pop\n        /* \"#utility.yul\":9832:9922   */\n      swap2\n      swap1\n      pop\n      jump\t// out\n        /* \"#utility.yul\":9928:10044   */\n    tag_225:\n        /* \"#utility.yul\":9998:10019   */\n      tag_342\n        /* \"#utility.yul\":10013:10018   */\n      dup2\n        /* \"#utility.yul\":9998:10019   */\n      tag_224\n      jump\t// in\n    tag_342:\n        /* \"#utility.yul\":9991:9996   */\n      dup2\n        /* \"#utility.yul\":9988:10020   */\n      eq\n        /* \"#utility.yul\":9978:10038   */\n      tag_343\n      jumpi\n        /* \"#utility.yul\":10034:10035   */\n      0x00\n        /* \"#utility.yul\":10031:10032   */\n      dup1\n        /* \"#utility.yul\":10024:10036   */\n      revert\n        /* \"#utility.yul\":9978:10038   */\n    tag_343:\n        /* \"#utility.yul\":9928:10044   */\n      pop\n      jump\t// out\n        /* \"#utility.yul\":10050:10187   */\n    tag_226:\n        /* \"#utility.yul\":10104:10109   */\n      0x00\n        /* \"#utility.yul\":10135:10141   */\n      dup2\n        /* \"#utility.yul\":10129:10142   */\n      mload\n        /* \"#utility.yul\":10120:10142   */\n      swap1\n      pop\n        /* \"#utility.yul\":10151:10181   */\n      tag_345\n        /* \"#utility.yul\":10175:10180   */\n      dup2\n        /* \"#utility.yul\":10151:10181   */\n      tag_225\n      jump\t// in\n    tag_345:\n        /* \"#utility.yul\":10050:10187   */\n      swap3\n      swap2\n      pop\n      pop\n      jump\t// out\n        /* \"#utility.yul\":10193:10538   */\n    tag_95:\n        /* \"#utility.yul\":10260:10266   */\n      0x00\n        /* \"#utility.yul\":10309:10311   */\n      0x20\n        /* \"#utility.yul\":10297:10306   */\n      dup3\n        /* \"#utility.yul\":10288:10295   */\n      dup5\n        /* \"#utility.yul\":10284:10307   */\n      sub\n        /* \"#utility.yul\":10280:10312   */\n      slt\n        /* \"#utility.yul\":10277:10396   */\n      iszero\n      tag_347\n      jumpi\n        /* \"#utility.yul\":10315:10394   */\n      tag_348\n      tag_206\n      jump\t// in\n    tag_348:\n        /* \"#utility.yul\":10277:10396   */\n    tag_347:\n        /* \"#utility.yul\":10435:10436   */\n      0x00\n        /* \"#utility.yul\":10460:10521   */\n      tag_349\n        /* \"#utility.yul\":10513:10520   */\n      dup5\n        /* \"#utility.yul\":10504:10510   */\n      dup3\n        /* \"#utility.yul\":10493:10502   */\n      dup6\n        /* \"#utility.yul\":10489:10511   */\n      add\n        /* \"#utility.yul\":10460:10521   */\n      tag_226\n      jump\t// in\n    tag_349:\n        /* \"#utility.yul\":10450:10521   */\n      swap2\n      pop\n        /* \"#utility.yul\":10406:10531   */\n      pop\n        /* \"#utility.yul\":10193:10538   */\n      swap3\n      swap2\n      pop\n      pop\n      jump\t// out\n        /* \"#utility.yul\":10544:10986   */\n    tag_102:\n        /* \"#utility.yul\":10693:10697   */\n      0x00\n        /* \"#utility.yul\":10731:10733   */\n      0x60\n        /* \"#utility.yul\":10720:10729   */\n      dup3\n        /* \"#utility.yul\":10716:10734   */\n      add\n        /* \"#utility.yul\":10708:10734   */\n      swap1\n      pop\n        /* \"#utility.yul\":10744:10815   */\n      tag_351\n        /* \"#utility.yul\":10812:10813   */\n      0x00\n        /* \"#utility.yul\":10801:10810   */\n      dup4\n        /* \"#utility.yul\":10797:10814   */\n      add\n        /* \"#utility.yul\":10788:10794   */\n      dup7\n        /* \"#utility.yul\":10744:10815   */\n      tag_218\n      jump\t// in\n    tag_351:\n        /* \"#utility.yul\":10825:10897   */\n      tag_352\n        /* \"#utility.yul\":10893:10895   */\n      0x20\n        /* \"#utility.yul\":10882:10891   */\n      dup4\n        /* \"#utility.yul\":10878:10896   */\n      add\n        /* \"#utility.yul\":10869:10875   */\n      dup6\n        /* \"#utility.yul\":10825:10897   */\n      tag_218\n      jump\t// in\n    tag_352:\n        /* \"#utility.yul\":10907:10979   */\n      tag_353\n        /* \"#utility.yul\":10975:10977   */\n      0x40\n        /* \"#utility.yul\":10964:10973   */\n      dup4\n        /* \"#utility.yul\":10960:10978   */\n      add\n        /* \"#utility.yul\":10951:10957   */\n      dup5\n        /* \"#utility.yul\":10907:10979   */\n      tag_204\n      jump\t// in\n    tag_353:\n        /* \"#utility.yul\":10544:10986   */\n      swap5\n      swap4\n      pop\n      pop\n      pop\n      pop\n      jump\t// out\n        /* \"#utility.yul\":10992:11158   */\n    tag_227:\n        /* \"#utility.yul\":11132:11150   */\n      0x6479202f20647820213d2079202f207800000000000000000000000000000000\n        /* \"#utility.yul\":11128:11129   */\n      0x00\n        /* \"#utility.yul\":11120:11126   */\n      dup3\n        /* \"#utility.yul\":11116:11130   */\n      add\n        /* \"#utility.yul\":11109:11151   */\n      mstore\n        /* \"#utility.yul\":10992:11158   */\n      pop\n      jump\t// out\n        /* \"#utility.yul\":11164:11530   */\n    tag_228:\n        /* \"#utility.yul\":11306:11309   */\n      0x00\n        /* \"#utility.yul\":11327:11394   */\n      tag_356\n        /* \"#utility.yul\":11391:11393   */\n      0x10\n        /* \"#utility.yul\":11386:11389   */\n      dup4\n        /* \"#utility.yul\":11327:11394   */\n      tag_213\n      jump\t// in\n    tag_356:\n        /* \"#utility.yul\":11320:11394   */\n      swap2\n      pop\n        /* \"#utility.yul\":11403:11496   */\n      tag_357\n        /* \"#utility.yul\":11492:11495   */\n      dup3\n        /* \"#utility.yul\":11403:11496   */\n      tag_227\n      jump\t// in\n    tag_357:\n        /* \"#utility.yul\":11521:11523   */\n      0x20\n        /* \"#utility.yul\":11516:11519   */\n      dup3\n        /* \"#utility.yul\":11512:11524   */\n      add\n        /* \"#utility.yul\":11505:11524   */\n      swap1\n      pop\n        /* \"#utility.yul\":11164:11530   */\n      swap2\n      swap1\n      pop\n      jump\t// out\n        /* \"#utility.yul\":11536:11955   */\n    tag_116:\n        /* \"#utility.yul\":11702:11706   */\n      0x00\n        /* \"#utility.yul\":11740:11742   */\n      0x20\n        /* \"#utility.yul\":11729:11738   */\n      dup3\n        /* \"#utility.yul\":11725:11743   */\n      add\n        /* \"#utility.yul\":11717:11743   */\n      swap1\n      pop\n        /* \"#utility.yul\":11789:11798   */\n      dup2\n        /* \"#utility.yul\":11783:11787   */\n      dup2\n        /* \"#utility.yul\":11779:11799   */\n      sub\n        /* \"#utility.yul\":11775:11776   */\n      0x00\n        /* \"#utility.yul\":11764:11773   */\n      dup4\n        /* \"#utility.yul\":11760:11777   */\n      add\n        /* \"#utility.yul\":11753:11800   */\n      mstore\n        /* \"#utility.yul\":11817:11948   */\n      tag_359\n        /* \"#utility.yul\":11943:11947   */\n      dup2\n        /* \"#utility.yul\":11817:11948   */\n      tag_228\n      jump\t// in\n    tag_359:\n        /* \"#utility.yul\":11809:11948   */\n      swap1\n      pop\n        /* \"#utility.yul\":11536:11955   */\n      swap2\n      swap1\n      pop\n      jump\t// out\n        /* \"#utility.yul\":11961:12121   */\n    tag_229:\n        /* \"#utility.yul\":12101:12113   */\n      0x736861726573203d203000000000000000000000000000000000000000000000\n        /* \"#utility.yul\":12097:12098   */\n      0x00\n        /* \"#utility.yul\":12089:12095   */\n      dup3\n        /* \"#utility.yul\":12085:12099   */\n      add\n        /* \"#utility.yul\":12078:12114   */\n      mstore\n        /* \"#utility.yul\":11961:12121   */\n      pop\n      jump\t// out\n        /* \"#utility.yul\":12127:12493   */\n    tag_230:\n        /* \"#utility.yul\":12269:12272   */\n      0x00\n        /* \"#utility.yul\":12290:12357   */\n      tag_362\n        /* \"#utility.yul\":12354:12356   */\n      0x0a\n        /* \"#utility.yul\":12349:12352   */\n      dup4\n        /* \"#utility.yul\":12290:12357   */\n      tag_213\n      jump\t// in\n    tag_362:\n        /* \"#utility.yul\":12283:12357   */\n      swap2\n      pop\n        /* \"#utility.yul\":12366:12459   */\n      tag_363\n        /* \"#utility.yul\":12455:12458   */\n      dup3\n        /* \"#utility.yul\":12366:12459   */\n      tag_229\n      jump\t// in\n    tag_363:\n        /* \"#utility.yul\":12484:12486   */\n      0x20\n        /* \"#utility.yul\":12479:12482   */\n      dup3\n        /* \"#utility.yul\":12475:12487   */\n      add\n        /* \"#utility.yul\":12468:12487   */\n      swap1\n      pop\n        /* \"#utility.yul\":12127:12493   */\n      swap2\n      swap1\n      pop\n      jump\t// out\n        /* \"#utility.yul\":12499:12918   */\n    tag_130:\n        /* \"#utility.yul\":12665:12669   */\n      0x00\n        /* \"#utility.yul\":12703:12705   */\n      0x20\n        /* \"#utility.yul\":12692:12701   */\n      dup3\n        /* \"#utility.yul\":12688:12706   */\n      add\n        /* \"#utility.yul\":12680:12706   */\n      swap1\n      pop\n        /* \"#utility.yul\":12752:12761   */\n      dup2\n        /* \"#utility.yul\":12746:12750   */\n      dup2\n        /* \"#utility.yul\":12742:12762   */\n      sub\n        /* \"#utility.yul\":12738:12739   */\n      0x00\n        /* \"#utility.yul\":12727:12736   */\n      dup4\n        /* \"#utility.yul\":12723:12740   */\n      add\n        /* \"#utility.yul\":12716:12763   */\n      mstore\n        /* \"#utility.yul\":12780:12911   */\n      tag_365\n        /* \"#utility.yul\":12906:12910   */\n      dup2\n        /* \"#utility.yul\":12780:12911   */\n      tag_230\n      jump\t// in\n    tag_365:\n        /* \"#utility.yul\":12772:12911   */\n      swap1\n      pop\n        /* \"#utility.yul\":12499:12918   */\n      swap2\n      swap1\n      pop\n      jump\t// out\n        /* \"#utility.yul\":12924:13087   */\n    tag_231:\n        /* \"#utility.yul\":13064:13079   */\n      0x696e76616c696420746f6b656e00000000000000000000000000000000000000\n        /* \"#utility.yul\":13060:13061   */\n      0x00\n        /* \"#utility.yul\":13052:13058   */\n      dup3\n        /* \"#utility.yul\":13048:13062   */\n      add\n        /* \"#utility.yul\":13041:13080   */\n      mstore\n        /* \"#utility.yul\":12924:13087   */\n      pop\n      jump\t// out\n        /* \"#utility.yul\":13093:13459   */\n    tag_232:\n        /* \"#utility.yul\":13235:13238   */\n      0x00\n        /* \"#utility.yul\":13256:13323   */\n      tag_368\n        /* \"#utility.yul\":13320:13322   */\n      0x0d\n        /* \"#utility.yul\":13315:13318   */\n      dup4\n        /* \"#utility.yul\":13256:13323   */\n      tag_213\n      jump\t// in\n    tag_368:\n        /* \"#utility.yul\":13249:13323   */\n      swap2\n      pop\n        /* \"#utility.yul\":13332:13425   */\n      tag_369\n        /* \"#utility.yul\":13421:13424   */\n      dup3\n        /* \"#utility.yul\":13332:13425   */\n      tag_231\n      jump\t// in\n    tag_369:\n        /* \"#utility.yul\":13450:13452   */\n      0x20\n        /* \"#utility.yul\":13445:13448   */\n      dup3\n        /* \"#utility.yul\":13441:13453   */\n      add\n        /* \"#utility.yul\":13434:13453   */\n      swap1\n      pop\n        /* \"#utility.yul\":13093:13459   */\n      swap2\n      swap1\n      pop\n      jump\t// out\n        /* \"#utility.yul\":13465:13884   */\n    tag_146:\n        /* \"#utility.yul\":13631:13635   */\n      0x00\n        /* \"#utility.yul\":13669:13671   */\n      0x20\n        /* \"#utility.yul\":13658:13667   */\n      dup3\n        /* \"#utility.yul\":13654:13672   */\n      add\n        /* \"#utility.yul\":13646:13672   */\n      swap1\n      pop\n        /* \"#utility.yul\":13718:13727   */\n      dup2\n        /* \"#utility.yul\":13712:13716   */\n      dup2\n        /* \"#utility.yul\":13708:13728   */\n      sub\n        /* \"#utility.yul\":13704:13705   */\n      0x00\n        /* \"#utility.yul\":13693:13702   */\n      dup4\n        /* \"#utility.yul\":13689:13706   */\n      add\n        /* \"#utility.yul\":13682:13729   */\n      mstore\n        /* \"#utility.yul\":13746:13877   */\n      tag_371\n        /* \"#utility.yul\":13872:13876   */\n      dup2\n        /* \"#utility.yul\":13746:13877   */\n      tag_232\n      jump\t// in\n    tag_371:\n        /* \"#utility.yul\":13738:13877   */\n      swap1\n      pop\n        /* \"#utility.yul\":13465:13884   */\n      swap2\n      swap1\n      pop\n      jump\t// out\n        /* \"#utility.yul\":13890:14061   */\n    tag_233:\n        /* \"#utility.yul\":14030:14053   */\n      0x616d6f756e742063616e6e6f74206265207a65726f0000000000000000000000\n        /* \"#utility.yul\":14026:14027   */\n      0x00\n        /* \"#utility.yul\":14018:14024   */\n      dup3\n        /* \"#utility.yul\":14014:14028   */\n      add\n        /* \"#utility.yul\":14007:14054   */\n      mstore\n        /* \"#utility.yul\":13890:14061   */\n      pop\n      jump\t// out\n        /* \"#utility.yul\":14067:14433   */\n    tag_234:\n        /* \"#utility.yul\":14209:14212   */\n      0x00\n        /* \"#utility.yul\":14230:14297   */\n      tag_374\n        /* \"#utility.yul\":14294:14296   */\n      0x15\n        /* \"#utility.yul\":14289:14292   */\n      dup4\n        /* \"#utility.yul\":14230:14297   */\n      tag_213\n      jump\t// in\n    tag_374:\n        /* \"#utility.yul\":14223:14297   */\n      swap2\n      pop\n        /* \"#utility.yul\":14306:14399   */\n      tag_375\n        /* \"#utility.yul\":14395:14398   */\n      dup3\n        /* \"#utility.yul\":14306:14399   */\n      tag_233\n      jump\t// in\n    tag_375:\n        /* \"#utility.yul\":14424:14426   */\n      0x20\n        /* \"#utility.yul\":14419:14422   */\n      dup3\n        /* \"#utility.yul\":14415:14427   */\n      add\n        /* \"#utility.yul\":14408:14427   */\n      swap1\n      pop\n        /* \"#utility.yul\":14067:14433   */\n      swap2\n      swap1\n      pop\n      jump\t// out\n        /* \"#utility.yul\":14439:14858   */\n    tag_149:\n        /* \"#utility.yul\":14605:14609   */\n      0x00\n        /* \"#utility.yul\":14643:14645   */\n      0x20\n        /* \"#utility.yul\":14632:14641   */\n      dup3\n        /* \"#utility.yul\":14628:14646   */\n      add\n        /* \"#utility.yul\":14620:14646   */\n      swap1\n      pop\n        /* \"#utility.yul\":14692:14701   */\n      dup2\n        /* \"#utility.yul\":14686:14690   */\n      dup2\n        /* \"#utility.yul\":14682:14702   */\n      sub\n        /* \"#utility.yul\":14678:14679   */\n      0x00\n        /* \"#utility.yul\":14667:14676   */\n      dup4\n        /* \"#utility.yul\":14663:14680   */\n      add\n        /* \"#utility.yul\":14656:14703   */\n      mstore\n        /* \"#utility.yul\":14720:14851   */\n      tag_377\n        /* \"#utility.yul\":14846:14850   */\n      dup2\n        /* \"#utility.yul\":14720:14851   */\n      tag_234\n      jump\t// in\n    tag_377:\n        /* \"#utility.yul\":14712:14851   */\n      swap1\n      pop\n        /* \"#utility.yul\":14439:14858   */\n      swap2\n      swap1\n      pop\n      jump\t// out\n        /* \"#utility.yul\":14864:15169   */\n    tag_159:\n        /* \"#utility.yul\":14904:14907   */\n      0x00\n        /* \"#utility.yul\":14923:14943   */\n      tag_379\n        /* \"#utility.yul\":14941:14942   */\n      dup3\n        /* \"#utility.yul\":14923:14943   */\n      tag_203\n      jump\t// in\n    tag_379:\n        /* \"#utility.yul\":14918:14943   */\n      swap2\n      pop\n        /* \"#utility.yul\":14957:14977   */\n      tag_380\n        /* \"#utility.yul\":14975:14976   */\n      dup4\n        /* \"#utility.yul\":14957:14977   */\n      tag_203\n      jump\t// in\n    tag_380:\n        /* \"#utility.yul\":14952:14977   */\n      swap3\n      pop\n        /* \"#utility.yul\":15111:15112   */\n      dup3\n        /* \"#utility.yul\":15043:15109   */\n      0xffffffffffffffffffffffffffffffffffffffffffffffffffffffffffffffff\n        /* \"#utility.yul\":15039:15113   */\n      sub\n        /* \"#utility.yul\":15036:15037   */\n      dup3\n        /* \"#utility.yul\":15033:15114   */\n      gt\n        /* \"#utility.yul\":15030:15137   */\n      iszero\n      tag_381\n      jumpi\n        /* \"#utility.yul\":15117:15135   */\n      tag_382\n      tag_220\n      jump\t// in\n    tag_382:\n        /* \"#utility.yul\":15030:15137   */\n    tag_381:\n        /* \"#utility.yul\":15161:15162   */\n      dup3\n        /* \"#utility.yul\":15158:15159   */\n      dup3\n        /* \"#utility.yul\":15154:15163   */\n      add\n        /* \"#utility.yul\":15147:15163   */\n      swap1\n      pop\n        /* \"#utility.yul\":14864:15169   */\n      swap3\n      swap2\n      pop\n      pop\n      jump\t// out\n\n    auxdata: 0xa26469706673582212208b8577b8a4165958ef89bf407de62f44e4098729ed744856540441f57d64b7a364736f6c634300080d0033\n}\n",
				"bytecode": {
					"linkReferences": {},
					"object": "60c06040523480156200001157600080fd5b5060405162001ced38038062001ced83398181016040528101906200003791906200022f565b600073ffffffffffffffffffffffffffffffffffffffff168273ffffffffffffffffffffffffffffffffffffffff1614158015620000a25750600073ffffffffffffffffffffffffffffffffffffffff168173ffffffffffffffffffffffffffffffffffffffff1614155b620000e4576040517f08c379a0000000000000000000000000000000000000000000000000000000008152600401620000db90620002d7565b60405180910390fd5b8073ffffffffffffffffffffffffffffffffffffffff168273ffffffffffffffffffffffffffffffffffffffff160362000155576040517f08c379a00000000000000000000000000000000000000000000000000000000081526004016200014c9062000349565b60405180910390fd5b8173ffffffffffffffffffffffffffffffffffffffff1660808173ffffffffffffffffffffffffffffffffffffffff16815250508073ffffffffffffffffffffffffffffffffffffffff1660a08173ffffffffffffffffffffffffffffffffffffffff168152505050506200036b565b600080fd5b600073ffffffffffffffffffffffffffffffffffffffff82169050919050565b6000620001f782620001ca565b9050919050565b6200020981620001ea565b81146200021557600080fd5b50565b6000815190506200022981620001fe565b92915050565b60008060408385031215620002495762000248620001c5565b5b6000620002598582860162000218565b92505060206200026c8582860162000218565b9150509250929050565b600082825260208201905092915050565b7f7a65726f20616464726573730000000000000000000000000000000000000000600082015250565b6000620002bf600c8362000276565b9150620002cc8262000287565b602082019050919050565b60006020820190508181036000830152620002f281620002b0565b9050919050565b7f6475706c69636174652061646472657373000000000000000000000000000000600082015250565b60006200033160118362000276565b91506200033e82620002f9565b602082019050919050565b60006020820190508181036000830152620003648162000322565b9050919050565b60805160a0516118e562000408600039600081816103e2015281816105cc015281816107150152818161097a01528181610a7601528181610ba601528181610c1401528181610e240152610ecf01526000818161022c015281816103440152818161052d01528181610674015281816108e001528181610a2101528181610b4a01528181610bc701528181610bf30152610d8a01526118e56000f3fe608060405234801561001057600080fd5b506004361061009e5760003560e01c80639c8f9f23116100665780639c8f9f231461014b5780639cd441da1461017c578063d004f0f7146101ac578063d21220a7146101dc578063f04da65b146101fa5761009e565b80630dfe1681146100a357806318160ddd146100c1578063443cb4bc146100df5780635a76f25e146100fd57806370a082311461011b575b600080fd5b6100ab61022a565b6040516100b89190611145565b60405180910390f35b6100c961024e565b6040516100d69190611179565b60405180910390f35b6100e7610254565b6040516100f49190611179565b60405180910390f35b61010561025a565b6040516101129190611179565b60405180910390f35b610135600480360381019061013091906111d7565b610260565b6040516101429190611179565b60405180910390f35b61016560048036038101906101609190611230565b610278565b60405161017392919061125d565b60405180910390f35b61019660048036038101906101919190611286565b610670565b6040516101a39190611179565b60405180910390f35b6101c660048036038101906101c191906112c6565b610a1d565b6040516101d39190611179565b60405180910390f35b6101e4610ecd565b6040516101f19190611145565b60405180910390f35b610214600480360381019061020f91906111d7565b610ef1565b6040516102219190611179565b60405180910390f35b7f000000000000000000000000000000000000000000000000000000000000000081565b60025481565b60005481565b60015481565b60036020528060005260406000206000915090505481565b600080600083116102be576040517f08c379a00000000000000000000000000000000000000000000000000000000081526004016102b590611363565b60405180910390fd5b600360003373ffffffffffffffffffffffffffffffffffffffff1673ffffffffffffffffffffffffffffffffffffffff16815260200190815260200160002054831115610340576040517f08c379a0000000000000000000000000000000000000000000000000000000008152600401610337906113cf565b60405180910390fd5b60007f000000000000000000000000000000000000000000000000000000000000000073ffffffffffffffffffffffffffffffffffffffff166370a08231306040518263ffffffff1660e01b815260040161039b91906113fe565b602060405180830381865afa1580156103b8573d6000803e3d6000fd5b505050506040513d601f19601f820116820180604052508101906103dc919061142e565b905060007f000000000000000000000000000000000000000000000000000000000000000073ffffffffffffffffffffffffffffffffffffffff166370a08231306040518263ffffffff1660e01b815260040161043991906113fe565b602060405180830381865afa158015610456573d6000803e3d6000fd5b505050506040513d601f19601f8201168201806040525081019061047a919061142e565b9050600254828661048b919061148a565b6104959190611513565b935060025481866104a6919061148a565b6104b09190611513565b92506000841180156104c25750600083115b610501576040517f08c379a00000000000000000000000000000000000000000000000000000000081526004016104f890611590565b60405180910390fd5b61050b3386610f3a565b61052b848361051a91906115b0565b848361052691906115b0565b610fad565b7f000000000000000000000000000000000000000000000000000000000000000073ffffffffffffffffffffffffffffffffffffffff1663a9059cbb33866040518363ffffffff1660e01b81526004016105869291906115e4565b6020604051808303816000875af11580156105a5573d6000803e3d6000fd5b505050506040513d601f19601f820116820180604052508101906105c99190611645565b507f000000000000000000000000000000000000000000000000000000000000000073ffffffffffffffffffffffffffffffffffffffff1663a9059cbb33856040518363ffffffff1660e01b81526004016106259291906115e4565b6020604051808303816000875af1158015610644573d6000803e3d6000fd5b505050506040513d601f19601f820116820180604052508101906106689190611645565b505050915091565b60007f000000000000000000000000000000000000000000000000000000000000000073ffffffffffffffffffffffffffffffffffffffff166323b872dd3330866040518463ffffffff1660e01b81526004016106cf93929190611672565b6020604051808303816000875af11580156106ee573d6000803e3d6000fd5b505050506040513d601f19601f820116820180604052508101906107129190611645565b507f000000000000000000000000000000000000000000000000000000000000000073ffffffffffffffffffffffffffffffffffffffff166323b872dd3330856040518463ffffffff1660e01b815260040161077093929190611672565b6020604051808303816000875af115801561078f573d6000803e3d6000fd5b505050506040513d601f19601f820116820180604052508101906107b39190611645565b506000805411806107c657506000600154115b1561082857826001546107d9919061148a565b826000546107e7919061148a565b14610827576040517f08c379a000000000000000000000000000000000000000000000000000000000815260040161081e906116f5565b60405180910390fd5b5b60006002540361084d576108468284610841919061148a565b610fbf565b905061088e565b61088b60005460025485610861919061148a565b61086b9190611513565b6001546002548561087c919061148a565b6108869190611513565b611039565b90505b600081116108d1576040517f08c379a00000000000000000000000000000000000000000000000000000000081526004016108c890611761565b60405180910390fd5b6108db3382611053565b610a177f000000000000000000000000000000000000000000000000000000000000000073ffffffffffffffffffffffffffffffffffffffff166370a08231306040518263ffffffff1660e01b815260040161093791906113fe565b602060405180830381865afa158015610954573d6000803e3d6000fd5b505050506040513d601f19601f82011682018060405250810190610978919061142e565b7f000000000000000000000000000000000000000000000000000000000000000073ffffffffffffffffffffffffffffffffffffffff166370a08231306040518263ffffffff1660e01b81526004016109d191906113fe565b602060405180830381865afa1580156109ee573d6000803e3d6000fd5b505050506040513d601f19601f82011682018060405250810190610a12919061142e565b610fad565b92915050565b60007f000000000000000000000000000000000000000000000000000000000000000073ffffffffffffffffffffffffffffffffffffffff168373ffffffffffffffffffffffffffffffffffffffff161480610ac457507f000000000000000000000000000000000000000000000000000000000000000073ffffffffffffffffffffffffffffffffffffffff168373ffffffffffffffffffffffffffffffffffffffff16145b610b03576040517f08c379a0000000000000000000000000000000000000000000000000000000008152600401610afa906117cd565b60405180910390fd5b60008211610b46576040517f08c379a0000000000000000000000000000000000000000000000000000000008152600401610b3d90611839565b60405180910390fd5b60007f000000000000000000000000000000000000000000000000000000000000000073ffffffffffffffffffffffffffffffffffffffff168473ffffffffffffffffffffffffffffffffffffffff1614905060008060008084610bf1577f00000000000000000000000000000000000000000000000000000000000000007f0000000000000000000000000000000000000000000000000000000000000000600154600054610c3a565b7f00000000000000000000000000000000000000000000000000000000000000007f00000000000000000000000000000000000000000000000000000000000000006000546001545b93509350935093508373ffffffffffffffffffffffffffffffffffffffff166323b872dd33308a6040518463ffffffff1660e01b8152600401610c7f93929190611672565b6020604051808303816000875af1158015610c9e573d6000803e3d6000fd5b505050506040513d601f19601f82011682018060405250810190610cc29190611645565b5060006103e86103e589610cd6919061148a565b610ce09190611513565b90508083610cee9190611859565b8183610cfa919061148a565b610d049190611513565b96508373ffffffffffffffffffffffffffffffffffffffff1663a9059cbb33896040518363ffffffff1660e01b8152600401610d419291906115e4565b6020604051808303816000875af1158015610d60573d6000803e3d6000fd5b505050506040513d601f19601f82011682018060405250810190610d849190611645565b50610ec17f000000000000000000000000000000000000000000000000000000000000000073ffffffffffffffffffffffffffffffffffffffff166370a08231306040518263ffffffff1660e01b8152600401610de191906113fe565b602060405180830381865afa158015610dfe573d6000803e3d6000fd5b505050506040513d601f19601f82011682018060405250810190610e22919061142e565b7f000000000000000000000000000000000000000000000000000000000000000073ffffffffffffffffffffffffffffffffffffffff166370a08231306040518263ffffffff1660e01b8152600401610e7b91906113fe565b602060405180830381865afa158015610e98573d6000803e3d6000fd5b505050506040513d601f19601f82011682018060405250810190610ebc919061142e565b610fad565b50505050505092915050565b7f000000000000000000000000000000000000000000000000000000000000000081565b6000600360008373ffffffffffffffffffffffffffffffffffffffff1673ffffffffffffffffffffffffffffffffffffffff168152602001908152602001600020549050919050565b80600360008473ffffffffffffffffffffffffffffffffffffffff1673ffffffffffffffffffffffffffffffffffffffff1681526020019081526020016000206000828254610f8991906115b0565b925050819055508060026000828254610fa291906115b0565b925050819055505050565b81600081905550806001819055505050565b600060038211156110265781905060006001600284610fde9190611513565b610fe89190611859565b90505b818110156110205780915060028182856110059190611513565b61100f9190611859565b6110199190611513565b9050610feb565b50611034565b6000821461103357600190505b5b919050565b600081831115611049578161104b565b825b905092915050565b80600360008473ffffffffffffffffffffffffffffffffffffffff1673ffffffffffffffffffffffffffffffffffffffff16815260200190815260200160002060008282546110a29190611859565b9250508190555080600260008282546110bb9190611859565b925050819055505050565b600073ffffffffffffffffffffffffffffffffffffffff82169050919050565b6000819050919050565b600061110b611106611101846110c6565b6110e6565b6110c6565b9050919050565b600061111d826110f0565b9050919050565b600061112f82611112565b9050919050565b61113f81611124565b82525050565b600060208201905061115a6000830184611136565b92915050565b6000819050919050565b61117381611160565b82525050565b600060208201905061118e600083018461116a565b92915050565b600080fd5b60006111a4826110c6565b9050919050565b6111b481611199565b81146111bf57600080fd5b50565b6000813590506111d1816111ab565b92915050565b6000602082840312156111ed576111ec611194565b5b60006111fb848285016111c2565b91505092915050565b61120d81611160565b811461121857600080fd5b50565b60008135905061122a81611204565b92915050565b60006020828403121561124657611245611194565b5b60006112548482850161121b565b91505092915050565b6000604082019050611272600083018561116a565b61127f602083018461116a565b9392505050565b6000806040838503121561129d5761129c611194565b5b60006112ab8582860161121b565b92505060206112bc8582860161121b565b9150509250929050565b600080604083850312156112dd576112dc611194565b5b60006112eb858286016111c2565b92505060206112fc8582860161121b565b9150509250929050565b600082825260208201905092915050565b7f7368617265732063616e6e6f74206265207a65726f0000000000000000000000600082015250565b600061134d601583611306565b915061135882611317565b602082019050919050565b6000602082019050818103600083015261137c81611340565b9050919050565b7f696e76616c696420736861726573000000000000000000000000000000000000600082015250565b60006113b9600e83611306565b91506113c482611383565b602082019050919050565b600060208201905081810360008301526113e8816113ac565b9050919050565b6113f881611199565b82525050565b600060208201905061141360008301846113ef565b92915050565b60008151905061142881611204565b92915050565b60006020828403121561144457611443611194565b5b600061145284828501611419565b91505092915050565b7f4e487b7100000000000000000000000000000000000000000000000000000000600052601160045260246000fd5b600061149582611160565b91506114a083611160565b9250817fffffffffffffffffffffffffffffffffffffffffffffffffffffffffffffffff04831182151516156114d9576114d861145b565b5b828202905092915050565b7f4e487b7100000000000000000000000000000000000000000000000000000000600052601260045260246000fd5b600061151e82611160565b915061152983611160565b925082611539576115386114e4565b5b828204905092915050565b7f616d6d6f756e7430206f7220616d6f756e7431203d2030000000000000000000600082015250565b600061157a601783611306565b915061158582611544565b602082019050919050565b600060208201905081810360008301526115a98161156d565b9050919050565b60006115bb82611160565b91506115c683611160565b9250828210156115d9576115d861145b565b5b828203905092915050565b60006040820190506115f960008301856113ef565b611606602083018461116a565b9392505050565b60008115159050919050565b6116228161160d565b811461162d57600080fd5b50565b60008151905061163f81611619565b92915050565b60006020828403121561165b5761165a611194565b5b600061166984828501611630565b91505092915050565b600060608201905061168760008301866113ef565b61169460208301856113ef565b6116a1604083018461116a565b949350505050565b7f6479202f20647820213d2079202f207800000000000000000000000000000000600082015250565b60006116df601083611306565b91506116ea826116a9565b602082019050919050565b6000602082019050818103600083015261170e816116d2565b9050919050565b7f736861726573203d203000000000000000000000000000000000000000000000600082015250565b600061174b600a83611306565b915061175682611715565b602082019050919050565b6000602082019050818103600083015261177a8161173e565b9050919050565b7f696e76616c696420746f6b656e00000000000000000000000000000000000000600082015250565b60006117b7600d83611306565b91506117c282611781565b602082019050919050565b600060208201905081810360008301526117e6816117aa565b9050919050565b7f616d6f756e742063616e6e6f74206265207a65726f0000000000000000000000600082015250565b6000611823601583611306565b915061182e826117ed565b602082019050919050565b6000602082019050818103600083015261185281611816565b9050919050565b600061186482611160565b915061186f83611160565b9250827fffffffffffffffffffffffffffffffffffffffffffffffffffffffffffffffff038211156118a4576118a361145b565b5b82820190509291505056fea26469706673582212208b8577b8a4165958ef89bf407de62f44e4098729ed744856540441f57d64b7a364736f6c634300080d0033",
					"opcodes": "PUSH1 0xC0 PUSH1 0x40 MSTORE CALLVALUE DUP1 ISZERO PUSH3 0x11 JUMPI PUSH1 0x0 DUP1 REVERT JUMPDEST POP PUSH1 0x40 MLOAD PUSH3 0x1CED CODESIZE SUB DUP1 PUSH3 0x1CED DUP4 CODECOPY DUP2 DUP2 ADD PUSH1 0x40 MSTORE DUP2 ADD SWAP1 PUSH3 0x37 SWAP2 SWAP1 PUSH3 0x22F JUMP JUMPDEST PUSH1 0x0 PUSH20 0xFFFFFFFFFFFFFFFFFFFFFFFFFFFFFFFFFFFFFFFF AND DUP3 PUSH20 0xFFFFFFFFFFFFFFFFFFFFFFFFFFFFFFFFFFFFFFFF AND EQ ISZERO DUP1 ISZERO PUSH3 0xA2 JUMPI POP PUSH1 0x0 PUSH20 0xFFFFFFFFFFFFFFFFFFFFFFFFFFFFFFFFFFFFFFFF AND DUP2 PUSH20 0xFFFFFFFFFFFFFFFFFFFFFFFFFFFFFFFFFFFFFFFF AND EQ ISZERO JUMPDEST PUSH3 0xE4 JUMPI PUSH1 0x40 MLOAD PUSH32 0x8C379A000000000000000000000000000000000000000000000000000000000 DUP2 MSTORE PUSH1 0x4 ADD PUSH3 0xDB SWAP1 PUSH3 0x2D7 JUMP JUMPDEST PUSH1 0x40 MLOAD DUP1 SWAP2 SUB SWAP1 REVERT JUMPDEST DUP1 PUSH20 0xFFFFFFFFFFFFFFFFFFFFFFFFFFFFFFFFFFFFFFFF AND DUP3 PUSH20 0xFFFFFFFFFFFFFFFFFFFFFFFFFFFFFFFFFFFFFFFF AND SUB PUSH3 0x155 JUMPI PUSH1 0x40 MLOAD PUSH32 0x8C379A000000000000000000000000000000000000000000000000000000000 DUP2 MSTORE PUSH1 0x4 ADD PUSH3 0x14C SWAP1 PUSH3 0x349 JUMP JUMPDEST PUSH1 0x40 MLOAD DUP1 SWAP2 SUB SWAP1 REVERT JUMPDEST DUP2 PUSH20 0xFFFFFFFFFFFFFFFFFFFFFFFFFFFFFFFFFFFFFFFF AND PUSH1 0x80 DUP2 PUSH20 0xFFFFFFFFFFFFFFFFFFFFFFFFFFFFFFFFFFFFFFFF AND DUP2 MSTORE POP POP DUP1 PUSH20 0xFFFFFFFFFFFFFFFFFFFFFFFFFFFFFFFFFFFFFFFF AND PUSH1 0xA0 DUP2 PUSH20 0xFFFFFFFFFFFFFFFFFFFFFFFFFFFFFFFFFFFFFFFF AND DUP2 MSTORE POP POP POP POP PUSH3 0x36B JUMP JUMPDEST PUSH1 0x0 DUP1 REVERT JUMPDEST PUSH1 0x0 PUSH20 0xFFFFFFFFFFFFFFFFFFFFFFFFFFFFFFFFFFFFFFFF DUP3 AND SWAP1 POP SWAP2 SWAP1 POP JUMP JUMPDEST PUSH1 0x0 PUSH3 0x1F7 DUP3 PUSH3 0x1CA JUMP JUMPDEST SWAP1 POP SWAP2 SWAP1 POP JUMP JUMPDEST PUSH3 0x209 DUP2 PUSH3 0x1EA JUMP JUMPDEST DUP2 EQ PUSH3 0x215 JUMPI PUSH1 0x0 DUP1 REVERT JUMPDEST POP JUMP JUMPDEST PUSH1 0x0 DUP2 MLOAD SWAP1 POP PUSH3 0x229 DUP2 PUSH3 0x1FE JUMP JUMPDEST SWAP3 SWAP2 POP POP JUMP JUMPDEST PUSH1 0x0 DUP1 PUSH1 0x40 DUP4 DUP6 SUB SLT ISZERO PUSH3 0x249 JUMPI PUSH3 0x248 PUSH3 0x1C5 JUMP JUMPDEST JUMPDEST PUSH1 0x0 PUSH3 0x259 DUP6 DUP3 DUP7 ADD PUSH3 0x218 JUMP JUMPDEST SWAP3 POP POP PUSH1 0x20 PUSH3 0x26C DUP6 DUP3 DUP7 ADD PUSH3 0x218 JUMP JUMPDEST SWAP2 POP POP SWAP3 POP SWAP3 SWAP1 POP JUMP JUMPDEST PUSH1 0x0 DUP3 DUP3 MSTORE PUSH1 0x20 DUP3 ADD SWAP1 POP SWAP3 SWAP2 POP POP JUMP JUMPDEST PUSH32 0x7A65726F20616464726573730000000000000000000000000000000000000000 PUSH1 0x0 DUP3 ADD MSTORE POP JUMP JUMPDEST PUSH1 0x0 PUSH3 0x2BF PUSH1 0xC DUP4 PUSH3 0x276 JUMP JUMPDEST SWAP2 POP PUSH3 0x2CC DUP3 PUSH3 0x287 JUMP JUMPDEST PUSH1 0x20 DUP3 ADD SWAP1 POP SWAP2 SWAP1 POP JUMP JUMPDEST PUSH1 0x0 PUSH1 0x20 DUP3 ADD SWAP1 POP DUP2 DUP2 SUB PUSH1 0x0 DUP4 ADD MSTORE PUSH3 0x2F2 DUP2 PUSH3 0x2B0 JUMP JUMPDEST SWAP1 POP SWAP2 SWAP1 POP JUMP JUMPDEST PUSH32 0x6475706C69636174652061646472657373000000000000000000000000000000 PUSH1 0x0 DUP3 ADD MSTORE POP JUMP JUMPDEST PUSH1 0x0 PUSH3 0x331 PUSH1 0x11 DUP4 PUSH3 0x276 JUMP JUMPDEST SWAP2 POP PUSH3 0x33E DUP3 PUSH3 0x2F9 JUMP JUMPDEST PUSH1 0x20 DUP3 ADD SWAP1 POP SWAP2 SWAP1 POP JUMP JUMPDEST PUSH1 0x0 PUSH1 0x20 DUP3 ADD SWAP1 POP DUP2 DUP2 SUB PUSH1 0x0 DUP4 ADD MSTORE PUSH3 0x364 DUP2 PUSH3 0x322 JUMP JUMPDEST SWAP1 POP SWAP2 SWAP1 POP JUMP JUMPDEST PUSH1 0x80 MLOAD PUSH1 0xA0 MLOAD PUSH2 0x18E5 PUSH3 0x408 PUSH1 0x0 CODECOPY PUSH1 0x0 DUP2 DUP2 PUSH2 0x3E2 ADD MSTORE DUP2 DUP2 PUSH2 0x5CC ADD MSTORE DUP2 DUP2 PUSH2 0x715 ADD MSTORE DUP2 DUP2 PUSH2 0x97A ADD MSTORE DUP2 DUP2 PUSH2 0xA76 ADD MSTORE DUP2 DUP2 PUSH2 0xBA6 ADD MSTORE DUP2 DUP2 PUSH2 0xC14 ADD MSTORE DUP2 DUP2 PUSH2 0xE24 ADD MSTORE PUSH2 0xECF ADD MSTORE PUSH1 0x0 DUP2 DUP2 PUSH2 0x22C ADD MSTORE DUP2 DUP2 PUSH2 0x344 ADD MSTORE DUP2 DUP2 PUSH2 0x52D ADD MSTORE DUP2 DUP2 PUSH2 0x674 ADD MSTORE DUP2 DUP2 PUSH2 0x8E0 ADD MSTORE DUP2 DUP2 PUSH2 0xA21 ADD MSTORE DUP2 DUP2 PUSH2 0xB4A ADD MSTORE DUP2 DUP2 PUSH2 0xBC7 ADD MSTORE DUP2 DUP2 PUSH2 0xBF3 ADD MSTORE PUSH2 0xD8A ADD MSTORE PUSH2 0x18E5 PUSH1 0x0 RETURN INVALID PUSH1 0x80 PUSH1 0x40 MSTORE CALLVALUE DUP1 ISZERO PUSH2 0x10 JUMPI PUSH1 0x0 DUP1 REVERT JUMPDEST POP PUSH1 0x4 CALLDATASIZE LT PUSH2 0x9E JUMPI PUSH1 0x0 CALLDATALOAD PUSH1 0xE0 SHR DUP1 PUSH4 0x9C8F9F23 GT PUSH2 0x66 JUMPI DUP1 PUSH4 0x9C8F9F23 EQ PUSH2 0x14B JUMPI DUP1 PUSH4 0x9CD441DA EQ PUSH2 0x17C JUMPI DUP1 PUSH4 0xD004F0F7 EQ PUSH2 0x1AC JUMPI DUP1 PUSH4 0xD21220A7 EQ PUSH2 0x1DC JUMPI DUP1 PUSH4 0xF04DA65B EQ PUSH2 0x1FA JUMPI PUSH2 0x9E JUMP JUMPDEST DUP1 PUSH4 0xDFE1681 EQ PUSH2 0xA3 JUMPI DUP1 PUSH4 0x18160DDD EQ PUSH2 0xC1 JUMPI DUP1 PUSH4 0x443CB4BC EQ PUSH2 0xDF JUMPI DUP1 PUSH4 0x5A76F25E EQ PUSH2 0xFD JUMPI DUP1 PUSH4 0x70A08231 EQ PUSH2 0x11B JUMPI JUMPDEST PUSH1 0x0 DUP1 REVERT JUMPDEST PUSH2 0xAB PUSH2 0x22A JUMP JUMPDEST PUSH1 0x40 MLOAD PUSH2 0xB8 SWAP2 SWAP1 PUSH2 0x1145 JUMP JUMPDEST PUSH1 0x40 MLOAD DUP1 SWAP2 SUB SWAP1 RETURN JUMPDEST PUSH2 0xC9 PUSH2 0x24E JUMP JUMPDEST PUSH1 0x40 MLOAD PUSH2 0xD6 SWAP2 SWAP1 PUSH2 0x1179 JUMP JUMPDEST PUSH1 0x40 MLOAD DUP1 SWAP2 SUB SWAP1 RETURN JUMPDEST PUSH2 0xE7 PUSH2 0x254 JUMP JUMPDEST PUSH1 0x40 MLOAD PUSH2 0xF4 SWAP2 SWAP1 PUSH2 0x1179 JUMP JUMPDEST PUSH1 0x40 MLOAD DUP1 SWAP2 SUB SWAP1 RETURN JUMPDEST PUSH2 0x105 PUSH2 0x25A JUMP JUMPDEST PUSH1 0x40 MLOAD PUSH2 0x112 SWAP2 SWAP1 PUSH2 0x1179 JUMP JUMPDEST PUSH1 0x40 MLOAD DUP1 SWAP2 SUB SWAP1 RETURN JUMPDEST PUSH2 0x135 PUSH1 0x4 DUP1 CALLDATASIZE SUB DUP2 ADD SWAP1 PUSH2 0x130 SWAP2 SWAP1 PUSH2 0x11D7 JUMP JUMPDEST PUSH2 0x260 JUMP JUMPDEST PUSH1 0x40 MLOAD PUSH2 0x142 SWAP2 SWAP1 PUSH2 0x1179 JUMP JUMPDEST PUSH1 0x40 MLOAD DUP1 SWAP2 SUB SWAP1 RETURN JUMPDEST PUSH2 0x165 PUSH1 0x4 DUP1 CALLDATASIZE SUB DUP2 ADD SWAP1 PUSH2 0x160 SWAP2 SWAP1 PUSH2 0x1230 JUMP JUMPDEST PUSH2 0x278 JUMP JUMPDEST PUSH1 0x40 MLOAD PUSH2 0x173 SWAP3 SWAP2 SWAP1 PUSH2 0x125D JUMP JUMPDEST PUSH1 0x40 MLOAD DUP1 SWAP2 SUB SWAP1 RETURN JUMPDEST PUSH2 0x196 PUSH1 0x4 DUP1 CALLDATASIZE SUB DUP2 ADD SWAP1 PUSH2 0x191 SWAP2 SWAP1 PUSH2 0x1286 JUMP JUMPDEST PUSH2 0x670 JUMP JUMPDEST PUSH1 0x40 MLOAD PUSH2 0x1A3 SWAP2 SWAP1 PUSH2 0x1179 JUMP JUMPDEST PUSH1 0x40 MLOAD DUP1 SWAP2 SUB SWAP1 RETURN JUMPDEST PUSH2 0x1C6 PUSH1 0x4 DUP1 CALLDATASIZE SUB DUP2 ADD SWAP1 PUSH2 0x1C1 SWAP2 SWAP1 PUSH2 0x12C6 JUMP JUMPDEST PUSH2 0xA1D JUMP JUMPDEST PUSH1 0x40 MLOAD PUSH2 0x1D3 SWAP2 SWAP1 PUSH2 0x1179 JUMP JUMPDEST PUSH1 0x40 MLOAD DUP1 SWAP2 SUB SWAP1 RETURN JUMPDEST PUSH2 0x1E4 PUSH2 0xECD JUMP JUMPDEST PUSH1 0x40 MLOAD PUSH2 0x1F1 SWAP2 SWAP1 PUSH2 0x1145 JUMP JUMPDEST PUSH1 0x40 MLOAD DUP1 SWAP2 SUB SWAP1 RETURN JUMPDEST PUSH2 0x214 PUSH1 0x4 DUP1 CALLDATASIZE SUB DUP2 ADD SWAP1 PUSH2 0x20F SWAP2 SWAP1 PUSH2 0x11D7 JUMP JUMPDEST PUSH2 0xEF1 JUMP JUMPDEST PUSH1 0x40 MLOAD PUSH2 0x221 SWAP2 SWAP1 PUSH2 0x1179 JUMP JUMPDEST PUSH1 0x40 MLOAD DUP1 SWAP2 SUB SWAP1 RETURN JUMPDEST PUSH32 0x0 DUP2 JUMP JUMPDEST PUSH1 0x2 SLOAD DUP2 JUMP JUMPDEST PUSH1 0x0 SLOAD DUP2 JUMP JUMPDEST PUSH1 0x1 SLOAD DUP2 JUMP JUMPDEST PUSH1 0x3 PUSH1 0x20 MSTORE DUP1 PUSH1 0x0 MSTORE PUSH1 0x40 PUSH1 0x0 KECCAK256 PUSH1 0x0 SWAP2 POP SWAP1 POP SLOAD DUP2 JUMP JUMPDEST PUSH1 0x0 DUP1 PUSH1 0x0 DUP4 GT PUSH2 0x2BE JUMPI PUSH1 0x40 MLOAD PUSH32 0x8C379A000000000000000000000000000000000000000000000000000000000 DUP2 MSTORE PUSH1 0x4 ADD PUSH2 0x2B5 SWAP1 PUSH2 0x1363 JUMP JUMPDEST PUSH1 0x40 MLOAD DUP1 SWAP2 SUB SWAP1 REVERT JUMPDEST PUSH1 0x3 PUSH1 0x0 CALLER PUSH20 0xFFFFFFFFFFFFFFFFFFFFFFFFFFFFFFFFFFFFFFFF AND PUSH20 0xFFFFFFFFFFFFFFFFFFFFFFFFFFFFFFFFFFFFFFFF AND DUP2 MSTORE PUSH1 0x20 ADD SWAP1 DUP2 MSTORE PUSH1 0x20 ADD PUSH1 0x0 KECCAK256 SLOAD DUP4 GT ISZERO PUSH2 0x340 JUMPI PUSH1 0x40 MLOAD PUSH32 0x8C379A000000000000000000000000000000000000000000000000000000000 DUP2 MSTORE PUSH1 0x4 ADD PUSH2 0x337 SWAP1 PUSH2 0x13CF JUMP JUMPDEST PUSH1 0x40 MLOAD DUP1 SWAP2 SUB SWAP1 REVERT JUMPDEST PUSH1 0x0 PUSH32 0x0 PUSH20 0xFFFFFFFFFFFFFFFFFFFFFFFFFFFFFFFFFFFFFFFF AND PUSH4 0x70A08231 ADDRESS PUSH1 0x40 MLOAD DUP3 PUSH4 0xFFFFFFFF AND PUSH1 0xE0 SHL DUP2 MSTORE PUSH1 0x4 ADD PUSH2 0x39B SWAP2 SWAP1 PUSH2 0x13FE JUMP JUMPDEST PUSH1 0x20 PUSH1 0x40 MLOAD DUP1 DUP4 SUB DUP2 DUP7 GAS STATICCALL ISZERO DUP1 ISZERO PUSH2 0x3B8 JUMPI RETURNDATASIZE PUSH1 0x0 DUP1 RETURNDATACOPY RETURNDATASIZE PUSH1 0x0 REVERT JUMPDEST POP POP POP POP PUSH1 0x40 MLOAD RETURNDATASIZE PUSH1 0x1F NOT PUSH1 0x1F DUP3 ADD AND DUP3 ADD DUP1 PUSH1 0x40 MSTORE POP DUP2 ADD SWAP1 PUSH2 0x3DC SWAP2 SWAP1 PUSH2 0x142E JUMP JUMPDEST SWAP1 POP PUSH1 0x0 PUSH32 0x0 PUSH20 0xFFFFFFFFFFFFFFFFFFFFFFFFFFFFFFFFFFFFFFFF AND PUSH4 0x70A08231 ADDRESS PUSH1 0x40 MLOAD DUP3 PUSH4 0xFFFFFFFF AND PUSH1 0xE0 SHL DUP2 MSTORE PUSH1 0x4 ADD PUSH2 0x439 SWAP2 SWAP1 PUSH2 0x13FE JUMP JUMPDEST PUSH1 0x20 PUSH1 0x40 MLOAD DUP1 DUP4 SUB DUP2 DUP7 GAS STATICCALL ISZERO DUP1 ISZERO PUSH2 0x456 JUMPI RETURNDATASIZE PUSH1 0x0 DUP1 RETURNDATACOPY RETURNDATASIZE PUSH1 0x0 REVERT JUMPDEST POP POP POP POP PUSH1 0x40 MLOAD RETURNDATASIZE PUSH1 0x1F NOT PUSH1 0x1F DUP3 ADD AND DUP3 ADD DUP1 PUSH1 0x40 MSTORE POP DUP2 ADD SWAP1 PUSH2 0x47A SWAP2 SWAP1 PUSH2 0x142E JUMP JUMPDEST SWAP1 POP PUSH1 0x2 SLOAD DUP3 DUP7 PUSH2 0x48B SWAP2 SWAP1 PUSH2 0x148A JUMP JUMPDEST PUSH2 0x495 SWAP2 SWAP1 PUSH2 0x1513 JUMP JUMPDEST SWAP4 POP PUSH1 0x2 SLOAD DUP2 DUP7 PUSH2 0x4A6 SWAP2 SWAP1 PUSH2 0x148A JUMP JUMPDEST PUSH2 0x4B0 SWAP2 SWAP1 PUSH2 0x1513 JUMP JUMPDEST SWAP3 POP PUSH1 0x0 DUP5 GT DUP1 ISZERO PUSH2 0x4C2 JUMPI POP PUSH1 0x0 DUP4 GT JUMPDEST PUSH2 0x501 JUMPI PUSH1 0x40 MLOAD PUSH32 0x8C379A000000000000000000000000000000000000000000000000000000000 DUP2 MSTORE PUSH1 0x4 ADD PUSH2 0x4F8 SWAP1 PUSH2 0x1590 JUMP JUMPDEST PUSH1 0x40 MLOAD DUP1 SWAP2 SUB SWAP1 REVERT JUMPDEST PUSH2 0x50B CALLER DUP7 PUSH2 0xF3A JUMP JUMPDEST PUSH2 0x52B DUP5 DUP4 PUSH2 0x51A SWAP2 SWAP1 PUSH2 0x15B0 JUMP JUMPDEST DUP5 DUP4 PUSH2 0x526 SWAP2 SWAP1 PUSH2 0x15B0 JUMP JUMPDEST PUSH2 0xFAD JUMP JUMPDEST PUSH32 0x0 PUSH20 0xFFFFFFFFFFFFFFFFFFFFFFFFFFFFFFFFFFFFFFFF AND PUSH4 0xA9059CBB CALLER DUP7 PUSH1 0x40 MLOAD DUP4 PUSH4 0xFFFFFFFF AND PUSH1 0xE0 SHL DUP2 MSTORE PUSH1 0x4 ADD PUSH2 0x586 SWAP3 SWAP2 SWAP1 PUSH2 0x15E4 JUMP JUMPDEST PUSH1 0x20 PUSH1 0x40 MLOAD DUP1 DUP4 SUB DUP2 PUSH1 0x0 DUP8 GAS CALL ISZERO DUP1 ISZERO PUSH2 0x5A5 JUMPI RETURNDATASIZE PUSH1 0x0 DUP1 RETURNDATACOPY RETURNDATASIZE PUSH1 0x0 REVERT JUMPDEST POP POP POP POP PUSH1 0x40 MLOAD RETURNDATASIZE PUSH1 0x1F NOT PUSH1 0x1F DUP3 ADD AND DUP3 ADD DUP1 PUSH1 0x40 MSTORE POP DUP2 ADD SWAP1 PUSH2 0x5C9 SWAP2 SWAP1 PUSH2 0x1645 JUMP JUMPDEST POP PUSH32 0x0 PUSH20 0xFFFFFFFFFFFFFFFFFFFFFFFFFFFFFFFFFFFFFFFF AND PUSH4 0xA9059CBB CALLER DUP6 PUSH1 0x40 MLOAD DUP4 PUSH4 0xFFFFFFFF AND PUSH1 0xE0 SHL DUP2 MSTORE PUSH1 0x4 ADD PUSH2 0x625 SWAP3 SWAP2 SWAP1 PUSH2 0x15E4 JUMP JUMPDEST PUSH1 0x20 PUSH1 0x40 MLOAD DUP1 DUP4 SUB DUP2 PUSH1 0x0 DUP8 GAS CALL ISZERO DUP1 ISZERO PUSH2 0x644 JUMPI RETURNDATASIZE PUSH1 0x0 DUP1 RETURNDATACOPY RETURNDATASIZE PUSH1 0x0 REVERT JUMPDEST POP POP POP POP PUSH1 0x40 MLOAD RETURNDATASIZE PUSH1 0x1F NOT PUSH1 0x1F DUP3 ADD AND DUP3 ADD DUP1 PUSH1 0x40 MSTORE POP DUP2 ADD SWAP1 PUSH2 0x668 SWAP2 SWAP1 PUSH2 0x1645 JUMP JUMPDEST POP POP POP SWAP2 POP SWAP2 JUMP JUMPDEST PUSH1 0x0 PUSH32 0x0 PUSH20 0xFFFFFFFFFFFFFFFFFFFFFFFFFFFFFFFFFFFFFFFF AND PUSH4 0x23B872DD CALLER ADDRESS DUP7 PUSH1 0x40 MLOAD DUP5 PUSH4 0xFFFFFFFF AND PUSH1 0xE0 SHL DUP2 MSTORE PUSH1 0x4 ADD PUSH2 0x6CF SWAP4 SWAP3 SWAP2 SWAP1 PUSH2 0x1672 JUMP JUMPDEST PUSH1 0x20 PUSH1 0x40 MLOAD DUP1 DUP4 SUB DUP2 PUSH1 0x0 DUP8 GAS CALL ISZERO DUP1 ISZERO PUSH2 0x6EE JUMPI RETURNDATASIZE PUSH1 0x0 DUP1 RETURNDATACOPY RETURNDATASIZE PUSH1 0x0 REVERT JUMPDEST POP POP POP POP PUSH1 0x40 MLOAD RETURNDATASIZE PUSH1 0x1F NOT PUSH1 0x1F DUP3 ADD AND DUP3 ADD DUP1 PUSH1 0x40 MSTORE POP DUP2 ADD SWAP1 PUSH2 0x712 SWAP2 SWAP1 PUSH2 0x1645 JUMP JUMPDEST POP PUSH32 0x0 PUSH20 0xFFFFFFFFFFFFFFFFFFFFFFFFFFFFFFFFFFFFFFFF AND PUSH4 0x23B872DD CALLER ADDRESS DUP6 PUSH1 0x40 MLOAD DUP5 PUSH4 0xFFFFFFFF AND PUSH1 0xE0 SHL DUP2 MSTORE PUSH1 0x4 ADD PUSH2 0x770 SWAP4 SWAP3 SWAP2 SWAP1 PUSH2 0x1672 JUMP JUMPDEST PUSH1 0x20 PUSH1 0x40 MLOAD DUP1 DUP4 SUB DUP2 PUSH1 0x0 DUP8 GAS CALL ISZERO DUP1 ISZERO PUSH2 0x78F JUMPI RETURNDATASIZE PUSH1 0x0 DUP1 RETURNDATACOPY RETURNDATASIZE PUSH1 0x0 REVERT JUMPDEST POP POP POP POP PUSH1 0x40 MLOAD RETURNDATASIZE PUSH1 0x1F NOT PUSH1 0x1F DUP3 ADD AND DUP3 ADD DUP1 PUSH1 0x40 MSTORE POP DUP2 ADD SWAP1 PUSH2 0x7B3 SWAP2 SWAP1 PUSH2 0x1645 JUMP JUMPDEST POP PUSH1 0x0 DUP1 SLOAD GT DUP1 PUSH2 0x7C6 JUMPI POP PUSH1 0x0 PUSH1 0x1 SLOAD GT JUMPDEST ISZERO PUSH2 0x828 JUMPI DUP3 PUSH1 0x1 SLOAD PUSH2 0x7D9 SWAP2 SWAP1 PUSH2 0x148A JUMP JUMPDEST DUP3 PUSH1 0x0 SLOAD PUSH2 0x7E7 SWAP2 SWAP1 PUSH2 0x148A JUMP JUMPDEST EQ PUSH2 0x827 JUMPI PUSH1 0x40 MLOAD PUSH32 0x8C379A000000000000000000000000000000000000000000000000000000000 DUP2 MSTORE PUSH1 0x4 ADD PUSH2 0x81E SWAP1 PUSH2 0x16F5 JUMP JUMPDEST PUSH1 0x40 MLOAD DUP1 SWAP2 SUB SWAP1 REVERT JUMPDEST JUMPDEST PUSH1 0x0 PUSH1 0x2 SLOAD SUB PUSH2 0x84D JUMPI PUSH2 0x846 DUP3 DUP5 PUSH2 0x841 SWAP2 SWAP1 PUSH2 0x148A JUMP JUMPDEST PUSH2 0xFBF JUMP JUMPDEST SWAP1 POP PUSH2 0x88E JUMP JUMPDEST PUSH2 0x88B PUSH1 0x0 SLOAD PUSH1 0x2 SLOAD DUP6 PUSH2 0x861 SWAP2 SWAP1 PUSH2 0x148A JUMP JUMPDEST PUSH2 0x86B SWAP2 SWAP1 PUSH2 0x1513 JUMP JUMPDEST PUSH1 0x1 SLOAD PUSH1 0x2 SLOAD DUP6 PUSH2 0x87C SWAP2 SWAP1 PUSH2 0x148A JUMP JUMPDEST PUSH2 0x886 SWAP2 SWAP1 PUSH2 0x1513 JUMP JUMPDEST PUSH2 0x1039 JUMP JUMPDEST SWAP1 POP JUMPDEST PUSH1 0x0 DUP2 GT PUSH2 0x8D1 JUMPI PUSH1 0x40 MLOAD PUSH32 0x8C379A000000000000000000000000000000000000000000000000000000000 DUP2 MSTORE PUSH1 0x4 ADD PUSH2 0x8C8 SWAP1 PUSH2 0x1761 JUMP JUMPDEST PUSH1 0x40 MLOAD DUP1 SWAP2 SUB SWAP1 REVERT JUMPDEST PUSH2 0x8DB CALLER DUP3 PUSH2 0x1053 JUMP JUMPDEST PUSH2 0xA17 PUSH32 0x0 PUSH20 0xFFFFFFFFFFFFFFFFFFFFFFFFFFFFFFFFFFFFFFFF AND PUSH4 0x70A08231 ADDRESS PUSH1 0x40 MLOAD DUP3 PUSH4 0xFFFFFFFF AND PUSH1 0xE0 SHL DUP2 MSTORE PUSH1 0x4 ADD PUSH2 0x937 SWAP2 SWAP1 PUSH2 0x13FE JUMP JUMPDEST PUSH1 0x20 PUSH1 0x40 MLOAD DUP1 DUP4 SUB DUP2 DUP7 GAS STATICCALL ISZERO DUP1 ISZERO PUSH2 0x954 JUMPI RETURNDATASIZE PUSH1 0x0 DUP1 RETURNDATACOPY RETURNDATASIZE PUSH1 0x0 REVERT JUMPDEST POP POP POP POP PUSH1 0x40 MLOAD RETURNDATASIZE PUSH1 0x1F NOT PUSH1 0x1F DUP3 ADD AND DUP3 ADD DUP1 PUSH1 0x40 MSTORE POP DUP2 ADD SWAP1 PUSH2 0x978 SWAP2 SWAP1 PUSH2 0x142E JUMP JUMPDEST PUSH32 0x0 PUSH20 0xFFFFFFFFFFFFFFFFFFFFFFFFFFFFFFFFFFFFFFFF AND PUSH4 0x70A08231 ADDRESS PUSH1 0x40 MLOAD DUP3 PUSH4 0xFFFFFFFF AND PUSH1 0xE0 SHL DUP2 MSTORE PUSH1 0x4 ADD PUSH2 0x9D1 SWAP2 SWAP1 PUSH2 0x13FE JUMP JUMPDEST PUSH1 0x20 PUSH1 0x40 MLOAD DUP1 DUP4 SUB DUP2 DUP7 GAS STATICCALL ISZERO DUP1 ISZERO PUSH2 0x9EE JUMPI RETURNDATASIZE PUSH1 0x0 DUP1 RETURNDATACOPY RETURNDATASIZE PUSH1 0x0 REVERT JUMPDEST POP POP POP POP PUSH1 0x40 MLOAD RETURNDATASIZE PUSH1 0x1F NOT PUSH1 0x1F DUP3 ADD AND DUP3 ADD DUP1 PUSH1 0x40 MSTORE POP DUP2 ADD SWAP1 PUSH2 0xA12 SWAP2 SWAP1 PUSH2 0x142E JUMP JUMPDEST PUSH2 0xFAD JUMP JUMPDEST SWAP3 SWAP2 POP POP JUMP JUMPDEST PUSH1 0x0 PUSH32 0x0 PUSH20 0xFFFFFFFFFFFFFFFFFFFFFFFFFFFFFFFFFFFFFFFF AND DUP4 PUSH20 0xFFFFFFFFFFFFFFFFFFFFFFFFFFFFFFFFFFFFFFFF AND EQ DUP1 PUSH2 0xAC4 JUMPI POP PUSH32 0x0 PUSH20 0xFFFFFFFFFFFFFFFFFFFFFFFFFFFFFFFFFFFFFFFF AND DUP4 PUSH20 0xFFFFFFFFFFFFFFFFFFFFFFFFFFFFFFFFFFFFFFFF AND EQ JUMPDEST PUSH2 0xB03 JUMPI PUSH1 0x40 MLOAD PUSH32 0x8C379A000000000000000000000000000000000000000000000000000000000 DUP2 MSTORE PUSH1 0x4 ADD PUSH2 0xAFA SWAP1 PUSH2 0x17CD JUMP JUMPDEST PUSH1 0x40 MLOAD DUP1 SWAP2 SUB SWAP1 REVERT JUMPDEST PUSH1 0x0 DUP3 GT PUSH2 0xB46 JUMPI PUSH1 0x40 MLOAD PUSH32 0x8C379A000000000000000000000000000000000000000000000000000000000 DUP2 MSTORE PUSH1 0x4 ADD PUSH2 0xB3D SWAP1 PUSH2 0x1839 JUMP JUMPDEST PUSH1 0x40 MLOAD DUP1 SWAP2 SUB SWAP1 REVERT JUMPDEST PUSH1 0x0 PUSH32 0x0 PUSH20 0xFFFFFFFFFFFFFFFFFFFFFFFFFFFFFFFFFFFFFFFF AND DUP5 PUSH20 0xFFFFFFFFFFFFFFFFFFFFFFFFFFFFFFFFFFFFFFFF AND EQ SWAP1 POP PUSH1 0x0 DUP1 PUSH1 0x0 DUP1 DUP5 PUSH2 0xBF1 JUMPI PUSH32 0x0 PUSH32 0x0 PUSH1 0x1 SLOAD PUSH1 0x0 SLOAD PUSH2 0xC3A JUMP JUMPDEST PUSH32 0x0 PUSH32 0x0 PUSH1 0x0 SLOAD PUSH1 0x1 SLOAD JUMPDEST SWAP4 POP SWAP4 POP SWAP4 POP SWAP4 POP DUP4 PUSH20 0xFFFFFFFFFFFFFFFFFFFFFFFFFFFFFFFFFFFFFFFF AND PUSH4 0x23B872DD CALLER ADDRESS DUP11 PUSH1 0x40 MLOAD DUP5 PUSH4 0xFFFFFFFF AND PUSH1 0xE0 SHL DUP2 MSTORE PUSH1 0x4 ADD PUSH2 0xC7F SWAP4 SWAP3 SWAP2 SWAP1 PUSH2 0x1672 JUMP JUMPDEST PUSH1 0x20 PUSH1 0x40 MLOAD DUP1 DUP4 SUB DUP2 PUSH1 0x0 DUP8 GAS CALL ISZERO DUP1 ISZERO PUSH2 0xC9E JUMPI RETURNDATASIZE PUSH1 0x0 DUP1 RETURNDATACOPY RETURNDATASIZE PUSH1 0x0 REVERT JUMPDEST POP POP POP POP PUSH1 0x40 MLOAD RETURNDATASIZE PUSH1 0x1F NOT PUSH1 0x1F DUP3 ADD AND DUP3 ADD DUP1 PUSH1 0x40 MSTORE POP DUP2 ADD SWAP1 PUSH2 0xCC2 SWAP2 SWAP1 PUSH2 0x1645 JUMP JUMPDEST POP PUSH1 0x0 PUSH2 0x3E8 PUSH2 0x3E5 DUP10 PUSH2 0xCD6 SWAP2 SWAP1 PUSH2 0x148A JUMP JUMPDEST PUSH2 0xCE0 SWAP2 SWAP1 PUSH2 0x1513 JUMP JUMPDEST SWAP1 POP DUP1 DUP4 PUSH2 0xCEE SWAP2 SWAP1 PUSH2 0x1859 JUMP JUMPDEST DUP2 DUP4 PUSH2 0xCFA SWAP2 SWAP1 PUSH2 0x148A JUMP JUMPDEST PUSH2 0xD04 SWAP2 SWAP1 PUSH2 0x1513 JUMP JUMPDEST SWAP7 POP DUP4 PUSH20 0xFFFFFFFFFFFFFFFFFFFFFFFFFFFFFFFFFFFFFFFF AND PUSH4 0xA9059CBB CALLER DUP10 PUSH1 0x40 MLOAD DUP4 PUSH4 0xFFFFFFFF AND PUSH1 0xE0 SHL DUP2 MSTORE PUSH1 0x4 ADD PUSH2 0xD41 SWAP3 SWAP2 SWAP1 PUSH2 0x15E4 JUMP JUMPDEST PUSH1 0x20 PUSH1 0x40 MLOAD DUP1 DUP4 SUB DUP2 PUSH1 0x0 DUP8 GAS CALL ISZERO DUP1 ISZERO PUSH2 0xD60 JUMPI RETURNDATASIZE PUSH1 0x0 DUP1 RETURNDATACOPY RETURNDATASIZE PUSH1 0x0 REVERT JUMPDEST POP POP POP POP PUSH1 0x40 MLOAD RETURNDATASIZE PUSH1 0x1F NOT PUSH1 0x1F DUP3 ADD AND DUP3 ADD DUP1 PUSH1 0x40 MSTORE POP DUP2 ADD SWAP1 PUSH2 0xD84 SWAP2 SWAP1 PUSH2 0x1645 JUMP JUMPDEST POP PUSH2 0xEC1 PUSH32 0x0 PUSH20 0xFFFFFFFFFFFFFFFFFFFFFFFFFFFFFFFFFFFFFFFF AND PUSH4 0x70A08231 ADDRESS PUSH1 0x40 MLOAD DUP3 PUSH4 0xFFFFFFFF AND PUSH1 0xE0 SHL DUP2 MSTORE PUSH1 0x4 ADD PUSH2 0xDE1 SWAP2 SWAP1 PUSH2 0x13FE JUMP JUMPDEST PUSH1 0x20 PUSH1 0x40 MLOAD DUP1 DUP4 SUB DUP2 DUP7 GAS STATICCALL ISZERO DUP1 ISZERO PUSH2 0xDFE JUMPI RETURNDATASIZE PUSH1 0x0 DUP1 RETURNDATACOPY RETURNDATASIZE PUSH1 0x0 REVERT JUMPDEST POP POP POP POP PUSH1 0x40 MLOAD RETURNDATASIZE PUSH1 0x1F NOT PUSH1 0x1F DUP3 ADD AND DUP3 ADD DUP1 PUSH1 0x40 MSTORE POP DUP2 ADD SWAP1 PUSH2 0xE22 SWAP2 SWAP1 PUSH2 0x142E JUMP JUMPDEST PUSH32 0x0 PUSH20 0xFFFFFFFFFFFFFFFFFFFFFFFFFFFFFFFFFFFFFFFF AND PUSH4 0x70A08231 ADDRESS PUSH1 0x40 MLOAD DUP3 PUSH4 0xFFFFFFFF AND PUSH1 0xE0 SHL DUP2 MSTORE PUSH1 0x4 ADD PUSH2 0xE7B SWAP2 SWAP1 PUSH2 0x13FE JUMP JUMPDEST PUSH1 0x20 PUSH1 0x40 MLOAD DUP1 DUP4 SUB DUP2 DUP7 GAS STATICCALL ISZERO DUP1 ISZERO PUSH2 0xE98 JUMPI RETURNDATASIZE PUSH1 0x0 DUP1 RETURNDATACOPY RETURNDATASIZE PUSH1 0x0 REVERT JUMPDEST POP POP POP POP PUSH1 0x40 MLOAD RETURNDATASIZE PUSH1 0x1F NOT PUSH1 0x1F DUP3 ADD AND DUP3 ADD DUP1 PUSH1 0x40 MSTORE POP DUP2 ADD SWAP1 PUSH2 0xEBC SWAP2 SWAP1 PUSH2 0x142E JUMP JUMPDEST PUSH2 0xFAD JUMP JUMPDEST POP POP POP POP POP POP SWAP3 SWAP2 POP POP JUMP JUMPDEST PUSH32 0x0 DUP2 JUMP JUMPDEST PUSH1 0x0 PUSH1 0x3 PUSH1 0x0 DUP4 PUSH20 0xFFFFFFFFFFFFFFFFFFFFFFFFFFFFFFFFFFFFFFFF AND PUSH20 0xFFFFFFFFFFFFFFFFFFFFFFFFFFFFFFFFFFFFFFFF AND DUP2 MSTORE PUSH1 0x20 ADD SWAP1 DUP2 MSTORE PUSH1 0x20 ADD PUSH1 0x0 KECCAK256 SLOAD SWAP1 POP SWAP2 SWAP1 POP JUMP JUMPDEST DUP1 PUSH1 0x3 PUSH1 0x0 DUP5 PUSH20 0xFFFFFFFFFFFFFFFFFFFFFFFFFFFFFFFFFFFFFFFF AND PUSH20 0xFFFFFFFFFFFFFFFFFFFFFFFFFFFFFFFFFFFFFFFF AND DUP2 MSTORE PUSH1 0x20 ADD SWAP1 DUP2 MSTORE PUSH1 0x20 ADD PUSH1 0x0 KECCAK256 PUSH1 0x0 DUP3 DUP3 SLOAD PUSH2 0xF89 SWAP2 SWAP1 PUSH2 0x15B0 JUMP JUMPDEST SWAP3 POP POP DUP2 SWAP1 SSTORE POP DUP1 PUSH1 0x2 PUSH1 0x0 DUP3 DUP3 SLOAD PUSH2 0xFA2 SWAP2 SWAP1 PUSH2 0x15B0 JUMP JUMPDEST SWAP3 POP POP DUP2 SWAP1 SSTORE POP POP POP JUMP JUMPDEST DUP2 PUSH1 0x0 DUP2 SWAP1 SSTORE POP DUP1 PUSH1 0x1 DUP2 SWAP1 SSTORE POP POP POP JUMP JUMPDEST PUSH1 0x0 PUSH1 0x3 DUP3 GT ISZERO PUSH2 0x1026 JUMPI DUP2 SWAP1 POP PUSH1 0x0 PUSH1 0x1 PUSH1 0x2 DUP5 PUSH2 0xFDE SWAP2 SWAP1 PUSH2 0x1513 JUMP JUMPDEST PUSH2 0xFE8 SWAP2 SWAP1 PUSH2 0x1859 JUMP JUMPDEST SWAP1 POP JUMPDEST DUP2 DUP2 LT ISZERO PUSH2 0x1020 JUMPI DUP1 SWAP2 POP PUSH1 0x2 DUP2 DUP3 DUP6 PUSH2 0x1005 SWAP2 SWAP1 PUSH2 0x1513 JUMP JUMPDEST PUSH2 0x100F SWAP2 SWAP1 PUSH2 0x1859 JUMP JUMPDEST PUSH2 0x1019 SWAP2 SWAP1 PUSH2 0x1513 JUMP JUMPDEST SWAP1 POP PUSH2 0xFEB JUMP JUMPDEST POP PUSH2 0x1034 JUMP JUMPDEST PUSH1 0x0 DUP3 EQ PUSH2 0x1033 JUMPI PUSH1 0x1 SWAP1 POP JUMPDEST JUMPDEST SWAP2 SWAP1 POP JUMP JUMPDEST PUSH1 0x0 DUP2 DUP4 GT ISZERO PUSH2 0x1049 JUMPI DUP2 PUSH2 0x104B JUMP JUMPDEST DUP3 JUMPDEST SWAP1 POP SWAP3 SWAP2 POP POP JUMP JUMPDEST DUP1 PUSH1 0x3 PUSH1 0x0 DUP5 PUSH20 0xFFFFFFFFFFFFFFFFFFFFFFFFFFFFFFFFFFFFFFFF AND PUSH20 0xFFFFFFFFFFFFFFFFFFFFFFFFFFFFFFFFFFFFFFFF AND DUP2 MSTORE PUSH1 0x20 ADD SWAP1 DUP2 MSTORE PUSH1 0x20 ADD PUSH1 0x0 KECCAK256 PUSH1 0x0 DUP3 DUP3 SLOAD PUSH2 0x10A2 SWAP2 SWAP1 PUSH2 0x1859 JUMP JUMPDEST SWAP3 POP POP DUP2 SWAP1 SSTORE POP DUP1 PUSH1 0x2 PUSH1 0x0 DUP3 DUP3 SLOAD PUSH2 0x10BB SWAP2 SWAP1 PUSH2 0x1859 JUMP JUMPDEST SWAP3 POP POP DUP2 SWAP1 SSTORE POP POP POP JUMP JUMPDEST PUSH1 0x0 PUSH20 0xFFFFFFFFFFFFFFFFFFFFFFFFFFFFFFFFFFFFFFFF DUP3 AND SWAP1 POP SWAP2 SWAP1 POP JUMP JUMPDEST PUSH1 0x0 DUP2 SWAP1 POP SWAP2 SWAP1 POP JUMP JUMPDEST PUSH1 0x0 PUSH2 0x110B PUSH2 0x1106 PUSH2 0x1101 DUP5 PUSH2 0x10C6 JUMP JUMPDEST PUSH2 0x10E6 JUMP JUMPDEST PUSH2 0x10C6 JUMP JUMPDEST SWAP1 POP SWAP2 SWAP1 POP JUMP JUMPDEST PUSH1 0x0 PUSH2 0x111D DUP3 PUSH2 0x10F0 JUMP JUMPDEST SWAP1 POP SWAP2 SWAP1 POP JUMP JUMPDEST PUSH1 0x0 PUSH2 0x112F DUP3 PUSH2 0x1112 JUMP JUMPDEST SWAP1 POP SWAP2 SWAP1 POP JUMP JUMPDEST PUSH2 0x113F DUP2 PUSH2 0x1124 JUMP JUMPDEST DUP3 MSTORE POP POP JUMP JUMPDEST PUSH1 0x0 PUSH1 0x20 DUP3 ADD SWAP1 POP PUSH2 0x115A PUSH1 0x0 DUP4 ADD DUP5 PUSH2 0x1136 JUMP JUMPDEST SWAP3 SWAP2 POP POP JUMP JUMPDEST PUSH1 0x0 DUP2 SWAP1 POP SWAP2 SWAP1 POP JUMP JUMPDEST PUSH2 0x1173 DUP2 PUSH2 0x1160 JUMP JUMPDEST DUP3 MSTORE POP POP JUMP JUMPDEST PUSH1 0x0 PUSH1 0x20 DUP3 ADD SWAP1 POP PUSH2 0x118E PUSH1 0x0 DUP4 ADD DUP5 PUSH2 0x116A JUMP JUMPDEST SWAP3 SWAP2 POP POP JUMP JUMPDEST PUSH1 0x0 DUP1 REVERT JUMPDEST PUSH1 0x0 PUSH2 0x11A4 DUP3 PUSH2 0x10C6 JUMP JUMPDEST SWAP1 POP SWAP2 SWAP1 POP JUMP JUMPDEST PUSH2 0x11B4 DUP2 PUSH2 0x1199 JUMP JUMPDEST DUP2 EQ PUSH2 0x11BF JUMPI PUSH1 0x0 DUP1 REVERT JUMPDEST POP JUMP JUMPDEST PUSH1 0x0 DUP2 CALLDATALOAD SWAP1 POP PUSH2 0x11D1 DUP2 PUSH2 0x11AB JUMP JUMPDEST SWAP3 SWAP2 POP POP JUMP JUMPDEST PUSH1 0x0 PUSH1 0x20 DUP3 DUP5 SUB SLT ISZERO PUSH2 0x11ED JUMPI PUSH2 0x11EC PUSH2 0x1194 JUMP JUMPDEST JUMPDEST PUSH1 0x0 PUSH2 0x11FB DUP5 DUP3 DUP6 ADD PUSH2 0x11C2 JUMP JUMPDEST SWAP2 POP POP SWAP3 SWAP2 POP POP JUMP JUMPDEST PUSH2 0x120D DUP2 PUSH2 0x1160 JUMP JUMPDEST DUP2 EQ PUSH2 0x1218 JUMPI PUSH1 0x0 DUP1 REVERT JUMPDEST POP JUMP JUMPDEST PUSH1 0x0 DUP2 CALLDATALOAD SWAP1 POP PUSH2 0x122A DUP2 PUSH2 0x1204 JUMP JUMPDEST SWAP3 SWAP2 POP POP JUMP JUMPDEST PUSH1 0x0 PUSH1 0x20 DUP3 DUP5 SUB SLT ISZERO PUSH2 0x1246 JUMPI PUSH2 0x1245 PUSH2 0x1194 JUMP JUMPDEST JUMPDEST PUSH1 0x0 PUSH2 0x1254 DUP5 DUP3 DUP6 ADD PUSH2 0x121B JUMP JUMPDEST SWAP2 POP POP SWAP3 SWAP2 POP POP JUMP JUMPDEST PUSH1 0x0 PUSH1 0x40 DUP3 ADD SWAP1 POP PUSH2 0x1272 PUSH1 0x0 DUP4 ADD DUP6 PUSH2 0x116A JUMP JUMPDEST PUSH2 0x127F PUSH1 0x20 DUP4 ADD DUP5 PUSH2 0x116A JUMP JUMPDEST SWAP4 SWAP3 POP POP POP JUMP JUMPDEST PUSH1 0x0 DUP1 PUSH1 0x40 DUP4 DUP6 SUB SLT ISZERO PUSH2 0x129D JUMPI PUSH2 0x129C PUSH2 0x1194 JUMP JUMPDEST JUMPDEST PUSH1 0x0 PUSH2 0x12AB DUP6 DUP3 DUP7 ADD PUSH2 0x121B JUMP JUMPDEST SWAP3 POP POP PUSH1 0x20 PUSH2 0x12BC DUP6 DUP3 DUP7 ADD PUSH2 0x121B JUMP JUMPDEST SWAP2 POP POP SWAP3 POP SWAP3 SWAP1 POP JUMP JUMPDEST PUSH1 0x0 DUP1 PUSH1 0x40 DUP4 DUP6 SUB SLT ISZERO PUSH2 0x12DD JUMPI PUSH2 0x12DC PUSH2 0x1194 JUMP JUMPDEST JUMPDEST PUSH1 0x0 PUSH2 0x12EB DUP6 DUP3 DUP7 ADD PUSH2 0x11C2 JUMP JUMPDEST SWAP3 POP POP PUSH1 0x20 PUSH2 0x12FC DUP6 DUP3 DUP7 ADD PUSH2 0x121B JUMP JUMPDEST SWAP2 POP POP SWAP3 POP SWAP3 SWAP1 POP JUMP JUMPDEST PUSH1 0x0 DUP3 DUP3 MSTORE PUSH1 0x20 DUP3 ADD SWAP1 POP SWAP3 SWAP2 POP POP JUMP JUMPDEST PUSH32 0x7368617265732063616E6E6F74206265207A65726F0000000000000000000000 PUSH1 0x0 DUP3 ADD MSTORE POP JUMP JUMPDEST PUSH1 0x0 PUSH2 0x134D PUSH1 0x15 DUP4 PUSH2 0x1306 JUMP JUMPDEST SWAP2 POP PUSH2 0x1358 DUP3 PUSH2 0x1317 JUMP JUMPDEST PUSH1 0x20 DUP3 ADD SWAP1 POP SWAP2 SWAP1 POP JUMP JUMPDEST PUSH1 0x0 PUSH1 0x20 DUP3 ADD SWAP1 POP DUP2 DUP2 SUB PUSH1 0x0 DUP4 ADD MSTORE PUSH2 0x137C DUP2 PUSH2 0x1340 JUMP JUMPDEST SWAP1 POP SWAP2 SWAP1 POP JUMP JUMPDEST PUSH32 0x696E76616C696420736861726573000000000000000000000000000000000000 PUSH1 0x0 DUP3 ADD MSTORE POP JUMP JUMPDEST PUSH1 0x0 PUSH2 0x13B9 PUSH1 0xE DUP4 PUSH2 0x1306 JUMP JUMPDEST SWAP2 POP PUSH2 0x13C4 DUP3 PUSH2 0x1383 JUMP JUMPDEST PUSH1 0x20 DUP3 ADD SWAP1 POP SWAP2 SWAP1 POP JUMP JUMPDEST PUSH1 0x0 PUSH1 0x20 DUP3 ADD SWAP1 POP DUP2 DUP2 SUB PUSH1 0x0 DUP4 ADD MSTORE PUSH2 0x13E8 DUP2 PUSH2 0x13AC JUMP JUMPDEST SWAP1 POP SWAP2 SWAP1 POP JUMP JUMPDEST PUSH2 0x13F8 DUP2 PUSH2 0x1199 JUMP JUMPDEST DUP3 MSTORE POP POP JUMP JUMPDEST PUSH1 0x0 PUSH1 0x20 DUP3 ADD SWAP1 POP PUSH2 0x1413 PUSH1 0x0 DUP4 ADD DUP5 PUSH2 0x13EF JUMP JUMPDEST SWAP3 SWAP2 POP POP JUMP JUMPDEST PUSH1 0x0 DUP2 MLOAD SWAP1 POP PUSH2 0x1428 DUP2 PUSH2 0x1204 JUMP JUMPDEST SWAP3 SWAP2 POP POP JUMP JUMPDEST PUSH1 0x0 PUSH1 0x20 DUP3 DUP5 SUB SLT ISZERO PUSH2 0x1444 JUMPI PUSH2 0x1443 PUSH2 0x1194 JUMP JUMPDEST JUMPDEST PUSH1 0x0 PUSH2 0x1452 DUP5 DUP3 DUP6 ADD PUSH2 0x1419 JUMP JUMPDEST SWAP2 POP POP SWAP3 SWAP2 POP POP JUMP JUMPDEST PUSH32 0x4E487B7100000000000000000000000000000000000000000000000000000000 PUSH1 0x0 MSTORE PUSH1 0x11 PUSH1 0x4 MSTORE PUSH1 0x24 PUSH1 0x0 REVERT JUMPDEST PUSH1 0x0 PUSH2 0x1495 DUP3 PUSH2 0x1160 JUMP JUMPDEST SWAP2 POP PUSH2 0x14A0 DUP4 PUSH2 0x1160 JUMP JUMPDEST SWAP3 POP DUP2 PUSH32 0xFFFFFFFFFFFFFFFFFFFFFFFFFFFFFFFFFFFFFFFFFFFFFFFFFFFFFFFFFFFFFFFF DIV DUP4 GT DUP3 ISZERO ISZERO AND ISZERO PUSH2 0x14D9 JUMPI PUSH2 0x14D8 PUSH2 0x145B JUMP JUMPDEST JUMPDEST DUP3 DUP3 MUL SWAP1 POP SWAP3 SWAP2 POP POP JUMP JUMPDEST PUSH32 0x4E487B7100000000000000000000000000000000000000000000000000000000 PUSH1 0x0 MSTORE PUSH1 0x12 PUSH1 0x4 MSTORE PUSH1 0x24 PUSH1 0x0 REVERT JUMPDEST PUSH1 0x0 PUSH2 0x151E DUP3 PUSH2 0x1160 JUMP JUMPDEST SWAP2 POP PUSH2 0x1529 DUP4 PUSH2 0x1160 JUMP JUMPDEST SWAP3 POP DUP3 PUSH2 0x1539 JUMPI PUSH2 0x1538 PUSH2 0x14E4 JUMP JUMPDEST JUMPDEST DUP3 DUP3 DIV SWAP1 POP SWAP3 SWAP2 POP POP JUMP JUMPDEST PUSH32 0x616D6D6F756E7430206F7220616D6F756E7431203D2030000000000000000000 PUSH1 0x0 DUP3 ADD MSTORE POP JUMP JUMPDEST PUSH1 0x0 PUSH2 0x157A PUSH1 0x17 DUP4 PUSH2 0x1306 JUMP JUMPDEST SWAP2 POP PUSH2 0x1585 DUP3 PUSH2 0x1544 JUMP JUMPDEST PUSH1 0x20 DUP3 ADD SWAP1 POP SWAP2 SWAP1 POP JUMP JUMPDEST PUSH1 0x0 PUSH1 0x20 DUP3 ADD SWAP1 POP DUP2 DUP2 SUB PUSH1 0x0 DUP4 ADD MSTORE PUSH2 0x15A9 DUP2 PUSH2 0x156D JUMP JUMPDEST SWAP1 POP SWAP2 SWAP1 POP JUMP JUMPDEST PUSH1 0x0 PUSH2 0x15BB DUP3 PUSH2 0x1160 JUMP JUMPDEST SWAP2 POP PUSH2 0x15C6 DUP4 PUSH2 0x1160 JUMP JUMPDEST SWAP3 POP DUP3 DUP3 LT ISZERO PUSH2 0x15D9 JUMPI PUSH2 0x15D8 PUSH2 0x145B JUMP JUMPDEST JUMPDEST DUP3 DUP3 SUB SWAP1 POP SWAP3 SWAP2 POP POP JUMP JUMPDEST PUSH1 0x0 PUSH1 0x40 DUP3 ADD SWAP1 POP PUSH2 0x15F9 PUSH1 0x0 DUP4 ADD DUP6 PUSH2 0x13EF JUMP JUMPDEST PUSH2 0x1606 PUSH1 0x20 DUP4 ADD DUP5 PUSH2 0x116A JUMP JUMPDEST SWAP4 SWAP3 POP POP POP JUMP JUMPDEST PUSH1 0x0 DUP2 ISZERO ISZERO SWAP1 POP SWAP2 SWAP1 POP JUMP JUMPDEST PUSH2 0x1622 DUP2 PUSH2 0x160D JUMP JUMPDEST DUP2 EQ PUSH2 0x162D JUMPI PUSH1 0x0 DUP1 REVERT JUMPDEST POP JUMP JUMPDEST PUSH1 0x0 DUP2 MLOAD SWAP1 POP PUSH2 0x163F DUP2 PUSH2 0x1619 JUMP JUMPDEST SWAP3 SWAP2 POP POP JUMP JUMPDEST PUSH1 0x0 PUSH1 0x20 DUP3 DUP5 SUB SLT ISZERO PUSH2 0x165B JUMPI PUSH2 0x165A PUSH2 0x1194 JUMP JUMPDEST JUMPDEST PUSH1 0x0 PUSH2 0x1669 DUP5 DUP3 DUP6 ADD PUSH2 0x1630 JUMP JUMPDEST SWAP2 POP POP SWAP3 SWAP2 POP POP JUMP JUMPDEST PUSH1 0x0 PUSH1 0x60 DUP3 ADD SWAP1 POP PUSH2 0x1687 PUSH1 0x0 DUP4 ADD DUP7 PUSH2 0x13EF JUMP JUMPDEST PUSH2 0x1694 PUSH1 0x20 DUP4 ADD DUP6 PUSH2 0x13EF JUMP JUMPDEST PUSH2 0x16A1 PUSH1 0x40 DUP4 ADD DUP5 PUSH2 0x116A JUMP JUMPDEST SWAP5 SWAP4 POP POP POP POP JUMP JUMPDEST PUSH32 0x6479202F20647820213D2079202F207800000000000000000000000000000000 PUSH1 0x0 DUP3 ADD MSTORE POP JUMP JUMPDEST PUSH1 0x0 PUSH2 0x16DF PUSH1 0x10 DUP4 PUSH2 0x1306 JUMP JUMPDEST SWAP2 POP PUSH2 0x16EA DUP3 PUSH2 0x16A9 JUMP JUMPDEST PUSH1 0x20 DUP3 ADD SWAP1 POP SWAP2 SWAP1 POP JUMP JUMPDEST PUSH1 0x0 PUSH1 0x20 DUP3 ADD SWAP1 POP DUP2 DUP2 SUB PUSH1 0x0 DUP4 ADD MSTORE PUSH2 0x170E DUP2 PUSH2 0x16D2 JUMP JUMPDEST SWAP1 POP SWAP2 SWAP1 POP JUMP JUMPDEST PUSH32 0x736861726573203D203000000000000000000000000000000000000000000000 PUSH1 0x0 DUP3 ADD MSTORE POP JUMP JUMPDEST PUSH1 0x0 PUSH2 0x174B PUSH1 0xA DUP4 PUSH2 0x1306 JUMP JUMPDEST SWAP2 POP PUSH2 0x1756 DUP3 PUSH2 0x1715 JUMP JUMPDEST PUSH1 0x20 DUP3 ADD SWAP1 POP SWAP2 SWAP1 POP JUMP JUMPDEST PUSH1 0x0 PUSH1 0x20 DUP3 ADD SWAP1 POP DUP2 DUP2 SUB PUSH1 0x0 DUP4 ADD MSTORE PUSH2 0x177A DUP2 PUSH2 0x173E JUMP JUMPDEST SWAP1 POP SWAP2 SWAP1 POP JUMP JUMPDEST PUSH32 0x696E76616C696420746F6B656E00000000000000000000000000000000000000 PUSH1 0x0 DUP3 ADD MSTORE POP JUMP JUMPDEST PUSH1 0x0 PUSH2 0x17B7 PUSH1 0xD DUP4 PUSH2 0x1306 JUMP JUMPDEST SWAP2 POP PUSH2 0x17C2 DUP3 PUSH2 0x1781 JUMP JUMPDEST PUSH1 0x20 DUP3 ADD SWAP1 POP SWAP2 SWAP1 POP JUMP JUMPDEST PUSH1 0x0 PUSH1 0x20 DUP3 ADD SWAP1 POP DUP2 DUP2 SUB PUSH1 0x0 DUP4 ADD MSTORE PUSH2 0x17E6 DUP2 PUSH2 0x17AA JUMP JUMPDEST SWAP1 POP SWAP2 SWAP1 POP JUMP JUMPDEST PUSH32 0x616D6F756E742063616E6E6F74206265207A65726F0000000000000000000000 PUSH1 0x0 DUP3 ADD MSTORE POP JUMP JUMPDEST PUSH1 0x0 PUSH2 0x1823 PUSH1 0x15 DUP4 PUSH2 0x1306 JUMP JUMPDEST SWAP2 POP PUSH2 0x182E DUP3 PUSH2 0x17ED JUMP JUMPDEST PUSH1 0x20 DUP3 ADD SWAP1 POP SWAP2 SWAP1 POP JUMP JUMPDEST PUSH1 0x0 PUSH1 0x20 DUP3 ADD SWAP1 POP DUP2 DUP2 SUB PUSH1 0x0 DUP4 ADD MSTORE PUSH2 0x1852 DUP2 PUSH2 0x1816 JUMP JUMPDEST SWAP1 POP SWAP2 SWAP1 POP JUMP JUMPDEST PUSH1 0x0 PUSH2 0x1864 DUP3 PUSH2 0x1160 JUMP JUMPDEST SWAP2 POP PUSH2 0x186F DUP4 PUSH2 0x1160 JUMP JUMPDEST SWAP3 POP DUP3 PUSH32 0xFFFFFFFFFFFFFFFFFFFFFFFFFFFFFFFFFFFFFFFFFFFFFFFFFFFFFFFFFFFFFFFF SUB DUP3 GT ISZERO PUSH2 0x18A4 JUMPI PUSH2 0x18A3 PUSH2 0x145B JUMP JUMPDEST JUMPDEST DUP3 DUP3 ADD SWAP1 POP SWAP3 SWAP2 POP POP JUMP INVALID LOG2 PUSH5 0x6970667358 0x22 SLT KECCAK256 DUP12 DUP6 PUSH24 0xB8A4165958EF89BF407DE62F44E4098729ED744856540441 CREATE2 PUSH30 0x64B7A364736F6C634300080D003300000000000000000000000000000000 "
				},
				"gasEstimates": {
					"creation": {
						"codeDepositCost": "1274600",
						"executionCost": "infinite",
						"totalCost": "infinite"
					},
					"external": {
						"addLiquidity(uint256,uint256)": "infinite",
						"balanceOf(address)": "2903",
						"getShares(address)": "2929",
						"removeLiquidity(uint256)": "infinite",
						"reserve0()": "2474",
						"reserve1()": "2496",
						"swap(address,uint256)": "infinite",
						"token0()": "infinite",
						"token1()": "infinite",
						"totalSupply()": "2452"
					},
					"internal": {
						"_burn(address,uint256)": "infinite",
						"_min(uint256,uint256)": "67",
						"_mint(address,uint256)": "infinite",
						"_sqrt(uint256)": "infinite",
						"_update(uint256,uint256)": "44241"
					}
				},
				"methodIdentifiers": {
					"addLiquidity(uint256,uint256)": "9cd441da",
					"balanceOf(address)": "70a08231",
					"getShares(address)": "f04da65b",
					"removeLiquidity(uint256)": "9c8f9f23",
					"reserve0()": "443cb4bc",
					"reserve1()": "5a76f25e",
					"swap(address,uint256)": "d004f0f7",
					"token0()": "0dfe1681",
					"token1()": "d21220a7",
					"totalSupply()": "18160ddd"
				}
			},
			"storageLayout": {
				"storage": [
					{
						"astId": 10,
						"contract": "contracts/DeFi/CPAMM.sol:CPAMM",
						"label": "reserve0",
						"offset": 0,
						"slot": "0",
						"type": "t_uint256"
					},
					{
						"astId": 12,
						"contract": "contracts/DeFi/CPAMM.sol:CPAMM",
						"label": "reserve1",
						"offset": 0,
						"slot": "1",
						"type": "t_uint256"
					},
					{
						"astId": 14,
						"contract": "contracts/DeFi/CPAMM.sol:CPAMM",
						"label": "totalSupply",
						"offset": 0,
						"slot": "2",
						"type": "t_uint256"
					},
					{
						"astId": 18,
						"contract": "contracts/DeFi/CPAMM.sol:CPAMM",
						"label": "balanceOf",
						"offset": 0,
						"slot": "3",
						"type": "t_mapping(t_address,t_uint256)"
					}
				],
				"types": {
					"t_address": {
						"encoding": "inplace",
						"label": "address",
						"numberOfBytes": "20"
					},
					"t_mapping(t_address,t_uint256)": {
						"encoding": "mapping",
						"key": "t_address",
						"label": "mapping(address => uint256)",
						"numberOfBytes": "32",
						"value": "t_uint256"
					},
					"t_uint256": {
						"encoding": "inplace",
						"label": "uint256",
						"numberOfBytes": "32"
					}
				}
			},
			"userdoc": {
				"kind": "user",
				"methods": {},
				"version": 1
			}
		}
	}
}