{
	"contracts/DeFi/MultiSigV3.sol": {
		"MultiSigWallet": {
			"abi": [
				{
					"inputs": [
						{
							"internalType": "address[2]",
							"name": "_owners",
							"type": "address[2]"
						}
					],
					"stateMutability": "payable",
					"type": "constructor"
				},
				{
					"inputs": [],
					"name": "deposit",
					"outputs": [],
					"stateMutability": "payable",
					"type": "function"
				},
				{
					"inputs": [
						{
							"internalType": "bytes32",
							"name": "",
							"type": "bytes32"
						}
					],
					"name": "executed",
					"outputs": [
						{
							"internalType": "bool",
							"name": "",
							"type": "bool"
						}
					],
					"stateMutability": "view",
					"type": "function"
				},
				{
					"inputs": [
						{
							"internalType": "address",
							"name": "_to",
							"type": "address"
						},
						{
							"internalType": "uint256",
							"name": "_amount",
							"type": "uint256"
						},
						{
							"internalType": "uint256",
							"name": "_nonce",
							"type": "uint256"
						}
					],
					"name": "getTxHash",
					"outputs": [
						{
							"internalType": "bytes32",
							"name": "",
							"type": "bytes32"
						}
					],
					"stateMutability": "pure",
					"type": "function"
				},
				{
					"inputs": [
						{
							"internalType": "uint256",
							"name": "",
							"type": "uint256"
						}
					],
					"name": "owners",
					"outputs": [
						{
							"internalType": "address",
							"name": "",
							"type": "address"
						}
					],
					"stateMutability": "view",
					"type": "function"
				},
				{
					"inputs": [
						{
							"internalType": "address",
							"name": "_to",
							"type": "address"
						},
						{
							"internalType": "uint256",
							"name": "_amount",
							"type": "uint256"
						},
						{
							"internalType": "uint256",
							"name": "_nonce",
							"type": "uint256"
						},
						{
							"internalType": "bytes[2]",
							"name": "_sigs",
							"type": "bytes[2]"
						}
					],
					"name": "transfer",
					"outputs": [],
					"stateMutability": "nonpayable",
					"type": "function"
				},
				{
					"stateMutability": "payable",
					"type": "receive"
				}
			],
			"devdoc": {
				"kind": "dev",
				"methods": {},
				"version": 1
			},
			"evm": {
				"assembly": "    /* \"contracts/DeFi/MultiSigV3.sol\":207:1433  contract MultiSigWallet {... */\n  mstore(0x40, 0x80)\n    /* \"contracts/DeFi/MultiSigV3.sol\":344:424  constructor(address[2] memory _owners) payable {... */\n  mload(0x40)\n  sub(codesize, bytecodeSize)\n  dup1\n  bytecodeSize\n  dup4\n  codecopy\n  dup2\n  dup2\n  add\n  0x40\n  mstore\n  dup2\n  add\n  swap1\n  tag_1\n  swap2\n  swap1\n  tag_2\n  jump\t// in\ntag_1:\n    /* \"contracts/DeFi/MultiSigV3.sol\":410:417  _owners */\n  dup1\n    /* \"contracts/DeFi/MultiSigV3.sol\":401:407  owners */\n  0x00\n    /* \"contracts/DeFi/MultiSigV3.sol\":401:417  owners = _owners */\n  swap1\n  0x02\n  tag_5\n  swap3\n  swap2\n  swap1\n  tag_6\n  jump\t// in\ntag_5:\n  pop\n    /* \"contracts/DeFi/MultiSigV3.sol\":344:424  constructor(address[2] memory _owners) payable {... */\n  pop\n    /* \"contracts/DeFi/MultiSigV3.sol\":207:1433  contract MultiSigWallet {... */\n  jump(tag_7)\ntag_6:\n  dup3\n  0x02\n  dup2\n  add\n  swap3\n  dup3\n  iszero\n  tag_8\n  jumpi\n  swap2\n  0x20\n  mul\n  dup3\n  add\ntag_9:\n  dup3\n  dup2\n  gt\n  iszero\n  tag_10\n  jumpi\n  dup3\n  mload\n  dup3\n  exp(0x0100, 0x00)\n  dup2\n  sload\n  dup2\n  0xffffffffffffffffffffffffffffffffffffffff\n  mul\n  not\n  and\n  swap1\n  dup4\n  0xffffffffffffffffffffffffffffffffffffffff\n  and\n  mul\n  or\n  swap1\n  sstore\n  pop\n  swap2\n  0x20\n  add\n  swap2\n  swap1\n  0x01\n  add\n  swap1\n  jump(tag_9)\ntag_10:\ntag_8:\n  pop\n  swap1\n  pop\n  tag_11\n  swap2\n  swap1\n  tag_12\n  jump\t// in\ntag_11:\n  pop\n  swap1\n  jump\t// out\ntag_12:\ntag_13:\n  dup1\n  dup3\n  gt\n  iszero\n  tag_14\n  jumpi\n  0x00\n  dup2\n  0x00\n  swap1\n  sstore\n  pop\n  0x01\n  add\n  jump(tag_13)\ntag_14:\n  pop\n  swap1\n  jump\t// out\n    /* \"#utility.yul\":7:82   */\ntag_15:\n    /* \"#utility.yul\":40:46   */\n  0x00\n    /* \"#utility.yul\":73:75   */\n  0x40\n    /* \"#utility.yul\":67:76   */\n  mload\n    /* \"#utility.yul\":57:76   */\n  swap1\n  pop\n    /* \"#utility.yul\":7:82   */\n  swap1\n  jump\t// out\n    /* \"#utility.yul\":88:205   */\ntag_16:\n    /* \"#utility.yul\":197:198   */\n  0x00\n    /* \"#utility.yul\":194:195   */\n  dup1\n    /* \"#utility.yul\":187:199   */\n  revert\n    /* \"#utility.yul\":334:451   */\ntag_18:\n    /* \"#utility.yul\":443:444   */\n  0x00\n    /* \"#utility.yul\":440:441   */\n  dup1\n    /* \"#utility.yul\":433:445   */\n  revert\n    /* \"#utility.yul\":457:559   */\ntag_19:\n    /* \"#utility.yul\":498:504   */\n  0x00\n    /* \"#utility.yul\":549:551   */\n  0x1f\n    /* \"#utility.yul\":545:552   */\n  not\n    /* \"#utility.yul\":540:542   */\n  0x1f\n    /* \"#utility.yul\":533:538   */\n  dup4\n    /* \"#utility.yul\":529:543   */\n  add\n    /* \"#utility.yul\":525:553   */\n  and\n    /* \"#utility.yul\":515:553   */\n  swap1\n  pop\n    /* \"#utility.yul\":457:559   */\n  swap2\n  swap1\n  pop\n  jump\t// out\n    /* \"#utility.yul\":565:745   */\ntag_20:\n    /* \"#utility.yul\":613:690   */\n  0x4e487b7100000000000000000000000000000000000000000000000000000000\n    /* \"#utility.yul\":610:611   */\n  0x00\n    /* \"#utility.yul\":603:691   */\n  mstore\n    /* \"#utility.yul\":710:714   */\n  0x41\n    /* \"#utility.yul\":707:708   */\n  0x04\n    /* \"#utility.yul\":700:715   */\n  mstore\n    /* \"#utility.yul\":734:738   */\n  0x24\n    /* \"#utility.yul\":731:732   */\n  0x00\n    /* \"#utility.yul\":724:739   */\n  revert\n    /* \"#utility.yul\":751:1032   */\ntag_21:\n    /* \"#utility.yul\":834:861   */\n  tag_39\n    /* \"#utility.yul\":856:860   */\n  dup3\n    /* \"#utility.yul\":834:861   */\n  tag_19\n  jump\t// in\ntag_39:\n    /* \"#utility.yul\":826:832   */\n  dup2\n    /* \"#utility.yul\":822:862   */\n  add\n    /* \"#utility.yul\":964:970   */\n  dup2\n    /* \"#utility.yul\":952:962   */\n  dup2\n    /* \"#utility.yul\":949:971   */\n  lt\n    /* \"#utility.yul\":928:946   */\n  0xffffffffffffffff\n    /* \"#utility.yul\":916:926   */\n  dup3\n    /* \"#utility.yul\":913:947   */\n  gt\n    /* \"#utility.yul\":910:972   */\n  or\n    /* \"#utility.yul\":907:995   */\n  iszero\n  tag_40\n  jumpi\n    /* \"#utility.yul\":975:993   */\n  tag_41\n  tag_20\n  jump\t// in\ntag_41:\n    /* \"#utility.yul\":907:995   */\ntag_40:\n    /* \"#utility.yul\":1015:1025   */\n  dup1\n    /* \"#utility.yul\":1011:1013   */\n  0x40\n    /* \"#utility.yul\":1004:1026   */\n  mstore\n    /* \"#utility.yul\":794:1032   */\n  pop\n    /* \"#utility.yul\":751:1032   */\n  pop\n  pop\n  jump\t// out\n    /* \"#utility.yul\":1038:1167   */\ntag_22:\n    /* \"#utility.yul\":1072:1078   */\n  0x00\n    /* \"#utility.yul\":1099:1119   */\n  tag_43\n  tag_15\n  jump\t// in\ntag_43:\n    /* \"#utility.yul\":1089:1119   */\n  swap1\n  pop\n    /* \"#utility.yul\":1128:1161   */\n  tag_44\n    /* \"#utility.yul\":1156:1160   */\n  dup3\n    /* \"#utility.yul\":1148:1154   */\n  dup3\n    /* \"#utility.yul\":1128:1161   */\n  tag_21\n  jump\t// in\ntag_44:\n    /* \"#utility.yul\":1038:1167   */\n  swap2\n  swap1\n  pop\n  jump\t// out\n    /* \"#utility.yul\":1173:1422   */\ntag_23:\n    /* \"#utility.yul\":1248:1252   */\n  0x00\n    /* \"#utility.yul\":1338:1356   */\n  0xffffffffffffffff\n    /* \"#utility.yul\":1330:1336   */\n  dup3\n    /* \"#utility.yul\":1327:1357   */\n  gt\n    /* \"#utility.yul\":1324:1380   */\n  iszero\n  tag_46\n  jumpi\n    /* \"#utility.yul\":1360:1378   */\n  tag_47\n  tag_20\n  jump\t// in\ntag_47:\n    /* \"#utility.yul\":1324:1380   */\ntag_46:\n    /* \"#utility.yul\":1410:1414   */\n  0x20\n    /* \"#utility.yul\":1402:1408   */\n  dup3\n    /* \"#utility.yul\":1398:1415   */\n  mul\n    /* \"#utility.yul\":1390:1415   */\n  swap1\n  pop\n    /* \"#utility.yul\":1173:1422   */\n  swap2\n  swap1\n  pop\n  jump\t// out\n    /* \"#utility.yul\":1428:1545   */\ntag_24:\n    /* \"#utility.yul\":1537:1538   */\n  0x00\n    /* \"#utility.yul\":1534:1535   */\n  dup1\n    /* \"#utility.yul\":1527:1539   */\n  revert\n    /* \"#utility.yul\":1551:1677   */\ntag_25:\n    /* \"#utility.yul\":1588:1595   */\n  0x00\n    /* \"#utility.yul\":1628:1670   */\n  0xffffffffffffffffffffffffffffffffffffffff\n    /* \"#utility.yul\":1621:1626   */\n  dup3\n    /* \"#utility.yul\":1617:1671   */\n  and\n    /* \"#utility.yul\":1606:1671   */\n  swap1\n  pop\n    /* \"#utility.yul\":1551:1677   */\n  swap2\n  swap1\n  pop\n  jump\t// out\n    /* \"#utility.yul\":1683:1779   */\ntag_26:\n    /* \"#utility.yul\":1720:1727   */\n  0x00\n    /* \"#utility.yul\":1749:1773   */\n  tag_51\n    /* \"#utility.yul\":1767:1772   */\n  dup3\n    /* \"#utility.yul\":1749:1773   */\n  tag_25\n  jump\t// in\ntag_51:\n    /* \"#utility.yul\":1738:1773   */\n  swap1\n  pop\n    /* \"#utility.yul\":1683:1779   */\n  swap2\n  swap1\n  pop\n  jump\t// out\n    /* \"#utility.yul\":1785:1907   */\ntag_27:\n    /* \"#utility.yul\":1858:1882   */\n  tag_53\n    /* \"#utility.yul\":1876:1881   */\n  dup2\n    /* \"#utility.yul\":1858:1882   */\n  tag_26\n  jump\t// in\ntag_53:\n    /* \"#utility.yul\":1851:1856   */\n  dup2\n    /* \"#utility.yul\":1848:1883   */\n  eq\n    /* \"#utility.yul\":1838:1901   */\n  tag_54\n  jumpi\n    /* \"#utility.yul\":1897:1898   */\n  0x00\n    /* \"#utility.yul\":1894:1895   */\n  dup1\n    /* \"#utility.yul\":1887:1899   */\n  revert\n    /* \"#utility.yul\":1838:1901   */\ntag_54:\n    /* \"#utility.yul\":1785:1907   */\n  pop\n  jump\t// out\n    /* \"#utility.yul\":1913:2056   */\ntag_28:\n    /* \"#utility.yul\":1970:1975   */\n  0x00\n    /* \"#utility.yul\":2001:2007   */\n  dup2\n    /* \"#utility.yul\":1995:2008   */\n  mload\n    /* \"#utility.yul\":1986:2008   */\n  swap1\n  pop\n    /* \"#utility.yul\":2017:2050   */\n  tag_56\n    /* \"#utility.yul\":2044:2049   */\n  dup2\n    /* \"#utility.yul\":2017:2050   */\n  tag_27\n  jump\t// in\ntag_56:\n    /* \"#utility.yul\":1913:2056   */\n  swap3\n  swap2\n  pop\n  pop\n  jump\t// out\n    /* \"#utility.yul\":2080:2745   */\ntag_29:\n    /* \"#utility.yul\":2185:2190   */\n  0x00\n    /* \"#utility.yul\":2210:2289   */\n  tag_58\n    /* \"#utility.yul\":2226:2288   */\n  tag_59\n    /* \"#utility.yul\":2281:2287   */\n  dup5\n    /* \"#utility.yul\":2226:2288   */\n  tag_23\n  jump\t// in\ntag_59:\n    /* \"#utility.yul\":2210:2289   */\n  tag_22\n  jump\t// in\ntag_58:\n    /* \"#utility.yul\":2201:2289   */\n  swap1\n  pop\n    /* \"#utility.yul\":2309:2314   */\n  dup1\n    /* \"#utility.yul\":2362:2366   */\n  0x20\n    /* \"#utility.yul\":2354:2360   */\n  dup5\n    /* \"#utility.yul\":2350:2367   */\n  mul\n    /* \"#utility.yul\":2342:2348   */\n  dup4\n    /* \"#utility.yul\":2338:2368   */\n  add\n    /* \"#utility.yul\":2391:2394   */\n  dup6\n    /* \"#utility.yul\":2383:2389   */\n  dup2\n    /* \"#utility.yul\":2380:2395   */\n  gt\n    /* \"#utility.yul\":2377:2499   */\n  iszero\n  tag_60\n  jumpi\n    /* \"#utility.yul\":2410:2489   */\n  tag_61\n  tag_24\n  jump\t// in\ntag_61:\n    /* \"#utility.yul\":2377:2499   */\ntag_60:\n    /* \"#utility.yul\":2525:2531   */\n  dup4\n    /* \"#utility.yul\":2508:2739   */\ntag_62:\n    /* \"#utility.yul\":2542:2548   */\n  dup2\n    /* \"#utility.yul\":2537:2540   */\n  dup2\n    /* \"#utility.yul\":2534:2549   */\n  lt\n    /* \"#utility.yul\":2508:2739   */\n  iszero\n  tag_64\n  jumpi\n    /* \"#utility.yul\":2617:2620   */\n  dup1\n    /* \"#utility.yul\":2646:2694   */\n  tag_65\n    /* \"#utility.yul\":2690:2693   */\n  dup9\n    /* \"#utility.yul\":2678:2688   */\n  dup3\n    /* \"#utility.yul\":2646:2694   */\n  tag_28\n  jump\t// in\ntag_65:\n    /* \"#utility.yul\":2641:2644   */\n  dup5\n    /* \"#utility.yul\":2634:2695   */\n  mstore\n    /* \"#utility.yul\":2724:2728   */\n  0x20\n    /* \"#utility.yul\":2719:2722   */\n  dup5\n    /* \"#utility.yul\":2715:2729   */\n  add\n    /* \"#utility.yul\":2708:2729   */\n  swap4\n  pop\n    /* \"#utility.yul\":2584:2739   */\n  pop\n    /* \"#utility.yul\":2568:2572   */\n  0x20\n    /* \"#utility.yul\":2563:2566   */\n  dup2\n    /* \"#utility.yul\":2559:2573   */\n  add\n    /* \"#utility.yul\":2552:2573   */\n  swap1\n  pop\n    /* \"#utility.yul\":2508:2739   */\n  jump(tag_62)\ntag_64:\n    /* \"#utility.yul\":2512:2533   */\n  pop\n    /* \"#utility.yul\":2191:2745   */\n  pop\n  pop\n    /* \"#utility.yul\":2080:2745   */\n  swap4\n  swap3\n  pop\n  pop\n  pop\n  jump\t// out\n    /* \"#utility.yul\":2769:3130   */\ntag_30:\n    /* \"#utility.yul\":2849:2854   */\n  0x00\n    /* \"#utility.yul\":2898:2901   */\n  dup3\n    /* \"#utility.yul\":2891:2895   */\n  0x1f\n    /* \"#utility.yul\":2883:2889   */\n  dup4\n    /* \"#utility.yul\":2879:2896   */\n  add\n    /* \"#utility.yul\":2875:2902   */\n  slt\n    /* \"#utility.yul\":2865:2987   */\n  tag_67\n  jumpi\n    /* \"#utility.yul\":2906:2985   */\n  tag_68\n  tag_18\n  jump\t// in\ntag_68:\n    /* \"#utility.yul\":2865:2987   */\ntag_67:\n    /* \"#utility.yul\":3010:3014   */\n  0x02\n    /* \"#utility.yul\":3032:3124   */\n  tag_69\n    /* \"#utility.yul\":3120:3123   */\n  dup5\n    /* \"#utility.yul\":3112:3118   */\n  dup3\n    /* \"#utility.yul\":3104:3110   */\n  dup6\n    /* \"#utility.yul\":3032:3124   */\n  tag_29\n  jump\t// in\ntag_69:\n    /* \"#utility.yul\":3023:3124   */\n  swap2\n  pop\n    /* \"#utility.yul\":2855:3130   */\n  pop\n    /* \"#utility.yul\":2769:3130   */\n  swap3\n  swap2\n  pop\n  pop\n  jump\t// out\n    /* \"#utility.yul\":3136:3533   */\ntag_2:\n    /* \"#utility.yul\":3229:3235   */\n  0x00\n    /* \"#utility.yul\":3278:3280   */\n  0x40\n    /* \"#utility.yul\":3266:3275   */\n  dup3\n    /* \"#utility.yul\":3257:3264   */\n  dup5\n    /* \"#utility.yul\":3253:3276   */\n  sub\n    /* \"#utility.yul\":3249:3281   */\n  slt\n    /* \"#utility.yul\":3246:3365   */\n  iszero\n  tag_71\n  jumpi\n    /* \"#utility.yul\":3284:3363   */\n  tag_72\n  tag_16\n  jump\t// in\ntag_72:\n    /* \"#utility.yul\":3246:3365   */\ntag_71:\n    /* \"#utility.yul\":3404:3405   */\n  0x00\n    /* \"#utility.yul\":3429:3516   */\n  tag_73\n    /* \"#utility.yul\":3508:3515   */\n  dup5\n    /* \"#utility.yul\":3499:3505   */\n  dup3\n    /* \"#utility.yul\":3488:3497   */\n  dup6\n    /* \"#utility.yul\":3484:3506   */\n  add\n    /* \"#utility.yul\":3429:3516   */\n  tag_30\n  jump\t// in\ntag_73:\n    /* \"#utility.yul\":3419:3516   */\n  swap2\n  pop\n    /* \"#utility.yul\":3375:3526   */\n  pop\n    /* \"#utility.yul\":3136:3533   */\n  swap3\n  swap2\n  pop\n  pop\n  jump\t// out\n    /* \"contracts/DeFi/MultiSigV3.sol\":207:1433  contract MultiSigWallet {... */\ntag_7:\n  dataSize(sub_0)\n  dup1\n  dataOffset(sub_0)\n  0x00\n  codecopy\n  0x00\n  return\nstop\n\nsub_0: assembly {\n        /* \"contracts/DeFi/MultiSigV3.sol\":207:1433  contract MultiSigWallet {... */\n      mstore(0x40, 0x80)\n      jumpi(tag_1, lt(calldatasize, 0x04))\n      shr(0xe0, calldataload(0x00))\n      dup1\n      0x025e7c27\n      eq\n      tag_3\n      jumpi\n      dup1\n      0x207fa783\n      eq\n      tag_4\n      jumpi\n      dup1\n      0x78f16129\n      eq\n      tag_5\n      jumpi\n      dup1\n      0xa9fcfb33\n      eq\n      tag_6\n      jumpi\n      dup1\n      0xd0e30db0\n      eq\n      tag_7\n      jumpi\n      jump(tag_2)\n    tag_1:\n      jumpi(tag_2, calldatasize)\n      stop\n    tag_2:\n      0x00\n      dup1\n      revert\n        /* \"contracts/DeFi/MultiSigV3.sol\":267:291  address[2] public owners */\n    tag_3:\n      callvalue\n      dup1\n      iszero\n      tag_10\n      jumpi\n      0x00\n      dup1\n      revert\n    tag_10:\n      pop\n      tag_11\n      0x04\n      dup1\n      calldatasize\n      sub\n      dup2\n      add\n      swap1\n      tag_12\n      swap2\n      swap1\n      tag_13\n      jump\t// in\n    tag_12:\n      tag_14\n      jump\t// in\n    tag_11:\n      mload(0x40)\n      tag_15\n      swap2\n      swap1\n      tag_16\n      jump\t// in\n    tag_15:\n      mload(0x40)\n      dup1\n      swap2\n      sub\n      swap1\n      return\n        /* \"contracts/DeFi/MultiSigV3.sol\":840:1002  function getTxHash(address _to, uint _amount, uint _nonce) public pure returns (bytes32) {... */\n    tag_4:\n      callvalue\n      dup1\n      iszero\n      tag_17\n      jumpi\n      0x00\n      dup1\n      revert\n    tag_17:\n      pop\n      tag_18\n      0x04\n      dup1\n      calldatasize\n      sub\n      dup2\n      add\n      swap1\n      tag_19\n      swap2\n      swap1\n      tag_20\n      jump\t// in\n    tag_19:\n      tag_21\n      jump\t// in\n    tag_18:\n      mload(0x40)\n      tag_22\n      swap2\n      swap1\n      tag_23\n      jump\t// in\n    tag_22:\n      mload(0x40)\n      dup1\n      swap2\n      sub\n      swap1\n      return\n        /* \"contracts/DeFi/MultiSigV3.sol\":509:834  function transfer(address _to, uint _amount, uint _nonce, bytes[2] memory _sigs) external {... */\n    tag_5:\n      callvalue\n      dup1\n      iszero\n      tag_24\n      jumpi\n      0x00\n      dup1\n      revert\n    tag_24:\n      pop\n      tag_25\n      0x04\n      dup1\n      calldatasize\n      sub\n      dup2\n      add\n      swap1\n      tag_26\n      swap2\n      swap1\n      tag_27\n      jump\t// in\n    tag_26:\n      tag_28\n      jump\t// in\n    tag_25:\n      stop\n        /* \"contracts/DeFi/MultiSigV3.sol\":297:337  mapping(bytes32 => bool) public executed */\n    tag_6:\n      callvalue\n      dup1\n      iszero\n      tag_29\n      jumpi\n      0x00\n      dup1\n      revert\n    tag_29:\n      pop\n      tag_30\n      0x04\n      dup1\n      calldatasize\n      sub\n      dup2\n      add\n      swap1\n      tag_31\n      swap2\n      swap1\n      tag_32\n      jump\t// in\n    tag_31:\n      tag_33\n      jump\t// in\n    tag_30:\n      mload(0x40)\n      tag_34\n      swap2\n      swap1\n      tag_35\n      jump\t// in\n    tag_34:\n      mload(0x40)\n      dup1\n      swap2\n      sub\n      swap1\n      return\n        /* \"contracts/DeFi/MultiSigV3.sol\":465:503  function deposit() external payable {} */\n    tag_7:\n      tag_36\n      tag_37\n      jump\t// in\n    tag_36:\n      stop\n        /* \"contracts/DeFi/MultiSigV3.sol\":267:291  address[2] public owners */\n    tag_14:\n      0x00\n      dup2\n      0x02\n      dup2\n      lt\n      tag_38\n      jumpi\n      0x00\n      dup1\n      revert\n    tag_38:\n      add\n      0x00\n      swap2\n      pop\n      sload\n      swap1\n      0x0100\n      exp\n      swap1\n      div\n      0xffffffffffffffffffffffffffffffffffffffff\n      and\n      dup2\n      jump\t// out\n        /* \"contracts/DeFi/MultiSigV3.sol\":840:1002  function getTxHash(address _to, uint _amount, uint _nonce) public pure returns (bytes32) {... */\n    tag_21:\n        /* \"contracts/DeFi/MultiSigV3.sol\":920:927  bytes32 */\n      0x00\n        /* \"contracts/DeFi/MultiSigV3.sol\":973:976  _to */\n      dup4\n        /* \"contracts/DeFi/MultiSigV3.sol\":978:985  _amount */\n      dup4\n        /* \"contracts/DeFi/MultiSigV3.sol\":987:993  _nonce */\n      dup4\n        /* \"contracts/DeFi/MultiSigV3.sol\":956:994  abi.encodePacked(_to, _amount, _nonce) */\n      add(0x20, mload(0x40))\n      tag_41\n      swap4\n      swap3\n      swap2\n      swap1\n      tag_42\n      jump\t// in\n    tag_41:\n      mload(0x40)\n      0x20\n      dup2\n      dup4\n      sub\n      sub\n      dup2\n      mstore\n      swap1\n      0x40\n      mstore\n        /* \"contracts/DeFi/MultiSigV3.sol\":946:995  keccak256(abi.encodePacked(_to, _amount, _nonce)) */\n      dup1\n      mload\n      swap1\n      0x20\n      add\n      keccak256\n        /* \"contracts/DeFi/MultiSigV3.sol\":939:995  return keccak256(abi.encodePacked(_to, _amount, _nonce)) */\n      swap1\n      pop\n        /* \"contracts/DeFi/MultiSigV3.sol\":840:1002  function getTxHash(address _to, uint _amount, uint _nonce) public pure returns (bytes32) {... */\n      swap4\n      swap3\n      pop\n      pop\n      pop\n      jump\t// out\n        /* \"contracts/DeFi/MultiSigV3.sol\":509:834  function transfer(address _to, uint _amount, uint _nonce, bytes[2] memory _sigs) external {... */\n    tag_28:\n        /* \"contracts/DeFi/MultiSigV3.sol\":609:623  bytes32 txHash */\n      0x00\n        /* \"contracts/DeFi/MultiSigV3.sol\":626:657  getTxHash(_to, _amount, _nonce) */\n      tag_44\n        /* \"contracts/DeFi/MultiSigV3.sol\":636:639  _to */\n      dup6\n        /* \"contracts/DeFi/MultiSigV3.sol\":641:648  _amount */\n      dup6\n        /* \"contracts/DeFi/MultiSigV3.sol\":650:656  _nonce */\n      dup6\n        /* \"contracts/DeFi/MultiSigV3.sol\":626:635  getTxHash */\n      tag_21\n        /* \"contracts/DeFi/MultiSigV3.sol\":626:657  getTxHash(_to, _amount, _nonce) */\n      jump\t// in\n    tag_44:\n        /* \"contracts/DeFi/MultiSigV3.sol\":609:657  bytes32 txHash = getTxHash(_to, _amount, _nonce) */\n      swap1\n      pop\n        /* \"contracts/DeFi/MultiSigV3.sol\":675:700  _checkSigs(_sigs, txHash) */\n      tag_45\n        /* \"contracts/DeFi/MultiSigV3.sol\":686:691  _sigs */\n      dup3\n        /* \"contracts/DeFi/MultiSigV3.sol\":693:699  txHash */\n      dup3\n        /* \"contracts/DeFi/MultiSigV3.sol\":675:685  _checkSigs */\n      tag_46\n        /* \"contracts/DeFi/MultiSigV3.sol\":675:700  _checkSigs(_sigs, txHash) */\n      jump\t// in\n    tag_45:\n        /* \"contracts/DeFi/MultiSigV3.sol\":667:716  require(_checkSigs(_sigs, txHash), \"invalid sig\") */\n      tag_47\n      jumpi\n      mload(0x40)\n      0x08c379a000000000000000000000000000000000000000000000000000000000\n      dup2\n      mstore\n      0x04\n      add\n      tag_48\n      swap1\n      tag_49\n      jump\t// in\n    tag_48:\n      mload(0x40)\n      dup1\n      swap2\n      sub\n      swap1\n      revert\n    tag_47:\n        /* \"contracts/DeFi/MultiSigV3.sol\":737:746  bool sent */\n      0x00\n        /* \"contracts/DeFi/MultiSigV3.sol\":752:755  _to */\n      dup6\n        /* \"contracts/DeFi/MultiSigV3.sol\":752:760  _to.call */\n      0xffffffffffffffffffffffffffffffffffffffff\n      and\n        /* \"contracts/DeFi/MultiSigV3.sol\":768:775  _amount */\n      dup6\n        /* \"contracts/DeFi/MultiSigV3.sol\":752:780  _to.call{value: _amount}(\"\") */\n      mload(0x40)\n      tag_50\n      swap1\n      tag_51\n      jump\t// in\n    tag_50:\n      0x00\n      mload(0x40)\n      dup1\n      dup4\n      sub\n      dup2\n      dup6\n      dup8\n      gas\n      call\n      swap3\n      pop\n      pop\n      pop\n      returndatasize\n      dup1\n      0x00\n      dup2\n      eq\n      tag_54\n      jumpi\n      mload(0x40)\n      swap2\n      pop\n      and(add(returndatasize, 0x3f), not(0x1f))\n      dup3\n      add\n      0x40\n      mstore\n      returndatasize\n      dup3\n      mstore\n      returndatasize\n      0x00\n      0x20\n      dup5\n      add\n      returndatacopy\n      jump(tag_53)\n    tag_54:\n      0x60\n      swap2\n      pop\n    tag_53:\n      pop\n        /* \"contracts/DeFi/MultiSigV3.sol\":736:780  (bool sent, ) = _to.call{value: _amount}(\"\") */\n      pop\n      swap1\n      pop\n        /* \"contracts/DeFi/MultiSigV3.sol\":798:802  sent */\n      dup1\n        /* \"contracts/DeFi/MultiSigV3.sol\":790:827  require(sent, \"Failed to send Ether\") */\n      tag_55\n      jumpi\n      mload(0x40)\n      0x08c379a000000000000000000000000000000000000000000000000000000000\n      dup2\n      mstore\n      0x04\n      add\n      tag_56\n      swap1\n      tag_57\n      jump\t// in\n    tag_56:\n      mload(0x40)\n      dup1\n      swap2\n      sub\n      swap1\n      revert\n    tag_55:\n        /* \"contracts/DeFi/MultiSigV3.sol\":599:834  {... */\n      pop\n      pop\n        /* \"contracts/DeFi/MultiSigV3.sol\":509:834  function transfer(address _to, uint _amount, uint _nonce, bytes[2] memory _sigs) external {... */\n      pop\n      pop\n      pop\n      pop\n      jump\t// out\n        /* \"contracts/DeFi/MultiSigV3.sol\":297:337  mapping(bytes32 => bool) public executed */\n    tag_33:\n      mstore(0x20, 0x02)\n      dup1\n      0x00\n      mstore\n      keccak256(0x00, 0x40)\n      0x00\n      swap2\n      pop\n      sload\n      swap1\n      0x0100\n      exp\n      swap1\n      div\n      0xff\n      and\n      dup2\n      jump\t// out\n        /* \"contracts/DeFi/MultiSigV3.sol\":465:503  function deposit() external payable {} */\n    tag_37:\n      jump\t// out\n        /* \"contracts/DeFi/MultiSigV3.sol\":1008:1430  function _checkSigs(bytes[2] memory _sigs, bytes32 _txHash) private view returns (bool) {... */\n    tag_46:\n        /* \"contracts/DeFi/MultiSigV3.sol\":1090:1094  bool */\n      0x00\n        /* \"contracts/DeFi/MultiSigV3.sol\":1106:1127  bytes32 ethSignedHash */\n      dup1\n        /* \"contracts/DeFi/MultiSigV3.sol\":1130:1162  _txHash.toEthSignedMessageHash() */\n      tag_60\n        /* \"contracts/DeFi/MultiSigV3.sol\":1130:1137  _txHash */\n      dup4\n        /* \"contracts/DeFi/MultiSigV3.sol\":1130:1160  _txHash.toEthSignedMessageHash */\n      tag_61\n        /* \"contracts/DeFi/MultiSigV3.sol\":1130:1162  _txHash.toEthSignedMessageHash() */\n      jump\t// in\n    tag_60:\n        /* \"contracts/DeFi/MultiSigV3.sol\":1106:1162  bytes32 ethSignedHash = _txHash.toEthSignedMessageHash() */\n      swap1\n      pop\n        /* \"contracts/DeFi/MultiSigV3.sol\":1178:1184  uint i */\n      0x00\n        /* \"contracts/DeFi/MultiSigV3.sol\":1173:1403  for (uint i = 0; i < _sigs.length; i++) {... */\n    tag_62:\n        /* \"contracts/DeFi/MultiSigV3.sol\":1194:1206  _sigs.length */\n      0x02\n        /* \"contracts/DeFi/MultiSigV3.sol\":1190:1191  i */\n      dup2\n        /* \"contracts/DeFi/MultiSigV3.sol\":1190:1206  i < _sigs.length */\n      lt\n        /* \"contracts/DeFi/MultiSigV3.sol\":1173:1403  for (uint i = 0; i < _sigs.length; i++) {... */\n      iszero\n      tag_63\n      jumpi\n        /* \"contracts/DeFi/MultiSigV3.sol\":1227:1241  address signer */\n      0x00\n        /* \"contracts/DeFi/MultiSigV3.sol\":1244:1275  ethSignedHash.recover(_sigs[i]) */\n      tag_65\n        /* \"contracts/DeFi/MultiSigV3.sol\":1266:1271  _sigs */\n      dup7\n        /* \"contracts/DeFi/MultiSigV3.sol\":1272:1273  i */\n      dup4\n        /* \"contracts/DeFi/MultiSigV3.sol\":1266:1274  _sigs[i] */\n      0x02\n      dup2\n      lt\n      tag_66\n      jumpi\n      tag_67\n      tag_68\n      jump\t// in\n    tag_67:\n    tag_66:\n      0x20\n      mul\n      add\n      mload\n        /* \"contracts/DeFi/MultiSigV3.sol\":1244:1257  ethSignedHash */\n      dup5\n        /* \"contracts/DeFi/MultiSigV3.sol\":1244:1265  ethSignedHash.recover */\n      tag_69\n      swap1\n        /* \"contracts/DeFi/MultiSigV3.sol\":1244:1275  ethSignedHash.recover(_sigs[i]) */\n      swap2\n      swap1\n      0xffffffff\n      and\n      jump\t// in\n    tag_65:\n        /* \"contracts/DeFi/MultiSigV3.sol\":1227:1275  address signer = ethSignedHash.recover(_sigs[i]) */\n      swap1\n      pop\n        /* \"contracts/DeFi/MultiSigV3.sol\":1289:1299  bool valid */\n      0x00\n        /* \"contracts/DeFi/MultiSigV3.sol\":1312:1318  owners */\n      dup1\n        /* \"contracts/DeFi/MultiSigV3.sol\":1319:1320  i */\n      dup4\n        /* \"contracts/DeFi/MultiSigV3.sol\":1312:1321  owners[i] */\n      0x02\n      dup2\n      lt\n      tag_70\n      jumpi\n      tag_71\n      tag_68\n      jump\t// in\n    tag_71:\n    tag_70:\n      add\n      0x00\n      swap1\n      sload\n      swap1\n      0x0100\n      exp\n      swap1\n      div\n      0xffffffffffffffffffffffffffffffffffffffff\n      and\n        /* \"contracts/DeFi/MultiSigV3.sol\":1302:1321  signer == owners[i] */\n      0xffffffffffffffffffffffffffffffffffffffff\n      and\n        /* \"contracts/DeFi/MultiSigV3.sol\":1302:1308  signer */\n      dup3\n        /* \"contracts/DeFi/MultiSigV3.sol\":1302:1321  signer == owners[i] */\n      0xffffffffffffffffffffffffffffffffffffffff\n      and\n      eq\n        /* \"contracts/DeFi/MultiSigV3.sol\":1289:1321  bool valid = signer == owners[i] */\n      swap1\n      pop\n        /* \"contracts/DeFi/MultiSigV3.sol\":1341:1346  valid */\n      dup1\n        /* \"contracts/DeFi/MultiSigV3.sol\":1336:1393  if (!valid) {... */\n      tag_73\n      jumpi\n        /* \"contracts/DeFi/MultiSigV3.sol\":1373:1378  false */\n      0x00\n        /* \"contracts/DeFi/MultiSigV3.sol\":1366:1378  return false */\n      swap5\n      pop\n      pop\n      pop\n      pop\n      pop\n      jump(tag_59)\n        /* \"contracts/DeFi/MultiSigV3.sol\":1336:1393  if (!valid) {... */\n    tag_73:\n        /* \"contracts/DeFi/MultiSigV3.sol\":1213:1403  {... */\n      pop\n      pop\n        /* \"contracts/DeFi/MultiSigV3.sol\":1208:1211  i++ */\n      dup1\n      dup1\n      tag_74\n      swap1\n      tag_75\n      jump\t// in\n    tag_74:\n      swap2\n      pop\n      pop\n        /* \"contracts/DeFi/MultiSigV3.sol\":1173:1403  for (uint i = 0; i < _sigs.length; i++) {... */\n      jump(tag_62)\n    tag_63:\n      pop\n        /* \"contracts/DeFi/MultiSigV3.sol\":1419:1423  true */\n      0x01\n        /* \"contracts/DeFi/MultiSigV3.sol\":1412:1423  return true */\n      swap2\n      pop\n      pop\n        /* \"contracts/DeFi/MultiSigV3.sol\":1008:1430  function _checkSigs(bytes[2] memory _sigs, bytes32 _txHash) private view returns (bool) {... */\n    tag_59:\n      swap3\n      swap2\n      pop\n      pop\n      jump\t// out\n        /* \"github.com/OpenZeppelin/openzeppelin-contracts/blob/release-v4.5/contracts/utils/cryptography/ECDSA.sol\":8012:8277  function toEthSignedMessageHash(bytes32 hash) internal pure returns (bytes32) {... */\n    tag_61:\n        /* \"github.com/OpenZeppelin/openzeppelin-contracts/blob/release-v4.5/contracts/utils/cryptography/ECDSA.sol\":8081:8088  bytes32 */\n      0x00\n        /* \"github.com/OpenZeppelin/openzeppelin-contracts/blob/release-v4.5/contracts/utils/cryptography/ECDSA.sol\":8264:8268  hash */\n      dup2\n        /* \"github.com/OpenZeppelin/openzeppelin-contracts/blob/release-v4.5/contracts/utils/cryptography/ECDSA.sol\":8211:8269  abi.encodePacked(\"\\x19Ethereum Signed Message:\\n32\", hash) */\n      add(0x20, mload(0x40))\n      tag_77\n      swap2\n      swap1\n      tag_78\n      jump\t// in\n    tag_77:\n      mload(0x40)\n      0x20\n      dup2\n      dup4\n      sub\n      sub\n      dup2\n      mstore\n      swap1\n      0x40\n      mstore\n        /* \"github.com/OpenZeppelin/openzeppelin-contracts/blob/release-v4.5/contracts/utils/cryptography/ECDSA.sol\":8201:8270  keccak256(abi.encodePacked(\"\\x19Ethereum Signed Message:\\n32\", hash)) */\n      dup1\n      mload\n      swap1\n      0x20\n      add\n      keccak256\n        /* \"github.com/OpenZeppelin/openzeppelin-contracts/blob/release-v4.5/contracts/utils/cryptography/ECDSA.sol\":8194:8270  return keccak256(abi.encodePacked(\"\\x19Ethereum Signed Message:\\n32\", hash)) */\n      swap1\n      pop\n        /* \"github.com/OpenZeppelin/openzeppelin-contracts/blob/release-v4.5/contracts/utils/cryptography/ECDSA.sol\":8012:8277  function toEthSignedMessageHash(bytes32 hash) internal pure returns (bytes32) {... */\n      swap2\n      swap1\n      pop\n      jump\t// out\n        /* \"github.com/OpenZeppelin/openzeppelin-contracts/blob/release-v4.5/contracts/utils/cryptography/ECDSA.sol\":4308:4535  function recover(bytes32 hash, bytes memory signature) internal pure returns (address) {... */\n    tag_69:\n        /* \"github.com/OpenZeppelin/openzeppelin-contracts/blob/release-v4.5/contracts/utils/cryptography/ECDSA.sol\":4386:4393  address */\n      0x00\n        /* \"github.com/OpenZeppelin/openzeppelin-contracts/blob/release-v4.5/contracts/utils/cryptography/ECDSA.sol\":4406:4423  address recovered */\n      dup1\n        /* \"github.com/OpenZeppelin/openzeppelin-contracts/blob/release-v4.5/contracts/utils/cryptography/ECDSA.sol\":4425:4443  RecoverError error */\n      0x00\n        /* \"github.com/OpenZeppelin/openzeppelin-contracts/blob/release-v4.5/contracts/utils/cryptography/ECDSA.sol\":4447:4474  tryRecover(hash, signature) */\n      tag_80\n        /* \"github.com/OpenZeppelin/openzeppelin-contracts/blob/release-v4.5/contracts/utils/cryptography/ECDSA.sol\":4458:4462  hash */\n      dup6\n        /* \"github.com/OpenZeppelin/openzeppelin-contracts/blob/release-v4.5/contracts/utils/cryptography/ECDSA.sol\":4464:4473  signature */\n      dup6\n        /* \"github.com/OpenZeppelin/openzeppelin-contracts/blob/release-v4.5/contracts/utils/cryptography/ECDSA.sol\":4447:4457  tryRecover */\n      tag_81\n        /* \"github.com/OpenZeppelin/openzeppelin-contracts/blob/release-v4.5/contracts/utils/cryptography/ECDSA.sol\":4447:4474  tryRecover(hash, signature) */\n      jump\t// in\n    tag_80:\n        /* \"github.com/OpenZeppelin/openzeppelin-contracts/blob/release-v4.5/contracts/utils/cryptography/ECDSA.sol\":4405:4474  (address recovered, RecoverError error) = tryRecover(hash, signature) */\n      swap2\n      pop\n      swap2\n      pop\n        /* \"github.com/OpenZeppelin/openzeppelin-contracts/blob/release-v4.5/contracts/utils/cryptography/ECDSA.sol\":4484:4502  _throwError(error) */\n      tag_82\n        /* \"github.com/OpenZeppelin/openzeppelin-contracts/blob/release-v4.5/contracts/utils/cryptography/ECDSA.sol\":4496:4501  error */\n      dup2\n        /* \"github.com/OpenZeppelin/openzeppelin-contracts/blob/release-v4.5/contracts/utils/cryptography/ECDSA.sol\":4484:4495  _throwError */\n      tag_83\n        /* \"github.com/OpenZeppelin/openzeppelin-contracts/blob/release-v4.5/contracts/utils/cryptography/ECDSA.sol\":4484:4502  _throwError(error) */\n      jump\t// in\n    tag_82:\n        /* \"github.com/OpenZeppelin/openzeppelin-contracts/blob/release-v4.5/contracts/utils/cryptography/ECDSA.sol\":4519:4528  recovered */\n      dup2\n        /* \"github.com/OpenZeppelin/openzeppelin-contracts/blob/release-v4.5/contracts/utils/cryptography/ECDSA.sol\":4512:4528  return recovered */\n      swap3\n      pop\n      pop\n      pop\n        /* \"github.com/OpenZeppelin/openzeppelin-contracts/blob/release-v4.5/contracts/utils/cryptography/ECDSA.sol\":4308:4535  function recover(bytes32 hash, bytes memory signature) internal pure returns (address) {... */\n      swap3\n      swap2\n      pop\n      pop\n      jump\t// out\n        /* \"github.com/OpenZeppelin/openzeppelin-contracts/blob/release-v4.5/contracts/utils/cryptography/ECDSA.sol\":2243:3522  function tryRecover(bytes32 hash, bytes memory signature) internal pure returns (address, RecoverError) {... */\n    tag_81:\n        /* \"github.com/OpenZeppelin/openzeppelin-contracts/blob/release-v4.5/contracts/utils/cryptography/ECDSA.sol\":2324:2331  address */\n      0x00\n        /* \"github.com/OpenZeppelin/openzeppelin-contracts/blob/release-v4.5/contracts/utils/cryptography/ECDSA.sol\":2333:2345  RecoverError */\n      dup1\n        /* \"github.com/OpenZeppelin/openzeppelin-contracts/blob/release-v4.5/contracts/utils/cryptography/ECDSA.sol\":2574:2576  65 */\n      0x41\n        /* \"github.com/OpenZeppelin/openzeppelin-contracts/blob/release-v4.5/contracts/utils/cryptography/ECDSA.sol\":2554:2563  signature */\n      dup4\n        /* \"github.com/OpenZeppelin/openzeppelin-contracts/blob/release-v4.5/contracts/utils/cryptography/ECDSA.sol\":2554:2570  signature.length */\n      mload\n        /* \"github.com/OpenZeppelin/openzeppelin-contracts/blob/release-v4.5/contracts/utils/cryptography/ECDSA.sol\":2554:2576  signature.length == 65 */\n      sub\n        /* \"github.com/OpenZeppelin/openzeppelin-contracts/blob/release-v4.5/contracts/utils/cryptography/ECDSA.sol\":2550:3516  if (signature.length == 65) {... */\n      tag_85\n      jumpi\n        /* \"github.com/OpenZeppelin/openzeppelin-contracts/blob/release-v4.5/contracts/utils/cryptography/ECDSA.sol\":2592:2601  bytes32 r */\n      0x00\n        /* \"github.com/OpenZeppelin/openzeppelin-contracts/blob/release-v4.5/contracts/utils/cryptography/ECDSA.sol\":2615:2624  bytes32 s */\n      dup1\n        /* \"github.com/OpenZeppelin/openzeppelin-contracts/blob/release-v4.5/contracts/utils/cryptography/ECDSA.sol\":2638:2645  uint8 v */\n      0x00\n        /* \"github.com/OpenZeppelin/openzeppelin-contracts/blob/release-v4.5/contracts/utils/cryptography/ECDSA.sol\":2843:2847  0x20 */\n      0x20\n        /* \"github.com/OpenZeppelin/openzeppelin-contracts/blob/release-v4.5/contracts/utils/cryptography/ECDSA.sol\":2832:2841  signature */\n      dup7\n        /* \"github.com/OpenZeppelin/openzeppelin-contracts/blob/release-v4.5/contracts/utils/cryptography/ECDSA.sol\":2828:2848  add(signature, 0x20) */\n      add\n        /* \"github.com/OpenZeppelin/openzeppelin-contracts/blob/release-v4.5/contracts/utils/cryptography/ECDSA.sol\":2822:2849  mload(add(signature, 0x20)) */\n      mload\n        /* \"github.com/OpenZeppelin/openzeppelin-contracts/blob/release-v4.5/contracts/utils/cryptography/ECDSA.sol\":2817:2849  r := mload(add(signature, 0x20)) */\n      swap3\n      pop\n        /* \"github.com/OpenZeppelin/openzeppelin-contracts/blob/release-v4.5/contracts/utils/cryptography/ECDSA.sol\":2892:2896  0x40 */\n      0x40\n        /* \"github.com/OpenZeppelin/openzeppelin-contracts/blob/release-v4.5/contracts/utils/cryptography/ECDSA.sol\":2881:2890  signature */\n      dup7\n        /* \"github.com/OpenZeppelin/openzeppelin-contracts/blob/release-v4.5/contracts/utils/cryptography/ECDSA.sol\":2877:2897  add(signature, 0x40) */\n      add\n        /* \"github.com/OpenZeppelin/openzeppelin-contracts/blob/release-v4.5/contracts/utils/cryptography/ECDSA.sol\":2871:2898  mload(add(signature, 0x40)) */\n      mload\n        /* \"github.com/OpenZeppelin/openzeppelin-contracts/blob/release-v4.5/contracts/utils/cryptography/ECDSA.sol\":2866:2898  s := mload(add(signature, 0x40)) */\n      swap2\n      pop\n        /* \"github.com/OpenZeppelin/openzeppelin-contracts/blob/release-v4.5/contracts/utils/cryptography/ECDSA.sol\":2949:2953  0x60 */\n      0x60\n        /* \"github.com/OpenZeppelin/openzeppelin-contracts/blob/release-v4.5/contracts/utils/cryptography/ECDSA.sol\":2938:2947  signature */\n      dup7\n        /* \"github.com/OpenZeppelin/openzeppelin-contracts/blob/release-v4.5/contracts/utils/cryptography/ECDSA.sol\":2934:2954  add(signature, 0x60) */\n      add\n        /* \"github.com/OpenZeppelin/openzeppelin-contracts/blob/release-v4.5/contracts/utils/cryptography/ECDSA.sol\":2928:2955  mload(add(signature, 0x60)) */\n      mload\n        /* \"github.com/OpenZeppelin/openzeppelin-contracts/blob/release-v4.5/contracts/utils/cryptography/ECDSA.sol\":2925:2926  0 */\n      0x00\n        /* \"github.com/OpenZeppelin/openzeppelin-contracts/blob/release-v4.5/contracts/utils/cryptography/ECDSA.sol\":2920:2956  byte(0, mload(add(signature, 0x60))) */\n      byte\n        /* \"github.com/OpenZeppelin/openzeppelin-contracts/blob/release-v4.5/contracts/utils/cryptography/ECDSA.sol\":2915:2956  v := byte(0, mload(add(signature, 0x60))) */\n      swap1\n      pop\n        /* \"github.com/OpenZeppelin/openzeppelin-contracts/blob/release-v4.5/contracts/utils/cryptography/ECDSA.sol\":2990:3015  tryRecover(hash, v, r, s) */\n      tag_86\n        /* \"github.com/OpenZeppelin/openzeppelin-contracts/blob/release-v4.5/contracts/utils/cryptography/ECDSA.sol\":3001:3005  hash */\n      dup8\n        /* \"github.com/OpenZeppelin/openzeppelin-contracts/blob/release-v4.5/contracts/utils/cryptography/ECDSA.sol\":3007:3008  v */\n      dup3\n        /* \"github.com/OpenZeppelin/openzeppelin-contracts/blob/release-v4.5/contracts/utils/cryptography/ECDSA.sol\":3010:3011  r */\n      dup6\n        /* \"github.com/OpenZeppelin/openzeppelin-contracts/blob/release-v4.5/contracts/utils/cryptography/ECDSA.sol\":3013:3014  s */\n      dup6\n        /* \"github.com/OpenZeppelin/openzeppelin-contracts/blob/release-v4.5/contracts/utils/cryptography/ECDSA.sol\":2990:3000  tryRecover */\n      tag_87\n        /* \"github.com/OpenZeppelin/openzeppelin-contracts/blob/release-v4.5/contracts/utils/cryptography/ECDSA.sol\":2990:3015  tryRecover(hash, v, r, s) */\n      jump\t// in\n    tag_86:\n        /* \"github.com/OpenZeppelin/openzeppelin-contracts/blob/release-v4.5/contracts/utils/cryptography/ECDSA.sol\":2983:3015  return tryRecover(hash, v, r, s) */\n      swap5\n      pop\n      swap5\n      pop\n      pop\n      pop\n      pop\n      jump(tag_84)\n        /* \"github.com/OpenZeppelin/openzeppelin-contracts/blob/release-v4.5/contracts/utils/cryptography/ECDSA.sol\":2550:3516  if (signature.length == 65) {... */\n    tag_85:\n        /* \"github.com/OpenZeppelin/openzeppelin-contracts/blob/release-v4.5/contracts/utils/cryptography/ECDSA.sol\":3056:3058  64 */\n      0x40\n        /* \"github.com/OpenZeppelin/openzeppelin-contracts/blob/release-v4.5/contracts/utils/cryptography/ECDSA.sol\":3036:3045  signature */\n      dup4\n        /* \"github.com/OpenZeppelin/openzeppelin-contracts/blob/release-v4.5/contracts/utils/cryptography/ECDSA.sol\":3036:3052  signature.length */\n      mload\n        /* \"github.com/OpenZeppelin/openzeppelin-contracts/blob/release-v4.5/contracts/utils/cryptography/ECDSA.sol\":3036:3058  signature.length == 64 */\n      sub\n        /* \"github.com/OpenZeppelin/openzeppelin-contracts/blob/release-v4.5/contracts/utils/cryptography/ECDSA.sol\":3032:3516  if (signature.length == 64) {... */\n      tag_89\n      jumpi\n        /* \"github.com/OpenZeppelin/openzeppelin-contracts/blob/release-v4.5/contracts/utils/cryptography/ECDSA.sol\":3074:3083  bytes32 r */\n      0x00\n        /* \"github.com/OpenZeppelin/openzeppelin-contracts/blob/release-v4.5/contracts/utils/cryptography/ECDSA.sol\":3097:3107  bytes32 vs */\n      dup1\n        /* \"github.com/OpenZeppelin/openzeppelin-contracts/blob/release-v4.5/contracts/utils/cryptography/ECDSA.sol\":3305:3309  0x20 */\n      0x20\n        /* \"github.com/OpenZeppelin/openzeppelin-contracts/blob/release-v4.5/contracts/utils/cryptography/ECDSA.sol\":3294:3303  signature */\n      dup6\n        /* \"github.com/OpenZeppelin/openzeppelin-contracts/blob/release-v4.5/contracts/utils/cryptography/ECDSA.sol\":3290:3310  add(signature, 0x20) */\n      add\n        /* \"github.com/OpenZeppelin/openzeppelin-contracts/blob/release-v4.5/contracts/utils/cryptography/ECDSA.sol\":3284:3311  mload(add(signature, 0x20)) */\n      mload\n        /* \"github.com/OpenZeppelin/openzeppelin-contracts/blob/release-v4.5/contracts/utils/cryptography/ECDSA.sol\":3279:3311  r := mload(add(signature, 0x20)) */\n      swap2\n      pop\n        /* \"github.com/OpenZeppelin/openzeppelin-contracts/blob/release-v4.5/contracts/utils/cryptography/ECDSA.sol\":3355:3359  0x40 */\n      0x40\n        /* \"github.com/OpenZeppelin/openzeppelin-contracts/blob/release-v4.5/contracts/utils/cryptography/ECDSA.sol\":3344:3353  signature */\n      dup6\n        /* \"github.com/OpenZeppelin/openzeppelin-contracts/blob/release-v4.5/contracts/utils/cryptography/ECDSA.sol\":3340:3360  add(signature, 0x40) */\n      add\n        /* \"github.com/OpenZeppelin/openzeppelin-contracts/blob/release-v4.5/contracts/utils/cryptography/ECDSA.sol\":3334:3361  mload(add(signature, 0x40)) */\n      mload\n        /* \"github.com/OpenZeppelin/openzeppelin-contracts/blob/release-v4.5/contracts/utils/cryptography/ECDSA.sol\":3328:3361  vs := mload(add(signature, 0x40)) */\n      swap1\n      pop\n        /* \"github.com/OpenZeppelin/openzeppelin-contracts/blob/release-v4.5/contracts/utils/cryptography/ECDSA.sol\":3395:3418  tryRecover(hash, r, vs) */\n      tag_90\n        /* \"github.com/OpenZeppelin/openzeppelin-contracts/blob/release-v4.5/contracts/utils/cryptography/ECDSA.sol\":3406:3410  hash */\n      dup7\n        /* \"github.com/OpenZeppelin/openzeppelin-contracts/blob/release-v4.5/contracts/utils/cryptography/ECDSA.sol\":3412:3413  r */\n      dup4\n        /* \"github.com/OpenZeppelin/openzeppelin-contracts/blob/release-v4.5/contracts/utils/cryptography/ECDSA.sol\":3415:3417  vs */\n      dup4\n        /* \"github.com/OpenZeppelin/openzeppelin-contracts/blob/release-v4.5/contracts/utils/cryptography/ECDSA.sol\":3395:3405  tryRecover */\n      tag_91\n        /* \"github.com/OpenZeppelin/openzeppelin-contracts/blob/release-v4.5/contracts/utils/cryptography/ECDSA.sol\":3395:3418  tryRecover(hash, r, vs) */\n      jump\t// in\n    tag_90:\n        /* \"github.com/OpenZeppelin/openzeppelin-contracts/blob/release-v4.5/contracts/utils/cryptography/ECDSA.sol\":3388:3418  return tryRecover(hash, r, vs) */\n      swap4\n      pop\n      swap4\n      pop\n      pop\n      pop\n      jump(tag_84)\n        /* \"github.com/OpenZeppelin/openzeppelin-contracts/blob/release-v4.5/contracts/utils/cryptography/ECDSA.sol\":3032:3516  if (signature.length == 64) {... */\n    tag_89:\n        /* \"github.com/OpenZeppelin/openzeppelin-contracts/blob/release-v4.5/contracts/utils/cryptography/ECDSA.sol\":3465:3466  0 */\n      0x00\n        /* \"github.com/OpenZeppelin/openzeppelin-contracts/blob/release-v4.5/contracts/utils/cryptography/ECDSA.sol\":3469:3504  RecoverError.InvalidSignatureLength */\n      0x02\n        /* \"github.com/OpenZeppelin/openzeppelin-contracts/blob/release-v4.5/contracts/utils/cryptography/ECDSA.sol\":3449:3505  return (address(0), RecoverError.InvalidSignatureLength) */\n      swap2\n      pop\n      swap2\n      pop\n        /* \"github.com/OpenZeppelin/openzeppelin-contracts/blob/release-v4.5/contracts/utils/cryptography/ECDSA.sol\":2243:3522  function tryRecover(bytes32 hash, bytes memory signature) internal pure returns (address, RecoverError) {... */\n    tag_84:\n      swap3\n      pop\n      swap3\n      swap1\n      pop\n      jump\t// out\n        /* \"github.com/OpenZeppelin/openzeppelin-contracts/blob/release-v4.5/contracts/utils/cryptography/ECDSA.sol\":548:1179  function _throwError(RecoverError error) private pure {... */\n    tag_83:\n        /* \"github.com/OpenZeppelin/openzeppelin-contracts/blob/release-v4.5/contracts/utils/cryptography/ECDSA.sol\":625:645  RecoverError.NoError */\n      0x00\n        /* \"github.com/OpenZeppelin/openzeppelin-contracts/blob/release-v4.5/contracts/utils/cryptography/ECDSA.sol\":616:645  error == RecoverError.NoError */\n      0x04\n      dup2\n      gt\n      iszero\n      tag_94\n      jumpi\n      tag_95\n      tag_96\n      jump\t// in\n    tag_95:\n    tag_94:\n        /* \"github.com/OpenZeppelin/openzeppelin-contracts/blob/release-v4.5/contracts/utils/cryptography/ECDSA.sol\":616:621  error */\n      dup2\n        /* \"github.com/OpenZeppelin/openzeppelin-contracts/blob/release-v4.5/contracts/utils/cryptography/ECDSA.sol\":616:645  error == RecoverError.NoError */\n      0x04\n      dup2\n      gt\n      iszero\n      tag_97\n      jumpi\n      tag_98\n      tag_96\n      jump\t// in\n    tag_98:\n    tag_97:\n      sub\n        /* \"github.com/OpenZeppelin/openzeppelin-contracts/blob/release-v4.5/contracts/utils/cryptography/ECDSA.sol\":612:1173  if (error == RecoverError.NoError) {... */\n      iszero\n        /* \"github.com/OpenZeppelin/openzeppelin-contracts/blob/release-v4.5/contracts/utils/cryptography/ECDSA.sol\":661:668  return; */\n      tag_93\n        /* \"github.com/OpenZeppelin/openzeppelin-contracts/blob/release-v4.5/contracts/utils/cryptography/ECDSA.sol\":612:1173  if (error == RecoverError.NoError) {... */\n      jumpi\n        /* \"github.com/OpenZeppelin/openzeppelin-contracts/blob/release-v4.5/contracts/utils/cryptography/ECDSA.sol\":721:750  RecoverError.InvalidSignature */\n      0x01\n        /* \"github.com/OpenZeppelin/openzeppelin-contracts/blob/release-v4.5/contracts/utils/cryptography/ECDSA.sol\":712:750  error == RecoverError.InvalidSignature */\n      0x04\n      dup2\n      gt\n      iszero\n      tag_101\n      jumpi\n      tag_102\n      tag_96\n      jump\t// in\n    tag_102:\n    tag_101:\n        /* \"github.com/OpenZeppelin/openzeppelin-contracts/blob/release-v4.5/contracts/utils/cryptography/ECDSA.sol\":712:717  error */\n      dup2\n        /* \"github.com/OpenZeppelin/openzeppelin-contracts/blob/release-v4.5/contracts/utils/cryptography/ECDSA.sol\":712:750  error == RecoverError.InvalidSignature */\n      0x04\n      dup2\n      gt\n      iszero\n      tag_103\n      jumpi\n      tag_104\n      tag_96\n      jump\t// in\n    tag_104:\n    tag_103:\n      sub\n        /* \"github.com/OpenZeppelin/openzeppelin-contracts/blob/release-v4.5/contracts/utils/cryptography/ECDSA.sol\":708:1173  if (error == RecoverError.InvalidSignature) {... */\n      tag_105\n      jumpi\n        /* \"github.com/OpenZeppelin/openzeppelin-contracts/blob/release-v4.5/contracts/utils/cryptography/ECDSA.sol\":766:800  revert(\"ECDSA: invalid signature\") */\n      mload(0x40)\n      0x08c379a000000000000000000000000000000000000000000000000000000000\n      dup2\n      mstore\n      0x04\n      add\n      tag_106\n      swap1\n      tag_107\n      jump\t// in\n    tag_106:\n      mload(0x40)\n      dup1\n      swap2\n      sub\n      swap1\n      revert\n        /* \"github.com/OpenZeppelin/openzeppelin-contracts/blob/release-v4.5/contracts/utils/cryptography/ECDSA.sol\":708:1173  if (error == RecoverError.InvalidSignature) {... */\n    tag_105:\n        /* \"github.com/OpenZeppelin/openzeppelin-contracts/blob/release-v4.5/contracts/utils/cryptography/ECDSA.sol\":830:865  RecoverError.InvalidSignatureLength */\n      0x02\n        /* \"github.com/OpenZeppelin/openzeppelin-contracts/blob/release-v4.5/contracts/utils/cryptography/ECDSA.sol\":821:865  error == RecoverError.InvalidSignatureLength */\n      0x04\n      dup2\n      gt\n      iszero\n      tag_109\n      jumpi\n      tag_110\n      tag_96\n      jump\t// in\n    tag_110:\n    tag_109:\n        /* \"github.com/OpenZeppelin/openzeppelin-contracts/blob/release-v4.5/contracts/utils/cryptography/ECDSA.sol\":821:826  error */\n      dup2\n        /* \"github.com/OpenZeppelin/openzeppelin-contracts/blob/release-v4.5/contracts/utils/cryptography/ECDSA.sol\":821:865  error == RecoverError.InvalidSignatureLength */\n      0x04\n      dup2\n      gt\n      iszero\n      tag_111\n      jumpi\n      tag_112\n      tag_96\n      jump\t// in\n    tag_112:\n    tag_111:\n      sub\n        /* \"github.com/OpenZeppelin/openzeppelin-contracts/blob/release-v4.5/contracts/utils/cryptography/ECDSA.sol\":817:1173  if (error == RecoverError.InvalidSignatureLength) {... */\n      tag_113\n      jumpi\n        /* \"github.com/OpenZeppelin/openzeppelin-contracts/blob/release-v4.5/contracts/utils/cryptography/ECDSA.sol\":881:922  revert(\"ECDSA: invalid signature length\") */\n      mload(0x40)\n      0x08c379a000000000000000000000000000000000000000000000000000000000\n      dup2\n      mstore\n      0x04\n      add\n      tag_114\n      swap1\n      tag_115\n      jump\t// in\n    tag_114:\n      mload(0x40)\n      dup1\n      swap2\n      sub\n      swap1\n      revert\n        /* \"github.com/OpenZeppelin/openzeppelin-contracts/blob/release-v4.5/contracts/utils/cryptography/ECDSA.sol\":817:1173  if (error == RecoverError.InvalidSignatureLength) {... */\n    tag_113:\n        /* \"github.com/OpenZeppelin/openzeppelin-contracts/blob/release-v4.5/contracts/utils/cryptography/ECDSA.sol\":952:982  RecoverError.InvalidSignatureS */\n      0x03\n        /* \"github.com/OpenZeppelin/openzeppelin-contracts/blob/release-v4.5/contracts/utils/cryptography/ECDSA.sol\":943:982  error == RecoverError.InvalidSignatureS */\n      0x04\n      dup2\n      gt\n      iszero\n      tag_117\n      jumpi\n      tag_118\n      tag_96\n      jump\t// in\n    tag_118:\n    tag_117:\n        /* \"github.com/OpenZeppelin/openzeppelin-contracts/blob/release-v4.5/contracts/utils/cryptography/ECDSA.sol\":943:948  error */\n      dup2\n        /* \"github.com/OpenZeppelin/openzeppelin-contracts/blob/release-v4.5/contracts/utils/cryptography/ECDSA.sol\":943:982  error == RecoverError.InvalidSignatureS */\n      0x04\n      dup2\n      gt\n      iszero\n      tag_119\n      jumpi\n      tag_120\n      tag_96\n      jump\t// in\n    tag_120:\n    tag_119:\n      sub\n        /* \"github.com/OpenZeppelin/openzeppelin-contracts/blob/release-v4.5/contracts/utils/cryptography/ECDSA.sol\":939:1173  if (error == RecoverError.InvalidSignatureS) {... */\n      tag_121\n      jumpi\n        /* \"github.com/OpenZeppelin/openzeppelin-contracts/blob/release-v4.5/contracts/utils/cryptography/ECDSA.sol\":998:1042  revert(\"ECDSA: invalid signature 's' value\") */\n      mload(0x40)\n      0x08c379a000000000000000000000000000000000000000000000000000000000\n      dup2\n      mstore\n      0x04\n      add\n      tag_122\n      swap1\n      tag_123\n      jump\t// in\n    tag_122:\n      mload(0x40)\n      dup1\n      swap2\n      sub\n      swap1\n      revert\n        /* \"github.com/OpenZeppelin/openzeppelin-contracts/blob/release-v4.5/contracts/utils/cryptography/ECDSA.sol\":939:1173  if (error == RecoverError.InvalidSignatureS) {... */\n    tag_121:\n        /* \"github.com/OpenZeppelin/openzeppelin-contracts/blob/release-v4.5/contracts/utils/cryptography/ECDSA.sol\":1072:1102  RecoverError.InvalidSignatureV */\n      0x04\n        /* \"github.com/OpenZeppelin/openzeppelin-contracts/blob/release-v4.5/contracts/utils/cryptography/ECDSA.sol\":1063:1102  error == RecoverError.InvalidSignatureV */\n      dup1\n      dup2\n      gt\n      iszero\n      tag_125\n      jumpi\n      tag_126\n      tag_96\n      jump\t// in\n    tag_126:\n    tag_125:\n        /* \"github.com/OpenZeppelin/openzeppelin-contracts/blob/release-v4.5/contracts/utils/cryptography/ECDSA.sol\":1063:1068  error */\n      dup2\n        /* \"github.com/OpenZeppelin/openzeppelin-contracts/blob/release-v4.5/contracts/utils/cryptography/ECDSA.sol\":1063:1102  error == RecoverError.InvalidSignatureV */\n      0x04\n      dup2\n      gt\n      iszero\n      tag_127\n      jumpi\n      tag_128\n      tag_96\n      jump\t// in\n    tag_128:\n    tag_127:\n      sub\n        /* \"github.com/OpenZeppelin/openzeppelin-contracts/blob/release-v4.5/contracts/utils/cryptography/ECDSA.sol\":1059:1173  if (error == RecoverError.InvalidSignatureV) {... */\n      tag_129\n      jumpi\n        /* \"github.com/OpenZeppelin/openzeppelin-contracts/blob/release-v4.5/contracts/utils/cryptography/ECDSA.sol\":1118:1162  revert(\"ECDSA: invalid signature 'v' value\") */\n      mload(0x40)\n      0x08c379a000000000000000000000000000000000000000000000000000000000\n      dup2\n      mstore\n      0x04\n      add\n      tag_130\n      swap1\n      tag_131\n      jump\t// in\n    tag_130:\n      mload(0x40)\n      dup1\n      swap2\n      sub\n      swap1\n      revert\n        /* \"github.com/OpenZeppelin/openzeppelin-contracts/blob/release-v4.5/contracts/utils/cryptography/ECDSA.sol\":1059:1173  if (error == RecoverError.InvalidSignatureV) {... */\n    tag_129:\n        /* \"github.com/OpenZeppelin/openzeppelin-contracts/blob/release-v4.5/contracts/utils/cryptography/ECDSA.sol\":548:1179  function _throwError(RecoverError error) private pure {... */\n    tag_93:\n      pop\n      jump\t// out\n        /* \"github.com/OpenZeppelin/openzeppelin-contracts/blob/release-v4.5/contracts/utils/cryptography/ECDSA.sol\":5716:7319  function tryRecover(... */\n    tag_87:\n        /* \"github.com/OpenZeppelin/openzeppelin-contracts/blob/release-v4.5/contracts/utils/cryptography/ECDSA.sol\":5842:5849  address */\n      0x00\n        /* \"github.com/OpenZeppelin/openzeppelin-contracts/blob/release-v4.5/contracts/utils/cryptography/ECDSA.sol\":5851:5863  RecoverError */\n      dup1\n        /* \"github.com/OpenZeppelin/openzeppelin-contracts/blob/release-v4.5/contracts/utils/cryptography/ECDSA.sol\":6766:6832  0x7FFFFFFFFFFFFFFFFFFFFFFFFFFFFFFF5D576E7357A4501DDFE92F46681B20A0 */\n      0x7fffffffffffffffffffffffffffffff5d576e7357a4501ddfe92f46681b20a0\n        /* \"github.com/OpenZeppelin/openzeppelin-contracts/blob/release-v4.5/contracts/utils/cryptography/ECDSA.sol\":6761:6762  s */\n      dup4\n        /* \"github.com/OpenZeppelin/openzeppelin-contracts/blob/release-v4.5/contracts/utils/cryptography/ECDSA.sol\":6753:6763  uint256(s) */\n      0x00\n      shr\n        /* \"github.com/OpenZeppelin/openzeppelin-contracts/blob/release-v4.5/contracts/utils/cryptography/ECDSA.sol\":6753:6832  uint256(s) > 0x7FFFFFFFFFFFFFFFFFFFFFFFFFFFFFFF5D576E7357A4501DDFE92F46681B20A0 */\n      gt\n        /* \"github.com/OpenZeppelin/openzeppelin-contracts/blob/release-v4.5/contracts/utils/cryptography/ECDSA.sol\":6749:6910  if (uint256(s) > 0x7FFFFFFFFFFFFFFFFFFFFFFFFFFFFFFF5D576E7357A4501DDFE92F46681B20A0) {... */\n      iszero\n      tag_133\n      jumpi\n        /* \"github.com/OpenZeppelin/openzeppelin-contracts/blob/release-v4.5/contracts/utils/cryptography/ECDSA.sol\":6864:6865  0 */\n      0x00\n        /* \"github.com/OpenZeppelin/openzeppelin-contracts/blob/release-v4.5/contracts/utils/cryptography/ECDSA.sol\":6868:6898  RecoverError.InvalidSignatureS */\n      0x03\n        /* \"github.com/OpenZeppelin/openzeppelin-contracts/blob/release-v4.5/contracts/utils/cryptography/ECDSA.sol\":6848:6899  return (address(0), RecoverError.InvalidSignatureS) */\n      swap2\n      pop\n      swap2\n      pop\n      jump(tag_132)\n        /* \"github.com/OpenZeppelin/openzeppelin-contracts/blob/release-v4.5/contracts/utils/cryptography/ECDSA.sol\":6749:6910  if (uint256(s) > 0x7FFFFFFFFFFFFFFFFFFFFFFFFFFFFFFF5D576E7357A4501DDFE92F46681B20A0) {... */\n    tag_133:\n        /* \"github.com/OpenZeppelin/openzeppelin-contracts/blob/release-v4.5/contracts/utils/cryptography/ECDSA.sol\":6928:6930  27 */\n      0x1b\n        /* \"github.com/OpenZeppelin/openzeppelin-contracts/blob/release-v4.5/contracts/utils/cryptography/ECDSA.sol\":6923:6924  v */\n      dup6\n        /* \"github.com/OpenZeppelin/openzeppelin-contracts/blob/release-v4.5/contracts/utils/cryptography/ECDSA.sol\":6923:6930  v != 27 */\n      0xff\n      and\n      eq\n      iszero\n        /* \"github.com/OpenZeppelin/openzeppelin-contracts/blob/release-v4.5/contracts/utils/cryptography/ECDSA.sol\":6923:6941  v != 27 && v != 28 */\n      dup1\n      iszero\n      tag_134\n      jumpi\n      pop\n        /* \"github.com/OpenZeppelin/openzeppelin-contracts/blob/release-v4.5/contracts/utils/cryptography/ECDSA.sol\":6939:6941  28 */\n      0x1c\n        /* \"github.com/OpenZeppelin/openzeppelin-contracts/blob/release-v4.5/contracts/utils/cryptography/ECDSA.sol\":6934:6935  v */\n      dup6\n        /* \"github.com/OpenZeppelin/openzeppelin-contracts/blob/release-v4.5/contracts/utils/cryptography/ECDSA.sol\":6934:6941  v != 28 */\n      0xff\n      and\n      eq\n      iszero\n        /* \"github.com/OpenZeppelin/openzeppelin-contracts/blob/release-v4.5/contracts/utils/cryptography/ECDSA.sol\":6923:6941  v != 27 && v != 28 */\n    tag_134:\n        /* \"github.com/OpenZeppelin/openzeppelin-contracts/blob/release-v4.5/contracts/utils/cryptography/ECDSA.sol\":6919:7019  if (v != 27 && v != 28) {... */\n      iszero\n      tag_135\n      jumpi\n        /* \"github.com/OpenZeppelin/openzeppelin-contracts/blob/release-v4.5/contracts/utils/cryptography/ECDSA.sol\":6973:6974  0 */\n      0x00\n        /* \"github.com/OpenZeppelin/openzeppelin-contracts/blob/release-v4.5/contracts/utils/cryptography/ECDSA.sol\":6977:7007  RecoverError.InvalidSignatureV */\n      0x04\n        /* \"github.com/OpenZeppelin/openzeppelin-contracts/blob/release-v4.5/contracts/utils/cryptography/ECDSA.sol\":6957:7008  return (address(0), RecoverError.InvalidSignatureV) */\n      swap2\n      pop\n      swap2\n      pop\n      jump(tag_132)\n        /* \"github.com/OpenZeppelin/openzeppelin-contracts/blob/release-v4.5/contracts/utils/cryptography/ECDSA.sol\":6919:7019  if (v != 27 && v != 28) {... */\n    tag_135:\n        /* \"github.com/OpenZeppelin/openzeppelin-contracts/blob/release-v4.5/contracts/utils/cryptography/ECDSA.sol\":7113:7127  address signer */\n      0x00\n        /* \"github.com/OpenZeppelin/openzeppelin-contracts/blob/release-v4.5/contracts/utils/cryptography/ECDSA.sol\":7130:7154  ecrecover(hash, v, r, s) */\n      0x01\n        /* \"github.com/OpenZeppelin/openzeppelin-contracts/blob/release-v4.5/contracts/utils/cryptography/ECDSA.sol\":7140:7144  hash */\n      dup8\n        /* \"github.com/OpenZeppelin/openzeppelin-contracts/blob/release-v4.5/contracts/utils/cryptography/ECDSA.sol\":7146:7147  v */\n      dup8\n        /* \"github.com/OpenZeppelin/openzeppelin-contracts/blob/release-v4.5/contracts/utils/cryptography/ECDSA.sol\":7149:7150  r */\n      dup8\n        /* \"github.com/OpenZeppelin/openzeppelin-contracts/blob/release-v4.5/contracts/utils/cryptography/ECDSA.sol\":7152:7153  s */\n      dup8\n        /* \"github.com/OpenZeppelin/openzeppelin-contracts/blob/release-v4.5/contracts/utils/cryptography/ECDSA.sol\":7130:7154  ecrecover(hash, v, r, s) */\n      mload(0x40)\n      0x00\n      dup2\n      mstore\n      0x20\n      add\n      0x40\n      mstore\n      mload(0x40)\n      tag_136\n      swap5\n      swap4\n      swap3\n      swap2\n      swap1\n      tag_137\n      jump\t// in\n    tag_136:\n      0x20\n      mload(0x40)\n      0x20\n      dup2\n      sub\n      swap1\n      dup1\n      dup5\n      sub\n      swap1\n      dup6\n      gas\n      staticcall\n      iszero\n      dup1\n      iszero\n      tag_139\n      jumpi\n      returndatasize\n      0x00\n      dup1\n      returndatacopy\n      revert(0x00, returndatasize)\n    tag_139:\n      pop\n      pop\n      pop\n      mload(sub(mload(0x40), 0x20))\n        /* \"github.com/OpenZeppelin/openzeppelin-contracts/blob/release-v4.5/contracts/utils/cryptography/ECDSA.sol\":7113:7154  address signer = ecrecover(hash, v, r, s) */\n      swap1\n      pop\n        /* \"github.com/OpenZeppelin/openzeppelin-contracts/blob/release-v4.5/contracts/utils/cryptography/ECDSA.sol\":7186:7187  0 */\n      0x00\n        /* \"github.com/OpenZeppelin/openzeppelin-contracts/blob/release-v4.5/contracts/utils/cryptography/ECDSA.sol\":7168:7188  signer == address(0) */\n      0xffffffffffffffffffffffffffffffffffffffff\n      and\n        /* \"github.com/OpenZeppelin/openzeppelin-contracts/blob/release-v4.5/contracts/utils/cryptography/ECDSA.sol\":7168:7174  signer */\n      dup2\n        /* \"github.com/OpenZeppelin/openzeppelin-contracts/blob/release-v4.5/contracts/utils/cryptography/ECDSA.sol\":7168:7188  signer == address(0) */\n      0xffffffffffffffffffffffffffffffffffffffff\n      and\n      sub\n        /* \"github.com/OpenZeppelin/openzeppelin-contracts/blob/release-v4.5/contracts/utils/cryptography/ECDSA.sol\":7164:7265  if (signer == address(0)) {... */\n      tag_140\n      jumpi\n        /* \"github.com/OpenZeppelin/openzeppelin-contracts/blob/release-v4.5/contracts/utils/cryptography/ECDSA.sol\":7220:7221  0 */\n      0x00\n        /* \"github.com/OpenZeppelin/openzeppelin-contracts/blob/release-v4.5/contracts/utils/cryptography/ECDSA.sol\":7224:7253  RecoverError.InvalidSignature */\n      0x01\n        /* \"github.com/OpenZeppelin/openzeppelin-contracts/blob/release-v4.5/contracts/utils/cryptography/ECDSA.sol\":7204:7254  return (address(0), RecoverError.InvalidSignature) */\n      swap3\n      pop\n      swap3\n      pop\n      pop\n      jump(tag_132)\n        /* \"github.com/OpenZeppelin/openzeppelin-contracts/blob/release-v4.5/contracts/utils/cryptography/ECDSA.sol\":7164:7265  if (signer == address(0)) {... */\n    tag_140:\n        /* \"github.com/OpenZeppelin/openzeppelin-contracts/blob/release-v4.5/contracts/utils/cryptography/ECDSA.sol\":7283:7289  signer */\n      dup1\n        /* \"github.com/OpenZeppelin/openzeppelin-contracts/blob/release-v4.5/contracts/utils/cryptography/ECDSA.sol\":7291:7311  RecoverError.NoError */\n      0x00\n        /* \"github.com/OpenZeppelin/openzeppelin-contracts/blob/release-v4.5/contracts/utils/cryptography/ECDSA.sol\":7275:7312  return (signer, RecoverError.NoError) */\n      swap3\n      pop\n      swap3\n      pop\n      pop\n        /* \"github.com/OpenZeppelin/openzeppelin-contracts/blob/release-v4.5/contracts/utils/cryptography/ECDSA.sol\":5716:7319  function tryRecover(... */\n    tag_132:\n      swap5\n      pop\n      swap5\n      swap3\n      pop\n      pop\n      pop\n      jump\t// out\n        /* \"github.com/OpenZeppelin/openzeppelin-contracts/blob/release-v4.5/contracts/utils/cryptography/ECDSA.sol\":4789:5125  function tryRecover(... */\n    tag_91:\n        /* \"github.com/OpenZeppelin/openzeppelin-contracts/blob/release-v4.5/contracts/utils/cryptography/ECDSA.sol\":4899:4906  address */\n      0x00\n        /* \"github.com/OpenZeppelin/openzeppelin-contracts/blob/release-v4.5/contracts/utils/cryptography/ECDSA.sol\":4908:4920  RecoverError */\n      dup1\n        /* \"github.com/OpenZeppelin/openzeppelin-contracts/blob/release-v4.5/contracts/utils/cryptography/ECDSA.sol\":4932:4941  bytes32 s */\n      0x00\n        /* \"github.com/OpenZeppelin/openzeppelin-contracts/blob/release-v4.5/contracts/utils/cryptography/ECDSA.sol\":4957:5023  0x7fffffffffffffffffffffffffffffffffffffffffffffffffffffffffffffff */\n      0x7fffffffffffffffffffffffffffffffffffffffffffffffffffffffffffffff\n        /* \"github.com/OpenZeppelin/openzeppelin-contracts/blob/release-v4.5/contracts/utils/cryptography/ECDSA.sol\":4949:5024  bytes32(0x7fffffffffffffffffffffffffffffffffffffffffffffffffffffffffffffff) */\n      0x00\n      shl\n        /* \"github.com/OpenZeppelin/openzeppelin-contracts/blob/release-v4.5/contracts/utils/cryptography/ECDSA.sol\":4944:4946  vs */\n      dup5\n        /* \"github.com/OpenZeppelin/openzeppelin-contracts/blob/release-v4.5/contracts/utils/cryptography/ECDSA.sol\":4944:5024  vs & bytes32(0x7fffffffffffffffffffffffffffffffffffffffffffffffffffffffffffffff) */\n      and\n        /* \"github.com/OpenZeppelin/openzeppelin-contracts/blob/release-v4.5/contracts/utils/cryptography/ECDSA.sol\":4932:5024  bytes32 s = vs & bytes32(0x7fffffffffffffffffffffffffffffffffffffffffffffffffffffffffffffff) */\n      swap1\n      pop\n        /* \"github.com/OpenZeppelin/openzeppelin-contracts/blob/release-v4.5/contracts/utils/cryptography/ECDSA.sol\":5034:5041  uint8 v */\n      0x00\n        /* \"github.com/OpenZeppelin/openzeppelin-contracts/blob/release-v4.5/contracts/utils/cryptography/ECDSA.sol\":5073:5075  27 */\n      0x1b\n        /* \"github.com/OpenZeppelin/openzeppelin-contracts/blob/release-v4.5/contracts/utils/cryptography/ECDSA.sol\":5066:5069  255 */\n      0xff\n        /* \"github.com/OpenZeppelin/openzeppelin-contracts/blob/release-v4.5/contracts/utils/cryptography/ECDSA.sol\":5059:5061  vs */\n      dup7\n        /* \"github.com/OpenZeppelin/openzeppelin-contracts/blob/release-v4.5/contracts/utils/cryptography/ECDSA.sol\":5051:5062  uint256(vs) */\n      0x00\n      shr\n        /* \"github.com/OpenZeppelin/openzeppelin-contracts/blob/release-v4.5/contracts/utils/cryptography/ECDSA.sol\":5051:5069  uint256(vs) >> 255 */\n      swap1\n      shr\n        /* \"github.com/OpenZeppelin/openzeppelin-contracts/blob/release-v4.5/contracts/utils/cryptography/ECDSA.sol\":5050:5075  (uint256(vs) >> 255) + 27 */\n      tag_142\n      swap2\n      swap1\n      tag_143\n      jump\t// in\n    tag_142:\n        /* \"github.com/OpenZeppelin/openzeppelin-contracts/blob/release-v4.5/contracts/utils/cryptography/ECDSA.sol\":5034:5076  uint8 v = uint8((uint256(vs) >> 255) + 27) */\n      swap1\n      pop\n        /* \"github.com/OpenZeppelin/openzeppelin-contracts/blob/release-v4.5/contracts/utils/cryptography/ECDSA.sol\":5093:5118  tryRecover(hash, v, r, s) */\n      tag_144\n        /* \"github.com/OpenZeppelin/openzeppelin-contracts/blob/release-v4.5/contracts/utils/cryptography/ECDSA.sol\":5104:5108  hash */\n      dup8\n        /* \"github.com/OpenZeppelin/openzeppelin-contracts/blob/release-v4.5/contracts/utils/cryptography/ECDSA.sol\":5110:5111  v */\n      dup3\n        /* \"github.com/OpenZeppelin/openzeppelin-contracts/blob/release-v4.5/contracts/utils/cryptography/ECDSA.sol\":5113:5114  r */\n      dup9\n        /* \"github.com/OpenZeppelin/openzeppelin-contracts/blob/release-v4.5/contracts/utils/cryptography/ECDSA.sol\":5116:5117  s */\n      dup6\n        /* \"github.com/OpenZeppelin/openzeppelin-contracts/blob/release-v4.5/contracts/utils/cryptography/ECDSA.sol\":5093:5103  tryRecover */\n      tag_87\n        /* \"github.com/OpenZeppelin/openzeppelin-contracts/blob/release-v4.5/contracts/utils/cryptography/ECDSA.sol\":5093:5118  tryRecover(hash, v, r, s) */\n      jump\t// in\n    tag_144:\n        /* \"github.com/OpenZeppelin/openzeppelin-contracts/blob/release-v4.5/contracts/utils/cryptography/ECDSA.sol\":5086:5118  return tryRecover(hash, v, r, s) */\n      swap4\n      pop\n      swap4\n      pop\n      pop\n      pop\n        /* \"github.com/OpenZeppelin/openzeppelin-contracts/blob/release-v4.5/contracts/utils/cryptography/ECDSA.sol\":4789:5125  function tryRecover(... */\n      swap4\n      pop\n      swap4\n      swap2\n      pop\n      pop\n      jump\t// out\n        /* \"#utility.yul\":7:82   */\n    tag_145:\n        /* \"#utility.yul\":40:46   */\n      0x00\n        /* \"#utility.yul\":73:75   */\n      0x40\n        /* \"#utility.yul\":67:76   */\n      mload\n        /* \"#utility.yul\":57:76   */\n      swap1\n      pop\n        /* \"#utility.yul\":7:82   */\n      swap1\n      jump\t// out\n        /* \"#utility.yul\":88:205   */\n    tag_146:\n        /* \"#utility.yul\":197:198   */\n      0x00\n        /* \"#utility.yul\":194:195   */\n      dup1\n        /* \"#utility.yul\":187:199   */\n      revert\n        /* \"#utility.yul\":211:328   */\n    tag_147:\n        /* \"#utility.yul\":320:321   */\n      0x00\n        /* \"#utility.yul\":317:318   */\n      dup1\n        /* \"#utility.yul\":310:322   */\n      revert\n        /* \"#utility.yul\":334:411   */\n    tag_148:\n        /* \"#utility.yul\":371:378   */\n      0x00\n        /* \"#utility.yul\":400:405   */\n      dup2\n        /* \"#utility.yul\":389:405   */\n      swap1\n      pop\n        /* \"#utility.yul\":334:411   */\n      swap2\n      swap1\n      pop\n      jump\t// out\n        /* \"#utility.yul\":417:539   */\n    tag_149:\n        /* \"#utility.yul\":490:514   */\n      tag_212\n        /* \"#utility.yul\":508:513   */\n      dup2\n        /* \"#utility.yul\":490:514   */\n      tag_148\n      jump\t// in\n    tag_212:\n        /* \"#utility.yul\":483:488   */\n      dup2\n        /* \"#utility.yul\":480:515   */\n      eq\n        /* \"#utility.yul\":470:533   */\n      tag_213\n      jumpi\n        /* \"#utility.yul\":529:530   */\n      0x00\n        /* \"#utility.yul\":526:527   */\n      dup1\n        /* \"#utility.yul\":519:531   */\n      revert\n        /* \"#utility.yul\":470:533   */\n    tag_213:\n        /* \"#utility.yul\":417:539   */\n      pop\n      jump\t// out\n        /* \"#utility.yul\":545:684   */\n    tag_150:\n        /* \"#utility.yul\":591:596   */\n      0x00\n        /* \"#utility.yul\":629:635   */\n      dup2\n        /* \"#utility.yul\":616:636   */\n      calldataload\n        /* \"#utility.yul\":607:636   */\n      swap1\n      pop\n        /* \"#utility.yul\":645:678   */\n      tag_215\n        /* \"#utility.yul\":672:677   */\n      dup2\n        /* \"#utility.yul\":645:678   */\n      tag_149\n      jump\t// in\n    tag_215:\n        /* \"#utility.yul\":545:684   */\n      swap3\n      swap2\n      pop\n      pop\n      jump\t// out\n        /* \"#utility.yul\":690:1019   */\n    tag_13:\n        /* \"#utility.yul\":749:755   */\n      0x00\n        /* \"#utility.yul\":798:800   */\n      0x20\n        /* \"#utility.yul\":786:795   */\n      dup3\n        /* \"#utility.yul\":777:784   */\n      dup5\n        /* \"#utility.yul\":773:796   */\n      sub\n        /* \"#utility.yul\":769:801   */\n      slt\n        /* \"#utility.yul\":766:885   */\n      iszero\n      tag_217\n      jumpi\n        /* \"#utility.yul\":804:883   */\n      tag_218\n      tag_146\n      jump\t// in\n    tag_218:\n        /* \"#utility.yul\":766:885   */\n    tag_217:\n        /* \"#utility.yul\":924:925   */\n      0x00\n        /* \"#utility.yul\":949:1002   */\n      tag_219\n        /* \"#utility.yul\":994:1001   */\n      dup5\n        /* \"#utility.yul\":985:991   */\n      dup3\n        /* \"#utility.yul\":974:983   */\n      dup6\n        /* \"#utility.yul\":970:992   */\n      add\n        /* \"#utility.yul\":949:1002   */\n      tag_150\n      jump\t// in\n    tag_219:\n        /* \"#utility.yul\":939:1002   */\n      swap2\n      pop\n        /* \"#utility.yul\":895:1012   */\n      pop\n        /* \"#utility.yul\":690:1019   */\n      swap3\n      swap2\n      pop\n      pop\n      jump\t// out\n        /* \"#utility.yul\":1025:1151   */\n    tag_151:\n        /* \"#utility.yul\":1062:1069   */\n      0x00\n        /* \"#utility.yul\":1102:1144   */\n      0xffffffffffffffffffffffffffffffffffffffff\n        /* \"#utility.yul\":1095:1100   */\n      dup3\n        /* \"#utility.yul\":1091:1145   */\n      and\n        /* \"#utility.yul\":1080:1145   */\n      swap1\n      pop\n        /* \"#utility.yul\":1025:1151   */\n      swap2\n      swap1\n      pop\n      jump\t// out\n        /* \"#utility.yul\":1157:1253   */\n    tag_152:\n        /* \"#utility.yul\":1194:1201   */\n      0x00\n        /* \"#utility.yul\":1223:1247   */\n      tag_222\n        /* \"#utility.yul\":1241:1246   */\n      dup3\n        /* \"#utility.yul\":1223:1247   */\n      tag_151\n      jump\t// in\n    tag_222:\n        /* \"#utility.yul\":1212:1247   */\n      swap1\n      pop\n        /* \"#utility.yul\":1157:1253   */\n      swap2\n      swap1\n      pop\n      jump\t// out\n        /* \"#utility.yul\":1259:1377   */\n    tag_153:\n        /* \"#utility.yul\":1346:1370   */\n      tag_224\n        /* \"#utility.yul\":1364:1369   */\n      dup2\n        /* \"#utility.yul\":1346:1370   */\n      tag_152\n      jump\t// in\n    tag_224:\n        /* \"#utility.yul\":1341:1344   */\n      dup3\n        /* \"#utility.yul\":1334:1371   */\n      mstore\n        /* \"#utility.yul\":1259:1377   */\n      pop\n      pop\n      jump\t// out\n        /* \"#utility.yul\":1383:1605   */\n    tag_16:\n        /* \"#utility.yul\":1476:1480   */\n      0x00\n        /* \"#utility.yul\":1514:1516   */\n      0x20\n        /* \"#utility.yul\":1503:1512   */\n      dup3\n        /* \"#utility.yul\":1499:1517   */\n      add\n        /* \"#utility.yul\":1491:1517   */\n      swap1\n      pop\n        /* \"#utility.yul\":1527:1598   */\n      tag_226\n        /* \"#utility.yul\":1595:1596   */\n      0x00\n        /* \"#utility.yul\":1584:1593   */\n      dup4\n        /* \"#utility.yul\":1580:1597   */\n      add\n        /* \"#utility.yul\":1571:1577   */\n      dup5\n        /* \"#utility.yul\":1527:1598   */\n      tag_153\n      jump\t// in\n    tag_226:\n        /* \"#utility.yul\":1383:1605   */\n      swap3\n      swap2\n      pop\n      pop\n      jump\t// out\n        /* \"#utility.yul\":1611:1733   */\n    tag_154:\n        /* \"#utility.yul\":1684:1708   */\n      tag_228\n        /* \"#utility.yul\":1702:1707   */\n      dup2\n        /* \"#utility.yul\":1684:1708   */\n      tag_152\n      jump\t// in\n    tag_228:\n        /* \"#utility.yul\":1677:1682   */\n      dup2\n        /* \"#utility.yul\":1674:1709   */\n      eq\n        /* \"#utility.yul\":1664:1727   */\n      tag_229\n      jumpi\n        /* \"#utility.yul\":1723:1724   */\n      0x00\n        /* \"#utility.yul\":1720:1721   */\n      dup1\n        /* \"#utility.yul\":1713:1725   */\n      revert\n        /* \"#utility.yul\":1664:1727   */\n    tag_229:\n        /* \"#utility.yul\":1611:1733   */\n      pop\n      jump\t// out\n        /* \"#utility.yul\":1739:1878   */\n    tag_155:\n        /* \"#utility.yul\":1785:1790   */\n      0x00\n        /* \"#utility.yul\":1823:1829   */\n      dup2\n        /* \"#utility.yul\":1810:1830   */\n      calldataload\n        /* \"#utility.yul\":1801:1830   */\n      swap1\n      pop\n        /* \"#utility.yul\":1839:1872   */\n      tag_231\n        /* \"#utility.yul\":1866:1871   */\n      dup2\n        /* \"#utility.yul\":1839:1872   */\n      tag_154\n      jump\t// in\n    tag_231:\n        /* \"#utility.yul\":1739:1878   */\n      swap3\n      swap2\n      pop\n      pop\n      jump\t// out\n        /* \"#utility.yul\":1884:2503   */\n    tag_20:\n        /* \"#utility.yul\":1961:1967   */\n      0x00\n        /* \"#utility.yul\":1969:1975   */\n      dup1\n        /* \"#utility.yul\":1977:1983   */\n      0x00\n        /* \"#utility.yul\":2026:2028   */\n      0x60\n        /* \"#utility.yul\":2014:2023   */\n      dup5\n        /* \"#utility.yul\":2005:2012   */\n      dup7\n        /* \"#utility.yul\":2001:2024   */\n      sub\n        /* \"#utility.yul\":1997:2029   */\n      slt\n        /* \"#utility.yul\":1994:2113   */\n      iszero\n      tag_233\n      jumpi\n        /* \"#utility.yul\":2032:2111   */\n      tag_234\n      tag_146\n      jump\t// in\n    tag_234:\n        /* \"#utility.yul\":1994:2113   */\n    tag_233:\n        /* \"#utility.yul\":2152:2153   */\n      0x00\n        /* \"#utility.yul\":2177:2230   */\n      tag_235\n        /* \"#utility.yul\":2222:2229   */\n      dup7\n        /* \"#utility.yul\":2213:2219   */\n      dup3\n        /* \"#utility.yul\":2202:2211   */\n      dup8\n        /* \"#utility.yul\":2198:2220   */\n      add\n        /* \"#utility.yul\":2177:2230   */\n      tag_155\n      jump\t// in\n    tag_235:\n        /* \"#utility.yul\":2167:2230   */\n      swap4\n      pop\n        /* \"#utility.yul\":2123:2240   */\n      pop\n        /* \"#utility.yul\":2279:2281   */\n      0x20\n        /* \"#utility.yul\":2305:2358   */\n      tag_236\n        /* \"#utility.yul\":2350:2357   */\n      dup7\n        /* \"#utility.yul\":2341:2347   */\n      dup3\n        /* \"#utility.yul\":2330:2339   */\n      dup8\n        /* \"#utility.yul\":2326:2348   */\n      add\n        /* \"#utility.yul\":2305:2358   */\n      tag_150\n      jump\t// in\n    tag_236:\n        /* \"#utility.yul\":2295:2358   */\n      swap3\n      pop\n        /* \"#utility.yul\":2250:2368   */\n      pop\n        /* \"#utility.yul\":2407:2409   */\n      0x40\n        /* \"#utility.yul\":2433:2486   */\n      tag_237\n        /* \"#utility.yul\":2478:2485   */\n      dup7\n        /* \"#utility.yul\":2469:2475   */\n      dup3\n        /* \"#utility.yul\":2458:2467   */\n      dup8\n        /* \"#utility.yul\":2454:2476   */\n      add\n        /* \"#utility.yul\":2433:2486   */\n      tag_150\n      jump\t// in\n    tag_237:\n        /* \"#utility.yul\":2423:2486   */\n      swap2\n      pop\n        /* \"#utility.yul\":2378:2496   */\n      pop\n        /* \"#utility.yul\":1884:2503   */\n      swap3\n      pop\n      swap3\n      pop\n      swap3\n      jump\t// out\n        /* \"#utility.yul\":2509:2586   */\n    tag_156:\n        /* \"#utility.yul\":2546:2553   */\n      0x00\n        /* \"#utility.yul\":2575:2580   */\n      dup2\n        /* \"#utility.yul\":2564:2580   */\n      swap1\n      pop\n        /* \"#utility.yul\":2509:2586   */\n      swap2\n      swap1\n      pop\n      jump\t// out\n        /* \"#utility.yul\":2592:2710   */\n    tag_157:\n        /* \"#utility.yul\":2679:2703   */\n      tag_240\n        /* \"#utility.yul\":2697:2702   */\n      dup2\n        /* \"#utility.yul\":2679:2703   */\n      tag_156\n      jump\t// in\n    tag_240:\n        /* \"#utility.yul\":2674:2677   */\n      dup3\n        /* \"#utility.yul\":2667:2704   */\n      mstore\n        /* \"#utility.yul\":2592:2710   */\n      pop\n      pop\n      jump\t// out\n        /* \"#utility.yul\":2716:2938   */\n    tag_23:\n        /* \"#utility.yul\":2809:2813   */\n      0x00\n        /* \"#utility.yul\":2847:2849   */\n      0x20\n        /* \"#utility.yul\":2836:2845   */\n      dup3\n        /* \"#utility.yul\":2832:2850   */\n      add\n        /* \"#utility.yul\":2824:2850   */\n      swap1\n      pop\n        /* \"#utility.yul\":2860:2931   */\n      tag_242\n        /* \"#utility.yul\":2928:2929   */\n      0x00\n        /* \"#utility.yul\":2917:2926   */\n      dup4\n        /* \"#utility.yul\":2913:2930   */\n      add\n        /* \"#utility.yul\":2904:2910   */\n      dup5\n        /* \"#utility.yul\":2860:2931   */\n      tag_157\n      jump\t// in\n    tag_242:\n        /* \"#utility.yul\":2716:2938   */\n      swap3\n      swap2\n      pop\n      pop\n      jump\t// out\n        /* \"#utility.yul\":2944:3061   */\n    tag_158:\n        /* \"#utility.yul\":3053:3054   */\n      0x00\n        /* \"#utility.yul\":3050:3051   */\n      dup1\n        /* \"#utility.yul\":3043:3055   */\n      revert\n        /* \"#utility.yul\":3067:3169   */\n    tag_159:\n        /* \"#utility.yul\":3108:3114   */\n      0x00\n        /* \"#utility.yul\":3159:3161   */\n      0x1f\n        /* \"#utility.yul\":3155:3162   */\n      not\n        /* \"#utility.yul\":3150:3152   */\n      0x1f\n        /* \"#utility.yul\":3143:3148   */\n      dup4\n        /* \"#utility.yul\":3139:3153   */\n      add\n        /* \"#utility.yul\":3135:3163   */\n      and\n        /* \"#utility.yul\":3125:3163   */\n      swap1\n      pop\n        /* \"#utility.yul\":3067:3169   */\n      swap2\n      swap1\n      pop\n      jump\t// out\n        /* \"#utility.yul\":3175:3355   */\n    tag_160:\n        /* \"#utility.yul\":3223:3300   */\n      0x4e487b7100000000000000000000000000000000000000000000000000000000\n        /* \"#utility.yul\":3220:3221   */\n      0x00\n        /* \"#utility.yul\":3213:3301   */\n      mstore\n        /* \"#utility.yul\":3320:3324   */\n      0x41\n        /* \"#utility.yul\":3317:3318   */\n      0x04\n        /* \"#utility.yul\":3310:3325   */\n      mstore\n        /* \"#utility.yul\":3344:3348   */\n      0x24\n        /* \"#utility.yul\":3341:3342   */\n      0x00\n        /* \"#utility.yul\":3334:3349   */\n      revert\n        /* \"#utility.yul\":3361:3642   */\n    tag_161:\n        /* \"#utility.yul\":3444:3471   */\n      tag_247\n        /* \"#utility.yul\":3466:3470   */\n      dup3\n        /* \"#utility.yul\":3444:3471   */\n      tag_159\n      jump\t// in\n    tag_247:\n        /* \"#utility.yul\":3436:3442   */\n      dup2\n        /* \"#utility.yul\":3432:3472   */\n      add\n        /* \"#utility.yul\":3574:3580   */\n      dup2\n        /* \"#utility.yul\":3562:3572   */\n      dup2\n        /* \"#utility.yul\":3559:3581   */\n      lt\n        /* \"#utility.yul\":3538:3556   */\n      0xffffffffffffffff\n        /* \"#utility.yul\":3526:3536   */\n      dup3\n        /* \"#utility.yul\":3523:3557   */\n      gt\n        /* \"#utility.yul\":3520:3582   */\n      or\n        /* \"#utility.yul\":3517:3605   */\n      iszero\n      tag_248\n      jumpi\n        /* \"#utility.yul\":3585:3603   */\n      tag_249\n      tag_160\n      jump\t// in\n    tag_249:\n        /* \"#utility.yul\":3517:3605   */\n    tag_248:\n        /* \"#utility.yul\":3625:3635   */\n      dup1\n        /* \"#utility.yul\":3621:3623   */\n      0x40\n        /* \"#utility.yul\":3614:3636   */\n      mstore\n        /* \"#utility.yul\":3404:3642   */\n      pop\n        /* \"#utility.yul\":3361:3642   */\n      pop\n      pop\n      jump\t// out\n        /* \"#utility.yul\":3648:3777   */\n    tag_162:\n        /* \"#utility.yul\":3682:3688   */\n      0x00\n        /* \"#utility.yul\":3709:3729   */\n      tag_251\n      tag_145\n      jump\t// in\n    tag_251:\n        /* \"#utility.yul\":3699:3729   */\n      swap1\n      pop\n        /* \"#utility.yul\":3738:3771   */\n      tag_252\n        /* \"#utility.yul\":3766:3770   */\n      dup3\n        /* \"#utility.yul\":3758:3764   */\n      dup3\n        /* \"#utility.yul\":3738:3771   */\n      tag_161\n      jump\t// in\n    tag_252:\n        /* \"#utility.yul\":3648:3777   */\n      swap2\n      swap1\n      pop\n      jump\t// out\n        /* \"#utility.yul\":3783:4041   */\n    tag_163:\n        /* \"#utility.yul\":3867:3871   */\n      0x00\n        /* \"#utility.yul\":3957:3975   */\n      0xffffffffffffffff\n        /* \"#utility.yul\":3949:3955   */\n      dup3\n        /* \"#utility.yul\":3946:3976   */\n      gt\n        /* \"#utility.yul\":3943:3999   */\n      iszero\n      tag_254\n      jumpi\n        /* \"#utility.yul\":3979:3997   */\n      tag_255\n      tag_160\n      jump\t// in\n    tag_255:\n        /* \"#utility.yul\":3943:3999   */\n    tag_254:\n        /* \"#utility.yul\":4029:4033   */\n      0x20\n        /* \"#utility.yul\":4021:4027   */\n      dup3\n        /* \"#utility.yul\":4017:4034   */\n      mul\n        /* \"#utility.yul\":4009:4034   */\n      swap1\n      pop\n        /* \"#utility.yul\":3783:4041   */\n      swap2\n      swap1\n      pop\n      jump\t// out\n        /* \"#utility.yul\":4047:4164   */\n    tag_164:\n        /* \"#utility.yul\":4156:4157   */\n      0x00\n        /* \"#utility.yul\":4153:4154   */\n      dup1\n        /* \"#utility.yul\":4146:4158   */\n      revert\n        /* \"#utility.yul\":4170:4287   */\n    tag_165:\n        /* \"#utility.yul\":4279:4280   */\n      0x00\n        /* \"#utility.yul\":4276:4277   */\n      dup1\n        /* \"#utility.yul\":4269:4281   */\n      revert\n        /* \"#utility.yul\":4293:4600   */\n    tag_166:\n        /* \"#utility.yul\":4354:4358   */\n      0x00\n        /* \"#utility.yul\":4444:4462   */\n      0xffffffffffffffff\n        /* \"#utility.yul\":4436:4442   */\n      dup3\n        /* \"#utility.yul\":4433:4463   */\n      gt\n        /* \"#utility.yul\":4430:4486   */\n      iszero\n      tag_259\n      jumpi\n        /* \"#utility.yul\":4466:4484   */\n      tag_260\n      tag_160\n      jump\t// in\n    tag_260:\n        /* \"#utility.yul\":4430:4486   */\n    tag_259:\n        /* \"#utility.yul\":4504:4533   */\n      tag_261\n        /* \"#utility.yul\":4526:4532   */\n      dup3\n        /* \"#utility.yul\":4504:4533   */\n      tag_159\n      jump\t// in\n    tag_261:\n        /* \"#utility.yul\":4496:4533   */\n      swap1\n      pop\n        /* \"#utility.yul\":4588:4592   */\n      0x20\n        /* \"#utility.yul\":4582:4586   */\n      dup2\n        /* \"#utility.yul\":4578:4593   */\n      add\n        /* \"#utility.yul\":4570:4593   */\n      swap1\n      pop\n        /* \"#utility.yul\":4293:4600   */\n      swap2\n      swap1\n      pop\n      jump\t// out\n        /* \"#utility.yul\":4606:4760   */\n    tag_167:\n        /* \"#utility.yul\":4690:4696   */\n      dup3\n        /* \"#utility.yul\":4685:4688   */\n      dup2\n        /* \"#utility.yul\":4680:4683   */\n      dup4\n        /* \"#utility.yul\":4667:4697   */\n      calldatacopy\n        /* \"#utility.yul\":4752:4753   */\n      0x00\n        /* \"#utility.yul\":4743:4749   */\n      dup4\n        /* \"#utility.yul\":4738:4741   */\n      dup4\n        /* \"#utility.yul\":4734:4750   */\n      add\n        /* \"#utility.yul\":4727:4754   */\n      mstore\n        /* \"#utility.yul\":4606:4760   */\n      pop\n      pop\n      pop\n      jump\t// out\n        /* \"#utility.yul\":4766:5176   */\n    tag_168:\n        /* \"#utility.yul\":4843:4848   */\n      0x00\n        /* \"#utility.yul\":4868:4933   */\n      tag_264\n        /* \"#utility.yul\":4884:4932   */\n      tag_265\n        /* \"#utility.yul\":4925:4931   */\n      dup5\n        /* \"#utility.yul\":4884:4932   */\n      tag_166\n      jump\t// in\n    tag_265:\n        /* \"#utility.yul\":4868:4933   */\n      tag_162\n      jump\t// in\n    tag_264:\n        /* \"#utility.yul\":4859:4933   */\n      swap1\n      pop\n        /* \"#utility.yul\":4956:4962   */\n      dup3\n        /* \"#utility.yul\":4949:4954   */\n      dup2\n        /* \"#utility.yul\":4942:4963   */\n      mstore\n        /* \"#utility.yul\":4994:4998   */\n      0x20\n        /* \"#utility.yul\":4987:4992   */\n      dup2\n        /* \"#utility.yul\":4983:4999   */\n      add\n        /* \"#utility.yul\":5032:5035   */\n      dup5\n        /* \"#utility.yul\":5023:5029   */\n      dup5\n        /* \"#utility.yul\":5018:5021   */\n      dup5\n        /* \"#utility.yul\":5014:5030   */\n      add\n        /* \"#utility.yul\":5011:5036   */\n      gt\n        /* \"#utility.yul\":5008:5120   */\n      iszero\n      tag_266\n      jumpi\n        /* \"#utility.yul\":5039:5118   */\n      tag_267\n      tag_165\n      jump\t// in\n    tag_267:\n        /* \"#utility.yul\":5008:5120   */\n    tag_266:\n        /* \"#utility.yul\":5129:5170   */\n      tag_268\n        /* \"#utility.yul\":5163:5169   */\n      dup5\n        /* \"#utility.yul\":5158:5161   */\n      dup3\n        /* \"#utility.yul\":5153:5156   */\n      dup6\n        /* \"#utility.yul\":5129:5170   */\n      tag_167\n      jump\t// in\n    tag_268:\n        /* \"#utility.yul\":4849:5176   */\n      pop\n        /* \"#utility.yul\":4766:5176   */\n      swap4\n      swap3\n      pop\n      pop\n      pop\n      jump\t// out\n        /* \"#utility.yul\":5195:5533   */\n    tag_169:\n        /* \"#utility.yul\":5250:5255   */\n      0x00\n        /* \"#utility.yul\":5299:5302   */\n      dup3\n        /* \"#utility.yul\":5292:5296   */\n      0x1f\n        /* \"#utility.yul\":5284:5290   */\n      dup4\n        /* \"#utility.yul\":5280:5297   */\n      add\n        /* \"#utility.yul\":5276:5303   */\n      slt\n        /* \"#utility.yul\":5266:5388   */\n      tag_270\n      jumpi\n        /* \"#utility.yul\":5307:5386   */\n      tag_271\n      tag_158\n      jump\t// in\n    tag_271:\n        /* \"#utility.yul\":5266:5388   */\n    tag_270:\n        /* \"#utility.yul\":5424:5430   */\n      dup2\n        /* \"#utility.yul\":5411:5431   */\n      calldataload\n        /* \"#utility.yul\":5449:5527   */\n      tag_272\n        /* \"#utility.yul\":5523:5526   */\n      dup5\n        /* \"#utility.yul\":5515:5521   */\n      dup3\n        /* \"#utility.yul\":5508:5512   */\n      0x20\n        /* \"#utility.yul\":5500:5506   */\n      dup7\n        /* \"#utility.yul\":5496:5513   */\n      add\n        /* \"#utility.yul\":5449:5527   */\n      tag_168\n      jump\t// in\n    tag_272:\n        /* \"#utility.yul\":5440:5527   */\n      swap2\n      pop\n        /* \"#utility.yul\":5256:5533   */\n      pop\n        /* \"#utility.yul\":5195:5533   */\n      swap3\n      swap2\n      pop\n      pop\n      jump\t// out\n        /* \"#utility.yul\":5555:6430   */\n    tag_170:\n        /* \"#utility.yul\":5658:5663   */\n      0x00\n        /* \"#utility.yul\":5683:5771   */\n      tag_274\n        /* \"#utility.yul\":5699:5770   */\n      tag_275\n        /* \"#utility.yul\":5763:5769   */\n      dup5\n        /* \"#utility.yul\":5699:5770   */\n      tag_163\n      jump\t// in\n    tag_275:\n        /* \"#utility.yul\":5683:5771   */\n      tag_162\n      jump\t// in\n    tag_274:\n        /* \"#utility.yul\":5674:5771   */\n      swap1\n      pop\n        /* \"#utility.yul\":5791:5796   */\n      dup1\n        /* \"#utility.yul\":5844:5848   */\n      0x20\n        /* \"#utility.yul\":5836:5842   */\n      dup5\n        /* \"#utility.yul\":5832:5849   */\n      mul\n        /* \"#utility.yul\":5824:5830   */\n      dup4\n        /* \"#utility.yul\":5820:5850   */\n      add\n        /* \"#utility.yul\":5873:5876   */\n      dup6\n        /* \"#utility.yul\":5865:5871   */\n      dup2\n        /* \"#utility.yul\":5862:5877   */\n      gt\n        /* \"#utility.yul\":5859:5981   */\n      iszero\n      tag_276\n      jumpi\n        /* \"#utility.yul\":5892:5971   */\n      tag_277\n      tag_164\n      jump\t// in\n    tag_277:\n        /* \"#utility.yul\":5859:5981   */\n    tag_276:\n        /* \"#utility.yul\":6007:6013   */\n      dup4\n        /* \"#utility.yul\":5990:6424   */\n    tag_278:\n        /* \"#utility.yul\":6024:6030   */\n      dup2\n        /* \"#utility.yul\":6019:6022   */\n      dup2\n        /* \"#utility.yul\":6016:6031   */\n      lt\n        /* \"#utility.yul\":5990:6424   */\n      iszero\n      tag_280\n      jumpi\n        /* \"#utility.yul\":6113:6116   */\n      dup1\n        /* \"#utility.yul\":6100:6117   */\n      calldataload\n        /* \"#utility.yul\":6149:6167   */\n      0xffffffffffffffff\n        /* \"#utility.yul\":6136:6147   */\n      dup2\n        /* \"#utility.yul\":6133:6168   */\n      gt\n        /* \"#utility.yul\":6130:6252   */\n      iszero\n      tag_281\n      jumpi\n        /* \"#utility.yul\":6171:6250   */\n      tag_282\n      tag_158\n      jump\t// in\n    tag_282:\n        /* \"#utility.yul\":6130:6252   */\n    tag_281:\n        /* \"#utility.yul\":6295:6306   */\n      dup1\n        /* \"#utility.yul\":6287:6293   */\n      dup7\n        /* \"#utility.yul\":6283:6307   */\n      add\n        /* \"#utility.yul\":6333:6379   */\n      tag_283\n        /* \"#utility.yul\":6375:6378   */\n      dup10\n        /* \"#utility.yul\":6363:6373   */\n      dup3\n        /* \"#utility.yul\":6333:6379   */\n      tag_169\n      jump\t// in\n    tag_283:\n        /* \"#utility.yul\":6328:6331   */\n      dup6\n        /* \"#utility.yul\":6321:6380   */\n      mstore\n        /* \"#utility.yul\":6409:6413   */\n      0x20\n        /* \"#utility.yul\":6404:6407   */\n      dup6\n        /* \"#utility.yul\":6400:6414   */\n      add\n        /* \"#utility.yul\":6393:6414   */\n      swap5\n      pop\n        /* \"#utility.yul\":6066:6424   */\n      pop\n      pop\n        /* \"#utility.yul\":6050:6054   */\n      0x20\n        /* \"#utility.yul\":6045:6048   */\n      dup2\n        /* \"#utility.yul\":6041:6055   */\n      add\n        /* \"#utility.yul\":6034:6055   */\n      swap1\n      pop\n        /* \"#utility.yul\":5990:6424   */\n      jump(tag_278)\n    tag_280:\n        /* \"#utility.yul\":5994:6015   */\n      pop\n        /* \"#utility.yul\":5664:6430   */\n      pop\n      pop\n        /* \"#utility.yul\":5555:6430   */\n      swap4\n      swap3\n      pop\n      pop\n      pop\n      jump\t// out\n        /* \"#utility.yul\":6452:6809   */\n    tag_171:\n        /* \"#utility.yul\":6530:6535   */\n      0x00\n        /* \"#utility.yul\":6579:6582   */\n      dup3\n        /* \"#utility.yul\":6572:6576   */\n      0x1f\n        /* \"#utility.yul\":6564:6570   */\n      dup4\n        /* \"#utility.yul\":6560:6577   */\n      add\n        /* \"#utility.yul\":6556:6583   */\n      slt\n        /* \"#utility.yul\":6546:6668   */\n      tag_285\n      jumpi\n        /* \"#utility.yul\":6587:6666   */\n      tag_286\n      tag_158\n      jump\t// in\n    tag_286:\n        /* \"#utility.yul\":6546:6668   */\n    tag_285:\n        /* \"#utility.yul\":6691:6695   */\n      0x02\n        /* \"#utility.yul\":6713:6803   */\n      tag_287\n        /* \"#utility.yul\":6799:6802   */\n      dup5\n        /* \"#utility.yul\":6791:6797   */\n      dup3\n        /* \"#utility.yul\":6783:6789   */\n      dup6\n        /* \"#utility.yul\":6713:6803   */\n      tag_170\n      jump\t// in\n    tag_287:\n        /* \"#utility.yul\":6704:6803   */\n      swap2\n      pop\n        /* \"#utility.yul\":6536:6809   */\n      pop\n        /* \"#utility.yul\":6452:6809   */\n      swap3\n      swap2\n      pop\n      pop\n      jump\t// out\n        /* \"#utility.yul\":6815:7804   */\n    tag_27:\n        /* \"#utility.yul\":6933:6939   */\n      0x00\n        /* \"#utility.yul\":6941:6947   */\n      dup1\n        /* \"#utility.yul\":6949:6955   */\n      0x00\n        /* \"#utility.yul\":6957:6963   */\n      dup1\n        /* \"#utility.yul\":7006:7009   */\n      0x80\n        /* \"#utility.yul\":6994:7003   */\n      dup6\n        /* \"#utility.yul\":6985:6992   */\n      dup8\n        /* \"#utility.yul\":6981:7004   */\n      sub\n        /* \"#utility.yul\":6977:7010   */\n      slt\n        /* \"#utility.yul\":6974:7094   */\n      iszero\n      tag_289\n      jumpi\n        /* \"#utility.yul\":7013:7092   */\n      tag_290\n      tag_146\n      jump\t// in\n    tag_290:\n        /* \"#utility.yul\":6974:7094   */\n    tag_289:\n        /* \"#utility.yul\":7133:7134   */\n      0x00\n        /* \"#utility.yul\":7158:7211   */\n      tag_291\n        /* \"#utility.yul\":7203:7210   */\n      dup8\n        /* \"#utility.yul\":7194:7200   */\n      dup3\n        /* \"#utility.yul\":7183:7192   */\n      dup9\n        /* \"#utility.yul\":7179:7201   */\n      add\n        /* \"#utility.yul\":7158:7211   */\n      tag_155\n      jump\t// in\n    tag_291:\n        /* \"#utility.yul\":7148:7211   */\n      swap5\n      pop\n        /* \"#utility.yul\":7104:7221   */\n      pop\n        /* \"#utility.yul\":7260:7262   */\n      0x20\n        /* \"#utility.yul\":7286:7339   */\n      tag_292\n        /* \"#utility.yul\":7331:7338   */\n      dup8\n        /* \"#utility.yul\":7322:7328   */\n      dup3\n        /* \"#utility.yul\":7311:7320   */\n      dup9\n        /* \"#utility.yul\":7307:7329   */\n      add\n        /* \"#utility.yul\":7286:7339   */\n      tag_150\n      jump\t// in\n    tag_292:\n        /* \"#utility.yul\":7276:7339   */\n      swap4\n      pop\n        /* \"#utility.yul\":7231:7349   */\n      pop\n        /* \"#utility.yul\":7388:7390   */\n      0x40\n        /* \"#utility.yul\":7414:7467   */\n      tag_293\n        /* \"#utility.yul\":7459:7466   */\n      dup8\n        /* \"#utility.yul\":7450:7456   */\n      dup3\n        /* \"#utility.yul\":7439:7448   */\n      dup9\n        /* \"#utility.yul\":7435:7457   */\n      add\n        /* \"#utility.yul\":7414:7467   */\n      tag_150\n      jump\t// in\n    tag_293:\n        /* \"#utility.yul\":7404:7467   */\n      swap3\n      pop\n        /* \"#utility.yul\":7359:7477   */\n      pop\n        /* \"#utility.yul\":7544:7546   */\n      0x60\n        /* \"#utility.yul\":7533:7542   */\n      dup6\n        /* \"#utility.yul\":7529:7547   */\n      add\n        /* \"#utility.yul\":7516:7548   */\n      calldataload\n        /* \"#utility.yul\":7575:7593   */\n      0xffffffffffffffff\n        /* \"#utility.yul\":7567:7573   */\n      dup2\n        /* \"#utility.yul\":7564:7594   */\n      gt\n        /* \"#utility.yul\":7561:7678   */\n      iszero\n      tag_294\n      jumpi\n        /* \"#utility.yul\":7597:7676   */\n      tag_295\n      tag_147\n      jump\t// in\n    tag_295:\n        /* \"#utility.yul\":7561:7678   */\n    tag_294:\n        /* \"#utility.yul\":7702:7787   */\n      tag_296\n        /* \"#utility.yul\":7779:7786   */\n      dup8\n        /* \"#utility.yul\":7770:7776   */\n      dup3\n        /* \"#utility.yul\":7759:7768   */\n      dup9\n        /* \"#utility.yul\":7755:7777   */\n      add\n        /* \"#utility.yul\":7702:7787   */\n      tag_171\n      jump\t// in\n    tag_296:\n        /* \"#utility.yul\":7692:7787   */\n      swap2\n      pop\n        /* \"#utility.yul\":7487:7797   */\n      pop\n        /* \"#utility.yul\":6815:7804   */\n      swap3\n      swap6\n      swap2\n      swap5\n      pop\n      swap3\n      pop\n      jump\t// out\n        /* \"#utility.yul\":7810:7932   */\n    tag_172:\n        /* \"#utility.yul\":7883:7907   */\n      tag_298\n        /* \"#utility.yul\":7901:7906   */\n      dup2\n        /* \"#utility.yul\":7883:7907   */\n      tag_156\n      jump\t// in\n    tag_298:\n        /* \"#utility.yul\":7876:7881   */\n      dup2\n        /* \"#utility.yul\":7873:7908   */\n      eq\n        /* \"#utility.yul\":7863:7926   */\n      tag_299\n      jumpi\n        /* \"#utility.yul\":7922:7923   */\n      0x00\n        /* \"#utility.yul\":7919:7920   */\n      dup1\n        /* \"#utility.yul\":7912:7924   */\n      revert\n        /* \"#utility.yul\":7863:7926   */\n    tag_299:\n        /* \"#utility.yul\":7810:7932   */\n      pop\n      jump\t// out\n        /* \"#utility.yul\":7938:8077   */\n    tag_173:\n        /* \"#utility.yul\":7984:7989   */\n      0x00\n        /* \"#utility.yul\":8022:8028   */\n      dup2\n        /* \"#utility.yul\":8009:8029   */\n      calldataload\n        /* \"#utility.yul\":8000:8029   */\n      swap1\n      pop\n        /* \"#utility.yul\":8038:8071   */\n      tag_301\n        /* \"#utility.yul\":8065:8070   */\n      dup2\n        /* \"#utility.yul\":8038:8071   */\n      tag_172\n      jump\t// in\n    tag_301:\n        /* \"#utility.yul\":7938:8077   */\n      swap3\n      swap2\n      pop\n      pop\n      jump\t// out\n        /* \"#utility.yul\":8083:8412   */\n    tag_32:\n        /* \"#utility.yul\":8142:8148   */\n      0x00\n        /* \"#utility.yul\":8191:8193   */\n      0x20\n        /* \"#utility.yul\":8179:8188   */\n      dup3\n        /* \"#utility.yul\":8170:8177   */\n      dup5\n        /* \"#utility.yul\":8166:8189   */\n      sub\n        /* \"#utility.yul\":8162:8194   */\n      slt\n        /* \"#utility.yul\":8159:8278   */\n      iszero\n      tag_303\n      jumpi\n        /* \"#utility.yul\":8197:8276   */\n      tag_304\n      tag_146\n      jump\t// in\n    tag_304:\n        /* \"#utility.yul\":8159:8278   */\n    tag_303:\n        /* \"#utility.yul\":8317:8318   */\n      0x00\n        /* \"#utility.yul\":8342:8395   */\n      tag_305\n        /* \"#utility.yul\":8387:8394   */\n      dup5\n        /* \"#utility.yul\":8378:8384   */\n      dup3\n        /* \"#utility.yul\":8367:8376   */\n      dup6\n        /* \"#utility.yul\":8363:8385   */\n      add\n        /* \"#utility.yul\":8342:8395   */\n      tag_173\n      jump\t// in\n    tag_305:\n        /* \"#utility.yul\":8332:8395   */\n      swap2\n      pop\n        /* \"#utility.yul\":8288:8405   */\n      pop\n        /* \"#utility.yul\":8083:8412   */\n      swap3\n      swap2\n      pop\n      pop\n      jump\t// out\n        /* \"#utility.yul\":8418:8508   */\n    tag_174:\n        /* \"#utility.yul\":8452:8459   */\n      0x00\n        /* \"#utility.yul\":8495:8500   */\n      dup2\n        /* \"#utility.yul\":8488:8501   */\n      iszero\n        /* \"#utility.yul\":8481:8502   */\n      iszero\n        /* \"#utility.yul\":8470:8502   */\n      swap1\n      pop\n        /* \"#utility.yul\":8418:8508   */\n      swap2\n      swap1\n      pop\n      jump\t// out\n        /* \"#utility.yul\":8514:8623   */\n    tag_175:\n        /* \"#utility.yul\":8595:8616   */\n      tag_308\n        /* \"#utility.yul\":8610:8615   */\n      dup2\n        /* \"#utility.yul\":8595:8616   */\n      tag_174\n      jump\t// in\n    tag_308:\n        /* \"#utility.yul\":8590:8593   */\n      dup3\n        /* \"#utility.yul\":8583:8617   */\n      mstore\n        /* \"#utility.yul\":8514:8623   */\n      pop\n      pop\n      jump\t// out\n        /* \"#utility.yul\":8629:8839   */\n    tag_35:\n        /* \"#utility.yul\":8716:8720   */\n      0x00\n        /* \"#utility.yul\":8754:8756   */\n      0x20\n        /* \"#utility.yul\":8743:8752   */\n      dup3\n        /* \"#utility.yul\":8739:8757   */\n      add\n        /* \"#utility.yul\":8731:8757   */\n      swap1\n      pop\n        /* \"#utility.yul\":8767:8832   */\n      tag_310\n        /* \"#utility.yul\":8829:8830   */\n      0x00\n        /* \"#utility.yul\":8818:8827   */\n      dup4\n        /* \"#utility.yul\":8814:8831   */\n      add\n        /* \"#utility.yul\":8805:8811   */\n      dup5\n        /* \"#utility.yul\":8767:8832   */\n      tag_175\n      jump\t// in\n    tag_310:\n        /* \"#utility.yul\":8629:8839   */\n      swap3\n      swap2\n      pop\n      pop\n      jump\t// out\n        /* \"#utility.yul\":8845:8939   */\n    tag_176:\n        /* \"#utility.yul\":8878:8886   */\n      0x00\n        /* \"#utility.yul\":8926:8931   */\n      dup2\n        /* \"#utility.yul\":8922:8924   */\n      0x60\n        /* \"#utility.yul\":8918:8932   */\n      shl\n        /* \"#utility.yul\":8897:8932   */\n      swap1\n      pop\n        /* \"#utility.yul\":8845:8939   */\n      swap2\n      swap1\n      pop\n      jump\t// out\n        /* \"#utility.yul\":8945:9039   */\n    tag_177:\n        /* \"#utility.yul\":8984:8991   */\n      0x00\n        /* \"#utility.yul\":9013:9033   */\n      tag_313\n        /* \"#utility.yul\":9027:9032   */\n      dup3\n        /* \"#utility.yul\":9013:9033   */\n      tag_176\n      jump\t// in\n    tag_313:\n        /* \"#utility.yul\":9002:9033   */\n      swap1\n      pop\n        /* \"#utility.yul\":8945:9039   */\n      swap2\n      swap1\n      pop\n      jump\t// out\n        /* \"#utility.yul\":9045:9145   */\n    tag_178:\n        /* \"#utility.yul\":9084:9091   */\n      0x00\n        /* \"#utility.yul\":9113:9139   */\n      tag_315\n        /* \"#utility.yul\":9133:9138   */\n      dup3\n        /* \"#utility.yul\":9113:9139   */\n      tag_177\n      jump\t// in\n    tag_315:\n        /* \"#utility.yul\":9102:9139   */\n      swap1\n      pop\n        /* \"#utility.yul\":9045:9145   */\n      swap2\n      swap1\n      pop\n      jump\t// out\n        /* \"#utility.yul\":9151:9308   */\n    tag_179:\n        /* \"#utility.yul\":9256:9301   */\n      tag_317\n        /* \"#utility.yul\":9276:9300   */\n      tag_318\n        /* \"#utility.yul\":9294:9299   */\n      dup3\n        /* \"#utility.yul\":9276:9300   */\n      tag_152\n      jump\t// in\n    tag_318:\n        /* \"#utility.yul\":9256:9301   */\n      tag_178\n      jump\t// in\n    tag_317:\n        /* \"#utility.yul\":9251:9254   */\n      dup3\n        /* \"#utility.yul\":9244:9302   */\n      mstore\n        /* \"#utility.yul\":9151:9308   */\n      pop\n      pop\n      jump\t// out\n        /* \"#utility.yul\":9314:9393   */\n    tag_180:\n        /* \"#utility.yul\":9353:9360   */\n      0x00\n        /* \"#utility.yul\":9382:9387   */\n      dup2\n        /* \"#utility.yul\":9371:9387   */\n      swap1\n      pop\n        /* \"#utility.yul\":9314:9393   */\n      swap2\n      swap1\n      pop\n      jump\t// out\n        /* \"#utility.yul\":9399:9556   */\n    tag_181:\n        /* \"#utility.yul\":9504:9549   */\n      tag_321\n        /* \"#utility.yul\":9524:9548   */\n      tag_322\n        /* \"#utility.yul\":9542:9547   */\n      dup3\n        /* \"#utility.yul\":9524:9548   */\n      tag_148\n      jump\t// in\n    tag_322:\n        /* \"#utility.yul\":9504:9549   */\n      tag_180\n      jump\t// in\n    tag_321:\n        /* \"#utility.yul\":9499:9502   */\n      dup3\n        /* \"#utility.yul\":9492:9550   */\n      mstore\n        /* \"#utility.yul\":9399:9556   */\n      pop\n      pop\n      jump\t// out\n        /* \"#utility.yul\":9562:10100   */\n    tag_42:\n        /* \"#utility.yul\":9730:9733   */\n      0x00\n        /* \"#utility.yul\":9745:9820   */\n      tag_324\n        /* \"#utility.yul\":9816:9819   */\n      dup3\n        /* \"#utility.yul\":9807:9813   */\n      dup7\n        /* \"#utility.yul\":9745:9820   */\n      tag_179\n      jump\t// in\n    tag_324:\n        /* \"#utility.yul\":9845:9847   */\n      0x14\n        /* \"#utility.yul\":9840:9843   */\n      dup3\n        /* \"#utility.yul\":9836:9848   */\n      add\n        /* \"#utility.yul\":9829:9848   */\n      swap2\n      pop\n        /* \"#utility.yul\":9858:9933   */\n      tag_325\n        /* \"#utility.yul\":9929:9932   */\n      dup3\n        /* \"#utility.yul\":9920:9926   */\n      dup6\n        /* \"#utility.yul\":9858:9933   */\n      tag_181\n      jump\t// in\n    tag_325:\n        /* \"#utility.yul\":9958:9960   */\n      0x20\n        /* \"#utility.yul\":9953:9956   */\n      dup3\n        /* \"#utility.yul\":9949:9961   */\n      add\n        /* \"#utility.yul\":9942:9961   */\n      swap2\n      pop\n        /* \"#utility.yul\":9971:10046   */\n      tag_326\n        /* \"#utility.yul\":10042:10045   */\n      dup3\n        /* \"#utility.yul\":10033:10039   */\n      dup5\n        /* \"#utility.yul\":9971:10046   */\n      tag_181\n      jump\t// in\n    tag_326:\n        /* \"#utility.yul\":10071:10073   */\n      0x20\n        /* \"#utility.yul\":10066:10069   */\n      dup3\n        /* \"#utility.yul\":10062:10074   */\n      add\n        /* \"#utility.yul\":10055:10074   */\n      swap2\n      pop\n        /* \"#utility.yul\":10091:10094   */\n      dup2\n        /* \"#utility.yul\":10084:10094   */\n      swap1\n      pop\n        /* \"#utility.yul\":9562:10100   */\n      swap5\n      swap4\n      pop\n      pop\n      pop\n      pop\n      jump\t// out\n        /* \"#utility.yul\":10106:10275   */\n    tag_182:\n        /* \"#utility.yul\":10190:10201   */\n      0x00\n        /* \"#utility.yul\":10224:10230   */\n      dup3\n        /* \"#utility.yul\":10219:10222   */\n      dup3\n        /* \"#utility.yul\":10212:10231   */\n      mstore\n        /* \"#utility.yul\":10264:10268   */\n      0x20\n        /* \"#utility.yul\":10259:10262   */\n      dup3\n        /* \"#utility.yul\":10255:10269   */\n      add\n        /* \"#utility.yul\":10240:10269   */\n      swap1\n      pop\n        /* \"#utility.yul\":10106:10275   */\n      swap3\n      swap2\n      pop\n      pop\n      jump\t// out\n        /* \"#utility.yul\":10281:10442   */\n    tag_183:\n        /* \"#utility.yul\":10421:10434   */\n      0x696e76616c696420736967000000000000000000000000000000000000000000\n        /* \"#utility.yul\":10417:10418   */\n      0x00\n        /* \"#utility.yul\":10409:10415   */\n      dup3\n        /* \"#utility.yul\":10405:10419   */\n      add\n        /* \"#utility.yul\":10398:10435   */\n      mstore\n        /* \"#utility.yul\":10281:10442   */\n      pop\n      jump\t// out\n        /* \"#utility.yul\":10448:10814   */\n    tag_184:\n        /* \"#utility.yul\":10590:10593   */\n      0x00\n        /* \"#utility.yul\":10611:10678   */\n      tag_330\n        /* \"#utility.yul\":10675:10677   */\n      0x0b\n        /* \"#utility.yul\":10670:10673   */\n      dup4\n        /* \"#utility.yul\":10611:10678   */\n      tag_182\n      jump\t// in\n    tag_330:\n        /* \"#utility.yul\":10604:10678   */\n      swap2\n      pop\n        /* \"#utility.yul\":10687:10780   */\n      tag_331\n        /* \"#utility.yul\":10776:10779   */\n      dup3\n        /* \"#utility.yul\":10687:10780   */\n      tag_183\n      jump\t// in\n    tag_331:\n        /* \"#utility.yul\":10805:10807   */\n      0x20\n        /* \"#utility.yul\":10800:10803   */\n      dup3\n        /* \"#utility.yul\":10796:10808   */\n      add\n        /* \"#utility.yul\":10789:10808   */\n      swap1\n      pop\n        /* \"#utility.yul\":10448:10814   */\n      swap2\n      swap1\n      pop\n      jump\t// out\n        /* \"#utility.yul\":10820:11239   */\n    tag_49:\n        /* \"#utility.yul\":10986:10990   */\n      0x00\n        /* \"#utility.yul\":11024:11026   */\n      0x20\n        /* \"#utility.yul\":11013:11022   */\n      dup3\n        /* \"#utility.yul\":11009:11027   */\n      add\n        /* \"#utility.yul\":11001:11027   */\n      swap1\n      pop\n        /* \"#utility.yul\":11073:11082   */\n      dup2\n        /* \"#utility.yul\":11067:11071   */\n      dup2\n        /* \"#utility.yul\":11063:11083   */\n      sub\n        /* \"#utility.yul\":11059:11060   */\n      0x00\n        /* \"#utility.yul\":11048:11057   */\n      dup4\n        /* \"#utility.yul\":11044:11061   */\n      add\n        /* \"#utility.yul\":11037:11084   */\n      mstore\n        /* \"#utility.yul\":11101:11232   */\n      tag_333\n        /* \"#utility.yul\":11227:11231   */\n      dup2\n        /* \"#utility.yul\":11101:11232   */\n      tag_184\n      jump\t// in\n    tag_333:\n        /* \"#utility.yul\":11093:11232   */\n      swap1\n      pop\n        /* \"#utility.yul\":10820:11239   */\n      swap2\n      swap1\n      pop\n      jump\t// out\n        /* \"#utility.yul\":11245:11392   */\n    tag_185:\n        /* \"#utility.yul\":11346:11357   */\n      0x00\n        /* \"#utility.yul\":11383:11386   */\n      dup2\n        /* \"#utility.yul\":11368:11386   */\n      swap1\n      pop\n        /* \"#utility.yul\":11245:11392   */\n      swap3\n      swap2\n      pop\n      pop\n      jump\t// out\n        /* \"#utility.yul\":11398:11512   */\n    tag_186:\n      pop\n      jump\t// out\n        /* \"#utility.yul\":11518:11916   */\n    tag_187:\n        /* \"#utility.yul\":11677:11680   */\n      0x00\n        /* \"#utility.yul\":11698:11781   */\n      tag_337\n        /* \"#utility.yul\":11779:11780   */\n      0x00\n        /* \"#utility.yul\":11774:11777   */\n      dup4\n        /* \"#utility.yul\":11698:11781   */\n      tag_185\n      jump\t// in\n    tag_337:\n        /* \"#utility.yul\":11691:11781   */\n      swap2\n      pop\n        /* \"#utility.yul\":11790:11883   */\n      tag_338\n        /* \"#utility.yul\":11879:11882   */\n      dup3\n        /* \"#utility.yul\":11790:11883   */\n      tag_186\n      jump\t// in\n    tag_338:\n        /* \"#utility.yul\":11908:11909   */\n      0x00\n        /* \"#utility.yul\":11903:11906   */\n      dup3\n        /* \"#utility.yul\":11899:11910   */\n      add\n        /* \"#utility.yul\":11892:11910   */\n      swap1\n      pop\n        /* \"#utility.yul\":11518:11916   */\n      swap2\n      swap1\n      pop\n      jump\t// out\n        /* \"#utility.yul\":11922:12301   */\n    tag_51:\n        /* \"#utility.yul\":12106:12109   */\n      0x00\n        /* \"#utility.yul\":12128:12275   */\n      tag_340\n        /* \"#utility.yul\":12271:12274   */\n      dup3\n        /* \"#utility.yul\":12128:12275   */\n      tag_187\n      jump\t// in\n    tag_340:\n        /* \"#utility.yul\":12121:12275   */\n      swap2\n      pop\n        /* \"#utility.yul\":12292:12295   */\n      dup2\n        /* \"#utility.yul\":12285:12295   */\n      swap1\n      pop\n        /* \"#utility.yul\":11922:12301   */\n      swap2\n      swap1\n      pop\n      jump\t// out\n        /* \"#utility.yul\":12307:12477   */\n    tag_188:\n        /* \"#utility.yul\":12447:12469   */\n      0x4661696c656420746f2073656e64204574686572000000000000000000000000\n        /* \"#utility.yul\":12443:12444   */\n      0x00\n        /* \"#utility.yul\":12435:12441   */\n      dup3\n        /* \"#utility.yul\":12431:12445   */\n      add\n        /* \"#utility.yul\":12424:12470   */\n      mstore\n        /* \"#utility.yul\":12307:12477   */\n      pop\n      jump\t// out\n        /* \"#utility.yul\":12483:12849   */\n    tag_189:\n        /* \"#utility.yul\":12625:12628   */\n      0x00\n        /* \"#utility.yul\":12646:12713   */\n      tag_343\n        /* \"#utility.yul\":12710:12712   */\n      0x14\n        /* \"#utility.yul\":12705:12708   */\n      dup4\n        /* \"#utility.yul\":12646:12713   */\n      tag_182\n      jump\t// in\n    tag_343:\n        /* \"#utility.yul\":12639:12713   */\n      swap2\n      pop\n        /* \"#utility.yul\":12722:12815   */\n      tag_344\n        /* \"#utility.yul\":12811:12814   */\n      dup3\n        /* \"#utility.yul\":12722:12815   */\n      tag_188\n      jump\t// in\n    tag_344:\n        /* \"#utility.yul\":12840:12842   */\n      0x20\n        /* \"#utility.yul\":12835:12838   */\n      dup3\n        /* \"#utility.yul\":12831:12843   */\n      add\n        /* \"#utility.yul\":12824:12843   */\n      swap1\n      pop\n        /* \"#utility.yul\":12483:12849   */\n      swap2\n      swap1\n      pop\n      jump\t// out\n        /* \"#utility.yul\":12855:13274   */\n    tag_57:\n        /* \"#utility.yul\":13021:13025   */\n      0x00\n        /* \"#utility.yul\":13059:13061   */\n      0x20\n        /* \"#utility.yul\":13048:13057   */\n      dup3\n        /* \"#utility.yul\":13044:13062   */\n      add\n        /* \"#utility.yul\":13036:13062   */\n      swap1\n      pop\n        /* \"#utility.yul\":13108:13117   */\n      dup2\n        /* \"#utility.yul\":13102:13106   */\n      dup2\n        /* \"#utility.yul\":13098:13118   */\n      sub\n        /* \"#utility.yul\":13094:13095   */\n      0x00\n        /* \"#utility.yul\":13083:13092   */\n      dup4\n        /* \"#utility.yul\":13079:13096   */\n      add\n        /* \"#utility.yul\":13072:13119   */\n      mstore\n        /* \"#utility.yul\":13136:13267   */\n      tag_346\n        /* \"#utility.yul\":13262:13266   */\n      dup2\n        /* \"#utility.yul\":13136:13267   */\n      tag_189\n      jump\t// in\n    tag_346:\n        /* \"#utility.yul\":13128:13267   */\n      swap1\n      pop\n        /* \"#utility.yul\":12855:13274   */\n      swap2\n      swap1\n      pop\n      jump\t// out\n        /* \"#utility.yul\":13280:13460   */\n    tag_68:\n        /* \"#utility.yul\":13328:13405   */\n      0x4e487b7100000000000000000000000000000000000000000000000000000000\n        /* \"#utility.yul\":13325:13326   */\n      0x00\n        /* \"#utility.yul\":13318:13406   */\n      mstore\n        /* \"#utility.yul\":13425:13429   */\n      0x32\n        /* \"#utility.yul\":13422:13423   */\n      0x04\n        /* \"#utility.yul\":13415:13430   */\n      mstore\n        /* \"#utility.yul\":13449:13453   */\n      0x24\n        /* \"#utility.yul\":13446:13447   */\n      0x00\n        /* \"#utility.yul\":13439:13454   */\n      revert\n        /* \"#utility.yul\":13466:13646   */\n    tag_190:\n        /* \"#utility.yul\":13514:13591   */\n      0x4e487b7100000000000000000000000000000000000000000000000000000000\n        /* \"#utility.yul\":13511:13512   */\n      0x00\n        /* \"#utility.yul\":13504:13592   */\n      mstore\n        /* \"#utility.yul\":13611:13615   */\n      0x11\n        /* \"#utility.yul\":13608:13609   */\n      0x04\n        /* \"#utility.yul\":13601:13616   */\n      mstore\n        /* \"#utility.yul\":13635:13639   */\n      0x24\n        /* \"#utility.yul\":13632:13633   */\n      0x00\n        /* \"#utility.yul\":13625:13640   */\n      revert\n        /* \"#utility.yul\":13652:13885   */\n    tag_75:\n        /* \"#utility.yul\":13691:13694   */\n      0x00\n        /* \"#utility.yul\":13714:13738   */\n      tag_350\n        /* \"#utility.yul\":13732:13737   */\n      dup3\n        /* \"#utility.yul\":13714:13738   */\n      tag_148\n      jump\t// in\n    tag_350:\n        /* \"#utility.yul\":13705:13738   */\n      swap2\n      pop\n        /* \"#utility.yul\":13760:13826   */\n      0xffffffffffffffffffffffffffffffffffffffffffffffffffffffffffffffff\n        /* \"#utility.yul\":13753:13758   */\n      dup3\n        /* \"#utility.yul\":13750:13827   */\n      sub\n        /* \"#utility.yul\":13747:13850   */\n      tag_351\n      jumpi\n        /* \"#utility.yul\":13830:13848   */\n      tag_352\n      tag_190\n      jump\t// in\n    tag_352:\n        /* \"#utility.yul\":13747:13850   */\n    tag_351:\n        /* \"#utility.yul\":13877:13878   */\n      0x01\n        /* \"#utility.yul\":13870:13875   */\n      dup3\n        /* \"#utility.yul\":13866:13879   */\n      add\n        /* \"#utility.yul\":13859:13879   */\n      swap1\n      pop\n        /* \"#utility.yul\":13652:13885   */\n      swap2\n      swap1\n      pop\n      jump\t// out\n        /* \"#utility.yul\":13891:14039   */\n    tag_191:\n        /* \"#utility.yul\":13993:14004   */\n      0x00\n        /* \"#utility.yul\":14030:14033   */\n      dup2\n        /* \"#utility.yul\":14015:14033   */\n      swap1\n      pop\n        /* \"#utility.yul\":13891:14039   */\n      swap3\n      swap2\n      pop\n      pop\n      jump\t// out\n        /* \"#utility.yul\":14045:14259   */\n    tag_192:\n        /* \"#utility.yul\":14185:14251   */\n      0x19457468657265756d205369676e6564204d6573736167653a0a333200000000\n        /* \"#utility.yul\":14181:14182   */\n      0x00\n        /* \"#utility.yul\":14173:14179   */\n      dup3\n        /* \"#utility.yul\":14169:14183   */\n      add\n        /* \"#utility.yul\":14162:14252   */\n      mstore\n        /* \"#utility.yul\":14045:14259   */\n      pop\n      jump\t// out\n        /* \"#utility.yul\":14265:14667   */\n    tag_193:\n        /* \"#utility.yul\":14425:14428   */\n      0x00\n        /* \"#utility.yul\":14446:14531   */\n      tag_356\n        /* \"#utility.yul\":14528:14530   */\n      0x1c\n        /* \"#utility.yul\":14523:14526   */\n      dup4\n        /* \"#utility.yul\":14446:14531   */\n      tag_191\n      jump\t// in\n    tag_356:\n        /* \"#utility.yul\":14439:14531   */\n      swap2\n      pop\n        /* \"#utility.yul\":14540:14633   */\n      tag_357\n        /* \"#utility.yul\":14629:14632   */\n      dup3\n        /* \"#utility.yul\":14540:14633   */\n      tag_192\n      jump\t// in\n    tag_357:\n        /* \"#utility.yul\":14658:14660   */\n      0x1c\n        /* \"#utility.yul\":14653:14656   */\n      dup3\n        /* \"#utility.yul\":14649:14661   */\n      add\n        /* \"#utility.yul\":14642:14661   */\n      swap1\n      pop\n        /* \"#utility.yul\":14265:14667   */\n      swap2\n      swap1\n      pop\n      jump\t// out\n        /* \"#utility.yul\":14673:14752   */\n    tag_194:\n        /* \"#utility.yul\":14712:14719   */\n      0x00\n        /* \"#utility.yul\":14741:14746   */\n      dup2\n        /* \"#utility.yul\":14730:14746   */\n      swap1\n      pop\n        /* \"#utility.yul\":14673:14752   */\n      swap2\n      swap1\n      pop\n      jump\t// out\n        /* \"#utility.yul\":14758:14915   */\n    tag_195:\n        /* \"#utility.yul\":14863:14908   */\n      tag_360\n        /* \"#utility.yul\":14883:14907   */\n      tag_361\n        /* \"#utility.yul\":14901:14906   */\n      dup3\n        /* \"#utility.yul\":14883:14907   */\n      tag_156\n      jump\t// in\n    tag_361:\n        /* \"#utility.yul\":14863:14908   */\n      tag_194\n      jump\t// in\n    tag_360:\n        /* \"#utility.yul\":14858:14861   */\n      dup3\n        /* \"#utility.yul\":14851:14909   */\n      mstore\n        /* \"#utility.yul\":14758:14915   */\n      pop\n      pop\n      jump\t// out\n        /* \"#utility.yul\":14921:15443   */\n    tag_78:\n        /* \"#utility.yul\":15134:15137   */\n      0x00\n        /* \"#utility.yul\":15156:15304   */\n      tag_363\n        /* \"#utility.yul\":15300:15303   */\n      dup3\n        /* \"#utility.yul\":15156:15304   */\n      tag_193\n      jump\t// in\n    tag_363:\n        /* \"#utility.yul\":15149:15304   */\n      swap2\n      pop\n        /* \"#utility.yul\":15314:15389   */\n      tag_364\n        /* \"#utility.yul\":15385:15388   */\n      dup3\n        /* \"#utility.yul\":15376:15382   */\n      dup5\n        /* \"#utility.yul\":15314:15389   */\n      tag_195\n      jump\t// in\n    tag_364:\n        /* \"#utility.yul\":15414:15416   */\n      0x20\n        /* \"#utility.yul\":15409:15412   */\n      dup3\n        /* \"#utility.yul\":15405:15417   */\n      add\n        /* \"#utility.yul\":15398:15417   */\n      swap2\n      pop\n        /* \"#utility.yul\":15434:15437   */\n      dup2\n        /* \"#utility.yul\":15427:15437   */\n      swap1\n      pop\n        /* \"#utility.yul\":14921:15443   */\n      swap3\n      swap2\n      pop\n      pop\n      jump\t// out\n        /* \"#utility.yul\":15449:15629   */\n    tag_96:\n        /* \"#utility.yul\":15497:15574   */\n      0x4e487b7100000000000000000000000000000000000000000000000000000000\n        /* \"#utility.yul\":15494:15495   */\n      0x00\n        /* \"#utility.yul\":15487:15575   */\n      mstore\n        /* \"#utility.yul\":15594:15598   */\n      0x21\n        /* \"#utility.yul\":15591:15592   */\n      0x04\n        /* \"#utility.yul\":15584:15599   */\n      mstore\n        /* \"#utility.yul\":15618:15622   */\n      0x24\n        /* \"#utility.yul\":15615:15616   */\n      0x00\n        /* \"#utility.yul\":15608:15623   */\n      revert\n        /* \"#utility.yul\":15635:15809   */\n    tag_196:\n        /* \"#utility.yul\":15775:15801   */\n      0x45434453413a20696e76616c6964207369676e61747572650000000000000000\n        /* \"#utility.yul\":15771:15772   */\n      0x00\n        /* \"#utility.yul\":15763:15769   */\n      dup3\n        /* \"#utility.yul\":15759:15773   */\n      add\n        /* \"#utility.yul\":15752:15802   */\n      mstore\n        /* \"#utility.yul\":15635:15809   */\n      pop\n      jump\t// out\n        /* \"#utility.yul\":15815:16181   */\n    tag_197:\n        /* \"#utility.yul\":15957:15960   */\n      0x00\n        /* \"#utility.yul\":15978:16045   */\n      tag_368\n        /* \"#utility.yul\":16042:16044   */\n      0x18\n        /* \"#utility.yul\":16037:16040   */\n      dup4\n        /* \"#utility.yul\":15978:16045   */\n      tag_182\n      jump\t// in\n    tag_368:\n        /* \"#utility.yul\":15971:16045   */\n      swap2\n      pop\n        /* \"#utility.yul\":16054:16147   */\n      tag_369\n        /* \"#utility.yul\":16143:16146   */\n      dup3\n        /* \"#utility.yul\":16054:16147   */\n      tag_196\n      jump\t// in\n    tag_369:\n        /* \"#utility.yul\":16172:16174   */\n      0x20\n        /* \"#utility.yul\":16167:16170   */\n      dup3\n        /* \"#utility.yul\":16163:16175   */\n      add\n        /* \"#utility.yul\":16156:16175   */\n      swap1\n      pop\n        /* \"#utility.yul\":15815:16181   */\n      swap2\n      swap1\n      pop\n      jump\t// out\n        /* \"#utility.yul\":16187:16606   */\n    tag_107:\n        /* \"#utility.yul\":16353:16357   */\n      0x00\n        /* \"#utility.yul\":16391:16393   */\n      0x20\n        /* \"#utility.yul\":16380:16389   */\n      dup3\n        /* \"#utility.yul\":16376:16394   */\n      add\n        /* \"#utility.yul\":16368:16394   */\n      swap1\n      pop\n        /* \"#utility.yul\":16440:16449   */\n      dup2\n        /* \"#utility.yul\":16434:16438   */\n      dup2\n        /* \"#utility.yul\":16430:16450   */\n      sub\n        /* \"#utility.yul\":16426:16427   */\n      0x00\n        /* \"#utility.yul\":16415:16424   */\n      dup4\n        /* \"#utility.yul\":16411:16428   */\n      add\n        /* \"#utility.yul\":16404:16451   */\n      mstore\n        /* \"#utility.yul\":16468:16599   */\n      tag_371\n        /* \"#utility.yul\":16594:16598   */\n      dup2\n        /* \"#utility.yul\":16468:16599   */\n      tag_197\n      jump\t// in\n    tag_371:\n        /* \"#utility.yul\":16460:16599   */\n      swap1\n      pop\n        /* \"#utility.yul\":16187:16606   */\n      swap2\n      swap1\n      pop\n      jump\t// out\n        /* \"#utility.yul\":16612:16793   */\n    tag_198:\n        /* \"#utility.yul\":16752:16785   */\n      0x45434453413a20696e76616c6964207369676e6174757265206c656e67746800\n        /* \"#utility.yul\":16748:16749   */\n      0x00\n        /* \"#utility.yul\":16740:16746   */\n      dup3\n        /* \"#utility.yul\":16736:16750   */\n      add\n        /* \"#utility.yul\":16729:16786   */\n      mstore\n        /* \"#utility.yul\":16612:16793   */\n      pop\n      jump\t// out\n        /* \"#utility.yul\":16799:17165   */\n    tag_199:\n        /* \"#utility.yul\":16941:16944   */\n      0x00\n        /* \"#utility.yul\":16962:17029   */\n      tag_374\n        /* \"#utility.yul\":17026:17028   */\n      0x1f\n        /* \"#utility.yul\":17021:17024   */\n      dup4\n        /* \"#utility.yul\":16962:17029   */\n      tag_182\n      jump\t// in\n    tag_374:\n        /* \"#utility.yul\":16955:17029   */\n      swap2\n      pop\n        /* \"#utility.yul\":17038:17131   */\n      tag_375\n        /* \"#utility.yul\":17127:17130   */\n      dup3\n        /* \"#utility.yul\":17038:17131   */\n      tag_198\n      jump\t// in\n    tag_375:\n        /* \"#utility.yul\":17156:17158   */\n      0x20\n        /* \"#utility.yul\":17151:17154   */\n      dup3\n        /* \"#utility.yul\":17147:17159   */\n      add\n        /* \"#utility.yul\":17140:17159   */\n      swap1\n      pop\n        /* \"#utility.yul\":16799:17165   */\n      swap2\n      swap1\n      pop\n      jump\t// out\n        /* \"#utility.yul\":17171:17590   */\n    tag_115:\n        /* \"#utility.yul\":17337:17341   */\n      0x00\n        /* \"#utility.yul\":17375:17377   */\n      0x20\n        /* \"#utility.yul\":17364:17373   */\n      dup3\n        /* \"#utility.yul\":17360:17378   */\n      add\n        /* \"#utility.yul\":17352:17378   */\n      swap1\n      pop\n        /* \"#utility.yul\":17424:17433   */\n      dup2\n        /* \"#utility.yul\":17418:17422   */\n      dup2\n        /* \"#utility.yul\":17414:17434   */\n      sub\n        /* \"#utility.yul\":17410:17411   */\n      0x00\n        /* \"#utility.yul\":17399:17408   */\n      dup4\n        /* \"#utility.yul\":17395:17412   */\n      add\n        /* \"#utility.yul\":17388:17435   */\n      mstore\n        /* \"#utility.yul\":17452:17583   */\n      tag_377\n        /* \"#utility.yul\":17578:17582   */\n      dup2\n        /* \"#utility.yul\":17452:17583   */\n      tag_199\n      jump\t// in\n    tag_377:\n        /* \"#utility.yul\":17444:17583   */\n      swap1\n      pop\n        /* \"#utility.yul\":17171:17590   */\n      swap2\n      swap1\n      pop\n      jump\t// out\n        /* \"#utility.yul\":17596:17817   */\n    tag_200:\n        /* \"#utility.yul\":17736:17770   */\n      0x45434453413a20696e76616c6964207369676e6174757265202773272076616c\n        /* \"#utility.yul\":17732:17733   */\n      0x00\n        /* \"#utility.yul\":17724:17730   */\n      dup3\n        /* \"#utility.yul\":17720:17734   */\n      add\n        /* \"#utility.yul\":17713:17771   */\n      mstore\n        /* \"#utility.yul\":17805:17809   */\n      0x7565000000000000000000000000000000000000000000000000000000000000\n        /* \"#utility.yul\":17800:17802   */\n      0x20\n        /* \"#utility.yul\":17792:17798   */\n      dup3\n        /* \"#utility.yul\":17788:17803   */\n      add\n        /* \"#utility.yul\":17781:17810   */\n      mstore\n        /* \"#utility.yul\":17596:17817   */\n      pop\n      jump\t// out\n        /* \"#utility.yul\":17823:18189   */\n    tag_201:\n        /* \"#utility.yul\":17965:17968   */\n      0x00\n        /* \"#utility.yul\":17986:18053   */\n      tag_380\n        /* \"#utility.yul\":18050:18052   */\n      0x22\n        /* \"#utility.yul\":18045:18048   */\n      dup4\n        /* \"#utility.yul\":17986:18053   */\n      tag_182\n      jump\t// in\n    tag_380:\n        /* \"#utility.yul\":17979:18053   */\n      swap2\n      pop\n        /* \"#utility.yul\":18062:18155   */\n      tag_381\n        /* \"#utility.yul\":18151:18154   */\n      dup3\n        /* \"#utility.yul\":18062:18155   */\n      tag_200\n      jump\t// in\n    tag_381:\n        /* \"#utility.yul\":18180:18182   */\n      0x40\n        /* \"#utility.yul\":18175:18178   */\n      dup3\n        /* \"#utility.yul\":18171:18183   */\n      add\n        /* \"#utility.yul\":18164:18183   */\n      swap1\n      pop\n        /* \"#utility.yul\":17823:18189   */\n      swap2\n      swap1\n      pop\n      jump\t// out\n        /* \"#utility.yul\":18195:18614   */\n    tag_123:\n        /* \"#utility.yul\":18361:18365   */\n      0x00\n        /* \"#utility.yul\":18399:18401   */\n      0x20\n        /* \"#utility.yul\":18388:18397   */\n      dup3\n        /* \"#utility.yul\":18384:18402   */\n      add\n        /* \"#utility.yul\":18376:18402   */\n      swap1\n      pop\n        /* \"#utility.yul\":18448:18457   */\n      dup2\n        /* \"#utility.yul\":18442:18446   */\n      dup2\n        /* \"#utility.yul\":18438:18458   */\n      sub\n        /* \"#utility.yul\":18434:18435   */\n      0x00\n        /* \"#utility.yul\":18423:18432   */\n      dup4\n        /* \"#utility.yul\":18419:18436   */\n      add\n        /* \"#utility.yul\":18412:18459   */\n      mstore\n        /* \"#utility.yul\":18476:18607   */\n      tag_383\n        /* \"#utility.yul\":18602:18606   */\n      dup2\n        /* \"#utility.yul\":18476:18607   */\n      tag_201\n      jump\t// in\n    tag_383:\n        /* \"#utility.yul\":18468:18607   */\n      swap1\n      pop\n        /* \"#utility.yul\":18195:18614   */\n      swap2\n      swap1\n      pop\n      jump\t// out\n        /* \"#utility.yul\":18620:18841   */\n    tag_202:\n        /* \"#utility.yul\":18760:18794   */\n      0x45434453413a20696e76616c6964207369676e6174757265202776272076616c\n        /* \"#utility.yul\":18756:18757   */\n      0x00\n        /* \"#utility.yul\":18748:18754   */\n      dup3\n        /* \"#utility.yul\":18744:18758   */\n      add\n        /* \"#utility.yul\":18737:18795   */\n      mstore\n        /* \"#utility.yul\":18829:18833   */\n      0x7565000000000000000000000000000000000000000000000000000000000000\n        /* \"#utility.yul\":18824:18826   */\n      0x20\n        /* \"#utility.yul\":18816:18822   */\n      dup3\n        /* \"#utility.yul\":18812:18827   */\n      add\n        /* \"#utility.yul\":18805:18834   */\n      mstore\n        /* \"#utility.yul\":18620:18841   */\n      pop\n      jump\t// out\n        /* \"#utility.yul\":18847:19213   */\n    tag_203:\n        /* \"#utility.yul\":18989:18992   */\n      0x00\n        /* \"#utility.yul\":19010:19077   */\n      tag_386\n        /* \"#utility.yul\":19074:19076   */\n      0x22\n        /* \"#utility.yul\":19069:19072   */\n      dup4\n        /* \"#utility.yul\":19010:19077   */\n      tag_182\n      jump\t// in\n    tag_386:\n        /* \"#utility.yul\":19003:19077   */\n      swap2\n      pop\n        /* \"#utility.yul\":19086:19179   */\n      tag_387\n        /* \"#utility.yul\":19175:19178   */\n      dup3\n        /* \"#utility.yul\":19086:19179   */\n      tag_202\n      jump\t// in\n    tag_387:\n        /* \"#utility.yul\":19204:19206   */\n      0x40\n        /* \"#utility.yul\":19199:19202   */\n      dup3\n        /* \"#utility.yul\":19195:19207   */\n      add\n        /* \"#utility.yul\":19188:19207   */\n      swap1\n      pop\n        /* \"#utility.yul\":18847:19213   */\n      swap2\n      swap1\n      pop\n      jump\t// out\n        /* \"#utility.yul\":19219:19638   */\n    tag_131:\n        /* \"#utility.yul\":19385:19389   */\n      0x00\n        /* \"#utility.yul\":19423:19425   */\n      0x20\n        /* \"#utility.yul\":19412:19421   */\n      dup3\n        /* \"#utility.yul\":19408:19426   */\n      add\n        /* \"#utility.yul\":19400:19426   */\n      swap1\n      pop\n        /* \"#utility.yul\":19472:19481   */\n      dup2\n        /* \"#utility.yul\":19466:19470   */\n      dup2\n        /* \"#utility.yul\":19462:19482   */\n      sub\n        /* \"#utility.yul\":19458:19459   */\n      0x00\n        /* \"#utility.yul\":19447:19456   */\n      dup4\n        /* \"#utility.yul\":19443:19460   */\n      add\n        /* \"#utility.yul\":19436:19483   */\n      mstore\n        /* \"#utility.yul\":19500:19631   */\n      tag_389\n        /* \"#utility.yul\":19626:19630   */\n      dup2\n        /* \"#utility.yul\":19500:19631   */\n      tag_203\n      jump\t// in\n    tag_389:\n        /* \"#utility.yul\":19492:19631   */\n      swap1\n      pop\n        /* \"#utility.yul\":19219:19638   */\n      swap2\n      swap1\n      pop\n      jump\t// out\n        /* \"#utility.yul\":19644:19730   */\n    tag_204:\n        /* \"#utility.yul\":19679:19686   */\n      0x00\n        /* \"#utility.yul\":19719:19723   */\n      0xff\n        /* \"#utility.yul\":19712:19717   */\n      dup3\n        /* \"#utility.yul\":19708:19724   */\n      and\n        /* \"#utility.yul\":19697:19724   */\n      swap1\n      pop\n        /* \"#utility.yul\":19644:19730   */\n      swap2\n      swap1\n      pop\n      jump\t// out\n        /* \"#utility.yul\":19736:19848   */\n    tag_205:\n        /* \"#utility.yul\":19819:19841   */\n      tag_392\n        /* \"#utility.yul\":19835:19840   */\n      dup2\n        /* \"#utility.yul\":19819:19841   */\n      tag_204\n      jump\t// in\n    tag_392:\n        /* \"#utility.yul\":19814:19817   */\n      dup3\n        /* \"#utility.yul\":19807:19842   */\n      mstore\n        /* \"#utility.yul\":19736:19848   */\n      pop\n      pop\n      jump\t// out\n        /* \"#utility.yul\":19854:20399   */\n    tag_137:\n        /* \"#utility.yul\":20027:20031   */\n      0x00\n        /* \"#utility.yul\":20065:20068   */\n      0x80\n        /* \"#utility.yul\":20054:20063   */\n      dup3\n        /* \"#utility.yul\":20050:20069   */\n      add\n        /* \"#utility.yul\":20042:20069   */\n      swap1\n      pop\n        /* \"#utility.yul\":20079:20150   */\n      tag_394\n        /* \"#utility.yul\":20147:20148   */\n      0x00\n        /* \"#utility.yul\":20136:20145   */\n      dup4\n        /* \"#utility.yul\":20132:20149   */\n      add\n        /* \"#utility.yul\":20123:20129   */\n      dup8\n        /* \"#utility.yul\":20079:20150   */\n      tag_157\n      jump\t// in\n    tag_394:\n        /* \"#utility.yul\":20160:20228   */\n      tag_395\n        /* \"#utility.yul\":20224:20226   */\n      0x20\n        /* \"#utility.yul\":20213:20222   */\n      dup4\n        /* \"#utility.yul\":20209:20227   */\n      add\n        /* \"#utility.yul\":20200:20206   */\n      dup7\n        /* \"#utility.yul\":20160:20228   */\n      tag_205\n      jump\t// in\n    tag_395:\n        /* \"#utility.yul\":20238:20310   */\n      tag_396\n        /* \"#utility.yul\":20306:20308   */\n      0x40\n        /* \"#utility.yul\":20295:20304   */\n      dup4\n        /* \"#utility.yul\":20291:20309   */\n      add\n        /* \"#utility.yul\":20282:20288   */\n      dup6\n        /* \"#utility.yul\":20238:20310   */\n      tag_157\n      jump\t// in\n    tag_396:\n        /* \"#utility.yul\":20320:20392   */\n      tag_397\n        /* \"#utility.yul\":20388:20390   */\n      0x60\n        /* \"#utility.yul\":20377:20386   */\n      dup4\n        /* \"#utility.yul\":20373:20391   */\n      add\n        /* \"#utility.yul\":20364:20370   */\n      dup5\n        /* \"#utility.yul\":20320:20392   */\n      tag_157\n      jump\t// in\n    tag_397:\n        /* \"#utility.yul\":19854:20399   */\n      swap6\n      swap5\n      pop\n      pop\n      pop\n      pop\n      pop\n      jump\t// out\n        /* \"#utility.yul\":20405:20710   */\n    tag_143:\n        /* \"#utility.yul\":20445:20448   */\n      0x00\n        /* \"#utility.yul\":20464:20484   */\n      tag_399\n        /* \"#utility.yul\":20482:20483   */\n      dup3\n        /* \"#utility.yul\":20464:20484   */\n      tag_148\n      jump\t// in\n    tag_399:\n        /* \"#utility.yul\":20459:20484   */\n      swap2\n      pop\n        /* \"#utility.yul\":20498:20518   */\n      tag_400\n        /* \"#utility.yul\":20516:20517   */\n      dup4\n        /* \"#utility.yul\":20498:20518   */\n      tag_148\n      jump\t// in\n    tag_400:\n        /* \"#utility.yul\":20493:20518   */\n      swap3\n      pop\n        /* \"#utility.yul\":20652:20653   */\n      dup3\n        /* \"#utility.yul\":20584:20650   */\n      0xffffffffffffffffffffffffffffffffffffffffffffffffffffffffffffffff\n        /* \"#utility.yul\":20580:20654   */\n      sub\n        /* \"#utility.yul\":20577:20578   */\n      dup3\n        /* \"#utility.yul\":20574:20655   */\n      gt\n        /* \"#utility.yul\":20571:20678   */\n      iszero\n      tag_401\n      jumpi\n        /* \"#utility.yul\":20658:20676   */\n      tag_402\n      tag_190\n      jump\t// in\n    tag_402:\n        /* \"#utility.yul\":20571:20678   */\n    tag_401:\n        /* \"#utility.yul\":20702:20703   */\n      dup3\n        /* \"#utility.yul\":20699:20700   */\n      dup3\n        /* \"#utility.yul\":20695:20704   */\n      add\n        /* \"#utility.yul\":20688:20704   */\n      swap1\n      pop\n        /* \"#utility.yul\":20405:20710   */\n      swap3\n      swap2\n      pop\n      pop\n      jump\t// out\n\n    auxdata: 0xa26469706673582212205dee342a25df73e53cea0c425dd9ccb414c4ea0468db841e167ab8d86d36a50364736f6c634300080f0033\n}\n",
				"bytecode": {
					"linkReferences": {},
					"object": "6080604052604051620015b1380380620015b18339818101604052810190620000299190620002bc565b8060009060026200003c92919062000044565b5050620002ee565b8260028101928215620000b3579160200282015b82811115620000b25782518260006101000a81548173ffffffffffffffffffffffffffffffffffffffff021916908373ffffffffffffffffffffffffffffffffffffffff1602179055509160200191906001019062000058565b5b509050620000c29190620000c6565b5090565b5b80821115620000e1576000816000905550600101620000c7565b5090565b6000604051905090565b600080fd5b600080fd5b6000601f19601f8301169050919050565b7f4e487b7100000000000000000000000000000000000000000000000000000000600052604160045260246000fd5b6200014482620000f9565b810181811067ffffffffffffffff821117156200016657620001656200010a565b5b80604052505050565b60006200017b620000e5565b905062000189828262000139565b919050565b600067ffffffffffffffff821115620001ac57620001ab6200010a565b5b602082029050919050565b600080fd5b600073ffffffffffffffffffffffffffffffffffffffff82169050919050565b6000620001e982620001bc565b9050919050565b620001fb81620001dc565b81146200020757600080fd5b50565b6000815190506200021b81620001f0565b92915050565b60006200023862000232846200018e565b6200016f565b90508060208402830185811115620002555762000254620001b7565b5b835b818110156200028257806200026d88826200020a565b84526020840193505060208101905062000257565b5050509392505050565b600082601f830112620002a457620002a3620000f4565b5b6002620002b384828562000221565b91505092915050565b600060408284031215620002d557620002d4620000ef565b5b6000620002e5848285016200028c565b91505092915050565b6112b380620002fe6000396000f3fe60806040526004361061004e5760003560e01c8063025e7c271461005a578063207fa7831461009757806378f16129146100d4578063a9fcfb33146100fd578063d0e30db01461013a57610055565b3661005557005b600080fd5b34801561006657600080fd5b50610081600480360381019061007c919061081a565b610144565b60405161008e9190610888565b60405180910390f35b3480156100a357600080fd5b506100be60048036038101906100b991906108cf565b61017a565b6040516100cb919061093b565b60405180910390f35b3480156100e057600080fd5b506100fb60048036038101906100f69190610b70565b6101b0565b005b34801561010957600080fd5b50610124600480360381019061011f9190610c1f565b6102bc565b6040516101319190610c67565b60405180910390f35b6101426102dc565b005b6000816002811061015457600080fd5b016000915054906101000a900473ffffffffffffffffffffffffffffffffffffffff1681565b600083838360405160200161019193929190610ceb565b6040516020818303038152906040528051906020012090509392505050565b60006101bd85858561017a565b90506101c982826102de565b610208576040517f08c379a00000000000000000000000000000000000000000000000000000000081526004016101ff90610d85565b60405180910390fd5b60008573ffffffffffffffffffffffffffffffffffffffff168560405161022e90610dd6565b60006040518083038185875af1925050503d806000811461026b576040519150601f19603f3d011682016040523d82523d6000602084013e610270565b606091505b50509050806102b4576040517f08c379a00000000000000000000000000000000000000000000000000000000081526004016102ab90610e37565b60405180910390fd5b505050505050565b60026020528060005260406000206000915054906101000a900460ff1681565b565b6000806102ea836103c1565b905060005b60028110156103b45760006103248683600281106103105761030f610e57565b5b6020020151846103f190919063ffffffff16565b9050600080836002811061033b5761033a610e57565b5b0160009054906101000a900473ffffffffffffffffffffffffffffffffffffffff1673ffffffffffffffffffffffffffffffffffffffff168273ffffffffffffffffffffffffffffffffffffffff161490508061039f5760009450505050506103bb565b505080806103ac90610eb5565b9150506102ef565b5060019150505b92915050565b6000816040516020016103d49190610f75565b604051602081830303815290604052805190602001209050919050565b60008060006104008585610418565b9150915061040d81610499565b819250505092915050565b60008060418351036104595760008060006020860151925060408601519150606086015160001a905061044d87828585610665565b94509450505050610492565b604083510361048957600080602085015191506040850151905061047e868383610771565b935093505050610492565b60006002915091505b9250929050565b600060048111156104ad576104ac610f9b565b5b8160048111156104c0576104bf610f9b565b5b031561066257600160048111156104da576104d9610f9b565b5b8160048111156104ed576104ec610f9b565b5b0361052d576040517f08c379a000000000000000000000000000000000000000000000000000000000815260040161052490611016565b60405180910390fd5b6002600481111561054157610540610f9b565b5b81600481111561055457610553610f9b565b5b03610594576040517f08c379a000000000000000000000000000000000000000000000000000000000815260040161058b90611082565b60405180910390fd5b600360048111156105a8576105a7610f9b565b5b8160048111156105bb576105ba610f9b565b5b036105fb576040517f08c379a00000000000000000000000000000000000000000000000000000000081526004016105f290611114565b60405180910390fd5b60048081111561060e5761060d610f9b565b5b81600481111561062157610620610f9b565b5b03610661576040517f08c379a0000000000000000000000000000000000000000000000000000000008152600401610658906111a6565b60405180910390fd5b5b50565b6000807f7fffffffffffffffffffffffffffffff5d576e7357a4501ddfe92f46681b20a08360001c11156106a0576000600391509150610768565b601b8560ff16141580156106b85750601c8560ff1614155b156106ca576000600491509150610768565b6000600187878787604051600081526020016040526040516106ef94939291906111e2565b6020604051602081039080840390855afa158015610711573d6000803e3d6000fd5b505050602060405103519050600073ffffffffffffffffffffffffffffffffffffffff168173ffffffffffffffffffffffffffffffffffffffff160361075f57600060019250925050610768565b80600092509250505b94509492505050565b60008060007f7fffffffffffffffffffffffffffffffffffffffffffffffffffffffffffffff60001b841690506000601b60ff8660001c901c6107b49190611227565b90506107c287828885610665565b935093505050935093915050565b6000604051905090565b600080fd5b600080fd5b6000819050919050565b6107f7816107e4565b811461080257600080fd5b50565b600081359050610814816107ee565b92915050565b6000602082840312156108305761082f6107da565b5b600061083e84828501610805565b91505092915050565b600073ffffffffffffffffffffffffffffffffffffffff82169050919050565b600061087282610847565b9050919050565b61088281610867565b82525050565b600060208201905061089d6000830184610879565b92915050565b6108ac81610867565b81146108b757600080fd5b50565b6000813590506108c9816108a3565b92915050565b6000806000606084860312156108e8576108e76107da565b5b60006108f6868287016108ba565b935050602061090786828701610805565b925050604061091886828701610805565b9150509250925092565b6000819050919050565b61093581610922565b82525050565b6000602082019050610950600083018461092c565b92915050565b600080fd5b6000601f19601f8301169050919050565b7f4e487b7100000000000000000000000000000000000000000000000000000000600052604160045260246000fd5b6109a48261095b565b810181811067ffffffffffffffff821117156109c3576109c261096c565b5b80604052505050565b60006109d66107d0565b90506109e2828261099b565b919050565b600067ffffffffffffffff821115610a0257610a0161096c565b5b602082029050919050565b600080fd5b600080fd5b600067ffffffffffffffff821115610a3257610a3161096c565b5b610a3b8261095b565b9050602081019050919050565b82818337600083830152505050565b6000610a6a610a6584610a17565b6109cc565b905082815260208101848484011115610a8657610a85610a12565b5b610a91848285610a48565b509392505050565b600082601f830112610aae57610aad610956565b5b8135610abe848260208601610a57565b91505092915050565b6000610ada610ad5846109e7565b6109cc565b90508060208402830185811115610af457610af3610a0d565b5b835b81811015610b3b57803567ffffffffffffffff811115610b1957610b18610956565b5b808601610b268982610a99565b85526020850194505050602081019050610af6565b5050509392505050565b600082601f830112610b5a57610b59610956565b5b6002610b67848285610ac7565b91505092915050565b60008060008060808587031215610b8a57610b896107da565b5b6000610b98878288016108ba565b9450506020610ba987828801610805565b9350506040610bba87828801610805565b925050606085013567ffffffffffffffff811115610bdb57610bda6107df565b5b610be787828801610b45565b91505092959194509250565b610bfc81610922565b8114610c0757600080fd5b50565b600081359050610c1981610bf3565b92915050565b600060208284031215610c3557610c346107da565b5b6000610c4384828501610c0a565b91505092915050565b60008115159050919050565b610c6181610c4c565b82525050565b6000602082019050610c7c6000830184610c58565b92915050565b60008160601b9050919050565b6000610c9a82610c82565b9050919050565b6000610cac82610c8f565b9050919050565b610cc4610cbf82610867565b610ca1565b82525050565b6000819050919050565b610ce5610ce0826107e4565b610cca565b82525050565b6000610cf78286610cb3565b601482019150610d078285610cd4565b602082019150610d178284610cd4565b602082019150819050949350505050565b600082825260208201905092915050565b7f696e76616c696420736967000000000000000000000000000000000000000000600082015250565b6000610d6f600b83610d28565b9150610d7a82610d39565b602082019050919050565b60006020820190508181036000830152610d9e81610d62565b9050919050565b600081905092915050565b50565b6000610dc0600083610da5565b9150610dcb82610db0565b600082019050919050565b6000610de182610db3565b9150819050919050565b7f4661696c656420746f2073656e64204574686572000000000000000000000000600082015250565b6000610e21601483610d28565b9150610e2c82610deb565b602082019050919050565b60006020820190508181036000830152610e5081610e14565b9050919050565b7f4e487b7100000000000000000000000000000000000000000000000000000000600052603260045260246000fd5b7f4e487b7100000000000000000000000000000000000000000000000000000000600052601160045260246000fd5b6000610ec0826107e4565b91507fffffffffffffffffffffffffffffffffffffffffffffffffffffffffffffffff8203610ef257610ef1610e86565b5b600182019050919050565b600081905092915050565b7f19457468657265756d205369676e6564204d6573736167653a0a333200000000600082015250565b6000610f3e601c83610efd565b9150610f4982610f08565b601c82019050919050565b6000819050919050565b610f6f610f6a82610922565b610f54565b82525050565b6000610f8082610f31565b9150610f8c8284610f5e565b60208201915081905092915050565b7f4e487b7100000000000000000000000000000000000000000000000000000000600052602160045260246000fd5b7f45434453413a20696e76616c6964207369676e61747572650000000000000000600082015250565b6000611000601883610d28565b915061100b82610fca565b602082019050919050565b6000602082019050818103600083015261102f81610ff3565b9050919050565b7f45434453413a20696e76616c6964207369676e6174757265206c656e67746800600082015250565b600061106c601f83610d28565b915061107782611036565b602082019050919050565b6000602082019050818103600083015261109b8161105f565b9050919050565b7f45434453413a20696e76616c6964207369676e6174757265202773272076616c60008201527f7565000000000000000000000000000000000000000000000000000000000000602082015250565b60006110fe602283610d28565b9150611109826110a2565b604082019050919050565b6000602082019050818103600083015261112d816110f1565b9050919050565b7f45434453413a20696e76616c6964207369676e6174757265202776272076616c60008201527f7565000000000000000000000000000000000000000000000000000000000000602082015250565b6000611190602283610d28565b915061119b82611134565b604082019050919050565b600060208201905081810360008301526111bf81611183565b9050919050565b600060ff82169050919050565b6111dc816111c6565b82525050565b60006080820190506111f7600083018761092c565b61120460208301866111d3565b611211604083018561092c565b61121e606083018461092c565b95945050505050565b6000611232826107e4565b915061123d836107e4565b9250827fffffffffffffffffffffffffffffffffffffffffffffffffffffffffffffffff0382111561127257611271610e86565b5b82820190509291505056fea26469706673582212205dee342a25df73e53cea0c425dd9ccb414c4ea0468db841e167ab8d86d36a50364736f6c634300080f0033",
					"opcodes": "PUSH1 0x80 PUSH1 0x40 MSTORE PUSH1 0x40 MLOAD PUSH3 0x15B1 CODESIZE SUB DUP1 PUSH3 0x15B1 DUP4 CODECOPY DUP2 DUP2 ADD PUSH1 0x40 MSTORE DUP2 ADD SWAP1 PUSH3 0x29 SWAP2 SWAP1 PUSH3 0x2BC JUMP JUMPDEST DUP1 PUSH1 0x0 SWAP1 PUSH1 0x2 PUSH3 0x3C SWAP3 SWAP2 SWAP1 PUSH3 0x44 JUMP JUMPDEST POP POP PUSH3 0x2EE JUMP JUMPDEST DUP3 PUSH1 0x2 DUP2 ADD SWAP3 DUP3 ISZERO PUSH3 0xB3 JUMPI SWAP2 PUSH1 0x20 MUL DUP3 ADD JUMPDEST DUP3 DUP2 GT ISZERO PUSH3 0xB2 JUMPI DUP3 MLOAD DUP3 PUSH1 0x0 PUSH2 0x100 EXP DUP2 SLOAD DUP2 PUSH20 0xFFFFFFFFFFFFFFFFFFFFFFFFFFFFFFFFFFFFFFFF MUL NOT AND SWAP1 DUP4 PUSH20 0xFFFFFFFFFFFFFFFFFFFFFFFFFFFFFFFFFFFFFFFF AND MUL OR SWAP1 SSTORE POP SWAP2 PUSH1 0x20 ADD SWAP2 SWAP1 PUSH1 0x1 ADD SWAP1 PUSH3 0x58 JUMP JUMPDEST JUMPDEST POP SWAP1 POP PUSH3 0xC2 SWAP2 SWAP1 PUSH3 0xC6 JUMP JUMPDEST POP SWAP1 JUMP JUMPDEST JUMPDEST DUP1 DUP3 GT ISZERO PUSH3 0xE1 JUMPI PUSH1 0x0 DUP2 PUSH1 0x0 SWAP1 SSTORE POP PUSH1 0x1 ADD PUSH3 0xC7 JUMP JUMPDEST POP SWAP1 JUMP JUMPDEST PUSH1 0x0 PUSH1 0x40 MLOAD SWAP1 POP SWAP1 JUMP JUMPDEST PUSH1 0x0 DUP1 REVERT JUMPDEST PUSH1 0x0 DUP1 REVERT JUMPDEST PUSH1 0x0 PUSH1 0x1F NOT PUSH1 0x1F DUP4 ADD AND SWAP1 POP SWAP2 SWAP1 POP JUMP JUMPDEST PUSH32 0x4E487B7100000000000000000000000000000000000000000000000000000000 PUSH1 0x0 MSTORE PUSH1 0x41 PUSH1 0x4 MSTORE PUSH1 0x24 PUSH1 0x0 REVERT JUMPDEST PUSH3 0x144 DUP3 PUSH3 0xF9 JUMP JUMPDEST DUP2 ADD DUP2 DUP2 LT PUSH8 0xFFFFFFFFFFFFFFFF DUP3 GT OR ISZERO PUSH3 0x166 JUMPI PUSH3 0x165 PUSH3 0x10A JUMP JUMPDEST JUMPDEST DUP1 PUSH1 0x40 MSTORE POP POP POP JUMP JUMPDEST PUSH1 0x0 PUSH3 0x17B PUSH3 0xE5 JUMP JUMPDEST SWAP1 POP PUSH3 0x189 DUP3 DUP3 PUSH3 0x139 JUMP JUMPDEST SWAP2 SWAP1 POP JUMP JUMPDEST PUSH1 0x0 PUSH8 0xFFFFFFFFFFFFFFFF DUP3 GT ISZERO PUSH3 0x1AC JUMPI PUSH3 0x1AB PUSH3 0x10A JUMP JUMPDEST JUMPDEST PUSH1 0x20 DUP3 MUL SWAP1 POP SWAP2 SWAP1 POP JUMP JUMPDEST PUSH1 0x0 DUP1 REVERT JUMPDEST PUSH1 0x0 PUSH20 0xFFFFFFFFFFFFFFFFFFFFFFFFFFFFFFFFFFFFFFFF DUP3 AND SWAP1 POP SWAP2 SWAP1 POP JUMP JUMPDEST PUSH1 0x0 PUSH3 0x1E9 DUP3 PUSH3 0x1BC JUMP JUMPDEST SWAP1 POP SWAP2 SWAP1 POP JUMP JUMPDEST PUSH3 0x1FB DUP2 PUSH3 0x1DC JUMP JUMPDEST DUP2 EQ PUSH3 0x207 JUMPI PUSH1 0x0 DUP1 REVERT JUMPDEST POP JUMP JUMPDEST PUSH1 0x0 DUP2 MLOAD SWAP1 POP PUSH3 0x21B DUP2 PUSH3 0x1F0 JUMP JUMPDEST SWAP3 SWAP2 POP POP JUMP JUMPDEST PUSH1 0x0 PUSH3 0x238 PUSH3 0x232 DUP5 PUSH3 0x18E JUMP JUMPDEST PUSH3 0x16F JUMP JUMPDEST SWAP1 POP DUP1 PUSH1 0x20 DUP5 MUL DUP4 ADD DUP6 DUP2 GT ISZERO PUSH3 0x255 JUMPI PUSH3 0x254 PUSH3 0x1B7 JUMP JUMPDEST JUMPDEST DUP4 JUMPDEST DUP2 DUP2 LT ISZERO PUSH3 0x282 JUMPI DUP1 PUSH3 0x26D DUP9 DUP3 PUSH3 0x20A JUMP JUMPDEST DUP5 MSTORE PUSH1 0x20 DUP5 ADD SWAP4 POP POP PUSH1 0x20 DUP2 ADD SWAP1 POP PUSH3 0x257 JUMP JUMPDEST POP POP POP SWAP4 SWAP3 POP POP POP JUMP JUMPDEST PUSH1 0x0 DUP3 PUSH1 0x1F DUP4 ADD SLT PUSH3 0x2A4 JUMPI PUSH3 0x2A3 PUSH3 0xF4 JUMP JUMPDEST JUMPDEST PUSH1 0x2 PUSH3 0x2B3 DUP5 DUP3 DUP6 PUSH3 0x221 JUMP JUMPDEST SWAP2 POP POP SWAP3 SWAP2 POP POP JUMP JUMPDEST PUSH1 0x0 PUSH1 0x40 DUP3 DUP5 SUB SLT ISZERO PUSH3 0x2D5 JUMPI PUSH3 0x2D4 PUSH3 0xEF JUMP JUMPDEST JUMPDEST PUSH1 0x0 PUSH3 0x2E5 DUP5 DUP3 DUP6 ADD PUSH3 0x28C JUMP JUMPDEST SWAP2 POP POP SWAP3 SWAP2 POP POP JUMP JUMPDEST PUSH2 0x12B3 DUP1 PUSH3 0x2FE PUSH1 0x0 CODECOPY PUSH1 0x0 RETURN INVALID PUSH1 0x80 PUSH1 0x40 MSTORE PUSH1 0x4 CALLDATASIZE LT PUSH2 0x4E JUMPI PUSH1 0x0 CALLDATALOAD PUSH1 0xE0 SHR DUP1 PUSH4 0x25E7C27 EQ PUSH2 0x5A JUMPI DUP1 PUSH4 0x207FA783 EQ PUSH2 0x97 JUMPI DUP1 PUSH4 0x78F16129 EQ PUSH2 0xD4 JUMPI DUP1 PUSH4 0xA9FCFB33 EQ PUSH2 0xFD JUMPI DUP1 PUSH4 0xD0E30DB0 EQ PUSH2 0x13A JUMPI PUSH2 0x55 JUMP JUMPDEST CALLDATASIZE PUSH2 0x55 JUMPI STOP JUMPDEST PUSH1 0x0 DUP1 REVERT JUMPDEST CALLVALUE DUP1 ISZERO PUSH2 0x66 JUMPI PUSH1 0x0 DUP1 REVERT JUMPDEST POP PUSH2 0x81 PUSH1 0x4 DUP1 CALLDATASIZE SUB DUP2 ADD SWAP1 PUSH2 0x7C SWAP2 SWAP1 PUSH2 0x81A JUMP JUMPDEST PUSH2 0x144 JUMP JUMPDEST PUSH1 0x40 MLOAD PUSH2 0x8E SWAP2 SWAP1 PUSH2 0x888 JUMP JUMPDEST PUSH1 0x40 MLOAD DUP1 SWAP2 SUB SWAP1 RETURN JUMPDEST CALLVALUE DUP1 ISZERO PUSH2 0xA3 JUMPI PUSH1 0x0 DUP1 REVERT JUMPDEST POP PUSH2 0xBE PUSH1 0x4 DUP1 CALLDATASIZE SUB DUP2 ADD SWAP1 PUSH2 0xB9 SWAP2 SWAP1 PUSH2 0x8CF JUMP JUMPDEST PUSH2 0x17A JUMP JUMPDEST PUSH1 0x40 MLOAD PUSH2 0xCB SWAP2 SWAP1 PUSH2 0x93B JUMP JUMPDEST PUSH1 0x40 MLOAD DUP1 SWAP2 SUB SWAP1 RETURN JUMPDEST CALLVALUE DUP1 ISZERO PUSH2 0xE0 JUMPI PUSH1 0x0 DUP1 REVERT JUMPDEST POP PUSH2 0xFB PUSH1 0x4 DUP1 CALLDATASIZE SUB DUP2 ADD SWAP1 PUSH2 0xF6 SWAP2 SWAP1 PUSH2 0xB70 JUMP JUMPDEST PUSH2 0x1B0 JUMP JUMPDEST STOP JUMPDEST CALLVALUE DUP1 ISZERO PUSH2 0x109 JUMPI PUSH1 0x0 DUP1 REVERT JUMPDEST POP PUSH2 0x124 PUSH1 0x4 DUP1 CALLDATASIZE SUB DUP2 ADD SWAP1 PUSH2 0x11F SWAP2 SWAP1 PUSH2 0xC1F JUMP JUMPDEST PUSH2 0x2BC JUMP JUMPDEST PUSH1 0x40 MLOAD PUSH2 0x131 SWAP2 SWAP1 PUSH2 0xC67 JUMP JUMPDEST PUSH1 0x40 MLOAD DUP1 SWAP2 SUB SWAP1 RETURN JUMPDEST PUSH2 0x142 PUSH2 0x2DC JUMP JUMPDEST STOP JUMPDEST PUSH1 0x0 DUP2 PUSH1 0x2 DUP2 LT PUSH2 0x154 JUMPI PUSH1 0x0 DUP1 REVERT JUMPDEST ADD PUSH1 0x0 SWAP2 POP SLOAD SWAP1 PUSH2 0x100 EXP SWAP1 DIV PUSH20 0xFFFFFFFFFFFFFFFFFFFFFFFFFFFFFFFFFFFFFFFF AND DUP2 JUMP JUMPDEST PUSH1 0x0 DUP4 DUP4 DUP4 PUSH1 0x40 MLOAD PUSH1 0x20 ADD PUSH2 0x191 SWAP4 SWAP3 SWAP2 SWAP1 PUSH2 0xCEB JUMP JUMPDEST PUSH1 0x40 MLOAD PUSH1 0x20 DUP2 DUP4 SUB SUB DUP2 MSTORE SWAP1 PUSH1 0x40 MSTORE DUP1 MLOAD SWAP1 PUSH1 0x20 ADD KECCAK256 SWAP1 POP SWAP4 SWAP3 POP POP POP JUMP JUMPDEST PUSH1 0x0 PUSH2 0x1BD DUP6 DUP6 DUP6 PUSH2 0x17A JUMP JUMPDEST SWAP1 POP PUSH2 0x1C9 DUP3 DUP3 PUSH2 0x2DE JUMP JUMPDEST PUSH2 0x208 JUMPI PUSH1 0x40 MLOAD PUSH32 0x8C379A000000000000000000000000000000000000000000000000000000000 DUP2 MSTORE PUSH1 0x4 ADD PUSH2 0x1FF SWAP1 PUSH2 0xD85 JUMP JUMPDEST PUSH1 0x40 MLOAD DUP1 SWAP2 SUB SWAP1 REVERT JUMPDEST PUSH1 0x0 DUP6 PUSH20 0xFFFFFFFFFFFFFFFFFFFFFFFFFFFFFFFFFFFFFFFF AND DUP6 PUSH1 0x40 MLOAD PUSH2 0x22E SWAP1 PUSH2 0xDD6 JUMP JUMPDEST PUSH1 0x0 PUSH1 0x40 MLOAD DUP1 DUP4 SUB DUP2 DUP6 DUP8 GAS CALL SWAP3 POP POP POP RETURNDATASIZE DUP1 PUSH1 0x0 DUP2 EQ PUSH2 0x26B JUMPI PUSH1 0x40 MLOAD SWAP2 POP PUSH1 0x1F NOT PUSH1 0x3F RETURNDATASIZE ADD AND DUP3 ADD PUSH1 0x40 MSTORE RETURNDATASIZE DUP3 MSTORE RETURNDATASIZE PUSH1 0x0 PUSH1 0x20 DUP5 ADD RETURNDATACOPY PUSH2 0x270 JUMP JUMPDEST PUSH1 0x60 SWAP2 POP JUMPDEST POP POP SWAP1 POP DUP1 PUSH2 0x2B4 JUMPI PUSH1 0x40 MLOAD PUSH32 0x8C379A000000000000000000000000000000000000000000000000000000000 DUP2 MSTORE PUSH1 0x4 ADD PUSH2 0x2AB SWAP1 PUSH2 0xE37 JUMP JUMPDEST PUSH1 0x40 MLOAD DUP1 SWAP2 SUB SWAP1 REVERT JUMPDEST POP POP POP POP POP POP JUMP JUMPDEST PUSH1 0x2 PUSH1 0x20 MSTORE DUP1 PUSH1 0x0 MSTORE PUSH1 0x40 PUSH1 0x0 KECCAK256 PUSH1 0x0 SWAP2 POP SLOAD SWAP1 PUSH2 0x100 EXP SWAP1 DIV PUSH1 0xFF AND DUP2 JUMP JUMPDEST JUMP JUMPDEST PUSH1 0x0 DUP1 PUSH2 0x2EA DUP4 PUSH2 0x3C1 JUMP JUMPDEST SWAP1 POP PUSH1 0x0 JUMPDEST PUSH1 0x2 DUP2 LT ISZERO PUSH2 0x3B4 JUMPI PUSH1 0x0 PUSH2 0x324 DUP7 DUP4 PUSH1 0x2 DUP2 LT PUSH2 0x310 JUMPI PUSH2 0x30F PUSH2 0xE57 JUMP JUMPDEST JUMPDEST PUSH1 0x20 MUL ADD MLOAD DUP5 PUSH2 0x3F1 SWAP1 SWAP2 SWAP1 PUSH4 0xFFFFFFFF AND JUMP JUMPDEST SWAP1 POP PUSH1 0x0 DUP1 DUP4 PUSH1 0x2 DUP2 LT PUSH2 0x33B JUMPI PUSH2 0x33A PUSH2 0xE57 JUMP JUMPDEST JUMPDEST ADD PUSH1 0x0 SWAP1 SLOAD SWAP1 PUSH2 0x100 EXP SWAP1 DIV PUSH20 0xFFFFFFFFFFFFFFFFFFFFFFFFFFFFFFFFFFFFFFFF AND PUSH20 0xFFFFFFFFFFFFFFFFFFFFFFFFFFFFFFFFFFFFFFFF AND DUP3 PUSH20 0xFFFFFFFFFFFFFFFFFFFFFFFFFFFFFFFFFFFFFFFF AND EQ SWAP1 POP DUP1 PUSH2 0x39F JUMPI PUSH1 0x0 SWAP5 POP POP POP POP POP PUSH2 0x3BB JUMP JUMPDEST POP POP DUP1 DUP1 PUSH2 0x3AC SWAP1 PUSH2 0xEB5 JUMP JUMPDEST SWAP2 POP POP PUSH2 0x2EF JUMP JUMPDEST POP PUSH1 0x1 SWAP2 POP POP JUMPDEST SWAP3 SWAP2 POP POP JUMP JUMPDEST PUSH1 0x0 DUP2 PUSH1 0x40 MLOAD PUSH1 0x20 ADD PUSH2 0x3D4 SWAP2 SWAP1 PUSH2 0xF75 JUMP JUMPDEST PUSH1 0x40 MLOAD PUSH1 0x20 DUP2 DUP4 SUB SUB DUP2 MSTORE SWAP1 PUSH1 0x40 MSTORE DUP1 MLOAD SWAP1 PUSH1 0x20 ADD KECCAK256 SWAP1 POP SWAP2 SWAP1 POP JUMP JUMPDEST PUSH1 0x0 DUP1 PUSH1 0x0 PUSH2 0x400 DUP6 DUP6 PUSH2 0x418 JUMP JUMPDEST SWAP2 POP SWAP2 POP PUSH2 0x40D DUP2 PUSH2 0x499 JUMP JUMPDEST DUP2 SWAP3 POP POP POP SWAP3 SWAP2 POP POP JUMP JUMPDEST PUSH1 0x0 DUP1 PUSH1 0x41 DUP4 MLOAD SUB PUSH2 0x459 JUMPI PUSH1 0x0 DUP1 PUSH1 0x0 PUSH1 0x20 DUP7 ADD MLOAD SWAP3 POP PUSH1 0x40 DUP7 ADD MLOAD SWAP2 POP PUSH1 0x60 DUP7 ADD MLOAD PUSH1 0x0 BYTE SWAP1 POP PUSH2 0x44D DUP8 DUP3 DUP6 DUP6 PUSH2 0x665 JUMP JUMPDEST SWAP5 POP SWAP5 POP POP POP POP PUSH2 0x492 JUMP JUMPDEST PUSH1 0x40 DUP4 MLOAD SUB PUSH2 0x489 JUMPI PUSH1 0x0 DUP1 PUSH1 0x20 DUP6 ADD MLOAD SWAP2 POP PUSH1 0x40 DUP6 ADD MLOAD SWAP1 POP PUSH2 0x47E DUP7 DUP4 DUP4 PUSH2 0x771 JUMP JUMPDEST SWAP4 POP SWAP4 POP POP POP PUSH2 0x492 JUMP JUMPDEST PUSH1 0x0 PUSH1 0x2 SWAP2 POP SWAP2 POP JUMPDEST SWAP3 POP SWAP3 SWAP1 POP JUMP JUMPDEST PUSH1 0x0 PUSH1 0x4 DUP2 GT ISZERO PUSH2 0x4AD JUMPI PUSH2 0x4AC PUSH2 0xF9B JUMP JUMPDEST JUMPDEST DUP2 PUSH1 0x4 DUP2 GT ISZERO PUSH2 0x4C0 JUMPI PUSH2 0x4BF PUSH2 0xF9B JUMP JUMPDEST JUMPDEST SUB ISZERO PUSH2 0x662 JUMPI PUSH1 0x1 PUSH1 0x4 DUP2 GT ISZERO PUSH2 0x4DA JUMPI PUSH2 0x4D9 PUSH2 0xF9B JUMP JUMPDEST JUMPDEST DUP2 PUSH1 0x4 DUP2 GT ISZERO PUSH2 0x4ED JUMPI PUSH2 0x4EC PUSH2 0xF9B JUMP JUMPDEST JUMPDEST SUB PUSH2 0x52D JUMPI PUSH1 0x40 MLOAD PUSH32 0x8C379A000000000000000000000000000000000000000000000000000000000 DUP2 MSTORE PUSH1 0x4 ADD PUSH2 0x524 SWAP1 PUSH2 0x1016 JUMP JUMPDEST PUSH1 0x40 MLOAD DUP1 SWAP2 SUB SWAP1 REVERT JUMPDEST PUSH1 0x2 PUSH1 0x4 DUP2 GT ISZERO PUSH2 0x541 JUMPI PUSH2 0x540 PUSH2 0xF9B JUMP JUMPDEST JUMPDEST DUP2 PUSH1 0x4 DUP2 GT ISZERO PUSH2 0x554 JUMPI PUSH2 0x553 PUSH2 0xF9B JUMP JUMPDEST JUMPDEST SUB PUSH2 0x594 JUMPI PUSH1 0x40 MLOAD PUSH32 0x8C379A000000000000000000000000000000000000000000000000000000000 DUP2 MSTORE PUSH1 0x4 ADD PUSH2 0x58B SWAP1 PUSH2 0x1082 JUMP JUMPDEST PUSH1 0x40 MLOAD DUP1 SWAP2 SUB SWAP1 REVERT JUMPDEST PUSH1 0x3 PUSH1 0x4 DUP2 GT ISZERO PUSH2 0x5A8 JUMPI PUSH2 0x5A7 PUSH2 0xF9B JUMP JUMPDEST JUMPDEST DUP2 PUSH1 0x4 DUP2 GT ISZERO PUSH2 0x5BB JUMPI PUSH2 0x5BA PUSH2 0xF9B JUMP JUMPDEST JUMPDEST SUB PUSH2 0x5FB JUMPI PUSH1 0x40 MLOAD PUSH32 0x8C379A000000000000000000000000000000000000000000000000000000000 DUP2 MSTORE PUSH1 0x4 ADD PUSH2 0x5F2 SWAP1 PUSH2 0x1114 JUMP JUMPDEST PUSH1 0x40 MLOAD DUP1 SWAP2 SUB SWAP1 REVERT JUMPDEST PUSH1 0x4 DUP1 DUP2 GT ISZERO PUSH2 0x60E JUMPI PUSH2 0x60D PUSH2 0xF9B JUMP JUMPDEST JUMPDEST DUP2 PUSH1 0x4 DUP2 GT ISZERO PUSH2 0x621 JUMPI PUSH2 0x620 PUSH2 0xF9B JUMP JUMPDEST JUMPDEST SUB PUSH2 0x661 JUMPI PUSH1 0x40 MLOAD PUSH32 0x8C379A000000000000000000000000000000000000000000000000000000000 DUP2 MSTORE PUSH1 0x4 ADD PUSH2 0x658 SWAP1 PUSH2 0x11A6 JUMP JUMPDEST PUSH1 0x40 MLOAD DUP1 SWAP2 SUB SWAP1 REVERT JUMPDEST JUMPDEST POP JUMP JUMPDEST PUSH1 0x0 DUP1 PUSH32 0x7FFFFFFFFFFFFFFFFFFFFFFFFFFFFFFF5D576E7357A4501DDFE92F46681B20A0 DUP4 PUSH1 0x0 SHR GT ISZERO PUSH2 0x6A0 JUMPI PUSH1 0x0 PUSH1 0x3 SWAP2 POP SWAP2 POP PUSH2 0x768 JUMP JUMPDEST PUSH1 0x1B DUP6 PUSH1 0xFF AND EQ ISZERO DUP1 ISZERO PUSH2 0x6B8 JUMPI POP PUSH1 0x1C DUP6 PUSH1 0xFF AND EQ ISZERO JUMPDEST ISZERO PUSH2 0x6CA JUMPI PUSH1 0x0 PUSH1 0x4 SWAP2 POP SWAP2 POP PUSH2 0x768 JUMP JUMPDEST PUSH1 0x0 PUSH1 0x1 DUP8 DUP8 DUP8 DUP8 PUSH1 0x40 MLOAD PUSH1 0x0 DUP2 MSTORE PUSH1 0x20 ADD PUSH1 0x40 MSTORE PUSH1 0x40 MLOAD PUSH2 0x6EF SWAP5 SWAP4 SWAP3 SWAP2 SWAP1 PUSH2 0x11E2 JUMP JUMPDEST PUSH1 0x20 PUSH1 0x40 MLOAD PUSH1 0x20 DUP2 SUB SWAP1 DUP1 DUP5 SUB SWAP1 DUP6 GAS STATICCALL ISZERO DUP1 ISZERO PUSH2 0x711 JUMPI RETURNDATASIZE PUSH1 0x0 DUP1 RETURNDATACOPY RETURNDATASIZE PUSH1 0x0 REVERT JUMPDEST POP POP POP PUSH1 0x20 PUSH1 0x40 MLOAD SUB MLOAD SWAP1 POP PUSH1 0x0 PUSH20 0xFFFFFFFFFFFFFFFFFFFFFFFFFFFFFFFFFFFFFFFF AND DUP2 PUSH20 0xFFFFFFFFFFFFFFFFFFFFFFFFFFFFFFFFFFFFFFFF AND SUB PUSH2 0x75F JUMPI PUSH1 0x0 PUSH1 0x1 SWAP3 POP SWAP3 POP POP PUSH2 0x768 JUMP JUMPDEST DUP1 PUSH1 0x0 SWAP3 POP SWAP3 POP POP JUMPDEST SWAP5 POP SWAP5 SWAP3 POP POP POP JUMP JUMPDEST PUSH1 0x0 DUP1 PUSH1 0x0 PUSH32 0x7FFFFFFFFFFFFFFFFFFFFFFFFFFFFFFFFFFFFFFFFFFFFFFFFFFFFFFFFFFFFFFF PUSH1 0x0 SHL DUP5 AND SWAP1 POP PUSH1 0x0 PUSH1 0x1B PUSH1 0xFF DUP7 PUSH1 0x0 SHR SWAP1 SHR PUSH2 0x7B4 SWAP2 SWAP1 PUSH2 0x1227 JUMP JUMPDEST SWAP1 POP PUSH2 0x7C2 DUP8 DUP3 DUP9 DUP6 PUSH2 0x665 JUMP JUMPDEST SWAP4 POP SWAP4 POP POP POP SWAP4 POP SWAP4 SWAP2 POP POP JUMP JUMPDEST PUSH1 0x0 PUSH1 0x40 MLOAD SWAP1 POP SWAP1 JUMP JUMPDEST PUSH1 0x0 DUP1 REVERT JUMPDEST PUSH1 0x0 DUP1 REVERT JUMPDEST PUSH1 0x0 DUP2 SWAP1 POP SWAP2 SWAP1 POP JUMP JUMPDEST PUSH2 0x7F7 DUP2 PUSH2 0x7E4 JUMP JUMPDEST DUP2 EQ PUSH2 0x802 JUMPI PUSH1 0x0 DUP1 REVERT JUMPDEST POP JUMP JUMPDEST PUSH1 0x0 DUP2 CALLDATALOAD SWAP1 POP PUSH2 0x814 DUP2 PUSH2 0x7EE JUMP JUMPDEST SWAP3 SWAP2 POP POP JUMP JUMPDEST PUSH1 0x0 PUSH1 0x20 DUP3 DUP5 SUB SLT ISZERO PUSH2 0x830 JUMPI PUSH2 0x82F PUSH2 0x7DA JUMP JUMPDEST JUMPDEST PUSH1 0x0 PUSH2 0x83E DUP5 DUP3 DUP6 ADD PUSH2 0x805 JUMP JUMPDEST SWAP2 POP POP SWAP3 SWAP2 POP POP JUMP JUMPDEST PUSH1 0x0 PUSH20 0xFFFFFFFFFFFFFFFFFFFFFFFFFFFFFFFFFFFFFFFF DUP3 AND SWAP1 POP SWAP2 SWAP1 POP JUMP JUMPDEST PUSH1 0x0 PUSH2 0x872 DUP3 PUSH2 0x847 JUMP JUMPDEST SWAP1 POP SWAP2 SWAP1 POP JUMP JUMPDEST PUSH2 0x882 DUP2 PUSH2 0x867 JUMP JUMPDEST DUP3 MSTORE POP POP JUMP JUMPDEST PUSH1 0x0 PUSH1 0x20 DUP3 ADD SWAP1 POP PUSH2 0x89D PUSH1 0x0 DUP4 ADD DUP5 PUSH2 0x879 JUMP JUMPDEST SWAP3 SWAP2 POP POP JUMP JUMPDEST PUSH2 0x8AC DUP2 PUSH2 0x867 JUMP JUMPDEST DUP2 EQ PUSH2 0x8B7 JUMPI PUSH1 0x0 DUP1 REVERT JUMPDEST POP JUMP JUMPDEST PUSH1 0x0 DUP2 CALLDATALOAD SWAP1 POP PUSH2 0x8C9 DUP2 PUSH2 0x8A3 JUMP JUMPDEST SWAP3 SWAP2 POP POP JUMP JUMPDEST PUSH1 0x0 DUP1 PUSH1 0x0 PUSH1 0x60 DUP5 DUP7 SUB SLT ISZERO PUSH2 0x8E8 JUMPI PUSH2 0x8E7 PUSH2 0x7DA JUMP JUMPDEST JUMPDEST PUSH1 0x0 PUSH2 0x8F6 DUP7 DUP3 DUP8 ADD PUSH2 0x8BA JUMP JUMPDEST SWAP4 POP POP PUSH1 0x20 PUSH2 0x907 DUP7 DUP3 DUP8 ADD PUSH2 0x805 JUMP JUMPDEST SWAP3 POP POP PUSH1 0x40 PUSH2 0x918 DUP7 DUP3 DUP8 ADD PUSH2 0x805 JUMP JUMPDEST SWAP2 POP POP SWAP3 POP SWAP3 POP SWAP3 JUMP JUMPDEST PUSH1 0x0 DUP2 SWAP1 POP SWAP2 SWAP1 POP JUMP JUMPDEST PUSH2 0x935 DUP2 PUSH2 0x922 JUMP JUMPDEST DUP3 MSTORE POP POP JUMP JUMPDEST PUSH1 0x0 PUSH1 0x20 DUP3 ADD SWAP1 POP PUSH2 0x950 PUSH1 0x0 DUP4 ADD DUP5 PUSH2 0x92C JUMP JUMPDEST SWAP3 SWAP2 POP POP JUMP JUMPDEST PUSH1 0x0 DUP1 REVERT JUMPDEST PUSH1 0x0 PUSH1 0x1F NOT PUSH1 0x1F DUP4 ADD AND SWAP1 POP SWAP2 SWAP1 POP JUMP JUMPDEST PUSH32 0x4E487B7100000000000000000000000000000000000000000000000000000000 PUSH1 0x0 MSTORE PUSH1 0x41 PUSH1 0x4 MSTORE PUSH1 0x24 PUSH1 0x0 REVERT JUMPDEST PUSH2 0x9A4 DUP3 PUSH2 0x95B JUMP JUMPDEST DUP2 ADD DUP2 DUP2 LT PUSH8 0xFFFFFFFFFFFFFFFF DUP3 GT OR ISZERO PUSH2 0x9C3 JUMPI PUSH2 0x9C2 PUSH2 0x96C JUMP JUMPDEST JUMPDEST DUP1 PUSH1 0x40 MSTORE POP POP POP JUMP JUMPDEST PUSH1 0x0 PUSH2 0x9D6 PUSH2 0x7D0 JUMP JUMPDEST SWAP1 POP PUSH2 0x9E2 DUP3 DUP3 PUSH2 0x99B JUMP JUMPDEST SWAP2 SWAP1 POP JUMP JUMPDEST PUSH1 0x0 PUSH8 0xFFFFFFFFFFFFFFFF DUP3 GT ISZERO PUSH2 0xA02 JUMPI PUSH2 0xA01 PUSH2 0x96C JUMP JUMPDEST JUMPDEST PUSH1 0x20 DUP3 MUL SWAP1 POP SWAP2 SWAP1 POP JUMP JUMPDEST PUSH1 0x0 DUP1 REVERT JUMPDEST PUSH1 0x0 DUP1 REVERT JUMPDEST PUSH1 0x0 PUSH8 0xFFFFFFFFFFFFFFFF DUP3 GT ISZERO PUSH2 0xA32 JUMPI PUSH2 0xA31 PUSH2 0x96C JUMP JUMPDEST JUMPDEST PUSH2 0xA3B DUP3 PUSH2 0x95B JUMP JUMPDEST SWAP1 POP PUSH1 0x20 DUP2 ADD SWAP1 POP SWAP2 SWAP1 POP JUMP JUMPDEST DUP3 DUP2 DUP4 CALLDATACOPY PUSH1 0x0 DUP4 DUP4 ADD MSTORE POP POP POP JUMP JUMPDEST PUSH1 0x0 PUSH2 0xA6A PUSH2 0xA65 DUP5 PUSH2 0xA17 JUMP JUMPDEST PUSH2 0x9CC JUMP JUMPDEST SWAP1 POP DUP3 DUP2 MSTORE PUSH1 0x20 DUP2 ADD DUP5 DUP5 DUP5 ADD GT ISZERO PUSH2 0xA86 JUMPI PUSH2 0xA85 PUSH2 0xA12 JUMP JUMPDEST JUMPDEST PUSH2 0xA91 DUP5 DUP3 DUP6 PUSH2 0xA48 JUMP JUMPDEST POP SWAP4 SWAP3 POP POP POP JUMP JUMPDEST PUSH1 0x0 DUP3 PUSH1 0x1F DUP4 ADD SLT PUSH2 0xAAE JUMPI PUSH2 0xAAD PUSH2 0x956 JUMP JUMPDEST JUMPDEST DUP2 CALLDATALOAD PUSH2 0xABE DUP5 DUP3 PUSH1 0x20 DUP7 ADD PUSH2 0xA57 JUMP JUMPDEST SWAP2 POP POP SWAP3 SWAP2 POP POP JUMP JUMPDEST PUSH1 0x0 PUSH2 0xADA PUSH2 0xAD5 DUP5 PUSH2 0x9E7 JUMP JUMPDEST PUSH2 0x9CC JUMP JUMPDEST SWAP1 POP DUP1 PUSH1 0x20 DUP5 MUL DUP4 ADD DUP6 DUP2 GT ISZERO PUSH2 0xAF4 JUMPI PUSH2 0xAF3 PUSH2 0xA0D JUMP JUMPDEST JUMPDEST DUP4 JUMPDEST DUP2 DUP2 LT ISZERO PUSH2 0xB3B JUMPI DUP1 CALLDATALOAD PUSH8 0xFFFFFFFFFFFFFFFF DUP2 GT ISZERO PUSH2 0xB19 JUMPI PUSH2 0xB18 PUSH2 0x956 JUMP JUMPDEST JUMPDEST DUP1 DUP7 ADD PUSH2 0xB26 DUP10 DUP3 PUSH2 0xA99 JUMP JUMPDEST DUP6 MSTORE PUSH1 0x20 DUP6 ADD SWAP5 POP POP POP PUSH1 0x20 DUP2 ADD SWAP1 POP PUSH2 0xAF6 JUMP JUMPDEST POP POP POP SWAP4 SWAP3 POP POP POP JUMP JUMPDEST PUSH1 0x0 DUP3 PUSH1 0x1F DUP4 ADD SLT PUSH2 0xB5A JUMPI PUSH2 0xB59 PUSH2 0x956 JUMP JUMPDEST JUMPDEST PUSH1 0x2 PUSH2 0xB67 DUP5 DUP3 DUP6 PUSH2 0xAC7 JUMP JUMPDEST SWAP2 POP POP SWAP3 SWAP2 POP POP JUMP JUMPDEST PUSH1 0x0 DUP1 PUSH1 0x0 DUP1 PUSH1 0x80 DUP6 DUP8 SUB SLT ISZERO PUSH2 0xB8A JUMPI PUSH2 0xB89 PUSH2 0x7DA JUMP JUMPDEST JUMPDEST PUSH1 0x0 PUSH2 0xB98 DUP8 DUP3 DUP9 ADD PUSH2 0x8BA JUMP JUMPDEST SWAP5 POP POP PUSH1 0x20 PUSH2 0xBA9 DUP8 DUP3 DUP9 ADD PUSH2 0x805 JUMP JUMPDEST SWAP4 POP POP PUSH1 0x40 PUSH2 0xBBA DUP8 DUP3 DUP9 ADD PUSH2 0x805 JUMP JUMPDEST SWAP3 POP POP PUSH1 0x60 DUP6 ADD CALLDATALOAD PUSH8 0xFFFFFFFFFFFFFFFF DUP2 GT ISZERO PUSH2 0xBDB JUMPI PUSH2 0xBDA PUSH2 0x7DF JUMP JUMPDEST JUMPDEST PUSH2 0xBE7 DUP8 DUP3 DUP9 ADD PUSH2 0xB45 JUMP JUMPDEST SWAP2 POP POP SWAP3 SWAP6 SWAP2 SWAP5 POP SWAP3 POP JUMP JUMPDEST PUSH2 0xBFC DUP2 PUSH2 0x922 JUMP JUMPDEST DUP2 EQ PUSH2 0xC07 JUMPI PUSH1 0x0 DUP1 REVERT JUMPDEST POP JUMP JUMPDEST PUSH1 0x0 DUP2 CALLDATALOAD SWAP1 POP PUSH2 0xC19 DUP2 PUSH2 0xBF3 JUMP JUMPDEST SWAP3 SWAP2 POP POP JUMP JUMPDEST PUSH1 0x0 PUSH1 0x20 DUP3 DUP5 SUB SLT ISZERO PUSH2 0xC35 JUMPI PUSH2 0xC34 PUSH2 0x7DA JUMP JUMPDEST JUMPDEST PUSH1 0x0 PUSH2 0xC43 DUP5 DUP3 DUP6 ADD PUSH2 0xC0A JUMP JUMPDEST SWAP2 POP POP SWAP3 SWAP2 POP POP JUMP JUMPDEST PUSH1 0x0 DUP2 ISZERO ISZERO SWAP1 POP SWAP2 SWAP1 POP JUMP JUMPDEST PUSH2 0xC61 DUP2 PUSH2 0xC4C JUMP JUMPDEST DUP3 MSTORE POP POP JUMP JUMPDEST PUSH1 0x0 PUSH1 0x20 DUP3 ADD SWAP1 POP PUSH2 0xC7C PUSH1 0x0 DUP4 ADD DUP5 PUSH2 0xC58 JUMP JUMPDEST SWAP3 SWAP2 POP POP JUMP JUMPDEST PUSH1 0x0 DUP2 PUSH1 0x60 SHL SWAP1 POP SWAP2 SWAP1 POP JUMP JUMPDEST PUSH1 0x0 PUSH2 0xC9A DUP3 PUSH2 0xC82 JUMP JUMPDEST SWAP1 POP SWAP2 SWAP1 POP JUMP JUMPDEST PUSH1 0x0 PUSH2 0xCAC DUP3 PUSH2 0xC8F JUMP JUMPDEST SWAP1 POP SWAP2 SWAP1 POP JUMP JUMPDEST PUSH2 0xCC4 PUSH2 0xCBF DUP3 PUSH2 0x867 JUMP JUMPDEST PUSH2 0xCA1 JUMP JUMPDEST DUP3 MSTORE POP POP JUMP JUMPDEST PUSH1 0x0 DUP2 SWAP1 POP SWAP2 SWAP1 POP JUMP JUMPDEST PUSH2 0xCE5 PUSH2 0xCE0 DUP3 PUSH2 0x7E4 JUMP JUMPDEST PUSH2 0xCCA JUMP JUMPDEST DUP3 MSTORE POP POP JUMP JUMPDEST PUSH1 0x0 PUSH2 0xCF7 DUP3 DUP7 PUSH2 0xCB3 JUMP JUMPDEST PUSH1 0x14 DUP3 ADD SWAP2 POP PUSH2 0xD07 DUP3 DUP6 PUSH2 0xCD4 JUMP JUMPDEST PUSH1 0x20 DUP3 ADD SWAP2 POP PUSH2 0xD17 DUP3 DUP5 PUSH2 0xCD4 JUMP JUMPDEST PUSH1 0x20 DUP3 ADD SWAP2 POP DUP2 SWAP1 POP SWAP5 SWAP4 POP POP POP POP JUMP JUMPDEST PUSH1 0x0 DUP3 DUP3 MSTORE PUSH1 0x20 DUP3 ADD SWAP1 POP SWAP3 SWAP2 POP POP JUMP JUMPDEST PUSH32 0x696E76616C696420736967000000000000000000000000000000000000000000 PUSH1 0x0 DUP3 ADD MSTORE POP JUMP JUMPDEST PUSH1 0x0 PUSH2 0xD6F PUSH1 0xB DUP4 PUSH2 0xD28 JUMP JUMPDEST SWAP2 POP PUSH2 0xD7A DUP3 PUSH2 0xD39 JUMP JUMPDEST PUSH1 0x20 DUP3 ADD SWAP1 POP SWAP2 SWAP1 POP JUMP JUMPDEST PUSH1 0x0 PUSH1 0x20 DUP3 ADD SWAP1 POP DUP2 DUP2 SUB PUSH1 0x0 DUP4 ADD MSTORE PUSH2 0xD9E DUP2 PUSH2 0xD62 JUMP JUMPDEST SWAP1 POP SWAP2 SWAP1 POP JUMP JUMPDEST PUSH1 0x0 DUP2 SWAP1 POP SWAP3 SWAP2 POP POP JUMP JUMPDEST POP JUMP JUMPDEST PUSH1 0x0 PUSH2 0xDC0 PUSH1 0x0 DUP4 PUSH2 0xDA5 JUMP JUMPDEST SWAP2 POP PUSH2 0xDCB DUP3 PUSH2 0xDB0 JUMP JUMPDEST PUSH1 0x0 DUP3 ADD SWAP1 POP SWAP2 SWAP1 POP JUMP JUMPDEST PUSH1 0x0 PUSH2 0xDE1 DUP3 PUSH2 0xDB3 JUMP JUMPDEST SWAP2 POP DUP2 SWAP1 POP SWAP2 SWAP1 POP JUMP JUMPDEST PUSH32 0x4661696C656420746F2073656E64204574686572000000000000000000000000 PUSH1 0x0 DUP3 ADD MSTORE POP JUMP JUMPDEST PUSH1 0x0 PUSH2 0xE21 PUSH1 0x14 DUP4 PUSH2 0xD28 JUMP JUMPDEST SWAP2 POP PUSH2 0xE2C DUP3 PUSH2 0xDEB JUMP JUMPDEST PUSH1 0x20 DUP3 ADD SWAP1 POP SWAP2 SWAP1 POP JUMP JUMPDEST PUSH1 0x0 PUSH1 0x20 DUP3 ADD SWAP1 POP DUP2 DUP2 SUB PUSH1 0x0 DUP4 ADD MSTORE PUSH2 0xE50 DUP2 PUSH2 0xE14 JUMP JUMPDEST SWAP1 POP SWAP2 SWAP1 POP JUMP JUMPDEST PUSH32 0x4E487B7100000000000000000000000000000000000000000000000000000000 PUSH1 0x0 MSTORE PUSH1 0x32 PUSH1 0x4 MSTORE PUSH1 0x24 PUSH1 0x0 REVERT JUMPDEST PUSH32 0x4E487B7100000000000000000000000000000000000000000000000000000000 PUSH1 0x0 MSTORE PUSH1 0x11 PUSH1 0x4 MSTORE PUSH1 0x24 PUSH1 0x0 REVERT JUMPDEST PUSH1 0x0 PUSH2 0xEC0 DUP3 PUSH2 0x7E4 JUMP JUMPDEST SWAP2 POP PUSH32 0xFFFFFFFFFFFFFFFFFFFFFFFFFFFFFFFFFFFFFFFFFFFFFFFFFFFFFFFFFFFFFFFF DUP3 SUB PUSH2 0xEF2 JUMPI PUSH2 0xEF1 PUSH2 0xE86 JUMP JUMPDEST JUMPDEST PUSH1 0x1 DUP3 ADD SWAP1 POP SWAP2 SWAP1 POP JUMP JUMPDEST PUSH1 0x0 DUP2 SWAP1 POP SWAP3 SWAP2 POP POP JUMP JUMPDEST PUSH32 0x19457468657265756D205369676E6564204D6573736167653A0A333200000000 PUSH1 0x0 DUP3 ADD MSTORE POP JUMP JUMPDEST PUSH1 0x0 PUSH2 0xF3E PUSH1 0x1C DUP4 PUSH2 0xEFD JUMP JUMPDEST SWAP2 POP PUSH2 0xF49 DUP3 PUSH2 0xF08 JUMP JUMPDEST PUSH1 0x1C DUP3 ADD SWAP1 POP SWAP2 SWAP1 POP JUMP JUMPDEST PUSH1 0x0 DUP2 SWAP1 POP SWAP2 SWAP1 POP JUMP JUMPDEST PUSH2 0xF6F PUSH2 0xF6A DUP3 PUSH2 0x922 JUMP JUMPDEST PUSH2 0xF54 JUMP JUMPDEST DUP3 MSTORE POP POP JUMP JUMPDEST PUSH1 0x0 PUSH2 0xF80 DUP3 PUSH2 0xF31 JUMP JUMPDEST SWAP2 POP PUSH2 0xF8C DUP3 DUP5 PUSH2 0xF5E JUMP JUMPDEST PUSH1 0x20 DUP3 ADD SWAP2 POP DUP2 SWAP1 POP SWAP3 SWAP2 POP POP JUMP JUMPDEST PUSH32 0x4E487B7100000000000000000000000000000000000000000000000000000000 PUSH1 0x0 MSTORE PUSH1 0x21 PUSH1 0x4 MSTORE PUSH1 0x24 PUSH1 0x0 REVERT JUMPDEST PUSH32 0x45434453413A20696E76616C6964207369676E61747572650000000000000000 PUSH1 0x0 DUP3 ADD MSTORE POP JUMP JUMPDEST PUSH1 0x0 PUSH2 0x1000 PUSH1 0x18 DUP4 PUSH2 0xD28 JUMP JUMPDEST SWAP2 POP PUSH2 0x100B DUP3 PUSH2 0xFCA JUMP JUMPDEST PUSH1 0x20 DUP3 ADD SWAP1 POP SWAP2 SWAP1 POP JUMP JUMPDEST PUSH1 0x0 PUSH1 0x20 DUP3 ADD SWAP1 POP DUP2 DUP2 SUB PUSH1 0x0 DUP4 ADD MSTORE PUSH2 0x102F DUP2 PUSH2 0xFF3 JUMP JUMPDEST SWAP1 POP SWAP2 SWAP1 POP JUMP JUMPDEST PUSH32 0x45434453413A20696E76616C6964207369676E6174757265206C656E67746800 PUSH1 0x0 DUP3 ADD MSTORE POP JUMP JUMPDEST PUSH1 0x0 PUSH2 0x106C PUSH1 0x1F DUP4 PUSH2 0xD28 JUMP JUMPDEST SWAP2 POP PUSH2 0x1077 DUP3 PUSH2 0x1036 JUMP JUMPDEST PUSH1 0x20 DUP3 ADD SWAP1 POP SWAP2 SWAP1 POP JUMP JUMPDEST PUSH1 0x0 PUSH1 0x20 DUP3 ADD SWAP1 POP DUP2 DUP2 SUB PUSH1 0x0 DUP4 ADD MSTORE PUSH2 0x109B DUP2 PUSH2 0x105F JUMP JUMPDEST SWAP1 POP SWAP2 SWAP1 POP JUMP JUMPDEST PUSH32 0x45434453413A20696E76616C6964207369676E6174757265202773272076616C PUSH1 0x0 DUP3 ADD MSTORE PUSH32 0x7565000000000000000000000000000000000000000000000000000000000000 PUSH1 0x20 DUP3 ADD MSTORE POP JUMP JUMPDEST PUSH1 0x0 PUSH2 0x10FE PUSH1 0x22 DUP4 PUSH2 0xD28 JUMP JUMPDEST SWAP2 POP PUSH2 0x1109 DUP3 PUSH2 0x10A2 JUMP JUMPDEST PUSH1 0x40 DUP3 ADD SWAP1 POP SWAP2 SWAP1 POP JUMP JUMPDEST PUSH1 0x0 PUSH1 0x20 DUP3 ADD SWAP1 POP DUP2 DUP2 SUB PUSH1 0x0 DUP4 ADD MSTORE PUSH2 0x112D DUP2 PUSH2 0x10F1 JUMP JUMPDEST SWAP1 POP SWAP2 SWAP1 POP JUMP JUMPDEST PUSH32 0x45434453413A20696E76616C6964207369676E6174757265202776272076616C PUSH1 0x0 DUP3 ADD MSTORE PUSH32 0x7565000000000000000000000000000000000000000000000000000000000000 PUSH1 0x20 DUP3 ADD MSTORE POP JUMP JUMPDEST PUSH1 0x0 PUSH2 0x1190 PUSH1 0x22 DUP4 PUSH2 0xD28 JUMP JUMPDEST SWAP2 POP PUSH2 0x119B DUP3 PUSH2 0x1134 JUMP JUMPDEST PUSH1 0x40 DUP3 ADD SWAP1 POP SWAP2 SWAP1 POP JUMP JUMPDEST PUSH1 0x0 PUSH1 0x20 DUP3 ADD SWAP1 POP DUP2 DUP2 SUB PUSH1 0x0 DUP4 ADD MSTORE PUSH2 0x11BF DUP2 PUSH2 0x1183 JUMP JUMPDEST SWAP1 POP SWAP2 SWAP1 POP JUMP JUMPDEST PUSH1 0x0 PUSH1 0xFF DUP3 AND SWAP1 POP SWAP2 SWAP1 POP JUMP JUMPDEST PUSH2 0x11DC DUP2 PUSH2 0x11C6 JUMP JUMPDEST DUP3 MSTORE POP POP JUMP JUMPDEST PUSH1 0x0 PUSH1 0x80 DUP3 ADD SWAP1 POP PUSH2 0x11F7 PUSH1 0x0 DUP4 ADD DUP8 PUSH2 0x92C JUMP JUMPDEST PUSH2 0x1204 PUSH1 0x20 DUP4 ADD DUP7 PUSH2 0x11D3 JUMP JUMPDEST PUSH2 0x1211 PUSH1 0x40 DUP4 ADD DUP6 PUSH2 0x92C JUMP JUMPDEST PUSH2 0x121E PUSH1 0x60 DUP4 ADD DUP5 PUSH2 0x92C JUMP JUMPDEST SWAP6 SWAP5 POP POP POP POP POP JUMP JUMPDEST PUSH1 0x0 PUSH2 0x1232 DUP3 PUSH2 0x7E4 JUMP JUMPDEST SWAP2 POP PUSH2 0x123D DUP4 PUSH2 0x7E4 JUMP JUMPDEST SWAP3 POP DUP3 PUSH32 0xFFFFFFFFFFFFFFFFFFFFFFFFFFFFFFFFFFFFFFFFFFFFFFFFFFFFFFFFFFFFFFFF SUB DUP3 GT ISZERO PUSH2 0x1272 JUMPI PUSH2 0x1271 PUSH2 0xE86 JUMP JUMPDEST JUMPDEST DUP3 DUP3 ADD SWAP1 POP SWAP3 SWAP2 POP POP JUMP INVALID LOG2 PUSH5 0x6970667358 0x22 SLT KECCAK256 0x5D 0xEE CALLVALUE 0x2A 0x25 0xDF PUSH20 0xE53CEA0C425DD9CCB414C4EA0468DB841E167AB8 0xD8 PUSH14 0x36A50364736F6C634300080F0033 "
				},
				"gasEstimates": {
					"creation": {
						"codeDepositCost": "957400",
						"executionCost": "infinite",
						"totalCost": "infinite"
					},
					"external": {
						"deposit()": "186",
						"executed(bytes32)": "2840",
						"getTxHash(address,uint256,uint256)": "infinite",
						"owners(uint256)": "2783",
						"transfer(address,uint256,uint256,bytes[2])": "infinite"
					},
					"internal": {
						"_checkSigs(bytes memory[2] memory,bytes32)": "infinite"
					}
				},
				"methodIdentifiers": {
					"deposit()": "d0e30db0",
					"executed(bytes32)": "a9fcfb33",
					"getTxHash(address,uint256,uint256)": "207fa783",
					"owners(uint256)": "025e7c27",
					"transfer(address,uint256,uint256,bytes[2])": "78f16129"
				}
			},
			"storageLayout": {
				"storage": [
					{
						"astId": 10,
						"contract": "contracts/DeFi/MultiSigV3.sol:MultiSigWallet",
						"label": "owners",
						"offset": 0,
						"slot": "0",
						"type": "t_array(t_address)2_storage"
					},
					{
						"astId": 14,
						"contract": "contracts/DeFi/MultiSigV3.sol:MultiSigWallet",
						"label": "executed",
						"offset": 0,
						"slot": "2",
						"type": "t_mapping(t_bytes32,t_bool)"
					}
				],
				"types": {
					"t_address": {
						"encoding": "inplace",
						"label": "address",
						"numberOfBytes": "20"
					},
					"t_array(t_address)2_storage": {
						"base": "t_address",
						"encoding": "inplace",
						"label": "address[2]",
						"numberOfBytes": "64"
					},
					"t_bool": {
						"encoding": "inplace",
						"label": "bool",
						"numberOfBytes": "1"
					},
					"t_bytes32": {
						"encoding": "inplace",
						"label": "bytes32",
						"numberOfBytes": "32"
					},
					"t_mapping(t_bytes32,t_bool)": {
						"encoding": "mapping",
						"key": "t_bytes32",
						"label": "mapping(bytes32 => bool)",
						"numberOfBytes": "32",
						"value": "t_bool"
					}
				}
			},
			"userdoc": {
				"kind": "user",
				"methods": {},
				"version": 1
			}
		}
	}
}