{
	"contracts/NFTEnglishAuction.sol": {
		"EnglishAuction": {
			"abi": [
				{
					"inputs": [
						{
							"internalType": "address",
							"name": "_nft",
							"type": "address"
						},
						{
							"internalType": "uint256",
							"name": "_nftId",
							"type": "uint256"
						},
						{
							"internalType": "uint256",
							"name": "_startingBid",
							"type": "uint256"
						}
					],
					"stateMutability": "nonpayable",
					"type": "constructor"
				},
				{
					"anonymous": false,
					"inputs": [
						{
							"indexed": true,
							"internalType": "address",
							"name": "sender",
							"type": "address"
						},
						{
							"indexed": false,
							"internalType": "uint256",
							"name": "amount",
							"type": "uint256"
						}
					],
					"name": "Bid",
					"type": "event"
				},
				{
					"anonymous": false,
					"inputs": [
						{
							"indexed": false,
							"internalType": "address",
							"name": "highestBidder",
							"type": "address"
						},
						{
							"indexed": false,
							"internalType": "uint256",
							"name": "amount",
							"type": "uint256"
						}
					],
					"name": "End",
					"type": "event"
				},
				{
					"anonymous": false,
					"inputs": [],
					"name": "Start",
					"type": "event"
				},
				{
					"anonymous": false,
					"inputs": [
						{
							"indexed": true,
							"internalType": "address",
							"name": "bidder",
							"type": "address"
						},
						{
							"indexed": false,
							"internalType": "uint256",
							"name": "amount",
							"type": "uint256"
						}
					],
					"name": "Withdraw",
					"type": "event"
				},
				{
					"inputs": [],
					"name": "bid",
					"outputs": [],
					"stateMutability": "payable",
					"type": "function"
				},
				{
					"inputs": [
						{
							"internalType": "address",
							"name": "",
							"type": "address"
						}
					],
					"name": "bids",
					"outputs": [
						{
							"internalType": "uint256",
							"name": "",
							"type": "uint256"
						}
					],
					"stateMutability": "view",
					"type": "function"
				},
				{
					"inputs": [],
					"name": "end",
					"outputs": [],
					"stateMutability": "nonpayable",
					"type": "function"
				},
				{
					"inputs": [],
					"name": "endAt",
					"outputs": [
						{
							"internalType": "uint32",
							"name": "",
							"type": "uint32"
						}
					],
					"stateMutability": "view",
					"type": "function"
				},
				{
					"inputs": [],
					"name": "ended",
					"outputs": [
						{
							"internalType": "bool",
							"name": "",
							"type": "bool"
						}
					],
					"stateMutability": "view",
					"type": "function"
				},
				{
					"inputs": [],
					"name": "highestBid",
					"outputs": [
						{
							"internalType": "uint256",
							"name": "",
							"type": "uint256"
						}
					],
					"stateMutability": "view",
					"type": "function"
				},
				{
					"inputs": [],
					"name": "highestBidder",
					"outputs": [
						{
							"internalType": "address",
							"name": "",
							"type": "address"
						}
					],
					"stateMutability": "view",
					"type": "function"
				},
				{
					"inputs": [],
					"name": "nft",
					"outputs": [
						{
							"internalType": "contract IERC721",
							"name": "",
							"type": "address"
						}
					],
					"stateMutability": "view",
					"type": "function"
				},
				{
					"inputs": [],
					"name": "nftId",
					"outputs": [
						{
							"internalType": "uint256",
							"name": "",
							"type": "uint256"
						}
					],
					"stateMutability": "view",
					"type": "function"
				},
				{
					"inputs": [],
					"name": "seller",
					"outputs": [
						{
							"internalType": "address payable",
							"name": "",
							"type": "address"
						}
					],
					"stateMutability": "view",
					"type": "function"
				},
				{
					"inputs": [],
					"name": "start",
					"outputs": [],
					"stateMutability": "nonpayable",
					"type": "function"
				},
				{
					"inputs": [],
					"name": "started",
					"outputs": [
						{
							"internalType": "bool",
							"name": "",
							"type": "bool"
						}
					],
					"stateMutability": "view",
					"type": "function"
				},
				{
					"inputs": [],
					"name": "withdraw",
					"outputs": [],
					"stateMutability": "nonpayable",
					"type": "function"
				}
			],
			"devdoc": {
				"kind": "dev",
				"methods": {},
				"version": 1
			},
			"evm": {
				"assembly": "    /* \"contracts/NFTEnglishAuction.sol\":184:2320  contract EnglishAuction {... */\n  mstore(0x40, 0xe0)\n    /* \"contracts/NFTEnglishAuction.sol\":686:877  constructor (address _nft, uint _nftId, uint _startingBid) {... */\n  callvalue\n  dup1\n  iszero\n  tag_1\n  jumpi\n  0x00\n  dup1\n  revert\ntag_1:\n  pop\n  mload(0x40)\n  sub(codesize, bytecodeSize)\n  dup1\n  bytecodeSize\n  dup4\n  codecopy\n  dup2\n  dup2\n  add\n  0x40\n  mstore\n  dup2\n  add\n  swap1\n  tag_2\n  swap2\n  swap1\n  tag_3\n  jump\t// in\ntag_2:\n    /* \"contracts/NFTEnglishAuction.sol\":769:773  _nft */\n  dup3\n    /* \"contracts/NFTEnglishAuction.sol\":755:774  nft = IERC721(_nft) */\n  0xffffffffffffffffffffffffffffffffffffffff\n  and\n  0x80\n  dup2\n  0xffffffffffffffffffffffffffffffffffffffff\n  and\n  0x60\n  shl\n  dup2\n  mstore\n  pop\n  pop\n    /* \"contracts/NFTEnglishAuction.sol\":792:798  _nftId */\n  dup2\n    /* \"contracts/NFTEnglishAuction.sol\":784:798  nftId = _nftId */\n  0xa0\n  dup2\n  dup2\n  mstore\n  pop\n  pop\n    /* \"contracts/NFTEnglishAuction.sol\":824:834  msg.sender */\n  caller\n    /* \"contracts/NFTEnglishAuction.sol\":808:835  seller =payable(msg.sender) */\n  0xffffffffffffffffffffffffffffffffffffffff\n  and\n  0xc0\n  dup2\n  0xffffffffffffffffffffffffffffffffffffffff\n  and\n  0x60\n  shl\n  dup2\n  mstore\n  pop\n  pop\n    /* \"contracts/NFTEnglishAuction.sol\":858:870  _startingBid */\n  dup1\n    /* \"contracts/NFTEnglishAuction.sol\":845:855  highestBid */\n  0x01\n    /* \"contracts/NFTEnglishAuction.sol\":845:870  highestBid = _startingBid */\n  dup2\n  swap1\n  sstore\n  pop\n    /* \"contracts/NFTEnglishAuction.sol\":686:877  constructor (address _nft, uint _nftId, uint _startingBid) {... */\n  pop\n  pop\n  pop\n    /* \"contracts/NFTEnglishAuction.sol\":184:2320  contract EnglishAuction {... */\n  jump(tag_6)\n    /* \"#utility.yul\":7:150   */\ntag_8:\n    /* \"#utility.yul\":64:69   */\n  0x00\n    /* \"#utility.yul\":95:101   */\n  dup2\n    /* \"#utility.yul\":89:102   */\n  mload\n    /* \"#utility.yul\":80:102   */\n  swap1\n  pop\n    /* \"#utility.yul\":111:144   */\n  tag_10\n    /* \"#utility.yul\":138:143   */\n  dup2\n    /* \"#utility.yul\":111:144   */\n  tag_11\n  jump\t// in\ntag_10:\n    /* \"#utility.yul\":7:150   */\n  swap3\n  swap2\n  pop\n  pop\n  jump\t// out\n    /* \"#utility.yul\":156:299   */\ntag_12:\n    /* \"#utility.yul\":213:218   */\n  0x00\n    /* \"#utility.yul\":244:250   */\n  dup2\n    /* \"#utility.yul\":238:251   */\n  mload\n    /* \"#utility.yul\":229:251   */\n  swap1\n  pop\n    /* \"#utility.yul\":260:293   */\n  tag_14\n    /* \"#utility.yul\":287:292   */\n  dup2\n    /* \"#utility.yul\":260:293   */\n  tag_15\n  jump\t// in\ntag_14:\n    /* \"#utility.yul\":156:299   */\n  swap3\n  swap2\n  pop\n  pop\n  jump\t// out\n    /* \"#utility.yul\":305:968   */\ntag_3:\n    /* \"#utility.yul\":393:399   */\n  0x00\n    /* \"#utility.yul\":401:407   */\n  dup1\n    /* \"#utility.yul\":409:415   */\n  0x00\n    /* \"#utility.yul\":458:460   */\n  0x60\n    /* \"#utility.yul\":446:455   */\n  dup5\n    /* \"#utility.yul\":437:444   */\n  dup7\n    /* \"#utility.yul\":433:456   */\n  sub\n    /* \"#utility.yul\":429:461   */\n  slt\n    /* \"#utility.yul\":426:545   */\n  iszero\n  tag_17\n  jumpi\n    /* \"#utility.yul\":464:543   */\n  tag_18\n  tag_19\n  jump\t// in\ntag_18:\n    /* \"#utility.yul\":426:545   */\ntag_17:\n    /* \"#utility.yul\":584:585   */\n  0x00\n    /* \"#utility.yul\":609:673   */\n  tag_20\n    /* \"#utility.yul\":665:672   */\n  dup7\n    /* \"#utility.yul\":656:662   */\n  dup3\n    /* \"#utility.yul\":645:654   */\n  dup8\n    /* \"#utility.yul\":641:663   */\n  add\n    /* \"#utility.yul\":609:673   */\n  tag_8\n  jump\t// in\ntag_20:\n    /* \"#utility.yul\":599:673   */\n  swap4\n  pop\n    /* \"#utility.yul\":555:683   */\n  pop\n    /* \"#utility.yul\":722:724   */\n  0x20\n    /* \"#utility.yul\":748:812   */\n  tag_21\n    /* \"#utility.yul\":804:811   */\n  dup7\n    /* \"#utility.yul\":795:801   */\n  dup3\n    /* \"#utility.yul\":784:793   */\n  dup8\n    /* \"#utility.yul\":780:802   */\n  add\n    /* \"#utility.yul\":748:812   */\n  tag_12\n  jump\t// in\ntag_21:\n    /* \"#utility.yul\":738:812   */\n  swap3\n  pop\n    /* \"#utility.yul\":693:822   */\n  pop\n    /* \"#utility.yul\":861:863   */\n  0x40\n    /* \"#utility.yul\":887:951   */\n  tag_22\n    /* \"#utility.yul\":943:950   */\n  dup7\n    /* \"#utility.yul\":934:940   */\n  dup3\n    /* \"#utility.yul\":923:932   */\n  dup8\n    /* \"#utility.yul\":919:941   */\n  add\n    /* \"#utility.yul\":887:951   */\n  tag_12\n  jump\t// in\ntag_22:\n    /* \"#utility.yul\":877:951   */\n  swap2\n  pop\n    /* \"#utility.yul\":832:961   */\n  pop\n    /* \"#utility.yul\":305:968   */\n  swap3\n  pop\n  swap3\n  pop\n  swap3\n  jump\t// out\n    /* \"#utility.yul\":1055:1151   */\ntag_25:\n    /* \"#utility.yul\":1092:1099   */\n  0x00\n    /* \"#utility.yul\":1121:1145   */\n  tag_27\n    /* \"#utility.yul\":1139:1144   */\n  dup3\n    /* \"#utility.yul\":1121:1145   */\n  tag_28\n  jump\t// in\ntag_27:\n    /* \"#utility.yul\":1110:1145   */\n  swap1\n  pop\n    /* \"#utility.yul\":1055:1151   */\n  swap2\n  swap1\n  pop\n  jump\t// out\n    /* \"#utility.yul\":1157:1283   */\ntag_28:\n    /* \"#utility.yul\":1194:1201   */\n  0x00\n    /* \"#utility.yul\":1234:1276   */\n  0xffffffffffffffffffffffffffffffffffffffff\n    /* \"#utility.yul\":1227:1232   */\n  dup3\n    /* \"#utility.yul\":1223:1277   */\n  and\n    /* \"#utility.yul\":1212:1277   */\n  swap1\n  pop\n    /* \"#utility.yul\":1157:1283   */\n  swap2\n  swap1\n  pop\n  jump\t// out\n    /* \"#utility.yul\":1289:1366   */\ntag_30:\n    /* \"#utility.yul\":1326:1333   */\n  0x00\n    /* \"#utility.yul\":1355:1360   */\n  dup2\n    /* \"#utility.yul\":1344:1360   */\n  swap1\n  pop\n    /* \"#utility.yul\":1289:1366   */\n  swap2\n  swap1\n  pop\n  jump\t// out\n    /* \"#utility.yul\":1495:1612   */\ntag_19:\n    /* \"#utility.yul\":1604:1605   */\n  0x00\n    /* \"#utility.yul\":1601:1602   */\n  dup1\n    /* \"#utility.yul\":1594:1606   */\n  revert\n    /* \"#utility.yul\":1618:1740   */\ntag_11:\n    /* \"#utility.yul\":1691:1715   */\n  tag_36\n    /* \"#utility.yul\":1709:1714   */\n  dup2\n    /* \"#utility.yul\":1691:1715   */\n  tag_25\n  jump\t// in\ntag_36:\n    /* \"#utility.yul\":1684:1689   */\n  dup2\n    /* \"#utility.yul\":1681:1716   */\n  eq\n    /* \"#utility.yul\":1671:1734   */\n  tag_37\n  jumpi\n    /* \"#utility.yul\":1730:1731   */\n  0x00\n    /* \"#utility.yul\":1727:1728   */\n  dup1\n    /* \"#utility.yul\":1720:1732   */\n  revert\n    /* \"#utility.yul\":1671:1734   */\ntag_37:\n    /* \"#utility.yul\":1618:1740   */\n  pop\n  jump\t// out\n    /* \"#utility.yul\":1746:1868   */\ntag_15:\n    /* \"#utility.yul\":1819:1843   */\n  tag_39\n    /* \"#utility.yul\":1837:1842   */\n  dup2\n    /* \"#utility.yul\":1819:1843   */\n  tag_30\n  jump\t// in\ntag_39:\n    /* \"#utility.yul\":1812:1817   */\n  dup2\n    /* \"#utility.yul\":1809:1844   */\n  eq\n    /* \"#utility.yul\":1799:1862   */\n  tag_40\n  jumpi\n    /* \"#utility.yul\":1858:1859   */\n  0x00\n    /* \"#utility.yul\":1855:1856   */\n  dup1\n    /* \"#utility.yul\":1848:1860   */\n  revert\n    /* \"#utility.yul\":1799:1862   */\ntag_40:\n    /* \"#utility.yul\":1746:1868   */\n  pop\n  jump\t// out\n    /* \"contracts/NFTEnglishAuction.sol\":184:2320  contract EnglishAuction {... */\ntag_6:\n  shr(0x60, mload(0x80))\n  mload(0xa0)\n  shr(0x60, mload(0xc0))\n  codecopy(0x00, dataOffset(sub_0), dataSize(sub_0))\n  0x00\n  assignImmutable(\"0xd67d834462ca31eaef1f30157e31659f60355143b7441e6fc7d9eae1fa79f3f8\")\n  0x00\n  assignImmutable(\"0x3b4066bd7b7960752225af105d3beafb5c47a26c5aae7e6798a437b7c0bb33e6\")\n  0x00\n  assignImmutable(\"0x77c32b454bb61eb9df9e3848d0ded3e59753acda90ae58befe564733aec82e4c\")\n  return(0x00, dataSize(sub_0))\nstop\n\nsub_0: assembly {\n        /* \"contracts/NFTEnglishAuction.sol\":184:2320  contract EnglishAuction {... */\n      mstore(0x40, 0x80)\n      jumpi(tag_1, lt(calldatasize, 0x04))\n      shr(0xe0, calldataload(0x00))\n      dup1\n      0x62ea82db\n      gt\n      tag_15\n      jumpi\n      dup1\n      0xbe9a6555\n      gt\n      tag_16\n      jumpi\n      dup1\n      0xbe9a6555\n      eq\n      tag_11\n      jumpi\n      dup1\n      0xc6bc5182\n      eq\n      tag_12\n      jumpi\n      dup1\n      0xd57bde79\n      eq\n      tag_13\n      jumpi\n      dup1\n      0xefbe1c1c\n      eq\n      tag_14\n      jumpi\n      jump(tag_1)\n    tag_16:\n      dup1\n      0x62ea82db\n      eq\n      tag_8\n      jumpi\n      dup1\n      0x7cc3ae8c\n      eq\n      tag_9\n      jumpi\n      dup1\n      0x91f90157\n      eq\n      tag_10\n      jumpi\n      jump(tag_1)\n    tag_15:\n      dup1\n      0x08551a53\n      eq\n      tag_2\n      jumpi\n      dup1\n      0x12fa6feb\n      eq\n      tag_3\n      jumpi\n      dup1\n      0x1998aeef\n      eq\n      tag_4\n      jumpi\n      dup1\n      0x1f2698ab\n      eq\n      tag_5\n      jumpi\n      dup1\n      0x3ccfd60b\n      eq\n      tag_6\n      jumpi\n      dup1\n      0x47ccca02\n      eq\n      tag_7\n      jumpi\n    tag_1:\n      0x00\n      dup1\n      revert\n        /* \"contracts/NFTEnglishAuction.sol\":462:501  address payable public immutable seller */\n    tag_2:\n      callvalue\n      dup1\n      iszero\n      tag_17\n      jumpi\n      0x00\n      dup1\n      revert\n    tag_17:\n      pop\n      tag_18\n      tag_19\n      jump\t// in\n    tag_18:\n      mload(0x40)\n      tag_20\n      swap2\n      swap1\n      tag_21\n      jump\t// in\n    tag_20:\n      mload(0x40)\n      dup1\n      swap2\n      sub\n      swap1\n      return\n        /* \"contracts/NFTEnglishAuction.sol\":557:574  bool public ended */\n    tag_3:\n      callvalue\n      dup1\n      iszero\n      tag_22\n      jumpi\n      0x00\n      dup1\n      revert\n    tag_22:\n      pop\n      tag_23\n      tag_24\n      jump\t// in\n    tag_23:\n      mload(0x40)\n      tag_25\n      swap2\n      swap1\n      tag_26\n      jump\t// in\n    tag_25:\n      mload(0x40)\n      dup1\n      swap2\n      sub\n      swap1\n      return\n        /* \"contracts/NFTEnglishAuction.sol\":1171:1578  function bid() external payable {... */\n    tag_4:\n      tag_27\n      tag_28\n      jump\t// in\n    tag_27:\n      stop\n        /* \"contracts/NFTEnglishAuction.sol\":532:551  bool public started */\n    tag_5:\n      callvalue\n      dup1\n      iszero\n      tag_29\n      jumpi\n      0x00\n      dup1\n      revert\n    tag_29:\n      pop\n      tag_30\n      tag_31\n      jump\t// in\n    tag_30:\n      mload(0x40)\n      tag_32\n      swap2\n      swap1\n      tag_26\n      jump\t// in\n    tag_32:\n      mload(0x40)\n      dup1\n      swap2\n      sub\n      swap1\n      return\n        /* \"contracts/NFTEnglishAuction.sol\":1584:1843  function withdraw() external {... */\n    tag_6:\n      callvalue\n      dup1\n      iszero\n      tag_33\n      jumpi\n      0x00\n      dup1\n      revert\n    tag_33:\n      pop\n      tag_34\n      tag_35\n      jump\t// in\n    tag_34:\n      stop\n        /* \"contracts/NFTEnglishAuction.sol\":394:422  IERC721 public immutable nft */\n    tag_7:\n      callvalue\n      dup1\n      iszero\n      tag_36\n      jumpi\n      0x00\n      dup1\n      revert\n    tag_36:\n      pop\n      tag_37\n      tag_38\n      jump\t// in\n    tag_37:\n      mload(0x40)\n      tag_39\n      swap2\n      swap1\n      tag_40\n      jump\t// in\n    tag_39:\n      mload(0x40)\n      dup1\n      swap2\n      sub\n      swap1\n      return\n        /* \"contracts/NFTEnglishAuction.sol\":643:679  mapping(address => uint) public bids */\n    tag_8:\n      callvalue\n      dup1\n      iszero\n      tag_41\n      jumpi\n      0x00\n      dup1\n      revert\n    tag_41:\n      pop\n      tag_42\n      0x04\n      dup1\n      calldatasize\n      sub\n      dup2\n      add\n      swap1\n      tag_43\n      swap2\n      swap1\n      tag_44\n      jump\t// in\n    tag_43:\n      tag_45\n      jump\t// in\n    tag_42:\n      mload(0x40)\n      tag_46\n      swap2\n      swap1\n      tag_47\n      jump\t// in\n    tag_46:\n      mload(0x40)\n      dup1\n      swap2\n      sub\n      swap1\n      return\n        /* \"contracts/NFTEnglishAuction.sol\":507:526  uint32 public endAt */\n    tag_9:\n      callvalue\n      dup1\n      iszero\n      tag_48\n      jumpi\n      0x00\n      dup1\n      revert\n    tag_48:\n      pop\n      tag_49\n      tag_50\n      jump\t// in\n    tag_49:\n      mload(0x40)\n      tag_51\n      swap2\n      swap1\n      tag_52\n      jump\t// in\n    tag_51:\n      mload(0x40)\n      dup1\n      swap2\n      sub\n      swap1\n      return\n        /* \"contracts/NFTEnglishAuction.sol\":581:609  address public highestBidder */\n    tag_10:\n      callvalue\n      dup1\n      iszero\n      tag_53\n      jumpi\n      0x00\n      dup1\n      revert\n    tag_53:\n      pop\n      tag_54\n      tag_55\n      jump\t// in\n    tag_54:\n      mload(0x40)\n      tag_56\n      swap2\n      swap1\n      tag_57\n      jump\t// in\n    tag_56:\n      mload(0x40)\n      dup1\n      swap2\n      sub\n      swap1\n      return\n        /* \"contracts/NFTEnglishAuction.sol\":883:1165  function start() external {... */\n    tag_11:\n      callvalue\n      dup1\n      iszero\n      tag_58\n      jumpi\n      0x00\n      dup1\n      revert\n    tag_58:\n      pop\n      tag_59\n      tag_60\n      jump\t// in\n    tag_59:\n      stop\n        /* \"contracts/NFTEnglishAuction.sol\":428:455  uint public immutable nftId */\n    tag_12:\n      callvalue\n      dup1\n      iszero\n      tag_61\n      jumpi\n      0x00\n      dup1\n      revert\n    tag_61:\n      pop\n      tag_62\n      tag_63\n      jump\t// in\n    tag_62:\n      mload(0x40)\n      tag_64\n      swap2\n      swap1\n      tag_47\n      jump\t// in\n    tag_64:\n      mload(0x40)\n      dup1\n      swap2\n      sub\n      swap1\n      return\n        /* \"contracts/NFTEnglishAuction.sol\":615:637  uint public highestBid */\n    tag_13:\n      callvalue\n      dup1\n      iszero\n      tag_65\n      jumpi\n      0x00\n      dup1\n      revert\n    tag_65:\n      pop\n      tag_66\n      tag_67\n      jump\t// in\n    tag_66:\n      mload(0x40)\n      tag_68\n      swap2\n      swap1\n      tag_47\n      jump\t// in\n    tag_68:\n      mload(0x40)\n      dup1\n      swap2\n      sub\n      swap1\n      return\n        /* \"contracts/NFTEnglishAuction.sol\":1849:2318  function end() external {... */\n    tag_14:\n      callvalue\n      dup1\n      iszero\n      tag_69\n      jumpi\n      0x00\n      dup1\n      revert\n    tag_69:\n      pop\n      tag_70\n      tag_71\n      jump\t// in\n    tag_70:\n      stop\n        /* \"contracts/NFTEnglishAuction.sol\":462:501  address payable public immutable seller */\n    tag_19:\n      immutable(\"0xd67d834462ca31eaef1f30157e31659f60355143b7441e6fc7d9eae1fa79f3f8\")\n      dup2\n      jump\t// out\n        /* \"contracts/NFTEnglishAuction.sol\":557:574  bool public ended */\n    tag_24:\n      0x00\n      0x05\n      swap1\n      sload\n      swap1\n      0x0100\n      exp\n      swap1\n      div\n      0xff\n      and\n      dup2\n      jump\t// out\n        /* \"contracts/NFTEnglishAuction.sol\":1171:1578  function bid() external payable {... */\n    tag_28:\n        /* \"contracts/NFTEnglishAuction.sol\":1221:1228  started */\n      0x00\n      0x04\n      swap1\n      sload\n      swap1\n      0x0100\n      exp\n      swap1\n      div\n      0xff\n      and\n        /* \"contracts/NFTEnglishAuction.sol\":1213:1244  require(started, \"not started\") */\n      tag_73\n      jumpi\n      mload(0x40)\n      0x08c379a000000000000000000000000000000000000000000000000000000000\n      dup2\n      mstore\n      0x04\n      add\n      tag_74\n      swap1\n      tag_75\n      jump\t// in\n    tag_74:\n      mload(0x40)\n      dup1\n      swap2\n      sub\n      swap1\n      revert\n    tag_73:\n        /* \"contracts/NFTEnglishAuction.sol\":1280:1285  endAt */\n      0x00\n      dup1\n      sload\n      swap1\n      0x0100\n      exp\n      swap1\n      div\n      0xffffffff\n      and\n        /* \"contracts/NFTEnglishAuction.sol\":1262:1285  block.timestamp < endAt */\n      0xffffffff\n      and\n        /* \"contracts/NFTEnglishAuction.sol\":1262:1277  block.timestamp */\n      timestamp\n        /* \"contracts/NFTEnglishAuction.sol\":1262:1285  block.timestamp < endAt */\n      lt\n        /* \"contracts/NFTEnglishAuction.sol\":1254:1295  require(block.timestamp < endAt, \"ended\") */\n      tag_76\n      jumpi\n      mload(0x40)\n      0x08c379a000000000000000000000000000000000000000000000000000000000\n      dup2\n      mstore\n      0x04\n      add\n      tag_77\n      swap1\n      tag_78\n      jump\t// in\n    tag_77:\n      mload(0x40)\n      dup1\n      swap2\n      sub\n      swap1\n      revert\n    tag_76:\n        /* \"contracts/NFTEnglishAuction.sol\":1325:1335  highestBid */\n      sload(0x01)\n        /* \"contracts/NFTEnglishAuction.sol\":1313:1322  msg.value */\n      callvalue\n        /* \"contracts/NFTEnglishAuction.sol\":1313:1335  msg.value > highestBid */\n      gt\n        /* \"contracts/NFTEnglishAuction.sol\":1305:1359  require(msg.value > highestBid, \"value < highest bid\") */\n      tag_79\n      jumpi\n      mload(0x40)\n      0x08c379a000000000000000000000000000000000000000000000000000000000\n      dup2\n      mstore\n      0x04\n      add\n      tag_80\n      swap1\n      tag_81\n      jump\t// in\n    tag_80:\n      mload(0x40)\n      dup1\n      swap2\n      sub\n      swap1\n      revert\n    tag_79:\n        /* \"contracts/NFTEnglishAuction.sol\":1399:1400  0 */\n      0x00\n        /* \"contracts/NFTEnglishAuction.sol\":1374:1401  highestBidder != address(0) */\n      0xffffffffffffffffffffffffffffffffffffffff\n      and\n        /* \"contracts/NFTEnglishAuction.sol\":1374:1387  highestBidder */\n      0x00\n      0x06\n      swap1\n      sload\n      swap1\n      0x0100\n      exp\n      swap1\n      div\n      0xffffffffffffffffffffffffffffffffffffffff\n      and\n        /* \"contracts/NFTEnglishAuction.sol\":1374:1401  highestBidder != address(0) */\n      0xffffffffffffffffffffffffffffffffffffffff\n      and\n      eq\n        /* \"contracts/NFTEnglishAuction.sol\":1370:1461  if (highestBidder != address(0)) {... */\n      tag_82\n      jumpi\n        /* \"contracts/NFTEnglishAuction.sol\":1440:1450  highestBid */\n      sload(0x01)\n        /* \"contracts/NFTEnglishAuction.sol\":1417:1421  bids */\n      0x02\n        /* \"contracts/NFTEnglishAuction.sol\":1417:1436  bids[highestBidder] */\n      0x00\n        /* \"contracts/NFTEnglishAuction.sol\":1422:1435  highestBidder */\n      dup1\n      0x06\n      swap1\n      sload\n      swap1\n      0x0100\n      exp\n      swap1\n      div\n      0xffffffffffffffffffffffffffffffffffffffff\n      and\n        /* \"contracts/NFTEnglishAuction.sol\":1417:1436  bids[highestBidder] */\n      0xffffffffffffffffffffffffffffffffffffffff\n      and\n      0xffffffffffffffffffffffffffffffffffffffff\n      and\n      dup2\n      mstore\n      0x20\n      add\n      swap1\n      dup2\n      mstore\n      0x20\n      add\n      0x00\n      keccak256\n      0x00\n        /* \"contracts/NFTEnglishAuction.sol\":1417:1450  bids[highestBidder] += highestBid */\n      dup3\n      dup3\n      sload\n      tag_83\n      swap2\n      swap1\n      tag_84\n      jump\t// in\n    tag_83:\n      swap3\n      pop\n      pop\n      dup2\n      swap1\n      sstore\n      pop\n        /* \"contracts/NFTEnglishAuction.sol\":1370:1461  if (highestBidder != address(0)) {... */\n    tag_82:\n        /* \"contracts/NFTEnglishAuction.sol\":1484:1493  msg.value */\n      callvalue\n        /* \"contracts/NFTEnglishAuction.sol\":1471:1481  highestBid */\n      0x01\n        /* \"contracts/NFTEnglishAuction.sol\":1471:1493  highestBid = msg.value */\n      dup2\n      swap1\n      sstore\n      pop\n        /* \"contracts/NFTEnglishAuction.sol\":1519:1529  msg.sender */\n      caller\n        /* \"contracts/NFTEnglishAuction.sol\":1503:1516  highestBidder */\n      0x00\n      0x06\n        /* \"contracts/NFTEnglishAuction.sol\":1503:1529  highestBidder = msg.sender */\n      0x0100\n      exp\n      dup2\n      sload\n      dup2\n      0xffffffffffffffffffffffffffffffffffffffff\n      mul\n      not\n      and\n      swap1\n      dup4\n      0xffffffffffffffffffffffffffffffffffffffff\n      and\n      mul\n      or\n      swap1\n      sstore\n      pop\n        /* \"contracts/NFTEnglishAuction.sol\":1549:1559  msg.sender */\n      caller\n        /* \"contracts/NFTEnglishAuction.sol\":1545:1571  Bid(msg.sender, msg.value) */\n      0xffffffffffffffffffffffffffffffffffffffff\n      and\n      0xe684a55f31b79eca403df938249029212a5925ec6be8012e099b45bc1019e5d2\n        /* \"contracts/NFTEnglishAuction.sol\":1561:1570  msg.value */\n      callvalue\n        /* \"contracts/NFTEnglishAuction.sol\":1545:1571  Bid(msg.sender, msg.value) */\n      mload(0x40)\n      tag_85\n      swap2\n      swap1\n      tag_47\n      jump\t// in\n    tag_85:\n      mload(0x40)\n      dup1\n      swap2\n      sub\n      swap1\n      log2\n        /* \"contracts/NFTEnglishAuction.sol\":1171:1578  function bid() external payable {... */\n      jump\t// out\n        /* \"contracts/NFTEnglishAuction.sol\":532:551  bool public started */\n    tag_31:\n      0x00\n      0x04\n      swap1\n      sload\n      swap1\n      0x0100\n      exp\n      swap1\n      div\n      0xff\n      and\n      dup2\n      jump\t// out\n        /* \"contracts/NFTEnglishAuction.sol\":1584:1843  function withdraw() external {... */\n    tag_35:\n        /* \"contracts/NFTEnglishAuction.sol\":1623:1631  uint bal */\n      0x00\n        /* \"contracts/NFTEnglishAuction.sol\":1634:1638  bids */\n      0x02\n        /* \"contracts/NFTEnglishAuction.sol\":1634:1650  bids[msg.sender] */\n      0x00\n        /* \"contracts/NFTEnglishAuction.sol\":1639:1649  msg.sender */\n      caller\n        /* \"contracts/NFTEnglishAuction.sol\":1634:1650  bids[msg.sender] */\n      0xffffffffffffffffffffffffffffffffffffffff\n      and\n      0xffffffffffffffffffffffffffffffffffffffff\n      and\n      dup2\n      mstore\n      0x20\n      add\n      swap1\n      dup2\n      mstore\n      0x20\n      add\n      0x00\n      keccak256\n      sload\n        /* \"contracts/NFTEnglishAuction.sol\":1623:1650  uint bal = bids[msg.sender] */\n      swap1\n      pop\n        /* \"contracts/NFTEnglishAuction.sol\":1679:1680  0 */\n      0x00\n        /* \"contracts/NFTEnglishAuction.sol\":1660:1664  bids */\n      0x02\n        /* \"contracts/NFTEnglishAuction.sol\":1660:1676  bids[msg.sender] */\n      0x00\n        /* \"contracts/NFTEnglishAuction.sol\":1665:1675  msg.sender */\n      caller\n        /* \"contracts/NFTEnglishAuction.sol\":1660:1676  bids[msg.sender] */\n      0xffffffffffffffffffffffffffffffffffffffff\n      and\n      0xffffffffffffffffffffffffffffffffffffffff\n      and\n      dup2\n      mstore\n      0x20\n      add\n      swap1\n      dup2\n      mstore\n      0x20\n      add\n      0x00\n      keccak256\n        /* \"contracts/NFTEnglishAuction.sol\":1660:1680  bids[msg.sender] = 0 */\n      dup2\n      swap1\n      sstore\n      pop\n        /* \"contracts/NFTEnglishAuction.sol\":1691:1703  bool success */\n      0x00\n        /* \"contracts/NFTEnglishAuction.sol\":1717:1727  msg.sender */\n      caller\n        /* \"contracts/NFTEnglishAuction.sol\":1709:1733  payable(msg.sender).call */\n      0xffffffffffffffffffffffffffffffffffffffff\n      and\n        /* \"contracts/NFTEnglishAuction.sol\":1741:1744  bal */\n      dup3\n        /* \"contracts/NFTEnglishAuction.sol\":1709:1749  payable(msg.sender).call{value: bal}(\"\") */\n      mload(0x40)\n      tag_87\n      swap1\n      tag_88\n      jump\t// in\n    tag_87:\n      0x00\n      mload(0x40)\n      dup1\n      dup4\n      sub\n      dup2\n      dup6\n      dup8\n      gas\n      call\n      swap3\n      pop\n      pop\n      pop\n      returndatasize\n      dup1\n      0x00\n      dup2\n      eq\n      tag_91\n      jumpi\n      mload(0x40)\n      swap2\n      pop\n      and(add(returndatasize, 0x3f), not(0x1f))\n      dup3\n      add\n      0x40\n      mstore\n      returndatasize\n      dup3\n      mstore\n      returndatasize\n      0x00\n      0x20\n      dup5\n      add\n      returndatacopy\n      jump(tag_90)\n    tag_91:\n      0x60\n      swap2\n      pop\n    tag_90:\n      pop\n        /* \"contracts/NFTEnglishAuction.sol\":1690:1749  (bool success, ) = payable(msg.sender).call{value: bal}(\"\") */\n      pop\n      swap1\n      pop\n        /* \"contracts/NFTEnglishAuction.sol\":1768:1775  success */\n      dup1\n        /* \"contracts/NFTEnglishAuction.sol\":1759:1796  require (success, \"withdrawl failed\") */\n      tag_92\n      jumpi\n      mload(0x40)\n      0x08c379a000000000000000000000000000000000000000000000000000000000\n      dup2\n      mstore\n      0x04\n      add\n      tag_93\n      swap1\n      tag_94\n      jump\t// in\n    tag_93:\n      mload(0x40)\n      dup1\n      swap2\n      sub\n      swap1\n      revert\n    tag_92:\n        /* \"contracts/NFTEnglishAuction.sol\":1820:1830  msg.sender */\n      caller\n        /* \"contracts/NFTEnglishAuction.sol\":1811:1836  Withdraw(msg.sender, bal) */\n      0xffffffffffffffffffffffffffffffffffffffff\n      and\n      0x884edad9ce6fa2440d8a54cc123490eb96d2768479d49ff9c7366125a9424364\n        /* \"contracts/NFTEnglishAuction.sol\":1832:1835  bal */\n      dup4\n        /* \"contracts/NFTEnglishAuction.sol\":1811:1836  Withdraw(msg.sender, bal) */\n      mload(0x40)\n      tag_95\n      swap2\n      swap1\n      tag_47\n      jump\t// in\n    tag_95:\n      mload(0x40)\n      dup1\n      swap2\n      sub\n      swap1\n      log2\n        /* \"contracts/NFTEnglishAuction.sol\":1613:1843  {... */\n      pop\n      pop\n        /* \"contracts/NFTEnglishAuction.sol\":1584:1843  function withdraw() external {... */\n      jump\t// out\n        /* \"contracts/NFTEnglishAuction.sol\":394:422  IERC721 public immutable nft */\n    tag_38:\n      immutable(\"0x77c32b454bb61eb9df9e3848d0ded3e59753acda90ae58befe564733aec82e4c\")\n      dup2\n      jump\t// out\n        /* \"contracts/NFTEnglishAuction.sol\":643:679  mapping(address => uint) public bids */\n    tag_45:\n      mstore(0x20, 0x02)\n      dup1\n      0x00\n      mstore\n      keccak256(0x00, 0x40)\n      0x00\n      swap2\n      pop\n      swap1\n      pop\n      sload\n      dup2\n      jump\t// out\n        /* \"contracts/NFTEnglishAuction.sol\":507:526  uint32 public endAt */\n    tag_50:\n      0x00\n      dup1\n      sload\n      swap1\n      0x0100\n      exp\n      swap1\n      div\n      0xffffffff\n      and\n      dup2\n      jump\t// out\n        /* \"contracts/NFTEnglishAuction.sol\":581:609  address public highestBidder */\n    tag_55:\n      0x00\n      0x06\n      swap1\n      sload\n      swap1\n      0x0100\n      exp\n      swap1\n      div\n      0xffffffffffffffffffffffffffffffffffffffff\n      and\n      dup2\n      jump\t// out\n        /* \"contracts/NFTEnglishAuction.sol\":883:1165  function start() external {... */\n    tag_60:\n        /* \"contracts/NFTEnglishAuction.sol\":941:947  seller */\n      immutable(\"0xd67d834462ca31eaef1f30157e31659f60355143b7441e6fc7d9eae1fa79f3f8\")\n        /* \"contracts/NFTEnglishAuction.sol\":927:947  msg.sender == seller */\n      0xffffffffffffffffffffffffffffffffffffffff\n      and\n        /* \"contracts/NFTEnglishAuction.sol\":927:937  msg.sender */\n      caller\n        /* \"contracts/NFTEnglishAuction.sol\":927:947  msg.sender == seller */\n      0xffffffffffffffffffffffffffffffffffffffff\n      and\n      eq\n        /* \"contracts/NFTEnglishAuction.sol\":919:962  require(msg.sender == seller, \"not seller\") */\n      tag_97\n      jumpi\n      mload(0x40)\n      0x08c379a000000000000000000000000000000000000000000000000000000000\n      dup2\n      mstore\n      0x04\n      add\n      tag_98\n      swap1\n      tag_99\n      jump\t// in\n    tag_98:\n      mload(0x40)\n      dup1\n      swap2\n      sub\n      swap1\n      revert\n    tag_97:\n        /* \"contracts/NFTEnglishAuction.sol\":981:988  started */\n      0x00\n      0x04\n      swap1\n      sload\n      swap1\n      0x0100\n      exp\n      swap1\n      div\n      0xff\n      and\n        /* \"contracts/NFTEnglishAuction.sol\":980:988  !started */\n      iszero\n        /* \"contracts/NFTEnglishAuction.sol\":972:1000  require(!started, \"started\") */\n      tag_100\n      jumpi\n      mload(0x40)\n      0x08c379a000000000000000000000000000000000000000000000000000000000\n      dup2\n      mstore\n      0x04\n      add\n      tag_101\n      swap1\n      tag_102\n      jump\t// in\n    tag_101:\n      mload(0x40)\n      dup1\n      swap2\n      sub\n      swap1\n      revert\n    tag_100:\n        /* \"contracts/NFTEnglishAuction.sol\":1021:1025  true */\n      0x01\n        /* \"contracts/NFTEnglishAuction.sol\":1011:1018  started */\n      0x00\n      0x04\n        /* \"contracts/NFTEnglishAuction.sol\":1011:1025  started = true */\n      0x0100\n      exp\n      dup2\n      sload\n      dup2\n      0xff\n      mul\n      not\n      and\n      swap1\n      dup4\n      iszero\n      iszero\n      mul\n      or\n      swap1\n      sstore\n      pop\n        /* \"contracts/NFTEnglishAuction.sol\":1068:1074  7 days */\n      0x093a80\n        /* \"contracts/NFTEnglishAuction.sol\":1050:1065  block.timestamp */\n      timestamp\n        /* \"contracts/NFTEnglishAuction.sol\":1050:1074  block.timestamp + 7 days */\n      tag_103\n      swap2\n      swap1\n      tag_84\n      jump\t// in\n    tag_103:\n        /* \"contracts/NFTEnglishAuction.sol\":1035:1040  endAt */\n      0x00\n      dup1\n        /* \"contracts/NFTEnglishAuction.sol\":1035:1075  endAt = uint32(block.timestamp + 7 days) */\n      0x0100\n      exp\n      dup2\n      sload\n      dup2\n      0xffffffff\n      mul\n      not\n      and\n      swap1\n      dup4\n      0xffffffff\n      and\n      mul\n      or\n      swap1\n      sstore\n      pop\n        /* \"contracts/NFTEnglishAuction.sol\":1085:1088  nft */\n      immutable(\"0x77c32b454bb61eb9df9e3848d0ded3e59753acda90ae58befe564733aec82e4c\")\n        /* \"contracts/NFTEnglishAuction.sol\":1085:1101  nft.transferFrom */\n      0xffffffffffffffffffffffffffffffffffffffff\n      and\n      0x23b872dd\n        /* \"contracts/NFTEnglishAuction.sol\":1102:1112  msg.sender */\n      caller\n        /* \"contracts/NFTEnglishAuction.sol\":1122:1126  this */\n      address\n        /* \"contracts/NFTEnglishAuction.sol\":1129:1134  nftId */\n      immutable(\"0x3b4066bd7b7960752225af105d3beafb5c47a26c5aae7e6798a437b7c0bb33e6\")\n        /* \"contracts/NFTEnglishAuction.sol\":1085:1135  nft.transferFrom(msg.sender, address(this), nftId) */\n      mload(0x40)\n      dup5\n      0xffffffff\n      and\n      0xe0\n      shl\n      dup2\n      mstore\n      0x04\n      add\n      tag_104\n      swap4\n      swap3\n      swap2\n      swap1\n      tag_105\n      jump\t// in\n    tag_104:\n      0x00\n      mload(0x40)\n      dup1\n      dup4\n      sub\n      dup2\n      0x00\n      dup8\n      dup1\n      extcodesize\n      iszero\n      dup1\n      iszero\n      tag_106\n      jumpi\n      0x00\n      dup1\n      revert\n    tag_106:\n      pop\n      gas\n      call\n      iszero\n      dup1\n      iszero\n      tag_108\n      jumpi\n      returndatasize\n      0x00\n      dup1\n      returndatacopy\n      revert(0x00, returndatasize)\n    tag_108:\n      pop\n      pop\n      pop\n      pop\n        /* \"contracts/NFTEnglishAuction.sol\":1151:1158  Start() */\n      0x1b55ba3aa851a46be3b365aee5b5c140edd620d578922f3e8466d2cbd96f954b\n      mload(0x40)\n      mload(0x40)\n      dup1\n      swap2\n      sub\n      swap1\n      log1\n        /* \"contracts/NFTEnglishAuction.sol\":883:1165  function start() external {... */\n      jump\t// out\n        /* \"contracts/NFTEnglishAuction.sol\":428:455  uint public immutable nftId */\n    tag_63:\n      immutable(\"0x3b4066bd7b7960752225af105d3beafb5c47a26c5aae7e6798a437b7c0bb33e6\")\n      dup2\n      jump\t// out\n        /* \"contracts/NFTEnglishAuction.sol\":615:637  uint public highestBid */\n    tag_67:\n      sload(0x01)\n      dup2\n      jump\t// out\n        /* \"contracts/NFTEnglishAuction.sol\":1849:2318  function end() external {... */\n    tag_71:\n        /* \"contracts/NFTEnglishAuction.sol\":1891:1898  started */\n      0x00\n      0x04\n      swap1\n      sload\n      swap1\n      0x0100\n      exp\n      swap1\n      div\n      0xff\n      and\n        /* \"contracts/NFTEnglishAuction.sol\":1883:1914  require(started, \"not started\") */\n      tag_110\n      jumpi\n      mload(0x40)\n      0x08c379a000000000000000000000000000000000000000000000000000000000\n      dup2\n      mstore\n      0x04\n      add\n      tag_111\n      swap1\n      tag_75\n      jump\t// in\n    tag_111:\n      mload(0x40)\n      dup1\n      swap2\n      sub\n      swap1\n      revert\n    tag_110:\n        /* \"contracts/NFTEnglishAuction.sol\":1933:1938  ended */\n      0x00\n      0x05\n      swap1\n      sload\n      swap1\n      0x0100\n      exp\n      swap1\n      div\n      0xff\n      and\n        /* \"contracts/NFTEnglishAuction.sol\":1932:1938  !ended */\n      iszero\n        /* \"contracts/NFTEnglishAuction.sol\":1924:1948  require(!ended, \"ended\") */\n      tag_112\n      jumpi\n      mload(0x40)\n      0x08c379a000000000000000000000000000000000000000000000000000000000\n      dup2\n      mstore\n      0x04\n      add\n      tag_113\n      swap1\n      tag_78\n      jump\t// in\n    tag_113:\n      mload(0x40)\n      dup1\n      swap2\n      sub\n      swap1\n      revert\n    tag_112:\n        /* \"contracts/NFTEnglishAuction.sol\":1985:1990  endAt */\n      0x00\n      dup1\n      sload\n      swap1\n      0x0100\n      exp\n      swap1\n      div\n      0xffffffff\n      and\n        /* \"contracts/NFTEnglishAuction.sol\":1966:1990  block.timestamp >= endAt */\n      0xffffffff\n      and\n        /* \"contracts/NFTEnglishAuction.sol\":1966:1981  block.timestamp */\n      timestamp\n        /* \"contracts/NFTEnglishAuction.sol\":1966:1990  block.timestamp >= endAt */\n      lt\n      iszero\n        /* \"contracts/NFTEnglishAuction.sol\":1958:2004  require(block.timestamp >= endAt, \"not ended\") */\n      tag_114\n      jumpi\n      mload(0x40)\n      0x08c379a000000000000000000000000000000000000000000000000000000000\n      dup2\n      mstore\n      0x04\n      add\n      tag_115\n      swap1\n      tag_116\n      jump\t// in\n    tag_115:\n      mload(0x40)\n      dup1\n      swap2\n      sub\n      swap1\n      revert\n    tag_114:\n        /* \"contracts/NFTEnglishAuction.sol\":2023:2027  true */\n      0x01\n        /* \"contracts/NFTEnglishAuction.sol\":2015:2020  ended */\n      0x00\n      0x05\n        /* \"contracts/NFTEnglishAuction.sol\":2015:2027  ended = true */\n      0x0100\n      exp\n      dup2\n      sload\n      dup2\n      0xff\n      mul\n      not\n      and\n      swap1\n      dup4\n      iszero\n      iszero\n      mul\n      or\n      swap1\n      sstore\n      pop\n        /* \"contracts/NFTEnglishAuction.sol\":2066:2067  0 */\n      0x00\n        /* \"contracts/NFTEnglishAuction.sol\":2041:2068  highestBidder != address(0) */\n      0xffffffffffffffffffffffffffffffffffffffff\n      and\n        /* \"contracts/NFTEnglishAuction.sol\":2041:2054  highestBidder */\n      0x00\n      0x06\n      swap1\n      sload\n      swap1\n      0x0100\n      exp\n      swap1\n      div\n      0xffffffffffffffffffffffffffffffffffffffff\n      and\n        /* \"contracts/NFTEnglishAuction.sol\":2041:2068  highestBidder != address(0) */\n      0xffffffffffffffffffffffffffffffffffffffff\n      and\n      eq\n        /* \"contracts/NFTEnglishAuction.sol\":2037:2266  if (highestBidder != address(0)) {... */\n      tag_117\n      jumpi\n        /* \"contracts/NFTEnglishAuction.sol\":2084:2087  nft */\n      immutable(\"0x77c32b454bb61eb9df9e3848d0ded3e59753acda90ae58befe564733aec82e4c\")\n        /* \"contracts/NFTEnglishAuction.sol\":2084:2100  nft.transferFrom */\n      0xffffffffffffffffffffffffffffffffffffffff\n      and\n      0x23b872dd\n        /* \"contracts/NFTEnglishAuction.sol\":2109:2113  this */\n      address\n        /* \"contracts/NFTEnglishAuction.sol\":2116:2129  highestBidder */\n      0x00\n      0x06\n      swap1\n      sload\n      swap1\n      0x0100\n      exp\n      swap1\n      div\n      0xffffffffffffffffffffffffffffffffffffffff\n      and\n        /* \"contracts/NFTEnglishAuction.sol\":2131:2136  nftId */\n      immutable(\"0x3b4066bd7b7960752225af105d3beafb5c47a26c5aae7e6798a437b7c0bb33e6\")\n        /* \"contracts/NFTEnglishAuction.sol\":2084:2137  nft.transferFrom(address(this), highestBidder, nftId) */\n      mload(0x40)\n      dup5\n      0xffffffff\n      and\n      0xe0\n      shl\n      dup2\n      mstore\n      0x04\n      add\n      tag_118\n      swap4\n      swap3\n      swap2\n      swap1\n      tag_105\n      jump\t// in\n    tag_118:\n      0x00\n      mload(0x40)\n      dup1\n      dup4\n      sub\n      dup2\n      0x00\n      dup8\n      dup1\n      extcodesize\n      iszero\n      dup1\n      iszero\n      tag_119\n      jumpi\n      0x00\n      dup1\n      revert\n    tag_119:\n      pop\n      gas\n      call\n      iszero\n      dup1\n      iszero\n      tag_121\n      jumpi\n      returndatasize\n      0x00\n      dup1\n      returndatacopy\n      revert(0x00, returndatasize)\n    tag_121:\n      pop\n      pop\n      pop\n      pop\n        /* \"contracts/NFTEnglishAuction.sol\":2151:2157  seller */\n      immutable(\"0xd67d834462ca31eaef1f30157e31659f60355143b7441e6fc7d9eae1fa79f3f8\")\n        /* \"contracts/NFTEnglishAuction.sol\":2151:2166  seller.transfer */\n      0xffffffffffffffffffffffffffffffffffffffff\n      and\n        /* \"contracts/NFTEnglishAuction.sol\":2151:2178  seller.transfer(highestBid) */\n      0x08fc\n        /* \"contracts/NFTEnglishAuction.sol\":2167:2177  highestBid */\n      sload(0x01)\n        /* \"contracts/NFTEnglishAuction.sol\":2151:2178  seller.transfer(highestBid) */\n      swap1\n      dup2\n      iszero\n      mul\n      swap1\n      mload(0x40)\n      0x00\n      mload(0x40)\n      dup1\n      dup4\n      sub\n      dup2\n      dup6\n      dup9\n      dup9\n      call\n      swap4\n      pop\n      pop\n      pop\n      pop\n      iszero\n      dup1\n      iszero\n      tag_123\n      jumpi\n      returndatasize\n      0x00\n      dup1\n      returndatacopy\n      revert(0x00, returndatasize)\n    tag_123:\n      pop\n        /* \"contracts/NFTEnglishAuction.sol\":2037:2266  if (highestBidder != address(0)) {... */\n      jump(tag_124)\n    tag_117:\n        /* \"contracts/NFTEnglishAuction.sol\":2209:2212  nft */\n      immutable(\"0x77c32b454bb61eb9df9e3848d0ded3e59753acda90ae58befe564733aec82e4c\")\n        /* \"contracts/NFTEnglishAuction.sol\":2209:2225  nft.transferFrom */\n      0xffffffffffffffffffffffffffffffffffffffff\n      and\n      0x23b872dd\n        /* \"contracts/NFTEnglishAuction.sol\":2234:2238  this */\n      address\n        /* \"contracts/NFTEnglishAuction.sol\":2241:2247  seller */\n      immutable(\"0xd67d834462ca31eaef1f30157e31659f60355143b7441e6fc7d9eae1fa79f3f8\")\n        /* \"contracts/NFTEnglishAuction.sol\":2249:2254  nftId */\n      immutable(\"0x3b4066bd7b7960752225af105d3beafb5c47a26c5aae7e6798a437b7c0bb33e6\")\n        /* \"contracts/NFTEnglishAuction.sol\":2209:2255  nft.transferFrom(address(this), seller, nftId) */\n      mload(0x40)\n      dup5\n      0xffffffff\n      and\n      0xe0\n      shl\n      dup2\n      mstore\n      0x04\n      add\n      tag_125\n      swap4\n      swap3\n      swap2\n      swap1\n      tag_126\n      jump\t// in\n    tag_125:\n      0x00\n      mload(0x40)\n      dup1\n      dup4\n      sub\n      dup2\n      0x00\n      dup8\n      dup1\n      extcodesize\n      iszero\n      dup1\n      iszero\n      tag_127\n      jumpi\n      0x00\n      dup1\n      revert\n    tag_127:\n      pop\n      gas\n      call\n      iszero\n      dup1\n      iszero\n      tag_129\n      jumpi\n      returndatasize\n      0x00\n      dup1\n      returndatacopy\n      revert(0x00, returndatasize)\n    tag_129:\n      pop\n      pop\n      pop\n      pop\n        /* \"contracts/NFTEnglishAuction.sol\":2037:2266  if (highestBidder != address(0)) {... */\n    tag_124:\n        /* \"contracts/NFTEnglishAuction.sol\":2281:2311  End(highestBidder, highestBid) */\n      0x7d7570b046e5ead3a4f3fbc9fa2445113625a1e79823776146316bafed6b8cc5\n        /* \"contracts/NFTEnglishAuction.sol\":2285:2298  highestBidder */\n      0x00\n      0x06\n      swap1\n      sload\n      swap1\n      0x0100\n      exp\n      swap1\n      div\n      0xffffffffffffffffffffffffffffffffffffffff\n      and\n        /* \"contracts/NFTEnglishAuction.sol\":2300:2310  highestBid */\n      sload(0x01)\n        /* \"contracts/NFTEnglishAuction.sol\":2281:2311  End(highestBidder, highestBid) */\n      mload(0x40)\n      tag_130\n      swap3\n      swap2\n      swap1\n      tag_131\n      jump\t// in\n    tag_130:\n      mload(0x40)\n      dup1\n      swap2\n      sub\n      swap1\n      log1\n        /* \"contracts/NFTEnglishAuction.sol\":1849:2318  function end() external {... */\n      jump\t// out\n        /* \"#utility.yul\":7:146   */\n    tag_133:\n        /* \"#utility.yul\":53:58   */\n      0x00\n        /* \"#utility.yul\":91:97   */\n      dup2\n        /* \"#utility.yul\":78:98   */\n      calldataload\n        /* \"#utility.yul\":69:98   */\n      swap1\n      pop\n        /* \"#utility.yul\":107:140   */\n      tag_135\n        /* \"#utility.yul\":134:139   */\n      dup2\n        /* \"#utility.yul\":107:140   */\n      tag_136\n      jump\t// in\n    tag_135:\n        /* \"#utility.yul\":7:146   */\n      swap3\n      swap2\n      pop\n      pop\n      jump\t// out\n        /* \"#utility.yul\":152:481   */\n    tag_44:\n        /* \"#utility.yul\":211:217   */\n      0x00\n        /* \"#utility.yul\":260:262   */\n      0x20\n        /* \"#utility.yul\":248:257   */\n      dup3\n        /* \"#utility.yul\":239:246   */\n      dup5\n        /* \"#utility.yul\":235:258   */\n      sub\n        /* \"#utility.yul\":231:263   */\n      slt\n        /* \"#utility.yul\":228:347   */\n      iszero\n      tag_138\n      jumpi\n        /* \"#utility.yul\":266:345   */\n      tag_139\n      tag_140\n      jump\t// in\n    tag_139:\n        /* \"#utility.yul\":228:347   */\n    tag_138:\n        /* \"#utility.yul\":386:387   */\n      0x00\n        /* \"#utility.yul\":411:464   */\n      tag_141\n        /* \"#utility.yul\":456:463   */\n      dup5\n        /* \"#utility.yul\":447:453   */\n      dup3\n        /* \"#utility.yul\":436:445   */\n      dup6\n        /* \"#utility.yul\":432:454   */\n      add\n        /* \"#utility.yul\":411:464   */\n      tag_133\n      jump\t// in\n    tag_141:\n        /* \"#utility.yul\":401:464   */\n      swap2\n      pop\n        /* \"#utility.yul\":357:474   */\n      pop\n        /* \"#utility.yul\":152:481   */\n      swap3\n      swap2\n      pop\n      pop\n      jump\t// out\n        /* \"#utility.yul\":487:634   */\n    tag_142:\n        /* \"#utility.yul\":582:627   */\n      tag_144\n        /* \"#utility.yul\":621:626   */\n      dup2\n        /* \"#utility.yul\":582:627   */\n      tag_145\n      jump\t// in\n    tag_144:\n        /* \"#utility.yul\":577:580   */\n      dup3\n        /* \"#utility.yul\":570:628   */\n      mstore\n        /* \"#utility.yul\":487:634   */\n      pop\n      pop\n      jump\t// out\n        /* \"#utility.yul\":640:782   */\n    tag_146:\n        /* \"#utility.yul\":743:775   */\n      tag_148\n        /* \"#utility.yul\":769:774   */\n      dup2\n        /* \"#utility.yul\":743:775   */\n      tag_149\n      jump\t// in\n    tag_148:\n        /* \"#utility.yul\":738:741   */\n      dup3\n        /* \"#utility.yul\":731:776   */\n      mstore\n        /* \"#utility.yul\":640:782   */\n      pop\n      pop\n      jump\t// out\n        /* \"#utility.yul\":788:906   */\n    tag_150:\n        /* \"#utility.yul\":875:899   */\n      tag_152\n        /* \"#utility.yul\":893:898   */\n      dup2\n        /* \"#utility.yul\":875:899   */\n      tag_153\n      jump\t// in\n    tag_152:\n        /* \"#utility.yul\":870:873   */\n      dup3\n        /* \"#utility.yul\":863:900   */\n      mstore\n        /* \"#utility.yul\":788:906   */\n      pop\n      pop\n      jump\t// out\n        /* \"#utility.yul\":912:1021   */\n    tag_154:\n        /* \"#utility.yul\":993:1014   */\n      tag_156\n        /* \"#utility.yul\":1008:1013   */\n      dup2\n        /* \"#utility.yul\":993:1014   */\n      tag_157\n      jump\t// in\n    tag_156:\n        /* \"#utility.yul\":988:991   */\n      dup3\n        /* \"#utility.yul\":981:1015   */\n      mstore\n        /* \"#utility.yul\":912:1021   */\n      pop\n      pop\n      jump\t// out\n        /* \"#utility.yul\":1027:1186   */\n    tag_158:\n        /* \"#utility.yul\":1128:1179   */\n      tag_160\n        /* \"#utility.yul\":1173:1178   */\n      dup2\n        /* \"#utility.yul\":1128:1179   */\n      tag_161\n      jump\t// in\n    tag_160:\n        /* \"#utility.yul\":1123:1126   */\n      dup3\n        /* \"#utility.yul\":1116:1180   */\n      mstore\n        /* \"#utility.yul\":1027:1186   */\n      pop\n      pop\n      jump\t// out\n        /* \"#utility.yul\":1192:1558   */\n    tag_162:\n        /* \"#utility.yul\":1334:1337   */\n      0x00\n        /* \"#utility.yul\":1355:1422   */\n      tag_164\n        /* \"#utility.yul\":1419:1421   */\n      0x13\n        /* \"#utility.yul\":1414:1417   */\n      dup4\n        /* \"#utility.yul\":1355:1422   */\n      tag_165\n      jump\t// in\n    tag_164:\n        /* \"#utility.yul\":1348:1422   */\n      swap2\n      pop\n        /* \"#utility.yul\":1431:1524   */\n      tag_166\n        /* \"#utility.yul\":1520:1523   */\n      dup3\n        /* \"#utility.yul\":1431:1524   */\n      tag_167\n      jump\t// in\n    tag_166:\n        /* \"#utility.yul\":1549:1551   */\n      0x20\n        /* \"#utility.yul\":1544:1547   */\n      dup3\n        /* \"#utility.yul\":1540:1552   */\n      add\n        /* \"#utility.yul\":1533:1552   */\n      swap1\n      pop\n        /* \"#utility.yul\":1192:1558   */\n      swap2\n      swap1\n      pop\n      jump\t// out\n        /* \"#utility.yul\":1564:1929   */\n    tag_168:\n        /* \"#utility.yul\":1706:1709   */\n      0x00\n        /* \"#utility.yul\":1727:1793   */\n      tag_170\n        /* \"#utility.yul\":1791:1792   */\n      0x07\n        /* \"#utility.yul\":1786:1789   */\n      dup4\n        /* \"#utility.yul\":1727:1793   */\n      tag_165\n      jump\t// in\n    tag_170:\n        /* \"#utility.yul\":1720:1793   */\n      swap2\n      pop\n        /* \"#utility.yul\":1802:1895   */\n      tag_171\n        /* \"#utility.yul\":1891:1894   */\n      dup3\n        /* \"#utility.yul\":1802:1895   */\n      tag_172\n      jump\t// in\n    tag_171:\n        /* \"#utility.yul\":1920:1922   */\n      0x20\n        /* \"#utility.yul\":1915:1918   */\n      dup3\n        /* \"#utility.yul\":1911:1923   */\n      add\n        /* \"#utility.yul\":1904:1923   */\n      swap1\n      pop\n        /* \"#utility.yul\":1564:1929   */\n      swap2\n      swap1\n      pop\n      jump\t// out\n        /* \"#utility.yul\":1935:2333   */\n    tag_173:\n        /* \"#utility.yul\":2094:2097   */\n      0x00\n        /* \"#utility.yul\":2115:2198   */\n      tag_175\n        /* \"#utility.yul\":2196:2197   */\n      0x00\n        /* \"#utility.yul\":2191:2194   */\n      dup4\n        /* \"#utility.yul\":2115:2198   */\n      tag_176\n      jump\t// in\n    tag_175:\n        /* \"#utility.yul\":2108:2198   */\n      swap2\n      pop\n        /* \"#utility.yul\":2207:2300   */\n      tag_177\n        /* \"#utility.yul\":2296:2299   */\n      dup3\n        /* \"#utility.yul\":2207:2300   */\n      tag_178\n      jump\t// in\n    tag_177:\n        /* \"#utility.yul\":2325:2326   */\n      0x00\n        /* \"#utility.yul\":2320:2323   */\n      dup3\n        /* \"#utility.yul\":2316:2327   */\n      add\n        /* \"#utility.yul\":2309:2327   */\n      swap1\n      pop\n        /* \"#utility.yul\":1935:2333   */\n      swap2\n      swap1\n      pop\n      jump\t// out\n        /* \"#utility.yul\":2339:2705   */\n    tag_179:\n        /* \"#utility.yul\":2481:2484   */\n      0x00\n        /* \"#utility.yul\":2502:2569   */\n      tag_181\n        /* \"#utility.yul\":2566:2568   */\n      0x10\n        /* \"#utility.yul\":2561:2564   */\n      dup4\n        /* \"#utility.yul\":2502:2569   */\n      tag_165\n      jump\t// in\n    tag_181:\n        /* \"#utility.yul\":2495:2569   */\n      swap2\n      pop\n        /* \"#utility.yul\":2578:2671   */\n      tag_182\n        /* \"#utility.yul\":2667:2670   */\n      dup3\n        /* \"#utility.yul\":2578:2671   */\n      tag_183\n      jump\t// in\n    tag_182:\n        /* \"#utility.yul\":2696:2698   */\n      0x20\n        /* \"#utility.yul\":2691:2694   */\n      dup3\n        /* \"#utility.yul\":2687:2699   */\n      add\n        /* \"#utility.yul\":2680:2699   */\n      swap1\n      pop\n        /* \"#utility.yul\":2339:2705   */\n      swap2\n      swap1\n      pop\n      jump\t// out\n        /* \"#utility.yul\":2711:3077   */\n    tag_184:\n        /* \"#utility.yul\":2853:2856   */\n      0x00\n        /* \"#utility.yul\":2874:2941   */\n      tag_186\n        /* \"#utility.yul\":2938:2940   */\n      0x0b\n        /* \"#utility.yul\":2933:2936   */\n      dup4\n        /* \"#utility.yul\":2874:2941   */\n      tag_165\n      jump\t// in\n    tag_186:\n        /* \"#utility.yul\":2867:2941   */\n      swap2\n      pop\n        /* \"#utility.yul\":2950:3043   */\n      tag_187\n        /* \"#utility.yul\":3039:3042   */\n      dup3\n        /* \"#utility.yul\":2950:3043   */\n      tag_188\n      jump\t// in\n    tag_187:\n        /* \"#utility.yul\":3068:3070   */\n      0x20\n        /* \"#utility.yul\":3063:3066   */\n      dup3\n        /* \"#utility.yul\":3059:3071   */\n      add\n        /* \"#utility.yul\":3052:3071   */\n      swap1\n      pop\n        /* \"#utility.yul\":2711:3077   */\n      swap2\n      swap1\n      pop\n      jump\t// out\n        /* \"#utility.yul\":3083:3449   */\n    tag_189:\n        /* \"#utility.yul\":3225:3228   */\n      0x00\n        /* \"#utility.yul\":3246:3313   */\n      tag_191\n        /* \"#utility.yul\":3310:3312   */\n      0x0a\n        /* \"#utility.yul\":3305:3308   */\n      dup4\n        /* \"#utility.yul\":3246:3313   */\n      tag_165\n      jump\t// in\n    tag_191:\n        /* \"#utility.yul\":3239:3313   */\n      swap2\n      pop\n        /* \"#utility.yul\":3322:3415   */\n      tag_192\n        /* \"#utility.yul\":3411:3414   */\n      dup3\n        /* \"#utility.yul\":3322:3415   */\n      tag_193\n      jump\t// in\n    tag_192:\n        /* \"#utility.yul\":3440:3442   */\n      0x20\n        /* \"#utility.yul\":3435:3438   */\n      dup3\n        /* \"#utility.yul\":3431:3443   */\n      add\n        /* \"#utility.yul\":3424:3443   */\n      swap1\n      pop\n        /* \"#utility.yul\":3083:3449   */\n      swap2\n      swap1\n      pop\n      jump\t// out\n        /* \"#utility.yul\":3455:3820   */\n    tag_194:\n        /* \"#utility.yul\":3597:3600   */\n      0x00\n        /* \"#utility.yul\":3618:3684   */\n      tag_196\n        /* \"#utility.yul\":3682:3683   */\n      0x05\n        /* \"#utility.yul\":3677:3680   */\n      dup4\n        /* \"#utility.yul\":3618:3684   */\n      tag_165\n      jump\t// in\n    tag_196:\n        /* \"#utility.yul\":3611:3684   */\n      swap2\n      pop\n        /* \"#utility.yul\":3693:3786   */\n      tag_197\n        /* \"#utility.yul\":3782:3785   */\n      dup3\n        /* \"#utility.yul\":3693:3786   */\n      tag_198\n      jump\t// in\n    tag_197:\n        /* \"#utility.yul\":3811:3813   */\n      0x20\n        /* \"#utility.yul\":3806:3809   */\n      dup3\n        /* \"#utility.yul\":3802:3814   */\n      add\n        /* \"#utility.yul\":3795:3814   */\n      swap1\n      pop\n        /* \"#utility.yul\":3455:3820   */\n      swap2\n      swap1\n      pop\n      jump\t// out\n        /* \"#utility.yul\":3826:4191   */\n    tag_199:\n        /* \"#utility.yul\":3968:3971   */\n      0x00\n        /* \"#utility.yul\":3989:4055   */\n      tag_201\n        /* \"#utility.yul\":4053:4054   */\n      0x09\n        /* \"#utility.yul\":4048:4051   */\n      dup4\n        /* \"#utility.yul\":3989:4055   */\n      tag_165\n      jump\t// in\n    tag_201:\n        /* \"#utility.yul\":3982:4055   */\n      swap2\n      pop\n        /* \"#utility.yul\":4064:4157   */\n      tag_202\n        /* \"#utility.yul\":4153:4156   */\n      dup3\n        /* \"#utility.yul\":4064:4157   */\n      tag_203\n      jump\t// in\n    tag_202:\n        /* \"#utility.yul\":4182:4184   */\n      0x20\n        /* \"#utility.yul\":4177:4180   */\n      dup3\n        /* \"#utility.yul\":4173:4185   */\n      add\n        /* \"#utility.yul\":4166:4185   */\n      swap1\n      pop\n        /* \"#utility.yul\":3826:4191   */\n      swap2\n      swap1\n      pop\n      jump\t// out\n        /* \"#utility.yul\":4197:4315   */\n    tag_204:\n        /* \"#utility.yul\":4284:4308   */\n      tag_206\n        /* \"#utility.yul\":4302:4307   */\n      dup2\n        /* \"#utility.yul\":4284:4308   */\n      tag_207\n      jump\t// in\n    tag_206:\n        /* \"#utility.yul\":4279:4282   */\n      dup3\n        /* \"#utility.yul\":4272:4309   */\n      mstore\n        /* \"#utility.yul\":4197:4315   */\n      pop\n      pop\n      jump\t// out\n        /* \"#utility.yul\":4321:4436   */\n    tag_208:\n        /* \"#utility.yul\":4406:4429   */\n      tag_210\n        /* \"#utility.yul\":4423:4428   */\n      dup2\n        /* \"#utility.yul\":4406:4429   */\n      tag_211\n      jump\t// in\n    tag_210:\n        /* \"#utility.yul\":4401:4404   */\n      dup3\n        /* \"#utility.yul\":4394:4430   */\n      mstore\n        /* \"#utility.yul\":4321:4436   */\n      pop\n      pop\n      jump\t// out\n        /* \"#utility.yul\":4442:4821   */\n    tag_88:\n        /* \"#utility.yul\":4626:4629   */\n      0x00\n        /* \"#utility.yul\":4648:4795   */\n      tag_213\n        /* \"#utility.yul\":4791:4794   */\n      dup3\n        /* \"#utility.yul\":4648:4795   */\n      tag_173\n      jump\t// in\n    tag_213:\n        /* \"#utility.yul\":4641:4795   */\n      swap2\n      pop\n        /* \"#utility.yul\":4812:4815   */\n      dup2\n        /* \"#utility.yul\":4805:4815   */\n      swap1\n      pop\n        /* \"#utility.yul\":4442:4821   */\n      swap2\n      swap1\n      pop\n      jump\t// out\n        /* \"#utility.yul\":4827:5049   */\n    tag_57:\n        /* \"#utility.yul\":4920:4924   */\n      0x00\n        /* \"#utility.yul\":4958:4960   */\n      0x20\n        /* \"#utility.yul\":4947:4956   */\n      dup3\n        /* \"#utility.yul\":4943:4961   */\n      add\n        /* \"#utility.yul\":4935:4961   */\n      swap1\n      pop\n        /* \"#utility.yul\":4971:5042   */\n      tag_215\n        /* \"#utility.yul\":5039:5040   */\n      0x00\n        /* \"#utility.yul\":5028:5037   */\n      dup4\n        /* \"#utility.yul\":5024:5041   */\n      add\n        /* \"#utility.yul\":5015:5021   */\n      dup5\n        /* \"#utility.yul\":4971:5042   */\n      tag_150\n      jump\t// in\n    tag_215:\n        /* \"#utility.yul\":4827:5049   */\n      swap3\n      swap2\n      pop\n      pop\n      jump\t// out\n        /* \"#utility.yul\":5055:5309   */\n    tag_21:\n        /* \"#utility.yul\":5164:5168   */\n      0x00\n        /* \"#utility.yul\":5202:5204   */\n      0x20\n        /* \"#utility.yul\":5191:5200   */\n      dup3\n        /* \"#utility.yul\":5187:5205   */\n      add\n        /* \"#utility.yul\":5179:5205   */\n      swap1\n      pop\n        /* \"#utility.yul\":5215:5302   */\n      tag_217\n        /* \"#utility.yul\":5299:5300   */\n      0x00\n        /* \"#utility.yul\":5288:5297   */\n      dup4\n        /* \"#utility.yul\":5284:5301   */\n      add\n        /* \"#utility.yul\":5275:5281   */\n      dup5\n        /* \"#utility.yul\":5215:5302   */\n      tag_146\n      jump\t// in\n    tag_217:\n        /* \"#utility.yul\":5055:5309   */\n      swap3\n      swap2\n      pop\n      pop\n      jump\t// out\n        /* \"#utility.yul\":5315:5773   */\n    tag_126:\n        /* \"#utility.yul\":5472:5476   */\n      0x00\n        /* \"#utility.yul\":5510:5512   */\n      0x60\n        /* \"#utility.yul\":5499:5508   */\n      dup3\n        /* \"#utility.yul\":5495:5513   */\n      add\n        /* \"#utility.yul\":5487:5513   */\n      swap1\n      pop\n        /* \"#utility.yul\":5523:5594   */\n      tag_219\n        /* \"#utility.yul\":5591:5592   */\n      0x00\n        /* \"#utility.yul\":5580:5589   */\n      dup4\n        /* \"#utility.yul\":5576:5593   */\n      add\n        /* \"#utility.yul\":5567:5573   */\n      dup7\n        /* \"#utility.yul\":5523:5594   */\n      tag_150\n      jump\t// in\n    tag_219:\n        /* \"#utility.yul\":5604:5684   */\n      tag_220\n        /* \"#utility.yul\":5680:5682   */\n      0x20\n        /* \"#utility.yul\":5669:5678   */\n      dup4\n        /* \"#utility.yul\":5665:5683   */\n      add\n        /* \"#utility.yul\":5656:5662   */\n      dup6\n        /* \"#utility.yul\":5604:5684   */\n      tag_142\n      jump\t// in\n    tag_220:\n        /* \"#utility.yul\":5694:5766   */\n      tag_221\n        /* \"#utility.yul\":5762:5764   */\n      0x40\n        /* \"#utility.yul\":5751:5760   */\n      dup4\n        /* \"#utility.yul\":5747:5765   */\n      add\n        /* \"#utility.yul\":5738:5744   */\n      dup5\n        /* \"#utility.yul\":5694:5766   */\n      tag_204\n      jump\t// in\n    tag_221:\n        /* \"#utility.yul\":5315:5773   */\n      swap5\n      swap4\n      pop\n      pop\n      pop\n      pop\n      jump\t// out\n        /* \"#utility.yul\":5779:6221   */\n    tag_105:\n        /* \"#utility.yul\":5928:5932   */\n      0x00\n        /* \"#utility.yul\":5966:5968   */\n      0x60\n        /* \"#utility.yul\":5955:5964   */\n      dup3\n        /* \"#utility.yul\":5951:5969   */\n      add\n        /* \"#utility.yul\":5943:5969   */\n      swap1\n      pop\n        /* \"#utility.yul\":5979:6050   */\n      tag_223\n        /* \"#utility.yul\":6047:6048   */\n      0x00\n        /* \"#utility.yul\":6036:6045   */\n      dup4\n        /* \"#utility.yul\":6032:6049   */\n      add\n        /* \"#utility.yul\":6023:6029   */\n      dup7\n        /* \"#utility.yul\":5979:6050   */\n      tag_150\n      jump\t// in\n    tag_223:\n        /* \"#utility.yul\":6060:6132   */\n      tag_224\n        /* \"#utility.yul\":6128:6130   */\n      0x20\n        /* \"#utility.yul\":6117:6126   */\n      dup4\n        /* \"#utility.yul\":6113:6131   */\n      add\n        /* \"#utility.yul\":6104:6110   */\n      dup6\n        /* \"#utility.yul\":6060:6132   */\n      tag_150\n      jump\t// in\n    tag_224:\n        /* \"#utility.yul\":6142:6214   */\n      tag_225\n        /* \"#utility.yul\":6210:6212   */\n      0x40\n        /* \"#utility.yul\":6199:6208   */\n      dup4\n        /* \"#utility.yul\":6195:6213   */\n      add\n        /* \"#utility.yul\":6186:6192   */\n      dup5\n        /* \"#utility.yul\":6142:6214   */\n      tag_204\n      jump\t// in\n    tag_225:\n        /* \"#utility.yul\":5779:6221   */\n      swap5\n      swap4\n      pop\n      pop\n      pop\n      pop\n      jump\t// out\n        /* \"#utility.yul\":6227:6559   */\n    tag_131:\n        /* \"#utility.yul\":6348:6352   */\n      0x00\n        /* \"#utility.yul\":6386:6388   */\n      0x40\n        /* \"#utility.yul\":6375:6384   */\n      dup3\n        /* \"#utility.yul\":6371:6389   */\n      add\n        /* \"#utility.yul\":6363:6389   */\n      swap1\n      pop\n        /* \"#utility.yul\":6399:6470   */\n      tag_227\n        /* \"#utility.yul\":6467:6468   */\n      0x00\n        /* \"#utility.yul\":6456:6465   */\n      dup4\n        /* \"#utility.yul\":6452:6469   */\n      add\n        /* \"#utility.yul\":6443:6449   */\n      dup6\n        /* \"#utility.yul\":6399:6470   */\n      tag_150\n      jump\t// in\n    tag_227:\n        /* \"#utility.yul\":6480:6552   */\n      tag_228\n        /* \"#utility.yul\":6548:6550   */\n      0x20\n        /* \"#utility.yul\":6537:6546   */\n      dup4\n        /* \"#utility.yul\":6533:6551   */\n      add\n        /* \"#utility.yul\":6524:6530   */\n      dup5\n        /* \"#utility.yul\":6480:6552   */\n      tag_204\n      jump\t// in\n    tag_228:\n        /* \"#utility.yul\":6227:6559   */\n      swap4\n      swap3\n      pop\n      pop\n      pop\n      jump\t// out\n        /* \"#utility.yul\":6565:6775   */\n    tag_26:\n        /* \"#utility.yul\":6652:6656   */\n      0x00\n        /* \"#utility.yul\":6690:6692   */\n      0x20\n        /* \"#utility.yul\":6679:6688   */\n      dup3\n        /* \"#utility.yul\":6675:6693   */\n      add\n        /* \"#utility.yul\":6667:6693   */\n      swap1\n      pop\n        /* \"#utility.yul\":6703:6768   */\n      tag_230\n        /* \"#utility.yul\":6765:6766   */\n      0x00\n        /* \"#utility.yul\":6754:6763   */\n      dup4\n        /* \"#utility.yul\":6750:6767   */\n      add\n        /* \"#utility.yul\":6741:6747   */\n      dup5\n        /* \"#utility.yul\":6703:6768   */\n      tag_154\n      jump\t// in\n    tag_230:\n        /* \"#utility.yul\":6565:6775   */\n      swap3\n      swap2\n      pop\n      pop\n      jump\t// out\n        /* \"#utility.yul\":6781:7031   */\n    tag_40:\n        /* \"#utility.yul\":6888:6892   */\n      0x00\n        /* \"#utility.yul\":6926:6928   */\n      0x20\n        /* \"#utility.yul\":6915:6924   */\n      dup3\n        /* \"#utility.yul\":6911:6929   */\n      add\n        /* \"#utility.yul\":6903:6929   */\n      swap1\n      pop\n        /* \"#utility.yul\":6939:7024   */\n      tag_232\n        /* \"#utility.yul\":7021:7022   */\n      0x00\n        /* \"#utility.yul\":7010:7019   */\n      dup4\n        /* \"#utility.yul\":7006:7023   */\n      add\n        /* \"#utility.yul\":6997:7003   */\n      dup5\n        /* \"#utility.yul\":6939:7024   */\n      tag_158\n      jump\t// in\n    tag_232:\n        /* \"#utility.yul\":6781:7031   */\n      swap3\n      swap2\n      pop\n      pop\n      jump\t// out\n        /* \"#utility.yul\":7037:7456   */\n    tag_81:\n        /* \"#utility.yul\":7203:7207   */\n      0x00\n        /* \"#utility.yul\":7241:7243   */\n      0x20\n        /* \"#utility.yul\":7230:7239   */\n      dup3\n        /* \"#utility.yul\":7226:7244   */\n      add\n        /* \"#utility.yul\":7218:7244   */\n      swap1\n      pop\n        /* \"#utility.yul\":7290:7299   */\n      dup2\n        /* \"#utility.yul\":7284:7288   */\n      dup2\n        /* \"#utility.yul\":7280:7300   */\n      sub\n        /* \"#utility.yul\":7276:7277   */\n      0x00\n        /* \"#utility.yul\":7265:7274   */\n      dup4\n        /* \"#utility.yul\":7261:7278   */\n      add\n        /* \"#utility.yul\":7254:7301   */\n      mstore\n        /* \"#utility.yul\":7318:7449   */\n      tag_234\n        /* \"#utility.yul\":7444:7448   */\n      dup2\n        /* \"#utility.yul\":7318:7449   */\n      tag_162\n      jump\t// in\n    tag_234:\n        /* \"#utility.yul\":7310:7449   */\n      swap1\n      pop\n        /* \"#utility.yul\":7037:7456   */\n      swap2\n      swap1\n      pop\n      jump\t// out\n        /* \"#utility.yul\":7462:7881   */\n    tag_102:\n        /* \"#utility.yul\":7628:7632   */\n      0x00\n        /* \"#utility.yul\":7666:7668   */\n      0x20\n        /* \"#utility.yul\":7655:7664   */\n      dup3\n        /* \"#utility.yul\":7651:7669   */\n      add\n        /* \"#utility.yul\":7643:7669   */\n      swap1\n      pop\n        /* \"#utility.yul\":7715:7724   */\n      dup2\n        /* \"#utility.yul\":7709:7713   */\n      dup2\n        /* \"#utility.yul\":7705:7725   */\n      sub\n        /* \"#utility.yul\":7701:7702   */\n      0x00\n        /* \"#utility.yul\":7690:7699   */\n      dup4\n        /* \"#utility.yul\":7686:7703   */\n      add\n        /* \"#utility.yul\":7679:7726   */\n      mstore\n        /* \"#utility.yul\":7743:7874   */\n      tag_236\n        /* \"#utility.yul\":7869:7873   */\n      dup2\n        /* \"#utility.yul\":7743:7874   */\n      tag_168\n      jump\t// in\n    tag_236:\n        /* \"#utility.yul\":7735:7874   */\n      swap1\n      pop\n        /* \"#utility.yul\":7462:7881   */\n      swap2\n      swap1\n      pop\n      jump\t// out\n        /* \"#utility.yul\":7887:8306   */\n    tag_94:\n        /* \"#utility.yul\":8053:8057   */\n      0x00\n        /* \"#utility.yul\":8091:8093   */\n      0x20\n        /* \"#utility.yul\":8080:8089   */\n      dup3\n        /* \"#utility.yul\":8076:8094   */\n      add\n        /* \"#utility.yul\":8068:8094   */\n      swap1\n      pop\n        /* \"#utility.yul\":8140:8149   */\n      dup2\n        /* \"#utility.yul\":8134:8138   */\n      dup2\n        /* \"#utility.yul\":8130:8150   */\n      sub\n        /* \"#utility.yul\":8126:8127   */\n      0x00\n        /* \"#utility.yul\":8115:8124   */\n      dup4\n        /* \"#utility.yul\":8111:8128   */\n      add\n        /* \"#utility.yul\":8104:8151   */\n      mstore\n        /* \"#utility.yul\":8168:8299   */\n      tag_238\n        /* \"#utility.yul\":8294:8298   */\n      dup2\n        /* \"#utility.yul\":8168:8299   */\n      tag_179\n      jump\t// in\n    tag_238:\n        /* \"#utility.yul\":8160:8299   */\n      swap1\n      pop\n        /* \"#utility.yul\":7887:8306   */\n      swap2\n      swap1\n      pop\n      jump\t// out\n        /* \"#utility.yul\":8312:8731   */\n    tag_75:\n        /* \"#utility.yul\":8478:8482   */\n      0x00\n        /* \"#utility.yul\":8516:8518   */\n      0x20\n        /* \"#utility.yul\":8505:8514   */\n      dup3\n        /* \"#utility.yul\":8501:8519   */\n      add\n        /* \"#utility.yul\":8493:8519   */\n      swap1\n      pop\n        /* \"#utility.yul\":8565:8574   */\n      dup2\n        /* \"#utility.yul\":8559:8563   */\n      dup2\n        /* \"#utility.yul\":8555:8575   */\n      sub\n        /* \"#utility.yul\":8551:8552   */\n      0x00\n        /* \"#utility.yul\":8540:8549   */\n      dup4\n        /* \"#utility.yul\":8536:8553   */\n      add\n        /* \"#utility.yul\":8529:8576   */\n      mstore\n        /* \"#utility.yul\":8593:8724   */\n      tag_240\n        /* \"#utility.yul\":8719:8723   */\n      dup2\n        /* \"#utility.yul\":8593:8724   */\n      tag_184\n      jump\t// in\n    tag_240:\n        /* \"#utility.yul\":8585:8724   */\n      swap1\n      pop\n        /* \"#utility.yul\":8312:8731   */\n      swap2\n      swap1\n      pop\n      jump\t// out\n        /* \"#utility.yul\":8737:9156   */\n    tag_99:\n        /* \"#utility.yul\":8903:8907   */\n      0x00\n        /* \"#utility.yul\":8941:8943   */\n      0x20\n        /* \"#utility.yul\":8930:8939   */\n      dup3\n        /* \"#utility.yul\":8926:8944   */\n      add\n        /* \"#utility.yul\":8918:8944   */\n      swap1\n      pop\n        /* \"#utility.yul\":8990:8999   */\n      dup2\n        /* \"#utility.yul\":8984:8988   */\n      dup2\n        /* \"#utility.yul\":8980:9000   */\n      sub\n        /* \"#utility.yul\":8976:8977   */\n      0x00\n        /* \"#utility.yul\":8965:8974   */\n      dup4\n        /* \"#utility.yul\":8961:8978   */\n      add\n        /* \"#utility.yul\":8954:9001   */\n      mstore\n        /* \"#utility.yul\":9018:9149   */\n      tag_242\n        /* \"#utility.yul\":9144:9148   */\n      dup2\n        /* \"#utility.yul\":9018:9149   */\n      tag_189\n      jump\t// in\n    tag_242:\n        /* \"#utility.yul\":9010:9149   */\n      swap1\n      pop\n        /* \"#utility.yul\":8737:9156   */\n      swap2\n      swap1\n      pop\n      jump\t// out\n        /* \"#utility.yul\":9162:9581   */\n    tag_78:\n        /* \"#utility.yul\":9328:9332   */\n      0x00\n        /* \"#utility.yul\":9366:9368   */\n      0x20\n        /* \"#utility.yul\":9355:9364   */\n      dup3\n        /* \"#utility.yul\":9351:9369   */\n      add\n        /* \"#utility.yul\":9343:9369   */\n      swap1\n      pop\n        /* \"#utility.yul\":9415:9424   */\n      dup2\n        /* \"#utility.yul\":9409:9413   */\n      dup2\n        /* \"#utility.yul\":9405:9425   */\n      sub\n        /* \"#utility.yul\":9401:9402   */\n      0x00\n        /* \"#utility.yul\":9390:9399   */\n      dup4\n        /* \"#utility.yul\":9386:9403   */\n      add\n        /* \"#utility.yul\":9379:9426   */\n      mstore\n        /* \"#utility.yul\":9443:9574   */\n      tag_244\n        /* \"#utility.yul\":9569:9573   */\n      dup2\n        /* \"#utility.yul\":9443:9574   */\n      tag_194\n      jump\t// in\n    tag_244:\n        /* \"#utility.yul\":9435:9574   */\n      swap1\n      pop\n        /* \"#utility.yul\":9162:9581   */\n      swap2\n      swap1\n      pop\n      jump\t// out\n        /* \"#utility.yul\":9587:10006   */\n    tag_116:\n        /* \"#utility.yul\":9753:9757   */\n      0x00\n        /* \"#utility.yul\":9791:9793   */\n      0x20\n        /* \"#utility.yul\":9780:9789   */\n      dup3\n        /* \"#utility.yul\":9776:9794   */\n      add\n        /* \"#utility.yul\":9768:9794   */\n      swap1\n      pop\n        /* \"#utility.yul\":9840:9849   */\n      dup2\n        /* \"#utility.yul\":9834:9838   */\n      dup2\n        /* \"#utility.yul\":9830:9850   */\n      sub\n        /* \"#utility.yul\":9826:9827   */\n      0x00\n        /* \"#utility.yul\":9815:9824   */\n      dup4\n        /* \"#utility.yul\":9811:9828   */\n      add\n        /* \"#utility.yul\":9804:9851   */\n      mstore\n        /* \"#utility.yul\":9868:9999   */\n      tag_246\n        /* \"#utility.yul\":9994:9998   */\n      dup2\n        /* \"#utility.yul\":9868:9999   */\n      tag_199\n      jump\t// in\n    tag_246:\n        /* \"#utility.yul\":9860:9999   */\n      swap1\n      pop\n        /* \"#utility.yul\":9587:10006   */\n      swap2\n      swap1\n      pop\n      jump\t// out\n        /* \"#utility.yul\":10012:10234   */\n    tag_47:\n        /* \"#utility.yul\":10105:10109   */\n      0x00\n        /* \"#utility.yul\":10143:10145   */\n      0x20\n        /* \"#utility.yul\":10132:10141   */\n      dup3\n        /* \"#utility.yul\":10128:10146   */\n      add\n        /* \"#utility.yul\":10120:10146   */\n      swap1\n      pop\n        /* \"#utility.yul\":10156:10227   */\n      tag_248\n        /* \"#utility.yul\":10224:10225   */\n      0x00\n        /* \"#utility.yul\":10213:10222   */\n      dup4\n        /* \"#utility.yul\":10209:10226   */\n      add\n        /* \"#utility.yul\":10200:10206   */\n      dup5\n        /* \"#utility.yul\":10156:10227   */\n      tag_204\n      jump\t// in\n    tag_248:\n        /* \"#utility.yul\":10012:10234   */\n      swap3\n      swap2\n      pop\n      pop\n      jump\t// out\n        /* \"#utility.yul\":10240:10458   */\n    tag_52:\n        /* \"#utility.yul\":10331:10335   */\n      0x00\n        /* \"#utility.yul\":10369:10371   */\n      0x20\n        /* \"#utility.yul\":10358:10367   */\n      dup3\n        /* \"#utility.yul\":10354:10372   */\n      add\n        /* \"#utility.yul\":10346:10372   */\n      swap1\n      pop\n        /* \"#utility.yul\":10382:10451   */\n      tag_250\n        /* \"#utility.yul\":10448:10449   */\n      0x00\n        /* \"#utility.yul\":10437:10446   */\n      dup4\n        /* \"#utility.yul\":10433:10450   */\n      add\n        /* \"#utility.yul\":10424:10430   */\n      dup5\n        /* \"#utility.yul\":10382:10451   */\n      tag_208\n      jump\t// in\n    tag_250:\n        /* \"#utility.yul\":10240:10458   */\n      swap3\n      swap2\n      pop\n      pop\n      jump\t// out\n        /* \"#utility.yul\":10545:10692   */\n    tag_176:\n        /* \"#utility.yul\":10646:10657   */\n      0x00\n        /* \"#utility.yul\":10683:10686   */\n      dup2\n        /* \"#utility.yul\":10668:10686   */\n      swap1\n      pop\n        /* \"#utility.yul\":10545:10692   */\n      swap3\n      swap2\n      pop\n      pop\n      jump\t// out\n        /* \"#utility.yul\":10698:10867   */\n    tag_165:\n        /* \"#utility.yul\":10782:10793   */\n      0x00\n        /* \"#utility.yul\":10816:10822   */\n      dup3\n        /* \"#utility.yul\":10811:10814   */\n      dup3\n        /* \"#utility.yul\":10804:10823   */\n      mstore\n        /* \"#utility.yul\":10856:10860   */\n      0x20\n        /* \"#utility.yul\":10851:10854   */\n      dup3\n        /* \"#utility.yul\":10847:10861   */\n      add\n        /* \"#utility.yul\":10832:10861   */\n      swap1\n      pop\n        /* \"#utility.yul\":10698:10867   */\n      swap3\n      swap2\n      pop\n      pop\n      jump\t// out\n        /* \"#utility.yul\":10873:11178   */\n    tag_84:\n        /* \"#utility.yul\":10913:10916   */\n      0x00\n        /* \"#utility.yul\":10932:10952   */\n      tag_256\n        /* \"#utility.yul\":10950:10951   */\n      dup3\n        /* \"#utility.yul\":10932:10952   */\n      tag_207\n      jump\t// in\n    tag_256:\n        /* \"#utility.yul\":10927:10952   */\n      swap2\n      pop\n        /* \"#utility.yul\":10966:10986   */\n      tag_257\n        /* \"#utility.yul\":10984:10985   */\n      dup4\n        /* \"#utility.yul\":10966:10986   */\n      tag_207\n      jump\t// in\n    tag_257:\n        /* \"#utility.yul\":10961:10986   */\n      swap3\n      pop\n        /* \"#utility.yul\":11120:11121   */\n      dup3\n        /* \"#utility.yul\":11052:11118   */\n      0xffffffffffffffffffffffffffffffffffffffffffffffffffffffffffffffff\n        /* \"#utility.yul\":11048:11122   */\n      sub\n        /* \"#utility.yul\":11045:11046   */\n      dup3\n        /* \"#utility.yul\":11042:11123   */\n      gt\n        /* \"#utility.yul\":11039:11146   */\n      iszero\n      tag_258\n      jumpi\n        /* \"#utility.yul\":11126:11144   */\n      tag_259\n      tag_260\n      jump\t// in\n    tag_259:\n        /* \"#utility.yul\":11039:11146   */\n    tag_258:\n        /* \"#utility.yul\":11170:11171   */\n      dup3\n        /* \"#utility.yul\":11167:11168   */\n      dup3\n        /* \"#utility.yul\":11163:11172   */\n      add\n        /* \"#utility.yul\":11156:11172   */\n      swap1\n      pop\n        /* \"#utility.yul\":10873:11178   */\n      swap3\n      swap2\n      pop\n      pop\n      jump\t// out\n        /* \"#utility.yul\":11184:11280   */\n    tag_153:\n        /* \"#utility.yul\":11221:11228   */\n      0x00\n        /* \"#utility.yul\":11250:11274   */\n      tag_262\n        /* \"#utility.yul\":11268:11273   */\n      dup3\n        /* \"#utility.yul\":11250:11274   */\n      tag_263\n      jump\t// in\n    tag_262:\n        /* \"#utility.yul\":11239:11274   */\n      swap1\n      pop\n        /* \"#utility.yul\":11184:11280   */\n      swap2\n      swap1\n      pop\n      jump\t// out\n        /* \"#utility.yul\":11286:11390   */\n    tag_149:\n        /* \"#utility.yul\":11331:11338   */\n      0x00\n        /* \"#utility.yul\":11360:11384   */\n      tag_265\n        /* \"#utility.yul\":11378:11383   */\n      dup3\n        /* \"#utility.yul\":11360:11384   */\n      tag_263\n      jump\t// in\n    tag_265:\n        /* \"#utility.yul\":11349:11384   */\n      swap1\n      pop\n        /* \"#utility.yul\":11286:11390   */\n      swap2\n      swap1\n      pop\n      jump\t// out\n        /* \"#utility.yul\":11396:11486   */\n    tag_157:\n        /* \"#utility.yul\":11430:11437   */\n      0x00\n        /* \"#utility.yul\":11473:11478   */\n      dup2\n        /* \"#utility.yul\":11466:11479   */\n      iszero\n        /* \"#utility.yul\":11459:11480   */\n      iszero\n        /* \"#utility.yul\":11448:11480   */\n      swap1\n      pop\n        /* \"#utility.yul\":11396:11486   */\n      swap2\n      swap1\n      pop\n      jump\t// out\n        /* \"#utility.yul\":11492:11618   */\n    tag_263:\n        /* \"#utility.yul\":11529:11536   */\n      0x00\n        /* \"#utility.yul\":11569:11611   */\n      0xffffffffffffffffffffffffffffffffffffffff\n        /* \"#utility.yul\":11562:11567   */\n      dup3\n        /* \"#utility.yul\":11558:11612   */\n      and\n        /* \"#utility.yul\":11547:11612   */\n      swap1\n      pop\n        /* \"#utility.yul\":11492:11618   */\n      swap2\n      swap1\n      pop\n      jump\t// out\n        /* \"#utility.yul\":11624:11701   */\n    tag_207:\n        /* \"#utility.yul\":11661:11668   */\n      0x00\n        /* \"#utility.yul\":11690:11695   */\n      dup2\n        /* \"#utility.yul\":11679:11695   */\n      swap1\n      pop\n        /* \"#utility.yul\":11624:11701   */\n      swap2\n      swap1\n      pop\n      jump\t// out\n        /* \"#utility.yul\":11707:11800   */\n    tag_211:\n        /* \"#utility.yul\":11743:11750   */\n      0x00\n        /* \"#utility.yul\":11783:11793   */\n      0xffffffff\n        /* \"#utility.yul\":11776:11781   */\n      dup3\n        /* \"#utility.yul\":11772:11794   */\n      and\n        /* \"#utility.yul\":11761:11794   */\n      swap1\n      pop\n        /* \"#utility.yul\":11707:11800   */\n      swap2\n      swap1\n      pop\n      jump\t// out\n        /* \"#utility.yul\":11806:11940   */\n    tag_145:\n        /* \"#utility.yul\":11864:11873   */\n      0x00\n        /* \"#utility.yul\":11897:11934   */\n      tag_271\n        /* \"#utility.yul\":11928:11933   */\n      dup3\n        /* \"#utility.yul\":11897:11934   */\n      tag_272\n      jump\t// in\n    tag_271:\n        /* \"#utility.yul\":11884:11934   */\n      swap1\n      pop\n        /* \"#utility.yul\":11806:11940   */\n      swap2\n      swap1\n      pop\n      jump\t// out\n        /* \"#utility.yul\":11946:12086   */\n    tag_161:\n        /* \"#utility.yul\":12010:12019   */\n      0x00\n        /* \"#utility.yul\":12043:12080   */\n      tag_274\n        /* \"#utility.yul\":12074:12079   */\n      dup3\n        /* \"#utility.yul\":12043:12080   */\n      tag_272\n      jump\t// in\n    tag_274:\n        /* \"#utility.yul\":12030:12080   */\n      swap1\n      pop\n        /* \"#utility.yul\":11946:12086   */\n      swap2\n      swap1\n      pop\n      jump\t// out\n        /* \"#utility.yul\":12092:12218   */\n    tag_272:\n        /* \"#utility.yul\":12142:12151   */\n      0x00\n        /* \"#utility.yul\":12175:12212   */\n      tag_276\n        /* \"#utility.yul\":12206:12211   */\n      dup3\n        /* \"#utility.yul\":12175:12212   */\n      tag_277\n      jump\t// in\n    tag_276:\n        /* \"#utility.yul\":12162:12212   */\n      swap1\n      pop\n        /* \"#utility.yul\":12092:12218   */\n      swap2\n      swap1\n      pop\n      jump\t// out\n        /* \"#utility.yul\":12224:12337   */\n    tag_277:\n        /* \"#utility.yul\":12274:12283   */\n      0x00\n        /* \"#utility.yul\":12307:12331   */\n      tag_279\n        /* \"#utility.yul\":12325:12330   */\n      dup3\n        /* \"#utility.yul\":12307:12331   */\n      tag_263\n      jump\t// in\n    tag_279:\n        /* \"#utility.yul\":12294:12331   */\n      swap1\n      pop\n        /* \"#utility.yul\":12224:12337   */\n      swap2\n      swap1\n      pop\n      jump\t// out\n        /* \"#utility.yul\":12343:12523   */\n    tag_260:\n        /* \"#utility.yul\":12391:12468   */\n      0x4e487b7100000000000000000000000000000000000000000000000000000000\n        /* \"#utility.yul\":12388:12389   */\n      0x00\n        /* \"#utility.yul\":12381:12469   */\n      mstore\n        /* \"#utility.yul\":12488:12492   */\n      0x11\n        /* \"#utility.yul\":12485:12486   */\n      0x04\n        /* \"#utility.yul\":12478:12493   */\n      mstore\n        /* \"#utility.yul\":12512:12516   */\n      0x24\n        /* \"#utility.yul\":12509:12510   */\n      0x00\n        /* \"#utility.yul\":12502:12517   */\n      revert\n        /* \"#utility.yul\":12652:12769   */\n    tag_140:\n        /* \"#utility.yul\":12761:12762   */\n      0x00\n        /* \"#utility.yul\":12758:12759   */\n      dup1\n        /* \"#utility.yul\":12751:12763   */\n      revert\n        /* \"#utility.yul\":12775:12944   */\n    tag_167:\n        /* \"#utility.yul\":12915:12936   */\n      0x76616c7565203c20686967686573742062696400000000000000000000000000\n        /* \"#utility.yul\":12911:12912   */\n      0x00\n        /* \"#utility.yul\":12903:12909   */\n      dup3\n        /* \"#utility.yul\":12899:12913   */\n      add\n        /* \"#utility.yul\":12892:12937   */\n      mstore\n        /* \"#utility.yul\":12775:12944   */\n      pop\n      jump\t// out\n        /* \"#utility.yul\":12950:13107   */\n    tag_172:\n        /* \"#utility.yul\":13090:13099   */\n      0x7374617274656400000000000000000000000000000000000000000000000000\n        /* \"#utility.yul\":13086:13087   */\n      0x00\n        /* \"#utility.yul\":13078:13084   */\n      dup3\n        /* \"#utility.yul\":13074:13088   */\n      add\n        /* \"#utility.yul\":13067:13100   */\n      mstore\n        /* \"#utility.yul\":12950:13107   */\n      pop\n      jump\t// out\n        /* \"#utility.yul\":13113:13227   */\n    tag_178:\n      pop\n      jump\t// out\n        /* \"#utility.yul\":13233:13399   */\n    tag_183:\n        /* \"#utility.yul\":13373:13391   */\n      0x77697468647261776c206661696c656400000000000000000000000000000000\n        /* \"#utility.yul\":13369:13370   */\n      0x00\n        /* \"#utility.yul\":13361:13367   */\n      dup3\n        /* \"#utility.yul\":13357:13371   */\n      add\n        /* \"#utility.yul\":13350:13392   */\n      mstore\n        /* \"#utility.yul\":13233:13399   */\n      pop\n      jump\t// out\n        /* \"#utility.yul\":13405:13566   */\n    tag_188:\n        /* \"#utility.yul\":13545:13558   */\n      0x6e6f742073746172746564000000000000000000000000000000000000000000\n        /* \"#utility.yul\":13541:13542   */\n      0x00\n        /* \"#utility.yul\":13533:13539   */\n      dup3\n        /* \"#utility.yul\":13529:13543   */\n      add\n        /* \"#utility.yul\":13522:13559   */\n      mstore\n        /* \"#utility.yul\":13405:13566   */\n      pop\n      jump\t// out\n        /* \"#utility.yul\":13572:13732   */\n    tag_193:\n        /* \"#utility.yul\":13712:13724   */\n      0x6e6f742073656c6c657200000000000000000000000000000000000000000000\n        /* \"#utility.yul\":13708:13709   */\n      0x00\n        /* \"#utility.yul\":13700:13706   */\n      dup3\n        /* \"#utility.yul\":13696:13710   */\n      add\n        /* \"#utility.yul\":13689:13725   */\n      mstore\n        /* \"#utility.yul\":13572:13732   */\n      pop\n      jump\t// out\n        /* \"#utility.yul\":13738:13893   */\n    tag_198:\n        /* \"#utility.yul\":13878:13885   */\n      0x656e646564000000000000000000000000000000000000000000000000000000\n        /* \"#utility.yul\":13874:13875   */\n      0x00\n        /* \"#utility.yul\":13866:13872   */\n      dup3\n        /* \"#utility.yul\":13862:13876   */\n      add\n        /* \"#utility.yul\":13855:13886   */\n      mstore\n        /* \"#utility.yul\":13738:13893   */\n      pop\n      jump\t// out\n        /* \"#utility.yul\":13899:14058   */\n    tag_203:\n        /* \"#utility.yul\":14039:14050   */\n      0x6e6f7420656e6465640000000000000000000000000000000000000000000000\n        /* \"#utility.yul\":14035:14036   */\n      0x00\n        /* \"#utility.yul\":14027:14033   */\n      dup3\n        /* \"#utility.yul\":14023:14037   */\n      add\n        /* \"#utility.yul\":14016:14051   */\n      mstore\n        /* \"#utility.yul\":13899:14058   */\n      pop\n      jump\t// out\n        /* \"#utility.yul\":14064:14186   */\n    tag_136:\n        /* \"#utility.yul\":14137:14161   */\n      tag_293\n        /* \"#utility.yul\":14155:14160   */\n      dup2\n        /* \"#utility.yul\":14137:14161   */\n      tag_153\n      jump\t// in\n    tag_293:\n        /* \"#utility.yul\":14130:14135   */\n      dup2\n        /* \"#utility.yul\":14127:14162   */\n      eq\n        /* \"#utility.yul\":14117:14180   */\n      tag_294\n      jumpi\n        /* \"#utility.yul\":14176:14177   */\n      0x00\n        /* \"#utility.yul\":14173:14174   */\n      dup1\n        /* \"#utility.yul\":14166:14178   */\n      revert\n        /* \"#utility.yul\":14117:14180   */\n    tag_294:\n        /* \"#utility.yul\":14064:14186   */\n      pop\n      jump\t// out\n\n    auxdata: 0xa26469706673582212204167a7649719d342d2d9be56116d62493d8328d33d7c1e2c23e74d39b93d293a64736f6c63430008070033\n}\n",
				"bytecode": {
					"linkReferences": {},
					"object": "60e06040523480156200001157600080fd5b5060405162001635380380620016358339818101604052810190620000379190620000eb565b8273ffffffffffffffffffffffffffffffffffffffff1660808173ffffffffffffffffffffffffffffffffffffffff1660601b815250508160a081815250503373ffffffffffffffffffffffffffffffffffffffff1660c08173ffffffffffffffffffffffffffffffffffffffff1660601b8152505080600181905550505050620001be565b600081519050620000ce816200018a565b92915050565b600081519050620000e581620001a4565b92915050565b60008060006060848603121562000107576200010662000185565b5b60006200011786828701620000bd565b93505060206200012a86828701620000d4565b92505060406200013d86828701620000d4565b9150509250925092565b600062000154826200015b565b9050919050565b600073ffffffffffffffffffffffffffffffffffffffff82169050919050565b6000819050919050565b600080fd5b620001958162000147565b8114620001a157600080fd5b50565b620001af816200017b565b8114620001bb57600080fd5b50565b60805160601c60a05160c05160601c61140262000233600039600081816102ad0152818161074701528181610baf0152610c5a0152600081816108ac0152818161094b01528181610b3e0152610c7b0152600081816106d10152818161086e01528181610ade0152610c1d01526114026000f3fe6080604052600436106100c25760003560e01c806362ea82db1161007f578063be9a655511610059578063be9a655514610227578063c6bc51821461023e578063d57bde7914610269578063efbe1c1c14610294576100c2565b806362ea82db146101945780637cc3ae8c146101d157806391f90157146101fc576100c2565b806308551a53146100c757806312fa6feb146100f25780631998aeef1461011d5780631f2698ab146101275780633ccfd60b1461015257806347ccca0214610169575b600080fd5b3480156100d357600080fd5b506100dc6102ab565b6040516100e99190610f3d565b60405180910390f35b3480156100fe57600080fd5b506101076102cf565b6040516101149190610fef565b60405180910390f35b6101256102e2565b005b34801561013357600080fd5b5061013c610535565b6040516101499190610fef565b60405180910390f35b34801561015e57600080fd5b50610167610548565b005b34801561017557600080fd5b5061017e6106cf565b60405161018b919061100a565b60405180910390f35b3480156101a057600080fd5b506101bb60048036038101906101b69190610d5f565b6106f3565b6040516101c89190611105565b60405180910390f35b3480156101dd57600080fd5b506101e661070b565b6040516101f39190611120565b60405180910390f35b34801561020857600080fd5b5061021161071f565b60405161021e9190610f22565b60405180910390f35b34801561023357600080fd5b5061023c610745565b005b34801561024a57600080fd5b50610253610949565b6040516102609190611105565b60405180910390f35b34801561027557600080fd5b5061027e61096d565b60405161028b9190611105565b60405180910390f35b3480156102a057600080fd5b506102a9610973565b005b7f000000000000000000000000000000000000000000000000000000000000000081565b600060059054906101000a900460ff1681565b600060049054906101000a900460ff16610331576040517f08c379a000000000000000000000000000000000000000000000000000000000815260040161032890611085565b60405180910390fd5b60008054906101000a900463ffffffff1663ffffffff164210610389576040517f08c379a0000000000000000000000000000000000000000000000000000000008152600401610380906110c5565b60405180910390fd5b60015434116103cd576040517f08c379a00000000000000000000000000000000000000000000000000000000081526004016103c490611025565b60405180910390fd5b600073ffffffffffffffffffffffffffffffffffffffff16600060069054906101000a900473ffffffffffffffffffffffffffffffffffffffff1673ffffffffffffffffffffffffffffffffffffffff161461049d57600154600260008060069054906101000a900473ffffffffffffffffffffffffffffffffffffffff1673ffffffffffffffffffffffffffffffffffffffff1673ffffffffffffffffffffffffffffffffffffffff16815260200190815260200160002060008282546104959190611157565b925050819055505b3460018190555033600060066101000a81548173ffffffffffffffffffffffffffffffffffffffff021916908373ffffffffffffffffffffffffffffffffffffffff1602179055503373ffffffffffffffffffffffffffffffffffffffff167fe684a55f31b79eca403df938249029212a5925ec6be8012e099b45bc1019e5d23460405161052b9190611105565b60405180910390a2565b600060049054906101000a900460ff1681565b6000600260003373ffffffffffffffffffffffffffffffffffffffff1673ffffffffffffffffffffffffffffffffffffffff1681526020019081526020016000205490506000600260003373ffffffffffffffffffffffffffffffffffffffff1673ffffffffffffffffffffffffffffffffffffffff1681526020019081526020016000208190555060003373ffffffffffffffffffffffffffffffffffffffff16826040516105f790610f0d565b60006040518083038185875af1925050503d8060008114610634576040519150601f19603f3d011682016040523d82523d6000602084013e610639565b606091505b505090508061067d576040517f08c379a000000000000000000000000000000000000000000000000000000000815260040161067490611065565b60405180910390fd5b3373ffffffffffffffffffffffffffffffffffffffff167f884edad9ce6fa2440d8a54cc123490eb96d2768479d49ff9c7366125a9424364836040516106c39190611105565b60405180910390a25050565b7f000000000000000000000000000000000000000000000000000000000000000081565b60026020528060005260406000206000915090505481565b60008054906101000a900463ffffffff1681565b600060069054906101000a900473ffffffffffffffffffffffffffffffffffffffff1681565b7f000000000000000000000000000000000000000000000000000000000000000073ffffffffffffffffffffffffffffffffffffffff163373ffffffffffffffffffffffffffffffffffffffff16146107d3576040517f08c379a00000000000000000000000000000000000000000000000000000000081526004016107ca906110a5565b60405180910390fd5b600060049054906101000a900460ff1615610823576040517f08c379a000000000000000000000000000000000000000000000000000000000815260040161081a90611045565b60405180910390fd5b6001600060046101000a81548160ff02191690831515021790555062093a804261084d9190611157565b6000806101000a81548163ffffffff021916908363ffffffff1602179055507f000000000000000000000000000000000000000000000000000000000000000073ffffffffffffffffffffffffffffffffffffffff166323b872dd33307f00000000000000000000000000000000000000000000000000000000000000006040518463ffffffff1660e01b81526004016108e993929190610f8f565b600060405180830381600087803b15801561090357600080fd5b505af1158015610917573d6000803e3d6000fd5b505050507f1b55ba3aa851a46be3b365aee5b5c140edd620d578922f3e8466d2cbd96f954b60405160405180910390a1565b7f000000000000000000000000000000000000000000000000000000000000000081565b60015481565b600060049054906101000a900460ff166109c2576040517f08c379a00000000000000000000000000000000000000000000000000000000081526004016109b990611085565b60405180910390fd5b600060059054906101000a900460ff1615610a12576040517f08c379a0000000000000000000000000000000000000000000000000000000008152600401610a09906110c5565b60405180910390fd5b60008054906101000a900463ffffffff1663ffffffff16421015610a6b576040517f08c379a0000000000000000000000000000000000000000000000000000000008152600401610a62906110e5565b60405180910390fd5b6001600060056101000a81548160ff021916908315150217905550600073ffffffffffffffffffffffffffffffffffffffff16600060069054906101000a900473ffffffffffffffffffffffffffffffffffffffff1673ffffffffffffffffffffffffffffffffffffffff1614610c1b577f000000000000000000000000000000000000000000000000000000000000000073ffffffffffffffffffffffffffffffffffffffff166323b872dd30600060069054906101000a900473ffffffffffffffffffffffffffffffffffffffff167f00000000000000000000000000000000000000000000000000000000000000006040518463ffffffff1660e01b8152600401610b7b93929190610f8f565b600060405180830381600087803b158015610b9557600080fd5b505af1158015610ba9573d6000803e3d6000fd5b505050507f000000000000000000000000000000000000000000000000000000000000000073ffffffffffffffffffffffffffffffffffffffff166108fc6001549081150290604051600060405180830381858888f19350505050158015610c15573d6000803e3d6000fd5b50610ceb565b7f000000000000000000000000000000000000000000000000000000000000000073ffffffffffffffffffffffffffffffffffffffff166323b872dd307f00000000000000000000000000000000000000000000000000000000000000007f00000000000000000000000000000000000000000000000000000000000000006040518463ffffffff1660e01b8152600401610cb893929190610f58565b600060405180830381600087803b158015610cd257600080fd5b505af1158015610ce6573d6000803e3d6000fd5b505050505b7f7d7570b046e5ead3a4f3fbc9fa2445113625a1e79823776146316bafed6b8cc5600060069054906101000a900473ffffffffffffffffffffffffffffffffffffffff16600154604051610d40929190610fc6565b60405180910390a1565b600081359050610d59816113b5565b92915050565b600060208284031215610d7557610d7461128e565b5b6000610d8384828501610d4a565b91505092915050565b610d9581611217565b82525050565b610da4816111bf565b82525050565b610db3816111ad565b82525050565b610dc2816111d1565b82525050565b610dd181611229565b82525050565b6000610de4601383611146565b9150610def82611293565b602082019050919050565b6000610e07600783611146565b9150610e12826112bc565b602082019050919050565b6000610e2a60008361113b565b9150610e35826112e5565b600082019050919050565b6000610e4d601083611146565b9150610e58826112e8565b602082019050919050565b6000610e70600b83611146565b9150610e7b82611311565b602082019050919050565b6000610e93600a83611146565b9150610e9e8261133a565b602082019050919050565b6000610eb6600583611146565b9150610ec182611363565b602082019050919050565b6000610ed9600983611146565b9150610ee48261138c565b602082019050919050565b610ef8816111fd565b82525050565b610f0781611207565b82525050565b6000610f1882610e1d565b9150819050919050565b6000602082019050610f376000830184610daa565b92915050565b6000602082019050610f526000830184610d9b565b92915050565b6000606082019050610f6d6000830186610daa565b610f7a6020830185610d8c565b610f876040830184610eef565b949350505050565b6000606082019050610fa46000830186610daa565b610fb16020830185610daa565b610fbe6040830184610eef565b949350505050565b6000604082019050610fdb6000830185610daa565b610fe86020830184610eef565b9392505050565b60006020820190506110046000830184610db9565b92915050565b600060208201905061101f6000830184610dc8565b92915050565b6000602082019050818103600083015261103e81610dd7565b9050919050565b6000602082019050818103600083015261105e81610dfa565b9050919050565b6000602082019050818103600083015261107e81610e40565b9050919050565b6000602082019050818103600083015261109e81610e63565b9050919050565b600060208201905081810360008301526110be81610e86565b9050919050565b600060208201905081810360008301526110de81610ea9565b9050919050565b600060208201905081810360008301526110fe81610ecc565b9050919050565b600060208201905061111a6000830184610eef565b92915050565b60006020820190506111356000830184610efe565b92915050565b600081905092915050565b600082825260208201905092915050565b6000611162826111fd565b915061116d836111fd565b9250827fffffffffffffffffffffffffffffffffffffffffffffffffffffffffffffffff038211156111a2576111a161125f565b5b828201905092915050565b60006111b8826111dd565b9050919050565b60006111ca826111dd565b9050919050565b60008115159050919050565b600073ffffffffffffffffffffffffffffffffffffffff82169050919050565b6000819050919050565b600063ffffffff82169050919050565b60006112228261123b565b9050919050565b60006112348261123b565b9050919050565b60006112468261124d565b9050919050565b6000611258826111dd565b9050919050565b7f4e487b7100000000000000000000000000000000000000000000000000000000600052601160045260246000fd5b600080fd5b7f76616c7565203c20686967686573742062696400000000000000000000000000600082015250565b7f7374617274656400000000000000000000000000000000000000000000000000600082015250565b50565b7f77697468647261776c206661696c656400000000000000000000000000000000600082015250565b7f6e6f742073746172746564000000000000000000000000000000000000000000600082015250565b7f6e6f742073656c6c657200000000000000000000000000000000000000000000600082015250565b7f656e646564000000000000000000000000000000000000000000000000000000600082015250565b7f6e6f7420656e6465640000000000000000000000000000000000000000000000600082015250565b6113be816111ad565b81146113c957600080fd5b5056fea26469706673582212204167a7649719d342d2d9be56116d62493d8328d33d7c1e2c23e74d39b93d293a64736f6c63430008070033",
					"opcodes": "PUSH1 0xE0 PUSH1 0x40 MSTORE CALLVALUE DUP1 ISZERO PUSH3 0x11 JUMPI PUSH1 0x0 DUP1 REVERT JUMPDEST POP PUSH1 0x40 MLOAD PUSH3 0x1635 CODESIZE SUB DUP1 PUSH3 0x1635 DUP4 CODECOPY DUP2 DUP2 ADD PUSH1 0x40 MSTORE DUP2 ADD SWAP1 PUSH3 0x37 SWAP2 SWAP1 PUSH3 0xEB JUMP JUMPDEST DUP3 PUSH20 0xFFFFFFFFFFFFFFFFFFFFFFFFFFFFFFFFFFFFFFFF AND PUSH1 0x80 DUP2 PUSH20 0xFFFFFFFFFFFFFFFFFFFFFFFFFFFFFFFFFFFFFFFF AND PUSH1 0x60 SHL DUP2 MSTORE POP POP DUP2 PUSH1 0xA0 DUP2 DUP2 MSTORE POP POP CALLER PUSH20 0xFFFFFFFFFFFFFFFFFFFFFFFFFFFFFFFFFFFFFFFF AND PUSH1 0xC0 DUP2 PUSH20 0xFFFFFFFFFFFFFFFFFFFFFFFFFFFFFFFFFFFFFFFF AND PUSH1 0x60 SHL DUP2 MSTORE POP POP DUP1 PUSH1 0x1 DUP2 SWAP1 SSTORE POP POP POP POP PUSH3 0x1BE JUMP JUMPDEST PUSH1 0x0 DUP2 MLOAD SWAP1 POP PUSH3 0xCE DUP2 PUSH3 0x18A JUMP JUMPDEST SWAP3 SWAP2 POP POP JUMP JUMPDEST PUSH1 0x0 DUP2 MLOAD SWAP1 POP PUSH3 0xE5 DUP2 PUSH3 0x1A4 JUMP JUMPDEST SWAP3 SWAP2 POP POP JUMP JUMPDEST PUSH1 0x0 DUP1 PUSH1 0x0 PUSH1 0x60 DUP5 DUP7 SUB SLT ISZERO PUSH3 0x107 JUMPI PUSH3 0x106 PUSH3 0x185 JUMP JUMPDEST JUMPDEST PUSH1 0x0 PUSH3 0x117 DUP7 DUP3 DUP8 ADD PUSH3 0xBD JUMP JUMPDEST SWAP4 POP POP PUSH1 0x20 PUSH3 0x12A DUP7 DUP3 DUP8 ADD PUSH3 0xD4 JUMP JUMPDEST SWAP3 POP POP PUSH1 0x40 PUSH3 0x13D DUP7 DUP3 DUP8 ADD PUSH3 0xD4 JUMP JUMPDEST SWAP2 POP POP SWAP3 POP SWAP3 POP SWAP3 JUMP JUMPDEST PUSH1 0x0 PUSH3 0x154 DUP3 PUSH3 0x15B JUMP JUMPDEST SWAP1 POP SWAP2 SWAP1 POP JUMP JUMPDEST PUSH1 0x0 PUSH20 0xFFFFFFFFFFFFFFFFFFFFFFFFFFFFFFFFFFFFFFFF DUP3 AND SWAP1 POP SWAP2 SWAP1 POP JUMP JUMPDEST PUSH1 0x0 DUP2 SWAP1 POP SWAP2 SWAP1 POP JUMP JUMPDEST PUSH1 0x0 DUP1 REVERT JUMPDEST PUSH3 0x195 DUP2 PUSH3 0x147 JUMP JUMPDEST DUP2 EQ PUSH3 0x1A1 JUMPI PUSH1 0x0 DUP1 REVERT JUMPDEST POP JUMP JUMPDEST PUSH3 0x1AF DUP2 PUSH3 0x17B JUMP JUMPDEST DUP2 EQ PUSH3 0x1BB JUMPI PUSH1 0x0 DUP1 REVERT JUMPDEST POP JUMP JUMPDEST PUSH1 0x80 MLOAD PUSH1 0x60 SHR PUSH1 0xA0 MLOAD PUSH1 0xC0 MLOAD PUSH1 0x60 SHR PUSH2 0x1402 PUSH3 0x233 PUSH1 0x0 CODECOPY PUSH1 0x0 DUP2 DUP2 PUSH2 0x2AD ADD MSTORE DUP2 DUP2 PUSH2 0x747 ADD MSTORE DUP2 DUP2 PUSH2 0xBAF ADD MSTORE PUSH2 0xC5A ADD MSTORE PUSH1 0x0 DUP2 DUP2 PUSH2 0x8AC ADD MSTORE DUP2 DUP2 PUSH2 0x94B ADD MSTORE DUP2 DUP2 PUSH2 0xB3E ADD MSTORE PUSH2 0xC7B ADD MSTORE PUSH1 0x0 DUP2 DUP2 PUSH2 0x6D1 ADD MSTORE DUP2 DUP2 PUSH2 0x86E ADD MSTORE DUP2 DUP2 PUSH2 0xADE ADD MSTORE PUSH2 0xC1D ADD MSTORE PUSH2 0x1402 PUSH1 0x0 RETURN INVALID PUSH1 0x80 PUSH1 0x40 MSTORE PUSH1 0x4 CALLDATASIZE LT PUSH2 0xC2 JUMPI PUSH1 0x0 CALLDATALOAD PUSH1 0xE0 SHR DUP1 PUSH4 0x62EA82DB GT PUSH2 0x7F JUMPI DUP1 PUSH4 0xBE9A6555 GT PUSH2 0x59 JUMPI DUP1 PUSH4 0xBE9A6555 EQ PUSH2 0x227 JUMPI DUP1 PUSH4 0xC6BC5182 EQ PUSH2 0x23E JUMPI DUP1 PUSH4 0xD57BDE79 EQ PUSH2 0x269 JUMPI DUP1 PUSH4 0xEFBE1C1C EQ PUSH2 0x294 JUMPI PUSH2 0xC2 JUMP JUMPDEST DUP1 PUSH4 0x62EA82DB EQ PUSH2 0x194 JUMPI DUP1 PUSH4 0x7CC3AE8C EQ PUSH2 0x1D1 JUMPI DUP1 PUSH4 0x91F90157 EQ PUSH2 0x1FC JUMPI PUSH2 0xC2 JUMP JUMPDEST DUP1 PUSH4 0x8551A53 EQ PUSH2 0xC7 JUMPI DUP1 PUSH4 0x12FA6FEB EQ PUSH2 0xF2 JUMPI DUP1 PUSH4 0x1998AEEF EQ PUSH2 0x11D JUMPI DUP1 PUSH4 0x1F2698AB EQ PUSH2 0x127 JUMPI DUP1 PUSH4 0x3CCFD60B EQ PUSH2 0x152 JUMPI DUP1 PUSH4 0x47CCCA02 EQ PUSH2 0x169 JUMPI JUMPDEST PUSH1 0x0 DUP1 REVERT JUMPDEST CALLVALUE DUP1 ISZERO PUSH2 0xD3 JUMPI PUSH1 0x0 DUP1 REVERT JUMPDEST POP PUSH2 0xDC PUSH2 0x2AB JUMP JUMPDEST PUSH1 0x40 MLOAD PUSH2 0xE9 SWAP2 SWAP1 PUSH2 0xF3D JUMP JUMPDEST PUSH1 0x40 MLOAD DUP1 SWAP2 SUB SWAP1 RETURN JUMPDEST CALLVALUE DUP1 ISZERO PUSH2 0xFE JUMPI PUSH1 0x0 DUP1 REVERT JUMPDEST POP PUSH2 0x107 PUSH2 0x2CF JUMP JUMPDEST PUSH1 0x40 MLOAD PUSH2 0x114 SWAP2 SWAP1 PUSH2 0xFEF JUMP JUMPDEST PUSH1 0x40 MLOAD DUP1 SWAP2 SUB SWAP1 RETURN JUMPDEST PUSH2 0x125 PUSH2 0x2E2 JUMP JUMPDEST STOP JUMPDEST CALLVALUE DUP1 ISZERO PUSH2 0x133 JUMPI PUSH1 0x0 DUP1 REVERT JUMPDEST POP PUSH2 0x13C PUSH2 0x535 JUMP JUMPDEST PUSH1 0x40 MLOAD PUSH2 0x149 SWAP2 SWAP1 PUSH2 0xFEF JUMP JUMPDEST PUSH1 0x40 MLOAD DUP1 SWAP2 SUB SWAP1 RETURN JUMPDEST CALLVALUE DUP1 ISZERO PUSH2 0x15E JUMPI PUSH1 0x0 DUP1 REVERT JUMPDEST POP PUSH2 0x167 PUSH2 0x548 JUMP JUMPDEST STOP JUMPDEST CALLVALUE DUP1 ISZERO PUSH2 0x175 JUMPI PUSH1 0x0 DUP1 REVERT JUMPDEST POP PUSH2 0x17E PUSH2 0x6CF JUMP JUMPDEST PUSH1 0x40 MLOAD PUSH2 0x18B SWAP2 SWAP1 PUSH2 0x100A JUMP JUMPDEST PUSH1 0x40 MLOAD DUP1 SWAP2 SUB SWAP1 RETURN JUMPDEST CALLVALUE DUP1 ISZERO PUSH2 0x1A0 JUMPI PUSH1 0x0 DUP1 REVERT JUMPDEST POP PUSH2 0x1BB PUSH1 0x4 DUP1 CALLDATASIZE SUB DUP2 ADD SWAP1 PUSH2 0x1B6 SWAP2 SWAP1 PUSH2 0xD5F JUMP JUMPDEST PUSH2 0x6F3 JUMP JUMPDEST PUSH1 0x40 MLOAD PUSH2 0x1C8 SWAP2 SWAP1 PUSH2 0x1105 JUMP JUMPDEST PUSH1 0x40 MLOAD DUP1 SWAP2 SUB SWAP1 RETURN JUMPDEST CALLVALUE DUP1 ISZERO PUSH2 0x1DD JUMPI PUSH1 0x0 DUP1 REVERT JUMPDEST POP PUSH2 0x1E6 PUSH2 0x70B JUMP JUMPDEST PUSH1 0x40 MLOAD PUSH2 0x1F3 SWAP2 SWAP1 PUSH2 0x1120 JUMP JUMPDEST PUSH1 0x40 MLOAD DUP1 SWAP2 SUB SWAP1 RETURN JUMPDEST CALLVALUE DUP1 ISZERO PUSH2 0x208 JUMPI PUSH1 0x0 DUP1 REVERT JUMPDEST POP PUSH2 0x211 PUSH2 0x71F JUMP JUMPDEST PUSH1 0x40 MLOAD PUSH2 0x21E SWAP2 SWAP1 PUSH2 0xF22 JUMP JUMPDEST PUSH1 0x40 MLOAD DUP1 SWAP2 SUB SWAP1 RETURN JUMPDEST CALLVALUE DUP1 ISZERO PUSH2 0x233 JUMPI PUSH1 0x0 DUP1 REVERT JUMPDEST POP PUSH2 0x23C PUSH2 0x745 JUMP JUMPDEST STOP JUMPDEST CALLVALUE DUP1 ISZERO PUSH2 0x24A JUMPI PUSH1 0x0 DUP1 REVERT JUMPDEST POP PUSH2 0x253 PUSH2 0x949 JUMP JUMPDEST PUSH1 0x40 MLOAD PUSH2 0x260 SWAP2 SWAP1 PUSH2 0x1105 JUMP JUMPDEST PUSH1 0x40 MLOAD DUP1 SWAP2 SUB SWAP1 RETURN JUMPDEST CALLVALUE DUP1 ISZERO PUSH2 0x275 JUMPI PUSH1 0x0 DUP1 REVERT JUMPDEST POP PUSH2 0x27E PUSH2 0x96D JUMP JUMPDEST PUSH1 0x40 MLOAD PUSH2 0x28B SWAP2 SWAP1 PUSH2 0x1105 JUMP JUMPDEST PUSH1 0x40 MLOAD DUP1 SWAP2 SUB SWAP1 RETURN JUMPDEST CALLVALUE DUP1 ISZERO PUSH2 0x2A0 JUMPI PUSH1 0x0 DUP1 REVERT JUMPDEST POP PUSH2 0x2A9 PUSH2 0x973 JUMP JUMPDEST STOP JUMPDEST PUSH32 0x0 DUP2 JUMP JUMPDEST PUSH1 0x0 PUSH1 0x5 SWAP1 SLOAD SWAP1 PUSH2 0x100 EXP SWAP1 DIV PUSH1 0xFF AND DUP2 JUMP JUMPDEST PUSH1 0x0 PUSH1 0x4 SWAP1 SLOAD SWAP1 PUSH2 0x100 EXP SWAP1 DIV PUSH1 0xFF AND PUSH2 0x331 JUMPI PUSH1 0x40 MLOAD PUSH32 0x8C379A000000000000000000000000000000000000000000000000000000000 DUP2 MSTORE PUSH1 0x4 ADD PUSH2 0x328 SWAP1 PUSH2 0x1085 JUMP JUMPDEST PUSH1 0x40 MLOAD DUP1 SWAP2 SUB SWAP1 REVERT JUMPDEST PUSH1 0x0 DUP1 SLOAD SWAP1 PUSH2 0x100 EXP SWAP1 DIV PUSH4 0xFFFFFFFF AND PUSH4 0xFFFFFFFF AND TIMESTAMP LT PUSH2 0x389 JUMPI PUSH1 0x40 MLOAD PUSH32 0x8C379A000000000000000000000000000000000000000000000000000000000 DUP2 MSTORE PUSH1 0x4 ADD PUSH2 0x380 SWAP1 PUSH2 0x10C5 JUMP JUMPDEST PUSH1 0x40 MLOAD DUP1 SWAP2 SUB SWAP1 REVERT JUMPDEST PUSH1 0x1 SLOAD CALLVALUE GT PUSH2 0x3CD JUMPI PUSH1 0x40 MLOAD PUSH32 0x8C379A000000000000000000000000000000000000000000000000000000000 DUP2 MSTORE PUSH1 0x4 ADD PUSH2 0x3C4 SWAP1 PUSH2 0x1025 JUMP JUMPDEST PUSH1 0x40 MLOAD DUP1 SWAP2 SUB SWAP1 REVERT JUMPDEST PUSH1 0x0 PUSH20 0xFFFFFFFFFFFFFFFFFFFFFFFFFFFFFFFFFFFFFFFF AND PUSH1 0x0 PUSH1 0x6 SWAP1 SLOAD SWAP1 PUSH2 0x100 EXP SWAP1 DIV PUSH20 0xFFFFFFFFFFFFFFFFFFFFFFFFFFFFFFFFFFFFFFFF AND PUSH20 0xFFFFFFFFFFFFFFFFFFFFFFFFFFFFFFFFFFFFFFFF AND EQ PUSH2 0x49D JUMPI PUSH1 0x1 SLOAD PUSH1 0x2 PUSH1 0x0 DUP1 PUSH1 0x6 SWAP1 SLOAD SWAP1 PUSH2 0x100 EXP SWAP1 DIV PUSH20 0xFFFFFFFFFFFFFFFFFFFFFFFFFFFFFFFFFFFFFFFF AND PUSH20 0xFFFFFFFFFFFFFFFFFFFFFFFFFFFFFFFFFFFFFFFF AND PUSH20 0xFFFFFFFFFFFFFFFFFFFFFFFFFFFFFFFFFFFFFFFF AND DUP2 MSTORE PUSH1 0x20 ADD SWAP1 DUP2 MSTORE PUSH1 0x20 ADD PUSH1 0x0 KECCAK256 PUSH1 0x0 DUP3 DUP3 SLOAD PUSH2 0x495 SWAP2 SWAP1 PUSH2 0x1157 JUMP JUMPDEST SWAP3 POP POP DUP2 SWAP1 SSTORE POP JUMPDEST CALLVALUE PUSH1 0x1 DUP2 SWAP1 SSTORE POP CALLER PUSH1 0x0 PUSH1 0x6 PUSH2 0x100 EXP DUP2 SLOAD DUP2 PUSH20 0xFFFFFFFFFFFFFFFFFFFFFFFFFFFFFFFFFFFFFFFF MUL NOT AND SWAP1 DUP4 PUSH20 0xFFFFFFFFFFFFFFFFFFFFFFFFFFFFFFFFFFFFFFFF AND MUL OR SWAP1 SSTORE POP CALLER PUSH20 0xFFFFFFFFFFFFFFFFFFFFFFFFFFFFFFFFFFFFFFFF AND PUSH32 0xE684A55F31B79ECA403DF938249029212A5925EC6BE8012E099B45BC1019E5D2 CALLVALUE PUSH1 0x40 MLOAD PUSH2 0x52B SWAP2 SWAP1 PUSH2 0x1105 JUMP JUMPDEST PUSH1 0x40 MLOAD DUP1 SWAP2 SUB SWAP1 LOG2 JUMP JUMPDEST PUSH1 0x0 PUSH1 0x4 SWAP1 SLOAD SWAP1 PUSH2 0x100 EXP SWAP1 DIV PUSH1 0xFF AND DUP2 JUMP JUMPDEST PUSH1 0x0 PUSH1 0x2 PUSH1 0x0 CALLER PUSH20 0xFFFFFFFFFFFFFFFFFFFFFFFFFFFFFFFFFFFFFFFF AND PUSH20 0xFFFFFFFFFFFFFFFFFFFFFFFFFFFFFFFFFFFFFFFF AND DUP2 MSTORE PUSH1 0x20 ADD SWAP1 DUP2 MSTORE PUSH1 0x20 ADD PUSH1 0x0 KECCAK256 SLOAD SWAP1 POP PUSH1 0x0 PUSH1 0x2 PUSH1 0x0 CALLER PUSH20 0xFFFFFFFFFFFFFFFFFFFFFFFFFFFFFFFFFFFFFFFF AND PUSH20 0xFFFFFFFFFFFFFFFFFFFFFFFFFFFFFFFFFFFFFFFF AND DUP2 MSTORE PUSH1 0x20 ADD SWAP1 DUP2 MSTORE PUSH1 0x20 ADD PUSH1 0x0 KECCAK256 DUP2 SWAP1 SSTORE POP PUSH1 0x0 CALLER PUSH20 0xFFFFFFFFFFFFFFFFFFFFFFFFFFFFFFFFFFFFFFFF AND DUP3 PUSH1 0x40 MLOAD PUSH2 0x5F7 SWAP1 PUSH2 0xF0D JUMP JUMPDEST PUSH1 0x0 PUSH1 0x40 MLOAD DUP1 DUP4 SUB DUP2 DUP6 DUP8 GAS CALL SWAP3 POP POP POP RETURNDATASIZE DUP1 PUSH1 0x0 DUP2 EQ PUSH2 0x634 JUMPI PUSH1 0x40 MLOAD SWAP2 POP PUSH1 0x1F NOT PUSH1 0x3F RETURNDATASIZE ADD AND DUP3 ADD PUSH1 0x40 MSTORE RETURNDATASIZE DUP3 MSTORE RETURNDATASIZE PUSH1 0x0 PUSH1 0x20 DUP5 ADD RETURNDATACOPY PUSH2 0x639 JUMP JUMPDEST PUSH1 0x60 SWAP2 POP JUMPDEST POP POP SWAP1 POP DUP1 PUSH2 0x67D JUMPI PUSH1 0x40 MLOAD PUSH32 0x8C379A000000000000000000000000000000000000000000000000000000000 DUP2 MSTORE PUSH1 0x4 ADD PUSH2 0x674 SWAP1 PUSH2 0x1065 JUMP JUMPDEST PUSH1 0x40 MLOAD DUP1 SWAP2 SUB SWAP1 REVERT JUMPDEST CALLER PUSH20 0xFFFFFFFFFFFFFFFFFFFFFFFFFFFFFFFFFFFFFFFF AND PUSH32 0x884EDAD9CE6FA2440D8A54CC123490EB96D2768479D49FF9C7366125A9424364 DUP4 PUSH1 0x40 MLOAD PUSH2 0x6C3 SWAP2 SWAP1 PUSH2 0x1105 JUMP JUMPDEST PUSH1 0x40 MLOAD DUP1 SWAP2 SUB SWAP1 LOG2 POP POP JUMP JUMPDEST PUSH32 0x0 DUP2 JUMP JUMPDEST PUSH1 0x2 PUSH1 0x20 MSTORE DUP1 PUSH1 0x0 MSTORE PUSH1 0x40 PUSH1 0x0 KECCAK256 PUSH1 0x0 SWAP2 POP SWAP1 POP SLOAD DUP2 JUMP JUMPDEST PUSH1 0x0 DUP1 SLOAD SWAP1 PUSH2 0x100 EXP SWAP1 DIV PUSH4 0xFFFFFFFF AND DUP2 JUMP JUMPDEST PUSH1 0x0 PUSH1 0x6 SWAP1 SLOAD SWAP1 PUSH2 0x100 EXP SWAP1 DIV PUSH20 0xFFFFFFFFFFFFFFFFFFFFFFFFFFFFFFFFFFFFFFFF AND DUP2 JUMP JUMPDEST PUSH32 0x0 PUSH20 0xFFFFFFFFFFFFFFFFFFFFFFFFFFFFFFFFFFFFFFFF AND CALLER PUSH20 0xFFFFFFFFFFFFFFFFFFFFFFFFFFFFFFFFFFFFFFFF AND EQ PUSH2 0x7D3 JUMPI PUSH1 0x40 MLOAD PUSH32 0x8C379A000000000000000000000000000000000000000000000000000000000 DUP2 MSTORE PUSH1 0x4 ADD PUSH2 0x7CA SWAP1 PUSH2 0x10A5 JUMP JUMPDEST PUSH1 0x40 MLOAD DUP1 SWAP2 SUB SWAP1 REVERT JUMPDEST PUSH1 0x0 PUSH1 0x4 SWAP1 SLOAD SWAP1 PUSH2 0x100 EXP SWAP1 DIV PUSH1 0xFF AND ISZERO PUSH2 0x823 JUMPI PUSH1 0x40 MLOAD PUSH32 0x8C379A000000000000000000000000000000000000000000000000000000000 DUP2 MSTORE PUSH1 0x4 ADD PUSH2 0x81A SWAP1 PUSH2 0x1045 JUMP JUMPDEST PUSH1 0x40 MLOAD DUP1 SWAP2 SUB SWAP1 REVERT JUMPDEST PUSH1 0x1 PUSH1 0x0 PUSH1 0x4 PUSH2 0x100 EXP DUP2 SLOAD DUP2 PUSH1 0xFF MUL NOT AND SWAP1 DUP4 ISZERO ISZERO MUL OR SWAP1 SSTORE POP PUSH3 0x93A80 TIMESTAMP PUSH2 0x84D SWAP2 SWAP1 PUSH2 0x1157 JUMP JUMPDEST PUSH1 0x0 DUP1 PUSH2 0x100 EXP DUP2 SLOAD DUP2 PUSH4 0xFFFFFFFF MUL NOT AND SWAP1 DUP4 PUSH4 0xFFFFFFFF AND MUL OR SWAP1 SSTORE POP PUSH32 0x0 PUSH20 0xFFFFFFFFFFFFFFFFFFFFFFFFFFFFFFFFFFFFFFFF AND PUSH4 0x23B872DD CALLER ADDRESS PUSH32 0x0 PUSH1 0x40 MLOAD DUP5 PUSH4 0xFFFFFFFF AND PUSH1 0xE0 SHL DUP2 MSTORE PUSH1 0x4 ADD PUSH2 0x8E9 SWAP4 SWAP3 SWAP2 SWAP1 PUSH2 0xF8F JUMP JUMPDEST PUSH1 0x0 PUSH1 0x40 MLOAD DUP1 DUP4 SUB DUP2 PUSH1 0x0 DUP8 DUP1 EXTCODESIZE ISZERO DUP1 ISZERO PUSH2 0x903 JUMPI PUSH1 0x0 DUP1 REVERT JUMPDEST POP GAS CALL ISZERO DUP1 ISZERO PUSH2 0x917 JUMPI RETURNDATASIZE PUSH1 0x0 DUP1 RETURNDATACOPY RETURNDATASIZE PUSH1 0x0 REVERT JUMPDEST POP POP POP POP PUSH32 0x1B55BA3AA851A46BE3B365AEE5B5C140EDD620D578922F3E8466D2CBD96F954B PUSH1 0x40 MLOAD PUSH1 0x40 MLOAD DUP1 SWAP2 SUB SWAP1 LOG1 JUMP JUMPDEST PUSH32 0x0 DUP2 JUMP JUMPDEST PUSH1 0x1 SLOAD DUP2 JUMP JUMPDEST PUSH1 0x0 PUSH1 0x4 SWAP1 SLOAD SWAP1 PUSH2 0x100 EXP SWAP1 DIV PUSH1 0xFF AND PUSH2 0x9C2 JUMPI PUSH1 0x40 MLOAD PUSH32 0x8C379A000000000000000000000000000000000000000000000000000000000 DUP2 MSTORE PUSH1 0x4 ADD PUSH2 0x9B9 SWAP1 PUSH2 0x1085 JUMP JUMPDEST PUSH1 0x40 MLOAD DUP1 SWAP2 SUB SWAP1 REVERT JUMPDEST PUSH1 0x0 PUSH1 0x5 SWAP1 SLOAD SWAP1 PUSH2 0x100 EXP SWAP1 DIV PUSH1 0xFF AND ISZERO PUSH2 0xA12 JUMPI PUSH1 0x40 MLOAD PUSH32 0x8C379A000000000000000000000000000000000000000000000000000000000 DUP2 MSTORE PUSH1 0x4 ADD PUSH2 0xA09 SWAP1 PUSH2 0x10C5 JUMP JUMPDEST PUSH1 0x40 MLOAD DUP1 SWAP2 SUB SWAP1 REVERT JUMPDEST PUSH1 0x0 DUP1 SLOAD SWAP1 PUSH2 0x100 EXP SWAP1 DIV PUSH4 0xFFFFFFFF AND PUSH4 0xFFFFFFFF AND TIMESTAMP LT ISZERO PUSH2 0xA6B JUMPI PUSH1 0x40 MLOAD PUSH32 0x8C379A000000000000000000000000000000000000000000000000000000000 DUP2 MSTORE PUSH1 0x4 ADD PUSH2 0xA62 SWAP1 PUSH2 0x10E5 JUMP JUMPDEST PUSH1 0x40 MLOAD DUP1 SWAP2 SUB SWAP1 REVERT JUMPDEST PUSH1 0x1 PUSH1 0x0 PUSH1 0x5 PUSH2 0x100 EXP DUP2 SLOAD DUP2 PUSH1 0xFF MUL NOT AND SWAP1 DUP4 ISZERO ISZERO MUL OR SWAP1 SSTORE POP PUSH1 0x0 PUSH20 0xFFFFFFFFFFFFFFFFFFFFFFFFFFFFFFFFFFFFFFFF AND PUSH1 0x0 PUSH1 0x6 SWAP1 SLOAD SWAP1 PUSH2 0x100 EXP SWAP1 DIV PUSH20 0xFFFFFFFFFFFFFFFFFFFFFFFFFFFFFFFFFFFFFFFF AND PUSH20 0xFFFFFFFFFFFFFFFFFFFFFFFFFFFFFFFFFFFFFFFF AND EQ PUSH2 0xC1B JUMPI PUSH32 0x0 PUSH20 0xFFFFFFFFFFFFFFFFFFFFFFFFFFFFFFFFFFFFFFFF AND PUSH4 0x23B872DD ADDRESS PUSH1 0x0 PUSH1 0x6 SWAP1 SLOAD SWAP1 PUSH2 0x100 EXP SWAP1 DIV PUSH20 0xFFFFFFFFFFFFFFFFFFFFFFFFFFFFFFFFFFFFFFFF AND PUSH32 0x0 PUSH1 0x40 MLOAD DUP5 PUSH4 0xFFFFFFFF AND PUSH1 0xE0 SHL DUP2 MSTORE PUSH1 0x4 ADD PUSH2 0xB7B SWAP4 SWAP3 SWAP2 SWAP1 PUSH2 0xF8F JUMP JUMPDEST PUSH1 0x0 PUSH1 0x40 MLOAD DUP1 DUP4 SUB DUP2 PUSH1 0x0 DUP8 DUP1 EXTCODESIZE ISZERO DUP1 ISZERO PUSH2 0xB95 JUMPI PUSH1 0x0 DUP1 REVERT JUMPDEST POP GAS CALL ISZERO DUP1 ISZERO PUSH2 0xBA9 JUMPI RETURNDATASIZE PUSH1 0x0 DUP1 RETURNDATACOPY RETURNDATASIZE PUSH1 0x0 REVERT JUMPDEST POP POP POP POP PUSH32 0x0 PUSH20 0xFFFFFFFFFFFFFFFFFFFFFFFFFFFFFFFFFFFFFFFF AND PUSH2 0x8FC PUSH1 0x1 SLOAD SWAP1 DUP2 ISZERO MUL SWAP1 PUSH1 0x40 MLOAD PUSH1 0x0 PUSH1 0x40 MLOAD DUP1 DUP4 SUB DUP2 DUP6 DUP9 DUP9 CALL SWAP4 POP POP POP POP ISZERO DUP1 ISZERO PUSH2 0xC15 JUMPI RETURNDATASIZE PUSH1 0x0 DUP1 RETURNDATACOPY RETURNDATASIZE PUSH1 0x0 REVERT JUMPDEST POP PUSH2 0xCEB JUMP JUMPDEST PUSH32 0x0 PUSH20 0xFFFFFFFFFFFFFFFFFFFFFFFFFFFFFFFFFFFFFFFF AND PUSH4 0x23B872DD ADDRESS PUSH32 0x0 PUSH32 0x0 PUSH1 0x40 MLOAD DUP5 PUSH4 0xFFFFFFFF AND PUSH1 0xE0 SHL DUP2 MSTORE PUSH1 0x4 ADD PUSH2 0xCB8 SWAP4 SWAP3 SWAP2 SWAP1 PUSH2 0xF58 JUMP JUMPDEST PUSH1 0x0 PUSH1 0x40 MLOAD DUP1 DUP4 SUB DUP2 PUSH1 0x0 DUP8 DUP1 EXTCODESIZE ISZERO DUP1 ISZERO PUSH2 0xCD2 JUMPI PUSH1 0x0 DUP1 REVERT JUMPDEST POP GAS CALL ISZERO DUP1 ISZERO PUSH2 0xCE6 JUMPI RETURNDATASIZE PUSH1 0x0 DUP1 RETURNDATACOPY RETURNDATASIZE PUSH1 0x0 REVERT JUMPDEST POP POP POP POP JUMPDEST PUSH32 0x7D7570B046E5EAD3A4F3FBC9FA2445113625A1E79823776146316BAFED6B8CC5 PUSH1 0x0 PUSH1 0x6 SWAP1 SLOAD SWAP1 PUSH2 0x100 EXP SWAP1 DIV PUSH20 0xFFFFFFFFFFFFFFFFFFFFFFFFFFFFFFFFFFFFFFFF AND PUSH1 0x1 SLOAD PUSH1 0x40 MLOAD PUSH2 0xD40 SWAP3 SWAP2 SWAP1 PUSH2 0xFC6 JUMP JUMPDEST PUSH1 0x40 MLOAD DUP1 SWAP2 SUB SWAP1 LOG1 JUMP JUMPDEST PUSH1 0x0 DUP2 CALLDATALOAD SWAP1 POP PUSH2 0xD59 DUP2 PUSH2 0x13B5 JUMP JUMPDEST SWAP3 SWAP2 POP POP JUMP JUMPDEST PUSH1 0x0 PUSH1 0x20 DUP3 DUP5 SUB SLT ISZERO PUSH2 0xD75 JUMPI PUSH2 0xD74 PUSH2 0x128E JUMP JUMPDEST JUMPDEST PUSH1 0x0 PUSH2 0xD83 DUP5 DUP3 DUP6 ADD PUSH2 0xD4A JUMP JUMPDEST SWAP2 POP POP SWAP3 SWAP2 POP POP JUMP JUMPDEST PUSH2 0xD95 DUP2 PUSH2 0x1217 JUMP JUMPDEST DUP3 MSTORE POP POP JUMP JUMPDEST PUSH2 0xDA4 DUP2 PUSH2 0x11BF JUMP JUMPDEST DUP3 MSTORE POP POP JUMP JUMPDEST PUSH2 0xDB3 DUP2 PUSH2 0x11AD JUMP JUMPDEST DUP3 MSTORE POP POP JUMP JUMPDEST PUSH2 0xDC2 DUP2 PUSH2 0x11D1 JUMP JUMPDEST DUP3 MSTORE POP POP JUMP JUMPDEST PUSH2 0xDD1 DUP2 PUSH2 0x1229 JUMP JUMPDEST DUP3 MSTORE POP POP JUMP JUMPDEST PUSH1 0x0 PUSH2 0xDE4 PUSH1 0x13 DUP4 PUSH2 0x1146 JUMP JUMPDEST SWAP2 POP PUSH2 0xDEF DUP3 PUSH2 0x1293 JUMP JUMPDEST PUSH1 0x20 DUP3 ADD SWAP1 POP SWAP2 SWAP1 POP JUMP JUMPDEST PUSH1 0x0 PUSH2 0xE07 PUSH1 0x7 DUP4 PUSH2 0x1146 JUMP JUMPDEST SWAP2 POP PUSH2 0xE12 DUP3 PUSH2 0x12BC JUMP JUMPDEST PUSH1 0x20 DUP3 ADD SWAP1 POP SWAP2 SWAP1 POP JUMP JUMPDEST PUSH1 0x0 PUSH2 0xE2A PUSH1 0x0 DUP4 PUSH2 0x113B JUMP JUMPDEST SWAP2 POP PUSH2 0xE35 DUP3 PUSH2 0x12E5 JUMP JUMPDEST PUSH1 0x0 DUP3 ADD SWAP1 POP SWAP2 SWAP1 POP JUMP JUMPDEST PUSH1 0x0 PUSH2 0xE4D PUSH1 0x10 DUP4 PUSH2 0x1146 JUMP JUMPDEST SWAP2 POP PUSH2 0xE58 DUP3 PUSH2 0x12E8 JUMP JUMPDEST PUSH1 0x20 DUP3 ADD SWAP1 POP SWAP2 SWAP1 POP JUMP JUMPDEST PUSH1 0x0 PUSH2 0xE70 PUSH1 0xB DUP4 PUSH2 0x1146 JUMP JUMPDEST SWAP2 POP PUSH2 0xE7B DUP3 PUSH2 0x1311 JUMP JUMPDEST PUSH1 0x20 DUP3 ADD SWAP1 POP SWAP2 SWAP1 POP JUMP JUMPDEST PUSH1 0x0 PUSH2 0xE93 PUSH1 0xA DUP4 PUSH2 0x1146 JUMP JUMPDEST SWAP2 POP PUSH2 0xE9E DUP3 PUSH2 0x133A JUMP JUMPDEST PUSH1 0x20 DUP3 ADD SWAP1 POP SWAP2 SWAP1 POP JUMP JUMPDEST PUSH1 0x0 PUSH2 0xEB6 PUSH1 0x5 DUP4 PUSH2 0x1146 JUMP JUMPDEST SWAP2 POP PUSH2 0xEC1 DUP3 PUSH2 0x1363 JUMP JUMPDEST PUSH1 0x20 DUP3 ADD SWAP1 POP SWAP2 SWAP1 POP JUMP JUMPDEST PUSH1 0x0 PUSH2 0xED9 PUSH1 0x9 DUP4 PUSH2 0x1146 JUMP JUMPDEST SWAP2 POP PUSH2 0xEE4 DUP3 PUSH2 0x138C JUMP JUMPDEST PUSH1 0x20 DUP3 ADD SWAP1 POP SWAP2 SWAP1 POP JUMP JUMPDEST PUSH2 0xEF8 DUP2 PUSH2 0x11FD JUMP JUMPDEST DUP3 MSTORE POP POP JUMP JUMPDEST PUSH2 0xF07 DUP2 PUSH2 0x1207 JUMP JUMPDEST DUP3 MSTORE POP POP JUMP JUMPDEST PUSH1 0x0 PUSH2 0xF18 DUP3 PUSH2 0xE1D JUMP JUMPDEST SWAP2 POP DUP2 SWAP1 POP SWAP2 SWAP1 POP JUMP JUMPDEST PUSH1 0x0 PUSH1 0x20 DUP3 ADD SWAP1 POP PUSH2 0xF37 PUSH1 0x0 DUP4 ADD DUP5 PUSH2 0xDAA JUMP JUMPDEST SWAP3 SWAP2 POP POP JUMP JUMPDEST PUSH1 0x0 PUSH1 0x20 DUP3 ADD SWAP1 POP PUSH2 0xF52 PUSH1 0x0 DUP4 ADD DUP5 PUSH2 0xD9B JUMP JUMPDEST SWAP3 SWAP2 POP POP JUMP JUMPDEST PUSH1 0x0 PUSH1 0x60 DUP3 ADD SWAP1 POP PUSH2 0xF6D PUSH1 0x0 DUP4 ADD DUP7 PUSH2 0xDAA JUMP JUMPDEST PUSH2 0xF7A PUSH1 0x20 DUP4 ADD DUP6 PUSH2 0xD8C JUMP JUMPDEST PUSH2 0xF87 PUSH1 0x40 DUP4 ADD DUP5 PUSH2 0xEEF JUMP JUMPDEST SWAP5 SWAP4 POP POP POP POP JUMP JUMPDEST PUSH1 0x0 PUSH1 0x60 DUP3 ADD SWAP1 POP PUSH2 0xFA4 PUSH1 0x0 DUP4 ADD DUP7 PUSH2 0xDAA JUMP JUMPDEST PUSH2 0xFB1 PUSH1 0x20 DUP4 ADD DUP6 PUSH2 0xDAA JUMP JUMPDEST PUSH2 0xFBE PUSH1 0x40 DUP4 ADD DUP5 PUSH2 0xEEF JUMP JUMPDEST SWAP5 SWAP4 POP POP POP POP JUMP JUMPDEST PUSH1 0x0 PUSH1 0x40 DUP3 ADD SWAP1 POP PUSH2 0xFDB PUSH1 0x0 DUP4 ADD DUP6 PUSH2 0xDAA JUMP JUMPDEST PUSH2 0xFE8 PUSH1 0x20 DUP4 ADD DUP5 PUSH2 0xEEF JUMP JUMPDEST SWAP4 SWAP3 POP POP POP JUMP JUMPDEST PUSH1 0x0 PUSH1 0x20 DUP3 ADD SWAP1 POP PUSH2 0x1004 PUSH1 0x0 DUP4 ADD DUP5 PUSH2 0xDB9 JUMP JUMPDEST SWAP3 SWAP2 POP POP JUMP JUMPDEST PUSH1 0x0 PUSH1 0x20 DUP3 ADD SWAP1 POP PUSH2 0x101F PUSH1 0x0 DUP4 ADD DUP5 PUSH2 0xDC8 JUMP JUMPDEST SWAP3 SWAP2 POP POP JUMP JUMPDEST PUSH1 0x0 PUSH1 0x20 DUP3 ADD SWAP1 POP DUP2 DUP2 SUB PUSH1 0x0 DUP4 ADD MSTORE PUSH2 0x103E DUP2 PUSH2 0xDD7 JUMP JUMPDEST SWAP1 POP SWAP2 SWAP1 POP JUMP JUMPDEST PUSH1 0x0 PUSH1 0x20 DUP3 ADD SWAP1 POP DUP2 DUP2 SUB PUSH1 0x0 DUP4 ADD MSTORE PUSH2 0x105E DUP2 PUSH2 0xDFA JUMP JUMPDEST SWAP1 POP SWAP2 SWAP1 POP JUMP JUMPDEST PUSH1 0x0 PUSH1 0x20 DUP3 ADD SWAP1 POP DUP2 DUP2 SUB PUSH1 0x0 DUP4 ADD MSTORE PUSH2 0x107E DUP2 PUSH2 0xE40 JUMP JUMPDEST SWAP1 POP SWAP2 SWAP1 POP JUMP JUMPDEST PUSH1 0x0 PUSH1 0x20 DUP3 ADD SWAP1 POP DUP2 DUP2 SUB PUSH1 0x0 DUP4 ADD MSTORE PUSH2 0x109E DUP2 PUSH2 0xE63 JUMP JUMPDEST SWAP1 POP SWAP2 SWAP1 POP JUMP JUMPDEST PUSH1 0x0 PUSH1 0x20 DUP3 ADD SWAP1 POP DUP2 DUP2 SUB PUSH1 0x0 DUP4 ADD MSTORE PUSH2 0x10BE DUP2 PUSH2 0xE86 JUMP JUMPDEST SWAP1 POP SWAP2 SWAP1 POP JUMP JUMPDEST PUSH1 0x0 PUSH1 0x20 DUP3 ADD SWAP1 POP DUP2 DUP2 SUB PUSH1 0x0 DUP4 ADD MSTORE PUSH2 0x10DE DUP2 PUSH2 0xEA9 JUMP JUMPDEST SWAP1 POP SWAP2 SWAP1 POP JUMP JUMPDEST PUSH1 0x0 PUSH1 0x20 DUP3 ADD SWAP1 POP DUP2 DUP2 SUB PUSH1 0x0 DUP4 ADD MSTORE PUSH2 0x10FE DUP2 PUSH2 0xECC JUMP JUMPDEST SWAP1 POP SWAP2 SWAP1 POP JUMP JUMPDEST PUSH1 0x0 PUSH1 0x20 DUP3 ADD SWAP1 POP PUSH2 0x111A PUSH1 0x0 DUP4 ADD DUP5 PUSH2 0xEEF JUMP JUMPDEST SWAP3 SWAP2 POP POP JUMP JUMPDEST PUSH1 0x0 PUSH1 0x20 DUP3 ADD SWAP1 POP PUSH2 0x1135 PUSH1 0x0 DUP4 ADD DUP5 PUSH2 0xEFE JUMP JUMPDEST SWAP3 SWAP2 POP POP JUMP JUMPDEST PUSH1 0x0 DUP2 SWAP1 POP SWAP3 SWAP2 POP POP JUMP JUMPDEST PUSH1 0x0 DUP3 DUP3 MSTORE PUSH1 0x20 DUP3 ADD SWAP1 POP SWAP3 SWAP2 POP POP JUMP JUMPDEST PUSH1 0x0 PUSH2 0x1162 DUP3 PUSH2 0x11FD JUMP JUMPDEST SWAP2 POP PUSH2 0x116D DUP4 PUSH2 0x11FD JUMP JUMPDEST SWAP3 POP DUP3 PUSH32 0xFFFFFFFFFFFFFFFFFFFFFFFFFFFFFFFFFFFFFFFFFFFFFFFFFFFFFFFFFFFFFFFF SUB DUP3 GT ISZERO PUSH2 0x11A2 JUMPI PUSH2 0x11A1 PUSH2 0x125F JUMP JUMPDEST JUMPDEST DUP3 DUP3 ADD SWAP1 POP SWAP3 SWAP2 POP POP JUMP JUMPDEST PUSH1 0x0 PUSH2 0x11B8 DUP3 PUSH2 0x11DD JUMP JUMPDEST SWAP1 POP SWAP2 SWAP1 POP JUMP JUMPDEST PUSH1 0x0 PUSH2 0x11CA DUP3 PUSH2 0x11DD JUMP JUMPDEST SWAP1 POP SWAP2 SWAP1 POP JUMP JUMPDEST PUSH1 0x0 DUP2 ISZERO ISZERO SWAP1 POP SWAP2 SWAP1 POP JUMP JUMPDEST PUSH1 0x0 PUSH20 0xFFFFFFFFFFFFFFFFFFFFFFFFFFFFFFFFFFFFFFFF DUP3 AND SWAP1 POP SWAP2 SWAP1 POP JUMP JUMPDEST PUSH1 0x0 DUP2 SWAP1 POP SWAP2 SWAP1 POP JUMP JUMPDEST PUSH1 0x0 PUSH4 0xFFFFFFFF DUP3 AND SWAP1 POP SWAP2 SWAP1 POP JUMP JUMPDEST PUSH1 0x0 PUSH2 0x1222 DUP3 PUSH2 0x123B JUMP JUMPDEST SWAP1 POP SWAP2 SWAP1 POP JUMP JUMPDEST PUSH1 0x0 PUSH2 0x1234 DUP3 PUSH2 0x123B JUMP JUMPDEST SWAP1 POP SWAP2 SWAP1 POP JUMP JUMPDEST PUSH1 0x0 PUSH2 0x1246 DUP3 PUSH2 0x124D JUMP JUMPDEST SWAP1 POP SWAP2 SWAP1 POP JUMP JUMPDEST PUSH1 0x0 PUSH2 0x1258 DUP3 PUSH2 0x11DD JUMP JUMPDEST SWAP1 POP SWAP2 SWAP1 POP JUMP JUMPDEST PUSH32 0x4E487B7100000000000000000000000000000000000000000000000000000000 PUSH1 0x0 MSTORE PUSH1 0x11 PUSH1 0x4 MSTORE PUSH1 0x24 PUSH1 0x0 REVERT JUMPDEST PUSH1 0x0 DUP1 REVERT JUMPDEST PUSH32 0x76616C7565203C20686967686573742062696400000000000000000000000000 PUSH1 0x0 DUP3 ADD MSTORE POP JUMP JUMPDEST PUSH32 0x7374617274656400000000000000000000000000000000000000000000000000 PUSH1 0x0 DUP3 ADD MSTORE POP JUMP JUMPDEST POP JUMP JUMPDEST PUSH32 0x77697468647261776C206661696C656400000000000000000000000000000000 PUSH1 0x0 DUP3 ADD MSTORE POP JUMP JUMPDEST PUSH32 0x6E6F742073746172746564000000000000000000000000000000000000000000 PUSH1 0x0 DUP3 ADD MSTORE POP JUMP JUMPDEST PUSH32 0x6E6F742073656C6C657200000000000000000000000000000000000000000000 PUSH1 0x0 DUP3 ADD MSTORE POP JUMP JUMPDEST PUSH32 0x656E646564000000000000000000000000000000000000000000000000000000 PUSH1 0x0 DUP3 ADD MSTORE POP JUMP JUMPDEST PUSH32 0x6E6F7420656E6465640000000000000000000000000000000000000000000000 PUSH1 0x0 DUP3 ADD MSTORE POP JUMP JUMPDEST PUSH2 0x13BE DUP2 PUSH2 0x11AD JUMP JUMPDEST DUP2 EQ PUSH2 0x13C9 JUMPI PUSH1 0x0 DUP1 REVERT JUMPDEST POP JUMP INVALID LOG2 PUSH5 0x6970667358 0x22 SLT KECCAK256 COINBASE PUSH8 0xA7649719D342D2D9 0xBE JUMP GT PUSH14 0x62493D8328D33D7C1E2C23E74D39 0xB9 RETURNDATASIZE 0x29 GASPRICE PUSH5 0x736F6C6343 STOP ADDMOD SMOD STOP CALLER "
				},
				"gasEstimates": {
					"creation": {
						"codeDepositCost": "1024400",
						"executionCost": "infinite",
						"totalCost": "infinite"
					},
					"external": {
						"bid()": "infinite",
						"bids(address)": "2837",
						"end()": "infinite",
						"endAt()": "2513",
						"ended()": "2544",
						"highestBid()": "2495",
						"highestBidder()": "2631",
						"nft()": "infinite",
						"nftId()": "infinite",
						"seller()": "infinite",
						"start()": "infinite",
						"started()": "2588",
						"withdraw()": "infinite"
					}
				},
				"methodIdentifiers": {
					"bid()": "1998aeef",
					"bids(address)": "62ea82db",
					"end()": "efbe1c1c",
					"endAt()": "7cc3ae8c",
					"ended()": "12fa6feb",
					"highestBid()": "d57bde79",
					"highestBidder()": "91f90157",
					"nft()": "47ccca02",
					"nftId()": "c6bc5182",
					"seller()": "08551a53",
					"start()": "be9a6555",
					"started()": "1f2698ab",
					"withdraw()": "3ccfd60b"
				}
			},
			"storageLayout": {
				"storage": [
					{
						"astId": 40,
						"contract": "contracts/NFTEnglishAuction.sol:EnglishAuction",
						"label": "endAt",
						"offset": 0,
						"slot": "0",
						"type": "t_uint32"
					},
					{
						"astId": 42,
						"contract": "contracts/NFTEnglishAuction.sol:EnglishAuction",
						"label": "started",
						"offset": 4,
						"slot": "0",
						"type": "t_bool"
					},
					{
						"astId": 44,
						"contract": "contracts/NFTEnglishAuction.sol:EnglishAuction",
						"label": "ended",
						"offset": 5,
						"slot": "0",
						"type": "t_bool"
					},
					{
						"astId": 46,
						"contract": "contracts/NFTEnglishAuction.sol:EnglishAuction",
						"label": "highestBidder",
						"offset": 6,
						"slot": "0",
						"type": "t_address"
					},
					{
						"astId": 48,
						"contract": "contracts/NFTEnglishAuction.sol:EnglishAuction",
						"label": "highestBid",
						"offset": 0,
						"slot": "1",
						"type": "t_uint256"
					},
					{
						"astId": 52,
						"contract": "contracts/NFTEnglishAuction.sol:EnglishAuction",
						"label": "bids",
						"offset": 0,
						"slot": "2",
						"type": "t_mapping(t_address,t_uint256)"
					}
				],
				"types": {
					"t_address": {
						"encoding": "inplace",
						"label": "address",
						"numberOfBytes": "20"
					},
					"t_bool": {
						"encoding": "inplace",
						"label": "bool",
						"numberOfBytes": "1"
					},
					"t_mapping(t_address,t_uint256)": {
						"encoding": "mapping",
						"key": "t_address",
						"label": "mapping(address => uint256)",
						"numberOfBytes": "32",
						"value": "t_uint256"
					},
					"t_uint256": {
						"encoding": "inplace",
						"label": "uint256",
						"numberOfBytes": "32"
					},
					"t_uint32": {
						"encoding": "inplace",
						"label": "uint32",
						"numberOfBytes": "4"
					}
				}
			},
			"userdoc": {
				"kind": "user",
				"methods": {},
				"version": 1
			}
		}
	}
}