{
	"contracts/11_Voting.sol": {
		"Ballot": {
			"abi": [
				{
					"inputs": [
						{
							"internalType": "string",
							"name": "_ballotOfficialName",
							"type": "string"
						},
						{
							"internalType": "string",
							"name": "_proposal",
							"type": "string"
						}
					],
					"stateMutability": "nonpayable",
					"type": "constructor"
				},
				{
					"inputs": [
						{
							"internalType": "address",
							"name": "_voterAddress",
							"type": "address"
						},
						{
							"internalType": "string",
							"name": "_voterName",
							"type": "string"
						}
					],
					"name": "addVoter",
					"outputs": [],
					"stateMutability": "nonpayable",
					"type": "function"
				},
				{
					"inputs": [],
					"name": "ballotOfficialAddress",
					"outputs": [
						{
							"internalType": "address",
							"name": "",
							"type": "address"
						}
					],
					"stateMutability": "view",
					"type": "function"
				},
				{
					"inputs": [],
					"name": "ballotOfficialName",
					"outputs": [
						{
							"internalType": "string",
							"name": "",
							"type": "string"
						}
					],
					"stateMutability": "view",
					"type": "function"
				},
				{
					"inputs": [
						{
							"internalType": "bool",
							"name": "_choice",
							"type": "bool"
						}
					],
					"name": "doVote",
					"outputs": [
						{
							"internalType": "bool",
							"name": "voted",
							"type": "bool"
						}
					],
					"stateMutability": "nonpayable",
					"type": "function"
				},
				{
					"inputs": [],
					"name": "endVote",
					"outputs": [],
					"stateMutability": "nonpayable",
					"type": "function"
				},
				{
					"inputs": [],
					"name": "finalResult",
					"outputs": [
						{
							"internalType": "uint256",
							"name": "",
							"type": "uint256"
						}
					],
					"stateMutability": "view",
					"type": "function"
				},
				{
					"inputs": [],
					"name": "proposal",
					"outputs": [
						{
							"internalType": "string",
							"name": "",
							"type": "string"
						}
					],
					"stateMutability": "view",
					"type": "function"
				},
				{
					"inputs": [],
					"name": "startVote",
					"outputs": [],
					"stateMutability": "nonpayable",
					"type": "function"
				},
				{
					"inputs": [],
					"name": "state",
					"outputs": [
						{
							"internalType": "enum Ballot.State",
							"name": "",
							"type": "uint8"
						}
					],
					"stateMutability": "view",
					"type": "function"
				},
				{
					"inputs": [],
					"name": "totalVote",
					"outputs": [
						{
							"internalType": "uint256",
							"name": "",
							"type": "uint256"
						}
					],
					"stateMutability": "view",
					"type": "function"
				},
				{
					"inputs": [],
					"name": "totalVoter",
					"outputs": [
						{
							"internalType": "uint256",
							"name": "",
							"type": "uint256"
						}
					],
					"stateMutability": "view",
					"type": "function"
				},
				{
					"inputs": [
						{
							"internalType": "address",
							"name": "",
							"type": "address"
						}
					],
					"name": "voterRegister",
					"outputs": [
						{
							"internalType": "string",
							"name": "voterName",
							"type": "string"
						},
						{
							"internalType": "bool",
							"name": "voted",
							"type": "bool"
						}
					],
					"stateMutability": "view",
					"type": "function"
				}
			],
			"devdoc": {
				"kind": "dev",
				"methods": {},
				"version": 1
			},
			"evm": {
				"assembly": "    /* \"contracts/11_Voting.sol\":34:2435  contract Ballot {... */\n  mstore(0x40, 0x80)\n    /* \"contracts/11_Voting.sol\":253:254  0 */\n  0x00\n    /* \"contracts/11_Voting.sol\":226:254  uint private countResult = 0 */\n  dup1\n  sstore\n    /* \"contracts/11_Voting.sol\":286:287  0 */\n  0x00\n    /* \"contracts/11_Voting.sol\":260:287  uint public finalResult = 0 */\n  0x01\n  sstore\n    /* \"contracts/11_Voting.sol\":318:319  0 */\n  0x00\n    /* \"contracts/11_Voting.sol\":293:319  uint public totalVoter = 0 */\n  0x02\n  sstore\n    /* \"contracts/11_Voting.sol\":349:350  0 */\n  0x00\n    /* \"contracts/11_Voting.sol\":325:350  uint public totalVote = 0 */\n  0x03\n  sstore\n    /* \"contracts/11_Voting.sol\":957:1221  constructor(... */\n  callvalue\n  dup1\n  iszero\n  tag_1\n  jumpi\n  0x00\n  dup1\n  revert\ntag_1:\n  pop\n  mload(0x40)\n  sub(codesize, bytecodeSize)\n  dup1\n  bytecodeSize\n  dup4\n  codecopy\n  dup2\n  dup2\n  add\n  0x40\n  mstore\n  dup2\n  add\n  swap1\n  tag_2\n  swap2\n  swap1\n  tag_3\n  jump\t// in\ntag_2:\n    /* \"contracts/11_Voting.sol\":1091:1101  msg.sender */\n  caller\n    /* \"contracts/11_Voting.sol\":1067:1088  ballotOfficialAddress */\n  0x04\n  0x00\n    /* \"contracts/11_Voting.sol\":1067:1101  ballotOfficialAddress = msg.sender */\n  0x0100\n  exp\n  dup2\n  sload\n  dup2\n  0xffffffffffffffffffffffffffffffffffffffff\n  mul\n  not\n  and\n  swap1\n  dup4\n  0xffffffffffffffffffffffffffffffffffffffff\n  and\n  mul\n  or\n  swap1\n  sstore\n  pop\n    /* \"contracts/11_Voting.sol\":1132:1151  _ballotOfficialName */\n  dup2\n    /* \"contracts/11_Voting.sol\":1111:1129  ballotOfficialName */\n  0x05\n    /* \"contracts/11_Voting.sol\":1111:1151  ballotOfficialName = _ballotOfficialName */\n  swap1\n  dup1\n  mload\n  swap1\n  0x20\n  add\n  swap1\n  tag_6\n  swap3\n  swap2\n  swap1\n  tag_7\n  jump\t// in\ntag_6:\n  pop\n    /* \"contracts/11_Voting.sol\":1172:1181  _proposal */\n  dup1\n    /* \"contracts/11_Voting.sol\":1161:1169  proposal */\n  0x06\n    /* \"contracts/11_Voting.sol\":1161:1181  proposal = _proposal */\n  swap1\n  dup1\n  mload\n  swap1\n  0x20\n  add\n  swap1\n  tag_8\n  swap3\n  swap2\n  swap1\n  tag_7\n  jump\t// in\ntag_8:\n  pop\n    /* \"contracts/11_Voting.sol\":1200:1213  State.Created */\n  0x00\n    /* \"contracts/11_Voting.sol\":1192:1197  state */\n  0x09\n  0x00\n    /* \"contracts/11_Voting.sol\":1192:1213  state = State.Created */\n  0x0100\n  exp\n  dup2\n  sload\n  dup2\n  0xff\n  mul\n  not\n  and\n  swap1\n  dup4\n  0x02\n  dup2\n  gt\n  iszero\n  tag_9\n  jumpi\n  tag_10\n  tag_11\n  jump\t// in\ntag_10:\ntag_9:\n  mul\n  or\n  swap1\n  sstore\n  pop\n    /* \"contracts/11_Voting.sol\":957:1221  constructor(... */\n  pop\n  pop\n    /* \"contracts/11_Voting.sol\":34:2435  contract Ballot {... */\n  jump(tag_12)\ntag_7:\n  dup3\n  dup1\n  sload\n  tag_13\n  swap1\n  tag_14\n  jump\t// in\ntag_13:\n  swap1\n  0x00\n  mstore\n  keccak256(0x00, 0x20)\n  swap1\n  0x1f\n  add\n  0x20\n  swap1\n  div\n  dup2\n  add\n  swap3\n  dup3\n  tag_16\n  jumpi\n  0x00\n  dup6\n  sstore\n  jump(tag_15)\ntag_16:\n  dup3\n  0x1f\n  lt\n  tag_17\n  jumpi\n  dup1\n  mload\n  not(0xff)\n  and\n  dup4\n  dup1\n  add\n  or\n  dup6\n  sstore\n  jump(tag_15)\ntag_17:\n  dup3\n  dup1\n  add\n  0x01\n  add\n  dup6\n  sstore\n  dup3\n  iszero\n  tag_15\n  jumpi\n  swap2\n  dup3\n  add\ntag_18:\n  dup3\n  dup2\n  gt\n  iszero\n  tag_19\n  jumpi\n  dup3\n  mload\n  dup3\n  sstore\n  swap2\n  0x20\n  add\n  swap2\n  swap1\n  0x01\n  add\n  swap1\n  jump(tag_18)\ntag_19:\ntag_15:\n  pop\n  swap1\n  pop\n  tag_20\n  swap2\n  swap1\n  tag_21\n  jump\t// in\ntag_20:\n  pop\n  swap1\n  jump\t// out\ntag_21:\ntag_22:\n  dup1\n  dup3\n  gt\n  iszero\n  tag_23\n  jumpi\n  0x00\n  dup2\n  0x00\n  swap1\n  sstore\n  pop\n  0x01\n  add\n  jump(tag_22)\ntag_23:\n  pop\n  swap1\n  jump\t// out\n    /* \"#utility.yul\":7:428   */\ntag_25:\n    /* \"#utility.yul\":96:101   */\n  0x00\n    /* \"#utility.yul\":121:187   */\n  tag_27\n    /* \"#utility.yul\":137:186   */\n  tag_28\n    /* \"#utility.yul\":179:185   */\n  dup5\n    /* \"#utility.yul\":137:186   */\n  tag_29\n  jump\t// in\ntag_28:\n    /* \"#utility.yul\":121:187   */\n  tag_30\n  jump\t// in\ntag_27:\n    /* \"#utility.yul\":112:187   */\n  swap1\n  pop\n    /* \"#utility.yul\":210:216   */\n  dup3\n    /* \"#utility.yul\":203:208   */\n  dup2\n    /* \"#utility.yul\":196:217   */\n  mstore\n    /* \"#utility.yul\":248:252   */\n  0x20\n    /* \"#utility.yul\":241:246   */\n  dup2\n    /* \"#utility.yul\":237:253   */\n  add\n    /* \"#utility.yul\":286:289   */\n  dup5\n    /* \"#utility.yul\":277:283   */\n  dup5\n    /* \"#utility.yul\":272:275   */\n  dup5\n    /* \"#utility.yul\":268:284   */\n  add\n    /* \"#utility.yul\":265:290   */\n  gt\n    /* \"#utility.yul\":262:374   */\n  iszero\n  tag_31\n  jumpi\n    /* \"#utility.yul\":293:372   */\n  tag_32\n  tag_33\n  jump\t// in\ntag_32:\n    /* \"#utility.yul\":262:374   */\ntag_31:\n    /* \"#utility.yul\":383:422   */\n  tag_34\n    /* \"#utility.yul\":415:421   */\n  dup5\n    /* \"#utility.yul\":410:413   */\n  dup3\n    /* \"#utility.yul\":405:408   */\n  dup6\n    /* \"#utility.yul\":383:422   */\n  tag_35\n  jump\t// in\ntag_34:\n    /* \"#utility.yul\":102:428   */\n  pop\n    /* \"#utility.yul\":7:428   */\n  swap4\n  swap3\n  pop\n  pop\n  pop\n  jump\t// out\n    /* \"#utility.yul\":448:803   */\ntag_36:\n    /* \"#utility.yul\":515:520   */\n  0x00\n    /* \"#utility.yul\":564:567   */\n  dup3\n    /* \"#utility.yul\":557:561   */\n  0x1f\n    /* \"#utility.yul\":549:555   */\n  dup4\n    /* \"#utility.yul\":545:562   */\n  add\n    /* \"#utility.yul\":541:568   */\n  slt\n    /* \"#utility.yul\":531:653   */\n  tag_38\n  jumpi\n    /* \"#utility.yul\":572:651   */\n  tag_39\n  tag_40\n  jump\t// in\ntag_39:\n    /* \"#utility.yul\":531:653   */\ntag_38:\n    /* \"#utility.yul\":682:688   */\n  dup2\n    /* \"#utility.yul\":676:689   */\n  mload\n    /* \"#utility.yul\":707:797   */\n  tag_41\n    /* \"#utility.yul\":793:796   */\n  dup5\n    /* \"#utility.yul\":785:791   */\n  dup3\n    /* \"#utility.yul\":778:782   */\n  0x20\n    /* \"#utility.yul\":770:776   */\n  dup7\n    /* \"#utility.yul\":766:783   */\n  add\n    /* \"#utility.yul\":707:797   */\n  tag_25\n  jump\t// in\ntag_41:\n    /* \"#utility.yul\":698:797   */\n  swap2\n  pop\n    /* \"#utility.yul\":521:803   */\n  pop\n    /* \"#utility.yul\":448:803   */\n  swap3\n  swap2\n  pop\n  pop\n  jump\t// out\n    /* \"#utility.yul\":809:1662   */\ntag_3:\n    /* \"#utility.yul\":908:914   */\n  0x00\n    /* \"#utility.yul\":916:922   */\n  dup1\n    /* \"#utility.yul\":965:967   */\n  0x40\n    /* \"#utility.yul\":953:962   */\n  dup4\n    /* \"#utility.yul\":944:951   */\n  dup6\n    /* \"#utility.yul\":940:963   */\n  sub\n    /* \"#utility.yul\":936:968   */\n  slt\n    /* \"#utility.yul\":933:1052   */\n  iszero\n  tag_43\n  jumpi\n    /* \"#utility.yul\":971:1050   */\n  tag_44\n  tag_45\n  jump\t// in\ntag_44:\n    /* \"#utility.yul\":933:1052   */\ntag_43:\n    /* \"#utility.yul\":1112:1113   */\n  0x00\n    /* \"#utility.yul\":1101:1110   */\n  dup4\n    /* \"#utility.yul\":1097:1114   */\n  add\n    /* \"#utility.yul\":1091:1115   */\n  mload\n    /* \"#utility.yul\":1142:1160   */\n  0xffffffffffffffff\n    /* \"#utility.yul\":1134:1140   */\n  dup2\n    /* \"#utility.yul\":1131:1161   */\n  gt\n    /* \"#utility.yul\":1128:1245   */\n  iszero\n  tag_46\n  jumpi\n    /* \"#utility.yul\":1164:1243   */\n  tag_47\n  tag_48\n  jump\t// in\ntag_47:\n    /* \"#utility.yul\":1128:1245   */\ntag_46:\n    /* \"#utility.yul\":1269:1343   */\n  tag_49\n    /* \"#utility.yul\":1335:1342   */\n  dup6\n    /* \"#utility.yul\":1326:1332   */\n  dup3\n    /* \"#utility.yul\":1315:1324   */\n  dup7\n    /* \"#utility.yul\":1311:1333   */\n  add\n    /* \"#utility.yul\":1269:1343   */\n  tag_36\n  jump\t// in\ntag_49:\n    /* \"#utility.yul\":1259:1343   */\n  swap3\n  pop\n    /* \"#utility.yul\":1062:1353   */\n  pop\n    /* \"#utility.yul\":1413:1415   */\n  0x20\n    /* \"#utility.yul\":1402:1411   */\n  dup4\n    /* \"#utility.yul\":1398:1416   */\n  add\n    /* \"#utility.yul\":1392:1417   */\n  mload\n    /* \"#utility.yul\":1444:1462   */\n  0xffffffffffffffff\n    /* \"#utility.yul\":1436:1442   */\n  dup2\n    /* \"#utility.yul\":1433:1463   */\n  gt\n    /* \"#utility.yul\":1430:1547   */\n  iszero\n  tag_50\n  jumpi\n    /* \"#utility.yul\":1466:1545   */\n  tag_51\n  tag_48\n  jump\t// in\ntag_51:\n    /* \"#utility.yul\":1430:1547   */\ntag_50:\n    /* \"#utility.yul\":1571:1645   */\n  tag_52\n    /* \"#utility.yul\":1637:1644   */\n  dup6\n    /* \"#utility.yul\":1628:1634   */\n  dup3\n    /* \"#utility.yul\":1617:1626   */\n  dup7\n    /* \"#utility.yul\":1613:1635   */\n  add\n    /* \"#utility.yul\":1571:1645   */\n  tag_36\n  jump\t// in\ntag_52:\n    /* \"#utility.yul\":1561:1645   */\n  swap2\n  pop\n    /* \"#utility.yul\":1363:1655   */\n  pop\n    /* \"#utility.yul\":809:1662   */\n  swap3\n  pop\n  swap3\n  swap1\n  pop\n  jump\t// out\n    /* \"#utility.yul\":1668:1797   */\ntag_30:\n    /* \"#utility.yul\":1702:1708   */\n  0x00\n    /* \"#utility.yul\":1729:1749   */\n  tag_54\n  tag_55\n  jump\t// in\ntag_54:\n    /* \"#utility.yul\":1719:1749   */\n  swap1\n  pop\n    /* \"#utility.yul\":1758:1791   */\n  tag_56\n    /* \"#utility.yul\":1786:1790   */\n  dup3\n    /* \"#utility.yul\":1778:1784   */\n  dup3\n    /* \"#utility.yul\":1758:1791   */\n  tag_57\n  jump\t// in\ntag_56:\n    /* \"#utility.yul\":1668:1797   */\n  swap2\n  swap1\n  pop\n  jump\t// out\n    /* \"#utility.yul\":1803:1878   */\ntag_55:\n    /* \"#utility.yul\":1836:1842   */\n  0x00\n    /* \"#utility.yul\":1869:1871   */\n  0x40\n    /* \"#utility.yul\":1863:1872   */\n  mload\n    /* \"#utility.yul\":1853:1872   */\n  swap1\n  pop\n    /* \"#utility.yul\":1803:1878   */\n  swap1\n  jump\t// out\n    /* \"#utility.yul\":1884:2192   */\ntag_29:\n    /* \"#utility.yul\":1946:1950   */\n  0x00\n    /* \"#utility.yul\":2036:2054   */\n  0xffffffffffffffff\n    /* \"#utility.yul\":2028:2034   */\n  dup3\n    /* \"#utility.yul\":2025:2055   */\n  gt\n    /* \"#utility.yul\":2022:2078   */\n  iszero\n  tag_60\n  jumpi\n    /* \"#utility.yul\":2058:2076   */\n  tag_61\n  tag_62\n  jump\t// in\ntag_61:\n    /* \"#utility.yul\":2022:2078   */\ntag_60:\n    /* \"#utility.yul\":2096:2125   */\n  tag_63\n    /* \"#utility.yul\":2118:2124   */\n  dup3\n    /* \"#utility.yul\":2096:2125   */\n  tag_64\n  jump\t// in\ntag_63:\n    /* \"#utility.yul\":2088:2125   */\n  swap1\n  pop\n    /* \"#utility.yul\":2180:2184   */\n  0x20\n    /* \"#utility.yul\":2174:2178   */\n  dup2\n    /* \"#utility.yul\":2170:2185   */\n  add\n    /* \"#utility.yul\":2162:2185   */\n  swap1\n  pop\n    /* \"#utility.yul\":1884:2192   */\n  swap2\n  swap1\n  pop\n  jump\t// out\n    /* \"#utility.yul\":2198:2505   */\ntag_35:\n    /* \"#utility.yul\":2266:2267   */\n  0x00\n    /* \"#utility.yul\":2276:2389   */\ntag_66:\n    /* \"#utility.yul\":2290:2296   */\n  dup4\n    /* \"#utility.yul\":2287:2288   */\n  dup2\n    /* \"#utility.yul\":2284:2297   */\n  lt\n    /* \"#utility.yul\":2276:2389   */\n  iszero\n  tag_68\n  jumpi\n    /* \"#utility.yul\":2375:2376   */\n  dup1\n    /* \"#utility.yul\":2370:2373   */\n  dup3\n    /* \"#utility.yul\":2366:2377   */\n  add\n    /* \"#utility.yul\":2360:2378   */\n  mload\n    /* \"#utility.yul\":2356:2357   */\n  dup2\n    /* \"#utility.yul\":2351:2354   */\n  dup5\n    /* \"#utility.yul\":2347:2358   */\n  add\n    /* \"#utility.yul\":2340:2379   */\n  mstore\n    /* \"#utility.yul\":2312:2314   */\n  0x20\n    /* \"#utility.yul\":2309:2310   */\n  dup2\n    /* \"#utility.yul\":2305:2315   */\n  add\n    /* \"#utility.yul\":2300:2315   */\n  swap1\n  pop\n    /* \"#utility.yul\":2276:2389   */\n  jump(tag_66)\ntag_68:\n    /* \"#utility.yul\":2407:2413   */\n  dup4\n    /* \"#utility.yul\":2404:2405   */\n  dup2\n    /* \"#utility.yul\":2401:2414   */\n  gt\n    /* \"#utility.yul\":2398:2499   */\n  iszero\n  tag_69\n  jumpi\n    /* \"#utility.yul\":2487:2488   */\n  0x00\n    /* \"#utility.yul\":2478:2484   */\n  dup5\n    /* \"#utility.yul\":2473:2476   */\n  dup5\n    /* \"#utility.yul\":2469:2485   */\n  add\n    /* \"#utility.yul\":2462:2489   */\n  mstore\n    /* \"#utility.yul\":2398:2499   */\ntag_69:\n    /* \"#utility.yul\":2247:2505   */\n  pop\n    /* \"#utility.yul\":2198:2505   */\n  pop\n  pop\n  pop\n  jump\t// out\n    /* \"#utility.yul\":2511:2831   */\ntag_14:\n    /* \"#utility.yul\":2555:2561   */\n  0x00\n    /* \"#utility.yul\":2592:2593   */\n  0x02\n    /* \"#utility.yul\":2586:2590   */\n  dup3\n    /* \"#utility.yul\":2582:2594   */\n  div\n    /* \"#utility.yul\":2572:2594   */\n  swap1\n  pop\n    /* \"#utility.yul\":2639:2640   */\n  0x01\n    /* \"#utility.yul\":2633:2637   */\n  dup3\n    /* \"#utility.yul\":2629:2641   */\n  and\n    /* \"#utility.yul\":2660:2678   */\n  dup1\n    /* \"#utility.yul\":2650:2731   */\n  tag_71\n  jumpi\n    /* \"#utility.yul\":2716:2720   */\n  0x7f\n    /* \"#utility.yul\":2708:2714   */\n  dup3\n    /* \"#utility.yul\":2704:2721   */\n  and\n    /* \"#utility.yul\":2694:2721   */\n  swap2\n  pop\n    /* \"#utility.yul\":2650:2731   */\ntag_71:\n    /* \"#utility.yul\":2778:2780   */\n  0x20\n    /* \"#utility.yul\":2770:2776   */\n  dup3\n    /* \"#utility.yul\":2767:2781   */\n  lt\n    /* \"#utility.yul\":2747:2765   */\n  dup2\n    /* \"#utility.yul\":2744:2782   */\n  eq\n    /* \"#utility.yul\":2741:2825   */\n  iszero\n  tag_72\n  jumpi\n    /* \"#utility.yul\":2797:2815   */\n  tag_73\n  tag_74\n  jump\t// in\ntag_73:\n    /* \"#utility.yul\":2741:2825   */\ntag_72:\n    /* \"#utility.yul\":2562:2831   */\n  pop\n    /* \"#utility.yul\":2511:2831   */\n  swap2\n  swap1\n  pop\n  jump\t// out\n    /* \"#utility.yul\":2837:3118   */\ntag_57:\n    /* \"#utility.yul\":2920:2947   */\n  tag_76\n    /* \"#utility.yul\":2942:2946   */\n  dup3\n    /* \"#utility.yul\":2920:2947   */\n  tag_64\n  jump\t// in\ntag_76:\n    /* \"#utility.yul\":2912:2918   */\n  dup2\n    /* \"#utility.yul\":2908:2948   */\n  add\n    /* \"#utility.yul\":3050:3056   */\n  dup2\n    /* \"#utility.yul\":3038:3048   */\n  dup2\n    /* \"#utility.yul\":3035:3057   */\n  lt\n    /* \"#utility.yul\":3014:3032   */\n  0xffffffffffffffff\n    /* \"#utility.yul\":3002:3012   */\n  dup3\n    /* \"#utility.yul\":2999:3033   */\n  gt\n    /* \"#utility.yul\":2996:3058   */\n  or\n    /* \"#utility.yul\":2993:3081   */\n  iszero\n  tag_77\n  jumpi\n    /* \"#utility.yul\":3061:3079   */\n  tag_78\n  tag_62\n  jump\t// in\ntag_78:\n    /* \"#utility.yul\":2993:3081   */\ntag_77:\n    /* \"#utility.yul\":3101:3111   */\n  dup1\n    /* \"#utility.yul\":3097:3099   */\n  0x40\n    /* \"#utility.yul\":3090:3112   */\n  mstore\n    /* \"#utility.yul\":2880:3118   */\n  pop\n    /* \"#utility.yul\":2837:3118   */\n  pop\n  pop\n  jump\t// out\n    /* \"#utility.yul\":3124:3304   */\ntag_11:\n    /* \"#utility.yul\":3172:3249   */\n  0x4e487b7100000000000000000000000000000000000000000000000000000000\n    /* \"#utility.yul\":3169:3170   */\n  0x00\n    /* \"#utility.yul\":3162:3250   */\n  mstore\n    /* \"#utility.yul\":3269:3273   */\n  0x21\n    /* \"#utility.yul\":3266:3267   */\n  0x04\n    /* \"#utility.yul\":3259:3274   */\n  mstore\n    /* \"#utility.yul\":3293:3297   */\n  0x24\n    /* \"#utility.yul\":3290:3291   */\n  0x00\n    /* \"#utility.yul\":3283:3298   */\n  revert\n    /* \"#utility.yul\":3310:3490   */\ntag_74:\n    /* \"#utility.yul\":3358:3435   */\n  0x4e487b7100000000000000000000000000000000000000000000000000000000\n    /* \"#utility.yul\":3355:3356   */\n  0x00\n    /* \"#utility.yul\":3348:3436   */\n  mstore\n    /* \"#utility.yul\":3455:3459   */\n  0x22\n    /* \"#utility.yul\":3452:3453   */\n  0x04\n    /* \"#utility.yul\":3445:3460   */\n  mstore\n    /* \"#utility.yul\":3479:3483   */\n  0x24\n    /* \"#utility.yul\":3476:3477   */\n  0x00\n    /* \"#utility.yul\":3469:3484   */\n  revert\n    /* \"#utility.yul\":3496:3676   */\ntag_62:\n    /* \"#utility.yul\":3544:3621   */\n  0x4e487b7100000000000000000000000000000000000000000000000000000000\n    /* \"#utility.yul\":3541:3542   */\n  0x00\n    /* \"#utility.yul\":3534:3622   */\n  mstore\n    /* \"#utility.yul\":3641:3645   */\n  0x41\n    /* \"#utility.yul\":3638:3639   */\n  0x04\n    /* \"#utility.yul\":3631:3646   */\n  mstore\n    /* \"#utility.yul\":3665:3669   */\n  0x24\n    /* \"#utility.yul\":3662:3663   */\n  0x00\n    /* \"#utility.yul\":3655:3670   */\n  revert\n    /* \"#utility.yul\":3682:3799   */\ntag_40:\n    /* \"#utility.yul\":3791:3792   */\n  0x00\n    /* \"#utility.yul\":3788:3789   */\n  dup1\n    /* \"#utility.yul\":3781:3793   */\n  revert\n    /* \"#utility.yul\":3805:3922   */\ntag_33:\n    /* \"#utility.yul\":3914:3915   */\n  0x00\n    /* \"#utility.yul\":3911:3912   */\n  dup1\n    /* \"#utility.yul\":3904:3916   */\n  revert\n    /* \"#utility.yul\":3928:4045   */\ntag_48:\n    /* \"#utility.yul\":4037:4038   */\n  0x00\n    /* \"#utility.yul\":4034:4035   */\n  dup1\n    /* \"#utility.yul\":4027:4039   */\n  revert\n    /* \"#utility.yul\":4051:4168   */\ntag_45:\n    /* \"#utility.yul\":4160:4161   */\n  0x00\n    /* \"#utility.yul\":4157:4158   */\n  dup1\n    /* \"#utility.yul\":4150:4162   */\n  revert\n    /* \"#utility.yul\":4174:4276   */\ntag_64:\n    /* \"#utility.yul\":4215:4221   */\n  0x00\n    /* \"#utility.yul\":4266:4268   */\n  0x1f\n    /* \"#utility.yul\":4262:4269   */\n  not\n    /* \"#utility.yul\":4257:4259   */\n  0x1f\n    /* \"#utility.yul\":4250:4255   */\n  dup4\n    /* \"#utility.yul\":4246:4260   */\n  add\n    /* \"#utility.yul\":4242:4270   */\n  and\n    /* \"#utility.yul\":4232:4270   */\n  swap1\n  pop\n    /* \"#utility.yul\":4174:4276   */\n  swap2\n  swap1\n  pop\n  jump\t// out\n    /* \"contracts/11_Voting.sol\":34:2435  contract Ballot {... */\ntag_12:\n  dataSize(sub_0)\n  dup1\n  dataOffset(sub_0)\n  0x00\n  codecopy\n  0x00\n  return\nstop\n\nsub_0: assembly {\n        /* \"contracts/11_Voting.sol\":34:2435  contract Ballot {... */\n      mstore(0x40, 0x80)\n      callvalue\n      dup1\n      iszero\n      tag_1\n      jumpi\n      0x00\n      dup1\n      revert\n    tag_1:\n      pop\n      jumpi(tag_2, lt(calldatasize, 0x04))\n      shr(0xe0, calldataload(0x00))\n      dup1\n      0xb9223946\n      gt\n      tag_15\n      jumpi\n      dup1\n      0xb9223946\n      eq\n      tag_9\n      jumpi\n      dup1\n      0xc19d93fb\n      eq\n      tag_10\n      jumpi\n      dup1\n      0xd9e95a98\n      eq\n      tag_11\n      jumpi\n      dup1\n      0xde975d18\n      eq\n      tag_12\n      jumpi\n      dup1\n      0xf1cea4c7\n      eq\n      tag_13\n      jumpi\n      dup1\n      0xf3a8286f\n      eq\n      tag_14\n      jumpi\n      jump(tag_2)\n    tag_15:\n      dup1\n      0x4c0a6af0\n      eq\n      tag_3\n      jumpi\n      dup1\n      0x6332abc9\n      eq\n      tag_4\n      jumpi\n      dup1\n      0x753ec103\n      eq\n      tag_5\n      jumpi\n      dup1\n      0x87caea78\n      eq\n      tag_6\n      jumpi\n      dup1\n      0x90949747\n      eq\n      tag_7\n      jumpi\n      dup1\n      0xaf154087\n      eq\n      tag_8\n      jumpi\n    tag_2:\n      0x00\n      dup1\n      revert\n        /* \"contracts/11_Voting.sol\":1513:1642  function startVote()   ... */\n    tag_3:\n      tag_16\n      tag_17\n      jump\t// in\n    tag_16:\n      stop\n        /* \"contracts/11_Voting.sol\":293:319  uint public totalVoter = 0 */\n    tag_4:\n      tag_18\n      tag_19\n      jump\t// in\n    tag_18:\n      mload(0x40)\n      tag_20\n      swap2\n      swap1\n      tag_21\n      jump\t// in\n    tag_20:\n      mload(0x40)\n      dup1\n      swap2\n      sub\n      swap1\n      return\n        /* \"contracts/11_Voting.sol\":437:459  string public proposal */\n    tag_5:\n      tag_22\n      tag_23\n      jump\t// in\n    tag_22:\n      mload(0x40)\n      tag_24\n      swap2\n      swap1\n      tag_25\n      jump\t// in\n    tag_24:\n      mload(0x40)\n      dup1\n      swap2\n      sub\n      swap1\n      return\n        /* \"contracts/11_Voting.sol\":1648:2269  function doVote(bool _choice) ... */\n    tag_6:\n      tag_26\n      0x04\n      dup1\n      calldatasize\n      sub\n      dup2\n      add\n      swap1\n      tag_27\n      swap2\n      swap1\n      tag_28\n      jump\t// in\n    tag_27:\n      tag_29\n      jump\t// in\n    tag_26:\n      mload(0x40)\n      tag_30\n      swap2\n      swap1\n      tag_31\n      jump\t// in\n    tag_30:\n      mload(0x40)\n      dup1\n      swap2\n      sub\n      swap1\n      return\n        /* \"contracts/11_Voting.sol\":357:393  address public ballotOfficialAddress */\n    tag_7:\n      tag_32\n      tag_33\n      jump\t// in\n    tag_32:\n      mload(0x40)\n      tag_34\n      swap2\n      swap1\n      tag_35\n      jump\t// in\n    tag_34:\n      mload(0x40)\n      dup1\n      swap2\n      sub\n      swap1\n      return\n        /* \"contracts/11_Voting.sol\":507:553  mapping(address => voter) public voterRegister */\n    tag_8:\n      tag_36\n      0x04\n      dup1\n      calldatasize\n      sub\n      dup2\n      add\n      swap1\n      tag_37\n      swap2\n      swap1\n      tag_38\n      jump\t// in\n    tag_37:\n      tag_39\n      jump\t// in\n    tag_36:\n      mload(0x40)\n      tag_40\n      swap3\n      swap2\n      swap1\n      tag_41\n      jump\t// in\n    tag_40:\n      mload(0x40)\n      dup1\n      swap2\n      sub\n      swap1\n      return\n        /* \"contracts/11_Voting.sol\":2275:2433  function endVote() ... */\n    tag_9:\n      tag_42\n      tag_43\n      jump\t// in\n    tag_42:\n      stop\n        /* \"contracts/11_Voting.sol\":602:620  State public state */\n    tag_10:\n      tag_44\n      tag_45\n      jump\t// in\n    tag_44:\n      mload(0x40)\n      tag_46\n      swap2\n      swap1\n      tag_47\n      jump\t// in\n    tag_46:\n      mload(0x40)\n      dup1\n      swap2\n      sub\n      swap1\n      return\n        /* \"contracts/11_Voting.sol\":1227:1507  function addVoter(address _voterAddress, string memory _voterName) ... */\n    tag_11:\n      tag_48\n      0x04\n      dup1\n      calldatasize\n      sub\n      dup2\n      add\n      swap1\n      tag_49\n      swap2\n      swap1\n      tag_50\n      jump\t// in\n    tag_49:\n      tag_51\n      jump\t// in\n    tag_48:\n      stop\n        /* \"contracts/11_Voting.sol\":399:431  string public ballotOfficialName */\n    tag_12:\n      tag_52\n      tag_53\n      jump\t// in\n    tag_52:\n      mload(0x40)\n      tag_54\n      swap2\n      swap1\n      tag_25\n      jump\t// in\n    tag_54:\n      mload(0x40)\n      dup1\n      swap2\n      sub\n      swap1\n      return\n        /* \"contracts/11_Voting.sol\":325:350  uint public totalVote = 0 */\n    tag_13:\n      tag_55\n      tag_56\n      jump\t// in\n    tag_55:\n      mload(0x40)\n      tag_57\n      swap2\n      swap1\n      tag_21\n      jump\t// in\n    tag_57:\n      mload(0x40)\n      dup1\n      swap2\n      sub\n      swap1\n      return\n        /* \"contracts/11_Voting.sol\":260:287  uint public finalResult = 0 */\n    tag_14:\n      tag_58\n      tag_59\n      jump\t// in\n    tag_58:\n      mload(0x40)\n      tag_60\n      swap2\n      swap1\n      tag_21\n      jump\t// in\n    tag_60:\n      mload(0x40)\n      dup1\n      swap2\n      sub\n      swap1\n      return\n        /* \"contracts/11_Voting.sol\":1513:1642  function startVote()   ... */\n    tag_17:\n        /* \"contracts/11_Voting.sol\":1568:1581  State.Created */\n      0x00\n        /* \"contracts/11_Voting.sol\":894:900  _state */\n      dup1\n        /* \"contracts/11_Voting.sol\":885:900  state == _state */\n      0x02\n      dup2\n      gt\n      iszero\n      tag_62\n      jumpi\n      tag_63\n      tag_64\n      jump\t// in\n    tag_63:\n    tag_62:\n        /* \"contracts/11_Voting.sol\":885:890  state */\n      0x09\n      0x00\n      swap1\n      sload\n      swap1\n      0x0100\n      exp\n      swap1\n      div\n      0xff\n      and\n        /* \"contracts/11_Voting.sol\":885:900  state == _state */\n      0x02\n      dup2\n      gt\n      iszero\n      tag_65\n      jumpi\n      tag_66\n      tag_64\n      jump\t// in\n    tag_66:\n    tag_65:\n      eq\n        /* \"contracts/11_Voting.sol\":877:901  require(state == _state) */\n      tag_67\n      jumpi\n      0x00\n      dup1\n      revert\n    tag_67:\n        /* \"contracts/11_Voting.sol\":790:811  ballotOfficialAddress */\n      0x04\n      0x00\n      swap1\n      sload\n      swap1\n      0x0100\n      exp\n      swap1\n      div\n      0xffffffffffffffffffffffffffffffffffffffff\n      and\n        /* \"contracts/11_Voting.sol\":776:811  msg.sender == ballotOfficialAddress */\n      0xffffffffffffffffffffffffffffffffffffffff\n      and\n        /* \"contracts/11_Voting.sol\":776:786  msg.sender */\n      caller\n        /* \"contracts/11_Voting.sol\":776:811  msg.sender == ballotOfficialAddress */\n      0xffffffffffffffffffffffffffffffffffffffff\n      and\n      eq\n        /* \"contracts/11_Voting.sol\":768:812  require(msg.sender == ballotOfficialAddress) */\n      tag_69\n      jumpi\n      0x00\n      dup1\n      revert\n    tag_69:\n        /* \"contracts/11_Voting.sol\":1623:1635  State.Voting */\n      0x01\n        /* \"contracts/11_Voting.sol\":1615:1620  state */\n      0x09\n      0x00\n        /* \"contracts/11_Voting.sol\":1615:1635  state = State.Voting */\n      0x0100\n      exp\n      dup2\n      sload\n      dup2\n      0xff\n      mul\n      not\n      and\n      swap1\n      dup4\n      0x02\n      dup2\n      gt\n      iszero\n      tag_71\n      jumpi\n      tag_72\n      tag_64\n      jump\t// in\n    tag_72:\n    tag_71:\n      mul\n      or\n      swap1\n      sstore\n      pop\n        /* \"contracts/11_Voting.sol\":1513:1642  function startVote()   ... */\n      pop\n      jump\t// out\n        /* \"contracts/11_Voting.sol\":293:319  uint public totalVoter = 0 */\n    tag_19:\n      sload(0x02)\n      dup2\n      jump\t// out\n        /* \"contracts/11_Voting.sol\":437:459  string public proposal */\n    tag_23:\n      0x06\n      dup1\n      sload\n      tag_73\n      swap1\n      tag_74\n      jump\t// in\n    tag_73:\n      dup1\n      0x1f\n      add\n      0x20\n      dup1\n      swap2\n      div\n      mul\n      0x20\n      add\n      mload(0x40)\n      swap1\n      dup2\n      add\n      0x40\n      mstore\n      dup1\n      swap3\n      swap2\n      swap1\n      dup2\n      dup2\n      mstore\n      0x20\n      add\n      dup3\n      dup1\n      sload\n      tag_75\n      swap1\n      tag_74\n      jump\t// in\n    tag_75:\n      dup1\n      iszero\n      tag_76\n      jumpi\n      dup1\n      0x1f\n      lt\n      tag_77\n      jumpi\n      0x0100\n      dup1\n      dup4\n      sload\n      div\n      mul\n      dup4\n      mstore\n      swap2\n      0x20\n      add\n      swap2\n      jump(tag_76)\n    tag_77:\n      dup3\n      add\n      swap2\n      swap1\n      0x00\n      mstore\n      keccak256(0x00, 0x20)\n      swap1\n    tag_78:\n      dup2\n      sload\n      dup2\n      mstore\n      swap1\n      0x01\n      add\n      swap1\n      0x20\n      add\n      dup1\n      dup4\n      gt\n      tag_78\n      jumpi\n      dup3\n      swap1\n      sub\n      0x1f\n      and\n      dup3\n      add\n      swap2\n    tag_76:\n      pop\n      pop\n      pop\n      pop\n      pop\n      dup2\n      jump\t// out\n        /* \"contracts/11_Voting.sol\":1648:2269  function doVote(bool _choice) ... */\n    tag_29:\n        /* \"contracts/11_Voting.sol\":1763:1773  bool voted */\n      0x00\n        /* \"contracts/11_Voting.sol\":1710:1723  State.Created */\n      dup1\n        /* \"contracts/11_Voting.sol\":894:900  _state */\n      dup1\n        /* \"contracts/11_Voting.sol\":885:900  state == _state */\n      0x02\n      dup2\n      gt\n      iszero\n      tag_80\n      jumpi\n      tag_81\n      tag_64\n      jump\t// in\n    tag_81:\n    tag_80:\n        /* \"contracts/11_Voting.sol\":885:890  state */\n      0x09\n      0x00\n      swap1\n      sload\n      swap1\n      0x0100\n      exp\n      swap1\n      div\n      0xff\n      and\n        /* \"contracts/11_Voting.sol\":885:900  state == _state */\n      0x02\n      dup2\n      gt\n      iszero\n      tag_82\n      jumpi\n      tag_83\n      tag_64\n      jump\t// in\n    tag_83:\n    tag_82:\n      eq\n        /* \"contracts/11_Voting.sol\":877:901  require(state == _state) */\n      tag_84\n      jumpi\n      0x00\n      dup1\n      revert\n    tag_84:\n        /* \"contracts/11_Voting.sol\":790:811  ballotOfficialAddress */\n      0x04\n      0x00\n      swap1\n      sload\n      swap1\n      0x0100\n      exp\n      swap1\n      div\n      0xffffffffffffffffffffffffffffffffffffffff\n      and\n        /* \"contracts/11_Voting.sol\":776:811  msg.sender == ballotOfficialAddress */\n      0xffffffffffffffffffffffffffffffffffffffff\n      and\n        /* \"contracts/11_Voting.sol\":776:786  msg.sender */\n      caller\n        /* \"contracts/11_Voting.sol\":776:811  msg.sender == ballotOfficialAddress */\n      0xffffffffffffffffffffffffffffffffffffffff\n      and\n      eq\n        /* \"contracts/11_Voting.sol\":768:812  require(msg.sender == ballotOfficialAddress) */\n      tag_86\n      jumpi\n      0x00\n      dup1\n      revert\n    tag_86:\n        /* \"contracts/11_Voting.sol\":1789:1799  bool found */\n      0x00\n        /* \"contracts/11_Voting.sol\":1883:1884  0 */\n      dup1\n        /* \"contracts/11_Voting.sol\":1836:1849  voterRegister */\n      0x08\n        /* \"contracts/11_Voting.sol\":1836:1861  voterRegister[msg.sender] */\n      0x00\n        /* \"contracts/11_Voting.sol\":1850:1860  msg.sender */\n      caller\n        /* \"contracts/11_Voting.sol\":1836:1861  voterRegister[msg.sender] */\n      0xffffffffffffffffffffffffffffffffffffffff\n      and\n      0xffffffffffffffffffffffffffffffffffffffff\n      and\n      dup2\n      mstore\n      0x20\n      add\n      swap1\n      dup2\n      mstore\n      0x20\n      add\n      0x00\n      keccak256\n        /* \"contracts/11_Voting.sol\":1836:1871  voterRegister[msg.sender].voterName */\n      0x00\n      add\n        /* \"contracts/11_Voting.sol\":1830:1879  bytes(voterRegister[msg.sender].voterName).length */\n      dup1\n      sload\n      tag_88\n      swap1\n      tag_74\n      jump\t// in\n    tag_88:\n      swap1\n      pop\n        /* \"contracts/11_Voting.sol\":1830:1884  bytes(voterRegister[msg.sender].voterName).length != 0 */\n      eq\n      iszero\n        /* \"contracts/11_Voting.sol\":1830:1920  bytes(voterRegister[msg.sender].voterName).length != 0 && !voterRegister[msg.sender].voted */\n      dup1\n      iszero\n      tag_89\n      jumpi\n      pop\n        /* \"contracts/11_Voting.sol\":1889:1902  voterRegister */\n      0x08\n        /* \"contracts/11_Voting.sol\":1889:1914  voterRegister[msg.sender] */\n      0x00\n        /* \"contracts/11_Voting.sol\":1903:1913  msg.sender */\n      caller\n        /* \"contracts/11_Voting.sol\":1889:1914  voterRegister[msg.sender] */\n      0xffffffffffffffffffffffffffffffffffffffff\n      and\n      0xffffffffffffffffffffffffffffffffffffffff\n      and\n      dup2\n      mstore\n      0x20\n      add\n      swap1\n      dup2\n      mstore\n      0x20\n      add\n      0x00\n      keccak256\n        /* \"contracts/11_Voting.sol\":1889:1920  voterRegister[msg.sender].voted */\n      0x01\n      add\n      0x00\n      swap1\n      sload\n      swap1\n      0x0100\n      exp\n      swap1\n      div\n      0xff\n      and\n        /* \"contracts/11_Voting.sol\":1888:1920  !voterRegister[msg.sender].voted */\n      iszero\n        /* \"contracts/11_Voting.sol\":1830:1920  bytes(voterRegister[msg.sender].voterName).length != 0 && !voterRegister[msg.sender].voted */\n    tag_89:\n        /* \"contracts/11_Voting.sol\":1826:2241  if (bytes(voterRegister[msg.sender].voterName).length != 0 && !voterRegister[msg.sender].voted) {... */\n      iszero\n      tag_90\n      jumpi\n        /* \"contracts/11_Voting.sol\":1970:1974  true */\n      0x01\n        /* \"contracts/11_Voting.sol\":1936:1949  voterRegister */\n      0x08\n        /* \"contracts/11_Voting.sol\":1936:1961  voterRegister[msg.sender] */\n      0x00\n        /* \"contracts/11_Voting.sol\":1950:1960  msg.sender */\n      caller\n        /* \"contracts/11_Voting.sol\":1936:1961  voterRegister[msg.sender] */\n      0xffffffffffffffffffffffffffffffffffffffff\n      and\n      0xffffffffffffffffffffffffffffffffffffffff\n      and\n      dup2\n      mstore\n      0x20\n      add\n      swap1\n      dup2\n      mstore\n      0x20\n      add\n      0x00\n      keccak256\n        /* \"contracts/11_Voting.sol\":1936:1967  voterRegister[msg.sender].voted */\n      0x01\n      add\n      0x00\n        /* \"contracts/11_Voting.sol\":1936:1974  voterRegister[msg.sender].voted = true */\n      0x0100\n      exp\n      dup2\n      sload\n      dup2\n      0xff\n      mul\n      not\n      and\n      swap1\n      dup4\n      iszero\n      iszero\n      mul\n      or\n      swap1\n      sstore\n      pop\n        /* \"contracts/11_Voting.sol\":1988:2001  vote memory v */\n      tag_91\n      tag_92\n      jump\t// in\n    tag_91:\n        /* \"contracts/11_Voting.sol\":2032:2042  msg.sender */\n      caller\n        /* \"contracts/11_Voting.sol\":2015:2016  v */\n      dup2\n        /* \"contracts/11_Voting.sol\":2015:2029  v.voterAddress */\n      0x00\n      add\n        /* \"contracts/11_Voting.sol\":2015:2042  v.voterAddress = msg.sender */\n      swap1\n      0xffffffffffffffffffffffffffffffffffffffff\n      and\n      swap1\n      dup2\n      0xffffffffffffffffffffffffffffffffffffffff\n      and\n      dup2\n      mstore\n      pop\n      pop\n        /* \"contracts/11_Voting.sol\":2067:2074  _choice */\n      dup5\n        /* \"contracts/11_Voting.sol\":2056:2057  v */\n      dup2\n        /* \"contracts/11_Voting.sol\":2056:2064  v.choice */\n      0x20\n      add\n        /* \"contracts/11_Voting.sol\":2056:2074  v.choice = _choice */\n      swap1\n      iszero\n      iszero\n      swap1\n      dup2\n      iszero\n      iszero\n      dup2\n      mstore\n      pop\n      pop\n        /* \"contracts/11_Voting.sol\":2091:2098  _choice */\n      dup5\n        /* \"contracts/11_Voting.sol\":2088:2146  if(_choice) {... */\n      iszero\n      tag_93\n      jumpi\n        /* \"contracts/11_Voting.sol\":2118:2129  countResult */\n      0x00\n      dup1\n        /* \"contracts/11_Voting.sol\":2118:2131  countResult++ */\n      dup2\n      sload\n      dup1\n      swap3\n      swap2\n      swap1\n      tag_94\n      swap1\n      tag_95\n      jump\t// in\n    tag_94:\n      swap2\n      swap1\n      pop\n      sstore\n      pop\n        /* \"contracts/11_Voting.sol\":2088:2146  if(_choice) {... */\n    tag_93:\n        /* \"contracts/11_Voting.sol\":2178:2179  v */\n      dup1\n        /* \"contracts/11_Voting.sol\":2159:2164  votes */\n      0x07\n        /* \"contracts/11_Voting.sol\":2159:2175  votes[totalVote] */\n      0x00\n        /* \"contracts/11_Voting.sol\":2165:2174  totalVote */\n      sload(0x03)\n        /* \"contracts/11_Voting.sol\":2159:2175  votes[totalVote] */\n      dup2\n      mstore\n      0x20\n      add\n      swap1\n      dup2\n      mstore\n      0x20\n      add\n      0x00\n      keccak256\n        /* \"contracts/11_Voting.sol\":2159:2179  votes[totalVote] = v */\n      0x00\n      dup3\n      add\n      mload\n      dup2\n      0x00\n      add\n      exp(0x0100, 0x00)\n      dup2\n      sload\n      dup2\n      0xffffffffffffffffffffffffffffffffffffffff\n      mul\n      not\n      and\n      swap1\n      dup4\n      0xffffffffffffffffffffffffffffffffffffffff\n      and\n      mul\n      or\n      swap1\n      sstore\n      pop\n      0x20\n      dup3\n      add\n      mload\n      dup2\n      0x00\n      add\n      exp(0x0100, 0x14)\n      dup2\n      sload\n      dup2\n      0xff\n      mul\n      not\n      and\n      swap1\n      dup4\n      iszero\n      iszero\n      mul\n      or\n      swap1\n      sstore\n      pop\n      swap1\n      pop\n      pop\n        /* \"contracts/11_Voting.sol\":2193:2202  totalVote */\n      0x03\n      0x00\n        /* \"contracts/11_Voting.sol\":2193:2204  totalVote++ */\n      dup2\n      sload\n      dup1\n      swap3\n      swap2\n      swap1\n      tag_96\n      swap1\n      tag_95\n      jump\t// in\n    tag_96:\n      swap2\n      swap1\n      pop\n      sstore\n      pop\n        /* \"contracts/11_Voting.sol\":2226:2230  true */\n      0x01\n        /* \"contracts/11_Voting.sol\":2218:2230  found = true */\n      swap2\n      pop\n        /* \"contracts/11_Voting.sol\":1922:2241  {... */\n      pop\n        /* \"contracts/11_Voting.sol\":1826:2241  if (bytes(voterRegister[msg.sender].voterName).length != 0 && !voterRegister[msg.sender].voted) {... */\n    tag_90:\n        /* \"contracts/11_Voting.sol\":2257:2262  found */\n      dup1\n        /* \"contracts/11_Voting.sol\":2250:2262  return found */\n      swap3\n      pop\n      pop\n        /* \"contracts/11_Voting.sol\":1648:2269  function doVote(bool _choice) ... */\n      pop\n      swap2\n      swap1\n      pop\n      jump\t// out\n        /* \"contracts/11_Voting.sol\":357:393  address public ballotOfficialAddress */\n    tag_33:\n      0x04\n      0x00\n      swap1\n      sload\n      swap1\n      0x0100\n      exp\n      swap1\n      div\n      0xffffffffffffffffffffffffffffffffffffffff\n      and\n      dup2\n      jump\t// out\n        /* \"contracts/11_Voting.sol\":507:553  mapping(address => voter) public voterRegister */\n    tag_39:\n      mstore(0x20, 0x08)\n      dup1\n      0x00\n      mstore\n      keccak256(0x00, 0x40)\n      0x00\n      swap2\n      pop\n      swap1\n      pop\n      dup1\n      0x00\n      add\n      dup1\n      sload\n      tag_97\n      swap1\n      tag_74\n      jump\t// in\n    tag_97:\n      dup1\n      0x1f\n      add\n      0x20\n      dup1\n      swap2\n      div\n      mul\n      0x20\n      add\n      mload(0x40)\n      swap1\n      dup2\n      add\n      0x40\n      mstore\n      dup1\n      swap3\n      swap2\n      swap1\n      dup2\n      dup2\n      mstore\n      0x20\n      add\n      dup3\n      dup1\n      sload\n      tag_98\n      swap1\n      tag_74\n      jump\t// in\n    tag_98:\n      dup1\n      iszero\n      tag_99\n      jumpi\n      dup1\n      0x1f\n      lt\n      tag_100\n      jumpi\n      0x0100\n      dup1\n      dup4\n      sload\n      div\n      mul\n      dup4\n      mstore\n      swap2\n      0x20\n      add\n      swap2\n      jump(tag_99)\n    tag_100:\n      dup3\n      add\n      swap2\n      swap1\n      0x00\n      mstore\n      keccak256(0x00, 0x20)\n      swap1\n    tag_101:\n      dup2\n      sload\n      dup2\n      mstore\n      swap1\n      0x01\n      add\n      swap1\n      0x20\n      add\n      dup1\n      dup4\n      gt\n      tag_101\n      jumpi\n      dup3\n      swap1\n      sub\n      0x1f\n      and\n      dup3\n      add\n      swap2\n    tag_99:\n      pop\n      pop\n      pop\n      pop\n      pop\n      swap1\n      dup1\n      0x01\n      add\n      0x00\n      swap1\n      sload\n      swap1\n      0x0100\n      exp\n      swap1\n      div\n      0xff\n      and\n      swap1\n      pop\n      dup3\n      jump\t// out\n        /* \"contracts/11_Voting.sol\":2275:2433  function endVote() ... */\n    tag_43:\n        /* \"contracts/11_Voting.sol\":2326:2338  State.Voting */\n      0x01\n        /* \"contracts/11_Voting.sol\":894:900  _state */\n      dup1\n        /* \"contracts/11_Voting.sol\":885:900  state == _state */\n      0x02\n      dup2\n      gt\n      iszero\n      tag_103\n      jumpi\n      tag_104\n      tag_64\n      jump\t// in\n    tag_104:\n    tag_103:\n        /* \"contracts/11_Voting.sol\":885:890  state */\n      0x09\n      0x00\n      swap1\n      sload\n      swap1\n      0x0100\n      exp\n      swap1\n      div\n      0xff\n      and\n        /* \"contracts/11_Voting.sol\":885:900  state == _state */\n      0x02\n      dup2\n      gt\n      iszero\n      tag_105\n      jumpi\n      tag_106\n      tag_64\n      jump\t// in\n    tag_106:\n    tag_105:\n      eq\n        /* \"contracts/11_Voting.sol\":877:901  require(state == _state) */\n      tag_107\n      jumpi\n      0x00\n      dup1\n      revert\n    tag_107:\n        /* \"contracts/11_Voting.sol\":790:811  ballotOfficialAddress */\n      0x04\n      0x00\n      swap1\n      sload\n      swap1\n      0x0100\n      exp\n      swap1\n      div\n      0xffffffffffffffffffffffffffffffffffffffff\n      and\n        /* \"contracts/11_Voting.sol\":776:811  msg.sender == ballotOfficialAddress */\n      0xffffffffffffffffffffffffffffffffffffffff\n      and\n        /* \"contracts/11_Voting.sol\":776:786  msg.sender */\n      caller\n        /* \"contracts/11_Voting.sol\":776:811  msg.sender == ballotOfficialAddress */\n      0xffffffffffffffffffffffffffffffffffffffff\n      and\n      eq\n        /* \"contracts/11_Voting.sol\":768:812  require(msg.sender == ballotOfficialAddress) */\n      tag_109\n      jumpi\n      0x00\n      dup1\n      revert\n    tag_109:\n        /* \"contracts/11_Voting.sol\":2380:2391  State.Ended */\n      0x02\n        /* \"contracts/11_Voting.sol\":2372:2377  state */\n      0x09\n      0x00\n        /* \"contracts/11_Voting.sol\":2372:2391  state = State.Ended */\n      0x0100\n      exp\n      dup2\n      sload\n      dup2\n      0xff\n      mul\n      not\n      and\n      swap1\n      dup4\n      0x02\n      dup2\n      gt\n      iszero\n      tag_111\n      jumpi\n      tag_112\n      tag_64\n      jump\t// in\n    tag_112:\n    tag_111:\n      mul\n      or\n      swap1\n      sstore\n      pop\n        /* \"contracts/11_Voting.sol\":2412:2423  countResult */\n      sload(0x00)\n        /* \"contracts/11_Voting.sol\":2398:2409  finalResult */\n      0x01\n        /* \"contracts/11_Voting.sol\":2398:2423  finalResult = countResult */\n      dup2\n      swap1\n      sstore\n      pop\n        /* \"contracts/11_Voting.sol\":2275:2433  function endVote() ... */\n      pop\n      jump\t// out\n        /* \"contracts/11_Voting.sol\":602:620  State public state */\n    tag_45:\n      0x09\n      0x00\n      swap1\n      sload\n      swap1\n      0x0100\n      exp\n      swap1\n      div\n      0xff\n      and\n      dup2\n      jump\t// out\n        /* \"contracts/11_Voting.sol\":1227:1507  function addVoter(address _voterAddress, string memory _voterName) ... */\n    tag_51:\n        /* \"contracts/11_Voting.sol\":1327:1340  State.Created */\n      0x00\n        /* \"contracts/11_Voting.sol\":894:900  _state */\n      dup1\n        /* \"contracts/11_Voting.sol\":885:900  state == _state */\n      0x02\n      dup2\n      gt\n      iszero\n      tag_114\n      jumpi\n      tag_115\n      tag_64\n      jump\t// in\n    tag_115:\n    tag_114:\n        /* \"contracts/11_Voting.sol\":885:890  state */\n      0x09\n      0x00\n      swap1\n      sload\n      swap1\n      0x0100\n      exp\n      swap1\n      div\n      0xff\n      and\n        /* \"contracts/11_Voting.sol\":885:900  state == _state */\n      0x02\n      dup2\n      gt\n      iszero\n      tag_116\n      jumpi\n      tag_117\n      tag_64\n      jump\t// in\n    tag_117:\n    tag_116:\n      eq\n        /* \"contracts/11_Voting.sol\":877:901  require(state == _state) */\n      tag_118\n      jumpi\n      0x00\n      dup1\n      revert\n    tag_118:\n        /* \"contracts/11_Voting.sol\":790:811  ballotOfficialAddress */\n      0x04\n      0x00\n      swap1\n      sload\n      swap1\n      0x0100\n      exp\n      swap1\n      div\n      0xffffffffffffffffffffffffffffffffffffffff\n      and\n        /* \"contracts/11_Voting.sol\":776:811  msg.sender == ballotOfficialAddress */\n      0xffffffffffffffffffffffffffffffffffffffff\n      and\n        /* \"contracts/11_Voting.sol\":776:786  msg.sender */\n      caller\n        /* \"contracts/11_Voting.sol\":776:811  msg.sender == ballotOfficialAddress */\n      0xffffffffffffffffffffffffffffffffffffffff\n      and\n      eq\n        /* \"contracts/11_Voting.sol\":768:812  require(msg.sender == ballotOfficialAddress) */\n      tag_120\n      jumpi\n      0x00\n      dup1\n      revert\n    tag_120:\n        /* \"contracts/11_Voting.sol\":1374:1388  voter memory v */\n      tag_122\n      tag_123\n      jump\t// in\n    tag_122:\n        /* \"contracts/11_Voting.sol\":1409:1419  _voterName */\n      dup3\n        /* \"contracts/11_Voting.sol\":1395:1396  v */\n      dup2\n        /* \"contracts/11_Voting.sol\":1395:1406  v.voterName */\n      0x00\n      add\n        /* \"contracts/11_Voting.sol\":1395:1419  v.voterName = _voterName */\n      dup2\n      swap1\n      mstore\n      pop\n        /* \"contracts/11_Voting.sol\":1436:1441  false */\n      0x00\n        /* \"contracts/11_Voting.sol\":1426:1427  v */\n      dup2\n        /* \"contracts/11_Voting.sol\":1426:1433  v.voted */\n      0x20\n      add\n        /* \"contracts/11_Voting.sol\":1426:1441  v.voted = false */\n      swap1\n      iszero\n      iszero\n      swap1\n      dup2\n      iszero\n      iszero\n      dup2\n      mstore\n      pop\n      pop\n        /* \"contracts/11_Voting.sol\":1479:1480  v */\n      dup1\n        /* \"contracts/11_Voting.sol\":1448:1461  voterRegister */\n      0x08\n        /* \"contracts/11_Voting.sol\":1448:1476  voterRegister[_voterAddress] */\n      0x00\n        /* \"contracts/11_Voting.sol\":1462:1475  _voterAddress */\n      dup7\n        /* \"contracts/11_Voting.sol\":1448:1476  voterRegister[_voterAddress] */\n      0xffffffffffffffffffffffffffffffffffffffff\n      and\n      0xffffffffffffffffffffffffffffffffffffffff\n      and\n      dup2\n      mstore\n      0x20\n      add\n      swap1\n      dup2\n      mstore\n      0x20\n      add\n      0x00\n      keccak256\n        /* \"contracts/11_Voting.sol\":1448:1480  voterRegister[_voterAddress] = v */\n      0x00\n      dup3\n      add\n      mload\n      dup2\n      0x00\n      add\n      swap1\n      dup1\n      mload\n      swap1\n      0x20\n      add\n      swap1\n      tag_124\n      swap3\n      swap2\n      swap1\n      tag_125\n      jump\t// in\n    tag_124:\n      pop\n      0x20\n      dup3\n      add\n      mload\n      dup2\n      0x01\n      add\n      exp(0x0100, 0x00)\n      dup2\n      sload\n      dup2\n      0xff\n      mul\n      not\n      and\n      swap1\n      dup4\n      iszero\n      iszero\n      mul\n      or\n      swap1\n      sstore\n      pop\n      swap1\n      pop\n      pop\n        /* \"contracts/11_Voting.sol\":1487:1497  totalVoter */\n      0x02\n      0x00\n        /* \"contracts/11_Voting.sol\":1487:1499  totalVoter++ */\n      dup2\n      sload\n      dup1\n      swap3\n      swap2\n      swap1\n      tag_126\n      swap1\n      tag_95\n      jump\t// in\n    tag_126:\n      swap2\n      swap1\n      pop\n      sstore\n      pop\n        /* \"contracts/11_Voting.sol\":1367:1507  {... */\n      pop\n        /* \"contracts/11_Voting.sol\":1227:1507  function addVoter(address _voterAddress, string memory _voterName) ... */\n      pop\n      pop\n      pop\n      jump\t// out\n        /* \"contracts/11_Voting.sol\":399:431  string public ballotOfficialName */\n    tag_53:\n      0x05\n      dup1\n      sload\n      tag_127\n      swap1\n      tag_74\n      jump\t// in\n    tag_127:\n      dup1\n      0x1f\n      add\n      0x20\n      dup1\n      swap2\n      div\n      mul\n      0x20\n      add\n      mload(0x40)\n      swap1\n      dup2\n      add\n      0x40\n      mstore\n      dup1\n      swap3\n      swap2\n      swap1\n      dup2\n      dup2\n      mstore\n      0x20\n      add\n      dup3\n      dup1\n      sload\n      tag_128\n      swap1\n      tag_74\n      jump\t// in\n    tag_128:\n      dup1\n      iszero\n      tag_129\n      jumpi\n      dup1\n      0x1f\n      lt\n      tag_130\n      jumpi\n      0x0100\n      dup1\n      dup4\n      sload\n      div\n      mul\n      dup4\n      mstore\n      swap2\n      0x20\n      add\n      swap2\n      jump(tag_129)\n    tag_130:\n      dup3\n      add\n      swap2\n      swap1\n      0x00\n      mstore\n      keccak256(0x00, 0x20)\n      swap1\n    tag_131:\n      dup2\n      sload\n      dup2\n      mstore\n      swap1\n      0x01\n      add\n      swap1\n      0x20\n      add\n      dup1\n      dup4\n      gt\n      tag_131\n      jumpi\n      dup3\n      swap1\n      sub\n      0x1f\n      and\n      dup3\n      add\n      swap2\n    tag_129:\n      pop\n      pop\n      pop\n      pop\n      pop\n      dup2\n      jump\t// out\n        /* \"contracts/11_Voting.sol\":325:350  uint public totalVote = 0 */\n    tag_56:\n      sload(0x03)\n      dup2\n      jump\t// out\n        /* \"contracts/11_Voting.sol\":260:287  uint public finalResult = 0 */\n    tag_59:\n      sload(0x01)\n      dup2\n      jump\t// out\n    tag_92:\n      mload(0x40)\n      dup1\n      0x40\n      add\n      0x40\n      mstore\n      dup1\n      and(0xffffffffffffffffffffffffffffffffffffffff, 0x00)\n      dup2\n      mstore\n      0x20\n      add\n      iszero(iszero(0x00))\n      dup2\n      mstore\n      pop\n      swap1\n      jump\t// out\n    tag_123:\n      mload(0x40)\n      dup1\n      0x40\n      add\n      0x40\n      mstore\n      dup1\n      0x60\n      dup2\n      mstore\n      0x20\n      add\n      iszero(iszero(0x00))\n      dup2\n      mstore\n      pop\n      swap1\n      jump\t// out\n    tag_125:\n      dup3\n      dup1\n      sload\n      tag_132\n      swap1\n      tag_74\n      jump\t// in\n    tag_132:\n      swap1\n      0x00\n      mstore\n      keccak256(0x00, 0x20)\n      swap1\n      0x1f\n      add\n      0x20\n      swap1\n      div\n      dup2\n      add\n      swap3\n      dup3\n      tag_134\n      jumpi\n      0x00\n      dup6\n      sstore\n      jump(tag_133)\n    tag_134:\n      dup3\n      0x1f\n      lt\n      tag_135\n      jumpi\n      dup1\n      mload\n      not(0xff)\n      and\n      dup4\n      dup1\n      add\n      or\n      dup6\n      sstore\n      jump(tag_133)\n    tag_135:\n      dup3\n      dup1\n      add\n      0x01\n      add\n      dup6\n      sstore\n      dup3\n      iszero\n      tag_133\n      jumpi\n      swap2\n      dup3\n      add\n    tag_136:\n      dup3\n      dup2\n      gt\n      iszero\n      tag_137\n      jumpi\n      dup3\n      mload\n      dup3\n      sstore\n      swap2\n      0x20\n      add\n      swap2\n      swap1\n      0x01\n      add\n      swap1\n      jump(tag_136)\n    tag_137:\n    tag_133:\n      pop\n      swap1\n      pop\n      tag_138\n      swap2\n      swap1\n      tag_139\n      jump\t// in\n    tag_138:\n      pop\n      swap1\n      jump\t// out\n    tag_139:\n    tag_140:\n      dup1\n      dup3\n      gt\n      iszero\n      tag_141\n      jumpi\n      0x00\n      dup2\n      0x00\n      swap1\n      sstore\n      pop\n      0x01\n      add\n      jump(tag_140)\n    tag_141:\n      pop\n      swap1\n      jump\t// out\n        /* \"#utility.yul\":7:419   */\n    tag_143:\n        /* \"#utility.yul\":85:90   */\n      0x00\n        /* \"#utility.yul\":110:176   */\n      tag_145\n        /* \"#utility.yul\":126:175   */\n      tag_146\n        /* \"#utility.yul\":168:174   */\n      dup5\n        /* \"#utility.yul\":126:175   */\n      tag_147\n      jump\t// in\n    tag_146:\n        /* \"#utility.yul\":110:176   */\n      tag_148\n      jump\t// in\n    tag_145:\n        /* \"#utility.yul\":101:176   */\n      swap1\n      pop\n        /* \"#utility.yul\":199:205   */\n      dup3\n        /* \"#utility.yul\":192:197   */\n      dup2\n        /* \"#utility.yul\":185:206   */\n      mstore\n        /* \"#utility.yul\":237:241   */\n      0x20\n        /* \"#utility.yul\":230:235   */\n      dup2\n        /* \"#utility.yul\":226:242   */\n      add\n        /* \"#utility.yul\":275:278   */\n      dup5\n        /* \"#utility.yul\":266:272   */\n      dup5\n        /* \"#utility.yul\":261:264   */\n      dup5\n        /* \"#utility.yul\":257:273   */\n      add\n        /* \"#utility.yul\":254:279   */\n      gt\n        /* \"#utility.yul\":251:363   */\n      iszero\n      tag_149\n      jumpi\n        /* \"#utility.yul\":282:361   */\n      tag_150\n      tag_151\n      jump\t// in\n    tag_150:\n        /* \"#utility.yul\":251:363   */\n    tag_149:\n        /* \"#utility.yul\":372:413   */\n      tag_152\n        /* \"#utility.yul\":406:412   */\n      dup5\n        /* \"#utility.yul\":401:404   */\n      dup3\n        /* \"#utility.yul\":396:399   */\n      dup6\n        /* \"#utility.yul\":372:413   */\n      tag_153\n      jump\t// in\n    tag_152:\n        /* \"#utility.yul\":91:419   */\n      pop\n        /* \"#utility.yul\":7:419   */\n      swap4\n      swap3\n      pop\n      pop\n      pop\n      jump\t// out\n        /* \"#utility.yul\":425:564   */\n    tag_154:\n        /* \"#utility.yul\":471:476   */\n      0x00\n        /* \"#utility.yul\":509:515   */\n      dup2\n        /* \"#utility.yul\":496:516   */\n      calldataload\n        /* \"#utility.yul\":487:516   */\n      swap1\n      pop\n        /* \"#utility.yul\":525:558   */\n      tag_156\n        /* \"#utility.yul\":552:557   */\n      dup2\n        /* \"#utility.yul\":525:558   */\n      tag_157\n      jump\t// in\n    tag_156:\n        /* \"#utility.yul\":425:564   */\n      swap3\n      swap2\n      pop\n      pop\n      jump\t// out\n        /* \"#utility.yul\":570:703   */\n    tag_158:\n        /* \"#utility.yul\":613:618   */\n      0x00\n        /* \"#utility.yul\":651:657   */\n      dup2\n        /* \"#utility.yul\":638:658   */\n      calldataload\n        /* \"#utility.yul\":629:658   */\n      swap1\n      pop\n        /* \"#utility.yul\":667:697   */\n      tag_160\n        /* \"#utility.yul\":691:696   */\n      dup2\n        /* \"#utility.yul\":667:697   */\n      tag_161\n      jump\t// in\n    tag_160:\n        /* \"#utility.yul\":570:703   */\n      swap3\n      swap2\n      pop\n      pop\n      jump\t// out\n        /* \"#utility.yul\":723:1063   */\n    tag_162:\n        /* \"#utility.yul\":779:784   */\n      0x00\n        /* \"#utility.yul\":828:831   */\n      dup3\n        /* \"#utility.yul\":821:825   */\n      0x1f\n        /* \"#utility.yul\":813:819   */\n      dup4\n        /* \"#utility.yul\":809:826   */\n      add\n        /* \"#utility.yul\":805:832   */\n      slt\n        /* \"#utility.yul\":795:917   */\n      tag_164\n      jumpi\n        /* \"#utility.yul\":836:915   */\n      tag_165\n      tag_166\n      jump\t// in\n    tag_165:\n        /* \"#utility.yul\":795:917   */\n    tag_164:\n        /* \"#utility.yul\":953:959   */\n      dup2\n        /* \"#utility.yul\":940:960   */\n      calldataload\n        /* \"#utility.yul\":978:1057   */\n      tag_167\n        /* \"#utility.yul\":1053:1056   */\n      dup5\n        /* \"#utility.yul\":1045:1051   */\n      dup3\n        /* \"#utility.yul\":1038:1042   */\n      0x20\n        /* \"#utility.yul\":1030:1036   */\n      dup7\n        /* \"#utility.yul\":1026:1043   */\n      add\n        /* \"#utility.yul\":978:1057   */\n      tag_143\n      jump\t// in\n    tag_167:\n        /* \"#utility.yul\":969:1057   */\n      swap2\n      pop\n        /* \"#utility.yul\":785:1063   */\n      pop\n        /* \"#utility.yul\":723:1063   */\n      swap3\n      swap2\n      pop\n      pop\n      jump\t// out\n        /* \"#utility.yul\":1069:1398   */\n    tag_38:\n        /* \"#utility.yul\":1128:1134   */\n      0x00\n        /* \"#utility.yul\":1177:1179   */\n      0x20\n        /* \"#utility.yul\":1165:1174   */\n      dup3\n        /* \"#utility.yul\":1156:1163   */\n      dup5\n        /* \"#utility.yul\":1152:1175   */\n      sub\n        /* \"#utility.yul\":1148:1180   */\n      slt\n        /* \"#utility.yul\":1145:1264   */\n      iszero\n      tag_169\n      jumpi\n        /* \"#utility.yul\":1183:1262   */\n      tag_170\n      tag_171\n      jump\t// in\n    tag_170:\n        /* \"#utility.yul\":1145:1264   */\n    tag_169:\n        /* \"#utility.yul\":1303:1304   */\n      0x00\n        /* \"#utility.yul\":1328:1381   */\n      tag_172\n        /* \"#utility.yul\":1373:1380   */\n      dup5\n        /* \"#utility.yul\":1364:1370   */\n      dup3\n        /* \"#utility.yul\":1353:1362   */\n      dup6\n        /* \"#utility.yul\":1349:1371   */\n      add\n        /* \"#utility.yul\":1328:1381   */\n      tag_154\n      jump\t// in\n    tag_172:\n        /* \"#utility.yul\":1318:1381   */\n      swap2\n      pop\n        /* \"#utility.yul\":1274:1391   */\n      pop\n        /* \"#utility.yul\":1069:1398   */\n      swap3\n      swap2\n      pop\n      pop\n      jump\t// out\n        /* \"#utility.yul\":1404:2058   */\n    tag_50:\n        /* \"#utility.yul\":1482:1488   */\n      0x00\n        /* \"#utility.yul\":1490:1496   */\n      dup1\n        /* \"#utility.yul\":1539:1541   */\n      0x40\n        /* \"#utility.yul\":1527:1536   */\n      dup4\n        /* \"#utility.yul\":1518:1525   */\n      dup6\n        /* \"#utility.yul\":1514:1537   */\n      sub\n        /* \"#utility.yul\":1510:1542   */\n      slt\n        /* \"#utility.yul\":1507:1626   */\n      iszero\n      tag_174\n      jumpi\n        /* \"#utility.yul\":1545:1624   */\n      tag_175\n      tag_171\n      jump\t// in\n    tag_175:\n        /* \"#utility.yul\":1507:1626   */\n    tag_174:\n        /* \"#utility.yul\":1665:1666   */\n      0x00\n        /* \"#utility.yul\":1690:1743   */\n      tag_176\n        /* \"#utility.yul\":1735:1742   */\n      dup6\n        /* \"#utility.yul\":1726:1732   */\n      dup3\n        /* \"#utility.yul\":1715:1724   */\n      dup7\n        /* \"#utility.yul\":1711:1733   */\n      add\n        /* \"#utility.yul\":1690:1743   */\n      tag_154\n      jump\t// in\n    tag_176:\n        /* \"#utility.yul\":1680:1743   */\n      swap3\n      pop\n        /* \"#utility.yul\":1636:1753   */\n      pop\n        /* \"#utility.yul\":1820:1822   */\n      0x20\n        /* \"#utility.yul\":1809:1818   */\n      dup4\n        /* \"#utility.yul\":1805:1823   */\n      add\n        /* \"#utility.yul\":1792:1824   */\n      calldataload\n        /* \"#utility.yul\":1851:1869   */\n      0xffffffffffffffff\n        /* \"#utility.yul\":1843:1849   */\n      dup2\n        /* \"#utility.yul\":1840:1870   */\n      gt\n        /* \"#utility.yul\":1837:1954   */\n      iszero\n      tag_177\n      jumpi\n        /* \"#utility.yul\":1873:1952   */\n      tag_178\n      tag_179\n      jump\t// in\n    tag_178:\n        /* \"#utility.yul\":1837:1954   */\n    tag_177:\n        /* \"#utility.yul\":1978:2041   */\n      tag_180\n        /* \"#utility.yul\":2033:2040   */\n      dup6\n        /* \"#utility.yul\":2024:2030   */\n      dup3\n        /* \"#utility.yul\":2013:2022   */\n      dup7\n        /* \"#utility.yul\":2009:2031   */\n      add\n        /* \"#utility.yul\":1978:2041   */\n      tag_162\n      jump\t// in\n    tag_180:\n        /* \"#utility.yul\":1968:2041   */\n      swap2\n      pop\n        /* \"#utility.yul\":1763:2051   */\n      pop\n        /* \"#utility.yul\":1404:2058   */\n      swap3\n      pop\n      swap3\n      swap1\n      pop\n      jump\t// out\n        /* \"#utility.yul\":2064:2387   */\n    tag_28:\n        /* \"#utility.yul\":2120:2126   */\n      0x00\n        /* \"#utility.yul\":2169:2171   */\n      0x20\n        /* \"#utility.yul\":2157:2166   */\n      dup3\n        /* \"#utility.yul\":2148:2155   */\n      dup5\n        /* \"#utility.yul\":2144:2167   */\n      sub\n        /* \"#utility.yul\":2140:2172   */\n      slt\n        /* \"#utility.yul\":2137:2256   */\n      iszero\n      tag_182\n      jumpi\n        /* \"#utility.yul\":2175:2254   */\n      tag_183\n      tag_171\n      jump\t// in\n    tag_183:\n        /* \"#utility.yul\":2137:2256   */\n    tag_182:\n        /* \"#utility.yul\":2295:2296   */\n      0x00\n        /* \"#utility.yul\":2320:2370   */\n      tag_184\n        /* \"#utility.yul\":2362:2369   */\n      dup5\n        /* \"#utility.yul\":2353:2359   */\n      dup3\n        /* \"#utility.yul\":2342:2351   */\n      dup6\n        /* \"#utility.yul\":2338:2360   */\n      add\n        /* \"#utility.yul\":2320:2370   */\n      tag_158\n      jump\t// in\n    tag_184:\n        /* \"#utility.yul\":2310:2370   */\n      swap2\n      pop\n        /* \"#utility.yul\":2266:2380   */\n      pop\n        /* \"#utility.yul\":2064:2387   */\n      swap3\n      swap2\n      pop\n      pop\n      jump\t// out\n        /* \"#utility.yul\":2393:2511   */\n    tag_185:\n        /* \"#utility.yul\":2480:2504   */\n      tag_187\n        /* \"#utility.yul\":2498:2503   */\n      dup2\n        /* \"#utility.yul\":2480:2504   */\n      tag_188\n      jump\t// in\n    tag_187:\n        /* \"#utility.yul\":2475:2478   */\n      dup3\n        /* \"#utility.yul\":2468:2505   */\n      mstore\n        /* \"#utility.yul\":2393:2511   */\n      pop\n      pop\n      jump\t// out\n        /* \"#utility.yul\":2517:2626   */\n    tag_189:\n        /* \"#utility.yul\":2598:2619   */\n      tag_191\n        /* \"#utility.yul\":2613:2618   */\n      dup2\n        /* \"#utility.yul\":2598:2619   */\n      tag_192\n      jump\t// in\n    tag_191:\n        /* \"#utility.yul\":2593:2596   */\n      dup3\n        /* \"#utility.yul\":2586:2620   */\n      mstore\n        /* \"#utility.yul\":2517:2626   */\n      pop\n      pop\n      jump\t// out\n        /* \"#utility.yul\":2632:2775   */\n    tag_193:\n        /* \"#utility.yul\":2725:2768   */\n      tag_195\n        /* \"#utility.yul\":2762:2767   */\n      dup2\n        /* \"#utility.yul\":2725:2768   */\n      tag_196\n      jump\t// in\n    tag_195:\n        /* \"#utility.yul\":2720:2723   */\n      dup3\n        /* \"#utility.yul\":2713:2769   */\n      mstore\n        /* \"#utility.yul\":2632:2775   */\n      pop\n      pop\n      jump\t// out\n        /* \"#utility.yul\":2781:3145   */\n    tag_197:\n        /* \"#utility.yul\":2869:2872   */\n      0x00\n        /* \"#utility.yul\":2897:2936   */\n      tag_199\n        /* \"#utility.yul\":2930:2935   */\n      dup3\n        /* \"#utility.yul\":2897:2936   */\n      tag_200\n      jump\t// in\n    tag_199:\n        /* \"#utility.yul\":2952:3023   */\n      tag_201\n        /* \"#utility.yul\":3016:3022   */\n      dup2\n        /* \"#utility.yul\":3011:3014   */\n      dup6\n        /* \"#utility.yul\":2952:3023   */\n      tag_202\n      jump\t// in\n    tag_201:\n        /* \"#utility.yul\":2945:3023   */\n      swap4\n      pop\n        /* \"#utility.yul\":3032:3084   */\n      tag_203\n        /* \"#utility.yul\":3077:3083   */\n      dup2\n        /* \"#utility.yul\":3072:3075   */\n      dup6\n        /* \"#utility.yul\":3065:3069   */\n      0x20\n        /* \"#utility.yul\":3058:3063   */\n      dup7\n        /* \"#utility.yul\":3054:3070   */\n      add\n        /* \"#utility.yul\":3032:3084   */\n      tag_204\n      jump\t// in\n    tag_203:\n        /* \"#utility.yul\":3109:3138   */\n      tag_205\n        /* \"#utility.yul\":3131:3137   */\n      dup2\n        /* \"#utility.yul\":3109:3138   */\n      tag_206\n      jump\t// in\n    tag_205:\n        /* \"#utility.yul\":3104:3107   */\n      dup5\n        /* \"#utility.yul\":3100:3139   */\n      add\n        /* \"#utility.yul\":3093:3139   */\n      swap2\n      pop\n        /* \"#utility.yul\":2873:3145   */\n      pop\n        /* \"#utility.yul\":2781:3145   */\n      swap3\n      swap2\n      pop\n      pop\n      jump\t// out\n        /* \"#utility.yul\":3151:3269   */\n    tag_207:\n        /* \"#utility.yul\":3238:3262   */\n      tag_209\n        /* \"#utility.yul\":3256:3261   */\n      dup2\n        /* \"#utility.yul\":3238:3262   */\n      tag_210\n      jump\t// in\n    tag_209:\n        /* \"#utility.yul\":3233:3236   */\n      dup3\n        /* \"#utility.yul\":3226:3263   */\n      mstore\n        /* \"#utility.yul\":3151:3269   */\n      pop\n      pop\n      jump\t// out\n        /* \"#utility.yul\":3275:3497   */\n    tag_35:\n        /* \"#utility.yul\":3368:3372   */\n      0x00\n        /* \"#utility.yul\":3406:3408   */\n      0x20\n        /* \"#utility.yul\":3395:3404   */\n      dup3\n        /* \"#utility.yul\":3391:3409   */\n      add\n        /* \"#utility.yul\":3383:3409   */\n      swap1\n      pop\n        /* \"#utility.yul\":3419:3490   */\n      tag_212\n        /* \"#utility.yul\":3487:3488   */\n      0x00\n        /* \"#utility.yul\":3476:3485   */\n      dup4\n        /* \"#utility.yul\":3472:3489   */\n      add\n        /* \"#utility.yul\":3463:3469   */\n      dup5\n        /* \"#utility.yul\":3419:3490   */\n      tag_185\n      jump\t// in\n    tag_212:\n        /* \"#utility.yul\":3275:3497   */\n      swap3\n      swap2\n      pop\n      pop\n      jump\t// out\n        /* \"#utility.yul\":3503:3713   */\n    tag_31:\n        /* \"#utility.yul\":3590:3594   */\n      0x00\n        /* \"#utility.yul\":3628:3630   */\n      0x20\n        /* \"#utility.yul\":3617:3626   */\n      dup3\n        /* \"#utility.yul\":3613:3631   */\n      add\n        /* \"#utility.yul\":3605:3631   */\n      swap1\n      pop\n        /* \"#utility.yul\":3641:3706   */\n      tag_214\n        /* \"#utility.yul\":3703:3704   */\n      0x00\n        /* \"#utility.yul\":3692:3701   */\n      dup4\n        /* \"#utility.yul\":3688:3705   */\n      add\n        /* \"#utility.yul\":3679:3685   */\n      dup5\n        /* \"#utility.yul\":3641:3706   */\n      tag_189\n      jump\t// in\n    tag_214:\n        /* \"#utility.yul\":3503:3713   */\n      swap3\n      swap2\n      pop\n      pop\n      jump\t// out\n        /* \"#utility.yul\":3719:3953   */\n    tag_47:\n        /* \"#utility.yul\":3818:3822   */\n      0x00\n        /* \"#utility.yul\":3856:3858   */\n      0x20\n        /* \"#utility.yul\":3845:3854   */\n      dup3\n        /* \"#utility.yul\":3841:3859   */\n      add\n        /* \"#utility.yul\":3833:3859   */\n      swap1\n      pop\n        /* \"#utility.yul\":3869:3946   */\n      tag_216\n        /* \"#utility.yul\":3943:3944   */\n      0x00\n        /* \"#utility.yul\":3932:3941   */\n      dup4\n        /* \"#utility.yul\":3928:3945   */\n      add\n        /* \"#utility.yul\":3919:3925   */\n      dup5\n        /* \"#utility.yul\":3869:3946   */\n      tag_193\n      jump\t// in\n    tag_216:\n        /* \"#utility.yul\":3719:3953   */\n      swap3\n      swap2\n      pop\n      pop\n      jump\t// out\n        /* \"#utility.yul\":3959:4272   */\n    tag_25:\n        /* \"#utility.yul\":4072:4076   */\n      0x00\n        /* \"#utility.yul\":4110:4112   */\n      0x20\n        /* \"#utility.yul\":4099:4108   */\n      dup3\n        /* \"#utility.yul\":4095:4113   */\n      add\n        /* \"#utility.yul\":4087:4113   */\n      swap1\n      pop\n        /* \"#utility.yul\":4159:4168   */\n      dup2\n        /* \"#utility.yul\":4153:4157   */\n      dup2\n        /* \"#utility.yul\":4149:4169   */\n      sub\n        /* \"#utility.yul\":4145:4146   */\n      0x00\n        /* \"#utility.yul\":4134:4143   */\n      dup4\n        /* \"#utility.yul\":4130:4147   */\n      add\n        /* \"#utility.yul\":4123:4170   */\n      mstore\n        /* \"#utility.yul\":4187:4265   */\n      tag_218\n        /* \"#utility.yul\":4260:4264   */\n      dup2\n        /* \"#utility.yul\":4251:4257   */\n      dup5\n        /* \"#utility.yul\":4187:4265   */\n      tag_197\n      jump\t// in\n    tag_218:\n        /* \"#utility.yul\":4179:4265   */\n      swap1\n      pop\n        /* \"#utility.yul\":3959:4272   */\n      swap3\n      swap2\n      pop\n      pop\n      jump\t// out\n        /* \"#utility.yul\":4278:4689   */\n    tag_41:\n        /* \"#utility.yul\":4413:4417   */\n      0x00\n        /* \"#utility.yul\":4451:4453   */\n      0x40\n        /* \"#utility.yul\":4440:4449   */\n      dup3\n        /* \"#utility.yul\":4436:4454   */\n      add\n        /* \"#utility.yul\":4428:4454   */\n      swap1\n      pop\n        /* \"#utility.yul\":4500:4509   */\n      dup2\n        /* \"#utility.yul\":4494:4498   */\n      dup2\n        /* \"#utility.yul\":4490:4510   */\n      sub\n        /* \"#utility.yul\":4486:4487   */\n      0x00\n        /* \"#utility.yul\":4475:4484   */\n      dup4\n        /* \"#utility.yul\":4471:4488   */\n      add\n        /* \"#utility.yul\":4464:4511   */\n      mstore\n        /* \"#utility.yul\":4528:4606   */\n      tag_220\n        /* \"#utility.yul\":4601:4605   */\n      dup2\n        /* \"#utility.yul\":4592:4598   */\n      dup6\n        /* \"#utility.yul\":4528:4606   */\n      tag_197\n      jump\t// in\n    tag_220:\n        /* \"#utility.yul\":4520:4606   */\n      swap1\n      pop\n        /* \"#utility.yul\":4616:4682   */\n      tag_221\n        /* \"#utility.yul\":4678:4680   */\n      0x20\n        /* \"#utility.yul\":4667:4676   */\n      dup4\n        /* \"#utility.yul\":4663:4681   */\n      add\n        /* \"#utility.yul\":4654:4660   */\n      dup5\n        /* \"#utility.yul\":4616:4682   */\n      tag_189\n      jump\t// in\n    tag_221:\n        /* \"#utility.yul\":4278:4689   */\n      swap4\n      swap3\n      pop\n      pop\n      pop\n      jump\t// out\n        /* \"#utility.yul\":4695:4917   */\n    tag_21:\n        /* \"#utility.yul\":4788:4792   */\n      0x00\n        /* \"#utility.yul\":4826:4828   */\n      0x20\n        /* \"#utility.yul\":4815:4824   */\n      dup3\n        /* \"#utility.yul\":4811:4829   */\n      add\n        /* \"#utility.yul\":4803:4829   */\n      swap1\n      pop\n        /* \"#utility.yul\":4839:4910   */\n      tag_223\n        /* \"#utility.yul\":4907:4908   */\n      0x00\n        /* \"#utility.yul\":4896:4905   */\n      dup4\n        /* \"#utility.yul\":4892:4909   */\n      add\n        /* \"#utility.yul\":4883:4889   */\n      dup5\n        /* \"#utility.yul\":4839:4910   */\n      tag_207\n      jump\t// in\n    tag_223:\n        /* \"#utility.yul\":4695:4917   */\n      swap3\n      swap2\n      pop\n      pop\n      jump\t// out\n        /* \"#utility.yul\":4923:5052   */\n    tag_148:\n        /* \"#utility.yul\":4957:4963   */\n      0x00\n        /* \"#utility.yul\":4984:5004   */\n      tag_225\n      tag_226\n      jump\t// in\n    tag_225:\n        /* \"#utility.yul\":4974:5004   */\n      swap1\n      pop\n        /* \"#utility.yul\":5013:5046   */\n      tag_227\n        /* \"#utility.yul\":5041:5045   */\n      dup3\n        /* \"#utility.yul\":5033:5039   */\n      dup3\n        /* \"#utility.yul\":5013:5046   */\n      tag_228\n      jump\t// in\n    tag_227:\n        /* \"#utility.yul\":4923:5052   */\n      swap2\n      swap1\n      pop\n      jump\t// out\n        /* \"#utility.yul\":5058:5133   */\n    tag_226:\n        /* \"#utility.yul\":5091:5097   */\n      0x00\n        /* \"#utility.yul\":5124:5126   */\n      0x40\n        /* \"#utility.yul\":5118:5127   */\n      mload\n        /* \"#utility.yul\":5108:5127   */\n      swap1\n      pop\n        /* \"#utility.yul\":5058:5133   */\n      swap1\n      jump\t// out\n        /* \"#utility.yul\":5139:5447   */\n    tag_147:\n        /* \"#utility.yul\":5201:5205   */\n      0x00\n        /* \"#utility.yul\":5291:5309   */\n      0xffffffffffffffff\n        /* \"#utility.yul\":5283:5289   */\n      dup3\n        /* \"#utility.yul\":5280:5310   */\n      gt\n        /* \"#utility.yul\":5277:5333   */\n      iszero\n      tag_231\n      jumpi\n        /* \"#utility.yul\":5313:5331   */\n      tag_232\n      tag_233\n      jump\t// in\n    tag_232:\n        /* \"#utility.yul\":5277:5333   */\n    tag_231:\n        /* \"#utility.yul\":5351:5380   */\n      tag_234\n        /* \"#utility.yul\":5373:5379   */\n      dup3\n        /* \"#utility.yul\":5351:5380   */\n      tag_206\n      jump\t// in\n    tag_234:\n        /* \"#utility.yul\":5343:5380   */\n      swap1\n      pop\n        /* \"#utility.yul\":5435:5439   */\n      0x20\n        /* \"#utility.yul\":5429:5433   */\n      dup2\n        /* \"#utility.yul\":5425:5440   */\n      add\n        /* \"#utility.yul\":5417:5440   */\n      swap1\n      pop\n        /* \"#utility.yul\":5139:5447   */\n      swap2\n      swap1\n      pop\n      jump\t// out\n        /* \"#utility.yul\":5453:5552   */\n    tag_200:\n        /* \"#utility.yul\":5505:5511   */\n      0x00\n        /* \"#utility.yul\":5539:5544   */\n      dup2\n        /* \"#utility.yul\":5533:5545   */\n      mload\n        /* \"#utility.yul\":5523:5545   */\n      swap1\n      pop\n        /* \"#utility.yul\":5453:5552   */\n      swap2\n      swap1\n      pop\n      jump\t// out\n        /* \"#utility.yul\":5558:5727   */\n    tag_202:\n        /* \"#utility.yul\":5642:5653   */\n      0x00\n        /* \"#utility.yul\":5676:5682   */\n      dup3\n        /* \"#utility.yul\":5671:5674   */\n      dup3\n        /* \"#utility.yul\":5664:5683   */\n      mstore\n        /* \"#utility.yul\":5716:5720   */\n      0x20\n        /* \"#utility.yul\":5711:5714   */\n      dup3\n        /* \"#utility.yul\":5707:5721   */\n      add\n        /* \"#utility.yul\":5692:5721   */\n      swap1\n      pop\n        /* \"#utility.yul\":5558:5727   */\n      swap3\n      swap2\n      pop\n      pop\n      jump\t// out\n        /* \"#utility.yul\":5733:5829   */\n    tag_188:\n        /* \"#utility.yul\":5770:5777   */\n      0x00\n        /* \"#utility.yul\":5799:5823   */\n      tag_238\n        /* \"#utility.yul\":5817:5822   */\n      dup3\n        /* \"#utility.yul\":5799:5823   */\n      tag_239\n      jump\t// in\n    tag_238:\n        /* \"#utility.yul\":5788:5823   */\n      swap1\n      pop\n        /* \"#utility.yul\":5733:5829   */\n      swap2\n      swap1\n      pop\n      jump\t// out\n        /* \"#utility.yul\":5835:5925   */\n    tag_192:\n        /* \"#utility.yul\":5869:5876   */\n      0x00\n        /* \"#utility.yul\":5912:5917   */\n      dup2\n        /* \"#utility.yul\":5905:5918   */\n      iszero\n        /* \"#utility.yul\":5898:5919   */\n      iszero\n        /* \"#utility.yul\":5887:5919   */\n      swap1\n      pop\n        /* \"#utility.yul\":5835:5925   */\n      swap2\n      swap1\n      pop\n      jump\t// out\n        /* \"#utility.yul\":5931:6058   */\n    tag_241:\n        /* \"#utility.yul\":5976:5983   */\n      0x00\n        /* \"#utility.yul\":6005:6010   */\n      dup2\n        /* \"#utility.yul\":5994:6010   */\n      swap1\n      pop\n        /* \"#utility.yul\":6011:6052   */\n      tag_243\n        /* \"#utility.yul\":6046:6051   */\n      dup3\n        /* \"#utility.yul\":6011:6052   */\n      tag_244\n      jump\t// in\n    tag_243:\n        /* \"#utility.yul\":5931:6058   */\n      swap2\n      swap1\n      pop\n      jump\t// out\n        /* \"#utility.yul\":6064:6190   */\n    tag_239:\n        /* \"#utility.yul\":6101:6108   */\n      0x00\n        /* \"#utility.yul\":6141:6183   */\n      0xffffffffffffffffffffffffffffffffffffffff\n        /* \"#utility.yul\":6134:6139   */\n      dup3\n        /* \"#utility.yul\":6130:6184   */\n      and\n        /* \"#utility.yul\":6119:6184   */\n      swap1\n      pop\n        /* \"#utility.yul\":6064:6190   */\n      swap2\n      swap1\n      pop\n      jump\t// out\n        /* \"#utility.yul\":6196:6273   */\n    tag_210:\n        /* \"#utility.yul\":6233:6240   */\n      0x00\n        /* \"#utility.yul\":6262:6267   */\n      dup2\n        /* \"#utility.yul\":6251:6267   */\n      swap1\n      pop\n        /* \"#utility.yul\":6196:6273   */\n      swap2\n      swap1\n      pop\n      jump\t// out\n        /* \"#utility.yul\":6279:6406   */\n    tag_196:\n        /* \"#utility.yul\":6335:6344   */\n      0x00\n        /* \"#utility.yul\":6368:6400   */\n      tag_248\n        /* \"#utility.yul\":6394:6399   */\n      dup3\n        /* \"#utility.yul\":6368:6400   */\n      tag_241\n      jump\t// in\n    tag_248:\n        /* \"#utility.yul\":6355:6400   */\n      swap1\n      pop\n        /* \"#utility.yul\":6279:6406   */\n      swap2\n      swap1\n      pop\n      jump\t// out\n        /* \"#utility.yul\":6412:6566   */\n    tag_153:\n        /* \"#utility.yul\":6496:6502   */\n      dup3\n        /* \"#utility.yul\":6491:6494   */\n      dup2\n        /* \"#utility.yul\":6486:6489   */\n      dup4\n        /* \"#utility.yul\":6473:6503   */\n      calldatacopy\n        /* \"#utility.yul\":6558:6559   */\n      0x00\n        /* \"#utility.yul\":6549:6555   */\n      dup4\n        /* \"#utility.yul\":6544:6547   */\n      dup4\n        /* \"#utility.yul\":6540:6556   */\n      add\n        /* \"#utility.yul\":6533:6560   */\n      mstore\n        /* \"#utility.yul\":6412:6566   */\n      pop\n      pop\n      pop\n      jump\t// out\n        /* \"#utility.yul\":6572:6879   */\n    tag_204:\n        /* \"#utility.yul\":6640:6641   */\n      0x00\n        /* \"#utility.yul\":6650:6763   */\n    tag_251:\n        /* \"#utility.yul\":6664:6670   */\n      dup4\n        /* \"#utility.yul\":6661:6662   */\n      dup2\n        /* \"#utility.yul\":6658:6671   */\n      lt\n        /* \"#utility.yul\":6650:6763   */\n      iszero\n      tag_253\n      jumpi\n        /* \"#utility.yul\":6749:6750   */\n      dup1\n        /* \"#utility.yul\":6744:6747   */\n      dup3\n        /* \"#utility.yul\":6740:6751   */\n      add\n        /* \"#utility.yul\":6734:6752   */\n      mload\n        /* \"#utility.yul\":6730:6731   */\n      dup2\n        /* \"#utility.yul\":6725:6728   */\n      dup5\n        /* \"#utility.yul\":6721:6732   */\n      add\n        /* \"#utility.yul\":6714:6753   */\n      mstore\n        /* \"#utility.yul\":6686:6688   */\n      0x20\n        /* \"#utility.yul\":6683:6684   */\n      dup2\n        /* \"#utility.yul\":6679:6689   */\n      add\n        /* \"#utility.yul\":6674:6689   */\n      swap1\n      pop\n        /* \"#utility.yul\":6650:6763   */\n      jump(tag_251)\n    tag_253:\n        /* \"#utility.yul\":6781:6787   */\n      dup4\n        /* \"#utility.yul\":6778:6779   */\n      dup2\n        /* \"#utility.yul\":6775:6788   */\n      gt\n        /* \"#utility.yul\":6772:6873   */\n      iszero\n      tag_254\n      jumpi\n        /* \"#utility.yul\":6861:6862   */\n      0x00\n        /* \"#utility.yul\":6852:6858   */\n      dup5\n        /* \"#utility.yul\":6847:6850   */\n      dup5\n        /* \"#utility.yul\":6843:6859   */\n      add\n        /* \"#utility.yul\":6836:6863   */\n      mstore\n        /* \"#utility.yul\":6772:6873   */\n    tag_254:\n        /* \"#utility.yul\":6621:6879   */\n      pop\n        /* \"#utility.yul\":6572:6879   */\n      pop\n      pop\n      pop\n      jump\t// out\n        /* \"#utility.yul\":6885:7205   */\n    tag_74:\n        /* \"#utility.yul\":6929:6935   */\n      0x00\n        /* \"#utility.yul\":6966:6967   */\n      0x02\n        /* \"#utility.yul\":6960:6964   */\n      dup3\n        /* \"#utility.yul\":6956:6968   */\n      div\n        /* \"#utility.yul\":6946:6968   */\n      swap1\n      pop\n        /* \"#utility.yul\":7013:7014   */\n      0x01\n        /* \"#utility.yul\":7007:7011   */\n      dup3\n        /* \"#utility.yul\":7003:7015   */\n      and\n        /* \"#utility.yul\":7034:7052   */\n      dup1\n        /* \"#utility.yul\":7024:7105   */\n      tag_256\n      jumpi\n        /* \"#utility.yul\":7090:7094   */\n      0x7f\n        /* \"#utility.yul\":7082:7088   */\n      dup3\n        /* \"#utility.yul\":7078:7095   */\n      and\n        /* \"#utility.yul\":7068:7095   */\n      swap2\n      pop\n        /* \"#utility.yul\":7024:7105   */\n    tag_256:\n        /* \"#utility.yul\":7152:7154   */\n      0x20\n        /* \"#utility.yul\":7144:7150   */\n      dup3\n        /* \"#utility.yul\":7141:7155   */\n      lt\n        /* \"#utility.yul\":7121:7139   */\n      dup2\n        /* \"#utility.yul\":7118:7156   */\n      eq\n        /* \"#utility.yul\":7115:7199   */\n      iszero\n      tag_257\n      jumpi\n        /* \"#utility.yul\":7171:7189   */\n      tag_258\n      tag_259\n      jump\t// in\n    tag_258:\n        /* \"#utility.yul\":7115:7199   */\n    tag_257:\n        /* \"#utility.yul\":6936:7205   */\n      pop\n        /* \"#utility.yul\":6885:7205   */\n      swap2\n      swap1\n      pop\n      jump\t// out\n        /* \"#utility.yul\":7211:7492   */\n    tag_228:\n        /* \"#utility.yul\":7294:7321   */\n      tag_261\n        /* \"#utility.yul\":7316:7320   */\n      dup3\n        /* \"#utility.yul\":7294:7321   */\n      tag_206\n      jump\t// in\n    tag_261:\n        /* \"#utility.yul\":7286:7292   */\n      dup2\n        /* \"#utility.yul\":7282:7322   */\n      add\n        /* \"#utility.yul\":7424:7430   */\n      dup2\n        /* \"#utility.yul\":7412:7422   */\n      dup2\n        /* \"#utility.yul\":7409:7431   */\n      lt\n        /* \"#utility.yul\":7388:7406   */\n      0xffffffffffffffff\n        /* \"#utility.yul\":7376:7386   */\n      dup3\n        /* \"#utility.yul\":7373:7407   */\n      gt\n        /* \"#utility.yul\":7370:7432   */\n      or\n        /* \"#utility.yul\":7367:7455   */\n      iszero\n      tag_262\n      jumpi\n        /* \"#utility.yul\":7435:7453   */\n      tag_263\n      tag_233\n      jump\t// in\n    tag_263:\n        /* \"#utility.yul\":7367:7455   */\n    tag_262:\n        /* \"#utility.yul\":7475:7485   */\n      dup1\n        /* \"#utility.yul\":7471:7473   */\n      0x40\n        /* \"#utility.yul\":7464:7486   */\n      mstore\n        /* \"#utility.yul\":7254:7492   */\n      pop\n        /* \"#utility.yul\":7211:7492   */\n      pop\n      pop\n      jump\t// out\n        /* \"#utility.yul\":7498:7731   */\n    tag_95:\n        /* \"#utility.yul\":7537:7540   */\n      0x00\n        /* \"#utility.yul\":7560:7584   */\n      tag_265\n        /* \"#utility.yul\":7578:7583   */\n      dup3\n        /* \"#utility.yul\":7560:7584   */\n      tag_210\n      jump\t// in\n    tag_265:\n        /* \"#utility.yul\":7551:7584   */\n      swap2\n      pop\n        /* \"#utility.yul\":7606:7672   */\n      0xffffffffffffffffffffffffffffffffffffffffffffffffffffffffffffffff\n        /* \"#utility.yul\":7599:7604   */\n      dup3\n        /* \"#utility.yul\":7596:7673   */\n      eq\n        /* \"#utility.yul\":7593:7696   */\n      iszero\n      tag_266\n      jumpi\n        /* \"#utility.yul\":7676:7694   */\n      tag_267\n      tag_268\n      jump\t// in\n    tag_267:\n        /* \"#utility.yul\":7593:7696   */\n    tag_266:\n        /* \"#utility.yul\":7723:7724   */\n      0x01\n        /* \"#utility.yul\":7716:7721   */\n      dup3\n        /* \"#utility.yul\":7712:7725   */\n      add\n        /* \"#utility.yul\":7705:7725   */\n      swap1\n      pop\n        /* \"#utility.yul\":7498:7731   */\n      swap2\n      swap1\n      pop\n      jump\t// out\n        /* \"#utility.yul\":7737:7917   */\n    tag_268:\n        /* \"#utility.yul\":7785:7862   */\n      0x4e487b7100000000000000000000000000000000000000000000000000000000\n        /* \"#utility.yul\":7782:7783   */\n      0x00\n        /* \"#utility.yul\":7775:7863   */\n      mstore\n        /* \"#utility.yul\":7882:7886   */\n      0x11\n        /* \"#utility.yul\":7879:7880   */\n      0x04\n        /* \"#utility.yul\":7872:7887   */\n      mstore\n        /* \"#utility.yul\":7906:7910   */\n      0x24\n        /* \"#utility.yul\":7903:7904   */\n      0x00\n        /* \"#utility.yul\":7896:7911   */\n      revert\n        /* \"#utility.yul\":7923:8103   */\n    tag_64:\n        /* \"#utility.yul\":7971:8048   */\n      0x4e487b7100000000000000000000000000000000000000000000000000000000\n        /* \"#utility.yul\":7968:7969   */\n      0x00\n        /* \"#utility.yul\":7961:8049   */\n      mstore\n        /* \"#utility.yul\":8068:8072   */\n      0x21\n        /* \"#utility.yul\":8065:8066   */\n      0x04\n        /* \"#utility.yul\":8058:8073   */\n      mstore\n        /* \"#utility.yul\":8092:8096   */\n      0x24\n        /* \"#utility.yul\":8089:8090   */\n      0x00\n        /* \"#utility.yul\":8082:8097   */\n      revert\n        /* \"#utility.yul\":8109:8289   */\n    tag_259:\n        /* \"#utility.yul\":8157:8234   */\n      0x4e487b7100000000000000000000000000000000000000000000000000000000\n        /* \"#utility.yul\":8154:8155   */\n      0x00\n        /* \"#utility.yul\":8147:8235   */\n      mstore\n        /* \"#utility.yul\":8254:8258   */\n      0x22\n        /* \"#utility.yul\":8251:8252   */\n      0x04\n        /* \"#utility.yul\":8244:8259   */\n      mstore\n        /* \"#utility.yul\":8278:8282   */\n      0x24\n        /* \"#utility.yul\":8275:8276   */\n      0x00\n        /* \"#utility.yul\":8268:8283   */\n      revert\n        /* \"#utility.yul\":8295:8475   */\n    tag_233:\n        /* \"#utility.yul\":8343:8420   */\n      0x4e487b7100000000000000000000000000000000000000000000000000000000\n        /* \"#utility.yul\":8340:8341   */\n      0x00\n        /* \"#utility.yul\":8333:8421   */\n      mstore\n        /* \"#utility.yul\":8440:8444   */\n      0x41\n        /* \"#utility.yul\":8437:8438   */\n      0x04\n        /* \"#utility.yul\":8430:8445   */\n      mstore\n        /* \"#utility.yul\":8464:8468   */\n      0x24\n        /* \"#utility.yul\":8461:8462   */\n      0x00\n        /* \"#utility.yul\":8454:8469   */\n      revert\n        /* \"#utility.yul\":8481:8598   */\n    tag_166:\n        /* \"#utility.yul\":8590:8591   */\n      0x00\n        /* \"#utility.yul\":8587:8588   */\n      dup1\n        /* \"#utility.yul\":8580:8592   */\n      revert\n        /* \"#utility.yul\":8604:8721   */\n    tag_151:\n        /* \"#utility.yul\":8713:8714   */\n      0x00\n        /* \"#utility.yul\":8710:8711   */\n      dup1\n        /* \"#utility.yul\":8703:8715   */\n      revert\n        /* \"#utility.yul\":8727:8844   */\n    tag_179:\n        /* \"#utility.yul\":8836:8837   */\n      0x00\n        /* \"#utility.yul\":8833:8834   */\n      dup1\n        /* \"#utility.yul\":8826:8838   */\n      revert\n        /* \"#utility.yul\":8850:8967   */\n    tag_171:\n        /* \"#utility.yul\":8959:8960   */\n      0x00\n        /* \"#utility.yul\":8956:8957   */\n      dup1\n        /* \"#utility.yul\":8949:8961   */\n      revert\n        /* \"#utility.yul\":8973:9075   */\n    tag_206:\n        /* \"#utility.yul\":9014:9020   */\n      0x00\n        /* \"#utility.yul\":9065:9067   */\n      0x1f\n        /* \"#utility.yul\":9061:9068   */\n      not\n        /* \"#utility.yul\":9056:9058   */\n      0x1f\n        /* \"#utility.yul\":9049:9054   */\n      dup4\n        /* \"#utility.yul\":9045:9059   */\n      add\n        /* \"#utility.yul\":9041:9069   */\n      and\n        /* \"#utility.yul\":9031:9069   */\n      swap1\n      pop\n        /* \"#utility.yul\":8973:9075   */\n      swap2\n      swap1\n      pop\n      jump\t// out\n        /* \"#utility.yul\":9081:9194   */\n    tag_244:\n        /* \"#utility.yul\":9162:9163   */\n      0x03\n        /* \"#utility.yul\":9155:9160   */\n      dup2\n        /* \"#utility.yul\":9152:9164   */\n      lt\n        /* \"#utility.yul\":9142:9188   */\n      tag_279\n      jumpi\n        /* \"#utility.yul\":9168:9186   */\n      tag_280\n      tag_64\n      jump\t// in\n    tag_280:\n        /* \"#utility.yul\":9142:9188   */\n    tag_279:\n        /* \"#utility.yul\":9081:9194   */\n      pop\n      jump\t// out\n        /* \"#utility.yul\":9200:9322   */\n    tag_157:\n        /* \"#utility.yul\":9273:9297   */\n      tag_282\n        /* \"#utility.yul\":9291:9296   */\n      dup2\n        /* \"#utility.yul\":9273:9297   */\n      tag_188\n      jump\t// in\n    tag_282:\n        /* \"#utility.yul\":9266:9271   */\n      dup2\n        /* \"#utility.yul\":9263:9298   */\n      eq\n        /* \"#utility.yul\":9253:9316   */\n      tag_283\n      jumpi\n        /* \"#utility.yul\":9312:9313   */\n      0x00\n        /* \"#utility.yul\":9309:9310   */\n      dup1\n        /* \"#utility.yul\":9302:9314   */\n      revert\n        /* \"#utility.yul\":9253:9316   */\n    tag_283:\n        /* \"#utility.yul\":9200:9322   */\n      pop\n      jump\t// out\n        /* \"#utility.yul\":9328:9444   */\n    tag_161:\n        /* \"#utility.yul\":9398:9419   */\n      tag_285\n        /* \"#utility.yul\":9413:9418   */\n      dup2\n        /* \"#utility.yul\":9398:9419   */\n      tag_192\n      jump\t// in\n    tag_285:\n        /* \"#utility.yul\":9391:9396   */\n      dup2\n        /* \"#utility.yul\":9388:9420   */\n      eq\n        /* \"#utility.yul\":9378:9438   */\n      tag_286\n      jumpi\n        /* \"#utility.yul\":9434:9435   */\n      0x00\n        /* \"#utility.yul\":9431:9432   */\n      dup1\n        /* \"#utility.yul\":9424:9436   */\n      revert\n        /* \"#utility.yul\":9378:9438   */\n    tag_286:\n        /* \"#utility.yul\":9328:9444   */\n      pop\n      jump\t// out\n\n    auxdata: 0xa2646970667358221220b4874cde01824a6bb0fdb78b71c626324492491f3358981266d10c942392294064736f6c63430008070033\n}\n",
				"bytecode": {
					"linkReferences": {},
					"object": "6080604052600080556000600155600060025560006003553480156200002457600080fd5b50604051620014f4380380620014f483398181016040528101906200004a919062000221565b33600460006101000a81548173ffffffffffffffffffffffffffffffffffffffff021916908373ffffffffffffffffffffffffffffffffffffffff1602179055508160059080519060200190620000a3929190620000f3565b508060069080519060200190620000bc929190620000f3565b506000600960006101000a81548160ff02191690836002811115620000e657620000e5620003a7565b5b0217905550505062000459565b82805462000101906200033b565b90600052602060002090601f01602090048101928262000125576000855562000171565b82601f106200014057805160ff191683800117855562000171565b8280016001018555821562000171579182015b828111156200017057825182559160200191906001019062000153565b5b50905062000180919062000184565b5090565b5b808211156200019f57600081600090555060010162000185565b5090565b6000620001ba620001b484620002cf565b620002a6565b905082815260208101848484011115620001d957620001d862000439565b5b620001e684828562000305565b509392505050565b600082601f83011262000206576200020562000434565b5b815162000218848260208601620001a3565b91505092915050565b600080604083850312156200023b576200023a62000443565b5b600083015167ffffffffffffffff8111156200025c576200025b6200043e565b5b6200026a85828601620001ee565b925050602083015167ffffffffffffffff8111156200028e576200028d6200043e565b5b6200029c85828601620001ee565b9150509250929050565b6000620002b2620002c5565b9050620002c0828262000371565b919050565b6000604051905090565b600067ffffffffffffffff821115620002ed57620002ec62000405565b5b620002f88262000448565b9050602081019050919050565b60005b838110156200032557808201518184015260208101905062000308565b8381111562000335576000848401525b50505050565b600060028204905060018216806200035457607f821691505b602082108114156200036b576200036a620003d6565b5b50919050565b6200037c8262000448565b810181811067ffffffffffffffff821117156200039e576200039d62000405565b5b80604052505050565b7f4e487b7100000000000000000000000000000000000000000000000000000000600052602160045260246000fd5b7f4e487b7100000000000000000000000000000000000000000000000000000000600052602260045260246000fd5b7f4e487b7100000000000000000000000000000000000000000000000000000000600052604160045260246000fd5b600080fd5b600080fd5b600080fd5b600080fd5b6000601f19601f8301169050919050565b61108b80620004696000396000f3fe608060405234801561001057600080fd5b50600436106100b45760003560e01c8063b922394611610071578063b92239461461017e578063c19d93fb14610188578063d9e95a98146101a6578063de975d18146101c2578063f1cea4c7146101e0578063f3a8286f146101fe576100b4565b80634c0a6af0146100b95780636332abc9146100c3578063753ec103146100e157806387caea78146100ff578063909497471461012f578063af1540871461014d575b600080fd5b6100c161021c565b005b6100cb6102e5565b6040516100d89190610d4a565b60405180910390f35b6100e96102eb565b6040516100f69190610cf8565b60405180910390f35b61011960048036038101906101149190610c05565b610379565b6040516101269190610cc2565b60405180910390f35b610137610638565b6040516101449190610ca7565b60405180910390f35b61016760048036038101906101629190610b7c565b61065e565b604051610175929190610d1a565b60405180910390f35b610186610717565b005b6101906107e9565b60405161019d9190610cdd565b60405180910390f35b6101c060048036038101906101bb9190610ba9565b6107fc565b005b6101ca610957565b6040516101d79190610cf8565b60405180910390f35b6101e86109e5565b6040516101f59190610d4a565b60405180910390f35b6102066109eb565b6040516102139190610d4a565b60405180910390f35b600080600281111561023157610230610f61565b5b600960009054906101000a900460ff16600281111561025357610252610f61565b5b1461025d57600080fd5b600460009054906101000a900473ffffffffffffffffffffffffffffffffffffffff1673ffffffffffffffffffffffffffffffffffffffff163373ffffffffffffffffffffffffffffffffffffffff16146102b757600080fd5b6001600960006101000a81548160ff021916908360028111156102dd576102dc610f61565b5b021790555050565b60025481565b600680546102f890610e86565b80601f016020809104026020016040519081016040528092919081815260200182805461032490610e86565b80156103715780601f1061034657610100808354040283529160200191610371565b820191906000526020600020905b81548152906001019060200180831161035457829003601f168201915b505050505081565b60008080600281111561038f5761038e610f61565b5b600960009054906101000a900460ff1660028111156103b1576103b0610f61565b5b146103bb57600080fd5b600460009054906101000a900473ffffffffffffffffffffffffffffffffffffffff1673ffffffffffffffffffffffffffffffffffffffff163373ffffffffffffffffffffffffffffffffffffffff161461041557600080fd5b600080600860003373ffffffffffffffffffffffffffffffffffffffff1673ffffffffffffffffffffffffffffffffffffffff168152602001908152602001600020600001805461046590610e86565b9050141580156104c25750600860003373ffffffffffffffffffffffffffffffffffffffff1673ffffffffffffffffffffffffffffffffffffffff16815260200190815260200160002060010160009054906101000a900460ff16155b1561062e576001600860003373ffffffffffffffffffffffffffffffffffffffff1673ffffffffffffffffffffffffffffffffffffffff16815260200190815260200160002060010160006101000a81548160ff02191690831515021790555061052a6109f1565b33816000019073ffffffffffffffffffffffffffffffffffffffff16908173ffffffffffffffffffffffffffffffffffffffff16815250508481602001901515908115158152505084156105905760008081548092919061058a90610ee9565b91905055505b8060076000600354815260200190815260200160002060008201518160000160006101000a81548173ffffffffffffffffffffffffffffffffffffffff021916908373ffffffffffffffffffffffffffffffffffffffff16021790555060208201518160000160146101000a81548160ff0219169083151502179055509050506003600081548092919061062390610ee9565b919050555060019150505b8092505050919050565b600460009054906101000a900473ffffffffffffffffffffffffffffffffffffffff1681565b600860205280600052604060002060009150905080600001805461068190610e86565b80601f01602080910402602001604051908101604052809291908181526020018280546106ad90610e86565b80156106fa5780601f106106cf576101008083540402835291602001916106fa565b820191906000526020600020905b8154815290600101906020018083116106dd57829003601f168201915b5050505050908060010160009054906101000a900460ff16905082565b600180600281111561072c5761072b610f61565b5b600960009054906101000a900460ff16600281111561074e5761074d610f61565b5b1461075857600080fd5b600460009054906101000a900473ffffffffffffffffffffffffffffffffffffffff1673ffffffffffffffffffffffffffffffffffffffff163373ffffffffffffffffffffffffffffffffffffffff16146107b257600080fd5b6002600960006101000a81548160ff021916908360028111156107d8576107d7610f61565b5b021790555060005460018190555050565b600960009054906101000a900460ff1681565b600080600281111561081157610810610f61565b5b600960009054906101000a900460ff16600281111561083357610832610f61565b5b1461083d57600080fd5b600460009054906101000a900473ffffffffffffffffffffffffffffffffffffffff1673ffffffffffffffffffffffffffffffffffffffff163373ffffffffffffffffffffffffffffffffffffffff161461089757600080fd5b61089f610a23565b828160000181905250600081602001901515908115158152505080600860008673ffffffffffffffffffffffffffffffffffffffff1673ffffffffffffffffffffffffffffffffffffffff1681526020019081526020016000206000820151816000019080519060200190610915929190610a3f565b5060208201518160010160006101000a81548160ff0219169083151502179055509050506002600081548092919061094c90610ee9565b919050555050505050565b6005805461096490610e86565b80601f016020809104026020016040519081016040528092919081815260200182805461099090610e86565b80156109dd5780601f106109b2576101008083540402835291602001916109dd565b820191906000526020600020905b8154815290600101906020018083116109c057829003601f168201915b505050505081565b60035481565b60015481565b6040518060400160405280600073ffffffffffffffffffffffffffffffffffffffff1681526020016000151581525090565b6040518060400160405280606081526020016000151581525090565b828054610a4b90610e86565b90600052602060002090601f016020900481019282610a6d5760008555610ab4565b82601f10610a8657805160ff1916838001178555610ab4565b82800160010185558215610ab4579182015b82811115610ab3578251825591602001919060010190610a98565b5b509050610ac19190610ac5565b5090565b5b80821115610ade576000816000905550600101610ac6565b5090565b6000610af5610af084610d8a565b610d65565b905082815260208101848484011115610b1157610b10610ff3565b5b610b1c848285610e44565b509392505050565b600081359050610b3381611027565b92915050565b600081359050610b488161103e565b92915050565b600082601f830112610b6357610b62610fee565b5b8135610b73848260208601610ae2565b91505092915050565b600060208284031215610b9257610b91610ffd565b5b6000610ba084828501610b24565b91505092915050565b60008060408385031215610bc057610bbf610ffd565b5b6000610bce85828601610b24565b925050602083013567ffffffffffffffff811115610bef57610bee610ff8565b5b610bfb85828601610b4e565b9150509250929050565b600060208284031215610c1b57610c1a610ffd565b5b6000610c2984828501610b39565b91505092915050565b610c3b81610dd7565b82525050565b610c4a81610de9565b82525050565b610c5981610e32565b82525050565b6000610c6a82610dbb565b610c748185610dc6565b9350610c84818560208601610e53565b610c8d81611002565b840191505092915050565b610ca181610e28565b82525050565b6000602082019050610cbc6000830184610c32565b92915050565b6000602082019050610cd76000830184610c41565b92915050565b6000602082019050610cf26000830184610c50565b92915050565b60006020820190508181036000830152610d128184610c5f565b905092915050565b60006040820190508181036000830152610d348185610c5f565b9050610d436020830184610c41565b9392505050565b6000602082019050610d5f6000830184610c98565b92915050565b6000610d6f610d80565b9050610d7b8282610eb8565b919050565b6000604051905090565b600067ffffffffffffffff821115610da557610da4610fbf565b5b610dae82611002565b9050602081019050919050565b600081519050919050565b600082825260208201905092915050565b6000610de282610e08565b9050919050565b60008115159050919050565b6000819050610e0382611013565b919050565b600073ffffffffffffffffffffffffffffffffffffffff82169050919050565b6000819050919050565b6000610e3d82610df5565b9050919050565b82818337600083830152505050565b60005b83811015610e71578082015181840152602081019050610e56565b83811115610e80576000848401525b50505050565b60006002820490506001821680610e9e57607f821691505b60208210811415610eb257610eb1610f90565b5b50919050565b610ec182611002565b810181811067ffffffffffffffff82111715610ee057610edf610fbf565b5b80604052505050565b6000610ef482610e28565b91507fffffffffffffffffffffffffffffffffffffffffffffffffffffffffffffffff821415610f2757610f26610f32565b5b600182019050919050565b7f4e487b7100000000000000000000000000000000000000000000000000000000600052601160045260246000fd5b7f4e487b7100000000000000000000000000000000000000000000000000000000600052602160045260246000fd5b7f4e487b7100000000000000000000000000000000000000000000000000000000600052602260045260246000fd5b7f4e487b7100000000000000000000000000000000000000000000000000000000600052604160045260246000fd5b600080fd5b600080fd5b600080fd5b600080fd5b6000601f19601f8301169050919050565b6003811061102457611023610f61565b5b50565b61103081610dd7565b811461103b57600080fd5b50565b61104781610de9565b811461105257600080fd5b5056fea2646970667358221220b4874cde01824a6bb0fdb78b71c626324492491f3358981266d10c942392294064736f6c63430008070033",
					"opcodes": "PUSH1 0x80 PUSH1 0x40 MSTORE PUSH1 0x0 DUP1 SSTORE PUSH1 0x0 PUSH1 0x1 SSTORE PUSH1 0x0 PUSH1 0x2 SSTORE PUSH1 0x0 PUSH1 0x3 SSTORE CALLVALUE DUP1 ISZERO PUSH3 0x24 JUMPI PUSH1 0x0 DUP1 REVERT JUMPDEST POP PUSH1 0x40 MLOAD PUSH3 0x14F4 CODESIZE SUB DUP1 PUSH3 0x14F4 DUP4 CODECOPY DUP2 DUP2 ADD PUSH1 0x40 MSTORE DUP2 ADD SWAP1 PUSH3 0x4A SWAP2 SWAP1 PUSH3 0x221 JUMP JUMPDEST CALLER PUSH1 0x4 PUSH1 0x0 PUSH2 0x100 EXP DUP2 SLOAD DUP2 PUSH20 0xFFFFFFFFFFFFFFFFFFFFFFFFFFFFFFFFFFFFFFFF MUL NOT AND SWAP1 DUP4 PUSH20 0xFFFFFFFFFFFFFFFFFFFFFFFFFFFFFFFFFFFFFFFF AND MUL OR SWAP1 SSTORE POP DUP2 PUSH1 0x5 SWAP1 DUP1 MLOAD SWAP1 PUSH1 0x20 ADD SWAP1 PUSH3 0xA3 SWAP3 SWAP2 SWAP1 PUSH3 0xF3 JUMP JUMPDEST POP DUP1 PUSH1 0x6 SWAP1 DUP1 MLOAD SWAP1 PUSH1 0x20 ADD SWAP1 PUSH3 0xBC SWAP3 SWAP2 SWAP1 PUSH3 0xF3 JUMP JUMPDEST POP PUSH1 0x0 PUSH1 0x9 PUSH1 0x0 PUSH2 0x100 EXP DUP2 SLOAD DUP2 PUSH1 0xFF MUL NOT AND SWAP1 DUP4 PUSH1 0x2 DUP2 GT ISZERO PUSH3 0xE6 JUMPI PUSH3 0xE5 PUSH3 0x3A7 JUMP JUMPDEST JUMPDEST MUL OR SWAP1 SSTORE POP POP POP PUSH3 0x459 JUMP JUMPDEST DUP3 DUP1 SLOAD PUSH3 0x101 SWAP1 PUSH3 0x33B JUMP JUMPDEST SWAP1 PUSH1 0x0 MSTORE PUSH1 0x20 PUSH1 0x0 KECCAK256 SWAP1 PUSH1 0x1F ADD PUSH1 0x20 SWAP1 DIV DUP2 ADD SWAP3 DUP3 PUSH3 0x125 JUMPI PUSH1 0x0 DUP6 SSTORE PUSH3 0x171 JUMP JUMPDEST DUP3 PUSH1 0x1F LT PUSH3 0x140 JUMPI DUP1 MLOAD PUSH1 0xFF NOT AND DUP4 DUP1 ADD OR DUP6 SSTORE PUSH3 0x171 JUMP JUMPDEST DUP3 DUP1 ADD PUSH1 0x1 ADD DUP6 SSTORE DUP3 ISZERO PUSH3 0x171 JUMPI SWAP2 DUP3 ADD JUMPDEST DUP3 DUP2 GT ISZERO PUSH3 0x170 JUMPI DUP3 MLOAD DUP3 SSTORE SWAP2 PUSH1 0x20 ADD SWAP2 SWAP1 PUSH1 0x1 ADD SWAP1 PUSH3 0x153 JUMP JUMPDEST JUMPDEST POP SWAP1 POP PUSH3 0x180 SWAP2 SWAP1 PUSH3 0x184 JUMP JUMPDEST POP SWAP1 JUMP JUMPDEST JUMPDEST DUP1 DUP3 GT ISZERO PUSH3 0x19F JUMPI PUSH1 0x0 DUP2 PUSH1 0x0 SWAP1 SSTORE POP PUSH1 0x1 ADD PUSH3 0x185 JUMP JUMPDEST POP SWAP1 JUMP JUMPDEST PUSH1 0x0 PUSH3 0x1BA PUSH3 0x1B4 DUP5 PUSH3 0x2CF JUMP JUMPDEST PUSH3 0x2A6 JUMP JUMPDEST SWAP1 POP DUP3 DUP2 MSTORE PUSH1 0x20 DUP2 ADD DUP5 DUP5 DUP5 ADD GT ISZERO PUSH3 0x1D9 JUMPI PUSH3 0x1D8 PUSH3 0x439 JUMP JUMPDEST JUMPDEST PUSH3 0x1E6 DUP5 DUP3 DUP6 PUSH3 0x305 JUMP JUMPDEST POP SWAP4 SWAP3 POP POP POP JUMP JUMPDEST PUSH1 0x0 DUP3 PUSH1 0x1F DUP4 ADD SLT PUSH3 0x206 JUMPI PUSH3 0x205 PUSH3 0x434 JUMP JUMPDEST JUMPDEST DUP2 MLOAD PUSH3 0x218 DUP5 DUP3 PUSH1 0x20 DUP7 ADD PUSH3 0x1A3 JUMP JUMPDEST SWAP2 POP POP SWAP3 SWAP2 POP POP JUMP JUMPDEST PUSH1 0x0 DUP1 PUSH1 0x40 DUP4 DUP6 SUB SLT ISZERO PUSH3 0x23B JUMPI PUSH3 0x23A PUSH3 0x443 JUMP JUMPDEST JUMPDEST PUSH1 0x0 DUP4 ADD MLOAD PUSH8 0xFFFFFFFFFFFFFFFF DUP2 GT ISZERO PUSH3 0x25C JUMPI PUSH3 0x25B PUSH3 0x43E JUMP JUMPDEST JUMPDEST PUSH3 0x26A DUP6 DUP3 DUP7 ADD PUSH3 0x1EE JUMP JUMPDEST SWAP3 POP POP PUSH1 0x20 DUP4 ADD MLOAD PUSH8 0xFFFFFFFFFFFFFFFF DUP2 GT ISZERO PUSH3 0x28E JUMPI PUSH3 0x28D PUSH3 0x43E JUMP JUMPDEST JUMPDEST PUSH3 0x29C DUP6 DUP3 DUP7 ADD PUSH3 0x1EE JUMP JUMPDEST SWAP2 POP POP SWAP3 POP SWAP3 SWAP1 POP JUMP JUMPDEST PUSH1 0x0 PUSH3 0x2B2 PUSH3 0x2C5 JUMP JUMPDEST SWAP1 POP PUSH3 0x2C0 DUP3 DUP3 PUSH3 0x371 JUMP JUMPDEST SWAP2 SWAP1 POP JUMP JUMPDEST PUSH1 0x0 PUSH1 0x40 MLOAD SWAP1 POP SWAP1 JUMP JUMPDEST PUSH1 0x0 PUSH8 0xFFFFFFFFFFFFFFFF DUP3 GT ISZERO PUSH3 0x2ED JUMPI PUSH3 0x2EC PUSH3 0x405 JUMP JUMPDEST JUMPDEST PUSH3 0x2F8 DUP3 PUSH3 0x448 JUMP JUMPDEST SWAP1 POP PUSH1 0x20 DUP2 ADD SWAP1 POP SWAP2 SWAP1 POP JUMP JUMPDEST PUSH1 0x0 JUMPDEST DUP4 DUP2 LT ISZERO PUSH3 0x325 JUMPI DUP1 DUP3 ADD MLOAD DUP2 DUP5 ADD MSTORE PUSH1 0x20 DUP2 ADD SWAP1 POP PUSH3 0x308 JUMP JUMPDEST DUP4 DUP2 GT ISZERO PUSH3 0x335 JUMPI PUSH1 0x0 DUP5 DUP5 ADD MSTORE JUMPDEST POP POP POP POP JUMP JUMPDEST PUSH1 0x0 PUSH1 0x2 DUP3 DIV SWAP1 POP PUSH1 0x1 DUP3 AND DUP1 PUSH3 0x354 JUMPI PUSH1 0x7F DUP3 AND SWAP2 POP JUMPDEST PUSH1 0x20 DUP3 LT DUP2 EQ ISZERO PUSH3 0x36B JUMPI PUSH3 0x36A PUSH3 0x3D6 JUMP JUMPDEST JUMPDEST POP SWAP2 SWAP1 POP JUMP JUMPDEST PUSH3 0x37C DUP3 PUSH3 0x448 JUMP JUMPDEST DUP2 ADD DUP2 DUP2 LT PUSH8 0xFFFFFFFFFFFFFFFF DUP3 GT OR ISZERO PUSH3 0x39E JUMPI PUSH3 0x39D PUSH3 0x405 JUMP JUMPDEST JUMPDEST DUP1 PUSH1 0x40 MSTORE POP POP POP JUMP JUMPDEST PUSH32 0x4E487B7100000000000000000000000000000000000000000000000000000000 PUSH1 0x0 MSTORE PUSH1 0x21 PUSH1 0x4 MSTORE PUSH1 0x24 PUSH1 0x0 REVERT JUMPDEST PUSH32 0x4E487B7100000000000000000000000000000000000000000000000000000000 PUSH1 0x0 MSTORE PUSH1 0x22 PUSH1 0x4 MSTORE PUSH1 0x24 PUSH1 0x0 REVERT JUMPDEST PUSH32 0x4E487B7100000000000000000000000000000000000000000000000000000000 PUSH1 0x0 MSTORE PUSH1 0x41 PUSH1 0x4 MSTORE PUSH1 0x24 PUSH1 0x0 REVERT JUMPDEST PUSH1 0x0 DUP1 REVERT JUMPDEST PUSH1 0x0 DUP1 REVERT JUMPDEST PUSH1 0x0 DUP1 REVERT JUMPDEST PUSH1 0x0 DUP1 REVERT JUMPDEST PUSH1 0x0 PUSH1 0x1F NOT PUSH1 0x1F DUP4 ADD AND SWAP1 POP SWAP2 SWAP1 POP JUMP JUMPDEST PUSH2 0x108B DUP1 PUSH3 0x469 PUSH1 0x0 CODECOPY PUSH1 0x0 RETURN INVALID PUSH1 0x80 PUSH1 0x40 MSTORE CALLVALUE DUP1 ISZERO PUSH2 0x10 JUMPI PUSH1 0x0 DUP1 REVERT JUMPDEST POP PUSH1 0x4 CALLDATASIZE LT PUSH2 0xB4 JUMPI PUSH1 0x0 CALLDATALOAD PUSH1 0xE0 SHR DUP1 PUSH4 0xB9223946 GT PUSH2 0x71 JUMPI DUP1 PUSH4 0xB9223946 EQ PUSH2 0x17E JUMPI DUP1 PUSH4 0xC19D93FB EQ PUSH2 0x188 JUMPI DUP1 PUSH4 0xD9E95A98 EQ PUSH2 0x1A6 JUMPI DUP1 PUSH4 0xDE975D18 EQ PUSH2 0x1C2 JUMPI DUP1 PUSH4 0xF1CEA4C7 EQ PUSH2 0x1E0 JUMPI DUP1 PUSH4 0xF3A8286F EQ PUSH2 0x1FE JUMPI PUSH2 0xB4 JUMP JUMPDEST DUP1 PUSH4 0x4C0A6AF0 EQ PUSH2 0xB9 JUMPI DUP1 PUSH4 0x6332ABC9 EQ PUSH2 0xC3 JUMPI DUP1 PUSH4 0x753EC103 EQ PUSH2 0xE1 JUMPI DUP1 PUSH4 0x87CAEA78 EQ PUSH2 0xFF JUMPI DUP1 PUSH4 0x90949747 EQ PUSH2 0x12F JUMPI DUP1 PUSH4 0xAF154087 EQ PUSH2 0x14D JUMPI JUMPDEST PUSH1 0x0 DUP1 REVERT JUMPDEST PUSH2 0xC1 PUSH2 0x21C JUMP JUMPDEST STOP JUMPDEST PUSH2 0xCB PUSH2 0x2E5 JUMP JUMPDEST PUSH1 0x40 MLOAD PUSH2 0xD8 SWAP2 SWAP1 PUSH2 0xD4A JUMP JUMPDEST PUSH1 0x40 MLOAD DUP1 SWAP2 SUB SWAP1 RETURN JUMPDEST PUSH2 0xE9 PUSH2 0x2EB JUMP JUMPDEST PUSH1 0x40 MLOAD PUSH2 0xF6 SWAP2 SWAP1 PUSH2 0xCF8 JUMP JUMPDEST PUSH1 0x40 MLOAD DUP1 SWAP2 SUB SWAP1 RETURN JUMPDEST PUSH2 0x119 PUSH1 0x4 DUP1 CALLDATASIZE SUB DUP2 ADD SWAP1 PUSH2 0x114 SWAP2 SWAP1 PUSH2 0xC05 JUMP JUMPDEST PUSH2 0x379 JUMP JUMPDEST PUSH1 0x40 MLOAD PUSH2 0x126 SWAP2 SWAP1 PUSH2 0xCC2 JUMP JUMPDEST PUSH1 0x40 MLOAD DUP1 SWAP2 SUB SWAP1 RETURN JUMPDEST PUSH2 0x137 PUSH2 0x638 JUMP JUMPDEST PUSH1 0x40 MLOAD PUSH2 0x144 SWAP2 SWAP1 PUSH2 0xCA7 JUMP JUMPDEST PUSH1 0x40 MLOAD DUP1 SWAP2 SUB SWAP1 RETURN JUMPDEST PUSH2 0x167 PUSH1 0x4 DUP1 CALLDATASIZE SUB DUP2 ADD SWAP1 PUSH2 0x162 SWAP2 SWAP1 PUSH2 0xB7C JUMP JUMPDEST PUSH2 0x65E JUMP JUMPDEST PUSH1 0x40 MLOAD PUSH2 0x175 SWAP3 SWAP2 SWAP1 PUSH2 0xD1A JUMP JUMPDEST PUSH1 0x40 MLOAD DUP1 SWAP2 SUB SWAP1 RETURN JUMPDEST PUSH2 0x186 PUSH2 0x717 JUMP JUMPDEST STOP JUMPDEST PUSH2 0x190 PUSH2 0x7E9 JUMP JUMPDEST PUSH1 0x40 MLOAD PUSH2 0x19D SWAP2 SWAP1 PUSH2 0xCDD JUMP JUMPDEST PUSH1 0x40 MLOAD DUP1 SWAP2 SUB SWAP1 RETURN JUMPDEST PUSH2 0x1C0 PUSH1 0x4 DUP1 CALLDATASIZE SUB DUP2 ADD SWAP1 PUSH2 0x1BB SWAP2 SWAP1 PUSH2 0xBA9 JUMP JUMPDEST PUSH2 0x7FC JUMP JUMPDEST STOP JUMPDEST PUSH2 0x1CA PUSH2 0x957 JUMP JUMPDEST PUSH1 0x40 MLOAD PUSH2 0x1D7 SWAP2 SWAP1 PUSH2 0xCF8 JUMP JUMPDEST PUSH1 0x40 MLOAD DUP1 SWAP2 SUB SWAP1 RETURN JUMPDEST PUSH2 0x1E8 PUSH2 0x9E5 JUMP JUMPDEST PUSH1 0x40 MLOAD PUSH2 0x1F5 SWAP2 SWAP1 PUSH2 0xD4A JUMP JUMPDEST PUSH1 0x40 MLOAD DUP1 SWAP2 SUB SWAP1 RETURN JUMPDEST PUSH2 0x206 PUSH2 0x9EB JUMP JUMPDEST PUSH1 0x40 MLOAD PUSH2 0x213 SWAP2 SWAP1 PUSH2 0xD4A JUMP JUMPDEST PUSH1 0x40 MLOAD DUP1 SWAP2 SUB SWAP1 RETURN JUMPDEST PUSH1 0x0 DUP1 PUSH1 0x2 DUP2 GT ISZERO PUSH2 0x231 JUMPI PUSH2 0x230 PUSH2 0xF61 JUMP JUMPDEST JUMPDEST PUSH1 0x9 PUSH1 0x0 SWAP1 SLOAD SWAP1 PUSH2 0x100 EXP SWAP1 DIV PUSH1 0xFF AND PUSH1 0x2 DUP2 GT ISZERO PUSH2 0x253 JUMPI PUSH2 0x252 PUSH2 0xF61 JUMP JUMPDEST JUMPDEST EQ PUSH2 0x25D JUMPI PUSH1 0x0 DUP1 REVERT JUMPDEST PUSH1 0x4 PUSH1 0x0 SWAP1 SLOAD SWAP1 PUSH2 0x100 EXP SWAP1 DIV PUSH20 0xFFFFFFFFFFFFFFFFFFFFFFFFFFFFFFFFFFFFFFFF AND PUSH20 0xFFFFFFFFFFFFFFFFFFFFFFFFFFFFFFFFFFFFFFFF AND CALLER PUSH20 0xFFFFFFFFFFFFFFFFFFFFFFFFFFFFFFFFFFFFFFFF AND EQ PUSH2 0x2B7 JUMPI PUSH1 0x0 DUP1 REVERT JUMPDEST PUSH1 0x1 PUSH1 0x9 PUSH1 0x0 PUSH2 0x100 EXP DUP2 SLOAD DUP2 PUSH1 0xFF MUL NOT AND SWAP1 DUP4 PUSH1 0x2 DUP2 GT ISZERO PUSH2 0x2DD JUMPI PUSH2 0x2DC PUSH2 0xF61 JUMP JUMPDEST JUMPDEST MUL OR SWAP1 SSTORE POP POP JUMP JUMPDEST PUSH1 0x2 SLOAD DUP2 JUMP JUMPDEST PUSH1 0x6 DUP1 SLOAD PUSH2 0x2F8 SWAP1 PUSH2 0xE86 JUMP JUMPDEST DUP1 PUSH1 0x1F ADD PUSH1 0x20 DUP1 SWAP2 DIV MUL PUSH1 0x20 ADD PUSH1 0x40 MLOAD SWAP1 DUP2 ADD PUSH1 0x40 MSTORE DUP1 SWAP3 SWAP2 SWAP1 DUP2 DUP2 MSTORE PUSH1 0x20 ADD DUP3 DUP1 SLOAD PUSH2 0x324 SWAP1 PUSH2 0xE86 JUMP JUMPDEST DUP1 ISZERO PUSH2 0x371 JUMPI DUP1 PUSH1 0x1F LT PUSH2 0x346 JUMPI PUSH2 0x100 DUP1 DUP4 SLOAD DIV MUL DUP4 MSTORE SWAP2 PUSH1 0x20 ADD SWAP2 PUSH2 0x371 JUMP JUMPDEST DUP3 ADD SWAP2 SWAP1 PUSH1 0x0 MSTORE PUSH1 0x20 PUSH1 0x0 KECCAK256 SWAP1 JUMPDEST DUP2 SLOAD DUP2 MSTORE SWAP1 PUSH1 0x1 ADD SWAP1 PUSH1 0x20 ADD DUP1 DUP4 GT PUSH2 0x354 JUMPI DUP3 SWAP1 SUB PUSH1 0x1F AND DUP3 ADD SWAP2 JUMPDEST POP POP POP POP POP DUP2 JUMP JUMPDEST PUSH1 0x0 DUP1 DUP1 PUSH1 0x2 DUP2 GT ISZERO PUSH2 0x38F JUMPI PUSH2 0x38E PUSH2 0xF61 JUMP JUMPDEST JUMPDEST PUSH1 0x9 PUSH1 0x0 SWAP1 SLOAD SWAP1 PUSH2 0x100 EXP SWAP1 DIV PUSH1 0xFF AND PUSH1 0x2 DUP2 GT ISZERO PUSH2 0x3B1 JUMPI PUSH2 0x3B0 PUSH2 0xF61 JUMP JUMPDEST JUMPDEST EQ PUSH2 0x3BB JUMPI PUSH1 0x0 DUP1 REVERT JUMPDEST PUSH1 0x4 PUSH1 0x0 SWAP1 SLOAD SWAP1 PUSH2 0x100 EXP SWAP1 DIV PUSH20 0xFFFFFFFFFFFFFFFFFFFFFFFFFFFFFFFFFFFFFFFF AND PUSH20 0xFFFFFFFFFFFFFFFFFFFFFFFFFFFFFFFFFFFFFFFF AND CALLER PUSH20 0xFFFFFFFFFFFFFFFFFFFFFFFFFFFFFFFFFFFFFFFF AND EQ PUSH2 0x415 JUMPI PUSH1 0x0 DUP1 REVERT JUMPDEST PUSH1 0x0 DUP1 PUSH1 0x8 PUSH1 0x0 CALLER PUSH20 0xFFFFFFFFFFFFFFFFFFFFFFFFFFFFFFFFFFFFFFFF AND PUSH20 0xFFFFFFFFFFFFFFFFFFFFFFFFFFFFFFFFFFFFFFFF AND DUP2 MSTORE PUSH1 0x20 ADD SWAP1 DUP2 MSTORE PUSH1 0x20 ADD PUSH1 0x0 KECCAK256 PUSH1 0x0 ADD DUP1 SLOAD PUSH2 0x465 SWAP1 PUSH2 0xE86 JUMP JUMPDEST SWAP1 POP EQ ISZERO DUP1 ISZERO PUSH2 0x4C2 JUMPI POP PUSH1 0x8 PUSH1 0x0 CALLER PUSH20 0xFFFFFFFFFFFFFFFFFFFFFFFFFFFFFFFFFFFFFFFF AND PUSH20 0xFFFFFFFFFFFFFFFFFFFFFFFFFFFFFFFFFFFFFFFF AND DUP2 MSTORE PUSH1 0x20 ADD SWAP1 DUP2 MSTORE PUSH1 0x20 ADD PUSH1 0x0 KECCAK256 PUSH1 0x1 ADD PUSH1 0x0 SWAP1 SLOAD SWAP1 PUSH2 0x100 EXP SWAP1 DIV PUSH1 0xFF AND ISZERO JUMPDEST ISZERO PUSH2 0x62E JUMPI PUSH1 0x1 PUSH1 0x8 PUSH1 0x0 CALLER PUSH20 0xFFFFFFFFFFFFFFFFFFFFFFFFFFFFFFFFFFFFFFFF AND PUSH20 0xFFFFFFFFFFFFFFFFFFFFFFFFFFFFFFFFFFFFFFFF AND DUP2 MSTORE PUSH1 0x20 ADD SWAP1 DUP2 MSTORE PUSH1 0x20 ADD PUSH1 0x0 KECCAK256 PUSH1 0x1 ADD PUSH1 0x0 PUSH2 0x100 EXP DUP2 SLOAD DUP2 PUSH1 0xFF MUL NOT AND SWAP1 DUP4 ISZERO ISZERO MUL OR SWAP1 SSTORE POP PUSH2 0x52A PUSH2 0x9F1 JUMP JUMPDEST CALLER DUP2 PUSH1 0x0 ADD SWAP1 PUSH20 0xFFFFFFFFFFFFFFFFFFFFFFFFFFFFFFFFFFFFFFFF AND SWAP1 DUP2 PUSH20 0xFFFFFFFFFFFFFFFFFFFFFFFFFFFFFFFFFFFFFFFF AND DUP2 MSTORE POP POP DUP5 DUP2 PUSH1 0x20 ADD SWAP1 ISZERO ISZERO SWAP1 DUP2 ISZERO ISZERO DUP2 MSTORE POP POP DUP5 ISZERO PUSH2 0x590 JUMPI PUSH1 0x0 DUP1 DUP2 SLOAD DUP1 SWAP3 SWAP2 SWAP1 PUSH2 0x58A SWAP1 PUSH2 0xEE9 JUMP JUMPDEST SWAP2 SWAP1 POP SSTORE POP JUMPDEST DUP1 PUSH1 0x7 PUSH1 0x0 PUSH1 0x3 SLOAD DUP2 MSTORE PUSH1 0x20 ADD SWAP1 DUP2 MSTORE PUSH1 0x20 ADD PUSH1 0x0 KECCAK256 PUSH1 0x0 DUP3 ADD MLOAD DUP2 PUSH1 0x0 ADD PUSH1 0x0 PUSH2 0x100 EXP DUP2 SLOAD DUP2 PUSH20 0xFFFFFFFFFFFFFFFFFFFFFFFFFFFFFFFFFFFFFFFF MUL NOT AND SWAP1 DUP4 PUSH20 0xFFFFFFFFFFFFFFFFFFFFFFFFFFFFFFFFFFFFFFFF AND MUL OR SWAP1 SSTORE POP PUSH1 0x20 DUP3 ADD MLOAD DUP2 PUSH1 0x0 ADD PUSH1 0x14 PUSH2 0x100 EXP DUP2 SLOAD DUP2 PUSH1 0xFF MUL NOT AND SWAP1 DUP4 ISZERO ISZERO MUL OR SWAP1 SSTORE POP SWAP1 POP POP PUSH1 0x3 PUSH1 0x0 DUP2 SLOAD DUP1 SWAP3 SWAP2 SWAP1 PUSH2 0x623 SWAP1 PUSH2 0xEE9 JUMP JUMPDEST SWAP2 SWAP1 POP SSTORE POP PUSH1 0x1 SWAP2 POP POP JUMPDEST DUP1 SWAP3 POP POP POP SWAP2 SWAP1 POP JUMP JUMPDEST PUSH1 0x4 PUSH1 0x0 SWAP1 SLOAD SWAP1 PUSH2 0x100 EXP SWAP1 DIV PUSH20 0xFFFFFFFFFFFFFFFFFFFFFFFFFFFFFFFFFFFFFFFF AND DUP2 JUMP JUMPDEST PUSH1 0x8 PUSH1 0x20 MSTORE DUP1 PUSH1 0x0 MSTORE PUSH1 0x40 PUSH1 0x0 KECCAK256 PUSH1 0x0 SWAP2 POP SWAP1 POP DUP1 PUSH1 0x0 ADD DUP1 SLOAD PUSH2 0x681 SWAP1 PUSH2 0xE86 JUMP JUMPDEST DUP1 PUSH1 0x1F ADD PUSH1 0x20 DUP1 SWAP2 DIV MUL PUSH1 0x20 ADD PUSH1 0x40 MLOAD SWAP1 DUP2 ADD PUSH1 0x40 MSTORE DUP1 SWAP3 SWAP2 SWAP1 DUP2 DUP2 MSTORE PUSH1 0x20 ADD DUP3 DUP1 SLOAD PUSH2 0x6AD SWAP1 PUSH2 0xE86 JUMP JUMPDEST DUP1 ISZERO PUSH2 0x6FA JUMPI DUP1 PUSH1 0x1F LT PUSH2 0x6CF JUMPI PUSH2 0x100 DUP1 DUP4 SLOAD DIV MUL DUP4 MSTORE SWAP2 PUSH1 0x20 ADD SWAP2 PUSH2 0x6FA JUMP JUMPDEST DUP3 ADD SWAP2 SWAP1 PUSH1 0x0 MSTORE PUSH1 0x20 PUSH1 0x0 KECCAK256 SWAP1 JUMPDEST DUP2 SLOAD DUP2 MSTORE SWAP1 PUSH1 0x1 ADD SWAP1 PUSH1 0x20 ADD DUP1 DUP4 GT PUSH2 0x6DD JUMPI DUP3 SWAP1 SUB PUSH1 0x1F AND DUP3 ADD SWAP2 JUMPDEST POP POP POP POP POP SWAP1 DUP1 PUSH1 0x1 ADD PUSH1 0x0 SWAP1 SLOAD SWAP1 PUSH2 0x100 EXP SWAP1 DIV PUSH1 0xFF AND SWAP1 POP DUP3 JUMP JUMPDEST PUSH1 0x1 DUP1 PUSH1 0x2 DUP2 GT ISZERO PUSH2 0x72C JUMPI PUSH2 0x72B PUSH2 0xF61 JUMP JUMPDEST JUMPDEST PUSH1 0x9 PUSH1 0x0 SWAP1 SLOAD SWAP1 PUSH2 0x100 EXP SWAP1 DIV PUSH1 0xFF AND PUSH1 0x2 DUP2 GT ISZERO PUSH2 0x74E JUMPI PUSH2 0x74D PUSH2 0xF61 JUMP JUMPDEST JUMPDEST EQ PUSH2 0x758 JUMPI PUSH1 0x0 DUP1 REVERT JUMPDEST PUSH1 0x4 PUSH1 0x0 SWAP1 SLOAD SWAP1 PUSH2 0x100 EXP SWAP1 DIV PUSH20 0xFFFFFFFFFFFFFFFFFFFFFFFFFFFFFFFFFFFFFFFF AND PUSH20 0xFFFFFFFFFFFFFFFFFFFFFFFFFFFFFFFFFFFFFFFF AND CALLER PUSH20 0xFFFFFFFFFFFFFFFFFFFFFFFFFFFFFFFFFFFFFFFF AND EQ PUSH2 0x7B2 JUMPI PUSH1 0x0 DUP1 REVERT JUMPDEST PUSH1 0x2 PUSH1 0x9 PUSH1 0x0 PUSH2 0x100 EXP DUP2 SLOAD DUP2 PUSH1 0xFF MUL NOT AND SWAP1 DUP4 PUSH1 0x2 DUP2 GT ISZERO PUSH2 0x7D8 JUMPI PUSH2 0x7D7 PUSH2 0xF61 JUMP JUMPDEST JUMPDEST MUL OR SWAP1 SSTORE POP PUSH1 0x0 SLOAD PUSH1 0x1 DUP2 SWAP1 SSTORE POP POP JUMP JUMPDEST PUSH1 0x9 PUSH1 0x0 SWAP1 SLOAD SWAP1 PUSH2 0x100 EXP SWAP1 DIV PUSH1 0xFF AND DUP2 JUMP JUMPDEST PUSH1 0x0 DUP1 PUSH1 0x2 DUP2 GT ISZERO PUSH2 0x811 JUMPI PUSH2 0x810 PUSH2 0xF61 JUMP JUMPDEST JUMPDEST PUSH1 0x9 PUSH1 0x0 SWAP1 SLOAD SWAP1 PUSH2 0x100 EXP SWAP1 DIV PUSH1 0xFF AND PUSH1 0x2 DUP2 GT ISZERO PUSH2 0x833 JUMPI PUSH2 0x832 PUSH2 0xF61 JUMP JUMPDEST JUMPDEST EQ PUSH2 0x83D JUMPI PUSH1 0x0 DUP1 REVERT JUMPDEST PUSH1 0x4 PUSH1 0x0 SWAP1 SLOAD SWAP1 PUSH2 0x100 EXP SWAP1 DIV PUSH20 0xFFFFFFFFFFFFFFFFFFFFFFFFFFFFFFFFFFFFFFFF AND PUSH20 0xFFFFFFFFFFFFFFFFFFFFFFFFFFFFFFFFFFFFFFFF AND CALLER PUSH20 0xFFFFFFFFFFFFFFFFFFFFFFFFFFFFFFFFFFFFFFFF AND EQ PUSH2 0x897 JUMPI PUSH1 0x0 DUP1 REVERT JUMPDEST PUSH2 0x89F PUSH2 0xA23 JUMP JUMPDEST DUP3 DUP2 PUSH1 0x0 ADD DUP2 SWAP1 MSTORE POP PUSH1 0x0 DUP2 PUSH1 0x20 ADD SWAP1 ISZERO ISZERO SWAP1 DUP2 ISZERO ISZERO DUP2 MSTORE POP POP DUP1 PUSH1 0x8 PUSH1 0x0 DUP7 PUSH20 0xFFFFFFFFFFFFFFFFFFFFFFFFFFFFFFFFFFFFFFFF AND PUSH20 0xFFFFFFFFFFFFFFFFFFFFFFFFFFFFFFFFFFFFFFFF AND DUP2 MSTORE PUSH1 0x20 ADD SWAP1 DUP2 MSTORE PUSH1 0x20 ADD PUSH1 0x0 KECCAK256 PUSH1 0x0 DUP3 ADD MLOAD DUP2 PUSH1 0x0 ADD SWAP1 DUP1 MLOAD SWAP1 PUSH1 0x20 ADD SWAP1 PUSH2 0x915 SWAP3 SWAP2 SWAP1 PUSH2 0xA3F JUMP JUMPDEST POP PUSH1 0x20 DUP3 ADD MLOAD DUP2 PUSH1 0x1 ADD PUSH1 0x0 PUSH2 0x100 EXP DUP2 SLOAD DUP2 PUSH1 0xFF MUL NOT AND SWAP1 DUP4 ISZERO ISZERO MUL OR SWAP1 SSTORE POP SWAP1 POP POP PUSH1 0x2 PUSH1 0x0 DUP2 SLOAD DUP1 SWAP3 SWAP2 SWAP1 PUSH2 0x94C SWAP1 PUSH2 0xEE9 JUMP JUMPDEST SWAP2 SWAP1 POP SSTORE POP POP POP POP POP JUMP JUMPDEST PUSH1 0x5 DUP1 SLOAD PUSH2 0x964 SWAP1 PUSH2 0xE86 JUMP JUMPDEST DUP1 PUSH1 0x1F ADD PUSH1 0x20 DUP1 SWAP2 DIV MUL PUSH1 0x20 ADD PUSH1 0x40 MLOAD SWAP1 DUP2 ADD PUSH1 0x40 MSTORE DUP1 SWAP3 SWAP2 SWAP1 DUP2 DUP2 MSTORE PUSH1 0x20 ADD DUP3 DUP1 SLOAD PUSH2 0x990 SWAP1 PUSH2 0xE86 JUMP JUMPDEST DUP1 ISZERO PUSH2 0x9DD JUMPI DUP1 PUSH1 0x1F LT PUSH2 0x9B2 JUMPI PUSH2 0x100 DUP1 DUP4 SLOAD DIV MUL DUP4 MSTORE SWAP2 PUSH1 0x20 ADD SWAP2 PUSH2 0x9DD JUMP JUMPDEST DUP3 ADD SWAP2 SWAP1 PUSH1 0x0 MSTORE PUSH1 0x20 PUSH1 0x0 KECCAK256 SWAP1 JUMPDEST DUP2 SLOAD DUP2 MSTORE SWAP1 PUSH1 0x1 ADD SWAP1 PUSH1 0x20 ADD DUP1 DUP4 GT PUSH2 0x9C0 JUMPI DUP3 SWAP1 SUB PUSH1 0x1F AND DUP3 ADD SWAP2 JUMPDEST POP POP POP POP POP DUP2 JUMP JUMPDEST PUSH1 0x3 SLOAD DUP2 JUMP JUMPDEST PUSH1 0x1 SLOAD DUP2 JUMP JUMPDEST PUSH1 0x40 MLOAD DUP1 PUSH1 0x40 ADD PUSH1 0x40 MSTORE DUP1 PUSH1 0x0 PUSH20 0xFFFFFFFFFFFFFFFFFFFFFFFFFFFFFFFFFFFFFFFF AND DUP2 MSTORE PUSH1 0x20 ADD PUSH1 0x0 ISZERO ISZERO DUP2 MSTORE POP SWAP1 JUMP JUMPDEST PUSH1 0x40 MLOAD DUP1 PUSH1 0x40 ADD PUSH1 0x40 MSTORE DUP1 PUSH1 0x60 DUP2 MSTORE PUSH1 0x20 ADD PUSH1 0x0 ISZERO ISZERO DUP2 MSTORE POP SWAP1 JUMP JUMPDEST DUP3 DUP1 SLOAD PUSH2 0xA4B SWAP1 PUSH2 0xE86 JUMP JUMPDEST SWAP1 PUSH1 0x0 MSTORE PUSH1 0x20 PUSH1 0x0 KECCAK256 SWAP1 PUSH1 0x1F ADD PUSH1 0x20 SWAP1 DIV DUP2 ADD SWAP3 DUP3 PUSH2 0xA6D JUMPI PUSH1 0x0 DUP6 SSTORE PUSH2 0xAB4 JUMP JUMPDEST DUP3 PUSH1 0x1F LT PUSH2 0xA86 JUMPI DUP1 MLOAD PUSH1 0xFF NOT AND DUP4 DUP1 ADD OR DUP6 SSTORE PUSH2 0xAB4 JUMP JUMPDEST DUP3 DUP1 ADD PUSH1 0x1 ADD DUP6 SSTORE DUP3 ISZERO PUSH2 0xAB4 JUMPI SWAP2 DUP3 ADD JUMPDEST DUP3 DUP2 GT ISZERO PUSH2 0xAB3 JUMPI DUP3 MLOAD DUP3 SSTORE SWAP2 PUSH1 0x20 ADD SWAP2 SWAP1 PUSH1 0x1 ADD SWAP1 PUSH2 0xA98 JUMP JUMPDEST JUMPDEST POP SWAP1 POP PUSH2 0xAC1 SWAP2 SWAP1 PUSH2 0xAC5 JUMP JUMPDEST POP SWAP1 JUMP JUMPDEST JUMPDEST DUP1 DUP3 GT ISZERO PUSH2 0xADE JUMPI PUSH1 0x0 DUP2 PUSH1 0x0 SWAP1 SSTORE POP PUSH1 0x1 ADD PUSH2 0xAC6 JUMP JUMPDEST POP SWAP1 JUMP JUMPDEST PUSH1 0x0 PUSH2 0xAF5 PUSH2 0xAF0 DUP5 PUSH2 0xD8A JUMP JUMPDEST PUSH2 0xD65 JUMP JUMPDEST SWAP1 POP DUP3 DUP2 MSTORE PUSH1 0x20 DUP2 ADD DUP5 DUP5 DUP5 ADD GT ISZERO PUSH2 0xB11 JUMPI PUSH2 0xB10 PUSH2 0xFF3 JUMP JUMPDEST JUMPDEST PUSH2 0xB1C DUP5 DUP3 DUP6 PUSH2 0xE44 JUMP JUMPDEST POP SWAP4 SWAP3 POP POP POP JUMP JUMPDEST PUSH1 0x0 DUP2 CALLDATALOAD SWAP1 POP PUSH2 0xB33 DUP2 PUSH2 0x1027 JUMP JUMPDEST SWAP3 SWAP2 POP POP JUMP JUMPDEST PUSH1 0x0 DUP2 CALLDATALOAD SWAP1 POP PUSH2 0xB48 DUP2 PUSH2 0x103E JUMP JUMPDEST SWAP3 SWAP2 POP POP JUMP JUMPDEST PUSH1 0x0 DUP3 PUSH1 0x1F DUP4 ADD SLT PUSH2 0xB63 JUMPI PUSH2 0xB62 PUSH2 0xFEE JUMP JUMPDEST JUMPDEST DUP2 CALLDATALOAD PUSH2 0xB73 DUP5 DUP3 PUSH1 0x20 DUP7 ADD PUSH2 0xAE2 JUMP JUMPDEST SWAP2 POP POP SWAP3 SWAP2 POP POP JUMP JUMPDEST PUSH1 0x0 PUSH1 0x20 DUP3 DUP5 SUB SLT ISZERO PUSH2 0xB92 JUMPI PUSH2 0xB91 PUSH2 0xFFD JUMP JUMPDEST JUMPDEST PUSH1 0x0 PUSH2 0xBA0 DUP5 DUP3 DUP6 ADD PUSH2 0xB24 JUMP JUMPDEST SWAP2 POP POP SWAP3 SWAP2 POP POP JUMP JUMPDEST PUSH1 0x0 DUP1 PUSH1 0x40 DUP4 DUP6 SUB SLT ISZERO PUSH2 0xBC0 JUMPI PUSH2 0xBBF PUSH2 0xFFD JUMP JUMPDEST JUMPDEST PUSH1 0x0 PUSH2 0xBCE DUP6 DUP3 DUP7 ADD PUSH2 0xB24 JUMP JUMPDEST SWAP3 POP POP PUSH1 0x20 DUP4 ADD CALLDATALOAD PUSH8 0xFFFFFFFFFFFFFFFF DUP2 GT ISZERO PUSH2 0xBEF JUMPI PUSH2 0xBEE PUSH2 0xFF8 JUMP JUMPDEST JUMPDEST PUSH2 0xBFB DUP6 DUP3 DUP7 ADD PUSH2 0xB4E JUMP JUMPDEST SWAP2 POP POP SWAP3 POP SWAP3 SWAP1 POP JUMP JUMPDEST PUSH1 0x0 PUSH1 0x20 DUP3 DUP5 SUB SLT ISZERO PUSH2 0xC1B JUMPI PUSH2 0xC1A PUSH2 0xFFD JUMP JUMPDEST JUMPDEST PUSH1 0x0 PUSH2 0xC29 DUP5 DUP3 DUP6 ADD PUSH2 0xB39 JUMP JUMPDEST SWAP2 POP POP SWAP3 SWAP2 POP POP JUMP JUMPDEST PUSH2 0xC3B DUP2 PUSH2 0xDD7 JUMP JUMPDEST DUP3 MSTORE POP POP JUMP JUMPDEST PUSH2 0xC4A DUP2 PUSH2 0xDE9 JUMP JUMPDEST DUP3 MSTORE POP POP JUMP JUMPDEST PUSH2 0xC59 DUP2 PUSH2 0xE32 JUMP JUMPDEST DUP3 MSTORE POP POP JUMP JUMPDEST PUSH1 0x0 PUSH2 0xC6A DUP3 PUSH2 0xDBB JUMP JUMPDEST PUSH2 0xC74 DUP2 DUP6 PUSH2 0xDC6 JUMP JUMPDEST SWAP4 POP PUSH2 0xC84 DUP2 DUP6 PUSH1 0x20 DUP7 ADD PUSH2 0xE53 JUMP JUMPDEST PUSH2 0xC8D DUP2 PUSH2 0x1002 JUMP JUMPDEST DUP5 ADD SWAP2 POP POP SWAP3 SWAP2 POP POP JUMP JUMPDEST PUSH2 0xCA1 DUP2 PUSH2 0xE28 JUMP JUMPDEST DUP3 MSTORE POP POP JUMP JUMPDEST PUSH1 0x0 PUSH1 0x20 DUP3 ADD SWAP1 POP PUSH2 0xCBC PUSH1 0x0 DUP4 ADD DUP5 PUSH2 0xC32 JUMP JUMPDEST SWAP3 SWAP2 POP POP JUMP JUMPDEST PUSH1 0x0 PUSH1 0x20 DUP3 ADD SWAP1 POP PUSH2 0xCD7 PUSH1 0x0 DUP4 ADD DUP5 PUSH2 0xC41 JUMP JUMPDEST SWAP3 SWAP2 POP POP JUMP JUMPDEST PUSH1 0x0 PUSH1 0x20 DUP3 ADD SWAP1 POP PUSH2 0xCF2 PUSH1 0x0 DUP4 ADD DUP5 PUSH2 0xC50 JUMP JUMPDEST SWAP3 SWAP2 POP POP JUMP JUMPDEST PUSH1 0x0 PUSH1 0x20 DUP3 ADD SWAP1 POP DUP2 DUP2 SUB PUSH1 0x0 DUP4 ADD MSTORE PUSH2 0xD12 DUP2 DUP5 PUSH2 0xC5F JUMP JUMPDEST SWAP1 POP SWAP3 SWAP2 POP POP JUMP JUMPDEST PUSH1 0x0 PUSH1 0x40 DUP3 ADD SWAP1 POP DUP2 DUP2 SUB PUSH1 0x0 DUP4 ADD MSTORE PUSH2 0xD34 DUP2 DUP6 PUSH2 0xC5F JUMP JUMPDEST SWAP1 POP PUSH2 0xD43 PUSH1 0x20 DUP4 ADD DUP5 PUSH2 0xC41 JUMP JUMPDEST SWAP4 SWAP3 POP POP POP JUMP JUMPDEST PUSH1 0x0 PUSH1 0x20 DUP3 ADD SWAP1 POP PUSH2 0xD5F PUSH1 0x0 DUP4 ADD DUP5 PUSH2 0xC98 JUMP JUMPDEST SWAP3 SWAP2 POP POP JUMP JUMPDEST PUSH1 0x0 PUSH2 0xD6F PUSH2 0xD80 JUMP JUMPDEST SWAP1 POP PUSH2 0xD7B DUP3 DUP3 PUSH2 0xEB8 JUMP JUMPDEST SWAP2 SWAP1 POP JUMP JUMPDEST PUSH1 0x0 PUSH1 0x40 MLOAD SWAP1 POP SWAP1 JUMP JUMPDEST PUSH1 0x0 PUSH8 0xFFFFFFFFFFFFFFFF DUP3 GT ISZERO PUSH2 0xDA5 JUMPI PUSH2 0xDA4 PUSH2 0xFBF JUMP JUMPDEST JUMPDEST PUSH2 0xDAE DUP3 PUSH2 0x1002 JUMP JUMPDEST SWAP1 POP PUSH1 0x20 DUP2 ADD SWAP1 POP SWAP2 SWAP1 POP JUMP JUMPDEST PUSH1 0x0 DUP2 MLOAD SWAP1 POP SWAP2 SWAP1 POP JUMP JUMPDEST PUSH1 0x0 DUP3 DUP3 MSTORE PUSH1 0x20 DUP3 ADD SWAP1 POP SWAP3 SWAP2 POP POP JUMP JUMPDEST PUSH1 0x0 PUSH2 0xDE2 DUP3 PUSH2 0xE08 JUMP JUMPDEST SWAP1 POP SWAP2 SWAP1 POP JUMP JUMPDEST PUSH1 0x0 DUP2 ISZERO ISZERO SWAP1 POP SWAP2 SWAP1 POP JUMP JUMPDEST PUSH1 0x0 DUP2 SWAP1 POP PUSH2 0xE03 DUP3 PUSH2 0x1013 JUMP JUMPDEST SWAP2 SWAP1 POP JUMP JUMPDEST PUSH1 0x0 PUSH20 0xFFFFFFFFFFFFFFFFFFFFFFFFFFFFFFFFFFFFFFFF DUP3 AND SWAP1 POP SWAP2 SWAP1 POP JUMP JUMPDEST PUSH1 0x0 DUP2 SWAP1 POP SWAP2 SWAP1 POP JUMP JUMPDEST PUSH1 0x0 PUSH2 0xE3D DUP3 PUSH2 0xDF5 JUMP JUMPDEST SWAP1 POP SWAP2 SWAP1 POP JUMP JUMPDEST DUP3 DUP2 DUP4 CALLDATACOPY PUSH1 0x0 DUP4 DUP4 ADD MSTORE POP POP POP JUMP JUMPDEST PUSH1 0x0 JUMPDEST DUP4 DUP2 LT ISZERO PUSH2 0xE71 JUMPI DUP1 DUP3 ADD MLOAD DUP2 DUP5 ADD MSTORE PUSH1 0x20 DUP2 ADD SWAP1 POP PUSH2 0xE56 JUMP JUMPDEST DUP4 DUP2 GT ISZERO PUSH2 0xE80 JUMPI PUSH1 0x0 DUP5 DUP5 ADD MSTORE JUMPDEST POP POP POP POP JUMP JUMPDEST PUSH1 0x0 PUSH1 0x2 DUP3 DIV SWAP1 POP PUSH1 0x1 DUP3 AND DUP1 PUSH2 0xE9E JUMPI PUSH1 0x7F DUP3 AND SWAP2 POP JUMPDEST PUSH1 0x20 DUP3 LT DUP2 EQ ISZERO PUSH2 0xEB2 JUMPI PUSH2 0xEB1 PUSH2 0xF90 JUMP JUMPDEST JUMPDEST POP SWAP2 SWAP1 POP JUMP JUMPDEST PUSH2 0xEC1 DUP3 PUSH2 0x1002 JUMP JUMPDEST DUP2 ADD DUP2 DUP2 LT PUSH8 0xFFFFFFFFFFFFFFFF DUP3 GT OR ISZERO PUSH2 0xEE0 JUMPI PUSH2 0xEDF PUSH2 0xFBF JUMP JUMPDEST JUMPDEST DUP1 PUSH1 0x40 MSTORE POP POP POP JUMP JUMPDEST PUSH1 0x0 PUSH2 0xEF4 DUP3 PUSH2 0xE28 JUMP JUMPDEST SWAP2 POP PUSH32 0xFFFFFFFFFFFFFFFFFFFFFFFFFFFFFFFFFFFFFFFFFFFFFFFFFFFFFFFFFFFFFFFF DUP3 EQ ISZERO PUSH2 0xF27 JUMPI PUSH2 0xF26 PUSH2 0xF32 JUMP JUMPDEST JUMPDEST PUSH1 0x1 DUP3 ADD SWAP1 POP SWAP2 SWAP1 POP JUMP JUMPDEST PUSH32 0x4E487B7100000000000000000000000000000000000000000000000000000000 PUSH1 0x0 MSTORE PUSH1 0x11 PUSH1 0x4 MSTORE PUSH1 0x24 PUSH1 0x0 REVERT JUMPDEST PUSH32 0x4E487B7100000000000000000000000000000000000000000000000000000000 PUSH1 0x0 MSTORE PUSH1 0x21 PUSH1 0x4 MSTORE PUSH1 0x24 PUSH1 0x0 REVERT JUMPDEST PUSH32 0x4E487B7100000000000000000000000000000000000000000000000000000000 PUSH1 0x0 MSTORE PUSH1 0x22 PUSH1 0x4 MSTORE PUSH1 0x24 PUSH1 0x0 REVERT JUMPDEST PUSH32 0x4E487B7100000000000000000000000000000000000000000000000000000000 PUSH1 0x0 MSTORE PUSH1 0x41 PUSH1 0x4 MSTORE PUSH1 0x24 PUSH1 0x0 REVERT JUMPDEST PUSH1 0x0 DUP1 REVERT JUMPDEST PUSH1 0x0 DUP1 REVERT JUMPDEST PUSH1 0x0 DUP1 REVERT JUMPDEST PUSH1 0x0 DUP1 REVERT JUMPDEST PUSH1 0x0 PUSH1 0x1F NOT PUSH1 0x1F DUP4 ADD AND SWAP1 POP SWAP2 SWAP1 POP JUMP JUMPDEST PUSH1 0x3 DUP2 LT PUSH2 0x1024 JUMPI PUSH2 0x1023 PUSH2 0xF61 JUMP JUMPDEST JUMPDEST POP JUMP JUMPDEST PUSH2 0x1030 DUP2 PUSH2 0xDD7 JUMP JUMPDEST DUP2 EQ PUSH2 0x103B JUMPI PUSH1 0x0 DUP1 REVERT JUMPDEST POP JUMP JUMPDEST PUSH2 0x1047 DUP2 PUSH2 0xDE9 JUMP JUMPDEST DUP2 EQ PUSH2 0x1052 JUMPI PUSH1 0x0 DUP1 REVERT JUMPDEST POP JUMP INVALID LOG2 PUSH5 0x6970667358 0x22 SLT KECCAK256 0xB4 DUP8 0x4C 0xDE ADD DUP3 0x4A PUSH12 0xB0FDB78B71C626324492491F CALLER PC SWAP9 SLT PUSH7 0xD10C9423922940 PUSH5 0x736F6C6343 STOP ADDMOD SMOD STOP CALLER "
				},
				"gasEstimates": {
					"creation": {
						"codeDepositCost": "847000",
						"executionCost": "infinite",
						"totalCost": "infinite"
					},
					"external": {
						"addVoter(address,string)": "infinite",
						"ballotOfficialAddress()": "2603",
						"ballotOfficialName()": "infinite",
						"doVote(bool)": "infinite",
						"endVote()": "53031",
						"finalResult()": "2539",
						"proposal()": "infinite",
						"startVote()": "28818",
						"state()": "2582",
						"totalVote()": "2517",
						"totalVoter()": "2452",
						"voterRegister(address)": "infinite"
					}
				},
				"methodIdentifiers": {
					"addVoter(address,string)": "d9e95a98",
					"ballotOfficialAddress()": "90949747",
					"ballotOfficialName()": "de975d18",
					"doVote(bool)": "87caea78",
					"endVote()": "b9223946",
					"finalResult()": "f3a8286f",
					"proposal()": "753ec103",
					"startVote()": "4c0a6af0",
					"state()": "c19d93fb",
					"totalVote()": "f1cea4c7",
					"totalVoter()": "6332abc9",
					"voterRegister(address)": "af154087"
				}
			},
			"userdoc": {
				"kind": "user",
				"methods": {},
				"version": 1
			}
		}
	}
}