{
	"contracts/7_MultipleSend.sol": {
		"myGame": {
			"abi": [
				{
					"inputs": [],
					"stateMutability": "nonpayable",
					"type": "constructor"
				},
				{
					"inputs": [
						{
							"internalType": "address",
							"name": "playerAddress",
							"type": "address"
						}
					],
					"name": "changePlayerLevel",
					"outputs": [],
					"stateMutability": "nonpayable",
					"type": "function"
				},
				{
					"inputs": [],
					"name": "dealer",
					"outputs": [
						{
							"internalType": "address payable",
							"name": "",
							"type": "address"
						}
					],
					"stateMutability": "view",
					"type": "function"
				},
				{
					"inputs": [
						{
							"internalType": "address",
							"name": "playerAddress",
							"type": "address"
						}
					],
					"name": "getPlayerLevel",
					"outputs": [
						{
							"internalType": "enum myGame.Level",
							"name": "",
							"type": "uint8"
						}
					],
					"stateMutability": "view",
					"type": "function"
				},
				{
					"inputs": [
						{
							"internalType": "string",
							"name": "firstName",
							"type": "string"
						},
						{
							"internalType": "string",
							"name": "lastName",
							"type": "string"
						}
					],
					"name": "joinGame",
					"outputs": [],
					"stateMutability": "payable",
					"type": "function"
				},
				{
					"inputs": [
						{
							"internalType": "address",
							"name": "loserAddress",
							"type": "address"
						}
					],
					"name": "payOutWinners",
					"outputs": [],
					"stateMutability": "payable",
					"type": "function"
				},
				{
					"inputs": [],
					"name": "playerCount",
					"outputs": [
						{
							"internalType": "uint256",
							"name": "",
							"type": "uint256"
						}
					],
					"stateMutability": "view",
					"type": "function"
				},
				{
					"inputs": [
						{
							"internalType": "address",
							"name": "",
							"type": "address"
						}
					],
					"name": "players",
					"outputs": [
						{
							"internalType": "address payable",
							"name": "playerAddress",
							"type": "address"
						},
						{
							"internalType": "enum myGame.Level",
							"name": "playerLevel",
							"type": "uint8"
						},
						{
							"internalType": "string",
							"name": "firstName",
							"type": "string"
						},
						{
							"internalType": "string",
							"name": "lastName",
							"type": "string"
						},
						{
							"internalType": "uint256",
							"name": "createdTime",
							"type": "uint256"
						}
					],
					"stateMutability": "view",
					"type": "function"
				},
				{
					"inputs": [
						{
							"internalType": "uint256",
							"name": "",
							"type": "uint256"
						}
					],
					"name": "playersInGame",
					"outputs": [
						{
							"internalType": "address payable",
							"name": "playerAddress",
							"type": "address"
						},
						{
							"internalType": "enum myGame.Level",
							"name": "playerLevel",
							"type": "uint8"
						},
						{
							"internalType": "string",
							"name": "firstName",
							"type": "string"
						},
						{
							"internalType": "string",
							"name": "lastName",
							"type": "string"
						},
						{
							"internalType": "uint256",
							"name": "createdTime",
							"type": "uint256"
						}
					],
					"stateMutability": "view",
					"type": "function"
				},
				{
					"inputs": [],
					"name": "pot",
					"outputs": [
						{
							"internalType": "uint256",
							"name": "",
							"type": "uint256"
						}
					],
					"stateMutability": "view",
					"type": "function"
				}
			],
			"devdoc": {
				"kind": "dev",
				"methods": {},
				"version": 1
			},
			"evm": {
				"assembly": "    /* \"contracts/7_MultipleSend.sol\":35:2045  contract myGame {... */\n  mstore(0x40, 0x80)\n    /* \"contracts/7_MultipleSend.sol\":84:85  0 */\n  0x00\n    /* \"contracts/7_MultipleSend.sol\":58:85  uint public playerCount = 0 */\n  dup1\n  sstore\n    /* \"contracts/7_MultipleSend.sol\":109:110  0 */\n  0x00\n    /* \"contracts/7_MultipleSend.sol\":91:110  uint public pot = 0 */\n  0x01\n  sstore\n    /* \"contracts/7_MultipleSend.sol\":456:515  constructor() {... */\n  callvalue\n  dup1\n  iszero\n  tag_1\n  jumpi\n  0x00\n  dup1\n  revert\ntag_1:\n  pop\n    /* \"contracts/7_MultipleSend.sol\":497:507  msg.sender */\n  caller\n    /* \"contracts/7_MultipleSend.sol\":480:486  dealer */\n  0x02\n  0x00\n    /* \"contracts/7_MultipleSend.sol\":480:508  dealer = payable(msg.sender) */\n  0x0100\n  exp\n  dup2\n  sload\n  dup2\n  0xffffffffffffffffffffffffffffffffffffffff\n  mul\n  not\n  and\n  swap1\n  dup4\n  0xffffffffffffffffffffffffffffffffffffffff\n  and\n  mul\n  or\n  swap1\n  sstore\n  pop\n    /* \"contracts/7_MultipleSend.sol\":35:2045  contract myGame {... */\n  dataSize(sub_0)\n  dup1\n  dataOffset(sub_0)\n  0x00\n  codecopy\n  0x00\n  return\nstop\n\nsub_0: assembly {\n        /* \"contracts/7_MultipleSend.sol\":35:2045  contract myGame {... */\n      mstore(0x40, 0x80)\n      jumpi(tag_1, lt(calldatasize, 0x04))\n      shr(0xe0, calldataload(0x00))\n      dup1\n      0x9de2ee21\n      gt\n      tag_11\n      jumpi\n      dup1\n      0x9de2ee21\n      eq\n      tag_6\n      jumpi\n      dup1\n      0xdbdef6f1\n      eq\n      tag_7\n      jumpi\n      dup1\n      0xe2eb41ff\n      eq\n      tag_8\n      jumpi\n      dup1\n      0xf9593e14\n      eq\n      tag_9\n      jumpi\n      dup1\n      0xfed47dac\n      eq\n      tag_10\n      jumpi\n      jump(tag_1)\n    tag_11:\n      dup1\n      0x302bcc57\n      eq\n      tag_2\n      jumpi\n      dup1\n      0x34b735a1\n      eq\n      tag_3\n      jumpi\n      dup1\n      0x4ba2363a\n      eq\n      tag_4\n      jumpi\n      dup1\n      0x8ddf0f7d\n      eq\n      tag_5\n      jumpi\n    tag_1:\n      0x00\n      dup1\n      revert\n        /* \"contracts/7_MultipleSend.sol\":58:85  uint public playerCount = 0 */\n    tag_2:\n      callvalue\n      dup1\n      iszero\n      tag_12\n      jumpi\n      0x00\n      dup1\n      revert\n    tag_12:\n      pop\n      tag_13\n      tag_14\n      jump\t// in\n    tag_13:\n      mload(0x40)\n      tag_15\n      swap2\n      swap1\n      tag_16\n      jump\t// in\n    tag_15:\n      mload(0x40)\n      dup1\n      swap2\n      sub\n      swap1\n      return\n        /* \"contracts/7_MultipleSend.sol\":804:936  function getPlayerLevel(address playerAddress) public view returns(Level) {... */\n    tag_3:\n      callvalue\n      dup1\n      iszero\n      tag_17\n      jumpi\n      0x00\n      dup1\n      revert\n    tag_17:\n      pop\n      tag_18\n      0x04\n      dup1\n      calldatasize\n      sub\n      dup2\n      add\n      swap1\n      tag_19\n      swap2\n      swap1\n      tag_20\n      jump\t// in\n    tag_19:\n      tag_21\n      jump\t// in\n    tag_18:\n      mload(0x40)\n      tag_22\n      swap2\n      swap1\n      tag_23\n      jump\t// in\n    tag_22:\n      mload(0x40)\n      dup1\n      swap2\n      sub\n      swap1\n      return\n        /* \"contracts/7_MultipleSend.sol\":91:110  uint public pot = 0 */\n    tag_4:\n      callvalue\n      dup1\n      iszero\n      tag_24\n      jumpi\n      0x00\n      dup1\n      revert\n    tag_24:\n      pop\n      tag_25\n      tag_26\n      jump\t// in\n    tag_25:\n      mload(0x40)\n      tag_27\n      swap2\n      swap1\n      tag_16\n      jump\t// in\n    tag_27:\n      mload(0x40)\n      dup1\n      swap2\n      sub\n      swap1\n      return\n        /* \"contracts/7_MultipleSend.sol\":942:1183  function changePlayerLevel(address playerAddress) public {... */\n    tag_5:\n      callvalue\n      dup1\n      iszero\n      tag_28\n      jumpi\n      0x00\n      dup1\n      revert\n    tag_28:\n      pop\n      tag_29\n      0x04\n      dup1\n      calldatasize\n      sub\n      dup2\n      add\n      swap1\n      tag_30\n      swap2\n      swap1\n      tag_20\n      jump\t// in\n    tag_30:\n      tag_31\n      jump\t// in\n    tag_29:\n      stop\n        /* \"contracts/7_MultipleSend.sol\":116:145  address payable public dealer */\n    tag_6:\n      callvalue\n      dup1\n      iszero\n      tag_32\n      jumpi\n      0x00\n      dup1\n      revert\n    tag_32:\n      pop\n      tag_33\n      tag_34\n      jump\t// in\n    tag_33:\n      mload(0x40)\n      tag_35\n      swap2\n      swap1\n      tag_36\n      jump\t// in\n    tag_35:\n      mload(0x40)\n      dup1\n      swap2\n      sub\n      swap1\n      return\n        /* \"contracts/7_MultipleSend.sol\":1189:1495  function joinGame(string memory firstName, string memory lastName) payable public {... */\n    tag_7:\n      tag_37\n      0x04\n      dup1\n      calldatasize\n      sub\n      dup2\n      add\n      swap1\n      tag_38\n      swap2\n      swap1\n      tag_39\n      jump\t// in\n    tag_38:\n      tag_40\n      jump\t// in\n    tag_37:\n      stop\n        /* \"contracts/7_MultipleSend.sol\":188:229  mapping(address => Player) public players */\n    tag_8:\n      callvalue\n      dup1\n      iszero\n      tag_41\n      jumpi\n      0x00\n      dup1\n      revert\n    tag_41:\n      pop\n      tag_42\n      0x04\n      dup1\n      calldatasize\n      sub\n      dup2\n      add\n      swap1\n      tag_43\n      swap2\n      swap1\n      tag_20\n      jump\t// in\n    tag_43:\n      tag_44\n      jump\t// in\n    tag_42:\n      mload(0x40)\n      tag_45\n      swap6\n      swap5\n      swap4\n      swap3\n      swap2\n      swap1\n      tag_46\n      jump\t// in\n    tag_45:\n      mload(0x40)\n      dup1\n      swap2\n      sub\n      swap1\n      return\n        /* \"contracts/7_MultipleSend.sol\":152:181  Player[] public playersInGame */\n    tag_9:\n      callvalue\n      dup1\n      iszero\n      tag_47\n      jumpi\n      0x00\n      dup1\n      revert\n    tag_47:\n      pop\n      tag_48\n      0x04\n      dup1\n      calldatasize\n      sub\n      dup2\n      add\n      swap1\n      tag_49\n      swap2\n      swap1\n      tag_50\n      jump\t// in\n    tag_49:\n      tag_51\n      jump\t// in\n    tag_48:\n      mload(0x40)\n      tag_52\n      swap6\n      swap5\n      swap4\n      swap3\n      swap2\n      swap1\n      tag_46\n      jump\t// in\n    tag_52:\n      mload(0x40)\n      dup1\n      swap2\n      sub\n      swap1\n      return\n        /* \"contracts/7_MultipleSend.sol\":1501:2043  function payOutWinners(address loserAddress) payable public {... */\n    tag_10:\n      tag_53\n      0x04\n      dup1\n      calldatasize\n      sub\n      dup2\n      add\n      swap1\n      tag_54\n      swap2\n      swap1\n      tag_20\n      jump\t// in\n    tag_54:\n      tag_55\n      jump\t// in\n    tag_53:\n      stop\n        /* \"contracts/7_MultipleSend.sol\":58:85  uint public playerCount = 0 */\n    tag_14:\n      sload(0x00)\n      dup2\n      jump\t// out\n        /* \"contracts/7_MultipleSend.sol\":804:936  function getPlayerLevel(address playerAddress) public view returns(Level) {... */\n    tag_21:\n        /* \"contracts/7_MultipleSend.sol\":871:876  Level */\n      0x00\n        /* \"contracts/7_MultipleSend.sol\":895:902  players */\n      0x04\n        /* \"contracts/7_MultipleSend.sol\":895:917  players[playerAddress] */\n      0x00\n        /* \"contracts/7_MultipleSend.sol\":903:916  playerAddress */\n      dup4\n        /* \"contracts/7_MultipleSend.sol\":895:917  players[playerAddress] */\n      0xffffffffffffffffffffffffffffffffffffffff\n      and\n      0xffffffffffffffffffffffffffffffffffffffff\n      and\n      dup2\n      mstore\n      0x20\n      add\n      swap1\n      dup2\n      mstore\n      0x20\n      add\n      0x00\n      keccak256\n        /* \"contracts/7_MultipleSend.sol\":895:929  players[playerAddress].playerLevel */\n      0x00\n      add\n      0x14\n      swap1\n      sload\n      swap1\n      0x0100\n      exp\n      swap1\n      div\n      0xff\n      and\n        /* \"contracts/7_MultipleSend.sol\":888:929  return players[playerAddress].playerLevel */\n      swap1\n      pop\n        /* \"contracts/7_MultipleSend.sol\":804:936  function getPlayerLevel(address playerAddress) public view returns(Level) {... */\n      swap2\n      swap1\n      pop\n      jump\t// out\n        /* \"contracts/7_MultipleSend.sol\":91:110  uint public pot = 0 */\n    tag_26:\n      sload(0x01)\n      dup2\n      jump\t// out\n        /* \"contracts/7_MultipleSend.sol\":942:1183  function changePlayerLevel(address playerAddress) public {... */\n    tag_31:\n        /* \"contracts/7_MultipleSend.sol\":1009:1030  Player storage player */\n      0x00\n        /* \"contracts/7_MultipleSend.sol\":1033:1040  players */\n      0x04\n        /* \"contracts/7_MultipleSend.sol\":1033:1055  players[playerAddress] */\n      0x00\n        /* \"contracts/7_MultipleSend.sol\":1041:1054  playerAddress */\n      dup4\n        /* \"contracts/7_MultipleSend.sol\":1033:1055  players[playerAddress] */\n      0xffffffffffffffffffffffffffffffffffffffff\n      and\n      0xffffffffffffffffffffffffffffffffffffffff\n      and\n      dup2\n      mstore\n      0x20\n      add\n      swap1\n      dup2\n      mstore\n      0x20\n      add\n      0x00\n      keccak256\n        /* \"contracts/7_MultipleSend.sol\":1009:1055  Player storage player = players[playerAddress] */\n      swap1\n      pop\n        /* \"contracts/7_MultipleSend.sol\":1109:1111  20 */\n      0x14\n        /* \"contracts/7_MultipleSend.sol\":1088:1094  player */\n      dup2\n        /* \"contracts/7_MultipleSend.sol\":1088:1106  player.createdTime */\n      0x03\n      add\n      sload\n        /* \"contracts/7_MultipleSend.sol\":1088:1111  player.createdTime + 20 */\n      tag_58\n      swap2\n      swap1\n      tag_59\n      jump\t// in\n    tag_58:\n        /* \"contracts/7_MultipleSend.sol\":1069:1084  block.timestamp */\n      timestamp\n        /* \"contracts/7_MultipleSend.sol\":1069:1111  block.timestamp >= player.createdTime + 20 */\n      lt\n        /* \"contracts/7_MultipleSend.sol\":1065:1177  if (block.timestamp >= player.createdTime + 20) {... */\n      tag_60\n      jumpi\n        /* \"contracts/7_MultipleSend.sol\":1148:1166  Level.Intermediate */\n      0x01\n        /* \"contracts/7_MultipleSend.sol\":1127:1133  player */\n      dup2\n        /* \"contracts/7_MultipleSend.sol\":1127:1145  player.playerLevel */\n      0x00\n      add\n      0x14\n        /* \"contracts/7_MultipleSend.sol\":1127:1166  player.playerLevel = Level.Intermediate */\n      0x0100\n      exp\n      dup2\n      sload\n      dup2\n      0xff\n      mul\n      not\n      and\n      swap1\n      dup4\n      0x02\n      dup2\n      gt\n      iszero\n      tag_61\n      jumpi\n      tag_62\n      tag_63\n      jump\t// in\n    tag_62:\n    tag_61:\n      mul\n      or\n      swap1\n      sstore\n      pop\n        /* \"contracts/7_MultipleSend.sol\":1065:1177  if (block.timestamp >= player.createdTime + 20) {... */\n    tag_60:\n        /* \"contracts/7_MultipleSend.sol\":999:1183  {... */\n      pop\n        /* \"contracts/7_MultipleSend.sol\":942:1183  function changePlayerLevel(address playerAddress) public {... */\n      pop\n      jump\t// out\n        /* \"contracts/7_MultipleSend.sol\":116:145  address payable public dealer */\n    tag_34:\n      0x02\n      0x00\n      swap1\n      sload\n      swap1\n      0x0100\n      exp\n      swap1\n      div\n      0xffffffffffffffffffffffffffffffffffffffff\n      and\n      dup2\n      jump\t// out\n        /* \"contracts/7_MultipleSend.sol\":1189:1495  function joinGame(string memory firstName, string memory lastName) payable public {... */\n    tag_40:\n        /* \"contracts/7_MultipleSend.sol\":1303:1311  25 ether */\n      0x015af1d78b58c40000\n        /* \"contracts/7_MultipleSend.sol\":1290:1299  msg.value */\n      callvalue\n        /* \"contracts/7_MultipleSend.sol\":1290:1311  msg.value == 25 ether */\n      eq\n        /* \"contracts/7_MultipleSend.sol\":1281:1343  require (msg.value == 25 ether, \"The joining fee is 25 ether\") */\n      tag_65\n      jumpi\n      mload(0x40)\n      0x08c379a000000000000000000000000000000000000000000000000000000000\n      dup2\n      mstore\n      0x04\n      add\n      tag_66\n      swap1\n      tag_67\n      jump\t// in\n    tag_66:\n      mload(0x40)\n      dup1\n      swap2\n      sub\n      swap1\n      revert\n    tag_65:\n        /* \"contracts/7_MultipleSend.sol\":1357:1363  dealer */\n      0x02\n      0x00\n      swap1\n      sload\n      swap1\n      0x0100\n      exp\n      swap1\n      div\n      0xffffffffffffffffffffffffffffffffffffffff\n      and\n        /* \"contracts/7_MultipleSend.sol\":1357:1368  dealer.send */\n      0xffffffffffffffffffffffffffffffffffffffff\n      and\n        /* \"contracts/7_MultipleSend.sol\":1357:1379  dealer.send(msg.value) */\n      0x08fc\n        /* \"contracts/7_MultipleSend.sol\":1369:1378  msg.value */\n      callvalue\n        /* \"contracts/7_MultipleSend.sol\":1357:1379  dealer.send(msg.value) */\n      swap1\n      dup2\n      iszero\n      mul\n      swap1\n      mload(0x40)\n      0x00\n      mload(0x40)\n      dup1\n      dup4\n      sub\n      dup2\n      dup6\n      dup9\n      dup9\n      call\n      swap4\n      pop\n      pop\n      pop\n      pop\n        /* \"contracts/7_MultipleSend.sol\":1353:1489  if (dealer.send(msg.value)) {... */\n      iszero\n      tag_69\n      jumpi\n        /* \"contracts/7_MultipleSend.sol\":1395:1425  addPlayer(firstName, lastName) */\n      tag_70\n        /* \"contracts/7_MultipleSend.sol\":1405:1414  firstName */\n      dup3\n        /* \"contracts/7_MultipleSend.sol\":1416:1424  lastName */\n      dup3\n        /* \"contracts/7_MultipleSend.sol\":1395:1404  addPlayer */\n      tag_71\n        /* \"contracts/7_MultipleSend.sol\":1395:1425  addPlayer(firstName, lastName) */\n      jump\t// in\n    tag_70:\n        /* \"contracts/7_MultipleSend.sol\":1454:1455  1 */\n      0x01\n        /* \"contracts/7_MultipleSend.sol\":1439:1450  playerCount */\n      0x00\n      dup1\n        /* \"contracts/7_MultipleSend.sol\":1439:1455  playerCount += 1 */\n      dup3\n      dup3\n      sload\n      tag_72\n      swap2\n      swap1\n      tag_59\n      jump\t// in\n    tag_72:\n      swap3\n      pop\n      pop\n      dup2\n      swap1\n      sstore\n      pop\n        /* \"contracts/7_MultipleSend.sol\":1476:1478  25 */\n      0x19\n        /* \"contracts/7_MultipleSend.sol\":1469:1472  pot */\n      0x01\n      0x00\n        /* \"contracts/7_MultipleSend.sol\":1469:1478  pot += 25 */\n      dup3\n      dup3\n      sload\n      tag_73\n      swap2\n      swap1\n      tag_59\n      jump\t// in\n    tag_73:\n      swap3\n      pop\n      pop\n      dup2\n      swap1\n      sstore\n      pop\n        /* \"contracts/7_MultipleSend.sol\":1353:1489  if (dealer.send(msg.value)) {... */\n    tag_69:\n        /* \"contracts/7_MultipleSend.sol\":1189:1495  function joinGame(string memory firstName, string memory lastName) payable public {... */\n      pop\n      pop\n      jump\t// out\n        /* \"contracts/7_MultipleSend.sol\":188:229  mapping(address => Player) public players */\n    tag_44:\n      mstore(0x20, 0x04)\n      dup1\n      0x00\n      mstore\n      keccak256(0x00, 0x40)\n      0x00\n      swap2\n      pop\n      swap1\n      pop\n      dup1\n      0x00\n      add\n      0x00\n      swap1\n      sload\n      swap1\n      0x0100\n      exp\n      swap1\n      div\n      0xffffffffffffffffffffffffffffffffffffffff\n      and\n      swap1\n      dup1\n      0x00\n      add\n      0x14\n      swap1\n      sload\n      swap1\n      0x0100\n      exp\n      swap1\n      div\n      0xff\n      and\n      swap1\n      dup1\n      0x01\n      add\n      dup1\n      sload\n      tag_74\n      swap1\n      tag_75\n      jump\t// in\n    tag_74:\n      dup1\n      0x1f\n      add\n      0x20\n      dup1\n      swap2\n      div\n      mul\n      0x20\n      add\n      mload(0x40)\n      swap1\n      dup2\n      add\n      0x40\n      mstore\n      dup1\n      swap3\n      swap2\n      swap1\n      dup2\n      dup2\n      mstore\n      0x20\n      add\n      dup3\n      dup1\n      sload\n      tag_76\n      swap1\n      tag_75\n      jump\t// in\n    tag_76:\n      dup1\n      iszero\n      tag_77\n      jumpi\n      dup1\n      0x1f\n      lt\n      tag_78\n      jumpi\n      0x0100\n      dup1\n      dup4\n      sload\n      div\n      mul\n      dup4\n      mstore\n      swap2\n      0x20\n      add\n      swap2\n      jump(tag_77)\n    tag_78:\n      dup3\n      add\n      swap2\n      swap1\n      0x00\n      mstore\n      keccak256(0x00, 0x20)\n      swap1\n    tag_79:\n      dup2\n      sload\n      dup2\n      mstore\n      swap1\n      0x01\n      add\n      swap1\n      0x20\n      add\n      dup1\n      dup4\n      gt\n      tag_79\n      jumpi\n      dup3\n      swap1\n      sub\n      0x1f\n      and\n      dup3\n      add\n      swap2\n    tag_77:\n      pop\n      pop\n      pop\n      pop\n      pop\n      swap1\n      dup1\n      0x02\n      add\n      dup1\n      sload\n      tag_80\n      swap1\n      tag_75\n      jump\t// in\n    tag_80:\n      dup1\n      0x1f\n      add\n      0x20\n      dup1\n      swap2\n      div\n      mul\n      0x20\n      add\n      mload(0x40)\n      swap1\n      dup2\n      add\n      0x40\n      mstore\n      dup1\n      swap3\n      swap2\n      swap1\n      dup2\n      dup2\n      mstore\n      0x20\n      add\n      dup3\n      dup1\n      sload\n      tag_81\n      swap1\n      tag_75\n      jump\t// in\n    tag_81:\n      dup1\n      iszero\n      tag_82\n      jumpi\n      dup1\n      0x1f\n      lt\n      tag_83\n      jumpi\n      0x0100\n      dup1\n      dup4\n      sload\n      div\n      mul\n      dup4\n      mstore\n      swap2\n      0x20\n      add\n      swap2\n      jump(tag_82)\n    tag_83:\n      dup3\n      add\n      swap2\n      swap1\n      0x00\n      mstore\n      keccak256(0x00, 0x20)\n      swap1\n    tag_84:\n      dup2\n      sload\n      dup2\n      mstore\n      swap1\n      0x01\n      add\n      swap1\n      0x20\n      add\n      dup1\n      dup4\n      gt\n      tag_84\n      jumpi\n      dup3\n      swap1\n      sub\n      0x1f\n      and\n      dup3\n      add\n      swap2\n    tag_82:\n      pop\n      pop\n      pop\n      pop\n      pop\n      swap1\n      dup1\n      0x03\n      add\n      sload\n      swap1\n      pop\n      dup6\n      jump\t// out\n        /* \"contracts/7_MultipleSend.sol\":152:181  Player[] public playersInGame */\n    tag_51:\n      0x03\n      dup2\n      dup2\n      sload\n      dup2\n      lt\n      tag_85\n      jumpi\n      0x00\n      dup1\n      revert\n    tag_85:\n      swap1\n      0x00\n      mstore\n      keccak256(0x00, 0x20)\n      swap1\n      0x04\n      mul\n      add\n      0x00\n      swap2\n      pop\n      swap1\n      pop\n      dup1\n      0x00\n      add\n      0x00\n      swap1\n      sload\n      swap1\n      0x0100\n      exp\n      swap1\n      div\n      0xffffffffffffffffffffffffffffffffffffffff\n      and\n      swap1\n      dup1\n      0x00\n      add\n      0x14\n      swap1\n      sload\n      swap1\n      0x0100\n      exp\n      swap1\n      div\n      0xff\n      and\n      swap1\n      dup1\n      0x01\n      add\n      dup1\n      sload\n      tag_87\n      swap1\n      tag_75\n      jump\t// in\n    tag_87:\n      dup1\n      0x1f\n      add\n      0x20\n      dup1\n      swap2\n      div\n      mul\n      0x20\n      add\n      mload(0x40)\n      swap1\n      dup2\n      add\n      0x40\n      mstore\n      dup1\n      swap3\n      swap2\n      swap1\n      dup2\n      dup2\n      mstore\n      0x20\n      add\n      dup3\n      dup1\n      sload\n      tag_88\n      swap1\n      tag_75\n      jump\t// in\n    tag_88:\n      dup1\n      iszero\n      tag_89\n      jumpi\n      dup1\n      0x1f\n      lt\n      tag_90\n      jumpi\n      0x0100\n      dup1\n      dup4\n      sload\n      div\n      mul\n      dup4\n      mstore\n      swap2\n      0x20\n      add\n      swap2\n      jump(tag_89)\n    tag_90:\n      dup3\n      add\n      swap2\n      swap1\n      0x00\n      mstore\n      keccak256(0x00, 0x20)\n      swap1\n    tag_91:\n      dup2\n      sload\n      dup2\n      mstore\n      swap1\n      0x01\n      add\n      swap1\n      0x20\n      add\n      dup1\n      dup4\n      gt\n      tag_91\n      jumpi\n      dup3\n      swap1\n      sub\n      0x1f\n      and\n      dup3\n      add\n      swap2\n    tag_89:\n      pop\n      pop\n      pop\n      pop\n      pop\n      swap1\n      dup1\n      0x02\n      add\n      dup1\n      sload\n      tag_92\n      swap1\n      tag_75\n      jump\t// in\n    tag_92:\n      dup1\n      0x1f\n      add\n      0x20\n      dup1\n      swap2\n      div\n      mul\n      0x20\n      add\n      mload(0x40)\n      swap1\n      dup2\n      add\n      0x40\n      mstore\n      dup1\n      swap3\n      swap2\n      swap1\n      dup2\n      dup2\n      mstore\n      0x20\n      add\n      dup3\n      dup1\n      sload\n      tag_93\n      swap1\n      tag_75\n      jump\t// in\n    tag_93:\n      dup1\n      iszero\n      tag_94\n      jumpi\n      dup1\n      0x1f\n      lt\n      tag_95\n      jumpi\n      0x0100\n      dup1\n      dup4\n      sload\n      div\n      mul\n      dup4\n      mstore\n      swap2\n      0x20\n      add\n      swap2\n      jump(tag_94)\n    tag_95:\n      dup3\n      add\n      swap2\n      swap1\n      0x00\n      mstore\n      keccak256(0x00, 0x20)\n      swap1\n    tag_96:\n      dup2\n      sload\n      dup2\n      mstore\n      swap1\n      0x01\n      add\n      swap1\n      0x20\n      add\n      dup1\n      dup4\n      gt\n      tag_96\n      jumpi\n      dup3\n      swap1\n      sub\n      0x1f\n      and\n      dup3\n      add\n      swap2\n    tag_94:\n      pop\n      pop\n      pop\n      pop\n      pop\n      swap1\n      dup1\n      0x03\n      add\n      sload\n      swap1\n      pop\n      dup6\n      jump\t// out\n        /* \"contracts/7_MultipleSend.sol\":1501:2043  function payOutWinners(address loserAddress) payable public {... */\n    tag_55:\n        /* \"contracts/7_MultipleSend.sol\":1593:1599  dealer */\n      0x02\n      0x00\n      swap1\n      sload\n      swap1\n      0x0100\n      exp\n      swap1\n      div\n      0xffffffffffffffffffffffffffffffffffffffff\n      and\n        /* \"contracts/7_MultipleSend.sol\":1579:1599  msg.sender == dealer */\n      0xffffffffffffffffffffffffffffffffffffffff\n      and\n        /* \"contracts/7_MultipleSend.sol\":1579:1589  msg.sender */\n      caller\n        /* \"contracts/7_MultipleSend.sol\":1579:1599  msg.sender == dealer */\n      0xffffffffffffffffffffffffffffffffffffffff\n      and\n      eq\n        /* \"contracts/7_MultipleSend.sol\":1571:1644  require(msg.sender == dealer, \"Only the dealer can pay out the winners.\") */\n      tag_98\n      jumpi\n      mload(0x40)\n      0x08c379a000000000000000000000000000000000000000000000000000000000\n      dup2\n      mstore\n      0x04\n      add\n      tag_99\n      swap1\n      tag_100\n      jump\t// in\n    tag_99:\n      mload(0x40)\n      dup1\n      swap2\n      sub\n      swap1\n      revert\n    tag_98:\n        /* \"contracts/7_MultipleSend.sol\":1682:1689  1 ether */\n      0x0de0b6b3a7640000\n        /* \"contracts/7_MultipleSend.sol\":1675:1678  pot */\n      sload(0x01)\n        /* \"contracts/7_MultipleSend.sol\":1675:1690  pot * (1 ether) */\n      tag_101\n      swap2\n      swap1\n      tag_102\n      jump\t// in\n    tag_101:\n        /* \"contracts/7_MultipleSend.sol\":1662:1671  msg.value */\n      callvalue\n        /* \"contracts/7_MultipleSend.sol\":1662:1690  msg.value == pot * (1 ether) */\n      eq\n        /* \"contracts/7_MultipleSend.sol\":1654:1691  require(msg.value == pot * (1 ether)) */\n      tag_103\n      jumpi\n      0x00\n      dup1\n      revert\n    tag_103:\n        /* \"contracts/7_MultipleSend.sol\":1701:1721  uint payoutPerWinner */\n      0x00\n        /* \"contracts/7_MultipleSend.sol\":1751:1752  1 */\n      0x01\n        /* \"contracts/7_MultipleSend.sol\":1737:1748  playerCount */\n      sload(0x00)\n        /* \"contracts/7_MultipleSend.sol\":1737:1752  playerCount - 1 */\n      tag_104\n      swap2\n      swap1\n      tag_105\n      jump\t// in\n    tag_104:\n        /* \"contracts/7_MultipleSend.sol\":1724:1733  msg.value */\n      callvalue\n        /* \"contracts/7_MultipleSend.sol\":1724:1753  msg.value / (playerCount - 1) */\n      tag_106\n      swap2\n      swap1\n      tag_107\n      jump\t// in\n    tag_106:\n        /* \"contracts/7_MultipleSend.sol\":1701:1753  uint payoutPerWinner = msg.value / (playerCount - 1) */\n      swap1\n      pop\n        /* \"contracts/7_MultipleSend.sol\":1768:1774  uint i */\n      0x00\n        /* \"contracts/7_MultipleSend.sol\":1763:2037  for (uint i=0; i< playersInGame.length; i++) {... */\n    tag_108:\n        /* \"contracts/7_MultipleSend.sol\":1781:1794  playersInGame */\n      0x03\n        /* \"contracts/7_MultipleSend.sol\":1781:1801  playersInGame.length */\n      dup1\n      sload\n      swap1\n      pop\n        /* \"contracts/7_MultipleSend.sol\":1778:1779  i */\n      dup2\n        /* \"contracts/7_MultipleSend.sol\":1778:1801  i< playersInGame.length */\n      lt\n        /* \"contracts/7_MultipleSend.sol\":1763:2037  for (uint i=0; i< playersInGame.length; i++) {... */\n      iszero\n      tag_109\n      jumpi\n        /* \"contracts/7_MultipleSend.sol\":1822:1850  address currentPlayerAddress */\n      0x00\n        /* \"contracts/7_MultipleSend.sol\":1853:1866  playersInGame */\n      0x03\n        /* \"contracts/7_MultipleSend.sol\":1867:1868  i */\n      dup3\n        /* \"contracts/7_MultipleSend.sol\":1853:1869  playersInGame[i] */\n      dup2\n      sload\n      dup2\n      lt\n      tag_111\n      jumpi\n      tag_112\n      tag_113\n      jump\t// in\n    tag_112:\n    tag_111:\n      swap1\n      0x00\n      mstore\n      keccak256(0x00, 0x20)\n      swap1\n      0x04\n      mul\n      add\n        /* \"contracts/7_MultipleSend.sol\":1853:1883  playersInGame[i].playerAddress */\n      0x00\n      add\n      0x00\n      swap1\n      sload\n      swap1\n      0x0100\n      exp\n      swap1\n      div\n      0xffffffffffffffffffffffffffffffffffffffff\n      and\n        /* \"contracts/7_MultipleSend.sol\":1822:1883  address currentPlayerAddress = playersInGame[i].playerAddress */\n      swap1\n      pop\n        /* \"contracts/7_MultipleSend.sol\":1925:1937  loserAddress */\n      dup4\n        /* \"contracts/7_MultipleSend.sol\":1901:1937  currentPlayerAddress != loserAddress */\n      0xffffffffffffffffffffffffffffffffffffffff\n      and\n        /* \"contracts/7_MultipleSend.sol\":1901:1921  currentPlayerAddress */\n      dup2\n        /* \"contracts/7_MultipleSend.sol\":1901:1937  currentPlayerAddress != loserAddress */\n      0xffffffffffffffffffffffffffffffffffffffff\n      and\n      eq\n        /* \"contracts/7_MultipleSend.sol\":1897:2027  if (currentPlayerAddress != loserAddress) {... */\n      tag_115\n      jumpi\n        /* \"contracts/7_MultipleSend.sol\":1965:1985  currentPlayerAddress */\n      dup1\n        /* \"contracts/7_MultipleSend.sol\":1957:1995  payable(currentPlayerAddress).transfer */\n      0xffffffffffffffffffffffffffffffffffffffff\n      and\n        /* \"contracts/7_MultipleSend.sol\":1957:2012  payable(currentPlayerAddress).transfer(payoutPerWinner) */\n      0x08fc\n        /* \"contracts/7_MultipleSend.sol\":1996:2011  payoutPerWinner */\n      dup5\n        /* \"contracts/7_MultipleSend.sol\":1957:2012  payable(currentPlayerAddress).transfer(payoutPerWinner) */\n      swap1\n      dup2\n      iszero\n      mul\n      swap1\n      mload(0x40)\n      0x00\n      mload(0x40)\n      dup1\n      dup4\n      sub\n      dup2\n      dup6\n      dup9\n      dup9\n      call\n      swap4\n      pop\n      pop\n      pop\n      pop\n      iszero\n      dup1\n      iszero\n      tag_117\n      jumpi\n      returndatasize\n      0x00\n      dup1\n      returndatacopy\n      revert(0x00, returndatasize)\n    tag_117:\n      pop\n        /* \"contracts/7_MultipleSend.sol\":1897:2027  if (currentPlayerAddress != loserAddress) {... */\n    tag_115:\n        /* \"contracts/7_MultipleSend.sol\":1808:2037  {... */\n      pop\n        /* \"contracts/7_MultipleSend.sol\":1803:1806  i++ */\n      dup1\n      dup1\n      tag_118\n      swap1\n      tag_119\n      jump\t// in\n    tag_118:\n      swap2\n      pop\n      pop\n        /* \"contracts/7_MultipleSend.sol\":1763:2037  for (uint i=0; i< playersInGame.length; i++) {... */\n      jump(tag_108)\n    tag_109:\n      pop\n        /* \"contracts/7_MultipleSend.sol\":1561:2043  {... */\n      pop\n        /* \"contracts/7_MultipleSend.sol\":1501:2043  function payOutWinners(address loserAddress) payable public {... */\n      pop\n      jump\t// out\n        /* \"contracts/7_MultipleSend.sol\":521:799  function addPlayer(string memory firstName, string memory lastName) private {... */\n    tag_71:\n        /* \"contracts/7_MultipleSend.sol\":607:630  Player memory newPlayer */\n      0x00\n        /* \"contracts/7_MultipleSend.sol\":633:712  Player(payable(msg.sender), Level.Novice, firstName, lastName, block.timestamp) */\n      mload(0x40)\n      dup1\n      0xa0\n      add\n      0x40\n      mstore\n      dup1\n        /* \"contracts/7_MultipleSend.sol\":648:658  msg.sender */\n      caller\n        /* \"contracts/7_MultipleSend.sol\":633:712  Player(payable(msg.sender), Level.Novice, firstName, lastName, block.timestamp) */\n      0xffffffffffffffffffffffffffffffffffffffff\n      and\n      dup2\n      mstore\n      0x20\n      add\n        /* \"contracts/7_MultipleSend.sol\":661:673  Level.Novice */\n      0x00\n        /* \"contracts/7_MultipleSend.sol\":633:712  Player(payable(msg.sender), Level.Novice, firstName, lastName, block.timestamp) */\n      0x02\n      dup2\n      gt\n      iszero\n      tag_121\n      jumpi\n      tag_122\n      tag_63\n      jump\t// in\n    tag_122:\n    tag_121:\n      dup2\n      mstore\n      0x20\n      add\n        /* \"contracts/7_MultipleSend.sol\":675:684  firstName */\n      dup5\n        /* \"contracts/7_MultipleSend.sol\":633:712  Player(payable(msg.sender), Level.Novice, firstName, lastName, block.timestamp) */\n      dup2\n      mstore\n      0x20\n      add\n        /* \"contracts/7_MultipleSend.sol\":686:694  lastName */\n      dup4\n        /* \"contracts/7_MultipleSend.sol\":633:712  Player(payable(msg.sender), Level.Novice, firstName, lastName, block.timestamp) */\n      dup2\n      mstore\n      0x20\n      add\n        /* \"contracts/7_MultipleSend.sol\":696:711  block.timestamp */\n      timestamp\n        /* \"contracts/7_MultipleSend.sol\":633:712  Player(payable(msg.sender), Level.Novice, firstName, lastName, block.timestamp) */\n      dup2\n      mstore\n      pop\n        /* \"contracts/7_MultipleSend.sol\":607:712  Player memory newPlayer = Player(payable(msg.sender), Level.Novice, firstName, lastName, block.timestamp) */\n      swap1\n      pop\n        /* \"contracts/7_MultipleSend.sol\":744:753  newPlayer */\n      dup1\n        /* \"contracts/7_MultipleSend.sol\":722:729  players */\n      0x04\n        /* \"contracts/7_MultipleSend.sol\":722:741  players[msg.sender] */\n      0x00\n        /* \"contracts/7_MultipleSend.sol\":730:740  msg.sender */\n      caller\n        /* \"contracts/7_MultipleSend.sol\":722:741  players[msg.sender] */\n      0xffffffffffffffffffffffffffffffffffffffff\n      and\n      0xffffffffffffffffffffffffffffffffffffffff\n      and\n      dup2\n      mstore\n      0x20\n      add\n      swap1\n      dup2\n      mstore\n      0x20\n      add\n      0x00\n      keccak256\n        /* \"contracts/7_MultipleSend.sol\":722:753  players[msg.sender] = newPlayer */\n      0x00\n      dup3\n      add\n      mload\n      dup2\n      0x00\n      add\n      exp(0x0100, 0x00)\n      dup2\n      sload\n      dup2\n      0xffffffffffffffffffffffffffffffffffffffff\n      mul\n      not\n      and\n      swap1\n      dup4\n      0xffffffffffffffffffffffffffffffffffffffff\n      and\n      mul\n      or\n      swap1\n      sstore\n      pop\n      0x20\n      dup3\n      add\n      mload\n      dup2\n      0x00\n      add\n      exp(0x0100, 0x14)\n      dup2\n      sload\n      dup2\n      0xff\n      mul\n      not\n      and\n      swap1\n      dup4\n      0x02\n      dup2\n      gt\n      iszero\n      tag_123\n      jumpi\n      tag_124\n      tag_63\n      jump\t// in\n    tag_124:\n    tag_123:\n      mul\n      or\n      swap1\n      sstore\n      pop\n      0x40\n      dup3\n      add\n      mload\n      dup2\n      0x01\n      add\n      swap1\n      dup1\n      mload\n      swap1\n      0x20\n      add\n      swap1\n      tag_125\n      swap3\n      swap2\n      swap1\n      tag_126\n      jump\t// in\n    tag_125:\n      pop\n      0x60\n      dup3\n      add\n      mload\n      dup2\n      0x02\n      add\n      swap1\n      dup1\n      mload\n      swap1\n      0x20\n      add\n      swap1\n      tag_127\n      swap3\n      swap2\n      swap1\n      tag_126\n      jump\t// in\n    tag_127:\n      pop\n      0x80\n      dup3\n      add\n      mload\n      dup2\n      0x03\n      add\n      sstore\n      swap1\n      pop\n      pop\n        /* \"contracts/7_MultipleSend.sol\":763:776  playersInGame */\n      0x03\n        /* \"contracts/7_MultipleSend.sol\":782:791  newPlayer */\n      dup2\n        /* \"contracts/7_MultipleSend.sol\":763:792  playersInGame.push(newPlayer) */\n      swap1\n      dup1\n      0x01\n      dup2\n      sload\n      add\n      dup1\n      dup3\n      sstore\n      dup1\n      swap2\n      pop\n      pop\n      0x01\n      swap1\n      sub\n      swap1\n      0x00\n      mstore\n      keccak256(0x00, 0x20)\n      swap1\n      0x04\n      mul\n      add\n      0x00\n      swap1\n      swap2\n      swap1\n      swap2\n      swap1\n      swap2\n      pop\n      0x00\n      dup3\n      add\n      mload\n      dup2\n      0x00\n      add\n      exp(0x0100, 0x00)\n      dup2\n      sload\n      dup2\n      0xffffffffffffffffffffffffffffffffffffffff\n      mul\n      not\n      and\n      swap1\n      dup4\n      0xffffffffffffffffffffffffffffffffffffffff\n      and\n      mul\n      or\n      swap1\n      sstore\n      pop\n      0x20\n      dup3\n      add\n      mload\n      dup2\n      0x00\n      add\n      exp(0x0100, 0x14)\n      dup2\n      sload\n      dup2\n      0xff\n      mul\n      not\n      and\n      swap1\n      dup4\n      0x02\n      dup2\n      gt\n      iszero\n      tag_129\n      jumpi\n      tag_130\n      tag_63\n      jump\t// in\n    tag_130:\n    tag_129:\n      mul\n      or\n      swap1\n      sstore\n      pop\n      0x40\n      dup3\n      add\n      mload\n      dup2\n      0x01\n      add\n      swap1\n      dup1\n      mload\n      swap1\n      0x20\n      add\n      swap1\n      tag_131\n      swap3\n      swap2\n      swap1\n      tag_126\n      jump\t// in\n    tag_131:\n      pop\n      0x60\n      dup3\n      add\n      mload\n      dup2\n      0x02\n      add\n      swap1\n      dup1\n      mload\n      swap1\n      0x20\n      add\n      swap1\n      tag_132\n      swap3\n      swap2\n      swap1\n      tag_126\n      jump\t// in\n    tag_132:\n      pop\n      0x80\n      dup3\n      add\n      mload\n      dup2\n      0x03\n      add\n      sstore\n      pop\n      pop\n        /* \"contracts/7_MultipleSend.sol\":597:799  {... */\n      pop\n        /* \"contracts/7_MultipleSend.sol\":521:799  function addPlayer(string memory firstName, string memory lastName) private {... */\n      pop\n      pop\n      jump\t// out\n    tag_126:\n      dup3\n      dup1\n      sload\n      tag_133\n      swap1\n      tag_75\n      jump\t// in\n    tag_133:\n      swap1\n      0x00\n      mstore\n      keccak256(0x00, 0x20)\n      swap1\n      0x1f\n      add\n      0x20\n      swap1\n      div\n      dup2\n      add\n      swap3\n      dup3\n      tag_135\n      jumpi\n      0x00\n      dup6\n      sstore\n      jump(tag_134)\n    tag_135:\n      dup3\n      0x1f\n      lt\n      tag_136\n      jumpi\n      dup1\n      mload\n      not(0xff)\n      and\n      dup4\n      dup1\n      add\n      or\n      dup6\n      sstore\n      jump(tag_134)\n    tag_136:\n      dup3\n      dup1\n      add\n      0x01\n      add\n      dup6\n      sstore\n      dup3\n      iszero\n      tag_134\n      jumpi\n      swap2\n      dup3\n      add\n    tag_137:\n      dup3\n      dup2\n      gt\n      iszero\n      tag_138\n      jumpi\n      dup3\n      mload\n      dup3\n      sstore\n      swap2\n      0x20\n      add\n      swap2\n      swap1\n      0x01\n      add\n      swap1\n      jump(tag_137)\n    tag_138:\n    tag_134:\n      pop\n      swap1\n      pop\n      tag_139\n      swap2\n      swap1\n      tag_140\n      jump\t// in\n    tag_139:\n      pop\n      swap1\n      jump\t// out\n    tag_140:\n    tag_141:\n      dup1\n      dup3\n      gt\n      iszero\n      tag_142\n      jumpi\n      0x00\n      dup2\n      0x00\n      swap1\n      sstore\n      pop\n      0x01\n      add\n      jump(tag_141)\n    tag_142:\n      pop\n      swap1\n      jump\t// out\n        /* \"#utility.yul\":7:84   */\n    tag_143:\n        /* \"#utility.yul\":44:51   */\n      0x00\n        /* \"#utility.yul\":73:78   */\n      dup2\n        /* \"#utility.yul\":62:78   */\n      swap1\n      pop\n        /* \"#utility.yul\":7:84   */\n      swap2\n      swap1\n      pop\n      jump\t// out\n        /* \"#utility.yul\":90:208   */\n    tag_144:\n        /* \"#utility.yul\":177:201   */\n      tag_184\n        /* \"#utility.yul\":195:200   */\n      dup2\n        /* \"#utility.yul\":177:201   */\n      tag_143\n      jump\t// in\n    tag_184:\n        /* \"#utility.yul\":172:175   */\n      dup3\n        /* \"#utility.yul\":165:202   */\n      mstore\n        /* \"#utility.yul\":90:208   */\n      pop\n      pop\n      jump\t// out\n        /* \"#utility.yul\":214:436   */\n    tag_16:\n        /* \"#utility.yul\":307:311   */\n      0x00\n        /* \"#utility.yul\":345:347   */\n      0x20\n        /* \"#utility.yul\":334:343   */\n      dup3\n        /* \"#utility.yul\":330:348   */\n      add\n        /* \"#utility.yul\":322:348   */\n      swap1\n      pop\n        /* \"#utility.yul\":358:429   */\n      tag_186\n        /* \"#utility.yul\":426:427   */\n      0x00\n        /* \"#utility.yul\":415:424   */\n      dup4\n        /* \"#utility.yul\":411:428   */\n      add\n        /* \"#utility.yul\":402:408   */\n      dup5\n        /* \"#utility.yul\":358:429   */\n      tag_144\n      jump\t// in\n    tag_186:\n        /* \"#utility.yul\":214:436   */\n      swap3\n      swap2\n      pop\n      pop\n      jump\t// out\n        /* \"#utility.yul\":442:517   */\n    tag_145:\n        /* \"#utility.yul\":475:481   */\n      0x00\n        /* \"#utility.yul\":508:510   */\n      0x40\n        /* \"#utility.yul\":502:511   */\n      mload\n        /* \"#utility.yul\":492:511   */\n      swap1\n      pop\n        /* \"#utility.yul\":442:517   */\n      swap1\n      jump\t// out\n        /* \"#utility.yul\":523:640   */\n    tag_146:\n        /* \"#utility.yul\":632:633   */\n      0x00\n        /* \"#utility.yul\":629:630   */\n      dup1\n        /* \"#utility.yul\":622:634   */\n      revert\n        /* \"#utility.yul\":646:763   */\n    tag_147:\n        /* \"#utility.yul\":755:756   */\n      0x00\n        /* \"#utility.yul\":752:753   */\n      dup1\n        /* \"#utility.yul\":745:757   */\n      revert\n        /* \"#utility.yul\":769:895   */\n    tag_148:\n        /* \"#utility.yul\":806:813   */\n      0x00\n        /* \"#utility.yul\":846:888   */\n      0xffffffffffffffffffffffffffffffffffffffff\n        /* \"#utility.yul\":839:844   */\n      dup3\n        /* \"#utility.yul\":835:889   */\n      and\n        /* \"#utility.yul\":824:889   */\n      swap1\n      pop\n        /* \"#utility.yul\":769:895   */\n      swap2\n      swap1\n      pop\n      jump\t// out\n        /* \"#utility.yul\":901:997   */\n    tag_149:\n        /* \"#utility.yul\":938:945   */\n      0x00\n        /* \"#utility.yul\":967:991   */\n      tag_192\n        /* \"#utility.yul\":985:990   */\n      dup3\n        /* \"#utility.yul\":967:991   */\n      tag_148\n      jump\t// in\n    tag_192:\n        /* \"#utility.yul\":956:991   */\n      swap1\n      pop\n        /* \"#utility.yul\":901:997   */\n      swap2\n      swap1\n      pop\n      jump\t// out\n        /* \"#utility.yul\":1003:1125   */\n    tag_150:\n        /* \"#utility.yul\":1076:1100   */\n      tag_194\n        /* \"#utility.yul\":1094:1099   */\n      dup2\n        /* \"#utility.yul\":1076:1100   */\n      tag_149\n      jump\t// in\n    tag_194:\n        /* \"#utility.yul\":1069:1074   */\n      dup2\n        /* \"#utility.yul\":1066:1101   */\n      eq\n        /* \"#utility.yul\":1056:1119   */\n      tag_195\n      jumpi\n        /* \"#utility.yul\":1115:1116   */\n      0x00\n        /* \"#utility.yul\":1112:1113   */\n      dup1\n        /* \"#utility.yul\":1105:1117   */\n      revert\n        /* \"#utility.yul\":1056:1119   */\n    tag_195:\n        /* \"#utility.yul\":1003:1125   */\n      pop\n      jump\t// out\n        /* \"#utility.yul\":1131:1270   */\n    tag_151:\n        /* \"#utility.yul\":1177:1182   */\n      0x00\n        /* \"#utility.yul\":1215:1221   */\n      dup2\n        /* \"#utility.yul\":1202:1222   */\n      calldataload\n        /* \"#utility.yul\":1193:1222   */\n      swap1\n      pop\n        /* \"#utility.yul\":1231:1264   */\n      tag_197\n        /* \"#utility.yul\":1258:1263   */\n      dup2\n        /* \"#utility.yul\":1231:1264   */\n      tag_150\n      jump\t// in\n    tag_197:\n        /* \"#utility.yul\":1131:1270   */\n      swap3\n      swap2\n      pop\n      pop\n      jump\t// out\n        /* \"#utility.yul\":1276:1605   */\n    tag_20:\n        /* \"#utility.yul\":1335:1341   */\n      0x00\n        /* \"#utility.yul\":1384:1386   */\n      0x20\n        /* \"#utility.yul\":1372:1381   */\n      dup3\n        /* \"#utility.yul\":1363:1370   */\n      dup5\n        /* \"#utility.yul\":1359:1382   */\n      sub\n        /* \"#utility.yul\":1355:1387   */\n      slt\n        /* \"#utility.yul\":1352:1471   */\n      iszero\n      tag_199\n      jumpi\n        /* \"#utility.yul\":1390:1469   */\n      tag_200\n      tag_146\n      jump\t// in\n    tag_200:\n        /* \"#utility.yul\":1352:1471   */\n    tag_199:\n        /* \"#utility.yul\":1510:1511   */\n      0x00\n        /* \"#utility.yul\":1535:1588   */\n      tag_201\n        /* \"#utility.yul\":1580:1587   */\n      dup5\n        /* \"#utility.yul\":1571:1577   */\n      dup3\n        /* \"#utility.yul\":1560:1569   */\n      dup6\n        /* \"#utility.yul\":1556:1578   */\n      add\n        /* \"#utility.yul\":1535:1588   */\n      tag_151\n      jump\t// in\n    tag_201:\n        /* \"#utility.yul\":1525:1588   */\n      swap2\n      pop\n        /* \"#utility.yul\":1481:1598   */\n      pop\n        /* \"#utility.yul\":1276:1605   */\n      swap3\n      swap2\n      pop\n      pop\n      jump\t// out\n        /* \"#utility.yul\":1611:1791   */\n    tag_63:\n        /* \"#utility.yul\":1659:1736   */\n      0x4e487b7100000000000000000000000000000000000000000000000000000000\n        /* \"#utility.yul\":1656:1657   */\n      0x00\n        /* \"#utility.yul\":1649:1737   */\n      mstore\n        /* \"#utility.yul\":1756:1760   */\n      0x21\n        /* \"#utility.yul\":1753:1754   */\n      0x04\n        /* \"#utility.yul\":1746:1761   */\n      mstore\n        /* \"#utility.yul\":1780:1784   */\n      0x24\n        /* \"#utility.yul\":1777:1778   */\n      0x00\n        /* \"#utility.yul\":1770:1785   */\n      revert\n        /* \"#utility.yul\":1797:1910   */\n    tag_152:\n        /* \"#utility.yul\":1878:1879   */\n      0x03\n        /* \"#utility.yul\":1871:1876   */\n      dup2\n        /* \"#utility.yul\":1868:1880   */\n      lt\n        /* \"#utility.yul\":1858:1904   */\n      tag_204\n      jumpi\n        /* \"#utility.yul\":1884:1902   */\n      tag_205\n      tag_63\n      jump\t// in\n    tag_205:\n        /* \"#utility.yul\":1858:1904   */\n    tag_204:\n        /* \"#utility.yul\":1797:1910   */\n      pop\n      jump\t// out\n        /* \"#utility.yul\":1916:2043   */\n    tag_153:\n        /* \"#utility.yul\":1961:1968   */\n      0x00\n        /* \"#utility.yul\":1990:1995   */\n      dup2\n        /* \"#utility.yul\":1979:1995   */\n      swap1\n      pop\n        /* \"#utility.yul\":1996:2037   */\n      tag_207\n        /* \"#utility.yul\":2031:2036   */\n      dup3\n        /* \"#utility.yul\":1996:2037   */\n      tag_152\n      jump\t// in\n    tag_207:\n        /* \"#utility.yul\":1916:2043   */\n      swap2\n      swap1\n      pop\n      jump\t// out\n        /* \"#utility.yul\":2049:2176   */\n    tag_154:\n        /* \"#utility.yul\":2105:2114   */\n      0x00\n        /* \"#utility.yul\":2138:2170   */\n      tag_209\n        /* \"#utility.yul\":2164:2169   */\n      dup3\n        /* \"#utility.yul\":2138:2170   */\n      tag_153\n      jump\t// in\n    tag_209:\n        /* \"#utility.yul\":2125:2170   */\n      swap1\n      pop\n        /* \"#utility.yul\":2049:2176   */\n      swap2\n      swap1\n      pop\n      jump\t// out\n        /* \"#utility.yul\":2182:2325   */\n    tag_155:\n        /* \"#utility.yul\":2275:2318   */\n      tag_211\n        /* \"#utility.yul\":2312:2317   */\n      dup2\n        /* \"#utility.yul\":2275:2318   */\n      tag_154\n      jump\t// in\n    tag_211:\n        /* \"#utility.yul\":2270:2273   */\n      dup3\n        /* \"#utility.yul\":2263:2319   */\n      mstore\n        /* \"#utility.yul\":2182:2325   */\n      pop\n      pop\n      jump\t// out\n        /* \"#utility.yul\":2331:2565   */\n    tag_23:\n        /* \"#utility.yul\":2430:2434   */\n      0x00\n        /* \"#utility.yul\":2468:2470   */\n      0x20\n        /* \"#utility.yul\":2457:2466   */\n      dup3\n        /* \"#utility.yul\":2453:2471   */\n      add\n        /* \"#utility.yul\":2445:2471   */\n      swap1\n      pop\n        /* \"#utility.yul\":2481:2558   */\n      tag_213\n        /* \"#utility.yul\":2555:2556   */\n      0x00\n        /* \"#utility.yul\":2544:2553   */\n      dup4\n        /* \"#utility.yul\":2540:2557   */\n      add\n        /* \"#utility.yul\":2531:2537   */\n      dup5\n        /* \"#utility.yul\":2481:2558   */\n      tag_155\n      jump\t// in\n    tag_213:\n        /* \"#utility.yul\":2331:2565   */\n      swap3\n      swap2\n      pop\n      pop\n      jump\t// out\n        /* \"#utility.yul\":2571:2675   */\n    tag_156:\n        /* \"#utility.yul\":2616:2623   */\n      0x00\n        /* \"#utility.yul\":2645:2669   */\n      tag_215\n        /* \"#utility.yul\":2663:2668   */\n      dup3\n        /* \"#utility.yul\":2645:2669   */\n      tag_148\n      jump\t// in\n    tag_215:\n        /* \"#utility.yul\":2634:2669   */\n      swap1\n      pop\n        /* \"#utility.yul\":2571:2675   */\n      swap2\n      swap1\n      pop\n      jump\t// out\n        /* \"#utility.yul\":2681:2823   */\n    tag_157:\n        /* \"#utility.yul\":2784:2816   */\n      tag_217\n        /* \"#utility.yul\":2810:2815   */\n      dup2\n        /* \"#utility.yul\":2784:2816   */\n      tag_156\n      jump\t// in\n    tag_217:\n        /* \"#utility.yul\":2779:2782   */\n      dup3\n        /* \"#utility.yul\":2772:2817   */\n      mstore\n        /* \"#utility.yul\":2681:2823   */\n      pop\n      pop\n      jump\t// out\n        /* \"#utility.yul\":2829:3083   */\n    tag_36:\n        /* \"#utility.yul\":2938:2942   */\n      0x00\n        /* \"#utility.yul\":2976:2978   */\n      0x20\n        /* \"#utility.yul\":2965:2974   */\n      dup3\n        /* \"#utility.yul\":2961:2979   */\n      add\n        /* \"#utility.yul\":2953:2979   */\n      swap1\n      pop\n        /* \"#utility.yul\":2989:3076   */\n      tag_219\n        /* \"#utility.yul\":3073:3074   */\n      0x00\n        /* \"#utility.yul\":3062:3071   */\n      dup4\n        /* \"#utility.yul\":3058:3075   */\n      add\n        /* \"#utility.yul\":3049:3055   */\n      dup5\n        /* \"#utility.yul\":2989:3076   */\n      tag_157\n      jump\t// in\n    tag_219:\n        /* \"#utility.yul\":2829:3083   */\n      swap3\n      swap2\n      pop\n      pop\n      jump\t// out\n        /* \"#utility.yul\":3089:3206   */\n    tag_158:\n        /* \"#utility.yul\":3198:3199   */\n      0x00\n        /* \"#utility.yul\":3195:3196   */\n      dup1\n        /* \"#utility.yul\":3188:3200   */\n      revert\n        /* \"#utility.yul\":3212:3329   */\n    tag_159:\n        /* \"#utility.yul\":3321:3322   */\n      0x00\n        /* \"#utility.yul\":3318:3319   */\n      dup1\n        /* \"#utility.yul\":3311:3323   */\n      revert\n        /* \"#utility.yul\":3335:3437   */\n    tag_160:\n        /* \"#utility.yul\":3376:3382   */\n      0x00\n        /* \"#utility.yul\":3427:3429   */\n      0x1f\n        /* \"#utility.yul\":3423:3430   */\n      not\n        /* \"#utility.yul\":3418:3420   */\n      0x1f\n        /* \"#utility.yul\":3411:3416   */\n      dup4\n        /* \"#utility.yul\":3407:3421   */\n      add\n        /* \"#utility.yul\":3403:3431   */\n      and\n        /* \"#utility.yul\":3393:3431   */\n      swap1\n      pop\n        /* \"#utility.yul\":3335:3437   */\n      swap2\n      swap1\n      pop\n      jump\t// out\n        /* \"#utility.yul\":3443:3623   */\n    tag_161:\n        /* \"#utility.yul\":3491:3568   */\n      0x4e487b7100000000000000000000000000000000000000000000000000000000\n        /* \"#utility.yul\":3488:3489   */\n      0x00\n        /* \"#utility.yul\":3481:3569   */\n      mstore\n        /* \"#utility.yul\":3588:3592   */\n      0x41\n        /* \"#utility.yul\":3585:3586   */\n      0x04\n        /* \"#utility.yul\":3578:3593   */\n      mstore\n        /* \"#utility.yul\":3612:3616   */\n      0x24\n        /* \"#utility.yul\":3609:3610   */\n      0x00\n        /* \"#utility.yul\":3602:3617   */\n      revert\n        /* \"#utility.yul\":3629:3910   */\n    tag_162:\n        /* \"#utility.yul\":3712:3739   */\n      tag_225\n        /* \"#utility.yul\":3734:3738   */\n      dup3\n        /* \"#utility.yul\":3712:3739   */\n      tag_160\n      jump\t// in\n    tag_225:\n        /* \"#utility.yul\":3704:3710   */\n      dup2\n        /* \"#utility.yul\":3700:3740   */\n      add\n        /* \"#utility.yul\":3842:3848   */\n      dup2\n        /* \"#utility.yul\":3830:3840   */\n      dup2\n        /* \"#utility.yul\":3827:3849   */\n      lt\n        /* \"#utility.yul\":3806:3824   */\n      0xffffffffffffffff\n        /* \"#utility.yul\":3794:3804   */\n      dup3\n        /* \"#utility.yul\":3791:3825   */\n      gt\n        /* \"#utility.yul\":3788:3850   */\n      or\n        /* \"#utility.yul\":3785:3873   */\n      iszero\n      tag_226\n      jumpi\n        /* \"#utility.yul\":3853:3871   */\n      tag_227\n      tag_161\n      jump\t// in\n    tag_227:\n        /* \"#utility.yul\":3785:3873   */\n    tag_226:\n        /* \"#utility.yul\":3893:3903   */\n      dup1\n        /* \"#utility.yul\":3889:3891   */\n      0x40\n        /* \"#utility.yul\":3882:3904   */\n      mstore\n        /* \"#utility.yul\":3672:3910   */\n      pop\n        /* \"#utility.yul\":3629:3910   */\n      pop\n      pop\n      jump\t// out\n        /* \"#utility.yul\":3916:4045   */\n    tag_163:\n        /* \"#utility.yul\":3950:3956   */\n      0x00\n        /* \"#utility.yul\":3977:3997   */\n      tag_229\n      tag_145\n      jump\t// in\n    tag_229:\n        /* \"#utility.yul\":3967:3997   */\n      swap1\n      pop\n        /* \"#utility.yul\":4006:4039   */\n      tag_230\n        /* \"#utility.yul\":4034:4038   */\n      dup3\n        /* \"#utility.yul\":4026:4032   */\n      dup3\n        /* \"#utility.yul\":4006:4039   */\n      tag_162\n      jump\t// in\n    tag_230:\n        /* \"#utility.yul\":3916:4045   */\n      swap2\n      swap1\n      pop\n      jump\t// out\n        /* \"#utility.yul\":4051:4359   */\n    tag_164:\n        /* \"#utility.yul\":4113:4117   */\n      0x00\n        /* \"#utility.yul\":4203:4221   */\n      0xffffffffffffffff\n        /* \"#utility.yul\":4195:4201   */\n      dup3\n        /* \"#utility.yul\":4192:4222   */\n      gt\n        /* \"#utility.yul\":4189:4245   */\n      iszero\n      tag_232\n      jumpi\n        /* \"#utility.yul\":4225:4243   */\n      tag_233\n      tag_161\n      jump\t// in\n    tag_233:\n        /* \"#utility.yul\":4189:4245   */\n    tag_232:\n        /* \"#utility.yul\":4263:4292   */\n      tag_234\n        /* \"#utility.yul\":4285:4291   */\n      dup3\n        /* \"#utility.yul\":4263:4292   */\n      tag_160\n      jump\t// in\n    tag_234:\n        /* \"#utility.yul\":4255:4292   */\n      swap1\n      pop\n        /* \"#utility.yul\":4347:4351   */\n      0x20\n        /* \"#utility.yul\":4341:4345   */\n      dup2\n        /* \"#utility.yul\":4337:4352   */\n      add\n        /* \"#utility.yul\":4329:4352   */\n      swap1\n      pop\n        /* \"#utility.yul\":4051:4359   */\n      swap2\n      swap1\n      pop\n      jump\t// out\n        /* \"#utility.yul\":4365:4519   */\n    tag_165:\n        /* \"#utility.yul\":4449:4455   */\n      dup3\n        /* \"#utility.yul\":4444:4447   */\n      dup2\n        /* \"#utility.yul\":4439:4442   */\n      dup4\n        /* \"#utility.yul\":4426:4456   */\n      calldatacopy\n        /* \"#utility.yul\":4511:4512   */\n      0x00\n        /* \"#utility.yul\":4502:4508   */\n      dup4\n        /* \"#utility.yul\":4497:4500   */\n      dup4\n        /* \"#utility.yul\":4493:4509   */\n      add\n        /* \"#utility.yul\":4486:4513   */\n      mstore\n        /* \"#utility.yul\":4365:4519   */\n      pop\n      pop\n      pop\n      jump\t// out\n        /* \"#utility.yul\":4525:4937   */\n    tag_166:\n        /* \"#utility.yul\":4603:4608   */\n      0x00\n        /* \"#utility.yul\":4628:4694   */\n      tag_237\n        /* \"#utility.yul\":4644:4693   */\n      tag_238\n        /* \"#utility.yul\":4686:4692   */\n      dup5\n        /* \"#utility.yul\":4644:4693   */\n      tag_164\n      jump\t// in\n    tag_238:\n        /* \"#utility.yul\":4628:4694   */\n      tag_163\n      jump\t// in\n    tag_237:\n        /* \"#utility.yul\":4619:4694   */\n      swap1\n      pop\n        /* \"#utility.yul\":4717:4723   */\n      dup3\n        /* \"#utility.yul\":4710:4715   */\n      dup2\n        /* \"#utility.yul\":4703:4724   */\n      mstore\n        /* \"#utility.yul\":4755:4759   */\n      0x20\n        /* \"#utility.yul\":4748:4753   */\n      dup2\n        /* \"#utility.yul\":4744:4760   */\n      add\n        /* \"#utility.yul\":4793:4796   */\n      dup5\n        /* \"#utility.yul\":4784:4790   */\n      dup5\n        /* \"#utility.yul\":4779:4782   */\n      dup5\n        /* \"#utility.yul\":4775:4791   */\n      add\n        /* \"#utility.yul\":4772:4797   */\n      gt\n        /* \"#utility.yul\":4769:4881   */\n      iszero\n      tag_239\n      jumpi\n        /* \"#utility.yul\":4800:4879   */\n      tag_240\n      tag_159\n      jump\t// in\n    tag_240:\n        /* \"#utility.yul\":4769:4881   */\n    tag_239:\n        /* \"#utility.yul\":4890:4931   */\n      tag_241\n        /* \"#utility.yul\":4924:4930   */\n      dup5\n        /* \"#utility.yul\":4919:4922   */\n      dup3\n        /* \"#utility.yul\":4914:4917   */\n      dup6\n        /* \"#utility.yul\":4890:4931   */\n      tag_165\n      jump\t// in\n    tag_241:\n        /* \"#utility.yul\":4609:4937   */\n      pop\n        /* \"#utility.yul\":4525:4937   */\n      swap4\n      swap3\n      pop\n      pop\n      pop\n      jump\t// out\n        /* \"#utility.yul\":4957:5297   */\n    tag_167:\n        /* \"#utility.yul\":5013:5018   */\n      0x00\n        /* \"#utility.yul\":5062:5065   */\n      dup3\n        /* \"#utility.yul\":5055:5059   */\n      0x1f\n        /* \"#utility.yul\":5047:5053   */\n      dup4\n        /* \"#utility.yul\":5043:5060   */\n      add\n        /* \"#utility.yul\":5039:5066   */\n      slt\n        /* \"#utility.yul\":5029:5151   */\n      tag_243\n      jumpi\n        /* \"#utility.yul\":5070:5149   */\n      tag_244\n      tag_158\n      jump\t// in\n    tag_244:\n        /* \"#utility.yul\":5029:5151   */\n    tag_243:\n        /* \"#utility.yul\":5187:5193   */\n      dup2\n        /* \"#utility.yul\":5174:5194   */\n      calldataload\n        /* \"#utility.yul\":5212:5291   */\n      tag_245\n        /* \"#utility.yul\":5287:5290   */\n      dup5\n        /* \"#utility.yul\":5279:5285   */\n      dup3\n        /* \"#utility.yul\":5272:5276   */\n      0x20\n        /* \"#utility.yul\":5264:5270   */\n      dup7\n        /* \"#utility.yul\":5260:5277   */\n      add\n        /* \"#utility.yul\":5212:5291   */\n      tag_166\n      jump\t// in\n    tag_245:\n        /* \"#utility.yul\":5203:5291   */\n      swap2\n      pop\n        /* \"#utility.yul\":5019:5297   */\n      pop\n        /* \"#utility.yul\":4957:5297   */\n      swap3\n      swap2\n      pop\n      pop\n      jump\t// out\n        /* \"#utility.yul\":5303:6137   */\n    tag_39:\n        /* \"#utility.yul\":5391:5397   */\n      0x00\n        /* \"#utility.yul\":5399:5405   */\n      dup1\n        /* \"#utility.yul\":5448:5450   */\n      0x40\n        /* \"#utility.yul\":5436:5445   */\n      dup4\n        /* \"#utility.yul\":5427:5434   */\n      dup6\n        /* \"#utility.yul\":5423:5446   */\n      sub\n        /* \"#utility.yul\":5419:5451   */\n      slt\n        /* \"#utility.yul\":5416:5535   */\n      iszero\n      tag_247\n      jumpi\n        /* \"#utility.yul\":5454:5533   */\n      tag_248\n      tag_146\n      jump\t// in\n    tag_248:\n        /* \"#utility.yul\":5416:5535   */\n    tag_247:\n        /* \"#utility.yul\":5602:5603   */\n      0x00\n        /* \"#utility.yul\":5591:5600   */\n      dup4\n        /* \"#utility.yul\":5587:5604   */\n      add\n        /* \"#utility.yul\":5574:5605   */\n      calldataload\n        /* \"#utility.yul\":5632:5650   */\n      0xffffffffffffffff\n        /* \"#utility.yul\":5624:5630   */\n      dup2\n        /* \"#utility.yul\":5621:5651   */\n      gt\n        /* \"#utility.yul\":5618:5735   */\n      iszero\n      tag_249\n      jumpi\n        /* \"#utility.yul\":5654:5733   */\n      tag_250\n      tag_147\n      jump\t// in\n    tag_250:\n        /* \"#utility.yul\":5618:5735   */\n    tag_249:\n        /* \"#utility.yul\":5759:5822   */\n      tag_251\n        /* \"#utility.yul\":5814:5821   */\n      dup6\n        /* \"#utility.yul\":5805:5811   */\n      dup3\n        /* \"#utility.yul\":5794:5803   */\n      dup7\n        /* \"#utility.yul\":5790:5812   */\n      add\n        /* \"#utility.yul\":5759:5822   */\n      tag_167\n      jump\t// in\n    tag_251:\n        /* \"#utility.yul\":5749:5822   */\n      swap3\n      pop\n        /* \"#utility.yul\":5545:5832   */\n      pop\n        /* \"#utility.yul\":5899:5901   */\n      0x20\n        /* \"#utility.yul\":5888:5897   */\n      dup4\n        /* \"#utility.yul\":5884:5902   */\n      add\n        /* \"#utility.yul\":5871:5903   */\n      calldataload\n        /* \"#utility.yul\":5930:5948   */\n      0xffffffffffffffff\n        /* \"#utility.yul\":5922:5928   */\n      dup2\n        /* \"#utility.yul\":5919:5949   */\n      gt\n        /* \"#utility.yul\":5916:6033   */\n      iszero\n      tag_252\n      jumpi\n        /* \"#utility.yul\":5952:6031   */\n      tag_253\n      tag_147\n      jump\t// in\n    tag_253:\n        /* \"#utility.yul\":5916:6033   */\n    tag_252:\n        /* \"#utility.yul\":6057:6120   */\n      tag_254\n        /* \"#utility.yul\":6112:6119   */\n      dup6\n        /* \"#utility.yul\":6103:6109   */\n      dup3\n        /* \"#utility.yul\":6092:6101   */\n      dup7\n        /* \"#utility.yul\":6088:6110   */\n      add\n        /* \"#utility.yul\":6057:6120   */\n      tag_167\n      jump\t// in\n    tag_254:\n        /* \"#utility.yul\":6047:6120   */\n      swap2\n      pop\n        /* \"#utility.yul\":5842:6130   */\n      pop\n        /* \"#utility.yul\":5303:6137   */\n      swap3\n      pop\n      swap3\n      swap1\n      pop\n      jump\t// out\n        /* \"#utility.yul\":6143:6242   */\n    tag_168:\n        /* \"#utility.yul\":6195:6201   */\n      0x00\n        /* \"#utility.yul\":6229:6234   */\n      dup2\n        /* \"#utility.yul\":6223:6235   */\n      mload\n        /* \"#utility.yul\":6213:6235   */\n      swap1\n      pop\n        /* \"#utility.yul\":6143:6242   */\n      swap2\n      swap1\n      pop\n      jump\t// out\n        /* \"#utility.yul\":6248:6417   */\n    tag_169:\n        /* \"#utility.yul\":6332:6343   */\n      0x00\n        /* \"#utility.yul\":6366:6372   */\n      dup3\n        /* \"#utility.yul\":6361:6364   */\n      dup3\n        /* \"#utility.yul\":6354:6373   */\n      mstore\n        /* \"#utility.yul\":6406:6410   */\n      0x20\n        /* \"#utility.yul\":6401:6404   */\n      dup3\n        /* \"#utility.yul\":6397:6411   */\n      add\n        /* \"#utility.yul\":6382:6411   */\n      swap1\n      pop\n        /* \"#utility.yul\":6248:6417   */\n      swap3\n      swap2\n      pop\n      pop\n      jump\t// out\n        /* \"#utility.yul\":6423:6730   */\n    tag_170:\n        /* \"#utility.yul\":6491:6492   */\n      0x00\n        /* \"#utility.yul\":6501:6614   */\n    tag_258:\n        /* \"#utility.yul\":6515:6521   */\n      dup4\n        /* \"#utility.yul\":6512:6513   */\n      dup2\n        /* \"#utility.yul\":6509:6522   */\n      lt\n        /* \"#utility.yul\":6501:6614   */\n      iszero\n      tag_260\n      jumpi\n        /* \"#utility.yul\":6600:6601   */\n      dup1\n        /* \"#utility.yul\":6595:6598   */\n      dup3\n        /* \"#utility.yul\":6591:6602   */\n      add\n        /* \"#utility.yul\":6585:6603   */\n      mload\n        /* \"#utility.yul\":6581:6582   */\n      dup2\n        /* \"#utility.yul\":6576:6579   */\n      dup5\n        /* \"#utility.yul\":6572:6583   */\n      add\n        /* \"#utility.yul\":6565:6604   */\n      mstore\n        /* \"#utility.yul\":6537:6539   */\n      0x20\n        /* \"#utility.yul\":6534:6535   */\n      dup2\n        /* \"#utility.yul\":6530:6540   */\n      add\n        /* \"#utility.yul\":6525:6540   */\n      swap1\n      pop\n        /* \"#utility.yul\":6501:6614   */\n      jump(tag_258)\n    tag_260:\n        /* \"#utility.yul\":6632:6638   */\n      dup4\n        /* \"#utility.yul\":6629:6630   */\n      dup2\n        /* \"#utility.yul\":6626:6639   */\n      gt\n        /* \"#utility.yul\":6623:6724   */\n      iszero\n      tag_261\n      jumpi\n        /* \"#utility.yul\":6712:6713   */\n      0x00\n        /* \"#utility.yul\":6703:6709   */\n      dup5\n        /* \"#utility.yul\":6698:6701   */\n      dup5\n        /* \"#utility.yul\":6694:6710   */\n      add\n        /* \"#utility.yul\":6687:6714   */\n      mstore\n        /* \"#utility.yul\":6623:6724   */\n    tag_261:\n        /* \"#utility.yul\":6472:6730   */\n      pop\n        /* \"#utility.yul\":6423:6730   */\n      pop\n      pop\n      pop\n      jump\t// out\n        /* \"#utility.yul\":6736:7100   */\n    tag_171:\n        /* \"#utility.yul\":6824:6827   */\n      0x00\n        /* \"#utility.yul\":6852:6891   */\n      tag_263\n        /* \"#utility.yul\":6885:6890   */\n      dup3\n        /* \"#utility.yul\":6852:6891   */\n      tag_168\n      jump\t// in\n    tag_263:\n        /* \"#utility.yul\":6907:6978   */\n      tag_264\n        /* \"#utility.yul\":6971:6977   */\n      dup2\n        /* \"#utility.yul\":6966:6969   */\n      dup6\n        /* \"#utility.yul\":6907:6978   */\n      tag_169\n      jump\t// in\n    tag_264:\n        /* \"#utility.yul\":6900:6978   */\n      swap4\n      pop\n        /* \"#utility.yul\":6987:7039   */\n      tag_265\n        /* \"#utility.yul\":7032:7038   */\n      dup2\n        /* \"#utility.yul\":7027:7030   */\n      dup6\n        /* \"#utility.yul\":7020:7024   */\n      0x20\n        /* \"#utility.yul\":7013:7018   */\n      dup7\n        /* \"#utility.yul\":7009:7025   */\n      add\n        /* \"#utility.yul\":6987:7039   */\n      tag_170\n      jump\t// in\n    tag_265:\n        /* \"#utility.yul\":7064:7093   */\n      tag_266\n        /* \"#utility.yul\":7086:7092   */\n      dup2\n        /* \"#utility.yul\":7064:7093   */\n      tag_160\n      jump\t// in\n    tag_266:\n        /* \"#utility.yul\":7059:7062   */\n      dup5\n        /* \"#utility.yul\":7055:7094   */\n      add\n        /* \"#utility.yul\":7048:7094   */\n      swap2\n      pop\n        /* \"#utility.yul\":6828:7100   */\n      pop\n        /* \"#utility.yul\":6736:7100   */\n      swap3\n      swap2\n      pop\n      pop\n      jump\t// out\n        /* \"#utility.yul\":7106:7996   */\n    tag_46:\n        /* \"#utility.yul\":7373:7377   */\n      0x00\n        /* \"#utility.yul\":7411:7414   */\n      0xa0\n        /* \"#utility.yul\":7400:7409   */\n      dup3\n        /* \"#utility.yul\":7396:7415   */\n      add\n        /* \"#utility.yul\":7388:7415   */\n      swap1\n      pop\n        /* \"#utility.yul\":7425:7512   */\n      tag_268\n        /* \"#utility.yul\":7509:7510   */\n      0x00\n        /* \"#utility.yul\":7498:7507   */\n      dup4\n        /* \"#utility.yul\":7494:7511   */\n      add\n        /* \"#utility.yul\":7485:7491   */\n      dup9\n        /* \"#utility.yul\":7425:7512   */\n      tag_157\n      jump\t// in\n    tag_268:\n        /* \"#utility.yul\":7522:7600   */\n      tag_269\n        /* \"#utility.yul\":7596:7598   */\n      0x20\n        /* \"#utility.yul\":7585:7594   */\n      dup4\n        /* \"#utility.yul\":7581:7599   */\n      add\n        /* \"#utility.yul\":7572:7578   */\n      dup8\n        /* \"#utility.yul\":7522:7600   */\n      tag_155\n      jump\t// in\n    tag_269:\n        /* \"#utility.yul\":7647:7656   */\n      dup2\n        /* \"#utility.yul\":7641:7645   */\n      dup2\n        /* \"#utility.yul\":7637:7657   */\n      sub\n        /* \"#utility.yul\":7632:7634   */\n      0x40\n        /* \"#utility.yul\":7621:7630   */\n      dup4\n        /* \"#utility.yul\":7617:7635   */\n      add\n        /* \"#utility.yul\":7610:7658   */\n      mstore\n        /* \"#utility.yul\":7675:7753   */\n      tag_270\n        /* \"#utility.yul\":7748:7752   */\n      dup2\n        /* \"#utility.yul\":7739:7745   */\n      dup7\n        /* \"#utility.yul\":7675:7753   */\n      tag_171\n      jump\t// in\n    tag_270:\n        /* \"#utility.yul\":7667:7753   */\n      swap1\n      pop\n        /* \"#utility.yul\":7800:7809   */\n      dup2\n        /* \"#utility.yul\":7794:7798   */\n      dup2\n        /* \"#utility.yul\":7790:7810   */\n      sub\n        /* \"#utility.yul\":7785:7787   */\n      0x60\n        /* \"#utility.yul\":7774:7783   */\n      dup4\n        /* \"#utility.yul\":7770:7788   */\n      add\n        /* \"#utility.yul\":7763:7811   */\n      mstore\n        /* \"#utility.yul\":7828:7906   */\n      tag_271\n        /* \"#utility.yul\":7901:7905   */\n      dup2\n        /* \"#utility.yul\":7892:7898   */\n      dup6\n        /* \"#utility.yul\":7828:7906   */\n      tag_171\n      jump\t// in\n    tag_271:\n        /* \"#utility.yul\":7820:7906   */\n      swap1\n      pop\n        /* \"#utility.yul\":7916:7989   */\n      tag_272\n        /* \"#utility.yul\":7984:7987   */\n      0x80\n        /* \"#utility.yul\":7973:7982   */\n      dup4\n        /* \"#utility.yul\":7969:7988   */\n      add\n        /* \"#utility.yul\":7960:7966   */\n      dup5\n        /* \"#utility.yul\":7916:7989   */\n      tag_144\n      jump\t// in\n    tag_272:\n        /* \"#utility.yul\":7106:7996   */\n      swap7\n      swap6\n      pop\n      pop\n      pop\n      pop\n      pop\n      pop\n      jump\t// out\n        /* \"#utility.yul\":8002:8124   */\n    tag_172:\n        /* \"#utility.yul\":8075:8099   */\n      tag_274\n        /* \"#utility.yul\":8093:8098   */\n      dup2\n        /* \"#utility.yul\":8075:8099   */\n      tag_143\n      jump\t// in\n    tag_274:\n        /* \"#utility.yul\":8068:8073   */\n      dup2\n        /* \"#utility.yul\":8065:8100   */\n      eq\n        /* \"#utility.yul\":8055:8118   */\n      tag_275\n      jumpi\n        /* \"#utility.yul\":8114:8115   */\n      0x00\n        /* \"#utility.yul\":8111:8112   */\n      dup1\n        /* \"#utility.yul\":8104:8116   */\n      revert\n        /* \"#utility.yul\":8055:8118   */\n    tag_275:\n        /* \"#utility.yul\":8002:8124   */\n      pop\n      jump\t// out\n        /* \"#utility.yul\":8130:8269   */\n    tag_173:\n        /* \"#utility.yul\":8176:8181   */\n      0x00\n        /* \"#utility.yul\":8214:8220   */\n      dup2\n        /* \"#utility.yul\":8201:8221   */\n      calldataload\n        /* \"#utility.yul\":8192:8221   */\n      swap1\n      pop\n        /* \"#utility.yul\":8230:8263   */\n      tag_277\n        /* \"#utility.yul\":8257:8262   */\n      dup2\n        /* \"#utility.yul\":8230:8263   */\n      tag_172\n      jump\t// in\n    tag_277:\n        /* \"#utility.yul\":8130:8269   */\n      swap3\n      swap2\n      pop\n      pop\n      jump\t// out\n        /* \"#utility.yul\":8275:8604   */\n    tag_50:\n        /* \"#utility.yul\":8334:8340   */\n      0x00\n        /* \"#utility.yul\":8383:8385   */\n      0x20\n        /* \"#utility.yul\":8371:8380   */\n      dup3\n        /* \"#utility.yul\":8362:8369   */\n      dup5\n        /* \"#utility.yul\":8358:8381   */\n      sub\n        /* \"#utility.yul\":8354:8386   */\n      slt\n        /* \"#utility.yul\":8351:8470   */\n      iszero\n      tag_279\n      jumpi\n        /* \"#utility.yul\":8389:8468   */\n      tag_280\n      tag_146\n      jump\t// in\n    tag_280:\n        /* \"#utility.yul\":8351:8470   */\n    tag_279:\n        /* \"#utility.yul\":8509:8510   */\n      0x00\n        /* \"#utility.yul\":8534:8587   */\n      tag_281\n        /* \"#utility.yul\":8579:8586   */\n      dup5\n        /* \"#utility.yul\":8570:8576   */\n      dup3\n        /* \"#utility.yul\":8559:8568   */\n      dup6\n        /* \"#utility.yul\":8555:8577   */\n      add\n        /* \"#utility.yul\":8534:8587   */\n      tag_173\n      jump\t// in\n    tag_281:\n        /* \"#utility.yul\":8524:8587   */\n      swap2\n      pop\n        /* \"#utility.yul\":8480:8597   */\n      pop\n        /* \"#utility.yul\":8275:8604   */\n      swap3\n      swap2\n      pop\n      pop\n      jump\t// out\n        /* \"#utility.yul\":8610:8790   */\n    tag_174:\n        /* \"#utility.yul\":8658:8735   */\n      0x4e487b7100000000000000000000000000000000000000000000000000000000\n        /* \"#utility.yul\":8655:8656   */\n      0x00\n        /* \"#utility.yul\":8648:8736   */\n      mstore\n        /* \"#utility.yul\":8755:8759   */\n      0x11\n        /* \"#utility.yul\":8752:8753   */\n      0x04\n        /* \"#utility.yul\":8745:8760   */\n      mstore\n        /* \"#utility.yul\":8779:8783   */\n      0x24\n        /* \"#utility.yul\":8776:8777   */\n      0x00\n        /* \"#utility.yul\":8769:8784   */\n      revert\n        /* \"#utility.yul\":8796:9101   */\n    tag_59:\n        /* \"#utility.yul\":8836:8839   */\n      0x00\n        /* \"#utility.yul\":8855:8875   */\n      tag_284\n        /* \"#utility.yul\":8873:8874   */\n      dup3\n        /* \"#utility.yul\":8855:8875   */\n      tag_143\n      jump\t// in\n    tag_284:\n        /* \"#utility.yul\":8850:8875   */\n      swap2\n      pop\n        /* \"#utility.yul\":8889:8909   */\n      tag_285\n        /* \"#utility.yul\":8907:8908   */\n      dup4\n        /* \"#utility.yul\":8889:8909   */\n      tag_143\n      jump\t// in\n    tag_285:\n        /* \"#utility.yul\":8884:8909   */\n      swap3\n      pop\n        /* \"#utility.yul\":9043:9044   */\n      dup3\n        /* \"#utility.yul\":8975:9041   */\n      0xffffffffffffffffffffffffffffffffffffffffffffffffffffffffffffffff\n        /* \"#utility.yul\":8971:9045   */\n      sub\n        /* \"#utility.yul\":8968:8969   */\n      dup3\n        /* \"#utility.yul\":8965:9046   */\n      gt\n        /* \"#utility.yul\":8962:9069   */\n      iszero\n      tag_286\n      jumpi\n        /* \"#utility.yul\":9049:9067   */\n      tag_287\n      tag_174\n      jump\t// in\n    tag_287:\n        /* \"#utility.yul\":8962:9069   */\n    tag_286:\n        /* \"#utility.yul\":9093:9094   */\n      dup3\n        /* \"#utility.yul\":9090:9091   */\n      dup3\n        /* \"#utility.yul\":9086:9095   */\n      add\n        /* \"#utility.yul\":9079:9095   */\n      swap1\n      pop\n        /* \"#utility.yul\":8796:9101   */\n      swap3\n      swap2\n      pop\n      pop\n      jump\t// out\n        /* \"#utility.yul\":9107:9284   */\n    tag_175:\n        /* \"#utility.yul\":9247:9276   */\n      0x546865206a6f696e696e67206665652069732032352065746865720000000000\n        /* \"#utility.yul\":9243:9244   */\n      0x00\n        /* \"#utility.yul\":9235:9241   */\n      dup3\n        /* \"#utility.yul\":9231:9245   */\n      add\n        /* \"#utility.yul\":9224:9277   */\n      mstore\n        /* \"#utility.yul\":9107:9284   */\n      pop\n      jump\t// out\n        /* \"#utility.yul\":9290:9656   */\n    tag_176:\n        /* \"#utility.yul\":9432:9435   */\n      0x00\n        /* \"#utility.yul\":9453:9520   */\n      tag_290\n        /* \"#utility.yul\":9517:9519   */\n      0x1b\n        /* \"#utility.yul\":9512:9515   */\n      dup4\n        /* \"#utility.yul\":9453:9520   */\n      tag_169\n      jump\t// in\n    tag_290:\n        /* \"#utility.yul\":9446:9520   */\n      swap2\n      pop\n        /* \"#utility.yul\":9529:9622   */\n      tag_291\n        /* \"#utility.yul\":9618:9621   */\n      dup3\n        /* \"#utility.yul\":9529:9622   */\n      tag_175\n      jump\t// in\n    tag_291:\n        /* \"#utility.yul\":9647:9649   */\n      0x20\n        /* \"#utility.yul\":9642:9645   */\n      dup3\n        /* \"#utility.yul\":9638:9650   */\n      add\n        /* \"#utility.yul\":9631:9650   */\n      swap1\n      pop\n        /* \"#utility.yul\":9290:9656   */\n      swap2\n      swap1\n      pop\n      jump\t// out\n        /* \"#utility.yul\":9662:10081   */\n    tag_67:\n        /* \"#utility.yul\":9828:9832   */\n      0x00\n        /* \"#utility.yul\":9866:9868   */\n      0x20\n        /* \"#utility.yul\":9855:9864   */\n      dup3\n        /* \"#utility.yul\":9851:9869   */\n      add\n        /* \"#utility.yul\":9843:9869   */\n      swap1\n      pop\n        /* \"#utility.yul\":9915:9924   */\n      dup2\n        /* \"#utility.yul\":9909:9913   */\n      dup2\n        /* \"#utility.yul\":9905:9925   */\n      sub\n        /* \"#utility.yul\":9901:9902   */\n      0x00\n        /* \"#utility.yul\":9890:9899   */\n      dup4\n        /* \"#utility.yul\":9886:9903   */\n      add\n        /* \"#utility.yul\":9879:9926   */\n      mstore\n        /* \"#utility.yul\":9943:10074   */\n      tag_293\n        /* \"#utility.yul\":10069:10073   */\n      dup2\n        /* \"#utility.yul\":9943:10074   */\n      tag_176\n      jump\t// in\n    tag_293:\n        /* \"#utility.yul\":9935:10074   */\n      swap1\n      pop\n        /* \"#utility.yul\":9662:10081   */\n      swap2\n      swap1\n      pop\n      jump\t// out\n        /* \"#utility.yul\":10087:10267   */\n    tag_177:\n        /* \"#utility.yul\":10135:10212   */\n      0x4e487b7100000000000000000000000000000000000000000000000000000000\n        /* \"#utility.yul\":10132:10133   */\n      0x00\n        /* \"#utility.yul\":10125:10213   */\n      mstore\n        /* \"#utility.yul\":10232:10236   */\n      0x22\n        /* \"#utility.yul\":10229:10230   */\n      0x04\n        /* \"#utility.yul\":10222:10237   */\n      mstore\n        /* \"#utility.yul\":10256:10260   */\n      0x24\n        /* \"#utility.yul\":10253:10254   */\n      0x00\n        /* \"#utility.yul\":10246:10261   */\n      revert\n        /* \"#utility.yul\":10273:10593   */\n    tag_75:\n        /* \"#utility.yul\":10317:10323   */\n      0x00\n        /* \"#utility.yul\":10354:10355   */\n      0x02\n        /* \"#utility.yul\":10348:10352   */\n      dup3\n        /* \"#utility.yul\":10344:10356   */\n      div\n        /* \"#utility.yul\":10334:10356   */\n      swap1\n      pop\n        /* \"#utility.yul\":10401:10402   */\n      0x01\n        /* \"#utility.yul\":10395:10399   */\n      dup3\n        /* \"#utility.yul\":10391:10403   */\n      and\n        /* \"#utility.yul\":10422:10440   */\n      dup1\n        /* \"#utility.yul\":10412:10493   */\n      tag_296\n      jumpi\n        /* \"#utility.yul\":10478:10482   */\n      0x7f\n        /* \"#utility.yul\":10470:10476   */\n      dup3\n        /* \"#utility.yul\":10466:10483   */\n      and\n        /* \"#utility.yul\":10456:10483   */\n      swap2\n      pop\n        /* \"#utility.yul\":10412:10493   */\n    tag_296:\n        /* \"#utility.yul\":10540:10542   */\n      0x20\n        /* \"#utility.yul\":10532:10538   */\n      dup3\n        /* \"#utility.yul\":10529:10543   */\n      lt\n        /* \"#utility.yul\":10509:10527   */\n      dup2\n        /* \"#utility.yul\":10506:10544   */\n      sub\n        /* \"#utility.yul\":10503:10587   */\n      tag_297\n      jumpi\n        /* \"#utility.yul\":10559:10577   */\n      tag_298\n      tag_177\n      jump\t// in\n    tag_298:\n        /* \"#utility.yul\":10503:10587   */\n    tag_297:\n        /* \"#utility.yul\":10324:10593   */\n      pop\n        /* \"#utility.yul\":10273:10593   */\n      swap2\n      swap1\n      pop\n      jump\t// out\n        /* \"#utility.yul\":10599:10826   */\n    tag_178:\n        /* \"#utility.yul\":10739:10773   */\n      0x4f6e6c7920746865206465616c65722063616e20706179206f75742074686520\n        /* \"#utility.yul\":10735:10736   */\n      0x00\n        /* \"#utility.yul\":10727:10733   */\n      dup3\n        /* \"#utility.yul\":10723:10737   */\n      add\n        /* \"#utility.yul\":10716:10774   */\n      mstore\n        /* \"#utility.yul\":10808:10818   */\n      0x77696e6e6572732e000000000000000000000000000000000000000000000000\n        /* \"#utility.yul\":10803:10805   */\n      0x20\n        /* \"#utility.yul\":10795:10801   */\n      dup3\n        /* \"#utility.yul\":10791:10806   */\n      add\n        /* \"#utility.yul\":10784:10819   */\n      mstore\n        /* \"#utility.yul\":10599:10826   */\n      pop\n      jump\t// out\n        /* \"#utility.yul\":10832:11198   */\n    tag_179:\n        /* \"#utility.yul\":10974:10977   */\n      0x00\n        /* \"#utility.yul\":10995:11062   */\n      tag_301\n        /* \"#utility.yul\":11059:11061   */\n      0x28\n        /* \"#utility.yul\":11054:11057   */\n      dup4\n        /* \"#utility.yul\":10995:11062   */\n      tag_169\n      jump\t// in\n    tag_301:\n        /* \"#utility.yul\":10988:11062   */\n      swap2\n      pop\n        /* \"#utility.yul\":11071:11164   */\n      tag_302\n        /* \"#utility.yul\":11160:11163   */\n      dup3\n        /* \"#utility.yul\":11071:11164   */\n      tag_178\n      jump\t// in\n    tag_302:\n        /* \"#utility.yul\":11189:11191   */\n      0x40\n        /* \"#utility.yul\":11184:11187   */\n      dup3\n        /* \"#utility.yul\":11180:11192   */\n      add\n        /* \"#utility.yul\":11173:11192   */\n      swap1\n      pop\n        /* \"#utility.yul\":10832:11198   */\n      swap2\n      swap1\n      pop\n      jump\t// out\n        /* \"#utility.yul\":11204:11623   */\n    tag_100:\n        /* \"#utility.yul\":11370:11374   */\n      0x00\n        /* \"#utility.yul\":11408:11410   */\n      0x20\n        /* \"#utility.yul\":11397:11406   */\n      dup3\n        /* \"#utility.yul\":11393:11411   */\n      add\n        /* \"#utility.yul\":11385:11411   */\n      swap1\n      pop\n        /* \"#utility.yul\":11457:11466   */\n      dup2\n        /* \"#utility.yul\":11451:11455   */\n      dup2\n        /* \"#utility.yul\":11447:11467   */\n      sub\n        /* \"#utility.yul\":11443:11444   */\n      0x00\n        /* \"#utility.yul\":11432:11441   */\n      dup4\n        /* \"#utility.yul\":11428:11445   */\n      add\n        /* \"#utility.yul\":11421:11468   */\n      mstore\n        /* \"#utility.yul\":11485:11616   */\n      tag_304\n        /* \"#utility.yul\":11611:11615   */\n      dup2\n        /* \"#utility.yul\":11485:11616   */\n      tag_179\n      jump\t// in\n    tag_304:\n        /* \"#utility.yul\":11477:11616   */\n      swap1\n      pop\n        /* \"#utility.yul\":11204:11623   */\n      swap2\n      swap1\n      pop\n      jump\t// out\n        /* \"#utility.yul\":11629:11977   */\n    tag_102:\n        /* \"#utility.yul\":11669:11676   */\n      0x00\n        /* \"#utility.yul\":11692:11712   */\n      tag_306\n        /* \"#utility.yul\":11710:11711   */\n      dup3\n        /* \"#utility.yul\":11692:11712   */\n      tag_143\n      jump\t// in\n    tag_306:\n        /* \"#utility.yul\":11687:11712   */\n      swap2\n      pop\n        /* \"#utility.yul\":11726:11746   */\n      tag_307\n        /* \"#utility.yul\":11744:11745   */\n      dup4\n        /* \"#utility.yul\":11726:11746   */\n      tag_143\n      jump\t// in\n    tag_307:\n        /* \"#utility.yul\":11721:11746   */\n      swap3\n      pop\n        /* \"#utility.yul\":11914:11915   */\n      dup2\n        /* \"#utility.yul\":11846:11912   */\n      0xffffffffffffffffffffffffffffffffffffffffffffffffffffffffffffffff\n        /* \"#utility.yul\":11842:11916   */\n      div\n        /* \"#utility.yul\":11839:11840   */\n      dup4\n        /* \"#utility.yul\":11836:11917   */\n      gt\n        /* \"#utility.yul\":11831:11832   */\n      dup3\n        /* \"#utility.yul\":11824:11833   */\n      iszero\n        /* \"#utility.yul\":11817:11834   */\n      iszero\n        /* \"#utility.yul\":11813:11918   */\n      and\n        /* \"#utility.yul\":11810:11941   */\n      iszero\n      tag_308\n      jumpi\n        /* \"#utility.yul\":11921:11939   */\n      tag_309\n      tag_174\n      jump\t// in\n    tag_309:\n        /* \"#utility.yul\":11810:11941   */\n    tag_308:\n        /* \"#utility.yul\":11969:11970   */\n      dup3\n        /* \"#utility.yul\":11966:11967   */\n      dup3\n        /* \"#utility.yul\":11962:11971   */\n      mul\n        /* \"#utility.yul\":11951:11971   */\n      swap1\n      pop\n        /* \"#utility.yul\":11629:11977   */\n      swap3\n      swap2\n      pop\n      pop\n      jump\t// out\n        /* \"#utility.yul\":11983:12174   */\n    tag_105:\n        /* \"#utility.yul\":12023:12027   */\n      0x00\n        /* \"#utility.yul\":12043:12063   */\n      tag_311\n        /* \"#utility.yul\":12061:12062   */\n      dup3\n        /* \"#utility.yul\":12043:12063   */\n      tag_143\n      jump\t// in\n    tag_311:\n        /* \"#utility.yul\":12038:12063   */\n      swap2\n      pop\n        /* \"#utility.yul\":12077:12097   */\n      tag_312\n        /* \"#utility.yul\":12095:12096   */\n      dup4\n        /* \"#utility.yul\":12077:12097   */\n      tag_143\n      jump\t// in\n    tag_312:\n        /* \"#utility.yul\":12072:12097   */\n      swap3\n      pop\n        /* \"#utility.yul\":12116:12117   */\n      dup3\n        /* \"#utility.yul\":12113:12114   */\n      dup3\n        /* \"#utility.yul\":12110:12118   */\n      lt\n        /* \"#utility.yul\":12107:12141   */\n      iszero\n      tag_313\n      jumpi\n        /* \"#utility.yul\":12121:12139   */\n      tag_314\n      tag_174\n      jump\t// in\n    tag_314:\n        /* \"#utility.yul\":12107:12141   */\n    tag_313:\n        /* \"#utility.yul\":12166:12167   */\n      dup3\n        /* \"#utility.yul\":12163:12164   */\n      dup3\n        /* \"#utility.yul\":12159:12168   */\n      sub\n        /* \"#utility.yul\":12151:12168   */\n      swap1\n      pop\n        /* \"#utility.yul\":11983:12174   */\n      swap3\n      swap2\n      pop\n      pop\n      jump\t// out\n        /* \"#utility.yul\":12180:12360   */\n    tag_180:\n        /* \"#utility.yul\":12228:12305   */\n      0x4e487b7100000000000000000000000000000000000000000000000000000000\n        /* \"#utility.yul\":12225:12226   */\n      0x00\n        /* \"#utility.yul\":12218:12306   */\n      mstore\n        /* \"#utility.yul\":12325:12329   */\n      0x12\n        /* \"#utility.yul\":12322:12323   */\n      0x04\n        /* \"#utility.yul\":12315:12330   */\n      mstore\n        /* \"#utility.yul\":12349:12353   */\n      0x24\n        /* \"#utility.yul\":12346:12347   */\n      0x00\n        /* \"#utility.yul\":12339:12354   */\n      revert\n        /* \"#utility.yul\":12366:12551   */\n    tag_107:\n        /* \"#utility.yul\":12406:12407   */\n      0x00\n        /* \"#utility.yul\":12423:12443   */\n      tag_317\n        /* \"#utility.yul\":12441:12442   */\n      dup3\n        /* \"#utility.yul\":12423:12443   */\n      tag_143\n      jump\t// in\n    tag_317:\n        /* \"#utility.yul\":12418:12443   */\n      swap2\n      pop\n        /* \"#utility.yul\":12457:12477   */\n      tag_318\n        /* \"#utility.yul\":12475:12476   */\n      dup4\n        /* \"#utility.yul\":12457:12477   */\n      tag_143\n      jump\t// in\n    tag_318:\n        /* \"#utility.yul\":12452:12477   */\n      swap3\n      pop\n        /* \"#utility.yul\":12496:12497   */\n      dup3\n        /* \"#utility.yul\":12486:12521   */\n      tag_319\n      jumpi\n        /* \"#utility.yul\":12501:12519   */\n      tag_320\n      tag_180\n      jump\t// in\n    tag_320:\n        /* \"#utility.yul\":12486:12521   */\n    tag_319:\n        /* \"#utility.yul\":12543:12544   */\n      dup3\n        /* \"#utility.yul\":12540:12541   */\n      dup3\n        /* \"#utility.yul\":12536:12545   */\n      div\n        /* \"#utility.yul\":12531:12545   */\n      swap1\n      pop\n        /* \"#utility.yul\":12366:12551   */\n      swap3\n      swap2\n      pop\n      pop\n      jump\t// out\n        /* \"#utility.yul\":12557:12737   */\n    tag_113:\n        /* \"#utility.yul\":12605:12682   */\n      0x4e487b7100000000000000000000000000000000000000000000000000000000\n        /* \"#utility.yul\":12602:12603   */\n      0x00\n        /* \"#utility.yul\":12595:12683   */\n      mstore\n        /* \"#utility.yul\":12702:12706   */\n      0x32\n        /* \"#utility.yul\":12699:12700   */\n      0x04\n        /* \"#utility.yul\":12692:12707   */\n      mstore\n        /* \"#utility.yul\":12726:12730   */\n      0x24\n        /* \"#utility.yul\":12723:12724   */\n      0x00\n        /* \"#utility.yul\":12716:12731   */\n      revert\n        /* \"#utility.yul\":12743:12976   */\n    tag_119:\n        /* \"#utility.yul\":12782:12785   */\n      0x00\n        /* \"#utility.yul\":12805:12829   */\n      tag_323\n        /* \"#utility.yul\":12823:12828   */\n      dup3\n        /* \"#utility.yul\":12805:12829   */\n      tag_143\n      jump\t// in\n    tag_323:\n        /* \"#utility.yul\":12796:12829   */\n      swap2\n      pop\n        /* \"#utility.yul\":12851:12917   */\n      0xffffffffffffffffffffffffffffffffffffffffffffffffffffffffffffffff\n        /* \"#utility.yul\":12844:12849   */\n      dup3\n        /* \"#utility.yul\":12841:12918   */\n      sub\n        /* \"#utility.yul\":12838:12941   */\n      tag_324\n      jumpi\n        /* \"#utility.yul\":12921:12939   */\n      tag_325\n      tag_174\n      jump\t// in\n    tag_325:\n        /* \"#utility.yul\":12838:12941   */\n    tag_324:\n        /* \"#utility.yul\":12968:12969   */\n      0x01\n        /* \"#utility.yul\":12961:12966   */\n      dup3\n        /* \"#utility.yul\":12957:12970   */\n      add\n        /* \"#utility.yul\":12950:12970   */\n      swap1\n      pop\n        /* \"#utility.yul\":12743:12976   */\n      swap2\n      swap1\n      pop\n      jump\t// out\n\n    auxdata: 0xa26469706673582212201aa27d1281b485d1e43b61c6274abbf069ede5f58221699503a65123c2059de664736f6c634300080d0033\n}\n",
				"bytecode": {
					"linkReferences": {},
					"object": "608060405260008055600060015534801561001957600080fd5b5033600260006101000a81548173ffffffffffffffffffffffffffffffffffffffff021916908373ffffffffffffffffffffffffffffffffffffffff1602179055506113e18061006a6000396000f3fe6080604052600436106100865760003560e01c80639de2ee21116100595780639de2ee2114610147578063dbdef6f114610172578063e2eb41ff1461018e578063f9593e14146101cf578063fed47dac1461021057610086565b8063302bcc571461008b57806334b735a1146100b65780634ba2363a146100f35780638ddf0f7d1461011e575b600080fd5b34801561009757600080fd5b506100a061022c565b6040516100ad9190610bdb565b60405180910390f35b3480156100c257600080fd5b506100dd60048036038101906100d89190610c68565b610232565b6040516100ea9190610d0c565b60405180910390f35b3480156100ff57600080fd5b5061010861028b565b6040516101159190610bdb565b60405180910390f35b34801561012a57600080fd5b5061014560048036038101906101409190610c68565b610291565b005b34801561015357600080fd5b5061015c61031d565b6040516101699190610d48565b60405180910390f35b61018c60048036038101906101879190610ea9565b610343565b005b34801561019a57600080fd5b506101b560048036038101906101b09190610c68565b61042c565b6040516101c6959493929190610fa9565b60405180910390f35b3480156101db57600080fd5b506101f660048036038101906101f19190611036565b61059f565b604051610207959493929190610fa9565b60405180910390f35b61022a60048036038101906102259190610c68565b610722565b005b60005481565b6000600460008373ffffffffffffffffffffffffffffffffffffffff1673ffffffffffffffffffffffffffffffffffffffff16815260200190815260200160002060000160149054906101000a900460ff169050919050565b60015481565b6000600460008373ffffffffffffffffffffffffffffffffffffffff1673ffffffffffffffffffffffffffffffffffffffff1681526020019081526020016000209050601481600301546102e59190611092565b42106103195760018160000160146101000a81548160ff0219169083600281111561031357610312610c95565b5b02179055505b5050565b600260009054906101000a900473ffffffffffffffffffffffffffffffffffffffff1681565b68015af1d78b58c40000341461038e576040517f08c379a000000000000000000000000000000000000000000000000000000000815260040161038590611134565b60405180910390fd5b600260009054906101000a900473ffffffffffffffffffffffffffffffffffffffff1673ffffffffffffffffffffffffffffffffffffffff166108fc349081150290604051600060405180830381858888f1935050505015610428576103f482826108df565b60016000808282546104069190611092565b925050819055506019600160008282546104209190611092565b925050819055505b5050565b60046020528060005260406000206000915090508060000160009054906101000a900473ffffffffffffffffffffffffffffffffffffffff16908060000160149054906101000a900460ff169080600101805461048890611183565b80601f01602080910402602001604051908101604052809291908181526020018280546104b490611183565b80156105015780601f106104d657610100808354040283529160200191610501565b820191906000526020600020905b8154815290600101906020018083116104e457829003601f168201915b50505050509080600201805461051690611183565b80601f016020809104026020016040519081016040528092919081815260200182805461054290611183565b801561058f5780601f106105645761010080835404028352916020019161058f565b820191906000526020600020905b81548152906001019060200180831161057257829003601f168201915b5050505050908060030154905085565b600381815481106105af57600080fd5b90600052602060002090600402016000915090508060000160009054906101000a900473ffffffffffffffffffffffffffffffffffffffff16908060000160149054906101000a900460ff169080600101805461060b90611183565b80601f016020809104026020016040519081016040528092919081815260200182805461063790611183565b80156106845780601f1061065957610100808354040283529160200191610684565b820191906000526020600020905b81548152906001019060200180831161066757829003601f168201915b50505050509080600201805461069990611183565b80601f01602080910402602001604051908101604052809291908181526020018280546106c590611183565b80156107125780601f106106e757610100808354040283529160200191610712565b820191906000526020600020905b8154815290600101906020018083116106f557829003601f168201915b5050505050908060030154905085565b600260009054906101000a900473ffffffffffffffffffffffffffffffffffffffff1673ffffffffffffffffffffffffffffffffffffffff163373ffffffffffffffffffffffffffffffffffffffff16146107b2576040517f08c379a00000000000000000000000000000000000000000000000000000000081526004016107a990611226565b60405180910390fd5b670de0b6b3a76400006001546107c89190611246565b34146107d357600080fd5b600060016000546107e491906112a0565b346107ef9190611303565b905060005b6003805490508110156108da5760006003828154811061081757610816611334565b5b906000526020600020906004020160000160009054906101000a900473ffffffffffffffffffffffffffffffffffffffff1690508373ffffffffffffffffffffffffffffffffffffffff168173ffffffffffffffffffffffffffffffffffffffff16146108c6578073ffffffffffffffffffffffffffffffffffffffff166108fc849081150290604051600060405180830381858888f193505050501580156108c4573d6000803e3d6000fd5b505b5080806108d290611363565b9150506107f4565b505050565b60006040518060a001604052803373ffffffffffffffffffffffffffffffffffffffff1681526020016000600281111561091c5761091b610c95565b5b815260200184815260200183815260200142815250905080600460003373ffffffffffffffffffffffffffffffffffffffff1673ffffffffffffffffffffffffffffffffffffffff16815260200190815260200160002060008201518160000160006101000a81548173ffffffffffffffffffffffffffffffffffffffff021916908373ffffffffffffffffffffffffffffffffffffffff16021790555060208201518160000160146101000a81548160ff021916908360028111156109e5576109e4610c95565b5b02179055506040820151816001019080519060200190610a06929190610b1f565b506060820151816002019080519060200190610a23929190610b1f565b5060808201518160030155905050600381908060018154018082558091505060019003906000526020600020906004020160009091909190915060008201518160000160006101000a81548173ffffffffffffffffffffffffffffffffffffffff021916908373ffffffffffffffffffffffffffffffffffffffff16021790555060208201518160000160146101000a81548160ff02191690836002811115610acf57610ace610c95565b5b02179055506040820151816001019080519060200190610af0929190610b1f565b506060820151816002019080519060200190610b0d929190610b1f565b50608082015181600301555050505050565b828054610b2b90611183565b90600052602060002090601f016020900481019282610b4d5760008555610b94565b82601f10610b6657805160ff1916838001178555610b94565b82800160010185558215610b94579182015b82811115610b93578251825591602001919060010190610b78565b5b509050610ba19190610ba5565b5090565b5b80821115610bbe576000816000905550600101610ba6565b5090565b6000819050919050565b610bd581610bc2565b82525050565b6000602082019050610bf06000830184610bcc565b92915050565b6000604051905090565b600080fd5b600080fd5b600073ffffffffffffffffffffffffffffffffffffffff82169050919050565b6000610c3582610c0a565b9050919050565b610c4581610c2a565b8114610c5057600080fd5b50565b600081359050610c6281610c3c565b92915050565b600060208284031215610c7e57610c7d610c00565b5b6000610c8c84828501610c53565b91505092915050565b7f4e487b7100000000000000000000000000000000000000000000000000000000600052602160045260246000fd5b60038110610cd557610cd4610c95565b5b50565b6000819050610ce682610cc4565b919050565b6000610cf682610cd8565b9050919050565b610d0681610ceb565b82525050565b6000602082019050610d216000830184610cfd565b92915050565b6000610d3282610c0a565b9050919050565b610d4281610d27565b82525050565b6000602082019050610d5d6000830184610d39565b92915050565b600080fd5b600080fd5b6000601f19601f8301169050919050565b7f4e487b7100000000000000000000000000000000000000000000000000000000600052604160045260246000fd5b610db682610d6d565b810181811067ffffffffffffffff82111715610dd557610dd4610d7e565b5b80604052505050565b6000610de8610bf6565b9050610df48282610dad565b919050565b600067ffffffffffffffff821115610e1457610e13610d7e565b5b610e1d82610d6d565b9050602081019050919050565b82818337600083830152505050565b6000610e4c610e4784610df9565b610dde565b905082815260208101848484011115610e6857610e67610d68565b5b610e73848285610e2a565b509392505050565b600082601f830112610e9057610e8f610d63565b5b8135610ea0848260208601610e39565b91505092915050565b60008060408385031215610ec057610ebf610c00565b5b600083013567ffffffffffffffff811115610ede57610edd610c05565b5b610eea85828601610e7b565b925050602083013567ffffffffffffffff811115610f0b57610f0a610c05565b5b610f1785828601610e7b565b9150509250929050565b600081519050919050565b600082825260208201905092915050565b60005b83811015610f5b578082015181840152602081019050610f40565b83811115610f6a576000848401525b50505050565b6000610f7b82610f21565b610f858185610f2c565b9350610f95818560208601610f3d565b610f9e81610d6d565b840191505092915050565b600060a082019050610fbe6000830188610d39565b610fcb6020830187610cfd565b8181036040830152610fdd8186610f70565b90508181036060830152610ff18185610f70565b90506110006080830184610bcc565b9695505050505050565b61101381610bc2565b811461101e57600080fd5b50565b6000813590506110308161100a565b92915050565b60006020828403121561104c5761104b610c00565b5b600061105a84828501611021565b91505092915050565b7f4e487b7100000000000000000000000000000000000000000000000000000000600052601160045260246000fd5b600061109d82610bc2565b91506110a883610bc2565b9250827fffffffffffffffffffffffffffffffffffffffffffffffffffffffffffffffff038211156110dd576110dc611063565b5b828201905092915050565b7f546865206a6f696e696e67206665652069732032352065746865720000000000600082015250565b600061111e601b83610f2c565b9150611129826110e8565b602082019050919050565b6000602082019050818103600083015261114d81611111565b9050919050565b7f4e487b7100000000000000000000000000000000000000000000000000000000600052602260045260246000fd5b6000600282049050600182168061119b57607f821691505b6020821081036111ae576111ad611154565b5b50919050565b7f4f6e6c7920746865206465616c65722063616e20706179206f7574207468652060008201527f77696e6e6572732e000000000000000000000000000000000000000000000000602082015250565b6000611210602883610f2c565b915061121b826111b4565b604082019050919050565b6000602082019050818103600083015261123f81611203565b9050919050565b600061125182610bc2565b915061125c83610bc2565b9250817fffffffffffffffffffffffffffffffffffffffffffffffffffffffffffffffff048311821515161561129557611294611063565b5b828202905092915050565b60006112ab82610bc2565b91506112b683610bc2565b9250828210156112c9576112c8611063565b5b828203905092915050565b7f4e487b7100000000000000000000000000000000000000000000000000000000600052601260045260246000fd5b600061130e82610bc2565b915061131983610bc2565b925082611329576113286112d4565b5b828204905092915050565b7f4e487b7100000000000000000000000000000000000000000000000000000000600052603260045260246000fd5b600061136e82610bc2565b91507fffffffffffffffffffffffffffffffffffffffffffffffffffffffffffffffff82036113a05761139f611063565b5b60018201905091905056fea26469706673582212201aa27d1281b485d1e43b61c6274abbf069ede5f58221699503a65123c2059de664736f6c634300080d0033",
					"opcodes": "PUSH1 0x80 PUSH1 0x40 MSTORE PUSH1 0x0 DUP1 SSTORE PUSH1 0x0 PUSH1 0x1 SSTORE CALLVALUE DUP1 ISZERO PUSH2 0x19 JUMPI PUSH1 0x0 DUP1 REVERT JUMPDEST POP CALLER PUSH1 0x2 PUSH1 0x0 PUSH2 0x100 EXP DUP2 SLOAD DUP2 PUSH20 0xFFFFFFFFFFFFFFFFFFFFFFFFFFFFFFFFFFFFFFFF MUL NOT AND SWAP1 DUP4 PUSH20 0xFFFFFFFFFFFFFFFFFFFFFFFFFFFFFFFFFFFFFFFF AND MUL OR SWAP1 SSTORE POP PUSH2 0x13E1 DUP1 PUSH2 0x6A PUSH1 0x0 CODECOPY PUSH1 0x0 RETURN INVALID PUSH1 0x80 PUSH1 0x40 MSTORE PUSH1 0x4 CALLDATASIZE LT PUSH2 0x86 JUMPI PUSH1 0x0 CALLDATALOAD PUSH1 0xE0 SHR DUP1 PUSH4 0x9DE2EE21 GT PUSH2 0x59 JUMPI DUP1 PUSH4 0x9DE2EE21 EQ PUSH2 0x147 JUMPI DUP1 PUSH4 0xDBDEF6F1 EQ PUSH2 0x172 JUMPI DUP1 PUSH4 0xE2EB41FF EQ PUSH2 0x18E JUMPI DUP1 PUSH4 0xF9593E14 EQ PUSH2 0x1CF JUMPI DUP1 PUSH4 0xFED47DAC EQ PUSH2 0x210 JUMPI PUSH2 0x86 JUMP JUMPDEST DUP1 PUSH4 0x302BCC57 EQ PUSH2 0x8B JUMPI DUP1 PUSH4 0x34B735A1 EQ PUSH2 0xB6 JUMPI DUP1 PUSH4 0x4BA2363A EQ PUSH2 0xF3 JUMPI DUP1 PUSH4 0x8DDF0F7D EQ PUSH2 0x11E JUMPI JUMPDEST PUSH1 0x0 DUP1 REVERT JUMPDEST CALLVALUE DUP1 ISZERO PUSH2 0x97 JUMPI PUSH1 0x0 DUP1 REVERT JUMPDEST POP PUSH2 0xA0 PUSH2 0x22C JUMP JUMPDEST PUSH1 0x40 MLOAD PUSH2 0xAD SWAP2 SWAP1 PUSH2 0xBDB JUMP JUMPDEST PUSH1 0x40 MLOAD DUP1 SWAP2 SUB SWAP1 RETURN JUMPDEST CALLVALUE DUP1 ISZERO PUSH2 0xC2 JUMPI PUSH1 0x0 DUP1 REVERT JUMPDEST POP PUSH2 0xDD PUSH1 0x4 DUP1 CALLDATASIZE SUB DUP2 ADD SWAP1 PUSH2 0xD8 SWAP2 SWAP1 PUSH2 0xC68 JUMP JUMPDEST PUSH2 0x232 JUMP JUMPDEST PUSH1 0x40 MLOAD PUSH2 0xEA SWAP2 SWAP1 PUSH2 0xD0C JUMP JUMPDEST PUSH1 0x40 MLOAD DUP1 SWAP2 SUB SWAP1 RETURN JUMPDEST CALLVALUE DUP1 ISZERO PUSH2 0xFF JUMPI PUSH1 0x0 DUP1 REVERT JUMPDEST POP PUSH2 0x108 PUSH2 0x28B JUMP JUMPDEST PUSH1 0x40 MLOAD PUSH2 0x115 SWAP2 SWAP1 PUSH2 0xBDB JUMP JUMPDEST PUSH1 0x40 MLOAD DUP1 SWAP2 SUB SWAP1 RETURN JUMPDEST CALLVALUE DUP1 ISZERO PUSH2 0x12A JUMPI PUSH1 0x0 DUP1 REVERT JUMPDEST POP PUSH2 0x145 PUSH1 0x4 DUP1 CALLDATASIZE SUB DUP2 ADD SWAP1 PUSH2 0x140 SWAP2 SWAP1 PUSH2 0xC68 JUMP JUMPDEST PUSH2 0x291 JUMP JUMPDEST STOP JUMPDEST CALLVALUE DUP1 ISZERO PUSH2 0x153 JUMPI PUSH1 0x0 DUP1 REVERT JUMPDEST POP PUSH2 0x15C PUSH2 0x31D JUMP JUMPDEST PUSH1 0x40 MLOAD PUSH2 0x169 SWAP2 SWAP1 PUSH2 0xD48 JUMP JUMPDEST PUSH1 0x40 MLOAD DUP1 SWAP2 SUB SWAP1 RETURN JUMPDEST PUSH2 0x18C PUSH1 0x4 DUP1 CALLDATASIZE SUB DUP2 ADD SWAP1 PUSH2 0x187 SWAP2 SWAP1 PUSH2 0xEA9 JUMP JUMPDEST PUSH2 0x343 JUMP JUMPDEST STOP JUMPDEST CALLVALUE DUP1 ISZERO PUSH2 0x19A JUMPI PUSH1 0x0 DUP1 REVERT JUMPDEST POP PUSH2 0x1B5 PUSH1 0x4 DUP1 CALLDATASIZE SUB DUP2 ADD SWAP1 PUSH2 0x1B0 SWAP2 SWAP1 PUSH2 0xC68 JUMP JUMPDEST PUSH2 0x42C JUMP JUMPDEST PUSH1 0x40 MLOAD PUSH2 0x1C6 SWAP6 SWAP5 SWAP4 SWAP3 SWAP2 SWAP1 PUSH2 0xFA9 JUMP JUMPDEST PUSH1 0x40 MLOAD DUP1 SWAP2 SUB SWAP1 RETURN JUMPDEST CALLVALUE DUP1 ISZERO PUSH2 0x1DB JUMPI PUSH1 0x0 DUP1 REVERT JUMPDEST POP PUSH2 0x1F6 PUSH1 0x4 DUP1 CALLDATASIZE SUB DUP2 ADD SWAP1 PUSH2 0x1F1 SWAP2 SWAP1 PUSH2 0x1036 JUMP JUMPDEST PUSH2 0x59F JUMP JUMPDEST PUSH1 0x40 MLOAD PUSH2 0x207 SWAP6 SWAP5 SWAP4 SWAP3 SWAP2 SWAP1 PUSH2 0xFA9 JUMP JUMPDEST PUSH1 0x40 MLOAD DUP1 SWAP2 SUB SWAP1 RETURN JUMPDEST PUSH2 0x22A PUSH1 0x4 DUP1 CALLDATASIZE SUB DUP2 ADD SWAP1 PUSH2 0x225 SWAP2 SWAP1 PUSH2 0xC68 JUMP JUMPDEST PUSH2 0x722 JUMP JUMPDEST STOP JUMPDEST PUSH1 0x0 SLOAD DUP2 JUMP JUMPDEST PUSH1 0x0 PUSH1 0x4 PUSH1 0x0 DUP4 PUSH20 0xFFFFFFFFFFFFFFFFFFFFFFFFFFFFFFFFFFFFFFFF AND PUSH20 0xFFFFFFFFFFFFFFFFFFFFFFFFFFFFFFFFFFFFFFFF AND DUP2 MSTORE PUSH1 0x20 ADD SWAP1 DUP2 MSTORE PUSH1 0x20 ADD PUSH1 0x0 KECCAK256 PUSH1 0x0 ADD PUSH1 0x14 SWAP1 SLOAD SWAP1 PUSH2 0x100 EXP SWAP1 DIV PUSH1 0xFF AND SWAP1 POP SWAP2 SWAP1 POP JUMP JUMPDEST PUSH1 0x1 SLOAD DUP2 JUMP JUMPDEST PUSH1 0x0 PUSH1 0x4 PUSH1 0x0 DUP4 PUSH20 0xFFFFFFFFFFFFFFFFFFFFFFFFFFFFFFFFFFFFFFFF AND PUSH20 0xFFFFFFFFFFFFFFFFFFFFFFFFFFFFFFFFFFFFFFFF AND DUP2 MSTORE PUSH1 0x20 ADD SWAP1 DUP2 MSTORE PUSH1 0x20 ADD PUSH1 0x0 KECCAK256 SWAP1 POP PUSH1 0x14 DUP2 PUSH1 0x3 ADD SLOAD PUSH2 0x2E5 SWAP2 SWAP1 PUSH2 0x1092 JUMP JUMPDEST TIMESTAMP LT PUSH2 0x319 JUMPI PUSH1 0x1 DUP2 PUSH1 0x0 ADD PUSH1 0x14 PUSH2 0x100 EXP DUP2 SLOAD DUP2 PUSH1 0xFF MUL NOT AND SWAP1 DUP4 PUSH1 0x2 DUP2 GT ISZERO PUSH2 0x313 JUMPI PUSH2 0x312 PUSH2 0xC95 JUMP JUMPDEST JUMPDEST MUL OR SWAP1 SSTORE POP JUMPDEST POP POP JUMP JUMPDEST PUSH1 0x2 PUSH1 0x0 SWAP1 SLOAD SWAP1 PUSH2 0x100 EXP SWAP1 DIV PUSH20 0xFFFFFFFFFFFFFFFFFFFFFFFFFFFFFFFFFFFFFFFF AND DUP2 JUMP JUMPDEST PUSH9 0x15AF1D78B58C40000 CALLVALUE EQ PUSH2 0x38E JUMPI PUSH1 0x40 MLOAD PUSH32 0x8C379A000000000000000000000000000000000000000000000000000000000 DUP2 MSTORE PUSH1 0x4 ADD PUSH2 0x385 SWAP1 PUSH2 0x1134 JUMP JUMPDEST PUSH1 0x40 MLOAD DUP1 SWAP2 SUB SWAP1 REVERT JUMPDEST PUSH1 0x2 PUSH1 0x0 SWAP1 SLOAD SWAP1 PUSH2 0x100 EXP SWAP1 DIV PUSH20 0xFFFFFFFFFFFFFFFFFFFFFFFFFFFFFFFFFFFFFFFF AND PUSH20 0xFFFFFFFFFFFFFFFFFFFFFFFFFFFFFFFFFFFFFFFF AND PUSH2 0x8FC CALLVALUE SWAP1 DUP2 ISZERO MUL SWAP1 PUSH1 0x40 MLOAD PUSH1 0x0 PUSH1 0x40 MLOAD DUP1 DUP4 SUB DUP2 DUP6 DUP9 DUP9 CALL SWAP4 POP POP POP POP ISZERO PUSH2 0x428 JUMPI PUSH2 0x3F4 DUP3 DUP3 PUSH2 0x8DF JUMP JUMPDEST PUSH1 0x1 PUSH1 0x0 DUP1 DUP3 DUP3 SLOAD PUSH2 0x406 SWAP2 SWAP1 PUSH2 0x1092 JUMP JUMPDEST SWAP3 POP POP DUP2 SWAP1 SSTORE POP PUSH1 0x19 PUSH1 0x1 PUSH1 0x0 DUP3 DUP3 SLOAD PUSH2 0x420 SWAP2 SWAP1 PUSH2 0x1092 JUMP JUMPDEST SWAP3 POP POP DUP2 SWAP1 SSTORE POP JUMPDEST POP POP JUMP JUMPDEST PUSH1 0x4 PUSH1 0x20 MSTORE DUP1 PUSH1 0x0 MSTORE PUSH1 0x40 PUSH1 0x0 KECCAK256 PUSH1 0x0 SWAP2 POP SWAP1 POP DUP1 PUSH1 0x0 ADD PUSH1 0x0 SWAP1 SLOAD SWAP1 PUSH2 0x100 EXP SWAP1 DIV PUSH20 0xFFFFFFFFFFFFFFFFFFFFFFFFFFFFFFFFFFFFFFFF AND SWAP1 DUP1 PUSH1 0x0 ADD PUSH1 0x14 SWAP1 SLOAD SWAP1 PUSH2 0x100 EXP SWAP1 DIV PUSH1 0xFF AND SWAP1 DUP1 PUSH1 0x1 ADD DUP1 SLOAD PUSH2 0x488 SWAP1 PUSH2 0x1183 JUMP JUMPDEST DUP1 PUSH1 0x1F ADD PUSH1 0x20 DUP1 SWAP2 DIV MUL PUSH1 0x20 ADD PUSH1 0x40 MLOAD SWAP1 DUP2 ADD PUSH1 0x40 MSTORE DUP1 SWAP3 SWAP2 SWAP1 DUP2 DUP2 MSTORE PUSH1 0x20 ADD DUP3 DUP1 SLOAD PUSH2 0x4B4 SWAP1 PUSH2 0x1183 JUMP JUMPDEST DUP1 ISZERO PUSH2 0x501 JUMPI DUP1 PUSH1 0x1F LT PUSH2 0x4D6 JUMPI PUSH2 0x100 DUP1 DUP4 SLOAD DIV MUL DUP4 MSTORE SWAP2 PUSH1 0x20 ADD SWAP2 PUSH2 0x501 JUMP JUMPDEST DUP3 ADD SWAP2 SWAP1 PUSH1 0x0 MSTORE PUSH1 0x20 PUSH1 0x0 KECCAK256 SWAP1 JUMPDEST DUP2 SLOAD DUP2 MSTORE SWAP1 PUSH1 0x1 ADD SWAP1 PUSH1 0x20 ADD DUP1 DUP4 GT PUSH2 0x4E4 JUMPI DUP3 SWAP1 SUB PUSH1 0x1F AND DUP3 ADD SWAP2 JUMPDEST POP POP POP POP POP SWAP1 DUP1 PUSH1 0x2 ADD DUP1 SLOAD PUSH2 0x516 SWAP1 PUSH2 0x1183 JUMP JUMPDEST DUP1 PUSH1 0x1F ADD PUSH1 0x20 DUP1 SWAP2 DIV MUL PUSH1 0x20 ADD PUSH1 0x40 MLOAD SWAP1 DUP2 ADD PUSH1 0x40 MSTORE DUP1 SWAP3 SWAP2 SWAP1 DUP2 DUP2 MSTORE PUSH1 0x20 ADD DUP3 DUP1 SLOAD PUSH2 0x542 SWAP1 PUSH2 0x1183 JUMP JUMPDEST DUP1 ISZERO PUSH2 0x58F JUMPI DUP1 PUSH1 0x1F LT PUSH2 0x564 JUMPI PUSH2 0x100 DUP1 DUP4 SLOAD DIV MUL DUP4 MSTORE SWAP2 PUSH1 0x20 ADD SWAP2 PUSH2 0x58F JUMP JUMPDEST DUP3 ADD SWAP2 SWAP1 PUSH1 0x0 MSTORE PUSH1 0x20 PUSH1 0x0 KECCAK256 SWAP1 JUMPDEST DUP2 SLOAD DUP2 MSTORE SWAP1 PUSH1 0x1 ADD SWAP1 PUSH1 0x20 ADD DUP1 DUP4 GT PUSH2 0x572 JUMPI DUP3 SWAP1 SUB PUSH1 0x1F AND DUP3 ADD SWAP2 JUMPDEST POP POP POP POP POP SWAP1 DUP1 PUSH1 0x3 ADD SLOAD SWAP1 POP DUP6 JUMP JUMPDEST PUSH1 0x3 DUP2 DUP2 SLOAD DUP2 LT PUSH2 0x5AF JUMPI PUSH1 0x0 DUP1 REVERT JUMPDEST SWAP1 PUSH1 0x0 MSTORE PUSH1 0x20 PUSH1 0x0 KECCAK256 SWAP1 PUSH1 0x4 MUL ADD PUSH1 0x0 SWAP2 POP SWAP1 POP DUP1 PUSH1 0x0 ADD PUSH1 0x0 SWAP1 SLOAD SWAP1 PUSH2 0x100 EXP SWAP1 DIV PUSH20 0xFFFFFFFFFFFFFFFFFFFFFFFFFFFFFFFFFFFFFFFF AND SWAP1 DUP1 PUSH1 0x0 ADD PUSH1 0x14 SWAP1 SLOAD SWAP1 PUSH2 0x100 EXP SWAP1 DIV PUSH1 0xFF AND SWAP1 DUP1 PUSH1 0x1 ADD DUP1 SLOAD PUSH2 0x60B SWAP1 PUSH2 0x1183 JUMP JUMPDEST DUP1 PUSH1 0x1F ADD PUSH1 0x20 DUP1 SWAP2 DIV MUL PUSH1 0x20 ADD PUSH1 0x40 MLOAD SWAP1 DUP2 ADD PUSH1 0x40 MSTORE DUP1 SWAP3 SWAP2 SWAP1 DUP2 DUP2 MSTORE PUSH1 0x20 ADD DUP3 DUP1 SLOAD PUSH2 0x637 SWAP1 PUSH2 0x1183 JUMP JUMPDEST DUP1 ISZERO PUSH2 0x684 JUMPI DUP1 PUSH1 0x1F LT PUSH2 0x659 JUMPI PUSH2 0x100 DUP1 DUP4 SLOAD DIV MUL DUP4 MSTORE SWAP2 PUSH1 0x20 ADD SWAP2 PUSH2 0x684 JUMP JUMPDEST DUP3 ADD SWAP2 SWAP1 PUSH1 0x0 MSTORE PUSH1 0x20 PUSH1 0x0 KECCAK256 SWAP1 JUMPDEST DUP2 SLOAD DUP2 MSTORE SWAP1 PUSH1 0x1 ADD SWAP1 PUSH1 0x20 ADD DUP1 DUP4 GT PUSH2 0x667 JUMPI DUP3 SWAP1 SUB PUSH1 0x1F AND DUP3 ADD SWAP2 JUMPDEST POP POP POP POP POP SWAP1 DUP1 PUSH1 0x2 ADD DUP1 SLOAD PUSH2 0x699 SWAP1 PUSH2 0x1183 JUMP JUMPDEST DUP1 PUSH1 0x1F ADD PUSH1 0x20 DUP1 SWAP2 DIV MUL PUSH1 0x20 ADD PUSH1 0x40 MLOAD SWAP1 DUP2 ADD PUSH1 0x40 MSTORE DUP1 SWAP3 SWAP2 SWAP1 DUP2 DUP2 MSTORE PUSH1 0x20 ADD DUP3 DUP1 SLOAD PUSH2 0x6C5 SWAP1 PUSH2 0x1183 JUMP JUMPDEST DUP1 ISZERO PUSH2 0x712 JUMPI DUP1 PUSH1 0x1F LT PUSH2 0x6E7 JUMPI PUSH2 0x100 DUP1 DUP4 SLOAD DIV MUL DUP4 MSTORE SWAP2 PUSH1 0x20 ADD SWAP2 PUSH2 0x712 JUMP JUMPDEST DUP3 ADD SWAP2 SWAP1 PUSH1 0x0 MSTORE PUSH1 0x20 PUSH1 0x0 KECCAK256 SWAP1 JUMPDEST DUP2 SLOAD DUP2 MSTORE SWAP1 PUSH1 0x1 ADD SWAP1 PUSH1 0x20 ADD DUP1 DUP4 GT PUSH2 0x6F5 JUMPI DUP3 SWAP1 SUB PUSH1 0x1F AND DUP3 ADD SWAP2 JUMPDEST POP POP POP POP POP SWAP1 DUP1 PUSH1 0x3 ADD SLOAD SWAP1 POP DUP6 JUMP JUMPDEST PUSH1 0x2 PUSH1 0x0 SWAP1 SLOAD SWAP1 PUSH2 0x100 EXP SWAP1 DIV PUSH20 0xFFFFFFFFFFFFFFFFFFFFFFFFFFFFFFFFFFFFFFFF AND PUSH20 0xFFFFFFFFFFFFFFFFFFFFFFFFFFFFFFFFFFFFFFFF AND CALLER PUSH20 0xFFFFFFFFFFFFFFFFFFFFFFFFFFFFFFFFFFFFFFFF AND EQ PUSH2 0x7B2 JUMPI PUSH1 0x40 MLOAD PUSH32 0x8C379A000000000000000000000000000000000000000000000000000000000 DUP2 MSTORE PUSH1 0x4 ADD PUSH2 0x7A9 SWAP1 PUSH2 0x1226 JUMP JUMPDEST PUSH1 0x40 MLOAD DUP1 SWAP2 SUB SWAP1 REVERT JUMPDEST PUSH8 0xDE0B6B3A7640000 PUSH1 0x1 SLOAD PUSH2 0x7C8 SWAP2 SWAP1 PUSH2 0x1246 JUMP JUMPDEST CALLVALUE EQ PUSH2 0x7D3 JUMPI PUSH1 0x0 DUP1 REVERT JUMPDEST PUSH1 0x0 PUSH1 0x1 PUSH1 0x0 SLOAD PUSH2 0x7E4 SWAP2 SWAP1 PUSH2 0x12A0 JUMP JUMPDEST CALLVALUE PUSH2 0x7EF SWAP2 SWAP1 PUSH2 0x1303 JUMP JUMPDEST SWAP1 POP PUSH1 0x0 JUMPDEST PUSH1 0x3 DUP1 SLOAD SWAP1 POP DUP2 LT ISZERO PUSH2 0x8DA JUMPI PUSH1 0x0 PUSH1 0x3 DUP3 DUP2 SLOAD DUP2 LT PUSH2 0x817 JUMPI PUSH2 0x816 PUSH2 0x1334 JUMP JUMPDEST JUMPDEST SWAP1 PUSH1 0x0 MSTORE PUSH1 0x20 PUSH1 0x0 KECCAK256 SWAP1 PUSH1 0x4 MUL ADD PUSH1 0x0 ADD PUSH1 0x0 SWAP1 SLOAD SWAP1 PUSH2 0x100 EXP SWAP1 DIV PUSH20 0xFFFFFFFFFFFFFFFFFFFFFFFFFFFFFFFFFFFFFFFF AND SWAP1 POP DUP4 PUSH20 0xFFFFFFFFFFFFFFFFFFFFFFFFFFFFFFFFFFFFFFFF AND DUP2 PUSH20 0xFFFFFFFFFFFFFFFFFFFFFFFFFFFFFFFFFFFFFFFF AND EQ PUSH2 0x8C6 JUMPI DUP1 PUSH20 0xFFFFFFFFFFFFFFFFFFFFFFFFFFFFFFFFFFFFFFFF AND PUSH2 0x8FC DUP5 SWAP1 DUP2 ISZERO MUL SWAP1 PUSH1 0x40 MLOAD PUSH1 0x0 PUSH1 0x40 MLOAD DUP1 DUP4 SUB DUP2 DUP6 DUP9 DUP9 CALL SWAP4 POP POP POP POP ISZERO DUP1 ISZERO PUSH2 0x8C4 JUMPI RETURNDATASIZE PUSH1 0x0 DUP1 RETURNDATACOPY RETURNDATASIZE PUSH1 0x0 REVERT JUMPDEST POP JUMPDEST POP DUP1 DUP1 PUSH2 0x8D2 SWAP1 PUSH2 0x1363 JUMP JUMPDEST SWAP2 POP POP PUSH2 0x7F4 JUMP JUMPDEST POP POP POP JUMP JUMPDEST PUSH1 0x0 PUSH1 0x40 MLOAD DUP1 PUSH1 0xA0 ADD PUSH1 0x40 MSTORE DUP1 CALLER PUSH20 0xFFFFFFFFFFFFFFFFFFFFFFFFFFFFFFFFFFFFFFFF AND DUP2 MSTORE PUSH1 0x20 ADD PUSH1 0x0 PUSH1 0x2 DUP2 GT ISZERO PUSH2 0x91C JUMPI PUSH2 0x91B PUSH2 0xC95 JUMP JUMPDEST JUMPDEST DUP2 MSTORE PUSH1 0x20 ADD DUP5 DUP2 MSTORE PUSH1 0x20 ADD DUP4 DUP2 MSTORE PUSH1 0x20 ADD TIMESTAMP DUP2 MSTORE POP SWAP1 POP DUP1 PUSH1 0x4 PUSH1 0x0 CALLER PUSH20 0xFFFFFFFFFFFFFFFFFFFFFFFFFFFFFFFFFFFFFFFF AND PUSH20 0xFFFFFFFFFFFFFFFFFFFFFFFFFFFFFFFFFFFFFFFF AND DUP2 MSTORE PUSH1 0x20 ADD SWAP1 DUP2 MSTORE PUSH1 0x20 ADD PUSH1 0x0 KECCAK256 PUSH1 0x0 DUP3 ADD MLOAD DUP2 PUSH1 0x0 ADD PUSH1 0x0 PUSH2 0x100 EXP DUP2 SLOAD DUP2 PUSH20 0xFFFFFFFFFFFFFFFFFFFFFFFFFFFFFFFFFFFFFFFF MUL NOT AND SWAP1 DUP4 PUSH20 0xFFFFFFFFFFFFFFFFFFFFFFFFFFFFFFFFFFFFFFFF AND MUL OR SWAP1 SSTORE POP PUSH1 0x20 DUP3 ADD MLOAD DUP2 PUSH1 0x0 ADD PUSH1 0x14 PUSH2 0x100 EXP DUP2 SLOAD DUP2 PUSH1 0xFF MUL NOT AND SWAP1 DUP4 PUSH1 0x2 DUP2 GT ISZERO PUSH2 0x9E5 JUMPI PUSH2 0x9E4 PUSH2 0xC95 JUMP JUMPDEST JUMPDEST MUL OR SWAP1 SSTORE POP PUSH1 0x40 DUP3 ADD MLOAD DUP2 PUSH1 0x1 ADD SWAP1 DUP1 MLOAD SWAP1 PUSH1 0x20 ADD SWAP1 PUSH2 0xA06 SWAP3 SWAP2 SWAP1 PUSH2 0xB1F JUMP JUMPDEST POP PUSH1 0x60 DUP3 ADD MLOAD DUP2 PUSH1 0x2 ADD SWAP1 DUP1 MLOAD SWAP1 PUSH1 0x20 ADD SWAP1 PUSH2 0xA23 SWAP3 SWAP2 SWAP1 PUSH2 0xB1F JUMP JUMPDEST POP PUSH1 0x80 DUP3 ADD MLOAD DUP2 PUSH1 0x3 ADD SSTORE SWAP1 POP POP PUSH1 0x3 DUP2 SWAP1 DUP1 PUSH1 0x1 DUP2 SLOAD ADD DUP1 DUP3 SSTORE DUP1 SWAP2 POP POP PUSH1 0x1 SWAP1 SUB SWAP1 PUSH1 0x0 MSTORE PUSH1 0x20 PUSH1 0x0 KECCAK256 SWAP1 PUSH1 0x4 MUL ADD PUSH1 0x0 SWAP1 SWAP2 SWAP1 SWAP2 SWAP1 SWAP2 POP PUSH1 0x0 DUP3 ADD MLOAD DUP2 PUSH1 0x0 ADD PUSH1 0x0 PUSH2 0x100 EXP DUP2 SLOAD DUP2 PUSH20 0xFFFFFFFFFFFFFFFFFFFFFFFFFFFFFFFFFFFFFFFF MUL NOT AND SWAP1 DUP4 PUSH20 0xFFFFFFFFFFFFFFFFFFFFFFFFFFFFFFFFFFFFFFFF AND MUL OR SWAP1 SSTORE POP PUSH1 0x20 DUP3 ADD MLOAD DUP2 PUSH1 0x0 ADD PUSH1 0x14 PUSH2 0x100 EXP DUP2 SLOAD DUP2 PUSH1 0xFF MUL NOT AND SWAP1 DUP4 PUSH1 0x2 DUP2 GT ISZERO PUSH2 0xACF JUMPI PUSH2 0xACE PUSH2 0xC95 JUMP JUMPDEST JUMPDEST MUL OR SWAP1 SSTORE POP PUSH1 0x40 DUP3 ADD MLOAD DUP2 PUSH1 0x1 ADD SWAP1 DUP1 MLOAD SWAP1 PUSH1 0x20 ADD SWAP1 PUSH2 0xAF0 SWAP3 SWAP2 SWAP1 PUSH2 0xB1F JUMP JUMPDEST POP PUSH1 0x60 DUP3 ADD MLOAD DUP2 PUSH1 0x2 ADD SWAP1 DUP1 MLOAD SWAP1 PUSH1 0x20 ADD SWAP1 PUSH2 0xB0D SWAP3 SWAP2 SWAP1 PUSH2 0xB1F JUMP JUMPDEST POP PUSH1 0x80 DUP3 ADD MLOAD DUP2 PUSH1 0x3 ADD SSTORE POP POP POP POP POP JUMP JUMPDEST DUP3 DUP1 SLOAD PUSH2 0xB2B SWAP1 PUSH2 0x1183 JUMP JUMPDEST SWAP1 PUSH1 0x0 MSTORE PUSH1 0x20 PUSH1 0x0 KECCAK256 SWAP1 PUSH1 0x1F ADD PUSH1 0x20 SWAP1 DIV DUP2 ADD SWAP3 DUP3 PUSH2 0xB4D JUMPI PUSH1 0x0 DUP6 SSTORE PUSH2 0xB94 JUMP JUMPDEST DUP3 PUSH1 0x1F LT PUSH2 0xB66 JUMPI DUP1 MLOAD PUSH1 0xFF NOT AND DUP4 DUP1 ADD OR DUP6 SSTORE PUSH2 0xB94 JUMP JUMPDEST DUP3 DUP1 ADD PUSH1 0x1 ADD DUP6 SSTORE DUP3 ISZERO PUSH2 0xB94 JUMPI SWAP2 DUP3 ADD JUMPDEST DUP3 DUP2 GT ISZERO PUSH2 0xB93 JUMPI DUP3 MLOAD DUP3 SSTORE SWAP2 PUSH1 0x20 ADD SWAP2 SWAP1 PUSH1 0x1 ADD SWAP1 PUSH2 0xB78 JUMP JUMPDEST JUMPDEST POP SWAP1 POP PUSH2 0xBA1 SWAP2 SWAP1 PUSH2 0xBA5 JUMP JUMPDEST POP SWAP1 JUMP JUMPDEST JUMPDEST DUP1 DUP3 GT ISZERO PUSH2 0xBBE JUMPI PUSH1 0x0 DUP2 PUSH1 0x0 SWAP1 SSTORE POP PUSH1 0x1 ADD PUSH2 0xBA6 JUMP JUMPDEST POP SWAP1 JUMP JUMPDEST PUSH1 0x0 DUP2 SWAP1 POP SWAP2 SWAP1 POP JUMP JUMPDEST PUSH2 0xBD5 DUP2 PUSH2 0xBC2 JUMP JUMPDEST DUP3 MSTORE POP POP JUMP JUMPDEST PUSH1 0x0 PUSH1 0x20 DUP3 ADD SWAP1 POP PUSH2 0xBF0 PUSH1 0x0 DUP4 ADD DUP5 PUSH2 0xBCC JUMP JUMPDEST SWAP3 SWAP2 POP POP JUMP JUMPDEST PUSH1 0x0 PUSH1 0x40 MLOAD SWAP1 POP SWAP1 JUMP JUMPDEST PUSH1 0x0 DUP1 REVERT JUMPDEST PUSH1 0x0 DUP1 REVERT JUMPDEST PUSH1 0x0 PUSH20 0xFFFFFFFFFFFFFFFFFFFFFFFFFFFFFFFFFFFFFFFF DUP3 AND SWAP1 POP SWAP2 SWAP1 POP JUMP JUMPDEST PUSH1 0x0 PUSH2 0xC35 DUP3 PUSH2 0xC0A JUMP JUMPDEST SWAP1 POP SWAP2 SWAP1 POP JUMP JUMPDEST PUSH2 0xC45 DUP2 PUSH2 0xC2A JUMP JUMPDEST DUP2 EQ PUSH2 0xC50 JUMPI PUSH1 0x0 DUP1 REVERT JUMPDEST POP JUMP JUMPDEST PUSH1 0x0 DUP2 CALLDATALOAD SWAP1 POP PUSH2 0xC62 DUP2 PUSH2 0xC3C JUMP JUMPDEST SWAP3 SWAP2 POP POP JUMP JUMPDEST PUSH1 0x0 PUSH1 0x20 DUP3 DUP5 SUB SLT ISZERO PUSH2 0xC7E JUMPI PUSH2 0xC7D PUSH2 0xC00 JUMP JUMPDEST JUMPDEST PUSH1 0x0 PUSH2 0xC8C DUP5 DUP3 DUP6 ADD PUSH2 0xC53 JUMP JUMPDEST SWAP2 POP POP SWAP3 SWAP2 POP POP JUMP JUMPDEST PUSH32 0x4E487B7100000000000000000000000000000000000000000000000000000000 PUSH1 0x0 MSTORE PUSH1 0x21 PUSH1 0x4 MSTORE PUSH1 0x24 PUSH1 0x0 REVERT JUMPDEST PUSH1 0x3 DUP2 LT PUSH2 0xCD5 JUMPI PUSH2 0xCD4 PUSH2 0xC95 JUMP JUMPDEST JUMPDEST POP JUMP JUMPDEST PUSH1 0x0 DUP2 SWAP1 POP PUSH2 0xCE6 DUP3 PUSH2 0xCC4 JUMP JUMPDEST SWAP2 SWAP1 POP JUMP JUMPDEST PUSH1 0x0 PUSH2 0xCF6 DUP3 PUSH2 0xCD8 JUMP JUMPDEST SWAP1 POP SWAP2 SWAP1 POP JUMP JUMPDEST PUSH2 0xD06 DUP2 PUSH2 0xCEB JUMP JUMPDEST DUP3 MSTORE POP POP JUMP JUMPDEST PUSH1 0x0 PUSH1 0x20 DUP3 ADD SWAP1 POP PUSH2 0xD21 PUSH1 0x0 DUP4 ADD DUP5 PUSH2 0xCFD JUMP JUMPDEST SWAP3 SWAP2 POP POP JUMP JUMPDEST PUSH1 0x0 PUSH2 0xD32 DUP3 PUSH2 0xC0A JUMP JUMPDEST SWAP1 POP SWAP2 SWAP1 POP JUMP JUMPDEST PUSH2 0xD42 DUP2 PUSH2 0xD27 JUMP JUMPDEST DUP3 MSTORE POP POP JUMP JUMPDEST PUSH1 0x0 PUSH1 0x20 DUP3 ADD SWAP1 POP PUSH2 0xD5D PUSH1 0x0 DUP4 ADD DUP5 PUSH2 0xD39 JUMP JUMPDEST SWAP3 SWAP2 POP POP JUMP JUMPDEST PUSH1 0x0 DUP1 REVERT JUMPDEST PUSH1 0x0 DUP1 REVERT JUMPDEST PUSH1 0x0 PUSH1 0x1F NOT PUSH1 0x1F DUP4 ADD AND SWAP1 POP SWAP2 SWAP1 POP JUMP JUMPDEST PUSH32 0x4E487B7100000000000000000000000000000000000000000000000000000000 PUSH1 0x0 MSTORE PUSH1 0x41 PUSH1 0x4 MSTORE PUSH1 0x24 PUSH1 0x0 REVERT JUMPDEST PUSH2 0xDB6 DUP3 PUSH2 0xD6D JUMP JUMPDEST DUP2 ADD DUP2 DUP2 LT PUSH8 0xFFFFFFFFFFFFFFFF DUP3 GT OR ISZERO PUSH2 0xDD5 JUMPI PUSH2 0xDD4 PUSH2 0xD7E JUMP JUMPDEST JUMPDEST DUP1 PUSH1 0x40 MSTORE POP POP POP JUMP JUMPDEST PUSH1 0x0 PUSH2 0xDE8 PUSH2 0xBF6 JUMP JUMPDEST SWAP1 POP PUSH2 0xDF4 DUP3 DUP3 PUSH2 0xDAD JUMP JUMPDEST SWAP2 SWAP1 POP JUMP JUMPDEST PUSH1 0x0 PUSH8 0xFFFFFFFFFFFFFFFF DUP3 GT ISZERO PUSH2 0xE14 JUMPI PUSH2 0xE13 PUSH2 0xD7E JUMP JUMPDEST JUMPDEST PUSH2 0xE1D DUP3 PUSH2 0xD6D JUMP JUMPDEST SWAP1 POP PUSH1 0x20 DUP2 ADD SWAP1 POP SWAP2 SWAP1 POP JUMP JUMPDEST DUP3 DUP2 DUP4 CALLDATACOPY PUSH1 0x0 DUP4 DUP4 ADD MSTORE POP POP POP JUMP JUMPDEST PUSH1 0x0 PUSH2 0xE4C PUSH2 0xE47 DUP5 PUSH2 0xDF9 JUMP JUMPDEST PUSH2 0xDDE JUMP JUMPDEST SWAP1 POP DUP3 DUP2 MSTORE PUSH1 0x20 DUP2 ADD DUP5 DUP5 DUP5 ADD GT ISZERO PUSH2 0xE68 JUMPI PUSH2 0xE67 PUSH2 0xD68 JUMP JUMPDEST JUMPDEST PUSH2 0xE73 DUP5 DUP3 DUP6 PUSH2 0xE2A JUMP JUMPDEST POP SWAP4 SWAP3 POP POP POP JUMP JUMPDEST PUSH1 0x0 DUP3 PUSH1 0x1F DUP4 ADD SLT PUSH2 0xE90 JUMPI PUSH2 0xE8F PUSH2 0xD63 JUMP JUMPDEST JUMPDEST DUP2 CALLDATALOAD PUSH2 0xEA0 DUP5 DUP3 PUSH1 0x20 DUP7 ADD PUSH2 0xE39 JUMP JUMPDEST SWAP2 POP POP SWAP3 SWAP2 POP POP JUMP JUMPDEST PUSH1 0x0 DUP1 PUSH1 0x40 DUP4 DUP6 SUB SLT ISZERO PUSH2 0xEC0 JUMPI PUSH2 0xEBF PUSH2 0xC00 JUMP JUMPDEST JUMPDEST PUSH1 0x0 DUP4 ADD CALLDATALOAD PUSH8 0xFFFFFFFFFFFFFFFF DUP2 GT ISZERO PUSH2 0xEDE JUMPI PUSH2 0xEDD PUSH2 0xC05 JUMP JUMPDEST JUMPDEST PUSH2 0xEEA DUP6 DUP3 DUP7 ADD PUSH2 0xE7B JUMP JUMPDEST SWAP3 POP POP PUSH1 0x20 DUP4 ADD CALLDATALOAD PUSH8 0xFFFFFFFFFFFFFFFF DUP2 GT ISZERO PUSH2 0xF0B JUMPI PUSH2 0xF0A PUSH2 0xC05 JUMP JUMPDEST JUMPDEST PUSH2 0xF17 DUP6 DUP3 DUP7 ADD PUSH2 0xE7B JUMP JUMPDEST SWAP2 POP POP SWAP3 POP SWAP3 SWAP1 POP JUMP JUMPDEST PUSH1 0x0 DUP2 MLOAD SWAP1 POP SWAP2 SWAP1 POP JUMP JUMPDEST PUSH1 0x0 DUP3 DUP3 MSTORE PUSH1 0x20 DUP3 ADD SWAP1 POP SWAP3 SWAP2 POP POP JUMP JUMPDEST PUSH1 0x0 JUMPDEST DUP4 DUP2 LT ISZERO PUSH2 0xF5B JUMPI DUP1 DUP3 ADD MLOAD DUP2 DUP5 ADD MSTORE PUSH1 0x20 DUP2 ADD SWAP1 POP PUSH2 0xF40 JUMP JUMPDEST DUP4 DUP2 GT ISZERO PUSH2 0xF6A JUMPI PUSH1 0x0 DUP5 DUP5 ADD MSTORE JUMPDEST POP POP POP POP JUMP JUMPDEST PUSH1 0x0 PUSH2 0xF7B DUP3 PUSH2 0xF21 JUMP JUMPDEST PUSH2 0xF85 DUP2 DUP6 PUSH2 0xF2C JUMP JUMPDEST SWAP4 POP PUSH2 0xF95 DUP2 DUP6 PUSH1 0x20 DUP7 ADD PUSH2 0xF3D JUMP JUMPDEST PUSH2 0xF9E DUP2 PUSH2 0xD6D JUMP JUMPDEST DUP5 ADD SWAP2 POP POP SWAP3 SWAP2 POP POP JUMP JUMPDEST PUSH1 0x0 PUSH1 0xA0 DUP3 ADD SWAP1 POP PUSH2 0xFBE PUSH1 0x0 DUP4 ADD DUP9 PUSH2 0xD39 JUMP JUMPDEST PUSH2 0xFCB PUSH1 0x20 DUP4 ADD DUP8 PUSH2 0xCFD JUMP JUMPDEST DUP2 DUP2 SUB PUSH1 0x40 DUP4 ADD MSTORE PUSH2 0xFDD DUP2 DUP7 PUSH2 0xF70 JUMP JUMPDEST SWAP1 POP DUP2 DUP2 SUB PUSH1 0x60 DUP4 ADD MSTORE PUSH2 0xFF1 DUP2 DUP6 PUSH2 0xF70 JUMP JUMPDEST SWAP1 POP PUSH2 0x1000 PUSH1 0x80 DUP4 ADD DUP5 PUSH2 0xBCC JUMP JUMPDEST SWAP7 SWAP6 POP POP POP POP POP POP JUMP JUMPDEST PUSH2 0x1013 DUP2 PUSH2 0xBC2 JUMP JUMPDEST DUP2 EQ PUSH2 0x101E JUMPI PUSH1 0x0 DUP1 REVERT JUMPDEST POP JUMP JUMPDEST PUSH1 0x0 DUP2 CALLDATALOAD SWAP1 POP PUSH2 0x1030 DUP2 PUSH2 0x100A JUMP JUMPDEST SWAP3 SWAP2 POP POP JUMP JUMPDEST PUSH1 0x0 PUSH1 0x20 DUP3 DUP5 SUB SLT ISZERO PUSH2 0x104C JUMPI PUSH2 0x104B PUSH2 0xC00 JUMP JUMPDEST JUMPDEST PUSH1 0x0 PUSH2 0x105A DUP5 DUP3 DUP6 ADD PUSH2 0x1021 JUMP JUMPDEST SWAP2 POP POP SWAP3 SWAP2 POP POP JUMP JUMPDEST PUSH32 0x4E487B7100000000000000000000000000000000000000000000000000000000 PUSH1 0x0 MSTORE PUSH1 0x11 PUSH1 0x4 MSTORE PUSH1 0x24 PUSH1 0x0 REVERT JUMPDEST PUSH1 0x0 PUSH2 0x109D DUP3 PUSH2 0xBC2 JUMP JUMPDEST SWAP2 POP PUSH2 0x10A8 DUP4 PUSH2 0xBC2 JUMP JUMPDEST SWAP3 POP DUP3 PUSH32 0xFFFFFFFFFFFFFFFFFFFFFFFFFFFFFFFFFFFFFFFFFFFFFFFFFFFFFFFFFFFFFFFF SUB DUP3 GT ISZERO PUSH2 0x10DD JUMPI PUSH2 0x10DC PUSH2 0x1063 JUMP JUMPDEST JUMPDEST DUP3 DUP3 ADD SWAP1 POP SWAP3 SWAP2 POP POP JUMP JUMPDEST PUSH32 0x546865206A6F696E696E67206665652069732032352065746865720000000000 PUSH1 0x0 DUP3 ADD MSTORE POP JUMP JUMPDEST PUSH1 0x0 PUSH2 0x111E PUSH1 0x1B DUP4 PUSH2 0xF2C JUMP JUMPDEST SWAP2 POP PUSH2 0x1129 DUP3 PUSH2 0x10E8 JUMP JUMPDEST PUSH1 0x20 DUP3 ADD SWAP1 POP SWAP2 SWAP1 POP JUMP JUMPDEST PUSH1 0x0 PUSH1 0x20 DUP3 ADD SWAP1 POP DUP2 DUP2 SUB PUSH1 0x0 DUP4 ADD MSTORE PUSH2 0x114D DUP2 PUSH2 0x1111 JUMP JUMPDEST SWAP1 POP SWAP2 SWAP1 POP JUMP JUMPDEST PUSH32 0x4E487B7100000000000000000000000000000000000000000000000000000000 PUSH1 0x0 MSTORE PUSH1 0x22 PUSH1 0x4 MSTORE PUSH1 0x24 PUSH1 0x0 REVERT JUMPDEST PUSH1 0x0 PUSH1 0x2 DUP3 DIV SWAP1 POP PUSH1 0x1 DUP3 AND DUP1 PUSH2 0x119B JUMPI PUSH1 0x7F DUP3 AND SWAP2 POP JUMPDEST PUSH1 0x20 DUP3 LT DUP2 SUB PUSH2 0x11AE JUMPI PUSH2 0x11AD PUSH2 0x1154 JUMP JUMPDEST JUMPDEST POP SWAP2 SWAP1 POP JUMP JUMPDEST PUSH32 0x4F6E6C7920746865206465616C65722063616E20706179206F75742074686520 PUSH1 0x0 DUP3 ADD MSTORE PUSH32 0x77696E6E6572732E000000000000000000000000000000000000000000000000 PUSH1 0x20 DUP3 ADD MSTORE POP JUMP JUMPDEST PUSH1 0x0 PUSH2 0x1210 PUSH1 0x28 DUP4 PUSH2 0xF2C JUMP JUMPDEST SWAP2 POP PUSH2 0x121B DUP3 PUSH2 0x11B4 JUMP JUMPDEST PUSH1 0x40 DUP3 ADD SWAP1 POP SWAP2 SWAP1 POP JUMP JUMPDEST PUSH1 0x0 PUSH1 0x20 DUP3 ADD SWAP1 POP DUP2 DUP2 SUB PUSH1 0x0 DUP4 ADD MSTORE PUSH2 0x123F DUP2 PUSH2 0x1203 JUMP JUMPDEST SWAP1 POP SWAP2 SWAP1 POP JUMP JUMPDEST PUSH1 0x0 PUSH2 0x1251 DUP3 PUSH2 0xBC2 JUMP JUMPDEST SWAP2 POP PUSH2 0x125C DUP4 PUSH2 0xBC2 JUMP JUMPDEST SWAP3 POP DUP2 PUSH32 0xFFFFFFFFFFFFFFFFFFFFFFFFFFFFFFFFFFFFFFFFFFFFFFFFFFFFFFFFFFFFFFFF DIV DUP4 GT DUP3 ISZERO ISZERO AND ISZERO PUSH2 0x1295 JUMPI PUSH2 0x1294 PUSH2 0x1063 JUMP JUMPDEST JUMPDEST DUP3 DUP3 MUL SWAP1 POP SWAP3 SWAP2 POP POP JUMP JUMPDEST PUSH1 0x0 PUSH2 0x12AB DUP3 PUSH2 0xBC2 JUMP JUMPDEST SWAP2 POP PUSH2 0x12B6 DUP4 PUSH2 0xBC2 JUMP JUMPDEST SWAP3 POP DUP3 DUP3 LT ISZERO PUSH2 0x12C9 JUMPI PUSH2 0x12C8 PUSH2 0x1063 JUMP JUMPDEST JUMPDEST DUP3 DUP3 SUB SWAP1 POP SWAP3 SWAP2 POP POP JUMP JUMPDEST PUSH32 0x4E487B7100000000000000000000000000000000000000000000000000000000 PUSH1 0x0 MSTORE PUSH1 0x12 PUSH1 0x4 MSTORE PUSH1 0x24 PUSH1 0x0 REVERT JUMPDEST PUSH1 0x0 PUSH2 0x130E DUP3 PUSH2 0xBC2 JUMP JUMPDEST SWAP2 POP PUSH2 0x1319 DUP4 PUSH2 0xBC2 JUMP JUMPDEST SWAP3 POP DUP3 PUSH2 0x1329 JUMPI PUSH2 0x1328 PUSH2 0x12D4 JUMP JUMPDEST JUMPDEST DUP3 DUP3 DIV SWAP1 POP SWAP3 SWAP2 POP POP JUMP JUMPDEST PUSH32 0x4E487B7100000000000000000000000000000000000000000000000000000000 PUSH1 0x0 MSTORE PUSH1 0x32 PUSH1 0x4 MSTORE PUSH1 0x24 PUSH1 0x0 REVERT JUMPDEST PUSH1 0x0 PUSH2 0x136E DUP3 PUSH2 0xBC2 JUMP JUMPDEST SWAP2 POP PUSH32 0xFFFFFFFFFFFFFFFFFFFFFFFFFFFFFFFFFFFFFFFFFFFFFFFFFFFFFFFFFFFFFFFF DUP3 SUB PUSH2 0x13A0 JUMPI PUSH2 0x139F PUSH2 0x1063 JUMP JUMPDEST JUMPDEST PUSH1 0x1 DUP3 ADD SWAP1 POP SWAP2 SWAP1 POP JUMP INVALID LOG2 PUSH5 0x6970667358 0x22 SLT KECCAK256 BYTE LOG2 PUSH30 0x1281B485D1E43B61C6274ABBF069EDE5F58221699503A65123C2059DE664 PUSH20 0x6F6C634300080D00330000000000000000000000 "
				},
				"gasEstimates": {
					"creation": {
						"codeDepositCost": "1017800",
						"executionCost": "35339",
						"totalCost": "1053139"
					},
					"external": {
						"changePlayerLevel(address)": "infinite",
						"dealer()": "2514",
						"getPlayerLevel(address)": "3051",
						"joinGame(string,string)": "infinite",
						"payOutWinners(address)": "infinite",
						"playerCount()": "2430",
						"players(address)": "infinite",
						"playersInGame(uint256)": "infinite",
						"pot()": "2474"
					},
					"internal": {
						"addPlayer(string memory,string memory)": "infinite"
					}
				},
				"methodIdentifiers": {
					"changePlayerLevel(address)": "8ddf0f7d",
					"dealer()": "9de2ee21",
					"getPlayerLevel(address)": "34b735a1",
					"joinGame(string,string)": "dbdef6f1",
					"payOutWinners(address)": "fed47dac",
					"playerCount()": "302bcc57",
					"players(address)": "e2eb41ff",
					"playersInGame(uint256)": "f9593e14",
					"pot()": "4ba2363a"
				}
			},
			"userdoc": {
				"kind": "user",
				"methods": {},
				"version": 1
			}
		}
	}
}