{
	"contracts/NFTDutchAuction.sol": {
		"DutchAuction": {
			"abi": [
				{
					"inputs": [
						{
							"internalType": "uint256",
							"name": "_startingPrice",
							"type": "uint256"
						},
						{
							"internalType": "uint256",
							"name": "_discountRate",
							"type": "uint256"
						},
						{
							"internalType": "address",
							"name": "_nft",
							"type": "address"
						},
						{
							"internalType": "uint256",
							"name": "_nftId",
							"type": "uint256"
						}
					],
					"stateMutability": "nonpayable",
					"type": "constructor"
				},
				{
					"inputs": [],
					"name": "buy",
					"outputs": [],
					"stateMutability": "payable",
					"type": "function"
				},
				{
					"inputs": [],
					"name": "discountRate",
					"outputs": [
						{
							"internalType": "uint256",
							"name": "",
							"type": "uint256"
						}
					],
					"stateMutability": "view",
					"type": "function"
				},
				{
					"inputs": [],
					"name": "ended",
					"outputs": [
						{
							"internalType": "bool",
							"name": "",
							"type": "bool"
						}
					],
					"stateMutability": "view",
					"type": "function"
				},
				{
					"inputs": [],
					"name": "expiresAt",
					"outputs": [
						{
							"internalType": "uint256",
							"name": "",
							"type": "uint256"
						}
					],
					"stateMutability": "view",
					"type": "function"
				},
				{
					"inputs": [],
					"name": "getPrice",
					"outputs": [
						{
							"internalType": "uint256",
							"name": "",
							"type": "uint256"
						}
					],
					"stateMutability": "view",
					"type": "function"
				},
				{
					"inputs": [],
					"name": "nft",
					"outputs": [
						{
							"internalType": "contract IERC721",
							"name": "",
							"type": "address"
						}
					],
					"stateMutability": "view",
					"type": "function"
				},
				{
					"inputs": [],
					"name": "nftId",
					"outputs": [
						{
							"internalType": "uint256",
							"name": "",
							"type": "uint256"
						}
					],
					"stateMutability": "view",
					"type": "function"
				},
				{
					"inputs": [],
					"name": "seller",
					"outputs": [
						{
							"internalType": "address payable",
							"name": "",
							"type": "address"
						}
					],
					"stateMutability": "view",
					"type": "function"
				},
				{
					"inputs": [],
					"name": "startAt",
					"outputs": [
						{
							"internalType": "uint256",
							"name": "",
							"type": "uint256"
						}
					],
					"stateMutability": "view",
					"type": "function"
				},
				{
					"inputs": [],
					"name": "startingPrice",
					"outputs": [
						{
							"internalType": "uint256",
							"name": "",
							"type": "uint256"
						}
					],
					"stateMutability": "view",
					"type": "function"
				}
			],
			"devdoc": {
				"kind": "dev",
				"methods": {},
				"version": 1
			},
			"evm": {
				"assembly": "    /* \"contracts/NFTDutchAuction.sol\":184:1771  contract DutchAuction {... */\n  mstore(0x40, 0x0160)\n    /* \"contracts/NFTDutchAuction.sol\":634:1065  constructor(uint _startingPrice, uint _discountRate, address _nft, uint _nftId) {... */\n  callvalue\n  dup1\n  iszero\n  tag_1\n  jumpi\n  0x00\n  dup1\n  revert\ntag_1:\n  pop\n  mload(0x40)\n  sub(codesize, bytecodeSize)\n  dup1\n  bytecodeSize\n  dup4\n  codecopy\n  dup2\n  dup2\n  add\n  0x40\n  mstore\n  dup2\n  add\n  swap1\n  tag_2\n  swap2\n  swap1\n  tag_3\n  jump\t// in\ntag_2:\n    /* \"contracts/NFTDutchAuction.sol\":741:751  msg.sender */\n  caller\n    /* \"contracts/NFTDutchAuction.sol\":724:752  seller = payable(msg.sender) */\n  0xffffffffffffffffffffffffffffffffffffffff\n  and\n  0xc0\n  dup2\n  0xffffffffffffffffffffffffffffffffffffffff\n  and\n  0x60\n  shl\n  dup2\n  mstore\n  pop\n  pop\n    /* \"contracts/NFTDutchAuction.sol\":778:792  _startingPrice */\n  dup4\n    /* \"contracts/NFTDutchAuction.sol\":762:792  startingPrice = _startingPrice */\n  0xe0\n  dup2\n  dup2\n  mstore\n  pop\n  pop\n    /* \"contracts/NFTDutchAuction.sol\":817:830  _discountRate */\n  dup3\n    /* \"contracts/NFTDutchAuction.sol\":802:830  discountRate = _discountRate */\n  0x0140\n  dup2\n  dup2\n  mstore\n  pop\n  pop\n    /* \"contracts/NFTDutchAuction.sol\":850:865  block.timestamp */\n  timestamp\n    /* \"contracts/NFTDutchAuction.sol\":840:865  startAt = block.timestamp */\n  0x0100\n  dup2\n  dup2\n  mstore\n  pop\n  pop\n    /* \"contracts/NFTDutchAuction.sol\":245:251  7 days */\n  0x093a80\n    /* \"contracts/NFTDutchAuction.sol\":887:902  block.timestamp */\n  timestamp\n    /* \"contracts/NFTDutchAuction.sol\":887:913  block.timestamp + DURATION */\n  tag_6\n  swap2\n  swap1\n  tag_7\n  jump\t// in\ntag_6:\n    /* \"contracts/NFTDutchAuction.sol\":875:913  expiresAt = block.timestamp + DURATION */\n  0x0120\n  dup2\n  dup2\n  mstore\n  pop\n  pop\n    /* \"contracts/NFTDutchAuction.sol\":245:251  7 days */\n  0x093a80\n    /* \"contracts/NFTDutchAuction.sol\":950:963  _discountRate */\n  dup4\n    /* \"contracts/NFTDutchAuction.sol\":950:974  _discountRate * DURATION */\n  tag_8\n  swap2\n  swap1\n  tag_9\n  jump\t// in\ntag_8:\n    /* \"contracts/NFTDutchAuction.sol\":932:946  _startingPrice */\n  dup5\n    /* \"contracts/NFTDutchAuction.sol\":932:974  _startingPrice >= _discountRate * DURATION */\n  lt\n  iszero\n    /* \"contracts/NFTDutchAuction.sol\":924:1004  require(_startingPrice >= _discountRate * DURATION, \"starting price < discount\") */\n  tag_10\n  jumpi\n  mload(0x40)\n  0x08c379a000000000000000000000000000000000000000000000000000000000\n  dup2\n  mstore\n  0x04\n  add\n  tag_11\n  swap1\n  tag_12\n  jump\t// in\ntag_11:\n  mload(0x40)\n  dup1\n  swap2\n  sub\n  swap1\n  revert\ntag_10:\n    /* \"contracts/NFTDutchAuction.sol\":1029:1033  _nft */\n  dup2\n    /* \"contracts/NFTDutchAuction.sol\":1015:1034  nft = IERC721(_nft) */\n  0xffffffffffffffffffffffffffffffffffffffff\n  and\n  0x80\n  dup2\n  0xffffffffffffffffffffffffffffffffffffffff\n  and\n  0x60\n  shl\n  dup2\n  mstore\n  pop\n  pop\n    /* \"contracts/NFTDutchAuction.sol\":1052:1058  _nftId */\n  dup1\n    /* \"contracts/NFTDutchAuction.sol\":1044:1058  nftId = _nftId */\n  0xa0\n  dup2\n  dup2\n  mstore\n  pop\n  pop\n    /* \"contracts/NFTDutchAuction.sol\":634:1065  constructor(uint _startingPrice, uint _discountRate, address _nft, uint _nftId) {... */\n  pop\n  pop\n  pop\n  pop\n    /* \"contracts/NFTDutchAuction.sol\":184:1771  contract DutchAuction {... */\n  jump(tag_13)\n    /* \"#utility.yul\":7:150   */\ntag_15:\n    /* \"#utility.yul\":64:69   */\n  0x00\n    /* \"#utility.yul\":95:101   */\n  dup2\n    /* \"#utility.yul\":89:102   */\n  mload\n    /* \"#utility.yul\":80:102   */\n  swap1\n  pop\n    /* \"#utility.yul\":111:144   */\n  tag_17\n    /* \"#utility.yul\":138:143   */\n  dup2\n    /* \"#utility.yul\":111:144   */\n  tag_18\n  jump\t// in\ntag_17:\n    /* \"#utility.yul\":7:150   */\n  swap3\n  swap2\n  pop\n  pop\n  jump\t// out\n    /* \"#utility.yul\":156:299   */\ntag_19:\n    /* \"#utility.yul\":213:218   */\n  0x00\n    /* \"#utility.yul\":244:250   */\n  dup2\n    /* \"#utility.yul\":238:251   */\n  mload\n    /* \"#utility.yul\":229:251   */\n  swap1\n  pop\n    /* \"#utility.yul\":260:293   */\n  tag_21\n    /* \"#utility.yul\":287:292   */\n  dup2\n    /* \"#utility.yul\":260:293   */\n  tag_22\n  jump\t// in\ntag_21:\n    /* \"#utility.yul\":156:299   */\n  swap3\n  swap2\n  pop\n  pop\n  jump\t// out\n    /* \"#utility.yul\":305:1125   */\ntag_3:\n    /* \"#utility.yul\":402:408   */\n  0x00\n    /* \"#utility.yul\":410:416   */\n  dup1\n    /* \"#utility.yul\":418:424   */\n  0x00\n    /* \"#utility.yul\":426:432   */\n  dup1\n    /* \"#utility.yul\":475:478   */\n  0x80\n    /* \"#utility.yul\":463:472   */\n  dup6\n    /* \"#utility.yul\":454:461   */\n  dup8\n    /* \"#utility.yul\":450:473   */\n  sub\n    /* \"#utility.yul\":446:479   */\n  slt\n    /* \"#utility.yul\":443:563   */\n  iszero\n  tag_24\n  jumpi\n    /* \"#utility.yul\":482:561   */\n  tag_25\n  tag_26\n  jump\t// in\ntag_25:\n    /* \"#utility.yul\":443:563   */\ntag_24:\n    /* \"#utility.yul\":602:603   */\n  0x00\n    /* \"#utility.yul\":627:691   */\n  tag_27\n    /* \"#utility.yul\":683:690   */\n  dup8\n    /* \"#utility.yul\":674:680   */\n  dup3\n    /* \"#utility.yul\":663:672   */\n  dup9\n    /* \"#utility.yul\":659:681   */\n  add\n    /* \"#utility.yul\":627:691   */\n  tag_19\n  jump\t// in\ntag_27:\n    /* \"#utility.yul\":617:691   */\n  swap5\n  pop\n    /* \"#utility.yul\":573:701   */\n  pop\n    /* \"#utility.yul\":740:742   */\n  0x20\n    /* \"#utility.yul\":766:830   */\n  tag_28\n    /* \"#utility.yul\":822:829   */\n  dup8\n    /* \"#utility.yul\":813:819   */\n  dup3\n    /* \"#utility.yul\":802:811   */\n  dup9\n    /* \"#utility.yul\":798:820   */\n  add\n    /* \"#utility.yul\":766:830   */\n  tag_19\n  jump\t// in\ntag_28:\n    /* \"#utility.yul\":756:830   */\n  swap4\n  pop\n    /* \"#utility.yul\":711:840   */\n  pop\n    /* \"#utility.yul\":879:881   */\n  0x40\n    /* \"#utility.yul\":905:969   */\n  tag_29\n    /* \"#utility.yul\":961:968   */\n  dup8\n    /* \"#utility.yul\":952:958   */\n  dup3\n    /* \"#utility.yul\":941:950   */\n  dup9\n    /* \"#utility.yul\":937:959   */\n  add\n    /* \"#utility.yul\":905:969   */\n  tag_15\n  jump\t// in\ntag_29:\n    /* \"#utility.yul\":895:969   */\n  swap3\n  pop\n    /* \"#utility.yul\":850:979   */\n  pop\n    /* \"#utility.yul\":1018:1020   */\n  0x60\n    /* \"#utility.yul\":1044:1108   */\n  tag_30\n    /* \"#utility.yul\":1100:1107   */\n  dup8\n    /* \"#utility.yul\":1091:1097   */\n  dup3\n    /* \"#utility.yul\":1080:1089   */\n  dup9\n    /* \"#utility.yul\":1076:1098   */\n  add\n    /* \"#utility.yul\":1044:1108   */\n  tag_19\n  jump\t// in\ntag_30:\n    /* \"#utility.yul\":1034:1108   */\n  swap2\n  pop\n    /* \"#utility.yul\":989:1118   */\n  pop\n    /* \"#utility.yul\":305:1125   */\n  swap3\n  swap6\n  swap2\n  swap5\n  pop\n  swap3\n  pop\n  jump\t// out\n    /* \"#utility.yul\":1131:1497   */\ntag_31:\n    /* \"#utility.yul\":1273:1276   */\n  0x00\n    /* \"#utility.yul\":1294:1361   */\n  tag_33\n    /* \"#utility.yul\":1358:1360   */\n  0x19\n    /* \"#utility.yul\":1353:1356   */\n  dup4\n    /* \"#utility.yul\":1294:1361   */\n  tag_34\n  jump\t// in\ntag_33:\n    /* \"#utility.yul\":1287:1361   */\n  swap2\n  pop\n    /* \"#utility.yul\":1370:1463   */\n  tag_35\n    /* \"#utility.yul\":1459:1462   */\n  dup3\n    /* \"#utility.yul\":1370:1463   */\n  tag_36\n  jump\t// in\ntag_35:\n    /* \"#utility.yul\":1488:1490   */\n  0x20\n    /* \"#utility.yul\":1483:1486   */\n  dup3\n    /* \"#utility.yul\":1479:1491   */\n  add\n    /* \"#utility.yul\":1472:1491   */\n  swap1\n  pop\n    /* \"#utility.yul\":1131:1497   */\n  swap2\n  swap1\n  pop\n  jump\t// out\n    /* \"#utility.yul\":1503:1922   */\ntag_12:\n    /* \"#utility.yul\":1669:1673   */\n  0x00\n    /* \"#utility.yul\":1707:1709   */\n  0x20\n    /* \"#utility.yul\":1696:1705   */\n  dup3\n    /* \"#utility.yul\":1692:1710   */\n  add\n    /* \"#utility.yul\":1684:1710   */\n  swap1\n  pop\n    /* \"#utility.yul\":1756:1765   */\n  dup2\n    /* \"#utility.yul\":1750:1754   */\n  dup2\n    /* \"#utility.yul\":1746:1766   */\n  sub\n    /* \"#utility.yul\":1742:1743   */\n  0x00\n    /* \"#utility.yul\":1731:1740   */\n  dup4\n    /* \"#utility.yul\":1727:1744   */\n  add\n    /* \"#utility.yul\":1720:1767   */\n  mstore\n    /* \"#utility.yul\":1784:1915   */\n  tag_38\n    /* \"#utility.yul\":1910:1914   */\n  dup2\n    /* \"#utility.yul\":1784:1915   */\n  tag_31\n  jump\t// in\ntag_38:\n    /* \"#utility.yul\":1776:1915   */\n  swap1\n  pop\n    /* \"#utility.yul\":1503:1922   */\n  swap2\n  swap1\n  pop\n  jump\t// out\n    /* \"#utility.yul\":2009:2178   */\ntag_34:\n    /* \"#utility.yul\":2093:2104   */\n  0x00\n    /* \"#utility.yul\":2127:2133   */\n  dup3\n    /* \"#utility.yul\":2122:2125   */\n  dup3\n    /* \"#utility.yul\":2115:2134   */\n  mstore\n    /* \"#utility.yul\":2167:2171   */\n  0x20\n    /* \"#utility.yul\":2162:2165   */\n  dup3\n    /* \"#utility.yul\":2158:2172   */\n  add\n    /* \"#utility.yul\":2143:2172   */\n  swap1\n  pop\n    /* \"#utility.yul\":2009:2178   */\n  swap3\n  swap2\n  pop\n  pop\n  jump\t// out\n    /* \"#utility.yul\":2184:2489   */\ntag_7:\n    /* \"#utility.yul\":2224:2227   */\n  0x00\n    /* \"#utility.yul\":2243:2263   */\n  tag_43\n    /* \"#utility.yul\":2261:2262   */\n  dup3\n    /* \"#utility.yul\":2243:2263   */\n  tag_44\n  jump\t// in\ntag_43:\n    /* \"#utility.yul\":2238:2263   */\n  swap2\n  pop\n    /* \"#utility.yul\":2277:2297   */\n  tag_45\n    /* \"#utility.yul\":2295:2296   */\n  dup4\n    /* \"#utility.yul\":2277:2297   */\n  tag_44\n  jump\t// in\ntag_45:\n    /* \"#utility.yul\":2272:2297   */\n  swap3\n  pop\n    /* \"#utility.yul\":2431:2432   */\n  dup3\n    /* \"#utility.yul\":2363:2429   */\n  0xffffffffffffffffffffffffffffffffffffffffffffffffffffffffffffffff\n    /* \"#utility.yul\":2359:2433   */\n  sub\n    /* \"#utility.yul\":2356:2357   */\n  dup3\n    /* \"#utility.yul\":2353:2434   */\n  gt\n    /* \"#utility.yul\":2350:2457   */\n  iszero\n  tag_46\n  jumpi\n    /* \"#utility.yul\":2437:2455   */\n  tag_47\n  tag_48\n  jump\t// in\ntag_47:\n    /* \"#utility.yul\":2350:2457   */\ntag_46:\n    /* \"#utility.yul\":2481:2482   */\n  dup3\n    /* \"#utility.yul\":2478:2479   */\n  dup3\n    /* \"#utility.yul\":2474:2483   */\n  add\n    /* \"#utility.yul\":2467:2483   */\n  swap1\n  pop\n    /* \"#utility.yul\":2184:2489   */\n  swap3\n  swap2\n  pop\n  pop\n  jump\t// out\n    /* \"#utility.yul\":2495:2843   */\ntag_9:\n    /* \"#utility.yul\":2535:2542   */\n  0x00\n    /* \"#utility.yul\":2558:2578   */\n  tag_50\n    /* \"#utility.yul\":2576:2577   */\n  dup3\n    /* \"#utility.yul\":2558:2578   */\n  tag_44\n  jump\t// in\ntag_50:\n    /* \"#utility.yul\":2553:2578   */\n  swap2\n  pop\n    /* \"#utility.yul\":2592:2612   */\n  tag_51\n    /* \"#utility.yul\":2610:2611   */\n  dup4\n    /* \"#utility.yul\":2592:2612   */\n  tag_44\n  jump\t// in\ntag_51:\n    /* \"#utility.yul\":2587:2612   */\n  swap3\n  pop\n    /* \"#utility.yul\":2780:2781   */\n  dup2\n    /* \"#utility.yul\":2712:2778   */\n  0xffffffffffffffffffffffffffffffffffffffffffffffffffffffffffffffff\n    /* \"#utility.yul\":2708:2782   */\n  div\n    /* \"#utility.yul\":2705:2706   */\n  dup4\n    /* \"#utility.yul\":2702:2783   */\n  gt\n    /* \"#utility.yul\":2697:2698   */\n  dup3\n    /* \"#utility.yul\":2690:2699   */\n  iszero\n    /* \"#utility.yul\":2683:2700   */\n  iszero\n    /* \"#utility.yul\":2679:2784   */\n  and\n    /* \"#utility.yul\":2676:2807   */\n  iszero\n  tag_52\n  jumpi\n    /* \"#utility.yul\":2787:2805   */\n  tag_53\n  tag_48\n  jump\t// in\ntag_53:\n    /* \"#utility.yul\":2676:2807   */\ntag_52:\n    /* \"#utility.yul\":2835:2836   */\n  dup3\n    /* \"#utility.yul\":2832:2833   */\n  dup3\n    /* \"#utility.yul\":2828:2837   */\n  mul\n    /* \"#utility.yul\":2817:2837   */\n  swap1\n  pop\n    /* \"#utility.yul\":2495:2843   */\n  swap3\n  swap2\n  pop\n  pop\n  jump\t// out\n    /* \"#utility.yul\":2849:2945   */\ntag_54:\n    /* \"#utility.yul\":2886:2893   */\n  0x00\n    /* \"#utility.yul\":2915:2939   */\n  tag_56\n    /* \"#utility.yul\":2933:2938   */\n  dup3\n    /* \"#utility.yul\":2915:2939   */\n  tag_57\n  jump\t// in\ntag_56:\n    /* \"#utility.yul\":2904:2939   */\n  swap1\n  pop\n    /* \"#utility.yul\":2849:2945   */\n  swap2\n  swap1\n  pop\n  jump\t// out\n    /* \"#utility.yul\":2951:3077   */\ntag_57:\n    /* \"#utility.yul\":2988:2995   */\n  0x00\n    /* \"#utility.yul\":3028:3070   */\n  0xffffffffffffffffffffffffffffffffffffffff\n    /* \"#utility.yul\":3021:3026   */\n  dup3\n    /* \"#utility.yul\":3017:3071   */\n  and\n    /* \"#utility.yul\":3006:3071   */\n  swap1\n  pop\n    /* \"#utility.yul\":2951:3077   */\n  swap2\n  swap1\n  pop\n  jump\t// out\n    /* \"#utility.yul\":3083:3160   */\ntag_44:\n    /* \"#utility.yul\":3120:3127   */\n  0x00\n    /* \"#utility.yul\":3149:3154   */\n  dup2\n    /* \"#utility.yul\":3138:3154   */\n  swap1\n  pop\n    /* \"#utility.yul\":3083:3160   */\n  swap2\n  swap1\n  pop\n  jump\t// out\n    /* \"#utility.yul\":3166:3346   */\ntag_48:\n    /* \"#utility.yul\":3214:3291   */\n  0x4e487b7100000000000000000000000000000000000000000000000000000000\n    /* \"#utility.yul\":3211:3212   */\n  0x00\n    /* \"#utility.yul\":3204:3292   */\n  mstore\n    /* \"#utility.yul\":3311:3315   */\n  0x11\n    /* \"#utility.yul\":3308:3309   */\n  0x04\n    /* \"#utility.yul\":3301:3316   */\n  mstore\n    /* \"#utility.yul\":3335:3339   */\n  0x24\n    /* \"#utility.yul\":3332:3333   */\n  0x00\n    /* \"#utility.yul\":3325:3340   */\n  revert\n    /* \"#utility.yul\":3475:3592   */\ntag_26:\n    /* \"#utility.yul\":3584:3585   */\n  0x00\n    /* \"#utility.yul\":3581:3582   */\n  dup1\n    /* \"#utility.yul\":3574:3586   */\n  revert\n    /* \"#utility.yul\":3598:3773   */\ntag_36:\n    /* \"#utility.yul\":3738:3765   */\n  0x7374617274696e67207072696365203c20646973636f756e7400000000000000\n    /* \"#utility.yul\":3734:3735   */\n  0x00\n    /* \"#utility.yul\":3726:3732   */\n  dup3\n    /* \"#utility.yul\":3722:3736   */\n  add\n    /* \"#utility.yul\":3715:3766   */\n  mstore\n    /* \"#utility.yul\":3598:3773   */\n  pop\n  jump\t// out\n    /* \"#utility.yul\":3779:3901   */\ntag_18:\n    /* \"#utility.yul\":3852:3876   */\n  tag_66\n    /* \"#utility.yul\":3870:3875   */\n  dup2\n    /* \"#utility.yul\":3852:3876   */\n  tag_54\n  jump\t// in\ntag_66:\n    /* \"#utility.yul\":3845:3850   */\n  dup2\n    /* \"#utility.yul\":3842:3877   */\n  eq\n    /* \"#utility.yul\":3832:3895   */\n  tag_67\n  jumpi\n    /* \"#utility.yul\":3891:3892   */\n  0x00\n    /* \"#utility.yul\":3888:3889   */\n  dup1\n    /* \"#utility.yul\":3881:3893   */\n  revert\n    /* \"#utility.yul\":3832:3895   */\ntag_67:\n    /* \"#utility.yul\":3779:3901   */\n  pop\n  jump\t// out\n    /* \"#utility.yul\":3907:4029   */\ntag_22:\n    /* \"#utility.yul\":3980:4004   */\n  tag_69\n    /* \"#utility.yul\":3998:4003   */\n  dup2\n    /* \"#utility.yul\":3980:4004   */\n  tag_44\n  jump\t// in\ntag_69:\n    /* \"#utility.yul\":3973:3978   */\n  dup2\n    /* \"#utility.yul\":3970:4005   */\n  eq\n    /* \"#utility.yul\":3960:4023   */\n  tag_70\n  jumpi\n    /* \"#utility.yul\":4019:4020   */\n  0x00\n    /* \"#utility.yul\":4016:4017   */\n  dup1\n    /* \"#utility.yul\":4009:4021   */\n  revert\n    /* \"#utility.yul\":3960:4023   */\ntag_70:\n    /* \"#utility.yul\":3907:4029   */\n  pop\n  jump\t// out\n    /* \"contracts/NFTDutchAuction.sol\":184:1771  contract DutchAuction {... */\ntag_13:\n  shr(0x60, mload(0x80))\n  mload(0xa0)\n  shr(0x60, mload(0xc0))\n  mload(0xe0)\n  mload(0x0100)\n  mload(0x0120)\n  mload(0x0140)\n  codecopy(0x00, dataOffset(sub_0), dataSize(sub_0))\n  0x00\n  assignImmutable(\"0x7749cc8014201da2069c21d93ba99c584b6f62d393fde534ed47eac227e31561\")\n  0x00\n  assignImmutable(\"0x58a280f74f57bf051c40f060139dc747e015be52f68c57e2c4ab2e4bd4146f43\")\n  0x00\n  assignImmutable(\"0x81e080ffc23e8b8d44dd829bc823229e92b893eb1d8f624419d3f5682eb97fc3\")\n  0x00\n  assignImmutable(\"0x1572b593c53d839d80004aa4b8c51211864104f06ace9e22be9c4365b50655ea\")\n  0x00\n  assignImmutable(\"0xf4c2b5de886427473655d4c904c743576dc2d53249b7535d96c06cc97ae7216b\")\n  0x00\n  assignImmutable(\"0x939eb54753ed0cc7e2272bfb34cbe098308c93936ed54d79078f76ade0b2e789\")\n  0x00\n  assignImmutable(\"0x8e8fab5f003314da8d1873ea7720e8d9f47650136d916064d1edb8a11d682624\")\n  return(0x00, dataSize(sub_0))\nstop\n\nsub_0: assembly {\n        /* \"contracts/NFTDutchAuction.sol\":184:1771  contract DutchAuction {... */\n      mstore(0x40, 0x80)\n      jumpi(tag_1, lt(calldatasize, 0x04))\n      shr(0xe0, calldataload(0x00))\n      dup1\n      0xa6f2ae3a\n      gt\n      tag_12\n      jumpi\n      dup1\n      0xa6f2ae3a\n      eq\n      tag_7\n      jumpi\n      dup1\n      0xc6bc5182\n      eq\n      tag_8\n      jumpi\n      dup1\n      0xc7446565\n      eq\n      tag_9\n      jumpi\n      dup1\n      0xd6fbf202\n      eq\n      tag_10\n      jumpi\n      dup1\n      0xe6c0e6d5\n      eq\n      tag_11\n      jumpi\n      jump(tag_1)\n    tag_12:\n      dup1\n      0x08551a53\n      eq\n      tag_2\n      jumpi\n      dup1\n      0x12fa6feb\n      eq\n      tag_3\n      jumpi\n      dup1\n      0x47ccca02\n      eq\n      tag_4\n      jumpi\n      dup1\n      0x8622a689\n      eq\n      tag_5\n      jumpi\n      dup1\n      0x98d5fdca\n      eq\n      tag_6\n      jumpi\n    tag_1:\n      0x00\n      dup1\n      revert\n        /* \"contracts/NFTDutchAuction.sol\":326:365  address payable public immutable seller */\n    tag_2:\n      callvalue\n      dup1\n      iszero\n      tag_13\n      jumpi\n      0x00\n      dup1\n      revert\n    tag_13:\n      pop\n      tag_14\n      tag_15\n      jump\t// in\n    tag_14:\n      mload(0x40)\n      tag_16\n      swap2\n      swap1\n      tag_17\n      jump\t// in\n    tag_16:\n      mload(0x40)\n      dup1\n      swap2\n      sub\n      swap1\n      return\n        /* \"contracts/NFTDutchAuction.sol\":524:541  bool public ended */\n    tag_3:\n      callvalue\n      dup1\n      iszero\n      tag_18\n      jumpi\n      0x00\n      dup1\n      revert\n    tag_18:\n      pop\n      tag_19\n      tag_20\n      jump\t// in\n    tag_19:\n      mload(0x40)\n      tag_21\n      swap2\n      swap1\n      tag_22\n      jump\t// in\n    tag_21:\n      mload(0x40)\n      dup1\n      swap2\n      sub\n      swap1\n      return\n        /* \"contracts/NFTDutchAuction.sol\":258:286  IERC721 public immutable nft */\n    tag_4:\n      callvalue\n      dup1\n      iszero\n      tag_23\n      jumpi\n      0x00\n      dup1\n      revert\n    tag_23:\n      pop\n      tag_24\n      tag_25\n      jump\t// in\n    tag_24:\n      mload(0x40)\n      tag_26\n      swap2\n      swap1\n      tag_27\n      jump\t// in\n    tag_26:\n      mload(0x40)\n      dup1\n      swap2\n      sub\n      swap1\n      return\n        /* \"contracts/NFTDutchAuction.sol\":447:478  uint public immutable expiresAt */\n    tag_5:\n      callvalue\n      dup1\n      iszero\n      tag_28\n      jumpi\n      0x00\n      dup1\n      revert\n    tag_28:\n      pop\n      tag_29\n      tag_30\n      jump\t// in\n    tag_29:\n      mload(0x40)\n      tag_31\n      swap2\n      swap1\n      tag_32\n      jump\t// in\n    tag_31:\n      mload(0x40)\n      dup1\n      swap2\n      sub\n      swap1\n      return\n        /* \"contracts/NFTDutchAuction.sol\":1071:1281  function getPrice() public view notEnded returns (uint) {... */\n    tag_6:\n      callvalue\n      dup1\n      iszero\n      tag_33\n      jumpi\n      0x00\n      dup1\n      revert\n    tag_33:\n      pop\n      tag_34\n      tag_35\n      jump\t// in\n    tag_34:\n      mload(0x40)\n      tag_36\n      swap2\n      swap1\n      tag_32\n      jump\t// in\n    tag_36:\n      mload(0x40)\n      dup1\n      swap2\n      sub\n      swap1\n      return\n        /* \"contracts/NFTDutchAuction.sol\":1287:1769  function buy() external payable notEnded {... */\n    tag_7:\n      tag_37\n      tag_38\n      jump\t// in\n    tag_37:\n      stop\n        /* \"contracts/NFTDutchAuction.sol\":292:319  uint public immutable nftId */\n    tag_8:\n      callvalue\n      dup1\n      iszero\n      tag_39\n      jumpi\n      0x00\n      dup1\n      revert\n    tag_39:\n      pop\n      tag_40\n      tag_41\n      jump\t// in\n    tag_40:\n      mload(0x40)\n      tag_42\n      swap2\n      swap1\n      tag_32\n      jump\t// in\n    tag_42:\n      mload(0x40)\n      dup1\n      swap2\n      sub\n      swap1\n      return\n        /* \"contracts/NFTDutchAuction.sol\":412:441  uint public immutable startAt */\n    tag_9:\n      callvalue\n      dup1\n      iszero\n      tag_43\n      jumpi\n      0x00\n      dup1\n      revert\n    tag_43:\n      pop\n      tag_44\n      tag_45\n      jump\t// in\n    tag_44:\n      mload(0x40)\n      tag_46\n      swap2\n      swap1\n      tag_32\n      jump\t// in\n    tag_46:\n      mload(0x40)\n      dup1\n      swap2\n      sub\n      swap1\n      return\n        /* \"contracts/NFTDutchAuction.sol\":371:406  uint public immutable startingPrice */\n    tag_10:\n      callvalue\n      dup1\n      iszero\n      tag_47\n      jumpi\n      0x00\n      dup1\n      revert\n    tag_47:\n      pop\n      tag_48\n      tag_49\n      jump\t// in\n    tag_48:\n      mload(0x40)\n      tag_50\n      swap2\n      swap1\n      tag_32\n      jump\t// in\n    tag_50:\n      mload(0x40)\n      dup1\n      swap2\n      sub\n      swap1\n      return\n        /* \"contracts/NFTDutchAuction.sol\":484:518  uint public immutable discountRate */\n    tag_11:\n      callvalue\n      dup1\n      iszero\n      tag_51\n      jumpi\n      0x00\n      dup1\n      revert\n    tag_51:\n      pop\n      tag_52\n      tag_53\n      jump\t// in\n    tag_52:\n      mload(0x40)\n      tag_54\n      swap2\n      swap1\n      tag_32\n      jump\t// in\n    tag_54:\n      mload(0x40)\n      dup1\n      swap2\n      sub\n      swap1\n      return\n        /* \"contracts/NFTDutchAuction.sol\":326:365  address payable public immutable seller */\n    tag_15:\n      immutable(\"0xf4c2b5de886427473655d4c904c743576dc2d53249b7535d96c06cc97ae7216b\")\n      dup2\n      jump\t// out\n        /* \"contracts/NFTDutchAuction.sol\":524:541  bool public ended */\n    tag_20:\n      0x00\n      dup1\n      sload\n      swap1\n      0x0100\n      exp\n      swap1\n      div\n      0xff\n      and\n      dup2\n      jump\t// out\n        /* \"contracts/NFTDutchAuction.sol\":258:286  IERC721 public immutable nft */\n    tag_25:\n      immutable(\"0x8e8fab5f003314da8d1873ea7720e8d9f47650136d916064d1edb8a11d682624\")\n      dup2\n      jump\t// out\n        /* \"contracts/NFTDutchAuction.sol\":447:478  uint public immutable expiresAt */\n    tag_30:\n      immutable(\"0x58a280f74f57bf051c40f060139dc747e015be52f68c57e2c4ab2e4bd4146f43\")\n      dup2\n      jump\t// out\n        /* \"contracts/NFTDutchAuction.sol\":1071:1281  function getPrice() public view notEnded returns (uint) {... */\n    tag_35:\n        /* \"contracts/NFTDutchAuction.sol\":1121:1125  uint */\n      0x00\n        /* \"contracts/NFTDutchAuction.sol\":587:592  ended */\n      dup1\n      0x00\n      swap1\n      sload\n      swap1\n      0x0100\n      exp\n      swap1\n      div\n      0xff\n      and\n        /* \"contracts/NFTDutchAuction.sol\":586:592  !ended */\n      iszero\n        /* \"contracts/NFTDutchAuction.sol\":578:610  require(!ended, \"auction ended\") */\n      tag_56\n      jumpi\n      mload(0x40)\n      0x08c379a000000000000000000000000000000000000000000000000000000000\n      dup2\n      mstore\n      0x04\n      add\n      tag_57\n      swap1\n      tag_58\n      jump\t// in\n    tag_57:\n      mload(0x40)\n      dup1\n      swap2\n      sub\n      swap1\n      revert\n    tag_56:\n        /* \"contracts/NFTDutchAuction.sol\":1137:1153  uint timeElapsed */\n      0x00\n        /* \"contracts/NFTDutchAuction.sol\":1174:1181  startAt */\n      immutable(\"0x81e080ffc23e8b8d44dd829bc823229e92b893eb1d8f624419d3f5682eb97fc3\")\n        /* \"contracts/NFTDutchAuction.sol\":1156:1171  block.timestamp */\n      timestamp\n        /* \"contracts/NFTDutchAuction.sol\":1156:1181  block.timestamp - startAt */\n      tag_60\n      swap2\n      swap1\n      tag_61\n      jump\t// in\n    tag_60:\n        /* \"contracts/NFTDutchAuction.sol\":1137:1181  uint timeElapsed = block.timestamp - startAt */\n      swap1\n      pop\n        /* \"contracts/NFTDutchAuction.sol\":1191:1204  uint discount */\n      0x00\n        /* \"contracts/NFTDutchAuction.sol\":1222:1233  timeElapsed */\n      dup2\n        /* \"contracts/NFTDutchAuction.sol\":1207:1219  discountRate */\n      immutable(\"0x7749cc8014201da2069c21d93ba99c584b6f62d393fde534ed47eac227e31561\")\n        /* \"contracts/NFTDutchAuction.sol\":1207:1233  discountRate * timeElapsed */\n      tag_62\n      swap2\n      swap1\n      tag_63\n      jump\t// in\n    tag_62:\n        /* \"contracts/NFTDutchAuction.sol\":1191:1233  uint discount = discountRate * timeElapsed */\n      swap1\n      pop\n        /* \"contracts/NFTDutchAuction.sol\":1266:1274  discount */\n      dup1\n        /* \"contracts/NFTDutchAuction.sol\":1250:1263  startingPrice */\n      immutable(\"0x1572b593c53d839d80004aa4b8c51211864104f06ace9e22be9c4365b50655ea\")\n        /* \"contracts/NFTDutchAuction.sol\":1250:1274  startingPrice - discount */\n      tag_64\n      swap2\n      swap1\n      tag_61\n      jump\t// in\n    tag_64:\n        /* \"contracts/NFTDutchAuction.sol\":1243:1274  return startingPrice - discount */\n      swap3\n      pop\n      pop\n      pop\n        /* \"contracts/NFTDutchAuction.sol\":1071:1281  function getPrice() public view notEnded returns (uint) {... */\n      swap1\n      jump\t// out\n        /* \"contracts/NFTDutchAuction.sol\":1287:1769  function buy() external payable notEnded {... */\n    tag_38:\n        /* \"contracts/NFTDutchAuction.sol\":587:592  ended */\n      0x00\n      dup1\n      sload\n      swap1\n      0x0100\n      exp\n      swap1\n      div\n      0xff\n      and\n        /* \"contracts/NFTDutchAuction.sol\":586:592  !ended */\n      iszero\n        /* \"contracts/NFTDutchAuction.sol\":578:610  require(!ended, \"auction ended\") */\n      tag_66\n      jumpi\n      mload(0x40)\n      0x08c379a000000000000000000000000000000000000000000000000000000000\n      dup2\n      mstore\n      0x04\n      add\n      tag_67\n      swap1\n      tag_58\n      jump\t// in\n    tag_67:\n      mload(0x40)\n      dup1\n      swap2\n      sub\n      swap1\n      revert\n    tag_66:\n        /* \"contracts/NFTDutchAuction.sol\":1364:1373  expiresAt */\n      immutable(\"0x58a280f74f57bf051c40f060139dc747e015be52f68c57e2c4ab2e4bd4146f43\")\n        /* \"contracts/NFTDutchAuction.sol\":1346:1361  block.timestamp */\n      timestamp\n        /* \"contracts/NFTDutchAuction.sol\":1346:1373  block.timestamp < expiresAt */\n      lt\n        /* \"contracts/NFTDutchAuction.sol\":1338:1393  require(block.timestamp < expiresAt, \"auction expired\") */\n      tag_69\n      jumpi\n      mload(0x40)\n      0x08c379a000000000000000000000000000000000000000000000000000000000\n      dup2\n      mstore\n      0x04\n      add\n      tag_70\n      swap1\n      tag_71\n      jump\t// in\n    tag_70:\n      mload(0x40)\n      dup1\n      swap2\n      sub\n      swap1\n      revert\n    tag_69:\n        /* \"contracts/NFTDutchAuction.sol\":1412:1422  uint price */\n      0x00\n        /* \"contracts/NFTDutchAuction.sol\":1425:1435  getPrice() */\n      tag_72\n        /* \"contracts/NFTDutchAuction.sol\":1425:1433  getPrice */\n      tag_35\n        /* \"contracts/NFTDutchAuction.sol\":1425:1435  getPrice() */\n      jump\t// in\n    tag_72:\n        /* \"contracts/NFTDutchAuction.sol\":1412:1435  uint price = getPrice() */\n      swap1\n      pop\n        /* \"contracts/NFTDutchAuction.sol\":1466:1471  price */\n      dup1\n        /* \"contracts/NFTDutchAuction.sol\":1453:1462  msg.value */\n      callvalue\n        /* \"contracts/NFTDutchAuction.sol\":1453:1471  msg.value >= price */\n      lt\n      iszero\n        /* \"contracts/NFTDutchAuction.sol\":1445:1487  require(msg.value >= price, \"ETH < price\") */\n      tag_73\n      jumpi\n      mload(0x40)\n      0x08c379a000000000000000000000000000000000000000000000000000000000\n      dup2\n      mstore\n      0x04\n      add\n      tag_74\n      swap1\n      tag_75\n      jump\t// in\n    tag_74:\n      mload(0x40)\n      dup1\n      swap2\n      sub\n      swap1\n      revert\n    tag_73:\n        /* \"contracts/NFTDutchAuction.sol\":1505:1509  true */\n      0x01\n        /* \"contracts/NFTDutchAuction.sol\":1497:1502  ended */\n      0x00\n      dup1\n        /* \"contracts/NFTDutchAuction.sol\":1497:1509  ended = true */\n      0x0100\n      exp\n      dup2\n      sload\n      dup2\n      0xff\n      mul\n      not\n      and\n      swap1\n      dup4\n      iszero\n      iszero\n      mul\n      or\n      swap1\n      sstore\n      pop\n        /* \"contracts/NFTDutchAuction.sol\":1519:1522  nft */\n      immutable(\"0x8e8fab5f003314da8d1873ea7720e8d9f47650136d916064d1edb8a11d682624\")\n        /* \"contracts/NFTDutchAuction.sol\":1519:1535  nft.transferFrom */\n      0xffffffffffffffffffffffffffffffffffffffff\n      and\n      0x23b872dd\n        /* \"contracts/NFTDutchAuction.sol\":1536:1542  seller */\n      immutable(\"0xf4c2b5de886427473655d4c904c743576dc2d53249b7535d96c06cc97ae7216b\")\n        /* \"contracts/NFTDutchAuction.sol\":1544:1554  msg.sender */\n      caller\n        /* \"contracts/NFTDutchAuction.sol\":1556:1561  nftId */\n      immutable(\"0x939eb54753ed0cc7e2272bfb34cbe098308c93936ed54d79078f76ade0b2e789\")\n        /* \"contracts/NFTDutchAuction.sol\":1519:1562  nft.transferFrom(seller, msg.sender, nftId) */\n      mload(0x40)\n      dup5\n      0xffffffff\n      and\n      0xe0\n      shl\n      dup2\n      mstore\n      0x04\n      add\n      tag_76\n      swap4\n      swap3\n      swap2\n      swap1\n      tag_77\n      jump\t// in\n    tag_76:\n      0x00\n      mload(0x40)\n      dup1\n      dup4\n      sub\n      dup2\n      0x00\n      dup8\n      dup1\n      extcodesize\n      iszero\n      dup1\n      iszero\n      tag_78\n      jumpi\n      0x00\n      dup1\n      revert\n    tag_78:\n      pop\n      gas\n      call\n      iszero\n      dup1\n      iszero\n      tag_80\n      jumpi\n      returndatasize\n      0x00\n      dup1\n      returndatacopy\n      revert(0x00, returndatasize)\n    tag_80:\n      pop\n      pop\n      pop\n      pop\n        /* \"contracts/NFTDutchAuction.sol\":1572:1583  uint refund */\n      0x00\n        /* \"contracts/NFTDutchAuction.sol\":1598:1603  price */\n      dup2\n        /* \"contracts/NFTDutchAuction.sol\":1586:1595  msg.value */\n      callvalue\n        /* \"contracts/NFTDutchAuction.sol\":1586:1603  msg.value - price */\n      tag_81\n      swap2\n      swap1\n      tag_61\n      jump\t// in\n    tag_81:\n        /* \"contracts/NFTDutchAuction.sol\":1572:1603  uint refund = msg.value - price */\n      swap1\n      pop\n        /* \"contracts/NFTDutchAuction.sol\":1626:1627  0 */\n      0x00\n        /* \"contracts/NFTDutchAuction.sol\":1617:1623  refund */\n      dup2\n        /* \"contracts/NFTDutchAuction.sol\":1617:1627  refund > 0 */\n      gt\n        /* \"contracts/NFTDutchAuction.sol\":1613:1763  if (refund > 0) {... */\n      iszero\n      tag_82\n      jumpi\n        /* \"contracts/NFTDutchAuction.sol\":1644:1656  bool success */\n      0x00\n        /* \"contracts/NFTDutchAuction.sol\":1670:1680  msg.sender */\n      caller\n        /* \"contracts/NFTDutchAuction.sol\":1662:1686  payable(msg.sender).call */\n      0xffffffffffffffffffffffffffffffffffffffff\n      and\n        /* \"contracts/NFTDutchAuction.sol\":1694:1700  refund */\n      dup3\n        /* \"contracts/NFTDutchAuction.sol\":1662:1705  payable(msg.sender).call{value: refund}(\"\") */\n      mload(0x40)\n      tag_83\n      swap1\n      tag_84\n      jump\t// in\n    tag_83:\n      0x00\n      mload(0x40)\n      dup1\n      dup4\n      sub\n      dup2\n      dup6\n      dup8\n      gas\n      call\n      swap3\n      pop\n      pop\n      pop\n      returndatasize\n      dup1\n      0x00\n      dup2\n      eq\n      tag_87\n      jumpi\n      mload(0x40)\n      swap2\n      pop\n      and(add(returndatasize, 0x3f), not(0x1f))\n      dup3\n      add\n      0x40\n      mstore\n      returndatasize\n      dup3\n      mstore\n      returndatasize\n      0x00\n      0x20\n      dup5\n      add\n      returndatacopy\n      jump(tag_86)\n    tag_87:\n      0x60\n      swap2\n      pop\n    tag_86:\n      pop\n        /* \"contracts/NFTDutchAuction.sol\":1643:1705  (bool success, ) = payable(msg.sender).call{value: refund}(\"\") */\n      pop\n      swap1\n      pop\n        /* \"contracts/NFTDutchAuction.sol\":1727:1734  success */\n      dup1\n        /* \"contracts/NFTDutchAuction.sol\":1719:1752  require(success, \"refund failed\") */\n      tag_88\n      jumpi\n      mload(0x40)\n      0x08c379a000000000000000000000000000000000000000000000000000000000\n      dup2\n      mstore\n      0x04\n      add\n      tag_89\n      swap1\n      tag_90\n      jump\t// in\n    tag_89:\n      mload(0x40)\n      dup1\n      swap2\n      sub\n      swap1\n      revert\n    tag_88:\n        /* \"contracts/NFTDutchAuction.sol\":1629:1763  {... */\n      pop\n        /* \"contracts/NFTDutchAuction.sol\":1613:1763  if (refund > 0) {... */\n    tag_82:\n        /* \"contracts/NFTDutchAuction.sol\":1328:1769  {... */\n      pop\n      pop\n        /* \"contracts/NFTDutchAuction.sol\":1287:1769  function buy() external payable notEnded {... */\n      jump\t// out\n        /* \"contracts/NFTDutchAuction.sol\":292:319  uint public immutable nftId */\n    tag_41:\n      immutable(\"0x939eb54753ed0cc7e2272bfb34cbe098308c93936ed54d79078f76ade0b2e789\")\n      dup2\n      jump\t// out\n        /* \"contracts/NFTDutchAuction.sol\":412:441  uint public immutable startAt */\n    tag_45:\n      immutable(\"0x81e080ffc23e8b8d44dd829bc823229e92b893eb1d8f624419d3f5682eb97fc3\")\n      dup2\n      jump\t// out\n        /* \"contracts/NFTDutchAuction.sol\":371:406  uint public immutable startingPrice */\n    tag_49:\n      immutable(\"0x1572b593c53d839d80004aa4b8c51211864104f06ace9e22be9c4365b50655ea\")\n      dup2\n      jump\t// out\n        /* \"contracts/NFTDutchAuction.sol\":484:518  uint public immutable discountRate */\n    tag_53:\n      immutable(\"0x7749cc8014201da2069c21d93ba99c584b6f62d393fde534ed47eac227e31561\")\n      dup2\n      jump\t// out\n        /* \"#utility.yul\":7:154   */\n    tag_92:\n        /* \"#utility.yul\":102:147   */\n      tag_94\n        /* \"#utility.yul\":141:146   */\n      dup2\n        /* \"#utility.yul\":102:147   */\n      tag_95\n      jump\t// in\n    tag_94:\n        /* \"#utility.yul\":97:100   */\n      dup3\n        /* \"#utility.yul\":90:148   */\n      mstore\n        /* \"#utility.yul\":7:154   */\n      pop\n      pop\n      jump\t// out\n        /* \"#utility.yul\":160:302   */\n    tag_96:\n        /* \"#utility.yul\":263:295   */\n      tag_98\n        /* \"#utility.yul\":289:294   */\n      dup2\n        /* \"#utility.yul\":263:295   */\n      tag_99\n      jump\t// in\n    tag_98:\n        /* \"#utility.yul\":258:261   */\n      dup3\n        /* \"#utility.yul\":251:296   */\n      mstore\n        /* \"#utility.yul\":160:302   */\n      pop\n      pop\n      jump\t// out\n        /* \"#utility.yul\":308:426   */\n    tag_100:\n        /* \"#utility.yul\":395:419   */\n      tag_102\n        /* \"#utility.yul\":413:418   */\n      dup2\n        /* \"#utility.yul\":395:419   */\n      tag_103\n      jump\t// in\n    tag_102:\n        /* \"#utility.yul\":390:393   */\n      dup3\n        /* \"#utility.yul\":383:420   */\n      mstore\n        /* \"#utility.yul\":308:426   */\n      pop\n      pop\n      jump\t// out\n        /* \"#utility.yul\":432:541   */\n    tag_104:\n        /* \"#utility.yul\":513:534   */\n      tag_106\n        /* \"#utility.yul\":528:533   */\n      dup2\n        /* \"#utility.yul\":513:534   */\n      tag_107\n      jump\t// in\n    tag_106:\n        /* \"#utility.yul\":508:511   */\n      dup3\n        /* \"#utility.yul\":501:535   */\n      mstore\n        /* \"#utility.yul\":432:541   */\n      pop\n      pop\n      jump\t// out\n        /* \"#utility.yul\":547:706   */\n    tag_108:\n        /* \"#utility.yul\":648:699   */\n      tag_110\n        /* \"#utility.yul\":693:698   */\n      dup2\n        /* \"#utility.yul\":648:699   */\n      tag_111\n      jump\t// in\n    tag_110:\n        /* \"#utility.yul\":643:646   */\n      dup3\n        /* \"#utility.yul\":636:700   */\n      mstore\n        /* \"#utility.yul\":547:706   */\n      pop\n      pop\n      jump\t// out\n        /* \"#utility.yul\":712:1078   */\n    tag_112:\n        /* \"#utility.yul\":854:857   */\n      0x00\n        /* \"#utility.yul\":875:942   */\n      tag_114\n        /* \"#utility.yul\":939:941   */\n      0x0b\n        /* \"#utility.yul\":934:937   */\n      dup4\n        /* \"#utility.yul\":875:942   */\n      tag_115\n      jump\t// in\n    tag_114:\n        /* \"#utility.yul\":868:942   */\n      swap2\n      pop\n        /* \"#utility.yul\":951:1044   */\n      tag_116\n        /* \"#utility.yul\":1040:1043   */\n      dup3\n        /* \"#utility.yul\":951:1044   */\n      tag_117\n      jump\t// in\n    tag_116:\n        /* \"#utility.yul\":1069:1071   */\n      0x20\n        /* \"#utility.yul\":1064:1067   */\n      dup3\n        /* \"#utility.yul\":1060:1072   */\n      add\n        /* \"#utility.yul\":1053:1072   */\n      swap1\n      pop\n        /* \"#utility.yul\":712:1078   */\n      swap2\n      swap1\n      pop\n      jump\t// out\n        /* \"#utility.yul\":1084:1450   */\n    tag_118:\n        /* \"#utility.yul\":1226:1229   */\n      0x00\n        /* \"#utility.yul\":1247:1314   */\n      tag_120\n        /* \"#utility.yul\":1311:1313   */\n      0x0d\n        /* \"#utility.yul\":1306:1309   */\n      dup4\n        /* \"#utility.yul\":1247:1314   */\n      tag_115\n      jump\t// in\n    tag_120:\n        /* \"#utility.yul\":1240:1314   */\n      swap2\n      pop\n        /* \"#utility.yul\":1323:1416   */\n      tag_121\n        /* \"#utility.yul\":1412:1415   */\n      dup3\n        /* \"#utility.yul\":1323:1416   */\n      tag_122\n      jump\t// in\n    tag_121:\n        /* \"#utility.yul\":1441:1443   */\n      0x20\n        /* \"#utility.yul\":1436:1439   */\n      dup3\n        /* \"#utility.yul\":1432:1444   */\n      add\n        /* \"#utility.yul\":1425:1444   */\n      swap1\n      pop\n        /* \"#utility.yul\":1084:1450   */\n      swap2\n      swap1\n      pop\n      jump\t// out\n        /* \"#utility.yul\":1456:1854   */\n    tag_123:\n        /* \"#utility.yul\":1615:1618   */\n      0x00\n        /* \"#utility.yul\":1636:1719   */\n      tag_125\n        /* \"#utility.yul\":1717:1718   */\n      0x00\n        /* \"#utility.yul\":1712:1715   */\n      dup4\n        /* \"#utility.yul\":1636:1719   */\n      tag_126\n      jump\t// in\n    tag_125:\n        /* \"#utility.yul\":1629:1719   */\n      swap2\n      pop\n        /* \"#utility.yul\":1728:1821   */\n      tag_127\n        /* \"#utility.yul\":1817:1820   */\n      dup3\n        /* \"#utility.yul\":1728:1821   */\n      tag_128\n      jump\t// in\n    tag_127:\n        /* \"#utility.yul\":1846:1847   */\n      0x00\n        /* \"#utility.yul\":1841:1844   */\n      dup3\n        /* \"#utility.yul\":1837:1848   */\n      add\n        /* \"#utility.yul\":1830:1848   */\n      swap1\n      pop\n        /* \"#utility.yul\":1456:1854   */\n      swap2\n      swap1\n      pop\n      jump\t// out\n        /* \"#utility.yul\":1860:2226   */\n    tag_129:\n        /* \"#utility.yul\":2002:2005   */\n      0x00\n        /* \"#utility.yul\":2023:2090   */\n      tag_131\n        /* \"#utility.yul\":2087:2089   */\n      0x0d\n        /* \"#utility.yul\":2082:2085   */\n      dup4\n        /* \"#utility.yul\":2023:2090   */\n      tag_115\n      jump\t// in\n    tag_131:\n        /* \"#utility.yul\":2016:2090   */\n      swap2\n      pop\n        /* \"#utility.yul\":2099:2192   */\n      tag_132\n        /* \"#utility.yul\":2188:2191   */\n      dup3\n        /* \"#utility.yul\":2099:2192   */\n      tag_133\n      jump\t// in\n    tag_132:\n        /* \"#utility.yul\":2217:2219   */\n      0x20\n        /* \"#utility.yul\":2212:2215   */\n      dup3\n        /* \"#utility.yul\":2208:2220   */\n      add\n        /* \"#utility.yul\":2201:2220   */\n      swap1\n      pop\n        /* \"#utility.yul\":1860:2226   */\n      swap2\n      swap1\n      pop\n      jump\t// out\n        /* \"#utility.yul\":2232:2598   */\n    tag_134:\n        /* \"#utility.yul\":2374:2377   */\n      0x00\n        /* \"#utility.yul\":2395:2462   */\n      tag_136\n        /* \"#utility.yul\":2459:2461   */\n      0x0f\n        /* \"#utility.yul\":2454:2457   */\n      dup4\n        /* \"#utility.yul\":2395:2462   */\n      tag_115\n      jump\t// in\n    tag_136:\n        /* \"#utility.yul\":2388:2462   */\n      swap2\n      pop\n        /* \"#utility.yul\":2471:2564   */\n      tag_137\n        /* \"#utility.yul\":2560:2563   */\n      dup3\n        /* \"#utility.yul\":2471:2564   */\n      tag_138\n      jump\t// in\n    tag_137:\n        /* \"#utility.yul\":2589:2591   */\n      0x20\n        /* \"#utility.yul\":2584:2587   */\n      dup3\n        /* \"#utility.yul\":2580:2592   */\n      add\n        /* \"#utility.yul\":2573:2592   */\n      swap1\n      pop\n        /* \"#utility.yul\":2232:2598   */\n      swap2\n      swap1\n      pop\n      jump\t// out\n        /* \"#utility.yul\":2604:2722   */\n    tag_139:\n        /* \"#utility.yul\":2691:2715   */\n      tag_141\n        /* \"#utility.yul\":2709:2714   */\n      dup2\n        /* \"#utility.yul\":2691:2715   */\n      tag_142\n      jump\t// in\n    tag_141:\n        /* \"#utility.yul\":2686:2689   */\n      dup3\n        /* \"#utility.yul\":2679:2716   */\n      mstore\n        /* \"#utility.yul\":2604:2722   */\n      pop\n      pop\n      jump\t// out\n        /* \"#utility.yul\":2728:3107   */\n    tag_84:\n        /* \"#utility.yul\":2912:2915   */\n      0x00\n        /* \"#utility.yul\":2934:3081   */\n      tag_144\n        /* \"#utility.yul\":3077:3080   */\n      dup3\n        /* \"#utility.yul\":2934:3081   */\n      tag_123\n      jump\t// in\n    tag_144:\n        /* \"#utility.yul\":2927:3081   */\n      swap2\n      pop\n        /* \"#utility.yul\":3098:3101   */\n      dup2\n        /* \"#utility.yul\":3091:3101   */\n      swap1\n      pop\n        /* \"#utility.yul\":2728:3107   */\n      swap2\n      swap1\n      pop\n      jump\t// out\n        /* \"#utility.yul\":3113:3367   */\n    tag_17:\n        /* \"#utility.yul\":3222:3226   */\n      0x00\n        /* \"#utility.yul\":3260:3262   */\n      0x20\n        /* \"#utility.yul\":3249:3258   */\n      dup3\n        /* \"#utility.yul\":3245:3263   */\n      add\n        /* \"#utility.yul\":3237:3263   */\n      swap1\n      pop\n        /* \"#utility.yul\":3273:3360   */\n      tag_146\n        /* \"#utility.yul\":3357:3358   */\n      0x00\n        /* \"#utility.yul\":3346:3355   */\n      dup4\n        /* \"#utility.yul\":3342:3359   */\n      add\n        /* \"#utility.yul\":3333:3339   */\n      dup5\n        /* \"#utility.yul\":3273:3360   */\n      tag_96\n      jump\t// in\n    tag_146:\n        /* \"#utility.yul\":3113:3367   */\n      swap3\n      swap2\n      pop\n      pop\n      jump\t// out\n        /* \"#utility.yul\":3373:3831   */\n    tag_77:\n        /* \"#utility.yul\":3530:3534   */\n      0x00\n        /* \"#utility.yul\":3568:3570   */\n      0x60\n        /* \"#utility.yul\":3557:3566   */\n      dup3\n        /* \"#utility.yul\":3553:3571   */\n      add\n        /* \"#utility.yul\":3545:3571   */\n      swap1\n      pop\n        /* \"#utility.yul\":3581:3660   */\n      tag_148\n        /* \"#utility.yul\":3657:3658   */\n      0x00\n        /* \"#utility.yul\":3646:3655   */\n      dup4\n        /* \"#utility.yul\":3642:3659   */\n      add\n        /* \"#utility.yul\":3633:3639   */\n      dup7\n        /* \"#utility.yul\":3581:3660   */\n      tag_92\n      jump\t// in\n    tag_148:\n        /* \"#utility.yul\":3670:3742   */\n      tag_149\n        /* \"#utility.yul\":3738:3740   */\n      0x20\n        /* \"#utility.yul\":3727:3736   */\n      dup4\n        /* \"#utility.yul\":3723:3741   */\n      add\n        /* \"#utility.yul\":3714:3720   */\n      dup6\n        /* \"#utility.yul\":3670:3742   */\n      tag_100\n      jump\t// in\n    tag_149:\n        /* \"#utility.yul\":3752:3824   */\n      tag_150\n        /* \"#utility.yul\":3820:3822   */\n      0x40\n        /* \"#utility.yul\":3809:3818   */\n      dup4\n        /* \"#utility.yul\":3805:3823   */\n      add\n        /* \"#utility.yul\":3796:3802   */\n      dup5\n        /* \"#utility.yul\":3752:3824   */\n      tag_139\n      jump\t// in\n    tag_150:\n        /* \"#utility.yul\":3373:3831   */\n      swap5\n      swap4\n      pop\n      pop\n      pop\n      pop\n      jump\t// out\n        /* \"#utility.yul\":3837:4047   */\n    tag_22:\n        /* \"#utility.yul\":3924:3928   */\n      0x00\n        /* \"#utility.yul\":3962:3964   */\n      0x20\n        /* \"#utility.yul\":3951:3960   */\n      dup3\n        /* \"#utility.yul\":3947:3965   */\n      add\n        /* \"#utility.yul\":3939:3965   */\n      swap1\n      pop\n        /* \"#utility.yul\":3975:4040   */\n      tag_152\n        /* \"#utility.yul\":4037:4038   */\n      0x00\n        /* \"#utility.yul\":4026:4035   */\n      dup4\n        /* \"#utility.yul\":4022:4039   */\n      add\n        /* \"#utility.yul\":4013:4019   */\n      dup5\n        /* \"#utility.yul\":3975:4040   */\n      tag_104\n      jump\t// in\n    tag_152:\n        /* \"#utility.yul\":3837:4047   */\n      swap3\n      swap2\n      pop\n      pop\n      jump\t// out\n        /* \"#utility.yul\":4053:4303   */\n    tag_27:\n        /* \"#utility.yul\":4160:4164   */\n      0x00\n        /* \"#utility.yul\":4198:4200   */\n      0x20\n        /* \"#utility.yul\":4187:4196   */\n      dup3\n        /* \"#utility.yul\":4183:4201   */\n      add\n        /* \"#utility.yul\":4175:4201   */\n      swap1\n      pop\n        /* \"#utility.yul\":4211:4296   */\n      tag_154\n        /* \"#utility.yul\":4293:4294   */\n      0x00\n        /* \"#utility.yul\":4282:4291   */\n      dup4\n        /* \"#utility.yul\":4278:4295   */\n      add\n        /* \"#utility.yul\":4269:4275   */\n      dup5\n        /* \"#utility.yul\":4211:4296   */\n      tag_108\n      jump\t// in\n    tag_154:\n        /* \"#utility.yul\":4053:4303   */\n      swap3\n      swap2\n      pop\n      pop\n      jump\t// out\n        /* \"#utility.yul\":4309:4728   */\n    tag_75:\n        /* \"#utility.yul\":4475:4479   */\n      0x00\n        /* \"#utility.yul\":4513:4515   */\n      0x20\n        /* \"#utility.yul\":4502:4511   */\n      dup3\n        /* \"#utility.yul\":4498:4516   */\n      add\n        /* \"#utility.yul\":4490:4516   */\n      swap1\n      pop\n        /* \"#utility.yul\":4562:4571   */\n      dup2\n        /* \"#utility.yul\":4556:4560   */\n      dup2\n        /* \"#utility.yul\":4552:4572   */\n      sub\n        /* \"#utility.yul\":4548:4549   */\n      0x00\n        /* \"#utility.yul\":4537:4546   */\n      dup4\n        /* \"#utility.yul\":4533:4550   */\n      add\n        /* \"#utility.yul\":4526:4573   */\n      mstore\n        /* \"#utility.yul\":4590:4721   */\n      tag_156\n        /* \"#utility.yul\":4716:4720   */\n      dup2\n        /* \"#utility.yul\":4590:4721   */\n      tag_112\n      jump\t// in\n    tag_156:\n        /* \"#utility.yul\":4582:4721   */\n      swap1\n      pop\n        /* \"#utility.yul\":4309:4728   */\n      swap2\n      swap1\n      pop\n      jump\t// out\n        /* \"#utility.yul\":4734:5153   */\n    tag_58:\n        /* \"#utility.yul\":4900:4904   */\n      0x00\n        /* \"#utility.yul\":4938:4940   */\n      0x20\n        /* \"#utility.yul\":4927:4936   */\n      dup3\n        /* \"#utility.yul\":4923:4941   */\n      add\n        /* \"#utility.yul\":4915:4941   */\n      swap1\n      pop\n        /* \"#utility.yul\":4987:4996   */\n      dup2\n        /* \"#utility.yul\":4981:4985   */\n      dup2\n        /* \"#utility.yul\":4977:4997   */\n      sub\n        /* \"#utility.yul\":4973:4974   */\n      0x00\n        /* \"#utility.yul\":4962:4971   */\n      dup4\n        /* \"#utility.yul\":4958:4975   */\n      add\n        /* \"#utility.yul\":4951:4998   */\n      mstore\n        /* \"#utility.yul\":5015:5146   */\n      tag_158\n        /* \"#utility.yul\":5141:5145   */\n      dup2\n        /* \"#utility.yul\":5015:5146   */\n      tag_118\n      jump\t// in\n    tag_158:\n        /* \"#utility.yul\":5007:5146   */\n      swap1\n      pop\n        /* \"#utility.yul\":4734:5153   */\n      swap2\n      swap1\n      pop\n      jump\t// out\n        /* \"#utility.yul\":5159:5578   */\n    tag_90:\n        /* \"#utility.yul\":5325:5329   */\n      0x00\n        /* \"#utility.yul\":5363:5365   */\n      0x20\n        /* \"#utility.yul\":5352:5361   */\n      dup3\n        /* \"#utility.yul\":5348:5366   */\n      add\n        /* \"#utility.yul\":5340:5366   */\n      swap1\n      pop\n        /* \"#utility.yul\":5412:5421   */\n      dup2\n        /* \"#utility.yul\":5406:5410   */\n      dup2\n        /* \"#utility.yul\":5402:5422   */\n      sub\n        /* \"#utility.yul\":5398:5399   */\n      0x00\n        /* \"#utility.yul\":5387:5396   */\n      dup4\n        /* \"#utility.yul\":5383:5400   */\n      add\n        /* \"#utility.yul\":5376:5423   */\n      mstore\n        /* \"#utility.yul\":5440:5571   */\n      tag_160\n        /* \"#utility.yul\":5566:5570   */\n      dup2\n        /* \"#utility.yul\":5440:5571   */\n      tag_129\n      jump\t// in\n    tag_160:\n        /* \"#utility.yul\":5432:5571   */\n      swap1\n      pop\n        /* \"#utility.yul\":5159:5578   */\n      swap2\n      swap1\n      pop\n      jump\t// out\n        /* \"#utility.yul\":5584:6003   */\n    tag_71:\n        /* \"#utility.yul\":5750:5754   */\n      0x00\n        /* \"#utility.yul\":5788:5790   */\n      0x20\n        /* \"#utility.yul\":5777:5786   */\n      dup3\n        /* \"#utility.yul\":5773:5791   */\n      add\n        /* \"#utility.yul\":5765:5791   */\n      swap1\n      pop\n        /* \"#utility.yul\":5837:5846   */\n      dup2\n        /* \"#utility.yul\":5831:5835   */\n      dup2\n        /* \"#utility.yul\":5827:5847   */\n      sub\n        /* \"#utility.yul\":5823:5824   */\n      0x00\n        /* \"#utility.yul\":5812:5821   */\n      dup4\n        /* \"#utility.yul\":5808:5825   */\n      add\n        /* \"#utility.yul\":5801:5848   */\n      mstore\n        /* \"#utility.yul\":5865:5996   */\n      tag_162\n        /* \"#utility.yul\":5991:5995   */\n      dup2\n        /* \"#utility.yul\":5865:5996   */\n      tag_134\n      jump\t// in\n    tag_162:\n        /* \"#utility.yul\":5857:5996   */\n      swap1\n      pop\n        /* \"#utility.yul\":5584:6003   */\n      swap2\n      swap1\n      pop\n      jump\t// out\n        /* \"#utility.yul\":6009:6231   */\n    tag_32:\n        /* \"#utility.yul\":6102:6106   */\n      0x00\n        /* \"#utility.yul\":6140:6142   */\n      0x20\n        /* \"#utility.yul\":6129:6138   */\n      dup3\n        /* \"#utility.yul\":6125:6143   */\n      add\n        /* \"#utility.yul\":6117:6143   */\n      swap1\n      pop\n        /* \"#utility.yul\":6153:6224   */\n      tag_164\n        /* \"#utility.yul\":6221:6222   */\n      0x00\n        /* \"#utility.yul\":6210:6219   */\n      dup4\n        /* \"#utility.yul\":6206:6223   */\n      add\n        /* \"#utility.yul\":6197:6203   */\n      dup5\n        /* \"#utility.yul\":6153:6224   */\n      tag_139\n      jump\t// in\n    tag_164:\n        /* \"#utility.yul\":6009:6231   */\n      swap3\n      swap2\n      pop\n      pop\n      jump\t// out\n        /* \"#utility.yul\":6237:6384   */\n    tag_126:\n        /* \"#utility.yul\":6338:6349   */\n      0x00\n        /* \"#utility.yul\":6375:6378   */\n      dup2\n        /* \"#utility.yul\":6360:6378   */\n      swap1\n      pop\n        /* \"#utility.yul\":6237:6384   */\n      swap3\n      swap2\n      pop\n      pop\n      jump\t// out\n        /* \"#utility.yul\":6390:6559   */\n    tag_115:\n        /* \"#utility.yul\":6474:6485   */\n      0x00\n        /* \"#utility.yul\":6508:6514   */\n      dup3\n        /* \"#utility.yul\":6503:6506   */\n      dup3\n        /* \"#utility.yul\":6496:6515   */\n      mstore\n        /* \"#utility.yul\":6548:6552   */\n      0x20\n        /* \"#utility.yul\":6543:6546   */\n      dup3\n        /* \"#utility.yul\":6539:6553   */\n      add\n        /* \"#utility.yul\":6524:6553   */\n      swap1\n      pop\n        /* \"#utility.yul\":6390:6559   */\n      swap3\n      swap2\n      pop\n      pop\n      jump\t// out\n        /* \"#utility.yul\":6565:6913   */\n    tag_63:\n        /* \"#utility.yul\":6605:6612   */\n      0x00\n        /* \"#utility.yul\":6628:6648   */\n      tag_168\n        /* \"#utility.yul\":6646:6647   */\n      dup3\n        /* \"#utility.yul\":6628:6648   */\n      tag_142\n      jump\t// in\n    tag_168:\n        /* \"#utility.yul\":6623:6648   */\n      swap2\n      pop\n        /* \"#utility.yul\":6662:6682   */\n      tag_169\n        /* \"#utility.yul\":6680:6681   */\n      dup4\n        /* \"#utility.yul\":6662:6682   */\n      tag_142\n      jump\t// in\n    tag_169:\n        /* \"#utility.yul\":6657:6682   */\n      swap3\n      pop\n        /* \"#utility.yul\":6850:6851   */\n      dup2\n        /* \"#utility.yul\":6782:6848   */\n      0xffffffffffffffffffffffffffffffffffffffffffffffffffffffffffffffff\n        /* \"#utility.yul\":6778:6852   */\n      div\n        /* \"#utility.yul\":6775:6776   */\n      dup4\n        /* \"#utility.yul\":6772:6853   */\n      gt\n        /* \"#utility.yul\":6767:6768   */\n      dup3\n        /* \"#utility.yul\":6760:6769   */\n      iszero\n        /* \"#utility.yul\":6753:6770   */\n      iszero\n        /* \"#utility.yul\":6749:6854   */\n      and\n        /* \"#utility.yul\":6746:6877   */\n      iszero\n      tag_170\n      jumpi\n        /* \"#utility.yul\":6857:6875   */\n      tag_171\n      tag_172\n      jump\t// in\n    tag_171:\n        /* \"#utility.yul\":6746:6877   */\n    tag_170:\n        /* \"#utility.yul\":6905:6906   */\n      dup3\n        /* \"#utility.yul\":6902:6903   */\n      dup3\n        /* \"#utility.yul\":6898:6907   */\n      mul\n        /* \"#utility.yul\":6887:6907   */\n      swap1\n      pop\n        /* \"#utility.yul\":6565:6913   */\n      swap3\n      swap2\n      pop\n      pop\n      jump\t// out\n        /* \"#utility.yul\":6919:7110   */\n    tag_61:\n        /* \"#utility.yul\":6959:6963   */\n      0x00\n        /* \"#utility.yul\":6979:6999   */\n      tag_174\n        /* \"#utility.yul\":6997:6998   */\n      dup3\n        /* \"#utility.yul\":6979:6999   */\n      tag_142\n      jump\t// in\n    tag_174:\n        /* \"#utility.yul\":6974:6999   */\n      swap2\n      pop\n        /* \"#utility.yul\":7013:7033   */\n      tag_175\n        /* \"#utility.yul\":7031:7032   */\n      dup4\n        /* \"#utility.yul\":7013:7033   */\n      tag_142\n      jump\t// in\n    tag_175:\n        /* \"#utility.yul\":7008:7033   */\n      swap3\n      pop\n        /* \"#utility.yul\":7052:7053   */\n      dup3\n        /* \"#utility.yul\":7049:7050   */\n      dup3\n        /* \"#utility.yul\":7046:7054   */\n      lt\n        /* \"#utility.yul\":7043:7077   */\n      iszero\n      tag_176\n      jumpi\n        /* \"#utility.yul\":7057:7075   */\n      tag_177\n      tag_172\n      jump\t// in\n    tag_177:\n        /* \"#utility.yul\":7043:7077   */\n    tag_176:\n        /* \"#utility.yul\":7102:7103   */\n      dup3\n        /* \"#utility.yul\":7099:7100   */\n      dup3\n        /* \"#utility.yul\":7095:7104   */\n      sub\n        /* \"#utility.yul\":7087:7104   */\n      swap1\n      pop\n        /* \"#utility.yul\":6919:7110   */\n      swap3\n      swap2\n      pop\n      pop\n      jump\t// out\n        /* \"#utility.yul\":7116:7212   */\n    tag_103:\n        /* \"#utility.yul\":7153:7160   */\n      0x00\n        /* \"#utility.yul\":7182:7206   */\n      tag_179\n        /* \"#utility.yul\":7200:7205   */\n      dup3\n        /* \"#utility.yul\":7182:7206   */\n      tag_180\n      jump\t// in\n    tag_179:\n        /* \"#utility.yul\":7171:7206   */\n      swap1\n      pop\n        /* \"#utility.yul\":7116:7212   */\n      swap2\n      swap1\n      pop\n      jump\t// out\n        /* \"#utility.yul\":7218:7322   */\n    tag_99:\n        /* \"#utility.yul\":7263:7270   */\n      0x00\n        /* \"#utility.yul\":7292:7316   */\n      tag_182\n        /* \"#utility.yul\":7310:7315   */\n      dup3\n        /* \"#utility.yul\":7292:7316   */\n      tag_180\n      jump\t// in\n    tag_182:\n        /* \"#utility.yul\":7281:7316   */\n      swap1\n      pop\n        /* \"#utility.yul\":7218:7322   */\n      swap2\n      swap1\n      pop\n      jump\t// out\n        /* \"#utility.yul\":7328:7418   */\n    tag_107:\n        /* \"#utility.yul\":7362:7369   */\n      0x00\n        /* \"#utility.yul\":7405:7410   */\n      dup2\n        /* \"#utility.yul\":7398:7411   */\n      iszero\n        /* \"#utility.yul\":7391:7412   */\n      iszero\n        /* \"#utility.yul\":7380:7412   */\n      swap1\n      pop\n        /* \"#utility.yul\":7328:7418   */\n      swap2\n      swap1\n      pop\n      jump\t// out\n        /* \"#utility.yul\":7424:7550   */\n    tag_180:\n        /* \"#utility.yul\":7461:7468   */\n      0x00\n        /* \"#utility.yul\":7501:7543   */\n      0xffffffffffffffffffffffffffffffffffffffff\n        /* \"#utility.yul\":7494:7499   */\n      dup3\n        /* \"#utility.yul\":7490:7544   */\n      and\n        /* \"#utility.yul\":7479:7544   */\n      swap1\n      pop\n        /* \"#utility.yul\":7424:7550   */\n      swap2\n      swap1\n      pop\n      jump\t// out\n        /* \"#utility.yul\":7556:7633   */\n    tag_142:\n        /* \"#utility.yul\":7593:7600   */\n      0x00\n        /* \"#utility.yul\":7622:7627   */\n      dup2\n        /* \"#utility.yul\":7611:7627   */\n      swap1\n      pop\n        /* \"#utility.yul\":7556:7633   */\n      swap2\n      swap1\n      pop\n      jump\t// out\n        /* \"#utility.yul\":7639:7773   */\n    tag_95:\n        /* \"#utility.yul\":7697:7706   */\n      0x00\n        /* \"#utility.yul\":7730:7767   */\n      tag_187\n        /* \"#utility.yul\":7761:7766   */\n      dup3\n        /* \"#utility.yul\":7730:7767   */\n      tag_188\n      jump\t// in\n    tag_187:\n        /* \"#utility.yul\":7717:7767   */\n      swap1\n      pop\n        /* \"#utility.yul\":7639:7773   */\n      swap2\n      swap1\n      pop\n      jump\t// out\n        /* \"#utility.yul\":7779:7919   */\n    tag_111:\n        /* \"#utility.yul\":7843:7852   */\n      0x00\n        /* \"#utility.yul\":7876:7913   */\n      tag_190\n        /* \"#utility.yul\":7907:7912   */\n      dup3\n        /* \"#utility.yul\":7876:7913   */\n      tag_188\n      jump\t// in\n    tag_190:\n        /* \"#utility.yul\":7863:7913   */\n      swap1\n      pop\n        /* \"#utility.yul\":7779:7919   */\n      swap2\n      swap1\n      pop\n      jump\t// out\n        /* \"#utility.yul\":7925:8051   */\n    tag_188:\n        /* \"#utility.yul\":7975:7984   */\n      0x00\n        /* \"#utility.yul\":8008:8045   */\n      tag_192\n        /* \"#utility.yul\":8039:8044   */\n      dup3\n        /* \"#utility.yul\":8008:8045   */\n      tag_193\n      jump\t// in\n    tag_192:\n        /* \"#utility.yul\":7995:8045   */\n      swap1\n      pop\n        /* \"#utility.yul\":7925:8051   */\n      swap2\n      swap1\n      pop\n      jump\t// out\n        /* \"#utility.yul\":8057:8170   */\n    tag_193:\n        /* \"#utility.yul\":8107:8116   */\n      0x00\n        /* \"#utility.yul\":8140:8164   */\n      tag_195\n        /* \"#utility.yul\":8158:8163   */\n      dup3\n        /* \"#utility.yul\":8140:8164   */\n      tag_180\n      jump\t// in\n    tag_195:\n        /* \"#utility.yul\":8127:8164   */\n      swap1\n      pop\n        /* \"#utility.yul\":8057:8170   */\n      swap2\n      swap1\n      pop\n      jump\t// out\n        /* \"#utility.yul\":8176:8356   */\n    tag_172:\n        /* \"#utility.yul\":8224:8301   */\n      0x4e487b7100000000000000000000000000000000000000000000000000000000\n        /* \"#utility.yul\":8221:8222   */\n      0x00\n        /* \"#utility.yul\":8214:8302   */\n      mstore\n        /* \"#utility.yul\":8321:8325   */\n      0x11\n        /* \"#utility.yul\":8318:8319   */\n      0x04\n        /* \"#utility.yul\":8311:8326   */\n      mstore\n        /* \"#utility.yul\":8345:8349   */\n      0x24\n        /* \"#utility.yul\":8342:8343   */\n      0x00\n        /* \"#utility.yul\":8335:8350   */\n      revert\n        /* \"#utility.yul\":8362:8523   */\n    tag_117:\n        /* \"#utility.yul\":8502:8515   */\n      0x455448203c207072696365000000000000000000000000000000000000000000\n        /* \"#utility.yul\":8498:8499   */\n      0x00\n        /* \"#utility.yul\":8490:8496   */\n      dup3\n        /* \"#utility.yul\":8486:8500   */\n      add\n        /* \"#utility.yul\":8479:8516   */\n      mstore\n        /* \"#utility.yul\":8362:8523   */\n      pop\n      jump\t// out\n        /* \"#utility.yul\":8529:8692   */\n    tag_122:\n        /* \"#utility.yul\":8669:8684   */\n      0x61756374696f6e20656e64656400000000000000000000000000000000000000\n        /* \"#utility.yul\":8665:8666   */\n      0x00\n        /* \"#utility.yul\":8657:8663   */\n      dup3\n        /* \"#utility.yul\":8653:8667   */\n      add\n        /* \"#utility.yul\":8646:8685   */\n      mstore\n        /* \"#utility.yul\":8529:8692   */\n      pop\n      jump\t// out\n        /* \"#utility.yul\":8698:8812   */\n    tag_128:\n      pop\n      jump\t// out\n        /* \"#utility.yul\":8818:8981   */\n    tag_133:\n        /* \"#utility.yul\":8958:8973   */\n      0x726566756e64206661696c656400000000000000000000000000000000000000\n        /* \"#utility.yul\":8954:8955   */\n      0x00\n        /* \"#utility.yul\":8946:8952   */\n      dup3\n        /* \"#utility.yul\":8942:8956   */\n      add\n        /* \"#utility.yul\":8935:8974   */\n      mstore\n        /* \"#utility.yul\":8818:8981   */\n      pop\n      jump\t// out\n        /* \"#utility.yul\":8987:9152   */\n    tag_138:\n        /* \"#utility.yul\":9127:9144   */\n      0x61756374696f6e20657870697265640000000000000000000000000000000000\n        /* \"#utility.yul\":9123:9124   */\n      0x00\n        /* \"#utility.yul\":9115:9121   */\n      dup3\n        /* \"#utility.yul\":9111:9125   */\n      add\n        /* \"#utility.yul\":9104:9145   */\n      mstore\n        /* \"#utility.yul\":8987:9152   */\n      pop\n      jump\t// out\n\n    auxdata: 0xa2646970667358221220e118bc90d180602b032ab7fede23adb1d4a295aa8aff1cb8e19ffaba7659fe9564736f6c63430008070033\n}\n",
				"bytecode": {
					"linkReferences": {},
					"object": "6101606040523480156200001257600080fd5b5060405162000fba38038062000fba83398181016040528101906200003891906200016f565b3373ffffffffffffffffffffffffffffffffffffffff1660c08173ffffffffffffffffffffffffffffffffffffffff1660601b815250508360e0818152505082610140818152505042610100818152505062093a80426200009a91906200023b565b610120818152505062093a8083620000b3919062000298565b841015620000f8576040517f08c379a0000000000000000000000000000000000000000000000000000000008152600401620000ef9062000208565b60405180910390fd5b8173ffffffffffffffffffffffffffffffffffffffff1660808173ffffffffffffffffffffffffffffffffffffffff1660601b815250508060a0818152505050505050620003c8565b600081519050620001528162000394565b92915050565b6000815190506200016981620003ae565b92915050565b600080600080608085870312156200018c576200018b62000366565b5b60006200019c8782880162000158565b9450506020620001af8782880162000158565b9350506040620001c28782880162000141565b9250506060620001d58782880162000158565b91505092959194509250565b6000620001f06019836200022a565b9150620001fd826200036b565b602082019050919050565b600060208201905081810360008301526200022381620001e1565b9050919050565b600082825260208201905092915050565b600062000248826200032d565b915062000255836200032d565b9250827fffffffffffffffffffffffffffffffffffffffffffffffffffffffffffffffff038211156200028d576200028c62000337565b5b828201905092915050565b6000620002a5826200032d565b9150620002b2836200032d565b9250817fffffffffffffffffffffffffffffffffffffffffffffffffffffffffffffffff0483118215151615620002ee57620002ed62000337565b5b828202905092915050565b600062000306826200030d565b9050919050565b600073ffffffffffffffffffffffffffffffffffffffff82169050919050565b6000819050919050565b7f4e487b7100000000000000000000000000000000000000000000000000000000600052601160045260246000fd5b600080fd5b7f7374617274696e67207072696365203c20646973636f756e7400000000000000600082015250565b6200039f81620002f9565b8114620003ab57600080fd5b50565b620003b9816200032d565b8114620003c557600080fd5b50565b60805160601c60a05160c05160601c60e051610100516101205161014051610b606200045a6000396000818161032601526106a501526000818161027e01526103d40152600081816102f5015261065d015260008181610354015261068101526000818161022501526104db0152600081816104fd015261063901526000818161025a015261049f0152610b606000f3fe6080604052600436106100915760003560e01c8063a6f2ae3a11610059578063a6f2ae3a1461016d578063c6bc518214610177578063c7446565146101a2578063d6fbf202146101cd578063e6c0e6d5146101f857610091565b806308551a531461009657806312fa6feb146100c157806347ccca02146100ec5780638622a6891461011757806398d5fdca14610142575b600080fd5b3480156100a257600080fd5b506100ab610223565b6040516100b891906107e5565b60405180910390f35b3480156100cd57600080fd5b506100d6610247565b6040516100e39190610837565b60405180910390f35b3480156100f857600080fd5b50610101610258565b60405161010e9190610852565b60405180910390f35b34801561012357600080fd5b5061012c61027c565b60405161013991906108ed565b60405180910390f35b34801561014e57600080fd5b506101576102a0565b60405161016491906108ed565b60405180910390f35b610175610384565b005b34801561018357600080fd5b5061018c610637565b60405161019991906108ed565b60405180910390f35b3480156101ae57600080fd5b506101b761065b565b6040516101c491906108ed565b60405180910390f35b3480156101d957600080fd5b506101e261067f565b6040516101ef91906108ed565b60405180910390f35b34801561020457600080fd5b5061020d6106a3565b60405161021a91906108ed565b60405180910390f35b7f000000000000000000000000000000000000000000000000000000000000000081565b60008054906101000a900460ff1681565b7f000000000000000000000000000000000000000000000000000000000000000081565b7f000000000000000000000000000000000000000000000000000000000000000081565b60008060009054906101000a900460ff16156102f1576040517f08c379a00000000000000000000000000000000000000000000000000000000081526004016102e89061088d565b60405180910390fd5b60007f00000000000000000000000000000000000000000000000000000000000000004261031f919061097e565b90506000817f000000000000000000000000000000000000000000000000000000000000000061034f9190610924565b9050807f000000000000000000000000000000000000000000000000000000000000000061037d919061097e565b9250505090565b60008054906101000a900460ff16156103d2576040517f08c379a00000000000000000000000000000000000000000000000000000000081526004016103c99061088d565b60405180910390fd5b7f00000000000000000000000000000000000000000000000000000000000000004210610434576040517f08c379a000000000000000000000000000000000000000000000000000000000815260040161042b906108cd565b60405180910390fd5b600061043e6102a0565b905080341015610483576040517f08c379a000000000000000000000000000000000000000000000000000000000815260040161047a9061086d565b60405180910390fd5b60016000806101000a81548160ff0219169083151502179055507f000000000000000000000000000000000000000000000000000000000000000073ffffffffffffffffffffffffffffffffffffffff166323b872dd7f0000000000000000000000000000000000000000000000000000000000000000337f00000000000000000000000000000000000000000000000000000000000000006040518463ffffffff1660e01b815260040161053a93929190610800565b600060405180830381600087803b15801561055457600080fd5b505af1158015610568573d6000803e3d6000fd5b505050506000813461057a919061097e565b905060008111156106335760003373ffffffffffffffffffffffffffffffffffffffff16826040516105ab906107d0565b60006040518083038185875af1925050503d80600081146105e8576040519150601f19603f3d011682016040523d82523d6000602084013e6105ed565b606091505b5050905080610631576040517f08c379a0000000000000000000000000000000000000000000000000000000008152600401610628906108ad565b60405180910390fd5b505b5050565b7f000000000000000000000000000000000000000000000000000000000000000081565b7f000000000000000000000000000000000000000000000000000000000000000081565b7f000000000000000000000000000000000000000000000000000000000000000081565b7f000000000000000000000000000000000000000000000000000000000000000081565b6106d081610a0c565b82525050565b6106df816109c4565b82525050565b6106ee816109b2565b82525050565b6106fd816109d6565b82525050565b61070c81610a1e565b82525050565b600061071f600b83610913565b915061072a82610a83565b602082019050919050565b6000610742600d83610913565b915061074d82610aac565b602082019050919050565b6000610765600083610908565b915061077082610ad5565b600082019050919050565b6000610788600d83610913565b915061079382610ad8565b602082019050919050565b60006107ab600f83610913565b91506107b682610b01565b602082019050919050565b6107ca81610a02565b82525050565b60006107db82610758565b9150819050919050565b60006020820190506107fa60008301846106d6565b92915050565b600060608201905061081560008301866106c7565b61082260208301856106e5565b61082f60408301846107c1565b949350505050565b600060208201905061084c60008301846106f4565b92915050565b60006020820190506108676000830184610703565b92915050565b6000602082019050818103600083015261088681610712565b9050919050565b600060208201905081810360008301526108a681610735565b9050919050565b600060208201905081810360008301526108c68161077b565b9050919050565b600060208201905081810360008301526108e68161079e565b9050919050565b600060208201905061090260008301846107c1565b92915050565b600081905092915050565b600082825260208201905092915050565b600061092f82610a02565b915061093a83610a02565b9250817fffffffffffffffffffffffffffffffffffffffffffffffffffffffffffffffff048311821515161561097357610972610a54565b5b828202905092915050565b600061098982610a02565b915061099483610a02565b9250828210156109a7576109a6610a54565b5b828203905092915050565b60006109bd826109e2565b9050919050565b60006109cf826109e2565b9050919050565b60008115159050919050565b600073ffffffffffffffffffffffffffffffffffffffff82169050919050565b6000819050919050565b6000610a1782610a30565b9050919050565b6000610a2982610a30565b9050919050565b6000610a3b82610a42565b9050919050565b6000610a4d826109e2565b9050919050565b7f4e487b7100000000000000000000000000000000000000000000000000000000600052601160045260246000fd5b7f455448203c207072696365000000000000000000000000000000000000000000600082015250565b7f61756374696f6e20656e64656400000000000000000000000000000000000000600082015250565b50565b7f726566756e64206661696c656400000000000000000000000000000000000000600082015250565b7f61756374696f6e2065787069726564000000000000000000000000000000000060008201525056fea2646970667358221220e118bc90d180602b032ab7fede23adb1d4a295aa8aff1cb8e19ffaba7659fe9564736f6c63430008070033",
					"opcodes": "PUSH2 0x160 PUSH1 0x40 MSTORE CALLVALUE DUP1 ISZERO PUSH3 0x12 JUMPI PUSH1 0x0 DUP1 REVERT JUMPDEST POP PUSH1 0x40 MLOAD PUSH3 0xFBA CODESIZE SUB DUP1 PUSH3 0xFBA DUP4 CODECOPY DUP2 DUP2 ADD PUSH1 0x40 MSTORE DUP2 ADD SWAP1 PUSH3 0x38 SWAP2 SWAP1 PUSH3 0x16F JUMP JUMPDEST CALLER PUSH20 0xFFFFFFFFFFFFFFFFFFFFFFFFFFFFFFFFFFFFFFFF AND PUSH1 0xC0 DUP2 PUSH20 0xFFFFFFFFFFFFFFFFFFFFFFFFFFFFFFFFFFFFFFFF AND PUSH1 0x60 SHL DUP2 MSTORE POP POP DUP4 PUSH1 0xE0 DUP2 DUP2 MSTORE POP POP DUP3 PUSH2 0x140 DUP2 DUP2 MSTORE POP POP TIMESTAMP PUSH2 0x100 DUP2 DUP2 MSTORE POP POP PUSH3 0x93A80 TIMESTAMP PUSH3 0x9A SWAP2 SWAP1 PUSH3 0x23B JUMP JUMPDEST PUSH2 0x120 DUP2 DUP2 MSTORE POP POP PUSH3 0x93A80 DUP4 PUSH3 0xB3 SWAP2 SWAP1 PUSH3 0x298 JUMP JUMPDEST DUP5 LT ISZERO PUSH3 0xF8 JUMPI PUSH1 0x40 MLOAD PUSH32 0x8C379A000000000000000000000000000000000000000000000000000000000 DUP2 MSTORE PUSH1 0x4 ADD PUSH3 0xEF SWAP1 PUSH3 0x208 JUMP JUMPDEST PUSH1 0x40 MLOAD DUP1 SWAP2 SUB SWAP1 REVERT JUMPDEST DUP2 PUSH20 0xFFFFFFFFFFFFFFFFFFFFFFFFFFFFFFFFFFFFFFFF AND PUSH1 0x80 DUP2 PUSH20 0xFFFFFFFFFFFFFFFFFFFFFFFFFFFFFFFFFFFFFFFF AND PUSH1 0x60 SHL DUP2 MSTORE POP POP DUP1 PUSH1 0xA0 DUP2 DUP2 MSTORE POP POP POP POP POP POP PUSH3 0x3C8 JUMP JUMPDEST PUSH1 0x0 DUP2 MLOAD SWAP1 POP PUSH3 0x152 DUP2 PUSH3 0x394 JUMP JUMPDEST SWAP3 SWAP2 POP POP JUMP JUMPDEST PUSH1 0x0 DUP2 MLOAD SWAP1 POP PUSH3 0x169 DUP2 PUSH3 0x3AE JUMP JUMPDEST SWAP3 SWAP2 POP POP JUMP JUMPDEST PUSH1 0x0 DUP1 PUSH1 0x0 DUP1 PUSH1 0x80 DUP6 DUP8 SUB SLT ISZERO PUSH3 0x18C JUMPI PUSH3 0x18B PUSH3 0x366 JUMP JUMPDEST JUMPDEST PUSH1 0x0 PUSH3 0x19C DUP8 DUP3 DUP9 ADD PUSH3 0x158 JUMP JUMPDEST SWAP5 POP POP PUSH1 0x20 PUSH3 0x1AF DUP8 DUP3 DUP9 ADD PUSH3 0x158 JUMP JUMPDEST SWAP4 POP POP PUSH1 0x40 PUSH3 0x1C2 DUP8 DUP3 DUP9 ADD PUSH3 0x141 JUMP JUMPDEST SWAP3 POP POP PUSH1 0x60 PUSH3 0x1D5 DUP8 DUP3 DUP9 ADD PUSH3 0x158 JUMP JUMPDEST SWAP2 POP POP SWAP3 SWAP6 SWAP2 SWAP5 POP SWAP3 POP JUMP JUMPDEST PUSH1 0x0 PUSH3 0x1F0 PUSH1 0x19 DUP4 PUSH3 0x22A JUMP JUMPDEST SWAP2 POP PUSH3 0x1FD DUP3 PUSH3 0x36B JUMP JUMPDEST PUSH1 0x20 DUP3 ADD SWAP1 POP SWAP2 SWAP1 POP JUMP JUMPDEST PUSH1 0x0 PUSH1 0x20 DUP3 ADD SWAP1 POP DUP2 DUP2 SUB PUSH1 0x0 DUP4 ADD MSTORE PUSH3 0x223 DUP2 PUSH3 0x1E1 JUMP JUMPDEST SWAP1 POP SWAP2 SWAP1 POP JUMP JUMPDEST PUSH1 0x0 DUP3 DUP3 MSTORE PUSH1 0x20 DUP3 ADD SWAP1 POP SWAP3 SWAP2 POP POP JUMP JUMPDEST PUSH1 0x0 PUSH3 0x248 DUP3 PUSH3 0x32D JUMP JUMPDEST SWAP2 POP PUSH3 0x255 DUP4 PUSH3 0x32D JUMP JUMPDEST SWAP3 POP DUP3 PUSH32 0xFFFFFFFFFFFFFFFFFFFFFFFFFFFFFFFFFFFFFFFFFFFFFFFFFFFFFFFFFFFFFFFF SUB DUP3 GT ISZERO PUSH3 0x28D JUMPI PUSH3 0x28C PUSH3 0x337 JUMP JUMPDEST JUMPDEST DUP3 DUP3 ADD SWAP1 POP SWAP3 SWAP2 POP POP JUMP JUMPDEST PUSH1 0x0 PUSH3 0x2A5 DUP3 PUSH3 0x32D JUMP JUMPDEST SWAP2 POP PUSH3 0x2B2 DUP4 PUSH3 0x32D JUMP JUMPDEST SWAP3 POP DUP2 PUSH32 0xFFFFFFFFFFFFFFFFFFFFFFFFFFFFFFFFFFFFFFFFFFFFFFFFFFFFFFFFFFFFFFFF DIV DUP4 GT DUP3 ISZERO ISZERO AND ISZERO PUSH3 0x2EE JUMPI PUSH3 0x2ED PUSH3 0x337 JUMP JUMPDEST JUMPDEST DUP3 DUP3 MUL SWAP1 POP SWAP3 SWAP2 POP POP JUMP JUMPDEST PUSH1 0x0 PUSH3 0x306 DUP3 PUSH3 0x30D JUMP JUMPDEST SWAP1 POP SWAP2 SWAP1 POP JUMP JUMPDEST PUSH1 0x0 PUSH20 0xFFFFFFFFFFFFFFFFFFFFFFFFFFFFFFFFFFFFFFFF DUP3 AND SWAP1 POP SWAP2 SWAP1 POP JUMP JUMPDEST PUSH1 0x0 DUP2 SWAP1 POP SWAP2 SWAP1 POP JUMP JUMPDEST PUSH32 0x4E487B7100000000000000000000000000000000000000000000000000000000 PUSH1 0x0 MSTORE PUSH1 0x11 PUSH1 0x4 MSTORE PUSH1 0x24 PUSH1 0x0 REVERT JUMPDEST PUSH1 0x0 DUP1 REVERT JUMPDEST PUSH32 0x7374617274696E67207072696365203C20646973636F756E7400000000000000 PUSH1 0x0 DUP3 ADD MSTORE POP JUMP JUMPDEST PUSH3 0x39F DUP2 PUSH3 0x2F9 JUMP JUMPDEST DUP2 EQ PUSH3 0x3AB JUMPI PUSH1 0x0 DUP1 REVERT JUMPDEST POP JUMP JUMPDEST PUSH3 0x3B9 DUP2 PUSH3 0x32D JUMP JUMPDEST DUP2 EQ PUSH3 0x3C5 JUMPI PUSH1 0x0 DUP1 REVERT JUMPDEST POP JUMP JUMPDEST PUSH1 0x80 MLOAD PUSH1 0x60 SHR PUSH1 0xA0 MLOAD PUSH1 0xC0 MLOAD PUSH1 0x60 SHR PUSH1 0xE0 MLOAD PUSH2 0x100 MLOAD PUSH2 0x120 MLOAD PUSH2 0x140 MLOAD PUSH2 0xB60 PUSH3 0x45A PUSH1 0x0 CODECOPY PUSH1 0x0 DUP2 DUP2 PUSH2 0x326 ADD MSTORE PUSH2 0x6A5 ADD MSTORE PUSH1 0x0 DUP2 DUP2 PUSH2 0x27E ADD MSTORE PUSH2 0x3D4 ADD MSTORE PUSH1 0x0 DUP2 DUP2 PUSH2 0x2F5 ADD MSTORE PUSH2 0x65D ADD MSTORE PUSH1 0x0 DUP2 DUP2 PUSH2 0x354 ADD MSTORE PUSH2 0x681 ADD MSTORE PUSH1 0x0 DUP2 DUP2 PUSH2 0x225 ADD MSTORE PUSH2 0x4DB ADD MSTORE PUSH1 0x0 DUP2 DUP2 PUSH2 0x4FD ADD MSTORE PUSH2 0x639 ADD MSTORE PUSH1 0x0 DUP2 DUP2 PUSH2 0x25A ADD MSTORE PUSH2 0x49F ADD MSTORE PUSH2 0xB60 PUSH1 0x0 RETURN INVALID PUSH1 0x80 PUSH1 0x40 MSTORE PUSH1 0x4 CALLDATASIZE LT PUSH2 0x91 JUMPI PUSH1 0x0 CALLDATALOAD PUSH1 0xE0 SHR DUP1 PUSH4 0xA6F2AE3A GT PUSH2 0x59 JUMPI DUP1 PUSH4 0xA6F2AE3A EQ PUSH2 0x16D JUMPI DUP1 PUSH4 0xC6BC5182 EQ PUSH2 0x177 JUMPI DUP1 PUSH4 0xC7446565 EQ PUSH2 0x1A2 JUMPI DUP1 PUSH4 0xD6FBF202 EQ PUSH2 0x1CD JUMPI DUP1 PUSH4 0xE6C0E6D5 EQ PUSH2 0x1F8 JUMPI PUSH2 0x91 JUMP JUMPDEST DUP1 PUSH4 0x8551A53 EQ PUSH2 0x96 JUMPI DUP1 PUSH4 0x12FA6FEB EQ PUSH2 0xC1 JUMPI DUP1 PUSH4 0x47CCCA02 EQ PUSH2 0xEC JUMPI DUP1 PUSH4 0x8622A689 EQ PUSH2 0x117 JUMPI DUP1 PUSH4 0x98D5FDCA EQ PUSH2 0x142 JUMPI JUMPDEST PUSH1 0x0 DUP1 REVERT JUMPDEST CALLVALUE DUP1 ISZERO PUSH2 0xA2 JUMPI PUSH1 0x0 DUP1 REVERT JUMPDEST POP PUSH2 0xAB PUSH2 0x223 JUMP JUMPDEST PUSH1 0x40 MLOAD PUSH2 0xB8 SWAP2 SWAP1 PUSH2 0x7E5 JUMP JUMPDEST PUSH1 0x40 MLOAD DUP1 SWAP2 SUB SWAP1 RETURN JUMPDEST CALLVALUE DUP1 ISZERO PUSH2 0xCD JUMPI PUSH1 0x0 DUP1 REVERT JUMPDEST POP PUSH2 0xD6 PUSH2 0x247 JUMP JUMPDEST PUSH1 0x40 MLOAD PUSH2 0xE3 SWAP2 SWAP1 PUSH2 0x837 JUMP JUMPDEST PUSH1 0x40 MLOAD DUP1 SWAP2 SUB SWAP1 RETURN JUMPDEST CALLVALUE DUP1 ISZERO PUSH2 0xF8 JUMPI PUSH1 0x0 DUP1 REVERT JUMPDEST POP PUSH2 0x101 PUSH2 0x258 JUMP JUMPDEST PUSH1 0x40 MLOAD PUSH2 0x10E SWAP2 SWAP1 PUSH2 0x852 JUMP JUMPDEST PUSH1 0x40 MLOAD DUP1 SWAP2 SUB SWAP1 RETURN JUMPDEST CALLVALUE DUP1 ISZERO PUSH2 0x123 JUMPI PUSH1 0x0 DUP1 REVERT JUMPDEST POP PUSH2 0x12C PUSH2 0x27C JUMP JUMPDEST PUSH1 0x40 MLOAD PUSH2 0x139 SWAP2 SWAP1 PUSH2 0x8ED JUMP JUMPDEST PUSH1 0x40 MLOAD DUP1 SWAP2 SUB SWAP1 RETURN JUMPDEST CALLVALUE DUP1 ISZERO PUSH2 0x14E JUMPI PUSH1 0x0 DUP1 REVERT JUMPDEST POP PUSH2 0x157 PUSH2 0x2A0 JUMP JUMPDEST PUSH1 0x40 MLOAD PUSH2 0x164 SWAP2 SWAP1 PUSH2 0x8ED JUMP JUMPDEST PUSH1 0x40 MLOAD DUP1 SWAP2 SUB SWAP1 RETURN JUMPDEST PUSH2 0x175 PUSH2 0x384 JUMP JUMPDEST STOP JUMPDEST CALLVALUE DUP1 ISZERO PUSH2 0x183 JUMPI PUSH1 0x0 DUP1 REVERT JUMPDEST POP PUSH2 0x18C PUSH2 0x637 JUMP JUMPDEST PUSH1 0x40 MLOAD PUSH2 0x199 SWAP2 SWAP1 PUSH2 0x8ED JUMP JUMPDEST PUSH1 0x40 MLOAD DUP1 SWAP2 SUB SWAP1 RETURN JUMPDEST CALLVALUE DUP1 ISZERO PUSH2 0x1AE JUMPI PUSH1 0x0 DUP1 REVERT JUMPDEST POP PUSH2 0x1B7 PUSH2 0x65B JUMP JUMPDEST PUSH1 0x40 MLOAD PUSH2 0x1C4 SWAP2 SWAP1 PUSH2 0x8ED JUMP JUMPDEST PUSH1 0x40 MLOAD DUP1 SWAP2 SUB SWAP1 RETURN JUMPDEST CALLVALUE DUP1 ISZERO PUSH2 0x1D9 JUMPI PUSH1 0x0 DUP1 REVERT JUMPDEST POP PUSH2 0x1E2 PUSH2 0x67F JUMP JUMPDEST PUSH1 0x40 MLOAD PUSH2 0x1EF SWAP2 SWAP1 PUSH2 0x8ED JUMP JUMPDEST PUSH1 0x40 MLOAD DUP1 SWAP2 SUB SWAP1 RETURN JUMPDEST CALLVALUE DUP1 ISZERO PUSH2 0x204 JUMPI PUSH1 0x0 DUP1 REVERT JUMPDEST POP PUSH2 0x20D PUSH2 0x6A3 JUMP JUMPDEST PUSH1 0x40 MLOAD PUSH2 0x21A SWAP2 SWAP1 PUSH2 0x8ED JUMP JUMPDEST PUSH1 0x40 MLOAD DUP1 SWAP2 SUB SWAP1 RETURN JUMPDEST PUSH32 0x0 DUP2 JUMP JUMPDEST PUSH1 0x0 DUP1 SLOAD SWAP1 PUSH2 0x100 EXP SWAP1 DIV PUSH1 0xFF AND DUP2 JUMP JUMPDEST PUSH32 0x0 DUP2 JUMP JUMPDEST PUSH32 0x0 DUP2 JUMP JUMPDEST PUSH1 0x0 DUP1 PUSH1 0x0 SWAP1 SLOAD SWAP1 PUSH2 0x100 EXP SWAP1 DIV PUSH1 0xFF AND ISZERO PUSH2 0x2F1 JUMPI PUSH1 0x40 MLOAD PUSH32 0x8C379A000000000000000000000000000000000000000000000000000000000 DUP2 MSTORE PUSH1 0x4 ADD PUSH2 0x2E8 SWAP1 PUSH2 0x88D JUMP JUMPDEST PUSH1 0x40 MLOAD DUP1 SWAP2 SUB SWAP1 REVERT JUMPDEST PUSH1 0x0 PUSH32 0x0 TIMESTAMP PUSH2 0x31F SWAP2 SWAP1 PUSH2 0x97E JUMP JUMPDEST SWAP1 POP PUSH1 0x0 DUP2 PUSH32 0x0 PUSH2 0x34F SWAP2 SWAP1 PUSH2 0x924 JUMP JUMPDEST SWAP1 POP DUP1 PUSH32 0x0 PUSH2 0x37D SWAP2 SWAP1 PUSH2 0x97E JUMP JUMPDEST SWAP3 POP POP POP SWAP1 JUMP JUMPDEST PUSH1 0x0 DUP1 SLOAD SWAP1 PUSH2 0x100 EXP SWAP1 DIV PUSH1 0xFF AND ISZERO PUSH2 0x3D2 JUMPI PUSH1 0x40 MLOAD PUSH32 0x8C379A000000000000000000000000000000000000000000000000000000000 DUP2 MSTORE PUSH1 0x4 ADD PUSH2 0x3C9 SWAP1 PUSH2 0x88D JUMP JUMPDEST PUSH1 0x40 MLOAD DUP1 SWAP2 SUB SWAP1 REVERT JUMPDEST PUSH32 0x0 TIMESTAMP LT PUSH2 0x434 JUMPI PUSH1 0x40 MLOAD PUSH32 0x8C379A000000000000000000000000000000000000000000000000000000000 DUP2 MSTORE PUSH1 0x4 ADD PUSH2 0x42B SWAP1 PUSH2 0x8CD JUMP JUMPDEST PUSH1 0x40 MLOAD DUP1 SWAP2 SUB SWAP1 REVERT JUMPDEST PUSH1 0x0 PUSH2 0x43E PUSH2 0x2A0 JUMP JUMPDEST SWAP1 POP DUP1 CALLVALUE LT ISZERO PUSH2 0x483 JUMPI PUSH1 0x40 MLOAD PUSH32 0x8C379A000000000000000000000000000000000000000000000000000000000 DUP2 MSTORE PUSH1 0x4 ADD PUSH2 0x47A SWAP1 PUSH2 0x86D JUMP JUMPDEST PUSH1 0x40 MLOAD DUP1 SWAP2 SUB SWAP1 REVERT JUMPDEST PUSH1 0x1 PUSH1 0x0 DUP1 PUSH2 0x100 EXP DUP2 SLOAD DUP2 PUSH1 0xFF MUL NOT AND SWAP1 DUP4 ISZERO ISZERO MUL OR SWAP1 SSTORE POP PUSH32 0x0 PUSH20 0xFFFFFFFFFFFFFFFFFFFFFFFFFFFFFFFFFFFFFFFF AND PUSH4 0x23B872DD PUSH32 0x0 CALLER PUSH32 0x0 PUSH1 0x40 MLOAD DUP5 PUSH4 0xFFFFFFFF AND PUSH1 0xE0 SHL DUP2 MSTORE PUSH1 0x4 ADD PUSH2 0x53A SWAP4 SWAP3 SWAP2 SWAP1 PUSH2 0x800 JUMP JUMPDEST PUSH1 0x0 PUSH1 0x40 MLOAD DUP1 DUP4 SUB DUP2 PUSH1 0x0 DUP8 DUP1 EXTCODESIZE ISZERO DUP1 ISZERO PUSH2 0x554 JUMPI PUSH1 0x0 DUP1 REVERT JUMPDEST POP GAS CALL ISZERO DUP1 ISZERO PUSH2 0x568 JUMPI RETURNDATASIZE PUSH1 0x0 DUP1 RETURNDATACOPY RETURNDATASIZE PUSH1 0x0 REVERT JUMPDEST POP POP POP POP PUSH1 0x0 DUP2 CALLVALUE PUSH2 0x57A SWAP2 SWAP1 PUSH2 0x97E JUMP JUMPDEST SWAP1 POP PUSH1 0x0 DUP2 GT ISZERO PUSH2 0x633 JUMPI PUSH1 0x0 CALLER PUSH20 0xFFFFFFFFFFFFFFFFFFFFFFFFFFFFFFFFFFFFFFFF AND DUP3 PUSH1 0x40 MLOAD PUSH2 0x5AB SWAP1 PUSH2 0x7D0 JUMP JUMPDEST PUSH1 0x0 PUSH1 0x40 MLOAD DUP1 DUP4 SUB DUP2 DUP6 DUP8 GAS CALL SWAP3 POP POP POP RETURNDATASIZE DUP1 PUSH1 0x0 DUP2 EQ PUSH2 0x5E8 JUMPI PUSH1 0x40 MLOAD SWAP2 POP PUSH1 0x1F NOT PUSH1 0x3F RETURNDATASIZE ADD AND DUP3 ADD PUSH1 0x40 MSTORE RETURNDATASIZE DUP3 MSTORE RETURNDATASIZE PUSH1 0x0 PUSH1 0x20 DUP5 ADD RETURNDATACOPY PUSH2 0x5ED JUMP JUMPDEST PUSH1 0x60 SWAP2 POP JUMPDEST POP POP SWAP1 POP DUP1 PUSH2 0x631 JUMPI PUSH1 0x40 MLOAD PUSH32 0x8C379A000000000000000000000000000000000000000000000000000000000 DUP2 MSTORE PUSH1 0x4 ADD PUSH2 0x628 SWAP1 PUSH2 0x8AD JUMP JUMPDEST PUSH1 0x40 MLOAD DUP1 SWAP2 SUB SWAP1 REVERT JUMPDEST POP JUMPDEST POP POP JUMP JUMPDEST PUSH32 0x0 DUP2 JUMP JUMPDEST PUSH32 0x0 DUP2 JUMP JUMPDEST PUSH32 0x0 DUP2 JUMP JUMPDEST PUSH32 0x0 DUP2 JUMP JUMPDEST PUSH2 0x6D0 DUP2 PUSH2 0xA0C JUMP JUMPDEST DUP3 MSTORE POP POP JUMP JUMPDEST PUSH2 0x6DF DUP2 PUSH2 0x9C4 JUMP JUMPDEST DUP3 MSTORE POP POP JUMP JUMPDEST PUSH2 0x6EE DUP2 PUSH2 0x9B2 JUMP JUMPDEST DUP3 MSTORE POP POP JUMP JUMPDEST PUSH2 0x6FD DUP2 PUSH2 0x9D6 JUMP JUMPDEST DUP3 MSTORE POP POP JUMP JUMPDEST PUSH2 0x70C DUP2 PUSH2 0xA1E JUMP JUMPDEST DUP3 MSTORE POP POP JUMP JUMPDEST PUSH1 0x0 PUSH2 0x71F PUSH1 0xB DUP4 PUSH2 0x913 JUMP JUMPDEST SWAP2 POP PUSH2 0x72A DUP3 PUSH2 0xA83 JUMP JUMPDEST PUSH1 0x20 DUP3 ADD SWAP1 POP SWAP2 SWAP1 POP JUMP JUMPDEST PUSH1 0x0 PUSH2 0x742 PUSH1 0xD DUP4 PUSH2 0x913 JUMP JUMPDEST SWAP2 POP PUSH2 0x74D DUP3 PUSH2 0xAAC JUMP JUMPDEST PUSH1 0x20 DUP3 ADD SWAP1 POP SWAP2 SWAP1 POP JUMP JUMPDEST PUSH1 0x0 PUSH2 0x765 PUSH1 0x0 DUP4 PUSH2 0x908 JUMP JUMPDEST SWAP2 POP PUSH2 0x770 DUP3 PUSH2 0xAD5 JUMP JUMPDEST PUSH1 0x0 DUP3 ADD SWAP1 POP SWAP2 SWAP1 POP JUMP JUMPDEST PUSH1 0x0 PUSH2 0x788 PUSH1 0xD DUP4 PUSH2 0x913 JUMP JUMPDEST SWAP2 POP PUSH2 0x793 DUP3 PUSH2 0xAD8 JUMP JUMPDEST PUSH1 0x20 DUP3 ADD SWAP1 POP SWAP2 SWAP1 POP JUMP JUMPDEST PUSH1 0x0 PUSH2 0x7AB PUSH1 0xF DUP4 PUSH2 0x913 JUMP JUMPDEST SWAP2 POP PUSH2 0x7B6 DUP3 PUSH2 0xB01 JUMP JUMPDEST PUSH1 0x20 DUP3 ADD SWAP1 POP SWAP2 SWAP1 POP JUMP JUMPDEST PUSH2 0x7CA DUP2 PUSH2 0xA02 JUMP JUMPDEST DUP3 MSTORE POP POP JUMP JUMPDEST PUSH1 0x0 PUSH2 0x7DB DUP3 PUSH2 0x758 JUMP JUMPDEST SWAP2 POP DUP2 SWAP1 POP SWAP2 SWAP1 POP JUMP JUMPDEST PUSH1 0x0 PUSH1 0x20 DUP3 ADD SWAP1 POP PUSH2 0x7FA PUSH1 0x0 DUP4 ADD DUP5 PUSH2 0x6D6 JUMP JUMPDEST SWAP3 SWAP2 POP POP JUMP JUMPDEST PUSH1 0x0 PUSH1 0x60 DUP3 ADD SWAP1 POP PUSH2 0x815 PUSH1 0x0 DUP4 ADD DUP7 PUSH2 0x6C7 JUMP JUMPDEST PUSH2 0x822 PUSH1 0x20 DUP4 ADD DUP6 PUSH2 0x6E5 JUMP JUMPDEST PUSH2 0x82F PUSH1 0x40 DUP4 ADD DUP5 PUSH2 0x7C1 JUMP JUMPDEST SWAP5 SWAP4 POP POP POP POP JUMP JUMPDEST PUSH1 0x0 PUSH1 0x20 DUP3 ADD SWAP1 POP PUSH2 0x84C PUSH1 0x0 DUP4 ADD DUP5 PUSH2 0x6F4 JUMP JUMPDEST SWAP3 SWAP2 POP POP JUMP JUMPDEST PUSH1 0x0 PUSH1 0x20 DUP3 ADD SWAP1 POP PUSH2 0x867 PUSH1 0x0 DUP4 ADD DUP5 PUSH2 0x703 JUMP JUMPDEST SWAP3 SWAP2 POP POP JUMP JUMPDEST PUSH1 0x0 PUSH1 0x20 DUP3 ADD SWAP1 POP DUP2 DUP2 SUB PUSH1 0x0 DUP4 ADD MSTORE PUSH2 0x886 DUP2 PUSH2 0x712 JUMP JUMPDEST SWAP1 POP SWAP2 SWAP1 POP JUMP JUMPDEST PUSH1 0x0 PUSH1 0x20 DUP3 ADD SWAP1 POP DUP2 DUP2 SUB PUSH1 0x0 DUP4 ADD MSTORE PUSH2 0x8A6 DUP2 PUSH2 0x735 JUMP JUMPDEST SWAP1 POP SWAP2 SWAP1 POP JUMP JUMPDEST PUSH1 0x0 PUSH1 0x20 DUP3 ADD SWAP1 POP DUP2 DUP2 SUB PUSH1 0x0 DUP4 ADD MSTORE PUSH2 0x8C6 DUP2 PUSH2 0x77B JUMP JUMPDEST SWAP1 POP SWAP2 SWAP1 POP JUMP JUMPDEST PUSH1 0x0 PUSH1 0x20 DUP3 ADD SWAP1 POP DUP2 DUP2 SUB PUSH1 0x0 DUP4 ADD MSTORE PUSH2 0x8E6 DUP2 PUSH2 0x79E JUMP JUMPDEST SWAP1 POP SWAP2 SWAP1 POP JUMP JUMPDEST PUSH1 0x0 PUSH1 0x20 DUP3 ADD SWAP1 POP PUSH2 0x902 PUSH1 0x0 DUP4 ADD DUP5 PUSH2 0x7C1 JUMP JUMPDEST SWAP3 SWAP2 POP POP JUMP JUMPDEST PUSH1 0x0 DUP2 SWAP1 POP SWAP3 SWAP2 POP POP JUMP JUMPDEST PUSH1 0x0 DUP3 DUP3 MSTORE PUSH1 0x20 DUP3 ADD SWAP1 POP SWAP3 SWAP2 POP POP JUMP JUMPDEST PUSH1 0x0 PUSH2 0x92F DUP3 PUSH2 0xA02 JUMP JUMPDEST SWAP2 POP PUSH2 0x93A DUP4 PUSH2 0xA02 JUMP JUMPDEST SWAP3 POP DUP2 PUSH32 0xFFFFFFFFFFFFFFFFFFFFFFFFFFFFFFFFFFFFFFFFFFFFFFFFFFFFFFFFFFFFFFFF DIV DUP4 GT DUP3 ISZERO ISZERO AND ISZERO PUSH2 0x973 JUMPI PUSH2 0x972 PUSH2 0xA54 JUMP JUMPDEST JUMPDEST DUP3 DUP3 MUL SWAP1 POP SWAP3 SWAP2 POP POP JUMP JUMPDEST PUSH1 0x0 PUSH2 0x989 DUP3 PUSH2 0xA02 JUMP JUMPDEST SWAP2 POP PUSH2 0x994 DUP4 PUSH2 0xA02 JUMP JUMPDEST SWAP3 POP DUP3 DUP3 LT ISZERO PUSH2 0x9A7 JUMPI PUSH2 0x9A6 PUSH2 0xA54 JUMP JUMPDEST JUMPDEST DUP3 DUP3 SUB SWAP1 POP SWAP3 SWAP2 POP POP JUMP JUMPDEST PUSH1 0x0 PUSH2 0x9BD DUP3 PUSH2 0x9E2 JUMP JUMPDEST SWAP1 POP SWAP2 SWAP1 POP JUMP JUMPDEST PUSH1 0x0 PUSH2 0x9CF DUP3 PUSH2 0x9E2 JUMP JUMPDEST SWAP1 POP SWAP2 SWAP1 POP JUMP JUMPDEST PUSH1 0x0 DUP2 ISZERO ISZERO SWAP1 POP SWAP2 SWAP1 POP JUMP JUMPDEST PUSH1 0x0 PUSH20 0xFFFFFFFFFFFFFFFFFFFFFFFFFFFFFFFFFFFFFFFF DUP3 AND SWAP1 POP SWAP2 SWAP1 POP JUMP JUMPDEST PUSH1 0x0 DUP2 SWAP1 POP SWAP2 SWAP1 POP JUMP JUMPDEST PUSH1 0x0 PUSH2 0xA17 DUP3 PUSH2 0xA30 JUMP JUMPDEST SWAP1 POP SWAP2 SWAP1 POP JUMP JUMPDEST PUSH1 0x0 PUSH2 0xA29 DUP3 PUSH2 0xA30 JUMP JUMPDEST SWAP1 POP SWAP2 SWAP1 POP JUMP JUMPDEST PUSH1 0x0 PUSH2 0xA3B DUP3 PUSH2 0xA42 JUMP JUMPDEST SWAP1 POP SWAP2 SWAP1 POP JUMP JUMPDEST PUSH1 0x0 PUSH2 0xA4D DUP3 PUSH2 0x9E2 JUMP JUMPDEST SWAP1 POP SWAP2 SWAP1 POP JUMP JUMPDEST PUSH32 0x4E487B7100000000000000000000000000000000000000000000000000000000 PUSH1 0x0 MSTORE PUSH1 0x11 PUSH1 0x4 MSTORE PUSH1 0x24 PUSH1 0x0 REVERT JUMPDEST PUSH32 0x455448203C207072696365000000000000000000000000000000000000000000 PUSH1 0x0 DUP3 ADD MSTORE POP JUMP JUMPDEST PUSH32 0x61756374696F6E20656E64656400000000000000000000000000000000000000 PUSH1 0x0 DUP3 ADD MSTORE POP JUMP JUMPDEST POP JUMP JUMPDEST PUSH32 0x726566756E64206661696C656400000000000000000000000000000000000000 PUSH1 0x0 DUP3 ADD MSTORE POP JUMP JUMPDEST PUSH32 0x61756374696F6E20657870697265640000000000000000000000000000000000 PUSH1 0x0 DUP3 ADD MSTORE POP JUMP INVALID LOG2 PUSH5 0x6970667358 0x22 SLT KECCAK256 0xE1 XOR 0xBC SWAP1 0xD1 DUP1 PUSH1 0x2B SUB 0x2A 0xB7 INVALID 0xDE 0x23 0xAD 0xB1 0xD4 LOG2 SWAP6 0xAA DUP11 SELFDESTRUCT SHR 0xB8 0xE1 SWAP16 STATICCALL 0xBA PUSH23 0x59FE9564736F6C63430008070033000000000000000000 "
				},
				"gasEstimates": {
					"creation": {
						"codeDepositCost": "582400",
						"executionCost": "infinite",
						"totalCost": "infinite"
					},
					"external": {
						"buy()": "infinite",
						"discountRate()": "infinite",
						"ended()": "2491",
						"expiresAt()": "infinite",
						"getPrice()": "infinite",
						"nft()": "infinite",
						"nftId()": "infinite",
						"seller()": "infinite",
						"startAt()": "infinite",
						"startingPrice()": "infinite"
					}
				},
				"methodIdentifiers": {
					"buy()": "a6f2ae3a",
					"discountRate()": "e6c0e6d5",
					"ended()": "12fa6feb",
					"expiresAt()": "8622a689",
					"getPrice()": "98d5fdca",
					"nft()": "47ccca02",
					"nftId()": "c6bc5182",
					"seller()": "08551a53",
					"startAt()": "c7446565",
					"startingPrice()": "d6fbf202"
				}
			},
			"storageLayout": {
				"storage": [
					{
						"astId": 31,
						"contract": "contracts/NFTDutchAuction.sol:DutchAuction",
						"label": "ended",
						"offset": 0,
						"slot": "0",
						"type": "t_bool"
					}
				],
				"types": {
					"t_bool": {
						"encoding": "inplace",
						"label": "bool",
						"numberOfBytes": "1"
					}
				}
			},
			"userdoc": {
				"kind": "user",
				"methods": {},
				"version": 1
			}
		}
	}
}