{
	"contracts/WavePortal.sol": {
		"WavePortal": {
			"abi": [
				{
					"inputs": [],
					"stateMutability": "nonpayable",
					"type": "constructor"
				},
				{
					"inputs": [],
					"name": "getTotalWaves",
					"outputs": [
						{
							"internalType": "uint256",
							"name": "",
							"type": "uint256"
						}
					],
					"stateMutability": "view",
					"type": "function"
				},
				{
					"inputs": [],
					"name": "totalWaves",
					"outputs": [
						{
							"internalType": "uint256",
							"name": "",
							"type": "uint256"
						}
					],
					"stateMutability": "view",
					"type": "function"
				},
				{
					"inputs": [],
					"name": "wave",
					"outputs": [],
					"stateMutability": "nonpayable",
					"type": "function"
				},
				{
					"inputs": [
						{
							"internalType": "uint256",
							"name": "",
							"type": "uint256"
						}
					],
					"name": "wavers",
					"outputs": [
						{
							"internalType": "address",
							"name": "",
							"type": "address"
						}
					],
					"stateMutability": "view",
					"type": "function"
				}
			],
			"devdoc": {
				"kind": "dev",
				"methods": {},
				"version": 1
			},
			"evm": {
				"assembly": "    /* \"contracts/WavePortal.sol\":96:527  contract WavePortal {... */\n  mstore(0x40, 0x80)\n    /* \"contracts/WavePortal.sol\":177:254  constructor() {... */\n  callvalue\n  dup1\n  iszero\n  tag_1\n  jumpi\n  0x00\n  dup1\n  revert\ntag_1:\n  pop\n    /* \"contracts/WavePortal.sol\":197:249  console.log(\"Yo yo, I am a contract and I am smart\") */\n  tag_4\n  mload(0x40)\n  dup1\n  0x60\n  add\n  0x40\n  mstore\n  dup1\n  0x25\n  dup2\n  mstore\n  0x20\n  add\n  data_5a508d85c4ec431af0386a0ad20ddd878cd221a9c818110892e15d28cc7f2ace\n  0x25\n  swap2\n  codecopy\n    /* \"contracts/WavePortal.sol\":197:208  console.log */\n  or(tag_0_22, shl(0x20, tag_5))\n    /* \"contracts/WavePortal.sol\":197:249  console.log(\"Yo yo, I am a contract and I am smart\") */\n  0x20\n  shr\n  jump\t// in\ntag_4:\n    /* \"contracts/WavePortal.sol\":96:527  contract WavePortal {... */\n  jump(tag_6)\n    /* \"hardhat/console.sol\":5054:5166  function log(string memory p0) internal view {... */\ntag_5:\n    /* \"hardhat/console.sol\":5103:5162  _sendLogPayload(abi.encodeWithSignature(\"log(string)\", p0)) */\n  tag_8\n    /* \"hardhat/console.sol\":5158:5160  p0 */\n  dup2\n    /* \"hardhat/console.sol\":5119:5161  abi.encodeWithSignature(\"log(string)\", p0) */\n  add(0x24, mload(0x40))\n  tag_9\n  swap2\n  swap1\n  tag_10\n  jump\t// in\ntag_9:\n  mload(0x40)\n  0x20\n  dup2\n  dup4\n  sub\n  sub\n  dup2\n  mstore\n  swap1\n  0x40\n  mstore\n  and(not(0xffffffffffffffffffffffffffffffffffffffffffffffffffffffff), 0x41304fac00000000000000000000000000000000000000000000000000000000)\n  0x20\n  dup3\n  add\n  dup1\n  mload\n  0xffffffffffffffffffffffffffffffffffffffffffffffffffffffff\n  dup4\n  dup2\n  dup4\n  and\n  or\n  dup4\n  mstore\n  pop\n  pop\n  pop\n  pop\n    /* \"hardhat/console.sol\":5103:5118  _sendLogPayload */\n  shl(0x20, tag_11)\n    /* \"hardhat/console.sol\":5103:5162  _sendLogPayload(abi.encodeWithSignature(\"log(string)\", p0)) */\n  0x20\n  shr\n  jump\t// in\ntag_8:\n    /* \"hardhat/console.sol\":5054:5166  function log(string memory p0) internal view {... */\n  pop\n  jump\t// out\n    /* \"hardhat/console.sol\":176:464  function _sendLogPayload(bytes memory payload) private view {... */\ntag_11:\n    /* \"hardhat/console.sol\":240:261  uint256 payloadLength */\n  0x00\n    /* \"hardhat/console.sol\":264:271  payload */\n  dup2\n    /* \"hardhat/console.sol\":264:278  payload.length */\n  mload\n    /* \"hardhat/console.sol\":240:278  uint256 payloadLength = payload.length */\n  swap1\n  pop\n    /* \"hardhat/console.sol\":282:304  address consoleAddress */\n  0x00\n    /* \"hardhat/console.sol\":129:171  0x000000000000000000636F6e736F6c652e6c6f67 */\n  0x636f6e736f6c652e6c6f67\n    /* \"hardhat/console.sol\":282:322  address consoleAddress = CONSOLE_ADDRESS */\n  swap1\n  pop\n    /* \"hardhat/console.sol\":373:375  32 */\n  0x20\n    /* \"hardhat/console.sol\":364:371  payload */\n  dup4\n    /* \"hardhat/console.sol\":360:376  add(payload, 32) */\n  add\n    /* \"hardhat/console.sol\":455:456  0 */\n  0x00\n    /* \"hardhat/console.sol\":452:453  0 */\n  dup1\n    /* \"hardhat/console.sol\":437:450  payloadLength */\n  dup5\n    /* \"hardhat/console.sol\":423:435  payloadStart */\n  dup4\n    /* \"hardhat/console.sol\":407:421  consoleAddress */\n  dup6\n    /* \"hardhat/console.sol\":400:405  gas() */\n  gas\n    /* \"hardhat/console.sol\":389:457  staticcall(gas(), consoleAddress, payloadStart, payloadLength, 0, 0) */\n  staticcall\n    /* \"hardhat/console.sol\":335:461  {... */\n  pop\n  pop\n  pop\n  pop\n    /* \"hardhat/console.sol\":176:464  function _sendLogPayload(bytes memory payload) private view {... */\n  pop\n  jump\t// out\n    /* \"#utility.yul\":7:371   */\ntag_14:\n    /* \"#utility.yul\":95:98   */\n  0x00\n    /* \"#utility.yul\":123:162   */\n  tag_16\n    /* \"#utility.yul\":156:161   */\n  dup3\n    /* \"#utility.yul\":123:162   */\n  tag_17\n  jump\t// in\ntag_16:\n    /* \"#utility.yul\":178:249   */\n  tag_18\n    /* \"#utility.yul\":242:248   */\n  dup2\n    /* \"#utility.yul\":237:240   */\n  dup6\n    /* \"#utility.yul\":178:249   */\n  tag_19\n  jump\t// in\ntag_18:\n    /* \"#utility.yul\":171:249   */\n  swap4\n  pop\n    /* \"#utility.yul\":258:310   */\n  tag_20\n    /* \"#utility.yul\":303:309   */\n  dup2\n    /* \"#utility.yul\":298:301   */\n  dup6\n    /* \"#utility.yul\":291:295   */\n  0x20\n    /* \"#utility.yul\":284:289   */\n  dup7\n    /* \"#utility.yul\":280:296   */\n  add\n    /* \"#utility.yul\":258:310   */\n  tag_21\n  jump\t// in\ntag_20:\n    /* \"#utility.yul\":335:364   */\n  tag_22\n    /* \"#utility.yul\":357:363   */\n  dup2\n    /* \"#utility.yul\":335:364   */\n  tag_23\n  jump\t// in\ntag_22:\n    /* \"#utility.yul\":330:333   */\n  dup5\n    /* \"#utility.yul\":326:365   */\n  add\n    /* \"#utility.yul\":319:365   */\n  swap2\n  pop\n    /* \"#utility.yul\":99:371   */\n  pop\n    /* \"#utility.yul\":7:371   */\n  swap3\n  swap2\n  pop\n  pop\n  jump\t// out\n    /* \"#utility.yul\":377:690   */\ntag_10:\n    /* \"#utility.yul\":490:494   */\n  0x00\n    /* \"#utility.yul\":528:530   */\n  0x20\n    /* \"#utility.yul\":517:526   */\n  dup3\n    /* \"#utility.yul\":513:531   */\n  add\n    /* \"#utility.yul\":505:531   */\n  swap1\n  pop\n    /* \"#utility.yul\":577:586   */\n  dup2\n    /* \"#utility.yul\":571:575   */\n  dup2\n    /* \"#utility.yul\":567:587   */\n  sub\n    /* \"#utility.yul\":563:564   */\n  0x00\n    /* \"#utility.yul\":552:561   */\n  dup4\n    /* \"#utility.yul\":548:565   */\n  add\n    /* \"#utility.yul\":541:588   */\n  mstore\n    /* \"#utility.yul\":605:683   */\n  tag_25\n    /* \"#utility.yul\":678:682   */\n  dup2\n    /* \"#utility.yul\":669:675   */\n  dup5\n    /* \"#utility.yul\":605:683   */\n  tag_14\n  jump\t// in\ntag_25:\n    /* \"#utility.yul\":597:683   */\n  swap1\n  pop\n    /* \"#utility.yul\":377:690   */\n  swap3\n  swap2\n  pop\n  pop\n  jump\t// out\n    /* \"#utility.yul\":696:795   */\ntag_17:\n    /* \"#utility.yul\":748:754   */\n  0x00\n    /* \"#utility.yul\":782:787   */\n  dup2\n    /* \"#utility.yul\":776:788   */\n  mload\n    /* \"#utility.yul\":766:788   */\n  swap1\n  pop\n    /* \"#utility.yul\":696:795   */\n  swap2\n  swap1\n  pop\n  jump\t// out\n    /* \"#utility.yul\":801:970   */\ntag_19:\n    /* \"#utility.yul\":885:896   */\n  0x00\n    /* \"#utility.yul\":919:925   */\n  dup3\n    /* \"#utility.yul\":914:917   */\n  dup3\n    /* \"#utility.yul\":907:926   */\n  mstore\n    /* \"#utility.yul\":959:963   */\n  0x20\n    /* \"#utility.yul\":954:957   */\n  dup3\n    /* \"#utility.yul\":950:964   */\n  add\n    /* \"#utility.yul\":935:964   */\n  swap1\n  pop\n    /* \"#utility.yul\":801:970   */\n  swap3\n  swap2\n  pop\n  pop\n  jump\t// out\n    /* \"#utility.yul\":976:1283   */\ntag_21:\n    /* \"#utility.yul\":1044:1045   */\n  0x00\n    /* \"#utility.yul\":1054:1167   */\ntag_29:\n    /* \"#utility.yul\":1068:1074   */\n  dup4\n    /* \"#utility.yul\":1065:1066   */\n  dup2\n    /* \"#utility.yul\":1062:1075   */\n  lt\n    /* \"#utility.yul\":1054:1167   */\n  iszero\n  tag_31\n  jumpi\n    /* \"#utility.yul\":1153:1154   */\n  dup1\n    /* \"#utility.yul\":1148:1151   */\n  dup3\n    /* \"#utility.yul\":1144:1155   */\n  add\n    /* \"#utility.yul\":1138:1156   */\n  mload\n    /* \"#utility.yul\":1134:1135   */\n  dup2\n    /* \"#utility.yul\":1129:1132   */\n  dup5\n    /* \"#utility.yul\":1125:1136   */\n  add\n    /* \"#utility.yul\":1118:1157   */\n  mstore\n    /* \"#utility.yul\":1090:1092   */\n  0x20\n    /* \"#utility.yul\":1087:1088   */\n  dup2\n    /* \"#utility.yul\":1083:1093   */\n  add\n    /* \"#utility.yul\":1078:1093   */\n  swap1\n  pop\n    /* \"#utility.yul\":1054:1167   */\n  jump(tag_29)\ntag_31:\n    /* \"#utility.yul\":1185:1191   */\n  dup4\n    /* \"#utility.yul\":1182:1183   */\n  dup2\n    /* \"#utility.yul\":1179:1192   */\n  gt\n    /* \"#utility.yul\":1176:1277   */\n  iszero\n  tag_32\n  jumpi\n    /* \"#utility.yul\":1265:1266   */\n  0x00\n    /* \"#utility.yul\":1256:1262   */\n  dup5\n    /* \"#utility.yul\":1251:1254   */\n  dup5\n    /* \"#utility.yul\":1247:1263   */\n  add\n    /* \"#utility.yul\":1240:1267   */\n  mstore\n    /* \"#utility.yul\":1176:1277   */\ntag_32:\n    /* \"#utility.yul\":1025:1283   */\n  pop\n    /* \"#utility.yul\":976:1283   */\n  pop\n  pop\n  pop\n  jump\t// out\n    /* \"#utility.yul\":1289:1391   */\ntag_23:\n    /* \"#utility.yul\":1330:1336   */\n  0x00\n    /* \"#utility.yul\":1381:1383   */\n  0x1f\n    /* \"#utility.yul\":1377:1384   */\n  not\n    /* \"#utility.yul\":1372:1374   */\n  0x1f\n    /* \"#utility.yul\":1365:1370   */\n  dup4\n    /* \"#utility.yul\":1361:1375   */\n  add\n    /* \"#utility.yul\":1357:1385   */\n  and\n    /* \"#utility.yul\":1347:1385   */\n  swap1\n  pop\n    /* \"#utility.yul\":1289:1391   */\n  swap2\n  swap1\n  pop\n  jump\t// out\n    /* \"contracts/WavePortal.sol\":96:527  contract WavePortal {... */\ntag_6:\n  dataSize(sub_0)\n  dup1\n  dataOffset(sub_0)\n  0x00\n  codecopy\n  0x00\n  return\nstop\ndata_5a508d85c4ec431af0386a0ad20ddd878cd221a9c818110892e15d28cc7f2ace 596f20796f2c204920616d206120636f6e747261637420616e64204920616d20736d617274\n\nsub_0: assembly {\n        /* \"contracts/WavePortal.sol\":96:527  contract WavePortal {... */\n      mstore(0x40, 0x80)\n      callvalue\n      dup1\n      iszero\n      tag_1\n      jumpi\n      0x00\n      dup1\n      revert\n    tag_1:\n      pop\n      jumpi(tag_2, lt(calldatasize, 0x04))\n      shr(0xe0, calldataload(0x00))\n      dup1\n      0x291bcab3\n      eq\n      tag_3\n      jumpi\n      dup1\n      0x3ca736bd\n      eq\n      tag_4\n      jumpi\n      dup1\n      0x6fe15b44\n      eq\n      tag_5\n      jumpi\n      dup1\n      0x9a2cdc08\n      eq\n      tag_6\n      jumpi\n    tag_2:\n      0x00\n      dup1\n      revert\n        /* \"contracts/WavePortal.sol\":120:145  uint256 public totalWaves */\n    tag_3:\n      tag_7\n      tag_8\n      jump\t// in\n    tag_7:\n      mload(0x40)\n      tag_9\n      swap2\n      swap1\n      tag_10\n      jump\t// in\n    tag_9:\n      mload(0x40)\n      dup1\n      swap2\n      sub\n      swap1\n      return\n        /* \"contracts/WavePortal.sol\":149:172  address[] public wavers */\n    tag_4:\n      tag_11\n      0x04\n      dup1\n      calldatasize\n      sub\n      dup2\n      add\n      swap1\n      tag_12\n      swap2\n      swap1\n      tag_13\n      jump\t// in\n    tag_12:\n      tag_14\n      jump\t// in\n    tag_11:\n      mload(0x40)\n      tag_15\n      swap2\n      swap1\n      tag_16\n      jump\t// in\n    tag_15:\n      mload(0x40)\n      dup1\n      swap2\n      sub\n      swap1\n      return\n        /* \"contracts/WavePortal.sol\":258:382  function wave() public {... */\n    tag_5:\n      tag_17\n      tag_18\n      jump\t// in\n    tag_17:\n      stop\n        /* \"contracts/WavePortal.sol\":386:525  function getTotalWaves() public view returns (uint256) {... */\n    tag_6:\n      tag_19\n      tag_20\n      jump\t// in\n    tag_19:\n      mload(0x40)\n      tag_21\n      swap2\n      swap1\n      tag_10\n      jump\t// in\n    tag_21:\n      mload(0x40)\n      dup1\n      swap2\n      sub\n      swap1\n      return\n        /* \"contracts/WavePortal.sol\":120:145  uint256 public totalWaves */\n    tag_8:\n      sload(0x00)\n      dup2\n      jump\t// out\n        /* \"contracts/WavePortal.sol\":149:172  address[] public wavers */\n    tag_14:\n      0x01\n      dup2\n      dup2\n      sload\n      dup2\n      lt\n      tag_23\n      jumpi\n      0x00\n      dup1\n      revert\n    tag_23:\n      swap1\n      0x00\n      mstore\n      keccak256(0x00, 0x20)\n      add\n      0x00\n      swap2\n      pop\n      sload\n      swap1\n      0x0100\n      exp\n      swap1\n      div\n      0xffffffffffffffffffffffffffffffffffffffff\n      and\n      dup2\n      jump\t// out\n        /* \"contracts/WavePortal.sol\":258:382  function wave() public {... */\n    tag_18:\n        /* \"contracts/WavePortal.sol\":301:302  1 */\n      0x01\n        /* \"contracts/WavePortal.sol\":287:297  totalWaves */\n      0x00\n      dup1\n        /* \"contracts/WavePortal.sol\":287:302  totalWaves += 1 */\n      dup3\n      dup3\n      sload\n      tag_26\n      swap2\n      swap1\n      tag_27\n      jump\t// in\n    tag_26:\n      swap3\n      pop\n      pop\n      dup2\n      swap1\n      sstore\n      pop\n        /* \"contracts/WavePortal.sol\":308:348  console.log(\"%s has waved!\", msg.sender) */\n      tag_28\n      mload(0x40)\n      dup1\n      0x40\n      add\n      0x40\n      mstore\n      dup1\n      0x0d\n      dup2\n      mstore\n      0x20\n      add\n      0x2573206861732077617665642100000000000000000000000000000000000000\n      dup2\n      mstore\n      pop\n        /* \"contracts/WavePortal.sol\":337:347  msg.sender */\n      caller\n        /* \"contracts/WavePortal.sol\":308:319  console.log */\n      tag_29\n        /* \"contracts/WavePortal.sol\":308:348  console.log(\"%s has waved!\", msg.sender) */\n      jump\t// in\n    tag_28:\n        /* \"contracts/WavePortal.sol\":354:360  wavers */\n      0x01\n        /* \"contracts/WavePortal.sol\":366:376  msg.sender */\n      caller\n        /* \"contracts/WavePortal.sol\":354:377  wavers.push(msg.sender) */\n      swap1\n      dup1\n      0x01\n      dup2\n      sload\n      add\n      dup1\n      dup3\n      sstore\n      dup1\n      swap2\n      pop\n      pop\n      0x01\n      swap1\n      sub\n      swap1\n      0x00\n      mstore\n      keccak256(0x00, 0x20)\n      add\n      0x00\n      swap1\n      swap2\n      swap1\n      swap2\n      swap1\n      swap2\n      0x0100\n      exp\n      dup2\n      sload\n      dup2\n      0xffffffffffffffffffffffffffffffffffffffff\n      mul\n      not\n      and\n      swap1\n      dup4\n      0xffffffffffffffffffffffffffffffffffffffff\n      and\n      mul\n      or\n      swap1\n      sstore\n      pop\n        /* \"contracts/WavePortal.sol\":258:382  function wave() public {... */\n      jump\t// out\n        /* \"contracts/WavePortal.sol\":386:525  function getTotalWaves() public view returns (uint256) {... */\n    tag_20:\n        /* \"contracts/WavePortal.sol\":432:439  uint256 */\n      0x00\n        /* \"contracts/WavePortal.sol\":447:497  console.log(\"We have %d total waves!\", totalWaves) */\n      tag_32\n      mload(0x40)\n      dup1\n      0x40\n      add\n      0x40\n      mstore\n      dup1\n      0x17\n      dup2\n      mstore\n      0x20\n      add\n      0x5765206861766520256420746f74616c20776176657321000000000000000000\n      dup2\n      mstore\n      pop\n        /* \"contracts/WavePortal.sol\":486:496  totalWaves */\n      sload(0x00)\n        /* \"contracts/WavePortal.sol\":447:458  console.log */\n      tag_33\n        /* \"contracts/WavePortal.sol\":447:497  console.log(\"We have %d total waves!\", totalWaves) */\n      jump\t// in\n    tag_32:\n        /* \"contracts/WavePortal.sol\":510:520  totalWaves */\n      sload(0x00)\n        /* \"contracts/WavePortal.sol\":503:520  return totalWaves */\n      swap1\n      pop\n        /* \"contracts/WavePortal.sol\":386:525  function getTotalWaves() public view returns (uint256) {... */\n      swap1\n      jump\t// out\n        /* \"hardhat/console.sol\":5054:5166  function log(string memory p0) internal view {... */\n    tag_22:\n        /* \"hardhat/console.sol\":5103:5162  _sendLogPayload(abi.encodeWithSignature(\"log(string)\", p0)) */\n      tag_35\n        /* \"hardhat/console.sol\":5158:5160  p0 */\n      dup2\n        /* \"hardhat/console.sol\":5119:5161  abi.encodeWithSignature(\"log(string)\", p0) */\n      add(0x24, mload(0x40))\n      tag_36\n      swap2\n      swap1\n      tag_37\n      jump\t// in\n    tag_36:\n      mload(0x40)\n      0x20\n      dup2\n      dup4\n      sub\n      sub\n      dup2\n      mstore\n      swap1\n      0x40\n      mstore\n      and(not(0xffffffffffffffffffffffffffffffffffffffffffffffffffffffff), 0x41304fac00000000000000000000000000000000000000000000000000000000)\n      0x20\n      dup3\n      add\n      dup1\n      mload\n      0xffffffffffffffffffffffffffffffffffffffffffffffffffffffff\n      dup4\n      dup2\n      dup4\n      and\n      or\n      dup4\n      mstore\n      pop\n      pop\n      pop\n      pop\n        /* \"hardhat/console.sol\":5103:5118  _sendLogPayload */\n      tag_38\n        /* \"hardhat/console.sol\":5103:5162  _sendLogPayload(abi.encodeWithSignature(\"log(string)\", p0)) */\n      jump\t// in\n    tag_35:\n        /* \"hardhat/console.sol\":5054:5166  function log(string memory p0) internal view {... */\n      pop\n      jump\t// out\n        /* \"hardhat/console.sol\":6298:6434  function log(string memory p0, address p1) internal view {... */\n    tag_29:\n        /* \"hardhat/console.sol\":6359:6430  _sendLogPayload(abi.encodeWithSignature(\"log(string,address)\", p0, p1)) */\n      tag_40\n        /* \"hardhat/console.sol\":6422:6424  p0 */\n      dup3\n        /* \"hardhat/console.sol\":6426:6428  p1 */\n      dup3\n        /* \"hardhat/console.sol\":6375:6429  abi.encodeWithSignature(\"log(string,address)\", p0, p1) */\n      add(0x24, mload(0x40))\n      tag_41\n      swap3\n      swap2\n      swap1\n      tag_42\n      jump\t// in\n    tag_41:\n      mload(0x40)\n      0x20\n      dup2\n      dup4\n      sub\n      sub\n      dup2\n      mstore\n      swap1\n      0x40\n      mstore\n      and(not(0xffffffffffffffffffffffffffffffffffffffffffffffffffffffff), 0x319af33300000000000000000000000000000000000000000000000000000000)\n      0x20\n      dup3\n      add\n      dup1\n      mload\n      0xffffffffffffffffffffffffffffffffffffffffffffffffffffffff\n      dup4\n      dup2\n      dup4\n      and\n      or\n      dup4\n      mstore\n      pop\n      pop\n      pop\n      pop\n        /* \"hardhat/console.sol\":6359:6374  _sendLogPayload */\n      tag_38\n        /* \"hardhat/console.sol\":6359:6430  _sendLogPayload(abi.encodeWithSignature(\"log(string,address)\", p0, p1)) */\n      jump\t// in\n    tag_40:\n        /* \"hardhat/console.sol\":6298:6434  function log(string memory p0, address p1) internal view {... */\n      pop\n      pop\n      jump\t// out\n        /* \"hardhat/console.sol\":5888:6018  function log(string memory p0, uint p1) internal view {... */\n    tag_33:\n        /* \"hardhat/console.sol\":5946:6014  _sendLogPayload(abi.encodeWithSignature(\"log(string,uint)\", p0, p1)) */\n      tag_44\n        /* \"hardhat/console.sol\":6006:6008  p0 */\n      dup3\n        /* \"hardhat/console.sol\":6010:6012  p1 */\n      dup3\n        /* \"hardhat/console.sol\":5962:6013  abi.encodeWithSignature(\"log(string,uint)\", p0, p1) */\n      add(0x24, mload(0x40))\n      tag_45\n      swap3\n      swap2\n      swap1\n      tag_46\n      jump\t// in\n    tag_45:\n      mload(0x40)\n      0x20\n      dup2\n      dup4\n      sub\n      sub\n      dup2\n      mstore\n      swap1\n      0x40\n      mstore\n      and(not(0xffffffffffffffffffffffffffffffffffffffffffffffffffffffff), 0x9710a9d000000000000000000000000000000000000000000000000000000000)\n      0x20\n      dup3\n      add\n      dup1\n      mload\n      0xffffffffffffffffffffffffffffffffffffffffffffffffffffffff\n      dup4\n      dup2\n      dup4\n      and\n      or\n      dup4\n      mstore\n      pop\n      pop\n      pop\n      pop\n        /* \"hardhat/console.sol\":5946:5961  _sendLogPayload */\n      tag_38\n        /* \"hardhat/console.sol\":5946:6014  _sendLogPayload(abi.encodeWithSignature(\"log(string,uint)\", p0, p1)) */\n      jump\t// in\n    tag_44:\n        /* \"hardhat/console.sol\":5888:6018  function log(string memory p0, uint p1) internal view {... */\n      pop\n      pop\n      jump\t// out\n        /* \"hardhat/console.sol\":176:464  function _sendLogPayload(bytes memory payload) private view {... */\n    tag_38:\n        /* \"hardhat/console.sol\":240:261  uint256 payloadLength */\n      0x00\n        /* \"hardhat/console.sol\":264:271  payload */\n      dup2\n        /* \"hardhat/console.sol\":264:278  payload.length */\n      mload\n        /* \"hardhat/console.sol\":240:278  uint256 payloadLength = payload.length */\n      swap1\n      pop\n        /* \"hardhat/console.sol\":282:304  address consoleAddress */\n      0x00\n        /* \"hardhat/console.sol\":129:171  0x000000000000000000636F6e736F6c652e6c6f67 */\n      0x636f6e736f6c652e6c6f67\n        /* \"hardhat/console.sol\":282:322  address consoleAddress = CONSOLE_ADDRESS */\n      swap1\n      pop\n        /* \"hardhat/console.sol\":373:375  32 */\n      0x20\n        /* \"hardhat/console.sol\":364:371  payload */\n      dup4\n        /* \"hardhat/console.sol\":360:376  add(payload, 32) */\n      add\n        /* \"hardhat/console.sol\":455:456  0 */\n      0x00\n        /* \"hardhat/console.sol\":452:453  0 */\n      dup1\n        /* \"hardhat/console.sol\":437:450  payloadLength */\n      dup5\n        /* \"hardhat/console.sol\":423:435  payloadStart */\n      dup4\n        /* \"hardhat/console.sol\":407:421  consoleAddress */\n      dup6\n        /* \"hardhat/console.sol\":400:405  gas() */\n      gas\n        /* \"hardhat/console.sol\":389:457  staticcall(gas(), consoleAddress, payloadStart, payloadLength, 0, 0) */\n      staticcall\n        /* \"hardhat/console.sol\":335:461  {... */\n      pop\n      pop\n      pop\n      pop\n        /* \"hardhat/console.sol\":176:464  function _sendLogPayload(bytes memory payload) private view {... */\n      pop\n      jump\t// out\n        /* \"#utility.yul\":7:146   */\n    tag_49:\n        /* \"#utility.yul\":53:58   */\n      0x00\n        /* \"#utility.yul\":91:97   */\n      dup2\n        /* \"#utility.yul\":78:98   */\n      calldataload\n        /* \"#utility.yul\":69:98   */\n      swap1\n      pop\n        /* \"#utility.yul\":107:140   */\n      tag_51\n        /* \"#utility.yul\":134:139   */\n      dup2\n        /* \"#utility.yul\":107:140   */\n      tag_52\n      jump\t// in\n    tag_51:\n        /* \"#utility.yul\":7:146   */\n      swap3\n      swap2\n      pop\n      pop\n      jump\t// out\n        /* \"#utility.yul\":152:481   */\n    tag_13:\n        /* \"#utility.yul\":211:217   */\n      0x00\n        /* \"#utility.yul\":260:262   */\n      0x20\n        /* \"#utility.yul\":248:257   */\n      dup3\n        /* \"#utility.yul\":239:246   */\n      dup5\n        /* \"#utility.yul\":235:258   */\n      sub\n        /* \"#utility.yul\":231:263   */\n      slt\n        /* \"#utility.yul\":228:347   */\n      iszero\n      tag_54\n      jumpi\n        /* \"#utility.yul\":266:345   */\n      tag_55\n      tag_56\n      jump\t// in\n    tag_55:\n        /* \"#utility.yul\":228:347   */\n    tag_54:\n        /* \"#utility.yul\":386:387   */\n      0x00\n        /* \"#utility.yul\":411:464   */\n      tag_57\n        /* \"#utility.yul\":456:463   */\n      dup5\n        /* \"#utility.yul\":447:453   */\n      dup3\n        /* \"#utility.yul\":436:445   */\n      dup6\n        /* \"#utility.yul\":432:454   */\n      add\n        /* \"#utility.yul\":411:464   */\n      tag_49\n      jump\t// in\n    tag_57:\n        /* \"#utility.yul\":401:464   */\n      swap2\n      pop\n        /* \"#utility.yul\":357:474   */\n      pop\n        /* \"#utility.yul\":152:481   */\n      swap3\n      swap2\n      pop\n      pop\n      jump\t// out\n        /* \"#utility.yul\":487:605   */\n    tag_58:\n        /* \"#utility.yul\":574:598   */\n      tag_60\n        /* \"#utility.yul\":592:597   */\n      dup2\n        /* \"#utility.yul\":574:598   */\n      tag_61\n      jump\t// in\n    tag_60:\n        /* \"#utility.yul\":569:572   */\n      dup3\n        /* \"#utility.yul\":562:599   */\n      mstore\n        /* \"#utility.yul\":487:605   */\n      pop\n      pop\n      jump\t// out\n        /* \"#utility.yul\":611:975   */\n    tag_62:\n        /* \"#utility.yul\":699:702   */\n      0x00\n        /* \"#utility.yul\":727:766   */\n      tag_64\n        /* \"#utility.yul\":760:765   */\n      dup3\n        /* \"#utility.yul\":727:766   */\n      tag_65\n      jump\t// in\n    tag_64:\n        /* \"#utility.yul\":782:853   */\n      tag_66\n        /* \"#utility.yul\":846:852   */\n      dup2\n        /* \"#utility.yul\":841:844   */\n      dup6\n        /* \"#utility.yul\":782:853   */\n      tag_67\n      jump\t// in\n    tag_66:\n        /* \"#utility.yul\":775:853   */\n      swap4\n      pop\n        /* \"#utility.yul\":862:914   */\n      tag_68\n        /* \"#utility.yul\":907:913   */\n      dup2\n        /* \"#utility.yul\":902:905   */\n      dup6\n        /* \"#utility.yul\":895:899   */\n      0x20\n        /* \"#utility.yul\":888:893   */\n      dup7\n        /* \"#utility.yul\":884:900   */\n      add\n        /* \"#utility.yul\":862:914   */\n      tag_69\n      jump\t// in\n    tag_68:\n        /* \"#utility.yul\":939:968   */\n      tag_70\n        /* \"#utility.yul\":961:967   */\n      dup2\n        /* \"#utility.yul\":939:968   */\n      tag_71\n      jump\t// in\n    tag_70:\n        /* \"#utility.yul\":934:937   */\n      dup5\n        /* \"#utility.yul\":930:969   */\n      add\n        /* \"#utility.yul\":923:969   */\n      swap2\n      pop\n        /* \"#utility.yul\":703:975   */\n      pop\n        /* \"#utility.yul\":611:975   */\n      swap3\n      swap2\n      pop\n      pop\n      jump\t// out\n        /* \"#utility.yul\":981:1099   */\n    tag_72:\n        /* \"#utility.yul\":1068:1092   */\n      tag_74\n        /* \"#utility.yul\":1086:1091   */\n      dup2\n        /* \"#utility.yul\":1068:1092   */\n      tag_75\n      jump\t// in\n    tag_74:\n        /* \"#utility.yul\":1063:1066   */\n      dup3\n        /* \"#utility.yul\":1056:1093   */\n      mstore\n        /* \"#utility.yul\":981:1099   */\n      pop\n      pop\n      jump\t// out\n        /* \"#utility.yul\":1105:1327   */\n    tag_16:\n        /* \"#utility.yul\":1198:1202   */\n      0x00\n        /* \"#utility.yul\":1236:1238   */\n      0x20\n        /* \"#utility.yul\":1225:1234   */\n      dup3\n        /* \"#utility.yul\":1221:1239   */\n      add\n        /* \"#utility.yul\":1213:1239   */\n      swap1\n      pop\n        /* \"#utility.yul\":1249:1320   */\n      tag_77\n        /* \"#utility.yul\":1317:1318   */\n      0x00\n        /* \"#utility.yul\":1306:1315   */\n      dup4\n        /* \"#utility.yul\":1302:1319   */\n      add\n        /* \"#utility.yul\":1293:1299   */\n      dup5\n        /* \"#utility.yul\":1249:1320   */\n      tag_58\n      jump\t// in\n    tag_77:\n        /* \"#utility.yul\":1105:1327   */\n      swap3\n      swap2\n      pop\n      pop\n      jump\t// out\n        /* \"#utility.yul\":1333:1646   */\n    tag_37:\n        /* \"#utility.yul\":1446:1450   */\n      0x00\n        /* \"#utility.yul\":1484:1486   */\n      0x20\n        /* \"#utility.yul\":1473:1482   */\n      dup3\n        /* \"#utility.yul\":1469:1487   */\n      add\n        /* \"#utility.yul\":1461:1487   */\n      swap1\n      pop\n        /* \"#utility.yul\":1533:1542   */\n      dup2\n        /* \"#utility.yul\":1527:1531   */\n      dup2\n        /* \"#utility.yul\":1523:1543   */\n      sub\n        /* \"#utility.yul\":1519:1520   */\n      0x00\n        /* \"#utility.yul\":1508:1517   */\n      dup4\n        /* \"#utility.yul\":1504:1521   */\n      add\n        /* \"#utility.yul\":1497:1544   */\n      mstore\n        /* \"#utility.yul\":1561:1639   */\n      tag_79\n        /* \"#utility.yul\":1634:1638   */\n      dup2\n        /* \"#utility.yul\":1625:1631   */\n      dup5\n        /* \"#utility.yul\":1561:1639   */\n      tag_62\n      jump\t// in\n    tag_79:\n        /* \"#utility.yul\":1553:1639   */\n      swap1\n      pop\n        /* \"#utility.yul\":1333:1646   */\n      swap3\n      swap2\n      pop\n      pop\n      jump\t// out\n        /* \"#utility.yul\":1652:2075   */\n    tag_42:\n        /* \"#utility.yul\":1793:1797   */\n      0x00\n        /* \"#utility.yul\":1831:1833   */\n      0x40\n        /* \"#utility.yul\":1820:1829   */\n      dup3\n        /* \"#utility.yul\":1816:1834   */\n      add\n        /* \"#utility.yul\":1808:1834   */\n      swap1\n      pop\n        /* \"#utility.yul\":1880:1889   */\n      dup2\n        /* \"#utility.yul\":1874:1878   */\n      dup2\n        /* \"#utility.yul\":1870:1890   */\n      sub\n        /* \"#utility.yul\":1866:1867   */\n      0x00\n        /* \"#utility.yul\":1855:1864   */\n      dup4\n        /* \"#utility.yul\":1851:1868   */\n      add\n        /* \"#utility.yul\":1844:1891   */\n      mstore\n        /* \"#utility.yul\":1908:1986   */\n      tag_81\n        /* \"#utility.yul\":1981:1985   */\n      dup2\n        /* \"#utility.yul\":1972:1978   */\n      dup6\n        /* \"#utility.yul\":1908:1986   */\n      tag_62\n      jump\t// in\n    tag_81:\n        /* \"#utility.yul\":1900:1986   */\n      swap1\n      pop\n        /* \"#utility.yul\":1996:2068   */\n      tag_82\n        /* \"#utility.yul\":2064:2066   */\n      0x20\n        /* \"#utility.yul\":2053:2062   */\n      dup4\n        /* \"#utility.yul\":2049:2067   */\n      add\n        /* \"#utility.yul\":2040:2046   */\n      dup5\n        /* \"#utility.yul\":1996:2068   */\n      tag_58\n      jump\t// in\n    tag_82:\n        /* \"#utility.yul\":1652:2075   */\n      swap4\n      swap3\n      pop\n      pop\n      pop\n      jump\t// out\n        /* \"#utility.yul\":2081:2504   */\n    tag_46:\n        /* \"#utility.yul\":2222:2226   */\n      0x00\n        /* \"#utility.yul\":2260:2262   */\n      0x40\n        /* \"#utility.yul\":2249:2258   */\n      dup3\n        /* \"#utility.yul\":2245:2263   */\n      add\n        /* \"#utility.yul\":2237:2263   */\n      swap1\n      pop\n        /* \"#utility.yul\":2309:2318   */\n      dup2\n        /* \"#utility.yul\":2303:2307   */\n      dup2\n        /* \"#utility.yul\":2299:2319   */\n      sub\n        /* \"#utility.yul\":2295:2296   */\n      0x00\n        /* \"#utility.yul\":2284:2293   */\n      dup4\n        /* \"#utility.yul\":2280:2297   */\n      add\n        /* \"#utility.yul\":2273:2320   */\n      mstore\n        /* \"#utility.yul\":2337:2415   */\n      tag_84\n        /* \"#utility.yul\":2410:2414   */\n      dup2\n        /* \"#utility.yul\":2401:2407   */\n      dup6\n        /* \"#utility.yul\":2337:2415   */\n      tag_62\n      jump\t// in\n    tag_84:\n        /* \"#utility.yul\":2329:2415   */\n      swap1\n      pop\n        /* \"#utility.yul\":2425:2497   */\n      tag_85\n        /* \"#utility.yul\":2493:2495   */\n      0x20\n        /* \"#utility.yul\":2482:2491   */\n      dup4\n        /* \"#utility.yul\":2478:2496   */\n      add\n        /* \"#utility.yul\":2469:2475   */\n      dup5\n        /* \"#utility.yul\":2425:2497   */\n      tag_72\n      jump\t// in\n    tag_85:\n        /* \"#utility.yul\":2081:2504   */\n      swap4\n      swap3\n      pop\n      pop\n      pop\n      jump\t// out\n        /* \"#utility.yul\":2510:2732   */\n    tag_10:\n        /* \"#utility.yul\":2603:2607   */\n      0x00\n        /* \"#utility.yul\":2641:2643   */\n      0x20\n        /* \"#utility.yul\":2630:2639   */\n      dup3\n        /* \"#utility.yul\":2626:2644   */\n      add\n        /* \"#utility.yul\":2618:2644   */\n      swap1\n      pop\n        /* \"#utility.yul\":2654:2725   */\n      tag_87\n        /* \"#utility.yul\":2722:2723   */\n      0x00\n        /* \"#utility.yul\":2711:2720   */\n      dup4\n        /* \"#utility.yul\":2707:2724   */\n      add\n        /* \"#utility.yul\":2698:2704   */\n      dup5\n        /* \"#utility.yul\":2654:2725   */\n      tag_72\n      jump\t// in\n    tag_87:\n        /* \"#utility.yul\":2510:2732   */\n      swap3\n      swap2\n      pop\n      pop\n      jump\t// out\n        /* \"#utility.yul\":2819:2918   */\n    tag_65:\n        /* \"#utility.yul\":2871:2877   */\n      0x00\n        /* \"#utility.yul\":2905:2910   */\n      dup2\n        /* \"#utility.yul\":2899:2911   */\n      mload\n        /* \"#utility.yul\":2889:2911   */\n      swap1\n      pop\n        /* \"#utility.yul\":2819:2918   */\n      swap2\n      swap1\n      pop\n      jump\t// out\n        /* \"#utility.yul\":2924:3093   */\n    tag_67:\n        /* \"#utility.yul\":3008:3019   */\n      0x00\n        /* \"#utility.yul\":3042:3048   */\n      dup3\n        /* \"#utility.yul\":3037:3040   */\n      dup3\n        /* \"#utility.yul\":3030:3049   */\n      mstore\n        /* \"#utility.yul\":3082:3086   */\n      0x20\n        /* \"#utility.yul\":3077:3080   */\n      dup3\n        /* \"#utility.yul\":3073:3087   */\n      add\n        /* \"#utility.yul\":3058:3087   */\n      swap1\n      pop\n        /* \"#utility.yul\":2924:3093   */\n      swap3\n      swap2\n      pop\n      pop\n      jump\t// out\n        /* \"#utility.yul\":3099:3404   */\n    tag_27:\n        /* \"#utility.yul\":3139:3142   */\n      0x00\n        /* \"#utility.yul\":3158:3178   */\n      tag_93\n        /* \"#utility.yul\":3176:3177   */\n      dup3\n        /* \"#utility.yul\":3158:3178   */\n      tag_75\n      jump\t// in\n    tag_93:\n        /* \"#utility.yul\":3153:3178   */\n      swap2\n      pop\n        /* \"#utility.yul\":3192:3212   */\n      tag_94\n        /* \"#utility.yul\":3210:3211   */\n      dup4\n        /* \"#utility.yul\":3192:3212   */\n      tag_75\n      jump\t// in\n    tag_94:\n        /* \"#utility.yul\":3187:3212   */\n      swap3\n      pop\n        /* \"#utility.yul\":3346:3347   */\n      dup3\n        /* \"#utility.yul\":3278:3344   */\n      0xffffffffffffffffffffffffffffffffffffffffffffffffffffffffffffffff\n        /* \"#utility.yul\":3274:3348   */\n      sub\n        /* \"#utility.yul\":3271:3272   */\n      dup3\n        /* \"#utility.yul\":3268:3349   */\n      gt\n        /* \"#utility.yul\":3265:3372   */\n      iszero\n      tag_95\n      jumpi\n        /* \"#utility.yul\":3352:3370   */\n      tag_96\n      tag_97\n      jump\t// in\n    tag_96:\n        /* \"#utility.yul\":3265:3372   */\n    tag_95:\n        /* \"#utility.yul\":3396:3397   */\n      dup3\n        /* \"#utility.yul\":3393:3394   */\n      dup3\n        /* \"#utility.yul\":3389:3398   */\n      add\n        /* \"#utility.yul\":3382:3398   */\n      swap1\n      pop\n        /* \"#utility.yul\":3099:3404   */\n      swap3\n      swap2\n      pop\n      pop\n      jump\t// out\n        /* \"#utility.yul\":3410:3506   */\n    tag_61:\n        /* \"#utility.yul\":3447:3454   */\n      0x00\n        /* \"#utility.yul\":3476:3500   */\n      tag_99\n        /* \"#utility.yul\":3494:3499   */\n      dup3\n        /* \"#utility.yul\":3476:3500   */\n      tag_100\n      jump\t// in\n    tag_99:\n        /* \"#utility.yul\":3465:3500   */\n      swap1\n      pop\n        /* \"#utility.yul\":3410:3506   */\n      swap2\n      swap1\n      pop\n      jump\t// out\n        /* \"#utility.yul\":3512:3638   */\n    tag_100:\n        /* \"#utility.yul\":3549:3556   */\n      0x00\n        /* \"#utility.yul\":3589:3631   */\n      0xffffffffffffffffffffffffffffffffffffffff\n        /* \"#utility.yul\":3582:3587   */\n      dup3\n        /* \"#utility.yul\":3578:3632   */\n      and\n        /* \"#utility.yul\":3567:3632   */\n      swap1\n      pop\n        /* \"#utility.yul\":3512:3638   */\n      swap2\n      swap1\n      pop\n      jump\t// out\n        /* \"#utility.yul\":3644:3721   */\n    tag_75:\n        /* \"#utility.yul\":3681:3688   */\n      0x00\n        /* \"#utility.yul\":3710:3715   */\n      dup2\n        /* \"#utility.yul\":3699:3715   */\n      swap1\n      pop\n        /* \"#utility.yul\":3644:3721   */\n      swap2\n      swap1\n      pop\n      jump\t// out\n        /* \"#utility.yul\":3727:4034   */\n    tag_69:\n        /* \"#utility.yul\":3795:3796   */\n      0x00\n        /* \"#utility.yul\":3805:3918   */\n    tag_104:\n        /* \"#utility.yul\":3819:3825   */\n      dup4\n        /* \"#utility.yul\":3816:3817   */\n      dup2\n        /* \"#utility.yul\":3813:3826   */\n      lt\n        /* \"#utility.yul\":3805:3918   */\n      iszero\n      tag_106\n      jumpi\n        /* \"#utility.yul\":3904:3905   */\n      dup1\n        /* \"#utility.yul\":3899:3902   */\n      dup3\n        /* \"#utility.yul\":3895:3906   */\n      add\n        /* \"#utility.yul\":3889:3907   */\n      mload\n        /* \"#utility.yul\":3885:3886   */\n      dup2\n        /* \"#utility.yul\":3880:3883   */\n      dup5\n        /* \"#utility.yul\":3876:3887   */\n      add\n        /* \"#utility.yul\":3869:3908   */\n      mstore\n        /* \"#utility.yul\":3841:3843   */\n      0x20\n        /* \"#utility.yul\":3838:3839   */\n      dup2\n        /* \"#utility.yul\":3834:3844   */\n      add\n        /* \"#utility.yul\":3829:3844   */\n      swap1\n      pop\n        /* \"#utility.yul\":3805:3918   */\n      jump(tag_104)\n    tag_106:\n        /* \"#utility.yul\":3936:3942   */\n      dup4\n        /* \"#utility.yul\":3933:3934   */\n      dup2\n        /* \"#utility.yul\":3930:3943   */\n      gt\n        /* \"#utility.yul\":3927:4028   */\n      iszero\n      tag_107\n      jumpi\n        /* \"#utility.yul\":4016:4017   */\n      0x00\n        /* \"#utility.yul\":4007:4013   */\n      dup5\n        /* \"#utility.yul\":4002:4005   */\n      dup5\n        /* \"#utility.yul\":3998:4014   */\n      add\n        /* \"#utility.yul\":3991:4018   */\n      mstore\n        /* \"#utility.yul\":3927:4028   */\n    tag_107:\n        /* \"#utility.yul\":3776:4034   */\n      pop\n        /* \"#utility.yul\":3727:4034   */\n      pop\n      pop\n      pop\n      jump\t// out\n        /* \"#utility.yul\":4040:4220   */\n    tag_97:\n        /* \"#utility.yul\":4088:4165   */\n      0x4e487b7100000000000000000000000000000000000000000000000000000000\n        /* \"#utility.yul\":4085:4086   */\n      0x00\n        /* \"#utility.yul\":4078:4166   */\n      mstore\n        /* \"#utility.yul\":4185:4189   */\n      0x11\n        /* \"#utility.yul\":4182:4183   */\n      0x04\n        /* \"#utility.yul\":4175:4190   */\n      mstore\n        /* \"#utility.yul\":4209:4213   */\n      0x24\n        /* \"#utility.yul\":4206:4207   */\n      0x00\n        /* \"#utility.yul\":4199:4214   */\n      revert\n        /* \"#utility.yul\":4349:4466   */\n    tag_56:\n        /* \"#utility.yul\":4458:4459   */\n      0x00\n        /* \"#utility.yul\":4455:4456   */\n      dup1\n        /* \"#utility.yul\":4448:4460   */\n      revert\n        /* \"#utility.yul\":4472:4574   */\n    tag_71:\n        /* \"#utility.yul\":4513:4519   */\n      0x00\n        /* \"#utility.yul\":4564:4566   */\n      0x1f\n        /* \"#utility.yul\":4560:4567   */\n      not\n        /* \"#utility.yul\":4555:4557   */\n      0x1f\n        /* \"#utility.yul\":4548:4553   */\n      dup4\n        /* \"#utility.yul\":4544:4558   */\n      add\n        /* \"#utility.yul\":4540:4568   */\n      and\n        /* \"#utility.yul\":4530:4568   */\n      swap1\n      pop\n        /* \"#utility.yul\":4472:4574   */\n      swap2\n      swap1\n      pop\n      jump\t// out\n        /* \"#utility.yul\":4580:4702   */\n    tag_52:\n        /* \"#utility.yul\":4653:4677   */\n      tag_114\n        /* \"#utility.yul\":4671:4676   */\n      dup2\n        /* \"#utility.yul\":4653:4677   */\n      tag_75\n      jump\t// in\n    tag_114:\n        /* \"#utility.yul\":4646:4651   */\n      dup2\n        /* \"#utility.yul\":4643:4678   */\n      eq\n        /* \"#utility.yul\":4633:4696   */\n      tag_115\n      jumpi\n        /* \"#utility.yul\":4692:4693   */\n      0x00\n        /* \"#utility.yul\":4689:4690   */\n      dup1\n        /* \"#utility.yul\":4682:4694   */\n      revert\n        /* \"#utility.yul\":4633:4696   */\n    tag_115:\n        /* \"#utility.yul\":4580:4702   */\n      pop\n      jump\t// out\n\n    auxdata: 0xa26469706673582212208ab72a9dd645e240b26cc337a2ca73a0b75723d9c5efe481bba7096a7f65ce9d64736f6c63430008070033\n}\n",
				"bytecode": {
					"linkReferences": {},
					"object": "608060405234801561001057600080fd5b5061003c6040518060600160405280602581526020016108a56025913961004160201b6102141760201c565b6101c4565b6100dd816040516024016100559190610142565b6040516020818303038152906040527f41304fac000000000000000000000000000000000000000000000000000000007bffffffffffffffffffffffffffffffffffffffffffffffffffffffff19166020820180517bffffffffffffffffffffffffffffffffffffffffffffffffffffffff83818316178352505050506100e060201b60201c565b50565b60008151905060006a636f6e736f6c652e6c6f679050602083016000808483855afa5050505050565b600061011482610164565b61011e818561016f565b935061012e818560208601610180565b610137816101b3565b840191505092915050565b6000602082019050818103600083015261015c8184610109565b905092915050565b600081519050919050565b600082825260208201905092915050565b60005b8381101561019e578082015181840152602081019050610183565b838111156101ad576000848401525b50505050565b6000601f19601f8301169050919050565b6106d2806101d36000396000f3fe608060405234801561001057600080fd5b506004361061004c5760003560e01c8063291bcab3146100515780633ca736bd1461006f5780636fe15b441461009f5780639a2cdc08146100a9575b600080fd5b6100596100c7565b6040516100669190610544565b60405180910390f35b61008960048036038101906100849190610423565b6100cd565b60405161009691906104a7565b60405180910390f35b6100a761010c565b005b6100b16101c9565b6040516100be9190610544565b60405180910390f35b60005481565b600181815481106100dd57600080fd5b906000526020600020016000915054906101000a900473ffffffffffffffffffffffffffffffffffffffff1681565b600160008082825461011e919061057b565b925050819055506101646040518060400160405280600d81526020017f2573206861732077617665642100000000000000000000000000000000000000815250336102ad565b6001339080600181540180825580915050600190039060005260206000200160009091909190916101000a81548173ffffffffffffffffffffffffffffffffffffffff021916908373ffffffffffffffffffffffffffffffffffffffff160217905550565b600061020c6040518060400160405280601781526020017f5765206861766520256420746f74616c20776176657321000000000000000000815250600054610349565b600054905090565b6102aa8160405160240161022891906104c2565b6040516020818303038152906040527f41304fac000000000000000000000000000000000000000000000000000000007bffffffffffffffffffffffffffffffffffffffffffffffffffffffff19166020820180517bffffffffffffffffffffffffffffffffffffffffffffffffffffffff83818316178352505050506103e5565b50565b61034582826040516024016102c39291906104e4565b6040516020818303038152906040527f319af333000000000000000000000000000000000000000000000000000000007bffffffffffffffffffffffffffffffffffffffffffffffffffffffff19166020820180517bffffffffffffffffffffffffffffffffffffffffffffffffffffffff83818316178352505050506103e5565b5050565b6103e1828260405160240161035f929190610514565b6040516020818303038152906040527f9710a9d0000000000000000000000000000000000000000000000000000000007bffffffffffffffffffffffffffffffffffffffffffffffffffffffff19166020820180517bffffffffffffffffffffffffffffffffffffffffffffffffffffffff83818316178352505050506103e5565b5050565b60008151905060006a636f6e736f6c652e6c6f679050602083016000808483855afa5050505050565b60008135905061041d81610685565b92915050565b6000602082840312156104395761043861066f565b5b60006104478482850161040e565b91505092915050565b610459816105d1565b82525050565b600061046a8261055f565b610474818561056a565b935061048481856020860161060d565b61048d81610674565b840191505092915050565b6104a181610603565b82525050565b60006020820190506104bc6000830184610450565b92915050565b600060208201905081810360008301526104dc818461045f565b905092915050565b600060408201905081810360008301526104fe818561045f565b905061050d6020830184610450565b9392505050565b6000604082019050818103600083015261052e818561045f565b905061053d6020830184610498565b9392505050565b60006020820190506105596000830184610498565b92915050565b600081519050919050565b600082825260208201905092915050565b600061058682610603565b915061059183610603565b9250827fffffffffffffffffffffffffffffffffffffffffffffffffffffffffffffffff038211156105c6576105c5610640565b5b828201905092915050565b60006105dc826105e3565b9050919050565b600073ffffffffffffffffffffffffffffffffffffffff82169050919050565b6000819050919050565b60005b8381101561062b578082015181840152602081019050610610565b8381111561063a576000848401525b50505050565b7f4e487b7100000000000000000000000000000000000000000000000000000000600052601160045260246000fd5b600080fd5b6000601f19601f8301169050919050565b61068e81610603565b811461069957600080fd5b5056fea26469706673582212208ab72a9dd645e240b26cc337a2ca73a0b75723d9c5efe481bba7096a7f65ce9d64736f6c63430008070033596f20796f2c204920616d206120636f6e747261637420616e64204920616d20736d617274",
					"opcodes": "PUSH1 0x80 PUSH1 0x40 MSTORE CALLVALUE DUP1 ISZERO PUSH2 0x10 JUMPI PUSH1 0x0 DUP1 REVERT JUMPDEST POP PUSH2 0x3C PUSH1 0x40 MLOAD DUP1 PUSH1 0x60 ADD PUSH1 0x40 MSTORE DUP1 PUSH1 0x25 DUP2 MSTORE PUSH1 0x20 ADD PUSH2 0x8A5 PUSH1 0x25 SWAP2 CODECOPY PUSH2 0x41 PUSH1 0x20 SHL PUSH2 0x214 OR PUSH1 0x20 SHR JUMP JUMPDEST PUSH2 0x1C4 JUMP JUMPDEST PUSH2 0xDD DUP2 PUSH1 0x40 MLOAD PUSH1 0x24 ADD PUSH2 0x55 SWAP2 SWAP1 PUSH2 0x142 JUMP JUMPDEST PUSH1 0x40 MLOAD PUSH1 0x20 DUP2 DUP4 SUB SUB DUP2 MSTORE SWAP1 PUSH1 0x40 MSTORE PUSH32 0x41304FAC00000000000000000000000000000000000000000000000000000000 PUSH28 0xFFFFFFFFFFFFFFFFFFFFFFFFFFFFFFFFFFFFFFFFFFFFFFFFFFFFFFFF NOT AND PUSH1 0x20 DUP3 ADD DUP1 MLOAD PUSH28 0xFFFFFFFFFFFFFFFFFFFFFFFFFFFFFFFFFFFFFFFFFFFFFFFFFFFFFFFF DUP4 DUP2 DUP4 AND OR DUP4 MSTORE POP POP POP POP PUSH2 0xE0 PUSH1 0x20 SHL PUSH1 0x20 SHR JUMP JUMPDEST POP JUMP JUMPDEST PUSH1 0x0 DUP2 MLOAD SWAP1 POP PUSH1 0x0 PUSH11 0x636F6E736F6C652E6C6F67 SWAP1 POP PUSH1 0x20 DUP4 ADD PUSH1 0x0 DUP1 DUP5 DUP4 DUP6 GAS STATICCALL POP POP POP POP POP JUMP JUMPDEST PUSH1 0x0 PUSH2 0x114 DUP3 PUSH2 0x164 JUMP JUMPDEST PUSH2 0x11E DUP2 DUP6 PUSH2 0x16F JUMP JUMPDEST SWAP4 POP PUSH2 0x12E DUP2 DUP6 PUSH1 0x20 DUP7 ADD PUSH2 0x180 JUMP JUMPDEST PUSH2 0x137 DUP2 PUSH2 0x1B3 JUMP JUMPDEST DUP5 ADD SWAP2 POP POP SWAP3 SWAP2 POP POP JUMP JUMPDEST PUSH1 0x0 PUSH1 0x20 DUP3 ADD SWAP1 POP DUP2 DUP2 SUB PUSH1 0x0 DUP4 ADD MSTORE PUSH2 0x15C DUP2 DUP5 PUSH2 0x109 JUMP JUMPDEST SWAP1 POP SWAP3 SWAP2 POP POP JUMP JUMPDEST PUSH1 0x0 DUP2 MLOAD SWAP1 POP SWAP2 SWAP1 POP JUMP JUMPDEST PUSH1 0x0 DUP3 DUP3 MSTORE PUSH1 0x20 DUP3 ADD SWAP1 POP SWAP3 SWAP2 POP POP JUMP JUMPDEST PUSH1 0x0 JUMPDEST DUP4 DUP2 LT ISZERO PUSH2 0x19E JUMPI DUP1 DUP3 ADD MLOAD DUP2 DUP5 ADD MSTORE PUSH1 0x20 DUP2 ADD SWAP1 POP PUSH2 0x183 JUMP JUMPDEST DUP4 DUP2 GT ISZERO PUSH2 0x1AD JUMPI PUSH1 0x0 DUP5 DUP5 ADD MSTORE JUMPDEST POP POP POP POP JUMP JUMPDEST PUSH1 0x0 PUSH1 0x1F NOT PUSH1 0x1F DUP4 ADD AND SWAP1 POP SWAP2 SWAP1 POP JUMP JUMPDEST PUSH2 0x6D2 DUP1 PUSH2 0x1D3 PUSH1 0x0 CODECOPY PUSH1 0x0 RETURN INVALID PUSH1 0x80 PUSH1 0x40 MSTORE CALLVALUE DUP1 ISZERO PUSH2 0x10 JUMPI PUSH1 0x0 DUP1 REVERT JUMPDEST POP PUSH1 0x4 CALLDATASIZE LT PUSH2 0x4C JUMPI PUSH1 0x0 CALLDATALOAD PUSH1 0xE0 SHR DUP1 PUSH4 0x291BCAB3 EQ PUSH2 0x51 JUMPI DUP1 PUSH4 0x3CA736BD EQ PUSH2 0x6F JUMPI DUP1 PUSH4 0x6FE15B44 EQ PUSH2 0x9F JUMPI DUP1 PUSH4 0x9A2CDC08 EQ PUSH2 0xA9 JUMPI JUMPDEST PUSH1 0x0 DUP1 REVERT JUMPDEST PUSH2 0x59 PUSH2 0xC7 JUMP JUMPDEST PUSH1 0x40 MLOAD PUSH2 0x66 SWAP2 SWAP1 PUSH2 0x544 JUMP JUMPDEST PUSH1 0x40 MLOAD DUP1 SWAP2 SUB SWAP1 RETURN JUMPDEST PUSH2 0x89 PUSH1 0x4 DUP1 CALLDATASIZE SUB DUP2 ADD SWAP1 PUSH2 0x84 SWAP2 SWAP1 PUSH2 0x423 JUMP JUMPDEST PUSH2 0xCD JUMP JUMPDEST PUSH1 0x40 MLOAD PUSH2 0x96 SWAP2 SWAP1 PUSH2 0x4A7 JUMP JUMPDEST PUSH1 0x40 MLOAD DUP1 SWAP2 SUB SWAP1 RETURN JUMPDEST PUSH2 0xA7 PUSH2 0x10C JUMP JUMPDEST STOP JUMPDEST PUSH2 0xB1 PUSH2 0x1C9 JUMP JUMPDEST PUSH1 0x40 MLOAD PUSH2 0xBE SWAP2 SWAP1 PUSH2 0x544 JUMP JUMPDEST PUSH1 0x40 MLOAD DUP1 SWAP2 SUB SWAP1 RETURN JUMPDEST PUSH1 0x0 SLOAD DUP2 JUMP JUMPDEST PUSH1 0x1 DUP2 DUP2 SLOAD DUP2 LT PUSH2 0xDD JUMPI PUSH1 0x0 DUP1 REVERT JUMPDEST SWAP1 PUSH1 0x0 MSTORE PUSH1 0x20 PUSH1 0x0 KECCAK256 ADD PUSH1 0x0 SWAP2 POP SLOAD SWAP1 PUSH2 0x100 EXP SWAP1 DIV PUSH20 0xFFFFFFFFFFFFFFFFFFFFFFFFFFFFFFFFFFFFFFFF AND DUP2 JUMP JUMPDEST PUSH1 0x1 PUSH1 0x0 DUP1 DUP3 DUP3 SLOAD PUSH2 0x11E SWAP2 SWAP1 PUSH2 0x57B JUMP JUMPDEST SWAP3 POP POP DUP2 SWAP1 SSTORE POP PUSH2 0x164 PUSH1 0x40 MLOAD DUP1 PUSH1 0x40 ADD PUSH1 0x40 MSTORE DUP1 PUSH1 0xD DUP2 MSTORE PUSH1 0x20 ADD PUSH32 0x2573206861732077617665642100000000000000000000000000000000000000 DUP2 MSTORE POP CALLER PUSH2 0x2AD JUMP JUMPDEST PUSH1 0x1 CALLER SWAP1 DUP1 PUSH1 0x1 DUP2 SLOAD ADD DUP1 DUP3 SSTORE DUP1 SWAP2 POP POP PUSH1 0x1 SWAP1 SUB SWAP1 PUSH1 0x0 MSTORE PUSH1 0x20 PUSH1 0x0 KECCAK256 ADD PUSH1 0x0 SWAP1 SWAP2 SWAP1 SWAP2 SWAP1 SWAP2 PUSH2 0x100 EXP DUP2 SLOAD DUP2 PUSH20 0xFFFFFFFFFFFFFFFFFFFFFFFFFFFFFFFFFFFFFFFF MUL NOT AND SWAP1 DUP4 PUSH20 0xFFFFFFFFFFFFFFFFFFFFFFFFFFFFFFFFFFFFFFFF AND MUL OR SWAP1 SSTORE POP JUMP JUMPDEST PUSH1 0x0 PUSH2 0x20C PUSH1 0x40 MLOAD DUP1 PUSH1 0x40 ADD PUSH1 0x40 MSTORE DUP1 PUSH1 0x17 DUP2 MSTORE PUSH1 0x20 ADD PUSH32 0x5765206861766520256420746F74616C20776176657321000000000000000000 DUP2 MSTORE POP PUSH1 0x0 SLOAD PUSH2 0x349 JUMP JUMPDEST PUSH1 0x0 SLOAD SWAP1 POP SWAP1 JUMP JUMPDEST PUSH2 0x2AA DUP2 PUSH1 0x40 MLOAD PUSH1 0x24 ADD PUSH2 0x228 SWAP2 SWAP1 PUSH2 0x4C2 JUMP JUMPDEST PUSH1 0x40 MLOAD PUSH1 0x20 DUP2 DUP4 SUB SUB DUP2 MSTORE SWAP1 PUSH1 0x40 MSTORE PUSH32 0x41304FAC00000000000000000000000000000000000000000000000000000000 PUSH28 0xFFFFFFFFFFFFFFFFFFFFFFFFFFFFFFFFFFFFFFFFFFFFFFFFFFFFFFFF NOT AND PUSH1 0x20 DUP3 ADD DUP1 MLOAD PUSH28 0xFFFFFFFFFFFFFFFFFFFFFFFFFFFFFFFFFFFFFFFFFFFFFFFFFFFFFFFF DUP4 DUP2 DUP4 AND OR DUP4 MSTORE POP POP POP POP PUSH2 0x3E5 JUMP JUMPDEST POP JUMP JUMPDEST PUSH2 0x345 DUP3 DUP3 PUSH1 0x40 MLOAD PUSH1 0x24 ADD PUSH2 0x2C3 SWAP3 SWAP2 SWAP1 PUSH2 0x4E4 JUMP JUMPDEST PUSH1 0x40 MLOAD PUSH1 0x20 DUP2 DUP4 SUB SUB DUP2 MSTORE SWAP1 PUSH1 0x40 MSTORE PUSH32 0x319AF33300000000000000000000000000000000000000000000000000000000 PUSH28 0xFFFFFFFFFFFFFFFFFFFFFFFFFFFFFFFFFFFFFFFFFFFFFFFFFFFFFFFF NOT AND PUSH1 0x20 DUP3 ADD DUP1 MLOAD PUSH28 0xFFFFFFFFFFFFFFFFFFFFFFFFFFFFFFFFFFFFFFFFFFFFFFFFFFFFFFFF DUP4 DUP2 DUP4 AND OR DUP4 MSTORE POP POP POP POP PUSH2 0x3E5 JUMP JUMPDEST POP POP JUMP JUMPDEST PUSH2 0x3E1 DUP3 DUP3 PUSH1 0x40 MLOAD PUSH1 0x24 ADD PUSH2 0x35F SWAP3 SWAP2 SWAP1 PUSH2 0x514 JUMP JUMPDEST PUSH1 0x40 MLOAD PUSH1 0x20 DUP2 DUP4 SUB SUB DUP2 MSTORE SWAP1 PUSH1 0x40 MSTORE PUSH32 0x9710A9D000000000000000000000000000000000000000000000000000000000 PUSH28 0xFFFFFFFFFFFFFFFFFFFFFFFFFFFFFFFFFFFFFFFFFFFFFFFFFFFFFFFF NOT AND PUSH1 0x20 DUP3 ADD DUP1 MLOAD PUSH28 0xFFFFFFFFFFFFFFFFFFFFFFFFFFFFFFFFFFFFFFFFFFFFFFFFFFFFFFFF DUP4 DUP2 DUP4 AND OR DUP4 MSTORE POP POP POP POP PUSH2 0x3E5 JUMP JUMPDEST POP POP JUMP JUMPDEST PUSH1 0x0 DUP2 MLOAD SWAP1 POP PUSH1 0x0 PUSH11 0x636F6E736F6C652E6C6F67 SWAP1 POP PUSH1 0x20 DUP4 ADD PUSH1 0x0 DUP1 DUP5 DUP4 DUP6 GAS STATICCALL POP POP POP POP POP JUMP JUMPDEST PUSH1 0x0 DUP2 CALLDATALOAD SWAP1 POP PUSH2 0x41D DUP2 PUSH2 0x685 JUMP JUMPDEST SWAP3 SWAP2 POP POP JUMP JUMPDEST PUSH1 0x0 PUSH1 0x20 DUP3 DUP5 SUB SLT ISZERO PUSH2 0x439 JUMPI PUSH2 0x438 PUSH2 0x66F JUMP JUMPDEST JUMPDEST PUSH1 0x0 PUSH2 0x447 DUP5 DUP3 DUP6 ADD PUSH2 0x40E JUMP JUMPDEST SWAP2 POP POP SWAP3 SWAP2 POP POP JUMP JUMPDEST PUSH2 0x459 DUP2 PUSH2 0x5D1 JUMP JUMPDEST DUP3 MSTORE POP POP JUMP JUMPDEST PUSH1 0x0 PUSH2 0x46A DUP3 PUSH2 0x55F JUMP JUMPDEST PUSH2 0x474 DUP2 DUP6 PUSH2 0x56A JUMP JUMPDEST SWAP4 POP PUSH2 0x484 DUP2 DUP6 PUSH1 0x20 DUP7 ADD PUSH2 0x60D JUMP JUMPDEST PUSH2 0x48D DUP2 PUSH2 0x674 JUMP JUMPDEST DUP5 ADD SWAP2 POP POP SWAP3 SWAP2 POP POP JUMP JUMPDEST PUSH2 0x4A1 DUP2 PUSH2 0x603 JUMP JUMPDEST DUP3 MSTORE POP POP JUMP JUMPDEST PUSH1 0x0 PUSH1 0x20 DUP3 ADD SWAP1 POP PUSH2 0x4BC PUSH1 0x0 DUP4 ADD DUP5 PUSH2 0x450 JUMP JUMPDEST SWAP3 SWAP2 POP POP JUMP JUMPDEST PUSH1 0x0 PUSH1 0x20 DUP3 ADD SWAP1 POP DUP2 DUP2 SUB PUSH1 0x0 DUP4 ADD MSTORE PUSH2 0x4DC DUP2 DUP5 PUSH2 0x45F JUMP JUMPDEST SWAP1 POP SWAP3 SWAP2 POP POP JUMP JUMPDEST PUSH1 0x0 PUSH1 0x40 DUP3 ADD SWAP1 POP DUP2 DUP2 SUB PUSH1 0x0 DUP4 ADD MSTORE PUSH2 0x4FE DUP2 DUP6 PUSH2 0x45F JUMP JUMPDEST SWAP1 POP PUSH2 0x50D PUSH1 0x20 DUP4 ADD DUP5 PUSH2 0x450 JUMP JUMPDEST SWAP4 SWAP3 POP POP POP JUMP JUMPDEST PUSH1 0x0 PUSH1 0x40 DUP3 ADD SWAP1 POP DUP2 DUP2 SUB PUSH1 0x0 DUP4 ADD MSTORE PUSH2 0x52E DUP2 DUP6 PUSH2 0x45F JUMP JUMPDEST SWAP1 POP PUSH2 0x53D PUSH1 0x20 DUP4 ADD DUP5 PUSH2 0x498 JUMP JUMPDEST SWAP4 SWAP3 POP POP POP JUMP JUMPDEST PUSH1 0x0 PUSH1 0x20 DUP3 ADD SWAP1 POP PUSH2 0x559 PUSH1 0x0 DUP4 ADD DUP5 PUSH2 0x498 JUMP JUMPDEST SWAP3 SWAP2 POP POP JUMP JUMPDEST PUSH1 0x0 DUP2 MLOAD SWAP1 POP SWAP2 SWAP1 POP JUMP JUMPDEST PUSH1 0x0 DUP3 DUP3 MSTORE PUSH1 0x20 DUP3 ADD SWAP1 POP SWAP3 SWAP2 POP POP JUMP JUMPDEST PUSH1 0x0 PUSH2 0x586 DUP3 PUSH2 0x603 JUMP JUMPDEST SWAP2 POP PUSH2 0x591 DUP4 PUSH2 0x603 JUMP JUMPDEST SWAP3 POP DUP3 PUSH32 0xFFFFFFFFFFFFFFFFFFFFFFFFFFFFFFFFFFFFFFFFFFFFFFFFFFFFFFFFFFFFFFFF SUB DUP3 GT ISZERO PUSH2 0x5C6 JUMPI PUSH2 0x5C5 PUSH2 0x640 JUMP JUMPDEST JUMPDEST DUP3 DUP3 ADD SWAP1 POP SWAP3 SWAP2 POP POP JUMP JUMPDEST PUSH1 0x0 PUSH2 0x5DC DUP3 PUSH2 0x5E3 JUMP JUMPDEST SWAP1 POP SWAP2 SWAP1 POP JUMP JUMPDEST PUSH1 0x0 PUSH20 0xFFFFFFFFFFFFFFFFFFFFFFFFFFFFFFFFFFFFFFFF DUP3 AND SWAP1 POP SWAP2 SWAP1 POP JUMP JUMPDEST PUSH1 0x0 DUP2 SWAP1 POP SWAP2 SWAP1 POP JUMP JUMPDEST PUSH1 0x0 JUMPDEST DUP4 DUP2 LT ISZERO PUSH2 0x62B JUMPI DUP1 DUP3 ADD MLOAD DUP2 DUP5 ADD MSTORE PUSH1 0x20 DUP2 ADD SWAP1 POP PUSH2 0x610 JUMP JUMPDEST DUP4 DUP2 GT ISZERO PUSH2 0x63A JUMPI PUSH1 0x0 DUP5 DUP5 ADD MSTORE JUMPDEST POP POP POP POP JUMP JUMPDEST PUSH32 0x4E487B7100000000000000000000000000000000000000000000000000000000 PUSH1 0x0 MSTORE PUSH1 0x11 PUSH1 0x4 MSTORE PUSH1 0x24 PUSH1 0x0 REVERT JUMPDEST PUSH1 0x0 DUP1 REVERT JUMPDEST PUSH1 0x0 PUSH1 0x1F NOT PUSH1 0x1F DUP4 ADD AND SWAP1 POP SWAP2 SWAP1 POP JUMP JUMPDEST PUSH2 0x68E DUP2 PUSH2 0x603 JUMP JUMPDEST DUP2 EQ PUSH2 0x699 JUMPI PUSH1 0x0 DUP1 REVERT JUMPDEST POP JUMP INVALID LOG2 PUSH5 0x6970667358 0x22 SLT KECCAK256 DUP11 0xB7 0x2A SWAP14 0xD6 GASLIMIT 0xE2 BLOCKHASH 0xB2 PUSH13 0xC337A2CA73A0B75723D9C5EFE4 DUP2 0xBB 0xA7 MULMOD PUSH11 0x7F65CE9D64736F6C634300 ADDMOD SMOD STOP CALLER MSIZE PUSH16 0x20796F2C204920616D206120636F6E74 PUSH19 0x61637420616E64204920616D20736D61727400 "
				},
				"gasEstimates": {
					"creation": {
						"codeDepositCost": "349200",
						"executionCost": "infinite",
						"totalCost": "infinite"
					},
					"external": {
						"getTotalWaves()": "infinite",
						"totalWaves()": "2407",
						"wave()": "infinite",
						"wavers(uint256)": "4956"
					}
				},
				"methodIdentifiers": {
					"getTotalWaves()": "9a2cdc08",
					"totalWaves()": "291bcab3",
					"wave()": "6fe15b44",
					"wavers(uint256)": "3ca736bd"
				}
			},
			"userdoc": {
				"kind": "user",
				"methods": {},
				"version": 1
			}
		}
	}
}