{
	"data": {
		"bytecode": {
			"linkReferences": {},
			"object": "60806040523480156200001157600080fd5b50604051620018bb380380620018bb8339818101604052810190620000379190620002e1565b815181111562000073576040517faa6eac5100000000000000000000000000000000000000000000000000000000815260040160405180910390fd5b60005b8251811015620001fc57600083828151811062000098576200009762000490565b5b60200260200101519050600073ffffffffffffffffffffffffffffffffffffffff168173ffffffffffffffffffffffffffffffffffffffff1614156200010a576040517fd924e5f400000000000000000000000000000000000000000000000000000000815260040160405180910390fd5b6000808273ffffffffffffffffffffffffffffffffffffffff1673ffffffffffffffffffffffffffffffffffffffff16815260200190815260200160002060009054906101000a900460ff16156200018e576040517fc0159e0e00000000000000000000000000000000000000000000000000000000815260040160405180910390fd5b60016000808373ffffffffffffffffffffffffffffffffffffffff1673ffffffffffffffffffffffffffffffffffffffff16815260200190815260200160002060006101000a81548160ff021916908315150217905550508080620001f39062000413565b91505062000076565b50505062000547565b60006200021c620002168462000370565b62000347565b90508083825260208201905082856020860282011115620002425762000241620004f3565b5b60005b858110156200027657816200025b888262000280565b84526020840193506020830192505060018101905062000245565b5050509392505050565b600081519050620002918162000513565b92915050565b600082601f830112620002af57620002ae620004ee565b5b8151620002c184826020860162000205565b91505092915050565b600081519050620002db816200052d565b92915050565b60008060408385031215620002fb57620002fa620004fd565b5b600083015167ffffffffffffffff8111156200031c576200031b620004f8565b5b6200032a8582860162000297565b92505060206200033d85828601620002ca565b9150509250929050565b60006200035362000366565b9050620003618282620003dd565b919050565b6000604051905090565b600067ffffffffffffffff8211156200038e576200038d620004bf565b5b602082029050602081019050919050565b6000620003ac82620003b3565b9050919050565b600073ffffffffffffffffffffffffffffffffffffffff82169050919050565b6000819050919050565b620003e88262000502565b810181811067ffffffffffffffff821117156200040a5762000409620004bf565b5b80604052505050565b60006200042082620003d3565b91507fffffffffffffffffffffffffffffffffffffffffffffffffffffffffffffffff82141562000456576200045562000461565b5b600182019050919050565b7f4e487b7100000000000000000000000000000000000000000000000000000000600052601160045260246000fd5b7f4e487b7100000000000000000000000000000000000000000000000000000000600052603260045260246000fd5b7f4e487b7100000000000000000000000000000000000000000000000000000000600052604160045260246000fd5b600080fd5b600080fd5b600080fd5b600080fd5b6000601f19601f8301169050919050565b6200051e816200039f565b81146200052a57600080fd5b50565b6200053881620003d3565b81146200054457600080fd5b50565b61136480620005576000396000f3fe6080604052600436106100745760003560e01c80635986aaca1161004e5780635986aaca1461014a5780638253951a146101735780639ace38c2146101b0578063bb84c5a9146101f2576100b6565b80631087393a146100bb5780632f54bf6e146100e457806354b5fe8014610121576100b6565b366100b6577f90890809c654f11d6e72a28fa60149770a0d11ec6c92319d6ceb2bb0a4ea1a153334476040516100ac93929190610f79565b60405180910390a1005b600080fd5b3480156100c757600080fd5b506100e260048036038101906100dd9190610dd2565b61021b565b005b3480156100f057600080fd5b5061010b60048036038101906101069190610d36565b6104a0565b6040516101189190610fb0565b60405180910390f35b34801561012d57600080fd5b5061014860048036038101906101439190610dd2565b6104c0565b005b34801561015657600080fd5b50610171600480360381019061016c9190610dd2565b610726565b005b34801561017f57600080fd5b5061019a60048036038101906101959190610dff565b610975565b6040516101a79190610fb0565b60405180910390f35b3480156101bc57600080fd5b506101d760048036038101906101d29190610dd2565b6109a4565b6040516101e996959493929190610ff4565b60405180910390f35b3480156101fe57600080fd5b5061021960048036038101906102149190610d63565b610a95565b005b6000803373ffffffffffffffffffffffffffffffffffffffff1673ffffffffffffffffffffffffffffffffffffffff16815260200190815260200160002060009054906101000a900460ff1661029d576040517f30cd747100000000000000000000000000000000000000000000000000000000815260040160405180910390fd5b806004548111156102da576040517f3c35a0eb00000000000000000000000000000000000000000000000000000000815260040160405180910390fd5b816002600082815260200190815260200160002060003373ffffffffffffffffffffffffffffffffffffffff1673ffffffffffffffffffffffffffffffffffffffff16815260200190815260200160002060009054906101000a900460ff1615610370576040517f5db7ec0d00000000000000000000000000000000000000000000000000000000815260040160405180910390fd5b826001600082815260200190815260200160002060050160009054906101000a900460ff16156103cc576040517f2ea945cf00000000000000000000000000000000000000000000000000000000815260040160405180910390fd5b6001600085815260200190815260200160002060040160008154809291906103f390611205565b919050555060016002600086815260200190815260200160002060003373ffffffffffffffffffffffffffffffffffffffff1673ffffffffffffffffffffffffffffffffffffffff16815260200190815260200160002060006101000a81548160ff0219169083151502179055507fd4329d04e785ebe84c72dcd09fb9c65f1fbbda53ee15ec20e93342c7f3e2a62d8433604051610492929190610fcb565b60405180910390a150505050565b60006020528060005260406000206000915054906101000a900460ff1681565b6000803373ffffffffffffffffffffffffffffffffffffffff1673ffffffffffffffffffffffffffffffffffffffff16815260200190815260200160002060009054906101000a900460ff16610542576040517f30cd747100000000000000000000000000000000000000000000000000000000815260040160405180910390fd5b8060045481111561057f576040517f3c35a0eb00000000000000000000000000000000000000000000000000000000815260040160405180910390fd5b816001600082815260200190815260200160002060050160009054906101000a900460ff16156105db576040517f2ea945cf00000000000000000000000000000000000000000000000000000000815260040160405180910390fd5b600060016000858152602001908152602001600020905060035481600401541015610632576040517f9dd63cb700000000000000000000000000000000000000000000000000000000815260040160405180910390fd5b60018160050160006101000a81548160ff02191690831515021790555060008160010160009054906101000a900473ffffffffffffffffffffffffffffffffffffffff1673ffffffffffffffffffffffffffffffffffffffff168260020154836003016040516106a29190610f24565b60006040518083038185875af1925050503d80600081146106df576040519150601f19603f3d011682016040523d82523d6000602084013e6106e4565b606091505b505090508061071f576040517fcb2f2a1c00000000000000000000000000000000000000000000000000000000815260040160405180910390fd5b5050505050565b6000803373ffffffffffffffffffffffffffffffffffffffff1673ffffffffffffffffffffffffffffffffffffffff16815260200190815260200160002060009054906101000a900460ff166107a8576040517f30cd747100000000000000000000000000000000000000000000000000000000815260040160405180910390fd5b806004548111156107e5576040517f3c35a0eb00000000000000000000000000000000000000000000000000000000815260040160405180910390fd5b816001600082815260200190815260200160002060050160009054906101000a900460ff1615610841576040517f2ea945cf00000000000000000000000000000000000000000000000000000000815260040160405180910390fd5b6002600084815260200190815260200160002060003373ffffffffffffffffffffffffffffffffffffffff1673ffffffffffffffffffffffffffffffffffffffff16815260200190815260200160002060009054906101000a900460ff161561093e576001600084815260200190815260200160002060040160008154809291906108cb90611178565b919050555060006002600085815260200190815260200160002060003373ffffffffffffffffffffffffffffffffffffffff1673ffffffffffffffffffffffffffffffffffffffff16815260200190815260200160002060006101000a81548160ff021916908315150217905550610970565b6040517ffafe52bf00000000000000000000000000000000000000000000000000000000815260040160405180910390fd5b505050565b60026020528160005260406000206020528060005260406000206000915091509054906101000a900460ff1681565b60016020528060005260406000206000915090508060000154908060010160009054906101000a900473ffffffffffffffffffffffffffffffffffffffff16908060020154908060030180546109f9906111a2565b80601f0160208091040260200160405190810160405280929190818152602001828054610a25906111a2565b8015610a725780601f10610a4757610100808354040283529160200191610a72565b820191906000526020600020905b815481529060010190602001808311610a5557829003601f168201915b5050505050908060040154908060050160009054906101000a900460ff16905086565b6000803373ffffffffffffffffffffffffffffffffffffffff1673ffffffffffffffffffffffffffffffffffffffff16815260200190815260200160002060009054906101000a900460ff16610b17576040517f30cd747100000000000000000000000000000000000000000000000000000000815260040160405180910390fd5b600060016000600454815260200190815260200160002090506004548160000181905550838160010160006101000a81548173ffffffffffffffffffffffffffffffffffffffff021916908373ffffffffffffffffffffffffffffffffffffffff16021790555082816002018190555081816003019080519060200190610b9f929190610bf9565b5060046000815480929190610bb390611205565b91905055507f315d8bf6c6d36a1411ee3d8d607b26df37940936bd273e006857a296fbac2ce8848484604051610beb93929190610f3b565b60405180910390a150505050565b828054610c05906111a2565b90600052602060002090601f016020900481019282610c275760008555610c6e565b82601f10610c4057805160ff1916838001178555610c6e565b82800160010185558215610c6e579182015b82811115610c6d578251825591602001919060010190610c52565b5b509050610c7b9190610c7f565b5090565b5b80821115610c98576000816000905550600101610c80565b5090565b6000610caf610caa84611081565b61105c565b905082815260208101848484011115610ccb57610cca6112e0565b5b610cd6848285611136565b509392505050565b600081359050610ced81611300565b92915050565b600082601f830112610d0857610d076112db565b5b8135610d18848260208601610c9c565b91505092915050565b600081359050610d3081611317565b92915050565b600060208284031215610d4c57610d4b6112ea565b5b6000610d5a84828501610cde565b91505092915050565b600080600060608486031215610d7c57610d7b6112ea565b5b6000610d8a86828701610cde565b9350506020610d9b86828701610d21565b925050604084013567ffffffffffffffff811115610dbc57610dbb6112e5565b5b610dc886828701610cf3565b9150509250925092565b600060208284031215610de857610de76112ea565b5b6000610df684828501610d21565b91505092915050565b60008060408385031215610e1657610e156112ea565b5b6000610e2485828601610d21565b9250506020610e3585828601610cde565b9150509250929050565b610e48816110ee565b82525050565b610e5781611100565b82525050565b6000610e68826110c7565b610e7281856110d2565b9350610e82818560208601611145565b610e8b816112ef565b840191505092915050565b60008154610ea3816111a2565b610ead81866110e3565b94506001821660008114610ec85760018114610ed957610f0c565b60ff19831686528186019350610f0c565b610ee2856110b2565b60005b83811015610f0457815481890152600182019150602081019050610ee5565b838801955050505b50505092915050565b610f1e8161112c565b82525050565b6000610f308284610e96565b915081905092915050565b6000606082019050610f506000830186610e3f565b610f5d6020830185610f15565b8181036040830152610f6f8184610e5d565b9050949350505050565b6000606082019050610f8e6000830186610e3f565b610f9b6020830185610f15565b610fa86040830184610f15565b949350505050565b6000602082019050610fc56000830184610e4e565b92915050565b6000604082019050610fe06000830185610f15565b610fed6020830184610e3f565b9392505050565b600060c0820190506110096000830189610f15565b6110166020830188610e3f565b6110236040830187610f15565b81810360608301526110358186610e5d565b90506110446080830185610f15565b61105160a0830184610e4e565b979650505050505050565b6000611066611077565b905061107282826111d4565b919050565b6000604051905090565b600067ffffffffffffffff82111561109c5761109b6112ac565b5b6110a5826112ef565b9050602081019050919050565b60008190508160005260206000209050919050565b600081519050919050565b600082825260208201905092915050565b600081905092915050565b60006110f98261110c565b9050919050565b60008115159050919050565b600073ffffffffffffffffffffffffffffffffffffffff82169050919050565b6000819050919050565b82818337600083830152505050565b60005b83811015611163578082015181840152602081019050611148565b83811115611172576000848401525b50505050565b60006111838261112c565b915060008214156111975761119661124e565b5b600182039050919050565b600060028204905060018216806111ba57607f821691505b602082108114156111ce576111cd61127d565b5b50919050565b6111dd826112ef565b810181811067ffffffffffffffff821117156111fc576111fb6112ac565b5b80604052505050565b60006112108261112c565b91507fffffffffffffffffffffffffffffffffffffffffffffffffffffffffffffffff8214156112435761124261124e565b5b600182019050919050565b7f4e487b7100000000000000000000000000000000000000000000000000000000600052601160045260246000fd5b7f4e487b7100000000000000000000000000000000000000000000000000000000600052602260045260246000fd5b7f4e487b7100000000000000000000000000000000000000000000000000000000600052604160045260246000fd5b600080fd5b600080fd5b600080fd5b600080fd5b6000601f19601f8301169050919050565b611309816110ee565b811461131457600080fd5b50565b6113208161112c565b811461132b57600080fd5b5056fea26469706673582212204341323479128e8aded1fb27f4861c6e9f95dc832eafe3aacb38c3163c81073464736f6c63430008070033",
			"opcodes": "PUSH1 0x80 PUSH1 0x40 MSTORE CALLVALUE DUP1 ISZERO PUSH3 0x11 JUMPI PUSH1 0x0 DUP1 REVERT JUMPDEST POP PUSH1 0x40 MLOAD PUSH3 0x18BB CODESIZE SUB DUP1 PUSH3 0x18BB DUP4 CODECOPY DUP2 DUP2 ADD PUSH1 0x40 MSTORE DUP2 ADD SWAP1 PUSH3 0x37 SWAP2 SWAP1 PUSH3 0x2E1 JUMP JUMPDEST DUP2 MLOAD DUP2 GT ISZERO PUSH3 0x73 JUMPI PUSH1 0x40 MLOAD PUSH32 0xAA6EAC5100000000000000000000000000000000000000000000000000000000 DUP2 MSTORE PUSH1 0x4 ADD PUSH1 0x40 MLOAD DUP1 SWAP2 SUB SWAP1 REVERT JUMPDEST PUSH1 0x0 JUMPDEST DUP3 MLOAD DUP2 LT ISZERO PUSH3 0x1FC JUMPI PUSH1 0x0 DUP4 DUP3 DUP2 MLOAD DUP2 LT PUSH3 0x98 JUMPI PUSH3 0x97 PUSH3 0x490 JUMP JUMPDEST JUMPDEST PUSH1 0x20 MUL PUSH1 0x20 ADD ADD MLOAD SWAP1 POP PUSH1 0x0 PUSH20 0xFFFFFFFFFFFFFFFFFFFFFFFFFFFFFFFFFFFFFFFF AND DUP2 PUSH20 0xFFFFFFFFFFFFFFFFFFFFFFFFFFFFFFFFFFFFFFFF AND EQ ISZERO PUSH3 0x10A JUMPI PUSH1 0x40 MLOAD PUSH32 0xD924E5F400000000000000000000000000000000000000000000000000000000 DUP2 MSTORE PUSH1 0x4 ADD PUSH1 0x40 MLOAD DUP1 SWAP2 SUB SWAP1 REVERT JUMPDEST PUSH1 0x0 DUP1 DUP3 PUSH20 0xFFFFFFFFFFFFFFFFFFFFFFFFFFFFFFFFFFFFFFFF AND PUSH20 0xFFFFFFFFFFFFFFFFFFFFFFFFFFFFFFFFFFFFFFFF AND DUP2 MSTORE PUSH1 0x20 ADD SWAP1 DUP2 MSTORE PUSH1 0x20 ADD PUSH1 0x0 KECCAK256 PUSH1 0x0 SWAP1 SLOAD SWAP1 PUSH2 0x100 EXP SWAP1 DIV PUSH1 0xFF AND ISZERO PUSH3 0x18E JUMPI PUSH1 0x40 MLOAD PUSH32 0xC0159E0E00000000000000000000000000000000000000000000000000000000 DUP2 MSTORE PUSH1 0x4 ADD PUSH1 0x40 MLOAD DUP1 SWAP2 SUB SWAP1 REVERT JUMPDEST PUSH1 0x1 PUSH1 0x0 DUP1 DUP4 PUSH20 0xFFFFFFFFFFFFFFFFFFFFFFFFFFFFFFFFFFFFFFFF AND PUSH20 0xFFFFFFFFFFFFFFFFFFFFFFFFFFFFFFFFFFFFFFFF AND DUP2 MSTORE PUSH1 0x20 ADD SWAP1 DUP2 MSTORE PUSH1 0x20 ADD PUSH1 0x0 KECCAK256 PUSH1 0x0 PUSH2 0x100 EXP DUP2 SLOAD DUP2 PUSH1 0xFF MUL NOT AND SWAP1 DUP4 ISZERO ISZERO MUL OR SWAP1 SSTORE POP POP DUP1 DUP1 PUSH3 0x1F3 SWAP1 PUSH3 0x413 JUMP JUMPDEST SWAP2 POP POP PUSH3 0x76 JUMP JUMPDEST POP POP POP PUSH3 0x547 JUMP JUMPDEST PUSH1 0x0 PUSH3 0x21C PUSH3 0x216 DUP5 PUSH3 0x370 JUMP JUMPDEST PUSH3 0x347 JUMP JUMPDEST SWAP1 POP DUP1 DUP4 DUP3 MSTORE PUSH1 0x20 DUP3 ADD SWAP1 POP DUP3 DUP6 PUSH1 0x20 DUP7 MUL DUP3 ADD GT ISZERO PUSH3 0x242 JUMPI PUSH3 0x241 PUSH3 0x4F3 JUMP JUMPDEST JUMPDEST PUSH1 0x0 JUMPDEST DUP6 DUP2 LT ISZERO PUSH3 0x276 JUMPI DUP2 PUSH3 0x25B DUP9 DUP3 PUSH3 0x280 JUMP JUMPDEST DUP5 MSTORE PUSH1 0x20 DUP5 ADD SWAP4 POP PUSH1 0x20 DUP4 ADD SWAP3 POP POP PUSH1 0x1 DUP2 ADD SWAP1 POP PUSH3 0x245 JUMP JUMPDEST POP POP POP SWAP4 SWAP3 POP POP POP JUMP JUMPDEST PUSH1 0x0 DUP2 MLOAD SWAP1 POP PUSH3 0x291 DUP2 PUSH3 0x513 JUMP JUMPDEST SWAP3 SWAP2 POP POP JUMP JUMPDEST PUSH1 0x0 DUP3 PUSH1 0x1F DUP4 ADD SLT PUSH3 0x2AF JUMPI PUSH3 0x2AE PUSH3 0x4EE JUMP JUMPDEST JUMPDEST DUP2 MLOAD PUSH3 0x2C1 DUP5 DUP3 PUSH1 0x20 DUP7 ADD PUSH3 0x205 JUMP JUMPDEST SWAP2 POP POP SWAP3 SWAP2 POP POP JUMP JUMPDEST PUSH1 0x0 DUP2 MLOAD SWAP1 POP PUSH3 0x2DB DUP2 PUSH3 0x52D JUMP JUMPDEST SWAP3 SWAP2 POP POP JUMP JUMPDEST PUSH1 0x0 DUP1 PUSH1 0x40 DUP4 DUP6 SUB SLT ISZERO PUSH3 0x2FB JUMPI PUSH3 0x2FA PUSH3 0x4FD JUMP JUMPDEST JUMPDEST PUSH1 0x0 DUP4 ADD MLOAD PUSH8 0xFFFFFFFFFFFFFFFF DUP2 GT ISZERO PUSH3 0x31C JUMPI PUSH3 0x31B PUSH3 0x4F8 JUMP JUMPDEST JUMPDEST PUSH3 0x32A DUP6 DUP3 DUP7 ADD PUSH3 0x297 JUMP JUMPDEST SWAP3 POP POP PUSH1 0x20 PUSH3 0x33D DUP6 DUP3 DUP7 ADD PUSH3 0x2CA JUMP JUMPDEST SWAP2 POP POP SWAP3 POP SWAP3 SWAP1 POP JUMP JUMPDEST PUSH1 0x0 PUSH3 0x353 PUSH3 0x366 JUMP JUMPDEST SWAP1 POP PUSH3 0x361 DUP3 DUP3 PUSH3 0x3DD JUMP JUMPDEST SWAP2 SWAP1 POP JUMP JUMPDEST PUSH1 0x0 PUSH1 0x40 MLOAD SWAP1 POP SWAP1 JUMP JUMPDEST PUSH1 0x0 PUSH8 0xFFFFFFFFFFFFFFFF DUP3 GT ISZERO PUSH3 0x38E JUMPI PUSH3 0x38D PUSH3 0x4BF JUMP JUMPDEST JUMPDEST PUSH1 0x20 DUP3 MUL SWAP1 POP PUSH1 0x20 DUP2 ADD SWAP1 POP SWAP2 SWAP1 POP JUMP JUMPDEST PUSH1 0x0 PUSH3 0x3AC DUP3 PUSH3 0x3B3 JUMP JUMPDEST SWAP1 POP SWAP2 SWAP1 POP JUMP JUMPDEST PUSH1 0x0 PUSH20 0xFFFFFFFFFFFFFFFFFFFFFFFFFFFFFFFFFFFFFFFF DUP3 AND SWAP1 POP SWAP2 SWAP1 POP JUMP JUMPDEST PUSH1 0x0 DUP2 SWAP1 POP SWAP2 SWAP1 POP JUMP JUMPDEST PUSH3 0x3E8 DUP3 PUSH3 0x502 JUMP JUMPDEST DUP2 ADD DUP2 DUP2 LT PUSH8 0xFFFFFFFFFFFFFFFF DUP3 GT OR ISZERO PUSH3 0x40A JUMPI PUSH3 0x409 PUSH3 0x4BF JUMP JUMPDEST JUMPDEST DUP1 PUSH1 0x40 MSTORE POP POP POP JUMP JUMPDEST PUSH1 0x0 PUSH3 0x420 DUP3 PUSH3 0x3D3 JUMP JUMPDEST SWAP2 POP PUSH32 0xFFFFFFFFFFFFFFFFFFFFFFFFFFFFFFFFFFFFFFFFFFFFFFFFFFFFFFFFFFFFFFFF DUP3 EQ ISZERO PUSH3 0x456 JUMPI PUSH3 0x455 PUSH3 0x461 JUMP JUMPDEST JUMPDEST PUSH1 0x1 DUP3 ADD SWAP1 POP SWAP2 SWAP1 POP JUMP JUMPDEST PUSH32 0x4E487B7100000000000000000000000000000000000000000000000000000000 PUSH1 0x0 MSTORE PUSH1 0x11 PUSH1 0x4 MSTORE PUSH1 0x24 PUSH1 0x0 REVERT JUMPDEST PUSH32 0x4E487B7100000000000000000000000000000000000000000000000000000000 PUSH1 0x0 MSTORE PUSH1 0x32 PUSH1 0x4 MSTORE PUSH1 0x24 PUSH1 0x0 REVERT JUMPDEST PUSH32 0x4E487B7100000000000000000000000000000000000000000000000000000000 PUSH1 0x0 MSTORE PUSH1 0x41 PUSH1 0x4 MSTORE PUSH1 0x24 PUSH1 0x0 REVERT JUMPDEST PUSH1 0x0 DUP1 REVERT JUMPDEST PUSH1 0x0 DUP1 REVERT JUMPDEST PUSH1 0x0 DUP1 REVERT JUMPDEST PUSH1 0x0 DUP1 REVERT JUMPDEST PUSH1 0x0 PUSH1 0x1F NOT PUSH1 0x1F DUP4 ADD AND SWAP1 POP SWAP2 SWAP1 POP JUMP JUMPDEST PUSH3 0x51E DUP2 PUSH3 0x39F JUMP JUMPDEST DUP2 EQ PUSH3 0x52A JUMPI PUSH1 0x0 DUP1 REVERT JUMPDEST POP JUMP JUMPDEST PUSH3 0x538 DUP2 PUSH3 0x3D3 JUMP JUMPDEST DUP2 EQ PUSH3 0x544 JUMPI PUSH1 0x0 DUP1 REVERT JUMPDEST POP JUMP JUMPDEST PUSH2 0x1364 DUP1 PUSH3 0x557 PUSH1 0x0 CODECOPY PUSH1 0x0 RETURN INVALID PUSH1 0x80 PUSH1 0x40 MSTORE PUSH1 0x4 CALLDATASIZE LT PUSH2 0x74 JUMPI PUSH1 0x0 CALLDATALOAD PUSH1 0xE0 SHR DUP1 PUSH4 0x5986AACA GT PUSH2 0x4E JUMPI DUP1 PUSH4 0x5986AACA EQ PUSH2 0x14A JUMPI DUP1 PUSH4 0x8253951A EQ PUSH2 0x173 JUMPI DUP1 PUSH4 0x9ACE38C2 EQ PUSH2 0x1B0 JUMPI DUP1 PUSH4 0xBB84C5A9 EQ PUSH2 0x1F2 JUMPI PUSH2 0xB6 JUMP JUMPDEST DUP1 PUSH4 0x1087393A EQ PUSH2 0xBB JUMPI DUP1 PUSH4 0x2F54BF6E EQ PUSH2 0xE4 JUMPI DUP1 PUSH4 0x54B5FE80 EQ PUSH2 0x121 JUMPI PUSH2 0xB6 JUMP JUMPDEST CALLDATASIZE PUSH2 0xB6 JUMPI PUSH32 0x90890809C654F11D6E72A28FA60149770A0D11EC6C92319D6CEB2BB0A4EA1A15 CALLER CALLVALUE SELFBALANCE PUSH1 0x40 MLOAD PUSH2 0xAC SWAP4 SWAP3 SWAP2 SWAP1 PUSH2 0xF79 JUMP JUMPDEST PUSH1 0x40 MLOAD DUP1 SWAP2 SUB SWAP1 LOG1 STOP JUMPDEST PUSH1 0x0 DUP1 REVERT JUMPDEST CALLVALUE DUP1 ISZERO PUSH2 0xC7 JUMPI PUSH1 0x0 DUP1 REVERT JUMPDEST POP PUSH2 0xE2 PUSH1 0x4 DUP1 CALLDATASIZE SUB DUP2 ADD SWAP1 PUSH2 0xDD SWAP2 SWAP1 PUSH2 0xDD2 JUMP JUMPDEST PUSH2 0x21B JUMP JUMPDEST STOP JUMPDEST CALLVALUE DUP1 ISZERO PUSH2 0xF0 JUMPI PUSH1 0x0 DUP1 REVERT JUMPDEST POP PUSH2 0x10B PUSH1 0x4 DUP1 CALLDATASIZE SUB DUP2 ADD SWAP1 PUSH2 0x106 SWAP2 SWAP1 PUSH2 0xD36 JUMP JUMPDEST PUSH2 0x4A0 JUMP JUMPDEST PUSH1 0x40 MLOAD PUSH2 0x118 SWAP2 SWAP1 PUSH2 0xFB0 JUMP JUMPDEST PUSH1 0x40 MLOAD DUP1 SWAP2 SUB SWAP1 RETURN JUMPDEST CALLVALUE DUP1 ISZERO PUSH2 0x12D JUMPI PUSH1 0x0 DUP1 REVERT JUMPDEST POP PUSH2 0x148 PUSH1 0x4 DUP1 CALLDATASIZE SUB DUP2 ADD SWAP1 PUSH2 0x143 SWAP2 SWAP1 PUSH2 0xDD2 JUMP JUMPDEST PUSH2 0x4C0 JUMP JUMPDEST STOP JUMPDEST CALLVALUE DUP1 ISZERO PUSH2 0x156 JUMPI PUSH1 0x0 DUP1 REVERT JUMPDEST POP PUSH2 0x171 PUSH1 0x4 DUP1 CALLDATASIZE SUB DUP2 ADD SWAP1 PUSH2 0x16C SWAP2 SWAP1 PUSH2 0xDD2 JUMP JUMPDEST PUSH2 0x726 JUMP JUMPDEST STOP JUMPDEST CALLVALUE DUP1 ISZERO PUSH2 0x17F JUMPI PUSH1 0x0 DUP1 REVERT JUMPDEST POP PUSH2 0x19A PUSH1 0x4 DUP1 CALLDATASIZE SUB DUP2 ADD SWAP1 PUSH2 0x195 SWAP2 SWAP1 PUSH2 0xDFF JUMP JUMPDEST PUSH2 0x975 JUMP JUMPDEST PUSH1 0x40 MLOAD PUSH2 0x1A7 SWAP2 SWAP1 PUSH2 0xFB0 JUMP JUMPDEST PUSH1 0x40 MLOAD DUP1 SWAP2 SUB SWAP1 RETURN JUMPDEST CALLVALUE DUP1 ISZERO PUSH2 0x1BC JUMPI PUSH1 0x0 DUP1 REVERT JUMPDEST POP PUSH2 0x1D7 PUSH1 0x4 DUP1 CALLDATASIZE SUB DUP2 ADD SWAP1 PUSH2 0x1D2 SWAP2 SWAP1 PUSH2 0xDD2 JUMP JUMPDEST PUSH2 0x9A4 JUMP JUMPDEST PUSH1 0x40 MLOAD PUSH2 0x1E9 SWAP7 SWAP6 SWAP5 SWAP4 SWAP3 SWAP2 SWAP1 PUSH2 0xFF4 JUMP JUMPDEST PUSH1 0x40 MLOAD DUP1 SWAP2 SUB SWAP1 RETURN JUMPDEST CALLVALUE DUP1 ISZERO PUSH2 0x1FE JUMPI PUSH1 0x0 DUP1 REVERT JUMPDEST POP PUSH2 0x219 PUSH1 0x4 DUP1 CALLDATASIZE SUB DUP2 ADD SWAP1 PUSH2 0x214 SWAP2 SWAP1 PUSH2 0xD63 JUMP JUMPDEST PUSH2 0xA95 JUMP JUMPDEST STOP JUMPDEST PUSH1 0x0 DUP1 CALLER PUSH20 0xFFFFFFFFFFFFFFFFFFFFFFFFFFFFFFFFFFFFFFFF AND PUSH20 0xFFFFFFFFFFFFFFFFFFFFFFFFFFFFFFFFFFFFFFFF AND DUP2 MSTORE PUSH1 0x20 ADD SWAP1 DUP2 MSTORE PUSH1 0x20 ADD PUSH1 0x0 KECCAK256 PUSH1 0x0 SWAP1 SLOAD SWAP1 PUSH2 0x100 EXP SWAP1 DIV PUSH1 0xFF AND PUSH2 0x29D JUMPI PUSH1 0x40 MLOAD PUSH32 0x30CD747100000000000000000000000000000000000000000000000000000000 DUP2 MSTORE PUSH1 0x4 ADD PUSH1 0x40 MLOAD DUP1 SWAP2 SUB SWAP1 REVERT JUMPDEST DUP1 PUSH1 0x4 SLOAD DUP2 GT ISZERO PUSH2 0x2DA JUMPI PUSH1 0x40 MLOAD PUSH32 0x3C35A0EB00000000000000000000000000000000000000000000000000000000 DUP2 MSTORE PUSH1 0x4 ADD PUSH1 0x40 MLOAD DUP1 SWAP2 SUB SWAP1 REVERT JUMPDEST DUP2 PUSH1 0x2 PUSH1 0x0 DUP3 DUP2 MSTORE PUSH1 0x20 ADD SWAP1 DUP2 MSTORE PUSH1 0x20 ADD PUSH1 0x0 KECCAK256 PUSH1 0x0 CALLER PUSH20 0xFFFFFFFFFFFFFFFFFFFFFFFFFFFFFFFFFFFFFFFF AND PUSH20 0xFFFFFFFFFFFFFFFFFFFFFFFFFFFFFFFFFFFFFFFF AND DUP2 MSTORE PUSH1 0x20 ADD SWAP1 DUP2 MSTORE PUSH1 0x20 ADD PUSH1 0x0 KECCAK256 PUSH1 0x0 SWAP1 SLOAD SWAP1 PUSH2 0x100 EXP SWAP1 DIV PUSH1 0xFF AND ISZERO PUSH2 0x370 JUMPI PUSH1 0x40 MLOAD PUSH32 0x5DB7EC0D00000000000000000000000000000000000000000000000000000000 DUP2 MSTORE PUSH1 0x4 ADD PUSH1 0x40 MLOAD DUP1 SWAP2 SUB SWAP1 REVERT JUMPDEST DUP3 PUSH1 0x1 PUSH1 0x0 DUP3 DUP2 MSTORE PUSH1 0x20 ADD SWAP1 DUP2 MSTORE PUSH1 0x20 ADD PUSH1 0x0 KECCAK256 PUSH1 0x5 ADD PUSH1 0x0 SWAP1 SLOAD SWAP1 PUSH2 0x100 EXP SWAP1 DIV PUSH1 0xFF AND ISZERO PUSH2 0x3CC JUMPI PUSH1 0x40 MLOAD PUSH32 0x2EA945CF00000000000000000000000000000000000000000000000000000000 DUP2 MSTORE PUSH1 0x4 ADD PUSH1 0x40 MLOAD DUP1 SWAP2 SUB SWAP1 REVERT JUMPDEST PUSH1 0x1 PUSH1 0x0 DUP6 DUP2 MSTORE PUSH1 0x20 ADD SWAP1 DUP2 MSTORE PUSH1 0x20 ADD PUSH1 0x0 KECCAK256 PUSH1 0x4 ADD PUSH1 0x0 DUP2 SLOAD DUP1 SWAP3 SWAP2 SWAP1 PUSH2 0x3F3 SWAP1 PUSH2 0x1205 JUMP JUMPDEST SWAP2 SWAP1 POP SSTORE POP PUSH1 0x1 PUSH1 0x2 PUSH1 0x0 DUP7 DUP2 MSTORE PUSH1 0x20 ADD SWAP1 DUP2 MSTORE PUSH1 0x20 ADD PUSH1 0x0 KECCAK256 PUSH1 0x0 CALLER PUSH20 0xFFFFFFFFFFFFFFFFFFFFFFFFFFFFFFFFFFFFFFFF AND PUSH20 0xFFFFFFFFFFFFFFFFFFFFFFFFFFFFFFFFFFFFFFFF AND DUP2 MSTORE PUSH1 0x20 ADD SWAP1 DUP2 MSTORE PUSH1 0x20 ADD PUSH1 0x0 KECCAK256 PUSH1 0x0 PUSH2 0x100 EXP DUP2 SLOAD DUP2 PUSH1 0xFF MUL NOT AND SWAP1 DUP4 ISZERO ISZERO MUL OR SWAP1 SSTORE POP PUSH32 0xD4329D04E785EBE84C72DCD09FB9C65F1FBBDA53EE15EC20E93342C7F3E2A62D DUP5 CALLER PUSH1 0x40 MLOAD PUSH2 0x492 SWAP3 SWAP2 SWAP1 PUSH2 0xFCB JUMP JUMPDEST PUSH1 0x40 MLOAD DUP1 SWAP2 SUB SWAP1 LOG1 POP POP POP POP JUMP JUMPDEST PUSH1 0x0 PUSH1 0x20 MSTORE DUP1 PUSH1 0x0 MSTORE PUSH1 0x40 PUSH1 0x0 KECCAK256 PUSH1 0x0 SWAP2 POP SLOAD SWAP1 PUSH2 0x100 EXP SWAP1 DIV PUSH1 0xFF AND DUP2 JUMP JUMPDEST PUSH1 0x0 DUP1 CALLER PUSH20 0xFFFFFFFFFFFFFFFFFFFFFFFFFFFFFFFFFFFFFFFF AND PUSH20 0xFFFFFFFFFFFFFFFFFFFFFFFFFFFFFFFFFFFFFFFF AND DUP2 MSTORE PUSH1 0x20 ADD SWAP1 DUP2 MSTORE PUSH1 0x20 ADD PUSH1 0x0 KECCAK256 PUSH1 0x0 SWAP1 SLOAD SWAP1 PUSH2 0x100 EXP SWAP1 DIV PUSH1 0xFF AND PUSH2 0x542 JUMPI PUSH1 0x40 MLOAD PUSH32 0x30CD747100000000000000000000000000000000000000000000000000000000 DUP2 MSTORE PUSH1 0x4 ADD PUSH1 0x40 MLOAD DUP1 SWAP2 SUB SWAP1 REVERT JUMPDEST DUP1 PUSH1 0x4 SLOAD DUP2 GT ISZERO PUSH2 0x57F JUMPI PUSH1 0x40 MLOAD PUSH32 0x3C35A0EB00000000000000000000000000000000000000000000000000000000 DUP2 MSTORE PUSH1 0x4 ADD PUSH1 0x40 MLOAD DUP1 SWAP2 SUB SWAP1 REVERT JUMPDEST DUP2 PUSH1 0x1 PUSH1 0x0 DUP3 DUP2 MSTORE PUSH1 0x20 ADD SWAP1 DUP2 MSTORE PUSH1 0x20 ADD PUSH1 0x0 KECCAK256 PUSH1 0x5 ADD PUSH1 0x0 SWAP1 SLOAD SWAP1 PUSH2 0x100 EXP SWAP1 DIV PUSH1 0xFF AND ISZERO PUSH2 0x5DB JUMPI PUSH1 0x40 MLOAD PUSH32 0x2EA945CF00000000000000000000000000000000000000000000000000000000 DUP2 MSTORE PUSH1 0x4 ADD PUSH1 0x40 MLOAD DUP1 SWAP2 SUB SWAP1 REVERT JUMPDEST PUSH1 0x0 PUSH1 0x1 PUSH1 0x0 DUP6 DUP2 MSTORE PUSH1 0x20 ADD SWAP1 DUP2 MSTORE PUSH1 0x20 ADD PUSH1 0x0 KECCAK256 SWAP1 POP PUSH1 0x3 SLOAD DUP2 PUSH1 0x4 ADD SLOAD LT ISZERO PUSH2 0x632 JUMPI PUSH1 0x40 MLOAD PUSH32 0x9DD63CB700000000000000000000000000000000000000000000000000000000 DUP2 MSTORE PUSH1 0x4 ADD PUSH1 0x40 MLOAD DUP1 SWAP2 SUB SWAP1 REVERT JUMPDEST PUSH1 0x1 DUP2 PUSH1 0x5 ADD PUSH1 0x0 PUSH2 0x100 EXP DUP2 SLOAD DUP2 PUSH1 0xFF MUL NOT AND SWAP1 DUP4 ISZERO ISZERO MUL OR SWAP1 SSTORE POP PUSH1 0x0 DUP2 PUSH1 0x1 ADD PUSH1 0x0 SWAP1 SLOAD SWAP1 PUSH2 0x100 EXP SWAP1 DIV PUSH20 0xFFFFFFFFFFFFFFFFFFFFFFFFFFFFFFFFFFFFFFFF AND PUSH20 0xFFFFFFFFFFFFFFFFFFFFFFFFFFFFFFFFFFFFFFFF AND DUP3 PUSH1 0x2 ADD SLOAD DUP4 PUSH1 0x3 ADD PUSH1 0x40 MLOAD PUSH2 0x6A2 SWAP2 SWAP1 PUSH2 0xF24 JUMP JUMPDEST PUSH1 0x0 PUSH1 0x40 MLOAD DUP1 DUP4 SUB DUP2 DUP6 DUP8 GAS CALL SWAP3 POP POP POP RETURNDATASIZE DUP1 PUSH1 0x0 DUP2 EQ PUSH2 0x6DF JUMPI PUSH1 0x40 MLOAD SWAP2 POP PUSH1 0x1F NOT PUSH1 0x3F RETURNDATASIZE ADD AND DUP3 ADD PUSH1 0x40 MSTORE RETURNDATASIZE DUP3 MSTORE RETURNDATASIZE PUSH1 0x0 PUSH1 0x20 DUP5 ADD RETURNDATACOPY PUSH2 0x6E4 JUMP JUMPDEST PUSH1 0x60 SWAP2 POP JUMPDEST POP POP SWAP1 POP DUP1 PUSH2 0x71F JUMPI PUSH1 0x40 MLOAD PUSH32 0xCB2F2A1C00000000000000000000000000000000000000000000000000000000 DUP2 MSTORE PUSH1 0x4 ADD PUSH1 0x40 MLOAD DUP1 SWAP2 SUB SWAP1 REVERT JUMPDEST POP POP POP POP POP JUMP JUMPDEST PUSH1 0x0 DUP1 CALLER PUSH20 0xFFFFFFFFFFFFFFFFFFFFFFFFFFFFFFFFFFFFFFFF AND PUSH20 0xFFFFFFFFFFFFFFFFFFFFFFFFFFFFFFFFFFFFFFFF AND DUP2 MSTORE PUSH1 0x20 ADD SWAP1 DUP2 MSTORE PUSH1 0x20 ADD PUSH1 0x0 KECCAK256 PUSH1 0x0 SWAP1 SLOAD SWAP1 PUSH2 0x100 EXP SWAP1 DIV PUSH1 0xFF AND PUSH2 0x7A8 JUMPI PUSH1 0x40 MLOAD PUSH32 0x30CD747100000000000000000000000000000000000000000000000000000000 DUP2 MSTORE PUSH1 0x4 ADD PUSH1 0x40 MLOAD DUP1 SWAP2 SUB SWAP1 REVERT JUMPDEST DUP1 PUSH1 0x4 SLOAD DUP2 GT ISZERO PUSH2 0x7E5 JUMPI PUSH1 0x40 MLOAD PUSH32 0x3C35A0EB00000000000000000000000000000000000000000000000000000000 DUP2 MSTORE PUSH1 0x4 ADD PUSH1 0x40 MLOAD DUP1 SWAP2 SUB SWAP1 REVERT JUMPDEST DUP2 PUSH1 0x1 PUSH1 0x0 DUP3 DUP2 MSTORE PUSH1 0x20 ADD SWAP1 DUP2 MSTORE PUSH1 0x20 ADD PUSH1 0x0 KECCAK256 PUSH1 0x5 ADD PUSH1 0x0 SWAP1 SLOAD SWAP1 PUSH2 0x100 EXP SWAP1 DIV PUSH1 0xFF AND ISZERO PUSH2 0x841 JUMPI PUSH1 0x40 MLOAD PUSH32 0x2EA945CF00000000000000000000000000000000000000000000000000000000 DUP2 MSTORE PUSH1 0x4 ADD PUSH1 0x40 MLOAD DUP1 SWAP2 SUB SWAP1 REVERT JUMPDEST PUSH1 0x2 PUSH1 0x0 DUP5 DUP2 MSTORE PUSH1 0x20 ADD SWAP1 DUP2 MSTORE PUSH1 0x20 ADD PUSH1 0x0 KECCAK256 PUSH1 0x0 CALLER PUSH20 0xFFFFFFFFFFFFFFFFFFFFFFFFFFFFFFFFFFFFFFFF AND PUSH20 0xFFFFFFFFFFFFFFFFFFFFFFFFFFFFFFFFFFFFFFFF AND DUP2 MSTORE PUSH1 0x20 ADD SWAP1 DUP2 MSTORE PUSH1 0x20 ADD PUSH1 0x0 KECCAK256 PUSH1 0x0 SWAP1 SLOAD SWAP1 PUSH2 0x100 EXP SWAP1 DIV PUSH1 0xFF AND ISZERO PUSH2 0x93E JUMPI PUSH1 0x1 PUSH1 0x0 DUP5 DUP2 MSTORE PUSH1 0x20 ADD SWAP1 DUP2 MSTORE PUSH1 0x20 ADD PUSH1 0x0 KECCAK256 PUSH1 0x4 ADD PUSH1 0x0 DUP2 SLOAD DUP1 SWAP3 SWAP2 SWAP1 PUSH2 0x8CB SWAP1 PUSH2 0x1178 JUMP JUMPDEST SWAP2 SWAP1 POP SSTORE POP PUSH1 0x0 PUSH1 0x2 PUSH1 0x0 DUP6 DUP2 MSTORE PUSH1 0x20 ADD SWAP1 DUP2 MSTORE PUSH1 0x20 ADD PUSH1 0x0 KECCAK256 PUSH1 0x0 CALLER PUSH20 0xFFFFFFFFFFFFFFFFFFFFFFFFFFFFFFFFFFFFFFFF AND PUSH20 0xFFFFFFFFFFFFFFFFFFFFFFFFFFFFFFFFFFFFFFFF AND DUP2 MSTORE PUSH1 0x20 ADD SWAP1 DUP2 MSTORE PUSH1 0x20 ADD PUSH1 0x0 KECCAK256 PUSH1 0x0 PUSH2 0x100 EXP DUP2 SLOAD DUP2 PUSH1 0xFF MUL NOT AND SWAP1 DUP4 ISZERO ISZERO MUL OR SWAP1 SSTORE POP PUSH2 0x970 JUMP JUMPDEST PUSH1 0x40 MLOAD PUSH32 0xFAFE52BF00000000000000000000000000000000000000000000000000000000 DUP2 MSTORE PUSH1 0x4 ADD PUSH1 0x40 MLOAD DUP1 SWAP2 SUB SWAP1 REVERT JUMPDEST POP POP POP JUMP JUMPDEST PUSH1 0x2 PUSH1 0x20 MSTORE DUP2 PUSH1 0x0 MSTORE PUSH1 0x40 PUSH1 0x0 KECCAK256 PUSH1 0x20 MSTORE DUP1 PUSH1 0x0 MSTORE PUSH1 0x40 PUSH1 0x0 KECCAK256 PUSH1 0x0 SWAP2 POP SWAP2 POP SWAP1 SLOAD SWAP1 PUSH2 0x100 EXP SWAP1 DIV PUSH1 0xFF AND DUP2 JUMP JUMPDEST PUSH1 0x1 PUSH1 0x20 MSTORE DUP1 PUSH1 0x0 MSTORE PUSH1 0x40 PUSH1 0x0 KECCAK256 PUSH1 0x0 SWAP2 POP SWAP1 POP DUP1 PUSH1 0x0 ADD SLOAD SWAP1 DUP1 PUSH1 0x1 ADD PUSH1 0x0 SWAP1 SLOAD SWAP1 PUSH2 0x100 EXP SWAP1 DIV PUSH20 0xFFFFFFFFFFFFFFFFFFFFFFFFFFFFFFFFFFFFFFFF AND SWAP1 DUP1 PUSH1 0x2 ADD SLOAD SWAP1 DUP1 PUSH1 0x3 ADD DUP1 SLOAD PUSH2 0x9F9 SWAP1 PUSH2 0x11A2 JUMP JUMPDEST DUP1 PUSH1 0x1F ADD PUSH1 0x20 DUP1 SWAP2 DIV MUL PUSH1 0x20 ADD PUSH1 0x40 MLOAD SWAP1 DUP2 ADD PUSH1 0x40 MSTORE DUP1 SWAP3 SWAP2 SWAP1 DUP2 DUP2 MSTORE PUSH1 0x20 ADD DUP3 DUP1 SLOAD PUSH2 0xA25 SWAP1 PUSH2 0x11A2 JUMP JUMPDEST DUP1 ISZERO PUSH2 0xA72 JUMPI DUP1 PUSH1 0x1F LT PUSH2 0xA47 JUMPI PUSH2 0x100 DUP1 DUP4 SLOAD DIV MUL DUP4 MSTORE SWAP2 PUSH1 0x20 ADD SWAP2 PUSH2 0xA72 JUMP JUMPDEST DUP3 ADD SWAP2 SWAP1 PUSH1 0x0 MSTORE PUSH1 0x20 PUSH1 0x0 KECCAK256 SWAP1 JUMPDEST DUP2 SLOAD DUP2 MSTORE SWAP1 PUSH1 0x1 ADD SWAP1 PUSH1 0x20 ADD DUP1 DUP4 GT PUSH2 0xA55 JUMPI DUP3 SWAP1 SUB PUSH1 0x1F AND DUP3 ADD SWAP2 JUMPDEST POP POP POP POP POP SWAP1 DUP1 PUSH1 0x4 ADD SLOAD SWAP1 DUP1 PUSH1 0x5 ADD PUSH1 0x0 SWAP1 SLOAD SWAP1 PUSH2 0x100 EXP SWAP1 DIV PUSH1 0xFF AND SWAP1 POP DUP7 JUMP JUMPDEST PUSH1 0x0 DUP1 CALLER PUSH20 0xFFFFFFFFFFFFFFFFFFFFFFFFFFFFFFFFFFFFFFFF AND PUSH20 0xFFFFFFFFFFFFFFFFFFFFFFFFFFFFFFFFFFFFFFFF AND DUP2 MSTORE PUSH1 0x20 ADD SWAP1 DUP2 MSTORE PUSH1 0x20 ADD PUSH1 0x0 KECCAK256 PUSH1 0x0 SWAP1 SLOAD SWAP1 PUSH2 0x100 EXP SWAP1 DIV PUSH1 0xFF AND PUSH2 0xB17 JUMPI PUSH1 0x40 MLOAD PUSH32 0x30CD747100000000000000000000000000000000000000000000000000000000 DUP2 MSTORE PUSH1 0x4 ADD PUSH1 0x40 MLOAD DUP1 SWAP2 SUB SWAP1 REVERT JUMPDEST PUSH1 0x0 PUSH1 0x1 PUSH1 0x0 PUSH1 0x4 SLOAD DUP2 MSTORE PUSH1 0x20 ADD SWAP1 DUP2 MSTORE PUSH1 0x20 ADD PUSH1 0x0 KECCAK256 SWAP1 POP PUSH1 0x4 SLOAD DUP2 PUSH1 0x0 ADD DUP2 SWAP1 SSTORE POP DUP4 DUP2 PUSH1 0x1 ADD PUSH1 0x0 PUSH2 0x100 EXP DUP2 SLOAD DUP2 PUSH20 0xFFFFFFFFFFFFFFFFFFFFFFFFFFFFFFFFFFFFFFFF MUL NOT AND SWAP1 DUP4 PUSH20 0xFFFFFFFFFFFFFFFFFFFFFFFFFFFFFFFFFFFFFFFF AND MUL OR SWAP1 SSTORE POP DUP3 DUP2 PUSH1 0x2 ADD DUP2 SWAP1 SSTORE POP DUP2 DUP2 PUSH1 0x3 ADD SWAP1 DUP1 MLOAD SWAP1 PUSH1 0x20 ADD SWAP1 PUSH2 0xB9F SWAP3 SWAP2 SWAP1 PUSH2 0xBF9 JUMP JUMPDEST POP PUSH1 0x4 PUSH1 0x0 DUP2 SLOAD DUP1 SWAP3 SWAP2 SWAP1 PUSH2 0xBB3 SWAP1 PUSH2 0x1205 JUMP JUMPDEST SWAP2 SWAP1 POP SSTORE POP PUSH32 0x315D8BF6C6D36A1411EE3D8D607B26DF37940936BD273E006857A296FBAC2CE8 DUP5 DUP5 DUP5 PUSH1 0x40 MLOAD PUSH2 0xBEB SWAP4 SWAP3 SWAP2 SWAP1 PUSH2 0xF3B JUMP JUMPDEST PUSH1 0x40 MLOAD DUP1 SWAP2 SUB SWAP1 LOG1 POP POP POP POP JUMP JUMPDEST DUP3 DUP1 SLOAD PUSH2 0xC05 SWAP1 PUSH2 0x11A2 JUMP JUMPDEST SWAP1 PUSH1 0x0 MSTORE PUSH1 0x20 PUSH1 0x0 KECCAK256 SWAP1 PUSH1 0x1F ADD PUSH1 0x20 SWAP1 DIV DUP2 ADD SWAP3 DUP3 PUSH2 0xC27 JUMPI PUSH1 0x0 DUP6 SSTORE PUSH2 0xC6E JUMP JUMPDEST DUP3 PUSH1 0x1F LT PUSH2 0xC40 JUMPI DUP1 MLOAD PUSH1 0xFF NOT AND DUP4 DUP1 ADD OR DUP6 SSTORE PUSH2 0xC6E JUMP JUMPDEST DUP3 DUP1 ADD PUSH1 0x1 ADD DUP6 SSTORE DUP3 ISZERO PUSH2 0xC6E JUMPI SWAP2 DUP3 ADD JUMPDEST DUP3 DUP2 GT ISZERO PUSH2 0xC6D JUMPI DUP3 MLOAD DUP3 SSTORE SWAP2 PUSH1 0x20 ADD SWAP2 SWAP1 PUSH1 0x1 ADD SWAP1 PUSH2 0xC52 JUMP JUMPDEST JUMPDEST POP SWAP1 POP PUSH2 0xC7B SWAP2 SWAP1 PUSH2 0xC7F JUMP JUMPDEST POP SWAP1 JUMP JUMPDEST JUMPDEST DUP1 DUP3 GT ISZERO PUSH2 0xC98 JUMPI PUSH1 0x0 DUP2 PUSH1 0x0 SWAP1 SSTORE POP PUSH1 0x1 ADD PUSH2 0xC80 JUMP JUMPDEST POP SWAP1 JUMP JUMPDEST PUSH1 0x0 PUSH2 0xCAF PUSH2 0xCAA DUP5 PUSH2 0x1081 JUMP JUMPDEST PUSH2 0x105C JUMP JUMPDEST SWAP1 POP DUP3 DUP2 MSTORE PUSH1 0x20 DUP2 ADD DUP5 DUP5 DUP5 ADD GT ISZERO PUSH2 0xCCB JUMPI PUSH2 0xCCA PUSH2 0x12E0 JUMP JUMPDEST JUMPDEST PUSH2 0xCD6 DUP5 DUP3 DUP6 PUSH2 0x1136 JUMP JUMPDEST POP SWAP4 SWAP3 POP POP POP JUMP JUMPDEST PUSH1 0x0 DUP2 CALLDATALOAD SWAP1 POP PUSH2 0xCED DUP2 PUSH2 0x1300 JUMP JUMPDEST SWAP3 SWAP2 POP POP JUMP JUMPDEST PUSH1 0x0 DUP3 PUSH1 0x1F DUP4 ADD SLT PUSH2 0xD08 JUMPI PUSH2 0xD07 PUSH2 0x12DB JUMP JUMPDEST JUMPDEST DUP2 CALLDATALOAD PUSH2 0xD18 DUP5 DUP3 PUSH1 0x20 DUP7 ADD PUSH2 0xC9C JUMP JUMPDEST SWAP2 POP POP SWAP3 SWAP2 POP POP JUMP JUMPDEST PUSH1 0x0 DUP2 CALLDATALOAD SWAP1 POP PUSH2 0xD30 DUP2 PUSH2 0x1317 JUMP JUMPDEST SWAP3 SWAP2 POP POP JUMP JUMPDEST PUSH1 0x0 PUSH1 0x20 DUP3 DUP5 SUB SLT ISZERO PUSH2 0xD4C JUMPI PUSH2 0xD4B PUSH2 0x12EA JUMP JUMPDEST JUMPDEST PUSH1 0x0 PUSH2 0xD5A DUP5 DUP3 DUP6 ADD PUSH2 0xCDE JUMP JUMPDEST SWAP2 POP POP SWAP3 SWAP2 POP POP JUMP JUMPDEST PUSH1 0x0 DUP1 PUSH1 0x0 PUSH1 0x60 DUP5 DUP7 SUB SLT ISZERO PUSH2 0xD7C JUMPI PUSH2 0xD7B PUSH2 0x12EA JUMP JUMPDEST JUMPDEST PUSH1 0x0 PUSH2 0xD8A DUP7 DUP3 DUP8 ADD PUSH2 0xCDE JUMP JUMPDEST SWAP4 POP POP PUSH1 0x20 PUSH2 0xD9B DUP7 DUP3 DUP8 ADD PUSH2 0xD21 JUMP JUMPDEST SWAP3 POP POP PUSH1 0x40 DUP5 ADD CALLDATALOAD PUSH8 0xFFFFFFFFFFFFFFFF DUP2 GT ISZERO PUSH2 0xDBC JUMPI PUSH2 0xDBB PUSH2 0x12E5 JUMP JUMPDEST JUMPDEST PUSH2 0xDC8 DUP7 DUP3 DUP8 ADD PUSH2 0xCF3 JUMP JUMPDEST SWAP2 POP POP SWAP3 POP SWAP3 POP SWAP3 JUMP JUMPDEST PUSH1 0x0 PUSH1 0x20 DUP3 DUP5 SUB SLT ISZERO PUSH2 0xDE8 JUMPI PUSH2 0xDE7 PUSH2 0x12EA JUMP JUMPDEST JUMPDEST PUSH1 0x0 PUSH2 0xDF6 DUP5 DUP3 DUP6 ADD PUSH2 0xD21 JUMP JUMPDEST SWAP2 POP POP SWAP3 SWAP2 POP POP JUMP JUMPDEST PUSH1 0x0 DUP1 PUSH1 0x40 DUP4 DUP6 SUB SLT ISZERO PUSH2 0xE16 JUMPI PUSH2 0xE15 PUSH2 0x12EA JUMP JUMPDEST JUMPDEST PUSH1 0x0 PUSH2 0xE24 DUP6 DUP3 DUP7 ADD PUSH2 0xD21 JUMP JUMPDEST SWAP3 POP POP PUSH1 0x20 PUSH2 0xE35 DUP6 DUP3 DUP7 ADD PUSH2 0xCDE JUMP JUMPDEST SWAP2 POP POP SWAP3 POP SWAP3 SWAP1 POP JUMP JUMPDEST PUSH2 0xE48 DUP2 PUSH2 0x10EE JUMP JUMPDEST DUP3 MSTORE POP POP JUMP JUMPDEST PUSH2 0xE57 DUP2 PUSH2 0x1100 JUMP JUMPDEST DUP3 MSTORE POP POP JUMP JUMPDEST PUSH1 0x0 PUSH2 0xE68 DUP3 PUSH2 0x10C7 JUMP JUMPDEST PUSH2 0xE72 DUP2 DUP6 PUSH2 0x10D2 JUMP JUMPDEST SWAP4 POP PUSH2 0xE82 DUP2 DUP6 PUSH1 0x20 DUP7 ADD PUSH2 0x1145 JUMP JUMPDEST PUSH2 0xE8B DUP2 PUSH2 0x12EF JUMP JUMPDEST DUP5 ADD SWAP2 POP POP SWAP3 SWAP2 POP POP JUMP JUMPDEST PUSH1 0x0 DUP2 SLOAD PUSH2 0xEA3 DUP2 PUSH2 0x11A2 JUMP JUMPDEST PUSH2 0xEAD DUP2 DUP7 PUSH2 0x10E3 JUMP JUMPDEST SWAP5 POP PUSH1 0x1 DUP3 AND PUSH1 0x0 DUP2 EQ PUSH2 0xEC8 JUMPI PUSH1 0x1 DUP2 EQ PUSH2 0xED9 JUMPI PUSH2 0xF0C JUMP JUMPDEST PUSH1 0xFF NOT DUP4 AND DUP7 MSTORE DUP2 DUP7 ADD SWAP4 POP PUSH2 0xF0C JUMP JUMPDEST PUSH2 0xEE2 DUP6 PUSH2 0x10B2 JUMP JUMPDEST PUSH1 0x0 JUMPDEST DUP4 DUP2 LT ISZERO PUSH2 0xF04 JUMPI DUP2 SLOAD DUP2 DUP10 ADD MSTORE PUSH1 0x1 DUP3 ADD SWAP2 POP PUSH1 0x20 DUP2 ADD SWAP1 POP PUSH2 0xEE5 JUMP JUMPDEST DUP4 DUP9 ADD SWAP6 POP POP POP JUMPDEST POP POP POP SWAP3 SWAP2 POP POP JUMP JUMPDEST PUSH2 0xF1E DUP2 PUSH2 0x112C JUMP JUMPDEST DUP3 MSTORE POP POP JUMP JUMPDEST PUSH1 0x0 PUSH2 0xF30 DUP3 DUP5 PUSH2 0xE96 JUMP JUMPDEST SWAP2 POP DUP2 SWAP1 POP SWAP3 SWAP2 POP POP JUMP JUMPDEST PUSH1 0x0 PUSH1 0x60 DUP3 ADD SWAP1 POP PUSH2 0xF50 PUSH1 0x0 DUP4 ADD DUP7 PUSH2 0xE3F JUMP JUMPDEST PUSH2 0xF5D PUSH1 0x20 DUP4 ADD DUP6 PUSH2 0xF15 JUMP JUMPDEST DUP2 DUP2 SUB PUSH1 0x40 DUP4 ADD MSTORE PUSH2 0xF6F DUP2 DUP5 PUSH2 0xE5D JUMP JUMPDEST SWAP1 POP SWAP5 SWAP4 POP POP POP POP JUMP JUMPDEST PUSH1 0x0 PUSH1 0x60 DUP3 ADD SWAP1 POP PUSH2 0xF8E PUSH1 0x0 DUP4 ADD DUP7 PUSH2 0xE3F JUMP JUMPDEST PUSH2 0xF9B PUSH1 0x20 DUP4 ADD DUP6 PUSH2 0xF15 JUMP JUMPDEST PUSH2 0xFA8 PUSH1 0x40 DUP4 ADD DUP5 PUSH2 0xF15 JUMP JUMPDEST SWAP5 SWAP4 POP POP POP POP JUMP JUMPDEST PUSH1 0x0 PUSH1 0x20 DUP3 ADD SWAP1 POP PUSH2 0xFC5 PUSH1 0x0 DUP4 ADD DUP5 PUSH2 0xE4E JUMP JUMPDEST SWAP3 SWAP2 POP POP JUMP JUMPDEST PUSH1 0x0 PUSH1 0x40 DUP3 ADD SWAP1 POP PUSH2 0xFE0 PUSH1 0x0 DUP4 ADD DUP6 PUSH2 0xF15 JUMP JUMPDEST PUSH2 0xFED PUSH1 0x20 DUP4 ADD DUP5 PUSH2 0xE3F JUMP JUMPDEST SWAP4 SWAP3 POP POP POP JUMP JUMPDEST PUSH1 0x0 PUSH1 0xC0 DUP3 ADD SWAP1 POP PUSH2 0x1009 PUSH1 0x0 DUP4 ADD DUP10 PUSH2 0xF15 JUMP JUMPDEST PUSH2 0x1016 PUSH1 0x20 DUP4 ADD DUP9 PUSH2 0xE3F JUMP JUMPDEST PUSH2 0x1023 PUSH1 0x40 DUP4 ADD DUP8 PUSH2 0xF15 JUMP JUMPDEST DUP2 DUP2 SUB PUSH1 0x60 DUP4 ADD MSTORE PUSH2 0x1035 DUP2 DUP7 PUSH2 0xE5D JUMP JUMPDEST SWAP1 POP PUSH2 0x1044 PUSH1 0x80 DUP4 ADD DUP6 PUSH2 0xF15 JUMP JUMPDEST PUSH2 0x1051 PUSH1 0xA0 DUP4 ADD DUP5 PUSH2 0xE4E JUMP JUMPDEST SWAP8 SWAP7 POP POP POP POP POP POP POP JUMP JUMPDEST PUSH1 0x0 PUSH2 0x1066 PUSH2 0x1077 JUMP JUMPDEST SWAP1 POP PUSH2 0x1072 DUP3 DUP3 PUSH2 0x11D4 JUMP JUMPDEST SWAP2 SWAP1 POP JUMP JUMPDEST PUSH1 0x0 PUSH1 0x40 MLOAD SWAP1 POP SWAP1 JUMP JUMPDEST PUSH1 0x0 PUSH8 0xFFFFFFFFFFFFFFFF DUP3 GT ISZERO PUSH2 0x109C JUMPI PUSH2 0x109B PUSH2 0x12AC JUMP JUMPDEST JUMPDEST PUSH2 0x10A5 DUP3 PUSH2 0x12EF JUMP JUMPDEST SWAP1 POP PUSH1 0x20 DUP2 ADD SWAP1 POP SWAP2 SWAP1 POP JUMP JUMPDEST PUSH1 0x0 DUP2 SWAP1 POP DUP2 PUSH1 0x0 MSTORE PUSH1 0x20 PUSH1 0x0 KECCAK256 SWAP1 POP SWAP2 SWAP1 POP JUMP JUMPDEST PUSH1 0x0 DUP2 MLOAD SWAP1 POP SWAP2 SWAP1 POP JUMP JUMPDEST PUSH1 0x0 DUP3 DUP3 MSTORE PUSH1 0x20 DUP3 ADD SWAP1 POP SWAP3 SWAP2 POP POP JUMP JUMPDEST PUSH1 0x0 DUP2 SWAP1 POP SWAP3 SWAP2 POP POP JUMP JUMPDEST PUSH1 0x0 PUSH2 0x10F9 DUP3 PUSH2 0x110C JUMP JUMPDEST SWAP1 POP SWAP2 SWAP1 POP JUMP JUMPDEST PUSH1 0x0 DUP2 ISZERO ISZERO SWAP1 POP SWAP2 SWAP1 POP JUMP JUMPDEST PUSH1 0x0 PUSH20 0xFFFFFFFFFFFFFFFFFFFFFFFFFFFFFFFFFFFFFFFF DUP3 AND SWAP1 POP SWAP2 SWAP1 POP JUMP JUMPDEST PUSH1 0x0 DUP2 SWAP1 POP SWAP2 SWAP1 POP JUMP JUMPDEST DUP3 DUP2 DUP4 CALLDATACOPY PUSH1 0x0 DUP4 DUP4 ADD MSTORE POP POP POP JUMP JUMPDEST PUSH1 0x0 JUMPDEST DUP4 DUP2 LT ISZERO PUSH2 0x1163 JUMPI DUP1 DUP3 ADD MLOAD DUP2 DUP5 ADD MSTORE PUSH1 0x20 DUP2 ADD SWAP1 POP PUSH2 0x1148 JUMP JUMPDEST DUP4 DUP2 GT ISZERO PUSH2 0x1172 JUMPI PUSH1 0x0 DUP5 DUP5 ADD MSTORE JUMPDEST POP POP POP POP JUMP JUMPDEST PUSH1 0x0 PUSH2 0x1183 DUP3 PUSH2 0x112C JUMP JUMPDEST SWAP2 POP PUSH1 0x0 DUP3 EQ ISZERO PUSH2 0x1197 JUMPI PUSH2 0x1196 PUSH2 0x124E JUMP JUMPDEST JUMPDEST PUSH1 0x1 DUP3 SUB SWAP1 POP SWAP2 SWAP1 POP JUMP JUMPDEST PUSH1 0x0 PUSH1 0x2 DUP3 DIV SWAP1 POP PUSH1 0x1 DUP3 AND DUP1 PUSH2 0x11BA JUMPI PUSH1 0x7F DUP3 AND SWAP2 POP JUMPDEST PUSH1 0x20 DUP3 LT DUP2 EQ ISZERO PUSH2 0x11CE JUMPI PUSH2 0x11CD PUSH2 0x127D JUMP JUMPDEST JUMPDEST POP SWAP2 SWAP1 POP JUMP JUMPDEST PUSH2 0x11DD DUP3 PUSH2 0x12EF JUMP JUMPDEST DUP2 ADD DUP2 DUP2 LT PUSH8 0xFFFFFFFFFFFFFFFF DUP3 GT OR ISZERO PUSH2 0x11FC JUMPI PUSH2 0x11FB PUSH2 0x12AC JUMP JUMPDEST JUMPDEST DUP1 PUSH1 0x40 MSTORE POP POP POP JUMP JUMPDEST PUSH1 0x0 PUSH2 0x1210 DUP3 PUSH2 0x112C JUMP JUMPDEST SWAP2 POP PUSH32 0xFFFFFFFFFFFFFFFFFFFFFFFFFFFFFFFFFFFFFFFFFFFFFFFFFFFFFFFFFFFFFFFF DUP3 EQ ISZERO PUSH2 0x1243 JUMPI PUSH2 0x1242 PUSH2 0x124E JUMP JUMPDEST JUMPDEST PUSH1 0x1 DUP3 ADD SWAP1 POP SWAP2 SWAP1 POP JUMP JUMPDEST PUSH32 0x4E487B7100000000000000000000000000000000000000000000000000000000 PUSH1 0x0 MSTORE PUSH1 0x11 PUSH1 0x4 MSTORE PUSH1 0x24 PUSH1 0x0 REVERT JUMPDEST PUSH32 0x4E487B7100000000000000000000000000000000000000000000000000000000 PUSH1 0x0 MSTORE PUSH1 0x22 PUSH1 0x4 MSTORE PUSH1 0x24 PUSH1 0x0 REVERT JUMPDEST PUSH32 0x4E487B7100000000000000000000000000000000000000000000000000000000 PUSH1 0x0 MSTORE PUSH1 0x41 PUSH1 0x4 MSTORE PUSH1 0x24 PUSH1 0x0 REVERT JUMPDEST PUSH1 0x0 DUP1 REVERT JUMPDEST PUSH1 0x0 DUP1 REVERT JUMPDEST PUSH1 0x0 DUP1 REVERT JUMPDEST PUSH1 0x0 DUP1 REVERT JUMPDEST PUSH1 0x0 PUSH1 0x1F NOT PUSH1 0x1F DUP4 ADD AND SWAP1 POP SWAP2 SWAP1 POP JUMP JUMPDEST PUSH2 0x1309 DUP2 PUSH2 0x10EE JUMP JUMPDEST DUP2 EQ PUSH2 0x1314 JUMPI PUSH1 0x0 DUP1 REVERT JUMPDEST POP JUMP JUMPDEST PUSH2 0x1320 DUP2 PUSH2 0x112C JUMP JUMPDEST DUP2 EQ PUSH2 0x132B JUMPI PUSH1 0x0 DUP1 REVERT JUMPDEST POP JUMP INVALID LOG2 PUSH5 0x6970667358 0x22 SLT KECCAK256 NUMBER COINBASE ORIGIN CALLVALUE PUSH26 0x128E8ADED1FB27F4861C6E9F95DC832EAFE3AACB38C3163C8107 CALLVALUE PUSH5 0x736F6C6343 STOP ADDMOD SMOD STOP CALLER "
		},
		"gasEstimates": {
			"creation": {
				"codeDepositCost": "992800",
				"executionCost": "infinite",
				"totalCost": "infinite"
			},
			"external": {
				"approveTx(uint256)": "infinite",
				"approved(uint256,address)": "3109",
				"executeTx(uint256)": "infinite",
				"isOwner(address)": "2868",
				"revokeTx(uint256)": "infinite",
				"submitTx(address,uint256,bytes)": "infinite",
				"transactions(uint256)": "infinite"
			}
		},
		"methodIdentifiers": {
			"approveTx(uint256)": "1087393a",
			"approved(uint256,address)": "8253951a",
			"executeTx(uint256)": "54b5fe80",
			"isOwner(address)": "2f54bf6e",
			"revokeTx(uint256)": "5986aaca",
			"submitTx(address,uint256,bytes)": "bb84c5a9",
			"transactions(uint256)": "9ace38c2"
		}
	},
	"abi": [
		{
			"inputs": [
				{
					"internalType": "address[]",
					"name": "_owners",
					"type": "address[]"
				},
				{
					"internalType": "uint256",
					"name": "_required",
					"type": "uint256"
				}
			],
			"stateMutability": "nonpayable",
			"type": "constructor"
		},
		{
			"inputs": [],
			"name": "AlreadyOwner",
			"type": "error"
		},
		{
			"inputs": [],
			"name": "InvalidNumRequired",
			"type": "error"
		},
		{
			"inputs": [],
			"name": "InvalidOwnerAddress",
			"type": "error"
		},
		{
			"inputs": [],
			"name": "LessConfirmationsThanRequired",
			"type": "error"
		},
		{
			"inputs": [],
			"name": "NotOwner",
			"type": "error"
		},
		{
			"inputs": [],
			"name": "TxAlreadyApproved",
			"type": "error"
		},
		{
			"inputs": [],
			"name": "TxAlreadyExecuted",
			"type": "error"
		},
		{
			"inputs": [],
			"name": "TxDoesNotExists",
			"type": "error"
		},
		{
			"inputs": [],
			"name": "TxExecutionFailed",
			"type": "error"
		},
		{
			"inputs": [],
			"name": "TxNotApproved",
			"type": "error"
		},
		{
			"anonymous": false,
			"inputs": [
				{
					"indexed": false,
					"internalType": "uint256",
					"name": "txId",
					"type": "uint256"
				},
				{
					"indexed": false,
					"internalType": "address",
					"name": "approver",
					"type": "address"
				}
			],
			"name": "ApprovedTx",
			"type": "event"
		},
		{
			"anonymous": false,
			"inputs": [
				{
					"indexed": false,
					"internalType": "address",
					"name": "sender",
					"type": "address"
				},
				{
					"indexed": false,
					"internalType": "uint256",
					"name": "value",
					"type": "uint256"
				},
				{
					"indexed": false,
					"internalType": "uint256",
					"name": "balance",
					"type": "uint256"
				}
			],
			"name": "Deposit",
			"type": "event"
		},
		{
			"anonymous": false,
			"inputs": [
				{
					"indexed": false,
					"internalType": "address",
					"name": "to",
					"type": "address"
				},
				{
					"indexed": false,
					"internalType": "uint256",
					"name": "value",
					"type": "uint256"
				},
				{
					"indexed": false,
					"internalType": "bytes",
					"name": "data",
					"type": "bytes"
				}
			],
			"name": "SubmittedTx",
			"type": "event"
		},
		{
			"inputs": [
				{
					"internalType": "uint256",
					"name": "_txId",
					"type": "uint256"
				}
			],
			"name": "approveTx",
			"outputs": [],
			"stateMutability": "nonpayable",
			"type": "function"
		},
		{
			"inputs": [
				{
					"internalType": "uint256",
					"name": "",
					"type": "uint256"
				},
				{
					"internalType": "address",
					"name": "",
					"type": "address"
				}
			],
			"name": "approved",
			"outputs": [
				{
					"internalType": "bool",
					"name": "",
					"type": "bool"
				}
			],
			"stateMutability": "view",
			"type": "function"
		},
		{
			"inputs": [
				{
					"internalType": "uint256",
					"name": "_txId",
					"type": "uint256"
				}
			],
			"name": "executeTx",
			"outputs": [],
			"stateMutability": "nonpayable",
			"type": "function"
		},
		{
			"inputs": [
				{
					"internalType": "address",
					"name": "",
					"type": "address"
				}
			],
			"name": "isOwner",
			"outputs": [
				{
					"internalType": "bool",
					"name": "",
					"type": "bool"
				}
			],
			"stateMutability": "view",
			"type": "function"
		},
		{
			"inputs": [
				{
					"internalType": "uint256",
					"name": "_txId",
					"type": "uint256"
				}
			],
			"name": "revokeTx",
			"outputs": [],
			"stateMutability": "nonpayable",
			"type": "function"
		},
		{
			"inputs": [
				{
					"internalType": "address",
					"name": "_to",
					"type": "address"
				},
				{
					"internalType": "uint256",
					"name": "_value",
					"type": "uint256"
				},
				{
					"internalType": "bytes",
					"name": "_data",
					"type": "bytes"
				}
			],
			"name": "submitTx",
			"outputs": [],
			"stateMutability": "nonpayable",
			"type": "function"
		},
		{
			"inputs": [
				{
					"internalType": "uint256",
					"name": "",
					"type": "uint256"
				}
			],
			"name": "transactions",
			"outputs": [
				{
					"internalType": "uint256",
					"name": "id",
					"type": "uint256"
				},
				{
					"internalType": "address",
					"name": "to",
					"type": "address"
				},
				{
					"internalType": "uint256",
					"name": "value",
					"type": "uint256"
				},
				{
					"internalType": "bytes",
					"name": "data",
					"type": "bytes"
				},
				{
					"internalType": "uint256",
					"name": "confirmations",
					"type": "uint256"
				},
				{
					"internalType": "bool",
					"name": "executed",
					"type": "bool"
				}
			],
			"stateMutability": "view",
			"type": "function"
		},
		{
			"stateMutability": "payable",
			"type": "receive"
		}
	]
}