{
	"data": {
		"bytecode": {
			"linkReferences": {},
			"object": "6101e06040523480156200001257600080fd5b5060405162003e5c38038062003e5c83398181016040528101906200003891906200040e565b898073ffffffffffffffffffffffffffffffffffffffff1660808173ffffffffffffffffffffffffffffffffffffffff1681525050508973ffffffffffffffffffffffffffffffffffffffff1660a08173ffffffffffffffffffffffffffffffffffffffff16815250508761010081815250508867ffffffffffffffff1660e08167ffffffffffffffff16815250508661012081815250508561014081815250506000600460006101000a81548160ff0219169083600281111562000102576200010162000504565b5b02179055508463ffffffff1660c08163ffffffff16815250508373ffffffffffffffffffffffffffffffffffffffff166101608173ffffffffffffffffffffffffffffffffffffffff16815250508273ffffffffffffffffffffffffffffffffffffffff166101808173ffffffffffffffffffffffffffffffffffffffff16815250508173ffffffffffffffffffffffffffffffffffffffff166101a08173ffffffffffffffffffffffffffffffffffffffff16815250508073ffffffffffffffffffffffffffffffffffffffff166101c08173ffffffffffffffffffffffffffffffffffffffff168152505060003073ffffffffffffffffffffffffffffffffffffffff1687604051620002179062000568565b60006040518083038185875af1925050503d806000811462000256576040519150601f19603f3d011682016040523d82523d6000602084013e6200025b565b606091505b505090508062000297576040517f39487b2a00000000000000000000000000000000000000000000000000000000815260040160405180910390fd5b50505050505050505050506200057f565b600080fd5b600073ffffffffffffffffffffffffffffffffffffffff82169050919050565b6000620002da82620002ad565b9050919050565b620002ec81620002cd565b8114620002f857600080fd5b50565b6000815190506200030c81620002e1565b92915050565b600067ffffffffffffffff82169050919050565b620003318162000312565b81146200033d57600080fd5b50565b600081519050620003518162000326565b92915050565b6000819050919050565b6200036c8162000357565b81146200037857600080fd5b50565b6000815190506200038c8162000361565b92915050565b6000819050919050565b620003a78162000392565b8114620003b357600080fd5b50565b600081519050620003c7816200039c565b92915050565b600063ffffffff82169050919050565b620003e881620003cd565b8114620003f457600080fd5b50565b6000815190506200040881620003dd565b92915050565b6000806000806000806000806000806101408b8d031215620004355762000434620002a8565b5b6000620004458d828e01620002fb565b9a50506020620004588d828e0162000340565b99505060406200046b8d828e016200037b565b98505060606200047e8d828e01620003b6565b9750506080620004918d828e01620003b6565b96505060a0620004a48d828e01620003f7565b95505060c0620004b78d828e01620002fb565b94505060e0620004ca8d828e01620002fb565b935050610100620004de8d828e01620002fb565b925050610120620004f28d828e01620002fb565b9150509295989b9194979a5092959850565b7f4e487b7100000000000000000000000000000000000000000000000000000000600052602160045260246000fd5b600081905092915050565b50565b60006200055060008362000533565b91506200055d826200053e565b600082019050919050565b6000620005758262000541565b9150819050919050565b60805160a05160c05160e05161010051610120516101405161016051610180516101a0516101c0516137146200074860003960008181610dd40152610f270152600081816108680152818161092d01528181610d440152818161160b0152818161166f01528181611add01528181611b3e01528181611f9d01528181611ffe015281816121fc0152818161225d0152818161249f0152818161250001528181612682015261274a015260008181610726015281816107eb01528181610cd501528181611542015281816115a601528181611a1401528181611a7501528181611d3e01528181611d9f0152818161213301528181612194015281816123c001528181612421015281816125bb01526127aa0152600081816105e4015281816106a901528181610c6601528181611479015281816114dd0152818161192d0152818161198e01528181611c7501528181611cd601528181611ed401528181611f35015281816122e1015281816123420152818161261b01526126e201526000610e9501526000818161041601528181610513015261103b01526000610b3b01526000610b5c01526000610b7f01526000610aff01526000818161045301526104a701526137146000f3fe6080604052600436106101095760003560e01c80636846af761161009557806393aa87f91161006457806393aa87f91461033d578063e55ae4e814610354578063efa1c48214610391578063f975cb39146103bc578063fd6673f5146103e757610109565b80636846af761461027e5780636e04ff0d146102a9578063855c289c146102e75780639329066c1461031257610109565b80634585e33b116100dc5780634585e33b146101a9578063473f1ddc146101d257806348112c6f146101fd57806353a2c19a146102285780635f1b0fd81461025357610109565b806309bc33a71461010e578063115cbaf5146101395780631fe543e3146101645780632e519f901461018d575b600080fd5b34801561011a57600080fd5b50610123610412565b6040516101309190612a91565b60405180910390f35b34801561014557600080fd5b5061014e61043a565b60405161015b9190612b23565b60405180910390f35b34801561017057600080fd5b5061018b60048036038101906101869190612cd7565b610451565b005b6101a760048036038101906101a29190612d33565b610511565b005b3480156101b557600080fd5b506101d060048036038101906101cb9190612dbb565b610a47565b005b3480156101de57600080fd5b506101e7610c38565b6040516101f49190612e49565b60405180910390f35b34801561020957600080fd5b50610212610c62565b60405161021f9190612f22565b60405180910390f35b34801561023457600080fd5b5061023d610db4565b60405161024a9190612a91565b60405180910390f35b34801561025f57600080fd5b50610268610dc3565b6040516102759190612a91565b60405180910390f35b34801561028a57600080fd5b50610293610dd0565b6040516102a09190612e49565b60405180910390f35b3480156102b557600080fd5b506102d060048036038101906102cb9190612ff9565b610df8565b6040516102de9291906130e5565b60405180910390f35b3480156102f357600080fd5b506102fc610e67565b6040516103099190612e49565b60405180910390f35b34801561031e57600080fd5b50610327610e91565b6040516103349190612a91565b60405180910390f35b34801561034957600080fd5b50610352610eb9565b005b34801561036057600080fd5b5061037b60048036038101906103769190612d33565b611197565b6040516103889190612e49565b60405180910390f35b34801561039d57600080fd5b506103a66111df565b6040516103b39190612f22565b60405180910390f35b3480156103c857600080fd5b506103d161126d565b6040516103de9190612a91565b60405180910390f35b3480156103f357600080fd5b506103fc611276565b6040516104099190612a91565b60405180910390f35b60007f0000000000000000000000000000000000000000000000000000000000000000905090565b6000600460009054906101000a900460ff16905090565b7f000000000000000000000000000000000000000000000000000000000000000073ffffffffffffffffffffffffffffffffffffffff163373ffffffffffffffffffffffffffffffffffffffff161461050357337f00000000000000000000000000000000000000000000000000000000000000006040517f1cf993f40000000000000000000000000000000000000000000000000000000081526004016104fa929190613115565b60405180910390fd5b61050d8282611283565b5050565b7f000000000000000000000000000000000000000000000000000000000000000034101561056b576040517f3038c00a00000000000000000000000000000000000000000000000000000000815260040160405180910390fd5b6000600281111561057f5761057e612aac565b5b600460009054906101000a900460ff1660028111156105a1576105a0612aac565b5b146105d8576040517fd24a271400000000000000000000000000000000000000000000000000000000815260040160405180910390fd5b6001810361071a5760007f000000000000000000000000000000000000000000000000000000000000000073ffffffffffffffffffffffffffffffffffffffff16346040516106269061316f565b60006040518083038185875af1925050503d8060008114610663576040519150601f19603f3d011682016040523d82523d6000602084013e610668565b606091505b50509050806106a3576040517fe6404cae00000000000000000000000000000000000000000000000000000000815260040160405180910390fd5b600560007f000000000000000000000000000000000000000000000000000000000000000073ffffffffffffffffffffffffffffffffffffffff1673ffffffffffffffffffffffffffffffffffffffff1681526020019081526020016000206000815480929190610713906131b3565b9190505550505b6002810361085c5760007f000000000000000000000000000000000000000000000000000000000000000073ffffffffffffffffffffffffffffffffffffffff16346040516107689061316f565b60006040518083038185875af1925050503d80600081146107a5576040519150601f19603f3d011682016040523d82523d6000602084013e6107aa565b606091505b50509050806107e5576040517fe6404cae00000000000000000000000000000000000000000000000000000000815260040160405180910390fd5b600560007f000000000000000000000000000000000000000000000000000000000000000073ffffffffffffffffffffffffffffffffffffffff1673ffffffffffffffffffffffffffffffffffffffff1681526020019081526020016000206000815480929190610855906131b3565b9190505550505b6003810361099e5760007f000000000000000000000000000000000000000000000000000000000000000073ffffffffffffffffffffffffffffffffffffffff16346040516108aa9061316f565b60006040518083038185875af1925050503d80600081146108e7576040519150601f19603f3d011682016040523d82523d6000602084013e6108ec565b606091505b5050905080610927576040517fe6404cae00000000000000000000000000000000000000000000000000000000815260040160405180910390fd5b600560007f000000000000000000000000000000000000000000000000000000000000000073ffffffffffffffffffffffffffffffffffffffff1673ffffffffffffffffffffffffffffffffffffffff1681526020019081526020016000206000815480929190610997906131b3565b9190505550505b6003339080600181540180825580915050600190039060005260206000200160009091909190916101000a81548173ffffffffffffffffffffffffffffffffffffffff021916908373ffffffffffffffffffffffffffffffffffffffff1602179055503373ffffffffffffffffffffffffffffffffffffffff167f0805e1d667bddb8a95f0f09880cf94f403fb596ce79928d9f29b74203ba284d460405160405180910390a250565b6000610a6160405180602001604052806000815250610df8565b50905080610ad05747600380549050600460009054906101000a900460ff166002811115610a9257610a91612aac565b5b6040517f584327aa000000000000000000000000000000000000000000000000000000008152600401610ac7939291906131fb565b60405180910390fd5b6001600460006101000a81548160ff02191690836002811115610af657610af5612aac565b5b021790555060007f000000000000000000000000000000000000000000000000000000000000000073ffffffffffffffffffffffffffffffffffffffff16635d3b1d307f00000000000000000000000000000000000000000000000000000000000000007f000000000000000000000000000000000000000000000000000000000000000060037f000000000000000000000000000000000000000000000000000000000000000060046040518663ffffffff1660e01b8152600401610bc09594939291906132aa565b6020604051808303816000875af1158015610bdf573d6000803e3d6000fd5b505050506040513d601f19601f82011682018060405250810190610c039190613312565b9050807fcd6e45c8998311cab7e9d4385596cac867e20a0587194b954fa3a731c93ce78b60405160405180910390a250505050565b6000600160009054906101000a900473ffffffffffffffffffffffffffffffffffffffff16905090565b60607f000000000000000000000000000000000000000000000000000000000000000081600081518110610c9957610c9861333f565b5b602002602001019073ffffffffffffffffffffffffffffffffffffffff16908173ffffffffffffffffffffffffffffffffffffffff16815250507f000000000000000000000000000000000000000000000000000000000000000081600181518110610d0857610d0761333f565b5b602002602001019073ffffffffffffffffffffffffffffffffffffffff16908173ffffffffffffffffffffffffffffffffffffffff16815250507f000000000000000000000000000000000000000000000000000000000000000081600281518110610d7757610d7661333f565b5b602002602001019073ffffffffffffffffffffffffffffffffffffffff16908173ffffffffffffffffffffffffffffffffffffffff168152505090565b6000600463ffffffff16905090565b6000600361ffff16905090565b60007f0000000000000000000000000000000000000000000000000000000000000000905090565b600060606000600460009054906101000a900460ff166002811115610e2057610e1f612aac565b5b60006002811115610e3457610e33612aac565b5b14905060008060038054905011905060008047119050828015610e545750805b8015610e5d5750815b9450505050915091565b6000600260009054906101000a900473ffffffffffffffffffffffffffffffffffffffff16905090565b60007f0000000000000000000000000000000000000000000000000000000000000000905090565b600280811115610ecc57610ecb612aac565b5b600460009054906101000a900460ff166002811115610eee57610eed612aac565b5b14610f25576040517fb72e987200000000000000000000000000000000000000000000000000000000815260040160405180910390fd5b7f000000000000000000000000000000000000000000000000000000000000000073ffffffffffffffffffffffffffffffffffffffff163373ffffffffffffffffffffffffffffffffffffffff1614610faa576040517f45c2f16000000000000000000000000000000000000000000000000000000000815260040160405180910390fd5b600080549050600080819055506000600260009054906101000a900473ffffffffffffffffffffffffffffffffffffffff1690506000600260006101000a81548173ffffffffffffffffffffffffffffffffffffffff021916908373ffffffffffffffffffffffffffffffffffffffff16021790555060003073ffffffffffffffffffffffffffffffffffffffff167f000000000000000000000000000000000000000000000000000000000000000084611065919061336e565b6040516110719061316f565b60006040518083038185875af1925050503d80600081146110ae576040519150601f19603f3d011682016040523d82523d6000602084013e6110b3565b606091505b50509050806110ee576040517f46fe09f000000000000000000000000000000000000000000000000000000000815260040160405180910390fd5b60008273ffffffffffffffffffffffffffffffffffffffff16476040516111149061316f565b60006040518083038185875af1925050503d8060008114611151576040519150601f19603f3d011682016040523d82523d6000602084013e611156565b606091505b5050905080611191576040517f1333617400000000000000000000000000000000000000000000000000000000815260040160405180910390fd5b50505050565b6000600382815481106111ad576111ac61333f565b5b9060005260206000200160009054906101000a900473ffffffffffffffffffffffffffffffffffffffff169050919050565b6060600380548060200260200160405190810160405280929190818152602001828054801561126357602002820191906000526020600020905b8160009054906101000a900473ffffffffffffffffffffffffffffffffffffffff1673ffffffffffffffffffffffffffffffffffffffff1681526020019060010190808311611219575b5050505050905090565b60008054905090565b6000600380549050905090565b60006003805490508260008151811061129f5761129e61333f565b5b60200260200101516112b191906133f7565b90506000600382815481106112c9576112c861333f565b5b9060005260206000200160009054906101000a900473ffffffffffffffffffffffffffffffffffffffff16905080600160006101000a81548173ffffffffffffffffffffffffffffffffffffffff021916908373ffffffffffffffffffffffffffffffffffffffff160217905550600067ffffffffffffffff81111561135257611351612b94565b5b6040519080825280602002602001820160405280156113805781602001602082028036833780820191505090505b50600390805190602001906113969291906129d1565b506002600460006101000a81548160ff021916908360028111156113bd576113bc612aac565b5b021790555060008173ffffffffffffffffffffffffffffffffffffffff16476040516113e89061316f565b60006040518083038185875af1925050503d8060008114611425576040519150601f19603f3d011682016040523d82523d6000602084013e61142a565b606091505b5050905080611465576040517fb76d7ea600000000000000000000000000000000000000000000000000000000815260040160405180910390fd5b600061146f6125b3565b90506000600560007f000000000000000000000000000000000000000000000000000000000000000073ffffffffffffffffffffffffffffffffffffffff1673ffffffffffffffffffffffffffffffffffffffff1681526020019081526020016000205490506000600560007f000000000000000000000000000000000000000000000000000000000000000073ffffffffffffffffffffffffffffffffffffffff1673ffffffffffffffffffffffffffffffffffffffff168152602001908152602001600020819055506000600560007f000000000000000000000000000000000000000000000000000000000000000073ffffffffffffffffffffffffffffffffffffffff1673ffffffffffffffffffffffffffffffffffffffff1681526020019081526020016000205490506000600560007f000000000000000000000000000000000000000000000000000000000000000073ffffffffffffffffffffffffffffffffffffffff1673ffffffffffffffffffffffffffffffffffffffff168152602001908152602001600020819055506000600560007f000000000000000000000000000000000000000000000000000000000000000073ffffffffffffffffffffffffffffffffffffffff1673ffffffffffffffffffffffffffffffffffffffff1681526020019081526020016000205490506000600560007f000000000000000000000000000000000000000000000000000000000000000073ffffffffffffffffffffffffffffffffffffffff1673ffffffffffffffffffffffffffffffffffffffff168152602001908152602001600020819055506000600367ffffffffffffffff8111156116e9576116e8612b94565b5b6040519080825280602002602001820160405280156117175781602001602082028036833780820191505090505b509050838160008151811061172f5761172e61333f565b5b60200260200101818152505082816001815181106117505761174f61333f565b5b60200260200101818152505081816002815181106117715761177061333f565b5b602002602001018181525050600061178882612813565b905085156122c557838514801561179e57508285145b15611ba357896001815181106117b7576117b661333f565b5b6020026020010151856117ca9190613428565b9450896002815181106117e0576117df61333f565b5b6020026020010151846117f39190613428565b9350896003815181106118095761180861333f565b5b60200260200101518361181c9190613428565b9250896001815181106118325761183161333f565b5b602002602001015185611845919061347e565b6000819055506000600367ffffffffffffffff81111561186857611867612b94565b5b6040519080825280602002602001820160405280156118965781602001602082028036833780820191505090505b50905085816000815181106118ae576118ad61333f565b5b60200260200101818152505084816001815181106118cf576118ce61333f565b5b60200260200101818152505083816002815181106118f0576118ef61333f565b5b602002602001018181525050600061190782612813565b9050868160028151811061191e5761191d61333f565b5b6020026020010151036119f0577f0000000000000000000000000000000000000000000000000000000000000000600260006101000a81548173ffffffffffffffffffffffffffffffffffffffff021916908373ffffffffffffffffffffffffffffffffffffffff1602179055507f000000000000000000000000000000000000000000000000000000000000000073ffffffffffffffffffffffffffffffffffffffff167f3c87360dce5c6f26147daf6a9e168e80a4c7199e9aa7cbd7a874094804c361b460405160405180910390a25b8581600281518110611a0557611a0461333f565b5b602002602001015103611adb577f0000000000000000000000000000000000000000000000000000000000000000600260006101000a81548173ffffffffffffffffffffffffffffffffffffffff021916908373ffffffffffffffffffffffffffffffffffffffff1602179055507f000000000000000000000000000000000000000000000000000000000000000073ffffffffffffffffffffffffffffffffffffffff167f3c87360dce5c6f26147daf6a9e168e80a4c7199e9aa7cbd7a874094804c361b460405160405180910390a2611ba0565b7f0000000000000000000000000000000000000000000000000000000000000000600260006101000a81548173ffffffffffffffffffffffffffffffffffffffff021916908373ffffffffffffffffffffffffffffffffffffffff1602179055507f000000000000000000000000000000000000000000000000000000000000000073ffffffffffffffffffffffffffffffffffffffff167f3c87360dce5c6f26147daf6a9e168e80a4c7199e9aa7cbd7a874094804c361b460405160405180910390a25b50505b8481600281518110611bb857611bb761333f565b5b6020026020010151148015611be757508381600281518110611bdd57611bdc61333f565b5b6020026020010151145b15611e025789600181518110611c0057611bff61333f565b5b602002602001015185611c139190613428565b945089600281518110611c2957611c2861333f565b5b602002602001015184611c3c9190613428565b935089600181518110611c5257611c5161333f565b5b602002602001015185611c65919061347e565b60008190555083851115611d3c577f0000000000000000000000000000000000000000000000000000000000000000600260006101000a81548173ffffffffffffffffffffffffffffffffffffffff021916908373ffffffffffffffffffffffffffffffffffffffff1602179055507f000000000000000000000000000000000000000000000000000000000000000073ffffffffffffffffffffffffffffffffffffffff167f3c87360dce5c6f26147daf6a9e168e80a4c7199e9aa7cbd7a874094804c361b460405160405180910390a2611e01565b7f0000000000000000000000000000000000000000000000000000000000000000600260006101000a81548173ffffffffffffffffffffffffffffffffffffffff021916908373ffffffffffffffffffffffffffffffffffffffff1602179055507f000000000000000000000000000000000000000000000000000000000000000073ffffffffffffffffffffffffffffffffffffffff167f3c87360dce5c6f26147daf6a9e168e80a4c7199e9aa7cbd7a874094804c361b460405160405180910390a25b5b8481600281518110611e1757611e1661333f565b5b6020026020010151148015611e4657508281600281518110611e3c57611e3b61333f565b5b6020026020010151145b156120615789600181518110611e5f57611e5e61333f565b5b602002602001015185611e729190613428565b945089600281518110611e8857611e8761333f565b5b602002602001015183611e9b9190613428565b925089600181518110611eb157611eb061333f565b5b602002602001015185611ec4919061347e565b60008190555082851115611f9b577f0000000000000000000000000000000000000000000000000000000000000000600260006101000a81548173ffffffffffffffffffffffffffffffffffffffff021916908373ffffffffffffffffffffffffffffffffffffffff1602179055507f000000000000000000000000000000000000000000000000000000000000000073ffffffffffffffffffffffffffffffffffffffff167f3c87360dce5c6f26147daf6a9e168e80a4c7199e9aa7cbd7a874094804c361b460405160405180910390a2612060565b7f0000000000000000000000000000000000000000000000000000000000000000600260006101000a81548173ffffffffffffffffffffffffffffffffffffffff021916908373ffffffffffffffffffffffffffffffffffffffff1602179055507f000000000000000000000000000000000000000000000000000000000000000073ffffffffffffffffffffffffffffffffffffffff167f3c87360dce5c6f26147daf6a9e168e80a4c7199e9aa7cbd7a874094804c361b460405160405180910390a25b5b83816002815181106120765761207561333f565b5b60200260200101511480156120a55750828160028151811061209b5761209a61333f565b5b6020026020010151145b156122c057896001815181106120be576120bd61333f565b5b6020026020010151846120d19190613428565b9350896002815181106120e7576120e661333f565b5b6020026020010151836120fa9190613428565b9250896001815181106121105761210f61333f565b5b602002602001015184612123919061347e565b600081905550828411156121fa577f0000000000000000000000000000000000000000000000000000000000000000600260006101000a81548173ffffffffffffffffffffffffffffffffffffffff021916908373ffffffffffffffffffffffffffffffffffffffff1602179055507f000000000000000000000000000000000000000000000000000000000000000073ffffffffffffffffffffffffffffffffffffffff167f3c87360dce5c6f26147daf6a9e168e80a4c7199e9aa7cbd7a874094804c361b460405160405180910390a26122bf565b7f0000000000000000000000000000000000000000000000000000000000000000600260006101000a81548173ffffffffffffffffffffffffffffffffffffffff021916908373ffffffffffffffffffffffffffffffffffffffff1602179055507f000000000000000000000000000000000000000000000000000000000000000073ffffffffffffffffffffffffffffffffffffffff167f3c87360dce5c6f26147daf6a9e168e80a4c7199e9aa7cbd7a874094804c361b460405160405180910390a25b5b612563565b83851180156122d357508285115b156123a457846000819055507f0000000000000000000000000000000000000000000000000000000000000000600260006101000a81548173ffffffffffffffffffffffffffffffffffffffff021916908373ffffffffffffffffffffffffffffffffffffffff1602179055507f000000000000000000000000000000000000000000000000000000000000000073ffffffffffffffffffffffffffffffffffffffff167f3c87360dce5c6f26147daf6a9e168e80a4c7199e9aa7cbd7a874094804c361b460405160405180910390a25b84841180156123b257508284115b1561248357836000819055507f0000000000000000000000000000000000000000000000000000000000000000600260006101000a81548173ffffffffffffffffffffffffffffffffffffffff021916908373ffffffffffffffffffffffffffffffffffffffff1602179055507f000000000000000000000000000000000000000000000000000000000000000073ffffffffffffffffffffffffffffffffffffffff167f3c87360dce5c6f26147daf6a9e168e80a4c7199e9aa7cbd7a874094804c361b460405160405180910390a25b848311801561249157508383115b1561256257826000819055507f0000000000000000000000000000000000000000000000000000000000000000600260006101000a81548173ffffffffffffffffffffffffffffffffffffffff021916908373ffffffffffffffffffffffffffffffffffffffff1602179055507f000000000000000000000000000000000000000000000000000000000000000073ffffffffffffffffffffffffffffffffffffffff167f3c87360dce5c6f26147daf6a9e168e80a4c7199e9aa7cbd7a874094804c361b460405160405180910390a25b5b8773ffffffffffffffffffffffffffffffffffffffff167f5b690ec4a06fe979403046eaeea5b3ce38524683c3001f662c8b5a829632f7df60405160405180910390a25050505050505050505050565b6000600560007f000000000000000000000000000000000000000000000000000000000000000073ffffffffffffffffffffffffffffffffffffffff1673ffffffffffffffffffffffffffffffffffffffff16815260200190815260200160002054600560007f000000000000000000000000000000000000000000000000000000000000000073ffffffffffffffffffffffffffffffffffffffff1673ffffffffffffffffffffffffffffffffffffffff16815260200190815260200160002054148061273e5750600560007f000000000000000000000000000000000000000000000000000000000000000073ffffffffffffffffffffffffffffffffffffffff1673ffffffffffffffffffffffffffffffffffffffff16815260200190815260200160002054600560007f000000000000000000000000000000000000000000000000000000000000000073ffffffffffffffffffffffffffffffffffffffff1673ffffffffffffffffffffffffffffffffffffffff16815260200190815260200160002054145b806128065750600560007f000000000000000000000000000000000000000000000000000000000000000073ffffffffffffffffffffffffffffffffffffffff1673ffffffffffffffffffffffffffffffffffffffff16815260200190815260200160002054600560007f000000000000000000000000000000000000000000000000000000000000000073ffffffffffffffffffffffffffffffffffffffff1673ffffffffffffffffffffffffffffffffffffffff16815260200190815260200160002054145b1561281057600190505b90565b606061282e82600060018551612829919061347e565b612836565b819050919050565b6000829050600082905080820361284e5750506129cc565b6000856002868661285f91906134bc565b6128699190613550565b8661287491906135ba565b815181106128855761288461333f565b5b602002602001015190505b8183136129a0575b808684815181106128ac576128ab61333f565b5b602002602001015110156128cd5782806128c59061364e565b935050612898565b5b8582815181106128e1576128e061333f565b5b60200260200101518110156129035781806128fb90613696565b9250506128ce565b81831361299b5785828151811061291d5761291c61333f565b5b60200260200101518684815181106129385761293761333f565b5b60200260200101518785815181106129535761295261333f565b5b6020026020010188858151811061296d5761296c61333f565b5b602002602001018281525082815250505082806129899061364e565b935050818061299790613696565b9250505b612890565b818512156129b4576129b3868684612836565b5b838312156129c8576129c7868486612836565b5b5050505b505050565b828054828255906000526020600020908101928215612a4a579160200282015b82811115612a495782518260006101000a81548173ffffffffffffffffffffffffffffffffffffffff021916908373ffffffffffffffffffffffffffffffffffffffff160217905550916020019190600101906129f1565b5b509050612a579190612a5b565b5090565b5b80821115612a74576000816000905550600101612a5c565b5090565b6000819050919050565b612a8b81612a78565b82525050565b6000602082019050612aa66000830184612a82565b92915050565b7f4e487b7100000000000000000000000000000000000000000000000000000000600052602160045260246000fd5b60038110612aec57612aeb612aac565b5b50565b6000819050612afd82612adb565b919050565b6000612b0d82612aef565b9050919050565b612b1d81612b02565b82525050565b6000602082019050612b386000830184612b14565b92915050565b6000604051905090565b600080fd5b600080fd5b612b5b81612a78565b8114612b6657600080fd5b50565b600081359050612b7881612b52565b92915050565b600080fd5b6000601f19601f8301169050919050565b7f4e487b7100000000000000000000000000000000000000000000000000000000600052604160045260246000fd5b612bcc82612b83565b810181811067ffffffffffffffff82111715612beb57612bea612b94565b5b80604052505050565b6000612bfe612b3e565b9050612c0a8282612bc3565b919050565b600067ffffffffffffffff821115612c2a57612c29612b94565b5b602082029050602081019050919050565b600080fd5b6000612c53612c4e84612c0f565b612bf4565b90508083825260208201905060208402830185811115612c7657612c75612c3b565b5b835b81811015612c9f5780612c8b8882612b69565b845260208401935050602081019050612c78565b5050509392505050565b600082601f830112612cbe57612cbd612b7e565b5b8135612cce848260208601612c40565b91505092915050565b60008060408385031215612cee57612ced612b48565b5b6000612cfc85828601612b69565b925050602083013567ffffffffffffffff811115612d1d57612d1c612b4d565b5b612d2985828601612ca9565b9150509250929050565b600060208284031215612d4957612d48612b48565b5b6000612d5784828501612b69565b91505092915050565b600080fd5b60008083601f840112612d7b57612d7a612b7e565b5b8235905067ffffffffffffffff811115612d9857612d97612d60565b5b602083019150836001820283011115612db457612db3612c3b565b5b9250929050565b60008060208385031215612dd257612dd1612b48565b5b600083013567ffffffffffffffff811115612df057612def612b4d565b5b612dfc85828601612d65565b92509250509250929050565b600073ffffffffffffffffffffffffffffffffffffffff82169050919050565b6000612e3382612e08565b9050919050565b612e4381612e28565b82525050565b6000602082019050612e5e6000830184612e3a565b92915050565b600081519050919050565b600082825260208201905092915050565b6000819050602082019050919050565b612e9981612e28565b82525050565b6000612eab8383612e90565b60208301905092915050565b6000602082019050919050565b6000612ecf82612e64565b612ed98185612e6f565b9350612ee483612e80565b8060005b83811015612f15578151612efc8882612e9f565b9750612f0783612eb7565b925050600181019050612ee8565b5085935050505092915050565b60006020820190508181036000830152612f3c8184612ec4565b905092915050565b600080fd5b600067ffffffffffffffff821115612f6457612f63612b94565b5b612f6d82612b83565b9050602081019050919050565b82818337600083830152505050565b6000612f9c612f9784612f49565b612bf4565b905082815260208101848484011115612fb857612fb7612f44565b5b612fc3848285612f7a565b509392505050565b600082601f830112612fe057612fdf612b7e565b5b8135612ff0848260208601612f89565b91505092915050565b60006020828403121561300f5761300e612b48565b5b600082013567ffffffffffffffff81111561302d5761302c612b4d565b5b61303984828501612fcb565b91505092915050565b60008115159050919050565b61305781613042565b82525050565b600081519050919050565b600082825260208201905092915050565b60005b8381101561309757808201518184015260208101905061307c565b838111156130a6576000848401525b50505050565b60006130b78261305d565b6130c18185613068565b93506130d1818560208601613079565b6130da81612b83565b840191505092915050565b60006040820190506130fa600083018561304e565b818103602083015261310c81846130ac565b90509392505050565b600060408201905061312a6000830185612e3a565b6131376020830184612e3a565b9392505050565b600081905092915050565b50565b600061315960008361313e565b915061316482613149565b600082019050919050565b600061317a8261314c565b9150819050919050565b7f4e487b7100000000000000000000000000000000000000000000000000000000600052601160045260246000fd5b60006131be82612a78565b91507fffffffffffffffffffffffffffffffffffffffffffffffffffffffffffffffff82036131f0576131ef613184565b5b600182019050919050565b60006060820190506132106000830186612a82565b61321d6020830185612a82565b61322a6040830184612a82565b949350505050565b6000819050919050565b61324581613232565b82525050565b600067ffffffffffffffff82169050919050565b6132688161324b565b82525050565b600061ffff82169050919050565b6132858161326e565b82525050565b600063ffffffff82169050919050565b6132a48161328b565b82525050565b600060a0820190506132bf600083018861323c565b6132cc602083018761325f565b6132d9604083018661327c565b6132e6606083018561329b565b6132f3608083018461329b565b9695505050505050565b60008151905061330c81612b52565b92915050565b60006020828403121561332857613327612b48565b5b6000613336848285016132fd565b91505092915050565b7f4e487b7100000000000000000000000000000000000000000000000000000000600052603260045260246000fd5b600061337982612a78565b915061338483612a78565b9250817fffffffffffffffffffffffffffffffffffffffffffffffffffffffffffffffff04831182151516156133bd576133bc613184565b5b828202905092915050565b7f4e487b7100000000000000000000000000000000000000000000000000000000600052601260045260246000fd5b600061340282612a78565b915061340d83612a78565b92508261341d5761341c6133c8565b5b828206905092915050565b600061343382612a78565b915061343e83612a78565b9250827fffffffffffffffffffffffffffffffffffffffffffffffffffffffffffffffff0382111561347357613472613184565b5b828201905092915050565b600061348982612a78565b915061349483612a78565b9250828210156134a7576134a6613184565b5b828203905092915050565b6000819050919050565b60006134c7826134b2565b91506134d2836134b2565b9250827f80000000000000000000000000000000000000000000000000000000000000000182126000841215161561350d5761350c613184565b5b827f7fffffffffffffffffffffffffffffffffffffffffffffffffffffffffffffff01821360008412161561354557613544613184565b5b828203905092915050565b600061355b826134b2565b9150613566836134b2565b925082613576576135756133c8565b5b600160000383147f8000000000000000000000000000000000000000000000000000000000000000831416156135af576135ae613184565b5b828205905092915050565b60006135c5826134b2565b91506135d0836134b2565b9250817f7fffffffffffffffffffffffffffffffffffffffffffffffffffffffffffffff0383136000831215161561360b5761360a613184565b5b817f800000000000000000000000000000000000000000000000000000000000000003831260008312161561364357613642613184565b5b828201905092915050565b6000613659826134b2565b91507f7fffffffffffffffffffffffffffffffffffffffffffffffffffffffffffffff820361368b5761368a613184565b5b600182019050919050565b60006136a1826134b2565b91507f800000000000000000000000000000000000000000000000000000000000000082036136d3576136d2613184565b5b60018203905091905056fea264697066735822122034300e0b354d6ef0aa41263870cc364edd734f2a569eae91adf20422b9899f4664736f6c634300080e0033",
			"opcodes": "PUSH2 0x1E0 PUSH1 0x40 MSTORE CALLVALUE DUP1 ISZERO PUSH3 0x12 JUMPI PUSH1 0x0 DUP1 REVERT JUMPDEST POP PUSH1 0x40 MLOAD PUSH3 0x3E5C CODESIZE SUB DUP1 PUSH3 0x3E5C DUP4 CODECOPY DUP2 DUP2 ADD PUSH1 0x40 MSTORE DUP2 ADD SWAP1 PUSH3 0x38 SWAP2 SWAP1 PUSH3 0x40E JUMP JUMPDEST DUP10 DUP1 PUSH20 0xFFFFFFFFFFFFFFFFFFFFFFFFFFFFFFFFFFFFFFFF AND PUSH1 0x80 DUP2 PUSH20 0xFFFFFFFFFFFFFFFFFFFFFFFFFFFFFFFFFFFFFFFF AND DUP2 MSTORE POP POP POP DUP10 PUSH20 0xFFFFFFFFFFFFFFFFFFFFFFFFFFFFFFFFFFFFFFFF AND PUSH1 0xA0 DUP2 PUSH20 0xFFFFFFFFFFFFFFFFFFFFFFFFFFFFFFFFFFFFFFFF AND DUP2 MSTORE POP POP DUP8 PUSH2 0x100 DUP2 DUP2 MSTORE POP POP DUP9 PUSH8 0xFFFFFFFFFFFFFFFF AND PUSH1 0xE0 DUP2 PUSH8 0xFFFFFFFFFFFFFFFF AND DUP2 MSTORE POP POP DUP7 PUSH2 0x120 DUP2 DUP2 MSTORE POP POP DUP6 PUSH2 0x140 DUP2 DUP2 MSTORE POP POP PUSH1 0x0 PUSH1 0x4 PUSH1 0x0 PUSH2 0x100 EXP DUP2 SLOAD DUP2 PUSH1 0xFF MUL NOT AND SWAP1 DUP4 PUSH1 0x2 DUP2 GT ISZERO PUSH3 0x102 JUMPI PUSH3 0x101 PUSH3 0x504 JUMP JUMPDEST JUMPDEST MUL OR SWAP1 SSTORE POP DUP5 PUSH4 0xFFFFFFFF AND PUSH1 0xC0 DUP2 PUSH4 0xFFFFFFFF AND DUP2 MSTORE POP POP DUP4 PUSH20 0xFFFFFFFFFFFFFFFFFFFFFFFFFFFFFFFFFFFFFFFF AND PUSH2 0x160 DUP2 PUSH20 0xFFFFFFFFFFFFFFFFFFFFFFFFFFFFFFFFFFFFFFFF AND DUP2 MSTORE POP POP DUP3 PUSH20 0xFFFFFFFFFFFFFFFFFFFFFFFFFFFFFFFFFFFFFFFF AND PUSH2 0x180 DUP2 PUSH20 0xFFFFFFFFFFFFFFFFFFFFFFFFFFFFFFFFFFFFFFFF AND DUP2 MSTORE POP POP DUP2 PUSH20 0xFFFFFFFFFFFFFFFFFFFFFFFFFFFFFFFFFFFFFFFF AND PUSH2 0x1A0 DUP2 PUSH20 0xFFFFFFFFFFFFFFFFFFFFFFFFFFFFFFFFFFFFFFFF AND DUP2 MSTORE POP POP DUP1 PUSH20 0xFFFFFFFFFFFFFFFFFFFFFFFFFFFFFFFFFFFFFFFF AND PUSH2 0x1C0 DUP2 PUSH20 0xFFFFFFFFFFFFFFFFFFFFFFFFFFFFFFFFFFFFFFFF AND DUP2 MSTORE POP POP PUSH1 0x0 ADDRESS PUSH20 0xFFFFFFFFFFFFFFFFFFFFFFFFFFFFFFFFFFFFFFFF AND DUP8 PUSH1 0x40 MLOAD PUSH3 0x217 SWAP1 PUSH3 0x568 JUMP JUMPDEST PUSH1 0x0 PUSH1 0x40 MLOAD DUP1 DUP4 SUB DUP2 DUP6 DUP8 GAS CALL SWAP3 POP POP POP RETURNDATASIZE DUP1 PUSH1 0x0 DUP2 EQ PUSH3 0x256 JUMPI PUSH1 0x40 MLOAD SWAP2 POP PUSH1 0x1F NOT PUSH1 0x3F RETURNDATASIZE ADD AND DUP3 ADD PUSH1 0x40 MSTORE RETURNDATASIZE DUP3 MSTORE RETURNDATASIZE PUSH1 0x0 PUSH1 0x20 DUP5 ADD RETURNDATACOPY PUSH3 0x25B JUMP JUMPDEST PUSH1 0x60 SWAP2 POP JUMPDEST POP POP SWAP1 POP DUP1 PUSH3 0x297 JUMPI PUSH1 0x40 MLOAD PUSH32 0x39487B2A00000000000000000000000000000000000000000000000000000000 DUP2 MSTORE PUSH1 0x4 ADD PUSH1 0x40 MLOAD DUP1 SWAP2 SUB SWAP1 REVERT JUMPDEST POP POP POP POP POP POP POP POP POP POP POP PUSH3 0x57F JUMP JUMPDEST PUSH1 0x0 DUP1 REVERT JUMPDEST PUSH1 0x0 PUSH20 0xFFFFFFFFFFFFFFFFFFFFFFFFFFFFFFFFFFFFFFFF DUP3 AND SWAP1 POP SWAP2 SWAP1 POP JUMP JUMPDEST PUSH1 0x0 PUSH3 0x2DA DUP3 PUSH3 0x2AD JUMP JUMPDEST SWAP1 POP SWAP2 SWAP1 POP JUMP JUMPDEST PUSH3 0x2EC DUP2 PUSH3 0x2CD JUMP JUMPDEST DUP2 EQ PUSH3 0x2F8 JUMPI PUSH1 0x0 DUP1 REVERT JUMPDEST POP JUMP JUMPDEST PUSH1 0x0 DUP2 MLOAD SWAP1 POP PUSH3 0x30C DUP2 PUSH3 0x2E1 JUMP JUMPDEST SWAP3 SWAP2 POP POP JUMP JUMPDEST PUSH1 0x0 PUSH8 0xFFFFFFFFFFFFFFFF DUP3 AND SWAP1 POP SWAP2 SWAP1 POP JUMP JUMPDEST PUSH3 0x331 DUP2 PUSH3 0x312 JUMP JUMPDEST DUP2 EQ PUSH3 0x33D JUMPI PUSH1 0x0 DUP1 REVERT JUMPDEST POP JUMP JUMPDEST PUSH1 0x0 DUP2 MLOAD SWAP1 POP PUSH3 0x351 DUP2 PUSH3 0x326 JUMP JUMPDEST SWAP3 SWAP2 POP POP JUMP JUMPDEST PUSH1 0x0 DUP2 SWAP1 POP SWAP2 SWAP1 POP JUMP JUMPDEST PUSH3 0x36C DUP2 PUSH3 0x357 JUMP JUMPDEST DUP2 EQ PUSH3 0x378 JUMPI PUSH1 0x0 DUP1 REVERT JUMPDEST POP JUMP JUMPDEST PUSH1 0x0 DUP2 MLOAD SWAP1 POP PUSH3 0x38C DUP2 PUSH3 0x361 JUMP JUMPDEST SWAP3 SWAP2 POP POP JUMP JUMPDEST PUSH1 0x0 DUP2 SWAP1 POP SWAP2 SWAP1 POP JUMP JUMPDEST PUSH3 0x3A7 DUP2 PUSH3 0x392 JUMP JUMPDEST DUP2 EQ PUSH3 0x3B3 JUMPI PUSH1 0x0 DUP1 REVERT JUMPDEST POP JUMP JUMPDEST PUSH1 0x0 DUP2 MLOAD SWAP1 POP PUSH3 0x3C7 DUP2 PUSH3 0x39C JUMP JUMPDEST SWAP3 SWAP2 POP POP JUMP JUMPDEST PUSH1 0x0 PUSH4 0xFFFFFFFF DUP3 AND SWAP1 POP SWAP2 SWAP1 POP JUMP JUMPDEST PUSH3 0x3E8 DUP2 PUSH3 0x3CD JUMP JUMPDEST DUP2 EQ PUSH3 0x3F4 JUMPI PUSH1 0x0 DUP1 REVERT JUMPDEST POP JUMP JUMPDEST PUSH1 0x0 DUP2 MLOAD SWAP1 POP PUSH3 0x408 DUP2 PUSH3 0x3DD JUMP JUMPDEST SWAP3 SWAP2 POP POP JUMP JUMPDEST PUSH1 0x0 DUP1 PUSH1 0x0 DUP1 PUSH1 0x0 DUP1 PUSH1 0x0 DUP1 PUSH1 0x0 DUP1 PUSH2 0x140 DUP12 DUP14 SUB SLT ISZERO PUSH3 0x435 JUMPI PUSH3 0x434 PUSH3 0x2A8 JUMP JUMPDEST JUMPDEST PUSH1 0x0 PUSH3 0x445 DUP14 DUP3 DUP15 ADD PUSH3 0x2FB JUMP JUMPDEST SWAP11 POP POP PUSH1 0x20 PUSH3 0x458 DUP14 DUP3 DUP15 ADD PUSH3 0x340 JUMP JUMPDEST SWAP10 POP POP PUSH1 0x40 PUSH3 0x46B DUP14 DUP3 DUP15 ADD PUSH3 0x37B JUMP JUMPDEST SWAP9 POP POP PUSH1 0x60 PUSH3 0x47E DUP14 DUP3 DUP15 ADD PUSH3 0x3B6 JUMP JUMPDEST SWAP8 POP POP PUSH1 0x80 PUSH3 0x491 DUP14 DUP3 DUP15 ADD PUSH3 0x3B6 JUMP JUMPDEST SWAP7 POP POP PUSH1 0xA0 PUSH3 0x4A4 DUP14 DUP3 DUP15 ADD PUSH3 0x3F7 JUMP JUMPDEST SWAP6 POP POP PUSH1 0xC0 PUSH3 0x4B7 DUP14 DUP3 DUP15 ADD PUSH3 0x2FB JUMP JUMPDEST SWAP5 POP POP PUSH1 0xE0 PUSH3 0x4CA DUP14 DUP3 DUP15 ADD PUSH3 0x2FB JUMP JUMPDEST SWAP4 POP POP PUSH2 0x100 PUSH3 0x4DE DUP14 DUP3 DUP15 ADD PUSH3 0x2FB JUMP JUMPDEST SWAP3 POP POP PUSH2 0x120 PUSH3 0x4F2 DUP14 DUP3 DUP15 ADD PUSH3 0x2FB JUMP JUMPDEST SWAP2 POP POP SWAP3 SWAP6 SWAP9 SWAP12 SWAP2 SWAP5 SWAP8 SWAP11 POP SWAP3 SWAP6 SWAP9 POP JUMP JUMPDEST PUSH32 0x4E487B7100000000000000000000000000000000000000000000000000000000 PUSH1 0x0 MSTORE PUSH1 0x21 PUSH1 0x4 MSTORE PUSH1 0x24 PUSH1 0x0 REVERT JUMPDEST PUSH1 0x0 DUP2 SWAP1 POP SWAP3 SWAP2 POP POP JUMP JUMPDEST POP JUMP JUMPDEST PUSH1 0x0 PUSH3 0x550 PUSH1 0x0 DUP4 PUSH3 0x533 JUMP JUMPDEST SWAP2 POP PUSH3 0x55D DUP3 PUSH3 0x53E JUMP JUMPDEST PUSH1 0x0 DUP3 ADD SWAP1 POP SWAP2 SWAP1 POP JUMP JUMPDEST PUSH1 0x0 PUSH3 0x575 DUP3 PUSH3 0x541 JUMP JUMPDEST SWAP2 POP DUP2 SWAP1 POP SWAP2 SWAP1 POP JUMP JUMPDEST PUSH1 0x80 MLOAD PUSH1 0xA0 MLOAD PUSH1 0xC0 MLOAD PUSH1 0xE0 MLOAD PUSH2 0x100 MLOAD PUSH2 0x120 MLOAD PUSH2 0x140 MLOAD PUSH2 0x160 MLOAD PUSH2 0x180 MLOAD PUSH2 0x1A0 MLOAD PUSH2 0x1C0 MLOAD PUSH2 0x3714 PUSH3 0x748 PUSH1 0x0 CODECOPY PUSH1 0x0 DUP2 DUP2 PUSH2 0xDD4 ADD MSTORE PUSH2 0xF27 ADD MSTORE PUSH1 0x0 DUP2 DUP2 PUSH2 0x868 ADD MSTORE DUP2 DUP2 PUSH2 0x92D ADD MSTORE DUP2 DUP2 PUSH2 0xD44 ADD MSTORE DUP2 DUP2 PUSH2 0x160B ADD MSTORE DUP2 DUP2 PUSH2 0x166F ADD MSTORE DUP2 DUP2 PUSH2 0x1ADD ADD MSTORE DUP2 DUP2 PUSH2 0x1B3E ADD MSTORE DUP2 DUP2 PUSH2 0x1F9D ADD MSTORE DUP2 DUP2 PUSH2 0x1FFE ADD MSTORE DUP2 DUP2 PUSH2 0x21FC ADD MSTORE DUP2 DUP2 PUSH2 0x225D ADD MSTORE DUP2 DUP2 PUSH2 0x249F ADD MSTORE DUP2 DUP2 PUSH2 0x2500 ADD MSTORE DUP2 DUP2 PUSH2 0x2682 ADD MSTORE PUSH2 0x274A ADD MSTORE PUSH1 0x0 DUP2 DUP2 PUSH2 0x726 ADD MSTORE DUP2 DUP2 PUSH2 0x7EB ADD MSTORE DUP2 DUP2 PUSH2 0xCD5 ADD MSTORE DUP2 DUP2 PUSH2 0x1542 ADD MSTORE DUP2 DUP2 PUSH2 0x15A6 ADD MSTORE DUP2 DUP2 PUSH2 0x1A14 ADD MSTORE DUP2 DUP2 PUSH2 0x1A75 ADD MSTORE DUP2 DUP2 PUSH2 0x1D3E ADD MSTORE DUP2 DUP2 PUSH2 0x1D9F ADD MSTORE DUP2 DUP2 PUSH2 0x2133 ADD MSTORE DUP2 DUP2 PUSH2 0x2194 ADD MSTORE DUP2 DUP2 PUSH2 0x23C0 ADD MSTORE DUP2 DUP2 PUSH2 0x2421 ADD MSTORE DUP2 DUP2 PUSH2 0x25BB ADD MSTORE PUSH2 0x27AA ADD MSTORE PUSH1 0x0 DUP2 DUP2 PUSH2 0x5E4 ADD MSTORE DUP2 DUP2 PUSH2 0x6A9 ADD MSTORE DUP2 DUP2 PUSH2 0xC66 ADD MSTORE DUP2 DUP2 PUSH2 0x1479 ADD MSTORE DUP2 DUP2 PUSH2 0x14DD ADD MSTORE DUP2 DUP2 PUSH2 0x192D ADD MSTORE DUP2 DUP2 PUSH2 0x198E ADD MSTORE DUP2 DUP2 PUSH2 0x1C75 ADD MSTORE DUP2 DUP2 PUSH2 0x1CD6 ADD MSTORE DUP2 DUP2 PUSH2 0x1ED4 ADD MSTORE DUP2 DUP2 PUSH2 0x1F35 ADD MSTORE DUP2 DUP2 PUSH2 0x22E1 ADD MSTORE DUP2 DUP2 PUSH2 0x2342 ADD MSTORE DUP2 DUP2 PUSH2 0x261B ADD MSTORE PUSH2 0x26E2 ADD MSTORE PUSH1 0x0 PUSH2 0xE95 ADD MSTORE PUSH1 0x0 DUP2 DUP2 PUSH2 0x416 ADD MSTORE DUP2 DUP2 PUSH2 0x513 ADD MSTORE PUSH2 0x103B ADD MSTORE PUSH1 0x0 PUSH2 0xB3B ADD MSTORE PUSH1 0x0 PUSH2 0xB5C ADD MSTORE PUSH1 0x0 PUSH2 0xB7F ADD MSTORE PUSH1 0x0 PUSH2 0xAFF ADD MSTORE PUSH1 0x0 DUP2 DUP2 PUSH2 0x453 ADD MSTORE PUSH2 0x4A7 ADD MSTORE PUSH2 0x3714 PUSH1 0x0 RETURN INVALID PUSH1 0x80 PUSH1 0x40 MSTORE PUSH1 0x4 CALLDATASIZE LT PUSH2 0x109 JUMPI PUSH1 0x0 CALLDATALOAD PUSH1 0xE0 SHR DUP1 PUSH4 0x6846AF76 GT PUSH2 0x95 JUMPI DUP1 PUSH4 0x93AA87F9 GT PUSH2 0x64 JUMPI DUP1 PUSH4 0x93AA87F9 EQ PUSH2 0x33D JUMPI DUP1 PUSH4 0xE55AE4E8 EQ PUSH2 0x354 JUMPI DUP1 PUSH4 0xEFA1C482 EQ PUSH2 0x391 JUMPI DUP1 PUSH4 0xF975CB39 EQ PUSH2 0x3BC JUMPI DUP1 PUSH4 0xFD6673F5 EQ PUSH2 0x3E7 JUMPI PUSH2 0x109 JUMP JUMPDEST DUP1 PUSH4 0x6846AF76 EQ PUSH2 0x27E JUMPI DUP1 PUSH4 0x6E04FF0D EQ PUSH2 0x2A9 JUMPI DUP1 PUSH4 0x855C289C EQ PUSH2 0x2E7 JUMPI DUP1 PUSH4 0x9329066C EQ PUSH2 0x312 JUMPI PUSH2 0x109 JUMP JUMPDEST DUP1 PUSH4 0x4585E33B GT PUSH2 0xDC JUMPI DUP1 PUSH4 0x4585E33B EQ PUSH2 0x1A9 JUMPI DUP1 PUSH4 0x473F1DDC EQ PUSH2 0x1D2 JUMPI DUP1 PUSH4 0x48112C6F EQ PUSH2 0x1FD JUMPI DUP1 PUSH4 0x53A2C19A EQ PUSH2 0x228 JUMPI DUP1 PUSH4 0x5F1B0FD8 EQ PUSH2 0x253 JUMPI PUSH2 0x109 JUMP JUMPDEST DUP1 PUSH4 0x9BC33A7 EQ PUSH2 0x10E JUMPI DUP1 PUSH4 0x115CBAF5 EQ PUSH2 0x139 JUMPI DUP1 PUSH4 0x1FE543E3 EQ PUSH2 0x164 JUMPI DUP1 PUSH4 0x2E519F90 EQ PUSH2 0x18D JUMPI JUMPDEST PUSH1 0x0 DUP1 REVERT JUMPDEST CALLVALUE DUP1 ISZERO PUSH2 0x11A JUMPI PUSH1 0x0 DUP1 REVERT JUMPDEST POP PUSH2 0x123 PUSH2 0x412 JUMP JUMPDEST PUSH1 0x40 MLOAD PUSH2 0x130 SWAP2 SWAP1 PUSH2 0x2A91 JUMP JUMPDEST PUSH1 0x40 MLOAD DUP1 SWAP2 SUB SWAP1 RETURN JUMPDEST CALLVALUE DUP1 ISZERO PUSH2 0x145 JUMPI PUSH1 0x0 DUP1 REVERT JUMPDEST POP PUSH2 0x14E PUSH2 0x43A JUMP JUMPDEST PUSH1 0x40 MLOAD PUSH2 0x15B SWAP2 SWAP1 PUSH2 0x2B23 JUMP JUMPDEST PUSH1 0x40 MLOAD DUP1 SWAP2 SUB SWAP1 RETURN JUMPDEST CALLVALUE DUP1 ISZERO PUSH2 0x170 JUMPI PUSH1 0x0 DUP1 REVERT JUMPDEST POP PUSH2 0x18B PUSH1 0x4 DUP1 CALLDATASIZE SUB DUP2 ADD SWAP1 PUSH2 0x186 SWAP2 SWAP1 PUSH2 0x2CD7 JUMP JUMPDEST PUSH2 0x451 JUMP JUMPDEST STOP JUMPDEST PUSH2 0x1A7 PUSH1 0x4 DUP1 CALLDATASIZE SUB DUP2 ADD SWAP1 PUSH2 0x1A2 SWAP2 SWAP1 PUSH2 0x2D33 JUMP JUMPDEST PUSH2 0x511 JUMP JUMPDEST STOP JUMPDEST CALLVALUE DUP1 ISZERO PUSH2 0x1B5 JUMPI PUSH1 0x0 DUP1 REVERT JUMPDEST POP PUSH2 0x1D0 PUSH1 0x4 DUP1 CALLDATASIZE SUB DUP2 ADD SWAP1 PUSH2 0x1CB SWAP2 SWAP1 PUSH2 0x2DBB JUMP JUMPDEST PUSH2 0xA47 JUMP JUMPDEST STOP JUMPDEST CALLVALUE DUP1 ISZERO PUSH2 0x1DE JUMPI PUSH1 0x0 DUP1 REVERT JUMPDEST POP PUSH2 0x1E7 PUSH2 0xC38 JUMP JUMPDEST PUSH1 0x40 MLOAD PUSH2 0x1F4 SWAP2 SWAP1 PUSH2 0x2E49 JUMP JUMPDEST PUSH1 0x40 MLOAD DUP1 SWAP2 SUB SWAP1 RETURN JUMPDEST CALLVALUE DUP1 ISZERO PUSH2 0x209 JUMPI PUSH1 0x0 DUP1 REVERT JUMPDEST POP PUSH2 0x212 PUSH2 0xC62 JUMP JUMPDEST PUSH1 0x40 MLOAD PUSH2 0x21F SWAP2 SWAP1 PUSH2 0x2F22 JUMP JUMPDEST PUSH1 0x40 MLOAD DUP1 SWAP2 SUB SWAP1 RETURN JUMPDEST CALLVALUE DUP1 ISZERO PUSH2 0x234 JUMPI PUSH1 0x0 DUP1 REVERT JUMPDEST POP PUSH2 0x23D PUSH2 0xDB4 JUMP JUMPDEST PUSH1 0x40 MLOAD PUSH2 0x24A SWAP2 SWAP1 PUSH2 0x2A91 JUMP JUMPDEST PUSH1 0x40 MLOAD DUP1 SWAP2 SUB SWAP1 RETURN JUMPDEST CALLVALUE DUP1 ISZERO PUSH2 0x25F JUMPI PUSH1 0x0 DUP1 REVERT JUMPDEST POP PUSH2 0x268 PUSH2 0xDC3 JUMP JUMPDEST PUSH1 0x40 MLOAD PUSH2 0x275 SWAP2 SWAP1 PUSH2 0x2A91 JUMP JUMPDEST PUSH1 0x40 MLOAD DUP1 SWAP2 SUB SWAP1 RETURN JUMPDEST CALLVALUE DUP1 ISZERO PUSH2 0x28A JUMPI PUSH1 0x0 DUP1 REVERT JUMPDEST POP PUSH2 0x293 PUSH2 0xDD0 JUMP JUMPDEST PUSH1 0x40 MLOAD PUSH2 0x2A0 SWAP2 SWAP1 PUSH2 0x2E49 JUMP JUMPDEST PUSH1 0x40 MLOAD DUP1 SWAP2 SUB SWAP1 RETURN JUMPDEST CALLVALUE DUP1 ISZERO PUSH2 0x2B5 JUMPI PUSH1 0x0 DUP1 REVERT JUMPDEST POP PUSH2 0x2D0 PUSH1 0x4 DUP1 CALLDATASIZE SUB DUP2 ADD SWAP1 PUSH2 0x2CB SWAP2 SWAP1 PUSH2 0x2FF9 JUMP JUMPDEST PUSH2 0xDF8 JUMP JUMPDEST PUSH1 0x40 MLOAD PUSH2 0x2DE SWAP3 SWAP2 SWAP1 PUSH2 0x30E5 JUMP JUMPDEST PUSH1 0x40 MLOAD DUP1 SWAP2 SUB SWAP1 RETURN JUMPDEST CALLVALUE DUP1 ISZERO PUSH2 0x2F3 JUMPI PUSH1 0x0 DUP1 REVERT JUMPDEST POP PUSH2 0x2FC PUSH2 0xE67 JUMP JUMPDEST PUSH1 0x40 MLOAD PUSH2 0x309 SWAP2 SWAP1 PUSH2 0x2E49 JUMP JUMPDEST PUSH1 0x40 MLOAD DUP1 SWAP2 SUB SWAP1 RETURN JUMPDEST CALLVALUE DUP1 ISZERO PUSH2 0x31E JUMPI PUSH1 0x0 DUP1 REVERT JUMPDEST POP PUSH2 0x327 PUSH2 0xE91 JUMP JUMPDEST PUSH1 0x40 MLOAD PUSH2 0x334 SWAP2 SWAP1 PUSH2 0x2A91 JUMP JUMPDEST PUSH1 0x40 MLOAD DUP1 SWAP2 SUB SWAP1 RETURN JUMPDEST CALLVALUE DUP1 ISZERO PUSH2 0x349 JUMPI PUSH1 0x0 DUP1 REVERT JUMPDEST POP PUSH2 0x352 PUSH2 0xEB9 JUMP JUMPDEST STOP JUMPDEST CALLVALUE DUP1 ISZERO PUSH2 0x360 JUMPI PUSH1 0x0 DUP1 REVERT JUMPDEST POP PUSH2 0x37B PUSH1 0x4 DUP1 CALLDATASIZE SUB DUP2 ADD SWAP1 PUSH2 0x376 SWAP2 SWAP1 PUSH2 0x2D33 JUMP JUMPDEST PUSH2 0x1197 JUMP JUMPDEST PUSH1 0x40 MLOAD PUSH2 0x388 SWAP2 SWAP1 PUSH2 0x2E49 JUMP JUMPDEST PUSH1 0x40 MLOAD DUP1 SWAP2 SUB SWAP1 RETURN JUMPDEST CALLVALUE DUP1 ISZERO PUSH2 0x39D JUMPI PUSH1 0x0 DUP1 REVERT JUMPDEST POP PUSH2 0x3A6 PUSH2 0x11DF JUMP JUMPDEST PUSH1 0x40 MLOAD PUSH2 0x3B3 SWAP2 SWAP1 PUSH2 0x2F22 JUMP JUMPDEST PUSH1 0x40 MLOAD DUP1 SWAP2 SUB SWAP1 RETURN JUMPDEST CALLVALUE DUP1 ISZERO PUSH2 0x3C8 JUMPI PUSH1 0x0 DUP1 REVERT JUMPDEST POP PUSH2 0x3D1 PUSH2 0x126D JUMP JUMPDEST PUSH1 0x40 MLOAD PUSH2 0x3DE SWAP2 SWAP1 PUSH2 0x2A91 JUMP JUMPDEST PUSH1 0x40 MLOAD DUP1 SWAP2 SUB SWAP1 RETURN JUMPDEST CALLVALUE DUP1 ISZERO PUSH2 0x3F3 JUMPI PUSH1 0x0 DUP1 REVERT JUMPDEST POP PUSH2 0x3FC PUSH2 0x1276 JUMP JUMPDEST PUSH1 0x40 MLOAD PUSH2 0x409 SWAP2 SWAP1 PUSH2 0x2A91 JUMP JUMPDEST PUSH1 0x40 MLOAD DUP1 SWAP2 SUB SWAP1 RETURN JUMPDEST PUSH1 0x0 PUSH32 0x0 SWAP1 POP SWAP1 JUMP JUMPDEST PUSH1 0x0 PUSH1 0x4 PUSH1 0x0 SWAP1 SLOAD SWAP1 PUSH2 0x100 EXP SWAP1 DIV PUSH1 0xFF AND SWAP1 POP SWAP1 JUMP JUMPDEST PUSH32 0x0 PUSH20 0xFFFFFFFFFFFFFFFFFFFFFFFFFFFFFFFFFFFFFFFF AND CALLER PUSH20 0xFFFFFFFFFFFFFFFFFFFFFFFFFFFFFFFFFFFFFFFF AND EQ PUSH2 0x503 JUMPI CALLER PUSH32 0x0 PUSH1 0x40 MLOAD PUSH32 0x1CF993F400000000000000000000000000000000000000000000000000000000 DUP2 MSTORE PUSH1 0x4 ADD PUSH2 0x4FA SWAP3 SWAP2 SWAP1 PUSH2 0x3115 JUMP JUMPDEST PUSH1 0x40 MLOAD DUP1 SWAP2 SUB SWAP1 REVERT JUMPDEST PUSH2 0x50D DUP3 DUP3 PUSH2 0x1283 JUMP JUMPDEST POP POP JUMP JUMPDEST PUSH32 0x0 CALLVALUE LT ISZERO PUSH2 0x56B JUMPI PUSH1 0x40 MLOAD PUSH32 0x3038C00A00000000000000000000000000000000000000000000000000000000 DUP2 MSTORE PUSH1 0x4 ADD PUSH1 0x40 MLOAD DUP1 SWAP2 SUB SWAP1 REVERT JUMPDEST PUSH1 0x0 PUSH1 0x2 DUP2 GT ISZERO PUSH2 0x57F JUMPI PUSH2 0x57E PUSH2 0x2AAC JUMP JUMPDEST JUMPDEST PUSH1 0x4 PUSH1 0x0 SWAP1 SLOAD SWAP1 PUSH2 0x100 EXP SWAP1 DIV PUSH1 0xFF AND PUSH1 0x2 DUP2 GT ISZERO PUSH2 0x5A1 JUMPI PUSH2 0x5A0 PUSH2 0x2AAC JUMP JUMPDEST JUMPDEST EQ PUSH2 0x5D8 JUMPI PUSH1 0x40 MLOAD PUSH32 0xD24A271400000000000000000000000000000000000000000000000000000000 DUP2 MSTORE PUSH1 0x4 ADD PUSH1 0x40 MLOAD DUP1 SWAP2 SUB SWAP1 REVERT JUMPDEST PUSH1 0x1 DUP2 SUB PUSH2 0x71A JUMPI PUSH1 0x0 PUSH32 0x0 PUSH20 0xFFFFFFFFFFFFFFFFFFFFFFFFFFFFFFFFFFFFFFFF AND CALLVALUE PUSH1 0x40 MLOAD PUSH2 0x626 SWAP1 PUSH2 0x316F JUMP JUMPDEST PUSH1 0x0 PUSH1 0x40 MLOAD DUP1 DUP4 SUB DUP2 DUP6 DUP8 GAS CALL SWAP3 POP POP POP RETURNDATASIZE DUP1 PUSH1 0x0 DUP2 EQ PUSH2 0x663 JUMPI PUSH1 0x40 MLOAD SWAP2 POP PUSH1 0x1F NOT PUSH1 0x3F RETURNDATASIZE ADD AND DUP3 ADD PUSH1 0x40 MSTORE RETURNDATASIZE DUP3 MSTORE RETURNDATASIZE PUSH1 0x0 PUSH1 0x20 DUP5 ADD RETURNDATACOPY PUSH2 0x668 JUMP JUMPDEST PUSH1 0x60 SWAP2 POP JUMPDEST POP POP SWAP1 POP DUP1 PUSH2 0x6A3 JUMPI PUSH1 0x40 MLOAD PUSH32 0xE6404CAE00000000000000000000000000000000000000000000000000000000 DUP2 MSTORE PUSH1 0x4 ADD PUSH1 0x40 MLOAD DUP1 SWAP2 SUB SWAP1 REVERT JUMPDEST PUSH1 0x5 PUSH1 0x0 PUSH32 0x0 PUSH20 0xFFFFFFFFFFFFFFFFFFFFFFFFFFFFFFFFFFFFFFFF AND PUSH20 0xFFFFFFFFFFFFFFFFFFFFFFFFFFFFFFFFFFFFFFFF AND DUP2 MSTORE PUSH1 0x20 ADD SWAP1 DUP2 MSTORE PUSH1 0x20 ADD PUSH1 0x0 KECCAK256 PUSH1 0x0 DUP2 SLOAD DUP1 SWAP3 SWAP2 SWAP1 PUSH2 0x713 SWAP1 PUSH2 0x31B3 JUMP JUMPDEST SWAP2 SWAP1 POP SSTORE POP POP JUMPDEST PUSH1 0x2 DUP2 SUB PUSH2 0x85C JUMPI PUSH1 0x0 PUSH32 0x0 PUSH20 0xFFFFFFFFFFFFFFFFFFFFFFFFFFFFFFFFFFFFFFFF AND CALLVALUE PUSH1 0x40 MLOAD PUSH2 0x768 SWAP1 PUSH2 0x316F JUMP JUMPDEST PUSH1 0x0 PUSH1 0x40 MLOAD DUP1 DUP4 SUB DUP2 DUP6 DUP8 GAS CALL SWAP3 POP POP POP RETURNDATASIZE DUP1 PUSH1 0x0 DUP2 EQ PUSH2 0x7A5 JUMPI PUSH1 0x40 MLOAD SWAP2 POP PUSH1 0x1F NOT PUSH1 0x3F RETURNDATASIZE ADD AND DUP3 ADD PUSH1 0x40 MSTORE RETURNDATASIZE DUP3 MSTORE RETURNDATASIZE PUSH1 0x0 PUSH1 0x20 DUP5 ADD RETURNDATACOPY PUSH2 0x7AA JUMP JUMPDEST PUSH1 0x60 SWAP2 POP JUMPDEST POP POP SWAP1 POP DUP1 PUSH2 0x7E5 JUMPI PUSH1 0x40 MLOAD PUSH32 0xE6404CAE00000000000000000000000000000000000000000000000000000000 DUP2 MSTORE PUSH1 0x4 ADD PUSH1 0x40 MLOAD DUP1 SWAP2 SUB SWAP1 REVERT JUMPDEST PUSH1 0x5 PUSH1 0x0 PUSH32 0x0 PUSH20 0xFFFFFFFFFFFFFFFFFFFFFFFFFFFFFFFFFFFFFFFF AND PUSH20 0xFFFFFFFFFFFFFFFFFFFFFFFFFFFFFFFFFFFFFFFF AND DUP2 MSTORE PUSH1 0x20 ADD SWAP1 DUP2 MSTORE PUSH1 0x20 ADD PUSH1 0x0 KECCAK256 PUSH1 0x0 DUP2 SLOAD DUP1 SWAP3 SWAP2 SWAP1 PUSH2 0x855 SWAP1 PUSH2 0x31B3 JUMP JUMPDEST SWAP2 SWAP1 POP SSTORE POP POP JUMPDEST PUSH1 0x3 DUP2 SUB PUSH2 0x99E JUMPI PUSH1 0x0 PUSH32 0x0 PUSH20 0xFFFFFFFFFFFFFFFFFFFFFFFFFFFFFFFFFFFFFFFF AND CALLVALUE PUSH1 0x40 MLOAD PUSH2 0x8AA SWAP1 PUSH2 0x316F JUMP JUMPDEST PUSH1 0x0 PUSH1 0x40 MLOAD DUP1 DUP4 SUB DUP2 DUP6 DUP8 GAS CALL SWAP3 POP POP POP RETURNDATASIZE DUP1 PUSH1 0x0 DUP2 EQ PUSH2 0x8E7 JUMPI PUSH1 0x40 MLOAD SWAP2 POP PUSH1 0x1F NOT PUSH1 0x3F RETURNDATASIZE ADD AND DUP3 ADD PUSH1 0x40 MSTORE RETURNDATASIZE DUP3 MSTORE RETURNDATASIZE PUSH1 0x0 PUSH1 0x20 DUP5 ADD RETURNDATACOPY PUSH2 0x8EC JUMP JUMPDEST PUSH1 0x60 SWAP2 POP JUMPDEST POP POP SWAP1 POP DUP1 PUSH2 0x927 JUMPI PUSH1 0x40 MLOAD PUSH32 0xE6404CAE00000000000000000000000000000000000000000000000000000000 DUP2 MSTORE PUSH1 0x4 ADD PUSH1 0x40 MLOAD DUP1 SWAP2 SUB SWAP1 REVERT JUMPDEST PUSH1 0x5 PUSH1 0x0 PUSH32 0x0 PUSH20 0xFFFFFFFFFFFFFFFFFFFFFFFFFFFFFFFFFFFFFFFF AND PUSH20 0xFFFFFFFFFFFFFFFFFFFFFFFFFFFFFFFFFFFFFFFF AND DUP2 MSTORE PUSH1 0x20 ADD SWAP1 DUP2 MSTORE PUSH1 0x20 ADD PUSH1 0x0 KECCAK256 PUSH1 0x0 DUP2 SLOAD DUP1 SWAP3 SWAP2 SWAP1 PUSH2 0x997 SWAP1 PUSH2 0x31B3 JUMP JUMPDEST SWAP2 SWAP1 POP SSTORE POP POP JUMPDEST PUSH1 0x3 CALLER SWAP1 DUP1 PUSH1 0x1 DUP2 SLOAD ADD DUP1 DUP3 SSTORE DUP1 SWAP2 POP POP PUSH1 0x1 SWAP1 SUB SWAP1 PUSH1 0x0 MSTORE PUSH1 0x20 PUSH1 0x0 KECCAK256 ADD PUSH1 0x0 SWAP1 SWAP2 SWAP1 SWAP2 SWAP1 SWAP2 PUSH2 0x100 EXP DUP2 SLOAD DUP2 PUSH20 0xFFFFFFFFFFFFFFFFFFFFFFFFFFFFFFFFFFFFFFFF MUL NOT AND SWAP1 DUP4 PUSH20 0xFFFFFFFFFFFFFFFFFFFFFFFFFFFFFFFFFFFFFFFF AND MUL OR SWAP1 SSTORE POP CALLER PUSH20 0xFFFFFFFFFFFFFFFFFFFFFFFFFFFFFFFFFFFFFFFF AND PUSH32 0x805E1D667BDDB8A95F0F09880CF94F403FB596CE79928D9F29B74203BA284D4 PUSH1 0x40 MLOAD PUSH1 0x40 MLOAD DUP1 SWAP2 SUB SWAP1 LOG2 POP JUMP JUMPDEST PUSH1 0x0 PUSH2 0xA61 PUSH1 0x40 MLOAD DUP1 PUSH1 0x20 ADD PUSH1 0x40 MSTORE DUP1 PUSH1 0x0 DUP2 MSTORE POP PUSH2 0xDF8 JUMP JUMPDEST POP SWAP1 POP DUP1 PUSH2 0xAD0 JUMPI SELFBALANCE PUSH1 0x3 DUP1 SLOAD SWAP1 POP PUSH1 0x4 PUSH1 0x0 SWAP1 SLOAD SWAP1 PUSH2 0x100 EXP SWAP1 DIV PUSH1 0xFF AND PUSH1 0x2 DUP2 GT ISZERO PUSH2 0xA92 JUMPI PUSH2 0xA91 PUSH2 0x2AAC JUMP JUMPDEST JUMPDEST PUSH1 0x40 MLOAD PUSH32 0x584327AA00000000000000000000000000000000000000000000000000000000 DUP2 MSTORE PUSH1 0x4 ADD PUSH2 0xAC7 SWAP4 SWAP3 SWAP2 SWAP1 PUSH2 0x31FB JUMP JUMPDEST PUSH1 0x40 MLOAD DUP1 SWAP2 SUB SWAP1 REVERT JUMPDEST PUSH1 0x1 PUSH1 0x4 PUSH1 0x0 PUSH2 0x100 EXP DUP2 SLOAD DUP2 PUSH1 0xFF MUL NOT AND SWAP1 DUP4 PUSH1 0x2 DUP2 GT ISZERO PUSH2 0xAF6 JUMPI PUSH2 0xAF5 PUSH2 0x2AAC JUMP JUMPDEST JUMPDEST MUL OR SWAP1 SSTORE POP PUSH1 0x0 PUSH32 0x0 PUSH20 0xFFFFFFFFFFFFFFFFFFFFFFFFFFFFFFFFFFFFFFFF AND PUSH4 0x5D3B1D30 PUSH32 0x0 PUSH32 0x0 PUSH1 0x3 PUSH32 0x0 PUSH1 0x4 PUSH1 0x40 MLOAD DUP7 PUSH4 0xFFFFFFFF AND PUSH1 0xE0 SHL DUP2 MSTORE PUSH1 0x4 ADD PUSH2 0xBC0 SWAP6 SWAP5 SWAP4 SWAP3 SWAP2 SWAP1 PUSH2 0x32AA JUMP JUMPDEST PUSH1 0x20 PUSH1 0x40 MLOAD DUP1 DUP4 SUB DUP2 PUSH1 0x0 DUP8 GAS CALL ISZERO DUP1 ISZERO PUSH2 0xBDF JUMPI RETURNDATASIZE PUSH1 0x0 DUP1 RETURNDATACOPY RETURNDATASIZE PUSH1 0x0 REVERT JUMPDEST POP POP POP POP PUSH1 0x40 MLOAD RETURNDATASIZE PUSH1 0x1F NOT PUSH1 0x1F DUP3 ADD AND DUP3 ADD DUP1 PUSH1 0x40 MSTORE POP DUP2 ADD SWAP1 PUSH2 0xC03 SWAP2 SWAP1 PUSH2 0x3312 JUMP JUMPDEST SWAP1 POP DUP1 PUSH32 0xCD6E45C8998311CAB7E9D4385596CAC867E20A0587194B954FA3A731C93CE78B PUSH1 0x40 MLOAD PUSH1 0x40 MLOAD DUP1 SWAP2 SUB SWAP1 LOG2 POP POP POP POP JUMP JUMPDEST PUSH1 0x0 PUSH1 0x1 PUSH1 0x0 SWAP1 SLOAD SWAP1 PUSH2 0x100 EXP SWAP1 DIV PUSH20 0xFFFFFFFFFFFFFFFFFFFFFFFFFFFFFFFFFFFFFFFF AND SWAP1 POP SWAP1 JUMP JUMPDEST PUSH1 0x60 PUSH32 0x0 DUP2 PUSH1 0x0 DUP2 MLOAD DUP2 LT PUSH2 0xC99 JUMPI PUSH2 0xC98 PUSH2 0x333F JUMP JUMPDEST JUMPDEST PUSH1 0x20 MUL PUSH1 0x20 ADD ADD SWAP1 PUSH20 0xFFFFFFFFFFFFFFFFFFFFFFFFFFFFFFFFFFFFFFFF AND SWAP1 DUP2 PUSH20 0xFFFFFFFFFFFFFFFFFFFFFFFFFFFFFFFFFFFFFFFF AND DUP2 MSTORE POP POP PUSH32 0x0 DUP2 PUSH1 0x1 DUP2 MLOAD DUP2 LT PUSH2 0xD08 JUMPI PUSH2 0xD07 PUSH2 0x333F JUMP JUMPDEST JUMPDEST PUSH1 0x20 MUL PUSH1 0x20 ADD ADD SWAP1 PUSH20 0xFFFFFFFFFFFFFFFFFFFFFFFFFFFFFFFFFFFFFFFF AND SWAP1 DUP2 PUSH20 0xFFFFFFFFFFFFFFFFFFFFFFFFFFFFFFFFFFFFFFFF AND DUP2 MSTORE POP POP PUSH32 0x0 DUP2 PUSH1 0x2 DUP2 MLOAD DUP2 LT PUSH2 0xD77 JUMPI PUSH2 0xD76 PUSH2 0x333F JUMP JUMPDEST JUMPDEST PUSH1 0x20 MUL PUSH1 0x20 ADD ADD SWAP1 PUSH20 0xFFFFFFFFFFFFFFFFFFFFFFFFFFFFFFFFFFFFFFFF AND SWAP1 DUP2 PUSH20 0xFFFFFFFFFFFFFFFFFFFFFFFFFFFFFFFFFFFFFFFF AND DUP2 MSTORE POP POP SWAP1 JUMP JUMPDEST PUSH1 0x0 PUSH1 0x4 PUSH4 0xFFFFFFFF AND SWAP1 POP SWAP1 JUMP JUMPDEST PUSH1 0x0 PUSH1 0x3 PUSH2 0xFFFF AND SWAP1 POP SWAP1 JUMP JUMPDEST PUSH1 0x0 PUSH32 0x0 SWAP1 POP SWAP1 JUMP JUMPDEST PUSH1 0x0 PUSH1 0x60 PUSH1 0x0 PUSH1 0x4 PUSH1 0x0 SWAP1 SLOAD SWAP1 PUSH2 0x100 EXP SWAP1 DIV PUSH1 0xFF AND PUSH1 0x2 DUP2 GT ISZERO PUSH2 0xE20 JUMPI PUSH2 0xE1F PUSH2 0x2AAC JUMP JUMPDEST JUMPDEST PUSH1 0x0 PUSH1 0x2 DUP2 GT ISZERO PUSH2 0xE34 JUMPI PUSH2 0xE33 PUSH2 0x2AAC JUMP JUMPDEST JUMPDEST EQ SWAP1 POP PUSH1 0x0 DUP1 PUSH1 0x3 DUP1 SLOAD SWAP1 POP GT SWAP1 POP PUSH1 0x0 DUP1 SELFBALANCE GT SWAP1 POP DUP3 DUP1 ISZERO PUSH2 0xE54 JUMPI POP DUP1 JUMPDEST DUP1 ISZERO PUSH2 0xE5D JUMPI POP DUP2 JUMPDEST SWAP5 POP POP POP POP SWAP2 POP SWAP2 JUMP JUMPDEST PUSH1 0x0 PUSH1 0x2 PUSH1 0x0 SWAP1 SLOAD SWAP1 PUSH2 0x100 EXP SWAP1 DIV PUSH20 0xFFFFFFFFFFFFFFFFFFFFFFFFFFFFFFFFFFFFFFFF AND SWAP1 POP SWAP1 JUMP JUMPDEST PUSH1 0x0 PUSH32 0x0 SWAP1 POP SWAP1 JUMP JUMPDEST PUSH1 0x2 DUP1 DUP2 GT ISZERO PUSH2 0xECC JUMPI PUSH2 0xECB PUSH2 0x2AAC JUMP JUMPDEST JUMPDEST PUSH1 0x4 PUSH1 0x0 SWAP1 SLOAD SWAP1 PUSH2 0x100 EXP SWAP1 DIV PUSH1 0xFF AND PUSH1 0x2 DUP2 GT ISZERO PUSH2 0xEEE JUMPI PUSH2 0xEED PUSH2 0x2AAC JUMP JUMPDEST JUMPDEST EQ PUSH2 0xF25 JUMPI PUSH1 0x40 MLOAD PUSH32 0xB72E987200000000000000000000000000000000000000000000000000000000 DUP2 MSTORE PUSH1 0x4 ADD PUSH1 0x40 MLOAD DUP1 SWAP2 SUB SWAP1 REVERT JUMPDEST PUSH32 0x0 PUSH20 0xFFFFFFFFFFFFFFFFFFFFFFFFFFFFFFFFFFFFFFFF AND CALLER PUSH20 0xFFFFFFFFFFFFFFFFFFFFFFFFFFFFFFFFFFFFFFFF AND EQ PUSH2 0xFAA JUMPI PUSH1 0x40 MLOAD PUSH32 0x45C2F16000000000000000000000000000000000000000000000000000000000 DUP2 MSTORE PUSH1 0x4 ADD PUSH1 0x40 MLOAD DUP1 SWAP2 SUB SWAP1 REVERT JUMPDEST PUSH1 0x0 DUP1 SLOAD SWAP1 POP PUSH1 0x0 DUP1 DUP2 SWAP1 SSTORE POP PUSH1 0x0 PUSH1 0x2 PUSH1 0x0 SWAP1 SLOAD SWAP1 PUSH2 0x100 EXP SWAP1 DIV PUSH20 0xFFFFFFFFFFFFFFFFFFFFFFFFFFFFFFFFFFFFFFFF AND SWAP1 POP PUSH1 0x0 PUSH1 0x2 PUSH1 0x0 PUSH2 0x100 EXP DUP2 SLOAD DUP2 PUSH20 0xFFFFFFFFFFFFFFFFFFFFFFFFFFFFFFFFFFFFFFFF MUL NOT AND SWAP1 DUP4 PUSH20 0xFFFFFFFFFFFFFFFFFFFFFFFFFFFFFFFFFFFFFFFF AND MUL OR SWAP1 SSTORE POP PUSH1 0x0 ADDRESS PUSH20 0xFFFFFFFFFFFFFFFFFFFFFFFFFFFFFFFFFFFFFFFF AND PUSH32 0x0 DUP5 PUSH2 0x1065 SWAP2 SWAP1 PUSH2 0x336E JUMP JUMPDEST PUSH1 0x40 MLOAD PUSH2 0x1071 SWAP1 PUSH2 0x316F JUMP JUMPDEST PUSH1 0x0 PUSH1 0x40 MLOAD DUP1 DUP4 SUB DUP2 DUP6 DUP8 GAS CALL SWAP3 POP POP POP RETURNDATASIZE DUP1 PUSH1 0x0 DUP2 EQ PUSH2 0x10AE JUMPI PUSH1 0x40 MLOAD SWAP2 POP PUSH1 0x1F NOT PUSH1 0x3F RETURNDATASIZE ADD AND DUP3 ADD PUSH1 0x40 MSTORE RETURNDATASIZE DUP3 MSTORE RETURNDATASIZE PUSH1 0x0 PUSH1 0x20 DUP5 ADD RETURNDATACOPY PUSH2 0x10B3 JUMP JUMPDEST PUSH1 0x60 SWAP2 POP JUMPDEST POP POP SWAP1 POP DUP1 PUSH2 0x10EE JUMPI PUSH1 0x40 MLOAD PUSH32 0x46FE09F000000000000000000000000000000000000000000000000000000000 DUP2 MSTORE PUSH1 0x4 ADD PUSH1 0x40 MLOAD DUP1 SWAP2 SUB SWAP1 REVERT JUMPDEST PUSH1 0x0 DUP3 PUSH20 0xFFFFFFFFFFFFFFFFFFFFFFFFFFFFFFFFFFFFFFFF AND SELFBALANCE PUSH1 0x40 MLOAD PUSH2 0x1114 SWAP1 PUSH2 0x316F JUMP JUMPDEST PUSH1 0x0 PUSH1 0x40 MLOAD DUP1 DUP4 SUB DUP2 DUP6 DUP8 GAS CALL SWAP3 POP POP POP RETURNDATASIZE DUP1 PUSH1 0x0 DUP2 EQ PUSH2 0x1151 JUMPI PUSH1 0x40 MLOAD SWAP2 POP PUSH1 0x1F NOT PUSH1 0x3F RETURNDATASIZE ADD AND DUP3 ADD PUSH1 0x40 MSTORE RETURNDATASIZE DUP3 MSTORE RETURNDATASIZE PUSH1 0x0 PUSH1 0x20 DUP5 ADD RETURNDATACOPY PUSH2 0x1156 JUMP JUMPDEST PUSH1 0x60 SWAP2 POP JUMPDEST POP POP SWAP1 POP DUP1 PUSH2 0x1191 JUMPI PUSH1 0x40 MLOAD PUSH32 0x1333617400000000000000000000000000000000000000000000000000000000 DUP2 MSTORE PUSH1 0x4 ADD PUSH1 0x40 MLOAD DUP1 SWAP2 SUB SWAP1 REVERT JUMPDEST POP POP POP POP JUMP JUMPDEST PUSH1 0x0 PUSH1 0x3 DUP3 DUP2 SLOAD DUP2 LT PUSH2 0x11AD JUMPI PUSH2 0x11AC PUSH2 0x333F JUMP JUMPDEST JUMPDEST SWAP1 PUSH1 0x0 MSTORE PUSH1 0x20 PUSH1 0x0 KECCAK256 ADD PUSH1 0x0 SWAP1 SLOAD SWAP1 PUSH2 0x100 EXP SWAP1 DIV PUSH20 0xFFFFFFFFFFFFFFFFFFFFFFFFFFFFFFFFFFFFFFFF AND SWAP1 POP SWAP2 SWAP1 POP JUMP JUMPDEST PUSH1 0x60 PUSH1 0x3 DUP1 SLOAD DUP1 PUSH1 0x20 MUL PUSH1 0x20 ADD PUSH1 0x40 MLOAD SWAP1 DUP2 ADD PUSH1 0x40 MSTORE DUP1 SWAP3 SWAP2 SWAP1 DUP2 DUP2 MSTORE PUSH1 0x20 ADD DUP3 DUP1 SLOAD DUP1 ISZERO PUSH2 0x1263 JUMPI PUSH1 0x20 MUL DUP3 ADD SWAP2 SWAP1 PUSH1 0x0 MSTORE PUSH1 0x20 PUSH1 0x0 KECCAK256 SWAP1 JUMPDEST DUP2 PUSH1 0x0 SWAP1 SLOAD SWAP1 PUSH2 0x100 EXP SWAP1 DIV PUSH20 0xFFFFFFFFFFFFFFFFFFFFFFFFFFFFFFFFFFFFFFFF AND PUSH20 0xFFFFFFFFFFFFFFFFFFFFFFFFFFFFFFFFFFFFFFFF AND DUP2 MSTORE PUSH1 0x20 ADD SWAP1 PUSH1 0x1 ADD SWAP1 DUP1 DUP4 GT PUSH2 0x1219 JUMPI JUMPDEST POP POP POP POP POP SWAP1 POP SWAP1 JUMP JUMPDEST PUSH1 0x0 DUP1 SLOAD SWAP1 POP SWAP1 JUMP JUMPDEST PUSH1 0x0 PUSH1 0x3 DUP1 SLOAD SWAP1 POP SWAP1 POP SWAP1 JUMP JUMPDEST PUSH1 0x0 PUSH1 0x3 DUP1 SLOAD SWAP1 POP DUP3 PUSH1 0x0 DUP2 MLOAD DUP2 LT PUSH2 0x129F JUMPI PUSH2 0x129E PUSH2 0x333F JUMP JUMPDEST JUMPDEST PUSH1 0x20 MUL PUSH1 0x20 ADD ADD MLOAD PUSH2 0x12B1 SWAP2 SWAP1 PUSH2 0x33F7 JUMP JUMPDEST SWAP1 POP PUSH1 0x0 PUSH1 0x3 DUP3 DUP2 SLOAD DUP2 LT PUSH2 0x12C9 JUMPI PUSH2 0x12C8 PUSH2 0x333F JUMP JUMPDEST JUMPDEST SWAP1 PUSH1 0x0 MSTORE PUSH1 0x20 PUSH1 0x0 KECCAK256 ADD PUSH1 0x0 SWAP1 SLOAD SWAP1 PUSH2 0x100 EXP SWAP1 DIV PUSH20 0xFFFFFFFFFFFFFFFFFFFFFFFFFFFFFFFFFFFFFFFF AND SWAP1 POP DUP1 PUSH1 0x1 PUSH1 0x0 PUSH2 0x100 EXP DUP2 SLOAD DUP2 PUSH20 0xFFFFFFFFFFFFFFFFFFFFFFFFFFFFFFFFFFFFFFFF MUL NOT AND SWAP1 DUP4 PUSH20 0xFFFFFFFFFFFFFFFFFFFFFFFFFFFFFFFFFFFFFFFF AND MUL OR SWAP1 SSTORE POP PUSH1 0x0 PUSH8 0xFFFFFFFFFFFFFFFF DUP2 GT ISZERO PUSH2 0x1352 JUMPI PUSH2 0x1351 PUSH2 0x2B94 JUMP JUMPDEST JUMPDEST PUSH1 0x40 MLOAD SWAP1 DUP1 DUP3 MSTORE DUP1 PUSH1 0x20 MUL PUSH1 0x20 ADD DUP3 ADD PUSH1 0x40 MSTORE DUP1 ISZERO PUSH2 0x1380 JUMPI DUP2 PUSH1 0x20 ADD PUSH1 0x20 DUP3 MUL DUP1 CALLDATASIZE DUP4 CALLDATACOPY DUP1 DUP3 ADD SWAP2 POP POP SWAP1 POP JUMPDEST POP PUSH1 0x3 SWAP1 DUP1 MLOAD SWAP1 PUSH1 0x20 ADD SWAP1 PUSH2 0x1396 SWAP3 SWAP2 SWAP1 PUSH2 0x29D1 JUMP JUMPDEST POP PUSH1 0x2 PUSH1 0x4 PUSH1 0x0 PUSH2 0x100 EXP DUP2 SLOAD DUP2 PUSH1 0xFF MUL NOT AND SWAP1 DUP4 PUSH1 0x2 DUP2 GT ISZERO PUSH2 0x13BD JUMPI PUSH2 0x13BC PUSH2 0x2AAC JUMP JUMPDEST JUMPDEST MUL OR SWAP1 SSTORE POP PUSH1 0x0 DUP2 PUSH20 0xFFFFFFFFFFFFFFFFFFFFFFFFFFFFFFFFFFFFFFFF AND SELFBALANCE PUSH1 0x40 MLOAD PUSH2 0x13E8 SWAP1 PUSH2 0x316F JUMP JUMPDEST PUSH1 0x0 PUSH1 0x40 MLOAD DUP1 DUP4 SUB DUP2 DUP6 DUP8 GAS CALL SWAP3 POP POP POP RETURNDATASIZE DUP1 PUSH1 0x0 DUP2 EQ PUSH2 0x1425 JUMPI PUSH1 0x40 MLOAD SWAP2 POP PUSH1 0x1F NOT PUSH1 0x3F RETURNDATASIZE ADD AND DUP3 ADD PUSH1 0x40 MSTORE RETURNDATASIZE DUP3 MSTORE RETURNDATASIZE PUSH1 0x0 PUSH1 0x20 DUP5 ADD RETURNDATACOPY PUSH2 0x142A JUMP JUMPDEST PUSH1 0x60 SWAP2 POP JUMPDEST POP POP SWAP1 POP DUP1 PUSH2 0x1465 JUMPI PUSH1 0x40 MLOAD PUSH32 0xB76D7EA600000000000000000000000000000000000000000000000000000000 DUP2 MSTORE PUSH1 0x4 ADD PUSH1 0x40 MLOAD DUP1 SWAP2 SUB SWAP1 REVERT JUMPDEST PUSH1 0x0 PUSH2 0x146F PUSH2 0x25B3 JUMP JUMPDEST SWAP1 POP PUSH1 0x0 PUSH1 0x5 PUSH1 0x0 PUSH32 0x0 PUSH20 0xFFFFFFFFFFFFFFFFFFFFFFFFFFFFFFFFFFFFFFFF AND PUSH20 0xFFFFFFFFFFFFFFFFFFFFFFFFFFFFFFFFFFFFFFFF AND DUP2 MSTORE PUSH1 0x20 ADD SWAP1 DUP2 MSTORE PUSH1 0x20 ADD PUSH1 0x0 KECCAK256 SLOAD SWAP1 POP PUSH1 0x0 PUSH1 0x5 PUSH1 0x0 PUSH32 0x0 PUSH20 0xFFFFFFFFFFFFFFFFFFFFFFFFFFFFFFFFFFFFFFFF AND PUSH20 0xFFFFFFFFFFFFFFFFFFFFFFFFFFFFFFFFFFFFFFFF AND DUP2 MSTORE PUSH1 0x20 ADD SWAP1 DUP2 MSTORE PUSH1 0x20 ADD PUSH1 0x0 KECCAK256 DUP2 SWAP1 SSTORE POP PUSH1 0x0 PUSH1 0x5 PUSH1 0x0 PUSH32 0x0 PUSH20 0xFFFFFFFFFFFFFFFFFFFFFFFFFFFFFFFFFFFFFFFF AND PUSH20 0xFFFFFFFFFFFFFFFFFFFFFFFFFFFFFFFFFFFFFFFF AND DUP2 MSTORE PUSH1 0x20 ADD SWAP1 DUP2 MSTORE PUSH1 0x20 ADD PUSH1 0x0 KECCAK256 SLOAD SWAP1 POP PUSH1 0x0 PUSH1 0x5 PUSH1 0x0 PUSH32 0x0 PUSH20 0xFFFFFFFFFFFFFFFFFFFFFFFFFFFFFFFFFFFFFFFF AND PUSH20 0xFFFFFFFFFFFFFFFFFFFFFFFFFFFFFFFFFFFFFFFF AND DUP2 MSTORE PUSH1 0x20 ADD SWAP1 DUP2 MSTORE PUSH1 0x20 ADD PUSH1 0x0 KECCAK256 DUP2 SWAP1 SSTORE POP PUSH1 0x0 PUSH1 0x5 PUSH1 0x0 PUSH32 0x0 PUSH20 0xFFFFFFFFFFFFFFFFFFFFFFFFFFFFFFFFFFFFFFFF AND PUSH20 0xFFFFFFFFFFFFFFFFFFFFFFFFFFFFFFFFFFFFFFFF AND DUP2 MSTORE PUSH1 0x20 ADD SWAP1 DUP2 MSTORE PUSH1 0x20 ADD PUSH1 0x0 KECCAK256 SLOAD SWAP1 POP PUSH1 0x0 PUSH1 0x5 PUSH1 0x0 PUSH32 0x0 PUSH20 0xFFFFFFFFFFFFFFFFFFFFFFFFFFFFFFFFFFFFFFFF AND PUSH20 0xFFFFFFFFFFFFFFFFFFFFFFFFFFFFFFFFFFFFFFFF AND DUP2 MSTORE PUSH1 0x20 ADD SWAP1 DUP2 MSTORE PUSH1 0x20 ADD PUSH1 0x0 KECCAK256 DUP2 SWAP1 SSTORE POP PUSH1 0x0 PUSH1 0x3 PUSH8 0xFFFFFFFFFFFFFFFF DUP2 GT ISZERO PUSH2 0x16E9 JUMPI PUSH2 0x16E8 PUSH2 0x2B94 JUMP JUMPDEST JUMPDEST PUSH1 0x40 MLOAD SWAP1 DUP1 DUP3 MSTORE DUP1 PUSH1 0x20 MUL PUSH1 0x20 ADD DUP3 ADD PUSH1 0x40 MSTORE DUP1 ISZERO PUSH2 0x1717 JUMPI DUP2 PUSH1 0x20 ADD PUSH1 0x20 DUP3 MUL DUP1 CALLDATASIZE DUP4 CALLDATACOPY DUP1 DUP3 ADD SWAP2 POP POP SWAP1 POP JUMPDEST POP SWAP1 POP DUP4 DUP2 PUSH1 0x0 DUP2 MLOAD DUP2 LT PUSH2 0x172F JUMPI PUSH2 0x172E PUSH2 0x333F JUMP JUMPDEST JUMPDEST PUSH1 0x20 MUL PUSH1 0x20 ADD ADD DUP2 DUP2 MSTORE POP POP DUP3 DUP2 PUSH1 0x1 DUP2 MLOAD DUP2 LT PUSH2 0x1750 JUMPI PUSH2 0x174F PUSH2 0x333F JUMP JUMPDEST JUMPDEST PUSH1 0x20 MUL PUSH1 0x20 ADD ADD DUP2 DUP2 MSTORE POP POP DUP2 DUP2 PUSH1 0x2 DUP2 MLOAD DUP2 LT PUSH2 0x1771 JUMPI PUSH2 0x1770 PUSH2 0x333F JUMP JUMPDEST JUMPDEST PUSH1 0x20 MUL PUSH1 0x20 ADD ADD DUP2 DUP2 MSTORE POP POP PUSH1 0x0 PUSH2 0x1788 DUP3 PUSH2 0x2813 JUMP JUMPDEST SWAP1 POP DUP6 ISZERO PUSH2 0x22C5 JUMPI DUP4 DUP6 EQ DUP1 ISZERO PUSH2 0x179E JUMPI POP DUP3 DUP6 EQ JUMPDEST ISZERO PUSH2 0x1BA3 JUMPI DUP10 PUSH1 0x1 DUP2 MLOAD DUP2 LT PUSH2 0x17B7 JUMPI PUSH2 0x17B6 PUSH2 0x333F JUMP JUMPDEST JUMPDEST PUSH1 0x20 MUL PUSH1 0x20 ADD ADD MLOAD DUP6 PUSH2 0x17CA SWAP2 SWAP1 PUSH2 0x3428 JUMP JUMPDEST SWAP5 POP DUP10 PUSH1 0x2 DUP2 MLOAD DUP2 LT PUSH2 0x17E0 JUMPI PUSH2 0x17DF PUSH2 0x333F JUMP JUMPDEST JUMPDEST PUSH1 0x20 MUL PUSH1 0x20 ADD ADD MLOAD DUP5 PUSH2 0x17F3 SWAP2 SWAP1 PUSH2 0x3428 JUMP JUMPDEST SWAP4 POP DUP10 PUSH1 0x3 DUP2 MLOAD DUP2 LT PUSH2 0x1809 JUMPI PUSH2 0x1808 PUSH2 0x333F JUMP JUMPDEST JUMPDEST PUSH1 0x20 MUL PUSH1 0x20 ADD ADD MLOAD DUP4 PUSH2 0x181C SWAP2 SWAP1 PUSH2 0x3428 JUMP JUMPDEST SWAP3 POP DUP10 PUSH1 0x1 DUP2 MLOAD DUP2 LT PUSH2 0x1832 JUMPI PUSH2 0x1831 PUSH2 0x333F JUMP JUMPDEST JUMPDEST PUSH1 0x20 MUL PUSH1 0x20 ADD ADD MLOAD DUP6 PUSH2 0x1845 SWAP2 SWAP1 PUSH2 0x347E JUMP JUMPDEST PUSH1 0x0 DUP2 SWAP1 SSTORE POP PUSH1 0x0 PUSH1 0x3 PUSH8 0xFFFFFFFFFFFFFFFF DUP2 GT ISZERO PUSH2 0x1868 JUMPI PUSH2 0x1867 PUSH2 0x2B94 JUMP JUMPDEST JUMPDEST PUSH1 0x40 MLOAD SWAP1 DUP1 DUP3 MSTORE DUP1 PUSH1 0x20 MUL PUSH1 0x20 ADD DUP3 ADD PUSH1 0x40 MSTORE DUP1 ISZERO PUSH2 0x1896 JUMPI DUP2 PUSH1 0x20 ADD PUSH1 0x20 DUP3 MUL DUP1 CALLDATASIZE DUP4 CALLDATACOPY DUP1 DUP3 ADD SWAP2 POP POP SWAP1 POP JUMPDEST POP SWAP1 POP DUP6 DUP2 PUSH1 0x0 DUP2 MLOAD DUP2 LT PUSH2 0x18AE JUMPI PUSH2 0x18AD PUSH2 0x333F JUMP JUMPDEST JUMPDEST PUSH1 0x20 MUL PUSH1 0x20 ADD ADD DUP2 DUP2 MSTORE POP POP DUP5 DUP2 PUSH1 0x1 DUP2 MLOAD DUP2 LT PUSH2 0x18CF JUMPI PUSH2 0x18CE PUSH2 0x333F JUMP JUMPDEST JUMPDEST PUSH1 0x20 MUL PUSH1 0x20 ADD ADD DUP2 DUP2 MSTORE POP POP DUP4 DUP2 PUSH1 0x2 DUP2 MLOAD DUP2 LT PUSH2 0x18F0 JUMPI PUSH2 0x18EF PUSH2 0x333F JUMP JUMPDEST JUMPDEST PUSH1 0x20 MUL PUSH1 0x20 ADD ADD DUP2 DUP2 MSTORE POP POP PUSH1 0x0 PUSH2 0x1907 DUP3 PUSH2 0x2813 JUMP JUMPDEST SWAP1 POP DUP7 DUP2 PUSH1 0x2 DUP2 MLOAD DUP2 LT PUSH2 0x191E JUMPI PUSH2 0x191D PUSH2 0x333F JUMP JUMPDEST JUMPDEST PUSH1 0x20 MUL PUSH1 0x20 ADD ADD MLOAD SUB PUSH2 0x19F0 JUMPI PUSH32 0x0 PUSH1 0x2 PUSH1 0x0 PUSH2 0x100 EXP DUP2 SLOAD DUP2 PUSH20 0xFFFFFFFFFFFFFFFFFFFFFFFFFFFFFFFFFFFFFFFF MUL NOT AND SWAP1 DUP4 PUSH20 0xFFFFFFFFFFFFFFFFFFFFFFFFFFFFFFFFFFFFFFFF AND MUL OR SWAP1 SSTORE POP PUSH32 0x0 PUSH20 0xFFFFFFFFFFFFFFFFFFFFFFFFFFFFFFFFFFFFFFFF AND PUSH32 0x3C87360DCE5C6F26147DAF6A9E168E80A4C7199E9AA7CBD7A874094804C361B4 PUSH1 0x40 MLOAD PUSH1 0x40 MLOAD DUP1 SWAP2 SUB SWAP1 LOG2 JUMPDEST DUP6 DUP2 PUSH1 0x2 DUP2 MLOAD DUP2 LT PUSH2 0x1A05 JUMPI PUSH2 0x1A04 PUSH2 0x333F JUMP JUMPDEST JUMPDEST PUSH1 0x20 MUL PUSH1 0x20 ADD ADD MLOAD SUB PUSH2 0x1ADB JUMPI PUSH32 0x0 PUSH1 0x2 PUSH1 0x0 PUSH2 0x100 EXP DUP2 SLOAD DUP2 PUSH20 0xFFFFFFFFFFFFFFFFFFFFFFFFFFFFFFFFFFFFFFFF MUL NOT AND SWAP1 DUP4 PUSH20 0xFFFFFFFFFFFFFFFFFFFFFFFFFFFFFFFFFFFFFFFF AND MUL OR SWAP1 SSTORE POP PUSH32 0x0 PUSH20 0xFFFFFFFFFFFFFFFFFFFFFFFFFFFFFFFFFFFFFFFF AND PUSH32 0x3C87360DCE5C6F26147DAF6A9E168E80A4C7199E9AA7CBD7A874094804C361B4 PUSH1 0x40 MLOAD PUSH1 0x40 MLOAD DUP1 SWAP2 SUB SWAP1 LOG2 PUSH2 0x1BA0 JUMP JUMPDEST PUSH32 0x0 PUSH1 0x2 PUSH1 0x0 PUSH2 0x100 EXP DUP2 SLOAD DUP2 PUSH20 0xFFFFFFFFFFFFFFFFFFFFFFFFFFFFFFFFFFFFFFFF MUL NOT AND SWAP1 DUP4 PUSH20 0xFFFFFFFFFFFFFFFFFFFFFFFFFFFFFFFFFFFFFFFF AND MUL OR SWAP1 SSTORE POP PUSH32 0x0 PUSH20 0xFFFFFFFFFFFFFFFFFFFFFFFFFFFFFFFFFFFFFFFF AND PUSH32 0x3C87360DCE5C6F26147DAF6A9E168E80A4C7199E9AA7CBD7A874094804C361B4 PUSH1 0x40 MLOAD PUSH1 0x40 MLOAD DUP1 SWAP2 SUB SWAP1 LOG2 JUMPDEST POP POP JUMPDEST DUP5 DUP2 PUSH1 0x2 DUP2 MLOAD DUP2 LT PUSH2 0x1BB8 JUMPI PUSH2 0x1BB7 PUSH2 0x333F JUMP JUMPDEST JUMPDEST PUSH1 0x20 MUL PUSH1 0x20 ADD ADD MLOAD EQ DUP1 ISZERO PUSH2 0x1BE7 JUMPI POP DUP4 DUP2 PUSH1 0x2 DUP2 MLOAD DUP2 LT PUSH2 0x1BDD JUMPI PUSH2 0x1BDC PUSH2 0x333F JUMP JUMPDEST JUMPDEST PUSH1 0x20 MUL PUSH1 0x20 ADD ADD MLOAD EQ JUMPDEST ISZERO PUSH2 0x1E02 JUMPI DUP10 PUSH1 0x1 DUP2 MLOAD DUP2 LT PUSH2 0x1C00 JUMPI PUSH2 0x1BFF PUSH2 0x333F JUMP JUMPDEST JUMPDEST PUSH1 0x20 MUL PUSH1 0x20 ADD ADD MLOAD DUP6 PUSH2 0x1C13 SWAP2 SWAP1 PUSH2 0x3428 JUMP JUMPDEST SWAP5 POP DUP10 PUSH1 0x2 DUP2 MLOAD DUP2 LT PUSH2 0x1C29 JUMPI PUSH2 0x1C28 PUSH2 0x333F JUMP JUMPDEST JUMPDEST PUSH1 0x20 MUL PUSH1 0x20 ADD ADD MLOAD DUP5 PUSH2 0x1C3C SWAP2 SWAP1 PUSH2 0x3428 JUMP JUMPDEST SWAP4 POP DUP10 PUSH1 0x1 DUP2 MLOAD DUP2 LT PUSH2 0x1C52 JUMPI PUSH2 0x1C51 PUSH2 0x333F JUMP JUMPDEST JUMPDEST PUSH1 0x20 MUL PUSH1 0x20 ADD ADD MLOAD DUP6 PUSH2 0x1C65 SWAP2 SWAP1 PUSH2 0x347E JUMP JUMPDEST PUSH1 0x0 DUP2 SWAP1 SSTORE POP DUP4 DUP6 GT ISZERO PUSH2 0x1D3C JUMPI PUSH32 0x0 PUSH1 0x2 PUSH1 0x0 PUSH2 0x100 EXP DUP2 SLOAD DUP2 PUSH20 0xFFFFFFFFFFFFFFFFFFFFFFFFFFFFFFFFFFFFFFFF MUL NOT AND SWAP1 DUP4 PUSH20 0xFFFFFFFFFFFFFFFFFFFFFFFFFFFFFFFFFFFFFFFF AND MUL OR SWAP1 SSTORE POP PUSH32 0x0 PUSH20 0xFFFFFFFFFFFFFFFFFFFFFFFFFFFFFFFFFFFFFFFF AND PUSH32 0x3C87360DCE5C6F26147DAF6A9E168E80A4C7199E9AA7CBD7A874094804C361B4 PUSH1 0x40 MLOAD PUSH1 0x40 MLOAD DUP1 SWAP2 SUB SWAP1 LOG2 PUSH2 0x1E01 JUMP JUMPDEST PUSH32 0x0 PUSH1 0x2 PUSH1 0x0 PUSH2 0x100 EXP DUP2 SLOAD DUP2 PUSH20 0xFFFFFFFFFFFFFFFFFFFFFFFFFFFFFFFFFFFFFFFF MUL NOT AND SWAP1 DUP4 PUSH20 0xFFFFFFFFFFFFFFFFFFFFFFFFFFFFFFFFFFFFFFFF AND MUL OR SWAP1 SSTORE POP PUSH32 0x0 PUSH20 0xFFFFFFFFFFFFFFFFFFFFFFFFFFFFFFFFFFFFFFFF AND PUSH32 0x3C87360DCE5C6F26147DAF6A9E168E80A4C7199E9AA7CBD7A874094804C361B4 PUSH1 0x40 MLOAD PUSH1 0x40 MLOAD DUP1 SWAP2 SUB SWAP1 LOG2 JUMPDEST JUMPDEST DUP5 DUP2 PUSH1 0x2 DUP2 MLOAD DUP2 LT PUSH2 0x1E17 JUMPI PUSH2 0x1E16 PUSH2 0x333F JUMP JUMPDEST JUMPDEST PUSH1 0x20 MUL PUSH1 0x20 ADD ADD MLOAD EQ DUP1 ISZERO PUSH2 0x1E46 JUMPI POP DUP3 DUP2 PUSH1 0x2 DUP2 MLOAD DUP2 LT PUSH2 0x1E3C JUMPI PUSH2 0x1E3B PUSH2 0x333F JUMP JUMPDEST JUMPDEST PUSH1 0x20 MUL PUSH1 0x20 ADD ADD MLOAD EQ JUMPDEST ISZERO PUSH2 0x2061 JUMPI DUP10 PUSH1 0x1 DUP2 MLOAD DUP2 LT PUSH2 0x1E5F JUMPI PUSH2 0x1E5E PUSH2 0x333F JUMP JUMPDEST JUMPDEST PUSH1 0x20 MUL PUSH1 0x20 ADD ADD MLOAD DUP6 PUSH2 0x1E72 SWAP2 SWAP1 PUSH2 0x3428 JUMP JUMPDEST SWAP5 POP DUP10 PUSH1 0x2 DUP2 MLOAD DUP2 LT PUSH2 0x1E88 JUMPI PUSH2 0x1E87 PUSH2 0x333F JUMP JUMPDEST JUMPDEST PUSH1 0x20 MUL PUSH1 0x20 ADD ADD MLOAD DUP4 PUSH2 0x1E9B SWAP2 SWAP1 PUSH2 0x3428 JUMP JUMPDEST SWAP3 POP DUP10 PUSH1 0x1 DUP2 MLOAD DUP2 LT PUSH2 0x1EB1 JUMPI PUSH2 0x1EB0 PUSH2 0x333F JUMP JUMPDEST JUMPDEST PUSH1 0x20 MUL PUSH1 0x20 ADD ADD MLOAD DUP6 PUSH2 0x1EC4 SWAP2 SWAP1 PUSH2 0x347E JUMP JUMPDEST PUSH1 0x0 DUP2 SWAP1 SSTORE POP DUP3 DUP6 GT ISZERO PUSH2 0x1F9B JUMPI PUSH32 0x0 PUSH1 0x2 PUSH1 0x0 PUSH2 0x100 EXP DUP2 SLOAD DUP2 PUSH20 0xFFFFFFFFFFFFFFFFFFFFFFFFFFFFFFFFFFFFFFFF MUL NOT AND SWAP1 DUP4 PUSH20 0xFFFFFFFFFFFFFFFFFFFFFFFFFFFFFFFFFFFFFFFF AND MUL OR SWAP1 SSTORE POP PUSH32 0x0 PUSH20 0xFFFFFFFFFFFFFFFFFFFFFFFFFFFFFFFFFFFFFFFF AND PUSH32 0x3C87360DCE5C6F26147DAF6A9E168E80A4C7199E9AA7CBD7A874094804C361B4 PUSH1 0x40 MLOAD PUSH1 0x40 MLOAD DUP1 SWAP2 SUB SWAP1 LOG2 PUSH2 0x2060 JUMP JUMPDEST PUSH32 0x0 PUSH1 0x2 PUSH1 0x0 PUSH2 0x100 EXP DUP2 SLOAD DUP2 PUSH20 0xFFFFFFFFFFFFFFFFFFFFFFFFFFFFFFFFFFFFFFFF MUL NOT AND SWAP1 DUP4 PUSH20 0xFFFFFFFFFFFFFFFFFFFFFFFFFFFFFFFFFFFFFFFF AND MUL OR SWAP1 SSTORE POP PUSH32 0x0 PUSH20 0xFFFFFFFFFFFFFFFFFFFFFFFFFFFFFFFFFFFFFFFF AND PUSH32 0x3C87360DCE5C6F26147DAF6A9E168E80A4C7199E9AA7CBD7A874094804C361B4 PUSH1 0x40 MLOAD PUSH1 0x40 MLOAD DUP1 SWAP2 SUB SWAP1 LOG2 JUMPDEST JUMPDEST DUP4 DUP2 PUSH1 0x2 DUP2 MLOAD DUP2 LT PUSH2 0x2076 JUMPI PUSH2 0x2075 PUSH2 0x333F JUMP JUMPDEST JUMPDEST PUSH1 0x20 MUL PUSH1 0x20 ADD ADD MLOAD EQ DUP1 ISZERO PUSH2 0x20A5 JUMPI POP DUP3 DUP2 PUSH1 0x2 DUP2 MLOAD DUP2 LT PUSH2 0x209B JUMPI PUSH2 0x209A PUSH2 0x333F JUMP JUMPDEST JUMPDEST PUSH1 0x20 MUL PUSH1 0x20 ADD ADD MLOAD EQ JUMPDEST ISZERO PUSH2 0x22C0 JUMPI DUP10 PUSH1 0x1 DUP2 MLOAD DUP2 LT PUSH2 0x20BE JUMPI PUSH2 0x20BD PUSH2 0x333F JUMP JUMPDEST JUMPDEST PUSH1 0x20 MUL PUSH1 0x20 ADD ADD MLOAD DUP5 PUSH2 0x20D1 SWAP2 SWAP1 PUSH2 0x3428 JUMP JUMPDEST SWAP4 POP DUP10 PUSH1 0x2 DUP2 MLOAD DUP2 LT PUSH2 0x20E7 JUMPI PUSH2 0x20E6 PUSH2 0x333F JUMP JUMPDEST JUMPDEST PUSH1 0x20 MUL PUSH1 0x20 ADD ADD MLOAD DUP4 PUSH2 0x20FA SWAP2 SWAP1 PUSH2 0x3428 JUMP JUMPDEST SWAP3 POP DUP10 PUSH1 0x1 DUP2 MLOAD DUP2 LT PUSH2 0x2110 JUMPI PUSH2 0x210F PUSH2 0x333F JUMP JUMPDEST JUMPDEST PUSH1 0x20 MUL PUSH1 0x20 ADD ADD MLOAD DUP5 PUSH2 0x2123 SWAP2 SWAP1 PUSH2 0x347E JUMP JUMPDEST PUSH1 0x0 DUP2 SWAP1 SSTORE POP DUP3 DUP5 GT ISZERO PUSH2 0x21FA JUMPI PUSH32 0x0 PUSH1 0x2 PUSH1 0x0 PUSH2 0x100 EXP DUP2 SLOAD DUP2 PUSH20 0xFFFFFFFFFFFFFFFFFFFFFFFFFFFFFFFFFFFFFFFF MUL NOT AND SWAP1 DUP4 PUSH20 0xFFFFFFFFFFFFFFFFFFFFFFFFFFFFFFFFFFFFFFFF AND MUL OR SWAP1 SSTORE POP PUSH32 0x0 PUSH20 0xFFFFFFFFFFFFFFFFFFFFFFFFFFFFFFFFFFFFFFFF AND PUSH32 0x3C87360DCE5C6F26147DAF6A9E168E80A4C7199E9AA7CBD7A874094804C361B4 PUSH1 0x40 MLOAD PUSH1 0x40 MLOAD DUP1 SWAP2 SUB SWAP1 LOG2 PUSH2 0x22BF JUMP JUMPDEST PUSH32 0x0 PUSH1 0x2 PUSH1 0x0 PUSH2 0x100 EXP DUP2 SLOAD DUP2 PUSH20 0xFFFFFFFFFFFFFFFFFFFFFFFFFFFFFFFFFFFFFFFF MUL NOT AND SWAP1 DUP4 PUSH20 0xFFFFFFFFFFFFFFFFFFFFFFFFFFFFFFFFFFFFFFFF AND MUL OR SWAP1 SSTORE POP PUSH32 0x0 PUSH20 0xFFFFFFFFFFFFFFFFFFFFFFFFFFFFFFFFFFFFFFFF AND PUSH32 0x3C87360DCE5C6F26147DAF6A9E168E80A4C7199E9AA7CBD7A874094804C361B4 PUSH1 0x40 MLOAD PUSH1 0x40 MLOAD DUP1 SWAP2 SUB SWAP1 LOG2 JUMPDEST JUMPDEST PUSH2 0x2563 JUMP JUMPDEST DUP4 DUP6 GT DUP1 ISZERO PUSH2 0x22D3 JUMPI POP DUP3 DUP6 GT JUMPDEST ISZERO PUSH2 0x23A4 JUMPI DUP5 PUSH1 0x0 DUP2 SWAP1 SSTORE POP PUSH32 0x0 PUSH1 0x2 PUSH1 0x0 PUSH2 0x100 EXP DUP2 SLOAD DUP2 PUSH20 0xFFFFFFFFFFFFFFFFFFFFFFFFFFFFFFFFFFFFFFFF MUL NOT AND SWAP1 DUP4 PUSH20 0xFFFFFFFFFFFFFFFFFFFFFFFFFFFFFFFFFFFFFFFF AND MUL OR SWAP1 SSTORE POP PUSH32 0x0 PUSH20 0xFFFFFFFFFFFFFFFFFFFFFFFFFFFFFFFFFFFFFFFF AND PUSH32 0x3C87360DCE5C6F26147DAF6A9E168E80A4C7199E9AA7CBD7A874094804C361B4 PUSH1 0x40 MLOAD PUSH1 0x40 MLOAD DUP1 SWAP2 SUB SWAP1 LOG2 JUMPDEST DUP5 DUP5 GT DUP1 ISZERO PUSH2 0x23B2 JUMPI POP DUP3 DUP5 GT JUMPDEST ISZERO PUSH2 0x2483 JUMPI DUP4 PUSH1 0x0 DUP2 SWAP1 SSTORE POP PUSH32 0x0 PUSH1 0x2 PUSH1 0x0 PUSH2 0x100 EXP DUP2 SLOAD DUP2 PUSH20 0xFFFFFFFFFFFFFFFFFFFFFFFFFFFFFFFFFFFFFFFF MUL NOT AND SWAP1 DUP4 PUSH20 0xFFFFFFFFFFFFFFFFFFFFFFFFFFFFFFFFFFFFFFFF AND MUL OR SWAP1 SSTORE POP PUSH32 0x0 PUSH20 0xFFFFFFFFFFFFFFFFFFFFFFFFFFFFFFFFFFFFFFFF AND PUSH32 0x3C87360DCE5C6F26147DAF6A9E168E80A4C7199E9AA7CBD7A874094804C361B4 PUSH1 0x40 MLOAD PUSH1 0x40 MLOAD DUP1 SWAP2 SUB SWAP1 LOG2 JUMPDEST DUP5 DUP4 GT DUP1 ISZERO PUSH2 0x2491 JUMPI POP DUP4 DUP4 GT JUMPDEST ISZERO PUSH2 0x2562 JUMPI DUP3 PUSH1 0x0 DUP2 SWAP1 SSTORE POP PUSH32 0x0 PUSH1 0x2 PUSH1 0x0 PUSH2 0x100 EXP DUP2 SLOAD DUP2 PUSH20 0xFFFFFFFFFFFFFFFFFFFFFFFFFFFFFFFFFFFFFFFF MUL NOT AND SWAP1 DUP4 PUSH20 0xFFFFFFFFFFFFFFFFFFFFFFFFFFFFFFFFFFFFFFFF AND MUL OR SWAP1 SSTORE POP PUSH32 0x0 PUSH20 0xFFFFFFFFFFFFFFFFFFFFFFFFFFFFFFFFFFFFFFFF AND PUSH32 0x3C87360DCE5C6F26147DAF6A9E168E80A4C7199E9AA7CBD7A874094804C361B4 PUSH1 0x40 MLOAD PUSH1 0x40 MLOAD DUP1 SWAP2 SUB SWAP1 LOG2 JUMPDEST JUMPDEST DUP8 PUSH20 0xFFFFFFFFFFFFFFFFFFFFFFFFFFFFFFFFFFFFFFFF AND PUSH32 0x5B690EC4A06FE979403046EAEEA5B3CE38524683C3001F662C8B5A829632F7DF PUSH1 0x40 MLOAD PUSH1 0x40 MLOAD DUP1 SWAP2 SUB SWAP1 LOG2 POP POP POP POP POP POP POP POP POP POP POP JUMP JUMPDEST PUSH1 0x0 PUSH1 0x5 PUSH1 0x0 PUSH32 0x0 PUSH20 0xFFFFFFFFFFFFFFFFFFFFFFFFFFFFFFFFFFFFFFFF AND PUSH20 0xFFFFFFFFFFFFFFFFFFFFFFFFFFFFFFFFFFFFFFFF AND DUP2 MSTORE PUSH1 0x20 ADD SWAP1 DUP2 MSTORE PUSH1 0x20 ADD PUSH1 0x0 KECCAK256 SLOAD PUSH1 0x5 PUSH1 0x0 PUSH32 0x0 PUSH20 0xFFFFFFFFFFFFFFFFFFFFFFFFFFFFFFFFFFFFFFFF AND PUSH20 0xFFFFFFFFFFFFFFFFFFFFFFFFFFFFFFFFFFFFFFFF AND DUP2 MSTORE PUSH1 0x20 ADD SWAP1 DUP2 MSTORE PUSH1 0x20 ADD PUSH1 0x0 KECCAK256 SLOAD EQ DUP1 PUSH2 0x273E JUMPI POP PUSH1 0x5 PUSH1 0x0 PUSH32 0x0 PUSH20 0xFFFFFFFFFFFFFFFFFFFFFFFFFFFFFFFFFFFFFFFF AND PUSH20 0xFFFFFFFFFFFFFFFFFFFFFFFFFFFFFFFFFFFFFFFF AND DUP2 MSTORE PUSH1 0x20 ADD SWAP1 DUP2 MSTORE PUSH1 0x20 ADD PUSH1 0x0 KECCAK256 SLOAD PUSH1 0x5 PUSH1 0x0 PUSH32 0x0 PUSH20 0xFFFFFFFFFFFFFFFFFFFFFFFFFFFFFFFFFFFFFFFF AND PUSH20 0xFFFFFFFFFFFFFFFFFFFFFFFFFFFFFFFFFFFFFFFF AND DUP2 MSTORE PUSH1 0x20 ADD SWAP1 DUP2 MSTORE PUSH1 0x20 ADD PUSH1 0x0 KECCAK256 SLOAD EQ JUMPDEST DUP1 PUSH2 0x2806 JUMPI POP PUSH1 0x5 PUSH1 0x0 PUSH32 0x0 PUSH20 0xFFFFFFFFFFFFFFFFFFFFFFFFFFFFFFFFFFFFFFFF AND PUSH20 0xFFFFFFFFFFFFFFFFFFFFFFFFFFFFFFFFFFFFFFFF AND DUP2 MSTORE PUSH1 0x20 ADD SWAP1 DUP2 MSTORE PUSH1 0x20 ADD PUSH1 0x0 KECCAK256 SLOAD PUSH1 0x5 PUSH1 0x0 PUSH32 0x0 PUSH20 0xFFFFFFFFFFFFFFFFFFFFFFFFFFFFFFFFFFFFFFFF AND PUSH20 0xFFFFFFFFFFFFFFFFFFFFFFFFFFFFFFFFFFFFFFFF AND DUP2 MSTORE PUSH1 0x20 ADD SWAP1 DUP2 MSTORE PUSH1 0x20 ADD PUSH1 0x0 KECCAK256 SLOAD EQ JUMPDEST ISZERO PUSH2 0x2810 JUMPI PUSH1 0x1 SWAP1 POP JUMPDEST SWAP1 JUMP JUMPDEST PUSH1 0x60 PUSH2 0x282E DUP3 PUSH1 0x0 PUSH1 0x1 DUP6 MLOAD PUSH2 0x2829 SWAP2 SWAP1 PUSH2 0x347E JUMP JUMPDEST PUSH2 0x2836 JUMP JUMPDEST DUP2 SWAP1 POP SWAP2 SWAP1 POP JUMP JUMPDEST PUSH1 0x0 DUP3 SWAP1 POP PUSH1 0x0 DUP3 SWAP1 POP DUP1 DUP3 SUB PUSH2 0x284E JUMPI POP POP PUSH2 0x29CC JUMP JUMPDEST PUSH1 0x0 DUP6 PUSH1 0x2 DUP7 DUP7 PUSH2 0x285F SWAP2 SWAP1 PUSH2 0x34BC JUMP JUMPDEST PUSH2 0x2869 SWAP2 SWAP1 PUSH2 0x3550 JUMP JUMPDEST DUP7 PUSH2 0x2874 SWAP2 SWAP1 PUSH2 0x35BA JUMP JUMPDEST DUP2 MLOAD DUP2 LT PUSH2 0x2885 JUMPI PUSH2 0x2884 PUSH2 0x333F JUMP JUMPDEST JUMPDEST PUSH1 0x20 MUL PUSH1 0x20 ADD ADD MLOAD SWAP1 POP JUMPDEST DUP2 DUP4 SGT PUSH2 0x29A0 JUMPI JUMPDEST DUP1 DUP7 DUP5 DUP2 MLOAD DUP2 LT PUSH2 0x28AC JUMPI PUSH2 0x28AB PUSH2 0x333F JUMP JUMPDEST JUMPDEST PUSH1 0x20 MUL PUSH1 0x20 ADD ADD MLOAD LT ISZERO PUSH2 0x28CD JUMPI DUP3 DUP1 PUSH2 0x28C5 SWAP1 PUSH2 0x364E JUMP JUMPDEST SWAP4 POP POP PUSH2 0x2898 JUMP JUMPDEST JUMPDEST DUP6 DUP3 DUP2 MLOAD DUP2 LT PUSH2 0x28E1 JUMPI PUSH2 0x28E0 PUSH2 0x333F JUMP JUMPDEST JUMPDEST PUSH1 0x20 MUL PUSH1 0x20 ADD ADD MLOAD DUP2 LT ISZERO PUSH2 0x2903 JUMPI DUP2 DUP1 PUSH2 0x28FB SWAP1 PUSH2 0x3696 JUMP JUMPDEST SWAP3 POP POP PUSH2 0x28CE JUMP JUMPDEST DUP2 DUP4 SGT PUSH2 0x299B JUMPI DUP6 DUP3 DUP2 MLOAD DUP2 LT PUSH2 0x291D JUMPI PUSH2 0x291C PUSH2 0x333F JUMP JUMPDEST JUMPDEST PUSH1 0x20 MUL PUSH1 0x20 ADD ADD MLOAD DUP7 DUP5 DUP2 MLOAD DUP2 LT PUSH2 0x2938 JUMPI PUSH2 0x2937 PUSH2 0x333F JUMP JUMPDEST JUMPDEST PUSH1 0x20 MUL PUSH1 0x20 ADD ADD MLOAD DUP8 DUP6 DUP2 MLOAD DUP2 LT PUSH2 0x2953 JUMPI PUSH2 0x2952 PUSH2 0x333F JUMP JUMPDEST JUMPDEST PUSH1 0x20 MUL PUSH1 0x20 ADD ADD DUP9 DUP6 DUP2 MLOAD DUP2 LT PUSH2 0x296D JUMPI PUSH2 0x296C PUSH2 0x333F JUMP JUMPDEST JUMPDEST PUSH1 0x20 MUL PUSH1 0x20 ADD ADD DUP3 DUP2 MSTORE POP DUP3 DUP2 MSTORE POP POP POP DUP3 DUP1 PUSH2 0x2989 SWAP1 PUSH2 0x364E JUMP JUMPDEST SWAP4 POP POP DUP2 DUP1 PUSH2 0x2997 SWAP1 PUSH2 0x3696 JUMP JUMPDEST SWAP3 POP POP JUMPDEST PUSH2 0x2890 JUMP JUMPDEST DUP2 DUP6 SLT ISZERO PUSH2 0x29B4 JUMPI PUSH2 0x29B3 DUP7 DUP7 DUP5 PUSH2 0x2836 JUMP JUMPDEST JUMPDEST DUP4 DUP4 SLT ISZERO PUSH2 0x29C8 JUMPI PUSH2 0x29C7 DUP7 DUP5 DUP7 PUSH2 0x2836 JUMP JUMPDEST JUMPDEST POP POP POP JUMPDEST POP POP POP JUMP JUMPDEST DUP3 DUP1 SLOAD DUP3 DUP3 SSTORE SWAP1 PUSH1 0x0 MSTORE PUSH1 0x20 PUSH1 0x0 KECCAK256 SWAP1 DUP2 ADD SWAP3 DUP3 ISZERO PUSH2 0x2A4A JUMPI SWAP2 PUSH1 0x20 MUL DUP3 ADD JUMPDEST DUP3 DUP2 GT ISZERO PUSH2 0x2A49 JUMPI DUP3 MLOAD DUP3 PUSH1 0x0 PUSH2 0x100 EXP DUP2 SLOAD DUP2 PUSH20 0xFFFFFFFFFFFFFFFFFFFFFFFFFFFFFFFFFFFFFFFF MUL NOT AND SWAP1 DUP4 PUSH20 0xFFFFFFFFFFFFFFFFFFFFFFFFFFFFFFFFFFFFFFFF AND MUL OR SWAP1 SSTORE POP SWAP2 PUSH1 0x20 ADD SWAP2 SWAP1 PUSH1 0x1 ADD SWAP1 PUSH2 0x29F1 JUMP JUMPDEST JUMPDEST POP SWAP1 POP PUSH2 0x2A57 SWAP2 SWAP1 PUSH2 0x2A5B JUMP JUMPDEST POP SWAP1 JUMP JUMPDEST JUMPDEST DUP1 DUP3 GT ISZERO PUSH2 0x2A74 JUMPI PUSH1 0x0 DUP2 PUSH1 0x0 SWAP1 SSTORE POP PUSH1 0x1 ADD PUSH2 0x2A5C JUMP JUMPDEST POP SWAP1 JUMP JUMPDEST PUSH1 0x0 DUP2 SWAP1 POP SWAP2 SWAP1 POP JUMP JUMPDEST PUSH2 0x2A8B DUP2 PUSH2 0x2A78 JUMP JUMPDEST DUP3 MSTORE POP POP JUMP JUMPDEST PUSH1 0x0 PUSH1 0x20 DUP3 ADD SWAP1 POP PUSH2 0x2AA6 PUSH1 0x0 DUP4 ADD DUP5 PUSH2 0x2A82 JUMP JUMPDEST SWAP3 SWAP2 POP POP JUMP JUMPDEST PUSH32 0x4E487B7100000000000000000000000000000000000000000000000000000000 PUSH1 0x0 MSTORE PUSH1 0x21 PUSH1 0x4 MSTORE PUSH1 0x24 PUSH1 0x0 REVERT JUMPDEST PUSH1 0x3 DUP2 LT PUSH2 0x2AEC JUMPI PUSH2 0x2AEB PUSH2 0x2AAC JUMP JUMPDEST JUMPDEST POP JUMP JUMPDEST PUSH1 0x0 DUP2 SWAP1 POP PUSH2 0x2AFD DUP3 PUSH2 0x2ADB JUMP JUMPDEST SWAP2 SWAP1 POP JUMP JUMPDEST PUSH1 0x0 PUSH2 0x2B0D DUP3 PUSH2 0x2AEF JUMP JUMPDEST SWAP1 POP SWAP2 SWAP1 POP JUMP JUMPDEST PUSH2 0x2B1D DUP2 PUSH2 0x2B02 JUMP JUMPDEST DUP3 MSTORE POP POP JUMP JUMPDEST PUSH1 0x0 PUSH1 0x20 DUP3 ADD SWAP1 POP PUSH2 0x2B38 PUSH1 0x0 DUP4 ADD DUP5 PUSH2 0x2B14 JUMP JUMPDEST SWAP3 SWAP2 POP POP JUMP JUMPDEST PUSH1 0x0 PUSH1 0x40 MLOAD SWAP1 POP SWAP1 JUMP JUMPDEST PUSH1 0x0 DUP1 REVERT JUMPDEST PUSH1 0x0 DUP1 REVERT JUMPDEST PUSH2 0x2B5B DUP2 PUSH2 0x2A78 JUMP JUMPDEST DUP2 EQ PUSH2 0x2B66 JUMPI PUSH1 0x0 DUP1 REVERT JUMPDEST POP JUMP JUMPDEST PUSH1 0x0 DUP2 CALLDATALOAD SWAP1 POP PUSH2 0x2B78 DUP2 PUSH2 0x2B52 JUMP JUMPDEST SWAP3 SWAP2 POP POP JUMP JUMPDEST PUSH1 0x0 DUP1 REVERT JUMPDEST PUSH1 0x0 PUSH1 0x1F NOT PUSH1 0x1F DUP4 ADD AND SWAP1 POP SWAP2 SWAP1 POP JUMP JUMPDEST PUSH32 0x4E487B7100000000000000000000000000000000000000000000000000000000 PUSH1 0x0 MSTORE PUSH1 0x41 PUSH1 0x4 MSTORE PUSH1 0x24 PUSH1 0x0 REVERT JUMPDEST PUSH2 0x2BCC DUP3 PUSH2 0x2B83 JUMP JUMPDEST DUP2 ADD DUP2 DUP2 LT PUSH8 0xFFFFFFFFFFFFFFFF DUP3 GT OR ISZERO PUSH2 0x2BEB JUMPI PUSH2 0x2BEA PUSH2 0x2B94 JUMP JUMPDEST JUMPDEST DUP1 PUSH1 0x40 MSTORE POP POP POP JUMP JUMPDEST PUSH1 0x0 PUSH2 0x2BFE PUSH2 0x2B3E JUMP JUMPDEST SWAP1 POP PUSH2 0x2C0A DUP3 DUP3 PUSH2 0x2BC3 JUMP JUMPDEST SWAP2 SWAP1 POP JUMP JUMPDEST PUSH1 0x0 PUSH8 0xFFFFFFFFFFFFFFFF DUP3 GT ISZERO PUSH2 0x2C2A JUMPI PUSH2 0x2C29 PUSH2 0x2B94 JUMP JUMPDEST JUMPDEST PUSH1 0x20 DUP3 MUL SWAP1 POP PUSH1 0x20 DUP2 ADD SWAP1 POP SWAP2 SWAP1 POP JUMP JUMPDEST PUSH1 0x0 DUP1 REVERT JUMPDEST PUSH1 0x0 PUSH2 0x2C53 PUSH2 0x2C4E DUP5 PUSH2 0x2C0F JUMP JUMPDEST PUSH2 0x2BF4 JUMP JUMPDEST SWAP1 POP DUP1 DUP4 DUP3 MSTORE PUSH1 0x20 DUP3 ADD SWAP1 POP PUSH1 0x20 DUP5 MUL DUP4 ADD DUP6 DUP2 GT ISZERO PUSH2 0x2C76 JUMPI PUSH2 0x2C75 PUSH2 0x2C3B JUMP JUMPDEST JUMPDEST DUP4 JUMPDEST DUP2 DUP2 LT ISZERO PUSH2 0x2C9F JUMPI DUP1 PUSH2 0x2C8B DUP9 DUP3 PUSH2 0x2B69 JUMP JUMPDEST DUP5 MSTORE PUSH1 0x20 DUP5 ADD SWAP4 POP POP PUSH1 0x20 DUP2 ADD SWAP1 POP PUSH2 0x2C78 JUMP JUMPDEST POP POP POP SWAP4 SWAP3 POP POP POP JUMP JUMPDEST PUSH1 0x0 DUP3 PUSH1 0x1F DUP4 ADD SLT PUSH2 0x2CBE JUMPI PUSH2 0x2CBD PUSH2 0x2B7E JUMP JUMPDEST JUMPDEST DUP2 CALLDATALOAD PUSH2 0x2CCE DUP5 DUP3 PUSH1 0x20 DUP7 ADD PUSH2 0x2C40 JUMP JUMPDEST SWAP2 POP POP SWAP3 SWAP2 POP POP JUMP JUMPDEST PUSH1 0x0 DUP1 PUSH1 0x40 DUP4 DUP6 SUB SLT ISZERO PUSH2 0x2CEE JUMPI PUSH2 0x2CED PUSH2 0x2B48 JUMP JUMPDEST JUMPDEST PUSH1 0x0 PUSH2 0x2CFC DUP6 DUP3 DUP7 ADD PUSH2 0x2B69 JUMP JUMPDEST SWAP3 POP POP PUSH1 0x20 DUP4 ADD CALLDATALOAD PUSH8 0xFFFFFFFFFFFFFFFF DUP2 GT ISZERO PUSH2 0x2D1D JUMPI PUSH2 0x2D1C PUSH2 0x2B4D JUMP JUMPDEST JUMPDEST PUSH2 0x2D29 DUP6 DUP3 DUP7 ADD PUSH2 0x2CA9 JUMP JUMPDEST SWAP2 POP POP SWAP3 POP SWAP3 SWAP1 POP JUMP JUMPDEST PUSH1 0x0 PUSH1 0x20 DUP3 DUP5 SUB SLT ISZERO PUSH2 0x2D49 JUMPI PUSH2 0x2D48 PUSH2 0x2B48 JUMP JUMPDEST JUMPDEST PUSH1 0x0 PUSH2 0x2D57 DUP5 DUP3 DUP6 ADD PUSH2 0x2B69 JUMP JUMPDEST SWAP2 POP POP SWAP3 SWAP2 POP POP JUMP JUMPDEST PUSH1 0x0 DUP1 REVERT JUMPDEST PUSH1 0x0 DUP1 DUP4 PUSH1 0x1F DUP5 ADD SLT PUSH2 0x2D7B JUMPI PUSH2 0x2D7A PUSH2 0x2B7E JUMP JUMPDEST JUMPDEST DUP3 CALLDATALOAD SWAP1 POP PUSH8 0xFFFFFFFFFFFFFFFF DUP2 GT ISZERO PUSH2 0x2D98 JUMPI PUSH2 0x2D97 PUSH2 0x2D60 JUMP JUMPDEST JUMPDEST PUSH1 0x20 DUP4 ADD SWAP2 POP DUP4 PUSH1 0x1 DUP3 MUL DUP4 ADD GT ISZERO PUSH2 0x2DB4 JUMPI PUSH2 0x2DB3 PUSH2 0x2C3B JUMP JUMPDEST JUMPDEST SWAP3 POP SWAP3 SWAP1 POP JUMP JUMPDEST PUSH1 0x0 DUP1 PUSH1 0x20 DUP4 DUP6 SUB SLT ISZERO PUSH2 0x2DD2 JUMPI PUSH2 0x2DD1 PUSH2 0x2B48 JUMP JUMPDEST JUMPDEST PUSH1 0x0 DUP4 ADD CALLDATALOAD PUSH8 0xFFFFFFFFFFFFFFFF DUP2 GT ISZERO PUSH2 0x2DF0 JUMPI PUSH2 0x2DEF PUSH2 0x2B4D JUMP JUMPDEST JUMPDEST PUSH2 0x2DFC DUP6 DUP3 DUP7 ADD PUSH2 0x2D65 JUMP JUMPDEST SWAP3 POP SWAP3 POP POP SWAP3 POP SWAP3 SWAP1 POP JUMP JUMPDEST PUSH1 0x0 PUSH20 0xFFFFFFFFFFFFFFFFFFFFFFFFFFFFFFFFFFFFFFFF DUP3 AND SWAP1 POP SWAP2 SWAP1 POP JUMP JUMPDEST PUSH1 0x0 PUSH2 0x2E33 DUP3 PUSH2 0x2E08 JUMP JUMPDEST SWAP1 POP SWAP2 SWAP1 POP JUMP JUMPDEST PUSH2 0x2E43 DUP2 PUSH2 0x2E28 JUMP JUMPDEST DUP3 MSTORE POP POP JUMP JUMPDEST PUSH1 0x0 PUSH1 0x20 DUP3 ADD SWAP1 POP PUSH2 0x2E5E PUSH1 0x0 DUP4 ADD DUP5 PUSH2 0x2E3A JUMP JUMPDEST SWAP3 SWAP2 POP POP JUMP JUMPDEST PUSH1 0x0 DUP2 MLOAD SWAP1 POP SWAP2 SWAP1 POP JUMP JUMPDEST PUSH1 0x0 DUP3 DUP3 MSTORE PUSH1 0x20 DUP3 ADD SWAP1 POP SWAP3 SWAP2 POP POP JUMP JUMPDEST PUSH1 0x0 DUP2 SWAP1 POP PUSH1 0x20 DUP3 ADD SWAP1 POP SWAP2 SWAP1 POP JUMP JUMPDEST PUSH2 0x2E99 DUP2 PUSH2 0x2E28 JUMP JUMPDEST DUP3 MSTORE POP POP JUMP JUMPDEST PUSH1 0x0 PUSH2 0x2EAB DUP4 DUP4 PUSH2 0x2E90 JUMP JUMPDEST PUSH1 0x20 DUP4 ADD SWAP1 POP SWAP3 SWAP2 POP POP JUMP JUMPDEST PUSH1 0x0 PUSH1 0x20 DUP3 ADD SWAP1 POP SWAP2 SWAP1 POP JUMP JUMPDEST PUSH1 0x0 PUSH2 0x2ECF DUP3 PUSH2 0x2E64 JUMP JUMPDEST PUSH2 0x2ED9 DUP2 DUP6 PUSH2 0x2E6F JUMP JUMPDEST SWAP4 POP PUSH2 0x2EE4 DUP4 PUSH2 0x2E80 JUMP JUMPDEST DUP1 PUSH1 0x0 JUMPDEST DUP4 DUP2 LT ISZERO PUSH2 0x2F15 JUMPI DUP2 MLOAD PUSH2 0x2EFC DUP9 DUP3 PUSH2 0x2E9F JUMP JUMPDEST SWAP8 POP PUSH2 0x2F07 DUP4 PUSH2 0x2EB7 JUMP JUMPDEST SWAP3 POP POP PUSH1 0x1 DUP2 ADD SWAP1 POP PUSH2 0x2EE8 JUMP JUMPDEST POP DUP6 SWAP4 POP POP POP POP SWAP3 SWAP2 POP POP JUMP JUMPDEST PUSH1 0x0 PUSH1 0x20 DUP3 ADD SWAP1 POP DUP2 DUP2 SUB PUSH1 0x0 DUP4 ADD MSTORE PUSH2 0x2F3C DUP2 DUP5 PUSH2 0x2EC4 JUMP JUMPDEST SWAP1 POP SWAP3 SWAP2 POP POP JUMP JUMPDEST PUSH1 0x0 DUP1 REVERT JUMPDEST PUSH1 0x0 PUSH8 0xFFFFFFFFFFFFFFFF DUP3 GT ISZERO PUSH2 0x2F64 JUMPI PUSH2 0x2F63 PUSH2 0x2B94 JUMP JUMPDEST JUMPDEST PUSH2 0x2F6D DUP3 PUSH2 0x2B83 JUMP JUMPDEST SWAP1 POP PUSH1 0x20 DUP2 ADD SWAP1 POP SWAP2 SWAP1 POP JUMP JUMPDEST DUP3 DUP2 DUP4 CALLDATACOPY PUSH1 0x0 DUP4 DUP4 ADD MSTORE POP POP POP JUMP JUMPDEST PUSH1 0x0 PUSH2 0x2F9C PUSH2 0x2F97 DUP5 PUSH2 0x2F49 JUMP JUMPDEST PUSH2 0x2BF4 JUMP JUMPDEST SWAP1 POP DUP3 DUP2 MSTORE PUSH1 0x20 DUP2 ADD DUP5 DUP5 DUP5 ADD GT ISZERO PUSH2 0x2FB8 JUMPI PUSH2 0x2FB7 PUSH2 0x2F44 JUMP JUMPDEST JUMPDEST PUSH2 0x2FC3 DUP5 DUP3 DUP6 PUSH2 0x2F7A JUMP JUMPDEST POP SWAP4 SWAP3 POP POP POP JUMP JUMPDEST PUSH1 0x0 DUP3 PUSH1 0x1F DUP4 ADD SLT PUSH2 0x2FE0 JUMPI PUSH2 0x2FDF PUSH2 0x2B7E JUMP JUMPDEST JUMPDEST DUP2 CALLDATALOAD PUSH2 0x2FF0 DUP5 DUP3 PUSH1 0x20 DUP7 ADD PUSH2 0x2F89 JUMP JUMPDEST SWAP2 POP POP SWAP3 SWAP2 POP POP JUMP JUMPDEST PUSH1 0x0 PUSH1 0x20 DUP3 DUP5 SUB SLT ISZERO PUSH2 0x300F JUMPI PUSH2 0x300E PUSH2 0x2B48 JUMP JUMPDEST JUMPDEST PUSH1 0x0 DUP3 ADD CALLDATALOAD PUSH8 0xFFFFFFFFFFFFFFFF DUP2 GT ISZERO PUSH2 0x302D JUMPI PUSH2 0x302C PUSH2 0x2B4D JUMP JUMPDEST JUMPDEST PUSH2 0x3039 DUP5 DUP3 DUP6 ADD PUSH2 0x2FCB JUMP JUMPDEST SWAP2 POP POP SWAP3 SWAP2 POP POP JUMP JUMPDEST PUSH1 0x0 DUP2 ISZERO ISZERO SWAP1 POP SWAP2 SWAP1 POP JUMP JUMPDEST PUSH2 0x3057 DUP2 PUSH2 0x3042 JUMP JUMPDEST DUP3 MSTORE POP POP JUMP JUMPDEST PUSH1 0x0 DUP2 MLOAD SWAP1 POP SWAP2 SWAP1 POP JUMP JUMPDEST PUSH1 0x0 DUP3 DUP3 MSTORE PUSH1 0x20 DUP3 ADD SWAP1 POP SWAP3 SWAP2 POP POP JUMP JUMPDEST PUSH1 0x0 JUMPDEST DUP4 DUP2 LT ISZERO PUSH2 0x3097 JUMPI DUP1 DUP3 ADD MLOAD DUP2 DUP5 ADD MSTORE PUSH1 0x20 DUP2 ADD SWAP1 POP PUSH2 0x307C JUMP JUMPDEST DUP4 DUP2 GT ISZERO PUSH2 0x30A6 JUMPI PUSH1 0x0 DUP5 DUP5 ADD MSTORE JUMPDEST POP POP POP POP JUMP JUMPDEST PUSH1 0x0 PUSH2 0x30B7 DUP3 PUSH2 0x305D JUMP JUMPDEST PUSH2 0x30C1 DUP2 DUP6 PUSH2 0x3068 JUMP JUMPDEST SWAP4 POP PUSH2 0x30D1 DUP2 DUP6 PUSH1 0x20 DUP7 ADD PUSH2 0x3079 JUMP JUMPDEST PUSH2 0x30DA DUP2 PUSH2 0x2B83 JUMP JUMPDEST DUP5 ADD SWAP2 POP POP SWAP3 SWAP2 POP POP JUMP JUMPDEST PUSH1 0x0 PUSH1 0x40 DUP3 ADD SWAP1 POP PUSH2 0x30FA PUSH1 0x0 DUP4 ADD DUP6 PUSH2 0x304E JUMP JUMPDEST DUP2 DUP2 SUB PUSH1 0x20 DUP4 ADD MSTORE PUSH2 0x310C DUP2 DUP5 PUSH2 0x30AC JUMP JUMPDEST SWAP1 POP SWAP4 SWAP3 POP POP POP JUMP JUMPDEST PUSH1 0x0 PUSH1 0x40 DUP3 ADD SWAP1 POP PUSH2 0x312A PUSH1 0x0 DUP4 ADD DUP6 PUSH2 0x2E3A JUMP JUMPDEST PUSH2 0x3137 PUSH1 0x20 DUP4 ADD DUP5 PUSH2 0x2E3A JUMP JUMPDEST SWAP4 SWAP3 POP POP POP JUMP JUMPDEST PUSH1 0x0 DUP2 SWAP1 POP SWAP3 SWAP2 POP POP JUMP JUMPDEST POP JUMP JUMPDEST PUSH1 0x0 PUSH2 0x3159 PUSH1 0x0 DUP4 PUSH2 0x313E JUMP JUMPDEST SWAP2 POP PUSH2 0x3164 DUP3 PUSH2 0x3149 JUMP JUMPDEST PUSH1 0x0 DUP3 ADD SWAP1 POP SWAP2 SWAP1 POP JUMP JUMPDEST PUSH1 0x0 PUSH2 0x317A DUP3 PUSH2 0x314C JUMP JUMPDEST SWAP2 POP DUP2 SWAP1 POP SWAP2 SWAP1 POP JUMP JUMPDEST PUSH32 0x4E487B7100000000000000000000000000000000000000000000000000000000 PUSH1 0x0 MSTORE PUSH1 0x11 PUSH1 0x4 MSTORE PUSH1 0x24 PUSH1 0x0 REVERT JUMPDEST PUSH1 0x0 PUSH2 0x31BE DUP3 PUSH2 0x2A78 JUMP JUMPDEST SWAP2 POP PUSH32 0xFFFFFFFFFFFFFFFFFFFFFFFFFFFFFFFFFFFFFFFFFFFFFFFFFFFFFFFFFFFFFFFF DUP3 SUB PUSH2 0x31F0 JUMPI PUSH2 0x31EF PUSH2 0x3184 JUMP JUMPDEST JUMPDEST PUSH1 0x1 DUP3 ADD SWAP1 POP SWAP2 SWAP1 POP JUMP JUMPDEST PUSH1 0x0 PUSH1 0x60 DUP3 ADD SWAP1 POP PUSH2 0x3210 PUSH1 0x0 DUP4 ADD DUP7 PUSH2 0x2A82 JUMP JUMPDEST PUSH2 0x321D PUSH1 0x20 DUP4 ADD DUP6 PUSH2 0x2A82 JUMP JUMPDEST PUSH2 0x322A PUSH1 0x40 DUP4 ADD DUP5 PUSH2 0x2A82 JUMP JUMPDEST SWAP5 SWAP4 POP POP POP POP JUMP JUMPDEST PUSH1 0x0 DUP2 SWAP1 POP SWAP2 SWAP1 POP JUMP JUMPDEST PUSH2 0x3245 DUP2 PUSH2 0x3232 JUMP JUMPDEST DUP3 MSTORE POP POP JUMP JUMPDEST PUSH1 0x0 PUSH8 0xFFFFFFFFFFFFFFFF DUP3 AND SWAP1 POP SWAP2 SWAP1 POP JUMP JUMPDEST PUSH2 0x3268 DUP2 PUSH2 0x324B JUMP JUMPDEST DUP3 MSTORE POP POP JUMP JUMPDEST PUSH1 0x0 PUSH2 0xFFFF DUP3 AND SWAP1 POP SWAP2 SWAP1 POP JUMP JUMPDEST PUSH2 0x3285 DUP2 PUSH2 0x326E JUMP JUMPDEST DUP3 MSTORE POP POP JUMP JUMPDEST PUSH1 0x0 PUSH4 0xFFFFFFFF DUP3 AND SWAP1 POP SWAP2 SWAP1 POP JUMP JUMPDEST PUSH2 0x32A4 DUP2 PUSH2 0x328B JUMP JUMPDEST DUP3 MSTORE POP POP JUMP JUMPDEST PUSH1 0x0 PUSH1 0xA0 DUP3 ADD SWAP1 POP PUSH2 0x32BF PUSH1 0x0 DUP4 ADD DUP9 PUSH2 0x323C JUMP JUMPDEST PUSH2 0x32CC PUSH1 0x20 DUP4 ADD DUP8 PUSH2 0x325F JUMP JUMPDEST PUSH2 0x32D9 PUSH1 0x40 DUP4 ADD DUP7 PUSH2 0x327C JUMP JUMPDEST PUSH2 0x32E6 PUSH1 0x60 DUP4 ADD DUP6 PUSH2 0x329B JUMP JUMPDEST PUSH2 0x32F3 PUSH1 0x80 DUP4 ADD DUP5 PUSH2 0x329B JUMP JUMPDEST SWAP7 SWAP6 POP POP POP POP POP POP JUMP JUMPDEST PUSH1 0x0 DUP2 MLOAD SWAP1 POP PUSH2 0x330C DUP2 PUSH2 0x2B52 JUMP JUMPDEST SWAP3 SWAP2 POP POP JUMP JUMPDEST PUSH1 0x0 PUSH1 0x20 DUP3 DUP5 SUB SLT ISZERO PUSH2 0x3328 JUMPI PUSH2 0x3327 PUSH2 0x2B48 JUMP JUMPDEST JUMPDEST PUSH1 0x0 PUSH2 0x3336 DUP5 DUP3 DUP6 ADD PUSH2 0x32FD JUMP JUMPDEST SWAP2 POP POP SWAP3 SWAP2 POP POP JUMP JUMPDEST PUSH32 0x4E487B7100000000000000000000000000000000000000000000000000000000 PUSH1 0x0 MSTORE PUSH1 0x32 PUSH1 0x4 MSTORE PUSH1 0x24 PUSH1 0x0 REVERT JUMPDEST PUSH1 0x0 PUSH2 0x3379 DUP3 PUSH2 0x2A78 JUMP JUMPDEST SWAP2 POP PUSH2 0x3384 DUP4 PUSH2 0x2A78 JUMP JUMPDEST SWAP3 POP DUP2 PUSH32 0xFFFFFFFFFFFFFFFFFFFFFFFFFFFFFFFFFFFFFFFFFFFFFFFFFFFFFFFFFFFFFFFF DIV DUP4 GT DUP3 ISZERO ISZERO AND ISZERO PUSH2 0x33BD JUMPI PUSH2 0x33BC PUSH2 0x3184 JUMP JUMPDEST JUMPDEST DUP3 DUP3 MUL SWAP1 POP SWAP3 SWAP2 POP POP JUMP JUMPDEST PUSH32 0x4E487B7100000000000000000000000000000000000000000000000000000000 PUSH1 0x0 MSTORE PUSH1 0x12 PUSH1 0x4 MSTORE PUSH1 0x24 PUSH1 0x0 REVERT JUMPDEST PUSH1 0x0 PUSH2 0x3402 DUP3 PUSH2 0x2A78 JUMP JUMPDEST SWAP2 POP PUSH2 0x340D DUP4 PUSH2 0x2A78 JUMP JUMPDEST SWAP3 POP DUP3 PUSH2 0x341D JUMPI PUSH2 0x341C PUSH2 0x33C8 JUMP JUMPDEST JUMPDEST DUP3 DUP3 MOD SWAP1 POP SWAP3 SWAP2 POP POP JUMP JUMPDEST PUSH1 0x0 PUSH2 0x3433 DUP3 PUSH2 0x2A78 JUMP JUMPDEST SWAP2 POP PUSH2 0x343E DUP4 PUSH2 0x2A78 JUMP JUMPDEST SWAP3 POP DUP3 PUSH32 0xFFFFFFFFFFFFFFFFFFFFFFFFFFFFFFFFFFFFFFFFFFFFFFFFFFFFFFFFFFFFFFFF SUB DUP3 GT ISZERO PUSH2 0x3473 JUMPI PUSH2 0x3472 PUSH2 0x3184 JUMP JUMPDEST JUMPDEST DUP3 DUP3 ADD SWAP1 POP SWAP3 SWAP2 POP POP JUMP JUMPDEST PUSH1 0x0 PUSH2 0x3489 DUP3 PUSH2 0x2A78 JUMP JUMPDEST SWAP2 POP PUSH2 0x3494 DUP4 PUSH2 0x2A78 JUMP JUMPDEST SWAP3 POP DUP3 DUP3 LT ISZERO PUSH2 0x34A7 JUMPI PUSH2 0x34A6 PUSH2 0x3184 JUMP JUMPDEST JUMPDEST DUP3 DUP3 SUB SWAP1 POP SWAP3 SWAP2 POP POP JUMP JUMPDEST PUSH1 0x0 DUP2 SWAP1 POP SWAP2 SWAP1 POP JUMP JUMPDEST PUSH1 0x0 PUSH2 0x34C7 DUP3 PUSH2 0x34B2 JUMP JUMPDEST SWAP2 POP PUSH2 0x34D2 DUP4 PUSH2 0x34B2 JUMP JUMPDEST SWAP3 POP DUP3 PUSH32 0x8000000000000000000000000000000000000000000000000000000000000000 ADD DUP3 SLT PUSH1 0x0 DUP5 SLT ISZERO AND ISZERO PUSH2 0x350D JUMPI PUSH2 0x350C PUSH2 0x3184 JUMP JUMPDEST JUMPDEST DUP3 PUSH32 0x7FFFFFFFFFFFFFFFFFFFFFFFFFFFFFFFFFFFFFFFFFFFFFFFFFFFFFFFFFFFFFFF ADD DUP3 SGT PUSH1 0x0 DUP5 SLT AND ISZERO PUSH2 0x3545 JUMPI PUSH2 0x3544 PUSH2 0x3184 JUMP JUMPDEST JUMPDEST DUP3 DUP3 SUB SWAP1 POP SWAP3 SWAP2 POP POP JUMP JUMPDEST PUSH1 0x0 PUSH2 0x355B DUP3 PUSH2 0x34B2 JUMP JUMPDEST SWAP2 POP PUSH2 0x3566 DUP4 PUSH2 0x34B2 JUMP JUMPDEST SWAP3 POP DUP3 PUSH2 0x3576 JUMPI PUSH2 0x3575 PUSH2 0x33C8 JUMP JUMPDEST JUMPDEST PUSH1 0x1 PUSH1 0x0 SUB DUP4 EQ PUSH32 0x8000000000000000000000000000000000000000000000000000000000000000 DUP4 EQ AND ISZERO PUSH2 0x35AF JUMPI PUSH2 0x35AE PUSH2 0x3184 JUMP JUMPDEST JUMPDEST DUP3 DUP3 SDIV SWAP1 POP SWAP3 SWAP2 POP POP JUMP JUMPDEST PUSH1 0x0 PUSH2 0x35C5 DUP3 PUSH2 0x34B2 JUMP JUMPDEST SWAP2 POP PUSH2 0x35D0 DUP4 PUSH2 0x34B2 JUMP JUMPDEST SWAP3 POP DUP2 PUSH32 0x7FFFFFFFFFFFFFFFFFFFFFFFFFFFFFFFFFFFFFFFFFFFFFFFFFFFFFFFFFFFFFFF SUB DUP4 SGT PUSH1 0x0 DUP4 SLT ISZERO AND ISZERO PUSH2 0x360B JUMPI PUSH2 0x360A PUSH2 0x3184 JUMP JUMPDEST JUMPDEST DUP2 PUSH32 0x8000000000000000000000000000000000000000000000000000000000000000 SUB DUP4 SLT PUSH1 0x0 DUP4 SLT AND ISZERO PUSH2 0x3643 JUMPI PUSH2 0x3642 PUSH2 0x3184 JUMP JUMPDEST JUMPDEST DUP3 DUP3 ADD SWAP1 POP SWAP3 SWAP2 POP POP JUMP JUMPDEST PUSH1 0x0 PUSH2 0x3659 DUP3 PUSH2 0x34B2 JUMP JUMPDEST SWAP2 POP PUSH32 0x7FFFFFFFFFFFFFFFFFFFFFFFFFFFFFFFFFFFFFFFFFFFFFFFFFFFFFFFFFFFFFFF DUP3 SUB PUSH2 0x368B JUMPI PUSH2 0x368A PUSH2 0x3184 JUMP JUMPDEST JUMPDEST PUSH1 0x1 DUP3 ADD SWAP1 POP SWAP2 SWAP1 POP JUMP JUMPDEST PUSH1 0x0 PUSH2 0x36A1 DUP3 PUSH2 0x34B2 JUMP JUMPDEST SWAP2 POP PUSH32 0x8000000000000000000000000000000000000000000000000000000000000000 DUP3 SUB PUSH2 0x36D3 JUMPI PUSH2 0x36D2 PUSH2 0x3184 JUMP JUMPDEST JUMPDEST PUSH1 0x1 DUP3 SUB SWAP1 POP SWAP2 SWAP1 POP JUMP INVALID LOG2 PUSH5 0x6970667358 0x22 SLT KECCAK256 CALLVALUE ADDRESS 0xE SIGNEXTEND CALLDATALOAD 0x4D PUSH15 0xF0AA41263870CC364EDD734F2A569E 0xAE SWAP2 0xAD CALLCODE DIV 0x22 0xB9 DUP10 SWAP16 CHAINID PUSH5 0x736F6C6343 STOP ADDMOD 0xE STOP CALLER "
		},
		"gasEstimates": {
			"creation": {
				"codeDepositCost": "2820000",
				"executionCost": "infinite",
				"totalCost": "infinite"
			},
			"external": {
				"checkUpkeep(bytes)": "infinite",
				"enterRaffle(uint256)": "infinite",
				"getAllPlayers()": "infinite",
				"getCharities()": "infinite",
				"getCharityWinner()": "2589",
				"getEntranceFee()": "infinite",
				"getFundingWallet()": "infinite",
				"getHighestDonations()": "2525",
				"getJackpot()": "infinite",
				"getNumWords()": "432",
				"getNumberOfPlayers()": "2555",
				"getPlayer(uint256)": "5011",
				"getRaffleState()": "2614",
				"getRecentWinner()": "2567",
				"getRequestConfirmations()": "454",
				"matchDonations()": "infinite",
				"performUpkeep(bytes)": "infinite",
				"rawFulfillRandomWords(uint256,uint256[])": "infinite"
			},
			"internal": {
				"checkForTie()": "infinite",
				"fulfillRandomWords(uint256,uint256[] memory)": "infinite",
				"quickSort(uint256[] memory,int256,int256)": "infinite",
				"sort(uint256[] memory)": "infinite"
			}
		},
		"methodIdentifiers": {
			"checkUpkeep(bytes)": "6e04ff0d",
			"enterRaffle(uint256)": "2e519f90",
			"getAllPlayers()": "efa1c482",
			"getCharities()": "48112c6f",
			"getCharityWinner()": "855c289c",
			"getEntranceFee()": "09bc33a7",
			"getFundingWallet()": "6846af76",
			"getHighestDonations()": "f975cb39",
			"getJackpot()": "9329066c",
			"getNumWords()": "53a2c19a",
			"getNumberOfPlayers()": "fd6673f5",
			"getPlayer(uint256)": "e55ae4e8",
			"getRaffleState()": "115cbaf5",
			"getRecentWinner()": "473f1ddc",
			"getRequestConfirmations()": "5f1b0fd8",
			"matchDonations()": "93aa87f9",
			"performUpkeep(bytes)": "4585e33b",
			"rawFulfillRandomWords(uint256,uint256[])": "1fe543e3"
		}
	},
	"abi": [
		{
			"inputs": [
				{
					"internalType": "address",
					"name": "vrfCoordinatorV2",
					"type": "address"
				},
				{
					"internalType": "uint64",
					"name": "subscriptionId",
					"type": "uint64"
				},
				{
					"internalType": "bytes32",
					"name": "gasLane",
					"type": "bytes32"
				},
				{
					"internalType": "uint256",
					"name": "entranceFee",
					"type": "uint256"
				},
				{
					"internalType": "uint256",
					"name": "jackpot",
					"type": "uint256"
				},
				{
					"internalType": "uint32",
					"name": "callbackGasLimit",
					"type": "uint32"
				},
				{
					"internalType": "address",
					"name": "charity1",
					"type": "address"
				},
				{
					"internalType": "address",
					"name": "charity2",
					"type": "address"
				},
				{
					"internalType": "address",
					"name": "charity3",
					"type": "address"
				},
				{
					"internalType": "address",
					"name": "fundingWallet",
					"type": "address"
				}
			],
			"stateMutability": "nonpayable",
			"type": "constructor"
		},
		{
			"inputs": [
				{
					"internalType": "address",
					"name": "have",
					"type": "address"
				},
				{
					"internalType": "address",
					"name": "want",
					"type": "address"
				}
			],
			"name": "OnlyCoordinatorCanFulfill",
			"type": "error"
		},
		{
			"inputs": [],
			"name": "Raffle__CharityTransferFailed",
			"type": "error"
		},
		{
			"inputs": [],
			"name": "Raffle__DonationMatchFailed",
			"type": "error"
		},
		{
			"inputs": [],
			"name": "Raffle__FundingContractFailed",
			"type": "error"
		},
		{
			"inputs": [],
			"name": "Raffle__FundingToMatchTransferFailed",
			"type": "error"
		},
		{
			"inputs": [],
			"name": "Raffle__JackpotTransferFailed",
			"type": "error"
		},
		{
			"inputs": [],
			"name": "Raffle__MustBeFunder",
			"type": "error"
		},
		{
			"inputs": [],
			"name": "Raffle__RaffleNotClosed",
			"type": "error"
		},
		{
			"inputs": [],
			"name": "Raffle__RaffleNotOpen",
			"type": "error"
		},
		{
			"inputs": [],
			"name": "Raffle__SendMoreToEnterRaffle",
			"type": "error"
		},
		{
			"inputs": [
				{
					"internalType": "uint256",
					"name": "currentBalance",
					"type": "uint256"
				},
				{
					"internalType": "uint256",
					"name": "numPlayers",
					"type": "uint256"
				},
				{
					"internalType": "uint256",
					"name": "raffleState",
					"type": "uint256"
				}
			],
			"name": "Raffle__UpkeepNotNeeded",
			"type": "error"
		},
		{
			"anonymous": false,
			"inputs": [
				{
					"indexed": true,
					"internalType": "address",
					"name": "charity",
					"type": "address"
				}
			],
			"name": "CharityWinnerPicked",
			"type": "event"
		},
		{
			"anonymous": false,
			"inputs": [
				{
					"indexed": true,
					"internalType": "address",
					"name": "player",
					"type": "address"
				}
			],
			"name": "RaffleEnter",
			"type": "event"
		},
		{
			"anonymous": false,
			"inputs": [
				{
					"indexed": true,
					"internalType": "uint256",
					"name": "requestId",
					"type": "uint256"
				}
			],
			"name": "RequestedRaffleWinner",
			"type": "event"
		},
		{
			"anonymous": false,
			"inputs": [
				{
					"indexed": true,
					"internalType": "address",
					"name": "player",
					"type": "address"
				}
			],
			"name": "WinnerPicked",
			"type": "event"
		},
		{
			"inputs": [
				{
					"internalType": "bytes",
					"name": "",
					"type": "bytes"
				}
			],
			"name": "checkUpkeep",
			"outputs": [
				{
					"internalType": "bool",
					"name": "upkeepNeeded",
					"type": "bool"
				},
				{
					"internalType": "bytes",
					"name": "",
					"type": "bytes"
				}
			],
			"stateMutability": "view",
			"type": "function"
		},
		{
			"inputs": [
				{
					"internalType": "uint256",
					"name": "charityChoice",
					"type": "uint256"
				}
			],
			"name": "enterRaffle",
			"outputs": [],
			"stateMutability": "payable",
			"type": "function"
		},
		{
			"inputs": [],
			"name": "getAllPlayers",
			"outputs": [
				{
					"internalType": "address[]",
					"name": "",
					"type": "address[]"
				}
			],
			"stateMutability": "view",
			"type": "function"
		},
		{
			"inputs": [],
			"name": "getCharities",
			"outputs": [
				{
					"internalType": "address[]",
					"name": "charities",
					"type": "address[]"
				}
			],
			"stateMutability": "view",
			"type": "function"
		},
		{
			"inputs": [],
			"name": "getCharityWinner",
			"outputs": [
				{
					"internalType": "address",
					"name": "",
					"type": "address"
				}
			],
			"stateMutability": "view",
			"type": "function"
		},
		{
			"inputs": [],
			"name": "getEntranceFee",
			"outputs": [
				{
					"internalType": "uint256",
					"name": "",
					"type": "uint256"
				}
			],
			"stateMutability": "view",
			"type": "function"
		},
		{
			"inputs": [],
			"name": "getFundingWallet",
			"outputs": [
				{
					"internalType": "address",
					"name": "",
					"type": "address"
				}
			],
			"stateMutability": "view",
			"type": "function"
		},
		{
			"inputs": [],
			"name": "getHighestDonations",
			"outputs": [
				{
					"internalType": "uint256",
					"name": "",
					"type": "uint256"
				}
			],
			"stateMutability": "view",
			"type": "function"
		},
		{
			"inputs": [],
			"name": "getJackpot",
			"outputs": [
				{
					"internalType": "uint256",
					"name": "",
					"type": "uint256"
				}
			],
			"stateMutability": "view",
			"type": "function"
		},
		{
			"inputs": [],
			"name": "getNumWords",
			"outputs": [
				{
					"internalType": "uint256",
					"name": "",
					"type": "uint256"
				}
			],
			"stateMutability": "pure",
			"type": "function"
		},
		{
			"inputs": [],
			"name": "getNumberOfPlayers",
			"outputs": [
				{
					"internalType": "uint256",
					"name": "",
					"type": "uint256"
				}
			],
			"stateMutability": "view",
			"type": "function"
		},
		{
			"inputs": [
				{
					"internalType": "uint256",
					"name": "index",
					"type": "uint256"
				}
			],
			"name": "getPlayer",
			"outputs": [
				{
					"internalType": "address",
					"name": "",
					"type": "address"
				}
			],
			"stateMutability": "view",
			"type": "function"
		},
		{
			"inputs": [],
			"name": "getRaffleState",
			"outputs": [
				{
					"internalType": "enum Raffle.RaffleState",
					"name": "",
					"type": "uint8"
				}
			],
			"stateMutability": "view",
			"type": "function"
		},
		{
			"inputs": [],
			"name": "getRecentWinner",
			"outputs": [
				{
					"internalType": "address",
					"name": "",
					"type": "address"
				}
			],
			"stateMutability": "view",
			"type": "function"
		},
		{
			"inputs": [],
			"name": "getRequestConfirmations",
			"outputs": [
				{
					"internalType": "uint256",
					"name": "",
					"type": "uint256"
				}
			],
			"stateMutability": "pure",
			"type": "function"
		},
		{
			"inputs": [],
			"name": "matchDonations",
			"outputs": [],
			"stateMutability": "nonpayable",
			"type": "function"
		},
		{
			"inputs": [
				{
					"internalType": "bytes",
					"name": "",
					"type": "bytes"
				}
			],
			"name": "performUpkeep",
			"outputs": [],
			"stateMutability": "nonpayable",
			"type": "function"
		},
		{
			"inputs": [
				{
					"internalType": "uint256",
					"name": "requestId",
					"type": "uint256"
				},
				{
					"internalType": "uint256[]",
					"name": "randomWords",
					"type": "uint256[]"
				}
			],
			"name": "rawFulfillRandomWords",
			"outputs": [],
			"stateMutability": "nonpayable",
			"type": "function"
		}
	]
}