{
	"data": {
		"bytecode": {
			"linkReferences": {},
			"object": "60806040526001600055734f96fe3b7a6cf9725f59d353f723c1bdb64ca6aa600160006101000a81548173ffffffffffffffffffffffffffffffffffffffff021916908373ffffffffffffffffffffffffffffffffffffffff16021790555073d0a1e359811322d97991e03f863a0c30c2cf029c600260006101000a81548173ffffffffffffffffffffffffffffffffffffffff021916908373ffffffffffffffffffffffffffffffffffffffff16021790555073b27308f9f90d607463bb33ea1bebb41c27ce5ab6600360006101000a81548173ffffffffffffffffffffffffffffffffffffffff021916908373ffffffffffffffffffffffffffffffffffffffff16021790555073e592427a0aece92de3edee1f18e0157c05861564600460006101000a81548173ffffffffffffffffffffffffffffffffffffffff021916908373ffffffffffffffffffffffffffffffffffffffff160217905550739326bfa02add2366b30bacb125260af641031331600560006101000a81548173ffffffffffffffffffffffffffffffffffffffff021916908373ffffffffffffffffffffffffffffffffffffffff16021790555060006006556028600755601960085560b4600955600160009054906101000a900473ffffffffffffffffffffffffffffffffffffffff16600c60006101000a81548173ffffffffffffffffffffffffffffffffffffffff021916908373ffffffffffffffffffffffffffffffffffffffff160217905550600260009054906101000a900473ffffffffffffffffffffffffffffffffffffffff16600d60006101000a81548173ffffffffffffffffffffffffffffffffffffffff021916908373ffffffffffffffffffffffffffffffffffffffff160217905550600360009054906101000a900473ffffffffffffffffffffffffffffffffffffffff16600e60006101000a81548173ffffffffffffffffffffffffffffffffffffffff021916908373ffffffffffffffffffffffffffffffffffffffff160217905550600460009054906101000a900473ffffffffffffffffffffffffffffffffffffffff16600f60006101000a81548173ffffffffffffffffffffffffffffffffffffffff021916908373ffffffffffffffffffffffffffffffffffffffff1602179055503480156200035f57600080fd5b50620003ae6040518060400160405280601a81526020017f4465706c6f79696e67206d795661756c742056657273696f6e3a0000000000008152506000546200040b60201b620010331760201c565b60095442620003be91906200057c565b600a8190555033600b60006101000a81548173ffffffffffffffffffffffffffffffffffffffff021916908373ffffffffffffffffffffffffffffffffffffffff16021790555062000659565b620004ad8282604051602401620004249291906200052c565b6040516020818303038152906040527f9710a9d0000000000000000000000000000000000000000000000000000000007bffffffffffffffffffffffffffffffffffffffffffffffffffffffff19166020820180517bffffffffffffffffffffffffffffffffffffffffffffffffffffffff8381831617835250505050620004b160201b60201c565b5050565b60008151905060006a636f6e736f6c652e6c6f679050602083016000808483855afa5050505050565b6000620004e78262000560565b620004f381856200056b565b935062000505818560208601620005e3565b620005108162000648565b840191505092915050565b6200052681620005d9565b82525050565b60006040820190508181036000830152620005488185620004da565b90506200055960208301846200051b565b9392505050565b600081519050919050565b600082825260208201905092915050565b60006200058982620005d9565b91506200059683620005d9565b9250827fffffffffffffffffffffffffffffffffffffffffffffffffffffffffffffffff03821115620005ce57620005cd62000619565b5b828201905092915050565b6000819050919050565b60005b8381101562000603578082015181840152602081019050620005e6565b8381111562000613576000848401525b50505050565b7f4e487b7100000000000000000000000000000000000000000000000000000000600052601160045260246000fd5b6000601f19601f8301169050919050565b612bc480620006696000396000f3fe6080604052600436106101235760003560e01c80635b9258e2116100a05780638da5cb5b116100645780638da5cb5b146103785780639dd58b58146103a3578063a85ef678146103ce578063dbf88ece146103e5578063ff186b2e146104105761012a565b80635b9258e2146102dd5780635ddc916a146102f45780636dd22fc61461031f5780636df89364146103365780637d7c2a1c146103615761012a565b80633eb671bb116100e75780633eb671bb146102065780634bb19571146102315780634c488eeb1461025c5780634f0e0ef31461028757806354fd4d50146102b25761012a565b80630ca4fb3b1461012f57806310adb1be1461015a57806312b583491461018557806322c14060146101b05780632c387275146101db5761012a565b3661012a57005b600080fd5b34801561013b57600080fd5b5061014461043b565b6040516101519190612450565b60405180910390f35b34801561016657600080fd5b5061016f610441565b60405161017c9190612450565b60405180910390f35b34801561019157600080fd5b5061019a610447565b6040516101a79190612450565b60405180910390f35b3480156101bc57600080fd5b506101c56104d1565b6040516101d29190612450565b60405180910390f35b3480156101e757600080fd5b506101f06105f3565b6040516101fd9190612089565b60405180910390f35b34801561021257600080fd5b5061021b610619565b6040516102289190612450565b60405180910390f35b34801561023d57600080fd5b506102466106dd565b6040516102539190612089565b60405180910390f35b34801561026857600080fd5b50610271610703565b60405161027e9190612089565b60405180910390f35b34801561029357600080fd5b5061029c610729565b6040516102a99190612089565b60405180910390f35b3480156102be57600080fd5b506102c761074f565b6040516102d49190612450565b60405180910390f35b3480156102e957600080fd5b506102f2610755565b005b34801561030057600080fd5b506103096108da565b6040516103169190612450565b60405180910390f35b34801561032b57600080fd5b5061033461098c565b005b34801561034257600080fd5b5061034b610b2a565b6040516103589190612450565b60405180910390f35b34801561036d57600080fd5b50610376610b30565b005b34801561038457600080fd5b5061038d610d9a565b60405161039a9190612089565b60405180910390f35b3480156103af57600080fd5b506103b8610dc0565b6040516103c59190612450565b60405180910390f35b3480156103da57600080fd5b506103e3610e72565b005b3480156103f157600080fd5b506103fa611007565b6040516104079190612089565b60405180910390f35b34801561041c57600080fd5b5061042561102d565b6040516104329190612450565b60405180910390f35b60085481565b600a5481565b6000806006541161048d576040517f08c379a00000000000000000000000000000000000000000000000000000000081526004016104849061232a565b60405180910390fd5b60006104976108da565b905060006104a3610dc0565b90506000600654826104b5919061258e565b9050600083826104c5919061249d565b90508094505050505090565b600080600e60009054906101000a900473ffffffffffffffffffffffffffffffffffffffff1673ffffffffffffffffffffffffffffffffffffffff166330d07f21600160009054906101000a900473ffffffffffffffffffffffffffffffffffffffff16600260009054906101000a900473ffffffffffffffffffffffffffffffffffffffff16610bb8620186a060006040518663ffffffff1660e01b81526004016105819594939291906120a4565b602060405180830381600087803b15801561059b57600080fd5b505af11580156105af573d6000803e3d6000fd5b505050506040513d601f19601f820116820180604052508101906105d39190611b77565b9050620186a0816105e4919061255d565b60068190555060065491505090565b600160009054906101000a900473ffffffffffffffffffffffffffffffffffffffff1681565b600080600560009054906101000a900473ffffffffffffffffffffffffffffffffffffffff1673ffffffffffffffffffffffffffffffffffffffff166350d25bcd6040518163ffffffff1660e01b815260040160206040518083038186803b15801561068457600080fd5b505afa158015610698573d6000803e3d6000fd5b505050506040513d601f19601f820116820180604052508101906106bc9190611b4a565b90506305f5e100816106ce91906124f3565b60068190555060065491505090565b600360009054906101000a900473ffffffffffffffffffffffffffffffffffffffff1681565b600560009054906101000a900473ffffffffffffffffffffffffffffffffffffffff1681565b600260009054906101000a900473ffffffffffffffffffffffffffffffffffffffff1681565b60005481565b600b60009054906101000a900473ffffffffffffffffffffffffffffffffffffffff1673ffffffffffffffffffffffffffffffffffffffff163373ffffffffffffffffffffffffffffffffffffffff16146107e5576040517f08c379a00000000000000000000000000000000000000000000000000000000081526004016107dc90612172565b60405180910390fd5b600a544211610829576040517f08c379a00000000000000000000000000000000000000000000000000000000081526004016108209061234a565b60405180910390fd5b60006108336108da565b90506000606460085483610847919061258e565b610851919061255d565b905060095442610861919061249d565b600a819055506108d6600b60009054906101000a900473ffffffffffffffffffffffffffffffffffffffff1682600c60009054906101000a900473ffffffffffffffffffffffffffffffffffffffff1673ffffffffffffffffffffffffffffffffffffffff166110cf9092919063ffffffff16565b5050565b6000600c60009054906101000a900473ffffffffffffffffffffffffffffffffffffffff1673ffffffffffffffffffffffffffffffffffffffff166370a08231306040518263ffffffff1660e01b81526004016109379190612089565b60206040518083038186803b15801561094f57600080fd5b505afa158015610963573d6000803e3d6000fd5b505050506040513d601f19601f820116820180604052508101906109879190611b77565b905090565b600b60009054906101000a900473ffffffffffffffffffffffffffffffffffffffff1673ffffffffffffffffffffffffffffffffffffffff163373ffffffffffffffffffffffffffffffffffffffff1614610a1c576040517f08c379a0000000000000000000000000000000000000000000000000000000008152600401610a13906121b2565b60405180910390fd5b6000610a266108da565b90506000811115610aa157610aa0600b60009054906101000a900473ffffffffffffffffffffffffffffffffffffffff1682600c60009054906101000a900473ffffffffffffffffffffffffffffffffffffffff1673ffffffffffffffffffffffffffffffffffffffff166110cf9092919063ffffffff16565b5b6000610aab610dc0565b90506000811115610b2657610b25600b60009054906101000a900473ffffffffffffffffffffffffffffffffffffffff1682600d60009054906101000a900473ffffffffffffffffffffffffffffffffffffffff1673ffffffffffffffffffffffffffffffffffffffff166110cf9092919063ffffffff16565b5b5050565b60075481565b600b60009054906101000a900473ffffffffffffffffffffffffffffffffffffffff1673ffffffffffffffffffffffffffffffffffffffff163373ffffffffffffffffffffffffffffffffffffffff1614610bc0576040517f08c379a0000000000000000000000000000000000000000000000000000000008152600401610bb7906123b8565b60405180910390fd5b6000610bca6108da565b90506000610bd6610447565b9050600081836064610be8919061258e565b610bf2919061255d565b90507fdcc0af63711a020c1799e8ed90ae9945eac070cefe410c267bcd7ee2fdeef23f81604051610c23919061224e565b60405180910390a1600754811015610ce757600081600754610c4591906125e8565b606484610c52919061255d565b610c5c919061258e565b90507fdcc0af63711a020c1799e8ed90ae9945eac070cefe410c267bcd7ee2fdeef23f81604051610c8d91906121d2565b60405180910390a160008111610cd8576040517f08c379a0000000000000000000000000000000000000000000000000000000008152600401610ccf906123d8565b60405180910390fd5b610ce181611155565b50610d95565b600060075482610cf791906125e8565b606484610d04919061255d565b610d0e919061258e565b90507fdcc0af63711a020c1799e8ed90ae9945eac070cefe410c267bcd7ee2fdeef23f81604051610d3f91906122bc565b60405180910390a160008111610d8a576040517f08c379a0000000000000000000000000000000000000000000000000000000008152600401610d819061227c565b60405180910390fd5b610d93816114b3565b505b505050565b600b60009054906101000a900473ffffffffffffffffffffffffffffffffffffffff1681565b6000600d60009054906101000a900473ffffffffffffffffffffffffffffffffffffffff1673ffffffffffffffffffffffffffffffffffffffff166370a08231306040518263ffffffff1660e01b8152600401610e1d9190612089565b60206040518083038186803b158015610e3557600080fd5b505afa158015610e49573d6000803e3d6000fd5b505050506040513d601f19601f82011682018060405250810190610e6d9190611b77565b905090565b600b60009054906101000a900473ffffffffffffffffffffffffffffffffffffffff1673ffffffffffffffffffffffffffffffffffffffff163373ffffffffffffffffffffffffffffffffffffffff1614610f02576040517f08c379a0000000000000000000000000000000000000000000000000000000008152600401610ef9906123f8565b60405180910390fd5b600047905060008111610f4a576040517f08c379a0000000000000000000000000000000000000000000000000000000008152600401610f419061229c565b60405180910390fd5b7fdcc0af63711a020c1799e8ed90ae9945eac070cefe410c267bcd7ee2fdeef23f81604051610f799190612220565b60405180910390a1600d60009054906101000a900473ffffffffffffffffffffffffffffffffffffffff1673ffffffffffffffffffffffffffffffffffffffff1663d0e30db0826040518263ffffffff1660e01b81526004016000604051808303818588803b158015610feb57600080fd5b505af1158015610fff573d6000803e3d6000fd5b505050505050565b600460009054906101000a900473ffffffffffffffffffffffffffffffffffffffff1681565b60065481565b6110cb8282604051602401611049929190612142565b6040516020818303038152906040527f9710a9d0000000000000000000000000000000000000000000000000000000007bffffffffffffffffffffffffffffffffffffffffffffffffffffffff19166020820180517bffffffffffffffffffffffffffffffffffffffffffffffffffffffff8381831617835250505050611838565b5050565b6111508363a9059cbb60e01b84846040516024016110ee9291906120f7565b604051602081830303815290604052907bffffffffffffffffffffffffffffffffffffffffffffffffffffffff19166020820180517bffffffffffffffffffffffffffffffffffffffffffffffffffffffff8381831617835250505050611861565b505050565b6000600f42611164919061249d565b90506000610bb890506000309050600084905060006b204fce5e3e2502611000000090506000600d60009054906101000a900473ffffffffffffffffffffffffffffffffffffffff1673ffffffffffffffffffffffffffffffffffffffff1663095ea7b3600460009054906101000a900473ffffffffffffffffffffffffffffffffffffffff16856040518363ffffffff1660e01b81526004016112099291906120f7565b602060405180830381600087803b15801561122357600080fd5b505af1158015611237573d6000803e3d6000fd5b505050506040513d601f19601f8201168201806040525081019061125b9190611b1d565b61129a576040517f08c379a0000000000000000000000000000000000000000000000000000000008152600401611291906122ea565b60405180910390fd5b6000604051806101000160405280600260009054906101000a900473ffffffffffffffffffffffffffffffffffffffff1673ffffffffffffffffffffffffffffffffffffffff168152602001600160009054906101000a900473ffffffffffffffffffffffffffffffffffffffff1673ffffffffffffffffffffffffffffffffffffffff1681526020018762ffffff1681526020018673ffffffffffffffffffffffffffffffffffffffff1681526020018881526020018581526020018481526020018373ffffffffffffffffffffffffffffffffffffffff168152509050600f60009054906101000a900473ffffffffffffffffffffffffffffffffffffffff1673ffffffffffffffffffffffffffffffffffffffff1663db3e2198826040518263ffffffff1660e01b81526004016113d49190612434565b602060405180830381600087803b1580156113ee57600080fd5b505af1158015611402573d6000803e3d6000fd5b505050506040513d601f19601f820116820180604052508101906114269190611b77565b50600f60009054906101000a900473ffffffffffffffffffffffffffffffffffffffff1673ffffffffffffffffffffffffffffffffffffffff166312210e8a6040518163ffffffff1660e01b8152600401600060405180830381600087803b15801561149157600080fd5b505af11580156114a5573d6000803e3d6000fd5b505050505050505050505050565b6000600f426114c2919061249d565b90506000610bb89050600030905060008490506000807fdcc0af63711a020c1799e8ed90ae9945eac070cefe410c267bcd7ee2fdeef23f83604051611507919061238a565b60405180910390a1600c60009054906101000a900473ffffffffffffffffffffffffffffffffffffffff1673ffffffffffffffffffffffffffffffffffffffff1663095ea7b3600460009054906101000a900473ffffffffffffffffffffffffffffffffffffffff16856040518363ffffffff1660e01b815260040161158e9291906120f7565b602060405180830381600087803b1580156115a857600080fd5b505af11580156115bc573d6000803e3d6000fd5b505050506040513d601f19601f820116820180604052508101906115e09190611b1d565b61161f576040517f08c379a000000000000000000000000000000000000000000000000000000000815260040161161690612192565b60405180910390fd5b6000604051806101000160405280600160009054906101000a900473ffffffffffffffffffffffffffffffffffffffff1673ffffffffffffffffffffffffffffffffffffffff168152602001600260009054906101000a900473ffffffffffffffffffffffffffffffffffffffff1673ffffffffffffffffffffffffffffffffffffffff1681526020018762ffffff1681526020018673ffffffffffffffffffffffffffffffffffffffff1681526020018881526020018581526020018481526020018373ffffffffffffffffffffffffffffffffffffffff168152509050600f60009054906101000a900473ffffffffffffffffffffffffffffffffffffffff1673ffffffffffffffffffffffffffffffffffffffff1663414bf389826040518263ffffffff1660e01b81526004016117599190612418565b602060405180830381600087803b15801561177357600080fd5b505af1158015611787573d6000803e3d6000fd5b505050506040513d601f19601f820116820180604052508101906117ab9190611b77565b50600f60009054906101000a900473ffffffffffffffffffffffffffffffffffffffff1673ffffffffffffffffffffffffffffffffffffffff166312210e8a6040518163ffffffff1660e01b8152600401600060405180830381600087803b15801561181657600080fd5b505af115801561182a573d6000803e3d6000fd5b505050505050505050505050565b60008151905060006a636f6e736f6c652e6c6f679050602083016000808483855afa5050505050565b60006118c3826040518060400160405280602081526020017f5361666545524332303a206c6f772d6c6576656c2063616c6c206661696c65648152508573ffffffffffffffffffffffffffffffffffffffff166119289092919063ffffffff16565b905060008151111561192357808060200190518101906118e39190611b1d565b611922576040517f08c379a00000000000000000000000000000000000000000000000000000000081526004016119199061236a565b60405180910390fd5b5b505050565b60606119378484600085611940565b90509392505050565b606082471015611985576040517f08c379a000000000000000000000000000000000000000000000000000000000815260040161197c90612200565b60405180910390fd5b61198e85611a54565b6119cd576040517f08c379a00000000000000000000000000000000000000000000000000000000081526004016119c49061230a565b60405180910390fd5b6000808673ffffffffffffffffffffffffffffffffffffffff1685876040516119f69190612072565b60006040518083038185875af1925050503d8060008114611a33576040519150601f19603f3d011682016040523d82523d6000602084013e611a38565b606091505b5091509150611a48828286611a77565b92505050949350505050565b6000808273ffffffffffffffffffffffffffffffffffffffff163b119050919050565b60608315611a8757829050611ad7565b600083511115611a9a5782518084602001fd5b816040517f08c379a0000000000000000000000000000000000000000000000000000000008152600401611ace9190612120565b60405180910390fd5b9392505050565b600081519050611aed81612b49565b92915050565b600081519050611b0281612b60565b92915050565b600081519050611b1781612b77565b92915050565b600060208284031215611b3357611b32612744565b5b6000611b4184828501611ade565b91505092915050565b600060208284031215611b6057611b5f612744565b5b6000611b6e84828501611af3565b91505092915050565b600060208284031215611b8d57611b8c612744565b5b6000611b9b84828501611b08565b91505092915050565b611bad8161261c565b82525050565b611bbc8161261c565b82525050565b6000611bcd8261246b565b611bd78185612481565b9350611be78185602086016126b3565b80840191505092915050565b611bfc8161267d565b82525050565b611c0b8161268f565b82525050565b611c1a816126a1565b82525050565b6000611c2b82612476565b611c35818561248c565b9350611c458185602086016126b3565b611c4e81612749565b840191505092915050565b6000611c6660298361248c565b9150611c718261275a565b604082019050919050565b6000611c8960128361248c565b9150611c94826127a9565b602082019050919050565b6000611cac60268361248c565b9150611cb7826127d2565b604082019050919050565b6000611ccf600c8361248c565b9150611cda82612821565b602082019050919050565b6000611cf260268361248c565b9150611cfd8261284a565b604082019050919050565b6000611d1560078361248c565b9150611d2082612899565b602082019050919050565b6000611d3860148361248c565b9150611d43826128c2565b602082019050919050565b6000611d5b600e8361248c565b9150611d66826128eb565b602082019050919050565b6000611d7e60188361248c565b9150611d8982612914565b602082019050919050565b6000611da1600b8361248c565b9150611dac8261293d565b602082019050919050565b6000611dc460138361248c565b9150611dcf82612966565b602082019050919050565b6000611de7601d8361248c565b9150611df28261298f565b602082019050919050565b6000611e0a601a8361248c565b9150611e15826129b8565b602082019050919050565b6000611e2d60178361248c565b9150611e38826129e1565b602082019050919050565b6000611e50602a8361248c565b9150611e5b82612a0a565b604082019050919050565b6000611e7360088361248c565b9150611e7e82612a59565b602082019050919050565b6000611e96602a8361248c565b9150611ea182612a82565b604082019050919050565b6000611eb9600f8361248c565b9150611ec482612ad1565b602082019050919050565b6000611edc60268361248c565b9150611ee782612afa565b604082019050919050565b61010082016000820151611f096000850182611ba4565b506020820151611f1c6020850182611ba4565b506040820151611f2f6040850182612045565b506060820151611f426060850182611ba4565b506080820151611f556080850182612054565b5060a0820151611f6860a0850182612054565b5060c0820151611f7b60c0850182612054565b5060e0820151611f8e60e0850182612036565b50505050565b61010082016000820151611fab6000850182611ba4565b506020820151611fbe6020850182611ba4565b506040820151611fd16040850182612045565b506060820151611fe46060850182611ba4565b506080820151611ff76080850182612054565b5060a082015161200a60a0850182612054565b5060c082015161201d60c0850182612054565b5060e082015161203060e0850182612036565b50505050565b61203f81612644565b82525050565b61204e81612664565b82525050565b61205d81612673565b82525050565b61206c81612673565b82525050565b600061207e8284611bc2565b915081905092915050565b600060208201905061209e6000830184611bb3565b92915050565b600060a0820190506120b96000830188611bb3565b6120c66020830187611bb3565b6120d36040830186611c11565b6120e06060830185611c02565b6120ed6080830184611bf3565b9695505050505050565b600060408201905061210c6000830185611bb3565b6121196020830184612063565b9392505050565b6000602082019050818103600083015261213a8184611c20565b905092915050565b6000604082019050818103600083015261215c8185611c20565b905061216b6020830184612063565b9392505050565b6000602082019050818103600083015261218b81611c59565b9050919050565b600060208201905081810360008301526121ab81611c7c565b9050919050565b600060208201905081810360008301526121cb81611c9f565b9050919050565b600060408201905081810360008301526121eb81611cc2565b90506121fa6020830184612063565b92915050565b6000602082019050818103600083015261221981611ce5565b9050919050565b6000604082019050818103600083015261223981611d08565b90506122486020830184612063565b92915050565b6000604082019050818103600083015261226781611d2b565b90506122766020830184612063565b92915050565b6000602082019050818103600083015261229581611d4e565b9050919050565b600060208201905081810360008301526122b581611d71565b9050919050565b600060408201905081810360008301526122d581611d94565b90506122e46020830184612063565b92915050565b6000602082019050818103600083015261230381611db7565b9050919050565b6000602082019050818103600083015261232381611dda565b9050919050565b6000602082019050818103600083015261234381611dfd565b9050919050565b6000602082019050818103600083015261236381611e20565b9050919050565b6000602082019050818103600083015261238381611e43565b9050919050565b600060408201905081810360008301526123a381611e66565b90506123b26020830184612063565b92915050565b600060208201905081810360008301526123d181611e89565b9050919050565b600060208201905081810360008301526123f181611eac565b9050919050565b6000602082019050818103600083015261241181611ecf565b9050919050565b60006101008201905061242e6000830184611ef2565b92915050565b60006101008201905061244a6000830184611f94565b92915050565b60006020820190506124656000830184612063565b92915050565b600081519050919050565b600081519050919050565b600081905092915050565b600082825260208201905092915050565b60006124a882612673565b91506124b383612673565b9250827fffffffffffffffffffffffffffffffffffffffffffffffffffffffffffffffff038211156124e8576124e76126e6565b5b828201905092915050565b60006124fe8261263a565b91506125098361263a565b92508261251957612518612715565b5b600160000383147f800000000000000000000000000000000000000000000000000000000000000083141615612552576125516126e6565b5b828205905092915050565b600061256882612673565b915061257383612673565b92508261258357612582612715565b5b828204905092915050565b600061259982612673565b91506125a483612673565b9250817fffffffffffffffffffffffffffffffffffffffffffffffffffffffffffffffff04831182151516156125dd576125dc6126e6565b5b828202905092915050565b60006125f382612673565b91506125fe83612673565b925082821015612611576126106126e6565b5b828203905092915050565b600061262782612644565b9050919050565b60008115159050919050565b6000819050919050565b600073ffffffffffffffffffffffffffffffffffffffff82169050919050565b600062ffffff82169050919050565b6000819050919050565b600061268882612644565b9050919050565b600061269a82612673565b9050919050565b60006126ac82612664565b9050919050565b60005b838110156126d15780820151818401526020810190506126b6565b838111156126e0576000848401525b50505050565b7f4e487b7100000000000000000000000000000000000000000000000000000000600052601160045260246000fd5b7f4e487b7100000000000000000000000000000000000000000000000000000000600052601260045260246000fd5b600080fd5b6000601f19601f8301169050919050565b7f4f6e6c7920746865206f776e65722063616e2064726177646f776e207468656960008201527f72206163636f756e740000000000000000000000000000000000000000000000602082015250565b7f44414920617070726f7665206661696c65640000000000000000000000000000600082015250565b7f4f6e6c7920746865206f776e65722063616e20636c6f7365207468656972206160008201527f63636f756e740000000000000000000000000000000000000000000000000000602082015250565b7f616d6f756e74546f53656c6c0000000000000000000000000000000000000000600082015250565b7f416464726573733a20696e73756666696369656e742062616c616e636520666f60008201527f722063616c6c0000000000000000000000000000000000000000000000000000602082015250565b7f7772617045544800000000000000000000000000000000000000000000000000600082015250565b7f75736442616c616e636550657263656e74616765000000000000000000000000600082015250565b7f4e6f7468696e6720746f20627579000000000000000000000000000000000000600082015250565b7f4e6f2045544820617661696c61626c6520746f20777261700000000000000000600082015250565b7f616d6f756e74546f427579000000000000000000000000000000000000000000600082015250565b7f5745544820617070726f7665206661696c656400000000000000000000000000600082015250565b7f416464726573733a2063616c6c20746f206e6f6e2d636f6e7472616374000000600082015250565b7f45544820707269636520686173206e6f74206265656e20736574000000000000600082015250565b7f4469766964656e64206973206e6f742079657420647565000000000000000000600082015250565b7f5361666545524332303a204552433230206f7065726174696f6e20646964206e60008201527f6f74207375636365656400000000000000000000000000000000000000000000602082015250565b7f616d6f756e74496e000000000000000000000000000000000000000000000000600082015250565b7f4f6e6c7920746865206f776e65722063616e20726562616c616e63652074686560008201527f6972206163636f756e7400000000000000000000000000000000000000000000602082015250565b7f4e6f7468696e6720746f2073656c6c0000000000000000000000000000000000600082015250565b7f4f6e6c7920746865206f776e65722063616e20636f6e7665727420455448207460008201527f6f20574554480000000000000000000000000000000000000000000000000000602082015250565b612b528161262e565b8114612b5d57600080fd5b50565b612b698161263a565b8114612b7457600080fd5b50565b612b8081612673565b8114612b8b57600080fd5b5056fea2646970667358221220bfe0a3bc33edfac7ed6f08673aac7d63dc7f8d04176bd88f1d5538cc9933229f64736f6c63430008070033",
			"opcodes": "PUSH1 0x80 PUSH1 0x40 MSTORE PUSH1 0x1 PUSH1 0x0 SSTORE PUSH20 0x4F96FE3B7A6CF9725F59D353F723C1BDB64CA6AA PUSH1 0x1 PUSH1 0x0 PUSH2 0x100 EXP DUP2 SLOAD DUP2 PUSH20 0xFFFFFFFFFFFFFFFFFFFFFFFFFFFFFFFFFFFFFFFF MUL NOT AND SWAP1 DUP4 PUSH20 0xFFFFFFFFFFFFFFFFFFFFFFFFFFFFFFFFFFFFFFFF AND MUL OR SWAP1 SSTORE POP PUSH20 0xD0A1E359811322D97991E03F863A0C30C2CF029C PUSH1 0x2 PUSH1 0x0 PUSH2 0x100 EXP DUP2 SLOAD DUP2 PUSH20 0xFFFFFFFFFFFFFFFFFFFFFFFFFFFFFFFFFFFFFFFF MUL NOT AND SWAP1 DUP4 PUSH20 0xFFFFFFFFFFFFFFFFFFFFFFFFFFFFFFFFFFFFFFFF AND MUL OR SWAP1 SSTORE POP PUSH20 0xB27308F9F90D607463BB33EA1BEBB41C27CE5AB6 PUSH1 0x3 PUSH1 0x0 PUSH2 0x100 EXP DUP2 SLOAD DUP2 PUSH20 0xFFFFFFFFFFFFFFFFFFFFFFFFFFFFFFFFFFFFFFFF MUL NOT AND SWAP1 DUP4 PUSH20 0xFFFFFFFFFFFFFFFFFFFFFFFFFFFFFFFFFFFFFFFF AND MUL OR SWAP1 SSTORE POP PUSH20 0xE592427A0AECE92DE3EDEE1F18E0157C05861564 PUSH1 0x4 PUSH1 0x0 PUSH2 0x100 EXP DUP2 SLOAD DUP2 PUSH20 0xFFFFFFFFFFFFFFFFFFFFFFFFFFFFFFFFFFFFFFFF MUL NOT AND SWAP1 DUP4 PUSH20 0xFFFFFFFFFFFFFFFFFFFFFFFFFFFFFFFFFFFFFFFF AND MUL OR SWAP1 SSTORE POP PUSH20 0x9326BFA02ADD2366B30BACB125260AF641031331 PUSH1 0x5 PUSH1 0x0 PUSH2 0x100 EXP DUP2 SLOAD DUP2 PUSH20 0xFFFFFFFFFFFFFFFFFFFFFFFFFFFFFFFFFFFFFFFF MUL NOT AND SWAP1 DUP4 PUSH20 0xFFFFFFFFFFFFFFFFFFFFFFFFFFFFFFFFFFFFFFFF AND MUL OR SWAP1 SSTORE POP PUSH1 0x0 PUSH1 0x6 SSTORE PUSH1 0x28 PUSH1 0x7 SSTORE PUSH1 0x19 PUSH1 0x8 SSTORE PUSH1 0xB4 PUSH1 0x9 SSTORE PUSH1 0x1 PUSH1 0x0 SWAP1 SLOAD SWAP1 PUSH2 0x100 EXP SWAP1 DIV PUSH20 0xFFFFFFFFFFFFFFFFFFFFFFFFFFFFFFFFFFFFFFFF AND PUSH1 0xC PUSH1 0x0 PUSH2 0x100 EXP DUP2 SLOAD DUP2 PUSH20 0xFFFFFFFFFFFFFFFFFFFFFFFFFFFFFFFFFFFFFFFF MUL NOT AND SWAP1 DUP4 PUSH20 0xFFFFFFFFFFFFFFFFFFFFFFFFFFFFFFFFFFFFFFFF AND MUL OR SWAP1 SSTORE POP PUSH1 0x2 PUSH1 0x0 SWAP1 SLOAD SWAP1 PUSH2 0x100 EXP SWAP1 DIV PUSH20 0xFFFFFFFFFFFFFFFFFFFFFFFFFFFFFFFFFFFFFFFF AND PUSH1 0xD PUSH1 0x0 PUSH2 0x100 EXP DUP2 SLOAD DUP2 PUSH20 0xFFFFFFFFFFFFFFFFFFFFFFFFFFFFFFFFFFFFFFFF MUL NOT AND SWAP1 DUP4 PUSH20 0xFFFFFFFFFFFFFFFFFFFFFFFFFFFFFFFFFFFFFFFF AND MUL OR SWAP1 SSTORE POP PUSH1 0x3 PUSH1 0x0 SWAP1 SLOAD SWAP1 PUSH2 0x100 EXP SWAP1 DIV PUSH20 0xFFFFFFFFFFFFFFFFFFFFFFFFFFFFFFFFFFFFFFFF AND PUSH1 0xE PUSH1 0x0 PUSH2 0x100 EXP DUP2 SLOAD DUP2 PUSH20 0xFFFFFFFFFFFFFFFFFFFFFFFFFFFFFFFFFFFFFFFF MUL NOT AND SWAP1 DUP4 PUSH20 0xFFFFFFFFFFFFFFFFFFFFFFFFFFFFFFFFFFFFFFFF AND MUL OR SWAP1 SSTORE POP PUSH1 0x4 PUSH1 0x0 SWAP1 SLOAD SWAP1 PUSH2 0x100 EXP SWAP1 DIV PUSH20 0xFFFFFFFFFFFFFFFFFFFFFFFFFFFFFFFFFFFFFFFF AND PUSH1 0xF PUSH1 0x0 PUSH2 0x100 EXP DUP2 SLOAD DUP2 PUSH20 0xFFFFFFFFFFFFFFFFFFFFFFFFFFFFFFFFFFFFFFFF MUL NOT AND SWAP1 DUP4 PUSH20 0xFFFFFFFFFFFFFFFFFFFFFFFFFFFFFFFFFFFFFFFF AND MUL OR SWAP1 SSTORE POP CALLVALUE DUP1 ISZERO PUSH3 0x35F JUMPI PUSH1 0x0 DUP1 REVERT JUMPDEST POP PUSH3 0x3AE PUSH1 0x40 MLOAD DUP1 PUSH1 0x40 ADD PUSH1 0x40 MSTORE DUP1 PUSH1 0x1A DUP2 MSTORE PUSH1 0x20 ADD PUSH32 0x4465706C6F79696E67206D795661756C742056657273696F6E3A000000000000 DUP2 MSTORE POP PUSH1 0x0 SLOAD PUSH3 0x40B PUSH1 0x20 SHL PUSH3 0x1033 OR PUSH1 0x20 SHR JUMP JUMPDEST PUSH1 0x9 SLOAD TIMESTAMP PUSH3 0x3BE SWAP2 SWAP1 PUSH3 0x57C JUMP JUMPDEST PUSH1 0xA DUP2 SWAP1 SSTORE POP CALLER PUSH1 0xB PUSH1 0x0 PUSH2 0x100 EXP DUP2 SLOAD DUP2 PUSH20 0xFFFFFFFFFFFFFFFFFFFFFFFFFFFFFFFFFFFFFFFF MUL NOT AND SWAP1 DUP4 PUSH20 0xFFFFFFFFFFFFFFFFFFFFFFFFFFFFFFFFFFFFFFFF AND MUL OR SWAP1 SSTORE POP PUSH3 0x659 JUMP JUMPDEST PUSH3 0x4AD DUP3 DUP3 PUSH1 0x40 MLOAD PUSH1 0x24 ADD PUSH3 0x424 SWAP3 SWAP2 SWAP1 PUSH3 0x52C JUMP JUMPDEST PUSH1 0x40 MLOAD PUSH1 0x20 DUP2 DUP4 SUB SUB DUP2 MSTORE SWAP1 PUSH1 0x40 MSTORE PUSH32 0x9710A9D000000000000000000000000000000000000000000000000000000000 PUSH28 0xFFFFFFFFFFFFFFFFFFFFFFFFFFFFFFFFFFFFFFFFFFFFFFFFFFFFFFFF NOT AND PUSH1 0x20 DUP3 ADD DUP1 MLOAD PUSH28 0xFFFFFFFFFFFFFFFFFFFFFFFFFFFFFFFFFFFFFFFFFFFFFFFFFFFFFFFF DUP4 DUP2 DUP4 AND OR DUP4 MSTORE POP POP POP POP PUSH3 0x4B1 PUSH1 0x20 SHL PUSH1 0x20 SHR JUMP JUMPDEST POP POP JUMP JUMPDEST PUSH1 0x0 DUP2 MLOAD SWAP1 POP PUSH1 0x0 PUSH11 0x636F6E736F6C652E6C6F67 SWAP1 POP PUSH1 0x20 DUP4 ADD PUSH1 0x0 DUP1 DUP5 DUP4 DUP6 GAS STATICCALL POP POP POP POP POP JUMP JUMPDEST PUSH1 0x0 PUSH3 0x4E7 DUP3 PUSH3 0x560 JUMP JUMPDEST PUSH3 0x4F3 DUP2 DUP6 PUSH3 0x56B JUMP JUMPDEST SWAP4 POP PUSH3 0x505 DUP2 DUP6 PUSH1 0x20 DUP7 ADD PUSH3 0x5E3 JUMP JUMPDEST PUSH3 0x510 DUP2 PUSH3 0x648 JUMP JUMPDEST DUP5 ADD SWAP2 POP POP SWAP3 SWAP2 POP POP JUMP JUMPDEST PUSH3 0x526 DUP2 PUSH3 0x5D9 JUMP JUMPDEST DUP3 MSTORE POP POP JUMP JUMPDEST PUSH1 0x0 PUSH1 0x40 DUP3 ADD SWAP1 POP DUP2 DUP2 SUB PUSH1 0x0 DUP4 ADD MSTORE PUSH3 0x548 DUP2 DUP6 PUSH3 0x4DA JUMP JUMPDEST SWAP1 POP PUSH3 0x559 PUSH1 0x20 DUP4 ADD DUP5 PUSH3 0x51B JUMP JUMPDEST SWAP4 SWAP3 POP POP POP JUMP JUMPDEST PUSH1 0x0 DUP2 MLOAD SWAP1 POP SWAP2 SWAP1 POP JUMP JUMPDEST PUSH1 0x0 DUP3 DUP3 MSTORE PUSH1 0x20 DUP3 ADD SWAP1 POP SWAP3 SWAP2 POP POP JUMP JUMPDEST PUSH1 0x0 PUSH3 0x589 DUP3 PUSH3 0x5D9 JUMP JUMPDEST SWAP2 POP PUSH3 0x596 DUP4 PUSH3 0x5D9 JUMP JUMPDEST SWAP3 POP DUP3 PUSH32 0xFFFFFFFFFFFFFFFFFFFFFFFFFFFFFFFFFFFFFFFFFFFFFFFFFFFFFFFFFFFFFFFF SUB DUP3 GT ISZERO PUSH3 0x5CE JUMPI PUSH3 0x5CD PUSH3 0x619 JUMP JUMPDEST JUMPDEST DUP3 DUP3 ADD SWAP1 POP SWAP3 SWAP2 POP POP JUMP JUMPDEST PUSH1 0x0 DUP2 SWAP1 POP SWAP2 SWAP1 POP JUMP JUMPDEST PUSH1 0x0 JUMPDEST DUP4 DUP2 LT ISZERO PUSH3 0x603 JUMPI DUP1 DUP3 ADD MLOAD DUP2 DUP5 ADD MSTORE PUSH1 0x20 DUP2 ADD SWAP1 POP PUSH3 0x5E6 JUMP JUMPDEST DUP4 DUP2 GT ISZERO PUSH3 0x613 JUMPI PUSH1 0x0 DUP5 DUP5 ADD MSTORE JUMPDEST POP POP POP POP JUMP JUMPDEST PUSH32 0x4E487B7100000000000000000000000000000000000000000000000000000000 PUSH1 0x0 MSTORE PUSH1 0x11 PUSH1 0x4 MSTORE PUSH1 0x24 PUSH1 0x0 REVERT JUMPDEST PUSH1 0x0 PUSH1 0x1F NOT PUSH1 0x1F DUP4 ADD AND SWAP1 POP SWAP2 SWAP1 POP JUMP JUMPDEST PUSH2 0x2BC4 DUP1 PUSH3 0x669 PUSH1 0x0 CODECOPY PUSH1 0x0 RETURN INVALID PUSH1 0x80 PUSH1 0x40 MSTORE PUSH1 0x4 CALLDATASIZE LT PUSH2 0x123 JUMPI PUSH1 0x0 CALLDATALOAD PUSH1 0xE0 SHR DUP1 PUSH4 0x5B9258E2 GT PUSH2 0xA0 JUMPI DUP1 PUSH4 0x8DA5CB5B GT PUSH2 0x64 JUMPI DUP1 PUSH4 0x8DA5CB5B EQ PUSH2 0x378 JUMPI DUP1 PUSH4 0x9DD58B58 EQ PUSH2 0x3A3 JUMPI DUP1 PUSH4 0xA85EF678 EQ PUSH2 0x3CE JUMPI DUP1 PUSH4 0xDBF88ECE EQ PUSH2 0x3E5 JUMPI DUP1 PUSH4 0xFF186B2E EQ PUSH2 0x410 JUMPI PUSH2 0x12A JUMP JUMPDEST DUP1 PUSH4 0x5B9258E2 EQ PUSH2 0x2DD JUMPI DUP1 PUSH4 0x5DDC916A EQ PUSH2 0x2F4 JUMPI DUP1 PUSH4 0x6DD22FC6 EQ PUSH2 0x31F JUMPI DUP1 PUSH4 0x6DF89364 EQ PUSH2 0x336 JUMPI DUP1 PUSH4 0x7D7C2A1C EQ PUSH2 0x361 JUMPI PUSH2 0x12A JUMP JUMPDEST DUP1 PUSH4 0x3EB671BB GT PUSH2 0xE7 JUMPI DUP1 PUSH4 0x3EB671BB EQ PUSH2 0x206 JUMPI DUP1 PUSH4 0x4BB19571 EQ PUSH2 0x231 JUMPI DUP1 PUSH4 0x4C488EEB EQ PUSH2 0x25C JUMPI DUP1 PUSH4 0x4F0E0EF3 EQ PUSH2 0x287 JUMPI DUP1 PUSH4 0x54FD4D50 EQ PUSH2 0x2B2 JUMPI PUSH2 0x12A JUMP JUMPDEST DUP1 PUSH4 0xCA4FB3B EQ PUSH2 0x12F JUMPI DUP1 PUSH4 0x10ADB1BE EQ PUSH2 0x15A JUMPI DUP1 PUSH4 0x12B58349 EQ PUSH2 0x185 JUMPI DUP1 PUSH4 0x22C14060 EQ PUSH2 0x1B0 JUMPI DUP1 PUSH4 0x2C387275 EQ PUSH2 0x1DB JUMPI PUSH2 0x12A JUMP JUMPDEST CALLDATASIZE PUSH2 0x12A JUMPI STOP JUMPDEST PUSH1 0x0 DUP1 REVERT JUMPDEST CALLVALUE DUP1 ISZERO PUSH2 0x13B JUMPI PUSH1 0x0 DUP1 REVERT JUMPDEST POP PUSH2 0x144 PUSH2 0x43B JUMP JUMPDEST PUSH1 0x40 MLOAD PUSH2 0x151 SWAP2 SWAP1 PUSH2 0x2450 JUMP JUMPDEST PUSH1 0x40 MLOAD DUP1 SWAP2 SUB SWAP1 RETURN JUMPDEST CALLVALUE DUP1 ISZERO PUSH2 0x166 JUMPI PUSH1 0x0 DUP1 REVERT JUMPDEST POP PUSH2 0x16F PUSH2 0x441 JUMP JUMPDEST PUSH1 0x40 MLOAD PUSH2 0x17C SWAP2 SWAP1 PUSH2 0x2450 JUMP JUMPDEST PUSH1 0x40 MLOAD DUP1 SWAP2 SUB SWAP1 RETURN JUMPDEST CALLVALUE DUP1 ISZERO PUSH2 0x191 JUMPI PUSH1 0x0 DUP1 REVERT JUMPDEST POP PUSH2 0x19A PUSH2 0x447 JUMP JUMPDEST PUSH1 0x40 MLOAD PUSH2 0x1A7 SWAP2 SWAP1 PUSH2 0x2450 JUMP JUMPDEST PUSH1 0x40 MLOAD DUP1 SWAP2 SUB SWAP1 RETURN JUMPDEST CALLVALUE DUP1 ISZERO PUSH2 0x1BC JUMPI PUSH1 0x0 DUP1 REVERT JUMPDEST POP PUSH2 0x1C5 PUSH2 0x4D1 JUMP JUMPDEST PUSH1 0x40 MLOAD PUSH2 0x1D2 SWAP2 SWAP1 PUSH2 0x2450 JUMP JUMPDEST PUSH1 0x40 MLOAD DUP1 SWAP2 SUB SWAP1 RETURN JUMPDEST CALLVALUE DUP1 ISZERO PUSH2 0x1E7 JUMPI PUSH1 0x0 DUP1 REVERT JUMPDEST POP PUSH2 0x1F0 PUSH2 0x5F3 JUMP JUMPDEST PUSH1 0x40 MLOAD PUSH2 0x1FD SWAP2 SWAP1 PUSH2 0x2089 JUMP JUMPDEST PUSH1 0x40 MLOAD DUP1 SWAP2 SUB SWAP1 RETURN JUMPDEST CALLVALUE DUP1 ISZERO PUSH2 0x212 JUMPI PUSH1 0x0 DUP1 REVERT JUMPDEST POP PUSH2 0x21B PUSH2 0x619 JUMP JUMPDEST PUSH1 0x40 MLOAD PUSH2 0x228 SWAP2 SWAP1 PUSH2 0x2450 JUMP JUMPDEST PUSH1 0x40 MLOAD DUP1 SWAP2 SUB SWAP1 RETURN JUMPDEST CALLVALUE DUP1 ISZERO PUSH2 0x23D JUMPI PUSH1 0x0 DUP1 REVERT JUMPDEST POP PUSH2 0x246 PUSH2 0x6DD JUMP JUMPDEST PUSH1 0x40 MLOAD PUSH2 0x253 SWAP2 SWAP1 PUSH2 0x2089 JUMP JUMPDEST PUSH1 0x40 MLOAD DUP1 SWAP2 SUB SWAP1 RETURN JUMPDEST CALLVALUE DUP1 ISZERO PUSH2 0x268 JUMPI PUSH1 0x0 DUP1 REVERT JUMPDEST POP PUSH2 0x271 PUSH2 0x703 JUMP JUMPDEST PUSH1 0x40 MLOAD PUSH2 0x27E SWAP2 SWAP1 PUSH2 0x2089 JUMP JUMPDEST PUSH1 0x40 MLOAD DUP1 SWAP2 SUB SWAP1 RETURN JUMPDEST CALLVALUE DUP1 ISZERO PUSH2 0x293 JUMPI PUSH1 0x0 DUP1 REVERT JUMPDEST POP PUSH2 0x29C PUSH2 0x729 JUMP JUMPDEST PUSH1 0x40 MLOAD PUSH2 0x2A9 SWAP2 SWAP1 PUSH2 0x2089 JUMP JUMPDEST PUSH1 0x40 MLOAD DUP1 SWAP2 SUB SWAP1 RETURN JUMPDEST CALLVALUE DUP1 ISZERO PUSH2 0x2BE JUMPI PUSH1 0x0 DUP1 REVERT JUMPDEST POP PUSH2 0x2C7 PUSH2 0x74F JUMP JUMPDEST PUSH1 0x40 MLOAD PUSH2 0x2D4 SWAP2 SWAP1 PUSH2 0x2450 JUMP JUMPDEST PUSH1 0x40 MLOAD DUP1 SWAP2 SUB SWAP1 RETURN JUMPDEST CALLVALUE DUP1 ISZERO PUSH2 0x2E9 JUMPI PUSH1 0x0 DUP1 REVERT JUMPDEST POP PUSH2 0x2F2 PUSH2 0x755 JUMP JUMPDEST STOP JUMPDEST CALLVALUE DUP1 ISZERO PUSH2 0x300 JUMPI PUSH1 0x0 DUP1 REVERT JUMPDEST POP PUSH2 0x309 PUSH2 0x8DA JUMP JUMPDEST PUSH1 0x40 MLOAD PUSH2 0x316 SWAP2 SWAP1 PUSH2 0x2450 JUMP JUMPDEST PUSH1 0x40 MLOAD DUP1 SWAP2 SUB SWAP1 RETURN JUMPDEST CALLVALUE DUP1 ISZERO PUSH2 0x32B JUMPI PUSH1 0x0 DUP1 REVERT JUMPDEST POP PUSH2 0x334 PUSH2 0x98C JUMP JUMPDEST STOP JUMPDEST CALLVALUE DUP1 ISZERO PUSH2 0x342 JUMPI PUSH1 0x0 DUP1 REVERT JUMPDEST POP PUSH2 0x34B PUSH2 0xB2A JUMP JUMPDEST PUSH1 0x40 MLOAD PUSH2 0x358 SWAP2 SWAP1 PUSH2 0x2450 JUMP JUMPDEST PUSH1 0x40 MLOAD DUP1 SWAP2 SUB SWAP1 RETURN JUMPDEST CALLVALUE DUP1 ISZERO PUSH2 0x36D JUMPI PUSH1 0x0 DUP1 REVERT JUMPDEST POP PUSH2 0x376 PUSH2 0xB30 JUMP JUMPDEST STOP JUMPDEST CALLVALUE DUP1 ISZERO PUSH2 0x384 JUMPI PUSH1 0x0 DUP1 REVERT JUMPDEST POP PUSH2 0x38D PUSH2 0xD9A JUMP JUMPDEST PUSH1 0x40 MLOAD PUSH2 0x39A SWAP2 SWAP1 PUSH2 0x2089 JUMP JUMPDEST PUSH1 0x40 MLOAD DUP1 SWAP2 SUB SWAP1 RETURN JUMPDEST CALLVALUE DUP1 ISZERO PUSH2 0x3AF JUMPI PUSH1 0x0 DUP1 REVERT JUMPDEST POP PUSH2 0x3B8 PUSH2 0xDC0 JUMP JUMPDEST PUSH1 0x40 MLOAD PUSH2 0x3C5 SWAP2 SWAP1 PUSH2 0x2450 JUMP JUMPDEST PUSH1 0x40 MLOAD DUP1 SWAP2 SUB SWAP1 RETURN JUMPDEST CALLVALUE DUP1 ISZERO PUSH2 0x3DA JUMPI PUSH1 0x0 DUP1 REVERT JUMPDEST POP PUSH2 0x3E3 PUSH2 0xE72 JUMP JUMPDEST STOP JUMPDEST CALLVALUE DUP1 ISZERO PUSH2 0x3F1 JUMPI PUSH1 0x0 DUP1 REVERT JUMPDEST POP PUSH2 0x3FA PUSH2 0x1007 JUMP JUMPDEST PUSH1 0x40 MLOAD PUSH2 0x407 SWAP2 SWAP1 PUSH2 0x2089 JUMP JUMPDEST PUSH1 0x40 MLOAD DUP1 SWAP2 SUB SWAP1 RETURN JUMPDEST CALLVALUE DUP1 ISZERO PUSH2 0x41C JUMPI PUSH1 0x0 DUP1 REVERT JUMPDEST POP PUSH2 0x425 PUSH2 0x102D JUMP JUMPDEST PUSH1 0x40 MLOAD PUSH2 0x432 SWAP2 SWAP1 PUSH2 0x2450 JUMP JUMPDEST PUSH1 0x40 MLOAD DUP1 SWAP2 SUB SWAP1 RETURN JUMPDEST PUSH1 0x8 SLOAD DUP2 JUMP JUMPDEST PUSH1 0xA SLOAD DUP2 JUMP JUMPDEST PUSH1 0x0 DUP1 PUSH1 0x6 SLOAD GT PUSH2 0x48D JUMPI PUSH1 0x40 MLOAD PUSH32 0x8C379A000000000000000000000000000000000000000000000000000000000 DUP2 MSTORE PUSH1 0x4 ADD PUSH2 0x484 SWAP1 PUSH2 0x232A JUMP JUMPDEST PUSH1 0x40 MLOAD DUP1 SWAP2 SUB SWAP1 REVERT JUMPDEST PUSH1 0x0 PUSH2 0x497 PUSH2 0x8DA JUMP JUMPDEST SWAP1 POP PUSH1 0x0 PUSH2 0x4A3 PUSH2 0xDC0 JUMP JUMPDEST SWAP1 POP PUSH1 0x0 PUSH1 0x6 SLOAD DUP3 PUSH2 0x4B5 SWAP2 SWAP1 PUSH2 0x258E JUMP JUMPDEST SWAP1 POP PUSH1 0x0 DUP4 DUP3 PUSH2 0x4C5 SWAP2 SWAP1 PUSH2 0x249D JUMP JUMPDEST SWAP1 POP DUP1 SWAP5 POP POP POP POP POP SWAP1 JUMP JUMPDEST PUSH1 0x0 DUP1 PUSH1 0xE PUSH1 0x0 SWAP1 SLOAD SWAP1 PUSH2 0x100 EXP SWAP1 DIV PUSH20 0xFFFFFFFFFFFFFFFFFFFFFFFFFFFFFFFFFFFFFFFF AND PUSH20 0xFFFFFFFFFFFFFFFFFFFFFFFFFFFFFFFFFFFFFFFF AND PUSH4 0x30D07F21 PUSH1 0x1 PUSH1 0x0 SWAP1 SLOAD SWAP1 PUSH2 0x100 EXP SWAP1 DIV PUSH20 0xFFFFFFFFFFFFFFFFFFFFFFFFFFFFFFFFFFFFFFFF AND PUSH1 0x2 PUSH1 0x0 SWAP1 SLOAD SWAP1 PUSH2 0x100 EXP SWAP1 DIV PUSH20 0xFFFFFFFFFFFFFFFFFFFFFFFFFFFFFFFFFFFFFFFF AND PUSH2 0xBB8 PUSH3 0x186A0 PUSH1 0x0 PUSH1 0x40 MLOAD DUP7 PUSH4 0xFFFFFFFF AND PUSH1 0xE0 SHL DUP2 MSTORE PUSH1 0x4 ADD PUSH2 0x581 SWAP6 SWAP5 SWAP4 SWAP3 SWAP2 SWAP1 PUSH2 0x20A4 JUMP JUMPDEST PUSH1 0x20 PUSH1 0x40 MLOAD DUP1 DUP4 SUB DUP2 PUSH1 0x0 DUP8 DUP1 EXTCODESIZE ISZERO DUP1 ISZERO PUSH2 0x59B JUMPI PUSH1 0x0 DUP1 REVERT JUMPDEST POP GAS CALL ISZERO DUP1 ISZERO PUSH2 0x5AF JUMPI RETURNDATASIZE PUSH1 0x0 DUP1 RETURNDATACOPY RETURNDATASIZE PUSH1 0x0 REVERT JUMPDEST POP POP POP POP PUSH1 0x40 MLOAD RETURNDATASIZE PUSH1 0x1F NOT PUSH1 0x1F DUP3 ADD AND DUP3 ADD DUP1 PUSH1 0x40 MSTORE POP DUP2 ADD SWAP1 PUSH2 0x5D3 SWAP2 SWAP1 PUSH2 0x1B77 JUMP JUMPDEST SWAP1 POP PUSH3 0x186A0 DUP2 PUSH2 0x5E4 SWAP2 SWAP1 PUSH2 0x255D JUMP JUMPDEST PUSH1 0x6 DUP2 SWAP1 SSTORE POP PUSH1 0x6 SLOAD SWAP2 POP POP SWAP1 JUMP JUMPDEST PUSH1 0x1 PUSH1 0x0 SWAP1 SLOAD SWAP1 PUSH2 0x100 EXP SWAP1 DIV PUSH20 0xFFFFFFFFFFFFFFFFFFFFFFFFFFFFFFFFFFFFFFFF AND DUP2 JUMP JUMPDEST PUSH1 0x0 DUP1 PUSH1 0x5 PUSH1 0x0 SWAP1 SLOAD SWAP1 PUSH2 0x100 EXP SWAP1 DIV PUSH20 0xFFFFFFFFFFFFFFFFFFFFFFFFFFFFFFFFFFFFFFFF AND PUSH20 0xFFFFFFFFFFFFFFFFFFFFFFFFFFFFFFFFFFFFFFFF AND PUSH4 0x50D25BCD PUSH1 0x40 MLOAD DUP2 PUSH4 0xFFFFFFFF AND PUSH1 0xE0 SHL DUP2 MSTORE PUSH1 0x4 ADD PUSH1 0x20 PUSH1 0x40 MLOAD DUP1 DUP4 SUB DUP2 DUP7 DUP1 EXTCODESIZE ISZERO DUP1 ISZERO PUSH2 0x684 JUMPI PUSH1 0x0 DUP1 REVERT JUMPDEST POP GAS STATICCALL ISZERO DUP1 ISZERO PUSH2 0x698 JUMPI RETURNDATASIZE PUSH1 0x0 DUP1 RETURNDATACOPY RETURNDATASIZE PUSH1 0x0 REVERT JUMPDEST POP POP POP POP PUSH1 0x40 MLOAD RETURNDATASIZE PUSH1 0x1F NOT PUSH1 0x1F DUP3 ADD AND DUP3 ADD DUP1 PUSH1 0x40 MSTORE POP DUP2 ADD SWAP1 PUSH2 0x6BC SWAP2 SWAP1 PUSH2 0x1B4A JUMP JUMPDEST SWAP1 POP PUSH4 0x5F5E100 DUP2 PUSH2 0x6CE SWAP2 SWAP1 PUSH2 0x24F3 JUMP JUMPDEST PUSH1 0x6 DUP2 SWAP1 SSTORE POP PUSH1 0x6 SLOAD SWAP2 POP POP SWAP1 JUMP JUMPDEST PUSH1 0x3 PUSH1 0x0 SWAP1 SLOAD SWAP1 PUSH2 0x100 EXP SWAP1 DIV PUSH20 0xFFFFFFFFFFFFFFFFFFFFFFFFFFFFFFFFFFFFFFFF AND DUP2 JUMP JUMPDEST PUSH1 0x5 PUSH1 0x0 SWAP1 SLOAD SWAP1 PUSH2 0x100 EXP SWAP1 DIV PUSH20 0xFFFFFFFFFFFFFFFFFFFFFFFFFFFFFFFFFFFFFFFF AND DUP2 JUMP JUMPDEST PUSH1 0x2 PUSH1 0x0 SWAP1 SLOAD SWAP1 PUSH2 0x100 EXP SWAP1 DIV PUSH20 0xFFFFFFFFFFFFFFFFFFFFFFFFFFFFFFFFFFFFFFFF AND DUP2 JUMP JUMPDEST PUSH1 0x0 SLOAD DUP2 JUMP JUMPDEST PUSH1 0xB PUSH1 0x0 SWAP1 SLOAD SWAP1 PUSH2 0x100 EXP SWAP1 DIV PUSH20 0xFFFFFFFFFFFFFFFFFFFFFFFFFFFFFFFFFFFFFFFF AND PUSH20 0xFFFFFFFFFFFFFFFFFFFFFFFFFFFFFFFFFFFFFFFF AND CALLER PUSH20 0xFFFFFFFFFFFFFFFFFFFFFFFFFFFFFFFFFFFFFFFF AND EQ PUSH2 0x7E5 JUMPI PUSH1 0x40 MLOAD PUSH32 0x8C379A000000000000000000000000000000000000000000000000000000000 DUP2 MSTORE PUSH1 0x4 ADD PUSH2 0x7DC SWAP1 PUSH2 0x2172 JUMP JUMPDEST PUSH1 0x40 MLOAD DUP1 SWAP2 SUB SWAP1 REVERT JUMPDEST PUSH1 0xA SLOAD TIMESTAMP GT PUSH2 0x829 JUMPI PUSH1 0x40 MLOAD PUSH32 0x8C379A000000000000000000000000000000000000000000000000000000000 DUP2 MSTORE PUSH1 0x4 ADD PUSH2 0x820 SWAP1 PUSH2 0x234A JUMP JUMPDEST PUSH1 0x40 MLOAD DUP1 SWAP2 SUB SWAP1 REVERT JUMPDEST PUSH1 0x0 PUSH2 0x833 PUSH2 0x8DA JUMP JUMPDEST SWAP1 POP PUSH1 0x0 PUSH1 0x64 PUSH1 0x8 SLOAD DUP4 PUSH2 0x847 SWAP2 SWAP1 PUSH2 0x258E JUMP JUMPDEST PUSH2 0x851 SWAP2 SWAP1 PUSH2 0x255D JUMP JUMPDEST SWAP1 POP PUSH1 0x9 SLOAD TIMESTAMP PUSH2 0x861 SWAP2 SWAP1 PUSH2 0x249D JUMP JUMPDEST PUSH1 0xA DUP2 SWAP1 SSTORE POP PUSH2 0x8D6 PUSH1 0xB PUSH1 0x0 SWAP1 SLOAD SWAP1 PUSH2 0x100 EXP SWAP1 DIV PUSH20 0xFFFFFFFFFFFFFFFFFFFFFFFFFFFFFFFFFFFFFFFF AND DUP3 PUSH1 0xC PUSH1 0x0 SWAP1 SLOAD SWAP1 PUSH2 0x100 EXP SWAP1 DIV PUSH20 0xFFFFFFFFFFFFFFFFFFFFFFFFFFFFFFFFFFFFFFFF AND PUSH20 0xFFFFFFFFFFFFFFFFFFFFFFFFFFFFFFFFFFFFFFFF AND PUSH2 0x10CF SWAP1 SWAP3 SWAP2 SWAP1 PUSH4 0xFFFFFFFF AND JUMP JUMPDEST POP POP JUMP JUMPDEST PUSH1 0x0 PUSH1 0xC PUSH1 0x0 SWAP1 SLOAD SWAP1 PUSH2 0x100 EXP SWAP1 DIV PUSH20 0xFFFFFFFFFFFFFFFFFFFFFFFFFFFFFFFFFFFFFFFF AND PUSH20 0xFFFFFFFFFFFFFFFFFFFFFFFFFFFFFFFFFFFFFFFF AND PUSH4 0x70A08231 ADDRESS PUSH1 0x40 MLOAD DUP3 PUSH4 0xFFFFFFFF AND PUSH1 0xE0 SHL DUP2 MSTORE PUSH1 0x4 ADD PUSH2 0x937 SWAP2 SWAP1 PUSH2 0x2089 JUMP JUMPDEST PUSH1 0x20 PUSH1 0x40 MLOAD DUP1 DUP4 SUB DUP2 DUP7 DUP1 EXTCODESIZE ISZERO DUP1 ISZERO PUSH2 0x94F JUMPI PUSH1 0x0 DUP1 REVERT JUMPDEST POP GAS STATICCALL ISZERO DUP1 ISZERO PUSH2 0x963 JUMPI RETURNDATASIZE PUSH1 0x0 DUP1 RETURNDATACOPY RETURNDATASIZE PUSH1 0x0 REVERT JUMPDEST POP POP POP POP PUSH1 0x40 MLOAD RETURNDATASIZE PUSH1 0x1F NOT PUSH1 0x1F DUP3 ADD AND DUP3 ADD DUP1 PUSH1 0x40 MSTORE POP DUP2 ADD SWAP1 PUSH2 0x987 SWAP2 SWAP1 PUSH2 0x1B77 JUMP JUMPDEST SWAP1 POP SWAP1 JUMP JUMPDEST PUSH1 0xB PUSH1 0x0 SWAP1 SLOAD SWAP1 PUSH2 0x100 EXP SWAP1 DIV PUSH20 0xFFFFFFFFFFFFFFFFFFFFFFFFFFFFFFFFFFFFFFFF AND PUSH20 0xFFFFFFFFFFFFFFFFFFFFFFFFFFFFFFFFFFFFFFFF AND CALLER PUSH20 0xFFFFFFFFFFFFFFFFFFFFFFFFFFFFFFFFFFFFFFFF AND EQ PUSH2 0xA1C JUMPI PUSH1 0x40 MLOAD PUSH32 0x8C379A000000000000000000000000000000000000000000000000000000000 DUP2 MSTORE PUSH1 0x4 ADD PUSH2 0xA13 SWAP1 PUSH2 0x21B2 JUMP JUMPDEST PUSH1 0x40 MLOAD DUP1 SWAP2 SUB SWAP1 REVERT JUMPDEST PUSH1 0x0 PUSH2 0xA26 PUSH2 0x8DA JUMP JUMPDEST SWAP1 POP PUSH1 0x0 DUP2 GT ISZERO PUSH2 0xAA1 JUMPI PUSH2 0xAA0 PUSH1 0xB PUSH1 0x0 SWAP1 SLOAD SWAP1 PUSH2 0x100 EXP SWAP1 DIV PUSH20 0xFFFFFFFFFFFFFFFFFFFFFFFFFFFFFFFFFFFFFFFF AND DUP3 PUSH1 0xC PUSH1 0x0 SWAP1 SLOAD SWAP1 PUSH2 0x100 EXP SWAP1 DIV PUSH20 0xFFFFFFFFFFFFFFFFFFFFFFFFFFFFFFFFFFFFFFFF AND PUSH20 0xFFFFFFFFFFFFFFFFFFFFFFFFFFFFFFFFFFFFFFFF AND PUSH2 0x10CF SWAP1 SWAP3 SWAP2 SWAP1 PUSH4 0xFFFFFFFF AND JUMP JUMPDEST JUMPDEST PUSH1 0x0 PUSH2 0xAAB PUSH2 0xDC0 JUMP JUMPDEST SWAP1 POP PUSH1 0x0 DUP2 GT ISZERO PUSH2 0xB26 JUMPI PUSH2 0xB25 PUSH1 0xB PUSH1 0x0 SWAP1 SLOAD SWAP1 PUSH2 0x100 EXP SWAP1 DIV PUSH20 0xFFFFFFFFFFFFFFFFFFFFFFFFFFFFFFFFFFFFFFFF AND DUP3 PUSH1 0xD PUSH1 0x0 SWAP1 SLOAD SWAP1 PUSH2 0x100 EXP SWAP1 DIV PUSH20 0xFFFFFFFFFFFFFFFFFFFFFFFFFFFFFFFFFFFFFFFF AND PUSH20 0xFFFFFFFFFFFFFFFFFFFFFFFFFFFFFFFFFFFFFFFF AND PUSH2 0x10CF SWAP1 SWAP3 SWAP2 SWAP1 PUSH4 0xFFFFFFFF AND JUMP JUMPDEST JUMPDEST POP POP JUMP JUMPDEST PUSH1 0x7 SLOAD DUP2 JUMP JUMPDEST PUSH1 0xB PUSH1 0x0 SWAP1 SLOAD SWAP1 PUSH2 0x100 EXP SWAP1 DIV PUSH20 0xFFFFFFFFFFFFFFFFFFFFFFFFFFFFFFFFFFFFFFFF AND PUSH20 0xFFFFFFFFFFFFFFFFFFFFFFFFFFFFFFFFFFFFFFFF AND CALLER PUSH20 0xFFFFFFFFFFFFFFFFFFFFFFFFFFFFFFFFFFFFFFFF AND EQ PUSH2 0xBC0 JUMPI PUSH1 0x40 MLOAD PUSH32 0x8C379A000000000000000000000000000000000000000000000000000000000 DUP2 MSTORE PUSH1 0x4 ADD PUSH2 0xBB7 SWAP1 PUSH2 0x23B8 JUMP JUMPDEST PUSH1 0x40 MLOAD DUP1 SWAP2 SUB SWAP1 REVERT JUMPDEST PUSH1 0x0 PUSH2 0xBCA PUSH2 0x8DA JUMP JUMPDEST SWAP1 POP PUSH1 0x0 PUSH2 0xBD6 PUSH2 0x447 JUMP JUMPDEST SWAP1 POP PUSH1 0x0 DUP2 DUP4 PUSH1 0x64 PUSH2 0xBE8 SWAP2 SWAP1 PUSH2 0x258E JUMP JUMPDEST PUSH2 0xBF2 SWAP2 SWAP1 PUSH2 0x255D JUMP JUMPDEST SWAP1 POP PUSH32 0xDCC0AF63711A020C1799E8ED90AE9945EAC070CEFE410C267BCD7EE2FDEEF23F DUP2 PUSH1 0x40 MLOAD PUSH2 0xC23 SWAP2 SWAP1 PUSH2 0x224E JUMP JUMPDEST PUSH1 0x40 MLOAD DUP1 SWAP2 SUB SWAP1 LOG1 PUSH1 0x7 SLOAD DUP2 LT ISZERO PUSH2 0xCE7 JUMPI PUSH1 0x0 DUP2 PUSH1 0x7 SLOAD PUSH2 0xC45 SWAP2 SWAP1 PUSH2 0x25E8 JUMP JUMPDEST PUSH1 0x64 DUP5 PUSH2 0xC52 SWAP2 SWAP1 PUSH2 0x255D JUMP JUMPDEST PUSH2 0xC5C SWAP2 SWAP1 PUSH2 0x258E JUMP JUMPDEST SWAP1 POP PUSH32 0xDCC0AF63711A020C1799E8ED90AE9945EAC070CEFE410C267BCD7EE2FDEEF23F DUP2 PUSH1 0x40 MLOAD PUSH2 0xC8D SWAP2 SWAP1 PUSH2 0x21D2 JUMP JUMPDEST PUSH1 0x40 MLOAD DUP1 SWAP2 SUB SWAP1 LOG1 PUSH1 0x0 DUP2 GT PUSH2 0xCD8 JUMPI PUSH1 0x40 MLOAD PUSH32 0x8C379A000000000000000000000000000000000000000000000000000000000 DUP2 MSTORE PUSH1 0x4 ADD PUSH2 0xCCF SWAP1 PUSH2 0x23D8 JUMP JUMPDEST PUSH1 0x40 MLOAD DUP1 SWAP2 SUB SWAP1 REVERT JUMPDEST PUSH2 0xCE1 DUP2 PUSH2 0x1155 JUMP JUMPDEST POP PUSH2 0xD95 JUMP JUMPDEST PUSH1 0x0 PUSH1 0x7 SLOAD DUP3 PUSH2 0xCF7 SWAP2 SWAP1 PUSH2 0x25E8 JUMP JUMPDEST PUSH1 0x64 DUP5 PUSH2 0xD04 SWAP2 SWAP1 PUSH2 0x255D JUMP JUMPDEST PUSH2 0xD0E SWAP2 SWAP1 PUSH2 0x258E JUMP JUMPDEST SWAP1 POP PUSH32 0xDCC0AF63711A020C1799E8ED90AE9945EAC070CEFE410C267BCD7EE2FDEEF23F DUP2 PUSH1 0x40 MLOAD PUSH2 0xD3F SWAP2 SWAP1 PUSH2 0x22BC JUMP JUMPDEST PUSH1 0x40 MLOAD DUP1 SWAP2 SUB SWAP1 LOG1 PUSH1 0x0 DUP2 GT PUSH2 0xD8A JUMPI PUSH1 0x40 MLOAD PUSH32 0x8C379A000000000000000000000000000000000000000000000000000000000 DUP2 MSTORE PUSH1 0x4 ADD PUSH2 0xD81 SWAP1 PUSH2 0x227C JUMP JUMPDEST PUSH1 0x40 MLOAD DUP1 SWAP2 SUB SWAP1 REVERT JUMPDEST PUSH2 0xD93 DUP2 PUSH2 0x14B3 JUMP JUMPDEST POP JUMPDEST POP POP POP JUMP JUMPDEST PUSH1 0xB PUSH1 0x0 SWAP1 SLOAD SWAP1 PUSH2 0x100 EXP SWAP1 DIV PUSH20 0xFFFFFFFFFFFFFFFFFFFFFFFFFFFFFFFFFFFFFFFF AND DUP2 JUMP JUMPDEST PUSH1 0x0 PUSH1 0xD PUSH1 0x0 SWAP1 SLOAD SWAP1 PUSH2 0x100 EXP SWAP1 DIV PUSH20 0xFFFFFFFFFFFFFFFFFFFFFFFFFFFFFFFFFFFFFFFF AND PUSH20 0xFFFFFFFFFFFFFFFFFFFFFFFFFFFFFFFFFFFFFFFF AND PUSH4 0x70A08231 ADDRESS PUSH1 0x40 MLOAD DUP3 PUSH4 0xFFFFFFFF AND PUSH1 0xE0 SHL DUP2 MSTORE PUSH1 0x4 ADD PUSH2 0xE1D SWAP2 SWAP1 PUSH2 0x2089 JUMP JUMPDEST PUSH1 0x20 PUSH1 0x40 MLOAD DUP1 DUP4 SUB DUP2 DUP7 DUP1 EXTCODESIZE ISZERO DUP1 ISZERO PUSH2 0xE35 JUMPI PUSH1 0x0 DUP1 REVERT JUMPDEST POP GAS STATICCALL ISZERO DUP1 ISZERO PUSH2 0xE49 JUMPI RETURNDATASIZE PUSH1 0x0 DUP1 RETURNDATACOPY RETURNDATASIZE PUSH1 0x0 REVERT JUMPDEST POP POP POP POP PUSH1 0x40 MLOAD RETURNDATASIZE PUSH1 0x1F NOT PUSH1 0x1F DUP3 ADD AND DUP3 ADD DUP1 PUSH1 0x40 MSTORE POP DUP2 ADD SWAP1 PUSH2 0xE6D SWAP2 SWAP1 PUSH2 0x1B77 JUMP JUMPDEST SWAP1 POP SWAP1 JUMP JUMPDEST PUSH1 0xB PUSH1 0x0 SWAP1 SLOAD SWAP1 PUSH2 0x100 EXP SWAP1 DIV PUSH20 0xFFFFFFFFFFFFFFFFFFFFFFFFFFFFFFFFFFFFFFFF AND PUSH20 0xFFFFFFFFFFFFFFFFFFFFFFFFFFFFFFFFFFFFFFFF AND CALLER PUSH20 0xFFFFFFFFFFFFFFFFFFFFFFFFFFFFFFFFFFFFFFFF AND EQ PUSH2 0xF02 JUMPI PUSH1 0x40 MLOAD PUSH32 0x8C379A000000000000000000000000000000000000000000000000000000000 DUP2 MSTORE PUSH1 0x4 ADD PUSH2 0xEF9 SWAP1 PUSH2 0x23F8 JUMP JUMPDEST PUSH1 0x40 MLOAD DUP1 SWAP2 SUB SWAP1 REVERT JUMPDEST PUSH1 0x0 SELFBALANCE SWAP1 POP PUSH1 0x0 DUP2 GT PUSH2 0xF4A JUMPI PUSH1 0x40 MLOAD PUSH32 0x8C379A000000000000000000000000000000000000000000000000000000000 DUP2 MSTORE PUSH1 0x4 ADD PUSH2 0xF41 SWAP1 PUSH2 0x229C JUMP JUMPDEST PUSH1 0x40 MLOAD DUP1 SWAP2 SUB SWAP1 REVERT JUMPDEST PUSH32 0xDCC0AF63711A020C1799E8ED90AE9945EAC070CEFE410C267BCD7EE2FDEEF23F DUP2 PUSH1 0x40 MLOAD PUSH2 0xF79 SWAP2 SWAP1 PUSH2 0x2220 JUMP JUMPDEST PUSH1 0x40 MLOAD DUP1 SWAP2 SUB SWAP1 LOG1 PUSH1 0xD PUSH1 0x0 SWAP1 SLOAD SWAP1 PUSH2 0x100 EXP SWAP1 DIV PUSH20 0xFFFFFFFFFFFFFFFFFFFFFFFFFFFFFFFFFFFFFFFF AND PUSH20 0xFFFFFFFFFFFFFFFFFFFFFFFFFFFFFFFFFFFFFFFF AND PUSH4 0xD0E30DB0 DUP3 PUSH1 0x40 MLOAD DUP3 PUSH4 0xFFFFFFFF AND PUSH1 0xE0 SHL DUP2 MSTORE PUSH1 0x4 ADD PUSH1 0x0 PUSH1 0x40 MLOAD DUP1 DUP4 SUB DUP2 DUP6 DUP9 DUP1 EXTCODESIZE ISZERO DUP1 ISZERO PUSH2 0xFEB JUMPI PUSH1 0x0 DUP1 REVERT JUMPDEST POP GAS CALL ISZERO DUP1 ISZERO PUSH2 0xFFF JUMPI RETURNDATASIZE PUSH1 0x0 DUP1 RETURNDATACOPY RETURNDATASIZE PUSH1 0x0 REVERT JUMPDEST POP POP POP POP POP POP JUMP JUMPDEST PUSH1 0x4 PUSH1 0x0 SWAP1 SLOAD SWAP1 PUSH2 0x100 EXP SWAP1 DIV PUSH20 0xFFFFFFFFFFFFFFFFFFFFFFFFFFFFFFFFFFFFFFFF AND DUP2 JUMP JUMPDEST PUSH1 0x6 SLOAD DUP2 JUMP JUMPDEST PUSH2 0x10CB DUP3 DUP3 PUSH1 0x40 MLOAD PUSH1 0x24 ADD PUSH2 0x1049 SWAP3 SWAP2 SWAP1 PUSH2 0x2142 JUMP JUMPDEST PUSH1 0x40 MLOAD PUSH1 0x20 DUP2 DUP4 SUB SUB DUP2 MSTORE SWAP1 PUSH1 0x40 MSTORE PUSH32 0x9710A9D000000000000000000000000000000000000000000000000000000000 PUSH28 0xFFFFFFFFFFFFFFFFFFFFFFFFFFFFFFFFFFFFFFFFFFFFFFFFFFFFFFFF NOT AND PUSH1 0x20 DUP3 ADD DUP1 MLOAD PUSH28 0xFFFFFFFFFFFFFFFFFFFFFFFFFFFFFFFFFFFFFFFFFFFFFFFFFFFFFFFF DUP4 DUP2 DUP4 AND OR DUP4 MSTORE POP POP POP POP PUSH2 0x1838 JUMP JUMPDEST POP POP JUMP JUMPDEST PUSH2 0x1150 DUP4 PUSH4 0xA9059CBB PUSH1 0xE0 SHL DUP5 DUP5 PUSH1 0x40 MLOAD PUSH1 0x24 ADD PUSH2 0x10EE SWAP3 SWAP2 SWAP1 PUSH2 0x20F7 JUMP JUMPDEST PUSH1 0x40 MLOAD PUSH1 0x20 DUP2 DUP4 SUB SUB DUP2 MSTORE SWAP1 PUSH1 0x40 MSTORE SWAP1 PUSH28 0xFFFFFFFFFFFFFFFFFFFFFFFFFFFFFFFFFFFFFFFFFFFFFFFFFFFFFFFF NOT AND PUSH1 0x20 DUP3 ADD DUP1 MLOAD PUSH28 0xFFFFFFFFFFFFFFFFFFFFFFFFFFFFFFFFFFFFFFFFFFFFFFFFFFFFFFFF DUP4 DUP2 DUP4 AND OR DUP4 MSTORE POP POP POP POP PUSH2 0x1861 JUMP JUMPDEST POP POP POP JUMP JUMPDEST PUSH1 0x0 PUSH1 0xF TIMESTAMP PUSH2 0x1164 SWAP2 SWAP1 PUSH2 0x249D JUMP JUMPDEST SWAP1 POP PUSH1 0x0 PUSH2 0xBB8 SWAP1 POP PUSH1 0x0 ADDRESS SWAP1 POP PUSH1 0x0 DUP5 SWAP1 POP PUSH1 0x0 PUSH12 0x204FCE5E3E25026110000000 SWAP1 POP PUSH1 0x0 PUSH1 0xD PUSH1 0x0 SWAP1 SLOAD SWAP1 PUSH2 0x100 EXP SWAP1 DIV PUSH20 0xFFFFFFFFFFFFFFFFFFFFFFFFFFFFFFFFFFFFFFFF AND PUSH20 0xFFFFFFFFFFFFFFFFFFFFFFFFFFFFFFFFFFFFFFFF AND PUSH4 0x95EA7B3 PUSH1 0x4 PUSH1 0x0 SWAP1 SLOAD SWAP1 PUSH2 0x100 EXP SWAP1 DIV PUSH20 0xFFFFFFFFFFFFFFFFFFFFFFFFFFFFFFFFFFFFFFFF AND DUP6 PUSH1 0x40 MLOAD DUP4 PUSH4 0xFFFFFFFF AND PUSH1 0xE0 SHL DUP2 MSTORE PUSH1 0x4 ADD PUSH2 0x1209 SWAP3 SWAP2 SWAP1 PUSH2 0x20F7 JUMP JUMPDEST PUSH1 0x20 PUSH1 0x40 MLOAD DUP1 DUP4 SUB DUP2 PUSH1 0x0 DUP8 DUP1 EXTCODESIZE ISZERO DUP1 ISZERO PUSH2 0x1223 JUMPI PUSH1 0x0 DUP1 REVERT JUMPDEST POP GAS CALL ISZERO DUP1 ISZERO PUSH2 0x1237 JUMPI RETURNDATASIZE PUSH1 0x0 DUP1 RETURNDATACOPY RETURNDATASIZE PUSH1 0x0 REVERT JUMPDEST POP POP POP POP PUSH1 0x40 MLOAD RETURNDATASIZE PUSH1 0x1F NOT PUSH1 0x1F DUP3 ADD AND DUP3 ADD DUP1 PUSH1 0x40 MSTORE POP DUP2 ADD SWAP1 PUSH2 0x125B SWAP2 SWAP1 PUSH2 0x1B1D JUMP JUMPDEST PUSH2 0x129A JUMPI PUSH1 0x40 MLOAD PUSH32 0x8C379A000000000000000000000000000000000000000000000000000000000 DUP2 MSTORE PUSH1 0x4 ADD PUSH2 0x1291 SWAP1 PUSH2 0x22EA JUMP JUMPDEST PUSH1 0x40 MLOAD DUP1 SWAP2 SUB SWAP1 REVERT JUMPDEST PUSH1 0x0 PUSH1 0x40 MLOAD DUP1 PUSH2 0x100 ADD PUSH1 0x40 MSTORE DUP1 PUSH1 0x2 PUSH1 0x0 SWAP1 SLOAD SWAP1 PUSH2 0x100 EXP SWAP1 DIV PUSH20 0xFFFFFFFFFFFFFFFFFFFFFFFFFFFFFFFFFFFFFFFF AND PUSH20 0xFFFFFFFFFFFFFFFFFFFFFFFFFFFFFFFFFFFFFFFF AND DUP2 MSTORE PUSH1 0x20 ADD PUSH1 0x1 PUSH1 0x0 SWAP1 SLOAD SWAP1 PUSH2 0x100 EXP SWAP1 DIV PUSH20 0xFFFFFFFFFFFFFFFFFFFFFFFFFFFFFFFFFFFFFFFF AND PUSH20 0xFFFFFFFFFFFFFFFFFFFFFFFFFFFFFFFFFFFFFFFF AND DUP2 MSTORE PUSH1 0x20 ADD DUP8 PUSH3 0xFFFFFF AND DUP2 MSTORE PUSH1 0x20 ADD DUP7 PUSH20 0xFFFFFFFFFFFFFFFFFFFFFFFFFFFFFFFFFFFFFFFF AND DUP2 MSTORE PUSH1 0x20 ADD DUP9 DUP2 MSTORE PUSH1 0x20 ADD DUP6 DUP2 MSTORE PUSH1 0x20 ADD DUP5 DUP2 MSTORE PUSH1 0x20 ADD DUP4 PUSH20 0xFFFFFFFFFFFFFFFFFFFFFFFFFFFFFFFFFFFFFFFF AND DUP2 MSTORE POP SWAP1 POP PUSH1 0xF PUSH1 0x0 SWAP1 SLOAD SWAP1 PUSH2 0x100 EXP SWAP1 DIV PUSH20 0xFFFFFFFFFFFFFFFFFFFFFFFFFFFFFFFFFFFFFFFF AND PUSH20 0xFFFFFFFFFFFFFFFFFFFFFFFFFFFFFFFFFFFFFFFF AND PUSH4 0xDB3E2198 DUP3 PUSH1 0x40 MLOAD DUP3 PUSH4 0xFFFFFFFF AND PUSH1 0xE0 SHL DUP2 MSTORE PUSH1 0x4 ADD PUSH2 0x13D4 SWAP2 SWAP1 PUSH2 0x2434 JUMP JUMPDEST PUSH1 0x20 PUSH1 0x40 MLOAD DUP1 DUP4 SUB DUP2 PUSH1 0x0 DUP8 DUP1 EXTCODESIZE ISZERO DUP1 ISZERO PUSH2 0x13EE JUMPI PUSH1 0x0 DUP1 REVERT JUMPDEST POP GAS CALL ISZERO DUP1 ISZERO PUSH2 0x1402 JUMPI RETURNDATASIZE PUSH1 0x0 DUP1 RETURNDATACOPY RETURNDATASIZE PUSH1 0x0 REVERT JUMPDEST POP POP POP POP PUSH1 0x40 MLOAD RETURNDATASIZE PUSH1 0x1F NOT PUSH1 0x1F DUP3 ADD AND DUP3 ADD DUP1 PUSH1 0x40 MSTORE POP DUP2 ADD SWAP1 PUSH2 0x1426 SWAP2 SWAP1 PUSH2 0x1B77 JUMP JUMPDEST POP PUSH1 0xF PUSH1 0x0 SWAP1 SLOAD SWAP1 PUSH2 0x100 EXP SWAP1 DIV PUSH20 0xFFFFFFFFFFFFFFFFFFFFFFFFFFFFFFFFFFFFFFFF AND PUSH20 0xFFFFFFFFFFFFFFFFFFFFFFFFFFFFFFFFFFFFFFFF AND PUSH4 0x12210E8A PUSH1 0x40 MLOAD DUP2 PUSH4 0xFFFFFFFF AND PUSH1 0xE0 SHL DUP2 MSTORE PUSH1 0x4 ADD PUSH1 0x0 PUSH1 0x40 MLOAD DUP1 DUP4 SUB DUP2 PUSH1 0x0 DUP8 DUP1 EXTCODESIZE ISZERO DUP1 ISZERO PUSH2 0x1491 JUMPI PUSH1 0x0 DUP1 REVERT JUMPDEST POP GAS CALL ISZERO DUP1 ISZERO PUSH2 0x14A5 JUMPI RETURNDATASIZE PUSH1 0x0 DUP1 RETURNDATACOPY RETURNDATASIZE PUSH1 0x0 REVERT JUMPDEST POP POP POP POP POP POP POP POP POP POP POP POP JUMP JUMPDEST PUSH1 0x0 PUSH1 0xF TIMESTAMP PUSH2 0x14C2 SWAP2 SWAP1 PUSH2 0x249D JUMP JUMPDEST SWAP1 POP PUSH1 0x0 PUSH2 0xBB8 SWAP1 POP PUSH1 0x0 ADDRESS SWAP1 POP PUSH1 0x0 DUP5 SWAP1 POP PUSH1 0x0 DUP1 PUSH32 0xDCC0AF63711A020C1799E8ED90AE9945EAC070CEFE410C267BCD7EE2FDEEF23F DUP4 PUSH1 0x40 MLOAD PUSH2 0x1507 SWAP2 SWAP1 PUSH2 0x238A JUMP JUMPDEST PUSH1 0x40 MLOAD DUP1 SWAP2 SUB SWAP1 LOG1 PUSH1 0xC PUSH1 0x0 SWAP1 SLOAD SWAP1 PUSH2 0x100 EXP SWAP1 DIV PUSH20 0xFFFFFFFFFFFFFFFFFFFFFFFFFFFFFFFFFFFFFFFF AND PUSH20 0xFFFFFFFFFFFFFFFFFFFFFFFFFFFFFFFFFFFFFFFF AND PUSH4 0x95EA7B3 PUSH1 0x4 PUSH1 0x0 SWAP1 SLOAD SWAP1 PUSH2 0x100 EXP SWAP1 DIV PUSH20 0xFFFFFFFFFFFFFFFFFFFFFFFFFFFFFFFFFFFFFFFF AND DUP6 PUSH1 0x40 MLOAD DUP4 PUSH4 0xFFFFFFFF AND PUSH1 0xE0 SHL DUP2 MSTORE PUSH1 0x4 ADD PUSH2 0x158E SWAP3 SWAP2 SWAP1 PUSH2 0x20F7 JUMP JUMPDEST PUSH1 0x20 PUSH1 0x40 MLOAD DUP1 DUP4 SUB DUP2 PUSH1 0x0 DUP8 DUP1 EXTCODESIZE ISZERO DUP1 ISZERO PUSH2 0x15A8 JUMPI PUSH1 0x0 DUP1 REVERT JUMPDEST POP GAS CALL ISZERO DUP1 ISZERO PUSH2 0x15BC JUMPI RETURNDATASIZE PUSH1 0x0 DUP1 RETURNDATACOPY RETURNDATASIZE PUSH1 0x0 REVERT JUMPDEST POP POP POP POP PUSH1 0x40 MLOAD RETURNDATASIZE PUSH1 0x1F NOT PUSH1 0x1F DUP3 ADD AND DUP3 ADD DUP1 PUSH1 0x40 MSTORE POP DUP2 ADD SWAP1 PUSH2 0x15E0 SWAP2 SWAP1 PUSH2 0x1B1D JUMP JUMPDEST PUSH2 0x161F JUMPI PUSH1 0x40 MLOAD PUSH32 0x8C379A000000000000000000000000000000000000000000000000000000000 DUP2 MSTORE PUSH1 0x4 ADD PUSH2 0x1616 SWAP1 PUSH2 0x2192 JUMP JUMPDEST PUSH1 0x40 MLOAD DUP1 SWAP2 SUB SWAP1 REVERT JUMPDEST PUSH1 0x0 PUSH1 0x40 MLOAD DUP1 PUSH2 0x100 ADD PUSH1 0x40 MSTORE DUP1 PUSH1 0x1 PUSH1 0x0 SWAP1 SLOAD SWAP1 PUSH2 0x100 EXP SWAP1 DIV PUSH20 0xFFFFFFFFFFFFFFFFFFFFFFFFFFFFFFFFFFFFFFFF AND PUSH20 0xFFFFFFFFFFFFFFFFFFFFFFFFFFFFFFFFFFFFFFFF AND DUP2 MSTORE PUSH1 0x20 ADD PUSH1 0x2 PUSH1 0x0 SWAP1 SLOAD SWAP1 PUSH2 0x100 EXP SWAP1 DIV PUSH20 0xFFFFFFFFFFFFFFFFFFFFFFFFFFFFFFFFFFFFFFFF AND PUSH20 0xFFFFFFFFFFFFFFFFFFFFFFFFFFFFFFFFFFFFFFFF AND DUP2 MSTORE PUSH1 0x20 ADD DUP8 PUSH3 0xFFFFFF AND DUP2 MSTORE PUSH1 0x20 ADD DUP7 PUSH20 0xFFFFFFFFFFFFFFFFFFFFFFFFFFFFFFFFFFFFFFFF AND DUP2 MSTORE PUSH1 0x20 ADD DUP9 DUP2 MSTORE PUSH1 0x20 ADD DUP6 DUP2 MSTORE PUSH1 0x20 ADD DUP5 DUP2 MSTORE PUSH1 0x20 ADD DUP4 PUSH20 0xFFFFFFFFFFFFFFFFFFFFFFFFFFFFFFFFFFFFFFFF AND DUP2 MSTORE POP SWAP1 POP PUSH1 0xF PUSH1 0x0 SWAP1 SLOAD SWAP1 PUSH2 0x100 EXP SWAP1 DIV PUSH20 0xFFFFFFFFFFFFFFFFFFFFFFFFFFFFFFFFFFFFFFFF AND PUSH20 0xFFFFFFFFFFFFFFFFFFFFFFFFFFFFFFFFFFFFFFFF AND PUSH4 0x414BF389 DUP3 PUSH1 0x40 MLOAD DUP3 PUSH4 0xFFFFFFFF AND PUSH1 0xE0 SHL DUP2 MSTORE PUSH1 0x4 ADD PUSH2 0x1759 SWAP2 SWAP1 PUSH2 0x2418 JUMP JUMPDEST PUSH1 0x20 PUSH1 0x40 MLOAD DUP1 DUP4 SUB DUP2 PUSH1 0x0 DUP8 DUP1 EXTCODESIZE ISZERO DUP1 ISZERO PUSH2 0x1773 JUMPI PUSH1 0x0 DUP1 REVERT JUMPDEST POP GAS CALL ISZERO DUP1 ISZERO PUSH2 0x1787 JUMPI RETURNDATASIZE PUSH1 0x0 DUP1 RETURNDATACOPY RETURNDATASIZE PUSH1 0x0 REVERT JUMPDEST POP POP POP POP PUSH1 0x40 MLOAD RETURNDATASIZE PUSH1 0x1F NOT PUSH1 0x1F DUP3 ADD AND DUP3 ADD DUP1 PUSH1 0x40 MSTORE POP DUP2 ADD SWAP1 PUSH2 0x17AB SWAP2 SWAP1 PUSH2 0x1B77 JUMP JUMPDEST POP PUSH1 0xF PUSH1 0x0 SWAP1 SLOAD SWAP1 PUSH2 0x100 EXP SWAP1 DIV PUSH20 0xFFFFFFFFFFFFFFFFFFFFFFFFFFFFFFFFFFFFFFFF AND PUSH20 0xFFFFFFFFFFFFFFFFFFFFFFFFFFFFFFFFFFFFFFFF AND PUSH4 0x12210E8A PUSH1 0x40 MLOAD DUP2 PUSH4 0xFFFFFFFF AND PUSH1 0xE0 SHL DUP2 MSTORE PUSH1 0x4 ADD PUSH1 0x0 PUSH1 0x40 MLOAD DUP1 DUP4 SUB DUP2 PUSH1 0x0 DUP8 DUP1 EXTCODESIZE ISZERO DUP1 ISZERO PUSH2 0x1816 JUMPI PUSH1 0x0 DUP1 REVERT JUMPDEST POP GAS CALL ISZERO DUP1 ISZERO PUSH2 0x182A JUMPI RETURNDATASIZE PUSH1 0x0 DUP1 RETURNDATACOPY RETURNDATASIZE PUSH1 0x0 REVERT JUMPDEST POP POP POP POP POP POP POP POP POP POP POP POP JUMP JUMPDEST PUSH1 0x0 DUP2 MLOAD SWAP1 POP PUSH1 0x0 PUSH11 0x636F6E736F6C652E6C6F67 SWAP1 POP PUSH1 0x20 DUP4 ADD PUSH1 0x0 DUP1 DUP5 DUP4 DUP6 GAS STATICCALL POP POP POP POP POP JUMP JUMPDEST PUSH1 0x0 PUSH2 0x18C3 DUP3 PUSH1 0x40 MLOAD DUP1 PUSH1 0x40 ADD PUSH1 0x40 MSTORE DUP1 PUSH1 0x20 DUP2 MSTORE PUSH1 0x20 ADD PUSH32 0x5361666545524332303A206C6F772D6C6576656C2063616C6C206661696C6564 DUP2 MSTORE POP DUP6 PUSH20 0xFFFFFFFFFFFFFFFFFFFFFFFFFFFFFFFFFFFFFFFF AND PUSH2 0x1928 SWAP1 SWAP3 SWAP2 SWAP1 PUSH4 0xFFFFFFFF AND JUMP JUMPDEST SWAP1 POP PUSH1 0x0 DUP2 MLOAD GT ISZERO PUSH2 0x1923 JUMPI DUP1 DUP1 PUSH1 0x20 ADD SWAP1 MLOAD DUP2 ADD SWAP1 PUSH2 0x18E3 SWAP2 SWAP1 PUSH2 0x1B1D JUMP JUMPDEST PUSH2 0x1922 JUMPI PUSH1 0x40 MLOAD PUSH32 0x8C379A000000000000000000000000000000000000000000000000000000000 DUP2 MSTORE PUSH1 0x4 ADD PUSH2 0x1919 SWAP1 PUSH2 0x236A JUMP JUMPDEST PUSH1 0x40 MLOAD DUP1 SWAP2 SUB SWAP1 REVERT JUMPDEST JUMPDEST POP POP POP JUMP JUMPDEST PUSH1 0x60 PUSH2 0x1937 DUP5 DUP5 PUSH1 0x0 DUP6 PUSH2 0x1940 JUMP JUMPDEST SWAP1 POP SWAP4 SWAP3 POP POP POP JUMP JUMPDEST PUSH1 0x60 DUP3 SELFBALANCE LT ISZERO PUSH2 0x1985 JUMPI PUSH1 0x40 MLOAD PUSH32 0x8C379A000000000000000000000000000000000000000000000000000000000 DUP2 MSTORE PUSH1 0x4 ADD PUSH2 0x197C SWAP1 PUSH2 0x2200 JUMP JUMPDEST PUSH1 0x40 MLOAD DUP1 SWAP2 SUB SWAP1 REVERT JUMPDEST PUSH2 0x198E DUP6 PUSH2 0x1A54 JUMP JUMPDEST PUSH2 0x19CD JUMPI PUSH1 0x40 MLOAD PUSH32 0x8C379A000000000000000000000000000000000000000000000000000000000 DUP2 MSTORE PUSH1 0x4 ADD PUSH2 0x19C4 SWAP1 PUSH2 0x230A JUMP JUMPDEST PUSH1 0x40 MLOAD DUP1 SWAP2 SUB SWAP1 REVERT JUMPDEST PUSH1 0x0 DUP1 DUP7 PUSH20 0xFFFFFFFFFFFFFFFFFFFFFFFFFFFFFFFFFFFFFFFF AND DUP6 DUP8 PUSH1 0x40 MLOAD PUSH2 0x19F6 SWAP2 SWAP1 PUSH2 0x2072 JUMP JUMPDEST PUSH1 0x0 PUSH1 0x40 MLOAD DUP1 DUP4 SUB DUP2 DUP6 DUP8 GAS CALL SWAP3 POP POP POP RETURNDATASIZE DUP1 PUSH1 0x0 DUP2 EQ PUSH2 0x1A33 JUMPI PUSH1 0x40 MLOAD SWAP2 POP PUSH1 0x1F NOT PUSH1 0x3F RETURNDATASIZE ADD AND DUP3 ADD PUSH1 0x40 MSTORE RETURNDATASIZE DUP3 MSTORE RETURNDATASIZE PUSH1 0x0 PUSH1 0x20 DUP5 ADD RETURNDATACOPY PUSH2 0x1A38 JUMP JUMPDEST PUSH1 0x60 SWAP2 POP JUMPDEST POP SWAP2 POP SWAP2 POP PUSH2 0x1A48 DUP3 DUP3 DUP7 PUSH2 0x1A77 JUMP JUMPDEST SWAP3 POP POP POP SWAP5 SWAP4 POP POP POP POP JUMP JUMPDEST PUSH1 0x0 DUP1 DUP3 PUSH20 0xFFFFFFFFFFFFFFFFFFFFFFFFFFFFFFFFFFFFFFFF AND EXTCODESIZE GT SWAP1 POP SWAP2 SWAP1 POP JUMP JUMPDEST PUSH1 0x60 DUP4 ISZERO PUSH2 0x1A87 JUMPI DUP3 SWAP1 POP PUSH2 0x1AD7 JUMP JUMPDEST PUSH1 0x0 DUP4 MLOAD GT ISZERO PUSH2 0x1A9A JUMPI DUP3 MLOAD DUP1 DUP5 PUSH1 0x20 ADD REVERT JUMPDEST DUP2 PUSH1 0x40 MLOAD PUSH32 0x8C379A000000000000000000000000000000000000000000000000000000000 DUP2 MSTORE PUSH1 0x4 ADD PUSH2 0x1ACE SWAP2 SWAP1 PUSH2 0x2120 JUMP JUMPDEST PUSH1 0x40 MLOAD DUP1 SWAP2 SUB SWAP1 REVERT JUMPDEST SWAP4 SWAP3 POP POP POP JUMP JUMPDEST PUSH1 0x0 DUP2 MLOAD SWAP1 POP PUSH2 0x1AED DUP2 PUSH2 0x2B49 JUMP JUMPDEST SWAP3 SWAP2 POP POP JUMP JUMPDEST PUSH1 0x0 DUP2 MLOAD SWAP1 POP PUSH2 0x1B02 DUP2 PUSH2 0x2B60 JUMP JUMPDEST SWAP3 SWAP2 POP POP JUMP JUMPDEST PUSH1 0x0 DUP2 MLOAD SWAP1 POP PUSH2 0x1B17 DUP2 PUSH2 0x2B77 JUMP JUMPDEST SWAP3 SWAP2 POP POP JUMP JUMPDEST PUSH1 0x0 PUSH1 0x20 DUP3 DUP5 SUB SLT ISZERO PUSH2 0x1B33 JUMPI PUSH2 0x1B32 PUSH2 0x2744 JUMP JUMPDEST JUMPDEST PUSH1 0x0 PUSH2 0x1B41 DUP5 DUP3 DUP6 ADD PUSH2 0x1ADE JUMP JUMPDEST SWAP2 POP POP SWAP3 SWAP2 POP POP JUMP JUMPDEST PUSH1 0x0 PUSH1 0x20 DUP3 DUP5 SUB SLT ISZERO PUSH2 0x1B60 JUMPI PUSH2 0x1B5F PUSH2 0x2744 JUMP JUMPDEST JUMPDEST PUSH1 0x0 PUSH2 0x1B6E DUP5 DUP3 DUP6 ADD PUSH2 0x1AF3 JUMP JUMPDEST SWAP2 POP POP SWAP3 SWAP2 POP POP JUMP JUMPDEST PUSH1 0x0 PUSH1 0x20 DUP3 DUP5 SUB SLT ISZERO PUSH2 0x1B8D JUMPI PUSH2 0x1B8C PUSH2 0x2744 JUMP JUMPDEST JUMPDEST PUSH1 0x0 PUSH2 0x1B9B DUP5 DUP3 DUP6 ADD PUSH2 0x1B08 JUMP JUMPDEST SWAP2 POP POP SWAP3 SWAP2 POP POP JUMP JUMPDEST PUSH2 0x1BAD DUP2 PUSH2 0x261C JUMP JUMPDEST DUP3 MSTORE POP POP JUMP JUMPDEST PUSH2 0x1BBC DUP2 PUSH2 0x261C JUMP JUMPDEST DUP3 MSTORE POP POP JUMP JUMPDEST PUSH1 0x0 PUSH2 0x1BCD DUP3 PUSH2 0x246B JUMP JUMPDEST PUSH2 0x1BD7 DUP2 DUP6 PUSH2 0x2481 JUMP JUMPDEST SWAP4 POP PUSH2 0x1BE7 DUP2 DUP6 PUSH1 0x20 DUP7 ADD PUSH2 0x26B3 JUMP JUMPDEST DUP1 DUP5 ADD SWAP2 POP POP SWAP3 SWAP2 POP POP JUMP JUMPDEST PUSH2 0x1BFC DUP2 PUSH2 0x267D JUMP JUMPDEST DUP3 MSTORE POP POP JUMP JUMPDEST PUSH2 0x1C0B DUP2 PUSH2 0x268F JUMP JUMPDEST DUP3 MSTORE POP POP JUMP JUMPDEST PUSH2 0x1C1A DUP2 PUSH2 0x26A1 JUMP JUMPDEST DUP3 MSTORE POP POP JUMP JUMPDEST PUSH1 0x0 PUSH2 0x1C2B DUP3 PUSH2 0x2476 JUMP JUMPDEST PUSH2 0x1C35 DUP2 DUP6 PUSH2 0x248C JUMP JUMPDEST SWAP4 POP PUSH2 0x1C45 DUP2 DUP6 PUSH1 0x20 DUP7 ADD PUSH2 0x26B3 JUMP JUMPDEST PUSH2 0x1C4E DUP2 PUSH2 0x2749 JUMP JUMPDEST DUP5 ADD SWAP2 POP POP SWAP3 SWAP2 POP POP JUMP JUMPDEST PUSH1 0x0 PUSH2 0x1C66 PUSH1 0x29 DUP4 PUSH2 0x248C JUMP JUMPDEST SWAP2 POP PUSH2 0x1C71 DUP3 PUSH2 0x275A JUMP JUMPDEST PUSH1 0x40 DUP3 ADD SWAP1 POP SWAP2 SWAP1 POP JUMP JUMPDEST PUSH1 0x0 PUSH2 0x1C89 PUSH1 0x12 DUP4 PUSH2 0x248C JUMP JUMPDEST SWAP2 POP PUSH2 0x1C94 DUP3 PUSH2 0x27A9 JUMP JUMPDEST PUSH1 0x20 DUP3 ADD SWAP1 POP SWAP2 SWAP1 POP JUMP JUMPDEST PUSH1 0x0 PUSH2 0x1CAC PUSH1 0x26 DUP4 PUSH2 0x248C JUMP JUMPDEST SWAP2 POP PUSH2 0x1CB7 DUP3 PUSH2 0x27D2 JUMP JUMPDEST PUSH1 0x40 DUP3 ADD SWAP1 POP SWAP2 SWAP1 POP JUMP JUMPDEST PUSH1 0x0 PUSH2 0x1CCF PUSH1 0xC DUP4 PUSH2 0x248C JUMP JUMPDEST SWAP2 POP PUSH2 0x1CDA DUP3 PUSH2 0x2821 JUMP JUMPDEST PUSH1 0x20 DUP3 ADD SWAP1 POP SWAP2 SWAP1 POP JUMP JUMPDEST PUSH1 0x0 PUSH2 0x1CF2 PUSH1 0x26 DUP4 PUSH2 0x248C JUMP JUMPDEST SWAP2 POP PUSH2 0x1CFD DUP3 PUSH2 0x284A JUMP JUMPDEST PUSH1 0x40 DUP3 ADD SWAP1 POP SWAP2 SWAP1 POP JUMP JUMPDEST PUSH1 0x0 PUSH2 0x1D15 PUSH1 0x7 DUP4 PUSH2 0x248C JUMP JUMPDEST SWAP2 POP PUSH2 0x1D20 DUP3 PUSH2 0x2899 JUMP JUMPDEST PUSH1 0x20 DUP3 ADD SWAP1 POP SWAP2 SWAP1 POP JUMP JUMPDEST PUSH1 0x0 PUSH2 0x1D38 PUSH1 0x14 DUP4 PUSH2 0x248C JUMP JUMPDEST SWAP2 POP PUSH2 0x1D43 DUP3 PUSH2 0x28C2 JUMP JUMPDEST PUSH1 0x20 DUP3 ADD SWAP1 POP SWAP2 SWAP1 POP JUMP JUMPDEST PUSH1 0x0 PUSH2 0x1D5B PUSH1 0xE DUP4 PUSH2 0x248C JUMP JUMPDEST SWAP2 POP PUSH2 0x1D66 DUP3 PUSH2 0x28EB JUMP JUMPDEST PUSH1 0x20 DUP3 ADD SWAP1 POP SWAP2 SWAP1 POP JUMP JUMPDEST PUSH1 0x0 PUSH2 0x1D7E PUSH1 0x18 DUP4 PUSH2 0x248C JUMP JUMPDEST SWAP2 POP PUSH2 0x1D89 DUP3 PUSH2 0x2914 JUMP JUMPDEST PUSH1 0x20 DUP3 ADD SWAP1 POP SWAP2 SWAP1 POP JUMP JUMPDEST PUSH1 0x0 PUSH2 0x1DA1 PUSH1 0xB DUP4 PUSH2 0x248C JUMP JUMPDEST SWAP2 POP PUSH2 0x1DAC DUP3 PUSH2 0x293D JUMP JUMPDEST PUSH1 0x20 DUP3 ADD SWAP1 POP SWAP2 SWAP1 POP JUMP JUMPDEST PUSH1 0x0 PUSH2 0x1DC4 PUSH1 0x13 DUP4 PUSH2 0x248C JUMP JUMPDEST SWAP2 POP PUSH2 0x1DCF DUP3 PUSH2 0x2966 JUMP JUMPDEST PUSH1 0x20 DUP3 ADD SWAP1 POP SWAP2 SWAP1 POP JUMP JUMPDEST PUSH1 0x0 PUSH2 0x1DE7 PUSH1 0x1D DUP4 PUSH2 0x248C JUMP JUMPDEST SWAP2 POP PUSH2 0x1DF2 DUP3 PUSH2 0x298F JUMP JUMPDEST PUSH1 0x20 DUP3 ADD SWAP1 POP SWAP2 SWAP1 POP JUMP JUMPDEST PUSH1 0x0 PUSH2 0x1E0A PUSH1 0x1A DUP4 PUSH2 0x248C JUMP JUMPDEST SWAP2 POP PUSH2 0x1E15 DUP3 PUSH2 0x29B8 JUMP JUMPDEST PUSH1 0x20 DUP3 ADD SWAP1 POP SWAP2 SWAP1 POP JUMP JUMPDEST PUSH1 0x0 PUSH2 0x1E2D PUSH1 0x17 DUP4 PUSH2 0x248C JUMP JUMPDEST SWAP2 POP PUSH2 0x1E38 DUP3 PUSH2 0x29E1 JUMP JUMPDEST PUSH1 0x20 DUP3 ADD SWAP1 POP SWAP2 SWAP1 POP JUMP JUMPDEST PUSH1 0x0 PUSH2 0x1E50 PUSH1 0x2A DUP4 PUSH2 0x248C JUMP JUMPDEST SWAP2 POP PUSH2 0x1E5B DUP3 PUSH2 0x2A0A JUMP JUMPDEST PUSH1 0x40 DUP3 ADD SWAP1 POP SWAP2 SWAP1 POP JUMP JUMPDEST PUSH1 0x0 PUSH2 0x1E73 PUSH1 0x8 DUP4 PUSH2 0x248C JUMP JUMPDEST SWAP2 POP PUSH2 0x1E7E DUP3 PUSH2 0x2A59 JUMP JUMPDEST PUSH1 0x20 DUP3 ADD SWAP1 POP SWAP2 SWAP1 POP JUMP JUMPDEST PUSH1 0x0 PUSH2 0x1E96 PUSH1 0x2A DUP4 PUSH2 0x248C JUMP JUMPDEST SWAP2 POP PUSH2 0x1EA1 DUP3 PUSH2 0x2A82 JUMP JUMPDEST PUSH1 0x40 DUP3 ADD SWAP1 POP SWAP2 SWAP1 POP JUMP JUMPDEST PUSH1 0x0 PUSH2 0x1EB9 PUSH1 0xF DUP4 PUSH2 0x248C JUMP JUMPDEST SWAP2 POP PUSH2 0x1EC4 DUP3 PUSH2 0x2AD1 JUMP JUMPDEST PUSH1 0x20 DUP3 ADD SWAP1 POP SWAP2 SWAP1 POP JUMP JUMPDEST PUSH1 0x0 PUSH2 0x1EDC PUSH1 0x26 DUP4 PUSH2 0x248C JUMP JUMPDEST SWAP2 POP PUSH2 0x1EE7 DUP3 PUSH2 0x2AFA JUMP JUMPDEST PUSH1 0x40 DUP3 ADD SWAP1 POP SWAP2 SWAP1 POP JUMP JUMPDEST PUSH2 0x100 DUP3 ADD PUSH1 0x0 DUP3 ADD MLOAD PUSH2 0x1F09 PUSH1 0x0 DUP6 ADD DUP3 PUSH2 0x1BA4 JUMP JUMPDEST POP PUSH1 0x20 DUP3 ADD MLOAD PUSH2 0x1F1C PUSH1 0x20 DUP6 ADD DUP3 PUSH2 0x1BA4 JUMP JUMPDEST POP PUSH1 0x40 DUP3 ADD MLOAD PUSH2 0x1F2F PUSH1 0x40 DUP6 ADD DUP3 PUSH2 0x2045 JUMP JUMPDEST POP PUSH1 0x60 DUP3 ADD MLOAD PUSH2 0x1F42 PUSH1 0x60 DUP6 ADD DUP3 PUSH2 0x1BA4 JUMP JUMPDEST POP PUSH1 0x80 DUP3 ADD MLOAD PUSH2 0x1F55 PUSH1 0x80 DUP6 ADD DUP3 PUSH2 0x2054 JUMP JUMPDEST POP PUSH1 0xA0 DUP3 ADD MLOAD PUSH2 0x1F68 PUSH1 0xA0 DUP6 ADD DUP3 PUSH2 0x2054 JUMP JUMPDEST POP PUSH1 0xC0 DUP3 ADD MLOAD PUSH2 0x1F7B PUSH1 0xC0 DUP6 ADD DUP3 PUSH2 0x2054 JUMP JUMPDEST POP PUSH1 0xE0 DUP3 ADD MLOAD PUSH2 0x1F8E PUSH1 0xE0 DUP6 ADD DUP3 PUSH2 0x2036 JUMP JUMPDEST POP POP POP POP JUMP JUMPDEST PUSH2 0x100 DUP3 ADD PUSH1 0x0 DUP3 ADD MLOAD PUSH2 0x1FAB PUSH1 0x0 DUP6 ADD DUP3 PUSH2 0x1BA4 JUMP JUMPDEST POP PUSH1 0x20 DUP3 ADD MLOAD PUSH2 0x1FBE PUSH1 0x20 DUP6 ADD DUP3 PUSH2 0x1BA4 JUMP JUMPDEST POP PUSH1 0x40 DUP3 ADD MLOAD PUSH2 0x1FD1 PUSH1 0x40 DUP6 ADD DUP3 PUSH2 0x2045 JUMP JUMPDEST POP PUSH1 0x60 DUP3 ADD MLOAD PUSH2 0x1FE4 PUSH1 0x60 DUP6 ADD DUP3 PUSH2 0x1BA4 JUMP JUMPDEST POP PUSH1 0x80 DUP3 ADD MLOAD PUSH2 0x1FF7 PUSH1 0x80 DUP6 ADD DUP3 PUSH2 0x2054 JUMP JUMPDEST POP PUSH1 0xA0 DUP3 ADD MLOAD PUSH2 0x200A PUSH1 0xA0 DUP6 ADD DUP3 PUSH2 0x2054 JUMP JUMPDEST POP PUSH1 0xC0 DUP3 ADD MLOAD PUSH2 0x201D PUSH1 0xC0 DUP6 ADD DUP3 PUSH2 0x2054 JUMP JUMPDEST POP PUSH1 0xE0 DUP3 ADD MLOAD PUSH2 0x2030 PUSH1 0xE0 DUP6 ADD DUP3 PUSH2 0x2036 JUMP JUMPDEST POP POP POP POP JUMP JUMPDEST PUSH2 0x203F DUP2 PUSH2 0x2644 JUMP JUMPDEST DUP3 MSTORE POP POP JUMP JUMPDEST PUSH2 0x204E DUP2 PUSH2 0x2664 JUMP JUMPDEST DUP3 MSTORE POP POP JUMP JUMPDEST PUSH2 0x205D DUP2 PUSH2 0x2673 JUMP JUMPDEST DUP3 MSTORE POP POP JUMP JUMPDEST PUSH2 0x206C DUP2 PUSH2 0x2673 JUMP JUMPDEST DUP3 MSTORE POP POP JUMP JUMPDEST PUSH1 0x0 PUSH2 0x207E DUP3 DUP5 PUSH2 0x1BC2 JUMP JUMPDEST SWAP2 POP DUP2 SWAP1 POP SWAP3 SWAP2 POP POP JUMP JUMPDEST PUSH1 0x0 PUSH1 0x20 DUP3 ADD SWAP1 POP PUSH2 0x209E PUSH1 0x0 DUP4 ADD DUP5 PUSH2 0x1BB3 JUMP JUMPDEST SWAP3 SWAP2 POP POP JUMP JUMPDEST PUSH1 0x0 PUSH1 0xA0 DUP3 ADD SWAP1 POP PUSH2 0x20B9 PUSH1 0x0 DUP4 ADD DUP9 PUSH2 0x1BB3 JUMP JUMPDEST PUSH2 0x20C6 PUSH1 0x20 DUP4 ADD DUP8 PUSH2 0x1BB3 JUMP JUMPDEST PUSH2 0x20D3 PUSH1 0x40 DUP4 ADD DUP7 PUSH2 0x1C11 JUMP JUMPDEST PUSH2 0x20E0 PUSH1 0x60 DUP4 ADD DUP6 PUSH2 0x1C02 JUMP JUMPDEST PUSH2 0x20ED PUSH1 0x80 DUP4 ADD DUP5 PUSH2 0x1BF3 JUMP JUMPDEST SWAP7 SWAP6 POP POP POP POP POP POP JUMP JUMPDEST PUSH1 0x0 PUSH1 0x40 DUP3 ADD SWAP1 POP PUSH2 0x210C PUSH1 0x0 DUP4 ADD DUP6 PUSH2 0x1BB3 JUMP JUMPDEST PUSH2 0x2119 PUSH1 0x20 DUP4 ADD DUP5 PUSH2 0x2063 JUMP JUMPDEST SWAP4 SWAP3 POP POP POP JUMP JUMPDEST PUSH1 0x0 PUSH1 0x20 DUP3 ADD SWAP1 POP DUP2 DUP2 SUB PUSH1 0x0 DUP4 ADD MSTORE PUSH2 0x213A DUP2 DUP5 PUSH2 0x1C20 JUMP JUMPDEST SWAP1 POP SWAP3 SWAP2 POP POP JUMP JUMPDEST PUSH1 0x0 PUSH1 0x40 DUP3 ADD SWAP1 POP DUP2 DUP2 SUB PUSH1 0x0 DUP4 ADD MSTORE PUSH2 0x215C DUP2 DUP6 PUSH2 0x1C20 JUMP JUMPDEST SWAP1 POP PUSH2 0x216B PUSH1 0x20 DUP4 ADD DUP5 PUSH2 0x2063 JUMP JUMPDEST SWAP4 SWAP3 POP POP POP JUMP JUMPDEST PUSH1 0x0 PUSH1 0x20 DUP3 ADD SWAP1 POP DUP2 DUP2 SUB PUSH1 0x0 DUP4 ADD MSTORE PUSH2 0x218B DUP2 PUSH2 0x1C59 JUMP JUMPDEST SWAP1 POP SWAP2 SWAP1 POP JUMP JUMPDEST PUSH1 0x0 PUSH1 0x20 DUP3 ADD SWAP1 POP DUP2 DUP2 SUB PUSH1 0x0 DUP4 ADD MSTORE PUSH2 0x21AB DUP2 PUSH2 0x1C7C JUMP JUMPDEST SWAP1 POP SWAP2 SWAP1 POP JUMP JUMPDEST PUSH1 0x0 PUSH1 0x20 DUP3 ADD SWAP1 POP DUP2 DUP2 SUB PUSH1 0x0 DUP4 ADD MSTORE PUSH2 0x21CB DUP2 PUSH2 0x1C9F JUMP JUMPDEST SWAP1 POP SWAP2 SWAP1 POP JUMP JUMPDEST PUSH1 0x0 PUSH1 0x40 DUP3 ADD SWAP1 POP DUP2 DUP2 SUB PUSH1 0x0 DUP4 ADD MSTORE PUSH2 0x21EB DUP2 PUSH2 0x1CC2 JUMP JUMPDEST SWAP1 POP PUSH2 0x21FA PUSH1 0x20 DUP4 ADD DUP5 PUSH2 0x2063 JUMP JUMPDEST SWAP3 SWAP2 POP POP JUMP JUMPDEST PUSH1 0x0 PUSH1 0x20 DUP3 ADD SWAP1 POP DUP2 DUP2 SUB PUSH1 0x0 DUP4 ADD MSTORE PUSH2 0x2219 DUP2 PUSH2 0x1CE5 JUMP JUMPDEST SWAP1 POP SWAP2 SWAP1 POP JUMP JUMPDEST PUSH1 0x0 PUSH1 0x40 DUP3 ADD SWAP1 POP DUP2 DUP2 SUB PUSH1 0x0 DUP4 ADD MSTORE PUSH2 0x2239 DUP2 PUSH2 0x1D08 JUMP JUMPDEST SWAP1 POP PUSH2 0x2248 PUSH1 0x20 DUP4 ADD DUP5 PUSH2 0x2063 JUMP JUMPDEST SWAP3 SWAP2 POP POP JUMP JUMPDEST PUSH1 0x0 PUSH1 0x40 DUP3 ADD SWAP1 POP DUP2 DUP2 SUB PUSH1 0x0 DUP4 ADD MSTORE PUSH2 0x2267 DUP2 PUSH2 0x1D2B JUMP JUMPDEST SWAP1 POP PUSH2 0x2276 PUSH1 0x20 DUP4 ADD DUP5 PUSH2 0x2063 JUMP JUMPDEST SWAP3 SWAP2 POP POP JUMP JUMPDEST PUSH1 0x0 PUSH1 0x20 DUP3 ADD SWAP1 POP DUP2 DUP2 SUB PUSH1 0x0 DUP4 ADD MSTORE PUSH2 0x2295 DUP2 PUSH2 0x1D4E JUMP JUMPDEST SWAP1 POP SWAP2 SWAP1 POP JUMP JUMPDEST PUSH1 0x0 PUSH1 0x20 DUP3 ADD SWAP1 POP DUP2 DUP2 SUB PUSH1 0x0 DUP4 ADD MSTORE PUSH2 0x22B5 DUP2 PUSH2 0x1D71 JUMP JUMPDEST SWAP1 POP SWAP2 SWAP1 POP JUMP JUMPDEST PUSH1 0x0 PUSH1 0x40 DUP3 ADD SWAP1 POP DUP2 DUP2 SUB PUSH1 0x0 DUP4 ADD MSTORE PUSH2 0x22D5 DUP2 PUSH2 0x1D94 JUMP JUMPDEST SWAP1 POP PUSH2 0x22E4 PUSH1 0x20 DUP4 ADD DUP5 PUSH2 0x2063 JUMP JUMPDEST SWAP3 SWAP2 POP POP JUMP JUMPDEST PUSH1 0x0 PUSH1 0x20 DUP3 ADD SWAP1 POP DUP2 DUP2 SUB PUSH1 0x0 DUP4 ADD MSTORE PUSH2 0x2303 DUP2 PUSH2 0x1DB7 JUMP JUMPDEST SWAP1 POP SWAP2 SWAP1 POP JUMP JUMPDEST PUSH1 0x0 PUSH1 0x20 DUP3 ADD SWAP1 POP DUP2 DUP2 SUB PUSH1 0x0 DUP4 ADD MSTORE PUSH2 0x2323 DUP2 PUSH2 0x1DDA JUMP JUMPDEST SWAP1 POP SWAP2 SWAP1 POP JUMP JUMPDEST PUSH1 0x0 PUSH1 0x20 DUP3 ADD SWAP1 POP DUP2 DUP2 SUB PUSH1 0x0 DUP4 ADD MSTORE PUSH2 0x2343 DUP2 PUSH2 0x1DFD JUMP JUMPDEST SWAP1 POP SWAP2 SWAP1 POP JUMP JUMPDEST PUSH1 0x0 PUSH1 0x20 DUP3 ADD SWAP1 POP DUP2 DUP2 SUB PUSH1 0x0 DUP4 ADD MSTORE PUSH2 0x2363 DUP2 PUSH2 0x1E20 JUMP JUMPDEST SWAP1 POP SWAP2 SWAP1 POP JUMP JUMPDEST PUSH1 0x0 PUSH1 0x20 DUP3 ADD SWAP1 POP DUP2 DUP2 SUB PUSH1 0x0 DUP4 ADD MSTORE PUSH2 0x2383 DUP2 PUSH2 0x1E43 JUMP JUMPDEST SWAP1 POP SWAP2 SWAP1 POP JUMP JUMPDEST PUSH1 0x0 PUSH1 0x40 DUP3 ADD SWAP1 POP DUP2 DUP2 SUB PUSH1 0x0 DUP4 ADD MSTORE PUSH2 0x23A3 DUP2 PUSH2 0x1E66 JUMP JUMPDEST SWAP1 POP PUSH2 0x23B2 PUSH1 0x20 DUP4 ADD DUP5 PUSH2 0x2063 JUMP JUMPDEST SWAP3 SWAP2 POP POP JUMP JUMPDEST PUSH1 0x0 PUSH1 0x20 DUP3 ADD SWAP1 POP DUP2 DUP2 SUB PUSH1 0x0 DUP4 ADD MSTORE PUSH2 0x23D1 DUP2 PUSH2 0x1E89 JUMP JUMPDEST SWAP1 POP SWAP2 SWAP1 POP JUMP JUMPDEST PUSH1 0x0 PUSH1 0x20 DUP3 ADD SWAP1 POP DUP2 DUP2 SUB PUSH1 0x0 DUP4 ADD MSTORE PUSH2 0x23F1 DUP2 PUSH2 0x1EAC JUMP JUMPDEST SWAP1 POP SWAP2 SWAP1 POP JUMP JUMPDEST PUSH1 0x0 PUSH1 0x20 DUP3 ADD SWAP1 POP DUP2 DUP2 SUB PUSH1 0x0 DUP4 ADD MSTORE PUSH2 0x2411 DUP2 PUSH2 0x1ECF JUMP JUMPDEST SWAP1 POP SWAP2 SWAP1 POP JUMP JUMPDEST PUSH1 0x0 PUSH2 0x100 DUP3 ADD SWAP1 POP PUSH2 0x242E PUSH1 0x0 DUP4 ADD DUP5 PUSH2 0x1EF2 JUMP JUMPDEST SWAP3 SWAP2 POP POP JUMP JUMPDEST PUSH1 0x0 PUSH2 0x100 DUP3 ADD SWAP1 POP PUSH2 0x244A PUSH1 0x0 DUP4 ADD DUP5 PUSH2 0x1F94 JUMP JUMPDEST SWAP3 SWAP2 POP POP JUMP JUMPDEST PUSH1 0x0 PUSH1 0x20 DUP3 ADD SWAP1 POP PUSH2 0x2465 PUSH1 0x0 DUP4 ADD DUP5 PUSH2 0x2063 JUMP JUMPDEST SWAP3 SWAP2 POP POP JUMP JUMPDEST PUSH1 0x0 DUP2 MLOAD SWAP1 POP SWAP2 SWAP1 POP JUMP JUMPDEST PUSH1 0x0 DUP2 MLOAD SWAP1 POP SWAP2 SWAP1 POP JUMP JUMPDEST PUSH1 0x0 DUP2 SWAP1 POP SWAP3 SWAP2 POP POP JUMP JUMPDEST PUSH1 0x0 DUP3 DUP3 MSTORE PUSH1 0x20 DUP3 ADD SWAP1 POP SWAP3 SWAP2 POP POP JUMP JUMPDEST PUSH1 0x0 PUSH2 0x24A8 DUP3 PUSH2 0x2673 JUMP JUMPDEST SWAP2 POP PUSH2 0x24B3 DUP4 PUSH2 0x2673 JUMP JUMPDEST SWAP3 POP DUP3 PUSH32 0xFFFFFFFFFFFFFFFFFFFFFFFFFFFFFFFFFFFFFFFFFFFFFFFFFFFFFFFFFFFFFFFF SUB DUP3 GT ISZERO PUSH2 0x24E8 JUMPI PUSH2 0x24E7 PUSH2 0x26E6 JUMP JUMPDEST JUMPDEST DUP3 DUP3 ADD SWAP1 POP SWAP3 SWAP2 POP POP JUMP JUMPDEST PUSH1 0x0 PUSH2 0x24FE DUP3 PUSH2 0x263A JUMP JUMPDEST SWAP2 POP PUSH2 0x2509 DUP4 PUSH2 0x263A JUMP JUMPDEST SWAP3 POP DUP3 PUSH2 0x2519 JUMPI PUSH2 0x2518 PUSH2 0x2715 JUMP JUMPDEST JUMPDEST PUSH1 0x1 PUSH1 0x0 SUB DUP4 EQ PUSH32 0x8000000000000000000000000000000000000000000000000000000000000000 DUP4 EQ AND ISZERO PUSH2 0x2552 JUMPI PUSH2 0x2551 PUSH2 0x26E6 JUMP JUMPDEST JUMPDEST DUP3 DUP3 SDIV SWAP1 POP SWAP3 SWAP2 POP POP JUMP JUMPDEST PUSH1 0x0 PUSH2 0x2568 DUP3 PUSH2 0x2673 JUMP JUMPDEST SWAP2 POP PUSH2 0x2573 DUP4 PUSH2 0x2673 JUMP JUMPDEST SWAP3 POP DUP3 PUSH2 0x2583 JUMPI PUSH2 0x2582 PUSH2 0x2715 JUMP JUMPDEST JUMPDEST DUP3 DUP3 DIV SWAP1 POP SWAP3 SWAP2 POP POP JUMP JUMPDEST PUSH1 0x0 PUSH2 0x2599 DUP3 PUSH2 0x2673 JUMP JUMPDEST SWAP2 POP PUSH2 0x25A4 DUP4 PUSH2 0x2673 JUMP JUMPDEST SWAP3 POP DUP2 PUSH32 0xFFFFFFFFFFFFFFFFFFFFFFFFFFFFFFFFFFFFFFFFFFFFFFFFFFFFFFFFFFFFFFFF DIV DUP4 GT DUP3 ISZERO ISZERO AND ISZERO PUSH2 0x25DD JUMPI PUSH2 0x25DC PUSH2 0x26E6 JUMP JUMPDEST JUMPDEST DUP3 DUP3 MUL SWAP1 POP SWAP3 SWAP2 POP POP JUMP JUMPDEST PUSH1 0x0 PUSH2 0x25F3 DUP3 PUSH2 0x2673 JUMP JUMPDEST SWAP2 POP PUSH2 0x25FE DUP4 PUSH2 0x2673 JUMP JUMPDEST SWAP3 POP DUP3 DUP3 LT ISZERO PUSH2 0x2611 JUMPI PUSH2 0x2610 PUSH2 0x26E6 JUMP JUMPDEST JUMPDEST DUP3 DUP3 SUB SWAP1 POP SWAP3 SWAP2 POP POP JUMP JUMPDEST PUSH1 0x0 PUSH2 0x2627 DUP3 PUSH2 0x2644 JUMP JUMPDEST SWAP1 POP SWAP2 SWAP1 POP JUMP JUMPDEST PUSH1 0x0 DUP2 ISZERO ISZERO SWAP1 POP SWAP2 SWAP1 POP JUMP JUMPDEST PUSH1 0x0 DUP2 SWAP1 POP SWAP2 SWAP1 POP JUMP JUMPDEST PUSH1 0x0 PUSH20 0xFFFFFFFFFFFFFFFFFFFFFFFFFFFFFFFFFFFFFFFF DUP3 AND SWAP1 POP SWAP2 SWAP1 POP JUMP JUMPDEST PUSH1 0x0 PUSH3 0xFFFFFF DUP3 AND SWAP1 POP SWAP2 SWAP1 POP JUMP JUMPDEST PUSH1 0x0 DUP2 SWAP1 POP SWAP2 SWAP1 POP JUMP JUMPDEST PUSH1 0x0 PUSH2 0x2688 DUP3 PUSH2 0x2644 JUMP JUMPDEST SWAP1 POP SWAP2 SWAP1 POP JUMP JUMPDEST PUSH1 0x0 PUSH2 0x269A DUP3 PUSH2 0x2673 JUMP JUMPDEST SWAP1 POP SWAP2 SWAP1 POP JUMP JUMPDEST PUSH1 0x0 PUSH2 0x26AC DUP3 PUSH2 0x2664 JUMP JUMPDEST SWAP1 POP SWAP2 SWAP1 POP JUMP JUMPDEST PUSH1 0x0 JUMPDEST DUP4 DUP2 LT ISZERO PUSH2 0x26D1 JUMPI DUP1 DUP3 ADD MLOAD DUP2 DUP5 ADD MSTORE PUSH1 0x20 DUP2 ADD SWAP1 POP PUSH2 0x26B6 JUMP JUMPDEST DUP4 DUP2 GT ISZERO PUSH2 0x26E0 JUMPI PUSH1 0x0 DUP5 DUP5 ADD MSTORE JUMPDEST POP POP POP POP JUMP JUMPDEST PUSH32 0x4E487B7100000000000000000000000000000000000000000000000000000000 PUSH1 0x0 MSTORE PUSH1 0x11 PUSH1 0x4 MSTORE PUSH1 0x24 PUSH1 0x0 REVERT JUMPDEST PUSH32 0x4E487B7100000000000000000000000000000000000000000000000000000000 PUSH1 0x0 MSTORE PUSH1 0x12 PUSH1 0x4 MSTORE PUSH1 0x24 PUSH1 0x0 REVERT JUMPDEST PUSH1 0x0 DUP1 REVERT JUMPDEST PUSH1 0x0 PUSH1 0x1F NOT PUSH1 0x1F DUP4 ADD AND SWAP1 POP SWAP2 SWAP1 POP JUMP JUMPDEST PUSH32 0x4F6E6C7920746865206F776E65722063616E2064726177646F776E2074686569 PUSH1 0x0 DUP3 ADD MSTORE PUSH32 0x72206163636F756E740000000000000000000000000000000000000000000000 PUSH1 0x20 DUP3 ADD MSTORE POP JUMP JUMPDEST PUSH32 0x44414920617070726F7665206661696C65640000000000000000000000000000 PUSH1 0x0 DUP3 ADD MSTORE POP JUMP JUMPDEST PUSH32 0x4F6E6C7920746865206F776E65722063616E20636C6F73652074686569722061 PUSH1 0x0 DUP3 ADD MSTORE PUSH32 0x63636F756E740000000000000000000000000000000000000000000000000000 PUSH1 0x20 DUP3 ADD MSTORE POP JUMP JUMPDEST PUSH32 0x616D6F756E74546F53656C6C0000000000000000000000000000000000000000 PUSH1 0x0 DUP3 ADD MSTORE POP JUMP JUMPDEST PUSH32 0x416464726573733A20696E73756666696369656E742062616C616E636520666F PUSH1 0x0 DUP3 ADD MSTORE PUSH32 0x722063616C6C0000000000000000000000000000000000000000000000000000 PUSH1 0x20 DUP3 ADD MSTORE POP JUMP JUMPDEST PUSH32 0x7772617045544800000000000000000000000000000000000000000000000000 PUSH1 0x0 DUP3 ADD MSTORE POP JUMP JUMPDEST PUSH32 0x75736442616C616E636550657263656E74616765000000000000000000000000 PUSH1 0x0 DUP3 ADD MSTORE POP JUMP JUMPDEST PUSH32 0x4E6F7468696E6720746F20627579000000000000000000000000000000000000 PUSH1 0x0 DUP3 ADD MSTORE POP JUMP JUMPDEST PUSH32 0x4E6F2045544820617661696C61626C6520746F20777261700000000000000000 PUSH1 0x0 DUP3 ADD MSTORE POP JUMP JUMPDEST PUSH32 0x616D6F756E74546F427579000000000000000000000000000000000000000000 PUSH1 0x0 DUP3 ADD MSTORE POP JUMP JUMPDEST PUSH32 0x5745544820617070726F7665206661696C656400000000000000000000000000 PUSH1 0x0 DUP3 ADD MSTORE POP JUMP JUMPDEST PUSH32 0x416464726573733A2063616C6C20746F206E6F6E2D636F6E7472616374000000 PUSH1 0x0 DUP3 ADD MSTORE POP JUMP JUMPDEST PUSH32 0x45544820707269636520686173206E6F74206265656E20736574000000000000 PUSH1 0x0 DUP3 ADD MSTORE POP JUMP JUMPDEST PUSH32 0x4469766964656E64206973206E6F742079657420647565000000000000000000 PUSH1 0x0 DUP3 ADD MSTORE POP JUMP JUMPDEST PUSH32 0x5361666545524332303A204552433230206F7065726174696F6E20646964206E PUSH1 0x0 DUP3 ADD MSTORE PUSH32 0x6F74207375636365656400000000000000000000000000000000000000000000 PUSH1 0x20 DUP3 ADD MSTORE POP JUMP JUMPDEST PUSH32 0x616D6F756E74496E000000000000000000000000000000000000000000000000 PUSH1 0x0 DUP3 ADD MSTORE POP JUMP JUMPDEST PUSH32 0x4F6E6C7920746865206F776E65722063616E20726562616C616E636520746865 PUSH1 0x0 DUP3 ADD MSTORE PUSH32 0x6972206163636F756E7400000000000000000000000000000000000000000000 PUSH1 0x20 DUP3 ADD MSTORE POP JUMP JUMPDEST PUSH32 0x4E6F7468696E6720746F2073656C6C0000000000000000000000000000000000 PUSH1 0x0 DUP3 ADD MSTORE POP JUMP JUMPDEST PUSH32 0x4F6E6C7920746865206F776E65722063616E20636F6E76657274204554482074 PUSH1 0x0 DUP3 ADD MSTORE PUSH32 0x6F20574554480000000000000000000000000000000000000000000000000000 PUSH1 0x20 DUP3 ADD MSTORE POP JUMP JUMPDEST PUSH2 0x2B52 DUP2 PUSH2 0x262E JUMP JUMPDEST DUP2 EQ PUSH2 0x2B5D JUMPI PUSH1 0x0 DUP1 REVERT JUMPDEST POP JUMP JUMPDEST PUSH2 0x2B69 DUP2 PUSH2 0x263A JUMP JUMPDEST DUP2 EQ PUSH2 0x2B74 JUMPI PUSH1 0x0 DUP1 REVERT JUMPDEST POP JUMP JUMPDEST PUSH2 0x2B80 DUP2 PUSH2 0x2673 JUMP JUMPDEST DUP2 EQ PUSH2 0x2B8B JUMPI PUSH1 0x0 DUP1 REVERT JUMPDEST POP JUMP INVALID LOG2 PUSH5 0x6970667358 0x22 SLT KECCAK256 0xBF 0xE0 LOG3 0xBC CALLER 0xED STATICCALL 0xC7 0xED PUSH16 0x8673AAC7D63DC7F8D04176BD88F1D55 CODESIZE 0xCC SWAP10 CALLER 0x22 SWAP16 PUSH5 0x736F6C6343 STOP ADDMOD SMOD STOP CALLER "
		},
		"gasEstimates": {
			"creation": {
				"codeDepositCost": "2240800",
				"executionCost": "infinite",
				"totalCost": "infinite"
			},
			"external": {
				"annualDividend()": "infinite",
				"chainLinkETHUSDAddress()": "2581",
				"closeAccount()": "infinite",
				"daiAddress()": "2626",
				"ethPrice()": "2539",
				"getDaiBalance()": "infinite",
				"getTotalBalance()": "infinite",
				"getWethBalance()": "infinite",
				"nextDividendTS()": "2475",
				"owner()": "2536",
				"rebalance()": "infinite",
				"uinswapV3QuoterAddress()": "2559",
				"uinswapV3RouterAddress()": "2602",
				"updateEthPriceChainlink()": "infinite",
				"updateEthPriceUniswap()": "infinite",
				"usdDividendPercentage()": "2453",
				"usdTargetPercentage()": "2518",
				"version()": "2540",
				"wethAddress()": "2603",
				"wrapETH()": "2705"
			},
			"internal": {
				"buyWeth(uint256)": "infinite",
				"sellWeth(uint256)": "infinite"
			}
		},
		"methodIdentifiers": {
			"annualDividend()": "5b9258e2",
			"chainLinkETHUSDAddress()": "4c488eeb",
			"closeAccount()": "6dd22fc6",
			"daiAddress()": "2c387275",
			"ethPrice()": "ff186b2e",
			"getDaiBalance()": "5ddc916a",
			"getTotalBalance()": "12b58349",
			"getWethBalance()": "9dd58b58",
			"nextDividendTS()": "10adb1be",
			"owner()": "8da5cb5b",
			"rebalance()": "7d7c2a1c",
			"uinswapV3QuoterAddress()": "4bb19571",
			"uinswapV3RouterAddress()": "dbf88ece",
			"updateEthPriceChainlink()": "3eb671bb",
			"updateEthPriceUniswap()": "22c14060",
			"usdDividendPercentage()": "0ca4fb3b",
			"usdTargetPercentage()": "6df89364",
			"version()": "54fd4d50",
			"wethAddress()": "4f0e0ef3",
			"wrapETH()": "a85ef678"
		}
	},
	"abi": [
		{
			"inputs": [],
			"stateMutability": "nonpayable",
			"type": "constructor"
		},
		{
			"anonymous": false,
			"inputs": [
				{
					"indexed": false,
					"internalType": "string",
					"name": "msg",
					"type": "string"
				},
				{
					"indexed": false,
					"internalType": "uint256",
					"name": "ref",
					"type": "uint256"
				}
			],
			"name": "myVaultLog",
			"type": "event"
		},
		{
			"inputs": [],
			"name": "annualDividend",
			"outputs": [],
			"stateMutability": "nonpayable",
			"type": "function"
		},
		{
			"inputs": [],
			"name": "chainLinkETHUSDAddress",
			"outputs": [
				{
					"internalType": "address",
					"name": "",
					"type": "address"
				}
			],
			"stateMutability": "view",
			"type": "function"
		},
		{
			"inputs": [],
			"name": "closeAccount",
			"outputs": [],
			"stateMutability": "nonpayable",
			"type": "function"
		},
		{
			"inputs": [],
			"name": "daiAddress",
			"outputs": [
				{
					"internalType": "address",
					"name": "",
					"type": "address"
				}
			],
			"stateMutability": "view",
			"type": "function"
		},
		{
			"inputs": [],
			"name": "ethPrice",
			"outputs": [
				{
					"internalType": "uint256",
					"name": "",
					"type": "uint256"
				}
			],
			"stateMutability": "view",
			"type": "function"
		},
		{
			"inputs": [],
			"name": "getDaiBalance",
			"outputs": [
				{
					"internalType": "uint256",
					"name": "",
					"type": "uint256"
				}
			],
			"stateMutability": "view",
			"type": "function"
		},
		{
			"inputs": [],
			"name": "getTotalBalance",
			"outputs": [
				{
					"internalType": "uint256",
					"name": "",
					"type": "uint256"
				}
			],
			"stateMutability": "view",
			"type": "function"
		},
		{
			"inputs": [],
			"name": "getWethBalance",
			"outputs": [
				{
					"internalType": "uint256",
					"name": "",
					"type": "uint256"
				}
			],
			"stateMutability": "view",
			"type": "function"
		},
		{
			"inputs": [],
			"name": "nextDividendTS",
			"outputs": [
				{
					"internalType": "uint256",
					"name": "",
					"type": "uint256"
				}
			],
			"stateMutability": "view",
			"type": "function"
		},
		{
			"inputs": [],
			"name": "owner",
			"outputs": [
				{
					"internalType": "address",
					"name": "",
					"type": "address"
				}
			],
			"stateMutability": "view",
			"type": "function"
		},
		{
			"inputs": [],
			"name": "rebalance",
			"outputs": [],
			"stateMutability": "nonpayable",
			"type": "function"
		},
		{
			"inputs": [],
			"name": "uinswapV3QuoterAddress",
			"outputs": [
				{
					"internalType": "address",
					"name": "",
					"type": "address"
				}
			],
			"stateMutability": "view",
			"type": "function"
		},
		{
			"inputs": [],
			"name": "uinswapV3RouterAddress",
			"outputs": [
				{
					"internalType": "address",
					"name": "",
					"type": "address"
				}
			],
			"stateMutability": "view",
			"type": "function"
		},
		{
			"inputs": [],
			"name": "updateEthPriceChainlink",
			"outputs": [
				{
					"internalType": "uint256",
					"name": "",
					"type": "uint256"
				}
			],
			"stateMutability": "nonpayable",
			"type": "function"
		},
		{
			"inputs": [],
			"name": "updateEthPriceUniswap",
			"outputs": [
				{
					"internalType": "uint256",
					"name": "",
					"type": "uint256"
				}
			],
			"stateMutability": "nonpayable",
			"type": "function"
		},
		{
			"inputs": [],
			"name": "usdDividendPercentage",
			"outputs": [
				{
					"internalType": "uint256",
					"name": "",
					"type": "uint256"
				}
			],
			"stateMutability": "view",
			"type": "function"
		},
		{
			"inputs": [],
			"name": "usdTargetPercentage",
			"outputs": [
				{
					"internalType": "uint256",
					"name": "",
					"type": "uint256"
				}
			],
			"stateMutability": "view",
			"type": "function"
		},
		{
			"inputs": [],
			"name": "version",
			"outputs": [
				{
					"internalType": "uint256",
					"name": "",
					"type": "uint256"
				}
			],
			"stateMutability": "view",
			"type": "function"
		},
		{
			"inputs": [],
			"name": "wethAddress",
			"outputs": [
				{
					"internalType": "address",
					"name": "",
					"type": "address"
				}
			],
			"stateMutability": "view",
			"type": "function"
		},
		{
			"inputs": [],
			"name": "wrapETH",
			"outputs": [],
			"stateMutability": "nonpayable",
			"type": "function"
		},
		{
			"stateMutability": "payable",
			"type": "receive"
		}
	]
}