{
	"data": {
		"bytecode": {
			"linkReferences": {},
			"object": "608060405234801561001057600080fd5b5061002d61002261008a60201b60201c565b61009260201b60201c565b6001600360003373ffffffffffffffffffffffffffffffffffffffff1673ffffffffffffffffffffffffffffffffffffffff16815260200190815260200160002060006101000a81548160ff021916908315150217905550610156565b600033905090565b60008060009054906101000a900473ffffffffffffffffffffffffffffffffffffffff169050816000806101000a81548173ffffffffffffffffffffffffffffffffffffffff021916908373ffffffffffffffffffffffffffffffffffffffff1602179055508173ffffffffffffffffffffffffffffffffffffffff168173ffffffffffffffffffffffffffffffffffffffff167f8be0079c531659141344cd1fd0a4f28419497f9722a3daafe3b4186f6b6457e060405160405180910390a35050565b6114e6806101656000396000f3fe608060405234801561001057600080fd5b50600436106100575760003560e01c8063715018a61461005c5780638da5cb5b14610066578063a368ce3c14610084578063c8a50424146100a0578063f2fde38b146100bc575b600080fd5b6100646100d8565b005b61006e610160565b60405161007b919061108d565b60405180910390f35b61009e60048036038101906100999190610db0565b610189565b005b6100ba60048036038101906100b59190610ec0565b6103b6565b005b6100d660048036038101906100d19190610d83565b61070d565b005b6100e0610805565b73ffffffffffffffffffffffffffffffffffffffff166100fe610160565b73ffffffffffffffffffffffffffffffffffffffff1614610154576040517f08c379a000000000000000000000000000000000000000000000000000000000815260040161014b906110e8565b60405180910390fd5b61015e600061080d565b565b60008060009054906101000a900473ffffffffffffffffffffffffffffffffffffffff16905090565b600360003373ffffffffffffffffffffffffffffffffffffffff1673ffffffffffffffffffffffffffffffffffffffff16815260200190815260200160002060009054906101000a900460ff16610215576040517f08c379a000000000000000000000000000000000000000000000000000000000815260040161020c906110a8565b60405180910390fd5b61021f60016108d1565b600061022b60016108e7565b9050600060026000838152602001908152602001600020905088888260010191906102579291906108f5565b50868682600201919061026b9291906108f5565b508481600301908051906020019061028492919061097b565b508381600401908051906020019061029d92919061097b565b50828160050190805190602001906102b692919061097b565b50600481908060018154018082558091505060019003906000526020600020906006020160009091909190915060008201548160000155600182018160010190805461030190611221565b61030c9291906109db565b50600282018160020190805461032190611221565b61032c9291906109db565b506003820181600301908054610343929190610a68565b50600482018160040190805461035a929190610a68565b506005820181600501908054610371929190610a68565b5050507f9936ffe31c43b721bdbd1d10ca26d8d350d27056e77fd9ff539d84b4bda25005826040516103a39190611128565b60405180910390a1505050505050505050565b600360003373ffffffffffffffffffffffffffffffffffffffff1673ffffffffffffffffffffffffffffffffffffffff16815260200190815260200160002060009054906101000a900460ff16610442576040517f08c379a0000000000000000000000000000000000000000000000000000000008152600401610439906110a8565b60405180910390fd5b6000600260008a8152602001908152602001600020600001541161049b576040517f08c379a000000000000000000000000000000000000000000000000000000000815260040161049290611108565b60405180910390fd5b60005b6004805490508110156107025788600482815481106104c0576104bf61132b565b5b90600052602060002090600602016000015414156106ef578787600483815481106104ee576104ed61132b565b5b9060005260206000209060060201600101919061050c9291906108f5565b508585600483815481106105235761052261132b565b5b906000526020600020906006020160020191906105419291906108f5565b5083600482815481106105575761055661132b565b5b9060005260206000209060060201600301908051906020019061057b92919061097b565b5082600482815481106105915761059061132b565b5b906000526020600020906006020160040190805190602001906105b592919061097b565b5081600482815481106105cb576105ca61132b565b5b906000526020600020906006020160050190805190602001906105ef92919061097b565b50600481815481106106045761060361132b565b5b9060005260206000209060060201600260008b815260200190815260200160002060008201548160000155600182018160010190805461064390611221565b61064e9291906109db565b50600282018160020190805461066390611221565b61066e9291906109db565b506003820181600301908054610685929190610a68565b50600482018160040190805461069c929190610a68565b5060058201816005019080546106b3929190610a68565b509050507f9936ffe31c43b721bdbd1d10ca26d8d350d27056e77fd9ff539d84b4bda25005896040516106e69190611128565b60405180910390a15b80806106fa90611284565b91505061049e565b505050505050505050565b610715610805565b73ffffffffffffffffffffffffffffffffffffffff16610733610160565b73ffffffffffffffffffffffffffffffffffffffff1614610789576040517f08c379a0000000000000000000000000000000000000000000000000000000008152600401610780906110e8565b60405180910390fd5b600073ffffffffffffffffffffffffffffffffffffffff168173ffffffffffffffffffffffffffffffffffffffff1614156107f9576040517f08c379a00000000000000000000000000000000000000000000000000000000081526004016107f0906110c8565b60405180910390fd5b6108028161080d565b50565b600033905090565b60008060009054906101000a900473ffffffffffffffffffffffffffffffffffffffff169050816000806101000a81548173ffffffffffffffffffffffffffffffffffffffff021916908373ffffffffffffffffffffffffffffffffffffffff1602179055508173ffffffffffffffffffffffffffffffffffffffff168173ffffffffffffffffffffffffffffffffffffffff167f8be0079c531659141344cd1fd0a4f28419497f9722a3daafe3b4186f6b6457e060405160405180910390a35050565b6001816000016000828254019250508190555050565b600081600001549050919050565b82805461090190611221565b90600052602060002090601f016020900481019282610923576000855561096a565b82601f1061093c57803560ff191683800117855561096a565b8280016001018555821561096a579182015b8281111561096957823582559160200191906001019061094e565b5b5090506109779190610ad0565b5090565b8280548282559060005260206000209081019282156109ca579160200282015b828111156109c95782518290805190602001906109b9929190610aed565b509160200191906001019061099b565b5b5090506109d79190610b73565b5090565b8280546109e790611221565b90600052602060002090601f016020900481019282610a095760008555610a57565b82601f10610a1a5780548555610a57565b82800160010185558215610a5757600052602060002091601f016020900482015b82811115610a56578254825591600101919060010190610a3b565b5b509050610a649190610ad0565b5090565b828054828255906000526020600020908101928215610abf5760005260206000209182015b82811115610abe578282908054610aa390611221565b610aae9291906109db565b5091600101919060010190610a8d565b5b509050610acc9190610b73565b5090565b5b80821115610ae9576000816000905550600101610ad1565b5090565b828054610af990611221565b90600052602060002090601f016020900481019282610b1b5760008555610b62565b82601f10610b3457805160ff1916838001178555610b62565b82800160010185558215610b62579182015b82811115610b61578251825591602001919060010190610b46565b5b509050610b6f9190610ad0565b5090565b5b80821115610b935760008181610b8a9190610b97565b50600101610b74565b5090565b508054610ba390611221565b6000825580601f10610bb55750610bd4565b601f016020900490600052602060002090810190610bd39190610ad0565b5b50565b6000610bea610be584611168565b611143565b90508083825260208201905082856020860282011115610c0d57610c0c611393565b5b60005b85811015610c5b57813567ffffffffffffffff811115610c3357610c3261138e565b5b808601610c408982610d40565b85526020850194506020840193505050600181019050610c10565b5050509392505050565b6000610c78610c7384611194565b611143565b905082815260208101848484011115610c9457610c93611398565b5b610c9f848285611212565b509392505050565b600081359050610cb681611482565b92915050565b600082601f830112610cd157610cd061138e565b5b8135610ce1848260208601610bd7565b91505092915050565b60008083601f840112610d0057610cff61138e565b5b8235905067ffffffffffffffff811115610d1d57610d1c611389565b5b602083019150836001820283011115610d3957610d38611393565b5b9250929050565b600082601f830112610d5557610d5461138e565b5b8135610d65848260208601610c65565b91505092915050565b600081359050610d7d81611499565b92915050565b600060208284031215610d9957610d986113a2565b5b6000610da784828501610ca7565b91505092915050565b600080600080600080600060a0888a031215610dcf57610dce6113a2565b5b600088013567ffffffffffffffff811115610ded57610dec61139d565b5b610df98a828b01610cea565b9750975050602088013567ffffffffffffffff811115610e1c57610e1b61139d565b5b610e288a828b01610cea565b9550955050604088013567ffffffffffffffff811115610e4b57610e4a61139d565b5b610e578a828b01610cbc565b935050606088013567ffffffffffffffff811115610e7857610e7761139d565b5b610e848a828b01610cbc565b925050608088013567ffffffffffffffff811115610ea557610ea461139d565b5b610eb18a828b01610cbc565b91505092959891949750929550565b60008060008060008060008060c0898b031215610ee057610edf6113a2565b5b6000610eee8b828c01610d6e565b985050602089013567ffffffffffffffff811115610f0f57610f0e61139d565b5b610f1b8b828c01610cea565b9750975050604089013567ffffffffffffffff811115610f3e57610f3d61139d565b5b610f4a8b828c01610cea565b9550955050606089013567ffffffffffffffff811115610f6d57610f6c61139d565b5b610f798b828c01610cbc565b935050608089013567ffffffffffffffff811115610f9a57610f9961139d565b5b610fa68b828c01610cbc565b92505060a089013567ffffffffffffffff811115610fc757610fc661139d565b5b610fd38b828c01610cbc565b9150509295985092959890939650565b610fec816111d6565b82525050565b6000610fff6016836111c5565b915061100a826113b8565b602082019050919050565b60006110226026836111c5565b915061102d826113e1565b604082019050919050565b60006110456020836111c5565b915061105082611430565b602082019050919050565b60006110686015836111c5565b915061107382611459565b602082019050919050565b61108781611208565b82525050565b60006020820190506110a26000830184610fe3565b92915050565b600060208201905081810360008301526110c181610ff2565b9050919050565b600060208201905081810360008301526110e181611015565b9050919050565b6000602082019050818103600083015261110181611038565b9050919050565b600060208201905081810360008301526111218161105b565b9050919050565b600060208201905061113d600083018461107e565b92915050565b600061114d61115e565b90506111598282611253565b919050565b6000604051905090565b600067ffffffffffffffff8211156111835761118261135a565b5b602082029050602081019050919050565b600067ffffffffffffffff8211156111af576111ae61135a565b5b6111b8826113a7565b9050602081019050919050565b600082825260208201905092915050565b60006111e1826111e8565b9050919050565b600073ffffffffffffffffffffffffffffffffffffffff82169050919050565b6000819050919050565b82818337600083830152505050565b6000600282049050600182168061123957607f821691505b6020821081141561124d5761124c6112fc565b5b50919050565b61125c826113a7565b810181811067ffffffffffffffff8211171561127b5761127a61135a565b5b80604052505050565b600061128f82611208565b91507fffffffffffffffffffffffffffffffffffffffffffffffffffffffffffffffff8214156112c2576112c16112cd565b5b600182019050919050565b7f4e487b7100000000000000000000000000000000000000000000000000000000600052601160045260246000fd5b7f4e487b7100000000000000000000000000000000000000000000000000000000600052602260045260246000fd5b7f4e487b7100000000000000000000000000000000000000000000000000000000600052603260045260246000fd5b7f4e487b7100000000000000000000000000000000000000000000000000000000600052604160045260246000fd5b600080fd5b600080fd5b600080fd5b600080fd5b600080fd5b600080fd5b6000601f19601f8301169050919050565b7f5065726d697373696f6e206e6f74206772616e74656400000000000000000000600082015250565b7f4f776e61626c653a206e6577206f776e657220697320746865207a65726f206160008201527f6464726573730000000000000000000000000000000000000000000000000000602082015250565b7f4f776e61626c653a2063616c6c6572206973206e6f7420746865206f776e6572600082015250565b7f52656369706520646f6573206e6f742065786973740000000000000000000000600082015250565b61148b816111d6565b811461149657600080fd5b50565b6114a281611208565b81146114ad57600080fd5b5056fea2646970667358221220ec87d8dcd85562e3cc992cfad71d4dcbbdc3d0511d6e6bc7b396ae4f3c05fbef64736f6c63430008070033",
			"opcodes": "PUSH1 0x80 PUSH1 0x40 MSTORE CALLVALUE DUP1 ISZERO PUSH2 0x10 JUMPI PUSH1 0x0 DUP1 REVERT JUMPDEST POP PUSH2 0x2D PUSH2 0x22 PUSH2 0x8A PUSH1 0x20 SHL PUSH1 0x20 SHR JUMP JUMPDEST PUSH2 0x92 PUSH1 0x20 SHL PUSH1 0x20 SHR JUMP JUMPDEST PUSH1 0x1 PUSH1 0x3 PUSH1 0x0 CALLER PUSH20 0xFFFFFFFFFFFFFFFFFFFFFFFFFFFFFFFFFFFFFFFF AND PUSH20 0xFFFFFFFFFFFFFFFFFFFFFFFFFFFFFFFFFFFFFFFF AND DUP2 MSTORE PUSH1 0x20 ADD SWAP1 DUP2 MSTORE PUSH1 0x20 ADD PUSH1 0x0 KECCAK256 PUSH1 0x0 PUSH2 0x100 EXP DUP2 SLOAD DUP2 PUSH1 0xFF MUL NOT AND SWAP1 DUP4 ISZERO ISZERO MUL OR SWAP1 SSTORE POP PUSH2 0x156 JUMP JUMPDEST PUSH1 0x0 CALLER SWAP1 POP SWAP1 JUMP JUMPDEST PUSH1 0x0 DUP1 PUSH1 0x0 SWAP1 SLOAD SWAP1 PUSH2 0x100 EXP SWAP1 DIV PUSH20 0xFFFFFFFFFFFFFFFFFFFFFFFFFFFFFFFFFFFFFFFF AND SWAP1 POP DUP2 PUSH1 0x0 DUP1 PUSH2 0x100 EXP DUP2 SLOAD DUP2 PUSH20 0xFFFFFFFFFFFFFFFFFFFFFFFFFFFFFFFFFFFFFFFF MUL NOT AND SWAP1 DUP4 PUSH20 0xFFFFFFFFFFFFFFFFFFFFFFFFFFFFFFFFFFFFFFFF AND MUL OR SWAP1 SSTORE POP DUP2 PUSH20 0xFFFFFFFFFFFFFFFFFFFFFFFFFFFFFFFFFFFFFFFF AND DUP2 PUSH20 0xFFFFFFFFFFFFFFFFFFFFFFFFFFFFFFFFFFFFFFFF AND PUSH32 0x8BE0079C531659141344CD1FD0A4F28419497F9722A3DAAFE3B4186F6B6457E0 PUSH1 0x40 MLOAD PUSH1 0x40 MLOAD DUP1 SWAP2 SUB SWAP1 LOG3 POP POP JUMP JUMPDEST PUSH2 0x14E6 DUP1 PUSH2 0x165 PUSH1 0x0 CODECOPY PUSH1 0x0 RETURN INVALID PUSH1 0x80 PUSH1 0x40 MSTORE CALLVALUE DUP1 ISZERO PUSH2 0x10 JUMPI PUSH1 0x0 DUP1 REVERT JUMPDEST POP PUSH1 0x4 CALLDATASIZE LT PUSH2 0x57 JUMPI PUSH1 0x0 CALLDATALOAD PUSH1 0xE0 SHR DUP1 PUSH4 0x715018A6 EQ PUSH2 0x5C JUMPI DUP1 PUSH4 0x8DA5CB5B EQ PUSH2 0x66 JUMPI DUP1 PUSH4 0xA368CE3C EQ PUSH2 0x84 JUMPI DUP1 PUSH4 0xC8A50424 EQ PUSH2 0xA0 JUMPI DUP1 PUSH4 0xF2FDE38B EQ PUSH2 0xBC JUMPI JUMPDEST PUSH1 0x0 DUP1 REVERT JUMPDEST PUSH2 0x64 PUSH2 0xD8 JUMP JUMPDEST STOP JUMPDEST PUSH2 0x6E PUSH2 0x160 JUMP JUMPDEST PUSH1 0x40 MLOAD PUSH2 0x7B SWAP2 SWAP1 PUSH2 0x108D JUMP JUMPDEST PUSH1 0x40 MLOAD DUP1 SWAP2 SUB SWAP1 RETURN JUMPDEST PUSH2 0x9E PUSH1 0x4 DUP1 CALLDATASIZE SUB DUP2 ADD SWAP1 PUSH2 0x99 SWAP2 SWAP1 PUSH2 0xDB0 JUMP JUMPDEST PUSH2 0x189 JUMP JUMPDEST STOP JUMPDEST PUSH2 0xBA PUSH1 0x4 DUP1 CALLDATASIZE SUB DUP2 ADD SWAP1 PUSH2 0xB5 SWAP2 SWAP1 PUSH2 0xEC0 JUMP JUMPDEST PUSH2 0x3B6 JUMP JUMPDEST STOP JUMPDEST PUSH2 0xD6 PUSH1 0x4 DUP1 CALLDATASIZE SUB DUP2 ADD SWAP1 PUSH2 0xD1 SWAP2 SWAP1 PUSH2 0xD83 JUMP JUMPDEST PUSH2 0x70D JUMP JUMPDEST STOP JUMPDEST PUSH2 0xE0 PUSH2 0x805 JUMP JUMPDEST PUSH20 0xFFFFFFFFFFFFFFFFFFFFFFFFFFFFFFFFFFFFFFFF AND PUSH2 0xFE PUSH2 0x160 JUMP JUMPDEST PUSH20 0xFFFFFFFFFFFFFFFFFFFFFFFFFFFFFFFFFFFFFFFF AND EQ PUSH2 0x154 JUMPI PUSH1 0x40 MLOAD PUSH32 0x8C379A000000000000000000000000000000000000000000000000000000000 DUP2 MSTORE PUSH1 0x4 ADD PUSH2 0x14B SWAP1 PUSH2 0x10E8 JUMP JUMPDEST PUSH1 0x40 MLOAD DUP1 SWAP2 SUB SWAP1 REVERT JUMPDEST PUSH2 0x15E PUSH1 0x0 PUSH2 0x80D JUMP JUMPDEST JUMP JUMPDEST PUSH1 0x0 DUP1 PUSH1 0x0 SWAP1 SLOAD SWAP1 PUSH2 0x100 EXP SWAP1 DIV PUSH20 0xFFFFFFFFFFFFFFFFFFFFFFFFFFFFFFFFFFFFFFFF AND SWAP1 POP SWAP1 JUMP JUMPDEST PUSH1 0x3 PUSH1 0x0 CALLER PUSH20 0xFFFFFFFFFFFFFFFFFFFFFFFFFFFFFFFFFFFFFFFF AND PUSH20 0xFFFFFFFFFFFFFFFFFFFFFFFFFFFFFFFFFFFFFFFF AND DUP2 MSTORE PUSH1 0x20 ADD SWAP1 DUP2 MSTORE PUSH1 0x20 ADD PUSH1 0x0 KECCAK256 PUSH1 0x0 SWAP1 SLOAD SWAP1 PUSH2 0x100 EXP SWAP1 DIV PUSH1 0xFF AND PUSH2 0x215 JUMPI PUSH1 0x40 MLOAD PUSH32 0x8C379A000000000000000000000000000000000000000000000000000000000 DUP2 MSTORE PUSH1 0x4 ADD PUSH2 0x20C SWAP1 PUSH2 0x10A8 JUMP JUMPDEST PUSH1 0x40 MLOAD DUP1 SWAP2 SUB SWAP1 REVERT JUMPDEST PUSH2 0x21F PUSH1 0x1 PUSH2 0x8D1 JUMP JUMPDEST PUSH1 0x0 PUSH2 0x22B PUSH1 0x1 PUSH2 0x8E7 JUMP JUMPDEST SWAP1 POP PUSH1 0x0 PUSH1 0x2 PUSH1 0x0 DUP4 DUP2 MSTORE PUSH1 0x20 ADD SWAP1 DUP2 MSTORE PUSH1 0x20 ADD PUSH1 0x0 KECCAK256 SWAP1 POP DUP9 DUP9 DUP3 PUSH1 0x1 ADD SWAP2 SWAP1 PUSH2 0x257 SWAP3 SWAP2 SWAP1 PUSH2 0x8F5 JUMP JUMPDEST POP DUP7 DUP7 DUP3 PUSH1 0x2 ADD SWAP2 SWAP1 PUSH2 0x26B SWAP3 SWAP2 SWAP1 PUSH2 0x8F5 JUMP JUMPDEST POP DUP5 DUP2 PUSH1 0x3 ADD SWAP1 DUP1 MLOAD SWAP1 PUSH1 0x20 ADD SWAP1 PUSH2 0x284 SWAP3 SWAP2 SWAP1 PUSH2 0x97B JUMP JUMPDEST POP DUP4 DUP2 PUSH1 0x4 ADD SWAP1 DUP1 MLOAD SWAP1 PUSH1 0x20 ADD SWAP1 PUSH2 0x29D SWAP3 SWAP2 SWAP1 PUSH2 0x97B JUMP JUMPDEST POP DUP3 DUP2 PUSH1 0x5 ADD SWAP1 DUP1 MLOAD SWAP1 PUSH1 0x20 ADD SWAP1 PUSH2 0x2B6 SWAP3 SWAP2 SWAP1 PUSH2 0x97B JUMP JUMPDEST POP PUSH1 0x4 DUP2 SWAP1 DUP1 PUSH1 0x1 DUP2 SLOAD ADD DUP1 DUP3 SSTORE DUP1 SWAP2 POP POP PUSH1 0x1 SWAP1 SUB SWAP1 PUSH1 0x0 MSTORE PUSH1 0x20 PUSH1 0x0 KECCAK256 SWAP1 PUSH1 0x6 MUL ADD PUSH1 0x0 SWAP1 SWAP2 SWAP1 SWAP2 SWAP1 SWAP2 POP PUSH1 0x0 DUP3 ADD SLOAD DUP2 PUSH1 0x0 ADD SSTORE PUSH1 0x1 DUP3 ADD DUP2 PUSH1 0x1 ADD SWAP1 DUP1 SLOAD PUSH2 0x301 SWAP1 PUSH2 0x1221 JUMP JUMPDEST PUSH2 0x30C SWAP3 SWAP2 SWAP1 PUSH2 0x9DB JUMP JUMPDEST POP PUSH1 0x2 DUP3 ADD DUP2 PUSH1 0x2 ADD SWAP1 DUP1 SLOAD PUSH2 0x321 SWAP1 PUSH2 0x1221 JUMP JUMPDEST PUSH2 0x32C SWAP3 SWAP2 SWAP1 PUSH2 0x9DB JUMP JUMPDEST POP PUSH1 0x3 DUP3 ADD DUP2 PUSH1 0x3 ADD SWAP1 DUP1 SLOAD PUSH2 0x343 SWAP3 SWAP2 SWAP1 PUSH2 0xA68 JUMP JUMPDEST POP PUSH1 0x4 DUP3 ADD DUP2 PUSH1 0x4 ADD SWAP1 DUP1 SLOAD PUSH2 0x35A SWAP3 SWAP2 SWAP1 PUSH2 0xA68 JUMP JUMPDEST POP PUSH1 0x5 DUP3 ADD DUP2 PUSH1 0x5 ADD SWAP1 DUP1 SLOAD PUSH2 0x371 SWAP3 SWAP2 SWAP1 PUSH2 0xA68 JUMP JUMPDEST POP POP POP PUSH32 0x9936FFE31C43B721BDBD1D10CA26D8D350D27056E77FD9FF539D84B4BDA25005 DUP3 PUSH1 0x40 MLOAD PUSH2 0x3A3 SWAP2 SWAP1 PUSH2 0x1128 JUMP JUMPDEST PUSH1 0x40 MLOAD DUP1 SWAP2 SUB SWAP1 LOG1 POP POP POP POP POP POP POP POP POP JUMP JUMPDEST PUSH1 0x3 PUSH1 0x0 CALLER PUSH20 0xFFFFFFFFFFFFFFFFFFFFFFFFFFFFFFFFFFFFFFFF AND PUSH20 0xFFFFFFFFFFFFFFFFFFFFFFFFFFFFFFFFFFFFFFFF AND DUP2 MSTORE PUSH1 0x20 ADD SWAP1 DUP2 MSTORE PUSH1 0x20 ADD PUSH1 0x0 KECCAK256 PUSH1 0x0 SWAP1 SLOAD SWAP1 PUSH2 0x100 EXP SWAP1 DIV PUSH1 0xFF AND PUSH2 0x442 JUMPI PUSH1 0x40 MLOAD PUSH32 0x8C379A000000000000000000000000000000000000000000000000000000000 DUP2 MSTORE PUSH1 0x4 ADD PUSH2 0x439 SWAP1 PUSH2 0x10A8 JUMP JUMPDEST PUSH1 0x40 MLOAD DUP1 SWAP2 SUB SWAP1 REVERT JUMPDEST PUSH1 0x0 PUSH1 0x2 PUSH1 0x0 DUP11 DUP2 MSTORE PUSH1 0x20 ADD SWAP1 DUP2 MSTORE PUSH1 0x20 ADD PUSH1 0x0 KECCAK256 PUSH1 0x0 ADD SLOAD GT PUSH2 0x49B JUMPI PUSH1 0x40 MLOAD PUSH32 0x8C379A000000000000000000000000000000000000000000000000000000000 DUP2 MSTORE PUSH1 0x4 ADD PUSH2 0x492 SWAP1 PUSH2 0x1108 JUMP JUMPDEST PUSH1 0x40 MLOAD DUP1 SWAP2 SUB SWAP1 REVERT JUMPDEST PUSH1 0x0 JUMPDEST PUSH1 0x4 DUP1 SLOAD SWAP1 POP DUP2 LT ISZERO PUSH2 0x702 JUMPI DUP9 PUSH1 0x4 DUP3 DUP2 SLOAD DUP2 LT PUSH2 0x4C0 JUMPI PUSH2 0x4BF PUSH2 0x132B JUMP JUMPDEST JUMPDEST SWAP1 PUSH1 0x0 MSTORE PUSH1 0x20 PUSH1 0x0 KECCAK256 SWAP1 PUSH1 0x6 MUL ADD PUSH1 0x0 ADD SLOAD EQ ISZERO PUSH2 0x6EF JUMPI DUP8 DUP8 PUSH1 0x4 DUP4 DUP2 SLOAD DUP2 LT PUSH2 0x4EE JUMPI PUSH2 0x4ED PUSH2 0x132B JUMP JUMPDEST JUMPDEST SWAP1 PUSH1 0x0 MSTORE PUSH1 0x20 PUSH1 0x0 KECCAK256 SWAP1 PUSH1 0x6 MUL ADD PUSH1 0x1 ADD SWAP2 SWAP1 PUSH2 0x50C SWAP3 SWAP2 SWAP1 PUSH2 0x8F5 JUMP JUMPDEST POP DUP6 DUP6 PUSH1 0x4 DUP4 DUP2 SLOAD DUP2 LT PUSH2 0x523 JUMPI PUSH2 0x522 PUSH2 0x132B JUMP JUMPDEST JUMPDEST SWAP1 PUSH1 0x0 MSTORE PUSH1 0x20 PUSH1 0x0 KECCAK256 SWAP1 PUSH1 0x6 MUL ADD PUSH1 0x2 ADD SWAP2 SWAP1 PUSH2 0x541 SWAP3 SWAP2 SWAP1 PUSH2 0x8F5 JUMP JUMPDEST POP DUP4 PUSH1 0x4 DUP3 DUP2 SLOAD DUP2 LT PUSH2 0x557 JUMPI PUSH2 0x556 PUSH2 0x132B JUMP JUMPDEST JUMPDEST SWAP1 PUSH1 0x0 MSTORE PUSH1 0x20 PUSH1 0x0 KECCAK256 SWAP1 PUSH1 0x6 MUL ADD PUSH1 0x3 ADD SWAP1 DUP1 MLOAD SWAP1 PUSH1 0x20 ADD SWAP1 PUSH2 0x57B SWAP3 SWAP2 SWAP1 PUSH2 0x97B JUMP JUMPDEST POP DUP3 PUSH1 0x4 DUP3 DUP2 SLOAD DUP2 LT PUSH2 0x591 JUMPI PUSH2 0x590 PUSH2 0x132B JUMP JUMPDEST JUMPDEST SWAP1 PUSH1 0x0 MSTORE PUSH1 0x20 PUSH1 0x0 KECCAK256 SWAP1 PUSH1 0x6 MUL ADD PUSH1 0x4 ADD SWAP1 DUP1 MLOAD SWAP1 PUSH1 0x20 ADD SWAP1 PUSH2 0x5B5 SWAP3 SWAP2 SWAP1 PUSH2 0x97B JUMP JUMPDEST POP DUP2 PUSH1 0x4 DUP3 DUP2 SLOAD DUP2 LT PUSH2 0x5CB JUMPI PUSH2 0x5CA PUSH2 0x132B JUMP JUMPDEST JUMPDEST SWAP1 PUSH1 0x0 MSTORE PUSH1 0x20 PUSH1 0x0 KECCAK256 SWAP1 PUSH1 0x6 MUL ADD PUSH1 0x5 ADD SWAP1 DUP1 MLOAD SWAP1 PUSH1 0x20 ADD SWAP1 PUSH2 0x5EF SWAP3 SWAP2 SWAP1 PUSH2 0x97B JUMP JUMPDEST POP PUSH1 0x4 DUP2 DUP2 SLOAD DUP2 LT PUSH2 0x604 JUMPI PUSH2 0x603 PUSH2 0x132B JUMP JUMPDEST JUMPDEST SWAP1 PUSH1 0x0 MSTORE PUSH1 0x20 PUSH1 0x0 KECCAK256 SWAP1 PUSH1 0x6 MUL ADD PUSH1 0x2 PUSH1 0x0 DUP12 DUP2 MSTORE PUSH1 0x20 ADD SWAP1 DUP2 MSTORE PUSH1 0x20 ADD PUSH1 0x0 KECCAK256 PUSH1 0x0 DUP3 ADD SLOAD DUP2 PUSH1 0x0 ADD SSTORE PUSH1 0x1 DUP3 ADD DUP2 PUSH1 0x1 ADD SWAP1 DUP1 SLOAD PUSH2 0x643 SWAP1 PUSH2 0x1221 JUMP JUMPDEST PUSH2 0x64E SWAP3 SWAP2 SWAP1 PUSH2 0x9DB JUMP JUMPDEST POP PUSH1 0x2 DUP3 ADD DUP2 PUSH1 0x2 ADD SWAP1 DUP1 SLOAD PUSH2 0x663 SWAP1 PUSH2 0x1221 JUMP JUMPDEST PUSH2 0x66E SWAP3 SWAP2 SWAP1 PUSH2 0x9DB JUMP JUMPDEST POP PUSH1 0x3 DUP3 ADD DUP2 PUSH1 0x3 ADD SWAP1 DUP1 SLOAD PUSH2 0x685 SWAP3 SWAP2 SWAP1 PUSH2 0xA68 JUMP JUMPDEST POP PUSH1 0x4 DUP3 ADD DUP2 PUSH1 0x4 ADD SWAP1 DUP1 SLOAD PUSH2 0x69C SWAP3 SWAP2 SWAP1 PUSH2 0xA68 JUMP JUMPDEST POP PUSH1 0x5 DUP3 ADD DUP2 PUSH1 0x5 ADD SWAP1 DUP1 SLOAD PUSH2 0x6B3 SWAP3 SWAP2 SWAP1 PUSH2 0xA68 JUMP JUMPDEST POP SWAP1 POP POP PUSH32 0x9936FFE31C43B721BDBD1D10CA26D8D350D27056E77FD9FF539D84B4BDA25005 DUP10 PUSH1 0x40 MLOAD PUSH2 0x6E6 SWAP2 SWAP1 PUSH2 0x1128 JUMP JUMPDEST PUSH1 0x40 MLOAD DUP1 SWAP2 SUB SWAP1 LOG1 JUMPDEST DUP1 DUP1 PUSH2 0x6FA SWAP1 PUSH2 0x1284 JUMP JUMPDEST SWAP2 POP POP PUSH2 0x49E JUMP JUMPDEST POP POP POP POP POP POP POP POP POP JUMP JUMPDEST PUSH2 0x715 PUSH2 0x805 JUMP JUMPDEST PUSH20 0xFFFFFFFFFFFFFFFFFFFFFFFFFFFFFFFFFFFFFFFF AND PUSH2 0x733 PUSH2 0x160 JUMP JUMPDEST PUSH20 0xFFFFFFFFFFFFFFFFFFFFFFFFFFFFFFFFFFFFFFFF AND EQ PUSH2 0x789 JUMPI PUSH1 0x40 MLOAD PUSH32 0x8C379A000000000000000000000000000000000000000000000000000000000 DUP2 MSTORE PUSH1 0x4 ADD PUSH2 0x780 SWAP1 PUSH2 0x10E8 JUMP JUMPDEST PUSH1 0x40 MLOAD DUP1 SWAP2 SUB SWAP1 REVERT JUMPDEST PUSH1 0x0 PUSH20 0xFFFFFFFFFFFFFFFFFFFFFFFFFFFFFFFFFFFFFFFF AND DUP2 PUSH20 0xFFFFFFFFFFFFFFFFFFFFFFFFFFFFFFFFFFFFFFFF AND EQ ISZERO PUSH2 0x7F9 JUMPI PUSH1 0x40 MLOAD PUSH32 0x8C379A000000000000000000000000000000000000000000000000000000000 DUP2 MSTORE PUSH1 0x4 ADD PUSH2 0x7F0 SWAP1 PUSH2 0x10C8 JUMP JUMPDEST PUSH1 0x40 MLOAD DUP1 SWAP2 SUB SWAP1 REVERT JUMPDEST PUSH2 0x802 DUP2 PUSH2 0x80D JUMP JUMPDEST POP JUMP JUMPDEST PUSH1 0x0 CALLER SWAP1 POP SWAP1 JUMP JUMPDEST PUSH1 0x0 DUP1 PUSH1 0x0 SWAP1 SLOAD SWAP1 PUSH2 0x100 EXP SWAP1 DIV PUSH20 0xFFFFFFFFFFFFFFFFFFFFFFFFFFFFFFFFFFFFFFFF AND SWAP1 POP DUP2 PUSH1 0x0 DUP1 PUSH2 0x100 EXP DUP2 SLOAD DUP2 PUSH20 0xFFFFFFFFFFFFFFFFFFFFFFFFFFFFFFFFFFFFFFFF MUL NOT AND SWAP1 DUP4 PUSH20 0xFFFFFFFFFFFFFFFFFFFFFFFFFFFFFFFFFFFFFFFF AND MUL OR SWAP1 SSTORE POP DUP2 PUSH20 0xFFFFFFFFFFFFFFFFFFFFFFFFFFFFFFFFFFFFFFFF AND DUP2 PUSH20 0xFFFFFFFFFFFFFFFFFFFFFFFFFFFFFFFFFFFFFFFF AND PUSH32 0x8BE0079C531659141344CD1FD0A4F28419497F9722A3DAAFE3B4186F6B6457E0 PUSH1 0x40 MLOAD PUSH1 0x40 MLOAD DUP1 SWAP2 SUB SWAP1 LOG3 POP POP JUMP JUMPDEST PUSH1 0x1 DUP2 PUSH1 0x0 ADD PUSH1 0x0 DUP3 DUP3 SLOAD ADD SWAP3 POP POP DUP2 SWAP1 SSTORE POP POP JUMP JUMPDEST PUSH1 0x0 DUP2 PUSH1 0x0 ADD SLOAD SWAP1 POP SWAP2 SWAP1 POP JUMP JUMPDEST DUP3 DUP1 SLOAD PUSH2 0x901 SWAP1 PUSH2 0x1221 JUMP JUMPDEST SWAP1 PUSH1 0x0 MSTORE PUSH1 0x20 PUSH1 0x0 KECCAK256 SWAP1 PUSH1 0x1F ADD PUSH1 0x20 SWAP1 DIV DUP2 ADD SWAP3 DUP3 PUSH2 0x923 JUMPI PUSH1 0x0 DUP6 SSTORE PUSH2 0x96A JUMP JUMPDEST DUP3 PUSH1 0x1F LT PUSH2 0x93C JUMPI DUP1 CALLDATALOAD PUSH1 0xFF NOT AND DUP4 DUP1 ADD OR DUP6 SSTORE PUSH2 0x96A JUMP JUMPDEST DUP3 DUP1 ADD PUSH1 0x1 ADD DUP6 SSTORE DUP3 ISZERO PUSH2 0x96A JUMPI SWAP2 DUP3 ADD JUMPDEST DUP3 DUP2 GT ISZERO PUSH2 0x969 JUMPI DUP3 CALLDATALOAD DUP3 SSTORE SWAP2 PUSH1 0x20 ADD SWAP2 SWAP1 PUSH1 0x1 ADD SWAP1 PUSH2 0x94E JUMP JUMPDEST JUMPDEST POP SWAP1 POP PUSH2 0x977 SWAP2 SWAP1 PUSH2 0xAD0 JUMP JUMPDEST POP SWAP1 JUMP JUMPDEST DUP3 DUP1 SLOAD DUP3 DUP3 SSTORE SWAP1 PUSH1 0x0 MSTORE PUSH1 0x20 PUSH1 0x0 KECCAK256 SWAP1 DUP2 ADD SWAP3 DUP3 ISZERO PUSH2 0x9CA JUMPI SWAP2 PUSH1 0x20 MUL DUP3 ADD JUMPDEST DUP3 DUP2 GT ISZERO PUSH2 0x9C9 JUMPI DUP3 MLOAD DUP3 SWAP1 DUP1 MLOAD SWAP1 PUSH1 0x20 ADD SWAP1 PUSH2 0x9B9 SWAP3 SWAP2 SWAP1 PUSH2 0xAED JUMP JUMPDEST POP SWAP2 PUSH1 0x20 ADD SWAP2 SWAP1 PUSH1 0x1 ADD SWAP1 PUSH2 0x99B JUMP JUMPDEST JUMPDEST POP SWAP1 POP PUSH2 0x9D7 SWAP2 SWAP1 PUSH2 0xB73 JUMP JUMPDEST POP SWAP1 JUMP JUMPDEST DUP3 DUP1 SLOAD PUSH2 0x9E7 SWAP1 PUSH2 0x1221 JUMP JUMPDEST SWAP1 PUSH1 0x0 MSTORE PUSH1 0x20 PUSH1 0x0 KECCAK256 SWAP1 PUSH1 0x1F ADD PUSH1 0x20 SWAP1 DIV DUP2 ADD SWAP3 DUP3 PUSH2 0xA09 JUMPI PUSH1 0x0 DUP6 SSTORE PUSH2 0xA57 JUMP JUMPDEST DUP3 PUSH1 0x1F LT PUSH2 0xA1A JUMPI DUP1 SLOAD DUP6 SSTORE PUSH2 0xA57 JUMP JUMPDEST DUP3 DUP1 ADD PUSH1 0x1 ADD DUP6 SSTORE DUP3 ISZERO PUSH2 0xA57 JUMPI PUSH1 0x0 MSTORE PUSH1 0x20 PUSH1 0x0 KECCAK256 SWAP2 PUSH1 0x1F ADD PUSH1 0x20 SWAP1 DIV DUP3 ADD JUMPDEST DUP3 DUP2 GT ISZERO PUSH2 0xA56 JUMPI DUP3 SLOAD DUP3 SSTORE SWAP2 PUSH1 0x1 ADD SWAP2 SWAP1 PUSH1 0x1 ADD SWAP1 PUSH2 0xA3B JUMP JUMPDEST JUMPDEST POP SWAP1 POP PUSH2 0xA64 SWAP2 SWAP1 PUSH2 0xAD0 JUMP JUMPDEST POP SWAP1 JUMP JUMPDEST DUP3 DUP1 SLOAD DUP3 DUP3 SSTORE SWAP1 PUSH1 0x0 MSTORE PUSH1 0x20 PUSH1 0x0 KECCAK256 SWAP1 DUP2 ADD SWAP3 DUP3 ISZERO PUSH2 0xABF JUMPI PUSH1 0x0 MSTORE PUSH1 0x20 PUSH1 0x0 KECCAK256 SWAP2 DUP3 ADD JUMPDEST DUP3 DUP2 GT ISZERO PUSH2 0xABE JUMPI DUP3 DUP3 SWAP1 DUP1 SLOAD PUSH2 0xAA3 SWAP1 PUSH2 0x1221 JUMP JUMPDEST PUSH2 0xAAE SWAP3 SWAP2 SWAP1 PUSH2 0x9DB JUMP JUMPDEST POP SWAP2 PUSH1 0x1 ADD SWAP2 SWAP1 PUSH1 0x1 ADD SWAP1 PUSH2 0xA8D JUMP JUMPDEST JUMPDEST POP SWAP1 POP PUSH2 0xACC SWAP2 SWAP1 PUSH2 0xB73 JUMP JUMPDEST POP SWAP1 JUMP JUMPDEST JUMPDEST DUP1 DUP3 GT ISZERO PUSH2 0xAE9 JUMPI PUSH1 0x0 DUP2 PUSH1 0x0 SWAP1 SSTORE POP PUSH1 0x1 ADD PUSH2 0xAD1 JUMP JUMPDEST POP SWAP1 JUMP JUMPDEST DUP3 DUP1 SLOAD PUSH2 0xAF9 SWAP1 PUSH2 0x1221 JUMP JUMPDEST SWAP1 PUSH1 0x0 MSTORE PUSH1 0x20 PUSH1 0x0 KECCAK256 SWAP1 PUSH1 0x1F ADD PUSH1 0x20 SWAP1 DIV DUP2 ADD SWAP3 DUP3 PUSH2 0xB1B JUMPI PUSH1 0x0 DUP6 SSTORE PUSH2 0xB62 JUMP JUMPDEST DUP3 PUSH1 0x1F LT PUSH2 0xB34 JUMPI DUP1 MLOAD PUSH1 0xFF NOT AND DUP4 DUP1 ADD OR DUP6 SSTORE PUSH2 0xB62 JUMP JUMPDEST DUP3 DUP1 ADD PUSH1 0x1 ADD DUP6 SSTORE DUP3 ISZERO PUSH2 0xB62 JUMPI SWAP2 DUP3 ADD JUMPDEST DUP3 DUP2 GT ISZERO PUSH2 0xB61 JUMPI DUP3 MLOAD DUP3 SSTORE SWAP2 PUSH1 0x20 ADD SWAP2 SWAP1 PUSH1 0x1 ADD SWAP1 PUSH2 0xB46 JUMP JUMPDEST JUMPDEST POP SWAP1 POP PUSH2 0xB6F SWAP2 SWAP1 PUSH2 0xAD0 JUMP JUMPDEST POP SWAP1 JUMP JUMPDEST JUMPDEST DUP1 DUP3 GT ISZERO PUSH2 0xB93 JUMPI PUSH1 0x0 DUP2 DUP2 PUSH2 0xB8A SWAP2 SWAP1 PUSH2 0xB97 JUMP JUMPDEST POP PUSH1 0x1 ADD PUSH2 0xB74 JUMP JUMPDEST POP SWAP1 JUMP JUMPDEST POP DUP1 SLOAD PUSH2 0xBA3 SWAP1 PUSH2 0x1221 JUMP JUMPDEST PUSH1 0x0 DUP3 SSTORE DUP1 PUSH1 0x1F LT PUSH2 0xBB5 JUMPI POP PUSH2 0xBD4 JUMP JUMPDEST PUSH1 0x1F ADD PUSH1 0x20 SWAP1 DIV SWAP1 PUSH1 0x0 MSTORE PUSH1 0x20 PUSH1 0x0 KECCAK256 SWAP1 DUP2 ADD SWAP1 PUSH2 0xBD3 SWAP2 SWAP1 PUSH2 0xAD0 JUMP JUMPDEST JUMPDEST POP JUMP JUMPDEST PUSH1 0x0 PUSH2 0xBEA PUSH2 0xBE5 DUP5 PUSH2 0x1168 JUMP JUMPDEST PUSH2 0x1143 JUMP JUMPDEST SWAP1 POP DUP1 DUP4 DUP3 MSTORE PUSH1 0x20 DUP3 ADD SWAP1 POP DUP3 DUP6 PUSH1 0x20 DUP7 MUL DUP3 ADD GT ISZERO PUSH2 0xC0D JUMPI PUSH2 0xC0C PUSH2 0x1393 JUMP JUMPDEST JUMPDEST PUSH1 0x0 JUMPDEST DUP6 DUP2 LT ISZERO PUSH2 0xC5B JUMPI DUP2 CALLDATALOAD PUSH8 0xFFFFFFFFFFFFFFFF DUP2 GT ISZERO PUSH2 0xC33 JUMPI PUSH2 0xC32 PUSH2 0x138E JUMP JUMPDEST JUMPDEST DUP1 DUP7 ADD PUSH2 0xC40 DUP10 DUP3 PUSH2 0xD40 JUMP JUMPDEST DUP6 MSTORE PUSH1 0x20 DUP6 ADD SWAP5 POP PUSH1 0x20 DUP5 ADD SWAP4 POP POP POP PUSH1 0x1 DUP2 ADD SWAP1 POP PUSH2 0xC10 JUMP JUMPDEST POP POP POP SWAP4 SWAP3 POP POP POP JUMP JUMPDEST PUSH1 0x0 PUSH2 0xC78 PUSH2 0xC73 DUP5 PUSH2 0x1194 JUMP JUMPDEST PUSH2 0x1143 JUMP JUMPDEST SWAP1 POP DUP3 DUP2 MSTORE PUSH1 0x20 DUP2 ADD DUP5 DUP5 DUP5 ADD GT ISZERO PUSH2 0xC94 JUMPI PUSH2 0xC93 PUSH2 0x1398 JUMP JUMPDEST JUMPDEST PUSH2 0xC9F DUP5 DUP3 DUP6 PUSH2 0x1212 JUMP JUMPDEST POP SWAP4 SWAP3 POP POP POP JUMP JUMPDEST PUSH1 0x0 DUP2 CALLDATALOAD SWAP1 POP PUSH2 0xCB6 DUP2 PUSH2 0x1482 JUMP JUMPDEST SWAP3 SWAP2 POP POP JUMP JUMPDEST PUSH1 0x0 DUP3 PUSH1 0x1F DUP4 ADD SLT PUSH2 0xCD1 JUMPI PUSH2 0xCD0 PUSH2 0x138E JUMP JUMPDEST JUMPDEST DUP2 CALLDATALOAD PUSH2 0xCE1 DUP5 DUP3 PUSH1 0x20 DUP7 ADD PUSH2 0xBD7 JUMP JUMPDEST SWAP2 POP POP SWAP3 SWAP2 POP POP JUMP JUMPDEST PUSH1 0x0 DUP1 DUP4 PUSH1 0x1F DUP5 ADD SLT PUSH2 0xD00 JUMPI PUSH2 0xCFF PUSH2 0x138E JUMP JUMPDEST JUMPDEST DUP3 CALLDATALOAD SWAP1 POP PUSH8 0xFFFFFFFFFFFFFFFF DUP2 GT ISZERO PUSH2 0xD1D JUMPI PUSH2 0xD1C PUSH2 0x1389 JUMP JUMPDEST JUMPDEST PUSH1 0x20 DUP4 ADD SWAP2 POP DUP4 PUSH1 0x1 DUP3 MUL DUP4 ADD GT ISZERO PUSH2 0xD39 JUMPI PUSH2 0xD38 PUSH2 0x1393 JUMP JUMPDEST JUMPDEST SWAP3 POP SWAP3 SWAP1 POP JUMP JUMPDEST PUSH1 0x0 DUP3 PUSH1 0x1F DUP4 ADD SLT PUSH2 0xD55 JUMPI PUSH2 0xD54 PUSH2 0x138E JUMP JUMPDEST JUMPDEST DUP2 CALLDATALOAD PUSH2 0xD65 DUP5 DUP3 PUSH1 0x20 DUP7 ADD PUSH2 0xC65 JUMP JUMPDEST SWAP2 POP POP SWAP3 SWAP2 POP POP JUMP JUMPDEST PUSH1 0x0 DUP2 CALLDATALOAD SWAP1 POP PUSH2 0xD7D DUP2 PUSH2 0x1499 JUMP JUMPDEST SWAP3 SWAP2 POP POP JUMP JUMPDEST PUSH1 0x0 PUSH1 0x20 DUP3 DUP5 SUB SLT ISZERO PUSH2 0xD99 JUMPI PUSH2 0xD98 PUSH2 0x13A2 JUMP JUMPDEST JUMPDEST PUSH1 0x0 PUSH2 0xDA7 DUP5 DUP3 DUP6 ADD PUSH2 0xCA7 JUMP JUMPDEST SWAP2 POP POP SWAP3 SWAP2 POP POP JUMP JUMPDEST PUSH1 0x0 DUP1 PUSH1 0x0 DUP1 PUSH1 0x0 DUP1 PUSH1 0x0 PUSH1 0xA0 DUP9 DUP11 SUB SLT ISZERO PUSH2 0xDCF JUMPI PUSH2 0xDCE PUSH2 0x13A2 JUMP JUMPDEST JUMPDEST PUSH1 0x0 DUP9 ADD CALLDATALOAD PUSH8 0xFFFFFFFFFFFFFFFF DUP2 GT ISZERO PUSH2 0xDED JUMPI PUSH2 0xDEC PUSH2 0x139D JUMP JUMPDEST JUMPDEST PUSH2 0xDF9 DUP11 DUP3 DUP12 ADD PUSH2 0xCEA JUMP JUMPDEST SWAP8 POP SWAP8 POP POP PUSH1 0x20 DUP9 ADD CALLDATALOAD PUSH8 0xFFFFFFFFFFFFFFFF DUP2 GT ISZERO PUSH2 0xE1C JUMPI PUSH2 0xE1B PUSH2 0x139D JUMP JUMPDEST JUMPDEST PUSH2 0xE28 DUP11 DUP3 DUP12 ADD PUSH2 0xCEA JUMP JUMPDEST SWAP6 POP SWAP6 POP POP PUSH1 0x40 DUP9 ADD CALLDATALOAD PUSH8 0xFFFFFFFFFFFFFFFF DUP2 GT ISZERO PUSH2 0xE4B JUMPI PUSH2 0xE4A PUSH2 0x139D JUMP JUMPDEST JUMPDEST PUSH2 0xE57 DUP11 DUP3 DUP12 ADD PUSH2 0xCBC JUMP JUMPDEST SWAP4 POP POP PUSH1 0x60 DUP9 ADD CALLDATALOAD PUSH8 0xFFFFFFFFFFFFFFFF DUP2 GT ISZERO PUSH2 0xE78 JUMPI PUSH2 0xE77 PUSH2 0x139D JUMP JUMPDEST JUMPDEST PUSH2 0xE84 DUP11 DUP3 DUP12 ADD PUSH2 0xCBC JUMP JUMPDEST SWAP3 POP POP PUSH1 0x80 DUP9 ADD CALLDATALOAD PUSH8 0xFFFFFFFFFFFFFFFF DUP2 GT ISZERO PUSH2 0xEA5 JUMPI PUSH2 0xEA4 PUSH2 0x139D JUMP JUMPDEST JUMPDEST PUSH2 0xEB1 DUP11 DUP3 DUP12 ADD PUSH2 0xCBC JUMP JUMPDEST SWAP2 POP POP SWAP3 SWAP6 SWAP9 SWAP2 SWAP5 SWAP8 POP SWAP3 SWAP6 POP JUMP JUMPDEST PUSH1 0x0 DUP1 PUSH1 0x0 DUP1 PUSH1 0x0 DUP1 PUSH1 0x0 DUP1 PUSH1 0xC0 DUP10 DUP12 SUB SLT ISZERO PUSH2 0xEE0 JUMPI PUSH2 0xEDF PUSH2 0x13A2 JUMP JUMPDEST JUMPDEST PUSH1 0x0 PUSH2 0xEEE DUP12 DUP3 DUP13 ADD PUSH2 0xD6E JUMP JUMPDEST SWAP9 POP POP PUSH1 0x20 DUP10 ADD CALLDATALOAD PUSH8 0xFFFFFFFFFFFFFFFF DUP2 GT ISZERO PUSH2 0xF0F JUMPI PUSH2 0xF0E PUSH2 0x139D JUMP JUMPDEST JUMPDEST PUSH2 0xF1B DUP12 DUP3 DUP13 ADD PUSH2 0xCEA JUMP JUMPDEST SWAP8 POP SWAP8 POP POP PUSH1 0x40 DUP10 ADD CALLDATALOAD PUSH8 0xFFFFFFFFFFFFFFFF DUP2 GT ISZERO PUSH2 0xF3E JUMPI PUSH2 0xF3D PUSH2 0x139D JUMP JUMPDEST JUMPDEST PUSH2 0xF4A DUP12 DUP3 DUP13 ADD PUSH2 0xCEA JUMP JUMPDEST SWAP6 POP SWAP6 POP POP PUSH1 0x60 DUP10 ADD CALLDATALOAD PUSH8 0xFFFFFFFFFFFFFFFF DUP2 GT ISZERO PUSH2 0xF6D JUMPI PUSH2 0xF6C PUSH2 0x139D JUMP JUMPDEST JUMPDEST PUSH2 0xF79 DUP12 DUP3 DUP13 ADD PUSH2 0xCBC JUMP JUMPDEST SWAP4 POP POP PUSH1 0x80 DUP10 ADD CALLDATALOAD PUSH8 0xFFFFFFFFFFFFFFFF DUP2 GT ISZERO PUSH2 0xF9A JUMPI PUSH2 0xF99 PUSH2 0x139D JUMP JUMPDEST JUMPDEST PUSH2 0xFA6 DUP12 DUP3 DUP13 ADD PUSH2 0xCBC JUMP JUMPDEST SWAP3 POP POP PUSH1 0xA0 DUP10 ADD CALLDATALOAD PUSH8 0xFFFFFFFFFFFFFFFF DUP2 GT ISZERO PUSH2 0xFC7 JUMPI PUSH2 0xFC6 PUSH2 0x139D JUMP JUMPDEST JUMPDEST PUSH2 0xFD3 DUP12 DUP3 DUP13 ADD PUSH2 0xCBC JUMP JUMPDEST SWAP2 POP POP SWAP3 SWAP6 SWAP9 POP SWAP3 SWAP6 SWAP9 SWAP1 SWAP4 SWAP7 POP JUMP JUMPDEST PUSH2 0xFEC DUP2 PUSH2 0x11D6 JUMP JUMPDEST DUP3 MSTORE POP POP JUMP JUMPDEST PUSH1 0x0 PUSH2 0xFFF PUSH1 0x16 DUP4 PUSH2 0x11C5 JUMP JUMPDEST SWAP2 POP PUSH2 0x100A DUP3 PUSH2 0x13B8 JUMP JUMPDEST PUSH1 0x20 DUP3 ADD SWAP1 POP SWAP2 SWAP1 POP JUMP JUMPDEST PUSH1 0x0 PUSH2 0x1022 PUSH1 0x26 DUP4 PUSH2 0x11C5 JUMP JUMPDEST SWAP2 POP PUSH2 0x102D DUP3 PUSH2 0x13E1 JUMP JUMPDEST PUSH1 0x40 DUP3 ADD SWAP1 POP SWAP2 SWAP1 POP JUMP JUMPDEST PUSH1 0x0 PUSH2 0x1045 PUSH1 0x20 DUP4 PUSH2 0x11C5 JUMP JUMPDEST SWAP2 POP PUSH2 0x1050 DUP3 PUSH2 0x1430 JUMP JUMPDEST PUSH1 0x20 DUP3 ADD SWAP1 POP SWAP2 SWAP1 POP JUMP JUMPDEST PUSH1 0x0 PUSH2 0x1068 PUSH1 0x15 DUP4 PUSH2 0x11C5 JUMP JUMPDEST SWAP2 POP PUSH2 0x1073 DUP3 PUSH2 0x1459 JUMP JUMPDEST PUSH1 0x20 DUP3 ADD SWAP1 POP SWAP2 SWAP1 POP JUMP JUMPDEST PUSH2 0x1087 DUP2 PUSH2 0x1208 JUMP JUMPDEST DUP3 MSTORE POP POP JUMP JUMPDEST PUSH1 0x0 PUSH1 0x20 DUP3 ADD SWAP1 POP PUSH2 0x10A2 PUSH1 0x0 DUP4 ADD DUP5 PUSH2 0xFE3 JUMP JUMPDEST SWAP3 SWAP2 POP POP JUMP JUMPDEST PUSH1 0x0 PUSH1 0x20 DUP3 ADD SWAP1 POP DUP2 DUP2 SUB PUSH1 0x0 DUP4 ADD MSTORE PUSH2 0x10C1 DUP2 PUSH2 0xFF2 JUMP JUMPDEST SWAP1 POP SWAP2 SWAP1 POP JUMP JUMPDEST PUSH1 0x0 PUSH1 0x20 DUP3 ADD SWAP1 POP DUP2 DUP2 SUB PUSH1 0x0 DUP4 ADD MSTORE PUSH2 0x10E1 DUP2 PUSH2 0x1015 JUMP JUMPDEST SWAP1 POP SWAP2 SWAP1 POP JUMP JUMPDEST PUSH1 0x0 PUSH1 0x20 DUP3 ADD SWAP1 POP DUP2 DUP2 SUB PUSH1 0x0 DUP4 ADD MSTORE PUSH2 0x1101 DUP2 PUSH2 0x1038 JUMP JUMPDEST SWAP1 POP SWAP2 SWAP1 POP JUMP JUMPDEST PUSH1 0x0 PUSH1 0x20 DUP3 ADD SWAP1 POP DUP2 DUP2 SUB PUSH1 0x0 DUP4 ADD MSTORE PUSH2 0x1121 DUP2 PUSH2 0x105B JUMP JUMPDEST SWAP1 POP SWAP2 SWAP1 POP JUMP JUMPDEST PUSH1 0x0 PUSH1 0x20 DUP3 ADD SWAP1 POP PUSH2 0x113D PUSH1 0x0 DUP4 ADD DUP5 PUSH2 0x107E JUMP JUMPDEST SWAP3 SWAP2 POP POP JUMP JUMPDEST PUSH1 0x0 PUSH2 0x114D PUSH2 0x115E JUMP JUMPDEST SWAP1 POP PUSH2 0x1159 DUP3 DUP3 PUSH2 0x1253 JUMP JUMPDEST SWAP2 SWAP1 POP JUMP JUMPDEST PUSH1 0x0 PUSH1 0x40 MLOAD SWAP1 POP SWAP1 JUMP JUMPDEST PUSH1 0x0 PUSH8 0xFFFFFFFFFFFFFFFF DUP3 GT ISZERO PUSH2 0x1183 JUMPI PUSH2 0x1182 PUSH2 0x135A JUMP JUMPDEST JUMPDEST PUSH1 0x20 DUP3 MUL SWAP1 POP PUSH1 0x20 DUP2 ADD SWAP1 POP SWAP2 SWAP1 POP JUMP JUMPDEST PUSH1 0x0 PUSH8 0xFFFFFFFFFFFFFFFF DUP3 GT ISZERO PUSH2 0x11AF JUMPI PUSH2 0x11AE PUSH2 0x135A JUMP JUMPDEST JUMPDEST PUSH2 0x11B8 DUP3 PUSH2 0x13A7 JUMP JUMPDEST SWAP1 POP PUSH1 0x20 DUP2 ADD SWAP1 POP SWAP2 SWAP1 POP JUMP JUMPDEST PUSH1 0x0 DUP3 DUP3 MSTORE PUSH1 0x20 DUP3 ADD SWAP1 POP SWAP3 SWAP2 POP POP JUMP JUMPDEST PUSH1 0x0 PUSH2 0x11E1 DUP3 PUSH2 0x11E8 JUMP JUMPDEST SWAP1 POP SWAP2 SWAP1 POP JUMP JUMPDEST PUSH1 0x0 PUSH20 0xFFFFFFFFFFFFFFFFFFFFFFFFFFFFFFFFFFFFFFFF DUP3 AND SWAP1 POP SWAP2 SWAP1 POP JUMP JUMPDEST PUSH1 0x0 DUP2 SWAP1 POP SWAP2 SWAP1 POP JUMP JUMPDEST DUP3 DUP2 DUP4 CALLDATACOPY PUSH1 0x0 DUP4 DUP4 ADD MSTORE POP POP POP JUMP JUMPDEST PUSH1 0x0 PUSH1 0x2 DUP3 DIV SWAP1 POP PUSH1 0x1 DUP3 AND DUP1 PUSH2 0x1239 JUMPI PUSH1 0x7F DUP3 AND SWAP2 POP JUMPDEST PUSH1 0x20 DUP3 LT DUP2 EQ ISZERO PUSH2 0x124D JUMPI PUSH2 0x124C PUSH2 0x12FC JUMP JUMPDEST JUMPDEST POP SWAP2 SWAP1 POP JUMP JUMPDEST PUSH2 0x125C DUP3 PUSH2 0x13A7 JUMP JUMPDEST DUP2 ADD DUP2 DUP2 LT PUSH8 0xFFFFFFFFFFFFFFFF DUP3 GT OR ISZERO PUSH2 0x127B JUMPI PUSH2 0x127A PUSH2 0x135A JUMP JUMPDEST JUMPDEST DUP1 PUSH1 0x40 MSTORE POP POP POP JUMP JUMPDEST PUSH1 0x0 PUSH2 0x128F DUP3 PUSH2 0x1208 JUMP JUMPDEST SWAP2 POP PUSH32 0xFFFFFFFFFFFFFFFFFFFFFFFFFFFFFFFFFFFFFFFFFFFFFFFFFFFFFFFFFFFFFFFF DUP3 EQ ISZERO PUSH2 0x12C2 JUMPI PUSH2 0x12C1 PUSH2 0x12CD JUMP JUMPDEST JUMPDEST PUSH1 0x1 DUP3 ADD SWAP1 POP SWAP2 SWAP1 POP JUMP JUMPDEST PUSH32 0x4E487B7100000000000000000000000000000000000000000000000000000000 PUSH1 0x0 MSTORE PUSH1 0x11 PUSH1 0x4 MSTORE PUSH1 0x24 PUSH1 0x0 REVERT JUMPDEST PUSH32 0x4E487B7100000000000000000000000000000000000000000000000000000000 PUSH1 0x0 MSTORE PUSH1 0x22 PUSH1 0x4 MSTORE PUSH1 0x24 PUSH1 0x0 REVERT JUMPDEST PUSH32 0x4E487B7100000000000000000000000000000000000000000000000000000000 PUSH1 0x0 MSTORE PUSH1 0x32 PUSH1 0x4 MSTORE PUSH1 0x24 PUSH1 0x0 REVERT JUMPDEST PUSH32 0x4E487B7100000000000000000000000000000000000000000000000000000000 PUSH1 0x0 MSTORE PUSH1 0x41 PUSH1 0x4 MSTORE PUSH1 0x24 PUSH1 0x0 REVERT JUMPDEST PUSH1 0x0 DUP1 REVERT JUMPDEST PUSH1 0x0 DUP1 REVERT JUMPDEST PUSH1 0x0 DUP1 REVERT JUMPDEST PUSH1 0x0 DUP1 REVERT JUMPDEST PUSH1 0x0 DUP1 REVERT JUMPDEST PUSH1 0x0 DUP1 REVERT JUMPDEST PUSH1 0x0 PUSH1 0x1F NOT PUSH1 0x1F DUP4 ADD AND SWAP1 POP SWAP2 SWAP1 POP JUMP JUMPDEST PUSH32 0x5065726D697373696F6E206E6F74206772616E74656400000000000000000000 PUSH1 0x0 DUP3 ADD MSTORE POP JUMP JUMPDEST PUSH32 0x4F776E61626C653A206E6577206F776E657220697320746865207A65726F2061 PUSH1 0x0 DUP3 ADD MSTORE PUSH32 0x6464726573730000000000000000000000000000000000000000000000000000 PUSH1 0x20 DUP3 ADD MSTORE POP JUMP JUMPDEST PUSH32 0x4F776E61626C653A2063616C6C6572206973206E6F7420746865206F776E6572 PUSH1 0x0 DUP3 ADD MSTORE POP JUMP JUMPDEST PUSH32 0x52656369706520646F6573206E6F742065786973740000000000000000000000 PUSH1 0x0 DUP3 ADD MSTORE POP JUMP JUMPDEST PUSH2 0x148B DUP2 PUSH2 0x11D6 JUMP JUMPDEST DUP2 EQ PUSH2 0x1496 JUMPI PUSH1 0x0 DUP1 REVERT JUMPDEST POP JUMP JUMPDEST PUSH2 0x14A2 DUP2 PUSH2 0x1208 JUMP JUMPDEST DUP2 EQ PUSH2 0x14AD JUMPI PUSH1 0x0 DUP1 REVERT JUMPDEST POP JUMP INVALID LOG2 PUSH5 0x6970667358 0x22 SLT KECCAK256 0xEC DUP8 0xD8 0xDC 0xD8 SSTORE PUSH3 0xE3CC99 0x2C STATICCALL 0xD7 SAR 0x4D 0xCB 0xBD 0xC3 0xD0 MLOAD SAR PUSH15 0x6BC7B396AE4F3C05FBEF64736F6C63 NUMBER STOP ADDMOD SMOD STOP CALLER "
		},
		"gasEstimates": {
			"creation": {
				"codeDepositCost": "1070000",
				"executionCost": "infinite",
				"totalCost": "infinite"
			},
			"external": {
				"addRecipe(string,string,string[],string[],string[])": "infinite",
				"editRecipe(uint256,string,string,string[],string[],string[])": "infinite",
				"owner()": "2522",
				"renounceOwnership()": "30352",
				"transferOwnership(address)": "30789"
			}
		},
		"methodIdentifiers": {
			"addRecipe(string,string,string[],string[],string[])": "a368ce3c",
			"editRecipe(uint256,string,string,string[],string[],string[])": "c8a50424",
			"owner()": "8da5cb5b",
			"renounceOwnership()": "715018a6",
			"transferOwnership(address)": "f2fde38b"
		}
	},
	"abi": [
		{
			"inputs": [],
			"stateMutability": "nonpayable",
			"type": "constructor"
		},
		{
			"anonymous": false,
			"inputs": [
				{
					"indexed": true,
					"internalType": "address",
					"name": "previousOwner",
					"type": "address"
				},
				{
					"indexed": true,
					"internalType": "address",
					"name": "newOwner",
					"type": "address"
				}
			],
			"name": "OwnershipTransferred",
			"type": "event"
		},
		{
			"anonymous": false,
			"inputs": [
				{
					"indexed": false,
					"internalType": "uint256",
					"name": "id",
					"type": "uint256"
				}
			],
			"name": "RecipeEvent",
			"type": "event"
		},
		{
			"inputs": [
				{
					"internalType": "string",
					"name": "_title",
					"type": "string"
				},
				{
					"internalType": "string",
					"name": "_description",
					"type": "string"
				},
				{
					"internalType": "string[]",
					"name": "_ingredients",
					"type": "string[]"
				},
				{
					"internalType": "string[]",
					"name": "_steps",
					"type": "string[]"
				},
				{
					"internalType": "string[]",
					"name": "_images",
					"type": "string[]"
				}
			],
			"name": "addRecipe",
			"outputs": [],
			"stateMutability": "nonpayable",
			"type": "function"
		},
		{
			"inputs": [
				{
					"internalType": "uint256",
					"name": "_id",
					"type": "uint256"
				},
				{
					"internalType": "string",
					"name": "_title",
					"type": "string"
				},
				{
					"internalType": "string",
					"name": "_description",
					"type": "string"
				},
				{
					"internalType": "string[]",
					"name": "_ingredients",
					"type": "string[]"
				},
				{
					"internalType": "string[]",
					"name": "_steps",
					"type": "string[]"
				},
				{
					"internalType": "string[]",
					"name": "_images",
					"type": "string[]"
				}
			],
			"name": "editRecipe",
			"outputs": [],
			"stateMutability": "nonpayable",
			"type": "function"
		},
		{
			"inputs": [],
			"name": "owner",
			"outputs": [
				{
					"internalType": "address",
					"name": "",
					"type": "address"
				}
			],
			"stateMutability": "view",
			"type": "function"
		},
		{
			"inputs": [],
			"name": "renounceOwnership",
			"outputs": [],
			"stateMutability": "nonpayable",
			"type": "function"
		},
		{
			"inputs": [
				{
					"internalType": "address",
					"name": "newOwner",
					"type": "address"
				}
			],
			"name": "transferOwnership",
			"outputs": [],
			"stateMutability": "nonpayable",
			"type": "function"
		}
	]
}