{
	"data": {
		"bytecode": {
			"linkReferences": {},
			"object": "6102006040523480156200001257600080fd5b506040516200426f3803806200426f833981810160405281019062000038919062000294565b8a8073ffffffffffffffffffffffffffffffffffffffff1660808173ffffffffffffffffffffffffffffffffffffffff1660601b81525050508a73ffffffffffffffffffffffffffffffffffffffff1660a08173ffffffffffffffffffffffffffffffffffffffff1660601b815250508561012081815250508861010081815250508967ffffffffffffffff1660e08167ffffffffffffffff1660c01b815250508761014081815250508661016081815250506000600560006101000a81548160ff021916908360038111156200011457620001136200040d565b5b02179055508463ffffffff1660c08163ffffffff1660e01b815250508373ffffffffffffffffffffffffffffffffffffffff166101808173ffffffffffffffffffffffffffffffffffffffff1660601b815250508273ffffffffffffffffffffffffffffffffffffffff166101a08173ffffffffffffffffffffffffffffffffffffffff1660601b815250508173ffffffffffffffffffffffffffffffffffffffff166101c08173ffffffffffffffffffffffffffffffffffffffff1660601b815250508073ffffffffffffffffffffffffffffffffffffffff166101e08173ffffffffffffffffffffffffffffffffffffffff1660601b815250505050505050505050505050620004c3565b600081519050620002328162000441565b92915050565b60008151905062000249816200045b565b92915050565b600081519050620002608162000475565b92915050565b60008151905062000277816200048f565b92915050565b6000815190506200028e81620004a9565b92915050565b60008060008060008060008060008060006101608c8e031215620002bd57620002bc6200043c565b5b6000620002cd8e828f0162000221565b9b50506020620002e08e828f016200027d565b9a50506040620002f38e828f0162000238565b9950506060620003068e828f016200024f565b9850506080620003198e828f016200024f565b97505060a06200032c8e828f016200024f565b96505060c06200033f8e828f0162000266565b95505060e0620003528e828f0162000221565b945050610100620003668e828f0162000221565b9350506101206200037a8e828f0162000221565b9250506101406200038e8e828f0162000221565b9150509295989b509295989b9093969950565b6000620003ae82620003bf565b9050919050565b6000819050919050565b600073ffffffffffffffffffffffffffffffffffffffff82169050919050565b6000819050919050565b600063ffffffff82169050919050565b600067ffffffffffffffff82169050919050565b7f4e487b7100000000000000000000000000000000000000000000000000000000600052602160045260246000fd5b600080fd5b6200044c81620003a1565b81146200045857600080fd5b50565b6200046681620003b5565b81146200047257600080fd5b50565b6200048081620003df565b81146200048c57600080fd5b50565b6200049a81620003e9565b8114620004a657600080fd5b50565b620004b481620003f9565b8114620004c057600080fd5b50565b60805160601c60a05160601c60c05160e01c60e05160c01c610100516101205161014051610160516101805160601c6101a05160601c6101c05160601c6101e05160601c613b88620006e7600039600081816105a9015281816110d4015281816111fa0152611418015260008181610b2e01528181610bbd01528181610c1e0152818161104401528181611aed01528181611b5101528181611d9f01528181611e0001528181611f800152818161204801528181612518015281816125790152818161297e015281816129df01528181612bb00152612c110152600081816109c001528181610a4f01528181610ab001528181610fd501528181611a2401528181611a8801528181611cc001528181611d2101528181611eb9015281816120a80152818161244f015281816124b00152818161274c015281816127ad01528181612ae70152612b48015260008181610852015281816108e10152818161094201528181610f660152818161195b015281816119bf01528181611be101528181611c4201528181611f1901528181611fe001528181612367015281816123c801528181612683015281816126e4015281816128b5015261291601526000818161062e015281816106d301526111d40152600081816104ac01528181610780015261131301526000818161113b01526113e901526000610e2c01526000610e4d01526000610e7001526000610df00152600081816104e9015261053d0152613b886000f3fe6080604052600436106101355760003560e01c80636e04ff0d116100ab578063c828371e1161006f578063c828371e146103a8578063d6f46630146103d3578063e55ae4e8146103ea578063efa1c48214610427578063f975cb3914610452578063fd6673f51461047d57610135565b80636e04ff0d146102df578063855c289c1461031d5780639329066c14610348578063a3d7dd3114610373578063ad2e8c9b1461037d57610135565b80634585e33b116100fd5780634585e33b146101df578063473f1ddc1461020857806348112c6f1461023357806353a2c19a1461025e5780635f1b0fd8146102895780636846af76146102b457610135565b806309bc33a71461013a578063115cbaf5146101655780631fe543e314610190578063242284f1146101b95780632e519f90146101c3575b600080fd5b34801561014657600080fd5b5061014f6104a8565b60405161015c919061342e565b60405180910390f35b34801561017157600080fd5b5061017a6104d0565b6040516101879190613413565b60405180910390f35b34801561019c57600080fd5b506101b760048036038101906101b29190613160565b6104e7565b005b6101c16105a7565b005b6101dd60048036038101906101d89190613106565b61077e565b005b3480156101eb57600080fd5b5061020660048036038101906102019190613070565b610d38565b005b34801561021457600080fd5b5061021d610f38565b60405161022a919061332a565b60405180910390f35b34801561023f57600080fd5b50610248610f62565b604051610255919061336e565b60405180910390f35b34801561026a57600080fd5b506102736110b4565b604051610280919061342e565b60405180910390f35b34801561029557600080fd5b5061029e6110c3565b6040516102ab919061342e565b60405180910390f35b3480156102c057600080fd5b506102c96110d0565b6040516102d6919061332a565b60405180910390f35b3480156102eb57600080fd5b50610306600480360381019061030191906130bd565b6110f8565b604051610314929190613390565b60405180910390f35b34801561032957600080fd5b506103326111a6565b60405161033f919061332a565b60405180910390f35b34801561035457600080fd5b5061035d6111d0565b60405161036a919061342e565b60405180910390f35b61037b6111f8565b005b34801561038957600080fd5b506103926113e5565b60405161039f919061342e565b60405180910390f35b3480156103b457600080fd5b506103bd61140d565b6040516103ca919061342e565b60405180910390f35b3480156103df57600080fd5b506103e8611416565b005b3480156103f657600080fd5b50610411600480360381019061040c9190613106565b611678565b60405161041e919061332a565b60405180910390f35b34801561043357600080fd5b5061043c6116c0565b604051610449919061336e565b60405180910390f35b34801561045e57600080fd5b5061046761174e565b604051610474919061342e565b60405180910390f35b34801561048957600080fd5b50610492611758565b60405161049f919061342e565b60405180910390f35b60007f0000000000000000000000000000000000000000000000000000000000000000905090565b6000600560009054906101000a900460ff16905090565b7f000000000000000000000000000000000000000000000000000000000000000073ffffffffffffffffffffffffffffffffffffffff163373ffffffffffffffffffffffffffffffffffffffff161461059957337f00000000000000000000000000000000000000000000000000000000000000006040517f1cf993f4000000000000000000000000000000000000000000000000000000008152600401610590929190613345565b60405180910390fd5b6105a38282611765565b5050565b7f000000000000000000000000000000000000000000000000000000000000000073ffffffffffffffffffffffffffffffffffffffff163373ffffffffffffffffffffffffffffffffffffffff161461062c576040517f5353493a00000000000000000000000000000000000000000000000000000000815260040160405180910390fd5b7f0000000000000000000000000000000000000000000000000000000000000000341015610686576040517f9b04805c00000000000000000000000000000000000000000000000000000000815260040160405180910390fd5b6001600560006101000a81548160ff021916908360038111156106ac576106ab613a68565b5b02179055504260008190555060003073ffffffffffffffffffffffffffffffffffffffff167f00000000000000000000000000000000000000000000000000000000000000006040516106fe90613315565b60006040518083038185875af1925050503d806000811461073b576040519150601f19603f3d011682016040523d82523d6000602084013e610740565b606091505b505090508061077b576040517ffec76e0f00000000000000000000000000000000000000000000000000000000815260040160405180910390fd5b50565b7f00000000000000000000000000000000000000000000000000000000000000003410156107d8576040517f8f53b81300000000000000000000000000000000000000000000000000000000815260040160405180910390fd5b600160038111156107ec576107eb613a68565b5b600560009054906101000a900460ff16600381111561080e5761080d613a68565b5b14610845576040517f464dde1500000000000000000000000000000000000000000000000000000000815260040160405180910390fd5b60018114156109b35760007f000000000000000000000000000000000000000000000000000000000000000073ffffffffffffffffffffffffffffffffffffffff163460405161089490613315565b60006040518083038185875af1925050503d80600081146108d1576040519150601f19603f3d011682016040523d82523d6000602084013e6108d6565b606091505b505090508061093c577f00000000000000000000000000000000000000000000000000000000000000006040517faf120e0a000000000000000000000000000000000000000000000000000000008152600401610933919061332a565b60405180910390fd5b600660007f000000000000000000000000000000000000000000000000000000000000000073ffffffffffffffffffffffffffffffffffffffff1673ffffffffffffffffffffffffffffffffffffffff16815260200190815260200160002060008154809291906109ac90613990565b9190505550505b6002811415610b215760007f000000000000000000000000000000000000000000000000000000000000000073ffffffffffffffffffffffffffffffffffffffff1634604051610a0290613315565b60006040518083038185875af1925050503d8060008114610a3f576040519150601f19603f3d011682016040523d82523d6000602084013e610a44565b606091505b5050905080610aaa577f00000000000000000000000000000000000000000000000000000000000000006040517faf120e0a000000000000000000000000000000000000000000000000000000008152600401610aa1919061332a565b60405180910390fd5b600660007f000000000000000000000000000000000000000000000000000000000000000073ffffffffffffffffffffffffffffffffffffffff1673ffffffffffffffffffffffffffffffffffffffff1681526020019081526020016000206000815480929190610b1a90613990565b9190505550505b6003811415610c8f5760007f000000000000000000000000000000000000000000000000000000000000000073ffffffffffffffffffffffffffffffffffffffff1634604051610b7090613315565b60006040518083038185875af1925050503d8060008114610bad576040519150601f19603f3d011682016040523d82523d6000602084013e610bb2565b606091505b5050905080610c18577f00000000000000000000000000000000000000000000000000000000000000006040517faf120e0a000000000000000000000000000000000000000000000000000000008152600401610c0f919061332a565b60405180910390fd5b600660007f000000000000000000000000000000000000000000000000000000000000000073ffffffffffffffffffffffffffffffffffffffff1673ffffffffffffffffffffffffffffffffffffffff1681526020019081526020016000206000815480929190610c8890613990565b9190505550505b6004339080600181540180825580915050600190039060005260206000200160009091909190916101000a81548173ffffffffffffffffffffffffffffffffffffffff021916908373ffffffffffffffffffffffffffffffffffffffff1602179055503373ffffffffffffffffffffffffffffffffffffffff167f0805e1d667bddb8a95f0f09880cf94f403fb596ce79928d9f29b74203ba284d460405160405180910390a250565b6000610d52604051806020016040528060008152506110f8565b50905080610dc15747600480549050600560009054906101000a900460ff166003811115610d8357610d82613a68565b5b6040517f1be0ea7f000000000000000000000000000000000000000000000000000000008152600401610db893929190613449565b60405180910390fd5b6002600560006101000a81548160ff02191690836003811115610de757610de6613a68565b5b021790555060007f000000000000000000000000000000000000000000000000000000000000000073ffffffffffffffffffffffffffffffffffffffff16635d3b1d307f00000000000000000000000000000000000000000000000000000000000000007f000000000000000000000000000000000000000000000000000000000000000060037f000000000000000000000000000000000000000000000000000000000000000060046040518663ffffffff1660e01b8152600401610eb19594939291906133c0565b602060405180830381600087803b158015610ecb57600080fd5b505af1158015610edf573d6000803e3d6000fd5b505050506040513d601f19601f82011682018060405250810190610f039190613133565b9050807fcd6e45c8998311cab7e9d4385596cac867e20a0587194b954fa3a731c93ce78b60405160405180910390a250505050565b6000600260009054906101000a900473ffffffffffffffffffffffffffffffffffffffff16905090565b60607f000000000000000000000000000000000000000000000000000000000000000081600081518110610f9957610f98613a97565b5b602002602001019073ffffffffffffffffffffffffffffffffffffffff16908173ffffffffffffffffffffffffffffffffffffffff16815250507f00000000000000000000000000000000000000000000000000000000000000008160018151811061100857611007613a97565b5b602002602001019073ffffffffffffffffffffffffffffffffffffffff16908173ffffffffffffffffffffffffffffffffffffffff16815250507f00000000000000000000000000000000000000000000000000000000000000008160028151811061107757611076613a97565b5b602002602001019073ffffffffffffffffffffffffffffffffffffffff16908173ffffffffffffffffffffffffffffffffffffffff168152505090565b6000600463ffffffff16905090565b6000600361ffff16905090565b60007f0000000000000000000000000000000000000000000000000000000000000000905090565b600060606000600560009054906101000a900460ff1660038111156111205761111f613a68565b5b6001600381111561113457611133613a68565b5b14905060007f00000000000000000000000000000000000000000000000000000000000000006000544261116891906137a4565b10159050600080600480549050119050600080471190508380156111895750825b80156111925750805b801561119b5750815b955050505050915091565b6000600360009054906101000a900473ffffffffffffffffffffffffffffffffffffffff16905090565b60007f0000000000000000000000000000000000000000000000000000000000000000905090565b7f000000000000000000000000000000000000000000000000000000000000000073ffffffffffffffffffffffffffffffffffffffff163373ffffffffffffffffffffffffffffffffffffffff161461127d576040517f5353493a00000000000000000000000000000000000000000000000000000000815260040160405180910390fd5b6003808111156112905761128f613a68565b5b600560009054906101000a900460ff1660038111156112b2576112b1613a68565b5b146112e9576040517fb106f93000000000000000000000000000000000000000000000000000000000815260040160405180910390fd5b60006001549050600060018190555060003073ffffffffffffffffffffffffffffffffffffffff167f00000000000000000000000000000000000000000000000000000000000000008361133d91906136b6565b60405161134990613315565b60006040518083038185875af1925050503d8060008114611386576040519150601f19603f3d011682016040523d82523d6000602084013e61138b565b606091505b50509050806113c6576040517ff4190db300000000000000000000000000000000000000000000000000000000815260040160405180910390fd5b6001600360146101000a81548160ff0219169083151502179055505050565b60007f0000000000000000000000000000000000000000000000000000000000000000905090565b60008054905090565b7f000000000000000000000000000000000000000000000000000000000000000073ffffffffffffffffffffffffffffffffffffffff163373ffffffffffffffffffffffffffffffffffffffff161461149b576040517f5353493a00000000000000000000000000000000000000000000000000000000815260040160405180910390fd5b6003808111156114ae576114ad613a68565b5b600560009054906101000a900460ff1660038111156114d0576114cf613a68565b5b14611507576040517fb106f93000000000000000000000000000000000000000000000000000000000815260040160405180910390fd5b600360149054906101000a900460ff1661154d576040517ff4190db300000000000000000000000000000000000000000000000000000000815260040160405180910390fd5b6000600360009054906101000a900473ffffffffffffffffffffffffffffffffffffffff1690506000600360006101000a81548173ffffffffffffffffffffffffffffffffffffffff021916908373ffffffffffffffffffffffffffffffffffffffff1602179055506000600360146101000a81548160ff02191690831515021790555060008173ffffffffffffffffffffffffffffffffffffffff16476040516115f790613315565b60006040518083038185875af1925050503d8060008114611634576040519150601f19603f3d011682016040523d82523d6000602084013e611639565b606091505b5050905080611674576040517fbfabdd9900000000000000000000000000000000000000000000000000000000815260040160405180910390fd5b5050565b60006004828154811061168e5761168d613a97565b5b9060005260206000200160009054906101000a900473ffffffffffffffffffffffffffffffffffffffff169050919050565b6060600480548060200260200160405190810160405280929190818152602001828054801561174457602002820191906000526020600020905b8160009054906101000a900473ffffffffffffffffffffffffffffffffffffffff1673ffffffffffffffffffffffffffffffffffffffff16815260200190600101908083116116fa575b5050505050905090565b6000600154905090565b6000600480549050905090565b60006004805490508260008151811061178157611780613a97565b5b602002602001015161179391906139d9565b90506000600482815481106117ab576117aa613a97565b5b9060005260206000200160009054906101000a900473ffffffffffffffffffffffffffffffffffffffff16905080600260006101000a81548173ffffffffffffffffffffffffffffffffffffffff021916908373ffffffffffffffffffffffffffffffffffffffff160217905550600067ffffffffffffffff81111561183457611833613ac6565b5b6040519080825280602002602001820160405280156118625781602001602082028036833780820191505090505b5060049080519060200190611878929190612e3b565b506003600560006101000a81548160ff0219169083600381111561189f5761189e613a68565b5b021790555060008173ffffffffffffffffffffffffffffffffffffffff16476040516118ca90613315565b60006040518083038185875af1925050503d8060008114611907576040519150601f19603f3d011682016040523d82523d6000602084013e61190c565b606091505b5050905080611947576040517f829a2ec900000000000000000000000000000000000000000000000000000000815260040160405180910390fd5b6000611951611eb1565b90506000600660007f000000000000000000000000000000000000000000000000000000000000000073ffffffffffffffffffffffffffffffffffffffff1673ffffffffffffffffffffffffffffffffffffffff1681526020019081526020016000205490506000600660007f000000000000000000000000000000000000000000000000000000000000000073ffffffffffffffffffffffffffffffffffffffff1673ffffffffffffffffffffffffffffffffffffffff168152602001908152602001600020819055506000600660007f000000000000000000000000000000000000000000000000000000000000000073ffffffffffffffffffffffffffffffffffffffff1673ffffffffffffffffffffffffffffffffffffffff1681526020019081526020016000205490506000600660007f000000000000000000000000000000000000000000000000000000000000000073ffffffffffffffffffffffffffffffffffffffff1673ffffffffffffffffffffffffffffffffffffffff168152602001908152602001600020819055506000600660007f000000000000000000000000000000000000000000000000000000000000000073ffffffffffffffffffffffffffffffffffffffff1673ffffffffffffffffffffffffffffffffffffffff1681526020019081526020016000205490506000600660007f000000000000000000000000000000000000000000000000000000000000000073ffffffffffffffffffffffffffffffffffffffff1673ffffffffffffffffffffffffffffffffffffffff168152602001908152602001600020819055508315611bc557611bc088848484612116565b611e63565b8183118015611bd357508083115b15611ca457826001819055507f0000000000000000000000000000000000000000000000000000000000000000600360006101000a81548173ffffffffffffffffffffffffffffffffffffffff021916908373ffffffffffffffffffffffffffffffffffffffff1602179055507f000000000000000000000000000000000000000000000000000000000000000073ffffffffffffffffffffffffffffffffffffffff167f3c87360dce5c6f26147daf6a9e168e80a4c7199e9aa7cbd7a874094804c361b460405160405180910390a25b8282118015611cb257508082115b15611d8357816001819055507f0000000000000000000000000000000000000000000000000000000000000000600360006101000a81548173ffffffffffffffffffffffffffffffffffffffff021916908373ffffffffffffffffffffffffffffffffffffffff1602179055507f000000000000000000000000000000000000000000000000000000000000000073ffffffffffffffffffffffffffffffffffffffff167f3c87360dce5c6f26147daf6a9e168e80a4c7199e9aa7cbd7a874094804c361b460405160405180910390a25b8281118015611d9157508181115b15611e6257806001819055507f0000000000000000000000000000000000000000000000000000000000000000600360006101000a81548173ffffffffffffffffffffffffffffffffffffffff021916908373ffffffffffffffffffffffffffffffffffffffff1602179055507f000000000000000000000000000000000000000000000000000000000000000073ffffffffffffffffffffffffffffffffffffffff167f3c87360dce5c6f26147daf6a9e168e80a4c7199e9aa7cbd7a874094804c361b460405160405180910390a25b5b8573ffffffffffffffffffffffffffffffffffffffff167f5b690ec4a06fe979403046eaeea5b3ce38524683c3001f662c8b5a829632f7df60405160405180910390a2505050505050505050565b6000600660007f000000000000000000000000000000000000000000000000000000000000000073ffffffffffffffffffffffffffffffffffffffff1673ffffffffffffffffffffffffffffffffffffffff16815260200190815260200160002054600660007f000000000000000000000000000000000000000000000000000000000000000073ffffffffffffffffffffffffffffffffffffffff1673ffffffffffffffffffffffffffffffffffffffff16815260200190815260200160002054148061203c5750600660007f000000000000000000000000000000000000000000000000000000000000000073ffffffffffffffffffffffffffffffffffffffff1673ffffffffffffffffffffffffffffffffffffffff16815260200190815260200160002054600660007f000000000000000000000000000000000000000000000000000000000000000073ffffffffffffffffffffffffffffffffffffffff1673ffffffffffffffffffffffffffffffffffffffff16815260200190815260200160002054145b806121045750600660007f000000000000000000000000000000000000000000000000000000000000000073ffffffffffffffffffffffffffffffffffffffff1673ffffffffffffffffffffffffffffffffffffffff16815260200190815260200160002054600660007f000000000000000000000000000000000000000000000000000000000000000073ffffffffffffffffffffffffffffffffffffffff1673ffffffffffffffffffffffffffffffffffffffff16815260200190815260200160002054145b156121125760019050612113565b5b90565b6000600367ffffffffffffffff81111561213357612132613ac6565b5b6040519080825280602002602001820160405280156121615781602001602082028036833780820191505090505b509050838160008151811061217957612178613a97565b5b602002602001018181525050828160018151811061219a57612199613a97565b5b60200260200101818152505081816002815181106121bb576121ba613a97565b5b60200260200101818152505060006121d282612c7c565b9050806002815181106121e8576121e7613a97565b5b6020026020010151600181905550838514801561220457508285145b156125de578560018151811061221d5761221c613a97565b5b60200260200101518561223091906135f6565b94508560028151811061224657612245613a97565b5b60200260200101518461225991906135f6565b93508560038151811061226f5761226e613a97565b5b60200260200101518361228291906135f6565b92506000600367ffffffffffffffff8111156122a1576122a0613ac6565b5b6040519080825280602002602001820160405280156122cf5781602001602082028036833780820191505090505b50905085816000815181106122e7576122e6613a97565b5b602002602001018181525050848160018151811061230857612307613a97565b5b602002602001018181525050838160028151811061232957612328613a97565b5b602002602001018181525050600061234082612c7c565b9050868160028151811061235757612356613a97565b5b6020026020010151141561242a577f0000000000000000000000000000000000000000000000000000000000000000600360006101000a81548173ffffffffffffffffffffffffffffffffffffffff021916908373ffffffffffffffffffffffffffffffffffffffff1602179055507f000000000000000000000000000000000000000000000000000000000000000073ffffffffffffffffffffffffffffffffffffffff167f3c87360dce5c6f26147daf6a9e168e80a4c7199e9aa7cbd7a874094804c361b460405160405180910390a25b858160028151811061243f5761243e613a97565b5b60200260200101511415612516577f0000000000000000000000000000000000000000000000000000000000000000600360006101000a81548173ffffffffffffffffffffffffffffffffffffffff021916908373ffffffffffffffffffffffffffffffffffffffff1602179055507f000000000000000000000000000000000000000000000000000000000000000073ffffffffffffffffffffffffffffffffffffffff167f3c87360dce5c6f26147daf6a9e168e80a4c7199e9aa7cbd7a874094804c361b460405160405180910390a26125db565b7f0000000000000000000000000000000000000000000000000000000000000000600360006101000a81548173ffffffffffffffffffffffffffffffffffffffff021916908373ffffffffffffffffffffffffffffffffffffffff1602179055507f000000000000000000000000000000000000000000000000000000000000000073ffffffffffffffffffffffffffffffffffffffff167f3c87360dce5c6f26147daf6a9e168e80a4c7199e9aa7cbd7a874094804c361b460405160405180910390a25b50505b84816002815181106125f3576125f2613a97565b5b60200260200101511480156126225750838160028151811061261857612617613a97565b5b6020026020010151145b15612810578560018151811061263b5761263a613a97565b5b60200260200101518561264e91906135f6565b94508560028151811061266457612663613a97565b5b60200260200101518461267791906135f6565b93508385111561274a577f0000000000000000000000000000000000000000000000000000000000000000600360006101000a81548173ffffffffffffffffffffffffffffffffffffffff021916908373ffffffffffffffffffffffffffffffffffffffff1602179055507f000000000000000000000000000000000000000000000000000000000000000073ffffffffffffffffffffffffffffffffffffffff167f3c87360dce5c6f26147daf6a9e168e80a4c7199e9aa7cbd7a874094804c361b460405160405180910390a261280f565b7f0000000000000000000000000000000000000000000000000000000000000000600360006101000a81548173ffffffffffffffffffffffffffffffffffffffff021916908373ffffffffffffffffffffffffffffffffffffffff1602179055507f000000000000000000000000000000000000000000000000000000000000000073ffffffffffffffffffffffffffffffffffffffff167f3c87360dce5c6f26147daf6a9e168e80a4c7199e9aa7cbd7a874094804c361b460405160405180910390a25b5b848160028151811061282557612824613a97565b5b60200260200101511480156128545750828160028151811061284a57612849613a97565b5b6020026020010151145b15612a42578560018151811061286d5761286c613a97565b5b60200260200101518561288091906135f6565b94508560028151811061289657612895613a97565b5b6020026020010151836128a991906135f6565b92508285111561297c577f0000000000000000000000000000000000000000000000000000000000000000600360006101000a81548173ffffffffffffffffffffffffffffffffffffffff021916908373ffffffffffffffffffffffffffffffffffffffff1602179055507f000000000000000000000000000000000000000000000000000000000000000073ffffffffffffffffffffffffffffffffffffffff167f3c87360dce5c6f26147daf6a9e168e80a4c7199e9aa7cbd7a874094804c361b460405160405180910390a2612a41565b7f0000000000000000000000000000000000000000000000000000000000000000600360006101000a81548173ffffffffffffffffffffffffffffffffffffffff021916908373ffffffffffffffffffffffffffffffffffffffff1602179055507f000000000000000000000000000000000000000000000000000000000000000073ffffffffffffffffffffffffffffffffffffffff167f3c87360dce5c6f26147daf6a9e168e80a4c7199e9aa7cbd7a874094804c361b460405160405180910390a25b5b8381600281518110612a5757612a56613a97565b5b6020026020010151148015612a8657508281600281518110612a7c57612a7b613a97565b5b6020026020010151145b15612c745785600181518110612a9f57612a9e613a97565b5b602002602001015184612ab291906135f6565b935085600281518110612ac857612ac7613a97565b5b602002602001015183612adb91906135f6565b925082841115612bae577f0000000000000000000000000000000000000000000000000000000000000000600360006101000a81548173ffffffffffffffffffffffffffffffffffffffff021916908373ffffffffffffffffffffffffffffffffffffffff1602179055507f000000000000000000000000000000000000000000000000000000000000000073ffffffffffffffffffffffffffffffffffffffff167f3c87360dce5c6f26147daf6a9e168e80a4c7199e9aa7cbd7a874094804c361b460405160405180910390a2612c73565b7f0000000000000000000000000000000000000000000000000000000000000000600360006101000a81548173ffffffffffffffffffffffffffffffffffffffff021916908373ffffffffffffffffffffffffffffffffffffffff1602179055507f000000000000000000000000000000000000000000000000000000000000000073ffffffffffffffffffffffffffffffffffffffff167f3c87360dce5c6f26147daf6a9e168e80a4c7199e9aa7cbd7a874094804c361b460405160405180910390a25b5b505050505050565b6060612c9782600060018551612c9291906137a4565b612c9f565b819050919050565b6000829050600082905080821415612cb8575050612e36565b60008560028686612cc99190613710565b612cd3919061364c565b86612cde9190613562565b81518110612cef57612cee613a97565b5b602002602001015190505b818313612e0a575b80868481518110612d1657612d15613a97565b5b60200260200101511015612d37578280612d2f90613947565b935050612d02565b5b858281518110612d4b57612d4a613a97565b5b6020026020010151811015612d6d578180612d65906138cd565b925050612d38565b818313612e0557858281518110612d8757612d86613a97565b5b6020026020010151868481518110612da257612da1613a97565b5b6020026020010151878581518110612dbd57612dbc613a97565b5b60200260200101888581518110612dd757612dd6613a97565b5b60200260200101828152508281525050508280612df390613947565b9350508180612e01906138cd565b9250505b612cfa565b81851215612e1e57612e1d868684612c9f565b5b83831215612e3257612e31868486612c9f565b5b5050505b505050565b828054828255906000526020600020908101928215612eb4579160200282015b82811115612eb35782518260006101000a81548173ffffffffffffffffffffffffffffffffffffffff021916908373ffffffffffffffffffffffffffffffffffffffff16021790555091602001919060010190612e5b565b5b509050612ec19190612ec5565b5090565b5b80821115612ede576000816000905550600101612ec6565b5090565b6000612ef5612ef0846134a5565b613480565b90508083825260208201905082856020860282011115612f1857612f17613aff565b5b60005b85811015612f485781612f2e8882613046565b845260208401935060208301925050600181019050612f1b565b5050509392505050565b6000612f65612f60846134d1565b613480565b905082815260208101848484011115612f8157612f80613b04565b5b612f8c84828561388b565b509392505050565b600082601f830112612fa957612fa8613afa565b5b8135612fb9848260208601612ee2565b91505092915050565b60008083601f840112612fd857612fd7613afa565b5b8235905067ffffffffffffffff811115612ff557612ff4613af5565b5b60208301915083600182028301111561301157613010613aff565b5b9250929050565b600082601f83011261302d5761302c613afa565b5b813561303d848260208601612f52565b91505092915050565b60008135905061305581613b3b565b92915050565b60008151905061306a81613b3b565b92915050565b6000806020838503121561308757613086613b0e565b5b600083013567ffffffffffffffff8111156130a5576130a4613b09565b5b6130b185828601612fc2565b92509250509250929050565b6000602082840312156130d3576130d2613b0e565b5b600082013567ffffffffffffffff8111156130f1576130f0613b09565b5b6130fd84828501613018565b91505092915050565b60006020828403121561311c5761311b613b0e565b5b600061312a84828501613046565b91505092915050565b60006020828403121561314957613148613b0e565b5b60006131578482850161305b565b91505092915050565b6000806040838503121561317757613176613b0e565b5b600061318585828601613046565b925050602083013567ffffffffffffffff8111156131a6576131a5613b09565b5b6131b285828601612f94565b9150509250929050565b60006131c883836131d4565b60208301905092915050565b6131dd816137d8565b82525050565b6131ec816137d8565b82525050565b60006131fd82613512565b6132078185613535565b935061321283613502565b8060005b8381101561324357815161322a88826131bc565b975061323583613528565b925050600181019050613216565b5085935050505092915050565b613259816137ea565b82525050565b613268816137f6565b82525050565b60006132798261351d565b6132838185613546565b935061329381856020860161389a565b61329c81613b13565b840191505092915050565b6132b081613879565b82525050565b60006132c3600083613557565b91506132ce82613b24565b600082019050919050565b6132e28161381d565b82525050565b6132f18161384b565b82525050565b61330081613855565b82525050565b61330f81613865565b82525050565b6000613320826132b6565b9150819050919050565b600060208201905061333f60008301846131e3565b92915050565b600060408201905061335a60008301856131e3565b61336760208301846131e3565b9392505050565b6000602082019050818103600083015261338881846131f2565b905092915050565b60006040820190506133a56000830185613250565b81810360208301526133b7818461326e565b90509392505050565b600060a0820190506133d5600083018861325f565b6133e26020830187613306565b6133ef60408301866132d9565b6133fc60608301856132f7565b61340960808301846132f7565b9695505050505050565b600060208201905061342860008301846132a7565b92915050565b600060208201905061344360008301846132e8565b92915050565b600060608201905061345e60008301866132e8565b61346b60208301856132e8565b61347860408301846132e8565b949350505050565b600061348a61349b565b90506134968282613916565b919050565b6000604051905090565b600067ffffffffffffffff8211156134c0576134bf613ac6565b5b602082029050602081019050919050565b600067ffffffffffffffff8211156134ec576134eb613ac6565b5b6134f582613b13565b9050602081019050919050565b6000819050602082019050919050565b600081519050919050565b600081519050919050565b6000602082019050919050565b600082825260208201905092915050565b600082825260208201905092915050565b600081905092915050565b600061356d82613813565b915061357883613813565b9250817f7fffffffffffffffffffffffffffffffffffffffffffffffffffffffffffffff038313600083121516156135b3576135b2613a0a565b5b817f80000000000000000000000000000000000000000000000000000000000000000383126000831216156135eb576135ea613a0a565b5b828201905092915050565b60006136018261384b565b915061360c8361384b565b9250827fffffffffffffffffffffffffffffffffffffffffffffffffffffffffffffffff0382111561364157613640613a0a565b5b828201905092915050565b600061365782613813565b915061366283613813565b92508261367257613671613a39565b5b600160000383147f8000000000000000000000000000000000000000000000000000000000000000831416156136ab576136aa613a0a565b5b828205905092915050565b60006136c18261384b565b91506136cc8361384b565b9250817fffffffffffffffffffffffffffffffffffffffffffffffffffffffffffffffff048311821515161561370557613704613a0a565b5b828202905092915050565b600061371b82613813565b915061372683613813565b9250827f80000000000000000000000000000000000000000000000000000000000000000182126000841215161561376157613760613a0a565b5b827f7fffffffffffffffffffffffffffffffffffffffffffffffffffffffffffffff01821360008412161561379957613798613a0a565b5b828203905092915050565b60006137af8261384b565b91506137ba8361384b565b9250828210156137cd576137cc613a0a565b5b828203905092915050565b60006137e38261382b565b9050919050565b60008115159050919050565b6000819050919050565b600081905061380e82613b27565b919050565b6000819050919050565b600061ffff82169050919050565b600073ffffffffffffffffffffffffffffffffffffffff82169050919050565b6000819050919050565b600063ffffffff82169050919050565b600067ffffffffffffffff82169050919050565b600061388482613800565b9050919050565b82818337600083830152505050565b60005b838110156138b857808201518184015260208101905061389d565b838111156138c7576000848401525b50505050565b60006138d882613813565b91507f800000000000000000000000000000000000000000000000000000000000000082141561390b5761390a613a0a565b5b600182039050919050565b61391f82613b13565b810181811067ffffffffffffffff8211171561393e5761393d613ac6565b5b80604052505050565b600061395282613813565b91507f7fffffffffffffffffffffffffffffffffffffffffffffffffffffffffffffff82141561398557613984613a0a565b5b600182019050919050565b600061399b8261384b565b91507fffffffffffffffffffffffffffffffffffffffffffffffffffffffffffffffff8214156139ce576139cd613a0a565b5b600182019050919050565b60006139e48261384b565b91506139ef8361384b565b9250826139ff576139fe613a39565b5b828206905092915050565b7f4e487b7100000000000000000000000000000000000000000000000000000000600052601160045260246000fd5b7f4e487b7100000000000000000000000000000000000000000000000000000000600052601260045260246000fd5b7f4e487b7100000000000000000000000000000000000000000000000000000000600052602160045260246000fd5b7f4e487b7100000000000000000000000000000000000000000000000000000000600052603260045260246000fd5b7f4e487b7100000000000000000000000000000000000000000000000000000000600052604160045260246000fd5b600080fd5b600080fd5b600080fd5b600080fd5b600080fd5b600080fd5b6000601f19601f8301169050919050565b50565b60048110613b3857613b37613a68565b5b50565b613b448161384b565b8114613b4f57600080fd5b5056fea2646970667358221220020aac59517e32e08cc4e42373af80e722d01ee417cbde6fa4412e51809a788764736f6c63430008070033",
			"opcodes": "PUSH2 0x200 PUSH1 0x40 MSTORE CALLVALUE DUP1 ISZERO PUSH3 0x12 JUMPI PUSH1 0x0 DUP1 REVERT JUMPDEST POP PUSH1 0x40 MLOAD PUSH3 0x426F CODESIZE SUB DUP1 PUSH3 0x426F DUP4 CODECOPY DUP2 DUP2 ADD PUSH1 0x40 MSTORE DUP2 ADD SWAP1 PUSH3 0x38 SWAP2 SWAP1 PUSH3 0x294 JUMP JUMPDEST DUP11 DUP1 PUSH20 0xFFFFFFFFFFFFFFFFFFFFFFFFFFFFFFFFFFFFFFFF AND PUSH1 0x80 DUP2 PUSH20 0xFFFFFFFFFFFFFFFFFFFFFFFFFFFFFFFFFFFFFFFF AND PUSH1 0x60 SHL DUP2 MSTORE POP POP POP DUP11 PUSH20 0xFFFFFFFFFFFFFFFFFFFFFFFFFFFFFFFFFFFFFFFF AND PUSH1 0xA0 DUP2 PUSH20 0xFFFFFFFFFFFFFFFFFFFFFFFFFFFFFFFFFFFFFFFF AND PUSH1 0x60 SHL DUP2 MSTORE POP POP DUP6 PUSH2 0x120 DUP2 DUP2 MSTORE POP POP DUP9 PUSH2 0x100 DUP2 DUP2 MSTORE POP POP DUP10 PUSH8 0xFFFFFFFFFFFFFFFF AND PUSH1 0xE0 DUP2 PUSH8 0xFFFFFFFFFFFFFFFF AND PUSH1 0xC0 SHL DUP2 MSTORE POP POP DUP8 PUSH2 0x140 DUP2 DUP2 MSTORE POP POP DUP7 PUSH2 0x160 DUP2 DUP2 MSTORE POP POP PUSH1 0x0 PUSH1 0x5 PUSH1 0x0 PUSH2 0x100 EXP DUP2 SLOAD DUP2 PUSH1 0xFF MUL NOT AND SWAP1 DUP4 PUSH1 0x3 DUP2 GT ISZERO PUSH3 0x114 JUMPI PUSH3 0x113 PUSH3 0x40D JUMP JUMPDEST JUMPDEST MUL OR SWAP1 SSTORE POP DUP5 PUSH4 0xFFFFFFFF AND PUSH1 0xC0 DUP2 PUSH4 0xFFFFFFFF AND PUSH1 0xE0 SHL DUP2 MSTORE POP POP DUP4 PUSH20 0xFFFFFFFFFFFFFFFFFFFFFFFFFFFFFFFFFFFFFFFF AND PUSH2 0x180 DUP2 PUSH20 0xFFFFFFFFFFFFFFFFFFFFFFFFFFFFFFFFFFFFFFFF AND PUSH1 0x60 SHL DUP2 MSTORE POP POP DUP3 PUSH20 0xFFFFFFFFFFFFFFFFFFFFFFFFFFFFFFFFFFFFFFFF AND PUSH2 0x1A0 DUP2 PUSH20 0xFFFFFFFFFFFFFFFFFFFFFFFFFFFFFFFFFFFFFFFF AND PUSH1 0x60 SHL DUP2 MSTORE POP POP DUP2 PUSH20 0xFFFFFFFFFFFFFFFFFFFFFFFFFFFFFFFFFFFFFFFF AND PUSH2 0x1C0 DUP2 PUSH20 0xFFFFFFFFFFFFFFFFFFFFFFFFFFFFFFFFFFFFFFFF AND PUSH1 0x60 SHL DUP2 MSTORE POP POP DUP1 PUSH20 0xFFFFFFFFFFFFFFFFFFFFFFFFFFFFFFFFFFFFFFFF AND PUSH2 0x1E0 DUP2 PUSH20 0xFFFFFFFFFFFFFFFFFFFFFFFFFFFFFFFFFFFFFFFF AND PUSH1 0x60 SHL DUP2 MSTORE POP POP POP POP POP POP POP POP POP POP POP POP POP PUSH3 0x4C3 JUMP JUMPDEST PUSH1 0x0 DUP2 MLOAD SWAP1 POP PUSH3 0x232 DUP2 PUSH3 0x441 JUMP JUMPDEST SWAP3 SWAP2 POP POP JUMP JUMPDEST PUSH1 0x0 DUP2 MLOAD SWAP1 POP PUSH3 0x249 DUP2 PUSH3 0x45B JUMP JUMPDEST SWAP3 SWAP2 POP POP JUMP JUMPDEST PUSH1 0x0 DUP2 MLOAD SWAP1 POP PUSH3 0x260 DUP2 PUSH3 0x475 JUMP JUMPDEST SWAP3 SWAP2 POP POP JUMP JUMPDEST PUSH1 0x0 DUP2 MLOAD SWAP1 POP PUSH3 0x277 DUP2 PUSH3 0x48F JUMP JUMPDEST SWAP3 SWAP2 POP POP JUMP JUMPDEST PUSH1 0x0 DUP2 MLOAD SWAP1 POP PUSH3 0x28E DUP2 PUSH3 0x4A9 JUMP JUMPDEST SWAP3 SWAP2 POP POP JUMP JUMPDEST PUSH1 0x0 DUP1 PUSH1 0x0 DUP1 PUSH1 0x0 DUP1 PUSH1 0x0 DUP1 PUSH1 0x0 DUP1 PUSH1 0x0 PUSH2 0x160 DUP13 DUP15 SUB SLT ISZERO PUSH3 0x2BD JUMPI PUSH3 0x2BC PUSH3 0x43C JUMP JUMPDEST JUMPDEST PUSH1 0x0 PUSH3 0x2CD DUP15 DUP3 DUP16 ADD PUSH3 0x221 JUMP JUMPDEST SWAP12 POP POP PUSH1 0x20 PUSH3 0x2E0 DUP15 DUP3 DUP16 ADD PUSH3 0x27D JUMP JUMPDEST SWAP11 POP POP PUSH1 0x40 PUSH3 0x2F3 DUP15 DUP3 DUP16 ADD PUSH3 0x238 JUMP JUMPDEST SWAP10 POP POP PUSH1 0x60 PUSH3 0x306 DUP15 DUP3 DUP16 ADD PUSH3 0x24F JUMP JUMPDEST SWAP9 POP POP PUSH1 0x80 PUSH3 0x319 DUP15 DUP3 DUP16 ADD PUSH3 0x24F JUMP JUMPDEST SWAP8 POP POP PUSH1 0xA0 PUSH3 0x32C DUP15 DUP3 DUP16 ADD PUSH3 0x24F JUMP JUMPDEST SWAP7 POP POP PUSH1 0xC0 PUSH3 0x33F DUP15 DUP3 DUP16 ADD PUSH3 0x266 JUMP JUMPDEST SWAP6 POP POP PUSH1 0xE0 PUSH3 0x352 DUP15 DUP3 DUP16 ADD PUSH3 0x221 JUMP JUMPDEST SWAP5 POP POP PUSH2 0x100 PUSH3 0x366 DUP15 DUP3 DUP16 ADD PUSH3 0x221 JUMP JUMPDEST SWAP4 POP POP PUSH2 0x120 PUSH3 0x37A DUP15 DUP3 DUP16 ADD PUSH3 0x221 JUMP JUMPDEST SWAP3 POP POP PUSH2 0x140 PUSH3 0x38E DUP15 DUP3 DUP16 ADD PUSH3 0x221 JUMP JUMPDEST SWAP2 POP POP SWAP3 SWAP6 SWAP9 SWAP12 POP SWAP3 SWAP6 SWAP9 SWAP12 SWAP1 SWAP4 SWAP7 SWAP10 POP JUMP JUMPDEST PUSH1 0x0 PUSH3 0x3AE DUP3 PUSH3 0x3BF JUMP JUMPDEST SWAP1 POP SWAP2 SWAP1 POP JUMP JUMPDEST PUSH1 0x0 DUP2 SWAP1 POP SWAP2 SWAP1 POP JUMP JUMPDEST PUSH1 0x0 PUSH20 0xFFFFFFFFFFFFFFFFFFFFFFFFFFFFFFFFFFFFFFFF DUP3 AND SWAP1 POP SWAP2 SWAP1 POP JUMP JUMPDEST PUSH1 0x0 DUP2 SWAP1 POP SWAP2 SWAP1 POP JUMP JUMPDEST PUSH1 0x0 PUSH4 0xFFFFFFFF DUP3 AND SWAP1 POP SWAP2 SWAP1 POP JUMP JUMPDEST PUSH1 0x0 PUSH8 0xFFFFFFFFFFFFFFFF DUP3 AND SWAP1 POP SWAP2 SWAP1 POP JUMP JUMPDEST PUSH32 0x4E487B7100000000000000000000000000000000000000000000000000000000 PUSH1 0x0 MSTORE PUSH1 0x21 PUSH1 0x4 MSTORE PUSH1 0x24 PUSH1 0x0 REVERT JUMPDEST PUSH1 0x0 DUP1 REVERT JUMPDEST PUSH3 0x44C DUP2 PUSH3 0x3A1 JUMP JUMPDEST DUP2 EQ PUSH3 0x458 JUMPI PUSH1 0x0 DUP1 REVERT JUMPDEST POP JUMP JUMPDEST PUSH3 0x466 DUP2 PUSH3 0x3B5 JUMP JUMPDEST DUP2 EQ PUSH3 0x472 JUMPI PUSH1 0x0 DUP1 REVERT JUMPDEST POP JUMP JUMPDEST PUSH3 0x480 DUP2 PUSH3 0x3DF JUMP JUMPDEST DUP2 EQ PUSH3 0x48C JUMPI PUSH1 0x0 DUP1 REVERT JUMPDEST POP JUMP JUMPDEST PUSH3 0x49A DUP2 PUSH3 0x3E9 JUMP JUMPDEST DUP2 EQ PUSH3 0x4A6 JUMPI PUSH1 0x0 DUP1 REVERT JUMPDEST POP JUMP JUMPDEST PUSH3 0x4B4 DUP2 PUSH3 0x3F9 JUMP JUMPDEST DUP2 EQ PUSH3 0x4C0 JUMPI PUSH1 0x0 DUP1 REVERT JUMPDEST POP JUMP JUMPDEST PUSH1 0x80 MLOAD PUSH1 0x60 SHR PUSH1 0xA0 MLOAD PUSH1 0x60 SHR PUSH1 0xC0 MLOAD PUSH1 0xE0 SHR PUSH1 0xE0 MLOAD PUSH1 0xC0 SHR PUSH2 0x100 MLOAD PUSH2 0x120 MLOAD PUSH2 0x140 MLOAD PUSH2 0x160 MLOAD PUSH2 0x180 MLOAD PUSH1 0x60 SHR PUSH2 0x1A0 MLOAD PUSH1 0x60 SHR PUSH2 0x1C0 MLOAD PUSH1 0x60 SHR PUSH2 0x1E0 MLOAD PUSH1 0x60 SHR PUSH2 0x3B88 PUSH3 0x6E7 PUSH1 0x0 CODECOPY PUSH1 0x0 DUP2 DUP2 PUSH2 0x5A9 ADD MSTORE DUP2 DUP2 PUSH2 0x10D4 ADD MSTORE DUP2 DUP2 PUSH2 0x11FA ADD MSTORE PUSH2 0x1418 ADD MSTORE PUSH1 0x0 DUP2 DUP2 PUSH2 0xB2E ADD MSTORE DUP2 DUP2 PUSH2 0xBBD ADD MSTORE DUP2 DUP2 PUSH2 0xC1E ADD MSTORE DUP2 DUP2 PUSH2 0x1044 ADD MSTORE DUP2 DUP2 PUSH2 0x1AED ADD MSTORE DUP2 DUP2 PUSH2 0x1B51 ADD MSTORE DUP2 DUP2 PUSH2 0x1D9F ADD MSTORE DUP2 DUP2 PUSH2 0x1E00 ADD MSTORE DUP2 DUP2 PUSH2 0x1F80 ADD MSTORE DUP2 DUP2 PUSH2 0x2048 ADD MSTORE DUP2 DUP2 PUSH2 0x2518 ADD MSTORE DUP2 DUP2 PUSH2 0x2579 ADD MSTORE DUP2 DUP2 PUSH2 0x297E ADD MSTORE DUP2 DUP2 PUSH2 0x29DF ADD MSTORE DUP2 DUP2 PUSH2 0x2BB0 ADD MSTORE PUSH2 0x2C11 ADD MSTORE PUSH1 0x0 DUP2 DUP2 PUSH2 0x9C0 ADD MSTORE DUP2 DUP2 PUSH2 0xA4F ADD MSTORE DUP2 DUP2 PUSH2 0xAB0 ADD MSTORE DUP2 DUP2 PUSH2 0xFD5 ADD MSTORE DUP2 DUP2 PUSH2 0x1A24 ADD MSTORE DUP2 DUP2 PUSH2 0x1A88 ADD MSTORE DUP2 DUP2 PUSH2 0x1CC0 ADD MSTORE DUP2 DUP2 PUSH2 0x1D21 ADD MSTORE DUP2 DUP2 PUSH2 0x1EB9 ADD MSTORE DUP2 DUP2 PUSH2 0x20A8 ADD MSTORE DUP2 DUP2 PUSH2 0x244F ADD MSTORE DUP2 DUP2 PUSH2 0x24B0 ADD MSTORE DUP2 DUP2 PUSH2 0x274C ADD MSTORE DUP2 DUP2 PUSH2 0x27AD ADD MSTORE DUP2 DUP2 PUSH2 0x2AE7 ADD MSTORE PUSH2 0x2B48 ADD MSTORE PUSH1 0x0 DUP2 DUP2 PUSH2 0x852 ADD MSTORE DUP2 DUP2 PUSH2 0x8E1 ADD MSTORE DUP2 DUP2 PUSH2 0x942 ADD MSTORE DUP2 DUP2 PUSH2 0xF66 ADD MSTORE DUP2 DUP2 PUSH2 0x195B ADD MSTORE DUP2 DUP2 PUSH2 0x19BF ADD MSTORE DUP2 DUP2 PUSH2 0x1BE1 ADD MSTORE DUP2 DUP2 PUSH2 0x1C42 ADD MSTORE DUP2 DUP2 PUSH2 0x1F19 ADD MSTORE DUP2 DUP2 PUSH2 0x1FE0 ADD MSTORE DUP2 DUP2 PUSH2 0x2367 ADD MSTORE DUP2 DUP2 PUSH2 0x23C8 ADD MSTORE DUP2 DUP2 PUSH2 0x2683 ADD MSTORE DUP2 DUP2 PUSH2 0x26E4 ADD MSTORE DUP2 DUP2 PUSH2 0x28B5 ADD MSTORE PUSH2 0x2916 ADD MSTORE PUSH1 0x0 DUP2 DUP2 PUSH2 0x62E ADD MSTORE DUP2 DUP2 PUSH2 0x6D3 ADD MSTORE PUSH2 0x11D4 ADD MSTORE PUSH1 0x0 DUP2 DUP2 PUSH2 0x4AC ADD MSTORE DUP2 DUP2 PUSH2 0x780 ADD MSTORE PUSH2 0x1313 ADD MSTORE PUSH1 0x0 DUP2 DUP2 PUSH2 0x113B ADD MSTORE PUSH2 0x13E9 ADD MSTORE PUSH1 0x0 PUSH2 0xE2C ADD MSTORE PUSH1 0x0 PUSH2 0xE4D ADD MSTORE PUSH1 0x0 PUSH2 0xE70 ADD MSTORE PUSH1 0x0 PUSH2 0xDF0 ADD MSTORE PUSH1 0x0 DUP2 DUP2 PUSH2 0x4E9 ADD MSTORE PUSH2 0x53D ADD MSTORE PUSH2 0x3B88 PUSH1 0x0 RETURN INVALID PUSH1 0x80 PUSH1 0x40 MSTORE PUSH1 0x4 CALLDATASIZE LT PUSH2 0x135 JUMPI PUSH1 0x0 CALLDATALOAD PUSH1 0xE0 SHR DUP1 PUSH4 0x6E04FF0D GT PUSH2 0xAB JUMPI DUP1 PUSH4 0xC828371E GT PUSH2 0x6F JUMPI DUP1 PUSH4 0xC828371E EQ PUSH2 0x3A8 JUMPI DUP1 PUSH4 0xD6F46630 EQ PUSH2 0x3D3 JUMPI DUP1 PUSH4 0xE55AE4E8 EQ PUSH2 0x3EA JUMPI DUP1 PUSH4 0xEFA1C482 EQ PUSH2 0x427 JUMPI DUP1 PUSH4 0xF975CB39 EQ PUSH2 0x452 JUMPI DUP1 PUSH4 0xFD6673F5 EQ PUSH2 0x47D JUMPI PUSH2 0x135 JUMP JUMPDEST DUP1 PUSH4 0x6E04FF0D EQ PUSH2 0x2DF JUMPI DUP1 PUSH4 0x855C289C EQ PUSH2 0x31D JUMPI DUP1 PUSH4 0x9329066C EQ PUSH2 0x348 JUMPI DUP1 PUSH4 0xA3D7DD31 EQ PUSH2 0x373 JUMPI DUP1 PUSH4 0xAD2E8C9B EQ PUSH2 0x37D JUMPI PUSH2 0x135 JUMP JUMPDEST DUP1 PUSH4 0x4585E33B GT PUSH2 0xFD JUMPI DUP1 PUSH4 0x4585E33B EQ PUSH2 0x1DF JUMPI DUP1 PUSH4 0x473F1DDC EQ PUSH2 0x208 JUMPI DUP1 PUSH4 0x48112C6F EQ PUSH2 0x233 JUMPI DUP1 PUSH4 0x53A2C19A EQ PUSH2 0x25E JUMPI DUP1 PUSH4 0x5F1B0FD8 EQ PUSH2 0x289 JUMPI DUP1 PUSH4 0x6846AF76 EQ PUSH2 0x2B4 JUMPI PUSH2 0x135 JUMP JUMPDEST DUP1 PUSH4 0x9BC33A7 EQ PUSH2 0x13A JUMPI DUP1 PUSH4 0x115CBAF5 EQ PUSH2 0x165 JUMPI DUP1 PUSH4 0x1FE543E3 EQ PUSH2 0x190 JUMPI DUP1 PUSH4 0x242284F1 EQ PUSH2 0x1B9 JUMPI DUP1 PUSH4 0x2E519F90 EQ PUSH2 0x1C3 JUMPI JUMPDEST PUSH1 0x0 DUP1 REVERT JUMPDEST CALLVALUE DUP1 ISZERO PUSH2 0x146 JUMPI PUSH1 0x0 DUP1 REVERT JUMPDEST POP PUSH2 0x14F PUSH2 0x4A8 JUMP JUMPDEST PUSH1 0x40 MLOAD PUSH2 0x15C SWAP2 SWAP1 PUSH2 0x342E JUMP JUMPDEST PUSH1 0x40 MLOAD DUP1 SWAP2 SUB SWAP1 RETURN JUMPDEST CALLVALUE DUP1 ISZERO PUSH2 0x171 JUMPI PUSH1 0x0 DUP1 REVERT JUMPDEST POP PUSH2 0x17A PUSH2 0x4D0 JUMP JUMPDEST PUSH1 0x40 MLOAD PUSH2 0x187 SWAP2 SWAP1 PUSH2 0x3413 JUMP JUMPDEST PUSH1 0x40 MLOAD DUP1 SWAP2 SUB SWAP1 RETURN JUMPDEST CALLVALUE DUP1 ISZERO PUSH2 0x19C JUMPI PUSH1 0x0 DUP1 REVERT JUMPDEST POP PUSH2 0x1B7 PUSH1 0x4 DUP1 CALLDATASIZE SUB DUP2 ADD SWAP1 PUSH2 0x1B2 SWAP2 SWAP1 PUSH2 0x3160 JUMP JUMPDEST PUSH2 0x4E7 JUMP JUMPDEST STOP JUMPDEST PUSH2 0x1C1 PUSH2 0x5A7 JUMP JUMPDEST STOP JUMPDEST PUSH2 0x1DD PUSH1 0x4 DUP1 CALLDATASIZE SUB DUP2 ADD SWAP1 PUSH2 0x1D8 SWAP2 SWAP1 PUSH2 0x3106 JUMP JUMPDEST PUSH2 0x77E JUMP JUMPDEST STOP JUMPDEST CALLVALUE DUP1 ISZERO PUSH2 0x1EB JUMPI PUSH1 0x0 DUP1 REVERT JUMPDEST POP PUSH2 0x206 PUSH1 0x4 DUP1 CALLDATASIZE SUB DUP2 ADD SWAP1 PUSH2 0x201 SWAP2 SWAP1 PUSH2 0x3070 JUMP JUMPDEST PUSH2 0xD38 JUMP JUMPDEST STOP JUMPDEST CALLVALUE DUP1 ISZERO PUSH2 0x214 JUMPI PUSH1 0x0 DUP1 REVERT JUMPDEST POP PUSH2 0x21D PUSH2 0xF38 JUMP JUMPDEST PUSH1 0x40 MLOAD PUSH2 0x22A SWAP2 SWAP1 PUSH2 0x332A JUMP JUMPDEST PUSH1 0x40 MLOAD DUP1 SWAP2 SUB SWAP1 RETURN JUMPDEST CALLVALUE DUP1 ISZERO PUSH2 0x23F JUMPI PUSH1 0x0 DUP1 REVERT JUMPDEST POP PUSH2 0x248 PUSH2 0xF62 JUMP JUMPDEST PUSH1 0x40 MLOAD PUSH2 0x255 SWAP2 SWAP1 PUSH2 0x336E JUMP JUMPDEST PUSH1 0x40 MLOAD DUP1 SWAP2 SUB SWAP1 RETURN JUMPDEST CALLVALUE DUP1 ISZERO PUSH2 0x26A JUMPI PUSH1 0x0 DUP1 REVERT JUMPDEST POP PUSH2 0x273 PUSH2 0x10B4 JUMP JUMPDEST PUSH1 0x40 MLOAD PUSH2 0x280 SWAP2 SWAP1 PUSH2 0x342E JUMP JUMPDEST PUSH1 0x40 MLOAD DUP1 SWAP2 SUB SWAP1 RETURN JUMPDEST CALLVALUE DUP1 ISZERO PUSH2 0x295 JUMPI PUSH1 0x0 DUP1 REVERT JUMPDEST POP PUSH2 0x29E PUSH2 0x10C3 JUMP JUMPDEST PUSH1 0x40 MLOAD PUSH2 0x2AB SWAP2 SWAP1 PUSH2 0x342E JUMP JUMPDEST PUSH1 0x40 MLOAD DUP1 SWAP2 SUB SWAP1 RETURN JUMPDEST CALLVALUE DUP1 ISZERO PUSH2 0x2C0 JUMPI PUSH1 0x0 DUP1 REVERT JUMPDEST POP PUSH2 0x2C9 PUSH2 0x10D0 JUMP JUMPDEST PUSH1 0x40 MLOAD PUSH2 0x2D6 SWAP2 SWAP1 PUSH2 0x332A JUMP JUMPDEST PUSH1 0x40 MLOAD DUP1 SWAP2 SUB SWAP1 RETURN JUMPDEST CALLVALUE DUP1 ISZERO PUSH2 0x2EB JUMPI PUSH1 0x0 DUP1 REVERT JUMPDEST POP PUSH2 0x306 PUSH1 0x4 DUP1 CALLDATASIZE SUB DUP2 ADD SWAP1 PUSH2 0x301 SWAP2 SWAP1 PUSH2 0x30BD JUMP JUMPDEST PUSH2 0x10F8 JUMP JUMPDEST PUSH1 0x40 MLOAD PUSH2 0x314 SWAP3 SWAP2 SWAP1 PUSH2 0x3390 JUMP JUMPDEST PUSH1 0x40 MLOAD DUP1 SWAP2 SUB SWAP1 RETURN JUMPDEST CALLVALUE DUP1 ISZERO PUSH2 0x329 JUMPI PUSH1 0x0 DUP1 REVERT JUMPDEST POP PUSH2 0x332 PUSH2 0x11A6 JUMP JUMPDEST PUSH1 0x40 MLOAD PUSH2 0x33F SWAP2 SWAP1 PUSH2 0x332A JUMP JUMPDEST PUSH1 0x40 MLOAD DUP1 SWAP2 SUB SWAP1 RETURN JUMPDEST CALLVALUE DUP1 ISZERO PUSH2 0x354 JUMPI PUSH1 0x0 DUP1 REVERT JUMPDEST POP PUSH2 0x35D PUSH2 0x11D0 JUMP JUMPDEST PUSH1 0x40 MLOAD PUSH2 0x36A SWAP2 SWAP1 PUSH2 0x342E JUMP JUMPDEST PUSH1 0x40 MLOAD DUP1 SWAP2 SUB SWAP1 RETURN JUMPDEST PUSH2 0x37B PUSH2 0x11F8 JUMP JUMPDEST STOP JUMPDEST CALLVALUE DUP1 ISZERO PUSH2 0x389 JUMPI PUSH1 0x0 DUP1 REVERT JUMPDEST POP PUSH2 0x392 PUSH2 0x13E5 JUMP JUMPDEST PUSH1 0x40 MLOAD PUSH2 0x39F SWAP2 SWAP1 PUSH2 0x342E JUMP JUMPDEST PUSH1 0x40 MLOAD DUP1 SWAP2 SUB SWAP1 RETURN JUMPDEST CALLVALUE DUP1 ISZERO PUSH2 0x3B4 JUMPI PUSH1 0x0 DUP1 REVERT JUMPDEST POP PUSH2 0x3BD PUSH2 0x140D JUMP JUMPDEST PUSH1 0x40 MLOAD PUSH2 0x3CA SWAP2 SWAP1 PUSH2 0x342E JUMP JUMPDEST PUSH1 0x40 MLOAD DUP1 SWAP2 SUB SWAP1 RETURN JUMPDEST CALLVALUE DUP1 ISZERO PUSH2 0x3DF JUMPI PUSH1 0x0 DUP1 REVERT JUMPDEST POP PUSH2 0x3E8 PUSH2 0x1416 JUMP JUMPDEST STOP JUMPDEST CALLVALUE DUP1 ISZERO PUSH2 0x3F6 JUMPI PUSH1 0x0 DUP1 REVERT JUMPDEST POP PUSH2 0x411 PUSH1 0x4 DUP1 CALLDATASIZE SUB DUP2 ADD SWAP1 PUSH2 0x40C SWAP2 SWAP1 PUSH2 0x3106 JUMP JUMPDEST PUSH2 0x1678 JUMP JUMPDEST PUSH1 0x40 MLOAD PUSH2 0x41E SWAP2 SWAP1 PUSH2 0x332A JUMP JUMPDEST PUSH1 0x40 MLOAD DUP1 SWAP2 SUB SWAP1 RETURN JUMPDEST CALLVALUE DUP1 ISZERO PUSH2 0x433 JUMPI PUSH1 0x0 DUP1 REVERT JUMPDEST POP PUSH2 0x43C PUSH2 0x16C0 JUMP JUMPDEST PUSH1 0x40 MLOAD PUSH2 0x449 SWAP2 SWAP1 PUSH2 0x336E JUMP JUMPDEST PUSH1 0x40 MLOAD DUP1 SWAP2 SUB SWAP1 RETURN JUMPDEST CALLVALUE DUP1 ISZERO PUSH2 0x45E JUMPI PUSH1 0x0 DUP1 REVERT JUMPDEST POP PUSH2 0x467 PUSH2 0x174E JUMP JUMPDEST PUSH1 0x40 MLOAD PUSH2 0x474 SWAP2 SWAP1 PUSH2 0x342E JUMP JUMPDEST PUSH1 0x40 MLOAD DUP1 SWAP2 SUB SWAP1 RETURN JUMPDEST CALLVALUE DUP1 ISZERO PUSH2 0x489 JUMPI PUSH1 0x0 DUP1 REVERT JUMPDEST POP PUSH2 0x492 PUSH2 0x1758 JUMP JUMPDEST PUSH1 0x40 MLOAD PUSH2 0x49F SWAP2 SWAP1 PUSH2 0x342E JUMP JUMPDEST PUSH1 0x40 MLOAD DUP1 SWAP2 SUB SWAP1 RETURN JUMPDEST PUSH1 0x0 PUSH32 0x0 SWAP1 POP SWAP1 JUMP JUMPDEST PUSH1 0x0 PUSH1 0x5 PUSH1 0x0 SWAP1 SLOAD SWAP1 PUSH2 0x100 EXP SWAP1 DIV PUSH1 0xFF AND SWAP1 POP SWAP1 JUMP JUMPDEST PUSH32 0x0 PUSH20 0xFFFFFFFFFFFFFFFFFFFFFFFFFFFFFFFFFFFFFFFF AND CALLER PUSH20 0xFFFFFFFFFFFFFFFFFFFFFFFFFFFFFFFFFFFFFFFF AND EQ PUSH2 0x599 JUMPI CALLER PUSH32 0x0 PUSH1 0x40 MLOAD PUSH32 0x1CF993F400000000000000000000000000000000000000000000000000000000 DUP2 MSTORE PUSH1 0x4 ADD PUSH2 0x590 SWAP3 SWAP2 SWAP1 PUSH2 0x3345 JUMP JUMPDEST PUSH1 0x40 MLOAD DUP1 SWAP2 SUB SWAP1 REVERT JUMPDEST PUSH2 0x5A3 DUP3 DUP3 PUSH2 0x1765 JUMP JUMPDEST POP POP JUMP JUMPDEST PUSH32 0x0 PUSH20 0xFFFFFFFFFFFFFFFFFFFFFFFFFFFFFFFFFFFFFFFF AND CALLER PUSH20 0xFFFFFFFFFFFFFFFFFFFFFFFFFFFFFFFFFFFFFFFF AND EQ PUSH2 0x62C JUMPI PUSH1 0x40 MLOAD PUSH32 0x5353493A00000000000000000000000000000000000000000000000000000000 DUP2 MSTORE PUSH1 0x4 ADD PUSH1 0x40 MLOAD DUP1 SWAP2 SUB SWAP1 REVERT JUMPDEST PUSH32 0x0 CALLVALUE LT ISZERO PUSH2 0x686 JUMPI PUSH1 0x40 MLOAD PUSH32 0x9B04805C00000000000000000000000000000000000000000000000000000000 DUP2 MSTORE PUSH1 0x4 ADD PUSH1 0x40 MLOAD DUP1 SWAP2 SUB SWAP1 REVERT JUMPDEST PUSH1 0x1 PUSH1 0x5 PUSH1 0x0 PUSH2 0x100 EXP DUP2 SLOAD DUP2 PUSH1 0xFF MUL NOT AND SWAP1 DUP4 PUSH1 0x3 DUP2 GT ISZERO PUSH2 0x6AC JUMPI PUSH2 0x6AB PUSH2 0x3A68 JUMP JUMPDEST JUMPDEST MUL OR SWAP1 SSTORE POP TIMESTAMP PUSH1 0x0 DUP2 SWAP1 SSTORE POP PUSH1 0x0 ADDRESS PUSH20 0xFFFFFFFFFFFFFFFFFFFFFFFFFFFFFFFFFFFFFFFF AND PUSH32 0x0 PUSH1 0x40 MLOAD PUSH2 0x6FE SWAP1 PUSH2 0x3315 JUMP JUMPDEST PUSH1 0x0 PUSH1 0x40 MLOAD DUP1 DUP4 SUB DUP2 DUP6 DUP8 GAS CALL SWAP3 POP POP POP RETURNDATASIZE DUP1 PUSH1 0x0 DUP2 EQ PUSH2 0x73B JUMPI PUSH1 0x40 MLOAD SWAP2 POP PUSH1 0x1F NOT PUSH1 0x3F RETURNDATASIZE ADD AND DUP3 ADD PUSH1 0x40 MSTORE RETURNDATASIZE DUP3 MSTORE RETURNDATASIZE PUSH1 0x0 PUSH1 0x20 DUP5 ADD RETURNDATACOPY PUSH2 0x740 JUMP JUMPDEST PUSH1 0x60 SWAP2 POP JUMPDEST POP POP SWAP1 POP DUP1 PUSH2 0x77B JUMPI PUSH1 0x40 MLOAD PUSH32 0xFEC76E0F00000000000000000000000000000000000000000000000000000000 DUP2 MSTORE PUSH1 0x4 ADD PUSH1 0x40 MLOAD DUP1 SWAP2 SUB SWAP1 REVERT JUMPDEST POP JUMP JUMPDEST PUSH32 0x0 CALLVALUE LT ISZERO PUSH2 0x7D8 JUMPI PUSH1 0x40 MLOAD PUSH32 0x8F53B81300000000000000000000000000000000000000000000000000000000 DUP2 MSTORE PUSH1 0x4 ADD PUSH1 0x40 MLOAD DUP1 SWAP2 SUB SWAP1 REVERT JUMPDEST PUSH1 0x1 PUSH1 0x3 DUP2 GT ISZERO PUSH2 0x7EC JUMPI PUSH2 0x7EB PUSH2 0x3A68 JUMP JUMPDEST JUMPDEST PUSH1 0x5 PUSH1 0x0 SWAP1 SLOAD SWAP1 PUSH2 0x100 EXP SWAP1 DIV PUSH1 0xFF AND PUSH1 0x3 DUP2 GT ISZERO PUSH2 0x80E JUMPI PUSH2 0x80D PUSH2 0x3A68 JUMP JUMPDEST JUMPDEST EQ PUSH2 0x845 JUMPI PUSH1 0x40 MLOAD PUSH32 0x464DDE1500000000000000000000000000000000000000000000000000000000 DUP2 MSTORE PUSH1 0x4 ADD PUSH1 0x40 MLOAD DUP1 SWAP2 SUB SWAP1 REVERT JUMPDEST PUSH1 0x1 DUP2 EQ ISZERO PUSH2 0x9B3 JUMPI PUSH1 0x0 PUSH32 0x0 PUSH20 0xFFFFFFFFFFFFFFFFFFFFFFFFFFFFFFFFFFFFFFFF AND CALLVALUE PUSH1 0x40 MLOAD PUSH2 0x894 SWAP1 PUSH2 0x3315 JUMP JUMPDEST PUSH1 0x0 PUSH1 0x40 MLOAD DUP1 DUP4 SUB DUP2 DUP6 DUP8 GAS CALL SWAP3 POP POP POP RETURNDATASIZE DUP1 PUSH1 0x0 DUP2 EQ PUSH2 0x8D1 JUMPI PUSH1 0x40 MLOAD SWAP2 POP PUSH1 0x1F NOT PUSH1 0x3F RETURNDATASIZE ADD AND DUP3 ADD PUSH1 0x40 MSTORE RETURNDATASIZE DUP3 MSTORE RETURNDATASIZE PUSH1 0x0 PUSH1 0x20 DUP5 ADD RETURNDATACOPY PUSH2 0x8D6 JUMP JUMPDEST PUSH1 0x60 SWAP2 POP JUMPDEST POP POP SWAP1 POP DUP1 PUSH2 0x93C JUMPI PUSH32 0x0 PUSH1 0x40 MLOAD PUSH32 0xAF120E0A00000000000000000000000000000000000000000000000000000000 DUP2 MSTORE PUSH1 0x4 ADD PUSH2 0x933 SWAP2 SWAP1 PUSH2 0x332A JUMP JUMPDEST PUSH1 0x40 MLOAD DUP1 SWAP2 SUB SWAP1 REVERT JUMPDEST PUSH1 0x6 PUSH1 0x0 PUSH32 0x0 PUSH20 0xFFFFFFFFFFFFFFFFFFFFFFFFFFFFFFFFFFFFFFFF AND PUSH20 0xFFFFFFFFFFFFFFFFFFFFFFFFFFFFFFFFFFFFFFFF AND DUP2 MSTORE PUSH1 0x20 ADD SWAP1 DUP2 MSTORE PUSH1 0x20 ADD PUSH1 0x0 KECCAK256 PUSH1 0x0 DUP2 SLOAD DUP1 SWAP3 SWAP2 SWAP1 PUSH2 0x9AC SWAP1 PUSH2 0x3990 JUMP JUMPDEST SWAP2 SWAP1 POP SSTORE POP POP JUMPDEST PUSH1 0x2 DUP2 EQ ISZERO PUSH2 0xB21 JUMPI PUSH1 0x0 PUSH32 0x0 PUSH20 0xFFFFFFFFFFFFFFFFFFFFFFFFFFFFFFFFFFFFFFFF AND CALLVALUE PUSH1 0x40 MLOAD PUSH2 0xA02 SWAP1 PUSH2 0x3315 JUMP JUMPDEST PUSH1 0x0 PUSH1 0x40 MLOAD DUP1 DUP4 SUB DUP2 DUP6 DUP8 GAS CALL SWAP3 POP POP POP RETURNDATASIZE DUP1 PUSH1 0x0 DUP2 EQ PUSH2 0xA3F JUMPI PUSH1 0x40 MLOAD SWAP2 POP PUSH1 0x1F NOT PUSH1 0x3F RETURNDATASIZE ADD AND DUP3 ADD PUSH1 0x40 MSTORE RETURNDATASIZE DUP3 MSTORE RETURNDATASIZE PUSH1 0x0 PUSH1 0x20 DUP5 ADD RETURNDATACOPY PUSH2 0xA44 JUMP JUMPDEST PUSH1 0x60 SWAP2 POP JUMPDEST POP POP SWAP1 POP DUP1 PUSH2 0xAAA JUMPI PUSH32 0x0 PUSH1 0x40 MLOAD PUSH32 0xAF120E0A00000000000000000000000000000000000000000000000000000000 DUP2 MSTORE PUSH1 0x4 ADD PUSH2 0xAA1 SWAP2 SWAP1 PUSH2 0x332A JUMP JUMPDEST PUSH1 0x40 MLOAD DUP1 SWAP2 SUB SWAP1 REVERT JUMPDEST PUSH1 0x6 PUSH1 0x0 PUSH32 0x0 PUSH20 0xFFFFFFFFFFFFFFFFFFFFFFFFFFFFFFFFFFFFFFFF AND PUSH20 0xFFFFFFFFFFFFFFFFFFFFFFFFFFFFFFFFFFFFFFFF AND DUP2 MSTORE PUSH1 0x20 ADD SWAP1 DUP2 MSTORE PUSH1 0x20 ADD PUSH1 0x0 KECCAK256 PUSH1 0x0 DUP2 SLOAD DUP1 SWAP3 SWAP2 SWAP1 PUSH2 0xB1A SWAP1 PUSH2 0x3990 JUMP JUMPDEST SWAP2 SWAP1 POP SSTORE POP POP JUMPDEST PUSH1 0x3 DUP2 EQ ISZERO PUSH2 0xC8F JUMPI PUSH1 0x0 PUSH32 0x0 PUSH20 0xFFFFFFFFFFFFFFFFFFFFFFFFFFFFFFFFFFFFFFFF AND CALLVALUE PUSH1 0x40 MLOAD PUSH2 0xB70 SWAP1 PUSH2 0x3315 JUMP JUMPDEST PUSH1 0x0 PUSH1 0x40 MLOAD DUP1 DUP4 SUB DUP2 DUP6 DUP8 GAS CALL SWAP3 POP POP POP RETURNDATASIZE DUP1 PUSH1 0x0 DUP2 EQ PUSH2 0xBAD JUMPI PUSH1 0x40 MLOAD SWAP2 POP PUSH1 0x1F NOT PUSH1 0x3F RETURNDATASIZE ADD AND DUP3 ADD PUSH1 0x40 MSTORE RETURNDATASIZE DUP3 MSTORE RETURNDATASIZE PUSH1 0x0 PUSH1 0x20 DUP5 ADD RETURNDATACOPY PUSH2 0xBB2 JUMP JUMPDEST PUSH1 0x60 SWAP2 POP JUMPDEST POP POP SWAP1 POP DUP1 PUSH2 0xC18 JUMPI PUSH32 0x0 PUSH1 0x40 MLOAD PUSH32 0xAF120E0A00000000000000000000000000000000000000000000000000000000 DUP2 MSTORE PUSH1 0x4 ADD PUSH2 0xC0F SWAP2 SWAP1 PUSH2 0x332A JUMP JUMPDEST PUSH1 0x40 MLOAD DUP1 SWAP2 SUB SWAP1 REVERT JUMPDEST PUSH1 0x6 PUSH1 0x0 PUSH32 0x0 PUSH20 0xFFFFFFFFFFFFFFFFFFFFFFFFFFFFFFFFFFFFFFFF AND PUSH20 0xFFFFFFFFFFFFFFFFFFFFFFFFFFFFFFFFFFFFFFFF AND DUP2 MSTORE PUSH1 0x20 ADD SWAP1 DUP2 MSTORE PUSH1 0x20 ADD PUSH1 0x0 KECCAK256 PUSH1 0x0 DUP2 SLOAD DUP1 SWAP3 SWAP2 SWAP1 PUSH2 0xC88 SWAP1 PUSH2 0x3990 JUMP JUMPDEST SWAP2 SWAP1 POP SSTORE POP POP JUMPDEST PUSH1 0x4 CALLER SWAP1 DUP1 PUSH1 0x1 DUP2 SLOAD ADD DUP1 DUP3 SSTORE DUP1 SWAP2 POP POP PUSH1 0x1 SWAP1 SUB SWAP1 PUSH1 0x0 MSTORE PUSH1 0x20 PUSH1 0x0 KECCAK256 ADD PUSH1 0x0 SWAP1 SWAP2 SWAP1 SWAP2 SWAP1 SWAP2 PUSH2 0x100 EXP DUP2 SLOAD DUP2 PUSH20 0xFFFFFFFFFFFFFFFFFFFFFFFFFFFFFFFFFFFFFFFF MUL NOT AND SWAP1 DUP4 PUSH20 0xFFFFFFFFFFFFFFFFFFFFFFFFFFFFFFFFFFFFFFFF AND MUL OR SWAP1 SSTORE POP CALLER PUSH20 0xFFFFFFFFFFFFFFFFFFFFFFFFFFFFFFFFFFFFFFFF AND PUSH32 0x805E1D667BDDB8A95F0F09880CF94F403FB596CE79928D9F29B74203BA284D4 PUSH1 0x40 MLOAD PUSH1 0x40 MLOAD DUP1 SWAP2 SUB SWAP1 LOG2 POP JUMP JUMPDEST PUSH1 0x0 PUSH2 0xD52 PUSH1 0x40 MLOAD DUP1 PUSH1 0x20 ADD PUSH1 0x40 MSTORE DUP1 PUSH1 0x0 DUP2 MSTORE POP PUSH2 0x10F8 JUMP JUMPDEST POP SWAP1 POP DUP1 PUSH2 0xDC1 JUMPI SELFBALANCE PUSH1 0x4 DUP1 SLOAD SWAP1 POP PUSH1 0x5 PUSH1 0x0 SWAP1 SLOAD SWAP1 PUSH2 0x100 EXP SWAP1 DIV PUSH1 0xFF AND PUSH1 0x3 DUP2 GT ISZERO PUSH2 0xD83 JUMPI PUSH2 0xD82 PUSH2 0x3A68 JUMP JUMPDEST JUMPDEST PUSH1 0x40 MLOAD PUSH32 0x1BE0EA7F00000000000000000000000000000000000000000000000000000000 DUP2 MSTORE PUSH1 0x4 ADD PUSH2 0xDB8 SWAP4 SWAP3 SWAP2 SWAP1 PUSH2 0x3449 JUMP JUMPDEST PUSH1 0x40 MLOAD DUP1 SWAP2 SUB SWAP1 REVERT JUMPDEST PUSH1 0x2 PUSH1 0x5 PUSH1 0x0 PUSH2 0x100 EXP DUP2 SLOAD DUP2 PUSH1 0xFF MUL NOT AND SWAP1 DUP4 PUSH1 0x3 DUP2 GT ISZERO PUSH2 0xDE7 JUMPI PUSH2 0xDE6 PUSH2 0x3A68 JUMP JUMPDEST JUMPDEST MUL OR SWAP1 SSTORE POP PUSH1 0x0 PUSH32 0x0 PUSH20 0xFFFFFFFFFFFFFFFFFFFFFFFFFFFFFFFFFFFFFFFF AND PUSH4 0x5D3B1D30 PUSH32 0x0 PUSH32 0x0 PUSH1 0x3 PUSH32 0x0 PUSH1 0x4 PUSH1 0x40 MLOAD DUP7 PUSH4 0xFFFFFFFF AND PUSH1 0xE0 SHL DUP2 MSTORE PUSH1 0x4 ADD PUSH2 0xEB1 SWAP6 SWAP5 SWAP4 SWAP3 SWAP2 SWAP1 PUSH2 0x33C0 JUMP JUMPDEST PUSH1 0x20 PUSH1 0x40 MLOAD DUP1 DUP4 SUB DUP2 PUSH1 0x0 DUP8 DUP1 EXTCODESIZE ISZERO DUP1 ISZERO PUSH2 0xECB JUMPI PUSH1 0x0 DUP1 REVERT JUMPDEST POP GAS CALL ISZERO DUP1 ISZERO PUSH2 0xEDF JUMPI RETURNDATASIZE PUSH1 0x0 DUP1 RETURNDATACOPY RETURNDATASIZE PUSH1 0x0 REVERT JUMPDEST POP POP POP POP PUSH1 0x40 MLOAD RETURNDATASIZE PUSH1 0x1F NOT PUSH1 0x1F DUP3 ADD AND DUP3 ADD DUP1 PUSH1 0x40 MSTORE POP DUP2 ADD SWAP1 PUSH2 0xF03 SWAP2 SWAP1 PUSH2 0x3133 JUMP JUMPDEST SWAP1 POP DUP1 PUSH32 0xCD6E45C8998311CAB7E9D4385596CAC867E20A0587194B954FA3A731C93CE78B PUSH1 0x40 MLOAD PUSH1 0x40 MLOAD DUP1 SWAP2 SUB SWAP1 LOG2 POP POP POP POP JUMP JUMPDEST PUSH1 0x0 PUSH1 0x2 PUSH1 0x0 SWAP1 SLOAD SWAP1 PUSH2 0x100 EXP SWAP1 DIV PUSH20 0xFFFFFFFFFFFFFFFFFFFFFFFFFFFFFFFFFFFFFFFF AND SWAP1 POP SWAP1 JUMP JUMPDEST PUSH1 0x60 PUSH32 0x0 DUP2 PUSH1 0x0 DUP2 MLOAD DUP2 LT PUSH2 0xF99 JUMPI PUSH2 0xF98 PUSH2 0x3A97 JUMP JUMPDEST JUMPDEST PUSH1 0x20 MUL PUSH1 0x20 ADD ADD SWAP1 PUSH20 0xFFFFFFFFFFFFFFFFFFFFFFFFFFFFFFFFFFFFFFFF AND SWAP1 DUP2 PUSH20 0xFFFFFFFFFFFFFFFFFFFFFFFFFFFFFFFFFFFFFFFF AND DUP2 MSTORE POP POP PUSH32 0x0 DUP2 PUSH1 0x1 DUP2 MLOAD DUP2 LT PUSH2 0x1008 JUMPI PUSH2 0x1007 PUSH2 0x3A97 JUMP JUMPDEST JUMPDEST PUSH1 0x20 MUL PUSH1 0x20 ADD ADD SWAP1 PUSH20 0xFFFFFFFFFFFFFFFFFFFFFFFFFFFFFFFFFFFFFFFF AND SWAP1 DUP2 PUSH20 0xFFFFFFFFFFFFFFFFFFFFFFFFFFFFFFFFFFFFFFFF AND DUP2 MSTORE POP POP PUSH32 0x0 DUP2 PUSH1 0x2 DUP2 MLOAD DUP2 LT PUSH2 0x1077 JUMPI PUSH2 0x1076 PUSH2 0x3A97 JUMP JUMPDEST JUMPDEST PUSH1 0x20 MUL PUSH1 0x20 ADD ADD SWAP1 PUSH20 0xFFFFFFFFFFFFFFFFFFFFFFFFFFFFFFFFFFFFFFFF AND SWAP1 DUP2 PUSH20 0xFFFFFFFFFFFFFFFFFFFFFFFFFFFFFFFFFFFFFFFF AND DUP2 MSTORE POP POP SWAP1 JUMP JUMPDEST PUSH1 0x0 PUSH1 0x4 PUSH4 0xFFFFFFFF AND SWAP1 POP SWAP1 JUMP JUMPDEST PUSH1 0x0 PUSH1 0x3 PUSH2 0xFFFF AND SWAP1 POP SWAP1 JUMP JUMPDEST PUSH1 0x0 PUSH32 0x0 SWAP1 POP SWAP1 JUMP JUMPDEST PUSH1 0x0 PUSH1 0x60 PUSH1 0x0 PUSH1 0x5 PUSH1 0x0 SWAP1 SLOAD SWAP1 PUSH2 0x100 EXP SWAP1 DIV PUSH1 0xFF AND PUSH1 0x3 DUP2 GT ISZERO PUSH2 0x1120 JUMPI PUSH2 0x111F PUSH2 0x3A68 JUMP JUMPDEST JUMPDEST PUSH1 0x1 PUSH1 0x3 DUP2 GT ISZERO PUSH2 0x1134 JUMPI PUSH2 0x1133 PUSH2 0x3A68 JUMP JUMPDEST JUMPDEST EQ SWAP1 POP PUSH1 0x0 PUSH32 0x0 PUSH1 0x0 SLOAD TIMESTAMP PUSH2 0x1168 SWAP2 SWAP1 PUSH2 0x37A4 JUMP JUMPDEST LT ISZERO SWAP1 POP PUSH1 0x0 DUP1 PUSH1 0x4 DUP1 SLOAD SWAP1 POP GT SWAP1 POP PUSH1 0x0 DUP1 SELFBALANCE GT SWAP1 POP DUP4 DUP1 ISZERO PUSH2 0x1189 JUMPI POP DUP3 JUMPDEST DUP1 ISZERO PUSH2 0x1192 JUMPI POP DUP1 JUMPDEST DUP1 ISZERO PUSH2 0x119B JUMPI POP DUP2 JUMPDEST SWAP6 POP POP POP POP POP SWAP2 POP SWAP2 JUMP JUMPDEST PUSH1 0x0 PUSH1 0x3 PUSH1 0x0 SWAP1 SLOAD SWAP1 PUSH2 0x100 EXP SWAP1 DIV PUSH20 0xFFFFFFFFFFFFFFFFFFFFFFFFFFFFFFFFFFFFFFFF AND SWAP1 POP SWAP1 JUMP JUMPDEST PUSH1 0x0 PUSH32 0x0 SWAP1 POP SWAP1 JUMP JUMPDEST PUSH32 0x0 PUSH20 0xFFFFFFFFFFFFFFFFFFFFFFFFFFFFFFFFFFFFFFFF AND CALLER PUSH20 0xFFFFFFFFFFFFFFFFFFFFFFFFFFFFFFFFFFFFFFFF AND EQ PUSH2 0x127D JUMPI PUSH1 0x40 MLOAD PUSH32 0x5353493A00000000000000000000000000000000000000000000000000000000 DUP2 MSTORE PUSH1 0x4 ADD PUSH1 0x40 MLOAD DUP1 SWAP2 SUB SWAP1 REVERT JUMPDEST PUSH1 0x3 DUP1 DUP2 GT ISZERO PUSH2 0x1290 JUMPI PUSH2 0x128F PUSH2 0x3A68 JUMP JUMPDEST JUMPDEST PUSH1 0x5 PUSH1 0x0 SWAP1 SLOAD SWAP1 PUSH2 0x100 EXP SWAP1 DIV PUSH1 0xFF AND PUSH1 0x3 DUP2 GT ISZERO PUSH2 0x12B2 JUMPI PUSH2 0x12B1 PUSH2 0x3A68 JUMP JUMPDEST JUMPDEST EQ PUSH2 0x12E9 JUMPI PUSH1 0x40 MLOAD PUSH32 0xB106F93000000000000000000000000000000000000000000000000000000000 DUP2 MSTORE PUSH1 0x4 ADD PUSH1 0x40 MLOAD DUP1 SWAP2 SUB SWAP1 REVERT JUMPDEST PUSH1 0x0 PUSH1 0x1 SLOAD SWAP1 POP PUSH1 0x0 PUSH1 0x1 DUP2 SWAP1 SSTORE POP PUSH1 0x0 ADDRESS PUSH20 0xFFFFFFFFFFFFFFFFFFFFFFFFFFFFFFFFFFFFFFFF AND PUSH32 0x0 DUP4 PUSH2 0x133D SWAP2 SWAP1 PUSH2 0x36B6 JUMP JUMPDEST PUSH1 0x40 MLOAD PUSH2 0x1349 SWAP1 PUSH2 0x3315 JUMP JUMPDEST PUSH1 0x0 PUSH1 0x40 MLOAD DUP1 DUP4 SUB DUP2 DUP6 DUP8 GAS CALL SWAP3 POP POP POP RETURNDATASIZE DUP1 PUSH1 0x0 DUP2 EQ PUSH2 0x1386 JUMPI PUSH1 0x40 MLOAD SWAP2 POP PUSH1 0x1F NOT PUSH1 0x3F RETURNDATASIZE ADD AND DUP3 ADD PUSH1 0x40 MSTORE RETURNDATASIZE DUP3 MSTORE RETURNDATASIZE PUSH1 0x0 PUSH1 0x20 DUP5 ADD RETURNDATACOPY PUSH2 0x138B JUMP JUMPDEST PUSH1 0x60 SWAP2 POP JUMPDEST POP POP SWAP1 POP DUP1 PUSH2 0x13C6 JUMPI PUSH1 0x40 MLOAD PUSH32 0xF4190DB300000000000000000000000000000000000000000000000000000000 DUP2 MSTORE PUSH1 0x4 ADD PUSH1 0x40 MLOAD DUP1 SWAP2 SUB SWAP1 REVERT JUMPDEST PUSH1 0x1 PUSH1 0x3 PUSH1 0x14 PUSH2 0x100 EXP DUP2 SLOAD DUP2 PUSH1 0xFF MUL NOT AND SWAP1 DUP4 ISZERO ISZERO MUL OR SWAP1 SSTORE POP POP POP JUMP JUMPDEST PUSH1 0x0 PUSH32 0x0 SWAP1 POP SWAP1 JUMP JUMPDEST PUSH1 0x0 DUP1 SLOAD SWAP1 POP SWAP1 JUMP JUMPDEST PUSH32 0x0 PUSH20 0xFFFFFFFFFFFFFFFFFFFFFFFFFFFFFFFFFFFFFFFF AND CALLER PUSH20 0xFFFFFFFFFFFFFFFFFFFFFFFFFFFFFFFFFFFFFFFF AND EQ PUSH2 0x149B JUMPI PUSH1 0x40 MLOAD PUSH32 0x5353493A00000000000000000000000000000000000000000000000000000000 DUP2 MSTORE PUSH1 0x4 ADD PUSH1 0x40 MLOAD DUP1 SWAP2 SUB SWAP1 REVERT JUMPDEST PUSH1 0x3 DUP1 DUP2 GT ISZERO PUSH2 0x14AE JUMPI PUSH2 0x14AD PUSH2 0x3A68 JUMP JUMPDEST JUMPDEST PUSH1 0x5 PUSH1 0x0 SWAP1 SLOAD SWAP1 PUSH2 0x100 EXP SWAP1 DIV PUSH1 0xFF AND PUSH1 0x3 DUP2 GT ISZERO PUSH2 0x14D0 JUMPI PUSH2 0x14CF PUSH2 0x3A68 JUMP JUMPDEST JUMPDEST EQ PUSH2 0x1507 JUMPI PUSH1 0x40 MLOAD PUSH32 0xB106F93000000000000000000000000000000000000000000000000000000000 DUP2 MSTORE PUSH1 0x4 ADD PUSH1 0x40 MLOAD DUP1 SWAP2 SUB SWAP1 REVERT JUMPDEST PUSH1 0x3 PUSH1 0x14 SWAP1 SLOAD SWAP1 PUSH2 0x100 EXP SWAP1 DIV PUSH1 0xFF AND PUSH2 0x154D JUMPI PUSH1 0x40 MLOAD PUSH32 0xF4190DB300000000000000000000000000000000000000000000000000000000 DUP2 MSTORE PUSH1 0x4 ADD PUSH1 0x40 MLOAD DUP1 SWAP2 SUB SWAP1 REVERT JUMPDEST PUSH1 0x0 PUSH1 0x3 PUSH1 0x0 SWAP1 SLOAD SWAP1 PUSH2 0x100 EXP SWAP1 DIV PUSH20 0xFFFFFFFFFFFFFFFFFFFFFFFFFFFFFFFFFFFFFFFF AND SWAP1 POP PUSH1 0x0 PUSH1 0x3 PUSH1 0x0 PUSH2 0x100 EXP DUP2 SLOAD DUP2 PUSH20 0xFFFFFFFFFFFFFFFFFFFFFFFFFFFFFFFFFFFFFFFF MUL NOT AND SWAP1 DUP4 PUSH20 0xFFFFFFFFFFFFFFFFFFFFFFFFFFFFFFFFFFFFFFFF AND MUL OR SWAP1 SSTORE POP PUSH1 0x0 PUSH1 0x3 PUSH1 0x14 PUSH2 0x100 EXP DUP2 SLOAD DUP2 PUSH1 0xFF MUL NOT AND SWAP1 DUP4 ISZERO ISZERO MUL OR SWAP1 SSTORE POP PUSH1 0x0 DUP2 PUSH20 0xFFFFFFFFFFFFFFFFFFFFFFFFFFFFFFFFFFFFFFFF AND SELFBALANCE PUSH1 0x40 MLOAD PUSH2 0x15F7 SWAP1 PUSH2 0x3315 JUMP JUMPDEST PUSH1 0x0 PUSH1 0x40 MLOAD DUP1 DUP4 SUB DUP2 DUP6 DUP8 GAS CALL SWAP3 POP POP POP RETURNDATASIZE DUP1 PUSH1 0x0 DUP2 EQ PUSH2 0x1634 JUMPI PUSH1 0x40 MLOAD SWAP2 POP PUSH1 0x1F NOT PUSH1 0x3F RETURNDATASIZE ADD AND DUP3 ADD PUSH1 0x40 MSTORE RETURNDATASIZE DUP3 MSTORE RETURNDATASIZE PUSH1 0x0 PUSH1 0x20 DUP5 ADD RETURNDATACOPY PUSH2 0x1639 JUMP JUMPDEST PUSH1 0x60 SWAP2 POP JUMPDEST POP POP SWAP1 POP DUP1 PUSH2 0x1674 JUMPI PUSH1 0x40 MLOAD PUSH32 0xBFABDD9900000000000000000000000000000000000000000000000000000000 DUP2 MSTORE PUSH1 0x4 ADD PUSH1 0x40 MLOAD DUP1 SWAP2 SUB SWAP1 REVERT JUMPDEST POP POP JUMP JUMPDEST PUSH1 0x0 PUSH1 0x4 DUP3 DUP2 SLOAD DUP2 LT PUSH2 0x168E JUMPI PUSH2 0x168D PUSH2 0x3A97 JUMP JUMPDEST JUMPDEST SWAP1 PUSH1 0x0 MSTORE PUSH1 0x20 PUSH1 0x0 KECCAK256 ADD PUSH1 0x0 SWAP1 SLOAD SWAP1 PUSH2 0x100 EXP SWAP1 DIV PUSH20 0xFFFFFFFFFFFFFFFFFFFFFFFFFFFFFFFFFFFFFFFF AND SWAP1 POP SWAP2 SWAP1 POP JUMP JUMPDEST PUSH1 0x60 PUSH1 0x4 DUP1 SLOAD DUP1 PUSH1 0x20 MUL PUSH1 0x20 ADD PUSH1 0x40 MLOAD SWAP1 DUP2 ADD PUSH1 0x40 MSTORE DUP1 SWAP3 SWAP2 SWAP1 DUP2 DUP2 MSTORE PUSH1 0x20 ADD DUP3 DUP1 SLOAD DUP1 ISZERO PUSH2 0x1744 JUMPI PUSH1 0x20 MUL DUP3 ADD SWAP2 SWAP1 PUSH1 0x0 MSTORE PUSH1 0x20 PUSH1 0x0 KECCAK256 SWAP1 JUMPDEST DUP2 PUSH1 0x0 SWAP1 SLOAD SWAP1 PUSH2 0x100 EXP SWAP1 DIV PUSH20 0xFFFFFFFFFFFFFFFFFFFFFFFFFFFFFFFFFFFFFFFF AND PUSH20 0xFFFFFFFFFFFFFFFFFFFFFFFFFFFFFFFFFFFFFFFF AND DUP2 MSTORE PUSH1 0x20 ADD SWAP1 PUSH1 0x1 ADD SWAP1 DUP1 DUP4 GT PUSH2 0x16FA JUMPI JUMPDEST POP POP POP POP POP SWAP1 POP SWAP1 JUMP JUMPDEST PUSH1 0x0 PUSH1 0x1 SLOAD SWAP1 POP SWAP1 JUMP JUMPDEST PUSH1 0x0 PUSH1 0x4 DUP1 SLOAD SWAP1 POP SWAP1 POP SWAP1 JUMP JUMPDEST PUSH1 0x0 PUSH1 0x4 DUP1 SLOAD SWAP1 POP DUP3 PUSH1 0x0 DUP2 MLOAD DUP2 LT PUSH2 0x1781 JUMPI PUSH2 0x1780 PUSH2 0x3A97 JUMP JUMPDEST JUMPDEST PUSH1 0x20 MUL PUSH1 0x20 ADD ADD MLOAD PUSH2 0x1793 SWAP2 SWAP1 PUSH2 0x39D9 JUMP JUMPDEST SWAP1 POP PUSH1 0x0 PUSH1 0x4 DUP3 DUP2 SLOAD DUP2 LT PUSH2 0x17AB JUMPI PUSH2 0x17AA PUSH2 0x3A97 JUMP JUMPDEST JUMPDEST SWAP1 PUSH1 0x0 MSTORE PUSH1 0x20 PUSH1 0x0 KECCAK256 ADD PUSH1 0x0 SWAP1 SLOAD SWAP1 PUSH2 0x100 EXP SWAP1 DIV PUSH20 0xFFFFFFFFFFFFFFFFFFFFFFFFFFFFFFFFFFFFFFFF AND SWAP1 POP DUP1 PUSH1 0x2 PUSH1 0x0 PUSH2 0x100 EXP DUP2 SLOAD DUP2 PUSH20 0xFFFFFFFFFFFFFFFFFFFFFFFFFFFFFFFFFFFFFFFF MUL NOT AND SWAP1 DUP4 PUSH20 0xFFFFFFFFFFFFFFFFFFFFFFFFFFFFFFFFFFFFFFFF AND MUL OR SWAP1 SSTORE POP PUSH1 0x0 PUSH8 0xFFFFFFFFFFFFFFFF DUP2 GT ISZERO PUSH2 0x1834 JUMPI PUSH2 0x1833 PUSH2 0x3AC6 JUMP JUMPDEST JUMPDEST PUSH1 0x40 MLOAD SWAP1 DUP1 DUP3 MSTORE DUP1 PUSH1 0x20 MUL PUSH1 0x20 ADD DUP3 ADD PUSH1 0x40 MSTORE DUP1 ISZERO PUSH2 0x1862 JUMPI DUP2 PUSH1 0x20 ADD PUSH1 0x20 DUP3 MUL DUP1 CALLDATASIZE DUP4 CALLDATACOPY DUP1 DUP3 ADD SWAP2 POP POP SWAP1 POP JUMPDEST POP PUSH1 0x4 SWAP1 DUP1 MLOAD SWAP1 PUSH1 0x20 ADD SWAP1 PUSH2 0x1878 SWAP3 SWAP2 SWAP1 PUSH2 0x2E3B JUMP JUMPDEST POP PUSH1 0x3 PUSH1 0x5 PUSH1 0x0 PUSH2 0x100 EXP DUP2 SLOAD DUP2 PUSH1 0xFF MUL NOT AND SWAP1 DUP4 PUSH1 0x3 DUP2 GT ISZERO PUSH2 0x189F JUMPI PUSH2 0x189E PUSH2 0x3A68 JUMP JUMPDEST JUMPDEST MUL OR SWAP1 SSTORE POP PUSH1 0x0 DUP2 PUSH20 0xFFFFFFFFFFFFFFFFFFFFFFFFFFFFFFFFFFFFFFFF AND SELFBALANCE PUSH1 0x40 MLOAD PUSH2 0x18CA SWAP1 PUSH2 0x3315 JUMP JUMPDEST PUSH1 0x0 PUSH1 0x40 MLOAD DUP1 DUP4 SUB DUP2 DUP6 DUP8 GAS CALL SWAP3 POP POP POP RETURNDATASIZE DUP1 PUSH1 0x0 DUP2 EQ PUSH2 0x1907 JUMPI PUSH1 0x40 MLOAD SWAP2 POP PUSH1 0x1F NOT PUSH1 0x3F RETURNDATASIZE ADD AND DUP3 ADD PUSH1 0x40 MSTORE RETURNDATASIZE DUP3 MSTORE RETURNDATASIZE PUSH1 0x0 PUSH1 0x20 DUP5 ADD RETURNDATACOPY PUSH2 0x190C JUMP JUMPDEST PUSH1 0x60 SWAP2 POP JUMPDEST POP POP SWAP1 POP DUP1 PUSH2 0x1947 JUMPI PUSH1 0x40 MLOAD PUSH32 0x829A2EC900000000000000000000000000000000000000000000000000000000 DUP2 MSTORE PUSH1 0x4 ADD PUSH1 0x40 MLOAD DUP1 SWAP2 SUB SWAP1 REVERT JUMPDEST PUSH1 0x0 PUSH2 0x1951 PUSH2 0x1EB1 JUMP JUMPDEST SWAP1 POP PUSH1 0x0 PUSH1 0x6 PUSH1 0x0 PUSH32 0x0 PUSH20 0xFFFFFFFFFFFFFFFFFFFFFFFFFFFFFFFFFFFFFFFF AND PUSH20 0xFFFFFFFFFFFFFFFFFFFFFFFFFFFFFFFFFFFFFFFF AND DUP2 MSTORE PUSH1 0x20 ADD SWAP1 DUP2 MSTORE PUSH1 0x20 ADD PUSH1 0x0 KECCAK256 SLOAD SWAP1 POP PUSH1 0x0 PUSH1 0x6 PUSH1 0x0 PUSH32 0x0 PUSH20 0xFFFFFFFFFFFFFFFFFFFFFFFFFFFFFFFFFFFFFFFF AND PUSH20 0xFFFFFFFFFFFFFFFFFFFFFFFFFFFFFFFFFFFFFFFF AND DUP2 MSTORE PUSH1 0x20 ADD SWAP1 DUP2 MSTORE PUSH1 0x20 ADD PUSH1 0x0 KECCAK256 DUP2 SWAP1 SSTORE POP PUSH1 0x0 PUSH1 0x6 PUSH1 0x0 PUSH32 0x0 PUSH20 0xFFFFFFFFFFFFFFFFFFFFFFFFFFFFFFFFFFFFFFFF AND PUSH20 0xFFFFFFFFFFFFFFFFFFFFFFFFFFFFFFFFFFFFFFFF AND DUP2 MSTORE PUSH1 0x20 ADD SWAP1 DUP2 MSTORE PUSH1 0x20 ADD PUSH1 0x0 KECCAK256 SLOAD SWAP1 POP PUSH1 0x0 PUSH1 0x6 PUSH1 0x0 PUSH32 0x0 PUSH20 0xFFFFFFFFFFFFFFFFFFFFFFFFFFFFFFFFFFFFFFFF AND PUSH20 0xFFFFFFFFFFFFFFFFFFFFFFFFFFFFFFFFFFFFFFFF AND DUP2 MSTORE PUSH1 0x20 ADD SWAP1 DUP2 MSTORE PUSH1 0x20 ADD PUSH1 0x0 KECCAK256 DUP2 SWAP1 SSTORE POP PUSH1 0x0 PUSH1 0x6 PUSH1 0x0 PUSH32 0x0 PUSH20 0xFFFFFFFFFFFFFFFFFFFFFFFFFFFFFFFFFFFFFFFF AND PUSH20 0xFFFFFFFFFFFFFFFFFFFFFFFFFFFFFFFFFFFFFFFF AND DUP2 MSTORE PUSH1 0x20 ADD SWAP1 DUP2 MSTORE PUSH1 0x20 ADD PUSH1 0x0 KECCAK256 SLOAD SWAP1 POP PUSH1 0x0 PUSH1 0x6 PUSH1 0x0 PUSH32 0x0 PUSH20 0xFFFFFFFFFFFFFFFFFFFFFFFFFFFFFFFFFFFFFFFF AND PUSH20 0xFFFFFFFFFFFFFFFFFFFFFFFFFFFFFFFFFFFFFFFF AND DUP2 MSTORE PUSH1 0x20 ADD SWAP1 DUP2 MSTORE PUSH1 0x20 ADD PUSH1 0x0 KECCAK256 DUP2 SWAP1 SSTORE POP DUP4 ISZERO PUSH2 0x1BC5 JUMPI PUSH2 0x1BC0 DUP9 DUP5 DUP5 DUP5 PUSH2 0x2116 JUMP JUMPDEST PUSH2 0x1E63 JUMP JUMPDEST DUP2 DUP4 GT DUP1 ISZERO PUSH2 0x1BD3 JUMPI POP DUP1 DUP4 GT JUMPDEST ISZERO PUSH2 0x1CA4 JUMPI DUP3 PUSH1 0x1 DUP2 SWAP1 SSTORE POP PUSH32 0x0 PUSH1 0x3 PUSH1 0x0 PUSH2 0x100 EXP DUP2 SLOAD DUP2 PUSH20 0xFFFFFFFFFFFFFFFFFFFFFFFFFFFFFFFFFFFFFFFF MUL NOT AND SWAP1 DUP4 PUSH20 0xFFFFFFFFFFFFFFFFFFFFFFFFFFFFFFFFFFFFFFFF AND MUL OR SWAP1 SSTORE POP PUSH32 0x0 PUSH20 0xFFFFFFFFFFFFFFFFFFFFFFFFFFFFFFFFFFFFFFFF AND PUSH32 0x3C87360DCE5C6F26147DAF6A9E168E80A4C7199E9AA7CBD7A874094804C361B4 PUSH1 0x40 MLOAD PUSH1 0x40 MLOAD DUP1 SWAP2 SUB SWAP1 LOG2 JUMPDEST DUP3 DUP3 GT DUP1 ISZERO PUSH2 0x1CB2 JUMPI POP DUP1 DUP3 GT JUMPDEST ISZERO PUSH2 0x1D83 JUMPI DUP2 PUSH1 0x1 DUP2 SWAP1 SSTORE POP PUSH32 0x0 PUSH1 0x3 PUSH1 0x0 PUSH2 0x100 EXP DUP2 SLOAD DUP2 PUSH20 0xFFFFFFFFFFFFFFFFFFFFFFFFFFFFFFFFFFFFFFFF MUL NOT AND SWAP1 DUP4 PUSH20 0xFFFFFFFFFFFFFFFFFFFFFFFFFFFFFFFFFFFFFFFF AND MUL OR SWAP1 SSTORE POP PUSH32 0x0 PUSH20 0xFFFFFFFFFFFFFFFFFFFFFFFFFFFFFFFFFFFFFFFF AND PUSH32 0x3C87360DCE5C6F26147DAF6A9E168E80A4C7199E9AA7CBD7A874094804C361B4 PUSH1 0x40 MLOAD PUSH1 0x40 MLOAD DUP1 SWAP2 SUB SWAP1 LOG2 JUMPDEST DUP3 DUP2 GT DUP1 ISZERO PUSH2 0x1D91 JUMPI POP DUP2 DUP2 GT JUMPDEST ISZERO PUSH2 0x1E62 JUMPI DUP1 PUSH1 0x1 DUP2 SWAP1 SSTORE POP PUSH32 0x0 PUSH1 0x3 PUSH1 0x0 PUSH2 0x100 EXP DUP2 SLOAD DUP2 PUSH20 0xFFFFFFFFFFFFFFFFFFFFFFFFFFFFFFFFFFFFFFFF MUL NOT AND SWAP1 DUP4 PUSH20 0xFFFFFFFFFFFFFFFFFFFFFFFFFFFFFFFFFFFFFFFF AND MUL OR SWAP1 SSTORE POP PUSH32 0x0 PUSH20 0xFFFFFFFFFFFFFFFFFFFFFFFFFFFFFFFFFFFFFFFF AND PUSH32 0x3C87360DCE5C6F26147DAF6A9E168E80A4C7199E9AA7CBD7A874094804C361B4 PUSH1 0x40 MLOAD PUSH1 0x40 MLOAD DUP1 SWAP2 SUB SWAP1 LOG2 JUMPDEST JUMPDEST DUP6 PUSH20 0xFFFFFFFFFFFFFFFFFFFFFFFFFFFFFFFFFFFFFFFF AND PUSH32 0x5B690EC4A06FE979403046EAEEA5B3CE38524683C3001F662C8B5A829632F7DF PUSH1 0x40 MLOAD PUSH1 0x40 MLOAD DUP1 SWAP2 SUB SWAP1 LOG2 POP POP POP POP POP POP POP POP POP JUMP JUMPDEST PUSH1 0x0 PUSH1 0x6 PUSH1 0x0 PUSH32 0x0 PUSH20 0xFFFFFFFFFFFFFFFFFFFFFFFFFFFFFFFFFFFFFFFF AND PUSH20 0xFFFFFFFFFFFFFFFFFFFFFFFFFFFFFFFFFFFFFFFF AND DUP2 MSTORE PUSH1 0x20 ADD SWAP1 DUP2 MSTORE PUSH1 0x20 ADD PUSH1 0x0 KECCAK256 SLOAD PUSH1 0x6 PUSH1 0x0 PUSH32 0x0 PUSH20 0xFFFFFFFFFFFFFFFFFFFFFFFFFFFFFFFFFFFFFFFF AND PUSH20 0xFFFFFFFFFFFFFFFFFFFFFFFFFFFFFFFFFFFFFFFF AND DUP2 MSTORE PUSH1 0x20 ADD SWAP1 DUP2 MSTORE PUSH1 0x20 ADD PUSH1 0x0 KECCAK256 SLOAD EQ DUP1 PUSH2 0x203C JUMPI POP PUSH1 0x6 PUSH1 0x0 PUSH32 0x0 PUSH20 0xFFFFFFFFFFFFFFFFFFFFFFFFFFFFFFFFFFFFFFFF AND PUSH20 0xFFFFFFFFFFFFFFFFFFFFFFFFFFFFFFFFFFFFFFFF AND DUP2 MSTORE PUSH1 0x20 ADD SWAP1 DUP2 MSTORE PUSH1 0x20 ADD PUSH1 0x0 KECCAK256 SLOAD PUSH1 0x6 PUSH1 0x0 PUSH32 0x0 PUSH20 0xFFFFFFFFFFFFFFFFFFFFFFFFFFFFFFFFFFFFFFFF AND PUSH20 0xFFFFFFFFFFFFFFFFFFFFFFFFFFFFFFFFFFFFFFFF AND DUP2 MSTORE PUSH1 0x20 ADD SWAP1 DUP2 MSTORE PUSH1 0x20 ADD PUSH1 0x0 KECCAK256 SLOAD EQ JUMPDEST DUP1 PUSH2 0x2104 JUMPI POP PUSH1 0x6 PUSH1 0x0 PUSH32 0x0 PUSH20 0xFFFFFFFFFFFFFFFFFFFFFFFFFFFFFFFFFFFFFFFF AND PUSH20 0xFFFFFFFFFFFFFFFFFFFFFFFFFFFFFFFFFFFFFFFF AND DUP2 MSTORE PUSH1 0x20 ADD SWAP1 DUP2 MSTORE PUSH1 0x20 ADD PUSH1 0x0 KECCAK256 SLOAD PUSH1 0x6 PUSH1 0x0 PUSH32 0x0 PUSH20 0xFFFFFFFFFFFFFFFFFFFFFFFFFFFFFFFFFFFFFFFF AND PUSH20 0xFFFFFFFFFFFFFFFFFFFFFFFFFFFFFFFFFFFFFFFF AND DUP2 MSTORE PUSH1 0x20 ADD SWAP1 DUP2 MSTORE PUSH1 0x20 ADD PUSH1 0x0 KECCAK256 SLOAD EQ JUMPDEST ISZERO PUSH2 0x2112 JUMPI PUSH1 0x1 SWAP1 POP PUSH2 0x2113 JUMP JUMPDEST JUMPDEST SWAP1 JUMP JUMPDEST PUSH1 0x0 PUSH1 0x3 PUSH8 0xFFFFFFFFFFFFFFFF DUP2 GT ISZERO PUSH2 0x2133 JUMPI PUSH2 0x2132 PUSH2 0x3AC6 JUMP JUMPDEST JUMPDEST PUSH1 0x40 MLOAD SWAP1 DUP1 DUP3 MSTORE DUP1 PUSH1 0x20 MUL PUSH1 0x20 ADD DUP3 ADD PUSH1 0x40 MSTORE DUP1 ISZERO PUSH2 0x2161 JUMPI DUP2 PUSH1 0x20 ADD PUSH1 0x20 DUP3 MUL DUP1 CALLDATASIZE DUP4 CALLDATACOPY DUP1 DUP3 ADD SWAP2 POP POP SWAP1 POP JUMPDEST POP SWAP1 POP DUP4 DUP2 PUSH1 0x0 DUP2 MLOAD DUP2 LT PUSH2 0x2179 JUMPI PUSH2 0x2178 PUSH2 0x3A97 JUMP JUMPDEST JUMPDEST PUSH1 0x20 MUL PUSH1 0x20 ADD ADD DUP2 DUP2 MSTORE POP POP DUP3 DUP2 PUSH1 0x1 DUP2 MLOAD DUP2 LT PUSH2 0x219A JUMPI PUSH2 0x2199 PUSH2 0x3A97 JUMP JUMPDEST JUMPDEST PUSH1 0x20 MUL PUSH1 0x20 ADD ADD DUP2 DUP2 MSTORE POP POP DUP2 DUP2 PUSH1 0x2 DUP2 MLOAD DUP2 LT PUSH2 0x21BB JUMPI PUSH2 0x21BA PUSH2 0x3A97 JUMP JUMPDEST JUMPDEST PUSH1 0x20 MUL PUSH1 0x20 ADD ADD DUP2 DUP2 MSTORE POP POP PUSH1 0x0 PUSH2 0x21D2 DUP3 PUSH2 0x2C7C JUMP JUMPDEST SWAP1 POP DUP1 PUSH1 0x2 DUP2 MLOAD DUP2 LT PUSH2 0x21E8 JUMPI PUSH2 0x21E7 PUSH2 0x3A97 JUMP JUMPDEST JUMPDEST PUSH1 0x20 MUL PUSH1 0x20 ADD ADD MLOAD PUSH1 0x1 DUP2 SWAP1 SSTORE POP DUP4 DUP6 EQ DUP1 ISZERO PUSH2 0x2204 JUMPI POP DUP3 DUP6 EQ JUMPDEST ISZERO PUSH2 0x25DE JUMPI DUP6 PUSH1 0x1 DUP2 MLOAD DUP2 LT PUSH2 0x221D JUMPI PUSH2 0x221C PUSH2 0x3A97 JUMP JUMPDEST JUMPDEST PUSH1 0x20 MUL PUSH1 0x20 ADD ADD MLOAD DUP6 PUSH2 0x2230 SWAP2 SWAP1 PUSH2 0x35F6 JUMP JUMPDEST SWAP5 POP DUP6 PUSH1 0x2 DUP2 MLOAD DUP2 LT PUSH2 0x2246 JUMPI PUSH2 0x2245 PUSH2 0x3A97 JUMP JUMPDEST JUMPDEST PUSH1 0x20 MUL PUSH1 0x20 ADD ADD MLOAD DUP5 PUSH2 0x2259 SWAP2 SWAP1 PUSH2 0x35F6 JUMP JUMPDEST SWAP4 POP DUP6 PUSH1 0x3 DUP2 MLOAD DUP2 LT PUSH2 0x226F JUMPI PUSH2 0x226E PUSH2 0x3A97 JUMP JUMPDEST JUMPDEST PUSH1 0x20 MUL PUSH1 0x20 ADD ADD MLOAD DUP4 PUSH2 0x2282 SWAP2 SWAP1 PUSH2 0x35F6 JUMP JUMPDEST SWAP3 POP PUSH1 0x0 PUSH1 0x3 PUSH8 0xFFFFFFFFFFFFFFFF DUP2 GT ISZERO PUSH2 0x22A1 JUMPI PUSH2 0x22A0 PUSH2 0x3AC6 JUMP JUMPDEST JUMPDEST PUSH1 0x40 MLOAD SWAP1 DUP1 DUP3 MSTORE DUP1 PUSH1 0x20 MUL PUSH1 0x20 ADD DUP3 ADD PUSH1 0x40 MSTORE DUP1 ISZERO PUSH2 0x22CF JUMPI DUP2 PUSH1 0x20 ADD PUSH1 0x20 DUP3 MUL DUP1 CALLDATASIZE DUP4 CALLDATACOPY DUP1 DUP3 ADD SWAP2 POP POP SWAP1 POP JUMPDEST POP SWAP1 POP DUP6 DUP2 PUSH1 0x0 DUP2 MLOAD DUP2 LT PUSH2 0x22E7 JUMPI PUSH2 0x22E6 PUSH2 0x3A97 JUMP JUMPDEST JUMPDEST PUSH1 0x20 MUL PUSH1 0x20 ADD ADD DUP2 DUP2 MSTORE POP POP DUP5 DUP2 PUSH1 0x1 DUP2 MLOAD DUP2 LT PUSH2 0x2308 JUMPI PUSH2 0x2307 PUSH2 0x3A97 JUMP JUMPDEST JUMPDEST PUSH1 0x20 MUL PUSH1 0x20 ADD ADD DUP2 DUP2 MSTORE POP POP DUP4 DUP2 PUSH1 0x2 DUP2 MLOAD DUP2 LT PUSH2 0x2329 JUMPI PUSH2 0x2328 PUSH2 0x3A97 JUMP JUMPDEST JUMPDEST PUSH1 0x20 MUL PUSH1 0x20 ADD ADD DUP2 DUP2 MSTORE POP POP PUSH1 0x0 PUSH2 0x2340 DUP3 PUSH2 0x2C7C JUMP JUMPDEST SWAP1 POP DUP7 DUP2 PUSH1 0x2 DUP2 MLOAD DUP2 LT PUSH2 0x2357 JUMPI PUSH2 0x2356 PUSH2 0x3A97 JUMP JUMPDEST JUMPDEST PUSH1 0x20 MUL PUSH1 0x20 ADD ADD MLOAD EQ ISZERO PUSH2 0x242A JUMPI PUSH32 0x0 PUSH1 0x3 PUSH1 0x0 PUSH2 0x100 EXP DUP2 SLOAD DUP2 PUSH20 0xFFFFFFFFFFFFFFFFFFFFFFFFFFFFFFFFFFFFFFFF MUL NOT AND SWAP1 DUP4 PUSH20 0xFFFFFFFFFFFFFFFFFFFFFFFFFFFFFFFFFFFFFFFF AND MUL OR SWAP1 SSTORE POP PUSH32 0x0 PUSH20 0xFFFFFFFFFFFFFFFFFFFFFFFFFFFFFFFFFFFFFFFF AND PUSH32 0x3C87360DCE5C6F26147DAF6A9E168E80A4C7199E9AA7CBD7A874094804C361B4 PUSH1 0x40 MLOAD PUSH1 0x40 MLOAD DUP1 SWAP2 SUB SWAP1 LOG2 JUMPDEST DUP6 DUP2 PUSH1 0x2 DUP2 MLOAD DUP2 LT PUSH2 0x243F JUMPI PUSH2 0x243E PUSH2 0x3A97 JUMP JUMPDEST JUMPDEST PUSH1 0x20 MUL PUSH1 0x20 ADD ADD MLOAD EQ ISZERO PUSH2 0x2516 JUMPI PUSH32 0x0 PUSH1 0x3 PUSH1 0x0 PUSH2 0x100 EXP DUP2 SLOAD DUP2 PUSH20 0xFFFFFFFFFFFFFFFFFFFFFFFFFFFFFFFFFFFFFFFF MUL NOT AND SWAP1 DUP4 PUSH20 0xFFFFFFFFFFFFFFFFFFFFFFFFFFFFFFFFFFFFFFFF AND MUL OR SWAP1 SSTORE POP PUSH32 0x0 PUSH20 0xFFFFFFFFFFFFFFFFFFFFFFFFFFFFFFFFFFFFFFFF AND PUSH32 0x3C87360DCE5C6F26147DAF6A9E168E80A4C7199E9AA7CBD7A874094804C361B4 PUSH1 0x40 MLOAD PUSH1 0x40 MLOAD DUP1 SWAP2 SUB SWAP1 LOG2 PUSH2 0x25DB JUMP JUMPDEST PUSH32 0x0 PUSH1 0x3 PUSH1 0x0 PUSH2 0x100 EXP DUP2 SLOAD DUP2 PUSH20 0xFFFFFFFFFFFFFFFFFFFFFFFFFFFFFFFFFFFFFFFF MUL NOT AND SWAP1 DUP4 PUSH20 0xFFFFFFFFFFFFFFFFFFFFFFFFFFFFFFFFFFFFFFFF AND MUL OR SWAP1 SSTORE POP PUSH32 0x0 PUSH20 0xFFFFFFFFFFFFFFFFFFFFFFFFFFFFFFFFFFFFFFFF AND PUSH32 0x3C87360DCE5C6F26147DAF6A9E168E80A4C7199E9AA7CBD7A874094804C361B4 PUSH1 0x40 MLOAD PUSH1 0x40 MLOAD DUP1 SWAP2 SUB SWAP1 LOG2 JUMPDEST POP POP JUMPDEST DUP5 DUP2 PUSH1 0x2 DUP2 MLOAD DUP2 LT PUSH2 0x25F3 JUMPI PUSH2 0x25F2 PUSH2 0x3A97 JUMP JUMPDEST JUMPDEST PUSH1 0x20 MUL PUSH1 0x20 ADD ADD MLOAD EQ DUP1 ISZERO PUSH2 0x2622 JUMPI POP DUP4 DUP2 PUSH1 0x2 DUP2 MLOAD DUP2 LT PUSH2 0x2618 JUMPI PUSH2 0x2617 PUSH2 0x3A97 JUMP JUMPDEST JUMPDEST PUSH1 0x20 MUL PUSH1 0x20 ADD ADD MLOAD EQ JUMPDEST ISZERO PUSH2 0x2810 JUMPI DUP6 PUSH1 0x1 DUP2 MLOAD DUP2 LT PUSH2 0x263B JUMPI PUSH2 0x263A PUSH2 0x3A97 JUMP JUMPDEST JUMPDEST PUSH1 0x20 MUL PUSH1 0x20 ADD ADD MLOAD DUP6 PUSH2 0x264E SWAP2 SWAP1 PUSH2 0x35F6 JUMP JUMPDEST SWAP5 POP DUP6 PUSH1 0x2 DUP2 MLOAD DUP2 LT PUSH2 0x2664 JUMPI PUSH2 0x2663 PUSH2 0x3A97 JUMP JUMPDEST JUMPDEST PUSH1 0x20 MUL PUSH1 0x20 ADD ADD MLOAD DUP5 PUSH2 0x2677 SWAP2 SWAP1 PUSH2 0x35F6 JUMP JUMPDEST SWAP4 POP DUP4 DUP6 GT ISZERO PUSH2 0x274A JUMPI PUSH32 0x0 PUSH1 0x3 PUSH1 0x0 PUSH2 0x100 EXP DUP2 SLOAD DUP2 PUSH20 0xFFFFFFFFFFFFFFFFFFFFFFFFFFFFFFFFFFFFFFFF MUL NOT AND SWAP1 DUP4 PUSH20 0xFFFFFFFFFFFFFFFFFFFFFFFFFFFFFFFFFFFFFFFF AND MUL OR SWAP1 SSTORE POP PUSH32 0x0 PUSH20 0xFFFFFFFFFFFFFFFFFFFFFFFFFFFFFFFFFFFFFFFF AND PUSH32 0x3C87360DCE5C6F26147DAF6A9E168E80A4C7199E9AA7CBD7A874094804C361B4 PUSH1 0x40 MLOAD PUSH1 0x40 MLOAD DUP1 SWAP2 SUB SWAP1 LOG2 PUSH2 0x280F JUMP JUMPDEST PUSH32 0x0 PUSH1 0x3 PUSH1 0x0 PUSH2 0x100 EXP DUP2 SLOAD DUP2 PUSH20 0xFFFFFFFFFFFFFFFFFFFFFFFFFFFFFFFFFFFFFFFF MUL NOT AND SWAP1 DUP4 PUSH20 0xFFFFFFFFFFFFFFFFFFFFFFFFFFFFFFFFFFFFFFFF AND MUL OR SWAP1 SSTORE POP PUSH32 0x0 PUSH20 0xFFFFFFFFFFFFFFFFFFFFFFFFFFFFFFFFFFFFFFFF AND PUSH32 0x3C87360DCE5C6F26147DAF6A9E168E80A4C7199E9AA7CBD7A874094804C361B4 PUSH1 0x40 MLOAD PUSH1 0x40 MLOAD DUP1 SWAP2 SUB SWAP1 LOG2 JUMPDEST JUMPDEST DUP5 DUP2 PUSH1 0x2 DUP2 MLOAD DUP2 LT PUSH2 0x2825 JUMPI PUSH2 0x2824 PUSH2 0x3A97 JUMP JUMPDEST JUMPDEST PUSH1 0x20 MUL PUSH1 0x20 ADD ADD MLOAD EQ DUP1 ISZERO PUSH2 0x2854 JUMPI POP DUP3 DUP2 PUSH1 0x2 DUP2 MLOAD DUP2 LT PUSH2 0x284A JUMPI PUSH2 0x2849 PUSH2 0x3A97 JUMP JUMPDEST JUMPDEST PUSH1 0x20 MUL PUSH1 0x20 ADD ADD MLOAD EQ JUMPDEST ISZERO PUSH2 0x2A42 JUMPI DUP6 PUSH1 0x1 DUP2 MLOAD DUP2 LT PUSH2 0x286D JUMPI PUSH2 0x286C PUSH2 0x3A97 JUMP JUMPDEST JUMPDEST PUSH1 0x20 MUL PUSH1 0x20 ADD ADD MLOAD DUP6 PUSH2 0x2880 SWAP2 SWAP1 PUSH2 0x35F6 JUMP JUMPDEST SWAP5 POP DUP6 PUSH1 0x2 DUP2 MLOAD DUP2 LT PUSH2 0x2896 JUMPI PUSH2 0x2895 PUSH2 0x3A97 JUMP JUMPDEST JUMPDEST PUSH1 0x20 MUL PUSH1 0x20 ADD ADD MLOAD DUP4 PUSH2 0x28A9 SWAP2 SWAP1 PUSH2 0x35F6 JUMP JUMPDEST SWAP3 POP DUP3 DUP6 GT ISZERO PUSH2 0x297C JUMPI PUSH32 0x0 PUSH1 0x3 PUSH1 0x0 PUSH2 0x100 EXP DUP2 SLOAD DUP2 PUSH20 0xFFFFFFFFFFFFFFFFFFFFFFFFFFFFFFFFFFFFFFFF MUL NOT AND SWAP1 DUP4 PUSH20 0xFFFFFFFFFFFFFFFFFFFFFFFFFFFFFFFFFFFFFFFF AND MUL OR SWAP1 SSTORE POP PUSH32 0x0 PUSH20 0xFFFFFFFFFFFFFFFFFFFFFFFFFFFFFFFFFFFFFFFF AND PUSH32 0x3C87360DCE5C6F26147DAF6A9E168E80A4C7199E9AA7CBD7A874094804C361B4 PUSH1 0x40 MLOAD PUSH1 0x40 MLOAD DUP1 SWAP2 SUB SWAP1 LOG2 PUSH2 0x2A41 JUMP JUMPDEST PUSH32 0x0 PUSH1 0x3 PUSH1 0x0 PUSH2 0x100 EXP DUP2 SLOAD DUP2 PUSH20 0xFFFFFFFFFFFFFFFFFFFFFFFFFFFFFFFFFFFFFFFF MUL NOT AND SWAP1 DUP4 PUSH20 0xFFFFFFFFFFFFFFFFFFFFFFFFFFFFFFFFFFFFFFFF AND MUL OR SWAP1 SSTORE POP PUSH32 0x0 PUSH20 0xFFFFFFFFFFFFFFFFFFFFFFFFFFFFFFFFFFFFFFFF AND PUSH32 0x3C87360DCE5C6F26147DAF6A9E168E80A4C7199E9AA7CBD7A874094804C361B4 PUSH1 0x40 MLOAD PUSH1 0x40 MLOAD DUP1 SWAP2 SUB SWAP1 LOG2 JUMPDEST JUMPDEST DUP4 DUP2 PUSH1 0x2 DUP2 MLOAD DUP2 LT PUSH2 0x2A57 JUMPI PUSH2 0x2A56 PUSH2 0x3A97 JUMP JUMPDEST JUMPDEST PUSH1 0x20 MUL PUSH1 0x20 ADD ADD MLOAD EQ DUP1 ISZERO PUSH2 0x2A86 JUMPI POP DUP3 DUP2 PUSH1 0x2 DUP2 MLOAD DUP2 LT PUSH2 0x2A7C JUMPI PUSH2 0x2A7B PUSH2 0x3A97 JUMP JUMPDEST JUMPDEST PUSH1 0x20 MUL PUSH1 0x20 ADD ADD MLOAD EQ JUMPDEST ISZERO PUSH2 0x2C74 JUMPI DUP6 PUSH1 0x1 DUP2 MLOAD DUP2 LT PUSH2 0x2A9F JUMPI PUSH2 0x2A9E PUSH2 0x3A97 JUMP JUMPDEST JUMPDEST PUSH1 0x20 MUL PUSH1 0x20 ADD ADD MLOAD DUP5 PUSH2 0x2AB2 SWAP2 SWAP1 PUSH2 0x35F6 JUMP JUMPDEST SWAP4 POP DUP6 PUSH1 0x2 DUP2 MLOAD DUP2 LT PUSH2 0x2AC8 JUMPI PUSH2 0x2AC7 PUSH2 0x3A97 JUMP JUMPDEST JUMPDEST PUSH1 0x20 MUL PUSH1 0x20 ADD ADD MLOAD DUP4 PUSH2 0x2ADB SWAP2 SWAP1 PUSH2 0x35F6 JUMP JUMPDEST SWAP3 POP DUP3 DUP5 GT ISZERO PUSH2 0x2BAE JUMPI PUSH32 0x0 PUSH1 0x3 PUSH1 0x0 PUSH2 0x100 EXP DUP2 SLOAD DUP2 PUSH20 0xFFFFFFFFFFFFFFFFFFFFFFFFFFFFFFFFFFFFFFFF MUL NOT AND SWAP1 DUP4 PUSH20 0xFFFFFFFFFFFFFFFFFFFFFFFFFFFFFFFFFFFFFFFF AND MUL OR SWAP1 SSTORE POP PUSH32 0x0 PUSH20 0xFFFFFFFFFFFFFFFFFFFFFFFFFFFFFFFFFFFFFFFF AND PUSH32 0x3C87360DCE5C6F26147DAF6A9E168E80A4C7199E9AA7CBD7A874094804C361B4 PUSH1 0x40 MLOAD PUSH1 0x40 MLOAD DUP1 SWAP2 SUB SWAP1 LOG2 PUSH2 0x2C73 JUMP JUMPDEST PUSH32 0x0 PUSH1 0x3 PUSH1 0x0 PUSH2 0x100 EXP DUP2 SLOAD DUP2 PUSH20 0xFFFFFFFFFFFFFFFFFFFFFFFFFFFFFFFFFFFFFFFF MUL NOT AND SWAP1 DUP4 PUSH20 0xFFFFFFFFFFFFFFFFFFFFFFFFFFFFFFFFFFFFFFFF AND MUL OR SWAP1 SSTORE POP PUSH32 0x0 PUSH20 0xFFFFFFFFFFFFFFFFFFFFFFFFFFFFFFFFFFFFFFFF AND PUSH32 0x3C87360DCE5C6F26147DAF6A9E168E80A4C7199E9AA7CBD7A874094804C361B4 PUSH1 0x40 MLOAD PUSH1 0x40 MLOAD DUP1 SWAP2 SUB SWAP1 LOG2 JUMPDEST JUMPDEST POP POP POP POP POP POP JUMP JUMPDEST PUSH1 0x60 PUSH2 0x2C97 DUP3 PUSH1 0x0 PUSH1 0x1 DUP6 MLOAD PUSH2 0x2C92 SWAP2 SWAP1 PUSH2 0x37A4 JUMP JUMPDEST PUSH2 0x2C9F JUMP JUMPDEST DUP2 SWAP1 POP SWAP2 SWAP1 POP JUMP JUMPDEST PUSH1 0x0 DUP3 SWAP1 POP PUSH1 0x0 DUP3 SWAP1 POP DUP1 DUP3 EQ ISZERO PUSH2 0x2CB8 JUMPI POP POP PUSH2 0x2E36 JUMP JUMPDEST PUSH1 0x0 DUP6 PUSH1 0x2 DUP7 DUP7 PUSH2 0x2CC9 SWAP2 SWAP1 PUSH2 0x3710 JUMP JUMPDEST PUSH2 0x2CD3 SWAP2 SWAP1 PUSH2 0x364C JUMP JUMPDEST DUP7 PUSH2 0x2CDE SWAP2 SWAP1 PUSH2 0x3562 JUMP JUMPDEST DUP2 MLOAD DUP2 LT PUSH2 0x2CEF JUMPI PUSH2 0x2CEE PUSH2 0x3A97 JUMP JUMPDEST JUMPDEST PUSH1 0x20 MUL PUSH1 0x20 ADD ADD MLOAD SWAP1 POP JUMPDEST DUP2 DUP4 SGT PUSH2 0x2E0A JUMPI JUMPDEST DUP1 DUP7 DUP5 DUP2 MLOAD DUP2 LT PUSH2 0x2D16 JUMPI PUSH2 0x2D15 PUSH2 0x3A97 JUMP JUMPDEST JUMPDEST PUSH1 0x20 MUL PUSH1 0x20 ADD ADD MLOAD LT ISZERO PUSH2 0x2D37 JUMPI DUP3 DUP1 PUSH2 0x2D2F SWAP1 PUSH2 0x3947 JUMP JUMPDEST SWAP4 POP POP PUSH2 0x2D02 JUMP JUMPDEST JUMPDEST DUP6 DUP3 DUP2 MLOAD DUP2 LT PUSH2 0x2D4B JUMPI PUSH2 0x2D4A PUSH2 0x3A97 JUMP JUMPDEST JUMPDEST PUSH1 0x20 MUL PUSH1 0x20 ADD ADD MLOAD DUP2 LT ISZERO PUSH2 0x2D6D JUMPI DUP2 DUP1 PUSH2 0x2D65 SWAP1 PUSH2 0x38CD JUMP JUMPDEST SWAP3 POP POP PUSH2 0x2D38 JUMP JUMPDEST DUP2 DUP4 SGT PUSH2 0x2E05 JUMPI DUP6 DUP3 DUP2 MLOAD DUP2 LT PUSH2 0x2D87 JUMPI PUSH2 0x2D86 PUSH2 0x3A97 JUMP JUMPDEST JUMPDEST PUSH1 0x20 MUL PUSH1 0x20 ADD ADD MLOAD DUP7 DUP5 DUP2 MLOAD DUP2 LT PUSH2 0x2DA2 JUMPI PUSH2 0x2DA1 PUSH2 0x3A97 JUMP JUMPDEST JUMPDEST PUSH1 0x20 MUL PUSH1 0x20 ADD ADD MLOAD DUP8 DUP6 DUP2 MLOAD DUP2 LT PUSH2 0x2DBD JUMPI PUSH2 0x2DBC PUSH2 0x3A97 JUMP JUMPDEST JUMPDEST PUSH1 0x20 MUL PUSH1 0x20 ADD ADD DUP9 DUP6 DUP2 MLOAD DUP2 LT PUSH2 0x2DD7 JUMPI PUSH2 0x2DD6 PUSH2 0x3A97 JUMP JUMPDEST JUMPDEST PUSH1 0x20 MUL PUSH1 0x20 ADD ADD DUP3 DUP2 MSTORE POP DUP3 DUP2 MSTORE POP POP POP DUP3 DUP1 PUSH2 0x2DF3 SWAP1 PUSH2 0x3947 JUMP JUMPDEST SWAP4 POP POP DUP2 DUP1 PUSH2 0x2E01 SWAP1 PUSH2 0x38CD JUMP JUMPDEST SWAP3 POP POP JUMPDEST PUSH2 0x2CFA JUMP JUMPDEST DUP2 DUP6 SLT ISZERO PUSH2 0x2E1E JUMPI PUSH2 0x2E1D DUP7 DUP7 DUP5 PUSH2 0x2C9F JUMP JUMPDEST JUMPDEST DUP4 DUP4 SLT ISZERO PUSH2 0x2E32 JUMPI PUSH2 0x2E31 DUP7 DUP5 DUP7 PUSH2 0x2C9F JUMP JUMPDEST JUMPDEST POP POP POP JUMPDEST POP POP POP JUMP JUMPDEST DUP3 DUP1 SLOAD DUP3 DUP3 SSTORE SWAP1 PUSH1 0x0 MSTORE PUSH1 0x20 PUSH1 0x0 KECCAK256 SWAP1 DUP2 ADD SWAP3 DUP3 ISZERO PUSH2 0x2EB4 JUMPI SWAP2 PUSH1 0x20 MUL DUP3 ADD JUMPDEST DUP3 DUP2 GT ISZERO PUSH2 0x2EB3 JUMPI DUP3 MLOAD DUP3 PUSH1 0x0 PUSH2 0x100 EXP DUP2 SLOAD DUP2 PUSH20 0xFFFFFFFFFFFFFFFFFFFFFFFFFFFFFFFFFFFFFFFF MUL NOT AND SWAP1 DUP4 PUSH20 0xFFFFFFFFFFFFFFFFFFFFFFFFFFFFFFFFFFFFFFFF AND MUL OR SWAP1 SSTORE POP SWAP2 PUSH1 0x20 ADD SWAP2 SWAP1 PUSH1 0x1 ADD SWAP1 PUSH2 0x2E5B JUMP JUMPDEST JUMPDEST POP SWAP1 POP PUSH2 0x2EC1 SWAP2 SWAP1 PUSH2 0x2EC5 JUMP JUMPDEST POP SWAP1 JUMP JUMPDEST JUMPDEST DUP1 DUP3 GT ISZERO PUSH2 0x2EDE JUMPI PUSH1 0x0 DUP2 PUSH1 0x0 SWAP1 SSTORE POP PUSH1 0x1 ADD PUSH2 0x2EC6 JUMP JUMPDEST POP SWAP1 JUMP JUMPDEST PUSH1 0x0 PUSH2 0x2EF5 PUSH2 0x2EF0 DUP5 PUSH2 0x34A5 JUMP JUMPDEST PUSH2 0x3480 JUMP JUMPDEST SWAP1 POP DUP1 DUP4 DUP3 MSTORE PUSH1 0x20 DUP3 ADD SWAP1 POP DUP3 DUP6 PUSH1 0x20 DUP7 MUL DUP3 ADD GT ISZERO PUSH2 0x2F18 JUMPI PUSH2 0x2F17 PUSH2 0x3AFF JUMP JUMPDEST JUMPDEST PUSH1 0x0 JUMPDEST DUP6 DUP2 LT ISZERO PUSH2 0x2F48 JUMPI DUP2 PUSH2 0x2F2E DUP9 DUP3 PUSH2 0x3046 JUMP JUMPDEST DUP5 MSTORE PUSH1 0x20 DUP5 ADD SWAP4 POP PUSH1 0x20 DUP4 ADD SWAP3 POP POP PUSH1 0x1 DUP2 ADD SWAP1 POP PUSH2 0x2F1B JUMP JUMPDEST POP POP POP SWAP4 SWAP3 POP POP POP JUMP JUMPDEST PUSH1 0x0 PUSH2 0x2F65 PUSH2 0x2F60 DUP5 PUSH2 0x34D1 JUMP JUMPDEST PUSH2 0x3480 JUMP JUMPDEST SWAP1 POP DUP3 DUP2 MSTORE PUSH1 0x20 DUP2 ADD DUP5 DUP5 DUP5 ADD GT ISZERO PUSH2 0x2F81 JUMPI PUSH2 0x2F80 PUSH2 0x3B04 JUMP JUMPDEST JUMPDEST PUSH2 0x2F8C DUP5 DUP3 DUP6 PUSH2 0x388B JUMP JUMPDEST POP SWAP4 SWAP3 POP POP POP JUMP JUMPDEST PUSH1 0x0 DUP3 PUSH1 0x1F DUP4 ADD SLT PUSH2 0x2FA9 JUMPI PUSH2 0x2FA8 PUSH2 0x3AFA JUMP JUMPDEST JUMPDEST DUP2 CALLDATALOAD PUSH2 0x2FB9 DUP5 DUP3 PUSH1 0x20 DUP7 ADD PUSH2 0x2EE2 JUMP JUMPDEST SWAP2 POP POP SWAP3 SWAP2 POP POP JUMP JUMPDEST PUSH1 0x0 DUP1 DUP4 PUSH1 0x1F DUP5 ADD SLT PUSH2 0x2FD8 JUMPI PUSH2 0x2FD7 PUSH2 0x3AFA JUMP JUMPDEST JUMPDEST DUP3 CALLDATALOAD SWAP1 POP PUSH8 0xFFFFFFFFFFFFFFFF DUP2 GT ISZERO PUSH2 0x2FF5 JUMPI PUSH2 0x2FF4 PUSH2 0x3AF5 JUMP JUMPDEST JUMPDEST PUSH1 0x20 DUP4 ADD SWAP2 POP DUP4 PUSH1 0x1 DUP3 MUL DUP4 ADD GT ISZERO PUSH2 0x3011 JUMPI PUSH2 0x3010 PUSH2 0x3AFF JUMP JUMPDEST JUMPDEST SWAP3 POP SWAP3 SWAP1 POP JUMP JUMPDEST PUSH1 0x0 DUP3 PUSH1 0x1F DUP4 ADD SLT PUSH2 0x302D JUMPI PUSH2 0x302C PUSH2 0x3AFA JUMP JUMPDEST JUMPDEST DUP2 CALLDATALOAD PUSH2 0x303D DUP5 DUP3 PUSH1 0x20 DUP7 ADD PUSH2 0x2F52 JUMP JUMPDEST SWAP2 POP POP SWAP3 SWAP2 POP POP JUMP JUMPDEST PUSH1 0x0 DUP2 CALLDATALOAD SWAP1 POP PUSH2 0x3055 DUP2 PUSH2 0x3B3B JUMP JUMPDEST SWAP3 SWAP2 POP POP JUMP JUMPDEST PUSH1 0x0 DUP2 MLOAD SWAP1 POP PUSH2 0x306A DUP2 PUSH2 0x3B3B JUMP JUMPDEST SWAP3 SWAP2 POP POP JUMP JUMPDEST PUSH1 0x0 DUP1 PUSH1 0x20 DUP4 DUP6 SUB SLT ISZERO PUSH2 0x3087 JUMPI PUSH2 0x3086 PUSH2 0x3B0E JUMP JUMPDEST JUMPDEST PUSH1 0x0 DUP4 ADD CALLDATALOAD PUSH8 0xFFFFFFFFFFFFFFFF DUP2 GT ISZERO PUSH2 0x30A5 JUMPI PUSH2 0x30A4 PUSH2 0x3B09 JUMP JUMPDEST JUMPDEST PUSH2 0x30B1 DUP6 DUP3 DUP7 ADD PUSH2 0x2FC2 JUMP JUMPDEST SWAP3 POP SWAP3 POP POP SWAP3 POP SWAP3 SWAP1 POP JUMP JUMPDEST PUSH1 0x0 PUSH1 0x20 DUP3 DUP5 SUB SLT ISZERO PUSH2 0x30D3 JUMPI PUSH2 0x30D2 PUSH2 0x3B0E JUMP JUMPDEST JUMPDEST PUSH1 0x0 DUP3 ADD CALLDATALOAD PUSH8 0xFFFFFFFFFFFFFFFF DUP2 GT ISZERO PUSH2 0x30F1 JUMPI PUSH2 0x30F0 PUSH2 0x3B09 JUMP JUMPDEST JUMPDEST PUSH2 0x30FD DUP5 DUP3 DUP6 ADD PUSH2 0x3018 JUMP JUMPDEST SWAP2 POP POP SWAP3 SWAP2 POP POP JUMP JUMPDEST PUSH1 0x0 PUSH1 0x20 DUP3 DUP5 SUB SLT ISZERO PUSH2 0x311C JUMPI PUSH2 0x311B PUSH2 0x3B0E JUMP JUMPDEST JUMPDEST PUSH1 0x0 PUSH2 0x312A DUP5 DUP3 DUP6 ADD PUSH2 0x3046 JUMP JUMPDEST SWAP2 POP POP SWAP3 SWAP2 POP POP JUMP JUMPDEST PUSH1 0x0 PUSH1 0x20 DUP3 DUP5 SUB SLT ISZERO PUSH2 0x3149 JUMPI PUSH2 0x3148 PUSH2 0x3B0E JUMP JUMPDEST JUMPDEST PUSH1 0x0 PUSH2 0x3157 DUP5 DUP3 DUP6 ADD PUSH2 0x305B JUMP JUMPDEST SWAP2 POP POP SWAP3 SWAP2 POP POP JUMP JUMPDEST PUSH1 0x0 DUP1 PUSH1 0x40 DUP4 DUP6 SUB SLT ISZERO PUSH2 0x3177 JUMPI PUSH2 0x3176 PUSH2 0x3B0E JUMP JUMPDEST JUMPDEST PUSH1 0x0 PUSH2 0x3185 DUP6 DUP3 DUP7 ADD PUSH2 0x3046 JUMP JUMPDEST SWAP3 POP POP PUSH1 0x20 DUP4 ADD CALLDATALOAD PUSH8 0xFFFFFFFFFFFFFFFF DUP2 GT ISZERO PUSH2 0x31A6 JUMPI PUSH2 0x31A5 PUSH2 0x3B09 JUMP JUMPDEST JUMPDEST PUSH2 0x31B2 DUP6 DUP3 DUP7 ADD PUSH2 0x2F94 JUMP JUMPDEST SWAP2 POP POP SWAP3 POP SWAP3 SWAP1 POP JUMP JUMPDEST PUSH1 0x0 PUSH2 0x31C8 DUP4 DUP4 PUSH2 0x31D4 JUMP JUMPDEST PUSH1 0x20 DUP4 ADD SWAP1 POP SWAP3 SWAP2 POP POP JUMP JUMPDEST PUSH2 0x31DD DUP2 PUSH2 0x37D8 JUMP JUMPDEST DUP3 MSTORE POP POP JUMP JUMPDEST PUSH2 0x31EC DUP2 PUSH2 0x37D8 JUMP JUMPDEST DUP3 MSTORE POP POP JUMP JUMPDEST PUSH1 0x0 PUSH2 0x31FD DUP3 PUSH2 0x3512 JUMP JUMPDEST PUSH2 0x3207 DUP2 DUP6 PUSH2 0x3535 JUMP JUMPDEST SWAP4 POP PUSH2 0x3212 DUP4 PUSH2 0x3502 JUMP JUMPDEST DUP1 PUSH1 0x0 JUMPDEST DUP4 DUP2 LT ISZERO PUSH2 0x3243 JUMPI DUP2 MLOAD PUSH2 0x322A DUP9 DUP3 PUSH2 0x31BC JUMP JUMPDEST SWAP8 POP PUSH2 0x3235 DUP4 PUSH2 0x3528 JUMP JUMPDEST SWAP3 POP POP PUSH1 0x1 DUP2 ADD SWAP1 POP PUSH2 0x3216 JUMP JUMPDEST POP DUP6 SWAP4 POP POP POP POP SWAP3 SWAP2 POP POP JUMP JUMPDEST PUSH2 0x3259 DUP2 PUSH2 0x37EA JUMP JUMPDEST DUP3 MSTORE POP POP JUMP JUMPDEST PUSH2 0x3268 DUP2 PUSH2 0x37F6 JUMP JUMPDEST DUP3 MSTORE POP POP JUMP JUMPDEST PUSH1 0x0 PUSH2 0x3279 DUP3 PUSH2 0x351D JUMP JUMPDEST PUSH2 0x3283 DUP2 DUP6 PUSH2 0x3546 JUMP JUMPDEST SWAP4 POP PUSH2 0x3293 DUP2 DUP6 PUSH1 0x20 DUP7 ADD PUSH2 0x389A JUMP JUMPDEST PUSH2 0x329C DUP2 PUSH2 0x3B13 JUMP JUMPDEST DUP5 ADD SWAP2 POP POP SWAP3 SWAP2 POP POP JUMP JUMPDEST PUSH2 0x32B0 DUP2 PUSH2 0x3879 JUMP JUMPDEST DUP3 MSTORE POP POP JUMP JUMPDEST PUSH1 0x0 PUSH2 0x32C3 PUSH1 0x0 DUP4 PUSH2 0x3557 JUMP JUMPDEST SWAP2 POP PUSH2 0x32CE DUP3 PUSH2 0x3B24 JUMP JUMPDEST PUSH1 0x0 DUP3 ADD SWAP1 POP SWAP2 SWAP1 POP JUMP JUMPDEST PUSH2 0x32E2 DUP2 PUSH2 0x381D JUMP JUMPDEST DUP3 MSTORE POP POP JUMP JUMPDEST PUSH2 0x32F1 DUP2 PUSH2 0x384B JUMP JUMPDEST DUP3 MSTORE POP POP JUMP JUMPDEST PUSH2 0x3300 DUP2 PUSH2 0x3855 JUMP JUMPDEST DUP3 MSTORE POP POP JUMP JUMPDEST PUSH2 0x330F DUP2 PUSH2 0x3865 JUMP JUMPDEST DUP3 MSTORE POP POP JUMP JUMPDEST PUSH1 0x0 PUSH2 0x3320 DUP3 PUSH2 0x32B6 JUMP JUMPDEST SWAP2 POP DUP2 SWAP1 POP SWAP2 SWAP1 POP JUMP JUMPDEST PUSH1 0x0 PUSH1 0x20 DUP3 ADD SWAP1 POP PUSH2 0x333F PUSH1 0x0 DUP4 ADD DUP5 PUSH2 0x31E3 JUMP JUMPDEST SWAP3 SWAP2 POP POP JUMP JUMPDEST PUSH1 0x0 PUSH1 0x40 DUP3 ADD SWAP1 POP PUSH2 0x335A PUSH1 0x0 DUP4 ADD DUP6 PUSH2 0x31E3 JUMP JUMPDEST PUSH2 0x3367 PUSH1 0x20 DUP4 ADD DUP5 PUSH2 0x31E3 JUMP JUMPDEST SWAP4 SWAP3 POP POP POP JUMP JUMPDEST PUSH1 0x0 PUSH1 0x20 DUP3 ADD SWAP1 POP DUP2 DUP2 SUB PUSH1 0x0 DUP4 ADD MSTORE PUSH2 0x3388 DUP2 DUP5 PUSH2 0x31F2 JUMP JUMPDEST SWAP1 POP SWAP3 SWAP2 POP POP JUMP JUMPDEST PUSH1 0x0 PUSH1 0x40 DUP3 ADD SWAP1 POP PUSH2 0x33A5 PUSH1 0x0 DUP4 ADD DUP6 PUSH2 0x3250 JUMP JUMPDEST DUP2 DUP2 SUB PUSH1 0x20 DUP4 ADD MSTORE PUSH2 0x33B7 DUP2 DUP5 PUSH2 0x326E JUMP JUMPDEST SWAP1 POP SWAP4 SWAP3 POP POP POP JUMP JUMPDEST PUSH1 0x0 PUSH1 0xA0 DUP3 ADD SWAP1 POP PUSH2 0x33D5 PUSH1 0x0 DUP4 ADD DUP9 PUSH2 0x325F JUMP JUMPDEST PUSH2 0x33E2 PUSH1 0x20 DUP4 ADD DUP8 PUSH2 0x3306 JUMP JUMPDEST PUSH2 0x33EF PUSH1 0x40 DUP4 ADD DUP7 PUSH2 0x32D9 JUMP JUMPDEST PUSH2 0x33FC PUSH1 0x60 DUP4 ADD DUP6 PUSH2 0x32F7 JUMP JUMPDEST PUSH2 0x3409 PUSH1 0x80 DUP4 ADD DUP5 PUSH2 0x32F7 JUMP JUMPDEST SWAP7 SWAP6 POP POP POP POP POP POP JUMP JUMPDEST PUSH1 0x0 PUSH1 0x20 DUP3 ADD SWAP1 POP PUSH2 0x3428 PUSH1 0x0 DUP4 ADD DUP5 PUSH2 0x32A7 JUMP JUMPDEST SWAP3 SWAP2 POP POP JUMP JUMPDEST PUSH1 0x0 PUSH1 0x20 DUP3 ADD SWAP1 POP PUSH2 0x3443 PUSH1 0x0 DUP4 ADD DUP5 PUSH2 0x32E8 JUMP JUMPDEST SWAP3 SWAP2 POP POP JUMP JUMPDEST PUSH1 0x0 PUSH1 0x60 DUP3 ADD SWAP1 POP PUSH2 0x345E PUSH1 0x0 DUP4 ADD DUP7 PUSH2 0x32E8 JUMP JUMPDEST PUSH2 0x346B PUSH1 0x20 DUP4 ADD DUP6 PUSH2 0x32E8 JUMP JUMPDEST PUSH2 0x3478 PUSH1 0x40 DUP4 ADD DUP5 PUSH2 0x32E8 JUMP JUMPDEST SWAP5 SWAP4 POP POP POP POP JUMP JUMPDEST PUSH1 0x0 PUSH2 0x348A PUSH2 0x349B JUMP JUMPDEST SWAP1 POP PUSH2 0x3496 DUP3 DUP3 PUSH2 0x3916 JUMP JUMPDEST SWAP2 SWAP1 POP JUMP JUMPDEST PUSH1 0x0 PUSH1 0x40 MLOAD SWAP1 POP SWAP1 JUMP JUMPDEST PUSH1 0x0 PUSH8 0xFFFFFFFFFFFFFFFF DUP3 GT ISZERO PUSH2 0x34C0 JUMPI PUSH2 0x34BF PUSH2 0x3AC6 JUMP JUMPDEST JUMPDEST PUSH1 0x20 DUP3 MUL SWAP1 POP PUSH1 0x20 DUP2 ADD SWAP1 POP SWAP2 SWAP1 POP JUMP JUMPDEST PUSH1 0x0 PUSH8 0xFFFFFFFFFFFFFFFF DUP3 GT ISZERO PUSH2 0x34EC JUMPI PUSH2 0x34EB PUSH2 0x3AC6 JUMP JUMPDEST JUMPDEST PUSH2 0x34F5 DUP3 PUSH2 0x3B13 JUMP JUMPDEST SWAP1 POP PUSH1 0x20 DUP2 ADD SWAP1 POP SWAP2 SWAP1 POP JUMP JUMPDEST PUSH1 0x0 DUP2 SWAP1 POP PUSH1 0x20 DUP3 ADD SWAP1 POP SWAP2 SWAP1 POP JUMP JUMPDEST PUSH1 0x0 DUP2 MLOAD SWAP1 POP SWAP2 SWAP1 POP JUMP JUMPDEST PUSH1 0x0 DUP2 MLOAD SWAP1 POP SWAP2 SWAP1 POP JUMP JUMPDEST PUSH1 0x0 PUSH1 0x20 DUP3 ADD SWAP1 POP SWAP2 SWAP1 POP JUMP JUMPDEST PUSH1 0x0 DUP3 DUP3 MSTORE PUSH1 0x20 DUP3 ADD SWAP1 POP SWAP3 SWAP2 POP POP JUMP JUMPDEST PUSH1 0x0 DUP3 DUP3 MSTORE PUSH1 0x20 DUP3 ADD SWAP1 POP SWAP3 SWAP2 POP POP JUMP JUMPDEST PUSH1 0x0 DUP2 SWAP1 POP SWAP3 SWAP2 POP POP JUMP JUMPDEST PUSH1 0x0 PUSH2 0x356D DUP3 PUSH2 0x3813 JUMP JUMPDEST SWAP2 POP PUSH2 0x3578 DUP4 PUSH2 0x3813 JUMP JUMPDEST SWAP3 POP DUP2 PUSH32 0x7FFFFFFFFFFFFFFFFFFFFFFFFFFFFFFFFFFFFFFFFFFFFFFFFFFFFFFFFFFFFFFF SUB DUP4 SGT PUSH1 0x0 DUP4 SLT ISZERO AND ISZERO PUSH2 0x35B3 JUMPI PUSH2 0x35B2 PUSH2 0x3A0A JUMP JUMPDEST JUMPDEST DUP2 PUSH32 0x8000000000000000000000000000000000000000000000000000000000000000 SUB DUP4 SLT PUSH1 0x0 DUP4 SLT AND ISZERO PUSH2 0x35EB JUMPI PUSH2 0x35EA PUSH2 0x3A0A JUMP JUMPDEST JUMPDEST DUP3 DUP3 ADD SWAP1 POP SWAP3 SWAP2 POP POP JUMP JUMPDEST PUSH1 0x0 PUSH2 0x3601 DUP3 PUSH2 0x384B JUMP JUMPDEST SWAP2 POP PUSH2 0x360C DUP4 PUSH2 0x384B JUMP JUMPDEST SWAP3 POP DUP3 PUSH32 0xFFFFFFFFFFFFFFFFFFFFFFFFFFFFFFFFFFFFFFFFFFFFFFFFFFFFFFFFFFFFFFFF SUB DUP3 GT ISZERO PUSH2 0x3641 JUMPI PUSH2 0x3640 PUSH2 0x3A0A JUMP JUMPDEST JUMPDEST DUP3 DUP3 ADD SWAP1 POP SWAP3 SWAP2 POP POP JUMP JUMPDEST PUSH1 0x0 PUSH2 0x3657 DUP3 PUSH2 0x3813 JUMP JUMPDEST SWAP2 POP PUSH2 0x3662 DUP4 PUSH2 0x3813 JUMP JUMPDEST SWAP3 POP DUP3 PUSH2 0x3672 JUMPI PUSH2 0x3671 PUSH2 0x3A39 JUMP JUMPDEST JUMPDEST PUSH1 0x1 PUSH1 0x0 SUB DUP4 EQ PUSH32 0x8000000000000000000000000000000000000000000000000000000000000000 DUP4 EQ AND ISZERO PUSH2 0x36AB JUMPI PUSH2 0x36AA PUSH2 0x3A0A JUMP JUMPDEST JUMPDEST DUP3 DUP3 SDIV SWAP1 POP SWAP3 SWAP2 POP POP JUMP JUMPDEST PUSH1 0x0 PUSH2 0x36C1 DUP3 PUSH2 0x384B JUMP JUMPDEST SWAP2 POP PUSH2 0x36CC DUP4 PUSH2 0x384B JUMP JUMPDEST SWAP3 POP DUP2 PUSH32 0xFFFFFFFFFFFFFFFFFFFFFFFFFFFFFFFFFFFFFFFFFFFFFFFFFFFFFFFFFFFFFFFF DIV DUP4 GT DUP3 ISZERO ISZERO AND ISZERO PUSH2 0x3705 JUMPI PUSH2 0x3704 PUSH2 0x3A0A JUMP JUMPDEST JUMPDEST DUP3 DUP3 MUL SWAP1 POP SWAP3 SWAP2 POP POP JUMP JUMPDEST PUSH1 0x0 PUSH2 0x371B DUP3 PUSH2 0x3813 JUMP JUMPDEST SWAP2 POP PUSH2 0x3726 DUP4 PUSH2 0x3813 JUMP JUMPDEST SWAP3 POP DUP3 PUSH32 0x8000000000000000000000000000000000000000000000000000000000000000 ADD DUP3 SLT PUSH1 0x0 DUP5 SLT ISZERO AND ISZERO PUSH2 0x3761 JUMPI PUSH2 0x3760 PUSH2 0x3A0A JUMP JUMPDEST JUMPDEST DUP3 PUSH32 0x7FFFFFFFFFFFFFFFFFFFFFFFFFFFFFFFFFFFFFFFFFFFFFFFFFFFFFFFFFFFFFFF ADD DUP3 SGT PUSH1 0x0 DUP5 SLT AND ISZERO PUSH2 0x3799 JUMPI PUSH2 0x3798 PUSH2 0x3A0A JUMP JUMPDEST JUMPDEST DUP3 DUP3 SUB SWAP1 POP SWAP3 SWAP2 POP POP JUMP JUMPDEST PUSH1 0x0 PUSH2 0x37AF DUP3 PUSH2 0x384B JUMP JUMPDEST SWAP2 POP PUSH2 0x37BA DUP4 PUSH2 0x384B JUMP JUMPDEST SWAP3 POP DUP3 DUP3 LT ISZERO PUSH2 0x37CD JUMPI PUSH2 0x37CC PUSH2 0x3A0A JUMP JUMPDEST JUMPDEST DUP3 DUP3 SUB SWAP1 POP SWAP3 SWAP2 POP POP JUMP JUMPDEST PUSH1 0x0 PUSH2 0x37E3 DUP3 PUSH2 0x382B JUMP JUMPDEST SWAP1 POP SWAP2 SWAP1 POP JUMP JUMPDEST PUSH1 0x0 DUP2 ISZERO ISZERO SWAP1 POP SWAP2 SWAP1 POP JUMP JUMPDEST PUSH1 0x0 DUP2 SWAP1 POP SWAP2 SWAP1 POP JUMP JUMPDEST PUSH1 0x0 DUP2 SWAP1 POP PUSH2 0x380E DUP3 PUSH2 0x3B27 JUMP JUMPDEST SWAP2 SWAP1 POP JUMP JUMPDEST PUSH1 0x0 DUP2 SWAP1 POP SWAP2 SWAP1 POP JUMP JUMPDEST PUSH1 0x0 PUSH2 0xFFFF DUP3 AND SWAP1 POP SWAP2 SWAP1 POP JUMP JUMPDEST PUSH1 0x0 PUSH20 0xFFFFFFFFFFFFFFFFFFFFFFFFFFFFFFFFFFFFFFFF DUP3 AND SWAP1 POP SWAP2 SWAP1 POP JUMP JUMPDEST PUSH1 0x0 DUP2 SWAP1 POP SWAP2 SWAP1 POP JUMP JUMPDEST PUSH1 0x0 PUSH4 0xFFFFFFFF DUP3 AND SWAP1 POP SWAP2 SWAP1 POP JUMP JUMPDEST PUSH1 0x0 PUSH8 0xFFFFFFFFFFFFFFFF DUP3 AND SWAP1 POP SWAP2 SWAP1 POP JUMP JUMPDEST PUSH1 0x0 PUSH2 0x3884 DUP3 PUSH2 0x3800 JUMP JUMPDEST SWAP1 POP SWAP2 SWAP1 POP JUMP JUMPDEST DUP3 DUP2 DUP4 CALLDATACOPY PUSH1 0x0 DUP4 DUP4 ADD MSTORE POP POP POP JUMP JUMPDEST PUSH1 0x0 JUMPDEST DUP4 DUP2 LT ISZERO PUSH2 0x38B8 JUMPI DUP1 DUP3 ADD MLOAD DUP2 DUP5 ADD MSTORE PUSH1 0x20 DUP2 ADD SWAP1 POP PUSH2 0x389D JUMP JUMPDEST DUP4 DUP2 GT ISZERO PUSH2 0x38C7 JUMPI PUSH1 0x0 DUP5 DUP5 ADD MSTORE JUMPDEST POP POP POP POP JUMP JUMPDEST PUSH1 0x0 PUSH2 0x38D8 DUP3 PUSH2 0x3813 JUMP JUMPDEST SWAP2 POP PUSH32 0x8000000000000000000000000000000000000000000000000000000000000000 DUP3 EQ ISZERO PUSH2 0x390B JUMPI PUSH2 0x390A PUSH2 0x3A0A JUMP JUMPDEST JUMPDEST PUSH1 0x1 DUP3 SUB SWAP1 POP SWAP2 SWAP1 POP JUMP JUMPDEST PUSH2 0x391F DUP3 PUSH2 0x3B13 JUMP JUMPDEST DUP2 ADD DUP2 DUP2 LT PUSH8 0xFFFFFFFFFFFFFFFF DUP3 GT OR ISZERO PUSH2 0x393E JUMPI PUSH2 0x393D PUSH2 0x3AC6 JUMP JUMPDEST JUMPDEST DUP1 PUSH1 0x40 MSTORE POP POP POP JUMP JUMPDEST PUSH1 0x0 PUSH2 0x3952 DUP3 PUSH2 0x3813 JUMP JUMPDEST SWAP2 POP PUSH32 0x7FFFFFFFFFFFFFFFFFFFFFFFFFFFFFFFFFFFFFFFFFFFFFFFFFFFFFFFFFFFFFFF DUP3 EQ ISZERO PUSH2 0x3985 JUMPI PUSH2 0x3984 PUSH2 0x3A0A JUMP JUMPDEST JUMPDEST PUSH1 0x1 DUP3 ADD SWAP1 POP SWAP2 SWAP1 POP JUMP JUMPDEST PUSH1 0x0 PUSH2 0x399B DUP3 PUSH2 0x384B JUMP JUMPDEST SWAP2 POP PUSH32 0xFFFFFFFFFFFFFFFFFFFFFFFFFFFFFFFFFFFFFFFFFFFFFFFFFFFFFFFFFFFFFFFF DUP3 EQ ISZERO PUSH2 0x39CE JUMPI PUSH2 0x39CD PUSH2 0x3A0A JUMP JUMPDEST JUMPDEST PUSH1 0x1 DUP3 ADD SWAP1 POP SWAP2 SWAP1 POP JUMP JUMPDEST PUSH1 0x0 PUSH2 0x39E4 DUP3 PUSH2 0x384B JUMP JUMPDEST SWAP2 POP PUSH2 0x39EF DUP4 PUSH2 0x384B JUMP JUMPDEST SWAP3 POP DUP3 PUSH2 0x39FF JUMPI PUSH2 0x39FE PUSH2 0x3A39 JUMP JUMPDEST JUMPDEST DUP3 DUP3 MOD SWAP1 POP SWAP3 SWAP2 POP POP JUMP JUMPDEST PUSH32 0x4E487B7100000000000000000000000000000000000000000000000000000000 PUSH1 0x0 MSTORE PUSH1 0x11 PUSH1 0x4 MSTORE PUSH1 0x24 PUSH1 0x0 REVERT JUMPDEST PUSH32 0x4E487B7100000000000000000000000000000000000000000000000000000000 PUSH1 0x0 MSTORE PUSH1 0x12 PUSH1 0x4 MSTORE PUSH1 0x24 PUSH1 0x0 REVERT JUMPDEST PUSH32 0x4E487B7100000000000000000000000000000000000000000000000000000000 PUSH1 0x0 MSTORE PUSH1 0x21 PUSH1 0x4 MSTORE PUSH1 0x24 PUSH1 0x0 REVERT JUMPDEST PUSH32 0x4E487B7100000000000000000000000000000000000000000000000000000000 PUSH1 0x0 MSTORE PUSH1 0x32 PUSH1 0x4 MSTORE PUSH1 0x24 PUSH1 0x0 REVERT JUMPDEST PUSH32 0x4E487B7100000000000000000000000000000000000000000000000000000000 PUSH1 0x0 MSTORE PUSH1 0x41 PUSH1 0x4 MSTORE PUSH1 0x24 PUSH1 0x0 REVERT JUMPDEST PUSH1 0x0 DUP1 REVERT JUMPDEST PUSH1 0x0 DUP1 REVERT JUMPDEST PUSH1 0x0 DUP1 REVERT JUMPDEST PUSH1 0x0 DUP1 REVERT JUMPDEST PUSH1 0x0 DUP1 REVERT JUMPDEST PUSH1 0x0 DUP1 REVERT JUMPDEST PUSH1 0x0 PUSH1 0x1F NOT PUSH1 0x1F DUP4 ADD AND SWAP1 POP SWAP2 SWAP1 POP JUMP JUMPDEST POP JUMP JUMPDEST PUSH1 0x4 DUP2 LT PUSH2 0x3B38 JUMPI PUSH2 0x3B37 PUSH2 0x3A68 JUMP JUMPDEST JUMPDEST POP JUMP JUMPDEST PUSH2 0x3B44 DUP2 PUSH2 0x384B JUMP JUMPDEST DUP2 EQ PUSH2 0x3B4F JUMPI PUSH1 0x0 DUP1 REVERT JUMPDEST POP JUMP INVALID LOG2 PUSH5 0x6970667358 0x22 SLT KECCAK256 MUL EXP 0xAC MSIZE MLOAD PUSH31 0x32E08CC4E42373AF80E722D01EE417CBDE6FA4412E51809A788764736F6C63 NUMBER STOP ADDMOD SMOD STOP CALLER "
		},
		"gasEstimates": {
			"creation": {
				"codeDepositCost": "3048000",
				"executionCost": "infinite",
				"totalCost": "infinite"
			},
			"external": {
				"DonationMatch()": "infinite",
				"checkUpkeep(bytes)": "infinite",
				"enterRaffle(uint256)": "infinite",
				"fundDonationMatch()": "infinite",
				"getAllPlayers()": "infinite",
				"getCharities()": "infinite",
				"getCharityWinner()": "2567",
				"getDuration()": "infinite",
				"getEntranceFee()": "infinite",
				"getFundingWallet()": "infinite",
				"getHighestDonations()": "2547",
				"getJackpot()": "infinite",
				"getNumWords()": "432",
				"getNumberOfPlayers()": "2577",
				"getPlayer(uint256)": "5033",
				"getRaffleState()": "2614",
				"getRecentWinner()": "2567",
				"getRequestConfirmations()": "454",
				"getStartTime()": "2459",
				"performUpkeep(bytes)": "infinite",
				"rawFulfillRandomWords(uint256,uint256[])": "infinite",
				"startRaffle()": "infinite"
			},
			"internal": {
				"checkForTie()": "infinite",
				"fulfillRandomWords(uint256,uint256[] memory)": "infinite",
				"handleTie(uint256[] memory,uint256,uint256,uint256)": "infinite",
				"quickSort(uint256[] memory,int256,int256)": "infinite",
				"sort(uint256[] memory)": "infinite"
			}
		},
		"methodIdentifiers": {
			"DonationMatch()": "d6f46630",
			"checkUpkeep(bytes)": "6e04ff0d",
			"enterRaffle(uint256)": "2e519f90",
			"fundDonationMatch()": "a3d7dd31",
			"getAllPlayers()": "efa1c482",
			"getCharities()": "48112c6f",
			"getCharityWinner()": "855c289c",
			"getDuration()": "ad2e8c9b",
			"getEntranceFee()": "09bc33a7",
			"getFundingWallet()": "6846af76",
			"getHighestDonations()": "f975cb39",
			"getJackpot()": "9329066c",
			"getNumWords()": "53a2c19a",
			"getNumberOfPlayers()": "fd6673f5",
			"getPlayer(uint256)": "e55ae4e8",
			"getRaffleState()": "115cbaf5",
			"getRecentWinner()": "473f1ddc",
			"getRequestConfirmations()": "5f1b0fd8",
			"getStartTime()": "c828371e",
			"performUpkeep(bytes)": "4585e33b",
			"rawFulfillRandomWords(uint256,uint256[])": "1fe543e3",
			"startRaffle()": "242284f1"
		}
	},
	"abi": [
		{
			"inputs": [
				{
					"internalType": "address",
					"name": "vrfCoordinatorV2",
					"type": "address"
				},
				{
					"internalType": "uint64",
					"name": "subscriptionId",
					"type": "uint64"
				},
				{
					"internalType": "bytes32",
					"name": "gasLane",
					"type": "bytes32"
				},
				{
					"internalType": "uint256",
					"name": "entranceFee",
					"type": "uint256"
				},
				{
					"internalType": "uint256",
					"name": "jackpot",
					"type": "uint256"
				},
				{
					"internalType": "uint256",
					"name": "duration",
					"type": "uint256"
				},
				{
					"internalType": "uint32",
					"name": "callbackGasLimit",
					"type": "uint32"
				},
				{
					"internalType": "address",
					"name": "charity1",
					"type": "address"
				},
				{
					"internalType": "address",
					"name": "charity2",
					"type": "address"
				},
				{
					"internalType": "address",
					"name": "charity3",
					"type": "address"
				},
				{
					"internalType": "address",
					"name": "fundingWallet",
					"type": "address"
				}
			],
			"stateMutability": "nonpayable",
			"type": "constructor"
		},
		{
			"inputs": [
				{
					"internalType": "address",
					"name": "charity",
					"type": "address"
				}
			],
			"name": "CharityRaffle__CharityTransferFailed",
			"type": "error"
		},
		{
			"inputs": [],
			"name": "CharityRaffle__DonationMatchFailed",
			"type": "error"
		},
		{
			"inputs": [],
			"name": "CharityRaffle__FundingContractFailed",
			"type": "error"
		},
		{
			"inputs": [],
			"name": "CharityRaffle__FundingToMatchTransferFailed",
			"type": "error"
		},
		{
			"inputs": [],
			"name": "CharityRaffle__JackpotTransferFailed",
			"type": "error"
		},
		{
			"inputs": [],
			"name": "CharityRaffle__MustBeFunder",
			"type": "error"
		},
		{
			"inputs": [],
			"name": "CharityRaffle__NotJackpotValue",
			"type": "error"
		},
		{
			"inputs": [],
			"name": "CharityRaffle__RaffleNotClosed",
			"type": "error"
		},
		{
			"inputs": [],
			"name": "CharityRaffle__RaffleNotOpen",
			"type": "error"
		},
		{
			"inputs": [],
			"name": "CharityRaffle__SendMoreToEnterRaffle",
			"type": "error"
		},
		{
			"inputs": [
				{
					"internalType": "uint256",
					"name": "currentBalance",
					"type": "uint256"
				},
				{
					"internalType": "uint256",
					"name": "numPlayers",
					"type": "uint256"
				},
				{
					"internalType": "uint256",
					"name": "raffleState",
					"type": "uint256"
				}
			],
			"name": "CharityRaffle__UpkeepNotNeeded",
			"type": "error"
		},
		{
			"inputs": [
				{
					"internalType": "address",
					"name": "have",
					"type": "address"
				},
				{
					"internalType": "address",
					"name": "want",
					"type": "address"
				}
			],
			"name": "OnlyCoordinatorCanFulfill",
			"type": "error"
		},
		{
			"anonymous": false,
			"inputs": [
				{
					"indexed": true,
					"internalType": "address",
					"name": "charity",
					"type": "address"
				}
			],
			"name": "CharityWinnerPicked",
			"type": "event"
		},
		{
			"anonymous": false,
			"inputs": [
				{
					"indexed": true,
					"internalType": "address",
					"name": "player",
					"type": "address"
				}
			],
			"name": "RaffleEnter",
			"type": "event"
		},
		{
			"anonymous": false,
			"inputs": [
				{
					"indexed": true,
					"internalType": "uint256",
					"name": "requestId",
					"type": "uint256"
				}
			],
			"name": "RequestedRaffleWinner",
			"type": "event"
		},
		{
			"anonymous": false,
			"inputs": [
				{
					"indexed": true,
					"internalType": "address",
					"name": "player",
					"type": "address"
				}
			],
			"name": "WinnerPicked",
			"type": "event"
		},
		{
			"inputs": [],
			"name": "DonationMatch",
			"outputs": [],
			"stateMutability": "nonpayable",
			"type": "function"
		},
		{
			"inputs": [
				{
					"internalType": "bytes",
					"name": "",
					"type": "bytes"
				}
			],
			"name": "checkUpkeep",
			"outputs": [
				{
					"internalType": "bool",
					"name": "upkeepNeeded",
					"type": "bool"
				},
				{
					"internalType": "bytes",
					"name": "",
					"type": "bytes"
				}
			],
			"stateMutability": "view",
			"type": "function"
		},
		{
			"inputs": [
				{
					"internalType": "uint256",
					"name": "charityChoice",
					"type": "uint256"
				}
			],
			"name": "enterRaffle",
			"outputs": [],
			"stateMutability": "payable",
			"type": "function"
		},
		{
			"inputs": [],
			"name": "fundDonationMatch",
			"outputs": [],
			"stateMutability": "payable",
			"type": "function"
		},
		{
			"inputs": [],
			"name": "getAllPlayers",
			"outputs": [
				{
					"internalType": "address[]",
					"name": "",
					"type": "address[]"
				}
			],
			"stateMutability": "view",
			"type": "function"
		},
		{
			"inputs": [],
			"name": "getCharities",
			"outputs": [
				{
					"internalType": "address[]",
					"name": "charities",
					"type": "address[]"
				}
			],
			"stateMutability": "view",
			"type": "function"
		},
		{
			"inputs": [],
			"name": "getCharityWinner",
			"outputs": [
				{
					"internalType": "address",
					"name": "",
					"type": "address"
				}
			],
			"stateMutability": "view",
			"type": "function"
		},
		{
			"inputs": [],
			"name": "getDuration",
			"outputs": [
				{
					"internalType": "uint256",
					"name": "",
					"type": "uint256"
				}
			],
			"stateMutability": "view",
			"type": "function"
		},
		{
			"inputs": [],
			"name": "getEntranceFee",
			"outputs": [
				{
					"internalType": "uint256",
					"name": "",
					"type": "uint256"
				}
			],
			"stateMutability": "view",
			"type": "function"
		},
		{
			"inputs": [],
			"name": "getFundingWallet",
			"outputs": [
				{
					"internalType": "address",
					"name": "",
					"type": "address"
				}
			],
			"stateMutability": "view",
			"type": "function"
		},
		{
			"inputs": [],
			"name": "getHighestDonations",
			"outputs": [
				{
					"internalType": "uint256",
					"name": "",
					"type": "uint256"
				}
			],
			"stateMutability": "view",
			"type": "function"
		},
		{
			"inputs": [],
			"name": "getJackpot",
			"outputs": [
				{
					"internalType": "uint256",
					"name": "",
					"type": "uint256"
				}
			],
			"stateMutability": "view",
			"type": "function"
		},
		{
			"inputs": [],
			"name": "getNumWords",
			"outputs": [
				{
					"internalType": "uint256",
					"name": "",
					"type": "uint256"
				}
			],
			"stateMutability": "pure",
			"type": "function"
		},
		{
			"inputs": [],
			"name": "getNumberOfPlayers",
			"outputs": [
				{
					"internalType": "uint256",
					"name": "",
					"type": "uint256"
				}
			],
			"stateMutability": "view",
			"type": "function"
		},
		{
			"inputs": [
				{
					"internalType": "uint256",
					"name": "index",
					"type": "uint256"
				}
			],
			"name": "getPlayer",
			"outputs": [
				{
					"internalType": "address",
					"name": "",
					"type": "address"
				}
			],
			"stateMutability": "view",
			"type": "function"
		},
		{
			"inputs": [],
			"name": "getRaffleState",
			"outputs": [
				{
					"internalType": "enum CharityRaffle.RaffleState",
					"name": "",
					"type": "uint8"
				}
			],
			"stateMutability": "view",
			"type": "function"
		},
		{
			"inputs": [],
			"name": "getRecentWinner",
			"outputs": [
				{
					"internalType": "address",
					"name": "",
					"type": "address"
				}
			],
			"stateMutability": "view",
			"type": "function"
		},
		{
			"inputs": [],
			"name": "getRequestConfirmations",
			"outputs": [
				{
					"internalType": "uint256",
					"name": "",
					"type": "uint256"
				}
			],
			"stateMutability": "pure",
			"type": "function"
		},
		{
			"inputs": [],
			"name": "getStartTime",
			"outputs": [
				{
					"internalType": "uint256",
					"name": "",
					"type": "uint256"
				}
			],
			"stateMutability": "view",
			"type": "function"
		},
		{
			"inputs": [
				{
					"internalType": "bytes",
					"name": "",
					"type": "bytes"
				}
			],
			"name": "performUpkeep",
			"outputs": [],
			"stateMutability": "nonpayable",
			"type": "function"
		},
		{
			"inputs": [
				{
					"internalType": "uint256",
					"name": "requestId",
					"type": "uint256"
				},
				{
					"internalType": "uint256[]",
					"name": "randomWords",
					"type": "uint256[]"
				}
			],
			"name": "rawFulfillRandomWords",
			"outputs": [],
			"stateMutability": "nonpayable",
			"type": "function"
		},
		{
			"inputs": [],
			"name": "startRaffle",
			"outputs": [],
			"stateMutability": "payable",
			"type": "function"
		}
	]
}