{
	"data": {
		"bytecode": {
			"linkReferences": {},
			"object": "610200604052604051620044bf380380620044bf83398181016040528101906200002a919062000336565b8a8073ffffffffffffffffffffffffffffffffffffffff1660808173ffffffffffffffffffffffffffffffffffffffff1660601b81525050508a73ffffffffffffffffffffffffffffffffffffffff1660a08173ffffffffffffffffffffffffffffffffffffffff1660601b815250508561012081815250508861010081815250508967ffffffffffffffff1660e08167ffffffffffffffff1660c01b815250508761014081815250508661016081815250506000600560006101000a81548160ff02191690836002811115620001065762000105620004f8565b5b0217905550426000819055508463ffffffff1660c08163ffffffff1660e01b815250508373ffffffffffffffffffffffffffffffffffffffff166101808173ffffffffffffffffffffffffffffffffffffffff1660601b815250508273ffffffffffffffffffffffffffffffffffffffff166101a08173ffffffffffffffffffffffffffffffffffffffff1660601b815250508173ffffffffffffffffffffffffffffffffffffffff166101c08173ffffffffffffffffffffffffffffffffffffffff1660601b815250508073ffffffffffffffffffffffffffffffffffffffff166101e08173ffffffffffffffffffffffffffffffffffffffff1660601b8152505060003073ffffffffffffffffffffffffffffffffffffffff168860405162000231906200046a565b60006040518083038185875af1925050503d806000811462000270576040519150601f19603f3d011682016040523d82523d6000602084013e62000275565b606091505b5050905080620002b1576040517ffec76e0f00000000000000000000000000000000000000000000000000000000815260040160405180910390fd5b505050505050505050505050620005b1565b600081519050620002d4816200052f565b92915050565b600081519050620002eb8162000549565b92915050565b600081519050620003028162000563565b92915050565b60008151905062000319816200057d565b92915050565b600081519050620003308162000597565b92915050565b60008060008060008060008060008060006101608c8e0312156200035f576200035e62000527565b5b60006200036f8e828f01620002c3565b9b50506020620003828e828f016200031f565b9a50506040620003958e828f01620002da565b9950506060620003a88e828f01620002f1565b9850506080620003bb8e828f01620002f1565b97505060a0620003ce8e828f01620002f1565b96505060c0620003e18e828f0162000308565b95505060e0620003f48e828f01620002c3565b945050610100620004088e828f01620002c3565b9350506101206200041c8e828f01620002c3565b925050610140620004308e828f01620002c3565b9150509295989b509295989b9093969950565b60006200045260008362000481565b91506200045f826200052c565b600082019050919050565b6000620004778262000443565b9150819050919050565b600081905092915050565b60006200049982620004aa565b9050919050565b6000819050919050565b600073ffffffffffffffffffffffffffffffffffffffff82169050919050565b6000819050919050565b600063ffffffff82169050919050565b600067ffffffffffffffff82169050919050565b7f4e487b7100000000000000000000000000000000000000000000000000000000600052602160045260246000fd5b600080fd5b50565b6200053a816200048c565b81146200054657600080fd5b50565b6200055481620004a0565b81146200056057600080fd5b50565b6200056e81620004ca565b81146200057a57600080fd5b50565b6200058881620004d4565b81146200059457600080fd5b50565b620005a281620004e4565b8114620005ae57600080fd5b50565b60805160601c60a05160601c60c05160e01c60e05160c01c610100516101205161014051610160516101805160601c6101a05160601c6101c05160601c6101e05160601c613cff620007c06000396000818161102c015281816111000152611476015260008181610a3401528181610ac301528181610b2401528181610f9801528181611b6d01528181611bd101528181611e1b01528181611e7c0152818161209e01528181612166015281816126360152818161269701528181612a9c01528181612afd01528181612cce0152612d2f0152600081816108c601528181610955015281816109b601528181610f2901528181611aa401528181611b0801528181611d3c01528181611d9d01528181611fd7015281816121c60152818161256d015281816125ce0152818161286a015281816128cb01528181612c050152612c66015260008181610758015281816107e70152818161084801528181610eba015281816119db01528181611a3f01528181611c5d01528181611cbe01528181612037015281816120fe01528181612485015281816124e6015281816127a101528181612802015281816129d30152612a34015260006114500152600081816104ea015281816106300152611646015260008181611093015261176e01526000610d3201526000610d5301526000610d7601526000610cf601526000818161057001526105c40152613cff6000f3fe6080604052600436106101395760003560e01c80636e04ff0d116100ab578063ad2e8c9b1161006f578063ad2e8c9b146103d2578063c828371e146103fd578063e55ae4e814610428578063efa1c48214610465578063f975cb3914610490578063fd6673f5146104bb57610140565b80636e04ff0d1461031d5780637c6d085f1461035b578063855c289c146103725780639329066c1461039d578063a3d7dd31146103c857610140565b80634585e33b116100fd5780634585e33b1461021d578063473f1ddc1461024657806348112c6f1461027157806353a2c19a1461029c5780635f1b0fd8146102c75780636846af76146102f257610140565b806309bc33a714610145578063115cbaf5146101705780631910bdc21461019b5780631fe543e3146101d85780632e519f901461020157610140565b3661014057005b600080fd5b34801561015157600080fd5b5061015a6104e6565b604051610167919061358e565b60405180910390f35b34801561017c57600080fd5b5061018561050e565b6040516101929190613573565b60405180910390f35b3480156101a757600080fd5b506101c260048036038101906101bd91906131a3565b610525565b6040516101cf919061358e565b60405180910390f35b3480156101e457600080fd5b506101ff60048036038101906101fa91906132c0565b61056e565b005b61021b60048036038101906102169190613266565b61062e565b005b34801561022957600080fd5b50610244600480360381019061023f91906131d0565b610c3e565b005b34801561025257600080fd5b5061025b610e3e565b604051610268919061348a565b60405180910390f35b34801561027d57600080fd5b50610286610e68565b60405161029391906134ce565b60405180910390f35b3480156102a857600080fd5b506102b161100c565b6040516102be919061358e565b60405180910390f35b3480156102d357600080fd5b506102dc61101b565b6040516102e9919061358e565b60405180910390f35b3480156102fe57600080fd5b50610307611028565b604051610314919061348a565b60405180910390f35b34801561032957600080fd5b50610344600480360381019061033f919061321d565b611050565b6040516103529291906134f0565b60405180910390f35b34801561036757600080fd5b506103706110fe565b005b34801561037e57600080fd5b50610387611422565b604051610394919061348a565b60405180910390f35b3480156103a957600080fd5b506103b261144c565b6040516103bf919061358e565b60405180910390f35b6103d0611474565b005b3480156103de57600080fd5b506103e761176a565b6040516103f4919061358e565b60405180910390f35b34801561040957600080fd5b50610412611792565b60405161041f919061358e565b60405180910390f35b34801561043457600080fd5b5061044f600480360381019061044a9190613266565b61179b565b60405161045c919061348a565b60405180910390f35b34801561047157600080fd5b5061047a6117e3565b60405161048791906134ce565b60405180910390f35b34801561049c57600080fd5b506104a5611871565b6040516104b2919061358e565b60405180910390f35b3480156104c757600080fd5b506104d061187b565b6040516104dd919061358e565b60405180910390f35b60007f0000000000000000000000000000000000000000000000000000000000000000905090565b6000600560009054906101000a900460ff16905090565b6000600660008373ffffffffffffffffffffffffffffffffffffffff1673ffffffffffffffffffffffffffffffffffffffff168152602001908152602001600020549050919050565b7f000000000000000000000000000000000000000000000000000000000000000073ffffffffffffffffffffffffffffffffffffffff163373ffffffffffffffffffffffffffffffffffffffff161461062057337f00000000000000000000000000000000000000000000000000000000000000006040517f1cf993f40000000000000000000000000000000000000000000000000000000081526004016106179291906134a5565b60405180910390fd5b61062a8282611888565b5050565b7f0000000000000000000000000000000000000000000000000000000000000000341015610688576040517f8f53b81300000000000000000000000000000000000000000000000000000000815260040160405180910390fd5b6000600281111561069c5761069b613bc8565b5b600560009054906101000a900460ff1660028111156106be576106bd613bc8565b5b146106f5576040517f464dde1500000000000000000000000000000000000000000000000000000000815260040160405180910390fd5b60018114158015610707575060028114155b8015610714575060038114155b1561074b576040517f47efea5a00000000000000000000000000000000000000000000000000000000815260040160405180910390fd5b60018114156108b95760007f000000000000000000000000000000000000000000000000000000000000000073ffffffffffffffffffffffffffffffffffffffff163460405161079a90613475565b60006040518083038185875af1925050503d80600081146107d7576040519150601f19603f3d011682016040523d82523d6000602084013e6107dc565b606091505b5050905080610842577f00000000000000000000000000000000000000000000000000000000000000006040517faf120e0a000000000000000000000000000000000000000000000000000000008152600401610839919061348a565b60405180910390fd5b600660007f000000000000000000000000000000000000000000000000000000000000000073ffffffffffffffffffffffffffffffffffffffff1673ffffffffffffffffffffffffffffffffffffffff16815260200190815260200160002060008154809291906108b290613af0565b9190505550505b6002811415610a275760007f000000000000000000000000000000000000000000000000000000000000000073ffffffffffffffffffffffffffffffffffffffff163460405161090890613475565b60006040518083038185875af1925050503d8060008114610945576040519150601f19603f3d011682016040523d82523d6000602084013e61094a565b606091505b50509050806109b0577f00000000000000000000000000000000000000000000000000000000000000006040517faf120e0a0000000000000000000000000000000000000000000000000000000081526004016109a7919061348a565b60405180910390fd5b600660007f000000000000000000000000000000000000000000000000000000000000000073ffffffffffffffffffffffffffffffffffffffff1673ffffffffffffffffffffffffffffffffffffffff1681526020019081526020016000206000815480929190610a2090613af0565b9190505550505b6003811415610b955760007f000000000000000000000000000000000000000000000000000000000000000073ffffffffffffffffffffffffffffffffffffffff1634604051610a7690613475565b60006040518083038185875af1925050503d8060008114610ab3576040519150601f19603f3d011682016040523d82523d6000602084013e610ab8565b606091505b5050905080610b1e577f00000000000000000000000000000000000000000000000000000000000000006040517faf120e0a000000000000000000000000000000000000000000000000000000008152600401610b15919061348a565b60405180910390fd5b600660007f000000000000000000000000000000000000000000000000000000000000000073ffffffffffffffffffffffffffffffffffffffff1673ffffffffffffffffffffffffffffffffffffffff1681526020019081526020016000206000815480929190610b8e90613af0565b9190505550505b6004339080600181540180825580915050600190039060005260206000200160009091909190916101000a81548173ffffffffffffffffffffffffffffffffffffffff021916908373ffffffffffffffffffffffffffffffffffffffff1602179055503373ffffffffffffffffffffffffffffffffffffffff167f0805e1d667bddb8a95f0f09880cf94f403fb596ce79928d9f29b74203ba284d460405160405180910390a250565b6000610c5860405180602001604052806000815250611050565b50905080610cc75747600480549050600560009054906101000a900460ff166002811115610c8957610c88613bc8565b5b6040517f1be0ea7f000000000000000000000000000000000000000000000000000000008152600401610cbe939291906135a9565b60405180910390fd5b6001600560006101000a81548160ff02191690836002811115610ced57610cec613bc8565b5b021790555060007f000000000000000000000000000000000000000000000000000000000000000073ffffffffffffffffffffffffffffffffffffffff16635d3b1d307f00000000000000000000000000000000000000000000000000000000000000007f000000000000000000000000000000000000000000000000000000000000000060037f000000000000000000000000000000000000000000000000000000000000000060046040518663ffffffff1660e01b8152600401610db7959493929190613520565b602060405180830381600087803b158015610dd157600080fd5b505af1158015610de5573d6000803e3d6000fd5b505050506040513d601f19601f82011682018060405250810190610e099190613293565b9050807fcd6e45c8998311cab7e9d4385596cac867e20a0587194b954fa3a731c93ce78b60405160405180910390a250505050565b6000600260009054906101000a900473ffffffffffffffffffffffffffffffffffffffff16905090565b60606000600367ffffffffffffffff811115610e8757610e86613c26565b5b604051908082528060200260200182016040528015610eb55781602001602082028036833780820191505090505b5090507f000000000000000000000000000000000000000000000000000000000000000081600081518110610eed57610eec613bf7565b5b602002602001019073ffffffffffffffffffffffffffffffffffffffff16908173ffffffffffffffffffffffffffffffffffffffff16815250507f000000000000000000000000000000000000000000000000000000000000000081600181518110610f5c57610f5b613bf7565b5b602002602001019073ffffffffffffffffffffffffffffffffffffffff16908173ffffffffffffffffffffffffffffffffffffffff16815250507f000000000000000000000000000000000000000000000000000000000000000081600281518110610fcb57610fca613bf7565b5b602002602001019073ffffffffffffffffffffffffffffffffffffffff16908173ffffffffffffffffffffffffffffffffffffffff16815250508091505090565b6000600463ffffffff16905090565b6000600361ffff16905090565b60007f0000000000000000000000000000000000000000000000000000000000000000905090565b600060606000600560009054906101000a900460ff16600281111561107857611077613bc8565b5b6000600281111561108c5761108b613bc8565b5b14905060007f0000000000000000000000000000000000000000000000000000000000000000600054426110c09190613904565b10159050600080600480549050119050600080471190508380156110e15750825b80156110ea5750805b80156110f35750815b955050505050915091565b7f000000000000000000000000000000000000000000000000000000000000000073ffffffffffffffffffffffffffffffffffffffff163373ffffffffffffffffffffffffffffffffffffffff1614611183576040517f5353493a00000000000000000000000000000000000000000000000000000000815260040160405180910390fd5b600073ffffffffffffffffffffffffffffffffffffffff16600360009054906101000a900473ffffffffffffffffffffffffffffffffffffffff1673ffffffffffffffffffffffffffffffffffffffff16141561120c576040517f9f9214bd00000000000000000000000000000000000000000000000000000000815260040160405180910390fd5b60028081111561121f5761121e613bc8565b5b600560009054906101000a900460ff16600281111561124157611240613bc8565b5b14611278576040517fb106f93000000000000000000000000000000000000000000000000000000000815260040160405180910390fd5b600360149054906101000a900460ff166112be576040517ff4190db300000000000000000000000000000000000000000000000000000000815260040160405180910390fd5b600047116112f7576040517e8ca0ca00000000000000000000000000000000000000000000000000000000815260040160405180910390fd5b6000600360009054906101000a900473ffffffffffffffffffffffffffffffffffffffff1690506000600360006101000a81548173ffffffffffffffffffffffffffffffffffffffff021916908373ffffffffffffffffffffffffffffffffffffffff1602179055506000600360146101000a81548160ff02191690831515021790555060008173ffffffffffffffffffffffffffffffffffffffff16476040516113a190613475565b60006040518083038185875af1925050503d80600081146113de576040519150601f19603f3d011682016040523d82523d6000602084013e6113e3565b606091505b505090508061141e576040517fbfabdd9900000000000000000000000000000000000000000000000000000000815260040160405180910390fd5b5050565b6000600360009054906101000a900473ffffffffffffffffffffffffffffffffffffffff16905090565b60007f0000000000000000000000000000000000000000000000000000000000000000905090565b7f000000000000000000000000000000000000000000000000000000000000000073ffffffffffffffffffffffffffffffffffffffff163373ffffffffffffffffffffffffffffffffffffffff16146114f9576040517f5353493a00000000000000000000000000000000000000000000000000000000815260040160405180910390fd5b600073ffffffffffffffffffffffffffffffffffffffff16600360009054906101000a900473ffffffffffffffffffffffffffffffffffffffff1673ffffffffffffffffffffffffffffffffffffffff161415611582576040517f9f9214bd00000000000000000000000000000000000000000000000000000000815260040160405180910390fd5b60028081111561159557611594613bc8565b5b600560009054906101000a900460ff1660028111156115b7576115b6613bc8565b5b146115ee576040517fb106f93000000000000000000000000000000000000000000000000000000000815260040160405180910390fd5b600360149054906101000a900460ff1615611635576040517f908d486e00000000000000000000000000000000000000000000000000000000815260040160405180910390fd5b6000600154905060006001819055507f0000000000000000000000000000000000000000000000000000000000000000816116709190613816565b34146116a8576040517fe696788b00000000000000000000000000000000000000000000000000000000815260040160405180910390fd5b6001600360146101000a81548160ff02191690831515021790555060003073ffffffffffffffffffffffffffffffffffffffff16346040516116e990613475565b60006040518083038185875af1925050503d8060008114611726576040519150601f19603f3d011682016040523d82523d6000602084013e61172b565b606091505b5050905080611766576040517ff4190db300000000000000000000000000000000000000000000000000000000815260040160405180910390fd5b5050565b60007f0000000000000000000000000000000000000000000000000000000000000000905090565b60008054905090565b6000600482815481106117b1576117b0613bf7565b5b9060005260206000200160009054906101000a900473ffffffffffffffffffffffffffffffffffffffff169050919050565b6060600480548060200260200160405190810160405280929190818152602001828054801561186757602002820191906000526020600020905b8160009054906101000a900473ffffffffffffffffffffffffffffffffffffffff1673ffffffffffffffffffffffffffffffffffffffff168152602001906001019080831161181d575b5050505050905090565b6000600154905090565b6000600480549050905090565b6000600480549050826000815181106118a4576118a3613bf7565b5b60200260200101516118b69190613b39565b90506000600482815481106118ce576118cd613bf7565b5b9060005260206000200160009054906101000a900473ffffffffffffffffffffffffffffffffffffffff16905080600260006101000a81548173ffffffffffffffffffffffffffffffffffffffff021916908373ffffffffffffffffffffffffffffffffffffffff160217905550600067ffffffffffffffff81111561195757611956613c26565b5b6040519080825280602002602001820160405280156119855781602001602082028036833780820191505090505b506004908051906020019061199b929190612f59565b506002600560006101000a81548160ff021916908360028111156119c2576119c1613bc8565b5b021790555060006119d1611fcf565b90506000600660007f000000000000000000000000000000000000000000000000000000000000000073ffffffffffffffffffffffffffffffffffffffff1673ffffffffffffffffffffffffffffffffffffffff1681526020019081526020016000205490506000600660007f000000000000000000000000000000000000000000000000000000000000000073ffffffffffffffffffffffffffffffffffffffff1673ffffffffffffffffffffffffffffffffffffffff168152602001908152602001600020819055506000600660007f000000000000000000000000000000000000000000000000000000000000000073ffffffffffffffffffffffffffffffffffffffff1673ffffffffffffffffffffffffffffffffffffffff1681526020019081526020016000205490506000600660007f000000000000000000000000000000000000000000000000000000000000000073ffffffffffffffffffffffffffffffffffffffff1673ffffffffffffffffffffffffffffffffffffffff168152602001908152602001600020819055506000600660007f000000000000000000000000000000000000000000000000000000000000000073ffffffffffffffffffffffffffffffffffffffff1673ffffffffffffffffffffffffffffffffffffffff1681526020019081526020016000205490506000600660007f000000000000000000000000000000000000000000000000000000000000000073ffffffffffffffffffffffffffffffffffffffff1673ffffffffffffffffffffffffffffffffffffffff168152602001908152602001600020819055508315611c4157611c4087848484612234565b5b8183118015611c4f57508083115b15611d2057826001819055507f0000000000000000000000000000000000000000000000000000000000000000600360006101000a81548173ffffffffffffffffffffffffffffffffffffffff021916908373ffffffffffffffffffffffffffffffffffffffff1602179055507f000000000000000000000000000000000000000000000000000000000000000073ffffffffffffffffffffffffffffffffffffffff167f3c87360dce5c6f26147daf6a9e168e80a4c7199e9aa7cbd7a874094804c361b460405160405180910390a25b8282118015611d2e57508082115b15611dff57816001819055507f0000000000000000000000000000000000000000000000000000000000000000600360006101000a81548173ffffffffffffffffffffffffffffffffffffffff021916908373ffffffffffffffffffffffffffffffffffffffff1602179055507f000000000000000000000000000000000000000000000000000000000000000073ffffffffffffffffffffffffffffffffffffffff167f3c87360dce5c6f26147daf6a9e168e80a4c7199e9aa7cbd7a874094804c361b460405160405180910390a25b8281118015611e0d57508181115b15611ede57806001819055507f0000000000000000000000000000000000000000000000000000000000000000600360006101000a81548173ffffffffffffffffffffffffffffffffffffffff021916908373ffffffffffffffffffffffffffffffffffffffff1602179055507f000000000000000000000000000000000000000000000000000000000000000073ffffffffffffffffffffffffffffffffffffffff167f3c87360dce5c6f26147daf6a9e168e80a4c7199e9aa7cbd7a874094804c361b460405160405180910390a25b60008573ffffffffffffffffffffffffffffffffffffffff1647604051611f0490613475565b60006040518083038185875af1925050503d8060008114611f41576040519150601f19603f3d011682016040523d82523d6000602084013e611f46565b606091505b5050905080611f81576040517f829a2ec900000000000000000000000000000000000000000000000000000000815260040160405180910390fd5b8573ffffffffffffffffffffffffffffffffffffffff167f5b690ec4a06fe979403046eaeea5b3ce38524683c3001f662c8b5a829632f7df60405160405180910390a2505050505050505050565b6000600660007f000000000000000000000000000000000000000000000000000000000000000073ffffffffffffffffffffffffffffffffffffffff1673ffffffffffffffffffffffffffffffffffffffff16815260200190815260200160002054600660007f000000000000000000000000000000000000000000000000000000000000000073ffffffffffffffffffffffffffffffffffffffff1673ffffffffffffffffffffffffffffffffffffffff16815260200190815260200160002054148061215a5750600660007f000000000000000000000000000000000000000000000000000000000000000073ffffffffffffffffffffffffffffffffffffffff1673ffffffffffffffffffffffffffffffffffffffff16815260200190815260200160002054600660007f000000000000000000000000000000000000000000000000000000000000000073ffffffffffffffffffffffffffffffffffffffff1673ffffffffffffffffffffffffffffffffffffffff16815260200190815260200160002054145b806122225750600660007f000000000000000000000000000000000000000000000000000000000000000073ffffffffffffffffffffffffffffffffffffffff1673ffffffffffffffffffffffffffffffffffffffff16815260200190815260200160002054600660007f000000000000000000000000000000000000000000000000000000000000000073ffffffffffffffffffffffffffffffffffffffff1673ffffffffffffffffffffffffffffffffffffffff16815260200190815260200160002054145b156122305760019050612231565b5b90565b6000600367ffffffffffffffff81111561225157612250613c26565b5b60405190808252806020026020018201604052801561227f5781602001602082028036833780820191505090505b509050838160008151811061229757612296613bf7565b5b60200260200101818152505082816001815181106122b8576122b7613bf7565b5b60200260200101818152505081816002815181106122d9576122d8613bf7565b5b60200260200101818152505060006122f082612d9a565b90508060028151811061230657612305613bf7565b5b6020026020010151600181905550838514801561232257508285145b156126fc578560018151811061233b5761233a613bf7565b5b60200260200101518561234e9190613756565b94508560028151811061236457612363613bf7565b5b6020026020010151846123779190613756565b93508560038151811061238d5761238c613bf7565b5b6020026020010151836123a09190613756565b92506000600367ffffffffffffffff8111156123bf576123be613c26565b5b6040519080825280602002602001820160405280156123ed5781602001602082028036833780820191505090505b509050858160008151811061240557612404613bf7565b5b602002602001018181525050848160018151811061242657612425613bf7565b5b602002602001018181525050838160028151811061244757612446613bf7565b5b602002602001018181525050600061245e82612d9a565b9050868160028151811061247557612474613bf7565b5b60200260200101511415612548577f0000000000000000000000000000000000000000000000000000000000000000600360006101000a81548173ffffffffffffffffffffffffffffffffffffffff021916908373ffffffffffffffffffffffffffffffffffffffff1602179055507f000000000000000000000000000000000000000000000000000000000000000073ffffffffffffffffffffffffffffffffffffffff167f3c87360dce5c6f26147daf6a9e168e80a4c7199e9aa7cbd7a874094804c361b460405160405180910390a25b858160028151811061255d5761255c613bf7565b5b60200260200101511415612634577f0000000000000000000000000000000000000000000000000000000000000000600360006101000a81548173ffffffffffffffffffffffffffffffffffffffff021916908373ffffffffffffffffffffffffffffffffffffffff1602179055507f000000000000000000000000000000000000000000000000000000000000000073ffffffffffffffffffffffffffffffffffffffff167f3c87360dce5c6f26147daf6a9e168e80a4c7199e9aa7cbd7a874094804c361b460405160405180910390a26126f9565b7f0000000000000000000000000000000000000000000000000000000000000000600360006101000a81548173ffffffffffffffffffffffffffffffffffffffff021916908373ffffffffffffffffffffffffffffffffffffffff1602179055507f000000000000000000000000000000000000000000000000000000000000000073ffffffffffffffffffffffffffffffffffffffff167f3c87360dce5c6f26147daf6a9e168e80a4c7199e9aa7cbd7a874094804c361b460405160405180910390a25b50505b848160028151811061271157612710613bf7565b5b60200260200101511480156127405750838160028151811061273657612735613bf7565b5b6020026020010151145b1561292e578560018151811061275957612758613bf7565b5b60200260200101518561276c9190613756565b94508560028151811061278257612781613bf7565b5b6020026020010151846127959190613756565b935083851115612868577f0000000000000000000000000000000000000000000000000000000000000000600360006101000a81548173ffffffffffffffffffffffffffffffffffffffff021916908373ffffffffffffffffffffffffffffffffffffffff1602179055507f000000000000000000000000000000000000000000000000000000000000000073ffffffffffffffffffffffffffffffffffffffff167f3c87360dce5c6f26147daf6a9e168e80a4c7199e9aa7cbd7a874094804c361b460405160405180910390a261292d565b7f0000000000000000000000000000000000000000000000000000000000000000600360006101000a81548173ffffffffffffffffffffffffffffffffffffffff021916908373ffffffffffffffffffffffffffffffffffffffff1602179055507f000000000000000000000000000000000000000000000000000000000000000073ffffffffffffffffffffffffffffffffffffffff167f3c87360dce5c6f26147daf6a9e168e80a4c7199e9aa7cbd7a874094804c361b460405160405180910390a25b5b848160028151811061294357612942613bf7565b5b60200260200101511480156129725750828160028151811061296857612967613bf7565b5b6020026020010151145b15612b60578560018151811061298b5761298a613bf7565b5b60200260200101518561299e9190613756565b9450856002815181106129b4576129b3613bf7565b5b6020026020010151836129c79190613756565b925082851115612a9a577f0000000000000000000000000000000000000000000000000000000000000000600360006101000a81548173ffffffffffffffffffffffffffffffffffffffff021916908373ffffffffffffffffffffffffffffffffffffffff1602179055507f000000000000000000000000000000000000000000000000000000000000000073ffffffffffffffffffffffffffffffffffffffff167f3c87360dce5c6f26147daf6a9e168e80a4c7199e9aa7cbd7a874094804c361b460405160405180910390a2612b5f565b7f0000000000000000000000000000000000000000000000000000000000000000600360006101000a81548173ffffffffffffffffffffffffffffffffffffffff021916908373ffffffffffffffffffffffffffffffffffffffff1602179055507f000000000000000000000000000000000000000000000000000000000000000073ffffffffffffffffffffffffffffffffffffffff167f3c87360dce5c6f26147daf6a9e168e80a4c7199e9aa7cbd7a874094804c361b460405160405180910390a25b5b8381600281518110612b7557612b74613bf7565b5b6020026020010151148015612ba457508281600281518110612b9a57612b99613bf7565b5b6020026020010151145b15612d925785600181518110612bbd57612bbc613bf7565b5b602002602001015184612bd09190613756565b935085600281518110612be657612be5613bf7565b5b602002602001015183612bf99190613756565b925082841115612ccc577f0000000000000000000000000000000000000000000000000000000000000000600360006101000a81548173ffffffffffffffffffffffffffffffffffffffff021916908373ffffffffffffffffffffffffffffffffffffffff1602179055507f000000000000000000000000000000000000000000000000000000000000000073ffffffffffffffffffffffffffffffffffffffff167f3c87360dce5c6f26147daf6a9e168e80a4c7199e9aa7cbd7a874094804c361b460405160405180910390a2612d91565b7f0000000000000000000000000000000000000000000000000000000000000000600360006101000a81548173ffffffffffffffffffffffffffffffffffffffff021916908373ffffffffffffffffffffffffffffffffffffffff1602179055507f000000000000000000000000000000000000000000000000000000000000000073ffffffffffffffffffffffffffffffffffffffff167f3c87360dce5c6f26147daf6a9e168e80a4c7199e9aa7cbd7a874094804c361b460405160405180910390a25b5b505050505050565b6060612db582600060018551612db09190613904565b612dbd565b819050919050565b6000829050600082905080821415612dd6575050612f54565b60008560028686612de79190613870565b612df191906137ac565b86612dfc91906136c2565b81518110612e0d57612e0c613bf7565b5b602002602001015190505b818313612f28575b80868481518110612e3457612e33613bf7565b5b60200260200101511015612e55578280612e4d90613aa7565b935050612e20565b5b858281518110612e6957612e68613bf7565b5b6020026020010151811015612e8b578180612e8390613a2d565b925050612e56565b818313612f2357858281518110612ea557612ea4613bf7565b5b6020026020010151868481518110612ec057612ebf613bf7565b5b6020026020010151878581518110612edb57612eda613bf7565b5b60200260200101888581518110612ef557612ef4613bf7565b5b60200260200101828152508281525050508280612f1190613aa7565b9350508180612f1f90613a2d565b9250505b612e18565b81851215612f3c57612f3b868684612dbd565b5b83831215612f5057612f4f868486612dbd565b5b5050505b505050565b828054828255906000526020600020908101928215612fd2579160200282015b82811115612fd15782518260006101000a81548173ffffffffffffffffffffffffffffffffffffffff021916908373ffffffffffffffffffffffffffffffffffffffff16021790555091602001919060010190612f79565b5b509050612fdf9190612fe3565b5090565b5b80821115612ffc576000816000905550600101612fe4565b5090565b600061301361300e84613605565b6135e0565b9050808382526020820190508285602086028201111561303657613035613c5f565b5b60005b85811015613066578161304c8882613179565b845260208401935060208301925050600181019050613039565b5050509392505050565b600061308361307e84613631565b6135e0565b90508281526020810184848401111561309f5761309e613c64565b5b6130aa8482856139eb565b509392505050565b6000813590506130c181613c9b565b92915050565b600082601f8301126130dc576130db613c5a565b5b81356130ec848260208601613000565b91505092915050565b60008083601f84011261310b5761310a613c5a565b5b8235905067ffffffffffffffff81111561312857613127613c55565b5b60208301915083600182028301111561314457613143613c5f565b5b9250929050565b600082601f8301126131605761315f613c5a565b5b8135613170848260208601613070565b91505092915050565b60008135905061318881613cb2565b92915050565b60008151905061319d81613cb2565b92915050565b6000602082840312156131b9576131b8613c6e565b5b60006131c7848285016130b2565b91505092915050565b600080602083850312156131e7576131e6613c6e565b5b600083013567ffffffffffffffff81111561320557613204613c69565b5b613211858286016130f5565b92509250509250929050565b60006020828403121561323357613232613c6e565b5b600082013567ffffffffffffffff81111561325157613250613c69565b5b61325d8482850161314b565b91505092915050565b60006020828403121561327c5761327b613c6e565b5b600061328a84828501613179565b91505092915050565b6000602082840312156132a9576132a8613c6e565b5b60006132b78482850161318e565b91505092915050565b600080604083850312156132d7576132d6613c6e565b5b60006132e585828601613179565b925050602083013567ffffffffffffffff81111561330657613305613c69565b5b613312858286016130c7565b9150509250929050565b60006133288383613334565b60208301905092915050565b61333d81613938565b82525050565b61334c81613938565b82525050565b600061335d82613672565b6133678185613695565b935061337283613662565b8060005b838110156133a357815161338a888261331c565b975061339583613688565b925050600181019050613376565b5085935050505092915050565b6133b98161394a565b82525050565b6133c881613956565b82525050565b60006133d98261367d565b6133e381856136a6565b93506133f38185602086016139fa565b6133fc81613c73565b840191505092915050565b613410816139d9565b82525050565b60006134236000836136b7565b915061342e82613c84565b600082019050919050565b6134428161397d565b82525050565b613451816139ab565b82525050565b613460816139b5565b82525050565b61346f816139c5565b82525050565b600061348082613416565b9150819050919050565b600060208201905061349f6000830184613343565b92915050565b60006040820190506134ba6000830185613343565b6134c76020830184613343565b9392505050565b600060208201905081810360008301526134e88184613352565b905092915050565b600060408201905061350560008301856133b0565b818103602083015261351781846133ce565b90509392505050565b600060a08201905061353560008301886133bf565b6135426020830187613466565b61354f6040830186613439565b61355c6060830185613457565b6135696080830184613457565b9695505050505050565b60006020820190506135886000830184613407565b92915050565b60006020820190506135a36000830184613448565b92915050565b60006060820190506135be6000830186613448565b6135cb6020830185613448565b6135d86040830184613448565b949350505050565b60006135ea6135fb565b90506135f68282613a76565b919050565b6000604051905090565b600067ffffffffffffffff8211156136205761361f613c26565b5b602082029050602081019050919050565b600067ffffffffffffffff82111561364c5761364b613c26565b5b61365582613c73565b9050602081019050919050565b6000819050602082019050919050565b600081519050919050565b600081519050919050565b6000602082019050919050565b600082825260208201905092915050565b600082825260208201905092915050565b600081905092915050565b60006136cd82613973565b91506136d883613973565b9250817f7fffffffffffffffffffffffffffffffffffffffffffffffffffffffffffffff0383136000831215161561371357613712613b6a565b5b817f800000000000000000000000000000000000000000000000000000000000000003831260008312161561374b5761374a613b6a565b5b828201905092915050565b6000613761826139ab565b915061376c836139ab565b9250827fffffffffffffffffffffffffffffffffffffffffffffffffffffffffffffffff038211156137a1576137a0613b6a565b5b828201905092915050565b60006137b782613973565b91506137c283613973565b9250826137d2576137d1613b99565b5b600160000383147f80000000000000000000000000000000000000000000000000000000000000008314161561380b5761380a613b6a565b5b828205905092915050565b6000613821826139ab565b915061382c836139ab565b9250817fffffffffffffffffffffffffffffffffffffffffffffffffffffffffffffffff048311821515161561386557613864613b6a565b5b828202905092915050565b600061387b82613973565b915061388683613973565b9250827f8000000000000000000000000000000000000000000000000000000000000000018212600084121516156138c1576138c0613b6a565b5b827f7fffffffffffffffffffffffffffffffffffffffffffffffffffffffffffffff0182136000841216156138f9576138f8613b6a565b5b828203905092915050565b600061390f826139ab565b915061391a836139ab565b92508282101561392d5761392c613b6a565b5b828203905092915050565b60006139438261398b565b9050919050565b60008115159050919050565b6000819050919050565b600081905061396e82613c87565b919050565b6000819050919050565b600061ffff82169050919050565b600073ffffffffffffffffffffffffffffffffffffffff82169050919050565b6000819050919050565b600063ffffffff82169050919050565b600067ffffffffffffffff82169050919050565b60006139e482613960565b9050919050565b82818337600083830152505050565b60005b83811015613a185780820151818401526020810190506139fd565b83811115613a27576000848401525b50505050565b6000613a3882613973565b91507f8000000000000000000000000000000000000000000000000000000000000000821415613a6b57613a6a613b6a565b5b600182039050919050565b613a7f82613c73565b810181811067ffffffffffffffff82111715613a9e57613a9d613c26565b5b80604052505050565b6000613ab282613973565b91507f7fffffffffffffffffffffffffffffffffffffffffffffffffffffffffffffff821415613ae557613ae4613b6a565b5b600182019050919050565b6000613afb826139ab565b91507fffffffffffffffffffffffffffffffffffffffffffffffffffffffffffffffff821415613b2e57613b2d613b6a565b5b600182019050919050565b6000613b44826139ab565b9150613b4f836139ab565b925082613b5f57613b5e613b99565b5b828206905092915050565b7f4e487b7100000000000000000000000000000000000000000000000000000000600052601160045260246000fd5b7f4e487b7100000000000000000000000000000000000000000000000000000000600052601260045260246000fd5b7f4e487b7100000000000000000000000000000000000000000000000000000000600052602160045260246000fd5b7f4e487b7100000000000000000000000000000000000000000000000000000000600052603260045260246000fd5b7f4e487b7100000000000000000000000000000000000000000000000000000000600052604160045260246000fd5b600080fd5b600080fd5b600080fd5b600080fd5b600080fd5b600080fd5b6000601f19601f8301169050919050565b50565b60038110613c9857613c97613bc8565b5b50565b613ca481613938565b8114613caf57600080fd5b50565b613cbb816139ab565b8114613cc657600080fd5b5056fea26469706673582212203ef2b05cabecb1bbc36bf84fb1d39b6b4345b3fb479001d16ac163519f8412dc64736f6c63430008070033",
			"opcodes": "PUSH2 0x200 PUSH1 0x40 MSTORE PUSH1 0x40 MLOAD PUSH3 0x44BF CODESIZE SUB DUP1 PUSH3 0x44BF DUP4 CODECOPY DUP2 DUP2 ADD PUSH1 0x40 MSTORE DUP2 ADD SWAP1 PUSH3 0x2A SWAP2 SWAP1 PUSH3 0x336 JUMP JUMPDEST DUP11 DUP1 PUSH20 0xFFFFFFFFFFFFFFFFFFFFFFFFFFFFFFFFFFFFFFFF AND PUSH1 0x80 DUP2 PUSH20 0xFFFFFFFFFFFFFFFFFFFFFFFFFFFFFFFFFFFFFFFF AND PUSH1 0x60 SHL DUP2 MSTORE POP POP POP DUP11 PUSH20 0xFFFFFFFFFFFFFFFFFFFFFFFFFFFFFFFFFFFFFFFF AND PUSH1 0xA0 DUP2 PUSH20 0xFFFFFFFFFFFFFFFFFFFFFFFFFFFFFFFFFFFFFFFF AND PUSH1 0x60 SHL DUP2 MSTORE POP POP DUP6 PUSH2 0x120 DUP2 DUP2 MSTORE POP POP DUP9 PUSH2 0x100 DUP2 DUP2 MSTORE POP POP DUP10 PUSH8 0xFFFFFFFFFFFFFFFF AND PUSH1 0xE0 DUP2 PUSH8 0xFFFFFFFFFFFFFFFF AND PUSH1 0xC0 SHL DUP2 MSTORE POP POP DUP8 PUSH2 0x140 DUP2 DUP2 MSTORE POP POP DUP7 PUSH2 0x160 DUP2 DUP2 MSTORE POP POP PUSH1 0x0 PUSH1 0x5 PUSH1 0x0 PUSH2 0x100 EXP DUP2 SLOAD DUP2 PUSH1 0xFF MUL NOT AND SWAP1 DUP4 PUSH1 0x2 DUP2 GT ISZERO PUSH3 0x106 JUMPI PUSH3 0x105 PUSH3 0x4F8 JUMP JUMPDEST JUMPDEST MUL OR SWAP1 SSTORE POP TIMESTAMP PUSH1 0x0 DUP2 SWAP1 SSTORE POP DUP5 PUSH4 0xFFFFFFFF AND PUSH1 0xC0 DUP2 PUSH4 0xFFFFFFFF AND PUSH1 0xE0 SHL DUP2 MSTORE POP POP DUP4 PUSH20 0xFFFFFFFFFFFFFFFFFFFFFFFFFFFFFFFFFFFFFFFF AND PUSH2 0x180 DUP2 PUSH20 0xFFFFFFFFFFFFFFFFFFFFFFFFFFFFFFFFFFFFFFFF AND PUSH1 0x60 SHL DUP2 MSTORE POP POP DUP3 PUSH20 0xFFFFFFFFFFFFFFFFFFFFFFFFFFFFFFFFFFFFFFFF AND PUSH2 0x1A0 DUP2 PUSH20 0xFFFFFFFFFFFFFFFFFFFFFFFFFFFFFFFFFFFFFFFF AND PUSH1 0x60 SHL DUP2 MSTORE POP POP DUP2 PUSH20 0xFFFFFFFFFFFFFFFFFFFFFFFFFFFFFFFFFFFFFFFF AND PUSH2 0x1C0 DUP2 PUSH20 0xFFFFFFFFFFFFFFFFFFFFFFFFFFFFFFFFFFFFFFFF AND PUSH1 0x60 SHL DUP2 MSTORE POP POP DUP1 PUSH20 0xFFFFFFFFFFFFFFFFFFFFFFFFFFFFFFFFFFFFFFFF AND PUSH2 0x1E0 DUP2 PUSH20 0xFFFFFFFFFFFFFFFFFFFFFFFFFFFFFFFFFFFFFFFF AND PUSH1 0x60 SHL DUP2 MSTORE POP POP PUSH1 0x0 ADDRESS PUSH20 0xFFFFFFFFFFFFFFFFFFFFFFFFFFFFFFFFFFFFFFFF AND DUP9 PUSH1 0x40 MLOAD PUSH3 0x231 SWAP1 PUSH3 0x46A JUMP JUMPDEST PUSH1 0x0 PUSH1 0x40 MLOAD DUP1 DUP4 SUB DUP2 DUP6 DUP8 GAS CALL SWAP3 POP POP POP RETURNDATASIZE DUP1 PUSH1 0x0 DUP2 EQ PUSH3 0x270 JUMPI PUSH1 0x40 MLOAD SWAP2 POP PUSH1 0x1F NOT PUSH1 0x3F RETURNDATASIZE ADD AND DUP3 ADD PUSH1 0x40 MSTORE RETURNDATASIZE DUP3 MSTORE RETURNDATASIZE PUSH1 0x0 PUSH1 0x20 DUP5 ADD RETURNDATACOPY PUSH3 0x275 JUMP JUMPDEST PUSH1 0x60 SWAP2 POP JUMPDEST POP POP SWAP1 POP DUP1 PUSH3 0x2B1 JUMPI PUSH1 0x40 MLOAD PUSH32 0xFEC76E0F00000000000000000000000000000000000000000000000000000000 DUP2 MSTORE PUSH1 0x4 ADD PUSH1 0x40 MLOAD DUP1 SWAP2 SUB SWAP1 REVERT JUMPDEST POP POP POP POP POP POP POP POP POP POP POP POP PUSH3 0x5B1 JUMP JUMPDEST PUSH1 0x0 DUP2 MLOAD SWAP1 POP PUSH3 0x2D4 DUP2 PUSH3 0x52F JUMP JUMPDEST SWAP3 SWAP2 POP POP JUMP JUMPDEST PUSH1 0x0 DUP2 MLOAD SWAP1 POP PUSH3 0x2EB DUP2 PUSH3 0x549 JUMP JUMPDEST SWAP3 SWAP2 POP POP JUMP JUMPDEST PUSH1 0x0 DUP2 MLOAD SWAP1 POP PUSH3 0x302 DUP2 PUSH3 0x563 JUMP JUMPDEST SWAP3 SWAP2 POP POP JUMP JUMPDEST PUSH1 0x0 DUP2 MLOAD SWAP1 POP PUSH3 0x319 DUP2 PUSH3 0x57D JUMP JUMPDEST SWAP3 SWAP2 POP POP JUMP JUMPDEST PUSH1 0x0 DUP2 MLOAD SWAP1 POP PUSH3 0x330 DUP2 PUSH3 0x597 JUMP JUMPDEST SWAP3 SWAP2 POP POP JUMP JUMPDEST PUSH1 0x0 DUP1 PUSH1 0x0 DUP1 PUSH1 0x0 DUP1 PUSH1 0x0 DUP1 PUSH1 0x0 DUP1 PUSH1 0x0 PUSH2 0x160 DUP13 DUP15 SUB SLT ISZERO PUSH3 0x35F JUMPI PUSH3 0x35E PUSH3 0x527 JUMP JUMPDEST JUMPDEST PUSH1 0x0 PUSH3 0x36F DUP15 DUP3 DUP16 ADD PUSH3 0x2C3 JUMP JUMPDEST SWAP12 POP POP PUSH1 0x20 PUSH3 0x382 DUP15 DUP3 DUP16 ADD PUSH3 0x31F JUMP JUMPDEST SWAP11 POP POP PUSH1 0x40 PUSH3 0x395 DUP15 DUP3 DUP16 ADD PUSH3 0x2DA JUMP JUMPDEST SWAP10 POP POP PUSH1 0x60 PUSH3 0x3A8 DUP15 DUP3 DUP16 ADD PUSH3 0x2F1 JUMP JUMPDEST SWAP9 POP POP PUSH1 0x80 PUSH3 0x3BB DUP15 DUP3 DUP16 ADD PUSH3 0x2F1 JUMP JUMPDEST SWAP8 POP POP PUSH1 0xA0 PUSH3 0x3CE DUP15 DUP3 DUP16 ADD PUSH3 0x2F1 JUMP JUMPDEST SWAP7 POP POP PUSH1 0xC0 PUSH3 0x3E1 DUP15 DUP3 DUP16 ADD PUSH3 0x308 JUMP JUMPDEST SWAP6 POP POP PUSH1 0xE0 PUSH3 0x3F4 DUP15 DUP3 DUP16 ADD PUSH3 0x2C3 JUMP JUMPDEST SWAP5 POP POP PUSH2 0x100 PUSH3 0x408 DUP15 DUP3 DUP16 ADD PUSH3 0x2C3 JUMP JUMPDEST SWAP4 POP POP PUSH2 0x120 PUSH3 0x41C DUP15 DUP3 DUP16 ADD PUSH3 0x2C3 JUMP JUMPDEST SWAP3 POP POP PUSH2 0x140 PUSH3 0x430 DUP15 DUP3 DUP16 ADD PUSH3 0x2C3 JUMP JUMPDEST SWAP2 POP POP SWAP3 SWAP6 SWAP9 SWAP12 POP SWAP3 SWAP6 SWAP9 SWAP12 SWAP1 SWAP4 SWAP7 SWAP10 POP JUMP JUMPDEST PUSH1 0x0 PUSH3 0x452 PUSH1 0x0 DUP4 PUSH3 0x481 JUMP JUMPDEST SWAP2 POP PUSH3 0x45F DUP3 PUSH3 0x52C JUMP JUMPDEST PUSH1 0x0 DUP3 ADD SWAP1 POP SWAP2 SWAP1 POP JUMP JUMPDEST PUSH1 0x0 PUSH3 0x477 DUP3 PUSH3 0x443 JUMP JUMPDEST SWAP2 POP DUP2 SWAP1 POP SWAP2 SWAP1 POP JUMP JUMPDEST PUSH1 0x0 DUP2 SWAP1 POP SWAP3 SWAP2 POP POP JUMP JUMPDEST PUSH1 0x0 PUSH3 0x499 DUP3 PUSH3 0x4AA JUMP JUMPDEST SWAP1 POP SWAP2 SWAP1 POP JUMP JUMPDEST PUSH1 0x0 DUP2 SWAP1 POP SWAP2 SWAP1 POP JUMP JUMPDEST PUSH1 0x0 PUSH20 0xFFFFFFFFFFFFFFFFFFFFFFFFFFFFFFFFFFFFFFFF DUP3 AND SWAP1 POP SWAP2 SWAP1 POP JUMP JUMPDEST PUSH1 0x0 DUP2 SWAP1 POP SWAP2 SWAP1 POP JUMP JUMPDEST PUSH1 0x0 PUSH4 0xFFFFFFFF DUP3 AND SWAP1 POP SWAP2 SWAP1 POP JUMP JUMPDEST PUSH1 0x0 PUSH8 0xFFFFFFFFFFFFFFFF DUP3 AND SWAP1 POP SWAP2 SWAP1 POP JUMP JUMPDEST PUSH32 0x4E487B7100000000000000000000000000000000000000000000000000000000 PUSH1 0x0 MSTORE PUSH1 0x21 PUSH1 0x4 MSTORE PUSH1 0x24 PUSH1 0x0 REVERT JUMPDEST PUSH1 0x0 DUP1 REVERT JUMPDEST POP JUMP JUMPDEST PUSH3 0x53A DUP2 PUSH3 0x48C JUMP JUMPDEST DUP2 EQ PUSH3 0x546 JUMPI PUSH1 0x0 DUP1 REVERT JUMPDEST POP JUMP JUMPDEST PUSH3 0x554 DUP2 PUSH3 0x4A0 JUMP JUMPDEST DUP2 EQ PUSH3 0x560 JUMPI PUSH1 0x0 DUP1 REVERT JUMPDEST POP JUMP JUMPDEST PUSH3 0x56E DUP2 PUSH3 0x4CA JUMP JUMPDEST DUP2 EQ PUSH3 0x57A JUMPI PUSH1 0x0 DUP1 REVERT JUMPDEST POP JUMP JUMPDEST PUSH3 0x588 DUP2 PUSH3 0x4D4 JUMP JUMPDEST DUP2 EQ PUSH3 0x594 JUMPI PUSH1 0x0 DUP1 REVERT JUMPDEST POP JUMP JUMPDEST PUSH3 0x5A2 DUP2 PUSH3 0x4E4 JUMP JUMPDEST DUP2 EQ PUSH3 0x5AE JUMPI PUSH1 0x0 DUP1 REVERT JUMPDEST POP JUMP JUMPDEST PUSH1 0x80 MLOAD PUSH1 0x60 SHR PUSH1 0xA0 MLOAD PUSH1 0x60 SHR PUSH1 0xC0 MLOAD PUSH1 0xE0 SHR PUSH1 0xE0 MLOAD PUSH1 0xC0 SHR PUSH2 0x100 MLOAD PUSH2 0x120 MLOAD PUSH2 0x140 MLOAD PUSH2 0x160 MLOAD PUSH2 0x180 MLOAD PUSH1 0x60 SHR PUSH2 0x1A0 MLOAD PUSH1 0x60 SHR PUSH2 0x1C0 MLOAD PUSH1 0x60 SHR PUSH2 0x1E0 MLOAD PUSH1 0x60 SHR PUSH2 0x3CFF PUSH3 0x7C0 PUSH1 0x0 CODECOPY PUSH1 0x0 DUP2 DUP2 PUSH2 0x102C ADD MSTORE DUP2 DUP2 PUSH2 0x1100 ADD MSTORE PUSH2 0x1476 ADD MSTORE PUSH1 0x0 DUP2 DUP2 PUSH2 0xA34 ADD MSTORE DUP2 DUP2 PUSH2 0xAC3 ADD MSTORE DUP2 DUP2 PUSH2 0xB24 ADD MSTORE DUP2 DUP2 PUSH2 0xF98 ADD MSTORE DUP2 DUP2 PUSH2 0x1B6D ADD MSTORE DUP2 DUP2 PUSH2 0x1BD1 ADD MSTORE DUP2 DUP2 PUSH2 0x1E1B ADD MSTORE DUP2 DUP2 PUSH2 0x1E7C ADD MSTORE DUP2 DUP2 PUSH2 0x209E ADD MSTORE DUP2 DUP2 PUSH2 0x2166 ADD MSTORE DUP2 DUP2 PUSH2 0x2636 ADD MSTORE DUP2 DUP2 PUSH2 0x2697 ADD MSTORE DUP2 DUP2 PUSH2 0x2A9C ADD MSTORE DUP2 DUP2 PUSH2 0x2AFD ADD MSTORE DUP2 DUP2 PUSH2 0x2CCE ADD MSTORE PUSH2 0x2D2F ADD MSTORE PUSH1 0x0 DUP2 DUP2 PUSH2 0x8C6 ADD MSTORE DUP2 DUP2 PUSH2 0x955 ADD MSTORE DUP2 DUP2 PUSH2 0x9B6 ADD MSTORE DUP2 DUP2 PUSH2 0xF29 ADD MSTORE DUP2 DUP2 PUSH2 0x1AA4 ADD MSTORE DUP2 DUP2 PUSH2 0x1B08 ADD MSTORE DUP2 DUP2 PUSH2 0x1D3C ADD MSTORE DUP2 DUP2 PUSH2 0x1D9D ADD MSTORE DUP2 DUP2 PUSH2 0x1FD7 ADD MSTORE DUP2 DUP2 PUSH2 0x21C6 ADD MSTORE DUP2 DUP2 PUSH2 0x256D ADD MSTORE DUP2 DUP2 PUSH2 0x25CE ADD MSTORE DUP2 DUP2 PUSH2 0x286A ADD MSTORE DUP2 DUP2 PUSH2 0x28CB ADD MSTORE DUP2 DUP2 PUSH2 0x2C05 ADD MSTORE PUSH2 0x2C66 ADD MSTORE PUSH1 0x0 DUP2 DUP2 PUSH2 0x758 ADD MSTORE DUP2 DUP2 PUSH2 0x7E7 ADD MSTORE DUP2 DUP2 PUSH2 0x848 ADD MSTORE DUP2 DUP2 PUSH2 0xEBA ADD MSTORE DUP2 DUP2 PUSH2 0x19DB ADD MSTORE DUP2 DUP2 PUSH2 0x1A3F ADD MSTORE DUP2 DUP2 PUSH2 0x1C5D ADD MSTORE DUP2 DUP2 PUSH2 0x1CBE ADD MSTORE DUP2 DUP2 PUSH2 0x2037 ADD MSTORE DUP2 DUP2 PUSH2 0x20FE ADD MSTORE DUP2 DUP2 PUSH2 0x2485 ADD MSTORE DUP2 DUP2 PUSH2 0x24E6 ADD MSTORE DUP2 DUP2 PUSH2 0x27A1 ADD MSTORE DUP2 DUP2 PUSH2 0x2802 ADD MSTORE DUP2 DUP2 PUSH2 0x29D3 ADD MSTORE PUSH2 0x2A34 ADD MSTORE PUSH1 0x0 PUSH2 0x1450 ADD MSTORE PUSH1 0x0 DUP2 DUP2 PUSH2 0x4EA ADD MSTORE DUP2 DUP2 PUSH2 0x630 ADD MSTORE PUSH2 0x1646 ADD MSTORE PUSH1 0x0 DUP2 DUP2 PUSH2 0x1093 ADD MSTORE PUSH2 0x176E ADD MSTORE PUSH1 0x0 PUSH2 0xD32 ADD MSTORE PUSH1 0x0 PUSH2 0xD53 ADD MSTORE PUSH1 0x0 PUSH2 0xD76 ADD MSTORE PUSH1 0x0 PUSH2 0xCF6 ADD MSTORE PUSH1 0x0 DUP2 DUP2 PUSH2 0x570 ADD MSTORE PUSH2 0x5C4 ADD MSTORE PUSH2 0x3CFF PUSH1 0x0 RETURN INVALID PUSH1 0x80 PUSH1 0x40 MSTORE PUSH1 0x4 CALLDATASIZE LT PUSH2 0x139 JUMPI PUSH1 0x0 CALLDATALOAD PUSH1 0xE0 SHR DUP1 PUSH4 0x6E04FF0D GT PUSH2 0xAB JUMPI DUP1 PUSH4 0xAD2E8C9B GT PUSH2 0x6F JUMPI DUP1 PUSH4 0xAD2E8C9B EQ PUSH2 0x3D2 JUMPI DUP1 PUSH4 0xC828371E EQ PUSH2 0x3FD JUMPI DUP1 PUSH4 0xE55AE4E8 EQ PUSH2 0x428 JUMPI DUP1 PUSH4 0xEFA1C482 EQ PUSH2 0x465 JUMPI DUP1 PUSH4 0xF975CB39 EQ PUSH2 0x490 JUMPI DUP1 PUSH4 0xFD6673F5 EQ PUSH2 0x4BB JUMPI PUSH2 0x140 JUMP JUMPDEST DUP1 PUSH4 0x6E04FF0D EQ PUSH2 0x31D JUMPI DUP1 PUSH4 0x7C6D085F EQ PUSH2 0x35B JUMPI DUP1 PUSH4 0x855C289C EQ PUSH2 0x372 JUMPI DUP1 PUSH4 0x9329066C EQ PUSH2 0x39D JUMPI DUP1 PUSH4 0xA3D7DD31 EQ PUSH2 0x3C8 JUMPI PUSH2 0x140 JUMP JUMPDEST DUP1 PUSH4 0x4585E33B GT PUSH2 0xFD JUMPI DUP1 PUSH4 0x4585E33B EQ PUSH2 0x21D JUMPI DUP1 PUSH4 0x473F1DDC EQ PUSH2 0x246 JUMPI DUP1 PUSH4 0x48112C6F EQ PUSH2 0x271 JUMPI DUP1 PUSH4 0x53A2C19A EQ PUSH2 0x29C JUMPI DUP1 PUSH4 0x5F1B0FD8 EQ PUSH2 0x2C7 JUMPI DUP1 PUSH4 0x6846AF76 EQ PUSH2 0x2F2 JUMPI PUSH2 0x140 JUMP JUMPDEST DUP1 PUSH4 0x9BC33A7 EQ PUSH2 0x145 JUMPI DUP1 PUSH4 0x115CBAF5 EQ PUSH2 0x170 JUMPI DUP1 PUSH4 0x1910BDC2 EQ PUSH2 0x19B JUMPI DUP1 PUSH4 0x1FE543E3 EQ PUSH2 0x1D8 JUMPI DUP1 PUSH4 0x2E519F90 EQ PUSH2 0x201 JUMPI PUSH2 0x140 JUMP JUMPDEST CALLDATASIZE PUSH2 0x140 JUMPI STOP JUMPDEST PUSH1 0x0 DUP1 REVERT JUMPDEST CALLVALUE DUP1 ISZERO PUSH2 0x151 JUMPI PUSH1 0x0 DUP1 REVERT JUMPDEST POP PUSH2 0x15A PUSH2 0x4E6 JUMP JUMPDEST PUSH1 0x40 MLOAD PUSH2 0x167 SWAP2 SWAP1 PUSH2 0x358E JUMP JUMPDEST PUSH1 0x40 MLOAD DUP1 SWAP2 SUB SWAP1 RETURN JUMPDEST CALLVALUE DUP1 ISZERO PUSH2 0x17C JUMPI PUSH1 0x0 DUP1 REVERT JUMPDEST POP PUSH2 0x185 PUSH2 0x50E JUMP JUMPDEST PUSH1 0x40 MLOAD PUSH2 0x192 SWAP2 SWAP1 PUSH2 0x3573 JUMP JUMPDEST PUSH1 0x40 MLOAD DUP1 SWAP2 SUB SWAP1 RETURN JUMPDEST CALLVALUE DUP1 ISZERO PUSH2 0x1A7 JUMPI PUSH1 0x0 DUP1 REVERT JUMPDEST POP PUSH2 0x1C2 PUSH1 0x4 DUP1 CALLDATASIZE SUB DUP2 ADD SWAP1 PUSH2 0x1BD SWAP2 SWAP1 PUSH2 0x31A3 JUMP JUMPDEST PUSH2 0x525 JUMP JUMPDEST PUSH1 0x40 MLOAD PUSH2 0x1CF SWAP2 SWAP1 PUSH2 0x358E JUMP JUMPDEST PUSH1 0x40 MLOAD DUP1 SWAP2 SUB SWAP1 RETURN JUMPDEST CALLVALUE DUP1 ISZERO PUSH2 0x1E4 JUMPI PUSH1 0x0 DUP1 REVERT JUMPDEST POP PUSH2 0x1FF PUSH1 0x4 DUP1 CALLDATASIZE SUB DUP2 ADD SWAP1 PUSH2 0x1FA SWAP2 SWAP1 PUSH2 0x32C0 JUMP JUMPDEST PUSH2 0x56E JUMP JUMPDEST STOP JUMPDEST PUSH2 0x21B PUSH1 0x4 DUP1 CALLDATASIZE SUB DUP2 ADD SWAP1 PUSH2 0x216 SWAP2 SWAP1 PUSH2 0x3266 JUMP JUMPDEST PUSH2 0x62E JUMP JUMPDEST STOP JUMPDEST CALLVALUE DUP1 ISZERO PUSH2 0x229 JUMPI PUSH1 0x0 DUP1 REVERT JUMPDEST POP PUSH2 0x244 PUSH1 0x4 DUP1 CALLDATASIZE SUB DUP2 ADD SWAP1 PUSH2 0x23F SWAP2 SWAP1 PUSH2 0x31D0 JUMP JUMPDEST PUSH2 0xC3E JUMP JUMPDEST STOP JUMPDEST CALLVALUE DUP1 ISZERO PUSH2 0x252 JUMPI PUSH1 0x0 DUP1 REVERT JUMPDEST POP PUSH2 0x25B PUSH2 0xE3E JUMP JUMPDEST PUSH1 0x40 MLOAD PUSH2 0x268 SWAP2 SWAP1 PUSH2 0x348A JUMP JUMPDEST PUSH1 0x40 MLOAD DUP1 SWAP2 SUB SWAP1 RETURN JUMPDEST CALLVALUE DUP1 ISZERO PUSH2 0x27D JUMPI PUSH1 0x0 DUP1 REVERT JUMPDEST POP PUSH2 0x286 PUSH2 0xE68 JUMP JUMPDEST PUSH1 0x40 MLOAD PUSH2 0x293 SWAP2 SWAP1 PUSH2 0x34CE JUMP JUMPDEST PUSH1 0x40 MLOAD DUP1 SWAP2 SUB SWAP1 RETURN JUMPDEST CALLVALUE DUP1 ISZERO PUSH2 0x2A8 JUMPI PUSH1 0x0 DUP1 REVERT JUMPDEST POP PUSH2 0x2B1 PUSH2 0x100C JUMP JUMPDEST PUSH1 0x40 MLOAD PUSH2 0x2BE SWAP2 SWAP1 PUSH2 0x358E JUMP JUMPDEST PUSH1 0x40 MLOAD DUP1 SWAP2 SUB SWAP1 RETURN JUMPDEST CALLVALUE DUP1 ISZERO PUSH2 0x2D3 JUMPI PUSH1 0x0 DUP1 REVERT JUMPDEST POP PUSH2 0x2DC PUSH2 0x101B JUMP JUMPDEST PUSH1 0x40 MLOAD PUSH2 0x2E9 SWAP2 SWAP1 PUSH2 0x358E JUMP JUMPDEST PUSH1 0x40 MLOAD DUP1 SWAP2 SUB SWAP1 RETURN JUMPDEST CALLVALUE DUP1 ISZERO PUSH2 0x2FE JUMPI PUSH1 0x0 DUP1 REVERT JUMPDEST POP PUSH2 0x307 PUSH2 0x1028 JUMP JUMPDEST PUSH1 0x40 MLOAD PUSH2 0x314 SWAP2 SWAP1 PUSH2 0x348A JUMP JUMPDEST PUSH1 0x40 MLOAD DUP1 SWAP2 SUB SWAP1 RETURN JUMPDEST CALLVALUE DUP1 ISZERO PUSH2 0x329 JUMPI PUSH1 0x0 DUP1 REVERT JUMPDEST POP PUSH2 0x344 PUSH1 0x4 DUP1 CALLDATASIZE SUB DUP2 ADD SWAP1 PUSH2 0x33F SWAP2 SWAP1 PUSH2 0x321D JUMP JUMPDEST PUSH2 0x1050 JUMP JUMPDEST PUSH1 0x40 MLOAD PUSH2 0x352 SWAP3 SWAP2 SWAP1 PUSH2 0x34F0 JUMP JUMPDEST PUSH1 0x40 MLOAD DUP1 SWAP2 SUB SWAP1 RETURN JUMPDEST CALLVALUE DUP1 ISZERO PUSH2 0x367 JUMPI PUSH1 0x0 DUP1 REVERT JUMPDEST POP PUSH2 0x370 PUSH2 0x10FE JUMP JUMPDEST STOP JUMPDEST CALLVALUE DUP1 ISZERO PUSH2 0x37E JUMPI PUSH1 0x0 DUP1 REVERT JUMPDEST POP PUSH2 0x387 PUSH2 0x1422 JUMP JUMPDEST PUSH1 0x40 MLOAD PUSH2 0x394 SWAP2 SWAP1 PUSH2 0x348A JUMP JUMPDEST PUSH1 0x40 MLOAD DUP1 SWAP2 SUB SWAP1 RETURN JUMPDEST CALLVALUE DUP1 ISZERO PUSH2 0x3A9 JUMPI PUSH1 0x0 DUP1 REVERT JUMPDEST POP PUSH2 0x3B2 PUSH2 0x144C JUMP JUMPDEST PUSH1 0x40 MLOAD PUSH2 0x3BF SWAP2 SWAP1 PUSH2 0x358E JUMP JUMPDEST PUSH1 0x40 MLOAD DUP1 SWAP2 SUB SWAP1 RETURN JUMPDEST PUSH2 0x3D0 PUSH2 0x1474 JUMP JUMPDEST STOP JUMPDEST CALLVALUE DUP1 ISZERO PUSH2 0x3DE JUMPI PUSH1 0x0 DUP1 REVERT JUMPDEST POP PUSH2 0x3E7 PUSH2 0x176A JUMP JUMPDEST PUSH1 0x40 MLOAD PUSH2 0x3F4 SWAP2 SWAP1 PUSH2 0x358E JUMP JUMPDEST PUSH1 0x40 MLOAD DUP1 SWAP2 SUB SWAP1 RETURN JUMPDEST CALLVALUE DUP1 ISZERO PUSH2 0x409 JUMPI PUSH1 0x0 DUP1 REVERT JUMPDEST POP PUSH2 0x412 PUSH2 0x1792 JUMP JUMPDEST PUSH1 0x40 MLOAD PUSH2 0x41F SWAP2 SWAP1 PUSH2 0x358E JUMP JUMPDEST PUSH1 0x40 MLOAD DUP1 SWAP2 SUB SWAP1 RETURN JUMPDEST CALLVALUE DUP1 ISZERO PUSH2 0x434 JUMPI PUSH1 0x0 DUP1 REVERT JUMPDEST POP PUSH2 0x44F PUSH1 0x4 DUP1 CALLDATASIZE SUB DUP2 ADD SWAP1 PUSH2 0x44A SWAP2 SWAP1 PUSH2 0x3266 JUMP JUMPDEST PUSH2 0x179B JUMP JUMPDEST PUSH1 0x40 MLOAD PUSH2 0x45C SWAP2 SWAP1 PUSH2 0x348A JUMP JUMPDEST PUSH1 0x40 MLOAD DUP1 SWAP2 SUB SWAP1 RETURN JUMPDEST CALLVALUE DUP1 ISZERO PUSH2 0x471 JUMPI PUSH1 0x0 DUP1 REVERT JUMPDEST POP PUSH2 0x47A PUSH2 0x17E3 JUMP JUMPDEST PUSH1 0x40 MLOAD PUSH2 0x487 SWAP2 SWAP1 PUSH2 0x34CE JUMP JUMPDEST PUSH1 0x40 MLOAD DUP1 SWAP2 SUB SWAP1 RETURN JUMPDEST CALLVALUE DUP1 ISZERO PUSH2 0x49C JUMPI PUSH1 0x0 DUP1 REVERT JUMPDEST POP PUSH2 0x4A5 PUSH2 0x1871 JUMP JUMPDEST PUSH1 0x40 MLOAD PUSH2 0x4B2 SWAP2 SWAP1 PUSH2 0x358E JUMP JUMPDEST PUSH1 0x40 MLOAD DUP1 SWAP2 SUB SWAP1 RETURN JUMPDEST CALLVALUE DUP1 ISZERO PUSH2 0x4C7 JUMPI PUSH1 0x0 DUP1 REVERT JUMPDEST POP PUSH2 0x4D0 PUSH2 0x187B JUMP JUMPDEST PUSH1 0x40 MLOAD PUSH2 0x4DD SWAP2 SWAP1 PUSH2 0x358E JUMP JUMPDEST PUSH1 0x40 MLOAD DUP1 SWAP2 SUB SWAP1 RETURN JUMPDEST PUSH1 0x0 PUSH32 0x0 SWAP1 POP SWAP1 JUMP JUMPDEST PUSH1 0x0 PUSH1 0x5 PUSH1 0x0 SWAP1 SLOAD SWAP1 PUSH2 0x100 EXP SWAP1 DIV PUSH1 0xFF AND SWAP1 POP SWAP1 JUMP JUMPDEST PUSH1 0x0 PUSH1 0x6 PUSH1 0x0 DUP4 PUSH20 0xFFFFFFFFFFFFFFFFFFFFFFFFFFFFFFFFFFFFFFFF AND PUSH20 0xFFFFFFFFFFFFFFFFFFFFFFFFFFFFFFFFFFFFFFFF AND DUP2 MSTORE PUSH1 0x20 ADD SWAP1 DUP2 MSTORE PUSH1 0x20 ADD PUSH1 0x0 KECCAK256 SLOAD SWAP1 POP SWAP2 SWAP1 POP JUMP JUMPDEST PUSH32 0x0 PUSH20 0xFFFFFFFFFFFFFFFFFFFFFFFFFFFFFFFFFFFFFFFF AND CALLER PUSH20 0xFFFFFFFFFFFFFFFFFFFFFFFFFFFFFFFFFFFFFFFF AND EQ PUSH2 0x620 JUMPI CALLER PUSH32 0x0 PUSH1 0x40 MLOAD PUSH32 0x1CF993F400000000000000000000000000000000000000000000000000000000 DUP2 MSTORE PUSH1 0x4 ADD PUSH2 0x617 SWAP3 SWAP2 SWAP1 PUSH2 0x34A5 JUMP JUMPDEST PUSH1 0x40 MLOAD DUP1 SWAP2 SUB SWAP1 REVERT JUMPDEST PUSH2 0x62A DUP3 DUP3 PUSH2 0x1888 JUMP JUMPDEST POP POP JUMP JUMPDEST PUSH32 0x0 CALLVALUE LT ISZERO PUSH2 0x688 JUMPI PUSH1 0x40 MLOAD PUSH32 0x8F53B81300000000000000000000000000000000000000000000000000000000 DUP2 MSTORE PUSH1 0x4 ADD PUSH1 0x40 MLOAD DUP1 SWAP2 SUB SWAP1 REVERT JUMPDEST PUSH1 0x0 PUSH1 0x2 DUP2 GT ISZERO PUSH2 0x69C JUMPI PUSH2 0x69B PUSH2 0x3BC8 JUMP JUMPDEST JUMPDEST PUSH1 0x5 PUSH1 0x0 SWAP1 SLOAD SWAP1 PUSH2 0x100 EXP SWAP1 DIV PUSH1 0xFF AND PUSH1 0x2 DUP2 GT ISZERO PUSH2 0x6BE JUMPI PUSH2 0x6BD PUSH2 0x3BC8 JUMP JUMPDEST JUMPDEST EQ PUSH2 0x6F5 JUMPI PUSH1 0x40 MLOAD PUSH32 0x464DDE1500000000000000000000000000000000000000000000000000000000 DUP2 MSTORE PUSH1 0x4 ADD PUSH1 0x40 MLOAD DUP1 SWAP2 SUB SWAP1 REVERT JUMPDEST PUSH1 0x1 DUP2 EQ ISZERO DUP1 ISZERO PUSH2 0x707 JUMPI POP PUSH1 0x2 DUP2 EQ ISZERO JUMPDEST DUP1 ISZERO PUSH2 0x714 JUMPI POP PUSH1 0x3 DUP2 EQ ISZERO JUMPDEST ISZERO PUSH2 0x74B JUMPI PUSH1 0x40 MLOAD PUSH32 0x47EFEA5A00000000000000000000000000000000000000000000000000000000 DUP2 MSTORE PUSH1 0x4 ADD PUSH1 0x40 MLOAD DUP1 SWAP2 SUB SWAP1 REVERT JUMPDEST PUSH1 0x1 DUP2 EQ ISZERO PUSH2 0x8B9 JUMPI PUSH1 0x0 PUSH32 0x0 PUSH20 0xFFFFFFFFFFFFFFFFFFFFFFFFFFFFFFFFFFFFFFFF AND CALLVALUE PUSH1 0x40 MLOAD PUSH2 0x79A SWAP1 PUSH2 0x3475 JUMP JUMPDEST PUSH1 0x0 PUSH1 0x40 MLOAD DUP1 DUP4 SUB DUP2 DUP6 DUP8 GAS CALL SWAP3 POP POP POP RETURNDATASIZE DUP1 PUSH1 0x0 DUP2 EQ PUSH2 0x7D7 JUMPI PUSH1 0x40 MLOAD SWAP2 POP PUSH1 0x1F NOT PUSH1 0x3F RETURNDATASIZE ADD AND DUP3 ADD PUSH1 0x40 MSTORE RETURNDATASIZE DUP3 MSTORE RETURNDATASIZE PUSH1 0x0 PUSH1 0x20 DUP5 ADD RETURNDATACOPY PUSH2 0x7DC JUMP JUMPDEST PUSH1 0x60 SWAP2 POP JUMPDEST POP POP SWAP1 POP DUP1 PUSH2 0x842 JUMPI PUSH32 0x0 PUSH1 0x40 MLOAD PUSH32 0xAF120E0A00000000000000000000000000000000000000000000000000000000 DUP2 MSTORE PUSH1 0x4 ADD PUSH2 0x839 SWAP2 SWAP1 PUSH2 0x348A JUMP JUMPDEST PUSH1 0x40 MLOAD DUP1 SWAP2 SUB SWAP1 REVERT JUMPDEST PUSH1 0x6 PUSH1 0x0 PUSH32 0x0 PUSH20 0xFFFFFFFFFFFFFFFFFFFFFFFFFFFFFFFFFFFFFFFF AND PUSH20 0xFFFFFFFFFFFFFFFFFFFFFFFFFFFFFFFFFFFFFFFF AND DUP2 MSTORE PUSH1 0x20 ADD SWAP1 DUP2 MSTORE PUSH1 0x20 ADD PUSH1 0x0 KECCAK256 PUSH1 0x0 DUP2 SLOAD DUP1 SWAP3 SWAP2 SWAP1 PUSH2 0x8B2 SWAP1 PUSH2 0x3AF0 JUMP JUMPDEST SWAP2 SWAP1 POP SSTORE POP POP JUMPDEST PUSH1 0x2 DUP2 EQ ISZERO PUSH2 0xA27 JUMPI PUSH1 0x0 PUSH32 0x0 PUSH20 0xFFFFFFFFFFFFFFFFFFFFFFFFFFFFFFFFFFFFFFFF AND CALLVALUE PUSH1 0x40 MLOAD PUSH2 0x908 SWAP1 PUSH2 0x3475 JUMP JUMPDEST PUSH1 0x0 PUSH1 0x40 MLOAD DUP1 DUP4 SUB DUP2 DUP6 DUP8 GAS CALL SWAP3 POP POP POP RETURNDATASIZE DUP1 PUSH1 0x0 DUP2 EQ PUSH2 0x945 JUMPI PUSH1 0x40 MLOAD SWAP2 POP PUSH1 0x1F NOT PUSH1 0x3F RETURNDATASIZE ADD AND DUP3 ADD PUSH1 0x40 MSTORE RETURNDATASIZE DUP3 MSTORE RETURNDATASIZE PUSH1 0x0 PUSH1 0x20 DUP5 ADD RETURNDATACOPY PUSH2 0x94A JUMP JUMPDEST PUSH1 0x60 SWAP2 POP JUMPDEST POP POP SWAP1 POP DUP1 PUSH2 0x9B0 JUMPI PUSH32 0x0 PUSH1 0x40 MLOAD PUSH32 0xAF120E0A00000000000000000000000000000000000000000000000000000000 DUP2 MSTORE PUSH1 0x4 ADD PUSH2 0x9A7 SWAP2 SWAP1 PUSH2 0x348A JUMP JUMPDEST PUSH1 0x40 MLOAD DUP1 SWAP2 SUB SWAP1 REVERT JUMPDEST PUSH1 0x6 PUSH1 0x0 PUSH32 0x0 PUSH20 0xFFFFFFFFFFFFFFFFFFFFFFFFFFFFFFFFFFFFFFFF AND PUSH20 0xFFFFFFFFFFFFFFFFFFFFFFFFFFFFFFFFFFFFFFFF AND DUP2 MSTORE PUSH1 0x20 ADD SWAP1 DUP2 MSTORE PUSH1 0x20 ADD PUSH1 0x0 KECCAK256 PUSH1 0x0 DUP2 SLOAD DUP1 SWAP3 SWAP2 SWAP1 PUSH2 0xA20 SWAP1 PUSH2 0x3AF0 JUMP JUMPDEST SWAP2 SWAP1 POP SSTORE POP POP JUMPDEST PUSH1 0x3 DUP2 EQ ISZERO PUSH2 0xB95 JUMPI PUSH1 0x0 PUSH32 0x0 PUSH20 0xFFFFFFFFFFFFFFFFFFFFFFFFFFFFFFFFFFFFFFFF AND CALLVALUE PUSH1 0x40 MLOAD PUSH2 0xA76 SWAP1 PUSH2 0x3475 JUMP JUMPDEST PUSH1 0x0 PUSH1 0x40 MLOAD DUP1 DUP4 SUB DUP2 DUP6 DUP8 GAS CALL SWAP3 POP POP POP RETURNDATASIZE DUP1 PUSH1 0x0 DUP2 EQ PUSH2 0xAB3 JUMPI PUSH1 0x40 MLOAD SWAP2 POP PUSH1 0x1F NOT PUSH1 0x3F RETURNDATASIZE ADD AND DUP3 ADD PUSH1 0x40 MSTORE RETURNDATASIZE DUP3 MSTORE RETURNDATASIZE PUSH1 0x0 PUSH1 0x20 DUP5 ADD RETURNDATACOPY PUSH2 0xAB8 JUMP JUMPDEST PUSH1 0x60 SWAP2 POP JUMPDEST POP POP SWAP1 POP DUP1 PUSH2 0xB1E JUMPI PUSH32 0x0 PUSH1 0x40 MLOAD PUSH32 0xAF120E0A00000000000000000000000000000000000000000000000000000000 DUP2 MSTORE PUSH1 0x4 ADD PUSH2 0xB15 SWAP2 SWAP1 PUSH2 0x348A JUMP JUMPDEST PUSH1 0x40 MLOAD DUP1 SWAP2 SUB SWAP1 REVERT JUMPDEST PUSH1 0x6 PUSH1 0x0 PUSH32 0x0 PUSH20 0xFFFFFFFFFFFFFFFFFFFFFFFFFFFFFFFFFFFFFFFF AND PUSH20 0xFFFFFFFFFFFFFFFFFFFFFFFFFFFFFFFFFFFFFFFF AND DUP2 MSTORE PUSH1 0x20 ADD SWAP1 DUP2 MSTORE PUSH1 0x20 ADD PUSH1 0x0 KECCAK256 PUSH1 0x0 DUP2 SLOAD DUP1 SWAP3 SWAP2 SWAP1 PUSH2 0xB8E SWAP1 PUSH2 0x3AF0 JUMP JUMPDEST SWAP2 SWAP1 POP SSTORE POP POP JUMPDEST PUSH1 0x4 CALLER SWAP1 DUP1 PUSH1 0x1 DUP2 SLOAD ADD DUP1 DUP3 SSTORE DUP1 SWAP2 POP POP PUSH1 0x1 SWAP1 SUB SWAP1 PUSH1 0x0 MSTORE PUSH1 0x20 PUSH1 0x0 KECCAK256 ADD PUSH1 0x0 SWAP1 SWAP2 SWAP1 SWAP2 SWAP1 SWAP2 PUSH2 0x100 EXP DUP2 SLOAD DUP2 PUSH20 0xFFFFFFFFFFFFFFFFFFFFFFFFFFFFFFFFFFFFFFFF MUL NOT AND SWAP1 DUP4 PUSH20 0xFFFFFFFFFFFFFFFFFFFFFFFFFFFFFFFFFFFFFFFF AND MUL OR SWAP1 SSTORE POP CALLER PUSH20 0xFFFFFFFFFFFFFFFFFFFFFFFFFFFFFFFFFFFFFFFF AND PUSH32 0x805E1D667BDDB8A95F0F09880CF94F403FB596CE79928D9F29B74203BA284D4 PUSH1 0x40 MLOAD PUSH1 0x40 MLOAD DUP1 SWAP2 SUB SWAP1 LOG2 POP JUMP JUMPDEST PUSH1 0x0 PUSH2 0xC58 PUSH1 0x40 MLOAD DUP1 PUSH1 0x20 ADD PUSH1 0x40 MSTORE DUP1 PUSH1 0x0 DUP2 MSTORE POP PUSH2 0x1050 JUMP JUMPDEST POP SWAP1 POP DUP1 PUSH2 0xCC7 JUMPI SELFBALANCE PUSH1 0x4 DUP1 SLOAD SWAP1 POP PUSH1 0x5 PUSH1 0x0 SWAP1 SLOAD SWAP1 PUSH2 0x100 EXP SWAP1 DIV PUSH1 0xFF AND PUSH1 0x2 DUP2 GT ISZERO PUSH2 0xC89 JUMPI PUSH2 0xC88 PUSH2 0x3BC8 JUMP JUMPDEST JUMPDEST PUSH1 0x40 MLOAD PUSH32 0x1BE0EA7F00000000000000000000000000000000000000000000000000000000 DUP2 MSTORE PUSH1 0x4 ADD PUSH2 0xCBE SWAP4 SWAP3 SWAP2 SWAP1 PUSH2 0x35A9 JUMP JUMPDEST PUSH1 0x40 MLOAD DUP1 SWAP2 SUB SWAP1 REVERT JUMPDEST PUSH1 0x1 PUSH1 0x5 PUSH1 0x0 PUSH2 0x100 EXP DUP2 SLOAD DUP2 PUSH1 0xFF MUL NOT AND SWAP1 DUP4 PUSH1 0x2 DUP2 GT ISZERO PUSH2 0xCED JUMPI PUSH2 0xCEC PUSH2 0x3BC8 JUMP JUMPDEST JUMPDEST MUL OR SWAP1 SSTORE POP PUSH1 0x0 PUSH32 0x0 PUSH20 0xFFFFFFFFFFFFFFFFFFFFFFFFFFFFFFFFFFFFFFFF AND PUSH4 0x5D3B1D30 PUSH32 0x0 PUSH32 0x0 PUSH1 0x3 PUSH32 0x0 PUSH1 0x4 PUSH1 0x40 MLOAD DUP7 PUSH4 0xFFFFFFFF AND PUSH1 0xE0 SHL DUP2 MSTORE PUSH1 0x4 ADD PUSH2 0xDB7 SWAP6 SWAP5 SWAP4 SWAP3 SWAP2 SWAP1 PUSH2 0x3520 JUMP JUMPDEST PUSH1 0x20 PUSH1 0x40 MLOAD DUP1 DUP4 SUB DUP2 PUSH1 0x0 DUP8 DUP1 EXTCODESIZE ISZERO DUP1 ISZERO PUSH2 0xDD1 JUMPI PUSH1 0x0 DUP1 REVERT JUMPDEST POP GAS CALL ISZERO DUP1 ISZERO PUSH2 0xDE5 JUMPI RETURNDATASIZE PUSH1 0x0 DUP1 RETURNDATACOPY RETURNDATASIZE PUSH1 0x0 REVERT JUMPDEST POP POP POP POP PUSH1 0x40 MLOAD RETURNDATASIZE PUSH1 0x1F NOT PUSH1 0x1F DUP3 ADD AND DUP3 ADD DUP1 PUSH1 0x40 MSTORE POP DUP2 ADD SWAP1 PUSH2 0xE09 SWAP2 SWAP1 PUSH2 0x3293 JUMP JUMPDEST SWAP1 POP DUP1 PUSH32 0xCD6E45C8998311CAB7E9D4385596CAC867E20A0587194B954FA3A731C93CE78B PUSH1 0x40 MLOAD PUSH1 0x40 MLOAD DUP1 SWAP2 SUB SWAP1 LOG2 POP POP POP POP JUMP JUMPDEST PUSH1 0x0 PUSH1 0x2 PUSH1 0x0 SWAP1 SLOAD SWAP1 PUSH2 0x100 EXP SWAP1 DIV PUSH20 0xFFFFFFFFFFFFFFFFFFFFFFFFFFFFFFFFFFFFFFFF AND SWAP1 POP SWAP1 JUMP JUMPDEST PUSH1 0x60 PUSH1 0x0 PUSH1 0x3 PUSH8 0xFFFFFFFFFFFFFFFF DUP2 GT ISZERO PUSH2 0xE87 JUMPI PUSH2 0xE86 PUSH2 0x3C26 JUMP JUMPDEST JUMPDEST PUSH1 0x40 MLOAD SWAP1 DUP1 DUP3 MSTORE DUP1 PUSH1 0x20 MUL PUSH1 0x20 ADD DUP3 ADD PUSH1 0x40 MSTORE DUP1 ISZERO PUSH2 0xEB5 JUMPI DUP2 PUSH1 0x20 ADD PUSH1 0x20 DUP3 MUL DUP1 CALLDATASIZE DUP4 CALLDATACOPY DUP1 DUP3 ADD SWAP2 POP POP SWAP1 POP JUMPDEST POP SWAP1 POP PUSH32 0x0 DUP2 PUSH1 0x0 DUP2 MLOAD DUP2 LT PUSH2 0xEED JUMPI PUSH2 0xEEC PUSH2 0x3BF7 JUMP JUMPDEST JUMPDEST PUSH1 0x20 MUL PUSH1 0x20 ADD ADD SWAP1 PUSH20 0xFFFFFFFFFFFFFFFFFFFFFFFFFFFFFFFFFFFFFFFF AND SWAP1 DUP2 PUSH20 0xFFFFFFFFFFFFFFFFFFFFFFFFFFFFFFFFFFFFFFFF AND DUP2 MSTORE POP POP PUSH32 0x0 DUP2 PUSH1 0x1 DUP2 MLOAD DUP2 LT PUSH2 0xF5C JUMPI PUSH2 0xF5B PUSH2 0x3BF7 JUMP JUMPDEST JUMPDEST PUSH1 0x20 MUL PUSH1 0x20 ADD ADD SWAP1 PUSH20 0xFFFFFFFFFFFFFFFFFFFFFFFFFFFFFFFFFFFFFFFF AND SWAP1 DUP2 PUSH20 0xFFFFFFFFFFFFFFFFFFFFFFFFFFFFFFFFFFFFFFFF AND DUP2 MSTORE POP POP PUSH32 0x0 DUP2 PUSH1 0x2 DUP2 MLOAD DUP2 LT PUSH2 0xFCB JUMPI PUSH2 0xFCA PUSH2 0x3BF7 JUMP JUMPDEST JUMPDEST PUSH1 0x20 MUL PUSH1 0x20 ADD ADD SWAP1 PUSH20 0xFFFFFFFFFFFFFFFFFFFFFFFFFFFFFFFFFFFFFFFF AND SWAP1 DUP2 PUSH20 0xFFFFFFFFFFFFFFFFFFFFFFFFFFFFFFFFFFFFFFFF AND DUP2 MSTORE POP POP DUP1 SWAP2 POP POP SWAP1 JUMP JUMPDEST PUSH1 0x0 PUSH1 0x4 PUSH4 0xFFFFFFFF AND SWAP1 POP SWAP1 JUMP JUMPDEST PUSH1 0x0 PUSH1 0x3 PUSH2 0xFFFF AND SWAP1 POP SWAP1 JUMP JUMPDEST PUSH1 0x0 PUSH32 0x0 SWAP1 POP SWAP1 JUMP JUMPDEST PUSH1 0x0 PUSH1 0x60 PUSH1 0x0 PUSH1 0x5 PUSH1 0x0 SWAP1 SLOAD SWAP1 PUSH2 0x100 EXP SWAP1 DIV PUSH1 0xFF AND PUSH1 0x2 DUP2 GT ISZERO PUSH2 0x1078 JUMPI PUSH2 0x1077 PUSH2 0x3BC8 JUMP JUMPDEST JUMPDEST PUSH1 0x0 PUSH1 0x2 DUP2 GT ISZERO PUSH2 0x108C JUMPI PUSH2 0x108B PUSH2 0x3BC8 JUMP JUMPDEST JUMPDEST EQ SWAP1 POP PUSH1 0x0 PUSH32 0x0 PUSH1 0x0 SLOAD TIMESTAMP PUSH2 0x10C0 SWAP2 SWAP1 PUSH2 0x3904 JUMP JUMPDEST LT ISZERO SWAP1 POP PUSH1 0x0 DUP1 PUSH1 0x4 DUP1 SLOAD SWAP1 POP GT SWAP1 POP PUSH1 0x0 DUP1 SELFBALANCE GT SWAP1 POP DUP4 DUP1 ISZERO PUSH2 0x10E1 JUMPI POP DUP3 JUMPDEST DUP1 ISZERO PUSH2 0x10EA JUMPI POP DUP1 JUMPDEST DUP1 ISZERO PUSH2 0x10F3 JUMPI POP DUP2 JUMPDEST SWAP6 POP POP POP POP POP SWAP2 POP SWAP2 JUMP JUMPDEST PUSH32 0x0 PUSH20 0xFFFFFFFFFFFFFFFFFFFFFFFFFFFFFFFFFFFFFFFF AND CALLER PUSH20 0xFFFFFFFFFFFFFFFFFFFFFFFFFFFFFFFFFFFFFFFF AND EQ PUSH2 0x1183 JUMPI PUSH1 0x40 MLOAD PUSH32 0x5353493A00000000000000000000000000000000000000000000000000000000 DUP2 MSTORE PUSH1 0x4 ADD PUSH1 0x40 MLOAD DUP1 SWAP2 SUB SWAP1 REVERT JUMPDEST PUSH1 0x0 PUSH20 0xFFFFFFFFFFFFFFFFFFFFFFFFFFFFFFFFFFFFFFFF AND PUSH1 0x3 PUSH1 0x0 SWAP1 SLOAD SWAP1 PUSH2 0x100 EXP SWAP1 DIV PUSH20 0xFFFFFFFFFFFFFFFFFFFFFFFFFFFFFFFFFFFFFFFF AND PUSH20 0xFFFFFFFFFFFFFFFFFFFFFFFFFFFFFFFFFFFFFFFF AND EQ ISZERO PUSH2 0x120C JUMPI PUSH1 0x40 MLOAD PUSH32 0x9F9214BD00000000000000000000000000000000000000000000000000000000 DUP2 MSTORE PUSH1 0x4 ADD PUSH1 0x40 MLOAD DUP1 SWAP2 SUB SWAP1 REVERT JUMPDEST PUSH1 0x2 DUP1 DUP2 GT ISZERO PUSH2 0x121F JUMPI PUSH2 0x121E PUSH2 0x3BC8 JUMP JUMPDEST JUMPDEST PUSH1 0x5 PUSH1 0x0 SWAP1 SLOAD SWAP1 PUSH2 0x100 EXP SWAP1 DIV PUSH1 0xFF AND PUSH1 0x2 DUP2 GT ISZERO PUSH2 0x1241 JUMPI PUSH2 0x1240 PUSH2 0x3BC8 JUMP JUMPDEST JUMPDEST EQ PUSH2 0x1278 JUMPI PUSH1 0x40 MLOAD PUSH32 0xB106F93000000000000000000000000000000000000000000000000000000000 DUP2 MSTORE PUSH1 0x4 ADD PUSH1 0x40 MLOAD DUP1 SWAP2 SUB SWAP1 REVERT JUMPDEST PUSH1 0x3 PUSH1 0x14 SWAP1 SLOAD SWAP1 PUSH2 0x100 EXP SWAP1 DIV PUSH1 0xFF AND PUSH2 0x12BE JUMPI PUSH1 0x40 MLOAD PUSH32 0xF4190DB300000000000000000000000000000000000000000000000000000000 DUP2 MSTORE PUSH1 0x4 ADD PUSH1 0x40 MLOAD DUP1 SWAP2 SUB SWAP1 REVERT JUMPDEST PUSH1 0x0 SELFBALANCE GT PUSH2 0x12F7 JUMPI PUSH1 0x40 MLOAD PUSH31 0x8CA0CA00000000000000000000000000000000000000000000000000000000 DUP2 MSTORE PUSH1 0x4 ADD PUSH1 0x40 MLOAD DUP1 SWAP2 SUB SWAP1 REVERT JUMPDEST PUSH1 0x0 PUSH1 0x3 PUSH1 0x0 SWAP1 SLOAD SWAP1 PUSH2 0x100 EXP SWAP1 DIV PUSH20 0xFFFFFFFFFFFFFFFFFFFFFFFFFFFFFFFFFFFFFFFF AND SWAP1 POP PUSH1 0x0 PUSH1 0x3 PUSH1 0x0 PUSH2 0x100 EXP DUP2 SLOAD DUP2 PUSH20 0xFFFFFFFFFFFFFFFFFFFFFFFFFFFFFFFFFFFFFFFF MUL NOT AND SWAP1 DUP4 PUSH20 0xFFFFFFFFFFFFFFFFFFFFFFFFFFFFFFFFFFFFFFFF AND MUL OR SWAP1 SSTORE POP PUSH1 0x0 PUSH1 0x3 PUSH1 0x14 PUSH2 0x100 EXP DUP2 SLOAD DUP2 PUSH1 0xFF MUL NOT AND SWAP1 DUP4 ISZERO ISZERO MUL OR SWAP1 SSTORE POP PUSH1 0x0 DUP2 PUSH20 0xFFFFFFFFFFFFFFFFFFFFFFFFFFFFFFFFFFFFFFFF AND SELFBALANCE PUSH1 0x40 MLOAD PUSH2 0x13A1 SWAP1 PUSH2 0x3475 JUMP JUMPDEST PUSH1 0x0 PUSH1 0x40 MLOAD DUP1 DUP4 SUB DUP2 DUP6 DUP8 GAS CALL SWAP3 POP POP POP RETURNDATASIZE DUP1 PUSH1 0x0 DUP2 EQ PUSH2 0x13DE JUMPI PUSH1 0x40 MLOAD SWAP2 POP PUSH1 0x1F NOT PUSH1 0x3F RETURNDATASIZE ADD AND DUP3 ADD PUSH1 0x40 MSTORE RETURNDATASIZE DUP3 MSTORE RETURNDATASIZE PUSH1 0x0 PUSH1 0x20 DUP5 ADD RETURNDATACOPY PUSH2 0x13E3 JUMP JUMPDEST PUSH1 0x60 SWAP2 POP JUMPDEST POP POP SWAP1 POP DUP1 PUSH2 0x141E JUMPI PUSH1 0x40 MLOAD PUSH32 0xBFABDD9900000000000000000000000000000000000000000000000000000000 DUP2 MSTORE PUSH1 0x4 ADD PUSH1 0x40 MLOAD DUP1 SWAP2 SUB SWAP1 REVERT JUMPDEST POP POP JUMP JUMPDEST PUSH1 0x0 PUSH1 0x3 PUSH1 0x0 SWAP1 SLOAD SWAP1 PUSH2 0x100 EXP SWAP1 DIV PUSH20 0xFFFFFFFFFFFFFFFFFFFFFFFFFFFFFFFFFFFFFFFF AND SWAP1 POP SWAP1 JUMP JUMPDEST PUSH1 0x0 PUSH32 0x0 SWAP1 POP SWAP1 JUMP JUMPDEST PUSH32 0x0 PUSH20 0xFFFFFFFFFFFFFFFFFFFFFFFFFFFFFFFFFFFFFFFF AND CALLER PUSH20 0xFFFFFFFFFFFFFFFFFFFFFFFFFFFFFFFFFFFFFFFF AND EQ PUSH2 0x14F9 JUMPI PUSH1 0x40 MLOAD PUSH32 0x5353493A00000000000000000000000000000000000000000000000000000000 DUP2 MSTORE PUSH1 0x4 ADD PUSH1 0x40 MLOAD DUP1 SWAP2 SUB SWAP1 REVERT JUMPDEST PUSH1 0x0 PUSH20 0xFFFFFFFFFFFFFFFFFFFFFFFFFFFFFFFFFFFFFFFF AND PUSH1 0x3 PUSH1 0x0 SWAP1 SLOAD SWAP1 PUSH2 0x100 EXP SWAP1 DIV PUSH20 0xFFFFFFFFFFFFFFFFFFFFFFFFFFFFFFFFFFFFFFFF AND PUSH20 0xFFFFFFFFFFFFFFFFFFFFFFFFFFFFFFFFFFFFFFFF AND EQ ISZERO PUSH2 0x1582 JUMPI PUSH1 0x40 MLOAD PUSH32 0x9F9214BD00000000000000000000000000000000000000000000000000000000 DUP2 MSTORE PUSH1 0x4 ADD PUSH1 0x40 MLOAD DUP1 SWAP2 SUB SWAP1 REVERT JUMPDEST PUSH1 0x2 DUP1 DUP2 GT ISZERO PUSH2 0x1595 JUMPI PUSH2 0x1594 PUSH2 0x3BC8 JUMP JUMPDEST JUMPDEST PUSH1 0x5 PUSH1 0x0 SWAP1 SLOAD SWAP1 PUSH2 0x100 EXP SWAP1 DIV PUSH1 0xFF AND PUSH1 0x2 DUP2 GT ISZERO PUSH2 0x15B7 JUMPI PUSH2 0x15B6 PUSH2 0x3BC8 JUMP JUMPDEST JUMPDEST EQ PUSH2 0x15EE JUMPI PUSH1 0x40 MLOAD PUSH32 0xB106F93000000000000000000000000000000000000000000000000000000000 DUP2 MSTORE PUSH1 0x4 ADD PUSH1 0x40 MLOAD DUP1 SWAP2 SUB SWAP1 REVERT JUMPDEST PUSH1 0x3 PUSH1 0x14 SWAP1 SLOAD SWAP1 PUSH2 0x100 EXP SWAP1 DIV PUSH1 0xFF AND ISZERO PUSH2 0x1635 JUMPI PUSH1 0x40 MLOAD PUSH32 0x908D486E00000000000000000000000000000000000000000000000000000000 DUP2 MSTORE PUSH1 0x4 ADD PUSH1 0x40 MLOAD DUP1 SWAP2 SUB SWAP1 REVERT JUMPDEST PUSH1 0x0 PUSH1 0x1 SLOAD SWAP1 POP PUSH1 0x0 PUSH1 0x1 DUP2 SWAP1 SSTORE POP PUSH32 0x0 DUP2 PUSH2 0x1670 SWAP2 SWAP1 PUSH2 0x3816 JUMP JUMPDEST CALLVALUE EQ PUSH2 0x16A8 JUMPI PUSH1 0x40 MLOAD PUSH32 0xE696788B00000000000000000000000000000000000000000000000000000000 DUP2 MSTORE PUSH1 0x4 ADD PUSH1 0x40 MLOAD DUP1 SWAP2 SUB SWAP1 REVERT JUMPDEST PUSH1 0x1 PUSH1 0x3 PUSH1 0x14 PUSH2 0x100 EXP DUP2 SLOAD DUP2 PUSH1 0xFF MUL NOT AND SWAP1 DUP4 ISZERO ISZERO MUL OR SWAP1 SSTORE POP PUSH1 0x0 ADDRESS PUSH20 0xFFFFFFFFFFFFFFFFFFFFFFFFFFFFFFFFFFFFFFFF AND CALLVALUE PUSH1 0x40 MLOAD PUSH2 0x16E9 SWAP1 PUSH2 0x3475 JUMP JUMPDEST PUSH1 0x0 PUSH1 0x40 MLOAD DUP1 DUP4 SUB DUP2 DUP6 DUP8 GAS CALL SWAP3 POP POP POP RETURNDATASIZE DUP1 PUSH1 0x0 DUP2 EQ PUSH2 0x1726 JUMPI PUSH1 0x40 MLOAD SWAP2 POP PUSH1 0x1F NOT PUSH1 0x3F RETURNDATASIZE ADD AND DUP3 ADD PUSH1 0x40 MSTORE RETURNDATASIZE DUP3 MSTORE RETURNDATASIZE PUSH1 0x0 PUSH1 0x20 DUP5 ADD RETURNDATACOPY PUSH2 0x172B JUMP JUMPDEST PUSH1 0x60 SWAP2 POP JUMPDEST POP POP SWAP1 POP DUP1 PUSH2 0x1766 JUMPI PUSH1 0x40 MLOAD PUSH32 0xF4190DB300000000000000000000000000000000000000000000000000000000 DUP2 MSTORE PUSH1 0x4 ADD PUSH1 0x40 MLOAD DUP1 SWAP2 SUB SWAP1 REVERT JUMPDEST POP POP JUMP JUMPDEST PUSH1 0x0 PUSH32 0x0 SWAP1 POP SWAP1 JUMP JUMPDEST PUSH1 0x0 DUP1 SLOAD SWAP1 POP SWAP1 JUMP JUMPDEST PUSH1 0x0 PUSH1 0x4 DUP3 DUP2 SLOAD DUP2 LT PUSH2 0x17B1 JUMPI PUSH2 0x17B0 PUSH2 0x3BF7 JUMP JUMPDEST JUMPDEST SWAP1 PUSH1 0x0 MSTORE PUSH1 0x20 PUSH1 0x0 KECCAK256 ADD PUSH1 0x0 SWAP1 SLOAD SWAP1 PUSH2 0x100 EXP SWAP1 DIV PUSH20 0xFFFFFFFFFFFFFFFFFFFFFFFFFFFFFFFFFFFFFFFF AND SWAP1 POP SWAP2 SWAP1 POP JUMP JUMPDEST PUSH1 0x60 PUSH1 0x4 DUP1 SLOAD DUP1 PUSH1 0x20 MUL PUSH1 0x20 ADD PUSH1 0x40 MLOAD SWAP1 DUP2 ADD PUSH1 0x40 MSTORE DUP1 SWAP3 SWAP2 SWAP1 DUP2 DUP2 MSTORE PUSH1 0x20 ADD DUP3 DUP1 SLOAD DUP1 ISZERO PUSH2 0x1867 JUMPI PUSH1 0x20 MUL DUP3 ADD SWAP2 SWAP1 PUSH1 0x0 MSTORE PUSH1 0x20 PUSH1 0x0 KECCAK256 SWAP1 JUMPDEST DUP2 PUSH1 0x0 SWAP1 SLOAD SWAP1 PUSH2 0x100 EXP SWAP1 DIV PUSH20 0xFFFFFFFFFFFFFFFFFFFFFFFFFFFFFFFFFFFFFFFF AND PUSH20 0xFFFFFFFFFFFFFFFFFFFFFFFFFFFFFFFFFFFFFFFF AND DUP2 MSTORE PUSH1 0x20 ADD SWAP1 PUSH1 0x1 ADD SWAP1 DUP1 DUP4 GT PUSH2 0x181D JUMPI JUMPDEST POP POP POP POP POP SWAP1 POP SWAP1 JUMP JUMPDEST PUSH1 0x0 PUSH1 0x1 SLOAD SWAP1 POP SWAP1 JUMP JUMPDEST PUSH1 0x0 PUSH1 0x4 DUP1 SLOAD SWAP1 POP SWAP1 POP SWAP1 JUMP JUMPDEST PUSH1 0x0 PUSH1 0x4 DUP1 SLOAD SWAP1 POP DUP3 PUSH1 0x0 DUP2 MLOAD DUP2 LT PUSH2 0x18A4 JUMPI PUSH2 0x18A3 PUSH2 0x3BF7 JUMP JUMPDEST JUMPDEST PUSH1 0x20 MUL PUSH1 0x20 ADD ADD MLOAD PUSH2 0x18B6 SWAP2 SWAP1 PUSH2 0x3B39 JUMP JUMPDEST SWAP1 POP PUSH1 0x0 PUSH1 0x4 DUP3 DUP2 SLOAD DUP2 LT PUSH2 0x18CE JUMPI PUSH2 0x18CD PUSH2 0x3BF7 JUMP JUMPDEST JUMPDEST SWAP1 PUSH1 0x0 MSTORE PUSH1 0x20 PUSH1 0x0 KECCAK256 ADD PUSH1 0x0 SWAP1 SLOAD SWAP1 PUSH2 0x100 EXP SWAP1 DIV PUSH20 0xFFFFFFFFFFFFFFFFFFFFFFFFFFFFFFFFFFFFFFFF AND SWAP1 POP DUP1 PUSH1 0x2 PUSH1 0x0 PUSH2 0x100 EXP DUP2 SLOAD DUP2 PUSH20 0xFFFFFFFFFFFFFFFFFFFFFFFFFFFFFFFFFFFFFFFF MUL NOT AND SWAP1 DUP4 PUSH20 0xFFFFFFFFFFFFFFFFFFFFFFFFFFFFFFFFFFFFFFFF AND MUL OR SWAP1 SSTORE POP PUSH1 0x0 PUSH8 0xFFFFFFFFFFFFFFFF DUP2 GT ISZERO PUSH2 0x1957 JUMPI PUSH2 0x1956 PUSH2 0x3C26 JUMP JUMPDEST JUMPDEST PUSH1 0x40 MLOAD SWAP1 DUP1 DUP3 MSTORE DUP1 PUSH1 0x20 MUL PUSH1 0x20 ADD DUP3 ADD PUSH1 0x40 MSTORE DUP1 ISZERO PUSH2 0x1985 JUMPI DUP2 PUSH1 0x20 ADD PUSH1 0x20 DUP3 MUL DUP1 CALLDATASIZE DUP4 CALLDATACOPY DUP1 DUP3 ADD SWAP2 POP POP SWAP1 POP JUMPDEST POP PUSH1 0x4 SWAP1 DUP1 MLOAD SWAP1 PUSH1 0x20 ADD SWAP1 PUSH2 0x199B SWAP3 SWAP2 SWAP1 PUSH2 0x2F59 JUMP JUMPDEST POP PUSH1 0x2 PUSH1 0x5 PUSH1 0x0 PUSH2 0x100 EXP DUP2 SLOAD DUP2 PUSH1 0xFF MUL NOT AND SWAP1 DUP4 PUSH1 0x2 DUP2 GT ISZERO PUSH2 0x19C2 JUMPI PUSH2 0x19C1 PUSH2 0x3BC8 JUMP JUMPDEST JUMPDEST MUL OR SWAP1 SSTORE POP PUSH1 0x0 PUSH2 0x19D1 PUSH2 0x1FCF JUMP JUMPDEST SWAP1 POP PUSH1 0x0 PUSH1 0x6 PUSH1 0x0 PUSH32 0x0 PUSH20 0xFFFFFFFFFFFFFFFFFFFFFFFFFFFFFFFFFFFFFFFF AND PUSH20 0xFFFFFFFFFFFFFFFFFFFFFFFFFFFFFFFFFFFFFFFF AND DUP2 MSTORE PUSH1 0x20 ADD SWAP1 DUP2 MSTORE PUSH1 0x20 ADD PUSH1 0x0 KECCAK256 SLOAD SWAP1 POP PUSH1 0x0 PUSH1 0x6 PUSH1 0x0 PUSH32 0x0 PUSH20 0xFFFFFFFFFFFFFFFFFFFFFFFFFFFFFFFFFFFFFFFF AND PUSH20 0xFFFFFFFFFFFFFFFFFFFFFFFFFFFFFFFFFFFFFFFF AND DUP2 MSTORE PUSH1 0x20 ADD SWAP1 DUP2 MSTORE PUSH1 0x20 ADD PUSH1 0x0 KECCAK256 DUP2 SWAP1 SSTORE POP PUSH1 0x0 PUSH1 0x6 PUSH1 0x0 PUSH32 0x0 PUSH20 0xFFFFFFFFFFFFFFFFFFFFFFFFFFFFFFFFFFFFFFFF AND PUSH20 0xFFFFFFFFFFFFFFFFFFFFFFFFFFFFFFFFFFFFFFFF AND DUP2 MSTORE PUSH1 0x20 ADD SWAP1 DUP2 MSTORE PUSH1 0x20 ADD PUSH1 0x0 KECCAK256 SLOAD SWAP1 POP PUSH1 0x0 PUSH1 0x6 PUSH1 0x0 PUSH32 0x0 PUSH20 0xFFFFFFFFFFFFFFFFFFFFFFFFFFFFFFFFFFFFFFFF AND PUSH20 0xFFFFFFFFFFFFFFFFFFFFFFFFFFFFFFFFFFFFFFFF AND DUP2 MSTORE PUSH1 0x20 ADD SWAP1 DUP2 MSTORE PUSH1 0x20 ADD PUSH1 0x0 KECCAK256 DUP2 SWAP1 SSTORE POP PUSH1 0x0 PUSH1 0x6 PUSH1 0x0 PUSH32 0x0 PUSH20 0xFFFFFFFFFFFFFFFFFFFFFFFFFFFFFFFFFFFFFFFF AND PUSH20 0xFFFFFFFFFFFFFFFFFFFFFFFFFFFFFFFFFFFFFFFF AND DUP2 MSTORE PUSH1 0x20 ADD SWAP1 DUP2 MSTORE PUSH1 0x20 ADD PUSH1 0x0 KECCAK256 SLOAD SWAP1 POP PUSH1 0x0 PUSH1 0x6 PUSH1 0x0 PUSH32 0x0 PUSH20 0xFFFFFFFFFFFFFFFFFFFFFFFFFFFFFFFFFFFFFFFF AND PUSH20 0xFFFFFFFFFFFFFFFFFFFFFFFFFFFFFFFFFFFFFFFF AND DUP2 MSTORE PUSH1 0x20 ADD SWAP1 DUP2 MSTORE PUSH1 0x20 ADD PUSH1 0x0 KECCAK256 DUP2 SWAP1 SSTORE POP DUP4 ISZERO PUSH2 0x1C41 JUMPI PUSH2 0x1C40 DUP8 DUP5 DUP5 DUP5 PUSH2 0x2234 JUMP JUMPDEST JUMPDEST DUP2 DUP4 GT DUP1 ISZERO PUSH2 0x1C4F JUMPI POP DUP1 DUP4 GT JUMPDEST ISZERO PUSH2 0x1D20 JUMPI DUP3 PUSH1 0x1 DUP2 SWAP1 SSTORE POP PUSH32 0x0 PUSH1 0x3 PUSH1 0x0 PUSH2 0x100 EXP DUP2 SLOAD DUP2 PUSH20 0xFFFFFFFFFFFFFFFFFFFFFFFFFFFFFFFFFFFFFFFF MUL NOT AND SWAP1 DUP4 PUSH20 0xFFFFFFFFFFFFFFFFFFFFFFFFFFFFFFFFFFFFFFFF AND MUL OR SWAP1 SSTORE POP PUSH32 0x0 PUSH20 0xFFFFFFFFFFFFFFFFFFFFFFFFFFFFFFFFFFFFFFFF AND PUSH32 0x3C87360DCE5C6F26147DAF6A9E168E80A4C7199E9AA7CBD7A874094804C361B4 PUSH1 0x40 MLOAD PUSH1 0x40 MLOAD DUP1 SWAP2 SUB SWAP1 LOG2 JUMPDEST DUP3 DUP3 GT DUP1 ISZERO PUSH2 0x1D2E JUMPI POP DUP1 DUP3 GT JUMPDEST ISZERO PUSH2 0x1DFF JUMPI DUP2 PUSH1 0x1 DUP2 SWAP1 SSTORE POP PUSH32 0x0 PUSH1 0x3 PUSH1 0x0 PUSH2 0x100 EXP DUP2 SLOAD DUP2 PUSH20 0xFFFFFFFFFFFFFFFFFFFFFFFFFFFFFFFFFFFFFFFF MUL NOT AND SWAP1 DUP4 PUSH20 0xFFFFFFFFFFFFFFFFFFFFFFFFFFFFFFFFFFFFFFFF AND MUL OR SWAP1 SSTORE POP PUSH32 0x0 PUSH20 0xFFFFFFFFFFFFFFFFFFFFFFFFFFFFFFFFFFFFFFFF AND PUSH32 0x3C87360DCE5C6F26147DAF6A9E168E80A4C7199E9AA7CBD7A874094804C361B4 PUSH1 0x40 MLOAD PUSH1 0x40 MLOAD DUP1 SWAP2 SUB SWAP1 LOG2 JUMPDEST DUP3 DUP2 GT DUP1 ISZERO PUSH2 0x1E0D JUMPI POP DUP2 DUP2 GT JUMPDEST ISZERO PUSH2 0x1EDE JUMPI DUP1 PUSH1 0x1 DUP2 SWAP1 SSTORE POP PUSH32 0x0 PUSH1 0x3 PUSH1 0x0 PUSH2 0x100 EXP DUP2 SLOAD DUP2 PUSH20 0xFFFFFFFFFFFFFFFFFFFFFFFFFFFFFFFFFFFFFFFF MUL NOT AND SWAP1 DUP4 PUSH20 0xFFFFFFFFFFFFFFFFFFFFFFFFFFFFFFFFFFFFFFFF AND MUL OR SWAP1 SSTORE POP PUSH32 0x0 PUSH20 0xFFFFFFFFFFFFFFFFFFFFFFFFFFFFFFFFFFFFFFFF AND PUSH32 0x3C87360DCE5C6F26147DAF6A9E168E80A4C7199E9AA7CBD7A874094804C361B4 PUSH1 0x40 MLOAD PUSH1 0x40 MLOAD DUP1 SWAP2 SUB SWAP1 LOG2 JUMPDEST PUSH1 0x0 DUP6 PUSH20 0xFFFFFFFFFFFFFFFFFFFFFFFFFFFFFFFFFFFFFFFF AND SELFBALANCE PUSH1 0x40 MLOAD PUSH2 0x1F04 SWAP1 PUSH2 0x3475 JUMP JUMPDEST PUSH1 0x0 PUSH1 0x40 MLOAD DUP1 DUP4 SUB DUP2 DUP6 DUP8 GAS CALL SWAP3 POP POP POP RETURNDATASIZE DUP1 PUSH1 0x0 DUP2 EQ PUSH2 0x1F41 JUMPI PUSH1 0x40 MLOAD SWAP2 POP PUSH1 0x1F NOT PUSH1 0x3F RETURNDATASIZE ADD AND DUP3 ADD PUSH1 0x40 MSTORE RETURNDATASIZE DUP3 MSTORE RETURNDATASIZE PUSH1 0x0 PUSH1 0x20 DUP5 ADD RETURNDATACOPY PUSH2 0x1F46 JUMP JUMPDEST PUSH1 0x60 SWAP2 POP JUMPDEST POP POP SWAP1 POP DUP1 PUSH2 0x1F81 JUMPI PUSH1 0x40 MLOAD PUSH32 0x829A2EC900000000000000000000000000000000000000000000000000000000 DUP2 MSTORE PUSH1 0x4 ADD PUSH1 0x40 MLOAD DUP1 SWAP2 SUB SWAP1 REVERT JUMPDEST DUP6 PUSH20 0xFFFFFFFFFFFFFFFFFFFFFFFFFFFFFFFFFFFFFFFF AND PUSH32 0x5B690EC4A06FE979403046EAEEA5B3CE38524683C3001F662C8B5A829632F7DF PUSH1 0x40 MLOAD PUSH1 0x40 MLOAD DUP1 SWAP2 SUB SWAP1 LOG2 POP POP POP POP POP POP POP POP POP JUMP JUMPDEST PUSH1 0x0 PUSH1 0x6 PUSH1 0x0 PUSH32 0x0 PUSH20 0xFFFFFFFFFFFFFFFFFFFFFFFFFFFFFFFFFFFFFFFF AND PUSH20 0xFFFFFFFFFFFFFFFFFFFFFFFFFFFFFFFFFFFFFFFF AND DUP2 MSTORE PUSH1 0x20 ADD SWAP1 DUP2 MSTORE PUSH1 0x20 ADD PUSH1 0x0 KECCAK256 SLOAD PUSH1 0x6 PUSH1 0x0 PUSH32 0x0 PUSH20 0xFFFFFFFFFFFFFFFFFFFFFFFFFFFFFFFFFFFFFFFF AND PUSH20 0xFFFFFFFFFFFFFFFFFFFFFFFFFFFFFFFFFFFFFFFF AND DUP2 MSTORE PUSH1 0x20 ADD SWAP1 DUP2 MSTORE PUSH1 0x20 ADD PUSH1 0x0 KECCAK256 SLOAD EQ DUP1 PUSH2 0x215A JUMPI POP PUSH1 0x6 PUSH1 0x0 PUSH32 0x0 PUSH20 0xFFFFFFFFFFFFFFFFFFFFFFFFFFFFFFFFFFFFFFFF AND PUSH20 0xFFFFFFFFFFFFFFFFFFFFFFFFFFFFFFFFFFFFFFFF AND DUP2 MSTORE PUSH1 0x20 ADD SWAP1 DUP2 MSTORE PUSH1 0x20 ADD PUSH1 0x0 KECCAK256 SLOAD PUSH1 0x6 PUSH1 0x0 PUSH32 0x0 PUSH20 0xFFFFFFFFFFFFFFFFFFFFFFFFFFFFFFFFFFFFFFFF AND PUSH20 0xFFFFFFFFFFFFFFFFFFFFFFFFFFFFFFFFFFFFFFFF AND DUP2 MSTORE PUSH1 0x20 ADD SWAP1 DUP2 MSTORE PUSH1 0x20 ADD PUSH1 0x0 KECCAK256 SLOAD EQ JUMPDEST DUP1 PUSH2 0x2222 JUMPI POP PUSH1 0x6 PUSH1 0x0 PUSH32 0x0 PUSH20 0xFFFFFFFFFFFFFFFFFFFFFFFFFFFFFFFFFFFFFFFF AND PUSH20 0xFFFFFFFFFFFFFFFFFFFFFFFFFFFFFFFFFFFFFFFF AND DUP2 MSTORE PUSH1 0x20 ADD SWAP1 DUP2 MSTORE PUSH1 0x20 ADD PUSH1 0x0 KECCAK256 SLOAD PUSH1 0x6 PUSH1 0x0 PUSH32 0x0 PUSH20 0xFFFFFFFFFFFFFFFFFFFFFFFFFFFFFFFFFFFFFFFF AND PUSH20 0xFFFFFFFFFFFFFFFFFFFFFFFFFFFFFFFFFFFFFFFF AND DUP2 MSTORE PUSH1 0x20 ADD SWAP1 DUP2 MSTORE PUSH1 0x20 ADD PUSH1 0x0 KECCAK256 SLOAD EQ JUMPDEST ISZERO PUSH2 0x2230 JUMPI PUSH1 0x1 SWAP1 POP PUSH2 0x2231 JUMP JUMPDEST JUMPDEST SWAP1 JUMP JUMPDEST PUSH1 0x0 PUSH1 0x3 PUSH8 0xFFFFFFFFFFFFFFFF DUP2 GT ISZERO PUSH2 0x2251 JUMPI PUSH2 0x2250 PUSH2 0x3C26 JUMP JUMPDEST JUMPDEST PUSH1 0x40 MLOAD SWAP1 DUP1 DUP3 MSTORE DUP1 PUSH1 0x20 MUL PUSH1 0x20 ADD DUP3 ADD PUSH1 0x40 MSTORE DUP1 ISZERO PUSH2 0x227F JUMPI DUP2 PUSH1 0x20 ADD PUSH1 0x20 DUP3 MUL DUP1 CALLDATASIZE DUP4 CALLDATACOPY DUP1 DUP3 ADD SWAP2 POP POP SWAP1 POP JUMPDEST POP SWAP1 POP DUP4 DUP2 PUSH1 0x0 DUP2 MLOAD DUP2 LT PUSH2 0x2297 JUMPI PUSH2 0x2296 PUSH2 0x3BF7 JUMP JUMPDEST JUMPDEST PUSH1 0x20 MUL PUSH1 0x20 ADD ADD DUP2 DUP2 MSTORE POP POP DUP3 DUP2 PUSH1 0x1 DUP2 MLOAD DUP2 LT PUSH2 0x22B8 JUMPI PUSH2 0x22B7 PUSH2 0x3BF7 JUMP JUMPDEST JUMPDEST PUSH1 0x20 MUL PUSH1 0x20 ADD ADD DUP2 DUP2 MSTORE POP POP DUP2 DUP2 PUSH1 0x2 DUP2 MLOAD DUP2 LT PUSH2 0x22D9 JUMPI PUSH2 0x22D8 PUSH2 0x3BF7 JUMP JUMPDEST JUMPDEST PUSH1 0x20 MUL PUSH1 0x20 ADD ADD DUP2 DUP2 MSTORE POP POP PUSH1 0x0 PUSH2 0x22F0 DUP3 PUSH2 0x2D9A JUMP JUMPDEST SWAP1 POP DUP1 PUSH1 0x2 DUP2 MLOAD DUP2 LT PUSH2 0x2306 JUMPI PUSH2 0x2305 PUSH2 0x3BF7 JUMP JUMPDEST JUMPDEST PUSH1 0x20 MUL PUSH1 0x20 ADD ADD MLOAD PUSH1 0x1 DUP2 SWAP1 SSTORE POP DUP4 DUP6 EQ DUP1 ISZERO PUSH2 0x2322 JUMPI POP DUP3 DUP6 EQ JUMPDEST ISZERO PUSH2 0x26FC JUMPI DUP6 PUSH1 0x1 DUP2 MLOAD DUP2 LT PUSH2 0x233B JUMPI PUSH2 0x233A PUSH2 0x3BF7 JUMP JUMPDEST JUMPDEST PUSH1 0x20 MUL PUSH1 0x20 ADD ADD MLOAD DUP6 PUSH2 0x234E SWAP2 SWAP1 PUSH2 0x3756 JUMP JUMPDEST SWAP5 POP DUP6 PUSH1 0x2 DUP2 MLOAD DUP2 LT PUSH2 0x2364 JUMPI PUSH2 0x2363 PUSH2 0x3BF7 JUMP JUMPDEST JUMPDEST PUSH1 0x20 MUL PUSH1 0x20 ADD ADD MLOAD DUP5 PUSH2 0x2377 SWAP2 SWAP1 PUSH2 0x3756 JUMP JUMPDEST SWAP4 POP DUP6 PUSH1 0x3 DUP2 MLOAD DUP2 LT PUSH2 0x238D JUMPI PUSH2 0x238C PUSH2 0x3BF7 JUMP JUMPDEST JUMPDEST PUSH1 0x20 MUL PUSH1 0x20 ADD ADD MLOAD DUP4 PUSH2 0x23A0 SWAP2 SWAP1 PUSH2 0x3756 JUMP JUMPDEST SWAP3 POP PUSH1 0x0 PUSH1 0x3 PUSH8 0xFFFFFFFFFFFFFFFF DUP2 GT ISZERO PUSH2 0x23BF JUMPI PUSH2 0x23BE PUSH2 0x3C26 JUMP JUMPDEST JUMPDEST PUSH1 0x40 MLOAD SWAP1 DUP1 DUP3 MSTORE DUP1 PUSH1 0x20 MUL PUSH1 0x20 ADD DUP3 ADD PUSH1 0x40 MSTORE DUP1 ISZERO PUSH2 0x23ED JUMPI DUP2 PUSH1 0x20 ADD PUSH1 0x20 DUP3 MUL DUP1 CALLDATASIZE DUP4 CALLDATACOPY DUP1 DUP3 ADD SWAP2 POP POP SWAP1 POP JUMPDEST POP SWAP1 POP DUP6 DUP2 PUSH1 0x0 DUP2 MLOAD DUP2 LT PUSH2 0x2405 JUMPI PUSH2 0x2404 PUSH2 0x3BF7 JUMP JUMPDEST JUMPDEST PUSH1 0x20 MUL PUSH1 0x20 ADD ADD DUP2 DUP2 MSTORE POP POP DUP5 DUP2 PUSH1 0x1 DUP2 MLOAD DUP2 LT PUSH2 0x2426 JUMPI PUSH2 0x2425 PUSH2 0x3BF7 JUMP JUMPDEST JUMPDEST PUSH1 0x20 MUL PUSH1 0x20 ADD ADD DUP2 DUP2 MSTORE POP POP DUP4 DUP2 PUSH1 0x2 DUP2 MLOAD DUP2 LT PUSH2 0x2447 JUMPI PUSH2 0x2446 PUSH2 0x3BF7 JUMP JUMPDEST JUMPDEST PUSH1 0x20 MUL PUSH1 0x20 ADD ADD DUP2 DUP2 MSTORE POP POP PUSH1 0x0 PUSH2 0x245E DUP3 PUSH2 0x2D9A JUMP JUMPDEST SWAP1 POP DUP7 DUP2 PUSH1 0x2 DUP2 MLOAD DUP2 LT PUSH2 0x2475 JUMPI PUSH2 0x2474 PUSH2 0x3BF7 JUMP JUMPDEST JUMPDEST PUSH1 0x20 MUL PUSH1 0x20 ADD ADD MLOAD EQ ISZERO PUSH2 0x2548 JUMPI PUSH32 0x0 PUSH1 0x3 PUSH1 0x0 PUSH2 0x100 EXP DUP2 SLOAD DUP2 PUSH20 0xFFFFFFFFFFFFFFFFFFFFFFFFFFFFFFFFFFFFFFFF MUL NOT AND SWAP1 DUP4 PUSH20 0xFFFFFFFFFFFFFFFFFFFFFFFFFFFFFFFFFFFFFFFF AND MUL OR SWAP1 SSTORE POP PUSH32 0x0 PUSH20 0xFFFFFFFFFFFFFFFFFFFFFFFFFFFFFFFFFFFFFFFF AND PUSH32 0x3C87360DCE5C6F26147DAF6A9E168E80A4C7199E9AA7CBD7A874094804C361B4 PUSH1 0x40 MLOAD PUSH1 0x40 MLOAD DUP1 SWAP2 SUB SWAP1 LOG2 JUMPDEST DUP6 DUP2 PUSH1 0x2 DUP2 MLOAD DUP2 LT PUSH2 0x255D JUMPI PUSH2 0x255C PUSH2 0x3BF7 JUMP JUMPDEST JUMPDEST PUSH1 0x20 MUL PUSH1 0x20 ADD ADD MLOAD EQ ISZERO PUSH2 0x2634 JUMPI PUSH32 0x0 PUSH1 0x3 PUSH1 0x0 PUSH2 0x100 EXP DUP2 SLOAD DUP2 PUSH20 0xFFFFFFFFFFFFFFFFFFFFFFFFFFFFFFFFFFFFFFFF MUL NOT AND SWAP1 DUP4 PUSH20 0xFFFFFFFFFFFFFFFFFFFFFFFFFFFFFFFFFFFFFFFF AND MUL OR SWAP1 SSTORE POP PUSH32 0x0 PUSH20 0xFFFFFFFFFFFFFFFFFFFFFFFFFFFFFFFFFFFFFFFF AND PUSH32 0x3C87360DCE5C6F26147DAF6A9E168E80A4C7199E9AA7CBD7A874094804C361B4 PUSH1 0x40 MLOAD PUSH1 0x40 MLOAD DUP1 SWAP2 SUB SWAP1 LOG2 PUSH2 0x26F9 JUMP JUMPDEST PUSH32 0x0 PUSH1 0x3 PUSH1 0x0 PUSH2 0x100 EXP DUP2 SLOAD DUP2 PUSH20 0xFFFFFFFFFFFFFFFFFFFFFFFFFFFFFFFFFFFFFFFF MUL NOT AND SWAP1 DUP4 PUSH20 0xFFFFFFFFFFFFFFFFFFFFFFFFFFFFFFFFFFFFFFFF AND MUL OR SWAP1 SSTORE POP PUSH32 0x0 PUSH20 0xFFFFFFFFFFFFFFFFFFFFFFFFFFFFFFFFFFFFFFFF AND PUSH32 0x3C87360DCE5C6F26147DAF6A9E168E80A4C7199E9AA7CBD7A874094804C361B4 PUSH1 0x40 MLOAD PUSH1 0x40 MLOAD DUP1 SWAP2 SUB SWAP1 LOG2 JUMPDEST POP POP JUMPDEST DUP5 DUP2 PUSH1 0x2 DUP2 MLOAD DUP2 LT PUSH2 0x2711 JUMPI PUSH2 0x2710 PUSH2 0x3BF7 JUMP JUMPDEST JUMPDEST PUSH1 0x20 MUL PUSH1 0x20 ADD ADD MLOAD EQ DUP1 ISZERO PUSH2 0x2740 JUMPI POP DUP4 DUP2 PUSH1 0x2 DUP2 MLOAD DUP2 LT PUSH2 0x2736 JUMPI PUSH2 0x2735 PUSH2 0x3BF7 JUMP JUMPDEST JUMPDEST PUSH1 0x20 MUL PUSH1 0x20 ADD ADD MLOAD EQ JUMPDEST ISZERO PUSH2 0x292E JUMPI DUP6 PUSH1 0x1 DUP2 MLOAD DUP2 LT PUSH2 0x2759 JUMPI PUSH2 0x2758 PUSH2 0x3BF7 JUMP JUMPDEST JUMPDEST PUSH1 0x20 MUL PUSH1 0x20 ADD ADD MLOAD DUP6 PUSH2 0x276C SWAP2 SWAP1 PUSH2 0x3756 JUMP JUMPDEST SWAP5 POP DUP6 PUSH1 0x2 DUP2 MLOAD DUP2 LT PUSH2 0x2782 JUMPI PUSH2 0x2781 PUSH2 0x3BF7 JUMP JUMPDEST JUMPDEST PUSH1 0x20 MUL PUSH1 0x20 ADD ADD MLOAD DUP5 PUSH2 0x2795 SWAP2 SWAP1 PUSH2 0x3756 JUMP JUMPDEST SWAP4 POP DUP4 DUP6 GT ISZERO PUSH2 0x2868 JUMPI PUSH32 0x0 PUSH1 0x3 PUSH1 0x0 PUSH2 0x100 EXP DUP2 SLOAD DUP2 PUSH20 0xFFFFFFFFFFFFFFFFFFFFFFFFFFFFFFFFFFFFFFFF MUL NOT AND SWAP1 DUP4 PUSH20 0xFFFFFFFFFFFFFFFFFFFFFFFFFFFFFFFFFFFFFFFF AND MUL OR SWAP1 SSTORE POP PUSH32 0x0 PUSH20 0xFFFFFFFFFFFFFFFFFFFFFFFFFFFFFFFFFFFFFFFF AND PUSH32 0x3C87360DCE5C6F26147DAF6A9E168E80A4C7199E9AA7CBD7A874094804C361B4 PUSH1 0x40 MLOAD PUSH1 0x40 MLOAD DUP1 SWAP2 SUB SWAP1 LOG2 PUSH2 0x292D JUMP JUMPDEST PUSH32 0x0 PUSH1 0x3 PUSH1 0x0 PUSH2 0x100 EXP DUP2 SLOAD DUP2 PUSH20 0xFFFFFFFFFFFFFFFFFFFFFFFFFFFFFFFFFFFFFFFF MUL NOT AND SWAP1 DUP4 PUSH20 0xFFFFFFFFFFFFFFFFFFFFFFFFFFFFFFFFFFFFFFFF AND MUL OR SWAP1 SSTORE POP PUSH32 0x0 PUSH20 0xFFFFFFFFFFFFFFFFFFFFFFFFFFFFFFFFFFFFFFFF AND PUSH32 0x3C87360DCE5C6F26147DAF6A9E168E80A4C7199E9AA7CBD7A874094804C361B4 PUSH1 0x40 MLOAD PUSH1 0x40 MLOAD DUP1 SWAP2 SUB SWAP1 LOG2 JUMPDEST JUMPDEST DUP5 DUP2 PUSH1 0x2 DUP2 MLOAD DUP2 LT PUSH2 0x2943 JUMPI PUSH2 0x2942 PUSH2 0x3BF7 JUMP JUMPDEST JUMPDEST PUSH1 0x20 MUL PUSH1 0x20 ADD ADD MLOAD EQ DUP1 ISZERO PUSH2 0x2972 JUMPI POP DUP3 DUP2 PUSH1 0x2 DUP2 MLOAD DUP2 LT PUSH2 0x2968 JUMPI PUSH2 0x2967 PUSH2 0x3BF7 JUMP JUMPDEST JUMPDEST PUSH1 0x20 MUL PUSH1 0x20 ADD ADD MLOAD EQ JUMPDEST ISZERO PUSH2 0x2B60 JUMPI DUP6 PUSH1 0x1 DUP2 MLOAD DUP2 LT PUSH2 0x298B JUMPI PUSH2 0x298A PUSH2 0x3BF7 JUMP JUMPDEST JUMPDEST PUSH1 0x20 MUL PUSH1 0x20 ADD ADD MLOAD DUP6 PUSH2 0x299E SWAP2 SWAP1 PUSH2 0x3756 JUMP JUMPDEST SWAP5 POP DUP6 PUSH1 0x2 DUP2 MLOAD DUP2 LT PUSH2 0x29B4 JUMPI PUSH2 0x29B3 PUSH2 0x3BF7 JUMP JUMPDEST JUMPDEST PUSH1 0x20 MUL PUSH1 0x20 ADD ADD MLOAD DUP4 PUSH2 0x29C7 SWAP2 SWAP1 PUSH2 0x3756 JUMP JUMPDEST SWAP3 POP DUP3 DUP6 GT ISZERO PUSH2 0x2A9A JUMPI PUSH32 0x0 PUSH1 0x3 PUSH1 0x0 PUSH2 0x100 EXP DUP2 SLOAD DUP2 PUSH20 0xFFFFFFFFFFFFFFFFFFFFFFFFFFFFFFFFFFFFFFFF MUL NOT AND SWAP1 DUP4 PUSH20 0xFFFFFFFFFFFFFFFFFFFFFFFFFFFFFFFFFFFFFFFF AND MUL OR SWAP1 SSTORE POP PUSH32 0x0 PUSH20 0xFFFFFFFFFFFFFFFFFFFFFFFFFFFFFFFFFFFFFFFF AND PUSH32 0x3C87360DCE5C6F26147DAF6A9E168E80A4C7199E9AA7CBD7A874094804C361B4 PUSH1 0x40 MLOAD PUSH1 0x40 MLOAD DUP1 SWAP2 SUB SWAP1 LOG2 PUSH2 0x2B5F JUMP JUMPDEST PUSH32 0x0 PUSH1 0x3 PUSH1 0x0 PUSH2 0x100 EXP DUP2 SLOAD DUP2 PUSH20 0xFFFFFFFFFFFFFFFFFFFFFFFFFFFFFFFFFFFFFFFF MUL NOT AND SWAP1 DUP4 PUSH20 0xFFFFFFFFFFFFFFFFFFFFFFFFFFFFFFFFFFFFFFFF AND MUL OR SWAP1 SSTORE POP PUSH32 0x0 PUSH20 0xFFFFFFFFFFFFFFFFFFFFFFFFFFFFFFFFFFFFFFFF AND PUSH32 0x3C87360DCE5C6F26147DAF6A9E168E80A4C7199E9AA7CBD7A874094804C361B4 PUSH1 0x40 MLOAD PUSH1 0x40 MLOAD DUP1 SWAP2 SUB SWAP1 LOG2 JUMPDEST JUMPDEST DUP4 DUP2 PUSH1 0x2 DUP2 MLOAD DUP2 LT PUSH2 0x2B75 JUMPI PUSH2 0x2B74 PUSH2 0x3BF7 JUMP JUMPDEST JUMPDEST PUSH1 0x20 MUL PUSH1 0x20 ADD ADD MLOAD EQ DUP1 ISZERO PUSH2 0x2BA4 JUMPI POP DUP3 DUP2 PUSH1 0x2 DUP2 MLOAD DUP2 LT PUSH2 0x2B9A JUMPI PUSH2 0x2B99 PUSH2 0x3BF7 JUMP JUMPDEST JUMPDEST PUSH1 0x20 MUL PUSH1 0x20 ADD ADD MLOAD EQ JUMPDEST ISZERO PUSH2 0x2D92 JUMPI DUP6 PUSH1 0x1 DUP2 MLOAD DUP2 LT PUSH2 0x2BBD JUMPI PUSH2 0x2BBC PUSH2 0x3BF7 JUMP JUMPDEST JUMPDEST PUSH1 0x20 MUL PUSH1 0x20 ADD ADD MLOAD DUP5 PUSH2 0x2BD0 SWAP2 SWAP1 PUSH2 0x3756 JUMP JUMPDEST SWAP4 POP DUP6 PUSH1 0x2 DUP2 MLOAD DUP2 LT PUSH2 0x2BE6 JUMPI PUSH2 0x2BE5 PUSH2 0x3BF7 JUMP JUMPDEST JUMPDEST PUSH1 0x20 MUL PUSH1 0x20 ADD ADD MLOAD DUP4 PUSH2 0x2BF9 SWAP2 SWAP1 PUSH2 0x3756 JUMP JUMPDEST SWAP3 POP DUP3 DUP5 GT ISZERO PUSH2 0x2CCC JUMPI PUSH32 0x0 PUSH1 0x3 PUSH1 0x0 PUSH2 0x100 EXP DUP2 SLOAD DUP2 PUSH20 0xFFFFFFFFFFFFFFFFFFFFFFFFFFFFFFFFFFFFFFFF MUL NOT AND SWAP1 DUP4 PUSH20 0xFFFFFFFFFFFFFFFFFFFFFFFFFFFFFFFFFFFFFFFF AND MUL OR SWAP1 SSTORE POP PUSH32 0x0 PUSH20 0xFFFFFFFFFFFFFFFFFFFFFFFFFFFFFFFFFFFFFFFF AND PUSH32 0x3C87360DCE5C6F26147DAF6A9E168E80A4C7199E9AA7CBD7A874094804C361B4 PUSH1 0x40 MLOAD PUSH1 0x40 MLOAD DUP1 SWAP2 SUB SWAP1 LOG2 PUSH2 0x2D91 JUMP JUMPDEST PUSH32 0x0 PUSH1 0x3 PUSH1 0x0 PUSH2 0x100 EXP DUP2 SLOAD DUP2 PUSH20 0xFFFFFFFFFFFFFFFFFFFFFFFFFFFFFFFFFFFFFFFF MUL NOT AND SWAP1 DUP4 PUSH20 0xFFFFFFFFFFFFFFFFFFFFFFFFFFFFFFFFFFFFFFFF AND MUL OR SWAP1 SSTORE POP PUSH32 0x0 PUSH20 0xFFFFFFFFFFFFFFFFFFFFFFFFFFFFFFFFFFFFFFFF AND PUSH32 0x3C87360DCE5C6F26147DAF6A9E168E80A4C7199E9AA7CBD7A874094804C361B4 PUSH1 0x40 MLOAD PUSH1 0x40 MLOAD DUP1 SWAP2 SUB SWAP1 LOG2 JUMPDEST JUMPDEST POP POP POP POP POP POP JUMP JUMPDEST PUSH1 0x60 PUSH2 0x2DB5 DUP3 PUSH1 0x0 PUSH1 0x1 DUP6 MLOAD PUSH2 0x2DB0 SWAP2 SWAP1 PUSH2 0x3904 JUMP JUMPDEST PUSH2 0x2DBD JUMP JUMPDEST DUP2 SWAP1 POP SWAP2 SWAP1 POP JUMP JUMPDEST PUSH1 0x0 DUP3 SWAP1 POP PUSH1 0x0 DUP3 SWAP1 POP DUP1 DUP3 EQ ISZERO PUSH2 0x2DD6 JUMPI POP POP PUSH2 0x2F54 JUMP JUMPDEST PUSH1 0x0 DUP6 PUSH1 0x2 DUP7 DUP7 PUSH2 0x2DE7 SWAP2 SWAP1 PUSH2 0x3870 JUMP JUMPDEST PUSH2 0x2DF1 SWAP2 SWAP1 PUSH2 0x37AC JUMP JUMPDEST DUP7 PUSH2 0x2DFC SWAP2 SWAP1 PUSH2 0x36C2 JUMP JUMPDEST DUP2 MLOAD DUP2 LT PUSH2 0x2E0D JUMPI PUSH2 0x2E0C PUSH2 0x3BF7 JUMP JUMPDEST JUMPDEST PUSH1 0x20 MUL PUSH1 0x20 ADD ADD MLOAD SWAP1 POP JUMPDEST DUP2 DUP4 SGT PUSH2 0x2F28 JUMPI JUMPDEST DUP1 DUP7 DUP5 DUP2 MLOAD DUP2 LT PUSH2 0x2E34 JUMPI PUSH2 0x2E33 PUSH2 0x3BF7 JUMP JUMPDEST JUMPDEST PUSH1 0x20 MUL PUSH1 0x20 ADD ADD MLOAD LT ISZERO PUSH2 0x2E55 JUMPI DUP3 DUP1 PUSH2 0x2E4D SWAP1 PUSH2 0x3AA7 JUMP JUMPDEST SWAP4 POP POP PUSH2 0x2E20 JUMP JUMPDEST JUMPDEST DUP6 DUP3 DUP2 MLOAD DUP2 LT PUSH2 0x2E69 JUMPI PUSH2 0x2E68 PUSH2 0x3BF7 JUMP JUMPDEST JUMPDEST PUSH1 0x20 MUL PUSH1 0x20 ADD ADD MLOAD DUP2 LT ISZERO PUSH2 0x2E8B JUMPI DUP2 DUP1 PUSH2 0x2E83 SWAP1 PUSH2 0x3A2D JUMP JUMPDEST SWAP3 POP POP PUSH2 0x2E56 JUMP JUMPDEST DUP2 DUP4 SGT PUSH2 0x2F23 JUMPI DUP6 DUP3 DUP2 MLOAD DUP2 LT PUSH2 0x2EA5 JUMPI PUSH2 0x2EA4 PUSH2 0x3BF7 JUMP JUMPDEST JUMPDEST PUSH1 0x20 MUL PUSH1 0x20 ADD ADD MLOAD DUP7 DUP5 DUP2 MLOAD DUP2 LT PUSH2 0x2EC0 JUMPI PUSH2 0x2EBF PUSH2 0x3BF7 JUMP JUMPDEST JUMPDEST PUSH1 0x20 MUL PUSH1 0x20 ADD ADD MLOAD DUP8 DUP6 DUP2 MLOAD DUP2 LT PUSH2 0x2EDB JUMPI PUSH2 0x2EDA PUSH2 0x3BF7 JUMP JUMPDEST JUMPDEST PUSH1 0x20 MUL PUSH1 0x20 ADD ADD DUP9 DUP6 DUP2 MLOAD DUP2 LT PUSH2 0x2EF5 JUMPI PUSH2 0x2EF4 PUSH2 0x3BF7 JUMP JUMPDEST JUMPDEST PUSH1 0x20 MUL PUSH1 0x20 ADD ADD DUP3 DUP2 MSTORE POP DUP3 DUP2 MSTORE POP POP POP DUP3 DUP1 PUSH2 0x2F11 SWAP1 PUSH2 0x3AA7 JUMP JUMPDEST SWAP4 POP POP DUP2 DUP1 PUSH2 0x2F1F SWAP1 PUSH2 0x3A2D JUMP JUMPDEST SWAP3 POP POP JUMPDEST PUSH2 0x2E18 JUMP JUMPDEST DUP2 DUP6 SLT ISZERO PUSH2 0x2F3C JUMPI PUSH2 0x2F3B DUP7 DUP7 DUP5 PUSH2 0x2DBD JUMP JUMPDEST JUMPDEST DUP4 DUP4 SLT ISZERO PUSH2 0x2F50 JUMPI PUSH2 0x2F4F DUP7 DUP5 DUP7 PUSH2 0x2DBD JUMP JUMPDEST JUMPDEST POP POP POP JUMPDEST POP POP POP JUMP JUMPDEST DUP3 DUP1 SLOAD DUP3 DUP3 SSTORE SWAP1 PUSH1 0x0 MSTORE PUSH1 0x20 PUSH1 0x0 KECCAK256 SWAP1 DUP2 ADD SWAP3 DUP3 ISZERO PUSH2 0x2FD2 JUMPI SWAP2 PUSH1 0x20 MUL DUP3 ADD JUMPDEST DUP3 DUP2 GT ISZERO PUSH2 0x2FD1 JUMPI DUP3 MLOAD DUP3 PUSH1 0x0 PUSH2 0x100 EXP DUP2 SLOAD DUP2 PUSH20 0xFFFFFFFFFFFFFFFFFFFFFFFFFFFFFFFFFFFFFFFF MUL NOT AND SWAP1 DUP4 PUSH20 0xFFFFFFFFFFFFFFFFFFFFFFFFFFFFFFFFFFFFFFFF AND MUL OR SWAP1 SSTORE POP SWAP2 PUSH1 0x20 ADD SWAP2 SWAP1 PUSH1 0x1 ADD SWAP1 PUSH2 0x2F79 JUMP JUMPDEST JUMPDEST POP SWAP1 POP PUSH2 0x2FDF SWAP2 SWAP1 PUSH2 0x2FE3 JUMP JUMPDEST POP SWAP1 JUMP JUMPDEST JUMPDEST DUP1 DUP3 GT ISZERO PUSH2 0x2FFC JUMPI PUSH1 0x0 DUP2 PUSH1 0x0 SWAP1 SSTORE POP PUSH1 0x1 ADD PUSH2 0x2FE4 JUMP JUMPDEST POP SWAP1 JUMP JUMPDEST PUSH1 0x0 PUSH2 0x3013 PUSH2 0x300E DUP5 PUSH2 0x3605 JUMP JUMPDEST PUSH2 0x35E0 JUMP JUMPDEST SWAP1 POP DUP1 DUP4 DUP3 MSTORE PUSH1 0x20 DUP3 ADD SWAP1 POP DUP3 DUP6 PUSH1 0x20 DUP7 MUL DUP3 ADD GT ISZERO PUSH2 0x3036 JUMPI PUSH2 0x3035 PUSH2 0x3C5F JUMP JUMPDEST JUMPDEST PUSH1 0x0 JUMPDEST DUP6 DUP2 LT ISZERO PUSH2 0x3066 JUMPI DUP2 PUSH2 0x304C DUP9 DUP3 PUSH2 0x3179 JUMP JUMPDEST DUP5 MSTORE PUSH1 0x20 DUP5 ADD SWAP4 POP PUSH1 0x20 DUP4 ADD SWAP3 POP POP PUSH1 0x1 DUP2 ADD SWAP1 POP PUSH2 0x3039 JUMP JUMPDEST POP POP POP SWAP4 SWAP3 POP POP POP JUMP JUMPDEST PUSH1 0x0 PUSH2 0x3083 PUSH2 0x307E DUP5 PUSH2 0x3631 JUMP JUMPDEST PUSH2 0x35E0 JUMP JUMPDEST SWAP1 POP DUP3 DUP2 MSTORE PUSH1 0x20 DUP2 ADD DUP5 DUP5 DUP5 ADD GT ISZERO PUSH2 0x309F JUMPI PUSH2 0x309E PUSH2 0x3C64 JUMP JUMPDEST JUMPDEST PUSH2 0x30AA DUP5 DUP3 DUP6 PUSH2 0x39EB JUMP JUMPDEST POP SWAP4 SWAP3 POP POP POP JUMP JUMPDEST PUSH1 0x0 DUP2 CALLDATALOAD SWAP1 POP PUSH2 0x30C1 DUP2 PUSH2 0x3C9B JUMP JUMPDEST SWAP3 SWAP2 POP POP JUMP JUMPDEST PUSH1 0x0 DUP3 PUSH1 0x1F DUP4 ADD SLT PUSH2 0x30DC JUMPI PUSH2 0x30DB PUSH2 0x3C5A JUMP JUMPDEST JUMPDEST DUP2 CALLDATALOAD PUSH2 0x30EC DUP5 DUP3 PUSH1 0x20 DUP7 ADD PUSH2 0x3000 JUMP JUMPDEST SWAP2 POP POP SWAP3 SWAP2 POP POP JUMP JUMPDEST PUSH1 0x0 DUP1 DUP4 PUSH1 0x1F DUP5 ADD SLT PUSH2 0x310B JUMPI PUSH2 0x310A PUSH2 0x3C5A JUMP JUMPDEST JUMPDEST DUP3 CALLDATALOAD SWAP1 POP PUSH8 0xFFFFFFFFFFFFFFFF DUP2 GT ISZERO PUSH2 0x3128 JUMPI PUSH2 0x3127 PUSH2 0x3C55 JUMP JUMPDEST JUMPDEST PUSH1 0x20 DUP4 ADD SWAP2 POP DUP4 PUSH1 0x1 DUP3 MUL DUP4 ADD GT ISZERO PUSH2 0x3144 JUMPI PUSH2 0x3143 PUSH2 0x3C5F JUMP JUMPDEST JUMPDEST SWAP3 POP SWAP3 SWAP1 POP JUMP JUMPDEST PUSH1 0x0 DUP3 PUSH1 0x1F DUP4 ADD SLT PUSH2 0x3160 JUMPI PUSH2 0x315F PUSH2 0x3C5A JUMP JUMPDEST JUMPDEST DUP2 CALLDATALOAD PUSH2 0x3170 DUP5 DUP3 PUSH1 0x20 DUP7 ADD PUSH2 0x3070 JUMP JUMPDEST SWAP2 POP POP SWAP3 SWAP2 POP POP JUMP JUMPDEST PUSH1 0x0 DUP2 CALLDATALOAD SWAP1 POP PUSH2 0x3188 DUP2 PUSH2 0x3CB2 JUMP JUMPDEST SWAP3 SWAP2 POP POP JUMP JUMPDEST PUSH1 0x0 DUP2 MLOAD SWAP1 POP PUSH2 0x319D DUP2 PUSH2 0x3CB2 JUMP JUMPDEST SWAP3 SWAP2 POP POP JUMP JUMPDEST PUSH1 0x0 PUSH1 0x20 DUP3 DUP5 SUB SLT ISZERO PUSH2 0x31B9 JUMPI PUSH2 0x31B8 PUSH2 0x3C6E JUMP JUMPDEST JUMPDEST PUSH1 0x0 PUSH2 0x31C7 DUP5 DUP3 DUP6 ADD PUSH2 0x30B2 JUMP JUMPDEST SWAP2 POP POP SWAP3 SWAP2 POP POP JUMP JUMPDEST PUSH1 0x0 DUP1 PUSH1 0x20 DUP4 DUP6 SUB SLT ISZERO PUSH2 0x31E7 JUMPI PUSH2 0x31E6 PUSH2 0x3C6E JUMP JUMPDEST JUMPDEST PUSH1 0x0 DUP4 ADD CALLDATALOAD PUSH8 0xFFFFFFFFFFFFFFFF DUP2 GT ISZERO PUSH2 0x3205 JUMPI PUSH2 0x3204 PUSH2 0x3C69 JUMP JUMPDEST JUMPDEST PUSH2 0x3211 DUP6 DUP3 DUP7 ADD PUSH2 0x30F5 JUMP JUMPDEST SWAP3 POP SWAP3 POP POP SWAP3 POP SWAP3 SWAP1 POP JUMP JUMPDEST PUSH1 0x0 PUSH1 0x20 DUP3 DUP5 SUB SLT ISZERO PUSH2 0x3233 JUMPI PUSH2 0x3232 PUSH2 0x3C6E JUMP JUMPDEST JUMPDEST PUSH1 0x0 DUP3 ADD CALLDATALOAD PUSH8 0xFFFFFFFFFFFFFFFF DUP2 GT ISZERO PUSH2 0x3251 JUMPI PUSH2 0x3250 PUSH2 0x3C69 JUMP JUMPDEST JUMPDEST PUSH2 0x325D DUP5 DUP3 DUP6 ADD PUSH2 0x314B JUMP JUMPDEST SWAP2 POP POP SWAP3 SWAP2 POP POP JUMP JUMPDEST PUSH1 0x0 PUSH1 0x20 DUP3 DUP5 SUB SLT ISZERO PUSH2 0x327C JUMPI PUSH2 0x327B PUSH2 0x3C6E JUMP JUMPDEST JUMPDEST PUSH1 0x0 PUSH2 0x328A DUP5 DUP3 DUP6 ADD PUSH2 0x3179 JUMP JUMPDEST SWAP2 POP POP SWAP3 SWAP2 POP POP JUMP JUMPDEST PUSH1 0x0 PUSH1 0x20 DUP3 DUP5 SUB SLT ISZERO PUSH2 0x32A9 JUMPI PUSH2 0x32A8 PUSH2 0x3C6E JUMP JUMPDEST JUMPDEST PUSH1 0x0 PUSH2 0x32B7 DUP5 DUP3 DUP6 ADD PUSH2 0x318E JUMP JUMPDEST SWAP2 POP POP SWAP3 SWAP2 POP POP JUMP JUMPDEST PUSH1 0x0 DUP1 PUSH1 0x40 DUP4 DUP6 SUB SLT ISZERO PUSH2 0x32D7 JUMPI PUSH2 0x32D6 PUSH2 0x3C6E JUMP JUMPDEST JUMPDEST PUSH1 0x0 PUSH2 0x32E5 DUP6 DUP3 DUP7 ADD PUSH2 0x3179 JUMP JUMPDEST SWAP3 POP POP PUSH1 0x20 DUP4 ADD CALLDATALOAD PUSH8 0xFFFFFFFFFFFFFFFF DUP2 GT ISZERO PUSH2 0x3306 JUMPI PUSH2 0x3305 PUSH2 0x3C69 JUMP JUMPDEST JUMPDEST PUSH2 0x3312 DUP6 DUP3 DUP7 ADD PUSH2 0x30C7 JUMP JUMPDEST SWAP2 POP POP SWAP3 POP SWAP3 SWAP1 POP JUMP JUMPDEST PUSH1 0x0 PUSH2 0x3328 DUP4 DUP4 PUSH2 0x3334 JUMP JUMPDEST PUSH1 0x20 DUP4 ADD SWAP1 POP SWAP3 SWAP2 POP POP JUMP JUMPDEST PUSH2 0x333D DUP2 PUSH2 0x3938 JUMP JUMPDEST DUP3 MSTORE POP POP JUMP JUMPDEST PUSH2 0x334C DUP2 PUSH2 0x3938 JUMP JUMPDEST DUP3 MSTORE POP POP JUMP JUMPDEST PUSH1 0x0 PUSH2 0x335D DUP3 PUSH2 0x3672 JUMP JUMPDEST PUSH2 0x3367 DUP2 DUP6 PUSH2 0x3695 JUMP JUMPDEST SWAP4 POP PUSH2 0x3372 DUP4 PUSH2 0x3662 JUMP JUMPDEST DUP1 PUSH1 0x0 JUMPDEST DUP4 DUP2 LT ISZERO PUSH2 0x33A3 JUMPI DUP2 MLOAD PUSH2 0x338A DUP9 DUP3 PUSH2 0x331C JUMP JUMPDEST SWAP8 POP PUSH2 0x3395 DUP4 PUSH2 0x3688 JUMP JUMPDEST SWAP3 POP POP PUSH1 0x1 DUP2 ADD SWAP1 POP PUSH2 0x3376 JUMP JUMPDEST POP DUP6 SWAP4 POP POP POP POP SWAP3 SWAP2 POP POP JUMP JUMPDEST PUSH2 0x33B9 DUP2 PUSH2 0x394A JUMP JUMPDEST DUP3 MSTORE POP POP JUMP JUMPDEST PUSH2 0x33C8 DUP2 PUSH2 0x3956 JUMP JUMPDEST DUP3 MSTORE POP POP JUMP JUMPDEST PUSH1 0x0 PUSH2 0x33D9 DUP3 PUSH2 0x367D JUMP JUMPDEST PUSH2 0x33E3 DUP2 DUP6 PUSH2 0x36A6 JUMP JUMPDEST SWAP4 POP PUSH2 0x33F3 DUP2 DUP6 PUSH1 0x20 DUP7 ADD PUSH2 0x39FA JUMP JUMPDEST PUSH2 0x33FC DUP2 PUSH2 0x3C73 JUMP JUMPDEST DUP5 ADD SWAP2 POP POP SWAP3 SWAP2 POP POP JUMP JUMPDEST PUSH2 0x3410 DUP2 PUSH2 0x39D9 JUMP JUMPDEST DUP3 MSTORE POP POP JUMP JUMPDEST PUSH1 0x0 PUSH2 0x3423 PUSH1 0x0 DUP4 PUSH2 0x36B7 JUMP JUMPDEST SWAP2 POP PUSH2 0x342E DUP3 PUSH2 0x3C84 JUMP JUMPDEST PUSH1 0x0 DUP3 ADD SWAP1 POP SWAP2 SWAP1 POP JUMP JUMPDEST PUSH2 0x3442 DUP2 PUSH2 0x397D JUMP JUMPDEST DUP3 MSTORE POP POP JUMP JUMPDEST PUSH2 0x3451 DUP2 PUSH2 0x39AB JUMP JUMPDEST DUP3 MSTORE POP POP JUMP JUMPDEST PUSH2 0x3460 DUP2 PUSH2 0x39B5 JUMP JUMPDEST DUP3 MSTORE POP POP JUMP JUMPDEST PUSH2 0x346F DUP2 PUSH2 0x39C5 JUMP JUMPDEST DUP3 MSTORE POP POP JUMP JUMPDEST PUSH1 0x0 PUSH2 0x3480 DUP3 PUSH2 0x3416 JUMP JUMPDEST SWAP2 POP DUP2 SWAP1 POP SWAP2 SWAP1 POP JUMP JUMPDEST PUSH1 0x0 PUSH1 0x20 DUP3 ADD SWAP1 POP PUSH2 0x349F PUSH1 0x0 DUP4 ADD DUP5 PUSH2 0x3343 JUMP JUMPDEST SWAP3 SWAP2 POP POP JUMP JUMPDEST PUSH1 0x0 PUSH1 0x40 DUP3 ADD SWAP1 POP PUSH2 0x34BA PUSH1 0x0 DUP4 ADD DUP6 PUSH2 0x3343 JUMP JUMPDEST PUSH2 0x34C7 PUSH1 0x20 DUP4 ADD DUP5 PUSH2 0x3343 JUMP JUMPDEST SWAP4 SWAP3 POP POP POP JUMP JUMPDEST PUSH1 0x0 PUSH1 0x20 DUP3 ADD SWAP1 POP DUP2 DUP2 SUB PUSH1 0x0 DUP4 ADD MSTORE PUSH2 0x34E8 DUP2 DUP5 PUSH2 0x3352 JUMP JUMPDEST SWAP1 POP SWAP3 SWAP2 POP POP JUMP JUMPDEST PUSH1 0x0 PUSH1 0x40 DUP3 ADD SWAP1 POP PUSH2 0x3505 PUSH1 0x0 DUP4 ADD DUP6 PUSH2 0x33B0 JUMP JUMPDEST DUP2 DUP2 SUB PUSH1 0x20 DUP4 ADD MSTORE PUSH2 0x3517 DUP2 DUP5 PUSH2 0x33CE JUMP JUMPDEST SWAP1 POP SWAP4 SWAP3 POP POP POP JUMP JUMPDEST PUSH1 0x0 PUSH1 0xA0 DUP3 ADD SWAP1 POP PUSH2 0x3535 PUSH1 0x0 DUP4 ADD DUP9 PUSH2 0x33BF JUMP JUMPDEST PUSH2 0x3542 PUSH1 0x20 DUP4 ADD DUP8 PUSH2 0x3466 JUMP JUMPDEST PUSH2 0x354F PUSH1 0x40 DUP4 ADD DUP7 PUSH2 0x3439 JUMP JUMPDEST PUSH2 0x355C PUSH1 0x60 DUP4 ADD DUP6 PUSH2 0x3457 JUMP JUMPDEST PUSH2 0x3569 PUSH1 0x80 DUP4 ADD DUP5 PUSH2 0x3457 JUMP JUMPDEST SWAP7 SWAP6 POP POP POP POP POP POP JUMP JUMPDEST PUSH1 0x0 PUSH1 0x20 DUP3 ADD SWAP1 POP PUSH2 0x3588 PUSH1 0x0 DUP4 ADD DUP5 PUSH2 0x3407 JUMP JUMPDEST SWAP3 SWAP2 POP POP JUMP JUMPDEST PUSH1 0x0 PUSH1 0x20 DUP3 ADD SWAP1 POP PUSH2 0x35A3 PUSH1 0x0 DUP4 ADD DUP5 PUSH2 0x3448 JUMP JUMPDEST SWAP3 SWAP2 POP POP JUMP JUMPDEST PUSH1 0x0 PUSH1 0x60 DUP3 ADD SWAP1 POP PUSH2 0x35BE PUSH1 0x0 DUP4 ADD DUP7 PUSH2 0x3448 JUMP JUMPDEST PUSH2 0x35CB PUSH1 0x20 DUP4 ADD DUP6 PUSH2 0x3448 JUMP JUMPDEST PUSH2 0x35D8 PUSH1 0x40 DUP4 ADD DUP5 PUSH2 0x3448 JUMP JUMPDEST SWAP5 SWAP4 POP POP POP POP JUMP JUMPDEST PUSH1 0x0 PUSH2 0x35EA PUSH2 0x35FB JUMP JUMPDEST SWAP1 POP PUSH2 0x35F6 DUP3 DUP3 PUSH2 0x3A76 JUMP JUMPDEST SWAP2 SWAP1 POP JUMP JUMPDEST PUSH1 0x0 PUSH1 0x40 MLOAD SWAP1 POP SWAP1 JUMP JUMPDEST PUSH1 0x0 PUSH8 0xFFFFFFFFFFFFFFFF DUP3 GT ISZERO PUSH2 0x3620 JUMPI PUSH2 0x361F PUSH2 0x3C26 JUMP JUMPDEST JUMPDEST PUSH1 0x20 DUP3 MUL SWAP1 POP PUSH1 0x20 DUP2 ADD SWAP1 POP SWAP2 SWAP1 POP JUMP JUMPDEST PUSH1 0x0 PUSH8 0xFFFFFFFFFFFFFFFF DUP3 GT ISZERO PUSH2 0x364C JUMPI PUSH2 0x364B PUSH2 0x3C26 JUMP JUMPDEST JUMPDEST PUSH2 0x3655 DUP3 PUSH2 0x3C73 JUMP JUMPDEST SWAP1 POP PUSH1 0x20 DUP2 ADD SWAP1 POP SWAP2 SWAP1 POP JUMP JUMPDEST PUSH1 0x0 DUP2 SWAP1 POP PUSH1 0x20 DUP3 ADD SWAP1 POP SWAP2 SWAP1 POP JUMP JUMPDEST PUSH1 0x0 DUP2 MLOAD SWAP1 POP SWAP2 SWAP1 POP JUMP JUMPDEST PUSH1 0x0 DUP2 MLOAD SWAP1 POP SWAP2 SWAP1 POP JUMP JUMPDEST PUSH1 0x0 PUSH1 0x20 DUP3 ADD SWAP1 POP SWAP2 SWAP1 POP JUMP JUMPDEST PUSH1 0x0 DUP3 DUP3 MSTORE PUSH1 0x20 DUP3 ADD SWAP1 POP SWAP3 SWAP2 POP POP JUMP JUMPDEST PUSH1 0x0 DUP3 DUP3 MSTORE PUSH1 0x20 DUP3 ADD SWAP1 POP SWAP3 SWAP2 POP POP JUMP JUMPDEST PUSH1 0x0 DUP2 SWAP1 POP SWAP3 SWAP2 POP POP JUMP JUMPDEST PUSH1 0x0 PUSH2 0x36CD DUP3 PUSH2 0x3973 JUMP JUMPDEST SWAP2 POP PUSH2 0x36D8 DUP4 PUSH2 0x3973 JUMP JUMPDEST SWAP3 POP DUP2 PUSH32 0x7FFFFFFFFFFFFFFFFFFFFFFFFFFFFFFFFFFFFFFFFFFFFFFFFFFFFFFFFFFFFFFF SUB DUP4 SGT PUSH1 0x0 DUP4 SLT ISZERO AND ISZERO PUSH2 0x3713 JUMPI PUSH2 0x3712 PUSH2 0x3B6A JUMP JUMPDEST JUMPDEST DUP2 PUSH32 0x8000000000000000000000000000000000000000000000000000000000000000 SUB DUP4 SLT PUSH1 0x0 DUP4 SLT AND ISZERO PUSH2 0x374B JUMPI PUSH2 0x374A PUSH2 0x3B6A JUMP JUMPDEST JUMPDEST DUP3 DUP3 ADD SWAP1 POP SWAP3 SWAP2 POP POP JUMP JUMPDEST PUSH1 0x0 PUSH2 0x3761 DUP3 PUSH2 0x39AB JUMP JUMPDEST SWAP2 POP PUSH2 0x376C DUP4 PUSH2 0x39AB JUMP JUMPDEST SWAP3 POP DUP3 PUSH32 0xFFFFFFFFFFFFFFFFFFFFFFFFFFFFFFFFFFFFFFFFFFFFFFFFFFFFFFFFFFFFFFFF SUB DUP3 GT ISZERO PUSH2 0x37A1 JUMPI PUSH2 0x37A0 PUSH2 0x3B6A JUMP JUMPDEST JUMPDEST DUP3 DUP3 ADD SWAP1 POP SWAP3 SWAP2 POP POP JUMP JUMPDEST PUSH1 0x0 PUSH2 0x37B7 DUP3 PUSH2 0x3973 JUMP JUMPDEST SWAP2 POP PUSH2 0x37C2 DUP4 PUSH2 0x3973 JUMP JUMPDEST SWAP3 POP DUP3 PUSH2 0x37D2 JUMPI PUSH2 0x37D1 PUSH2 0x3B99 JUMP JUMPDEST JUMPDEST PUSH1 0x1 PUSH1 0x0 SUB DUP4 EQ PUSH32 0x8000000000000000000000000000000000000000000000000000000000000000 DUP4 EQ AND ISZERO PUSH2 0x380B JUMPI PUSH2 0x380A PUSH2 0x3B6A JUMP JUMPDEST JUMPDEST DUP3 DUP3 SDIV SWAP1 POP SWAP3 SWAP2 POP POP JUMP JUMPDEST PUSH1 0x0 PUSH2 0x3821 DUP3 PUSH2 0x39AB JUMP JUMPDEST SWAP2 POP PUSH2 0x382C DUP4 PUSH2 0x39AB JUMP JUMPDEST SWAP3 POP DUP2 PUSH32 0xFFFFFFFFFFFFFFFFFFFFFFFFFFFFFFFFFFFFFFFFFFFFFFFFFFFFFFFFFFFFFFFF DIV DUP4 GT DUP3 ISZERO ISZERO AND ISZERO PUSH2 0x3865 JUMPI PUSH2 0x3864 PUSH2 0x3B6A JUMP JUMPDEST JUMPDEST DUP3 DUP3 MUL SWAP1 POP SWAP3 SWAP2 POP POP JUMP JUMPDEST PUSH1 0x0 PUSH2 0x387B DUP3 PUSH2 0x3973 JUMP JUMPDEST SWAP2 POP PUSH2 0x3886 DUP4 PUSH2 0x3973 JUMP JUMPDEST SWAP3 POP DUP3 PUSH32 0x8000000000000000000000000000000000000000000000000000000000000000 ADD DUP3 SLT PUSH1 0x0 DUP5 SLT ISZERO AND ISZERO PUSH2 0x38C1 JUMPI PUSH2 0x38C0 PUSH2 0x3B6A JUMP JUMPDEST JUMPDEST DUP3 PUSH32 0x7FFFFFFFFFFFFFFFFFFFFFFFFFFFFFFFFFFFFFFFFFFFFFFFFFFFFFFFFFFFFFFF ADD DUP3 SGT PUSH1 0x0 DUP5 SLT AND ISZERO PUSH2 0x38F9 JUMPI PUSH2 0x38F8 PUSH2 0x3B6A JUMP JUMPDEST JUMPDEST DUP3 DUP3 SUB SWAP1 POP SWAP3 SWAP2 POP POP JUMP JUMPDEST PUSH1 0x0 PUSH2 0x390F DUP3 PUSH2 0x39AB JUMP JUMPDEST SWAP2 POP PUSH2 0x391A DUP4 PUSH2 0x39AB JUMP JUMPDEST SWAP3 POP DUP3 DUP3 LT ISZERO PUSH2 0x392D JUMPI PUSH2 0x392C PUSH2 0x3B6A JUMP JUMPDEST JUMPDEST DUP3 DUP3 SUB SWAP1 POP SWAP3 SWAP2 POP POP JUMP JUMPDEST PUSH1 0x0 PUSH2 0x3943 DUP3 PUSH2 0x398B JUMP JUMPDEST SWAP1 POP SWAP2 SWAP1 POP JUMP JUMPDEST PUSH1 0x0 DUP2 ISZERO ISZERO SWAP1 POP SWAP2 SWAP1 POP JUMP JUMPDEST PUSH1 0x0 DUP2 SWAP1 POP SWAP2 SWAP1 POP JUMP JUMPDEST PUSH1 0x0 DUP2 SWAP1 POP PUSH2 0x396E DUP3 PUSH2 0x3C87 JUMP JUMPDEST SWAP2 SWAP1 POP JUMP JUMPDEST PUSH1 0x0 DUP2 SWAP1 POP SWAP2 SWAP1 POP JUMP JUMPDEST PUSH1 0x0 PUSH2 0xFFFF DUP3 AND SWAP1 POP SWAP2 SWAP1 POP JUMP JUMPDEST PUSH1 0x0 PUSH20 0xFFFFFFFFFFFFFFFFFFFFFFFFFFFFFFFFFFFFFFFF DUP3 AND SWAP1 POP SWAP2 SWAP1 POP JUMP JUMPDEST PUSH1 0x0 DUP2 SWAP1 POP SWAP2 SWAP1 POP JUMP JUMPDEST PUSH1 0x0 PUSH4 0xFFFFFFFF DUP3 AND SWAP1 POP SWAP2 SWAP1 POP JUMP JUMPDEST PUSH1 0x0 PUSH8 0xFFFFFFFFFFFFFFFF DUP3 AND SWAP1 POP SWAP2 SWAP1 POP JUMP JUMPDEST PUSH1 0x0 PUSH2 0x39E4 DUP3 PUSH2 0x3960 JUMP JUMPDEST SWAP1 POP SWAP2 SWAP1 POP JUMP JUMPDEST DUP3 DUP2 DUP4 CALLDATACOPY PUSH1 0x0 DUP4 DUP4 ADD MSTORE POP POP POP JUMP JUMPDEST PUSH1 0x0 JUMPDEST DUP4 DUP2 LT ISZERO PUSH2 0x3A18 JUMPI DUP1 DUP3 ADD MLOAD DUP2 DUP5 ADD MSTORE PUSH1 0x20 DUP2 ADD SWAP1 POP PUSH2 0x39FD JUMP JUMPDEST DUP4 DUP2 GT ISZERO PUSH2 0x3A27 JUMPI PUSH1 0x0 DUP5 DUP5 ADD MSTORE JUMPDEST POP POP POP POP JUMP JUMPDEST PUSH1 0x0 PUSH2 0x3A38 DUP3 PUSH2 0x3973 JUMP JUMPDEST SWAP2 POP PUSH32 0x8000000000000000000000000000000000000000000000000000000000000000 DUP3 EQ ISZERO PUSH2 0x3A6B JUMPI PUSH2 0x3A6A PUSH2 0x3B6A JUMP JUMPDEST JUMPDEST PUSH1 0x1 DUP3 SUB SWAP1 POP SWAP2 SWAP1 POP JUMP JUMPDEST PUSH2 0x3A7F DUP3 PUSH2 0x3C73 JUMP JUMPDEST DUP2 ADD DUP2 DUP2 LT PUSH8 0xFFFFFFFFFFFFFFFF DUP3 GT OR ISZERO PUSH2 0x3A9E JUMPI PUSH2 0x3A9D PUSH2 0x3C26 JUMP JUMPDEST JUMPDEST DUP1 PUSH1 0x40 MSTORE POP POP POP JUMP JUMPDEST PUSH1 0x0 PUSH2 0x3AB2 DUP3 PUSH2 0x3973 JUMP JUMPDEST SWAP2 POP PUSH32 0x7FFFFFFFFFFFFFFFFFFFFFFFFFFFFFFFFFFFFFFFFFFFFFFFFFFFFFFFFFFFFFFF DUP3 EQ ISZERO PUSH2 0x3AE5 JUMPI PUSH2 0x3AE4 PUSH2 0x3B6A JUMP JUMPDEST JUMPDEST PUSH1 0x1 DUP3 ADD SWAP1 POP SWAP2 SWAP1 POP JUMP JUMPDEST PUSH1 0x0 PUSH2 0x3AFB DUP3 PUSH2 0x39AB JUMP JUMPDEST SWAP2 POP PUSH32 0xFFFFFFFFFFFFFFFFFFFFFFFFFFFFFFFFFFFFFFFFFFFFFFFFFFFFFFFFFFFFFFFF DUP3 EQ ISZERO PUSH2 0x3B2E JUMPI PUSH2 0x3B2D PUSH2 0x3B6A JUMP JUMPDEST JUMPDEST PUSH1 0x1 DUP3 ADD SWAP1 POP SWAP2 SWAP1 POP JUMP JUMPDEST PUSH1 0x0 PUSH2 0x3B44 DUP3 PUSH2 0x39AB JUMP JUMPDEST SWAP2 POP PUSH2 0x3B4F DUP4 PUSH2 0x39AB JUMP JUMPDEST SWAP3 POP DUP3 PUSH2 0x3B5F JUMPI PUSH2 0x3B5E PUSH2 0x3B99 JUMP JUMPDEST JUMPDEST DUP3 DUP3 MOD SWAP1 POP SWAP3 SWAP2 POP POP JUMP JUMPDEST PUSH32 0x4E487B7100000000000000000000000000000000000000000000000000000000 PUSH1 0x0 MSTORE PUSH1 0x11 PUSH1 0x4 MSTORE PUSH1 0x24 PUSH1 0x0 REVERT JUMPDEST PUSH32 0x4E487B7100000000000000000000000000000000000000000000000000000000 PUSH1 0x0 MSTORE PUSH1 0x12 PUSH1 0x4 MSTORE PUSH1 0x24 PUSH1 0x0 REVERT JUMPDEST PUSH32 0x4E487B7100000000000000000000000000000000000000000000000000000000 PUSH1 0x0 MSTORE PUSH1 0x21 PUSH1 0x4 MSTORE PUSH1 0x24 PUSH1 0x0 REVERT JUMPDEST PUSH32 0x4E487B7100000000000000000000000000000000000000000000000000000000 PUSH1 0x0 MSTORE PUSH1 0x32 PUSH1 0x4 MSTORE PUSH1 0x24 PUSH1 0x0 REVERT JUMPDEST PUSH32 0x4E487B7100000000000000000000000000000000000000000000000000000000 PUSH1 0x0 MSTORE PUSH1 0x41 PUSH1 0x4 MSTORE PUSH1 0x24 PUSH1 0x0 REVERT JUMPDEST PUSH1 0x0 DUP1 REVERT JUMPDEST PUSH1 0x0 DUP1 REVERT JUMPDEST PUSH1 0x0 DUP1 REVERT JUMPDEST PUSH1 0x0 DUP1 REVERT JUMPDEST PUSH1 0x0 DUP1 REVERT JUMPDEST PUSH1 0x0 DUP1 REVERT JUMPDEST PUSH1 0x0 PUSH1 0x1F NOT PUSH1 0x1F DUP4 ADD AND SWAP1 POP SWAP2 SWAP1 POP JUMP JUMPDEST POP JUMP JUMPDEST PUSH1 0x3 DUP2 LT PUSH2 0x3C98 JUMPI PUSH2 0x3C97 PUSH2 0x3BC8 JUMP JUMPDEST JUMPDEST POP JUMP JUMPDEST PUSH2 0x3CA4 DUP2 PUSH2 0x3938 JUMP JUMPDEST DUP2 EQ PUSH2 0x3CAF JUMPI PUSH1 0x0 DUP1 REVERT JUMPDEST POP JUMP JUMPDEST PUSH2 0x3CBB DUP2 PUSH2 0x39AB JUMP JUMPDEST DUP2 EQ PUSH2 0x3CC6 JUMPI PUSH1 0x0 DUP1 REVERT JUMPDEST POP JUMP INVALID LOG2 PUSH5 0x6970667358 0x22 SLT KECCAK256 RETURNDATACOPY CALLCODE 0xB0 0x5C 0xAB 0xEC 0xB1 0xBB 0xC3 PUSH12 0xF84FB1D39B6B4345B3FB4790 ADD 0xD1 PUSH11 0xC163519F8412DC64736F6C PUSH4 0x43000807 STOP CALLER "
		},
		"gasEstimates": {
			"creation": {
				"codeDepositCost": "3123000",
				"executionCost": "infinite",
				"totalCost": "infinite"
			},
			"external": {
				"checkUpkeep(bytes)": "infinite",
				"donationMatch()": "infinite",
				"enterRaffle(uint256)": "infinite",
				"fundDonationMatch()": "infinite",
				"getAllPlayers()": "infinite",
				"getCharities()": "infinite",
				"getCharityWinner()": "2589",
				"getDonations(address)": "2909",
				"getDuration()": "infinite",
				"getEntranceFee()": "infinite",
				"getFundingWallet()": "infinite",
				"getHighestDonations()": "2547",
				"getJackpot()": "infinite",
				"getNumWords()": "432",
				"getNumberOfPlayers()": "2577",
				"getPlayer(uint256)": "5033",
				"getRaffleState()": "2614",
				"getRecentWinner()": "2567",
				"getRequestConfirmations()": "454",
				"getStartTime()": "2481",
				"performUpkeep(bytes)": "infinite",
				"rawFulfillRandomWords(uint256,uint256[])": "infinite"
			},
			"internal": {
				"checkForTie()": "infinite",
				"fulfillRandomWords(uint256,uint256[] memory)": "infinite",
				"handleTie(uint256[] memory,uint256,uint256,uint256)": "infinite",
				"quickSort(uint256[] memory,int256,int256)": "infinite",
				"sort(uint256[] memory)": "infinite"
			}
		},
		"methodIdentifiers": {
			"checkUpkeep(bytes)": "6e04ff0d",
			"donationMatch()": "7c6d085f",
			"enterRaffle(uint256)": "2e519f90",
			"fundDonationMatch()": "a3d7dd31",
			"getAllPlayers()": "efa1c482",
			"getCharities()": "48112c6f",
			"getCharityWinner()": "855c289c",
			"getDonations(address)": "1910bdc2",
			"getDuration()": "ad2e8c9b",
			"getEntranceFee()": "09bc33a7",
			"getFundingWallet()": "6846af76",
			"getHighestDonations()": "f975cb39",
			"getJackpot()": "9329066c",
			"getNumWords()": "53a2c19a",
			"getNumberOfPlayers()": "fd6673f5",
			"getPlayer(uint256)": "e55ae4e8",
			"getRaffleState()": "115cbaf5",
			"getRecentWinner()": "473f1ddc",
			"getRequestConfirmations()": "5f1b0fd8",
			"getStartTime()": "c828371e",
			"performUpkeep(bytes)": "4585e33b",
			"rawFulfillRandomWords(uint256,uint256[])": "1fe543e3"
		}
	},
	"abi": [
		{
			"inputs": [
				{
					"internalType": "address",
					"name": "vrfCoordinatorV2",
					"type": "address"
				},
				{
					"internalType": "uint64",
					"name": "subscriptionId",
					"type": "uint64"
				},
				{
					"internalType": "bytes32",
					"name": "gasLane",
					"type": "bytes32"
				},
				{
					"internalType": "uint256",
					"name": "entranceFee",
					"type": "uint256"
				},
				{
					"internalType": "uint256",
					"name": "jackpot",
					"type": "uint256"
				},
				{
					"internalType": "uint256",
					"name": "duration",
					"type": "uint256"
				},
				{
					"internalType": "uint32",
					"name": "callbackGasLimit",
					"type": "uint32"
				},
				{
					"internalType": "address",
					"name": "charity1",
					"type": "address"
				},
				{
					"internalType": "address",
					"name": "charity2",
					"type": "address"
				},
				{
					"internalType": "address",
					"name": "charity3",
					"type": "address"
				},
				{
					"internalType": "address",
					"name": "fundingWallet",
					"type": "address"
				}
			],
			"stateMutability": "payable",
			"type": "constructor"
		},
		{
			"inputs": [
				{
					"internalType": "address",
					"name": "charity",
					"type": "address"
				}
			],
			"name": "CharityRaffle__CharityTransferFailed",
			"type": "error"
		},
		{
			"inputs": [],
			"name": "CharityRaffle__ContractNotFunded",
			"type": "error"
		},
		{
			"inputs": [],
			"name": "CharityRaffle__DonationMatchFailed",
			"type": "error"
		},
		{
			"inputs": [],
			"name": "CharityRaffle__FundingContractFailed",
			"type": "error"
		},
		{
			"inputs": [],
			"name": "CharityRaffle__FundingToMatchTransferFailed",
			"type": "error"
		},
		{
			"inputs": [],
			"name": "CharityRaffle__IncorrectMatchValue",
			"type": "error"
		},
		{
			"inputs": [],
			"name": "CharityRaffle__JackpotTransferFailed",
			"type": "error"
		},
		{
			"inputs": [],
			"name": "CharityRaffle__MatchAlreadyFunded",
			"type": "error"
		},
		{
			"inputs": [],
			"name": "CharityRaffle__MustBeFunder",
			"type": "error"
		},
		{
			"inputs": [],
			"name": "CharityRaffle__NoCharityWinner",
			"type": "error"
		},
		{
			"inputs": [],
			"name": "CharityRaffle__NotValidCharityChoice",
			"type": "error"
		},
		{
			"inputs": [],
			"name": "CharityRaffle__RaffleNotClosed",
			"type": "error"
		},
		{
			"inputs": [],
			"name": "CharityRaffle__RaffleNotOpen",
			"type": "error"
		},
		{
			"inputs": [],
			"name": "CharityRaffle__SendMoreToEnterRaffle",
			"type": "error"
		},
		{
			"inputs": [
				{
					"internalType": "uint256",
					"name": "currentBalance",
					"type": "uint256"
				},
				{
					"internalType": "uint256",
					"name": "numPlayers",
					"type": "uint256"
				},
				{
					"internalType": "uint256",
					"name": "raffleState",
					"type": "uint256"
				}
			],
			"name": "CharityRaffle__UpkeepNotNeeded",
			"type": "error"
		},
		{
			"inputs": [
				{
					"internalType": "address",
					"name": "have",
					"type": "address"
				},
				{
					"internalType": "address",
					"name": "want",
					"type": "address"
				}
			],
			"name": "OnlyCoordinatorCanFulfill",
			"type": "error"
		},
		{
			"anonymous": false,
			"inputs": [
				{
					"indexed": true,
					"internalType": "address",
					"name": "charity",
					"type": "address"
				}
			],
			"name": "CharityWinnerPicked",
			"type": "event"
		},
		{
			"anonymous": false,
			"inputs": [
				{
					"indexed": true,
					"internalType": "address",
					"name": "player",
					"type": "address"
				}
			],
			"name": "RaffleEnter",
			"type": "event"
		},
		{
			"anonymous": false,
			"inputs": [
				{
					"indexed": true,
					"internalType": "uint256",
					"name": "requestId",
					"type": "uint256"
				}
			],
			"name": "RequestedRaffleWinner",
			"type": "event"
		},
		{
			"anonymous": false,
			"inputs": [
				{
					"indexed": true,
					"internalType": "address",
					"name": "player",
					"type": "address"
				}
			],
			"name": "WinnerPicked",
			"type": "event"
		},
		{
			"inputs": [
				{
					"internalType": "bytes",
					"name": "",
					"type": "bytes"
				}
			],
			"name": "checkUpkeep",
			"outputs": [
				{
					"internalType": "bool",
					"name": "upkeepNeeded",
					"type": "bool"
				},
				{
					"internalType": "bytes",
					"name": "",
					"type": "bytes"
				}
			],
			"stateMutability": "view",
			"type": "function"
		},
		{
			"inputs": [],
			"name": "donationMatch",
			"outputs": [],
			"stateMutability": "nonpayable",
			"type": "function"
		},
		{
			"inputs": [
				{
					"internalType": "uint256",
					"name": "charityChoice",
					"type": "uint256"
				}
			],
			"name": "enterRaffle",
			"outputs": [],
			"stateMutability": "payable",
			"type": "function"
		},
		{
			"inputs": [],
			"name": "fundDonationMatch",
			"outputs": [],
			"stateMutability": "payable",
			"type": "function"
		},
		{
			"inputs": [],
			"name": "getAllPlayers",
			"outputs": [
				{
					"internalType": "address[]",
					"name": "",
					"type": "address[]"
				}
			],
			"stateMutability": "view",
			"type": "function"
		},
		{
			"inputs": [],
			"name": "getCharities",
			"outputs": [
				{
					"internalType": "address[]",
					"name": "",
					"type": "address[]"
				}
			],
			"stateMutability": "view",
			"type": "function"
		},
		{
			"inputs": [],
			"name": "getCharityWinner",
			"outputs": [
				{
					"internalType": "address",
					"name": "",
					"type": "address"
				}
			],
			"stateMutability": "view",
			"type": "function"
		},
		{
			"inputs": [
				{
					"internalType": "address",
					"name": "charity",
					"type": "address"
				}
			],
			"name": "getDonations",
			"outputs": [
				{
					"internalType": "uint256",
					"name": "",
					"type": "uint256"
				}
			],
			"stateMutability": "view",
			"type": "function"
		},
		{
			"inputs": [],
			"name": "getDuration",
			"outputs": [
				{
					"internalType": "uint256",
					"name": "",
					"type": "uint256"
				}
			],
			"stateMutability": "view",
			"type": "function"
		},
		{
			"inputs": [],
			"name": "getEntranceFee",
			"outputs": [
				{
					"internalType": "uint256",
					"name": "",
					"type": "uint256"
				}
			],
			"stateMutability": "view",
			"type": "function"
		},
		{
			"inputs": [],
			"name": "getFundingWallet",
			"outputs": [
				{
					"internalType": "address",
					"name": "",
					"type": "address"
				}
			],
			"stateMutability": "view",
			"type": "function"
		},
		{
			"inputs": [],
			"name": "getHighestDonations",
			"outputs": [
				{
					"internalType": "uint256",
					"name": "",
					"type": "uint256"
				}
			],
			"stateMutability": "view",
			"type": "function"
		},
		{
			"inputs": [],
			"name": "getJackpot",
			"outputs": [
				{
					"internalType": "uint256",
					"name": "",
					"type": "uint256"
				}
			],
			"stateMutability": "view",
			"type": "function"
		},
		{
			"inputs": [],
			"name": "getNumWords",
			"outputs": [
				{
					"internalType": "uint256",
					"name": "",
					"type": "uint256"
				}
			],
			"stateMutability": "pure",
			"type": "function"
		},
		{
			"inputs": [],
			"name": "getNumberOfPlayers",
			"outputs": [
				{
					"internalType": "uint256",
					"name": "",
					"type": "uint256"
				}
			],
			"stateMutability": "view",
			"type": "function"
		},
		{
			"inputs": [
				{
					"internalType": "uint256",
					"name": "index",
					"type": "uint256"
				}
			],
			"name": "getPlayer",
			"outputs": [
				{
					"internalType": "address",
					"name": "",
					"type": "address"
				}
			],
			"stateMutability": "view",
			"type": "function"
		},
		{
			"inputs": [],
			"name": "getRaffleState",
			"outputs": [
				{
					"internalType": "enum CharityRaffle.RaffleState",
					"name": "",
					"type": "uint8"
				}
			],
			"stateMutability": "view",
			"type": "function"
		},
		{
			"inputs": [],
			"name": "getRecentWinner",
			"outputs": [
				{
					"internalType": "address",
					"name": "",
					"type": "address"
				}
			],
			"stateMutability": "view",
			"type": "function"
		},
		{
			"inputs": [],
			"name": "getRequestConfirmations",
			"outputs": [
				{
					"internalType": "uint256",
					"name": "",
					"type": "uint256"
				}
			],
			"stateMutability": "pure",
			"type": "function"
		},
		{
			"inputs": [],
			"name": "getStartTime",
			"outputs": [
				{
					"internalType": "uint256",
					"name": "",
					"type": "uint256"
				}
			],
			"stateMutability": "view",
			"type": "function"
		},
		{
			"inputs": [
				{
					"internalType": "bytes",
					"name": "",
					"type": "bytes"
				}
			],
			"name": "performUpkeep",
			"outputs": [],
			"stateMutability": "nonpayable",
			"type": "function"
		},
		{
			"inputs": [
				{
					"internalType": "uint256",
					"name": "requestId",
					"type": "uint256"
				},
				{
					"internalType": "uint256[]",
					"name": "randomWords",
					"type": "uint256[]"
				}
			],
			"name": "rawFulfillRandomWords",
			"outputs": [],
			"stateMutability": "nonpayable",
			"type": "function"
		},
		{
			"stateMutability": "payable",
			"type": "receive"
		}
	]
}