{
	"data": {
		"bytecode": {
			"linkReferences": {},
			"object": "610200604052604051620040d8380380620040d883398181016040528101906200002a919062000336565b8a8073ffffffffffffffffffffffffffffffffffffffff1660808173ffffffffffffffffffffffffffffffffffffffff1660601b81525050508a73ffffffffffffffffffffffffffffffffffffffff1660a08173ffffffffffffffffffffffffffffffffffffffff1660601b815250508561012081815250508861010081815250508967ffffffffffffffff1660e08167ffffffffffffffff1660c01b815250508761014081815250508661016081815250506000600560006101000a81548160ff02191690836002811115620001065762000105620004f8565b5b0217905550426000819055508463ffffffff1660c08163ffffffff1660e01b815250508373ffffffffffffffffffffffffffffffffffffffff166101808173ffffffffffffffffffffffffffffffffffffffff1660601b815250508273ffffffffffffffffffffffffffffffffffffffff166101a08173ffffffffffffffffffffffffffffffffffffffff1660601b815250508173ffffffffffffffffffffffffffffffffffffffff166101c08173ffffffffffffffffffffffffffffffffffffffff1660601b815250508073ffffffffffffffffffffffffffffffffffffffff166101e08173ffffffffffffffffffffffffffffffffffffffff1660601b8152505060003073ffffffffffffffffffffffffffffffffffffffff168860405162000231906200046a565b60006040518083038185875af1925050503d806000811462000270576040519150601f19603f3d011682016040523d82523d6000602084013e62000275565b606091505b5050905080620002b1576040517ffec76e0f00000000000000000000000000000000000000000000000000000000815260040160405180910390fd5b505050505050505050505050620005b1565b600081519050620002d4816200052f565b92915050565b600081519050620002eb8162000549565b92915050565b600081519050620003028162000563565b92915050565b60008151905062000319816200057d565b92915050565b600081519050620003308162000597565b92915050565b60008060008060008060008060008060006101608c8e0312156200035f576200035e62000527565b5b60006200036f8e828f01620002c3565b9b50506020620003828e828f016200031f565b9a50506040620003958e828f01620002da565b9950506060620003a88e828f01620002f1565b9850506080620003bb8e828f01620002f1565b97505060a0620003ce8e828f01620002f1565b96505060c0620003e18e828f0162000308565b95505060e0620003f48e828f01620002c3565b945050610100620004088e828f01620002c3565b9350506101206200041c8e828f01620002c3565b925050610140620004308e828f01620002c3565b9150509295989b509295989b9093969950565b60006200045260008362000481565b91506200045f826200052c565b600082019050919050565b6000620004778262000443565b9150819050919050565b600081905092915050565b60006200049982620004aa565b9050919050565b6000819050919050565b600073ffffffffffffffffffffffffffffffffffffffff82169050919050565b6000819050919050565b600063ffffffff82169050919050565b600067ffffffffffffffff82169050919050565b7f4e487b7100000000000000000000000000000000000000000000000000000000600052602160045260246000fd5b600080fd5b50565b6200053a816200048c565b81146200054657600080fd5b50565b6200055481620004a0565b81146200056057600080fd5b50565b6200056e81620004ca565b81146200057a57600080fd5b50565b6200058881620004d4565b81146200059457600080fd5b50565b620005a281620004e4565b8114620005ae57600080fd5b50565b60805160601c60a05160601c60c05160e01c60e05160c01c610100516101205161014051610160516101805160601c6101a05160601c6101c05160601c6101e05160601c61396c6200076c60003960008181611021015281816110f501526114ad015260008181610a2901528181610ab801528181610b1901528181610f8d01528181611b0101528181611b6501528181611ce901528181611fc50152818161208d0152818161249b0152818161277601526128e20152600081816108bb0152818161094a015281816109ab01528181610f1e01528181611a3801528181611a9c01528181611c6d01528181611efe015281816120ed015281816124350152818161260a015261287c01526000818161074d015281816107dc0152818161083d01528181610eaf0152818161196f015281816119d301528181611bf101528181611f5e01528181612025015281816123ac015281816125a40152612710015260006114870152600081816104df01528181610625015261167d015260008181611088015261170201526000610d2701526000610d4801526000610d6b01526000610ceb01526000818161056501526105b9015261396c6000f3fe6080604052600436106101355760003560e01c80636e04ff0d116100ab578063ad2e8c9b1161006f578063ad2e8c9b146103c7578063c828371e146103f2578063e55ae4e81461041d578063efa1c4821461045a578063f975cb3914610485578063fd6673f5146104b057610135565b80636e04ff0d146103125780637c6d085f14610350578063855c289c146103675780639329066c14610392578063a3d7dd31146103bd57610135565b80634585e33b116100fd5780634585e33b14610212578063473f1ddc1461023b57806348112c6f1461026657806353a2c19a146102915780635f1b0fd8146102bc5780636846af76146102e757610135565b806309bc33a71461013a578063115cbaf5146101655780631910bdc2146101905780631fe543e3146101cd5780632e519f90146101f6575b600080fd5b34801561014657600080fd5b5061014f6104db565b60405161015c91906131fb565b60405180910390f35b34801561017157600080fd5b5061017a610503565b60405161018791906131e0565b60405180910390f35b34801561019c57600080fd5b506101b760048036038101906101b29190612e10565b61051a565b6040516101c491906131fb565b60405180910390f35b3480156101d957600080fd5b506101f460048036038101906101ef9190612f2d565b610563565b005b610210600480360381019061020b9190612ed3565b610623565b005b34801561021e57600080fd5b5061023960048036038101906102349190612e3d565b610c33565b005b34801561024757600080fd5b50610250610e33565b60405161025d91906130f7565b60405180910390f35b34801561027257600080fd5b5061027b610e5d565b604051610288919061313b565b60405180910390f35b34801561029d57600080fd5b506102a6611001565b6040516102b391906131fb565b60405180910390f35b3480156102c857600080fd5b506102d1611010565b6040516102de91906131fb565b60405180910390f35b3480156102f357600080fd5b506102fc61101d565b60405161030991906130f7565b60405180910390f35b34801561031e57600080fd5b5061033960048036038101906103349190612e8a565b611045565b60405161034792919061315d565b60405180910390f35b34801561035c57600080fd5b506103656110f3565b005b34801561037357600080fd5b5061037c611459565b60405161038991906130f7565b60405180910390f35b34801561039e57600080fd5b506103a7611483565b6040516103b491906131fb565b60405180910390f35b6103c56114ab565b005b3480156103d357600080fd5b506103dc6116fe565b6040516103e991906131fb565b60405180910390f35b3480156103fe57600080fd5b50610407611726565b60405161041491906131fb565b60405180910390f35b34801561042957600080fd5b50610444600480360381019061043f9190612ed3565b61172f565b60405161045191906130f7565b60405180910390f35b34801561046657600080fd5b5061046f611777565b60405161047c919061313b565b60405180910390f35b34801561049157600080fd5b5061049a611805565b6040516104a791906131fb565b60405180910390f35b3480156104bc57600080fd5b506104c561180f565b6040516104d291906131fb565b60405180910390f35b60007f0000000000000000000000000000000000000000000000000000000000000000905090565b6000600560009054906101000a900460ff16905090565b6000600660008373ffffffffffffffffffffffffffffffffffffffff1673ffffffffffffffffffffffffffffffffffffffff168152602001908152602001600020549050919050565b7f000000000000000000000000000000000000000000000000000000000000000073ffffffffffffffffffffffffffffffffffffffff163373ffffffffffffffffffffffffffffffffffffffff161461061557337f00000000000000000000000000000000000000000000000000000000000000006040517f1cf993f400000000000000000000000000000000000000000000000000000000815260040161060c929190613112565b60405180910390fd5b61061f828261181c565b5050565b7f000000000000000000000000000000000000000000000000000000000000000034101561067d576040517f8f53b81300000000000000000000000000000000000000000000000000000000815260040160405180910390fd5b6000600281111561069157610690613835565b5b600560009054906101000a900460ff1660028111156106b3576106b2613835565b5b146106ea576040517f464dde1500000000000000000000000000000000000000000000000000000000815260040160405180910390fd5b600181141580156106fc575060028114155b8015610709575060038114155b15610740576040517f47efea5a00000000000000000000000000000000000000000000000000000000815260040160405180910390fd5b60018114156108ae5760007f000000000000000000000000000000000000000000000000000000000000000073ffffffffffffffffffffffffffffffffffffffff163460405161078f906130e2565b60006040518083038185875af1925050503d80600081146107cc576040519150601f19603f3d011682016040523d82523d6000602084013e6107d1565b606091505b5050905080610837577f00000000000000000000000000000000000000000000000000000000000000006040517faf120e0a00000000000000000000000000000000000000000000000000000000815260040161082e91906130f7565b60405180910390fd5b600660007f000000000000000000000000000000000000000000000000000000000000000073ffffffffffffffffffffffffffffffffffffffff1673ffffffffffffffffffffffffffffffffffffffff16815260200190815260200160002060008154809291906108a79061375d565b9190505550505b6002811415610a1c5760007f000000000000000000000000000000000000000000000000000000000000000073ffffffffffffffffffffffffffffffffffffffff16346040516108fd906130e2565b60006040518083038185875af1925050503d806000811461093a576040519150601f19603f3d011682016040523d82523d6000602084013e61093f565b606091505b50509050806109a5577f00000000000000000000000000000000000000000000000000000000000000006040517faf120e0a00000000000000000000000000000000000000000000000000000000815260040161099c91906130f7565b60405180910390fd5b600660007f000000000000000000000000000000000000000000000000000000000000000073ffffffffffffffffffffffffffffffffffffffff1673ffffffffffffffffffffffffffffffffffffffff1681526020019081526020016000206000815480929190610a159061375d565b9190505550505b6003811415610b8a5760007f000000000000000000000000000000000000000000000000000000000000000073ffffffffffffffffffffffffffffffffffffffff1634604051610a6b906130e2565b60006040518083038185875af1925050503d8060008114610aa8576040519150601f19603f3d011682016040523d82523d6000602084013e610aad565b606091505b5050905080610b13577f00000000000000000000000000000000000000000000000000000000000000006040517faf120e0a000000000000000000000000000000000000000000000000000000008152600401610b0a91906130f7565b60405180910390fd5b600660007f000000000000000000000000000000000000000000000000000000000000000073ffffffffffffffffffffffffffffffffffffffff1673ffffffffffffffffffffffffffffffffffffffff1681526020019081526020016000206000815480929190610b839061375d565b9190505550505b6004339080600181540180825580915050600190039060005260206000200160009091909190916101000a81548173ffffffffffffffffffffffffffffffffffffffff021916908373ffffffffffffffffffffffffffffffffffffffff1602179055503373ffffffffffffffffffffffffffffffffffffffff167f0805e1d667bddb8a95f0f09880cf94f403fb596ce79928d9f29b74203ba284d460405160405180910390a250565b6000610c4d60405180602001604052806000815250611045565b50905080610cbc5747600480549050600560009054906101000a900460ff166002811115610c7e57610c7d613835565b5b6040517f1be0ea7f000000000000000000000000000000000000000000000000000000008152600401610cb393929190613216565b60405180910390fd5b6001600560006101000a81548160ff02191690836002811115610ce257610ce1613835565b5b021790555060007f000000000000000000000000000000000000000000000000000000000000000073ffffffffffffffffffffffffffffffffffffffff16635d3b1d307f00000000000000000000000000000000000000000000000000000000000000007f000000000000000000000000000000000000000000000000000000000000000060037f000000000000000000000000000000000000000000000000000000000000000060046040518663ffffffff1660e01b8152600401610dac95949392919061318d565b602060405180830381600087803b158015610dc657600080fd5b505af1158015610dda573d6000803e3d6000fd5b505050506040513d601f19601f82011682018060405250810190610dfe9190612f00565b9050807fcd6e45c8998311cab7e9d4385596cac867e20a0587194b954fa3a731c93ce78b60405160405180910390a250505050565b6000600260009054906101000a900473ffffffffffffffffffffffffffffffffffffffff16905090565b60606000600367ffffffffffffffff811115610e7c57610e7b613893565b5b604051908082528060200260200182016040528015610eaa5781602001602082028036833780820191505090505b5090507f000000000000000000000000000000000000000000000000000000000000000081600081518110610ee257610ee1613864565b5b602002602001019073ffffffffffffffffffffffffffffffffffffffff16908173ffffffffffffffffffffffffffffffffffffffff16815250507f000000000000000000000000000000000000000000000000000000000000000081600181518110610f5157610f50613864565b5b602002602001019073ffffffffffffffffffffffffffffffffffffffff16908173ffffffffffffffffffffffffffffffffffffffff16815250507f000000000000000000000000000000000000000000000000000000000000000081600281518110610fc057610fbf613864565b5b602002602001019073ffffffffffffffffffffffffffffffffffffffff16908173ffffffffffffffffffffffffffffffffffffffff16815250508091505090565b6000600463ffffffff16905090565b6000600361ffff16905090565b60007f0000000000000000000000000000000000000000000000000000000000000000905090565b600060606000600560009054906101000a900460ff16600281111561106d5761106c613835565b5b6000600281111561108157611080613835565b5b14905060007f0000000000000000000000000000000000000000000000000000000000000000600054426110b59190613571565b10159050600080600480549050119050600080471190508380156110d65750825b80156110df5750805b80156110e85750815b955050505050915091565b7f000000000000000000000000000000000000000000000000000000000000000073ffffffffffffffffffffffffffffffffffffffff163373ffffffffffffffffffffffffffffffffffffffff1614611178576040517f5353493a00000000000000000000000000000000000000000000000000000000815260040160405180910390fd5b600073ffffffffffffffffffffffffffffffffffffffff16600360009054906101000a900473ffffffffffffffffffffffffffffffffffffffff1673ffffffffffffffffffffffffffffffffffffffff161415611201576040517f9f9214bd00000000000000000000000000000000000000000000000000000000815260040160405180910390fd5b60028081111561121457611213613835565b5b600560009054906101000a900460ff16600281111561123657611235613835565b5b1461126d576040517fb106f93000000000000000000000000000000000000000000000000000000000815260040160405180910390fd5b600360149054906101000a900460ff166112b3576040517ff4190db300000000000000000000000000000000000000000000000000000000815260040160405180910390fd5b600047116112ec576040517e8ca0ca00000000000000000000000000000000000000000000000000000000815260040160405180910390fd5b6000600360009054906101000a900473ffffffffffffffffffffffffffffffffffffffff1690506000600360006101000a81548173ffffffffffffffffffffffffffffffffffffffff021916908373ffffffffffffffffffffffffffffffffffffffff1602179055506000600260006101000a81548173ffffffffffffffffffffffffffffffffffffffff021916908373ffffffffffffffffffffffffffffffffffffffff1602179055506000600360146101000a81548160ff02191690831515021790555060008173ffffffffffffffffffffffffffffffffffffffff16476040516113d8906130e2565b60006040518083038185875af1925050503d8060008114611415576040519150601f19603f3d011682016040523d82523d6000602084013e61141a565b606091505b5050905080611455576040517fbfabdd9900000000000000000000000000000000000000000000000000000000815260040160405180910390fd5b5050565b6000600360009054906101000a900473ffffffffffffffffffffffffffffffffffffffff16905090565b60007f0000000000000000000000000000000000000000000000000000000000000000905090565b7f000000000000000000000000000000000000000000000000000000000000000073ffffffffffffffffffffffffffffffffffffffff163373ffffffffffffffffffffffffffffffffffffffff1614611530576040517f5353493a00000000000000000000000000000000000000000000000000000000815260040160405180910390fd5b600073ffffffffffffffffffffffffffffffffffffffff16600360009054906101000a900473ffffffffffffffffffffffffffffffffffffffff1673ffffffffffffffffffffffffffffffffffffffff1614156115b9576040517f9f9214bd00000000000000000000000000000000000000000000000000000000815260040160405180910390fd5b6002808111156115cc576115cb613835565b5b600560009054906101000a900460ff1660028111156115ee576115ed613835565b5b14611625576040517fb106f93000000000000000000000000000000000000000000000000000000000815260040160405180910390fd5b600360149054906101000a900460ff161561166c576040517f908d486e00000000000000000000000000000000000000000000000000000000815260040160405180910390fd5b6000600154905060006001819055507f0000000000000000000000000000000000000000000000000000000000000000816116a79190613483565b3410156116e0576040517fe696788b00000000000000000000000000000000000000000000000000000000815260040160405180910390fd5b6001600360146101000a81548160ff02191690831515021790555050565b60007f0000000000000000000000000000000000000000000000000000000000000000905090565b60008054905090565b60006004828154811061174557611744613864565b5b9060005260206000200160009054906101000a900473ffffffffffffffffffffffffffffffffffffffff169050919050565b606060048054806020026020016040519081016040528092919081815260200182805480156117fb57602002820191906000526020600020905b8160009054906101000a900473ffffffffffffffffffffffffffffffffffffffff1673ffffffffffffffffffffffffffffffffffffffff16815260200190600101908083116117b1575b5050505050905090565b6000600154905090565b6000600480549050905090565b60006004805490508260008151811061183857611837613864565b5b602002602001015161184a91906137a6565b905060006004828154811061186257611861613864565b5b9060005260206000200160009054906101000a900473ffffffffffffffffffffffffffffffffffffffff16905080600260006101000a81548173ffffffffffffffffffffffffffffffffffffffff021916908373ffffffffffffffffffffffffffffffffffffffff160217905550600067ffffffffffffffff8111156118eb576118ea613893565b5b6040519080825280602002602001820160405280156119195781602001602082028036833780820191505090505b506004908051906020019061192f929190612bc6565b506002600560006101000a81548160ff0219169083600281111561195657611955613835565b5b02179055506000611965611ef6565b90506000600660007f000000000000000000000000000000000000000000000000000000000000000073ffffffffffffffffffffffffffffffffffffffff1673ffffffffffffffffffffffffffffffffffffffff1681526020019081526020016000205490506000600660007f000000000000000000000000000000000000000000000000000000000000000073ffffffffffffffffffffffffffffffffffffffff1673ffffffffffffffffffffffffffffffffffffffff168152602001908152602001600020819055506000600660007f000000000000000000000000000000000000000000000000000000000000000073ffffffffffffffffffffffffffffffffffffffff1673ffffffffffffffffffffffffffffffffffffffff1681526020019081526020016000205490506000600660007f000000000000000000000000000000000000000000000000000000000000000073ffffffffffffffffffffffffffffffffffffffff1673ffffffffffffffffffffffffffffffffffffffff168152602001908152602001600020819055506000600660007f000000000000000000000000000000000000000000000000000000000000000073ffffffffffffffffffffffffffffffffffffffff1673ffffffffffffffffffffffffffffffffffffffff1681526020019081526020016000205490506000600660007f000000000000000000000000000000000000000000000000000000000000000073ffffffffffffffffffffffffffffffffffffffff1673ffffffffffffffffffffffffffffffffffffffff168152602001908152602001600020819055508315611bd557611bd48784848461215b565b5b8183118015611be357508083115b15611c5157826001819055507f0000000000000000000000000000000000000000000000000000000000000000600360006101000a81548173ffffffffffffffffffffffffffffffffffffffff021916908373ffffffffffffffffffffffffffffffffffffffff1602179055505b8282118015611c5f57508082115b15611ccd57816001819055507f0000000000000000000000000000000000000000000000000000000000000000600360006101000a81548173ffffffffffffffffffffffffffffffffffffffff021916908373ffffffffffffffffffffffffffffffffffffffff1602179055505b8281118015611cdb57508181115b15611d4957806001819055507f0000000000000000000000000000000000000000000000000000000000000000600360006101000a81548173ffffffffffffffffffffffffffffffffffffffff021916908373ffffffffffffffffffffffffffffffffffffffff1602179055505b60008573ffffffffffffffffffffffffffffffffffffffff1647604051611d6f906130e2565b60006040518083038185875af1925050503d8060008114611dac576040519150601f19603f3d011682016040523d82523d6000602084013e611db1565b606091505b5050905080611dec576040517f829a2ec900000000000000000000000000000000000000000000000000000000815260040160405180910390fd5b8573ffffffffffffffffffffffffffffffffffffffff167f5b690ec4a06fe979403046eaeea5b3ce38524683c3001f662c8b5a829632f7df60405160405180910390a2600073ffffffffffffffffffffffffffffffffffffffff16600360009054906101000a900473ffffffffffffffffffffffffffffffffffffffff1673ffffffffffffffffffffffffffffffffffffffff1614611eeb57600360009054906101000a900473ffffffffffffffffffffffffffffffffffffffff1673ffffffffffffffffffffffffffffffffffffffff167f3c87360dce5c6f26147daf6a9e168e80a4c7199e9aa7cbd7a874094804c361b460405160405180910390a25b505050505050505050565b6000600660007f000000000000000000000000000000000000000000000000000000000000000073ffffffffffffffffffffffffffffffffffffffff1673ffffffffffffffffffffffffffffffffffffffff16815260200190815260200160002054600660007f000000000000000000000000000000000000000000000000000000000000000073ffffffffffffffffffffffffffffffffffffffff1673ffffffffffffffffffffffffffffffffffffffff1681526020019081526020016000205414806120815750600660007f000000000000000000000000000000000000000000000000000000000000000073ffffffffffffffffffffffffffffffffffffffff1673ffffffffffffffffffffffffffffffffffffffff16815260200190815260200160002054600660007f000000000000000000000000000000000000000000000000000000000000000073ffffffffffffffffffffffffffffffffffffffff1673ffffffffffffffffffffffffffffffffffffffff16815260200190815260200160002054145b806121495750600660007f000000000000000000000000000000000000000000000000000000000000000073ffffffffffffffffffffffffffffffffffffffff1673ffffffffffffffffffffffffffffffffffffffff16815260200190815260200160002054600660007f000000000000000000000000000000000000000000000000000000000000000073ffffffffffffffffffffffffffffffffffffffff1673ffffffffffffffffffffffffffffffffffffffff16815260200190815260200160002054145b156121575760019050612158565b5b90565b6000600367ffffffffffffffff81111561217857612177613893565b5b6040519080825280602002602001820160405280156121a65781602001602082028036833780820191505090505b50905083816000815181106121be576121bd613864565b5b60200260200101818152505082816001815181106121df576121de613864565b5b6020026020010181815250508181600281518110612200576121ff613864565b5b602002602001018181525050600061221782612a07565b90508060028151811061222d5761222c613864565b5b6020026020010151600181905550838514801561224957508285145b156124ff578560018151811061226257612261613864565b5b60200260200101518561227591906133c3565b94508560028151811061228b5761228a613864565b5b60200260200101518461229e91906133c3565b9350856003815181106122b4576122b3613864565b5b6020026020010151836122c791906133c3565b92506000600367ffffffffffffffff8111156122e6576122e5613893565b5b6040519080825280602002602001820160405280156123145781602001602082028036833780820191505090505b509050858160008151811061232c5761232b613864565b5b602002602001018181525050848160018151811061234d5761234c613864565b5b602002602001018181525050838160028151811061236e5761236d613864565b5b602002602001018181525050600061238582612a07565b9050868160028151811061239c5761239b613864565b5b60200260200101511415612410577f0000000000000000000000000000000000000000000000000000000000000000600360006101000a81548173ffffffffffffffffffffffffffffffffffffffff021916908373ffffffffffffffffffffffffffffffffffffffff1602179055506124fc565b858160028151811061242557612424613864565b5b60200260200101511415612499577f0000000000000000000000000000000000000000000000000000000000000000600360006101000a81548173ffffffffffffffffffffffffffffffffffffffff021916908373ffffffffffffffffffffffffffffffffffffffff1602179055506124fb565b7f0000000000000000000000000000000000000000000000000000000000000000600360006101000a81548173ffffffffffffffffffffffffffffffffffffffff021916908373ffffffffffffffffffffffffffffffffffffffff1602179055505b5b50505b848160028151811061251457612513613864565b5b60200260200101511480156125435750838160028151811061253957612538613864565b5b6020026020010151145b1561266b578560018151811061255c5761255b613864565b5b60200260200101518561256f91906133c3565b94508560028151811061258557612584613864565b5b60200260200101518461259891906133c3565b935083851115612608577f0000000000000000000000000000000000000000000000000000000000000000600360006101000a81548173ffffffffffffffffffffffffffffffffffffffff021916908373ffffffffffffffffffffffffffffffffffffffff16021790555061266a565b7f0000000000000000000000000000000000000000000000000000000000000000600360006101000a81548173ffffffffffffffffffffffffffffffffffffffff021916908373ffffffffffffffffffffffffffffffffffffffff1602179055505b5b84816002815181106126805761267f613864565b5b60200260200101511480156126af575082816002815181106126a5576126a4613864565b5b6020026020010151145b156127d757856001815181106126c8576126c7613864565b5b6020026020010151856126db91906133c3565b9450856002815181106126f1576126f0613864565b5b60200260200101518361270491906133c3565b925082851115612774577f0000000000000000000000000000000000000000000000000000000000000000600360006101000a81548173ffffffffffffffffffffffffffffffffffffffff021916908373ffffffffffffffffffffffffffffffffffffffff1602179055506127d6565b7f0000000000000000000000000000000000000000000000000000000000000000600360006101000a81548173ffffffffffffffffffffffffffffffffffffffff021916908373ffffffffffffffffffffffffffffffffffffffff1602179055505b5b83816002815181106127ec576127eb613864565b5b602002602001015114801561281b5750828160028151811061281157612810613864565b5b6020026020010151145b15612943578560018151811061283457612833613864565b5b60200260200101518461284791906133c3565b93508560028151811061285d5761285c613864565b5b60200260200101518361287091906133c3565b9250828411156128e0577f0000000000000000000000000000000000000000000000000000000000000000600360006101000a81548173ffffffffffffffffffffffffffffffffffffffff021916908373ffffffffffffffffffffffffffffffffffffffff160217905550612942565b7f0000000000000000000000000000000000000000000000000000000000000000600360006101000a81548173ffffffffffffffffffffffffffffffffffffffff021916908373ffffffffffffffffffffffffffffffffffffffff1602179055505b5b600073ffffffffffffffffffffffffffffffffffffffff16600360009054906101000a900473ffffffffffffffffffffffffffffffffffffffff1673ffffffffffffffffffffffffffffffffffffffff16146129ff57600360009054906101000a900473ffffffffffffffffffffffffffffffffffffffff1673ffffffffffffffffffffffffffffffffffffffff167f3c87360dce5c6f26147daf6a9e168e80a4c7199e9aa7cbd7a874094804c361b460405160405180910390a25b505050505050565b6060612a2282600060018551612a1d9190613571565b612a2a565b819050919050565b6000829050600082905080821415612a43575050612bc1565b60008560028686612a5491906134dd565b612a5e9190613419565b86612a69919061332f565b81518110612a7a57612a79613864565b5b602002602001015190505b818313612b95575b80868481518110612aa157612aa0613864565b5b60200260200101511015612ac2578280612aba90613714565b935050612a8d565b5b858281518110612ad657612ad5613864565b5b6020026020010151811015612af8578180612af09061369a565b925050612ac3565b818313612b9057858281518110612b1257612b11613864565b5b6020026020010151868481518110612b2d57612b2c613864565b5b6020026020010151878581518110612b4857612b47613864565b5b60200260200101888581518110612b6257612b61613864565b5b60200260200101828152508281525050508280612b7e90613714565b9350508180612b8c9061369a565b9250505b612a85565b81851215612ba957612ba8868684612a2a565b5b83831215612bbd57612bbc868486612a2a565b5b5050505b505050565b828054828255906000526020600020908101928215612c3f579160200282015b82811115612c3e5782518260006101000a81548173ffffffffffffffffffffffffffffffffffffffff021916908373ffffffffffffffffffffffffffffffffffffffff16021790555091602001919060010190612be6565b5b509050612c4c9190612c50565b5090565b5b80821115612c69576000816000905550600101612c51565b5090565b6000612c80612c7b84613272565b61324d565b90508083825260208201905082856020860282011115612ca357612ca26138cc565b5b60005b85811015612cd35781612cb98882612de6565b845260208401935060208301925050600181019050612ca6565b5050509392505050565b6000612cf0612ceb8461329e565b61324d565b905082815260208101848484011115612d0c57612d0b6138d1565b5b612d17848285613658565b509392505050565b600081359050612d2e81613908565b92915050565b600082601f830112612d4957612d486138c7565b5b8135612d59848260208601612c6d565b91505092915050565b60008083601f840112612d7857612d776138c7565b5b8235905067ffffffffffffffff811115612d9557612d946138c2565b5b602083019150836001820283011115612db157612db06138cc565b5b9250929050565b600082601f830112612dcd57612dcc6138c7565b5b8135612ddd848260208601612cdd565b91505092915050565b600081359050612df58161391f565b92915050565b600081519050612e0a8161391f565b92915050565b600060208284031215612e2657612e256138db565b5b6000612e3484828501612d1f565b91505092915050565b60008060208385031215612e5457612e536138db565b5b600083013567ffffffffffffffff811115612e7257612e716138d6565b5b612e7e85828601612d62565b92509250509250929050565b600060208284031215612ea057612e9f6138db565b5b600082013567ffffffffffffffff811115612ebe57612ebd6138d6565b5b612eca84828501612db8565b91505092915050565b600060208284031215612ee957612ee86138db565b5b6000612ef784828501612de6565b91505092915050565b600060208284031215612f1657612f156138db565b5b6000612f2484828501612dfb565b91505092915050565b60008060408385031215612f4457612f436138db565b5b6000612f5285828601612de6565b925050602083013567ffffffffffffffff811115612f7357612f726138d6565b5b612f7f85828601612d34565b9150509250929050565b6000612f958383612fa1565b60208301905092915050565b612faa816135a5565b82525050565b612fb9816135a5565b82525050565b6000612fca826132df565b612fd48185613302565b9350612fdf836132cf565b8060005b83811015613010578151612ff78882612f89565b9750613002836132f5565b925050600181019050612fe3565b5085935050505092915050565b613026816135b7565b82525050565b613035816135c3565b82525050565b6000613046826132ea565b6130508185613313565b9350613060818560208601613667565b613069816138e0565b840191505092915050565b61307d81613646565b82525050565b6000613090600083613324565b915061309b826138f1565b600082019050919050565b6130af816135ea565b82525050565b6130be81613618565b82525050565b6130cd81613622565b82525050565b6130dc81613632565b82525050565b60006130ed82613083565b9150819050919050565b600060208201905061310c6000830184612fb0565b92915050565b60006040820190506131276000830185612fb0565b6131346020830184612fb0565b9392505050565b600060208201905081810360008301526131558184612fbf565b905092915050565b6000604082019050613172600083018561301d565b8181036020830152613184818461303b565b90509392505050565b600060a0820190506131a2600083018861302c565b6131af60208301876130d3565b6131bc60408301866130a6565b6131c960608301856130c4565b6131d660808301846130c4565b9695505050505050565b60006020820190506131f56000830184613074565b92915050565b600060208201905061321060008301846130b5565b92915050565b600060608201905061322b60008301866130b5565b61323860208301856130b5565b61324560408301846130b5565b949350505050565b6000613257613268565b905061326382826136e3565b919050565b6000604051905090565b600067ffffffffffffffff82111561328d5761328c613893565b5b602082029050602081019050919050565b600067ffffffffffffffff8211156132b9576132b8613893565b5b6132c2826138e0565b9050602081019050919050565b6000819050602082019050919050565b600081519050919050565b600081519050919050565b6000602082019050919050565b600082825260208201905092915050565b600082825260208201905092915050565b600081905092915050565b600061333a826135e0565b9150613345836135e0565b9250817f7fffffffffffffffffffffffffffffffffffffffffffffffffffffffffffffff038313600083121516156133805761337f6137d7565b5b817f80000000000000000000000000000000000000000000000000000000000000000383126000831216156133b8576133b76137d7565b5b828201905092915050565b60006133ce82613618565b91506133d983613618565b9250827fffffffffffffffffffffffffffffffffffffffffffffffffffffffffffffffff0382111561340e5761340d6137d7565b5b828201905092915050565b6000613424826135e0565b915061342f836135e0565b92508261343f5761343e613806565b5b600160000383147f800000000000000000000000000000000000000000000000000000000000000083141615613478576134776137d7565b5b828205905092915050565b600061348e82613618565b915061349983613618565b9250817fffffffffffffffffffffffffffffffffffffffffffffffffffffffffffffffff04831182151516156134d2576134d16137d7565b5b828202905092915050565b60006134e8826135e0565b91506134f3836135e0565b9250827f80000000000000000000000000000000000000000000000000000000000000000182126000841215161561352e5761352d6137d7565b5b827f7fffffffffffffffffffffffffffffffffffffffffffffffffffffffffffffff018213600084121615613566576135656137d7565b5b828203905092915050565b600061357c82613618565b915061358783613618565b92508282101561359a576135996137d7565b5b828203905092915050565b60006135b0826135f8565b9050919050565b60008115159050919050565b6000819050919050565b60008190506135db826138f4565b919050565b6000819050919050565b600061ffff82169050919050565b600073ffffffffffffffffffffffffffffffffffffffff82169050919050565b6000819050919050565b600063ffffffff82169050919050565b600067ffffffffffffffff82169050919050565b6000613651826135cd565b9050919050565b82818337600083830152505050565b60005b8381101561368557808201518184015260208101905061366a565b83811115613694576000848401525b50505050565b60006136a5826135e0565b91507f80000000000000000000000000000000000000000000000000000000000000008214156136d8576136d76137d7565b5b600182039050919050565b6136ec826138e0565b810181811067ffffffffffffffff8211171561370b5761370a613893565b5b80604052505050565b600061371f826135e0565b91507f7fffffffffffffffffffffffffffffffffffffffffffffffffffffffffffffff821415613752576137516137d7565b5b600182019050919050565b600061376882613618565b91507fffffffffffffffffffffffffffffffffffffffffffffffffffffffffffffffff82141561379b5761379a6137d7565b5b600182019050919050565b60006137b182613618565b91506137bc83613618565b9250826137cc576137cb613806565b5b828206905092915050565b7f4e487b7100000000000000000000000000000000000000000000000000000000600052601160045260246000fd5b7f4e487b7100000000000000000000000000000000000000000000000000000000600052601260045260246000fd5b7f4e487b7100000000000000000000000000000000000000000000000000000000600052602160045260246000fd5b7f4e487b7100000000000000000000000000000000000000000000000000000000600052603260045260246000fd5b7f4e487b7100000000000000000000000000000000000000000000000000000000600052604160045260246000fd5b600080fd5b600080fd5b600080fd5b600080fd5b600080fd5b600080fd5b6000601f19601f8301169050919050565b50565b6003811061390557613904613835565b5b50565b613911816135a5565b811461391c57600080fd5b50565b61392881613618565b811461393357600080fd5b5056fea26469706673582212202fd454ca1e1c367ada92406cea84902e27de7ee9a2962c40a1a9895e6ed9db3d64736f6c63430008070033",
			"opcodes": "PUSH2 0x200 PUSH1 0x40 MSTORE PUSH1 0x40 MLOAD PUSH3 0x40D8 CODESIZE SUB DUP1 PUSH3 0x40D8 DUP4 CODECOPY DUP2 DUP2 ADD PUSH1 0x40 MSTORE DUP2 ADD SWAP1 PUSH3 0x2A SWAP2 SWAP1 PUSH3 0x336 JUMP JUMPDEST DUP11 DUP1 PUSH20 0xFFFFFFFFFFFFFFFFFFFFFFFFFFFFFFFFFFFFFFFF AND PUSH1 0x80 DUP2 PUSH20 0xFFFFFFFFFFFFFFFFFFFFFFFFFFFFFFFFFFFFFFFF AND PUSH1 0x60 SHL DUP2 MSTORE POP POP POP DUP11 PUSH20 0xFFFFFFFFFFFFFFFFFFFFFFFFFFFFFFFFFFFFFFFF AND PUSH1 0xA0 DUP2 PUSH20 0xFFFFFFFFFFFFFFFFFFFFFFFFFFFFFFFFFFFFFFFF AND PUSH1 0x60 SHL DUP2 MSTORE POP POP DUP6 PUSH2 0x120 DUP2 DUP2 MSTORE POP POP DUP9 PUSH2 0x100 DUP2 DUP2 MSTORE POP POP DUP10 PUSH8 0xFFFFFFFFFFFFFFFF AND PUSH1 0xE0 DUP2 PUSH8 0xFFFFFFFFFFFFFFFF AND PUSH1 0xC0 SHL DUP2 MSTORE POP POP DUP8 PUSH2 0x140 DUP2 DUP2 MSTORE POP POP DUP7 PUSH2 0x160 DUP2 DUP2 MSTORE POP POP PUSH1 0x0 PUSH1 0x5 PUSH1 0x0 PUSH2 0x100 EXP DUP2 SLOAD DUP2 PUSH1 0xFF MUL NOT AND SWAP1 DUP4 PUSH1 0x2 DUP2 GT ISZERO PUSH3 0x106 JUMPI PUSH3 0x105 PUSH3 0x4F8 JUMP JUMPDEST JUMPDEST MUL OR SWAP1 SSTORE POP TIMESTAMP PUSH1 0x0 DUP2 SWAP1 SSTORE POP DUP5 PUSH4 0xFFFFFFFF AND PUSH1 0xC0 DUP2 PUSH4 0xFFFFFFFF AND PUSH1 0xE0 SHL DUP2 MSTORE POP POP DUP4 PUSH20 0xFFFFFFFFFFFFFFFFFFFFFFFFFFFFFFFFFFFFFFFF AND PUSH2 0x180 DUP2 PUSH20 0xFFFFFFFFFFFFFFFFFFFFFFFFFFFFFFFFFFFFFFFF AND PUSH1 0x60 SHL DUP2 MSTORE POP POP DUP3 PUSH20 0xFFFFFFFFFFFFFFFFFFFFFFFFFFFFFFFFFFFFFFFF AND PUSH2 0x1A0 DUP2 PUSH20 0xFFFFFFFFFFFFFFFFFFFFFFFFFFFFFFFFFFFFFFFF AND PUSH1 0x60 SHL DUP2 MSTORE POP POP DUP2 PUSH20 0xFFFFFFFFFFFFFFFFFFFFFFFFFFFFFFFFFFFFFFFF AND PUSH2 0x1C0 DUP2 PUSH20 0xFFFFFFFFFFFFFFFFFFFFFFFFFFFFFFFFFFFFFFFF AND PUSH1 0x60 SHL DUP2 MSTORE POP POP DUP1 PUSH20 0xFFFFFFFFFFFFFFFFFFFFFFFFFFFFFFFFFFFFFFFF AND PUSH2 0x1E0 DUP2 PUSH20 0xFFFFFFFFFFFFFFFFFFFFFFFFFFFFFFFFFFFFFFFF AND PUSH1 0x60 SHL DUP2 MSTORE POP POP PUSH1 0x0 ADDRESS PUSH20 0xFFFFFFFFFFFFFFFFFFFFFFFFFFFFFFFFFFFFFFFF AND DUP9 PUSH1 0x40 MLOAD PUSH3 0x231 SWAP1 PUSH3 0x46A JUMP JUMPDEST PUSH1 0x0 PUSH1 0x40 MLOAD DUP1 DUP4 SUB DUP2 DUP6 DUP8 GAS CALL SWAP3 POP POP POP RETURNDATASIZE DUP1 PUSH1 0x0 DUP2 EQ PUSH3 0x270 JUMPI PUSH1 0x40 MLOAD SWAP2 POP PUSH1 0x1F NOT PUSH1 0x3F RETURNDATASIZE ADD AND DUP3 ADD PUSH1 0x40 MSTORE RETURNDATASIZE DUP3 MSTORE RETURNDATASIZE PUSH1 0x0 PUSH1 0x20 DUP5 ADD RETURNDATACOPY PUSH3 0x275 JUMP JUMPDEST PUSH1 0x60 SWAP2 POP JUMPDEST POP POP SWAP1 POP DUP1 PUSH3 0x2B1 JUMPI PUSH1 0x40 MLOAD PUSH32 0xFEC76E0F00000000000000000000000000000000000000000000000000000000 DUP2 MSTORE PUSH1 0x4 ADD PUSH1 0x40 MLOAD DUP1 SWAP2 SUB SWAP1 REVERT JUMPDEST POP POP POP POP POP POP POP POP POP POP POP POP PUSH3 0x5B1 JUMP JUMPDEST PUSH1 0x0 DUP2 MLOAD SWAP1 POP PUSH3 0x2D4 DUP2 PUSH3 0x52F JUMP JUMPDEST SWAP3 SWAP2 POP POP JUMP JUMPDEST PUSH1 0x0 DUP2 MLOAD SWAP1 POP PUSH3 0x2EB DUP2 PUSH3 0x549 JUMP JUMPDEST SWAP3 SWAP2 POP POP JUMP JUMPDEST PUSH1 0x0 DUP2 MLOAD SWAP1 POP PUSH3 0x302 DUP2 PUSH3 0x563 JUMP JUMPDEST SWAP3 SWAP2 POP POP JUMP JUMPDEST PUSH1 0x0 DUP2 MLOAD SWAP1 POP PUSH3 0x319 DUP2 PUSH3 0x57D JUMP JUMPDEST SWAP3 SWAP2 POP POP JUMP JUMPDEST PUSH1 0x0 DUP2 MLOAD SWAP1 POP PUSH3 0x330 DUP2 PUSH3 0x597 JUMP JUMPDEST SWAP3 SWAP2 POP POP JUMP JUMPDEST PUSH1 0x0 DUP1 PUSH1 0x0 DUP1 PUSH1 0x0 DUP1 PUSH1 0x0 DUP1 PUSH1 0x0 DUP1 PUSH1 0x0 PUSH2 0x160 DUP13 DUP15 SUB SLT ISZERO PUSH3 0x35F JUMPI PUSH3 0x35E PUSH3 0x527 JUMP JUMPDEST JUMPDEST PUSH1 0x0 PUSH3 0x36F DUP15 DUP3 DUP16 ADD PUSH3 0x2C3 JUMP JUMPDEST SWAP12 POP POP PUSH1 0x20 PUSH3 0x382 DUP15 DUP3 DUP16 ADD PUSH3 0x31F JUMP JUMPDEST SWAP11 POP POP PUSH1 0x40 PUSH3 0x395 DUP15 DUP3 DUP16 ADD PUSH3 0x2DA JUMP JUMPDEST SWAP10 POP POP PUSH1 0x60 PUSH3 0x3A8 DUP15 DUP3 DUP16 ADD PUSH3 0x2F1 JUMP JUMPDEST SWAP9 POP POP PUSH1 0x80 PUSH3 0x3BB DUP15 DUP3 DUP16 ADD PUSH3 0x2F1 JUMP JUMPDEST SWAP8 POP POP PUSH1 0xA0 PUSH3 0x3CE DUP15 DUP3 DUP16 ADD PUSH3 0x2F1 JUMP JUMPDEST SWAP7 POP POP PUSH1 0xC0 PUSH3 0x3E1 DUP15 DUP3 DUP16 ADD PUSH3 0x308 JUMP JUMPDEST SWAP6 POP POP PUSH1 0xE0 PUSH3 0x3F4 DUP15 DUP3 DUP16 ADD PUSH3 0x2C3 JUMP JUMPDEST SWAP5 POP POP PUSH2 0x100 PUSH3 0x408 DUP15 DUP3 DUP16 ADD PUSH3 0x2C3 JUMP JUMPDEST SWAP4 POP POP PUSH2 0x120 PUSH3 0x41C DUP15 DUP3 DUP16 ADD PUSH3 0x2C3 JUMP JUMPDEST SWAP3 POP POP PUSH2 0x140 PUSH3 0x430 DUP15 DUP3 DUP16 ADD PUSH3 0x2C3 JUMP JUMPDEST SWAP2 POP POP SWAP3 SWAP6 SWAP9 SWAP12 POP SWAP3 SWAP6 SWAP9 SWAP12 SWAP1 SWAP4 SWAP7 SWAP10 POP JUMP JUMPDEST PUSH1 0x0 PUSH3 0x452 PUSH1 0x0 DUP4 PUSH3 0x481 JUMP JUMPDEST SWAP2 POP PUSH3 0x45F DUP3 PUSH3 0x52C JUMP JUMPDEST PUSH1 0x0 DUP3 ADD SWAP1 POP SWAP2 SWAP1 POP JUMP JUMPDEST PUSH1 0x0 PUSH3 0x477 DUP3 PUSH3 0x443 JUMP JUMPDEST SWAP2 POP DUP2 SWAP1 POP SWAP2 SWAP1 POP JUMP JUMPDEST PUSH1 0x0 DUP2 SWAP1 POP SWAP3 SWAP2 POP POP JUMP JUMPDEST PUSH1 0x0 PUSH3 0x499 DUP3 PUSH3 0x4AA JUMP JUMPDEST SWAP1 POP SWAP2 SWAP1 POP JUMP JUMPDEST PUSH1 0x0 DUP2 SWAP1 POP SWAP2 SWAP1 POP JUMP JUMPDEST PUSH1 0x0 PUSH20 0xFFFFFFFFFFFFFFFFFFFFFFFFFFFFFFFFFFFFFFFF DUP3 AND SWAP1 POP SWAP2 SWAP1 POP JUMP JUMPDEST PUSH1 0x0 DUP2 SWAP1 POP SWAP2 SWAP1 POP JUMP JUMPDEST PUSH1 0x0 PUSH4 0xFFFFFFFF DUP3 AND SWAP1 POP SWAP2 SWAP1 POP JUMP JUMPDEST PUSH1 0x0 PUSH8 0xFFFFFFFFFFFFFFFF DUP3 AND SWAP1 POP SWAP2 SWAP1 POP JUMP JUMPDEST PUSH32 0x4E487B7100000000000000000000000000000000000000000000000000000000 PUSH1 0x0 MSTORE PUSH1 0x21 PUSH1 0x4 MSTORE PUSH1 0x24 PUSH1 0x0 REVERT JUMPDEST PUSH1 0x0 DUP1 REVERT JUMPDEST POP JUMP JUMPDEST PUSH3 0x53A DUP2 PUSH3 0x48C JUMP JUMPDEST DUP2 EQ PUSH3 0x546 JUMPI PUSH1 0x0 DUP1 REVERT JUMPDEST POP JUMP JUMPDEST PUSH3 0x554 DUP2 PUSH3 0x4A0 JUMP JUMPDEST DUP2 EQ PUSH3 0x560 JUMPI PUSH1 0x0 DUP1 REVERT JUMPDEST POP JUMP JUMPDEST PUSH3 0x56E DUP2 PUSH3 0x4CA JUMP JUMPDEST DUP2 EQ PUSH3 0x57A JUMPI PUSH1 0x0 DUP1 REVERT JUMPDEST POP JUMP JUMPDEST PUSH3 0x588 DUP2 PUSH3 0x4D4 JUMP JUMPDEST DUP2 EQ PUSH3 0x594 JUMPI PUSH1 0x0 DUP1 REVERT JUMPDEST POP JUMP JUMPDEST PUSH3 0x5A2 DUP2 PUSH3 0x4E4 JUMP JUMPDEST DUP2 EQ PUSH3 0x5AE JUMPI PUSH1 0x0 DUP1 REVERT JUMPDEST POP JUMP JUMPDEST PUSH1 0x80 MLOAD PUSH1 0x60 SHR PUSH1 0xA0 MLOAD PUSH1 0x60 SHR PUSH1 0xC0 MLOAD PUSH1 0xE0 SHR PUSH1 0xE0 MLOAD PUSH1 0xC0 SHR PUSH2 0x100 MLOAD PUSH2 0x120 MLOAD PUSH2 0x140 MLOAD PUSH2 0x160 MLOAD PUSH2 0x180 MLOAD PUSH1 0x60 SHR PUSH2 0x1A0 MLOAD PUSH1 0x60 SHR PUSH2 0x1C0 MLOAD PUSH1 0x60 SHR PUSH2 0x1E0 MLOAD PUSH1 0x60 SHR PUSH2 0x396C PUSH3 0x76C PUSH1 0x0 CODECOPY PUSH1 0x0 DUP2 DUP2 PUSH2 0x1021 ADD MSTORE DUP2 DUP2 PUSH2 0x10F5 ADD MSTORE PUSH2 0x14AD ADD MSTORE PUSH1 0x0 DUP2 DUP2 PUSH2 0xA29 ADD MSTORE DUP2 DUP2 PUSH2 0xAB8 ADD MSTORE DUP2 DUP2 PUSH2 0xB19 ADD MSTORE DUP2 DUP2 PUSH2 0xF8D ADD MSTORE DUP2 DUP2 PUSH2 0x1B01 ADD MSTORE DUP2 DUP2 PUSH2 0x1B65 ADD MSTORE DUP2 DUP2 PUSH2 0x1CE9 ADD MSTORE DUP2 DUP2 PUSH2 0x1FC5 ADD MSTORE DUP2 DUP2 PUSH2 0x208D ADD MSTORE DUP2 DUP2 PUSH2 0x249B ADD MSTORE DUP2 DUP2 PUSH2 0x2776 ADD MSTORE PUSH2 0x28E2 ADD MSTORE PUSH1 0x0 DUP2 DUP2 PUSH2 0x8BB ADD MSTORE DUP2 DUP2 PUSH2 0x94A ADD MSTORE DUP2 DUP2 PUSH2 0x9AB ADD MSTORE DUP2 DUP2 PUSH2 0xF1E ADD MSTORE DUP2 DUP2 PUSH2 0x1A38 ADD MSTORE DUP2 DUP2 PUSH2 0x1A9C ADD MSTORE DUP2 DUP2 PUSH2 0x1C6D ADD MSTORE DUP2 DUP2 PUSH2 0x1EFE ADD MSTORE DUP2 DUP2 PUSH2 0x20ED ADD MSTORE DUP2 DUP2 PUSH2 0x2435 ADD MSTORE DUP2 DUP2 PUSH2 0x260A ADD MSTORE PUSH2 0x287C ADD MSTORE PUSH1 0x0 DUP2 DUP2 PUSH2 0x74D ADD MSTORE DUP2 DUP2 PUSH2 0x7DC ADD MSTORE DUP2 DUP2 PUSH2 0x83D ADD MSTORE DUP2 DUP2 PUSH2 0xEAF ADD MSTORE DUP2 DUP2 PUSH2 0x196F ADD MSTORE DUP2 DUP2 PUSH2 0x19D3 ADD MSTORE DUP2 DUP2 PUSH2 0x1BF1 ADD MSTORE DUP2 DUP2 PUSH2 0x1F5E ADD MSTORE DUP2 DUP2 PUSH2 0x2025 ADD MSTORE DUP2 DUP2 PUSH2 0x23AC ADD MSTORE DUP2 DUP2 PUSH2 0x25A4 ADD MSTORE PUSH2 0x2710 ADD MSTORE PUSH1 0x0 PUSH2 0x1487 ADD MSTORE PUSH1 0x0 DUP2 DUP2 PUSH2 0x4DF ADD MSTORE DUP2 DUP2 PUSH2 0x625 ADD MSTORE PUSH2 0x167D ADD MSTORE PUSH1 0x0 DUP2 DUP2 PUSH2 0x1088 ADD MSTORE PUSH2 0x1702 ADD MSTORE PUSH1 0x0 PUSH2 0xD27 ADD MSTORE PUSH1 0x0 PUSH2 0xD48 ADD MSTORE PUSH1 0x0 PUSH2 0xD6B ADD MSTORE PUSH1 0x0 PUSH2 0xCEB ADD MSTORE PUSH1 0x0 DUP2 DUP2 PUSH2 0x565 ADD MSTORE PUSH2 0x5B9 ADD MSTORE PUSH2 0x396C PUSH1 0x0 RETURN INVALID PUSH1 0x80 PUSH1 0x40 MSTORE PUSH1 0x4 CALLDATASIZE LT PUSH2 0x135 JUMPI PUSH1 0x0 CALLDATALOAD PUSH1 0xE0 SHR DUP1 PUSH4 0x6E04FF0D GT PUSH2 0xAB JUMPI DUP1 PUSH4 0xAD2E8C9B GT PUSH2 0x6F JUMPI DUP1 PUSH4 0xAD2E8C9B EQ PUSH2 0x3C7 JUMPI DUP1 PUSH4 0xC828371E EQ PUSH2 0x3F2 JUMPI DUP1 PUSH4 0xE55AE4E8 EQ PUSH2 0x41D JUMPI DUP1 PUSH4 0xEFA1C482 EQ PUSH2 0x45A JUMPI DUP1 PUSH4 0xF975CB39 EQ PUSH2 0x485 JUMPI DUP1 PUSH4 0xFD6673F5 EQ PUSH2 0x4B0 JUMPI PUSH2 0x135 JUMP JUMPDEST DUP1 PUSH4 0x6E04FF0D EQ PUSH2 0x312 JUMPI DUP1 PUSH4 0x7C6D085F EQ PUSH2 0x350 JUMPI DUP1 PUSH4 0x855C289C EQ PUSH2 0x367 JUMPI DUP1 PUSH4 0x9329066C EQ PUSH2 0x392 JUMPI DUP1 PUSH4 0xA3D7DD31 EQ PUSH2 0x3BD JUMPI PUSH2 0x135 JUMP JUMPDEST DUP1 PUSH4 0x4585E33B GT PUSH2 0xFD JUMPI DUP1 PUSH4 0x4585E33B EQ PUSH2 0x212 JUMPI DUP1 PUSH4 0x473F1DDC EQ PUSH2 0x23B JUMPI DUP1 PUSH4 0x48112C6F EQ PUSH2 0x266 JUMPI DUP1 PUSH4 0x53A2C19A EQ PUSH2 0x291 JUMPI DUP1 PUSH4 0x5F1B0FD8 EQ PUSH2 0x2BC JUMPI DUP1 PUSH4 0x6846AF76 EQ PUSH2 0x2E7 JUMPI PUSH2 0x135 JUMP JUMPDEST DUP1 PUSH4 0x9BC33A7 EQ PUSH2 0x13A JUMPI DUP1 PUSH4 0x115CBAF5 EQ PUSH2 0x165 JUMPI DUP1 PUSH4 0x1910BDC2 EQ PUSH2 0x190 JUMPI DUP1 PUSH4 0x1FE543E3 EQ PUSH2 0x1CD JUMPI DUP1 PUSH4 0x2E519F90 EQ PUSH2 0x1F6 JUMPI JUMPDEST PUSH1 0x0 DUP1 REVERT JUMPDEST CALLVALUE DUP1 ISZERO PUSH2 0x146 JUMPI PUSH1 0x0 DUP1 REVERT JUMPDEST POP PUSH2 0x14F PUSH2 0x4DB JUMP JUMPDEST PUSH1 0x40 MLOAD PUSH2 0x15C SWAP2 SWAP1 PUSH2 0x31FB JUMP JUMPDEST PUSH1 0x40 MLOAD DUP1 SWAP2 SUB SWAP1 RETURN JUMPDEST CALLVALUE DUP1 ISZERO PUSH2 0x171 JUMPI PUSH1 0x0 DUP1 REVERT JUMPDEST POP PUSH2 0x17A PUSH2 0x503 JUMP JUMPDEST PUSH1 0x40 MLOAD PUSH2 0x187 SWAP2 SWAP1 PUSH2 0x31E0 JUMP JUMPDEST PUSH1 0x40 MLOAD DUP1 SWAP2 SUB SWAP1 RETURN JUMPDEST CALLVALUE DUP1 ISZERO PUSH2 0x19C JUMPI PUSH1 0x0 DUP1 REVERT JUMPDEST POP PUSH2 0x1B7 PUSH1 0x4 DUP1 CALLDATASIZE SUB DUP2 ADD SWAP1 PUSH2 0x1B2 SWAP2 SWAP1 PUSH2 0x2E10 JUMP JUMPDEST PUSH2 0x51A JUMP JUMPDEST PUSH1 0x40 MLOAD PUSH2 0x1C4 SWAP2 SWAP1 PUSH2 0x31FB JUMP JUMPDEST PUSH1 0x40 MLOAD DUP1 SWAP2 SUB SWAP1 RETURN JUMPDEST CALLVALUE DUP1 ISZERO PUSH2 0x1D9 JUMPI PUSH1 0x0 DUP1 REVERT JUMPDEST POP PUSH2 0x1F4 PUSH1 0x4 DUP1 CALLDATASIZE SUB DUP2 ADD SWAP1 PUSH2 0x1EF SWAP2 SWAP1 PUSH2 0x2F2D JUMP JUMPDEST PUSH2 0x563 JUMP JUMPDEST STOP JUMPDEST PUSH2 0x210 PUSH1 0x4 DUP1 CALLDATASIZE SUB DUP2 ADD SWAP1 PUSH2 0x20B SWAP2 SWAP1 PUSH2 0x2ED3 JUMP JUMPDEST PUSH2 0x623 JUMP JUMPDEST STOP JUMPDEST CALLVALUE DUP1 ISZERO PUSH2 0x21E JUMPI PUSH1 0x0 DUP1 REVERT JUMPDEST POP PUSH2 0x239 PUSH1 0x4 DUP1 CALLDATASIZE SUB DUP2 ADD SWAP1 PUSH2 0x234 SWAP2 SWAP1 PUSH2 0x2E3D JUMP JUMPDEST PUSH2 0xC33 JUMP JUMPDEST STOP JUMPDEST CALLVALUE DUP1 ISZERO PUSH2 0x247 JUMPI PUSH1 0x0 DUP1 REVERT JUMPDEST POP PUSH2 0x250 PUSH2 0xE33 JUMP JUMPDEST PUSH1 0x40 MLOAD PUSH2 0x25D SWAP2 SWAP1 PUSH2 0x30F7 JUMP JUMPDEST PUSH1 0x40 MLOAD DUP1 SWAP2 SUB SWAP1 RETURN JUMPDEST CALLVALUE DUP1 ISZERO PUSH2 0x272 JUMPI PUSH1 0x0 DUP1 REVERT JUMPDEST POP PUSH2 0x27B PUSH2 0xE5D JUMP JUMPDEST PUSH1 0x40 MLOAD PUSH2 0x288 SWAP2 SWAP1 PUSH2 0x313B JUMP JUMPDEST PUSH1 0x40 MLOAD DUP1 SWAP2 SUB SWAP1 RETURN JUMPDEST CALLVALUE DUP1 ISZERO PUSH2 0x29D JUMPI PUSH1 0x0 DUP1 REVERT JUMPDEST POP PUSH2 0x2A6 PUSH2 0x1001 JUMP JUMPDEST PUSH1 0x40 MLOAD PUSH2 0x2B3 SWAP2 SWAP1 PUSH2 0x31FB JUMP JUMPDEST PUSH1 0x40 MLOAD DUP1 SWAP2 SUB SWAP1 RETURN JUMPDEST CALLVALUE DUP1 ISZERO PUSH2 0x2C8 JUMPI PUSH1 0x0 DUP1 REVERT JUMPDEST POP PUSH2 0x2D1 PUSH2 0x1010 JUMP JUMPDEST PUSH1 0x40 MLOAD PUSH2 0x2DE SWAP2 SWAP1 PUSH2 0x31FB JUMP JUMPDEST PUSH1 0x40 MLOAD DUP1 SWAP2 SUB SWAP1 RETURN JUMPDEST CALLVALUE DUP1 ISZERO PUSH2 0x2F3 JUMPI PUSH1 0x0 DUP1 REVERT JUMPDEST POP PUSH2 0x2FC PUSH2 0x101D JUMP JUMPDEST PUSH1 0x40 MLOAD PUSH2 0x309 SWAP2 SWAP1 PUSH2 0x30F7 JUMP JUMPDEST PUSH1 0x40 MLOAD DUP1 SWAP2 SUB SWAP1 RETURN JUMPDEST CALLVALUE DUP1 ISZERO PUSH2 0x31E JUMPI PUSH1 0x0 DUP1 REVERT JUMPDEST POP PUSH2 0x339 PUSH1 0x4 DUP1 CALLDATASIZE SUB DUP2 ADD SWAP1 PUSH2 0x334 SWAP2 SWAP1 PUSH2 0x2E8A JUMP JUMPDEST PUSH2 0x1045 JUMP JUMPDEST PUSH1 0x40 MLOAD PUSH2 0x347 SWAP3 SWAP2 SWAP1 PUSH2 0x315D JUMP JUMPDEST PUSH1 0x40 MLOAD DUP1 SWAP2 SUB SWAP1 RETURN JUMPDEST CALLVALUE DUP1 ISZERO PUSH2 0x35C JUMPI PUSH1 0x0 DUP1 REVERT JUMPDEST POP PUSH2 0x365 PUSH2 0x10F3 JUMP JUMPDEST STOP JUMPDEST CALLVALUE DUP1 ISZERO PUSH2 0x373 JUMPI PUSH1 0x0 DUP1 REVERT JUMPDEST POP PUSH2 0x37C PUSH2 0x1459 JUMP JUMPDEST PUSH1 0x40 MLOAD PUSH2 0x389 SWAP2 SWAP1 PUSH2 0x30F7 JUMP JUMPDEST PUSH1 0x40 MLOAD DUP1 SWAP2 SUB SWAP1 RETURN JUMPDEST CALLVALUE DUP1 ISZERO PUSH2 0x39E JUMPI PUSH1 0x0 DUP1 REVERT JUMPDEST POP PUSH2 0x3A7 PUSH2 0x1483 JUMP JUMPDEST PUSH1 0x40 MLOAD PUSH2 0x3B4 SWAP2 SWAP1 PUSH2 0x31FB JUMP JUMPDEST PUSH1 0x40 MLOAD DUP1 SWAP2 SUB SWAP1 RETURN JUMPDEST PUSH2 0x3C5 PUSH2 0x14AB JUMP JUMPDEST STOP JUMPDEST CALLVALUE DUP1 ISZERO PUSH2 0x3D3 JUMPI PUSH1 0x0 DUP1 REVERT JUMPDEST POP PUSH2 0x3DC PUSH2 0x16FE JUMP JUMPDEST PUSH1 0x40 MLOAD PUSH2 0x3E9 SWAP2 SWAP1 PUSH2 0x31FB JUMP JUMPDEST PUSH1 0x40 MLOAD DUP1 SWAP2 SUB SWAP1 RETURN JUMPDEST CALLVALUE DUP1 ISZERO PUSH2 0x3FE JUMPI PUSH1 0x0 DUP1 REVERT JUMPDEST POP PUSH2 0x407 PUSH2 0x1726 JUMP JUMPDEST PUSH1 0x40 MLOAD PUSH2 0x414 SWAP2 SWAP1 PUSH2 0x31FB JUMP JUMPDEST PUSH1 0x40 MLOAD DUP1 SWAP2 SUB SWAP1 RETURN JUMPDEST CALLVALUE DUP1 ISZERO PUSH2 0x429 JUMPI PUSH1 0x0 DUP1 REVERT JUMPDEST POP PUSH2 0x444 PUSH1 0x4 DUP1 CALLDATASIZE SUB DUP2 ADD SWAP1 PUSH2 0x43F SWAP2 SWAP1 PUSH2 0x2ED3 JUMP JUMPDEST PUSH2 0x172F JUMP JUMPDEST PUSH1 0x40 MLOAD PUSH2 0x451 SWAP2 SWAP1 PUSH2 0x30F7 JUMP JUMPDEST PUSH1 0x40 MLOAD DUP1 SWAP2 SUB SWAP1 RETURN JUMPDEST CALLVALUE DUP1 ISZERO PUSH2 0x466 JUMPI PUSH1 0x0 DUP1 REVERT JUMPDEST POP PUSH2 0x46F PUSH2 0x1777 JUMP JUMPDEST PUSH1 0x40 MLOAD PUSH2 0x47C SWAP2 SWAP1 PUSH2 0x313B JUMP JUMPDEST PUSH1 0x40 MLOAD DUP1 SWAP2 SUB SWAP1 RETURN JUMPDEST CALLVALUE DUP1 ISZERO PUSH2 0x491 JUMPI PUSH1 0x0 DUP1 REVERT JUMPDEST POP PUSH2 0x49A PUSH2 0x1805 JUMP JUMPDEST PUSH1 0x40 MLOAD PUSH2 0x4A7 SWAP2 SWAP1 PUSH2 0x31FB JUMP JUMPDEST PUSH1 0x40 MLOAD DUP1 SWAP2 SUB SWAP1 RETURN JUMPDEST CALLVALUE DUP1 ISZERO PUSH2 0x4BC JUMPI PUSH1 0x0 DUP1 REVERT JUMPDEST POP PUSH2 0x4C5 PUSH2 0x180F JUMP JUMPDEST PUSH1 0x40 MLOAD PUSH2 0x4D2 SWAP2 SWAP1 PUSH2 0x31FB JUMP JUMPDEST PUSH1 0x40 MLOAD DUP1 SWAP2 SUB SWAP1 RETURN JUMPDEST PUSH1 0x0 PUSH32 0x0 SWAP1 POP SWAP1 JUMP JUMPDEST PUSH1 0x0 PUSH1 0x5 PUSH1 0x0 SWAP1 SLOAD SWAP1 PUSH2 0x100 EXP SWAP1 DIV PUSH1 0xFF AND SWAP1 POP SWAP1 JUMP JUMPDEST PUSH1 0x0 PUSH1 0x6 PUSH1 0x0 DUP4 PUSH20 0xFFFFFFFFFFFFFFFFFFFFFFFFFFFFFFFFFFFFFFFF AND PUSH20 0xFFFFFFFFFFFFFFFFFFFFFFFFFFFFFFFFFFFFFFFF AND DUP2 MSTORE PUSH1 0x20 ADD SWAP1 DUP2 MSTORE PUSH1 0x20 ADD PUSH1 0x0 KECCAK256 SLOAD SWAP1 POP SWAP2 SWAP1 POP JUMP JUMPDEST PUSH32 0x0 PUSH20 0xFFFFFFFFFFFFFFFFFFFFFFFFFFFFFFFFFFFFFFFF AND CALLER PUSH20 0xFFFFFFFFFFFFFFFFFFFFFFFFFFFFFFFFFFFFFFFF AND EQ PUSH2 0x615 JUMPI CALLER PUSH32 0x0 PUSH1 0x40 MLOAD PUSH32 0x1CF993F400000000000000000000000000000000000000000000000000000000 DUP2 MSTORE PUSH1 0x4 ADD PUSH2 0x60C SWAP3 SWAP2 SWAP1 PUSH2 0x3112 JUMP JUMPDEST PUSH1 0x40 MLOAD DUP1 SWAP2 SUB SWAP1 REVERT JUMPDEST PUSH2 0x61F DUP3 DUP3 PUSH2 0x181C JUMP JUMPDEST POP POP JUMP JUMPDEST PUSH32 0x0 CALLVALUE LT ISZERO PUSH2 0x67D JUMPI PUSH1 0x40 MLOAD PUSH32 0x8F53B81300000000000000000000000000000000000000000000000000000000 DUP2 MSTORE PUSH1 0x4 ADD PUSH1 0x40 MLOAD DUP1 SWAP2 SUB SWAP1 REVERT JUMPDEST PUSH1 0x0 PUSH1 0x2 DUP2 GT ISZERO PUSH2 0x691 JUMPI PUSH2 0x690 PUSH2 0x3835 JUMP JUMPDEST JUMPDEST PUSH1 0x5 PUSH1 0x0 SWAP1 SLOAD SWAP1 PUSH2 0x100 EXP SWAP1 DIV PUSH1 0xFF AND PUSH1 0x2 DUP2 GT ISZERO PUSH2 0x6B3 JUMPI PUSH2 0x6B2 PUSH2 0x3835 JUMP JUMPDEST JUMPDEST EQ PUSH2 0x6EA JUMPI PUSH1 0x40 MLOAD PUSH32 0x464DDE1500000000000000000000000000000000000000000000000000000000 DUP2 MSTORE PUSH1 0x4 ADD PUSH1 0x40 MLOAD DUP1 SWAP2 SUB SWAP1 REVERT JUMPDEST PUSH1 0x1 DUP2 EQ ISZERO DUP1 ISZERO PUSH2 0x6FC JUMPI POP PUSH1 0x2 DUP2 EQ ISZERO JUMPDEST DUP1 ISZERO PUSH2 0x709 JUMPI POP PUSH1 0x3 DUP2 EQ ISZERO JUMPDEST ISZERO PUSH2 0x740 JUMPI PUSH1 0x40 MLOAD PUSH32 0x47EFEA5A00000000000000000000000000000000000000000000000000000000 DUP2 MSTORE PUSH1 0x4 ADD PUSH1 0x40 MLOAD DUP1 SWAP2 SUB SWAP1 REVERT JUMPDEST PUSH1 0x1 DUP2 EQ ISZERO PUSH2 0x8AE JUMPI PUSH1 0x0 PUSH32 0x0 PUSH20 0xFFFFFFFFFFFFFFFFFFFFFFFFFFFFFFFFFFFFFFFF AND CALLVALUE PUSH1 0x40 MLOAD PUSH2 0x78F SWAP1 PUSH2 0x30E2 JUMP JUMPDEST PUSH1 0x0 PUSH1 0x40 MLOAD DUP1 DUP4 SUB DUP2 DUP6 DUP8 GAS CALL SWAP3 POP POP POP RETURNDATASIZE DUP1 PUSH1 0x0 DUP2 EQ PUSH2 0x7CC JUMPI PUSH1 0x40 MLOAD SWAP2 POP PUSH1 0x1F NOT PUSH1 0x3F RETURNDATASIZE ADD AND DUP3 ADD PUSH1 0x40 MSTORE RETURNDATASIZE DUP3 MSTORE RETURNDATASIZE PUSH1 0x0 PUSH1 0x20 DUP5 ADD RETURNDATACOPY PUSH2 0x7D1 JUMP JUMPDEST PUSH1 0x60 SWAP2 POP JUMPDEST POP POP SWAP1 POP DUP1 PUSH2 0x837 JUMPI PUSH32 0x0 PUSH1 0x40 MLOAD PUSH32 0xAF120E0A00000000000000000000000000000000000000000000000000000000 DUP2 MSTORE PUSH1 0x4 ADD PUSH2 0x82E SWAP2 SWAP1 PUSH2 0x30F7 JUMP JUMPDEST PUSH1 0x40 MLOAD DUP1 SWAP2 SUB SWAP1 REVERT JUMPDEST PUSH1 0x6 PUSH1 0x0 PUSH32 0x0 PUSH20 0xFFFFFFFFFFFFFFFFFFFFFFFFFFFFFFFFFFFFFFFF AND PUSH20 0xFFFFFFFFFFFFFFFFFFFFFFFFFFFFFFFFFFFFFFFF AND DUP2 MSTORE PUSH1 0x20 ADD SWAP1 DUP2 MSTORE PUSH1 0x20 ADD PUSH1 0x0 KECCAK256 PUSH1 0x0 DUP2 SLOAD DUP1 SWAP3 SWAP2 SWAP1 PUSH2 0x8A7 SWAP1 PUSH2 0x375D JUMP JUMPDEST SWAP2 SWAP1 POP SSTORE POP POP JUMPDEST PUSH1 0x2 DUP2 EQ ISZERO PUSH2 0xA1C JUMPI PUSH1 0x0 PUSH32 0x0 PUSH20 0xFFFFFFFFFFFFFFFFFFFFFFFFFFFFFFFFFFFFFFFF AND CALLVALUE PUSH1 0x40 MLOAD PUSH2 0x8FD SWAP1 PUSH2 0x30E2 JUMP JUMPDEST PUSH1 0x0 PUSH1 0x40 MLOAD DUP1 DUP4 SUB DUP2 DUP6 DUP8 GAS CALL SWAP3 POP POP POP RETURNDATASIZE DUP1 PUSH1 0x0 DUP2 EQ PUSH2 0x93A JUMPI PUSH1 0x40 MLOAD SWAP2 POP PUSH1 0x1F NOT PUSH1 0x3F RETURNDATASIZE ADD AND DUP3 ADD PUSH1 0x40 MSTORE RETURNDATASIZE DUP3 MSTORE RETURNDATASIZE PUSH1 0x0 PUSH1 0x20 DUP5 ADD RETURNDATACOPY PUSH2 0x93F JUMP JUMPDEST PUSH1 0x60 SWAP2 POP JUMPDEST POP POP SWAP1 POP DUP1 PUSH2 0x9A5 JUMPI PUSH32 0x0 PUSH1 0x40 MLOAD PUSH32 0xAF120E0A00000000000000000000000000000000000000000000000000000000 DUP2 MSTORE PUSH1 0x4 ADD PUSH2 0x99C SWAP2 SWAP1 PUSH2 0x30F7 JUMP JUMPDEST PUSH1 0x40 MLOAD DUP1 SWAP2 SUB SWAP1 REVERT JUMPDEST PUSH1 0x6 PUSH1 0x0 PUSH32 0x0 PUSH20 0xFFFFFFFFFFFFFFFFFFFFFFFFFFFFFFFFFFFFFFFF AND PUSH20 0xFFFFFFFFFFFFFFFFFFFFFFFFFFFFFFFFFFFFFFFF AND DUP2 MSTORE PUSH1 0x20 ADD SWAP1 DUP2 MSTORE PUSH1 0x20 ADD PUSH1 0x0 KECCAK256 PUSH1 0x0 DUP2 SLOAD DUP1 SWAP3 SWAP2 SWAP1 PUSH2 0xA15 SWAP1 PUSH2 0x375D JUMP JUMPDEST SWAP2 SWAP1 POP SSTORE POP POP JUMPDEST PUSH1 0x3 DUP2 EQ ISZERO PUSH2 0xB8A JUMPI PUSH1 0x0 PUSH32 0x0 PUSH20 0xFFFFFFFFFFFFFFFFFFFFFFFFFFFFFFFFFFFFFFFF AND CALLVALUE PUSH1 0x40 MLOAD PUSH2 0xA6B SWAP1 PUSH2 0x30E2 JUMP JUMPDEST PUSH1 0x0 PUSH1 0x40 MLOAD DUP1 DUP4 SUB DUP2 DUP6 DUP8 GAS CALL SWAP3 POP POP POP RETURNDATASIZE DUP1 PUSH1 0x0 DUP2 EQ PUSH2 0xAA8 JUMPI PUSH1 0x40 MLOAD SWAP2 POP PUSH1 0x1F NOT PUSH1 0x3F RETURNDATASIZE ADD AND DUP3 ADD PUSH1 0x40 MSTORE RETURNDATASIZE DUP3 MSTORE RETURNDATASIZE PUSH1 0x0 PUSH1 0x20 DUP5 ADD RETURNDATACOPY PUSH2 0xAAD JUMP JUMPDEST PUSH1 0x60 SWAP2 POP JUMPDEST POP POP SWAP1 POP DUP1 PUSH2 0xB13 JUMPI PUSH32 0x0 PUSH1 0x40 MLOAD PUSH32 0xAF120E0A00000000000000000000000000000000000000000000000000000000 DUP2 MSTORE PUSH1 0x4 ADD PUSH2 0xB0A SWAP2 SWAP1 PUSH2 0x30F7 JUMP JUMPDEST PUSH1 0x40 MLOAD DUP1 SWAP2 SUB SWAP1 REVERT JUMPDEST PUSH1 0x6 PUSH1 0x0 PUSH32 0x0 PUSH20 0xFFFFFFFFFFFFFFFFFFFFFFFFFFFFFFFFFFFFFFFF AND PUSH20 0xFFFFFFFFFFFFFFFFFFFFFFFFFFFFFFFFFFFFFFFF AND DUP2 MSTORE PUSH1 0x20 ADD SWAP1 DUP2 MSTORE PUSH1 0x20 ADD PUSH1 0x0 KECCAK256 PUSH1 0x0 DUP2 SLOAD DUP1 SWAP3 SWAP2 SWAP1 PUSH2 0xB83 SWAP1 PUSH2 0x375D JUMP JUMPDEST SWAP2 SWAP1 POP SSTORE POP POP JUMPDEST PUSH1 0x4 CALLER SWAP1 DUP1 PUSH1 0x1 DUP2 SLOAD ADD DUP1 DUP3 SSTORE DUP1 SWAP2 POP POP PUSH1 0x1 SWAP1 SUB SWAP1 PUSH1 0x0 MSTORE PUSH1 0x20 PUSH1 0x0 KECCAK256 ADD PUSH1 0x0 SWAP1 SWAP2 SWAP1 SWAP2 SWAP1 SWAP2 PUSH2 0x100 EXP DUP2 SLOAD DUP2 PUSH20 0xFFFFFFFFFFFFFFFFFFFFFFFFFFFFFFFFFFFFFFFF MUL NOT AND SWAP1 DUP4 PUSH20 0xFFFFFFFFFFFFFFFFFFFFFFFFFFFFFFFFFFFFFFFF AND MUL OR SWAP1 SSTORE POP CALLER PUSH20 0xFFFFFFFFFFFFFFFFFFFFFFFFFFFFFFFFFFFFFFFF AND PUSH32 0x805E1D667BDDB8A95F0F09880CF94F403FB596CE79928D9F29B74203BA284D4 PUSH1 0x40 MLOAD PUSH1 0x40 MLOAD DUP1 SWAP2 SUB SWAP1 LOG2 POP JUMP JUMPDEST PUSH1 0x0 PUSH2 0xC4D PUSH1 0x40 MLOAD DUP1 PUSH1 0x20 ADD PUSH1 0x40 MSTORE DUP1 PUSH1 0x0 DUP2 MSTORE POP PUSH2 0x1045 JUMP JUMPDEST POP SWAP1 POP DUP1 PUSH2 0xCBC JUMPI SELFBALANCE PUSH1 0x4 DUP1 SLOAD SWAP1 POP PUSH1 0x5 PUSH1 0x0 SWAP1 SLOAD SWAP1 PUSH2 0x100 EXP SWAP1 DIV PUSH1 0xFF AND PUSH1 0x2 DUP2 GT ISZERO PUSH2 0xC7E JUMPI PUSH2 0xC7D PUSH2 0x3835 JUMP JUMPDEST JUMPDEST PUSH1 0x40 MLOAD PUSH32 0x1BE0EA7F00000000000000000000000000000000000000000000000000000000 DUP2 MSTORE PUSH1 0x4 ADD PUSH2 0xCB3 SWAP4 SWAP3 SWAP2 SWAP1 PUSH2 0x3216 JUMP JUMPDEST PUSH1 0x40 MLOAD DUP1 SWAP2 SUB SWAP1 REVERT JUMPDEST PUSH1 0x1 PUSH1 0x5 PUSH1 0x0 PUSH2 0x100 EXP DUP2 SLOAD DUP2 PUSH1 0xFF MUL NOT AND SWAP1 DUP4 PUSH1 0x2 DUP2 GT ISZERO PUSH2 0xCE2 JUMPI PUSH2 0xCE1 PUSH2 0x3835 JUMP JUMPDEST JUMPDEST MUL OR SWAP1 SSTORE POP PUSH1 0x0 PUSH32 0x0 PUSH20 0xFFFFFFFFFFFFFFFFFFFFFFFFFFFFFFFFFFFFFFFF AND PUSH4 0x5D3B1D30 PUSH32 0x0 PUSH32 0x0 PUSH1 0x3 PUSH32 0x0 PUSH1 0x4 PUSH1 0x40 MLOAD DUP7 PUSH4 0xFFFFFFFF AND PUSH1 0xE0 SHL DUP2 MSTORE PUSH1 0x4 ADD PUSH2 0xDAC SWAP6 SWAP5 SWAP4 SWAP3 SWAP2 SWAP1 PUSH2 0x318D JUMP JUMPDEST PUSH1 0x20 PUSH1 0x40 MLOAD DUP1 DUP4 SUB DUP2 PUSH1 0x0 DUP8 DUP1 EXTCODESIZE ISZERO DUP1 ISZERO PUSH2 0xDC6 JUMPI PUSH1 0x0 DUP1 REVERT JUMPDEST POP GAS CALL ISZERO DUP1 ISZERO PUSH2 0xDDA JUMPI RETURNDATASIZE PUSH1 0x0 DUP1 RETURNDATACOPY RETURNDATASIZE PUSH1 0x0 REVERT JUMPDEST POP POP POP POP PUSH1 0x40 MLOAD RETURNDATASIZE PUSH1 0x1F NOT PUSH1 0x1F DUP3 ADD AND DUP3 ADD DUP1 PUSH1 0x40 MSTORE POP DUP2 ADD SWAP1 PUSH2 0xDFE SWAP2 SWAP1 PUSH2 0x2F00 JUMP JUMPDEST SWAP1 POP DUP1 PUSH32 0xCD6E45C8998311CAB7E9D4385596CAC867E20A0587194B954FA3A731C93CE78B PUSH1 0x40 MLOAD PUSH1 0x40 MLOAD DUP1 SWAP2 SUB SWAP1 LOG2 POP POP POP POP JUMP JUMPDEST PUSH1 0x0 PUSH1 0x2 PUSH1 0x0 SWAP1 SLOAD SWAP1 PUSH2 0x100 EXP SWAP1 DIV PUSH20 0xFFFFFFFFFFFFFFFFFFFFFFFFFFFFFFFFFFFFFFFF AND SWAP1 POP SWAP1 JUMP JUMPDEST PUSH1 0x60 PUSH1 0x0 PUSH1 0x3 PUSH8 0xFFFFFFFFFFFFFFFF DUP2 GT ISZERO PUSH2 0xE7C JUMPI PUSH2 0xE7B PUSH2 0x3893 JUMP JUMPDEST JUMPDEST PUSH1 0x40 MLOAD SWAP1 DUP1 DUP3 MSTORE DUP1 PUSH1 0x20 MUL PUSH1 0x20 ADD DUP3 ADD PUSH1 0x40 MSTORE DUP1 ISZERO PUSH2 0xEAA JUMPI DUP2 PUSH1 0x20 ADD PUSH1 0x20 DUP3 MUL DUP1 CALLDATASIZE DUP4 CALLDATACOPY DUP1 DUP3 ADD SWAP2 POP POP SWAP1 POP JUMPDEST POP SWAP1 POP PUSH32 0x0 DUP2 PUSH1 0x0 DUP2 MLOAD DUP2 LT PUSH2 0xEE2 JUMPI PUSH2 0xEE1 PUSH2 0x3864 JUMP JUMPDEST JUMPDEST PUSH1 0x20 MUL PUSH1 0x20 ADD ADD SWAP1 PUSH20 0xFFFFFFFFFFFFFFFFFFFFFFFFFFFFFFFFFFFFFFFF AND SWAP1 DUP2 PUSH20 0xFFFFFFFFFFFFFFFFFFFFFFFFFFFFFFFFFFFFFFFF AND DUP2 MSTORE POP POP PUSH32 0x0 DUP2 PUSH1 0x1 DUP2 MLOAD DUP2 LT PUSH2 0xF51 JUMPI PUSH2 0xF50 PUSH2 0x3864 JUMP JUMPDEST JUMPDEST PUSH1 0x20 MUL PUSH1 0x20 ADD ADD SWAP1 PUSH20 0xFFFFFFFFFFFFFFFFFFFFFFFFFFFFFFFFFFFFFFFF AND SWAP1 DUP2 PUSH20 0xFFFFFFFFFFFFFFFFFFFFFFFFFFFFFFFFFFFFFFFF AND DUP2 MSTORE POP POP PUSH32 0x0 DUP2 PUSH1 0x2 DUP2 MLOAD DUP2 LT PUSH2 0xFC0 JUMPI PUSH2 0xFBF PUSH2 0x3864 JUMP JUMPDEST JUMPDEST PUSH1 0x20 MUL PUSH1 0x20 ADD ADD SWAP1 PUSH20 0xFFFFFFFFFFFFFFFFFFFFFFFFFFFFFFFFFFFFFFFF AND SWAP1 DUP2 PUSH20 0xFFFFFFFFFFFFFFFFFFFFFFFFFFFFFFFFFFFFFFFF AND DUP2 MSTORE POP POP DUP1 SWAP2 POP POP SWAP1 JUMP JUMPDEST PUSH1 0x0 PUSH1 0x4 PUSH4 0xFFFFFFFF AND SWAP1 POP SWAP1 JUMP JUMPDEST PUSH1 0x0 PUSH1 0x3 PUSH2 0xFFFF AND SWAP1 POP SWAP1 JUMP JUMPDEST PUSH1 0x0 PUSH32 0x0 SWAP1 POP SWAP1 JUMP JUMPDEST PUSH1 0x0 PUSH1 0x60 PUSH1 0x0 PUSH1 0x5 PUSH1 0x0 SWAP1 SLOAD SWAP1 PUSH2 0x100 EXP SWAP1 DIV PUSH1 0xFF AND PUSH1 0x2 DUP2 GT ISZERO PUSH2 0x106D JUMPI PUSH2 0x106C PUSH2 0x3835 JUMP JUMPDEST JUMPDEST PUSH1 0x0 PUSH1 0x2 DUP2 GT ISZERO PUSH2 0x1081 JUMPI PUSH2 0x1080 PUSH2 0x3835 JUMP JUMPDEST JUMPDEST EQ SWAP1 POP PUSH1 0x0 PUSH32 0x0 PUSH1 0x0 SLOAD TIMESTAMP PUSH2 0x10B5 SWAP2 SWAP1 PUSH2 0x3571 JUMP JUMPDEST LT ISZERO SWAP1 POP PUSH1 0x0 DUP1 PUSH1 0x4 DUP1 SLOAD SWAP1 POP GT SWAP1 POP PUSH1 0x0 DUP1 SELFBALANCE GT SWAP1 POP DUP4 DUP1 ISZERO PUSH2 0x10D6 JUMPI POP DUP3 JUMPDEST DUP1 ISZERO PUSH2 0x10DF JUMPI POP DUP1 JUMPDEST DUP1 ISZERO PUSH2 0x10E8 JUMPI POP DUP2 JUMPDEST SWAP6 POP POP POP POP POP SWAP2 POP SWAP2 JUMP JUMPDEST PUSH32 0x0 PUSH20 0xFFFFFFFFFFFFFFFFFFFFFFFFFFFFFFFFFFFFFFFF AND CALLER PUSH20 0xFFFFFFFFFFFFFFFFFFFFFFFFFFFFFFFFFFFFFFFF AND EQ PUSH2 0x1178 JUMPI PUSH1 0x40 MLOAD PUSH32 0x5353493A00000000000000000000000000000000000000000000000000000000 DUP2 MSTORE PUSH1 0x4 ADD PUSH1 0x40 MLOAD DUP1 SWAP2 SUB SWAP1 REVERT JUMPDEST PUSH1 0x0 PUSH20 0xFFFFFFFFFFFFFFFFFFFFFFFFFFFFFFFFFFFFFFFF AND PUSH1 0x3 PUSH1 0x0 SWAP1 SLOAD SWAP1 PUSH2 0x100 EXP SWAP1 DIV PUSH20 0xFFFFFFFFFFFFFFFFFFFFFFFFFFFFFFFFFFFFFFFF AND PUSH20 0xFFFFFFFFFFFFFFFFFFFFFFFFFFFFFFFFFFFFFFFF AND EQ ISZERO PUSH2 0x1201 JUMPI PUSH1 0x40 MLOAD PUSH32 0x9F9214BD00000000000000000000000000000000000000000000000000000000 DUP2 MSTORE PUSH1 0x4 ADD PUSH1 0x40 MLOAD DUP1 SWAP2 SUB SWAP1 REVERT JUMPDEST PUSH1 0x2 DUP1 DUP2 GT ISZERO PUSH2 0x1214 JUMPI PUSH2 0x1213 PUSH2 0x3835 JUMP JUMPDEST JUMPDEST PUSH1 0x5 PUSH1 0x0 SWAP1 SLOAD SWAP1 PUSH2 0x100 EXP SWAP1 DIV PUSH1 0xFF AND PUSH1 0x2 DUP2 GT ISZERO PUSH2 0x1236 JUMPI PUSH2 0x1235 PUSH2 0x3835 JUMP JUMPDEST JUMPDEST EQ PUSH2 0x126D JUMPI PUSH1 0x40 MLOAD PUSH32 0xB106F93000000000000000000000000000000000000000000000000000000000 DUP2 MSTORE PUSH1 0x4 ADD PUSH1 0x40 MLOAD DUP1 SWAP2 SUB SWAP1 REVERT JUMPDEST PUSH1 0x3 PUSH1 0x14 SWAP1 SLOAD SWAP1 PUSH2 0x100 EXP SWAP1 DIV PUSH1 0xFF AND PUSH2 0x12B3 JUMPI PUSH1 0x40 MLOAD PUSH32 0xF4190DB300000000000000000000000000000000000000000000000000000000 DUP2 MSTORE PUSH1 0x4 ADD PUSH1 0x40 MLOAD DUP1 SWAP2 SUB SWAP1 REVERT JUMPDEST PUSH1 0x0 SELFBALANCE GT PUSH2 0x12EC JUMPI PUSH1 0x40 MLOAD PUSH31 0x8CA0CA00000000000000000000000000000000000000000000000000000000 DUP2 MSTORE PUSH1 0x4 ADD PUSH1 0x40 MLOAD DUP1 SWAP2 SUB SWAP1 REVERT JUMPDEST PUSH1 0x0 PUSH1 0x3 PUSH1 0x0 SWAP1 SLOAD SWAP1 PUSH2 0x100 EXP SWAP1 DIV PUSH20 0xFFFFFFFFFFFFFFFFFFFFFFFFFFFFFFFFFFFFFFFF AND SWAP1 POP PUSH1 0x0 PUSH1 0x3 PUSH1 0x0 PUSH2 0x100 EXP DUP2 SLOAD DUP2 PUSH20 0xFFFFFFFFFFFFFFFFFFFFFFFFFFFFFFFFFFFFFFFF MUL NOT AND SWAP1 DUP4 PUSH20 0xFFFFFFFFFFFFFFFFFFFFFFFFFFFFFFFFFFFFFFFF AND MUL OR SWAP1 SSTORE POP PUSH1 0x0 PUSH1 0x2 PUSH1 0x0 PUSH2 0x100 EXP DUP2 SLOAD DUP2 PUSH20 0xFFFFFFFFFFFFFFFFFFFFFFFFFFFFFFFFFFFFFFFF MUL NOT AND SWAP1 DUP4 PUSH20 0xFFFFFFFFFFFFFFFFFFFFFFFFFFFFFFFFFFFFFFFF AND MUL OR SWAP1 SSTORE POP PUSH1 0x0 PUSH1 0x3 PUSH1 0x14 PUSH2 0x100 EXP DUP2 SLOAD DUP2 PUSH1 0xFF MUL NOT AND SWAP1 DUP4 ISZERO ISZERO MUL OR SWAP1 SSTORE POP PUSH1 0x0 DUP2 PUSH20 0xFFFFFFFFFFFFFFFFFFFFFFFFFFFFFFFFFFFFFFFF AND SELFBALANCE PUSH1 0x40 MLOAD PUSH2 0x13D8 SWAP1 PUSH2 0x30E2 JUMP JUMPDEST PUSH1 0x0 PUSH1 0x40 MLOAD DUP1 DUP4 SUB DUP2 DUP6 DUP8 GAS CALL SWAP3 POP POP POP RETURNDATASIZE DUP1 PUSH1 0x0 DUP2 EQ PUSH2 0x1415 JUMPI PUSH1 0x40 MLOAD SWAP2 POP PUSH1 0x1F NOT PUSH1 0x3F RETURNDATASIZE ADD AND DUP3 ADD PUSH1 0x40 MSTORE RETURNDATASIZE DUP3 MSTORE RETURNDATASIZE PUSH1 0x0 PUSH1 0x20 DUP5 ADD RETURNDATACOPY PUSH2 0x141A JUMP JUMPDEST PUSH1 0x60 SWAP2 POP JUMPDEST POP POP SWAP1 POP DUP1 PUSH2 0x1455 JUMPI PUSH1 0x40 MLOAD PUSH32 0xBFABDD9900000000000000000000000000000000000000000000000000000000 DUP2 MSTORE PUSH1 0x4 ADD PUSH1 0x40 MLOAD DUP1 SWAP2 SUB SWAP1 REVERT JUMPDEST POP POP JUMP JUMPDEST PUSH1 0x0 PUSH1 0x3 PUSH1 0x0 SWAP1 SLOAD SWAP1 PUSH2 0x100 EXP SWAP1 DIV PUSH20 0xFFFFFFFFFFFFFFFFFFFFFFFFFFFFFFFFFFFFFFFF AND SWAP1 POP SWAP1 JUMP JUMPDEST PUSH1 0x0 PUSH32 0x0 SWAP1 POP SWAP1 JUMP JUMPDEST PUSH32 0x0 PUSH20 0xFFFFFFFFFFFFFFFFFFFFFFFFFFFFFFFFFFFFFFFF AND CALLER PUSH20 0xFFFFFFFFFFFFFFFFFFFFFFFFFFFFFFFFFFFFFFFF AND EQ PUSH2 0x1530 JUMPI PUSH1 0x40 MLOAD PUSH32 0x5353493A00000000000000000000000000000000000000000000000000000000 DUP2 MSTORE PUSH1 0x4 ADD PUSH1 0x40 MLOAD DUP1 SWAP2 SUB SWAP1 REVERT JUMPDEST PUSH1 0x0 PUSH20 0xFFFFFFFFFFFFFFFFFFFFFFFFFFFFFFFFFFFFFFFF AND PUSH1 0x3 PUSH1 0x0 SWAP1 SLOAD SWAP1 PUSH2 0x100 EXP SWAP1 DIV PUSH20 0xFFFFFFFFFFFFFFFFFFFFFFFFFFFFFFFFFFFFFFFF AND PUSH20 0xFFFFFFFFFFFFFFFFFFFFFFFFFFFFFFFFFFFFFFFF AND EQ ISZERO PUSH2 0x15B9 JUMPI PUSH1 0x40 MLOAD PUSH32 0x9F9214BD00000000000000000000000000000000000000000000000000000000 DUP2 MSTORE PUSH1 0x4 ADD PUSH1 0x40 MLOAD DUP1 SWAP2 SUB SWAP1 REVERT JUMPDEST PUSH1 0x2 DUP1 DUP2 GT ISZERO PUSH2 0x15CC JUMPI PUSH2 0x15CB PUSH2 0x3835 JUMP JUMPDEST JUMPDEST PUSH1 0x5 PUSH1 0x0 SWAP1 SLOAD SWAP1 PUSH2 0x100 EXP SWAP1 DIV PUSH1 0xFF AND PUSH1 0x2 DUP2 GT ISZERO PUSH2 0x15EE JUMPI PUSH2 0x15ED PUSH2 0x3835 JUMP JUMPDEST JUMPDEST EQ PUSH2 0x1625 JUMPI PUSH1 0x40 MLOAD PUSH32 0xB106F93000000000000000000000000000000000000000000000000000000000 DUP2 MSTORE PUSH1 0x4 ADD PUSH1 0x40 MLOAD DUP1 SWAP2 SUB SWAP1 REVERT JUMPDEST PUSH1 0x3 PUSH1 0x14 SWAP1 SLOAD SWAP1 PUSH2 0x100 EXP SWAP1 DIV PUSH1 0xFF AND ISZERO PUSH2 0x166C JUMPI PUSH1 0x40 MLOAD PUSH32 0x908D486E00000000000000000000000000000000000000000000000000000000 DUP2 MSTORE PUSH1 0x4 ADD PUSH1 0x40 MLOAD DUP1 SWAP2 SUB SWAP1 REVERT JUMPDEST PUSH1 0x0 PUSH1 0x1 SLOAD SWAP1 POP PUSH1 0x0 PUSH1 0x1 DUP2 SWAP1 SSTORE POP PUSH32 0x0 DUP2 PUSH2 0x16A7 SWAP2 SWAP1 PUSH2 0x3483 JUMP JUMPDEST CALLVALUE LT ISZERO PUSH2 0x16E0 JUMPI PUSH1 0x40 MLOAD PUSH32 0xE696788B00000000000000000000000000000000000000000000000000000000 DUP2 MSTORE PUSH1 0x4 ADD PUSH1 0x40 MLOAD DUP1 SWAP2 SUB SWAP1 REVERT JUMPDEST PUSH1 0x1 PUSH1 0x3 PUSH1 0x14 PUSH2 0x100 EXP DUP2 SLOAD DUP2 PUSH1 0xFF MUL NOT AND SWAP1 DUP4 ISZERO ISZERO MUL OR SWAP1 SSTORE POP POP JUMP JUMPDEST PUSH1 0x0 PUSH32 0x0 SWAP1 POP SWAP1 JUMP JUMPDEST PUSH1 0x0 DUP1 SLOAD SWAP1 POP SWAP1 JUMP JUMPDEST PUSH1 0x0 PUSH1 0x4 DUP3 DUP2 SLOAD DUP2 LT PUSH2 0x1745 JUMPI PUSH2 0x1744 PUSH2 0x3864 JUMP JUMPDEST JUMPDEST SWAP1 PUSH1 0x0 MSTORE PUSH1 0x20 PUSH1 0x0 KECCAK256 ADD PUSH1 0x0 SWAP1 SLOAD SWAP1 PUSH2 0x100 EXP SWAP1 DIV PUSH20 0xFFFFFFFFFFFFFFFFFFFFFFFFFFFFFFFFFFFFFFFF AND SWAP1 POP SWAP2 SWAP1 POP JUMP JUMPDEST PUSH1 0x60 PUSH1 0x4 DUP1 SLOAD DUP1 PUSH1 0x20 MUL PUSH1 0x20 ADD PUSH1 0x40 MLOAD SWAP1 DUP2 ADD PUSH1 0x40 MSTORE DUP1 SWAP3 SWAP2 SWAP1 DUP2 DUP2 MSTORE PUSH1 0x20 ADD DUP3 DUP1 SLOAD DUP1 ISZERO PUSH2 0x17FB JUMPI PUSH1 0x20 MUL DUP3 ADD SWAP2 SWAP1 PUSH1 0x0 MSTORE PUSH1 0x20 PUSH1 0x0 KECCAK256 SWAP1 JUMPDEST DUP2 PUSH1 0x0 SWAP1 SLOAD SWAP1 PUSH2 0x100 EXP SWAP1 DIV PUSH20 0xFFFFFFFFFFFFFFFFFFFFFFFFFFFFFFFFFFFFFFFF AND PUSH20 0xFFFFFFFFFFFFFFFFFFFFFFFFFFFFFFFFFFFFFFFF AND DUP2 MSTORE PUSH1 0x20 ADD SWAP1 PUSH1 0x1 ADD SWAP1 DUP1 DUP4 GT PUSH2 0x17B1 JUMPI JUMPDEST POP POP POP POP POP SWAP1 POP SWAP1 JUMP JUMPDEST PUSH1 0x0 PUSH1 0x1 SLOAD SWAP1 POP SWAP1 JUMP JUMPDEST PUSH1 0x0 PUSH1 0x4 DUP1 SLOAD SWAP1 POP SWAP1 POP SWAP1 JUMP JUMPDEST PUSH1 0x0 PUSH1 0x4 DUP1 SLOAD SWAP1 POP DUP3 PUSH1 0x0 DUP2 MLOAD DUP2 LT PUSH2 0x1838 JUMPI PUSH2 0x1837 PUSH2 0x3864 JUMP JUMPDEST JUMPDEST PUSH1 0x20 MUL PUSH1 0x20 ADD ADD MLOAD PUSH2 0x184A SWAP2 SWAP1 PUSH2 0x37A6 JUMP JUMPDEST SWAP1 POP PUSH1 0x0 PUSH1 0x4 DUP3 DUP2 SLOAD DUP2 LT PUSH2 0x1862 JUMPI PUSH2 0x1861 PUSH2 0x3864 JUMP JUMPDEST JUMPDEST SWAP1 PUSH1 0x0 MSTORE PUSH1 0x20 PUSH1 0x0 KECCAK256 ADD PUSH1 0x0 SWAP1 SLOAD SWAP1 PUSH2 0x100 EXP SWAP1 DIV PUSH20 0xFFFFFFFFFFFFFFFFFFFFFFFFFFFFFFFFFFFFFFFF AND SWAP1 POP DUP1 PUSH1 0x2 PUSH1 0x0 PUSH2 0x100 EXP DUP2 SLOAD DUP2 PUSH20 0xFFFFFFFFFFFFFFFFFFFFFFFFFFFFFFFFFFFFFFFF MUL NOT AND SWAP1 DUP4 PUSH20 0xFFFFFFFFFFFFFFFFFFFFFFFFFFFFFFFFFFFFFFFF AND MUL OR SWAP1 SSTORE POP PUSH1 0x0 PUSH8 0xFFFFFFFFFFFFFFFF DUP2 GT ISZERO PUSH2 0x18EB JUMPI PUSH2 0x18EA PUSH2 0x3893 JUMP JUMPDEST JUMPDEST PUSH1 0x40 MLOAD SWAP1 DUP1 DUP3 MSTORE DUP1 PUSH1 0x20 MUL PUSH1 0x20 ADD DUP3 ADD PUSH1 0x40 MSTORE DUP1 ISZERO PUSH2 0x1919 JUMPI DUP2 PUSH1 0x20 ADD PUSH1 0x20 DUP3 MUL DUP1 CALLDATASIZE DUP4 CALLDATACOPY DUP1 DUP3 ADD SWAP2 POP POP SWAP1 POP JUMPDEST POP PUSH1 0x4 SWAP1 DUP1 MLOAD SWAP1 PUSH1 0x20 ADD SWAP1 PUSH2 0x192F SWAP3 SWAP2 SWAP1 PUSH2 0x2BC6 JUMP JUMPDEST POP PUSH1 0x2 PUSH1 0x5 PUSH1 0x0 PUSH2 0x100 EXP DUP2 SLOAD DUP2 PUSH1 0xFF MUL NOT AND SWAP1 DUP4 PUSH1 0x2 DUP2 GT ISZERO PUSH2 0x1956 JUMPI PUSH2 0x1955 PUSH2 0x3835 JUMP JUMPDEST JUMPDEST MUL OR SWAP1 SSTORE POP PUSH1 0x0 PUSH2 0x1965 PUSH2 0x1EF6 JUMP JUMPDEST SWAP1 POP PUSH1 0x0 PUSH1 0x6 PUSH1 0x0 PUSH32 0x0 PUSH20 0xFFFFFFFFFFFFFFFFFFFFFFFFFFFFFFFFFFFFFFFF AND PUSH20 0xFFFFFFFFFFFFFFFFFFFFFFFFFFFFFFFFFFFFFFFF AND DUP2 MSTORE PUSH1 0x20 ADD SWAP1 DUP2 MSTORE PUSH1 0x20 ADD PUSH1 0x0 KECCAK256 SLOAD SWAP1 POP PUSH1 0x0 PUSH1 0x6 PUSH1 0x0 PUSH32 0x0 PUSH20 0xFFFFFFFFFFFFFFFFFFFFFFFFFFFFFFFFFFFFFFFF AND PUSH20 0xFFFFFFFFFFFFFFFFFFFFFFFFFFFFFFFFFFFFFFFF AND DUP2 MSTORE PUSH1 0x20 ADD SWAP1 DUP2 MSTORE PUSH1 0x20 ADD PUSH1 0x0 KECCAK256 DUP2 SWAP1 SSTORE POP PUSH1 0x0 PUSH1 0x6 PUSH1 0x0 PUSH32 0x0 PUSH20 0xFFFFFFFFFFFFFFFFFFFFFFFFFFFFFFFFFFFFFFFF AND PUSH20 0xFFFFFFFFFFFFFFFFFFFFFFFFFFFFFFFFFFFFFFFF AND DUP2 MSTORE PUSH1 0x20 ADD SWAP1 DUP2 MSTORE PUSH1 0x20 ADD PUSH1 0x0 KECCAK256 SLOAD SWAP1 POP PUSH1 0x0 PUSH1 0x6 PUSH1 0x0 PUSH32 0x0 PUSH20 0xFFFFFFFFFFFFFFFFFFFFFFFFFFFFFFFFFFFFFFFF AND PUSH20 0xFFFFFFFFFFFFFFFFFFFFFFFFFFFFFFFFFFFFFFFF AND DUP2 MSTORE PUSH1 0x20 ADD SWAP1 DUP2 MSTORE PUSH1 0x20 ADD PUSH1 0x0 KECCAK256 DUP2 SWAP1 SSTORE POP PUSH1 0x0 PUSH1 0x6 PUSH1 0x0 PUSH32 0x0 PUSH20 0xFFFFFFFFFFFFFFFFFFFFFFFFFFFFFFFFFFFFFFFF AND PUSH20 0xFFFFFFFFFFFFFFFFFFFFFFFFFFFFFFFFFFFFFFFF AND DUP2 MSTORE PUSH1 0x20 ADD SWAP1 DUP2 MSTORE PUSH1 0x20 ADD PUSH1 0x0 KECCAK256 SLOAD SWAP1 POP PUSH1 0x0 PUSH1 0x6 PUSH1 0x0 PUSH32 0x0 PUSH20 0xFFFFFFFFFFFFFFFFFFFFFFFFFFFFFFFFFFFFFFFF AND PUSH20 0xFFFFFFFFFFFFFFFFFFFFFFFFFFFFFFFFFFFFFFFF AND DUP2 MSTORE PUSH1 0x20 ADD SWAP1 DUP2 MSTORE PUSH1 0x20 ADD PUSH1 0x0 KECCAK256 DUP2 SWAP1 SSTORE POP DUP4 ISZERO PUSH2 0x1BD5 JUMPI PUSH2 0x1BD4 DUP8 DUP5 DUP5 DUP5 PUSH2 0x215B JUMP JUMPDEST JUMPDEST DUP2 DUP4 GT DUP1 ISZERO PUSH2 0x1BE3 JUMPI POP DUP1 DUP4 GT JUMPDEST ISZERO PUSH2 0x1C51 JUMPI DUP3 PUSH1 0x1 DUP2 SWAP1 SSTORE POP PUSH32 0x0 PUSH1 0x3 PUSH1 0x0 PUSH2 0x100 EXP DUP2 SLOAD DUP2 PUSH20 0xFFFFFFFFFFFFFFFFFFFFFFFFFFFFFFFFFFFFFFFF MUL NOT AND SWAP1 DUP4 PUSH20 0xFFFFFFFFFFFFFFFFFFFFFFFFFFFFFFFFFFFFFFFF AND MUL OR SWAP1 SSTORE POP JUMPDEST DUP3 DUP3 GT DUP1 ISZERO PUSH2 0x1C5F JUMPI POP DUP1 DUP3 GT JUMPDEST ISZERO PUSH2 0x1CCD JUMPI DUP2 PUSH1 0x1 DUP2 SWAP1 SSTORE POP PUSH32 0x0 PUSH1 0x3 PUSH1 0x0 PUSH2 0x100 EXP DUP2 SLOAD DUP2 PUSH20 0xFFFFFFFFFFFFFFFFFFFFFFFFFFFFFFFFFFFFFFFF MUL NOT AND SWAP1 DUP4 PUSH20 0xFFFFFFFFFFFFFFFFFFFFFFFFFFFFFFFFFFFFFFFF AND MUL OR SWAP1 SSTORE POP JUMPDEST DUP3 DUP2 GT DUP1 ISZERO PUSH2 0x1CDB JUMPI POP DUP2 DUP2 GT JUMPDEST ISZERO PUSH2 0x1D49 JUMPI DUP1 PUSH1 0x1 DUP2 SWAP1 SSTORE POP PUSH32 0x0 PUSH1 0x3 PUSH1 0x0 PUSH2 0x100 EXP DUP2 SLOAD DUP2 PUSH20 0xFFFFFFFFFFFFFFFFFFFFFFFFFFFFFFFFFFFFFFFF MUL NOT AND SWAP1 DUP4 PUSH20 0xFFFFFFFFFFFFFFFFFFFFFFFFFFFFFFFFFFFFFFFF AND MUL OR SWAP1 SSTORE POP JUMPDEST PUSH1 0x0 DUP6 PUSH20 0xFFFFFFFFFFFFFFFFFFFFFFFFFFFFFFFFFFFFFFFF AND SELFBALANCE PUSH1 0x40 MLOAD PUSH2 0x1D6F SWAP1 PUSH2 0x30E2 JUMP JUMPDEST PUSH1 0x0 PUSH1 0x40 MLOAD DUP1 DUP4 SUB DUP2 DUP6 DUP8 GAS CALL SWAP3 POP POP POP RETURNDATASIZE DUP1 PUSH1 0x0 DUP2 EQ PUSH2 0x1DAC JUMPI PUSH1 0x40 MLOAD SWAP2 POP PUSH1 0x1F NOT PUSH1 0x3F RETURNDATASIZE ADD AND DUP3 ADD PUSH1 0x40 MSTORE RETURNDATASIZE DUP3 MSTORE RETURNDATASIZE PUSH1 0x0 PUSH1 0x20 DUP5 ADD RETURNDATACOPY PUSH2 0x1DB1 JUMP JUMPDEST PUSH1 0x60 SWAP2 POP JUMPDEST POP POP SWAP1 POP DUP1 PUSH2 0x1DEC JUMPI PUSH1 0x40 MLOAD PUSH32 0x829A2EC900000000000000000000000000000000000000000000000000000000 DUP2 MSTORE PUSH1 0x4 ADD PUSH1 0x40 MLOAD DUP1 SWAP2 SUB SWAP1 REVERT JUMPDEST DUP6 PUSH20 0xFFFFFFFFFFFFFFFFFFFFFFFFFFFFFFFFFFFFFFFF AND PUSH32 0x5B690EC4A06FE979403046EAEEA5B3CE38524683C3001F662C8B5A829632F7DF PUSH1 0x40 MLOAD PUSH1 0x40 MLOAD DUP1 SWAP2 SUB SWAP1 LOG2 PUSH1 0x0 PUSH20 0xFFFFFFFFFFFFFFFFFFFFFFFFFFFFFFFFFFFFFFFF AND PUSH1 0x3 PUSH1 0x0 SWAP1 SLOAD SWAP1 PUSH2 0x100 EXP SWAP1 DIV PUSH20 0xFFFFFFFFFFFFFFFFFFFFFFFFFFFFFFFFFFFFFFFF AND PUSH20 0xFFFFFFFFFFFFFFFFFFFFFFFFFFFFFFFFFFFFFFFF AND EQ PUSH2 0x1EEB JUMPI PUSH1 0x3 PUSH1 0x0 SWAP1 SLOAD SWAP1 PUSH2 0x100 EXP SWAP1 DIV PUSH20 0xFFFFFFFFFFFFFFFFFFFFFFFFFFFFFFFFFFFFFFFF AND PUSH20 0xFFFFFFFFFFFFFFFFFFFFFFFFFFFFFFFFFFFFFFFF AND PUSH32 0x3C87360DCE5C6F26147DAF6A9E168E80A4C7199E9AA7CBD7A874094804C361B4 PUSH1 0x40 MLOAD PUSH1 0x40 MLOAD DUP1 SWAP2 SUB SWAP1 LOG2 JUMPDEST POP POP POP POP POP POP POP POP POP JUMP JUMPDEST PUSH1 0x0 PUSH1 0x6 PUSH1 0x0 PUSH32 0x0 PUSH20 0xFFFFFFFFFFFFFFFFFFFFFFFFFFFFFFFFFFFFFFFF AND PUSH20 0xFFFFFFFFFFFFFFFFFFFFFFFFFFFFFFFFFFFFFFFF AND DUP2 MSTORE PUSH1 0x20 ADD SWAP1 DUP2 MSTORE PUSH1 0x20 ADD PUSH1 0x0 KECCAK256 SLOAD PUSH1 0x6 PUSH1 0x0 PUSH32 0x0 PUSH20 0xFFFFFFFFFFFFFFFFFFFFFFFFFFFFFFFFFFFFFFFF AND PUSH20 0xFFFFFFFFFFFFFFFFFFFFFFFFFFFFFFFFFFFFFFFF AND DUP2 MSTORE PUSH1 0x20 ADD SWAP1 DUP2 MSTORE PUSH1 0x20 ADD PUSH1 0x0 KECCAK256 SLOAD EQ DUP1 PUSH2 0x2081 JUMPI POP PUSH1 0x6 PUSH1 0x0 PUSH32 0x0 PUSH20 0xFFFFFFFFFFFFFFFFFFFFFFFFFFFFFFFFFFFFFFFF AND PUSH20 0xFFFFFFFFFFFFFFFFFFFFFFFFFFFFFFFFFFFFFFFF AND DUP2 MSTORE PUSH1 0x20 ADD SWAP1 DUP2 MSTORE PUSH1 0x20 ADD PUSH1 0x0 KECCAK256 SLOAD PUSH1 0x6 PUSH1 0x0 PUSH32 0x0 PUSH20 0xFFFFFFFFFFFFFFFFFFFFFFFFFFFFFFFFFFFFFFFF AND PUSH20 0xFFFFFFFFFFFFFFFFFFFFFFFFFFFFFFFFFFFFFFFF AND DUP2 MSTORE PUSH1 0x20 ADD SWAP1 DUP2 MSTORE PUSH1 0x20 ADD PUSH1 0x0 KECCAK256 SLOAD EQ JUMPDEST DUP1 PUSH2 0x2149 JUMPI POP PUSH1 0x6 PUSH1 0x0 PUSH32 0x0 PUSH20 0xFFFFFFFFFFFFFFFFFFFFFFFFFFFFFFFFFFFFFFFF AND PUSH20 0xFFFFFFFFFFFFFFFFFFFFFFFFFFFFFFFFFFFFFFFF AND DUP2 MSTORE PUSH1 0x20 ADD SWAP1 DUP2 MSTORE PUSH1 0x20 ADD PUSH1 0x0 KECCAK256 SLOAD PUSH1 0x6 PUSH1 0x0 PUSH32 0x0 PUSH20 0xFFFFFFFFFFFFFFFFFFFFFFFFFFFFFFFFFFFFFFFF AND PUSH20 0xFFFFFFFFFFFFFFFFFFFFFFFFFFFFFFFFFFFFFFFF AND DUP2 MSTORE PUSH1 0x20 ADD SWAP1 DUP2 MSTORE PUSH1 0x20 ADD PUSH1 0x0 KECCAK256 SLOAD EQ JUMPDEST ISZERO PUSH2 0x2157 JUMPI PUSH1 0x1 SWAP1 POP PUSH2 0x2158 JUMP JUMPDEST JUMPDEST SWAP1 JUMP JUMPDEST PUSH1 0x0 PUSH1 0x3 PUSH8 0xFFFFFFFFFFFFFFFF DUP2 GT ISZERO PUSH2 0x2178 JUMPI PUSH2 0x2177 PUSH2 0x3893 JUMP JUMPDEST JUMPDEST PUSH1 0x40 MLOAD SWAP1 DUP1 DUP3 MSTORE DUP1 PUSH1 0x20 MUL PUSH1 0x20 ADD DUP3 ADD PUSH1 0x40 MSTORE DUP1 ISZERO PUSH2 0x21A6 JUMPI DUP2 PUSH1 0x20 ADD PUSH1 0x20 DUP3 MUL DUP1 CALLDATASIZE DUP4 CALLDATACOPY DUP1 DUP3 ADD SWAP2 POP POP SWAP1 POP JUMPDEST POP SWAP1 POP DUP4 DUP2 PUSH1 0x0 DUP2 MLOAD DUP2 LT PUSH2 0x21BE JUMPI PUSH2 0x21BD PUSH2 0x3864 JUMP JUMPDEST JUMPDEST PUSH1 0x20 MUL PUSH1 0x20 ADD ADD DUP2 DUP2 MSTORE POP POP DUP3 DUP2 PUSH1 0x1 DUP2 MLOAD DUP2 LT PUSH2 0x21DF JUMPI PUSH2 0x21DE PUSH2 0x3864 JUMP JUMPDEST JUMPDEST PUSH1 0x20 MUL PUSH1 0x20 ADD ADD DUP2 DUP2 MSTORE POP POP DUP2 DUP2 PUSH1 0x2 DUP2 MLOAD DUP2 LT PUSH2 0x2200 JUMPI PUSH2 0x21FF PUSH2 0x3864 JUMP JUMPDEST JUMPDEST PUSH1 0x20 MUL PUSH1 0x20 ADD ADD DUP2 DUP2 MSTORE POP POP PUSH1 0x0 PUSH2 0x2217 DUP3 PUSH2 0x2A07 JUMP JUMPDEST SWAP1 POP DUP1 PUSH1 0x2 DUP2 MLOAD DUP2 LT PUSH2 0x222D JUMPI PUSH2 0x222C PUSH2 0x3864 JUMP JUMPDEST JUMPDEST PUSH1 0x20 MUL PUSH1 0x20 ADD ADD MLOAD PUSH1 0x1 DUP2 SWAP1 SSTORE POP DUP4 DUP6 EQ DUP1 ISZERO PUSH2 0x2249 JUMPI POP DUP3 DUP6 EQ JUMPDEST ISZERO PUSH2 0x24FF JUMPI DUP6 PUSH1 0x1 DUP2 MLOAD DUP2 LT PUSH2 0x2262 JUMPI PUSH2 0x2261 PUSH2 0x3864 JUMP JUMPDEST JUMPDEST PUSH1 0x20 MUL PUSH1 0x20 ADD ADD MLOAD DUP6 PUSH2 0x2275 SWAP2 SWAP1 PUSH2 0x33C3 JUMP JUMPDEST SWAP5 POP DUP6 PUSH1 0x2 DUP2 MLOAD DUP2 LT PUSH2 0x228B JUMPI PUSH2 0x228A PUSH2 0x3864 JUMP JUMPDEST JUMPDEST PUSH1 0x20 MUL PUSH1 0x20 ADD ADD MLOAD DUP5 PUSH2 0x229E SWAP2 SWAP1 PUSH2 0x33C3 JUMP JUMPDEST SWAP4 POP DUP6 PUSH1 0x3 DUP2 MLOAD DUP2 LT PUSH2 0x22B4 JUMPI PUSH2 0x22B3 PUSH2 0x3864 JUMP JUMPDEST JUMPDEST PUSH1 0x20 MUL PUSH1 0x20 ADD ADD MLOAD DUP4 PUSH2 0x22C7 SWAP2 SWAP1 PUSH2 0x33C3 JUMP JUMPDEST SWAP3 POP PUSH1 0x0 PUSH1 0x3 PUSH8 0xFFFFFFFFFFFFFFFF DUP2 GT ISZERO PUSH2 0x22E6 JUMPI PUSH2 0x22E5 PUSH2 0x3893 JUMP JUMPDEST JUMPDEST PUSH1 0x40 MLOAD SWAP1 DUP1 DUP3 MSTORE DUP1 PUSH1 0x20 MUL PUSH1 0x20 ADD DUP3 ADD PUSH1 0x40 MSTORE DUP1 ISZERO PUSH2 0x2314 JUMPI DUP2 PUSH1 0x20 ADD PUSH1 0x20 DUP3 MUL DUP1 CALLDATASIZE DUP4 CALLDATACOPY DUP1 DUP3 ADD SWAP2 POP POP SWAP1 POP JUMPDEST POP SWAP1 POP DUP6 DUP2 PUSH1 0x0 DUP2 MLOAD DUP2 LT PUSH2 0x232C JUMPI PUSH2 0x232B PUSH2 0x3864 JUMP JUMPDEST JUMPDEST PUSH1 0x20 MUL PUSH1 0x20 ADD ADD DUP2 DUP2 MSTORE POP POP DUP5 DUP2 PUSH1 0x1 DUP2 MLOAD DUP2 LT PUSH2 0x234D JUMPI PUSH2 0x234C PUSH2 0x3864 JUMP JUMPDEST JUMPDEST PUSH1 0x20 MUL PUSH1 0x20 ADD ADD DUP2 DUP2 MSTORE POP POP DUP4 DUP2 PUSH1 0x2 DUP2 MLOAD DUP2 LT PUSH2 0x236E JUMPI PUSH2 0x236D PUSH2 0x3864 JUMP JUMPDEST JUMPDEST PUSH1 0x20 MUL PUSH1 0x20 ADD ADD DUP2 DUP2 MSTORE POP POP PUSH1 0x0 PUSH2 0x2385 DUP3 PUSH2 0x2A07 JUMP JUMPDEST SWAP1 POP DUP7 DUP2 PUSH1 0x2 DUP2 MLOAD DUP2 LT PUSH2 0x239C JUMPI PUSH2 0x239B PUSH2 0x3864 JUMP JUMPDEST JUMPDEST PUSH1 0x20 MUL PUSH1 0x20 ADD ADD MLOAD EQ ISZERO PUSH2 0x2410 JUMPI PUSH32 0x0 PUSH1 0x3 PUSH1 0x0 PUSH2 0x100 EXP DUP2 SLOAD DUP2 PUSH20 0xFFFFFFFFFFFFFFFFFFFFFFFFFFFFFFFFFFFFFFFF MUL NOT AND SWAP1 DUP4 PUSH20 0xFFFFFFFFFFFFFFFFFFFFFFFFFFFFFFFFFFFFFFFF AND MUL OR SWAP1 SSTORE POP PUSH2 0x24FC JUMP JUMPDEST DUP6 DUP2 PUSH1 0x2 DUP2 MLOAD DUP2 LT PUSH2 0x2425 JUMPI PUSH2 0x2424 PUSH2 0x3864 JUMP JUMPDEST JUMPDEST PUSH1 0x20 MUL PUSH1 0x20 ADD ADD MLOAD EQ ISZERO PUSH2 0x2499 JUMPI PUSH32 0x0 PUSH1 0x3 PUSH1 0x0 PUSH2 0x100 EXP DUP2 SLOAD DUP2 PUSH20 0xFFFFFFFFFFFFFFFFFFFFFFFFFFFFFFFFFFFFFFFF MUL NOT AND SWAP1 DUP4 PUSH20 0xFFFFFFFFFFFFFFFFFFFFFFFFFFFFFFFFFFFFFFFF AND MUL OR SWAP1 SSTORE POP PUSH2 0x24FB JUMP JUMPDEST PUSH32 0x0 PUSH1 0x3 PUSH1 0x0 PUSH2 0x100 EXP DUP2 SLOAD DUP2 PUSH20 0xFFFFFFFFFFFFFFFFFFFFFFFFFFFFFFFFFFFFFFFF MUL NOT AND SWAP1 DUP4 PUSH20 0xFFFFFFFFFFFFFFFFFFFFFFFFFFFFFFFFFFFFFFFF AND MUL OR SWAP1 SSTORE POP JUMPDEST JUMPDEST POP POP JUMPDEST DUP5 DUP2 PUSH1 0x2 DUP2 MLOAD DUP2 LT PUSH2 0x2514 JUMPI PUSH2 0x2513 PUSH2 0x3864 JUMP JUMPDEST JUMPDEST PUSH1 0x20 MUL PUSH1 0x20 ADD ADD MLOAD EQ DUP1 ISZERO PUSH2 0x2543 JUMPI POP DUP4 DUP2 PUSH1 0x2 DUP2 MLOAD DUP2 LT PUSH2 0x2539 JUMPI PUSH2 0x2538 PUSH2 0x3864 JUMP JUMPDEST JUMPDEST PUSH1 0x20 MUL PUSH1 0x20 ADD ADD MLOAD EQ JUMPDEST ISZERO PUSH2 0x266B JUMPI DUP6 PUSH1 0x1 DUP2 MLOAD DUP2 LT PUSH2 0x255C JUMPI PUSH2 0x255B PUSH2 0x3864 JUMP JUMPDEST JUMPDEST PUSH1 0x20 MUL PUSH1 0x20 ADD ADD MLOAD DUP6 PUSH2 0x256F SWAP2 SWAP1 PUSH2 0x33C3 JUMP JUMPDEST SWAP5 POP DUP6 PUSH1 0x2 DUP2 MLOAD DUP2 LT PUSH2 0x2585 JUMPI PUSH2 0x2584 PUSH2 0x3864 JUMP JUMPDEST JUMPDEST PUSH1 0x20 MUL PUSH1 0x20 ADD ADD MLOAD DUP5 PUSH2 0x2598 SWAP2 SWAP1 PUSH2 0x33C3 JUMP JUMPDEST SWAP4 POP DUP4 DUP6 GT ISZERO PUSH2 0x2608 JUMPI PUSH32 0x0 PUSH1 0x3 PUSH1 0x0 PUSH2 0x100 EXP DUP2 SLOAD DUP2 PUSH20 0xFFFFFFFFFFFFFFFFFFFFFFFFFFFFFFFFFFFFFFFF MUL NOT AND SWAP1 DUP4 PUSH20 0xFFFFFFFFFFFFFFFFFFFFFFFFFFFFFFFFFFFFFFFF AND MUL OR SWAP1 SSTORE POP PUSH2 0x266A JUMP JUMPDEST PUSH32 0x0 PUSH1 0x3 PUSH1 0x0 PUSH2 0x100 EXP DUP2 SLOAD DUP2 PUSH20 0xFFFFFFFFFFFFFFFFFFFFFFFFFFFFFFFFFFFFFFFF MUL NOT AND SWAP1 DUP4 PUSH20 0xFFFFFFFFFFFFFFFFFFFFFFFFFFFFFFFFFFFFFFFF AND MUL OR SWAP1 SSTORE POP JUMPDEST JUMPDEST DUP5 DUP2 PUSH1 0x2 DUP2 MLOAD DUP2 LT PUSH2 0x2680 JUMPI PUSH2 0x267F PUSH2 0x3864 JUMP JUMPDEST JUMPDEST PUSH1 0x20 MUL PUSH1 0x20 ADD ADD MLOAD EQ DUP1 ISZERO PUSH2 0x26AF JUMPI POP DUP3 DUP2 PUSH1 0x2 DUP2 MLOAD DUP2 LT PUSH2 0x26A5 JUMPI PUSH2 0x26A4 PUSH2 0x3864 JUMP JUMPDEST JUMPDEST PUSH1 0x20 MUL PUSH1 0x20 ADD ADD MLOAD EQ JUMPDEST ISZERO PUSH2 0x27D7 JUMPI DUP6 PUSH1 0x1 DUP2 MLOAD DUP2 LT PUSH2 0x26C8 JUMPI PUSH2 0x26C7 PUSH2 0x3864 JUMP JUMPDEST JUMPDEST PUSH1 0x20 MUL PUSH1 0x20 ADD ADD MLOAD DUP6 PUSH2 0x26DB SWAP2 SWAP1 PUSH2 0x33C3 JUMP JUMPDEST SWAP5 POP DUP6 PUSH1 0x2 DUP2 MLOAD DUP2 LT PUSH2 0x26F1 JUMPI PUSH2 0x26F0 PUSH2 0x3864 JUMP JUMPDEST JUMPDEST PUSH1 0x20 MUL PUSH1 0x20 ADD ADD MLOAD DUP4 PUSH2 0x2704 SWAP2 SWAP1 PUSH2 0x33C3 JUMP JUMPDEST SWAP3 POP DUP3 DUP6 GT ISZERO PUSH2 0x2774 JUMPI PUSH32 0x0 PUSH1 0x3 PUSH1 0x0 PUSH2 0x100 EXP DUP2 SLOAD DUP2 PUSH20 0xFFFFFFFFFFFFFFFFFFFFFFFFFFFFFFFFFFFFFFFF MUL NOT AND SWAP1 DUP4 PUSH20 0xFFFFFFFFFFFFFFFFFFFFFFFFFFFFFFFFFFFFFFFF AND MUL OR SWAP1 SSTORE POP PUSH2 0x27D6 JUMP JUMPDEST PUSH32 0x0 PUSH1 0x3 PUSH1 0x0 PUSH2 0x100 EXP DUP2 SLOAD DUP2 PUSH20 0xFFFFFFFFFFFFFFFFFFFFFFFFFFFFFFFFFFFFFFFF MUL NOT AND SWAP1 DUP4 PUSH20 0xFFFFFFFFFFFFFFFFFFFFFFFFFFFFFFFFFFFFFFFF AND MUL OR SWAP1 SSTORE POP JUMPDEST JUMPDEST DUP4 DUP2 PUSH1 0x2 DUP2 MLOAD DUP2 LT PUSH2 0x27EC JUMPI PUSH2 0x27EB PUSH2 0x3864 JUMP JUMPDEST JUMPDEST PUSH1 0x20 MUL PUSH1 0x20 ADD ADD MLOAD EQ DUP1 ISZERO PUSH2 0x281B JUMPI POP DUP3 DUP2 PUSH1 0x2 DUP2 MLOAD DUP2 LT PUSH2 0x2811 JUMPI PUSH2 0x2810 PUSH2 0x3864 JUMP JUMPDEST JUMPDEST PUSH1 0x20 MUL PUSH1 0x20 ADD ADD MLOAD EQ JUMPDEST ISZERO PUSH2 0x2943 JUMPI DUP6 PUSH1 0x1 DUP2 MLOAD DUP2 LT PUSH2 0x2834 JUMPI PUSH2 0x2833 PUSH2 0x3864 JUMP JUMPDEST JUMPDEST PUSH1 0x20 MUL PUSH1 0x20 ADD ADD MLOAD DUP5 PUSH2 0x2847 SWAP2 SWAP1 PUSH2 0x33C3 JUMP JUMPDEST SWAP4 POP DUP6 PUSH1 0x2 DUP2 MLOAD DUP2 LT PUSH2 0x285D JUMPI PUSH2 0x285C PUSH2 0x3864 JUMP JUMPDEST JUMPDEST PUSH1 0x20 MUL PUSH1 0x20 ADD ADD MLOAD DUP4 PUSH2 0x2870 SWAP2 SWAP1 PUSH2 0x33C3 JUMP JUMPDEST SWAP3 POP DUP3 DUP5 GT ISZERO PUSH2 0x28E0 JUMPI PUSH32 0x0 PUSH1 0x3 PUSH1 0x0 PUSH2 0x100 EXP DUP2 SLOAD DUP2 PUSH20 0xFFFFFFFFFFFFFFFFFFFFFFFFFFFFFFFFFFFFFFFF MUL NOT AND SWAP1 DUP4 PUSH20 0xFFFFFFFFFFFFFFFFFFFFFFFFFFFFFFFFFFFFFFFF AND MUL OR SWAP1 SSTORE POP PUSH2 0x2942 JUMP JUMPDEST PUSH32 0x0 PUSH1 0x3 PUSH1 0x0 PUSH2 0x100 EXP DUP2 SLOAD DUP2 PUSH20 0xFFFFFFFFFFFFFFFFFFFFFFFFFFFFFFFFFFFFFFFF MUL NOT AND SWAP1 DUP4 PUSH20 0xFFFFFFFFFFFFFFFFFFFFFFFFFFFFFFFFFFFFFFFF AND MUL OR SWAP1 SSTORE POP JUMPDEST JUMPDEST PUSH1 0x0 PUSH20 0xFFFFFFFFFFFFFFFFFFFFFFFFFFFFFFFFFFFFFFFF AND PUSH1 0x3 PUSH1 0x0 SWAP1 SLOAD SWAP1 PUSH2 0x100 EXP SWAP1 DIV PUSH20 0xFFFFFFFFFFFFFFFFFFFFFFFFFFFFFFFFFFFFFFFF AND PUSH20 0xFFFFFFFFFFFFFFFFFFFFFFFFFFFFFFFFFFFFFFFF AND EQ PUSH2 0x29FF JUMPI PUSH1 0x3 PUSH1 0x0 SWAP1 SLOAD SWAP1 PUSH2 0x100 EXP SWAP1 DIV PUSH20 0xFFFFFFFFFFFFFFFFFFFFFFFFFFFFFFFFFFFFFFFF AND PUSH20 0xFFFFFFFFFFFFFFFFFFFFFFFFFFFFFFFFFFFFFFFF AND PUSH32 0x3C87360DCE5C6F26147DAF6A9E168E80A4C7199E9AA7CBD7A874094804C361B4 PUSH1 0x40 MLOAD PUSH1 0x40 MLOAD DUP1 SWAP2 SUB SWAP1 LOG2 JUMPDEST POP POP POP POP POP POP JUMP JUMPDEST PUSH1 0x60 PUSH2 0x2A22 DUP3 PUSH1 0x0 PUSH1 0x1 DUP6 MLOAD PUSH2 0x2A1D SWAP2 SWAP1 PUSH2 0x3571 JUMP JUMPDEST PUSH2 0x2A2A JUMP JUMPDEST DUP2 SWAP1 POP SWAP2 SWAP1 POP JUMP JUMPDEST PUSH1 0x0 DUP3 SWAP1 POP PUSH1 0x0 DUP3 SWAP1 POP DUP1 DUP3 EQ ISZERO PUSH2 0x2A43 JUMPI POP POP PUSH2 0x2BC1 JUMP JUMPDEST PUSH1 0x0 DUP6 PUSH1 0x2 DUP7 DUP7 PUSH2 0x2A54 SWAP2 SWAP1 PUSH2 0x34DD JUMP JUMPDEST PUSH2 0x2A5E SWAP2 SWAP1 PUSH2 0x3419 JUMP JUMPDEST DUP7 PUSH2 0x2A69 SWAP2 SWAP1 PUSH2 0x332F JUMP JUMPDEST DUP2 MLOAD DUP2 LT PUSH2 0x2A7A JUMPI PUSH2 0x2A79 PUSH2 0x3864 JUMP JUMPDEST JUMPDEST PUSH1 0x20 MUL PUSH1 0x20 ADD ADD MLOAD SWAP1 POP JUMPDEST DUP2 DUP4 SGT PUSH2 0x2B95 JUMPI JUMPDEST DUP1 DUP7 DUP5 DUP2 MLOAD DUP2 LT PUSH2 0x2AA1 JUMPI PUSH2 0x2AA0 PUSH2 0x3864 JUMP JUMPDEST JUMPDEST PUSH1 0x20 MUL PUSH1 0x20 ADD ADD MLOAD LT ISZERO PUSH2 0x2AC2 JUMPI DUP3 DUP1 PUSH2 0x2ABA SWAP1 PUSH2 0x3714 JUMP JUMPDEST SWAP4 POP POP PUSH2 0x2A8D JUMP JUMPDEST JUMPDEST DUP6 DUP3 DUP2 MLOAD DUP2 LT PUSH2 0x2AD6 JUMPI PUSH2 0x2AD5 PUSH2 0x3864 JUMP JUMPDEST JUMPDEST PUSH1 0x20 MUL PUSH1 0x20 ADD ADD MLOAD DUP2 LT ISZERO PUSH2 0x2AF8 JUMPI DUP2 DUP1 PUSH2 0x2AF0 SWAP1 PUSH2 0x369A JUMP JUMPDEST SWAP3 POP POP PUSH2 0x2AC3 JUMP JUMPDEST DUP2 DUP4 SGT PUSH2 0x2B90 JUMPI DUP6 DUP3 DUP2 MLOAD DUP2 LT PUSH2 0x2B12 JUMPI PUSH2 0x2B11 PUSH2 0x3864 JUMP JUMPDEST JUMPDEST PUSH1 0x20 MUL PUSH1 0x20 ADD ADD MLOAD DUP7 DUP5 DUP2 MLOAD DUP2 LT PUSH2 0x2B2D JUMPI PUSH2 0x2B2C PUSH2 0x3864 JUMP JUMPDEST JUMPDEST PUSH1 0x20 MUL PUSH1 0x20 ADD ADD MLOAD DUP8 DUP6 DUP2 MLOAD DUP2 LT PUSH2 0x2B48 JUMPI PUSH2 0x2B47 PUSH2 0x3864 JUMP JUMPDEST JUMPDEST PUSH1 0x20 MUL PUSH1 0x20 ADD ADD DUP9 DUP6 DUP2 MLOAD DUP2 LT PUSH2 0x2B62 JUMPI PUSH2 0x2B61 PUSH2 0x3864 JUMP JUMPDEST JUMPDEST PUSH1 0x20 MUL PUSH1 0x20 ADD ADD DUP3 DUP2 MSTORE POP DUP3 DUP2 MSTORE POP POP POP DUP3 DUP1 PUSH2 0x2B7E SWAP1 PUSH2 0x3714 JUMP JUMPDEST SWAP4 POP POP DUP2 DUP1 PUSH2 0x2B8C SWAP1 PUSH2 0x369A JUMP JUMPDEST SWAP3 POP POP JUMPDEST PUSH2 0x2A85 JUMP JUMPDEST DUP2 DUP6 SLT ISZERO PUSH2 0x2BA9 JUMPI PUSH2 0x2BA8 DUP7 DUP7 DUP5 PUSH2 0x2A2A JUMP JUMPDEST JUMPDEST DUP4 DUP4 SLT ISZERO PUSH2 0x2BBD JUMPI PUSH2 0x2BBC DUP7 DUP5 DUP7 PUSH2 0x2A2A JUMP JUMPDEST JUMPDEST POP POP POP JUMPDEST POP POP POP JUMP JUMPDEST DUP3 DUP1 SLOAD DUP3 DUP3 SSTORE SWAP1 PUSH1 0x0 MSTORE PUSH1 0x20 PUSH1 0x0 KECCAK256 SWAP1 DUP2 ADD SWAP3 DUP3 ISZERO PUSH2 0x2C3F JUMPI SWAP2 PUSH1 0x20 MUL DUP3 ADD JUMPDEST DUP3 DUP2 GT ISZERO PUSH2 0x2C3E JUMPI DUP3 MLOAD DUP3 PUSH1 0x0 PUSH2 0x100 EXP DUP2 SLOAD DUP2 PUSH20 0xFFFFFFFFFFFFFFFFFFFFFFFFFFFFFFFFFFFFFFFF MUL NOT AND SWAP1 DUP4 PUSH20 0xFFFFFFFFFFFFFFFFFFFFFFFFFFFFFFFFFFFFFFFF AND MUL OR SWAP1 SSTORE POP SWAP2 PUSH1 0x20 ADD SWAP2 SWAP1 PUSH1 0x1 ADD SWAP1 PUSH2 0x2BE6 JUMP JUMPDEST JUMPDEST POP SWAP1 POP PUSH2 0x2C4C SWAP2 SWAP1 PUSH2 0x2C50 JUMP JUMPDEST POP SWAP1 JUMP JUMPDEST JUMPDEST DUP1 DUP3 GT ISZERO PUSH2 0x2C69 JUMPI PUSH1 0x0 DUP2 PUSH1 0x0 SWAP1 SSTORE POP PUSH1 0x1 ADD PUSH2 0x2C51 JUMP JUMPDEST POP SWAP1 JUMP JUMPDEST PUSH1 0x0 PUSH2 0x2C80 PUSH2 0x2C7B DUP5 PUSH2 0x3272 JUMP JUMPDEST PUSH2 0x324D JUMP JUMPDEST SWAP1 POP DUP1 DUP4 DUP3 MSTORE PUSH1 0x20 DUP3 ADD SWAP1 POP DUP3 DUP6 PUSH1 0x20 DUP7 MUL DUP3 ADD GT ISZERO PUSH2 0x2CA3 JUMPI PUSH2 0x2CA2 PUSH2 0x38CC JUMP JUMPDEST JUMPDEST PUSH1 0x0 JUMPDEST DUP6 DUP2 LT ISZERO PUSH2 0x2CD3 JUMPI DUP2 PUSH2 0x2CB9 DUP9 DUP3 PUSH2 0x2DE6 JUMP JUMPDEST DUP5 MSTORE PUSH1 0x20 DUP5 ADD SWAP4 POP PUSH1 0x20 DUP4 ADD SWAP3 POP POP PUSH1 0x1 DUP2 ADD SWAP1 POP PUSH2 0x2CA6 JUMP JUMPDEST POP POP POP SWAP4 SWAP3 POP POP POP JUMP JUMPDEST PUSH1 0x0 PUSH2 0x2CF0 PUSH2 0x2CEB DUP5 PUSH2 0x329E JUMP JUMPDEST PUSH2 0x324D JUMP JUMPDEST SWAP1 POP DUP3 DUP2 MSTORE PUSH1 0x20 DUP2 ADD DUP5 DUP5 DUP5 ADD GT ISZERO PUSH2 0x2D0C JUMPI PUSH2 0x2D0B PUSH2 0x38D1 JUMP JUMPDEST JUMPDEST PUSH2 0x2D17 DUP5 DUP3 DUP6 PUSH2 0x3658 JUMP JUMPDEST POP SWAP4 SWAP3 POP POP POP JUMP JUMPDEST PUSH1 0x0 DUP2 CALLDATALOAD SWAP1 POP PUSH2 0x2D2E DUP2 PUSH2 0x3908 JUMP JUMPDEST SWAP3 SWAP2 POP POP JUMP JUMPDEST PUSH1 0x0 DUP3 PUSH1 0x1F DUP4 ADD SLT PUSH2 0x2D49 JUMPI PUSH2 0x2D48 PUSH2 0x38C7 JUMP JUMPDEST JUMPDEST DUP2 CALLDATALOAD PUSH2 0x2D59 DUP5 DUP3 PUSH1 0x20 DUP7 ADD PUSH2 0x2C6D JUMP JUMPDEST SWAP2 POP POP SWAP3 SWAP2 POP POP JUMP JUMPDEST PUSH1 0x0 DUP1 DUP4 PUSH1 0x1F DUP5 ADD SLT PUSH2 0x2D78 JUMPI PUSH2 0x2D77 PUSH2 0x38C7 JUMP JUMPDEST JUMPDEST DUP3 CALLDATALOAD SWAP1 POP PUSH8 0xFFFFFFFFFFFFFFFF DUP2 GT ISZERO PUSH2 0x2D95 JUMPI PUSH2 0x2D94 PUSH2 0x38C2 JUMP JUMPDEST JUMPDEST PUSH1 0x20 DUP4 ADD SWAP2 POP DUP4 PUSH1 0x1 DUP3 MUL DUP4 ADD GT ISZERO PUSH2 0x2DB1 JUMPI PUSH2 0x2DB0 PUSH2 0x38CC JUMP JUMPDEST JUMPDEST SWAP3 POP SWAP3 SWAP1 POP JUMP JUMPDEST PUSH1 0x0 DUP3 PUSH1 0x1F DUP4 ADD SLT PUSH2 0x2DCD JUMPI PUSH2 0x2DCC PUSH2 0x38C7 JUMP JUMPDEST JUMPDEST DUP2 CALLDATALOAD PUSH2 0x2DDD DUP5 DUP3 PUSH1 0x20 DUP7 ADD PUSH2 0x2CDD JUMP JUMPDEST SWAP2 POP POP SWAP3 SWAP2 POP POP JUMP JUMPDEST PUSH1 0x0 DUP2 CALLDATALOAD SWAP1 POP PUSH2 0x2DF5 DUP2 PUSH2 0x391F JUMP JUMPDEST SWAP3 SWAP2 POP POP JUMP JUMPDEST PUSH1 0x0 DUP2 MLOAD SWAP1 POP PUSH2 0x2E0A DUP2 PUSH2 0x391F JUMP JUMPDEST SWAP3 SWAP2 POP POP JUMP JUMPDEST PUSH1 0x0 PUSH1 0x20 DUP3 DUP5 SUB SLT ISZERO PUSH2 0x2E26 JUMPI PUSH2 0x2E25 PUSH2 0x38DB JUMP JUMPDEST JUMPDEST PUSH1 0x0 PUSH2 0x2E34 DUP5 DUP3 DUP6 ADD PUSH2 0x2D1F JUMP JUMPDEST SWAP2 POP POP SWAP3 SWAP2 POP POP JUMP JUMPDEST PUSH1 0x0 DUP1 PUSH1 0x20 DUP4 DUP6 SUB SLT ISZERO PUSH2 0x2E54 JUMPI PUSH2 0x2E53 PUSH2 0x38DB JUMP JUMPDEST JUMPDEST PUSH1 0x0 DUP4 ADD CALLDATALOAD PUSH8 0xFFFFFFFFFFFFFFFF DUP2 GT ISZERO PUSH2 0x2E72 JUMPI PUSH2 0x2E71 PUSH2 0x38D6 JUMP JUMPDEST JUMPDEST PUSH2 0x2E7E DUP6 DUP3 DUP7 ADD PUSH2 0x2D62 JUMP JUMPDEST SWAP3 POP SWAP3 POP POP SWAP3 POP SWAP3 SWAP1 POP JUMP JUMPDEST PUSH1 0x0 PUSH1 0x20 DUP3 DUP5 SUB SLT ISZERO PUSH2 0x2EA0 JUMPI PUSH2 0x2E9F PUSH2 0x38DB JUMP JUMPDEST JUMPDEST PUSH1 0x0 DUP3 ADD CALLDATALOAD PUSH8 0xFFFFFFFFFFFFFFFF DUP2 GT ISZERO PUSH2 0x2EBE JUMPI PUSH2 0x2EBD PUSH2 0x38D6 JUMP JUMPDEST JUMPDEST PUSH2 0x2ECA DUP5 DUP3 DUP6 ADD PUSH2 0x2DB8 JUMP JUMPDEST SWAP2 POP POP SWAP3 SWAP2 POP POP JUMP JUMPDEST PUSH1 0x0 PUSH1 0x20 DUP3 DUP5 SUB SLT ISZERO PUSH2 0x2EE9 JUMPI PUSH2 0x2EE8 PUSH2 0x38DB JUMP JUMPDEST JUMPDEST PUSH1 0x0 PUSH2 0x2EF7 DUP5 DUP3 DUP6 ADD PUSH2 0x2DE6 JUMP JUMPDEST SWAP2 POP POP SWAP3 SWAP2 POP POP JUMP JUMPDEST PUSH1 0x0 PUSH1 0x20 DUP3 DUP5 SUB SLT ISZERO PUSH2 0x2F16 JUMPI PUSH2 0x2F15 PUSH2 0x38DB JUMP JUMPDEST JUMPDEST PUSH1 0x0 PUSH2 0x2F24 DUP5 DUP3 DUP6 ADD PUSH2 0x2DFB JUMP JUMPDEST SWAP2 POP POP SWAP3 SWAP2 POP POP JUMP JUMPDEST PUSH1 0x0 DUP1 PUSH1 0x40 DUP4 DUP6 SUB SLT ISZERO PUSH2 0x2F44 JUMPI PUSH2 0x2F43 PUSH2 0x38DB JUMP JUMPDEST JUMPDEST PUSH1 0x0 PUSH2 0x2F52 DUP6 DUP3 DUP7 ADD PUSH2 0x2DE6 JUMP JUMPDEST SWAP3 POP POP PUSH1 0x20 DUP4 ADD CALLDATALOAD PUSH8 0xFFFFFFFFFFFFFFFF DUP2 GT ISZERO PUSH2 0x2F73 JUMPI PUSH2 0x2F72 PUSH2 0x38D6 JUMP JUMPDEST JUMPDEST PUSH2 0x2F7F DUP6 DUP3 DUP7 ADD PUSH2 0x2D34 JUMP JUMPDEST SWAP2 POP POP SWAP3 POP SWAP3 SWAP1 POP JUMP JUMPDEST PUSH1 0x0 PUSH2 0x2F95 DUP4 DUP4 PUSH2 0x2FA1 JUMP JUMPDEST PUSH1 0x20 DUP4 ADD SWAP1 POP SWAP3 SWAP2 POP POP JUMP JUMPDEST PUSH2 0x2FAA DUP2 PUSH2 0x35A5 JUMP JUMPDEST DUP3 MSTORE POP POP JUMP JUMPDEST PUSH2 0x2FB9 DUP2 PUSH2 0x35A5 JUMP JUMPDEST DUP3 MSTORE POP POP JUMP JUMPDEST PUSH1 0x0 PUSH2 0x2FCA DUP3 PUSH2 0x32DF JUMP JUMPDEST PUSH2 0x2FD4 DUP2 DUP6 PUSH2 0x3302 JUMP JUMPDEST SWAP4 POP PUSH2 0x2FDF DUP4 PUSH2 0x32CF JUMP JUMPDEST DUP1 PUSH1 0x0 JUMPDEST DUP4 DUP2 LT ISZERO PUSH2 0x3010 JUMPI DUP2 MLOAD PUSH2 0x2FF7 DUP9 DUP3 PUSH2 0x2F89 JUMP JUMPDEST SWAP8 POP PUSH2 0x3002 DUP4 PUSH2 0x32F5 JUMP JUMPDEST SWAP3 POP POP PUSH1 0x1 DUP2 ADD SWAP1 POP PUSH2 0x2FE3 JUMP JUMPDEST POP DUP6 SWAP4 POP POP POP POP SWAP3 SWAP2 POP POP JUMP JUMPDEST PUSH2 0x3026 DUP2 PUSH2 0x35B7 JUMP JUMPDEST DUP3 MSTORE POP POP JUMP JUMPDEST PUSH2 0x3035 DUP2 PUSH2 0x35C3 JUMP JUMPDEST DUP3 MSTORE POP POP JUMP JUMPDEST PUSH1 0x0 PUSH2 0x3046 DUP3 PUSH2 0x32EA JUMP JUMPDEST PUSH2 0x3050 DUP2 DUP6 PUSH2 0x3313 JUMP JUMPDEST SWAP4 POP PUSH2 0x3060 DUP2 DUP6 PUSH1 0x20 DUP7 ADD PUSH2 0x3667 JUMP JUMPDEST PUSH2 0x3069 DUP2 PUSH2 0x38E0 JUMP JUMPDEST DUP5 ADD SWAP2 POP POP SWAP3 SWAP2 POP POP JUMP JUMPDEST PUSH2 0x307D DUP2 PUSH2 0x3646 JUMP JUMPDEST DUP3 MSTORE POP POP JUMP JUMPDEST PUSH1 0x0 PUSH2 0x3090 PUSH1 0x0 DUP4 PUSH2 0x3324 JUMP JUMPDEST SWAP2 POP PUSH2 0x309B DUP3 PUSH2 0x38F1 JUMP JUMPDEST PUSH1 0x0 DUP3 ADD SWAP1 POP SWAP2 SWAP1 POP JUMP JUMPDEST PUSH2 0x30AF DUP2 PUSH2 0x35EA JUMP JUMPDEST DUP3 MSTORE POP POP JUMP JUMPDEST PUSH2 0x30BE DUP2 PUSH2 0x3618 JUMP JUMPDEST DUP3 MSTORE POP POP JUMP JUMPDEST PUSH2 0x30CD DUP2 PUSH2 0x3622 JUMP JUMPDEST DUP3 MSTORE POP POP JUMP JUMPDEST PUSH2 0x30DC DUP2 PUSH2 0x3632 JUMP JUMPDEST DUP3 MSTORE POP POP JUMP JUMPDEST PUSH1 0x0 PUSH2 0x30ED DUP3 PUSH2 0x3083 JUMP JUMPDEST SWAP2 POP DUP2 SWAP1 POP SWAP2 SWAP1 POP JUMP JUMPDEST PUSH1 0x0 PUSH1 0x20 DUP3 ADD SWAP1 POP PUSH2 0x310C PUSH1 0x0 DUP4 ADD DUP5 PUSH2 0x2FB0 JUMP JUMPDEST SWAP3 SWAP2 POP POP JUMP JUMPDEST PUSH1 0x0 PUSH1 0x40 DUP3 ADD SWAP1 POP PUSH2 0x3127 PUSH1 0x0 DUP4 ADD DUP6 PUSH2 0x2FB0 JUMP JUMPDEST PUSH2 0x3134 PUSH1 0x20 DUP4 ADD DUP5 PUSH2 0x2FB0 JUMP JUMPDEST SWAP4 SWAP3 POP POP POP JUMP JUMPDEST PUSH1 0x0 PUSH1 0x20 DUP3 ADD SWAP1 POP DUP2 DUP2 SUB PUSH1 0x0 DUP4 ADD MSTORE PUSH2 0x3155 DUP2 DUP5 PUSH2 0x2FBF JUMP JUMPDEST SWAP1 POP SWAP3 SWAP2 POP POP JUMP JUMPDEST PUSH1 0x0 PUSH1 0x40 DUP3 ADD SWAP1 POP PUSH2 0x3172 PUSH1 0x0 DUP4 ADD DUP6 PUSH2 0x301D JUMP JUMPDEST DUP2 DUP2 SUB PUSH1 0x20 DUP4 ADD MSTORE PUSH2 0x3184 DUP2 DUP5 PUSH2 0x303B JUMP JUMPDEST SWAP1 POP SWAP4 SWAP3 POP POP POP JUMP JUMPDEST PUSH1 0x0 PUSH1 0xA0 DUP3 ADD SWAP1 POP PUSH2 0x31A2 PUSH1 0x0 DUP4 ADD DUP9 PUSH2 0x302C JUMP JUMPDEST PUSH2 0x31AF PUSH1 0x20 DUP4 ADD DUP8 PUSH2 0x30D3 JUMP JUMPDEST PUSH2 0x31BC PUSH1 0x40 DUP4 ADD DUP7 PUSH2 0x30A6 JUMP JUMPDEST PUSH2 0x31C9 PUSH1 0x60 DUP4 ADD DUP6 PUSH2 0x30C4 JUMP JUMPDEST PUSH2 0x31D6 PUSH1 0x80 DUP4 ADD DUP5 PUSH2 0x30C4 JUMP JUMPDEST SWAP7 SWAP6 POP POP POP POP POP POP JUMP JUMPDEST PUSH1 0x0 PUSH1 0x20 DUP3 ADD SWAP1 POP PUSH2 0x31F5 PUSH1 0x0 DUP4 ADD DUP5 PUSH2 0x3074 JUMP JUMPDEST SWAP3 SWAP2 POP POP JUMP JUMPDEST PUSH1 0x0 PUSH1 0x20 DUP3 ADD SWAP1 POP PUSH2 0x3210 PUSH1 0x0 DUP4 ADD DUP5 PUSH2 0x30B5 JUMP JUMPDEST SWAP3 SWAP2 POP POP JUMP JUMPDEST PUSH1 0x0 PUSH1 0x60 DUP3 ADD SWAP1 POP PUSH2 0x322B PUSH1 0x0 DUP4 ADD DUP7 PUSH2 0x30B5 JUMP JUMPDEST PUSH2 0x3238 PUSH1 0x20 DUP4 ADD DUP6 PUSH2 0x30B5 JUMP JUMPDEST PUSH2 0x3245 PUSH1 0x40 DUP4 ADD DUP5 PUSH2 0x30B5 JUMP JUMPDEST SWAP5 SWAP4 POP POP POP POP JUMP JUMPDEST PUSH1 0x0 PUSH2 0x3257 PUSH2 0x3268 JUMP JUMPDEST SWAP1 POP PUSH2 0x3263 DUP3 DUP3 PUSH2 0x36E3 JUMP JUMPDEST SWAP2 SWAP1 POP JUMP JUMPDEST PUSH1 0x0 PUSH1 0x40 MLOAD SWAP1 POP SWAP1 JUMP JUMPDEST PUSH1 0x0 PUSH8 0xFFFFFFFFFFFFFFFF DUP3 GT ISZERO PUSH2 0x328D JUMPI PUSH2 0x328C PUSH2 0x3893 JUMP JUMPDEST JUMPDEST PUSH1 0x20 DUP3 MUL SWAP1 POP PUSH1 0x20 DUP2 ADD SWAP1 POP SWAP2 SWAP1 POP JUMP JUMPDEST PUSH1 0x0 PUSH8 0xFFFFFFFFFFFFFFFF DUP3 GT ISZERO PUSH2 0x32B9 JUMPI PUSH2 0x32B8 PUSH2 0x3893 JUMP JUMPDEST JUMPDEST PUSH2 0x32C2 DUP3 PUSH2 0x38E0 JUMP JUMPDEST SWAP1 POP PUSH1 0x20 DUP2 ADD SWAP1 POP SWAP2 SWAP1 POP JUMP JUMPDEST PUSH1 0x0 DUP2 SWAP1 POP PUSH1 0x20 DUP3 ADD SWAP1 POP SWAP2 SWAP1 POP JUMP JUMPDEST PUSH1 0x0 DUP2 MLOAD SWAP1 POP SWAP2 SWAP1 POP JUMP JUMPDEST PUSH1 0x0 DUP2 MLOAD SWAP1 POP SWAP2 SWAP1 POP JUMP JUMPDEST PUSH1 0x0 PUSH1 0x20 DUP3 ADD SWAP1 POP SWAP2 SWAP1 POP JUMP JUMPDEST PUSH1 0x0 DUP3 DUP3 MSTORE PUSH1 0x20 DUP3 ADD SWAP1 POP SWAP3 SWAP2 POP POP JUMP JUMPDEST PUSH1 0x0 DUP3 DUP3 MSTORE PUSH1 0x20 DUP3 ADD SWAP1 POP SWAP3 SWAP2 POP POP JUMP JUMPDEST PUSH1 0x0 DUP2 SWAP1 POP SWAP3 SWAP2 POP POP JUMP JUMPDEST PUSH1 0x0 PUSH2 0x333A DUP3 PUSH2 0x35E0 JUMP JUMPDEST SWAP2 POP PUSH2 0x3345 DUP4 PUSH2 0x35E0 JUMP JUMPDEST SWAP3 POP DUP2 PUSH32 0x7FFFFFFFFFFFFFFFFFFFFFFFFFFFFFFFFFFFFFFFFFFFFFFFFFFFFFFFFFFFFFFF SUB DUP4 SGT PUSH1 0x0 DUP4 SLT ISZERO AND ISZERO PUSH2 0x3380 JUMPI PUSH2 0x337F PUSH2 0x37D7 JUMP JUMPDEST JUMPDEST DUP2 PUSH32 0x8000000000000000000000000000000000000000000000000000000000000000 SUB DUP4 SLT PUSH1 0x0 DUP4 SLT AND ISZERO PUSH2 0x33B8 JUMPI PUSH2 0x33B7 PUSH2 0x37D7 JUMP JUMPDEST JUMPDEST DUP3 DUP3 ADD SWAP1 POP SWAP3 SWAP2 POP POP JUMP JUMPDEST PUSH1 0x0 PUSH2 0x33CE DUP3 PUSH2 0x3618 JUMP JUMPDEST SWAP2 POP PUSH2 0x33D9 DUP4 PUSH2 0x3618 JUMP JUMPDEST SWAP3 POP DUP3 PUSH32 0xFFFFFFFFFFFFFFFFFFFFFFFFFFFFFFFFFFFFFFFFFFFFFFFFFFFFFFFFFFFFFFFF SUB DUP3 GT ISZERO PUSH2 0x340E JUMPI PUSH2 0x340D PUSH2 0x37D7 JUMP JUMPDEST JUMPDEST DUP3 DUP3 ADD SWAP1 POP SWAP3 SWAP2 POP POP JUMP JUMPDEST PUSH1 0x0 PUSH2 0x3424 DUP3 PUSH2 0x35E0 JUMP JUMPDEST SWAP2 POP PUSH2 0x342F DUP4 PUSH2 0x35E0 JUMP JUMPDEST SWAP3 POP DUP3 PUSH2 0x343F JUMPI PUSH2 0x343E PUSH2 0x3806 JUMP JUMPDEST JUMPDEST PUSH1 0x1 PUSH1 0x0 SUB DUP4 EQ PUSH32 0x8000000000000000000000000000000000000000000000000000000000000000 DUP4 EQ AND ISZERO PUSH2 0x3478 JUMPI PUSH2 0x3477 PUSH2 0x37D7 JUMP JUMPDEST JUMPDEST DUP3 DUP3 SDIV SWAP1 POP SWAP3 SWAP2 POP POP JUMP JUMPDEST PUSH1 0x0 PUSH2 0x348E DUP3 PUSH2 0x3618 JUMP JUMPDEST SWAP2 POP PUSH2 0x3499 DUP4 PUSH2 0x3618 JUMP JUMPDEST SWAP3 POP DUP2 PUSH32 0xFFFFFFFFFFFFFFFFFFFFFFFFFFFFFFFFFFFFFFFFFFFFFFFFFFFFFFFFFFFFFFFF DIV DUP4 GT DUP3 ISZERO ISZERO AND ISZERO PUSH2 0x34D2 JUMPI PUSH2 0x34D1 PUSH2 0x37D7 JUMP JUMPDEST JUMPDEST DUP3 DUP3 MUL SWAP1 POP SWAP3 SWAP2 POP POP JUMP JUMPDEST PUSH1 0x0 PUSH2 0x34E8 DUP3 PUSH2 0x35E0 JUMP JUMPDEST SWAP2 POP PUSH2 0x34F3 DUP4 PUSH2 0x35E0 JUMP JUMPDEST SWAP3 POP DUP3 PUSH32 0x8000000000000000000000000000000000000000000000000000000000000000 ADD DUP3 SLT PUSH1 0x0 DUP5 SLT ISZERO AND ISZERO PUSH2 0x352E JUMPI PUSH2 0x352D PUSH2 0x37D7 JUMP JUMPDEST JUMPDEST DUP3 PUSH32 0x7FFFFFFFFFFFFFFFFFFFFFFFFFFFFFFFFFFFFFFFFFFFFFFFFFFFFFFFFFFFFFFF ADD DUP3 SGT PUSH1 0x0 DUP5 SLT AND ISZERO PUSH2 0x3566 JUMPI PUSH2 0x3565 PUSH2 0x37D7 JUMP JUMPDEST JUMPDEST DUP3 DUP3 SUB SWAP1 POP SWAP3 SWAP2 POP POP JUMP JUMPDEST PUSH1 0x0 PUSH2 0x357C DUP3 PUSH2 0x3618 JUMP JUMPDEST SWAP2 POP PUSH2 0x3587 DUP4 PUSH2 0x3618 JUMP JUMPDEST SWAP3 POP DUP3 DUP3 LT ISZERO PUSH2 0x359A JUMPI PUSH2 0x3599 PUSH2 0x37D7 JUMP JUMPDEST JUMPDEST DUP3 DUP3 SUB SWAP1 POP SWAP3 SWAP2 POP POP JUMP JUMPDEST PUSH1 0x0 PUSH2 0x35B0 DUP3 PUSH2 0x35F8 JUMP JUMPDEST SWAP1 POP SWAP2 SWAP1 POP JUMP JUMPDEST PUSH1 0x0 DUP2 ISZERO ISZERO SWAP1 POP SWAP2 SWAP1 POP JUMP JUMPDEST PUSH1 0x0 DUP2 SWAP1 POP SWAP2 SWAP1 POP JUMP JUMPDEST PUSH1 0x0 DUP2 SWAP1 POP PUSH2 0x35DB DUP3 PUSH2 0x38F4 JUMP JUMPDEST SWAP2 SWAP1 POP JUMP JUMPDEST PUSH1 0x0 DUP2 SWAP1 POP SWAP2 SWAP1 POP JUMP JUMPDEST PUSH1 0x0 PUSH2 0xFFFF DUP3 AND SWAP1 POP SWAP2 SWAP1 POP JUMP JUMPDEST PUSH1 0x0 PUSH20 0xFFFFFFFFFFFFFFFFFFFFFFFFFFFFFFFFFFFFFFFF DUP3 AND SWAP1 POP SWAP2 SWAP1 POP JUMP JUMPDEST PUSH1 0x0 DUP2 SWAP1 POP SWAP2 SWAP1 POP JUMP JUMPDEST PUSH1 0x0 PUSH4 0xFFFFFFFF DUP3 AND SWAP1 POP SWAP2 SWAP1 POP JUMP JUMPDEST PUSH1 0x0 PUSH8 0xFFFFFFFFFFFFFFFF DUP3 AND SWAP1 POP SWAP2 SWAP1 POP JUMP JUMPDEST PUSH1 0x0 PUSH2 0x3651 DUP3 PUSH2 0x35CD JUMP JUMPDEST SWAP1 POP SWAP2 SWAP1 POP JUMP JUMPDEST DUP3 DUP2 DUP4 CALLDATACOPY PUSH1 0x0 DUP4 DUP4 ADD MSTORE POP POP POP JUMP JUMPDEST PUSH1 0x0 JUMPDEST DUP4 DUP2 LT ISZERO PUSH2 0x3685 JUMPI DUP1 DUP3 ADD MLOAD DUP2 DUP5 ADD MSTORE PUSH1 0x20 DUP2 ADD SWAP1 POP PUSH2 0x366A JUMP JUMPDEST DUP4 DUP2 GT ISZERO PUSH2 0x3694 JUMPI PUSH1 0x0 DUP5 DUP5 ADD MSTORE JUMPDEST POP POP POP POP JUMP JUMPDEST PUSH1 0x0 PUSH2 0x36A5 DUP3 PUSH2 0x35E0 JUMP JUMPDEST SWAP2 POP PUSH32 0x8000000000000000000000000000000000000000000000000000000000000000 DUP3 EQ ISZERO PUSH2 0x36D8 JUMPI PUSH2 0x36D7 PUSH2 0x37D7 JUMP JUMPDEST JUMPDEST PUSH1 0x1 DUP3 SUB SWAP1 POP SWAP2 SWAP1 POP JUMP JUMPDEST PUSH2 0x36EC DUP3 PUSH2 0x38E0 JUMP JUMPDEST DUP2 ADD DUP2 DUP2 LT PUSH8 0xFFFFFFFFFFFFFFFF DUP3 GT OR ISZERO PUSH2 0x370B JUMPI PUSH2 0x370A PUSH2 0x3893 JUMP JUMPDEST JUMPDEST DUP1 PUSH1 0x40 MSTORE POP POP POP JUMP JUMPDEST PUSH1 0x0 PUSH2 0x371F DUP3 PUSH2 0x35E0 JUMP JUMPDEST SWAP2 POP PUSH32 0x7FFFFFFFFFFFFFFFFFFFFFFFFFFFFFFFFFFFFFFFFFFFFFFFFFFFFFFFFFFFFFFF DUP3 EQ ISZERO PUSH2 0x3752 JUMPI PUSH2 0x3751 PUSH2 0x37D7 JUMP JUMPDEST JUMPDEST PUSH1 0x1 DUP3 ADD SWAP1 POP SWAP2 SWAP1 POP JUMP JUMPDEST PUSH1 0x0 PUSH2 0x3768 DUP3 PUSH2 0x3618 JUMP JUMPDEST SWAP2 POP PUSH32 0xFFFFFFFFFFFFFFFFFFFFFFFFFFFFFFFFFFFFFFFFFFFFFFFFFFFFFFFFFFFFFFFF DUP3 EQ ISZERO PUSH2 0x379B JUMPI PUSH2 0x379A PUSH2 0x37D7 JUMP JUMPDEST JUMPDEST PUSH1 0x1 DUP3 ADD SWAP1 POP SWAP2 SWAP1 POP JUMP JUMPDEST PUSH1 0x0 PUSH2 0x37B1 DUP3 PUSH2 0x3618 JUMP JUMPDEST SWAP2 POP PUSH2 0x37BC DUP4 PUSH2 0x3618 JUMP JUMPDEST SWAP3 POP DUP3 PUSH2 0x37CC JUMPI PUSH2 0x37CB PUSH2 0x3806 JUMP JUMPDEST JUMPDEST DUP3 DUP3 MOD SWAP1 POP SWAP3 SWAP2 POP POP JUMP JUMPDEST PUSH32 0x4E487B7100000000000000000000000000000000000000000000000000000000 PUSH1 0x0 MSTORE PUSH1 0x11 PUSH1 0x4 MSTORE PUSH1 0x24 PUSH1 0x0 REVERT JUMPDEST PUSH32 0x4E487B7100000000000000000000000000000000000000000000000000000000 PUSH1 0x0 MSTORE PUSH1 0x12 PUSH1 0x4 MSTORE PUSH1 0x24 PUSH1 0x0 REVERT JUMPDEST PUSH32 0x4E487B7100000000000000000000000000000000000000000000000000000000 PUSH1 0x0 MSTORE PUSH1 0x21 PUSH1 0x4 MSTORE PUSH1 0x24 PUSH1 0x0 REVERT JUMPDEST PUSH32 0x4E487B7100000000000000000000000000000000000000000000000000000000 PUSH1 0x0 MSTORE PUSH1 0x32 PUSH1 0x4 MSTORE PUSH1 0x24 PUSH1 0x0 REVERT JUMPDEST PUSH32 0x4E487B7100000000000000000000000000000000000000000000000000000000 PUSH1 0x0 MSTORE PUSH1 0x41 PUSH1 0x4 MSTORE PUSH1 0x24 PUSH1 0x0 REVERT JUMPDEST PUSH1 0x0 DUP1 REVERT JUMPDEST PUSH1 0x0 DUP1 REVERT JUMPDEST PUSH1 0x0 DUP1 REVERT JUMPDEST PUSH1 0x0 DUP1 REVERT JUMPDEST PUSH1 0x0 DUP1 REVERT JUMPDEST PUSH1 0x0 DUP1 REVERT JUMPDEST PUSH1 0x0 PUSH1 0x1F NOT PUSH1 0x1F DUP4 ADD AND SWAP1 POP SWAP2 SWAP1 POP JUMP JUMPDEST POP JUMP JUMPDEST PUSH1 0x3 DUP2 LT PUSH2 0x3905 JUMPI PUSH2 0x3904 PUSH2 0x3835 JUMP JUMPDEST JUMPDEST POP JUMP JUMPDEST PUSH2 0x3911 DUP2 PUSH2 0x35A5 JUMP JUMPDEST DUP2 EQ PUSH2 0x391C JUMPI PUSH1 0x0 DUP1 REVERT JUMPDEST POP JUMP JUMPDEST PUSH2 0x3928 DUP2 PUSH2 0x3618 JUMP JUMPDEST DUP2 EQ PUSH2 0x3933 JUMPI PUSH1 0x0 DUP1 REVERT JUMPDEST POP JUMP INVALID LOG2 PUSH5 0x6970667358 0x22 SLT KECCAK256 0x2F 0xD4 SLOAD 0xCA 0x1E SHR CALLDATASIZE PUSH27 0xDA92406CEA84902E27DE7EE9A2962C40A1A9895E6ED9DB3D64736F PUSH13 0x63430008070033000000000000 "
		},
		"gasEstimates": {
			"creation": {
				"codeDepositCost": "2940000",
				"executionCost": "infinite",
				"totalCost": "infinite"
			},
			"external": {
				"checkUpkeep(bytes)": "infinite",
				"donationMatch()": "infinite",
				"enterRaffle(uint256)": "infinite",
				"fundDonationMatch()": "infinite",
				"getAllPlayers()": "infinite",
				"getCharities()": "infinite",
				"getCharityWinner()": "2589",
				"getDonations(address)": "2909",
				"getDuration()": "infinite",
				"getEntranceFee()": "infinite",
				"getFundingWallet()": "infinite",
				"getHighestDonations()": "2547",
				"getJackpot()": "infinite",
				"getNumWords()": "432",
				"getNumberOfPlayers()": "2577",
				"getPlayer(uint256)": "5033",
				"getRaffleState()": "2614",
				"getRecentWinner()": "2567",
				"getRequestConfirmations()": "454",
				"getStartTime()": "2481",
				"performUpkeep(bytes)": "infinite",
				"rawFulfillRandomWords(uint256,uint256[])": "infinite"
			},
			"internal": {
				"checkForTie()": "infinite",
				"fulfillRandomWords(uint256,uint256[] memory)": "infinite",
				"handleTie(uint256[] memory,uint256,uint256,uint256)": "infinite",
				"quickSort(uint256[] memory,int256,int256)": "infinite",
				"sort(uint256[] memory)": "infinite"
			}
		},
		"methodIdentifiers": {
			"checkUpkeep(bytes)": "6e04ff0d",
			"donationMatch()": "7c6d085f",
			"enterRaffle(uint256)": "2e519f90",
			"fundDonationMatch()": "a3d7dd31",
			"getAllPlayers()": "efa1c482",
			"getCharities()": "48112c6f",
			"getCharityWinner()": "855c289c",
			"getDonations(address)": "1910bdc2",
			"getDuration()": "ad2e8c9b",
			"getEntranceFee()": "09bc33a7",
			"getFundingWallet()": "6846af76",
			"getHighestDonations()": "f975cb39",
			"getJackpot()": "9329066c",
			"getNumWords()": "53a2c19a",
			"getNumberOfPlayers()": "fd6673f5",
			"getPlayer(uint256)": "e55ae4e8",
			"getRaffleState()": "115cbaf5",
			"getRecentWinner()": "473f1ddc",
			"getRequestConfirmations()": "5f1b0fd8",
			"getStartTime()": "c828371e",
			"performUpkeep(bytes)": "4585e33b",
			"rawFulfillRandomWords(uint256,uint256[])": "1fe543e3"
		}
	},
	"abi": [
		{
			"inputs": [
				{
					"internalType": "address",
					"name": "vrfCoordinatorV2",
					"type": "address"
				},
				{
					"internalType": "uint64",
					"name": "subscriptionId",
					"type": "uint64"
				},
				{
					"internalType": "bytes32",
					"name": "gasLane",
					"type": "bytes32"
				},
				{
					"internalType": "uint256",
					"name": "entranceFee",
					"type": "uint256"
				},
				{
					"internalType": "uint256",
					"name": "jackpot",
					"type": "uint256"
				},
				{
					"internalType": "uint256",
					"name": "duration",
					"type": "uint256"
				},
				{
					"internalType": "uint32",
					"name": "callbackGasLimit",
					"type": "uint32"
				},
				{
					"internalType": "address",
					"name": "charity1",
					"type": "address"
				},
				{
					"internalType": "address",
					"name": "charity2",
					"type": "address"
				},
				{
					"internalType": "address",
					"name": "charity3",
					"type": "address"
				},
				{
					"internalType": "address",
					"name": "fundingWallet",
					"type": "address"
				}
			],
			"stateMutability": "payable",
			"type": "constructor"
		},
		{
			"inputs": [
				{
					"internalType": "address",
					"name": "charity",
					"type": "address"
				}
			],
			"name": "CharityRaffle__CharityTransferFailed",
			"type": "error"
		},
		{
			"inputs": [],
			"name": "CharityRaffle__ContractNotFunded",
			"type": "error"
		},
		{
			"inputs": [],
			"name": "CharityRaffle__DonationMatchFailed",
			"type": "error"
		},
		{
			"inputs": [],
			"name": "CharityRaffle__FundingContractFailed",
			"type": "error"
		},
		{
			"inputs": [],
			"name": "CharityRaffle__FundingToMatchTransferFailed",
			"type": "error"
		},
		{
			"inputs": [],
			"name": "CharityRaffle__IncorrectMatchValue",
			"type": "error"
		},
		{
			"inputs": [],
			"name": "CharityRaffle__JackpotTransferFailed",
			"type": "error"
		},
		{
			"inputs": [],
			"name": "CharityRaffle__MatchAlreadyFunded",
			"type": "error"
		},
		{
			"inputs": [],
			"name": "CharityRaffle__MustBeFunder",
			"type": "error"
		},
		{
			"inputs": [],
			"name": "CharityRaffle__NoCharityWinner",
			"type": "error"
		},
		{
			"inputs": [],
			"name": "CharityRaffle__NotValidCharityChoice",
			"type": "error"
		},
		{
			"inputs": [],
			"name": "CharityRaffle__RaffleNotClosed",
			"type": "error"
		},
		{
			"inputs": [],
			"name": "CharityRaffle__RaffleNotOpen",
			"type": "error"
		},
		{
			"inputs": [],
			"name": "CharityRaffle__SendMoreToEnterRaffle",
			"type": "error"
		},
		{
			"inputs": [
				{
					"internalType": "uint256",
					"name": "currentBalance",
					"type": "uint256"
				},
				{
					"internalType": "uint256",
					"name": "numPlayers",
					"type": "uint256"
				},
				{
					"internalType": "uint256",
					"name": "raffleState",
					"type": "uint256"
				}
			],
			"name": "CharityRaffle__UpkeepNotNeeded",
			"type": "error"
		},
		{
			"inputs": [
				{
					"internalType": "address",
					"name": "have",
					"type": "address"
				},
				{
					"internalType": "address",
					"name": "want",
					"type": "address"
				}
			],
			"name": "OnlyCoordinatorCanFulfill",
			"type": "error"
		},
		{
			"anonymous": false,
			"inputs": [
				{
					"indexed": true,
					"internalType": "address",
					"name": "charity",
					"type": "address"
				}
			],
			"name": "CharityWinnerPicked",
			"type": "event"
		},
		{
			"anonymous": false,
			"inputs": [
				{
					"indexed": true,
					"internalType": "address",
					"name": "player",
					"type": "address"
				}
			],
			"name": "RaffleEnter",
			"type": "event"
		},
		{
			"anonymous": false,
			"inputs": [
				{
					"indexed": true,
					"internalType": "uint256",
					"name": "requestId",
					"type": "uint256"
				}
			],
			"name": "RequestedRaffleWinner",
			"type": "event"
		},
		{
			"anonymous": false,
			"inputs": [
				{
					"indexed": true,
					"internalType": "address",
					"name": "player",
					"type": "address"
				}
			],
			"name": "WinnerPicked",
			"type": "event"
		},
		{
			"inputs": [
				{
					"internalType": "bytes",
					"name": "",
					"type": "bytes"
				}
			],
			"name": "checkUpkeep",
			"outputs": [
				{
					"internalType": "bool",
					"name": "upkeepNeeded",
					"type": "bool"
				},
				{
					"internalType": "bytes",
					"name": "",
					"type": "bytes"
				}
			],
			"stateMutability": "view",
			"type": "function"
		},
		{
			"inputs": [],
			"name": "donationMatch",
			"outputs": [],
			"stateMutability": "nonpayable",
			"type": "function"
		},
		{
			"inputs": [
				{
					"internalType": "uint256",
					"name": "charityChoice",
					"type": "uint256"
				}
			],
			"name": "enterRaffle",
			"outputs": [],
			"stateMutability": "payable",
			"type": "function"
		},
		{
			"inputs": [],
			"name": "fundDonationMatch",
			"outputs": [],
			"stateMutability": "payable",
			"type": "function"
		},
		{
			"inputs": [],
			"name": "getAllPlayers",
			"outputs": [
				{
					"internalType": "address[]",
					"name": "",
					"type": "address[]"
				}
			],
			"stateMutability": "view",
			"type": "function"
		},
		{
			"inputs": [],
			"name": "getCharities",
			"outputs": [
				{
					"internalType": "address[]",
					"name": "",
					"type": "address[]"
				}
			],
			"stateMutability": "view",
			"type": "function"
		},
		{
			"inputs": [],
			"name": "getCharityWinner",
			"outputs": [
				{
					"internalType": "address",
					"name": "",
					"type": "address"
				}
			],
			"stateMutability": "view",
			"type": "function"
		},
		{
			"inputs": [
				{
					"internalType": "address",
					"name": "charity",
					"type": "address"
				}
			],
			"name": "getDonations",
			"outputs": [
				{
					"internalType": "uint256",
					"name": "",
					"type": "uint256"
				}
			],
			"stateMutability": "view",
			"type": "function"
		},
		{
			"inputs": [],
			"name": "getDuration",
			"outputs": [
				{
					"internalType": "uint256",
					"name": "",
					"type": "uint256"
				}
			],
			"stateMutability": "view",
			"type": "function"
		},
		{
			"inputs": [],
			"name": "getEntranceFee",
			"outputs": [
				{
					"internalType": "uint256",
					"name": "",
					"type": "uint256"
				}
			],
			"stateMutability": "view",
			"type": "function"
		},
		{
			"inputs": [],
			"name": "getFundingWallet",
			"outputs": [
				{
					"internalType": "address",
					"name": "",
					"type": "address"
				}
			],
			"stateMutability": "view",
			"type": "function"
		},
		{
			"inputs": [],
			"name": "getHighestDonations",
			"outputs": [
				{
					"internalType": "uint256",
					"name": "",
					"type": "uint256"
				}
			],
			"stateMutability": "view",
			"type": "function"
		},
		{
			"inputs": [],
			"name": "getJackpot",
			"outputs": [
				{
					"internalType": "uint256",
					"name": "",
					"type": "uint256"
				}
			],
			"stateMutability": "view",
			"type": "function"
		},
		{
			"inputs": [],
			"name": "getNumWords",
			"outputs": [
				{
					"internalType": "uint256",
					"name": "",
					"type": "uint256"
				}
			],
			"stateMutability": "pure",
			"type": "function"
		},
		{
			"inputs": [],
			"name": "getNumberOfPlayers",
			"outputs": [
				{
					"internalType": "uint256",
					"name": "",
					"type": "uint256"
				}
			],
			"stateMutability": "view",
			"type": "function"
		},
		{
			"inputs": [
				{
					"internalType": "uint256",
					"name": "index",
					"type": "uint256"
				}
			],
			"name": "getPlayer",
			"outputs": [
				{
					"internalType": "address",
					"name": "",
					"type": "address"
				}
			],
			"stateMutability": "view",
			"type": "function"
		},
		{
			"inputs": [],
			"name": "getRaffleState",
			"outputs": [
				{
					"internalType": "enum CharityRaffle.RaffleState",
					"name": "",
					"type": "uint8"
				}
			],
			"stateMutability": "view",
			"type": "function"
		},
		{
			"inputs": [],
			"name": "getRecentWinner",
			"outputs": [
				{
					"internalType": "address",
					"name": "",
					"type": "address"
				}
			],
			"stateMutability": "view",
			"type": "function"
		},
		{
			"inputs": [],
			"name": "getRequestConfirmations",
			"outputs": [
				{
					"internalType": "uint256",
					"name": "",
					"type": "uint256"
				}
			],
			"stateMutability": "pure",
			"type": "function"
		},
		{
			"inputs": [],
			"name": "getStartTime",
			"outputs": [
				{
					"internalType": "uint256",
					"name": "",
					"type": "uint256"
				}
			],
			"stateMutability": "view",
			"type": "function"
		},
		{
			"inputs": [
				{
					"internalType": "bytes",
					"name": "",
					"type": "bytes"
				}
			],
			"name": "performUpkeep",
			"outputs": [],
			"stateMutability": "nonpayable",
			"type": "function"
		},
		{
			"inputs": [
				{
					"internalType": "uint256",
					"name": "requestId",
					"type": "uint256"
				},
				{
					"internalType": "uint256[]",
					"name": "randomWords",
					"type": "uint256[]"
				}
			],
			"name": "rawFulfillRandomWords",
			"outputs": [],
			"stateMutability": "nonpayable",
			"type": "function"
		}
	]
}