{
	"data": {
		"bytecode": {
			"linkReferences": {},
			"object": "608060405234801561001057600080fd5b5061054e806100206000396000f3fe608060405234801561001057600080fd5b506004361061002b5760003560e01c80636232d61814610030575b600080fd5b61004a60048036038101906100459190610254565b610060565b60405161005791906102e9565b60405180910390f35b606060006100e3565b600060208201519050919050565b6000808314156100a8577f010101010101010101010101010101010101010101010101010101010101010182016000525b60018314156100d8577f010101010101010101010101010101010101010101010101010101010101010182036000525b600051905092915050565b6100ec84610069565b6100f68482610077565b9150506000602067ffffffffffffffff811115610116576101156104ad565b5b6040519080825280601f01601f1916602001820160405280156101485781602001600182028036833780820191505090505b50905060005b60208110156101c35782816020811061016a5761016961047e565b5b1a60f81b8282815181106101815761018061047e565b5b60200101907effffffffffffffffffffffffffffffffffffffffffffffffffffffffffffff1916908160001a90535080806101bb90610406565b91505061014e565b50809250505092915050565b60006101e26101dd84610330565b61030b565b9050828152602081018484840111156101fe576101fd6104e1565b5b610209848285610393565b509392505050565b60008135905061022081610501565b92915050565b600082601f83011261023b5761023a6104dc565b5b813561024b8482602086016101cf565b91505092915050565b6000806040838503121561026b5761026a6104eb565b5b600083013567ffffffffffffffff811115610289576102886104e6565b5b61029585828601610226565b92505060206102a685828601610211565b9150509250929050565b60006102bb82610361565b6102c5818561036c565b93506102d58185602086016103a2565b6102de816104f0565b840191505092915050565b6000602082019050818103600083015261030381846102b0565b905092915050565b6000610315610326565b905061032182826103d5565b919050565b6000604051905090565b600067ffffffffffffffff82111561034b5761034a6104ad565b5b610354826104f0565b9050602081019050919050565b600081519050919050565b600082825260208201905092915050565b60008115159050919050565b6000819050919050565b82818337600083830152505050565b60005b838110156103c05780820151818401526020810190506103a5565b838111156103cf576000848401525b50505050565b6103de826104f0565b810181811067ffffffffffffffff821117156103fd576103fc6104ad565b5b80604052505050565b600061041182610389565b91507fffffffffffffffffffffffffffffffffffffffffffffffffffffffffffffffff8214156104445761044361044f565b5b600182019050919050565b7f4e487b7100000000000000000000000000000000000000000000000000000000600052601160045260246000fd5b7f4e487b7100000000000000000000000000000000000000000000000000000000600052603260045260246000fd5b7f4e487b7100000000000000000000000000000000000000000000000000000000600052604160045260246000fd5b600080fd5b600080fd5b600080fd5b600080fd5b6000601f19601f8301169050919050565b61050a8161037d565b811461051557600080fd5b5056fea2646970667358221220d4a60f377666e4418a006de9a383bc49e57b8cf25264e81131e8520b87b7d61a64736f6c63430008070033",
			"opcodes": "PUSH1 0x80 PUSH1 0x40 MSTORE CALLVALUE DUP1 ISZERO PUSH2 0x10 JUMPI PUSH1 0x0 DUP1 REVERT JUMPDEST POP PUSH2 0x54E DUP1 PUSH2 0x20 PUSH1 0x0 CODECOPY PUSH1 0x0 RETURN INVALID PUSH1 0x80 PUSH1 0x40 MSTORE CALLVALUE DUP1 ISZERO PUSH2 0x10 JUMPI PUSH1 0x0 DUP1 REVERT JUMPDEST POP PUSH1 0x4 CALLDATASIZE LT PUSH2 0x2B JUMPI PUSH1 0x0 CALLDATALOAD PUSH1 0xE0 SHR DUP1 PUSH4 0x6232D618 EQ PUSH2 0x30 JUMPI JUMPDEST PUSH1 0x0 DUP1 REVERT JUMPDEST PUSH2 0x4A PUSH1 0x4 DUP1 CALLDATASIZE SUB DUP2 ADD SWAP1 PUSH2 0x45 SWAP2 SWAP1 PUSH2 0x254 JUMP JUMPDEST PUSH2 0x60 JUMP JUMPDEST PUSH1 0x40 MLOAD PUSH2 0x57 SWAP2 SWAP1 PUSH2 0x2E9 JUMP JUMPDEST PUSH1 0x40 MLOAD DUP1 SWAP2 SUB SWAP1 RETURN JUMPDEST PUSH1 0x60 PUSH1 0x0 PUSH2 0xE3 JUMP JUMPDEST PUSH1 0x0 PUSH1 0x20 DUP3 ADD MLOAD SWAP1 POP SWAP2 SWAP1 POP JUMP JUMPDEST PUSH1 0x0 DUP1 DUP4 EQ ISZERO PUSH2 0xA8 JUMPI PUSH32 0x101010101010101010101010101010101010101010101010101010101010101 DUP3 ADD PUSH1 0x0 MSTORE JUMPDEST PUSH1 0x1 DUP4 EQ ISZERO PUSH2 0xD8 JUMPI PUSH32 0x101010101010101010101010101010101010101010101010101010101010101 DUP3 SUB PUSH1 0x0 MSTORE JUMPDEST PUSH1 0x0 MLOAD SWAP1 POP SWAP3 SWAP2 POP POP JUMP JUMPDEST PUSH2 0xEC DUP5 PUSH2 0x69 JUMP JUMPDEST PUSH2 0xF6 DUP5 DUP3 PUSH2 0x77 JUMP JUMPDEST SWAP2 POP POP PUSH1 0x0 PUSH1 0x20 PUSH8 0xFFFFFFFFFFFFFFFF DUP2 GT ISZERO PUSH2 0x116 JUMPI PUSH2 0x115 PUSH2 0x4AD JUMP JUMPDEST JUMPDEST PUSH1 0x40 MLOAD SWAP1 DUP1 DUP3 MSTORE DUP1 PUSH1 0x1F ADD PUSH1 0x1F NOT AND PUSH1 0x20 ADD DUP3 ADD PUSH1 0x40 MSTORE DUP1 ISZERO PUSH2 0x148 JUMPI DUP2 PUSH1 0x20 ADD PUSH1 0x1 DUP3 MUL DUP1 CALLDATASIZE DUP4 CALLDATACOPY DUP1 DUP3 ADD SWAP2 POP POP SWAP1 POP JUMPDEST POP SWAP1 POP PUSH1 0x0 JUMPDEST PUSH1 0x20 DUP2 LT ISZERO PUSH2 0x1C3 JUMPI DUP3 DUP2 PUSH1 0x20 DUP2 LT PUSH2 0x16A JUMPI PUSH2 0x169 PUSH2 0x47E JUMP JUMPDEST JUMPDEST BYTE PUSH1 0xF8 SHL DUP3 DUP3 DUP2 MLOAD DUP2 LT PUSH2 0x181 JUMPI PUSH2 0x180 PUSH2 0x47E JUMP JUMPDEST JUMPDEST PUSH1 0x20 ADD ADD SWAP1 PUSH31 0xFFFFFFFFFFFFFFFFFFFFFFFFFFFFFFFFFFFFFFFFFFFFFFFFFFFFFFFFFFFFFF NOT AND SWAP1 DUP2 PUSH1 0x0 BYTE SWAP1 MSTORE8 POP DUP1 DUP1 PUSH2 0x1BB SWAP1 PUSH2 0x406 JUMP JUMPDEST SWAP2 POP POP PUSH2 0x14E JUMP JUMPDEST POP DUP1 SWAP3 POP POP POP SWAP3 SWAP2 POP POP JUMP JUMPDEST PUSH1 0x0 PUSH2 0x1E2 PUSH2 0x1DD DUP5 PUSH2 0x330 JUMP JUMPDEST PUSH2 0x30B JUMP JUMPDEST SWAP1 POP DUP3 DUP2 MSTORE PUSH1 0x20 DUP2 ADD DUP5 DUP5 DUP5 ADD GT ISZERO PUSH2 0x1FE JUMPI PUSH2 0x1FD PUSH2 0x4E1 JUMP JUMPDEST JUMPDEST PUSH2 0x209 DUP5 DUP3 DUP6 PUSH2 0x393 JUMP JUMPDEST POP SWAP4 SWAP3 POP POP POP JUMP JUMPDEST PUSH1 0x0 DUP2 CALLDATALOAD SWAP1 POP PUSH2 0x220 DUP2 PUSH2 0x501 JUMP JUMPDEST SWAP3 SWAP2 POP POP JUMP JUMPDEST PUSH1 0x0 DUP3 PUSH1 0x1F DUP4 ADD SLT PUSH2 0x23B JUMPI PUSH2 0x23A PUSH2 0x4DC JUMP JUMPDEST JUMPDEST DUP2 CALLDATALOAD PUSH2 0x24B DUP5 DUP3 PUSH1 0x20 DUP7 ADD PUSH2 0x1CF JUMP JUMPDEST SWAP2 POP POP SWAP3 SWAP2 POP POP JUMP JUMPDEST PUSH1 0x0 DUP1 PUSH1 0x40 DUP4 DUP6 SUB SLT ISZERO PUSH2 0x26B JUMPI PUSH2 0x26A PUSH2 0x4EB JUMP JUMPDEST JUMPDEST PUSH1 0x0 DUP4 ADD CALLDATALOAD PUSH8 0xFFFFFFFFFFFFFFFF DUP2 GT ISZERO PUSH2 0x289 JUMPI PUSH2 0x288 PUSH2 0x4E6 JUMP JUMPDEST JUMPDEST PUSH2 0x295 DUP6 DUP3 DUP7 ADD PUSH2 0x226 JUMP JUMPDEST SWAP3 POP POP PUSH1 0x20 PUSH2 0x2A6 DUP6 DUP3 DUP7 ADD PUSH2 0x211 JUMP JUMPDEST SWAP2 POP POP SWAP3 POP SWAP3 SWAP1 POP JUMP JUMPDEST PUSH1 0x0 PUSH2 0x2BB DUP3 PUSH2 0x361 JUMP JUMPDEST PUSH2 0x2C5 DUP2 DUP6 PUSH2 0x36C JUMP JUMPDEST SWAP4 POP PUSH2 0x2D5 DUP2 DUP6 PUSH1 0x20 DUP7 ADD PUSH2 0x3A2 JUMP JUMPDEST PUSH2 0x2DE DUP2 PUSH2 0x4F0 JUMP JUMPDEST DUP5 ADD SWAP2 POP POP SWAP3 SWAP2 POP POP JUMP JUMPDEST PUSH1 0x0 PUSH1 0x20 DUP3 ADD SWAP1 POP DUP2 DUP2 SUB PUSH1 0x0 DUP4 ADD MSTORE PUSH2 0x303 DUP2 DUP5 PUSH2 0x2B0 JUMP JUMPDEST SWAP1 POP SWAP3 SWAP2 POP POP JUMP JUMPDEST PUSH1 0x0 PUSH2 0x315 PUSH2 0x326 JUMP JUMPDEST SWAP1 POP PUSH2 0x321 DUP3 DUP3 PUSH2 0x3D5 JUMP JUMPDEST SWAP2 SWAP1 POP JUMP JUMPDEST PUSH1 0x0 PUSH1 0x40 MLOAD SWAP1 POP SWAP1 JUMP JUMPDEST PUSH1 0x0 PUSH8 0xFFFFFFFFFFFFFFFF DUP3 GT ISZERO PUSH2 0x34B JUMPI PUSH2 0x34A PUSH2 0x4AD JUMP JUMPDEST JUMPDEST PUSH2 0x354 DUP3 PUSH2 0x4F0 JUMP JUMPDEST SWAP1 POP PUSH1 0x20 DUP2 ADD SWAP1 POP SWAP2 SWAP1 POP JUMP JUMPDEST PUSH1 0x0 DUP2 MLOAD SWAP1 POP SWAP2 SWAP1 POP JUMP JUMPDEST PUSH1 0x0 DUP3 DUP3 MSTORE PUSH1 0x20 DUP3 ADD SWAP1 POP SWAP3 SWAP2 POP POP JUMP JUMPDEST PUSH1 0x0 DUP2 ISZERO ISZERO SWAP1 POP SWAP2 SWAP1 POP JUMP JUMPDEST PUSH1 0x0 DUP2 SWAP1 POP SWAP2 SWAP1 POP JUMP JUMPDEST DUP3 DUP2 DUP4 CALLDATACOPY PUSH1 0x0 DUP4 DUP4 ADD MSTORE POP POP POP JUMP JUMPDEST PUSH1 0x0 JUMPDEST DUP4 DUP2 LT ISZERO PUSH2 0x3C0 JUMPI DUP1 DUP3 ADD MLOAD DUP2 DUP5 ADD MSTORE PUSH1 0x20 DUP2 ADD SWAP1 POP PUSH2 0x3A5 JUMP JUMPDEST DUP4 DUP2 GT ISZERO PUSH2 0x3CF JUMPI PUSH1 0x0 DUP5 DUP5 ADD MSTORE JUMPDEST POP POP POP POP JUMP JUMPDEST PUSH2 0x3DE DUP3 PUSH2 0x4F0 JUMP JUMPDEST DUP2 ADD DUP2 DUP2 LT PUSH8 0xFFFFFFFFFFFFFFFF DUP3 GT OR ISZERO PUSH2 0x3FD JUMPI PUSH2 0x3FC PUSH2 0x4AD JUMP JUMPDEST JUMPDEST DUP1 PUSH1 0x40 MSTORE POP POP POP JUMP JUMPDEST PUSH1 0x0 PUSH2 0x411 DUP3 PUSH2 0x389 JUMP JUMPDEST SWAP2 POP PUSH32 0xFFFFFFFFFFFFFFFFFFFFFFFFFFFFFFFFFFFFFFFFFFFFFFFFFFFFFFFFFFFFFFFF DUP3 EQ ISZERO PUSH2 0x444 JUMPI PUSH2 0x443 PUSH2 0x44F JUMP JUMPDEST JUMPDEST PUSH1 0x1 DUP3 ADD SWAP1 POP SWAP2 SWAP1 POP JUMP JUMPDEST PUSH32 0x4E487B7100000000000000000000000000000000000000000000000000000000 PUSH1 0x0 MSTORE PUSH1 0x11 PUSH1 0x4 MSTORE PUSH1 0x24 PUSH1 0x0 REVERT JUMPDEST PUSH32 0x4E487B7100000000000000000000000000000000000000000000000000000000 PUSH1 0x0 MSTORE PUSH1 0x32 PUSH1 0x4 MSTORE PUSH1 0x24 PUSH1 0x0 REVERT JUMPDEST PUSH32 0x4E487B7100000000000000000000000000000000000000000000000000000000 PUSH1 0x0 MSTORE PUSH1 0x41 PUSH1 0x4 MSTORE PUSH1 0x24 PUSH1 0x0 REVERT JUMPDEST PUSH1 0x0 DUP1 REVERT JUMPDEST PUSH1 0x0 DUP1 REVERT JUMPDEST PUSH1 0x0 DUP1 REVERT JUMPDEST PUSH1 0x0 DUP1 REVERT JUMPDEST PUSH1 0x0 PUSH1 0x1F NOT PUSH1 0x1F DUP4 ADD AND SWAP1 POP SWAP2 SWAP1 POP JUMP JUMPDEST PUSH2 0x50A DUP2 PUSH2 0x37D JUMP JUMPDEST DUP2 EQ PUSH2 0x515 JUMPI PUSH1 0x0 DUP1 REVERT JUMPDEST POP JUMP INVALID LOG2 PUSH5 0x6970667358 0x22 SLT KECCAK256 0xD4 0xA6 0xF CALLDATACOPY PUSH23 0x66E4418A006DE9A383BC49E57B8CF25264E81131E8520B DUP8 0xB7 0xD6 BYTE PUSH5 0x736F6C6343 STOP ADDMOD SMOD STOP CALLER "
		},
		"gasEstimates": {
			"creation": {
				"codeDepositCost": "271600",
				"executionCost": "312",
				"totalCost": "271912"
			},
			"external": {
				"encrypt(string,bool)": "infinite"
			}
		},
		"methodIdentifiers": {
			"encrypt(string,bool)": "6232d618"
		}
	},
	"abi": [
		{
			"inputs": [
				{
					"internalType": "string",
					"name": "_input",
					"type": "string"
				},
				{
					"internalType": "bool",
					"name": "_decrypt",
					"type": "bool"
				}
			],
			"name": "encrypt",
			"outputs": [
				{
					"internalType": "string",
					"name": "",
					"type": "string"
				}
			],
			"stateMutability": "pure",
			"type": "function"
		}
	]
}