{
	"contracts/utils/Create2Example2.sol": {
		"Factory": {
			"abi": [
				{
					"inputs": [
						{
							"internalType": "bytes",
							"name": "bytecode",
							"type": "bytes"
						},
						{
							"internalType": "uint256",
							"name": "_salt",
							"type": "uint256"
						}
					],
					"name": "deploy",
					"outputs": [],
					"stateMutability": "payable",
					"type": "function"
				},
				{
					"inputs": [
						{
							"internalType": "bytes",
							"name": "bytecode",
							"type": "bytes"
						},
						{
							"internalType": "uint256",
							"name": "_salt",
							"type": "uint256"
						}
					],
					"name": "getAddress",
					"outputs": [
						{
							"internalType": "address",
							"name": "",
							"type": "address"
						}
					],
					"stateMutability": "view",
					"type": "function"
				},
				{
					"inputs": [
						{
							"internalType": "address",
							"name": "_owner",
							"type": "address"
						},
						{
							"internalType": "uint256",
							"name": "_foo",
							"type": "uint256"
						}
					],
					"name": "getBytecode",
					"outputs": [
						{
							"internalType": "bytes",
							"name": "",
							"type": "bytes"
						}
					],
					"stateMutability": "pure",
					"type": "function"
				}
			],
			"devdoc": {
				"kind": "dev",
				"methods": {},
				"version": 1
			},
			"evm": {
				"assembly": "    /* \"contracts/utils/Create2Example2.sol\":115:1813  contract Factory {... */\n  mstore(0x40, 0x80)\n  callvalue\n  dup1\n  iszero\n  tag_1\n  jumpi\n  0x00\n  dup1\n  revert\ntag_1:\n  pop\n  dataSize(sub_0)\n  dup1\n  dataOffset(sub_0)\n  0x00\n  codecopy\n  0x00\n  return\nstop\n\nsub_0: assembly {\n        /* \"contracts/utils/Create2Example2.sol\":115:1813  contract Factory {... */\n      mstore(0x40, 0x80)\n      jumpi(tag_1, lt(calldatasize, 0x04))\n      shr(0xe0, calldataload(0x00))\n      dup1\n      0x81871cbc\n      eq\n      tag_2\n      jumpi\n      dup1\n      0x94ca2cb5\n      eq\n      tag_3\n      jumpi\n      dup1\n      0x9c4ae2d0\n      eq\n      tag_4\n      jumpi\n    tag_1:\n      0x00\n      dup1\n      revert\n        /* \"contracts/utils/Create2Example2.sol\":188:490  function getBytecode(address _owner, uint256 _foo) public pure returns (bytes memory) {... */\n    tag_2:\n      callvalue\n      dup1\n      iszero\n      tag_5\n      jumpi\n      0x00\n      dup1\n      revert\n    tag_5:\n      pop\n      tag_6\n      0x04\n      dup1\n      calldatasize\n      sub\n      dup2\n      add\n      swap1\n      tag_7\n      swap2\n      swap1\n      tag_8\n      jump\t// in\n    tag_7:\n      tag_9\n      jump\t// in\n    tag_6:\n      mload(0x40)\n      tag_10\n      swap2\n      swap1\n      tag_11\n      jump\t// in\n    tag_10:\n      mload(0x40)\n      dup1\n      swap2\n      sub\n      swap1\n      return\n        /* \"contracts/utils/Create2Example2.sol\":556:1111  function getAddress(bytes memory bytecode, uint256 _salt) public view returns (address) {... */\n    tag_3:\n      callvalue\n      dup1\n      iszero\n      tag_12\n      jumpi\n      0x00\n      dup1\n      revert\n    tag_12:\n      pop\n      tag_13\n      0x04\n      dup1\n      calldatasize\n      sub\n      dup2\n      add\n      swap1\n      tag_14\n      swap2\n      swap1\n      tag_15\n      jump\t// in\n    tag_14:\n      tag_16\n      jump\t// in\n    tag_13:\n      mload(0x40)\n      tag_17\n      swap2\n      swap1\n      tag_18\n      jump\t// in\n    tag_17:\n      mload(0x40)\n      dup1\n      swap2\n      sub\n      swap1\n      return\n        /* \"contracts/utils/Create2Example2.sol\":1146:1811  function deploy(bytes memory bytecode, uint256 _salt) public payable {... */\n    tag_4:\n      tag_19\n      0x04\n      dup1\n      calldatasize\n      sub\n      dup2\n      add\n      swap1\n      tag_20\n      swap2\n      swap1\n      tag_15\n      jump\t// in\n    tag_20:\n      tag_21\n      jump\t// in\n    tag_19:\n      stop\n        /* \"contracts/utils/Create2Example2.sol\":188:490  function getBytecode(address _owner, uint256 _foo) public pure returns (bytes memory) {... */\n    tag_9:\n        /* \"contracts/utils/Create2Example2.sol\":260:272  bytes memory */\n      0x60\n        /* \"contracts/utils/Create2Example2.sol\":284:305  bytes memory bytecode */\n      0x00\n        /* \"contracts/utils/Create2Example2.sol\":308:339  type(TestContract).creationCode */\n      mload(0x40)\n      dup1\n      0x20\n      add\n      tag_23\n      swap1\n      tag_24\n      jump\t// in\n    tag_23:\n      0x20\n      dup3\n      add\n      dup2\n      sub\n      dup3\n      mstore\n      not(0x1f)\n      0x1f\n      dup3\n      add\n      and\n      0x40\n      mstore\n      pop\n        /* \"contracts/utils/Create2Example2.sol\":284:339  bytes memory bytecode = type(TestContract).creationCode */\n      swap1\n      pop\n        /* \"contracts/utils/Create2Example2.sol\":448:456  bytecode */\n      dup1\n        /* \"contracts/utils/Create2Example2.sol\":469:475  _owner */\n      dup5\n        /* \"contracts/utils/Create2Example2.sol\":477:481  _foo */\n      dup5\n        /* \"contracts/utils/Create2Example2.sol\":458:482  abi.encode(_owner, _foo) */\n      add(0x20, mload(0x40))\n      tag_25\n      swap3\n      swap2\n      swap1\n      tag_26\n      jump\t// in\n    tag_25:\n      mload(0x40)\n      0x20\n      dup2\n      dup4\n      sub\n      sub\n      dup2\n      mstore\n      swap1\n      0x40\n      mstore\n        /* \"contracts/utils/Create2Example2.sol\":431:483  abi.encodePacked(bytecode, abi.encode(_owner, _foo)) */\n      add(0x20, mload(0x40))\n      tag_27\n      swap3\n      swap2\n      swap1\n      tag_28\n      jump\t// in\n    tag_27:\n      mload(0x40)\n      0x20\n      dup2\n      dup4\n      sub\n      sub\n      dup2\n      mstore\n      swap1\n      0x40\n      mstore\n        /* \"contracts/utils/Create2Example2.sol\":424:483  return abi.encodePacked(bytecode, abi.encode(_owner, _foo)) */\n      swap2\n      pop\n      pop\n        /* \"contracts/utils/Create2Example2.sol\":188:490  function getBytecode(address _owner, uint256 _foo) public pure returns (bytes memory) {... */\n      swap3\n      swap2\n      pop\n      pop\n      jump\t// out\n        /* \"contracts/utils/Create2Example2.sol\":556:1111  function getAddress(bytes memory bytecode, uint256 _salt) public view returns (address) {... */\n    tag_16:\n        /* \"contracts/utils/Create2Example2.sol\":635:642  address */\n      0x00\n        /* \"contracts/utils/Create2Example2.sol\":732:744  bytes32 hash */\n      dup1\n        /* \"contracts/utils/Create2Example2.sol\":811:815  0xff */\n      0xff\n        /* \"contracts/utils/Create2Example2.sol\":804:816  bytes1(0xff) */\n      0xf8\n      shl\n        /* \"contracts/utils/Create2Example2.sol\":842:846  this */\n      address\n        /* \"contracts/utils/Create2Example2.sol\":865:870  _salt */\n      dup5\n        /* \"contracts/utils/Create2Example2.sol\":898:906  bytecode */\n      dup7\n        /* \"contracts/utils/Create2Example2.sol\":888:907  keccak256(bytecode) */\n      dup1\n      mload\n      swap1\n      0x20\n      add\n      keccak256\n        /* \"contracts/utils/Create2Example2.sol\":770:921  abi.encodePacked(... */\n      add(0x20, mload(0x40))\n      tag_30\n      swap5\n      swap4\n      swap3\n      swap2\n      swap1\n      tag_31\n      jump\t// in\n    tag_30:\n      mload(0x40)\n      0x20\n      dup2\n      dup4\n      sub\n      sub\n      dup2\n      mstore\n      swap1\n      0x40\n      mstore\n        /* \"contracts/utils/Create2Example2.sol\":747:931  keccak256(... */\n      dup1\n      mload\n      swap1\n      0x20\n      add\n      keccak256\n        /* \"contracts/utils/Create2Example2.sol\":732:931  bytes32 hash = keccak256(... */\n      swap1\n      pop\n        /* \"contracts/utils/Create2Example2.sol\":1097:1101  hash */\n      dup1\n        /* \"contracts/utils/Create2Example2.sol\":1089:1102  uint256(hash) */\n      0x00\n      shr\n        /* \"contracts/utils/Create2Example2.sol\":1066:1104  return address(uint160(uint256(hash))) */\n      swap2\n      pop\n      pop\n        /* \"contracts/utils/Create2Example2.sol\":556:1111  function getAddress(bytes memory bytecode, uint256 _salt) public view returns (address) {... */\n      swap3\n      swap2\n      pop\n      pop\n      jump\t// out\n        /* \"contracts/utils/Create2Example2.sol\":1146:1811  function deploy(bytes memory bytecode, uint256 _salt) public payable {... */\n    tag_21:\n        /* \"contracts/utils/Create2Example2.sol\":1225:1237  address addr */\n      0x00\n        /* \"contracts/utils/Create2Example2.sol\":1739:1744  _salt */\n      dup2\n        /* \"contracts/utils/Create2Example2.sol\":1655:1663  bytecode */\n      dup4\n        /* \"contracts/utils/Create2Example2.sol\":1649:1664  mload(bytecode) */\n      mload\n        /* \"contracts/utils/Create2Example2.sol\":1626:1630  0x20 */\n      0x20\n        /* \"contracts/utils/Create2Example2.sol\":1616:1624  bytecode */\n      dup6\n        /* \"contracts/utils/Create2Example2.sol\":1612:1631  add(bytecode, 0x20) */\n      add\n        /* \"contracts/utils/Create2Example2.sol\":1469:1480  callvalue() */\n      callvalue\n        /* \"contracts/utils/Create2Example2.sol\":1444:1795  create2(... */\n      create2\n        /* \"contracts/utils/Create2Example2.sol\":1436:1795  addr := create2(... */\n      swap1\n      pop\n        /* \"contracts/utils/Create2Example2.sol\":1422:1805  {... */\n      pop\n        /* \"contracts/utils/Create2Example2.sol\":1146:1811  function deploy(bytes memory bytecode, uint256 _salt) public payable {... */\n      pop\n      pop\n      jump\t// out\n    tag_24:\n      dataSize(sub_0)\n      dup1\n      dataOffset(sub_0)\n      dup4\n      codecopy\n      add\n      swap1\n      jump\t// out\n        /* \"#utility.yul\":7:82   */\n    tag_33:\n        /* \"#utility.yul\":40:46   */\n      0x00\n        /* \"#utility.yul\":73:75   */\n      0x40\n        /* \"#utility.yul\":67:76   */\n      mload\n        /* \"#utility.yul\":57:76   */\n      swap1\n      pop\n        /* \"#utility.yul\":7:82   */\n      swap1\n      jump\t// out\n        /* \"#utility.yul\":88:205   */\n    tag_34:\n        /* \"#utility.yul\":197:198   */\n      0x00\n        /* \"#utility.yul\":194:195   */\n      dup1\n        /* \"#utility.yul\":187:199   */\n      revert\n        /* \"#utility.yul\":211:328   */\n    tag_35:\n        /* \"#utility.yul\":320:321   */\n      0x00\n        /* \"#utility.yul\":317:318   */\n      dup1\n        /* \"#utility.yul\":310:322   */\n      revert\n        /* \"#utility.yul\":334:460   */\n    tag_36:\n        /* \"#utility.yul\":371:378   */\n      0x00\n        /* \"#utility.yul\":411:453   */\n      0xffffffffffffffffffffffffffffffffffffffff\n        /* \"#utility.yul\":404:409   */\n      dup3\n        /* \"#utility.yul\":400:454   */\n      and\n        /* \"#utility.yul\":389:454   */\n      swap1\n      pop\n        /* \"#utility.yul\":334:460   */\n      swap2\n      swap1\n      pop\n      jump\t// out\n        /* \"#utility.yul\":466:562   */\n    tag_37:\n        /* \"#utility.yul\":503:510   */\n      0x00\n        /* \"#utility.yul\":532:556   */\n      tag_79\n        /* \"#utility.yul\":550:555   */\n      dup3\n        /* \"#utility.yul\":532:556   */\n      tag_36\n      jump\t// in\n    tag_79:\n        /* \"#utility.yul\":521:556   */\n      swap1\n      pop\n        /* \"#utility.yul\":466:562   */\n      swap2\n      swap1\n      pop\n      jump\t// out\n        /* \"#utility.yul\":568:690   */\n    tag_38:\n        /* \"#utility.yul\":641:665   */\n      tag_81\n        /* \"#utility.yul\":659:664   */\n      dup2\n        /* \"#utility.yul\":641:665   */\n      tag_37\n      jump\t// in\n    tag_81:\n        /* \"#utility.yul\":634:639   */\n      dup2\n        /* \"#utility.yul\":631:666   */\n      eq\n        /* \"#utility.yul\":621:684   */\n      tag_82\n      jumpi\n        /* \"#utility.yul\":680:681   */\n      0x00\n        /* \"#utility.yul\":677:678   */\n      dup1\n        /* \"#utility.yul\":670:682   */\n      revert\n        /* \"#utility.yul\":621:684   */\n    tag_82:\n        /* \"#utility.yul\":568:690   */\n      pop\n      jump\t// out\n        /* \"#utility.yul\":696:835   */\n    tag_39:\n        /* \"#utility.yul\":742:747   */\n      0x00\n        /* \"#utility.yul\":780:786   */\n      dup2\n        /* \"#utility.yul\":767:787   */\n      calldataload\n        /* \"#utility.yul\":758:787   */\n      swap1\n      pop\n        /* \"#utility.yul\":796:829   */\n      tag_84\n        /* \"#utility.yul\":823:828   */\n      dup2\n        /* \"#utility.yul\":796:829   */\n      tag_38\n      jump\t// in\n    tag_84:\n        /* \"#utility.yul\":696:835   */\n      swap3\n      swap2\n      pop\n      pop\n      jump\t// out\n        /* \"#utility.yul\":841:918   */\n    tag_40:\n        /* \"#utility.yul\":878:885   */\n      0x00\n        /* \"#utility.yul\":907:912   */\n      dup2\n        /* \"#utility.yul\":896:912   */\n      swap1\n      pop\n        /* \"#utility.yul\":841:918   */\n      swap2\n      swap1\n      pop\n      jump\t// out\n        /* \"#utility.yul\":924:1046   */\n    tag_41:\n        /* \"#utility.yul\":997:1021   */\n      tag_87\n        /* \"#utility.yul\":1015:1020   */\n      dup2\n        /* \"#utility.yul\":997:1021   */\n      tag_40\n      jump\t// in\n    tag_87:\n        /* \"#utility.yul\":990:995   */\n      dup2\n        /* \"#utility.yul\":987:1022   */\n      eq\n        /* \"#utility.yul\":977:1040   */\n      tag_88\n      jumpi\n        /* \"#utility.yul\":1036:1037   */\n      0x00\n        /* \"#utility.yul\":1033:1034   */\n      dup1\n        /* \"#utility.yul\":1026:1038   */\n      revert\n        /* \"#utility.yul\":977:1040   */\n    tag_88:\n        /* \"#utility.yul\":924:1046   */\n      pop\n      jump\t// out\n        /* \"#utility.yul\":1052:1191   */\n    tag_42:\n        /* \"#utility.yul\":1098:1103   */\n      0x00\n        /* \"#utility.yul\":1136:1142   */\n      dup2\n        /* \"#utility.yul\":1123:1143   */\n      calldataload\n        /* \"#utility.yul\":1114:1143   */\n      swap1\n      pop\n        /* \"#utility.yul\":1152:1185   */\n      tag_90\n        /* \"#utility.yul\":1179:1184   */\n      dup2\n        /* \"#utility.yul\":1152:1185   */\n      tag_41\n      jump\t// in\n    tag_90:\n        /* \"#utility.yul\":1052:1191   */\n      swap3\n      swap2\n      pop\n      pop\n      jump\t// out\n        /* \"#utility.yul\":1197:1671   */\n    tag_8:\n        /* \"#utility.yul\":1265:1271   */\n      0x00\n        /* \"#utility.yul\":1273:1279   */\n      dup1\n        /* \"#utility.yul\":1322:1324   */\n      0x40\n        /* \"#utility.yul\":1310:1319   */\n      dup4\n        /* \"#utility.yul\":1301:1308   */\n      dup6\n        /* \"#utility.yul\":1297:1320   */\n      sub\n        /* \"#utility.yul\":1293:1325   */\n      slt\n        /* \"#utility.yul\":1290:1409   */\n      iszero\n      tag_92\n      jumpi\n        /* \"#utility.yul\":1328:1407   */\n      tag_93\n      tag_34\n      jump\t// in\n    tag_93:\n        /* \"#utility.yul\":1290:1409   */\n    tag_92:\n        /* \"#utility.yul\":1448:1449   */\n      0x00\n        /* \"#utility.yul\":1473:1526   */\n      tag_94\n        /* \"#utility.yul\":1518:1525   */\n      dup6\n        /* \"#utility.yul\":1509:1515   */\n      dup3\n        /* \"#utility.yul\":1498:1507   */\n      dup7\n        /* \"#utility.yul\":1494:1516   */\n      add\n        /* \"#utility.yul\":1473:1526   */\n      tag_39\n      jump\t// in\n    tag_94:\n        /* \"#utility.yul\":1463:1526   */\n      swap3\n      pop\n        /* \"#utility.yul\":1419:1536   */\n      pop\n        /* \"#utility.yul\":1575:1577   */\n      0x20\n        /* \"#utility.yul\":1601:1654   */\n      tag_95\n        /* \"#utility.yul\":1646:1653   */\n      dup6\n        /* \"#utility.yul\":1637:1643   */\n      dup3\n        /* \"#utility.yul\":1626:1635   */\n      dup7\n        /* \"#utility.yul\":1622:1644   */\n      add\n        /* \"#utility.yul\":1601:1654   */\n      tag_42\n      jump\t// in\n    tag_95:\n        /* \"#utility.yul\":1591:1654   */\n      swap2\n      pop\n        /* \"#utility.yul\":1546:1664   */\n      pop\n        /* \"#utility.yul\":1197:1671   */\n      swap3\n      pop\n      swap3\n      swap1\n      pop\n      jump\t// out\n        /* \"#utility.yul\":1677:1775   */\n    tag_43:\n        /* \"#utility.yul\":1728:1734   */\n      0x00\n        /* \"#utility.yul\":1762:1767   */\n      dup2\n        /* \"#utility.yul\":1756:1768   */\n      mload\n        /* \"#utility.yul\":1746:1768   */\n      swap1\n      pop\n        /* \"#utility.yul\":1677:1775   */\n      swap2\n      swap1\n      pop\n      jump\t// out\n        /* \"#utility.yul\":1781:1949   */\n    tag_44:\n        /* \"#utility.yul\":1864:1875   */\n      0x00\n        /* \"#utility.yul\":1898:1904   */\n      dup3\n        /* \"#utility.yul\":1893:1896   */\n      dup3\n        /* \"#utility.yul\":1886:1905   */\n      mstore\n        /* \"#utility.yul\":1938:1942   */\n      0x20\n        /* \"#utility.yul\":1933:1936   */\n      dup3\n        /* \"#utility.yul\":1929:1943   */\n      add\n        /* \"#utility.yul\":1914:1943   */\n      swap1\n      pop\n        /* \"#utility.yul\":1781:1949   */\n      swap3\n      swap2\n      pop\n      pop\n      jump\t// out\n        /* \"#utility.yul\":1955:2262   */\n    tag_45:\n        /* \"#utility.yul\":2023:2024   */\n      0x00\n        /* \"#utility.yul\":2033:2146   */\n    tag_99:\n        /* \"#utility.yul\":2047:2053   */\n      dup4\n        /* \"#utility.yul\":2044:2045   */\n      dup2\n        /* \"#utility.yul\":2041:2054   */\n      lt\n        /* \"#utility.yul\":2033:2146   */\n      iszero\n      tag_101\n      jumpi\n        /* \"#utility.yul\":2132:2133   */\n      dup1\n        /* \"#utility.yul\":2127:2130   */\n      dup3\n        /* \"#utility.yul\":2123:2134   */\n      add\n        /* \"#utility.yul\":2117:2135   */\n      mload\n        /* \"#utility.yul\":2113:2114   */\n      dup2\n        /* \"#utility.yul\":2108:2111   */\n      dup5\n        /* \"#utility.yul\":2104:2115   */\n      add\n        /* \"#utility.yul\":2097:2136   */\n      mstore\n        /* \"#utility.yul\":2069:2071   */\n      0x20\n        /* \"#utility.yul\":2066:2067   */\n      dup2\n        /* \"#utility.yul\":2062:2072   */\n      add\n        /* \"#utility.yul\":2057:2072   */\n      swap1\n      pop\n        /* \"#utility.yul\":2033:2146   */\n      jump(tag_99)\n    tag_101:\n        /* \"#utility.yul\":2164:2170   */\n      dup4\n        /* \"#utility.yul\":2161:2162   */\n      dup2\n        /* \"#utility.yul\":2158:2171   */\n      gt\n        /* \"#utility.yul\":2155:2256   */\n      iszero\n      tag_102\n      jumpi\n        /* \"#utility.yul\":2244:2245   */\n      0x00\n        /* \"#utility.yul\":2235:2241   */\n      dup5\n        /* \"#utility.yul\":2230:2233   */\n      dup5\n        /* \"#utility.yul\":2226:2242   */\n      add\n        /* \"#utility.yul\":2219:2246   */\n      mstore\n        /* \"#utility.yul\":2155:2256   */\n    tag_102:\n        /* \"#utility.yul\":2004:2262   */\n      pop\n        /* \"#utility.yul\":1955:2262   */\n      pop\n      pop\n      pop\n      jump\t// out\n        /* \"#utility.yul\":2268:2370   */\n    tag_46:\n        /* \"#utility.yul\":2309:2315   */\n      0x00\n        /* \"#utility.yul\":2360:2362   */\n      0x1f\n        /* \"#utility.yul\":2356:2363   */\n      not\n        /* \"#utility.yul\":2351:2353   */\n      0x1f\n        /* \"#utility.yul\":2344:2349   */\n      dup4\n        /* \"#utility.yul\":2340:2354   */\n      add\n        /* \"#utility.yul\":2336:2364   */\n      and\n        /* \"#utility.yul\":2326:2364   */\n      swap1\n      pop\n        /* \"#utility.yul\":2268:2370   */\n      swap2\n      swap1\n      pop\n      jump\t// out\n        /* \"#utility.yul\":2376:2736   */\n    tag_47:\n        /* \"#utility.yul\":2462:2465   */\n      0x00\n        /* \"#utility.yul\":2490:2528   */\n      tag_105\n        /* \"#utility.yul\":2522:2527   */\n      dup3\n        /* \"#utility.yul\":2490:2528   */\n      tag_43\n      jump\t// in\n    tag_105:\n        /* \"#utility.yul\":2544:2614   */\n      tag_106\n        /* \"#utility.yul\":2607:2613   */\n      dup2\n        /* \"#utility.yul\":2602:2605   */\n      dup6\n        /* \"#utility.yul\":2544:2614   */\n      tag_44\n      jump\t// in\n    tag_106:\n        /* \"#utility.yul\":2537:2614   */\n      swap4\n      pop\n        /* \"#utility.yul\":2623:2675   */\n      tag_107\n        /* \"#utility.yul\":2668:2674   */\n      dup2\n        /* \"#utility.yul\":2663:2666   */\n      dup6\n        /* \"#utility.yul\":2656:2660   */\n      0x20\n        /* \"#utility.yul\":2649:2654   */\n      dup7\n        /* \"#utility.yul\":2645:2661   */\n      add\n        /* \"#utility.yul\":2623:2675   */\n      tag_45\n      jump\t// in\n    tag_107:\n        /* \"#utility.yul\":2700:2729   */\n      tag_108\n        /* \"#utility.yul\":2722:2728   */\n      dup2\n        /* \"#utility.yul\":2700:2729   */\n      tag_46\n      jump\t// in\n    tag_108:\n        /* \"#utility.yul\":2695:2698   */\n      dup5\n        /* \"#utility.yul\":2691:2730   */\n      add\n        /* \"#utility.yul\":2684:2730   */\n      swap2\n      pop\n        /* \"#utility.yul\":2466:2736   */\n      pop\n        /* \"#utility.yul\":2376:2736   */\n      swap3\n      swap2\n      pop\n      pop\n      jump\t// out\n        /* \"#utility.yul\":2742:3051   */\n    tag_11:\n        /* \"#utility.yul\":2853:2857   */\n      0x00\n        /* \"#utility.yul\":2891:2893   */\n      0x20\n        /* \"#utility.yul\":2880:2889   */\n      dup3\n        /* \"#utility.yul\":2876:2894   */\n      add\n        /* \"#utility.yul\":2868:2894   */\n      swap1\n      pop\n        /* \"#utility.yul\":2940:2949   */\n      dup2\n        /* \"#utility.yul\":2934:2938   */\n      dup2\n        /* \"#utility.yul\":2930:2950   */\n      sub\n        /* \"#utility.yul\":2926:2927   */\n      0x00\n        /* \"#utility.yul\":2915:2924   */\n      dup4\n        /* \"#utility.yul\":2911:2928   */\n      add\n        /* \"#utility.yul\":2904:2951   */\n      mstore\n        /* \"#utility.yul\":2968:3044   */\n      tag_110\n        /* \"#utility.yul\":3039:3043   */\n      dup2\n        /* \"#utility.yul\":3030:3036   */\n      dup5\n        /* \"#utility.yul\":2968:3044   */\n      tag_47\n      jump\t// in\n    tag_110:\n        /* \"#utility.yul\":2960:3044   */\n      swap1\n      pop\n        /* \"#utility.yul\":2742:3051   */\n      swap3\n      swap2\n      pop\n      pop\n      jump\t// out\n        /* \"#utility.yul\":3057:3174   */\n    tag_48:\n        /* \"#utility.yul\":3166:3167   */\n      0x00\n        /* \"#utility.yul\":3163:3164   */\n      dup1\n        /* \"#utility.yul\":3156:3168   */\n      revert\n        /* \"#utility.yul\":3180:3297   */\n    tag_49:\n        /* \"#utility.yul\":3289:3290   */\n      0x00\n        /* \"#utility.yul\":3286:3287   */\n      dup1\n        /* \"#utility.yul\":3279:3291   */\n      revert\n        /* \"#utility.yul\":3303:3483   */\n    tag_50:\n        /* \"#utility.yul\":3351:3428   */\n      0x4e487b7100000000000000000000000000000000000000000000000000000000\n        /* \"#utility.yul\":3348:3349   */\n      0x00\n        /* \"#utility.yul\":3341:3429   */\n      mstore\n        /* \"#utility.yul\":3448:3452   */\n      0x41\n        /* \"#utility.yul\":3445:3446   */\n      0x04\n        /* \"#utility.yul\":3438:3453   */\n      mstore\n        /* \"#utility.yul\":3472:3476   */\n      0x24\n        /* \"#utility.yul\":3469:3470   */\n      0x00\n        /* \"#utility.yul\":3462:3477   */\n      revert\n        /* \"#utility.yul\":3489:3770   */\n    tag_51:\n        /* \"#utility.yul\":3572:3599   */\n      tag_115\n        /* \"#utility.yul\":3594:3598   */\n      dup3\n        /* \"#utility.yul\":3572:3599   */\n      tag_46\n      jump\t// in\n    tag_115:\n        /* \"#utility.yul\":3564:3570   */\n      dup2\n        /* \"#utility.yul\":3560:3600   */\n      add\n        /* \"#utility.yul\":3702:3708   */\n      dup2\n        /* \"#utility.yul\":3690:3700   */\n      dup2\n        /* \"#utility.yul\":3687:3709   */\n      lt\n        /* \"#utility.yul\":3666:3684   */\n      0xffffffffffffffff\n        /* \"#utility.yul\":3654:3664   */\n      dup3\n        /* \"#utility.yul\":3651:3685   */\n      gt\n        /* \"#utility.yul\":3648:3710   */\n      or\n        /* \"#utility.yul\":3645:3733   */\n      iszero\n      tag_116\n      jumpi\n        /* \"#utility.yul\":3713:3731   */\n      tag_117\n      tag_50\n      jump\t// in\n    tag_117:\n        /* \"#utility.yul\":3645:3733   */\n    tag_116:\n        /* \"#utility.yul\":3753:3763   */\n      dup1\n        /* \"#utility.yul\":3749:3751   */\n      0x40\n        /* \"#utility.yul\":3742:3764   */\n      mstore\n        /* \"#utility.yul\":3532:3770   */\n      pop\n        /* \"#utility.yul\":3489:3770   */\n      pop\n      pop\n      jump\t// out\n        /* \"#utility.yul\":3776:3905   */\n    tag_52:\n        /* \"#utility.yul\":3810:3816   */\n      0x00\n        /* \"#utility.yul\":3837:3857   */\n      tag_119\n      tag_33\n      jump\t// in\n    tag_119:\n        /* \"#utility.yul\":3827:3857   */\n      swap1\n      pop\n        /* \"#utility.yul\":3866:3899   */\n      tag_120\n        /* \"#utility.yul\":3894:3898   */\n      dup3\n        /* \"#utility.yul\":3886:3892   */\n      dup3\n        /* \"#utility.yul\":3866:3899   */\n      tag_51\n      jump\t// in\n    tag_120:\n        /* \"#utility.yul\":3776:3905   */\n      swap2\n      swap1\n      pop\n      jump\t// out\n        /* \"#utility.yul\":3911:4218   */\n    tag_53:\n        /* \"#utility.yul\":3972:3976   */\n      0x00\n        /* \"#utility.yul\":4062:4080   */\n      0xffffffffffffffff\n        /* \"#utility.yul\":4054:4060   */\n      dup3\n        /* \"#utility.yul\":4051:4081   */\n      gt\n        /* \"#utility.yul\":4048:4104   */\n      iszero\n      tag_122\n      jumpi\n        /* \"#utility.yul\":4084:4102   */\n      tag_123\n      tag_50\n      jump\t// in\n    tag_123:\n        /* \"#utility.yul\":4048:4104   */\n    tag_122:\n        /* \"#utility.yul\":4122:4151   */\n      tag_124\n        /* \"#utility.yul\":4144:4150   */\n      dup3\n        /* \"#utility.yul\":4122:4151   */\n      tag_46\n      jump\t// in\n    tag_124:\n        /* \"#utility.yul\":4114:4151   */\n      swap1\n      pop\n        /* \"#utility.yul\":4206:4210   */\n      0x20\n        /* \"#utility.yul\":4200:4204   */\n      dup2\n        /* \"#utility.yul\":4196:4211   */\n      add\n        /* \"#utility.yul\":4188:4211   */\n      swap1\n      pop\n        /* \"#utility.yul\":3911:4218   */\n      swap2\n      swap1\n      pop\n      jump\t// out\n        /* \"#utility.yul\":4224:4378   */\n    tag_54:\n        /* \"#utility.yul\":4308:4314   */\n      dup3\n        /* \"#utility.yul\":4303:4306   */\n      dup2\n        /* \"#utility.yul\":4298:4301   */\n      dup4\n        /* \"#utility.yul\":4285:4315   */\n      calldatacopy\n        /* \"#utility.yul\":4370:4371   */\n      0x00\n        /* \"#utility.yul\":4361:4367   */\n      dup4\n        /* \"#utility.yul\":4356:4359   */\n      dup4\n        /* \"#utility.yul\":4352:4368   */\n      add\n        /* \"#utility.yul\":4345:4372   */\n      mstore\n        /* \"#utility.yul\":4224:4378   */\n      pop\n      pop\n      pop\n      jump\t// out\n        /* \"#utility.yul\":4384:4794   */\n    tag_55:\n        /* \"#utility.yul\":4461:4466   */\n      0x00\n        /* \"#utility.yul\":4486:4551   */\n      tag_127\n        /* \"#utility.yul\":4502:4550   */\n      tag_128\n        /* \"#utility.yul\":4543:4549   */\n      dup5\n        /* \"#utility.yul\":4502:4550   */\n      tag_53\n      jump\t// in\n    tag_128:\n        /* \"#utility.yul\":4486:4551   */\n      tag_52\n      jump\t// in\n    tag_127:\n        /* \"#utility.yul\":4477:4551   */\n      swap1\n      pop\n        /* \"#utility.yul\":4574:4580   */\n      dup3\n        /* \"#utility.yul\":4567:4572   */\n      dup2\n        /* \"#utility.yul\":4560:4581   */\n      mstore\n        /* \"#utility.yul\":4612:4616   */\n      0x20\n        /* \"#utility.yul\":4605:4610   */\n      dup2\n        /* \"#utility.yul\":4601:4617   */\n      add\n        /* \"#utility.yul\":4650:4653   */\n      dup5\n        /* \"#utility.yul\":4641:4647   */\n      dup5\n        /* \"#utility.yul\":4636:4639   */\n      dup5\n        /* \"#utility.yul\":4632:4648   */\n      add\n        /* \"#utility.yul\":4629:4654   */\n      gt\n        /* \"#utility.yul\":4626:4738   */\n      iszero\n      tag_129\n      jumpi\n        /* \"#utility.yul\":4657:4736   */\n      tag_130\n      tag_49\n      jump\t// in\n    tag_130:\n        /* \"#utility.yul\":4626:4738   */\n    tag_129:\n        /* \"#utility.yul\":4747:4788   */\n      tag_131\n        /* \"#utility.yul\":4781:4787   */\n      dup5\n        /* \"#utility.yul\":4776:4779   */\n      dup3\n        /* \"#utility.yul\":4771:4774   */\n      dup6\n        /* \"#utility.yul\":4747:4788   */\n      tag_54\n      jump\t// in\n    tag_131:\n        /* \"#utility.yul\":4467:4794   */\n      pop\n        /* \"#utility.yul\":4384:4794   */\n      swap4\n      swap3\n      pop\n      pop\n      pop\n      jump\t// out\n        /* \"#utility.yul\":4813:5151   */\n    tag_56:\n        /* \"#utility.yul\":4868:4873   */\n      0x00\n        /* \"#utility.yul\":4917:4920   */\n      dup3\n        /* \"#utility.yul\":4910:4914   */\n      0x1f\n        /* \"#utility.yul\":4902:4908   */\n      dup4\n        /* \"#utility.yul\":4898:4915   */\n      add\n        /* \"#utility.yul\":4894:4921   */\n      slt\n        /* \"#utility.yul\":4884:5006   */\n      tag_133\n      jumpi\n        /* \"#utility.yul\":4925:5004   */\n      tag_134\n      tag_48\n      jump\t// in\n    tag_134:\n        /* \"#utility.yul\":4884:5006   */\n    tag_133:\n        /* \"#utility.yul\":5042:5048   */\n      dup2\n        /* \"#utility.yul\":5029:5049   */\n      calldataload\n        /* \"#utility.yul\":5067:5145   */\n      tag_135\n        /* \"#utility.yul\":5141:5144   */\n      dup5\n        /* \"#utility.yul\":5133:5139   */\n      dup3\n        /* \"#utility.yul\":5126:5130   */\n      0x20\n        /* \"#utility.yul\":5118:5124   */\n      dup7\n        /* \"#utility.yul\":5114:5131   */\n      add\n        /* \"#utility.yul\":5067:5145   */\n      tag_55\n      jump\t// in\n    tag_135:\n        /* \"#utility.yul\":5058:5145   */\n      swap2\n      pop\n        /* \"#utility.yul\":4874:5151   */\n      pop\n        /* \"#utility.yul\":4813:5151   */\n      swap3\n      swap2\n      pop\n      pop\n      jump\t// out\n        /* \"#utility.yul\":5157:5809   */\n    tag_15:\n        /* \"#utility.yul\":5234:5240   */\n      0x00\n        /* \"#utility.yul\":5242:5248   */\n      dup1\n        /* \"#utility.yul\":5291:5293   */\n      0x40\n        /* \"#utility.yul\":5279:5288   */\n      dup4\n        /* \"#utility.yul\":5270:5277   */\n      dup6\n        /* \"#utility.yul\":5266:5289   */\n      sub\n        /* \"#utility.yul\":5262:5294   */\n      slt\n        /* \"#utility.yul\":5259:5378   */\n      iszero\n      tag_137\n      jumpi\n        /* \"#utility.yul\":5297:5376   */\n      tag_138\n      tag_34\n      jump\t// in\n    tag_138:\n        /* \"#utility.yul\":5259:5378   */\n    tag_137:\n        /* \"#utility.yul\":5445:5446   */\n      0x00\n        /* \"#utility.yul\":5434:5443   */\n      dup4\n        /* \"#utility.yul\":5430:5447   */\n      add\n        /* \"#utility.yul\":5417:5448   */\n      calldataload\n        /* \"#utility.yul\":5475:5493   */\n      0xffffffffffffffff\n        /* \"#utility.yul\":5467:5473   */\n      dup2\n        /* \"#utility.yul\":5464:5494   */\n      gt\n        /* \"#utility.yul\":5461:5578   */\n      iszero\n      tag_139\n      jumpi\n        /* \"#utility.yul\":5497:5576   */\n      tag_140\n      tag_35\n      jump\t// in\n    tag_140:\n        /* \"#utility.yul\":5461:5578   */\n    tag_139:\n        /* \"#utility.yul\":5602:5664   */\n      tag_141\n        /* \"#utility.yul\":5656:5663   */\n      dup6\n        /* \"#utility.yul\":5647:5653   */\n      dup3\n        /* \"#utility.yul\":5636:5645   */\n      dup7\n        /* \"#utility.yul\":5632:5654   */\n      add\n        /* \"#utility.yul\":5602:5664   */\n      tag_56\n      jump\t// in\n    tag_141:\n        /* \"#utility.yul\":5592:5664   */\n      swap3\n      pop\n        /* \"#utility.yul\":5388:5674   */\n      pop\n        /* \"#utility.yul\":5713:5715   */\n      0x20\n        /* \"#utility.yul\":5739:5792   */\n      tag_142\n        /* \"#utility.yul\":5784:5791   */\n      dup6\n        /* \"#utility.yul\":5775:5781   */\n      dup3\n        /* \"#utility.yul\":5764:5773   */\n      dup7\n        /* \"#utility.yul\":5760:5782   */\n      add\n        /* \"#utility.yul\":5739:5792   */\n      tag_42\n      jump\t// in\n    tag_142:\n        /* \"#utility.yul\":5729:5792   */\n      swap2\n      pop\n        /* \"#utility.yul\":5684:5802   */\n      pop\n        /* \"#utility.yul\":5157:5809   */\n      swap3\n      pop\n      swap3\n      swap1\n      pop\n      jump\t// out\n        /* \"#utility.yul\":5815:5933   */\n    tag_57:\n        /* \"#utility.yul\":5902:5926   */\n      tag_144\n        /* \"#utility.yul\":5920:5925   */\n      dup2\n        /* \"#utility.yul\":5902:5926   */\n      tag_37\n      jump\t// in\n    tag_144:\n        /* \"#utility.yul\":5897:5900   */\n      dup3\n        /* \"#utility.yul\":5890:5927   */\n      mstore\n        /* \"#utility.yul\":5815:5933   */\n      pop\n      pop\n      jump\t// out\n        /* \"#utility.yul\":5939:6161   */\n    tag_18:\n        /* \"#utility.yul\":6032:6036   */\n      0x00\n        /* \"#utility.yul\":6070:6072   */\n      0x20\n        /* \"#utility.yul\":6059:6068   */\n      dup3\n        /* \"#utility.yul\":6055:6073   */\n      add\n        /* \"#utility.yul\":6047:6073   */\n      swap1\n      pop\n        /* \"#utility.yul\":6083:6154   */\n      tag_146\n        /* \"#utility.yul\":6151:6152   */\n      0x00\n        /* \"#utility.yul\":6140:6149   */\n      dup4\n        /* \"#utility.yul\":6136:6153   */\n      add\n        /* \"#utility.yul\":6127:6133   */\n      dup5\n        /* \"#utility.yul\":6083:6154   */\n      tag_57\n      jump\t// in\n    tag_146:\n        /* \"#utility.yul\":5939:6161   */\n      swap3\n      swap2\n      pop\n      pop\n      jump\t// out\n        /* \"#utility.yul\":6167:6285   */\n    tag_58:\n        /* \"#utility.yul\":6254:6278   */\n      tag_148\n        /* \"#utility.yul\":6272:6277   */\n      dup2\n        /* \"#utility.yul\":6254:6278   */\n      tag_40\n      jump\t// in\n    tag_148:\n        /* \"#utility.yul\":6249:6252   */\n      dup3\n        /* \"#utility.yul\":6242:6279   */\n      mstore\n        /* \"#utility.yul\":6167:6285   */\n      pop\n      pop\n      jump\t// out\n        /* \"#utility.yul\":6291:6623   */\n    tag_26:\n        /* \"#utility.yul\":6412:6416   */\n      0x00\n        /* \"#utility.yul\":6450:6452   */\n      0x40\n        /* \"#utility.yul\":6439:6448   */\n      dup3\n        /* \"#utility.yul\":6435:6453   */\n      add\n        /* \"#utility.yul\":6427:6453   */\n      swap1\n      pop\n        /* \"#utility.yul\":6463:6534   */\n      tag_150\n        /* \"#utility.yul\":6531:6532   */\n      0x00\n        /* \"#utility.yul\":6520:6529   */\n      dup4\n        /* \"#utility.yul\":6516:6533   */\n      add\n        /* \"#utility.yul\":6507:6513   */\n      dup6\n        /* \"#utility.yul\":6463:6534   */\n      tag_57\n      jump\t// in\n    tag_150:\n        /* \"#utility.yul\":6544:6616   */\n      tag_151\n        /* \"#utility.yul\":6612:6614   */\n      0x20\n        /* \"#utility.yul\":6601:6610   */\n      dup4\n        /* \"#utility.yul\":6597:6615   */\n      add\n        /* \"#utility.yul\":6588:6594   */\n      dup5\n        /* \"#utility.yul\":6544:6616   */\n      tag_58\n      jump\t// in\n    tag_151:\n        /* \"#utility.yul\":6291:6623   */\n      swap4\n      swap3\n      pop\n      pop\n      pop\n      jump\t// out\n        /* \"#utility.yul\":6629:6776   */\n    tag_59:\n        /* \"#utility.yul\":6730:6741   */\n      0x00\n        /* \"#utility.yul\":6767:6770   */\n      dup2\n        /* \"#utility.yul\":6752:6770   */\n      swap1\n      pop\n        /* \"#utility.yul\":6629:6776   */\n      swap3\n      swap2\n      pop\n      pop\n      jump\t// out\n        /* \"#utility.yul\":6782:7155   */\n    tag_60:\n        /* \"#utility.yul\":6886:6889   */\n      0x00\n        /* \"#utility.yul\":6914:6952   */\n      tag_154\n        /* \"#utility.yul\":6946:6951   */\n      dup3\n        /* \"#utility.yul\":6914:6952   */\n      tag_43\n      jump\t// in\n    tag_154:\n        /* \"#utility.yul\":6968:7056   */\n      tag_155\n        /* \"#utility.yul\":7049:7055   */\n      dup2\n        /* \"#utility.yul\":7044:7047   */\n      dup6\n        /* \"#utility.yul\":6968:7056   */\n      tag_59\n      jump\t// in\n    tag_155:\n        /* \"#utility.yul\":6961:7056   */\n      swap4\n      pop\n        /* \"#utility.yul\":7065:7117   */\n      tag_156\n        /* \"#utility.yul\":7110:7116   */\n      dup2\n        /* \"#utility.yul\":7105:7108   */\n      dup6\n        /* \"#utility.yul\":7098:7102   */\n      0x20\n        /* \"#utility.yul\":7091:7096   */\n      dup7\n        /* \"#utility.yul\":7087:7103   */\n      add\n        /* \"#utility.yul\":7065:7117   */\n      tag_45\n      jump\t// in\n    tag_156:\n        /* \"#utility.yul\":7142:7148   */\n      dup1\n        /* \"#utility.yul\":7137:7140   */\n      dup5\n        /* \"#utility.yul\":7133:7149   */\n      add\n        /* \"#utility.yul\":7126:7149   */\n      swap2\n      pop\n        /* \"#utility.yul\":6890:7155   */\n      pop\n        /* \"#utility.yul\":6782:7155   */\n      swap3\n      swap2\n      pop\n      pop\n      jump\t// out\n        /* \"#utility.yul\":7161:7588   */\n    tag_28:\n        /* \"#utility.yul\":7337:7340   */\n      0x00\n        /* \"#utility.yul\":7359:7452   */\n      tag_158\n        /* \"#utility.yul\":7448:7451   */\n      dup3\n        /* \"#utility.yul\":7439:7445   */\n      dup6\n        /* \"#utility.yul\":7359:7452   */\n      tag_60\n      jump\t// in\n    tag_158:\n        /* \"#utility.yul\":7352:7452   */\n      swap2\n      pop\n        /* \"#utility.yul\":7469:7562   */\n      tag_159\n        /* \"#utility.yul\":7558:7561   */\n      dup3\n        /* \"#utility.yul\":7549:7555   */\n      dup5\n        /* \"#utility.yul\":7469:7562   */\n      tag_60\n      jump\t// in\n    tag_159:\n        /* \"#utility.yul\":7462:7562   */\n      swap2\n      pop\n        /* \"#utility.yul\":7579:7582   */\n      dup2\n        /* \"#utility.yul\":7572:7582   */\n      swap1\n      pop\n        /* \"#utility.yul\":7161:7588   */\n      swap4\n      swap3\n      pop\n      pop\n      pop\n      jump\t// out\n        /* \"#utility.yul\":7594:7743   */\n    tag_61:\n        /* \"#utility.yul\":7630:7637   */\n      0x00\n        /* \"#utility.yul\":7670:7736   */\n      0xff00000000000000000000000000000000000000000000000000000000000000\n        /* \"#utility.yul\":7663:7668   */\n      dup3\n        /* \"#utility.yul\":7659:7737   */\n      and\n        /* \"#utility.yul\":7648:7737   */\n      swap1\n      pop\n        /* \"#utility.yul\":7594:7743   */\n      swap2\n      swap1\n      pop\n      jump\t// out\n        /* \"#utility.yul\":7749:7827   */\n    tag_62:\n        /* \"#utility.yul\":7787:7794   */\n      0x00\n        /* \"#utility.yul\":7816:7821   */\n      dup2\n        /* \"#utility.yul\":7805:7821   */\n      swap1\n      pop\n        /* \"#utility.yul\":7749:7827   */\n      swap2\n      swap1\n      pop\n      jump\t// out\n        /* \"#utility.yul\":7833:7986   */\n    tag_63:\n        /* \"#utility.yul\":7936:7979   */\n      tag_163\n        /* \"#utility.yul\":7955:7978   */\n      tag_164\n        /* \"#utility.yul\":7972:7977   */\n      dup3\n        /* \"#utility.yul\":7955:7978   */\n      tag_61\n      jump\t// in\n    tag_164:\n        /* \"#utility.yul\":7936:7979   */\n      tag_62\n      jump\t// in\n    tag_163:\n        /* \"#utility.yul\":7931:7934   */\n      dup3\n        /* \"#utility.yul\":7924:7980   */\n      mstore\n        /* \"#utility.yul\":7833:7986   */\n      pop\n      pop\n      jump\t// out\n        /* \"#utility.yul\":7992:8086   */\n    tag_64:\n        /* \"#utility.yul\":8025:8033   */\n      0x00\n        /* \"#utility.yul\":8073:8078   */\n      dup2\n        /* \"#utility.yul\":8069:8071   */\n      0x60\n        /* \"#utility.yul\":8065:8079   */\n      shl\n        /* \"#utility.yul\":8044:8079   */\n      swap1\n      pop\n        /* \"#utility.yul\":7992:8086   */\n      swap2\n      swap1\n      pop\n      jump\t// out\n        /* \"#utility.yul\":8092:8186   */\n    tag_65:\n        /* \"#utility.yul\":8131:8138   */\n      0x00\n        /* \"#utility.yul\":8160:8180   */\n      tag_167\n        /* \"#utility.yul\":8174:8179   */\n      dup3\n        /* \"#utility.yul\":8160:8180   */\n      tag_64\n      jump\t// in\n    tag_167:\n        /* \"#utility.yul\":8149:8180   */\n      swap1\n      pop\n        /* \"#utility.yul\":8092:8186   */\n      swap2\n      swap1\n      pop\n      jump\t// out\n        /* \"#utility.yul\":8192:8292   */\n    tag_66:\n        /* \"#utility.yul\":8231:8238   */\n      0x00\n        /* \"#utility.yul\":8260:8286   */\n      tag_169\n        /* \"#utility.yul\":8280:8285   */\n      dup3\n        /* \"#utility.yul\":8260:8286   */\n      tag_65\n      jump\t// in\n    tag_169:\n        /* \"#utility.yul\":8249:8286   */\n      swap1\n      pop\n        /* \"#utility.yul\":8192:8292   */\n      swap2\n      swap1\n      pop\n      jump\t// out\n        /* \"#utility.yul\":8298:8455   */\n    tag_67:\n        /* \"#utility.yul\":8403:8448   */\n      tag_171\n        /* \"#utility.yul\":8423:8447   */\n      tag_172\n        /* \"#utility.yul\":8441:8446   */\n      dup3\n        /* \"#utility.yul\":8423:8447   */\n      tag_37\n      jump\t// in\n    tag_172:\n        /* \"#utility.yul\":8403:8448   */\n      tag_66\n      jump\t// in\n    tag_171:\n        /* \"#utility.yul\":8398:8401   */\n      dup3\n        /* \"#utility.yul\":8391:8449   */\n      mstore\n        /* \"#utility.yul\":8298:8455   */\n      pop\n      pop\n      jump\t// out\n        /* \"#utility.yul\":8461:8540   */\n    tag_68:\n        /* \"#utility.yul\":8500:8507   */\n      0x00\n        /* \"#utility.yul\":8529:8534   */\n      dup2\n        /* \"#utility.yul\":8518:8534   */\n      swap1\n      pop\n        /* \"#utility.yul\":8461:8540   */\n      swap2\n      swap1\n      pop\n      jump\t// out\n        /* \"#utility.yul\":8546:8703   */\n    tag_69:\n        /* \"#utility.yul\":8651:8696   */\n      tag_175\n        /* \"#utility.yul\":8671:8695   */\n      tag_176\n        /* \"#utility.yul\":8689:8694   */\n      dup3\n        /* \"#utility.yul\":8671:8695   */\n      tag_40\n      jump\t// in\n    tag_176:\n        /* \"#utility.yul\":8651:8696   */\n      tag_68\n      jump\t// in\n    tag_175:\n        /* \"#utility.yul\":8646:8649   */\n      dup3\n        /* \"#utility.yul\":8639:8697   */\n      mstore\n        /* \"#utility.yul\":8546:8703   */\n      pop\n      pop\n      jump\t// out\n        /* \"#utility.yul\":8709:8786   */\n    tag_70:\n        /* \"#utility.yul\":8746:8753   */\n      0x00\n        /* \"#utility.yul\":8775:8780   */\n      dup2\n        /* \"#utility.yul\":8764:8780   */\n      swap1\n      pop\n        /* \"#utility.yul\":8709:8786   */\n      swap2\n      swap1\n      pop\n      jump\t// out\n        /* \"#utility.yul\":8792:8871   */\n    tag_71:\n        /* \"#utility.yul\":8831:8838   */\n      0x00\n        /* \"#utility.yul\":8860:8865   */\n      dup2\n        /* \"#utility.yul\":8849:8865   */\n      swap1\n      pop\n        /* \"#utility.yul\":8792:8871   */\n      swap2\n      swap1\n      pop\n      jump\t// out\n        /* \"#utility.yul\":8877:9034   */\n    tag_72:\n        /* \"#utility.yul\":8982:9027   */\n      tag_180\n        /* \"#utility.yul\":9002:9026   */\n      tag_181\n        /* \"#utility.yul\":9020:9025   */\n      dup3\n        /* \"#utility.yul\":9002:9026   */\n      tag_70\n      jump\t// in\n    tag_181:\n        /* \"#utility.yul\":8982:9027   */\n      tag_71\n      jump\t// in\n    tag_180:\n        /* \"#utility.yul\":8977:8980   */\n      dup3\n        /* \"#utility.yul\":8970:9028   */\n      mstore\n        /* \"#utility.yul\":8877:9034   */\n      pop\n      pop\n      jump\t// out\n        /* \"#utility.yul\":9040:9714   */\n    tag_31:\n        /* \"#utility.yul\":9234:9237   */\n      0x00\n        /* \"#utility.yul\":9249:9322   */\n      tag_183\n        /* \"#utility.yul\":9318:9321   */\n      dup3\n        /* \"#utility.yul\":9309:9315   */\n      dup8\n        /* \"#utility.yul\":9249:9322   */\n      tag_63\n      jump\t// in\n    tag_183:\n        /* \"#utility.yul\":9347:9348   */\n      0x01\n        /* \"#utility.yul\":9342:9345   */\n      dup3\n        /* \"#utility.yul\":9338:9349   */\n      add\n        /* \"#utility.yul\":9331:9349   */\n      swap2\n      pop\n        /* \"#utility.yul\":9359:9434   */\n      tag_184\n        /* \"#utility.yul\":9430:9433   */\n      dup3\n        /* \"#utility.yul\":9421:9427   */\n      dup7\n        /* \"#utility.yul\":9359:9434   */\n      tag_67\n      jump\t// in\n    tag_184:\n        /* \"#utility.yul\":9459:9461   */\n      0x14\n        /* \"#utility.yul\":9454:9457   */\n      dup3\n        /* \"#utility.yul\":9450:9462   */\n      add\n        /* \"#utility.yul\":9443:9462   */\n      swap2\n      pop\n        /* \"#utility.yul\":9472:9547   */\n      tag_185\n        /* \"#utility.yul\":9543:9546   */\n      dup3\n        /* \"#utility.yul\":9534:9540   */\n      dup6\n        /* \"#utility.yul\":9472:9547   */\n      tag_69\n      jump\t// in\n    tag_185:\n        /* \"#utility.yul\":9572:9574   */\n      0x20\n        /* \"#utility.yul\":9567:9570   */\n      dup3\n        /* \"#utility.yul\":9563:9575   */\n      add\n        /* \"#utility.yul\":9556:9575   */\n      swap2\n      pop\n        /* \"#utility.yul\":9585:9660   */\n      tag_186\n        /* \"#utility.yul\":9656:9659   */\n      dup3\n        /* \"#utility.yul\":9647:9653   */\n      dup5\n        /* \"#utility.yul\":9585:9660   */\n      tag_72\n      jump\t// in\n    tag_186:\n        /* \"#utility.yul\":9685:9687   */\n      0x20\n        /* \"#utility.yul\":9680:9683   */\n      dup3\n        /* \"#utility.yul\":9676:9688   */\n      add\n        /* \"#utility.yul\":9669:9688   */\n      swap2\n      pop\n        /* \"#utility.yul\":9705:9708   */\n      dup2\n        /* \"#utility.yul\":9698:9708   */\n      swap1\n      pop\n        /* \"#utility.yul\":9040:9714   */\n      swap6\n      swap5\n      pop\n      pop\n      pop\n      pop\n      pop\n      jump\t// out\n    stop\n\n    sub_0: assembly {\n            /* \"contracts/utils/Create2Example2.sol\":1815:2100  contract TestContract {... */\n          mstore(0x40, 0x80)\n            /* \"contracts/utils/Create2Example2.sol\":1894:1995  constructor(address _owner, uint256 _foo) payable {... */\n          mload(0x40)\n          sub(codesize, bytecodeSize)\n          dup1\n          bytecodeSize\n          dup4\n          codecopy\n          dup2\n          dup2\n          add\n          0x40\n          mstore\n          dup2\n          add\n          swap1\n          tag_1\n          swap2\n          swap1\n          tag_2\n          jump\t// in\n        tag_1:\n            /* \"contracts/utils/Create2Example2.sol\":1962:1968  _owner */\n          dup2\n            /* \"contracts/utils/Create2Example2.sol\":1954:1959  owner */\n          0x00\n          dup1\n            /* \"contracts/utils/Create2Example2.sol\":1954:1968  owner = _owner */\n          0x0100\n          exp\n          dup2\n          sload\n          dup2\n          0xffffffffffffffffffffffffffffffffffffffff\n          mul\n          not\n          and\n          swap1\n          dup4\n          0xffffffffffffffffffffffffffffffffffffffff\n          and\n          mul\n          or\n          swap1\n          sstore\n          pop\n            /* \"contracts/utils/Create2Example2.sol\":1984:1988  _foo */\n          dup1\n            /* \"contracts/utils/Create2Example2.sol\":1978:1981  foo */\n          0x01\n            /* \"contracts/utils/Create2Example2.sol\":1978:1988  foo = _foo */\n          dup2\n          swap1\n          sstore\n          pop\n            /* \"contracts/utils/Create2Example2.sol\":1894:1995  constructor(address _owner, uint256 _foo) payable {... */\n          pop\n          pop\n            /* \"contracts/utils/Create2Example2.sol\":1815:2100  contract TestContract {... */\n          jump(tag_5)\n            /* \"#utility.yul\":88:205   */\n        tag_7:\n            /* \"#utility.yul\":197:198   */\n          0x00\n            /* \"#utility.yul\":194:195   */\n          dup1\n            /* \"#utility.yul\":187:199   */\n          revert\n            /* \"#utility.yul\":334:460   */\n        tag_9:\n            /* \"#utility.yul\":371:378   */\n          0x00\n            /* \"#utility.yul\":411:453   */\n          0xffffffffffffffffffffffffffffffffffffffff\n            /* \"#utility.yul\":404:409   */\n          dup3\n            /* \"#utility.yul\":400:454   */\n          and\n            /* \"#utility.yul\":389:454   */\n          swap1\n          pop\n            /* \"#utility.yul\":334:460   */\n          swap2\n          swap1\n          pop\n          jump\t// out\n            /* \"#utility.yul\":466:562   */\n        tag_10:\n            /* \"#utility.yul\":503:510   */\n          0x00\n            /* \"#utility.yul\":532:556   */\n          tag_22\n            /* \"#utility.yul\":550:555   */\n          dup3\n            /* \"#utility.yul\":532:556   */\n          tag_9\n          jump\t// in\n        tag_22:\n            /* \"#utility.yul\":521:556   */\n          swap1\n          pop\n            /* \"#utility.yul\":466:562   */\n          swap2\n          swap1\n          pop\n          jump\t// out\n            /* \"#utility.yul\":568:690   */\n        tag_11:\n            /* \"#utility.yul\":641:665   */\n          tag_24\n            /* \"#utility.yul\":659:664   */\n          dup2\n            /* \"#utility.yul\":641:665   */\n          tag_10\n          jump\t// in\n        tag_24:\n            /* \"#utility.yul\":634:639   */\n          dup2\n            /* \"#utility.yul\":631:666   */\n          eq\n            /* \"#utility.yul\":621:684   */\n          tag_25\n          jumpi\n            /* \"#utility.yul\":680:681   */\n          0x00\n            /* \"#utility.yul\":677:678   */\n          dup1\n            /* \"#utility.yul\":670:682   */\n          revert\n            /* \"#utility.yul\":621:684   */\n        tag_25:\n            /* \"#utility.yul\":568:690   */\n          pop\n          jump\t// out\n            /* \"#utility.yul\":696:839   */\n        tag_12:\n            /* \"#utility.yul\":753:758   */\n          0x00\n            /* \"#utility.yul\":784:790   */\n          dup2\n            /* \"#utility.yul\":778:791   */\n          mload\n            /* \"#utility.yul\":769:791   */\n          swap1\n          pop\n            /* \"#utility.yul\":800:833   */\n          tag_27\n            /* \"#utility.yul\":827:832   */\n          dup2\n            /* \"#utility.yul\":800:833   */\n          tag_11\n          jump\t// in\n        tag_27:\n            /* \"#utility.yul\":696:839   */\n          swap3\n          swap2\n          pop\n          pop\n          jump\t// out\n            /* \"#utility.yul\":845:922   */\n        tag_13:\n            /* \"#utility.yul\":882:889   */\n          0x00\n            /* \"#utility.yul\":911:916   */\n          dup2\n            /* \"#utility.yul\":900:916   */\n          swap1\n          pop\n            /* \"#utility.yul\":845:922   */\n          swap2\n          swap1\n          pop\n          jump\t// out\n            /* \"#utility.yul\":928:1050   */\n        tag_14:\n            /* \"#utility.yul\":1001:1025   */\n          tag_30\n            /* \"#utility.yul\":1019:1024   */\n          dup2\n            /* \"#utility.yul\":1001:1025   */\n          tag_13\n          jump\t// in\n        tag_30:\n            /* \"#utility.yul\":994:999   */\n          dup2\n            /* \"#utility.yul\":991:1026   */\n          eq\n            /* \"#utility.yul\":981:1044   */\n          tag_31\n          jumpi\n            /* \"#utility.yul\":1040:1041   */\n          0x00\n            /* \"#utility.yul\":1037:1038   */\n          dup1\n            /* \"#utility.yul\":1030:1042   */\n          revert\n            /* \"#utility.yul\":981:1044   */\n        tag_31:\n            /* \"#utility.yul\":928:1050   */\n          pop\n          jump\t// out\n            /* \"#utility.yul\":1056:1199   */\n        tag_15:\n            /* \"#utility.yul\":1113:1118   */\n          0x00\n            /* \"#utility.yul\":1144:1150   */\n          dup2\n            /* \"#utility.yul\":1138:1151   */\n          mload\n            /* \"#utility.yul\":1129:1151   */\n          swap1\n          pop\n            /* \"#utility.yul\":1160:1193   */\n          tag_33\n            /* \"#utility.yul\":1187:1192   */\n          dup2\n            /* \"#utility.yul\":1160:1193   */\n          tag_14\n          jump\t// in\n        tag_33:\n            /* \"#utility.yul\":1056:1199   */\n          swap3\n          swap2\n          pop\n          pop\n          jump\t// out\n            /* \"#utility.yul\":1205:1712   */\n        tag_2:\n            /* \"#utility.yul\":1284:1290   */\n          0x00\n            /* \"#utility.yul\":1292:1298   */\n          dup1\n            /* \"#utility.yul\":1341:1343   */\n          0x40\n            /* \"#utility.yul\":1329:1338   */\n          dup4\n            /* \"#utility.yul\":1320:1327   */\n          dup6\n            /* \"#utility.yul\":1316:1339   */\n          sub\n            /* \"#utility.yul\":1312:1344   */\n          slt\n            /* \"#utility.yul\":1309:1428   */\n          iszero\n          tag_35\n          jumpi\n            /* \"#utility.yul\":1347:1426   */\n          tag_36\n          tag_7\n          jump\t// in\n        tag_36:\n            /* \"#utility.yul\":1309:1428   */\n        tag_35:\n            /* \"#utility.yul\":1467:1468   */\n          0x00\n            /* \"#utility.yul\":1492:1556   */\n          tag_37\n            /* \"#utility.yul\":1548:1555   */\n          dup6\n            /* \"#utility.yul\":1539:1545   */\n          dup3\n            /* \"#utility.yul\":1528:1537   */\n          dup7\n            /* \"#utility.yul\":1524:1546   */\n          add\n            /* \"#utility.yul\":1492:1556   */\n          tag_12\n          jump\t// in\n        tag_37:\n            /* \"#utility.yul\":1482:1556   */\n          swap3\n          pop\n            /* \"#utility.yul\":1438:1566   */\n          pop\n            /* \"#utility.yul\":1605:1607   */\n          0x20\n            /* \"#utility.yul\":1631:1695   */\n          tag_38\n            /* \"#utility.yul\":1687:1694   */\n          dup6\n            /* \"#utility.yul\":1678:1684   */\n          dup3\n            /* \"#utility.yul\":1667:1676   */\n          dup7\n            /* \"#utility.yul\":1663:1685   */\n          add\n            /* \"#utility.yul\":1631:1695   */\n          tag_15\n          jump\t// in\n        tag_38:\n            /* \"#utility.yul\":1621:1695   */\n          swap2\n          pop\n            /* \"#utility.yul\":1576:1705   */\n          pop\n            /* \"#utility.yul\":1205:1712   */\n          swap3\n          pop\n          swap3\n          swap1\n          pop\n          jump\t// out\n            /* \"contracts/utils/Create2Example2.sol\":1815:2100  contract TestContract {... */\n        tag_5:\n          dataSize(sub_0)\n          dup1\n          dataOffset(sub_0)\n          0x00\n          codecopy\n          0x00\n          return\n        stop\n\n        sub_0: assembly {\n                /* \"contracts/utils/Create2Example2.sol\":1815:2100  contract TestContract {... */\n              mstore(0x40, 0x80)\n              callvalue\n              dup1\n              iszero\n              tag_1\n              jumpi\n              0x00\n              dup1\n              revert\n            tag_1:\n              pop\n              jumpi(tag_2, lt(calldatasize, 0x04))\n              shr(0xe0, calldataload(0x00))\n              dup1\n              0x12065fe0\n              eq\n              tag_3\n              jumpi\n              dup1\n              0x8da5cb5b\n              eq\n              tag_4\n              jumpi\n              dup1\n              0xc2985578\n              eq\n              tag_5\n              jumpi\n            tag_2:\n              0x00\n              dup1\n              revert\n                /* \"contracts/utils/Create2Example2.sol\":2001:2098  function getBalance() public view returns (uint256) {... */\n            tag_3:\n              tag_6\n              tag_7\n              jump\t// in\n            tag_6:\n              mload(0x40)\n              tag_8\n              swap2\n              swap1\n              tag_9\n              jump\t// in\n            tag_8:\n              mload(0x40)\n              dup1\n              swap2\n              sub\n              swap1\n              return\n                /* \"contracts/utils/Create2Example2.sol\":1843:1863  address public owner */\n            tag_4:\n              tag_10\n              tag_11\n              jump\t// in\n            tag_10:\n              mload(0x40)\n              tag_12\n              swap2\n              swap1\n              tag_13\n              jump\t// in\n            tag_12:\n              mload(0x40)\n              dup1\n              swap2\n              sub\n              swap1\n              return\n                /* \"contracts/utils/Create2Example2.sol\":1869:1887  uint256 public foo */\n            tag_5:\n              tag_14\n              tag_15\n              jump\t// in\n            tag_14:\n              mload(0x40)\n              tag_16\n              swap2\n              swap1\n              tag_9\n              jump\t// in\n            tag_16:\n              mload(0x40)\n              dup1\n              swap2\n              sub\n              swap1\n              return\n                /* \"contracts/utils/Create2Example2.sol\":2001:2098  function getBalance() public view returns (uint256) {... */\n            tag_7:\n                /* \"contracts/utils/Create2Example2.sol\":2044:2051  uint256 */\n              0x00\n                /* \"contracts/utils/Create2Example2.sol\":2070:2091  address(this).balance */\n              selfbalance\n                /* \"contracts/utils/Create2Example2.sol\":2063:2091  return address(this).balance */\n              swap1\n              pop\n                /* \"contracts/utils/Create2Example2.sol\":2001:2098  function getBalance() public view returns (uint256) {... */\n              swap1\n              jump\t// out\n                /* \"contracts/utils/Create2Example2.sol\":1843:1863  address public owner */\n            tag_11:\n              0x00\n              dup1\n              sload\n              swap1\n              0x0100\n              exp\n              swap1\n              div\n              0xffffffffffffffffffffffffffffffffffffffff\n              and\n              dup2\n              jump\t// out\n                /* \"contracts/utils/Create2Example2.sol\":1869:1887  uint256 public foo */\n            tag_15:\n              sload(0x01)\n              dup2\n              jump\t// out\n                /* \"#utility.yul\":7:84   */\n            tag_18:\n                /* \"#utility.yul\":44:51   */\n              0x00\n                /* \"#utility.yul\":73:78   */\n              dup2\n                /* \"#utility.yul\":62:78   */\n              swap1\n              pop\n                /* \"#utility.yul\":7:84   */\n              swap2\n              swap1\n              pop\n              jump\t// out\n                /* \"#utility.yul\":90:208   */\n            tag_19:\n                /* \"#utility.yul\":177:201   */\n              tag_26\n                /* \"#utility.yul\":195:200   */\n              dup2\n                /* \"#utility.yul\":177:201   */\n              tag_18\n              jump\t// in\n            tag_26:\n                /* \"#utility.yul\":172:175   */\n              dup3\n                /* \"#utility.yul\":165:202   */\n              mstore\n                /* \"#utility.yul\":90:208   */\n              pop\n              pop\n              jump\t// out\n                /* \"#utility.yul\":214:436   */\n            tag_9:\n                /* \"#utility.yul\":307:311   */\n              0x00\n                /* \"#utility.yul\":345:347   */\n              0x20\n                /* \"#utility.yul\":334:343   */\n              dup3\n                /* \"#utility.yul\":330:348   */\n              add\n                /* \"#utility.yul\":322:348   */\n              swap1\n              pop\n                /* \"#utility.yul\":358:429   */\n              tag_28\n                /* \"#utility.yul\":426:427   */\n              0x00\n                /* \"#utility.yul\":415:424   */\n              dup4\n                /* \"#utility.yul\":411:428   */\n              add\n                /* \"#utility.yul\":402:408   */\n              dup5\n                /* \"#utility.yul\":358:429   */\n              tag_19\n              jump\t// in\n            tag_28:\n                /* \"#utility.yul\":214:436   */\n              swap3\n              swap2\n              pop\n              pop\n              jump\t// out\n                /* \"#utility.yul\":442:568   */\n            tag_20:\n                /* \"#utility.yul\":479:486   */\n              0x00\n                /* \"#utility.yul\":519:561   */\n              0xffffffffffffffffffffffffffffffffffffffff\n                /* \"#utility.yul\":512:517   */\n              dup3\n                /* \"#utility.yul\":508:562   */\n              and\n                /* \"#utility.yul\":497:562   */\n              swap1\n              pop\n                /* \"#utility.yul\":442:568   */\n              swap2\n              swap1\n              pop\n              jump\t// out\n                /* \"#utility.yul\":574:670   */\n            tag_21:\n                /* \"#utility.yul\":611:618   */\n              0x00\n                /* \"#utility.yul\":640:664   */\n              tag_31\n                /* \"#utility.yul\":658:663   */\n              dup3\n                /* \"#utility.yul\":640:664   */\n              tag_20\n              jump\t// in\n            tag_31:\n                /* \"#utility.yul\":629:664   */\n              swap1\n              pop\n                /* \"#utility.yul\":574:670   */\n              swap2\n              swap1\n              pop\n              jump\t// out\n                /* \"#utility.yul\":676:794   */\n            tag_22:\n                /* \"#utility.yul\":763:787   */\n              tag_33\n                /* \"#utility.yul\":781:786   */\n              dup2\n                /* \"#utility.yul\":763:787   */\n              tag_21\n              jump\t// in\n            tag_33:\n                /* \"#utility.yul\":758:761   */\n              dup3\n                /* \"#utility.yul\":751:788   */\n              mstore\n                /* \"#utility.yul\":676:794   */\n              pop\n              pop\n              jump\t// out\n                /* \"#utility.yul\":800:1022   */\n            tag_13:\n                /* \"#utility.yul\":893:897   */\n              0x00\n                /* \"#utility.yul\":931:933   */\n              0x20\n                /* \"#utility.yul\":920:929   */\n              dup3\n                /* \"#utility.yul\":916:934   */\n              add\n                /* \"#utility.yul\":908:934   */\n              swap1\n              pop\n                /* \"#utility.yul\":944:1015   */\n              tag_35\n                /* \"#utility.yul\":1012:1013   */\n              0x00\n                /* \"#utility.yul\":1001:1010   */\n              dup4\n                /* \"#utility.yul\":997:1014   */\n              add\n                /* \"#utility.yul\":988:994   */\n              dup5\n                /* \"#utility.yul\":944:1015   */\n              tag_22\n              jump\t// in\n            tag_35:\n                /* \"#utility.yul\":800:1022   */\n              swap3\n              swap2\n              pop\n              pop\n              jump\t// out\n\n            auxdata: 0xa26469706673582212205a4ae0ac5e53301e60d3e77eca722c76f1b371d4abdc06fbb52f672cd90867da64736f6c634300080f0033\n        }\n    }\n\n    auxdata: 0xa26469706673582212200f2fd2b2be2267b16164c85edcdec343a38cecb684da8df8a0f6802d25883e7164736f6c634300080f0033\n}\n",
				"bytecode": {
					"linkReferences": {},
					"object": "608060405234801561001057600080fd5b506109fc806100206000396000f3fe6080604052600436106100345760003560e01c806381871cbc1461003957806394ca2cb5146100765780639c4ae2d0146100b3575b600080fd5b34801561004557600080fd5b50610060600480360381019061005b9190610256565b6100cf565b60405161006d919061032f565b60405180910390f35b34801561008257600080fd5b5061009d60048036038101906100989190610486565b610145565b6040516100aa91906104f1565b60405180910390f35b6100cd60048036038101906100c89190610486565b61018f565b005b60606000604051806020016100e3906101a1565b6020820181038252601f19601f82011660405250905080848460405160200161010d92919061051b565b60405160208183030381529060405260405160200161012d929190610580565b60405160208183030381529060405291505092915050565b60008060ff60f81b3084868051906020012060405160200161016a9493929190610685565b6040516020818303038152906040528051906020012090508060001c91505092915050565b60008183516020850134f59050505050565b6102f3806106d483390190565b6000604051905090565b600080fd5b600080fd5b600073ffffffffffffffffffffffffffffffffffffffff82169050919050565b60006101ed826101c2565b9050919050565b6101fd816101e2565b811461020857600080fd5b50565b60008135905061021a816101f4565b92915050565b6000819050919050565b61023381610220565b811461023e57600080fd5b50565b6000813590506102508161022a565b92915050565b6000806040838503121561026d5761026c6101b8565b5b600061027b8582860161020b565b925050602061028c85828601610241565b9150509250929050565b600081519050919050565b600082825260208201905092915050565b60005b838110156102d05780820151818401526020810190506102b5565b838111156102df576000848401525b50505050565b6000601f19601f8301169050919050565b600061030182610296565b61030b81856102a1565b935061031b8185602086016102b2565b610324816102e5565b840191505092915050565b6000602082019050818103600083015261034981846102f6565b905092915050565b600080fd5b600080fd5b7f4e487b7100000000000000000000000000000000000000000000000000000000600052604160045260246000fd5b610393826102e5565b810181811067ffffffffffffffff821117156103b2576103b161035b565b5b80604052505050565b60006103c56101ae565b90506103d1828261038a565b919050565b600067ffffffffffffffff8211156103f1576103f061035b565b5b6103fa826102e5565b9050602081019050919050565b82818337600083830152505050565b6000610429610424846103d6565b6103bb565b90508281526020810184848401111561044557610444610356565b5b610450848285610407565b509392505050565b600082601f83011261046d5761046c610351565b5b813561047d848260208601610416565b91505092915050565b6000806040838503121561049d5761049c6101b8565b5b600083013567ffffffffffffffff8111156104bb576104ba6101bd565b5b6104c785828601610458565b92505060206104d885828601610241565b9150509250929050565b6104eb816101e2565b82525050565b600060208201905061050660008301846104e2565b92915050565b61051581610220565b82525050565b600060408201905061053060008301856104e2565b61053d602083018461050c565b9392505050565b600081905092915050565b600061055a82610296565b6105648185610544565b93506105748185602086016102b2565b80840191505092915050565b600061058c828561054f565b9150610598828461054f565b91508190509392505050565b60007fff0000000000000000000000000000000000000000000000000000000000000082169050919050565b6000819050919050565b6105eb6105e6826105a4565b6105d0565b82525050565b60008160601b9050919050565b6000610609826105f1565b9050919050565b600061061b826105fe565b9050919050565b61063361062e826101e2565b610610565b82525050565b6000819050919050565b61065461064f82610220565b610639565b82525050565b6000819050919050565b6000819050919050565b61067f61067a8261065a565b610664565b82525050565b600061069182876105da565b6001820191506106a18286610622565b6014820191506106b18285610643565b6020820191506106c1828461066e565b6020820191508190509594505050505056fe60806040526040516102f33803806102f38339818101604052810190610025919061010c565b816000806101000a81548173ffffffffffffffffffffffffffffffffffffffff021916908373ffffffffffffffffffffffffffffffffffffffff16021790555080600181905550505061014c565b600080fd5b600073ffffffffffffffffffffffffffffffffffffffff82169050919050565b60006100a382610078565b9050919050565b6100b381610098565b81146100be57600080fd5b50565b6000815190506100d0816100aa565b92915050565b6000819050919050565b6100e9816100d6565b81146100f457600080fd5b50565b600081519050610106816100e0565b92915050565b6000806040838503121561012357610122610073565b5b6000610131858286016100c1565b9250506020610142858286016100f7565b9150509250929050565b6101988061015b6000396000f3fe608060405234801561001057600080fd5b50600436106100415760003560e01c806312065fe0146100465780638da5cb5b14610064578063c298557814610082575b600080fd5b61004e6100a0565b60405161005b91906100eb565b60405180910390f35b61006c6100a8565b6040516100799190610147565b60405180910390f35b61008a6100cc565b60405161009791906100eb565b60405180910390f35b600047905090565b60008054906101000a900473ffffffffffffffffffffffffffffffffffffffff1681565b60015481565b6000819050919050565b6100e5816100d2565b82525050565b600060208201905061010060008301846100dc565b92915050565b600073ffffffffffffffffffffffffffffffffffffffff82169050919050565b600061013182610106565b9050919050565b61014181610126565b82525050565b600060208201905061015c6000830184610138565b9291505056fea26469706673582212205a4ae0ac5e53301e60d3e77eca722c76f1b371d4abdc06fbb52f672cd90867da64736f6c634300080f0033a26469706673582212200f2fd2b2be2267b16164c85edcdec343a38cecb684da8df8a0f6802d25883e7164736f6c634300080f0033",
					"opcodes": "PUSH1 0x80 PUSH1 0x40 MSTORE CALLVALUE DUP1 ISZERO PUSH2 0x10 JUMPI PUSH1 0x0 DUP1 REVERT JUMPDEST POP PUSH2 0x9FC DUP1 PUSH2 0x20 PUSH1 0x0 CODECOPY PUSH1 0x0 RETURN INVALID PUSH1 0x80 PUSH1 0x40 MSTORE PUSH1 0x4 CALLDATASIZE LT PUSH2 0x34 JUMPI PUSH1 0x0 CALLDATALOAD PUSH1 0xE0 SHR DUP1 PUSH4 0x81871CBC EQ PUSH2 0x39 JUMPI DUP1 PUSH4 0x94CA2CB5 EQ PUSH2 0x76 JUMPI DUP1 PUSH4 0x9C4AE2D0 EQ PUSH2 0xB3 JUMPI JUMPDEST PUSH1 0x0 DUP1 REVERT JUMPDEST CALLVALUE DUP1 ISZERO PUSH2 0x45 JUMPI PUSH1 0x0 DUP1 REVERT JUMPDEST POP PUSH2 0x60 PUSH1 0x4 DUP1 CALLDATASIZE SUB DUP2 ADD SWAP1 PUSH2 0x5B SWAP2 SWAP1 PUSH2 0x256 JUMP JUMPDEST PUSH2 0xCF JUMP JUMPDEST PUSH1 0x40 MLOAD PUSH2 0x6D SWAP2 SWAP1 PUSH2 0x32F JUMP JUMPDEST PUSH1 0x40 MLOAD DUP1 SWAP2 SUB SWAP1 RETURN JUMPDEST CALLVALUE DUP1 ISZERO PUSH2 0x82 JUMPI PUSH1 0x0 DUP1 REVERT JUMPDEST POP PUSH2 0x9D PUSH1 0x4 DUP1 CALLDATASIZE SUB DUP2 ADD SWAP1 PUSH2 0x98 SWAP2 SWAP1 PUSH2 0x486 JUMP JUMPDEST PUSH2 0x145 JUMP JUMPDEST PUSH1 0x40 MLOAD PUSH2 0xAA SWAP2 SWAP1 PUSH2 0x4F1 JUMP JUMPDEST PUSH1 0x40 MLOAD DUP1 SWAP2 SUB SWAP1 RETURN JUMPDEST PUSH2 0xCD PUSH1 0x4 DUP1 CALLDATASIZE SUB DUP2 ADD SWAP1 PUSH2 0xC8 SWAP2 SWAP1 PUSH2 0x486 JUMP JUMPDEST PUSH2 0x18F JUMP JUMPDEST STOP JUMPDEST PUSH1 0x60 PUSH1 0x0 PUSH1 0x40 MLOAD DUP1 PUSH1 0x20 ADD PUSH2 0xE3 SWAP1 PUSH2 0x1A1 JUMP JUMPDEST PUSH1 0x20 DUP3 ADD DUP2 SUB DUP3 MSTORE PUSH1 0x1F NOT PUSH1 0x1F DUP3 ADD AND PUSH1 0x40 MSTORE POP SWAP1 POP DUP1 DUP5 DUP5 PUSH1 0x40 MLOAD PUSH1 0x20 ADD PUSH2 0x10D SWAP3 SWAP2 SWAP1 PUSH2 0x51B JUMP JUMPDEST PUSH1 0x40 MLOAD PUSH1 0x20 DUP2 DUP4 SUB SUB DUP2 MSTORE SWAP1 PUSH1 0x40 MSTORE PUSH1 0x40 MLOAD PUSH1 0x20 ADD PUSH2 0x12D SWAP3 SWAP2 SWAP1 PUSH2 0x580 JUMP JUMPDEST PUSH1 0x40 MLOAD PUSH1 0x20 DUP2 DUP4 SUB SUB DUP2 MSTORE SWAP1 PUSH1 0x40 MSTORE SWAP2 POP POP SWAP3 SWAP2 POP POP JUMP JUMPDEST PUSH1 0x0 DUP1 PUSH1 0xFF PUSH1 0xF8 SHL ADDRESS DUP5 DUP7 DUP1 MLOAD SWAP1 PUSH1 0x20 ADD KECCAK256 PUSH1 0x40 MLOAD PUSH1 0x20 ADD PUSH2 0x16A SWAP5 SWAP4 SWAP3 SWAP2 SWAP1 PUSH2 0x685 JUMP JUMPDEST PUSH1 0x40 MLOAD PUSH1 0x20 DUP2 DUP4 SUB SUB DUP2 MSTORE SWAP1 PUSH1 0x40 MSTORE DUP1 MLOAD SWAP1 PUSH1 0x20 ADD KECCAK256 SWAP1 POP DUP1 PUSH1 0x0 SHR SWAP2 POP POP SWAP3 SWAP2 POP POP JUMP JUMPDEST PUSH1 0x0 DUP2 DUP4 MLOAD PUSH1 0x20 DUP6 ADD CALLVALUE CREATE2 SWAP1 POP POP POP POP JUMP JUMPDEST PUSH2 0x2F3 DUP1 PUSH2 0x6D4 DUP4 CODECOPY ADD SWAP1 JUMP JUMPDEST PUSH1 0x0 PUSH1 0x40 MLOAD SWAP1 POP SWAP1 JUMP JUMPDEST PUSH1 0x0 DUP1 REVERT JUMPDEST PUSH1 0x0 DUP1 REVERT JUMPDEST PUSH1 0x0 PUSH20 0xFFFFFFFFFFFFFFFFFFFFFFFFFFFFFFFFFFFFFFFF DUP3 AND SWAP1 POP SWAP2 SWAP1 POP JUMP JUMPDEST PUSH1 0x0 PUSH2 0x1ED DUP3 PUSH2 0x1C2 JUMP JUMPDEST SWAP1 POP SWAP2 SWAP1 POP JUMP JUMPDEST PUSH2 0x1FD DUP2 PUSH2 0x1E2 JUMP JUMPDEST DUP2 EQ PUSH2 0x208 JUMPI PUSH1 0x0 DUP1 REVERT JUMPDEST POP JUMP JUMPDEST PUSH1 0x0 DUP2 CALLDATALOAD SWAP1 POP PUSH2 0x21A DUP2 PUSH2 0x1F4 JUMP JUMPDEST SWAP3 SWAP2 POP POP JUMP JUMPDEST PUSH1 0x0 DUP2 SWAP1 POP SWAP2 SWAP1 POP JUMP JUMPDEST PUSH2 0x233 DUP2 PUSH2 0x220 JUMP JUMPDEST DUP2 EQ PUSH2 0x23E JUMPI PUSH1 0x0 DUP1 REVERT JUMPDEST POP JUMP JUMPDEST PUSH1 0x0 DUP2 CALLDATALOAD SWAP1 POP PUSH2 0x250 DUP2 PUSH2 0x22A JUMP JUMPDEST SWAP3 SWAP2 POP POP JUMP JUMPDEST PUSH1 0x0 DUP1 PUSH1 0x40 DUP4 DUP6 SUB SLT ISZERO PUSH2 0x26D JUMPI PUSH2 0x26C PUSH2 0x1B8 JUMP JUMPDEST JUMPDEST PUSH1 0x0 PUSH2 0x27B DUP6 DUP3 DUP7 ADD PUSH2 0x20B JUMP JUMPDEST SWAP3 POP POP PUSH1 0x20 PUSH2 0x28C DUP6 DUP3 DUP7 ADD PUSH2 0x241 JUMP JUMPDEST SWAP2 POP POP SWAP3 POP SWAP3 SWAP1 POP JUMP JUMPDEST PUSH1 0x0 DUP2 MLOAD SWAP1 POP SWAP2 SWAP1 POP JUMP JUMPDEST PUSH1 0x0 DUP3 DUP3 MSTORE PUSH1 0x20 DUP3 ADD SWAP1 POP SWAP3 SWAP2 POP POP JUMP JUMPDEST PUSH1 0x0 JUMPDEST DUP4 DUP2 LT ISZERO PUSH2 0x2D0 JUMPI DUP1 DUP3 ADD MLOAD DUP2 DUP5 ADD MSTORE PUSH1 0x20 DUP2 ADD SWAP1 POP PUSH2 0x2B5 JUMP JUMPDEST DUP4 DUP2 GT ISZERO PUSH2 0x2DF JUMPI PUSH1 0x0 DUP5 DUP5 ADD MSTORE JUMPDEST POP POP POP POP JUMP JUMPDEST PUSH1 0x0 PUSH1 0x1F NOT PUSH1 0x1F DUP4 ADD AND SWAP1 POP SWAP2 SWAP1 POP JUMP JUMPDEST PUSH1 0x0 PUSH2 0x301 DUP3 PUSH2 0x296 JUMP JUMPDEST PUSH2 0x30B DUP2 DUP6 PUSH2 0x2A1 JUMP JUMPDEST SWAP4 POP PUSH2 0x31B DUP2 DUP6 PUSH1 0x20 DUP7 ADD PUSH2 0x2B2 JUMP JUMPDEST PUSH2 0x324 DUP2 PUSH2 0x2E5 JUMP JUMPDEST DUP5 ADD SWAP2 POP POP SWAP3 SWAP2 POP POP JUMP JUMPDEST PUSH1 0x0 PUSH1 0x20 DUP3 ADD SWAP1 POP DUP2 DUP2 SUB PUSH1 0x0 DUP4 ADD MSTORE PUSH2 0x349 DUP2 DUP5 PUSH2 0x2F6 JUMP JUMPDEST SWAP1 POP SWAP3 SWAP2 POP POP JUMP JUMPDEST PUSH1 0x0 DUP1 REVERT JUMPDEST PUSH1 0x0 DUP1 REVERT JUMPDEST PUSH32 0x4E487B7100000000000000000000000000000000000000000000000000000000 PUSH1 0x0 MSTORE PUSH1 0x41 PUSH1 0x4 MSTORE PUSH1 0x24 PUSH1 0x0 REVERT JUMPDEST PUSH2 0x393 DUP3 PUSH2 0x2E5 JUMP JUMPDEST DUP2 ADD DUP2 DUP2 LT PUSH8 0xFFFFFFFFFFFFFFFF DUP3 GT OR ISZERO PUSH2 0x3B2 JUMPI PUSH2 0x3B1 PUSH2 0x35B JUMP JUMPDEST JUMPDEST DUP1 PUSH1 0x40 MSTORE POP POP POP JUMP JUMPDEST PUSH1 0x0 PUSH2 0x3C5 PUSH2 0x1AE JUMP JUMPDEST SWAP1 POP PUSH2 0x3D1 DUP3 DUP3 PUSH2 0x38A JUMP JUMPDEST SWAP2 SWAP1 POP JUMP JUMPDEST PUSH1 0x0 PUSH8 0xFFFFFFFFFFFFFFFF DUP3 GT ISZERO PUSH2 0x3F1 JUMPI PUSH2 0x3F0 PUSH2 0x35B JUMP JUMPDEST JUMPDEST PUSH2 0x3FA DUP3 PUSH2 0x2E5 JUMP JUMPDEST SWAP1 POP PUSH1 0x20 DUP2 ADD SWAP1 POP SWAP2 SWAP1 POP JUMP JUMPDEST DUP3 DUP2 DUP4 CALLDATACOPY PUSH1 0x0 DUP4 DUP4 ADD MSTORE POP POP POP JUMP JUMPDEST PUSH1 0x0 PUSH2 0x429 PUSH2 0x424 DUP5 PUSH2 0x3D6 JUMP JUMPDEST PUSH2 0x3BB JUMP JUMPDEST SWAP1 POP DUP3 DUP2 MSTORE PUSH1 0x20 DUP2 ADD DUP5 DUP5 DUP5 ADD GT ISZERO PUSH2 0x445 JUMPI PUSH2 0x444 PUSH2 0x356 JUMP JUMPDEST JUMPDEST PUSH2 0x450 DUP5 DUP3 DUP6 PUSH2 0x407 JUMP JUMPDEST POP SWAP4 SWAP3 POP POP POP JUMP JUMPDEST PUSH1 0x0 DUP3 PUSH1 0x1F DUP4 ADD SLT PUSH2 0x46D JUMPI PUSH2 0x46C PUSH2 0x351 JUMP JUMPDEST JUMPDEST DUP2 CALLDATALOAD PUSH2 0x47D DUP5 DUP3 PUSH1 0x20 DUP7 ADD PUSH2 0x416 JUMP JUMPDEST SWAP2 POP POP SWAP3 SWAP2 POP POP JUMP JUMPDEST PUSH1 0x0 DUP1 PUSH1 0x40 DUP4 DUP6 SUB SLT ISZERO PUSH2 0x49D JUMPI PUSH2 0x49C PUSH2 0x1B8 JUMP JUMPDEST JUMPDEST PUSH1 0x0 DUP4 ADD CALLDATALOAD PUSH8 0xFFFFFFFFFFFFFFFF DUP2 GT ISZERO PUSH2 0x4BB JUMPI PUSH2 0x4BA PUSH2 0x1BD JUMP JUMPDEST JUMPDEST PUSH2 0x4C7 DUP6 DUP3 DUP7 ADD PUSH2 0x458 JUMP JUMPDEST SWAP3 POP POP PUSH1 0x20 PUSH2 0x4D8 DUP6 DUP3 DUP7 ADD PUSH2 0x241 JUMP JUMPDEST SWAP2 POP POP SWAP3 POP SWAP3 SWAP1 POP JUMP JUMPDEST PUSH2 0x4EB DUP2 PUSH2 0x1E2 JUMP JUMPDEST DUP3 MSTORE POP POP JUMP JUMPDEST PUSH1 0x0 PUSH1 0x20 DUP3 ADD SWAP1 POP PUSH2 0x506 PUSH1 0x0 DUP4 ADD DUP5 PUSH2 0x4E2 JUMP JUMPDEST SWAP3 SWAP2 POP POP JUMP JUMPDEST PUSH2 0x515 DUP2 PUSH2 0x220 JUMP JUMPDEST DUP3 MSTORE POP POP JUMP JUMPDEST PUSH1 0x0 PUSH1 0x40 DUP3 ADD SWAP1 POP PUSH2 0x530 PUSH1 0x0 DUP4 ADD DUP6 PUSH2 0x4E2 JUMP JUMPDEST PUSH2 0x53D PUSH1 0x20 DUP4 ADD DUP5 PUSH2 0x50C JUMP JUMPDEST SWAP4 SWAP3 POP POP POP JUMP JUMPDEST PUSH1 0x0 DUP2 SWAP1 POP SWAP3 SWAP2 POP POP JUMP JUMPDEST PUSH1 0x0 PUSH2 0x55A DUP3 PUSH2 0x296 JUMP JUMPDEST PUSH2 0x564 DUP2 DUP6 PUSH2 0x544 JUMP JUMPDEST SWAP4 POP PUSH2 0x574 DUP2 DUP6 PUSH1 0x20 DUP7 ADD PUSH2 0x2B2 JUMP JUMPDEST DUP1 DUP5 ADD SWAP2 POP POP SWAP3 SWAP2 POP POP JUMP JUMPDEST PUSH1 0x0 PUSH2 0x58C DUP3 DUP6 PUSH2 0x54F JUMP JUMPDEST SWAP2 POP PUSH2 0x598 DUP3 DUP5 PUSH2 0x54F JUMP JUMPDEST SWAP2 POP DUP2 SWAP1 POP SWAP4 SWAP3 POP POP POP JUMP JUMPDEST PUSH1 0x0 PUSH32 0xFF00000000000000000000000000000000000000000000000000000000000000 DUP3 AND SWAP1 POP SWAP2 SWAP1 POP JUMP JUMPDEST PUSH1 0x0 DUP2 SWAP1 POP SWAP2 SWAP1 POP JUMP JUMPDEST PUSH2 0x5EB PUSH2 0x5E6 DUP3 PUSH2 0x5A4 JUMP JUMPDEST PUSH2 0x5D0 JUMP JUMPDEST DUP3 MSTORE POP POP JUMP JUMPDEST PUSH1 0x0 DUP2 PUSH1 0x60 SHL SWAP1 POP SWAP2 SWAP1 POP JUMP JUMPDEST PUSH1 0x0 PUSH2 0x609 DUP3 PUSH2 0x5F1 JUMP JUMPDEST SWAP1 POP SWAP2 SWAP1 POP JUMP JUMPDEST PUSH1 0x0 PUSH2 0x61B DUP3 PUSH2 0x5FE JUMP JUMPDEST SWAP1 POP SWAP2 SWAP1 POP JUMP JUMPDEST PUSH2 0x633 PUSH2 0x62E DUP3 PUSH2 0x1E2 JUMP JUMPDEST PUSH2 0x610 JUMP JUMPDEST DUP3 MSTORE POP POP JUMP JUMPDEST PUSH1 0x0 DUP2 SWAP1 POP SWAP2 SWAP1 POP JUMP JUMPDEST PUSH2 0x654 PUSH2 0x64F DUP3 PUSH2 0x220 JUMP JUMPDEST PUSH2 0x639 JUMP JUMPDEST DUP3 MSTORE POP POP JUMP JUMPDEST PUSH1 0x0 DUP2 SWAP1 POP SWAP2 SWAP1 POP JUMP JUMPDEST PUSH1 0x0 DUP2 SWAP1 POP SWAP2 SWAP1 POP JUMP JUMPDEST PUSH2 0x67F PUSH2 0x67A DUP3 PUSH2 0x65A JUMP JUMPDEST PUSH2 0x664 JUMP JUMPDEST DUP3 MSTORE POP POP JUMP JUMPDEST PUSH1 0x0 PUSH2 0x691 DUP3 DUP8 PUSH2 0x5DA JUMP JUMPDEST PUSH1 0x1 DUP3 ADD SWAP2 POP PUSH2 0x6A1 DUP3 DUP7 PUSH2 0x622 JUMP JUMPDEST PUSH1 0x14 DUP3 ADD SWAP2 POP PUSH2 0x6B1 DUP3 DUP6 PUSH2 0x643 JUMP JUMPDEST PUSH1 0x20 DUP3 ADD SWAP2 POP PUSH2 0x6C1 DUP3 DUP5 PUSH2 0x66E JUMP JUMPDEST PUSH1 0x20 DUP3 ADD SWAP2 POP DUP2 SWAP1 POP SWAP6 SWAP5 POP POP POP POP POP JUMP INVALID PUSH1 0x80 PUSH1 0x40 MSTORE PUSH1 0x40 MLOAD PUSH2 0x2F3 CODESIZE SUB DUP1 PUSH2 0x2F3 DUP4 CODECOPY DUP2 DUP2 ADD PUSH1 0x40 MSTORE DUP2 ADD SWAP1 PUSH2 0x25 SWAP2 SWAP1 PUSH2 0x10C JUMP JUMPDEST DUP2 PUSH1 0x0 DUP1 PUSH2 0x100 EXP DUP2 SLOAD DUP2 PUSH20 0xFFFFFFFFFFFFFFFFFFFFFFFFFFFFFFFFFFFFFFFF MUL NOT AND SWAP1 DUP4 PUSH20 0xFFFFFFFFFFFFFFFFFFFFFFFFFFFFFFFFFFFFFFFF AND MUL OR SWAP1 SSTORE POP DUP1 PUSH1 0x1 DUP2 SWAP1 SSTORE POP POP POP PUSH2 0x14C JUMP JUMPDEST PUSH1 0x0 DUP1 REVERT JUMPDEST PUSH1 0x0 PUSH20 0xFFFFFFFFFFFFFFFFFFFFFFFFFFFFFFFFFFFFFFFF DUP3 AND SWAP1 POP SWAP2 SWAP1 POP JUMP JUMPDEST PUSH1 0x0 PUSH2 0xA3 DUP3 PUSH2 0x78 JUMP JUMPDEST SWAP1 POP SWAP2 SWAP1 POP JUMP JUMPDEST PUSH2 0xB3 DUP2 PUSH2 0x98 JUMP JUMPDEST DUP2 EQ PUSH2 0xBE JUMPI PUSH1 0x0 DUP1 REVERT JUMPDEST POP JUMP JUMPDEST PUSH1 0x0 DUP2 MLOAD SWAP1 POP PUSH2 0xD0 DUP2 PUSH2 0xAA JUMP JUMPDEST SWAP3 SWAP2 POP POP JUMP JUMPDEST PUSH1 0x0 DUP2 SWAP1 POP SWAP2 SWAP1 POP JUMP JUMPDEST PUSH2 0xE9 DUP2 PUSH2 0xD6 JUMP JUMPDEST DUP2 EQ PUSH2 0xF4 JUMPI PUSH1 0x0 DUP1 REVERT JUMPDEST POP JUMP JUMPDEST PUSH1 0x0 DUP2 MLOAD SWAP1 POP PUSH2 0x106 DUP2 PUSH2 0xE0 JUMP JUMPDEST SWAP3 SWAP2 POP POP JUMP JUMPDEST PUSH1 0x0 DUP1 PUSH1 0x40 DUP4 DUP6 SUB SLT ISZERO PUSH2 0x123 JUMPI PUSH2 0x122 PUSH2 0x73 JUMP JUMPDEST JUMPDEST PUSH1 0x0 PUSH2 0x131 DUP6 DUP3 DUP7 ADD PUSH2 0xC1 JUMP JUMPDEST SWAP3 POP POP PUSH1 0x20 PUSH2 0x142 DUP6 DUP3 DUP7 ADD PUSH2 0xF7 JUMP JUMPDEST SWAP2 POP POP SWAP3 POP SWAP3 SWAP1 POP JUMP JUMPDEST PUSH2 0x198 DUP1 PUSH2 0x15B PUSH1 0x0 CODECOPY PUSH1 0x0 RETURN INVALID PUSH1 0x80 PUSH1 0x40 MSTORE CALLVALUE DUP1 ISZERO PUSH2 0x10 JUMPI PUSH1 0x0 DUP1 REVERT JUMPDEST POP PUSH1 0x4 CALLDATASIZE LT PUSH2 0x41 JUMPI PUSH1 0x0 CALLDATALOAD PUSH1 0xE0 SHR DUP1 PUSH4 0x12065FE0 EQ PUSH2 0x46 JUMPI DUP1 PUSH4 0x8DA5CB5B EQ PUSH2 0x64 JUMPI DUP1 PUSH4 0xC2985578 EQ PUSH2 0x82 JUMPI JUMPDEST PUSH1 0x0 DUP1 REVERT JUMPDEST PUSH2 0x4E PUSH2 0xA0 JUMP JUMPDEST PUSH1 0x40 MLOAD PUSH2 0x5B SWAP2 SWAP1 PUSH2 0xEB JUMP JUMPDEST PUSH1 0x40 MLOAD DUP1 SWAP2 SUB SWAP1 RETURN JUMPDEST PUSH2 0x6C PUSH2 0xA8 JUMP JUMPDEST PUSH1 0x40 MLOAD PUSH2 0x79 SWAP2 SWAP1 PUSH2 0x147 JUMP JUMPDEST PUSH1 0x40 MLOAD DUP1 SWAP2 SUB SWAP1 RETURN JUMPDEST PUSH2 0x8A PUSH2 0xCC JUMP JUMPDEST PUSH1 0x40 MLOAD PUSH2 0x97 SWAP2 SWAP1 PUSH2 0xEB JUMP JUMPDEST PUSH1 0x40 MLOAD DUP1 SWAP2 SUB SWAP1 RETURN JUMPDEST PUSH1 0x0 SELFBALANCE SWAP1 POP SWAP1 JUMP JUMPDEST PUSH1 0x0 DUP1 SLOAD SWAP1 PUSH2 0x100 EXP SWAP1 DIV PUSH20 0xFFFFFFFFFFFFFFFFFFFFFFFFFFFFFFFFFFFFFFFF AND DUP2 JUMP JUMPDEST PUSH1 0x1 SLOAD DUP2 JUMP JUMPDEST PUSH1 0x0 DUP2 SWAP1 POP SWAP2 SWAP1 POP JUMP JUMPDEST PUSH2 0xE5 DUP2 PUSH2 0xD2 JUMP JUMPDEST DUP3 MSTORE POP POP JUMP JUMPDEST PUSH1 0x0 PUSH1 0x20 DUP3 ADD SWAP1 POP PUSH2 0x100 PUSH1 0x0 DUP4 ADD DUP5 PUSH2 0xDC JUMP JUMPDEST SWAP3 SWAP2 POP POP JUMP JUMPDEST PUSH1 0x0 PUSH20 0xFFFFFFFFFFFFFFFFFFFFFFFFFFFFFFFFFFFFFFFF DUP3 AND SWAP1 POP SWAP2 SWAP1 POP JUMP JUMPDEST PUSH1 0x0 PUSH2 0x131 DUP3 PUSH2 0x106 JUMP JUMPDEST SWAP1 POP SWAP2 SWAP1 POP JUMP JUMPDEST PUSH2 0x141 DUP2 PUSH2 0x126 JUMP JUMPDEST DUP3 MSTORE POP POP JUMP JUMPDEST PUSH1 0x0 PUSH1 0x20 DUP3 ADD SWAP1 POP PUSH2 0x15C PUSH1 0x0 DUP4 ADD DUP5 PUSH2 0x138 JUMP JUMPDEST SWAP3 SWAP2 POP POP JUMP INVALID LOG2 PUSH5 0x6970667358 0x22 SLT KECCAK256 GAS 0x4A 0xE0 0xAC 0x5E MSTORE8 ADDRESS 0x1E PUSH1 0xD3 0xE7 PUSH31 0xCA722C76F1B371D4ABDC06FBB52F672CD90867DA64736F6C634300080F0033 LOG2 PUSH5 0x6970667358 0x22 SLT KECCAK256 0xF 0x2F 0xD2 0xB2 0xBE 0x22 PUSH8 0xB16164C85EDCDEC3 NUMBER LOG3 DUP13 0xEC 0xB6 DUP5 0xDA DUP14 0xF8 LOG0 0xF6 DUP1 0x2D 0x25 DUP9 RETURNDATACOPY PUSH18 0x64736F6C634300080F003300000000000000 "
				},
				"gasEstimates": {
					"creation": {
						"codeDepositCost": "511200",
						"executionCost": "543",
						"totalCost": "511743"
					},
					"external": {
						"deploy(bytes,uint256)": "infinite",
						"getAddress(bytes,uint256)": "infinite",
						"getBytecode(address,uint256)": "infinite"
					}
				},
				"methodIdentifiers": {
					"deploy(bytes,uint256)": "9c4ae2d0",
					"getAddress(bytes,uint256)": "94ca2cb5",
					"getBytecode(address,uint256)": "81871cbc"
				}
			},
			"storageLayout": {
				"storage": [],
				"types": null
			},
			"userdoc": {
				"kind": "user",
				"methods": {},
				"version": 1
			}
		}
	}
}