{
	"contracts/utils/Merkle.sol": {
		"MerkleProof": {
			"abi": [
				{
					"inputs": [
						{
							"internalType": "bytes32[]",
							"name": "proof",
							"type": "bytes32[]"
						},
						{
							"internalType": "bytes32",
							"name": "root",
							"type": "bytes32"
						},
						{
							"internalType": "bytes32",
							"name": "leaf",
							"type": "bytes32"
						},
						{
							"internalType": "uint256",
							"name": "index",
							"type": "uint256"
						}
					],
					"name": "verify",
					"outputs": [
						{
							"internalType": "bool",
							"name": "",
							"type": "bool"
						}
					],
					"stateMutability": "pure",
					"type": "function"
				}
			],
			"devdoc": {
				"kind": "dev",
				"methods": {},
				"version": 1
			},
			"evm": {
				"assembly": "    /* \"contracts/utils/Merkle.sol\":58:597  contract MerkleProof {... */\n  mstore(0x40, 0x80)\n  callvalue\n  dup1\n  iszero\n  tag_1\n  jumpi\n  0x00\n  dup1\n  revert\ntag_1:\n  pop\n  dataSize(sub_0)\n  dup1\n  dataOffset(sub_0)\n  0x00\n  codecopy\n  0x00\n  return\nstop\n\nsub_0: assembly {\n        /* \"contracts/utils/Merkle.sol\":58:597  contract MerkleProof {... */\n      mstore(0x40, 0x80)\n      callvalue\n      dup1\n      iszero\n      tag_1\n      jumpi\n      0x00\n      dup1\n      revert\n    tag_1:\n      pop\n      jumpi(tag_2, lt(calldatasize, 0x04))\n      shr(0xe0, calldataload(0x00))\n      dup1\n      0x21fb335c\n      eq\n      tag_3\n      jumpi\n    tag_2:\n      0x00\n      dup1\n      revert\n        /* \"contracts/utils/Merkle.sol\":85:595  function verify(bytes32[] memory proof, bytes32 root, bytes32 leaf, uint256 index) public pure returns (bool) {... */\n    tag_3:\n      tag_4\n      0x04\n      dup1\n      calldatasize\n      sub\n      dup2\n      add\n      swap1\n      tag_5\n      swap2\n      swap1\n      tag_6\n      jump\t// in\n    tag_5:\n      tag_7\n      jump\t// in\n    tag_4:\n      mload(0x40)\n      tag_8\n      swap2\n      swap1\n      tag_9\n      jump\t// in\n    tag_8:\n      mload(0x40)\n      dup1\n      swap2\n      sub\n      swap1\n      return\n    tag_7:\n        /* \"contracts/utils/Merkle.sol\":189:193  bool */\n      0x00\n        /* \"contracts/utils/Merkle.sol\":205:217  bytes32 hash */\n      dup1\n        /* \"contracts/utils/Merkle.sol\":220:224  leaf */\n      dup4\n        /* \"contracts/utils/Merkle.sol\":205:224  bytes32 hash = leaf */\n      swap1\n      pop\n        /* \"contracts/utils/Merkle.sol\":273:282  uint256 i */\n      0x00\n        /* \"contracts/utils/Merkle.sol\":268:559  for (uint256 i = 0; i < proof.length; i++) {... */\n    tag_11:\n        /* \"contracts/utils/Merkle.sol\":292:297  proof */\n      dup7\n        /* \"contracts/utils/Merkle.sol\":292:304  proof.length */\n      mload\n        /* \"contracts/utils/Merkle.sol\":288:289  i */\n      dup2\n        /* \"contracts/utils/Merkle.sol\":288:304  i < proof.length */\n      lt\n        /* \"contracts/utils/Merkle.sol\":268:559  for (uint256 i = 0; i < proof.length; i++) {... */\n      iszero\n      tag_12\n      jumpi\n        /* \"contracts/utils/Merkle.sol\":342:343  0 */\n      0x00\n        /* \"contracts/utils/Merkle.sol\":337:338  2 */\n      0x02\n        /* \"contracts/utils/Merkle.sol\":329:334  index */\n      dup6\n        /* \"contracts/utils/Merkle.sol\":329:338  index % 2 */\n      tag_14\n      swap2\n      swap1\n      tag_15\n      jump\t// in\n    tag_14:\n        /* \"contracts/utils/Merkle.sol\":329:343  index % 2 == 0 */\n      eq\n        /* \"contracts/utils/Merkle.sol\":325:517  if (index % 2 == 0) {... */\n      iszero\n      tag_16\n      jumpi\n        /* \"contracts/utils/Merkle.sol\":397:401  hash */\n      dup2\n        /* \"contracts/utils/Merkle.sol\":403:408  proof */\n      dup8\n        /* \"contracts/utils/Merkle.sol\":409:410  i */\n      dup3\n        /* \"contracts/utils/Merkle.sol\":403:411  proof[i] */\n      dup2\n      mload\n      dup2\n      lt\n      tag_17\n      jumpi\n      tag_18\n      tag_19\n      jump\t// in\n    tag_18:\n    tag_17:\n      0x20\n      mul\n      0x20\n      add\n      add\n      mload\n        /* \"contracts/utils/Merkle.sol\":380:412  abi.encodePacked(hash, proof[i]) */\n      add(0x20, mload(0x40))\n      tag_20\n      swap3\n      swap2\n      swap1\n      tag_21\n      jump\t// in\n    tag_20:\n      mload(0x40)\n      0x20\n      dup2\n      dup4\n      sub\n      sub\n      dup2\n      mstore\n      swap1\n      0x40\n      mstore\n        /* \"contracts/utils/Merkle.sol\":370:413  keccak256(abi.encodePacked(hash, proof[i])) */\n      dup1\n      mload\n      swap1\n      0x20\n      add\n      keccak256\n        /* \"contracts/utils/Merkle.sol\":363:413  hash = keccak256(abi.encodePacked(hash, proof[i])) */\n      swap2\n      pop\n        /* \"contracts/utils/Merkle.sol\":325:517  if (index % 2 == 0) {... */\n      jump(tag_22)\n    tag_16:\n        /* \"contracts/utils/Merkle.sol\":486:491  proof */\n      dup7\n        /* \"contracts/utils/Merkle.sol\":492:493  i */\n      dup2\n        /* \"contracts/utils/Merkle.sol\":486:494  proof[i] */\n      dup2\n      mload\n      dup2\n      lt\n      tag_23\n      jumpi\n      tag_24\n      tag_19\n      jump\t// in\n    tag_24:\n    tag_23:\n      0x20\n      mul\n      0x20\n      add\n      add\n      mload\n        /* \"contracts/utils/Merkle.sol\":496:500  hash */\n      dup3\n        /* \"contracts/utils/Merkle.sol\":469:501  abi.encodePacked(proof[i], hash) */\n      add(0x20, mload(0x40))\n      tag_25\n      swap3\n      swap2\n      swap1\n      tag_21\n      jump\t// in\n    tag_25:\n      mload(0x40)\n      0x20\n      dup2\n      dup4\n      sub\n      sub\n      dup2\n      mstore\n      swap1\n      0x40\n      mstore\n        /* \"contracts/utils/Merkle.sol\":459:502  keccak256(abi.encodePacked(proof[i], hash)) */\n      dup1\n      mload\n      swap1\n      0x20\n      add\n      keccak256\n        /* \"contracts/utils/Merkle.sol\":452:502  hash = keccak256(abi.encodePacked(proof[i], hash)) */\n      swap2\n      pop\n        /* \"contracts/utils/Merkle.sol\":325:517  if (index % 2 == 0) {... */\n    tag_22:\n        /* \"contracts/utils/Merkle.sol\":547:548  2 */\n      0x02\n        /* \"contracts/utils/Merkle.sol\":539:544  index */\n      dup5\n        /* \"contracts/utils/Merkle.sol\":539:548  index / 2 */\n      tag_26\n      swap2\n      swap1\n      tag_27\n      jump\t// in\n    tag_26:\n        /* \"contracts/utils/Merkle.sol\":531:548  index = index / 2 */\n      swap4\n      pop\n        /* \"contracts/utils/Merkle.sol\":306:309  i++ */\n      dup1\n      dup1\n      tag_28\n      swap1\n      tag_29\n      jump\t// in\n    tag_28:\n      swap2\n      pop\n      pop\n        /* \"contracts/utils/Merkle.sol\":268:559  for (uint256 i = 0; i < proof.length; i++) {... */\n      jump(tag_11)\n    tag_12:\n      pop\n        /* \"contracts/utils/Merkle.sol\":584:588  root */\n      dup5\n        /* \"contracts/utils/Merkle.sol\":576:580  hash */\n      dup2\n        /* \"contracts/utils/Merkle.sol\":576:588  hash == root */\n      eq\n        /* \"contracts/utils/Merkle.sol\":569:588  return hash == root */\n      swap2\n      pop\n      pop\n        /* \"contracts/utils/Merkle.sol\":85:595  function verify(bytes32[] memory proof, bytes32 root, bytes32 leaf, uint256 index) public pure returns (bool) {... */\n      swap5\n      swap4\n      pop\n      pop\n      pop\n      pop\n      jump\t// out\n        /* \"#utility.yul\":24:746   */\n    tag_31:\n        /* \"#utility.yul\":120:125   */\n      0x00\n        /* \"#utility.yul\":145:226   */\n      tag_33\n        /* \"#utility.yul\":161:225   */\n      tag_34\n        /* \"#utility.yul\":218:224   */\n      dup5\n        /* \"#utility.yul\":161:225   */\n      tag_35\n      jump\t// in\n    tag_34:\n        /* \"#utility.yul\":145:226   */\n      tag_36\n      jump\t// in\n    tag_33:\n        /* \"#utility.yul\":136:226   */\n      swap1\n      pop\n        /* \"#utility.yul\":246:251   */\n      dup1\n        /* \"#utility.yul\":275:281   */\n      dup4\n        /* \"#utility.yul\":268:273   */\n      dup3\n        /* \"#utility.yul\":261:282   */\n      mstore\n        /* \"#utility.yul\":309:313   */\n      0x20\n        /* \"#utility.yul\":302:307   */\n      dup3\n        /* \"#utility.yul\":298:314   */\n      add\n        /* \"#utility.yul\":291:314   */\n      swap1\n      pop\n        /* \"#utility.yul\":335:341   */\n      dup3\n        /* \"#utility.yul\":385:388   */\n      dup6\n        /* \"#utility.yul\":377:381   */\n      0x20\n        /* \"#utility.yul\":369:375   */\n      dup7\n        /* \"#utility.yul\":365:382   */\n      mul\n        /* \"#utility.yul\":360:363   */\n      dup3\n        /* \"#utility.yul\":356:383   */\n      add\n        /* \"#utility.yul\":353:389   */\n      gt\n        /* \"#utility.yul\":350:493   */\n      iszero\n      tag_37\n      jumpi\n        /* \"#utility.yul\":404:483   */\n      tag_38\n      tag_39\n      jump\t// in\n    tag_38:\n        /* \"#utility.yul\":350:493   */\n    tag_37:\n        /* \"#utility.yul\":517:518   */\n      0x00\n        /* \"#utility.yul\":502:740   */\n    tag_40:\n        /* \"#utility.yul\":527:533   */\n      dup6\n        /* \"#utility.yul\":524:525   */\n      dup2\n        /* \"#utility.yul\":521:534   */\n      lt\n        /* \"#utility.yul\":502:740   */\n      iszero\n      tag_42\n      jumpi\n        /* \"#utility.yul\":595:598   */\n      dup2\n        /* \"#utility.yul\":624:661   */\n      tag_43\n        /* \"#utility.yul\":657:660   */\n      dup9\n        /* \"#utility.yul\":645:655   */\n      dup3\n        /* \"#utility.yul\":624:661   */\n      tag_44\n      jump\t// in\n    tag_43:\n        /* \"#utility.yul\":619:622   */\n      dup5\n        /* \"#utility.yul\":612:662   */\n      mstore\n        /* \"#utility.yul\":691:695   */\n      0x20\n        /* \"#utility.yul\":686:689   */\n      dup5\n        /* \"#utility.yul\":682:696   */\n      add\n        /* \"#utility.yul\":675:696   */\n      swap4\n      pop\n        /* \"#utility.yul\":725:729   */\n      0x20\n        /* \"#utility.yul\":720:723   */\n      dup4\n        /* \"#utility.yul\":716:730   */\n      add\n        /* \"#utility.yul\":709:730   */\n      swap3\n      pop\n        /* \"#utility.yul\":562:740   */\n      pop\n        /* \"#utility.yul\":549:550   */\n      0x01\n        /* \"#utility.yul\":546:547   */\n      dup2\n        /* \"#utility.yul\":542:551   */\n      add\n        /* \"#utility.yul\":537:551   */\n      swap1\n      pop\n        /* \"#utility.yul\":502:740   */\n      jump(tag_40)\n    tag_42:\n        /* \"#utility.yul\":506:520   */\n      pop\n        /* \"#utility.yul\":126:746   */\n      pop\n      pop\n        /* \"#utility.yul\":24:746   */\n      swap4\n      swap3\n      pop\n      pop\n      pop\n      jump\t// out\n        /* \"#utility.yul\":769:1139   */\n    tag_45:\n        /* \"#utility.yul\":840:845   */\n      0x00\n        /* \"#utility.yul\":889:892   */\n      dup3\n        /* \"#utility.yul\":882:886   */\n      0x1f\n        /* \"#utility.yul\":874:880   */\n      dup4\n        /* \"#utility.yul\":870:887   */\n      add\n        /* \"#utility.yul\":866:893   */\n      slt\n        /* \"#utility.yul\":856:978   */\n      tag_47\n      jumpi\n        /* \"#utility.yul\":897:976   */\n      tag_48\n      tag_49\n      jump\t// in\n    tag_48:\n        /* \"#utility.yul\":856:978   */\n    tag_47:\n        /* \"#utility.yul\":1014:1020   */\n      dup2\n        /* \"#utility.yul\":1001:1021   */\n      calldataload\n        /* \"#utility.yul\":1039:1133   */\n      tag_50\n        /* \"#utility.yul\":1129:1132   */\n      dup5\n        /* \"#utility.yul\":1121:1127   */\n      dup3\n        /* \"#utility.yul\":1114:1118   */\n      0x20\n        /* \"#utility.yul\":1106:1112   */\n      dup7\n        /* \"#utility.yul\":1102:1119   */\n      add\n        /* \"#utility.yul\":1039:1133   */\n      tag_31\n      jump\t// in\n    tag_50:\n        /* \"#utility.yul\":1030:1133   */\n      swap2\n      pop\n        /* \"#utility.yul\":846:1139   */\n      pop\n        /* \"#utility.yul\":769:1139   */\n      swap3\n      swap2\n      pop\n      pop\n      jump\t// out\n        /* \"#utility.yul\":1145:1284   */\n    tag_44:\n        /* \"#utility.yul\":1191:1196   */\n      0x00\n        /* \"#utility.yul\":1229:1235   */\n      dup2\n        /* \"#utility.yul\":1216:1236   */\n      calldataload\n        /* \"#utility.yul\":1207:1236   */\n      swap1\n      pop\n        /* \"#utility.yul\":1245:1278   */\n      tag_52\n        /* \"#utility.yul\":1272:1277   */\n      dup2\n        /* \"#utility.yul\":1245:1278   */\n      tag_53\n      jump\t// in\n    tag_52:\n        /* \"#utility.yul\":1145:1284   */\n      swap3\n      swap2\n      pop\n      pop\n      jump\t// out\n        /* \"#utility.yul\":1290:1429   */\n    tag_54:\n        /* \"#utility.yul\":1336:1341   */\n      0x00\n        /* \"#utility.yul\":1374:1380   */\n      dup2\n        /* \"#utility.yul\":1361:1381   */\n      calldataload\n        /* \"#utility.yul\":1352:1381   */\n      swap1\n      pop\n        /* \"#utility.yul\":1390:1423   */\n      tag_56\n        /* \"#utility.yul\":1417:1422   */\n      dup2\n        /* \"#utility.yul\":1390:1423   */\n      tag_57\n      jump\t// in\n    tag_56:\n        /* \"#utility.yul\":1290:1429   */\n      swap3\n      swap2\n      pop\n      pop\n      jump\t// out\n        /* \"#utility.yul\":1435:2410   */\n    tag_6:\n        /* \"#utility.yul\":1546:1552   */\n      0x00\n        /* \"#utility.yul\":1554:1560   */\n      dup1\n        /* \"#utility.yul\":1562:1568   */\n      0x00\n        /* \"#utility.yul\":1570:1576   */\n      dup1\n        /* \"#utility.yul\":1619:1622   */\n      0x80\n        /* \"#utility.yul\":1607:1616   */\n      dup6\n        /* \"#utility.yul\":1598:1605   */\n      dup8\n        /* \"#utility.yul\":1594:1617   */\n      sub\n        /* \"#utility.yul\":1590:1623   */\n      slt\n        /* \"#utility.yul\":1587:1707   */\n      iszero\n      tag_59\n      jumpi\n        /* \"#utility.yul\":1626:1705   */\n      tag_60\n      tag_61\n      jump\t// in\n    tag_60:\n        /* \"#utility.yul\":1587:1707   */\n    tag_59:\n        /* \"#utility.yul\":1774:1775   */\n      0x00\n        /* \"#utility.yul\":1763:1772   */\n      dup6\n        /* \"#utility.yul\":1759:1776   */\n      add\n        /* \"#utility.yul\":1746:1777   */\n      calldataload\n        /* \"#utility.yul\":1804:1822   */\n      0xffffffffffffffff\n        /* \"#utility.yul\":1796:1802   */\n      dup2\n        /* \"#utility.yul\":1793:1823   */\n      gt\n        /* \"#utility.yul\":1790:1907   */\n      iszero\n      tag_62\n      jumpi\n        /* \"#utility.yul\":1826:1905   */\n      tag_63\n      tag_64\n      jump\t// in\n    tag_63:\n        /* \"#utility.yul\":1790:1907   */\n    tag_62:\n        /* \"#utility.yul\":1931:2009   */\n      tag_65\n        /* \"#utility.yul\":2001:2008   */\n      dup8\n        /* \"#utility.yul\":1992:1998   */\n      dup3\n        /* \"#utility.yul\":1981:1990   */\n      dup9\n        /* \"#utility.yul\":1977:1999   */\n      add\n        /* \"#utility.yul\":1931:2009   */\n      tag_45\n      jump\t// in\n    tag_65:\n        /* \"#utility.yul\":1921:2009   */\n      swap5\n      pop\n        /* \"#utility.yul\":1717:2019   */\n      pop\n        /* \"#utility.yul\":2058:2060   */\n      0x20\n        /* \"#utility.yul\":2084:2137   */\n      tag_66\n        /* \"#utility.yul\":2129:2136   */\n      dup8\n        /* \"#utility.yul\":2120:2126   */\n      dup3\n        /* \"#utility.yul\":2109:2118   */\n      dup9\n        /* \"#utility.yul\":2105:2127   */\n      add\n        /* \"#utility.yul\":2084:2137   */\n      tag_44\n      jump\t// in\n    tag_66:\n        /* \"#utility.yul\":2074:2137   */\n      swap4\n      pop\n        /* \"#utility.yul\":2029:2147   */\n      pop\n        /* \"#utility.yul\":2186:2188   */\n      0x40\n        /* \"#utility.yul\":2212:2265   */\n      tag_67\n        /* \"#utility.yul\":2257:2264   */\n      dup8\n        /* \"#utility.yul\":2248:2254   */\n      dup3\n        /* \"#utility.yul\":2237:2246   */\n      dup9\n        /* \"#utility.yul\":2233:2255   */\n      add\n        /* \"#utility.yul\":2212:2265   */\n      tag_44\n      jump\t// in\n    tag_67:\n        /* \"#utility.yul\":2202:2265   */\n      swap3\n      pop\n        /* \"#utility.yul\":2157:2275   */\n      pop\n        /* \"#utility.yul\":2314:2316   */\n      0x60\n        /* \"#utility.yul\":2340:2393   */\n      tag_68\n        /* \"#utility.yul\":2385:2392   */\n      dup8\n        /* \"#utility.yul\":2376:2382   */\n      dup3\n        /* \"#utility.yul\":2365:2374   */\n      dup9\n        /* \"#utility.yul\":2361:2383   */\n      add\n        /* \"#utility.yul\":2340:2393   */\n      tag_54\n      jump\t// in\n    tag_68:\n        /* \"#utility.yul\":2330:2393   */\n      swap2\n      pop\n        /* \"#utility.yul\":2285:2403   */\n      pop\n        /* \"#utility.yul\":1435:2410   */\n      swap3\n      swap6\n      swap2\n      swap5\n      pop\n      swap3\n      pop\n      jump\t// out\n        /* \"#utility.yul\":2416:2525   */\n    tag_69:\n        /* \"#utility.yul\":2497:2518   */\n      tag_71\n        /* \"#utility.yul\":2512:2517   */\n      dup2\n        /* \"#utility.yul\":2497:2518   */\n      tag_72\n      jump\t// in\n    tag_71:\n        /* \"#utility.yul\":2492:2495   */\n      dup3\n        /* \"#utility.yul\":2485:2519   */\n      mstore\n        /* \"#utility.yul\":2416:2525   */\n      pop\n      pop\n      jump\t// out\n        /* \"#utility.yul\":2531:2688   */\n    tag_73:\n        /* \"#utility.yul\":2636:2681   */\n      tag_75\n        /* \"#utility.yul\":2656:2680   */\n      tag_76\n        /* \"#utility.yul\":2674:2679   */\n      dup3\n        /* \"#utility.yul\":2656:2680   */\n      tag_77\n      jump\t// in\n    tag_76:\n        /* \"#utility.yul\":2636:2681   */\n      tag_78\n      jump\t// in\n    tag_75:\n        /* \"#utility.yul\":2631:2634   */\n      dup3\n        /* \"#utility.yul\":2624:2682   */\n      mstore\n        /* \"#utility.yul\":2531:2688   */\n      pop\n      pop\n      jump\t// out\n        /* \"#utility.yul\":2694:3091   */\n    tag_21:\n        /* \"#utility.yul\":2834:2837   */\n      0x00\n        /* \"#utility.yul\":2849:2924   */\n      tag_80\n        /* \"#utility.yul\":2920:2923   */\n      dup3\n        /* \"#utility.yul\":2911:2917   */\n      dup6\n        /* \"#utility.yul\":2849:2924   */\n      tag_73\n      jump\t// in\n    tag_80:\n        /* \"#utility.yul\":2949:2951   */\n      0x20\n        /* \"#utility.yul\":2944:2947   */\n      dup3\n        /* \"#utility.yul\":2940:2952   */\n      add\n        /* \"#utility.yul\":2933:2952   */\n      swap2\n      pop\n        /* \"#utility.yul\":2962:3037   */\n      tag_81\n        /* \"#utility.yul\":3033:3036   */\n      dup3\n        /* \"#utility.yul\":3024:3030   */\n      dup5\n        /* \"#utility.yul\":2962:3037   */\n      tag_73\n      jump\t// in\n    tag_81:\n        /* \"#utility.yul\":3062:3064   */\n      0x20\n        /* \"#utility.yul\":3057:3060   */\n      dup3\n        /* \"#utility.yul\":3053:3065   */\n      add\n        /* \"#utility.yul\":3046:3065   */\n      swap2\n      pop\n        /* \"#utility.yul\":3082:3085   */\n      dup2\n        /* \"#utility.yul\":3075:3085   */\n      swap1\n      pop\n        /* \"#utility.yul\":2694:3091   */\n      swap4\n      swap3\n      pop\n      pop\n      pop\n      jump\t// out\n        /* \"#utility.yul\":3097:3307   */\n    tag_9:\n        /* \"#utility.yul\":3184:3188   */\n      0x00\n        /* \"#utility.yul\":3222:3224   */\n      0x20\n        /* \"#utility.yul\":3211:3220   */\n      dup3\n        /* \"#utility.yul\":3207:3225   */\n      add\n        /* \"#utility.yul\":3199:3225   */\n      swap1\n      pop\n        /* \"#utility.yul\":3235:3300   */\n      tag_83\n        /* \"#utility.yul\":3297:3298   */\n      0x00\n        /* \"#utility.yul\":3286:3295   */\n      dup4\n        /* \"#utility.yul\":3282:3299   */\n      add\n        /* \"#utility.yul\":3273:3279   */\n      dup5\n        /* \"#utility.yul\":3235:3300   */\n      tag_69\n      jump\t// in\n    tag_83:\n        /* \"#utility.yul\":3097:3307   */\n      swap3\n      swap2\n      pop\n      pop\n      jump\t// out\n        /* \"#utility.yul\":3313:3442   */\n    tag_36:\n        /* \"#utility.yul\":3347:3353   */\n      0x00\n        /* \"#utility.yul\":3374:3394   */\n      tag_85\n      tag_86\n      jump\t// in\n    tag_85:\n        /* \"#utility.yul\":3364:3394   */\n      swap1\n      pop\n        /* \"#utility.yul\":3403:3436   */\n      tag_87\n        /* \"#utility.yul\":3431:3435   */\n      dup3\n        /* \"#utility.yul\":3423:3429   */\n      dup3\n        /* \"#utility.yul\":3403:3436   */\n      tag_88\n      jump\t// in\n    tag_87:\n        /* \"#utility.yul\":3313:3442   */\n      swap2\n      swap1\n      pop\n      jump\t// out\n        /* \"#utility.yul\":3448:3523   */\n    tag_86:\n        /* \"#utility.yul\":3481:3487   */\n      0x00\n        /* \"#utility.yul\":3514:3516   */\n      0x40\n        /* \"#utility.yul\":3508:3517   */\n      mload\n        /* \"#utility.yul\":3498:3517   */\n      swap1\n      pop\n        /* \"#utility.yul\":3448:3523   */\n      swap1\n      jump\t// out\n        /* \"#utility.yul\":3529:3840   */\n    tag_35:\n        /* \"#utility.yul\":3606:3610   */\n      0x00\n        /* \"#utility.yul\":3696:3714   */\n      0xffffffffffffffff\n        /* \"#utility.yul\":3688:3694   */\n      dup3\n        /* \"#utility.yul\":3685:3715   */\n      gt\n        /* \"#utility.yul\":3682:3738   */\n      iszero\n      tag_91\n      jumpi\n        /* \"#utility.yul\":3718:3736   */\n      tag_92\n      tag_93\n      jump\t// in\n    tag_92:\n        /* \"#utility.yul\":3682:3738   */\n    tag_91:\n        /* \"#utility.yul\":3768:3772   */\n      0x20\n        /* \"#utility.yul\":3760:3766   */\n      dup3\n        /* \"#utility.yul\":3756:3773   */\n      mul\n        /* \"#utility.yul\":3748:3773   */\n      swap1\n      pop\n        /* \"#utility.yul\":3828:3832   */\n      0x20\n        /* \"#utility.yul\":3822:3826   */\n      dup2\n        /* \"#utility.yul\":3818:3833   */\n      add\n        /* \"#utility.yul\":3810:3833   */\n      swap1\n      pop\n        /* \"#utility.yul\":3529:3840   */\n      swap2\n      swap1\n      pop\n      jump\t// out\n        /* \"#utility.yul\":3846:4031   */\n    tag_27:\n        /* \"#utility.yul\":3886:3887   */\n      0x00\n        /* \"#utility.yul\":3903:3923   */\n      tag_95\n        /* \"#utility.yul\":3921:3922   */\n      dup3\n        /* \"#utility.yul\":3903:3923   */\n      tag_96\n      jump\t// in\n    tag_95:\n        /* \"#utility.yul\":3898:3923   */\n      swap2\n      pop\n        /* \"#utility.yul\":3937:3957   */\n      tag_97\n        /* \"#utility.yul\":3955:3956   */\n      dup4\n        /* \"#utility.yul\":3937:3957   */\n      tag_96\n      jump\t// in\n    tag_97:\n        /* \"#utility.yul\":3932:3957   */\n      swap3\n      pop\n        /* \"#utility.yul\":3976:3977   */\n      dup3\n        /* \"#utility.yul\":3966:4001   */\n      tag_98\n      jumpi\n        /* \"#utility.yul\":3981:3999   */\n      tag_99\n      tag_100\n      jump\t// in\n    tag_99:\n        /* \"#utility.yul\":3966:4001   */\n    tag_98:\n        /* \"#utility.yul\":4023:4024   */\n      dup3\n        /* \"#utility.yul\":4020:4021   */\n      dup3\n        /* \"#utility.yul\":4016:4025   */\n      div\n        /* \"#utility.yul\":4011:4025   */\n      swap1\n      pop\n        /* \"#utility.yul\":3846:4031   */\n      swap3\n      swap2\n      pop\n      pop\n      jump\t// out\n        /* \"#utility.yul\":4037:4127   */\n    tag_72:\n        /* \"#utility.yul\":4071:4078   */\n      0x00\n        /* \"#utility.yul\":4114:4119   */\n      dup2\n        /* \"#utility.yul\":4107:4120   */\n      iszero\n        /* \"#utility.yul\":4100:4121   */\n      iszero\n        /* \"#utility.yul\":4089:4121   */\n      swap1\n      pop\n        /* \"#utility.yul\":4037:4127   */\n      swap2\n      swap1\n      pop\n      jump\t// out\n        /* \"#utility.yul\":4133:4210   */\n    tag_77:\n        /* \"#utility.yul\":4170:4177   */\n      0x00\n        /* \"#utility.yul\":4199:4204   */\n      dup2\n        /* \"#utility.yul\":4188:4204   */\n      swap1\n      pop\n        /* \"#utility.yul\":4133:4210   */\n      swap2\n      swap1\n      pop\n      jump\t// out\n        /* \"#utility.yul\":4216:4293   */\n    tag_96:\n        /* \"#utility.yul\":4253:4260   */\n      0x00\n        /* \"#utility.yul\":4282:4287   */\n      dup2\n        /* \"#utility.yul\":4271:4287   */\n      swap1\n      pop\n        /* \"#utility.yul\":4216:4293   */\n      swap2\n      swap1\n      pop\n      jump\t// out\n        /* \"#utility.yul\":4299:4580   */\n    tag_88:\n        /* \"#utility.yul\":4382:4409   */\n      tag_105\n        /* \"#utility.yul\":4404:4408   */\n      dup3\n        /* \"#utility.yul\":4382:4409   */\n      tag_106\n      jump\t// in\n    tag_105:\n        /* \"#utility.yul\":4374:4380   */\n      dup2\n        /* \"#utility.yul\":4370:4410   */\n      add\n        /* \"#utility.yul\":4512:4518   */\n      dup2\n        /* \"#utility.yul\":4500:4510   */\n      dup2\n        /* \"#utility.yul\":4497:4519   */\n      lt\n        /* \"#utility.yul\":4476:4494   */\n      0xffffffffffffffff\n        /* \"#utility.yul\":4464:4474   */\n      dup3\n        /* \"#utility.yul\":4461:4495   */\n      gt\n        /* \"#utility.yul\":4458:4520   */\n      or\n        /* \"#utility.yul\":4455:4543   */\n      iszero\n      tag_107\n      jumpi\n        /* \"#utility.yul\":4523:4541   */\n      tag_108\n      tag_93\n      jump\t// in\n    tag_108:\n        /* \"#utility.yul\":4455:4543   */\n    tag_107:\n        /* \"#utility.yul\":4563:4573   */\n      dup1\n        /* \"#utility.yul\":4559:4561   */\n      0x40\n        /* \"#utility.yul\":4552:4574   */\n      mstore\n        /* \"#utility.yul\":4342:4580   */\n      pop\n        /* \"#utility.yul\":4299:4580   */\n      pop\n      pop\n      jump\t// out\n        /* \"#utility.yul\":4586:4819   */\n    tag_29:\n        /* \"#utility.yul\":4625:4628   */\n      0x00\n        /* \"#utility.yul\":4648:4672   */\n      tag_110\n        /* \"#utility.yul\":4666:4671   */\n      dup3\n        /* \"#utility.yul\":4648:4672   */\n      tag_96\n      jump\t// in\n    tag_110:\n        /* \"#utility.yul\":4639:4672   */\n      swap2\n      pop\n        /* \"#utility.yul\":4694:4760   */\n      0xffffffffffffffffffffffffffffffffffffffffffffffffffffffffffffffff\n        /* \"#utility.yul\":4687:4692   */\n      dup3\n        /* \"#utility.yul\":4684:4761   */\n      eq\n        /* \"#utility.yul\":4681:4784   */\n      iszero\n      tag_111\n      jumpi\n        /* \"#utility.yul\":4764:4782   */\n      tag_112\n      tag_113\n      jump\t// in\n    tag_112:\n        /* \"#utility.yul\":4681:4784   */\n    tag_111:\n        /* \"#utility.yul\":4811:4812   */\n      0x01\n        /* \"#utility.yul\":4804:4809   */\n      dup3\n        /* \"#utility.yul\":4800:4813   */\n      add\n        /* \"#utility.yul\":4793:4813   */\n      swap1\n      pop\n        /* \"#utility.yul\":4586:4819   */\n      swap2\n      swap1\n      pop\n      jump\t// out\n        /* \"#utility.yul\":4825:4904   */\n    tag_78:\n        /* \"#utility.yul\":4864:4871   */\n      0x00\n        /* \"#utility.yul\":4893:4898   */\n      dup2\n        /* \"#utility.yul\":4882:4898   */\n      swap1\n      pop\n        /* \"#utility.yul\":4825:4904   */\n      swap2\n      swap1\n      pop\n      jump\t// out\n        /* \"#utility.yul\":4910:5086   */\n    tag_15:\n        /* \"#utility.yul\":4942:4943   */\n      0x00\n        /* \"#utility.yul\":4959:4979   */\n      tag_116\n        /* \"#utility.yul\":4977:4978   */\n      dup3\n        /* \"#utility.yul\":4959:4979   */\n      tag_96\n      jump\t// in\n    tag_116:\n        /* \"#utility.yul\":4954:4979   */\n      swap2\n      pop\n        /* \"#utility.yul\":4993:5013   */\n      tag_117\n        /* \"#utility.yul\":5011:5012   */\n      dup4\n        /* \"#utility.yul\":4993:5013   */\n      tag_96\n      jump\t// in\n    tag_117:\n        /* \"#utility.yul\":4988:5013   */\n      swap3\n      pop\n        /* \"#utility.yul\":5032:5033   */\n      dup3\n        /* \"#utility.yul\":5022:5057   */\n      tag_118\n      jumpi\n        /* \"#utility.yul\":5037:5055   */\n      tag_119\n      tag_100\n      jump\t// in\n    tag_119:\n        /* \"#utility.yul\":5022:5057   */\n    tag_118:\n        /* \"#utility.yul\":5078:5079   */\n      dup3\n        /* \"#utility.yul\":5075:5076   */\n      dup3\n        /* \"#utility.yul\":5071:5080   */\n      mod\n        /* \"#utility.yul\":5066:5080   */\n      swap1\n      pop\n        /* \"#utility.yul\":4910:5086   */\n      swap3\n      swap2\n      pop\n      pop\n      jump\t// out\n        /* \"#utility.yul\":5092:5272   */\n    tag_113:\n        /* \"#utility.yul\":5140:5217   */\n      0x4e487b7100000000000000000000000000000000000000000000000000000000\n        /* \"#utility.yul\":5137:5138   */\n      0x00\n        /* \"#utility.yul\":5130:5218   */\n      mstore\n        /* \"#utility.yul\":5237:5241   */\n      0x11\n        /* \"#utility.yul\":5234:5235   */\n      0x04\n        /* \"#utility.yul\":5227:5242   */\n      mstore\n        /* \"#utility.yul\":5261:5265   */\n      0x24\n        /* \"#utility.yul\":5258:5259   */\n      0x00\n        /* \"#utility.yul\":5251:5266   */\n      revert\n        /* \"#utility.yul\":5278:5458   */\n    tag_100:\n        /* \"#utility.yul\":5326:5403   */\n      0x4e487b7100000000000000000000000000000000000000000000000000000000\n        /* \"#utility.yul\":5323:5324   */\n      0x00\n        /* \"#utility.yul\":5316:5404   */\n      mstore\n        /* \"#utility.yul\":5423:5427   */\n      0x12\n        /* \"#utility.yul\":5420:5421   */\n      0x04\n        /* \"#utility.yul\":5413:5428   */\n      mstore\n        /* \"#utility.yul\":5447:5451   */\n      0x24\n        /* \"#utility.yul\":5444:5445   */\n      0x00\n        /* \"#utility.yul\":5437:5452   */\n      revert\n        /* \"#utility.yul\":5464:5644   */\n    tag_19:\n        /* \"#utility.yul\":5512:5589   */\n      0x4e487b7100000000000000000000000000000000000000000000000000000000\n        /* \"#utility.yul\":5509:5510   */\n      0x00\n        /* \"#utility.yul\":5502:5590   */\n      mstore\n        /* \"#utility.yul\":5609:5613   */\n      0x32\n        /* \"#utility.yul\":5606:5607   */\n      0x04\n        /* \"#utility.yul\":5599:5614   */\n      mstore\n        /* \"#utility.yul\":5633:5637   */\n      0x24\n        /* \"#utility.yul\":5630:5631   */\n      0x00\n        /* \"#utility.yul\":5623:5638   */\n      revert\n        /* \"#utility.yul\":5650:5830   */\n    tag_93:\n        /* \"#utility.yul\":5698:5775   */\n      0x4e487b7100000000000000000000000000000000000000000000000000000000\n        /* \"#utility.yul\":5695:5696   */\n      0x00\n        /* \"#utility.yul\":5688:5776   */\n      mstore\n        /* \"#utility.yul\":5795:5799   */\n      0x41\n        /* \"#utility.yul\":5792:5793   */\n      0x04\n        /* \"#utility.yul\":5785:5800   */\n      mstore\n        /* \"#utility.yul\":5819:5823   */\n      0x24\n        /* \"#utility.yul\":5816:5817   */\n      0x00\n        /* \"#utility.yul\":5809:5824   */\n      revert\n        /* \"#utility.yul\":5836:5953   */\n    tag_49:\n        /* \"#utility.yul\":5945:5946   */\n      0x00\n        /* \"#utility.yul\":5942:5943   */\n      dup1\n        /* \"#utility.yul\":5935:5947   */\n      revert\n        /* \"#utility.yul\":5959:6076   */\n    tag_39:\n        /* \"#utility.yul\":6068:6069   */\n      0x00\n        /* \"#utility.yul\":6065:6066   */\n      dup1\n        /* \"#utility.yul\":6058:6070   */\n      revert\n        /* \"#utility.yul\":6082:6199   */\n    tag_64:\n        /* \"#utility.yul\":6191:6192   */\n      0x00\n        /* \"#utility.yul\":6188:6189   */\n      dup1\n        /* \"#utility.yul\":6181:6193   */\n      revert\n        /* \"#utility.yul\":6205:6322   */\n    tag_61:\n        /* \"#utility.yul\":6314:6315   */\n      0x00\n        /* \"#utility.yul\":6311:6312   */\n      dup1\n        /* \"#utility.yul\":6304:6316   */\n      revert\n        /* \"#utility.yul\":6328:6430   */\n    tag_106:\n        /* \"#utility.yul\":6369:6375   */\n      0x00\n        /* \"#utility.yul\":6420:6422   */\n      0x1f\n        /* \"#utility.yul\":6416:6423   */\n      not\n        /* \"#utility.yul\":6411:6413   */\n      0x1f\n        /* \"#utility.yul\":6404:6409   */\n      dup4\n        /* \"#utility.yul\":6400:6414   */\n      add\n        /* \"#utility.yul\":6396:6424   */\n      and\n        /* \"#utility.yul\":6386:6424   */\n      swap1\n      pop\n        /* \"#utility.yul\":6328:6430   */\n      swap2\n      swap1\n      pop\n      jump\t// out\n        /* \"#utility.yul\":6436:6558   */\n    tag_53:\n        /* \"#utility.yul\":6509:6533   */\n      tag_130\n        /* \"#utility.yul\":6527:6532   */\n      dup2\n        /* \"#utility.yul\":6509:6533   */\n      tag_77\n      jump\t// in\n    tag_130:\n        /* \"#utility.yul\":6502:6507   */\n      dup2\n        /* \"#utility.yul\":6499:6534   */\n      eq\n        /* \"#utility.yul\":6489:6552   */\n      tag_131\n      jumpi\n        /* \"#utility.yul\":6548:6549   */\n      0x00\n        /* \"#utility.yul\":6545:6546   */\n      dup1\n        /* \"#utility.yul\":6538:6550   */\n      revert\n        /* \"#utility.yul\":6489:6552   */\n    tag_131:\n        /* \"#utility.yul\":6436:6558   */\n      pop\n      jump\t// out\n        /* \"#utility.yul\":6564:6686   */\n    tag_57:\n        /* \"#utility.yul\":6637:6661   */\n      tag_133\n        /* \"#utility.yul\":6655:6660   */\n      dup2\n        /* \"#utility.yul\":6637:6661   */\n      tag_96\n      jump\t// in\n    tag_133:\n        /* \"#utility.yul\":6630:6635   */\n      dup2\n        /* \"#utility.yul\":6627:6662   */\n      eq\n        /* \"#utility.yul\":6617:6680   */\n      tag_134\n      jumpi\n        /* \"#utility.yul\":6676:6677   */\n      0x00\n        /* \"#utility.yul\":6673:6674   */\n      dup1\n        /* \"#utility.yul\":6666:6678   */\n      revert\n        /* \"#utility.yul\":6617:6680   */\n    tag_134:\n        /* \"#utility.yul\":6564:6686   */\n      pop\n      jump\t// out\n\n    auxdata: 0xa264697066735822122079c621529d30e9daebbf3eccd1dbfee4b0f7b392446a96f8139a7d861a5c50f064736f6c63430008070033\n}\n",
				"bytecode": {
					"linkReferences": {},
					"object": "608060405234801561001057600080fd5b5061059c806100206000396000f3fe608060405234801561001057600080fd5b506004361061002b5760003560e01c806321fb335c14610030575b600080fd5b61004a60048036038101906100459190610210565b610060565b60405161005791906102e5565b60405180910390f35b60008083905060005b86518110156101395760006002856100819190610426565b14156100d1578187828151811061009b5761009a6104b5565b5b60200260200101516040516020016100b49291906102b9565b604051602081830303815290604052805190602001209150610117565b8681815181106100e4576100e36104b5565b5b6020026020010151826040516020016100fe9291906102b9565b6040516020818303038152906040528051906020012091505b6002846101249190610351565b93508080610131906103d3565b915050610069565b50848114915050949350505050565b600061015b61015684610325565b610300565b9050808382526020820190508285602086028201111561017e5761017d610518565b5b60005b858110156101ae578161019488826101e6565b845260208401935060208301925050600181019050610181565b5050509392505050565b600082601f8301126101cd576101cc610513565b5b81356101dd848260208601610148565b91505092915050565b6000813590506101f581610538565b92915050565b60008135905061020a8161054f565b92915050565b6000806000806080858703121561022a57610229610522565b5b600085013567ffffffffffffffff8111156102485761024761051d565b5b610254878288016101b8565b9450506020610265878288016101e6565b9350506040610276878288016101e6565b9250506060610287878288016101fb565b91505092959194509250565b61029c81610382565b82525050565b6102b36102ae8261038e565b61041c565b82525050565b60006102c582856102a2565b6020820191506102d582846102a2565b6020820191508190509392505050565b60006020820190506102fa6000830184610293565b92915050565b600061030a61031b565b905061031682826103a2565b919050565b6000604051905090565b600067ffffffffffffffff8211156103405761033f6104e4565b5b602082029050602081019050919050565b600061035c82610398565b915061036783610398565b92508261037757610376610486565b5b828204905092915050565b60008115159050919050565b6000819050919050565b6000819050919050565b6103ab82610527565b810181811067ffffffffffffffff821117156103ca576103c96104e4565b5b80604052505050565b60006103de82610398565b91507fffffffffffffffffffffffffffffffffffffffffffffffffffffffffffffffff82141561041157610410610457565b5b600182019050919050565b6000819050919050565b600061043182610398565b915061043c83610398565b92508261044c5761044b610486565b5b828206905092915050565b7f4e487b7100000000000000000000000000000000000000000000000000000000600052601160045260246000fd5b7f4e487b7100000000000000000000000000000000000000000000000000000000600052601260045260246000fd5b7f4e487b7100000000000000000000000000000000000000000000000000000000600052603260045260246000fd5b7f4e487b7100000000000000000000000000000000000000000000000000000000600052604160045260246000fd5b600080fd5b600080fd5b600080fd5b600080fd5b6000601f19601f8301169050919050565b6105418161038e565b811461054c57600080fd5b50565b61055881610398565b811461056357600080fd5b5056fea264697066735822122079c621529d30e9daebbf3eccd1dbfee4b0f7b392446a96f8139a7d861a5c50f064736f6c63430008070033",
					"opcodes": "PUSH1 0x80 PUSH1 0x40 MSTORE CALLVALUE DUP1 ISZERO PUSH2 0x10 JUMPI PUSH1 0x0 DUP1 REVERT JUMPDEST POP PUSH2 0x59C DUP1 PUSH2 0x20 PUSH1 0x0 CODECOPY PUSH1 0x0 RETURN INVALID PUSH1 0x80 PUSH1 0x40 MSTORE CALLVALUE DUP1 ISZERO PUSH2 0x10 JUMPI PUSH1 0x0 DUP1 REVERT JUMPDEST POP PUSH1 0x4 CALLDATASIZE LT PUSH2 0x2B JUMPI PUSH1 0x0 CALLDATALOAD PUSH1 0xE0 SHR DUP1 PUSH4 0x21FB335C EQ PUSH2 0x30 JUMPI JUMPDEST PUSH1 0x0 DUP1 REVERT JUMPDEST PUSH2 0x4A PUSH1 0x4 DUP1 CALLDATASIZE SUB DUP2 ADD SWAP1 PUSH2 0x45 SWAP2 SWAP1 PUSH2 0x210 JUMP JUMPDEST PUSH2 0x60 JUMP JUMPDEST PUSH1 0x40 MLOAD PUSH2 0x57 SWAP2 SWAP1 PUSH2 0x2E5 JUMP JUMPDEST PUSH1 0x40 MLOAD DUP1 SWAP2 SUB SWAP1 RETURN JUMPDEST PUSH1 0x0 DUP1 DUP4 SWAP1 POP PUSH1 0x0 JUMPDEST DUP7 MLOAD DUP2 LT ISZERO PUSH2 0x139 JUMPI PUSH1 0x0 PUSH1 0x2 DUP6 PUSH2 0x81 SWAP2 SWAP1 PUSH2 0x426 JUMP JUMPDEST EQ ISZERO PUSH2 0xD1 JUMPI DUP2 DUP8 DUP3 DUP2 MLOAD DUP2 LT PUSH2 0x9B JUMPI PUSH2 0x9A PUSH2 0x4B5 JUMP JUMPDEST JUMPDEST PUSH1 0x20 MUL PUSH1 0x20 ADD ADD MLOAD PUSH1 0x40 MLOAD PUSH1 0x20 ADD PUSH2 0xB4 SWAP3 SWAP2 SWAP1 PUSH2 0x2B9 JUMP JUMPDEST PUSH1 0x40 MLOAD PUSH1 0x20 DUP2 DUP4 SUB SUB DUP2 MSTORE SWAP1 PUSH1 0x40 MSTORE DUP1 MLOAD SWAP1 PUSH1 0x20 ADD KECCAK256 SWAP2 POP PUSH2 0x117 JUMP JUMPDEST DUP7 DUP2 DUP2 MLOAD DUP2 LT PUSH2 0xE4 JUMPI PUSH2 0xE3 PUSH2 0x4B5 JUMP JUMPDEST JUMPDEST PUSH1 0x20 MUL PUSH1 0x20 ADD ADD MLOAD DUP3 PUSH1 0x40 MLOAD PUSH1 0x20 ADD PUSH2 0xFE SWAP3 SWAP2 SWAP1 PUSH2 0x2B9 JUMP JUMPDEST PUSH1 0x40 MLOAD PUSH1 0x20 DUP2 DUP4 SUB SUB DUP2 MSTORE SWAP1 PUSH1 0x40 MSTORE DUP1 MLOAD SWAP1 PUSH1 0x20 ADD KECCAK256 SWAP2 POP JUMPDEST PUSH1 0x2 DUP5 PUSH2 0x124 SWAP2 SWAP1 PUSH2 0x351 JUMP JUMPDEST SWAP4 POP DUP1 DUP1 PUSH2 0x131 SWAP1 PUSH2 0x3D3 JUMP JUMPDEST SWAP2 POP POP PUSH2 0x69 JUMP JUMPDEST POP DUP5 DUP2 EQ SWAP2 POP POP SWAP5 SWAP4 POP POP POP POP JUMP JUMPDEST PUSH1 0x0 PUSH2 0x15B PUSH2 0x156 DUP5 PUSH2 0x325 JUMP JUMPDEST PUSH2 0x300 JUMP JUMPDEST SWAP1 POP DUP1 DUP4 DUP3 MSTORE PUSH1 0x20 DUP3 ADD SWAP1 POP DUP3 DUP6 PUSH1 0x20 DUP7 MUL DUP3 ADD GT ISZERO PUSH2 0x17E JUMPI PUSH2 0x17D PUSH2 0x518 JUMP JUMPDEST JUMPDEST PUSH1 0x0 JUMPDEST DUP6 DUP2 LT ISZERO PUSH2 0x1AE JUMPI DUP2 PUSH2 0x194 DUP9 DUP3 PUSH2 0x1E6 JUMP JUMPDEST DUP5 MSTORE PUSH1 0x20 DUP5 ADD SWAP4 POP PUSH1 0x20 DUP4 ADD SWAP3 POP POP PUSH1 0x1 DUP2 ADD SWAP1 POP PUSH2 0x181 JUMP JUMPDEST POP POP POP SWAP4 SWAP3 POP POP POP JUMP JUMPDEST PUSH1 0x0 DUP3 PUSH1 0x1F DUP4 ADD SLT PUSH2 0x1CD JUMPI PUSH2 0x1CC PUSH2 0x513 JUMP JUMPDEST JUMPDEST DUP2 CALLDATALOAD PUSH2 0x1DD DUP5 DUP3 PUSH1 0x20 DUP7 ADD PUSH2 0x148 JUMP JUMPDEST SWAP2 POP POP SWAP3 SWAP2 POP POP JUMP JUMPDEST PUSH1 0x0 DUP2 CALLDATALOAD SWAP1 POP PUSH2 0x1F5 DUP2 PUSH2 0x538 JUMP JUMPDEST SWAP3 SWAP2 POP POP JUMP JUMPDEST PUSH1 0x0 DUP2 CALLDATALOAD SWAP1 POP PUSH2 0x20A DUP2 PUSH2 0x54F JUMP JUMPDEST SWAP3 SWAP2 POP POP JUMP JUMPDEST PUSH1 0x0 DUP1 PUSH1 0x0 DUP1 PUSH1 0x80 DUP6 DUP8 SUB SLT ISZERO PUSH2 0x22A JUMPI PUSH2 0x229 PUSH2 0x522 JUMP JUMPDEST JUMPDEST PUSH1 0x0 DUP6 ADD CALLDATALOAD PUSH8 0xFFFFFFFFFFFFFFFF DUP2 GT ISZERO PUSH2 0x248 JUMPI PUSH2 0x247 PUSH2 0x51D JUMP JUMPDEST JUMPDEST PUSH2 0x254 DUP8 DUP3 DUP9 ADD PUSH2 0x1B8 JUMP JUMPDEST SWAP5 POP POP PUSH1 0x20 PUSH2 0x265 DUP8 DUP3 DUP9 ADD PUSH2 0x1E6 JUMP JUMPDEST SWAP4 POP POP PUSH1 0x40 PUSH2 0x276 DUP8 DUP3 DUP9 ADD PUSH2 0x1E6 JUMP JUMPDEST SWAP3 POP POP PUSH1 0x60 PUSH2 0x287 DUP8 DUP3 DUP9 ADD PUSH2 0x1FB JUMP JUMPDEST SWAP2 POP POP SWAP3 SWAP6 SWAP2 SWAP5 POP SWAP3 POP JUMP JUMPDEST PUSH2 0x29C DUP2 PUSH2 0x382 JUMP JUMPDEST DUP3 MSTORE POP POP JUMP JUMPDEST PUSH2 0x2B3 PUSH2 0x2AE DUP3 PUSH2 0x38E JUMP JUMPDEST PUSH2 0x41C JUMP JUMPDEST DUP3 MSTORE POP POP JUMP JUMPDEST PUSH1 0x0 PUSH2 0x2C5 DUP3 DUP6 PUSH2 0x2A2 JUMP JUMPDEST PUSH1 0x20 DUP3 ADD SWAP2 POP PUSH2 0x2D5 DUP3 DUP5 PUSH2 0x2A2 JUMP JUMPDEST PUSH1 0x20 DUP3 ADD SWAP2 POP DUP2 SWAP1 POP SWAP4 SWAP3 POP POP POP JUMP JUMPDEST PUSH1 0x0 PUSH1 0x20 DUP3 ADD SWAP1 POP PUSH2 0x2FA PUSH1 0x0 DUP4 ADD DUP5 PUSH2 0x293 JUMP JUMPDEST SWAP3 SWAP2 POP POP JUMP JUMPDEST PUSH1 0x0 PUSH2 0x30A PUSH2 0x31B JUMP JUMPDEST SWAP1 POP PUSH2 0x316 DUP3 DUP3 PUSH2 0x3A2 JUMP JUMPDEST SWAP2 SWAP1 POP JUMP JUMPDEST PUSH1 0x0 PUSH1 0x40 MLOAD SWAP1 POP SWAP1 JUMP JUMPDEST PUSH1 0x0 PUSH8 0xFFFFFFFFFFFFFFFF DUP3 GT ISZERO PUSH2 0x340 JUMPI PUSH2 0x33F PUSH2 0x4E4 JUMP JUMPDEST JUMPDEST PUSH1 0x20 DUP3 MUL SWAP1 POP PUSH1 0x20 DUP2 ADD SWAP1 POP SWAP2 SWAP1 POP JUMP JUMPDEST PUSH1 0x0 PUSH2 0x35C DUP3 PUSH2 0x398 JUMP JUMPDEST SWAP2 POP PUSH2 0x367 DUP4 PUSH2 0x398 JUMP JUMPDEST SWAP3 POP DUP3 PUSH2 0x377 JUMPI PUSH2 0x376 PUSH2 0x486 JUMP JUMPDEST JUMPDEST DUP3 DUP3 DIV SWAP1 POP SWAP3 SWAP2 POP POP JUMP JUMPDEST PUSH1 0x0 DUP2 ISZERO ISZERO SWAP1 POP SWAP2 SWAP1 POP JUMP JUMPDEST PUSH1 0x0 DUP2 SWAP1 POP SWAP2 SWAP1 POP JUMP JUMPDEST PUSH1 0x0 DUP2 SWAP1 POP SWAP2 SWAP1 POP JUMP JUMPDEST PUSH2 0x3AB DUP3 PUSH2 0x527 JUMP JUMPDEST DUP2 ADD DUP2 DUP2 LT PUSH8 0xFFFFFFFFFFFFFFFF DUP3 GT OR ISZERO PUSH2 0x3CA JUMPI PUSH2 0x3C9 PUSH2 0x4E4 JUMP JUMPDEST JUMPDEST DUP1 PUSH1 0x40 MSTORE POP POP POP JUMP JUMPDEST PUSH1 0x0 PUSH2 0x3DE DUP3 PUSH2 0x398 JUMP JUMPDEST SWAP2 POP PUSH32 0xFFFFFFFFFFFFFFFFFFFFFFFFFFFFFFFFFFFFFFFFFFFFFFFFFFFFFFFFFFFFFFFF DUP3 EQ ISZERO PUSH2 0x411 JUMPI PUSH2 0x410 PUSH2 0x457 JUMP JUMPDEST JUMPDEST PUSH1 0x1 DUP3 ADD SWAP1 POP SWAP2 SWAP1 POP JUMP JUMPDEST PUSH1 0x0 DUP2 SWAP1 POP SWAP2 SWAP1 POP JUMP JUMPDEST PUSH1 0x0 PUSH2 0x431 DUP3 PUSH2 0x398 JUMP JUMPDEST SWAP2 POP PUSH2 0x43C DUP4 PUSH2 0x398 JUMP JUMPDEST SWAP3 POP DUP3 PUSH2 0x44C JUMPI PUSH2 0x44B PUSH2 0x486 JUMP JUMPDEST JUMPDEST DUP3 DUP3 MOD SWAP1 POP SWAP3 SWAP2 POP POP JUMP JUMPDEST PUSH32 0x4E487B7100000000000000000000000000000000000000000000000000000000 PUSH1 0x0 MSTORE PUSH1 0x11 PUSH1 0x4 MSTORE PUSH1 0x24 PUSH1 0x0 REVERT JUMPDEST PUSH32 0x4E487B7100000000000000000000000000000000000000000000000000000000 PUSH1 0x0 MSTORE PUSH1 0x12 PUSH1 0x4 MSTORE PUSH1 0x24 PUSH1 0x0 REVERT JUMPDEST PUSH32 0x4E487B7100000000000000000000000000000000000000000000000000000000 PUSH1 0x0 MSTORE PUSH1 0x32 PUSH1 0x4 MSTORE PUSH1 0x24 PUSH1 0x0 REVERT JUMPDEST PUSH32 0x4E487B7100000000000000000000000000000000000000000000000000000000 PUSH1 0x0 MSTORE PUSH1 0x41 PUSH1 0x4 MSTORE PUSH1 0x24 PUSH1 0x0 REVERT JUMPDEST PUSH1 0x0 DUP1 REVERT JUMPDEST PUSH1 0x0 DUP1 REVERT JUMPDEST PUSH1 0x0 DUP1 REVERT JUMPDEST PUSH1 0x0 DUP1 REVERT JUMPDEST PUSH1 0x0 PUSH1 0x1F NOT PUSH1 0x1F DUP4 ADD AND SWAP1 POP SWAP2 SWAP1 POP JUMP JUMPDEST PUSH2 0x541 DUP2 PUSH2 0x38E JUMP JUMPDEST DUP2 EQ PUSH2 0x54C JUMPI PUSH1 0x0 DUP1 REVERT JUMPDEST POP JUMP JUMPDEST PUSH2 0x558 DUP2 PUSH2 0x398 JUMP JUMPDEST DUP2 EQ PUSH2 0x563 JUMPI PUSH1 0x0 DUP1 REVERT JUMPDEST POP JUMP INVALID LOG2 PUSH5 0x6970667358 0x22 SLT KECCAK256 PUSH26 0xC621529D30E9DAEBBF3ECCD1DBFEE4B0F7B392446A96F8139A7D DUP7 BYTE 0x5C POP CREATE PUSH5 0x736F6C6343 STOP ADDMOD SMOD STOP CALLER "
				},
				"gasEstimates": {
					"creation": {
						"codeDepositCost": "287200",
						"executionCost": "324",
						"totalCost": "287524"
					},
					"external": {
						"verify(bytes32[],bytes32,bytes32,uint256)": "infinite"
					}
				},
				"methodIdentifiers": {
					"verify(bytes32[],bytes32,bytes32,uint256)": "21fb335c"
				}
			},
			"storageLayout": {
				"storage": [],
				"types": null
			},
			"userdoc": {
				"kind": "user",
				"methods": {},
				"version": 1
			}
		}
	}
}