{
	"contracts/utils/Verify.sol": {
		"VerifySig": {
			"abi": [
				{
					"inputs": [
						{
							"internalType": "address",
							"name": "_signer",
							"type": "address"
						},
						{
							"internalType": "string",
							"name": "_message",
							"type": "string"
						},
						{
							"internalType": "bytes",
							"name": "_sig",
							"type": "bytes"
						}
					],
					"name": "verify",
					"outputs": [
						{
							"internalType": "bool",
							"name": "",
							"type": "bool"
						}
					],
					"stateMutability": "pure",
					"type": "function"
				}
			],
			"devdoc": {
				"kind": "dev",
				"methods": {},
				"version": 1
			},
			"evm": {
				"assembly": "    /* \"contracts/utils/Verify.sol\":58:192  contract VerifySig {... */\n  mstore(0x40, 0x80)\n  callvalue\n  dup1\n  iszero\n  tag_1\n  jumpi\n  0x00\n  dup1\n  revert\ntag_1:\n  pop\n  dataSize(sub_0)\n  dup1\n  dataOffset(sub_0)\n  0x00\n  codecopy\n  0x00\n  return\nstop\n\nsub_0: assembly {\n        /* \"contracts/utils/Verify.sol\":58:192  contract VerifySig {... */\n      mstore(0x40, 0x80)\n      callvalue\n      dup1\n      iszero\n      tag_1\n      jumpi\n      0x00\n      dup1\n      revert\n    tag_1:\n      pop\n      jumpi(tag_2, lt(calldatasize, 0x04))\n      shr(0xe0, calldataload(0x00))\n      dup1\n      0x2dd34f0f\n      eq\n      tag_3\n      jumpi\n    tag_2:\n      0x00\n      dup1\n      revert\n        /* \"contracts/utils/Verify.sol\":83:190  function verify(address _signer, string memory _message, bytes memory _sig) external pure returns (bool) {} */\n    tag_3:\n      tag_4\n      0x04\n      dup1\n      calldatasize\n      sub\n      dup2\n      add\n      swap1\n      tag_5\n      swap2\n      swap1\n      tag_6\n      jump\t// in\n    tag_5:\n      tag_7\n      jump\t// in\n    tag_4:\n      mload(0x40)\n      tag_8\n      swap2\n      swap1\n      tag_9\n      jump\t// in\n    tag_8:\n      mload(0x40)\n      dup1\n      swap2\n      sub\n      swap1\n      return\n    tag_7:\n        /* \"contracts/utils/Verify.sol\":182:186  bool */\n      0x00\n        /* \"contracts/utils/Verify.sol\":83:190  function verify(address _signer, string memory _message, bytes memory _sig) external pure returns (bool) {} */\n      swap4\n      swap3\n      pop\n      pop\n      pop\n      jump\t// out\n        /* \"#utility.yul\":7:82   */\n    tag_11:\n        /* \"#utility.yul\":40:46   */\n      0x00\n        /* \"#utility.yul\":73:75   */\n      0x40\n        /* \"#utility.yul\":67:76   */\n      mload\n        /* \"#utility.yul\":57:76   */\n      swap1\n      pop\n        /* \"#utility.yul\":7:82   */\n      swap1\n      jump\t// out\n        /* \"#utility.yul\":88:205   */\n    tag_12:\n        /* \"#utility.yul\":197:198   */\n      0x00\n        /* \"#utility.yul\":194:195   */\n      dup1\n        /* \"#utility.yul\":187:199   */\n      revert\n        /* \"#utility.yul\":211:328   */\n    tag_13:\n        /* \"#utility.yul\":320:321   */\n      0x00\n        /* \"#utility.yul\":317:318   */\n      dup1\n        /* \"#utility.yul\":310:322   */\n      revert\n        /* \"#utility.yul\":334:460   */\n    tag_14:\n        /* \"#utility.yul\":371:378   */\n      0x00\n        /* \"#utility.yul\":411:453   */\n      0xffffffffffffffffffffffffffffffffffffffff\n        /* \"#utility.yul\":404:409   */\n      dup3\n        /* \"#utility.yul\":400:454   */\n      and\n        /* \"#utility.yul\":389:454   */\n      swap1\n      pop\n        /* \"#utility.yul\":334:460   */\n      swap2\n      swap1\n      pop\n      jump\t// out\n        /* \"#utility.yul\":466:562   */\n    tag_15:\n        /* \"#utility.yul\":503:510   */\n      0x00\n        /* \"#utility.yul\":532:556   */\n      tag_39\n        /* \"#utility.yul\":550:555   */\n      dup3\n        /* \"#utility.yul\":532:556   */\n      tag_14\n      jump\t// in\n    tag_39:\n        /* \"#utility.yul\":521:556   */\n      swap1\n      pop\n        /* \"#utility.yul\":466:562   */\n      swap2\n      swap1\n      pop\n      jump\t// out\n        /* \"#utility.yul\":568:690   */\n    tag_16:\n        /* \"#utility.yul\":641:665   */\n      tag_41\n        /* \"#utility.yul\":659:664   */\n      dup2\n        /* \"#utility.yul\":641:665   */\n      tag_15\n      jump\t// in\n    tag_41:\n        /* \"#utility.yul\":634:639   */\n      dup2\n        /* \"#utility.yul\":631:666   */\n      eq\n        /* \"#utility.yul\":621:684   */\n      tag_42\n      jumpi\n        /* \"#utility.yul\":680:681   */\n      0x00\n        /* \"#utility.yul\":677:678   */\n      dup1\n        /* \"#utility.yul\":670:682   */\n      revert\n        /* \"#utility.yul\":621:684   */\n    tag_42:\n        /* \"#utility.yul\":568:690   */\n      pop\n      jump\t// out\n        /* \"#utility.yul\":696:835   */\n    tag_17:\n        /* \"#utility.yul\":742:747   */\n      0x00\n        /* \"#utility.yul\":780:786   */\n      dup2\n        /* \"#utility.yul\":767:787   */\n      calldataload\n        /* \"#utility.yul\":758:787   */\n      swap1\n      pop\n        /* \"#utility.yul\":796:829   */\n      tag_44\n        /* \"#utility.yul\":823:828   */\n      dup2\n        /* \"#utility.yul\":796:829   */\n      tag_16\n      jump\t// in\n    tag_44:\n        /* \"#utility.yul\":696:835   */\n      swap3\n      swap2\n      pop\n      pop\n      jump\t// out\n        /* \"#utility.yul\":841:958   */\n    tag_18:\n        /* \"#utility.yul\":950:951   */\n      0x00\n        /* \"#utility.yul\":947:948   */\n      dup1\n        /* \"#utility.yul\":940:952   */\n      revert\n        /* \"#utility.yul\":964:1081   */\n    tag_19:\n        /* \"#utility.yul\":1073:1074   */\n      0x00\n        /* \"#utility.yul\":1070:1071   */\n      dup1\n        /* \"#utility.yul\":1063:1075   */\n      revert\n        /* \"#utility.yul\":1087:1189   */\n    tag_20:\n        /* \"#utility.yul\":1128:1134   */\n      0x00\n        /* \"#utility.yul\":1179:1181   */\n      0x1f\n        /* \"#utility.yul\":1175:1182   */\n      not\n        /* \"#utility.yul\":1170:1172   */\n      0x1f\n        /* \"#utility.yul\":1163:1168   */\n      dup4\n        /* \"#utility.yul\":1159:1173   */\n      add\n        /* \"#utility.yul\":1155:1183   */\n      and\n        /* \"#utility.yul\":1145:1183   */\n      swap1\n      pop\n        /* \"#utility.yul\":1087:1189   */\n      swap2\n      swap1\n      pop\n      jump\t// out\n        /* \"#utility.yul\":1195:1375   */\n    tag_21:\n        /* \"#utility.yul\":1243:1320   */\n      0x4e487b7100000000000000000000000000000000000000000000000000000000\n        /* \"#utility.yul\":1240:1241   */\n      0x00\n        /* \"#utility.yul\":1233:1321   */\n      mstore\n        /* \"#utility.yul\":1340:1344   */\n      0x41\n        /* \"#utility.yul\":1337:1338   */\n      0x04\n        /* \"#utility.yul\":1330:1345   */\n      mstore\n        /* \"#utility.yul\":1364:1368   */\n      0x24\n        /* \"#utility.yul\":1361:1362   */\n      0x00\n        /* \"#utility.yul\":1354:1369   */\n      revert\n        /* \"#utility.yul\":1381:1662   */\n    tag_22:\n        /* \"#utility.yul\":1464:1491   */\n      tag_50\n        /* \"#utility.yul\":1486:1490   */\n      dup3\n        /* \"#utility.yul\":1464:1491   */\n      tag_20\n      jump\t// in\n    tag_50:\n        /* \"#utility.yul\":1456:1462   */\n      dup2\n        /* \"#utility.yul\":1452:1492   */\n      add\n        /* \"#utility.yul\":1594:1600   */\n      dup2\n        /* \"#utility.yul\":1582:1592   */\n      dup2\n        /* \"#utility.yul\":1579:1601   */\n      lt\n        /* \"#utility.yul\":1558:1576   */\n      0xffffffffffffffff\n        /* \"#utility.yul\":1546:1556   */\n      dup3\n        /* \"#utility.yul\":1543:1577   */\n      gt\n        /* \"#utility.yul\":1540:1602   */\n      or\n        /* \"#utility.yul\":1537:1625   */\n      iszero\n      tag_51\n      jumpi\n        /* \"#utility.yul\":1605:1623   */\n      tag_52\n      tag_21\n      jump\t// in\n    tag_52:\n        /* \"#utility.yul\":1537:1625   */\n    tag_51:\n        /* \"#utility.yul\":1645:1655   */\n      dup1\n        /* \"#utility.yul\":1641:1643   */\n      0x40\n        /* \"#utility.yul\":1634:1656   */\n      mstore\n        /* \"#utility.yul\":1424:1662   */\n      pop\n        /* \"#utility.yul\":1381:1662   */\n      pop\n      pop\n      jump\t// out\n        /* \"#utility.yul\":1668:1797   */\n    tag_23:\n        /* \"#utility.yul\":1702:1708   */\n      0x00\n        /* \"#utility.yul\":1729:1749   */\n      tag_54\n      tag_11\n      jump\t// in\n    tag_54:\n        /* \"#utility.yul\":1719:1749   */\n      swap1\n      pop\n        /* \"#utility.yul\":1758:1791   */\n      tag_55\n        /* \"#utility.yul\":1786:1790   */\n      dup3\n        /* \"#utility.yul\":1778:1784   */\n      dup3\n        /* \"#utility.yul\":1758:1791   */\n      tag_22\n      jump\t// in\n    tag_55:\n        /* \"#utility.yul\":1668:1797   */\n      swap2\n      swap1\n      pop\n      jump\t// out\n        /* \"#utility.yul\":1803:2111   */\n    tag_24:\n        /* \"#utility.yul\":1865:1869   */\n      0x00\n        /* \"#utility.yul\":1955:1973   */\n      0xffffffffffffffff\n        /* \"#utility.yul\":1947:1953   */\n      dup3\n        /* \"#utility.yul\":1944:1974   */\n      gt\n        /* \"#utility.yul\":1941:1997   */\n      iszero\n      tag_57\n      jumpi\n        /* \"#utility.yul\":1977:1995   */\n      tag_58\n      tag_21\n      jump\t// in\n    tag_58:\n        /* \"#utility.yul\":1941:1997   */\n    tag_57:\n        /* \"#utility.yul\":2015:2044   */\n      tag_59\n        /* \"#utility.yul\":2037:2043   */\n      dup3\n        /* \"#utility.yul\":2015:2044   */\n      tag_20\n      jump\t// in\n    tag_59:\n        /* \"#utility.yul\":2007:2044   */\n      swap1\n      pop\n        /* \"#utility.yul\":2099:2103   */\n      0x20\n        /* \"#utility.yul\":2093:2097   */\n      dup2\n        /* \"#utility.yul\":2089:2104   */\n      add\n        /* \"#utility.yul\":2081:2104   */\n      swap1\n      pop\n        /* \"#utility.yul\":1803:2111   */\n      swap2\n      swap1\n      pop\n      jump\t// out\n        /* \"#utility.yul\":2117:2271   */\n    tag_25:\n        /* \"#utility.yul\":2201:2207   */\n      dup3\n        /* \"#utility.yul\":2196:2199   */\n      dup2\n        /* \"#utility.yul\":2191:2194   */\n      dup4\n        /* \"#utility.yul\":2178:2208   */\n      calldatacopy\n        /* \"#utility.yul\":2263:2264   */\n      0x00\n        /* \"#utility.yul\":2254:2260   */\n      dup4\n        /* \"#utility.yul\":2249:2252   */\n      dup4\n        /* \"#utility.yul\":2245:2261   */\n      add\n        /* \"#utility.yul\":2238:2265   */\n      mstore\n        /* \"#utility.yul\":2117:2271   */\n      pop\n      pop\n      pop\n      jump\t// out\n        /* \"#utility.yul\":2277:2689   */\n    tag_26:\n        /* \"#utility.yul\":2355:2360   */\n      0x00\n        /* \"#utility.yul\":2380:2446   */\n      tag_62\n        /* \"#utility.yul\":2396:2445   */\n      tag_63\n        /* \"#utility.yul\":2438:2444   */\n      dup5\n        /* \"#utility.yul\":2396:2445   */\n      tag_24\n      jump\t// in\n    tag_63:\n        /* \"#utility.yul\":2380:2446   */\n      tag_23\n      jump\t// in\n    tag_62:\n        /* \"#utility.yul\":2371:2446   */\n      swap1\n      pop\n        /* \"#utility.yul\":2469:2475   */\n      dup3\n        /* \"#utility.yul\":2462:2467   */\n      dup2\n        /* \"#utility.yul\":2455:2476   */\n      mstore\n        /* \"#utility.yul\":2507:2511   */\n      0x20\n        /* \"#utility.yul\":2500:2505   */\n      dup2\n        /* \"#utility.yul\":2496:2512   */\n      add\n        /* \"#utility.yul\":2545:2548   */\n      dup5\n        /* \"#utility.yul\":2536:2542   */\n      dup5\n        /* \"#utility.yul\":2531:2534   */\n      dup5\n        /* \"#utility.yul\":2527:2543   */\n      add\n        /* \"#utility.yul\":2524:2549   */\n      gt\n        /* \"#utility.yul\":2521:2633   */\n      iszero\n      tag_64\n      jumpi\n        /* \"#utility.yul\":2552:2631   */\n      tag_65\n      tag_19\n      jump\t// in\n    tag_65:\n        /* \"#utility.yul\":2521:2633   */\n    tag_64:\n        /* \"#utility.yul\":2642:2683   */\n      tag_66\n        /* \"#utility.yul\":2676:2682   */\n      dup5\n        /* \"#utility.yul\":2671:2674   */\n      dup3\n        /* \"#utility.yul\":2666:2669   */\n      dup6\n        /* \"#utility.yul\":2642:2683   */\n      tag_25\n      jump\t// in\n    tag_66:\n        /* \"#utility.yul\":2361:2689   */\n      pop\n        /* \"#utility.yul\":2277:2689   */\n      swap4\n      swap3\n      pop\n      pop\n      pop\n      jump\t// out\n        /* \"#utility.yul\":2709:3049   */\n    tag_27:\n        /* \"#utility.yul\":2765:2770   */\n      0x00\n        /* \"#utility.yul\":2814:2817   */\n      dup3\n        /* \"#utility.yul\":2807:2811   */\n      0x1f\n        /* \"#utility.yul\":2799:2805   */\n      dup4\n        /* \"#utility.yul\":2795:2812   */\n      add\n        /* \"#utility.yul\":2791:2818   */\n      slt\n        /* \"#utility.yul\":2781:2903   */\n      tag_68\n      jumpi\n        /* \"#utility.yul\":2822:2901   */\n      tag_69\n      tag_18\n      jump\t// in\n    tag_69:\n        /* \"#utility.yul\":2781:2903   */\n    tag_68:\n        /* \"#utility.yul\":2939:2945   */\n      dup2\n        /* \"#utility.yul\":2926:2946   */\n      calldataload\n        /* \"#utility.yul\":2964:3043   */\n      tag_70\n        /* \"#utility.yul\":3039:3042   */\n      dup5\n        /* \"#utility.yul\":3031:3037   */\n      dup3\n        /* \"#utility.yul\":3024:3028   */\n      0x20\n        /* \"#utility.yul\":3016:3022   */\n      dup7\n        /* \"#utility.yul\":3012:3029   */\n      add\n        /* \"#utility.yul\":2964:3043   */\n      tag_26\n      jump\t// in\n    tag_70:\n        /* \"#utility.yul\":2955:3043   */\n      swap2\n      pop\n        /* \"#utility.yul\":2771:3049   */\n      pop\n        /* \"#utility.yul\":2709:3049   */\n      swap3\n      swap2\n      pop\n      pop\n      jump\t// out\n        /* \"#utility.yul\":3055:3362   */\n    tag_28:\n        /* \"#utility.yul\":3116:3120   */\n      0x00\n        /* \"#utility.yul\":3206:3224   */\n      0xffffffffffffffff\n        /* \"#utility.yul\":3198:3204   */\n      dup3\n        /* \"#utility.yul\":3195:3225   */\n      gt\n        /* \"#utility.yul\":3192:3248   */\n      iszero\n      tag_72\n      jumpi\n        /* \"#utility.yul\":3228:3246   */\n      tag_73\n      tag_21\n      jump\t// in\n    tag_73:\n        /* \"#utility.yul\":3192:3248   */\n    tag_72:\n        /* \"#utility.yul\":3266:3295   */\n      tag_74\n        /* \"#utility.yul\":3288:3294   */\n      dup3\n        /* \"#utility.yul\":3266:3295   */\n      tag_20\n      jump\t// in\n    tag_74:\n        /* \"#utility.yul\":3258:3295   */\n      swap1\n      pop\n        /* \"#utility.yul\":3350:3354   */\n      0x20\n        /* \"#utility.yul\":3344:3348   */\n      dup2\n        /* \"#utility.yul\":3340:3355   */\n      add\n        /* \"#utility.yul\":3332:3355   */\n      swap1\n      pop\n        /* \"#utility.yul\":3055:3362   */\n      swap2\n      swap1\n      pop\n      jump\t// out\n        /* \"#utility.yul\":3368:3778   */\n    tag_29:\n        /* \"#utility.yul\":3445:3450   */\n      0x00\n        /* \"#utility.yul\":3470:3535   */\n      tag_76\n        /* \"#utility.yul\":3486:3534   */\n      tag_77\n        /* \"#utility.yul\":3527:3533   */\n      dup5\n        /* \"#utility.yul\":3486:3534   */\n      tag_28\n      jump\t// in\n    tag_77:\n        /* \"#utility.yul\":3470:3535   */\n      tag_23\n      jump\t// in\n    tag_76:\n        /* \"#utility.yul\":3461:3535   */\n      swap1\n      pop\n        /* \"#utility.yul\":3558:3564   */\n      dup3\n        /* \"#utility.yul\":3551:3556   */\n      dup2\n        /* \"#utility.yul\":3544:3565   */\n      mstore\n        /* \"#utility.yul\":3596:3600   */\n      0x20\n        /* \"#utility.yul\":3589:3594   */\n      dup2\n        /* \"#utility.yul\":3585:3601   */\n      add\n        /* \"#utility.yul\":3634:3637   */\n      dup5\n        /* \"#utility.yul\":3625:3631   */\n      dup5\n        /* \"#utility.yul\":3620:3623   */\n      dup5\n        /* \"#utility.yul\":3616:3632   */\n      add\n        /* \"#utility.yul\":3613:3638   */\n      gt\n        /* \"#utility.yul\":3610:3722   */\n      iszero\n      tag_78\n      jumpi\n        /* \"#utility.yul\":3641:3720   */\n      tag_79\n      tag_19\n      jump\t// in\n    tag_79:\n        /* \"#utility.yul\":3610:3722   */\n    tag_78:\n        /* \"#utility.yul\":3731:3772   */\n      tag_80\n        /* \"#utility.yul\":3765:3771   */\n      dup5\n        /* \"#utility.yul\":3760:3763   */\n      dup3\n        /* \"#utility.yul\":3755:3758   */\n      dup6\n        /* \"#utility.yul\":3731:3772   */\n      tag_25\n      jump\t// in\n    tag_80:\n        /* \"#utility.yul\":3451:3778   */\n      pop\n        /* \"#utility.yul\":3368:3778   */\n      swap4\n      swap3\n      pop\n      pop\n      pop\n      jump\t// out\n        /* \"#utility.yul\":3797:4135   */\n    tag_30:\n        /* \"#utility.yul\":3852:3857   */\n      0x00\n        /* \"#utility.yul\":3901:3904   */\n      dup3\n        /* \"#utility.yul\":3894:3898   */\n      0x1f\n        /* \"#utility.yul\":3886:3892   */\n      dup4\n        /* \"#utility.yul\":3882:3899   */\n      add\n        /* \"#utility.yul\":3878:3905   */\n      slt\n        /* \"#utility.yul\":3868:3990   */\n      tag_82\n      jumpi\n        /* \"#utility.yul\":3909:3988   */\n      tag_83\n      tag_18\n      jump\t// in\n    tag_83:\n        /* \"#utility.yul\":3868:3990   */\n    tag_82:\n        /* \"#utility.yul\":4026:4032   */\n      dup2\n        /* \"#utility.yul\":4013:4033   */\n      calldataload\n        /* \"#utility.yul\":4051:4129   */\n      tag_84\n        /* \"#utility.yul\":4125:4128   */\n      dup5\n        /* \"#utility.yul\":4117:4123   */\n      dup3\n        /* \"#utility.yul\":4110:4114   */\n      0x20\n        /* \"#utility.yul\":4102:4108   */\n      dup7\n        /* \"#utility.yul\":4098:4115   */\n      add\n        /* \"#utility.yul\":4051:4129   */\n      tag_29\n      jump\t// in\n    tag_84:\n        /* \"#utility.yul\":4042:4129   */\n      swap2\n      pop\n        /* \"#utility.yul\":3858:4135   */\n      pop\n        /* \"#utility.yul\":3797:4135   */\n      swap3\n      swap2\n      pop\n      pop\n      jump\t// out\n        /* \"#utility.yul\":4141:5118   */\n    tag_6:\n        /* \"#utility.yul\":4237:4243   */\n      0x00\n        /* \"#utility.yul\":4245:4251   */\n      dup1\n        /* \"#utility.yul\":4253:4259   */\n      0x00\n        /* \"#utility.yul\":4302:4304   */\n      0x60\n        /* \"#utility.yul\":4290:4299   */\n      dup5\n        /* \"#utility.yul\":4281:4288   */\n      dup7\n        /* \"#utility.yul\":4277:4300   */\n      sub\n        /* \"#utility.yul\":4273:4305   */\n      slt\n        /* \"#utility.yul\":4270:4389   */\n      iszero\n      tag_86\n      jumpi\n        /* \"#utility.yul\":4308:4387   */\n      tag_87\n      tag_12\n      jump\t// in\n    tag_87:\n        /* \"#utility.yul\":4270:4389   */\n    tag_86:\n        /* \"#utility.yul\":4428:4429   */\n      0x00\n        /* \"#utility.yul\":4453:4506   */\n      tag_88\n        /* \"#utility.yul\":4498:4505   */\n      dup7\n        /* \"#utility.yul\":4489:4495   */\n      dup3\n        /* \"#utility.yul\":4478:4487   */\n      dup8\n        /* \"#utility.yul\":4474:4496   */\n      add\n        /* \"#utility.yul\":4453:4506   */\n      tag_17\n      jump\t// in\n    tag_88:\n        /* \"#utility.yul\":4443:4506   */\n      swap4\n      pop\n        /* \"#utility.yul\":4399:4516   */\n      pop\n        /* \"#utility.yul\":4583:4585   */\n      0x20\n        /* \"#utility.yul\":4572:4581   */\n      dup5\n        /* \"#utility.yul\":4568:4586   */\n      add\n        /* \"#utility.yul\":4555:4587   */\n      calldataload\n        /* \"#utility.yul\":4614:4632   */\n      0xffffffffffffffff\n        /* \"#utility.yul\":4606:4612   */\n      dup2\n        /* \"#utility.yul\":4603:4633   */\n      gt\n        /* \"#utility.yul\":4600:4717   */\n      iszero\n      tag_89\n      jumpi\n        /* \"#utility.yul\":4636:4715   */\n      tag_90\n      tag_13\n      jump\t// in\n    tag_90:\n        /* \"#utility.yul\":4600:4717   */\n    tag_89:\n        /* \"#utility.yul\":4741:4804   */\n      tag_91\n        /* \"#utility.yul\":4796:4803   */\n      dup7\n        /* \"#utility.yul\":4787:4793   */\n      dup3\n        /* \"#utility.yul\":4776:4785   */\n      dup8\n        /* \"#utility.yul\":4772:4794   */\n      add\n        /* \"#utility.yul\":4741:4804   */\n      tag_27\n      jump\t// in\n    tag_91:\n        /* \"#utility.yul\":4731:4804   */\n      swap3\n      pop\n        /* \"#utility.yul\":4526:4814   */\n      pop\n        /* \"#utility.yul\":4881:4883   */\n      0x40\n        /* \"#utility.yul\":4870:4879   */\n      dup5\n        /* \"#utility.yul\":4866:4884   */\n      add\n        /* \"#utility.yul\":4853:4885   */\n      calldataload\n        /* \"#utility.yul\":4912:4930   */\n      0xffffffffffffffff\n        /* \"#utility.yul\":4904:4910   */\n      dup2\n        /* \"#utility.yul\":4901:4931   */\n      gt\n        /* \"#utility.yul\":4898:5015   */\n      iszero\n      tag_92\n      jumpi\n        /* \"#utility.yul\":4934:5013   */\n      tag_93\n      tag_13\n      jump\t// in\n    tag_93:\n        /* \"#utility.yul\":4898:5015   */\n    tag_92:\n        /* \"#utility.yul\":5039:5101   */\n      tag_94\n        /* \"#utility.yul\":5093:5100   */\n      dup7\n        /* \"#utility.yul\":5084:5090   */\n      dup3\n        /* \"#utility.yul\":5073:5082   */\n      dup8\n        /* \"#utility.yul\":5069:5091   */\n      add\n        /* \"#utility.yul\":5039:5101   */\n      tag_30\n      jump\t// in\n    tag_94:\n        /* \"#utility.yul\":5029:5101   */\n      swap2\n      pop\n        /* \"#utility.yul\":4824:5111   */\n      pop\n        /* \"#utility.yul\":4141:5118   */\n      swap3\n      pop\n      swap3\n      pop\n      swap3\n      jump\t// out\n        /* \"#utility.yul\":5124:5214   */\n    tag_31:\n        /* \"#utility.yul\":5158:5165   */\n      0x00\n        /* \"#utility.yul\":5201:5206   */\n      dup2\n        /* \"#utility.yul\":5194:5207   */\n      iszero\n        /* \"#utility.yul\":5187:5208   */\n      iszero\n        /* \"#utility.yul\":5176:5208   */\n      swap1\n      pop\n        /* \"#utility.yul\":5124:5214   */\n      swap2\n      swap1\n      pop\n      jump\t// out\n        /* \"#utility.yul\":5220:5329   */\n    tag_32:\n        /* \"#utility.yul\":5301:5322   */\n      tag_97\n        /* \"#utility.yul\":5316:5321   */\n      dup2\n        /* \"#utility.yul\":5301:5322   */\n      tag_31\n      jump\t// in\n    tag_97:\n        /* \"#utility.yul\":5296:5299   */\n      dup3\n        /* \"#utility.yul\":5289:5323   */\n      mstore\n        /* \"#utility.yul\":5220:5329   */\n      pop\n      pop\n      jump\t// out\n        /* \"#utility.yul\":5335:5545   */\n    tag_9:\n        /* \"#utility.yul\":5422:5426   */\n      0x00\n        /* \"#utility.yul\":5460:5462   */\n      0x20\n        /* \"#utility.yul\":5449:5458   */\n      dup3\n        /* \"#utility.yul\":5445:5463   */\n      add\n        /* \"#utility.yul\":5437:5463   */\n      swap1\n      pop\n        /* \"#utility.yul\":5473:5538   */\n      tag_99\n        /* \"#utility.yul\":5535:5536   */\n      0x00\n        /* \"#utility.yul\":5524:5533   */\n      dup4\n        /* \"#utility.yul\":5520:5537   */\n      add\n        /* \"#utility.yul\":5511:5517   */\n      dup5\n        /* \"#utility.yul\":5473:5538   */\n      tag_32\n      jump\t// in\n    tag_99:\n        /* \"#utility.yul\":5335:5545   */\n      swap3\n      swap2\n      pop\n      pop\n      jump\t// out\n\n    auxdata: 0xa2646970667358221220f2c4ff5983e63029a7835061f6166ce5d69044746b989673105caaa119f5bf6364736f6c634300080f0033\n}\n",
				"bytecode": {
					"linkReferences": {},
					"object": "608060405234801561001057600080fd5b506103b9806100206000396000f3fe608060405234801561001057600080fd5b506004361061002b5760003560e01c80632dd34f0f14610030575b600080fd5b61004a600480360381019061004591906102c2565b610060565b6040516100579190610368565b60405180910390f35b60009392505050565b6000604051905090565b600080fd5b600080fd5b600073ffffffffffffffffffffffffffffffffffffffff82169050919050565b60006100a88261007d565b9050919050565b6100b88161009d565b81146100c357600080fd5b50565b6000813590506100d5816100af565b92915050565b600080fd5b600080fd5b6000601f19601f8301169050919050565b7f4e487b7100000000000000000000000000000000000000000000000000000000600052604160045260246000fd5b61012e826100e5565b810181811067ffffffffffffffff8211171561014d5761014c6100f6565b5b80604052505050565b6000610160610069565b905061016c8282610125565b919050565b600067ffffffffffffffff82111561018c5761018b6100f6565b5b610195826100e5565b9050602081019050919050565b82818337600083830152505050565b60006101c46101bf84610171565b610156565b9050828152602081018484840111156101e0576101df6100e0565b5b6101eb8482856101a2565b509392505050565b600082601f830112610208576102076100db565b5b81356102188482602086016101b1565b91505092915050565b600067ffffffffffffffff82111561023c5761023b6100f6565b5b610245826100e5565b9050602081019050919050565b600061026561026084610221565b610156565b905082815260208101848484011115610281576102806100e0565b5b61028c8482856101a2565b509392505050565b600082601f8301126102a9576102a86100db565b5b81356102b9848260208601610252565b91505092915050565b6000806000606084860312156102db576102da610073565b5b60006102e9868287016100c6565b935050602084013567ffffffffffffffff81111561030a57610309610078565b5b610316868287016101f3565b925050604084013567ffffffffffffffff81111561033757610336610078565b5b61034386828701610294565b9150509250925092565b60008115159050919050565b6103628161034d565b82525050565b600060208201905061037d6000830184610359565b9291505056fea2646970667358221220f2c4ff5983e63029a7835061f6166ce5d69044746b989673105caaa119f5bf6364736f6c634300080f0033",
					"opcodes": "PUSH1 0x80 PUSH1 0x40 MSTORE CALLVALUE DUP1 ISZERO PUSH2 0x10 JUMPI PUSH1 0x0 DUP1 REVERT JUMPDEST POP PUSH2 0x3B9 DUP1 PUSH2 0x20 PUSH1 0x0 CODECOPY PUSH1 0x0 RETURN INVALID PUSH1 0x80 PUSH1 0x40 MSTORE CALLVALUE DUP1 ISZERO PUSH2 0x10 JUMPI PUSH1 0x0 DUP1 REVERT JUMPDEST POP PUSH1 0x4 CALLDATASIZE LT PUSH2 0x2B JUMPI PUSH1 0x0 CALLDATALOAD PUSH1 0xE0 SHR DUP1 PUSH4 0x2DD34F0F EQ PUSH2 0x30 JUMPI JUMPDEST PUSH1 0x0 DUP1 REVERT JUMPDEST PUSH2 0x4A PUSH1 0x4 DUP1 CALLDATASIZE SUB DUP2 ADD SWAP1 PUSH2 0x45 SWAP2 SWAP1 PUSH2 0x2C2 JUMP JUMPDEST PUSH2 0x60 JUMP JUMPDEST PUSH1 0x40 MLOAD PUSH2 0x57 SWAP2 SWAP1 PUSH2 0x368 JUMP JUMPDEST PUSH1 0x40 MLOAD DUP1 SWAP2 SUB SWAP1 RETURN JUMPDEST PUSH1 0x0 SWAP4 SWAP3 POP POP POP JUMP JUMPDEST PUSH1 0x0 PUSH1 0x40 MLOAD SWAP1 POP SWAP1 JUMP JUMPDEST PUSH1 0x0 DUP1 REVERT JUMPDEST PUSH1 0x0 DUP1 REVERT JUMPDEST PUSH1 0x0 PUSH20 0xFFFFFFFFFFFFFFFFFFFFFFFFFFFFFFFFFFFFFFFF DUP3 AND SWAP1 POP SWAP2 SWAP1 POP JUMP JUMPDEST PUSH1 0x0 PUSH2 0xA8 DUP3 PUSH2 0x7D JUMP JUMPDEST SWAP1 POP SWAP2 SWAP1 POP JUMP JUMPDEST PUSH2 0xB8 DUP2 PUSH2 0x9D JUMP JUMPDEST DUP2 EQ PUSH2 0xC3 JUMPI PUSH1 0x0 DUP1 REVERT JUMPDEST POP JUMP JUMPDEST PUSH1 0x0 DUP2 CALLDATALOAD SWAP1 POP PUSH2 0xD5 DUP2 PUSH2 0xAF JUMP JUMPDEST SWAP3 SWAP2 POP POP JUMP JUMPDEST PUSH1 0x0 DUP1 REVERT JUMPDEST PUSH1 0x0 DUP1 REVERT JUMPDEST PUSH1 0x0 PUSH1 0x1F NOT PUSH1 0x1F DUP4 ADD AND SWAP1 POP SWAP2 SWAP1 POP JUMP JUMPDEST PUSH32 0x4E487B7100000000000000000000000000000000000000000000000000000000 PUSH1 0x0 MSTORE PUSH1 0x41 PUSH1 0x4 MSTORE PUSH1 0x24 PUSH1 0x0 REVERT JUMPDEST PUSH2 0x12E DUP3 PUSH2 0xE5 JUMP JUMPDEST DUP2 ADD DUP2 DUP2 LT PUSH8 0xFFFFFFFFFFFFFFFF DUP3 GT OR ISZERO PUSH2 0x14D JUMPI PUSH2 0x14C PUSH2 0xF6 JUMP JUMPDEST JUMPDEST DUP1 PUSH1 0x40 MSTORE POP POP POP JUMP JUMPDEST PUSH1 0x0 PUSH2 0x160 PUSH2 0x69 JUMP JUMPDEST SWAP1 POP PUSH2 0x16C DUP3 DUP3 PUSH2 0x125 JUMP JUMPDEST SWAP2 SWAP1 POP JUMP JUMPDEST PUSH1 0x0 PUSH8 0xFFFFFFFFFFFFFFFF DUP3 GT ISZERO PUSH2 0x18C JUMPI PUSH2 0x18B PUSH2 0xF6 JUMP JUMPDEST JUMPDEST PUSH2 0x195 DUP3 PUSH2 0xE5 JUMP JUMPDEST SWAP1 POP PUSH1 0x20 DUP2 ADD SWAP1 POP SWAP2 SWAP1 POP JUMP JUMPDEST DUP3 DUP2 DUP4 CALLDATACOPY PUSH1 0x0 DUP4 DUP4 ADD MSTORE POP POP POP JUMP JUMPDEST PUSH1 0x0 PUSH2 0x1C4 PUSH2 0x1BF DUP5 PUSH2 0x171 JUMP JUMPDEST PUSH2 0x156 JUMP JUMPDEST SWAP1 POP DUP3 DUP2 MSTORE PUSH1 0x20 DUP2 ADD DUP5 DUP5 DUP5 ADD GT ISZERO PUSH2 0x1E0 JUMPI PUSH2 0x1DF PUSH2 0xE0 JUMP JUMPDEST JUMPDEST PUSH2 0x1EB DUP5 DUP3 DUP6 PUSH2 0x1A2 JUMP JUMPDEST POP SWAP4 SWAP3 POP POP POP JUMP JUMPDEST PUSH1 0x0 DUP3 PUSH1 0x1F DUP4 ADD SLT PUSH2 0x208 JUMPI PUSH2 0x207 PUSH2 0xDB JUMP JUMPDEST JUMPDEST DUP2 CALLDATALOAD PUSH2 0x218 DUP5 DUP3 PUSH1 0x20 DUP7 ADD PUSH2 0x1B1 JUMP JUMPDEST SWAP2 POP POP SWAP3 SWAP2 POP POP JUMP JUMPDEST PUSH1 0x0 PUSH8 0xFFFFFFFFFFFFFFFF DUP3 GT ISZERO PUSH2 0x23C JUMPI PUSH2 0x23B PUSH2 0xF6 JUMP JUMPDEST JUMPDEST PUSH2 0x245 DUP3 PUSH2 0xE5 JUMP JUMPDEST SWAP1 POP PUSH1 0x20 DUP2 ADD SWAP1 POP SWAP2 SWAP1 POP JUMP JUMPDEST PUSH1 0x0 PUSH2 0x265 PUSH2 0x260 DUP5 PUSH2 0x221 JUMP JUMPDEST PUSH2 0x156 JUMP JUMPDEST SWAP1 POP DUP3 DUP2 MSTORE PUSH1 0x20 DUP2 ADD DUP5 DUP5 DUP5 ADD GT ISZERO PUSH2 0x281 JUMPI PUSH2 0x280 PUSH2 0xE0 JUMP JUMPDEST JUMPDEST PUSH2 0x28C DUP5 DUP3 DUP6 PUSH2 0x1A2 JUMP JUMPDEST POP SWAP4 SWAP3 POP POP POP JUMP JUMPDEST PUSH1 0x0 DUP3 PUSH1 0x1F DUP4 ADD SLT PUSH2 0x2A9 JUMPI PUSH2 0x2A8 PUSH2 0xDB JUMP JUMPDEST JUMPDEST DUP2 CALLDATALOAD PUSH2 0x2B9 DUP5 DUP3 PUSH1 0x20 DUP7 ADD PUSH2 0x252 JUMP JUMPDEST SWAP2 POP POP SWAP3 SWAP2 POP POP JUMP JUMPDEST PUSH1 0x0 DUP1 PUSH1 0x0 PUSH1 0x60 DUP5 DUP7 SUB SLT ISZERO PUSH2 0x2DB JUMPI PUSH2 0x2DA PUSH2 0x73 JUMP JUMPDEST JUMPDEST PUSH1 0x0 PUSH2 0x2E9 DUP7 DUP3 DUP8 ADD PUSH2 0xC6 JUMP JUMPDEST SWAP4 POP POP PUSH1 0x20 DUP5 ADD CALLDATALOAD PUSH8 0xFFFFFFFFFFFFFFFF DUP2 GT ISZERO PUSH2 0x30A JUMPI PUSH2 0x309 PUSH2 0x78 JUMP JUMPDEST JUMPDEST PUSH2 0x316 DUP7 DUP3 DUP8 ADD PUSH2 0x1F3 JUMP JUMPDEST SWAP3 POP POP PUSH1 0x40 DUP5 ADD CALLDATALOAD PUSH8 0xFFFFFFFFFFFFFFFF DUP2 GT ISZERO PUSH2 0x337 JUMPI PUSH2 0x336 PUSH2 0x78 JUMP JUMPDEST JUMPDEST PUSH2 0x343 DUP7 DUP3 DUP8 ADD PUSH2 0x294 JUMP JUMPDEST SWAP2 POP POP SWAP3 POP SWAP3 POP SWAP3 JUMP JUMPDEST PUSH1 0x0 DUP2 ISZERO ISZERO SWAP1 POP SWAP2 SWAP1 POP JUMP JUMPDEST PUSH2 0x362 DUP2 PUSH2 0x34D JUMP JUMPDEST DUP3 MSTORE POP POP JUMP JUMPDEST PUSH1 0x0 PUSH1 0x20 DUP3 ADD SWAP1 POP PUSH2 0x37D PUSH1 0x0 DUP4 ADD DUP5 PUSH2 0x359 JUMP JUMPDEST SWAP3 SWAP2 POP POP JUMP INVALID LOG2 PUSH5 0x6970667358 0x22 SLT KECCAK256 CALLCODE 0xC4 SELFDESTRUCT MSIZE DUP4 0xE6 ADDRESS 0x29 0xA7 DUP4 POP PUSH2 0xF616 PUSH13 0xE5D69044746B989673105CAAA1 NOT CREATE2 0xBF PUSH4 0x64736F6C PUSH4 0x4300080F STOP CALLER "
				},
				"gasEstimates": {
					"creation": {
						"codeDepositCost": "190600",
						"executionCost": "232",
						"totalCost": "190832"
					},
					"external": {
						"verify(address,string,bytes)": "infinite"
					}
				},
				"methodIdentifiers": {
					"verify(address,string,bytes)": "2dd34f0f"
				}
			},
			"storageLayout": {
				"storage": [],
				"types": null
			},
			"userdoc": {
				"kind": "user",
				"methods": {},
				"version": 1
			}
		}
	}
}