{
	"contracts/utils/BitwiseOps.sol": {
		"BitwiseOps": {
			"abi": [
				{
					"inputs": [
						{
							"internalType": "uint256",
							"name": "x",
							"type": "uint256"
						},
						{
							"internalType": "uint256",
							"name": "y",
							"type": "uint256"
						}
					],
					"name": "and",
					"outputs": [
						{
							"internalType": "uint256",
							"name": "",
							"type": "uint256"
						}
					],
					"stateMutability": "pure",
					"type": "function"
				},
				{
					"inputs": [
						{
							"internalType": "uint256",
							"name": "x",
							"type": "uint256"
						},
						{
							"internalType": "uint256",
							"name": "n",
							"type": "uint256"
						},
						{
							"internalType": "uint256",
							"name": "len",
							"type": "uint256"
						}
					],
					"name": "getFirstNBits",
					"outputs": [
						{
							"internalType": "uint256",
							"name": "",
							"type": "uint256"
						}
					],
					"stateMutability": "pure",
					"type": "function"
				},
				{
					"inputs": [
						{
							"internalType": "uint256",
							"name": "x",
							"type": "uint256"
						},
						{
							"internalType": "uint256",
							"name": "n",
							"type": "uint256"
						}
					],
					"name": "getLastNBits",
					"outputs": [
						{
							"internalType": "uint256",
							"name": "",
							"type": "uint256"
						}
					],
					"stateMutability": "pure",
					"type": "function"
				},
				{
					"inputs": [
						{
							"internalType": "uint256",
							"name": "x",
							"type": "uint256"
						},
						{
							"internalType": "uint256",
							"name": "n",
							"type": "uint256"
						}
					],
					"name": "getLastNBitsUsingMod",
					"outputs": [
						{
							"internalType": "uint256",
							"name": "",
							"type": "uint256"
						}
					],
					"stateMutability": "pure",
					"type": "function"
				},
				{
					"inputs": [
						{
							"internalType": "uint256",
							"name": "x",
							"type": "uint256"
						}
					],
					"name": "mostSignificantBit",
					"outputs": [
						{
							"internalType": "uint256",
							"name": "",
							"type": "uint256"
						}
					],
					"stateMutability": "pure",
					"type": "function"
				},
				{
					"inputs": [
						{
							"internalType": "uint256",
							"name": "x",
							"type": "uint256"
						}
					],
					"name": "not",
					"outputs": [
						{
							"internalType": "uint256",
							"name": "",
							"type": "uint256"
						}
					],
					"stateMutability": "pure",
					"type": "function"
				},
				{
					"inputs": [
						{
							"internalType": "uint256",
							"name": "x",
							"type": "uint256"
						},
						{
							"internalType": "uint256",
							"name": "y",
							"type": "uint256"
						}
					],
					"name": "or",
					"outputs": [
						{
							"internalType": "uint256",
							"name": "",
							"type": "uint256"
						}
					],
					"stateMutability": "pure",
					"type": "function"
				},
				{
					"inputs": [
						{
							"internalType": "uint256",
							"name": "x",
							"type": "uint256"
						},
						{
							"internalType": "uint256",
							"name": "bits",
							"type": "uint256"
						}
					],
					"name": "shiftLeft",
					"outputs": [
						{
							"internalType": "uint256",
							"name": "",
							"type": "uint256"
						}
					],
					"stateMutability": "pure",
					"type": "function"
				},
				{
					"inputs": [
						{
							"internalType": "uint256",
							"name": "x",
							"type": "uint256"
						},
						{
							"internalType": "uint256",
							"name": "bits",
							"type": "uint256"
						}
					],
					"name": "shiftRight",
					"outputs": [
						{
							"internalType": "uint256",
							"name": "",
							"type": "uint256"
						}
					],
					"stateMutability": "pure",
					"type": "function"
				},
				{
					"inputs": [
						{
							"internalType": "uint256",
							"name": "x",
							"type": "uint256"
						},
						{
							"internalType": "uint256",
							"name": "y",
							"type": "uint256"
						}
					],
					"name": "xor",
					"outputs": [
						{
							"internalType": "uint256",
							"name": "",
							"type": "uint256"
						}
					],
					"stateMutability": "pure",
					"type": "function"
				}
			],
			"devdoc": {
				"kind": "dev",
				"methods": {},
				"version": 1
			},
			"evm": {
				"assembly": "    /* \"contracts/utils/BitwiseOps.sol\":59:3112  contract BitwiseOps {... */\n  mstore(0x40, 0x80)\n  callvalue\n  dup1\n  iszero\n  tag_1\n  jumpi\n  0x00\n  dup1\n  revert\ntag_1:\n  pop\n  dataSize(sub_0)\n  dup1\n  dataOffset(sub_0)\n  0x00\n  codecopy\n  0x00\n  return\nstop\n\nsub_0: assembly {\n        /* \"contracts/utils/BitwiseOps.sol\":59:3112  contract BitwiseOps {... */\n      mstore(0x40, 0x80)\n      callvalue\n      dup1\n      iszero\n      tag_1\n      jumpi\n      0x00\n      dup1\n      revert\n    tag_1:\n      pop\n      jumpi(tag_2, lt(calldatasize, 0x04))\n      shr(0xe0, calldataload(0x00))\n      dup1\n      0x9ed41ba1\n      gt\n      tag_13\n      jumpi\n      dup1\n      0x9ed41ba1\n      eq\n      tag_8\n      jumpi\n      dup1\n      0xa589d212\n      eq\n      tag_9\n      jumpi\n      dup1\n      0xbcc68a1b\n      eq\n      tag_10\n      jumpi\n      dup1\n      0xe6bcbc65\n      eq\n      tag_11\n      jumpi\n      dup1\n      0xecc43a0e\n      eq\n      tag_12\n      jumpi\n      jump(tag_2)\n    tag_13:\n      dup1\n      0x097c2cb2\n      eq\n      tag_3\n      jumpi\n      dup1\n      0x0a7d4a39\n      eq\n      tag_4\n      jumpi\n      dup1\n      0x1685fa98\n      eq\n      tag_5\n      jumpi\n      dup1\n      0x21a95296\n      eq\n      tag_6\n      jumpi\n      dup1\n      0x903b9842\n      eq\n      tag_7\n      jumpi\n    tag_2:\n      0x00\n      dup1\n      revert\n        /* \"contracts/utils/BitwiseOps.sol\":515:610  function or(uint x, uint y) external pure returns (uint) {... */\n    tag_3:\n      tag_14\n      0x04\n      dup1\n      calldatasize\n      sub\n      dup2\n      add\n      swap1\n      tag_15\n      swap2\n      swap1\n      tag_16\n      jump\t// in\n    tag_15:\n      tag_17\n      jump\t// in\n    tag_14:\n      mload(0x40)\n      tag_18\n      swap2\n      swap1\n      tag_19\n      jump\t// in\n    tag_18:\n      mload(0x40)\n      dup1\n      swap2\n      sub\n      swap1\n      return\n        /* \"contracts/utils/BitwiseOps.sol\":2819:3109  function getFirstNBits(uint x, uint n, uint len) external pure returns (uint) {... */\n    tag_4:\n      tag_20\n      0x04\n      dup1\n      calldatasize\n      sub\n      dup2\n      add\n      swap1\n      tag_21\n      swap2\n      swap1\n      tag_22\n      jump\t// in\n    tag_21:\n      tag_23\n      jump\t// in\n    tag_20:\n      mload(0x40)\n      tag_24\n      swap2\n      swap1\n      tag_19\n      jump\t// in\n    tag_24:\n      mload(0x40)\n      dup1\n      swap2\n      sub\n      swap1\n      return\n        /* \"contracts/utils/BitwiseOps.sol\":1732:1833  function shiftRight(uint x, uint bits) external pure returns (uint) {... */\n    tag_5:\n      tag_25\n      0x04\n      dup1\n      calldatasize\n      sub\n      dup2\n      add\n      swap1\n      tag_26\n      swap2\n      swap1\n      tag_16\n      jump\t// in\n    tag_26:\n      tag_27\n      jump\t// in\n    tag_25:\n      mload(0x40)\n      tag_28\n      swap2\n      swap1\n      tag_19\n      jump\t// in\n    tag_28:\n      mload(0x40)\n      dup1\n      swap2\n      sub\n      swap1\n      return\n        /* \"contracts/utils/BitwiseOps.sol\":1869:2210  function getLastNBits(uint x, uint n) external pure returns (uint) {... */\n    tag_6:\n      tag_29\n      0x04\n      dup1\n      calldatasize\n      sub\n      dup2\n      add\n      swap1\n      tag_30\n      swap2\n      swap1\n      tag_16\n      jump\t// in\n    tag_30:\n      tag_31\n      jump\t// in\n    tag_29:\n      mload(0x40)\n      tag_32\n      swap2\n      swap1\n      tag_19\n      jump\t// in\n    tag_32:\n      mload(0x40)\n      dup1\n      swap2\n      sub\n      swap1\n      return\n        /* \"contracts/utils/BitwiseOps.sol\":248:344  function and(uint x, uint y) external pure returns (uint) {... */\n    tag_7:\n      tag_33\n      0x04\n      dup1\n      calldatasize\n      sub\n      dup2\n      add\n      swap1\n      tag_34\n      swap2\n      swap1\n      tag_16\n      jump\t// in\n    tag_34:\n      tag_35\n      jump\t// in\n    tag_33:\n      mload(0x40)\n      tag_36\n      swap2\n      swap1\n      tag_19\n      jump\t// in\n    tag_36:\n      mload(0x40)\n      dup1\n      swap2\n      sub\n      swap1\n      return\n        /* \"contracts/utils/BitwiseOps.sol\":782:869  function xor(uint x, uint y) external pure returns (uint) {... */\n    tag_8:\n      tag_37\n      0x04\n      dup1\n      calldatasize\n      sub\n      dup2\n      add\n      swap1\n      tag_38\n      swap2\n      swap1\n      tag_16\n      jump\t// in\n    tag_38:\n      tag_39\n      jump\t// in\n    tag_37:\n      mload(0x40)\n      tag_40\n      swap2\n      swap1\n      tag_19\n      jump\t// in\n    tag_40:\n      mload(0x40)\n      dup1\n      swap2\n      sub\n      swap1\n      return\n        /* \"contracts/utils/BitwiseOps.sol\":1355:1455  function shiftLeft(uint x, uint bits) external pure returns (uint) {... */\n    tag_9:\n      tag_41\n      0x04\n      dup1\n      calldatasize\n      sub\n      dup2\n      add\n      swap1\n      tag_42\n      swap2\n      swap1\n      tag_16\n      jump\t// in\n    tag_42:\n      tag_43\n      jump\t// in\n    tag_41:\n      mload(0x40)\n      tag_44\n      swap2\n      swap1\n      tag_19\n      jump\t// in\n    tag_44:\n      mload(0x40)\n      dup1\n      swap2\n      sub\n      swap1\n      return\n        /* \"contracts/utils/BitwiseOps.sol\":1045:1121  function not(uint x) external pure returns (uint) {... */\n    tag_10:\n      tag_45\n      0x04\n      dup1\n      calldatasize\n      sub\n      dup2\n      add\n      swap1\n      tag_46\n      swap2\n      swap1\n      tag_47\n      jump\t// in\n    tag_46:\n      tag_48\n      jump\t// in\n    tag_45:\n      mload(0x40)\n      tag_49\n      swap2\n      swap1\n      tag_19\n      jump\t// in\n    tag_49:\n      mload(0x40)\n      dup1\n      swap2\n      sub\n      swap1\n      return\n        /* \"contracts/utils/BitwiseOps.sol\":2535:2704  function mostSignificantBit(uint x) external pure returns (uint) {... */\n    tag_11:\n      tag_50\n      0x04\n      dup1\n      calldatasize\n      sub\n      dup2\n      add\n      swap1\n      tag_51\n      swap2\n      swap1\n      tag_47\n      jump\t// in\n    tag_51:\n      tag_52\n      jump\t// in\n    tag_50:\n      mload(0x40)\n      tag_53\n      swap2\n      swap1\n      tag_19\n      jump\t// in\n    tag_53:\n      mload(0x40)\n      dup1\n      swap2\n      sub\n      swap1\n      return\n        /* \"contracts/utils/BitwiseOps.sol\":2265:2403  function getLastNBitsUsingMod(uint x, uint n) external pure returns (uint) {... */\n    tag_12:\n      tag_54\n      0x04\n      dup1\n      calldatasize\n      sub\n      dup2\n      add\n      swap1\n      tag_55\n      swap2\n      swap1\n      tag_16\n      jump\t// in\n    tag_55:\n      tag_56\n      jump\t// in\n    tag_54:\n      mload(0x40)\n      tag_57\n      swap2\n      swap1\n      tag_19\n      jump\t// in\n    tag_57:\n      mload(0x40)\n      dup1\n      swap2\n      sub\n      swap1\n      return\n        /* \"contracts/utils/BitwiseOps.sol\":515:610  function or(uint x, uint y) external pure returns (uint) {... */\n    tag_17:\n        /* \"contracts/utils/BitwiseOps.sol\":566:570  uint */\n      0x00\n        /* \"contracts/utils/BitwiseOps.sol\":602:603  y */\n      dup2\n        /* \"contracts/utils/BitwiseOps.sol\":598:599  x */\n      dup4\n        /* \"contracts/utils/BitwiseOps.sol\":598:603  x | y */\n      or\n        /* \"contracts/utils/BitwiseOps.sol\":591:603  return x | y */\n      swap1\n      pop\n        /* \"contracts/utils/BitwiseOps.sol\":515:610  function or(uint x, uint y) external pure returns (uint) {... */\n      swap3\n      swap2\n      pop\n      pop\n      jump\t// out\n        /* \"contracts/utils/BitwiseOps.sol\":2819:3109  function getFirstNBits(uint x, uint n, uint len) external pure returns (uint) {... */\n    tag_23:\n        /* \"contracts/utils/BitwiseOps.sol\":2891:2895  uint */\n      0x00\n        /* \"contracts/utils/BitwiseOps.sol\":3038:3047  uint mask */\n      dup1\n        /* \"contracts/utils/BitwiseOps.sol\":3075:3076  n */\n      dup4\n        /* \"contracts/utils/BitwiseOps.sol\":3069:3072  len */\n      dup4\n        /* \"contracts/utils/BitwiseOps.sol\":3069:3076  len - n */\n      tag_60\n      swap2\n      swap1\n      tag_61\n      jump\t// in\n    tag_60:\n        /* \"contracts/utils/BitwiseOps.sol\":3062:3063  1 */\n      0x01\n        /* \"contracts/utils/BitwiseOps.sol\":3057:3058  n */\n      dup6\n        /* \"contracts/utils/BitwiseOps.sol\":3052:3053  1 */\n      0x01\n        /* \"contracts/utils/BitwiseOps.sol\":3052:3058  1 << n */\n      swap1\n      shl\n        /* \"contracts/utils/BitwiseOps.sol\":3051:3063  (1 << n) - 1 */\n      tag_62\n      swap2\n      swap1\n      tag_61\n      jump\t// in\n    tag_62:\n        /* \"contracts/utils/BitwiseOps.sol\":3050:3077  ((1 << n) - 1) << (len - n) */\n      swap1\n      shl\n        /* \"contracts/utils/BitwiseOps.sol\":3038:3077  uint mask = ((1 << n) - 1) << (len - n) */\n      swap1\n      pop\n        /* \"contracts/utils/BitwiseOps.sol\":3098:3102  mask */\n      dup1\n        /* \"contracts/utils/BitwiseOps.sol\":3094:3095  x */\n      dup6\n        /* \"contracts/utils/BitwiseOps.sol\":3094:3102  x & mask */\n      and\n        /* \"contracts/utils/BitwiseOps.sol\":3087:3102  return x & mask */\n      swap2\n      pop\n      pop\n        /* \"contracts/utils/BitwiseOps.sol\":2819:3109  function getFirstNBits(uint x, uint n, uint len) external pure returns (uint) {... */\n      swap4\n      swap3\n      pop\n      pop\n      pop\n      jump\t// out\n        /* \"contracts/utils/BitwiseOps.sol\":1732:1833  function shiftRight(uint x, uint bits) external pure returns (uint) {... */\n    tag_27:\n        /* \"contracts/utils/BitwiseOps.sol\":1794:1798  uint */\n      0x00\n        /* \"contracts/utils/BitwiseOps.sol\":1822:1826  bits */\n      dup2\n        /* \"contracts/utils/BitwiseOps.sol\":1817:1818  x */\n      dup4\n        /* \"contracts/utils/BitwiseOps.sol\":1817:1826  x >> bits */\n      swap1\n      shr\n        /* \"contracts/utils/BitwiseOps.sol\":1810:1826  return x >> bits */\n      swap1\n      pop\n        /* \"contracts/utils/BitwiseOps.sol\":1732:1833  function shiftRight(uint x, uint bits) external pure returns (uint) {... */\n      swap3\n      swap2\n      pop\n      pop\n      jump\t// out\n        /* \"contracts/utils/BitwiseOps.sol\":1869:2210  function getLastNBits(uint x, uint n) external pure returns (uint) {... */\n    tag_31:\n        /* \"contracts/utils/BitwiseOps.sol\":1930:1934  uint */\n      0x00\n        /* \"contracts/utils/BitwiseOps.sol\":2154:2163  uint mask */\n      dup1\n        /* \"contracts/utils/BitwiseOps.sol\":2177:2178  1 */\n      0x01\n        /* \"contracts/utils/BitwiseOps.sol\":2172:2173  n */\n      dup4\n        /* \"contracts/utils/BitwiseOps.sol\":2167:2168  1 */\n      0x01\n        /* \"contracts/utils/BitwiseOps.sol\":2167:2173  1 << n */\n      swap1\n      shl\n        /* \"contracts/utils/BitwiseOps.sol\":2166:2178  (1 << n) - 1 */\n      tag_65\n      swap2\n      swap1\n      tag_61\n      jump\t// in\n    tag_65:\n        /* \"contracts/utils/BitwiseOps.sol\":2154:2178  uint mask = (1 << n) - 1 */\n      swap1\n      pop\n        /* \"contracts/utils/BitwiseOps.sol\":2199:2203  mask */\n      dup1\n        /* \"contracts/utils/BitwiseOps.sol\":2195:2196  x */\n      dup5\n        /* \"contracts/utils/BitwiseOps.sol\":2195:2203  x & mask */\n      and\n        /* \"contracts/utils/BitwiseOps.sol\":2188:2203  return x & mask */\n      swap2\n      pop\n      pop\n        /* \"contracts/utils/BitwiseOps.sol\":1869:2210  function getLastNBits(uint x, uint n) external pure returns (uint) {... */\n      swap3\n      swap2\n      pop\n      pop\n      jump\t// out\n        /* \"contracts/utils/BitwiseOps.sol\":248:344  function and(uint x, uint y) external pure returns (uint) {... */\n    tag_35:\n        /* \"contracts/utils/BitwiseOps.sol\":300:304  uint */\n      0x00\n        /* \"contracts/utils/BitwiseOps.sol\":336:337  y */\n      dup2\n        /* \"contracts/utils/BitwiseOps.sol\":332:333  x */\n      dup4\n        /* \"contracts/utils/BitwiseOps.sol\":332:337  x & y */\n      and\n        /* \"contracts/utils/BitwiseOps.sol\":325:337  return x & y */\n      swap1\n      pop\n        /* \"contracts/utils/BitwiseOps.sol\":248:344  function and(uint x, uint y) external pure returns (uint) {... */\n      swap3\n      swap2\n      pop\n      pop\n      jump\t// out\n        /* \"contracts/utils/BitwiseOps.sol\":782:869  function xor(uint x, uint y) external pure returns (uint) {... */\n    tag_39:\n        /* \"contracts/utils/BitwiseOps.sol\":834:838  uint */\n      0x00\n        /* \"contracts/utils/BitwiseOps.sol\":861:862  y */\n      dup2\n        /* \"contracts/utils/BitwiseOps.sol\":857:858  x */\n      dup4\n        /* \"contracts/utils/BitwiseOps.sol\":857:862  x ^ y */\n      xor\n        /* \"contracts/utils/BitwiseOps.sol\":850:862  return x ^ y */\n      swap1\n      pop\n        /* \"contracts/utils/BitwiseOps.sol\":782:869  function xor(uint x, uint y) external pure returns (uint) {... */\n      swap3\n      swap2\n      pop\n      pop\n      jump\t// out\n        /* \"contracts/utils/BitwiseOps.sol\":1355:1455  function shiftLeft(uint x, uint bits) external pure returns (uint) {... */\n    tag_43:\n        /* \"contracts/utils/BitwiseOps.sol\":1416:1420  uint */\n      0x00\n        /* \"contracts/utils/BitwiseOps.sol\":1444:1448  bits */\n      dup2\n        /* \"contracts/utils/BitwiseOps.sol\":1439:1440  x */\n      dup4\n        /* \"contracts/utils/BitwiseOps.sol\":1439:1448  x << bits */\n      swap1\n      shl\n        /* \"contracts/utils/BitwiseOps.sol\":1432:1448  return x << bits */\n      swap1\n      pop\n        /* \"contracts/utils/BitwiseOps.sol\":1355:1455  function shiftLeft(uint x, uint bits) external pure returns (uint) {... */\n      swap3\n      swap2\n      pop\n      pop\n      jump\t// out\n        /* \"contracts/utils/BitwiseOps.sol\":1045:1121  function not(uint x) external pure returns (uint) {... */\n    tag_48:\n        /* \"contracts/utils/BitwiseOps.sol\":1089:1093  uint */\n      0x00\n        /* \"contracts/utils/BitwiseOps.sol\":1113:1114  x */\n      dup2\n        /* \"contracts/utils/BitwiseOps.sol\":1112:1114  ~x */\n      not\n        /* \"contracts/utils/BitwiseOps.sol\":1105:1114  return ~x */\n      swap1\n      pop\n        /* \"contracts/utils/BitwiseOps.sol\":1045:1121  function not(uint x) external pure returns (uint) {... */\n      swap2\n      swap1\n      pop\n      jump\t// out\n        /* \"contracts/utils/BitwiseOps.sol\":2535:2704  function mostSignificantBit(uint x) external pure returns (uint) {... */\n    tag_52:\n        /* \"contracts/utils/BitwiseOps.sol\":2594:2598  uint */\n      0x00\n        /* \"contracts/utils/BitwiseOps.sol\":2610:2616  uint i */\n      dup1\n        /* \"contracts/utils/BitwiseOps.sol\":2619:2620  0 */\n      0x00\n        /* \"contracts/utils/BitwiseOps.sol\":2610:2620  uint i = 0 */\n      swap1\n      pop\n        /* \"contracts/utils/BitwiseOps.sol\":2630:2680  while ((x >>= 1) > 0) {... */\n    tag_71:\n        /* \"contracts/utils/BitwiseOps.sol\":2649:2650  0 */\n      0x00\n        /* \"contracts/utils/BitwiseOps.sol\":2644:2645  1 */\n      0x01\n        /* \"contracts/utils/BitwiseOps.sol\":2638:2645  x >>= 1 */\n      dup5\n      swap1\n      shr\n      swap4\n      pop\n      dup4\n        /* \"contracts/utils/BitwiseOps.sol\":2637:2650  (x >>= 1) > 0 */\n      gt\n        /* \"contracts/utils/BitwiseOps.sol\":2630:2680  while ((x >>= 1) > 0) {... */\n      iszero\n      tag_72\n      jumpi\n        /* \"contracts/utils/BitwiseOps.sol\":2666:2669  ++i */\n      dup1\n      tag_73\n      swap1\n      tag_74\n      jump\t// in\n    tag_73:\n      swap1\n      pop\n        /* \"contracts/utils/BitwiseOps.sol\":2630:2680  while ((x >>= 1) > 0) {... */\n      jump(tag_71)\n    tag_72:\n        /* \"contracts/utils/BitwiseOps.sol\":2696:2697  i */\n      dup1\n        /* \"contracts/utils/BitwiseOps.sol\":2689:2697  return i */\n      swap2\n      pop\n      pop\n        /* \"contracts/utils/BitwiseOps.sol\":2535:2704  function mostSignificantBit(uint x) external pure returns (uint) {... */\n      swap2\n      swap1\n      pop\n      jump\t// out\n        /* \"contracts/utils/BitwiseOps.sol\":2265:2403  function getLastNBitsUsingMod(uint x, uint n) external pure returns (uint) {... */\n    tag_56:\n        /* \"contracts/utils/BitwiseOps.sol\":2334:2338  uint */\n      0x00\n        /* \"contracts/utils/BitwiseOps.sol\":2394:2395  n */\n      dup2\n        /* \"contracts/utils/BitwiseOps.sol\":2389:2390  1 */\n      0x01\n        /* \"contracts/utils/BitwiseOps.sol\":2389:2395  1 << n */\n      swap1\n      shl\n        /* \"contracts/utils/BitwiseOps.sol\":2384:2385  x */\n      dup4\n        /* \"contracts/utils/BitwiseOps.sol\":2384:2396  x % (1 << n) */\n      tag_76\n      swap2\n      swap1\n      tag_77\n      jump\t// in\n    tag_76:\n        /* \"contracts/utils/BitwiseOps.sol\":2377:2396  return x % (1 << n) */\n      swap1\n      pop\n        /* \"contracts/utils/BitwiseOps.sol\":2265:2403  function getLastNBitsUsingMod(uint x, uint n) external pure returns (uint) {... */\n      swap3\n      swap2\n      pop\n      pop\n      jump\t// out\n        /* \"#utility.yul\":88:205   */\n    tag_79:\n        /* \"#utility.yul\":197:198   */\n      0x00\n        /* \"#utility.yul\":194:195   */\n      dup1\n        /* \"#utility.yul\":187:199   */\n      revert\n        /* \"#utility.yul\":334:411   */\n    tag_81:\n        /* \"#utility.yul\":371:378   */\n      0x00\n        /* \"#utility.yul\":400:405   */\n      dup2\n        /* \"#utility.yul\":389:405   */\n      swap1\n      pop\n        /* \"#utility.yul\":334:411   */\n      swap2\n      swap1\n      pop\n      jump\t// out\n        /* \"#utility.yul\":417:539   */\n    tag_82:\n        /* \"#utility.yul\":490:514   */\n      tag_93\n        /* \"#utility.yul\":508:513   */\n      dup2\n        /* \"#utility.yul\":490:514   */\n      tag_81\n      jump\t// in\n    tag_93:\n        /* \"#utility.yul\":483:488   */\n      dup2\n        /* \"#utility.yul\":480:515   */\n      eq\n        /* \"#utility.yul\":470:533   */\n      tag_94\n      jumpi\n        /* \"#utility.yul\":529:530   */\n      0x00\n        /* \"#utility.yul\":526:527   */\n      dup1\n        /* \"#utility.yul\":519:531   */\n      revert\n        /* \"#utility.yul\":470:533   */\n    tag_94:\n        /* \"#utility.yul\":417:539   */\n      pop\n      jump\t// out\n        /* \"#utility.yul\":545:684   */\n    tag_83:\n        /* \"#utility.yul\":591:596   */\n      0x00\n        /* \"#utility.yul\":629:635   */\n      dup2\n        /* \"#utility.yul\":616:636   */\n      calldataload\n        /* \"#utility.yul\":607:636   */\n      swap1\n      pop\n        /* \"#utility.yul\":645:678   */\n      tag_96\n        /* \"#utility.yul\":672:677   */\n      dup2\n        /* \"#utility.yul\":645:678   */\n      tag_82\n      jump\t// in\n    tag_96:\n        /* \"#utility.yul\":545:684   */\n      swap3\n      swap2\n      pop\n      pop\n      jump\t// out\n        /* \"#utility.yul\":690:1164   */\n    tag_16:\n        /* \"#utility.yul\":758:764   */\n      0x00\n        /* \"#utility.yul\":766:772   */\n      dup1\n        /* \"#utility.yul\":815:817   */\n      0x40\n        /* \"#utility.yul\":803:812   */\n      dup4\n        /* \"#utility.yul\":794:801   */\n      dup6\n        /* \"#utility.yul\":790:813   */\n      sub\n        /* \"#utility.yul\":786:818   */\n      slt\n        /* \"#utility.yul\":783:902   */\n      iszero\n      tag_98\n      jumpi\n        /* \"#utility.yul\":821:900   */\n      tag_99\n      tag_79\n      jump\t// in\n    tag_99:\n        /* \"#utility.yul\":783:902   */\n    tag_98:\n        /* \"#utility.yul\":941:942   */\n      0x00\n        /* \"#utility.yul\":966:1019   */\n      tag_100\n        /* \"#utility.yul\":1011:1018   */\n      dup6\n        /* \"#utility.yul\":1002:1008   */\n      dup3\n        /* \"#utility.yul\":991:1000   */\n      dup7\n        /* \"#utility.yul\":987:1009   */\n      add\n        /* \"#utility.yul\":966:1019   */\n      tag_83\n      jump\t// in\n    tag_100:\n        /* \"#utility.yul\":956:1019   */\n      swap3\n      pop\n        /* \"#utility.yul\":912:1029   */\n      pop\n        /* \"#utility.yul\":1068:1070   */\n      0x20\n        /* \"#utility.yul\":1094:1147   */\n      tag_101\n        /* \"#utility.yul\":1139:1146   */\n      dup6\n        /* \"#utility.yul\":1130:1136   */\n      dup3\n        /* \"#utility.yul\":1119:1128   */\n      dup7\n        /* \"#utility.yul\":1115:1137   */\n      add\n        /* \"#utility.yul\":1094:1147   */\n      tag_83\n      jump\t// in\n    tag_101:\n        /* \"#utility.yul\":1084:1147   */\n      swap2\n      pop\n        /* \"#utility.yul\":1039:1157   */\n      pop\n        /* \"#utility.yul\":690:1164   */\n      swap3\n      pop\n      swap3\n      swap1\n      pop\n      jump\t// out\n        /* \"#utility.yul\":1170:1288   */\n    tag_84:\n        /* \"#utility.yul\":1257:1281   */\n      tag_103\n        /* \"#utility.yul\":1275:1280   */\n      dup2\n        /* \"#utility.yul\":1257:1281   */\n      tag_81\n      jump\t// in\n    tag_103:\n        /* \"#utility.yul\":1252:1255   */\n      dup3\n        /* \"#utility.yul\":1245:1282   */\n      mstore\n        /* \"#utility.yul\":1170:1288   */\n      pop\n      pop\n      jump\t// out\n        /* \"#utility.yul\":1294:1516   */\n    tag_19:\n        /* \"#utility.yul\":1387:1391   */\n      0x00\n        /* \"#utility.yul\":1425:1427   */\n      0x20\n        /* \"#utility.yul\":1414:1423   */\n      dup3\n        /* \"#utility.yul\":1410:1428   */\n      add\n        /* \"#utility.yul\":1402:1428   */\n      swap1\n      pop\n        /* \"#utility.yul\":1438:1509   */\n      tag_105\n        /* \"#utility.yul\":1506:1507   */\n      0x00\n        /* \"#utility.yul\":1495:1504   */\n      dup4\n        /* \"#utility.yul\":1491:1508   */\n      add\n        /* \"#utility.yul\":1482:1488   */\n      dup5\n        /* \"#utility.yul\":1438:1509   */\n      tag_84\n      jump\t// in\n    tag_105:\n        /* \"#utility.yul\":1294:1516   */\n      swap3\n      swap2\n      pop\n      pop\n      jump\t// out\n        /* \"#utility.yul\":1522:2141   */\n    tag_22:\n        /* \"#utility.yul\":1599:1605   */\n      0x00\n        /* \"#utility.yul\":1607:1613   */\n      dup1\n        /* \"#utility.yul\":1615:1621   */\n      0x00\n        /* \"#utility.yul\":1664:1666   */\n      0x60\n        /* \"#utility.yul\":1652:1661   */\n      dup5\n        /* \"#utility.yul\":1643:1650   */\n      dup7\n        /* \"#utility.yul\":1639:1662   */\n      sub\n        /* \"#utility.yul\":1635:1667   */\n      slt\n        /* \"#utility.yul\":1632:1751   */\n      iszero\n      tag_107\n      jumpi\n        /* \"#utility.yul\":1670:1749   */\n      tag_108\n      tag_79\n      jump\t// in\n    tag_108:\n        /* \"#utility.yul\":1632:1751   */\n    tag_107:\n        /* \"#utility.yul\":1790:1791   */\n      0x00\n        /* \"#utility.yul\":1815:1868   */\n      tag_109\n        /* \"#utility.yul\":1860:1867   */\n      dup7\n        /* \"#utility.yul\":1851:1857   */\n      dup3\n        /* \"#utility.yul\":1840:1849   */\n      dup8\n        /* \"#utility.yul\":1836:1858   */\n      add\n        /* \"#utility.yul\":1815:1868   */\n      tag_83\n      jump\t// in\n    tag_109:\n        /* \"#utility.yul\":1805:1868   */\n      swap4\n      pop\n        /* \"#utility.yul\":1761:1878   */\n      pop\n        /* \"#utility.yul\":1917:1919   */\n      0x20\n        /* \"#utility.yul\":1943:1996   */\n      tag_110\n        /* \"#utility.yul\":1988:1995   */\n      dup7\n        /* \"#utility.yul\":1979:1985   */\n      dup3\n        /* \"#utility.yul\":1968:1977   */\n      dup8\n        /* \"#utility.yul\":1964:1986   */\n      add\n        /* \"#utility.yul\":1943:1996   */\n      tag_83\n      jump\t// in\n    tag_110:\n        /* \"#utility.yul\":1933:1996   */\n      swap3\n      pop\n        /* \"#utility.yul\":1888:2006   */\n      pop\n        /* \"#utility.yul\":2045:2047   */\n      0x40\n        /* \"#utility.yul\":2071:2124   */\n      tag_111\n        /* \"#utility.yul\":2116:2123   */\n      dup7\n        /* \"#utility.yul\":2107:2113   */\n      dup3\n        /* \"#utility.yul\":2096:2105   */\n      dup8\n        /* \"#utility.yul\":2092:2114   */\n      add\n        /* \"#utility.yul\":2071:2124   */\n      tag_83\n      jump\t// in\n    tag_111:\n        /* \"#utility.yul\":2061:2124   */\n      swap2\n      pop\n        /* \"#utility.yul\":2016:2134   */\n      pop\n        /* \"#utility.yul\":1522:2141   */\n      swap3\n      pop\n      swap3\n      pop\n      swap3\n      jump\t// out\n        /* \"#utility.yul\":2147:2476   */\n    tag_47:\n        /* \"#utility.yul\":2206:2212   */\n      0x00\n        /* \"#utility.yul\":2255:2257   */\n      0x20\n        /* \"#utility.yul\":2243:2252   */\n      dup3\n        /* \"#utility.yul\":2234:2241   */\n      dup5\n        /* \"#utility.yul\":2230:2253   */\n      sub\n        /* \"#utility.yul\":2226:2258   */\n      slt\n        /* \"#utility.yul\":2223:2342   */\n      iszero\n      tag_113\n      jumpi\n        /* \"#utility.yul\":2261:2340   */\n      tag_114\n      tag_79\n      jump\t// in\n    tag_114:\n        /* \"#utility.yul\":2223:2342   */\n    tag_113:\n        /* \"#utility.yul\":2381:2382   */\n      0x00\n        /* \"#utility.yul\":2406:2459   */\n      tag_115\n        /* \"#utility.yul\":2451:2458   */\n      dup5\n        /* \"#utility.yul\":2442:2448   */\n      dup3\n        /* \"#utility.yul\":2431:2440   */\n      dup6\n        /* \"#utility.yul\":2427:2449   */\n      add\n        /* \"#utility.yul\":2406:2459   */\n      tag_83\n      jump\t// in\n    tag_115:\n        /* \"#utility.yul\":2396:2459   */\n      swap2\n      pop\n        /* \"#utility.yul\":2352:2469   */\n      pop\n        /* \"#utility.yul\":2147:2476   */\n      swap3\n      swap2\n      pop\n      pop\n      jump\t// out\n        /* \"#utility.yul\":2482:2662   */\n    tag_85:\n        /* \"#utility.yul\":2530:2607   */\n      0x4e487b7100000000000000000000000000000000000000000000000000000000\n        /* \"#utility.yul\":2527:2528   */\n      0x00\n        /* \"#utility.yul\":2520:2608   */\n      mstore\n        /* \"#utility.yul\":2627:2631   */\n      0x11\n        /* \"#utility.yul\":2624:2625   */\n      0x04\n        /* \"#utility.yul\":2617:2632   */\n      mstore\n        /* \"#utility.yul\":2651:2655   */\n      0x24\n        /* \"#utility.yul\":2648:2649   */\n      0x00\n        /* \"#utility.yul\":2641:2656   */\n      revert\n        /* \"#utility.yul\":2668:2862   */\n    tag_61:\n        /* \"#utility.yul\":2708:2712   */\n      0x00\n        /* \"#utility.yul\":2728:2748   */\n      tag_118\n        /* \"#utility.yul\":2746:2747   */\n      dup3\n        /* \"#utility.yul\":2728:2748   */\n      tag_81\n      jump\t// in\n    tag_118:\n        /* \"#utility.yul\":2723:2748   */\n      swap2\n      pop\n        /* \"#utility.yul\":2762:2782   */\n      tag_119\n        /* \"#utility.yul\":2780:2781   */\n      dup4\n        /* \"#utility.yul\":2762:2782   */\n      tag_81\n      jump\t// in\n    tag_119:\n        /* \"#utility.yul\":2757:2782   */\n      swap3\n      pop\n        /* \"#utility.yul\":2806:2807   */\n      dup3\n        /* \"#utility.yul\":2803:2804   */\n      dup3\n        /* \"#utility.yul\":2799:2808   */\n      sub\n        /* \"#utility.yul\":2791:2808   */\n      swap1\n      pop\n        /* \"#utility.yul\":2830:2831   */\n      dup2\n        /* \"#utility.yul\":2824:2828   */\n      dup2\n        /* \"#utility.yul\":2821:2832   */\n      gt\n        /* \"#utility.yul\":2818:2855   */\n      iszero\n      tag_120\n      jumpi\n        /* \"#utility.yul\":2835:2853   */\n      tag_121\n      tag_85\n      jump\t// in\n    tag_121:\n        /* \"#utility.yul\":2818:2855   */\n    tag_120:\n        /* \"#utility.yul\":2668:2862   */\n      swap3\n      swap2\n      pop\n      pop\n      jump\t// out\n        /* \"#utility.yul\":2868:3101   */\n    tag_74:\n        /* \"#utility.yul\":2907:2910   */\n      0x00\n        /* \"#utility.yul\":2930:2954   */\n      tag_123\n        /* \"#utility.yul\":2948:2953   */\n      dup3\n        /* \"#utility.yul\":2930:2954   */\n      tag_81\n      jump\t// in\n    tag_123:\n        /* \"#utility.yul\":2921:2954   */\n      swap2\n      pop\n        /* \"#utility.yul\":2976:3042   */\n      0xffffffffffffffffffffffffffffffffffffffffffffffffffffffffffffffff\n        /* \"#utility.yul\":2969:2974   */\n      dup3\n        /* \"#utility.yul\":2966:3043   */\n      sub\n        /* \"#utility.yul\":2963:3066   */\n      tag_124\n      jumpi\n        /* \"#utility.yul\":3046:3064   */\n      tag_125\n      tag_85\n      jump\t// in\n    tag_125:\n        /* \"#utility.yul\":2963:3066   */\n    tag_124:\n        /* \"#utility.yul\":3093:3094   */\n      0x01\n        /* \"#utility.yul\":3086:3091   */\n      dup3\n        /* \"#utility.yul\":3082:3095   */\n      add\n        /* \"#utility.yul\":3075:3095   */\n      swap1\n      pop\n        /* \"#utility.yul\":2868:3101   */\n      swap2\n      swap1\n      pop\n      jump\t// out\n        /* \"#utility.yul\":3107:3287   */\n    tag_86:\n        /* \"#utility.yul\":3155:3232   */\n      0x4e487b7100000000000000000000000000000000000000000000000000000000\n        /* \"#utility.yul\":3152:3153   */\n      0x00\n        /* \"#utility.yul\":3145:3233   */\n      mstore\n        /* \"#utility.yul\":3252:3256   */\n      0x12\n        /* \"#utility.yul\":3249:3250   */\n      0x04\n        /* \"#utility.yul\":3242:3257   */\n      mstore\n        /* \"#utility.yul\":3276:3280   */\n      0x24\n        /* \"#utility.yul\":3273:3274   */\n      0x00\n        /* \"#utility.yul\":3266:3281   */\n      revert\n        /* \"#utility.yul\":3293:3469   */\n    tag_77:\n        /* \"#utility.yul\":3325:3326   */\n      0x00\n        /* \"#utility.yul\":3342:3362   */\n      tag_128\n        /* \"#utility.yul\":3360:3361   */\n      dup3\n        /* \"#utility.yul\":3342:3362   */\n      tag_81\n      jump\t// in\n    tag_128:\n        /* \"#utility.yul\":3337:3362   */\n      swap2\n      pop\n        /* \"#utility.yul\":3376:3396   */\n      tag_129\n        /* \"#utility.yul\":3394:3395   */\n      dup4\n        /* \"#utility.yul\":3376:3396   */\n      tag_81\n      jump\t// in\n    tag_129:\n        /* \"#utility.yul\":3371:3396   */\n      swap3\n      pop\n        /* \"#utility.yul\":3415:3416   */\n      dup3\n        /* \"#utility.yul\":3405:3440   */\n      tag_130\n      jumpi\n        /* \"#utility.yul\":3420:3438   */\n      tag_131\n      tag_86\n      jump\t// in\n    tag_131:\n        /* \"#utility.yul\":3405:3440   */\n    tag_130:\n        /* \"#utility.yul\":3461:3462   */\n      dup3\n        /* \"#utility.yul\":3458:3459   */\n      dup3\n        /* \"#utility.yul\":3454:3463   */\n      mod\n        /* \"#utility.yul\":3449:3463   */\n      swap1\n      pop\n        /* \"#utility.yul\":3293:3469   */\n      swap3\n      swap2\n      pop\n      pop\n      jump\t// out\n\n    auxdata: 0xa26469706673582212206bbf6c159c078020b8ec2ccc2a9d6c60d21f160424601381ecddd66f96ecfc2a64736f6c63430008140033\n}\n",
				"bytecode": {
					"linkReferences": {},
					"object": "608060405234801561000f575f80fd5b506105b38061001d5f395ff3fe608060405234801561000f575f80fd5b506004361061009c575f3560e01c80639ed41ba1116100645780639ed41ba114610190578063a589d212146101c0578063bcc68a1b146101f0578063e6bcbc6514610220578063ecc43a0e146102505761009c565b8063097c2cb2146100a05780630a7d4a39146100d05780631685fa981461010057806321a9529614610130578063903b984214610160575b5f80fd5b6100ba60048036038101906100b59190610398565b610280565b6040516100c791906103e5565b60405180910390f35b6100ea60048036038101906100e591906103fe565b61028c565b6040516100f791906103e5565b60405180910390f35b61011a60048036038101906101159190610398565b6102bc565b60405161012791906103e5565b60405180910390f35b61014a60048036038101906101459190610398565b6102c9565b60405161015791906103e5565b60405180910390f35b61017a60048036038101906101759190610398565b6102ea565b60405161018791906103e5565b60405180910390f35b6101aa60048036038101906101a59190610398565b6102f6565b6040516101b791906103e5565b60405180910390f35b6101da60048036038101906101d59190610398565b610302565b6040516101e791906103e5565b60405180910390f35b61020a6004803603810190610205919061044e565b61030f565b60405161021791906103e5565b60405180910390f35b61023a6004803603810190610235919061044e565b610319565b60405161024791906103e5565b60405180910390f35b61026a60048036038101906102659190610398565b610348565b60405161027791906103e5565b60405180910390f35b5f818317905092915050565b5f80838361029a91906104a6565b6001856001901b6102ab91906104a6565b901b90508085169150509392505050565b5f8183901c905092915050565b5f806001836001901b6102dc91906104a6565b905080841691505092915050565b5f818316905092915050565b5f818318905092915050565b5f8183901b905092915050565b5f81199050919050565b5f805f90505b5f600184901c935083111561033f5780610338906104d9565b905061031f565b80915050919050565b5f816001901b83610359919061054d565b905092915050565b5f80fd5b5f819050919050565b61037781610365565b8114610381575f80fd5b50565b5f813590506103928161036e565b92915050565b5f80604083850312156103ae576103ad610361565b5b5f6103bb85828601610384565b92505060206103cc85828601610384565b9150509250929050565b6103df81610365565b82525050565b5f6020820190506103f85f8301846103d6565b92915050565b5f805f6060848603121561041557610414610361565b5b5f61042286828701610384565b935050602061043386828701610384565b925050604061044486828701610384565b9150509250925092565b5f6020828403121561046357610462610361565b5b5f61047084828501610384565b91505092915050565b7f4e487b71000000000000000000000000000000000000000000000000000000005f52601160045260245ffd5b5f6104b082610365565b91506104bb83610365565b92508282039050818111156104d3576104d2610479565b5b92915050565b5f6104e382610365565b91507fffffffffffffffffffffffffffffffffffffffffffffffffffffffffffffffff820361051557610514610479565b5b600182019050919050565b7f4e487b71000000000000000000000000000000000000000000000000000000005f52601260045260245ffd5b5f61055782610365565b915061056283610365565b92508261057257610571610520565b5b82820690509291505056fea26469706673582212206bbf6c159c078020b8ec2ccc2a9d6c60d21f160424601381ecddd66f96ecfc2a64736f6c63430008140033",
					"opcodes": "PUSH1 0x80 PUSH1 0x40 MSTORE CALLVALUE DUP1 ISZERO PUSH2 0xF JUMPI PUSH0 DUP1 REVERT JUMPDEST POP PUSH2 0x5B3 DUP1 PUSH2 0x1D PUSH0 CODECOPY PUSH0 RETURN INVALID PUSH1 0x80 PUSH1 0x40 MSTORE CALLVALUE DUP1 ISZERO PUSH2 0xF JUMPI PUSH0 DUP1 REVERT JUMPDEST POP PUSH1 0x4 CALLDATASIZE LT PUSH2 0x9C JUMPI PUSH0 CALLDATALOAD PUSH1 0xE0 SHR DUP1 PUSH4 0x9ED41BA1 GT PUSH2 0x64 JUMPI DUP1 PUSH4 0x9ED41BA1 EQ PUSH2 0x190 JUMPI DUP1 PUSH4 0xA589D212 EQ PUSH2 0x1C0 JUMPI DUP1 PUSH4 0xBCC68A1B EQ PUSH2 0x1F0 JUMPI DUP1 PUSH4 0xE6BCBC65 EQ PUSH2 0x220 JUMPI DUP1 PUSH4 0xECC43A0E EQ PUSH2 0x250 JUMPI PUSH2 0x9C JUMP JUMPDEST DUP1 PUSH4 0x97C2CB2 EQ PUSH2 0xA0 JUMPI DUP1 PUSH4 0xA7D4A39 EQ PUSH2 0xD0 JUMPI DUP1 PUSH4 0x1685FA98 EQ PUSH2 0x100 JUMPI DUP1 PUSH4 0x21A95296 EQ PUSH2 0x130 JUMPI DUP1 PUSH4 0x903B9842 EQ PUSH2 0x160 JUMPI JUMPDEST PUSH0 DUP1 REVERT JUMPDEST PUSH2 0xBA PUSH1 0x4 DUP1 CALLDATASIZE SUB DUP2 ADD SWAP1 PUSH2 0xB5 SWAP2 SWAP1 PUSH2 0x398 JUMP JUMPDEST PUSH2 0x280 JUMP JUMPDEST PUSH1 0x40 MLOAD PUSH2 0xC7 SWAP2 SWAP1 PUSH2 0x3E5 JUMP JUMPDEST PUSH1 0x40 MLOAD DUP1 SWAP2 SUB SWAP1 RETURN JUMPDEST PUSH2 0xEA PUSH1 0x4 DUP1 CALLDATASIZE SUB DUP2 ADD SWAP1 PUSH2 0xE5 SWAP2 SWAP1 PUSH2 0x3FE JUMP JUMPDEST PUSH2 0x28C JUMP JUMPDEST PUSH1 0x40 MLOAD PUSH2 0xF7 SWAP2 SWAP1 PUSH2 0x3E5 JUMP JUMPDEST PUSH1 0x40 MLOAD DUP1 SWAP2 SUB SWAP1 RETURN JUMPDEST PUSH2 0x11A PUSH1 0x4 DUP1 CALLDATASIZE SUB DUP2 ADD SWAP1 PUSH2 0x115 SWAP2 SWAP1 PUSH2 0x398 JUMP JUMPDEST PUSH2 0x2BC JUMP JUMPDEST PUSH1 0x40 MLOAD PUSH2 0x127 SWAP2 SWAP1 PUSH2 0x3E5 JUMP JUMPDEST PUSH1 0x40 MLOAD DUP1 SWAP2 SUB SWAP1 RETURN JUMPDEST PUSH2 0x14A PUSH1 0x4 DUP1 CALLDATASIZE SUB DUP2 ADD SWAP1 PUSH2 0x145 SWAP2 SWAP1 PUSH2 0x398 JUMP JUMPDEST PUSH2 0x2C9 JUMP JUMPDEST PUSH1 0x40 MLOAD PUSH2 0x157 SWAP2 SWAP1 PUSH2 0x3E5 JUMP JUMPDEST PUSH1 0x40 MLOAD DUP1 SWAP2 SUB SWAP1 RETURN JUMPDEST PUSH2 0x17A PUSH1 0x4 DUP1 CALLDATASIZE SUB DUP2 ADD SWAP1 PUSH2 0x175 SWAP2 SWAP1 PUSH2 0x398 JUMP JUMPDEST PUSH2 0x2EA JUMP JUMPDEST PUSH1 0x40 MLOAD PUSH2 0x187 SWAP2 SWAP1 PUSH2 0x3E5 JUMP JUMPDEST PUSH1 0x40 MLOAD DUP1 SWAP2 SUB SWAP1 RETURN JUMPDEST PUSH2 0x1AA PUSH1 0x4 DUP1 CALLDATASIZE SUB DUP2 ADD SWAP1 PUSH2 0x1A5 SWAP2 SWAP1 PUSH2 0x398 JUMP JUMPDEST PUSH2 0x2F6 JUMP JUMPDEST PUSH1 0x40 MLOAD PUSH2 0x1B7 SWAP2 SWAP1 PUSH2 0x3E5 JUMP JUMPDEST PUSH1 0x40 MLOAD DUP1 SWAP2 SUB SWAP1 RETURN JUMPDEST PUSH2 0x1DA PUSH1 0x4 DUP1 CALLDATASIZE SUB DUP2 ADD SWAP1 PUSH2 0x1D5 SWAP2 SWAP1 PUSH2 0x398 JUMP JUMPDEST PUSH2 0x302 JUMP JUMPDEST PUSH1 0x40 MLOAD PUSH2 0x1E7 SWAP2 SWAP1 PUSH2 0x3E5 JUMP JUMPDEST PUSH1 0x40 MLOAD DUP1 SWAP2 SUB SWAP1 RETURN JUMPDEST PUSH2 0x20A PUSH1 0x4 DUP1 CALLDATASIZE SUB DUP2 ADD SWAP1 PUSH2 0x205 SWAP2 SWAP1 PUSH2 0x44E JUMP JUMPDEST PUSH2 0x30F JUMP JUMPDEST PUSH1 0x40 MLOAD PUSH2 0x217 SWAP2 SWAP1 PUSH2 0x3E5 JUMP JUMPDEST PUSH1 0x40 MLOAD DUP1 SWAP2 SUB SWAP1 RETURN JUMPDEST PUSH2 0x23A PUSH1 0x4 DUP1 CALLDATASIZE SUB DUP2 ADD SWAP1 PUSH2 0x235 SWAP2 SWAP1 PUSH2 0x44E JUMP JUMPDEST PUSH2 0x319 JUMP JUMPDEST PUSH1 0x40 MLOAD PUSH2 0x247 SWAP2 SWAP1 PUSH2 0x3E5 JUMP JUMPDEST PUSH1 0x40 MLOAD DUP1 SWAP2 SUB SWAP1 RETURN JUMPDEST PUSH2 0x26A PUSH1 0x4 DUP1 CALLDATASIZE SUB DUP2 ADD SWAP1 PUSH2 0x265 SWAP2 SWAP1 PUSH2 0x398 JUMP JUMPDEST PUSH2 0x348 JUMP JUMPDEST PUSH1 0x40 MLOAD PUSH2 0x277 SWAP2 SWAP1 PUSH2 0x3E5 JUMP JUMPDEST PUSH1 0x40 MLOAD DUP1 SWAP2 SUB SWAP1 RETURN JUMPDEST PUSH0 DUP2 DUP4 OR SWAP1 POP SWAP3 SWAP2 POP POP JUMP JUMPDEST PUSH0 DUP1 DUP4 DUP4 PUSH2 0x29A SWAP2 SWAP1 PUSH2 0x4A6 JUMP JUMPDEST PUSH1 0x1 DUP6 PUSH1 0x1 SWAP1 SHL PUSH2 0x2AB SWAP2 SWAP1 PUSH2 0x4A6 JUMP JUMPDEST SWAP1 SHL SWAP1 POP DUP1 DUP6 AND SWAP2 POP POP SWAP4 SWAP3 POP POP POP JUMP JUMPDEST PUSH0 DUP2 DUP4 SWAP1 SHR SWAP1 POP SWAP3 SWAP2 POP POP JUMP JUMPDEST PUSH0 DUP1 PUSH1 0x1 DUP4 PUSH1 0x1 SWAP1 SHL PUSH2 0x2DC SWAP2 SWAP1 PUSH2 0x4A6 JUMP JUMPDEST SWAP1 POP DUP1 DUP5 AND SWAP2 POP POP SWAP3 SWAP2 POP POP JUMP JUMPDEST PUSH0 DUP2 DUP4 AND SWAP1 POP SWAP3 SWAP2 POP POP JUMP JUMPDEST PUSH0 DUP2 DUP4 XOR SWAP1 POP SWAP3 SWAP2 POP POP JUMP JUMPDEST PUSH0 DUP2 DUP4 SWAP1 SHL SWAP1 POP SWAP3 SWAP2 POP POP JUMP JUMPDEST PUSH0 DUP2 NOT SWAP1 POP SWAP2 SWAP1 POP JUMP JUMPDEST PUSH0 DUP1 PUSH0 SWAP1 POP JUMPDEST PUSH0 PUSH1 0x1 DUP5 SWAP1 SHR SWAP4 POP DUP4 GT ISZERO PUSH2 0x33F JUMPI DUP1 PUSH2 0x338 SWAP1 PUSH2 0x4D9 JUMP JUMPDEST SWAP1 POP PUSH2 0x31F JUMP JUMPDEST DUP1 SWAP2 POP POP SWAP2 SWAP1 POP JUMP JUMPDEST PUSH0 DUP2 PUSH1 0x1 SWAP1 SHL DUP4 PUSH2 0x359 SWAP2 SWAP1 PUSH2 0x54D JUMP JUMPDEST SWAP1 POP SWAP3 SWAP2 POP POP JUMP JUMPDEST PUSH0 DUP1 REVERT JUMPDEST PUSH0 DUP2 SWAP1 POP SWAP2 SWAP1 POP JUMP JUMPDEST PUSH2 0x377 DUP2 PUSH2 0x365 JUMP JUMPDEST DUP2 EQ PUSH2 0x381 JUMPI PUSH0 DUP1 REVERT JUMPDEST POP JUMP JUMPDEST PUSH0 DUP2 CALLDATALOAD SWAP1 POP PUSH2 0x392 DUP2 PUSH2 0x36E JUMP JUMPDEST SWAP3 SWAP2 POP POP JUMP JUMPDEST PUSH0 DUP1 PUSH1 0x40 DUP4 DUP6 SUB SLT ISZERO PUSH2 0x3AE JUMPI PUSH2 0x3AD PUSH2 0x361 JUMP JUMPDEST JUMPDEST PUSH0 PUSH2 0x3BB DUP6 DUP3 DUP7 ADD PUSH2 0x384 JUMP JUMPDEST SWAP3 POP POP PUSH1 0x20 PUSH2 0x3CC DUP6 DUP3 DUP7 ADD PUSH2 0x384 JUMP JUMPDEST SWAP2 POP POP SWAP3 POP SWAP3 SWAP1 POP JUMP JUMPDEST PUSH2 0x3DF DUP2 PUSH2 0x365 JUMP JUMPDEST DUP3 MSTORE POP POP JUMP JUMPDEST PUSH0 PUSH1 0x20 DUP3 ADD SWAP1 POP PUSH2 0x3F8 PUSH0 DUP4 ADD DUP5 PUSH2 0x3D6 JUMP JUMPDEST SWAP3 SWAP2 POP POP JUMP JUMPDEST PUSH0 DUP1 PUSH0 PUSH1 0x60 DUP5 DUP7 SUB SLT ISZERO PUSH2 0x415 JUMPI PUSH2 0x414 PUSH2 0x361 JUMP JUMPDEST JUMPDEST PUSH0 PUSH2 0x422 DUP7 DUP3 DUP8 ADD PUSH2 0x384 JUMP JUMPDEST SWAP4 POP POP PUSH1 0x20 PUSH2 0x433 DUP7 DUP3 DUP8 ADD PUSH2 0x384 JUMP JUMPDEST SWAP3 POP POP PUSH1 0x40 PUSH2 0x444 DUP7 DUP3 DUP8 ADD PUSH2 0x384 JUMP JUMPDEST SWAP2 POP POP SWAP3 POP SWAP3 POP SWAP3 JUMP JUMPDEST PUSH0 PUSH1 0x20 DUP3 DUP5 SUB SLT ISZERO PUSH2 0x463 JUMPI PUSH2 0x462 PUSH2 0x361 JUMP JUMPDEST JUMPDEST PUSH0 PUSH2 0x470 DUP5 DUP3 DUP6 ADD PUSH2 0x384 JUMP JUMPDEST SWAP2 POP POP SWAP3 SWAP2 POP POP JUMP JUMPDEST PUSH32 0x4E487B7100000000000000000000000000000000000000000000000000000000 PUSH0 MSTORE PUSH1 0x11 PUSH1 0x4 MSTORE PUSH1 0x24 PUSH0 REVERT JUMPDEST PUSH0 PUSH2 0x4B0 DUP3 PUSH2 0x365 JUMP JUMPDEST SWAP2 POP PUSH2 0x4BB DUP4 PUSH2 0x365 JUMP JUMPDEST SWAP3 POP DUP3 DUP3 SUB SWAP1 POP DUP2 DUP2 GT ISZERO PUSH2 0x4D3 JUMPI PUSH2 0x4D2 PUSH2 0x479 JUMP JUMPDEST JUMPDEST SWAP3 SWAP2 POP POP JUMP JUMPDEST PUSH0 PUSH2 0x4E3 DUP3 PUSH2 0x365 JUMP JUMPDEST SWAP2 POP PUSH32 0xFFFFFFFFFFFFFFFFFFFFFFFFFFFFFFFFFFFFFFFFFFFFFFFFFFFFFFFFFFFFFFFF DUP3 SUB PUSH2 0x515 JUMPI PUSH2 0x514 PUSH2 0x479 JUMP JUMPDEST JUMPDEST PUSH1 0x1 DUP3 ADD SWAP1 POP SWAP2 SWAP1 POP JUMP JUMPDEST PUSH32 0x4E487B7100000000000000000000000000000000000000000000000000000000 PUSH0 MSTORE PUSH1 0x12 PUSH1 0x4 MSTORE PUSH1 0x24 PUSH0 REVERT JUMPDEST PUSH0 PUSH2 0x557 DUP3 PUSH2 0x365 JUMP JUMPDEST SWAP2 POP PUSH2 0x562 DUP4 PUSH2 0x365 JUMP JUMPDEST SWAP3 POP DUP3 PUSH2 0x572 JUMPI PUSH2 0x571 PUSH2 0x520 JUMP JUMPDEST JUMPDEST DUP3 DUP3 MOD SWAP1 POP SWAP3 SWAP2 POP POP JUMP INVALID LOG2 PUSH5 0x6970667358 0x22 SLT KECCAK256 PUSH12 0xBF6C159C078020B8EC2CCC2A SWAP14 PUSH13 0x60D21F160424601381ECDDD66F SWAP7 0xEC 0xFC 0x2A PUSH5 0x736F6C6343 STOP ADDMOD EQ STOP CALLER "
				},
				"gasEstimates": {
					"creation": {
						"codeDepositCost": "291800",
						"executionCost": "329",
						"totalCost": "292129"
					},
					"external": {
						"and(uint256,uint256)": "infinite",
						"getFirstNBits(uint256,uint256,uint256)": "infinite",
						"getLastNBits(uint256,uint256)": "infinite",
						"getLastNBitsUsingMod(uint256,uint256)": "infinite",
						"mostSignificantBit(uint256)": "infinite",
						"not(uint256)": "infinite",
						"or(uint256,uint256)": "infinite",
						"shiftLeft(uint256,uint256)": "infinite",
						"shiftRight(uint256,uint256)": "infinite",
						"xor(uint256,uint256)": "infinite"
					}
				},
				"methodIdentifiers": {
					"and(uint256,uint256)": "903b9842",
					"getFirstNBits(uint256,uint256,uint256)": "0a7d4a39",
					"getLastNBits(uint256,uint256)": "21a95296",
					"getLastNBitsUsingMod(uint256,uint256)": "ecc43a0e",
					"mostSignificantBit(uint256)": "e6bcbc65",
					"not(uint256)": "bcc68a1b",
					"or(uint256,uint256)": "097c2cb2",
					"shiftLeft(uint256,uint256)": "a589d212",
					"shiftRight(uint256,uint256)": "1685fa98",
					"xor(uint256,uint256)": "9ed41ba1"
				}
			},
			"storageLayout": {
				"storage": [],
				"types": null
			},
			"userdoc": {
				"kind": "user",
				"methods": {},
				"version": 1
			}
		}
	}
}