{
	"contracts/utils/QuickSort.sol": {
		"QuickSort": {
			"abi": [
				{
					"constant": true,
					"inputs": [
						{
							"name": "data",
							"type": "uint256[]"
						}
					],
					"name": "sort",
					"outputs": [
						{
							"name": "",
							"type": "uint256[]"
						}
					],
					"payable": false,
					"stateMutability": "view",
					"type": "function"
				}
			],
			"devdoc": {
				"methods": {}
			},
			"evm": {
				"assembly": "    /* \"contracts/utils/QuickSort.sol\":27:818  contract QuickSort {... */\n  mstore(0x40, 0x80)\n  callvalue\n    /* \"--CODEGEN--\":8:17   */\n  dup1\n    /* \"--CODEGEN--\":5:7   */\n  iszero\n  tag_1\n  jumpi\n    /* \"--CODEGEN--\":30:31   */\n  0x0\n    /* \"--CODEGEN--\":27:28   */\n  dup1\n    /* \"--CODEGEN--\":20:32   */\n  revert\n    /* \"--CODEGEN--\":5:7   */\ntag_1:\n    /* \"contracts/utils/QuickSort.sol\":27:818  contract QuickSort {... */\n  pop\n  dataSize(sub_0)\n  dup1\n  dataOffset(sub_0)\n  0x0\n  codecopy\n  0x0\n  return\nstop\n\nsub_0: assembly {\n        /* \"contracts/utils/QuickSort.sol\":27:818  contract QuickSort {... */\n      mstore(0x40, 0x80)\n      jumpi(tag_1, lt(calldatasize, 0x4))\n      calldataload(0x0)\n      0x100000000000000000000000000000000000000000000000000000000\n      swap1\n      div\n      0xffffffff\n      and\n      dup1\n      0x9ec8b026\n      eq\n      tag_2\n      jumpi\n    tag_1:\n      0x0\n      dup1\n      revert\n        /* \"contracts/utils/QuickSort.sol\":57:197  function sort(uint[] data) public constant returns(uint[]) {... */\n    tag_2:\n      callvalue\n        /* \"--CODEGEN--\":8:17   */\n      dup1\n        /* \"--CODEGEN--\":5:7   */\n      iszero\n      tag_3\n      jumpi\n        /* \"--CODEGEN--\":30:31   */\n      0x0\n        /* \"--CODEGEN--\":27:28   */\n      dup1\n        /* \"--CODEGEN--\":20:32   */\n      revert\n        /* \"--CODEGEN--\":5:7   */\n    tag_3:\n        /* \"contracts/utils/QuickSort.sol\":57:197  function sort(uint[] data) public constant returns(uint[]) {... */\n      pop\n      tag_4\n      0x4\n      dup1\n      calldatasize\n      sub\n      dup2\n      add\n      swap1\n      dup1\n      dup1\n      calldataload\n      swap1\n      0x20\n      add\n      swap1\n      dup3\n      add\n      dup1\n      calldataload\n      swap1\n      0x20\n      add\n      swap1\n      dup1\n      dup1\n      0x20\n      mul\n      0x20\n      add\n      mload(0x40)\n      swap1\n      dup2\n      add\n      0x40\n      mstore\n      dup1\n      swap4\n      swap3\n      swap2\n      swap1\n      dup2\n      dup2\n      mstore\n      0x20\n      add\n      dup4\n      dup4\n      0x20\n      mul\n      dup1\n      dup3\n      dup5\n      calldatacopy\n      dup3\n      add\n      swap2\n      pop\n      pop\n      pop\n      pop\n      pop\n      pop\n      swap2\n      swap3\n      swap2\n      swap3\n      swap1\n      pop\n      pop\n      pop\n      jump(tag_5)\n    tag_4:\n      mload(0x40)\n      dup1\n      dup1\n      0x20\n      add\n      dup3\n      dup2\n      sub\n      dup3\n      mstore\n      dup4\n      dup2\n      dup2\n      mload\n      dup2\n      mstore\n      0x20\n      add\n      swap2\n      pop\n      dup1\n      mload\n      swap1\n      0x20\n      add\n      swap1\n      0x20\n      mul\n      dup1\n      dup4\n      dup4\n        /* \"--CODEGEN--\":23:24   */\n      0x0\n        /* \"--CODEGEN--\":8:108   */\n    tag_6:\n        /* \"--CODEGEN--\":33:36   */\n      dup4\n        /* \"--CODEGEN--\":30:31   */\n      dup2\n        /* \"--CODEGEN--\":27:37   */\n      lt\n        /* \"--CODEGEN--\":8:108   */\n      iszero\n      tag_7\n      jumpi\n        /* \"--CODEGEN--\":99:100   */\n      dup1\n        /* \"--CODEGEN--\":94:97   */\n      dup3\n        /* \"--CODEGEN--\":90:101   */\n      add\n        /* \"--CODEGEN--\":84:102   */\n      mload\n        /* \"--CODEGEN--\":80:81   */\n      dup2\n        /* \"--CODEGEN--\":75:78   */\n      dup5\n        /* \"--CODEGEN--\":71:82   */\n      add\n        /* \"--CODEGEN--\":64:103   */\n      mstore\n        /* \"--CODEGEN--\":52:54   */\n      0x20\n        /* \"--CODEGEN--\":49:50   */\n      dup2\n        /* \"--CODEGEN--\":45:55   */\n      add\n        /* \"--CODEGEN--\":40:55   */\n      swap1\n      pop\n        /* \"--CODEGEN--\":8:108   */\n      jump(tag_6)\n    tag_7:\n        /* \"--CODEGEN--\":12:26   */\n      pop\n        /* \"contracts/utils/QuickSort.sol\":57:197  function sort(uint[] data) public constant returns(uint[]) {... */\n      pop\n      pop\n      pop\n      swap1\n      pop\n      add\n      swap3\n      pop\n      pop\n      pop\n      mload(0x40)\n      dup1\n      swap2\n      sub\n      swap1\n      return\n    tag_5:\n        /* \"contracts/utils/QuickSort.sol\":108:114  uint[] */\n      0x60\n        /* \"contracts/utils/QuickSort.sol\":125:170  quickSort(data, int(0), int(data.length - 1)) */\n      tag_10\n        /* \"contracts/utils/QuickSort.sol\":135:139  data */\n      dup3\n        /* \"contracts/utils/QuickSort.sol\":145:146  0 */\n      0x0\n        /* \"contracts/utils/QuickSort.sol\":167:168  1 */\n      0x1\n        /* \"contracts/utils/QuickSort.sol\":153:157  data */\n      dup6\n        /* \"contracts/utils/QuickSort.sol\":153:164  data.length */\n      mload\n        /* \"contracts/utils/QuickSort.sol\":153:168  data.length - 1 */\n      sub\n        /* \"contracts/utils/QuickSort.sol\":125:134  quickSort */\n      tag_11\n        /* \"contracts/utils/QuickSort.sol\":125:170  quickSort(data, int(0), int(data.length - 1)) */\n      jump\t// in\n    tag_10:\n        /* \"contracts/utils/QuickSort.sol\":186:190  data */\n      dup2\n        /* \"contracts/utils/QuickSort.sol\":179:190  return data */\n      swap1\n      pop\n        /* \"contracts/utils/QuickSort.sol\":57:197  function sort(uint[] data) public constant returns(uint[]) {... */\n      swap2\n      swap1\n      pop\n      jump\t// out\n        /* \"contracts/utils/QuickSort.sol\":207:816  function quickSort(uint[] memory arr, int left, int right) internal{... */\n    tag_11:\n        /* \"contracts/utils/QuickSort.sol\":284:289  int i */\n      0x0\n        /* \"contracts/utils/QuickSort.sol\":306:311  int j */\n      dup1\n        /* \"contracts/utils/QuickSort.sol\":354:364  uint pivot */\n      0x0\n        /* \"contracts/utils/QuickSort.sol\":292:296  left */\n      dup5\n        /* \"contracts/utils/QuickSort.sol\":284:296  int i = left */\n      swap3\n      pop\n        /* \"contracts/utils/QuickSort.sol\":314:319  right */\n      dup4\n        /* \"contracts/utils/QuickSort.sol\":306:319  int j = right */\n      swap2\n      pop\n        /* \"contracts/utils/QuickSort.sol\":335:336  j */\n      dup2\n        /* \"contracts/utils/QuickSort.sol\":332:333  i */\n      dup4\n        /* \"contracts/utils/QuickSort.sol\":332:336  i==j */\n      eq\n        /* \"contracts/utils/QuickSort.sol\":329:345  if(i==j) return; */\n      iszero\n      tag_13\n      jumpi\n        /* \"contracts/utils/QuickSort.sol\":338:345  return; */\n      jump(tag_12)\n        /* \"contracts/utils/QuickSort.sol\":329:345  if(i==j) return; */\n    tag_13:\n        /* \"contracts/utils/QuickSort.sol\":367:370  arr */\n      dup6\n        /* \"contracts/utils/QuickSort.sol\":400:401  2 */\n      0x2\n        /* \"contracts/utils/QuickSort.sol\":392:396  left */\n      dup7\n        /* \"contracts/utils/QuickSort.sol\":384:389  right */\n      dup7\n        /* \"contracts/utils/QuickSort.sol\":384:396  right - left */\n      sub\n        /* \"contracts/utils/QuickSort.sol\":383:401  (right - left) / 2 */\n      dup2\n      iszero\n      iszero\n      tag_14\n      jumpi\n      invalid\n    tag_14:\n      sdiv\n        /* \"contracts/utils/QuickSort.sol\":376:380  left */\n      dup7\n        /* \"contracts/utils/QuickSort.sol\":376:401  left + (right - left) / 2 */\n      add\n        /* \"contracts/utils/QuickSort.sol\":367:403  arr[uint(left + (right - left) / 2)] */\n      dup2\n      mload\n      dup2\n      lt\n      iszero\n      iszero\n      tag_15\n      jumpi\n      invalid\n    tag_15:\n      swap1\n      0x20\n      add\n      swap1\n      0x20\n      mul\n      add\n      mload\n        /* \"contracts/utils/QuickSort.sol\":354:403  uint pivot = arr[uint(left + (right - left) / 2)] */\n      swap1\n      pop\n        /* \"contracts/utils/QuickSort.sol\":413:690  while (i <= j) {... */\n    tag_16:\n        /* \"contracts/utils/QuickSort.sol\":425:426  j */\n      dup2\n        /* \"contracts/utils/QuickSort.sol\":420:421  i */\n      dup4\n        /* \"contracts/utils/QuickSort.sol\":420:426  i <= j */\n      sgt\n      iszero\n        /* \"contracts/utils/QuickSort.sol\":413:690  while (i <= j) {... */\n      iszero\n      tag_17\n      jumpi\n        /* \"contracts/utils/QuickSort.sol\":442:474  while (arr[uint(i)] < pivot) i++ */\n    tag_18:\n        /* \"contracts/utils/QuickSort.sol\":464:469  pivot */\n      dup1\n        /* \"contracts/utils/QuickSort.sol\":449:452  arr */\n      dup7\n        /* \"contracts/utils/QuickSort.sol\":458:459  i */\n      dup5\n        /* \"contracts/utils/QuickSort.sol\":449:461  arr[uint(i)] */\n      dup2\n      mload\n      dup2\n      lt\n      iszero\n      iszero\n      tag_20\n      jumpi\n      invalid\n    tag_20:\n      swap1\n      0x20\n      add\n      swap1\n      0x20\n      mul\n      add\n      mload\n        /* \"contracts/utils/QuickSort.sol\":449:469  arr[uint(i)] < pivot */\n      lt\n        /* \"contracts/utils/QuickSort.sol\":442:474  while (arr[uint(i)] < pivot) i++ */\n      iszero\n      tag_19\n      jumpi\n        /* \"contracts/utils/QuickSort.sol\":471:474  i++ */\n      dup3\n      dup1\n      0x1\n      add\n      swap4\n      pop\n      pop\n        /* \"contracts/utils/QuickSort.sol\":442:474  while (arr[uint(i)] < pivot) i++ */\n      jump(tag_18)\n    tag_19:\n        /* \"contracts/utils/QuickSort.sol\":488:520  while (pivot < arr[uint(j)]) j-- */\n    tag_21:\n        /* \"contracts/utils/QuickSort.sol\":503:506  arr */\n      dup6\n        /* \"contracts/utils/QuickSort.sol\":512:513  j */\n      dup3\n        /* \"contracts/utils/QuickSort.sol\":503:515  arr[uint(j)] */\n      dup2\n      mload\n      dup2\n      lt\n      iszero\n      iszero\n      tag_23\n      jumpi\n      invalid\n    tag_23:\n      swap1\n      0x20\n      add\n      swap1\n      0x20\n      mul\n      add\n      mload\n        /* \"contracts/utils/QuickSort.sol\":495:500  pivot */\n      dup2\n        /* \"contracts/utils/QuickSort.sol\":495:515  pivot < arr[uint(j)] */\n      lt\n        /* \"contracts/utils/QuickSort.sol\":488:520  while (pivot < arr[uint(j)]) j-- */\n      iszero\n      tag_22\n      jumpi\n        /* \"contracts/utils/QuickSort.sol\":517:520  j-- */\n      dup2\n      dup1\n      0x1\n      swap1\n      sub\n      swap3\n      pop\n      pop\n        /* \"contracts/utils/QuickSort.sol\":488:520  while (pivot < arr[uint(j)]) j-- */\n      jump(tag_21)\n    tag_22:\n        /* \"contracts/utils/QuickSort.sol\":543:544  j */\n      dup2\n        /* \"contracts/utils/QuickSort.sol\":538:539  i */\n      dup4\n        /* \"contracts/utils/QuickSort.sol\":538:544  i <= j */\n      sgt\n      iszero\n        /* \"contracts/utils/QuickSort.sol\":534:680  if (i <= j) {... */\n      iszero\n      tag_24\n      jumpi\n        /* \"contracts/utils/QuickSort.sol\":596:599  arr */\n      dup6\n        /* \"contracts/utils/QuickSort.sol\":605:606  j */\n      dup3\n        /* \"contracts/utils/QuickSort.sol\":596:608  arr[uint(j)] */\n      dup2\n      mload\n      dup2\n      lt\n      iszero\n      iszero\n      tag_25\n      jumpi\n      invalid\n    tag_25:\n      swap1\n      0x20\n      add\n      swap1\n      0x20\n      mul\n      add\n      mload\n        /* \"contracts/utils/QuickSort.sol\":610:613  arr */\n      dup7\n        /* \"contracts/utils/QuickSort.sol\":619:620  i */\n      dup5\n        /* \"contracts/utils/QuickSort.sol\":610:622  arr[uint(i)] */\n      dup2\n      mload\n      dup2\n      lt\n      iszero\n      iszero\n      tag_26\n      jumpi\n      invalid\n    tag_26:\n      swap1\n      0x20\n      add\n      swap1\n      0x20\n      mul\n      add\n      mload\n        /* \"contracts/utils/QuickSort.sol\":565:568  arr */\n      dup8\n        /* \"contracts/utils/QuickSort.sol\":574:575  i */\n      dup6\n        /* \"contracts/utils/QuickSort.sol\":565:577  arr[uint(i)] */\n      dup2\n      mload\n      dup2\n      lt\n      iszero\n      iszero\n      tag_27\n      jumpi\n      invalid\n    tag_27:\n      swap1\n      0x20\n      add\n      swap1\n      0x20\n      mul\n      add\n        /* \"contracts/utils/QuickSort.sol\":579:582  arr */\n      dup9\n        /* \"contracts/utils/QuickSort.sol\":588:589  j */\n      dup6\n        /* \"contracts/utils/QuickSort.sol\":579:591  arr[uint(j)] */\n      dup2\n      mload\n      dup2\n      lt\n      iszero\n      iszero\n      tag_28\n      jumpi\n      invalid\n    tag_28:\n      swap1\n      0x20\n      add\n      swap1\n      0x20\n      mul\n      add\n        /* \"contracts/utils/QuickSort.sol\":564:623  (arr[uint(i)], arr[uint(j)]) = (arr[uint(j)], arr[uint(i)]) */\n      dup3\n      dup2\n      mstore\n      pop\n      dup3\n      dup2\n      mstore\n      pop\n      pop\n      pop\n        /* \"contracts/utils/QuickSort.sol\":641:644  i++ */\n      dup3\n      dup1\n      0x1\n      add\n      swap4\n      pop\n      pop\n        /* \"contracts/utils/QuickSort.sol\":662:665  j-- */\n      dup2\n      dup1\n      0x1\n      swap1\n      sub\n      swap3\n      pop\n      pop\n        /* \"contracts/utils/QuickSort.sol\":534:680  if (i <= j) {... */\n    tag_24:\n        /* \"contracts/utils/QuickSort.sol\":413:690  while (i <= j) {... */\n      jump(tag_16)\n    tag_17:\n        /* \"contracts/utils/QuickSort.sol\":710:711  j */\n      dup2\n        /* \"contracts/utils/QuickSort.sol\":703:707  left */\n      dup6\n        /* \"contracts/utils/QuickSort.sol\":703:711  left < j */\n      slt\n        /* \"contracts/utils/QuickSort.sol\":699:748  if (left < j)... */\n      iszero\n      tag_29\n      jumpi\n        /* \"contracts/utils/QuickSort.sol\":725:748  quickSort(arr, left, j) */\n      tag_30\n        /* \"contracts/utils/QuickSort.sol\":735:738  arr */\n      dup7\n        /* \"contracts/utils/QuickSort.sol\":740:744  left */\n      dup7\n        /* \"contracts/utils/QuickSort.sol\":746:747  j */\n      dup5\n        /* \"contracts/utils/QuickSort.sol\":725:734  quickSort */\n      tag_11\n        /* \"contracts/utils/QuickSort.sol\":725:748  quickSort(arr, left, j) */\n      jump\t// in\n    tag_30:\n        /* \"contracts/utils/QuickSort.sol\":699:748  if (left < j)... */\n    tag_29:\n        /* \"contracts/utils/QuickSort.sol\":766:771  right */\n      dup4\n        /* \"contracts/utils/QuickSort.sol\":762:763  i */\n      dup4\n        /* \"contracts/utils/QuickSort.sol\":762:771  i < right */\n      slt\n        /* \"contracts/utils/QuickSort.sol\":758:809  if (i < right)... */\n      iszero\n      tag_31\n      jumpi\n        /* \"contracts/utils/QuickSort.sol\":785:809  quickSort(arr, i, right) */\n      tag_32\n        /* \"contracts/utils/QuickSort.sol\":795:798  arr */\n      dup7\n        /* \"contracts/utils/QuickSort.sol\":800:801  i */\n      dup5\n        /* \"contracts/utils/QuickSort.sol\":803:808  right */\n      dup7\n        /* \"contracts/utils/QuickSort.sol\":785:794  quickSort */\n      tag_11\n        /* \"contracts/utils/QuickSort.sol\":785:809  quickSort(arr, i, right) */\n      jump\t// in\n    tag_32:\n        /* \"contracts/utils/QuickSort.sol\":758:809  if (i < right)... */\n    tag_31:\n        /* \"contracts/utils/QuickSort.sol\":207:816  function quickSort(uint[] memory arr, int left, int right) internal{... */\n    tag_12:\n      pop\n      pop\n      pop\n      pop\n      pop\n      pop\n      jump\t// out\n\n    auxdata: 0xa165627a7a72305820c800a3d3a66840b9334bb361d43c8ca6476955872d2878f4c0670e2c6b8a4f810029\n}\n",
				"bytecode": {
					"linkReferences": {},
					"object": "608060405234801561001057600080fd5b506102a7806100206000396000f300608060405260043610610041576000357c0100000000000000000000000000000000000000000000000000000000900463ffffffff1680639ec8b02614610046575b600080fd5b34801561005257600080fd5b506100aa60048036038101908080359060200190820180359060200190808060200260200160405190810160405280939291908181526020018383602002808284378201915050505050509192919290505050610101565b6040518080602001828103825283818151815260200191508051906020019060200280838360005b838110156100ed5780820151818401526020810190506100d2565b505050509050019250505060405180910390f35b6060610113826000600185510361011b565b819050919050565b60008060008492508391508183141561013357610273565b85600286860381151561014257fe5b05860181518110151561015157fe5b9060200190602002015190505b818313151561024a575b80868481518110151561017757fe5b906020019060200201511015610194578280600101935050610168565b5b85828151811015156101a357fe5b906020019060200201518110156101c257818060019003925050610195565b81831315156102455785828151811015156101d957fe5b9060200190602002015186848151811015156101f157fe5b90602001906020020151878581518110151561020957fe5b906020019060200201888581518110151561022057fe5b9060200190602002018281525082815250505082806001019350508180600190039250505b61015e565b8185121561025e5761025d86868461011b565b5b838312156102725761027186848661011b565b5b5b5050505050505600a165627a7a72305820c800a3d3a66840b9334bb361d43c8ca6476955872d2878f4c0670e2c6b8a4f810029",
					"opcodes": "PUSH1 0x80 PUSH1 0x40 MSTORE CALLVALUE DUP1 ISZERO PUSH2 0x10 JUMPI PUSH1 0x0 DUP1 REVERT JUMPDEST POP PUSH2 0x2A7 DUP1 PUSH2 0x20 PUSH1 0x0 CODECOPY PUSH1 0x0 RETURN STOP PUSH1 0x80 PUSH1 0x40 MSTORE PUSH1 0x4 CALLDATASIZE LT PUSH2 0x41 JUMPI PUSH1 0x0 CALLDATALOAD PUSH29 0x100000000000000000000000000000000000000000000000000000000 SWAP1 DIV PUSH4 0xFFFFFFFF AND DUP1 PUSH4 0x9EC8B026 EQ PUSH2 0x46 JUMPI JUMPDEST PUSH1 0x0 DUP1 REVERT JUMPDEST CALLVALUE DUP1 ISZERO PUSH2 0x52 JUMPI PUSH1 0x0 DUP1 REVERT JUMPDEST POP PUSH2 0xAA PUSH1 0x4 DUP1 CALLDATASIZE SUB DUP2 ADD SWAP1 DUP1 DUP1 CALLDATALOAD SWAP1 PUSH1 0x20 ADD SWAP1 DUP3 ADD DUP1 CALLDATALOAD SWAP1 PUSH1 0x20 ADD SWAP1 DUP1 DUP1 PUSH1 0x20 MUL PUSH1 0x20 ADD PUSH1 0x40 MLOAD SWAP1 DUP2 ADD PUSH1 0x40 MSTORE DUP1 SWAP4 SWAP3 SWAP2 SWAP1 DUP2 DUP2 MSTORE PUSH1 0x20 ADD DUP4 DUP4 PUSH1 0x20 MUL DUP1 DUP3 DUP5 CALLDATACOPY DUP3 ADD SWAP2 POP POP POP POP POP POP SWAP2 SWAP3 SWAP2 SWAP3 SWAP1 POP POP POP PUSH2 0x101 JUMP JUMPDEST PUSH1 0x40 MLOAD DUP1 DUP1 PUSH1 0x20 ADD DUP3 DUP2 SUB DUP3 MSTORE DUP4 DUP2 DUP2 MLOAD DUP2 MSTORE PUSH1 0x20 ADD SWAP2 POP DUP1 MLOAD SWAP1 PUSH1 0x20 ADD SWAP1 PUSH1 0x20 MUL DUP1 DUP4 DUP4 PUSH1 0x0 JUMPDEST DUP4 DUP2 LT ISZERO PUSH2 0xED JUMPI DUP1 DUP3 ADD MLOAD DUP2 DUP5 ADD MSTORE PUSH1 0x20 DUP2 ADD SWAP1 POP PUSH2 0xD2 JUMP JUMPDEST POP POP POP POP SWAP1 POP ADD SWAP3 POP POP POP PUSH1 0x40 MLOAD DUP1 SWAP2 SUB SWAP1 RETURN JUMPDEST PUSH1 0x60 PUSH2 0x113 DUP3 PUSH1 0x0 PUSH1 0x1 DUP6 MLOAD SUB PUSH2 0x11B JUMP JUMPDEST DUP2 SWAP1 POP SWAP2 SWAP1 POP JUMP JUMPDEST PUSH1 0x0 DUP1 PUSH1 0x0 DUP5 SWAP3 POP DUP4 SWAP2 POP DUP2 DUP4 EQ ISZERO PUSH2 0x133 JUMPI PUSH2 0x273 JUMP JUMPDEST DUP6 PUSH1 0x2 DUP7 DUP7 SUB DUP2 ISZERO ISZERO PUSH2 0x142 JUMPI INVALID JUMPDEST SDIV DUP7 ADD DUP2 MLOAD DUP2 LT ISZERO ISZERO PUSH2 0x151 JUMPI INVALID JUMPDEST SWAP1 PUSH1 0x20 ADD SWAP1 PUSH1 0x20 MUL ADD MLOAD SWAP1 POP JUMPDEST DUP2 DUP4 SGT ISZERO ISZERO PUSH2 0x24A JUMPI JUMPDEST DUP1 DUP7 DUP5 DUP2 MLOAD DUP2 LT ISZERO ISZERO PUSH2 0x177 JUMPI INVALID JUMPDEST SWAP1 PUSH1 0x20 ADD SWAP1 PUSH1 0x20 MUL ADD MLOAD LT ISZERO PUSH2 0x194 JUMPI DUP3 DUP1 PUSH1 0x1 ADD SWAP4 POP POP PUSH2 0x168 JUMP JUMPDEST JUMPDEST DUP6 DUP3 DUP2 MLOAD DUP2 LT ISZERO ISZERO PUSH2 0x1A3 JUMPI INVALID JUMPDEST SWAP1 PUSH1 0x20 ADD SWAP1 PUSH1 0x20 MUL ADD MLOAD DUP2 LT ISZERO PUSH2 0x1C2 JUMPI DUP2 DUP1 PUSH1 0x1 SWAP1 SUB SWAP3 POP POP PUSH2 0x195 JUMP JUMPDEST DUP2 DUP4 SGT ISZERO ISZERO PUSH2 0x245 JUMPI DUP6 DUP3 DUP2 MLOAD DUP2 LT ISZERO ISZERO PUSH2 0x1D9 JUMPI INVALID JUMPDEST SWAP1 PUSH1 0x20 ADD SWAP1 PUSH1 0x20 MUL ADD MLOAD DUP7 DUP5 DUP2 MLOAD DUP2 LT ISZERO ISZERO PUSH2 0x1F1 JUMPI INVALID JUMPDEST SWAP1 PUSH1 0x20 ADD SWAP1 PUSH1 0x20 MUL ADD MLOAD DUP8 DUP6 DUP2 MLOAD DUP2 LT ISZERO ISZERO PUSH2 0x209 JUMPI INVALID JUMPDEST SWAP1 PUSH1 0x20 ADD SWAP1 PUSH1 0x20 MUL ADD DUP9 DUP6 DUP2 MLOAD DUP2 LT ISZERO ISZERO PUSH2 0x220 JUMPI INVALID JUMPDEST SWAP1 PUSH1 0x20 ADD SWAP1 PUSH1 0x20 MUL ADD DUP3 DUP2 MSTORE POP DUP3 DUP2 MSTORE POP POP POP DUP3 DUP1 PUSH1 0x1 ADD SWAP4 POP POP DUP2 DUP1 PUSH1 0x1 SWAP1 SUB SWAP3 POP POP JUMPDEST PUSH2 0x15E JUMP JUMPDEST DUP2 DUP6 SLT ISZERO PUSH2 0x25E JUMPI PUSH2 0x25D DUP7 DUP7 DUP5 PUSH2 0x11B JUMP JUMPDEST JUMPDEST DUP4 DUP4 SLT ISZERO PUSH2 0x272 JUMPI PUSH2 0x271 DUP7 DUP5 DUP7 PUSH2 0x11B JUMP JUMPDEST JUMPDEST JUMPDEST POP POP POP POP POP POP JUMP STOP LOG1 PUSH6 0x627A7A723058 KECCAK256 0xc8 STOP LOG3 0xd3 0xa6 PUSH9 0x40B9334BB361D43C8C 0xa6 0x47 PUSH10 0x55872D2878F4C0670E2C PUSH12 0x8A4F81002900000000000000 "
				},
				"gasEstimates": {
					"creation": {
						"codeDepositCost": "135800",
						"executionCost": "183",
						"totalCost": "135983"
					},
					"external": {
						"sort(uint256[])": "infinite"
					},
					"internal": {
						"quickSort(uint256[] memory,int256,int256)": "infinite"
					}
				},
				"methodIdentifiers": {
					"sort(uint256[])": "9ec8b026"
				}
			},
			"userdoc": {
				"methods": {}
			}
		}
	}
}