{
	"contracts/utils/CallAnything.sol": {
		"CallAnything": {
			"abi": [
				{
					"inputs": [
						{
							"internalType": "address",
							"name": "someAddress",
							"type": "address"
						},
						{
							"internalType": "uint256",
							"name": "amount",
							"type": "uint256"
						}
					],
					"name": "callTransferFunctionDirectly",
					"outputs": [
						{
							"internalType": "bytes4",
							"name": "",
							"type": "bytes4"
						},
						{
							"internalType": "bool",
							"name": "",
							"type": "bool"
						}
					],
					"stateMutability": "nonpayable",
					"type": "function"
				},
				{
					"inputs": [
						{
							"internalType": "address",
							"name": "someAddress",
							"type": "address"
						},
						{
							"internalType": "uint256",
							"name": "amount",
							"type": "uint256"
						}
					],
					"name": "callTransferFunctionDirectlyTwo",
					"outputs": [
						{
							"internalType": "bytes4",
							"name": "",
							"type": "bytes4"
						},
						{
							"internalType": "bool",
							"name": "",
							"type": "bool"
						}
					],
					"stateMutability": "nonpayable",
					"type": "function"
				},
				{
					"inputs": [],
					"name": "getCallData",
					"outputs": [
						{
							"internalType": "bytes",
							"name": "",
							"type": "bytes"
						}
					],
					"stateMutability": "view",
					"type": "function"
				},
				{
					"inputs": [
						{
							"internalType": "address",
							"name": "someAddress",
							"type": "address"
						},
						{
							"internalType": "uint256",
							"name": "amount",
							"type": "uint256"
						}
					],
					"name": "getDataToCallTransfer",
					"outputs": [
						{
							"internalType": "bytes",
							"name": "",
							"type": "bytes"
						}
					],
					"stateMutability": "pure",
					"type": "function"
				},
				{
					"inputs": [],
					"name": "getSelectorFour",
					"outputs": [
						{
							"internalType": "bytes4",
							"name": "selector",
							"type": "bytes4"
						}
					],
					"stateMutability": "pure",
					"type": "function"
				},
				{
					"inputs": [],
					"name": "getSelectorOne",
					"outputs": [
						{
							"internalType": "bytes4",
							"name": "selector",
							"type": "bytes4"
						}
					],
					"stateMutability": "pure",
					"type": "function"
				},
				{
					"inputs": [
						{
							"internalType": "bytes",
							"name": "functionCallData",
							"type": "bytes"
						}
					],
					"name": "getSelectorThree",
					"outputs": [
						{
							"internalType": "bytes4",
							"name": "selector",
							"type": "bytes4"
						}
					],
					"stateMutability": "pure",
					"type": "function"
				},
				{
					"inputs": [],
					"name": "getSelectorTwo",
					"outputs": [
						{
							"internalType": "bytes4",
							"name": "selector",
							"type": "bytes4"
						}
					],
					"stateMutability": "view",
					"type": "function"
				},
				{
					"inputs": [],
					"name": "getSignatureOne",
					"outputs": [
						{
							"internalType": "string",
							"name": "",
							"type": "string"
						}
					],
					"stateMutability": "pure",
					"type": "function"
				},
				{
					"inputs": [],
					"name": "s_amount",
					"outputs": [
						{
							"internalType": "uint256",
							"name": "",
							"type": "uint256"
						}
					],
					"stateMutability": "view",
					"type": "function"
				},
				{
					"inputs": [],
					"name": "s_someAddress",
					"outputs": [
						{
							"internalType": "address",
							"name": "",
							"type": "address"
						}
					],
					"stateMutability": "view",
					"type": "function"
				},
				{
					"inputs": [
						{
							"internalType": "address",
							"name": "someAddress",
							"type": "address"
						},
						{
							"internalType": "uint256",
							"name": "amount",
							"type": "uint256"
						}
					],
					"name": "transfer",
					"outputs": [],
					"stateMutability": "nonpayable",
					"type": "function"
				}
			],
			"devdoc": {
				"kind": "dev",
				"methods": {},
				"version": 1
			},
			"evm": {
				"assembly": "    /* \"contracts/utils/CallAnything.sol\":569:4176  contract CallAnything {... */\n  mstore(0x40, 0x80)\n  callvalue\n  dup1\n  iszero\n  tag_1\n  jumpi\n  0x00\n  dup1\n  revert\ntag_1:\n  pop\n  dataSize(sub_0)\n  dup1\n  dataOffset(sub_0)\n  0x00\n  codecopy\n  0x00\n  return\nstop\n\nsub_0: assembly {\n        /* \"contracts/utils/CallAnything.sol\":569:4176  contract CallAnything {... */\n      mstore(0x40, 0x80)\n      callvalue\n      dup1\n      iszero\n      tag_1\n      jumpi\n      0x00\n      dup1\n      revert\n    tag_1:\n      pop\n      jumpi(tag_2, lt(calldatasize, 0x04))\n      shr(0xe0, calldataload(0x00))\n      dup1\n      0xa9059cbb\n      gt\n      tag_15\n      jumpi\n      dup1\n      0xa9059cbb\n      eq\n      tag_9\n      jumpi\n      dup1\n      0xaad229d5\n      eq\n      tag_10\n      jumpi\n      dup1\n      0xb20d9446\n      eq\n      tag_11\n      jumpi\n      dup1\n      0xc6e93bad\n      eq\n      tag_12\n      jumpi\n      dup1\n      0xce6eb7ff\n      eq\n      tag_13\n      jumpi\n      dup1\n      0xfbf6d515\n      eq\n      tag_14\n      jumpi\n      jump(tag_2)\n    tag_15:\n      dup1\n      0x0bf9aa4c\n      eq\n      tag_3\n      jumpi\n      dup1\n      0x25435a56\n      eq\n      tag_4\n      jumpi\n      dup1\n      0x7c0c5f23\n      eq\n      tag_5\n      jumpi\n      dup1\n      0x852d52fa\n      eq\n      tag_6\n      jumpi\n      dup1\n      0x9a41d3ad\n      eq\n      tag_7\n      jumpi\n      dup1\n      0xa5694e4a\n      eq\n      tag_8\n      jumpi\n    tag_2:\n      0x00\n      dup1\n      revert\n        /* \"contracts/utils/CallAnything.sol\":2857:3011  function getCallData() public view returns (bytes memory) {... */\n    tag_3:\n      tag_16\n      tag_17\n      jump\t// in\n    tag_16:\n      mload(0x40)\n      tag_18\n      swap2\n      swap1\n      tag_19\n      jump\t// in\n    tag_18:\n      mload(0x40)\n      dup1\n      swap2\n      sub\n      swap1\n      return\n        /* \"contracts/utils/CallAnything.sol\":3896:4007  function getSelectorFour() public pure returns (bytes4 selector) {... */\n    tag_4:\n      tag_20\n      tag_21\n      jump\t// in\n    tag_20:\n      mload(0x40)\n      tag_22\n      swap2\n      swap1\n      tag_23\n      jump\t// in\n    tag_22:\n      mload(0x40)\n      dup1\n      swap2\n      sub\n      swap1\n      return\n        /* \"contracts/utils/CallAnything.sol\":1191:1407  function getDataToCallTransfer(address someAddress, uint256 amount)... */\n    tag_5:\n      tag_24\n      0x04\n      dup1\n      calldatasize\n      sub\n      dup2\n      add\n      swap1\n      tag_25\n      swap2\n      swap1\n      tag_26\n      jump\t// in\n    tag_25:\n      tag_27\n      jump\t// in\n    tag_24:\n      mload(0x40)\n      tag_28\n      swap2\n      swap1\n      tag_19\n      jump\t// in\n    tag_28:\n      mload(0x40)\n      dup1\n      swap2\n      sub\n      swap1\n      return\n        /* \"contracts/utils/CallAnything.sol\":4060:4174  function getSignatureOne() public pure returns (string memory) {... */\n    tag_6:\n      tag_29\n      tag_30\n      jump\t// in\n    tag_29:\n      mload(0x40)\n      tag_31\n      swap2\n      swap1\n      tag_32\n      jump\t// in\n    tag_31:\n      mload(0x40)\n      dup1\n      swap2\n      sub\n      swap1\n      return\n        /* \"contracts/utils/CallAnything.sol\":1040:1185  function getSelectorOne() public pure returns (bytes4 selector) {... */\n    tag_7:\n      tag_33\n      tag_34\n      jump\t// in\n    tag_33:\n      mload(0x40)\n      tag_35\n      swap2\n      swap1\n      tag_23\n      jump\t// in\n    tag_35:\n      mload(0x40)\n      dup1\n      swap2\n      sub\n      swap1\n      return\n        /* \"contracts/utils/CallAnything.sol\":1494:1886  function callTransferFunctionDirectly(address someAddress, uint256 amount)... */\n    tag_8:\n      tag_36\n      0x04\n      dup1\n      calldatasize\n      sub\n      dup2\n      add\n      swap1\n      tag_37\n      swap2\n      swap1\n      tag_26\n      jump\t// in\n    tag_37:\n      tag_38\n      jump\t// in\n    tag_36:\n      mload(0x40)\n      tag_39\n      swap3\n      swap2\n      swap1\n      tag_40\n      jump\t// in\n    tag_39:\n      mload(0x40)\n      dup1\n      swap2\n      sub\n      swap1\n      return\n        /* \"contracts/utils/CallAnything.sol\":661:815  function transfer(address someAddress, uint256 amount) public {... */\n    tag_9:\n      tag_41\n      0x04\n      dup1\n      calldatasize\n      sub\n      dup2\n      add\n      swap1\n      tag_42\n      swap2\n      swap1\n      tag_26\n      jump\t// in\n    tag_42:\n      tag_43\n      jump\t// in\n    tag_41:\n      stop\n        /* \"contracts/utils/CallAnything.sol\":597:625  address public s_someAddress */\n    tag_10:\n      tag_44\n      tag_45\n      jump\t// in\n    tag_44:\n      mload(0x40)\n      tag_46\n      swap2\n      swap1\n      tag_47\n      jump\t// in\n    tag_46:\n      mload(0x40)\n      dup1\n      swap2\n      sub\n      swap1\n      return\n        /* \"contracts/utils/CallAnything.sol\":1925:2273  function callTransferFunctionDirectlyTwo(address someAddress, uint256 amount)... */\n    tag_11:\n      tag_48\n      0x04\n      dup1\n      calldatasize\n      sub\n      dup2\n      add\n      swap1\n      tag_49\n      swap2\n      swap1\n      tag_26\n      jump\t// in\n    tag_49:\n      tag_50\n      jump\t// in\n    tag_48:\n      mload(0x40)\n      tag_51\n      swap3\n      swap2\n      swap1\n      tag_40\n      jump\t// in\n    tag_51:\n      mload(0x40)\n      dup1\n      swap2\n      sub\n      swap1\n      return\n        /* \"contracts/utils/CallAnything.sol\":631:654  uint256 public s_amount */\n    tag_12:\n      tag_52\n      tag_53\n      jump\t// in\n    tag_52:\n      mload(0x40)\n      tag_54\n      swap2\n      swap1\n      tag_55\n      jump\t// in\n    tag_54:\n      mload(0x40)\n      dup1\n      swap2\n      sub\n      swap1\n      return\n        /* \"contracts/utils/CallAnything.sol\":3550:3826  function getSelectorThree(bytes calldata functionCallData)... */\n    tag_13:\n      tag_56\n      0x04\n      dup1\n      calldatasize\n      sub\n      dup2\n      add\n      swap1\n      tag_57\n      swap2\n      swap1\n      tag_58\n      jump\t// in\n    tag_57:\n      tag_59\n      jump\t// in\n    tag_56:\n      mload(0x40)\n      tag_60\n      swap2\n      swap1\n      tag_23\n      jump\t// in\n    tag_60:\n      mload(0x40)\n      dup1\n      swap2\n      sub\n      swap1\n      return\n        /* \"contracts/utils/CallAnything.sol\":2351:2807  function getSelectorTwo() public view returns (bytes4 selector) {... */\n    tag_14:\n      tag_61\n      tag_62\n      jump\t// in\n    tag_61:\n      mload(0x40)\n      tag_63\n      swap2\n      swap1\n      tag_23\n      jump\t// in\n    tag_63:\n      mload(0x40)\n      dup1\n      swap2\n      sub\n      swap1\n      return\n        /* \"contracts/utils/CallAnything.sol\":2857:3011  function getCallData() public view returns (bytes memory) {... */\n    tag_17:\n        /* \"contracts/utils/CallAnything.sol\":2901:2913  bytes memory */\n      0x60\n        /* \"contracts/utils/CallAnything.sol\":2993:2997  this */\n      address\n        /* \"contracts/utils/CallAnything.sol\":3000:3003  123 */\n      0x7b\n        /* \"contracts/utils/CallAnything.sol\":2932:3004  abi.encodeWithSignature(\"transfer(address,uint256)\", address(this), 123) */\n      add(0x24, mload(0x40))\n      tag_65\n      swap3\n      swap2\n      swap1\n      tag_66\n      jump\t// in\n    tag_65:\n      mload(0x40)\n      0x20\n      dup2\n      dup4\n      sub\n      sub\n      dup2\n      mstore\n      swap1\n      0x40\n      mstore\n      and(not(0xffffffffffffffffffffffffffffffffffffffffffffffffffffffff), 0xa9059cbb00000000000000000000000000000000000000000000000000000000)\n      0x20\n      dup3\n      add\n      dup1\n      mload\n      0xffffffffffffffffffffffffffffffffffffffffffffffffffffffff\n      dup4\n      dup2\n      dup4\n      and\n      or\n      dup4\n      mstore\n      pop\n      pop\n      pop\n      pop\n        /* \"contracts/utils/CallAnything.sol\":2925:3004  return abi.encodeWithSignature(\"transfer(address,uint256)\", address(this), 123) */\n      swap1\n      pop\n        /* \"contracts/utils/CallAnything.sol\":2857:3011  function getCallData() public view returns (bytes memory) {... */\n      swap1\n      jump\t// out\n        /* \"contracts/utils/CallAnything.sol\":3896:4007  function getSelectorFour() public pure returns (bytes4 selector) {... */\n    tag_21:\n        /* \"contracts/utils/CallAnything.sol\":3944:3959  bytes4 selector */\n      0x00\n        /* \"contracts/utils/CallAnything.sol\":3978:4000  this.transfer.selector */\n      shl(0xe0, 0xa9059cbb)\n        /* \"contracts/utils/CallAnything.sol\":3971:4000  return this.transfer.selector */\n      swap1\n      pop\n        /* \"contracts/utils/CallAnything.sol\":3896:4007  function getSelectorFour() public pure returns (bytes4 selector) {... */\n      swap1\n      jump\t// out\n        /* \"contracts/utils/CallAnything.sol\":1191:1407  function getDataToCallTransfer(address someAddress, uint256 amount)... */\n    tag_27:\n        /* \"contracts/utils/CallAnything.sol\":1304:1316  bytes memory */\n      0x60\n        /* \"contracts/utils/CallAnything.sol\":1362:1378  getSelectorOne() */\n      tag_69\n        /* \"contracts/utils/CallAnything.sol\":1362:1376  getSelectorOne */\n      tag_34\n        /* \"contracts/utils/CallAnything.sol\":1362:1378  getSelectorOne() */\n      jump\t// in\n    tag_69:\n        /* \"contracts/utils/CallAnything.sol\":1380:1391  someAddress */\n      dup4\n        /* \"contracts/utils/CallAnything.sol\":1393:1399  amount */\n      dup4\n        /* \"contracts/utils/CallAnything.sol\":1339:1400  abi.encodeWithSelector(getSelectorOne(), someAddress, amount) */\n      add(0x24, mload(0x40))\n      tag_70\n      swap3\n      swap2\n      swap1\n      tag_71\n      jump\t// in\n    tag_70:\n      mload(0x40)\n      0x20\n      dup2\n      dup4\n      sub\n      sub\n      dup2\n      mstore\n      swap1\n      0x40\n      mstore\n      swap1\n      not(0xffffffffffffffffffffffffffffffffffffffffffffffffffffffff)\n      and\n      0x20\n      dup3\n      add\n      dup1\n      mload\n      0xffffffffffffffffffffffffffffffffffffffffffffffffffffffff\n      dup4\n      dup2\n      dup4\n      and\n      or\n      dup4\n      mstore\n      pop\n      pop\n      pop\n      pop\n        /* \"contracts/utils/CallAnything.sol\":1332:1400  return abi.encodeWithSelector(getSelectorOne(), someAddress, amount) */\n      swap1\n      pop\n        /* \"contracts/utils/CallAnything.sol\":1191:1407  function getDataToCallTransfer(address someAddress, uint256 amount)... */\n      swap3\n      swap2\n      pop\n      pop\n      jump\t// out\n        /* \"contracts/utils/CallAnything.sol\":4060:4174  function getSignatureOne() public pure returns (string memory) {... */\n    tag_30:\n        /* \"contracts/utils/CallAnything.sol\":4108:4121  string memory */\n      0x60\n        /* \"contracts/utils/CallAnything.sol\":4133:4167  return \"transfer(address,uint256)\" */\n      mload(0x40)\n      dup1\n      0x40\n      add\n      0x40\n      mstore\n      dup1\n      0x19\n      dup2\n      mstore\n      0x20\n      add\n      0x7472616e7366657228616464726573732c75696e743235362900000000000000\n      dup2\n      mstore\n      pop\n      swap1\n      pop\n        /* \"contracts/utils/CallAnything.sol\":4060:4174  function getSignatureOne() public pure returns (string memory) {... */\n      swap1\n      jump\t// out\n        /* \"contracts/utils/CallAnything.sol\":1040:1185  function getSelectorOne() public pure returns (bytes4 selector) {... */\n    tag_34:\n        /* \"contracts/utils/CallAnything.sol\":1087:1102  bytes4 selector */\n      0x00\n        /* \"contracts/utils/CallAnything.sol\":1142:1176  bytes(\"transfer(address,uint256)\") */\n      mload(0x40)\n      dup1\n      0x40\n      add\n      0x40\n      mstore\n      dup1\n      0x19\n      dup2\n      mstore\n      0x20\n      add\n      0x7472616e7366657228616464726573732c75696e743235362900000000000000\n      dup2\n      mstore\n      pop\n        /* \"contracts/utils/CallAnything.sol\":1132:1177  keccak256(bytes(\"transfer(address,uint256)\")) */\n      dup1\n      mload\n      swap1\n      0x20\n      add\n      keccak256\n        /* \"contracts/utils/CallAnything.sol\":1114:1178  selector = bytes4(keccak256(bytes(\"transfer(address,uint256)\"))) */\n      swap1\n      pop\n        /* \"contracts/utils/CallAnything.sol\":1040:1185  function getSelectorOne() public pure returns (bytes4 selector) {... */\n      swap1\n      jump\t// out\n        /* \"contracts/utils/CallAnything.sol\":1494:1886  function callTransferFunctionDirectly(address someAddress, uint256 amount)... */\n    tag_38:\n        /* \"contracts/utils/CallAnything.sol\":1601:1607  bytes4 */\n      0x00\n        /* \"contracts/utils/CallAnything.sol\":1609:1613  bool */\n      dup1\n        /* \"contracts/utils/CallAnything.sol\":1630:1642  bool success */\n      0x00\n        /* \"contracts/utils/CallAnything.sol\":1644:1667  bytes memory returnData */\n      dup1\n        /* \"contracts/utils/CallAnything.sol\":1679:1683  this */\n      address\n        /* \"contracts/utils/CallAnything.sol\":1671:1689  address(this).call */\n      0xffffffffffffffffffffffffffffffffffffffff\n      and\n        /* \"contracts/utils/CallAnything.sol\":1785:1801  getSelectorOne() */\n      tag_75\n        /* \"contracts/utils/CallAnything.sol\":1785:1799  getSelectorOne */\n      tag_34\n        /* \"contracts/utils/CallAnything.sol\":1785:1801  getSelectorOne() */\n      jump\t// in\n    tag_75:\n        /* \"contracts/utils/CallAnything.sol\":1803:1814  someAddress */\n      dup8\n        /* \"contracts/utils/CallAnything.sol\":1816:1822  amount */\n      dup8\n        /* \"contracts/utils/CallAnything.sol\":1762:1823  abi.encodeWithSelector(getSelectorOne(), someAddress, amount) */\n      add(0x24, mload(0x40))\n      tag_76\n      swap3\n      swap2\n      swap1\n      tag_71\n      jump\t// in\n    tag_76:\n      mload(0x40)\n      0x20\n      dup2\n      dup4\n      sub\n      sub\n      dup2\n      mstore\n      swap1\n      0x40\n      mstore\n      swap1\n      not(0xffffffffffffffffffffffffffffffffffffffffffffffffffffffff)\n      and\n      0x20\n      dup3\n      add\n      dup1\n      mload\n      0xffffffffffffffffffffffffffffffffffffffffffffffffffffffff\n      dup4\n      dup2\n      dup4\n      and\n      or\n      dup4\n      mstore\n      pop\n      pop\n      pop\n      pop\n        /* \"contracts/utils/CallAnything.sol\":1671:1833  address(this).call(... */\n      mload(0x40)\n      tag_77\n      swap2\n      swap1\n      tag_78\n      jump\t// in\n    tag_77:\n      0x00\n      mload(0x40)\n      dup1\n      dup4\n      sub\n      dup2\n      0x00\n      dup7\n      gas\n      call\n      swap2\n      pop\n      pop\n      returndatasize\n      dup1\n      0x00\n      dup2\n      eq\n      tag_81\n      jumpi\n      mload(0x40)\n      swap2\n      pop\n      and(add(returndatasize, 0x3f), not(0x1f))\n      dup3\n      add\n      0x40\n      mstore\n      returndatasize\n      dup3\n      mstore\n      returndatasize\n      0x00\n      0x20\n      dup5\n      add\n      returndatacopy\n      jump(tag_80)\n    tag_81:\n      0x60\n      swap2\n      pop\n    tag_80:\n      pop\n        /* \"contracts/utils/CallAnything.sol\":1629:1833  (bool success, bytes memory returnData) = address(this).call(... */\n      swap2\n      pop\n      swap2\n      pop\n        /* \"contracts/utils/CallAnything.sol\":1858:1868  returnData */\n      dup1\n        /* \"contracts/utils/CallAnything.sol\":1851:1869  bytes4(returnData) */\n      tag_82\n      swap1\n      tag_83\n      jump\t// in\n    tag_82:\n        /* \"contracts/utils/CallAnything.sol\":1871:1878  success */\n      dup3\n        /* \"contracts/utils/CallAnything.sol\":1843:1879  return (bytes4(returnData), success) */\n      swap4\n      pop\n      swap4\n      pop\n      pop\n      pop\n        /* \"contracts/utils/CallAnything.sol\":1494:1886  function callTransferFunctionDirectly(address someAddress, uint256 amount)... */\n      swap3\n      pop\n      swap3\n      swap1\n      pop\n      jump\t// out\n        /* \"contracts/utils/CallAnything.sol\":661:815  function transfer(address someAddress, uint256 amount) public {... */\n    tag_43:\n        /* \"contracts/utils/CallAnything.sol\":770:781  someAddress */\n      dup2\n        /* \"contracts/utils/CallAnything.sol\":754:767  s_someAddress */\n      0x00\n      dup1\n        /* \"contracts/utils/CallAnything.sol\":754:781  s_someAddress = someAddress */\n      0x0100\n      exp\n      dup2\n      sload\n      dup2\n      0xffffffffffffffffffffffffffffffffffffffff\n      mul\n      not\n      and\n      swap1\n      dup4\n      0xffffffffffffffffffffffffffffffffffffffff\n      and\n      mul\n      or\n      swap1\n      sstore\n      pop\n        /* \"contracts/utils/CallAnything.sol\":802:808  amount */\n      dup1\n        /* \"contracts/utils/CallAnything.sol\":791:799  s_amount */\n      0x01\n        /* \"contracts/utils/CallAnything.sol\":791:808  s_amount = amount */\n      dup2\n      swap1\n      sstore\n      pop\n        /* \"contracts/utils/CallAnything.sol\":661:815  function transfer(address someAddress, uint256 amount) public {... */\n      pop\n      pop\n      jump\t// out\n        /* \"contracts/utils/CallAnything.sol\":597:625  address public s_someAddress */\n    tag_45:\n      0x00\n      dup1\n      sload\n      swap1\n      0x0100\n      exp\n      swap1\n      div\n      0xffffffffffffffffffffffffffffffffffffffff\n      and\n      dup2\n      jump\t// out\n        /* \"contracts/utils/CallAnything.sol\":1925:2273  function callTransferFunctionDirectlyTwo(address someAddress, uint256 amount)... */\n    tag_50:\n        /* \"contracts/utils/CallAnything.sol\":2035:2041  bytes4 */\n      0x00\n        /* \"contracts/utils/CallAnything.sol\":2043:2047  bool */\n      dup1\n        /* \"contracts/utils/CallAnything.sol\":2064:2076  bool success */\n      0x00\n        /* \"contracts/utils/CallAnything.sol\":2078:2101  bytes memory returnData */\n      dup1\n        /* \"contracts/utils/CallAnything.sol\":2113:2117  this */\n      address\n        /* \"contracts/utils/CallAnything.sol\":2105:2123  address(this).call */\n      0xffffffffffffffffffffffffffffffffffffffff\n      and\n        /* \"contracts/utils/CallAnything.sol\":2190:2201  someAddress */\n      dup7\n        /* \"contracts/utils/CallAnything.sol\":2203:2209  amount */\n      dup7\n        /* \"contracts/utils/CallAnything.sol\":2137:2210  abi.encodeWithSignature(\"transfer(address,uint256)\", someAddress, amount) */\n      add(0x24, mload(0x40))\n      tag_86\n      swap3\n      swap2\n      swap1\n      tag_71\n      jump\t// in\n    tag_86:\n      mload(0x40)\n      0x20\n      dup2\n      dup4\n      sub\n      sub\n      dup2\n      mstore\n      swap1\n      0x40\n      mstore\n      and(not(0xffffffffffffffffffffffffffffffffffffffffffffffffffffffff), 0xa9059cbb00000000000000000000000000000000000000000000000000000000)\n      0x20\n      dup3\n      add\n      dup1\n      mload\n      0xffffffffffffffffffffffffffffffffffffffffffffffffffffffff\n      dup4\n      dup2\n      dup4\n      and\n      or\n      dup4\n      mstore\n      pop\n      pop\n      pop\n      pop\n        /* \"contracts/utils/CallAnything.sol\":2105:2220  address(this).call(... */\n      mload(0x40)\n      tag_87\n      swap2\n      swap1\n      tag_78\n      jump\t// in\n    tag_87:\n      0x00\n      mload(0x40)\n      dup1\n      dup4\n      sub\n      dup2\n      0x00\n      dup7\n      gas\n      call\n      swap2\n      pop\n      pop\n      returndatasize\n      dup1\n      0x00\n      dup2\n      eq\n      tag_90\n      jumpi\n      mload(0x40)\n      swap2\n      pop\n      and(add(returndatasize, 0x3f), not(0x1f))\n      dup3\n      add\n      0x40\n      mstore\n      returndatasize\n      dup3\n      mstore\n      returndatasize\n      0x00\n      0x20\n      dup5\n      add\n      returndatacopy\n      jump(tag_89)\n    tag_90:\n      0x60\n      swap2\n      pop\n    tag_89:\n      pop\n        /* \"contracts/utils/CallAnything.sol\":2063:2220  (bool success, bytes memory returnData) = address(this).call(... */\n      swap2\n      pop\n      swap2\n      pop\n        /* \"contracts/utils/CallAnything.sol\":2245:2255  returnData */\n      dup1\n        /* \"contracts/utils/CallAnything.sol\":2238:2256  bytes4(returnData) */\n      tag_91\n      swap1\n      tag_83\n      jump\t// in\n    tag_91:\n        /* \"contracts/utils/CallAnything.sol\":2258:2265  success */\n      dup3\n        /* \"contracts/utils/CallAnything.sol\":2230:2266  return (bytes4(returnData), success) */\n      swap4\n      pop\n      swap4\n      pop\n      pop\n      pop\n        /* \"contracts/utils/CallAnything.sol\":1925:2273  function callTransferFunctionDirectlyTwo(address someAddress, uint256 amount)... */\n      swap3\n      pop\n      swap3\n      swap1\n      pop\n      jump\t// out\n        /* \"contracts/utils/CallAnything.sol\":631:654  uint256 public s_amount */\n    tag_53:\n      sload(0x01)\n      dup2\n      jump\t// out\n        /* \"contracts/utils/CallAnything.sol\":3550:3826  function getSelectorThree(bytes calldata functionCallData)... */\n    tag_59:\n        /* \"contracts/utils/CallAnything.sol\":3654:3669  bytes4 selector */\n      0x00\n        /* \"contracts/utils/CallAnything.sol\":3786:3809  functionCallData.offset */\n      dup3\n        /* \"contracts/utils/CallAnything.sol\":3773:3810  calldataload(functionCallData.offset) */\n      calldataload\n        /* \"contracts/utils/CallAnything.sol\":3761:3810  selector := calldataload(functionCallData.offset) */\n      swap1\n      pop\n        /* \"contracts/utils/CallAnything.sol\":3550:3826  function getSelectorThree(bytes calldata functionCallData)... */\n      swap3\n      swap2\n      pop\n      pop\n      jump\t// out\n        /* \"contracts/utils/CallAnything.sol\":2351:2807  function getSelectorTwo() public view returns (bytes4 selector) {... */\n    tag_62:\n        /* \"contracts/utils/CallAnything.sol\":2398:2413  bytes4 selector */\n      0x00\n        /* \"contracts/utils/CallAnything.sol\":2425:2454  bytes memory functionCallData */\n      dup1\n        /* \"contracts/utils/CallAnything.sol\":2543:2547  this */\n      address\n        /* \"contracts/utils/CallAnything.sol\":2562:2565  123 */\n      0x7b\n        /* \"contracts/utils/CallAnything.sol\":2457:2575  abi.encodeWithSignature(... */\n      add(0x24, mload(0x40))\n      tag_94\n      swap3\n      swap2\n      swap1\n      tag_66\n      jump\t// in\n    tag_94:\n      mload(0x40)\n      0x20\n      dup2\n      dup4\n      sub\n      sub\n      dup2\n      mstore\n      swap1\n      0x40\n      mstore\n      and(not(0xffffffffffffffffffffffffffffffffffffffffffffffffffffffff), 0xa9059cbb00000000000000000000000000000000000000000000000000000000)\n      0x20\n      dup3\n      add\n      dup1\n      mload\n      0xffffffffffffffffffffffffffffffffffffffffffffffffffffffff\n      dup4\n      dup2\n      dup4\n      and\n      or\n      dup4\n      mstore\n      pop\n      pop\n      pop\n      pop\n        /* \"contracts/utils/CallAnything.sol\":2425:2575  bytes memory functionCallData = abi.encodeWithSignature(... */\n      swap1\n      pop\n        /* \"contracts/utils/CallAnything.sol\":2646:2662  functionCallData */\n      dup1\n        /* \"contracts/utils/CallAnything.sol\":2663:2664  0 */\n      0x00\n        /* \"contracts/utils/CallAnything.sol\":2646:2665  functionCallData[0] */\n      dup2\n      mload\n      dup2\n      lt\n      tag_95\n      jumpi\n      tag_96\n      tag_97\n      jump\t// in\n    tag_96:\n    tag_95:\n      0x20\n      add\n      add\n      mload\n      0xf8\n      shr\n      0xf8\n      shl\n        /* \"contracts/utils/CallAnything.sol\":2683:2699  functionCallData */\n      dup2\n        /* \"contracts/utils/CallAnything.sol\":2700:2701  1 */\n      0x01\n        /* \"contracts/utils/CallAnything.sol\":2683:2702  functionCallData[1] */\n      dup2\n      mload\n      dup2\n      lt\n      tag_98\n      jumpi\n      tag_99\n      tag_97\n      jump\t// in\n    tag_99:\n    tag_98:\n      0x20\n      add\n      add\n      mload\n      0xf8\n      shr\n      0xf8\n      shl\n        /* \"contracts/utils/CallAnything.sol\":2720:2736  functionCallData */\n      dup3\n        /* \"contracts/utils/CallAnything.sol\":2737:2738  2 */\n      0x02\n        /* \"contracts/utils/CallAnything.sol\":2720:2739  functionCallData[2] */\n      dup2\n      mload\n      dup2\n      lt\n      tag_100\n      jumpi\n      tag_101\n      tag_97\n      jump\t// in\n    tag_101:\n    tag_100:\n      0x20\n      add\n      add\n      mload\n      0xf8\n      shr\n      0xf8\n      shl\n        /* \"contracts/utils/CallAnything.sol\":2757:2773  functionCallData */\n      dup4\n        /* \"contracts/utils/CallAnything.sol\":2774:2775  3 */\n      0x03\n        /* \"contracts/utils/CallAnything.sol\":2757:2776  functionCallData[3] */\n      dup2\n      mload\n      dup2\n      lt\n      tag_102\n      jumpi\n      tag_103\n      tag_97\n      jump\t// in\n    tag_103:\n    tag_102:\n      0x20\n      add\n      add\n      mload\n      0xf8\n      shr\n      0xf8\n      shl\n        /* \"contracts/utils/CallAnything.sol\":2616:2790  bytes.concat(... */\n      add(0x20, mload(0x40))\n      tag_104\n      swap5\n      swap4\n      swap3\n      swap2\n      swap1\n      tag_105\n      jump\t// in\n    tag_104:\n      mload(0x40)\n      0x20\n      dup2\n      dup4\n      sub\n      sub\n      dup2\n      mstore\n      swap1\n      0x40\n      mstore\n        /* \"contracts/utils/CallAnything.sol\":2596:2800  bytes4(... */\n      tag_106\n      swap1\n      tag_83\n      jump\t// in\n    tag_106:\n        /* \"contracts/utils/CallAnything.sol\":2585:2800  selector = bytes4(... */\n      swap2\n      pop\n        /* \"contracts/utils/CallAnything.sol\":2415:2807  {... */\n      pop\n        /* \"contracts/utils/CallAnything.sol\":2351:2807  function getSelectorTwo() public view returns (bytes4 selector) {... */\n      swap1\n      jump\t// out\n        /* \"#utility.yul\":7:146   */\n    tag_108:\n        /* \"#utility.yul\":53:58   */\n      0x00\n        /* \"#utility.yul\":91:97   */\n      dup2\n        /* \"#utility.yul\":78:98   */\n      calldataload\n        /* \"#utility.yul\":69:98   */\n      swap1\n      pop\n        /* \"#utility.yul\":107:140   */\n      tag_110\n        /* \"#utility.yul\":134:139   */\n      dup2\n        /* \"#utility.yul\":107:140   */\n      tag_111\n      jump\t// in\n    tag_110:\n        /* \"#utility.yul\":7:146   */\n      swap3\n      swap2\n      pop\n      pop\n      jump\t// out\n        /* \"#utility.yul\":165:717   */\n    tag_112:\n        /* \"#utility.yul\":222:230   */\n      0x00\n        /* \"#utility.yul\":232:238   */\n      dup1\n        /* \"#utility.yul\":282:285   */\n      dup4\n        /* \"#utility.yul\":275:279   */\n      0x1f\n        /* \"#utility.yul\":267:273   */\n      dup5\n        /* \"#utility.yul\":263:280   */\n      add\n        /* \"#utility.yul\":259:286   */\n      slt\n        /* \"#utility.yul\":249:371   */\n      tag_114\n      jumpi\n        /* \"#utility.yul\":290:369   */\n      tag_115\n      tag_116\n      jump\t// in\n    tag_115:\n        /* \"#utility.yul\":249:371   */\n    tag_114:\n        /* \"#utility.yul\":403:409   */\n      dup3\n        /* \"#utility.yul\":390:410   */\n      calldataload\n        /* \"#utility.yul\":380:410   */\n      swap1\n      pop\n        /* \"#utility.yul\":433:451   */\n      0xffffffffffffffff\n        /* \"#utility.yul\":425:431   */\n      dup2\n        /* \"#utility.yul\":422:452   */\n      gt\n        /* \"#utility.yul\":419:536   */\n      iszero\n      tag_117\n      jumpi\n        /* \"#utility.yul\":455:534   */\n      tag_118\n      tag_119\n      jump\t// in\n    tag_118:\n        /* \"#utility.yul\":419:536   */\n    tag_117:\n        /* \"#utility.yul\":569:573   */\n      0x20\n        /* \"#utility.yul\":561:567   */\n      dup4\n        /* \"#utility.yul\":557:574   */\n      add\n        /* \"#utility.yul\":545:574   */\n      swap2\n      pop\n        /* \"#utility.yul\":623:626   */\n      dup4\n        /* \"#utility.yul\":615:619   */\n      0x01\n        /* \"#utility.yul\":607:613   */\n      dup3\n        /* \"#utility.yul\":603:620   */\n      mul\n        /* \"#utility.yul\":593:601   */\n      dup4\n        /* \"#utility.yul\":589:621   */\n      add\n        /* \"#utility.yul\":586:627   */\n      gt\n        /* \"#utility.yul\":583:711   */\n      iszero\n      tag_120\n      jumpi\n        /* \"#utility.yul\":630:709   */\n      tag_121\n      tag_122\n      jump\t// in\n    tag_121:\n        /* \"#utility.yul\":583:711   */\n    tag_120:\n        /* \"#utility.yul\":165:717   */\n      swap3\n      pop\n      swap3\n      swap1\n      pop\n      jump\t// out\n        /* \"#utility.yul\":723:862   */\n    tag_123:\n        /* \"#utility.yul\":769:774   */\n      0x00\n        /* \"#utility.yul\":807:813   */\n      dup2\n        /* \"#utility.yul\":794:814   */\n      calldataload\n        /* \"#utility.yul\":785:814   */\n      swap1\n      pop\n        /* \"#utility.yul\":823:856   */\n      tag_125\n        /* \"#utility.yul\":850:855   */\n      dup2\n        /* \"#utility.yul\":823:856   */\n      tag_126\n      jump\t// in\n    tag_125:\n        /* \"#utility.yul\":723:862   */\n      swap3\n      swap2\n      pop\n      pop\n      jump\t// out\n        /* \"#utility.yul\":868:1342   */\n    tag_26:\n        /* \"#utility.yul\":936:942   */\n      0x00\n        /* \"#utility.yul\":944:950   */\n      dup1\n        /* \"#utility.yul\":993:995   */\n      0x40\n        /* \"#utility.yul\":981:990   */\n      dup4\n        /* \"#utility.yul\":972:979   */\n      dup6\n        /* \"#utility.yul\":968:991   */\n      sub\n        /* \"#utility.yul\":964:996   */\n      slt\n        /* \"#utility.yul\":961:1080   */\n      iszero\n      tag_128\n      jumpi\n        /* \"#utility.yul\":999:1078   */\n      tag_129\n      tag_130\n      jump\t// in\n    tag_129:\n        /* \"#utility.yul\":961:1080   */\n    tag_128:\n        /* \"#utility.yul\":1119:1120   */\n      0x00\n        /* \"#utility.yul\":1144:1197   */\n      tag_131\n        /* \"#utility.yul\":1189:1196   */\n      dup6\n        /* \"#utility.yul\":1180:1186   */\n      dup3\n        /* \"#utility.yul\":1169:1178   */\n      dup7\n        /* \"#utility.yul\":1165:1187   */\n      add\n        /* \"#utility.yul\":1144:1197   */\n      tag_108\n      jump\t// in\n    tag_131:\n        /* \"#utility.yul\":1134:1197   */\n      swap3\n      pop\n        /* \"#utility.yul\":1090:1207   */\n      pop\n        /* \"#utility.yul\":1246:1248   */\n      0x20\n        /* \"#utility.yul\":1272:1325   */\n      tag_132\n        /* \"#utility.yul\":1317:1324   */\n      dup6\n        /* \"#utility.yul\":1308:1314   */\n      dup3\n        /* \"#utility.yul\":1297:1306   */\n      dup7\n        /* \"#utility.yul\":1293:1315   */\n      add\n        /* \"#utility.yul\":1272:1325   */\n      tag_123\n      jump\t// in\n    tag_132:\n        /* \"#utility.yul\":1262:1325   */\n      swap2\n      pop\n        /* \"#utility.yul\":1217:1335   */\n      pop\n        /* \"#utility.yul\":868:1342   */\n      swap3\n      pop\n      swap3\n      swap1\n      pop\n      jump\t// out\n        /* \"#utility.yul\":1348:1875   */\n    tag_58:\n        /* \"#utility.yul\":1418:1424   */\n      0x00\n        /* \"#utility.yul\":1426:1432   */\n      dup1\n        /* \"#utility.yul\":1475:1477   */\n      0x20\n        /* \"#utility.yul\":1463:1472   */\n      dup4\n        /* \"#utility.yul\":1454:1461   */\n      dup6\n        /* \"#utility.yul\":1450:1473   */\n      sub\n        /* \"#utility.yul\":1446:1478   */\n      slt\n        /* \"#utility.yul\":1443:1562   */\n      iszero\n      tag_134\n      jumpi\n        /* \"#utility.yul\":1481:1560   */\n      tag_135\n      tag_130\n      jump\t// in\n    tag_135:\n        /* \"#utility.yul\":1443:1562   */\n    tag_134:\n        /* \"#utility.yul\":1629:1630   */\n      0x00\n        /* \"#utility.yul\":1618:1627   */\n      dup4\n        /* \"#utility.yul\":1614:1631   */\n      add\n        /* \"#utility.yul\":1601:1632   */\n      calldataload\n        /* \"#utility.yul\":1659:1677   */\n      0xffffffffffffffff\n        /* \"#utility.yul\":1651:1657   */\n      dup2\n        /* \"#utility.yul\":1648:1678   */\n      gt\n        /* \"#utility.yul\":1645:1762   */\n      iszero\n      tag_136\n      jumpi\n        /* \"#utility.yul\":1681:1760   */\n      tag_137\n      tag_138\n      jump\t// in\n    tag_137:\n        /* \"#utility.yul\":1645:1762   */\n    tag_136:\n        /* \"#utility.yul\":1794:1858   */\n      tag_139\n        /* \"#utility.yul\":1850:1857   */\n      dup6\n        /* \"#utility.yul\":1841:1847   */\n      dup3\n        /* \"#utility.yul\":1830:1839   */\n      dup7\n        /* \"#utility.yul\":1826:1848   */\n      add\n        /* \"#utility.yul\":1794:1858   */\n      tag_112\n      jump\t// in\n    tag_139:\n        /* \"#utility.yul\":1776:1858   */\n      swap3\n      pop\n      swap3\n      pop\n        /* \"#utility.yul\":1572:1868   */\n      pop\n        /* \"#utility.yul\":1348:1875   */\n      swap3\n      pop\n      swap3\n      swap1\n      pop\n      jump\t// out\n        /* \"#utility.yul\":1881:1999   */\n    tag_140:\n        /* \"#utility.yul\":1968:1992   */\n      tag_142\n        /* \"#utility.yul\":1986:1991   */\n      dup2\n        /* \"#utility.yul\":1968:1992   */\n      tag_143\n      jump\t// in\n    tag_142:\n        /* \"#utility.yul\":1963:1966   */\n      dup3\n        /* \"#utility.yul\":1956:1993   */\n      mstore\n        /* \"#utility.yul\":1881:1999   */\n      pop\n      pop\n      jump\t// out\n        /* \"#utility.yul\":2005:2114   */\n    tag_144:\n        /* \"#utility.yul\":2086:2107   */\n      tag_146\n        /* \"#utility.yul\":2101:2106   */\n      dup2\n        /* \"#utility.yul\":2086:2107   */\n      tag_147\n      jump\t// in\n    tag_146:\n        /* \"#utility.yul\":2081:2084   */\n      dup3\n        /* \"#utility.yul\":2074:2108   */\n      mstore\n        /* \"#utility.yul\":2005:2114   */\n      pop\n      pop\n      jump\t// out\n        /* \"#utility.yul\":2120:2273   */\n    tag_148:\n        /* \"#utility.yul\":2223:2266   */\n      tag_150\n        /* \"#utility.yul\":2242:2265   */\n      tag_151\n        /* \"#utility.yul\":2259:2264   */\n      dup3\n        /* \"#utility.yul\":2242:2265   */\n      tag_152\n      jump\t// in\n    tag_151:\n        /* \"#utility.yul\":2223:2266   */\n      tag_153\n      jump\t// in\n    tag_150:\n        /* \"#utility.yul\":2218:2221   */\n      dup3\n        /* \"#utility.yul\":2211:2267   */\n      mstore\n        /* \"#utility.yul\":2120:2273   */\n      pop\n      pop\n      jump\t// out\n        /* \"#utility.yul\":2279:2394   */\n    tag_154:\n        /* \"#utility.yul\":2364:2387   */\n      tag_156\n        /* \"#utility.yul\":2381:2386   */\n      dup2\n        /* \"#utility.yul\":2364:2387   */\n      tag_157\n      jump\t// in\n    tag_156:\n        /* \"#utility.yul\":2359:2362   */\n      dup3\n        /* \"#utility.yul\":2352:2388   */\n      mstore\n        /* \"#utility.yul\":2279:2394   */\n      pop\n      pop\n      jump\t// out\n        /* \"#utility.yul\":2400:2760   */\n    tag_158:\n        /* \"#utility.yul\":2486:2489   */\n      0x00\n        /* \"#utility.yul\":2514:2552   */\n      tag_160\n        /* \"#utility.yul\":2546:2551   */\n      dup3\n        /* \"#utility.yul\":2514:2552   */\n      tag_161\n      jump\t// in\n    tag_160:\n        /* \"#utility.yul\":2568:2638   */\n      tag_162\n        /* \"#utility.yul\":2631:2637   */\n      dup2\n        /* \"#utility.yul\":2626:2629   */\n      dup6\n        /* \"#utility.yul\":2568:2638   */\n      tag_163\n      jump\t// in\n    tag_162:\n        /* \"#utility.yul\":2561:2638   */\n      swap4\n      pop\n        /* \"#utility.yul\":2647:2699   */\n      tag_164\n        /* \"#utility.yul\":2692:2698   */\n      dup2\n        /* \"#utility.yul\":2687:2690   */\n      dup6\n        /* \"#utility.yul\":2680:2684   */\n      0x20\n        /* \"#utility.yul\":2673:2678   */\n      dup7\n        /* \"#utility.yul\":2669:2685   */\n      add\n        /* \"#utility.yul\":2647:2699   */\n      tag_165\n      jump\t// in\n    tag_164:\n        /* \"#utility.yul\":2724:2753   */\n      tag_166\n        /* \"#utility.yul\":2746:2752   */\n      dup2\n        /* \"#utility.yul\":2724:2753   */\n      tag_167\n      jump\t// in\n    tag_166:\n        /* \"#utility.yul\":2719:2722   */\n      dup5\n        /* \"#utility.yul\":2715:2754   */\n      add\n        /* \"#utility.yul\":2708:2754   */\n      swap2\n      pop\n        /* \"#utility.yul\":2490:2760   */\n      pop\n        /* \"#utility.yul\":2400:2760   */\n      swap3\n      swap2\n      pop\n      pop\n      jump\t// out\n        /* \"#utility.yul\":2766:3139   */\n    tag_168:\n        /* \"#utility.yul\":2870:2873   */\n      0x00\n        /* \"#utility.yul\":2898:2936   */\n      tag_170\n        /* \"#utility.yul\":2930:2935   */\n      dup3\n        /* \"#utility.yul\":2898:2936   */\n      tag_161\n      jump\t// in\n    tag_170:\n        /* \"#utility.yul\":2952:3040   */\n      tag_171\n        /* \"#utility.yul\":3033:3039   */\n      dup2\n        /* \"#utility.yul\":3028:3031   */\n      dup6\n        /* \"#utility.yul\":2952:3040   */\n      tag_172\n      jump\t// in\n    tag_171:\n        /* \"#utility.yul\":2945:3040   */\n      swap4\n      pop\n        /* \"#utility.yul\":3049:3101   */\n      tag_173\n        /* \"#utility.yul\":3094:3100   */\n      dup2\n        /* \"#utility.yul\":3089:3092   */\n      dup6\n        /* \"#utility.yul\":3082:3086   */\n      0x20\n        /* \"#utility.yul\":3075:3080   */\n      dup7\n        /* \"#utility.yul\":3071:3087   */\n      add\n        /* \"#utility.yul\":3049:3101   */\n      tag_165\n      jump\t// in\n    tag_173:\n        /* \"#utility.yul\":3126:3132   */\n      dup1\n        /* \"#utility.yul\":3121:3124   */\n      dup5\n        /* \"#utility.yul\":3117:3133   */\n      add\n        /* \"#utility.yul\":3110:3133   */\n      swap2\n      pop\n        /* \"#utility.yul\":2874:3139   */\n      pop\n        /* \"#utility.yul\":2766:3139   */\n      swap3\n      swap2\n      pop\n      pop\n      jump\t// out\n        /* \"#utility.yul\":3145:3292   */\n    tag_174:\n        /* \"#utility.yul\":3240:3285   */\n      tag_176\n        /* \"#utility.yul\":3279:3284   */\n      dup2\n        /* \"#utility.yul\":3240:3285   */\n      tag_177\n      jump\t// in\n    tag_176:\n        /* \"#utility.yul\":3235:3238   */\n      dup3\n        /* \"#utility.yul\":3228:3286   */\n      mstore\n        /* \"#utility.yul\":3145:3292   */\n      pop\n      pop\n      jump\t// out\n        /* \"#utility.yul\":3298:3662   */\n    tag_178:\n        /* \"#utility.yul\":3386:3389   */\n      0x00\n        /* \"#utility.yul\":3414:3453   */\n      tag_180\n        /* \"#utility.yul\":3447:3452   */\n      dup3\n        /* \"#utility.yul\":3414:3453   */\n      tag_181\n      jump\t// in\n    tag_180:\n        /* \"#utility.yul\":3469:3540   */\n      tag_182\n        /* \"#utility.yul\":3533:3539   */\n      dup2\n        /* \"#utility.yul\":3528:3531   */\n      dup6\n        /* \"#utility.yul\":3469:3540   */\n      tag_183\n      jump\t// in\n    tag_182:\n        /* \"#utility.yul\":3462:3540   */\n      swap4\n      pop\n        /* \"#utility.yul\":3549:3601   */\n      tag_184\n        /* \"#utility.yul\":3594:3600   */\n      dup2\n        /* \"#utility.yul\":3589:3592   */\n      dup6\n        /* \"#utility.yul\":3582:3586   */\n      0x20\n        /* \"#utility.yul\":3575:3580   */\n      dup7\n        /* \"#utility.yul\":3571:3587   */\n      add\n        /* \"#utility.yul\":3549:3601   */\n      tag_165\n      jump\t// in\n    tag_184:\n        /* \"#utility.yul\":3626:3655   */\n      tag_185\n        /* \"#utility.yul\":3648:3654   */\n      dup2\n        /* \"#utility.yul\":3626:3655   */\n      tag_167\n      jump\t// in\n    tag_185:\n        /* \"#utility.yul\":3621:3624   */\n      dup5\n        /* \"#utility.yul\":3617:3656   */\n      add\n        /* \"#utility.yul\":3610:3656   */\n      swap2\n      pop\n        /* \"#utility.yul\":3390:3662   */\n      pop\n        /* \"#utility.yul\":3298:3662   */\n      swap3\n      swap2\n      pop\n      pop\n      jump\t// out\n        /* \"#utility.yul\":3668:3786   */\n    tag_186:\n        /* \"#utility.yul\":3755:3779   */\n      tag_188\n        /* \"#utility.yul\":3773:3778   */\n      dup2\n        /* \"#utility.yul\":3755:3779   */\n      tag_189\n      jump\t// in\n    tag_188:\n        /* \"#utility.yul\":3750:3753   */\n      dup3\n        /* \"#utility.yul\":3743:3780   */\n      mstore\n        /* \"#utility.yul\":3668:3786   */\n      pop\n      pop\n      jump\t// out\n        /* \"#utility.yul\":3792:4451   */\n    tag_105:\n        /* \"#utility.yul\":3980:3983   */\n      0x00\n        /* \"#utility.yul\":3995:4068   */\n      tag_191\n        /* \"#utility.yul\":4064:4067   */\n      dup3\n        /* \"#utility.yul\":4055:4061   */\n      dup8\n        /* \"#utility.yul\":3995:4068   */\n      tag_148\n      jump\t// in\n    tag_191:\n        /* \"#utility.yul\":4093:4094   */\n      0x01\n        /* \"#utility.yul\":4088:4091   */\n      dup3\n        /* \"#utility.yul\":4084:4095   */\n      add\n        /* \"#utility.yul\":4077:4095   */\n      swap2\n      pop\n        /* \"#utility.yul\":4105:4178   */\n      tag_192\n        /* \"#utility.yul\":4174:4177   */\n      dup3\n        /* \"#utility.yul\":4165:4171   */\n      dup7\n        /* \"#utility.yul\":4105:4178   */\n      tag_148\n      jump\t// in\n    tag_192:\n        /* \"#utility.yul\":4203:4204   */\n      0x01\n        /* \"#utility.yul\":4198:4201   */\n      dup3\n        /* \"#utility.yul\":4194:4205   */\n      add\n        /* \"#utility.yul\":4187:4205   */\n      swap2\n      pop\n        /* \"#utility.yul\":4215:4288   */\n      tag_193\n        /* \"#utility.yul\":4284:4287   */\n      dup3\n        /* \"#utility.yul\":4275:4281   */\n      dup6\n        /* \"#utility.yul\":4215:4288   */\n      tag_148\n      jump\t// in\n    tag_193:\n        /* \"#utility.yul\":4313:4314   */\n      0x01\n        /* \"#utility.yul\":4308:4311   */\n      dup3\n        /* \"#utility.yul\":4304:4315   */\n      add\n        /* \"#utility.yul\":4297:4315   */\n      swap2\n      pop\n        /* \"#utility.yul\":4325:4398   */\n      tag_194\n        /* \"#utility.yul\":4394:4397   */\n      dup3\n        /* \"#utility.yul\":4385:4391   */\n      dup5\n        /* \"#utility.yul\":4325:4398   */\n      tag_148\n      jump\t// in\n    tag_194:\n        /* \"#utility.yul\":4423:4424   */\n      0x01\n        /* \"#utility.yul\":4418:4421   */\n      dup3\n        /* \"#utility.yul\":4414:4425   */\n      add\n        /* \"#utility.yul\":4407:4425   */\n      swap2\n      pop\n        /* \"#utility.yul\":4442:4445   */\n      dup2\n        /* \"#utility.yul\":4435:4445   */\n      swap1\n      pop\n        /* \"#utility.yul\":3792:4451   */\n      swap6\n      swap5\n      pop\n      pop\n      pop\n      pop\n      pop\n      jump\t// out\n        /* \"#utility.yul\":4457:4728   */\n    tag_78:\n        /* \"#utility.yul\":4587:4590   */\n      0x00\n        /* \"#utility.yul\":4609:4702   */\n      tag_196\n        /* \"#utility.yul\":4698:4701   */\n      dup3\n        /* \"#utility.yul\":4689:4695   */\n      dup5\n        /* \"#utility.yul\":4609:4702   */\n      tag_168\n      jump\t// in\n    tag_196:\n        /* \"#utility.yul\":4602:4702   */\n      swap2\n      pop\n        /* \"#utility.yul\":4719:4722   */\n      dup2\n        /* \"#utility.yul\":4712:4722   */\n      swap1\n      pop\n        /* \"#utility.yul\":4457:4728   */\n      swap3\n      swap2\n      pop\n      pop\n      jump\t// out\n        /* \"#utility.yul\":4734:4956   */\n    tag_47:\n        /* \"#utility.yul\":4827:4831   */\n      0x00\n        /* \"#utility.yul\":4865:4867   */\n      0x20\n        /* \"#utility.yul\":4854:4863   */\n      dup3\n        /* \"#utility.yul\":4850:4868   */\n      add\n        /* \"#utility.yul\":4842:4868   */\n      swap1\n      pop\n        /* \"#utility.yul\":4878:4949   */\n      tag_198\n        /* \"#utility.yul\":4946:4947   */\n      0x00\n        /* \"#utility.yul\":4935:4944   */\n      dup4\n        /* \"#utility.yul\":4931:4948   */\n      add\n        /* \"#utility.yul\":4922:4928   */\n      dup5\n        /* \"#utility.yul\":4878:4949   */\n      tag_140\n      jump\t// in\n    tag_198:\n        /* \"#utility.yul\":4734:4956   */\n      swap3\n      swap2\n      pop\n      pop\n      jump\t// out\n        /* \"#utility.yul\":4962:5310   */\n    tag_66:\n        /* \"#utility.yul\":5091:5095   */\n      0x00\n        /* \"#utility.yul\":5129:5131   */\n      0x40\n        /* \"#utility.yul\":5118:5127   */\n      dup3\n        /* \"#utility.yul\":5114:5132   */\n      add\n        /* \"#utility.yul\":5106:5132   */\n      swap1\n      pop\n        /* \"#utility.yul\":5142:5213   */\n      tag_200\n        /* \"#utility.yul\":5210:5211   */\n      0x00\n        /* \"#utility.yul\":5199:5208   */\n      dup4\n        /* \"#utility.yul\":5195:5212   */\n      add\n        /* \"#utility.yul\":5186:5192   */\n      dup6\n        /* \"#utility.yul\":5142:5213   */\n      tag_140\n      jump\t// in\n    tag_200:\n        /* \"#utility.yul\":5223:5303   */\n      tag_201\n        /* \"#utility.yul\":5299:5301   */\n      0x20\n        /* \"#utility.yul\":5288:5297   */\n      dup4\n        /* \"#utility.yul\":5284:5302   */\n      add\n        /* \"#utility.yul\":5275:5281   */\n      dup5\n        /* \"#utility.yul\":5223:5303   */\n      tag_174\n      jump\t// in\n    tag_201:\n        /* \"#utility.yul\":4962:5310   */\n      swap4\n      swap3\n      pop\n      pop\n      pop\n      jump\t// out\n        /* \"#utility.yul\":5316:5648   */\n    tag_71:\n        /* \"#utility.yul\":5437:5441   */\n      0x00\n        /* \"#utility.yul\":5475:5477   */\n      0x40\n        /* \"#utility.yul\":5464:5473   */\n      dup3\n        /* \"#utility.yul\":5460:5478   */\n      add\n        /* \"#utility.yul\":5452:5478   */\n      swap1\n      pop\n        /* \"#utility.yul\":5488:5559   */\n      tag_203\n        /* \"#utility.yul\":5556:5557   */\n      0x00\n        /* \"#utility.yul\":5545:5554   */\n      dup4\n        /* \"#utility.yul\":5541:5558   */\n      add\n        /* \"#utility.yul\":5532:5538   */\n      dup6\n        /* \"#utility.yul\":5488:5559   */\n      tag_140\n      jump\t// in\n    tag_203:\n        /* \"#utility.yul\":5569:5641   */\n      tag_204\n        /* \"#utility.yul\":5637:5639   */\n      0x20\n        /* \"#utility.yul\":5626:5635   */\n      dup4\n        /* \"#utility.yul\":5622:5640   */\n      add\n        /* \"#utility.yul\":5613:5619   */\n      dup5\n        /* \"#utility.yul\":5569:5641   */\n      tag_186\n      jump\t// in\n    tag_204:\n        /* \"#utility.yul\":5316:5648   */\n      swap4\n      swap3\n      pop\n      pop\n      pop\n      jump\t// out\n        /* \"#utility.yul\":5654:5872   */\n    tag_23:\n        /* \"#utility.yul\":5745:5749   */\n      0x00\n        /* \"#utility.yul\":5783:5785   */\n      0x20\n        /* \"#utility.yul\":5772:5781   */\n      dup3\n        /* \"#utility.yul\":5768:5786   */\n      add\n        /* \"#utility.yul\":5760:5786   */\n      swap1\n      pop\n        /* \"#utility.yul\":5796:5865   */\n      tag_206\n        /* \"#utility.yul\":5862:5863   */\n      0x00\n        /* \"#utility.yul\":5851:5860   */\n      dup4\n        /* \"#utility.yul\":5847:5864   */\n      add\n        /* \"#utility.yul\":5838:5844   */\n      dup5\n        /* \"#utility.yul\":5796:5865   */\n      tag_154\n      jump\t// in\n    tag_206:\n        /* \"#utility.yul\":5654:5872   */\n      swap3\n      swap2\n      pop\n      pop\n      jump\t// out\n        /* \"#utility.yul\":5878:6194   */\n    tag_40:\n        /* \"#utility.yul\":5991:5995   */\n      0x00\n        /* \"#utility.yul\":6029:6031   */\n      0x40\n        /* \"#utility.yul\":6018:6027   */\n      dup3\n        /* \"#utility.yul\":6014:6032   */\n      add\n        /* \"#utility.yul\":6006:6032   */\n      swap1\n      pop\n        /* \"#utility.yul\":6042:6111   */\n      tag_208\n        /* \"#utility.yul\":6108:6109   */\n      0x00\n        /* \"#utility.yul\":6097:6106   */\n      dup4\n        /* \"#utility.yul\":6093:6110   */\n      add\n        /* \"#utility.yul\":6084:6090   */\n      dup6\n        /* \"#utility.yul\":6042:6111   */\n      tag_154\n      jump\t// in\n    tag_208:\n        /* \"#utility.yul\":6121:6187   */\n      tag_209\n        /* \"#utility.yul\":6183:6185   */\n      0x20\n        /* \"#utility.yul\":6172:6181   */\n      dup4\n        /* \"#utility.yul\":6168:6186   */\n      add\n        /* \"#utility.yul\":6159:6165   */\n      dup5\n        /* \"#utility.yul\":6121:6187   */\n      tag_144\n      jump\t// in\n    tag_209:\n        /* \"#utility.yul\":5878:6194   */\n      swap4\n      swap3\n      pop\n      pop\n      pop\n      jump\t// out\n        /* \"#utility.yul\":6200:6509   */\n    tag_19:\n        /* \"#utility.yul\":6311:6315   */\n      0x00\n        /* \"#utility.yul\":6349:6351   */\n      0x20\n        /* \"#utility.yul\":6338:6347   */\n      dup3\n        /* \"#utility.yul\":6334:6352   */\n      add\n        /* \"#utility.yul\":6326:6352   */\n      swap1\n      pop\n        /* \"#utility.yul\":6398:6407   */\n      dup2\n        /* \"#utility.yul\":6392:6396   */\n      dup2\n        /* \"#utility.yul\":6388:6408   */\n      sub\n        /* \"#utility.yul\":6384:6385   */\n      0x00\n        /* \"#utility.yul\":6373:6382   */\n      dup4\n        /* \"#utility.yul\":6369:6386   */\n      add\n        /* \"#utility.yul\":6362:6409   */\n      mstore\n        /* \"#utility.yul\":6426:6502   */\n      tag_211\n        /* \"#utility.yul\":6497:6501   */\n      dup2\n        /* \"#utility.yul\":6488:6494   */\n      dup5\n        /* \"#utility.yul\":6426:6502   */\n      tag_158\n      jump\t// in\n    tag_211:\n        /* \"#utility.yul\":6418:6502   */\n      swap1\n      pop\n        /* \"#utility.yul\":6200:6509   */\n      swap3\n      swap2\n      pop\n      pop\n      jump\t// out\n        /* \"#utility.yul\":6515:6828   */\n    tag_32:\n        /* \"#utility.yul\":6628:6632   */\n      0x00\n        /* \"#utility.yul\":6666:6668   */\n      0x20\n        /* \"#utility.yul\":6655:6664   */\n      dup3\n        /* \"#utility.yul\":6651:6669   */\n      add\n        /* \"#utility.yul\":6643:6669   */\n      swap1\n      pop\n        /* \"#utility.yul\":6715:6724   */\n      dup2\n        /* \"#utility.yul\":6709:6713   */\n      dup2\n        /* \"#utility.yul\":6705:6725   */\n      sub\n        /* \"#utility.yul\":6701:6702   */\n      0x00\n        /* \"#utility.yul\":6690:6699   */\n      dup4\n        /* \"#utility.yul\":6686:6703   */\n      add\n        /* \"#utility.yul\":6679:6726   */\n      mstore\n        /* \"#utility.yul\":6743:6821   */\n      tag_213\n        /* \"#utility.yul\":6816:6820   */\n      dup2\n        /* \"#utility.yul\":6807:6813   */\n      dup5\n        /* \"#utility.yul\":6743:6821   */\n      tag_178\n      jump\t// in\n    tag_213:\n        /* \"#utility.yul\":6735:6821   */\n      swap1\n      pop\n        /* \"#utility.yul\":6515:6828   */\n      swap3\n      swap2\n      pop\n      pop\n      jump\t// out\n        /* \"#utility.yul\":6834:7056   */\n    tag_55:\n        /* \"#utility.yul\":6927:6931   */\n      0x00\n        /* \"#utility.yul\":6965:6967   */\n      0x20\n        /* \"#utility.yul\":6954:6963   */\n      dup3\n        /* \"#utility.yul\":6950:6968   */\n      add\n        /* \"#utility.yul\":6942:6968   */\n      swap1\n      pop\n        /* \"#utility.yul\":6978:7049   */\n      tag_215\n        /* \"#utility.yul\":7046:7047   */\n      0x00\n        /* \"#utility.yul\":7035:7044   */\n      dup4\n        /* \"#utility.yul\":7031:7048   */\n      add\n        /* \"#utility.yul\":7022:7028   */\n      dup5\n        /* \"#utility.yul\":6978:7049   */\n      tag_186\n      jump\t// in\n    tag_215:\n        /* \"#utility.yul\":6834:7056   */\n      swap3\n      swap2\n      pop\n      pop\n      jump\t// out\n        /* \"#utility.yul\":7143:7259   */\n    tag_218:\n        /* \"#utility.yul\":7194:7198   */\n      0x00\n        /* \"#utility.yul\":7217:7220   */\n      dup2\n        /* \"#utility.yul\":7209:7220   */\n      swap1\n      pop\n        /* \"#utility.yul\":7247:7251   */\n      0x20\n        /* \"#utility.yul\":7242:7245   */\n      dup3\n        /* \"#utility.yul\":7238:7252   */\n      add\n        /* \"#utility.yul\":7230:7252   */\n      swap1\n      pop\n        /* \"#utility.yul\":7143:7259   */\n      swap2\n      swap1\n      pop\n      jump\t// out\n        /* \"#utility.yul\":7265:7363   */\n    tag_161:\n        /* \"#utility.yul\":7316:7322   */\n      0x00\n        /* \"#utility.yul\":7350:7355   */\n      dup2\n        /* \"#utility.yul\":7344:7356   */\n      mload\n        /* \"#utility.yul\":7334:7356   */\n      swap1\n      pop\n        /* \"#utility.yul\":7265:7363   */\n      swap2\n      swap1\n      pop\n      jump\t// out\n        /* \"#utility.yul\":7369:7468   */\n    tag_181:\n        /* \"#utility.yul\":7421:7427   */\n      0x00\n        /* \"#utility.yul\":7455:7460   */\n      dup2\n        /* \"#utility.yul\":7449:7461   */\n      mload\n        /* \"#utility.yul\":7439:7461   */\n      swap1\n      pop\n        /* \"#utility.yul\":7369:7468   */\n      swap2\n      swap1\n      pop\n      jump\t// out\n        /* \"#utility.yul\":7474:7642   */\n    tag_163:\n        /* \"#utility.yul\":7557:7568   */\n      0x00\n        /* \"#utility.yul\":7591:7597   */\n      dup3\n        /* \"#utility.yul\":7586:7589   */\n      dup3\n        /* \"#utility.yul\":7579:7598   */\n      mstore\n        /* \"#utility.yul\":7631:7635   */\n      0x20\n        /* \"#utility.yul\":7626:7629   */\n      dup3\n        /* \"#utility.yul\":7622:7636   */\n      add\n        /* \"#utility.yul\":7607:7636   */\n      swap1\n      pop\n        /* \"#utility.yul\":7474:7642   */\n      swap3\n      swap2\n      pop\n      pop\n      jump\t// out\n        /* \"#utility.yul\":7648:7795   */\n    tag_172:\n        /* \"#utility.yul\":7749:7760   */\n      0x00\n        /* \"#utility.yul\":7786:7789   */\n      dup2\n        /* \"#utility.yul\":7771:7789   */\n      swap1\n      pop\n        /* \"#utility.yul\":7648:7795   */\n      swap3\n      swap2\n      pop\n      pop\n      jump\t// out\n        /* \"#utility.yul\":7801:7970   */\n    tag_183:\n        /* \"#utility.yul\":7885:7896   */\n      0x00\n        /* \"#utility.yul\":7919:7925   */\n      dup3\n        /* \"#utility.yul\":7914:7917   */\n      dup3\n        /* \"#utility.yul\":7907:7926   */\n      mstore\n        /* \"#utility.yul\":7959:7963   */\n      0x20\n        /* \"#utility.yul\":7954:7957   */\n      dup3\n        /* \"#utility.yul\":7950:7964   */\n      add\n        /* \"#utility.yul\":7935:7964   */\n      swap1\n      pop\n        /* \"#utility.yul\":7801:7970   */\n      swap3\n      swap2\n      pop\n      pop\n      jump\t// out\n        /* \"#utility.yul\":7976:8072   */\n    tag_143:\n        /* \"#utility.yul\":8013:8020   */\n      0x00\n        /* \"#utility.yul\":8042:8066   */\n      tag_226\n        /* \"#utility.yul\":8060:8065   */\n      dup3\n        /* \"#utility.yul\":8042:8066   */\n      tag_227\n      jump\t// in\n    tag_226:\n        /* \"#utility.yul\":8031:8066   */\n      swap1\n      pop\n        /* \"#utility.yul\":7976:8072   */\n      swap2\n      swap1\n      pop\n      jump\t// out\n        /* \"#utility.yul\":8078:8168   */\n    tag_147:\n        /* \"#utility.yul\":8112:8119   */\n      0x00\n        /* \"#utility.yul\":8155:8160   */\n      dup2\n        /* \"#utility.yul\":8148:8161   */\n      iszero\n        /* \"#utility.yul\":8141:8162   */\n      iszero\n        /* \"#utility.yul\":8130:8162   */\n      swap1\n      pop\n        /* \"#utility.yul\":8078:8168   */\n      swap2\n      swap1\n      pop\n      jump\t// out\n        /* \"#utility.yul\":8174:8323   */\n    tag_152:\n        /* \"#utility.yul\":8210:8217   */\n      0x00\n        /* \"#utility.yul\":8250:8316   */\n      0xff00000000000000000000000000000000000000000000000000000000000000\n        /* \"#utility.yul\":8243:8248   */\n      dup3\n        /* \"#utility.yul\":8239:8317   */\n      and\n        /* \"#utility.yul\":8228:8317   */\n      swap1\n      pop\n        /* \"#utility.yul\":8174:8323   */\n      swap2\n      swap1\n      pop\n      jump\t// out\n        /* \"#utility.yul\":8329:8478   */\n    tag_157:\n        /* \"#utility.yul\":8365:8372   */\n      0x00\n        /* \"#utility.yul\":8405:8471   */\n      0xffffffff00000000000000000000000000000000000000000000000000000000\n        /* \"#utility.yul\":8398:8403   */\n      dup3\n        /* \"#utility.yul\":8394:8472   */\n      and\n        /* \"#utility.yul\":8383:8472   */\n      swap1\n      pop\n        /* \"#utility.yul\":8329:8478   */\n      swap2\n      swap1\n      pop\n      jump\t// out\n        /* \"#utility.yul\":8484:8610   */\n    tag_227:\n        /* \"#utility.yul\":8521:8528   */\n      0x00\n        /* \"#utility.yul\":8561:8603   */\n      0xffffffffffffffffffffffffffffffffffffffff\n        /* \"#utility.yul\":8554:8559   */\n      dup3\n        /* \"#utility.yul\":8550:8604   */\n      and\n        /* \"#utility.yul\":8539:8604   */\n      swap1\n      pop\n        /* \"#utility.yul\":8484:8610   */\n      swap2\n      swap1\n      pop\n      jump\t// out\n        /* \"#utility.yul\":8616:8693   */\n    tag_189:\n        /* \"#utility.yul\":8653:8660   */\n      0x00\n        /* \"#utility.yul\":8682:8687   */\n      dup2\n        /* \"#utility.yul\":8671:8687   */\n      swap1\n      pop\n        /* \"#utility.yul\":8616:8693   */\n      swap2\n      swap1\n      pop\n      jump\t// out\n        /* \"#utility.yul\":8699:8785   */\n    tag_233:\n        /* \"#utility.yul\":8734:8741   */\n      0x00\n        /* \"#utility.yul\":8774:8778   */\n      0xff\n        /* \"#utility.yul\":8767:8772   */\n      dup3\n        /* \"#utility.yul\":8763:8779   */\n      and\n        /* \"#utility.yul\":8752:8779   */\n      swap1\n      pop\n        /* \"#utility.yul\":8699:8785   */\n      swap2\n      swap1\n      pop\n      jump\t// out\n        /* \"#utility.yul\":8791:9381   */\n    tag_83:\n        /* \"#utility.yul\":8874:8879   */\n      0x00\n        /* \"#utility.yul\":8905:8943   */\n      tag_236\n        /* \"#utility.yul\":8937:8942   */\n      dup3\n        /* \"#utility.yul\":8905:8943   */\n      tag_161\n      jump\t// in\n    tag_236:\n        /* \"#utility.yul\":8968:8973   */\n      dup3\n        /* \"#utility.yul\":8995:9035   */\n      tag_237\n        /* \"#utility.yul\":9029:9034   */\n      dup5\n        /* \"#utility.yul\":8995:9035   */\n      tag_218\n      jump\t// in\n    tag_237:\n        /* \"#utility.yul\":8983:9035   */\n      swap1\n      pop\n        /* \"#utility.yul\":9054:9088   */\n      tag_238\n        /* \"#utility.yul\":9079:9087   */\n      dup2\n        /* \"#utility.yul\":9054:9088   */\n      tag_239\n      jump\t// in\n    tag_238:\n        /* \"#utility.yul\":9045:9088   */\n      swap3\n      pop\n        /* \"#utility.yul\":9112:9113   */\n      0x04\n        /* \"#utility.yul\":9104:9110   */\n      dup3\n        /* \"#utility.yul\":9101:9114   */\n      lt\n        /* \"#utility.yul\":9098:9374   */\n      iszero\n      tag_240\n      jumpi\n        /* \"#utility.yul\":9182:9350   */\n      tag_241\n        /* \"#utility.yul\":9266:9332   */\n      0xffffffff00000000000000000000000000000000000000000000000000000000\n        /* \"#utility.yul\":9236:9242   */\n      dup4\n        /* \"#utility.yul\":9233:9234   */\n      0x04\n        /* \"#utility.yul\":9229:9243   */\n      sub\n        /* \"#utility.yul\":9226:9227   */\n      0x08\n        /* \"#utility.yul\":9222:9244   */\n      mul\n        /* \"#utility.yul\":9182:9350   */\n      tag_242\n      jump\t// in\n    tag_241:\n        /* \"#utility.yul\":9159:9164   */\n      dup4\n        /* \"#utility.yul\":9138:9364   */\n      and\n        /* \"#utility.yul\":9129:9364   */\n      swap3\n      pop\n        /* \"#utility.yul\":9098:9374   */\n    tag_240:\n        /* \"#utility.yul\":8880:9381   */\n      pop\n      pop\n        /* \"#utility.yul\":8791:9381   */\n      swap2\n      swap1\n      pop\n      jump\t// out\n        /* \"#utility.yul\":9387:9506   */\n    tag_177:\n        /* \"#utility.yul\":9445:9454   */\n      0x00\n        /* \"#utility.yul\":9478:9500   */\n      tag_244\n        /* \"#utility.yul\":9494:9499   */\n      dup3\n        /* \"#utility.yul\":9478:9500   */\n      tag_233\n      jump\t// in\n    tag_244:\n        /* \"#utility.yul\":9465:9500   */\n      swap1\n      pop\n        /* \"#utility.yul\":9387:9506   */\n      swap2\n      swap1\n      pop\n      jump\t// out\n        /* \"#utility.yul\":9512:9819   */\n    tag_165:\n        /* \"#utility.yul\":9580:9581   */\n      0x00\n        /* \"#utility.yul\":9590:9703   */\n    tag_246:\n        /* \"#utility.yul\":9604:9610   */\n      dup4\n        /* \"#utility.yul\":9601:9602   */\n      dup2\n        /* \"#utility.yul\":9598:9611   */\n      lt\n        /* \"#utility.yul\":9590:9703   */\n      iszero\n      tag_248\n      jumpi\n        /* \"#utility.yul\":9689:9690   */\n      dup1\n        /* \"#utility.yul\":9684:9687   */\n      dup3\n        /* \"#utility.yul\":9680:9691   */\n      add\n        /* \"#utility.yul\":9674:9692   */\n      mload\n        /* \"#utility.yul\":9670:9671   */\n      dup2\n        /* \"#utility.yul\":9665:9668   */\n      dup5\n        /* \"#utility.yul\":9661:9672   */\n      add\n        /* \"#utility.yul\":9654:9693   */\n      mstore\n        /* \"#utility.yul\":9626:9628   */\n      0x20\n        /* \"#utility.yul\":9623:9624   */\n      dup2\n        /* \"#utility.yul\":9619:9629   */\n      add\n        /* \"#utility.yul\":9614:9629   */\n      swap1\n      pop\n        /* \"#utility.yul\":9590:9703   */\n      jump(tag_246)\n    tag_248:\n        /* \"#utility.yul\":9721:9727   */\n      dup4\n        /* \"#utility.yul\":9718:9719   */\n      dup2\n        /* \"#utility.yul\":9715:9728   */\n      gt\n        /* \"#utility.yul\":9712:9813   */\n      iszero\n      tag_249\n      jumpi\n        /* \"#utility.yul\":9801:9802   */\n      0x00\n        /* \"#utility.yul\":9792:9798   */\n      dup5\n        /* \"#utility.yul\":9787:9790   */\n      dup5\n        /* \"#utility.yul\":9783:9799   */\n      add\n        /* \"#utility.yul\":9776:9803   */\n      mstore\n        /* \"#utility.yul\":9712:9813   */\n    tag_249:\n        /* \"#utility.yul\":9561:9819   */\n      pop\n        /* \"#utility.yul\":9512:9819   */\n      pop\n      pop\n      pop\n      jump\t// out\n        /* \"#utility.yul\":9825:9903   */\n    tag_153:\n        /* \"#utility.yul\":9863:9870   */\n      0x00\n        /* \"#utility.yul\":9892:9897   */\n      dup2\n        /* \"#utility.yul\":9881:9897   */\n      swap1\n      pop\n        /* \"#utility.yul\":9825:9903   */\n      swap2\n      swap1\n      pop\n      jump\t// out\n        /* \"#utility.yul\":9909:10089   */\n    tag_97:\n        /* \"#utility.yul\":9957:10034   */\n      0x4e487b7100000000000000000000000000000000000000000000000000000000\n        /* \"#utility.yul\":9954:9955   */\n      0x00\n        /* \"#utility.yul\":9947:10035   */\n      mstore\n        /* \"#utility.yul\":10054:10058   */\n      0x32\n        /* \"#utility.yul\":10051:10052   */\n      0x04\n        /* \"#utility.yul\":10044:10059   */\n      mstore\n        /* \"#utility.yul\":10078:10082   */\n      0x24\n        /* \"#utility.yul\":10075:10076   */\n      0x00\n        /* \"#utility.yul\":10068:10083   */\n      revert\n        /* \"#utility.yul\":10095:10247   */\n    tag_239:\n        /* \"#utility.yul\":10137:10148   */\n      0x00\n        /* \"#utility.yul\":10173:10201   */\n      tag_253\n        /* \"#utility.yul\":10196:10199   */\n      dup3\n        /* \"#utility.yul\":10190:10200   */\n      mload\n        /* \"#utility.yul\":10173:10201   */\n      tag_157\n      jump\t// in\n    tag_253:\n        /* \"#utility.yul\":10235:10240   */\n      dup1\n        /* \"#utility.yul\":10211:10240   */\n      swap2\n      pop\n        /* \"#utility.yul\":10149:10247   */\n      pop\n        /* \"#utility.yul\":10095:10247   */\n      swap2\n      swap1\n      pop\n      jump\t// out\n        /* \"#utility.yul\":10253:10370   */\n    tag_119:\n        /* \"#utility.yul\":10362:10363   */\n      0x00\n        /* \"#utility.yul\":10359:10360   */\n      dup1\n        /* \"#utility.yul\":10352:10364   */\n      revert\n        /* \"#utility.yul\":10376:10493   */\n    tag_116:\n        /* \"#utility.yul\":10485:10486   */\n      0x00\n        /* \"#utility.yul\":10482:10483   */\n      dup1\n        /* \"#utility.yul\":10475:10487   */\n      revert\n        /* \"#utility.yul\":10499:10616   */\n    tag_122:\n        /* \"#utility.yul\":10608:10609   */\n      0x00\n        /* \"#utility.yul\":10605:10606   */\n      dup1\n        /* \"#utility.yul\":10598:10610   */\n      revert\n        /* \"#utility.yul\":10622:10739   */\n    tag_138:\n        /* \"#utility.yul\":10731:10732   */\n      0x00\n        /* \"#utility.yul\":10728:10729   */\n      dup1\n        /* \"#utility.yul\":10721:10733   */\n      revert\n        /* \"#utility.yul\":10745:10862   */\n    tag_130:\n        /* \"#utility.yul\":10854:10855   */\n      0x00\n        /* \"#utility.yul\":10851:10852   */\n      dup1\n        /* \"#utility.yul\":10844:10856   */\n      revert\n        /* \"#utility.yul\":10868:10970   */\n    tag_167:\n        /* \"#utility.yul\":10909:10915   */\n      0x00\n        /* \"#utility.yul\":10960:10962   */\n      0x1f\n        /* \"#utility.yul\":10956:10963   */\n      not\n        /* \"#utility.yul\":10951:10953   */\n      0x1f\n        /* \"#utility.yul\":10944:10949   */\n      dup4\n        /* \"#utility.yul\":10940:10954   */\n      add\n        /* \"#utility.yul\":10936:10964   */\n      and\n        /* \"#utility.yul\":10926:10964   */\n      swap1\n      pop\n        /* \"#utility.yul\":10868:10970   */\n      swap2\n      swap1\n      pop\n      jump\t// out\n        /* \"#utility.yul\":10976:11083   */\n    tag_242:\n        /* \"#utility.yul\":11020:11028   */\n      0x00\n        /* \"#utility.yul\":11070:11075   */\n      dup3\n        /* \"#utility.yul\":11064:11068   */\n      dup3\n        /* \"#utility.yul\":11060:11076   */\n      shl\n        /* \"#utility.yul\":11039:11076   */\n      swap1\n      pop\n        /* \"#utility.yul\":10976:11083   */\n      swap3\n      swap2\n      pop\n      pop\n      jump\t// out\n        /* \"#utility.yul\":11089:11211   */\n    tag_111:\n        /* \"#utility.yul\":11162:11186   */\n      tag_262\n        /* \"#utility.yul\":11180:11185   */\n      dup2\n        /* \"#utility.yul\":11162:11186   */\n      tag_143\n      jump\t// in\n    tag_262:\n        /* \"#utility.yul\":11155:11160   */\n      dup2\n        /* \"#utility.yul\":11152:11187   */\n      eq\n        /* \"#utility.yul\":11142:11205   */\n      tag_263\n      jumpi\n        /* \"#utility.yul\":11201:11202   */\n      0x00\n        /* \"#utility.yul\":11198:11199   */\n      dup1\n        /* \"#utility.yul\":11191:11203   */\n      revert\n        /* \"#utility.yul\":11142:11205   */\n    tag_263:\n        /* \"#utility.yul\":11089:11211   */\n      pop\n      jump\t// out\n        /* \"#utility.yul\":11217:11339   */\n    tag_126:\n        /* \"#utility.yul\":11290:11314   */\n      tag_265\n        /* \"#utility.yul\":11308:11313   */\n      dup2\n        /* \"#utility.yul\":11290:11314   */\n      tag_189\n      jump\t// in\n    tag_265:\n        /* \"#utility.yul\":11283:11288   */\n      dup2\n        /* \"#utility.yul\":11280:11315   */\n      eq\n        /* \"#utility.yul\":11270:11333   */\n      tag_266\n      jumpi\n        /* \"#utility.yul\":11329:11330   */\n      0x00\n        /* \"#utility.yul\":11326:11327   */\n      dup1\n        /* \"#utility.yul\":11319:11331   */\n      revert\n        /* \"#utility.yul\":11270:11333   */\n    tag_266:\n        /* \"#utility.yul\":11217:11339   */\n      pop\n      jump\t// out\n\n    auxdata: 0xa264697066735822122066c9eaab34052f3b4bed7f8f560d249bae2badf8cb01429ac0878c371a40b52464736f6c63430008070033\n}\n",
				"bytecode": {
					"linkReferences": {},
					"object": "608060405234801561001057600080fd5b50610e0d806100206000396000f3fe608060405234801561001057600080fd5b50600436106100b45760003560e01c8063a9059cbb11610071578063a9059cbb14610192578063aad229d5146101ae578063b20d9446146101cc578063c6e93bad146101fd578063ce6eb7ff1461021b578063fbf6d5151461024b576100b4565b80630bf9aa4c146100b957806325435a56146100d75780637c0c5f23146100f5578063852d52fa146101255780639a41d3ad14610143578063a5694e4a14610161575b600080fd5b6100c1610269565b6040516100ce9190610b19565b60405180910390f35b6100df610301565b6040516100ec9190610ad5565b60405180910390f35b61010f600480360381019061010a9190610871565b610310565b60405161011c9190610b19565b60405180910390f35b61012d610392565b60405161013a9190610b3b565b60405180910390f35b61014b6103cf565b6040516101589190610ad5565b60405180910390f35b61017b60048036038101906101769190610871565b610413565b604051610189929190610af0565b60405180910390f35b6101ac60048036038101906101a79190610871565b610514565b005b6101b661055f565b6040516101c39190610a68565b60405180910390f35b6101e660048036038101906101e19190610871565b610583565b6040516101f4929190610af0565b60405180910390f35b61020561069c565b6040516102129190610b5d565b60405180910390f35b610235600480360381019061023091906108b1565b6106a2565b6040516102429190610ad5565b60405180910390f35b6102536106ae565b6040516102609190610ad5565b60405180910390f35b606030607b60405160240161027f929190610a83565b6040516020818303038152906040527fa9059cbb000000000000000000000000000000000000000000000000000000007bffffffffffffffffffffffffffffffffffffffffffffffffffffffff19166020820180517bffffffffffffffffffffffffffffffffffffffffffffffffffffffff8381831617835250505050905090565b600063a9059cbb60e01b905090565b606061031a6103cf565b838360405160240161032d929190610aac565b604051602081830303815290604052907bffffffffffffffffffffffffffffffffffffffffffffffffffffffff19166020820180517bffffffffffffffffffffffffffffffffffffffffffffffffffffffff8381831617835250505050905092915050565b60606040518060400160405280601981526020017f7472616e7366657228616464726573732c75696e743235362900000000000000815250905090565b60006040518060400160405280601981526020017f7472616e7366657228616464726573732c75696e74323536290000000000000081525080519060200120905090565b6000806000803073ffffffffffffffffffffffffffffffffffffffff166104386103cf565b878760405160240161044b929190610aac565b604051602081830303815290604052907bffffffffffffffffffffffffffffffffffffffffffffffffffffffff19166020820180517bffffffffffffffffffffffffffffffffffffffffffffffffffffffff83818316178352505050506040516104b59190610a51565b6000604051808303816000865af19150503d80600081146104f2576040519150601f19603f3d011682016040523d82523d6000602084013e6104f7565b606091505b50915091508061050690610c78565b829350935050509250929050565b816000806101000a81548173ffffffffffffffffffffffffffffffffffffffff021916908373ffffffffffffffffffffffffffffffffffffffff160217905550806001819055505050565b60008054906101000a900473ffffffffffffffffffffffffffffffffffffffff1681565b6000806000803073ffffffffffffffffffffffffffffffffffffffff1686866040516024016105b3929190610aac565b6040516020818303038152906040527fa9059cbb000000000000000000000000000000000000000000000000000000007bffffffffffffffffffffffffffffffffffffffffffffffffffffffff19166020820180517bffffffffffffffffffffffffffffffffffffffffffffffffffffffff838183161783525050505060405161063d9190610a51565b6000604051808303816000865af19150503d806000811461067a576040519150601f19603f3d011682016040523d82523d6000602084013e61067f565b606091505b50915091508061068e90610c78565b829350935050509250929050565b60015481565b60008235905092915050565b60008030607b6040516024016106c5929190610a83565b6040516020818303038152906040527fa9059cbb000000000000000000000000000000000000000000000000000000007bffffffffffffffffffffffffffffffffffffffffffffffffffffffff19166020820180517bffffffffffffffffffffffffffffffffffffffffffffffffffffffff838183161783525050505090508060008151811061075857610757610d2e565b5b602001015160f81c60f81b8160018151811061077757610776610d2e565b5b602001015160f81c60f81b8260028151811061079657610795610d2e565b5b602001015160f81c60f81b836003815181106107b5576107b4610d2e565b5b602001015160f81c60f81b6040516020016107d39493929190610a03565b6040516020818303038152906040526107eb90610c78565b91505090565b60008135905061080081610da9565b92915050565b60008083601f84011261081c5761081b610d77565b5b8235905067ffffffffffffffff81111561083957610838610d72565b5b60208301915083600182028301111561085557610854610d7c565b5b9250929050565b60008135905061086b81610dc0565b92915050565b6000806040838503121561088857610887610d86565b5b6000610896858286016107f1565b92505060206108a78582860161085c565b9150509250929050565b600080602083850312156108c8576108c7610d86565b5b600083013567ffffffffffffffff8111156108e6576108e5610d81565b5b6108f285828601610806565b92509250509250929050565b61090781610bcb565b82525050565b61091681610bdd565b82525050565b61092d61092882610be9565b610d24565b82525050565b61093c81610c15565b82525050565b600061094d82610b88565b6109578185610b9e565b9350610967818560208601610cf1565b61097081610d8b565b840191505092915050565b600061098682610b88565b6109908185610baf565b93506109a0818560208601610cf1565b80840191505092915050565b6109b581610cdf565b82525050565b60006109c682610b93565b6109d08185610bba565b93506109e0818560208601610cf1565b6109e981610d8b565b840191505092915050565b6109fd81610c61565b82525050565b6000610a0f828761091c565b600182019150610a1f828661091c565b600182019150610a2f828561091c565b600182019150610a3f828461091c565b60018201915081905095945050505050565b6000610a5d828461097b565b915081905092915050565b6000602082019050610a7d60008301846108fe565b92915050565b6000604082019050610a9860008301856108fe565b610aa560208301846109ac565b9392505050565b6000604082019050610ac160008301856108fe565b610ace60208301846109f4565b9392505050565b6000602082019050610aea6000830184610933565b92915050565b6000604082019050610b056000830185610933565b610b12602083018461090d565b9392505050565b60006020820190508181036000830152610b338184610942565b905092915050565b60006020820190508181036000830152610b5581846109bb565b905092915050565b6000602082019050610b7260008301846109f4565b92915050565b6000819050602082019050919050565b600081519050919050565b600081519050919050565b600082825260208201905092915050565b600081905092915050565b600082825260208201905092915050565b6000610bd682610c41565b9050919050565b60008115159050919050565b60007fff0000000000000000000000000000000000000000000000000000000000000082169050919050565b60007fffffffff0000000000000000000000000000000000000000000000000000000082169050919050565b600073ffffffffffffffffffffffffffffffffffffffff82169050919050565b6000819050919050565b600060ff82169050919050565b6000610c8382610b88565b82610c8d84610b78565b9050610c9881610d5d565b92506004821015610cd857610cd37fffffffff0000000000000000000000000000000000000000000000000000000083600403600802610d9c565b831692505b5050919050565b6000610cea82610c6b565b9050919050565b60005b83811015610d0f578082015181840152602081019050610cf4565b83811115610d1e576000848401525b50505050565b6000819050919050565b7f4e487b7100000000000000000000000000000000000000000000000000000000600052603260045260246000fd5b6000610d698251610c15565b80915050919050565b600080fd5b600080fd5b600080fd5b600080fd5b600080fd5b6000601f19601f8301169050919050565b600082821b905092915050565b610db281610bcb565b8114610dbd57600080fd5b50565b610dc981610c61565b8114610dd457600080fd5b5056fea264697066735822122066c9eaab34052f3b4bed7f8f560d249bae2badf8cb01429ac0878c371a40b52464736f6c63430008070033",
					"opcodes": "PUSH1 0x80 PUSH1 0x40 MSTORE CALLVALUE DUP1 ISZERO PUSH2 0x10 JUMPI PUSH1 0x0 DUP1 REVERT JUMPDEST POP PUSH2 0xE0D DUP1 PUSH2 0x20 PUSH1 0x0 CODECOPY PUSH1 0x0 RETURN INVALID PUSH1 0x80 PUSH1 0x40 MSTORE CALLVALUE DUP1 ISZERO PUSH2 0x10 JUMPI PUSH1 0x0 DUP1 REVERT JUMPDEST POP PUSH1 0x4 CALLDATASIZE LT PUSH2 0xB4 JUMPI PUSH1 0x0 CALLDATALOAD PUSH1 0xE0 SHR DUP1 PUSH4 0xA9059CBB GT PUSH2 0x71 JUMPI DUP1 PUSH4 0xA9059CBB EQ PUSH2 0x192 JUMPI DUP1 PUSH4 0xAAD229D5 EQ PUSH2 0x1AE JUMPI DUP1 PUSH4 0xB20D9446 EQ PUSH2 0x1CC JUMPI DUP1 PUSH4 0xC6E93BAD EQ PUSH2 0x1FD JUMPI DUP1 PUSH4 0xCE6EB7FF EQ PUSH2 0x21B JUMPI DUP1 PUSH4 0xFBF6D515 EQ PUSH2 0x24B JUMPI PUSH2 0xB4 JUMP JUMPDEST DUP1 PUSH4 0xBF9AA4C EQ PUSH2 0xB9 JUMPI DUP1 PUSH4 0x25435A56 EQ PUSH2 0xD7 JUMPI DUP1 PUSH4 0x7C0C5F23 EQ PUSH2 0xF5 JUMPI DUP1 PUSH4 0x852D52FA EQ PUSH2 0x125 JUMPI DUP1 PUSH4 0x9A41D3AD EQ PUSH2 0x143 JUMPI DUP1 PUSH4 0xA5694E4A EQ PUSH2 0x161 JUMPI JUMPDEST PUSH1 0x0 DUP1 REVERT JUMPDEST PUSH2 0xC1 PUSH2 0x269 JUMP JUMPDEST PUSH1 0x40 MLOAD PUSH2 0xCE SWAP2 SWAP1 PUSH2 0xB19 JUMP JUMPDEST PUSH1 0x40 MLOAD DUP1 SWAP2 SUB SWAP1 RETURN JUMPDEST PUSH2 0xDF PUSH2 0x301 JUMP JUMPDEST PUSH1 0x40 MLOAD PUSH2 0xEC SWAP2 SWAP1 PUSH2 0xAD5 JUMP JUMPDEST PUSH1 0x40 MLOAD DUP1 SWAP2 SUB SWAP1 RETURN JUMPDEST PUSH2 0x10F PUSH1 0x4 DUP1 CALLDATASIZE SUB DUP2 ADD SWAP1 PUSH2 0x10A SWAP2 SWAP1 PUSH2 0x871 JUMP JUMPDEST PUSH2 0x310 JUMP JUMPDEST PUSH1 0x40 MLOAD PUSH2 0x11C SWAP2 SWAP1 PUSH2 0xB19 JUMP JUMPDEST PUSH1 0x40 MLOAD DUP1 SWAP2 SUB SWAP1 RETURN JUMPDEST PUSH2 0x12D PUSH2 0x392 JUMP JUMPDEST PUSH1 0x40 MLOAD PUSH2 0x13A SWAP2 SWAP1 PUSH2 0xB3B JUMP JUMPDEST PUSH1 0x40 MLOAD DUP1 SWAP2 SUB SWAP1 RETURN JUMPDEST PUSH2 0x14B PUSH2 0x3CF JUMP JUMPDEST PUSH1 0x40 MLOAD PUSH2 0x158 SWAP2 SWAP1 PUSH2 0xAD5 JUMP JUMPDEST PUSH1 0x40 MLOAD DUP1 SWAP2 SUB SWAP1 RETURN JUMPDEST PUSH2 0x17B PUSH1 0x4 DUP1 CALLDATASIZE SUB DUP2 ADD SWAP1 PUSH2 0x176 SWAP2 SWAP1 PUSH2 0x871 JUMP JUMPDEST PUSH2 0x413 JUMP JUMPDEST PUSH1 0x40 MLOAD PUSH2 0x189 SWAP3 SWAP2 SWAP1 PUSH2 0xAF0 JUMP JUMPDEST PUSH1 0x40 MLOAD DUP1 SWAP2 SUB SWAP1 RETURN JUMPDEST PUSH2 0x1AC PUSH1 0x4 DUP1 CALLDATASIZE SUB DUP2 ADD SWAP1 PUSH2 0x1A7 SWAP2 SWAP1 PUSH2 0x871 JUMP JUMPDEST PUSH2 0x514 JUMP JUMPDEST STOP JUMPDEST PUSH2 0x1B6 PUSH2 0x55F JUMP JUMPDEST PUSH1 0x40 MLOAD PUSH2 0x1C3 SWAP2 SWAP1 PUSH2 0xA68 JUMP JUMPDEST PUSH1 0x40 MLOAD DUP1 SWAP2 SUB SWAP1 RETURN JUMPDEST PUSH2 0x1E6 PUSH1 0x4 DUP1 CALLDATASIZE SUB DUP2 ADD SWAP1 PUSH2 0x1E1 SWAP2 SWAP1 PUSH2 0x871 JUMP JUMPDEST PUSH2 0x583 JUMP JUMPDEST PUSH1 0x40 MLOAD PUSH2 0x1F4 SWAP3 SWAP2 SWAP1 PUSH2 0xAF0 JUMP JUMPDEST PUSH1 0x40 MLOAD DUP1 SWAP2 SUB SWAP1 RETURN JUMPDEST PUSH2 0x205 PUSH2 0x69C JUMP JUMPDEST PUSH1 0x40 MLOAD PUSH2 0x212 SWAP2 SWAP1 PUSH2 0xB5D JUMP JUMPDEST PUSH1 0x40 MLOAD DUP1 SWAP2 SUB SWAP1 RETURN JUMPDEST PUSH2 0x235 PUSH1 0x4 DUP1 CALLDATASIZE SUB DUP2 ADD SWAP1 PUSH2 0x230 SWAP2 SWAP1 PUSH2 0x8B1 JUMP JUMPDEST PUSH2 0x6A2 JUMP JUMPDEST PUSH1 0x40 MLOAD PUSH2 0x242 SWAP2 SWAP1 PUSH2 0xAD5 JUMP JUMPDEST PUSH1 0x40 MLOAD DUP1 SWAP2 SUB SWAP1 RETURN JUMPDEST PUSH2 0x253 PUSH2 0x6AE JUMP JUMPDEST PUSH1 0x40 MLOAD PUSH2 0x260 SWAP2 SWAP1 PUSH2 0xAD5 JUMP JUMPDEST PUSH1 0x40 MLOAD DUP1 SWAP2 SUB SWAP1 RETURN JUMPDEST PUSH1 0x60 ADDRESS PUSH1 0x7B PUSH1 0x40 MLOAD PUSH1 0x24 ADD PUSH2 0x27F SWAP3 SWAP2 SWAP1 PUSH2 0xA83 JUMP JUMPDEST PUSH1 0x40 MLOAD PUSH1 0x20 DUP2 DUP4 SUB SUB DUP2 MSTORE SWAP1 PUSH1 0x40 MSTORE PUSH32 0xA9059CBB00000000000000000000000000000000000000000000000000000000 PUSH28 0xFFFFFFFFFFFFFFFFFFFFFFFFFFFFFFFFFFFFFFFFFFFFFFFFFFFFFFFF NOT AND PUSH1 0x20 DUP3 ADD DUP1 MLOAD PUSH28 0xFFFFFFFFFFFFFFFFFFFFFFFFFFFFFFFFFFFFFFFFFFFFFFFFFFFFFFFF DUP4 DUP2 DUP4 AND OR DUP4 MSTORE POP POP POP POP SWAP1 POP SWAP1 JUMP JUMPDEST PUSH1 0x0 PUSH4 0xA9059CBB PUSH1 0xE0 SHL SWAP1 POP SWAP1 JUMP JUMPDEST PUSH1 0x60 PUSH2 0x31A PUSH2 0x3CF JUMP JUMPDEST DUP4 DUP4 PUSH1 0x40 MLOAD PUSH1 0x24 ADD PUSH2 0x32D SWAP3 SWAP2 SWAP1 PUSH2 0xAAC JUMP JUMPDEST PUSH1 0x40 MLOAD PUSH1 0x20 DUP2 DUP4 SUB SUB DUP2 MSTORE SWAP1 PUSH1 0x40 MSTORE SWAP1 PUSH28 0xFFFFFFFFFFFFFFFFFFFFFFFFFFFFFFFFFFFFFFFFFFFFFFFFFFFFFFFF NOT AND PUSH1 0x20 DUP3 ADD DUP1 MLOAD PUSH28 0xFFFFFFFFFFFFFFFFFFFFFFFFFFFFFFFFFFFFFFFFFFFFFFFFFFFFFFFF DUP4 DUP2 DUP4 AND OR DUP4 MSTORE POP POP POP POP SWAP1 POP SWAP3 SWAP2 POP POP JUMP JUMPDEST PUSH1 0x60 PUSH1 0x40 MLOAD DUP1 PUSH1 0x40 ADD PUSH1 0x40 MSTORE DUP1 PUSH1 0x19 DUP2 MSTORE PUSH1 0x20 ADD PUSH32 0x7472616E7366657228616464726573732C75696E743235362900000000000000 DUP2 MSTORE POP SWAP1 POP SWAP1 JUMP JUMPDEST PUSH1 0x0 PUSH1 0x40 MLOAD DUP1 PUSH1 0x40 ADD PUSH1 0x40 MSTORE DUP1 PUSH1 0x19 DUP2 MSTORE PUSH1 0x20 ADD PUSH32 0x7472616E7366657228616464726573732C75696E743235362900000000000000 DUP2 MSTORE POP DUP1 MLOAD SWAP1 PUSH1 0x20 ADD KECCAK256 SWAP1 POP SWAP1 JUMP JUMPDEST PUSH1 0x0 DUP1 PUSH1 0x0 DUP1 ADDRESS PUSH20 0xFFFFFFFFFFFFFFFFFFFFFFFFFFFFFFFFFFFFFFFF AND PUSH2 0x438 PUSH2 0x3CF JUMP JUMPDEST DUP8 DUP8 PUSH1 0x40 MLOAD PUSH1 0x24 ADD PUSH2 0x44B SWAP3 SWAP2 SWAP1 PUSH2 0xAAC JUMP JUMPDEST PUSH1 0x40 MLOAD PUSH1 0x20 DUP2 DUP4 SUB SUB DUP2 MSTORE SWAP1 PUSH1 0x40 MSTORE SWAP1 PUSH28 0xFFFFFFFFFFFFFFFFFFFFFFFFFFFFFFFFFFFFFFFFFFFFFFFFFFFFFFFF NOT AND PUSH1 0x20 DUP3 ADD DUP1 MLOAD PUSH28 0xFFFFFFFFFFFFFFFFFFFFFFFFFFFFFFFFFFFFFFFFFFFFFFFFFFFFFFFF DUP4 DUP2 DUP4 AND OR DUP4 MSTORE POP POP POP POP PUSH1 0x40 MLOAD PUSH2 0x4B5 SWAP2 SWAP1 PUSH2 0xA51 JUMP JUMPDEST PUSH1 0x0 PUSH1 0x40 MLOAD DUP1 DUP4 SUB DUP2 PUSH1 0x0 DUP7 GAS CALL SWAP2 POP POP RETURNDATASIZE DUP1 PUSH1 0x0 DUP2 EQ PUSH2 0x4F2 JUMPI PUSH1 0x40 MLOAD SWAP2 POP PUSH1 0x1F NOT PUSH1 0x3F RETURNDATASIZE ADD AND DUP3 ADD PUSH1 0x40 MSTORE RETURNDATASIZE DUP3 MSTORE RETURNDATASIZE PUSH1 0x0 PUSH1 0x20 DUP5 ADD RETURNDATACOPY PUSH2 0x4F7 JUMP JUMPDEST PUSH1 0x60 SWAP2 POP JUMPDEST POP SWAP2 POP SWAP2 POP DUP1 PUSH2 0x506 SWAP1 PUSH2 0xC78 JUMP JUMPDEST DUP3 SWAP4 POP SWAP4 POP POP POP SWAP3 POP SWAP3 SWAP1 POP JUMP JUMPDEST DUP2 PUSH1 0x0 DUP1 PUSH2 0x100 EXP DUP2 SLOAD DUP2 PUSH20 0xFFFFFFFFFFFFFFFFFFFFFFFFFFFFFFFFFFFFFFFF MUL NOT AND SWAP1 DUP4 PUSH20 0xFFFFFFFFFFFFFFFFFFFFFFFFFFFFFFFFFFFFFFFF AND MUL OR SWAP1 SSTORE POP DUP1 PUSH1 0x1 DUP2 SWAP1 SSTORE POP POP POP JUMP JUMPDEST PUSH1 0x0 DUP1 SLOAD SWAP1 PUSH2 0x100 EXP SWAP1 DIV PUSH20 0xFFFFFFFFFFFFFFFFFFFFFFFFFFFFFFFFFFFFFFFF AND DUP2 JUMP JUMPDEST PUSH1 0x0 DUP1 PUSH1 0x0 DUP1 ADDRESS PUSH20 0xFFFFFFFFFFFFFFFFFFFFFFFFFFFFFFFFFFFFFFFF AND DUP7 DUP7 PUSH1 0x40 MLOAD PUSH1 0x24 ADD PUSH2 0x5B3 SWAP3 SWAP2 SWAP1 PUSH2 0xAAC JUMP JUMPDEST PUSH1 0x40 MLOAD PUSH1 0x20 DUP2 DUP4 SUB SUB DUP2 MSTORE SWAP1 PUSH1 0x40 MSTORE PUSH32 0xA9059CBB00000000000000000000000000000000000000000000000000000000 PUSH28 0xFFFFFFFFFFFFFFFFFFFFFFFFFFFFFFFFFFFFFFFFFFFFFFFFFFFFFFFF NOT AND PUSH1 0x20 DUP3 ADD DUP1 MLOAD PUSH28 0xFFFFFFFFFFFFFFFFFFFFFFFFFFFFFFFFFFFFFFFFFFFFFFFFFFFFFFFF DUP4 DUP2 DUP4 AND OR DUP4 MSTORE POP POP POP POP PUSH1 0x40 MLOAD PUSH2 0x63D SWAP2 SWAP1 PUSH2 0xA51 JUMP JUMPDEST PUSH1 0x0 PUSH1 0x40 MLOAD DUP1 DUP4 SUB DUP2 PUSH1 0x0 DUP7 GAS CALL SWAP2 POP POP RETURNDATASIZE DUP1 PUSH1 0x0 DUP2 EQ PUSH2 0x67A JUMPI PUSH1 0x40 MLOAD SWAP2 POP PUSH1 0x1F NOT PUSH1 0x3F RETURNDATASIZE ADD AND DUP3 ADD PUSH1 0x40 MSTORE RETURNDATASIZE DUP3 MSTORE RETURNDATASIZE PUSH1 0x0 PUSH1 0x20 DUP5 ADD RETURNDATACOPY PUSH2 0x67F JUMP JUMPDEST PUSH1 0x60 SWAP2 POP JUMPDEST POP SWAP2 POP SWAP2 POP DUP1 PUSH2 0x68E SWAP1 PUSH2 0xC78 JUMP JUMPDEST DUP3 SWAP4 POP SWAP4 POP POP POP SWAP3 POP SWAP3 SWAP1 POP JUMP JUMPDEST PUSH1 0x1 SLOAD DUP2 JUMP JUMPDEST PUSH1 0x0 DUP3 CALLDATALOAD SWAP1 POP SWAP3 SWAP2 POP POP JUMP JUMPDEST PUSH1 0x0 DUP1 ADDRESS PUSH1 0x7B PUSH1 0x40 MLOAD PUSH1 0x24 ADD PUSH2 0x6C5 SWAP3 SWAP2 SWAP1 PUSH2 0xA83 JUMP JUMPDEST PUSH1 0x40 MLOAD PUSH1 0x20 DUP2 DUP4 SUB SUB DUP2 MSTORE SWAP1 PUSH1 0x40 MSTORE PUSH32 0xA9059CBB00000000000000000000000000000000000000000000000000000000 PUSH28 0xFFFFFFFFFFFFFFFFFFFFFFFFFFFFFFFFFFFFFFFFFFFFFFFFFFFFFFFF NOT AND PUSH1 0x20 DUP3 ADD DUP1 MLOAD PUSH28 0xFFFFFFFFFFFFFFFFFFFFFFFFFFFFFFFFFFFFFFFFFFFFFFFFFFFFFFFF DUP4 DUP2 DUP4 AND OR DUP4 MSTORE POP POP POP POP SWAP1 POP DUP1 PUSH1 0x0 DUP2 MLOAD DUP2 LT PUSH2 0x758 JUMPI PUSH2 0x757 PUSH2 0xD2E JUMP JUMPDEST JUMPDEST PUSH1 0x20 ADD ADD MLOAD PUSH1 0xF8 SHR PUSH1 0xF8 SHL DUP2 PUSH1 0x1 DUP2 MLOAD DUP2 LT PUSH2 0x777 JUMPI PUSH2 0x776 PUSH2 0xD2E JUMP JUMPDEST JUMPDEST PUSH1 0x20 ADD ADD MLOAD PUSH1 0xF8 SHR PUSH1 0xF8 SHL DUP3 PUSH1 0x2 DUP2 MLOAD DUP2 LT PUSH2 0x796 JUMPI PUSH2 0x795 PUSH2 0xD2E JUMP JUMPDEST JUMPDEST PUSH1 0x20 ADD ADD MLOAD PUSH1 0xF8 SHR PUSH1 0xF8 SHL DUP4 PUSH1 0x3 DUP2 MLOAD DUP2 LT PUSH2 0x7B5 JUMPI PUSH2 0x7B4 PUSH2 0xD2E JUMP JUMPDEST JUMPDEST PUSH1 0x20 ADD ADD MLOAD PUSH1 0xF8 SHR PUSH1 0xF8 SHL PUSH1 0x40 MLOAD PUSH1 0x20 ADD PUSH2 0x7D3 SWAP5 SWAP4 SWAP3 SWAP2 SWAP1 PUSH2 0xA03 JUMP JUMPDEST PUSH1 0x40 MLOAD PUSH1 0x20 DUP2 DUP4 SUB SUB DUP2 MSTORE SWAP1 PUSH1 0x40 MSTORE PUSH2 0x7EB SWAP1 PUSH2 0xC78 JUMP JUMPDEST SWAP2 POP POP SWAP1 JUMP JUMPDEST PUSH1 0x0 DUP2 CALLDATALOAD SWAP1 POP PUSH2 0x800 DUP2 PUSH2 0xDA9 JUMP JUMPDEST SWAP3 SWAP2 POP POP JUMP JUMPDEST PUSH1 0x0 DUP1 DUP4 PUSH1 0x1F DUP5 ADD SLT PUSH2 0x81C JUMPI PUSH2 0x81B PUSH2 0xD77 JUMP JUMPDEST JUMPDEST DUP3 CALLDATALOAD SWAP1 POP PUSH8 0xFFFFFFFFFFFFFFFF DUP2 GT ISZERO PUSH2 0x839 JUMPI PUSH2 0x838 PUSH2 0xD72 JUMP JUMPDEST JUMPDEST PUSH1 0x20 DUP4 ADD SWAP2 POP DUP4 PUSH1 0x1 DUP3 MUL DUP4 ADD GT ISZERO PUSH2 0x855 JUMPI PUSH2 0x854 PUSH2 0xD7C JUMP JUMPDEST JUMPDEST SWAP3 POP SWAP3 SWAP1 POP JUMP JUMPDEST PUSH1 0x0 DUP2 CALLDATALOAD SWAP1 POP PUSH2 0x86B DUP2 PUSH2 0xDC0 JUMP JUMPDEST SWAP3 SWAP2 POP POP JUMP JUMPDEST PUSH1 0x0 DUP1 PUSH1 0x40 DUP4 DUP6 SUB SLT ISZERO PUSH2 0x888 JUMPI PUSH2 0x887 PUSH2 0xD86 JUMP JUMPDEST JUMPDEST PUSH1 0x0 PUSH2 0x896 DUP6 DUP3 DUP7 ADD PUSH2 0x7F1 JUMP JUMPDEST SWAP3 POP POP PUSH1 0x20 PUSH2 0x8A7 DUP6 DUP3 DUP7 ADD PUSH2 0x85C JUMP JUMPDEST SWAP2 POP POP SWAP3 POP SWAP3 SWAP1 POP JUMP JUMPDEST PUSH1 0x0 DUP1 PUSH1 0x20 DUP4 DUP6 SUB SLT ISZERO PUSH2 0x8C8 JUMPI PUSH2 0x8C7 PUSH2 0xD86 JUMP JUMPDEST JUMPDEST PUSH1 0x0 DUP4 ADD CALLDATALOAD PUSH8 0xFFFFFFFFFFFFFFFF DUP2 GT ISZERO PUSH2 0x8E6 JUMPI PUSH2 0x8E5 PUSH2 0xD81 JUMP JUMPDEST JUMPDEST PUSH2 0x8F2 DUP6 DUP3 DUP7 ADD PUSH2 0x806 JUMP JUMPDEST SWAP3 POP SWAP3 POP POP SWAP3 POP SWAP3 SWAP1 POP JUMP JUMPDEST PUSH2 0x907 DUP2 PUSH2 0xBCB JUMP JUMPDEST DUP3 MSTORE POP POP JUMP JUMPDEST PUSH2 0x916 DUP2 PUSH2 0xBDD JUMP JUMPDEST DUP3 MSTORE POP POP JUMP JUMPDEST PUSH2 0x92D PUSH2 0x928 DUP3 PUSH2 0xBE9 JUMP JUMPDEST PUSH2 0xD24 JUMP JUMPDEST DUP3 MSTORE POP POP JUMP JUMPDEST PUSH2 0x93C DUP2 PUSH2 0xC15 JUMP JUMPDEST DUP3 MSTORE POP POP JUMP JUMPDEST PUSH1 0x0 PUSH2 0x94D DUP3 PUSH2 0xB88 JUMP JUMPDEST PUSH2 0x957 DUP2 DUP6 PUSH2 0xB9E JUMP JUMPDEST SWAP4 POP PUSH2 0x967 DUP2 DUP6 PUSH1 0x20 DUP7 ADD PUSH2 0xCF1 JUMP JUMPDEST PUSH2 0x970 DUP2 PUSH2 0xD8B JUMP JUMPDEST DUP5 ADD SWAP2 POP POP SWAP3 SWAP2 POP POP JUMP JUMPDEST PUSH1 0x0 PUSH2 0x986 DUP3 PUSH2 0xB88 JUMP JUMPDEST PUSH2 0x990 DUP2 DUP6 PUSH2 0xBAF JUMP JUMPDEST SWAP4 POP PUSH2 0x9A0 DUP2 DUP6 PUSH1 0x20 DUP7 ADD PUSH2 0xCF1 JUMP JUMPDEST DUP1 DUP5 ADD SWAP2 POP POP SWAP3 SWAP2 POP POP JUMP JUMPDEST PUSH2 0x9B5 DUP2 PUSH2 0xCDF JUMP JUMPDEST DUP3 MSTORE POP POP JUMP JUMPDEST PUSH1 0x0 PUSH2 0x9C6 DUP3 PUSH2 0xB93 JUMP JUMPDEST PUSH2 0x9D0 DUP2 DUP6 PUSH2 0xBBA JUMP JUMPDEST SWAP4 POP PUSH2 0x9E0 DUP2 DUP6 PUSH1 0x20 DUP7 ADD PUSH2 0xCF1 JUMP JUMPDEST PUSH2 0x9E9 DUP2 PUSH2 0xD8B JUMP JUMPDEST DUP5 ADD SWAP2 POP POP SWAP3 SWAP2 POP POP JUMP JUMPDEST PUSH2 0x9FD DUP2 PUSH2 0xC61 JUMP JUMPDEST DUP3 MSTORE POP POP JUMP JUMPDEST PUSH1 0x0 PUSH2 0xA0F DUP3 DUP8 PUSH2 0x91C JUMP JUMPDEST PUSH1 0x1 DUP3 ADD SWAP2 POP PUSH2 0xA1F DUP3 DUP7 PUSH2 0x91C JUMP JUMPDEST PUSH1 0x1 DUP3 ADD SWAP2 POP PUSH2 0xA2F DUP3 DUP6 PUSH2 0x91C JUMP JUMPDEST PUSH1 0x1 DUP3 ADD SWAP2 POP PUSH2 0xA3F DUP3 DUP5 PUSH2 0x91C JUMP JUMPDEST PUSH1 0x1 DUP3 ADD SWAP2 POP DUP2 SWAP1 POP SWAP6 SWAP5 POP POP POP POP POP JUMP JUMPDEST PUSH1 0x0 PUSH2 0xA5D DUP3 DUP5 PUSH2 0x97B JUMP JUMPDEST SWAP2 POP DUP2 SWAP1 POP SWAP3 SWAP2 POP POP JUMP JUMPDEST PUSH1 0x0 PUSH1 0x20 DUP3 ADD SWAP1 POP PUSH2 0xA7D PUSH1 0x0 DUP4 ADD DUP5 PUSH2 0x8FE JUMP JUMPDEST SWAP3 SWAP2 POP POP JUMP JUMPDEST PUSH1 0x0 PUSH1 0x40 DUP3 ADD SWAP1 POP PUSH2 0xA98 PUSH1 0x0 DUP4 ADD DUP6 PUSH2 0x8FE JUMP JUMPDEST PUSH2 0xAA5 PUSH1 0x20 DUP4 ADD DUP5 PUSH2 0x9AC JUMP JUMPDEST SWAP4 SWAP3 POP POP POP JUMP JUMPDEST PUSH1 0x0 PUSH1 0x40 DUP3 ADD SWAP1 POP PUSH2 0xAC1 PUSH1 0x0 DUP4 ADD DUP6 PUSH2 0x8FE JUMP JUMPDEST PUSH2 0xACE PUSH1 0x20 DUP4 ADD DUP5 PUSH2 0x9F4 JUMP JUMPDEST SWAP4 SWAP3 POP POP POP JUMP JUMPDEST PUSH1 0x0 PUSH1 0x20 DUP3 ADD SWAP1 POP PUSH2 0xAEA PUSH1 0x0 DUP4 ADD DUP5 PUSH2 0x933 JUMP JUMPDEST SWAP3 SWAP2 POP POP JUMP JUMPDEST PUSH1 0x0 PUSH1 0x40 DUP3 ADD SWAP1 POP PUSH2 0xB05 PUSH1 0x0 DUP4 ADD DUP6 PUSH2 0x933 JUMP JUMPDEST PUSH2 0xB12 PUSH1 0x20 DUP4 ADD DUP5 PUSH2 0x90D JUMP JUMPDEST SWAP4 SWAP3 POP POP POP JUMP JUMPDEST PUSH1 0x0 PUSH1 0x20 DUP3 ADD SWAP1 POP DUP2 DUP2 SUB PUSH1 0x0 DUP4 ADD MSTORE PUSH2 0xB33 DUP2 DUP5 PUSH2 0x942 JUMP JUMPDEST SWAP1 POP SWAP3 SWAP2 POP POP JUMP JUMPDEST PUSH1 0x0 PUSH1 0x20 DUP3 ADD SWAP1 POP DUP2 DUP2 SUB PUSH1 0x0 DUP4 ADD MSTORE PUSH2 0xB55 DUP2 DUP5 PUSH2 0x9BB JUMP JUMPDEST SWAP1 POP SWAP3 SWAP2 POP POP JUMP JUMPDEST PUSH1 0x0 PUSH1 0x20 DUP3 ADD SWAP1 POP PUSH2 0xB72 PUSH1 0x0 DUP4 ADD DUP5 PUSH2 0x9F4 JUMP JUMPDEST SWAP3 SWAP2 POP POP JUMP JUMPDEST PUSH1 0x0 DUP2 SWAP1 POP PUSH1 0x20 DUP3 ADD SWAP1 POP SWAP2 SWAP1 POP JUMP JUMPDEST PUSH1 0x0 DUP2 MLOAD SWAP1 POP SWAP2 SWAP1 POP JUMP JUMPDEST PUSH1 0x0 DUP2 MLOAD SWAP1 POP SWAP2 SWAP1 POP JUMP JUMPDEST PUSH1 0x0 DUP3 DUP3 MSTORE PUSH1 0x20 DUP3 ADD SWAP1 POP SWAP3 SWAP2 POP POP JUMP JUMPDEST PUSH1 0x0 DUP2 SWAP1 POP SWAP3 SWAP2 POP POP JUMP JUMPDEST PUSH1 0x0 DUP3 DUP3 MSTORE PUSH1 0x20 DUP3 ADD SWAP1 POP SWAP3 SWAP2 POP POP JUMP JUMPDEST PUSH1 0x0 PUSH2 0xBD6 DUP3 PUSH2 0xC41 JUMP JUMPDEST SWAP1 POP SWAP2 SWAP1 POP JUMP JUMPDEST PUSH1 0x0 DUP2 ISZERO ISZERO SWAP1 POP SWAP2 SWAP1 POP JUMP JUMPDEST PUSH1 0x0 PUSH32 0xFF00000000000000000000000000000000000000000000000000000000000000 DUP3 AND SWAP1 POP SWAP2 SWAP1 POP JUMP JUMPDEST PUSH1 0x0 PUSH32 0xFFFFFFFF00000000000000000000000000000000000000000000000000000000 DUP3 AND SWAP1 POP SWAP2 SWAP1 POP JUMP JUMPDEST PUSH1 0x0 PUSH20 0xFFFFFFFFFFFFFFFFFFFFFFFFFFFFFFFFFFFFFFFF DUP3 AND SWAP1 POP SWAP2 SWAP1 POP JUMP JUMPDEST PUSH1 0x0 DUP2 SWAP1 POP SWAP2 SWAP1 POP JUMP JUMPDEST PUSH1 0x0 PUSH1 0xFF DUP3 AND SWAP1 POP SWAP2 SWAP1 POP JUMP JUMPDEST PUSH1 0x0 PUSH2 0xC83 DUP3 PUSH2 0xB88 JUMP JUMPDEST DUP3 PUSH2 0xC8D DUP5 PUSH2 0xB78 JUMP JUMPDEST SWAP1 POP PUSH2 0xC98 DUP2 PUSH2 0xD5D JUMP JUMPDEST SWAP3 POP PUSH1 0x4 DUP3 LT ISZERO PUSH2 0xCD8 JUMPI PUSH2 0xCD3 PUSH32 0xFFFFFFFF00000000000000000000000000000000000000000000000000000000 DUP4 PUSH1 0x4 SUB PUSH1 0x8 MUL PUSH2 0xD9C JUMP JUMPDEST DUP4 AND SWAP3 POP JUMPDEST POP POP SWAP2 SWAP1 POP JUMP JUMPDEST PUSH1 0x0 PUSH2 0xCEA DUP3 PUSH2 0xC6B JUMP JUMPDEST SWAP1 POP SWAP2 SWAP1 POP JUMP JUMPDEST PUSH1 0x0 JUMPDEST DUP4 DUP2 LT ISZERO PUSH2 0xD0F JUMPI DUP1 DUP3 ADD MLOAD DUP2 DUP5 ADD MSTORE PUSH1 0x20 DUP2 ADD SWAP1 POP PUSH2 0xCF4 JUMP JUMPDEST DUP4 DUP2 GT ISZERO PUSH2 0xD1E JUMPI PUSH1 0x0 DUP5 DUP5 ADD MSTORE JUMPDEST POP POP POP POP JUMP JUMPDEST PUSH1 0x0 DUP2 SWAP1 POP SWAP2 SWAP1 POP JUMP JUMPDEST PUSH32 0x4E487B7100000000000000000000000000000000000000000000000000000000 PUSH1 0x0 MSTORE PUSH1 0x32 PUSH1 0x4 MSTORE PUSH1 0x24 PUSH1 0x0 REVERT JUMPDEST PUSH1 0x0 PUSH2 0xD69 DUP3 MLOAD PUSH2 0xC15 JUMP JUMPDEST DUP1 SWAP2 POP POP SWAP2 SWAP1 POP JUMP JUMPDEST PUSH1 0x0 DUP1 REVERT JUMPDEST PUSH1 0x0 DUP1 REVERT JUMPDEST PUSH1 0x0 DUP1 REVERT JUMPDEST PUSH1 0x0 DUP1 REVERT JUMPDEST PUSH1 0x0 DUP1 REVERT JUMPDEST PUSH1 0x0 PUSH1 0x1F NOT PUSH1 0x1F DUP4 ADD AND SWAP1 POP SWAP2 SWAP1 POP JUMP JUMPDEST PUSH1 0x0 DUP3 DUP3 SHL SWAP1 POP SWAP3 SWAP2 POP POP JUMP JUMPDEST PUSH2 0xDB2 DUP2 PUSH2 0xBCB JUMP JUMPDEST DUP2 EQ PUSH2 0xDBD JUMPI PUSH1 0x0 DUP1 REVERT JUMPDEST POP JUMP JUMPDEST PUSH2 0xDC9 DUP2 PUSH2 0xC61 JUMP JUMPDEST DUP2 EQ PUSH2 0xDD4 JUMPI PUSH1 0x0 DUP1 REVERT JUMPDEST POP JUMP INVALID LOG2 PUSH5 0x6970667358 0x22 SLT KECCAK256 PUSH7 0xC9EAAB34052F3B 0x4B 0xED PUSH32 0x8F560D249BAE2BADF8CB01429AC0878C371A40B52464736F6C63430008070033 "
				},
				"gasEstimates": {
					"creation": {
						"codeDepositCost": "719400",
						"executionCost": "753",
						"totalCost": "720153"
					},
					"external": {
						"callTransferFunctionDirectly(address,uint256)": "infinite",
						"callTransferFunctionDirectlyTwo(address,uint256)": "infinite",
						"getCallData()": "infinite",
						"getDataToCallTransfer(address,uint256)": "infinite",
						"getSelectorFour()": "372",
						"getSelectorOne()": "536",
						"getSelectorThree(bytes)": "767",
						"getSelectorTwo()": "infinite",
						"getSignatureOne()": "infinite",
						"s_amount()": "2495",
						"s_someAddress()": "2533",
						"transfer(address,uint256)": "47009"
					}
				},
				"methodIdentifiers": {
					"callTransferFunctionDirectly(address,uint256)": "a5694e4a",
					"callTransferFunctionDirectlyTwo(address,uint256)": "b20d9446",
					"getCallData()": "0bf9aa4c",
					"getDataToCallTransfer(address,uint256)": "7c0c5f23",
					"getSelectorFour()": "25435a56",
					"getSelectorOne()": "9a41d3ad",
					"getSelectorThree(bytes)": "ce6eb7ff",
					"getSelectorTwo()": "fbf6d515",
					"getSignatureOne()": "852d52fa",
					"s_amount()": "c6e93bad",
					"s_someAddress()": "aad229d5",
					"transfer(address,uint256)": "a9059cbb"
				}
			},
			"storageLayout": {
				"storage": [
					{
						"astId": 3,
						"contract": "contracts/utils/CallAnything.sol:CallAnything",
						"label": "s_someAddress",
						"offset": 0,
						"slot": "0",
						"type": "t_address"
					},
					{
						"astId": 5,
						"contract": "contracts/utils/CallAnything.sol:CallAnything",
						"label": "s_amount",
						"offset": 0,
						"slot": "1",
						"type": "t_uint256"
					}
				],
				"types": {
					"t_address": {
						"encoding": "inplace",
						"label": "address",
						"numberOfBytes": "20"
					},
					"t_uint256": {
						"encoding": "inplace",
						"label": "uint256",
						"numberOfBytes": "32"
					}
				}
			},
			"userdoc": {
				"kind": "user",
				"methods": {},
				"version": 1
			}
		}
	}
}