{
	"data": {
		"bytecode": {
			"linkReferences": {},
			"object": "608060405234801561001057600080fd5b50604051610df0380380610df083398181016040528101906100329190610176565b61004e61004361009560201b60201c565b61009d60201b60201c565b80600160006101000a81548173ffffffffffffffffffffffffffffffffffffffff021916908373ffffffffffffffffffffffffffffffffffffffff160217905550506101e8565b600033905090565b60008060009054906101000a900473ffffffffffffffffffffffffffffffffffffffff169050816000806101000a81548173ffffffffffffffffffffffffffffffffffffffff021916908373ffffffffffffffffffffffffffffffffffffffff1602179055508173ffffffffffffffffffffffffffffffffffffffff168173ffffffffffffffffffffffffffffffffffffffff167f8be0079c531659141344cd1fd0a4f28419497f9722a3daafe3b4186f6b6457e060405160405180910390a35050565b600081519050610170816101d1565b92915050565b60006020828403121561018857600080fd5b600061019684828501610161565b91505092915050565b60006101aa826101b1565b9050919050565b600073ffffffffffffffffffffffffffffffffffffffff82169050919050565b6101da8161019f565b81146101e557600080fd5b50565b610bf9806101f76000396000f3fe6080604052600436106100705760003560e01c80638da5cb5b1161004e5780638da5cb5b146100ce578063cbdd69b5146100f9578063d0febe4c14610124578063f2fde38b1461012e57610070565b80633ccfd60b14610075578063715018a61461008c5780637879e84b146100a3575b600080fd5b34801561008157600080fd5b5061008a610157565b005b34801561009857600080fd5b506100a16102c5565b005b3480156100af57600080fd5b506100b861034d565b6040516100c591906108b8565b60405180910390f35b3480156100da57600080fd5b506100e3610373565b6040516100f0919061083d565b60405180910390f35b34801561010557600080fd5b5061010e61039c565b60405161011b9190610973565b60405180910390f35b61012c6103a1565b005b34801561013a57600080fd5b50610155600480360381019061015091906106d7565b6104e9565b005b61015f6105e1565b73ffffffffffffffffffffffffffffffffffffffff1661017d610373565b73ffffffffffffffffffffffffffffffffffffffff16146101d3576040517f08c379a00000000000000000000000000000000000000000000000000000000081526004016101ca906108f3565b60405180910390fd5b60004711610216576040517f08c379a000000000000000000000000000000000000000000000000000000000815260040161020d90610933565b60405180910390fd5b60003373ffffffffffffffffffffffffffffffffffffffff164760405161023c90610828565b60006040518083038185875af1925050503d8060008114610279576040519150601f19603f3d011682016040523d82523d6000602084013e61027e565b606091505b50509050806102c2576040517f08c379a00000000000000000000000000000000000000000000000000000000081526004016102b990610953565b60405180910390fd5b50565b6102cd6105e1565b73ffffffffffffffffffffffffffffffffffffffff166102eb610373565b73ffffffffffffffffffffffffffffffffffffffff1614610341576040517f08c379a0000000000000000000000000000000000000000000000000000000008152600401610338906108f3565b60405180910390fd5b61034b60006105e9565b565b600160009054906101000a900473ffffffffffffffffffffffffffffffffffffffff1681565b60008060009054906101000a900473ffffffffffffffffffffffffffffffffffffffff16905090565b606481565b600034116103e4576040517f08c379a00000000000000000000000000000000000000000000000000000000081526004016103db90610913565b60405180910390fd5b600160009054906101000a900473ffffffffffffffffffffffffffffffffffffffff1673ffffffffffffffffffffffffffffffffffffffff1663a9059cbb3360643461043091906109aa565b6040518363ffffffff1660e01b815260040161044d929190610858565b602060405180830381600087803b15801561046757600080fd5b505af115801561047b573d6000803e3d6000fd5b505050506040513d601f19601f8201168201806040525081019061049f9190610700565b507f0a37b72bb67eee30e09084cf386f8a17817c57f620c3ab95fb25d6a20356ec7733346064346104d091906109aa565b6040516104df93929190610881565b60405180910390a1565b6104f16105e1565b73ffffffffffffffffffffffffffffffffffffffff1661050f610373565b73ffffffffffffffffffffffffffffffffffffffff1614610565576040517f08c379a000000000000000000000000000000000000000000000000000000000815260040161055c906108f3565b60405180910390fd5b600073ffffffffffffffffffffffffffffffffffffffff168173ffffffffffffffffffffffffffffffffffffffff1614156105d5576040517f08c379a00000000000000000000000000000000000000000000000000000000081526004016105cc906108d3565b60405180910390fd5b6105de816105e9565b50565b600033905090565b60008060009054906101000a900473ffffffffffffffffffffffffffffffffffffffff169050816000806101000a81548173ffffffffffffffffffffffffffffffffffffffff021916908373ffffffffffffffffffffffffffffffffffffffff1602179055508173ffffffffffffffffffffffffffffffffffffffff168173ffffffffffffffffffffffffffffffffffffffff167f8be0079c531659141344cd1fd0a4f28419497f9722a3daafe3b4186f6b6457e060405160405180910390a35050565b6000813590506106bc81610b95565b92915050565b6000815190506106d181610bac565b92915050565b6000602082840312156106e957600080fd5b60006106f7848285016106ad565b91505092915050565b60006020828403121561071257600080fd5b6000610720848285016106c2565b91505092915050565b61073281610a04565b82525050565b61074181610a4c565b82525050565b6000610754602683610999565b915061075f82610a9f565b604082019050919050565b6000610777602083610999565b915061078282610aee565b602082019050919050565b600061079a601083610999565b91506107a582610b17565b602082019050919050565b60006107bd60008361098e565b91506107c882610b40565b600082019050919050565b60006107e0601383610999565b91506107eb82610b43565b602082019050919050565b6000610803600f83610999565b915061080e82610b6c565b602082019050919050565b61082281610a42565b82525050565b6000610833826107b0565b9150819050919050565b60006020820190506108526000830184610729565b92915050565b600060408201905061086d6000830185610729565b61087a6020830184610819565b9392505050565b60006060820190506108966000830186610729565b6108a36020830185610819565b6108b06040830184610819565b949350505050565b60006020820190506108cd6000830184610738565b92915050565b600060208201905081810360008301526108ec81610747565b9050919050565b6000602082019050818103600083015261090c8161076a565b9050919050565b6000602082019050818103600083015261092c8161078d565b9050919050565b6000602082019050818103600083015261094c816107d3565b9050919050565b6000602082019050818103600083015261096c816107f6565b9050919050565b60006020820190506109886000830184610819565b92915050565b600081905092915050565b600082825260208201905092915050565b60006109b582610a42565b91506109c083610a42565b9250817fffffffffffffffffffffffffffffffffffffffffffffffffffffffffffffffff04831182151516156109f9576109f8610a70565b5b828202905092915050565b6000610a0f82610a22565b9050919050565b60008115159050919050565b600073ffffffffffffffffffffffffffffffffffffffff82169050919050565b6000819050919050565b6000610a5782610a5e565b9050919050565b6000610a6982610a22565b9050919050565b7f4e487b7100000000000000000000000000000000000000000000000000000000600052601160045260246000fd5b7f4f776e61626c653a206e6577206f776e657220697320746865207a65726f206160008201527f6464726573730000000000000000000000000000000000000000000000000000602082015250565b7f4f776e61626c653a2063616c6c6572206973206e6f7420746865206f776e6572600082015250565b7f6e65656420746f2073656e642045544800000000000000000000000000000000600082015250565b50565b7f6e6f7468696e6720746f20776974686472617700000000000000000000000000600082015250565b7f7472616e73666572206661696c65640000000000000000000000000000000000600082015250565b610b9e81610a04565b8114610ba957600080fd5b50565b610bb581610a16565b8114610bc057600080fd5b5056fea264697066735822122018de9cce68be7000e2b1a13bb57284ceb4f7e243559a561f116c68db8798915964736f6c63430008040033",
			"opcodes": "PUSH1 0x80 PUSH1 0x40 MSTORE CALLVALUE DUP1 ISZERO PUSH2 0x10 JUMPI PUSH1 0x0 DUP1 REVERT JUMPDEST POP PUSH1 0x40 MLOAD PUSH2 0xDF0 CODESIZE SUB DUP1 PUSH2 0xDF0 DUP4 CODECOPY DUP2 DUP2 ADD PUSH1 0x40 MSTORE DUP2 ADD SWAP1 PUSH2 0x32 SWAP2 SWAP1 PUSH2 0x176 JUMP JUMPDEST PUSH2 0x4E PUSH2 0x43 PUSH2 0x95 PUSH1 0x20 SHL PUSH1 0x20 SHR JUMP JUMPDEST PUSH2 0x9D PUSH1 0x20 SHL PUSH1 0x20 SHR JUMP JUMPDEST DUP1 PUSH1 0x1 PUSH1 0x0 PUSH2 0x100 EXP DUP2 SLOAD DUP2 PUSH20 0xFFFFFFFFFFFFFFFFFFFFFFFFFFFFFFFFFFFFFFFF MUL NOT AND SWAP1 DUP4 PUSH20 0xFFFFFFFFFFFFFFFFFFFFFFFFFFFFFFFFFFFFFFFF AND MUL OR SWAP1 SSTORE POP POP PUSH2 0x1E8 JUMP JUMPDEST PUSH1 0x0 CALLER SWAP1 POP SWAP1 JUMP JUMPDEST PUSH1 0x0 DUP1 PUSH1 0x0 SWAP1 SLOAD SWAP1 PUSH2 0x100 EXP SWAP1 DIV PUSH20 0xFFFFFFFFFFFFFFFFFFFFFFFFFFFFFFFFFFFFFFFF AND SWAP1 POP DUP2 PUSH1 0x0 DUP1 PUSH2 0x100 EXP DUP2 SLOAD DUP2 PUSH20 0xFFFFFFFFFFFFFFFFFFFFFFFFFFFFFFFFFFFFFFFF MUL NOT AND SWAP1 DUP4 PUSH20 0xFFFFFFFFFFFFFFFFFFFFFFFFFFFFFFFFFFFFFFFF AND MUL OR SWAP1 SSTORE POP DUP2 PUSH20 0xFFFFFFFFFFFFFFFFFFFFFFFFFFFFFFFFFFFFFFFF AND DUP2 PUSH20 0xFFFFFFFFFFFFFFFFFFFFFFFFFFFFFFFFFFFFFFFF AND PUSH32 0x8BE0079C531659141344CD1FD0A4F28419497F9722A3DAAFE3B4186F6B6457E0 PUSH1 0x40 MLOAD PUSH1 0x40 MLOAD DUP1 SWAP2 SUB SWAP1 LOG3 POP POP JUMP JUMPDEST PUSH1 0x0 DUP2 MLOAD SWAP1 POP PUSH2 0x170 DUP2 PUSH2 0x1D1 JUMP JUMPDEST SWAP3 SWAP2 POP POP JUMP JUMPDEST PUSH1 0x0 PUSH1 0x20 DUP3 DUP5 SUB SLT ISZERO PUSH2 0x188 JUMPI PUSH1 0x0 DUP1 REVERT JUMPDEST PUSH1 0x0 PUSH2 0x196 DUP5 DUP3 DUP6 ADD PUSH2 0x161 JUMP JUMPDEST SWAP2 POP POP SWAP3 SWAP2 POP POP JUMP JUMPDEST PUSH1 0x0 PUSH2 0x1AA DUP3 PUSH2 0x1B1 JUMP JUMPDEST SWAP1 POP SWAP2 SWAP1 POP JUMP JUMPDEST PUSH1 0x0 PUSH20 0xFFFFFFFFFFFFFFFFFFFFFFFFFFFFFFFFFFFFFFFF DUP3 AND SWAP1 POP SWAP2 SWAP1 POP JUMP JUMPDEST PUSH2 0x1DA DUP2 PUSH2 0x19F JUMP JUMPDEST DUP2 EQ PUSH2 0x1E5 JUMPI PUSH1 0x0 DUP1 REVERT JUMPDEST POP JUMP JUMPDEST PUSH2 0xBF9 DUP1 PUSH2 0x1F7 PUSH1 0x0 CODECOPY PUSH1 0x0 RETURN INVALID PUSH1 0x80 PUSH1 0x40 MSTORE PUSH1 0x4 CALLDATASIZE LT PUSH2 0x70 JUMPI PUSH1 0x0 CALLDATALOAD PUSH1 0xE0 SHR DUP1 PUSH4 0x8DA5CB5B GT PUSH2 0x4E JUMPI DUP1 PUSH4 0x8DA5CB5B EQ PUSH2 0xCE JUMPI DUP1 PUSH4 0xCBDD69B5 EQ PUSH2 0xF9 JUMPI DUP1 PUSH4 0xD0FEBE4C EQ PUSH2 0x124 JUMPI DUP1 PUSH4 0xF2FDE38B EQ PUSH2 0x12E JUMPI PUSH2 0x70 JUMP JUMPDEST DUP1 PUSH4 0x3CCFD60B EQ PUSH2 0x75 JUMPI DUP1 PUSH4 0x715018A6 EQ PUSH2 0x8C JUMPI DUP1 PUSH4 0x7879E84B EQ PUSH2 0xA3 JUMPI JUMPDEST PUSH1 0x0 DUP1 REVERT JUMPDEST CALLVALUE DUP1 ISZERO PUSH2 0x81 JUMPI PUSH1 0x0 DUP1 REVERT JUMPDEST POP PUSH2 0x8A PUSH2 0x157 JUMP JUMPDEST STOP JUMPDEST CALLVALUE DUP1 ISZERO PUSH2 0x98 JUMPI PUSH1 0x0 DUP1 REVERT JUMPDEST POP PUSH2 0xA1 PUSH2 0x2C5 JUMP JUMPDEST STOP JUMPDEST CALLVALUE DUP1 ISZERO PUSH2 0xAF JUMPI PUSH1 0x0 DUP1 REVERT JUMPDEST POP PUSH2 0xB8 PUSH2 0x34D JUMP JUMPDEST PUSH1 0x40 MLOAD PUSH2 0xC5 SWAP2 SWAP1 PUSH2 0x8B8 JUMP JUMPDEST PUSH1 0x40 MLOAD DUP1 SWAP2 SUB SWAP1 RETURN JUMPDEST CALLVALUE DUP1 ISZERO PUSH2 0xDA JUMPI PUSH1 0x0 DUP1 REVERT JUMPDEST POP PUSH2 0xE3 PUSH2 0x373 JUMP JUMPDEST PUSH1 0x40 MLOAD PUSH2 0xF0 SWAP2 SWAP1 PUSH2 0x83D JUMP JUMPDEST PUSH1 0x40 MLOAD DUP1 SWAP2 SUB SWAP1 RETURN JUMPDEST CALLVALUE DUP1 ISZERO PUSH2 0x105 JUMPI PUSH1 0x0 DUP1 REVERT JUMPDEST POP PUSH2 0x10E PUSH2 0x39C JUMP JUMPDEST PUSH1 0x40 MLOAD PUSH2 0x11B SWAP2 SWAP1 PUSH2 0x973 JUMP JUMPDEST PUSH1 0x40 MLOAD DUP1 SWAP2 SUB SWAP1 RETURN JUMPDEST PUSH2 0x12C PUSH2 0x3A1 JUMP JUMPDEST STOP JUMPDEST CALLVALUE DUP1 ISZERO PUSH2 0x13A JUMPI PUSH1 0x0 DUP1 REVERT JUMPDEST POP PUSH2 0x155 PUSH1 0x4 DUP1 CALLDATASIZE SUB DUP2 ADD SWAP1 PUSH2 0x150 SWAP2 SWAP1 PUSH2 0x6D7 JUMP JUMPDEST PUSH2 0x4E9 JUMP JUMPDEST STOP JUMPDEST PUSH2 0x15F PUSH2 0x5E1 JUMP JUMPDEST PUSH20 0xFFFFFFFFFFFFFFFFFFFFFFFFFFFFFFFFFFFFFFFF AND PUSH2 0x17D PUSH2 0x373 JUMP JUMPDEST PUSH20 0xFFFFFFFFFFFFFFFFFFFFFFFFFFFFFFFFFFFFFFFF AND EQ PUSH2 0x1D3 JUMPI PUSH1 0x40 MLOAD PUSH32 0x8C379A000000000000000000000000000000000000000000000000000000000 DUP2 MSTORE PUSH1 0x4 ADD PUSH2 0x1CA SWAP1 PUSH2 0x8F3 JUMP JUMPDEST PUSH1 0x40 MLOAD DUP1 SWAP2 SUB SWAP1 REVERT JUMPDEST PUSH1 0x0 SELFBALANCE GT PUSH2 0x216 JUMPI PUSH1 0x40 MLOAD PUSH32 0x8C379A000000000000000000000000000000000000000000000000000000000 DUP2 MSTORE PUSH1 0x4 ADD PUSH2 0x20D SWAP1 PUSH2 0x933 JUMP JUMPDEST PUSH1 0x40 MLOAD DUP1 SWAP2 SUB SWAP1 REVERT JUMPDEST PUSH1 0x0 CALLER PUSH20 0xFFFFFFFFFFFFFFFFFFFFFFFFFFFFFFFFFFFFFFFF AND SELFBALANCE PUSH1 0x40 MLOAD PUSH2 0x23C SWAP1 PUSH2 0x828 JUMP JUMPDEST PUSH1 0x0 PUSH1 0x40 MLOAD DUP1 DUP4 SUB DUP2 DUP6 DUP8 GAS CALL SWAP3 POP POP POP RETURNDATASIZE DUP1 PUSH1 0x0 DUP2 EQ PUSH2 0x279 JUMPI PUSH1 0x40 MLOAD SWAP2 POP PUSH1 0x1F NOT PUSH1 0x3F RETURNDATASIZE ADD AND DUP3 ADD PUSH1 0x40 MSTORE RETURNDATASIZE DUP3 MSTORE RETURNDATASIZE PUSH1 0x0 PUSH1 0x20 DUP5 ADD RETURNDATACOPY PUSH2 0x27E JUMP JUMPDEST PUSH1 0x60 SWAP2 POP JUMPDEST POP POP SWAP1 POP DUP1 PUSH2 0x2C2 JUMPI PUSH1 0x40 MLOAD PUSH32 0x8C379A000000000000000000000000000000000000000000000000000000000 DUP2 MSTORE PUSH1 0x4 ADD PUSH2 0x2B9 SWAP1 PUSH2 0x953 JUMP JUMPDEST PUSH1 0x40 MLOAD DUP1 SWAP2 SUB SWAP1 REVERT JUMPDEST POP JUMP JUMPDEST PUSH2 0x2CD PUSH2 0x5E1 JUMP JUMPDEST PUSH20 0xFFFFFFFFFFFFFFFFFFFFFFFFFFFFFFFFFFFFFFFF AND PUSH2 0x2EB PUSH2 0x373 JUMP JUMPDEST PUSH20 0xFFFFFFFFFFFFFFFFFFFFFFFFFFFFFFFFFFFFFFFF AND EQ PUSH2 0x341 JUMPI PUSH1 0x40 MLOAD PUSH32 0x8C379A000000000000000000000000000000000000000000000000000000000 DUP2 MSTORE PUSH1 0x4 ADD PUSH2 0x338 SWAP1 PUSH2 0x8F3 JUMP JUMPDEST PUSH1 0x40 MLOAD DUP1 SWAP2 SUB SWAP1 REVERT JUMPDEST PUSH2 0x34B PUSH1 0x0 PUSH2 0x5E9 JUMP JUMPDEST JUMP JUMPDEST PUSH1 0x1 PUSH1 0x0 SWAP1 SLOAD SWAP1 PUSH2 0x100 EXP SWAP1 DIV PUSH20 0xFFFFFFFFFFFFFFFFFFFFFFFFFFFFFFFFFFFFFFFF AND DUP2 JUMP JUMPDEST PUSH1 0x0 DUP1 PUSH1 0x0 SWAP1 SLOAD SWAP1 PUSH2 0x100 EXP SWAP1 DIV PUSH20 0xFFFFFFFFFFFFFFFFFFFFFFFFFFFFFFFFFFFFFFFF AND SWAP1 POP SWAP1 JUMP JUMPDEST PUSH1 0x64 DUP2 JUMP JUMPDEST PUSH1 0x0 CALLVALUE GT PUSH2 0x3E4 JUMPI PUSH1 0x40 MLOAD PUSH32 0x8C379A000000000000000000000000000000000000000000000000000000000 DUP2 MSTORE PUSH1 0x4 ADD PUSH2 0x3DB SWAP1 PUSH2 0x913 JUMP JUMPDEST PUSH1 0x40 MLOAD DUP1 SWAP2 SUB SWAP1 REVERT JUMPDEST PUSH1 0x1 PUSH1 0x0 SWAP1 SLOAD SWAP1 PUSH2 0x100 EXP SWAP1 DIV PUSH20 0xFFFFFFFFFFFFFFFFFFFFFFFFFFFFFFFFFFFFFFFF AND PUSH20 0xFFFFFFFFFFFFFFFFFFFFFFFFFFFFFFFFFFFFFFFF AND PUSH4 0xA9059CBB CALLER PUSH1 0x64 CALLVALUE PUSH2 0x430 SWAP2 SWAP1 PUSH2 0x9AA JUMP JUMPDEST PUSH1 0x40 MLOAD DUP4 PUSH4 0xFFFFFFFF AND PUSH1 0xE0 SHL DUP2 MSTORE PUSH1 0x4 ADD PUSH2 0x44D SWAP3 SWAP2 SWAP1 PUSH2 0x858 JUMP JUMPDEST PUSH1 0x20 PUSH1 0x40 MLOAD DUP1 DUP4 SUB DUP2 PUSH1 0x0 DUP8 DUP1 EXTCODESIZE ISZERO DUP1 ISZERO PUSH2 0x467 JUMPI PUSH1 0x0 DUP1 REVERT JUMPDEST POP GAS CALL ISZERO DUP1 ISZERO PUSH2 0x47B JUMPI RETURNDATASIZE PUSH1 0x0 DUP1 RETURNDATACOPY RETURNDATASIZE PUSH1 0x0 REVERT JUMPDEST POP POP POP POP PUSH1 0x40 MLOAD RETURNDATASIZE PUSH1 0x1F NOT PUSH1 0x1F DUP3 ADD AND DUP3 ADD DUP1 PUSH1 0x40 MSTORE POP DUP2 ADD SWAP1 PUSH2 0x49F SWAP2 SWAP1 PUSH2 0x700 JUMP JUMPDEST POP PUSH32 0xA37B72BB67EEE30E09084CF386F8A17817C57F620C3AB95FB25D6A20356EC77 CALLER CALLVALUE PUSH1 0x64 CALLVALUE PUSH2 0x4D0 SWAP2 SWAP1 PUSH2 0x9AA JUMP JUMPDEST PUSH1 0x40 MLOAD PUSH2 0x4DF SWAP4 SWAP3 SWAP2 SWAP1 PUSH2 0x881 JUMP JUMPDEST PUSH1 0x40 MLOAD DUP1 SWAP2 SUB SWAP1 LOG1 JUMP JUMPDEST PUSH2 0x4F1 PUSH2 0x5E1 JUMP JUMPDEST PUSH20 0xFFFFFFFFFFFFFFFFFFFFFFFFFFFFFFFFFFFFFFFF AND PUSH2 0x50F PUSH2 0x373 JUMP JUMPDEST PUSH20 0xFFFFFFFFFFFFFFFFFFFFFFFFFFFFFFFFFFFFFFFF AND EQ PUSH2 0x565 JUMPI PUSH1 0x40 MLOAD PUSH32 0x8C379A000000000000000000000000000000000000000000000000000000000 DUP2 MSTORE PUSH1 0x4 ADD PUSH2 0x55C SWAP1 PUSH2 0x8F3 JUMP JUMPDEST PUSH1 0x40 MLOAD DUP1 SWAP2 SUB SWAP1 REVERT JUMPDEST PUSH1 0x0 PUSH20 0xFFFFFFFFFFFFFFFFFFFFFFFFFFFFFFFFFFFFFFFF AND DUP2 PUSH20 0xFFFFFFFFFFFFFFFFFFFFFFFFFFFFFFFFFFFFFFFF AND EQ ISZERO PUSH2 0x5D5 JUMPI PUSH1 0x40 MLOAD PUSH32 0x8C379A000000000000000000000000000000000000000000000000000000000 DUP2 MSTORE PUSH1 0x4 ADD PUSH2 0x5CC SWAP1 PUSH2 0x8D3 JUMP JUMPDEST PUSH1 0x40 MLOAD DUP1 SWAP2 SUB SWAP1 REVERT JUMPDEST PUSH2 0x5DE DUP2 PUSH2 0x5E9 JUMP JUMPDEST POP JUMP JUMPDEST PUSH1 0x0 CALLER SWAP1 POP SWAP1 JUMP JUMPDEST PUSH1 0x0 DUP1 PUSH1 0x0 SWAP1 SLOAD SWAP1 PUSH2 0x100 EXP SWAP1 DIV PUSH20 0xFFFFFFFFFFFFFFFFFFFFFFFFFFFFFFFFFFFFFFFF AND SWAP1 POP DUP2 PUSH1 0x0 DUP1 PUSH2 0x100 EXP DUP2 SLOAD DUP2 PUSH20 0xFFFFFFFFFFFFFFFFFFFFFFFFFFFFFFFFFFFFFFFF MUL NOT AND SWAP1 DUP4 PUSH20 0xFFFFFFFFFFFFFFFFFFFFFFFFFFFFFFFFFFFFFFFF AND MUL OR SWAP1 SSTORE POP DUP2 PUSH20 0xFFFFFFFFFFFFFFFFFFFFFFFFFFFFFFFFFFFFFFFF AND DUP2 PUSH20 0xFFFFFFFFFFFFFFFFFFFFFFFFFFFFFFFFFFFFFFFF AND PUSH32 0x8BE0079C531659141344CD1FD0A4F28419497F9722A3DAAFE3B4186F6B6457E0 PUSH1 0x40 MLOAD PUSH1 0x40 MLOAD DUP1 SWAP2 SUB SWAP1 LOG3 POP POP JUMP JUMPDEST PUSH1 0x0 DUP2 CALLDATALOAD SWAP1 POP PUSH2 0x6BC DUP2 PUSH2 0xB95 JUMP JUMPDEST SWAP3 SWAP2 POP POP JUMP JUMPDEST PUSH1 0x0 DUP2 MLOAD SWAP1 POP PUSH2 0x6D1 DUP2 PUSH2 0xBAC JUMP JUMPDEST SWAP3 SWAP2 POP POP JUMP JUMPDEST PUSH1 0x0 PUSH1 0x20 DUP3 DUP5 SUB SLT ISZERO PUSH2 0x6E9 JUMPI PUSH1 0x0 DUP1 REVERT JUMPDEST PUSH1 0x0 PUSH2 0x6F7 DUP5 DUP3 DUP6 ADD PUSH2 0x6AD JUMP JUMPDEST SWAP2 POP POP SWAP3 SWAP2 POP POP JUMP JUMPDEST PUSH1 0x0 PUSH1 0x20 DUP3 DUP5 SUB SLT ISZERO PUSH2 0x712 JUMPI PUSH1 0x0 DUP1 REVERT JUMPDEST PUSH1 0x0 PUSH2 0x720 DUP5 DUP3 DUP6 ADD PUSH2 0x6C2 JUMP JUMPDEST SWAP2 POP POP SWAP3 SWAP2 POP POP JUMP JUMPDEST PUSH2 0x732 DUP2 PUSH2 0xA04 JUMP JUMPDEST DUP3 MSTORE POP POP JUMP JUMPDEST PUSH2 0x741 DUP2 PUSH2 0xA4C JUMP JUMPDEST DUP3 MSTORE POP POP JUMP JUMPDEST PUSH1 0x0 PUSH2 0x754 PUSH1 0x26 DUP4 PUSH2 0x999 JUMP JUMPDEST SWAP2 POP PUSH2 0x75F DUP3 PUSH2 0xA9F JUMP JUMPDEST PUSH1 0x40 DUP3 ADD SWAP1 POP SWAP2 SWAP1 POP JUMP JUMPDEST PUSH1 0x0 PUSH2 0x777 PUSH1 0x20 DUP4 PUSH2 0x999 JUMP JUMPDEST SWAP2 POP PUSH2 0x782 DUP3 PUSH2 0xAEE JUMP JUMPDEST PUSH1 0x20 DUP3 ADD SWAP1 POP SWAP2 SWAP1 POP JUMP JUMPDEST PUSH1 0x0 PUSH2 0x79A PUSH1 0x10 DUP4 PUSH2 0x999 JUMP JUMPDEST SWAP2 POP PUSH2 0x7A5 DUP3 PUSH2 0xB17 JUMP JUMPDEST PUSH1 0x20 DUP3 ADD SWAP1 POP SWAP2 SWAP1 POP JUMP JUMPDEST PUSH1 0x0 PUSH2 0x7BD PUSH1 0x0 DUP4 PUSH2 0x98E JUMP JUMPDEST SWAP2 POP PUSH2 0x7C8 DUP3 PUSH2 0xB40 JUMP JUMPDEST PUSH1 0x0 DUP3 ADD SWAP1 POP SWAP2 SWAP1 POP JUMP JUMPDEST PUSH1 0x0 PUSH2 0x7E0 PUSH1 0x13 DUP4 PUSH2 0x999 JUMP JUMPDEST SWAP2 POP PUSH2 0x7EB DUP3 PUSH2 0xB43 JUMP JUMPDEST PUSH1 0x20 DUP3 ADD SWAP1 POP SWAP2 SWAP1 POP JUMP JUMPDEST PUSH1 0x0 PUSH2 0x803 PUSH1 0xF DUP4 PUSH2 0x999 JUMP JUMPDEST SWAP2 POP PUSH2 0x80E DUP3 PUSH2 0xB6C JUMP JUMPDEST PUSH1 0x20 DUP3 ADD SWAP1 POP SWAP2 SWAP1 POP JUMP JUMPDEST PUSH2 0x822 DUP2 PUSH2 0xA42 JUMP JUMPDEST DUP3 MSTORE POP POP JUMP JUMPDEST PUSH1 0x0 PUSH2 0x833 DUP3 PUSH2 0x7B0 JUMP JUMPDEST SWAP2 POP DUP2 SWAP1 POP SWAP2 SWAP1 POP JUMP JUMPDEST PUSH1 0x0 PUSH1 0x20 DUP3 ADD SWAP1 POP PUSH2 0x852 PUSH1 0x0 DUP4 ADD DUP5 PUSH2 0x729 JUMP JUMPDEST SWAP3 SWAP2 POP POP JUMP JUMPDEST PUSH1 0x0 PUSH1 0x40 DUP3 ADD SWAP1 POP PUSH2 0x86D PUSH1 0x0 DUP4 ADD DUP6 PUSH2 0x729 JUMP JUMPDEST PUSH2 0x87A PUSH1 0x20 DUP4 ADD DUP5 PUSH2 0x819 JUMP JUMPDEST SWAP4 SWAP3 POP POP POP JUMP JUMPDEST PUSH1 0x0 PUSH1 0x60 DUP3 ADD SWAP1 POP PUSH2 0x896 PUSH1 0x0 DUP4 ADD DUP7 PUSH2 0x729 JUMP JUMPDEST PUSH2 0x8A3 PUSH1 0x20 DUP4 ADD DUP6 PUSH2 0x819 JUMP JUMPDEST PUSH2 0x8B0 PUSH1 0x40 DUP4 ADD DUP5 PUSH2 0x819 JUMP JUMPDEST SWAP5 SWAP4 POP POP POP POP JUMP JUMPDEST PUSH1 0x0 PUSH1 0x20 DUP3 ADD SWAP1 POP PUSH2 0x8CD PUSH1 0x0 DUP4 ADD DUP5 PUSH2 0x738 JUMP JUMPDEST SWAP3 SWAP2 POP POP JUMP JUMPDEST PUSH1 0x0 PUSH1 0x20 DUP3 ADD SWAP1 POP DUP2 DUP2 SUB PUSH1 0x0 DUP4 ADD MSTORE PUSH2 0x8EC DUP2 PUSH2 0x747 JUMP JUMPDEST SWAP1 POP SWAP2 SWAP1 POP JUMP JUMPDEST PUSH1 0x0 PUSH1 0x20 DUP3 ADD SWAP1 POP DUP2 DUP2 SUB PUSH1 0x0 DUP4 ADD MSTORE PUSH2 0x90C DUP2 PUSH2 0x76A JUMP JUMPDEST SWAP1 POP SWAP2 SWAP1 POP JUMP JUMPDEST PUSH1 0x0 PUSH1 0x20 DUP3 ADD SWAP1 POP DUP2 DUP2 SUB PUSH1 0x0 DUP4 ADD MSTORE PUSH2 0x92C DUP2 PUSH2 0x78D JUMP JUMPDEST SWAP1 POP SWAP2 SWAP1 POP JUMP JUMPDEST PUSH1 0x0 PUSH1 0x20 DUP3 ADD SWAP1 POP DUP2 DUP2 SUB PUSH1 0x0 DUP4 ADD MSTORE PUSH2 0x94C DUP2 PUSH2 0x7D3 JUMP JUMPDEST SWAP1 POP SWAP2 SWAP1 POP JUMP JUMPDEST PUSH1 0x0 PUSH1 0x20 DUP3 ADD SWAP1 POP DUP2 DUP2 SUB PUSH1 0x0 DUP4 ADD MSTORE PUSH2 0x96C DUP2 PUSH2 0x7F6 JUMP JUMPDEST SWAP1 POP SWAP2 SWAP1 POP JUMP JUMPDEST PUSH1 0x0 PUSH1 0x20 DUP3 ADD SWAP1 POP PUSH2 0x988 PUSH1 0x0 DUP4 ADD DUP5 PUSH2 0x819 JUMP JUMPDEST SWAP3 SWAP2 POP POP JUMP JUMPDEST PUSH1 0x0 DUP2 SWAP1 POP SWAP3 SWAP2 POP POP JUMP JUMPDEST PUSH1 0x0 DUP3 DUP3 MSTORE PUSH1 0x20 DUP3 ADD SWAP1 POP SWAP3 SWAP2 POP POP JUMP JUMPDEST PUSH1 0x0 PUSH2 0x9B5 DUP3 PUSH2 0xA42 JUMP JUMPDEST SWAP2 POP PUSH2 0x9C0 DUP4 PUSH2 0xA42 JUMP JUMPDEST SWAP3 POP DUP2 PUSH32 0xFFFFFFFFFFFFFFFFFFFFFFFFFFFFFFFFFFFFFFFFFFFFFFFFFFFFFFFFFFFFFFFF DIV DUP4 GT DUP3 ISZERO ISZERO AND ISZERO PUSH2 0x9F9 JUMPI PUSH2 0x9F8 PUSH2 0xA70 JUMP JUMPDEST JUMPDEST DUP3 DUP3 MUL SWAP1 POP SWAP3 SWAP2 POP POP JUMP JUMPDEST PUSH1 0x0 PUSH2 0xA0F DUP3 PUSH2 0xA22 JUMP JUMPDEST SWAP1 POP SWAP2 SWAP1 POP JUMP JUMPDEST PUSH1 0x0 DUP2 ISZERO ISZERO SWAP1 POP SWAP2 SWAP1 POP JUMP JUMPDEST PUSH1 0x0 PUSH20 0xFFFFFFFFFFFFFFFFFFFFFFFFFFFFFFFFFFFFFFFF DUP3 AND SWAP1 POP SWAP2 SWAP1 POP JUMP JUMPDEST PUSH1 0x0 DUP2 SWAP1 POP SWAP2 SWAP1 POP JUMP JUMPDEST PUSH1 0x0 PUSH2 0xA57 DUP3 PUSH2 0xA5E JUMP JUMPDEST SWAP1 POP SWAP2 SWAP1 POP JUMP JUMPDEST PUSH1 0x0 PUSH2 0xA69 DUP3 PUSH2 0xA22 JUMP JUMPDEST SWAP1 POP SWAP2 SWAP1 POP JUMP JUMPDEST PUSH32 0x4E487B7100000000000000000000000000000000000000000000000000000000 PUSH1 0x0 MSTORE PUSH1 0x11 PUSH1 0x4 MSTORE PUSH1 0x24 PUSH1 0x0 REVERT JUMPDEST PUSH32 0x4F776E61626C653A206E6577206F776E657220697320746865207A65726F2061 PUSH1 0x0 DUP3 ADD MSTORE PUSH32 0x6464726573730000000000000000000000000000000000000000000000000000 PUSH1 0x20 DUP3 ADD MSTORE POP JUMP JUMPDEST PUSH32 0x4F776E61626C653A2063616C6C6572206973206E6F7420746865206F776E6572 PUSH1 0x0 DUP3 ADD MSTORE POP JUMP JUMPDEST PUSH32 0x6E65656420746F2073656E642045544800000000000000000000000000000000 PUSH1 0x0 DUP3 ADD MSTORE POP JUMP JUMPDEST POP JUMP JUMPDEST PUSH32 0x6E6F7468696E6720746F20776974686472617700000000000000000000000000 PUSH1 0x0 DUP3 ADD MSTORE POP JUMP JUMPDEST PUSH32 0x7472616E73666572206661696C65640000000000000000000000000000000000 PUSH1 0x0 DUP3 ADD MSTORE POP JUMP JUMPDEST PUSH2 0xB9E DUP2 PUSH2 0xA04 JUMP JUMPDEST DUP2 EQ PUSH2 0xBA9 JUMPI PUSH1 0x0 DUP1 REVERT JUMPDEST POP JUMP JUMPDEST PUSH2 0xBB5 DUP2 PUSH2 0xA16 JUMP JUMPDEST DUP2 EQ PUSH2 0xBC0 JUMPI PUSH1 0x0 DUP1 REVERT JUMPDEST POP JUMP INVALID LOG2 PUSH5 0x6970667358 0x22 SLT KECCAK256 XOR 0xDE SWAP13 0xCE PUSH9 0xBE7000E2B1A13BB572 DUP5 0xCE 0xB4 0xF7 0xE2 NUMBER SSTORE SWAP11 JUMP 0x1F GT PUSH13 0x68DB8798915964736F6C634300 ADDMOD DIV STOP CALLER "
		},
		"gasEstimates": {
			"creation": {
				"codeDepositCost": "613000",
				"executionCost": "infinite",
				"totalCost": "infinite"
			},
			"external": {
				"buyTokens()": "infinite",
				"owner()": "1222",
				"renounceOwnership()": "24397",
				"tokensPerEth()": "351",
				"transferOwnership(address)": "24789",
				"withdraw()": "infinite",
				"yourToken()": "1302"
			}
		},
		"methodIdentifiers": {
			"buyTokens()": "d0febe4c",
			"owner()": "8da5cb5b",
			"renounceOwnership()": "715018a6",
			"tokensPerEth()": "cbdd69b5",
			"transferOwnership(address)": "f2fde38b",
			"withdraw()": "3ccfd60b",
			"yourToken()": "7879e84b"
		}
	},
	"abi": [
		{
			"inputs": [
				{
					"internalType": "address",
					"name": "tokenAddress",
					"type": "address"
				}
			],
			"stateMutability": "nonpayable",
			"type": "constructor"
		},
		{
			"anonymous": false,
			"inputs": [
				{
					"indexed": false,
					"internalType": "address",
					"name": "buyer",
					"type": "address"
				},
				{
					"indexed": false,
					"internalType": "uint256",
					"name": "amountOfETH",
					"type": "uint256"
				},
				{
					"indexed": false,
					"internalType": "uint256",
					"name": "amountOfTokens",
					"type": "uint256"
				}
			],
			"name": "BuyTokens",
			"type": "event"
		},
		{
			"anonymous": false,
			"inputs": [
				{
					"indexed": true,
					"internalType": "address",
					"name": "previousOwner",
					"type": "address"
				},
				{
					"indexed": true,
					"internalType": "address",
					"name": "newOwner",
					"type": "address"
				}
			],
			"name": "OwnershipTransferred",
			"type": "event"
		},
		{
			"inputs": [],
			"name": "buyTokens",
			"outputs": [],
			"stateMutability": "payable",
			"type": "function"
		},
		{
			"inputs": [],
			"name": "owner",
			"outputs": [
				{
					"internalType": "address",
					"name": "",
					"type": "address"
				}
			],
			"stateMutability": "view",
			"type": "function"
		},
		{
			"inputs": [],
			"name": "renounceOwnership",
			"outputs": [],
			"stateMutability": "nonpayable",
			"type": "function"
		},
		{
			"inputs": [],
			"name": "tokensPerEth",
			"outputs": [
				{
					"internalType": "uint256",
					"name": "",
					"type": "uint256"
				}
			],
			"stateMutability": "view",
			"type": "function"
		},
		{
			"inputs": [
				{
					"internalType": "address",
					"name": "newOwner",
					"type": "address"
				}
			],
			"name": "transferOwnership",
			"outputs": [],
			"stateMutability": "nonpayable",
			"type": "function"
		},
		{
			"inputs": [],
			"name": "withdraw",
			"outputs": [],
			"stateMutability": "nonpayable",
			"type": "function"
		},
		{
			"inputs": [],
			"name": "yourToken",
			"outputs": [
				{
					"internalType": "contract YourToken",
					"name": "",
					"type": "address"
				}
			],
			"stateMutability": "view",
			"type": "function"
		}
	]
}